{
  "_format": "hh-sol-artifact-1",
  "contractName": "FixedRateExchange",
  "sourceName": "contracts/pools/fixedRate/FixedRateExchange.sol",
  "abi": [
    {
      "inputs": [
        {
          "internalType": "address",
          "name": "_router",
          "type": "address"
        },
        {
          "internalType": "address",
          "name": "_opfCollector",
          "type": "address"
        }
      ],
      "stateMutability": "nonpayable",
      "type": "constructor"
    },
    {
      "anonymous": false,
      "inputs": [
        {
          "indexed": true,
          "internalType": "bytes32",
          "name": "exchangeId",
          "type": "bytes32"
        },
        {
          "indexed": true,
          "internalType": "address",
          "name": "exchangeOwner",
          "type": "address"
        }
      ],
      "name": "ExchangeActivated",
      "type": "event"
    },
    {
      "anonymous": false,
      "inputs": [
        {
          "indexed": true,
          "internalType": "bytes32",
          "name": "exchangeId",
          "type": "bytes32"
        },
        {
          "indexed": true,
          "internalType": "address",
          "name": "allowedSwapper",
          "type": "address"
        }
      ],
      "name": "ExchangeAllowedSwapperChanged",
      "type": "event"
    },
    {
      "anonymous": false,
      "inputs": [
        {
          "indexed": true,
          "internalType": "bytes32",
          "name": "exchangeId",
          "type": "bytes32"
        },
        {
          "indexed": true,
          "internalType": "address",
          "name": "baseToken",
          "type": "address"
        },
        {
          "indexed": true,
          "internalType": "address",
          "name": "dataToken",
          "type": "address"
        },
        {
          "indexed": false,
          "internalType": "address",
          "name": "exchangeOwner",
          "type": "address"
        },
        {
          "indexed": false,
          "internalType": "uint256",
          "name": "fixedRate",
          "type": "uint256"
        }
      ],
      "name": "ExchangeCreated",
      "type": "event"
    },
    {
      "anonymous": false,
      "inputs": [
        {
          "indexed": true,
          "internalType": "bytes32",
          "name": "exchangeId",
          "type": "bytes32"
        },
        {
          "indexed": true,
          "internalType": "address",
          "name": "exchangeOwner",
          "type": "address"
        }
      ],
      "name": "ExchangeDeactivated",
      "type": "event"
    },
    {
      "anonymous": false,
      "inputs": [
        {
          "indexed": true,
          "internalType": "bytes32",
          "name": "exchangeId",
          "type": "bytes32"
        },
        {
          "indexed": true,
          "internalType": "address",
          "name": "exchangeOwner",
          "type": "address"
        },
        {
          "indexed": false,
          "internalType": "bool",
          "name": "withMint",
          "type": "bool"
        }
      ],
      "name": "ExchangeMintStateChanged",
      "type": "event"
    },
    {
      "anonymous": false,
      "inputs": [
        {
          "indexed": true,
          "internalType": "bytes32",
          "name": "exchangeId",
          "type": "bytes32"
        },
        {
          "indexed": true,
          "internalType": "address",
          "name": "exchangeOwner",
          "type": "address"
        },
        {
          "indexed": false,
          "internalType": "uint256",
          "name": "newRate",
          "type": "uint256"
        }
      ],
      "name": "ExchangeRateChanged",
      "type": "event"
    },
    {
      "anonymous": false,
      "inputs": [
        {
          "indexed": true,
          "internalType": "bytes32",
          "name": "exchangeId",
          "type": "bytes32"
        },
        {
          "indexed": true,
          "internalType": "address",
          "name": "feeToken",
          "type": "address"
        },
        {
          "indexed": false,
          "internalType": "uint256",
          "name": "feeAmount",
          "type": "uint256"
        }
      ],
      "name": "MarketFeeCollected",
      "type": "event"
    },
    {
      "anonymous": false,
      "inputs": [
        {
          "indexed": true,
          "internalType": "bytes32",
          "name": "exchangeId",
          "type": "bytes32"
        },
        {
          "indexed": true,
          "internalType": "address",
          "name": "feeToken",
          "type": "address"
        },
        {
          "indexed": false,
          "internalType": "uint256",
          "name": "feeAmount",
          "type": "uint256"
        }
      ],
      "name": "OceanFeeCollected",
      "type": "event"
    },
    {
      "anonymous": false,
      "inputs": [
        {
          "indexed": true,
          "internalType": "bytes32",
          "name": "exchangeId",
          "type": "bytes32"
        },
        {
          "indexed": true,
          "internalType": "address",
          "name": "by",
          "type": "address"
        },
        {
          "indexed": false,
          "internalType": "uint256",
          "name": "baseTokenSwappedAmount",
          "type": "uint256"
        },
        {
          "indexed": false,
          "internalType": "uint256",
          "name": "dataTokenSwappedAmount",
          "type": "uint256"
        },
        {
          "indexed": false,
          "internalType": "address",
          "name": "tokenOutAddress",
          "type": "address"
        },
        {
          "indexed": false,
          "internalType": "uint256",
          "name": "marketFeeAmount",
          "type": "uint256"
        },
        {
          "indexed": false,
          "internalType": "uint256",
          "name": "oceanFeeAmount",
          "type": "uint256"
        }
      ],
      "name": "Swapped",
      "type": "event"
    },
    {
      "anonymous": false,
      "inputs": [
        {
          "indexed": true,
          "internalType": "bytes32",
          "name": "exchangeId",
          "type": "bytes32"
        },
        {
          "indexed": true,
          "internalType": "address",
          "name": "to",
          "type": "address"
        },
        {
          "indexed": true,
          "internalType": "address",
          "name": "token",
          "type": "address"
        },
        {
          "indexed": false,
          "internalType": "uint256",
          "name": "amount",
          "type": "uint256"
        }
      ],
      "name": "TokenCollected",
      "type": "event"
    },
    {
      "inputs": [
        {
          "internalType": "bytes32",
          "name": "exchangeId",
          "type": "bytes32"
        },
        {
          "internalType": "uint256",
          "name": "dataTokenAmount",
          "type": "uint256"
        },
        {
          "internalType": "uint256",
          "name": "maxBaseTokenAmount",
          "type": "uint256"
        }
      ],
      "name": "buyDT",
      "outputs": [],
      "stateMutability": "nonpayable",
      "type": "function"
    },
    {
      "inputs": [
        {
          "internalType": "bytes32",
          "name": "exchangeId",
          "type": "bytes32"
        },
        {
          "internalType": "uint256",
          "name": "dataTokenAmount",
          "type": "uint256"
        }
      ],
      "name": "calcBaseInGivenOutDT",
      "outputs": [
        {
          "internalType": "uint256",
          "name": "baseTokenAmount",
          "type": "uint256"
        },
        {
          "internalType": "uint256",
          "name": "baseTokenAmountBeforeFee",
          "type": "uint256"
        },
        {
          "internalType": "uint256",
          "name": "oceanFeeAmount",
          "type": "uint256"
        },
        {
          "internalType": "uint256",
          "name": "marketFeeAmount",
          "type": "uint256"
        }
      ],
      "stateMutability": "view",
      "type": "function"
    },
    {
      "inputs": [
        {
          "internalType": "bytes32",
          "name": "exchangeId",
          "type": "bytes32"
        },
        {
          "internalType": "uint256",
          "name": "dataTokenAmount",
          "type": "uint256"
        }
      ],
      "name": "calcBaseOutGivenInDT",
      "outputs": [
        {
          "internalType": "uint256",
          "name": "baseTokenAmount",
          "type": "uint256"
        },
        {
          "internalType": "uint256",
          "name": "baseTokenAmountBeforeFee",
          "type": "uint256"
        },
        {
          "internalType": "uint256",
          "name": "oceanFeeAmount",
          "type": "uint256"
        },
        {
          "internalType": "uint256",
          "name": "marketFeeAmount",
          "type": "uint256"
        }
      ],
      "stateMutability": "view",
      "type": "function"
    },
    {
      "inputs": [
        {
          "internalType": "bytes32",
          "name": "exchangeId",
          "type": "bytes32"
        }
      ],
      "name": "collectBT",
      "outputs": [],
      "stateMutability": "nonpayable",
      "type": "function"
    },
    {
      "inputs": [
        {
          "internalType": "bytes32",
          "name": "exchangeId",
          "type": "bytes32"
        }
      ],
      "name": "collectDT",
      "outputs": [],
      "stateMutability": "nonpayable",
      "type": "function"
    },
    {
      "inputs": [
        {
          "internalType": "bytes32",
          "name": "exchangeId",
          "type": "bytes32"
        }
      ],
      "name": "collectMarketFee",
      "outputs": [],
      "stateMutability": "nonpayable",
      "type": "function"
    },
    {
      "inputs": [
        {
          "internalType": "bytes32",
          "name": "exchangeId",
          "type": "bytes32"
        }
      ],
      "name": "collectOceanFee",
      "outputs": [],
      "stateMutability": "nonpayable",
      "type": "function"
    },
    {
      "inputs": [
        {
          "internalType": "address",
          "name": "dataToken",
          "type": "address"
        },
        {
          "internalType": "address[]",
          "name": "addresses",
          "type": "address[]"
        },
        {
          "internalType": "uint256[]",
          "name": "uints",
          "type": "uint256[]"
        }
      ],
      "name": "createWithDecimals",
      "outputs": [
        {
          "internalType": "bytes32",
          "name": "exchangeId",
          "type": "bytes32"
        }
      ],
      "stateMutability": "nonpayable",
      "type": "function"
    },
    {
      "inputs": [
        {
          "internalType": "address",
          "name": "baseToken",
          "type": "address"
        },
        {
          "internalType": "address",
          "name": "dataToken",
          "type": "address"
        },
        {
          "internalType": "address",
          "name": "exchangeOwner",
          "type": "address"
        }
      ],
      "name": "generateExchangeId",
      "outputs": [
        {
          "internalType": "bytes32",
          "name": "",
          "type": "bytes32"
        }
      ],
      "stateMutability": "pure",
      "type": "function"
    },
    {
      "inputs": [
        {
          "internalType": "bytes32",
          "name": "exchangeId",
          "type": "bytes32"
        }
      ],
      "name": "getAllowedSwapper",
      "outputs": [
        {
          "internalType": "address",
          "name": "allowedSwapper",
          "type": "address"
        }
      ],
      "stateMutability": "view",
      "type": "function"
    },
    {
      "inputs": [
        {
          "internalType": "bytes32",
          "name": "exchangeId",
          "type": "bytes32"
        }
      ],
      "name": "getBTSupply",
      "outputs": [
        {
          "internalType": "uint256",
          "name": "supply",
          "type": "uint256"
        }
      ],
      "stateMutability": "view",
      "type": "function"
    },
    {
      "inputs": [
        {
          "internalType": "bytes32",
          "name": "exchangeId",
          "type": "bytes32"
        }
      ],
      "name": "getDTSupply",
      "outputs": [
        {
          "internalType": "uint256",
          "name": "supply",
          "type": "uint256"
        }
      ],
      "stateMutability": "view",
      "type": "function"
    },
    {
      "inputs": [
        {
          "internalType": "bytes32",
          "name": "exchangeId",
          "type": "bytes32"
        }
      ],
      "name": "getExchange",
      "outputs": [
        {
          "internalType": "address",
          "name": "exchangeOwner",
          "type": "address"
        },
        {
          "internalType": "address",
          "name": "dataToken",
          "type": "address"
        },
        {
          "internalType": "uint256",
          "name": "dtDecimals",
          "type": "uint256"
        },
        {
          "internalType": "address",
          "name": "baseToken",
          "type": "address"
        },
        {
          "internalType": "uint256",
          "name": "btDecimals",
          "type": "uint256"
        },
        {
          "internalType": "uint256",
          "name": "fixedRate",
          "type": "uint256"
        },
        {
          "internalType": "bool",
          "name": "active",
          "type": "bool"
        },
        {
          "internalType": "uint256",
          "name": "dtSupply",
          "type": "uint256"
        },
        {
          "internalType": "uint256",
          "name": "btSupply",
          "type": "uint256"
        },
        {
          "internalType": "uint256",
          "name": "dtBalance",
          "type": "uint256"
        },
        {
          "internalType": "uint256",
          "name": "btBalance",
          "type": "uint256"
        },
        {
          "internalType": "bool",
          "name": "withMint",
          "type": "bool"
        }
      ],
      "stateMutability": "view",
      "type": "function"
    },
    {
      "inputs": [],
      "name": "getExchanges",
      "outputs": [
        {
          "internalType": "bytes32[]",
          "name": "",
          "type": "bytes32[]"
        }
      ],
      "stateMutability": "view",
      "type": "function"
    },
    {
      "inputs": [
        {
          "internalType": "bytes32",
          "name": "exchangeId",
          "type": "bytes32"
        }
      ],
      "name": "getFeesInfo",
      "outputs": [
        {
          "internalType": "uint256",
          "name": "marketFee",
          "type": "uint256"
        },
        {
          "internalType": "address",
          "name": "marketFeeCollector",
          "type": "address"
        },
        {
          "internalType": "uint256",
          "name": "opfFee",
          "type": "uint256"
        },
        {
          "internalType": "uint256",
          "name": "marketFeeAvailable",
          "type": "uint256"
        },
        {
          "internalType": "uint256",
          "name": "oceanFeeAvailable",
          "type": "uint256"
        }
      ],
      "stateMutability": "view",
      "type": "function"
    },
    {
      "inputs": [],
      "name": "getNumberOfExchanges",
      "outputs": [
        {
          "internalType": "uint256",
          "name": "",
          "type": "uint256"
        }
      ],
      "stateMutability": "view",
      "type": "function"
    },
    {
      "inputs": [
        {
          "internalType": "address",
          "name": "basetokenAddress",
          "type": "address"
        }
      ],
      "name": "getOPFFee",
      "outputs": [
        {
          "internalType": "uint256",
          "name": "",
          "type": "uint256"
        }
      ],
      "stateMutability": "view",
      "type": "function"
    },
    {
      "inputs": [
        {
          "internalType": "bytes32",
          "name": "exchangeId",
          "type": "bytes32"
        }
      ],
      "name": "getRate",
      "outputs": [
        {
          "internalType": "uint256",
          "name": "",
          "type": "uint256"
        }
      ],
      "stateMutability": "view",
      "type": "function"
    },
    {
      "inputs": [
        {
          "internalType": "bytes32",
          "name": "exchangeId",
          "type": "bytes32"
        }
      ],
      "name": "isActive",
      "outputs": [
        {
          "internalType": "bool",
          "name": "",
          "type": "bool"
        }
      ],
      "stateMutability": "view",
      "type": "function"
    },
    {
      "inputs": [],
      "name": "opfCollector",
      "outputs": [
        {
          "internalType": "address",
          "name": "",
          "type": "address"
        }
      ],
      "stateMutability": "view",
      "type": "function"
    },
    {
      "inputs": [],
      "name": "router",
      "outputs": [
        {
          "internalType": "address",
          "name": "",
          "type": "address"
        }
      ],
      "stateMutability": "view",
      "type": "function"
    },
    {
      "inputs": [
        {
          "internalType": "bytes32",
          "name": "exchangeId",
          "type": "bytes32"
        },
        {
          "internalType": "uint256",
          "name": "dataTokenAmount",
          "type": "uint256"
        },
        {
          "internalType": "uint256",
          "name": "minBaseTokenAmount",
          "type": "uint256"
        }
      ],
      "name": "sellDT",
      "outputs": [],
      "stateMutability": "nonpayable",
      "type": "function"
    },
    {
      "inputs": [
        {
          "internalType": "bytes32",
          "name": "exchangeId",
          "type": "bytes32"
        },
        {
          "internalType": "address",
          "name": "newAllowedSwapper",
          "type": "address"
        }
      ],
      "name": "setAllowedSwapper",
      "outputs": [],
      "stateMutability": "nonpayable",
      "type": "function"
    },
    {
      "inputs": [
        {
          "internalType": "bytes32",
          "name": "exchangeId",
          "type": "bytes32"
        },
        {
          "internalType": "uint256",
          "name": "newRate",
          "type": "uint256"
        }
      ],
      "name": "setRate",
      "outputs": [],
      "stateMutability": "nonpayable",
      "type": "function"
    },
    {
      "inputs": [
        {
          "internalType": "bytes32",
          "name": "exchangeId",
          "type": "bytes32"
        }
      ],
      "name": "toggleExchangeState",
      "outputs": [],
      "stateMutability": "nonpayable",
      "type": "function"
    },
    {
      "inputs": [
        {
          "internalType": "bytes32",
          "name": "exchangeId",
          "type": "bytes32"
        },
        {
          "internalType": "bool",
          "name": "withMint",
          "type": "bool"
        }
      ],
      "name": "toggleMintState",
      "outputs": [],
      "stateMutability": "nonpayable",
      "type": "function"
    },
    {
      "inputs": [
        {
          "internalType": "bytes32",
          "name": "exchangeId",
          "type": "bytes32"
        },
        {
          "internalType": "uint256",
          "name": "_newMarketFee",
          "type": "uint256"
        }
      ],
      "name": "updateMarketFee",
      "outputs": [],
      "stateMutability": "nonpayable",
      "type": "function"
    },
    {
      "inputs": [
        {
          "internalType": "bytes32",
          "name": "exchangeId",
          "type": "bytes32"
        },
        {
          "internalType": "address",
          "name": "_newMarketCollector",
          "type": "address"
        }
      ],
      "name": "updateMarketFeeCollector",
      "outputs": [],
      "stateMutability": "nonpayable",
      "type": "function"
    }
  ],
  "bytecode": "0x60806040523480156200001157600080fd5b506040516200339638038062003396833981016040819052620000349162000158565b60016000556001600160a01b038216620000a55760405162461bcd60e51b815260206004820152602760248201527f46697865645261746545786368616e67653a2057726f6e6720526f75746572206044820152666164647265737360c81b60648201526084015b60405180910390fd5b6001600160a01b038116620001095760405162461bcd60e51b8152602060048201526024808201527f46697865645261746545786368616e67653a2057726f6e67204f5046206164646044820152637265737360e01b60648201526084016200009c565b600180546001600160a01b039384166001600160a01b0319918216179091556002805492909316911617905562000190565b80516001600160a01b03811681146200015357600080fd5b919050565b600080604083850312156200016c57600080fd5b62000177836200013b565b915062000187602084016200013b565b90509250929050565b6131f680620001a06000396000f3fe608060405234801561001057600080fd5b50600436106101c45760003560e01c8063825b5cd6116100f9578063b686bcaf11610097578063c99733a711610071578063c99733a714610576578063f532129e14610589578063f8154aee1461059c578063f887ea40146105af57600080fd5b8063b686bcaf1461053d578063c1f6572e14610550578063c66274ea1461056357600080fd5b806388823872116100d357806388823872146104eb578063a28f78f1146104fe578063b32b56f914610511578063b42414291461053557600080fd5b8063825b5cd6146103c5578063855058dd146103d857806385fcbc2f146104d857600080fd5b80635c36901c116101665780636e4c6269116101405780636e4c62691461035957806371dc14b21461036c57806379dd28361461039f5780637c82ebe9146103b257600080fd5b80635c36901c1461030057806360311e9514610333578063680819eb1461034657600080fd5b806324cb477e116101a257806324cb477e14610247578063450dccc31461025c5780634c87087d1461026f5780635acfedc7146102ed57600080fd5b8063012c3275146101c95780630b3b430d146101ef5780631e2e3a6b14610232575b600080fd5b6101dc6101d7366004612b6c565b6105c2565b6040519081526020015b60405180910390f35b6102026101fd366004612c3e565b610d37565b604080519586526001600160a01b039094166020860152928401919091526060830152608082015260a0016101e6565b61023a610e41565b6040516101e69190612c57565b61025a610255366004612c3e565b610e99565b005b61025a61026a366004612c3e565b610f78565b61028261027d366004612c3e565b6110df565b604080516001600160a01b039d8e1681529b8d1660208d01528b0199909952999096166060890152608088019490945260a0870192909252151560c086015260e0850152610100840152610120830152610140820192909252901515610160820152610180016101e6565b61025a6102fb366004612c3e565b611206565b61032361030e366004612c3e565b60009081526003602052604090205460ff1690565b60405190151581526020016101e6565b61025a610341366004612c9b565b61131d565b61025a610354366004612cc7565b6113bf565b61025a610367366004612ce9565b6114ac565b61037f61037a366004612cc7565b611908565b6040805194855260208501939093529183015260608201526080016101e6565b61025a6103ad366004612d26565b611a76565b61025a6103c0366004612c9b565b611b08565b61025a6103d3366004612ce9565b611b9b565b6104c06103e6366004612c3e565b60009081526003602081815260409283902083516101e081018552815460ff808216151583526001600160a01b03610100928390048116958401959095526001840154851696830196909652600283015484166060830152938201546080820152600482015460a0820152600582015460c0820152600682015460e0820152600782015484820152600882015461012082015260098201548316610140820152600a820154610160820152600b820154610180820152600c9091015493841615156101a0820152919092049091166101c090910181905290565b6040516001600160a01b0390911681526020016101e6565b6101dc6104e6366004612c3e565b6120fb565b61025a6104f9366004612cc7565b612282565b6002546104c0906001600160a01b031681565b6101dc61051f366004612c3e565b6000908152600360208190526040909120015490565b6004546101dc565b61025a61054b366004612c3e565b6122f9565b6101dc61055e366004612d56565b612408565b6101dc610571366004612c3e565b612453565b61037f610584366004612cc7565b612770565b61025a610597366004612c3e565b612880565b6101dc6105aa366004612d99565b6129d9565b6001546104c0906001600160a01b031681565b6001546000906001600160a01b031633146106245760405162461bcd60e51b815260206004820152601e60248201527f46697865645261746545786368616e67653a206f6e6c7920726f75746572000060448201526064015b60405180910390fd5b60006001600160a01b03168360008151811061064257610642612db4565b60200260200101516001600160a01b031614156106bd5760405162461bcd60e51b815260206004820152603360248201527f46697865645261746545786368616e67653a20496e76616c69642062617365746044820152726f6b656e2c20207a65726f206164647265737360681b606482015260840161061b565b6001600160a01b03841661072f5760405162461bcd60e51b815260206004820152603360248201527f46697865645261746545786368616e67653a20496e76616c69642064617461746044820152726f6b656e2c20207a65726f206164647265737360681b606482015260840161061b565b836001600160a01b03168360008151811061074c5761074c612db4565b60200260200101516001600160a01b031614156107d15760405162461bcd60e51b815260206004820152603760248201527f46697865645261746545786368616e67653a20496e76616c696420646174617460448201527f6f6b656e2c2020657175616c732062617365746f6b656e000000000000000000606482015260840161061b565b816002815181106107e4576107e4612db4565b6020026020010151600014156108535760405162461bcd60e51b815260206004820152602e60248201527f46697865645261746545786368616e67653a20496e76616c696420657863686160448201526d6e676520726174652076616c756560901b606482015260840161061b565b6108928360008151811061086957610869612db4565b6020026020010151858560018151811061088557610885612db4565b6020026020010151612408565b60008181526003602081905260409091200154909150156109095760405162461bcd60e51b815260206004820152602b60248201527f46697865645261746545786368616e67653a2045786368616e676520616c726560448201526a616479206578697374732160a81b606482015260840161061b565b6000600190508260048151811061092257610922612db4565b602002602001015160001415610936575060005b604051806101e001604052806001151581526020018560018151811061095e5761095e612db4565b60200260200101516001600160a01b03168152602001866001600160a01b031681526020018560008151811061099657610996612db4565b60200260200101516001600160a01b03168152602001846002815181106109bf576109bf612db4565b60200260200101518152602001846001815181106109df576109df612db4565b60200260200101518152602001846000815181106109ff576109ff612db4565b60200260200101518152602001600081526020016000815260200184600381518110610a2d57610a2d612db4565b6020026020010151815260200185600281518110610a4d57610a4d612db4565b60200260200101516001600160a01b031681526020016000815260200160008152602001821515815260200185600381518110610a8c57610a8c612db4565b6020908102919091018101516001600160a01b0390811690925260008581526003808352604080832086518154958801518716610100908102610100600160a81b031992151583166001600160a81b0319988916171783559288015160018084018054928a166001600160a01b031993841617905560608a0151600285018054918b1691841691909117905560808a01519584019590955560a089015160048085019190915560c08a0151600585015560e08a01516006850155848a015160078501556101208a015160088501556101408a0151600985018054918b169190931617909155610160890151600a840155610180890151600b8401556101a0890151600c90930180546101c0909a01518916909402921515909116979095169690961795909517909455815493840182559081527f8a35acfbc15ff81a39ae7d344fd709f28e8600b4aa8c65c6b64bfe7fe36bd19b9092018490558551908716918691610bfa57610bfa612db4565b60200260200101516001600160a01b0316837feb7a353641f7d3cc54b497ef1553fdc292b64d9cc3be8587c23dfba01f310b1987600181518110610c4057610c40612db4565b602002602001015187600281518110610c5b57610c5b612db4565b6020026020010151604051610c859291906001600160a01b03929092168252602082015260400190565b60405180910390a483600181518110610ca057610ca0612db4565b60200260200101516001600160a01b0316827fc7344c45124818d1d3a4c24ccb9b86d8b88d3bd05209b2a42b494cb32a50352960405160405180910390a383600381518110610cf157610cf1612db4565b60200260200101516001600160a01b0316827fcc1b4af8292e6b938f6743c78a62317c9a2d60e0d46b77776a027e53ce617c0c60405160405180910390a3509392505050565b600081815260036020818152604080842081516101e081018352815460ff808216151583526001600160a01b036101009283900481168488015260018501548116958401959095526002840154851660608401819052848801546080850152600485015460a0850152600585015460c0850152600685015460e085015260078501548385015260088501546101208501819052600986015487166101408601819052600a870154610160870152600b870154610180870152600c9096015492831615156101a0860152929091049094166101c0830152878752949093529293918291829190610e25906129d9565b9350806101600151925080610180015191505091939590929450565b60606004805480602002602001604051908101604052809291908181526020018280548015610e8f57602002820191906000526020600020905b815481526020019060010190808311610e7b575b5050505050905090565b600081815260036020526040902054819061010090046001600160a01b03163314610ed65760405162461bcd60e51b815260040161061b90612dca565b60008281526003602052604090205460ff1615610f3157600082815260036020526040808220805460ff1916905551339184917f03da9148e1de78fba22de63c573465562ebf6ef878a1d3ea83790a560229984c9190a35050565b600082815260036020526040808220805460ff1916600117905551339184917fc7344c45124818d1d3a4c24ccb9b86d8b88d3bd05209b2a42b494cb32a5035299190a35050565b600081815260036020526040902054819061010090046001600160a01b03163314610fb55760405162461bcd60e51b815260040161061b90612dca565b60026000541415610fd85760405162461bcd60e51b815260040161061b90612e13565b600260009081558281526003602052604080822060068101805493905560018101549054915163a9059cbb60e01b81526101009092046001600160a01b03908116600484015260248301849052169063a9059cbb906044016020604051808303816000875af115801561104f573d6000803e3d6000fd5b505050506040513d601f19601f820116820180604052508101906110739190612e4a565b506000838152600360209081526040918290206001810154905492518481526001600160a01b039182169361010090049091169186917fecc75f4464886bee0a1c5eae61c0cb4b99c64c5e9cdebe3696217d266f8b163691015b60405180910390a45050600160005550565b600081815260036020818152604080842081516101e081018352815460ff80821615158084526001600160a01b036101009384900481169785018890526001860154811696850187905260028601548116606086018190529886015460808601819052600487015460a08701819052600588015460c08801819052600689015460e0890152600789015487890152600889015461012089015260098901548416610140890152600a890154610160890152600b890154610180890152600c9098015494851615156101a088015294909304166101c08501529597949691959194909281908190819081906111d28e612453565b95506111dd8e6120fb565b94508060e0015193508061010001519250806101a0015191505091939597999b5091939597999b565b600260005414156112295760405162461bcd60e51b815260040161061b90612e13565b6002600081815582815260036020526040808220600b810180549390558301549254905163a9059cbb60e01b81526001600160a01b039182166004820152602481018390529192169063a9059cbb906044016020604051808303816000875af115801561129a573d6000803e3d6000fd5b505050506040513d601f19601f820116820180604052508101906112be9190612e4a565b506000828152600360209081526040918290206002015491518381526001600160a01b039092169184917f457b44fd47c33fc65bfbd58d0202ad97fbed1bbc9881f56441d05fe9ebd58acf91015b60405180910390a350506001600055565b600082815260036020526040902054829061010090046001600160a01b0316331461135a5760405162461bcd60e51b815260040161061b90612dca565b600083815260036020526040808220600c018054610100600160a81b0319166101006001600160a01b038716908102919091179091559051909185917fcc1b4af8292e6b938f6743c78a62317c9a2d60e0d46b77776a027e53ce617c0c9190a3505050565b600082815260036020526040902054829061010090046001600160a01b031633146113fc5760405162461bcd60e51b815260040161061b90612dca565b816114555760405162461bcd60e51b815260206004820152602360248201527f46697865645261746545786368616e67653a20526174696f206d7573742062656044820152620203e360ec1b606482015260840161061b565b6000838152600360208190526040918290200183905551339084907fe50f9919fdc524004a4ee0cb934f4734f144bec0713a52e5483b753f5de0f08c9061149f9086815260200190565b60405180910390a3505050565b600083815260036020526040902054839060ff1615156001146114e15760405162461bcd60e51b815260040161061b90612e67565b600260005414156115045760405162461bcd60e51b815260040161061b90612e13565b6002600055826115265760405162461bcd60e51b815260040161061b90612eb2565b6000848152600360205260409020600c015461010090046001600160a01b031615611589576000848152600360205260409020600c015461010090046001600160a01b031633146115895760405162461bcd60e51b815260040161061b90612efb565b6000806000806115998888611908565b9350935093509350858410156116005760405162461bcd60e51b815260206004820152602660248201527f46697865645261746545786368616e67653a20546f6f20666577206261736520604482015265746f6b656e7360d01b606482015260840161061b565b6000888152600360205260409020600b015461161c9083612a48565b6000898152600360205260409020600b810191909155600a01546116409082612a48565b60008981526003602052604090819020600a81019290925560019091015490516323b872dd60e01b81526001600160a01b03909116906323b872dd9061168e90339030908c90600401612f51565b6020604051808303816000875af11580156116ad573d6000803e3d6000fd5b505050506040513d601f19601f820116820180604052508101906116d19190612e4a565b6116ed5760405162461bcd60e51b815260040161061b90612f75565b6000888152600360205260409020600601546117099088612a48565b60008981526003602052604090206006810191909155600701548411156117db57600088815260036020526040908190206002810154905491516323b872dd60e01b81526001600160a01b03918216926323b872dd9261177792610100909204169033908990600401612f51565b6020604051808303816000875af1158015611796573d6000803e3d6000fd5b505050506040513d601f19601f820116820180604052508101906117ba9190612e4a565b6117d65760405162461bcd60e51b815260040161061b90612fd3565b611888565b6000888152600360205260409020600701546117f79084612a5b565b600089815260036020526040908190206007810192909255600290910154905163a9059cbb60e01b8152336004820152602481018690526001600160a01b039091169063a9059cbb906044016020604051808303816000875af1158015611862573d6000803e3d6000fd5b505050506040513d601f19601f820116820180604052508101906118869190612e4a565b505b6000888152600360209081526040918290206002015482518781529182018a90526001600160a01b0316918101919091526060810182905260808101839052339089907f71999bcde73cf4958b3a13dcbc60ff31366318eb6e67b45c93725aa07f89cbd29060a0015b60405180910390a350506001600055505050505050565b600082815260036020526040812054819081908190869060ff1615156001146119435760405162461bcd60e51b815260040161061b90612e67565b6000878152600360205260409020600401546119bd90670de0b6b3a7640000906119b79061197290600a61312b565b60008b8152600360205260409020600501546119b79061199390600a61312b565b60008d815260036020819052604090912001546119b1908d90612a67565b90612a67565b90612a73565b6000888152600360205260409020600201549094506119e4906001600160a01b03166129d9565b15611a2957600087815260036020526040902060020154611a2690670de0b6b3a7640000906119b790611a1f906001600160a01b03166129d9565b8790612a67565b92505b600087815260036020526040902060080154611a5490670de0b6b3a7640000906119b7908790612a67565b9150611a6a83611a648685612a5b565b90612a5b565b94505092959194509250565b600082815260036020526040902054829061010090046001600160a01b03163314611ab35760405162461bcd60e51b815260040161061b90612dca565b600083815260036020908152604091829020600c01805460ff19168515159081179091559151918252339185917fe28e899e0f5d6fba0c8d73d1888083bcc62d4d9806d2e26fcf1f607c3ed52f53910161149f565b6000828152600360205260409020600901546001600160a01b03163314611b6a5760405162461bcd60e51b81526020600482015260166024820152753737ba1036b0b935b2ba2332b2a1b7b63632b1ba37b960511b604482015260640161061b565b60009182526003602052604090912060090180546001600160a01b0319166001600160a01b03909216919091179055565b600083815260036020526040902054839060ff161515600114611bd05760405162461bcd60e51b815260040161061b90612e67565b60026000541415611bf35760405162461bcd60e51b815260040161061b90612e13565b600260005582611c155760405162461bcd60e51b815260040161061b90612eb2565b6000848152600360205260409020600c015461010090046001600160a01b031615611c78576000848152600360205260409020600c015461010090046001600160a01b03163314611c785760405162461bcd60e51b815260040161061b90612efb565b600080600080611c888888612770565b935093509350935085841115611cf05760405162461bcd60e51b815260206004820152602760248201527f46697865645261746545786368616e67653a20546f6f206d616e79206261736560448201526620746f6b656e7360c81b606482015260840161061b565b6000888152600360205260409020600b0154611d0c9083612a48565b6000898152600360205260409020600b810191909155600a0154611d309082612a48565b60008981526003602052604090819020600a81019290925560029091015490516323b872dd60e01b81526001600160a01b03909116906323b872dd90611d7e90339030908990600401612f51565b6020604051808303816000875af1158015611d9d573d6000803e3d6000fd5b505050506040513d601f19601f82011682018060405250810190611dc19190612e4a565b611ddd5760405162461bcd60e51b815260040161061b90612fd3565b600088815260036020526040902060070154611df99084612a48565b6000898152600360205260409020600781019190915560060154871115611fe1576000888152600360205260409020600c015460ff168015611eb25750600088815260036020526040908190206001015490516355138f0d60e11b81523060048201526001600160a01b039091169063aa271e1a90602401602060405180830381865afa158015611e8e573d6000803e3d6000fd5b505050506040513d601f19601f82011682018060405250810190611eb29190612e4a565b15611f3057600088815260036020526040908190206001015490516340c10f1960e01b8152336004820152602481018990526001600160a01b03909116906340c10f1990604401600060405180830381600087803b158015611f1357600080fd5b505af1158015611f27573d6000803e3d6000fd5b5050505061208e565b600088815260036020526040908190206001810154905491516323b872dd60e01b81526001600160a01b03918216926323b872dd92611f7d92610100909204169033908c90600401612f51565b6020604051808303816000875af1158015611f9c573d6000803e3d6000fd5b505050506040513d601f19601f82011682018060405250810190611fc09190612e4a565b611fdc5760405162461bcd60e51b815260040161061b90612f75565b61208e565b600088815260036020526040902060060154611ffd9088612a5b565b600089815260036020526040908190206006810192909255600190910154905163a9059cbb60e01b8152336004820152602481018990526001600160a01b039091169063a9059cbb906044016020604051808303816000875af1158015612068573d6000803e3d6000fd5b505050506040513d601f19601f8201168201806040525081019061208c9190612e4a565b505b6000888152600360209081526040918290206001015482518781529182018a90526001600160a01b0316918101919091526060810182905260808101839052339089907f71999bcde73cf4958b3a13dcbc60ff31366318eb6e67b45c93725aa07f89cbd29060a0016118f1565b60008181526003602052604081205460ff1661211957506000919050565b6000828152600360205260408082206002810154905491516370a0823160e01b81526101009092046001600160a01b03908116600484015216906370a0823190602401602060405180830381865afa158015612179573d6000803e3d6000fd5b505050506040513d601f19601f8201168201806040525081019061219d9190613137565b600084815260036020526040808220600281015490549151636eb1769f60e11b81526001600160a01b0361010090930483166004820152306024820152939450919291169063dd62ed3e90604401602060405180830381865afa158015612208573d6000803e3d6000fd5b505050506040513d601f19601f8201168201806040525081019061222c9190613137565b90508082101561225a57600084815260036020526040902060070154612253908390612a48565b925061227a565b600084815260036020526040902060070154612277908290612a48565b92505b50505b919050565b6000828152600360205260409020600901546001600160a01b031633146122e45760405162461bcd60e51b81526020600482015260166024820152753737ba1036b0b935b2ba2332b2a1b7b63632b1ba37b960511b604482015260640161061b565b60009182526003602052604090912060080155565b6002600054141561231c5760405162461bcd60e51b815260040161061b90612e13565b6002600081815582815260036020526040808220600a8101805493905592830154600990930154905163a9059cbb60e01b81526001600160a01b039182166004820152602481018390529192169063a9059cbb906044016020604051808303816000875af1158015612392573d6000803e3d6000fd5b505050506040513d601f19601f820116820180604052508101906123b69190612e4a565b506000828152600360209081526040918290206002015491518381526001600160a01b039092169184917f192a3cd95e40313e0e12c28b398e31633936e38d134419161f883c8d64079055910161130c565b604080516001600160a01b0380861660208301528085169282019290925290821660608201526000906080016040516020818303038152906040528051906020012090509392505050565b60008181526003602052604081205460ff1661247157506000919050565b6000828152600360205260409020600c015460ff161515600114801561250e5750600082815260036020526040908190206001015490516355138f0d60e11b81523060048201526001600160a01b039091169063aa271e1a90602401602060405180830381865afa1580156124ea573d6000803e3d6000fd5b505050506040513d601f19601f8201168201806040525081019061250e9190612e4a565b15612619576000828152600360209081526040918290206001015482516318160ddd60e01b815292516001600160a01b03909116926318160ddd9260048083019391928290030181865afa15801561256a573d6000803e3d6000fd5b505050506040513d601f19601f8201168201806040525081019061258e9190613137565b600083815260036020908152604091829020600101548251631aa93a7560e11b815292516001600160a01b039091169263355274ea9260048083019391928290030181865afa1580156125e5573d6000803e3d6000fd5b505050506040513d601f19601f820116820180604052508101906126099190613137565b6126139190613150565b92915050565b6000828152600360205260408082206001810154905491516370a0823160e01b81526101009092046001600160a01b03908116600484015216906370a0823190602401602060405180830381865afa158015612679573d6000803e3d6000fd5b505050506040513d601f19601f8201168201806040525081019061269d9190613137565b600084815260036020526040808220600181015490549151636eb1769f60e11b81526001600160a01b0361010090930483166004820152306024820152939450919291169063dd62ed3e90604401602060405180830381865afa158015612708573d6000803e3d6000fd5b505050506040513d601f19601f8201168201806040525081019061272c9190613137565b90508082101561275357600084815260036020526040902060060154612253908390612a48565b600084815260036020526040902060060154612277908290612a48565b600082815260036020526040812054819081908190869060ff1615156001146127ab5760405162461bcd60e51b815260040161061b90612e67565b6000878152600360205260409020600401546127da90670de0b6b3a7640000906119b79061197290600a61312b565b600088815260036020526040902060020154909450612801906001600160a01b03166129d9565b1561283f5760008781526003602052604090206002015461283c90670de0b6b3a7640000906119b790611a1f906001600160a01b03166129d9565b92505b60008781526003602052604090206008015461286a90670de0b6b3a7640000906119b7908790612a67565b9150611a6a8361287a8685612a48565b90612a48565b600081815260036020526040902054819061010090046001600160a01b031633146128bd5760405162461bcd60e51b815260040161061b90612dca565b600260005414156128e05760405162461bcd60e51b815260040161061b90612e13565b6002600081815583815260036020526040808220600781018054939055928301549254905163a9059cbb60e01b81526001600160a01b0361010090920482166004820152602481018390529192169063a9059cbb906044016020604051808303816000875af1158015612957573d6000803e3d6000fd5b505050506040513d601f19601f8201168201806040525081019061297b9190612e4a565b506000838152600360209081526040918290206002810154905492518481526001600160a01b039182169361010090049091169186917fecc75f4464886bee0a1c5eae61c0cb4b99c64c5e9cdebe3696217d266f8b163691016110cd565b600154604051637c0aa57760e11b81526001600160a01b038381166004830152600092169063f8154aee90602401602060405180830381865afa158015612a24573d6000803e3d6000fd5b505050506040513d601f19601f820116820180604052508101906126139190613137565b6000612a548284613167565b9392505050565b6000612a548284613150565b6000612a54828461317f565b6000612a54828461319e565b80356001600160a01b038116811461227d57600080fd5b634e487b7160e01b600052604160045260246000fd5b604051601f8201601f1916810167ffffffffffffffff81118282101715612ad557612ad5612a96565b604052919050565b600067ffffffffffffffff821115612af757612af7612a96565b5060051b60200190565b600082601f830112612b1257600080fd5b81356020612b27612b2283612add565b612aac565b82815260059290921b84018101918181019086841115612b4657600080fd5b8286015b84811015612b615780358352918301918301612b4a565b509695505050505050565b600080600060608486031215612b8157600080fd5b612b8a84612a7f565b925060208085013567ffffffffffffffff80821115612ba857600080fd5b818701915087601f830112612bbc57600080fd5b8135612bca612b2282612add565b81815260059190911b8301840190848101908a831115612be957600080fd5b938501935b82851015612c0e57612bff85612a7f565b82529385019390850190612bee565b965050506040870135925080831115612c2657600080fd5b5050612c3486828701612b01565b9150509250925092565b600060208284031215612c5057600080fd5b5035919050565b6020808252825182820181905260009190848201906040850190845b81811015612c8f57835183529284019291840191600101612c73565b50909695505050505050565b60008060408385031215612cae57600080fd5b82359150612cbe60208401612a7f565b90509250929050565b60008060408385031215612cda57600080fd5b50508035926020909101359150565b600080600060608486031215612cfe57600080fd5b505081359360208301359350604090920135919050565b8015158114612d2357600080fd5b50565b60008060408385031215612d3957600080fd5b823591506020830135612d4b81612d15565b809150509250929050565b600080600060608486031215612d6b57600080fd5b612d7484612a7f565b9250612d8260208501612a7f565b9150612d9060408501612a7f565b90509250925092565b600060208284031215612dab57600080fd5b612a5482612a7f565b634e487b7160e01b600052603260045260246000fd5b60208082526029908201527f46697865645261746545786368616e67653a20696e76616c69642065786368616040820152683733b29037bbb732b960b91b606082015260800190565b6020808252601f908201527f5265656e7472616e637947756172643a207265656e7472616e742063616c6c00604082015260600190565b600060208284031215612e5c57600080fd5b8151612a5481612d15565b6020808252602b908201527f46697865645261746545786368616e67653a2045786368616e676520646f657360408201526a206e6f742065786973742160a81b606082015260800190565b60208082526029908201527f46697865645261746545786368616e67653a207a65726f206461746120746f6b604082015268195b88185b5bdd5b9d60ba1b606082015260800190565b60208082526036908201527f46697865645261746545786368616e67653a205468697320616464726573732060408201527506973206e6f7420616c6c6f77656420746f20737761760541b606082015260800190565b6001600160a01b039384168152919092166020820152604081019190915260600190565b602080825260409082018190527f46697865645261746545786368616e67653a207472616e7366657246726f6d20908201527f6661696c656420696e207468652064617461546f6b656e20636f6e7472616374606082015260800190565b602080825260409082018190527f46697865645261746545786368616e67653a207472616e7366657246726f6d20908201527f6661696c656420696e207468652062617365546f6b656e20636f6e7472616374606082015260800190565b634e487b7160e01b600052601160045260246000fd5b600181815b8085111561308257816000190482111561306857613068613031565b8085161561307557918102915b93841c939080029061304c565b509250929050565b60008261309957506001612613565b816130a657506000612613565b81600181146130bc57600281146130c6576130e2565b6001915050612613565b60ff8411156130d7576130d7613031565b50506001821b612613565b5060208310610133831016604e8410600b8410161715613105575081810a612613565b61310f8383613047565b806000190482111561312357613123613031565b029392505050565b6000612a54838361308a565b60006020828403121561314957600080fd5b5051919050565b60008282101561316257613162613031565b500390565b6000821982111561317a5761317a613031565b500190565b600081600019048311821515161561319957613199613031565b500290565b6000826131bb57634e487b7160e01b600052601260045260246000fd5b50049056fea26469706673582212208e97f7cbe9724f8e80b97eeeb254e278a0a453c50c7998ab17826bfdf69219a464736f6c634300080a0033",
  "linkReferences": {},
  "deployedLinkReferences": {}
}