{
  "_format": "hh-sol-artifact-1",
  "contractName": "FixedRateExchange",
  "sourceName": "contracts/pools/fixedRate/FixedRateExchange.sol",
  "abi": [
    {
      "inputs": [
        {
          "internalType": "address",
          "name": "_router",
          "type": "address"
        },
        {
          "internalType": "address",
          "name": "_opcCollector",
          "type": "address"
        }
      ],
      "stateMutability": "nonpayable",
      "type": "constructor"
    },
    {
      "anonymous": false,
      "inputs": [
        {
          "indexed": false,
          "internalType": "address",
          "name": "to",
          "type": "address"
        },
        {
          "indexed": false,
          "internalType": "address",
          "name": "token",
          "type": "address"
        },
        {
          "indexed": false,
          "internalType": "uint256",
          "name": "amount",
          "type": "uint256"
        }
      ],
      "name": "ConsumeMarketFee",
      "type": "event"
    },
    {
      "anonymous": false,
      "inputs": [
        {
          "indexed": true,
          "internalType": "bytes32",
          "name": "exchangeId",
          "type": "bytes32"
        },
        {
          "indexed": true,
          "internalType": "address",
          "name": "exchangeOwner",
          "type": "address"
        }
      ],
      "name": "ExchangeActivated",
      "type": "event"
    },
    {
      "anonymous": false,
      "inputs": [
        {
          "indexed": true,
          "internalType": "bytes32",
          "name": "exchangeId",
          "type": "bytes32"
        },
        {
          "indexed": true,
          "internalType": "address",
          "name": "allowedSwapper",
          "type": "address"
        }
      ],
      "name": "ExchangeAllowedSwapperChanged",
      "type": "event"
    },
    {
      "anonymous": false,
      "inputs": [
        {
          "indexed": true,
          "internalType": "bytes32",
          "name": "exchangeId",
          "type": "bytes32"
        },
        {
          "indexed": true,
          "internalType": "address",
          "name": "baseToken",
          "type": "address"
        },
        {
          "indexed": true,
          "internalType": "address",
          "name": "datatoken",
          "type": "address"
        },
        {
          "indexed": false,
          "internalType": "address",
          "name": "exchangeOwner",
          "type": "address"
        },
        {
          "indexed": false,
          "internalType": "uint256",
          "name": "fixedRate",
          "type": "uint256"
        }
      ],
      "name": "ExchangeCreated",
      "type": "event"
    },
    {
      "anonymous": false,
      "inputs": [
        {
          "indexed": true,
          "internalType": "bytes32",
          "name": "exchangeId",
          "type": "bytes32"
        },
        {
          "indexed": true,
          "internalType": "address",
          "name": "exchangeOwner",
          "type": "address"
        }
      ],
      "name": "ExchangeDeactivated",
      "type": "event"
    },
    {
      "anonymous": false,
      "inputs": [
        {
          "indexed": true,
          "internalType": "bytes32",
          "name": "exchangeId",
          "type": "bytes32"
        },
        {
          "indexed": true,
          "internalType": "address",
          "name": "exchangeOwner",
          "type": "address"
        },
        {
          "indexed": false,
          "internalType": "bool",
          "name": "withMint",
          "type": "bool"
        }
      ],
      "name": "ExchangeMintStateChanged",
      "type": "event"
    },
    {
      "anonymous": false,
      "inputs": [
        {
          "indexed": true,
          "internalType": "bytes32",
          "name": "exchangeId",
          "type": "bytes32"
        },
        {
          "indexed": true,
          "internalType": "address",
          "name": "exchangeOwner",
          "type": "address"
        },
        {
          "indexed": false,
          "internalType": "uint256",
          "name": "newRate",
          "type": "uint256"
        }
      ],
      "name": "ExchangeRateChanged",
      "type": "event"
    },
    {
      "anonymous": false,
      "inputs": [
        {
          "indexed": true,
          "internalType": "bytes32",
          "name": "exchangeId",
          "type": "bytes32"
        },
        {
          "indexed": true,
          "internalType": "address",
          "name": "feeToken",
          "type": "address"
        },
        {
          "indexed": false,
          "internalType": "uint256",
          "name": "feeAmount",
          "type": "uint256"
        }
      ],
      "name": "MarketFeeCollected",
      "type": "event"
    },
    {
      "anonymous": false,
      "inputs": [
        {
          "indexed": true,
          "internalType": "bytes32",
          "name": "exchangeId",
          "type": "bytes32"
        },
        {
          "indexed": true,
          "internalType": "address",
          "name": "feeToken",
          "type": "address"
        },
        {
          "indexed": false,
          "internalType": "uint256",
          "name": "feeAmount",
          "type": "uint256"
        }
      ],
      "name": "OceanFeeCollected",
      "type": "event"
    },
    {
      "anonymous": false,
      "inputs": [
        {
          "indexed": false,
          "internalType": "address",
          "name": "caller",
          "type": "address"
        },
        {
          "indexed": false,
          "internalType": "address",
          "name": "marketAddress",
          "type": "address"
        },
        {
          "indexed": false,
          "internalType": "address",
          "name": "token",
          "type": "address"
        },
        {
          "indexed": false,
          "internalType": "uint256",
          "name": "amount",
          "type": "uint256"
        }
      ],
      "name": "PublishMarketFee",
      "type": "event"
    },
    {
      "anonymous": false,
      "inputs": [
        {
          "indexed": false,
          "internalType": "address",
          "name": "caller",
          "type": "address"
        },
        {
          "indexed": false,
          "internalType": "address",
          "name": "newMarketCollector",
          "type": "address"
        },
        {
          "indexed": false,
          "internalType": "uint256",
          "name": "swapFee",
          "type": "uint256"
        }
      ],
      "name": "PublishMarketFeeChanged",
      "type": "event"
    },
    {
      "anonymous": false,
      "inputs": [
        {
          "indexed": false,
          "internalType": "uint256",
          "name": "oceanFeeAmount",
          "type": "uint256"
        },
        {
          "indexed": false,
          "internalType": "uint256",
          "name": "marketFeeAmount",
          "type": "uint256"
        },
        {
          "indexed": false,
          "internalType": "uint256",
          "name": "consumeMarketFeeAmount",
          "type": "uint256"
        },
        {
          "indexed": false,
          "internalType": "address",
          "name": "tokenFeeAddress",
          "type": "address"
        }
      ],
      "name": "SWAP_FEES",
      "type": "event"
    },
    {
      "anonymous": false,
      "inputs": [
        {
          "indexed": true,
          "internalType": "bytes32",
          "name": "exchangeId",
          "type": "bytes32"
        },
        {
          "indexed": true,
          "internalType": "address",
          "name": "by",
          "type": "address"
        },
        {
          "indexed": false,
          "internalType": "uint256",
          "name": "baseTokenSwappedAmount",
          "type": "uint256"
        },
        {
          "indexed": false,
          "internalType": "uint256",
          "name": "datatokenSwappedAmount",
          "type": "uint256"
        },
        {
          "indexed": false,
          "internalType": "address",
          "name": "tokenOutAddress",
          "type": "address"
        },
        {
          "indexed": false,
          "internalType": "uint256",
          "name": "marketFeeAmount",
          "type": "uint256"
        },
        {
          "indexed": false,
          "internalType": "uint256",
          "name": "oceanFeeAmount",
          "type": "uint256"
        },
        {
          "indexed": false,
          "internalType": "uint256",
          "name": "consumeMarketFeeAmount",
          "type": "uint256"
        }
      ],
      "name": "Swapped",
      "type": "event"
    },
    {
      "anonymous": false,
      "inputs": [
        {
          "indexed": true,
          "internalType": "bytes32",
          "name": "exchangeId",
          "type": "bytes32"
        },
        {
          "indexed": true,
          "internalType": "address",
          "name": "to",
          "type": "address"
        },
        {
          "indexed": true,
          "internalType": "address",
          "name": "token",
          "type": "address"
        },
        {
          "indexed": false,
          "internalType": "uint256",
          "name": "amount",
          "type": "uint256"
        }
      ],
      "name": "TokenCollected",
      "type": "event"
    },
    {
      "inputs": [
        {
          "internalType": "bytes32",
          "name": "exchangeId",
          "type": "bytes32"
        },
        {
          "internalType": "uint256",
          "name": "datatokenAmount",
          "type": "uint256"
        },
        {
          "internalType": "uint256",
          "name": "maxBaseTokenAmount",
          "type": "uint256"
        },
        {
          "internalType": "address",
          "name": "consumeMarketAddress",
          "type": "address"
        },
        {
          "internalType": "uint256",
          "name": "consumeMarketSwapFeeAmount",
          "type": "uint256"
        }
      ],
      "name": "buyDT",
      "outputs": [],
      "stateMutability": "nonpayable",
      "type": "function"
    },
    {
      "inputs": [
        {
          "internalType": "bytes32",
          "name": "exchangeId",
          "type": "bytes32"
        },
        {
          "internalType": "uint256",
          "name": "datatokenAmount",
          "type": "uint256"
        },
        {
          "internalType": "uint256",
          "name": "consumeMarketSwapFeeAmount",
          "type": "uint256"
        }
      ],
      "name": "calcBaseInGivenOutDT",
      "outputs": [
        {
          "internalType": "uint256",
          "name": "baseTokenAmount",
          "type": "uint256"
        },
        {
          "internalType": "uint256",
          "name": "oceanFeeAmount",
          "type": "uint256"
        },
        {
          "internalType": "uint256",
          "name": "publishMarketFeeAmount",
          "type": "uint256"
        },
        {
          "internalType": "uint256",
          "name": "consumeMarketFeeAmount",
          "type": "uint256"
        }
      ],
      "stateMutability": "view",
      "type": "function"
    },
    {
      "inputs": [
        {
          "internalType": "bytes32",
          "name": "exchangeId",
          "type": "bytes32"
        },
        {
          "internalType": "uint256",
          "name": "datatokenAmount",
          "type": "uint256"
        },
        {
          "internalType": "uint256",
          "name": "consumeMarketSwapFeeAmount",
          "type": "uint256"
        }
      ],
      "name": "calcBaseOutGivenInDT",
      "outputs": [
        {
          "internalType": "uint256",
          "name": "",
          "type": "uint256"
        },
        {
          "internalType": "uint256",
          "name": "",
          "type": "uint256"
        },
        {
          "internalType": "uint256",
          "name": "",
          "type": "uint256"
        },
        {
          "internalType": "uint256",
          "name": "",
          "type": "uint256"
        }
      ],
      "stateMutability": "view",
      "type": "function"
    },
    {
      "inputs": [
        {
          "internalType": "bytes32",
          "name": "exchangeId",
          "type": "bytes32"
        }
      ],
      "name": "collectBT",
      "outputs": [],
      "stateMutability": "nonpayable",
      "type": "function"
    },
    {
      "inputs": [
        {
          "internalType": "bytes32",
          "name": "exchangeId",
          "type": "bytes32"
        }
      ],
      "name": "collectDT",
      "outputs": [],
      "stateMutability": "nonpayable",
      "type": "function"
    },
    {
      "inputs": [
        {
          "internalType": "bytes32",
          "name": "exchangeId",
          "type": "bytes32"
        }
      ],
      "name": "collectMarketFee",
      "outputs": [],
      "stateMutability": "nonpayable",
      "type": "function"
    },
    {
      "inputs": [
        {
          "internalType": "bytes32",
          "name": "exchangeId",
          "type": "bytes32"
        }
      ],
      "name": "collectOceanFee",
      "outputs": [],
      "stateMutability": "nonpayable",
      "type": "function"
    },
    {
      "inputs": [
        {
          "internalType": "address",
          "name": "datatoken",
          "type": "address"
        },
        {
          "internalType": "address[]",
          "name": "addresses",
          "type": "address[]"
        },
        {
          "internalType": "uint256[]",
          "name": "uints",
          "type": "uint256[]"
        }
      ],
      "name": "createWithDecimals",
      "outputs": [
        {
          "internalType": "bytes32",
          "name": "exchangeId",
          "type": "bytes32"
        }
      ],
      "stateMutability": "nonpayable",
      "type": "function"
    },
    {
      "inputs": [
        {
          "internalType": "address",
          "name": "baseToken",
          "type": "address"
        },
        {
          "internalType": "address",
          "name": "datatoken",
          "type": "address"
        },
        {
          "internalType": "address",
          "name": "exchangeOwner",
          "type": "address"
        }
      ],
      "name": "generateExchangeId",
      "outputs": [
        {
          "internalType": "bytes32",
          "name": "",
          "type": "bytes32"
        }
      ],
      "stateMutability": "pure",
      "type": "function"
    },
    {
      "inputs": [
        {
          "internalType": "bytes32",
          "name": "exchangeId",
          "type": "bytes32"
        }
      ],
      "name": "getAllowedSwapper",
      "outputs": [
        {
          "internalType": "address",
          "name": "allowedSwapper",
          "type": "address"
        }
      ],
      "stateMutability": "view",
      "type": "function"
    },
    {
      "inputs": [
        {
          "internalType": "bytes32",
          "name": "exchangeId",
          "type": "bytes32"
        }
      ],
      "name": "getBTSupply",
      "outputs": [
        {
          "internalType": "uint256",
          "name": "supply",
          "type": "uint256"
        }
      ],
      "stateMutability": "view",
      "type": "function"
    },
    {
      "inputs": [
        {
          "internalType": "bytes32",
          "name": "exchangeId",
          "type": "bytes32"
        }
      ],
      "name": "getDTSupply",
      "outputs": [
        {
          "internalType": "uint256",
          "name": "supply",
          "type": "uint256"
        }
      ],
      "stateMutability": "view",
      "type": "function"
    },
    {
      "inputs": [
        {
          "internalType": "bytes32",
          "name": "exchangeId",
          "type": "bytes32"
        }
      ],
      "name": "getExchange",
      "outputs": [
        {
          "internalType": "address",
          "name": "exchangeOwner",
          "type": "address"
        },
        {
          "internalType": "address",
          "name": "datatoken",
          "type": "address"
        },
        {
          "internalType": "uint256",
          "name": "dtDecimals",
          "type": "uint256"
        },
        {
          "internalType": "address",
          "name": "baseToken",
          "type": "address"
        },
        {
          "internalType": "uint256",
          "name": "btDecimals",
          "type": "uint256"
        },
        {
          "internalType": "uint256",
          "name": "fixedRate",
          "type": "uint256"
        },
        {
          "internalType": "bool",
          "name": "active",
          "type": "bool"
        },
        {
          "internalType": "uint256",
          "name": "dtSupply",
          "type": "uint256"
        },
        {
          "internalType": "uint256",
          "name": "btSupply",
          "type": "uint256"
        },
        {
          "internalType": "uint256",
          "name": "dtBalance",
          "type": "uint256"
        },
        {
          "internalType": "uint256",
          "name": "btBalance",
          "type": "uint256"
        },
        {
          "internalType": "bool",
          "name": "withMint",
          "type": "bool"
        }
      ],
      "stateMutability": "view",
      "type": "function"
    },
    {
      "inputs": [],
      "name": "getExchanges",
      "outputs": [
        {
          "internalType": "bytes32[]",
          "name": "",
          "type": "bytes32[]"
        }
      ],
      "stateMutability": "view",
      "type": "function"
    },
    {
      "inputs": [
        {
          "internalType": "bytes32",
          "name": "exchangeId",
          "type": "bytes32"
        }
      ],
      "name": "getFeesInfo",
      "outputs": [
        {
          "internalType": "uint256",
          "name": "marketFee",
          "type": "uint256"
        },
        {
          "internalType": "address",
          "name": "marketFeeCollector",
          "type": "address"
        },
        {
          "internalType": "uint256",
          "name": "opcFee",
          "type": "uint256"
        },
        {
          "internalType": "uint256",
          "name": "marketFeeAvailable",
          "type": "uint256"
        },
        {
          "internalType": "uint256",
          "name": "oceanFeeAvailable",
          "type": "uint256"
        }
      ],
      "stateMutability": "view",
      "type": "function"
    },
    {
      "inputs": [],
      "name": "getId",
      "outputs": [
        {
          "internalType": "uint8",
          "name": "",
          "type": "uint8"
        }
      ],
      "stateMutability": "pure",
      "type": "function"
    },
    {
      "inputs": [
        {
          "internalType": "bytes32",
          "name": "exchangeId",
          "type": "bytes32"
        }
      ],
      "name": "getMarketFee",
      "outputs": [
        {
          "internalType": "uint256",
          "name": "",
          "type": "uint256"
        }
      ],
      "stateMutability": "view",
      "type": "function"
    },
    {
      "inputs": [],
      "name": "getNumberOfExchanges",
      "outputs": [
        {
          "internalType": "uint256",
          "name": "",
          "type": "uint256"
        }
      ],
      "stateMutability": "view",
      "type": "function"
    },
    {
      "inputs": [
        {
          "internalType": "address",
          "name": "baseTokenAddress",
          "type": "address"
        }
      ],
      "name": "getOPCFee",
      "outputs": [
        {
          "internalType": "uint256",
          "name": "",
          "type": "uint256"
        }
      ],
      "stateMutability": "view",
      "type": "function"
    },
    {
      "inputs": [
        {
          "internalType": "bytes32",
          "name": "exchangeId",
          "type": "bytes32"
        }
      ],
      "name": "getRate",
      "outputs": [
        {
          "internalType": "uint256",
          "name": "",
          "type": "uint256"
        }
      ],
      "stateMutability": "view",
      "type": "function"
    },
    {
      "inputs": [
        {
          "internalType": "bytes32",
          "name": "exchangeId",
          "type": "bytes32"
        }
      ],
      "name": "isActive",
      "outputs": [
        {
          "internalType": "bool",
          "name": "",
          "type": "bool"
        }
      ],
      "stateMutability": "view",
      "type": "function"
    },
    {
      "inputs": [],
      "name": "opcCollector",
      "outputs": [
        {
          "internalType": "address",
          "name": "",
          "type": "address"
        }
      ],
      "stateMutability": "view",
      "type": "function"
    },
    {
      "inputs": [],
      "name": "router",
      "outputs": [
        {
          "internalType": "address",
          "name": "",
          "type": "address"
        }
      ],
      "stateMutability": "view",
      "type": "function"
    },
    {
      "inputs": [
        {
          "internalType": "bytes32",
          "name": "exchangeId",
          "type": "bytes32"
        },
        {
          "internalType": "uint256",
          "name": "datatokenAmount",
          "type": "uint256"
        },
        {
          "internalType": "uint256",
          "name": "minBaseTokenAmount",
          "type": "uint256"
        },
        {
          "internalType": "address",
          "name": "consumeMarketAddress",
          "type": "address"
        },
        {
          "internalType": "uint256",
          "name": "consumeMarketSwapFeeAmount",
          "type": "uint256"
        }
      ],
      "name": "sellDT",
      "outputs": [],
      "stateMutability": "nonpayable",
      "type": "function"
    },
    {
      "inputs": [
        {
          "internalType": "bytes32",
          "name": "exchangeId",
          "type": "bytes32"
        },
        {
          "internalType": "address",
          "name": "newAllowedSwapper",
          "type": "address"
        }
      ],
      "name": "setAllowedSwapper",
      "outputs": [],
      "stateMutability": "nonpayable",
      "type": "function"
    },
    {
      "inputs": [
        {
          "internalType": "bytes32",
          "name": "exchangeId",
          "type": "bytes32"
        },
        {
          "internalType": "uint256",
          "name": "newRate",
          "type": "uint256"
        }
      ],
      "name": "setRate",
      "outputs": [],
      "stateMutability": "nonpayable",
      "type": "function"
    },
    {
      "inputs": [
        {
          "internalType": "bytes32",
          "name": "exchangeId",
          "type": "bytes32"
        }
      ],
      "name": "toggleExchangeState",
      "outputs": [],
      "stateMutability": "nonpayable",
      "type": "function"
    },
    {
      "inputs": [
        {
          "internalType": "bytes32",
          "name": "exchangeId",
          "type": "bytes32"
        },
        {
          "internalType": "bool",
          "name": "withMint",
          "type": "bool"
        }
      ],
      "name": "toggleMintState",
      "outputs": [],
      "stateMutability": "nonpayable",
      "type": "function"
    },
    {
      "inputs": [
        {
          "internalType": "bytes32",
          "name": "exchangeId",
          "type": "bytes32"
        },
        {
          "internalType": "uint256",
          "name": "_newMarketFee",
          "type": "uint256"
        }
      ],
      "name": "updateMarketFee",
      "outputs": [],
      "stateMutability": "nonpayable",
      "type": "function"
    },
    {
      "inputs": [
        {
          "internalType": "bytes32",
          "name": "exchangeId",
          "type": "bytes32"
        },
        {
          "internalType": "address",
          "name": "_newMarketCollector",
          "type": "address"
        }
      ],
      "name": "updateMarketFeeCollector",
      "outputs": [],
      "stateMutability": "nonpayable",
      "type": "function"
    }
  ],
  "bytecode": "0x60806040523480156200001157600080fd5b50604051620037c9380380620037c9833981016040819052620000349162000158565b60016000556001600160a01b038216620000a55760405162461bcd60e51b815260206004820152602760248201527f46697865645261746545786368616e67653a2057726f6e6720526f75746572206044820152666164647265737360c81b60648201526084015b60405180910390fd5b6001600160a01b038116620001095760405162461bcd60e51b8152602060048201526024808201527f46697865645261746545786368616e67653a2057726f6e67204f5043206164646044820152637265737360e01b60648201526084016200009c565b600180546001600160a01b039384166001600160a01b0319918216179091556002805492909316911617905562000190565b80516001600160a01b03811681146200015357600080fd5b919050565b600080604083850312156200016c57600080fd5b62000177836200013b565b915062000187602084016200013b565b90509250929050565b61362980620001a06000396000f3fe608060405234801561001057600080fd5b50600436106101da5760003560e01c806379dd283611610104578063b686bcaf116100a2578063c66274ea11610071578063c66274ea146105be578063dd1bc96a146105d1578063f532129e146105e4578063f887ea40146105f757600080fd5b8063b686bcaf14610552578063b8421e2b14610565578063c1f6572e14610578578063c2c0d1ab1461058b57600080fd5b806385fcbc2f116100de57806385fcbc2f146105005780638882387214610513578063b32b56f914610526578063b42414291461054a57600080fd5b806379dd2836146103f25780637c82ebe914610405578063855058dd1461041857600080fd5b80634c87087d1161017c5780635d1ca6311161014b5780635d1ca631146103aa57806360311e95146103b9578063680819eb146103cc57806368c4b7e9146103df57600080fd5b80634c87087d146102d357806350d571d5146103515780635acfedc7146103645780635c36901c1461037757600080fd5b80631e2e3a6b116101b85780631e2e3a6b1461027357806324cb477e146102885780632e7e23b31461029d578063450dccc3146102c057600080fd5b8063012c3275146101df57806303814238146102055780630b3b430d14610230575b600080fd5b6101f26101ed366004612f9a565b61060a565b6040519081526020015b60405180910390f35b600254610218906001600160a01b031681565b6040516001600160a01b0390911681526020016101fc565b61024361023e36600461306c565b610dee565b604080519586526001600160a01b039094166020860152928401919091526060830152608082015260a0016101fc565b61027b610ef8565b6040516101fc9190613085565b61029b61029636600461306c565b610f50565b005b6101f26102ab36600461306c565b60009081526003602052604090206008015490565b61029b6102ce36600461306c565b61102f565b6102e66102e136600461306c565b61113b565b604080516001600160a01b039d8e1681529b8d1660208d01528b0199909952999096166060890152608088019490945260a0870192909252151560c086015260e0850152610100840152610120830152610140820192909252901515610160820152610180016101fc565b61029b61035f3660046130c9565b611262565b61029b61037236600461306c565b61168a565b61039a61038536600461306c565b60009081526003602052604090205460ff1690565b60405190151581526020016101fc565b604051600181526020016101fc565b61029b6103c7366004613110565b611745565b61029b6103da36600461313c565b6117e7565b61029b6103ed3660046130c9565b6118d4565b61029b61040036600461316f565b611dc0565b61029b610413366004613110565b611e52565b61021861042636600461306c565b60009081526003602081815260409283902083516101e081018552815460ff808216151583526001600160a01b03610100928390048116958401959095526001840154851696830196909652600283015484166060830152938201546080820152600482015460a0820152600582015460c0820152600682015460e0820152600782015484820152600882015461012082015260098201548316610140820152600a820154610160820152600b820154610180820152600c9091015493841615156101a0820152919092049091166101c090910181905290565b6101f261050e36600461306c565b611f22565b61029b61052136600461313c565b6120a9565b6101f261053436600461306c565b6000908152600360208190526040909120015490565b6004546101f2565b61029b61056036600461306c565b612161565b6101f261057336600461319f565b612212565b6101f26105863660046131ba565b612287565b61059e6105993660046131fd565b6122d3565b6040805194855260208501939093529183015260608201526080016101fc565b6101f26105cc36600461306c565b61246d565b61059e6105df3660046131fd565b61277f565b61029b6105f236600461306c565b6128eb565b600154610218906001600160a01b031681565b6001546000906001600160a01b0316331461066c5760405162461bcd60e51b815260206004820152601e60248201527f46697865645261746545786368616e67653a206f6e6c7920726f75746572000060448201526064015b60405180910390fd5b60006001600160a01b03168360008151811061068a5761068a613229565b60200260200101516001600160a01b031614156107055760405162461bcd60e51b815260206004820152603360248201527f46697865645261746545786368616e67653a20496e76616c69642062617365546044820152726f6b656e2c20207a65726f206164647265737360681b6064820152608401610663565b6001600160a01b0384166107775760405162461bcd60e51b815260206004820152603360248201527f46697865645261746545786368616e67653a20496e76616c69642064617461746044820152726f6b656e2c20207a65726f206164647265737360681b6064820152608401610663565b836001600160a01b03168360008151811061079457610794613229565b60200260200101516001600160a01b031614156108195760405162461bcd60e51b815260206004820152603760248201527f46697865645261746545786368616e67653a20496e76616c696420646174617460448201527f6f6b656e2c2020657175616c732062617365546f6b656e0000000000000000006064820152608401610663565b8160028151811061082c5761082c613229565b60200260200101516000141561089b5760405162461bcd60e51b815260206004820152602e60248201527f46697865645261746545786368616e67653a20496e76616c696420657863686160448201526d6e676520726174652076616c756560901b6064820152608401610663565b6108da836000815181106108b1576108b1613229565b602002602001015185856001815181106108cd576108cd613229565b6020026020010151612287565b60008181526003602081905260409091200154909150156109515760405162461bcd60e51b815260206004820152602b60248201527f46697865645261746545786368616e67653a2045786368616e676520616c726560448201526a616479206578697374732160a81b6064820152608401610663565b6000600190508260048151811061096a5761096a613229565b60200260200101516000141561097e575060005b604051806101e00160405280600115158152602001856001815181106109a6576109a6613229565b60200260200101516001600160a01b03168152602001866001600160a01b03168152602001856000815181106109de576109de613229565b60200260200101516001600160a01b0316815260200184600281518110610a0757610a07613229565b6020026020010151815260200184600181518110610a2757610a27613229565b6020026020010151815260200184600081518110610a4757610a47613229565b60200260200101518152602001600081526020016000815260200184600381518110610a7557610a75613229565b6020026020010151815260200185600281518110610a9557610a95613229565b60200260200101516001600160a01b031681526020016000815260200160008152602001821515815260200185600381518110610ad457610ad4613229565b6020908102919091018101516001600160a01b0390811690925260008581526003808352604080832086518154958801518716610100908102610100600160a81b031992151583166001600160a81b0319988916171783559288015160018084018054928a166001600160a01b031993841617905560608a0151600285018054918b1691841691909117905560808a01519584019590955560a089015160048085019190915560c08a0151600585015560e08a01516006850155848a015160078501556101208a015160088501556101408a0151600985018054918b169190931617909155610160890151600a840155610180890151600b8401556101a0890151600c90930180546101c0909a01518916909402921515909116979095169690961795909517909455815493840182559081527f8a35acfbc15ff81a39ae7d344fd709f28e8600b4aa8c65c6b64bfe7fe36bd19b9092018490558551908716918691610c4257610c42613229565b60200260200101516001600160a01b0316837feb7a353641f7d3cc54b497ef1553fdc292b64d9cc3be8587c23dfba01f310b1987600181518110610c8857610c88613229565b602002602001015187600281518110610ca357610ca3613229565b6020026020010151604051610ccd9291906001600160a01b03929092168252602082015260400190565b60405180910390a483600181518110610ce857610ce8613229565b60200260200101516001600160a01b0316827fc7344c45124818d1d3a4c24ccb9b86d8b88d3bd05209b2a42b494cb32a50352960405160405180910390a383600381518110610d3957610d39613229565b60200260200101516001600160a01b0316827fcc1b4af8292e6b938f6743c78a62317c9a2d60e0d46b77776a027e53ce617c0c60405160405180910390a37f5e3e722dbd3b6b8071b78568ac80cd0e8ff92e4fb3024e755d504d8f7c2f6f093385600281518110610dac57610dac613229565b602002602001015185600381518110610dc757610dc7613229565b6020026020010151604051610dde9392919061323f565b60405180910390a1509392505050565b600081815260036020818152604080842081516101e081018352815460ff808216151583526001600160a01b036101009283900481168488015260018501548116958401959095526002840154851660608401819052848801546080850152600485015460a0850152600585015460c0850152600685015460e085015260078501548385015260088501546101208501819052600986015487166101408601819052600a870154610160870152600b870154610180870152600c9096015492831615156101a0860152929091049094166101c0830152878752949093529293918291829190610edc90612212565b9350806101600151925080610180015191505091939590929450565b60606004805480602002602001604051908101604052809291908181526020018280548015610f4657602002820191906000526020600020905b815481526020019060010190808311610f32575b5050505050905090565b600081815260036020526040902054819061010090046001600160a01b03163314610f8d5760405162461bcd60e51b815260040161066390613263565b60008281526003602052604090205460ff1615610fe857600082815260036020526040808220805460ff1916905551339184917f03da9148e1de78fba22de63c573465562ebf6ef878a1d3ea83790a560229984c9190a35050565b600082815260036020526040808220805460ff1916600117905551339184917fc7344c45124818d1d3a4c24ccb9b86d8b88d3bd05209b2a42b494cb32a5035299190a35050565b600081815260036020526040902054819061010090046001600160a01b0316331461106c5760405162461bcd60e51b815260040161066390613263565b6002600054141561108f5760405162461bcd60e51b8152600401610663906132ac565b6002600090815582815260036020526040812060068101805492905580546001909101546110d0916001600160a01b039182169161010090910416836129e7565b6000838152600360209081526040918290206001810154905492518481526001600160a01b039182169361010090049091169186917fecc75f4464886bee0a1c5eae61c0cb4b99c64c5e9cdebe3696217d266f8b163691015b60405180910390a45050600160005550565b600081815260036020818152604080842081516101e081018352815460ff80821615158084526001600160a01b036101009384900481169785018890526001860154811696850187905260028601548116606086018190529886015460808601819052600487015460a08701819052600588015460c08801819052600689015460e0890152600789015487890152600889015461012089015260098901548416610140890152600a890154610160890152600b890154610180890152600c9098015494851615156101a088015294909304166101c085015295979496919591949092819081908190819061122e8e61246d565b95506112398e611f22565b94508060e0015193508061010001519250806101a0015191505091939597999b5091939597999b565b600085815260036020526040902054859060ff166112925760405162461bcd60e51b8152600401610663906132e3565b600260005414156112b55760405162461bcd60e51b8152600401610663906132ac565b6002600055846112d75760405162461bcd60e51b81526004016106639061332e565b6000868152600360205260409020600c015461010090046001600160a01b03161561133a576000868152600360205260409020600c015461010090046001600160a01b0316331461133a5760405162461bcd60e51b815260040161066390613376565b6113656040518060800160405280600081526020016000815260200160008152602001600081525090565b6001600160a01b03841661137857600092505b6113838787856122d3565b6060850152604084015260208301528082528511156113f35760405162461bcd60e51b815260206004820152602660248201527f46697865645261746545786368616e67653a20546f6f20666577206261736520604482015265746f6b656e7360d01b6064820152608401610663565b602080820151600089815260039092526040909120600b015461141591612a4f565b60008881526003602052604090819020600b810192909255820151600a9091015461143f91612a4f565b60036000898152602001908152602001600020600a0181905550600061148c8260600151611486846040015161148686602001518760000151612a4f90919063ffffffff16565b90612a4f565b6000898152600360205260409020600101549091506114b6906001600160a01b031633308a612a5b565b6000888152600360205260409020600601546114d29088612a4f565b600089815260036020526040902060068101919091556007015481111561155557600088815260036020526040902060028101549054611525916001600160a01b03908116916101009004163084612a5b565b8151600089815260036020526040902060020154611550916001600160a01b039091169033906129e7565b6115a6565b6000888152600360205260409020600701546115719082612ba8565b6000898152600360205260409020600781019190915582516002909101546115a6916001600160a01b039091169033906129e7565b6001600160a01b038516158015906115c2575060008260600151115b156115f55760608201516000898152600360205260409020600201546115f5916001600160a01b039091169087906129e7565b815160008981526003602090815260409182902060020154828601518287015160608089015186519788529487018e90526001600160a01b039093169486019490945290840152608083019190915260a0820152339089907f7b072645ce5b6a2fc627a544edee544b786747cafd1bb8f0e3238aa5f2e806469060c0015b60405180910390a350506001600055505050505050565b600260005414156116ad5760405162461bcd60e51b8152600401610663906132ac565b60026000818155828152600360205260408120600b81018054929055825492015490916116e7916001600160a01b039081169116836129e7565b6000828152600360209081526040918290206002015491518381526001600160a01b039092169184917f457b44fd47c33fc65bfbd58d0202ad97fbed1bbc9881f56441d05fe9ebd58acf91015b60405180910390a350506001600055565b600082815260036020526040902054829061010090046001600160a01b031633146117825760405162461bcd60e51b815260040161066390613263565b600083815260036020526040808220600c018054610100600160a81b0319166101006001600160a01b038716908102919091179091559051909185917fcc1b4af8292e6b938f6743c78a62317c9a2d60e0d46b77776a027e53ce617c0c9190a3505050565b600082815260036020526040902054829061010090046001600160a01b031633146118245760405162461bcd60e51b815260040161066390613263565b8161187d5760405162461bcd60e51b815260206004820152602360248201527f46697865645261746545786368616e67653a20526174696f206d7573742062656044820152620203e360ec1b6064820152608401610663565b6000838152600360208190526040918290200183905551339084907fe50f9919fdc524004a4ee0cb934f4734f144bec0713a52e5483b753f5de0f08c906118c79086815260200190565b60405180910390a3505050565b600085815260036020526040902054859060ff166119045760405162461bcd60e51b8152600401610663906132e3565b600260005414156119275760405162461bcd60e51b8152600401610663906132ac565b6002600055846119495760405162461bcd60e51b81526004016106639061332e565b6000868152600360205260409020600c015461010090046001600160a01b0316156119ac576000868152600360205260409020600c015461010090046001600160a01b031633146119ac5760405162461bcd60e51b815260040161066390613376565b6001600160a01b0383166119bf57600091505b6119ea6040518060800160405280600081526020016000815260200160008152602001600081525090565b6119f587878561277f565b606085015260408401526020830152808252851015611a665760405162461bcd60e51b815260206004820152602760248201527f46697865645261746545786368616e67653a20546f6f206d616e79206261736560448201526620746f6b656e7360c81b6064820152608401610663565b602080820151600089815260039092526040909120600b0154611a8891612a4f565b60008881526003602052604090819020600b810192909255820151600a90910154611ab291612a4f565b6000888152600360205260409020600a810191909155600201548151611ae5916001600160a01b03169033903090612a5b565b6000611b188260600151611b128460400151611b1286602001518760000151612ba890919063ffffffff16565b90612ba8565b600089815260036020526040902060070154909150611b379082612a4f565b6000898152600360205260409020600781019190915560060154871115611ca5576000888152600360205260409020600c015460ff168015611bf05750600088815260036020526040908190206001015490516355138f0d60e11b81523060048201526001600160a01b039091169063aa271e1a90602401602060405180830381865afa158015611bcc573d6000803e3d6000fd5b505050506040513d601f19601f82011682018060405250810190611bf091906133cc565b15611c6e57600088815260036020526040908190206001015490516340c10f1960e01b8152336004820152602481018990526001600160a01b03909116906340c10f1990604401600060405180830381600087803b158015611c5157600080fd5b505af1158015611c65573d6000803e3d6000fd5b50505050611cef565b600088815260036020526040902060018101549054611ca0916001600160a01b0390811691610100900416338a612a5b565b611cef565b600088815260036020526040902060060154611cc19088612ba8565b6000898152600360205260409020600681019190915560010154611cef906001600160a01b031633896129e7565b6001600160a01b03851615801590611d0b575060008260600151115b15611d3e576060820151600089815260036020526040902060020154611d3e916001600160a01b039091169087906129e7565b815160008981526003602090815260409182902060010154828601518287015160608089015186519788529487018e90526001600160a01b039093169486019490945290840152608083019190915260a0820152339089907f7b072645ce5b6a2fc627a544edee544b786747cafd1bb8f0e3238aa5f2e806469060c001611673565b600082815260036020526040902054829061010090046001600160a01b03163314611dfd5760405162461bcd60e51b815260040161066390613263565b600083815260036020908152604091829020600c01805460ff19168515159081179091559151918252339185917fe28e899e0f5d6fba0c8d73d1888083bcc62d4d9806d2e26fcf1f607c3ed52f5391016118c7565b6000828152600360205260409020600901546001600160a01b03163314611eb45760405162461bcd60e51b81526020600482015260166024820152753737ba1036b0b935b2ba2332b2a1b7b63632b1ba37b960511b6044820152606401610663565b600082815260036020526040908190206009810180546001600160a01b0319166001600160a01b0385161790556008015490517f5e3e722dbd3b6b8071b78568ac80cd0e8ff92e4fb3024e755d504d8f7c2f6f0991611f16913391859161323f565b60405180910390a15050565b60008181526003602052604081205460ff16611f4057506000919050565b6000828152600360205260408082206002810154905491516370a0823160e01b81526101009092046001600160a01b03908116600484015216906370a0823190602401602060405180830381865afa158015611fa0573d6000803e3d6000fd5b505050506040513d601f19601f82011682018060405250810190611fc491906133e9565b600084815260036020526040808220600281015490549151636eb1769f60e11b81526001600160a01b0361010090930483166004820152306024820152939450919291169063dd62ed3e90604401602060405180830381865afa15801561202f573d6000803e3d6000fd5b505050506040513d601f19601f8201168201806040525081019061205391906133e9565b9050808210156120815760008481526003602052604090206007015461207a908390612a4f565b92506120a1565b60008481526003602052604090206007015461209e908290612a4f565b92505b50505b919050565b6000828152600360205260409020600901546001600160a01b0316331461210b5760405162461bcd60e51b81526020600482015260166024820152753737ba1036b0b935b2ba2332b2a1b7b63632b1ba37b960511b6044820152606401610663565b60008281526003602052604090819020600881018390556009015490517f5e3e722dbd3b6b8071b78568ac80cd0e8ff92e4fb3024e755d504d8f7c2f6f0991611f169133916001600160a01b031690859061323f565b600260005414156121845760405162461bcd60e51b8152600401610663906132ac565b60026000818155828152600360205260408120600a81018054929055600981015492015490916121c1916001600160a01b039081169116836129e7565b6000828152600360209081526040918290206002015491518381526001600160a01b039092169184917f192a3cd95e40313e0e12c28b398e31633936e38d134419161f883c8d640790559101611734565b60015460405163b8421e2b60e01b81526001600160a01b038381166004830152600092169063b8421e2b90602401602060405180830381865afa15801561225d573d6000803e3d6000fd5b505050506040513d601f19601f8201168201806040525081019061228191906133e9565b92915050565b604080516001600160a01b0380861660208301528085169282019290925290821660608201526000906080016040516020818303038152906040528051906020012090505b9392505050565b600083815260036020526040812054819081908190879060ff166123095760405162461bcd60e51b8152600401610663906132e3565b60006123158989612bb4565b90506123426040518060800160405280600081526020016000815260200160008152602001600081525090565b60008a815260036020526040812060020154612366906001600160a01b0316612212565b905080156123945761238a670de0b6b3a76400006123848584612c24565b90612c30565b602083015261239c565b600060208301525b60008b815260036020526040902060080154156123e85760008b8152600360205260409020600801546123de90670de0b6b3a764000090612384908690612c24565b60408301526123f0565b600060408301525b88156124165761240c670de0b6b3a7640000612384858c612c24565b606083015261241e565b600060608301525b6124458260600151611b128460200151611b12866040015188612ba890919063ffffffff16565b80835260208301516040840151606090940151919d909c50929a509850909650505050505050565b60008181526003602052604081205460ff1661248b57506000919050565b6000828152600360205260409020600c015460ff1680156125235750600082815260036020526040908190206001015490516355138f0d60e11b81523060048201526001600160a01b039091169063aa271e1a90602401602060405180830381865afa1580156124ff573d6000803e3d6000fd5b505050506040513d601f19601f8201168201806040525081019061252391906133cc565b15612628576000828152600360209081526040918290206001015482516318160ddd60e01b815292516001600160a01b03909116926318160ddd9260048083019391928290030181865afa15801561257f573d6000803e3d6000fd5b505050506040513d601f19601f820116820180604052508101906125a391906133e9565b600083815260036020908152604091829020600101548251631aa93a7560e11b815292516001600160a01b039091169263355274ea9260048083019391928290030181865afa1580156125fa573d6000803e3d6000fd5b505050506040513d601f19601f8201168201806040525081019061261e91906133e9565b6122819190613418565b6000828152600360205260408082206001810154905491516370a0823160e01b81526101009092046001600160a01b03908116600484015216906370a0823190602401602060405180830381865afa158015612688573d6000803e3d6000fd5b505050506040513d601f19601f820116820180604052508101906126ac91906133e9565b600084815260036020526040808220600181015490549151636eb1769f60e11b81526001600160a01b0361010090930483166004820152306024820152939450919291169063dd62ed3e90604401602060405180830381865afa158015612717573d6000803e3d6000fd5b505050506040513d601f19601f8201168201806040525081019061273b91906133e9565b9050808210156127625760008481526003602052604090206006015461207a908390612a4f565b60008481526003602052604090206006015461209e908290612a4f565b600083815260036020526040812054819081908190879060ff166127b55760405162461bcd60e51b8152600401610663906132e3565b60006127c18989612bb4565b90506127ee6040518060800160405280600081526020016000815260200160008152602001600081525090565b60008a815260036020526040812060020154612812906001600160a01b0316612212565b9050801561283a57612830670de0b6b3a76400006123848584612c24565b6020830152612842565b600060208301525b60008b8152600360205260409020600801541561288e5760008b81526003602052604090206008015461288490670de0b6b3a764000090612384908690612c24565b6040830152612896565b600060408301525b88156128bc576128b2670de0b6b3a7640000612384858c612c24565b60608301526128c4565b600060608301525b61244582606001516114868460200151611486866040015188612a4f90919063ffffffff16565b600081815260036020526040902054819061010090046001600160a01b031633146129285760405162461bcd60e51b815260040161066390613263565b6002600054141561294b5760405162461bcd60e51b8152600401610663906132ac565b600260008181558381526003602052604081206007810180549290558054920154909161298a916001600160a01b0390811691610100900416836129e7565b6000838152600360209081526040918290206002810154905492518481526001600160a01b039182169361010090049091169186917fecc75f4464886bee0a1c5eae61c0cb4b99c64c5e9cdebe3696217d266f8b16369101611129565b6040516001600160a01b038316602482015260448101829052612a4a90849063a9059cbb60e01b906064015b60408051601f198184030181529190526020810180516001600160e01b03166001600160e01b031990931692909217909152612c3c565b505050565b60006122cc828461342f565b6040516370a0823160e01b81526001600160a01b038381166004830152600091908616906370a0823190602401602060405180830381865afa158015612aa5573d6000803e3d6000fd5b505050506040513d601f19601f82011682018060405250810190612ac991906133e9565b9050612ae06001600160a01b038616858585612d0e565b612aea8183612a4f565b6040516370a0823160e01b81526001600160a01b0385811660048301528716906370a0823190602401602060405180830381865afa158015612b30573d6000803e3d6000fd5b505050506040513d601f19601f82011682018060405250810190612b5491906133e9565b14612ba15760405162461bcd60e51b815260206004820152601d60248201527f5472616e7366657220616d6f756e7420776173206e6f742065786163740000006044820152606401610663565b5050505050565b60006122cc8284613418565b6000828152600360205260408120600401546122cc90670de0b6b3a76400009061238490612be390600a61352b565b60008781526003602052604090206005015461238490612c0490600a61352b565b60008981526003602081905260409091200154612c22908990612c24565b905b60006122cc8284613537565b60006122cc8284613556565b6000612c91826040518060400160405280602081526020017f5361666545524332303a206c6f772d6c6576656c2063616c6c206661696c6564815250856001600160a01b0316612d359092919063ffffffff16565b805190915015612a4a5780806020019051810190612caf91906133cc565b612a4a5760405162461bcd60e51b815260206004820152602a60248201527f5361666545524332303a204552433230206f7065726174696f6e20646964206e6044820152691bdd081cdd58d8d9595960b21b6064820152608401610663565b612d2f846323b872dd60e01b858585604051602401612a139392919061323f565b50505050565b6060612d448484600085612d4c565b949350505050565b606082471015612dad5760405162461bcd60e51b815260206004820152602660248201527f416464726573733a20696e73756666696369656e742062616c616e636520666f6044820152651c8818d85b1b60d21b6064820152608401610663565b843b612dfb5760405162461bcd60e51b815260206004820152601d60248201527f416464726573733a2063616c6c20746f206e6f6e2d636f6e74726163740000006044820152606401610663565b600080866001600160a01b03168587604051612e1791906135a4565b60006040518083038185875af1925050503d8060008114612e54576040519150601f19603f3d011682016040523d82523d6000602084013e612e59565b606091505b5091509150612e69828286612e74565b979650505050505050565b60608315612e835750816122cc565b825115612e935782518084602001fd5b8160405162461bcd60e51b815260040161066391906135c0565b80356001600160a01b03811681146120a457600080fd5b634e487b7160e01b600052604160045260246000fd5b604051601f8201601f1916810167ffffffffffffffff81118282101715612f0357612f03612ec4565b604052919050565b600067ffffffffffffffff821115612f2557612f25612ec4565b5060051b60200190565b600082601f830112612f4057600080fd5b81356020612f55612f5083612f0b565b612eda565b82815260059290921b84018101918181019086841115612f7457600080fd5b8286015b84811015612f8f5780358352918301918301612f78565b509695505050505050565b600080600060608486031215612faf57600080fd5b612fb884612ead565b925060208085013567ffffffffffffffff80821115612fd657600080fd5b818701915087601f830112612fea57600080fd5b8135612ff8612f5082612f0b565b81815260059190911b8301840190848101908a83111561301757600080fd5b938501935b8285101561303c5761302d85612ead565b8252938501939085019061301c565b96505050604087013592508083111561305457600080fd5b505061306286828701612f2f565b9150509250925092565b60006020828403121561307e57600080fd5b5035919050565b6020808252825182820181905260009190848201906040850190845b818110156130bd578351835292840192918401916001016130a1565b50909695505050505050565b600080600080600060a086880312156130e157600080fd5b8535945060208601359350604086013592506130ff60608701612ead565b949793965091946080013592915050565b6000806040838503121561312357600080fd5b8235915061313360208401612ead565b90509250929050565b6000806040838503121561314f57600080fd5b50508035926020909101359150565b801515811461316c57600080fd5b50565b6000806040838503121561318257600080fd5b8235915060208301356131948161315e565b809150509250929050565b6000602082840312156131b157600080fd5b6122cc82612ead565b6000806000606084860312156131cf57600080fd5b6131d884612ead565b92506131e660208501612ead565b91506131f460408501612ead565b90509250925092565b60008060006060848603121561321257600080fd5b505081359360208301359350604090920135919050565b634e487b7160e01b600052603260045260246000fd5b6001600160a01b039384168152919092166020820152604081019190915260600190565b60208082526029908201527f46697865645261746545786368616e67653a20696e76616c69642065786368616040820152683733b29037bbb732b960b91b606082015260800190565b6020808252601f908201527f5265656e7472616e637947756172643a207265656e7472616e742063616c6c00604082015260600190565b6020808252602b908201527f46697865645261746545786368616e67653a2045786368616e676520646f657360408201526a206e6f742065786973742160a81b606082015260800190565b60208082526028908201527f46697865645261746545786368616e67653a207a65726f2064617461746f6b656040820152671b88185b5bdd5b9d60c21b606082015260800190565b60208082526036908201527f46697865645261746545786368616e67653a205468697320616464726573732060408201527506973206e6f7420616c6c6f77656420746f20737761760541b606082015260800190565b6000602082840312156133de57600080fd5b81516122cc8161315e565b6000602082840312156133fb57600080fd5b5051919050565b634e487b7160e01b600052601160045260246000fd5b60008282101561342a5761342a613402565b500390565b6000821982111561344257613442613402565b500190565b600181815b8085111561348257816000190482111561346857613468613402565b8085161561347557918102915b93841c939080029061344c565b509250929050565b60008261349957506001612281565b816134a657506000612281565b81600181146134bc57600281146134c6576134e2565b6001915050612281565b60ff8411156134d7576134d7613402565b50506001821b612281565b5060208310610133831016604e8410600b8410161715613505575081810a612281565b61350f8383613447565b806000190482111561352357613523613402565b029392505050565b60006122cc838361348a565b600081600019048311821515161561355157613551613402565b500290565b60008261357357634e487b7160e01b600052601260045260246000fd5b500490565b60005b8381101561359357818101518382015260200161357b565b83811115612d2f5750506000910152565b600082516135b6818460208701613578565b9190910192915050565b60208152600082518060208401526135df816040850160208701613578565b601f01601f1916919091016040019291505056fea26469706673582212208603fe219929ec8771fa9a8371fd278255160f7759644d471dda663851c06ee164736f6c634300080a0033",
  "linkReferences": {},
  "deployedLinkReferences": {}
}