{
  "_format": "hh-sol-artifact-1",
  "contractName": "FixedRateExchange",
  "sourceName": "contracts/pools/fixedRate/FixedRateExchange.sol",
  "abi": [
    {
      "inputs": [
        {
          "internalType": "address",
          "name": "_router",
          "type": "address"
        },
        {
          "internalType": "address",
          "name": "_opcCollector",
          "type": "address"
        }
      ],
      "stateMutability": "nonpayable",
      "type": "constructor"
    },
    {
      "anonymous": false,
      "inputs": [
        {
          "indexed": true,
          "internalType": "bytes32",
          "name": "exchangeId",
          "type": "bytes32"
        },
        {
          "indexed": false,
          "internalType": "address",
          "name": "to",
          "type": "address"
        },
        {
          "indexed": false,
          "internalType": "address",
          "name": "token",
          "type": "address"
        },
        {
          "indexed": false,
          "internalType": "uint256",
          "name": "amount",
          "type": "uint256"
        }
      ],
      "name": "ConsumeMarketFee",
      "type": "event"
    },
    {
      "anonymous": false,
      "inputs": [
        {
          "indexed": true,
          "internalType": "bytes32",
          "name": "exchangeId",
          "type": "bytes32"
        },
        {
          "indexed": true,
          "internalType": "address",
          "name": "exchangeOwner",
          "type": "address"
        }
      ],
      "name": "ExchangeActivated",
      "type": "event"
    },
    {
      "anonymous": false,
      "inputs": [
        {
          "indexed": true,
          "internalType": "bytes32",
          "name": "exchangeId",
          "type": "bytes32"
        },
        {
          "indexed": true,
          "internalType": "address",
          "name": "allowedSwapper",
          "type": "address"
        }
      ],
      "name": "ExchangeAllowedSwapperChanged",
      "type": "event"
    },
    {
      "anonymous": false,
      "inputs": [
        {
          "indexed": true,
          "internalType": "bytes32",
          "name": "exchangeId",
          "type": "bytes32"
        },
        {
          "indexed": true,
          "internalType": "address",
          "name": "baseToken",
          "type": "address"
        },
        {
          "indexed": true,
          "internalType": "address",
          "name": "datatoken",
          "type": "address"
        },
        {
          "indexed": false,
          "internalType": "address",
          "name": "exchangeOwner",
          "type": "address"
        },
        {
          "indexed": false,
          "internalType": "uint256",
          "name": "fixedRate",
          "type": "uint256"
        }
      ],
      "name": "ExchangeCreated",
      "type": "event"
    },
    {
      "anonymous": false,
      "inputs": [
        {
          "indexed": true,
          "internalType": "bytes32",
          "name": "exchangeId",
          "type": "bytes32"
        },
        {
          "indexed": true,
          "internalType": "address",
          "name": "exchangeOwner",
          "type": "address"
        }
      ],
      "name": "ExchangeDeactivated",
      "type": "event"
    },
    {
      "anonymous": false,
      "inputs": [
        {
          "indexed": true,
          "internalType": "bytes32",
          "name": "exchangeId",
          "type": "bytes32"
        },
        {
          "indexed": true,
          "internalType": "address",
          "name": "exchangeOwner",
          "type": "address"
        },
        {
          "indexed": false,
          "internalType": "bool",
          "name": "withMint",
          "type": "bool"
        }
      ],
      "name": "ExchangeMintStateChanged",
      "type": "event"
    },
    {
      "anonymous": false,
      "inputs": [
        {
          "indexed": true,
          "internalType": "bytes32",
          "name": "exchangeId",
          "type": "bytes32"
        },
        {
          "indexed": true,
          "internalType": "address",
          "name": "exchangeOwner",
          "type": "address"
        },
        {
          "indexed": false,
          "internalType": "uint256",
          "name": "newRate",
          "type": "uint256"
        }
      ],
      "name": "ExchangeRateChanged",
      "type": "event"
    },
    {
      "anonymous": false,
      "inputs": [
        {
          "indexed": true,
          "internalType": "bytes32",
          "name": "exchangeId",
          "type": "bytes32"
        },
        {
          "indexed": true,
          "internalType": "address",
          "name": "feeToken",
          "type": "address"
        },
        {
          "indexed": false,
          "internalType": "uint256",
          "name": "feeAmount",
          "type": "uint256"
        }
      ],
      "name": "MarketFeeCollected",
      "type": "event"
    },
    {
      "anonymous": false,
      "inputs": [
        {
          "indexed": true,
          "internalType": "bytes32",
          "name": "exchangeId",
          "type": "bytes32"
        },
        {
          "indexed": true,
          "internalType": "address",
          "name": "feeToken",
          "type": "address"
        },
        {
          "indexed": false,
          "internalType": "uint256",
          "name": "feeAmount",
          "type": "uint256"
        }
      ],
      "name": "OceanFeeCollected",
      "type": "event"
    },
    {
      "anonymous": false,
      "inputs": [
        {
          "indexed": true,
          "internalType": "bytes32",
          "name": "exchangeId",
          "type": "bytes32"
        },
        {
          "indexed": false,
          "internalType": "address",
          "name": "caller",
          "type": "address"
        },
        {
          "indexed": false,
          "internalType": "address",
          "name": "newMarketCollector",
          "type": "address"
        },
        {
          "indexed": false,
          "internalType": "uint256",
          "name": "swapFee",
          "type": "uint256"
        }
      ],
      "name": "PublishMarketFeeChanged",
      "type": "event"
    },
    {
      "anonymous": false,
      "inputs": [
        {
          "indexed": true,
          "internalType": "bytes32",
          "name": "exchangeId",
          "type": "bytes32"
        },
        {
          "indexed": false,
          "internalType": "uint256",
          "name": "oceanFeeAmount",
          "type": "uint256"
        },
        {
          "indexed": false,
          "internalType": "uint256",
          "name": "marketFeeAmount",
          "type": "uint256"
        },
        {
          "indexed": false,
          "internalType": "uint256",
          "name": "consumeMarketFeeAmount",
          "type": "uint256"
        },
        {
          "indexed": false,
          "internalType": "address",
          "name": "tokenFeeAddress",
          "type": "address"
        }
      ],
      "name": "SWAP_FEES",
      "type": "event"
    },
    {
      "anonymous": false,
      "inputs": [
        {
          "indexed": true,
          "internalType": "bytes32",
          "name": "exchangeId",
          "type": "bytes32"
        },
        {
          "indexed": true,
          "internalType": "address",
          "name": "by",
          "type": "address"
        },
        {
          "indexed": false,
          "internalType": "uint256",
          "name": "baseTokenSwappedAmount",
          "type": "uint256"
        },
        {
          "indexed": false,
          "internalType": "uint256",
          "name": "datatokenSwappedAmount",
          "type": "uint256"
        },
        {
          "indexed": false,
          "internalType": "address",
          "name": "tokenOutAddress",
          "type": "address"
        },
        {
          "indexed": false,
          "internalType": "uint256",
          "name": "marketFeeAmount",
          "type": "uint256"
        },
        {
          "indexed": false,
          "internalType": "uint256",
          "name": "oceanFeeAmount",
          "type": "uint256"
        },
        {
          "indexed": false,
          "internalType": "uint256",
          "name": "consumeMarketFeeAmount",
          "type": "uint256"
        }
      ],
      "name": "Swapped",
      "type": "event"
    },
    {
      "anonymous": false,
      "inputs": [
        {
          "indexed": true,
          "internalType": "bytes32",
          "name": "exchangeId",
          "type": "bytes32"
        },
        {
          "indexed": true,
          "internalType": "address",
          "name": "to",
          "type": "address"
        },
        {
          "indexed": true,
          "internalType": "address",
          "name": "token",
          "type": "address"
        },
        {
          "indexed": false,
          "internalType": "uint256",
          "name": "amount",
          "type": "uint256"
        }
      ],
      "name": "TokenCollected",
      "type": "event"
    },
    {
      "inputs": [],
      "name": "MAX_FEE",
      "outputs": [
        {
          "internalType": "uint256",
          "name": "",
          "type": "uint256"
        }
      ],
      "stateMutability": "view",
      "type": "function"
    },
    {
      "inputs": [],
      "name": "MIN_FEE",
      "outputs": [
        {
          "internalType": "uint256",
          "name": "",
          "type": "uint256"
        }
      ],
      "stateMutability": "view",
      "type": "function"
    },
    {
      "inputs": [],
      "name": "MIN_RATE",
      "outputs": [
        {
          "internalType": "uint256",
          "name": "",
          "type": "uint256"
        }
      ],
      "stateMutability": "view",
      "type": "function"
    },
    {
      "inputs": [
        {
          "internalType": "bytes32",
          "name": "exchangeId",
          "type": "bytes32"
        },
        {
          "internalType": "uint256",
          "name": "datatokenAmount",
          "type": "uint256"
        },
        {
          "internalType": "uint256",
          "name": "maxBaseTokenAmount",
          "type": "uint256"
        },
        {
          "internalType": "address",
          "name": "consumeMarketAddress",
          "type": "address"
        },
        {
          "internalType": "uint256",
          "name": "consumeMarketSwapFeeAmount",
          "type": "uint256"
        }
      ],
      "name": "buyDT",
      "outputs": [],
      "stateMutability": "nonpayable",
      "type": "function"
    },
    {
      "inputs": [
        {
          "internalType": "bytes32",
          "name": "exchangeId",
          "type": "bytes32"
        },
        {
          "internalType": "uint256",
          "name": "datatokenAmount",
          "type": "uint256"
        },
        {
          "internalType": "uint256",
          "name": "consumeMarketSwapFeeAmount",
          "type": "uint256"
        }
      ],
      "name": "calcBaseInGivenOutDT",
      "outputs": [
        {
          "internalType": "uint256",
          "name": "baseTokenAmount",
          "type": "uint256"
        },
        {
          "internalType": "uint256",
          "name": "oceanFeeAmount",
          "type": "uint256"
        },
        {
          "internalType": "uint256",
          "name": "publishMarketFeeAmount",
          "type": "uint256"
        },
        {
          "internalType": "uint256",
          "name": "consumeMarketFeeAmount",
          "type": "uint256"
        }
      ],
      "stateMutability": "view",
      "type": "function"
    },
    {
      "inputs": [
        {
          "internalType": "bytes32",
          "name": "exchangeId",
          "type": "bytes32"
        },
        {
          "internalType": "uint256",
          "name": "datatokenAmount",
          "type": "uint256"
        },
        {
          "internalType": "uint256",
          "name": "consumeMarketSwapFeeAmount",
          "type": "uint256"
        }
      ],
      "name": "calcBaseOutGivenInDT",
      "outputs": [
        {
          "internalType": "uint256",
          "name": "baseTokenAmount",
          "type": "uint256"
        },
        {
          "internalType": "uint256",
          "name": "oceanFeeAmount",
          "type": "uint256"
        },
        {
          "internalType": "uint256",
          "name": "publishMarketFeeAmount",
          "type": "uint256"
        },
        {
          "internalType": "uint256",
          "name": "consumeMarketFeeAmount",
          "type": "uint256"
        }
      ],
      "stateMutability": "view",
      "type": "function"
    },
    {
      "inputs": [
        {
          "internalType": "bytes32",
          "name": "exchangeId",
          "type": "bytes32"
        }
      ],
      "name": "collectBT",
      "outputs": [],
      "stateMutability": "nonpayable",
      "type": "function"
    },
    {
      "inputs": [
        {
          "internalType": "bytes32",
          "name": "exchangeId",
          "type": "bytes32"
        }
      ],
      "name": "collectDT",
      "outputs": [],
      "stateMutability": "nonpayable",
      "type": "function"
    },
    {
      "inputs": [
        {
          "internalType": "bytes32",
          "name": "exchangeId",
          "type": "bytes32"
        }
      ],
      "name": "collectMarketFee",
      "outputs": [],
      "stateMutability": "nonpayable",
      "type": "function"
    },
    {
      "inputs": [
        {
          "internalType": "bytes32",
          "name": "exchangeId",
          "type": "bytes32"
        }
      ],
      "name": "collectOceanFee",
      "outputs": [],
      "stateMutability": "nonpayable",
      "type": "function"
    },
    {
      "inputs": [
        {
          "internalType": "address",
          "name": "datatoken",
          "type": "address"
        },
        {
          "internalType": "address[]",
          "name": "addresses",
          "type": "address[]"
        },
        {
          "internalType": "uint256[]",
          "name": "uints",
          "type": "uint256[]"
        }
      ],
      "name": "createWithDecimals",
      "outputs": [
        {
          "internalType": "bytes32",
          "name": "exchangeId",
          "type": "bytes32"
        }
      ],
      "stateMutability": "nonpayable",
      "type": "function"
    },
    {
      "inputs": [
        {
          "internalType": "address",
          "name": "baseToken",
          "type": "address"
        },
        {
          "internalType": "address",
          "name": "datatoken",
          "type": "address"
        },
        {
          "internalType": "address",
          "name": "exchangeOwner",
          "type": "address"
        }
      ],
      "name": "generateExchangeId",
      "outputs": [
        {
          "internalType": "bytes32",
          "name": "",
          "type": "bytes32"
        }
      ],
      "stateMutability": "pure",
      "type": "function"
    },
    {
      "inputs": [
        {
          "internalType": "bytes32",
          "name": "exchangeId",
          "type": "bytes32"
        }
      ],
      "name": "getAllowedSwapper",
      "outputs": [
        {
          "internalType": "address",
          "name": "allowedSwapper",
          "type": "address"
        }
      ],
      "stateMutability": "view",
      "type": "function"
    },
    {
      "inputs": [
        {
          "internalType": "bytes32",
          "name": "exchangeId",
          "type": "bytes32"
        }
      ],
      "name": "getBTSupply",
      "outputs": [
        {
          "internalType": "uint256",
          "name": "supply",
          "type": "uint256"
        }
      ],
      "stateMutability": "view",
      "type": "function"
    },
    {
      "inputs": [
        {
          "internalType": "bytes32",
          "name": "exchangeId",
          "type": "bytes32"
        }
      ],
      "name": "getDTSupply",
      "outputs": [
        {
          "internalType": "uint256",
          "name": "supply",
          "type": "uint256"
        }
      ],
      "stateMutability": "view",
      "type": "function"
    },
    {
      "inputs": [
        {
          "internalType": "bytes32",
          "name": "exchangeId",
          "type": "bytes32"
        }
      ],
      "name": "getExchange",
      "outputs": [
        {
          "internalType": "address",
          "name": "exchangeOwner",
          "type": "address"
        },
        {
          "internalType": "address",
          "name": "datatoken",
          "type": "address"
        },
        {
          "internalType": "uint256",
          "name": "dtDecimals",
          "type": "uint256"
        },
        {
          "internalType": "address",
          "name": "baseToken",
          "type": "address"
        },
        {
          "internalType": "uint256",
          "name": "btDecimals",
          "type": "uint256"
        },
        {
          "internalType": "uint256",
          "name": "fixedRate",
          "type": "uint256"
        },
        {
          "internalType": "bool",
          "name": "active",
          "type": "bool"
        },
        {
          "internalType": "uint256",
          "name": "dtSupply",
          "type": "uint256"
        },
        {
          "internalType": "uint256",
          "name": "btSupply",
          "type": "uint256"
        },
        {
          "internalType": "uint256",
          "name": "dtBalance",
          "type": "uint256"
        },
        {
          "internalType": "uint256",
          "name": "btBalance",
          "type": "uint256"
        },
        {
          "internalType": "bool",
          "name": "withMint",
          "type": "bool"
        }
      ],
      "stateMutability": "view",
      "type": "function"
    },
    {
      "inputs": [],
      "name": "getExchanges",
      "outputs": [
        {
          "internalType": "bytes32[]",
          "name": "",
          "type": "bytes32[]"
        }
      ],
      "stateMutability": "view",
      "type": "function"
    },
    {
      "inputs": [
        {
          "internalType": "bytes32",
          "name": "exchangeId",
          "type": "bytes32"
        }
      ],
      "name": "getFeesInfo",
      "outputs": [
        {
          "internalType": "uint256",
          "name": "marketFee",
          "type": "uint256"
        },
        {
          "internalType": "address",
          "name": "marketFeeCollector",
          "type": "address"
        },
        {
          "internalType": "uint256",
          "name": "opcFee",
          "type": "uint256"
        },
        {
          "internalType": "uint256",
          "name": "marketFeeAvailable",
          "type": "uint256"
        },
        {
          "internalType": "uint256",
          "name": "oceanFeeAvailable",
          "type": "uint256"
        }
      ],
      "stateMutability": "view",
      "type": "function"
    },
    {
      "inputs": [],
      "name": "getId",
      "outputs": [
        {
          "internalType": "uint8",
          "name": "",
          "type": "uint8"
        }
      ],
      "stateMutability": "pure",
      "type": "function"
    },
    {
      "inputs": [
        {
          "internalType": "bytes32",
          "name": "exchangeId",
          "type": "bytes32"
        }
      ],
      "name": "getMarketFee",
      "outputs": [
        {
          "internalType": "uint256",
          "name": "",
          "type": "uint256"
        }
      ],
      "stateMutability": "view",
      "type": "function"
    },
    {
      "inputs": [],
      "name": "getNumberOfExchanges",
      "outputs": [
        {
          "internalType": "uint256",
          "name": "",
          "type": "uint256"
        }
      ],
      "stateMutability": "view",
      "type": "function"
    },
    {
      "inputs": [
        {
          "internalType": "address",
          "name": "baseTokenAddress",
          "type": "address"
        }
      ],
      "name": "getOPCFee",
      "outputs": [
        {
          "internalType": "uint256",
          "name": "",
          "type": "uint256"
        }
      ],
      "stateMutability": "view",
      "type": "function"
    },
    {
      "inputs": [
        {
          "internalType": "bytes32",
          "name": "exchangeId",
          "type": "bytes32"
        }
      ],
      "name": "getRate",
      "outputs": [
        {
          "internalType": "uint256",
          "name": "",
          "type": "uint256"
        }
      ],
      "stateMutability": "view",
      "type": "function"
    },
    {
      "inputs": [
        {
          "internalType": "bytes32",
          "name": "exchangeId",
          "type": "bytes32"
        }
      ],
      "name": "isActive",
      "outputs": [
        {
          "internalType": "bool",
          "name": "",
          "type": "bool"
        }
      ],
      "stateMutability": "view",
      "type": "function"
    },
    {
      "inputs": [],
      "name": "opcCollector",
      "outputs": [
        {
          "internalType": "address",
          "name": "",
          "type": "address"
        }
      ],
      "stateMutability": "view",
      "type": "function"
    },
    {
      "inputs": [],
      "name": "router",
      "outputs": [
        {
          "internalType": "address",
          "name": "",
          "type": "address"
        }
      ],
      "stateMutability": "view",
      "type": "function"
    },
    {
      "inputs": [
        {
          "internalType": "bytes32",
          "name": "exchangeId",
          "type": "bytes32"
        },
        {
          "internalType": "uint256",
          "name": "datatokenAmount",
          "type": "uint256"
        },
        {
          "internalType": "uint256",
          "name": "minBaseTokenAmount",
          "type": "uint256"
        },
        {
          "internalType": "address",
          "name": "consumeMarketAddress",
          "type": "address"
        },
        {
          "internalType": "uint256",
          "name": "consumeMarketSwapFeeAmount",
          "type": "uint256"
        }
      ],
      "name": "sellDT",
      "outputs": [],
      "stateMutability": "nonpayable",
      "type": "function"
    },
    {
      "inputs": [
        {
          "internalType": "bytes32",
          "name": "exchangeId",
          "type": "bytes32"
        },
        {
          "internalType": "address",
          "name": "newAllowedSwapper",
          "type": "address"
        }
      ],
      "name": "setAllowedSwapper",
      "outputs": [],
      "stateMutability": "nonpayable",
      "type": "function"
    },
    {
      "inputs": [
        {
          "internalType": "bytes32",
          "name": "exchangeId",
          "type": "bytes32"
        },
        {
          "internalType": "uint256",
          "name": "newRate",
          "type": "uint256"
        }
      ],
      "name": "setRate",
      "outputs": [],
      "stateMutability": "nonpayable",
      "type": "function"
    },
    {
      "inputs": [
        {
          "internalType": "bytes32",
          "name": "exchangeId",
          "type": "bytes32"
        }
      ],
      "name": "toggleExchangeState",
      "outputs": [],
      "stateMutability": "nonpayable",
      "type": "function"
    },
    {
      "inputs": [
        {
          "internalType": "bytes32",
          "name": "exchangeId",
          "type": "bytes32"
        },
        {
          "internalType": "bool",
          "name": "withMint",
          "type": "bool"
        }
      ],
      "name": "toggleMintState",
      "outputs": [],
      "stateMutability": "nonpayable",
      "type": "function"
    },
    {
      "inputs": [
        {
          "internalType": "bytes32",
          "name": "exchangeId",
          "type": "bytes32"
        },
        {
          "internalType": "uint256",
          "name": "_newMarketFee",
          "type": "uint256"
        }
      ],
      "name": "updateMarketFee",
      "outputs": [],
      "stateMutability": "nonpayable",
      "type": "function"
    },
    {
      "inputs": [
        {
          "internalType": "bytes32",
          "name": "exchangeId",
          "type": "bytes32"
        },
        {
          "internalType": "address",
          "name": "_newMarketCollector",
          "type": "address"
        }
      ],
      "name": "updateMarketFeeCollector",
      "outputs": [],
      "stateMutability": "nonpayable",
      "type": "function"
    }
  ],
  "bytecode": "0x60806040523480156200001157600080fd5b5060405162003c3738038062003c37833981016040819052620000349162000158565b60016000556001600160a01b038216620000a55760405162461bcd60e51b815260206004820152602760248201527f46697865645261746545786368616e67653a2057726f6e6720526f75746572206044820152666164647265737360c81b60648201526084015b60405180910390fd5b6001600160a01b038116620001095760405162461bcd60e51b8152602060048201526024808201527f46697865645261746545786368616e67653a2057726f6e67204f5043206164646044820152637265737360e01b60648201526084016200009c565b600180546001600160a01b039384166001600160a01b0319918216179091556002805492909316911617905562000190565b80516001600160a01b03811681146200015357600080fd5b919050565b600080604083850312156200016c57600080fd5b62000177836200013b565b915062000187602084016200013b565b90509250929050565b613a9780620001a06000396000f3fe608060405234801561001057600080fd5b50600436106101fb5760003560e01c806379dd28361161011a578063b8421e2b116100ad578063c66274ea1161007c578063c66274ea146105ef578063d819bfef14610602578063dd1bc96a1461060e578063f532129e14610621578063f887ea401461063457600080fd5b8063b8421e2b1461058e578063bc063e1a146105a1578063c1f6572e146105a9578063c2c0d1ab146105bc57600080fd5b806388823872116100e9578063888238721461053c578063b32b56f91461054f578063b424142914610573578063b686bcaf1461057b57600080fd5b806379dd28361461041b5780637c82ebe91461042e578063855058dd1461044157806385fcbc2f1461052957600080fd5b806350d571d51161019257806360311e951161016157806360311e95146103da578063680819eb146103ed57806368c4b7e91461040057806376c7a3c71461041357600080fd5b806350d571d5146103725780635acfedc7146103855780635c36901c146103985780635d1ca631146103cb57600080fd5b806324cb477e116101ce57806324cb477e146102a95780632e7e23b3146102be578063450dccc3146102e15780634c87087d146102f457600080fd5b8063012c32751461020057806303814238146102265780630b3b430d146102515780631e2e3a6b14610294575b600080fd5b61021361020e366004613408565b610647565b6040519081526020015b60405180910390f35b600254610239906001600160a01b031681565b6040516001600160a01b03909116815260200161021d565b61026461025f3660046134da565b610f35565b604080519586526001600160a01b039094166020860152928401919091526060830152608082015260a00161021d565b61029c61103f565b60405161021d91906134f3565b6102bc6102b73660046134da565b611097565b005b6102136102cc3660046134da565b60009081526003602052604090206008015490565b6102bc6102ef3660046134da565b611176565b6103076103023660046134da565b611282565b604080516001600160a01b039d8e1681529b8d1660208d01528b0199909952999096166060890152608088019490945260a0870192909252151560c086015260e08501526101008401526101208301526101408201929092529015156101608201526101800161021d565b6102bc610380366004613537565b6113a9565b6102bc6103933660046134da565b6118f2565b6103bb6103a63660046134da565b60009081526003602052604090205460ff1690565b604051901515815260200161021d565b6040516001815260200161021d565b6102bc6103e836600461357e565b6119ad565b6102bc6103fb3660046135aa565b611a4f565b6102bc61040e366004613537565b611b3c565b610213612149565b6102bc6104293660046135dd565b612160565b6102bc61043c36600461357e565b6121f2565b61023961044f3660046134da565b60009081526003602081815260409283902083516101e081018552815460ff808216151583526001600160a01b03610100928390048116958401959095526001840154851696830196909652600283015484166060830152938201546080820152600482015460a0820152600582015460c0820152600682015460e0820152600782015484820152600882015461012082015260098201548316610140820152600a820154610160820152600b820154610180820152600c9091015493841615156101a0820152919092049091166101c090910181905290565b6102136105373660046134da565b6122c5565b6102bc61054a3660046135aa565b61244c565b61021361055d3660046134da565b6000908152600360208190526040909120015490565b600454610213565b6102bc6105893660046134da565b6125bb565b61021361059c36600461360d565b61266c565b6102136126e1565b6102136105b7366004613628565b6126f4565b6105cf6105ca36600461366b565b612740565b60408051948552602085019390935291830152606082015260800161021d565b6102136105fd3660046134da565b6128da565b6102136402540be40081565b6105cf61061c36600461366b565b612bec565b6102bc61062f3660046134da565b612d58565b600154610239906001600160a01b031681565b6001546000906001600160a01b031633146106a95760405162461bcd60e51b815260206004820152601e60248201527f46697865645261746545786368616e67653a206f6e6c7920726f75746572000060448201526064015b60405180910390fd5b60006001600160a01b0316836000815181106106c7576106c7613697565b60200260200101516001600160a01b031614156107425760405162461bcd60e51b815260206004820152603360248201527f46697865645261746545786368616e67653a20496e76616c69642062617365546044820152726f6b656e2c20207a65726f206164647265737360681b60648201526084016106a0565b6001600160a01b0384166107b45760405162461bcd60e51b815260206004820152603360248201527f46697865645261746545786368616e67653a20496e76616c69642064617461746044820152726f6b656e2c20207a65726f206164647265737360681b60648201526084016106a0565b836001600160a01b0316836000815181106107d1576107d1613697565b60200260200101516001600160a01b031614156108565760405162461bcd60e51b815260206004820152603760248201527f46697865645261746545786368616e67653a20496e76616c696420646174617460448201527f6f6b656e2c2020657175616c732062617365546f6b656e00000000000000000060648201526084016106a0565b6402540be4008260028151811061086f5761086f613697565b602002602001015110156108dc5760405162461bcd60e51b815260206004820152602e60248201527f46697865645261746545786368616e67653a20496e76616c696420657863686160448201526d6e676520726174652076616c756560901b60648201526084016106a0565b61091b836000815181106108f2576108f2613697565b6020026020010151858560018151811061090e5761090e613697565b60200260200101516126f4565b60008181526003602081905260409091200154909150156109925760405162461bcd60e51b815260206004820152602b60248201527f46697865645261746545786368616e67653a2045786368616e676520616c726560448201526a616479206578697374732160a81b60648201526084016106a0565b600060019050826004815181106109ab576109ab613697565b6020026020010151600014156109bf575060005b604051806101e00160405280600115158152602001856001815181106109e7576109e7613697565b60200260200101516001600160a01b03168152602001866001600160a01b0316815260200185600081518110610a1f57610a1f613697565b60200260200101516001600160a01b0316815260200184600281518110610a4857610a48613697565b6020026020010151815260200184600181518110610a6857610a68613697565b6020026020010151815260200184600081518110610a8857610a88613697565b60200260200101518152602001600081526020016000815260200184600381518110610ab657610ab6613697565b6020026020010151815260200185600281518110610ad657610ad6613697565b60200260200101516001600160a01b031681526020016000815260200160008152602001821515815260200185600381518110610b1557610b15613697565b6020908102919091018101516001600160a01b039081169092526000858152600380835260409182902085518154948701518616610100908102610100600160a81b031992151583166001600160a81b031997881617178355938701516001830180549188166001600160a01b0319928316179055606088015160028401805491891691831691909117905560808801518385015560a0880151600484015560c0880151600584015560e08801516006840155848801516007840155610120880151600884015561014088015160098401805491891691909216179055610160870151600a830155610180870151600b8301556101a0870151600c90920180546101c090980151909616909302901515909216949092169390931792909217905583518491908110610c4957610c49613697565b602002602001015160001480610c8c5750610c6e612710670de0b6b3a76400006136c3565b83600381518110610c8157610c81613697565b602002602001015110155b610cca5760405162461bcd60e51b815260206004820152600f60248201526e5377617046656520746f6f206c6f7760881b60448201526064016106a0565b610cdd600a670de0b6b3a76400006136c3565b83600381518110610cf057610cf0613697565b60200260200101511115610d395760405162461bcd60e51b815260206004820152601060248201526f0a6eec2e08ccaca40e8dede40d0d2ced60831b60448201526064016106a0565b6004805460018101825560009182527f8a35acfbc15ff81a39ae7d344fd709f28e8600b4aa8c65c6b64bfe7fe36bd19b0183905584516001600160a01b038716918691610d8857610d88613697565b60200260200101516001600160a01b0316837feb7a353641f7d3cc54b497ef1553fdc292b64d9cc3be8587c23dfba01f310b1987600181518110610dce57610dce613697565b602002602001015187600281518110610de957610de9613697565b6020026020010151604051610e139291906001600160a01b03929092168252602082015260400190565b60405180910390a483600181518110610e2e57610e2e613697565b60200260200101516001600160a01b0316827fc7344c45124818d1d3a4c24ccb9b86d8b88d3bd05209b2a42b494cb32a50352960405160405180910390a383600381518110610e7f57610e7f613697565b60200260200101516001600160a01b0316827fcc1b4af8292e6b938f6743c78a62317c9a2d60e0d46b77776a027e53ce617c0c60405160405180910390a3817f1bf3af41af5ef4ea33bbeffb18acd246aae76d6f03bdb54916577c2e1ab03d523386600281518110610ef357610ef3613697565b602002602001015186600381518110610f0e57610f0e613697565b6020026020010151604051610f25939291906136e5565b60405180910390a2509392505050565b600081815260036020818152604080842081516101e081018352815460ff808216151583526001600160a01b036101009283900481168488015260018501548116958401959095526002840154851660608401819052848801546080850152600485015460a0850152600585015460c0850152600685015460e085015260078501548385015260088501546101208501819052600986015487166101408601819052600a870154610160870152600b870154610180870152600c9096015492831615156101a0860152929091049094166101c08301528787529490935292939182918291906110239061266c565b9350806101600151925080610180015191505091939590929450565b6060600480548060200260200160405190810160405280929190818152602001828054801561108d57602002820191906000526020600020905b815481526020019060010190808311611079575b5050505050905090565b600081815260036020526040902054819061010090046001600160a01b031633146110d45760405162461bcd60e51b81526004016106a090613709565b60008281526003602052604090205460ff161561112f57600082815260036020526040808220805460ff1916905551339184917f03da9148e1de78fba22de63c573465562ebf6ef878a1d3ea83790a560229984c9190a35050565b600082815260036020526040808220805460ff1916600117905551339184917fc7344c45124818d1d3a4c24ccb9b86d8b88d3bd05209b2a42b494cb32a5035299190a35050565b600081815260036020526040902054819061010090046001600160a01b031633146111b35760405162461bcd60e51b81526004016106a090613709565b600260005414156111d65760405162461bcd60e51b81526004016106a090613752565b600260009081558281526003602052604081206006810180549290558054600190910154611217916001600160a01b03918216916101009091041683612e54565b6000838152600360209081526040918290206001810154905492518481526001600160a01b039182169361010090049091169186917fecc75f4464886bee0a1c5eae61c0cb4b99c64c5e9cdebe3696217d266f8b163691015b60405180910390a45050600160005550565b600081815260036020818152604080842081516101e081018352815460ff80821615158084526001600160a01b036101009384900481169785018890526001860154811696850187905260028601548116606086018190529886015460808601819052600487015460a08701819052600588015460c08801819052600689015460e0890152600789015487890152600889015461012089015260098901548416610140890152600a890154610160890152600b890154610180890152600c9098015494851615156101a088015294909304166101c08501529597949691959194909281908190819081906113758e6128da565b95506113808e6122c5565b94508060e0015193508061010001519250806101a0015191505091939597999b5091939597999b565b600085815260036020526040902054859060ff166113d95760405162461bcd60e51b81526004016106a090613789565b600260005414156113fc5760405162461bcd60e51b81526004016106a090613752565b60026000558461141e5760405162461bcd60e51b81526004016106a0906137d4565b81158061143e575061143a612710670de0b6b3a76400006136c3565b8210155b6114835760405162461bcd60e51b8152602060048201526016602482015275436f6e73756d655377617046656520746f6f206c6f7760501b60448201526064016106a0565b611496600a670de0b6b3a76400006136c3565b8211156114df5760405162461bcd60e51b8152602060048201526017602482015276086dedce6eadacaa6eec2e08ccaca40e8dede40d0d2ced604b1b60448201526064016106a0565b6000868152600360205260409020600c015461010090046001600160a01b031615611542576000868152600360205260409020600c015461010090046001600160a01b031633146115425760405162461bcd60e51b81526004016106a09061381c565b61156d6040518060800160405280600081526020016000815260200160008152602001600081525090565b6001600160a01b03841661158057600092505b61158b878785612740565b6060850152604084015260208301528082528511156115fb5760405162461bcd60e51b815260206004820152602660248201527f46697865645261746545786368616e67653a20546f6f20666577206261736520604482015265746f6b656e7360d01b60648201526084016106a0565b602080820151600089815260039092526040909120600b015461161d91612ebc565b60008881526003602052604090819020600b810192909255820151600a9091015461164791612ebc565b60036000898152602001908152602001600020600a01819055506000611694826060015161168e846040015161168e86602001518760000151612ebc90919063ffffffff16565b90612ebc565b6000898152600360205260409020600101549091506116be906001600160a01b031633308a612ec8565b6000888152600360205260409020600601546116da9088612ebc565b600089815260036020526040902060068101919091556007015481111561175d5760008881526003602052604090206002810154905461172d916001600160a01b03908116916101009004163084612ec8565b8151600089815260036020526040902060020154611758916001600160a01b03909116903390612e54565b6117ae565b6000888152600360205260409020600701546117799082613016565b6000898152600360205260409020600781019190915582516002909101546117ae916001600160a01b03909116903390612e54565b6001600160a01b038516158015906117ca575060008260600151115b1561185d5760608201516000898152600360205260409020600201546117fd916001600160a01b03909116908790612e54565b6000888152600360205260409081902060020154606084015191518a927f086a8edf7ac99098be3ce56ba76ae3e5a1e212fed5f803fc3167990fa03079b992611854928a926001600160a01b0390921691906136e5565b60405180910390a25b815160008981526003602090815260409182902060020154828601518287015160608089015186519788529487018e90526001600160a01b039093169486019490945290840152608083019190915260a0820152339089907f7b072645ce5b6a2fc627a544edee544b786747cafd1bb8f0e3238aa5f2e806469060c0015b60405180910390a350506001600055505050505050565b600260005414156119155760405162461bcd60e51b81526004016106a090613752565b60026000818155828152600360205260408120600b810180549290558254920154909161194f916001600160a01b03908116911683612e54565b6000828152600360209081526040918290206002015491518381526001600160a01b039092169184917f457b44fd47c33fc65bfbd58d0202ad97fbed1bbc9881f56441d05fe9ebd58acf91015b60405180910390a350506001600055565b600082815260036020526040902054829061010090046001600160a01b031633146119ea5760405162461bcd60e51b81526004016106a090613709565b600083815260036020526040808220600c018054610100600160a81b0319166101006001600160a01b038716908102919091179091559051909185917fcc1b4af8292e6b938f6743c78a62317c9a2d60e0d46b77776a027e53ce617c0c9190a3505050565b600082815260036020526040902054829061010090046001600160a01b03163314611a8c5760405162461bcd60e51b81526004016106a090613709565b81611ae55760405162461bcd60e51b815260206004820152602360248201527f46697865645261746545786368616e67653a20526174696f206d7573742062656044820152620203e360ec1b60648201526084016106a0565b6000838152600360208190526040918290200183905551339084907fe50f9919fdc524004a4ee0cb934f4734f144bec0713a52e5483b753f5de0f08c90611b2f9086815260200190565b60405180910390a3505050565b600085815260036020526040902054859060ff16611b6c5760405162461bcd60e51b81526004016106a090613789565b60026000541415611b8f5760405162461bcd60e51b81526004016106a090613752565b600260005584611bb15760405162461bcd60e51b81526004016106a0906137d4565b811580611bd15750611bcd612710670de0b6b3a76400006136c3565b8210155b611c165760405162461bcd60e51b8152602060048201526016602482015275436f6e73756d655377617046656520746f6f206c6f7760501b60448201526064016106a0565b611c29600a670de0b6b3a76400006136c3565b821115611c725760405162461bcd60e51b8152602060048201526017602482015276086dedce6eadacaa6eec2e08ccaca40e8dede40d0d2ced604b1b60448201526064016106a0565b6000868152600360205260409020600c015461010090046001600160a01b031615611cd5576000868152600360205260409020600c015461010090046001600160a01b03163314611cd55760405162461bcd60e51b81526004016106a09061381c565b6001600160a01b038316611ce857600091505b611d136040518060800160405280600081526020016000815260200160008152602001600081525090565b611d1e878785612bec565b606085015260408401526020830152808252851015611d8f5760405162461bcd60e51b815260206004820152602760248201527f46697865645261746545786368616e67653a20546f6f206d616e79206261736560448201526620746f6b656e7360c81b60648201526084016106a0565b602080820151600089815260039092526040909120600b0154611db191612ebc565b60008881526003602052604090819020600b810192909255820151600a90910154611ddb91612ebc565b6000888152600360205260409020600a810191909155600201548151611e0e916001600160a01b03169033903090612ec8565b6000611e418260600151611e3b8460400151611e3b8660200151876000015161301690919063ffffffff16565b90613016565b600089815260036020526040902060070154909150611e609082612ebc565b6000898152600360205260409020600781019190915560060154871115611fce576000888152600360205260409020600c015460ff168015611f195750600088815260036020526040908190206001015490516355138f0d60e11b81523060048201526001600160a01b039091169063aa271e1a90602401602060405180830381865afa158015611ef5573d6000803e3d6000fd5b505050506040513d601f19601f82011682018060405250810190611f199190613872565b15611f9757600088815260036020526040908190206001015490516340c10f1960e01b8152336004820152602481018990526001600160a01b03909116906340c10f1990604401600060405180830381600087803b158015611f7a57600080fd5b505af1158015611f8e573d6000803e3d6000fd5b50505050612018565b600088815260036020526040902060018101549054611fc9916001600160a01b0390811691610100900416338a612ec8565b612018565b600088815260036020526040902060060154611fea9088613016565b6000898152600360205260409020600681019190915560010154612018906001600160a01b03163389612e54565b6001600160a01b03851615801590612034575060008260600151115b156120c7576060820151600089815260036020526040902060020154612067916001600160a01b03909116908790612e54565b6000888152600360205260409081902060020154606084015191518a927f086a8edf7ac99098be3ce56ba76ae3e5a1e212fed5f803fc3167990fa03079b9926120be928a926001600160a01b0390921691906136e5565b60405180910390a25b815160008981526003602090815260409182902060010154828601518287015160608089015186519788529487018e90526001600160a01b039093169486019490945290840152608083019190915260a0820152339089907f7b072645ce5b6a2fc627a544edee544b786747cafd1bb8f0e3238aa5f2e806469060c0016118db565b61215d612710670de0b6b3a76400006136c3565b81565b600082815260036020526040902054829061010090046001600160a01b0316331461219d5760405162461bcd60e51b81526004016106a090613709565b600083815260036020908152604091829020600c01805460ff19168515159081179091559151918252339185917fe28e899e0f5d6fba0c8d73d1888083bcc62d4d9806d2e26fcf1f607c3ed52f539101611b2f565b6000828152600360205260409020600901546001600160a01b031633146122545760405162461bcd60e51b81526020600482015260166024820152753737ba1036b0b935b2ba2332b2a1b7b63632b1ba37b960511b60448201526064016106a0565b600082815260036020526040908190206009810180546001600160a01b0319166001600160a01b03851617905560080154905183917f1bf3af41af5ef4ea33bbeffb18acd246aae76d6f03bdb54916577c2e1ab03d52916122b99133918691906136e5565b60405180910390a25050565b60008181526003602052604081205460ff166122e357506000919050565b6000828152600360205260408082206002810154905491516370a0823160e01b81526101009092046001600160a01b03908116600484015216906370a0823190602401602060405180830381865afa158015612343573d6000803e3d6000fd5b505050506040513d601f19601f82011682018060405250810190612367919061388f565b600084815260036020526040808220600281015490549151636eb1769f60e11b81526001600160a01b0361010090930483166004820152306024820152939450919291169063dd62ed3e90604401602060405180830381865afa1580156123d2573d6000803e3d6000fd5b505050506040513d601f19601f820116820180604052508101906123f6919061388f565b9050808210156124245760008481526003602052604090206007015461241d908390612ebc565b9250612444565b600084815260036020526040902060070154612441908290612ebc565b92505b50505b919050565b6000828152600360205260409020600901546001600160a01b031633146124ae5760405162461bcd60e51b81526020600482015260166024820152753737ba1036b0b935b2ba2332b2a1b7b63632b1ba37b960511b60448201526064016106a0565b8015806124ce57506124ca612710670de0b6b3a76400006136c3565b8110155b61250c5760405162461bcd60e51b815260206004820152600f60248201526e5377617046656520746f6f206c6f7760881b60448201526064016106a0565b61251f600a670de0b6b3a76400006136c3565b8111156125615760405162461bcd60e51b815260206004820152601060248201526f0a6eec2e08ccaca40e8dede40d0d2ced60831b60448201526064016106a0565b600082815260036020526040908190206008810183905560090154905183917f1bf3af41af5ef4ea33bbeffb18acd246aae76d6f03bdb54916577c2e1ab03d52916122b99133916001600160a01b039091169086906136e5565b600260005414156125de5760405162461bcd60e51b81526004016106a090613752565b60026000818155828152600360205260408120600a810180549290556009810154920154909161261b916001600160a01b03908116911683612e54565b6000828152600360209081526040918290206002015491518381526001600160a01b039092169184917f192a3cd95e40313e0e12c28b398e31633936e38d134419161f883c8d64079055910161199c565b60015460405163b8421e2b60e01b81526001600160a01b038381166004830152600092169063b8421e2b90602401602060405180830381865afa1580156126b7573d6000803e3d6000fd5b505050506040513d601f19601f820116820180604052508101906126db919061388f565b92915050565b61215d600a670de0b6b3a76400006136c3565b604080516001600160a01b0380861660208301528085169282019290925290821660608201526000906080016040516020818303038152906040528051906020012090505b9392505050565b600083815260036020526040812054819081908190879060ff166127765760405162461bcd60e51b81526004016106a090613789565b60006127828989613022565b90506127af6040518060800160405280600081526020016000815260200160008152602001600081525090565b60008a8152600360205260408120600201546127d3906001600160a01b031661266c565b90508015612801576127f7670de0b6b3a76400006127f18584613092565b9061309e565b6020830152612809565b600060208301525b60008b815260036020526040902060080154156128555760008b81526003602052604090206008015461284b90670de0b6b3a7640000906127f1908690613092565b604083015261285d565b600060408301525b881561288357612879670de0b6b3a76400006127f1858c613092565b606083015261288b565b600060608301525b6128b28260600151611e3b8460200151611e3b86604001518861301690919063ffffffff16565b80835260208301516040840151606090940151919d909c50929a509850909650505050505050565b60008181526003602052604081205460ff166128f857506000919050565b6000828152600360205260409020600c015460ff1680156129905750600082815260036020526040908190206001015490516355138f0d60e11b81523060048201526001600160a01b039091169063aa271e1a90602401602060405180830381865afa15801561296c573d6000803e3d6000fd5b505050506040513d601f19601f820116820180604052508101906129909190613872565b15612a95576000828152600360209081526040918290206001015482516318160ddd60e01b815292516001600160a01b03909116926318160ddd9260048083019391928290030181865afa1580156129ec573d6000803e3d6000fd5b505050506040513d601f19601f82011682018060405250810190612a10919061388f565b600083815260036020908152604091829020600101548251631aa93a7560e11b815292516001600160a01b039091169263355274ea9260048083019391928290030181865afa158015612a67573d6000803e3d6000fd5b505050506040513d601f19601f82011682018060405250810190612a8b919061388f565b6126db91906138a8565b6000828152600360205260408082206001810154905491516370a0823160e01b81526101009092046001600160a01b03908116600484015216906370a0823190602401602060405180830381865afa158015612af5573d6000803e3d6000fd5b505050506040513d601f19601f82011682018060405250810190612b19919061388f565b600084815260036020526040808220600181015490549151636eb1769f60e11b81526001600160a01b0361010090930483166004820152306024820152939450919291169063dd62ed3e90604401602060405180830381865afa158015612b84573d6000803e3d6000fd5b505050506040513d601f19601f82011682018060405250810190612ba8919061388f565b905080821015612bcf5760008481526003602052604090206006015461241d908390612ebc565b600084815260036020526040902060060154612441908290612ebc565b600083815260036020526040812054819081908190879060ff16612c225760405162461bcd60e51b81526004016106a090613789565b6000612c2e8989613022565b9050612c5b6040518060800160405280600081526020016000815260200160008152602001600081525090565b60008a815260036020526040812060020154612c7f906001600160a01b031661266c565b90508015612ca757612c9d670de0b6b3a76400006127f18584613092565b6020830152612caf565b600060208301525b60008b81526003602052604090206008015415612cfb5760008b815260036020526040902060080154612cf190670de0b6b3a7640000906127f1908690613092565b6040830152612d03565b600060408301525b8815612d2957612d1f670de0b6b3a76400006127f1858c613092565b6060830152612d31565b600060608301525b6128b2826060015161168e846020015161168e866040015188612ebc90919063ffffffff16565b600081815260036020526040902054819061010090046001600160a01b03163314612d955760405162461bcd60e51b81526004016106a090613709565b60026000541415612db85760405162461bcd60e51b81526004016106a090613752565b6002600081815583815260036020526040812060078101805492905580549201549091612df7916001600160a01b039081169161010090041683612e54565b6000838152600360209081526040918290206002810154905492518481526001600160a01b039182169361010090049091169186917fecc75f4464886bee0a1c5eae61c0cb4b99c64c5e9cdebe3696217d266f8b16369101611270565b6040516001600160a01b038316602482015260448101829052612eb790849063a9059cbb60e01b906064015b60408051601f198184030181529190526020810180516001600160e01b03166001600160e01b0319909316929092179091526130aa565b505050565b600061273982846138bf565b6040516370a0823160e01b81526001600160a01b038381166004830152600091908616906370a0823190602401602060405180830381865afa158015612f12573d6000803e3d6000fd5b505050506040513d601f19601f82011682018060405250810190612f36919061388f565b9050612f4d6001600160a01b03861685858561317c565b612f578183612ebc565b6040516370a0823160e01b81526001600160a01b0385811660048301528716906370a0823190602401602060405180830381865afa158015612f9d573d6000803e3d6000fd5b505050506040513d601f19601f82011682018060405250810190612fc1919061388f565b101561300f5760405162461bcd60e51b815260206004820152601a60248201527f5472616e7366657220616d6f756e7420697320746f6f206c6f7700000000000060448201526064016106a0565b5050505050565b600061273982846138a8565b60008281526003602052604081206004015461273990670de0b6b3a7640000906127f19061305190600a6139bb565b6000878152600360205260409020600501546127f19061307290600a6139bb565b60008981526003602081905260409091200154613090908990613092565b905b600061273982846139c7565b600061273982846136c3565b60006130ff826040518060400160405280602081526020017f5361666545524332303a206c6f772d6c6576656c2063616c6c206661696c6564815250856001600160a01b03166131a39092919063ffffffff16565b805190915015612eb7578080602001905181019061311d9190613872565b612eb75760405162461bcd60e51b815260206004820152602a60248201527f5361666545524332303a204552433230206f7065726174696f6e20646964206e6044820152691bdd081cdd58d8d9595960b21b60648201526084016106a0565b61319d846323b872dd60e01b858585604051602401612e80939291906136e5565b50505050565b60606131b284846000856131ba565b949350505050565b60608247101561321b5760405162461bcd60e51b815260206004820152602660248201527f416464726573733a20696e73756666696369656e742062616c616e636520666f6044820152651c8818d85b1b60d21b60648201526084016106a0565b843b6132695760405162461bcd60e51b815260206004820152601d60248201527f416464726573733a2063616c6c20746f206e6f6e2d636f6e747261637400000060448201526064016106a0565b600080866001600160a01b031685876040516132859190613a12565b60006040518083038185875af1925050503d80600081146132c2576040519150601f19603f3d011682016040523d82523d6000602084013e6132c7565b606091505b50915091506132d78282866132e2565b979650505050505050565b606083156132f1575081612739565b8251156133015782518084602001fd5b8160405162461bcd60e51b81526004016106a09190613a2e565b80356001600160a01b038116811461244757600080fd5b634e487b7160e01b600052604160045260246000fd5b604051601f8201601f1916810167ffffffffffffffff8111828210171561337157613371613332565b604052919050565b600067ffffffffffffffff82111561339357613393613332565b5060051b60200190565b600082601f8301126133ae57600080fd5b813560206133c36133be83613379565b613348565b82815260059290921b840181019181810190868411156133e257600080fd5b8286015b848110156133fd57803583529183019183016133e6565b509695505050505050565b60008060006060848603121561341d57600080fd5b6134268461331b565b925060208085013567ffffffffffffffff8082111561344457600080fd5b818701915087601f83011261345857600080fd5b81356134666133be82613379565b81815260059190911b8301840190848101908a83111561348557600080fd5b938501935b828510156134aa5761349b8561331b565b8252938501939085019061348a565b9650505060408701359250808311156134c257600080fd5b50506134d08682870161339d565b9150509250925092565b6000602082840312156134ec57600080fd5b5035919050565b6020808252825182820181905260009190848201906040850190845b8181101561352b5783518352928401929184019160010161350f565b50909695505050505050565b600080600080600060a0868803121561354f57600080fd5b85359450602086013593506040860135925061356d6060870161331b565b949793965091946080013592915050565b6000806040838503121561359157600080fd5b823591506135a16020840161331b565b90509250929050565b600080604083850312156135bd57600080fd5b50508035926020909101359150565b80151581146135da57600080fd5b50565b600080604083850312156135f057600080fd5b823591506020830135613602816135cc565b809150509250929050565b60006020828403121561361f57600080fd5b6127398261331b565b60008060006060848603121561363d57600080fd5b6136468461331b565b92506136546020850161331b565b91506136626040850161331b565b90509250925092565b60008060006060848603121561368057600080fd5b505081359360208301359350604090920135919050565b634e487b7160e01b600052603260045260246000fd5b634e487b7160e01b600052601160045260246000fd5b6000826136e057634e487b7160e01b600052601260045260246000fd5b500490565b6001600160a01b039384168152919092166020820152604081019190915260600190565b60208082526029908201527f46697865645261746545786368616e67653a20696e76616c69642065786368616040820152683733b29037bbb732b960b91b606082015260800190565b6020808252601f908201527f5265656e7472616e637947756172643a207265656e7472616e742063616c6c00604082015260600190565b6020808252602b908201527f46697865645261746545786368616e67653a2045786368616e676520646f657360408201526a206e6f742065786973742160a81b606082015260800190565b60208082526028908201527f46697865645261746545786368616e67653a207a65726f2064617461746f6b656040820152671b88185b5bdd5b9d60c21b606082015260800190565b60208082526036908201527f46697865645261746545786368616e67653a205468697320616464726573732060408201527506973206e6f7420616c6c6f77656420746f20737761760541b606082015260800190565b60006020828403121561388457600080fd5b8151612739816135cc565b6000602082840312156138a157600080fd5b5051919050565b6000828210156138ba576138ba6136ad565b500390565b600082198211156138d2576138d26136ad565b500190565b600181815b808511156139125781600019048211156138f8576138f86136ad565b8085161561390557918102915b93841c93908002906138dc565b509250929050565b600082613929575060016126db565b81613936575060006126db565b816001811461394c576002811461395657613972565b60019150506126db565b60ff841115613967576139676136ad565b50506001821b6126db565b5060208310610133831016604e8410600b8410161715613995575081810a6126db565b61399f83836138d7565b80600019048211156139b3576139b36136ad565b029392505050565b6000612739838361391a565b60008160001904831182151516156139e1576139e16136ad565b500290565b60005b83811015613a015781810151838201526020016139e9565b8381111561319d5750506000910152565b60008251613a248184602087016139e6565b9190910192915050565b6020815260008251806020840152613a4d8160408501602087016139e6565b601f01601f1916919091016040019291505056fea26469706673582212204f093d08e13a08362481f3e8bc1c4e5f2aa24b08e233ee1f51accf0c2eb6dc4664736f6c634300080a0033",
  "linkReferences": {},
  "deployedLinkReferences": {}
}