{
  "_format": "hh-sol-artifact-1",
  "contractName": "FixedRateExchange",
  "sourceName": "contracts/pools/fixedRate/FixedRateExchange.sol",
  "abi": [
    {
      "inputs": [
        {
          "internalType": "address",
          "name": "_router",
          "type": "address"
        },
        {
          "internalType": "address",
          "name": "_opcCollector",
          "type": "address"
        }
      ],
      "stateMutability": "nonpayable",
      "type": "constructor"
    },
    {
      "anonymous": false,
      "inputs": [
        {
          "indexed": true,
          "internalType": "bytes32",
          "name": "exchangeId",
          "type": "bytes32"
        },
        {
          "indexed": false,
          "internalType": "address",
          "name": "to",
          "type": "address"
        },
        {
          "indexed": false,
          "internalType": "address",
          "name": "token",
          "type": "address"
        },
        {
          "indexed": false,
          "internalType": "uint256",
          "name": "amount",
          "type": "uint256"
        }
      ],
      "name": "ConsumeMarketFee",
      "type": "event"
    },
    {
      "anonymous": false,
      "inputs": [
        {
          "indexed": true,
          "internalType": "bytes32",
          "name": "exchangeId",
          "type": "bytes32"
        },
        {
          "indexed": true,
          "internalType": "address",
          "name": "exchangeOwner",
          "type": "address"
        }
      ],
      "name": "ExchangeActivated",
      "type": "event"
    },
    {
      "anonymous": false,
      "inputs": [
        {
          "indexed": true,
          "internalType": "bytes32",
          "name": "exchangeId",
          "type": "bytes32"
        },
        {
          "indexed": true,
          "internalType": "address",
          "name": "allowedSwapper",
          "type": "address"
        }
      ],
      "name": "ExchangeAllowedSwapperChanged",
      "type": "event"
    },
    {
      "anonymous": false,
      "inputs": [
        {
          "indexed": true,
          "internalType": "bytes32",
          "name": "exchangeId",
          "type": "bytes32"
        },
        {
          "indexed": true,
          "internalType": "address",
          "name": "baseToken",
          "type": "address"
        },
        {
          "indexed": true,
          "internalType": "address",
          "name": "datatoken",
          "type": "address"
        },
        {
          "indexed": false,
          "internalType": "address",
          "name": "exchangeOwner",
          "type": "address"
        },
        {
          "indexed": false,
          "internalType": "uint256",
          "name": "fixedRate",
          "type": "uint256"
        }
      ],
      "name": "ExchangeCreated",
      "type": "event"
    },
    {
      "anonymous": false,
      "inputs": [
        {
          "indexed": true,
          "internalType": "bytes32",
          "name": "exchangeId",
          "type": "bytes32"
        },
        {
          "indexed": true,
          "internalType": "address",
          "name": "exchangeOwner",
          "type": "address"
        }
      ],
      "name": "ExchangeDeactivated",
      "type": "event"
    },
    {
      "anonymous": false,
      "inputs": [
        {
          "indexed": true,
          "internalType": "bytes32",
          "name": "exchangeId",
          "type": "bytes32"
        },
        {
          "indexed": true,
          "internalType": "address",
          "name": "exchangeOwner",
          "type": "address"
        },
        {
          "indexed": false,
          "internalType": "bool",
          "name": "withMint",
          "type": "bool"
        }
      ],
      "name": "ExchangeMintStateChanged",
      "type": "event"
    },
    {
      "anonymous": false,
      "inputs": [
        {
          "indexed": true,
          "internalType": "bytes32",
          "name": "exchangeId",
          "type": "bytes32"
        },
        {
          "indexed": true,
          "internalType": "address",
          "name": "exchangeOwner",
          "type": "address"
        },
        {
          "indexed": false,
          "internalType": "uint256",
          "name": "newRate",
          "type": "uint256"
        }
      ],
      "name": "ExchangeRateChanged",
      "type": "event"
    },
    {
      "anonymous": false,
      "inputs": [
        {
          "indexed": true,
          "internalType": "bytes32",
          "name": "exchangeId",
          "type": "bytes32"
        },
        {
          "indexed": true,
          "internalType": "address",
          "name": "feeToken",
          "type": "address"
        },
        {
          "indexed": false,
          "internalType": "uint256",
          "name": "feeAmount",
          "type": "uint256"
        }
      ],
      "name": "MarketFeeCollected",
      "type": "event"
    },
    {
      "anonymous": false,
      "inputs": [
        {
          "indexed": true,
          "internalType": "bytes32",
          "name": "exchangeId",
          "type": "bytes32"
        },
        {
          "indexed": true,
          "internalType": "address",
          "name": "feeToken",
          "type": "address"
        },
        {
          "indexed": false,
          "internalType": "uint256",
          "name": "feeAmount",
          "type": "uint256"
        }
      ],
      "name": "OceanFeeCollected",
      "type": "event"
    },
    {
      "anonymous": false,
      "inputs": [
        {
          "indexed": true,
          "internalType": "bytes32",
          "name": "exchangeId",
          "type": "bytes32"
        },
        {
          "indexed": false,
          "internalType": "address",
          "name": "caller",
          "type": "address"
        },
        {
          "indexed": false,
          "internalType": "address",
          "name": "newMarketCollector",
          "type": "address"
        },
        {
          "indexed": false,
          "internalType": "uint256",
          "name": "swapFee",
          "type": "uint256"
        }
      ],
      "name": "PublishMarketFeeChanged",
      "type": "event"
    },
    {
      "anonymous": false,
      "inputs": [
        {
          "indexed": true,
          "internalType": "bytes32",
          "name": "exchangeId",
          "type": "bytes32"
        },
        {
          "indexed": false,
          "internalType": "uint256",
          "name": "oceanFeeAmount",
          "type": "uint256"
        },
        {
          "indexed": false,
          "internalType": "uint256",
          "name": "marketFeeAmount",
          "type": "uint256"
        },
        {
          "indexed": false,
          "internalType": "uint256",
          "name": "consumeMarketFeeAmount",
          "type": "uint256"
        },
        {
          "indexed": false,
          "internalType": "address",
          "name": "tokenFeeAddress",
          "type": "address"
        }
      ],
      "name": "SWAP_FEES",
      "type": "event"
    },
    {
      "anonymous": false,
      "inputs": [
        {
          "indexed": true,
          "internalType": "bytes32",
          "name": "exchangeId",
          "type": "bytes32"
        },
        {
          "indexed": true,
          "internalType": "address",
          "name": "by",
          "type": "address"
        },
        {
          "indexed": false,
          "internalType": "uint256",
          "name": "baseTokenSwappedAmount",
          "type": "uint256"
        },
        {
          "indexed": false,
          "internalType": "uint256",
          "name": "datatokenSwappedAmount",
          "type": "uint256"
        },
        {
          "indexed": false,
          "internalType": "address",
          "name": "tokenOutAddress",
          "type": "address"
        },
        {
          "indexed": false,
          "internalType": "uint256",
          "name": "marketFeeAmount",
          "type": "uint256"
        },
        {
          "indexed": false,
          "internalType": "uint256",
          "name": "oceanFeeAmount",
          "type": "uint256"
        },
        {
          "indexed": false,
          "internalType": "uint256",
          "name": "consumeMarketFeeAmount",
          "type": "uint256"
        }
      ],
      "name": "Swapped",
      "type": "event"
    },
    {
      "anonymous": false,
      "inputs": [
        {
          "indexed": true,
          "internalType": "bytes32",
          "name": "exchangeId",
          "type": "bytes32"
        },
        {
          "indexed": true,
          "internalType": "address",
          "name": "to",
          "type": "address"
        },
        {
          "indexed": true,
          "internalType": "address",
          "name": "token",
          "type": "address"
        },
        {
          "indexed": false,
          "internalType": "uint256",
          "name": "amount",
          "type": "uint256"
        }
      ],
      "name": "TokenCollected",
      "type": "event"
    },
    {
      "inputs": [],
      "name": "MAX_FEE",
      "outputs": [
        {
          "internalType": "uint256",
          "name": "",
          "type": "uint256"
        }
      ],
      "stateMutability": "view",
      "type": "function"
    },
    {
      "inputs": [],
      "name": "MIN_FEE",
      "outputs": [
        {
          "internalType": "uint256",
          "name": "",
          "type": "uint256"
        }
      ],
      "stateMutability": "view",
      "type": "function"
    },
    {
      "inputs": [],
      "name": "MIN_RATE",
      "outputs": [
        {
          "internalType": "uint256",
          "name": "",
          "type": "uint256"
        }
      ],
      "stateMutability": "view",
      "type": "function"
    },
    {
      "inputs": [
        {
          "internalType": "bytes32",
          "name": "exchangeId",
          "type": "bytes32"
        },
        {
          "internalType": "uint256",
          "name": "datatokenAmount",
          "type": "uint256"
        },
        {
          "internalType": "uint256",
          "name": "maxBaseTokenAmount",
          "type": "uint256"
        },
        {
          "internalType": "address",
          "name": "consumeMarketAddress",
          "type": "address"
        },
        {
          "internalType": "uint256",
          "name": "consumeMarketSwapFeeAmount",
          "type": "uint256"
        }
      ],
      "name": "buyDT",
      "outputs": [],
      "stateMutability": "nonpayable",
      "type": "function"
    },
    {
      "inputs": [
        {
          "internalType": "bytes32",
          "name": "exchangeId",
          "type": "bytes32"
        },
        {
          "internalType": "uint256",
          "name": "datatokenAmount",
          "type": "uint256"
        },
        {
          "internalType": "uint256",
          "name": "consumeMarketSwapFeeAmount",
          "type": "uint256"
        }
      ],
      "name": "calcBaseInGivenOutDT",
      "outputs": [
        {
          "internalType": "uint256",
          "name": "baseTokenAmount",
          "type": "uint256"
        },
        {
          "internalType": "uint256",
          "name": "oceanFeeAmount",
          "type": "uint256"
        },
        {
          "internalType": "uint256",
          "name": "publishMarketFeeAmount",
          "type": "uint256"
        },
        {
          "internalType": "uint256",
          "name": "consumeMarketFeeAmount",
          "type": "uint256"
        }
      ],
      "stateMutability": "view",
      "type": "function"
    },
    {
      "inputs": [
        {
          "internalType": "bytes32",
          "name": "exchangeId",
          "type": "bytes32"
        },
        {
          "internalType": "uint256",
          "name": "datatokenAmount",
          "type": "uint256"
        },
        {
          "internalType": "uint256",
          "name": "consumeMarketSwapFeeAmount",
          "type": "uint256"
        }
      ],
      "name": "calcBaseOutGivenInDT",
      "outputs": [
        {
          "internalType": "uint256",
          "name": "baseTokenAmount",
          "type": "uint256"
        },
        {
          "internalType": "uint256",
          "name": "oceanFeeAmount",
          "type": "uint256"
        },
        {
          "internalType": "uint256",
          "name": "publishMarketFeeAmount",
          "type": "uint256"
        },
        {
          "internalType": "uint256",
          "name": "consumeMarketFeeAmount",
          "type": "uint256"
        }
      ],
      "stateMutability": "view",
      "type": "function"
    },
    {
      "inputs": [
        {
          "internalType": "bytes32",
          "name": "exchangeId",
          "type": "bytes32"
        }
      ],
      "name": "collectBT",
      "outputs": [],
      "stateMutability": "nonpayable",
      "type": "function"
    },
    {
      "inputs": [
        {
          "internalType": "bytes32",
          "name": "exchangeId",
          "type": "bytes32"
        }
      ],
      "name": "collectDT",
      "outputs": [],
      "stateMutability": "nonpayable",
      "type": "function"
    },
    {
      "inputs": [
        {
          "internalType": "bytes32",
          "name": "exchangeId",
          "type": "bytes32"
        }
      ],
      "name": "collectMarketFee",
      "outputs": [],
      "stateMutability": "nonpayable",
      "type": "function"
    },
    {
      "inputs": [
        {
          "internalType": "bytes32",
          "name": "exchangeId",
          "type": "bytes32"
        }
      ],
      "name": "collectOceanFee",
      "outputs": [],
      "stateMutability": "nonpayable",
      "type": "function"
    },
    {
      "inputs": [
        {
          "internalType": "address",
          "name": "datatoken",
          "type": "address"
        },
        {
          "internalType": "address[]",
          "name": "addresses",
          "type": "address[]"
        },
        {
          "internalType": "uint256[]",
          "name": "uints",
          "type": "uint256[]"
        }
      ],
      "name": "createWithDecimals",
      "outputs": [
        {
          "internalType": "bytes32",
          "name": "exchangeId",
          "type": "bytes32"
        }
      ],
      "stateMutability": "nonpayable",
      "type": "function"
    },
    {
      "inputs": [
        {
          "internalType": "address",
          "name": "baseToken",
          "type": "address"
        },
        {
          "internalType": "address",
          "name": "datatoken",
          "type": "address"
        },
        {
          "internalType": "address",
          "name": "exchangeOwner",
          "type": "address"
        }
      ],
      "name": "generateExchangeId",
      "outputs": [
        {
          "internalType": "bytes32",
          "name": "",
          "type": "bytes32"
        }
      ],
      "stateMutability": "pure",
      "type": "function"
    },
    {
      "inputs": [
        {
          "internalType": "bytes32",
          "name": "exchangeId",
          "type": "bytes32"
        }
      ],
      "name": "getAllowedSwapper",
      "outputs": [
        {
          "internalType": "address",
          "name": "allowedSwapper",
          "type": "address"
        }
      ],
      "stateMutability": "view",
      "type": "function"
    },
    {
      "inputs": [
        {
          "internalType": "bytes32",
          "name": "exchangeId",
          "type": "bytes32"
        }
      ],
      "name": "getBTSupply",
      "outputs": [
        {
          "internalType": "uint256",
          "name": "supply",
          "type": "uint256"
        }
      ],
      "stateMutability": "view",
      "type": "function"
    },
    {
      "inputs": [
        {
          "internalType": "bytes32",
          "name": "exchangeId",
          "type": "bytes32"
        }
      ],
      "name": "getDTSupply",
      "outputs": [
        {
          "internalType": "uint256",
          "name": "supply",
          "type": "uint256"
        }
      ],
      "stateMutability": "view",
      "type": "function"
    },
    {
      "inputs": [
        {
          "internalType": "bytes32",
          "name": "exchangeId",
          "type": "bytes32"
        }
      ],
      "name": "getExchange",
      "outputs": [
        {
          "internalType": "address",
          "name": "exchangeOwner",
          "type": "address"
        },
        {
          "internalType": "address",
          "name": "datatoken",
          "type": "address"
        },
        {
          "internalType": "uint256",
          "name": "dtDecimals",
          "type": "uint256"
        },
        {
          "internalType": "address",
          "name": "baseToken",
          "type": "address"
        },
        {
          "internalType": "uint256",
          "name": "btDecimals",
          "type": "uint256"
        },
        {
          "internalType": "uint256",
          "name": "fixedRate",
          "type": "uint256"
        },
        {
          "internalType": "bool",
          "name": "active",
          "type": "bool"
        },
        {
          "internalType": "uint256",
          "name": "dtSupply",
          "type": "uint256"
        },
        {
          "internalType": "uint256",
          "name": "btSupply",
          "type": "uint256"
        },
        {
          "internalType": "uint256",
          "name": "dtBalance",
          "type": "uint256"
        },
        {
          "internalType": "uint256",
          "name": "btBalance",
          "type": "uint256"
        },
        {
          "internalType": "bool",
          "name": "withMint",
          "type": "bool"
        }
      ],
      "stateMutability": "view",
      "type": "function"
    },
    {
      "inputs": [],
      "name": "getExchanges",
      "outputs": [
        {
          "internalType": "bytes32[]",
          "name": "",
          "type": "bytes32[]"
        }
      ],
      "stateMutability": "view",
      "type": "function"
    },
    {
      "inputs": [
        {
          "internalType": "bytes32",
          "name": "exchangeId",
          "type": "bytes32"
        }
      ],
      "name": "getFeesInfo",
      "outputs": [
        {
          "internalType": "uint256",
          "name": "marketFee",
          "type": "uint256"
        },
        {
          "internalType": "address",
          "name": "marketFeeCollector",
          "type": "address"
        },
        {
          "internalType": "uint256",
          "name": "opcFee",
          "type": "uint256"
        },
        {
          "internalType": "uint256",
          "name": "marketFeeAvailable",
          "type": "uint256"
        },
        {
          "internalType": "uint256",
          "name": "oceanFeeAvailable",
          "type": "uint256"
        }
      ],
      "stateMutability": "view",
      "type": "function"
    },
    {
      "inputs": [],
      "name": "getId",
      "outputs": [
        {
          "internalType": "uint8",
          "name": "",
          "type": "uint8"
        }
      ],
      "stateMutability": "pure",
      "type": "function"
    },
    {
      "inputs": [
        {
          "internalType": "bytes32",
          "name": "exchangeId",
          "type": "bytes32"
        }
      ],
      "name": "getMarketFee",
      "outputs": [
        {
          "internalType": "uint256",
          "name": "",
          "type": "uint256"
        }
      ],
      "stateMutability": "view",
      "type": "function"
    },
    {
      "inputs": [],
      "name": "getNumberOfExchanges",
      "outputs": [
        {
          "internalType": "uint256",
          "name": "",
          "type": "uint256"
        }
      ],
      "stateMutability": "view",
      "type": "function"
    },
    {
      "inputs": [
        {
          "internalType": "address",
          "name": "baseTokenAddress",
          "type": "address"
        }
      ],
      "name": "getOPCFee",
      "outputs": [
        {
          "internalType": "uint256",
          "name": "",
          "type": "uint256"
        }
      ],
      "stateMutability": "view",
      "type": "function"
    },
    {
      "inputs": [
        {
          "internalType": "bytes32",
          "name": "exchangeId",
          "type": "bytes32"
        }
      ],
      "name": "getRate",
      "outputs": [
        {
          "internalType": "uint256",
          "name": "",
          "type": "uint256"
        }
      ],
      "stateMutability": "view",
      "type": "function"
    },
    {
      "inputs": [
        {
          "internalType": "bytes32",
          "name": "exchangeId",
          "type": "bytes32"
        }
      ],
      "name": "isActive",
      "outputs": [
        {
          "internalType": "bool",
          "name": "",
          "type": "bool"
        }
      ],
      "stateMutability": "view",
      "type": "function"
    },
    {
      "inputs": [],
      "name": "opcCollector",
      "outputs": [
        {
          "internalType": "address",
          "name": "",
          "type": "address"
        }
      ],
      "stateMutability": "view",
      "type": "function"
    },
    {
      "inputs": [],
      "name": "router",
      "outputs": [
        {
          "internalType": "address",
          "name": "",
          "type": "address"
        }
      ],
      "stateMutability": "view",
      "type": "function"
    },
    {
      "inputs": [
        {
          "internalType": "bytes32",
          "name": "exchangeId",
          "type": "bytes32"
        },
        {
          "internalType": "uint256",
          "name": "datatokenAmount",
          "type": "uint256"
        },
        {
          "internalType": "uint256",
          "name": "minBaseTokenAmount",
          "type": "uint256"
        },
        {
          "internalType": "address",
          "name": "consumeMarketAddress",
          "type": "address"
        },
        {
          "internalType": "uint256",
          "name": "consumeMarketSwapFeeAmount",
          "type": "uint256"
        }
      ],
      "name": "sellDT",
      "outputs": [],
      "stateMutability": "nonpayable",
      "type": "function"
    },
    {
      "inputs": [
        {
          "internalType": "bytes32",
          "name": "exchangeId",
          "type": "bytes32"
        },
        {
          "internalType": "address",
          "name": "newAllowedSwapper",
          "type": "address"
        }
      ],
      "name": "setAllowedSwapper",
      "outputs": [],
      "stateMutability": "nonpayable",
      "type": "function"
    },
    {
      "inputs": [
        {
          "internalType": "bytes32",
          "name": "exchangeId",
          "type": "bytes32"
        },
        {
          "internalType": "uint256",
          "name": "newRate",
          "type": "uint256"
        }
      ],
      "name": "setRate",
      "outputs": [],
      "stateMutability": "nonpayable",
      "type": "function"
    },
    {
      "inputs": [
        {
          "internalType": "bytes32",
          "name": "exchangeId",
          "type": "bytes32"
        }
      ],
      "name": "toggleExchangeState",
      "outputs": [],
      "stateMutability": "nonpayable",
      "type": "function"
    },
    {
      "inputs": [
        {
          "internalType": "bytes32",
          "name": "exchangeId",
          "type": "bytes32"
        },
        {
          "internalType": "bool",
          "name": "withMint",
          "type": "bool"
        }
      ],
      "name": "toggleMintState",
      "outputs": [],
      "stateMutability": "nonpayable",
      "type": "function"
    },
    {
      "inputs": [
        {
          "internalType": "bytes32",
          "name": "exchangeId",
          "type": "bytes32"
        },
        {
          "internalType": "uint256",
          "name": "_newMarketFee",
          "type": "uint256"
        }
      ],
      "name": "updateMarketFee",
      "outputs": [],
      "stateMutability": "nonpayable",
      "type": "function"
    },
    {
      "inputs": [
        {
          "internalType": "bytes32",
          "name": "exchangeId",
          "type": "bytes32"
        },
        {
          "internalType": "address",
          "name": "_newMarketCollector",
          "type": "address"
        }
      ],
      "name": "updateMarketFeeCollector",
      "outputs": [],
      "stateMutability": "nonpayable",
      "type": "function"
    }
  ],
  "bytecode": "0x60806040523480156200001157600080fd5b5060405162003c1c38038062003c1c833981016040819052620000349162000158565b60016000556001600160a01b038216620000a55760405162461bcd60e51b815260206004820152602760248201527f46697865645261746545786368616e67653a2057726f6e6720526f75746572206044820152666164647265737360c81b60648201526084015b60405180910390fd5b6001600160a01b038116620001095760405162461bcd60e51b8152602060048201526024808201527f46697865645261746545786368616e67653a2057726f6e67204f5043206164646044820152637265737360e01b60648201526084016200009c565b600180546001600160a01b039384166001600160a01b0319918216179091556002805492909316911617905562000190565b80516001600160a01b03811681146200015357600080fd5b919050565b600080604083850312156200016c57600080fd5b62000177836200013b565b915062000187602084016200013b565b90509250929050565b613a7c80620001a06000396000f3fe608060405234801561001057600080fd5b50600436106101fb5760003560e01c806379dd28361161011a578063b8421e2b116100ad578063c66274ea1161007c578063c66274ea146105ef578063d819bfef14610602578063dd1bc96a1461060e578063f532129e14610621578063f887ea401461063457600080fd5b8063b8421e2b1461058e578063bc063e1a146105a1578063c1f6572e146105a9578063c2c0d1ab146105bc57600080fd5b806388823872116100e9578063888238721461053c578063b32b56f91461054f578063b424142914610573578063b686bcaf1461057b57600080fd5b806379dd28361461041b5780637c82ebe91461042e578063855058dd1461044157806385fcbc2f1461052957600080fd5b806350d571d51161019257806360311e951161016157806360311e95146103da578063680819eb146103ed57806368c4b7e91461040057806376c7a3c71461041357600080fd5b806350d571d5146103725780635acfedc7146103855780635c36901c146103985780635d1ca631146103cb57600080fd5b806324cb477e116101ce57806324cb477e146102a95780632e7e23b3146102be578063450dccc3146102e15780634c87087d146102f457600080fd5b8063012c32751461020057806303814238146102265780630b3b430d146102515780631e2e3a6b14610294575b600080fd5b61021361020e3660046133ed565b610647565b6040519081526020015b60405180910390f35b600254610239906001600160a01b031681565b6040516001600160a01b03909116815260200161021d565b61026461025f3660046134bf565b610f35565b604080519586526001600160a01b039094166020860152928401919091526060830152608082015260a00161021d565b61029c61103f565b60405161021d91906134d8565b6102bc6102b73660046134bf565b611097565b005b6102136102cc3660046134bf565b60009081526003602052604090206008015490565b6102bc6102ef3660046134bf565b611176565b6103076103023660046134bf565b611282565b604080516001600160a01b039d8e1681529b8d1660208d01528b0199909952999096166060890152608088019490945260a0870192909252151560c086015260e08501526101008401526101208301526101408201929092529015156101608201526101800161021d565b6102bc61038036600461351c565b6113a9565b6102bc6103933660046134bf565b6118eb565b6103bb6103a63660046134bf565b60009081526003602052604090205460ff1690565b604051901515815260200161021d565b6040516001815260200161021d565b6102bc6103e8366004613563565b6119a6565b6102bc6103fb36600461358f565b611a48565b6102bc61040e36600461351c565b611b35565b610213612140565b6102bc6104293660046135c2565b612157565b6102bc61043c366004613563565b6121e9565b61023961044f3660046134bf565b60009081526003602081815260409283902083516101e081018552815460ff808216151583526001600160a01b03610100928390048116958401959095526001840154851696830196909652600283015484166060830152938201546080820152600482015460a0820152600582015460c0820152600682015460e0820152600782015484820152600882015461012082015260098201548316610140820152600a820154610160820152600b820154610180820152600c9091015493841615156101a0820152919092049091166101c090910181905290565b6102136105373660046134bf565b6122bc565b6102bc61054a36600461358f565b612443565b61021361055d3660046134bf565b6000908152600360208190526040909120015490565b600454610213565b6102bc6105893660046134bf565b6125b2565b61021361059c3660046135f2565b612663565b6102136126d8565b6102136105b736600461360d565b6126eb565b6105cf6105ca366004613650565b612737565b60408051948552602085019390935291830152606082015260800161021d565b6102136105fd3660046134bf565b6128c8565b6102136402540be40081565b6105cf61061c366004613650565b612bda565b6102bc61062f3660046134bf565b612d3d565b600154610239906001600160a01b031681565b6001546000906001600160a01b031633146106a95760405162461bcd60e51b815260206004820152601e60248201527f46697865645261746545786368616e67653a206f6e6c7920726f75746572000060448201526064015b60405180910390fd5b60006001600160a01b0316836000815181106106c7576106c761367c565b60200260200101516001600160a01b031614156107425760405162461bcd60e51b815260206004820152603360248201527f46697865645261746545786368616e67653a20496e76616c69642062617365546044820152726f6b656e2c20207a65726f206164647265737360681b60648201526084016106a0565b6001600160a01b0384166107b45760405162461bcd60e51b815260206004820152603360248201527f46697865645261746545786368616e67653a20496e76616c69642064617461746044820152726f6b656e2c20207a65726f206164647265737360681b60648201526084016106a0565b836001600160a01b0316836000815181106107d1576107d161367c565b60200260200101516001600160a01b031614156108565760405162461bcd60e51b815260206004820152603760248201527f46697865645261746545786368616e67653a20496e76616c696420646174617460448201527f6f6b656e2c2020657175616c732062617365546f6b656e00000000000000000060648201526084016106a0565b6402540be4008260028151811061086f5761086f61367c565b602002602001015110156108dc5760405162461bcd60e51b815260206004820152602e60248201527f46697865645261746545786368616e67653a20496e76616c696420657863686160448201526d6e676520726174652076616c756560901b60648201526084016106a0565b61091b836000815181106108f2576108f261367c565b6020026020010151858560018151811061090e5761090e61367c565b60200260200101516126eb565b60008181526003602081905260409091200154909150156109925760405162461bcd60e51b815260206004820152602b60248201527f46697865645261746545786368616e67653a2045786368616e676520616c726560448201526a616479206578697374732160a81b60648201526084016106a0565b600060019050826004815181106109ab576109ab61367c565b6020026020010151600014156109bf575060005b604051806101e00160405280600115158152602001856001815181106109e7576109e761367c565b60200260200101516001600160a01b03168152602001866001600160a01b0316815260200185600081518110610a1f57610a1f61367c565b60200260200101516001600160a01b0316815260200184600281518110610a4857610a4861367c565b6020026020010151815260200184600181518110610a6857610a6861367c565b6020026020010151815260200184600081518110610a8857610a8861367c565b60200260200101518152602001600081526020016000815260200184600381518110610ab657610ab661367c565b6020026020010151815260200185600281518110610ad657610ad661367c565b60200260200101516001600160a01b031681526020016000815260200160008152602001821515815260200185600381518110610b1557610b1561367c565b6020908102919091018101516001600160a01b039081169092526000858152600380835260409182902085518154948701518616610100908102610100600160a81b031992151583166001600160a81b031997881617178355938701516001830180549188166001600160a01b0319928316179055606088015160028401805491891691831691909117905560808801518385015560a0880151600484015560c0880151600584015560e08801516006840155848801516007840155610120880151600884015561014088015160098401805491891691909216179055610160870151600a830155610180870151600b8301556101a0870151600c90920180546101c090980151909616909302901515909216949092169390931792909217905583518491908110610c4957610c4961367c565b602002602001015160001480610c8c5750610c6e612710670de0b6b3a76400006136a8565b83600381518110610c8157610c8161367c565b602002602001015110155b610cca5760405162461bcd60e51b815260206004820152600f60248201526e5377617046656520746f6f206c6f7760881b60448201526064016106a0565b610cdd600a670de0b6b3a76400006136a8565b83600381518110610cf057610cf061367c565b60200260200101511115610d395760405162461bcd60e51b815260206004820152601060248201526f0a6eec2e08ccaca40e8dede40d0d2ced60831b60448201526064016106a0565b6004805460018101825560009182527f8a35acfbc15ff81a39ae7d344fd709f28e8600b4aa8c65c6b64bfe7fe36bd19b0183905584516001600160a01b038716918691610d8857610d8861367c565b60200260200101516001600160a01b0316837feb7a353641f7d3cc54b497ef1553fdc292b64d9cc3be8587c23dfba01f310b1987600181518110610dce57610dce61367c565b602002602001015187600281518110610de957610de961367c565b6020026020010151604051610e139291906001600160a01b03929092168252602082015260400190565b60405180910390a483600181518110610e2e57610e2e61367c565b60200260200101516001600160a01b0316827fc7344c45124818d1d3a4c24ccb9b86d8b88d3bd05209b2a42b494cb32a50352960405160405180910390a383600381518110610e7f57610e7f61367c565b60200260200101516001600160a01b0316827fcc1b4af8292e6b938f6743c78a62317c9a2d60e0d46b77776a027e53ce617c0c60405160405180910390a3817f1bf3af41af5ef4ea33bbeffb18acd246aae76d6f03bdb54916577c2e1ab03d523386600281518110610ef357610ef361367c565b602002602001015186600381518110610f0e57610f0e61367c565b6020026020010151604051610f25939291906136ca565b60405180910390a2509392505050565b600081815260036020818152604080842081516101e081018352815460ff808216151583526001600160a01b036101009283900481168488015260018501548116958401959095526002840154851660608401819052848801546080850152600485015460a0850152600585015460c0850152600685015460e085015260078501548385015260088501546101208501819052600986015487166101408601819052600a870154610160870152600b870154610180870152600c9096015492831615156101a0860152929091049094166101c083015287875294909352929391829182919061102390612663565b9350806101600151925080610180015191505091939590929450565b6060600480548060200260200160405190810160405280929190818152602001828054801561108d57602002820191906000526020600020905b815481526020019060010190808311611079575b5050505050905090565b600081815260036020526040902054819061010090046001600160a01b031633146110d45760405162461bcd60e51b81526004016106a0906136ee565b60008281526003602052604090205460ff161561112f57600082815260036020526040808220805460ff1916905551339184917f03da9148e1de78fba22de63c573465562ebf6ef878a1d3ea83790a560229984c9190a35050565b600082815260036020526040808220805460ff1916600117905551339184917fc7344c45124818d1d3a4c24ccb9b86d8b88d3bd05209b2a42b494cb32a5035299190a35050565b600081815260036020526040902054819061010090046001600160a01b031633146111b35760405162461bcd60e51b81526004016106a0906136ee565b600260005414156111d65760405162461bcd60e51b81526004016106a090613737565b600260009081558281526003602052604081206006810180549290558054600190910154611217916001600160a01b03918216916101009091041683612e39565b6000838152600360209081526040918290206001810154905492518481526001600160a01b039182169361010090049091169186917fecc75f4464886bee0a1c5eae61c0cb4b99c64c5e9cdebe3696217d266f8b163691015b60405180910390a45050600160005550565b600081815260036020818152604080842081516101e081018352815460ff80821615158084526001600160a01b036101009384900481169785018890526001860154811696850187905260028601548116606086018190529886015460808601819052600487015460a08701819052600588015460c08801819052600689015460e0890152600789015487890152600889015461012089015260098901548416610140890152600a890154610160890152600b890154610180890152600c9098015494851615156101a088015294909304166101c08501529597949691959194909281908190819081906113758e6128c8565b95506113808e6122bc565b94508060e0015193508061010001519250806101a0015191505091939597999b5091939597999b565b600085815260036020526040902054859060ff166113d95760405162461bcd60e51b81526004016106a09061376e565b600260005414156113fc5760405162461bcd60e51b81526004016106a090613737565b60026000558461141e5760405162461bcd60e51b81526004016106a0906137b9565b81158061143e575061143a612710670de0b6b3a76400006136a8565b8210155b6114835760405162461bcd60e51b8152602060048201526016602482015275436f6e73756d655377617046656520746f6f206c6f7760501b60448201526064016106a0565b611496600a670de0b6b3a76400006136a8565b8211156114df5760405162461bcd60e51b8152602060048201526017602482015276086dedce6eadacaa6eec2e08ccaca40e8dede40d0d2ced604b1b60448201526064016106a0565b6000868152600360205260409020600c015461010090046001600160a01b031615611542576000868152600360205260409020600c015461010090046001600160a01b031633146115425760405162461bcd60e51b81526004016106a090613801565b6040805160808101825260008082526020820181905291810182905260608101919091526001600160a01b03841661157957600092505b611584878785612737565b6060850152604084015260208301528082528511156115f45760405162461bcd60e51b815260206004820152602660248201527f46697865645261746545786368616e67653a20546f6f20666577206261736520604482015265746f6b656e7360d01b60648201526084016106a0565b602080820151600089815260039092526040909120600b015461161691612ea1565b60008881526003602052604090819020600b810192909255820151600a9091015461164091612ea1565b60036000898152602001908152602001600020600a0181905550600061168d8260600151611687846040015161168786602001518760000151612ea190919063ffffffff16565b90612ea1565b6000898152600360205260409020600101549091506116b7906001600160a01b031633308a612ead565b6000888152600360205260409020600601546116d39088612ea1565b600089815260036020526040902060068101919091556007015481111561175657600088815260036020526040902060028101549054611726916001600160a01b03908116916101009004163084612ead565b8151600089815260036020526040902060020154611751916001600160a01b03909116903390612e39565b6117a7565b6000888152600360205260409020600701546117729082612ffb565b6000898152600360205260409020600781019190915582516002909101546117a7916001600160a01b03909116903390612e39565b6001600160a01b038516158015906117c3575060008260600151115b156118565760608201516000898152600360205260409020600201546117f6916001600160a01b03909116908790612e39565b6000888152600360205260409081902060020154606084015191518a927f086a8edf7ac99098be3ce56ba76ae3e5a1e212fed5f803fc3167990fa03079b99261184d928a926001600160a01b0390921691906136ca565b60405180910390a25b815160008981526003602090815260409182902060020154828601518287015160608089015186519788529487018e90526001600160a01b039093169486019490945290840152608083019190915260a0820152339089907f7b072645ce5b6a2fc627a544edee544b786747cafd1bb8f0e3238aa5f2e806469060c0015b60405180910390a350506001600055505050505050565b6002600054141561190e5760405162461bcd60e51b81526004016106a090613737565b60026000818155828152600360205260408120600b8101805492905582549201549091611948916001600160a01b03908116911683612e39565b6000828152600360209081526040918290206002015491518381526001600160a01b039092169184917f457b44fd47c33fc65bfbd58d0202ad97fbed1bbc9881f56441d05fe9ebd58acf91015b60405180910390a350506001600055565b600082815260036020526040902054829061010090046001600160a01b031633146119e35760405162461bcd60e51b81526004016106a0906136ee565b600083815260036020526040808220600c018054610100600160a81b0319166101006001600160a01b038716908102919091179091559051909185917fcc1b4af8292e6b938f6743c78a62317c9a2d60e0d46b77776a027e53ce617c0c9190a3505050565b600082815260036020526040902054829061010090046001600160a01b03163314611a855760405162461bcd60e51b81526004016106a0906136ee565b81611ade5760405162461bcd60e51b815260206004820152602360248201527f46697865645261746545786368616e67653a20526174696f206d7573742062656044820152620203e360ec1b60648201526084016106a0565b6000838152600360208190526040918290200183905551339084907fe50f9919fdc524004a4ee0cb934f4734f144bec0713a52e5483b753f5de0f08c90611b289086815260200190565b60405180910390a3505050565b600085815260036020526040902054859060ff16611b655760405162461bcd60e51b81526004016106a09061376e565b60026000541415611b885760405162461bcd60e51b81526004016106a090613737565b600260005584611baa5760405162461bcd60e51b81526004016106a0906137b9565b811580611bca5750611bc6612710670de0b6b3a76400006136a8565b8210155b611c0f5760405162461bcd60e51b8152602060048201526016602482015275436f6e73756d655377617046656520746f6f206c6f7760501b60448201526064016106a0565b611c22600a670de0b6b3a76400006136a8565b821115611c6b5760405162461bcd60e51b8152602060048201526017602482015276086dedce6eadacaa6eec2e08ccaca40e8dede40d0d2ced604b1b60448201526064016106a0565b6000868152600360205260409020600c015461010090046001600160a01b031615611cce576000868152600360205260409020600c015461010090046001600160a01b03163314611cce5760405162461bcd60e51b81526004016106a090613801565b6001600160a01b038316611ce157600091505b6000604051806080016040528060008152602001600081526020016000815260200160008152509050611d15878785612bda565b606085015260408401526020830152808252851015611d865760405162461bcd60e51b815260206004820152602760248201527f46697865645261746545786368616e67653a20546f6f206d616e79206261736560448201526620746f6b656e7360c81b60648201526084016106a0565b602080820151600089815260039092526040909120600b0154611da891612ea1565b60008881526003602052604090819020600b810192909255820151600a90910154611dd291612ea1565b6000888152600360205260409020600a810191909155600201548151611e05916001600160a01b03169033903090612ead565b6000611e388260600151611e328460400151611e3286602001518760000151612ffb90919063ffffffff16565b90612ffb565b600089815260036020526040902060070154909150611e579082612ea1565b6000898152600360205260409020600781019190915560060154871115611fc5576000888152600360205260409020600c015460ff168015611f105750600088815260036020526040908190206001015490516355138f0d60e11b81523060048201526001600160a01b039091169063aa271e1a90602401602060405180830381865afa158015611eec573d6000803e3d6000fd5b505050506040513d601f19601f82011682018060405250810190611f109190613857565b15611f8e57600088815260036020526040908190206001015490516340c10f1960e01b8152336004820152602481018990526001600160a01b03909116906340c10f1990604401600060405180830381600087803b158015611f7157600080fd5b505af1158015611f85573d6000803e3d6000fd5b5050505061200f565b600088815260036020526040902060018101549054611fc0916001600160a01b0390811691610100900416338a612ead565b61200f565b600088815260036020526040902060060154611fe19088612ffb565b600089815260036020526040902060068101919091556001015461200f906001600160a01b03163389612e39565b6001600160a01b0385161580159061202b575060008260600151115b156120be57606082015160008981526003602052604090206002015461205e916001600160a01b03909116908790612e39565b6000888152600360205260409081902060020154606084015191518a927f086a8edf7ac99098be3ce56ba76ae3e5a1e212fed5f803fc3167990fa03079b9926120b5928a926001600160a01b0390921691906136ca565b60405180910390a25b815160008981526003602090815260409182902060010154828601518287015160608089015186519788529487018e90526001600160a01b039093169486019490945290840152608083019190915260a0820152339089907f7b072645ce5b6a2fc627a544edee544b786747cafd1bb8f0e3238aa5f2e806469060c0016118d4565b612154612710670de0b6b3a76400006136a8565b81565b600082815260036020526040902054829061010090046001600160a01b031633146121945760405162461bcd60e51b81526004016106a0906136ee565b600083815260036020908152604091829020600c01805460ff19168515159081179091559151918252339185917fe28e899e0f5d6fba0c8d73d1888083bcc62d4d9806d2e26fcf1f607c3ed52f539101611b28565b6000828152600360205260409020600901546001600160a01b0316331461224b5760405162461bcd60e51b81526020600482015260166024820152753737ba1036b0b935b2ba2332b2a1b7b63632b1ba37b960511b60448201526064016106a0565b600082815260036020526040908190206009810180546001600160a01b0319166001600160a01b03851617905560080154905183917f1bf3af41af5ef4ea33bbeffb18acd246aae76d6f03bdb54916577c2e1ab03d52916122b09133918691906136ca565b60405180910390a25050565b60008181526003602052604081205460ff166122da57506000919050565b6000828152600360205260408082206002810154905491516370a0823160e01b81526101009092046001600160a01b03908116600484015216906370a0823190602401602060405180830381865afa15801561233a573d6000803e3d6000fd5b505050506040513d601f19601f8201168201806040525081019061235e9190613874565b600084815260036020526040808220600281015490549151636eb1769f60e11b81526001600160a01b0361010090930483166004820152306024820152939450919291169063dd62ed3e90604401602060405180830381865afa1580156123c9573d6000803e3d6000fd5b505050506040513d601f19601f820116820180604052508101906123ed9190613874565b90508082101561241b57600084815260036020526040902060070154612414908390612ea1565b925061243b565b600084815260036020526040902060070154612438908290612ea1565b92505b50505b919050565b6000828152600360205260409020600901546001600160a01b031633146124a55760405162461bcd60e51b81526020600482015260166024820152753737ba1036b0b935b2ba2332b2a1b7b63632b1ba37b960511b60448201526064016106a0565b8015806124c557506124c1612710670de0b6b3a76400006136a8565b8110155b6125035760405162461bcd60e51b815260206004820152600f60248201526e5377617046656520746f6f206c6f7760881b60448201526064016106a0565b612516600a670de0b6b3a76400006136a8565b8111156125585760405162461bcd60e51b815260206004820152601060248201526f0a6eec2e08ccaca40e8dede40d0d2ced60831b60448201526064016106a0565b600082815260036020526040908190206008810183905560090154905183917f1bf3af41af5ef4ea33bbeffb18acd246aae76d6f03bdb54916577c2e1ab03d52916122b09133916001600160a01b039091169086906136ca565b600260005414156125d55760405162461bcd60e51b81526004016106a090613737565b60026000818155828152600360205260408120600a8101805492905560098101549201549091612612916001600160a01b03908116911683612e39565b6000828152600360209081526040918290206002015491518381526001600160a01b039092169184917f192a3cd95e40313e0e12c28b398e31633936e38d134419161f883c8d640790559101611995565b60015460405163b8421e2b60e01b81526001600160a01b038381166004830152600092169063b8421e2b90602401602060405180830381865afa1580156126ae573d6000803e3d6000fd5b505050506040513d601f19601f820116820180604052508101906126d29190613874565b92915050565b612154600a670de0b6b3a76400006136a8565b604080516001600160a01b0380861660208301528085169282019290925290821660608201526000906080016040516020818303038152906040528051906020012090505b9392505050565b600083815260036020526040812054819081908190879060ff1661276d5760405162461bcd60e51b81526004016106a09061376e565b60006127798989613007565b6040805160808101825260008082526020808301829052828401829052606083018290528d82526003905291822060020154929350916127c1906001600160a01b0316612663565b905080156127ef576127e5670de0b6b3a76400006127df8584613077565b90613083565b60208301526127f7565b600060208301525b60008b815260036020526040902060080154156128435760008b81526003602052604090206008015461283990670de0b6b3a7640000906127df908690613077565b604083015261284b565b600060408301525b881561287157612867670de0b6b3a76400006127df858c613077565b6060830152612879565b600060608301525b6128a08260600151611e328460200151611e32866040015188612ffb90919063ffffffff16565b80835260208301516040840151606090940151919d909c50929a509850909650505050505050565b60008181526003602052604081205460ff166128e657506000919050565b6000828152600360205260409020600c015460ff16801561297e5750600082815260036020526040908190206001015490516355138f0d60e11b81523060048201526001600160a01b039091169063aa271e1a90602401602060405180830381865afa15801561295a573d6000803e3d6000fd5b505050506040513d601f19601f8201168201806040525081019061297e9190613857565b15612a83576000828152600360209081526040918290206001015482516318160ddd60e01b815292516001600160a01b03909116926318160ddd9260048083019391928290030181865afa1580156129da573d6000803e3d6000fd5b505050506040513d601f19601f820116820180604052508101906129fe9190613874565b600083815260036020908152604091829020600101548251631aa93a7560e11b815292516001600160a01b039091169263355274ea9260048083019391928290030181865afa158015612a55573d6000803e3d6000fd5b505050506040513d601f19601f82011682018060405250810190612a799190613874565b6126d2919061388d565b6000828152600360205260408082206001810154905491516370a0823160e01b81526101009092046001600160a01b03908116600484015216906370a0823190602401602060405180830381865afa158015612ae3573d6000803e3d6000fd5b505050506040513d601f19601f82011682018060405250810190612b079190613874565b600084815260036020526040808220600181015490549151636eb1769f60e11b81526001600160a01b0361010090930483166004820152306024820152939450919291169063dd62ed3e90604401602060405180830381865afa158015612b72573d6000803e3d6000fd5b505050506040513d601f19601f82011682018060405250810190612b969190613874565b905080821015612bbd57600084815260036020526040902060060154612414908390612ea1565b600084815260036020526040902060060154612438908290612ea1565b600083815260036020526040812054819081908190879060ff16612c105760405162461bcd60e51b81526004016106a09061376e565b6000612c1c8989613007565b6040805160808101825260008082526020808301829052828401829052606083018290528d8252600390529182206002015492935091612c64906001600160a01b0316612663565b90508015612c8c57612c82670de0b6b3a76400006127df8584613077565b6020830152612c94565b600060208301525b60008b81526003602052604090206008015415612ce05760008b815260036020526040902060080154612cd690670de0b6b3a7640000906127df908690613077565b6040830152612ce8565b600060408301525b8815612d0e57612d04670de0b6b3a76400006127df858c613077565b6060830152612d16565b600060608301525b6128a082606001516116878460200151611687866040015188612ea190919063ffffffff16565b600081815260036020526040902054819061010090046001600160a01b03163314612d7a5760405162461bcd60e51b81526004016106a0906136ee565b60026000541415612d9d5760405162461bcd60e51b81526004016106a090613737565b6002600081815583815260036020526040812060078101805492905580549201549091612ddc916001600160a01b039081169161010090041683612e39565b6000838152600360209081526040918290206002810154905492518481526001600160a01b039182169361010090049091169186917fecc75f4464886bee0a1c5eae61c0cb4b99c64c5e9cdebe3696217d266f8b16369101611270565b6040516001600160a01b038316602482015260448101829052612e9c90849063a9059cbb60e01b906064015b60408051601f198184030181529190526020810180516001600160e01b03166001600160e01b03199093169290921790915261308f565b505050565b600061273082846138a4565b6040516370a0823160e01b81526001600160a01b038381166004830152600091908616906370a0823190602401602060405180830381865afa158015612ef7573d6000803e3d6000fd5b505050506040513d601f19601f82011682018060405250810190612f1b9190613874565b9050612f326001600160a01b038616858585613161565b612f3c8183612ea1565b6040516370a0823160e01b81526001600160a01b0385811660048301528716906370a0823190602401602060405180830381865afa158015612f82573d6000803e3d6000fd5b505050506040513d601f19601f82011682018060405250810190612fa69190613874565b1015612ff45760405162461bcd60e51b815260206004820152601a60248201527f5472616e7366657220616d6f756e7420697320746f6f206c6f7700000000000060448201526064016106a0565b5050505050565b6000612730828461388d565b60008281526003602052604081206004015461273090670de0b6b3a7640000906127df9061303690600a6139a0565b6000878152600360205260409020600501546127df9061305790600a6139a0565b60008981526003602081905260409091200154613075908990613077565b905b600061273082846139ac565b600061273082846136a8565b60006130e4826040518060400160405280602081526020017f5361666545524332303a206c6f772d6c6576656c2063616c6c206661696c6564815250856001600160a01b03166131889092919063ffffffff16565b805190915015612e9c57808060200190518101906131029190613857565b612e9c5760405162461bcd60e51b815260206004820152602a60248201527f5361666545524332303a204552433230206f7065726174696f6e20646964206e6044820152691bdd081cdd58d8d9595960b21b60648201526084016106a0565b613182846323b872dd60e01b858585604051602401612e65939291906136ca565b50505050565b6060613197848460008561319f565b949350505050565b6060824710156132005760405162461bcd60e51b815260206004820152602660248201527f416464726573733a20696e73756666696369656e742062616c616e636520666f6044820152651c8818d85b1b60d21b60648201526084016106a0565b843b61324e5760405162461bcd60e51b815260206004820152601d60248201527f416464726573733a2063616c6c20746f206e6f6e2d636f6e747261637400000060448201526064016106a0565b600080866001600160a01b0316858760405161326a91906139f7565b60006040518083038185875af1925050503d80600081146132a7576040519150601f19603f3d011682016040523d82523d6000602084013e6132ac565b606091505b50915091506132bc8282866132c7565b979650505050505050565b606083156132d6575081612730565b8251156132e65782518084602001fd5b8160405162461bcd60e51b81526004016106a09190613a13565b80356001600160a01b038116811461243e57600080fd5b634e487b7160e01b600052604160045260246000fd5b604051601f8201601f1916810167ffffffffffffffff8111828210171561335657613356613317565b604052919050565b600067ffffffffffffffff82111561337857613378613317565b5060051b60200190565b600082601f83011261339357600080fd5b813560206133a86133a38361335e565b61332d565b82815260059290921b840181019181810190868411156133c757600080fd5b8286015b848110156133e257803583529183019183016133cb565b509695505050505050565b60008060006060848603121561340257600080fd5b61340b84613300565b925060208085013567ffffffffffffffff8082111561342957600080fd5b818701915087601f83011261343d57600080fd5b813561344b6133a38261335e565b81815260059190911b8301840190848101908a83111561346a57600080fd5b938501935b8285101561348f5761348085613300565b8252938501939085019061346f565b9650505060408701359250808311156134a757600080fd5b50506134b586828701613382565b9150509250925092565b6000602082840312156134d157600080fd5b5035919050565b6020808252825182820181905260009190848201906040850190845b81811015613510578351835292840192918401916001016134f4565b50909695505050505050565b600080600080600060a0868803121561353457600080fd5b85359450602086013593506040860135925061355260608701613300565b949793965091946080013592915050565b6000806040838503121561357657600080fd5b8235915061358660208401613300565b90509250929050565b600080604083850312156135a257600080fd5b50508035926020909101359150565b80151581146135bf57600080fd5b50565b600080604083850312156135d557600080fd5b8235915060208301356135e7816135b1565b809150509250929050565b60006020828403121561360457600080fd5b61273082613300565b60008060006060848603121561362257600080fd5b61362b84613300565b925061363960208501613300565b915061364760408501613300565b90509250925092565b60008060006060848603121561366557600080fd5b505081359360208301359350604090920135919050565b634e487b7160e01b600052603260045260246000fd5b634e487b7160e01b600052601160045260246000fd5b6000826136c557634e487b7160e01b600052601260045260246000fd5b500490565b6001600160a01b039384168152919092166020820152604081019190915260600190565b60208082526029908201527f46697865645261746545786368616e67653a20696e76616c69642065786368616040820152683733b29037bbb732b960b91b606082015260800190565b6020808252601f908201527f5265656e7472616e637947756172643a207265656e7472616e742063616c6c00604082015260600190565b6020808252602b908201527f46697865645261746545786368616e67653a2045786368616e676520646f657360408201526a206e6f742065786973742160a81b606082015260800190565b60208082526028908201527f46697865645261746545786368616e67653a207a65726f2064617461746f6b656040820152671b88185b5bdd5b9d60c21b606082015260800190565b60208082526036908201527f46697865645261746545786368616e67653a205468697320616464726573732060408201527506973206e6f7420616c6c6f77656420746f20737761760541b606082015260800190565b60006020828403121561386957600080fd5b8151612730816135b1565b60006020828403121561388657600080fd5b5051919050565b60008282101561389f5761389f613692565b500390565b600082198211156138b7576138b7613692565b500190565b600181815b808511156138f75781600019048211156138dd576138dd613692565b808516156138ea57918102915b93841c93908002906138c1565b509250929050565b60008261390e575060016126d2565b8161391b575060006126d2565b8160018114613931576002811461393b57613957565b60019150506126d2565b60ff84111561394c5761394c613692565b50506001821b6126d2565b5060208310610133831016604e8410600b841016171561397a575081810a6126d2565b61398483836138bc565b806000190482111561399857613998613692565b029392505050565b600061273083836138ff565b60008160001904831182151516156139c6576139c6613692565b500290565b60005b838110156139e65781810151838201526020016139ce565b838111156131825750506000910152565b60008251613a098184602087016139cb565b9190910192915050565b6020815260008251806020840152613a328160408501602087016139cb565b601f01601f1916919091016040019291505056fea26469706673582212209ff8022774c4fbabadf092781bf18851e9ed4d193a2b1177a89f1ac9b9aca17864736f6c634300080c0033",
  "linkReferences": {},
  "deployedLinkReferences": {}
}