{
  "_format": "hh-sol-artifact-1",
  "contractName": "FixedRateExchange",
  "sourceName": "contracts/pools/fixedRate/FixedRateExchange.sol",
  "abi": [
    {
      "inputs": [
        {
          "internalType": "address",
          "name": "_router",
          "type": "address"
        }
      ],
      "stateMutability": "nonpayable",
      "type": "constructor"
    },
    {
      "anonymous": false,
      "inputs": [
        {
          "indexed": true,
          "internalType": "bytes32",
          "name": "exchangeId",
          "type": "bytes32"
        },
        {
          "indexed": false,
          "internalType": "address",
          "name": "to",
          "type": "address"
        },
        {
          "indexed": false,
          "internalType": "address",
          "name": "token",
          "type": "address"
        },
        {
          "indexed": false,
          "internalType": "uint256",
          "name": "amount",
          "type": "uint256"
        }
      ],
      "name": "ConsumeMarketFee",
      "type": "event"
    },
    {
      "anonymous": false,
      "inputs": [
        {
          "indexed": true,
          "internalType": "bytes32",
          "name": "exchangeId",
          "type": "bytes32"
        },
        {
          "indexed": true,
          "internalType": "address",
          "name": "exchangeOwner",
          "type": "address"
        }
      ],
      "name": "ExchangeActivated",
      "type": "event"
    },
    {
      "anonymous": false,
      "inputs": [
        {
          "indexed": true,
          "internalType": "bytes32",
          "name": "exchangeId",
          "type": "bytes32"
        },
        {
          "indexed": true,
          "internalType": "address",
          "name": "allowedSwapper",
          "type": "address"
        }
      ],
      "name": "ExchangeAllowedSwapperChanged",
      "type": "event"
    },
    {
      "anonymous": false,
      "inputs": [
        {
          "indexed": true,
          "internalType": "bytes32",
          "name": "exchangeId",
          "type": "bytes32"
        },
        {
          "indexed": true,
          "internalType": "address",
          "name": "baseToken",
          "type": "address"
        },
        {
          "indexed": true,
          "internalType": "address",
          "name": "datatoken",
          "type": "address"
        },
        {
          "indexed": false,
          "internalType": "address",
          "name": "exchangeOwner",
          "type": "address"
        },
        {
          "indexed": false,
          "internalType": "uint256",
          "name": "fixedRate",
          "type": "uint256"
        }
      ],
      "name": "ExchangeCreated",
      "type": "event"
    },
    {
      "anonymous": false,
      "inputs": [
        {
          "indexed": true,
          "internalType": "bytes32",
          "name": "exchangeId",
          "type": "bytes32"
        },
        {
          "indexed": true,
          "internalType": "address",
          "name": "exchangeOwner",
          "type": "address"
        }
      ],
      "name": "ExchangeDeactivated",
      "type": "event"
    },
    {
      "anonymous": false,
      "inputs": [
        {
          "indexed": true,
          "internalType": "bytes32",
          "name": "exchangeId",
          "type": "bytes32"
        },
        {
          "indexed": true,
          "internalType": "address",
          "name": "exchangeOwner",
          "type": "address"
        },
        {
          "indexed": false,
          "internalType": "bool",
          "name": "withMint",
          "type": "bool"
        }
      ],
      "name": "ExchangeMintStateChanged",
      "type": "event"
    },
    {
      "anonymous": false,
      "inputs": [
        {
          "indexed": true,
          "internalType": "bytes32",
          "name": "exchangeId",
          "type": "bytes32"
        },
        {
          "indexed": true,
          "internalType": "address",
          "name": "exchangeOwner",
          "type": "address"
        },
        {
          "indexed": false,
          "internalType": "uint256",
          "name": "newRate",
          "type": "uint256"
        }
      ],
      "name": "ExchangeRateChanged",
      "type": "event"
    },
    {
      "anonymous": false,
      "inputs": [
        {
          "indexed": true,
          "internalType": "bytes32",
          "name": "exchangeId",
          "type": "bytes32"
        },
        {
          "indexed": true,
          "internalType": "address",
          "name": "feeToken",
          "type": "address"
        },
        {
          "indexed": false,
          "internalType": "uint256",
          "name": "feeAmount",
          "type": "uint256"
        }
      ],
      "name": "MarketFeeCollected",
      "type": "event"
    },
    {
      "anonymous": false,
      "inputs": [
        {
          "indexed": true,
          "internalType": "bytes32",
          "name": "exchangeId",
          "type": "bytes32"
        },
        {
          "indexed": true,
          "internalType": "address",
          "name": "feeToken",
          "type": "address"
        },
        {
          "indexed": false,
          "internalType": "uint256",
          "name": "feeAmount",
          "type": "uint256"
        }
      ],
      "name": "OceanFeeCollected",
      "type": "event"
    },
    {
      "anonymous": false,
      "inputs": [
        {
          "indexed": true,
          "internalType": "bytes32",
          "name": "exchangeId",
          "type": "bytes32"
        },
        {
          "indexed": false,
          "internalType": "address",
          "name": "caller",
          "type": "address"
        },
        {
          "indexed": false,
          "internalType": "address",
          "name": "newMarketCollector",
          "type": "address"
        },
        {
          "indexed": false,
          "internalType": "uint256",
          "name": "swapFee",
          "type": "uint256"
        }
      ],
      "name": "PublishMarketFeeChanged",
      "type": "event"
    },
    {
      "anonymous": false,
      "inputs": [
        {
          "indexed": true,
          "internalType": "bytes32",
          "name": "exchangeId",
          "type": "bytes32"
        },
        {
          "indexed": false,
          "internalType": "uint256",
          "name": "oceanFeeAmount",
          "type": "uint256"
        },
        {
          "indexed": false,
          "internalType": "uint256",
          "name": "marketFeeAmount",
          "type": "uint256"
        },
        {
          "indexed": false,
          "internalType": "uint256",
          "name": "consumeMarketFeeAmount",
          "type": "uint256"
        },
        {
          "indexed": false,
          "internalType": "address",
          "name": "tokenFeeAddress",
          "type": "address"
        }
      ],
      "name": "SWAP_FEES",
      "type": "event"
    },
    {
      "anonymous": false,
      "inputs": [
        {
          "indexed": true,
          "internalType": "bytes32",
          "name": "exchangeId",
          "type": "bytes32"
        },
        {
          "indexed": true,
          "internalType": "address",
          "name": "by",
          "type": "address"
        },
        {
          "indexed": false,
          "internalType": "uint256",
          "name": "baseTokenSwappedAmount",
          "type": "uint256"
        },
        {
          "indexed": false,
          "internalType": "uint256",
          "name": "datatokenSwappedAmount",
          "type": "uint256"
        },
        {
          "indexed": false,
          "internalType": "address",
          "name": "tokenOutAddress",
          "type": "address"
        },
        {
          "indexed": false,
          "internalType": "uint256",
          "name": "marketFeeAmount",
          "type": "uint256"
        },
        {
          "indexed": false,
          "internalType": "uint256",
          "name": "oceanFeeAmount",
          "type": "uint256"
        },
        {
          "indexed": false,
          "internalType": "uint256",
          "name": "consumeMarketFeeAmount",
          "type": "uint256"
        }
      ],
      "name": "Swapped",
      "type": "event"
    },
    {
      "anonymous": false,
      "inputs": [
        {
          "indexed": true,
          "internalType": "bytes32",
          "name": "exchangeId",
          "type": "bytes32"
        },
        {
          "indexed": true,
          "internalType": "address",
          "name": "to",
          "type": "address"
        },
        {
          "indexed": true,
          "internalType": "address",
          "name": "token",
          "type": "address"
        },
        {
          "indexed": false,
          "internalType": "uint256",
          "name": "amount",
          "type": "uint256"
        }
      ],
      "name": "TokenCollected",
      "type": "event"
    },
    {
      "inputs": [],
      "name": "MAX_FEE",
      "outputs": [
        {
          "internalType": "uint256",
          "name": "",
          "type": "uint256"
        }
      ],
      "stateMutability": "view",
      "type": "function"
    },
    {
      "inputs": [],
      "name": "MIN_FEE",
      "outputs": [
        {
          "internalType": "uint256",
          "name": "",
          "type": "uint256"
        }
      ],
      "stateMutability": "view",
      "type": "function"
    },
    {
      "inputs": [],
      "name": "MIN_RATE",
      "outputs": [
        {
          "internalType": "uint256",
          "name": "",
          "type": "uint256"
        }
      ],
      "stateMutability": "view",
      "type": "function"
    },
    {
      "inputs": [
        {
          "internalType": "bytes32",
          "name": "exchangeId",
          "type": "bytes32"
        },
        {
          "internalType": "uint256",
          "name": "datatokenAmount",
          "type": "uint256"
        },
        {
          "internalType": "uint256",
          "name": "maxBaseTokenAmount",
          "type": "uint256"
        },
        {
          "internalType": "address",
          "name": "consumeMarketAddress",
          "type": "address"
        },
        {
          "internalType": "uint256",
          "name": "consumeMarketSwapFeeAmount",
          "type": "uint256"
        }
      ],
      "name": "buyDT",
      "outputs": [],
      "stateMutability": "nonpayable",
      "type": "function"
    },
    {
      "inputs": [
        {
          "internalType": "bytes32",
          "name": "exchangeId",
          "type": "bytes32"
        },
        {
          "internalType": "uint256",
          "name": "datatokenAmount",
          "type": "uint256"
        },
        {
          "internalType": "uint256",
          "name": "consumeMarketSwapFeeAmount",
          "type": "uint256"
        }
      ],
      "name": "calcBaseInGivenOutDT",
      "outputs": [
        {
          "internalType": "uint256",
          "name": "baseTokenAmount",
          "type": "uint256"
        },
        {
          "internalType": "uint256",
          "name": "oceanFeeAmount",
          "type": "uint256"
        },
        {
          "internalType": "uint256",
          "name": "publishMarketFeeAmount",
          "type": "uint256"
        },
        {
          "internalType": "uint256",
          "name": "consumeMarketFeeAmount",
          "type": "uint256"
        }
      ],
      "stateMutability": "view",
      "type": "function"
    },
    {
      "inputs": [
        {
          "internalType": "bytes32",
          "name": "exchangeId",
          "type": "bytes32"
        },
        {
          "internalType": "uint256",
          "name": "datatokenAmount",
          "type": "uint256"
        },
        {
          "internalType": "uint256",
          "name": "consumeMarketSwapFeeAmount",
          "type": "uint256"
        }
      ],
      "name": "calcBaseOutGivenInDT",
      "outputs": [
        {
          "internalType": "uint256",
          "name": "baseTokenAmount",
          "type": "uint256"
        },
        {
          "internalType": "uint256",
          "name": "oceanFeeAmount",
          "type": "uint256"
        },
        {
          "internalType": "uint256",
          "name": "publishMarketFeeAmount",
          "type": "uint256"
        },
        {
          "internalType": "uint256",
          "name": "consumeMarketFeeAmount",
          "type": "uint256"
        }
      ],
      "stateMutability": "view",
      "type": "function"
    },
    {
      "inputs": [
        {
          "internalType": "bytes32",
          "name": "exchangeId",
          "type": "bytes32"
        },
        {
          "internalType": "uint256",
          "name": "amount",
          "type": "uint256"
        }
      ],
      "name": "collectBT",
      "outputs": [],
      "stateMutability": "nonpayable",
      "type": "function"
    },
    {
      "inputs": [
        {
          "internalType": "bytes32",
          "name": "exchangeId",
          "type": "bytes32"
        },
        {
          "internalType": "uint256",
          "name": "amount",
          "type": "uint256"
        }
      ],
      "name": "collectDT",
      "outputs": [],
      "stateMutability": "nonpayable",
      "type": "function"
    },
    {
      "inputs": [
        {
          "internalType": "bytes32",
          "name": "exchangeId",
          "type": "bytes32"
        }
      ],
      "name": "collectMarketFee",
      "outputs": [],
      "stateMutability": "nonpayable",
      "type": "function"
    },
    {
      "inputs": [
        {
          "internalType": "bytes32",
          "name": "exchangeId",
          "type": "bytes32"
        }
      ],
      "name": "collectOceanFee",
      "outputs": [],
      "stateMutability": "nonpayable",
      "type": "function"
    },
    {
      "inputs": [
        {
          "internalType": "address",
          "name": "datatoken",
          "type": "address"
        },
        {
          "internalType": "address[]",
          "name": "addresses",
          "type": "address[]"
        },
        {
          "internalType": "uint256[]",
          "name": "uints",
          "type": "uint256[]"
        }
      ],
      "name": "createWithDecimals",
      "outputs": [
        {
          "internalType": "bytes32",
          "name": "exchangeId",
          "type": "bytes32"
        }
      ],
      "stateMutability": "nonpayable",
      "type": "function"
    },
    {
      "inputs": [
        {
          "internalType": "address",
          "name": "baseToken",
          "type": "address"
        },
        {
          "internalType": "address",
          "name": "datatoken",
          "type": "address"
        }
      ],
      "name": "generateExchangeId",
      "outputs": [
        {
          "internalType": "bytes32",
          "name": "",
          "type": "bytes32"
        }
      ],
      "stateMutability": "pure",
      "type": "function"
    },
    {
      "inputs": [
        {
          "internalType": "bytes32",
          "name": "exchangeId",
          "type": "bytes32"
        }
      ],
      "name": "getAllowedSwapper",
      "outputs": [
        {
          "internalType": "address",
          "name": "allowedSwapper",
          "type": "address"
        }
      ],
      "stateMutability": "view",
      "type": "function"
    },
    {
      "inputs": [
        {
          "internalType": "bytes32",
          "name": "exchangeId",
          "type": "bytes32"
        }
      ],
      "name": "getBTSupply",
      "outputs": [
        {
          "internalType": "uint256",
          "name": "supply",
          "type": "uint256"
        }
      ],
      "stateMutability": "view",
      "type": "function"
    },
    {
      "inputs": [
        {
          "internalType": "bytes32",
          "name": "exchangeId",
          "type": "bytes32"
        }
      ],
      "name": "getDTSupply",
      "outputs": [
        {
          "internalType": "uint256",
          "name": "supply",
          "type": "uint256"
        }
      ],
      "stateMutability": "view",
      "type": "function"
    },
    {
      "inputs": [
        {
          "internalType": "bytes32",
          "name": "exchangeId",
          "type": "bytes32"
        }
      ],
      "name": "getExchange",
      "outputs": [
        {
          "internalType": "address",
          "name": "exchangeOwner",
          "type": "address"
        },
        {
          "internalType": "address",
          "name": "datatoken",
          "type": "address"
        },
        {
          "internalType": "uint256",
          "name": "dtDecimals",
          "type": "uint256"
        },
        {
          "internalType": "address",
          "name": "baseToken",
          "type": "address"
        },
        {
          "internalType": "uint256",
          "name": "btDecimals",
          "type": "uint256"
        },
        {
          "internalType": "uint256",
          "name": "fixedRate",
          "type": "uint256"
        },
        {
          "internalType": "bool",
          "name": "active",
          "type": "bool"
        },
        {
          "internalType": "uint256",
          "name": "dtSupply",
          "type": "uint256"
        },
        {
          "internalType": "uint256",
          "name": "btSupply",
          "type": "uint256"
        },
        {
          "internalType": "uint256",
          "name": "dtBalance",
          "type": "uint256"
        },
        {
          "internalType": "uint256",
          "name": "btBalance",
          "type": "uint256"
        },
        {
          "internalType": "bool",
          "name": "withMint",
          "type": "bool"
        }
      ],
      "stateMutability": "view",
      "type": "function"
    },
    {
      "inputs": [],
      "name": "getExchanges",
      "outputs": [
        {
          "internalType": "bytes32[]",
          "name": "",
          "type": "bytes32[]"
        }
      ],
      "stateMutability": "view",
      "type": "function"
    },
    {
      "inputs": [
        {
          "internalType": "bytes32",
          "name": "exchangeId",
          "type": "bytes32"
        }
      ],
      "name": "getFeesInfo",
      "outputs": [
        {
          "internalType": "uint256",
          "name": "marketFee",
          "type": "uint256"
        },
        {
          "internalType": "address",
          "name": "marketFeeCollector",
          "type": "address"
        },
        {
          "internalType": "uint256",
          "name": "opcFee",
          "type": "uint256"
        },
        {
          "internalType": "uint256",
          "name": "marketFeeAvailable",
          "type": "uint256"
        },
        {
          "internalType": "uint256",
          "name": "oceanFeeAvailable",
          "type": "uint256"
        }
      ],
      "stateMutability": "view",
      "type": "function"
    },
    {
      "inputs": [],
      "name": "getId",
      "outputs": [
        {
          "internalType": "uint8",
          "name": "",
          "type": "uint8"
        }
      ],
      "stateMutability": "pure",
      "type": "function"
    },
    {
      "inputs": [
        {
          "internalType": "bytes32",
          "name": "exchangeId",
          "type": "bytes32"
        }
      ],
      "name": "getMarketFee",
      "outputs": [
        {
          "internalType": "uint256",
          "name": "",
          "type": "uint256"
        }
      ],
      "stateMutability": "view",
      "type": "function"
    },
    {
      "inputs": [],
      "name": "getNumberOfExchanges",
      "outputs": [
        {
          "internalType": "uint256",
          "name": "",
          "type": "uint256"
        }
      ],
      "stateMutability": "view",
      "type": "function"
    },
    {
      "inputs": [
        {
          "internalType": "address",
          "name": "baseTokenAddress",
          "type": "address"
        }
      ],
      "name": "getOPCFee",
      "outputs": [
        {
          "internalType": "uint256",
          "name": "",
          "type": "uint256"
        }
      ],
      "stateMutability": "view",
      "type": "function"
    },
    {
      "inputs": [
        {
          "internalType": "bytes32",
          "name": "exchangeId",
          "type": "bytes32"
        }
      ],
      "name": "getRate",
      "outputs": [
        {
          "internalType": "uint256",
          "name": "",
          "type": "uint256"
        }
      ],
      "stateMutability": "view",
      "type": "function"
    },
    {
      "inputs": [
        {
          "internalType": "bytes32",
          "name": "exchangeId",
          "type": "bytes32"
        }
      ],
      "name": "isActive",
      "outputs": [
        {
          "internalType": "bool",
          "name": "",
          "type": "bool"
        }
      ],
      "stateMutability": "view",
      "type": "function"
    },
    {
      "inputs": [],
      "name": "router",
      "outputs": [
        {
          "internalType": "address",
          "name": "",
          "type": "address"
        }
      ],
      "stateMutability": "view",
      "type": "function"
    },
    {
      "inputs": [
        {
          "internalType": "bytes32",
          "name": "exchangeId",
          "type": "bytes32"
        },
        {
          "internalType": "uint256",
          "name": "datatokenAmount",
          "type": "uint256"
        },
        {
          "internalType": "uint256",
          "name": "minBaseTokenAmount",
          "type": "uint256"
        },
        {
          "internalType": "address",
          "name": "consumeMarketAddress",
          "type": "address"
        },
        {
          "internalType": "uint256",
          "name": "consumeMarketSwapFeeAmount",
          "type": "uint256"
        }
      ],
      "name": "sellDT",
      "outputs": [],
      "stateMutability": "nonpayable",
      "type": "function"
    },
    {
      "inputs": [
        {
          "internalType": "bytes32",
          "name": "exchangeId",
          "type": "bytes32"
        },
        {
          "internalType": "address",
          "name": "newAllowedSwapper",
          "type": "address"
        }
      ],
      "name": "setAllowedSwapper",
      "outputs": [],
      "stateMutability": "nonpayable",
      "type": "function"
    },
    {
      "inputs": [
        {
          "internalType": "bytes32",
          "name": "exchangeId",
          "type": "bytes32"
        },
        {
          "internalType": "uint256",
          "name": "newRate",
          "type": "uint256"
        }
      ],
      "name": "setRate",
      "outputs": [],
      "stateMutability": "nonpayable",
      "type": "function"
    },
    {
      "inputs": [
        {
          "internalType": "bytes32",
          "name": "exchangeId",
          "type": "bytes32"
        }
      ],
      "name": "toggleExchangeState",
      "outputs": [],
      "stateMutability": "nonpayable",
      "type": "function"
    },
    {
      "inputs": [
        {
          "internalType": "bytes32",
          "name": "exchangeId",
          "type": "bytes32"
        },
        {
          "internalType": "bool",
          "name": "withMint",
          "type": "bool"
        }
      ],
      "name": "toggleMintState",
      "outputs": [],
      "stateMutability": "nonpayable",
      "type": "function"
    },
    {
      "inputs": [
        {
          "internalType": "bytes32",
          "name": "exchangeId",
          "type": "bytes32"
        },
        {
          "internalType": "uint256",
          "name": "_newMarketFee",
          "type": "uint256"
        }
      ],
      "name": "updateMarketFee",
      "outputs": [],
      "stateMutability": "nonpayable",
      "type": "function"
    },
    {
      "inputs": [
        {
          "internalType": "bytes32",
          "name": "exchangeId",
          "type": "bytes32"
        },
        {
          "internalType": "address",
          "name": "_newMarketCollector",
          "type": "address"
        }
      ],
      "name": "updateMarketFeeCollector",
      "outputs": [],
      "stateMutability": "nonpayable",
      "type": "function"
    }
  ],
  "bytecode": "0x60806040523480156200001157600080fd5b50604051620043b5380380620043b58339810160408190526200003491620000ca565b60016000556001600160a01b038116620000a45760405162461bcd60e51b815260206004820152602760248201527f46697865645261746545786368616e67653a2057726f6e6720526f75746572206044820152666164647265737360c81b606482015260840160405180910390fd5b600180546001600160a01b0319166001600160a01b0392909216919091179055620000fc565b600060208284031215620000dd57600080fd5b81516001600160a01b0381168114620000f557600080fd5b9392505050565b6142a9806200010c6000396000f3fe608060405234801561001057600080fd5b50600436106101f05760003560e01c8063855058dd1161010f578063c2c0d1ab116100a2578063dd1bc96a11610071578063dd1bc96a146105e3578063ed2fc859146105f6578063f32f947614610609578063f887ea401461061c57600080fd5b8063c2c0d1ab1461057e578063c612e48a146105b1578063c66274ea146105c4578063d819bfef146105d757600080fd5b8063b4241429116100de578063b424142914610541578063b686bcaf14610549578063b8421e2b1461055c578063bc063e1a1461056f57600080fd5b8063855058dd146103f857806385fcbc2f146104f8578063888238721461050b578063b32b56f91461051e57600080fd5b80635c36901c1161018757806368c4b7e91161015657806368c4b7e9146103b757806376c7a3c7146103ca57806379dd2836146103d25780637c82ebe9146103e557600080fd5b80635c36901c1461034f5780635d1ca6311461038257806360311e9514610391578063680819eb146103a457600080fd5b80632e7e23b3116101c35780632e7e23b3146102885780634c87087d146102ab57806350d571d5146103295780635acfedc71461033c57600080fd5b8063012c3275146101f55780630b3b430d1461021b5780631e2e3a6b1461025e57806324cb477e14610273575b600080fd5b610208610203366004613b78565b61062f565b6040519081526020015b60405180910390f35b61022e610229366004613c4e565b610f51565b604080519586526001600160a01b039094166020860152928401919091526060830152608082015260a001610212565b61026661105b565b6040516102129190613c67565b610286610281366004613c4e565b6110b3565b005b610208610296366004613c4e565b60009081526002602052604090206008015490565b6102be6102b9366004613c4e565b6112d9565b604080516001600160a01b039d8e1681529b8d1660208d01528b0199909952999096166060890152608088019490945260a0870192909252151560c086015260e085015261010084015261012083015261014082019290925290151561016082015261018001610212565b610286610337366004613cab565b61137b565b61028661034a366004613c4e565b61189c565b61037261035d366004613c4e565b60009081526002602052604090205460ff1690565b6040519015158152602001610212565b60405160018152602001610212565b61028661039f366004613cf4565b6118ba565b6102866103b2366004613d24565b611aa1565b6102866103c5366004613cab565b611c9f565b610208612282565b6102866103e0366004613d54565b612299565b6102866103f3366004613cf4565b6124a3565b6104e0610406366004613c4e565b60009081526002602081815260409283902083516101e081018552815460ff808216151583526001600160a01b03610100928390048116958401959095526001840154851696830196909652938201548316606082015260038201546080820152600482015460a0820152600582015460c0820152600682015460e0820152600782015484820152600882015461012082015260098201548316610140820152600a820154610160820152600b820154610180820152600c9091015493841615156101a0820152919092049091166101c090910181905290565b6040516001600160a01b039091168152602001610212565b610208610506366004613c4e565b612576565b610286610519366004613d24565b6126fe565b61020861052c366004613c4e565b60009081526002602052604090206003015490565b600354610208565b610286610557366004613c4e565b612863565b61020861056a366004613d79565b612874565b6102086706f05b59d3b2000081565b61059161058c366004613d96565b6128e9565b604080519485526020850193909352918301526060820152608001610212565b6102866105bf366004613d24565b612a7c565b6102086105d2366004613c4e565b612a9c565b6102086402540be40081565b6105916105f1366004613d96565b612dae565b610208610604366004613dc2565b612f13565b610286610617366004613d24565b612f4b565b6001546104e0906001600160a01b031681565b6001546000906001600160a01b031633146106915760405162461bcd60e51b815260206004820152601e60248201527f46697865645261746545786368616e67653a206f6e6c7920726f75746572000060448201526064015b60405180910390fd5b6005825110156106da5760405162461bcd60e51b8152602060048201526014602482015273092dcecc2d8d2c840ead2dce8e640d8cadccee8d60631b6044820152606401610688565b60048351101561072c5760405162461bcd60e51b815260206004820152601860248201527f496e76616c696420616464726573736573206c656e67746800000000000000006044820152606401610688565b60006001600160a01b03168360008151811061074a5761074a613df0565b60200260200101516001600160a01b031614156107c55760405162461bcd60e51b815260206004820152603360248201527f46697865645261746545786368616e67653a20496e76616c69642062617365546044820152726f6b656e2c20207a65726f206164647265737360681b6064820152608401610688565b6001600160a01b0384166108375760405162461bcd60e51b815260206004820152603360248201527f46697865645261746545786368616e67653a20496e76616c69642064617461746044820152726f6b656e2c20207a65726f206164647265737360681b6064820152608401610688565b836001600160a01b03168360008151811061085457610854613df0565b60200260200101516001600160a01b031614156108d95760405162461bcd60e51b815260206004820152603760248201527f46697865645261746545786368616e67653a20496e76616c696420646174617460448201527f6f6b656e2c2020657175616c732062617365546f6b656e0000000000000000006064820152608401610688565b6402540be400826002815181106108f2576108f2613df0565b602002602001015110156109185760405162461bcd60e51b815260040161068890613e06565b61093c8360008151811061092e5761092e613df0565b602002602001015185612f13565b600081815260026020526040902060030154909150156109b25760405162461bcd60e51b815260206004820152602b60248201527f46697865645261746545786368616e67653a2045786368616e676520616c726560448201526a616479206578697374732160a81b6064820152608401610688565b600060019050826004815181106109cb576109cb613df0565b6020026020010151600014156109df575060005b604051806101e0016040528060011515815260200185600181518110610a0757610a07613df0565b60200260200101516001600160a01b03168152602001866001600160a01b0316815260200185600081518110610a3f57610a3f613df0565b60200260200101516001600160a01b0316815260200184600281518110610a6857610a68613df0565b6020026020010151815260200184600181518110610a8857610a88613df0565b6020026020010151815260200184600081518110610aa857610aa8613df0565b60200260200101518152602001600081526020016000815260200184600381518110610ad657610ad6613df0565b6020026020010151815260200185600281518110610af657610af6613df0565b60200260200101516001600160a01b031681526020016000815260200160008152602001821515815260200185600381518110610b3557610b35613df0565b6020908102919091018101516001600160a01b039081169092526000858152600280835260409182902085518154948701518616610100908102610100600160a81b031992151583166001600160a81b031997881617178355938701516001830180549188166001600160a01b03199283161790556060880151938301805494881694821694909417909355608087015160038084019190915560a0880151600484015560c0880151600584015560e0880151600684015584880151600784015561012088015160088401556101408801516009840180549189169190951617909355610160870151600a830155610180870151600b8301556101a0870151600c90920180546101c090980151909616909302901515909216949092169390931792909217905583518491908110610c6f57610c6f613df0565b602002602001015160001480610cb25750610c94612710670de0b6b3a7640000613e6a565b83600381518110610ca757610ca7613df0565b602002602001015110155b610cf05760405162461bcd60e51b815260206004820152600f60248201526e5377617046656520746f6f206c6f7760881b6044820152606401610688565b6706f05b59d3b2000083600381518110610d0c57610d0c613df0565b60200260200101511115610d555760405162461bcd60e51b815260206004820152601060248201526f0a6eec2e08ccaca40e8dede40d0d2ced60831b6044820152606401610688565b6003805460018101825560009182527fc2575a0e9e593c00f959f8c92f12db2869c3395a3b0502d05e2516446f71f85b0183905584516001600160a01b038716918691610da457610da4613df0565b60200260200101516001600160a01b0316837feb7a353641f7d3cc54b497ef1553fdc292b64d9cc3be8587c23dfba01f310b1987600181518110610dea57610dea613df0565b602002602001015187600281518110610e0557610e05613df0565b6020026020010151604051610e2f9291906001600160a01b03929092168252602082015260400190565b60405180910390a483600181518110610e4a57610e4a613df0565b60200260200101516001600160a01b0316827fc7344c45124818d1d3a4c24ccb9b86d8b88d3bd05209b2a42b494cb32a50352960405160405180910390a383600381518110610e9b57610e9b613df0565b60200260200101516001600160a01b0316827fcc1b4af8292e6b938f6743c78a62317c9a2d60e0d46b77776a027e53ce617c0c60405160405180910390a3817f1bf3af41af5ef4ea33bbeffb18acd246aae76d6f03bdb54916577c2e1ab03d523386600281518110610f0f57610f0f613df0565b602002602001015186600381518110610f2a57610f2a613df0565b6020026020010151604051610f4193929190613e8c565b60405180910390a2509392505050565b600081815260026020818152604080842081516101e081018352815460ff808216151583526001600160a01b036101009283900481168488015260018501548116958401959095528387015485166060840181905260038501546080850152600485015460a0850152600585015460c0850152600685015460e085015260078501548385015260088501546101208501819052600986015487166101408601819052600a870154610160870152600b870154610180870152600c9096015492831615156101a0860152929091049094166101c083015287875294909352929391829182919061103f90612874565b9350806101600151925080610180015191505091939590929450565b606060038054806020026020016040519081016040528092919081815260200182805480156110a957602002820191906000526020600020905b815481526020019060010190808311611095575b5050505050905090565b600081815260026020526040908190206001015490516396fb3eaf60e01b815233600482015282916001600160a01b03169081906396fb3eaf90602401602060405180830381865afa15801561110d573d6000803e3d6000fd5b505050506040513d601f19601f820116820180604052508101906111319190613eb0565b806112185750336001600160a01b0316816001600160a01b0316627ffb786040518163ffffffff1660e01b8152600401602060405180830381865afa15801561117e573d6000803e3d6000fd5b505050506040513d601f19601f820116820180604052508101906111a29190613ecd565b6040516331a9108f60e11b8152600160048201526001600160a01b039190911690636352211e90602401602060405180830381865afa1580156111e9573d6000803e3d6000fd5b505050506040513d601f19601f8201168201806040525081019061120d9190613ecd565b6001600160a01b0316145b6112345760405162461bcd60e51b815260040161068890613eea565b60008381526002602052604090205460ff161561129057600083815260026020526040808220805460ff1916905551339185917f03da9148e1de78fba22de63c573465562ebf6ef878a1d3ea83790a560229984c9190a3505050565b600083815260026020526040808220805460ff1916600117905551339185917fc7344c45124818d1d3a4c24ccb9b86d8b88d3bd05209b2a42b494cb32a5035299190a35b505050565b600081815260026020819052604082208054600182015460048301549383015460058401546003909401546001600160a01b03610100850481169793811696959216939192909160ff1690808080806113318d612a9c565b945061133c8d612576565b60009d8e5260026020526040909d2060068101546007820154600c909201549d9f9c9e9b9d9a9c999b989a9799969897909691955060ff169350915050565b600085815260026020526040902054859060ff166113ab5760405162461bcd60e51b815260040161068890613f33565b6113b3612f5d565b846113d05760405162461bcd60e51b815260040161068890613f7e565b8115806113f057506113ec612710670de0b6b3a7640000613e6a565b8210155b6114355760405162461bcd60e51b8152602060048201526016602482015275436f6e73756d655377617046656520746f6f206c6f7760501b6044820152606401610688565b6706f05b59d3b200008211156114875760405162461bcd60e51b8152602060048201526017602482015276086dedce6eadacaa6eec2e08ccaca40e8dede40d0d2ced604b1b6044820152606401610688565b6000868152600260205260409020600c015461010090046001600160a01b0316156114ea576000868152600260205260409020600c015461010090046001600160a01b031633146114ea5760405162461bcd60e51b815260040161068890613fc6565b6040805160808101825260008082526020820181905291810182905260608101919091526001600160a01b03841661152157600092505b61152c8787856128e9565b60608501526040840152602083015280825285111561159c5760405162461bcd60e51b815260206004820152602660248201527f46697865645261746545786368616e67653a20546f6f20666577206261736520604482015265746f6b656e7360d01b6064820152608401610688565b602080820151600089815260029092526040909120600b01546115be91612fb7565b60008881526002602052604090819020600b810192909255820151600a909101546115e891612fb7565b60026000898152602001908152602001600020600a01819055506000611635826060015161162f846040015161162f86602001518760000151612fb790919063ffffffff16565b90612fb7565b60008981526002602052604090206001015490915061165f906001600160a01b031633308a612fca565b60008881526002602052604090206006015461167b9088612fb7565b60008981526002602052604090206006810191909155600701548111156117015760008881526002602081905260409091209081015490546116d0916001600160a01b03908116916101009004163084612fca565b8151600089815260026020819052604090912001546116fc916001600160a01b03909116903390613118565b611752565b60008881526002602052604090206007015461171d908261317b565b600089815260026020819052604090912060078101929092558351910154611752916001600160a01b03909116903390613118565b6001600160a01b0385161580159061176e575060008260600151115b15611802576060820151600089815260026020819052604090912001546117a2916001600160a01b03909116908790613118565b6000888152600260208190526040918290200154606084015191518a927f086a8edf7ac99098be3ce56ba76ae3e5a1e212fed5f803fc3167990fa03079b9926117f9928a926001600160a01b039092169190613e8c565b60405180910390a25b815160008981526002602081815260409283902090910154828601518287015160608089015186519788529487018e90526001600160a01b039093169486019490945290840152608083019190915260a0820152339089907f7b072645ce5b6a2fc627a544edee544b786747cafd1bb8f0e3238aa5f2e806469060c0015b60405180910390a350506118946001600055565b505050505050565b6118a4612f5d565b6118ad81613187565b6118b76001600055565b50565b600082815260026020526040908190206001015490516396fb3eaf60e01b815233600482015283916001600160a01b03169081906396fb3eaf90602401602060405180830381865afa158015611914573d6000803e3d6000fd5b505050506040513d601f19601f820116820180604052508101906119389190613eb0565b80611a1f5750336001600160a01b0316816001600160a01b0316627ffb786040518163ffffffff1660e01b8152600401602060405180830381865afa158015611985573d6000803e3d6000fd5b505050506040513d601f19601f820116820180604052508101906119a99190613ecd565b6040516331a9108f60e11b8152600160048201526001600160a01b039190911690636352211e90602401602060405180830381865afa1580156119f0573d6000803e3d6000fd5b505050506040513d601f19601f82011682018060405250810190611a149190613ecd565b6001600160a01b0316145b611a3b5760405162461bcd60e51b815260040161068890613eea565b600084815260026020526040808220600c018054610100600160a81b0319166101006001600160a01b038816908102919091179091559051909186917fcc1b4af8292e6b938f6743c78a62317c9a2d60e0d46b77776a027e53ce617c0c9190a350505050565b600082815260026020526040908190206001015490516396fb3eaf60e01b815233600482015283916001600160a01b03169081906396fb3eaf90602401602060405180830381865afa158015611afb573d6000803e3d6000fd5b505050506040513d601f19601f82011682018060405250810190611b1f9190613eb0565b80611c065750336001600160a01b0316816001600160a01b0316627ffb786040518163ffffffff1660e01b8152600401602060405180830381865afa158015611b6c573d6000803e3d6000fd5b505050506040513d601f19601f82011682018060405250810190611b909190613ecd565b6040516331a9108f60e11b8152600160048201526001600160a01b039190911690636352211e90602401602060405180830381865afa158015611bd7573d6000803e3d6000fd5b505050506040513d601f19601f82011682018060405250810190611bfb9190613ecd565b6001600160a01b0316145b611c225760405162461bcd60e51b815260040161068890613eea565b6402540be400831015611c475760405162461bcd60e51b815260040161068890613e06565b6000848152600260205260409081902060030184905551339085907fe50f9919fdc524004a4ee0cb934f4734f144bec0713a52e5483b753f5de0f08c90611c919087815260200190565b60405180910390a350505050565b600085815260026020526040902054859060ff16611ccf5760405162461bcd60e51b815260040161068890613f33565b611cd7612f5d565b84611cf45760405162461bcd60e51b815260040161068890613f7e565b811580611d145750611d10612710670de0b6b3a7640000613e6a565b8210155b611d595760405162461bcd60e51b8152602060048201526016602482015275436f6e73756d655377617046656520746f6f206c6f7760501b6044820152606401610688565b6706f05b59d3b20000821115611dab5760405162461bcd60e51b8152602060048201526017602482015276086dedce6eadacaa6eec2e08ccaca40e8dede40d0d2ced604b1b6044820152606401610688565b6000868152600260205260409020600c015461010090046001600160a01b031615611e0e576000868152600260205260409020600c015461010090046001600160a01b03163314611e0e5760405162461bcd60e51b815260040161068890613fc6565b6001600160a01b038316611e2157600091505b6000604051806080016040528060008152602001600081526020016000815260200160008152509050611e55878785612dae565b606085015260408401526020830152808252851015611ec65760405162461bcd60e51b815260206004820152602760248201527f46697865645261746545786368616e67653a20546f6f206d616e79206261736560448201526620746f6b656e7360c81b6064820152608401610688565b602080820151600089815260029092526040909120600b0154611ee891612fb7565b60008881526002602052604090819020600b810192909255820151600a90910154611f1291612fb7565b6000888152600260208190526040909120600a81019290925501548151611f46916001600160a01b03169033903090612fca565b6000611f798260600151611f738460400151611f738660200151876000015161317b90919063ffffffff16565b9061317b565b600089815260026020526040902060070154909150611f989082612fb7565b6000898152600260205260409020600781019190915560060154871115612106576000888152600260205260409020600c015460ff1680156120515750600088815260026020526040908190206001015490516355138f0d60e11b81523060048201526001600160a01b039091169063aa271e1a90602401602060405180830381865afa15801561202d573d6000803e3d6000fd5b505050506040513d601f19601f820116820180604052508101906120519190613eb0565b156120cf57600088815260026020526040908190206001015490516340c10f1960e01b8152336004820152602481018990526001600160a01b03909116906340c10f1990604401600060405180830381600087803b1580156120b257600080fd5b505af11580156120c6573d6000803e3d6000fd5b50505050612150565b600088815260026020526040902060018101549054612101916001600160a01b0390811691610100900416338a612fca565b612150565b600088815260026020526040902060060154612122908861317b565b6000898152600260205260409020600681019190915560010154612150906001600160a01b03163389613118565b6001600160a01b0385161580159061216c575060008260600151115b15612200576060820151600089815260026020819052604090912001546121a0916001600160a01b03909116908790613118565b6000888152600260208190526040918290200154606084015191518a927f086a8edf7ac99098be3ce56ba76ae3e5a1e212fed5f803fc3167990fa03079b9926121f7928a926001600160a01b039092169190613e8c565b60405180910390a25b815160008981526002602090815260409182902060010154828601518287015160608089015186519788529487018e90526001600160a01b039093169486019490945290840152608083019190915260a0820152339089907f7b072645ce5b6a2fc627a544edee544b786747cafd1bb8f0e3238aa5f2e806469060c001611880565b612296612710670de0b6b3a7640000613e6a565b81565b600082815260026020526040908190206001015490516396fb3eaf60e01b815233600482015283916001600160a01b03169081906396fb3eaf90602401602060405180830381865afa1580156122f3573d6000803e3d6000fd5b505050506040513d601f19601f820116820180604052508101906123179190613eb0565b806123fe5750336001600160a01b0316816001600160a01b0316627ffb786040518163ffffffff1660e01b8152600401602060405180830381865afa158015612364573d6000803e3d6000fd5b505050506040513d601f19601f820116820180604052508101906123889190613ecd565b6040516331a9108f60e11b8152600160048201526001600160a01b039190911690636352211e90602401602060405180830381865afa1580156123cf573d6000803e3d6000fd5b505050506040513d601f19601f820116820180604052508101906123f39190613ecd565b6001600160a01b0316145b61241a5760405162461bcd60e51b815260040161068890613eea565b6000848152600260205260409020805460019091015461244c916001600160a01b036101009091048116911685613287565b600085815260026020908152604091829020600c01805460ff191693151593909317909255518415158152339186917fe28e899e0f5d6fba0c8d73d1888083bcc62d4d9806d2e26fcf1f607c3ed52f539101611c91565b6000828152600260205260409020600901546001600160a01b031633146125055760405162461bcd60e51b81526020600482015260166024820152753737ba1036b0b935b2ba2332b2a1b7b63632b1ba37b960511b6044820152606401610688565b600082815260026020526040908190206009810180546001600160a01b0319166001600160a01b03851617905560080154905183917f1bf3af41af5ef4ea33bbeffb18acd246aae76d6f03bdb54916577c2e1ab03d529161256a913391869190613e8c565b60405180910390a25050565b60008181526002602052604081205460ff1661259457506000919050565b600082815260026020819052604080832091820154915490516370a0823160e01b81526001600160a01b03610100909204821660048201529116906370a0823190602401602060405180830381865afa1580156125f5573d6000803e3d6000fd5b505050506040513d601f19601f82011682018060405250810190612619919061401c565b60008481526002602081905260408083209182015491549051636eb1769f60e11b81526101009091046001600160a01b0390811660048301523060248301529394509192169063dd62ed3e90604401602060405180830381865afa158015612685573d6000803e3d6000fd5b505050506040513d601f19601f820116820180604052508101906126a9919061401c565b9050808210156126d7576000848152600260205260409020600701546126d0908390612fb7565b92506126f7565b6000848152600260205260409020600701546126f4908290612fb7565b92505b5050919050565b6000828152600260205260409020600901546001600160a01b031633146127605760405162461bcd60e51b81526020600482015260166024820152753737ba1036b0b935b2ba2332b2a1b7b63632b1ba37b960511b6044820152606401610688565b801580612780575061277c612710670de0b6b3a7640000613e6a565b8110155b6127be5760405162461bcd60e51b815260206004820152600f60248201526e5377617046656520746f6f206c6f7760881b6044820152606401610688565b6706f05b59d3b200008111156128095760405162461bcd60e51b815260206004820152601060248201526f0a6eec2e08ccaca40e8dede40d0d2ced60831b6044820152606401610688565b600082815260026020526040908190206008810183905560090154905183917f1bf3af41af5ef4ea33bbeffb18acd246aae76d6f03bdb54916577c2e1ab03d529161256a9133916001600160a01b03909116908690613e8c565b61286b612f5d565b6118ad8161341f565b60015460405163b8421e2b60e01b81526001600160a01b038381166004830152600092169063b8421e2b90602401602060405180830381865afa1580156128bf573d6000803e3d6000fd5b505050506040513d601f19601f820116820180604052508101906128e3919061401c565b92915050565b600083815260026020526040812054819081908190879060ff1661291f5760405162461bcd60e51b815260040161068890613f33565b600061292b89896134ab565b6040805160808101825260008082526020808301829052828401829052606083018290528d82526002908190529281209092015492935091612975906001600160a01b0316612874565b905080156129a357612999670de0b6b3a7640000612993858461351a565b90613526565b60208301526129ab565b600060208301525b60008b815260026020526040902060080154156129f75760008b8152600260205260409020600801546129ed90670de0b6b3a76400009061299390869061351a565b60408301526129ff565b600060408301525b8815612a2557612a1b670de0b6b3a7640000612993858c61351a565b6060830152612a2d565b600060608301525b612a548260600151611f738460200151611f7386604001518861317b90919063ffffffff16565b80835260208301516040840151606090940151919d909c50929a509850909650505050505050565b612a84612f5d565b612a8e8282613532565b612a986001600055565b5050565b60008181526002602052604081205460ff16612aba57506000919050565b6000828152600260205260409020600c015460ff168015612b525750600082815260026020526040908190206001015490516355138f0d60e11b81523060048201526001600160a01b039091169063aa271e1a90602401602060405180830381865afa158015612b2e573d6000803e3d6000fd5b505050506040513d601f19601f82011682018060405250810190612b529190613eb0565b15612c57576000828152600260209081526040918290206001015482516318160ddd60e01b815292516001600160a01b03909116926318160ddd9260048083019391928290030181865afa158015612bae573d6000803e3d6000fd5b505050506040513d601f19601f82011682018060405250810190612bd2919061401c565b600083815260026020908152604091829020600101548251631aa93a7560e11b815292516001600160a01b039091169263355274ea9260048083019391928290030181865afa158015612c29573d6000803e3d6000fd5b505050506040513d601f19601f82011682018060405250810190612c4d919061401c565b6128e39190614035565b6000828152600260205260408082206001810154905491516370a0823160e01b81526101009092046001600160a01b03908116600484015216906370a0823190602401602060405180830381865afa158015612cb7573d6000803e3d6000fd5b505050506040513d601f19601f82011682018060405250810190612cdb919061401c565b600084815260026020526040808220600181015490549151636eb1769f60e11b81526001600160a01b0361010090930483166004820152306024820152939450919291169063dd62ed3e90604401602060405180830381865afa158015612d46573d6000803e3d6000fd5b505050506040513d601f19601f82011682018060405250810190612d6a919061401c565b905080821015612d91576000848152600260205260409020600601546126d0908390612fb7565b6000848152600260205260409020600601546126f4908290612fb7565b600083815260026020526040812054819081908190879060ff16612de45760405162461bcd60e51b815260040161068890613f33565b6000612df089896134ab565b6040805160808101825260008082526020808301829052828401829052606083018290528d82526002908190529281209092015492935091612e3a906001600160a01b0316612874565b90508015612e6257612e58670de0b6b3a7640000612993858461351a565b6020830152612e6a565b600060208301525b60008b81526002602052604090206008015415612eb65760008b815260026020526040902060080154612eac90670de0b6b3a76400009061299390869061351a565b6040830152612ebe565b600060408301525b8815612ee457612eda670de0b6b3a7640000612993858c61351a565b6060830152612eec565b600060608301525b612a54826060015161162f846020015161162f866040015188612fb790919063ffffffff16565b604080516001600160a01b03938416602080830191909152929093168382015280518084038201815260609093019052815191012090565b612f53612f5d565b612a8e82826136ab565b60026000541415612fb05760405162461bcd60e51b815260206004820152601f60248201527f5265656e7472616e637947756172643a207265656e7472616e742063616c6c006044820152606401610688565b6002600055565b6000612fc3828461404c565b9392505050565b6040516370a0823160e01b81526001600160a01b038381166004830152600091908616906370a0823190602401602060405180830381865afa158015613014573d6000803e3d6000fd5b505050506040513d601f19601f82011682018060405250810190613038919061401c565b905061304f6001600160a01b03861685858561381c565b6130598183612fb7565b6040516370a0823160e01b81526001600160a01b0385811660048301528716906370a0823190602401602060405180830381865afa15801561309f573d6000803e3d6000fd5b505050506040513d601f19601f820116820180604052508101906130c3919061401c565b10156131115760405162461bcd60e51b815260206004820152601a60248201527f5472616e7366657220616d6f756e7420697320746f6f206c6f770000000000006044820152606401610688565b5050505050565b6040516001600160a01b0383166024820152604481018290526112d490849063a9059cbb60e01b906064015b60408051601f198184030181529190526020810180516001600160e01b03166001600160e01b031990931692909217909152613843565b6000612fc38284614035565b6000818152600260209081526040808320600b0180549390556001548151631a81876d60e01b8152915161322f936001600160a01b0390921692631a81876d9260048083019391928290030181865afa1580156131e8573d6000803e3d6000fd5b505050506040513d601f19601f8201168201806040525081019061320c9190613ecd565b600084815260026020819052604090912001546001600160a01b03169083613118565b6000828152600260208181526040928390209091015491518381526001600160a01b039092169184917f457b44fd47c33fc65bfbd58d0202ad97fbed1bbc9881f56441d05fe9ebd58acf910160405180910390a35050565b60008161329657506000612fc3565b6000836001600160a01b0316627ffb786040518163ffffffff1660e01b8152600401602060405180830381865afa1580156132d5573d6000803e3d6000fd5b505050506040513d601f19601f820116820180604052508101906132f99190613ecd565b60405163160a792560e01b81526001600160a01b03878116600483015291925060009183169063160a792590602401608060405180830381865afa158015613345573d6000803e3d6000fd5b505050506040513d601f19601f820116820180604052508101906133699190614064565b80519091501515600114806133845750602081015115156001145b8061340357506040516331a9108f60e11b8152600160048201526001600160a01b038088169190841690636352211e90602401602060405180830381865afa1580156133d4573d6000803e3d6000fd5b505050506040513d601f19601f820116820180604052508101906133f89190613ecd565b6001600160a01b0316145b1561341357600192505050612fc3565b50600095945050505050565b6000818152600260208181526040808420600a810180549590559092015491518381526001600160a01b039092169184917f192a3cd95e40313e0e12c28b398e31633936e38d134419161f883c8d64079055910160405180910390a360008281526002602081905260409091206009810154910154612a98916001600160a01b03918216911683613118565b600082815260026020526040812060040154612fc390670de0b6b3a764000090612993906134da90600a6141cd565b600087815260026020526040902060050154612993906134fb90600a6141cd565b60008981526002602052604090206003015461351890899061351a565b905b6000612fc382846141d9565b6000612fc38284613e6a565b6000828152600260205260409020600601548111156135855760405162461bcd60e51b815260206004820152600f60248201526e082dadeeadce840e8dede40d0d2ced608b1b6044820152606401610688565b6000828152600260209081526040808320600101548151631c90f85d60e31b815291516001600160a01b039091169263e487c2e892600480820193918290030181865afa1580156135da573d6000803e3d6000fd5b505050506040513d601f19601f820116820180604052508101906135fe9190613ecd565b60008481526002602052604090206006015490915061361d908361317b565b60008481526002602052604090819020600681019290925560019091015490516001600160a01b039182169183169085907fecc75f4464886bee0a1c5eae61c0cb4b99c64c5e9cdebe3696217d266f8b16369061367d9087815260200190565b60405180910390a46000838152600260205260409020600101546112d4906001600160a01b03168284613118565b6000828152600260205260409020600701548111156136fe5760405162461bcd60e51b815260206004820152600f60248201526e082dadeeadce840e8dede40d0d2ced608b1b6044820152606401610688565b6000828152600260209081526040808320600101548151631c90f85d60e31b815291516001600160a01b039091169263e487c2e892600480820193918290030181865afa158015613753573d6000803e3d6000fd5b505050506040513d601f19601f820116820180604052508101906137779190613ecd565b600084815260026020526040902060070154909150613796908361317b565b600084815260026020818152604092839020600781019490945592015490518481526001600160a01b03918216929184169186917fecc75f4464886bee0a1c5eae61c0cb4b99c64c5e9cdebe3696217d266f8b1636910160405180910390a4600083815260026020819052604090912001546112d4906001600160a01b03168284613118565b61383d846323b872dd60e01b85858560405160240161314493929190613e8c565b50505050565b6000613898826040518060400160405280602081526020017f5361666545524332303a206c6f772d6c6576656c2063616c6c206661696c6564815250856001600160a01b03166139159092919063ffffffff16565b8051909150156112d457808060200190518101906138b69190613eb0565b6112d45760405162461bcd60e51b815260206004820152602a60248201527f5361666545524332303a204552433230206f7065726174696f6e20646964206e6044820152691bdd081cdd58d8d9595960b21b6064820152608401610688565b6060613924848460008561392c565b949350505050565b60608247101561398d5760405162461bcd60e51b815260206004820152602660248201527f416464726573733a20696e73756666696369656e742062616c616e636520666f6044820152651c8818d85b1b60d21b6064820152608401610688565b843b6139db5760405162461bcd60e51b815260206004820152601d60248201527f416464726573733a2063616c6c20746f206e6f6e2d636f6e74726163740000006044820152606401610688565b600080866001600160a01b031685876040516139f79190614224565b60006040518083038185875af1925050503d8060008114613a34576040519150601f19603f3d011682016040523d82523d6000602084013e613a39565b606091505b5091509150613a49828286613a54565b979650505050505050565b60608315613a63575081612fc3565b825115613a735782518084602001fd5b8160405162461bcd60e51b81526004016106889190614240565b6001600160a01b03811681146118b757600080fd5b634e487b7160e01b600052604160045260246000fd5b604051601f8201601f1916810167ffffffffffffffff81118282101715613ae157613ae1613aa2565b604052919050565b600067ffffffffffffffff821115613b0357613b03613aa2565b5060051b60200190565b600082601f830112613b1e57600080fd5b81356020613b33613b2e83613ae9565b613ab8565b82815260059290921b84018101918181019086841115613b5257600080fd5b8286015b84811015613b6d5780358352918301918301613b56565b509695505050505050565b600080600060608486031215613b8d57600080fd5b8335613b9881613a8d565b925060208481013567ffffffffffffffff80821115613bb657600080fd5b818701915087601f830112613bca57600080fd5b8135613bd8613b2e82613ae9565b81815260059190911b8301840190848101908a831115613bf757600080fd5b938501935b82851015613c1e578435613c0f81613a8d565b82529385019390850190613bfc565b965050506040870135925080831115613c3657600080fd5b5050613c4486828701613b0d565b9150509250925092565b600060208284031215613c6057600080fd5b5035919050565b6020808252825182820181905260009190848201906040850190845b81811015613c9f57835183529284019291840191600101613c83565b50909695505050505050565b600080600080600060a08688031215613cc357600080fd5b8535945060208601359350604086013592506060860135613ce381613a8d565b949793965091946080013592915050565b60008060408385031215613d0757600080fd5b823591506020830135613d1981613a8d565b809150509250929050565b60008060408385031215613d3757600080fd5b50508035926020909101359150565b80151581146118b757600080fd5b60008060408385031215613d6757600080fd5b823591506020830135613d1981613d46565b600060208284031215613d8b57600080fd5b8135612fc381613a8d565b600080600060608486031215613dab57600080fd5b505081359360208301359350604090920135919050565b60008060408385031215613dd557600080fd5b8235613de081613a8d565b91506020830135613d1981613a8d565b634e487b7160e01b600052603260045260246000fd5b6020808252602e908201527f46697865645261746545786368616e67653a20496e76616c696420657863686160408201526d6e676520726174652076616c756560901b606082015260800190565b634e487b7160e01b600052601160045260246000fd5b600082613e8757634e487b7160e01b600052601260045260246000fd5b500490565b6001600160a01b039384168152919092166020820152604081019190915260600190565b600060208284031215613ec257600080fd5b8151612fc381613d46565b600060208284031215613edf57600080fd5b8151612fc381613a8d565b60208082526029908201527f46697865645261746545786368616e67653a20696e76616c69642065786368616040820152683733b29037bbb732b960b91b606082015260800190565b6020808252602b908201527f46697865645261746545786368616e67653a2045786368616e676520646f657360408201526a206e6f742065786973742160a81b606082015260800190565b60208082526028908201527f46697865645261746545786368616e67653a207a65726f2064617461746f6b656040820152671b88185b5bdd5b9d60c21b606082015260800190565b60208082526036908201527f46697865645261746545786368616e67653a205468697320616464726573732060408201527506973206e6f7420616c6c6f77656420746f20737761760541b606082015260800190565b60006020828403121561402e57600080fd5b5051919050565b60008282101561404757614047613e54565b500390565b6000821982111561405f5761405f613e54565b500190565b60006080828403121561407657600080fd5b6040516080810181811067ffffffffffffffff8211171561409957614099613aa2565b60405282516140a781613d46565b815260208301516140b781613d46565b602082015260408301516140ca81613d46565b604082015260608301516140dd81613d46565b60608201529392505050565b600181815b8085111561412457816000190482111561410a5761410a613e54565b8085161561411757918102915b93841c93908002906140ee565b509250929050565b60008261413b575060016128e3565b81614148575060006128e3565b816001811461415e576002811461416857614184565b60019150506128e3565b60ff84111561417957614179613e54565b50506001821b6128e3565b5060208310610133831016604e8410600b84101617156141a7575081810a6128e3565b6141b183836140e9565b80600019048211156141c5576141c5613e54565b029392505050565b6000612fc3838361412c565b60008160001904831182151516156141f3576141f3613e54565b500290565b60005b838110156142135781810151838201526020016141fb565b8381111561383d5750506000910152565b600082516142368184602087016141f8565b9190910192915050565b602081526000825180602084015261425f8160408501602087016141f8565b601f01601f1916919091016040019291505056fea2646970667358221220d2d836ad3efc49187dc2a4e5f33781ed02141425d83a7a7641e432280ff8fcae64736f6c634300080c0033",
  "linkReferences": {},
  "deployedLinkReferences": {}
}