{
  "_format": "hh-sol-artifact-1",
  "contractName": "FixedRateExchange",
  "sourceName": "contracts/pools/fixedRate/FixedRateExchange.sol",
  "abi": [
    {
      "inputs": [
        {
          "internalType": "address",
          "name": "_router",
          "type": "address"
        },
        {
          "internalType": "address",
          "name": "_opcCollector",
          "type": "address"
        }
      ],
      "stateMutability": "nonpayable",
      "type": "constructor"
    },
    {
      "anonymous": false,
      "inputs": [
        {
          "indexed": true,
          "internalType": "bytes32",
          "name": "exchangeId",
          "type": "bytes32"
        },
        {
          "indexed": false,
          "internalType": "address",
          "name": "to",
          "type": "address"
        },
        {
          "indexed": false,
          "internalType": "address",
          "name": "token",
          "type": "address"
        },
        {
          "indexed": false,
          "internalType": "uint256",
          "name": "amount",
          "type": "uint256"
        }
      ],
      "name": "ConsumeMarketFee",
      "type": "event"
    },
    {
      "anonymous": false,
      "inputs": [
        {
          "indexed": true,
          "internalType": "bytes32",
          "name": "exchangeId",
          "type": "bytes32"
        },
        {
          "indexed": true,
          "internalType": "address",
          "name": "exchangeOwner",
          "type": "address"
        }
      ],
      "name": "ExchangeActivated",
      "type": "event"
    },
    {
      "anonymous": false,
      "inputs": [
        {
          "indexed": true,
          "internalType": "bytes32",
          "name": "exchangeId",
          "type": "bytes32"
        },
        {
          "indexed": true,
          "internalType": "address",
          "name": "allowedSwapper",
          "type": "address"
        }
      ],
      "name": "ExchangeAllowedSwapperChanged",
      "type": "event"
    },
    {
      "anonymous": false,
      "inputs": [
        {
          "indexed": true,
          "internalType": "bytes32",
          "name": "exchangeId",
          "type": "bytes32"
        },
        {
          "indexed": true,
          "internalType": "address",
          "name": "baseToken",
          "type": "address"
        },
        {
          "indexed": true,
          "internalType": "address",
          "name": "datatoken",
          "type": "address"
        },
        {
          "indexed": false,
          "internalType": "address",
          "name": "exchangeOwner",
          "type": "address"
        },
        {
          "indexed": false,
          "internalType": "uint256",
          "name": "fixedRate",
          "type": "uint256"
        }
      ],
      "name": "ExchangeCreated",
      "type": "event"
    },
    {
      "anonymous": false,
      "inputs": [
        {
          "indexed": true,
          "internalType": "bytes32",
          "name": "exchangeId",
          "type": "bytes32"
        },
        {
          "indexed": true,
          "internalType": "address",
          "name": "exchangeOwner",
          "type": "address"
        }
      ],
      "name": "ExchangeDeactivated",
      "type": "event"
    },
    {
      "anonymous": false,
      "inputs": [
        {
          "indexed": true,
          "internalType": "bytes32",
          "name": "exchangeId",
          "type": "bytes32"
        },
        {
          "indexed": true,
          "internalType": "address",
          "name": "exchangeOwner",
          "type": "address"
        },
        {
          "indexed": false,
          "internalType": "bool",
          "name": "withMint",
          "type": "bool"
        }
      ],
      "name": "ExchangeMintStateChanged",
      "type": "event"
    },
    {
      "anonymous": false,
      "inputs": [
        {
          "indexed": true,
          "internalType": "bytes32",
          "name": "exchangeId",
          "type": "bytes32"
        },
        {
          "indexed": true,
          "internalType": "address",
          "name": "exchangeOwner",
          "type": "address"
        },
        {
          "indexed": false,
          "internalType": "uint256",
          "name": "newRate",
          "type": "uint256"
        }
      ],
      "name": "ExchangeRateChanged",
      "type": "event"
    },
    {
      "anonymous": false,
      "inputs": [
        {
          "indexed": true,
          "internalType": "bytes32",
          "name": "exchangeId",
          "type": "bytes32"
        },
        {
          "indexed": true,
          "internalType": "address",
          "name": "feeToken",
          "type": "address"
        },
        {
          "indexed": false,
          "internalType": "uint256",
          "name": "feeAmount",
          "type": "uint256"
        }
      ],
      "name": "MarketFeeCollected",
      "type": "event"
    },
    {
      "anonymous": false,
      "inputs": [
        {
          "indexed": true,
          "internalType": "bytes32",
          "name": "exchangeId",
          "type": "bytes32"
        },
        {
          "indexed": true,
          "internalType": "address",
          "name": "feeToken",
          "type": "address"
        },
        {
          "indexed": false,
          "internalType": "uint256",
          "name": "feeAmount",
          "type": "uint256"
        }
      ],
      "name": "OceanFeeCollected",
      "type": "event"
    },
    {
      "anonymous": false,
      "inputs": [
        {
          "indexed": true,
          "internalType": "bytes32",
          "name": "exchangeId",
          "type": "bytes32"
        },
        {
          "indexed": false,
          "internalType": "address",
          "name": "caller",
          "type": "address"
        },
        {
          "indexed": false,
          "internalType": "address",
          "name": "newMarketCollector",
          "type": "address"
        },
        {
          "indexed": false,
          "internalType": "uint256",
          "name": "swapFee",
          "type": "uint256"
        }
      ],
      "name": "PublishMarketFeeChanged",
      "type": "event"
    },
    {
      "anonymous": false,
      "inputs": [
        {
          "indexed": true,
          "internalType": "bytes32",
          "name": "exchangeId",
          "type": "bytes32"
        },
        {
          "indexed": false,
          "internalType": "uint256",
          "name": "oceanFeeAmount",
          "type": "uint256"
        },
        {
          "indexed": false,
          "internalType": "uint256",
          "name": "marketFeeAmount",
          "type": "uint256"
        },
        {
          "indexed": false,
          "internalType": "uint256",
          "name": "consumeMarketFeeAmount",
          "type": "uint256"
        },
        {
          "indexed": false,
          "internalType": "address",
          "name": "tokenFeeAddress",
          "type": "address"
        }
      ],
      "name": "SWAP_FEES",
      "type": "event"
    },
    {
      "anonymous": false,
      "inputs": [
        {
          "indexed": true,
          "internalType": "bytes32",
          "name": "exchangeId",
          "type": "bytes32"
        },
        {
          "indexed": true,
          "internalType": "address",
          "name": "by",
          "type": "address"
        },
        {
          "indexed": false,
          "internalType": "uint256",
          "name": "baseTokenSwappedAmount",
          "type": "uint256"
        },
        {
          "indexed": false,
          "internalType": "uint256",
          "name": "datatokenSwappedAmount",
          "type": "uint256"
        },
        {
          "indexed": false,
          "internalType": "address",
          "name": "tokenOutAddress",
          "type": "address"
        },
        {
          "indexed": false,
          "internalType": "uint256",
          "name": "marketFeeAmount",
          "type": "uint256"
        },
        {
          "indexed": false,
          "internalType": "uint256",
          "name": "oceanFeeAmount",
          "type": "uint256"
        },
        {
          "indexed": false,
          "internalType": "uint256",
          "name": "consumeMarketFeeAmount",
          "type": "uint256"
        }
      ],
      "name": "Swapped",
      "type": "event"
    },
    {
      "anonymous": false,
      "inputs": [
        {
          "indexed": true,
          "internalType": "bytes32",
          "name": "exchangeId",
          "type": "bytes32"
        },
        {
          "indexed": true,
          "internalType": "address",
          "name": "to",
          "type": "address"
        },
        {
          "indexed": true,
          "internalType": "address",
          "name": "token",
          "type": "address"
        },
        {
          "indexed": false,
          "internalType": "uint256",
          "name": "amount",
          "type": "uint256"
        }
      ],
      "name": "TokenCollected",
      "type": "event"
    },
    {
      "inputs": [],
      "name": "MAX_FEE",
      "outputs": [
        {
          "internalType": "uint256",
          "name": "",
          "type": "uint256"
        }
      ],
      "stateMutability": "view",
      "type": "function"
    },
    {
      "inputs": [],
      "name": "MIN_FEE",
      "outputs": [
        {
          "internalType": "uint256",
          "name": "",
          "type": "uint256"
        }
      ],
      "stateMutability": "view",
      "type": "function"
    },
    {
      "inputs": [],
      "name": "MIN_RATE",
      "outputs": [
        {
          "internalType": "uint256",
          "name": "",
          "type": "uint256"
        }
      ],
      "stateMutability": "view",
      "type": "function"
    },
    {
      "inputs": [
        {
          "internalType": "bytes32",
          "name": "exchangeId",
          "type": "bytes32"
        },
        {
          "internalType": "uint256",
          "name": "datatokenAmount",
          "type": "uint256"
        },
        {
          "internalType": "uint256",
          "name": "maxBaseTokenAmount",
          "type": "uint256"
        },
        {
          "internalType": "address",
          "name": "consumeMarketAddress",
          "type": "address"
        },
        {
          "internalType": "uint256",
          "name": "consumeMarketSwapFeeAmount",
          "type": "uint256"
        }
      ],
      "name": "buyDT",
      "outputs": [],
      "stateMutability": "nonpayable",
      "type": "function"
    },
    {
      "inputs": [
        {
          "internalType": "bytes32",
          "name": "exchangeId",
          "type": "bytes32"
        },
        {
          "internalType": "uint256",
          "name": "datatokenAmount",
          "type": "uint256"
        },
        {
          "internalType": "uint256",
          "name": "consumeMarketSwapFeeAmount",
          "type": "uint256"
        }
      ],
      "name": "calcBaseInGivenOutDT",
      "outputs": [
        {
          "internalType": "uint256",
          "name": "baseTokenAmount",
          "type": "uint256"
        },
        {
          "internalType": "uint256",
          "name": "oceanFeeAmount",
          "type": "uint256"
        },
        {
          "internalType": "uint256",
          "name": "publishMarketFeeAmount",
          "type": "uint256"
        },
        {
          "internalType": "uint256",
          "name": "consumeMarketFeeAmount",
          "type": "uint256"
        }
      ],
      "stateMutability": "view",
      "type": "function"
    },
    {
      "inputs": [
        {
          "internalType": "bytes32",
          "name": "exchangeId",
          "type": "bytes32"
        },
        {
          "internalType": "uint256",
          "name": "datatokenAmount",
          "type": "uint256"
        },
        {
          "internalType": "uint256",
          "name": "consumeMarketSwapFeeAmount",
          "type": "uint256"
        }
      ],
      "name": "calcBaseOutGivenInDT",
      "outputs": [
        {
          "internalType": "uint256",
          "name": "baseTokenAmount",
          "type": "uint256"
        },
        {
          "internalType": "uint256",
          "name": "oceanFeeAmount",
          "type": "uint256"
        },
        {
          "internalType": "uint256",
          "name": "publishMarketFeeAmount",
          "type": "uint256"
        },
        {
          "internalType": "uint256",
          "name": "consumeMarketFeeAmount",
          "type": "uint256"
        }
      ],
      "stateMutability": "view",
      "type": "function"
    },
    {
      "inputs": [
        {
          "internalType": "bytes32",
          "name": "exchangeId",
          "type": "bytes32"
        },
        {
          "internalType": "uint256",
          "name": "amount",
          "type": "uint256"
        }
      ],
      "name": "collectBT",
      "outputs": [],
      "stateMutability": "nonpayable",
      "type": "function"
    },
    {
      "inputs": [
        {
          "internalType": "bytes32",
          "name": "exchangeId",
          "type": "bytes32"
        },
        {
          "internalType": "uint256",
          "name": "amount",
          "type": "uint256"
        }
      ],
      "name": "collectDT",
      "outputs": [],
      "stateMutability": "nonpayable",
      "type": "function"
    },
    {
      "inputs": [
        {
          "internalType": "bytes32",
          "name": "exchangeId",
          "type": "bytes32"
        }
      ],
      "name": "collectMarketFee",
      "outputs": [],
      "stateMutability": "nonpayable",
      "type": "function"
    },
    {
      "inputs": [
        {
          "internalType": "bytes32",
          "name": "exchangeId",
          "type": "bytes32"
        }
      ],
      "name": "collectOceanFee",
      "outputs": [],
      "stateMutability": "nonpayable",
      "type": "function"
    },
    {
      "inputs": [
        {
          "internalType": "address",
          "name": "datatoken",
          "type": "address"
        },
        {
          "internalType": "address[]",
          "name": "addresses",
          "type": "address[]"
        },
        {
          "internalType": "uint256[]",
          "name": "uints",
          "type": "uint256[]"
        }
      ],
      "name": "createWithDecimals",
      "outputs": [
        {
          "internalType": "bytes32",
          "name": "exchangeId",
          "type": "bytes32"
        }
      ],
      "stateMutability": "nonpayable",
      "type": "function"
    },
    {
      "inputs": [
        {
          "internalType": "address",
          "name": "baseToken",
          "type": "address"
        },
        {
          "internalType": "address",
          "name": "datatoken",
          "type": "address"
        }
      ],
      "name": "generateExchangeId",
      "outputs": [
        {
          "internalType": "bytes32",
          "name": "",
          "type": "bytes32"
        }
      ],
      "stateMutability": "pure",
      "type": "function"
    },
    {
      "inputs": [
        {
          "internalType": "bytes32",
          "name": "exchangeId",
          "type": "bytes32"
        }
      ],
      "name": "getAllowedSwapper",
      "outputs": [
        {
          "internalType": "address",
          "name": "allowedSwapper",
          "type": "address"
        }
      ],
      "stateMutability": "view",
      "type": "function"
    },
    {
      "inputs": [
        {
          "internalType": "bytes32",
          "name": "exchangeId",
          "type": "bytes32"
        }
      ],
      "name": "getBTSupply",
      "outputs": [
        {
          "internalType": "uint256",
          "name": "supply",
          "type": "uint256"
        }
      ],
      "stateMutability": "view",
      "type": "function"
    },
    {
      "inputs": [
        {
          "internalType": "bytes32",
          "name": "exchangeId",
          "type": "bytes32"
        }
      ],
      "name": "getDTSupply",
      "outputs": [
        {
          "internalType": "uint256",
          "name": "supply",
          "type": "uint256"
        }
      ],
      "stateMutability": "view",
      "type": "function"
    },
    {
      "inputs": [
        {
          "internalType": "bytes32",
          "name": "exchangeId",
          "type": "bytes32"
        }
      ],
      "name": "getExchange",
      "outputs": [
        {
          "internalType": "address",
          "name": "exchangeOwner",
          "type": "address"
        },
        {
          "internalType": "address",
          "name": "datatoken",
          "type": "address"
        },
        {
          "internalType": "uint256",
          "name": "dtDecimals",
          "type": "uint256"
        },
        {
          "internalType": "address",
          "name": "baseToken",
          "type": "address"
        },
        {
          "internalType": "uint256",
          "name": "btDecimals",
          "type": "uint256"
        },
        {
          "internalType": "uint256",
          "name": "fixedRate",
          "type": "uint256"
        },
        {
          "internalType": "bool",
          "name": "active",
          "type": "bool"
        },
        {
          "internalType": "uint256",
          "name": "dtSupply",
          "type": "uint256"
        },
        {
          "internalType": "uint256",
          "name": "btSupply",
          "type": "uint256"
        },
        {
          "internalType": "uint256",
          "name": "dtBalance",
          "type": "uint256"
        },
        {
          "internalType": "uint256",
          "name": "btBalance",
          "type": "uint256"
        },
        {
          "internalType": "bool",
          "name": "withMint",
          "type": "bool"
        }
      ],
      "stateMutability": "view",
      "type": "function"
    },
    {
      "inputs": [],
      "name": "getExchanges",
      "outputs": [
        {
          "internalType": "bytes32[]",
          "name": "",
          "type": "bytes32[]"
        }
      ],
      "stateMutability": "view",
      "type": "function"
    },
    {
      "inputs": [
        {
          "internalType": "bytes32",
          "name": "exchangeId",
          "type": "bytes32"
        }
      ],
      "name": "getFeesInfo",
      "outputs": [
        {
          "internalType": "uint256",
          "name": "marketFee",
          "type": "uint256"
        },
        {
          "internalType": "address",
          "name": "marketFeeCollector",
          "type": "address"
        },
        {
          "internalType": "uint256",
          "name": "opcFee",
          "type": "uint256"
        },
        {
          "internalType": "uint256",
          "name": "marketFeeAvailable",
          "type": "uint256"
        },
        {
          "internalType": "uint256",
          "name": "oceanFeeAvailable",
          "type": "uint256"
        }
      ],
      "stateMutability": "view",
      "type": "function"
    },
    {
      "inputs": [],
      "name": "getId",
      "outputs": [
        {
          "internalType": "uint8",
          "name": "",
          "type": "uint8"
        }
      ],
      "stateMutability": "pure",
      "type": "function"
    },
    {
      "inputs": [
        {
          "internalType": "bytes32",
          "name": "exchangeId",
          "type": "bytes32"
        }
      ],
      "name": "getMarketFee",
      "outputs": [
        {
          "internalType": "uint256",
          "name": "",
          "type": "uint256"
        }
      ],
      "stateMutability": "view",
      "type": "function"
    },
    {
      "inputs": [],
      "name": "getNumberOfExchanges",
      "outputs": [
        {
          "internalType": "uint256",
          "name": "",
          "type": "uint256"
        }
      ],
      "stateMutability": "view",
      "type": "function"
    },
    {
      "inputs": [
        {
          "internalType": "address",
          "name": "baseTokenAddress",
          "type": "address"
        }
      ],
      "name": "getOPCFee",
      "outputs": [
        {
          "internalType": "uint256",
          "name": "",
          "type": "uint256"
        }
      ],
      "stateMutability": "view",
      "type": "function"
    },
    {
      "inputs": [
        {
          "internalType": "bytes32",
          "name": "exchangeId",
          "type": "bytes32"
        }
      ],
      "name": "getRate",
      "outputs": [
        {
          "internalType": "uint256",
          "name": "",
          "type": "uint256"
        }
      ],
      "stateMutability": "view",
      "type": "function"
    },
    {
      "inputs": [
        {
          "internalType": "bytes32",
          "name": "exchangeId",
          "type": "bytes32"
        }
      ],
      "name": "isActive",
      "outputs": [
        {
          "internalType": "bool",
          "name": "",
          "type": "bool"
        }
      ],
      "stateMutability": "view",
      "type": "function"
    },
    {
      "inputs": [],
      "name": "opcCollector",
      "outputs": [
        {
          "internalType": "address",
          "name": "",
          "type": "address"
        }
      ],
      "stateMutability": "view",
      "type": "function"
    },
    {
      "inputs": [],
      "name": "router",
      "outputs": [
        {
          "internalType": "address",
          "name": "",
          "type": "address"
        }
      ],
      "stateMutability": "view",
      "type": "function"
    },
    {
      "inputs": [
        {
          "internalType": "bytes32",
          "name": "exchangeId",
          "type": "bytes32"
        },
        {
          "internalType": "uint256",
          "name": "datatokenAmount",
          "type": "uint256"
        },
        {
          "internalType": "uint256",
          "name": "minBaseTokenAmount",
          "type": "uint256"
        },
        {
          "internalType": "address",
          "name": "consumeMarketAddress",
          "type": "address"
        },
        {
          "internalType": "uint256",
          "name": "consumeMarketSwapFeeAmount",
          "type": "uint256"
        }
      ],
      "name": "sellDT",
      "outputs": [],
      "stateMutability": "nonpayable",
      "type": "function"
    },
    {
      "inputs": [
        {
          "internalType": "bytes32",
          "name": "exchangeId",
          "type": "bytes32"
        },
        {
          "internalType": "address",
          "name": "newAllowedSwapper",
          "type": "address"
        }
      ],
      "name": "setAllowedSwapper",
      "outputs": [],
      "stateMutability": "nonpayable",
      "type": "function"
    },
    {
      "inputs": [
        {
          "internalType": "bytes32",
          "name": "exchangeId",
          "type": "bytes32"
        },
        {
          "internalType": "uint256",
          "name": "newRate",
          "type": "uint256"
        }
      ],
      "name": "setRate",
      "outputs": [],
      "stateMutability": "nonpayable",
      "type": "function"
    },
    {
      "inputs": [
        {
          "internalType": "bytes32",
          "name": "exchangeId",
          "type": "bytes32"
        }
      ],
      "name": "toggleExchangeState",
      "outputs": [],
      "stateMutability": "nonpayable",
      "type": "function"
    },
    {
      "inputs": [
        {
          "internalType": "bytes32",
          "name": "exchangeId",
          "type": "bytes32"
        },
        {
          "internalType": "bool",
          "name": "withMint",
          "type": "bool"
        }
      ],
      "name": "toggleMintState",
      "outputs": [],
      "stateMutability": "nonpayable",
      "type": "function"
    },
    {
      "inputs": [
        {
          "internalType": "bytes32",
          "name": "exchangeId",
          "type": "bytes32"
        },
        {
          "internalType": "uint256",
          "name": "_newMarketFee",
          "type": "uint256"
        }
      ],
      "name": "updateMarketFee",
      "outputs": [],
      "stateMutability": "nonpayable",
      "type": "function"
    },
    {
      "inputs": [
        {
          "internalType": "bytes32",
          "name": "exchangeId",
          "type": "bytes32"
        },
        {
          "internalType": "address",
          "name": "_newMarketCollector",
          "type": "address"
        }
      ],
      "name": "updateMarketFeeCollector",
      "outputs": [],
      "stateMutability": "nonpayable",
      "type": "function"
    }
  ],
  "bytecode": "0x60806040523480156200001157600080fd5b506040516200447e3803806200447e833981016040819052620000349162000158565b60016000556001600160a01b038216620000a55760405162461bcd60e51b815260206004820152602760248201527f46697865645261746545786368616e67653a2057726f6e6720526f75746572206044820152666164647265737360c81b60648201526084015b60405180910390fd5b6001600160a01b038116620001095760405162461bcd60e51b8152602060048201526024808201527f46697865645261746545786368616e67653a2057726f6e67204f5043206164646044820152637265737360e01b60648201526084016200009c565b600180546001600160a01b039384166001600160a01b0319918216179091556002805492909316911617905562000190565b80516001600160a01b03811681146200015357600080fd5b919050565b600080604083850312156200016c57600080fd5b62000177836200013b565b915062000187602084016200013b565b90509250929050565b6142de80620001a06000396000f3fe608060405234801561001057600080fd5b50600436106101fb5760003560e01c80637c82ebe91161011a578063bc063e1a116100ad578063d819bfef1161007c578063d819bfef146105f6578063dd1bc96a14610602578063ed2fc85914610615578063f32f947614610628578063f887ea401461063b57600080fd5b8063bc063e1a1461058e578063c2c0d1ab1461059d578063c612e48a146105d0578063c66274ea146105e357600080fd5b8063b32b56f9116100e9578063b32b56f91461053c578063b424142914610560578063b686bcaf14610568578063b8421e2b1461057b57600080fd5b80637c82ebe91461041b578063855058dd1461042e57806385fcbc2f14610516578063888238721461052957600080fd5b80635acfedc711610192578063680819eb11610161578063680819eb146103da57806368c4b7e9146103ed57806376c7a3c71461040057806379dd28361461040857600080fd5b80635acfedc7146103725780635c36901c146103855780635d1ca631146103b857806360311e95146103c757600080fd5b806324cb477e116101ce57806324cb477e146102a95780632e7e23b3146102be5780634c87087d146102e157806350d571d51461035f57600080fd5b8063012c32751461020057806303814238146102265780630b3b430d146102515780631e2e3a6b14610294575b600080fd5b61021361020e366004613b76565b61064e565b6040519081526020015b60405180910390f35b600254610239906001600160a01b031681565b6040516001600160a01b03909116815260200161021d565b61026461025f366004613c4c565b610f6b565b604080519586526001600160a01b039094166020860152928401919091526060830152608082015260a00161021d565b61029c611075565b60405161021d9190613c65565b6102bc6102b7366004613c4c565b6110cd565b005b6102136102cc366004613c4c565b60009081526003602052604090206008015490565b6102f46102ef366004613c4c565b6112f3565b604080516001600160a01b039d8e1681529b8d1660208d01528b0199909952999096166060890152608088019490945260a0870192909252151560c086015260e08501526101008401526101208301526101408201929092529015156101608201526101800161021d565b6102bc61036d366004613ca9565b611396565b6102bc610380366004613c4c565b6118ce565b6103a8610393366004613c4c565b60009081526003602052604090205460ff1690565b604051901515815260200161021d565b6040516001815260200161021d565b6102bc6103d5366004613cf2565b611907565b6102bc6103e8366004613d22565b611aee565b6102bc6103fb366004613ca9565b611cec565b6102136122ed565b6102bc610416366004613d52565b612304565b6102bc610429366004613cf2565b61250e565b61023961043c366004613c4c565b60009081526003602081815260409283902083516101e081018552815460ff808216151583526001600160a01b03610100928390048116958401959095526001840154851696830196909652600283015484166060830152938201546080820152600482015460a0820152600582015460c0820152600682015460e0820152600782015484820152600882015461012082015260098201548316610140820152600a820154610160820152600b820154610180820152600c9091015493841615156101a0820152919092049091166101c090910181905290565b610213610524366004613c4c565b6125e1565b6102bc610537366004613d22565b612767565b61021361054a366004613c4c565b6000908152600360208190526040909120015490565b600454610213565b6102bc610576366004613c4c565b6128cc565b610213610589366004613d77565b6128fd565b6102136706f05b59d3b2000081565b6105b06105ab366004613d94565b612972565b60408051948552602085019390935291830152606082015260800161021d565b6102bc6105de366004613d22565b612b03565b6102136105f1366004613c4c565b612b3e565b6102136402540be40081565b6105b0610610366004613d94565b612e50565b610213610623366004613dc0565b612fb3565b6102bc610636366004613d22565b612feb565b600154610239906001600160a01b031681565b6001546000906001600160a01b031633146106b05760405162461bcd60e51b815260206004820152601e60248201527f46697865645261746545786368616e67653a206f6e6c7920726f75746572000060448201526064015b60405180910390fd5b6005825110156106f95760405162461bcd60e51b8152602060048201526014602482015273092dcecc2d8d2c840ead2dce8e640d8cadccee8d60631b60448201526064016106a7565b60048351101561074b5760405162461bcd60e51b815260206004820152601860248201527f496e76616c696420616464726573736573206c656e677468000000000000000060448201526064016106a7565b60006001600160a01b03168360008151811061076957610769613dee565b60200260200101516001600160a01b031614156107e45760405162461bcd60e51b815260206004820152603360248201527f46697865645261746545786368616e67653a20496e76616c69642062617365546044820152726f6b656e2c20207a65726f206164647265737360681b60648201526084016106a7565b6001600160a01b0384166108565760405162461bcd60e51b815260206004820152603360248201527f46697865645261746545786368616e67653a20496e76616c69642064617461746044820152726f6b656e2c20207a65726f206164647265737360681b60648201526084016106a7565b836001600160a01b03168360008151811061087357610873613dee565b60200260200101516001600160a01b031614156108f85760405162461bcd60e51b815260206004820152603760248201527f46697865645261746545786368616e67653a20496e76616c696420646174617460448201527f6f6b656e2c2020657175616c732062617365546f6b656e00000000000000000060648201526084016106a7565b6402540be4008260028151811061091157610911613dee565b602002602001015110156109375760405162461bcd60e51b81526004016106a790613e04565b61095b8360008151811061094d5761094d613dee565b602002602001015185612fb3565b60008181526003602081905260409091200154909150156109d25760405162461bcd60e51b815260206004820152602b60248201527f46697865645261746545786368616e67653a2045786368616e676520616c726560448201526a616479206578697374732160a81b60648201526084016106a7565b600060019050826004815181106109eb576109eb613dee565b6020026020010151600014156109ff575060005b604051806101e0016040528060011515815260200185600181518110610a2757610a27613dee565b60200260200101516001600160a01b03168152602001866001600160a01b0316815260200185600081518110610a5f57610a5f613dee565b60200260200101516001600160a01b0316815260200184600281518110610a8857610a88613dee565b6020026020010151815260200184600181518110610aa857610aa8613dee565b6020026020010151815260200184600081518110610ac857610ac8613dee565b60200260200101518152602001600081526020016000815260200184600381518110610af657610af6613dee565b6020026020010151815260200185600281518110610b1657610b16613dee565b60200260200101516001600160a01b031681526020016000815260200160008152602001821515815260200185600381518110610b5557610b55613dee565b6020908102919091018101516001600160a01b039081169092526000858152600380835260409182902085518154948701518616610100908102610100600160a81b031992151583166001600160a81b031997881617178355938701516001830180549188166001600160a01b0319928316179055606088015160028401805491891691831691909117905560808801518385015560a0880151600484015560c0880151600584015560e08801516006840155848801516007840155610120880151600884015561014088015160098401805491891691909216179055610160870151600a830155610180870151600b8301556101a0870151600c90920180546101c090980151909616909302901515909216949092169390931792909217905583518491908110610c8957610c89613dee565b602002602001015160001480610ccc5750610cae612710670de0b6b3a7640000613e68565b83600381518110610cc157610cc1613dee565b602002602001015110155b610d0a5760405162461bcd60e51b815260206004820152600f60248201526e5377617046656520746f6f206c6f7760881b60448201526064016106a7565b6706f05b59d3b2000083600381518110610d2657610d26613dee565b60200260200101511115610d6f5760405162461bcd60e51b815260206004820152601060248201526f0a6eec2e08ccaca40e8dede40d0d2ced60831b60448201526064016106a7565b6004805460018101825560009182527f8a35acfbc15ff81a39ae7d344fd709f28e8600b4aa8c65c6b64bfe7fe36bd19b0183905584516001600160a01b038716918691610dbe57610dbe613dee565b60200260200101516001600160a01b0316837feb7a353641f7d3cc54b497ef1553fdc292b64d9cc3be8587c23dfba01f310b1987600181518110610e0457610e04613dee565b602002602001015187600281518110610e1f57610e1f613dee565b6020026020010151604051610e499291906001600160a01b03929092168252602082015260400190565b60405180910390a483600181518110610e6457610e64613dee565b60200260200101516001600160a01b0316827fc7344c45124818d1d3a4c24ccb9b86d8b88d3bd05209b2a42b494cb32a50352960405160405180910390a383600381518110610eb557610eb5613dee565b60200260200101516001600160a01b0316827fcc1b4af8292e6b938f6743c78a62317c9a2d60e0d46b77776a027e53ce617c0c60405160405180910390a3817f1bf3af41af5ef4ea33bbeffb18acd246aae76d6f03bdb54916577c2e1ab03d523386600281518110610f2957610f29613dee565b602002602001015186600381518110610f4457610f44613dee565b6020026020010151604051610f5b93929190613e8a565b60405180910390a2509392505050565b600081815260036020818152604080842081516101e081018352815460ff808216151583526001600160a01b036101009283900481168488015260018501548116958401959095526002840154851660608401819052848801546080850152600485015460a0850152600585015460c0850152600685015460e085015260078501548385015260088501546101208501819052600986015487166101408601819052600a870154610160870152600b870154610180870152600c9096015492831615156101a0860152929091049094166101c0830152878752949093529293918291829190611059906128fd565b9350806101600151925080610180015191505091939590929450565b606060048054806020026020016040519081016040528092919081815260200182805480156110c357602002820191906000526020600020905b8154815260200190600101908083116110af575b5050505050905090565b600081815260036020526040908190206001015490516396fb3eaf60e01b815233600482015282916001600160a01b03169081906396fb3eaf90602401602060405180830381865afa158015611127573d6000803e3d6000fd5b505050506040513d601f19601f8201168201806040525081019061114b9190613eae565b806112325750336001600160a01b0316816001600160a01b0316627ffb786040518163ffffffff1660e01b8152600401602060405180830381865afa158015611198573d6000803e3d6000fd5b505050506040513d601f19601f820116820180604052508101906111bc9190613ecb565b6040516331a9108f60e11b8152600160048201526001600160a01b039190911690636352211e90602401602060405180830381865afa158015611203573d6000803e3d6000fd5b505050506040513d601f19601f820116820180604052508101906112279190613ecb565b6001600160a01b0316145b61124e5760405162461bcd60e51b81526004016106a790613ee8565b60008381526003602052604090205460ff16156112aa57600083815260036020526040808220805460ff1916905551339185917f03da9148e1de78fba22de63c573465562ebf6ef878a1d3ea83790a560229984c9190a3505050565b600083815260036020526040808220805460ff1916600117905551339185917fc7344c45124818d1d3a4c24ccb9b86d8b88d3bd05209b2a42b494cb32a5035299190a35b505050565b600081815260036020819052604082208054600182015460048301546002840154600585015494909501546001600160a01b0361010085048116979381169692959216939192909160ff16908080808061134c8d612b3e565b94506113578d6125e1565b60009d8e5260036020526040909d2060068101546007820154600c909201549d9f9c9e9b9d9a9c999b989a9799969897909691955060ff169350915050565b600085815260036020526040902054859060ff166113c65760405162461bcd60e51b81526004016106a790613f31565b600260005414156113e95760405162461bcd60e51b81526004016106a790613f7c565b60026000558461140b5760405162461bcd60e51b81526004016106a790613fb3565b81158061142b5750611427612710670de0b6b3a7640000613e68565b8210155b6114705760405162461bcd60e51b8152602060048201526016602482015275436f6e73756d655377617046656520746f6f206c6f7760501b60448201526064016106a7565b6706f05b59d3b200008211156114c25760405162461bcd60e51b8152602060048201526017602482015276086dedce6eadacaa6eec2e08ccaca40e8dede40d0d2ced604b1b60448201526064016106a7565b6000868152600360205260409020600c015461010090046001600160a01b031615611525576000868152600360205260409020600c015461010090046001600160a01b031633146115255760405162461bcd60e51b81526004016106a790613ffb565b6040805160808101825260008082526020820181905291810182905260608101919091526001600160a01b03841661155c57600092505b611567878785612972565b6060850152604084015260208301528082528511156115d75760405162461bcd60e51b815260206004820152602660248201527f46697865645261746545786368616e67653a20546f6f20666577206261736520604482015265746f6b656e7360d01b60648201526084016106a7565b602080820151600089815260039092526040909120600b01546115f99161301d565b60008881526003602052604090819020600b810192909255820151600a909101546116239161301d565b60036000898152602001908152602001600020600a01819055506000611670826060015161166a846040015161166a8660200151876000015161301d90919063ffffffff16565b9061301d565b60008981526003602052604090206001015490915061169a906001600160a01b031633308a613030565b6000888152600360205260409020600601546116b6908861301d565b600089815260036020526040902060068101919091556007015481111561173957600088815260036020526040902060028101549054611709916001600160a01b03908116916101009004163084613030565b8151600089815260036020526040902060020154611734916001600160a01b0390911690339061317e565b61178a565b60008881526003602052604090206007015461175590826131e1565b60008981526003602052604090206007810191909155825160029091015461178a916001600160a01b0390911690339061317e565b6001600160a01b038516158015906117a6575060008260600151115b156118395760608201516000898152600360205260409020600201546117d9916001600160a01b0390911690879061317e565b6000888152600360205260409081902060020154606084015191518a927f086a8edf7ac99098be3ce56ba76ae3e5a1e212fed5f803fc3167990fa03079b992611830928a926001600160a01b039092169190613e8a565b60405180910390a25b815160008981526003602090815260409182902060020154828601518287015160608089015186519788529487018e90526001600160a01b039093169486019490945290840152608083019190915260a0820152339089907f7b072645ce5b6a2fc627a544edee544b786747cafd1bb8f0e3238aa5f2e806469060c0015b60405180910390a350506001600055505050505050565b600260005414156118f15760405162461bcd60e51b81526004016106a790613f7c565b60026000556118ff816131ed565b506001600055565b600082815260036020526040908190206001015490516396fb3eaf60e01b815233600482015283916001600160a01b03169081906396fb3eaf90602401602060405180830381865afa158015611961573d6000803e3d6000fd5b505050506040513d601f19601f820116820180604052508101906119859190613eae565b80611a6c5750336001600160a01b0316816001600160a01b0316627ffb786040518163ffffffff1660e01b8152600401602060405180830381865afa1580156119d2573d6000803e3d6000fd5b505050506040513d601f19601f820116820180604052508101906119f69190613ecb565b6040516331a9108f60e11b8152600160048201526001600160a01b039190911690636352211e90602401602060405180830381865afa158015611a3d573d6000803e3d6000fd5b505050506040513d601f19601f82011682018060405250810190611a619190613ecb565b6001600160a01b0316145b611a885760405162461bcd60e51b81526004016106a790613ee8565b600084815260036020526040808220600c018054610100600160a81b0319166101006001600160a01b038816908102919091179091559051909186917fcc1b4af8292e6b938f6743c78a62317c9a2d60e0d46b77776a027e53ce617c0c9190a350505050565b600082815260036020526040908190206001015490516396fb3eaf60e01b815233600482015283916001600160a01b03169081906396fb3eaf90602401602060405180830381865afa158015611b48573d6000803e3d6000fd5b505050506040513d601f19601f82011682018060405250810190611b6c9190613eae565b80611c535750336001600160a01b0316816001600160a01b0316627ffb786040518163ffffffff1660e01b8152600401602060405180830381865afa158015611bb9573d6000803e3d6000fd5b505050506040513d601f19601f82011682018060405250810190611bdd9190613ecb565b6040516331a9108f60e11b8152600160048201526001600160a01b039190911690636352211e90602401602060405180830381865afa158015611c24573d6000803e3d6000fd5b505050506040513d601f19601f82011682018060405250810190611c489190613ecb565b6001600160a01b0316145b611c6f5760405162461bcd60e51b81526004016106a790613ee8565b6402540be400831015611c945760405162461bcd60e51b81526004016106a790613e04565b6000848152600360208190526040918290200184905551339085907fe50f9919fdc524004a4ee0cb934f4734f144bec0713a52e5483b753f5de0f08c90611cde9087815260200190565b60405180910390a350505050565b600085815260036020526040902054859060ff16611d1c5760405162461bcd60e51b81526004016106a790613f31565b60026000541415611d3f5760405162461bcd60e51b81526004016106a790613f7c565b600260005584611d615760405162461bcd60e51b81526004016106a790613fb3565b811580611d815750611d7d612710670de0b6b3a7640000613e68565b8210155b611dc65760405162461bcd60e51b8152602060048201526016602482015275436f6e73756d655377617046656520746f6f206c6f7760501b60448201526064016106a7565b6706f05b59d3b20000821115611e185760405162461bcd60e51b8152602060048201526017602482015276086dedce6eadacaa6eec2e08ccaca40e8dede40d0d2ced604b1b60448201526064016106a7565b6000868152600360205260409020600c015461010090046001600160a01b031615611e7b576000868152600360205260409020600c015461010090046001600160a01b03163314611e7b5760405162461bcd60e51b81526004016106a790613ffb565b6001600160a01b038316611e8e57600091505b6000604051806080016040528060008152602001600081526020016000815260200160008152509050611ec2878785612e50565b606085015260408401526020830152808252851015611f335760405162461bcd60e51b815260206004820152602760248201527f46697865645261746545786368616e67653a20546f6f206d616e79206261736560448201526620746f6b656e7360c81b60648201526084016106a7565b602080820151600089815260039092526040909120600b0154611f559161301d565b60008881526003602052604090819020600b810192909255820151600a90910154611f7f9161301d565b6000888152600360205260409020600a810191909155600201548151611fb2916001600160a01b03169033903090613030565b6000611fe58260600151611fdf8460400151611fdf866020015187600001516131e190919063ffffffff16565b906131e1565b600089815260036020526040902060070154909150612004908261301d565b6000898152600360205260409020600781019190915560060154871115612172576000888152600360205260409020600c015460ff1680156120bd5750600088815260036020526040908190206001015490516355138f0d60e11b81523060048201526001600160a01b039091169063aa271e1a90602401602060405180830381865afa158015612099573d6000803e3d6000fd5b505050506040513d601f19601f820116820180604052508101906120bd9190613eae565b1561213b57600088815260036020526040908190206001015490516340c10f1960e01b8152336004820152602481018990526001600160a01b03909116906340c10f1990604401600060405180830381600087803b15801561211e57600080fd5b505af1158015612132573d6000803e3d6000fd5b505050506121bc565b60008881526003602052604090206001810154905461216d916001600160a01b0390811691610100900416338a613030565b6121bc565b60008881526003602052604090206006015461218e90886131e1565b60008981526003602052604090206006810191909155600101546121bc906001600160a01b0316338961317e565b6001600160a01b038516158015906121d8575060008260600151115b1561226b57606082015160008981526003602052604090206002015461220b916001600160a01b0390911690879061317e565b6000888152600360205260409081902060020154606084015191518a927f086a8edf7ac99098be3ce56ba76ae3e5a1e212fed5f803fc3167990fa03079b992612262928a926001600160a01b039092169190613e8a565b60405180910390a25b815160008981526003602090815260409182902060010154828601518287015160608089015186519788529487018e90526001600160a01b039093169486019490945290840152608083019190915260a0820152339089907f7b072645ce5b6a2fc627a544edee544b786747cafd1bb8f0e3238aa5f2e806469060c0016118b7565b612301612710670de0b6b3a7640000613e68565b81565b600082815260036020526040908190206001015490516396fb3eaf60e01b815233600482015283916001600160a01b03169081906396fb3eaf90602401602060405180830381865afa15801561235e573d6000803e3d6000fd5b505050506040513d601f19601f820116820180604052508101906123829190613eae565b806124695750336001600160a01b0316816001600160a01b0316627ffb786040518163ffffffff1660e01b8152600401602060405180830381865afa1580156123cf573d6000803e3d6000fd5b505050506040513d601f19601f820116820180604052508101906123f39190613ecb565b6040516331a9108f60e11b8152600160048201526001600160a01b039190911690636352211e90602401602060405180830381865afa15801561243a573d6000803e3d6000fd5b505050506040513d601f19601f8201168201806040525081019061245e9190613ecb565b6001600160a01b0316145b6124855760405162461bcd60e51b81526004016106a790613ee8565b600084815260036020526040902080546001909101546124b7916001600160a01b03610100909104811691168561327b565b600085815260036020908152604091829020600c01805460ff191693151593909317909255518415158152339186917fe28e899e0f5d6fba0c8d73d1888083bcc62d4d9806d2e26fcf1f607c3ed52f539101611cde565b6000828152600360205260409020600901546001600160a01b031633146125705760405162461bcd60e51b81526020600482015260166024820152753737ba1036b0b935b2ba2332b2a1b7b63632b1ba37b960511b60448201526064016106a7565b600082815260036020526040908190206009810180546001600160a01b0319166001600160a01b03851617905560080154905183917f1bf3af41af5ef4ea33bbeffb18acd246aae76d6f03bdb54916577c2e1ab03d52916125d5913391869190613e8a565b60405180910390a25050565b60008181526003602052604081205460ff166125ff57506000919050565b6000828152600360205260408082206002810154905491516370a0823160e01b81526101009092046001600160a01b03908116600484015216906370a0823190602401602060405180830381865afa15801561265f573d6000803e3d6000fd5b505050506040513d601f19601f820116820180604052508101906126839190614051565b600084815260036020526040808220600281015490549151636eb1769f60e11b81526001600160a01b0361010090930483166004820152306024820152939450919291169063dd62ed3e90604401602060405180830381865afa1580156126ee573d6000803e3d6000fd5b505050506040513d601f19601f820116820180604052508101906127129190614051565b9050808210156127405760008481526003602052604090206007015461273990839061301d565b9250612760565b60008481526003602052604090206007015461275d90829061301d565b92505b5050919050565b6000828152600360205260409020600901546001600160a01b031633146127c95760405162461bcd60e51b81526020600482015260166024820152753737ba1036b0b935b2ba2332b2a1b7b63632b1ba37b960511b60448201526064016106a7565b8015806127e957506127e5612710670de0b6b3a7640000613e68565b8110155b6128275760405162461bcd60e51b815260206004820152600f60248201526e5377617046656520746f6f206c6f7760881b60448201526064016106a7565b6706f05b59d3b200008111156128725760405162461bcd60e51b815260206004820152601060248201526f0a6eec2e08ccaca40e8dede40d0d2ced60831b60448201526064016106a7565b600082815260036020526040908190206008810183905560090154905183917f1bf3af41af5ef4ea33bbeffb18acd246aae76d6f03bdb54916577c2e1ab03d52916125d59133916001600160a01b03909116908690613e8a565b600260005414156128ef5760405162461bcd60e51b81526004016106a790613f7c565b60026000556118ff81613413565b60015460405163b8421e2b60e01b81526001600160a01b038381166004830152600092169063b8421e2b90602401602060405180830381865afa158015612948573d6000803e3d6000fd5b505050506040513d601f19601f8201168201806040525081019061296c9190614051565b92915050565b600083815260036020526040812054819081908190879060ff166129a85760405162461bcd60e51b81526004016106a790613f31565b60006129b4898961349d565b6040805160808101825260008082526020808301829052828401829052606083018290528d82526003905291822060020154929350916129fc906001600160a01b03166128fd565b90508015612a2a57612a20670de0b6b3a7640000612a1a858461350d565b90613519565b6020830152612a32565b600060208301525b60008b81526003602052604090206008015415612a7e5760008b815260036020526040902060080154612a7490670de0b6b3a764000090612a1a90869061350d565b6040830152612a86565b600060408301525b8815612aac57612aa2670de0b6b3a7640000612a1a858c61350d565b6060830152612ab4565b600060608301525b612adb8260600151611fdf8460200151611fdf8660400151886131e190919063ffffffff16565b80835260208301516040840151606090940151919d909c50929a509850909650505050505050565b60026000541415612b265760405162461bcd60e51b81526004016106a790613f7c565b6002600055612b358282613525565b50506001600055565b60008181526003602052604081205460ff16612b5c57506000919050565b6000828152600360205260409020600c015460ff168015612bf45750600082815260036020526040908190206001015490516355138f0d60e11b81523060048201526001600160a01b039091169063aa271e1a90602401602060405180830381865afa158015612bd0573d6000803e3d6000fd5b505050506040513d601f19601f82011682018060405250810190612bf49190613eae565b15612cf9576000828152600360209081526040918290206001015482516318160ddd60e01b815292516001600160a01b03909116926318160ddd9260048083019391928290030181865afa158015612c50573d6000803e3d6000fd5b505050506040513d601f19601f82011682018060405250810190612c749190614051565b600083815260036020908152604091829020600101548251631aa93a7560e11b815292516001600160a01b039091169263355274ea9260048083019391928290030181865afa158015612ccb573d6000803e3d6000fd5b505050506040513d601f19601f82011682018060405250810190612cef9190614051565b61296c919061406a565b6000828152600360205260408082206001810154905491516370a0823160e01b81526101009092046001600160a01b03908116600484015216906370a0823190602401602060405180830381865afa158015612d59573d6000803e3d6000fd5b505050506040513d601f19601f82011682018060405250810190612d7d9190614051565b600084815260036020526040808220600181015490549151636eb1769f60e11b81526001600160a01b0361010090930483166004820152306024820152939450919291169063dd62ed3e90604401602060405180830381865afa158015612de8573d6000803e3d6000fd5b505050506040513d601f19601f82011682018060405250810190612e0c9190614051565b905080821015612e335760008481526003602052604090206006015461273990839061301d565b60008481526003602052604090206006015461275d90829061301d565b600083815260036020526040812054819081908190879060ff16612e865760405162461bcd60e51b81526004016106a790613f31565b6000612e92898961349d565b6040805160808101825260008082526020808301829052828401829052606083018290528d8252600390529182206002015492935091612eda906001600160a01b03166128fd565b90508015612f0257612ef8670de0b6b3a7640000612a1a858461350d565b6020830152612f0a565b600060208301525b60008b81526003602052604090206008015415612f565760008b815260036020526040902060080154612f4c90670de0b6b3a764000090612a1a90869061350d565b6040830152612f5e565b600060408301525b8815612f8457612f7a670de0b6b3a7640000612a1a858c61350d565b6060830152612f8c565b600060608301525b612adb826060015161166a846020015161166a86604001518861301d90919063ffffffff16565b604080516001600160a01b03938416602080830191909152929093168382015280518084038201815260609093019052815191012090565b6002600054141561300e5760405162461bcd60e51b81526004016106a790613f7c565b6002600055612b35828261369e565b60006130298284614081565b9392505050565b6040516370a0823160e01b81526001600160a01b038381166004830152600091908616906370a0823190602401602060405180830381865afa15801561307a573d6000803e3d6000fd5b505050506040513d601f19601f8201168201806040525081019061309e9190614051565b90506130b56001600160a01b038616858585613817565b6130bf818361301d565b6040516370a0823160e01b81526001600160a01b0385811660048301528716906370a0823190602401602060405180830381865afa158015613105573d6000803e3d6000fd5b505050506040513d601f19601f820116820180604052508101906131299190614051565b10156131775760405162461bcd60e51b815260206004820152601a60248201527f5472616e7366657220616d6f756e7420697320746f6f206c6f7700000000000060448201526064016106a7565b5050505050565b6040516001600160a01b0383166024820152604481018290526112ee90849063a9059cbb60e01b906064015b60408051601f198184030181529190526020810180516001600160e01b03166001600160e01b03199093169290921790915261383e565b6000613029828461406a565b6000818152600360205260408120600b8101805492905560028054910154613222916001600160a01b0391821691168361317e565b6000828152600360209081526040918290206002015491518381526001600160a01b039092169184917f457b44fd47c33fc65bfbd58d0202ad97fbed1bbc9881f56441d05fe9ebd58acf91015b60405180910390a35050565b60008161328a57506000613029565b6000836001600160a01b0316627ffb786040518163ffffffff1660e01b8152600401602060405180830381865afa1580156132c9573d6000803e3d6000fd5b505050506040513d601f19601f820116820180604052508101906132ed9190613ecb565b60405163160a792560e01b81526001600160a01b03878116600483015291925060009183169063160a792590602401608060405180830381865afa158015613339573d6000803e3d6000fd5b505050506040513d601f19601f8201168201806040525081019061335d9190614099565b80519091501515600114806133785750602081015115156001145b806133f757506040516331a9108f60e11b8152600160048201526001600160a01b038088169190841690636352211e90602401602060405180830381865afa1580156133c8573d6000803e3d6000fd5b505050506040513d601f19601f820116820180604052508101906133ec9190613ecb565b6001600160a01b0316145b1561340757600192505050613029565b50600095945050505050565b6000818152600360205260408120600a81018054929055600981015460029091015461344c916001600160a01b0391821691168361317e565b6000828152600360209081526040918290206002015491518381526001600160a01b039092169184917f192a3cd95e40313e0e12c28b398e31633936e38d134419161f883c8d64079055910161326f565b60008281526003602052604081206004015461302990670de0b6b3a764000090612a1a906134cc90600a614202565b600087815260036020526040902060050154612a1a906134ed90600a614202565b6000898152600360208190526040909120015461350b90899061350d565b905b6000613029828461420e565b60006130298284613e68565b6000828152600360205260409020600601548111156135785760405162461bcd60e51b815260206004820152600f60248201526e082dadeeadce840e8dede40d0d2ced608b1b60448201526064016106a7565b6000828152600360209081526040808320600101548151631c90f85d60e31b815291516001600160a01b039091169263e487c2e892600480820193918290030181865afa1580156135cd573d6000803e3d6000fd5b505050506040513d601f19601f820116820180604052508101906135f19190613ecb565b60008481526003602052604090206006015490915061361090836131e1565b60008481526003602052604090819020600681019290925560019091015490516001600160a01b039182169183169085907fecc75f4464886bee0a1c5eae61c0cb4b99c64c5e9cdebe3696217d266f8b1636906136709087815260200190565b60405180910390a46000838152600360205260409020600101546112ee906001600160a01b0316828461317e565b6000828152600360205260409020600701548111156136f15760405162461bcd60e51b815260206004820152600f60248201526e082dadeeadce840e8dede40d0d2ced608b1b60448201526064016106a7565b6000828152600360209081526040808320600101548151631c90f85d60e31b815291516001600160a01b039091169263e487c2e892600480820193918290030181865afa158015613746573d6000803e3d6000fd5b505050506040513d601f19601f8201168201806040525081019061376a9190613ecb565b60008481526003602052604090206007015490915061378990836131e1565b60008481526003602052604090819020600781019290925560029091015490516001600160a01b039182169183169085907fecc75f4464886bee0a1c5eae61c0cb4b99c64c5e9cdebe3696217d266f8b1636906137e99087815260200190565b60405180910390a46000838152600360205260409020600201546112ee906001600160a01b0316828461317e565b613838846323b872dd60e01b8585856040516024016131aa93929190613e8a565b50505050565b6000613893826040518060400160405280602081526020017f5361666545524332303a206c6f772d6c6576656c2063616c6c206661696c6564815250856001600160a01b03166139109092919063ffffffff16565b8051909150156112ee57808060200190518101906138b19190613eae565b6112ee5760405162461bcd60e51b815260206004820152602a60248201527f5361666545524332303a204552433230206f7065726174696f6e20646964206e6044820152691bdd081cdd58d8d9595960b21b60648201526084016106a7565b606061391f8484600085613927565b949350505050565b6060824710156139885760405162461bcd60e51b815260206004820152602660248201527f416464726573733a20696e73756666696369656e742062616c616e636520666f6044820152651c8818d85b1b60d21b60648201526084016106a7565b843b6139d65760405162461bcd60e51b815260206004820152601d60248201527f416464726573733a2063616c6c20746f206e6f6e2d636f6e747261637400000060448201526064016106a7565b600080866001600160a01b031685876040516139f29190614259565b60006040518083038185875af1925050503d8060008114613a2f576040519150601f19603f3d011682016040523d82523d6000602084013e613a34565b606091505b5091509150613a44828286613a4f565b979650505050505050565b60608315613a5e575081613029565b825115613a6e5782518084602001fd5b8160405162461bcd60e51b81526004016106a79190614275565b6001600160a01b0381168114613a9d57600080fd5b50565b634e487b7160e01b600052604160045260246000fd5b604051601f8201601f1916810167ffffffffffffffff81118282101715613adf57613adf613aa0565b604052919050565b600067ffffffffffffffff821115613b0157613b01613aa0565b5060051b60200190565b600082601f830112613b1c57600080fd5b81356020613b31613b2c83613ae7565b613ab6565b82815260059290921b84018101918181019086841115613b5057600080fd5b8286015b84811015613b6b5780358352918301918301613b54565b509695505050505050565b600080600060608486031215613b8b57600080fd5b8335613b9681613a88565b925060208481013567ffffffffffffffff80821115613bb457600080fd5b818701915087601f830112613bc857600080fd5b8135613bd6613b2c82613ae7565b81815260059190911b8301840190848101908a831115613bf557600080fd5b938501935b82851015613c1c578435613c0d81613a88565b82529385019390850190613bfa565b965050506040870135925080831115613c3457600080fd5b5050613c4286828701613b0b565b9150509250925092565b600060208284031215613c5e57600080fd5b5035919050565b6020808252825182820181905260009190848201906040850190845b81811015613c9d57835183529284019291840191600101613c81565b50909695505050505050565b600080600080600060a08688031215613cc157600080fd5b8535945060208601359350604086013592506060860135613ce181613a88565b949793965091946080013592915050565b60008060408385031215613d0557600080fd5b823591506020830135613d1781613a88565b809150509250929050565b60008060408385031215613d3557600080fd5b50508035926020909101359150565b8015158114613a9d57600080fd5b60008060408385031215613d6557600080fd5b823591506020830135613d1781613d44565b600060208284031215613d8957600080fd5b813561302981613a88565b600080600060608486031215613da957600080fd5b505081359360208301359350604090920135919050565b60008060408385031215613dd357600080fd5b8235613dde81613a88565b91506020830135613d1781613a88565b634e487b7160e01b600052603260045260246000fd5b6020808252602e908201527f46697865645261746545786368616e67653a20496e76616c696420657863686160408201526d6e676520726174652076616c756560901b606082015260800190565b634e487b7160e01b600052601160045260246000fd5b600082613e8557634e487b7160e01b600052601260045260246000fd5b500490565b6001600160a01b039384168152919092166020820152604081019190915260600190565b600060208284031215613ec057600080fd5b815161302981613d44565b600060208284031215613edd57600080fd5b815161302981613a88565b60208082526029908201527f46697865645261746545786368616e67653a20696e76616c69642065786368616040820152683733b29037bbb732b960b91b606082015260800190565b6020808252602b908201527f46697865645261746545786368616e67653a2045786368616e676520646f657360408201526a206e6f742065786973742160a81b606082015260800190565b6020808252601f908201527f5265656e7472616e637947756172643a207265656e7472616e742063616c6c00604082015260600190565b60208082526028908201527f46697865645261746545786368616e67653a207a65726f2064617461746f6b656040820152671b88185b5bdd5b9d60c21b606082015260800190565b60208082526036908201527f46697865645261746545786368616e67653a205468697320616464726573732060408201527506973206e6f7420616c6c6f77656420746f20737761760541b606082015260800190565b60006020828403121561406357600080fd5b5051919050565b60008282101561407c5761407c613e52565b500390565b6000821982111561409457614094613e52565b500190565b6000608082840312156140ab57600080fd5b6040516080810181811067ffffffffffffffff821117156140ce576140ce613aa0565b60405282516140dc81613d44565b815260208301516140ec81613d44565b602082015260408301516140ff81613d44565b6040820152606083015161411281613d44565b60608201529392505050565b600181815b8085111561415957816000190482111561413f5761413f613e52565b8085161561414c57918102915b93841c9390800290614123565b509250929050565b6000826141705750600161296c565b8161417d5750600061296c565b8160018114614193576002811461419d576141b9565b600191505061296c565b60ff8411156141ae576141ae613e52565b50506001821b61296c565b5060208310610133831016604e8410600b84101617156141dc575081810a61296c565b6141e6838361411e565b80600019048211156141fa576141fa613e52565b029392505050565b60006130298383614161565b600081600019048311821515161561422857614228613e52565b500290565b60005b83811015614248578181015183820152602001614230565b838111156138385750506000910152565b6000825161426b81846020870161422d565b9190910192915050565b602081526000825180602084015261429481604085016020870161422d565b601f01601f1916919091016040019291505056fea264697066735822122013692aaabd145749d0966dd8b07486a7d90b9e9494873b9073ab547bf395cdfc64736f6c634300080c0033",
  "linkReferences": {},
  "deployedLinkReferences": {}
}