{
  "_format": "hh-sol-artifact-1",
  "contractName": "FixedRateExchange",
  "sourceName": "contracts/pools/fixedRate/FixedRateExchange.sol",
  "abi": [
    {
      "inputs": [
        {
          "internalType": "address",
          "name": "_router",
          "type": "address"
        },
        {
          "internalType": "address",
          "name": "_opcCollector",
          "type": "address"
        }
      ],
      "stateMutability": "nonpayable",
      "type": "constructor"
    },
    {
      "anonymous": false,
      "inputs": [
        {
          "indexed": true,
          "internalType": "bytes32",
          "name": "exchangeId",
          "type": "bytes32"
        },
        {
          "indexed": false,
          "internalType": "bool",
          "name": "toPaymentCollector",
          "type": "bool"
        }
      ],
      "name": "CollectorChanged",
      "type": "event"
    },
    {
      "anonymous": false,
      "inputs": [
        {
          "indexed": true,
          "internalType": "bytes32",
          "name": "exchangeId",
          "type": "bytes32"
        },
        {
          "indexed": false,
          "internalType": "address",
          "name": "to",
          "type": "address"
        },
        {
          "indexed": false,
          "internalType": "address",
          "name": "token",
          "type": "address"
        },
        {
          "indexed": false,
          "internalType": "uint256",
          "name": "amount",
          "type": "uint256"
        }
      ],
      "name": "ConsumeMarketFee",
      "type": "event"
    },
    {
      "anonymous": false,
      "inputs": [
        {
          "indexed": true,
          "internalType": "bytes32",
          "name": "exchangeId",
          "type": "bytes32"
        },
        {
          "indexed": true,
          "internalType": "address",
          "name": "exchangeOwner",
          "type": "address"
        }
      ],
      "name": "ExchangeActivated",
      "type": "event"
    },
    {
      "anonymous": false,
      "inputs": [
        {
          "indexed": true,
          "internalType": "bytes32",
          "name": "exchangeId",
          "type": "bytes32"
        },
        {
          "indexed": true,
          "internalType": "address",
          "name": "allowedSwapper",
          "type": "address"
        }
      ],
      "name": "ExchangeAllowedSwapperChanged",
      "type": "event"
    },
    {
      "anonymous": false,
      "inputs": [
        {
          "indexed": true,
          "internalType": "bytes32",
          "name": "exchangeId",
          "type": "bytes32"
        },
        {
          "indexed": true,
          "internalType": "address",
          "name": "baseToken",
          "type": "address"
        },
        {
          "indexed": true,
          "internalType": "address",
          "name": "datatoken",
          "type": "address"
        },
        {
          "indexed": false,
          "internalType": "address",
          "name": "exchangeOwner",
          "type": "address"
        },
        {
          "indexed": false,
          "internalType": "uint256",
          "name": "fixedRate",
          "type": "uint256"
        }
      ],
      "name": "ExchangeCreated",
      "type": "event"
    },
    {
      "anonymous": false,
      "inputs": [
        {
          "indexed": true,
          "internalType": "bytes32",
          "name": "exchangeId",
          "type": "bytes32"
        },
        {
          "indexed": true,
          "internalType": "address",
          "name": "exchangeOwner",
          "type": "address"
        }
      ],
      "name": "ExchangeDeactivated",
      "type": "event"
    },
    {
      "anonymous": false,
      "inputs": [
        {
          "indexed": true,
          "internalType": "bytes32",
          "name": "exchangeId",
          "type": "bytes32"
        },
        {
          "indexed": true,
          "internalType": "address",
          "name": "exchangeOwner",
          "type": "address"
        },
        {
          "indexed": false,
          "internalType": "bool",
          "name": "withMint",
          "type": "bool"
        }
      ],
      "name": "ExchangeMintStateChanged",
      "type": "event"
    },
    {
      "anonymous": false,
      "inputs": [
        {
          "indexed": true,
          "internalType": "bytes32",
          "name": "exchangeId",
          "type": "bytes32"
        },
        {
          "indexed": true,
          "internalType": "address",
          "name": "exchangeOwner",
          "type": "address"
        },
        {
          "indexed": false,
          "internalType": "uint256",
          "name": "newRate",
          "type": "uint256"
        }
      ],
      "name": "ExchangeRateChanged",
      "type": "event"
    },
    {
      "anonymous": false,
      "inputs": [
        {
          "indexed": true,
          "internalType": "bytes32",
          "name": "exchangeId",
          "type": "bytes32"
        },
        {
          "indexed": true,
          "internalType": "address",
          "name": "feeToken",
          "type": "address"
        },
        {
          "indexed": false,
          "internalType": "uint256",
          "name": "feeAmount",
          "type": "uint256"
        }
      ],
      "name": "MarketFeeCollected",
      "type": "event"
    },
    {
      "anonymous": false,
      "inputs": [
        {
          "indexed": true,
          "internalType": "bytes32",
          "name": "exchangeId",
          "type": "bytes32"
        },
        {
          "indexed": true,
          "internalType": "address",
          "name": "feeToken",
          "type": "address"
        },
        {
          "indexed": false,
          "internalType": "uint256",
          "name": "feeAmount",
          "type": "uint256"
        }
      ],
      "name": "OceanFeeCollected",
      "type": "event"
    },
    {
      "anonymous": false,
      "inputs": [
        {
          "indexed": true,
          "internalType": "bytes32",
          "name": "exchangeId",
          "type": "bytes32"
        },
        {
          "indexed": false,
          "internalType": "address",
          "name": "caller",
          "type": "address"
        },
        {
          "indexed": false,
          "internalType": "address",
          "name": "newMarketCollector",
          "type": "address"
        },
        {
          "indexed": false,
          "internalType": "uint256",
          "name": "swapFee",
          "type": "uint256"
        }
      ],
      "name": "PublishMarketFeeChanged",
      "type": "event"
    },
    {
      "anonymous": false,
      "inputs": [
        {
          "indexed": true,
          "internalType": "bytes32",
          "name": "exchangeId",
          "type": "bytes32"
        },
        {
          "indexed": false,
          "internalType": "uint256",
          "name": "oceanFeeAmount",
          "type": "uint256"
        },
        {
          "indexed": false,
          "internalType": "uint256",
          "name": "marketFeeAmount",
          "type": "uint256"
        },
        {
          "indexed": false,
          "internalType": "uint256",
          "name": "consumeMarketFeeAmount",
          "type": "uint256"
        },
        {
          "indexed": false,
          "internalType": "address",
          "name": "tokenFeeAddress",
          "type": "address"
        }
      ],
      "name": "SWAP_FEES",
      "type": "event"
    },
    {
      "anonymous": false,
      "inputs": [
        {
          "indexed": true,
          "internalType": "bytes32",
          "name": "exchangeId",
          "type": "bytes32"
        },
        {
          "indexed": true,
          "internalType": "address",
          "name": "by",
          "type": "address"
        },
        {
          "indexed": false,
          "internalType": "uint256",
          "name": "baseTokenSwappedAmount",
          "type": "uint256"
        },
        {
          "indexed": false,
          "internalType": "uint256",
          "name": "datatokenSwappedAmount",
          "type": "uint256"
        },
        {
          "indexed": false,
          "internalType": "address",
          "name": "tokenOutAddress",
          "type": "address"
        },
        {
          "indexed": false,
          "internalType": "uint256",
          "name": "marketFeeAmount",
          "type": "uint256"
        },
        {
          "indexed": false,
          "internalType": "uint256",
          "name": "oceanFeeAmount",
          "type": "uint256"
        },
        {
          "indexed": false,
          "internalType": "uint256",
          "name": "consumeMarketFeeAmount",
          "type": "uint256"
        }
      ],
      "name": "Swapped",
      "type": "event"
    },
    {
      "anonymous": false,
      "inputs": [
        {
          "indexed": false,
          "internalType": "bytes32",
          "name": "exchangeId",
          "type": "bytes32"
        }
      ],
      "name": "Terminated",
      "type": "event"
    },
    {
      "anonymous": false,
      "inputs": [
        {
          "indexed": true,
          "internalType": "bytes32",
          "name": "exchangeId",
          "type": "bytes32"
        },
        {
          "indexed": true,
          "internalType": "address",
          "name": "to",
          "type": "address"
        },
        {
          "indexed": true,
          "internalType": "address",
          "name": "token",
          "type": "address"
        },
        {
          "indexed": false,
          "internalType": "uint256",
          "name": "amount",
          "type": "uint256"
        }
      ],
      "name": "TokenCollected",
      "type": "event"
    },
    {
      "inputs": [],
      "name": "MAX_FEE",
      "outputs": [
        {
          "internalType": "uint256",
          "name": "",
          "type": "uint256"
        }
      ],
      "stateMutability": "view",
      "type": "function"
    },
    {
      "inputs": [],
      "name": "MIN_FEE",
      "outputs": [
        {
          "internalType": "uint256",
          "name": "",
          "type": "uint256"
        }
      ],
      "stateMutability": "view",
      "type": "function"
    },
    {
      "inputs": [],
      "name": "MIN_RATE",
      "outputs": [
        {
          "internalType": "uint256",
          "name": "",
          "type": "uint256"
        }
      ],
      "stateMutability": "view",
      "type": "function"
    },
    {
      "inputs": [
        {
          "internalType": "bytes32",
          "name": "exchangeId",
          "type": "bytes32"
        },
        {
          "internalType": "uint256",
          "name": "datatokenAmount",
          "type": "uint256"
        },
        {
          "internalType": "uint256",
          "name": "maxBaseTokenAmount",
          "type": "uint256"
        },
        {
          "internalType": "address",
          "name": "consumeMarketAddress",
          "type": "address"
        },
        {
          "internalType": "uint256",
          "name": "consumeMarketSwapFeeAmount",
          "type": "uint256"
        }
      ],
      "name": "buyDT",
      "outputs": [],
      "stateMutability": "nonpayable",
      "type": "function"
    },
    {
      "inputs": [
        {
          "internalType": "bytes32",
          "name": "exchangeId",
          "type": "bytes32"
        },
        {
          "internalType": "uint256",
          "name": "datatokenAmount",
          "type": "uint256"
        },
        {
          "internalType": "uint256",
          "name": "consumeMarketSwapFeeAmount",
          "type": "uint256"
        }
      ],
      "name": "calcBaseInGivenOutDT",
      "outputs": [
        {
          "internalType": "uint256",
          "name": "baseTokenAmount",
          "type": "uint256"
        },
        {
          "internalType": "uint256",
          "name": "oceanFeeAmount",
          "type": "uint256"
        },
        {
          "internalType": "uint256",
          "name": "publishMarketFeeAmount",
          "type": "uint256"
        },
        {
          "internalType": "uint256",
          "name": "consumeMarketFeeAmount",
          "type": "uint256"
        }
      ],
      "stateMutability": "view",
      "type": "function"
    },
    {
      "inputs": [
        {
          "internalType": "bytes32",
          "name": "exchangeId",
          "type": "bytes32"
        },
        {
          "internalType": "uint256",
          "name": "datatokenAmount",
          "type": "uint256"
        },
        {
          "internalType": "uint256",
          "name": "consumeMarketSwapFeeAmount",
          "type": "uint256"
        }
      ],
      "name": "calcBaseOutGivenInDT",
      "outputs": [
        {
          "internalType": "uint256",
          "name": "baseTokenAmount",
          "type": "uint256"
        },
        {
          "internalType": "uint256",
          "name": "oceanFeeAmount",
          "type": "uint256"
        },
        {
          "internalType": "uint256",
          "name": "publishMarketFeeAmount",
          "type": "uint256"
        },
        {
          "internalType": "uint256",
          "name": "consumeMarketFeeAmount",
          "type": "uint256"
        }
      ],
      "stateMutability": "view",
      "type": "function"
    },
    {
      "inputs": [
        {
          "internalType": "bytes32",
          "name": "exchangeId",
          "type": "bytes32"
        },
        {
          "internalType": "uint256",
          "name": "amount",
          "type": "uint256"
        }
      ],
      "name": "collectBT",
      "outputs": [],
      "stateMutability": "nonpayable",
      "type": "function"
    },
    {
      "inputs": [
        {
          "internalType": "bytes32",
          "name": "exchangeId",
          "type": "bytes32"
        },
        {
          "internalType": "uint256",
          "name": "amount",
          "type": "uint256"
        }
      ],
      "name": "collectDT",
      "outputs": [],
      "stateMutability": "nonpayable",
      "type": "function"
    },
    {
      "inputs": [
        {
          "internalType": "bytes32",
          "name": "exchangeId",
          "type": "bytes32"
        }
      ],
      "name": "collectMarketFee",
      "outputs": [],
      "stateMutability": "nonpayable",
      "type": "function"
    },
    {
      "inputs": [
        {
          "internalType": "bytes32",
          "name": "exchangeId",
          "type": "bytes32"
        }
      ],
      "name": "collectOceanFee",
      "outputs": [],
      "stateMutability": "nonpayable",
      "type": "function"
    },
    {
      "inputs": [
        {
          "internalType": "address",
          "name": "datatoken",
          "type": "address"
        },
        {
          "internalType": "address[]",
          "name": "addresses",
          "type": "address[]"
        },
        {
          "internalType": "uint256[]",
          "name": "uints",
          "type": "uint256[]"
        }
      ],
      "name": "createWithDecimals",
      "outputs": [
        {
          "internalType": "bytes32",
          "name": "exchangeId",
          "type": "bytes32"
        }
      ],
      "stateMutability": "nonpayable",
      "type": "function"
    },
    {
      "inputs": [
        {
          "internalType": "address",
          "name": "baseToken",
          "type": "address"
        },
        {
          "internalType": "address",
          "name": "datatoken",
          "type": "address"
        },
        {
          "internalType": "address",
          "name": "exchangeOwner",
          "type": "address"
        }
      ],
      "name": "generateExchangeId",
      "outputs": [
        {
          "internalType": "bytes32",
          "name": "",
          "type": "bytes32"
        }
      ],
      "stateMutability": "pure",
      "type": "function"
    },
    {
      "inputs": [
        {
          "internalType": "bytes32",
          "name": "exchangeId",
          "type": "bytes32"
        }
      ],
      "name": "getAllowedSwapper",
      "outputs": [
        {
          "internalType": "address",
          "name": "allowedSwapper",
          "type": "address"
        }
      ],
      "stateMutability": "view",
      "type": "function"
    },
    {
      "inputs": [
        {
          "internalType": "bytes32",
          "name": "exchangeId",
          "type": "bytes32"
        }
      ],
      "name": "getBTSupply",
      "outputs": [
        {
          "internalType": "uint256",
          "name": "supply",
          "type": "uint256"
        }
      ],
      "stateMutability": "view",
      "type": "function"
    },
    {
      "inputs": [
        {
          "internalType": "bytes32",
          "name": "exchangeId",
          "type": "bytes32"
        }
      ],
      "name": "getDTSupply",
      "outputs": [
        {
          "internalType": "uint256",
          "name": "supply",
          "type": "uint256"
        }
      ],
      "stateMutability": "view",
      "type": "function"
    },
    {
      "inputs": [
        {
          "internalType": "bytes32",
          "name": "exchangeId",
          "type": "bytes32"
        }
      ],
      "name": "getExchange",
      "outputs": [
        {
          "internalType": "address",
          "name": "exchangeOwner",
          "type": "address"
        },
        {
          "internalType": "address",
          "name": "datatoken",
          "type": "address"
        },
        {
          "internalType": "uint256",
          "name": "dtDecimals",
          "type": "uint256"
        },
        {
          "internalType": "address",
          "name": "baseToken",
          "type": "address"
        },
        {
          "internalType": "uint256",
          "name": "btDecimals",
          "type": "uint256"
        },
        {
          "internalType": "uint256",
          "name": "fixedRate",
          "type": "uint256"
        },
        {
          "internalType": "bool",
          "name": "active",
          "type": "bool"
        },
        {
          "internalType": "uint256",
          "name": "dtSupply",
          "type": "uint256"
        },
        {
          "internalType": "uint256",
          "name": "btSupply",
          "type": "uint256"
        },
        {
          "internalType": "uint256",
          "name": "dtBalance",
          "type": "uint256"
        },
        {
          "internalType": "uint256",
          "name": "btBalance",
          "type": "uint256"
        },
        {
          "internalType": "bool",
          "name": "withMint",
          "type": "bool"
        },
        {
          "internalType": "bool",
          "name": "toPaymentCollector",
          "type": "bool"
        }
      ],
      "stateMutability": "view",
      "type": "function"
    },
    {
      "inputs": [],
      "name": "getExchanges",
      "outputs": [
        {
          "internalType": "bytes32[]",
          "name": "",
          "type": "bytes32[]"
        }
      ],
      "stateMutability": "view",
      "type": "function"
    },
    {
      "inputs": [
        {
          "internalType": "bytes32",
          "name": "exchangeId",
          "type": "bytes32"
        }
      ],
      "name": "getFeesInfo",
      "outputs": [
        {
          "internalType": "uint256",
          "name": "marketFee",
          "type": "uint256"
        },
        {
          "internalType": "address",
          "name": "marketFeeCollector",
          "type": "address"
        },
        {
          "internalType": "uint256",
          "name": "opcFee",
          "type": "uint256"
        },
        {
          "internalType": "uint256",
          "name": "marketFeeAvailable",
          "type": "uint256"
        },
        {
          "internalType": "uint256",
          "name": "oceanFeeAvailable",
          "type": "uint256"
        }
      ],
      "stateMutability": "view",
      "type": "function"
    },
    {
      "inputs": [],
      "name": "getId",
      "outputs": [
        {
          "internalType": "uint8",
          "name": "",
          "type": "uint8"
        }
      ],
      "stateMutability": "pure",
      "type": "function"
    },
    {
      "inputs": [
        {
          "internalType": "bytes32",
          "name": "exchangeId",
          "type": "bytes32"
        }
      ],
      "name": "getMarketFee",
      "outputs": [
        {
          "internalType": "uint256",
          "name": "",
          "type": "uint256"
        }
      ],
      "stateMutability": "view",
      "type": "function"
    },
    {
      "inputs": [],
      "name": "getNumberOfExchanges",
      "outputs": [
        {
          "internalType": "uint256",
          "name": "",
          "type": "uint256"
        }
      ],
      "stateMutability": "view",
      "type": "function"
    },
    {
      "inputs": [
        {
          "internalType": "address",
          "name": "baseTokenAddress",
          "type": "address"
        }
      ],
      "name": "getOPCFee",
      "outputs": [
        {
          "internalType": "uint256",
          "name": "",
          "type": "uint256"
        }
      ],
      "stateMutability": "view",
      "type": "function"
    },
    {
      "inputs": [
        {
          "internalType": "bytes32",
          "name": "exchangeId",
          "type": "bytes32"
        }
      ],
      "name": "getRate",
      "outputs": [
        {
          "internalType": "uint256",
          "name": "",
          "type": "uint256"
        }
      ],
      "stateMutability": "view",
      "type": "function"
    },
    {
      "inputs": [
        {
          "internalType": "bytes32",
          "name": "exchangeId",
          "type": "bytes32"
        }
      ],
      "name": "isActive",
      "outputs": [
        {
          "internalType": "bool",
          "name": "",
          "type": "bool"
        }
      ],
      "stateMutability": "view",
      "type": "function"
    },
    {
      "inputs": [],
      "name": "opcCollector",
      "outputs": [
        {
          "internalType": "address",
          "name": "",
          "type": "address"
        }
      ],
      "stateMutability": "view",
      "type": "function"
    },
    {
      "inputs": [],
      "name": "router",
      "outputs": [
        {
          "internalType": "address",
          "name": "",
          "type": "address"
        }
      ],
      "stateMutability": "view",
      "type": "function"
    },
    {
      "inputs": [
        {
          "internalType": "bytes32",
          "name": "exchangeId",
          "type": "bytes32"
        },
        {
          "internalType": "uint256",
          "name": "datatokenAmount",
          "type": "uint256"
        },
        {
          "internalType": "uint256",
          "name": "minBaseTokenAmount",
          "type": "uint256"
        },
        {
          "internalType": "address",
          "name": "consumeMarketAddress",
          "type": "address"
        },
        {
          "internalType": "uint256",
          "name": "consumeMarketSwapFeeAmount",
          "type": "uint256"
        }
      ],
      "name": "sellDT",
      "outputs": [],
      "stateMutability": "nonpayable",
      "type": "function"
    },
    {
      "inputs": [
        {
          "internalType": "bytes32",
          "name": "exchangeId",
          "type": "bytes32"
        },
        {
          "internalType": "address",
          "name": "newAllowedSwapper",
          "type": "address"
        }
      ],
      "name": "setAllowedSwapper",
      "outputs": [],
      "stateMutability": "nonpayable",
      "type": "function"
    },
    {
      "inputs": [
        {
          "internalType": "bytes32",
          "name": "exchangeId",
          "type": "bytes32"
        },
        {
          "internalType": "uint256",
          "name": "newRate",
          "type": "uint256"
        }
      ],
      "name": "setRate",
      "outputs": [],
      "stateMutability": "nonpayable",
      "type": "function"
    },
    {
      "inputs": [
        {
          "internalType": "bytes32",
          "name": "exchangeId",
          "type": "bytes32"
        },
        {
          "internalType": "bool",
          "name": "toPaymentCollector",
          "type": "bool"
        }
      ],
      "name": "setToPaymentCollector",
      "outputs": [],
      "stateMutability": "nonpayable",
      "type": "function"
    },
    {
      "inputs": [
        {
          "internalType": "bytes32",
          "name": "exchangeId",
          "type": "bytes32"
        }
      ],
      "name": "terminateExchange",
      "outputs": [],
      "stateMutability": "nonpayable",
      "type": "function"
    },
    {
      "inputs": [
        {
          "internalType": "bytes32",
          "name": "exchangeId",
          "type": "bytes32"
        }
      ],
      "name": "toggleExchangeState",
      "outputs": [],
      "stateMutability": "nonpayable",
      "type": "function"
    },
    {
      "inputs": [
        {
          "internalType": "bytes32",
          "name": "exchangeId",
          "type": "bytes32"
        },
        {
          "internalType": "bool",
          "name": "withMint",
          "type": "bool"
        }
      ],
      "name": "toggleMintState",
      "outputs": [],
      "stateMutability": "nonpayable",
      "type": "function"
    },
    {
      "inputs": [
        {
          "internalType": "bytes32",
          "name": "exchangeId",
          "type": "bytes32"
        },
        {
          "internalType": "uint256",
          "name": "_newMarketFee",
          "type": "uint256"
        }
      ],
      "name": "updateMarketFee",
      "outputs": [],
      "stateMutability": "nonpayable",
      "type": "function"
    },
    {
      "inputs": [
        {
          "internalType": "bytes32",
          "name": "exchangeId",
          "type": "bytes32"
        },
        {
          "internalType": "address",
          "name": "_newMarketCollector",
          "type": "address"
        }
      ],
      "name": "updateMarketFeeCollector",
      "outputs": [],
      "stateMutability": "nonpayable",
      "type": "function"
    }
  ],
  "bytecode": "0x60806040523480156200001157600080fd5b50604051620044e9380380620044e9833981016040819052620000349162000158565b60016000556001600160a01b038216620000a55760405162461bcd60e51b815260206004820152602760248201527f46697865645261746545786368616e67653a2057726f6e6720526f75746572206044820152666164647265737360c81b60648201526084015b60405180910390fd5b6001600160a01b038116620001095760405162461bcd60e51b8152602060048201526024808201527f46697865645261746545786368616e67653a2057726f6e67204f5043206164646044820152637265737360e01b60648201526084016200009c565b600180546001600160a01b039384166001600160a01b0319918216179091556002805492909316911617905562000190565b80516001600160a01b03811681146200015357600080fd5b919050565b600080604083850312156200016c57600080fd5b62000177836200013b565b915062000187602084016200013b565b90509250929050565b61434980620001a06000396000f3fe608060405234801561001057600080fd5b50600436106102115760003560e01c806379dd283611610125578063bc063e1a116100ad578063c66274ea1161007c578063c66274ea14610647578063d819bfef1461065a578063dd1bc96a14610666578063f32f947614610679578063f887ea401461068c57600080fd5b8063bc063e1a146105e6578063c1f6572e146105ee578063c2c0d1ab14610601578063c612e48a1461063457600080fd5b806388823872116100f45780638882387214610581578063b32b56f914610594578063b4241429146105b8578063b686bcaf146105c0578063b8421e2b146105d357600080fd5b806379dd28361461044b5780637c82ebe91461045e578063855058dd1461047157806385fcbc2f1461056e57600080fd5b806350d571d5116101a85780635d1ca631116101775780635d1ca631146103fb57806360311e951461040a578063680819eb1461041d57806368c4b7e91461043057806376c7a3c71461044357600080fd5b806350d571d51461038f5780635acfedc7146103a25780635c36901c146103b55780635c5f1edb146103e857600080fd5b806324cb477e116101e457806324cb477e146102bf5780632e7e23b3146102d45780634019a098146102f75780634c87087d1461030a57600080fd5b8063012c327514610216578063038142381461023c5780630b3b430d146102675780631e2e3a6b146102aa575b600080fd5b610229610224366004613c12565b61069f565b6040519081526020015b60405180910390f35b60025461024f906001600160a01b031681565b6040516001600160a01b039091168152602001610233565b61027a610275366004613ce8565b61107c565b604080519586526001600160a01b039094166020860152928401919091526060830152608082015260a001610233565b6102b2611199565b6040516102339190613d01565b6102d26102cd366004613ce8565b6111f1565b005b6102296102e2366004613ce8565b60009081526003602052604090206008015490565b6102d2610305366004613ce8565b6112d0565b61031d610318366004613ce8565b611612565b604080516001600160a01b039e8f1681529c8e1660208e01528c019a909a529a90971660608a0152608089019590955260a088019390935290151560c087015260e08601526101008501526101208401526101408301529115156101608201529015156101808201526101a001610233565b6102d261039d366004613d45565b611708565b6102d26103b0366004613ce8565b611c4a565b6103d86103c3366004613ce8565b60009081526003602052604090205460ff1690565b6040519015158152602001610233565b6102d26103f6366004613d9c565b611d05565b60405160018152602001610233565b6102d2610418366004613dcc565b611dad565b6102d261042b366004613df1565b611e4f565b6102d261043e366004613d45565b611f3c565b610229612547565b6102d2610459366004613d9c565b61255e565b6102d261046c366004613dcc565b612624565b61024f61047f366004613ce8565b600090815260036020818152604092839020835161020081018552815460ff808216151583526001600160a01b03610100928390048116958401959095526001840154851696830196909652600283015484166060830152938201546080820152600482015460a0820152600582015460c0820152600682015460e0820152600782015484820152600882015461012082015260098201548316610140820152600a820154610160820152600b820154610180820152600c9091015480851615156101a08301529283049091166101c08201819052600160a81b90920490921615156101e09092019190915290565b61022961057c366004613ce8565b6126f7565b6102d261058f366004613df1565b61287d565b6102296105a2366004613ce8565b6000908152600360208190526040909120015490565b600454610229565b6102d26105ce366004613ce8565b6129ec565b6102296105e1366004613e13565b612a9d565b610229612b12565b6102296105fc366004613e30565b612b25565b61061461060f366004613e7b565b612b71565b604080519485526020850193909352918301526060820152608001610233565b6102d2610642366004613df1565b612d02565b610229610655366004613ce8565b612eaf565b6102296402540be40081565b610614610674366004613e7b565b6131c1565b6102d2610687366004613df1565b613324565b60015461024f906001600160a01b031681565b6001546000906001600160a01b031633146107015760405162461bcd60e51b815260206004820152601e60248201527f46697865645261746545786368616e67653a206f6e6c7920726f75746572000060448201526064015b60405180910390fd5b60068251101561074a5760405162461bcd60e51b8152602060048201526014602482015273092dcecc2d8d2c840ead2dce8e640d8cadccee8d60631b60448201526064016106f8565b60048351101561079c5760405162461bcd60e51b815260206004820152601860248201527f496e76616c696420616464726573736573206c656e677468000000000000000060448201526064016106f8565b60006001600160a01b0316836000815181106107ba576107ba613ea7565b60200260200101516001600160a01b031614156108355760405162461bcd60e51b815260206004820152603360248201527f46697865645261746545786368616e67653a20496e76616c69642062617365546044820152726f6b656e2c20207a65726f206164647265737360681b60648201526084016106f8565b6001600160a01b0384166108a75760405162461bcd60e51b815260206004820152603360248201527f46697865645261746545786368616e67653a20496e76616c69642064617461746044820152726f6b656e2c20207a65726f206164647265737360681b60648201526084016106f8565b836001600160a01b0316836000815181106108c4576108c4613ea7565b60200260200101516001600160a01b031614156109495760405162461bcd60e51b815260206004820152603760248201527f46697865645261746545786368616e67653a20496e76616c696420646174617460448201527f6f6b656e2c2020657175616c732062617365546f6b656e00000000000000000060648201526084016106f8565b6402540be4008260028151811061096257610962613ea7565b602002602001015110156109cf5760405162461bcd60e51b815260206004820152602e60248201527f46697865645261746545786368616e67653a20496e76616c696420657863686160448201526d6e676520726174652076616c756560901b60648201526084016106f8565b610a0e836000815181106109e5576109e5613ea7565b60200260200101518585600181518110610a0157610a01613ea7565b6020026020010151612b25565b6000818152600360208190526040909120015490915015610a855760405162461bcd60e51b815260206004820152602b60248201527f46697865645261746545786368616e67653a2045786368616e676520616c726560448201526a616479206578697374732160a81b60648201526084016106f8565b60006001905082600481518110610a9e57610a9e613ea7565b602002602001015160001415610ab2575060005b60006001905083600581518110610acb57610acb613ea7565b602002602001015160001415610adf575060005b60405180610200016040528060011515815260200186600181518110610b0757610b07613ea7565b60200260200101516001600160a01b03168152602001876001600160a01b0316815260200186600081518110610b3f57610b3f613ea7565b60200260200101516001600160a01b0316815260200185600281518110610b6857610b68613ea7565b6020026020010151815260200185600181518110610b8857610b88613ea7565b6020026020010151815260200185600081518110610ba857610ba8613ea7565b60200260200101518152602001600081526020016000815260200185600381518110610bd657610bd6613ea7565b6020026020010151815260200186600281518110610bf657610bf6613ea7565b60200260200101516001600160a01b031681526020016000815260200160008152602001831515815260200186600381518110610c3557610c35613ea7565b6020908102919091018101516001600160a01b039081168352841515928201929092526000868152600380835260409182902085518154948701518616610100908102610100600160a81b031992151583166001600160a81b031997881617178355938701516001830180549188166001600160a01b0319928316179055606088015160028401805491891691831691909117905560808801518385015560a0880151600484015560c0880151600584015560e08801516006840155848801516007840155610120880151600884015561014088015160098401805491891691909216179055610160870151600a830155610180870151600b8301556101a0870151600c90920180546101c08901516101e0909901511515600160a81b0260ff60a81b19999098169095029215159091169390941692909217919091179390931691909117905584518591908110610d8f57610d8f613ea7565b602002602001015160001480610dd25750610db4612710670de0b6b3a7640000613ed3565b84600381518110610dc757610dc7613ea7565b602002602001015110155b610e105760405162461bcd60e51b815260206004820152600f60248201526e5377617046656520746f6f206c6f7760881b60448201526064016106f8565b610e23600a670de0b6b3a7640000613ed3565b84600381518110610e3657610e36613ea7565b60200260200101511115610e7f5760405162461bcd60e51b815260206004820152601060248201526f0a6eec2e08ccaca40e8dede40d0d2ced60831b60448201526064016106f8565b6004805460018101825560009182527f8a35acfbc15ff81a39ae7d344fd709f28e8600b4aa8c65c6b64bfe7fe36bd19b0184905585516001600160a01b038816918791610ece57610ece613ea7565b60200260200101516001600160a01b0316847feb7a353641f7d3cc54b497ef1553fdc292b64d9cc3be8587c23dfba01f310b1988600181518110610f1457610f14613ea7565b602002602001015188600281518110610f2f57610f2f613ea7565b6020026020010151604051610f599291906001600160a01b03929092168252602082015260400190565b60405180910390a484600181518110610f7457610f74613ea7565b60200260200101516001600160a01b0316837fc7344c45124818d1d3a4c24ccb9b86d8b88d3bd05209b2a42b494cb32a50352960405160405180910390a384600381518110610fc557610fc5613ea7565b60200260200101516001600160a01b0316837fcc1b4af8292e6b938f6743c78a62317c9a2d60e0d46b77776a027e53ce617c0c60405160405180910390a3827f1bf3af41af5ef4ea33bbeffb18acd246aae76d6f03bdb54916577c2e1ab03d52338760028151811061103957611039613ea7565b60200260200101518760038151811061105457611054613ea7565b602002602001015160405161106b93929190613ef5565b60405180910390a250509392505050565b6000818152600360208181526040808420815161020081018352815460ff808216151583526001600160a01b036101009283900481168488015260018501548116958401959095526002840154851660608401819052848801546080850152600485015460a0850152600585015460c0850152600685015460e085015260078501548385015260088501546101208501819052600986015487166101408601819052600a870154610160870152600b870154610180870152600c9096015480841615156101a08701529384049096166101c0850152600160a81b9092041615156101e083015287875294909352909390929091829182919061117d90612a9d565b9350806101600151925080610180015191505091939590929450565b606060048054806020026020016040519081016040528092919081815260200182805480156111e757602002820191906000526020600020905b8154815260200190600101908083116111d3575b5050505050905090565b600081815260036020526040902054819061010090046001600160a01b0316331461122e5760405162461bcd60e51b81526004016106f890613f19565b60008281526003602052604090205460ff161561128957600082815260036020526040808220805460ff1916905551339184917f03da9148e1de78fba22de63c573465562ebf6ef878a1d3ea83790a560229984c9190a35050565b600082815260036020526040808220805460ff1916600117905551339184917fc7344c45124818d1d3a4c24ccb9b86d8b88d3bd05209b2a42b494cb32a5035299190a35050565b60008181526003602052604090205461010090046001600160a01b03161561160f576000818152600360205260409020600101546001600160a01b031633141561160f576000818152600360205260409020600c015460ff1615156001141561160f57600081815260036020526040902060070154611350908290613324565b60008181526003602052604090206006015461136d908290612d02565b61137681611c4a565b61137f816129ec565b6040518181527fb8c11d8ef6be70179d02ea6530a02546efc66e7888ef8a597dd0dc5a28847b459060200160405180910390a160405180610200016040528060001515815260200160006001600160a01b0316815260200160006001600160a01b0316815260200160006001600160a01b0316815260200160008152602001600081526020016000815260200160008152602001600081526020016000815260200160006001600160a01b03168152602001600081526020016000815260200160001515815260200160006001600160a01b03168152602001600015158152506003600083815260200190815260200160002060008201518160000160006101000a81548160ff02191690831515021790555060208201518160000160016101000a8154816001600160a01b0302191690836001600160a01b0316021790555060408201518160010160006101000a8154816001600160a01b0302191690836001600160a01b0316021790555060608201518160020160006101000a8154816001600160a01b0302191690836001600160a01b031602179055506080820151816003015560a0820151816004015560c0820151816005015560e08201518160060155610100820151816007015561012082015181600801556101408201518160090160006101000a8154816001600160a01b0302191690836001600160a01b0316021790555061016082015181600a015561018082015181600b01556101a082015181600c0160006101000a81548160ff0219169083151502179055506101c082015181600c0160016101000a8154816001600160a01b0302191690836001600160a01b031602179055506101e082015181600c0160156101000a81548160ff0219169083151502179055509050505b50565b600081815260036020819052604082208054600182015460048301546002840154600585015494909501546001600160a01b0361010085048116979381169692959216939192909160ff1690808080808061166c8e612eaf565b95506116778e6126f7565b9450600360008f8152602001908152602001600020600601549350600360008f8152602001908152602001600020600701549250600360008f8152602001908152602001600020600c0160009054906101000a900460ff169150600360008f8152602001908152602001600020600c0160159054906101000a900460ff16905091939597999b9d90929496989a9c50565b600085815260036020526040902054859060ff166117385760405162461bcd60e51b81526004016106f890613f62565b6002600054141561175b5760405162461bcd60e51b81526004016106f890613fad565b60026000558461177d5760405162461bcd60e51b81526004016106f890613fe4565b81158061179d5750611799612710670de0b6b3a7640000613ed3565b8210155b6117e25760405162461bcd60e51b8152602060048201526016602482015275436f6e73756d655377617046656520746f6f206c6f7760501b60448201526064016106f8565b6117f5600a670de0b6b3a7640000613ed3565b82111561183e5760405162461bcd60e51b8152602060048201526017602482015276086dedce6eadacaa6eec2e08ccaca40e8dede40d0d2ced604b1b60448201526064016106f8565b6000868152600360205260409020600c015461010090046001600160a01b0316156118a1576000868152600360205260409020600c015461010090046001600160a01b031633146118a15760405162461bcd60e51b81526004016106f89061402c565b6040805160808101825260008082526020820181905291810182905260608101919091526001600160a01b0384166118d857600092505b6118e3878785612b71565b6060850152604084015260208301528082528511156119535760405162461bcd60e51b815260206004820152602660248201527f46697865645261746545786368616e67653a20546f6f20666577206261736520604482015265746f6b656e7360d01b60648201526084016106f8565b602080820151600089815260039092526040909120600b0154611975916134c7565b60008881526003602052604090819020600b810192909255820151600a9091015461199f916134c7565b60036000898152602001908152602001600020600a018190555060006119ec82606001516119e684604001516119e6866020015187600001516134c790919063ffffffff16565b906134c7565b600089815260036020526040902060010154909150611a16906001600160a01b031633308a6134d3565b600088815260036020526040902060060154611a3290886134c7565b6000898152600360205260409020600681019190915560070154811115611ab557600088815260036020526040902060028101549054611a85916001600160a01b039081169161010090041630846134d3565b8151600089815260036020526040902060020154611ab0916001600160a01b03909116903390613621565b611b06565b600088815260036020526040902060070154611ad19082613689565b600089815260036020526040902060078101919091558251600290910154611b06916001600160a01b03909116903390613621565b6001600160a01b03851615801590611b22575060008260600151115b15611bb5576060820151600089815260036020526040902060020154611b55916001600160a01b03909116908790613621565b6000888152600360205260409081902060020154606084015191518a927f086a8edf7ac99098be3ce56ba76ae3e5a1e212fed5f803fc3167990fa03079b992611bac928a926001600160a01b039092169190613ef5565b60405180910390a25b815160008981526003602090815260409182902060020154828601518287015160608089015186519788529487018e90526001600160a01b039093169486019490945290840152608083019190915260a0820152339089907f7b072645ce5b6a2fc627a544edee544b786747cafd1bb8f0e3238aa5f2e806469060c0015b60405180910390a350506001600055505050505050565b60026000541415611c6d5760405162461bcd60e51b81526004016106f890613fad565b60026000818155828152600360205260408120600b8101805492905582549201549091611ca7916001600160a01b03908116911683613621565b6000828152600360209081526040918290206002015491518381526001600160a01b039092169184917f457b44fd47c33fc65bfbd58d0202ad97fbed1bbc9881f56441d05fe9ebd58acf91015b60405180910390a350506001600055565b600082815260036020526040902054829061010090046001600160a01b03163314611d425760405162461bcd60e51b81526004016106f890613f19565b60008381526003602052604090819020600c018054841515600160a81b0260ff60a81b199091161790555183907fe4f4d29a6854c1f94301935d5ed72c15a60597c4c79cc0ba59c473b766ce00e490611da090851515815260200190565b60405180910390a2505050565b600082815260036020526040902054829061010090046001600160a01b03163314611dea5760405162461bcd60e51b81526004016106f890613f19565b600083815260036020526040808220600c018054610100600160a81b0319166101006001600160a01b038716908102919091179091559051909185917fcc1b4af8292e6b938f6743c78a62317c9a2d60e0d46b77776a027e53ce617c0c9190a3505050565b600082815260036020526040902054829061010090046001600160a01b03163314611e8c5760405162461bcd60e51b81526004016106f890613f19565b81611ee55760405162461bcd60e51b815260206004820152602360248201527f46697865645261746545786368616e67653a20526174696f206d7573742062656044820152620203e360ec1b60648201526084016106f8565b6000838152600360208190526040918290200183905551339084907fe50f9919fdc524004a4ee0cb934f4734f144bec0713a52e5483b753f5de0f08c90611f2f9086815260200190565b60405180910390a3505050565b600085815260036020526040902054859060ff16611f6c5760405162461bcd60e51b81526004016106f890613f62565b60026000541415611f8f5760405162461bcd60e51b81526004016106f890613fad565b600260005584611fb15760405162461bcd60e51b81526004016106f890613fe4565b811580611fd15750611fcd612710670de0b6b3a7640000613ed3565b8210155b6120165760405162461bcd60e51b8152602060048201526016602482015275436f6e73756d655377617046656520746f6f206c6f7760501b60448201526064016106f8565b612029600a670de0b6b3a7640000613ed3565b8211156120725760405162461bcd60e51b8152602060048201526017602482015276086dedce6eadacaa6eec2e08ccaca40e8dede40d0d2ced604b1b60448201526064016106f8565b6000868152600360205260409020600c015461010090046001600160a01b0316156120d5576000868152600360205260409020600c015461010090046001600160a01b031633146120d55760405162461bcd60e51b81526004016106f89061402c565b6001600160a01b0383166120e857600091505b600060405180608001604052806000815260200160008152602001600081526020016000815250905061211c8787856131c1565b60608501526040840152602083015280825285101561218d5760405162461bcd60e51b815260206004820152602760248201527f46697865645261746545786368616e67653a20546f6f206d616e79206261736560448201526620746f6b656e7360c81b60648201526084016106f8565b602080820151600089815260039092526040909120600b01546121af916134c7565b60008881526003602052604090819020600b810192909255820151600a909101546121d9916134c7565b6000888152600360205260409020600a81019190915560020154815161220c916001600160a01b031690339030906134d3565b600061223f826060015161223984604001516122398660200151876000015161368990919063ffffffff16565b90613689565b60008981526003602052604090206007015490915061225e90826134c7565b60008981526003602052604090206007810191909155600601548711156123cc576000888152600360205260409020600c015460ff1680156123175750600088815260036020526040908190206001015490516355138f0d60e11b81523060048201526001600160a01b039091169063aa271e1a90602401602060405180830381865afa1580156122f3573d6000803e3d6000fd5b505050506040513d601f19601f820116820180604052508101906123179190614082565b1561239557600088815260036020526040908190206001015490516340c10f1960e01b8152336004820152602481018990526001600160a01b03909116906340c10f1990604401600060405180830381600087803b15801561237857600080fd5b505af115801561238c573d6000803e3d6000fd5b50505050612416565b6000888152600360205260409020600181015490546123c7916001600160a01b0390811691610100900416338a6134d3565b612416565b6000888152600360205260409020600601546123e89088613689565b6000898152600360205260409020600681019190915560010154612416906001600160a01b03163389613621565b6001600160a01b03851615801590612432575060008260600151115b156124c5576060820151600089815260036020526040902060020154612465916001600160a01b03909116908790613621565b6000888152600360205260409081902060020154606084015191518a927f086a8edf7ac99098be3ce56ba76ae3e5a1e212fed5f803fc3167990fa03079b9926124bc928a926001600160a01b039092169190613ef5565b60405180910390a25b815160008981526003602090815260409182902060010154828601518287015160608089015186519788529487018e90526001600160a01b039093169486019490945290840152608083019190915260a0820152339089907f7b072645ce5b6a2fc627a544edee544b786747cafd1bb8f0e3238aa5f2e806469060c001611c33565b61255b612710670de0b6b3a7640000613ed3565b81565b600082815260036020526040902054829061010090046001600160a01b0316331461259b5760405162461bcd60e51b81526004016106f890613f19565b600083815260036020526040902080546001909101546125cd916001600160a01b036101009091048116911684613695565b600084815260036020908152604091829020600c01805460ff191693151593909317909255518315158152339185917fe28e899e0f5d6fba0c8d73d1888083bcc62d4d9806d2e26fcf1f607c3ed52f539101611f2f565b6000828152600360205260409020600901546001600160a01b031633146126865760405162461bcd60e51b81526020600482015260166024820152753737ba1036b0b935b2ba2332b2a1b7b63632b1ba37b960511b60448201526064016106f8565b600082815260036020526040908190206009810180546001600160a01b0319166001600160a01b03851617905560080154905183917f1bf3af41af5ef4ea33bbeffb18acd246aae76d6f03bdb54916577c2e1ab03d52916126eb913391869190613ef5565b60405180910390a25050565b60008181526003602052604081205460ff1661271557506000919050565b6000828152600360205260408082206002810154905491516370a0823160e01b81526101009092046001600160a01b03908116600484015216906370a0823190602401602060405180830381865afa158015612775573d6000803e3d6000fd5b505050506040513d601f19601f82011682018060405250810190612799919061409f565b600084815260036020526040808220600281015490549151636eb1769f60e11b81526001600160a01b0361010090930483166004820152306024820152939450919291169063dd62ed3e90604401602060405180830381865afa158015612804573d6000803e3d6000fd5b505050506040513d601f19601f82011682018060405250810190612828919061409f565b9050808210156128565760008481526003602052604090206007015461284f9083906134c7565b9250612876565b6000848152600360205260409020600701546128739082906134c7565b92505b5050919050565b6000828152600360205260409020600901546001600160a01b031633146128df5760405162461bcd60e51b81526020600482015260166024820152753737ba1036b0b935b2ba2332b2a1b7b63632b1ba37b960511b60448201526064016106f8565b8015806128ff57506128fb612710670de0b6b3a7640000613ed3565b8110155b61293d5760405162461bcd60e51b815260206004820152600f60248201526e5377617046656520746f6f206c6f7760881b60448201526064016106f8565b612950600a670de0b6b3a7640000613ed3565b8111156129925760405162461bcd60e51b815260206004820152601060248201526f0a6eec2e08ccaca40e8dede40d0d2ced60831b60448201526064016106f8565b600082815260036020526040908190206008810183905560090154905183917f1bf3af41af5ef4ea33bbeffb18acd246aae76d6f03bdb54916577c2e1ab03d52916126eb9133916001600160a01b03909116908690613ef5565b60026000541415612a0f5760405162461bcd60e51b81526004016106f890613fad565b60026000818155828152600360205260408120600a8101805492905560098101549201549091612a4c916001600160a01b03908116911683613621565b6000828152600360209081526040918290206002015491518381526001600160a01b039092169184917f192a3cd95e40313e0e12c28b398e31633936e38d134419161f883c8d640790559101611cf4565b60015460405163b8421e2b60e01b81526001600160a01b038381166004830152600092169063b8421e2b90602401602060405180830381865afa158015612ae8573d6000803e3d6000fd5b505050506040513d601f19601f82011682018060405250810190612b0c919061409f565b92915050565b61255b600a670de0b6b3a7640000613ed3565b604080516001600160a01b0380861660208301528085169282019290925290821660608201526000906080016040516020818303038152906040528051906020012090505b9392505050565b600083815260036020526040812054819081908190879060ff16612ba75760405162461bcd60e51b81526004016106f890613f62565b6000612bb3898961382e565b6040805160808101825260008082526020808301829052828401829052606083018290528d8252600390529182206002015492935091612bfb906001600160a01b0316612a9d565b90508015612c2957612c1f670de0b6b3a7640000612c19858461389e565b906138aa565b6020830152612c31565b600060208301525b60008b81526003602052604090206008015415612c7d5760008b815260036020526040902060080154612c7390670de0b6b3a764000090612c1990869061389e565b6040830152612c85565b600060408301525b8815612cab57612ca1670de0b6b3a7640000612c19858c61389e565b6060830152612cb3565b600060608301525b612cda8260600151612239846020015161223986604001518861368990919063ffffffff16565b80835260208301516040840151606090940151919d909c50929a509850909650505050505050565b60026000541415612d255760405162461bcd60e51b81526004016106f890613fad565b6002600090815582815260036020526040902060060154811115612d4857600080fd5b60008281526003602052604090208054600c909101546101009091046001600160a01b031690600160a81b900460ff1615612dfb57600083815260036020908152604091829020600101548251631c90f85d60e31b815292516001600160a01b039091169263e487c2e89260048083019391928290030181865afa158015612dd4573d6000803e3d6000fd5b505050506040513d601f19601f82011682018060405250810190612df891906140b8565b90505b600083815260036020526040902060060154612e179083613689565b60008481526003602052604090819020600681019290925560019091015490516001600160a01b039182169183169085907fecc75f4464886bee0a1c5eae61c0cb4b99c64c5e9cdebe3696217d266f8b163690612e779087815260200190565b60405180910390a4600083815260036020526040902060010154612ea5906001600160a01b03168284613621565b5050600160005550565b60008181526003602052604081205460ff16612ecd57506000919050565b6000828152600360205260409020600c015460ff168015612f655750600082815260036020526040908190206001015490516355138f0d60e11b81523060048201526001600160a01b039091169063aa271e1a90602401602060405180830381865afa158015612f41573d6000803e3d6000fd5b505050506040513d601f19601f82011682018060405250810190612f659190614082565b1561306a576000828152600360209081526040918290206001015482516318160ddd60e01b815292516001600160a01b03909116926318160ddd9260048083019391928290030181865afa158015612fc1573d6000803e3d6000fd5b505050506040513d601f19601f82011682018060405250810190612fe5919061409f565b600083815260036020908152604091829020600101548251631aa93a7560e11b815292516001600160a01b039091169263355274ea9260048083019391928290030181865afa15801561303c573d6000803e3d6000fd5b505050506040513d601f19601f82011682018060405250810190613060919061409f565b612b0c91906140d5565b6000828152600360205260408082206001810154905491516370a0823160e01b81526101009092046001600160a01b03908116600484015216906370a0823190602401602060405180830381865afa1580156130ca573d6000803e3d6000fd5b505050506040513d601f19601f820116820180604052508101906130ee919061409f565b600084815260036020526040808220600181015490549151636eb1769f60e11b81526001600160a01b0361010090930483166004820152306024820152939450919291169063dd62ed3e90604401602060405180830381865afa158015613159573d6000803e3d6000fd5b505050506040513d601f19601f8201168201806040525081019061317d919061409f565b9050808210156131a45760008481526003602052604090206006015461284f9083906134c7565b6000848152600360205260409020600601546128739082906134c7565b600083815260036020526040812054819081908190879060ff166131f75760405162461bcd60e51b81526004016106f890613f62565b6000613203898961382e565b6040805160808101825260008082526020808301829052828401829052606083018290528d825260039052918220600201549293509161324b906001600160a01b0316612a9d565b9050801561327357613269670de0b6b3a7640000612c19858461389e565b602083015261327b565b600060208301525b60008b815260036020526040902060080154156132c75760008b8152600360205260409020600801546132bd90670de0b6b3a764000090612c1990869061389e565b60408301526132cf565b600060408301525b88156132f5576132eb670de0b6b3a7640000612c19858c61389e565b60608301526132fd565b600060608301525b612cda82606001516119e684602001516119e68660400151886134c790919063ffffffff16565b600260005414156133475760405162461bcd60e51b81526004016106f890613fad565b600260009081558281526003602052604090206007015481111561336a57600080fd5b60008281526003602052604090208054600c909101546101009091046001600160a01b031690600160a81b900460ff161561341d57600083815260036020908152604091829020600101548251631c90f85d60e31b815292516001600160a01b039091169263e487c2e89260048083019391928290030181865afa1580156133f6573d6000803e3d6000fd5b505050506040513d601f19601f8201168201806040525081019061341a91906140b8565b90505b6000838152600360205260409020600701546134399083613689565b60008481526003602052604090819020600781019290925560029091015490516001600160a01b039182169183169085907fecc75f4464886bee0a1c5eae61c0cb4b99c64c5e9cdebe3696217d266f8b1636906134999087815260200190565b60405180910390a4600083815260036020526040902060020154612ea5906001600160a01b03168284613621565b6000612b6a82846140ec565b6040516370a0823160e01b81526001600160a01b038381166004830152600091908616906370a0823190602401602060405180830381865afa15801561351d573d6000803e3d6000fd5b505050506040513d601f19601f82011682018060405250810190613541919061409f565b90506135586001600160a01b0386168585856138b6565b61356281836134c7565b6040516370a0823160e01b81526001600160a01b0385811660048301528716906370a0823190602401602060405180830381865afa1580156135a8573d6000803e3d6000fd5b505050506040513d601f19601f820116820180604052508101906135cc919061409f565b101561361a5760405162461bcd60e51b815260206004820152601a60248201527f5472616e7366657220616d6f756e7420697320746f6f206c6f7700000000000060448201526064016106f8565b5050505050565b6040516001600160a01b03831660248201526044810182905261368490849063a9059cbb60e01b906064015b60408051601f198184030181529190526020810180516001600160e01b03166001600160e01b0319909316929092179091526138dd565b505050565b6000612b6a82846140d5565b6000816136a457506000612b6a565b6000836001600160a01b0316627ffb786040518163ffffffff1660e01b8152600401602060405180830381865afa1580156136e3573d6000803e3d6000fd5b505050506040513d601f19601f8201168201806040525081019061370791906140b8565b60405163160a792560e01b81526001600160a01b03878116600483015291925060009183169063160a7925906024016080604051808303816000875af1158015613755573d6000803e3d6000fd5b505050506040513d601f19601f820116820180604052508101906137799190614104565b80519091501515600114806137945750602081015115156001145b8061381357506040516331a9108f60e11b8152600160048201526001600160a01b038088169190841690636352211e90602401602060405180830381865afa1580156137e4573d6000803e3d6000fd5b505050506040513d601f19601f8201168201806040525081019061380891906140b8565b6001600160a01b0316145b1561382357600192505050612b6a565b600092505050612b6a565b600082815260036020526040812060040154612b6a90670de0b6b3a764000090612c199061385d90600a61426d565b600087815260036020526040902060050154612c199061387e90600a61426d565b6000898152600360208190526040909120015461389c90899061389e565b905b6000612b6a8284614279565b6000612b6a8284613ed3565b6138d7846323b872dd60e01b85858560405160240161364d93929190613ef5565b50505050565b6000613932826040518060400160405280602081526020017f5361666545524332303a206c6f772d6c6576656c2063616c6c206661696c6564815250856001600160a01b03166139af9092919063ffffffff16565b80519091501561368457808060200190518101906139509190614082565b6136845760405162461bcd60e51b815260206004820152602a60248201527f5361666545524332303a204552433230206f7065726174696f6e20646964206e6044820152691bdd081cdd58d8d9595960b21b60648201526084016106f8565b60606139be84846000856139c6565b949350505050565b606082471015613a275760405162461bcd60e51b815260206004820152602660248201527f416464726573733a20696e73756666696369656e742062616c616e636520666f6044820152651c8818d85b1b60d21b60648201526084016106f8565b843b613a755760405162461bcd60e51b815260206004820152601d60248201527f416464726573733a2063616c6c20746f206e6f6e2d636f6e747261637400000060448201526064016106f8565b600080866001600160a01b03168587604051613a9191906142c4565b60006040518083038185875af1925050503d8060008114613ace576040519150601f19603f3d011682016040523d82523d6000602084013e613ad3565b606091505b5091509150613ae3828286613aee565b979650505050505050565b60608315613afd575081612b6a565b825115613b0d5782518084602001fd5b8160405162461bcd60e51b81526004016106f891906142e0565b6001600160a01b038116811461160f57600080fd5b634e487b7160e01b600052604160045260246000fd5b604051601f8201601f1916810167ffffffffffffffff81118282101715613b7b57613b7b613b3c565b604052919050565b600067ffffffffffffffff821115613b9d57613b9d613b3c565b5060051b60200190565b600082601f830112613bb857600080fd5b81356020613bcd613bc883613b83565b613b52565b82815260059290921b84018101918181019086841115613bec57600080fd5b8286015b84811015613c075780358352918301918301613bf0565b509695505050505050565b600080600060608486031215613c2757600080fd5b8335613c3281613b27565b925060208481013567ffffffffffffffff80821115613c5057600080fd5b818701915087601f830112613c6457600080fd5b8135613c72613bc882613b83565b81815260059190911b8301840190848101908a831115613c9157600080fd5b938501935b82851015613cb8578435613ca981613b27565b82529385019390850190613c96565b965050506040870135925080831115613cd057600080fd5b5050613cde86828701613ba7565b9150509250925092565b600060208284031215613cfa57600080fd5b5035919050565b6020808252825182820181905260009190848201906040850190845b81811015613d3957835183529284019291840191600101613d1d565b50909695505050505050565b600080600080600060a08688031215613d5d57600080fd5b8535945060208601359350604086013592506060860135613d7d81613b27565b949793965091946080013592915050565b801515811461160f57600080fd5b60008060408385031215613daf57600080fd5b823591506020830135613dc181613d8e565b809150509250929050565b60008060408385031215613ddf57600080fd5b823591506020830135613dc181613b27565b60008060408385031215613e0457600080fd5b50508035926020909101359150565b600060208284031215613e2557600080fd5b8135612b6a81613b27565b600080600060608486031215613e4557600080fd5b8335613e5081613b27565b92506020840135613e6081613b27565b91506040840135613e7081613b27565b809150509250925092565b600080600060608486031215613e9057600080fd5b505081359360208301359350604090920135919050565b634e487b7160e01b600052603260045260246000fd5b634e487b7160e01b600052601160045260246000fd5b600082613ef057634e487b7160e01b600052601260045260246000fd5b500490565b6001600160a01b039384168152919092166020820152604081019190915260600190565b60208082526029908201527f46697865645261746545786368616e67653a20696e76616c69642065786368616040820152683733b29037bbb732b960b91b606082015260800190565b6020808252602b908201527f46697865645261746545786368616e67653a2045786368616e676520646f657360408201526a206e6f742065786973742160a81b606082015260800190565b6020808252601f908201527f5265656e7472616e637947756172643a207265656e7472616e742063616c6c00604082015260600190565b60208082526028908201527f46697865645261746545786368616e67653a207a65726f2064617461746f6b656040820152671b88185b5bdd5b9d60c21b606082015260800190565b60208082526036908201527f46697865645261746545786368616e67653a205468697320616464726573732060408201527506973206e6f7420616c6c6f77656420746f20737761760541b606082015260800190565b60006020828403121561409457600080fd5b8151612b6a81613d8e565b6000602082840312156140b157600080fd5b5051919050565b6000602082840312156140ca57600080fd5b8151612b6a81613b27565b6000828210156140e7576140e7613ebd565b500390565b600082198211156140ff576140ff613ebd565b500190565b60006080828403121561411657600080fd5b6040516080810181811067ffffffffffffffff8211171561413957614139613b3c565b604052825161414781613d8e565b8152602083015161415781613d8e565b6020820152604083015161416a81613d8e565b6040820152606083015161417d81613d8e565b60608201529392505050565b600181815b808511156141c45781600019048211156141aa576141aa613ebd565b808516156141b757918102915b93841c939080029061418e565b509250929050565b6000826141db57506001612b0c565b816141e857506000612b0c565b81600181146141fe576002811461420857614224565b6001915050612b0c565b60ff84111561421957614219613ebd565b50506001821b612b0c565b5060208310610133831016604e8410600b8410161715614247575081810a612b0c565b6142518383614189565b806000190482111561426557614265613ebd565b029392505050565b6000612b6a83836141cc565b600081600019048311821515161561429357614293613ebd565b500290565b60005b838110156142b357818101518382015260200161429b565b838111156138d75750506000910152565b600082516142d6818460208701614298565b9190910192915050565b60208152600082518060208401526142ff816040850160208701614298565b601f01601f1916919091016040019291505056fea2646970667358221220114a15781f3673bbacdef3d7c2c30988f01a05711240be825048d0271131eea164736f6c634300080c0033",
  "linkReferences": {},
  "deployedLinkReferences": {}
}