{
  "_format": "hh-sol-artifact-1",
  "contractName": "FixedRateExchange",
  "sourceName": "contracts/pools/fixedRate/FixedRateExchange.sol",
  "abi": [
    {
      "inputs": [
        {
          "internalType": "address",
          "name": "_router",
          "type": "address"
        },
        {
          "internalType": "address",
          "name": "_opfCollector",
          "type": "address"
        }
      ],
      "stateMutability": "nonpayable",
      "type": "constructor"
    },
    {
      "anonymous": false,
      "inputs": [
        {
          "indexed": true,
          "internalType": "bytes32",
          "name": "exchangeId",
          "type": "bytes32"
        },
        {
          "indexed": true,
          "internalType": "address",
          "name": "exchangeOwner",
          "type": "address"
        }
      ],
      "name": "ExchangeActivated",
      "type": "event"
    },
    {
      "anonymous": false,
      "inputs": [
        {
          "indexed": true,
          "internalType": "bytes32",
          "name": "exchangeId",
          "type": "bytes32"
        },
        {
          "indexed": true,
          "internalType": "address",
          "name": "allowedSwapper",
          "type": "address"
        }
      ],
      "name": "ExchangeAllowedSwapperChanged",
      "type": "event"
    },
    {
      "anonymous": false,
      "inputs": [
        {
          "indexed": true,
          "internalType": "bytes32",
          "name": "exchangeId",
          "type": "bytes32"
        },
        {
          "indexed": true,
          "internalType": "address",
          "name": "baseToken",
          "type": "address"
        },
        {
          "indexed": true,
          "internalType": "address",
          "name": "dataToken",
          "type": "address"
        },
        {
          "indexed": false,
          "internalType": "address",
          "name": "exchangeOwner",
          "type": "address"
        },
        {
          "indexed": false,
          "internalType": "uint256",
          "name": "fixedRate",
          "type": "uint256"
        }
      ],
      "name": "ExchangeCreated",
      "type": "event"
    },
    {
      "anonymous": false,
      "inputs": [
        {
          "indexed": true,
          "internalType": "bytes32",
          "name": "exchangeId",
          "type": "bytes32"
        },
        {
          "indexed": true,
          "internalType": "address",
          "name": "exchangeOwner",
          "type": "address"
        }
      ],
      "name": "ExchangeDeactivated",
      "type": "event"
    },
    {
      "anonymous": false,
      "inputs": [
        {
          "indexed": true,
          "internalType": "bytes32",
          "name": "exchangeId",
          "type": "bytes32"
        },
        {
          "indexed": true,
          "internalType": "address",
          "name": "exchangeOwner",
          "type": "address"
        },
        {
          "indexed": false,
          "internalType": "bool",
          "name": "withMint",
          "type": "bool"
        }
      ],
      "name": "ExchangeMintStateChanged",
      "type": "event"
    },
    {
      "anonymous": false,
      "inputs": [
        {
          "indexed": true,
          "internalType": "bytes32",
          "name": "exchangeId",
          "type": "bytes32"
        },
        {
          "indexed": true,
          "internalType": "address",
          "name": "exchangeOwner",
          "type": "address"
        },
        {
          "indexed": false,
          "internalType": "uint256",
          "name": "newRate",
          "type": "uint256"
        }
      ],
      "name": "ExchangeRateChanged",
      "type": "event"
    },
    {
      "anonymous": false,
      "inputs": [
        {
          "indexed": true,
          "internalType": "bytes32",
          "name": "exchangeId",
          "type": "bytes32"
        },
        {
          "indexed": true,
          "internalType": "address",
          "name": "feeToken",
          "type": "address"
        },
        {
          "indexed": false,
          "internalType": "uint256",
          "name": "feeAmount",
          "type": "uint256"
        }
      ],
      "name": "MarketFeeCollected",
      "type": "event"
    },
    {
      "anonymous": false,
      "inputs": [
        {
          "indexed": true,
          "internalType": "bytes32",
          "name": "exchangeId",
          "type": "bytes32"
        },
        {
          "indexed": true,
          "internalType": "address",
          "name": "feeToken",
          "type": "address"
        },
        {
          "indexed": false,
          "internalType": "uint256",
          "name": "feeAmount",
          "type": "uint256"
        }
      ],
      "name": "OceanFeeCollected",
      "type": "event"
    },
    {
      "anonymous": false,
      "inputs": [
        {
          "indexed": true,
          "internalType": "bytes32",
          "name": "exchangeId",
          "type": "bytes32"
        },
        {
          "indexed": true,
          "internalType": "address",
          "name": "by",
          "type": "address"
        },
        {
          "indexed": false,
          "internalType": "uint256",
          "name": "baseTokenSwappedAmount",
          "type": "uint256"
        },
        {
          "indexed": false,
          "internalType": "uint256",
          "name": "dataTokenSwappedAmount",
          "type": "uint256"
        },
        {
          "indexed": false,
          "internalType": "address",
          "name": "tokenOutAddress",
          "type": "address"
        },
        {
          "indexed": false,
          "internalType": "uint256",
          "name": "marketFeeAmount",
          "type": "uint256"
        },
        {
          "indexed": false,
          "internalType": "uint256",
          "name": "oceanFeeAmount",
          "type": "uint256"
        }
      ],
      "name": "Swapped",
      "type": "event"
    },
    {
      "anonymous": false,
      "inputs": [
        {
          "indexed": true,
          "internalType": "bytes32",
          "name": "exchangeId",
          "type": "bytes32"
        },
        {
          "indexed": true,
          "internalType": "address",
          "name": "to",
          "type": "address"
        },
        {
          "indexed": true,
          "internalType": "address",
          "name": "token",
          "type": "address"
        },
        {
          "indexed": false,
          "internalType": "uint256",
          "name": "amount",
          "type": "uint256"
        }
      ],
      "name": "TokenCollected",
      "type": "event"
    },
    {
      "inputs": [
        {
          "internalType": "bytes32",
          "name": "exchangeId",
          "type": "bytes32"
        },
        {
          "internalType": "uint256",
          "name": "dataTokenAmount",
          "type": "uint256"
        },
        {
          "internalType": "uint256",
          "name": "maxBaseTokenAmount",
          "type": "uint256"
        }
      ],
      "name": "buyDT",
      "outputs": [],
      "stateMutability": "nonpayable",
      "type": "function"
    },
    {
      "inputs": [
        {
          "internalType": "bytes32",
          "name": "exchangeId",
          "type": "bytes32"
        },
        {
          "internalType": "uint256",
          "name": "dataTokenAmount",
          "type": "uint256"
        }
      ],
      "name": "calcBaseInGivenOutDT",
      "outputs": [
        {
          "internalType": "uint256",
          "name": "baseTokenAmount",
          "type": "uint256"
        },
        {
          "internalType": "uint256",
          "name": "baseTokenAmountBeforeFee",
          "type": "uint256"
        },
        {
          "internalType": "uint256",
          "name": "oceanFeeAmount",
          "type": "uint256"
        },
        {
          "internalType": "uint256",
          "name": "marketFeeAmount",
          "type": "uint256"
        }
      ],
      "stateMutability": "view",
      "type": "function"
    },
    {
      "inputs": [
        {
          "internalType": "bytes32",
          "name": "exchangeId",
          "type": "bytes32"
        },
        {
          "internalType": "uint256",
          "name": "dataTokenAmount",
          "type": "uint256"
        }
      ],
      "name": "calcBaseOutGivenInDT",
      "outputs": [
        {
          "internalType": "uint256",
          "name": "baseTokenAmount",
          "type": "uint256"
        },
        {
          "internalType": "uint256",
          "name": "baseTokenAmountBeforeFee",
          "type": "uint256"
        },
        {
          "internalType": "uint256",
          "name": "oceanFeeAmount",
          "type": "uint256"
        },
        {
          "internalType": "uint256",
          "name": "marketFeeAmount",
          "type": "uint256"
        }
      ],
      "stateMutability": "view",
      "type": "function"
    },
    {
      "inputs": [
        {
          "internalType": "bytes32",
          "name": "exchangeId",
          "type": "bytes32"
        }
      ],
      "name": "collectBT",
      "outputs": [],
      "stateMutability": "nonpayable",
      "type": "function"
    },
    {
      "inputs": [
        {
          "internalType": "bytes32",
          "name": "exchangeId",
          "type": "bytes32"
        }
      ],
      "name": "collectDT",
      "outputs": [],
      "stateMutability": "nonpayable",
      "type": "function"
    },
    {
      "inputs": [
        {
          "internalType": "bytes32",
          "name": "exchangeId",
          "type": "bytes32"
        }
      ],
      "name": "collectMarketFee",
      "outputs": [],
      "stateMutability": "nonpayable",
      "type": "function"
    },
    {
      "inputs": [
        {
          "internalType": "bytes32",
          "name": "exchangeId",
          "type": "bytes32"
        }
      ],
      "name": "collectOceanFee",
      "outputs": [],
      "stateMutability": "nonpayable",
      "type": "function"
    },
    {
      "inputs": [
        {
          "internalType": "address",
          "name": "dataToken",
          "type": "address"
        },
        {
          "internalType": "address[]",
          "name": "addresses",
          "type": "address[]"
        },
        {
          "internalType": "uint256[]",
          "name": "uints",
          "type": "uint256[]"
        }
      ],
      "name": "createWithDecimals",
      "outputs": [
        {
          "internalType": "bytes32",
          "name": "exchangeId",
          "type": "bytes32"
        }
      ],
      "stateMutability": "nonpayable",
      "type": "function"
    },
    {
      "inputs": [
        {
          "internalType": "address",
          "name": "baseToken",
          "type": "address"
        },
        {
          "internalType": "address",
          "name": "dataToken",
          "type": "address"
        },
        {
          "internalType": "address",
          "name": "exchangeOwner",
          "type": "address"
        }
      ],
      "name": "generateExchangeId",
      "outputs": [
        {
          "internalType": "bytes32",
          "name": "",
          "type": "bytes32"
        }
      ],
      "stateMutability": "pure",
      "type": "function"
    },
    {
      "inputs": [
        {
          "internalType": "bytes32",
          "name": "exchangeId",
          "type": "bytes32"
        }
      ],
      "name": "getAllowedSwapper",
      "outputs": [
        {
          "internalType": "address",
          "name": "allowedSwapper",
          "type": "address"
        }
      ],
      "stateMutability": "view",
      "type": "function"
    },
    {
      "inputs": [
        {
          "internalType": "bytes32",
          "name": "exchangeId",
          "type": "bytes32"
        }
      ],
      "name": "getBTSupply",
      "outputs": [
        {
          "internalType": "uint256",
          "name": "supply",
          "type": "uint256"
        }
      ],
      "stateMutability": "view",
      "type": "function"
    },
    {
      "inputs": [
        {
          "internalType": "bytes32",
          "name": "exchangeId",
          "type": "bytes32"
        }
      ],
      "name": "getDTSupply",
      "outputs": [
        {
          "internalType": "uint256",
          "name": "supply",
          "type": "uint256"
        }
      ],
      "stateMutability": "view",
      "type": "function"
    },
    {
      "inputs": [
        {
          "internalType": "bytes32",
          "name": "exchangeId",
          "type": "bytes32"
        }
      ],
      "name": "getExchange",
      "outputs": [
        {
          "internalType": "address",
          "name": "exchangeOwner",
          "type": "address"
        },
        {
          "internalType": "address",
          "name": "dataToken",
          "type": "address"
        },
        {
          "internalType": "uint256",
          "name": "dtDecimals",
          "type": "uint256"
        },
        {
          "internalType": "address",
          "name": "baseToken",
          "type": "address"
        },
        {
          "internalType": "uint256",
          "name": "btDecimals",
          "type": "uint256"
        },
        {
          "internalType": "uint256",
          "name": "fixedRate",
          "type": "uint256"
        },
        {
          "internalType": "bool",
          "name": "active",
          "type": "bool"
        },
        {
          "internalType": "uint256",
          "name": "dtSupply",
          "type": "uint256"
        },
        {
          "internalType": "uint256",
          "name": "btSupply",
          "type": "uint256"
        },
        {
          "internalType": "uint256",
          "name": "dtBalance",
          "type": "uint256"
        },
        {
          "internalType": "uint256",
          "name": "btBalance",
          "type": "uint256"
        },
        {
          "internalType": "bool",
          "name": "withMint",
          "type": "bool"
        }
      ],
      "stateMutability": "view",
      "type": "function"
    },
    {
      "inputs": [],
      "name": "getExchanges",
      "outputs": [
        {
          "internalType": "bytes32[]",
          "name": "",
          "type": "bytes32[]"
        }
      ],
      "stateMutability": "view",
      "type": "function"
    },
    {
      "inputs": [
        {
          "internalType": "bytes32",
          "name": "exchangeId",
          "type": "bytes32"
        }
      ],
      "name": "getFeesInfo",
      "outputs": [
        {
          "internalType": "uint256",
          "name": "marketFee",
          "type": "uint256"
        },
        {
          "internalType": "address",
          "name": "marketFeeCollector",
          "type": "address"
        },
        {
          "internalType": "uint256",
          "name": "opfFee",
          "type": "uint256"
        },
        {
          "internalType": "uint256",
          "name": "marketFeeAvailable",
          "type": "uint256"
        },
        {
          "internalType": "uint256",
          "name": "oceanFeeAvailable",
          "type": "uint256"
        }
      ],
      "stateMutability": "view",
      "type": "function"
    },
    {
      "inputs": [],
      "name": "getNumberOfExchanges",
      "outputs": [
        {
          "internalType": "uint256",
          "name": "",
          "type": "uint256"
        }
      ],
      "stateMutability": "view",
      "type": "function"
    },
    {
      "inputs": [
        {
          "internalType": "address",
          "name": "basetokenAddress",
          "type": "address"
        }
      ],
      "name": "getOPFFee",
      "outputs": [
        {
          "internalType": "uint256",
          "name": "",
          "type": "uint256"
        }
      ],
      "stateMutability": "view",
      "type": "function"
    },
    {
      "inputs": [
        {
          "internalType": "bytes32",
          "name": "exchangeId",
          "type": "bytes32"
        }
      ],
      "name": "getRate",
      "outputs": [
        {
          "internalType": "uint256",
          "name": "",
          "type": "uint256"
        }
      ],
      "stateMutability": "view",
      "type": "function"
    },
    {
      "inputs": [
        {
          "internalType": "bytes32",
          "name": "exchangeId",
          "type": "bytes32"
        }
      ],
      "name": "isActive",
      "outputs": [
        {
          "internalType": "bool",
          "name": "",
          "type": "bool"
        }
      ],
      "stateMutability": "view",
      "type": "function"
    },
    {
      "inputs": [],
      "name": "opfCollector",
      "outputs": [
        {
          "internalType": "address",
          "name": "",
          "type": "address"
        }
      ],
      "stateMutability": "view",
      "type": "function"
    },
    {
      "inputs": [],
      "name": "router",
      "outputs": [
        {
          "internalType": "address",
          "name": "",
          "type": "address"
        }
      ],
      "stateMutability": "view",
      "type": "function"
    },
    {
      "inputs": [
        {
          "internalType": "bytes32",
          "name": "exchangeId",
          "type": "bytes32"
        },
        {
          "internalType": "uint256",
          "name": "dataTokenAmount",
          "type": "uint256"
        },
        {
          "internalType": "uint256",
          "name": "minBaseTokenAmount",
          "type": "uint256"
        }
      ],
      "name": "sellDT",
      "outputs": [],
      "stateMutability": "nonpayable",
      "type": "function"
    },
    {
      "inputs": [
        {
          "internalType": "bytes32",
          "name": "exchangeId",
          "type": "bytes32"
        },
        {
          "internalType": "address",
          "name": "newAllowedSwapper",
          "type": "address"
        }
      ],
      "name": "setAllowedSwapper",
      "outputs": [],
      "stateMutability": "nonpayable",
      "type": "function"
    },
    {
      "inputs": [
        {
          "internalType": "bytes32",
          "name": "exchangeId",
          "type": "bytes32"
        },
        {
          "internalType": "uint256",
          "name": "newRate",
          "type": "uint256"
        }
      ],
      "name": "setRate",
      "outputs": [],
      "stateMutability": "nonpayable",
      "type": "function"
    },
    {
      "inputs": [
        {
          "internalType": "bytes32",
          "name": "exchangeId",
          "type": "bytes32"
        }
      ],
      "name": "toggleExchangeState",
      "outputs": [],
      "stateMutability": "nonpayable",
      "type": "function"
    },
    {
      "inputs": [
        {
          "internalType": "bytes32",
          "name": "exchangeId",
          "type": "bytes32"
        },
        {
          "internalType": "bool",
          "name": "withMint",
          "type": "bool"
        }
      ],
      "name": "toggleMintState",
      "outputs": [],
      "stateMutability": "nonpayable",
      "type": "function"
    },
    {
      "inputs": [
        {
          "internalType": "bytes32",
          "name": "exchangeId",
          "type": "bytes32"
        },
        {
          "internalType": "uint256",
          "name": "_newMarketFee",
          "type": "uint256"
        }
      ],
      "name": "updateMarketFee",
      "outputs": [],
      "stateMutability": "nonpayable",
      "type": "function"
    },
    {
      "inputs": [
        {
          "internalType": "bytes32",
          "name": "exchangeId",
          "type": "bytes32"
        },
        {
          "internalType": "address",
          "name": "_newMarketCollector",
          "type": "address"
        }
      ],
      "name": "updateMarketFeeCollector",
      "outputs": [],
      "stateMutability": "nonpayable",
      "type": "function"
    }
  ],
  "bytecode": "0x60806040523480156200001157600080fd5b50604051620034bc380380620034bc833981016040819052620000349162000158565b60016000556001600160a01b038216620000a55760405162461bcd60e51b815260206004820152602760248201527f46697865645261746545786368616e67653a2057726f6e6720526f75746572206044820152666164647265737360c81b60648201526084015b60405180910390fd5b6001600160a01b038116620001095760405162461bcd60e51b8152602060048201526024808201527f46697865645261746545786368616e67653a2057726f6e67204f5046206164646044820152637265737360e01b60648201526084016200009c565b600180546001600160a01b039384166001600160a01b0319918216179091556002805492909316911617905562000190565b80516001600160a01b03811681146200015357600080fd5b919050565b600080604083850312156200016c57600080fd5b62000177836200013b565b915062000187602084016200013b565b90509250929050565b61331c80620001a06000396000f3fe608060405234801561001057600080fd5b50600436106101c45760003560e01c8063825b5cd6116100f9578063b686bcaf11610097578063c99733a711610071578063c99733a714610576578063f532129e14610589578063f8154aee1461059c578063f887ea40146105af57600080fd5b8063b686bcaf1461053d578063c1f6572e14610550578063c66274ea1461056357600080fd5b806388823872116100d357806388823872146104eb578063a28f78f1146104fe578063b32b56f914610511578063b42414291461053557600080fd5b8063825b5cd6146103c5578063855058dd146103d857806385fcbc2f146104d857600080fd5b80635c36901c116101665780636e4c6269116101405780636e4c62691461035957806371dc14b21461036c57806379dd28361461039f5780637c82ebe9146103b257600080fd5b80635c36901c1461030057806360311e9514610333578063680819eb1461034657600080fd5b806324cb477e116101a257806324cb477e14610247578063450dccc31461025c5780634c87087d1461026f5780635acfedc7146102ed57600080fd5b8063012c3275146101c95780630b3b430d146101ef5780631e2e3a6b14610232575b600080fd5b6101dc6101d7366004612c83565b6105c2565b6040519081526020015b60405180910390f35b6102026101fd366004612d79565b610d37565b604080519586526001600160a01b039094166020860152928401919091526060830152608082015260a0016101e6565b61023a610e41565b6040516101e69190612e79565b61025a610255366004612d79565b610e99565b005b61025a61026a366004612d79565b610f78565b61028261027d366004612d79565b6110ee565b604080516001600160a01b039d8e1681529b8d1660208d01528b0199909952999096166060890152608088019490945260a0870192909252151560c086015260e0850152610100840152610120830152610140820192909252901515610160820152610180016101e6565b61025a6102fb366004612d79565b611215565b61032361030e366004612d79565b60009081526003602052604090205460ff1690565b60405190151581526020016101e6565b61025a610341366004612d92565b61133b565b61025a610354366004612dee565b6113dd565b61025a610367366004612e10565b6114ca565b61037f61037a366004612dee565b611953565b6040805194855260208501939093529183015260608201526080016101e6565b61025a6103ad366004612dbe565b611ac1565b61025a6103c0366004612d92565b611b53565b61025a6103d3366004612e10565b611be6565b6104c06103e6366004612d79565b60009081526003602081815260409283902083516101e081018552815460ff808216151583526001600160a01b03610100928390048116958401959095526001840154851696830196909652600283015484166060830152938201546080820152600482015460a0820152600582015460c0820152600682015460e0820152600782015484820152600882015461012082015260098201548316610140820152600a820154610160820152600b820154610180820152600c9091015493841615156101a0820152919092049091166101c090910181905290565b6040516001600160a01b0390911681526020016101e6565b6101dc6104e6366004612d79565b612182565b61025a6104f9366004612dee565b612327565b6002546104c0906001600160a01b031681565b6101dc61051f366004612d79565b6000908152600360208190526040909120015490565b6004546101dc565b61025a61054b366004612d79565b61239e565b6101dc61055e366004612c40565b6124bc565b6101dc610571366004612d79565b612507565b61037f610584366004612dee565b61286f565b61025a610597366004612d79565b61297f565b6101dc6105aa366004612c25565b612ae7565b6001546104c0906001600160a01b031681565b6001546000906001600160a01b031633146106245760405162461bcd60e51b815260206004820152601e60248201527f46697865645261746545786368616e67653a206f6e6c7920726f75746572000060448201526064015b60405180910390fd5b60006001600160a01b031683600081518110610642576106426132a9565b60200260200101516001600160a01b031614156106bd5760405162461bcd60e51b815260206004820152603360248201527f46697865645261746545786368616e67653a20496e76616c69642062617365746044820152726f6b656e2c20207a65726f206164647265737360681b606482015260840161061b565b6001600160a01b03841661072f5760405162461bcd60e51b815260206004820152603360248201527f46697865645261746545786368616e67653a20496e76616c69642064617461746044820152726f6b656e2c20207a65726f206164647265737360681b606482015260840161061b565b836001600160a01b03168360008151811061074c5761074c6132a9565b60200260200101516001600160a01b031614156107d15760405162461bcd60e51b815260206004820152603760248201527f46697865645261746545786368616e67653a20496e76616c696420646174617460448201527f6f6b656e2c2020657175616c732062617365746f6b656e000000000000000000606482015260840161061b565b816002815181106107e4576107e46132a9565b6020026020010151600014156108535760405162461bcd60e51b815260206004820152602e60248201527f46697865645261746545786368616e67653a20496e76616c696420657863686160448201526d6e676520726174652076616c756560901b606482015260840161061b565b61089283600081518110610869576108696132a9565b60200260200101518585600181518110610885576108856132a9565b60200260200101516124bc565b60008181526003602081905260409091200154909150156109095760405162461bcd60e51b815260206004820152602b60248201527f46697865645261746545786368616e67653a2045786368616e676520616c726560448201526a616479206578697374732160a81b606482015260840161061b565b60006001905082600481518110610922576109226132a9565b602002602001015160001415610936575060005b604051806101e001604052806001151581526020018560018151811061095e5761095e6132a9565b60200260200101516001600160a01b03168152602001866001600160a01b0316815260200185600081518110610996576109966132a9565b60200260200101516001600160a01b03168152602001846002815181106109bf576109bf6132a9565b60200260200101518152602001846001815181106109df576109df6132a9565b60200260200101518152602001846000815181106109ff576109ff6132a9565b60200260200101518152602001600081526020016000815260200184600381518110610a2d57610a2d6132a9565b6020026020010151815260200185600281518110610a4d57610a4d6132a9565b60200260200101516001600160a01b031681526020016000815260200160008152602001821515815260200185600381518110610a8c57610a8c6132a9565b6020908102919091018101516001600160a01b0390811690925260008581526003808352604080832086518154958801518716610100908102610100600160a81b031992151583166001600160a81b0319988916171783559288015160018084018054928a166001600160a01b031993841617905560608a0151600285018054918b1691841691909117905560808a01519584019590955560a089015160048085019190915560c08a0151600585015560e08a01516006850155848a015160078501556101208a015160088501556101408a0151600985018054918b169190931617909155610160890151600a840155610180890151600b8401556101a0890151600c90930180546101c0909a01518916909402921515909116979095169690961795909517909455815493840182559081527f8a35acfbc15ff81a39ae7d344fd709f28e8600b4aa8c65c6b64bfe7fe36bd19b9092018490558551908716918691610bfa57610bfa6132a9565b60200260200101516001600160a01b0316837feb7a353641f7d3cc54b497ef1553fdc292b64d9cc3be8587c23dfba01f310b1987600181518110610c4057610c406132a9565b602002602001015187600281518110610c5b57610c5b6132a9565b6020026020010151604051610c859291906001600160a01b03929092168252602082015260400190565b60405180910390a483600181518110610ca057610ca06132a9565b60200260200101516001600160a01b0316827fc7344c45124818d1d3a4c24ccb9b86d8b88d3bd05209b2a42b494cb32a50352960405160405180910390a383600381518110610cf157610cf16132a9565b60200260200101516001600160a01b0316827fcc1b4af8292e6b938f6743c78a62317c9a2d60e0d46b77776a027e53ce617c0c60405160405180910390a3509392505050565b600081815260036020818152604080842081516101e081018352815460ff808216151583526001600160a01b036101009283900481168488015260018501548116958401959095526002840154851660608401819052848801546080850152600485015460a0850152600585015460c0850152600685015460e085015260078501548385015260088501546101208501819052600986015487166101408601819052600a870154610160870152600b870154610180870152600c9096015492831615156101a0860152929091049094166101c0830152878752949093529293918291829190610e2590612ae7565b9350806101600151925080610180015191505091939590929450565b60606004805480602002602001604051908101604052809291908181526020018280548015610e8f57602002820191906000526020600020905b815481526020019060010190808311610e7b575b5050505050905090565b600081815260036020526040902054819061010090046001600160a01b03163314610ed65760405162461bcd60e51b815260040161061b90612f5e565b60008281526003602052604090205460ff1615610f3157600082815260036020526040808220805460ff1916905551339184917f03da9148e1de78fba22de63c573465562ebf6ef878a1d3ea83790a560229984c9190a35050565b600082815260036020526040808220805460ff1916600117905551339184917fc7344c45124818d1d3a4c24ccb9b86d8b88d3bd05209b2a42b494cb32a5035299190a35050565b600081815260036020526040902054819061010090046001600160a01b03163314610fb55760405162461bcd60e51b815260040161061b90612f5e565b60026000541415610fd85760405162461bcd60e51b815260040161061b906130ac565b600260009081558281526003602052604080822060068101805493905560018101549054915163a9059cbb60e01b81526101009092046001600160a01b03908116600484015260248301849052169063a9059cbb90604401602060405180830381600087803b15801561104a57600080fd5b505af115801561105e573d6000803e3d6000fd5b505050506040513d601f19601f820116820180604052508101906110829190612d5c565b506000838152600360209081526040918290206001810154905492518481526001600160a01b039182169361010090049091169186917fecc75f4464886bee0a1c5eae61c0cb4b99c64c5e9cdebe3696217d266f8b163691015b60405180910390a45050600160005550565b600081815260036020818152604080842081516101e081018352815460ff80821615158084526001600160a01b036101009384900481169785018890526001860154811696850187905260028601548116606086018190529886015460808601819052600487015460a08701819052600588015460c08801819052600689015460e0890152600789015487890152600889015461012089015260098901548416610140890152600a890154610160890152600b890154610180890152600c9098015494851615156101a088015294909304166101c08501529597949691959194909281908190819081906111e18e612507565b95506111ec8e612182565b94508060e0015193508061010001519250806101a0015191505091939597999b5091939597999b565b600260005414156112385760405162461bcd60e51b815260040161061b906130ac565b6002600081815582815260036020526040808220600b810180549390558301549254905163a9059cbb60e01b81526001600160a01b039182166004820152602481018390529192169063a9059cbb90604401602060405180830381600087803b1580156112a457600080fd5b505af11580156112b8573d6000803e3d6000fd5b505050506040513d601f19601f820116820180604052508101906112dc9190612d5c565b506000828152600360209081526040918290206002015491518381526001600160a01b039092169184917f457b44fd47c33fc65bfbd58d0202ad97fbed1bbc9881f56441d05fe9ebd58acf91015b60405180910390a350506001600055565b600082815260036020526040902054829061010090046001600160a01b031633146113785760405162461bcd60e51b815260040161061b90612f5e565b600083815260036020526040808220600c018054610100600160a81b0319166101006001600160a01b038716908102919091179091559051909185917fcc1b4af8292e6b938f6743c78a62317c9a2d60e0d46b77776a027e53ce617c0c9190a3505050565b600082815260036020526040902054829061010090046001600160a01b0316331461141a5760405162461bcd60e51b815260040161061b90612f5e565b816114735760405162461bcd60e51b815260206004820152602360248201527f46697865645261746545786368616e67653a20526174696f206d7573742062656044820152620203e360ec1b606482015260840161061b565b6000838152600360208190526040918290200183905551339084907fe50f9919fdc524004a4ee0cb934f4734f144bec0713a52e5483b753f5de0f08c906114bd9086815260200190565b60405180910390a3505050565b600083815260036020526040902054839060ff1615156001146114ff5760405162461bcd60e51b815260040161061b90612f13565b600260005414156115225760405162461bcd60e51b815260040161061b906130ac565b6002600055826115445760405162461bcd60e51b815260040161061b90613063565b6000848152600360205260409020600c015461010090046001600160a01b0316156115a7576000848152600360205260409020600c015461010090046001600160a01b031633146115a75760405162461bcd60e51b815260040161061b90612ebd565b6000806000806115b78888611953565b93509350935093508584101561161e5760405162461bcd60e51b815260206004820152602660248201527f46697865645261746545786368616e67653a20546f6f20666577206261736520604482015265746f6b656e7360d01b606482015260840161061b565b6000888152600360205260409020600b015461163a9083612b65565b6000898152600360205260409020600b810191909155600a015461165e9082612b65565b60008981526003602052604090819020600a81019290925560019091015490516323b872dd60e01b81526001600160a01b03909116906323b872dd906116ac90339030908c90600401612e55565b602060405180830381600087803b1580156116c657600080fd5b505af11580156116da573d6000803e3d6000fd5b505050506040513d601f19601f820116820180604052508101906116fe9190612d5c565b61171a5760405162461bcd60e51b815260040161061b90613005565b6000888152600360205260409020600601546117369088612b65565b600089815260036020526040902060068101919091556007015484111561181757600088815260036020526040908190206002810154905491516323b872dd60e01b81526001600160a01b03918216926323b872dd926117a492610100909204169033908990600401612e55565b602060405180830381600087803b1580156117be57600080fd5b505af11580156117d2573d6000803e3d6000fd5b505050506040513d601f19601f820116820180604052508101906117f69190612d5c565b6118125760405162461bcd60e51b815260040161061b90612fa7565b6118d3565b6000888152600360205260409020600701546118339084612b78565b600089815260036020526040908190206007810192909255600290910154905163a9059cbb60e01b8152336004820152602481018690526001600160a01b039091169063a9059cbb90604401602060405180830381600087803b15801561189957600080fd5b505af11580156118ad573d6000803e3d6000fd5b505050506040513d601f19601f820116820180604052508101906118d19190612d5c565b505b6000888152600360209081526040918290206002015482518781529182018a90526001600160a01b0316918101919091526060810182905260808101839052339089907f71999bcde73cf4958b3a13dcbc60ff31366318eb6e67b45c93725aa07f89cbd29060a0015b60405180910390a350506001600055505050505050565b600082815260036020526040812054819081908190869060ff16151560011461198e5760405162461bcd60e51b815260040161061b90612f13565b600087815260036020526040902060040154611a0890670de0b6b3a764000090611a02906119bd90600a6131b5565b60008b815260036020526040902060050154611a02906119de90600a6131b5565b60008d815260036020819052604090912001546119fc908d90612b84565b90612b84565b90612b90565b600088815260036020526040902060020154909450611a2f906001600160a01b0316612ae7565b15611a7457600087815260036020526040902060020154611a7190670de0b6b3a764000090611a0290611a6a906001600160a01b0316612ae7565b8790612b84565b92505b600087815260036020526040902060080154611a9f90670de0b6b3a764000090611a02908790612b84565b9150611ab583611aaf8685612b78565b90612b78565b94505092959194509250565b600082815260036020526040902054829061010090046001600160a01b03163314611afe5760405162461bcd60e51b815260040161061b90612f5e565b600083815260036020908152604091829020600c01805460ff19168515159081179091559151918252339185917fe28e899e0f5d6fba0c8d73d1888083bcc62d4d9806d2e26fcf1f607c3ed52f5391016114bd565b6000828152600360205260409020600901546001600160a01b03163314611bb55760405162461bcd60e51b81526020600482015260166024820152753737ba1036b0b935b2ba2332b2a1b7b63632b1ba37b960511b604482015260640161061b565b60009182526003602052604090912060090180546001600160a01b0319166001600160a01b03909216919091179055565b600083815260036020526040902054839060ff161515600114611c1b5760405162461bcd60e51b815260040161061b90612f13565b60026000541415611c3e5760405162461bcd60e51b815260040161061b906130ac565b600260005582611c605760405162461bcd60e51b815260040161061b90613063565b6000848152600360205260409020600c015461010090046001600160a01b031615611cc3576000848152600360205260409020600c015461010090046001600160a01b03163314611cc35760405162461bcd60e51b815260040161061b90612ebd565b600080600080611cd3888861286f565b935093509350935085841115611d3b5760405162461bcd60e51b815260206004820152602760248201527f46697865645261746545786368616e67653a20546f6f206d616e79206261736560448201526620746f6b656e7360c81b606482015260840161061b565b6000888152600360205260409020600b0154611d579083612b65565b6000898152600360205260409020600b810191909155600a0154611d7b9082612b65565b60008981526003602052604090819020600a81019290925560029091015490516323b872dd60e01b81526001600160a01b03909116906323b872dd90611dc990339030908990600401612e55565b602060405180830381600087803b158015611de357600080fd5b505af1158015611df7573d6000803e3d6000fd5b505050506040513d601f19601f82011682018060405250810190611e1b9190612d5c565b611e375760405162461bcd60e51b815260040161061b90612fa7565b600088815260036020526040902060070154611e539084612b65565b6000898152600360205260409020600781019190915560060154871115612059576000888152600360205260409020600c015460ff168015611f1b5750600088815260036020526040908190206001015490516355138f0d60e11b81523060048201526001600160a01b039091169063aa271e1a9060240160206040518083038186803b158015611ee357600080fd5b505afa158015611ef7573d6000803e3d6000fd5b505050506040513d601f19601f82011682018060405250810190611f1b9190612d5c565b15611f9957600088815260036020526040908190206001015490516340c10f1960e01b8152336004820152602481018990526001600160a01b03909116906340c10f1990604401600060405180830381600087803b158015611f7c57600080fd5b505af1158015611f90573d6000803e3d6000fd5b50505050612115565b600088815260036020526040908190206001810154905491516323b872dd60e01b81526001600160a01b03918216926323b872dd92611fe692610100909204169033908c90600401612e55565b602060405180830381600087803b15801561200057600080fd5b505af1158015612014573d6000803e3d6000fd5b505050506040513d601f19601f820116820180604052508101906120389190612d5c565b6120545760405162461bcd60e51b815260040161061b90613005565b612115565b6000888152600360205260409020600601546120759088612b78565b600089815260036020526040908190206006810192909255600190910154905163a9059cbb60e01b8152336004820152602481018990526001600160a01b039091169063a9059cbb90604401602060405180830381600087803b1580156120db57600080fd5b505af11580156120ef573d6000803e3d6000fd5b505050506040513d601f19601f820116820180604052508101906121139190612d5c565b505b6000888152600360209081526040918290206001015482518781529182018a90526001600160a01b0316918101919091526060810182905260808101839052339089907f71999bcde73cf4958b3a13dcbc60ff31366318eb6e67b45c93725aa07f89cbd29060a00161193c565b60008181526003602052604081205460ff166121a057506000919050565b6000828152600360205260408082206002810154905491516370a0823160e01b81526101009092046001600160a01b03908116600484015216906370a082319060240160206040518083038186803b1580156121fb57600080fd5b505afa15801561220f573d6000803e3d6000fd5b505050506040513d601f19601f820116820180604052508101906122339190612e3c565b600084815260036020526040808220600281015490549151636eb1769f60e11b81526001600160a01b0361010090930483166004820152306024820152939450919291169063dd62ed3e9060440160206040518083038186803b15801561229957600080fd5b505afa1580156122ad573d6000803e3d6000fd5b505050506040513d601f19601f820116820180604052508101906122d19190612e3c565b9050808210156122ff576000848152600360205260409020600701546122f8908390612b65565b925061231f565b60008481526003602052604090206007015461231c908290612b65565b92505b50505b919050565b6000828152600360205260409020600901546001600160a01b031633146123895760405162461bcd60e51b81526020600482015260166024820152753737ba1036b0b935b2ba2332b2a1b7b63632b1ba37b960511b604482015260640161061b565b60009182526003602052604090912060080155565b600260005414156123c15760405162461bcd60e51b815260040161061b906130ac565b6002600081815582815260036020526040808220600a8101805493905592830154600990930154905163a9059cbb60e01b81526001600160a01b039182166004820152602481018390529192169063a9059cbb90604401602060405180830381600087803b15801561243257600080fd5b505af1158015612446573d6000803e3d6000fd5b505050506040513d601f19601f8201168201806040525081019061246a9190612d5c565b506000828152600360209081526040918290206002015491518381526001600160a01b039092169184917f192a3cd95e40313e0e12c28b398e31633936e38d134419161f883c8d64079055910161132a565b604080516001600160a01b0380861660208301528085169282019290925290821660608201526000906080016040516020818303038152906040528051906020012090509392505050565b60008181526003602052604081205460ff1661252557506000919050565b6000828152600360205260409020600c015460ff16151560011480156125d15750600082815260036020526040908190206001015490516355138f0d60e11b81523060048201526001600160a01b039091169063aa271e1a9060240160206040518083038186803b15801561259957600080fd5b505afa1580156125ad573d6000803e3d6000fd5b505050506040513d601f19601f820116820180604052508101906125d19190612d5c565b156126fa576000828152600360209081526040918290206001015482516318160ddd60e01b815292516001600160a01b03909116926318160ddd926004808301939192829003018186803b15801561262857600080fd5b505afa15801561263c573d6000803e3d6000fd5b505050506040513d601f19601f820116820180604052508101906126609190612e3c565b600083815260036020908152604091829020600101548251631aa93a7560e11b815292516001600160a01b039091169263355274ea926004808301939192829003018186803b1580156126b257600080fd5b505afa1580156126c6573d6000803e3d6000fd5b505050506040513d601f19601f820116820180604052508101906126ea9190612e3c565b6126f4919061327c565b92915050565b6000828152600360205260408082206001810154905491516370a0823160e01b81526101009092046001600160a01b03908116600484015216906370a082319060240160206040518083038186803b15801561275557600080fd5b505afa158015612769573d6000803e3d6000fd5b505050506040513d601f19601f8201168201806040525081019061278d9190612e3c565b600084815260036020526040808220600181015490549151636eb1769f60e11b81526001600160a01b0361010090930483166004820152306024820152939450919291169063dd62ed3e9060440160206040518083038186803b1580156127f357600080fd5b505afa158015612807573d6000803e3d6000fd5b505050506040513d601f19601f8201168201806040525081019061282b9190612e3c565b905080821015612852576000848152600360205260409020600601546122f8908390612b65565b60008481526003602052604090206006015461231c908290612b65565b600082815260036020526040812054819081908190869060ff1615156001146128aa5760405162461bcd60e51b815260040161061b90612f13565b6000878152600360205260409020600401546128d990670de0b6b3a764000090611a02906119bd90600a6131b5565b600088815260036020526040902060020154909450612900906001600160a01b0316612ae7565b1561293e5760008781526003602052604090206002015461293b90670de0b6b3a764000090611a0290611a6a906001600160a01b0316612ae7565b92505b60008781526003602052604090206008015461296990670de0b6b3a764000090611a02908790612b84565b9150611ab5836129798685612b65565b90612b65565b600081815260036020526040902054819061010090046001600160a01b031633146129bc5760405162461bcd60e51b815260040161061b90612f5e565b600260005414156129df5760405162461bcd60e51b815260040161061b906130ac565b6002600081815583815260036020526040808220600781018054939055928301549254905163a9059cbb60e01b81526001600160a01b0361010090920482166004820152602481018390529192169063a9059cbb90604401602060405180830381600087803b158015612a5157600080fd5b505af1158015612a65573d6000803e3d6000fd5b505050506040513d601f19601f82011682018060405250810190612a899190612d5c565b506000838152600360209081526040918290206002810154905492518481526001600160a01b039182169361010090049091169186917fecc75f4464886bee0a1c5eae61c0cb4b99c64c5e9cdebe3696217d266f8b163691016110dc565b600154604051637c0aa57760e11b81526001600160a01b038381166004830152600092169063f8154aee9060240160206040518083038186803b158015612b2d57600080fd5b505afa158015612b41573d6000803e3d6000fd5b505050506040513d601f19601f820116820180604052508101906126f49190612e3c565b6000612b718284613138565b9392505050565b6000612b71828461327c565b6000612b71828461325d565b6000612b718284613150565b80356001600160a01b038116811461232257600080fd5b600082601f830112612bc457600080fd5b81356020612bd9612bd483613114565b6130e3565b80838252828201915082860187848660051b8901011115612bf957600080fd5b60005b85811015612c1857813584529284019290840190600101612bfc565b5090979650505050505050565b600060208284031215612c3757600080fd5b612b7182612b9c565b600080600060608486031215612c5557600080fd5b612c5e84612b9c565b9250612c6c60208501612b9c565b9150612c7a60408501612b9c565b90509250925092565b600080600060608486031215612c9857600080fd5b612ca184612b9c565b925060208085013567ffffffffffffffff80821115612cbf57600080fd5b818701915087601f830112612cd357600080fd5b8135612ce1612bd482613114565b8082825285820191508585018b878560051b8801011115612d0157600080fd5b600095505b83861015612d2b57612d1781612b9c565b835260019590950194918601918601612d06565b50965050506040870135925080831115612d4457600080fd5b5050612d5286828701612bb3565b9150509250925092565b600060208284031215612d6e57600080fd5b8151612b71816132d5565b600060208284031215612d8b57600080fd5b5035919050565b60008060408385031215612da557600080fd5b82359150612db560208401612b9c565b90509250929050565b60008060408385031215612dd157600080fd5b823591506020830135612de3816132d5565b809150509250929050565b60008060408385031215612e0157600080fd5b50508035926020909101359150565b600080600060608486031215612e2557600080fd5b505081359360208301359350604090920135919050565b600060208284031215612e4e57600080fd5b5051919050565b6001600160a01b039384168152919092166020820152604081019190915260600190565b6020808252825182820181905260009190848201906040850190845b81811015612eb157835183529284019291840191600101612e95565b50909695505050505050565b60208082526036908201527f46697865645261746545786368616e67653a205468697320616464726573732060408201527506973206e6f7420616c6c6f77656420746f20737761760541b606082015260800190565b6020808252602b908201527f46697865645261746545786368616e67653a2045786368616e676520646f657360408201526a206e6f742065786973742160a81b606082015260800190565b60208082526029908201527f46697865645261746545786368616e67653a20696e76616c69642065786368616040820152683733b29037bbb732b960b91b606082015260800190565b602080825260409082018190527f46697865645261746545786368616e67653a207472616e7366657246726f6d20908201527f6661696c656420696e207468652062617365546f6b656e20636f6e7472616374606082015260800190565b602080825260409082018190527f46697865645261746545786368616e67653a207472616e7366657246726f6d20908201527f6661696c656420696e207468652064617461546f6b656e20636f6e7472616374606082015260800190565b60208082526029908201527f46697865645261746545786368616e67653a207a65726f206461746120746f6b604082015268195b88185b5bdd5b9d60ba1b606082015260800190565b6020808252601f908201527f5265656e7472616e637947756172643a207265656e7472616e742063616c6c00604082015260600190565b604051601f8201601f1916810167ffffffffffffffff8111828210171561310c5761310c6132bf565b604052919050565b600067ffffffffffffffff82111561312e5761312e6132bf565b5060051b60200190565b6000821982111561314b5761314b613293565b500190565b60008261316d57634e487b7160e01b600052601260045260246000fd5b500490565b600181815b808511156131ad57816000190482111561319357613193613293565b808516156131a057918102915b93841c9390800290613177565b509250929050565b6000612b7183836000826131cb575060016126f4565b816131d8575060006126f4565b81600181146131ee57600281146131f857613214565b60019150506126f4565b60ff84111561320957613209613293565b50506001821b6126f4565b5060208310610133831016604e8410600b8410161715613237575081810a6126f4565b6132418383613172565b806000190482111561325557613255613293565b029392505050565b600081600019048311821515161561327757613277613293565b500290565b60008282101561328e5761328e613293565b500390565b634e487b7160e01b600052601160045260246000fd5b634e487b7160e01b600052603260045260246000fd5b634e487b7160e01b600052604160045260246000fd5b80151581146132e357600080fd5b5056fea2646970667358221220d60560d884d3fcf572060a88989989acf3b3e8e342c776abdfdf90ad7d0dc98464736f6c63430008070033",
  "linkReferences": {},
  "deployedLinkReferences": {}
}