{
  "_format": "hh-sol-artifact-1",
  "contractName": "BPool",
  "sourceName": "contracts/pools/balancer/BPool.sol",
  "abi": [
    {
      "anonymous": false,
      "inputs": [
        {
          "indexed": true,
          "internalType": "address",
          "name": "src",
          "type": "address"
        },
        {
          "indexed": true,
          "internalType": "address",
          "name": "dst",
          "type": "address"
        },
        {
          "indexed": false,
          "internalType": "uint256",
          "name": "amt",
          "type": "uint256"
        }
      ],
      "name": "Approval",
      "type": "event"
    },
    {
      "anonymous": false,
      "inputs": [
        {
          "indexed": false,
          "internalType": "address",
          "name": "to",
          "type": "address"
        },
        {
          "indexed": false,
          "internalType": "address",
          "name": "token",
          "type": "address"
        },
        {
          "indexed": false,
          "internalType": "uint256",
          "name": "amount",
          "type": "uint256"
        }
      ],
      "name": "ConsumeMarketFee",
      "type": "event"
    },
    {
      "anonymous": false,
      "inputs": [
        {
          "indexed": false,
          "internalType": "address",
          "name": "token",
          "type": "address"
        },
        {
          "indexed": false,
          "internalType": "uint256",
          "name": "oldBalance",
          "type": "uint256"
        },
        {
          "indexed": false,
          "internalType": "uint256",
          "name": "newBalance",
          "type": "uint256"
        }
      ],
      "name": "Gulped",
      "type": "event"
    },
    {
      "anonymous": false,
      "inputs": [
        {
          "indexed": false,
          "internalType": "uint256",
          "name": "bptAmount",
          "type": "uint256"
        }
      ],
      "name": "LOG_BPT",
      "type": "event"
    },
    {
      "anonymous": false,
      "inputs": [
        {
          "indexed": false,
          "internalType": "uint256",
          "name": "bptAmount",
          "type": "uint256"
        }
      ],
      "name": "LOG_BPT_SS",
      "type": "event"
    },
    {
      "anonymous": false,
      "inputs": [
        {
          "indexed": true,
          "internalType": "bytes4",
          "name": "sig",
          "type": "bytes4"
        },
        {
          "indexed": true,
          "internalType": "address",
          "name": "caller",
          "type": "address"
        },
        {
          "indexed": false,
          "internalType": "uint256",
          "name": "timestamp",
          "type": "uint256"
        },
        {
          "indexed": false,
          "internalType": "bytes",
          "name": "data",
          "type": "bytes"
        }
      ],
      "name": "LOG_CALL",
      "type": "event"
    },
    {
      "anonymous": false,
      "inputs": [
        {
          "indexed": true,
          "internalType": "address",
          "name": "caller",
          "type": "address"
        },
        {
          "indexed": true,
          "internalType": "address",
          "name": "tokenOut",
          "type": "address"
        },
        {
          "indexed": false,
          "internalType": "uint256",
          "name": "tokenAmountOut",
          "type": "uint256"
        },
        {
          "indexed": false,
          "internalType": "uint256",
          "name": "timestamp",
          "type": "uint256"
        }
      ],
      "name": "LOG_EXIT",
      "type": "event"
    },
    {
      "anonymous": false,
      "inputs": [
        {
          "indexed": true,
          "internalType": "address",
          "name": "caller",
          "type": "address"
        },
        {
          "indexed": true,
          "internalType": "address",
          "name": "tokenIn",
          "type": "address"
        },
        {
          "indexed": false,
          "internalType": "uint256",
          "name": "tokenAmountIn",
          "type": "uint256"
        },
        {
          "indexed": false,
          "internalType": "uint256",
          "name": "timestamp",
          "type": "uint256"
        }
      ],
      "name": "LOG_JOIN",
      "type": "event"
    },
    {
      "anonymous": false,
      "inputs": [
        {
          "indexed": true,
          "internalType": "address",
          "name": "caller",
          "type": "address"
        },
        {
          "indexed": true,
          "internalType": "address",
          "name": "baseToken",
          "type": "address"
        },
        {
          "indexed": false,
          "internalType": "uint256",
          "name": "baseTokenAmountIn",
          "type": "uint256"
        },
        {
          "indexed": false,
          "internalType": "uint256",
          "name": "baseTokenWeight",
          "type": "uint256"
        },
        {
          "indexed": true,
          "internalType": "address",
          "name": "datatoken",
          "type": "address"
        },
        {
          "indexed": false,
          "internalType": "uint256",
          "name": "datatokenAmountIn",
          "type": "uint256"
        },
        {
          "indexed": false,
          "internalType": "uint256",
          "name": "datatokenWeight",
          "type": "uint256"
        }
      ],
      "name": "LOG_SETUP",
      "type": "event"
    },
    {
      "anonymous": false,
      "inputs": [
        {
          "indexed": true,
          "internalType": "address",
          "name": "caller",
          "type": "address"
        },
        {
          "indexed": true,
          "internalType": "address",
          "name": "tokenIn",
          "type": "address"
        },
        {
          "indexed": true,
          "internalType": "address",
          "name": "tokenOut",
          "type": "address"
        },
        {
          "indexed": false,
          "internalType": "uint256",
          "name": "tokenAmountIn",
          "type": "uint256"
        },
        {
          "indexed": false,
          "internalType": "uint256",
          "name": "tokenAmountOut",
          "type": "uint256"
        },
        {
          "indexed": false,
          "internalType": "uint256",
          "name": "timestamp",
          "type": "uint256"
        },
        {
          "indexed": false,
          "internalType": "uint256",
          "name": "inBalance",
          "type": "uint256"
        },
        {
          "indexed": false,
          "internalType": "uint256",
          "name": "outBalance",
          "type": "uint256"
        },
        {
          "indexed": false,
          "internalType": "uint256",
          "name": "newSpotPrice",
          "type": "uint256"
        }
      ],
      "name": "LOG_SWAP",
      "type": "event"
    },
    {
      "anonymous": false,
      "inputs": [
        {
          "indexed": false,
          "internalType": "address",
          "name": "caller",
          "type": "address"
        },
        {
          "indexed": false,
          "internalType": "address",
          "name": "OPCWallet",
          "type": "address"
        },
        {
          "indexed": false,
          "internalType": "address",
          "name": "token",
          "type": "address"
        },
        {
          "indexed": false,
          "internalType": "uint256",
          "name": "amount",
          "type": "uint256"
        }
      ],
      "name": "OPCFee",
      "type": "event"
    },
    {
      "anonymous": false,
      "inputs": [
        {
          "indexed": false,
          "internalType": "address",
          "name": "caller",
          "type": "address"
        },
        {
          "indexed": false,
          "internalType": "address",
          "name": "marketAddress",
          "type": "address"
        },
        {
          "indexed": false,
          "internalType": "address",
          "name": "token",
          "type": "address"
        },
        {
          "indexed": false,
          "internalType": "uint256",
          "name": "amount",
          "type": "uint256"
        }
      ],
      "name": "PublishMarketFee",
      "type": "event"
    },
    {
      "anonymous": false,
      "inputs": [
        {
          "indexed": false,
          "internalType": "address",
          "name": "caller",
          "type": "address"
        },
        {
          "indexed": false,
          "internalType": "address",
          "name": "newMarketCollector",
          "type": "address"
        },
        {
          "indexed": false,
          "internalType": "uint256",
          "name": "swapFee",
          "type": "uint256"
        }
      ],
      "name": "PublishMarketFeeChanged",
      "type": "event"
    },
    {
      "anonymous": false,
      "inputs": [
        {
          "indexed": false,
          "internalType": "uint256",
          "name": "LPFeeAmount",
          "type": "uint256"
        },
        {
          "indexed": false,
          "internalType": "uint256",
          "name": "oceanFeeAmount",
          "type": "uint256"
        },
        {
          "indexed": false,
          "internalType": "uint256",
          "name": "marketFeeAmount",
          "type": "uint256"
        },
        {
          "indexed": false,
          "internalType": "uint256",
          "name": "consumeMarketFeeAmount",
          "type": "uint256"
        },
        {
          "indexed": false,
          "internalType": "address",
          "name": "tokenFeeAddress",
          "type": "address"
        }
      ],
      "name": "SWAP_FEES",
      "type": "event"
    },
    {
      "anonymous": false,
      "inputs": [
        {
          "indexed": false,
          "internalType": "address",
          "name": "caller",
          "type": "address"
        },
        {
          "indexed": false,
          "internalType": "uint256",
          "name": "amount",
          "type": "uint256"
        }
      ],
      "name": "SwapFeeChanged",
      "type": "event"
    },
    {
      "anonymous": false,
      "inputs": [
        {
          "indexed": true,
          "internalType": "address",
          "name": "src",
          "type": "address"
        },
        {
          "indexed": true,
          "internalType": "address",
          "name": "dst",
          "type": "address"
        },
        {
          "indexed": false,
          "internalType": "uint256",
          "name": "amt",
          "type": "uint256"
        }
      ],
      "name": "Transfer",
      "type": "event"
    },
    {
      "inputs": [],
      "name": "BONE",
      "outputs": [
        {
          "internalType": "uint256",
          "name": "",
          "type": "uint256"
        }
      ],
      "stateMutability": "view",
      "type": "function"
    },
    {
      "inputs": [],
      "name": "BPOW_PRECISION",
      "outputs": [
        {
          "internalType": "uint256",
          "name": "",
          "type": "uint256"
        }
      ],
      "stateMutability": "view",
      "type": "function"
    },
    {
      "inputs": [],
      "name": "EXIT_FEE",
      "outputs": [
        {
          "internalType": "uint256",
          "name": "",
          "type": "uint256"
        }
      ],
      "stateMutability": "view",
      "type": "function"
    },
    {
      "inputs": [],
      "name": "INIT_POOL_SUPPLY",
      "outputs": [
        {
          "internalType": "uint256",
          "name": "",
          "type": "uint256"
        }
      ],
      "stateMutability": "view",
      "type": "function"
    },
    {
      "inputs": [],
      "name": "MAX_BOUND_TOKENS",
      "outputs": [
        {
          "internalType": "uint256",
          "name": "",
          "type": "uint256"
        }
      ],
      "stateMutability": "view",
      "type": "function"
    },
    {
      "inputs": [],
      "name": "MAX_BPOW_BASE",
      "outputs": [
        {
          "internalType": "uint256",
          "name": "",
          "type": "uint256"
        }
      ],
      "stateMutability": "view",
      "type": "function"
    },
    {
      "inputs": [],
      "name": "MAX_FEE",
      "outputs": [
        {
          "internalType": "uint256",
          "name": "",
          "type": "uint256"
        }
      ],
      "stateMutability": "view",
      "type": "function"
    },
    {
      "inputs": [],
      "name": "MAX_IN_RATIO",
      "outputs": [
        {
          "internalType": "uint256",
          "name": "",
          "type": "uint256"
        }
      ],
      "stateMutability": "view",
      "type": "function"
    },
    {
      "inputs": [],
      "name": "MAX_OUT_RATIO",
      "outputs": [
        {
          "internalType": "uint256",
          "name": "",
          "type": "uint256"
        }
      ],
      "stateMutability": "view",
      "type": "function"
    },
    {
      "inputs": [],
      "name": "MAX_TOTAL_WEIGHT",
      "outputs": [
        {
          "internalType": "uint256",
          "name": "",
          "type": "uint256"
        }
      ],
      "stateMutability": "view",
      "type": "function"
    },
    {
      "inputs": [],
      "name": "MAX_WEIGHT",
      "outputs": [
        {
          "internalType": "uint256",
          "name": "",
          "type": "uint256"
        }
      ],
      "stateMutability": "view",
      "type": "function"
    },
    {
      "inputs": [],
      "name": "MIN_BALANCE",
      "outputs": [
        {
          "internalType": "uint256",
          "name": "",
          "type": "uint256"
        }
      ],
      "stateMutability": "view",
      "type": "function"
    },
    {
      "inputs": [],
      "name": "MIN_BOUND_TOKENS",
      "outputs": [
        {
          "internalType": "uint256",
          "name": "",
          "type": "uint256"
        }
      ],
      "stateMutability": "view",
      "type": "function"
    },
    {
      "inputs": [],
      "name": "MIN_BPOW_BASE",
      "outputs": [
        {
          "internalType": "uint256",
          "name": "",
          "type": "uint256"
        }
      ],
      "stateMutability": "view",
      "type": "function"
    },
    {
      "inputs": [],
      "name": "MIN_FEE",
      "outputs": [
        {
          "internalType": "uint256",
          "name": "",
          "type": "uint256"
        }
      ],
      "stateMutability": "view",
      "type": "function"
    },
    {
      "inputs": [],
      "name": "MIN_WEIGHT",
      "outputs": [
        {
          "internalType": "uint256",
          "name": "",
          "type": "uint256"
        }
      ],
      "stateMutability": "view",
      "type": "function"
    },
    {
      "inputs": [],
      "name": "_publishMarketCollector",
      "outputs": [
        {
          "internalType": "address",
          "name": "",
          "type": "address"
        }
      ],
      "stateMutability": "view",
      "type": "function"
    },
    {
      "inputs": [],
      "name": "_swapPublishMarketFee",
      "outputs": [
        {
          "internalType": "uint256",
          "name": "",
          "type": "uint256"
        }
      ],
      "stateMutability": "view",
      "type": "function"
    },
    {
      "inputs": [
        {
          "internalType": "address",
          "name": "src",
          "type": "address"
        },
        {
          "internalType": "address",
          "name": "dst",
          "type": "address"
        }
      ],
      "name": "allowance",
      "outputs": [
        {
          "internalType": "uint256",
          "name": "",
          "type": "uint256"
        }
      ],
      "stateMutability": "view",
      "type": "function"
    },
    {
      "inputs": [
        {
          "internalType": "address",
          "name": "dst",
          "type": "address"
        },
        {
          "internalType": "uint256",
          "name": "amt",
          "type": "uint256"
        }
      ],
      "name": "approve",
      "outputs": [
        {
          "internalType": "bool",
          "name": "",
          "type": "bool"
        }
      ],
      "stateMutability": "nonpayable",
      "type": "function"
    },
    {
      "inputs": [
        {
          "internalType": "address",
          "name": "whom",
          "type": "address"
        }
      ],
      "name": "balanceOf",
      "outputs": [
        {
          "internalType": "uint256",
          "name": "",
          "type": "uint256"
        }
      ],
      "stateMutability": "view",
      "type": "function"
    },
    {
      "inputs": [
        {
          "internalType": "uint256[4]",
          "name": "data",
          "type": "uint256[4]"
        },
        {
          "internalType": "uint256",
          "name": "tokenAmountOut",
          "type": "uint256"
        },
        {
          "internalType": "uint256",
          "name": "_consumeMarketSwapFee",
          "type": "uint256"
        }
      ],
      "name": "calcInGivenOut",
      "outputs": [
        {
          "internalType": "uint256",
          "name": "tokenAmountIn",
          "type": "uint256"
        },
        {
          "internalType": "uint256",
          "name": "tokenAmountInBalance",
          "type": "uint256"
        },
        {
          "components": [
            {
              "internalType": "uint256",
              "name": "LPFee",
              "type": "uint256"
            },
            {
              "internalType": "uint256",
              "name": "oceanFeeAmount",
              "type": "uint256"
            },
            {
              "internalType": "uint256",
              "name": "publishMarketFeeAmount",
              "type": "uint256"
            },
            {
              "internalType": "uint256",
              "name": "consumeMarketFee",
              "type": "uint256"
            }
          ],
          "internalType": "struct BMath.swapfees",
          "name": "_swapfees",
          "type": "tuple"
        }
      ],
      "stateMutability": "view",
      "type": "function"
    },
    {
      "inputs": [
        {
          "internalType": "uint256[4]",
          "name": "data",
          "type": "uint256[4]"
        },
        {
          "internalType": "uint256",
          "name": "tokenAmountIn",
          "type": "uint256"
        },
        {
          "internalType": "uint256",
          "name": "_consumeMarketSwapFee",
          "type": "uint256"
        }
      ],
      "name": "calcOutGivenIn",
      "outputs": [
        {
          "internalType": "uint256",
          "name": "tokenAmountOut",
          "type": "uint256"
        },
        {
          "internalType": "uint256",
          "name": "balanceInToAdd",
          "type": "uint256"
        },
        {
          "components": [
            {
              "internalType": "uint256",
              "name": "LPFee",
              "type": "uint256"
            },
            {
              "internalType": "uint256",
              "name": "oceanFeeAmount",
              "type": "uint256"
            },
            {
              "internalType": "uint256",
              "name": "publishMarketFeeAmount",
              "type": "uint256"
            },
            {
              "internalType": "uint256",
              "name": "consumeMarketFee",
              "type": "uint256"
            }
          ],
          "internalType": "struct BMath.swapfees",
          "name": "_swapfees",
          "type": "tuple"
        }
      ],
      "stateMutability": "view",
      "type": "function"
    },
    {
      "inputs": [
        {
          "internalType": "address",
          "name": "tokenOut",
          "type": "address"
        },
        {
          "internalType": "uint256",
          "name": "tokenAmountOut",
          "type": "uint256"
        }
      ],
      "name": "calcPoolInSingleOut",
      "outputs": [
        {
          "internalType": "uint256",
          "name": "poolAmountIn",
          "type": "uint256"
        }
      ],
      "stateMutability": "view",
      "type": "function"
    },
    {
      "inputs": [
        {
          "internalType": "address",
          "name": "tokenIn",
          "type": "address"
        },
        {
          "internalType": "uint256",
          "name": "tokenAmountIn",
          "type": "uint256"
        }
      ],
      "name": "calcPoolOutSingleIn",
      "outputs": [
        {
          "internalType": "uint256",
          "name": "poolAmountOut",
          "type": "uint256"
        }
      ],
      "stateMutability": "view",
      "type": "function"
    },
    {
      "inputs": [
        {
          "internalType": "address",
          "name": "tokenIn",
          "type": "address"
        },
        {
          "internalType": "uint256",
          "name": "poolAmountOut",
          "type": "uint256"
        }
      ],
      "name": "calcSingleInPoolOut",
      "outputs": [
        {
          "internalType": "uint256",
          "name": "tokenAmountIn",
          "type": "uint256"
        }
      ],
      "stateMutability": "view",
      "type": "function"
    },
    {
      "inputs": [
        {
          "internalType": "address",
          "name": "tokenOut",
          "type": "address"
        },
        {
          "internalType": "uint256",
          "name": "poolAmountIn",
          "type": "uint256"
        }
      ],
      "name": "calcSingleOutPoolIn",
      "outputs": [
        {
          "internalType": "uint256",
          "name": "tokenAmountOut",
          "type": "uint256"
        }
      ],
      "stateMutability": "view",
      "type": "function"
    },
    {
      "inputs": [],
      "name": "collectMarketFee",
      "outputs": [],
      "stateMutability": "nonpayable",
      "type": "function"
    },
    {
      "inputs": [],
      "name": "collectOPC",
      "outputs": [],
      "stateMutability": "nonpayable",
      "type": "function"
    },
    {
      "inputs": [
        {
          "internalType": "address",
          "name": "",
          "type": "address"
        }
      ],
      "name": "communityFees",
      "outputs": [
        {
          "internalType": "uint256",
          "name": "",
          "type": "uint256"
        }
      ],
      "stateMutability": "view",
      "type": "function"
    },
    {
      "inputs": [],
      "name": "decimals",
      "outputs": [
        {
          "internalType": "uint8",
          "name": "",
          "type": "uint8"
        }
      ],
      "stateMutability": "view",
      "type": "function"
    },
    {
      "inputs": [
        {
          "internalType": "address",
          "name": "dst",
          "type": "address"
        },
        {
          "internalType": "uint256",
          "name": "amt",
          "type": "uint256"
        }
      ],
      "name": "decreaseApproval",
      "outputs": [
        {
          "internalType": "bool",
          "name": "",
          "type": "bool"
        }
      ],
      "stateMutability": "nonpayable",
      "type": "function"
    },
    {
      "inputs": [
        {
          "internalType": "uint256",
          "name": "poolAmountIn",
          "type": "uint256"
        },
        {
          "internalType": "uint256",
          "name": "minAmountOut",
          "type": "uint256"
        }
      ],
      "name": "exitswapPoolAmountIn",
      "outputs": [
        {
          "internalType": "uint256",
          "name": "tokenAmountOut",
          "type": "uint256"
        }
      ],
      "stateMutability": "nonpayable",
      "type": "function"
    },
    {
      "inputs": [
        {
          "internalType": "address",
          "name": "tokenIn",
          "type": "address"
        },
        {
          "internalType": "address",
          "name": "tokenOut",
          "type": "address"
        },
        {
          "internalType": "uint256",
          "name": "tokenAmountOut",
          "type": "uint256"
        },
        {
          "internalType": "uint256",
          "name": "_consumeMarketSwapFee",
          "type": "uint256"
        }
      ],
      "name": "getAmountInExactOut",
      "outputs": [
        {
          "internalType": "uint256",
          "name": "tokenAmountIn",
          "type": "uint256"
        },
        {
          "internalType": "uint256",
          "name": "lpFeeAmount",
          "type": "uint256"
        },
        {
          "internalType": "uint256",
          "name": "oceanFeeAmount",
          "type": "uint256"
        },
        {
          "internalType": "uint256",
          "name": "publishMarketSwapFeeAmount",
          "type": "uint256"
        },
        {
          "internalType": "uint256",
          "name": "consumeMarketSwapFeeAmount",
          "type": "uint256"
        }
      ],
      "stateMutability": "view",
      "type": "function"
    },
    {
      "inputs": [
        {
          "internalType": "address",
          "name": "tokenIn",
          "type": "address"
        },
        {
          "internalType": "address",
          "name": "tokenOut",
          "type": "address"
        },
        {
          "internalType": "uint256",
          "name": "tokenAmountIn",
          "type": "uint256"
        },
        {
          "internalType": "uint256",
          "name": "_consumeMarketSwapFee",
          "type": "uint256"
        }
      ],
      "name": "getAmountOutExactIn",
      "outputs": [
        {
          "internalType": "uint256",
          "name": "tokenAmountOut",
          "type": "uint256"
        },
        {
          "internalType": "uint256",
          "name": "lpFeeAmount",
          "type": "uint256"
        },
        {
          "internalType": "uint256",
          "name": "oceanFeeAmount",
          "type": "uint256"
        },
        {
          "internalType": "uint256",
          "name": "publishMarketSwapFeeAmount",
          "type": "uint256"
        },
        {
          "internalType": "uint256",
          "name": "consumeMarketSwapFeeAmount",
          "type": "uint256"
        }
      ],
      "stateMutability": "view",
      "type": "function"
    },
    {
      "inputs": [
        {
          "internalType": "address",
          "name": "token",
          "type": "address"
        }
      ],
      "name": "getBalance",
      "outputs": [
        {
          "internalType": "uint256",
          "name": "",
          "type": "uint256"
        }
      ],
      "stateMutability": "view",
      "type": "function"
    },
    {
      "inputs": [],
      "name": "getBaseTokenAddress",
      "outputs": [
        {
          "internalType": "address",
          "name": "",
          "type": "address"
        }
      ],
      "stateMutability": "view",
      "type": "function"
    },
    {
      "inputs": [],
      "name": "getController",
      "outputs": [
        {
          "internalType": "address",
          "name": "",
          "type": "address"
        }
      ],
      "stateMutability": "view",
      "type": "function"
    },
    {
      "inputs": [],
      "name": "getCurrentMarketFees",
      "outputs": [
        {
          "internalType": "address[]",
          "name": "",
          "type": "address[]"
        },
        {
          "internalType": "uint256[]",
          "name": "",
          "type": "uint256[]"
        }
      ],
      "stateMutability": "view",
      "type": "function"
    },
    {
      "inputs": [],
      "name": "getCurrentOPCFees",
      "outputs": [
        {
          "internalType": "address[]",
          "name": "",
          "type": "address[]"
        },
        {
          "internalType": "uint256[]",
          "name": "",
          "type": "uint256[]"
        }
      ],
      "stateMutability": "view",
      "type": "function"
    },
    {
      "inputs": [],
      "name": "getCurrentTokens",
      "outputs": [
        {
          "internalType": "address[]",
          "name": "tokens",
          "type": "address[]"
        }
      ],
      "stateMutability": "view",
      "type": "function"
    },
    {
      "inputs": [],
      "name": "getDatatokenAddress",
      "outputs": [
        {
          "internalType": "address",
          "name": "",
          "type": "address"
        }
      ],
      "stateMutability": "view",
      "type": "function"
    },
    {
      "inputs": [
        {
          "internalType": "address",
          "name": "token",
          "type": "address"
        }
      ],
      "name": "getDenormalizedWeight",
      "outputs": [
        {
          "internalType": "uint256",
          "name": "",
          "type": "uint256"
        }
      ],
      "stateMutability": "view",
      "type": "function"
    },
    {
      "inputs": [],
      "name": "getFinalTokens",
      "outputs": [
        {
          "internalType": "address[]",
          "name": "tokens",
          "type": "address[]"
        }
      ],
      "stateMutability": "view",
      "type": "function"
    },
    {
      "inputs": [],
      "name": "getId",
      "outputs": [
        {
          "internalType": "uint8",
          "name": "",
          "type": "uint8"
        }
      ],
      "stateMutability": "pure",
      "type": "function"
    },
    {
      "inputs": [],
      "name": "getMarketFee",
      "outputs": [
        {
          "internalType": "uint256",
          "name": "",
          "type": "uint256"
        }
      ],
      "stateMutability": "view",
      "type": "function"
    },
    {
      "inputs": [
        {
          "internalType": "address",
          "name": "token",
          "type": "address"
        }
      ],
      "name": "getNormalizedWeight",
      "outputs": [
        {
          "internalType": "uint256",
          "name": "",
          "type": "uint256"
        }
      ],
      "stateMutability": "view",
      "type": "function"
    },
    {
      "inputs": [],
      "name": "getNumTokens",
      "outputs": [
        {
          "internalType": "uint256",
          "name": "",
          "type": "uint256"
        }
      ],
      "stateMutability": "view",
      "type": "function"
    },
    {
      "inputs": [],
      "name": "getOPCFee",
      "outputs": [
        {
          "internalType": "uint256",
          "name": "",
          "type": "uint256"
        }
      ],
      "stateMutability": "view",
      "type": "function"
    },
    {
      "inputs": [
        {
          "internalType": "address",
          "name": "tokenIn",
          "type": "address"
        },
        {
          "internalType": "address",
          "name": "tokenOut",
          "type": "address"
        },
        {
          "internalType": "uint256",
          "name": "_consumeMarketSwapFee",
          "type": "uint256"
        }
      ],
      "name": "getSpotPrice",
      "outputs": [
        {
          "internalType": "uint256",
          "name": "spotPrice",
          "type": "uint256"
        }
      ],
      "stateMutability": "view",
      "type": "function"
    },
    {
      "inputs": [],
      "name": "getSwapFee",
      "outputs": [
        {
          "internalType": "uint256",
          "name": "",
          "type": "uint256"
        }
      ],
      "stateMutability": "view",
      "type": "function"
    },
    {
      "inputs": [],
      "name": "getTotalDenormalizedWeight",
      "outputs": [
        {
          "internalType": "uint256",
          "name": "",
          "type": "uint256"
        }
      ],
      "stateMutability": "view",
      "type": "function"
    },
    {
      "inputs": [
        {
          "internalType": "address",
          "name": "token",
          "type": "address"
        }
      ],
      "name": "gulp",
      "outputs": [],
      "stateMutability": "nonpayable",
      "type": "function"
    },
    {
      "inputs": [
        {
          "internalType": "address",
          "name": "dst",
          "type": "address"
        },
        {
          "internalType": "uint256",
          "name": "amt",
          "type": "uint256"
        }
      ],
      "name": "increaseApproval",
      "outputs": [
        {
          "internalType": "bool",
          "name": "",
          "type": "bool"
        }
      ],
      "stateMutability": "nonpayable",
      "type": "function"
    },
    {
      "inputs": [
        {
          "internalType": "address",
          "name": "controller",
          "type": "address"
        },
        {
          "internalType": "address",
          "name": "factory",
          "type": "address"
        },
        {
          "internalType": "uint256[]",
          "name": "swapFees",
          "type": "uint256[]"
        },
        {
          "internalType": "bool",
          "name": "publicSwap",
          "type": "bool"
        },
        {
          "internalType": "bool",
          "name": "finalized",
          "type": "bool"
        },
        {
          "internalType": "address[2]",
          "name": "tokens",
          "type": "address[2]"
        },
        {
          "internalType": "address[1]",
          "name": "feeCollectors",
          "type": "address[1]"
        }
      ],
      "name": "initialize",
      "outputs": [
        {
          "internalType": "bool",
          "name": "",
          "type": "bool"
        }
      ],
      "stateMutability": "nonpayable",
      "type": "function"
    },
    {
      "inputs": [
        {
          "internalType": "address",
          "name": "t",
          "type": "address"
        }
      ],
      "name": "isBound",
      "outputs": [
        {
          "internalType": "bool",
          "name": "",
          "type": "bool"
        }
      ],
      "stateMutability": "view",
      "type": "function"
    },
    {
      "inputs": [],
      "name": "isFinalized",
      "outputs": [
        {
          "internalType": "bool",
          "name": "",
          "type": "bool"
        }
      ],
      "stateMutability": "view",
      "type": "function"
    },
    {
      "inputs": [],
      "name": "isInitialized",
      "outputs": [
        {
          "internalType": "bool",
          "name": "",
          "type": "bool"
        }
      ],
      "stateMutability": "view",
      "type": "function"
    },
    {
      "inputs": [],
      "name": "isPublicSwap",
      "outputs": [
        {
          "internalType": "bool",
          "name": "",
          "type": "bool"
        }
      ],
      "stateMutability": "view",
      "type": "function"
    },
    {
      "inputs": [
        {
          "internalType": "uint256",
          "name": "tokenAmountIn",
          "type": "uint256"
        },
        {
          "internalType": "uint256",
          "name": "minPoolAmountOut",
          "type": "uint256"
        }
      ],
      "name": "joinswapExternAmountIn",
      "outputs": [
        {
          "internalType": "uint256",
          "name": "poolAmountOut",
          "type": "uint256"
        }
      ],
      "stateMutability": "nonpayable",
      "type": "function"
    },
    {
      "inputs": [],
      "name": "name",
      "outputs": [
        {
          "internalType": "string",
          "name": "",
          "type": "string"
        }
      ],
      "stateMutability": "view",
      "type": "function"
    },
    {
      "inputs": [
        {
          "internalType": "address",
          "name": "",
          "type": "address"
        }
      ],
      "name": "publishMarketFees",
      "outputs": [
        {
          "internalType": "uint256",
          "name": "",
          "type": "uint256"
        }
      ],
      "stateMutability": "view",
      "type": "function"
    },
    {
      "inputs": [],
      "name": "router",
      "outputs": [
        {
          "internalType": "address",
          "name": "",
          "type": "address"
        }
      ],
      "stateMutability": "view",
      "type": "function"
    },
    {
      "inputs": [
        {
          "internalType": "uint256",
          "name": "swapFee",
          "type": "uint256"
        }
      ],
      "name": "setSwapFee",
      "outputs": [],
      "stateMutability": "nonpayable",
      "type": "function"
    },
    {
      "inputs": [
        {
          "internalType": "address",
          "name": "datatokenAddress",
          "type": "address"
        },
        {
          "internalType": "uint256",
          "name": "datatokenAmount",
          "type": "uint256"
        },
        {
          "internalType": "uint256",
          "name": "datatokenWeight",
          "type": "uint256"
        },
        {
          "internalType": "address",
          "name": "baseTokenAddress",
          "type": "address"
        },
        {
          "internalType": "uint256",
          "name": "baseTokenAmount",
          "type": "uint256"
        },
        {
          "internalType": "uint256",
          "name": "baseTokenWeight",
          "type": "uint256"
        }
      ],
      "name": "setup",
      "outputs": [],
      "stateMutability": "nonpayable",
      "type": "function"
    },
    {
      "inputs": [
        {
          "internalType": "address[3]",
          "name": "tokenInOutMarket",
          "type": "address[3]"
        },
        {
          "internalType": "uint256[4]",
          "name": "amountsInOutMaxFee",
          "type": "uint256[4]"
        }
      ],
      "name": "swapExactAmountIn",
      "outputs": [
        {
          "internalType": "uint256",
          "name": "tokenAmountOut",
          "type": "uint256"
        },
        {
          "internalType": "uint256",
          "name": "spotPriceAfter",
          "type": "uint256"
        }
      ],
      "stateMutability": "nonpayable",
      "type": "function"
    },
    {
      "inputs": [
        {
          "internalType": "address[3]",
          "name": "tokenInOutMarket",
          "type": "address[3]"
        },
        {
          "internalType": "uint256[4]",
          "name": "amountsInOutMaxFee",
          "type": "uint256[4]"
        }
      ],
      "name": "swapExactAmountOut",
      "outputs": [
        {
          "internalType": "uint256",
          "name": "tokenAmountIn",
          "type": "uint256"
        },
        {
          "internalType": "uint256",
          "name": "spotPriceAfter",
          "type": "uint256"
        }
      ],
      "stateMutability": "nonpayable",
      "type": "function"
    },
    {
      "inputs": [],
      "name": "symbol",
      "outputs": [
        {
          "internalType": "string",
          "name": "",
          "type": "string"
        }
      ],
      "stateMutability": "view",
      "type": "function"
    },
    {
      "inputs": [],
      "name": "totalSupply",
      "outputs": [
        {
          "internalType": "uint256",
          "name": "",
          "type": "uint256"
        }
      ],
      "stateMutability": "view",
      "type": "function"
    },
    {
      "inputs": [
        {
          "internalType": "address",
          "name": "dst",
          "type": "address"
        },
        {
          "internalType": "uint256",
          "name": "amt",
          "type": "uint256"
        }
      ],
      "name": "transfer",
      "outputs": [
        {
          "internalType": "bool",
          "name": "",
          "type": "bool"
        }
      ],
      "stateMutability": "nonpayable",
      "type": "function"
    },
    {
      "inputs": [
        {
          "internalType": "address",
          "name": "src",
          "type": "address"
        },
        {
          "internalType": "address",
          "name": "dst",
          "type": "address"
        },
        {
          "internalType": "uint256",
          "name": "amt",
          "type": "uint256"
        }
      ],
      "name": "transferFrom",
      "outputs": [
        {
          "internalType": "bool",
          "name": "",
          "type": "bool"
        }
      ],
      "stateMutability": "nonpayable",
      "type": "function"
    },
    {
      "inputs": [
        {
          "internalType": "address",
          "name": "_newCollector",
          "type": "address"
        },
        {
          "internalType": "uint256",
          "name": "_newSwapFee",
          "type": "uint256"
        }
      ],
      "name": "updatePublishMarketFee",
      "outputs": [],
      "stateMutability": "nonpayable",
      "type": "function"
    }
  ],
  "bytecode": "0x608060405234801561001057600080fd5b506159bc80620000216000396000f3fe608060405234801561001057600080fd5b50600436106104285760003560e01c8063892cdf9e1161022b578063c36596a611610130578063d73dd623116100b8578063f1b8a9b711610087578063f1b8a9b714610937578063f887ea401461094a578063f8b2cb4f1461095d578063fde924f714610970578063ff9b18501461098257600080fd5b8063d73dd623146108e3578063dd62ed3e146108f6578063e4a28a52146104af578063ec0930211461092f57600080fd5b8063c98a59cf116100ff578063c98a59cf146108a5578063caa01148146108b8578063cc77828d146108cb578063cd2ed8fb146108d3578063d4cadf68146108db57600080fd5b8063c36596a614610502578063c421a3fc1461086d578063c44a428314610895578063c6580d121461089d57600080fd5b8063a9059cbb116101b3578063ba019dab11610182578063ba019dab1461082a578063bc063e1a14610832578063bc694ea21461083a578063be3bbd2e14610842578063bf7db2361461085757600080fd5b8063a9059cbb14610807578063ab77a2de1461081a578063b0e0d13614610822578063b7b800a41461082257600080fd5b80639381cd2b116101fa5780639381cd2b146107b2578063948d8ce6146107ba57806395d89b41146107cd578063992e2a92146107ec578063a3b3a16d146107f457600080fd5b8063892cdf9e146107725780638c28cbe8146107855780638d4e408314610798578063936c3477146107aa57600080fd5b806334e1990711610331578063638c9e95116102b95780637a284be4116102885780637a284be4146107265780637c5918b31461072f57806380ca73081461074f5780638329ab3314610757578063867378c51461076a57600080fd5b8063638c9e95146106cf57806366188463146106e257806370a08231146106f557806376c7a3c71461071e57600080fd5b8063458c3fb511610300578063458c3fb5146106505780634df947d01461066157806351705cd0146106725780635d1ca631146106c05780635e123add146106c757600080fd5b806334e1990714610605578063392e53cd146106185780633950b3fd1461062a578063430ed5d01461063d57600080fd5b8063218b5382116103b45780632eebd6ae116103835780632eebd6ae1461053f5780632f37b6241461057a57806330062192146105a65780633018205f146105c6578063313ce567146105f057600080fd5b8063218b53821461050257806323b872dd14610511578063284e97a91461052457806329b88a6a1461053757600080fd5b806309ef3f5b116103fb57806309ef3f5b146104b757806312989260146104cc57806318160ddd146104df578063189d00ca146104e757806318f9722a146104ef57600080fd5b806306fdde031461042d578063079492d41461046b578063095ea7b31461048c57806309a3bbe4146104af575b600080fd5b60408051808201909152601081526f27b1b2b0b7102837b7b6102a37b5b2b760811b60208201525b604051610462919061526c565b60405180910390f35b61047e6104793660046152b4565b610995565b604051908152602001610462565b61049f61049a3660046152f5565b610a23565b6040519015158152602001610462565b61047e610a7e565b6104ca6104c5366004615321565b610a94565b005b61047e6104da36600461537d565b610cc7565b60095461047e565b61047e6110de565b6104ca6104fd3660046152f5565b6110f5565b61047e670de0b6b3a764000081565b61049f61051f3660046152b4565b61126d565b61049f6105323660046153da565b6113bc565b61047e6116ad565b61055261054d3660046154ba565b611727565b604080519586526020860194909452928401919091526060830152608082015260a001610462565b61049f610588366004615500565b6001600160a01b03166000908152600d602052604090205460ff1690565b61047e6105b4366004615500565b60056020526000908152604090205481565b600a5461010090046001600160a01b03165b6040516001600160a01b039091168152602001610462565b60125b60405160ff9091168152602001610462565b6104ca61061336600461551d565b6117ff565b600f54600160a01b900460ff1661049f565b61047e6106383660046152f5565b6118f9565b61047e61064b3660046152f5565b61195e565b6003546001600160a01b03166105d8565b6004546001600160a01b03166105d8565b61068561068036600461554c565b6119bb565b6040805193845260208085019390935281518482015291810151606080850191909152918101516080840152015160a082015260c001610462565b60016105f3565b60005461047e565b600b546105d8906001600160a01b031681565b61049f6106f03660046152f5565b611b6e565b61047e610703366004615500565b6001600160a01b031660009081526007602052604090205490565b61047e611c44565b61047e60005481565b61047e61073d366004615500565b60066020526000908152604090205481565b6104ca611c58565b61047e61076536600461537d565b611de5565b61047e6121b9565b61068561078036600461554c565b6121d0565b6104ca610793366004615500565b612377565b600b54600160a01b900460ff1661049f565b61047e6124e9565b61047e612516565b61047e6107c8366004615500565b612529565b60408051808201909152600381526213d41560ea1b6020820152610455565b61047e61257b565b61047e6108023660046152f5565b612599565b61049f6108153660046152f5565b6125f6565b6104ca61260c565b61047e600281565b61047e600181565b61047e6127cd565b61047e6127e0565b61084a6127ff565b604051610462919061561c565b61085f6128ae565b60405161046292919061562f565b61088061087b366004615686565b612a1e565b60408051928352602083019190915201610462565b61085f6131ed565b61047e600081565b6108806108b3366004615686565b613352565b6105526108c63660046154ba565b613a7c565b61084a613b26565b600c5461047e565b60015461047e565b61049f6108f13660046152f5565b613b4c565b61047e6109043660046156c8565b6001600160a01b03918216600090815260086020908152604080832093909416825291909152205490565b61047e613bbf565b61047e610945366004615500565b613bd2565b6002546105d8906001600160a01b031681565b61047e61096b366004615500565b613c2b565b600a54600160a81b900460ff1661049f565b61047e6109903660046152f5565b613c79565b600a5460009060ff16156109c45760405162461bcd60e51b81526004016109bb906156f6565b60405180910390fd5b6109cd84613cd6565b6109d683613cd6565b6001600160a01b038085166000908152600d6020526040808220928616825290206003808301546002808501549284015490840154610a1793919088613d31565b925050505b9392505050565b3360008181526008602090815260408083206001600160a01b0387168085529252808320859055519192909160008051602061596783398151915290610a6c9086815260200190565b60405180910390a35060015b92915050565b610a91670de0b6b3a76400006032615731565b81565b600a5460ff1615610ab75760405162461bcd60e51b81526004016109bb906156f6565b600a8054600160ff19909116179081905561010090046001600160a01b03163314610b1d5760405162461bcd60e51b815260206004820152601660248201527522a9292fa4a72b20a624a22fa1a7a72a2927a62622a960511b60448201526064016109bb565b6003546001600160a01b03878116911614610b7a5760405162461bcd60e51b815260206004820152601d60248201527f4552525f494e56414c49445f44415441544f4b454e5f4144445245535300000060448201526064016109bb565b6004546001600160a01b03848116911614610bd75760405162461bcd60e51b815260206004820152601d60248201527f4552525f494e56414c49445f62617365546f6b656e5f4144445245535300000060448201526064016109bb565b610be2868686613db3565b604080518681524260208201526001600160a01b038816913391600080516020615947833981519152910160405180910390a3610c20838383613db3565b604080518381524260208201526001600160a01b038516913391600080516020615947833981519152910160405180910390a3610c5b613fa1565b6040805183815260208101839052908101869052606081018590526001600160a01b03808816919085169033907fbece8b4dcdbe446dd65a9288154698e067e3e91de17a1a408c2f531b9f845d739060800160405180910390a45050600a805460ff1916905550505050565b600a5460009060ff1615610ced5760405162461bcd60e51b81526004016109bb906156f6565b600a805460ff19166001179055600b54600160a01b900460ff16610d235760405162461bcd60e51b81526004016109bb90615750565b600454610d38906001600160a01b0316613cd6565b6004546001600160a01b03166000908152600d602052604090206003810154600954610d65919086614000565b915082821015610d875760405162461bcd60e51b81526004016109bb9061577b565b6004546001600160a01b03166000908152600d6020526040902060030154610dcc90610dbc6002670de0b6b3a76400006157b8565b610dc79060016157cc565b6140aa565b821115610e0f5760405162461bcd60e51b81526020600482015260116024820152704552525f4d41585f4f55545f524154494f60781b60448201526064016109bb565b610e1d81600301548361418f565b6003820155600454604080518481524260208201526001600160a01b039092169133917f9d9058fd2f25ccc389fec7720abef0ca83472f5abfafd5f10d37f51e6a0493f3910160405180910390a36040518481527ffcda32798d5a9d032f49b37fea876d422f18f6e386e0f07db6029b693624b2c29060200160405180910390a1600f54600354604051630d098ab360e11b81526001600160a01b03918216600482015260248101879052911690631a13156690604401602060405180830381865afa158015610ef1573d6000803e3d6000fd5b505050506040513d601f19601f82011682018060405250810190610f1591906157e4565b156110a357600380546001600160a01b03166000908152600d6020526040812091820154600954610f47919088614000565b9050610f5782600301548261418f565b60038381019190915554600a54604080518481524260208201526001600160a01b0393841693610100909304909216917f9d9058fd2f25ccc389fec7720abef0ca83472f5abfafd5f10d37f51e6a0493f3910160405180910390a3600a54610fcd9061010090046001600160a01b0316876141ec565b610fd6866141f6565b600354600a54610ff8916001600160a01b0390811691610100900416836141ff565b600f5460035460405163054a976360e41b81526001600160a01b03918216600482015260248101849052604481018990529116906354a9763090606401600060405180830381600087803b15801561104f57600080fd5b505af1158015611063573d6000803e3d6000fd5b505050507f87b3975661762d852ddf2eeaad6a43b2d93777de7b3b7bdb634283df324561188660405161109891815260200190565b60405180910390a150505b6110ad33856141ec565b6110b6846141f6565b6004546110cd906001600160a01b031633846141ff565b50600a805460ff1916905592915050565b610a916402540be400670de0b6b3a76400006157b8565b600b546001600160a01b031633146111475760405162461bcd60e51b815260206004820152601560248201527427a7262c9026a0a925a2aa1021a7a62622a1aa27a960591b60448201526064016109bb565b6001600160a01b03821661119d5760405162461bcd60e51b815260206004820152601d60248201527f496e76616c6964205f6e6577436f6c6c6563746f72206164647265737300000060448201526064016109bb565b8015806111bd57506111b9612710670de0b6b3a76400006157b8565b8110155b6111d95760405162461bcd60e51b81526004016109bb90615801565b6111ec600a670de0b6b3a76400006157b8565b81111561120b5760405162461bcd60e51b81526004016109bb90615826565b600b80546001600160a01b0319166001600160a01b03841690811790915560008290556040517f5e3e722dbd3b6b8071b78568ac80cd0e8ff92e4fb3024e755d504d8f7c2f6f099161126191339190859061584b565b60405180910390a15050565b6000336001600160a01b03851614806112a957506001600160a01b03841660009081526008602090815260408083203384529091529020548211155b6112ed5760405162461bcd60e51b815260206004820152601560248201527422a9292fa12a27a5a2a72fa120a22fa1a0a62622a960591b60448201526064016109bb565b6112f8848484614213565b336001600160a01b0385161480159061133657506001600160a01b038416600090815260086020908152604080832033845290915290205460001914155b156113b2576001600160a01b0384166000908152600860209081526040808320338452909152902054611369908361418f565b6001600160a01b03851660008181526008602090815260408083203380855290835292819020859055519384529092600080516020615967833981519152910160405180910390a35b5060019392505050565b600f54600090600160a01b900460ff16156114195760405162461bcd60e51b815260206004820152601760248201527f4552525f414c52454144595f494e495449414c495a454400000000000000000060448201526064016109bb565b6001600160a01b03891661146f5760405162461bcd60e51b815260206004820152601e60248201527f4552525f494e56414c49445f434f4e54524f4c4c45525f41444452455353000060448201526064016109bb565b6001600160a01b0388166114c55760405162461bcd60e51b815260206004820152601b60248201527f4552525f494e56414c49445f464143544f52595f41444452455353000000000060448201526064016109bb565b6114d9612710670de0b6b3a76400006157b8565b878760008181106114ec576114ec61586f565b9050602002013510156115115760405162461bcd60e51b81526004016109bb90615801565b611524600a670de0b6b3a76400006157b8565b878760008181106115375761153761586f565b90506020020135111561155c5760405162461bcd60e51b81526004016109bb90615826565b8686600181811061156f5761156f61586f565b90506020020135600014806115b05750611593612710670de0b6b3a76400006157b8565b878760018181106115a6576115a661586f565b9050602002013510155b6115cc5760405162461bcd60e51b81526004016109bb90615801565b6115df600a670de0b6b3a76400006157b8565b878760018181106115f2576115f261586f565b9050602002013511156116175760405162461bcd60e51b81526004016109bb90615826565b6116a08989898980806020026020016040519081016040528093929190818152602001838360200280828437600092019190915250506040805180820182528c93508b9250908a9060029083908390808284376000920191909152505060408051602081810190925291508a906001908390839080828437600092019190915250614325915050565b9998505050505050505050565b6002546004805460405163b8421e2b60e01b81526001600160a01b0391821692810192909252600092169063b8421e2b90602401602060405180830381865afa1580156116fe573d6000803e3d6000fd5b505050506040513d601f19601f820116820180604052508101906117229190615885565b905090565b600080600080600061173889613cd6565b61174188613cd6565b604080516080810182526001600160a01b03808c166000908152600d6020818152858320600380820154875260029182015483880152948f168085528383528785209586015497870197909752958352529201546060820152906117c66040518060800160405280600081526020016000815260200160008152602001600081525090565b6117d1838b8b6121d0565b805160208201516040830151606090930151949c50909a509850965090945050505050945094509450945094565b600a5461010090046001600160a01b031633146118535760405162461bcd60e51b815260206004820152601260248201527122a9292fa727aa2fa1a7a72a2927a62622a960711b60448201526064016109bb565b611867612710670de0b6b3a76400006157b8565b8110156118865760405162461bcd60e51b81526004016109bb90615801565b611899600a670de0b6b3a76400006157b8565b8111156118b85760405162461bcd60e51b81526004016109bb90615826565b600181905560408051338152602081018390527fbca0d601c32979eebac4e8cd06375b6e45d39af80fc06a33f366425b450dfb69910160405180910390a150565b6001600160a01b0382166000908152600d602090815260408083208151608081018352815460ff161515815260018201549381019390935260028101549183019190915260030154606082018190526009546119569190856144d4565b949350505050565b6001600160a01b0382166000908152600d602090815260408083208151608081018352815460ff16151581526001820154938101939093526002810154918301919091526003015460608201819052600954611956919085614000565b6000806119e96040518060800160405280600081526020016000815260200160008152602001600081525090565b6000611a0487600360200201518860015b6020020151614587565b90506000611a1988600260200201518861418f565b90506000611a2e896002602002015183614587565b90506000611a3c828561469f565b9050611a5081670de0b6b3a764000061418f565b90506000805489611a5f6116ad565b600154611a6c91906157cc565b611a7691906157cc565b611a8091906157cc565b9050611aae611a978c60005b6020020151846140aa565b611aa9670de0b6b3a76400008461418f565b614587565b9750611ad188611acc8a610dc7670de0b6b3a7640000611acc6116ad565b61418f565b866020018181525050611af688611acc8a610dc7670de0b6b3a764000060005461418f565b866040018181525050611b1b88611acc8a610dc7670de0b6b3a764000060015461418f565b8652611b3788611acc81610dc7670de0b6b3a76400008e61418f565b6060870152611b5e611b4a8c6000611a8c565b611aa9670de0b6b3a764000060015461418f565b9650505050505093509350939050565b3360009081526008602090815260408083206001600160a01b038616845290915281205480831115611bc3573360009081526008602090815260408083206001600160a01b0388168452909152812055611bf2565b611bcd818461418f565b3360009081526008602090815260408083206001600160a01b03891684529091529020555b3360008181526008602090815260408083206001600160a01b03891680855290835292819020549051908152919291600080516020615967833981519152910160405180910390a35060019392505050565b610a91612710670de0b6b3a76400006157b8565b6000611c626127ff565b905060005b8151811015611de157600060066000848481518110611c8857611c8861586f565b60200260200101516001600160a01b03166001600160a01b03168152602001908152602001600020549050600060066000858581518110611ccb57611ccb61586f565b60200260200101516001600160a01b03166001600160a01b03168152602001908152602001600020819055507fbaf1ab77be65c7abf8fcd922bfcf0a749f556ac1a4cdf39c126ffaa1851edb5633600b60009054906101000a90046001600160a01b0316858581518110611d4157611d4161586f565b602002602001015184604051611d7f94939291906001600160a01b039485168152928416602084015292166040820152606081019190915260800190565b60405180910390a1600b548351611dce916001600160a01b0316908390869086908110611dae57611dae61586f565b60200260200101516001600160a01b03166147cb9092919063ffffffff16565b5080611dd98161589e565b915050611c67565b5050565b600a5460009060ff1615611e0b5760405162461bcd60e51b81526004016109bb906156f6565b600a805460ff19166001179055600b54600160a01b900460ff16611e415760405162461bcd60e51b81526004016109bb90615750565b600454611e56906001600160a01b0316613cd6565b6004546001600160a01b03166000908152600d6020526040902060030154611e8b90610dc76002670de0b6b3a76400006157b8565b831115611ecd5760405162461bcd60e51b815260206004820152601060248201526f4552525f4d41585f494e5f524154494f60801b60448201526064016109bb565b6004546001600160a01b03166000908152600d602052604090206003810154600954611efa9190866144d4565b915082821015611f1c5760405162461bcd60e51b81526004016109bb9061577b565b611f2a81600301548561482e565b6003820155600454604080518681524260208201526001600160a01b03909216913391600080516020615947833981519152910160405180910390a36040518281527ffcda32798d5a9d032f49b37fea876d422f18f6e386e0f07db6029b693624b2c29060200160405180910390a1600380546001600160a01b03166000908152600d6020526040812091820154600954611fc6919086614880565b600f54600354604051632afbbacb60e01b81526001600160a01b039182166004820152602481018490529293501690632afbbacb90604401602060405180830381865afa15801561201b573d6000803e3d6000fd5b505050506040513d601f19601f8201168201806040525081019061203f91906157e4565b1561217c57600f5460035460405163ebedb8b360e01b81526001600160a01b0391821660048201526024810184905291169063ebedb8b390604401600060405180830381600087803b15801561209457600080fd5b505af11580156120a8573d6000803e3d6000fd5b505050506120ba82600301548261482e565b60038381019190915554600a54604080518481524260208201526001600160a01b039384169361010090930490921691600080516020615947833981519152910160405180910390a36040518481527f87b3975661762d852ddf2eeaad6a43b2d93777de7b3b7bdb634283df324561189060200160405180910390a161213f8461491d565b600a5461215a9061010090046001600160a01b031685614926565b600354600a5461217c916001600160a01b039081169161010090041683614930565b6121858461491d565b61218f3385614926565b6004546121a6906001600160a01b03163388614930565b505050600a805460ff1916905592915050565b610a9164e8d4a51000670de0b6b3a76400006157b8565b6000806121fe6040518060800160405280600081526020016000815260200160008152602001600081525090565b600061221387600160200201518860036119fa565b905061223186611acc88610dc7670de0b6b3a7640000611acc6116ad565b82602001818152505061225686611acc88610dc7670de0b6b3a764000060005461418f565b82604001818152505061227b86611acc88610dc7670de0b6b3a764000060015461418f565b825261229786611acc81610dc7670de0b6b3a76400008a61418f565b60608301526000805486906122aa6116ad565b6001546122b791906157cc565b6122c191906157cc565b6122cb91906157cc565b905060006122e1670de0b6b3a76400008361418f565b90506122ed88826140aa565b895190915060009061230390611aa9818561482e565b90506000612311828661469f565b90506000612327670de0b6b3a76400008361418f565b905061233a8c60026020020151826140aa565b9850886123648c89606001518a604001518b6020015161235a91906157cc565b611acc91906157cc565b9850985050505050505093509350939050565b600a5460ff161561239a5760405162461bcd60e51b81526004016109bb906156f6565b600a805460ff191660011790556001600160a01b0381166000908152600d602052604090205460ff166123ff5760405162461bcd60e51b815260206004820152600d60248201526c11549497d393d517d093d55391609a1b60448201526064016109bb565b6001600160a01b0381166000818152600d6020526040908190206003015490516370a0823160e01b81523060048201529091906370a0823190602401602060405180830381865afa158015612458573d6000803e3d6000fd5b505050506040513d601f19601f8201168201806040525081019061247c9190615885565b6001600160a01b0383166000818152600d6020908152604091829020600301849055815192835282018490528101919091527f9facca02b471d2776031537a8c9e281dfe5120035ede107bd328b165ffd973389060600160405180910390a15050600a805460ff19169055565b600a5460009060ff161561250f5760405162461bcd60e51b81526004016109bb906156f6565b50600e5490565b610a91670de0b6b3a76400006064615731565b600a5460009060ff161561254f5760405162461bcd60e51b81526004016109bb906156f6565b61255882613cd6565b506001600160a01b0381166000908152600d60205260409020600201545b919050565b61258e6002670de0b6b3a76400006157b8565b610a919060016157cc565b6001600160a01b0382166000908152600d602090815260408083208151608081018352815460ff16151581526001820154938101939093526002810154918301919091526003015460608201819052600954611956919085614a78565b6000612603338484614213565b50600192915050565b60006126166127ff565b905060005b8151811015611de15760006005600084848151811061263c5761263c61586f565b60200260200101516001600160a01b03166001600160a01b0316815260200190815260200160002054905060006005600085858151811061267f5761267f61586f565b60200260200101516001600160a01b03166001600160a01b03168152602001908152602001600020819055506000600260009054906101000a90046001600160a01b03166001600160a01b0316631a81876d6040518163ffffffff1660e01b8152600401602060405180830381865afa158015612700573d6000803e3d6000fd5b505050506040513d601f19601f8201168201806040525081019061272491906158b9565b90507fed2b0288692cfc6d01c94a67a53721792f59c3d1388221f8aa4f66c8d2808dde338286868151811061275b5761275b61586f565b60200260200101518560405161279994939291906001600160a01b039485168152928416602084015292166040820152606081019190915260800190565b60405180910390a16127b88183868681518110611dae57611dae61586f565b505080806127c59061589e565b91505061261b565b610a91600a670de0b6b3a76400006157b8565b60016127f5670de0b6b3a76400006002615731565b610a9191906158d6565b600a5460609060ff16156128255760405162461bcd60e51b81526004016109bb906156f6565b600b54600160a01b900460ff1661284e5760405162461bcd60e51b81526004016109bb90615750565b600c8054806020026020016040519081016040528092919081815260200182805480156128a457602002820191906000526020600020905b81546001600160a01b03168152600190910190602001808311612886575b5050505050905090565b60608060006128bb6127ff565b90506000815167ffffffffffffffff8111156128d9576128d9615536565b604051908082528060200260200182016040528015612902578160200160208202803683370190505b5090506000825167ffffffffffffffff81111561292157612921615536565b60405190808252806020026020018201604052801561294a578160200160208202803683370190505b50905060005b8351811015612a135783818151811061296b5761296b61586f565b60200260200101518382815181106129855761298561586f565b60200260200101906001600160a01b031690816001600160a01b031681525050600560008583815181106129bb576129bb61586f565b60200260200101516001600160a01b03166001600160a01b03168152602001908152602001600020548282815181106129f6576129f661586f565b602090810291909101015280612a0b8161589e565b915050612950565b509094909350915050565b600a54600090819060ff1615612a465760405162461bcd60e51b81526004016109bb906156f6565b600a805460ff19166001179055600b54600160a01b900460ff16612a7c5760405162461bcd60e51b81526004016109bb90615750565b612a8c6040850160208601615500565b6001600160a01b0316612aa26020860186615500565b6001600160a01b03161415612af25760405162461bcd60e51b815260206004820152601660248201527521b0b73737ba1039bbb0b81039b0b6b2903a37b5b2b760511b60448201526064016109bb565b612b118460005b602002016020810190612b0c9190615500565b613cd6565b612b1c846001612af9565b6000600d81612b2e6020880188615500565b6001600160a01b03168152602081019190915260400160009081209150600d81876001602002016020810190612b649190615500565b6001600160a01b031681526020810191909152604001600020905060608501351580612ba75750612b9f612710670de0b6b3a76400006157b8565b606086013510155b612bec5760405162461bcd60e51b8152602060048201526016602482015275436f6e73756d655377617046656520746f6f206c6f7760501b60448201526064016109bb565b612bff600a670de0b6b3a76400006157b8565b60608601351115612c4c5760405162461bcd60e51b8152602060048201526017602482015276086dedce6eadacaa6eec2e08ccaca40e8dede40d0d2ced604b1b60448201526064016109bb565b6003820154612c6890610dc76002670de0b6b3a76400006157b8565b85351115612cab5760405162461bcd60e51b815260206004820152601060248201526f4552525f4d41585f494e5f524154494f60801b60448201526064016109bb565b6000612ce183600301548460020154846003015485600201548a600360048110612cd757612cd761586f565b6020020135613d31565b90506040860135811115612d2d5760405162461bcd60e51b81526020600482015260136024820152724552525f4241445f4c494d49545f505249434560681b60448201526064016109bb565b600080604051806080016040528086600301548152602001866002015481526020018560030154815260200185600201548152509050612d8e6040518060800160405280600081526020016000815260200160008152602001600081525090565b612d9e828a3560608c01356121d0565b91995093509050612ded600560008c815b602002016020810190612dc29190615500565b6001600160a01b03166001600160a01b0316815260200190815260200160002054826020015161482e565b60056000612dfe60208e018e615500565b6001600160a01b03166001600160a01b0316815260200190815260200160002081905550612e7a600660008c600060038110612e3c57612e3c61586f565b602002016020810190612e4f9190615500565b6001600160a01b03166001600160a01b0316815260200190815260200160002054826040015161482e565b60066000612e8b60208e018e615500565b6001600160a01b03166001600160a01b03168152602001908152602001600020819055507f53a9dc73d01196a9c660d761bc5ec77b945340a34b5b52e510760af2dab1c0f181600001518260200151836040015184606001518e600060038110612ef757612ef761586f565b602002016020810190612f0a9190615500565b6040805195865260208601949094529284019190915260608301526001600160a01b0316608082015260a00160405180910390a16020890135881015612f625760405162461bcd60e51b81526004016109bb9061577b565b612f7086600301548461482e565b8660030181905550612f8685600301548961418f565b8560030181905550612fb886600301548760020154876003015488600201548d600360048110612cd757612cd761586f565b965083871015612fda5760405162461bcd60e51b81526004016109bb906158ed565b60408901358711156130205760405162461bcd60e51b815260206004820152600f60248201526e4552525f4c494d49545f505249434560881b60448201526064016109bb565b61302b893589614587565b84111561304a5760405162461bcd60e51b81526004016109bb906158ed565b61305a60408b0160208c01615500565b6001600160a01b031661307060208c018c615500565b60038089015490880154604080518e358152602081018e905242918101919091526060810192909252608082015260a081018a90526001600160a01b03919091169033907fbdafe88494b31fc7436fe7992b0f377e874287e841e62eed1ad77e84f3c5b1719060c00160405180910390a46130f96130f160208c018c615500565b338b35614930565b600061311e8a35611acc81610dc7670de0b6b3a76400008f60035b602002013561418f565b905060608a0135156131b9576131628b60025b6020020160208101906131449190615500565b8261315260208f018f615500565b6001600160a01b031691906147cb565b7f6d11837f46cc09b011cf4aae09fcade046c020aac088090ae4f77ff67b70797261319360608d0160408e01615500565b6131a060208e018e615500565b836040516131b09392919061584b565b60405180910390a15b6131d36131cc60408d0160208e01615500565b338b6141ff565b50505050505050600a805460ff1916905590939092509050565b60608060006131fa6127ff565b90506000815167ffffffffffffffff81111561321857613218615536565b604051908082528060200260200182016040528015613241578160200160208202803683370190505b5090506000825167ffffffffffffffff81111561326057613260615536565b604051908082528060200260200182016040528015613289578160200160208202803683370190505b50905060005b8351811015612a13578381815181106132aa576132aa61586f565b60200260200101518382815181106132c4576132c461586f565b60200260200101906001600160a01b031690816001600160a01b031681525050600660008583815181106132fa576132fa61586f565b60200260200101516001600160a01b03166001600160a01b03168152602001908152602001600020548282815181106133355761333561586f565b60209081029190910101528061334a8161589e565b91505061328f565b600a54600090819060ff161561337a5760405162461bcd60e51b81526004016109bb906156f6565b600a805460ff19166001179055600b54600160a01b900460ff166133b05760405162461bcd60e51b81526004016109bb90615750565b6133c06040850160208601615500565b6001600160a01b03166133d66020860186615500565b6001600160a01b031614156134265760405162461bcd60e51b815260206004820152601660248201527521b0b73737ba1039bbb0b81039b0b6b2903a37b5b2b760511b60448201526064016109bb565b6060830135158061344e5750613446612710670de0b6b3a76400006157b8565b606084013510155b6134935760405162461bcd60e51b8152602060048201526016602482015275436f6e73756d655377617046656520746f6f206c6f7760501b60448201526064016109bb565b6134a6600a670de0b6b3a76400006157b8565b606084013511156134f35760405162461bcd60e51b8152602060048201526017602482015276086dedce6eadacaa6eec2e08ccaca40e8dede40d0d2ced604b1b60448201526064016109bb565b6134fe846000612af9565b613509846001612af9565b6000600d8161351b6020880188615500565b6001600160a01b03168152602081019190915260400160009081209150600d818760016020020160208101906135519190615500565b6001600160a01b03166001600160a01b03168152602001908152602001600020905061359081600301546002670de0b6b3a7640000610dbc91906157b8565b602086013511156135d75760405162461bcd60e51b81526020600482015260116024820152704552525f4d41585f4f55545f524154494f60781b60448201526064016109bb565b600061360383600301548460020154846003015485600201548a600360048110612cd757612cd761586f565b9050604086013581111561364f5760405162461bcd60e51b81526020600482015260136024820152724552525f4241445f4c494d49545f505249434560681b60448201526064016109bb565b6000806040518060800160405280866003015481526020018660020154815260200185600301548152602001856002015481525090506136b06040518060800160405280600081526020016000815260200160008152602001600081525090565b6136c38260208b013560608c01356119bb565b919950935090506136d8600560008c81612daf565b600560006136e960208e018e615500565b6001600160a01b03166001600160a01b0316815260200190815260200160002081905550613727600660008c600060038110612e3c57612e3c61586f565b6006600061373860208e018e615500565b6001600160a01b03166001600160a01b03168152602001908152602001600020819055507f53a9dc73d01196a9c660d761bc5ec77b945340a34b5b52e510760af2dab1c0f181600001518260200151836040015184606001518e6000600381106137a4576137a461586f565b6020020160208101906137b79190615500565b6040805195865260208601949094529284019190915260608301526001600160a01b0316608082015260a00160405180910390a1883588111561382b5760405162461bcd60e51b815260206004820152600c60248201526b22a9292fa624a6a4aa2fa4a760a11b60448201526064016109bb565b61383986600301548461482e565b600380880191909155850154613851908a6001613114565b856003018190555061388386600301548760020154876003015488600201548d600360048110612cd757612cd761586f565b9650838710156138a55760405162461bcd60e51b81526004016109bb906158ed565b60408901358711156138eb5760405162461bcd60e51b815260206004820152600f60248201526e4552525f4c494d49545f505249434560881b60448201526064016109bb565b6138f98860208b0135614587565b8411156139185760405162461bcd60e51b81526004016109bb906158ed565b61392860408b0160208c01615500565b6001600160a01b031661393e60208c018c615500565b6001600160a01b0316337fbdafe88494b31fc7436fe7992b0f377e874287e841e62eed1ad77e84f3c5b1718b8d60016020020135428c600301548c600301548f6040516139b396959493929190958652602086019490945260408501929092526060840152608083015260a082015260c00190565b60405180910390a46139d26139cb60208c018c615500565b338a614930565b60006139f089611acc81610dc7670de0b6b3a76400008f6003613114565b905060608a013515613a5e57613a078b6002613131565b7f6d11837f46cc09b011cf4aae09fcade046c020aac088090ae4f77ff67b707972613a3860608d0160408e01615500565b613a4560208e018e615500565b83604051613a559392919061584b565b60405180910390a15b6131d3613a7160408d0160208e01615500565b3360208d01356141ff565b6000806000806000613a8d89613cd6565b613a9688613cd6565b604080516080810182526001600160a01b03808c166000908152600d6020818152858320600380820154875260029182015483880152948f16808552838352878520958601549787019790975295835252920154606082015290613b1b6040518060800160405280600081526020016000815260200160008152602001600081525090565b6117d1838b8b6119bb565b600a5460609060ff161561284e5760405162461bcd60e51b81526004016109bb906156f6565b3360009081526008602090815260408083206001600160a01b0386168452909152812054613b7a908361482e565b3360008181526008602090815260408083206001600160a01b038916808552908352928190208590555193845290926000805160206159678339815191529101610a6c565b610a916002670de0b6b3a76400006157b8565b600a5460009060ff1615613bf85760405162461bcd60e51b81526004016109bb906156f6565b613c0182613cd6565b6001600160a01b0382166000908152600d6020526040902060020154600e54610a1c908290614587565b600a5460009060ff1615613c515760405162461bcd60e51b81526004016109bb906156f6565b613c5a82613cd6565b506001600160a01b03166000908152600d602052604090206003015490565b6001600160a01b0382166000908152600d602090815260408083208151608081018352815460ff16151581526001820154938101939093526002810154918301919091526003015460608201819052600954611956919085614880565b6001600160a01b0381166000908152600d602052604090205460ff16613d2e5760405162461bcd60e51b815260206004820152600d60248201526c11549497d393d517d093d55391609a1b60448201526064016109bb565b50565b600080613d3e8787614587565b90506000613d4c8686614587565b90506000613d5a8383614587565b90506000613d99670de0b6b3a7640000611aa9670de0b6b3a764000089600054613d826116ad565b600154613d8f91906157cc565b61235a91906157cc565b9050613da582826140aa565b9a9950505050505050505050565b600a5461010090046001600160a01b03163314613e075760405162461bcd60e51b815260206004820152601260248201527122a9292fa727aa2fa1a7a72a2927a62622a960711b60448201526064016109bb565b6001600160a01b0383166000908152600d602052604090205460ff1615613e5f5760405162461bcd60e51b815260206004820152600c60248201526b11549497d254d7d093d5539160a21b60448201526064016109bb565b600b54600160a01b900460ff1615613eac5760405162461bcd60e51b815260206004820152601060248201526f11549497d254d7d1925390531256915160821b60448201526064016109bb565b600c54600211613eef5760405162461bcd60e51b815260206004820152600e60248201526d4552525f4d41585f544f4b454e5360901b60448201526064016109bb565b604080516080810182526001808252600c805460208085019182526000858701818152606087018281526001600160a01b038c16808452600d9094529782209651875460ff1916901515178755925186860155915160028601559451600390940193909355805491820181559091527fdf6966c971051c3d54ec59162606531493a51404a002842f56009d7e5cf4a8c70180546001600160a01b0319169091179055613f9c838383614b15565b505050565b600b805460ff60a01b1916600160a01b179055600a805460ff60a81b1916600160a81b179055613fe2613fdd670de0b6b3a76400006064615731565b61491d565b613ffe33613ff9670de0b6b3a76400006064615731565b614926565b565b600060018210156140535760405162461bcd60e51b815260206004820152601a60248201527f4552525f504f4f4c5f414d4f554e545f494e5f544f4f5f4c4f5700000000000060448201526064016109bb565b61405e826002615731565b9150600061406c848461418f565b9050600061407a8286614587565b90506000614090670de0b6b3a76400008361418f565b9050600061409e82896140aa565b98975050505050505050565b6000806140b78385615731565b90508315806140ce5750826140cc85836157b8565b145b61410d5760405162461bcd60e51b815260206004820152601060248201526f4552525f4d554c5f4f564552464c4f5760801b60448201526064016109bb565b60006141226002670de0b6b3a76400006157b8565b61412c90836157cc565b9050818110156141715760405162461bcd60e51b815260206004820152601060248201526f4552525f4d554c5f4f564552464c4f5760801b60448201526064016109bb565b6000614185670de0b6b3a7640000836157b8565b9695505050505050565b600080600061419e8585614d34565b9150915080156141e45760405162461bcd60e51b81526020600482015260116024820152704552525f5355425f554e444552464c4f5760781b60448201526064016109bb565b509392505050565b611de18282614d6b565b613d2e81614d76565b613f9c6001600160a01b03841683836147cb565b6001600160a01b0383166000908152600760205260409020548111156142725760405162461bcd60e51b815260206004820152601460248201527311549497d25394d551919250d251539517d0905360621b60448201526064016109bb565b6001600160a01b038316600090815260076020526040902054614295908261418f565b6001600160a01b0380851660009081526007602052604080822093909355908416815220546142c4908261482e565b6001600160a01b0380841660008181526007602052604090819020939093559151908516907fddf252ad1be2c89b69c2b068fc378daa952ba7f163c4a11628f55a4df523b3ef906143189085815260200190565b60405180910390a3505050565b600a8054610100600160a81b0319166101006001600160a01b038a81169190910291909117909155600280546001600160a01b0319169188169190911790558451600090869082906143795761437961586f565b602090810291909101810151600181905560408051338152928301919091527fbca0d601c32979eebac4e8cd06375b6e45d39af80fc06a33f366425b450dfb69910160405180910390a1856001815181106143d6576143d661586f565b6020908102919091018101516000819055600a8054881515600160a81b0260ff60a81b19909116179055600b80548651600380546001600160a01b039283166001600160a01b0319918216179091559488015160048054918316918716919091179055865116881515600160a01b02949094166001600160a81b031990911617831790556040517f5e3e722dbd3b6b8071b78568ac80cd0e8ff92e4fb3024e755d504d8f7c2f6f099261448a92339261584b565b60405180910390a15050600f8054600a54600160a01b6101009091046001600160a01b03166001600160a81b03199092169190911781179182905560ff9104169695505050505050565b6000806144e983670de0b6b3a76400006140aa565b905060006144f7868361482e565b905060006145058288614587565b9050600061451b82670de0b6b3a764000061418f565b9050600061452982896140aa565b9050600281101561457c5760405162461bcd60e51b815260206004820152601b60248201527f4552525f544f4b454e5f414d4f554e545f494e5f544f4f5f4c4f57000000000060448201526064016109bb565b6116a06002826157b8565b6000816145c55760405162461bcd60e51b815260206004820152600c60248201526b4552525f4449565f5a45524f60a01b60448201526064016109bb565b60006145d9670de0b6b3a764000085615731565b90508315806145f85750670de0b6b3a76400006145f685836157b8565b145b6146375760405162461bcd60e51b815260206004820152601060248201526f11549497d1125597d25395115493905360821b60448201526064016109bb565b60006146446002856157b8565b61464e90836157cc565b9050818110156146935760405162461bcd60e51b815260206004820152601060248201526f11549497d1125597d25395115493905360821b60448201526064016109bb565b600061418585836157b8565b600060018310156146ea5760405162461bcd60e51b81526020600482015260156024820152744552525f42504f575f424153455f544f4f5f4c4f5760581b60448201526064016109bb565b60016146ff670de0b6b3a76400006002615731565b61470991906158d6565b8311156147515760405162461bcd60e51b815260206004820152601660248201527508aa4a4be84a09eaebe8482a68abea89e9ebe90928e960531b60448201526064016109bb565b600061475c83614e42565b9050600061476a848361418f565b905060006147808661477b85614e60565b614e74565b905081614791579250610a78915050565b60006147b487846147af6402540be400670de0b6b3a76400006157b8565b614ee8565b90506147c082826140aa565b979650505050505050565b6040516001600160a01b038316602482015260448101829052613f9c90849063a9059cbb60e01b906064015b60408051601f198184030181529190526020810180516001600160e01b03166001600160e01b031990931692909217909152614fd8565b60008061483b83856157cc565b905083811015610a1c5760405162461bcd60e51b815260206004820152601060248201526f4552525f4144445f4f564552464c4f5760801b60448201526064016109bb565b60008061488d848461482e565b9050600061489b8286614587565b905060006148b182670de0b6b3a764000061418f565b905060006148bf82896140aa565b905060018110156149125760405162461bcd60e51b815260206004820152601b60248201527f4552525f504f4f4c5f414d4f554e545f4f55545f544f4f5f4c4f57000000000060448201526064016109bb565b61409e816002615731565b613d2e816150aa565b611de18282615119565b6040516370a0823160e01b81523060048201526000906001600160a01b038516906370a0823190602401602060405180830381865afa158015614977573d6000803e3d6000fd5b505050506040513d601f19601f8201168201806040525081019061499b9190615885565b90506149b26001600160a01b038516843085615124565b6149bc82826157cc565b6040516370a0823160e01b81523060048201526001600160a01b038616906370a0823190602401602060405180830381865afa158015614a00573d6000803e3d6000fd5b505050506040513d601f19601f82011682018060405250810190614a249190615885565b1015614a725760405162461bcd60e51b815260206004820152601a60248201527f5472616e7366657220616d6f756e7420697320746f6f206c6f7700000000000060448201526064016109bb565b50505050565b600080614a85858461418f565b90506000614a938287614587565b90506000614aa9670de0b6b3a76400008361418f565b90506000614ab782886140aa565b90506002811015614b0a5760405162461bcd60e51b815260206004820152601c60248201527f4552525f544f4b454e5f414d4f554e545f4f55545f544f4f5f4c4f570000000060448201526064016109bb565b61409e6002826157b8565b670de0b6b3a7640000811015614b5e5760405162461bcd60e51b815260206004820152600e60248201526d11549497d3525397d5d15251d21560921b60448201526064016109bb565b614b71670de0b6b3a76400006032615731565b811115614bb15760405162461bcd60e51b815260206004820152600e60248201526d11549497d3505617d5d15251d21560921b60448201526064016109bb565b614bc864e8d4a51000670de0b6b3a76400006157b8565b821015614c095760405162461bcd60e51b815260206004820152600f60248201526e4552525f4d494e5f42414c414e434560881b60448201526064016109bb565b6001600160a01b0383166000908152600d602052604090206002015480821115614ca557614c42600e54614c3d848461418f565b61482e565b600e55614c58670de0b6b3a76400006032615731565b600e541115614ca05760405162461bcd60e51b815260206004820152601460248201527311549497d3505617d513d5105317d5d15251d21560621b60448201526064016109bb565b614cc1565b80821015614cc157614cbd600e54611acc838561418f565b600e555b6001600160a01b0384166000908152600d602052604090206002810183905560030180549084905580841115614d0a57614d058533614d00878561418f565b614930565b614d2d565b80841015614d2d576000614d1e828661418f565b9050614d2b8633836141ff565b505b5050505050565b600080828410614d5357614d4883856158d6565b600091509150614d64565b614d5d84846158d6565b6001915091505b9250929050565b611de1823083614213565b30600090815260076020526040902054811115614dcc5760405162461bcd60e51b815260206004820152601460248201527311549497d25394d551919250d251539517d0905360621b60448201526064016109bb565b30600090815260076020526040902054614de6908261418f565b30600090815260076020526040902055600954614e03908261418f565b60095560405181815260009030907fddf252ad1be2c89b69c2b068fc378daa952ba7f163c4a11628f55a4df523b3ef906020015b60405180910390a350565b6000670de0b6b3a7640000614e5683614e60565b610a789190615731565b6000610a78670de0b6b3a7640000836157b8565b60008281614e83600285615916565b614e9557670de0b6b3a7640000614e97565b815b9050614ea46002856157b8565b93505b831561195657614eb782836140aa565b9150614ec4600285615916565b15614ed657614ed381836140aa565b90505b614ee16002856157b8565b9350614ea7565b6000828180614eff87670de0b6b3a7640000614d34565b9092509050670de0b6b3a764000080600060015b888410614fc9576000614f2e670de0b6b3a764000083615731565b9050600080614f4e8a614f4985670de0b6b3a764000061418f565b614d34565b91509150614f6087610dc7848c6140aa565b9650614f6c8784614587565b965086614f7b57505050614fc9565b8715614f85579315935b8015614f8f579315935b8415614fa657614f9f868861418f565b9550614fb3565b614fb0868861482e565b95505b5050508080614fc19061589e565b915050614f13565b50909998505050505050505050565b600061502d826040518060400160405280602081526020017f5361666545524332303a206c6f772d6c6576656c2063616c6c206661696c6564815250856001600160a01b03166151459092919063ffffffff16565b805190915015613f9c578080602001905181019061504b91906157e4565b613f9c5760405162461bcd60e51b815260206004820152602a60248201527f5361666545524332303a204552433230206f7065726174696f6e20646964206e6044820152691bdd081cdd58d8d9595960b21b60648201526084016109bb565b306000908152600760205260409020546150c4908261482e565b306000908152600760205260409020556009546150e1908261482e565b60095560405181815230906000907fddf252ad1be2c89b69c2b068fc378daa952ba7f163c4a11628f55a4df523b3ef90602001614e37565b611de1308383614213565b614a72846323b872dd60e01b8585856040516024016147f79392919061584b565b6060611956848460008585843b61519e5760405162461bcd60e51b815260206004820152601d60248201527f416464726573733a2063616c6c20746f206e6f6e2d636f6e747261637400000060448201526064016109bb565b600080866001600160a01b031685876040516151ba919061592a565b60006040518083038185875af1925050503d80600081146151f7576040519150601f19603f3d011682016040523d82523d6000602084013e6151fc565b606091505b50915091506147c082828660608315615216575081610a1c565b8251156152265782518084602001fd5b8160405162461bcd60e51b81526004016109bb919061526c565b60005b8381101561525b578181015183820152602001615243565b83811115614a725750506000910152565b602081526000825180602084015261528b816040850160208701615240565b601f01601f19169190910160400192915050565b6001600160a01b0381168114613d2e57600080fd5b6000806000606084860312156152c957600080fd5b83356152d48161529f565b925060208401356152e48161529f565b929592945050506040919091013590565b6000806040838503121561530857600080fd5b82356153138161529f565b946020939093013593505050565b60008060008060008060c0878903121561533a57600080fd5b86356153458161529f565b9550602087013594506040870135935060608701356153638161529f565b9598949750929560808101359460a0909101359350915050565b6000806040838503121561539057600080fd5b50508035926020909101359150565b8015158114613d2e57600080fd5b80356125768161539f565b8060408101831015610a7857600080fd5b8060208101831015610a7857600080fd5b600080600080600080600080610100898b0312156153f757600080fd5b88356154028161529f565b975060208901356154128161529f565b9650604089013567ffffffffffffffff8082111561542f57600080fd5b818b0191508b601f83011261544357600080fd5b81358181111561545257600080fd5b8c60208260051b850101111561546757600080fd5b60208301985080975050505061547f60608a016153ad565b935061548d60808a016153ad565b925061549c8a60a08b016153b8565b91506154ab8a60e08b016153c9565b90509295985092959890939650565b600080600080608085870312156154d057600080fd5b84356154db8161529f565b935060208501356154eb8161529f565b93969395505050506040820135916060013590565b60006020828403121561551257600080fd5b8135610a1c8161529f565b60006020828403121561552f57600080fd5b5035919050565b634e487b7160e01b600052604160045260246000fd5b600080600060c0848603121561556157600080fd5b84601f85011261557057600080fd5b6040516080810181811067ffffffffffffffff8211171561559357615593615536565b6040528060808601878111156155a857600080fd5b865b818110156155c25780358352602092830192016155aa565b509197913596505060a094909401359392505050565b600081518084526020808501945080840160005b838110156156115781516001600160a01b0316875295820195908201906001016155ec565b509495945050505050565b602081526000610a1c60208301846155d8565b60408152600061564260408301856155d8565b82810360208481019190915284518083528582019282019060005b818110156156795784518352938301939183019160010161565d565b5090979650505050505050565b60008060e0838503121561569957600080fd5b60608301848111156156aa57600080fd5b8392508460e0850111156156bd57600080fd5b809150509250929050565b600080604083850312156156db57600080fd5b82356156e68161529f565b915060208301356156bd8161529f565b6020808252600b908201526a4552525f5245454e54525960a81b604082015260600190565b634e487b7160e01b600052601160045260246000fd5b600081600019048311821515161561574b5761574b61571b565b500290565b60208082526011908201527011549497d393d517d19253905312569151607a1b604082015260600190565b6020808252600d908201526c11549497d31253525517d3d555609a1b604082015260600190565b634e487b7160e01b600052601260045260246000fd5b6000826157c7576157c76157a2565b500490565b600082198211156157df576157df61571b565b500190565b6000602082840312156157f657600080fd5b8151610a1c8161539f565b6020808252600b908201526a4552525f4d494e5f46454560a81b604082015260600190565b6020808252600b908201526a4552525f4d41585f46454560a81b604082015260600190565b6001600160a01b039384168152919092166020820152604081019190915260600190565b634e487b7160e01b600052603260045260246000fd5b60006020828403121561589757600080fd5b5051919050565b60006000198214156158b2576158b261571b565b5060010190565b6000602082840312156158cb57600080fd5b8151610a1c8161529f565b6000828210156158e8576158e861571b565b500390565b6020808252600f908201526e08aa4a4be9a82a890be82a0a0a49eb608b1b604082015260600190565b600082615925576159256157a2565b500690565b6000825161593c818460208701615240565b919091019291505056fe15a8ca63e37b2cff1677df2b6b82d36fcf8a524228bd7a4b4d02d107c28c1e8a8c5be1e5ebec7d5bd14f71427d1e84f3dd0314c0f7b2291e5b200ac8c7c3b925a264697066735822122091cc25901496ebfe7a38090e62f10a1797da279d45d243b856e19ed3c984a9c164736f6c634300080c0033",
  "linkReferences": {},
  "deployedLinkReferences": {}
}