{
  "_format": "hh-sol-artifact-1",
  "contractName": "BPool",
  "sourceName": "contracts/pools/balancer/BPool.sol",
  "abi": [
    {
      "anonymous": false,
      "inputs": [
        {
          "indexed": true,
          "internalType": "address",
          "name": "src",
          "type": "address"
        },
        {
          "indexed": true,
          "internalType": "address",
          "name": "dst",
          "type": "address"
        },
        {
          "indexed": false,
          "internalType": "uint256",
          "name": "amt",
          "type": "uint256"
        }
      ],
      "name": "Approval",
      "type": "event"
    },
    {
      "anonymous": false,
      "inputs": [
        {
          "indexed": false,
          "internalType": "uint256",
          "name": "bptAmount",
          "type": "uint256"
        }
      ],
      "name": "LOG_BPT",
      "type": "event"
    },
    {
      "anonymous": false,
      "inputs": [
        {
          "indexed": true,
          "internalType": "bytes4",
          "name": "sig",
          "type": "bytes4"
        },
        {
          "indexed": true,
          "internalType": "address",
          "name": "caller",
          "type": "address"
        },
        {
          "indexed": false,
          "internalType": "uint256",
          "name": "timestamp",
          "type": "uint256"
        },
        {
          "indexed": false,
          "internalType": "bytes",
          "name": "data",
          "type": "bytes"
        }
      ],
      "name": "LOG_CALL",
      "type": "event"
    },
    {
      "anonymous": false,
      "inputs": [
        {
          "indexed": true,
          "internalType": "address",
          "name": "caller",
          "type": "address"
        },
        {
          "indexed": true,
          "internalType": "address",
          "name": "tokenOut",
          "type": "address"
        },
        {
          "indexed": false,
          "internalType": "uint256",
          "name": "tokenAmountOut",
          "type": "uint256"
        },
        {
          "indexed": false,
          "internalType": "uint256",
          "name": "timestamp",
          "type": "uint256"
        }
      ],
      "name": "LOG_EXIT",
      "type": "event"
    },
    {
      "anonymous": false,
      "inputs": [
        {
          "indexed": true,
          "internalType": "address",
          "name": "caller",
          "type": "address"
        },
        {
          "indexed": true,
          "internalType": "address",
          "name": "tokenIn",
          "type": "address"
        },
        {
          "indexed": false,
          "internalType": "uint256",
          "name": "tokenAmountIn",
          "type": "uint256"
        },
        {
          "indexed": false,
          "internalType": "uint256",
          "name": "timestamp",
          "type": "uint256"
        }
      ],
      "name": "LOG_JOIN",
      "type": "event"
    },
    {
      "anonymous": false,
      "inputs": [
        {
          "indexed": true,
          "internalType": "address",
          "name": "caller",
          "type": "address"
        },
        {
          "indexed": true,
          "internalType": "address",
          "name": "tokenIn",
          "type": "address"
        },
        {
          "indexed": true,
          "internalType": "address",
          "name": "tokenOut",
          "type": "address"
        },
        {
          "indexed": false,
          "internalType": "uint256",
          "name": "tokenAmountIn",
          "type": "uint256"
        },
        {
          "indexed": false,
          "internalType": "uint256",
          "name": "tokenAmountOut",
          "type": "uint256"
        },
        {
          "indexed": false,
          "internalType": "uint256",
          "name": "timestamp",
          "type": "uint256"
        }
      ],
      "name": "LOG_SWAP",
      "type": "event"
    },
    {
      "anonymous": false,
      "inputs": [
        {
          "indexed": false,
          "internalType": "uint256",
          "name": "swapFeeAmount",
          "type": "uint256"
        },
        {
          "indexed": false,
          "internalType": "uint256",
          "name": "oceanFeeAmount",
          "type": "uint256"
        },
        {
          "indexed": false,
          "internalType": "uint256",
          "name": "marketFeeAmount",
          "type": "uint256"
        },
        {
          "indexed": false,
          "internalType": "address",
          "name": "tokenFees",
          "type": "address"
        }
      ],
      "name": "SWAP_FEES",
      "type": "event"
    },
    {
      "anonymous": false,
      "inputs": [
        {
          "indexed": true,
          "internalType": "address",
          "name": "src",
          "type": "address"
        },
        {
          "indexed": true,
          "internalType": "address",
          "name": "dst",
          "type": "address"
        },
        {
          "indexed": false,
          "internalType": "uint256",
          "name": "amt",
          "type": "uint256"
        }
      ],
      "name": "Transfer",
      "type": "event"
    },
    {
      "inputs": [],
      "name": "BONE",
      "outputs": [
        {
          "internalType": "uint256",
          "name": "",
          "type": "uint256"
        }
      ],
      "stateMutability": "view",
      "type": "function"
    },
    {
      "inputs": [],
      "name": "BPOW_PRECISION",
      "outputs": [
        {
          "internalType": "uint256",
          "name": "",
          "type": "uint256"
        }
      ],
      "stateMutability": "view",
      "type": "function"
    },
    {
      "inputs": [],
      "name": "EXIT_FEE",
      "outputs": [
        {
          "internalType": "uint256",
          "name": "",
          "type": "uint256"
        }
      ],
      "stateMutability": "view",
      "type": "function"
    },
    {
      "inputs": [],
      "name": "INIT_POOL_SUPPLY",
      "outputs": [
        {
          "internalType": "uint256",
          "name": "",
          "type": "uint256"
        }
      ],
      "stateMutability": "view",
      "type": "function"
    },
    {
      "inputs": [],
      "name": "MAX_BOUND_TOKENS",
      "outputs": [
        {
          "internalType": "uint256",
          "name": "",
          "type": "uint256"
        }
      ],
      "stateMutability": "view",
      "type": "function"
    },
    {
      "inputs": [],
      "name": "MAX_BPOW_BASE",
      "outputs": [
        {
          "internalType": "uint256",
          "name": "",
          "type": "uint256"
        }
      ],
      "stateMutability": "view",
      "type": "function"
    },
    {
      "inputs": [],
      "name": "MAX_FEE",
      "outputs": [
        {
          "internalType": "uint256",
          "name": "",
          "type": "uint256"
        }
      ],
      "stateMutability": "view",
      "type": "function"
    },
    {
      "inputs": [],
      "name": "MAX_IN_RATIO",
      "outputs": [
        {
          "internalType": "uint256",
          "name": "",
          "type": "uint256"
        }
      ],
      "stateMutability": "view",
      "type": "function"
    },
    {
      "inputs": [],
      "name": "MAX_OUT_RATIO",
      "outputs": [
        {
          "internalType": "uint256",
          "name": "",
          "type": "uint256"
        }
      ],
      "stateMutability": "view",
      "type": "function"
    },
    {
      "inputs": [],
      "name": "MAX_TOTAL_WEIGHT",
      "outputs": [
        {
          "internalType": "uint256",
          "name": "",
          "type": "uint256"
        }
      ],
      "stateMutability": "view",
      "type": "function"
    },
    {
      "inputs": [],
      "name": "MAX_WEIGHT",
      "outputs": [
        {
          "internalType": "uint256",
          "name": "",
          "type": "uint256"
        }
      ],
      "stateMutability": "view",
      "type": "function"
    },
    {
      "inputs": [],
      "name": "MIN_BALANCE",
      "outputs": [
        {
          "internalType": "uint256",
          "name": "",
          "type": "uint256"
        }
      ],
      "stateMutability": "view",
      "type": "function"
    },
    {
      "inputs": [],
      "name": "MIN_BOUND_TOKENS",
      "outputs": [
        {
          "internalType": "uint256",
          "name": "",
          "type": "uint256"
        }
      ],
      "stateMutability": "view",
      "type": "function"
    },
    {
      "inputs": [],
      "name": "MIN_BPOW_BASE",
      "outputs": [
        {
          "internalType": "uint256",
          "name": "",
          "type": "uint256"
        }
      ],
      "stateMutability": "view",
      "type": "function"
    },
    {
      "inputs": [],
      "name": "MIN_FEE",
      "outputs": [
        {
          "internalType": "uint256",
          "name": "",
          "type": "uint256"
        }
      ],
      "stateMutability": "view",
      "type": "function"
    },
    {
      "inputs": [],
      "name": "MIN_WEIGHT",
      "outputs": [
        {
          "internalType": "uint256",
          "name": "",
          "type": "uint256"
        }
      ],
      "stateMutability": "view",
      "type": "function"
    },
    {
      "inputs": [],
      "name": "_marketCollector",
      "outputs": [
        {
          "internalType": "address",
          "name": "",
          "type": "address"
        }
      ],
      "stateMutability": "view",
      "type": "function"
    },
    {
      "inputs": [],
      "name": "_opfCollector",
      "outputs": [
        {
          "internalType": "address",
          "name": "",
          "type": "address"
        }
      ],
      "stateMutability": "view",
      "type": "function"
    },
    {
      "inputs": [],
      "name": "_swapMarketFee",
      "outputs": [
        {
          "internalType": "uint256",
          "name": "",
          "type": "uint256"
        }
      ],
      "stateMutability": "view",
      "type": "function"
    },
    {
      "inputs": [
        {
          "internalType": "address",
          "name": "src",
          "type": "address"
        },
        {
          "internalType": "address",
          "name": "dst",
          "type": "address"
        }
      ],
      "name": "allowance",
      "outputs": [
        {
          "internalType": "uint256",
          "name": "",
          "type": "uint256"
        }
      ],
      "stateMutability": "view",
      "type": "function"
    },
    {
      "inputs": [
        {
          "internalType": "address",
          "name": "dst",
          "type": "address"
        },
        {
          "internalType": "uint256",
          "name": "amt",
          "type": "uint256"
        }
      ],
      "name": "approve",
      "outputs": [
        {
          "internalType": "bool",
          "name": "",
          "type": "bool"
        }
      ],
      "stateMutability": "nonpayable",
      "type": "function"
    },
    {
      "inputs": [
        {
          "internalType": "address",
          "name": "whom",
          "type": "address"
        }
      ],
      "name": "balanceOf",
      "outputs": [
        {
          "internalType": "uint256",
          "name": "",
          "type": "uint256"
        }
      ],
      "stateMutability": "view",
      "type": "function"
    },
    {
      "inputs": [
        {
          "internalType": "address",
          "name": "tokenOut",
          "type": "address"
        },
        {
          "internalType": "uint256",
          "name": "tokenAmountOut",
          "type": "uint256"
        }
      ],
      "name": "calcPoolInSingleOut",
      "outputs": [
        {
          "internalType": "uint256",
          "name": "poolAmountIn",
          "type": "uint256"
        }
      ],
      "stateMutability": "view",
      "type": "function"
    },
    {
      "inputs": [
        {
          "internalType": "address",
          "name": "tokenIn",
          "type": "address"
        },
        {
          "internalType": "uint256",
          "name": "tokenAmountIn",
          "type": "uint256"
        }
      ],
      "name": "calcPoolOutSingleIn",
      "outputs": [
        {
          "internalType": "uint256",
          "name": "poolAmountOut",
          "type": "uint256"
        }
      ],
      "stateMutability": "view",
      "type": "function"
    },
    {
      "inputs": [
        {
          "internalType": "address",
          "name": "tokenIn",
          "type": "address"
        },
        {
          "internalType": "uint256",
          "name": "poolAmountOut",
          "type": "uint256"
        }
      ],
      "name": "calcSingleInPoolOut",
      "outputs": [
        {
          "internalType": "uint256",
          "name": "tokenAmountIn",
          "type": "uint256"
        }
      ],
      "stateMutability": "view",
      "type": "function"
    },
    {
      "inputs": [
        {
          "internalType": "address",
          "name": "tokenOut",
          "type": "address"
        },
        {
          "internalType": "uint256",
          "name": "poolAmountIn",
          "type": "uint256"
        }
      ],
      "name": "calcSingleOutPoolIn",
      "outputs": [
        {
          "internalType": "uint256",
          "name": "tokenAmountOut",
          "type": "uint256"
        }
      ],
      "stateMutability": "view",
      "type": "function"
    },
    {
      "inputs": [
        {
          "internalType": "address",
          "name": "to",
          "type": "address"
        }
      ],
      "name": "collectMarketFee",
      "outputs": [],
      "stateMutability": "nonpayable",
      "type": "function"
    },
    {
      "inputs": [],
      "name": "collectOPF",
      "outputs": [],
      "stateMutability": "nonpayable",
      "type": "function"
    },
    {
      "inputs": [
        {
          "internalType": "address",
          "name": "",
          "type": "address"
        }
      ],
      "name": "communityFees",
      "outputs": [
        {
          "internalType": "uint256",
          "name": "",
          "type": "uint256"
        }
      ],
      "stateMutability": "view",
      "type": "function"
    },
    {
      "inputs": [],
      "name": "decimals",
      "outputs": [
        {
          "internalType": "uint8",
          "name": "",
          "type": "uint8"
        }
      ],
      "stateMutability": "view",
      "type": "function"
    },
    {
      "inputs": [
        {
          "internalType": "address",
          "name": "dst",
          "type": "address"
        },
        {
          "internalType": "uint256",
          "name": "amt",
          "type": "uint256"
        }
      ],
      "name": "decreaseApproval",
      "outputs": [
        {
          "internalType": "bool",
          "name": "",
          "type": "bool"
        }
      ],
      "stateMutability": "nonpayable",
      "type": "function"
    },
    {
      "inputs": [
        {
          "internalType": "uint256",
          "name": "poolAmountIn",
          "type": "uint256"
        },
        {
          "internalType": "uint256[]",
          "name": "minAmountsOut",
          "type": "uint256[]"
        }
      ],
      "name": "exitPool",
      "outputs": [],
      "stateMutability": "nonpayable",
      "type": "function"
    },
    {
      "inputs": [
        {
          "internalType": "address",
          "name": "tokenOut",
          "type": "address"
        },
        {
          "internalType": "uint256",
          "name": "tokenAmountOut",
          "type": "uint256"
        },
        {
          "internalType": "uint256",
          "name": "maxPoolAmountIn",
          "type": "uint256"
        }
      ],
      "name": "exitswapExternAmountOut",
      "outputs": [
        {
          "internalType": "uint256",
          "name": "poolAmountIn",
          "type": "uint256"
        }
      ],
      "stateMutability": "nonpayable",
      "type": "function"
    },
    {
      "inputs": [
        {
          "internalType": "address",
          "name": "tokenOut",
          "type": "address"
        },
        {
          "internalType": "uint256",
          "name": "poolAmountIn",
          "type": "uint256"
        },
        {
          "internalType": "uint256",
          "name": "minAmountOut",
          "type": "uint256"
        }
      ],
      "name": "exitswapPoolAmountIn",
      "outputs": [
        {
          "internalType": "uint256",
          "name": "tokenAmountOut",
          "type": "uint256"
        }
      ],
      "stateMutability": "nonpayable",
      "type": "function"
    },
    {
      "inputs": [
        {
          "internalType": "address",
          "name": "tokenIn",
          "type": "address"
        },
        {
          "internalType": "address",
          "name": "tokenOut",
          "type": "address"
        },
        {
          "internalType": "uint256",
          "name": "tokenAmountOut",
          "type": "uint256"
        }
      ],
      "name": "getAmountInExactOut",
      "outputs": [
        {
          "internalType": "uint256",
          "name": "tokenAmountIn",
          "type": "uint256"
        }
      ],
      "stateMutability": "view",
      "type": "function"
    },
    {
      "inputs": [
        {
          "internalType": "address",
          "name": "tokenIn",
          "type": "address"
        },
        {
          "internalType": "address",
          "name": "tokenOut",
          "type": "address"
        },
        {
          "internalType": "uint256",
          "name": "tokenAmountIn",
          "type": "uint256"
        }
      ],
      "name": "getAmountOutExactIn",
      "outputs": [
        {
          "internalType": "uint256",
          "name": "tokenAmountOut",
          "type": "uint256"
        }
      ],
      "stateMutability": "view",
      "type": "function"
    },
    {
      "inputs": [
        {
          "internalType": "address",
          "name": "token",
          "type": "address"
        }
      ],
      "name": "getBalance",
      "outputs": [
        {
          "internalType": "uint256",
          "name": "",
          "type": "uint256"
        }
      ],
      "stateMutability": "view",
      "type": "function"
    },
    {
      "inputs": [],
      "name": "getBaseTokenAddress",
      "outputs": [
        {
          "internalType": "address",
          "name": "",
          "type": "address"
        }
      ],
      "stateMutability": "view",
      "type": "function"
    },
    {
      "inputs": [],
      "name": "getController",
      "outputs": [
        {
          "internalType": "address",
          "name": "",
          "type": "address"
        }
      ],
      "stateMutability": "view",
      "type": "function"
    },
    {
      "inputs": [],
      "name": "getCurrentTokens",
      "outputs": [
        {
          "internalType": "address[]",
          "name": "tokens",
          "type": "address[]"
        }
      ],
      "stateMutability": "view",
      "type": "function"
    },
    {
      "inputs": [],
      "name": "getDataTokenAddress",
      "outputs": [
        {
          "internalType": "address",
          "name": "",
          "type": "address"
        }
      ],
      "stateMutability": "view",
      "type": "function"
    },
    {
      "inputs": [
        {
          "internalType": "address",
          "name": "token",
          "type": "address"
        }
      ],
      "name": "getDenormalizedWeight",
      "outputs": [
        {
          "internalType": "uint256",
          "name": "",
          "type": "uint256"
        }
      ],
      "stateMutability": "view",
      "type": "function"
    },
    {
      "inputs": [],
      "name": "getFinalTokens",
      "outputs": [
        {
          "internalType": "address[]",
          "name": "tokens",
          "type": "address[]"
        }
      ],
      "stateMutability": "view",
      "type": "function"
    },
    {
      "inputs": [
        {
          "internalType": "address",
          "name": "token",
          "type": "address"
        }
      ],
      "name": "getNormalizedWeight",
      "outputs": [
        {
          "internalType": "uint256",
          "name": "",
          "type": "uint256"
        }
      ],
      "stateMutability": "view",
      "type": "function"
    },
    {
      "inputs": [],
      "name": "getNumTokens",
      "outputs": [
        {
          "internalType": "uint256",
          "name": "",
          "type": "uint256"
        }
      ],
      "stateMutability": "view",
      "type": "function"
    },
    {
      "inputs": [],
      "name": "getOPFFee",
      "outputs": [
        {
          "internalType": "uint256",
          "name": "",
          "type": "uint256"
        }
      ],
      "stateMutability": "view",
      "type": "function"
    },
    {
      "inputs": [
        {
          "internalType": "address",
          "name": "tokenIn",
          "type": "address"
        },
        {
          "internalType": "address",
          "name": "tokenOut",
          "type": "address"
        }
      ],
      "name": "getSpotPrice",
      "outputs": [
        {
          "internalType": "uint256",
          "name": "spotPrice",
          "type": "uint256"
        }
      ],
      "stateMutability": "view",
      "type": "function"
    },
    {
      "inputs": [],
      "name": "getSwapFee",
      "outputs": [
        {
          "internalType": "uint256",
          "name": "",
          "type": "uint256"
        }
      ],
      "stateMutability": "view",
      "type": "function"
    },
    {
      "inputs": [],
      "name": "getTotalDenormalizedWeight",
      "outputs": [
        {
          "internalType": "uint256",
          "name": "",
          "type": "uint256"
        }
      ],
      "stateMutability": "view",
      "type": "function"
    },
    {
      "inputs": [
        {
          "internalType": "address",
          "name": "dst",
          "type": "address"
        },
        {
          "internalType": "uint256",
          "name": "amt",
          "type": "uint256"
        }
      ],
      "name": "increaseApproval",
      "outputs": [
        {
          "internalType": "bool",
          "name": "",
          "type": "bool"
        }
      ],
      "stateMutability": "nonpayable",
      "type": "function"
    },
    {
      "inputs": [
        {
          "internalType": "address",
          "name": "controller",
          "type": "address"
        },
        {
          "internalType": "address",
          "name": "factory",
          "type": "address"
        },
        {
          "internalType": "uint256[]",
          "name": "swapFees",
          "type": "uint256[]"
        },
        {
          "internalType": "bool",
          "name": "publicSwap",
          "type": "bool"
        },
        {
          "internalType": "bool",
          "name": "finalized",
          "type": "bool"
        },
        {
          "internalType": "address[2]",
          "name": "tokens",
          "type": "address[2]"
        },
        {
          "internalType": "address[2]",
          "name": "feeCollectors",
          "type": "address[2]"
        }
      ],
      "name": "initialize",
      "outputs": [
        {
          "internalType": "bool",
          "name": "",
          "type": "bool"
        }
      ],
      "stateMutability": "nonpayable",
      "type": "function"
    },
    {
      "inputs": [
        {
          "internalType": "address",
          "name": "t",
          "type": "address"
        }
      ],
      "name": "isBound",
      "outputs": [
        {
          "internalType": "bool",
          "name": "",
          "type": "bool"
        }
      ],
      "stateMutability": "view",
      "type": "function"
    },
    {
      "inputs": [],
      "name": "isFinalized",
      "outputs": [
        {
          "internalType": "bool",
          "name": "",
          "type": "bool"
        }
      ],
      "stateMutability": "view",
      "type": "function"
    },
    {
      "inputs": [],
      "name": "isInitialized",
      "outputs": [
        {
          "internalType": "bool",
          "name": "",
          "type": "bool"
        }
      ],
      "stateMutability": "view",
      "type": "function"
    },
    {
      "inputs": [],
      "name": "isPublicSwap",
      "outputs": [
        {
          "internalType": "bool",
          "name": "",
          "type": "bool"
        }
      ],
      "stateMutability": "view",
      "type": "function"
    },
    {
      "inputs": [
        {
          "internalType": "uint256",
          "name": "poolAmountOut",
          "type": "uint256"
        },
        {
          "internalType": "uint256[]",
          "name": "maxAmountsIn",
          "type": "uint256[]"
        }
      ],
      "name": "joinPool",
      "outputs": [],
      "stateMutability": "nonpayable",
      "type": "function"
    },
    {
      "inputs": [
        {
          "internalType": "address",
          "name": "tokenIn",
          "type": "address"
        },
        {
          "internalType": "uint256",
          "name": "tokenAmountIn",
          "type": "uint256"
        },
        {
          "internalType": "uint256",
          "name": "minPoolAmountOut",
          "type": "uint256"
        }
      ],
      "name": "joinswapExternAmountIn",
      "outputs": [
        {
          "internalType": "uint256",
          "name": "poolAmountOut",
          "type": "uint256"
        }
      ],
      "stateMutability": "nonpayable",
      "type": "function"
    },
    {
      "inputs": [
        {
          "internalType": "address",
          "name": "tokenIn",
          "type": "address"
        },
        {
          "internalType": "uint256",
          "name": "poolAmountOut",
          "type": "uint256"
        },
        {
          "internalType": "uint256",
          "name": "maxAmountIn",
          "type": "uint256"
        }
      ],
      "name": "joinswapPoolAmountOut",
      "outputs": [
        {
          "internalType": "uint256",
          "name": "tokenAmountIn",
          "type": "uint256"
        }
      ],
      "stateMutability": "nonpayable",
      "type": "function"
    },
    {
      "inputs": [
        {
          "internalType": "address",
          "name": "",
          "type": "address"
        }
      ],
      "name": "marketFees",
      "outputs": [
        {
          "internalType": "uint256",
          "name": "",
          "type": "uint256"
        }
      ],
      "stateMutability": "view",
      "type": "function"
    },
    {
      "inputs": [],
      "name": "name",
      "outputs": [
        {
          "internalType": "string",
          "name": "",
          "type": "string"
        }
      ],
      "stateMutability": "view",
      "type": "function"
    },
    {
      "inputs": [
        {
          "internalType": "uint256",
          "name": "swapFee",
          "type": "uint256"
        }
      ],
      "name": "setSwapFee",
      "outputs": [],
      "stateMutability": "nonpayable",
      "type": "function"
    },
    {
      "inputs": [
        {
          "internalType": "address",
          "name": "dataTokenAddress",
          "type": "address"
        },
        {
          "internalType": "uint256",
          "name": "dataTokenAmount",
          "type": "uint256"
        },
        {
          "internalType": "uint256",
          "name": "dataTokenWeight",
          "type": "uint256"
        },
        {
          "internalType": "address",
          "name": "baseTokenAddress",
          "type": "address"
        },
        {
          "internalType": "uint256",
          "name": "baseTokenAmount",
          "type": "uint256"
        },
        {
          "internalType": "uint256",
          "name": "baseTokenWeight",
          "type": "uint256"
        }
      ],
      "name": "setup",
      "outputs": [],
      "stateMutability": "nonpayable",
      "type": "function"
    },
    {
      "inputs": [
        {
          "internalType": "address",
          "name": "tokenIn",
          "type": "address"
        },
        {
          "internalType": "uint256",
          "name": "tokenAmountIn",
          "type": "uint256"
        },
        {
          "internalType": "address",
          "name": "tokenOut",
          "type": "address"
        },
        {
          "internalType": "uint256",
          "name": "minAmountOut",
          "type": "uint256"
        },
        {
          "internalType": "uint256",
          "name": "maxPrice",
          "type": "uint256"
        }
      ],
      "name": "swapExactAmountIn",
      "outputs": [
        {
          "internalType": "uint256",
          "name": "tokenAmountOut",
          "type": "uint256"
        },
        {
          "internalType": "uint256",
          "name": "spotPriceAfter",
          "type": "uint256"
        }
      ],
      "stateMutability": "nonpayable",
      "type": "function"
    },
    {
      "inputs": [
        {
          "internalType": "address",
          "name": "tokenIn",
          "type": "address"
        },
        {
          "internalType": "uint256",
          "name": "maxAmountIn",
          "type": "uint256"
        },
        {
          "internalType": "address",
          "name": "tokenOut",
          "type": "address"
        },
        {
          "internalType": "uint256",
          "name": "tokenAmountOut",
          "type": "uint256"
        },
        {
          "internalType": "uint256",
          "name": "maxPrice",
          "type": "uint256"
        }
      ],
      "name": "swapExactAmountOut",
      "outputs": [
        {
          "internalType": "uint256",
          "name": "tokenAmountIn",
          "type": "uint256"
        },
        {
          "internalType": "uint256",
          "name": "spotPriceAfter",
          "type": "uint256"
        }
      ],
      "stateMutability": "nonpayable",
      "type": "function"
    },
    {
      "inputs": [],
      "name": "symbol",
      "outputs": [
        {
          "internalType": "string",
          "name": "",
          "type": "string"
        }
      ],
      "stateMutability": "view",
      "type": "function"
    },
    {
      "inputs": [],
      "name": "totalSupply",
      "outputs": [
        {
          "internalType": "uint256",
          "name": "",
          "type": "uint256"
        }
      ],
      "stateMutability": "view",
      "type": "function"
    },
    {
      "inputs": [
        {
          "internalType": "address",
          "name": "dst",
          "type": "address"
        },
        {
          "internalType": "uint256",
          "name": "amt",
          "type": "uint256"
        }
      ],
      "name": "transfer",
      "outputs": [
        {
          "internalType": "bool",
          "name": "",
          "type": "bool"
        }
      ],
      "stateMutability": "nonpayable",
      "type": "function"
    },
    {
      "inputs": [
        {
          "internalType": "address",
          "name": "src",
          "type": "address"
        },
        {
          "internalType": "address",
          "name": "dst",
          "type": "address"
        },
        {
          "internalType": "uint256",
          "name": "amt",
          "type": "uint256"
        }
      ],
      "name": "transferFrom",
      "outputs": [
        {
          "internalType": "bool",
          "name": "",
          "type": "bool"
        }
      ],
      "stateMutability": "nonpayable",
      "type": "function"
    },
    {
      "inputs": [
        {
          "internalType": "address",
          "name": "_newCollector",
          "type": "address"
        }
      ],
      "name": "updateMarketFeeCollector",
      "outputs": [],
      "stateMutability": "nonpayable",
      "type": "function"
    }
  ],
  "bytecode": "0x60c0604052601360808190527f42616c616e63657220506f6f6c20546f6b656e0000000000000000000000000060a09081526200004091600a91906200008f565b506040805180820190915260038082526210941560ea1b60209092019182526200006d91600b916200008f565b50600c805460ff191660121790553480156200008857600080fd5b5062000172565b8280546200009d9062000135565b90600052602060002090601f016020900481019282620000c157600085556200010c565b82601f10620000dc57805160ff19168380011785556200010c565b828001600101855582156200010c579182015b828111156200010c578251825591602001919060010190620000ef565b506200011a9291506200011e565b5090565b5b808211156200011a57600081556001016200011f565b600181811c908216806200014a57607f821691505b602082108114156200016c57634e487b7160e01b600052602260045260246000fd5b50919050565b615aeb80620001826000396000f3fe608060405234801561001057600080fd5b50600436106104075760003560e01c80638201aa3f11610220578063be3bbd2e11610130578063e4a28a52116100b8578063f68045a511610087578063f68045a514610875578063f8b2cb4f1461087d578063fbb9dd5014610890578063fde924f7146108a3578063ff9b1850146108b557600080fd5b8063e4a28a521461048f578063ec09302114610847578063f0f13f0b1461084f578063f1b8a9b71461086257600080fd5b8063cc77828d116100ff578063cc77828d146107e3578063cd2ed8fb146107eb578063d4cadf68146107f3578063d73dd623146107fb578063dd62ed3e1461080e57600080fd5b8063be3bbd2e146107b3578063c070a6d8146107c8578063c36596a6146104cf578063c6580d12146107db57600080fd5b8063a3b3a16d116101b3578063b0e0d13611610182578063b0e0d13614610793578063b7b800a414610793578063ba019dab1461079b578063bc063e1a146107a3578063bc694ea2146107ab57600080fd5b8063a3b3a16d14610747578063a562ddf01461075a578063a9059cbb1461076d578063b02f0b731461078057600080fd5b80639381cd2b116101ef5780639381cd2b1461071c578063948d8ce61461072457806395d89b4114610737578063992e2a921461073f57600080fd5b80638201aa3f146106e7578063867378c5146106fa5780638d4e408314610702578063936c34771461071457600080fd5b806334e199071161031b5780634f69c0d4116102ae578063700dd7e81161027d578063700dd7e814610673578063703305181461067b57806370a082311461068e57806376c7a3c7146106b75780637c5e9ea4146106bf57600080fd5b80634f69c0d4146106275780635db342771461063a578063661884631461064d5780636d06dfa01461066057600080fd5b8063430ed5d0116102ea578063430ed5d0146105e757806346ab38f1146105fa57806349e9350f1461060d5780634df947d01461061657600080fd5b806334e199071461059c578063380376a6146105af578063392e53cd146105c25780633950b3fd146105d457600080fd5b8063189d00ca1161039e5780632f37b6241161036d5780632f37b6241461050457806330062192146105305780633018205f14610550578063313ce5671461056757806331e2761b1461057c57600080fd5b8063189d00ca146104c7578063218b5382146104cf57806323b872dd146104de5780632ea07d8a146104f157600080fd5b806309a3bbe4116103da57806309a3bbe41461048f57806309ef3f5b1461049757806315e84af9146104ac57806318160ddd146104bf57600080fd5b806302c967481461040c57806304ad79541461043257806306fdde0314610457578063095ea7b31461046c575b600080fd5b61041f61041a3660046155a3565b6108c8565b6040519081526020015b60405180910390f35b6003546001600160a01b03165b6040516001600160a01b039091168152602001610429565b61045f610e6f565b60405161042991906157ab565b61047f61047a36600461552b565b610f01565b6040519015158152602001610429565b61041f610f5c565b6104aa6104a53660046155d6565b610f72565b005b61041f6104ba36600461540f565b611111565b60095461041f565b61041f6111f5565b61041f670de0b6b3a764000081565b61047f6104ec3660046154ef565b61120c565b61041f6104ff3660046154ef565b611360565b61047f6105123660046153f4565b6001600160a01b031660009081526010602052604090205460ff1690565b61041f61053e3660046153f4565b60056020526000908152604090205481565b600c546201000090046001600160a01b031661043f565b600c5460405160ff9091168152602001610429565b61041f61058a3660046153f4565b60066020526000908152604090205481565b6104aa6105aa36600461564b565b61141b565b61041f6105bd3660046154ef565b611564565b601254600160a01b900460ff1661047f565b61041f6105e236600461552b565b611615565b61041f6105f536600461552b565b61167d565b61041f6106083660046155a3565b6116dd565b61041f60005481565b6004546001600160a01b031661043f565b6104aa61063536600461567d565b611b07565b61041f6106483660046155a3565b611d2e565b61047f61065b36600461552b565b6121f5565b61041f61066e3660046155a3565b6122cb565b61041f61271d565b6104aa6106893660046153f4565b6127a6565b61041f61069c3660046153f4565b6001600160a01b031660009081526007602052604090205490565b61041f61281a565b6106d26106cd366004615555565b61282f565b60408051928352602083019190915201610429565b6106d26106f5366004615555565b612b80565b61041f612eb5565b600e54600160a01b900460ff1661047f565b61041f612ecc565b61041f612efe565b61041f6107323660046153f4565b612f11565b61045f612f97565b61041f612fa6565b61041f61075536600461552b565b612fc4565b600d5461043f906001600160a01b031681565b61047f61077b36600461552b565b613024565b6104aa61078e36600461567d565b61303a565b61041f600281565b61041f600181565b61041f613275565b61041f613288565b6107bb6132a7565b604051610429919061575e565b61047f6107d6366004615442565b61335a565b61041f600081565b6107bb6135ca565b600f5461041f565b60015461041f565b61047f61080936600461552b565b6135f5565b61041f61081c36600461540f565b6001600160a01b03918216600090815260086020908152604080832093909416825291909152205490565b61041f613668565b600e5461043f906001600160a01b031681565b61041f6108703660046153f4565b61367b565b6104aa61370f565b61041f61088b3660046153f4565b613869565b6104aa61089e3660046153f4565b6138eb565b600c54600160b01b900460ff1661047f565b61041f6108c336600461552b565b613a96565b600c54600090610100900460ff16156108fc5760405162461bcd60e51b81526004016108f39061585e565b60405180910390fd5b600c805461ff001916610100179055600e54600160a01b900460ff166109345760405162461bcd60e51b81526004016108f3906158d5565b6001600160a01b03841660009081526010602052604090205460ff1661096c5760405162461bcd60e51b81526004016108f3906158ae565b6001600160a01b03841660009081526010602052604090206003908101546109b0916109a090670de0b6b3a7640000615931565b6109ab906001615919565b613af6565b8311156109cf5760405162461bcd60e51b81526004016108f390615883565b6001600160a01b038416600090815260106020526040902060038101546002820154600954601154610a049392919088613bd1565b915081610a235760405162461bcd60e51b81526004016108f3906157e8565b82821115610a435760405162461bcd60e51b81526004016108f390615838565b610a51816003015485613c95565b60038201556000610a628382613af6565b604080518781524260208201529192506001600160a01b038816913391600080516020615a36833981519152910160405180910390a3604051838152600080516020615a568339815191529060200160405180910390a1610ac33384613cf2565b610ad5610ad08483613c95565b613cfc565b600254610aeb906001600160a01b031682613d08565b610af6863387613d12565b6003546000906001600160a01b0388811691161415610b2157506004546001600160a01b0316610b2f565b506003546001600160a01b03165b60125460035460405163efd4810360e01b8152610bc1926001600160a01b039081169263efd4810392610b6c929091169086908a90600401615716565b60206040518083038186803b158015610b8457600080fd5b505afa158015610b98573d6000803e3d6000fd5b505050506040513d601f19601f82011682018060405250810190610bbc919061562e565b613de0565b60125460035460405163efd4810360e01b81526001600160a01b039283169263efd4810392610bf99291169085908990600401615716565b60206040518083038186803b158015610c1157600080fd5b505afa158015610c25573d6000803e3d6000fd5b505050506040513d601f19601f82011682018060405250810190610c49919061562e565b151560011415610e5a57600380546001600160a01b03166000908152601060205260408120918201546002830154600954601154610c8a939291908a613e21565b9050610cbe816040518060400160405280601081526020016f7373416d6f756e744f7574206865726560801b815250613eeb565b610cec836040518060400160405280600c81526020016b39b9a9ba30b5b2aa37b5b2b760a11b815250613f30565b60035460408051808201909152600a8152696474206164647265737360b01b6020820152610d23916001600160a01b031690613f30565b610d31826003015482613c95565b6003830155610d41866000613af6565b600c54604080518481524260208201529296506001600160a01b0386811693620100009093041691600080516020615a36833981519152910160405180910390a3600c54610d9e906201000090046001600160a01b031687613cf2565b610dab610ad08786613c95565b600254610dc1906001600160a01b031685613d08565b600c54610ddf9084906201000090046001600160a01b031683613d12565b6012546003546040516307b01ab360e41b81526001600160a01b03918216600482015285821660248201526044810184905260648101899052911690637b01ab30906084015b600060405180830381600087803b158015610e3f57600080fd5b505af1158015610e53573d6000803e3d6000fd5b5050505050505b505050600c805461ff00191690559392505050565b6060600a8054610e7e9061597b565b80601f0160208091040260200160405190810160405280929190818152602001828054610eaa9061597b565b8015610ef75780601f10610ecc57610100808354040283529160200191610ef7565b820191906000526020600020905b815481529060010190602001808311610eda57829003601f168201915b5050505050905090565b3360008181526008602090815260408083206001600160a01b03871680855292528083208590555191929091600080516020615a9683398151915290610f4a9086815260200190565b60405180910390a35060015b92915050565b610f6f670de0b6b3a76400006032615945565b81565b600c546201000090046001600160a01b03163314610fcb5760405162461bcd60e51b815260206004820152601660248201527522a9292fa4a72b20a624a22fa1a7a72a2927a62622a960511b60448201526064016108f3565b6003546001600160a01b038781169116146110285760405162461bcd60e51b815260206004820152601d60248201527f4552525f494e56414c49445f44415441544f4b454e5f4144445245535300000060448201526064016108f3565b6004546001600160a01b038481169116146110855760405162461bcd60e51b815260206004820152601d60248201527f4552525f494e56414c49445f42415345544f4b454e5f4144445245535300000060448201526064016108f3565b611090868686613f75565b604080518681524260208201526001600160a01b038816913391600080516020615a76833981519152910160405180910390a36110ce838383613f75565b604080518381524260208201526001600160a01b038516913391600080516020615a76833981519152910160405180910390a361110961415f565b505050505050565b600c54600090610100900460ff161561113c5760405162461bcd60e51b81526004016108f39061585e565b6001600160a01b03831660009081526010602052604090205460ff166111745760405162461bcd60e51b81526004016108f3906158ae565b6001600160a01b03821660009081526010602052604090205460ff166111ac5760405162461bcd60e51b81526004016108f3906158ae565b6001600160a01b038084166000908152601060205260408082209285168252902060038083015460028085015492840154908401546111ec9391906141be565b95945050505050565b610f6f6402540be400670de0b6b3a7640000615931565b6000336001600160a01b038516148061124857506001600160a01b03841660009081526008602090815260408083203384529091529020548211155b61128c5760405162461bcd60e51b815260206004820152601560248201527422a9292fa12a27a5a2a72fa120a22fa1a0a62622a960591b60448201526064016108f3565b611297848484614236565b336001600160a01b038516148015906112d557506001600160a01b038416600090815260086020908152604080832033845290915290205460001914155b15611356576001600160a01b03841660009081526008602090815260408083203384529091529020546113089083613c95565b6001600160a01b038581166000908152600860209081526040808320338085529083529281902085905551938452918616929091600080516020615a96833981519152910160405180910390a35b5060019392505050565b6001600160a01b03831660009081526010602052604081205460ff166113985760405162461bcd60e51b81526004016108f3906158ae565b6001600160a01b03831660009081526010602052604090205460ff166113d05760405162461bcd60e51b81526004016108f3906158ae565b6001600160a01b0380851660009081526010602052604080822092861682529020600380830154600280850154928401549084015461141193919088614348565b9695505050505050565b600e54600160a01b900460ff16156114685760405162461bcd60e51b815260206004820152601060248201526f11549497d254d7d1925390531256915160821b60448201526064016108f3565b600c546201000090046001600160a01b031633146114bd5760405162461bcd60e51b815260206004820152601260248201527122a9292fa727aa2fa1a7a72a2927a62622a960711b60448201526064016108f3565b6114d2620f4240670de0b6b3a7640000615931565b81101561150f5760405162461bcd60e51b815260206004820152600b60248201526a4552525f4d494e5f46454560a81b60448201526064016108f3565b611522600a670de0b6b3a7640000615931565b81111561155f5760405162461bcd60e51b815260206004820152600b60248201526a4552525f4d41585f46454560a81b60448201526064016108f3565b600155565b6001600160a01b03831660009081526010602052604081205460ff1661159c5760405162461bcd60e51b81526004016108f3906158ae565b6001600160a01b03831660009081526010602052604090205460ff166115d45760405162461bcd60e51b81526004016108f3906158ae565b6001600160a01b03808516600090815260106020526040808220928616825290206003808301546002808501549284015490840154611411939190886143f0565b6001600160a01b03821660009081526010602090815260408083208151608081018352815460ff16151581526001820154938101939093526002810154918301829052600301546060830181905260095460115461167593919087614496565b949350505050565b6001600160a01b03821660009081526010602090815260408083208151608081018352815460ff16151581526001820154938101939093526002810154918301829052600301546060830181905260095460115461167593919087613e21565b600c54600090610100900460ff16156117085760405162461bcd60e51b81526004016108f39061585e565b600c805461ff001916610100179055600e54600160a01b900460ff166117405760405162461bcd60e51b81526004016108f3906158d5565b6001600160a01b03841660009081526010602052604090205460ff166117785760405162461bcd60e51b81526004016108f3906158ae565b6001600160a01b0384166000908152601060205260409020600381015460028201546009546011546117ad9392919088613e21565b9150828210156117cf5760405162461bcd60e51b81526004016108f390615811565b6001600160a01b0385166000908152601060205260409020600390810154611803916109a090670de0b6b3a7640000615931565b8211156118225760405162461bcd60e51b81526004016108f390615883565b611830816003015483613c95565b600382015560006118418582613af6565b604080518581524260208201529192506001600160a01b038816913391600080516020615a36833981519152910160405180910390a3604051858152600080516020615a568339815191529060200160405180910390a16118a23386613cf2565b6118af610ad08683613c95565b6002546118c5906001600160a01b031682613d08565b6118d0863385613d12565b6003546000906001600160a01b03888116911614156118fb57506004546001600160a01b0316611909565b506003546001600160a01b03165b60125460035460405163efd4810360e01b81526001600160a01b039283169263efd48103926119419291169085908b90600401615716565b60206040518083038186803b15801561195957600080fd5b505afa15801561196d573d6000803e3d6000fd5b505050506040513d601f19601f82011682018060405250810190611991919061562e565b151560011415610e5a57600380546001600160a01b031660009081526010602052604081209182015460028301546009546011546119d2939291908c613e21565b9050611a01816040518060400160405280600b81526020016a1cdcd05b5bdd5b9d13dd5d60aa1b815250613eeb565b611a0f826003015482613c95565b6003830155611a1f886000613af6565b600c54604080518481524260208201529296506001600160a01b0386811693620100009093041691600080516020615a36833981519152910160405180910390a3600c54611a7c906201000090046001600160a01b031689613cf2565b611a89610ad08986613c95565b600254611a9f906001600160a01b031685613d08565b600c54611abd9084906201000090046001600160a01b031683613d12565b6012546003546040516307b01ab360e41b81526001600160a01b039182166004820152858216602482015260448101849052606481018b9052911690637b01ab3090608401610e25565b600c54610100900460ff1615611b2f5760405162461bcd60e51b81526004016108f39061585e565b600c805461ff001916610100179055600e54600160a01b900460ff16611b675760405162461bcd60e51b81526004016108f3906158d5565b6000611b7260095490565b90506000611b80858361452b565b905080611b9f5760405162461bcd60e51b81526004016108f3906157e8565b60005b600f54811015611ce7576000600f8281548110611bc157611bc1615a11565b60009182526020808320909101546001600160a01b03168083526010909152604082206003015490925090611bf68583613af6565b905080611c155760405162461bcd60e51b81526004016108f3906157e8565b878785818110611c2757611c27615a11565b90506020020135811115611c4d5760405162461bcd60e51b81526004016108f390615838565b6001600160a01b038316600090815260106020526040902060030154611c739082614643565b6001600160a01b038416600081815260106020526040908190206003019290925590513390600080516020615a7683398151915290611cbe9085904290918252602082015260400190565b60405180910390a3611cd1833383614695565b5050508080611cdf906159b6565b915050611ba2565b50611cf1856146c8565b611cfb3386613d08565b604051858152600080516020615a568339815191529060200160405180910390a15050600c805461ff0019169055505050565b600c54600090610100900460ff1615611d595760405162461bcd60e51b81526004016108f39061585e565b600c805461ff001916610100179055600e54600160a01b900460ff16611d915760405162461bcd60e51b81526004016108f3906158d5565b6001600160a01b03841660009081526010602052604090205460ff16611dc95760405162461bcd60e51b81526004016108f3906158ae565b6001600160a01b038416600090815260106020526040902060030154611dfc906109ab6002670de0b6b3a7640000615931565b831115611e1b5760405162461bcd60e51b81526004016108f3906157be565b6001600160a01b038416600090815260106020526040902060038101546002820154600954601154611e509392919088614496565b915082821015611e725760405162461bcd60e51b81526004016108f390615811565b611e80816003015485614643565b6003820155604080518581524260208201526001600160a01b038716913391600080516020615a76833981519152910160405180910390a3604051828152600080516020615a568339815191529060200160405180910390a1611ee2826146c8565b611eec3383613d08565b611ef7853386614695565b600380546001600160a01b031660009081526010602052604081209182015460028301546009546011548493611f319390929091896146d1565b6003549091506001600160a01b0389811691161415611f5d576004546001600160a01b03169150611f6c565b6003546001600160a01b031691505b611f98816040518060400160405280600a81526020016939b9a0b6b7bab73a24b760b11b815250613eeb565b6012546003546040516326b1f01f60e01b815261202f926001600160a01b03908116926326b1f01f92611fd5929091169087908790600401615716565b60206040518083038186803b158015611fed57600080fd5b505afa158015612001573d6000803e3d6000fd5b505050506040513d601f19601f82011682018060405250810190612025919061562e565b1515600114613de0565b6012546003546040516326b1f01f60e01b81526001600160a01b03928316926326b1f01f926120679291169086908690600401615716565b60206040518083038186803b15801561207f57600080fd5b505afa158015612093573d6000803e3d6000fd5b505050506040513d601f19601f820116820180604052508101906120b7919061562e565b1515600114156121df576012546003546040516399039fcf60e01b81526001600160a01b03928316926399039fcf926120f99291169086908690600401615716565b600060405180830381600087803b15801561211357600080fd5b505af1158015612127573d6000803e3d6000fd5b50505050612139836003015482614643565b6003840155600c54604080518381524260208201526001600160a01b03858116936201000090041691600080516020615a76833981519152910160405180910390a3604051858152600080516020615a568339815191529060200160405180910390a16121a5856146c8565b600c546121c1906201000090046001600160a01b031686613d08565b600c546121df9083906201000090046001600160a01b031683614695565b50505050600c805461ff00191690559392505050565b3360009081526008602090815260408083206001600160a01b03861684529091528120548083111561224a573360009081526008602090815260408083206001600160a01b0388168452909152812055612279565b6122548184613c95565b3360009081526008602090815260408083206001600160a01b03891684529091529020555b3360008181526008602090815260408083206001600160a01b03891680855290835292819020549051908152919291600080516020615a96833981519152910160405180910390a35060019392505050565b600c54600090610100900460ff16156122f65760405162461bcd60e51b81526004016108f39061585e565b600c805461ff001916610100179055600e54600160a01b900460ff1661232e5760405162461bcd60e51b81526004016108f3906158d5565b6001600160a01b03841660009081526010602052604090205460ff166123665760405162461bcd60e51b81526004016108f3906158ae565b6001600160a01b03841660009081526010602052604090206003810154600282015460095460115461239b93929190886146d1565b9150816123ba5760405162461bcd60e51b81526004016108f3906157e8565b828211156123da5760405162461bcd60e51b81526004016108f390615838565b6001600160a01b03851660009081526010602052604090206003015461240d906109ab6002670de0b6b3a7640000615931565b82111561242c5760405162461bcd60e51b81526004016108f3906157be565b61243a816003015483614643565b6003820155604080518381524260208201526001600160a01b038716913391600080516020615a76833981519152910160405180910390a3604051848152600080516020615a568339815191529060200160405180910390a161249c846146c8565b6124a63385613d08565b6124b1853384614695565b600380546001600160a01b031660009081526010602052604081209182015460028301546009546011546124e8939291908a6146d1565b6003549091506000906001600160a01b038981169116141561251657506004546001600160a01b0316612524565b506003546001600160a01b03165b6012546003546040516326b1f01f60e01b8152612561926001600160a01b03908116926326b1f01f92611fd5929091169086908890600401615716565b61258e826040518060400160405280600b81526020016a39b9a0b6b7bab73a1024b760a91b815250613eeb565b6012546003546040516326b1f01f60e01b81526001600160a01b03928316926326b1f01f926125c69291169085908790600401615716565b60206040518083038186803b1580156125de57600080fd5b505afa1580156125f2573d6000803e3d6000fd5b505050506040513d601f19601f82011682018060405250810190612616919061562e565b1515600114156121df576012546003546040516399039fcf60e01b81526001600160a01b03928316926399039fcf926126589291169085908790600401615716565b600060405180830381600087803b15801561267257600080fd5b505af1158015612686573d6000803e3d6000fd5b50505050612698836003015483614643565b6003840155600c54604080518481524260208201526001600160a01b03848116936201000090041691600080516020615a76833981519152910160405180910390a36126e3876146c8565b600c546126ff906201000090046001600160a01b031688613d08565b600c546121df9082906201000090046001600160a01b031684614695565b60025460048054604051637c0aa57760e11b81526001600160a01b0391821692810192909252600092169063f8154aee9060240160206040518083038186803b15801561276957600080fd5b505afa15801561277d573d6000803e3d6000fd5b505050506040513d601f19601f820116820180604052508101906127a19190615664565b905090565b600d546001600160a01b031633146127f85760405162461bcd60e51b815260206004820152601560248201527427a7262c9026a0a925a2aa1021a7a62622a1aa27a960591b60448201526064016108f3565b600d80546001600160a01b0319166001600160a01b0392909216919091179055565b610f6f620f4240670de0b6b3a7640000615931565b600c546000908190610100900460ff161561285c5760405162461bcd60e51b81526004016108f39061585e565b600c805461ff001916610100179055600e54600160a01b900460ff166128945760405162461bcd60e51b81526004016108f3906158d5565b6001600160a01b03871660009081526010602052604090205460ff166128cc5760405162461bcd60e51b81526004016108f3906158ae565b6001600160a01b03851660009081526010602052604090205460ff166129045760405162461bcd60e51b81526004016108f3906158ae565b6001600160a01b0380881660009081526010602052604080822092881682529020600380820154612941916109a090670de0b6b3a7640000615931565b8611156129605760405162461bcd60e51b81526004016108f390615883565b600061297e83600301548460020154846003015485600201546141be565b9050858111156129c65760405162461bcd60e51b81526020600482015260136024820152724552525f4241445f4c494d49545f505249434560681b60448201526064016108f3565b600080604051806080016040528086600301548152602001866002015481526020018560030154815260200185600201548152509050612a07818a8e61476b565b90975091508a871115612a2c5760405162461bcd60e51b81526004016108f390615838565b612a3a856003015483614643565b8560030181905550612a5084600301548a613c95565b600380860182905586015460028088015490870154612a6f93906141be565b955082861015612a915760405162461bcd60e51b81526004016108f3906157e8565b87861115612ad35760405162461bcd60e51b815260206004820152600f60248201526e4552525f4c494d49545f505249434560881b60448201526064016108f3565b612add878a61452b565b831115612afc5760405162461bcd60e51b81526004016108f3906157e8565b60408051888152602081018b9052428183015290516001600160a01b038c811692908f169133917f50ef2fc267012b5c84b56835f16ffd5331ac5a151a3760d74908721ba78b0efe919081900360600190a4612b598c3389614695565b612b648a338b613d12565b5050505050600c805461ff001916905590969095509350505050565b600c546000908190610100900460ff1615612bad5760405162461bcd60e51b81526004016108f39061585e565b600c805461ff001916610100179055600e54600160a01b900460ff16612be55760405162461bcd60e51b81526004016108f3906158d5565b6001600160a01b03871660009081526010602052604090205460ff16612c1d5760405162461bcd60e51b81526004016108f3906158ae565b6001600160a01b03851660009081526010602052604090205460ff16612c555760405162461bcd60e51b81526004016108f3906158ae565b6001600160a01b03808816600090815260106020526040808220928816825290206003820154612c92906109ab6002670de0b6b3a7640000615931565b881115612cb15760405162461bcd60e51b81526004016108f3906157be565b6000612ccf83600301548460020154846003015485600201546141be565b905085811115612d175760405162461bcd60e51b81526020600482015260136024820152724552525f4241445f4c494d49545f505249434560681b60448201526064016108f3565b600080604051806080016040528086600301548152602001866002015481526020018560030154815260200185600201548152509050612d58818c8e614989565b909750915088871015612d7d5760405162461bcd60e51b81526004016108f390615811565b612d8b856003015483614643565b8560030181905550612da1846003015488613c95565b600380860182905586015460028088015490870154612dc093906141be565b955082861015612de25760405162461bcd60e51b81526004016108f3906157e8565b87861115612e245760405162461bcd60e51b815260206004820152600f60248201526e4552525f4c494d49545f505249434560881b60448201526064016108f3565b612e2e8b8861452b565b831115612e4d5760405162461bcd60e51b81526004016108f3906157e8565b604080518c815260208101899052428183015290516001600160a01b038c811692908f169133917f50ef2fc267012b5c84b56835f16ffd5331ac5a151a3760d74908721ba78b0efe919081900360600190a4612eaa8c338d614695565b612b648a3389613d12565b610f6f64e8d4a51000670de0b6b3a7640000615931565b600c54600090610100900460ff1615612ef75760405162461bcd60e51b81526004016108f39061585e565b5060115490565b610f6f670de0b6b3a76400006064615945565b600c54600090610100900460ff1615612f3c5760405162461bcd60e51b81526004016108f39061585e565b6001600160a01b03821660009081526010602052604090205460ff16612f745760405162461bcd60e51b81526004016108f3906158ae565b506001600160a01b0381166000908152601060205260409020600201545b919050565b6060600b8054610e7e9061597b565b612fb96003670de0b6b3a7640000615931565b610f6f906001615919565b6001600160a01b03821660009081526010602090815260408083208151608081018352815460ff16151581526001820154938101939093526002810154918301829052600301546060830181905260095460115461167593919087613bd1565b6000613031338484614236565b50600192915050565b600c54610100900460ff16156130625760405162461bcd60e51b81526004016108f39061585e565b600c805461ff001916610100179055600e54600160a01b900460ff1661309a5760405162461bcd60e51b81526004016108f3906158d5565b60006130a560095490565b905060006130b4856000613af6565b905060006130c28683613c95565b905060006130d0828561452b565b9050806130ef5760405162461bcd60e51b81526004016108f3906157e8565b6130f93388613cf2565b60025461310f906001600160a01b031684613d08565b61311882613cfc565b60005b600f54811015613260576000600f828154811061313a5761313a615a11565b60009182526020808320909101546001600160a01b0316808352601090915260408220600301549092509061316f8583613af6565b90508061318e5760405162461bcd60e51b81526004016108f3906157e8565b8989858181106131a0576131a0615a11565b905060200201358110156131c65760405162461bcd60e51b81526004016108f390615811565b6001600160a01b0383166000908152601060205260409020600301546131ec9082613c95565b6001600160a01b038416600081815260106020526040908190206003019290925590513390600080516020615a36833981519152906132379085904290918252602082015260400190565b60405180910390a361324a833383613d12565b5050508080613258906159b6565b91505061311b565b5050600c805461ff0019169055505050505050565b610f6f600a670de0b6b3a7640000615931565b600161329d670de0b6b3a76400006002615945565b610f6f9190615964565b600c54606090610100900460ff16156132d25760405162461bcd60e51b81526004016108f39061585e565b600e54600160a01b900460ff166132fb5760405162461bcd60e51b81526004016108f3906158d5565b600f805480602002602001604051908101604052809291908181526020018280548015610ef757602002820191906000526020600020905b81546001600160a01b03168152600190910190602001808311613333575050505050905090565b601254600090600160a01b900460ff16156133b75760405162461bcd60e51b815260206004820152601760248201527f4552525f414c52454144595f494e495449414c495a454400000000000000000060448201526064016108f3565b6001600160a01b03891661340d5760405162461bcd60e51b815260206004820152601e60248201527f4552525f494e56414c49445f434f4e54524f4c4c45525f41444452455353000060448201526064016108f3565b6001600160a01b0388166134635760405162461bcd60e51b815260206004820152601b60248201527f4552525f494e56414c49445f464143544f52595f41444452455353000000000060448201526064016108f3565b613478620f4240670de0b6b3a7640000615931565b8787600081811061348b5761348b615a11565b9050602002013510156134ce5760405162461bcd60e51b815260206004820152600b60248201526a4552525f4d494e5f46454560a81b60448201526064016108f3565b6134e1600a670de0b6b3a7640000615931565b878760008181106134f4576134f4615a11565b9050602002013511156135375760405162461bcd60e51b815260206004820152600b60248201526a4552525f4d41585f46454560a81b60448201526064016108f3565b6135bd8989898980806020026020016040519081016040528093929190818152602001838360200280828437600092019190915250506040805180820182528c93508b9250908a9060029083908390808284376000920191909152505060408051808201825291508a906002908390839080828437600092019190915250614b8e915050565b9998505050505050505050565b600c54606090610100900460ff16156132fb5760405162461bcd60e51b81526004016108f39061585e565b3360009081526008602090815260408083206001600160a01b03861684529091528120546136239083614643565b3360008181526008602090815260408083206001600160a01b03891680855290835292819020859055519384529092600080516020615a968339815191529101610f4a565b610f6f6002670de0b6b3a7640000615931565b600c54600090610100900460ff16156136a65760405162461bcd60e51b81526004016108f39061585e565b6001600160a01b03821660009081526010602052604090205460ff166136de5760405162461bcd60e51b81526004016108f3906158ae565b6001600160a01b03821660009081526010602052604090206002015460115461370890829061452b565b9392505050565b60006137196132a7565b905060005b81518110156138655760006005600084848151811061373f5761373f615a11565b60200260200101516001600160a01b03166001600160a01b0316815260200190815260200160002054905060006005600085858151811061378257613782615a11565b60200260200101516001600160a01b03166001600160a01b03168152602001908152602001600020819055508282815181106137c0576137c0615a11565b6020908102919091010151600e5460405163a9059cbb60e01b81526001600160a01b0391821660048201526024810184905291169063a9059cbb90604401602060405180830381600087803b15801561381857600080fd5b505af115801561382c573d6000803e3d6000fd5b505050506040513d601f19601f82011682018060405250810190613850919061562e565b5050808061385d906159b6565b91505061371e565b5050565b600c54600090610100900460ff16156138945760405162461bcd60e51b81526004016108f39061585e565b6001600160a01b03821660009081526010602052604090205460ff166138cc5760405162461bcd60e51b81526004016108f3906158ae565b506001600160a01b031660009081526010602052604090206003015490565b600d546001600160a01b0316331461393d5760405162461bcd60e51b815260206004820152601560248201527427a7262c9026a0a925a2aa1021a7a62622a1aa27a960591b60448201526064016108f3565b60006139476132a7565b905060005b8151811015613a915760006006600084848151811061396d5761396d615a11565b60200260200101516001600160a01b03166001600160a01b031681526020019081526020016000205490506000600660008585815181106139b0576139b0615a11565b60200260200101516001600160a01b03166001600160a01b03168152602001908152602001600020819055508282815181106139ee576139ee615a11565b602090810291909101015160405163a9059cbb60e01b81526001600160a01b038681166004830152602482018490529091169063a9059cbb90604401602060405180830381600087803b158015613a4457600080fd5b505af1158015613a58573d6000803e3d6000fd5b505050506040513d601f19601f82011682018060405250810190613a7c919061562e565b50508080613a89906159b6565b91505061394c565b505050565b6001600160a01b03821660009081526010602090815260408083208151608081018352815460ff161515815260018201549381019390935260028101549183018290526003015460608301819052600954601154611675939190876146d1565b600080613b038385615945565b9050831580613b1a575082613b188583615931565b145b613b595760405162461bcd60e51b815260206004820152601060248201526f4552525f4d554c5f4f564552464c4f5760801b60448201526064016108f3565b6000613b6e6002670de0b6b3a7640000615931565b613b789083615919565b905081811015613bbd5760405162461bcd60e51b815260206004820152601060248201526f4552525f4d554c5f4f564552464c4f5760801b60448201526064016108f3565b6000611411670de0b6b3a764000083615931565b600080613bde868561452b565b90506000613bf4670de0b6b3a764000083613c95565b90506000613c0482600154613af6565b90506000613c2386613c1e670de0b6b3a764000085613c95565b61452b565b90506000613c318b83613c95565b90506000613c3f828d61452b565b90506000613c4d8288614ccc565b90506000613c5b828d613af6565b90506000613c698d83613c95565b9050613c8281613c1e670de0b6b3a76400006000613c95565b9f9e505050505050505050505050505050565b6000806000613ca48585614df8565b915091508015613cea5760405162461bcd60e51b81526020600482015260116024820152704552525f5355425f554e444552464c4f5760781b60448201526064016108f3565b509392505050565b6138658282614e2f565b613d0581614e3a565b50565b6138658282614f06565b60405163a9059cbb60e01b81526001600160a01b038381166004830152602482018390526000919085169063a9059cbb906044015b602060405180830381600087803b158015613d6157600080fd5b505af1158015613d75573d6000803e3d6000fd5b505050506040513d601f19601f82011682018060405250810190613d99919061562e565b905080613dda5760405162461bcd60e51b815260206004820152600f60248201526e4552525f45524332305f46414c534560881b60448201526064016108f3565b50505050565b6040518115156024820152613d059060440160408051601f198184030181529190526020810180516001600160e01b03166332458eed60e01b179052614f11565b600080613e2e868561452b565b90506000613e49846109ab670de0b6b3a76400006000613c95565b90506000613e578783613c95565b90506000613e65828961452b565b90506000613e8482613e7f670de0b6b3a76400008861452b565b614ccc565b90506000613e92828d613af6565b90506000613ea08d83613c95565b90506000613ec1613eb9670de0b6b3a76400008a613c95565b600154613af6565b9050613ed9826109ab670de0b6b3a764000084613c95565b9e9d5050505050505050505050505050565b6138658282604051602401613f01929190615900565b60408051601f198184030181529190526020810180516001600160e01b0316630fa3f34560e01b179052614f11565b6138658282604051602401613f4692919061573a565b60408051601f198184030181529190526020810180516001600160e01b031663759f86bb60e01b179052614f11565b600c546201000090046001600160a01b03163314613fca5760405162461bcd60e51b815260206004820152601260248201527122a9292fa727aa2fa1a7a72a2927a62622a960711b60448201526064016108f3565b6001600160a01b03831660009081526010602052604090205460ff16156140225760405162461bcd60e51b815260206004820152600c60248201526b11549497d254d7d093d5539160a21b60448201526064016108f3565b600e54600160a01b900460ff161561406f5760405162461bcd60e51b815260206004820152601060248201526f11549497d254d7d1925390531256915160821b60448201526064016108f3565b600f546002116140b25760405162461bcd60e51b815260206004820152600e60248201526d4552525f4d41585f544f4b454e5360901b60448201526064016108f3565b604080516080810182526001808252600f805460208085019182526000858701818152606087018281526001600160a01b038c1680845260109094529782209651875460ff1916901515178755925186860155915160028601559451600390940193909355805491820181559091527f8d1108e10bcb7c27dddfc02ed9d693a074039d026cf4ea4240b40f7d581ac8020180546001600160a01b0319169091179055613a91838383614f32565b600e805460ff60a01b1916600160a01b179055600c805460ff60b01b1916600160b01b1790556141a061419b670de0b6b3a76400006064615945565b6146c8565b6141bc336141b7670de0b6b3a76400006064615945565b613d08565b565b6000806141cb868661452b565b905060006141d9858561452b565b905060006141e7838361452b565b9050600061422a670de0b6b3a7640000613c1e670de0b6b3a764000060005461420e61271d565b60015461421b9190615919565b6142259190615919565b613c95565b90506135bd8282613af6565b6001600160a01b0383166000908152600760205260409020548111156142955760405162461bcd60e51b815260206004820152601460248201527311549497d25394d551919250d251539517d0905360621b60448201526064016108f3565b6001600160a01b0383166000908152600760205260409020546142b89082613c95565b6001600160a01b0380851660009081526007602052604080822093909355908416815220546142e79082614643565b6001600160a01b0380841660008181526007602052604090819020939093559151908516907fddf252ad1be2c89b69c2b068fc378daa952ba7f163c4a11628f55a4df523b3ef9061433b9085815260200190565b60405180910390a3505050565b600080614355848761452b565b905060006143638685613c95565b90506000614371878361452b565b9050600061437f8285614ccc565b905061439381670de0b6b3a7640000613c95565b9050600080546143a161271d565b6001546143ae9190615919565b6143b89190615919565b90506143cc670de0b6b3a764000082613c95565b95506143e16143db8c84613af6565b8761452b565b9b9a5050505050505050505050565b6000806143fd868561452b565b90506000805461440b61271d565b6001546144189190615919565b6144229190615919565b90506000614438670de0b6b3a764000083613c95565b90506144448582613af6565b905060006144568a613c1e8c85614643565b905060006144648286614ccc565b9050600061447a670de0b6b3a764000083613c95565b90506144868a82613af6565b9c9b505050505050505050505050565b6000806144a3868561452b565b905060006144bc613eb9670de0b6b3a764000084613c95565b905060006144d6856109ab670de0b6b3a764000085613c95565b905060006144e48a83614643565b905060006144f2828c61452b565b905060006145008287614ccc565b9050600061450e828c613af6565b905061451a818c613c95565b9d9c50505050505050505050505050565b6000816145695760405162461bcd60e51b815260206004820152600c60248201526b4552525f4449565f5a45524f60a01b60448201526064016108f3565b600061457d670de0b6b3a764000085615945565b905083158061459c5750670de0b6b3a764000061459a8583615931565b145b6145db5760405162461bcd60e51b815260206004820152601060248201526f11549497d1125597d25395115493905360821b60448201526064016108f3565b60006145e8600285615931565b6145f29083615919565b9050818110156146375760405162461bcd60e51b815260206004820152601060248201526f11549497d1125597d25395115493905360821b60448201526064016108f3565b60006114118583615931565b6000806146508385615919565b9050838110156137085760405162461bcd60e51b815260206004820152601060248201526f4552525f4144445f4f564552464c4f5760801b60448201526064016108f3565b6040516323b872dd60e01b81526000906001600160a01b038516906323b872dd90613d4790869030908790600401615716565b613d0581615182565b6000806146de868561452b565b905060006146ec8685614643565b905060006146fa828861452b565b90506000614710670de0b6b3a76400008561452b565b9050600061471e8383614ccc565b9050600061472c828d613af6565b9050600061473a828e613c95565b90506000614753613eb9670de0b6b3a76400008a613c95565b9050613ed982613c1e670de0b6b3a764000084613c95565b6000808061478886600360200201518760015b602002015161452b565b9050600061479d876002602002015187613c95565b905060006147b288600260200201518361452b565b905060006147c08285614ccc565b90506147d481670de0b6b3a7640000613c95565b9050600080546147e261271d565b6001546147ef9190615919565b6147f99190615919565b8a5190915061481e9061480c9084613af6565b613c1e670de0b6b3a764000084613c95565b9650600061483e886142258a6109ab670de0b6b3a764000061422561271d565b6001600160a01b038a166000908152600560205260409020549091506148649082614643565b600560008b6001600160a01b03166001600160a01b031681526020019081526020016000208190555060006148ab896142258b6109ab670de0b6b3a7640000600054613c95565b6001600160a01b038b166000908152600660205260409020549091506148d19082614643565b6001600160a01b038b166000908152600660205260409020558b5161490e906148fa9086613af6565b613c1e670de0b6b3a7640000600154613c95565b97507f90d9f1d0641138b6407ac37bea3a905d63a371c2d91a484f68d59924634d4ef361494d8a6142258c6109ab670de0b6b3a7640000600154613c95565b604080519182526020820185905281018390526001600160a01b038c16606082015260800160405180910390a150505050505050935093915050565b600080806149a0866001602002015187600361477e565b905060006149c086614225886109ab670de0b6b3a764000061422561271d565b6001600160a01b0386166000908152600560205260409020549091506149e69082614643565b60056000876001600160a01b03166001600160a01b03168152602001908152602001600020819055506000614a2d87614225896109ab670de0b6b3a7640000600054613c95565b6001600160a01b038716600090815260066020526040902054909150614a539082614643565b6001600160a01b0387166000908152600660205260408120919091558054614a7961271d565b600154614a869190615919565b614a909190615919565b90507f90d9f1d0641138b6407ac37bea3a905d63a371c2d91a484f68d59924634d4ef3614acf896142258b6109ab670de0b6b3a7640000600154613c95565b604080519182526020820186905281018490526001600160a01b038916606082015260800160405180910390a16000614b10670de0b6b3a764000083613c95565b9050614b1c8982613af6565b8a51909150600090614b3290613c1e8185614643565b90506000614b408288614ccc565b90506000614b56670de0b6b3a764000083613c95565b9050614b698d6002602002015182613af6565b995089614b7a8d614225898b615919565b995099505050505050505050935093915050565b600c805462010000600160b01b031916620100006001600160a01b038a81169190910291909117909155600280546001600160a01b031916918816919091179055845160009086908290614be457614be4615a11565b602002602001015160018190555085600181518110614c0557614c05615a11565b602090810291909101810151600055600c8054961515600160b01b0260ff60b01b199097169690961795869055600e80548551600380546001600160a01b039283166001600160a01b03199182161790915596840151600480549183169189169190911790558551600d805491831691891691909117905594909201518416951515600160a01b908102959095166001600160a81b0319928316179590951790945550601280549093166201000090940416929092178217908190550460ff169392505050565b60006001831015614d175760405162461bcd60e51b81526020600482015260156024820152744552525f42504f575f424153455f544f4f5f4c4f5760581b60448201526064016108f3565b6001614d2c670de0b6b3a76400006002615945565b614d369190615964565b831115614d7e5760405162461bcd60e51b815260206004820152601660248201527508aa4a4be84a09eaebe8482a68abea89e9ebe90928e960531b60448201526064016108f3565b6000614d89836151f1565b90506000614d978483613c95565b90506000614dad86614da88561520f565b615223565b905081614dbe579250610f56915050565b6000614de18784614ddc6402540be400670de0b6b3a7640000615931565b615297565b9050614ded8282613af6565b979650505050505050565b600080828410614e1757614e0c8385615964565b600091509150614e28565b614e218484615964565b6001915091505b9250929050565b613865823083614236565b30600090815260076020526040902054811115614e905760405162461bcd60e51b815260206004820152601460248201527311549497d25394d551919250d251539517d0905360621b60448201526064016108f3565b30600090815260076020526040902054614eaa9082613c95565b30600090815260076020526040902055600954614ec79082613c95565b60095560405181815260009030907fddf252ad1be2c89b69c2b068fc378daa952ba7f163c4a11628f55a4df523b3ef906020015b60405180910390a350565b613865308383614236565b80516a636f6e736f6c652e6c6f67602083016000808483855afa5050505050565b670de0b6b3a7640000811015614f7b5760405162461bcd60e51b815260206004820152600e60248201526d11549497d3525397d5d15251d21560921b60448201526064016108f3565b614f8e670de0b6b3a76400006032615945565b811115614fce5760405162461bcd60e51b815260206004820152600e60248201526d11549497d3505617d5d15251d21560921b60448201526064016108f3565b614fe564e8d4a51000670de0b6b3a7640000615931565b8210156150265760405162461bcd60e51b815260206004820152600f60248201526e4552525f4d494e5f42414c414e434560881b60448201526064016108f3565b6001600160a01b038316600090815260106020526040902060020154808211156150c25761505f60115461505a8484613c95565b614643565b601155615075670de0b6b3a76400006032615945565b60115411156150bd5760405162461bcd60e51b815260206004820152601460248201527311549497d3505617d513d5105317d5d15251d21560621b60448201526064016108f3565b6150de565b808210156150de576150da6011546142258385613c95565b6011555b6001600160a01b0384166000908152601060205260409020600281018390556003018054908490558084111561512757615122853361511d8785613c95565b614695565b61517b565b8084101561517b57600061513b8286613c95565b9050600061514a826000613af6565b9050615160873361515b8585613c95565b613d12565b6002546151789088906001600160a01b031683613d12565b50505b5050505050565b3060009081526007602052604090205461519c9082614643565b306000908152600760205260409020556009546151b99082614643565b60095560405181815230906000907fddf252ad1be2c89b69c2b068fc378daa952ba7f163c4a11628f55a4df523b3ef90602001614efb565b6000670de0b6b3a76400006152058361520f565b610f569190615945565b6000610f56670de0b6b3a764000083615931565b600082816152326002856159d1565b61524457670de0b6b3a7640000615246565b815b9050615253600285615931565b93505b8315611675576152668283613af6565b91506152736002856159d1565b15615285576152828183613af6565b90505b615290600285615931565b9350615256565b60008281806152ae87670de0b6b3a7640000614df8565b9092509050670de0b6b3a764000080600060015b8884106153785760006152dd670de0b6b3a764000083615945565b90506000806152fd8a6152f885670de0b6b3a7640000613c95565b614df8565b9150915061530f876109ab848c613af6565b965061531b878461452b565b96508661532a57505050615378565b8715615334579315935b801561533e579315935b84156153555761534e8688613c95565b9550615362565b61535f8688614643565b95505b5050508080615370906159b6565b9150506152c2565b50909998505050505050505050565b80356001600160a01b0381168114612f9257600080fd5b8060408101831015610f5657600080fd5b60008083601f8401126153c157600080fd5b50813567ffffffffffffffff8111156153d957600080fd5b6020830191508360208260051b8501011115614e2857600080fd5b60006020828403121561540657600080fd5b61370882615387565b6000806040838503121561542257600080fd5b61542b83615387565b915061543960208401615387565b90509250929050565b600080600080600080600080610120898b03121561545f57600080fd5b61546889615387565b975061547660208a01615387565b9650604089013567ffffffffffffffff81111561549257600080fd5b61549e8b828c016153af565b90975095505060608901356154b281615a27565b935060808901356154c281615a27565b92506154d18a60a08b0161539e565b91506154e08a60e08b0161539e565b90509295985092959890939650565b60008060006060848603121561550457600080fd5b61550d84615387565b925061551b60208501615387565b9150604084013590509250925092565b6000806040838503121561553e57600080fd5b61554783615387565b946020939093013593505050565b600080600080600060a0868803121561556d57600080fd5b61557686615387565b94506020860135935061558b60408701615387565b94979396509394606081013594506080013592915050565b6000806000606084860312156155b857600080fd5b6155c184615387565b95602085013595506040909401359392505050565b60008060008060008060c087890312156155ef57600080fd5b6155f887615387565b9550602087013594506040870135935061561460608801615387565b92506080870135915060a087013590509295509295509295565b60006020828403121561564057600080fd5b815161370881615a27565b60006020828403121561565d57600080fd5b5035919050565b60006020828403121561567657600080fd5b5051919050565b60008060006040848603121561569257600080fd5b83359250602084013567ffffffffffffffff8111156156b057600080fd5b6156bc868287016153af565b9497909650939450505050565b6000815180845260005b818110156156ef576020818501810151868301820152016156d3565b81811115615701576000602083870101525b50601f01601f19169290920160200192915050565b6001600160a01b039384168152919092166020820152604081019190915260600190565b6001600160a01b0383168152604060208201819052600090611675908301846156c9565b6020808252825182820181905260009190848201906040850190845b8181101561579f5783516001600160a01b03168352928401929184019160010161577a565b50909695505050505050565b60208152600061370860208301846156c9565b60208082526010908201526f4552525f4d41585f494e5f524154494f60801b604082015260600190565b6020808252600f908201526e08aa4a4be9a82a890be82a0a0a49eb608b1b604082015260600190565b6020808252600d908201526c11549497d31253525517d3d555609a1b604082015260600190565b6020808252600c908201526b22a9292fa624a6a4aa2fa4a760a11b604082015260600190565b6020808252600b908201526a4552525f5245454e54525960a81b604082015260600190565b6020808252601190820152704552525f4d41585f4f55545f524154494f60781b604082015260600190565b6020808252600d908201526c11549497d393d517d093d55391609a1b604082015260600190565b60208082526011908201527011549497d393d517d19253905312569151607a1b604082015260600190565b82815260406020820152600061167560408301846156c9565b6000821982111561592c5761592c6159e5565b500190565b600082615940576159406159fb565b500490565b600081600019048311821515161561595f5761595f6159e5565b500290565b600082821015615976576159766159e5565b500390565b600181811c9082168061598f57607f821691505b602082108114156159b057634e487b7160e01b600052602260045260246000fd5b50919050565b60006000198214156159ca576159ca6159e5565b5060010190565b6000826159e0576159e06159fb565b500690565b634e487b7160e01b600052601160045260246000fd5b634e487b7160e01b600052601260045260246000fd5b634e487b7160e01b600052603260045260246000fd5b8015158114613d0557600080fdfe9d9058fd2f25ccc389fec7720abef0ca83472f5abfafd5f10d37f51e6a0493f3fcda32798d5a9d032f49b37fea876d422f18f6e386e0f07db6029b693624b2c215a8ca63e37b2cff1677df2b6b82d36fcf8a524228bd7a4b4d02d107c28c1e8a8c5be1e5ebec7d5bd14f71427d1e84f3dd0314c0f7b2291e5b200ac8c7c3b925a2646970667358221220d531cb9c74f0144b7efafcd4c95fb4a3e8aaf2177b64aa93c073c82342e695a564736f6c63430008070033",
  "linkReferences": {},
  "deployedLinkReferences": {}
}