{
  "_format": "hh-sol-artifact-1",
  "contractName": "BPool",
  "sourceName": "contracts/pools/balancer/BPool.sol",
  "abi": [
    {
      "anonymous": false,
      "inputs": [
        {
          "indexed": true,
          "internalType": "address",
          "name": "src",
          "type": "address"
        },
        {
          "indexed": true,
          "internalType": "address",
          "name": "dst",
          "type": "address"
        },
        {
          "indexed": false,
          "internalType": "uint256",
          "name": "amt",
          "type": "uint256"
        }
      ],
      "name": "Approval",
      "type": "event"
    },
    {
      "anonymous": false,
      "inputs": [
        {
          "indexed": false,
          "internalType": "address",
          "name": "to",
          "type": "address"
        },
        {
          "indexed": false,
          "internalType": "address",
          "name": "token",
          "type": "address"
        },
        {
          "indexed": false,
          "internalType": "uint256",
          "name": "amount",
          "type": "uint256"
        }
      ],
      "name": "ConsumeMarketFee",
      "type": "event"
    },
    {
      "anonymous": false,
      "inputs": [
        {
          "indexed": false,
          "internalType": "uint256",
          "name": "bptAmount",
          "type": "uint256"
        }
      ],
      "name": "LOG_BPT",
      "type": "event"
    },
    {
      "anonymous": false,
      "inputs": [
        {
          "indexed": false,
          "internalType": "uint256",
          "name": "bptAmount",
          "type": "uint256"
        }
      ],
      "name": "LOG_BPT_SS",
      "type": "event"
    },
    {
      "anonymous": false,
      "inputs": [
        {
          "indexed": true,
          "internalType": "bytes4",
          "name": "sig",
          "type": "bytes4"
        },
        {
          "indexed": true,
          "internalType": "address",
          "name": "caller",
          "type": "address"
        },
        {
          "indexed": false,
          "internalType": "uint256",
          "name": "timestamp",
          "type": "uint256"
        },
        {
          "indexed": false,
          "internalType": "bytes",
          "name": "data",
          "type": "bytes"
        }
      ],
      "name": "LOG_CALL",
      "type": "event"
    },
    {
      "anonymous": false,
      "inputs": [
        {
          "indexed": true,
          "internalType": "address",
          "name": "caller",
          "type": "address"
        },
        {
          "indexed": true,
          "internalType": "address",
          "name": "tokenOut",
          "type": "address"
        },
        {
          "indexed": false,
          "internalType": "uint256",
          "name": "tokenAmountOut",
          "type": "uint256"
        },
        {
          "indexed": false,
          "internalType": "uint256",
          "name": "timestamp",
          "type": "uint256"
        }
      ],
      "name": "LOG_EXIT",
      "type": "event"
    },
    {
      "anonymous": false,
      "inputs": [
        {
          "indexed": true,
          "internalType": "address",
          "name": "caller",
          "type": "address"
        },
        {
          "indexed": true,
          "internalType": "address",
          "name": "tokenIn",
          "type": "address"
        },
        {
          "indexed": false,
          "internalType": "uint256",
          "name": "tokenAmountIn",
          "type": "uint256"
        },
        {
          "indexed": false,
          "internalType": "uint256",
          "name": "timestamp",
          "type": "uint256"
        }
      ],
      "name": "LOG_JOIN",
      "type": "event"
    },
    {
      "anonymous": false,
      "inputs": [
        {
          "indexed": true,
          "internalType": "address",
          "name": "caller",
          "type": "address"
        },
        {
          "indexed": true,
          "internalType": "address",
          "name": "baseToken",
          "type": "address"
        },
        {
          "indexed": false,
          "internalType": "uint256",
          "name": "baseTokenAmountIn",
          "type": "uint256"
        },
        {
          "indexed": false,
          "internalType": "uint256",
          "name": "baseTokenWeight",
          "type": "uint256"
        },
        {
          "indexed": true,
          "internalType": "address",
          "name": "datatoken",
          "type": "address"
        },
        {
          "indexed": false,
          "internalType": "uint256",
          "name": "datatokenAmountIn",
          "type": "uint256"
        },
        {
          "indexed": false,
          "internalType": "uint256",
          "name": "datatokenWeight",
          "type": "uint256"
        }
      ],
      "name": "LOG_SETUP",
      "type": "event"
    },
    {
      "anonymous": false,
      "inputs": [
        {
          "indexed": true,
          "internalType": "address",
          "name": "caller",
          "type": "address"
        },
        {
          "indexed": true,
          "internalType": "address",
          "name": "tokenIn",
          "type": "address"
        },
        {
          "indexed": true,
          "internalType": "address",
          "name": "tokenOut",
          "type": "address"
        },
        {
          "indexed": false,
          "internalType": "uint256",
          "name": "tokenAmountIn",
          "type": "uint256"
        },
        {
          "indexed": false,
          "internalType": "uint256",
          "name": "tokenAmountOut",
          "type": "uint256"
        },
        {
          "indexed": false,
          "internalType": "uint256",
          "name": "timestamp",
          "type": "uint256"
        }
      ],
      "name": "LOG_SWAP",
      "type": "event"
    },
    {
      "anonymous": false,
      "inputs": [
        {
          "indexed": false,
          "internalType": "address",
          "name": "caller",
          "type": "address"
        },
        {
          "indexed": false,
          "internalType": "address",
          "name": "OPCWallet",
          "type": "address"
        },
        {
          "indexed": false,
          "internalType": "address",
          "name": "token",
          "type": "address"
        },
        {
          "indexed": false,
          "internalType": "uint256",
          "name": "amount",
          "type": "uint256"
        }
      ],
      "name": "OPCFee",
      "type": "event"
    },
    {
      "anonymous": false,
      "inputs": [
        {
          "indexed": false,
          "internalType": "address",
          "name": "caller",
          "type": "address"
        },
        {
          "indexed": false,
          "internalType": "address",
          "name": "marketAddress",
          "type": "address"
        },
        {
          "indexed": false,
          "internalType": "address",
          "name": "token",
          "type": "address"
        },
        {
          "indexed": false,
          "internalType": "uint256",
          "name": "amount",
          "type": "uint256"
        }
      ],
      "name": "PublishMarketFee",
      "type": "event"
    },
    {
      "anonymous": false,
      "inputs": [
        {
          "indexed": false,
          "internalType": "address",
          "name": "caller",
          "type": "address"
        },
        {
          "indexed": false,
          "internalType": "address",
          "name": "newMarketCollector",
          "type": "address"
        },
        {
          "indexed": false,
          "internalType": "uint256",
          "name": "swapFee",
          "type": "uint256"
        }
      ],
      "name": "PublishMarketFeeChanged",
      "type": "event"
    },
    {
      "anonymous": false,
      "inputs": [
        {
          "indexed": false,
          "internalType": "uint256",
          "name": "LPFeeAmount",
          "type": "uint256"
        },
        {
          "indexed": false,
          "internalType": "uint256",
          "name": "oceanFeeAmount",
          "type": "uint256"
        },
        {
          "indexed": false,
          "internalType": "uint256",
          "name": "marketFeeAmount",
          "type": "uint256"
        },
        {
          "indexed": false,
          "internalType": "uint256",
          "name": "consumeMarketFeeAmount",
          "type": "uint256"
        },
        {
          "indexed": false,
          "internalType": "address",
          "name": "tokenFeeAddress",
          "type": "address"
        }
      ],
      "name": "SWAP_FEES",
      "type": "event"
    },
    {
      "anonymous": false,
      "inputs": [
        {
          "indexed": false,
          "internalType": "address",
          "name": "caller",
          "type": "address"
        },
        {
          "indexed": false,
          "internalType": "uint256",
          "name": "amount",
          "type": "uint256"
        }
      ],
      "name": "SwapFeeChanged",
      "type": "event"
    },
    {
      "anonymous": false,
      "inputs": [
        {
          "indexed": true,
          "internalType": "address",
          "name": "src",
          "type": "address"
        },
        {
          "indexed": true,
          "internalType": "address",
          "name": "dst",
          "type": "address"
        },
        {
          "indexed": false,
          "internalType": "uint256",
          "name": "amt",
          "type": "uint256"
        }
      ],
      "name": "Transfer",
      "type": "event"
    },
    {
      "inputs": [],
      "name": "BONE",
      "outputs": [
        {
          "internalType": "uint256",
          "name": "",
          "type": "uint256"
        }
      ],
      "stateMutability": "view",
      "type": "function"
    },
    {
      "inputs": [],
      "name": "BPOW_PRECISION",
      "outputs": [
        {
          "internalType": "uint256",
          "name": "",
          "type": "uint256"
        }
      ],
      "stateMutability": "view",
      "type": "function"
    },
    {
      "inputs": [],
      "name": "EXIT_FEE",
      "outputs": [
        {
          "internalType": "uint256",
          "name": "",
          "type": "uint256"
        }
      ],
      "stateMutability": "view",
      "type": "function"
    },
    {
      "inputs": [],
      "name": "INIT_POOL_SUPPLY",
      "outputs": [
        {
          "internalType": "uint256",
          "name": "",
          "type": "uint256"
        }
      ],
      "stateMutability": "view",
      "type": "function"
    },
    {
      "inputs": [],
      "name": "MAX_BOUND_TOKENS",
      "outputs": [
        {
          "internalType": "uint256",
          "name": "",
          "type": "uint256"
        }
      ],
      "stateMutability": "view",
      "type": "function"
    },
    {
      "inputs": [],
      "name": "MAX_BPOW_BASE",
      "outputs": [
        {
          "internalType": "uint256",
          "name": "",
          "type": "uint256"
        }
      ],
      "stateMutability": "view",
      "type": "function"
    },
    {
      "inputs": [],
      "name": "MAX_FEE",
      "outputs": [
        {
          "internalType": "uint256",
          "name": "",
          "type": "uint256"
        }
      ],
      "stateMutability": "view",
      "type": "function"
    },
    {
      "inputs": [],
      "name": "MAX_IN_RATIO",
      "outputs": [
        {
          "internalType": "uint256",
          "name": "",
          "type": "uint256"
        }
      ],
      "stateMutability": "view",
      "type": "function"
    },
    {
      "inputs": [],
      "name": "MAX_OUT_RATIO",
      "outputs": [
        {
          "internalType": "uint256",
          "name": "",
          "type": "uint256"
        }
      ],
      "stateMutability": "view",
      "type": "function"
    },
    {
      "inputs": [],
      "name": "MAX_TOTAL_WEIGHT",
      "outputs": [
        {
          "internalType": "uint256",
          "name": "",
          "type": "uint256"
        }
      ],
      "stateMutability": "view",
      "type": "function"
    },
    {
      "inputs": [],
      "name": "MAX_WEIGHT",
      "outputs": [
        {
          "internalType": "uint256",
          "name": "",
          "type": "uint256"
        }
      ],
      "stateMutability": "view",
      "type": "function"
    },
    {
      "inputs": [],
      "name": "MIN_BALANCE",
      "outputs": [
        {
          "internalType": "uint256",
          "name": "",
          "type": "uint256"
        }
      ],
      "stateMutability": "view",
      "type": "function"
    },
    {
      "inputs": [],
      "name": "MIN_BOUND_TOKENS",
      "outputs": [
        {
          "internalType": "uint256",
          "name": "",
          "type": "uint256"
        }
      ],
      "stateMutability": "view",
      "type": "function"
    },
    {
      "inputs": [],
      "name": "MIN_BPOW_BASE",
      "outputs": [
        {
          "internalType": "uint256",
          "name": "",
          "type": "uint256"
        }
      ],
      "stateMutability": "view",
      "type": "function"
    },
    {
      "inputs": [],
      "name": "MIN_FEE",
      "outputs": [
        {
          "internalType": "uint256",
          "name": "",
          "type": "uint256"
        }
      ],
      "stateMutability": "view",
      "type": "function"
    },
    {
      "inputs": [],
      "name": "MIN_WEIGHT",
      "outputs": [
        {
          "internalType": "uint256",
          "name": "",
          "type": "uint256"
        }
      ],
      "stateMutability": "view",
      "type": "function"
    },
    {
      "inputs": [],
      "name": "_opcCollector",
      "outputs": [
        {
          "internalType": "address",
          "name": "",
          "type": "address"
        }
      ],
      "stateMutability": "view",
      "type": "function"
    },
    {
      "inputs": [],
      "name": "_publishMarketCollector",
      "outputs": [
        {
          "internalType": "address",
          "name": "",
          "type": "address"
        }
      ],
      "stateMutability": "view",
      "type": "function"
    },
    {
      "inputs": [],
      "name": "_swapPublishMarketFee",
      "outputs": [
        {
          "internalType": "uint256",
          "name": "",
          "type": "uint256"
        }
      ],
      "stateMutability": "view",
      "type": "function"
    },
    {
      "inputs": [
        {
          "internalType": "address",
          "name": "src",
          "type": "address"
        },
        {
          "internalType": "address",
          "name": "dst",
          "type": "address"
        }
      ],
      "name": "allowance",
      "outputs": [
        {
          "internalType": "uint256",
          "name": "",
          "type": "uint256"
        }
      ],
      "stateMutability": "view",
      "type": "function"
    },
    {
      "inputs": [
        {
          "internalType": "address",
          "name": "dst",
          "type": "address"
        },
        {
          "internalType": "uint256",
          "name": "amt",
          "type": "uint256"
        }
      ],
      "name": "approve",
      "outputs": [
        {
          "internalType": "bool",
          "name": "",
          "type": "bool"
        }
      ],
      "stateMutability": "nonpayable",
      "type": "function"
    },
    {
      "inputs": [
        {
          "internalType": "address",
          "name": "whom",
          "type": "address"
        }
      ],
      "name": "balanceOf",
      "outputs": [
        {
          "internalType": "uint256",
          "name": "",
          "type": "uint256"
        }
      ],
      "stateMutability": "view",
      "type": "function"
    },
    {
      "inputs": [
        {
          "internalType": "uint256[4]",
          "name": "data",
          "type": "uint256[4]"
        },
        {
          "internalType": "uint256",
          "name": "tokenAmountOut",
          "type": "uint256"
        },
        {
          "internalType": "uint256",
          "name": "_consumeMarketSwapFee",
          "type": "uint256"
        }
      ],
      "name": "calcInGivenOut",
      "outputs": [
        {
          "internalType": "uint256",
          "name": "tokenAmountIn",
          "type": "uint256"
        },
        {
          "internalType": "uint256",
          "name": "tokenAmountInBalance",
          "type": "uint256"
        },
        {
          "components": [
            {
              "internalType": "uint256",
              "name": "LPFee",
              "type": "uint256"
            },
            {
              "internalType": "uint256",
              "name": "oceanFeeAmount",
              "type": "uint256"
            },
            {
              "internalType": "uint256",
              "name": "publishMarketFeeAmount",
              "type": "uint256"
            },
            {
              "internalType": "uint256",
              "name": "consumeMarketFee",
              "type": "uint256"
            }
          ],
          "internalType": "struct BMath.swapfees",
          "name": "_swapfees",
          "type": "tuple"
        }
      ],
      "stateMutability": "view",
      "type": "function"
    },
    {
      "inputs": [
        {
          "internalType": "uint256[4]",
          "name": "data",
          "type": "uint256[4]"
        },
        {
          "internalType": "uint256",
          "name": "tokenAmountIn",
          "type": "uint256"
        },
        {
          "internalType": "uint256",
          "name": "_consumeMarketSwapFee",
          "type": "uint256"
        }
      ],
      "name": "calcOutGivenIn",
      "outputs": [
        {
          "internalType": "uint256",
          "name": "tokenAmountOut",
          "type": "uint256"
        },
        {
          "internalType": "uint256",
          "name": "balanceInToAdd",
          "type": "uint256"
        },
        {
          "components": [
            {
              "internalType": "uint256",
              "name": "LPFee",
              "type": "uint256"
            },
            {
              "internalType": "uint256",
              "name": "oceanFeeAmount",
              "type": "uint256"
            },
            {
              "internalType": "uint256",
              "name": "publishMarketFeeAmount",
              "type": "uint256"
            },
            {
              "internalType": "uint256",
              "name": "consumeMarketFee",
              "type": "uint256"
            }
          ],
          "internalType": "struct BMath.swapfees",
          "name": "_swapfees",
          "type": "tuple"
        }
      ],
      "stateMutability": "view",
      "type": "function"
    },
    {
      "inputs": [
        {
          "internalType": "address",
          "name": "tokenOut",
          "type": "address"
        },
        {
          "internalType": "uint256",
          "name": "tokenAmountOut",
          "type": "uint256"
        }
      ],
      "name": "calcPoolInSingleOut",
      "outputs": [
        {
          "internalType": "uint256",
          "name": "poolAmountIn",
          "type": "uint256"
        }
      ],
      "stateMutability": "view",
      "type": "function"
    },
    {
      "inputs": [
        {
          "internalType": "address",
          "name": "tokenIn",
          "type": "address"
        },
        {
          "internalType": "uint256",
          "name": "tokenAmountIn",
          "type": "uint256"
        }
      ],
      "name": "calcPoolOutSingleIn",
      "outputs": [
        {
          "internalType": "uint256",
          "name": "poolAmountOut",
          "type": "uint256"
        }
      ],
      "stateMutability": "view",
      "type": "function"
    },
    {
      "inputs": [
        {
          "internalType": "address",
          "name": "tokenIn",
          "type": "address"
        },
        {
          "internalType": "uint256",
          "name": "poolAmountOut",
          "type": "uint256"
        }
      ],
      "name": "calcSingleInPoolOut",
      "outputs": [
        {
          "internalType": "uint256",
          "name": "tokenAmountIn",
          "type": "uint256"
        }
      ],
      "stateMutability": "view",
      "type": "function"
    },
    {
      "inputs": [
        {
          "internalType": "address",
          "name": "tokenOut",
          "type": "address"
        },
        {
          "internalType": "uint256",
          "name": "poolAmountIn",
          "type": "uint256"
        }
      ],
      "name": "calcSingleOutPoolIn",
      "outputs": [
        {
          "internalType": "uint256",
          "name": "tokenAmountOut",
          "type": "uint256"
        }
      ],
      "stateMutability": "view",
      "type": "function"
    },
    {
      "inputs": [],
      "name": "collectMarketFee",
      "outputs": [],
      "stateMutability": "nonpayable",
      "type": "function"
    },
    {
      "inputs": [],
      "name": "collectOPC",
      "outputs": [],
      "stateMutability": "nonpayable",
      "type": "function"
    },
    {
      "inputs": [
        {
          "internalType": "address",
          "name": "",
          "type": "address"
        }
      ],
      "name": "communityFees",
      "outputs": [
        {
          "internalType": "uint256",
          "name": "",
          "type": "uint256"
        }
      ],
      "stateMutability": "view",
      "type": "function"
    },
    {
      "inputs": [],
      "name": "decimals",
      "outputs": [
        {
          "internalType": "uint8",
          "name": "",
          "type": "uint8"
        }
      ],
      "stateMutability": "view",
      "type": "function"
    },
    {
      "inputs": [
        {
          "internalType": "address",
          "name": "dst",
          "type": "address"
        },
        {
          "internalType": "uint256",
          "name": "amt",
          "type": "uint256"
        }
      ],
      "name": "decreaseApproval",
      "outputs": [
        {
          "internalType": "bool",
          "name": "",
          "type": "bool"
        }
      ],
      "stateMutability": "nonpayable",
      "type": "function"
    },
    {
      "inputs": [
        {
          "internalType": "uint256",
          "name": "poolAmountIn",
          "type": "uint256"
        },
        {
          "internalType": "uint256[]",
          "name": "minAmountsOut",
          "type": "uint256[]"
        }
      ],
      "name": "exitPool",
      "outputs": [],
      "stateMutability": "nonpayable",
      "type": "function"
    },
    {
      "inputs": [
        {
          "internalType": "uint256",
          "name": "poolAmountIn",
          "type": "uint256"
        },
        {
          "internalType": "uint256",
          "name": "minAmountOut",
          "type": "uint256"
        }
      ],
      "name": "exitswapPoolAmountIn",
      "outputs": [
        {
          "internalType": "uint256",
          "name": "tokenAmountOut",
          "type": "uint256"
        }
      ],
      "stateMutability": "nonpayable",
      "type": "function"
    },
    {
      "inputs": [
        {
          "internalType": "address",
          "name": "tokenIn",
          "type": "address"
        },
        {
          "internalType": "address",
          "name": "tokenOut",
          "type": "address"
        },
        {
          "internalType": "uint256",
          "name": "tokenAmountOut",
          "type": "uint256"
        },
        {
          "internalType": "uint256",
          "name": "_consumeMarketSwapFee",
          "type": "uint256"
        }
      ],
      "name": "getAmountInExactOut",
      "outputs": [
        {
          "internalType": "uint256",
          "name": "tokenAmountIn",
          "type": "uint256"
        },
        {
          "internalType": "uint256",
          "name": "lpFeeAmount",
          "type": "uint256"
        },
        {
          "internalType": "uint256",
          "name": "oceanFeeAmount",
          "type": "uint256"
        },
        {
          "internalType": "uint256",
          "name": "publishMarketSwapFeeAmount",
          "type": "uint256"
        },
        {
          "internalType": "uint256",
          "name": "consumeMarketSwapFeeAmount",
          "type": "uint256"
        }
      ],
      "stateMutability": "view",
      "type": "function"
    },
    {
      "inputs": [
        {
          "internalType": "address",
          "name": "tokenIn",
          "type": "address"
        },
        {
          "internalType": "address",
          "name": "tokenOut",
          "type": "address"
        },
        {
          "internalType": "uint256",
          "name": "tokenAmountIn",
          "type": "uint256"
        },
        {
          "internalType": "uint256",
          "name": "_consumeMarketSwapFee",
          "type": "uint256"
        }
      ],
      "name": "getAmountOutExactIn",
      "outputs": [
        {
          "internalType": "uint256",
          "name": "tokenAmountOut",
          "type": "uint256"
        },
        {
          "internalType": "uint256",
          "name": "lpFeeAmount",
          "type": "uint256"
        },
        {
          "internalType": "uint256",
          "name": "oceanFeeAmount",
          "type": "uint256"
        },
        {
          "internalType": "uint256",
          "name": "publishMarketSwapFeeAmount",
          "type": "uint256"
        },
        {
          "internalType": "uint256",
          "name": "consumeMarketSwapFeeAmount",
          "type": "uint256"
        }
      ],
      "stateMutability": "view",
      "type": "function"
    },
    {
      "inputs": [
        {
          "internalType": "address",
          "name": "token",
          "type": "address"
        }
      ],
      "name": "getBalance",
      "outputs": [
        {
          "internalType": "uint256",
          "name": "",
          "type": "uint256"
        }
      ],
      "stateMutability": "view",
      "type": "function"
    },
    {
      "inputs": [],
      "name": "getBaseTokenAddress",
      "outputs": [
        {
          "internalType": "address",
          "name": "",
          "type": "address"
        }
      ],
      "stateMutability": "view",
      "type": "function"
    },
    {
      "inputs": [],
      "name": "getController",
      "outputs": [
        {
          "internalType": "address",
          "name": "",
          "type": "address"
        }
      ],
      "stateMutability": "view",
      "type": "function"
    },
    {
      "inputs": [],
      "name": "getCurrentMarketFees",
      "outputs": [
        {
          "internalType": "address[]",
          "name": "",
          "type": "address[]"
        },
        {
          "internalType": "uint256[]",
          "name": "",
          "type": "uint256[]"
        }
      ],
      "stateMutability": "view",
      "type": "function"
    },
    {
      "inputs": [],
      "name": "getCurrentOPCFees",
      "outputs": [
        {
          "internalType": "address[]",
          "name": "",
          "type": "address[]"
        },
        {
          "internalType": "uint256[]",
          "name": "",
          "type": "uint256[]"
        }
      ],
      "stateMutability": "view",
      "type": "function"
    },
    {
      "inputs": [],
      "name": "getCurrentTokens",
      "outputs": [
        {
          "internalType": "address[]",
          "name": "tokens",
          "type": "address[]"
        }
      ],
      "stateMutability": "view",
      "type": "function"
    },
    {
      "inputs": [],
      "name": "getDatatokenAddress",
      "outputs": [
        {
          "internalType": "address",
          "name": "",
          "type": "address"
        }
      ],
      "stateMutability": "view",
      "type": "function"
    },
    {
      "inputs": [
        {
          "internalType": "address",
          "name": "token",
          "type": "address"
        }
      ],
      "name": "getDenormalizedWeight",
      "outputs": [
        {
          "internalType": "uint256",
          "name": "",
          "type": "uint256"
        }
      ],
      "stateMutability": "view",
      "type": "function"
    },
    {
      "inputs": [],
      "name": "getFinalTokens",
      "outputs": [
        {
          "internalType": "address[]",
          "name": "tokens",
          "type": "address[]"
        }
      ],
      "stateMutability": "view",
      "type": "function"
    },
    {
      "inputs": [],
      "name": "getId",
      "outputs": [
        {
          "internalType": "uint8",
          "name": "",
          "type": "uint8"
        }
      ],
      "stateMutability": "pure",
      "type": "function"
    },
    {
      "inputs": [],
      "name": "getMarketFee",
      "outputs": [
        {
          "internalType": "uint256",
          "name": "",
          "type": "uint256"
        }
      ],
      "stateMutability": "view",
      "type": "function"
    },
    {
      "inputs": [
        {
          "internalType": "address",
          "name": "token",
          "type": "address"
        }
      ],
      "name": "getNormalizedWeight",
      "outputs": [
        {
          "internalType": "uint256",
          "name": "",
          "type": "uint256"
        }
      ],
      "stateMutability": "view",
      "type": "function"
    },
    {
      "inputs": [],
      "name": "getNumTokens",
      "outputs": [
        {
          "internalType": "uint256",
          "name": "",
          "type": "uint256"
        }
      ],
      "stateMutability": "view",
      "type": "function"
    },
    {
      "inputs": [],
      "name": "getOPCFee",
      "outputs": [
        {
          "internalType": "uint256",
          "name": "",
          "type": "uint256"
        }
      ],
      "stateMutability": "view",
      "type": "function"
    },
    {
      "inputs": [
        {
          "internalType": "address",
          "name": "tokenIn",
          "type": "address"
        },
        {
          "internalType": "address",
          "name": "tokenOut",
          "type": "address"
        },
        {
          "internalType": "uint256",
          "name": "_consumeMarketSwapFee",
          "type": "uint256"
        }
      ],
      "name": "getSpotPrice",
      "outputs": [
        {
          "internalType": "uint256",
          "name": "spotPrice",
          "type": "uint256"
        }
      ],
      "stateMutability": "view",
      "type": "function"
    },
    {
      "inputs": [],
      "name": "getSwapFee",
      "outputs": [
        {
          "internalType": "uint256",
          "name": "",
          "type": "uint256"
        }
      ],
      "stateMutability": "view",
      "type": "function"
    },
    {
      "inputs": [],
      "name": "getTotalDenormalizedWeight",
      "outputs": [
        {
          "internalType": "uint256",
          "name": "",
          "type": "uint256"
        }
      ],
      "stateMutability": "view",
      "type": "function"
    },
    {
      "inputs": [
        {
          "internalType": "address",
          "name": "dst",
          "type": "address"
        },
        {
          "internalType": "uint256",
          "name": "amt",
          "type": "uint256"
        }
      ],
      "name": "increaseApproval",
      "outputs": [
        {
          "internalType": "bool",
          "name": "",
          "type": "bool"
        }
      ],
      "stateMutability": "nonpayable",
      "type": "function"
    },
    {
      "inputs": [
        {
          "internalType": "address",
          "name": "controller",
          "type": "address"
        },
        {
          "internalType": "address",
          "name": "factory",
          "type": "address"
        },
        {
          "internalType": "uint256[]",
          "name": "swapFees",
          "type": "uint256[]"
        },
        {
          "internalType": "bool",
          "name": "publicSwap",
          "type": "bool"
        },
        {
          "internalType": "bool",
          "name": "finalized",
          "type": "bool"
        },
        {
          "internalType": "address[2]",
          "name": "tokens",
          "type": "address[2]"
        },
        {
          "internalType": "address[2]",
          "name": "feeCollectors",
          "type": "address[2]"
        }
      ],
      "name": "initialize",
      "outputs": [
        {
          "internalType": "bool",
          "name": "",
          "type": "bool"
        }
      ],
      "stateMutability": "nonpayable",
      "type": "function"
    },
    {
      "inputs": [
        {
          "internalType": "address",
          "name": "t",
          "type": "address"
        }
      ],
      "name": "isBound",
      "outputs": [
        {
          "internalType": "bool",
          "name": "",
          "type": "bool"
        }
      ],
      "stateMutability": "view",
      "type": "function"
    },
    {
      "inputs": [],
      "name": "isFinalized",
      "outputs": [
        {
          "internalType": "bool",
          "name": "",
          "type": "bool"
        }
      ],
      "stateMutability": "view",
      "type": "function"
    },
    {
      "inputs": [],
      "name": "isInitialized",
      "outputs": [
        {
          "internalType": "bool",
          "name": "",
          "type": "bool"
        }
      ],
      "stateMutability": "view",
      "type": "function"
    },
    {
      "inputs": [],
      "name": "isPublicSwap",
      "outputs": [
        {
          "internalType": "bool",
          "name": "",
          "type": "bool"
        }
      ],
      "stateMutability": "view",
      "type": "function"
    },
    {
      "inputs": [
        {
          "internalType": "uint256",
          "name": "poolAmountOut",
          "type": "uint256"
        },
        {
          "internalType": "uint256[]",
          "name": "maxAmountsIn",
          "type": "uint256[]"
        }
      ],
      "name": "joinPool",
      "outputs": [],
      "stateMutability": "nonpayable",
      "type": "function"
    },
    {
      "inputs": [
        {
          "internalType": "uint256",
          "name": "tokenAmountIn",
          "type": "uint256"
        },
        {
          "internalType": "uint256",
          "name": "minPoolAmountOut",
          "type": "uint256"
        }
      ],
      "name": "joinswapExternAmountIn",
      "outputs": [
        {
          "internalType": "uint256",
          "name": "poolAmountOut",
          "type": "uint256"
        }
      ],
      "stateMutability": "nonpayable",
      "type": "function"
    },
    {
      "inputs": [],
      "name": "name",
      "outputs": [
        {
          "internalType": "string",
          "name": "",
          "type": "string"
        }
      ],
      "stateMutability": "view",
      "type": "function"
    },
    {
      "inputs": [
        {
          "internalType": "address",
          "name": "",
          "type": "address"
        }
      ],
      "name": "publishMarketFees",
      "outputs": [
        {
          "internalType": "uint256",
          "name": "",
          "type": "uint256"
        }
      ],
      "stateMutability": "view",
      "type": "function"
    },
    {
      "inputs": [
        {
          "internalType": "uint256",
          "name": "swapFee",
          "type": "uint256"
        }
      ],
      "name": "setSwapFee",
      "outputs": [],
      "stateMutability": "nonpayable",
      "type": "function"
    },
    {
      "inputs": [
        {
          "internalType": "address",
          "name": "datatokenAddress",
          "type": "address"
        },
        {
          "internalType": "uint256",
          "name": "datatokenAmount",
          "type": "uint256"
        },
        {
          "internalType": "uint256",
          "name": "datatokenWeight",
          "type": "uint256"
        },
        {
          "internalType": "address",
          "name": "baseTokenAddress",
          "type": "address"
        },
        {
          "internalType": "uint256",
          "name": "baseTokenAmount",
          "type": "uint256"
        },
        {
          "internalType": "uint256",
          "name": "baseTokenWeight",
          "type": "uint256"
        }
      ],
      "name": "setup",
      "outputs": [],
      "stateMutability": "nonpayable",
      "type": "function"
    },
    {
      "inputs": [
        {
          "internalType": "address[3]",
          "name": "tokenInOutMarket",
          "type": "address[3]"
        },
        {
          "internalType": "uint256[4]",
          "name": "amountsInOutMaxFee",
          "type": "uint256[4]"
        }
      ],
      "name": "swapExactAmountIn",
      "outputs": [
        {
          "internalType": "uint256",
          "name": "tokenAmountOut",
          "type": "uint256"
        },
        {
          "internalType": "uint256",
          "name": "spotPriceAfter",
          "type": "uint256"
        }
      ],
      "stateMutability": "nonpayable",
      "type": "function"
    },
    {
      "inputs": [
        {
          "internalType": "address[3]",
          "name": "tokenInOutMarket",
          "type": "address[3]"
        },
        {
          "internalType": "uint256[4]",
          "name": "amountsInOutMaxFee",
          "type": "uint256[4]"
        }
      ],
      "name": "swapExactAmountOut",
      "outputs": [
        {
          "internalType": "uint256",
          "name": "tokenAmountIn",
          "type": "uint256"
        },
        {
          "internalType": "uint256",
          "name": "spotPriceAfter",
          "type": "uint256"
        }
      ],
      "stateMutability": "nonpayable",
      "type": "function"
    },
    {
      "inputs": [],
      "name": "symbol",
      "outputs": [
        {
          "internalType": "string",
          "name": "",
          "type": "string"
        }
      ],
      "stateMutability": "view",
      "type": "function"
    },
    {
      "inputs": [],
      "name": "totalSupply",
      "outputs": [
        {
          "internalType": "uint256",
          "name": "",
          "type": "uint256"
        }
      ],
      "stateMutability": "view",
      "type": "function"
    },
    {
      "inputs": [
        {
          "internalType": "address",
          "name": "dst",
          "type": "address"
        },
        {
          "internalType": "uint256",
          "name": "amt",
          "type": "uint256"
        }
      ],
      "name": "transfer",
      "outputs": [
        {
          "internalType": "bool",
          "name": "",
          "type": "bool"
        }
      ],
      "stateMutability": "nonpayable",
      "type": "function"
    },
    {
      "inputs": [
        {
          "internalType": "address",
          "name": "src",
          "type": "address"
        },
        {
          "internalType": "address",
          "name": "dst",
          "type": "address"
        },
        {
          "internalType": "uint256",
          "name": "amt",
          "type": "uint256"
        }
      ],
      "name": "transferFrom",
      "outputs": [
        {
          "internalType": "bool",
          "name": "",
          "type": "bool"
        }
      ],
      "stateMutability": "nonpayable",
      "type": "function"
    },
    {
      "inputs": [
        {
          "internalType": "address",
          "name": "_newCollector",
          "type": "address"
        },
        {
          "internalType": "uint256",
          "name": "_newSwapFee",
          "type": "uint256"
        }
      ],
      "name": "updatePublishMarketFee",
      "outputs": [],
      "stateMutability": "nonpayable",
      "type": "function"
    }
  ],
  "bytecode": "0x60c0604052601360808190527f42616c616e63657220506f6f6c20546f6b656e0000000000000000000000000060a09081526200004091600a91906200008f565b506040805180820190915260038082526210941560ea1b60209092019182526200006d91600b916200008f565b50600c805460ff191660121790553480156200008857600080fd5b5062000172565b8280546200009d9062000135565b90600052602060002090601f016020900481019282620000c157600085556200010c565b82601f10620000dc57805160ff19168380011785556200010c565b828001600101855582156200010c579182015b828111156200010c578251825591602001919060010190620000ef565b506200011a9291506200011e565b5090565b5b808211156200011a57600081556001016200011f565b600181811c908216806200014a57607f821691505b602082108114156200016c57634e487b7160e01b600052602260045260246000fd5b50919050565b615dc080620001826000396000f3fe608060405234801561001057600080fd5b50600436106104335760003560e01c8063867378c511610236578063bf7db2361161013b578063cd2ed8fb116100c3578063ec09302111610087578063ec0930211461092e578063f1b8a9b714610936578063f8b2cb4f14610949578063fde924f71461095c578063ff9b18501461096e57600080fd5b8063cd2ed8fb146108d2578063d4cadf68146108da578063d73dd623146108e2578063dd62ed3e146108f5578063e4a28a521461049a57600080fd5b8063c44a42831161010a578063c44a428314610894578063c6580d121461089c578063c98a59cf146108a4578063caa01148146108b7578063cc77828d146108ca57600080fd5b8063bf7db23614610843578063c070a6d814610859578063c36596a6146104ed578063c421a3fc1461086c57600080fd5b8063a9059cbb116101be578063b7b800a41161018d578063b7b800a41461080e578063ba019dab14610816578063bc063e1a1461081e578063bc694ea214610826578063be3bbd2e1461082e57600080fd5b8063a9059cbb146107e0578063ab77a2de146107f3578063b02f0b73146107fb578063b0e0d1361461080e57600080fd5b80639381cd2b116102055780639381cd2b146107a2578063948d8ce6146107aa57806395d89b41146107bd578063992e2a92146107c5578063a3b3a16d146107cd57600080fd5b8063867378c51461076d578063892cdf9e146107755780638d4e408314610788578063936c34771461079a57600080fd5b8063392e53cd1161033c5780635e123add116102c457806376c7a3c71161029357806376c7a3c7146107215780637a284be4146107295780637c5918b31461073257806380ca7308146107525780638329ab331461075a57600080fd5b80635e123add146106ca578063638c9e95146106d257806366188463146106e557806370a08231146106f857600080fd5b80634df947d01161030b5780634df947d01461063e5780634f69c0d41461064f57806351705cd0146106625780635c3f1532146106b05780635d1ca631146106c357600080fd5b8063392e53cd146105f55780633950b3fd14610607578063430ed5d01461061a578063458c3fb51461062d57600080fd5b8063218b5382116103bf5780632f37b6241161038e5780632f37b62414610552578063300621921461057e5780633018205f1461059e578063313ce567146105c957806334e19907146105e257600080fd5b8063218b5382146104ed57806323b872dd146104fc57806329b88a6a1461050f5780632eebd6ae1461051757600080fd5b806309ef3f5b1161040657806309ef3f5b146104a257806312989260146104b757806318160ddd146104ca578063189d00ca146104d257806318f9722a146104da57600080fd5b806306fdde0314610438578063079492d414610456578063095ea7b31461047757806309a3bbe41461049a575b600080fd5b610440610981565b60405161044d91906155fa565b60405180910390f35b610469610464366004615644565b610a13565b60405190815260200161044d565b61048a610485366004615680565b610aa6565b604051901515815260200161044d565b610469610b01565b6104b56104b03660046156aa565b610b17565b005b6104696104c5366004615702565b610d53565b600954610469565b610469611178565b6104b56104e8366004615680565b61118f565b610469670de0b6b3a764000081565b61048a61050a366004615644565b611307565b61046961145b565b61052a610525366004615724565b6114d5565b604080519586526020860194909452928401919091526060830152608082015260a00161044d565b61048a610560366004615766565b6001600160a01b031660009081526010602052604090205460ff1690565b61046961058c366004615766565b60056020526000908152604090205481565b600c546201000090046001600160a01b03165b6040516001600160a01b03909116815260200161044d565b600c5460ff165b60405160ff909116815260200161044d565b6104b56105f0366004615781565b6115ad565b601254600160a01b900460ff1661048a565b610469610615366004615680565b6116a8565b610469610628366004615680565b611710565b6003546001600160a01b03166105b1565b6004546001600160a01b03166105b1565b6104b561065d3660046157df565b611770565b610675610670366004615841565b6119b7565b6040805193845260208085019390935281518482015291810151606080850191909152918101516080840152015160a082015260c00161044d565b600e546105b1906001600160a01b031681565b60016105d0565b600054610469565b600d546105b1906001600160a01b031681565b61048a6106f3366004615680565b611b6a565b610469610706366004615766565b6001600160a01b031660009081526007602052604090205490565b610469611c40565b61046960005481565b610469610740366004615766565b60066020526000908152604090205481565b6104b5611c54565b610469610768366004615702565b611de6565b6104696121c7565b610675610783366004615841565b6121de565b600e54600160a01b900460ff1661048a565b610469612376565b6104696123a8565b6104696107b8366004615766565b6123bb565b610440612412565b610469612421565b6104696107db366004615680565b61243f565b61048a6107ee366004615680565b61249f565b6104b56124b5565b6104b56108093660046157df565b612623565b610469600281565b610469600181565b610469612847565b61046961285a565b610836612879565b60405161044d9190615911565b61084b61292c565b60405161044d929190615924565b61048a61086736600461599a565b612a9c565b61087f61087a366004615a47565b612d8a565b6040805192835260208301919091520161044d565b61084b613540565b610469600081565b61087f6108b2366004615a47565b6136a5565b61052a6108c5366004615724565b613dad565b610836613e57565b600f54610469565b600154610469565b61048a6108f0366004615680565b613e82565b610469610903366004615a89565b6001600160a01b03918216600090815260086020908152604080832093909416825291909152205490565b610469613ef5565b610469610944366004615766565b613f08565b610469610957366004615766565b613f66565b600c54600160b01b900460ff1661048a565b61046961097c366004615680565b613fb9565b6060600a805461099090615abc565b80601f01602080910402602001604051908101604052809291908181526020018280546109bc90615abc565b8015610a095780601f106109de57610100808354040283529160200191610a09565b820191906000526020600020905b8154815290600101906020018083116109ec57829003601f168201915b5050505050905090565b600c54600090610100900460ff1615610a475760405162461bcd60e51b8152600401610a3e90615af7565b60405180910390fd5b610a5084614019565b610a5983614019565b6001600160a01b03808516600090815260106020526040808220928616825290206003808301546002808501549284015490840154610a9a93919088614074565b925050505b9392505050565b3360008181526008602090815260408083206001600160a01b03871680855292528083208590555191929091600080516020615d6b83398151915290610aef9086815260200190565b60405180910390a35060015b92915050565b610b14670de0b6b3a76400006032615b32565b81565b600c54610100900460ff1615610b3f5760405162461bcd60e51b8152600401610a3e90615af7565b600c805461010061ff001990911617908190556201000090046001600160a01b03163314610ba85760405162461bcd60e51b815260206004820152601660248201527522a9292fa4a72b20a624a22fa1a7a72a2927a62622a960511b6044820152606401610a3e565b6003546001600160a01b03878116911614610c055760405162461bcd60e51b815260206004820152601d60248201527f4552525f494e56414c49445f44415441544f4b454e5f414444524553530000006044820152606401610a3e565b6004546001600160a01b03848116911614610c625760405162461bcd60e51b815260206004820152601d60248201527f4552525f494e56414c49445f62617365546f6b656e5f414444524553530000006044820152606401610a3e565b610c6d868686614100565b604080518681524260208201526001600160a01b038816913391600080516020615d4b833981519152910160405180910390a3610cab838383614100565b604080518381524260208201526001600160a01b038516913391600080516020615d4b833981519152910160405180910390a3610ce66142ef565b6040805183815260208101839052908101869052606081018590526001600160a01b03808816919085169033907fbece8b4dcdbe446dd65a9288154698e067e3e91de17a1a408c2f531b9f845d739060800160405180910390a45050600c805461ff001916905550505050565b600c54600090610100900460ff1615610d7e5760405162461bcd60e51b8152600401610a3e90615af7565b600c805461ff001916610100179055600e54600160a01b900460ff16610db65760405162461bcd60e51b8152600401610a3e90615b51565b600454610dcb906001600160a01b0316614019565b6004546001600160a01b0316600090815260106020526040902060038101546002820154600954601154610e02939291908861434e565b915082821015610e245760405162461bcd60e51b8152600401610a3e90615b7c565b6004546001600160a01b03166000908152601060205260409020600390810154610e6a91610e5a90670de0b6b3a7640000615bb9565b610e65906001615bcd565b614418565b821115610ead5760405162461bcd60e51b81526020600482015260116024820152704552525f4d41585f4f55545f524154494f60781b6044820152606401610a3e565b610ebb8160030154836144fd565b6003820155600454604080518481524260208201526001600160a01b039092169133917f9d9058fd2f25ccc389fec7720abef0ca83472f5abfafd5f10d37f51e6a0493f3910160405180910390a3604051848152600080516020615d2b8339815191529060200160405180910390a1610f34338561455a565b610f3d84614564565b600454610f54906001600160a01b0316338461456d565b601254600354604051630d098ab360e11b81526001600160a01b03918216600482015260248101879052911690631a13156690604401602060405180830381865afa158015610fa7573d6000803e3d6000fd5b505050506040513d601f19601f82011682018060405250810190610fcb9190615be5565b1561116657600380546001600160a01b03166000908152601060205260408120918201546002830154600954601154611007939291908a61434e565b90506110178260030154826144fd565b60038381019190915554600c54604080518481524260208201526001600160a01b039384169362010000909304909216917f9d9058fd2f25ccc389fec7720abef0ca83472f5abfafd5f10d37f51e6a0493f3910160405180910390a3600c5461108f906201000090046001600160a01b03168761455a565b61109886614564565b600354600c546110bb916001600160a01b0390811691620100009004168361456d565b60125460035460405163054a976360e41b81526001600160a01b03918216600482015260248101849052604481018990529116906354a9763090606401600060405180830381600087803b15801561111257600080fd5b505af1158015611126573d6000803e3d6000fd5b505050507f87b3975661762d852ddf2eeaad6a43b2d93777de7b3b7bdb634283df324561188660405161115b91815260200190565b60405180910390a150505b50600c805461ff001916905592915050565b610b146402540be400670de0b6b3a7640000615bb9565b600d546001600160a01b031633146111e15760405162461bcd60e51b815260206004820152601560248201527427a7262c9026a0a925a2aa1021a7a62622a1aa27a960591b6044820152606401610a3e565b6001600160a01b0382166112375760405162461bcd60e51b815260206004820152601d60248201527f496e76616c6964205f6e6577436f6c6c6563746f7220616464726573730000006044820152606401610a3e565b8015806112575750611253612710670de0b6b3a7640000615bb9565b8110155b6112735760405162461bcd60e51b8152600401610a3e90615c02565b611286600a670de0b6b3a7640000615bb9565b8111156112a55760405162461bcd60e51b8152600401610a3e90615c27565b600d80546001600160a01b0319166001600160a01b03841690811790915560008290556040517f5e3e722dbd3b6b8071b78568ac80cd0e8ff92e4fb3024e755d504d8f7c2f6f09916112fb913391908590615c4c565b60405180910390a15050565b6000336001600160a01b038516148061134357506001600160a01b03841660009081526008602090815260408083203384529091529020548211155b6113875760405162461bcd60e51b815260206004820152601560248201527422a9292fa12a27a5a2a72fa120a22fa1a0a62622a960591b6044820152606401610a3e565b611392848484614581565b336001600160a01b038516148015906113d057506001600160a01b038416600090815260086020908152604080832033845290915290205460001914155b15611451576001600160a01b038416600090815260086020908152604080832033845290915290205461140390836144fd565b6001600160a01b038581166000908152600860209081526040808320338085529083529281902085905551938452918616929091600080516020615d6b833981519152910160405180910390a35b5060019392505050565b6002546004805460405163b8421e2b60e01b81526001600160a01b0391821692810192909252600092169063b8421e2b90602401602060405180830381865afa1580156114ac573d6000803e3d6000fd5b505050506040513d601f19601f820116820180604052508101906114d09190615c70565b905090565b60008060008060006114e689614019565b6114ef88614019565b604080516080810182526001600160a01b03808c16600090815260106020818152858320600380820154875260029182015483880152948f168085528383528785209586015497870197909752958352529201546060820152906115746040518060800160405280600081526020016000815260200160008152602001600081525090565b61157f838b8b6121de565b805160208201516040830151606090930151949c50909a509850965090945050505050945094509450945094565b600c546201000090046001600160a01b031633146116025760405162461bcd60e51b815260206004820152601260248201527122a9292fa727aa2fa1a7a72a2927a62622a960711b6044820152606401610a3e565b611616612710670de0b6b3a7640000615bb9565b8110156116355760405162461bcd60e51b8152600401610a3e90615c02565b611648600a670de0b6b3a7640000615bb9565b8111156116675760405162461bcd60e51b8152600401610a3e90615c27565b600181905560408051338152602081018390527fbca0d601c32979eebac4e8cd06375b6e45d39af80fc06a33f366425b450dfb69910160405180910390a150565b6001600160a01b03821660009081526010602090815260408083208151608081018352815460ff16151581526001820154938101939093526002810154918301829052600301546060830181905260095460115461170893919087614693565b949350505050565b6001600160a01b03821660009081526010602090815260408083208151608081018352815460ff1615158152600182015493810193909352600281015491830182905260030154606083018190526009546011546117089391908761434e565b600c54610100900460ff16156117985760405162461bcd60e51b8152600401610a3e90615af7565b600c805461ff001916610100179055600e54600160a01b900460ff166117d05760405162461bcd60e51b8152600401610a3e90615b51565b60006117db60095490565b905060006117e98583614728565b9050806118085760405162461bcd60e51b8152600401610a3e90615c89565b60005b600f5481101561196f576000600f828154811061182a5761182a615cb2565b60009182526020808320909101546001600160a01b0316808352601090915260408220600301549092509061185f8583614418565b90508061187e5760405162461bcd60e51b8152600401610a3e90615c89565b87878581811061189057611890615cb2565b905060200201358111156118d55760405162461bcd60e51b815260206004820152600c60248201526b22a9292fa624a6a4aa2fa4a760a11b6044820152606401610a3e565b6001600160a01b0383166000908152601060205260409020600301546118fb9082614840565b6001600160a01b038416600081815260106020526040908190206003019290925590513390600080516020615d4b833981519152906119469085904290918252602082015260400190565b60405180910390a3611959833383614892565b505050808061196790615cc8565b91505061180b565b50611979856149da565b61198333866149e3565b604051858152600080516020615d2b833981519152906020015b60405180910390a15050600c805461ff0019169055505050565b6000806119e56040518060800160405280600081526020016000815260200160008152602001600081525090565b6000611a0087600360200201518860015b6020020151614728565b90506000611a158860026020020151886144fd565b90506000611a2a896002602002015183614728565b90506000611a3882856149ed565b9050611a4c81670de0b6b3a76400006144fd565b90506000805489611a5b61145b565b600154611a689190615bcd565b611a729190615bcd565b611a7c9190615bcd565b9050611aaa611a938c60005b602002015184614418565b611aa5670de0b6b3a7640000846144fd565b614728565b9750611acd88611ac88a610e65670de0b6b3a7640000611ac861145b565b6144fd565b866020018181525050611af288611ac88a610e65670de0b6b3a76400006000546144fd565b866040018181525050611b1788611ac88a610e65670de0b6b3a76400006001546144fd565b8652611b3388611ac881610e65670de0b6b3a76400008e6144fd565b6060870152611b5a611b468c6000611a88565b611aa5670de0b6b3a76400006001546144fd565b9650505050505093509350939050565b3360009081526008602090815260408083206001600160a01b038616845290915281205480831115611bbf573360009081526008602090815260408083206001600160a01b0388168452909152812055611bee565b611bc981846144fd565b3360009081526008602090815260408083206001600160a01b03891684529091529020555b3360008181526008602090815260408083206001600160a01b03891680855290835292819020549051908152919291600080516020615d6b833981519152910160405180910390a35060019392505050565b610b14612710670de0b6b3a7640000615bb9565b6000611c5e612879565b905060005b8151811015611de257600060066000848481518110611c8457611c84615cb2565b60200260200101516001600160a01b03166001600160a01b03168152602001908152602001600020549050600060066000858581518110611cc757611cc7615cb2565b60200260200101516001600160a01b03166001600160a01b0316815260200190815260200160002081905550611d3f600d60009054906101000a90046001600160a01b031682858581518110611d1f57611d1f615cb2565b60200260200101516001600160a01b0316614b199092919063ffffffff16565b7fbaf1ab77be65c7abf8fcd922bfcf0a749f556ac1a4cdf39c126ffaa1851edb5633600d60009054906101000a90046001600160a01b0316858581518110611d8957611d89615cb2565b602002602001015184604051611dc794939291906001600160a01b039485168152928416602084015292166040820152606081019190915260800190565b60405180910390a15080611dda81615cc8565b915050611c63565b5050565b600c54600090610100900460ff1615611e115760405162461bcd60e51b8152600401610a3e90615af7565b600c805461ff001916610100179055600e54600160a01b900460ff16611e495760405162461bcd60e51b8152600401610a3e90615b51565b600454611e5e906001600160a01b0316614019565b6004546001600160a01b0316600090815260106020526040902060030154611e9390610e656002670de0b6b3a7640000615bb9565b831115611ed55760405162461bcd60e51b815260206004820152601060248201526f4552525f4d41585f494e5f524154494f60801b6044820152606401610a3e565b6004546001600160a01b0316600090815260106020526040902060038101546002820154600954601154611f0c9392919088614693565b915082821015611f2e5760405162461bcd60e51b8152600401610a3e90615b7c565b611f3c816003015485614840565b6003820155600454604080518681524260208201526001600160a01b03909216913391600080516020615d4b833981519152910160405180910390a3604051828152600080516020615d2b8339815191529060200160405180910390a1611fa2826149da565b611fac33836149e3565b600454611fc3906001600160a01b03163386614892565b600380546001600160a01b03166000908152601060205260408120918201546002830154600954601154611ffa9392919088614b7c565b601254600354604051632afbbacb60e01b81526001600160a01b039182166004820152602481018490529293501690632afbbacb90604401602060405180830381865afa15801561204f573d6000803e3d6000fd5b505050506040513d601f19601f820116820180604052508101906120739190615be5565b156121b35760125460035460405163ebedb8b360e01b81526001600160a01b0391821660048201526024810184905291169063ebedb8b390604401600060405180830381600087803b1580156120c857600080fd5b505af11580156120dc573d6000803e3d6000fd5b505050506120ee826003015482614840565b60038381019190915554600c54604080518481524260208201526001600160a01b03938416936201000090930490921691600080516020615d4b833981519152910160405180910390a36040518481527f87b3975661762d852ddf2eeaad6a43b2d93777de7b3b7bdb634283df324561189060200160405180910390a1612174846149da565b600c54612190906201000090046001600160a01b0316856149e3565b600354600c546121b3916001600160a01b03908116916201000090041683614892565b505050600c805461ff001916905592915050565b610b1464e8d4a51000670de0b6b3a7640000615bb9565b60008061220c6040518060800160405280600081526020016000815260200160008152602001600081525090565b600061222187600160200201518860036119f6565b905061223f86611ac888610e65670de0b6b3a7640000611ac861145b565b82602001818152505061226486611ac888610e65670de0b6b3a76400006000546144fd565b82604001818152505061228986611ac888610e65670de0b6b3a76400006001546144fd565b82526122a586611ac881610e65670de0b6b3a76400008a6144fd565b60608301526000805486906122b861145b565b6001546122c59190615bcd565b6122cf9190615bcd565b6122d99190615bcd565b905060006122ef670de0b6b3a7640000836144fd565b90506122fb8882614418565b895190915060009061231190611aa58185614840565b9050600061231f82866149ed565b90506000612335670de0b6b3a7640000836144fd565b90506123488c6002602002015182614418565b9850886123638c89604001518a60200151611ac89190615bcd565b9850985050505050505093509350939050565b600c54600090610100900460ff16156123a15760405162461bcd60e51b8152600401610a3e90615af7565b5060115490565b610b14670de0b6b3a76400006064615b32565b600c54600090610100900460ff16156123e65760405162461bcd60e51b8152600401610a3e90615af7565b6123ef82614019565b506001600160a01b0381166000908152601060205260409020600201545b919050565b6060600b805461099090615abc565b6124346003670de0b6b3a7640000615bb9565b610b14906001615bcd565b6001600160a01b03821660009081526010602090815260408083208151608081018352815460ff16151581526001820154938101939093526002810154918301829052600301546060830181905260095460115461170893919087614c16565b60006124ac338484614581565b50600192915050565b60006124bf612879565b905060005b8151811015611de2576000600560008484815181106124e5576124e5615cb2565b60200260200101516001600160a01b03166001600160a01b0316815260200190815260200160002054905060006005600085858151811061252857612528615cb2565b60200260200101516001600160a01b03166001600160a01b0316815260200190815260200160002081905550612580600e60009054906101000a90046001600160a01b031682858581518110611d1f57611d1f615cb2565b7fed2b0288692cfc6d01c94a67a53721792f59c3d1388221f8aa4f66c8d2808dde33600e60009054906101000a90046001600160a01b03168585815181106125ca576125ca615cb2565b60200260200101518460405161260894939291906001600160a01b039485168152928416602084015292166040820152606081019190915260800190565b60405180910390a1508061261b81615cc8565b9150506124c4565b600c54610100900460ff161561264b5760405162461bcd60e51b8152600401610a3e90615af7565b600c805461ff001916610100179055600e54600160a01b900460ff166126835760405162461bcd60e51b8152600401610a3e90615b51565b600061268e60095490565b9050600061269c8583614728565b9050806126bb5760405162461bcd60e51b8152600401610a3e90615c89565b6126c5338661455a565b6126ce85614564565b60005b600f54811015612828576000600f82815481106126f0576126f0615cb2565b60009182526020808320909101546001600160a01b031680835260109091526040822060030154909250906127258583614418565b9050806127445760405162461bcd60e51b8152600401610a3e90615c89565b87878581811061275657612756615cb2565b9050602002013581101561277c5760405162461bcd60e51b8152600401610a3e90615b7c565b6001600160a01b0383166000908152601060205260409020600301546127a290826144fd565b6001600160a01b0384166000818152601060205260409081902060030192909255905133907f9d9058fd2f25ccc389fec7720abef0ca83472f5abfafd5f10d37f51e6a0493f3906127ff9085904290918252602082015260400190565b60405180910390a361281283338361456d565b505050808061282090615cc8565b9150506126d1565b50604051858152600080516020615d2b8339815191529060200161199d565b610b14600a670de0b6b3a7640000615bb9565b600161286f670de0b6b3a76400006002615b32565b610b149190615ce3565b600c54606090610100900460ff16156128a45760405162461bcd60e51b8152600401610a3e90615af7565b600e54600160a01b900460ff166128cd5760405162461bcd60e51b8152600401610a3e90615b51565b600f805480602002602001604051908101604052809291908181526020018280548015610a0957602002820191906000526020600020905b81546001600160a01b03168152600190910190602001808311612905575050505050905090565b6060806000612939612879565b90506000815167ffffffffffffffff8111156129575761295761582b565b604051908082528060200260200182016040528015612980578160200160208202803683370190505b5090506000825167ffffffffffffffff81111561299f5761299f61582b565b6040519080825280602002602001820160405280156129c8578160200160208202803683370190505b50905060005b8351811015612a91578381815181106129e9576129e9615cb2565b6020026020010151838281518110612a0357612a03615cb2565b60200260200101906001600160a01b031690816001600160a01b03168152505060056000858381518110612a3957612a39615cb2565b60200260200101516001600160a01b03166001600160a01b0316815260200190815260200160002054828281518110612a7457612a74615cb2565b602090810291909101015280612a8981615cc8565b9150506129ce565b509094909350915050565b601254600090600160a01b900460ff1615612af95760405162461bcd60e51b815260206004820152601760248201527f4552525f414c52454144595f494e495449414c495a45440000000000000000006044820152606401610a3e565b6001600160a01b038916612b4f5760405162461bcd60e51b815260206004820152601e60248201527f4552525f494e56414c49445f434f4e54524f4c4c45525f4144445245535300006044820152606401610a3e565b6001600160a01b038816612ba55760405162461bcd60e51b815260206004820152601b60248201527f4552525f494e56414c49445f464143544f52595f4144445245535300000000006044820152606401610a3e565b612bb9612710670de0b6b3a7640000615bb9565b87876000818110612bcc57612bcc615cb2565b905060200201351015612bf15760405162461bcd60e51b8152600401610a3e90615c02565b612c04600a670de0b6b3a7640000615bb9565b87876000818110612c1757612c17615cb2565b905060200201351115612c3c5760405162461bcd60e51b8152600401610a3e90615c27565b86866001818110612c4f57612c4f615cb2565b9050602002013560001480612c905750612c73612710670de0b6b3a7640000615bb9565b87876001818110612c8657612c86615cb2565b9050602002013510155b612cac5760405162461bcd60e51b8152600401610a3e90615c02565b612cbf600a670de0b6b3a7640000615bb9565b87876001818110612cd257612cd2615cb2565b905060200201351115612cf75760405162461bcd60e51b8152600401610a3e90615c27565b612d7d8989898980806020026020016040519081016040528093929190818152602001838360200280828437600092019190915250506040805180820182528c93508b9250908a9060029083908390808284376000920191909152505060408051808201825291508a906002908390839080828437600092019190915250614cd5915050565b9998505050505050505050565b600c546000908190610100900460ff1615612db75760405162461bcd60e51b8152600401610a3e90615af7565b600c805461ff001916610100179055600e54600160a01b900460ff16612def5760405162461bcd60e51b8152600401610a3e90615b51565b612dff6040850160208601615766565b6001600160a01b0316612e156020860186615766565b6001600160a01b03161415612e655760405162461bcd60e51b815260206004820152601660248201527521b0b73737ba1039bbb0b81039b0b6b2903a37b5b2b760511b6044820152606401610a3e565b612e848460005b602002016020810190612e7f9190615766565b614019565b612e8f846001612e6c565b6000601081612ea16020880188615766565b6001600160a01b03168152602081019190915260400160009081209150601081876001602002016020810190612ed79190615766565b6001600160a01b031681526020810191909152604001600020905060608501351580612f1a5750612f12612710670de0b6b3a7640000615bb9565b606086013510155b612f5f5760405162461bcd60e51b8152602060048201526016602482015275436f6e73756d655377617046656520746f6f206c6f7760501b6044820152606401610a3e565b612f72600a670de0b6b3a7640000615bb9565b60608601351115612fbf5760405162461bcd60e51b8152602060048201526017602482015276086dedce6eadacaa6eec2e08ccaca40e8dede40d0d2ced604b1b6044820152606401610a3e565b6003820154612fdb90610e656002670de0b6b3a7640000615bb9565b8535111561301e5760405162461bcd60e51b815260206004820152601060248201526f4552525f4d41585f494e5f524154494f60801b6044820152606401610a3e565b600061305483600301548460020154846003015485600201548a60036004811061304a5761304a615cb2565b6020020135614074565b905060408601358111156130a05760405162461bcd60e51b81526020600482015260136024820152724552525f4241445f4c494d49545f505249434560681b6044820152606401610a3e565b6000806040518060800160405280866003015481526020018660020154815260200185600301548152602001856002015481525090506131016040518060800160405280600081526020016000815260200160008152602001600081525090565b613111828a3560608c01356121de565b91995093509050613160600560008c815b6020020160208101906131359190615766565b6001600160a01b03166001600160a01b03168152602001908152602001600020548260200151614840565b6005600061317160208e018e615766565b6001600160a01b03166001600160a01b03168152602001908152602001600020819055506131ed600660008c6000600381106131af576131af615cb2565b6020020160208101906131c29190615766565b6001600160a01b03166001600160a01b03168152602001908152602001600020548260400151614840565b600660006131fe60208e018e615766565b6001600160a01b03166001600160a01b03168152602001908152602001600020819055507f53a9dc73d01196a9c660d761bc5ec77b945340a34b5b52e510760af2dab1c0f181600001518260200151836040015184606001518e60006003811061326a5761326a615cb2565b60200201602081019061327d9190615766565b6040805195865260208601949094529284019190915260608301526001600160a01b0316608082015260a00160405180910390a160208901358810156132d55760405162461bcd60e51b8152600401610a3e90615b7c565b6132e3866003015484614840565b86600301819055506132f98560030154896144fd565b856003018190555061332b86600301548760020154876003015488600201548d60036004811061304a5761304a615cb2565b96508387101561334d5760405162461bcd60e51b8152600401610a3e90615c89565b60408901358711156133935760405162461bcd60e51b815260206004820152600f60248201526e4552525f4c494d49545f505249434560881b6044820152606401610a3e565b61339e893589614728565b8411156133bd5760405162461bcd60e51b8152600401610a3e90615c89565b6133cd60408b0160208c01615766565b6001600160a01b03166133e360208c018c615766565b604080518c358152602081018c9052428183015290516001600160a01b03929092169133917f50ef2fc267012b5c84b56835f16ffd5331ac5a151a3760d74908721ba78b0efe919081900360600190a461344b61344360208c018c615766565b338b35614892565b60006134708a35611ac881610e65670de0b6b3a76400008f60035b60200201356144fd565b905060608a01351561350b576134b48b60025b6020020160208101906134969190615766565b826134a460208f018f615766565b6001600160a01b03169190614b19565b7f6d11837f46cc09b011cf4aae09fcade046c020aac088090ae4f77ff67b7079726134e560608d0160408e01615766565b6134f260208e018e615766565b8360405161350293929190615c4c565b60405180910390a15b61352561351e60408d0160208e01615766565b338b61456d565b50505050505050600c805461ff001916905590939092509050565b606080600061354d612879565b90506000815167ffffffffffffffff81111561356b5761356b61582b565b604051908082528060200260200182016040528015613594578160200160208202803683370190505b5090506000825167ffffffffffffffff8111156135b3576135b361582b565b6040519080825280602002602001820160405280156135dc578160200160208202803683370190505b50905060005b8351811015612a91578381815181106135fd576135fd615cb2565b602002602001015183828151811061361757613617615cb2565b60200260200101906001600160a01b031690816001600160a01b0316815250506006600085838151811061364d5761364d615cb2565b60200260200101516001600160a01b03166001600160a01b031681526020019081526020016000205482828151811061368857613688615cb2565b60209081029190910101528061369d81615cc8565b9150506135e2565b600c546000908190610100900460ff16156136d25760405162461bcd60e51b8152600401610a3e90615af7565b600c805461ff001916610100179055600e54600160a01b900460ff1661370a5760405162461bcd60e51b8152600401610a3e90615b51565b61371a6040850160208601615766565b6001600160a01b03166137306020860186615766565b6001600160a01b031614156137805760405162461bcd60e51b815260206004820152601660248201527521b0b73737ba1039bbb0b81039b0b6b2903a37b5b2b760511b6044820152606401610a3e565b606083013515806137a857506137a0612710670de0b6b3a7640000615bb9565b606084013510155b6137ed5760405162461bcd60e51b8152602060048201526016602482015275436f6e73756d655377617046656520746f6f206c6f7760501b6044820152606401610a3e565b613800600a670de0b6b3a7640000615bb9565b6060840135111561384d5760405162461bcd60e51b8152602060048201526017602482015276086dedce6eadacaa6eec2e08ccaca40e8dede40d0d2ced604b1b6044820152606401610a3e565b613858846000612e6c565b613863846001612e6c565b60006010816138756020880188615766565b6001600160a01b031681526020810191909152604001600090812091506010818760016020020160208101906138ab9190615766565b6001600160a01b03166001600160a01b0316815260200190815260200160002090506138ea81600301546003670de0b6b3a7640000610e5a9190615bb9565b602086013511156139315760405162461bcd60e51b81526020600482015260116024820152704552525f4d41585f4f55545f524154494f60781b6044820152606401610a3e565b600061395d83600301548460020154846003015485600201548a60036004811061304a5761304a615cb2565b905060408601358111156139a95760405162461bcd60e51b81526020600482015260136024820152724552525f4241445f4c494d49545f505249434560681b6044820152606401610a3e565b600080604051806080016040528086600301548152602001866002015481526020018560030154815260200185600201548152509050613a0a6040518060800160405280600081526020016000815260200160008152602001600081525090565b613a1d8260208b013560608c01356119b7565b91995093509050613a32600560008c81613122565b60056000613a4360208e018e615766565b6001600160a01b03166001600160a01b0316815260200190815260200160002081905550613a81600660008c6000600381106131af576131af615cb2565b60066000613a9260208e018e615766565b6001600160a01b03166001600160a01b03168152602001908152602001600020819055507f53a9dc73d01196a9c660d761bc5ec77b945340a34b5b52e510760af2dab1c0f181600001518260200151836040015184606001518e600060038110613afe57613afe615cb2565b602002016020810190613b119190615766565b6040805195865260208601949094529284019190915260608301526001600160a01b0316608082015260a00160405180910390a18835881115613b855760405162461bcd60e51b815260206004820152600c60248201526b22a9292fa624a6a4aa2fa4a760a11b6044820152606401610a3e565b613b93866003015484614840565b600380880191909155850154613bab908a6001613466565b8560030181905550613bdd86600301548760020154876003015488600201548d60036004811061304a5761304a615cb2565b965083871015613bff5760405162461bcd60e51b8152600401610a3e90615c89565b6040890135871115613c455760405162461bcd60e51b815260206004820152600f60248201526e4552525f4c494d49545f505249434560881b6044820152606401610a3e565b613c538860208b0135614728565b841115613c725760405162461bcd60e51b8152600401610a3e90615c89565b613c8260408b0160208c01615766565b6001600160a01b0316613c9860208c018c615766565b6001600160a01b0316337f50ef2fc267012b5c84b56835f16ffd5331ac5a151a3760d74908721ba78b0efe8b8d6001604080519384526020918202929092013590830152429082015260600160405180910390a4613d03613cfc60208c018c615766565b338a614892565b6000613d2189611ac881610e65670de0b6b3a76400008f6003613466565b905060608a013515613d8f57613d388b6002613483565b7f6d11837f46cc09b011cf4aae09fcade046c020aac088090ae4f77ff67b707972613d6960608d0160408e01615766565b613d7660208e018e615766565b83604051613d8693929190615c4c565b60405180910390a15b613525613da260408d0160208e01615766565b3360208d013561456d565b6000806000806000613dbe89614019565b613dc788614019565b604080516080810182526001600160a01b03808c16600090815260106020818152858320600380820154875260029182015483880152948f16808552838352878520958601549787019790975295835252920154606082015290613e4c6040518060800160405280600081526020016000815260200160008152602001600081525090565b61157f838b8b6119b7565b600c54606090610100900460ff16156128cd5760405162461bcd60e51b8152600401610a3e90615af7565b3360009081526008602090815260408083206001600160a01b0386168452909152812054613eb09083614840565b3360008181526008602090815260408083206001600160a01b03891680855290835292819020859055519384529092600080516020615d6b8339815191529101610aef565b610b146002670de0b6b3a7640000615bb9565b600c54600090610100900460ff1615613f335760405162461bcd60e51b8152600401610a3e90615af7565b613f3c82614019565b6001600160a01b038216600090815260106020526040902060020154601154610a9f908290614728565b600c54600090610100900460ff1615613f915760405162461bcd60e51b8152600401610a3e90615af7565b613f9a82614019565b506001600160a01b031660009081526010602052604090206003015490565b6001600160a01b03821660009081526010602090815260408083208151608081018352815460ff16151581526001820154938101939093526002810154918301829052600301546060830181905260095460115461170893919087614b7c565b6001600160a01b03811660009081526010602052604090205460ff166140715760405162461bcd60e51b815260206004820152600d60248201526c11549497d393d517d093d55391609a1b6044820152606401610a3e565b50565b6000806140818787614728565b9050600061408f8686614728565b9050600061409d8383614728565b905060006140e6670de0b6b3a7640000611aa5670de0b6b3a7640000896000546140c561145b565b6001546140d29190615bcd565b6140dc9190615bcd565b611ac89190615bcd565b90506140f28282614418565b9a9950505050505050505050565b600c546201000090046001600160a01b031633146141555760405162461bcd60e51b815260206004820152601260248201527122a9292fa727aa2fa1a7a72a2927a62622a960711b6044820152606401610a3e565b6001600160a01b03831660009081526010602052604090205460ff16156141ad5760405162461bcd60e51b815260206004820152600c60248201526b11549497d254d7d093d5539160a21b6044820152606401610a3e565b600e54600160a01b900460ff16156141fa5760405162461bcd60e51b815260206004820152601060248201526f11549497d254d7d1925390531256915160821b6044820152606401610a3e565b600f5460021161423d5760405162461bcd60e51b815260206004820152600e60248201526d4552525f4d41585f544f4b454e5360901b6044820152606401610a3e565b604080516080810182526001808252600f805460208085019182526000858701818152606087018281526001600160a01b038c1680845260109094529782209651875460ff1916901515178755925186860155915160028601559451600390940193909355805491820181559091527f8d1108e10bcb7c27dddfc02ed9d693a074039d026cf4ea4240b40f7d581ac8020180546001600160a01b03191690911790556142ea838383614ea3565b505050565b600e805460ff60a01b1916600160a01b179055600c805460ff60b01b1916600160b01b17905561433061432b670de0b6b3a76400006064615b32565b6149da565b61434c33614347670de0b6b3a76400006064615b32565b6149e3565b565b60008061435b8685614728565b9050600061437684610e65670de0b6b3a764000060006144fd565b9050600061438487836144fd565b905060006143928289614728565b905060006143b1826143ac670de0b6b3a764000088614728565b6149ed565b905060006143bf828d614418565b905060006143cd8d836144fd565b905060006143ee6143e6670de0b6b3a76400008a6144fd565b600154614418565b905061440682610e65670de0b6b3a7640000846144fd565b9e9d5050505050505050505050505050565b6000806144258385615b32565b905083158061443c57508261443a8583615bb9565b145b61447b5760405162461bcd60e51b815260206004820152601060248201526f4552525f4d554c5f4f564552464c4f5760801b6044820152606401610a3e565b60006144906002670de0b6b3a7640000615bb9565b61449a9083615bcd565b9050818110156144df5760405162461bcd60e51b815260206004820152601060248201526f4552525f4d554c5f4f564552464c4f5760801b6044820152606401610a3e565b60006144f3670de0b6b3a764000083615bb9565b9695505050505050565b600080600061450c85856150c2565b9150915080156145525760405162461bcd60e51b81526020600482015260116024820152704552525f5355425f554e444552464c4f5760781b6044820152606401610a3e565b509392505050565b611de282826150f9565b61407181615104565b6142ea6001600160a01b0384168383614b19565b6001600160a01b0383166000908152600760205260409020548111156145e05760405162461bcd60e51b815260206004820152601460248201527311549497d25394d551919250d251539517d0905360621b6044820152606401610a3e565b6001600160a01b03831660009081526007602052604090205461460390826144fd565b6001600160a01b0380851660009081526007602052604080822093909355908416815220546146329082614840565b6001600160a01b0380841660008181526007602052604090819020939093559151908516907fddf252ad1be2c89b69c2b068fc378daa952ba7f163c4a11628f55a4df523b3ef906146869085815260200190565b60405180910390a3505050565b6000806146a08685614728565b905060006146b96143e6670de0b6b3a7640000846144fd565b905060006146d385610e65670de0b6b3a7640000856144fd565b905060006146e18a83614840565b905060006146ef828c614728565b905060006146fd82876149ed565b9050600061470b828c614418565b9050614717818c6144fd565b9d9c50505050505050505050505050565b6000816147665760405162461bcd60e51b815260206004820152600c60248201526b4552525f4449565f5a45524f60a01b6044820152606401610a3e565b600061477a670de0b6b3a764000085615b32565b90508315806147995750670de0b6b3a76400006147978583615bb9565b145b6147d85760405162461bcd60e51b815260206004820152601060248201526f11549497d1125597d25395115493905360821b6044820152606401610a3e565b60006147e5600285615bb9565b6147ef9083615bcd565b9050818110156148345760405162461bcd60e51b815260206004820152601060248201526f11549497d1125597d25395115493905360821b6044820152606401610a3e565b60006144f38583615bb9565b60008061484d8385615bcd565b905083811015610a9f5760405162461bcd60e51b815260206004820152601060248201526f4552525f4144445f4f564552464c4f5760801b6044820152606401610a3e565b6040516370a0823160e01b81523060048201526000906001600160a01b038516906370a0823190602401602060405180830381865afa1580156148d9573d6000803e3d6000fd5b505050506040513d601f19601f820116820180604052508101906148fd9190615c70565b90506149146001600160a01b0385168430856151d0565b61491e8282615bcd565b6040516370a0823160e01b81523060048201526001600160a01b038616906370a0823190602401602060405180830381865afa158015614962573d6000803e3d6000fd5b505050506040513d601f19601f820116820180604052508101906149869190615c70565b10156149d45760405162461bcd60e51b815260206004820152601a60248201527f5472616e7366657220616d6f756e7420697320746f6f206c6f770000000000006044820152606401610a3e565b50505050565b614071816151f1565b611de28282615260565b60006001831015614a385760405162461bcd60e51b81526020600482015260156024820152744552525f42504f575f424153455f544f4f5f4c4f5760581b6044820152606401610a3e565b6001614a4d670de0b6b3a76400006002615b32565b614a579190615ce3565b831115614a9f5760405162461bcd60e51b815260206004820152601660248201527508aa4a4be84a09eaebe8482a68abea89e9ebe90928e960531b6044820152606401610a3e565b6000614aaa8361526b565b90506000614ab884836144fd565b90506000614ace86614ac985615289565b61529d565b905081614adf579250610afb915050565b6000614b028784614afd6402540be400670de0b6b3a7640000615bb9565b615311565b9050614b0e8282614418565b979650505050505050565b6040516001600160a01b0383166024820152604481018290526142ea90849063a9059cbb60e01b906064015b60408051601f198184030181529190526020810180516001600160e01b03166001600160e01b031990931692909217909152615401565b600080614b898685614728565b90506000614b978685614840565b90506000614ba58288614728565b90506000614bbb670de0b6b3a764000085614728565b90506000614bc983836149ed565b90506000614bd7828d614418565b90506000614be5828e6144fd565b90506000614bfe6143e6670de0b6b3a76400008a6144fd565b905061440682611aa5670de0b6b3a7640000846144fd565b600080614c238685614728565b90506000614c39670de0b6b3a7640000836144fd565b90506000614c4982600154614418565b90506000614c6386611aa5670de0b6b3a7640000856144fd565b90506000614c718b836144fd565b90506000614c7f828d614728565b90506000614c8d82886149ed565b90506000614c9b828d614418565b90506000614ca98d836144fd565b9050614cc281611aa5670de0b6b3a764000060006144fd565b9f9e505050505050505050505050505050565b600c805462010000600160b01b031916620100006001600160a01b038a81169190910291909117909155600280546001600160a01b031916918816919091179055845160009086908290614d2b57614d2b615cb2565b602090810291909101810151600181905560408051338152928301919091527fbca0d601c32979eebac4e8cd06375b6e45d39af80fc06a33f366425b450dfb69910160405180910390a185600181518110614d8857614d88615cb2565b6020908102919091018101516000819055600c805460ff60b01b1916600160b01b89151502179055600e805460ff60a01b1916600160a01b881515021790558451600380546001600160a01b03199081166001600160a01b0393841617909155928601516004805485169183169190911790558451600d805490941691169081179092556040517f5e3e722dbd3b6b8071b78568ac80cd0e8ff92e4fb3024e755d504d8f7c2f6f0992614e3c923392615c4c565b60405180910390a18160016020020151600e80546001600160a01b0319166001600160a01b0392831617905560128054600c54600160a01b620100009091049093166001600160a81b03199091161782179081905560ff9190041698975050505050505050565b670de0b6b3a7640000811015614eec5760405162461bcd60e51b815260206004820152600e60248201526d11549497d3525397d5d15251d21560921b6044820152606401610a3e565b614eff670de0b6b3a76400006032615b32565b811115614f3f5760405162461bcd60e51b815260206004820152600e60248201526d11549497d3505617d5d15251d21560921b6044820152606401610a3e565b614f5664e8d4a51000670de0b6b3a7640000615bb9565b821015614f975760405162461bcd60e51b815260206004820152600f60248201526e4552525f4d494e5f42414c414e434560881b6044820152606401610a3e565b6001600160a01b0383166000908152601060205260409020600201548082111561503357614fd0601154614fcb84846144fd565b614840565b601155614fe6670de0b6b3a76400006032615b32565b601154111561502e5760405162461bcd60e51b815260206004820152601460248201527311549497d3505617d513d5105317d5d15251d21560621b6044820152606401610a3e565b61504f565b8082101561504f5761504b601154611ac883856144fd565b6011555b6001600160a01b0384166000908152601060205260409020600281018390556003018054908490558084111561509857615093853361508e87856144fd565b614892565b6150bb565b808410156150bb5760006150ac82866144fd565b90506150b986338361456d565b505b5050505050565b6000808284106150e1576150d68385615ce3565b6000915091506150f2565b6150eb8484615ce3565b6001915091505b9250929050565b611de2823083614581565b3060009081526007602052604090205481111561515a5760405162461bcd60e51b815260206004820152601460248201527311549497d25394d551919250d251539517d0905360621b6044820152606401610a3e565b3060009081526007602052604090205461517490826144fd565b3060009081526007602052604090205560095461519190826144fd565b60095560405181815260009030907fddf252ad1be2c89b69c2b068fc378daa952ba7f163c4a11628f55a4df523b3ef906020015b60405180910390a350565b6149d4846323b872dd60e01b858585604051602401614b4593929190615c4c565b3060009081526007602052604090205461520b9082614840565b306000908152600760205260409020556009546152289082614840565b60095560405181815230906000907fddf252ad1be2c89b69c2b068fc378daa952ba7f163c4a11628f55a4df523b3ef906020016151c5565b611de2308383614581565b6000670de0b6b3a764000061527f83615289565b610afb9190615b32565b6000610afb670de0b6b3a764000083615bb9565b600082816152ac600285615cfa565b6152be57670de0b6b3a76400006152c0565b815b90506152cd600285615bb9565b93505b8315611708576152e08283614418565b91506152ed600285615cfa565b156152ff576152fc8183614418565b90505b61530a600285615bb9565b93506152d0565b600082818061532887670de0b6b3a76400006150c2565b9092509050670de0b6b3a764000080600060015b8884106153f2576000615357670de0b6b3a764000083615b32565b90506000806153778a61537285670de0b6b3a76400006144fd565b6150c2565b9150915061538987610e65848c614418565b96506153958784614728565b9650866153a4575050506153f2565b87156153ae579315935b80156153b8579315935b84156153cf576153c886886144fd565b95506153dc565b6153d98688614840565b95505b50505080806153ea90615cc8565b91505061533c565b50909998505050505050505050565b6000615456826040518060400160405280602081526020017f5361666545524332303a206c6f772d6c6576656c2063616c6c206661696c6564815250856001600160a01b03166154d39092919063ffffffff16565b8051909150156142ea57808060200190518101906154749190615be5565b6142ea5760405162461bcd60e51b815260206004820152602a60248201527f5361666545524332303a204552433230206f7065726174696f6e20646964206e6044820152691bdd081cdd58d8d9595960b21b6064820152608401610a3e565b6060611708848460008585843b61552c5760405162461bcd60e51b815260206004820152601d60248201527f416464726573733a2063616c6c20746f206e6f6e2d636f6e74726163740000006044820152606401610a3e565b600080866001600160a01b031685876040516155489190615d0e565b60006040518083038185875af1925050503d8060008114615585576040519150601f19603f3d011682016040523d82523d6000602084013e61558a565b606091505b5091509150614b0e828286606083156155a4575081610a9f565b8251156155b45782518084602001fd5b8160405162461bcd60e51b8152600401610a3e91906155fa565b60005b838110156155e95781810151838201526020016155d1565b838111156149d45750506000910152565b60208152600082518060208401526156198160408501602087016155ce565b601f01601f19169190910160400192915050565b80356001600160a01b038116811461240d57600080fd5b60008060006060848603121561565957600080fd5b6156628461562d565b92506156706020850161562d565b9150604084013590509250925092565b6000806040838503121561569357600080fd5b61569c8361562d565b946020939093013593505050565b60008060008060008060c087890312156156c357600080fd5b6156cc8761562d565b955060208701359450604087013593506156e86060880161562d565b92506080870135915060a087013590509295509295509295565b6000806040838503121561571557600080fd5b50508035926020909101359150565b6000806000806080858703121561573a57600080fd5b6157438561562d565b93506157516020860161562d565b93969395505050506040820135916060013590565b60006020828403121561577857600080fd5b610a9f8261562d565b60006020828403121561579357600080fd5b5035919050565b60008083601f8401126157ac57600080fd5b50813567ffffffffffffffff8111156157c457600080fd5b6020830191508360208260051b85010111156150f257600080fd5b6000806000604084860312156157f457600080fd5b83359250602084013567ffffffffffffffff81111561581257600080fd5b61581e8682870161579a565b9497909650939450505050565b634e487b7160e01b600052604160045260246000fd5b600080600060c0848603121561585657600080fd5b84601f85011261586557600080fd5b6040516080810181811067ffffffffffffffff821117156158885761588861582b565b60405280608086018781111561589d57600080fd5b865b818110156158b757803583526020928301920161589f565b509197913596505060a094909401359392505050565b600081518084526020808501945080840160005b838110156159065781516001600160a01b0316875295820195908201906001016158e1565b509495945050505050565b602081526000610a9f60208301846158cd565b60408152600061593760408301856158cd565b82810360208481019190915284518083528582019282019060005b8181101561596e57845183529383019391830191600101615952565b5090979650505050505050565b801515811461407157600080fd5b8060408101831015610afb57600080fd5b600080600080600080600080610120898b0312156159b757600080fd5b6159c08961562d565b97506159ce60208a0161562d565b9650604089013567ffffffffffffffff8111156159ea57600080fd5b6159f68b828c0161579a565b9097509550506060890135615a0a8161597b565b93506080890135615a1a8161597b565b9250615a298a60a08b01615989565b9150615a388a60e08b01615989565b90509295985092959890939650565b60008060e08385031215615a5a57600080fd5b6060830184811115615a6b57600080fd5b8392508460e085011115615a7e57600080fd5b809150509250929050565b60008060408385031215615a9c57600080fd5b615aa58361562d565b9150615ab36020840161562d565b90509250929050565b600181811c90821680615ad057607f821691505b60208210811415615af157634e487b7160e01b600052602260045260246000fd5b50919050565b6020808252600b908201526a4552525f5245454e54525960a81b604082015260600190565b634e487b7160e01b600052601160045260246000fd5b6000816000190483118215151615615b4c57615b4c615b1c565b500290565b60208082526011908201527011549497d393d517d19253905312569151607a1b604082015260600190565b6020808252600d908201526c11549497d31253525517d3d555609a1b604082015260600190565b634e487b7160e01b600052601260045260246000fd5b600082615bc857615bc8615ba3565b500490565b60008219821115615be057615be0615b1c565b500190565b600060208284031215615bf757600080fd5b8151610a9f8161597b565b6020808252600b908201526a4552525f4d494e5f46454560a81b604082015260600190565b6020808252600b908201526a4552525f4d41585f46454560a81b604082015260600190565b6001600160a01b039384168152919092166020820152604081019190915260600190565b600060208284031215615c8257600080fd5b5051919050565b6020808252600f908201526e08aa4a4be9a82a890be82a0a0a49eb608b1b604082015260600190565b634e487b7160e01b600052603260045260246000fd5b6000600019821415615cdc57615cdc615b1c565b5060010190565b600082821015615cf557615cf5615b1c565b500390565b600082615d0957615d09615ba3565b500690565b60008251615d208184602087016155ce565b919091019291505056fefcda32798d5a9d032f49b37fea876d422f18f6e386e0f07db6029b693624b2c215a8ca63e37b2cff1677df2b6b82d36fcf8a524228bd7a4b4d02d107c28c1e8a8c5be1e5ebec7d5bd14f71427d1e84f3dd0314c0f7b2291e5b200ac8c7c3b925a264697066735822122033247be1a5668cf858ea196969522e841d3b4ad4a2f976398e68e086d9eaf13364736f6c634300080c0033",
  "linkReferences": {},
  "deployedLinkReferences": {}
}