{
  "_format": "hh-sol-artifact-1",
  "contractName": "BPool",
  "sourceName": "contracts/pools/balancer/BPool.sol",
  "abi": [
    {
      "anonymous": false,
      "inputs": [
        {
          "indexed": true,
          "internalType": "address",
          "name": "src",
          "type": "address"
        },
        {
          "indexed": true,
          "internalType": "address",
          "name": "dst",
          "type": "address"
        },
        {
          "indexed": false,
          "internalType": "uint256",
          "name": "amt",
          "type": "uint256"
        }
      ],
      "name": "Approval",
      "type": "event"
    },
    {
      "anonymous": false,
      "inputs": [
        {
          "indexed": false,
          "internalType": "uint256",
          "name": "bptAmount",
          "type": "uint256"
        }
      ],
      "name": "LOG_BPT",
      "type": "event"
    },
    {
      "anonymous": false,
      "inputs": [
        {
          "indexed": false,
          "internalType": "uint256",
          "name": "bptAmount",
          "type": "uint256"
        }
      ],
      "name": "LOG_BPT_SS",
      "type": "event"
    },
    {
      "anonymous": false,
      "inputs": [
        {
          "indexed": true,
          "internalType": "bytes4",
          "name": "sig",
          "type": "bytes4"
        },
        {
          "indexed": true,
          "internalType": "address",
          "name": "caller",
          "type": "address"
        },
        {
          "indexed": false,
          "internalType": "uint256",
          "name": "timestamp",
          "type": "uint256"
        },
        {
          "indexed": false,
          "internalType": "bytes",
          "name": "data",
          "type": "bytes"
        }
      ],
      "name": "LOG_CALL",
      "type": "event"
    },
    {
      "anonymous": false,
      "inputs": [
        {
          "indexed": true,
          "internalType": "address",
          "name": "caller",
          "type": "address"
        },
        {
          "indexed": true,
          "internalType": "address",
          "name": "tokenOut",
          "type": "address"
        },
        {
          "indexed": false,
          "internalType": "uint256",
          "name": "tokenAmountOut",
          "type": "uint256"
        },
        {
          "indexed": false,
          "internalType": "uint256",
          "name": "timestamp",
          "type": "uint256"
        }
      ],
      "name": "LOG_EXIT",
      "type": "event"
    },
    {
      "anonymous": false,
      "inputs": [
        {
          "indexed": true,
          "internalType": "address",
          "name": "caller",
          "type": "address"
        },
        {
          "indexed": true,
          "internalType": "address",
          "name": "tokenIn",
          "type": "address"
        },
        {
          "indexed": false,
          "internalType": "uint256",
          "name": "tokenAmountIn",
          "type": "uint256"
        },
        {
          "indexed": false,
          "internalType": "uint256",
          "name": "timestamp",
          "type": "uint256"
        }
      ],
      "name": "LOG_JOIN",
      "type": "event"
    },
    {
      "anonymous": false,
      "inputs": [
        {
          "indexed": true,
          "internalType": "address",
          "name": "caller",
          "type": "address"
        },
        {
          "indexed": true,
          "internalType": "address",
          "name": "baseToken",
          "type": "address"
        },
        {
          "indexed": false,
          "internalType": "uint256",
          "name": "baseTokenAmountIn",
          "type": "uint256"
        },
        {
          "indexed": false,
          "internalType": "uint256",
          "name": "baseTokenWeight",
          "type": "uint256"
        },
        {
          "indexed": true,
          "internalType": "address",
          "name": "dataToken",
          "type": "address"
        },
        {
          "indexed": false,
          "internalType": "uint256",
          "name": "dataTokenAmountIn",
          "type": "uint256"
        },
        {
          "indexed": false,
          "internalType": "uint256",
          "name": "dataTokenWeight",
          "type": "uint256"
        }
      ],
      "name": "LOG_SETUP",
      "type": "event"
    },
    {
      "anonymous": false,
      "inputs": [
        {
          "indexed": true,
          "internalType": "address",
          "name": "caller",
          "type": "address"
        },
        {
          "indexed": true,
          "internalType": "address",
          "name": "tokenIn",
          "type": "address"
        },
        {
          "indexed": true,
          "internalType": "address",
          "name": "tokenOut",
          "type": "address"
        },
        {
          "indexed": false,
          "internalType": "uint256",
          "name": "tokenAmountIn",
          "type": "uint256"
        },
        {
          "indexed": false,
          "internalType": "uint256",
          "name": "tokenAmountOut",
          "type": "uint256"
        },
        {
          "indexed": false,
          "internalType": "uint256",
          "name": "timestamp",
          "type": "uint256"
        }
      ],
      "name": "LOG_SWAP",
      "type": "event"
    },
    {
      "anonymous": false,
      "inputs": [
        {
          "indexed": false,
          "internalType": "address",
          "name": "caller",
          "type": "address"
        },
        {
          "indexed": false,
          "internalType": "address",
          "name": "newMarketCollector",
          "type": "address"
        }
      ],
      "name": "MarketCollectorChanged",
      "type": "event"
    },
    {
      "anonymous": false,
      "inputs": [
        {
          "indexed": false,
          "internalType": "address",
          "name": "caller",
          "type": "address"
        },
        {
          "indexed": false,
          "internalType": "address",
          "name": "marketAddress",
          "type": "address"
        },
        {
          "indexed": false,
          "internalType": "address",
          "name": "token",
          "type": "address"
        },
        {
          "indexed": false,
          "internalType": "uint256",
          "name": "amount",
          "type": "uint256"
        }
      ],
      "name": "MarketFee",
      "type": "event"
    },
    {
      "anonymous": false,
      "inputs": [
        {
          "indexed": false,
          "internalType": "address",
          "name": "caller",
          "type": "address"
        },
        {
          "indexed": false,
          "internalType": "address",
          "name": "OPFWallet",
          "type": "address"
        },
        {
          "indexed": false,
          "internalType": "address",
          "name": "token",
          "type": "address"
        },
        {
          "indexed": false,
          "internalType": "uint256",
          "name": "amount",
          "type": "uint256"
        }
      ],
      "name": "OPFFee",
      "type": "event"
    },
    {
      "anonymous": false,
      "inputs": [
        {
          "indexed": false,
          "internalType": "uint256",
          "name": "swapFeeAmount",
          "type": "uint256"
        },
        {
          "indexed": false,
          "internalType": "uint256",
          "name": "oceanFeeAmount",
          "type": "uint256"
        },
        {
          "indexed": false,
          "internalType": "uint256",
          "name": "marketFeeAmount",
          "type": "uint256"
        },
        {
          "indexed": false,
          "internalType": "address",
          "name": "tokenFees",
          "type": "address"
        }
      ],
      "name": "SWAP_FEES",
      "type": "event"
    },
    {
      "anonymous": false,
      "inputs": [
        {
          "indexed": true,
          "internalType": "address",
          "name": "src",
          "type": "address"
        },
        {
          "indexed": true,
          "internalType": "address",
          "name": "dst",
          "type": "address"
        },
        {
          "indexed": false,
          "internalType": "uint256",
          "name": "amt",
          "type": "uint256"
        }
      ],
      "name": "Transfer",
      "type": "event"
    },
    {
      "inputs": [],
      "name": "BONE",
      "outputs": [
        {
          "internalType": "uint256",
          "name": "",
          "type": "uint256"
        }
      ],
      "stateMutability": "view",
      "type": "function"
    },
    {
      "inputs": [],
      "name": "BPOW_PRECISION",
      "outputs": [
        {
          "internalType": "uint256",
          "name": "",
          "type": "uint256"
        }
      ],
      "stateMutability": "view",
      "type": "function"
    },
    {
      "inputs": [],
      "name": "EXIT_FEE",
      "outputs": [
        {
          "internalType": "uint256",
          "name": "",
          "type": "uint256"
        }
      ],
      "stateMutability": "view",
      "type": "function"
    },
    {
      "inputs": [],
      "name": "INIT_POOL_SUPPLY",
      "outputs": [
        {
          "internalType": "uint256",
          "name": "",
          "type": "uint256"
        }
      ],
      "stateMutability": "view",
      "type": "function"
    },
    {
      "inputs": [],
      "name": "MAX_BOUND_TOKENS",
      "outputs": [
        {
          "internalType": "uint256",
          "name": "",
          "type": "uint256"
        }
      ],
      "stateMutability": "view",
      "type": "function"
    },
    {
      "inputs": [],
      "name": "MAX_BPOW_BASE",
      "outputs": [
        {
          "internalType": "uint256",
          "name": "",
          "type": "uint256"
        }
      ],
      "stateMutability": "view",
      "type": "function"
    },
    {
      "inputs": [],
      "name": "MAX_FEE",
      "outputs": [
        {
          "internalType": "uint256",
          "name": "",
          "type": "uint256"
        }
      ],
      "stateMutability": "view",
      "type": "function"
    },
    {
      "inputs": [],
      "name": "MAX_IN_RATIO",
      "outputs": [
        {
          "internalType": "uint256",
          "name": "",
          "type": "uint256"
        }
      ],
      "stateMutability": "view",
      "type": "function"
    },
    {
      "inputs": [],
      "name": "MAX_OUT_RATIO",
      "outputs": [
        {
          "internalType": "uint256",
          "name": "",
          "type": "uint256"
        }
      ],
      "stateMutability": "view",
      "type": "function"
    },
    {
      "inputs": [],
      "name": "MAX_TOTAL_WEIGHT",
      "outputs": [
        {
          "internalType": "uint256",
          "name": "",
          "type": "uint256"
        }
      ],
      "stateMutability": "view",
      "type": "function"
    },
    {
      "inputs": [],
      "name": "MAX_WEIGHT",
      "outputs": [
        {
          "internalType": "uint256",
          "name": "",
          "type": "uint256"
        }
      ],
      "stateMutability": "view",
      "type": "function"
    },
    {
      "inputs": [],
      "name": "MIN_BALANCE",
      "outputs": [
        {
          "internalType": "uint256",
          "name": "",
          "type": "uint256"
        }
      ],
      "stateMutability": "view",
      "type": "function"
    },
    {
      "inputs": [],
      "name": "MIN_BOUND_TOKENS",
      "outputs": [
        {
          "internalType": "uint256",
          "name": "",
          "type": "uint256"
        }
      ],
      "stateMutability": "view",
      "type": "function"
    },
    {
      "inputs": [],
      "name": "MIN_BPOW_BASE",
      "outputs": [
        {
          "internalType": "uint256",
          "name": "",
          "type": "uint256"
        }
      ],
      "stateMutability": "view",
      "type": "function"
    },
    {
      "inputs": [],
      "name": "MIN_FEE",
      "outputs": [
        {
          "internalType": "uint256",
          "name": "",
          "type": "uint256"
        }
      ],
      "stateMutability": "view",
      "type": "function"
    },
    {
      "inputs": [],
      "name": "MIN_WEIGHT",
      "outputs": [
        {
          "internalType": "uint256",
          "name": "",
          "type": "uint256"
        }
      ],
      "stateMutability": "view",
      "type": "function"
    },
    {
      "inputs": [],
      "name": "_marketCollector",
      "outputs": [
        {
          "internalType": "address",
          "name": "",
          "type": "address"
        }
      ],
      "stateMutability": "view",
      "type": "function"
    },
    {
      "inputs": [],
      "name": "_opfCollector",
      "outputs": [
        {
          "internalType": "address",
          "name": "",
          "type": "address"
        }
      ],
      "stateMutability": "view",
      "type": "function"
    },
    {
      "inputs": [],
      "name": "_swapMarketFee",
      "outputs": [
        {
          "internalType": "uint256",
          "name": "",
          "type": "uint256"
        }
      ],
      "stateMutability": "view",
      "type": "function"
    },
    {
      "inputs": [
        {
          "internalType": "address",
          "name": "src",
          "type": "address"
        },
        {
          "internalType": "address",
          "name": "dst",
          "type": "address"
        }
      ],
      "name": "allowance",
      "outputs": [
        {
          "internalType": "uint256",
          "name": "",
          "type": "uint256"
        }
      ],
      "stateMutability": "view",
      "type": "function"
    },
    {
      "inputs": [
        {
          "internalType": "address",
          "name": "dst",
          "type": "address"
        },
        {
          "internalType": "uint256",
          "name": "amt",
          "type": "uint256"
        }
      ],
      "name": "approve",
      "outputs": [
        {
          "internalType": "bool",
          "name": "",
          "type": "bool"
        }
      ],
      "stateMutability": "nonpayable",
      "type": "function"
    },
    {
      "inputs": [
        {
          "internalType": "address",
          "name": "whom",
          "type": "address"
        }
      ],
      "name": "balanceOf",
      "outputs": [
        {
          "internalType": "uint256",
          "name": "",
          "type": "uint256"
        }
      ],
      "stateMutability": "view",
      "type": "function"
    },
    {
      "inputs": [
        {
          "internalType": "address",
          "name": "tokenOut",
          "type": "address"
        },
        {
          "internalType": "uint256",
          "name": "tokenAmountOut",
          "type": "uint256"
        }
      ],
      "name": "calcPoolInSingleOut",
      "outputs": [
        {
          "internalType": "uint256",
          "name": "poolAmountIn",
          "type": "uint256"
        }
      ],
      "stateMutability": "view",
      "type": "function"
    },
    {
      "inputs": [
        {
          "internalType": "address",
          "name": "tokenIn",
          "type": "address"
        },
        {
          "internalType": "uint256",
          "name": "tokenAmountIn",
          "type": "uint256"
        }
      ],
      "name": "calcPoolOutSingleIn",
      "outputs": [
        {
          "internalType": "uint256",
          "name": "poolAmountOut",
          "type": "uint256"
        }
      ],
      "stateMutability": "view",
      "type": "function"
    },
    {
      "inputs": [
        {
          "internalType": "address",
          "name": "tokenIn",
          "type": "address"
        },
        {
          "internalType": "uint256",
          "name": "poolAmountOut",
          "type": "uint256"
        }
      ],
      "name": "calcSingleInPoolOut",
      "outputs": [
        {
          "internalType": "uint256",
          "name": "tokenAmountIn",
          "type": "uint256"
        }
      ],
      "stateMutability": "view",
      "type": "function"
    },
    {
      "inputs": [
        {
          "internalType": "address",
          "name": "tokenOut",
          "type": "address"
        },
        {
          "internalType": "uint256",
          "name": "poolAmountIn",
          "type": "uint256"
        }
      ],
      "name": "calcSingleOutPoolIn",
      "outputs": [
        {
          "internalType": "uint256",
          "name": "tokenAmountOut",
          "type": "uint256"
        }
      ],
      "stateMutability": "view",
      "type": "function"
    },
    {
      "inputs": [],
      "name": "collectMarketFee",
      "outputs": [],
      "stateMutability": "nonpayable",
      "type": "function"
    },
    {
      "inputs": [],
      "name": "collectOPF",
      "outputs": [],
      "stateMutability": "nonpayable",
      "type": "function"
    },
    {
      "inputs": [
        {
          "internalType": "address",
          "name": "",
          "type": "address"
        }
      ],
      "name": "communityFees",
      "outputs": [
        {
          "internalType": "uint256",
          "name": "",
          "type": "uint256"
        }
      ],
      "stateMutability": "view",
      "type": "function"
    },
    {
      "inputs": [],
      "name": "decimals",
      "outputs": [
        {
          "internalType": "uint8",
          "name": "",
          "type": "uint8"
        }
      ],
      "stateMutability": "view",
      "type": "function"
    },
    {
      "inputs": [
        {
          "internalType": "address",
          "name": "dst",
          "type": "address"
        },
        {
          "internalType": "uint256",
          "name": "amt",
          "type": "uint256"
        }
      ],
      "name": "decreaseApproval",
      "outputs": [
        {
          "internalType": "bool",
          "name": "",
          "type": "bool"
        }
      ],
      "stateMutability": "nonpayable",
      "type": "function"
    },
    {
      "inputs": [
        {
          "internalType": "uint256",
          "name": "poolAmountIn",
          "type": "uint256"
        },
        {
          "internalType": "uint256[]",
          "name": "minAmountsOut",
          "type": "uint256[]"
        }
      ],
      "name": "exitPool",
      "outputs": [],
      "stateMutability": "nonpayable",
      "type": "function"
    },
    {
      "inputs": [
        {
          "internalType": "address",
          "name": "tokenOut",
          "type": "address"
        },
        {
          "internalType": "uint256",
          "name": "tokenAmountOut",
          "type": "uint256"
        },
        {
          "internalType": "uint256",
          "name": "maxPoolAmountIn",
          "type": "uint256"
        }
      ],
      "name": "exitswapExternAmountOut",
      "outputs": [
        {
          "internalType": "uint256",
          "name": "poolAmountIn",
          "type": "uint256"
        }
      ],
      "stateMutability": "nonpayable",
      "type": "function"
    },
    {
      "inputs": [
        {
          "internalType": "address",
          "name": "tokenOut",
          "type": "address"
        },
        {
          "internalType": "uint256",
          "name": "poolAmountIn",
          "type": "uint256"
        },
        {
          "internalType": "uint256",
          "name": "minAmountOut",
          "type": "uint256"
        }
      ],
      "name": "exitswapPoolAmountIn",
      "outputs": [
        {
          "internalType": "uint256",
          "name": "tokenAmountOut",
          "type": "uint256"
        }
      ],
      "stateMutability": "nonpayable",
      "type": "function"
    },
    {
      "inputs": [
        {
          "internalType": "address",
          "name": "tokenIn",
          "type": "address"
        },
        {
          "internalType": "address",
          "name": "tokenOut",
          "type": "address"
        },
        {
          "internalType": "uint256",
          "name": "tokenAmountOut",
          "type": "uint256"
        }
      ],
      "name": "getAmountInExactOut",
      "outputs": [
        {
          "internalType": "uint256",
          "name": "tokenAmountIn",
          "type": "uint256"
        }
      ],
      "stateMutability": "view",
      "type": "function"
    },
    {
      "inputs": [
        {
          "internalType": "address",
          "name": "tokenIn",
          "type": "address"
        },
        {
          "internalType": "address",
          "name": "tokenOut",
          "type": "address"
        },
        {
          "internalType": "uint256",
          "name": "tokenAmountIn",
          "type": "uint256"
        }
      ],
      "name": "getAmountOutExactIn",
      "outputs": [
        {
          "internalType": "uint256",
          "name": "tokenAmountOut",
          "type": "uint256"
        }
      ],
      "stateMutability": "view",
      "type": "function"
    },
    {
      "inputs": [
        {
          "internalType": "address",
          "name": "token",
          "type": "address"
        }
      ],
      "name": "getBalance",
      "outputs": [
        {
          "internalType": "uint256",
          "name": "",
          "type": "uint256"
        }
      ],
      "stateMutability": "view",
      "type": "function"
    },
    {
      "inputs": [],
      "name": "getBaseTokenAddress",
      "outputs": [
        {
          "internalType": "address",
          "name": "",
          "type": "address"
        }
      ],
      "stateMutability": "view",
      "type": "function"
    },
    {
      "inputs": [],
      "name": "getController",
      "outputs": [
        {
          "internalType": "address",
          "name": "",
          "type": "address"
        }
      ],
      "stateMutability": "view",
      "type": "function"
    },
    {
      "inputs": [],
      "name": "getCurrentMarketFees",
      "outputs": [
        {
          "internalType": "address[]",
          "name": "",
          "type": "address[]"
        },
        {
          "internalType": "uint256[]",
          "name": "",
          "type": "uint256[]"
        }
      ],
      "stateMutability": "view",
      "type": "function"
    },
    {
      "inputs": [],
      "name": "getCurrentOPFFees",
      "outputs": [
        {
          "internalType": "address[]",
          "name": "",
          "type": "address[]"
        },
        {
          "internalType": "uint256[]",
          "name": "",
          "type": "uint256[]"
        }
      ],
      "stateMutability": "view",
      "type": "function"
    },
    {
      "inputs": [],
      "name": "getCurrentTokens",
      "outputs": [
        {
          "internalType": "address[]",
          "name": "tokens",
          "type": "address[]"
        }
      ],
      "stateMutability": "view",
      "type": "function"
    },
    {
      "inputs": [],
      "name": "getDataTokenAddress",
      "outputs": [
        {
          "internalType": "address",
          "name": "",
          "type": "address"
        }
      ],
      "stateMutability": "view",
      "type": "function"
    },
    {
      "inputs": [
        {
          "internalType": "address",
          "name": "token",
          "type": "address"
        }
      ],
      "name": "getDenormalizedWeight",
      "outputs": [
        {
          "internalType": "uint256",
          "name": "",
          "type": "uint256"
        }
      ],
      "stateMutability": "view",
      "type": "function"
    },
    {
      "inputs": [],
      "name": "getFinalTokens",
      "outputs": [
        {
          "internalType": "address[]",
          "name": "tokens",
          "type": "address[]"
        }
      ],
      "stateMutability": "view",
      "type": "function"
    },
    {
      "inputs": [],
      "name": "getMarketFee",
      "outputs": [
        {
          "internalType": "uint256",
          "name": "",
          "type": "uint256"
        }
      ],
      "stateMutability": "view",
      "type": "function"
    },
    {
      "inputs": [
        {
          "internalType": "address",
          "name": "token",
          "type": "address"
        }
      ],
      "name": "getNormalizedWeight",
      "outputs": [
        {
          "internalType": "uint256",
          "name": "",
          "type": "uint256"
        }
      ],
      "stateMutability": "view",
      "type": "function"
    },
    {
      "inputs": [],
      "name": "getNumTokens",
      "outputs": [
        {
          "internalType": "uint256",
          "name": "",
          "type": "uint256"
        }
      ],
      "stateMutability": "view",
      "type": "function"
    },
    {
      "inputs": [],
      "name": "getOPFFee",
      "outputs": [
        {
          "internalType": "uint256",
          "name": "",
          "type": "uint256"
        }
      ],
      "stateMutability": "view",
      "type": "function"
    },
    {
      "inputs": [
        {
          "internalType": "address",
          "name": "tokenIn",
          "type": "address"
        },
        {
          "internalType": "address",
          "name": "tokenOut",
          "type": "address"
        }
      ],
      "name": "getSpotPrice",
      "outputs": [
        {
          "internalType": "uint256",
          "name": "spotPrice",
          "type": "uint256"
        }
      ],
      "stateMutability": "view",
      "type": "function"
    },
    {
      "inputs": [],
      "name": "getSwapFee",
      "outputs": [
        {
          "internalType": "uint256",
          "name": "",
          "type": "uint256"
        }
      ],
      "stateMutability": "view",
      "type": "function"
    },
    {
      "inputs": [],
      "name": "getTotalDenormalizedWeight",
      "outputs": [
        {
          "internalType": "uint256",
          "name": "",
          "type": "uint256"
        }
      ],
      "stateMutability": "view",
      "type": "function"
    },
    {
      "inputs": [
        {
          "internalType": "address",
          "name": "dst",
          "type": "address"
        },
        {
          "internalType": "uint256",
          "name": "amt",
          "type": "uint256"
        }
      ],
      "name": "increaseApproval",
      "outputs": [
        {
          "internalType": "bool",
          "name": "",
          "type": "bool"
        }
      ],
      "stateMutability": "nonpayable",
      "type": "function"
    },
    {
      "inputs": [
        {
          "internalType": "address",
          "name": "controller",
          "type": "address"
        },
        {
          "internalType": "address",
          "name": "factory",
          "type": "address"
        },
        {
          "internalType": "uint256[]",
          "name": "swapFees",
          "type": "uint256[]"
        },
        {
          "internalType": "bool",
          "name": "publicSwap",
          "type": "bool"
        },
        {
          "internalType": "bool",
          "name": "finalized",
          "type": "bool"
        },
        {
          "internalType": "address[2]",
          "name": "tokens",
          "type": "address[2]"
        },
        {
          "internalType": "address[2]",
          "name": "feeCollectors",
          "type": "address[2]"
        }
      ],
      "name": "initialize",
      "outputs": [
        {
          "internalType": "bool",
          "name": "",
          "type": "bool"
        }
      ],
      "stateMutability": "nonpayable",
      "type": "function"
    },
    {
      "inputs": [
        {
          "internalType": "address",
          "name": "t",
          "type": "address"
        }
      ],
      "name": "isBound",
      "outputs": [
        {
          "internalType": "bool",
          "name": "",
          "type": "bool"
        }
      ],
      "stateMutability": "view",
      "type": "function"
    },
    {
      "inputs": [],
      "name": "isFinalized",
      "outputs": [
        {
          "internalType": "bool",
          "name": "",
          "type": "bool"
        }
      ],
      "stateMutability": "view",
      "type": "function"
    },
    {
      "inputs": [],
      "name": "isInitialized",
      "outputs": [
        {
          "internalType": "bool",
          "name": "",
          "type": "bool"
        }
      ],
      "stateMutability": "view",
      "type": "function"
    },
    {
      "inputs": [],
      "name": "isPublicSwap",
      "outputs": [
        {
          "internalType": "bool",
          "name": "",
          "type": "bool"
        }
      ],
      "stateMutability": "view",
      "type": "function"
    },
    {
      "inputs": [
        {
          "internalType": "uint256",
          "name": "poolAmountOut",
          "type": "uint256"
        },
        {
          "internalType": "uint256[]",
          "name": "maxAmountsIn",
          "type": "uint256[]"
        }
      ],
      "name": "joinPool",
      "outputs": [],
      "stateMutability": "nonpayable",
      "type": "function"
    },
    {
      "inputs": [
        {
          "internalType": "address",
          "name": "tokenIn",
          "type": "address"
        },
        {
          "internalType": "uint256",
          "name": "tokenAmountIn",
          "type": "uint256"
        },
        {
          "internalType": "uint256",
          "name": "minPoolAmountOut",
          "type": "uint256"
        }
      ],
      "name": "joinswapExternAmountIn",
      "outputs": [
        {
          "internalType": "uint256",
          "name": "poolAmountOut",
          "type": "uint256"
        }
      ],
      "stateMutability": "nonpayable",
      "type": "function"
    },
    {
      "inputs": [
        {
          "internalType": "address",
          "name": "tokenIn",
          "type": "address"
        },
        {
          "internalType": "uint256",
          "name": "poolAmountOut",
          "type": "uint256"
        },
        {
          "internalType": "uint256",
          "name": "maxAmountIn",
          "type": "uint256"
        }
      ],
      "name": "joinswapPoolAmountOut",
      "outputs": [
        {
          "internalType": "uint256",
          "name": "tokenAmountIn",
          "type": "uint256"
        }
      ],
      "stateMutability": "nonpayable",
      "type": "function"
    },
    {
      "inputs": [
        {
          "internalType": "address",
          "name": "",
          "type": "address"
        }
      ],
      "name": "marketFees",
      "outputs": [
        {
          "internalType": "uint256",
          "name": "",
          "type": "uint256"
        }
      ],
      "stateMutability": "view",
      "type": "function"
    },
    {
      "inputs": [],
      "name": "name",
      "outputs": [
        {
          "internalType": "string",
          "name": "",
          "type": "string"
        }
      ],
      "stateMutability": "view",
      "type": "function"
    },
    {
      "inputs": [
        {
          "internalType": "uint256",
          "name": "swapFee",
          "type": "uint256"
        }
      ],
      "name": "setSwapFee",
      "outputs": [],
      "stateMutability": "nonpayable",
      "type": "function"
    },
    {
      "inputs": [
        {
          "internalType": "address",
          "name": "dataTokenAddress",
          "type": "address"
        },
        {
          "internalType": "uint256",
          "name": "dataTokenAmount",
          "type": "uint256"
        },
        {
          "internalType": "uint256",
          "name": "dataTokenWeight",
          "type": "uint256"
        },
        {
          "internalType": "address",
          "name": "baseTokenAddress",
          "type": "address"
        },
        {
          "internalType": "uint256",
          "name": "baseTokenAmount",
          "type": "uint256"
        },
        {
          "internalType": "uint256",
          "name": "baseTokenWeight",
          "type": "uint256"
        }
      ],
      "name": "setup",
      "outputs": [],
      "stateMutability": "nonpayable",
      "type": "function"
    },
    {
      "inputs": [
        {
          "internalType": "address",
          "name": "tokenIn",
          "type": "address"
        },
        {
          "internalType": "uint256",
          "name": "tokenAmountIn",
          "type": "uint256"
        },
        {
          "internalType": "address",
          "name": "tokenOut",
          "type": "address"
        },
        {
          "internalType": "uint256",
          "name": "minAmountOut",
          "type": "uint256"
        },
        {
          "internalType": "uint256",
          "name": "maxPrice",
          "type": "uint256"
        }
      ],
      "name": "swapExactAmountIn",
      "outputs": [
        {
          "internalType": "uint256",
          "name": "tokenAmountOut",
          "type": "uint256"
        },
        {
          "internalType": "uint256",
          "name": "spotPriceAfter",
          "type": "uint256"
        }
      ],
      "stateMutability": "nonpayable",
      "type": "function"
    },
    {
      "inputs": [
        {
          "internalType": "address",
          "name": "tokenIn",
          "type": "address"
        },
        {
          "internalType": "uint256",
          "name": "maxAmountIn",
          "type": "uint256"
        },
        {
          "internalType": "address",
          "name": "tokenOut",
          "type": "address"
        },
        {
          "internalType": "uint256",
          "name": "tokenAmountOut",
          "type": "uint256"
        },
        {
          "internalType": "uint256",
          "name": "maxPrice",
          "type": "uint256"
        }
      ],
      "name": "swapExactAmountOut",
      "outputs": [
        {
          "internalType": "uint256",
          "name": "tokenAmountIn",
          "type": "uint256"
        },
        {
          "internalType": "uint256",
          "name": "spotPriceAfter",
          "type": "uint256"
        }
      ],
      "stateMutability": "nonpayable",
      "type": "function"
    },
    {
      "inputs": [],
      "name": "symbol",
      "outputs": [
        {
          "internalType": "string",
          "name": "",
          "type": "string"
        }
      ],
      "stateMutability": "view",
      "type": "function"
    },
    {
      "inputs": [],
      "name": "totalSupply",
      "outputs": [
        {
          "internalType": "uint256",
          "name": "",
          "type": "uint256"
        }
      ],
      "stateMutability": "view",
      "type": "function"
    },
    {
      "inputs": [
        {
          "internalType": "address",
          "name": "dst",
          "type": "address"
        },
        {
          "internalType": "uint256",
          "name": "amt",
          "type": "uint256"
        }
      ],
      "name": "transfer",
      "outputs": [
        {
          "internalType": "bool",
          "name": "",
          "type": "bool"
        }
      ],
      "stateMutability": "nonpayable",
      "type": "function"
    },
    {
      "inputs": [
        {
          "internalType": "address",
          "name": "src",
          "type": "address"
        },
        {
          "internalType": "address",
          "name": "dst",
          "type": "address"
        },
        {
          "internalType": "uint256",
          "name": "amt",
          "type": "uint256"
        }
      ],
      "name": "transferFrom",
      "outputs": [
        {
          "internalType": "bool",
          "name": "",
          "type": "bool"
        }
      ],
      "stateMutability": "nonpayable",
      "type": "function"
    },
    {
      "inputs": [
        {
          "internalType": "address",
          "name": "_newCollector",
          "type": "address"
        }
      ],
      "name": "updateMarketFeeCollector",
      "outputs": [],
      "stateMutability": "nonpayable",
      "type": "function"
    }
  ],
  "bytecode": "0x60c0604052601360808190527f42616c616e63657220506f6f6c20546f6b656e0000000000000000000000000060a09081526200004091600a91906200008f565b506040805180820190915260038082526210941560ea1b60209092019182526200006d91600b916200008f565b50600c805460ff191660121790553480156200008857600080fd5b5062000172565b8280546200009d9062000135565b90600052602060002090601f016020900481019282620000c157600085556200010c565b82601f10620000dc57805160ff19168380011785556200010c565b828001600101855582156200010c579182015b828111156200010c578251825591602001919060010190620000ef565b506200011a9291506200011e565b5090565b5b808211156200011a57600081556001016200011f565b600181811c908216806200014a57607f821691505b602082108114156200016c57634e487b7160e01b600052602260045260246000fd5b50919050565b615e2680620001826000396000f3fe608060405234801561001057600080fd5b50600436106104285760003560e01c80638201aa3f1161022b578063c070a6d811610130578063dd62ed3e116100b8578063f1b8a9b711610087578063f1b8a9b7146108b1578063f68045a5146108c4578063f8b2cb4f146108cc578063fde924f7146108df578063ff9b1850146108f157600080fd5b8063dd62ed3e1461085d578063e4a28a52146104b0578063ec09302114610896578063f0f13f0b1461089e57600080fd5b8063c8ff1833116100ff578063c8ff18331461082a578063cc77828d14610832578063cd2ed8fb1461083a578063d4cadf6814610842578063d73dd6231461084a57600080fd5b8063c070a6d8146107f9578063c36596a6146104f0578063c44a42831461080c578063c6580d121461082257600080fd5b8063a562ddf0116101b3578063b7b800a411610182578063b7b800a4146107c4578063ba019dab146107cc578063bc063e1a146107d4578063bc694ea2146107dc578063be3bbd2e146107e457600080fd5b8063a562ddf01461078b578063a9059cbb1461079e578063b02f0b73146107b1578063b0e0d136146107c457600080fd5b80639381cd2b116101fa5780639381cd2b1461074d578063948d8ce61461075557806395d89b4114610768578063992e2a9214610770578063a3b3a16d1461077857600080fd5b80638201aa3f14610718578063867378c51461072b5780638d4e408314610733578063936c34771461074557600080fd5b8063380376a6116103315780635e123add116102b9578063703305181161028857806370330518146106a457806370a08231146106b757806376c7a3c7146106e05780637c5e9ea4146106e857806380ca73081461071057600080fd5b80635e123add1461066e57806366188463146106765780636d06dfa014610689578063700dd7e81461069c57600080fd5b806346ab38f11161030057806346ab38f11461061b57806349e9350f1461062e5780634df947d0146106375780634f69c0d4146106485780635db342771461065b57600080fd5b8063380376a6146105d0578063392e53cd146105e35780633950b3fd146105f5578063430ed5d01461060857600080fd5b8063218b5382116103b4578063300621921161038357806330062192146105515780633018205f14610571578063313ce5671461058857806331e2761b1461059d57806334e19907146105bd57600080fd5b8063218b5382146104f057806323b872dd146104ff5780632ea07d8a146105125780632f37b6241461052557600080fd5b806309a3bbe4116103fb57806309a3bbe4146104b057806309ef3f5b146104b857806315e84af9146104cd57806318160ddd146104e0578063189d00ca146104e857600080fd5b806302c967481461042d57806304ad79541461045357806306fdde0314610478578063095ea7b31461048d575b600080fd5b61044061043b366004615664565b610904565b6040519081526020015b60405180910390f35b6003546001600160a01b03165b6040516001600160a01b03909116815260200161044a565b610480610d99565b60405161044a91906156c3565b6104a061049b3660046156f6565b610e2b565b604051901515815260200161044a565b610440610e86565b6104cb6104c6366004615720565b610e9c565b005b6104406104db366004615778565b6110d8565b600954610440565b6104406111bc565b610440670de0b6b3a764000081565b6104a061050d3660046157ab565b6111d3565b6104406105203660046157ab565b611328565b6104a06105333660046157e7565b6001600160a01b031660009081526010602052604090205460ff1690565b61044061055f3660046157e7565b60056020526000908152604090205481565b600c546201000090046001600160a01b0316610460565b600c5460405160ff909116815260200161044a565b6104406105ab3660046157e7565b60066020526000908152604090205481565b6104cb6105cb366004615802565b6113e3565b6104406105de3660046157ab565b61152c565b601254600160a01b900460ff166104a0565b6104406106033660046156f6565b6115dd565b6104406106163660046156f6565b611645565b610440610629366004615664565b6116a5565b61044060005481565b6004546001600160a01b0316610460565b6104cb610656366004615860565b611adf565b610440610669366004615664565b611d06565b600054610440565b6104a06106843660046156f6565b6120fb565b610440610697366004615664565b6121d1565b6104406125e1565b6104cb6106b23660046157e7565b61265b565b6104406106c53660046157e7565b6001600160a01b031660009081526007602052604090205490565b61044061275e565b6106fb6106f63660046158ac565b612773565b6040805192835260208301919091520161044a565b6104cb612ac4565b6106fb6107263660046158ac565b612c56565b610440612f8b565b600e54600160a01b900460ff166104a0565b610440612fa2565b610440612fd4565b6104406107633660046157e7565b612fe7565b61048061306d565b61044061307c565b6104406107863660046156f6565b61309a565b600d54610460906001600160a01b031681565b6104a06107ac3660046156f6565b6130fa565b6104cb6107bf366004615860565b613110565b610440600281565b610440600181565b61044061336c565b61044061337f565b6107ec61339e565b60405161044a919061593e565b6104a0610807366004615970565b613451565b6108146136c1565b60405161044a929190615a1d565b610440600081565b610814613831565b6107ec613996565b600f54610440565b600154610440565b6104a06108583660046156f6565b6139c1565b61044061086b366004615778565b6001600160a01b03918216600090815260086020908152604080832093909416825291909152205490565b610440613a34565b600e54610460906001600160a01b031681565b6104406108bf3660046157e7565b613a47565b6104cb613ad4565b6104406108da3660046157e7565b613c42565b600c54600160b01b900460ff166104a0565b6104406108ff3660046156f6565b613cc4565b600c54600090610100900460ff16156109385760405162461bcd60e51b815260040161092f90615a74565b60405180910390fd5b600c805461ff001916610100179055600e54600160a01b900460ff166109705760405162461bcd60e51b815260040161092f90615a99565b6001600160a01b03841660009081526010602052604090205460ff166109a85760405162461bcd60e51b815260040161092f90615ac4565b6001600160a01b03841660009081526010602052604090206003908101546109ec916109dc90670de0b6b3a7640000615b17565b6109e7906001615b2b565b613d24565b831115610a0b5760405162461bcd60e51b815260040161092f90615b43565b6001600160a01b038416600090815260106020526040902060038101546002820154600954601154610a409392919088613dff565b915081610a5f5760405162461bcd60e51b815260040161092f90615b6e565b82821115610a7f5760405162461bcd60e51b815260040161092f90615b97565b610a8d816003015485613ec3565b60038201556000610a9e8382613d24565b604080518781524260208201529192506001600160a01b038816913391600080516020615d51833981519152910160405180910390a3604051838152600080516020615d918339815191529060200160405180910390a1610aff3384613f20565b610b11610b0c8483613ec3565b613f2a565b600254610b27906001600160a01b031682613f36565b610b32863387613f40565b6003546000906001600160a01b0388811691161415610b5d57506004546001600160a01b0316610b6b565b506003546001600160a01b03165b60125460035460405163efd4810360e01b81526001600160a01b039283169263efd4810392610ba39291169085908990600401615bbd565b602060405180830381865afa158015610bc0573d6000803e3d6000fd5b505050506040513d601f19601f82011682018060405250810190610be49190615be1565b151560011415610d8457600380546001600160a01b03166000908152601060205260408120918201546002830154600954601154610c25939291908a613f59565b9050610c35826003015482613ec3565b6003830155610c45866000613d24565b600c54604080518481524260208201529296506001600160a01b0386811693620100009093041691600080516020615d51833981519152910160405180910390a3600c54610ca2906201000090046001600160a01b031687613f20565b610caf610b0c8786613ec3565b600254610cc5906001600160a01b031685613f36565b600c54610ce39084906201000090046001600160a01b031683613f40565b6012546003546040516307b01ab360e41b81526001600160a01b03918216600482015285821660248201526044810184905260648101899052911690637b01ab3090608401600060405180830381600087803b158015610d4257600080fd5b505af1158015610d56573d6000803e3d6000fd5b50505050600080516020615d7183398151915286604051610d7991815260200190565b60405180910390a150505b505050600c805461ff00191690559392505050565b6060600a8054610da890615bfe565b80601f0160208091040260200160405190810160405280929190818152602001828054610dd490615bfe565b8015610e215780601f10610df657610100808354040283529160200191610e21565b820191906000526020600020905b815481529060010190602001808311610e0457829003601f168201915b5050505050905090565b3360008181526008602090815260408083206001600160a01b03871680855292528083208590555191929091600080516020615dd183398151915290610e749086815260200190565b60405180910390a35060015b92915050565b610e99670de0b6b3a76400006032615c39565b81565b600c54610100900460ff1615610ec45760405162461bcd60e51b815260040161092f90615a74565b600c805461010061ff001990911617908190556201000090046001600160a01b03163314610f2d5760405162461bcd60e51b815260206004820152601660248201527522a9292fa4a72b20a624a22fa1a7a72a2927a62622a960511b604482015260640161092f565b6003546001600160a01b03878116911614610f8a5760405162461bcd60e51b815260206004820152601d60248201527f4552525f494e56414c49445f44415441544f4b454e5f41444452455353000000604482015260640161092f565b6004546001600160a01b03848116911614610fe75760405162461bcd60e51b815260206004820152601d60248201527f4552525f494e56414c49445f42415345544f4b454e5f41444452455353000000604482015260640161092f565b610ff2868686614023565b604080518681524260208201526001600160a01b038816913391600080516020615db1833981519152910160405180910390a3611030838383614023565b604080518381524260208201526001600160a01b038516913391600080516020615db1833981519152910160405180910390a361106b61420d565b6040805183815260208101839052908101869052606081018590526001600160a01b03808816919085169033907fbece8b4dcdbe446dd65a9288154698e067e3e91de17a1a408c2f531b9f845d739060800160405180910390a45050600c805461ff001916905550505050565b600c54600090610100900460ff16156111035760405162461bcd60e51b815260040161092f90615a74565b6001600160a01b03831660009081526010602052604090205460ff1661113b5760405162461bcd60e51b815260040161092f90615ac4565b6001600160a01b03821660009081526010602052604090205460ff166111735760405162461bcd60e51b815260040161092f90615ac4565b6001600160a01b038084166000908152601060205260408082209285168252902060038083015460028085015492840154908401546111b393919061426c565b95945050505050565b610e996402540be400670de0b6b3a7640000615b17565b6000336001600160a01b038516148061120f57506001600160a01b03841660009081526008602090815260408083203384529091529020548211155b6112535760405162461bcd60e51b815260206004820152601560248201527422a9292fa12a27a5a2a72fa120a22fa1a0a62622a960591b604482015260640161092f565b61125e8484846142e4565b336001600160a01b0385161480159061129c57506001600160a01b038416600090815260086020908152604080832033845290915290205460001914155b1561131d576001600160a01b03841660009081526008602090815260408083203384529091529020546112cf9083613ec3565b6001600160a01b038581166000908152600860209081526040808320338085529083529281902085905551938452918616929091600080516020615dd1833981519152910160405180910390a35b5060015b9392505050565b6001600160a01b03831660009081526010602052604081205460ff166113605760405162461bcd60e51b815260040161092f90615ac4565b6001600160a01b03831660009081526010602052604090205460ff166113985760405162461bcd60e51b815260040161092f90615ac4565b6001600160a01b038085166000908152601060205260408082209286168252902060038083015460028085015492840154908401546113d9939190886143f6565b9695505050505050565b600e54600160a01b900460ff16156114305760405162461bcd60e51b815260206004820152601060248201526f11549497d254d7d1925390531256915160821b604482015260640161092f565b600c546201000090046001600160a01b031633146114855760405162461bcd60e51b815260206004820152601260248201527122a9292fa727aa2fa1a7a72a2927a62622a960711b604482015260640161092f565b61149a620f4240670de0b6b3a7640000615b17565b8110156114d75760405162461bcd60e51b815260206004820152600b60248201526a4552525f4d494e5f46454560a81b604482015260640161092f565b6114ea600a670de0b6b3a7640000615b17565b8111156115275760405162461bcd60e51b815260206004820152600b60248201526a4552525f4d41585f46454560a81b604482015260640161092f565b600155565b6001600160a01b03831660009081526010602052604081205460ff166115645760405162461bcd60e51b815260040161092f90615ac4565b6001600160a01b03831660009081526010602052604090205460ff1661159c5760405162461bcd60e51b815260040161092f90615ac4565b6001600160a01b038085166000908152601060205260408082209286168252902060038083015460028085015492840154908401546113d99391908861449e565b6001600160a01b03821660009081526010602090815260408083208151608081018352815460ff16151581526001820154938101939093526002810154918301829052600301546060830181905260095460115461163d93919087614544565b949350505050565b6001600160a01b03821660009081526010602090815260408083208151608081018352815460ff16151581526001820154938101939093526002810154918301829052600301546060830181905260095460115461163d93919087613f59565b600c54600090610100900460ff16156116d05760405162461bcd60e51b815260040161092f90615a74565b600c805461ff001916610100179055600e54600160a01b900460ff166117085760405162461bcd60e51b815260040161092f90615a99565b6001600160a01b03841660009081526010602052604090205460ff166117405760405162461bcd60e51b815260040161092f90615ac4565b6001600160a01b0384166000908152601060205260409020600381015460028201546009546011546117759392919088613f59565b9150828210156117975760405162461bcd60e51b815260040161092f90615c58565b6001600160a01b03851660009081526010602052604090206003908101546117cb916109dc90670de0b6b3a7640000615b17565b8211156117ea5760405162461bcd60e51b815260040161092f90615b43565b6117f8816003015483613ec3565b600382015560006118098582613d24565b604080518581524260208201529192506001600160a01b038816913391600080516020615d51833981519152910160405180910390a3604051858152600080516020615d918339815191529060200160405180910390a161186a3386613f20565b611877610b0c8683613ec3565b60025461188d906001600160a01b031682613f36565b611898863385613f40565b6003546000906001600160a01b03888116911614156118c357506004546001600160a01b03166118d1565b506003546001600160a01b03165b60125460035460405163efd4810360e01b81526001600160a01b039283169263efd48103926119099291169085908b90600401615bbd565b602060405180830381865afa158015611926573d6000803e3d6000fd5b505050506040513d601f19601f8201168201806040525081019061194a9190615be1565b151560011415610d8457600380546001600160a01b0316600090815260106020526040812091820154600283015460095460115461198b939291908c613f59565b905061199b826003015482613ec3565b60038301556119ab886000613d24565b600c54604080518481524260208201529296506001600160a01b0386811693620100009093041691600080516020615d51833981519152910160405180910390a3600c54611a08906201000090046001600160a01b031689613f20565b611a15610b0c8986613ec3565b600254611a2b906001600160a01b031685613f36565b600c54611a499084906201000090046001600160a01b031683613f40565b6012546003546040516307b01ab360e41b81526001600160a01b039182166004820152858216602482015260448101849052606481018b9052911690637b01ab3090608401600060405180830381600087803b158015611aa857600080fd5b505af1158015611abc573d6000803e3d6000fd5b50505050600080516020615d7183398151915288604051610d7991815260200190565b600c54610100900460ff1615611b075760405162461bcd60e51b815260040161092f90615a74565b600c805461ff001916610100179055600e54600160a01b900460ff16611b3f5760405162461bcd60e51b815260040161092f90615a99565b6000611b4a60095490565b90506000611b5885836145d9565b905080611b775760405162461bcd60e51b815260040161092f90615b6e565b60005b600f54811015611cbf576000600f8281548110611b9957611b99615c7f565b60009182526020808320909101546001600160a01b03168083526010909152604082206003015490925090611bce8583613d24565b905080611bed5760405162461bcd60e51b815260040161092f90615b6e565b878785818110611bff57611bff615c7f565b90506020020135811115611c255760405162461bcd60e51b815260040161092f90615b97565b6001600160a01b038316600090815260106020526040902060030154611c4b90826146f1565b6001600160a01b038416600081815260106020526040908190206003019290925590513390600080516020615db183398151915290611c969085904290918252602082015260400190565b60405180910390a3611ca9833383614743565b5050508080611cb790615c95565b915050611b7a565b50611cc985614758565b611cd33386613f36565b604051858152600080516020615d918339815191529060200160405180910390a15050600c805461ff0019169055505050565b600c54600090610100900460ff1615611d315760405162461bcd60e51b815260040161092f90615a74565b600c805461ff001916610100179055600e54600160a01b900460ff16611d695760405162461bcd60e51b815260040161092f90615a99565b6001600160a01b03841660009081526010602052604090205460ff16611da15760405162461bcd60e51b815260040161092f90615ac4565b6001600160a01b038416600090815260106020526040902060030154611dd4906109e76002670de0b6b3a7640000615b17565b831115611df35760405162461bcd60e51b815260040161092f90615cb0565b6001600160a01b038416600090815260106020526040902060038101546002820154600954601154611e289392919088614544565b915082821015611e4a5760405162461bcd60e51b815260040161092f90615c58565b611e588160030154856146f1565b6003820155604080518581524260208201526001600160a01b038716913391600080516020615db1833981519152910160405180910390a3604051828152600080516020615d918339815191529060200160405180910390a1611eba82614758565b611ec43383613f36565b611ecf853386614743565b600380546001600160a01b031660009081526010602052604081209182015460028301546009546011548493611f09939092909189614761565b6003549091506001600160a01b0389811691161415611f35576004546001600160a01b03169150611f44565b6003546001600160a01b031691505b6012546003546040516326b1f01f60e01b81526001600160a01b03928316926326b1f01f92611f7c9291169086908690600401615bbd565b602060405180830381865afa158015611f99573d6000803e3d6000fd5b505050506040513d601f19601f82011682018060405250810190611fbd9190615be1565b1515600114156120e5576012546003546040516399039fcf60e01b81526001600160a01b03928316926399039fcf92611fff9291169086908690600401615bbd565b600060405180830381600087803b15801561201957600080fd5b505af115801561202d573d6000803e3d6000fd5b5050505061203f8360030154826146f1565b6003840155600c54604080518381524260208201526001600160a01b03858116936201000090041691600080516020615db1833981519152910160405180910390a3604051858152600080516020615d718339815191529060200160405180910390a16120ab85614758565b600c546120c7906201000090046001600160a01b031686613f36565b600c546120e59083906201000090046001600160a01b031683614743565b50505050600c805461ff00191690559392505050565b3360009081526008602090815260408083206001600160a01b038616845290915281205480831115612150573360009081526008602090815260408083206001600160a01b038816845290915281205561217f565b61215a8184613ec3565b3360009081526008602090815260408083206001600160a01b03891684529091529020555b3360008181526008602090815260408083206001600160a01b03891680855290835292819020549051908152919291600080516020615dd1833981519152910160405180910390a35060019392505050565b600c54600090610100900460ff16156121fc5760405162461bcd60e51b815260040161092f90615a74565b600c805461ff001916610100179055600e54600160a01b900460ff166122345760405162461bcd60e51b815260040161092f90615a99565b6001600160a01b03841660009081526010602052604090205460ff1661226c5760405162461bcd60e51b815260040161092f90615ac4565b6001600160a01b0384166000908152601060205260409020600381015460028201546009546011546122a19392919088614761565b9150816122c05760405162461bcd60e51b815260040161092f90615b6e565b828211156122e05760405162461bcd60e51b815260040161092f90615b97565b6001600160a01b038516600090815260106020526040902060030154612313906109e76002670de0b6b3a7640000615b17565b8211156123325760405162461bcd60e51b815260040161092f90615cb0565b6123408160030154836146f1565b6003820155604080518381524260208201526001600160a01b038716913391600080516020615db1833981519152910160405180910390a3604051848152600080516020615d918339815191529060200160405180910390a16123a284614758565b6123ac3385613f36565b6123b7853384614743565b600380546001600160a01b031660009081526010602052604081209182015460028301546009546011546123ee939291908a614761565b6003549091506000906001600160a01b038981169116141561241c57506004546001600160a01b031661242a565b506003546001600160a01b03165b6012546003546040516326b1f01f60e01b81526001600160a01b03928316926326b1f01f926124629291169085908790600401615bbd565b602060405180830381865afa15801561247f573d6000803e3d6000fd5b505050506040513d601f19601f820116820180604052508101906124a39190615be1565b1515600114156120e5576012546003546040516399039fcf60e01b81526001600160a01b03928316926399039fcf926124e59291169085908790600401615bbd565b600060405180830381600087803b1580156124ff57600080fd5b505af1158015612513573d6000803e3d6000fd5b505050506125258360030154836146f1565b6003840155600c54604080518481524260208201526001600160a01b03848116936201000090041691600080516020615db1833981519152910160405180910390a361257087614758565b600c5461258c906201000090046001600160a01b031688613f36565b600c546125aa9082906201000090046001600160a01b031684614743565b604051878152600080516020615d718339815191529060200160405180910390a150505050600c805461ff00191690559392505050565b60025460048054604051637c0aa57760e11b81526001600160a01b0391821692810192909252600092169063f8154aee90602401602060405180830381865afa158015612632573d6000803e3d6000fd5b505050506040513d601f19601f820116820180604052508101906126569190615cda565b905090565b600d546001600160a01b031633146126ad5760405162461bcd60e51b815260206004820152601560248201527427a7262c9026a0a925a2aa1021a7a62622a1aa27a960591b604482015260640161092f565b6001600160a01b0381166127035760405162461bcd60e51b815260206004820152601d60248201527f496e76616c6964205f6e6577436f6c6c6563746f722061646472657373000000604482015260640161092f565b600d80546001600160a01b0319166001600160a01b0383169081179091556040805133815260208101929092527f82aaf1a11850bc9b5eb1b7db8b4ad08629911d970a4d7539875938c4017e59b8910160405180910390a150565b610e99620f4240670de0b6b3a7640000615b17565b600c546000908190610100900460ff16156127a05760405162461bcd60e51b815260040161092f90615a74565b600c805461ff001916610100179055600e54600160a01b900460ff166127d85760405162461bcd60e51b815260040161092f90615a99565b6001600160a01b03871660009081526010602052604090205460ff166128105760405162461bcd60e51b815260040161092f90615ac4565b6001600160a01b03851660009081526010602052604090205460ff166128485760405162461bcd60e51b815260040161092f90615ac4565b6001600160a01b0380881660009081526010602052604080822092881682529020600380820154612885916109dc90670de0b6b3a7640000615b17565b8611156128a45760405162461bcd60e51b815260040161092f90615b43565b60006128c2836003015484600201548460030154856002015461426c565b90508581111561290a5760405162461bcd60e51b81526020600482015260136024820152724552525f4241445f4c494d49545f505249434560681b604482015260640161092f565b60008060405180608001604052808660030154815260200186600201548152602001856003015481526020018560020154815250905061294b818a8e6147fb565b90975091508a8711156129705760405162461bcd60e51b815260040161092f90615b97565b61297e8560030154836146f1565b856003018190555061299484600301548a613ec3565b6003808601829055860154600280880154908701546129b3939061426c565b9550828610156129d55760405162461bcd60e51b815260040161092f90615b6e565b87861115612a175760405162461bcd60e51b815260206004820152600f60248201526e4552525f4c494d49545f505249434560881b604482015260640161092f565b612a21878a6145d9565b831115612a405760405162461bcd60e51b815260040161092f90615b6e565b60408051888152602081018b9052428183015290516001600160a01b038c811692908f169133917f50ef2fc267012b5c84b56835f16ffd5331ac5a151a3760d74908721ba78b0efe919081900360600190a4612a9d8c3389614743565b612aa88a338b613f40565b5050505050600c805461ff001916905590969095509350505050565b6000612ace61339e565b905060005b8151811015612c5257600060066000848481518110612af457612af4615c7f565b60200260200101516001600160a01b03166001600160a01b03168152602001908152602001600020549050600060066000858581518110612b3757612b37615c7f565b60200260200101516001600160a01b03166001600160a01b0316815260200190815260200160002081905550612baf600d60009054906101000a90046001600160a01b031682858581518110612b8f57612b8f615c7f565b60200260200101516001600160a01b0316614a199092919063ffffffff16565b7f6b98b886762529d8027f347356f9ec147e1735888054ace831c0e3de7983ab3d33600d60009054906101000a90046001600160a01b0316858581518110612bf957612bf9615c7f565b602002602001015184604051612c3794939291906001600160a01b039485168152928416602084015292166040820152606081019190915260800190565b60405180910390a15080612c4a81615c95565b915050612ad3565b5050565b600c546000908190610100900460ff1615612c835760405162461bcd60e51b815260040161092f90615a74565b600c805461ff001916610100179055600e54600160a01b900460ff16612cbb5760405162461bcd60e51b815260040161092f90615a99565b6001600160a01b03871660009081526010602052604090205460ff16612cf35760405162461bcd60e51b815260040161092f90615ac4565b6001600160a01b03851660009081526010602052604090205460ff16612d2b5760405162461bcd60e51b815260040161092f90615ac4565b6001600160a01b03808816600090815260106020526040808220928816825290206003820154612d68906109e76002670de0b6b3a7640000615b17565b881115612d875760405162461bcd60e51b815260040161092f90615cb0565b6000612da5836003015484600201548460030154856002015461426c565b905085811115612ded5760405162461bcd60e51b81526020600482015260136024820152724552525f4241445f4c494d49545f505249434560681b604482015260640161092f565b600080604051806080016040528086600301548152602001866002015481526020018560030154815260200185600201548152509050612e2e818c8e614a7c565b909750915088871015612e535760405162461bcd60e51b815260040161092f90615c58565b612e618560030154836146f1565b8560030181905550612e77846003015488613ec3565b600380860182905586015460028088015490870154612e96939061426c565b955082861015612eb85760405162461bcd60e51b815260040161092f90615b6e565b87861115612efa5760405162461bcd60e51b815260206004820152600f60248201526e4552525f4c494d49545f505249434560881b604482015260640161092f565b612f048b886145d9565b831115612f235760405162461bcd60e51b815260040161092f90615b6e565b604080518c815260208101899052428183015290516001600160a01b038c811692908f169133917f50ef2fc267012b5c84b56835f16ffd5331ac5a151a3760d74908721ba78b0efe919081900360600190a4612f808c338d614743565b612aa88a3389613f40565b610e9964e8d4a51000670de0b6b3a7640000615b17565b600c54600090610100900460ff1615612fcd5760405162461bcd60e51b815260040161092f90615a74565b5060115490565b610e99670de0b6b3a76400006064615c39565b600c54600090610100900460ff16156130125760405162461bcd60e51b815260040161092f90615a74565b6001600160a01b03821660009081526010602052604090205460ff1661304a5760405162461bcd60e51b815260040161092f90615ac4565b506001600160a01b0381166000908152601060205260409020600201545b919050565b6060600b8054610da890615bfe565b61308f6003670de0b6b3a7640000615b17565b610e99906001615b2b565b6001600160a01b03821660009081526010602090815260408083208151608081018352815460ff16151581526001820154938101939093526002810154918301829052600301546060830181905260095460115461163d93919087613dff565b60006131073384846142e4565b50600192915050565b600c54610100900460ff16156131385760405162461bcd60e51b815260040161092f90615a74565b600c805461ff001916610100179055600e54600160a01b900460ff166131705760405162461bcd60e51b815260040161092f90615a99565b600061317b60095490565b9050600061318a856000613d24565b905060006131988683613ec3565b905060006131a682856145d9565b9050806131c55760405162461bcd60e51b815260040161092f90615b6e565b6131cf3388613f20565b6002546131e5906001600160a01b031684613f36565b6131ee82613f2a565b60005b600f54811015613336576000600f828154811061321057613210615c7f565b60009182526020808320909101546001600160a01b031680835260109091526040822060030154909250906132458583613d24565b9050806132645760405162461bcd60e51b815260040161092f90615b6e565b89898581811061327657613276615c7f565b9050602002013581101561329c5760405162461bcd60e51b815260040161092f90615c58565b6001600160a01b0383166000908152601060205260409020600301546132c29082613ec3565b6001600160a01b038416600081815260106020526040908190206003019290925590513390600080516020615d518339815191529061330d9085904290918252602082015260400190565b60405180910390a3613320833383613f40565b505050808061332e90615c95565b9150506131f1565b50604051878152600080516020615d918339815191529060200160405180910390a15050600c805461ff00191690555050505050565b610e99600a670de0b6b3a7640000615b17565b6001613394670de0b6b3a76400006002615c39565b610e999190615cf3565b600c54606090610100900460ff16156133c95760405162461bcd60e51b815260040161092f90615a74565b600e54600160a01b900460ff166133f25760405162461bcd60e51b815260040161092f90615a99565b600f805480602002602001604051908101604052809291908181526020018280548015610e2157602002820191906000526020600020905b81546001600160a01b0316815260019091019060200180831161342a575050505050905090565b601254600090600160a01b900460ff16156134ae5760405162461bcd60e51b815260206004820152601760248201527f4552525f414c52454144595f494e495449414c495a4544000000000000000000604482015260640161092f565b6001600160a01b0389166135045760405162461bcd60e51b815260206004820152601e60248201527f4552525f494e56414c49445f434f4e54524f4c4c45525f414444524553530000604482015260640161092f565b6001600160a01b03881661355a5760405162461bcd60e51b815260206004820152601b60248201527f4552525f494e56414c49445f464143544f52595f414444524553530000000000604482015260640161092f565b61356f620f4240670de0b6b3a7640000615b17565b8787600081811061358257613582615c7f565b9050602002013510156135c55760405162461bcd60e51b815260206004820152600b60248201526a4552525f4d494e5f46454560a81b604482015260640161092f565b6135d8600a670de0b6b3a7640000615b17565b878760008181106135eb576135eb615c7f565b90506020020135111561362e5760405162461bcd60e51b815260206004820152600b60248201526a4552525f4d41585f46454560a81b604482015260640161092f565b6136b48989898980806020026020016040519081016040528093929190818152602001838360200280828437600092019190915250506040805180820182528c93508b9250908a9060029083908390808284376000920191909152505060408051808201825291508a906002908390839080828437600092019190915250614c81915050565b9998505050505050505050565b60608060006136ce61339e565b90506000815167ffffffffffffffff8111156136ec576136ec615d0a565b604051908082528060200260200182016040528015613715578160200160208202803683370190505b5090506000825167ffffffffffffffff81111561373457613734615d0a565b60405190808252806020026020018201604052801561375d578160200160208202803683370190505b50905060005b83518110156138265783818151811061377e5761377e615c7f565b602002602001015183828151811061379857613798615c7f565b60200260200101906001600160a01b031690816001600160a01b031681525050600660008583815181106137ce576137ce615c7f565b60200260200101516001600160a01b03166001600160a01b031681526020019081526020016000205482828151811061380957613809615c7f565b60209081029190910101528061381e81615c95565b915050613763565b509094909350915050565b606080600061383e61339e565b90506000815167ffffffffffffffff81111561385c5761385c615d0a565b604051908082528060200260200182016040528015613885578160200160208202803683370190505b5090506000825167ffffffffffffffff8111156138a4576138a4615d0a565b6040519080825280602002602001820160405280156138cd578160200160208202803683370190505b50905060005b8351811015613826578381815181106138ee576138ee615c7f565b602002602001015183828151811061390857613908615c7f565b60200260200101906001600160a01b031690816001600160a01b0316815250506005600085838151811061393e5761393e615c7f565b60200260200101516001600160a01b03166001600160a01b031681526020019081526020016000205482828151811061397957613979615c7f565b60209081029190910101528061398e81615c95565b9150506138d3565b600c54606090610100900460ff16156133f25760405162461bcd60e51b815260040161092f90615a74565b3360009081526008602090815260408083206001600160a01b03861684529091528120546139ef90836146f1565b3360008181526008602090815260408083206001600160a01b03891680855290835292819020859055519384529092600080516020615dd18339815191529101610e74565b610e996002670de0b6b3a7640000615b17565b600c54600090610100900460ff1615613a725760405162461bcd60e51b815260040161092f90615a74565b6001600160a01b03821660009081526010602052604090205460ff16613aaa5760405162461bcd60e51b815260040161092f90615ac4565b6001600160a01b0382166000908152601060205260409020600201546011546113219082906145d9565b6000613ade61339e565b905060005b8151811015612c5257600060056000848481518110613b0457613b04615c7f565b60200260200101516001600160a01b03166001600160a01b03168152602001908152602001600020549050600060056000858581518110613b4757613b47615c7f565b60200260200101516001600160a01b03166001600160a01b0316815260200190815260200160002081905550613b9f600e60009054906101000a90046001600160a01b031682858581518110612b8f57612b8f615c7f565b7fe8e83bbe0f2a413d8e79dcb9ef4143cd967143e9d6b93c91d002c7eefdc507cc33600e60009054906101000a90046001600160a01b0316858581518110613be957613be9615c7f565b602002602001015184604051613c2794939291906001600160a01b039485168152928416602084015292166040820152606081019190915260800190565b60405180910390a15080613c3a81615c95565b915050613ae3565b600c54600090610100900460ff1615613c6d5760405162461bcd60e51b815260040161092f90615a74565b6001600160a01b03821660009081526010602052604090205460ff16613ca55760405162461bcd60e51b815260040161092f90615ac4565b506001600160a01b031660009081526010602052604090206003015490565b6001600160a01b03821660009081526010602090815260408083208151608081018352815460ff16151581526001820154938101939093526002810154918301829052600301546060830181905260095460115461163d93919087614761565b600080613d318385615c39565b9050831580613d48575082613d468583615b17565b145b613d875760405162461bcd60e51b815260206004820152601060248201526f4552525f4d554c5f4f564552464c4f5760801b604482015260640161092f565b6000613d9c6002670de0b6b3a7640000615b17565b613da69083615b2b565b905081811015613deb5760405162461bcd60e51b815260206004820152601060248201526f4552525f4d554c5f4f564552464c4f5760801b604482015260640161092f565b60006113d9670de0b6b3a764000083615b17565b600080613e0c86856145d9565b90506000613e22670de0b6b3a764000083613ec3565b90506000613e3282600154613d24565b90506000613e5186613e4c670de0b6b3a764000085613ec3565b6145d9565b90506000613e5f8b83613ec3565b90506000613e6d828d6145d9565b90506000613e7b8288614dbf565b90506000613e89828d613d24565b90506000613e978d83613ec3565b9050613eb081613e4c670de0b6b3a76400006000613ec3565b9f9e505050505050505050505050505050565b6000806000613ed28585614eeb565b915091508015613f185760405162461bcd60e51b81526020600482015260116024820152704552525f5355425f554e444552464c4f5760781b604482015260640161092f565b509392505050565b612c528282614f22565b613f3381614f2d565b50565b612c528282614ff9565b613f546001600160a01b0384168383614a19565b505050565b600080613f6686856145d9565b90506000613f81846109e7670de0b6b3a76400006000613ec3565b90506000613f8f8783613ec3565b90506000613f9d82896145d9565b90506000613fbc82613fb7670de0b6b3a7640000886145d9565b614dbf565b90506000613fca828d613d24565b90506000613fd88d83613ec3565b90506000613ff9613ff1670de0b6b3a76400008a613ec3565b600154613d24565b9050614011826109e7670de0b6b3a764000084613ec3565b9e9d5050505050505050505050505050565b600c546201000090046001600160a01b031633146140785760405162461bcd60e51b815260206004820152601260248201527122a9292fa727aa2fa1a7a72a2927a62622a960711b604482015260640161092f565b6001600160a01b03831660009081526010602052604090205460ff16156140d05760405162461bcd60e51b815260206004820152600c60248201526b11549497d254d7d093d5539160a21b604482015260640161092f565b600e54600160a01b900460ff161561411d5760405162461bcd60e51b815260206004820152601060248201526f11549497d254d7d1925390531256915160821b604482015260640161092f565b600f546002116141605760405162461bcd60e51b815260206004820152600e60248201526d4552525f4d41585f544f4b454e5360901b604482015260640161092f565b604080516080810182526001808252600f805460208085019182526000858701818152606087018281526001600160a01b038c1680845260109094529782209651875460ff1916901515178755925186860155915160028601559451600390940193909355805491820181559091527f8d1108e10bcb7c27dddfc02ed9d693a074039d026cf4ea4240b40f7d581ac8020180546001600160a01b0319169091179055613f54838383615004565b600e805460ff60a01b1916600160a01b179055600c805460ff60b01b1916600160b01b17905561424e614249670de0b6b3a76400006064615c39565b614758565b61426a33614265670de0b6b3a76400006064615c39565b613f36565b565b60008061427986866145d9565b9050600061428785856145d9565b9050600061429583836145d9565b905060006142d8670de0b6b3a7640000613e4c670de0b6b3a76400006000546142bc6125e1565b6001546142c99190615b2b565b6142d39190615b2b565b613ec3565b90506136b48282613d24565b6001600160a01b0383166000908152600760205260409020548111156143435760405162461bcd60e51b815260206004820152601460248201527311549497d25394d551919250d251539517d0905360621b604482015260640161092f565b6001600160a01b0383166000908152600760205260409020546143669082613ec3565b6001600160a01b03808516600090815260076020526040808220939093559084168152205461439590826146f1565b6001600160a01b0380841660008181526007602052604090819020939093559151908516907fddf252ad1be2c89b69c2b068fc378daa952ba7f163c4a11628f55a4df523b3ef906143e99085815260200190565b60405180910390a3505050565b60008061440384876145d9565b905060006144118685613ec3565b9050600061441f87836145d9565b9050600061442d8285614dbf565b905061444181670de0b6b3a7640000613ec3565b90506000805461444f6125e1565b60015461445c9190615b2b565b6144669190615b2b565b905061447a670de0b6b3a764000082613ec3565b955061448f6144898c84613d24565b876145d9565b9b9a5050505050505050505050565b6000806144ab86856145d9565b9050600080546144b96125e1565b6001546144c69190615b2b565b6144d09190615b2b565b905060006144e6670de0b6b3a764000083613ec3565b90506144f28582613d24565b905060006145048a613e4c8c856146f1565b905060006145128286614dbf565b90506000614528670de0b6b3a764000083613ec3565b90506145348a82613d24565b9c9b505050505050505050505050565b60008061455186856145d9565b9050600061456a613ff1670de0b6b3a764000084613ec3565b90506000614584856109e7670de0b6b3a764000085613ec3565b905060006145928a836146f1565b905060006145a0828c6145d9565b905060006145ae8287614dbf565b905060006145bc828c613d24565b90506145c8818c613ec3565b9d9c50505050505050505050505050565b6000816146175760405162461bcd60e51b815260206004820152600c60248201526b4552525f4449565f5a45524f60a01b604482015260640161092f565b600061462b670de0b6b3a764000085615c39565b905083158061464a5750670de0b6b3a76400006146488583615b17565b145b6146895760405162461bcd60e51b815260206004820152601060248201526f11549497d1125597d25395115493905360821b604482015260640161092f565b6000614696600285615b17565b6146a09083615b2b565b9050818110156146e55760405162461bcd60e51b815260206004820152601060248201526f11549497d1125597d25395115493905360821b604482015260640161092f565b60006113d98583615b17565b6000806146fe8385615b2b565b9050838110156113215760405162461bcd60e51b815260206004820152601060248201526f4552525f4144445f4f564552464c4f5760801b604482015260640161092f565b613f546001600160a01b038416833084615254565b613f338161527b565b60008061476e86856145d9565b9050600061477c86856146f1565b9050600061478a82886145d9565b905060006147a0670de0b6b3a7640000856145d9565b905060006147ae8383614dbf565b905060006147bc828d613d24565b905060006147ca828e613ec3565b905060006147e3613ff1670de0b6b3a76400008a613ec3565b905061401182613e4c670de0b6b3a764000084613ec3565b6000808061481886600360200201518760015b60200201516145d9565b9050600061482d876002602002015187613ec3565b905060006148428860026020020151836145d9565b905060006148508285614dbf565b905061486481670de0b6b3a7640000613ec3565b9050600080546148726125e1565b60015461487f9190615b2b565b6148899190615b2b565b8a519091506148ae9061489c9084613d24565b613e4c670de0b6b3a764000084613ec3565b965060006148ce886142d38a6109e7670de0b6b3a76400006142d36125e1565b6001600160a01b038a166000908152600560205260409020549091506148f490826146f1565b600560008b6001600160a01b03166001600160a01b0316815260200190815260200160002081905550600061493b896142d38b6109e7670de0b6b3a7640000600054613ec3565b6001600160a01b038b1660009081526006602052604090205490915061496190826146f1565b6001600160a01b038b166000908152600660205260409020558b5161499e9061498a9086613d24565b613e4c670de0b6b3a7640000600154613ec3565b97507f90d9f1d0641138b6407ac37bea3a905d63a371c2d91a484f68d59924634d4ef36149dd8a6142d38c6109e7670de0b6b3a7640000600154613ec3565b604080519182526020820185905281018390526001600160a01b038c16606082015260800160405180910390a150505050505050935093915050565b6040516001600160a01b038316602482015260448101829052613f5490849063a9059cbb60e01b906064015b60408051601f198184030181529190526020810180516001600160e01b03166001600160e01b0319909316929092179091526152ea565b60008080614a93866001602002015187600361480e565b90506000614ab3866142d3886109e7670de0b6b3a76400006142d36125e1565b6001600160a01b038616600090815260056020526040902054909150614ad990826146f1565b60056000876001600160a01b03166001600160a01b03168152602001908152602001600020819055506000614b20876142d3896109e7670de0b6b3a7640000600054613ec3565b6001600160a01b038716600090815260066020526040902054909150614b4690826146f1565b6001600160a01b0387166000908152600660205260408120919091558054614b6c6125e1565b600154614b799190615b2b565b614b839190615b2b565b90507f90d9f1d0641138b6407ac37bea3a905d63a371c2d91a484f68d59924634d4ef3614bc2896142d38b6109e7670de0b6b3a7640000600154613ec3565b604080519182526020820186905281018490526001600160a01b038916606082015260800160405180910390a16000614c03670de0b6b3a764000083613ec3565b9050614c0f8982613d24565b8a51909150600090614c2590613e4c81856146f1565b90506000614c338288614dbf565b90506000614c49670de0b6b3a764000083613ec3565b9050614c5c8d6002602002015182613d24565b995089614c6d8d6142d3898b615b2b565b995099505050505050505050935093915050565b600c805462010000600160b01b031916620100006001600160a01b038a81169190910291909117909155600280546001600160a01b031916918816919091179055845160009086908290614cd757614cd7615c7f565b602002602001015160018190555085600181518110614cf857614cf8615c7f565b602090810291909101810151600055600c8054961515600160b01b0260ff60b01b199097169690961795869055600e80548551600380546001600160a01b039283166001600160a01b03199182161790915596840151600480549183169189169190911790558551600d805491831691891691909117905594909201518416951515600160a01b908102959095166001600160a81b0319928316179590951790945550601280549093166201000090940416929092178217908190550460ff169392505050565b60006001831015614e0a5760405162461bcd60e51b81526020600482015260156024820152744552525f42504f575f424153455f544f4f5f4c4f5760581b604482015260640161092f565b6001614e1f670de0b6b3a76400006002615c39565b614e299190615cf3565b831115614e715760405162461bcd60e51b815260206004820152601660248201527508aa4a4be84a09eaebe8482a68abea89e9ebe90928e960531b604482015260640161092f565b6000614e7c836153bc565b90506000614e8a8483613ec3565b90506000614ea086614e9b856153da565b6153ee565b905081614eb1579250610e80915050565b6000614ed48784614ecf6402540be400670de0b6b3a7640000615b17565b615462565b9050614ee08282613d24565b979650505050505050565b600080828410614f0a57614eff8385615cf3565b600091509150614f1b565b614f148484615cf3565b6001915091505b9250929050565b612c528230836142e4565b30600090815260076020526040902054811115614f835760405162461bcd60e51b815260206004820152601460248201527311549497d25394d551919250d251539517d0905360621b604482015260640161092f565b30600090815260076020526040902054614f9d9082613ec3565b30600090815260076020526040902055600954614fba9082613ec3565b60095560405181815260009030907fddf252ad1be2c89b69c2b068fc378daa952ba7f163c4a11628f55a4df523b3ef906020015b60405180910390a350565b612c523083836142e4565b670de0b6b3a764000081101561504d5760405162461bcd60e51b815260206004820152600e60248201526d11549497d3525397d5d15251d21560921b604482015260640161092f565b615060670de0b6b3a76400006032615c39565b8111156150a05760405162461bcd60e51b815260206004820152600e60248201526d11549497d3505617d5d15251d21560921b604482015260640161092f565b6150b764e8d4a51000670de0b6b3a7640000615b17565b8210156150f85760405162461bcd60e51b815260206004820152600f60248201526e4552525f4d494e5f42414c414e434560881b604482015260640161092f565b6001600160a01b038316600090815260106020526040902060020154808211156151945761513160115461512c8484613ec3565b6146f1565b601155615147670de0b6b3a76400006032615c39565b601154111561518f5760405162461bcd60e51b815260206004820152601460248201527311549497d3505617d513d5105317d5d15251d21560621b604482015260640161092f565b6151b0565b808210156151b0576151ac6011546142d38385613ec3565b6011555b6001600160a01b038416600090815260106020526040902060028101839055600301805490849055808411156151f9576151f485336151ef8785613ec3565b614743565b61524d565b8084101561524d57600061520d8286613ec3565b9050600061521c826000613d24565b9050615232873361522d8585613ec3565b613f40565b60025461524a9088906001600160a01b031683613f40565b50505b5050505050565b615275846323b872dd60e01b858585604051602401614a4593929190615bbd565b50505050565b3060009081526007602052604090205461529590826146f1565b306000908152600760205260409020556009546152b290826146f1565b60095560405181815230906000907fddf252ad1be2c89b69c2b068fc378daa952ba7f163c4a11628f55a4df523b3ef90602001614fee565b600061533f826040518060400160405280602081526020017f5361666545524332303a206c6f772d6c6576656c2063616c6c206661696c6564815250856001600160a01b03166155529092919063ffffffff16565b805190915015613f54578080602001905181019061535d9190615be1565b613f545760405162461bcd60e51b815260206004820152602a60248201527f5361666545524332303a204552433230206f7065726174696f6e20646964206e6044820152691bdd081cdd58d8d9595960b21b606482015260840161092f565b6000670de0b6b3a76400006153d0836153da565b610e809190615c39565b6000610e80670de0b6b3a764000083615b17565b600082816153fd600285615d20565b61540f57670de0b6b3a7640000615411565b815b905061541e600285615b17565b93505b831561163d576154318283613d24565b915061543e600285615d20565b156154505761544d8183613d24565b90505b61545b600285615b17565b9350615421565b600082818061547987670de0b6b3a7640000614eeb565b9092509050670de0b6b3a764000080600060015b8884106155435760006154a8670de0b6b3a764000083615c39565b90506000806154c88a6154c385670de0b6b3a7640000613ec3565b614eeb565b915091506154da876109e7848c613d24565b96506154e687846145d9565b9650866154f557505050615543565b87156154ff579315935b8015615509579315935b8415615520576155198688613ec3565b955061552d565b61552a86886146f1565b95505b505050808061553b90615c95565b91505061548d565b50909998505050505050505050565b606061163d848460008585843b6155ab5760405162461bcd60e51b815260206004820152601d60248201527f416464726573733a2063616c6c20746f206e6f6e2d636f6e7472616374000000604482015260640161092f565b600080866001600160a01b031685876040516155c79190615d34565b60006040518083038185875af1925050503d8060008114615604576040519150601f19603f3d011682016040523d82523d6000602084013e615609565b606091505b5091509150614ee082828660608315615623575081611321565b8251156156335782518084602001fd5b8160405162461bcd60e51b815260040161092f91906156c3565b80356001600160a01b038116811461306857600080fd5b60008060006060848603121561567957600080fd5b6156828461564d565b95602085013595506040909401359392505050565b60005b838110156156b257818101518382015260200161569a565b838111156152755750506000910152565b60208152600082518060208401526156e2816040850160208701615697565b601f01601f19169190910160400192915050565b6000806040838503121561570957600080fd5b6157128361564d565b946020939093013593505050565b60008060008060008060c0878903121561573957600080fd5b6157428761564d565b9550602087013594506040870135935061575e6060880161564d565b92506080870135915060a087013590509295509295509295565b6000806040838503121561578b57600080fd5b6157948361564d565b91506157a26020840161564d565b90509250929050565b6000806000606084860312156157c057600080fd5b6157c98461564d565b92506157d76020850161564d565b9150604084013590509250925092565b6000602082840312156157f957600080fd5b6113218261564d565b60006020828403121561581457600080fd5b5035919050565b60008083601f84011261582d57600080fd5b50813567ffffffffffffffff81111561584557600080fd5b6020830191508360208260051b8501011115614f1b57600080fd5b60008060006040848603121561587557600080fd5b83359250602084013567ffffffffffffffff81111561589357600080fd5b61589f8682870161581b565b9497909650939450505050565b600080600080600060a086880312156158c457600080fd5b6158cd8661564d565b9450602086013593506158e26040870161564d565b94979396509394606081013594506080013592915050565b600081518084526020808501945080840160005b838110156159335781516001600160a01b03168752958201959082019060010161590e565b509495945050505050565b60208152600061132160208301846158fa565b8015158114613f3357600080fd5b8060408101831015610e8057600080fd5b600080600080600080600080610120898b03121561598d57600080fd5b6159968961564d565b97506159a460208a0161564d565b9650604089013567ffffffffffffffff8111156159c057600080fd5b6159cc8b828c0161581b565b90975095505060608901356159e081615951565b935060808901356159f081615951565b92506159ff8a60a08b0161595f565b9150615a0e8a60e08b0161595f565b90509295985092959890939650565b604081526000615a3060408301856158fa565b82810360208481019190915284518083528582019282019060005b81811015615a6757845183529383019391830191600101615a4b565b5090979650505050505050565b6020808252600b908201526a4552525f5245454e54525960a81b604082015260600190565b60208082526011908201527011549497d393d517d19253905312569151607a1b604082015260600190565b6020808252600d908201526c11549497d393d517d093d55391609a1b604082015260600190565b634e487b7160e01b600052601260045260246000fd5b634e487b7160e01b600052601160045260246000fd5b600082615b2657615b26615aeb565b500490565b60008219821115615b3e57615b3e615b01565b500190565b6020808252601190820152704552525f4d41585f4f55545f524154494f60781b604082015260600190565b6020808252600f908201526e08aa4a4be9a82a890be82a0a0a49eb608b1b604082015260600190565b6020808252600c908201526b22a9292fa624a6a4aa2fa4a760a11b604082015260600190565b6001600160a01b039384168152919092166020820152604081019190915260600190565b600060208284031215615bf357600080fd5b815161132181615951565b600181811c90821680615c1257607f821691505b60208210811415615c3357634e487b7160e01b600052602260045260246000fd5b50919050565b6000816000190483118215151615615c5357615c53615b01565b500290565b6020808252600d908201526c11549497d31253525517d3d555609a1b604082015260600190565b634e487b7160e01b600052603260045260246000fd5b6000600019821415615ca957615ca9615b01565b5060010190565b60208082526010908201526f4552525f4d41585f494e5f524154494f60801b604082015260600190565b600060208284031215615cec57600080fd5b5051919050565b600082821015615d0557615d05615b01565b500390565b634e487b7160e01b600052604160045260246000fd5b600082615d2f57615d2f615aeb565b500690565b60008251615d46818460208701615697565b919091019291505056fe9d9058fd2f25ccc389fec7720abef0ca83472f5abfafd5f10d37f51e6a0493f387b3975661762d852ddf2eeaad6a43b2d93777de7b3b7bdb634283df32456118fcda32798d5a9d032f49b37fea876d422f18f6e386e0f07db6029b693624b2c215a8ca63e37b2cff1677df2b6b82d36fcf8a524228bd7a4b4d02d107c28c1e8a8c5be1e5ebec7d5bd14f71427d1e84f3dd0314c0f7b2291e5b200ac8c7c3b925a264697066735822122062ea9d06adc924cc62f9793ace074cb33b8efa7315d4524fa498c23efb02e68464736f6c634300080a0033",
  "linkReferences": {},
  "deployedLinkReferences": {}
}