{
  "_format": "hh-sol-artifact-1",
  "contractName": "BPool",
  "sourceName": "contracts/pools/balancer/BPool.sol",
  "abi": [
    {
      "anonymous": false,
      "inputs": [
        {
          "indexed": true,
          "internalType": "address",
          "name": "src",
          "type": "address"
        },
        {
          "indexed": true,
          "internalType": "address",
          "name": "dst",
          "type": "address"
        },
        {
          "indexed": false,
          "internalType": "uint256",
          "name": "amt",
          "type": "uint256"
        }
      ],
      "name": "Approval",
      "type": "event"
    },
    {
      "anonymous": false,
      "inputs": [
        {
          "indexed": false,
          "internalType": "address",
          "name": "to",
          "type": "address"
        },
        {
          "indexed": false,
          "internalType": "address",
          "name": "token",
          "type": "address"
        },
        {
          "indexed": false,
          "internalType": "uint256",
          "name": "amount",
          "type": "uint256"
        }
      ],
      "name": "ConsumeMarketFee",
      "type": "event"
    },
    {
      "anonymous": false,
      "inputs": [
        {
          "indexed": false,
          "internalType": "address",
          "name": "token",
          "type": "address"
        },
        {
          "indexed": false,
          "internalType": "uint256",
          "name": "oldBalance",
          "type": "uint256"
        },
        {
          "indexed": false,
          "internalType": "uint256",
          "name": "newBalance",
          "type": "uint256"
        }
      ],
      "name": "Gulped",
      "type": "event"
    },
    {
      "anonymous": false,
      "inputs": [
        {
          "indexed": false,
          "internalType": "uint256",
          "name": "bptAmount",
          "type": "uint256"
        }
      ],
      "name": "LOG_BPT",
      "type": "event"
    },
    {
      "anonymous": false,
      "inputs": [
        {
          "indexed": false,
          "internalType": "uint256",
          "name": "bptAmount",
          "type": "uint256"
        }
      ],
      "name": "LOG_BPT_SS",
      "type": "event"
    },
    {
      "anonymous": false,
      "inputs": [
        {
          "indexed": true,
          "internalType": "bytes4",
          "name": "sig",
          "type": "bytes4"
        },
        {
          "indexed": true,
          "internalType": "address",
          "name": "caller",
          "type": "address"
        },
        {
          "indexed": false,
          "internalType": "uint256",
          "name": "timestamp",
          "type": "uint256"
        },
        {
          "indexed": false,
          "internalType": "bytes",
          "name": "data",
          "type": "bytes"
        }
      ],
      "name": "LOG_CALL",
      "type": "event"
    },
    {
      "anonymous": false,
      "inputs": [
        {
          "indexed": true,
          "internalType": "address",
          "name": "caller",
          "type": "address"
        },
        {
          "indexed": true,
          "internalType": "address",
          "name": "tokenOut",
          "type": "address"
        },
        {
          "indexed": false,
          "internalType": "uint256",
          "name": "tokenAmountOut",
          "type": "uint256"
        },
        {
          "indexed": false,
          "internalType": "uint256",
          "name": "timestamp",
          "type": "uint256"
        }
      ],
      "name": "LOG_EXIT",
      "type": "event"
    },
    {
      "anonymous": false,
      "inputs": [
        {
          "indexed": true,
          "internalType": "address",
          "name": "caller",
          "type": "address"
        },
        {
          "indexed": true,
          "internalType": "address",
          "name": "tokenIn",
          "type": "address"
        },
        {
          "indexed": false,
          "internalType": "uint256",
          "name": "tokenAmountIn",
          "type": "uint256"
        },
        {
          "indexed": false,
          "internalType": "uint256",
          "name": "timestamp",
          "type": "uint256"
        }
      ],
      "name": "LOG_JOIN",
      "type": "event"
    },
    {
      "anonymous": false,
      "inputs": [
        {
          "indexed": true,
          "internalType": "address",
          "name": "caller",
          "type": "address"
        },
        {
          "indexed": true,
          "internalType": "address",
          "name": "baseToken",
          "type": "address"
        },
        {
          "indexed": false,
          "internalType": "uint256",
          "name": "baseTokenAmountIn",
          "type": "uint256"
        },
        {
          "indexed": false,
          "internalType": "uint256",
          "name": "baseTokenWeight",
          "type": "uint256"
        },
        {
          "indexed": true,
          "internalType": "address",
          "name": "datatoken",
          "type": "address"
        },
        {
          "indexed": false,
          "internalType": "uint256",
          "name": "datatokenAmountIn",
          "type": "uint256"
        },
        {
          "indexed": false,
          "internalType": "uint256",
          "name": "datatokenWeight",
          "type": "uint256"
        }
      ],
      "name": "LOG_SETUP",
      "type": "event"
    },
    {
      "anonymous": false,
      "inputs": [
        {
          "indexed": true,
          "internalType": "address",
          "name": "caller",
          "type": "address"
        },
        {
          "indexed": true,
          "internalType": "address",
          "name": "tokenIn",
          "type": "address"
        },
        {
          "indexed": true,
          "internalType": "address",
          "name": "tokenOut",
          "type": "address"
        },
        {
          "indexed": false,
          "internalType": "uint256",
          "name": "tokenAmountIn",
          "type": "uint256"
        },
        {
          "indexed": false,
          "internalType": "uint256",
          "name": "tokenAmountOut",
          "type": "uint256"
        },
        {
          "indexed": false,
          "internalType": "uint256",
          "name": "timestamp",
          "type": "uint256"
        },
        {
          "indexed": false,
          "internalType": "uint256",
          "name": "inBalance",
          "type": "uint256"
        },
        {
          "indexed": false,
          "internalType": "uint256",
          "name": "outBalance",
          "type": "uint256"
        },
        {
          "indexed": false,
          "internalType": "uint256",
          "name": "newSpotPrice",
          "type": "uint256"
        }
      ],
      "name": "LOG_SWAP",
      "type": "event"
    },
    {
      "anonymous": false,
      "inputs": [
        {
          "indexed": false,
          "internalType": "address",
          "name": "caller",
          "type": "address"
        },
        {
          "indexed": false,
          "internalType": "address",
          "name": "OPCWallet",
          "type": "address"
        },
        {
          "indexed": false,
          "internalType": "address",
          "name": "token",
          "type": "address"
        },
        {
          "indexed": false,
          "internalType": "uint256",
          "name": "amount",
          "type": "uint256"
        }
      ],
      "name": "OPCFee",
      "type": "event"
    },
    {
      "anonymous": false,
      "inputs": [
        {
          "indexed": false,
          "internalType": "address",
          "name": "caller",
          "type": "address"
        },
        {
          "indexed": false,
          "internalType": "address",
          "name": "marketAddress",
          "type": "address"
        },
        {
          "indexed": false,
          "internalType": "address",
          "name": "token",
          "type": "address"
        },
        {
          "indexed": false,
          "internalType": "uint256",
          "name": "amount",
          "type": "uint256"
        }
      ],
      "name": "PublishMarketFee",
      "type": "event"
    },
    {
      "anonymous": false,
      "inputs": [
        {
          "indexed": false,
          "internalType": "address",
          "name": "caller",
          "type": "address"
        },
        {
          "indexed": false,
          "internalType": "address",
          "name": "newMarketCollector",
          "type": "address"
        },
        {
          "indexed": false,
          "internalType": "uint256",
          "name": "swapFee",
          "type": "uint256"
        }
      ],
      "name": "PublishMarketFeeChanged",
      "type": "event"
    },
    {
      "anonymous": false,
      "inputs": [
        {
          "indexed": false,
          "internalType": "uint256",
          "name": "LPFeeAmount",
          "type": "uint256"
        },
        {
          "indexed": false,
          "internalType": "uint256",
          "name": "oceanFeeAmount",
          "type": "uint256"
        },
        {
          "indexed": false,
          "internalType": "uint256",
          "name": "marketFeeAmount",
          "type": "uint256"
        },
        {
          "indexed": false,
          "internalType": "uint256",
          "name": "consumeMarketFeeAmount",
          "type": "uint256"
        },
        {
          "indexed": false,
          "internalType": "address",
          "name": "tokenFeeAddress",
          "type": "address"
        }
      ],
      "name": "SWAP_FEES",
      "type": "event"
    },
    {
      "anonymous": false,
      "inputs": [
        {
          "indexed": false,
          "internalType": "address",
          "name": "caller",
          "type": "address"
        },
        {
          "indexed": false,
          "internalType": "uint256",
          "name": "amount",
          "type": "uint256"
        }
      ],
      "name": "SwapFeeChanged",
      "type": "event"
    },
    {
      "anonymous": false,
      "inputs": [
        {
          "indexed": true,
          "internalType": "address",
          "name": "src",
          "type": "address"
        },
        {
          "indexed": true,
          "internalType": "address",
          "name": "dst",
          "type": "address"
        },
        {
          "indexed": false,
          "internalType": "uint256",
          "name": "amt",
          "type": "uint256"
        }
      ],
      "name": "Transfer",
      "type": "event"
    },
    {
      "inputs": [],
      "name": "BONE",
      "outputs": [
        {
          "internalType": "uint256",
          "name": "",
          "type": "uint256"
        }
      ],
      "stateMutability": "view",
      "type": "function"
    },
    {
      "inputs": [],
      "name": "BPOW_PRECISION",
      "outputs": [
        {
          "internalType": "uint256",
          "name": "",
          "type": "uint256"
        }
      ],
      "stateMutability": "view",
      "type": "function"
    },
    {
      "inputs": [],
      "name": "EXIT_FEE",
      "outputs": [
        {
          "internalType": "uint256",
          "name": "",
          "type": "uint256"
        }
      ],
      "stateMutability": "view",
      "type": "function"
    },
    {
      "inputs": [],
      "name": "INIT_POOL_SUPPLY",
      "outputs": [
        {
          "internalType": "uint256",
          "name": "",
          "type": "uint256"
        }
      ],
      "stateMutability": "view",
      "type": "function"
    },
    {
      "inputs": [],
      "name": "MAX_BOUND_TOKENS",
      "outputs": [
        {
          "internalType": "uint256",
          "name": "",
          "type": "uint256"
        }
      ],
      "stateMutability": "view",
      "type": "function"
    },
    {
      "inputs": [],
      "name": "MAX_BPOW_BASE",
      "outputs": [
        {
          "internalType": "uint256",
          "name": "",
          "type": "uint256"
        }
      ],
      "stateMutability": "view",
      "type": "function"
    },
    {
      "inputs": [],
      "name": "MAX_FEE",
      "outputs": [
        {
          "internalType": "uint256",
          "name": "",
          "type": "uint256"
        }
      ],
      "stateMutability": "view",
      "type": "function"
    },
    {
      "inputs": [],
      "name": "MAX_IN_RATIO",
      "outputs": [
        {
          "internalType": "uint256",
          "name": "",
          "type": "uint256"
        }
      ],
      "stateMutability": "view",
      "type": "function"
    },
    {
      "inputs": [],
      "name": "MAX_OUT_RATIO",
      "outputs": [
        {
          "internalType": "uint256",
          "name": "",
          "type": "uint256"
        }
      ],
      "stateMutability": "view",
      "type": "function"
    },
    {
      "inputs": [],
      "name": "MAX_TOTAL_WEIGHT",
      "outputs": [
        {
          "internalType": "uint256",
          "name": "",
          "type": "uint256"
        }
      ],
      "stateMutability": "view",
      "type": "function"
    },
    {
      "inputs": [],
      "name": "MAX_WEIGHT",
      "outputs": [
        {
          "internalType": "uint256",
          "name": "",
          "type": "uint256"
        }
      ],
      "stateMutability": "view",
      "type": "function"
    },
    {
      "inputs": [],
      "name": "MIN_BALANCE",
      "outputs": [
        {
          "internalType": "uint256",
          "name": "",
          "type": "uint256"
        }
      ],
      "stateMutability": "view",
      "type": "function"
    },
    {
      "inputs": [],
      "name": "MIN_BOUND_TOKENS",
      "outputs": [
        {
          "internalType": "uint256",
          "name": "",
          "type": "uint256"
        }
      ],
      "stateMutability": "view",
      "type": "function"
    },
    {
      "inputs": [],
      "name": "MIN_BPOW_BASE",
      "outputs": [
        {
          "internalType": "uint256",
          "name": "",
          "type": "uint256"
        }
      ],
      "stateMutability": "view",
      "type": "function"
    },
    {
      "inputs": [],
      "name": "MIN_FEE",
      "outputs": [
        {
          "internalType": "uint256",
          "name": "",
          "type": "uint256"
        }
      ],
      "stateMutability": "view",
      "type": "function"
    },
    {
      "inputs": [],
      "name": "MIN_WEIGHT",
      "outputs": [
        {
          "internalType": "uint256",
          "name": "",
          "type": "uint256"
        }
      ],
      "stateMutability": "view",
      "type": "function"
    },
    {
      "inputs": [],
      "name": "_publishMarketCollector",
      "outputs": [
        {
          "internalType": "address",
          "name": "",
          "type": "address"
        }
      ],
      "stateMutability": "view",
      "type": "function"
    },
    {
      "inputs": [],
      "name": "_swapPublishMarketFee",
      "outputs": [
        {
          "internalType": "uint256",
          "name": "",
          "type": "uint256"
        }
      ],
      "stateMutability": "view",
      "type": "function"
    },
    {
      "inputs": [
        {
          "internalType": "address",
          "name": "src",
          "type": "address"
        },
        {
          "internalType": "address",
          "name": "dst",
          "type": "address"
        }
      ],
      "name": "allowance",
      "outputs": [
        {
          "internalType": "uint256",
          "name": "",
          "type": "uint256"
        }
      ],
      "stateMutability": "view",
      "type": "function"
    },
    {
      "inputs": [
        {
          "internalType": "address",
          "name": "dst",
          "type": "address"
        },
        {
          "internalType": "uint256",
          "name": "amt",
          "type": "uint256"
        }
      ],
      "name": "approve",
      "outputs": [
        {
          "internalType": "bool",
          "name": "",
          "type": "bool"
        }
      ],
      "stateMutability": "nonpayable",
      "type": "function"
    },
    {
      "inputs": [
        {
          "internalType": "address",
          "name": "whom",
          "type": "address"
        }
      ],
      "name": "balanceOf",
      "outputs": [
        {
          "internalType": "uint256",
          "name": "",
          "type": "uint256"
        }
      ],
      "stateMutability": "view",
      "type": "function"
    },
    {
      "inputs": [
        {
          "internalType": "uint256[4]",
          "name": "data",
          "type": "uint256[4]"
        },
        {
          "internalType": "uint256",
          "name": "tokenAmountOut",
          "type": "uint256"
        },
        {
          "internalType": "uint256",
          "name": "_consumeMarketSwapFee",
          "type": "uint256"
        }
      ],
      "name": "calcInGivenOut",
      "outputs": [
        {
          "internalType": "uint256",
          "name": "tokenAmountIn",
          "type": "uint256"
        },
        {
          "internalType": "uint256",
          "name": "tokenAmountInBalance",
          "type": "uint256"
        },
        {
          "components": [
            {
              "internalType": "uint256",
              "name": "LPFee",
              "type": "uint256"
            },
            {
              "internalType": "uint256",
              "name": "oceanFeeAmount",
              "type": "uint256"
            },
            {
              "internalType": "uint256",
              "name": "publishMarketFeeAmount",
              "type": "uint256"
            },
            {
              "internalType": "uint256",
              "name": "consumeMarketFee",
              "type": "uint256"
            }
          ],
          "internalType": "struct BMath.swapfees",
          "name": "_swapfees",
          "type": "tuple"
        }
      ],
      "stateMutability": "view",
      "type": "function"
    },
    {
      "inputs": [
        {
          "internalType": "uint256[4]",
          "name": "data",
          "type": "uint256[4]"
        },
        {
          "internalType": "uint256",
          "name": "tokenAmountIn",
          "type": "uint256"
        },
        {
          "internalType": "uint256",
          "name": "_consumeMarketSwapFee",
          "type": "uint256"
        }
      ],
      "name": "calcOutGivenIn",
      "outputs": [
        {
          "internalType": "uint256",
          "name": "tokenAmountOut",
          "type": "uint256"
        },
        {
          "internalType": "uint256",
          "name": "balanceInToAdd",
          "type": "uint256"
        },
        {
          "components": [
            {
              "internalType": "uint256",
              "name": "LPFee",
              "type": "uint256"
            },
            {
              "internalType": "uint256",
              "name": "oceanFeeAmount",
              "type": "uint256"
            },
            {
              "internalType": "uint256",
              "name": "publishMarketFeeAmount",
              "type": "uint256"
            },
            {
              "internalType": "uint256",
              "name": "consumeMarketFee",
              "type": "uint256"
            }
          ],
          "internalType": "struct BMath.swapfees",
          "name": "_swapfees",
          "type": "tuple"
        }
      ],
      "stateMutability": "view",
      "type": "function"
    },
    {
      "inputs": [
        {
          "internalType": "address",
          "name": "tokenOut",
          "type": "address"
        },
        {
          "internalType": "uint256",
          "name": "tokenAmountOut",
          "type": "uint256"
        }
      ],
      "name": "calcPoolInSingleOut",
      "outputs": [
        {
          "internalType": "uint256",
          "name": "poolAmountIn",
          "type": "uint256"
        }
      ],
      "stateMutability": "view",
      "type": "function"
    },
    {
      "inputs": [
        {
          "internalType": "address",
          "name": "tokenIn",
          "type": "address"
        },
        {
          "internalType": "uint256",
          "name": "tokenAmountIn",
          "type": "uint256"
        }
      ],
      "name": "calcPoolOutSingleIn",
      "outputs": [
        {
          "internalType": "uint256",
          "name": "poolAmountOut",
          "type": "uint256"
        }
      ],
      "stateMutability": "view",
      "type": "function"
    },
    {
      "inputs": [
        {
          "internalType": "address",
          "name": "tokenIn",
          "type": "address"
        },
        {
          "internalType": "uint256",
          "name": "poolAmountOut",
          "type": "uint256"
        }
      ],
      "name": "calcSingleInPoolOut",
      "outputs": [
        {
          "internalType": "uint256",
          "name": "tokenAmountIn",
          "type": "uint256"
        }
      ],
      "stateMutability": "view",
      "type": "function"
    },
    {
      "inputs": [
        {
          "internalType": "address",
          "name": "tokenOut",
          "type": "address"
        },
        {
          "internalType": "uint256",
          "name": "poolAmountIn",
          "type": "uint256"
        }
      ],
      "name": "calcSingleOutPoolIn",
      "outputs": [
        {
          "internalType": "uint256",
          "name": "tokenAmountOut",
          "type": "uint256"
        }
      ],
      "stateMutability": "view",
      "type": "function"
    },
    {
      "inputs": [],
      "name": "collectMarketFee",
      "outputs": [],
      "stateMutability": "nonpayable",
      "type": "function"
    },
    {
      "inputs": [],
      "name": "collectOPC",
      "outputs": [],
      "stateMutability": "nonpayable",
      "type": "function"
    },
    {
      "inputs": [
        {
          "internalType": "address",
          "name": "",
          "type": "address"
        }
      ],
      "name": "communityFees",
      "outputs": [
        {
          "internalType": "uint256",
          "name": "",
          "type": "uint256"
        }
      ],
      "stateMutability": "view",
      "type": "function"
    },
    {
      "inputs": [],
      "name": "decimals",
      "outputs": [
        {
          "internalType": "uint8",
          "name": "",
          "type": "uint8"
        }
      ],
      "stateMutability": "view",
      "type": "function"
    },
    {
      "inputs": [
        {
          "internalType": "address",
          "name": "dst",
          "type": "address"
        },
        {
          "internalType": "uint256",
          "name": "amt",
          "type": "uint256"
        }
      ],
      "name": "decreaseApproval",
      "outputs": [
        {
          "internalType": "bool",
          "name": "",
          "type": "bool"
        }
      ],
      "stateMutability": "nonpayable",
      "type": "function"
    },
    {
      "inputs": [
        {
          "internalType": "uint256",
          "name": "poolAmountIn",
          "type": "uint256"
        },
        {
          "internalType": "uint256",
          "name": "minAmountOut",
          "type": "uint256"
        }
      ],
      "name": "exitswapPoolAmountIn",
      "outputs": [
        {
          "internalType": "uint256",
          "name": "tokenAmountOut",
          "type": "uint256"
        }
      ],
      "stateMutability": "nonpayable",
      "type": "function"
    },
    {
      "inputs": [
        {
          "internalType": "address",
          "name": "tokenIn",
          "type": "address"
        },
        {
          "internalType": "address",
          "name": "tokenOut",
          "type": "address"
        },
        {
          "internalType": "uint256",
          "name": "tokenAmountOut",
          "type": "uint256"
        },
        {
          "internalType": "uint256",
          "name": "_consumeMarketSwapFee",
          "type": "uint256"
        }
      ],
      "name": "getAmountInExactOut",
      "outputs": [
        {
          "internalType": "uint256",
          "name": "tokenAmountIn",
          "type": "uint256"
        },
        {
          "internalType": "uint256",
          "name": "lpFeeAmount",
          "type": "uint256"
        },
        {
          "internalType": "uint256",
          "name": "oceanFeeAmount",
          "type": "uint256"
        },
        {
          "internalType": "uint256",
          "name": "publishMarketSwapFeeAmount",
          "type": "uint256"
        },
        {
          "internalType": "uint256",
          "name": "consumeMarketSwapFeeAmount",
          "type": "uint256"
        }
      ],
      "stateMutability": "view",
      "type": "function"
    },
    {
      "inputs": [
        {
          "internalType": "address",
          "name": "tokenIn",
          "type": "address"
        },
        {
          "internalType": "address",
          "name": "tokenOut",
          "type": "address"
        },
        {
          "internalType": "uint256",
          "name": "tokenAmountIn",
          "type": "uint256"
        },
        {
          "internalType": "uint256",
          "name": "_consumeMarketSwapFee",
          "type": "uint256"
        }
      ],
      "name": "getAmountOutExactIn",
      "outputs": [
        {
          "internalType": "uint256",
          "name": "tokenAmountOut",
          "type": "uint256"
        },
        {
          "internalType": "uint256",
          "name": "lpFeeAmount",
          "type": "uint256"
        },
        {
          "internalType": "uint256",
          "name": "oceanFeeAmount",
          "type": "uint256"
        },
        {
          "internalType": "uint256",
          "name": "publishMarketSwapFeeAmount",
          "type": "uint256"
        },
        {
          "internalType": "uint256",
          "name": "consumeMarketSwapFeeAmount",
          "type": "uint256"
        }
      ],
      "stateMutability": "view",
      "type": "function"
    },
    {
      "inputs": [
        {
          "internalType": "address",
          "name": "token",
          "type": "address"
        }
      ],
      "name": "getBalance",
      "outputs": [
        {
          "internalType": "uint256",
          "name": "",
          "type": "uint256"
        }
      ],
      "stateMutability": "view",
      "type": "function"
    },
    {
      "inputs": [],
      "name": "getBaseTokenAddress",
      "outputs": [
        {
          "internalType": "address",
          "name": "",
          "type": "address"
        }
      ],
      "stateMutability": "view",
      "type": "function"
    },
    {
      "inputs": [],
      "name": "getController",
      "outputs": [
        {
          "internalType": "address",
          "name": "",
          "type": "address"
        }
      ],
      "stateMutability": "view",
      "type": "function"
    },
    {
      "inputs": [],
      "name": "getCurrentMarketFees",
      "outputs": [
        {
          "internalType": "address[]",
          "name": "",
          "type": "address[]"
        },
        {
          "internalType": "uint256[]",
          "name": "",
          "type": "uint256[]"
        }
      ],
      "stateMutability": "view",
      "type": "function"
    },
    {
      "inputs": [],
      "name": "getCurrentOPCFees",
      "outputs": [
        {
          "internalType": "address[]",
          "name": "",
          "type": "address[]"
        },
        {
          "internalType": "uint256[]",
          "name": "",
          "type": "uint256[]"
        }
      ],
      "stateMutability": "view",
      "type": "function"
    },
    {
      "inputs": [],
      "name": "getCurrentTokens",
      "outputs": [
        {
          "internalType": "address[]",
          "name": "tokens",
          "type": "address[]"
        }
      ],
      "stateMutability": "view",
      "type": "function"
    },
    {
      "inputs": [],
      "name": "getDatatokenAddress",
      "outputs": [
        {
          "internalType": "address",
          "name": "",
          "type": "address"
        }
      ],
      "stateMutability": "view",
      "type": "function"
    },
    {
      "inputs": [
        {
          "internalType": "address",
          "name": "token",
          "type": "address"
        }
      ],
      "name": "getDenormalizedWeight",
      "outputs": [
        {
          "internalType": "uint256",
          "name": "",
          "type": "uint256"
        }
      ],
      "stateMutability": "view",
      "type": "function"
    },
    {
      "inputs": [],
      "name": "getFinalTokens",
      "outputs": [
        {
          "internalType": "address[]",
          "name": "tokens",
          "type": "address[]"
        }
      ],
      "stateMutability": "view",
      "type": "function"
    },
    {
      "inputs": [],
      "name": "getId",
      "outputs": [
        {
          "internalType": "uint8",
          "name": "",
          "type": "uint8"
        }
      ],
      "stateMutability": "pure",
      "type": "function"
    },
    {
      "inputs": [],
      "name": "getMarketFee",
      "outputs": [
        {
          "internalType": "uint256",
          "name": "",
          "type": "uint256"
        }
      ],
      "stateMutability": "view",
      "type": "function"
    },
    {
      "inputs": [
        {
          "internalType": "address",
          "name": "token",
          "type": "address"
        }
      ],
      "name": "getNormalizedWeight",
      "outputs": [
        {
          "internalType": "uint256",
          "name": "",
          "type": "uint256"
        }
      ],
      "stateMutability": "view",
      "type": "function"
    },
    {
      "inputs": [],
      "name": "getNumTokens",
      "outputs": [
        {
          "internalType": "uint256",
          "name": "",
          "type": "uint256"
        }
      ],
      "stateMutability": "view",
      "type": "function"
    },
    {
      "inputs": [],
      "name": "getOPCFee",
      "outputs": [
        {
          "internalType": "uint256",
          "name": "",
          "type": "uint256"
        }
      ],
      "stateMutability": "view",
      "type": "function"
    },
    {
      "inputs": [
        {
          "internalType": "address",
          "name": "tokenIn",
          "type": "address"
        },
        {
          "internalType": "address",
          "name": "tokenOut",
          "type": "address"
        },
        {
          "internalType": "uint256",
          "name": "_consumeMarketSwapFee",
          "type": "uint256"
        }
      ],
      "name": "getSpotPrice",
      "outputs": [
        {
          "internalType": "uint256",
          "name": "spotPrice",
          "type": "uint256"
        }
      ],
      "stateMutability": "view",
      "type": "function"
    },
    {
      "inputs": [],
      "name": "getSwapFee",
      "outputs": [
        {
          "internalType": "uint256",
          "name": "",
          "type": "uint256"
        }
      ],
      "stateMutability": "view",
      "type": "function"
    },
    {
      "inputs": [],
      "name": "getTotalDenormalizedWeight",
      "outputs": [
        {
          "internalType": "uint256",
          "name": "",
          "type": "uint256"
        }
      ],
      "stateMutability": "view",
      "type": "function"
    },
    {
      "inputs": [
        {
          "internalType": "address",
          "name": "token",
          "type": "address"
        }
      ],
      "name": "gulp",
      "outputs": [],
      "stateMutability": "nonpayable",
      "type": "function"
    },
    {
      "inputs": [
        {
          "internalType": "address",
          "name": "dst",
          "type": "address"
        },
        {
          "internalType": "uint256",
          "name": "amt",
          "type": "uint256"
        }
      ],
      "name": "increaseApproval",
      "outputs": [
        {
          "internalType": "bool",
          "name": "",
          "type": "bool"
        }
      ],
      "stateMutability": "nonpayable",
      "type": "function"
    },
    {
      "inputs": [
        {
          "internalType": "address",
          "name": "controller",
          "type": "address"
        },
        {
          "internalType": "address",
          "name": "factory",
          "type": "address"
        },
        {
          "internalType": "uint256[]",
          "name": "swapFees",
          "type": "uint256[]"
        },
        {
          "internalType": "bool",
          "name": "publicSwap",
          "type": "bool"
        },
        {
          "internalType": "bool",
          "name": "finalized",
          "type": "bool"
        },
        {
          "internalType": "address[2]",
          "name": "tokens",
          "type": "address[2]"
        },
        {
          "internalType": "address[1]",
          "name": "feeCollectors",
          "type": "address[1]"
        }
      ],
      "name": "initialize",
      "outputs": [
        {
          "internalType": "bool",
          "name": "",
          "type": "bool"
        }
      ],
      "stateMutability": "nonpayable",
      "type": "function"
    },
    {
      "inputs": [
        {
          "internalType": "address",
          "name": "t",
          "type": "address"
        }
      ],
      "name": "isBound",
      "outputs": [
        {
          "internalType": "bool",
          "name": "",
          "type": "bool"
        }
      ],
      "stateMutability": "view",
      "type": "function"
    },
    {
      "inputs": [],
      "name": "isFinalized",
      "outputs": [
        {
          "internalType": "bool",
          "name": "",
          "type": "bool"
        }
      ],
      "stateMutability": "view",
      "type": "function"
    },
    {
      "inputs": [],
      "name": "isInitialized",
      "outputs": [
        {
          "internalType": "bool",
          "name": "",
          "type": "bool"
        }
      ],
      "stateMutability": "view",
      "type": "function"
    },
    {
      "inputs": [],
      "name": "isPublicSwap",
      "outputs": [
        {
          "internalType": "bool",
          "name": "",
          "type": "bool"
        }
      ],
      "stateMutability": "view",
      "type": "function"
    },
    {
      "inputs": [
        {
          "internalType": "uint256",
          "name": "tokenAmountIn",
          "type": "uint256"
        },
        {
          "internalType": "uint256",
          "name": "minPoolAmountOut",
          "type": "uint256"
        }
      ],
      "name": "joinswapExternAmountIn",
      "outputs": [
        {
          "internalType": "uint256",
          "name": "poolAmountOut",
          "type": "uint256"
        }
      ],
      "stateMutability": "nonpayable",
      "type": "function"
    },
    {
      "inputs": [],
      "name": "name",
      "outputs": [
        {
          "internalType": "string",
          "name": "",
          "type": "string"
        }
      ],
      "stateMutability": "view",
      "type": "function"
    },
    {
      "inputs": [
        {
          "internalType": "address",
          "name": "",
          "type": "address"
        }
      ],
      "name": "publishMarketFees",
      "outputs": [
        {
          "internalType": "uint256",
          "name": "",
          "type": "uint256"
        }
      ],
      "stateMutability": "view",
      "type": "function"
    },
    {
      "inputs": [],
      "name": "router",
      "outputs": [
        {
          "internalType": "address",
          "name": "",
          "type": "address"
        }
      ],
      "stateMutability": "view",
      "type": "function"
    },
    {
      "inputs": [
        {
          "internalType": "uint256",
          "name": "swapFee",
          "type": "uint256"
        }
      ],
      "name": "setSwapFee",
      "outputs": [],
      "stateMutability": "nonpayable",
      "type": "function"
    },
    {
      "inputs": [
        {
          "internalType": "address",
          "name": "datatokenAddress",
          "type": "address"
        },
        {
          "internalType": "uint256",
          "name": "datatokenAmount",
          "type": "uint256"
        },
        {
          "internalType": "uint256",
          "name": "datatokenWeight",
          "type": "uint256"
        },
        {
          "internalType": "address",
          "name": "baseTokenAddress",
          "type": "address"
        },
        {
          "internalType": "uint256",
          "name": "baseTokenAmount",
          "type": "uint256"
        },
        {
          "internalType": "uint256",
          "name": "baseTokenWeight",
          "type": "uint256"
        }
      ],
      "name": "setup",
      "outputs": [],
      "stateMutability": "nonpayable",
      "type": "function"
    },
    {
      "inputs": [
        {
          "internalType": "address[3]",
          "name": "tokenInOutMarket",
          "type": "address[3]"
        },
        {
          "internalType": "uint256[4]",
          "name": "amountsInOutMaxFee",
          "type": "uint256[4]"
        }
      ],
      "name": "swapExactAmountIn",
      "outputs": [
        {
          "internalType": "uint256",
          "name": "tokenAmountOut",
          "type": "uint256"
        },
        {
          "internalType": "uint256",
          "name": "spotPriceAfter",
          "type": "uint256"
        }
      ],
      "stateMutability": "nonpayable",
      "type": "function"
    },
    {
      "inputs": [
        {
          "internalType": "address[3]",
          "name": "tokenInOutMarket",
          "type": "address[3]"
        },
        {
          "internalType": "uint256[4]",
          "name": "amountsInOutMaxFee",
          "type": "uint256[4]"
        }
      ],
      "name": "swapExactAmountOut",
      "outputs": [
        {
          "internalType": "uint256",
          "name": "tokenAmountIn",
          "type": "uint256"
        },
        {
          "internalType": "uint256",
          "name": "spotPriceAfter",
          "type": "uint256"
        }
      ],
      "stateMutability": "nonpayable",
      "type": "function"
    },
    {
      "inputs": [],
      "name": "symbol",
      "outputs": [
        {
          "internalType": "string",
          "name": "",
          "type": "string"
        }
      ],
      "stateMutability": "view",
      "type": "function"
    },
    {
      "inputs": [],
      "name": "totalSupply",
      "outputs": [
        {
          "internalType": "uint256",
          "name": "",
          "type": "uint256"
        }
      ],
      "stateMutability": "view",
      "type": "function"
    },
    {
      "inputs": [
        {
          "internalType": "address",
          "name": "dst",
          "type": "address"
        },
        {
          "internalType": "uint256",
          "name": "amt",
          "type": "uint256"
        }
      ],
      "name": "transfer",
      "outputs": [
        {
          "internalType": "bool",
          "name": "",
          "type": "bool"
        }
      ],
      "stateMutability": "nonpayable",
      "type": "function"
    },
    {
      "inputs": [
        {
          "internalType": "address",
          "name": "src",
          "type": "address"
        },
        {
          "internalType": "address",
          "name": "dst",
          "type": "address"
        },
        {
          "internalType": "uint256",
          "name": "amt",
          "type": "uint256"
        }
      ],
      "name": "transferFrom",
      "outputs": [
        {
          "internalType": "bool",
          "name": "",
          "type": "bool"
        }
      ],
      "stateMutability": "nonpayable",
      "type": "function"
    },
    {
      "inputs": [
        {
          "internalType": "address",
          "name": "_newCollector",
          "type": "address"
        },
        {
          "internalType": "uint256",
          "name": "_newSwapFee",
          "type": "uint256"
        }
      ],
      "name": "updatePublishMarketFee",
      "outputs": [],
      "stateMutability": "nonpayable",
      "type": "function"
    }
  ],
  "bytecode": "0x608060405234801561001057600080fd5b506159b480620000216000396000f3fe608060405234801561001057600080fd5b50600436106104285760003560e01c8063892cdf9e1161022b578063c36596a611610130578063d73dd623116100b8578063f1b8a9b711610087578063f1b8a9b714610937578063f887ea401461094a578063f8b2cb4f1461095d578063fde924f714610970578063ff9b18501461098257600080fd5b8063d73dd623146108e3578063dd62ed3e146108f6578063e4a28a52146104af578063ec0930211461092f57600080fd5b8063c98a59cf116100ff578063c98a59cf146108a5578063caa01148146108b8578063cc77828d146108cb578063cd2ed8fb146108d3578063d4cadf68146108db57600080fd5b8063c36596a614610502578063c421a3fc1461086d578063c44a428314610895578063c6580d121461089d57600080fd5b8063a9059cbb116101b3578063ba019dab11610182578063ba019dab1461082a578063bc063e1a14610832578063bc694ea21461083a578063be3bbd2e14610842578063bf7db2361461085757600080fd5b8063a9059cbb14610807578063ab77a2de1461081a578063b0e0d13614610822578063b7b800a41461082257600080fd5b80639381cd2b116101fa5780639381cd2b146107b2578063948d8ce6146107ba57806395d89b41146107cd578063992e2a92146107ec578063a3b3a16d146107f457600080fd5b8063892cdf9e146107725780638c28cbe8146107855780638d4e408314610798578063936c3477146107aa57600080fd5b806334e1990711610331578063638c9e95116102b95780637a284be4116102885780637a284be4146107265780637c5918b31461072f57806380ca73081461074f5780638329ab3314610757578063867378c51461076a57600080fd5b8063638c9e95146106cf57806366188463146106e257806370a08231146106f557806376c7a3c71461071e57600080fd5b8063458c3fb511610300578063458c3fb5146106505780634df947d01461066157806351705cd0146106725780635d1ca631146106c05780635e123add146106c757600080fd5b806334e1990714610605578063392e53cd146106185780633950b3fd1461062a578063430ed5d01461063d57600080fd5b8063218b5382116103b45780632eebd6ae116103835780632eebd6ae1461053f5780632f37b6241461057a57806330062192146105a65780633018205f146105c6578063313ce567146105f057600080fd5b8063218b53821461050257806323b872dd14610511578063284e97a91461052457806329b88a6a1461053757600080fd5b806309ef3f5b116103fb57806309ef3f5b146104b757806312989260146104cc57806318160ddd146104df578063189d00ca146104e757806318f9722a146104ef57600080fd5b806306fdde031461042d578063079492d41461046b578063095ea7b31461048c57806309a3bbe4146104af575b600080fd5b60408051808201909152601081526f27b1b2b0b7102837b7b6102a37b5b2b760811b60208201525b6040516104629190615264565b60405180910390f35b61047e6104793660046152ac565b610995565b604051908152602001610462565b61049f61049a3660046152ed565b610a23565b6040519015158152602001610462565b61047e610a7e565b6104ca6104c5366004615319565b610a94565b005b61047e6104da366004615375565b610cc7565b60095461047e565b61047e6110de565b6104ca6104fd3660046152ed565b6110f5565b61047e670de0b6b3a764000081565b61049f61051f3660046152ac565b61126d565b61049f6105323660046153d2565b6113bc565b61047e6116ad565b61055261054d3660046154b2565b611727565b604080519586526020860194909452928401919091526060830152608082015260a001610462565b61049f6105883660046154f8565b6001600160a01b03166000908152600d602052604090205460ff1690565b61047e6105b43660046154f8565b60056020526000908152604090205481565b600a5461010090046001600160a01b03165b6040516001600160a01b039091168152602001610462565b60125b60405160ff9091168152602001610462565b6104ca610613366004615515565b6117ff565b600f54600160a01b900460ff1661049f565b61047e6106383660046152ed565b6118f9565b61047e61064b3660046152ed565b61195e565b6003546001600160a01b03166105d8565b6004546001600160a01b03166105d8565b610685610680366004615544565b6119bb565b6040805193845260208085019390935281518482015291810151606080850191909152918101516080840152015160a082015260c001610462565b60016105f3565b60005461047e565b600b546105d8906001600160a01b031681565b61049f6106f03660046152ed565b611b70565b61047e6107033660046154f8565b6001600160a01b031660009081526007602052604090205490565b61047e611c46565b61047e60005481565b61047e61073d3660046154f8565b60066020526000908152604090205481565b6104ca611c5a565b61047e610765366004615375565b611de7565b61047e6121bb565b610685610780366004615544565b6121d2565b6104ca6107933660046154f8565b61236f565b600b54600160a01b900460ff1661049f565b61047e6124e1565b61047e61250e565b61047e6107c83660046154f8565b612521565b60408051808201909152600381526213d41560ea1b6020820152610455565b61047e612573565b61047e6108023660046152ed565b612591565b61049f6108153660046152ed565b6125ee565b6104ca612604565b61047e600281565b61047e600181565b61047e6127c5565b61047e6127d8565b61084a6127f7565b6040516104629190615614565b61085f6128a6565b604051610462929190615627565b61088061087b36600461567e565b612a16565b60408051928352602083019190915201610462565b61085f6131e5565b61047e600081565b6108806108b336600461567e565b61334a565b6105526108c63660046154b2565b613a74565b61084a613b1e565b600c5461047e565b60015461047e565b61049f6108f13660046152ed565b613b44565b61047e6109043660046156c0565b6001600160a01b03918216600090815260086020908152604080832093909416825291909152205490565b61047e613bb7565b61047e6109453660046154f8565b613bca565b6002546105d8906001600160a01b031681565b61047e61096b3660046154f8565b613c23565b600a54600160a81b900460ff1661049f565b61047e6109903660046152ed565b613c71565b600a5460009060ff16156109c45760405162461bcd60e51b81526004016109bb906156ee565b60405180910390fd5b6109cd84613cce565b6109d683613cce565b6001600160a01b038085166000908152600d6020526040808220928616825290206003808301546002808501549284015490840154610a1793919088613d29565b925050505b9392505050565b3360008181526008602090815260408083206001600160a01b0387168085529252808320859055519192909160008051602061595f83398151915290610a6c9086815260200190565b60405180910390a35060015b92915050565b610a91670de0b6b3a76400006032615729565b81565b600a5460ff1615610ab75760405162461bcd60e51b81526004016109bb906156ee565b600a8054600160ff19909116179081905561010090046001600160a01b03163314610b1d5760405162461bcd60e51b815260206004820152601660248201527522a9292fa4a72b20a624a22fa1a7a72a2927a62622a960511b60448201526064016109bb565b6003546001600160a01b03878116911614610b7a5760405162461bcd60e51b815260206004820152601d60248201527f4552525f494e56414c49445f44415441544f4b454e5f4144445245535300000060448201526064016109bb565b6004546001600160a01b03848116911614610bd75760405162461bcd60e51b815260206004820152601d60248201527f4552525f494e56414c49445f62617365546f6b656e5f4144445245535300000060448201526064016109bb565b610be2868686613dab565b604080518681524260208201526001600160a01b03881691339160008051602061593f833981519152910160405180910390a3610c20838383613dab565b604080518381524260208201526001600160a01b03851691339160008051602061593f833981519152910160405180910390a3610c5b613f99565b6040805183815260208101839052908101869052606081018590526001600160a01b03808816919085169033907fbece8b4dcdbe446dd65a9288154698e067e3e91de17a1a408c2f531b9f845d739060800160405180910390a45050600a805460ff1916905550505050565b600a5460009060ff1615610ced5760405162461bcd60e51b81526004016109bb906156ee565b600a805460ff19166001179055600b54600160a01b900460ff16610d235760405162461bcd60e51b81526004016109bb90615748565b600454610d38906001600160a01b0316613cce565b6004546001600160a01b03166000908152600d602052604090206003810154600954610d65919086613ff8565b915082821015610d875760405162461bcd60e51b81526004016109bb90615773565b6004546001600160a01b03166000908152600d6020526040902060030154610dcc90610dbc6002670de0b6b3a76400006157b0565b610dc79060016157c4565b6140a2565b821115610e0f5760405162461bcd60e51b81526020600482015260116024820152704552525f4d41585f4f55545f524154494f60781b60448201526064016109bb565b610e1d816003015483614187565b6003820155600454604080518481524260208201526001600160a01b039092169133917f9d9058fd2f25ccc389fec7720abef0ca83472f5abfafd5f10d37f51e6a0493f3910160405180910390a36040518481527ffcda32798d5a9d032f49b37fea876d422f18f6e386e0f07db6029b693624b2c29060200160405180910390a1600f54600354604051630d098ab360e11b81526001600160a01b03918216600482015260248101879052911690631a13156690604401602060405180830381865afa158015610ef1573d6000803e3d6000fd5b505050506040513d601f19601f82011682018060405250810190610f1591906157dc565b156110a357600380546001600160a01b03166000908152600d6020526040812091820154600954610f47919088613ff8565b9050610f57826003015482614187565b60038381019190915554600a54604080518481524260208201526001600160a01b0393841693610100909304909216917f9d9058fd2f25ccc389fec7720abef0ca83472f5abfafd5f10d37f51e6a0493f3910160405180910390a3600a54610fcd9061010090046001600160a01b0316876141e4565b610fd6866141ee565b600354600a54610ff8916001600160a01b0390811691610100900416836141f7565b600f5460035460405163054a976360e41b81526001600160a01b03918216600482015260248101849052604481018990529116906354a9763090606401600060405180830381600087803b15801561104f57600080fd5b505af1158015611063573d6000803e3d6000fd5b505050507f87b3975661762d852ddf2eeaad6a43b2d93777de7b3b7bdb634283df324561188660405161109891815260200190565b60405180910390a150505b6110ad33856141e4565b6110b6846141ee565b6004546110cd906001600160a01b031633846141f7565b50600a805460ff1916905592915050565b610a916402540be400670de0b6b3a76400006157b0565b600b546001600160a01b031633146111475760405162461bcd60e51b815260206004820152601560248201527427a7262c9026a0a925a2aa1021a7a62622a1aa27a960591b60448201526064016109bb565b6001600160a01b03821661119d5760405162461bcd60e51b815260206004820152601d60248201527f496e76616c6964205f6e6577436f6c6c6563746f72206164647265737300000060448201526064016109bb565b8015806111bd57506111b9612710670de0b6b3a76400006157b0565b8110155b6111d95760405162461bcd60e51b81526004016109bb906157f9565b6111ec600a670de0b6b3a76400006157b0565b81111561120b5760405162461bcd60e51b81526004016109bb9061581e565b600b80546001600160a01b0319166001600160a01b03841690811790915560008290556040517f5e3e722dbd3b6b8071b78568ac80cd0e8ff92e4fb3024e755d504d8f7c2f6f0991611261913391908590615843565b60405180910390a15050565b6000336001600160a01b03851614806112a957506001600160a01b03841660009081526008602090815260408083203384529091529020548211155b6112ed5760405162461bcd60e51b815260206004820152601560248201527422a9292fa12a27a5a2a72fa120a22fa1a0a62622a960591b60448201526064016109bb565b6112f884848461420b565b336001600160a01b0385161480159061133657506001600160a01b038416600090815260086020908152604080832033845290915290205460001914155b156113b2576001600160a01b03841660009081526008602090815260408083203384529091529020546113699083614187565b6001600160a01b0385166000818152600860209081526040808320338085529083529281902085905551938452909260008051602061595f833981519152910160405180910390a35b5060019392505050565b600f54600090600160a01b900460ff16156114195760405162461bcd60e51b815260206004820152601760248201527f4552525f414c52454144595f494e495449414c495a454400000000000000000060448201526064016109bb565b6001600160a01b03891661146f5760405162461bcd60e51b815260206004820152601e60248201527f4552525f494e56414c49445f434f4e54524f4c4c45525f41444452455353000060448201526064016109bb565b6001600160a01b0388166114c55760405162461bcd60e51b815260206004820152601b60248201527f4552525f494e56414c49445f464143544f52595f41444452455353000000000060448201526064016109bb565b6114d9612710670de0b6b3a76400006157b0565b878760008181106114ec576114ec615867565b9050602002013510156115115760405162461bcd60e51b81526004016109bb906157f9565b611524600a670de0b6b3a76400006157b0565b8787600081811061153757611537615867565b90506020020135111561155c5760405162461bcd60e51b81526004016109bb9061581e565b8686600181811061156f5761156f615867565b90506020020135600014806115b05750611593612710670de0b6b3a76400006157b0565b878760018181106115a6576115a6615867565b9050602002013510155b6115cc5760405162461bcd60e51b81526004016109bb906157f9565b6115df600a670de0b6b3a76400006157b0565b878760018181106115f2576115f2615867565b9050602002013511156116175760405162461bcd60e51b81526004016109bb9061581e565b6116a08989898980806020026020016040519081016040528093929190818152602001838360200280828437600092019190915250506040805180820182528c93508b9250908a9060029083908390808284376000920191909152505060408051602081810190925291508a90600190839083908082843760009201919091525061431d915050565b9998505050505050505050565b6002546004805460405163b8421e2b60e01b81526001600160a01b0391821692810192909252600092169063b8421e2b90602401602060405180830381865afa1580156116fe573d6000803e3d6000fd5b505050506040513d601f19601f82011682018060405250810190611722919061587d565b905090565b600080600080600061173889613cce565b61174188613cce565b604080516080810182526001600160a01b03808c166000908152600d6020818152858320600380820154875260029182015483880152948f168085528383528785209586015497870197909752958352529201546060820152906117c66040518060800160405280600081526020016000815260200160008152602001600081525090565b6117d1838b8b6121d2565b805160208201516040830151606090930151949c50909a509850965090945050505050945094509450945094565b600a5461010090046001600160a01b031633146118535760405162461bcd60e51b815260206004820152601260248201527122a9292fa727aa2fa1a7a72a2927a62622a960711b60448201526064016109bb565b611867612710670de0b6b3a76400006157b0565b8110156118865760405162461bcd60e51b81526004016109bb906157f9565b611899600a670de0b6b3a76400006157b0565b8111156118b85760405162461bcd60e51b81526004016109bb9061581e565b600181905560408051338152602081018390527fbca0d601c32979eebac4e8cd06375b6e45d39af80fc06a33f366425b450dfb69910160405180910390a150565b6001600160a01b0382166000908152600d602090815260408083208151608081018352815460ff161515815260018201549381019390935260028101549183019190915260030154606082018190526009546119569190856144cc565b949350505050565b6001600160a01b0382166000908152600d602090815260408083208151608081018352815460ff16151581526001820154938101939093526002810154918301919091526003015460608201819052600954611956919085613ff8565b6000806119e96040518060800160405280600081526020016000815260200160008152602001600081525090565b6000611a0487600360200201518860015b602002015161457f565b90506000611a19886002602002015188614187565b90506000611a2e89600260200201518361457f565b90506000611a3c8285614697565b9050611a5081670de0b6b3a7640000614187565b90506000805489611a5f6116ad565b600154611a6c91906157c4565b611a7691906157c4565b611a8091906157c4565b8b51909150611aaa90611a9390846140a2565b611aa5670de0b6b3a764000084614187565b61457f565b9750611acd88611ac88a610dc7670de0b6b3a7640000611ac86116ad565b614187565b866020018181525050611af288611ac88a610dc7670de0b6b3a7640000600054614187565b866040018181525050611b1788611ac88a610dc7670de0b6b3a7640000600154614187565b8652611b3388611ac881610dc7670de0b6b3a76400008e614187565b6060870181905260408701516020880151611b60928b929091611b5691906157c4565b611ac891906157c4565b9650505050505093509350939050565b3360009081526008602090815260408083206001600160a01b038616845290915281205480831115611bc5573360009081526008602090815260408083206001600160a01b0388168452909152812055611bf4565b611bcf8184614187565b3360009081526008602090815260408083206001600160a01b03891684529091529020555b3360008181526008602090815260408083206001600160a01b0389168085529083529281902054905190815291929160008051602061595f833981519152910160405180910390a35060019392505050565b610a91612710670de0b6b3a76400006157b0565b6000611c646127f7565b905060005b8151811015611de357600060066000848481518110611c8a57611c8a615867565b60200260200101516001600160a01b03166001600160a01b03168152602001908152602001600020549050600060066000858581518110611ccd57611ccd615867565b60200260200101516001600160a01b03166001600160a01b03168152602001908152602001600020819055507fbaf1ab77be65c7abf8fcd922bfcf0a749f556ac1a4cdf39c126ffaa1851edb5633600b60009054906101000a90046001600160a01b0316858581518110611d4357611d43615867565b602002602001015184604051611d8194939291906001600160a01b039485168152928416602084015292166040820152606081019190915260800190565b60405180910390a1600b548351611dd0916001600160a01b0316908390869086908110611db057611db0615867565b60200260200101516001600160a01b03166147c39092919063ffffffff16565b5080611ddb81615896565b915050611c69565b5050565b600a5460009060ff1615611e0d5760405162461bcd60e51b81526004016109bb906156ee565b600a805460ff19166001179055600b54600160a01b900460ff16611e435760405162461bcd60e51b81526004016109bb90615748565b600454611e58906001600160a01b0316613cce565b6004546001600160a01b03166000908152600d6020526040902060030154611e8d90610dc76002670de0b6b3a76400006157b0565b831115611ecf5760405162461bcd60e51b815260206004820152601060248201526f4552525f4d41585f494e5f524154494f60801b60448201526064016109bb565b6004546001600160a01b03166000908152600d602052604090206003810154600954611efc9190866144cc565b915082821015611f1e5760405162461bcd60e51b81526004016109bb90615773565b611f2c816003015485614826565b6003820155600454604080518681524260208201526001600160a01b0390921691339160008051602061593f833981519152910160405180910390a36040518281527ffcda32798d5a9d032f49b37fea876d422f18f6e386e0f07db6029b693624b2c29060200160405180910390a1600380546001600160a01b03166000908152600d6020526040812091820154600954611fc8919086614878565b600f54600354604051632afbbacb60e01b81526001600160a01b039182166004820152602481018490529293501690632afbbacb90604401602060405180830381865afa15801561201d573d6000803e3d6000fd5b505050506040513d601f19601f8201168201806040525081019061204191906157dc565b1561217e57600f5460035460405163ebedb8b360e01b81526001600160a01b0391821660048201526024810184905291169063ebedb8b390604401600060405180830381600087803b15801561209657600080fd5b505af11580156120aa573d6000803e3d6000fd5b505050506120bc826003015482614826565b60038381019190915554600a54604080518481524260208201526001600160a01b03938416936101009093049092169160008051602061593f833981519152910160405180910390a36040518481527f87b3975661762d852ddf2eeaad6a43b2d93777de7b3b7bdb634283df324561189060200160405180910390a161214184614915565b600a5461215c9061010090046001600160a01b03168561491e565b600354600a5461217e916001600160a01b039081169161010090041683614928565b61218784614915565b612191338561491e565b6004546121a8906001600160a01b03163388614928565b505050600a805460ff1916905592915050565b610a9164e8d4a51000670de0b6b3a76400006157b0565b6000806122006040518060800160405280600081526020016000815260200160008152602001600081525090565b600061221587600160200201518860036119fa565b905061223386611ac888610dc7670de0b6b3a7640000611ac86116ad565b82602001818152505061225886611ac888610dc7670de0b6b3a7640000600054614187565b82604001818152505061227d86611ac888610dc7670de0b6b3a7640000600154614187565b825261229986611ac881610dc7670de0b6b3a76400008a614187565b60608301526000805486906122ac6116ad565b6001546122b991906157c4565b6122c391906157c4565b6122cd91906157c4565b905060006122e3670de0b6b3a764000083614187565b90506122ef88826140a2565b895190915060009061230590611aa58185614826565b905060006123138286614697565b90506000612329670de0b6b3a764000083614187565b905061233c8c60026020020151826140a2565b98508861235c8c89606001518a604001518b60200151611b5691906157c4565b9850985050505050505093509350939050565b600a5460ff16156123925760405162461bcd60e51b81526004016109bb906156ee565b600a805460ff191660011790556001600160a01b0381166000908152600d602052604090205460ff166123f75760405162461bcd60e51b815260206004820152600d60248201526c11549497d393d517d093d55391609a1b60448201526064016109bb565b6001600160a01b0381166000818152600d6020526040908190206003015490516370a0823160e01b81523060048201529091906370a0823190602401602060405180830381865afa158015612450573d6000803e3d6000fd5b505050506040513d601f19601f82011682018060405250810190612474919061587d565b6001600160a01b0383166000818152600d6020908152604091829020600301849055815192835282018490528101919091527f9facca02b471d2776031537a8c9e281dfe5120035ede107bd328b165ffd973389060600160405180910390a15050600a805460ff19169055565b600a5460009060ff16156125075760405162461bcd60e51b81526004016109bb906156ee565b50600e5490565b610a91670de0b6b3a76400006064615729565b600a5460009060ff16156125475760405162461bcd60e51b81526004016109bb906156ee565b61255082613cce565b506001600160a01b0381166000908152600d60205260409020600201545b919050565b6125866002670de0b6b3a76400006157b0565b610a919060016157c4565b6001600160a01b0382166000908152600d602090815260408083208151608081018352815460ff16151581526001820154938101939093526002810154918301919091526003015460608201819052600954611956919085614a70565b60006125fb33848461420b565b50600192915050565b600061260e6127f7565b905060005b8151811015611de35760006005600084848151811061263457612634615867565b60200260200101516001600160a01b03166001600160a01b0316815260200190815260200160002054905060006005600085858151811061267757612677615867565b60200260200101516001600160a01b03166001600160a01b03168152602001908152602001600020819055506000600260009054906101000a90046001600160a01b03166001600160a01b0316631a81876d6040518163ffffffff1660e01b8152600401602060405180830381865afa1580156126f8573d6000803e3d6000fd5b505050506040513d601f19601f8201168201806040525081019061271c91906158b1565b90507fed2b0288692cfc6d01c94a67a53721792f59c3d1388221f8aa4f66c8d2808dde338286868151811061275357612753615867565b60200260200101518560405161279194939291906001600160a01b039485168152928416602084015292166040820152606081019190915260800190565b60405180910390a16127b08183868681518110611db057611db0615867565b505080806127bd90615896565b915050612613565b610a91600a670de0b6b3a76400006157b0565b60016127ed670de0b6b3a76400006002615729565b610a9191906158ce565b600a5460609060ff161561281d5760405162461bcd60e51b81526004016109bb906156ee565b600b54600160a01b900460ff166128465760405162461bcd60e51b81526004016109bb90615748565b600c80548060200260200160405190810160405280929190818152602001828054801561289c57602002820191906000526020600020905b81546001600160a01b0316815260019091019060200180831161287e575b5050505050905090565b60608060006128b36127f7565b90506000815167ffffffffffffffff8111156128d1576128d161552e565b6040519080825280602002602001820160405280156128fa578160200160208202803683370190505b5090506000825167ffffffffffffffff8111156129195761291961552e565b604051908082528060200260200182016040528015612942578160200160208202803683370190505b50905060005b8351811015612a0b5783818151811061296357612963615867565b602002602001015183828151811061297d5761297d615867565b60200260200101906001600160a01b031690816001600160a01b031681525050600560008583815181106129b3576129b3615867565b60200260200101516001600160a01b03166001600160a01b03168152602001908152602001600020548282815181106129ee576129ee615867565b602090810291909101015280612a0381615896565b915050612948565b509094909350915050565b600a54600090819060ff1615612a3e5760405162461bcd60e51b81526004016109bb906156ee565b600a805460ff19166001179055600b54600160a01b900460ff16612a745760405162461bcd60e51b81526004016109bb90615748565b612a8460408501602086016154f8565b6001600160a01b0316612a9a60208601866154f8565b6001600160a01b03161415612aea5760405162461bcd60e51b815260206004820152601660248201527521b0b73737ba1039bbb0b81039b0b6b2903a37b5b2b760511b60448201526064016109bb565b612b098460005b602002016020810190612b0491906154f8565b613cce565b612b14846001612af1565b6000600d81612b2660208801886154f8565b6001600160a01b03168152602081019190915260400160009081209150600d81876001602002016020810190612b5c91906154f8565b6001600160a01b031681526020810191909152604001600020905060608501351580612b9f5750612b97612710670de0b6b3a76400006157b0565b606086013510155b612be45760405162461bcd60e51b8152602060048201526016602482015275436f6e73756d655377617046656520746f6f206c6f7760501b60448201526064016109bb565b612bf7600a670de0b6b3a76400006157b0565b60608601351115612c445760405162461bcd60e51b8152602060048201526017602482015276086dedce6eadacaa6eec2e08ccaca40e8dede40d0d2ced604b1b60448201526064016109bb565b6003820154612c6090610dc76002670de0b6b3a76400006157b0565b85351115612ca35760405162461bcd60e51b815260206004820152601060248201526f4552525f4d41585f494e5f524154494f60801b60448201526064016109bb565b6000612cd983600301548460020154846003015485600201548a600360048110612ccf57612ccf615867565b6020020135613d29565b90506040860135811115612d255760405162461bcd60e51b81526020600482015260136024820152724552525f4241445f4c494d49545f505249434560681b60448201526064016109bb565b600080604051806080016040528086600301548152602001866002015481526020018560030154815260200185600201548152509050612d866040518060800160405280600081526020016000815260200160008152602001600081525090565b612d96828a3560608c01356121d2565b91995093509050612de5600560008c815b602002016020810190612dba91906154f8565b6001600160a01b03166001600160a01b03168152602001908152602001600020548260200151614826565b60056000612df660208e018e6154f8565b6001600160a01b03166001600160a01b0316815260200190815260200160002081905550612e72600660008c600060038110612e3457612e34615867565b602002016020810190612e4791906154f8565b6001600160a01b03166001600160a01b03168152602001908152602001600020548260400151614826565b60066000612e8360208e018e6154f8565b6001600160a01b03166001600160a01b03168152602001908152602001600020819055507f53a9dc73d01196a9c660d761bc5ec77b945340a34b5b52e510760af2dab1c0f181600001518260200151836040015184606001518e600060038110612eef57612eef615867565b602002016020810190612f0291906154f8565b6040805195865260208601949094529284019190915260608301526001600160a01b0316608082015260a00160405180910390a16020890135881015612f5a5760405162461bcd60e51b81526004016109bb90615773565b612f68866003015484614826565b8660030181905550612f7e856003015489614187565b8560030181905550612fb086600301548760020154876003015488600201548d600360048110612ccf57612ccf615867565b965083871015612fd25760405162461bcd60e51b81526004016109bb906158e5565b60408901358711156130185760405162461bcd60e51b815260206004820152600f60248201526e4552525f4c494d49545f505249434560881b60448201526064016109bb565b61302389358961457f565b8411156130425760405162461bcd60e51b81526004016109bb906158e5565b61305260408b0160208c016154f8565b6001600160a01b031661306860208c018c6154f8565b60038089015490880154604080518e358152602081018e905242918101919091526060810192909252608082015260a081018a90526001600160a01b03919091169033907fbdafe88494b31fc7436fe7992b0f377e874287e841e62eed1ad77e84f3c5b1719060c00160405180910390a46130f16130e960208c018c6154f8565b338b35614928565b60006131168a35611ac881610dc7670de0b6b3a76400008f60035b6020020135614187565b905060608a0135156131b15761315a8b60025b60200201602081019061313c91906154f8565b8261314a60208f018f6154f8565b6001600160a01b031691906147c3565b7f6d11837f46cc09b011cf4aae09fcade046c020aac088090ae4f77ff67b70797261318b60608d0160408e016154f8565b61319860208e018e6154f8565b836040516131a893929190615843565b60405180910390a15b6131cb6131c460408d0160208e016154f8565b338b6141f7565b50505050505050600a805460ff1916905590939092509050565b60608060006131f26127f7565b90506000815167ffffffffffffffff8111156132105761321061552e565b604051908082528060200260200182016040528015613239578160200160208202803683370190505b5090506000825167ffffffffffffffff8111156132585761325861552e565b604051908082528060200260200182016040528015613281578160200160208202803683370190505b50905060005b8351811015612a0b578381815181106132a2576132a2615867565b60200260200101518382815181106132bc576132bc615867565b60200260200101906001600160a01b031690816001600160a01b031681525050600660008583815181106132f2576132f2615867565b60200260200101516001600160a01b03166001600160a01b031681526020019081526020016000205482828151811061332d5761332d615867565b60209081029190910101528061334281615896565b915050613287565b600a54600090819060ff16156133725760405162461bcd60e51b81526004016109bb906156ee565b600a805460ff19166001179055600b54600160a01b900460ff166133a85760405162461bcd60e51b81526004016109bb90615748565b6133b860408501602086016154f8565b6001600160a01b03166133ce60208601866154f8565b6001600160a01b0316141561341e5760405162461bcd60e51b815260206004820152601660248201527521b0b73737ba1039bbb0b81039b0b6b2903a37b5b2b760511b60448201526064016109bb565b60608301351580613446575061343e612710670de0b6b3a76400006157b0565b606084013510155b61348b5760405162461bcd60e51b8152602060048201526016602482015275436f6e73756d655377617046656520746f6f206c6f7760501b60448201526064016109bb565b61349e600a670de0b6b3a76400006157b0565b606084013511156134eb5760405162461bcd60e51b8152602060048201526017602482015276086dedce6eadacaa6eec2e08ccaca40e8dede40d0d2ced604b1b60448201526064016109bb565b6134f6846000612af1565b613501846001612af1565b6000600d8161351360208801886154f8565b6001600160a01b03168152602081019190915260400160009081209150600d8187600160200201602081019061354991906154f8565b6001600160a01b03166001600160a01b03168152602001908152602001600020905061358881600301546002670de0b6b3a7640000610dbc91906157b0565b602086013511156135cf5760405162461bcd60e51b81526020600482015260116024820152704552525f4d41585f4f55545f524154494f60781b60448201526064016109bb565b60006135fb83600301548460020154846003015485600201548a600360048110612ccf57612ccf615867565b905060408601358111156136475760405162461bcd60e51b81526020600482015260136024820152724552525f4241445f4c494d49545f505249434560681b60448201526064016109bb565b6000806040518060800160405280866003015481526020018660020154815260200185600301548152602001856002015481525090506136a86040518060800160405280600081526020016000815260200160008152602001600081525090565b6136bb8260208b013560608c01356119bb565b919950935090506136d0600560008c81612da7565b600560006136e160208e018e6154f8565b6001600160a01b03166001600160a01b031681526020019081526020016000208190555061371f600660008c600060038110612e3457612e34615867565b6006600061373060208e018e6154f8565b6001600160a01b03166001600160a01b03168152602001908152602001600020819055507f53a9dc73d01196a9c660d761bc5ec77b945340a34b5b52e510760af2dab1c0f181600001518260200151836040015184606001518e60006003811061379c5761379c615867565b6020020160208101906137af91906154f8565b6040805195865260208601949094529284019190915260608301526001600160a01b0316608082015260a00160405180910390a188358811156138235760405162461bcd60e51b815260206004820152600c60248201526b22a9292fa624a6a4aa2fa4a760a11b60448201526064016109bb565b613831866003015484614826565b600380880191909155850154613849908a600161310c565b856003018190555061387b86600301548760020154876003015488600201548d600360048110612ccf57612ccf615867565b96508387101561389d5760405162461bcd60e51b81526004016109bb906158e5565b60408901358711156138e35760405162461bcd60e51b815260206004820152600f60248201526e4552525f4c494d49545f505249434560881b60448201526064016109bb565b6138f18860208b013561457f565b8411156139105760405162461bcd60e51b81526004016109bb906158e5565b61392060408b0160208c016154f8565b6001600160a01b031661393660208c018c6154f8565b6001600160a01b0316337fbdafe88494b31fc7436fe7992b0f377e874287e841e62eed1ad77e84f3c5b1718b8d60016020020135428c600301548c600301548f6040516139ab96959493929190958652602086019490945260408501929092526060840152608083015260a082015260c00190565b60405180910390a46139ca6139c360208c018c6154f8565b338a614928565b60006139e889611ac881610dc7670de0b6b3a76400008f600361310c565b905060608a013515613a56576139ff8b6002613129565b7f6d11837f46cc09b011cf4aae09fcade046c020aac088090ae4f77ff67b707972613a3060608d0160408e016154f8565b613a3d60208e018e6154f8565b83604051613a4d93929190615843565b60405180910390a15b6131cb613a6960408d0160208e016154f8565b3360208d01356141f7565b6000806000806000613a8589613cce565b613a8e88613cce565b604080516080810182526001600160a01b03808c166000908152600d6020818152858320600380820154875260029182015483880152948f16808552838352878520958601549787019790975295835252920154606082015290613b136040518060800160405280600081526020016000815260200160008152602001600081525090565b6117d1838b8b6119bb565b600a5460609060ff16156128465760405162461bcd60e51b81526004016109bb906156ee565b3360009081526008602090815260408083206001600160a01b0386168452909152812054613b729083614826565b3360008181526008602090815260408083206001600160a01b0389168085529083529281902085905551938452909260008051602061595f8339815191529101610a6c565b610a916002670de0b6b3a76400006157b0565b600a5460009060ff1615613bf05760405162461bcd60e51b81526004016109bb906156ee565b613bf982613cce565b6001600160a01b0382166000908152600d6020526040902060020154600e54610a1c90829061457f565b600a5460009060ff1615613c495760405162461bcd60e51b81526004016109bb906156ee565b613c5282613cce565b506001600160a01b03166000908152600d602052604090206003015490565b6001600160a01b0382166000908152600d602090815260408083208151608081018352815460ff16151581526001820154938101939093526002810154918301919091526003015460608201819052600954611956919085614878565b6001600160a01b0381166000908152600d602052604090205460ff16613d265760405162461bcd60e51b815260206004820152600d60248201526c11549497d393d517d093d55391609a1b60448201526064016109bb565b50565b600080613d36878761457f565b90506000613d44868661457f565b90506000613d52838361457f565b90506000613d91670de0b6b3a7640000611aa5670de0b6b3a764000089600054613d7a6116ad565b600154613d8791906157c4565b611b5691906157c4565b9050613d9d82826140a2565b9a9950505050505050505050565b600a5461010090046001600160a01b03163314613dff5760405162461bcd60e51b815260206004820152601260248201527122a9292fa727aa2fa1a7a72a2927a62622a960711b60448201526064016109bb565b6001600160a01b0383166000908152600d602052604090205460ff1615613e575760405162461bcd60e51b815260206004820152600c60248201526b11549497d254d7d093d5539160a21b60448201526064016109bb565b600b54600160a01b900460ff1615613ea45760405162461bcd60e51b815260206004820152601060248201526f11549497d254d7d1925390531256915160821b60448201526064016109bb565b600c54600211613ee75760405162461bcd60e51b815260206004820152600e60248201526d4552525f4d41585f544f4b454e5360901b60448201526064016109bb565b604080516080810182526001808252600c805460208085019182526000858701818152606087018281526001600160a01b038c16808452600d9094529782209651875460ff1916901515178755925186860155915160028601559451600390940193909355805491820181559091527fdf6966c971051c3d54ec59162606531493a51404a002842f56009d7e5cf4a8c70180546001600160a01b0319169091179055613f94838383614b0d565b505050565b600b805460ff60a01b1916600160a01b179055600a805460ff60a81b1916600160a81b179055613fda613fd5670de0b6b3a76400006064615729565b614915565b613ff633613ff1670de0b6b3a76400006064615729565b61491e565b565b6000600182101561404b5760405162461bcd60e51b815260206004820152601a60248201527f4552525f504f4f4c5f414d4f554e545f494e5f544f4f5f4c4f5700000000000060448201526064016109bb565b614056826002615729565b915060006140648484614187565b90506000614072828661457f565b90506000614088670de0b6b3a764000083614187565b9050600061409682896140a2565b98975050505050505050565b6000806140af8385615729565b90508315806140c65750826140c485836157b0565b145b6141055760405162461bcd60e51b815260206004820152601060248201526f4552525f4d554c5f4f564552464c4f5760801b60448201526064016109bb565b600061411a6002670de0b6b3a76400006157b0565b61412490836157c4565b9050818110156141695760405162461bcd60e51b815260206004820152601060248201526f4552525f4d554c5f4f564552464c4f5760801b60448201526064016109bb565b600061417d670de0b6b3a7640000836157b0565b9695505050505050565b60008060006141968585614d2c565b9150915080156141dc5760405162461bcd60e51b81526020600482015260116024820152704552525f5355425f554e444552464c4f5760781b60448201526064016109bb565b509392505050565b611de38282614d63565b613d2681614d6e565b613f946001600160a01b03841683836147c3565b6001600160a01b03831660009081526007602052604090205481111561426a5760405162461bcd60e51b815260206004820152601460248201527311549497d25394d551919250d251539517d0905360621b60448201526064016109bb565b6001600160a01b03831660009081526007602052604090205461428d9082614187565b6001600160a01b0380851660009081526007602052604080822093909355908416815220546142bc9082614826565b6001600160a01b0380841660008181526007602052604090819020939093559151908516907fddf252ad1be2c89b69c2b068fc378daa952ba7f163c4a11628f55a4df523b3ef906143109085815260200190565b60405180910390a3505050565b600a8054610100600160a81b0319166101006001600160a01b038a81169190910291909117909155600280546001600160a01b03191691881691909117905584516000908690829061437157614371615867565b602090810291909101810151600181905560408051338152928301919091527fbca0d601c32979eebac4e8cd06375b6e45d39af80fc06a33f366425b450dfb69910160405180910390a1856001815181106143ce576143ce615867565b6020908102919091018101516000819055600a8054881515600160a81b0260ff60a81b19909116179055600b80548651600380546001600160a01b039283166001600160a01b0319918216179091559488015160048054918316918716919091179055865116881515600160a01b02949094166001600160a81b031990911617831790556040517f5e3e722dbd3b6b8071b78568ac80cd0e8ff92e4fb3024e755d504d8f7c2f6f0992614482923392615843565b60405180910390a15050600f8054600a54600160a01b6101009091046001600160a01b03166001600160a81b03199092169190911781179182905560ff9104169695505050505050565b6000806144e183670de0b6b3a76400006140a2565b905060006144ef8683614826565b905060006144fd828861457f565b9050600061451382670de0b6b3a7640000614187565b9050600061452182896140a2565b905060028110156145745760405162461bcd60e51b815260206004820152601b60248201527f4552525f544f4b454e5f414d4f554e545f494e5f544f4f5f4c4f57000000000060448201526064016109bb565b6116a06002826157b0565b6000816145bd5760405162461bcd60e51b815260206004820152600c60248201526b4552525f4449565f5a45524f60a01b60448201526064016109bb565b60006145d1670de0b6b3a764000085615729565b90508315806145f05750670de0b6b3a76400006145ee85836157b0565b145b61462f5760405162461bcd60e51b815260206004820152601060248201526f11549497d1125597d25395115493905360821b60448201526064016109bb565b600061463c6002856157b0565b61464690836157c4565b90508181101561468b5760405162461bcd60e51b815260206004820152601060248201526f11549497d1125597d25395115493905360821b60448201526064016109bb565b600061417d85836157b0565b600060018310156146e25760405162461bcd60e51b81526020600482015260156024820152744552525f42504f575f424153455f544f4f5f4c4f5760581b60448201526064016109bb565b60016146f7670de0b6b3a76400006002615729565b61470191906158ce565b8311156147495760405162461bcd60e51b815260206004820152601660248201527508aa4a4be84a09eaebe8482a68abea89e9ebe90928e960531b60448201526064016109bb565b600061475483614e3a565b905060006147628483614187565b905060006147788661477385614e58565b614e6c565b905081614789579250610a78915050565b60006147ac87846147a76402540be400670de0b6b3a76400006157b0565b614ee0565b90506147b882826140a2565b979650505050505050565b6040516001600160a01b038316602482015260448101829052613f9490849063a9059cbb60e01b906064015b60408051601f198184030181529190526020810180516001600160e01b03166001600160e01b031990931692909217909152614fd0565b60008061483383856157c4565b905083811015610a1c5760405162461bcd60e51b815260206004820152601060248201526f4552525f4144445f4f564552464c4f5760801b60448201526064016109bb565b6000806148858484614826565b90506000614893828661457f565b905060006148a982670de0b6b3a7640000614187565b905060006148b782896140a2565b9050600181101561490a5760405162461bcd60e51b815260206004820152601b60248201527f4552525f504f4f4c5f414d4f554e545f4f55545f544f4f5f4c4f57000000000060448201526064016109bb565b614096816002615729565b613d26816150a2565b611de38282615111565b6040516370a0823160e01b81523060048201526000906001600160a01b038516906370a0823190602401602060405180830381865afa15801561496f573d6000803e3d6000fd5b505050506040513d601f19601f82011682018060405250810190614993919061587d565b90506149aa6001600160a01b03851684308561511c565b6149b482826157c4565b6040516370a0823160e01b81523060048201526001600160a01b038616906370a0823190602401602060405180830381865afa1580156149f8573d6000803e3d6000fd5b505050506040513d601f19601f82011682018060405250810190614a1c919061587d565b1015614a6a5760405162461bcd60e51b815260206004820152601a60248201527f5472616e7366657220616d6f756e7420697320746f6f206c6f7700000000000060448201526064016109bb565b50505050565b600080614a7d8584614187565b90506000614a8b828761457f565b90506000614aa1670de0b6b3a764000083614187565b90506000614aaf82886140a2565b90506002811015614b025760405162461bcd60e51b815260206004820152601c60248201527f4552525f544f4b454e5f414d4f554e545f4f55545f544f4f5f4c4f570000000060448201526064016109bb565b6140966002826157b0565b670de0b6b3a7640000811015614b565760405162461bcd60e51b815260206004820152600e60248201526d11549497d3525397d5d15251d21560921b60448201526064016109bb565b614b69670de0b6b3a76400006032615729565b811115614ba95760405162461bcd60e51b815260206004820152600e60248201526d11549497d3505617d5d15251d21560921b60448201526064016109bb565b614bc064e8d4a51000670de0b6b3a76400006157b0565b821015614c015760405162461bcd60e51b815260206004820152600f60248201526e4552525f4d494e5f42414c414e434560881b60448201526064016109bb565b6001600160a01b0383166000908152600d602052604090206002015480821115614c9d57614c3a600e54614c358484614187565b614826565b600e55614c50670de0b6b3a76400006032615729565b600e541115614c985760405162461bcd60e51b815260206004820152601460248201527311549497d3505617d513d5105317d5d15251d21560621b60448201526064016109bb565b614cb9565b80821015614cb957614cb5600e54611ac88385614187565b600e555b6001600160a01b0384166000908152600d602052604090206002810183905560030180549084905580841115614d0257614cfd8533614cf88785614187565b614928565b614d25565b80841015614d25576000614d168286614187565b9050614d238633836141f7565b505b5050505050565b600080828410614d4b57614d4083856158ce565b600091509150614d5c565b614d5584846158ce565b6001915091505b9250929050565b611de382308361420b565b30600090815260076020526040902054811115614dc45760405162461bcd60e51b815260206004820152601460248201527311549497d25394d551919250d251539517d0905360621b60448201526064016109bb565b30600090815260076020526040902054614dde9082614187565b30600090815260076020526040902055600954614dfb9082614187565b60095560405181815260009030907fddf252ad1be2c89b69c2b068fc378daa952ba7f163c4a11628f55a4df523b3ef906020015b60405180910390a350565b6000670de0b6b3a7640000614e4e83614e58565b610a789190615729565b6000610a78670de0b6b3a7640000836157b0565b60008281614e7b60028561590e565b614e8d57670de0b6b3a7640000614e8f565b815b9050614e9c6002856157b0565b93505b831561195657614eaf82836140a2565b9150614ebc60028561590e565b15614ece57614ecb81836140a2565b90505b614ed96002856157b0565b9350614e9f565b6000828180614ef787670de0b6b3a7640000614d2c565b9092509050670de0b6b3a764000080600060015b888410614fc1576000614f26670de0b6b3a764000083615729565b9050600080614f468a614f4185670de0b6b3a7640000614187565b614d2c565b91509150614f5887610dc7848c6140a2565b9650614f64878461457f565b965086614f7357505050614fc1565b8715614f7d579315935b8015614f87579315935b8415614f9e57614f978688614187565b9550614fab565b614fa88688614826565b95505b5050508080614fb990615896565b915050614f0b565b50909998505050505050505050565b6000615025826040518060400160405280602081526020017f5361666545524332303a206c6f772d6c6576656c2063616c6c206661696c6564815250856001600160a01b031661513d9092919063ffffffff16565b805190915015613f94578080602001905181019061504391906157dc565b613f945760405162461bcd60e51b815260206004820152602a60248201527f5361666545524332303a204552433230206f7065726174696f6e20646964206e6044820152691bdd081cdd58d8d9595960b21b60648201526084016109bb565b306000908152600760205260409020546150bc9082614826565b306000908152600760205260409020556009546150d99082614826565b60095560405181815230906000907fddf252ad1be2c89b69c2b068fc378daa952ba7f163c4a11628f55a4df523b3ef90602001614e2f565b611de330838361420b565b614a6a846323b872dd60e01b8585856040516024016147ef93929190615843565b6060611956848460008585843b6151965760405162461bcd60e51b815260206004820152601d60248201527f416464726573733a2063616c6c20746f206e6f6e2d636f6e747261637400000060448201526064016109bb565b600080866001600160a01b031685876040516151b29190615922565b60006040518083038185875af1925050503d80600081146151ef576040519150601f19603f3d011682016040523d82523d6000602084013e6151f4565b606091505b50915091506147b88282866060831561520e575081610a1c565b82511561521e5782518084602001fd5b8160405162461bcd60e51b81526004016109bb9190615264565b60005b8381101561525357818101518382015260200161523b565b83811115614a6a5750506000910152565b6020815260008251806020840152615283816040850160208701615238565b601f01601f19169190910160400192915050565b6001600160a01b0381168114613d2657600080fd5b6000806000606084860312156152c157600080fd5b83356152cc81615297565b925060208401356152dc81615297565b929592945050506040919091013590565b6000806040838503121561530057600080fd5b823561530b81615297565b946020939093013593505050565b60008060008060008060c0878903121561533257600080fd5b863561533d81615297565b95506020870135945060408701359350606087013561535b81615297565b9598949750929560808101359460a0909101359350915050565b6000806040838503121561538857600080fd5b50508035926020909101359150565b8015158114613d2657600080fd5b803561256e81615397565b8060408101831015610a7857600080fd5b8060208101831015610a7857600080fd5b600080600080600080600080610100898b0312156153ef57600080fd5b88356153fa81615297565b9750602089013561540a81615297565b9650604089013567ffffffffffffffff8082111561542757600080fd5b818b0191508b601f83011261543b57600080fd5b81358181111561544a57600080fd5b8c60208260051b850101111561545f57600080fd5b60208301985080975050505061547760608a016153a5565b935061548560808a016153a5565b92506154948a60a08b016153b0565b91506154a38a60e08b016153c1565b90509295985092959890939650565b600080600080608085870312156154c857600080fd5b84356154d381615297565b935060208501356154e381615297565b93969395505050506040820135916060013590565b60006020828403121561550a57600080fd5b8135610a1c81615297565b60006020828403121561552757600080fd5b5035919050565b634e487b7160e01b600052604160045260246000fd5b600080600060c0848603121561555957600080fd5b84601f85011261556857600080fd5b6040516080810181811067ffffffffffffffff8211171561558b5761558b61552e565b6040528060808601878111156155a057600080fd5b865b818110156155ba5780358352602092830192016155a2565b509197913596505060a094909401359392505050565b600081518084526020808501945080840160005b838110156156095781516001600160a01b0316875295820195908201906001016155e4565b509495945050505050565b602081526000610a1c60208301846155d0565b60408152600061563a60408301856155d0565b82810360208481019190915284518083528582019282019060005b8181101561567157845183529383019391830191600101615655565b5090979650505050505050565b60008060e0838503121561569157600080fd5b60608301848111156156a257600080fd5b8392508460e0850111156156b557600080fd5b809150509250929050565b600080604083850312156156d357600080fd5b82356156de81615297565b915060208301356156b581615297565b6020808252600b908201526a4552525f5245454e54525960a81b604082015260600190565b634e487b7160e01b600052601160045260246000fd5b600081600019048311821515161561574357615743615713565b500290565b60208082526011908201527011549497d393d517d19253905312569151607a1b604082015260600190565b6020808252600d908201526c11549497d31253525517d3d555609a1b604082015260600190565b634e487b7160e01b600052601260045260246000fd5b6000826157bf576157bf61579a565b500490565b600082198211156157d7576157d7615713565b500190565b6000602082840312156157ee57600080fd5b8151610a1c81615397565b6020808252600b908201526a4552525f4d494e5f46454560a81b604082015260600190565b6020808252600b908201526a4552525f4d41585f46454560a81b604082015260600190565b6001600160a01b039384168152919092166020820152604081019190915260600190565b634e487b7160e01b600052603260045260246000fd5b60006020828403121561588f57600080fd5b5051919050565b60006000198214156158aa576158aa615713565b5060010190565b6000602082840312156158c357600080fd5b8151610a1c81615297565b6000828210156158e0576158e0615713565b500390565b6020808252600f908201526e08aa4a4be9a82a890be82a0a0a49eb608b1b604082015260600190565b60008261591d5761591d61579a565b500690565b60008251615934818460208701615238565b919091019291505056fe15a8ca63e37b2cff1677df2b6b82d36fcf8a524228bd7a4b4d02d107c28c1e8a8c5be1e5ebec7d5bd14f71427d1e84f3dd0314c0f7b2291e5b200ac8c7c3b925a2646970667358221220f2f2a1258d4d2d1c4a36245ec1c574dc8dd92a271028386b418ed5f221782be964736f6c634300080c0033",
  "linkReferences": {},
  "deployedLinkReferences": {}
}