{
  "_format": "hh-sol-artifact-1",
  "contractName": "BPool",
  "sourceName": "contracts/pools/balancer/BPool.sol",
  "abi": [
    {
      "anonymous": false,
      "inputs": [
        {
          "indexed": true,
          "internalType": "address",
          "name": "src",
          "type": "address"
        },
        {
          "indexed": true,
          "internalType": "address",
          "name": "dst",
          "type": "address"
        },
        {
          "indexed": false,
          "internalType": "uint256",
          "name": "amt",
          "type": "uint256"
        }
      ],
      "name": "Approval",
      "type": "event"
    },
    {
      "anonymous": false,
      "inputs": [
        {
          "indexed": false,
          "internalType": "address",
          "name": "to",
          "type": "address"
        },
        {
          "indexed": false,
          "internalType": "address",
          "name": "token",
          "type": "address"
        },
        {
          "indexed": false,
          "internalType": "uint256",
          "name": "amount",
          "type": "uint256"
        }
      ],
      "name": "ConsumeMarketFee",
      "type": "event"
    },
    {
      "anonymous": false,
      "inputs": [
        {
          "indexed": false,
          "internalType": "address",
          "name": "token",
          "type": "address"
        },
        {
          "indexed": false,
          "internalType": "uint256",
          "name": "oldBalance",
          "type": "uint256"
        },
        {
          "indexed": false,
          "internalType": "uint256",
          "name": "newBalance",
          "type": "uint256"
        }
      ],
      "name": "Gulped",
      "type": "event"
    },
    {
      "anonymous": false,
      "inputs": [
        {
          "indexed": false,
          "internalType": "uint256",
          "name": "bptAmount",
          "type": "uint256"
        }
      ],
      "name": "LOG_BPT",
      "type": "event"
    },
    {
      "anonymous": false,
      "inputs": [
        {
          "indexed": false,
          "internalType": "uint256",
          "name": "bptAmount",
          "type": "uint256"
        }
      ],
      "name": "LOG_BPT_SS",
      "type": "event"
    },
    {
      "anonymous": false,
      "inputs": [
        {
          "indexed": true,
          "internalType": "bytes4",
          "name": "sig",
          "type": "bytes4"
        },
        {
          "indexed": true,
          "internalType": "address",
          "name": "caller",
          "type": "address"
        },
        {
          "indexed": false,
          "internalType": "uint256",
          "name": "timestamp",
          "type": "uint256"
        },
        {
          "indexed": false,
          "internalType": "bytes",
          "name": "data",
          "type": "bytes"
        }
      ],
      "name": "LOG_CALL",
      "type": "event"
    },
    {
      "anonymous": false,
      "inputs": [
        {
          "indexed": true,
          "internalType": "address",
          "name": "caller",
          "type": "address"
        },
        {
          "indexed": true,
          "internalType": "address",
          "name": "tokenOut",
          "type": "address"
        },
        {
          "indexed": false,
          "internalType": "uint256",
          "name": "tokenAmountOut",
          "type": "uint256"
        },
        {
          "indexed": false,
          "internalType": "uint256",
          "name": "timestamp",
          "type": "uint256"
        }
      ],
      "name": "LOG_EXIT",
      "type": "event"
    },
    {
      "anonymous": false,
      "inputs": [
        {
          "indexed": true,
          "internalType": "address",
          "name": "caller",
          "type": "address"
        },
        {
          "indexed": true,
          "internalType": "address",
          "name": "tokenIn",
          "type": "address"
        },
        {
          "indexed": false,
          "internalType": "uint256",
          "name": "tokenAmountIn",
          "type": "uint256"
        },
        {
          "indexed": false,
          "internalType": "uint256",
          "name": "timestamp",
          "type": "uint256"
        }
      ],
      "name": "LOG_JOIN",
      "type": "event"
    },
    {
      "anonymous": false,
      "inputs": [
        {
          "indexed": true,
          "internalType": "address",
          "name": "caller",
          "type": "address"
        },
        {
          "indexed": true,
          "internalType": "address",
          "name": "baseToken",
          "type": "address"
        },
        {
          "indexed": false,
          "internalType": "uint256",
          "name": "baseTokenAmountIn",
          "type": "uint256"
        },
        {
          "indexed": false,
          "internalType": "uint256",
          "name": "baseTokenWeight",
          "type": "uint256"
        },
        {
          "indexed": true,
          "internalType": "address",
          "name": "datatoken",
          "type": "address"
        },
        {
          "indexed": false,
          "internalType": "uint256",
          "name": "datatokenAmountIn",
          "type": "uint256"
        },
        {
          "indexed": false,
          "internalType": "uint256",
          "name": "datatokenWeight",
          "type": "uint256"
        }
      ],
      "name": "LOG_SETUP",
      "type": "event"
    },
    {
      "anonymous": false,
      "inputs": [
        {
          "indexed": true,
          "internalType": "address",
          "name": "caller",
          "type": "address"
        },
        {
          "indexed": true,
          "internalType": "address",
          "name": "tokenIn",
          "type": "address"
        },
        {
          "indexed": true,
          "internalType": "address",
          "name": "tokenOut",
          "type": "address"
        },
        {
          "indexed": false,
          "internalType": "uint256",
          "name": "tokenAmountIn",
          "type": "uint256"
        },
        {
          "indexed": false,
          "internalType": "uint256",
          "name": "tokenAmountOut",
          "type": "uint256"
        },
        {
          "indexed": false,
          "internalType": "uint256",
          "name": "timestamp",
          "type": "uint256"
        },
        {
          "indexed": false,
          "internalType": "uint256",
          "name": "inBalance",
          "type": "uint256"
        },
        {
          "indexed": false,
          "internalType": "uint256",
          "name": "outBalance",
          "type": "uint256"
        },
        {
          "indexed": false,
          "internalType": "uint256",
          "name": "newSpotPrice",
          "type": "uint256"
        }
      ],
      "name": "LOG_SWAP",
      "type": "event"
    },
    {
      "anonymous": false,
      "inputs": [
        {
          "indexed": false,
          "internalType": "address",
          "name": "caller",
          "type": "address"
        },
        {
          "indexed": false,
          "internalType": "address",
          "name": "OPCWallet",
          "type": "address"
        },
        {
          "indexed": false,
          "internalType": "address",
          "name": "token",
          "type": "address"
        },
        {
          "indexed": false,
          "internalType": "uint256",
          "name": "amount",
          "type": "uint256"
        }
      ],
      "name": "OPCFee",
      "type": "event"
    },
    {
      "anonymous": false,
      "inputs": [
        {
          "indexed": false,
          "internalType": "address",
          "name": "caller",
          "type": "address"
        },
        {
          "indexed": false,
          "internalType": "address",
          "name": "marketAddress",
          "type": "address"
        },
        {
          "indexed": false,
          "internalType": "address",
          "name": "token",
          "type": "address"
        },
        {
          "indexed": false,
          "internalType": "uint256",
          "name": "amount",
          "type": "uint256"
        }
      ],
      "name": "PublishMarketFee",
      "type": "event"
    },
    {
      "anonymous": false,
      "inputs": [
        {
          "indexed": false,
          "internalType": "address",
          "name": "caller",
          "type": "address"
        },
        {
          "indexed": false,
          "internalType": "address",
          "name": "newMarketCollector",
          "type": "address"
        },
        {
          "indexed": false,
          "internalType": "uint256",
          "name": "swapFee",
          "type": "uint256"
        }
      ],
      "name": "PublishMarketFeeChanged",
      "type": "event"
    },
    {
      "anonymous": false,
      "inputs": [
        {
          "indexed": false,
          "internalType": "uint256",
          "name": "LPFeeAmount",
          "type": "uint256"
        },
        {
          "indexed": false,
          "internalType": "uint256",
          "name": "oceanFeeAmount",
          "type": "uint256"
        },
        {
          "indexed": false,
          "internalType": "uint256",
          "name": "marketFeeAmount",
          "type": "uint256"
        },
        {
          "indexed": false,
          "internalType": "uint256",
          "name": "consumeMarketFeeAmount",
          "type": "uint256"
        },
        {
          "indexed": false,
          "internalType": "address",
          "name": "tokenFeeAddress",
          "type": "address"
        }
      ],
      "name": "SWAP_FEES",
      "type": "event"
    },
    {
      "anonymous": false,
      "inputs": [
        {
          "indexed": false,
          "internalType": "address",
          "name": "caller",
          "type": "address"
        },
        {
          "indexed": false,
          "internalType": "uint256",
          "name": "amount",
          "type": "uint256"
        }
      ],
      "name": "SwapFeeChanged",
      "type": "event"
    },
    {
      "anonymous": false,
      "inputs": [
        {
          "indexed": true,
          "internalType": "address",
          "name": "src",
          "type": "address"
        },
        {
          "indexed": true,
          "internalType": "address",
          "name": "dst",
          "type": "address"
        },
        {
          "indexed": false,
          "internalType": "uint256",
          "name": "amt",
          "type": "uint256"
        }
      ],
      "name": "Transfer",
      "type": "event"
    },
    {
      "inputs": [],
      "name": "BONE",
      "outputs": [
        {
          "internalType": "uint256",
          "name": "",
          "type": "uint256"
        }
      ],
      "stateMutability": "view",
      "type": "function"
    },
    {
      "inputs": [],
      "name": "BPOW_PRECISION",
      "outputs": [
        {
          "internalType": "uint256",
          "name": "",
          "type": "uint256"
        }
      ],
      "stateMutability": "view",
      "type": "function"
    },
    {
      "inputs": [],
      "name": "EXIT_FEE",
      "outputs": [
        {
          "internalType": "uint256",
          "name": "",
          "type": "uint256"
        }
      ],
      "stateMutability": "view",
      "type": "function"
    },
    {
      "inputs": [],
      "name": "INIT_POOL_SUPPLY",
      "outputs": [
        {
          "internalType": "uint256",
          "name": "",
          "type": "uint256"
        }
      ],
      "stateMutability": "view",
      "type": "function"
    },
    {
      "inputs": [],
      "name": "MAX_BOUND_TOKENS",
      "outputs": [
        {
          "internalType": "uint256",
          "name": "",
          "type": "uint256"
        }
      ],
      "stateMutability": "view",
      "type": "function"
    },
    {
      "inputs": [],
      "name": "MAX_BPOW_BASE",
      "outputs": [
        {
          "internalType": "uint256",
          "name": "",
          "type": "uint256"
        }
      ],
      "stateMutability": "view",
      "type": "function"
    },
    {
      "inputs": [],
      "name": "MAX_FEE",
      "outputs": [
        {
          "internalType": "uint256",
          "name": "",
          "type": "uint256"
        }
      ],
      "stateMutability": "view",
      "type": "function"
    },
    {
      "inputs": [],
      "name": "MAX_IN_RATIO",
      "outputs": [
        {
          "internalType": "uint256",
          "name": "",
          "type": "uint256"
        }
      ],
      "stateMutability": "view",
      "type": "function"
    },
    {
      "inputs": [],
      "name": "MAX_OUT_RATIO",
      "outputs": [
        {
          "internalType": "uint256",
          "name": "",
          "type": "uint256"
        }
      ],
      "stateMutability": "view",
      "type": "function"
    },
    {
      "inputs": [],
      "name": "MAX_TOTAL_WEIGHT",
      "outputs": [
        {
          "internalType": "uint256",
          "name": "",
          "type": "uint256"
        }
      ],
      "stateMutability": "view",
      "type": "function"
    },
    {
      "inputs": [],
      "name": "MAX_WEIGHT",
      "outputs": [
        {
          "internalType": "uint256",
          "name": "",
          "type": "uint256"
        }
      ],
      "stateMutability": "view",
      "type": "function"
    },
    {
      "inputs": [],
      "name": "MIN_BALANCE",
      "outputs": [
        {
          "internalType": "uint256",
          "name": "",
          "type": "uint256"
        }
      ],
      "stateMutability": "view",
      "type": "function"
    },
    {
      "inputs": [],
      "name": "MIN_BOUND_TOKENS",
      "outputs": [
        {
          "internalType": "uint256",
          "name": "",
          "type": "uint256"
        }
      ],
      "stateMutability": "view",
      "type": "function"
    },
    {
      "inputs": [],
      "name": "MIN_BPOW_BASE",
      "outputs": [
        {
          "internalType": "uint256",
          "name": "",
          "type": "uint256"
        }
      ],
      "stateMutability": "view",
      "type": "function"
    },
    {
      "inputs": [],
      "name": "MIN_FEE",
      "outputs": [
        {
          "internalType": "uint256",
          "name": "",
          "type": "uint256"
        }
      ],
      "stateMutability": "view",
      "type": "function"
    },
    {
      "inputs": [],
      "name": "MIN_WEIGHT",
      "outputs": [
        {
          "internalType": "uint256",
          "name": "",
          "type": "uint256"
        }
      ],
      "stateMutability": "view",
      "type": "function"
    },
    {
      "inputs": [],
      "name": "_opcCollector",
      "outputs": [
        {
          "internalType": "address",
          "name": "",
          "type": "address"
        }
      ],
      "stateMutability": "view",
      "type": "function"
    },
    {
      "inputs": [],
      "name": "_publishMarketCollector",
      "outputs": [
        {
          "internalType": "address",
          "name": "",
          "type": "address"
        }
      ],
      "stateMutability": "view",
      "type": "function"
    },
    {
      "inputs": [],
      "name": "_swapPublishMarketFee",
      "outputs": [
        {
          "internalType": "uint256",
          "name": "",
          "type": "uint256"
        }
      ],
      "stateMutability": "view",
      "type": "function"
    },
    {
      "inputs": [
        {
          "internalType": "address",
          "name": "src",
          "type": "address"
        },
        {
          "internalType": "address",
          "name": "dst",
          "type": "address"
        }
      ],
      "name": "allowance",
      "outputs": [
        {
          "internalType": "uint256",
          "name": "",
          "type": "uint256"
        }
      ],
      "stateMutability": "view",
      "type": "function"
    },
    {
      "inputs": [
        {
          "internalType": "address",
          "name": "dst",
          "type": "address"
        },
        {
          "internalType": "uint256",
          "name": "amt",
          "type": "uint256"
        }
      ],
      "name": "approve",
      "outputs": [
        {
          "internalType": "bool",
          "name": "",
          "type": "bool"
        }
      ],
      "stateMutability": "nonpayable",
      "type": "function"
    },
    {
      "inputs": [
        {
          "internalType": "address",
          "name": "whom",
          "type": "address"
        }
      ],
      "name": "balanceOf",
      "outputs": [
        {
          "internalType": "uint256",
          "name": "",
          "type": "uint256"
        }
      ],
      "stateMutability": "view",
      "type": "function"
    },
    {
      "inputs": [
        {
          "internalType": "uint256[4]",
          "name": "data",
          "type": "uint256[4]"
        },
        {
          "internalType": "uint256",
          "name": "tokenAmountOut",
          "type": "uint256"
        },
        {
          "internalType": "uint256",
          "name": "_consumeMarketSwapFee",
          "type": "uint256"
        }
      ],
      "name": "calcInGivenOut",
      "outputs": [
        {
          "internalType": "uint256",
          "name": "tokenAmountIn",
          "type": "uint256"
        },
        {
          "internalType": "uint256",
          "name": "tokenAmountInBalance",
          "type": "uint256"
        },
        {
          "components": [
            {
              "internalType": "uint256",
              "name": "LPFee",
              "type": "uint256"
            },
            {
              "internalType": "uint256",
              "name": "oceanFeeAmount",
              "type": "uint256"
            },
            {
              "internalType": "uint256",
              "name": "publishMarketFeeAmount",
              "type": "uint256"
            },
            {
              "internalType": "uint256",
              "name": "consumeMarketFee",
              "type": "uint256"
            }
          ],
          "internalType": "struct BMath.swapfees",
          "name": "_swapfees",
          "type": "tuple"
        }
      ],
      "stateMutability": "view",
      "type": "function"
    },
    {
      "inputs": [
        {
          "internalType": "uint256[4]",
          "name": "data",
          "type": "uint256[4]"
        },
        {
          "internalType": "uint256",
          "name": "tokenAmountIn",
          "type": "uint256"
        },
        {
          "internalType": "uint256",
          "name": "_consumeMarketSwapFee",
          "type": "uint256"
        }
      ],
      "name": "calcOutGivenIn",
      "outputs": [
        {
          "internalType": "uint256",
          "name": "tokenAmountOut",
          "type": "uint256"
        },
        {
          "internalType": "uint256",
          "name": "balanceInToAdd",
          "type": "uint256"
        },
        {
          "components": [
            {
              "internalType": "uint256",
              "name": "LPFee",
              "type": "uint256"
            },
            {
              "internalType": "uint256",
              "name": "oceanFeeAmount",
              "type": "uint256"
            },
            {
              "internalType": "uint256",
              "name": "publishMarketFeeAmount",
              "type": "uint256"
            },
            {
              "internalType": "uint256",
              "name": "consumeMarketFee",
              "type": "uint256"
            }
          ],
          "internalType": "struct BMath.swapfees",
          "name": "_swapfees",
          "type": "tuple"
        }
      ],
      "stateMutability": "view",
      "type": "function"
    },
    {
      "inputs": [
        {
          "internalType": "address",
          "name": "tokenOut",
          "type": "address"
        },
        {
          "internalType": "uint256",
          "name": "tokenAmountOut",
          "type": "uint256"
        }
      ],
      "name": "calcPoolInSingleOut",
      "outputs": [
        {
          "internalType": "uint256",
          "name": "poolAmountIn",
          "type": "uint256"
        }
      ],
      "stateMutability": "view",
      "type": "function"
    },
    {
      "inputs": [
        {
          "internalType": "address",
          "name": "tokenIn",
          "type": "address"
        },
        {
          "internalType": "uint256",
          "name": "tokenAmountIn",
          "type": "uint256"
        }
      ],
      "name": "calcPoolOutSingleIn",
      "outputs": [
        {
          "internalType": "uint256",
          "name": "poolAmountOut",
          "type": "uint256"
        }
      ],
      "stateMutability": "view",
      "type": "function"
    },
    {
      "inputs": [
        {
          "internalType": "address",
          "name": "tokenIn",
          "type": "address"
        },
        {
          "internalType": "uint256",
          "name": "poolAmountOut",
          "type": "uint256"
        }
      ],
      "name": "calcSingleInPoolOut",
      "outputs": [
        {
          "internalType": "uint256",
          "name": "tokenAmountIn",
          "type": "uint256"
        }
      ],
      "stateMutability": "view",
      "type": "function"
    },
    {
      "inputs": [
        {
          "internalType": "address",
          "name": "tokenOut",
          "type": "address"
        },
        {
          "internalType": "uint256",
          "name": "poolAmountIn",
          "type": "uint256"
        }
      ],
      "name": "calcSingleOutPoolIn",
      "outputs": [
        {
          "internalType": "uint256",
          "name": "tokenAmountOut",
          "type": "uint256"
        }
      ],
      "stateMutability": "view",
      "type": "function"
    },
    {
      "inputs": [],
      "name": "collectMarketFee",
      "outputs": [],
      "stateMutability": "nonpayable",
      "type": "function"
    },
    {
      "inputs": [],
      "name": "collectOPC",
      "outputs": [],
      "stateMutability": "nonpayable",
      "type": "function"
    },
    {
      "inputs": [
        {
          "internalType": "address",
          "name": "",
          "type": "address"
        }
      ],
      "name": "communityFees",
      "outputs": [
        {
          "internalType": "uint256",
          "name": "",
          "type": "uint256"
        }
      ],
      "stateMutability": "view",
      "type": "function"
    },
    {
      "inputs": [],
      "name": "decimals",
      "outputs": [
        {
          "internalType": "uint8",
          "name": "",
          "type": "uint8"
        }
      ],
      "stateMutability": "view",
      "type": "function"
    },
    {
      "inputs": [
        {
          "internalType": "address",
          "name": "dst",
          "type": "address"
        },
        {
          "internalType": "uint256",
          "name": "amt",
          "type": "uint256"
        }
      ],
      "name": "decreaseApproval",
      "outputs": [
        {
          "internalType": "bool",
          "name": "",
          "type": "bool"
        }
      ],
      "stateMutability": "nonpayable",
      "type": "function"
    },
    {
      "inputs": [
        {
          "internalType": "uint256",
          "name": "poolAmountIn",
          "type": "uint256"
        },
        {
          "internalType": "uint256",
          "name": "minAmountOut",
          "type": "uint256"
        }
      ],
      "name": "exitswapPoolAmountIn",
      "outputs": [
        {
          "internalType": "uint256",
          "name": "tokenAmountOut",
          "type": "uint256"
        }
      ],
      "stateMutability": "nonpayable",
      "type": "function"
    },
    {
      "inputs": [
        {
          "internalType": "address",
          "name": "tokenIn",
          "type": "address"
        },
        {
          "internalType": "address",
          "name": "tokenOut",
          "type": "address"
        },
        {
          "internalType": "uint256",
          "name": "tokenAmountOut",
          "type": "uint256"
        },
        {
          "internalType": "uint256",
          "name": "_consumeMarketSwapFee",
          "type": "uint256"
        }
      ],
      "name": "getAmountInExactOut",
      "outputs": [
        {
          "internalType": "uint256",
          "name": "tokenAmountIn",
          "type": "uint256"
        },
        {
          "internalType": "uint256",
          "name": "lpFeeAmount",
          "type": "uint256"
        },
        {
          "internalType": "uint256",
          "name": "oceanFeeAmount",
          "type": "uint256"
        },
        {
          "internalType": "uint256",
          "name": "publishMarketSwapFeeAmount",
          "type": "uint256"
        },
        {
          "internalType": "uint256",
          "name": "consumeMarketSwapFeeAmount",
          "type": "uint256"
        }
      ],
      "stateMutability": "view",
      "type": "function"
    },
    {
      "inputs": [
        {
          "internalType": "address",
          "name": "tokenIn",
          "type": "address"
        },
        {
          "internalType": "address",
          "name": "tokenOut",
          "type": "address"
        },
        {
          "internalType": "uint256",
          "name": "tokenAmountIn",
          "type": "uint256"
        },
        {
          "internalType": "uint256",
          "name": "_consumeMarketSwapFee",
          "type": "uint256"
        }
      ],
      "name": "getAmountOutExactIn",
      "outputs": [
        {
          "internalType": "uint256",
          "name": "tokenAmountOut",
          "type": "uint256"
        },
        {
          "internalType": "uint256",
          "name": "lpFeeAmount",
          "type": "uint256"
        },
        {
          "internalType": "uint256",
          "name": "oceanFeeAmount",
          "type": "uint256"
        },
        {
          "internalType": "uint256",
          "name": "publishMarketSwapFeeAmount",
          "type": "uint256"
        },
        {
          "internalType": "uint256",
          "name": "consumeMarketSwapFeeAmount",
          "type": "uint256"
        }
      ],
      "stateMutability": "view",
      "type": "function"
    },
    {
      "inputs": [
        {
          "internalType": "address",
          "name": "token",
          "type": "address"
        }
      ],
      "name": "getBalance",
      "outputs": [
        {
          "internalType": "uint256",
          "name": "",
          "type": "uint256"
        }
      ],
      "stateMutability": "view",
      "type": "function"
    },
    {
      "inputs": [],
      "name": "getBaseTokenAddress",
      "outputs": [
        {
          "internalType": "address",
          "name": "",
          "type": "address"
        }
      ],
      "stateMutability": "view",
      "type": "function"
    },
    {
      "inputs": [],
      "name": "getController",
      "outputs": [
        {
          "internalType": "address",
          "name": "",
          "type": "address"
        }
      ],
      "stateMutability": "view",
      "type": "function"
    },
    {
      "inputs": [],
      "name": "getCurrentMarketFees",
      "outputs": [
        {
          "internalType": "address[]",
          "name": "",
          "type": "address[]"
        },
        {
          "internalType": "uint256[]",
          "name": "",
          "type": "uint256[]"
        }
      ],
      "stateMutability": "view",
      "type": "function"
    },
    {
      "inputs": [],
      "name": "getCurrentOPCFees",
      "outputs": [
        {
          "internalType": "address[]",
          "name": "",
          "type": "address[]"
        },
        {
          "internalType": "uint256[]",
          "name": "",
          "type": "uint256[]"
        }
      ],
      "stateMutability": "view",
      "type": "function"
    },
    {
      "inputs": [],
      "name": "getCurrentTokens",
      "outputs": [
        {
          "internalType": "address[]",
          "name": "tokens",
          "type": "address[]"
        }
      ],
      "stateMutability": "view",
      "type": "function"
    },
    {
      "inputs": [],
      "name": "getDatatokenAddress",
      "outputs": [
        {
          "internalType": "address",
          "name": "",
          "type": "address"
        }
      ],
      "stateMutability": "view",
      "type": "function"
    },
    {
      "inputs": [
        {
          "internalType": "address",
          "name": "token",
          "type": "address"
        }
      ],
      "name": "getDenormalizedWeight",
      "outputs": [
        {
          "internalType": "uint256",
          "name": "",
          "type": "uint256"
        }
      ],
      "stateMutability": "view",
      "type": "function"
    },
    {
      "inputs": [],
      "name": "getFinalTokens",
      "outputs": [
        {
          "internalType": "address[]",
          "name": "tokens",
          "type": "address[]"
        }
      ],
      "stateMutability": "view",
      "type": "function"
    },
    {
      "inputs": [],
      "name": "getId",
      "outputs": [
        {
          "internalType": "uint8",
          "name": "",
          "type": "uint8"
        }
      ],
      "stateMutability": "pure",
      "type": "function"
    },
    {
      "inputs": [],
      "name": "getMarketFee",
      "outputs": [
        {
          "internalType": "uint256",
          "name": "",
          "type": "uint256"
        }
      ],
      "stateMutability": "view",
      "type": "function"
    },
    {
      "inputs": [
        {
          "internalType": "address",
          "name": "token",
          "type": "address"
        }
      ],
      "name": "getNormalizedWeight",
      "outputs": [
        {
          "internalType": "uint256",
          "name": "",
          "type": "uint256"
        }
      ],
      "stateMutability": "view",
      "type": "function"
    },
    {
      "inputs": [],
      "name": "getNumTokens",
      "outputs": [
        {
          "internalType": "uint256",
          "name": "",
          "type": "uint256"
        }
      ],
      "stateMutability": "view",
      "type": "function"
    },
    {
      "inputs": [],
      "name": "getOPCFee",
      "outputs": [
        {
          "internalType": "uint256",
          "name": "",
          "type": "uint256"
        }
      ],
      "stateMutability": "view",
      "type": "function"
    },
    {
      "inputs": [
        {
          "internalType": "address",
          "name": "tokenIn",
          "type": "address"
        },
        {
          "internalType": "address",
          "name": "tokenOut",
          "type": "address"
        },
        {
          "internalType": "uint256",
          "name": "_consumeMarketSwapFee",
          "type": "uint256"
        }
      ],
      "name": "getSpotPrice",
      "outputs": [
        {
          "internalType": "uint256",
          "name": "spotPrice",
          "type": "uint256"
        }
      ],
      "stateMutability": "view",
      "type": "function"
    },
    {
      "inputs": [],
      "name": "getSwapFee",
      "outputs": [
        {
          "internalType": "uint256",
          "name": "",
          "type": "uint256"
        }
      ],
      "stateMutability": "view",
      "type": "function"
    },
    {
      "inputs": [],
      "name": "getTotalDenormalizedWeight",
      "outputs": [
        {
          "internalType": "uint256",
          "name": "",
          "type": "uint256"
        }
      ],
      "stateMutability": "view",
      "type": "function"
    },
    {
      "inputs": [
        {
          "internalType": "address",
          "name": "token",
          "type": "address"
        }
      ],
      "name": "gulp",
      "outputs": [],
      "stateMutability": "nonpayable",
      "type": "function"
    },
    {
      "inputs": [
        {
          "internalType": "address",
          "name": "dst",
          "type": "address"
        },
        {
          "internalType": "uint256",
          "name": "amt",
          "type": "uint256"
        }
      ],
      "name": "increaseApproval",
      "outputs": [
        {
          "internalType": "bool",
          "name": "",
          "type": "bool"
        }
      ],
      "stateMutability": "nonpayable",
      "type": "function"
    },
    {
      "inputs": [
        {
          "internalType": "address",
          "name": "controller",
          "type": "address"
        },
        {
          "internalType": "address",
          "name": "factory",
          "type": "address"
        },
        {
          "internalType": "uint256[]",
          "name": "swapFees",
          "type": "uint256[]"
        },
        {
          "internalType": "bool",
          "name": "publicSwap",
          "type": "bool"
        },
        {
          "internalType": "bool",
          "name": "finalized",
          "type": "bool"
        },
        {
          "internalType": "address[2]",
          "name": "tokens",
          "type": "address[2]"
        },
        {
          "internalType": "address[2]",
          "name": "feeCollectors",
          "type": "address[2]"
        }
      ],
      "name": "initialize",
      "outputs": [
        {
          "internalType": "bool",
          "name": "",
          "type": "bool"
        }
      ],
      "stateMutability": "nonpayable",
      "type": "function"
    },
    {
      "inputs": [
        {
          "internalType": "address",
          "name": "t",
          "type": "address"
        }
      ],
      "name": "isBound",
      "outputs": [
        {
          "internalType": "bool",
          "name": "",
          "type": "bool"
        }
      ],
      "stateMutability": "view",
      "type": "function"
    },
    {
      "inputs": [],
      "name": "isFinalized",
      "outputs": [
        {
          "internalType": "bool",
          "name": "",
          "type": "bool"
        }
      ],
      "stateMutability": "view",
      "type": "function"
    },
    {
      "inputs": [],
      "name": "isInitialized",
      "outputs": [
        {
          "internalType": "bool",
          "name": "",
          "type": "bool"
        }
      ],
      "stateMutability": "view",
      "type": "function"
    },
    {
      "inputs": [],
      "name": "isPublicSwap",
      "outputs": [
        {
          "internalType": "bool",
          "name": "",
          "type": "bool"
        }
      ],
      "stateMutability": "view",
      "type": "function"
    },
    {
      "inputs": [
        {
          "internalType": "uint256",
          "name": "tokenAmountIn",
          "type": "uint256"
        },
        {
          "internalType": "uint256",
          "name": "minPoolAmountOut",
          "type": "uint256"
        }
      ],
      "name": "joinswapExternAmountIn",
      "outputs": [
        {
          "internalType": "uint256",
          "name": "poolAmountOut",
          "type": "uint256"
        }
      ],
      "stateMutability": "nonpayable",
      "type": "function"
    },
    {
      "inputs": [],
      "name": "name",
      "outputs": [
        {
          "internalType": "string",
          "name": "",
          "type": "string"
        }
      ],
      "stateMutability": "view",
      "type": "function"
    },
    {
      "inputs": [
        {
          "internalType": "address",
          "name": "",
          "type": "address"
        }
      ],
      "name": "publishMarketFees",
      "outputs": [
        {
          "internalType": "uint256",
          "name": "",
          "type": "uint256"
        }
      ],
      "stateMutability": "view",
      "type": "function"
    },
    {
      "inputs": [
        {
          "internalType": "uint256",
          "name": "swapFee",
          "type": "uint256"
        }
      ],
      "name": "setSwapFee",
      "outputs": [],
      "stateMutability": "nonpayable",
      "type": "function"
    },
    {
      "inputs": [
        {
          "internalType": "address",
          "name": "datatokenAddress",
          "type": "address"
        },
        {
          "internalType": "uint256",
          "name": "datatokenAmount",
          "type": "uint256"
        },
        {
          "internalType": "uint256",
          "name": "datatokenWeight",
          "type": "uint256"
        },
        {
          "internalType": "address",
          "name": "baseTokenAddress",
          "type": "address"
        },
        {
          "internalType": "uint256",
          "name": "baseTokenAmount",
          "type": "uint256"
        },
        {
          "internalType": "uint256",
          "name": "baseTokenWeight",
          "type": "uint256"
        }
      ],
      "name": "setup",
      "outputs": [],
      "stateMutability": "nonpayable",
      "type": "function"
    },
    {
      "inputs": [
        {
          "internalType": "address[3]",
          "name": "tokenInOutMarket",
          "type": "address[3]"
        },
        {
          "internalType": "uint256[4]",
          "name": "amountsInOutMaxFee",
          "type": "uint256[4]"
        }
      ],
      "name": "swapExactAmountIn",
      "outputs": [
        {
          "internalType": "uint256",
          "name": "tokenAmountOut",
          "type": "uint256"
        },
        {
          "internalType": "uint256",
          "name": "spotPriceAfter",
          "type": "uint256"
        }
      ],
      "stateMutability": "nonpayable",
      "type": "function"
    },
    {
      "inputs": [
        {
          "internalType": "address[3]",
          "name": "tokenInOutMarket",
          "type": "address[3]"
        },
        {
          "internalType": "uint256[4]",
          "name": "amountsInOutMaxFee",
          "type": "uint256[4]"
        }
      ],
      "name": "swapExactAmountOut",
      "outputs": [
        {
          "internalType": "uint256",
          "name": "tokenAmountIn",
          "type": "uint256"
        },
        {
          "internalType": "uint256",
          "name": "spotPriceAfter",
          "type": "uint256"
        }
      ],
      "stateMutability": "nonpayable",
      "type": "function"
    },
    {
      "inputs": [],
      "name": "symbol",
      "outputs": [
        {
          "internalType": "string",
          "name": "",
          "type": "string"
        }
      ],
      "stateMutability": "view",
      "type": "function"
    },
    {
      "inputs": [],
      "name": "totalSupply",
      "outputs": [
        {
          "internalType": "uint256",
          "name": "",
          "type": "uint256"
        }
      ],
      "stateMutability": "view",
      "type": "function"
    },
    {
      "inputs": [
        {
          "internalType": "address",
          "name": "dst",
          "type": "address"
        },
        {
          "internalType": "uint256",
          "name": "amt",
          "type": "uint256"
        }
      ],
      "name": "transfer",
      "outputs": [
        {
          "internalType": "bool",
          "name": "",
          "type": "bool"
        }
      ],
      "stateMutability": "nonpayable",
      "type": "function"
    },
    {
      "inputs": [
        {
          "internalType": "address",
          "name": "src",
          "type": "address"
        },
        {
          "internalType": "address",
          "name": "dst",
          "type": "address"
        },
        {
          "internalType": "uint256",
          "name": "amt",
          "type": "uint256"
        }
      ],
      "name": "transferFrom",
      "outputs": [
        {
          "internalType": "bool",
          "name": "",
          "type": "bool"
        }
      ],
      "stateMutability": "nonpayable",
      "type": "function"
    },
    {
      "inputs": [
        {
          "internalType": "address",
          "name": "_newCollector",
          "type": "address"
        },
        {
          "internalType": "uint256",
          "name": "_newSwapFee",
          "type": "uint256"
        }
      ],
      "name": "updatePublishMarketFee",
      "outputs": [],
      "stateMutability": "nonpayable",
      "type": "function"
    }
  ],
  "bytecode": "0x60c0604052601360808190527f42616c616e63657220506f6f6c20546f6b656e0000000000000000000000000060a09081526200004091600a91906200008f565b506040805180820190915260038082526210941560ea1b60209092019182526200006d91600b916200008f565b50600c805460ff191660121790553480156200008857600080fd5b5062000172565b8280546200009d9062000135565b90600052602060002090601f016020900481019282620000c157600085556200010c565b82601f10620000dc57805160ff19168380011785556200010c565b828001600101855582156200010c579182015b828111156200010c578251825591602001919060010190620000ef565b506200011a9291506200011e565b5090565b5b808211156200011a57600081556001016200011f565b600181811c908216806200014a57607f821691505b602082108114156200016c57634e487b7160e01b600052602260045260246000fd5b50919050565b615a1a80620001826000396000f3fe608060405234801561001057600080fd5b50600436106104285760003560e01c8063892cdf9e1161022b578063c070a6d811610130578063d4cadf68116100b8578063ec09302111610087578063ec09302114610910578063f1b8a9b714610918578063f8b2cb4f1461092b578063fde924f71461093e578063ff9b18501461095057600080fd5b8063d4cadf68146108bc578063d73dd623146108c4578063dd62ed3e146108d7578063e4a28a521461048f57600080fd5b8063c6580d12116100ff578063c6580d121461087e578063c98a59cf14610886578063caa0114814610899578063cc77828d146108ac578063cd2ed8fb146108b457600080fd5b8063c070a6d81461083b578063c36596a6146104e2578063c421a3fc1461084e578063c44a42831461087657600080fd5b8063a9059cbb116101b3578063ba019dab11610182578063ba019dab146107f8578063bc063e1a14610800578063bc694ea214610808578063be3bbd2e14610810578063bf7db2361461082557600080fd5b8063a9059cbb146107d5578063ab77a2de146107e8578063b0e0d136146107f0578063b7b800a4146107f057600080fd5b80639381cd2b116101fa5780639381cd2b14610797578063948d8ce61461079f57806395d89b41146107b2578063992e2a92146107ba578063a3b3a16d146107c257600080fd5b8063892cdf9e146107575780638c28cbe81461076a5780638d4e40831461077d578063936c34771461078f57600080fd5b8063392e53cd11610331578063638c9e95116102b95780637a284be4116102885780637a284be41461070b5780637c5918b31461071457806380ca7308146107345780638329ab331461073c578063867378c51461074f57600080fd5b8063638c9e95146106b457806366188463146106c757806370a08231146106da57806376c7a3c71461070357600080fd5b80634df947d0116103005780634df947d01461063357806351705cd0146106445780635c3f1532146106925780635d1ca631146106a55780635e123add146106ac57600080fd5b8063392e53cd146105ea5780633950b3fd146105fc578063430ed5d01461060f578063458c3fb51461062257600080fd5b8063218b5382116103b45780632f37b624116103835780632f37b6241461054757806330062192146105735780633018205f14610593578063313ce567146105be57806334e19907146105d757600080fd5b8063218b5382146104e257806323b872dd146104f157806329b88a6a146105045780632eebd6ae1461050c57600080fd5b806309ef3f5b116103fb57806309ef3f5b1461049757806312989260146104ac57806318160ddd146104bf578063189d00ca146104c757806318f9722a146104cf57600080fd5b806306fdde031461042d578063079492d41461044b578063095ea7b31461046c57806309a3bbe41461048f575b600080fd5b610435610963565b60405161044291906152cb565b60405180910390f35b61045e610459366004615315565b6109f5565b604051908152602001610442565b61047f61047a366004615351565b610a88565b6040519015158152602001610442565b61045e610ae3565b6104aa6104a536600461537b565b610af9565b005b61045e6104ba3660046153d3565b610d35565b60095461045e565b61045e61116c565b6104aa6104dd366004615351565b611183565b61045e670de0b6b3a764000081565b61047f6104ff366004615315565b6112fb565b61045e61144a565b61051f61051a3660046153f5565b6114c4565b604080519586526020860194909452928401919091526060830152608082015260a001610442565b61047f610555366004615437565b6001600160a01b031660009081526010602052604090205460ff1690565b61045e610581366004615437565b60056020526000908152604090205481565b600c546201000090046001600160a01b03165b6040516001600160a01b039091168152602001610442565b600c5460ff165b60405160ff9091168152602001610442565b6104aa6105e5366004615452565b61159c565b601254600160a01b900460ff1661047f565b61045e61060a366004615351565b611697565b61045e61061d366004615351565b6116ff565b6003546001600160a01b03166105a6565b6004546001600160a01b03166105a6565b610657610652366004615481565b61175f565b6040805193845260208085019390935281518482015291810151606080850191909152918101516080840152015160a082015260c001610442565b600e546105a6906001600160a01b031681565b60016105c5565b60005461045e565b600d546105a6906001600160a01b031681565b61047f6106d5366004615351565b611912565b61045e6106e8366004615437565b6001600160a01b031660009081526007602052604090205490565b61045e6119e8565b61045e60005481565b61045e610722366004615437565b60066020526000908152604090205481565b6104aa6119fc565b61045e61074a3660046153d3565b611b8e565b61045e611f81565b610657610765366004615481565b611f98565b6104aa610778366004615437565b612130565b600e54600160a01b900460ff1661047f565b61045e6122aa565b61045e6122dc565b61045e6107ad366004615437565b6122ef565b610435612346565b61045e612355565b61045e6107d0366004615351565b612373565b61047f6107e3366004615351565b6123d3565b6104aa6123e9565b61045e600281565b61045e600181565b61045e612557565b61045e61256a565b610818612589565b6040516104429190615551565b61082d61263c565b604051610442929190615564565b61047f6108493660046155e5565b6127ac565b61086161085c3660046156c1565b612a9a565b60408051928352602083019190915201610442565b61082d613271565b61045e600081565b6108616108943660046156c1565b6133d6565b61051f6108a73660046153f5565b613b07565b610818613bb1565b600f5461045e565b60015461045e565b61047f6108d2366004615351565b613bdc565b61045e6108e5366004615703565b6001600160a01b03918216600090815260086020908152604080832093909416825291909152205490565b61045e613c4f565b61045e610926366004615437565b613c62565b61045e610939366004615437565b613cc0565b600c54600160b01b900460ff1661047f565b61045e61095e366004615351565b613d13565b6060600a805461097290615736565b80601f016020809104026020016040519081016040528092919081815260200182805461099e90615736565b80156109eb5780601f106109c0576101008083540402835291602001916109eb565b820191906000526020600020905b8154815290600101906020018083116109ce57829003601f168201915b5050505050905090565b600c54600090610100900460ff1615610a295760405162461bcd60e51b8152600401610a2090615771565b60405180910390fd5b610a3284613d73565b610a3b83613d73565b6001600160a01b03808516600090815260106020526040808220928616825290206003808301546002808501549284015490840154610a7c93919088613dce565b925050505b9392505050565b3360008181526008602090815260408083206001600160a01b038716808552925280832085905551919290916000805160206159c583398151915290610ad19086815260200190565b60405180910390a35060015b92915050565b610af6670de0b6b3a764000060326157ac565b81565b600c54610100900460ff1615610b215760405162461bcd60e51b8152600401610a2090615771565b600c805461010061ff001990911617908190556201000090046001600160a01b03163314610b8a5760405162461bcd60e51b815260206004820152601660248201527522a9292fa4a72b20a624a22fa1a7a72a2927a62622a960511b6044820152606401610a20565b6003546001600160a01b03878116911614610be75760405162461bcd60e51b815260206004820152601d60248201527f4552525f494e56414c49445f44415441544f4b454e5f414444524553530000006044820152606401610a20565b6004546001600160a01b03848116911614610c445760405162461bcd60e51b815260206004820152601d60248201527f4552525f494e56414c49445f62617365546f6b656e5f414444524553530000006044820152606401610a20565b610c4f868686613e5a565b604080518681524260208201526001600160a01b0388169133916000805160206159a5833981519152910160405180910390a3610c8d838383613e5a565b604080518381524260208201526001600160a01b0385169133916000805160206159a5833981519152910160405180910390a3610cc8614049565b6040805183815260208101839052908101869052606081018590526001600160a01b03808816919085169033907fbece8b4dcdbe446dd65a9288154698e067e3e91de17a1a408c2f531b9f845d739060800160405180910390a45050600c805461ff001916905550505050565b600c54600090610100900460ff1615610d605760405162461bcd60e51b8152600401610a2090615771565b600c805461ff001916610100179055600e54600160a01b900460ff16610d985760405162461bcd60e51b8152600401610a20906157cb565b600454610dad906001600160a01b0316613d73565b6004546001600160a01b0316600090815260106020526040902060038101546002820154600954601154610de493929190886140a8565b915082821015610e065760405162461bcd60e51b8152600401610a20906157f6565b6004546001600160a01b03166000908152601060205260409020600390810154610e4c91610e3c90670de0b6b3a7640000615833565b610e47906001615847565b614138565b821115610e8f5760405162461bcd60e51b81526020600482015260116024820152704552525f4d41585f4f55545f524154494f60781b6044820152606401610a20565b610e9d81600301548361421d565b6003820155600454604080518481524260208201526001600160a01b039092169133917f9d9058fd2f25ccc389fec7720abef0ca83472f5abfafd5f10d37f51e6a0493f3910160405180910390a36040518481527ffcda32798d5a9d032f49b37fea876d422f18f6e386e0f07db6029b693624b2c29060200160405180910390a1601254600354604051630d098ab360e11b81526001600160a01b03918216600482015260248101879052911690631a13156690604401602060405180830381865afa158015610f71573d6000803e3d6000fd5b505050506040513d601f19601f82011682018060405250810190610f95919061585f565b1561113057600380546001600160a01b03166000908152601060205260408120918201546002830154600954601154610fd1939291908a6140a8565b9050610fe182600301548261421d565b60038381019190915554600c54604080518481524260208201526001600160a01b039384169362010000909304909216917f9d9058fd2f25ccc389fec7720abef0ca83472f5abfafd5f10d37f51e6a0493f3910160405180910390a3600c54611059906201000090046001600160a01b03168761427a565b61106286614284565b600354600c54611085916001600160a01b0390811691620100009004168361428d565b60125460035460405163054a976360e41b81526001600160a01b03918216600482015260248101849052604481018990529116906354a9763090606401600060405180830381600087803b1580156110dc57600080fd5b505af11580156110f0573d6000803e3d6000fd5b505050507f87b3975661762d852ddf2eeaad6a43b2d93777de7b3b7bdb634283df324561188660405161112591815260200190565b60405180910390a150505b61113a338561427a565b61114384614284565b60045461115a906001600160a01b0316338461428d565b50600c805461ff001916905592915050565b610af66402540be400670de0b6b3a7640000615833565b600d546001600160a01b031633146111d55760405162461bcd60e51b815260206004820152601560248201527427a7262c9026a0a925a2aa1021a7a62622a1aa27a960591b6044820152606401610a20565b6001600160a01b03821661122b5760405162461bcd60e51b815260206004820152601d60248201527f496e76616c6964205f6e6577436f6c6c6563746f7220616464726573730000006044820152606401610a20565b80158061124b5750611247612710670de0b6b3a7640000615833565b8110155b6112675760405162461bcd60e51b8152600401610a209061587c565b61127a600a670de0b6b3a7640000615833565b8111156112995760405162461bcd60e51b8152600401610a20906158a1565b600d80546001600160a01b0319166001600160a01b03841690811790915560008290556040517f5e3e722dbd3b6b8071b78568ac80cd0e8ff92e4fb3024e755d504d8f7c2f6f09916112ef9133919085906158c6565b60405180910390a15050565b6000336001600160a01b038516148061133757506001600160a01b03841660009081526008602090815260408083203384529091529020548211155b61137b5760405162461bcd60e51b815260206004820152601560248201527422a9292fa12a27a5a2a72fa120a22fa1a0a62622a960591b6044820152606401610a20565b6113868484846142a1565b336001600160a01b038516148015906113c457506001600160a01b038416600090815260086020908152604080832033845290915290205460001914155b15611440576001600160a01b03841660009081526008602090815260408083203384529091529020546113f7908361421d565b6001600160a01b038516600081815260086020908152604080832033808552908352928190208590555193845290926000805160206159c5833981519152910160405180910390a35b5060019392505050565b6002546004805460405163b8421e2b60e01b81526001600160a01b0391821692810192909252600092169063b8421e2b90602401602060405180830381865afa15801561149b573d6000803e3d6000fd5b505050506040513d601f19601f820116820180604052508101906114bf91906158ea565b905090565b60008060008060006114d589613d73565b6114de88613d73565b604080516080810182526001600160a01b03808c16600090815260106020818152858320600380820154875260029182015483880152948f168085528383528785209586015497870197909752958352529201546060820152906115636040518060800160405280600081526020016000815260200160008152602001600081525090565b61156e838b8b611f98565b805160208201516040830151606090930151949c50909a509850965090945050505050945094509450945094565b600c546201000090046001600160a01b031633146115f15760405162461bcd60e51b815260206004820152601260248201527122a9292fa727aa2fa1a7a72a2927a62622a960711b6044820152606401610a20565b611605612710670de0b6b3a7640000615833565b8110156116245760405162461bcd60e51b8152600401610a209061587c565b611637600a670de0b6b3a7640000615833565b8111156116565760405162461bcd60e51b8152600401610a20906158a1565b600181905560408051338152602081018390527fbca0d601c32979eebac4e8cd06375b6e45d39af80fc06a33f366425b450dfb69910160405180910390a150565b6001600160a01b03821660009081526010602090815260408083208151608081018352815460ff1615158152600182015493810193909352600281015491830182905260030154606083018190526009546011546116f7939190876143b3565b949350505050565b6001600160a01b03821660009081526010602090815260408083208151608081018352815460ff1615158152600182015493810193909352600281015491830182905260030154606083018190526009546011546116f7939190876140a8565b60008061178d6040518060800160405280600081526020016000815260200160008152602001600081525090565b60006117a887600360200201518860015b602002015161442a565b905060006117bd88600260200201518861421d565b905060006117d289600260200201518361442a565b905060006117e08285614542565b90506117f481670de0b6b3a764000061421d565b9050600080548961180361144a565b6001546118109190615847565b61181a9190615847565b6118249190615847565b905061185261183b8c60005b602002015184614138565b61184d670de0b6b3a76400008461421d565b61442a565b9750611875886118708a610e47670de0b6b3a764000061187061144a565b61421d565b86602001818152505061189a886118708a610e47670de0b6b3a764000060005461421d565b8660400181815250506118bf886118708a610e47670de0b6b3a764000060015461421d565b86526118db8861187081610e47670de0b6b3a76400008e61421d565b60608701526119026118ee8c6000611830565b61184d670de0b6b3a764000060015461421d565b9650505050505093509350939050565b3360009081526008602090815260408083206001600160a01b038616845290915281205480831115611967573360009081526008602090815260408083206001600160a01b0388168452909152812055611996565b611971818461421d565b3360009081526008602090815260408083206001600160a01b03891684529091529020555b3360008181526008602090815260408083206001600160a01b038916808552908352928190205490519081529192916000805160206159c5833981519152910160405180910390a35060019392505050565b610af6612710670de0b6b3a7640000615833565b6000611a06612589565b905060005b8151811015611b8a57600060066000848481518110611a2c57611a2c615903565b60200260200101516001600160a01b03166001600160a01b03168152602001908152602001600020549050600060066000858581518110611a6f57611a6f615903565b60200260200101516001600160a01b03166001600160a01b0316815260200190815260200160002081905550611ae7600d60009054906101000a90046001600160a01b031682858581518110611ac757611ac7615903565b60200260200101516001600160a01b031661466e9092919063ffffffff16565b7fbaf1ab77be65c7abf8fcd922bfcf0a749f556ac1a4cdf39c126ffaa1851edb5633600d60009054906101000a90046001600160a01b0316858581518110611b3157611b31615903565b602002602001015184604051611b6f94939291906001600160a01b039485168152928416602084015292166040820152606081019190915260800190565b60405180910390a15080611b8281615919565b915050611a0b565b5050565b600c54600090610100900460ff1615611bb95760405162461bcd60e51b8152600401610a2090615771565b600c805461ff001916610100179055600e54600160a01b900460ff16611bf15760405162461bcd60e51b8152600401610a20906157cb565b600454611c06906001600160a01b0316613d73565b6004546001600160a01b0316600090815260106020526040902060030154611c3b90610e476002670de0b6b3a7640000615833565b831115611c7d5760405162461bcd60e51b815260206004820152601060248201526f4552525f4d41585f494e5f524154494f60801b6044820152606401610a20565b6004546001600160a01b0316600090815260106020526040902060038101546002820154600954601154611cb493929190886143b3565b915082821015611cd65760405162461bcd60e51b8152600401610a20906157f6565b611ce48160030154856146d1565b6003820155600454604080518681524260208201526001600160a01b039092169133916000805160206159a5833981519152910160405180910390a36040518281527ffcda32798d5a9d032f49b37fea876d422f18f6e386e0f07db6029b693624b2c29060200160405180910390a1600380546001600160a01b03166000908152601060205260408120918201546002830154600954601154611d8a9392919088614723565b601254600354604051632afbbacb60e01b81526001600160a01b039182166004820152602481018490529293501690632afbbacb90604401602060405180830381865afa158015611ddf573d6000803e3d6000fd5b505050506040513d601f19601f82011682018060405250810190611e03919061585f565b15611f435760125460035460405163ebedb8b360e01b81526001600160a01b0391821660048201526024810184905291169063ebedb8b390604401600060405180830381600087803b158015611e5857600080fd5b505af1158015611e6c573d6000803e3d6000fd5b50505050611e7e8260030154826146d1565b60038381019190915554600c54604080518481524260208201526001600160a01b039384169362010000909304909216916000805160206159a5833981519152910160405180910390a36040518481527f87b3975661762d852ddf2eeaad6a43b2d93777de7b3b7bdb634283df324561189060200160405180910390a1611f048461478c565b600c54611f20906201000090046001600160a01b031685614795565b600354600c54611f43916001600160a01b0390811691620100009004168361479f565b611f4c8461478c565b611f563385614795565b600454611f6d906001600160a01b0316338861479f565b505050600c805461ff001916905592915050565b610af664e8d4a51000670de0b6b3a7640000615833565b600080611fc66040518060800160405280600081526020016000815260200160008152602001600081525090565b6000611fdb876001602002015188600361179e565b9050611ff98661187088610e47670de0b6b3a764000061187061144a565b82602001818152505061201e8661187088610e47670de0b6b3a764000060005461421d565b8260400181815250506120438661187088610e47670de0b6b3a764000060015461421d565b825261205f8661187081610e47670de0b6b3a76400008a61421d565b606083015260008054869061207261144a565b60015461207f9190615847565b6120899190615847565b6120939190615847565b905060006120a9670de0b6b3a76400008361421d565b90506120b58882614138565b89519091506000906120cb9061184d81856146d1565b905060006120d98286614542565b905060006120ef670de0b6b3a76400008361421d565b90506121028c6002602002015182614138565b98508861211d8c89604001518a602001516118709190615847565b9850985050505050505093509350939050565b600c54610100900460ff16156121585760405162461bcd60e51b8152600401610a2090615771565b600c805461ff0019166101001790556001600160a01b03811660009081526010602052604090205460ff166121bf5760405162461bcd60e51b815260206004820152600d60248201526c11549497d393d517d093d55391609a1b6044820152606401610a20565b6001600160a01b038116600081815260106020526040908190206003015490516370a0823160e01b81523060048201529091906370a0823190602401602060405180830381865afa158015612218573d6000803e3d6000fd5b505050506040513d601f19601f8201168201806040525081019061223c91906158ea565b6001600160a01b038316600081815260106020908152604091829020600301849055815192835282018490528101919091527f9facca02b471d2776031537a8c9e281dfe5120035ede107bd328b165ffd973389060600160405180910390a15050600c805461ff0019169055565b600c54600090610100900460ff16156122d55760405162461bcd60e51b8152600401610a2090615771565b5060115490565b610af6670de0b6b3a764000060646157ac565b600c54600090610100900460ff161561231a5760405162461bcd60e51b8152600401610a2090615771565b61232382613d73565b506001600160a01b0381166000908152601060205260409020600201545b919050565b6060600b805461097290615736565b6123686003670de0b6b3a7640000615833565b610af6906001615847565b6001600160a01b03821660009081526010602090815260408083208151608081018352815460ff1615158152600182015493810193909352600281015491830182905260030154606083018190526009546011546116f7939190876148e7565b60006123e03384846142a1565b50600192915050565b60006123f3612589565b905060005b8151811015611b8a5760006005600084848151811061241957612419615903565b60200260200101516001600160a01b03166001600160a01b0316815260200190815260200160002054905060006005600085858151811061245c5761245c615903565b60200260200101516001600160a01b03166001600160a01b03168152602001908152602001600020819055506124b4600e60009054906101000a90046001600160a01b031682858581518110611ac757611ac7615903565b7fed2b0288692cfc6d01c94a67a53721792f59c3d1388221f8aa4f66c8d2808dde33600e60009054906101000a90046001600160a01b03168585815181106124fe576124fe615903565b60200260200101518460405161253c94939291906001600160a01b039485168152928416602084015292166040820152606081019190915260800190565b60405180910390a1508061254f81615919565b9150506123f8565b610af6600a670de0b6b3a7640000615833565b600161257f670de0b6b3a764000060026157ac565b610af69190615934565b600c54606090610100900460ff16156125b45760405162461bcd60e51b8152600401610a2090615771565b600e54600160a01b900460ff166125dd5760405162461bcd60e51b8152600401610a20906157cb565b600f8054806020026020016040519081016040528092919081815260200182805480156109eb57602002820191906000526020600020905b81546001600160a01b03168152600190910190602001808311612615575050505050905090565b6060806000612649612589565b90506000815167ffffffffffffffff8111156126675761266761546b565b604051908082528060200260200182016040528015612690578160200160208202803683370190505b5090506000825167ffffffffffffffff8111156126af576126af61546b565b6040519080825280602002602001820160405280156126d8578160200160208202803683370190505b50905060005b83518110156127a1578381815181106126f9576126f9615903565b602002602001015183828151811061271357612713615903565b60200260200101906001600160a01b031690816001600160a01b0316815250506005600085838151811061274957612749615903565b60200260200101516001600160a01b03166001600160a01b031681526020019081526020016000205482828151811061278457612784615903565b60209081029190910101528061279981615919565b9150506126de565b509094909350915050565b601254600090600160a01b900460ff16156128095760405162461bcd60e51b815260206004820152601760248201527f4552525f414c52454144595f494e495449414c495a45440000000000000000006044820152606401610a20565b6001600160a01b03891661285f5760405162461bcd60e51b815260206004820152601e60248201527f4552525f494e56414c49445f434f4e54524f4c4c45525f4144445245535300006044820152606401610a20565b6001600160a01b0388166128b55760405162461bcd60e51b815260206004820152601b60248201527f4552525f494e56414c49445f464143544f52595f4144445245535300000000006044820152606401610a20565b6128c9612710670de0b6b3a7640000615833565b878760008181106128dc576128dc615903565b9050602002013510156129015760405162461bcd60e51b8152600401610a209061587c565b612914600a670de0b6b3a7640000615833565b8787600081811061292757612927615903565b90506020020135111561294c5760405162461bcd60e51b8152600401610a20906158a1565b8686600181811061295f5761295f615903565b90506020020135600014806129a05750612983612710670de0b6b3a7640000615833565b8787600181811061299657612996615903565b9050602002013510155b6129bc5760405162461bcd60e51b8152600401610a209061587c565b6129cf600a670de0b6b3a7640000615833565b878760018181106129e2576129e2615903565b905060200201351115612a075760405162461bcd60e51b8152600401610a20906158a1565b612a8d8989898980806020026020016040519081016040528093929190818152602001838360200280828437600092019190915250506040805180820182528c93508b9250908a9060029083908390808284376000920191909152505060408051808201825291508a9060029083908390808284376000920191909152506149a6915050565b9998505050505050505050565b600c546000908190610100900460ff1615612ac75760405162461bcd60e51b8152600401610a2090615771565b600c805461ff001916610100179055600e54600160a01b900460ff16612aff5760405162461bcd60e51b8152600401610a20906157cb565b612b0f6040850160208601615437565b6001600160a01b0316612b256020860186615437565b6001600160a01b03161415612b755760405162461bcd60e51b815260206004820152601660248201527521b0b73737ba1039bbb0b81039b0b6b2903a37b5b2b760511b6044820152606401610a20565b612b948460005b602002016020810190612b8f9190615437565b613d73565b612b9f846001612b7c565b6000601081612bb16020880188615437565b6001600160a01b03168152602081019190915260400160009081209150601081876001602002016020810190612be79190615437565b6001600160a01b031681526020810191909152604001600020905060608501351580612c2a5750612c22612710670de0b6b3a7640000615833565b606086013510155b612c6f5760405162461bcd60e51b8152602060048201526016602482015275436f6e73756d655377617046656520746f6f206c6f7760501b6044820152606401610a20565b612c82600a670de0b6b3a7640000615833565b60608601351115612ccf5760405162461bcd60e51b8152602060048201526017602482015276086dedce6eadacaa6eec2e08ccaca40e8dede40d0d2ced604b1b6044820152606401610a20565b6003820154612ceb90610e476002670de0b6b3a7640000615833565b85351115612d2e5760405162461bcd60e51b815260206004820152601060248201526f4552525f4d41585f494e5f524154494f60801b6044820152606401610a20565b6000612d6483600301548460020154846003015485600201548a600360048110612d5a57612d5a615903565b6020020135613dce565b90506040860135811115612db05760405162461bcd60e51b81526020600482015260136024820152724552525f4241445f4c494d49545f505249434560681b6044820152606401610a20565b600080604051806080016040528086600301548152602001866002015481526020018560030154815260200185600201548152509050612e116040518060800160405280600081526020016000815260200160008152602001600081525090565b612e21828a3560608c0135611f98565b91995093509050612e70600560008c815b602002016020810190612e459190615437565b6001600160a01b03166001600160a01b031681526020019081526020016000205482602001516146d1565b60056000612e8160208e018e615437565b6001600160a01b03166001600160a01b0316815260200190815260200160002081905550612efd600660008c600060038110612ebf57612ebf615903565b602002016020810190612ed29190615437565b6001600160a01b03166001600160a01b031681526020019081526020016000205482604001516146d1565b60066000612f0e60208e018e615437565b6001600160a01b03166001600160a01b03168152602001908152602001600020819055507f53a9dc73d01196a9c660d761bc5ec77b945340a34b5b52e510760af2dab1c0f181600001518260200151836040015184606001518e600060038110612f7a57612f7a615903565b602002016020810190612f8d9190615437565b6040805195865260208601949094529284019190915260608301526001600160a01b0316608082015260a00160405180910390a16020890135881015612fe55760405162461bcd60e51b8152600401610a20906157f6565b612ff38660030154846146d1565b866003018190555061300985600301548961421d565b856003018190555061303b86600301548760020154876003015488600201548d600360048110612d5a57612d5a615903565b96508387101561305d5760405162461bcd60e51b8152600401610a209061594b565b60408901358711156130a35760405162461bcd60e51b815260206004820152600f60248201526e4552525f4c494d49545f505249434560881b6044820152606401610a20565b6130ae89358961442a565b8411156130cd5760405162461bcd60e51b8152600401610a209061594b565b6130dd60408b0160208c01615437565b6001600160a01b03166130f360208c018c615437565b60038089015490880154604080518e358152602081018e905242918101919091526060810192909252608082015260a081018a90526001600160a01b03919091169033907fbdafe88494b31fc7436fe7992b0f377e874287e841e62eed1ad77e84f3c5b1719060c00160405180910390a461317c61317460208c018c615437565b338b3561479f565b60006131a18a3561187081610e47670de0b6b3a76400008f60035b602002013561421d565b905060608a01351561323c576131e58b60025b6020020160208101906131c79190615437565b826131d560208f018f615437565b6001600160a01b0316919061466e565b7f6d11837f46cc09b011cf4aae09fcade046c020aac088090ae4f77ff67b70797261321660608d0160408e01615437565b61322360208e018e615437565b83604051613233939291906158c6565b60405180910390a15b61325661324f60408d0160208e01615437565b338b61428d565b50505050505050600c805461ff001916905590939092509050565b606080600061327e612589565b90506000815167ffffffffffffffff81111561329c5761329c61546b565b6040519080825280602002602001820160405280156132c5578160200160208202803683370190505b5090506000825167ffffffffffffffff8111156132e4576132e461546b565b60405190808252806020026020018201604052801561330d578160200160208202803683370190505b50905060005b83518110156127a15783818151811061332e5761332e615903565b602002602001015183828151811061334857613348615903565b60200260200101906001600160a01b031690816001600160a01b0316815250506006600085838151811061337e5761337e615903565b60200260200101516001600160a01b03166001600160a01b03168152602001908152602001600020548282815181106133b9576133b9615903565b6020908102919091010152806133ce81615919565b915050613313565b600c546000908190610100900460ff16156134035760405162461bcd60e51b8152600401610a2090615771565b600c805461ff001916610100179055600e54600160a01b900460ff1661343b5760405162461bcd60e51b8152600401610a20906157cb565b61344b6040850160208601615437565b6001600160a01b03166134616020860186615437565b6001600160a01b031614156134b15760405162461bcd60e51b815260206004820152601660248201527521b0b73737ba1039bbb0b81039b0b6b2903a37b5b2b760511b6044820152606401610a20565b606083013515806134d957506134d1612710670de0b6b3a7640000615833565b606084013510155b61351e5760405162461bcd60e51b8152602060048201526016602482015275436f6e73756d655377617046656520746f6f206c6f7760501b6044820152606401610a20565b613531600a670de0b6b3a7640000615833565b6060840135111561357e5760405162461bcd60e51b8152602060048201526017602482015276086dedce6eadacaa6eec2e08ccaca40e8dede40d0d2ced604b1b6044820152606401610a20565b613589846000612b7c565b613594846001612b7c565b60006010816135a66020880188615437565b6001600160a01b031681526020810191909152604001600090812091506010818760016020020160208101906135dc9190615437565b6001600160a01b03166001600160a01b03168152602001908152602001600020905061361b81600301546003670de0b6b3a7640000610e3c9190615833565b602086013511156136625760405162461bcd60e51b81526020600482015260116024820152704552525f4d41585f4f55545f524154494f60781b6044820152606401610a20565b600061368e83600301548460020154846003015485600201548a600360048110612d5a57612d5a615903565b905060408601358111156136da5760405162461bcd60e51b81526020600482015260136024820152724552525f4241445f4c494d49545f505249434560681b6044820152606401610a20565b60008060405180608001604052808660030154815260200186600201548152602001856003015481526020018560020154815250905061373b6040518060800160405280600081526020016000815260200160008152602001600081525090565b61374e8260208b013560608c013561175f565b91995093509050613763600560008c81612e32565b6005600061377460208e018e615437565b6001600160a01b03166001600160a01b03168152602001908152602001600020819055506137b2600660008c600060038110612ebf57612ebf615903565b600660006137c360208e018e615437565b6001600160a01b03166001600160a01b03168152602001908152602001600020819055507f53a9dc73d01196a9c660d761bc5ec77b945340a34b5b52e510760af2dab1c0f181600001518260200151836040015184606001518e60006003811061382f5761382f615903565b6020020160208101906138429190615437565b6040805195865260208601949094529284019190915260608301526001600160a01b0316608082015260a00160405180910390a188358811156138b65760405162461bcd60e51b815260206004820152600c60248201526b22a9292fa624a6a4aa2fa4a760a11b6044820152606401610a20565b6138c48660030154846146d1565b6003808801919091558501546138dc908a6001613197565b856003018190555061390e86600301548760020154876003015488600201548d600360048110612d5a57612d5a615903565b9650838710156139305760405162461bcd60e51b8152600401610a209061594b565b60408901358711156139765760405162461bcd60e51b815260206004820152600f60248201526e4552525f4c494d49545f505249434560881b6044820152606401610a20565b6139848860208b013561442a565b8411156139a35760405162461bcd60e51b8152600401610a209061594b565b6139b360408b0160208c01615437565b6001600160a01b03166139c960208c018c615437565b6001600160a01b0316337fbdafe88494b31fc7436fe7992b0f377e874287e841e62eed1ad77e84f3c5b1718b8d60016020020135428c600301548c600301548f604051613a3e96959493929190958652602086019490945260408501929092526060840152608083015260a082015260c00190565b60405180910390a4613a5d613a5660208c018c615437565b338a61479f565b6000613a7b8961187081610e47670de0b6b3a76400008f6003613197565b905060608a013515613ae957613a928b60026131b4565b7f6d11837f46cc09b011cf4aae09fcade046c020aac088090ae4f77ff67b707972613ac360608d0160408e01615437565b613ad060208e018e615437565b83604051613ae0939291906158c6565b60405180910390a15b613256613afc60408d0160208e01615437565b3360208d013561428d565b6000806000806000613b1889613d73565b613b2188613d73565b604080516080810182526001600160a01b03808c16600090815260106020818152858320600380820154875260029182015483880152948f16808552838352878520958601549787019790975295835252920154606082015290613ba66040518060800160405280600081526020016000815260200160008152602001600081525090565b61156e838b8b61175f565b600c54606090610100900460ff16156125dd5760405162461bcd60e51b8152600401610a2090615771565b3360009081526008602090815260408083206001600160a01b0386168452909152812054613c0a90836146d1565b3360008181526008602090815260408083206001600160a01b038916808552908352928190208590555193845290926000805160206159c58339815191529101610ad1565b610af66002670de0b6b3a7640000615833565b600c54600090610100900460ff1615613c8d5760405162461bcd60e51b8152600401610a2090615771565b613c9682613d73565b6001600160a01b038216600090815260106020526040902060020154601154610a8190829061442a565b600c54600090610100900460ff1615613ceb5760405162461bcd60e51b8152600401610a2090615771565b613cf482613d73565b506001600160a01b031660009081526010602052604090206003015490565b6001600160a01b03821660009081526010602090815260408083208151608081018352815460ff1615158152600182015493810193909352600281015491830182905260030154606083018190526009546011546116f793919087614723565b6001600160a01b03811660009081526010602052604090205460ff16613dcb5760405162461bcd60e51b815260206004820152600d60248201526c11549497d393d517d093d55391609a1b6044820152606401610a20565b50565b600080613ddb878761442a565b90506000613de9868661442a565b90506000613df7838361442a565b90506000613e40670de0b6b3a764000061184d670de0b6b3a764000089600054613e1f61144a565b600154613e2c9190615847565b613e369190615847565b6118709190615847565b9050613e4c8282614138565b9a9950505050505050505050565b600c546201000090046001600160a01b03163314613eaf5760405162461bcd60e51b815260206004820152601260248201527122a9292fa727aa2fa1a7a72a2927a62622a960711b6044820152606401610a20565b6001600160a01b03831660009081526010602052604090205460ff1615613f075760405162461bcd60e51b815260206004820152600c60248201526b11549497d254d7d093d5539160a21b6044820152606401610a20565b600e54600160a01b900460ff1615613f545760405162461bcd60e51b815260206004820152601060248201526f11549497d254d7d1925390531256915160821b6044820152606401610a20565b600f54600211613f975760405162461bcd60e51b815260206004820152600e60248201526d4552525f4d41585f544f4b454e5360901b6044820152606401610a20565b604080516080810182526001808252600f805460208085019182526000858701818152606087018281526001600160a01b038c1680845260109094529782209651875460ff1916901515178755925186860155915160028601559451600390940193909355805491820181559091527f8d1108e10bcb7c27dddfc02ed9d693a074039d026cf4ea4240b40f7d581ac8020180546001600160a01b0319169091179055614044838383614b74565b505050565b600e805460ff60a01b1916600160a01b179055600c805460ff60b01b1916600160b01b17905561408a614085670de0b6b3a764000060646157ac565b61478c565b6140a6336140a1670de0b6b3a764000060646157ac565b614795565b565b6000806140b5868561442a565b905060006140d084610e47670de0b6b3a7640000600061421d565b905060006140de878361421d565b905060006140ec828961442a565b9050600061410b82614106670de0b6b3a76400008861442a565b614542565b90506000614119828d614138565b905060006141278d8361421d565b9d9c50505050505050505050505050565b60008061414583856157ac565b905083158061415c57508261415a8583615833565b145b61419b5760405162461bcd60e51b815260206004820152601060248201526f4552525f4d554c5f4f564552464c4f5760801b6044820152606401610a20565b60006141b06002670de0b6b3a7640000615833565b6141ba9083615847565b9050818110156141ff5760405162461bcd60e51b815260206004820152601060248201526f4552525f4d554c5f4f564552464c4f5760801b6044820152606401610a20565b6000614213670de0b6b3a764000083615833565b9695505050505050565b600080600061422c8585614d93565b9150915080156142725760405162461bcd60e51b81526020600482015260116024820152704552525f5355425f554e444552464c4f5760781b6044820152606401610a20565b509392505050565b611b8a8282614dca565b613dcb81614dd5565b6140446001600160a01b038416838361466e565b6001600160a01b0383166000908152600760205260409020548111156143005760405162461bcd60e51b815260206004820152601460248201527311549497d25394d551919250d251539517d0905360621b6044820152606401610a20565b6001600160a01b038316600090815260076020526040902054614323908261421d565b6001600160a01b03808516600090815260076020526040808220939093559084168152205461435290826146d1565b6001600160a01b0380841660008181526007602052604090819020939093559151908516907fddf252ad1be2c89b69c2b068fc378daa952ba7f163c4a11628f55a4df523b3ef906143a69085815260200190565b60405180910390a3505050565b6000806143c0868561442a565b905060006143d684670de0b6b3a7640000614138565b905060006143e489836146d1565b905060006143f2828b61442a565b905060006144008286614542565b9050600061440e828b614138565b905061441a818b61421d565b9c9b505050505050505050505050565b6000816144685760405162461bcd60e51b815260206004820152600c60248201526b4552525f4449565f5a45524f60a01b6044820152606401610a20565b600061447c670de0b6b3a7640000856157ac565b905083158061449b5750670de0b6b3a76400006144998583615833565b145b6144da5760405162461bcd60e51b815260206004820152601060248201526f11549497d1125597d25395115493905360821b6044820152606401610a20565b60006144e7600285615833565b6144f19083615847565b9050818110156145365760405162461bcd60e51b815260206004820152601060248201526f11549497d1125597d25395115493905360821b6044820152606401610a20565b60006142138583615833565b6000600183101561458d5760405162461bcd60e51b81526020600482015260156024820152744552525f42504f575f424153455f544f4f5f4c4f5760581b6044820152606401610a20565b60016145a2670de0b6b3a764000060026157ac565b6145ac9190615934565b8311156145f45760405162461bcd60e51b815260206004820152601660248201527508aa4a4be84a09eaebe8482a68abea89e9ebe90928e960531b6044820152606401610a20565b60006145ff83614ea1565b9050600061460d848361421d565b905060006146238661461e85614ebf565b614ed3565b905081614634579250610add915050565b600061465787846146526402540be400670de0b6b3a7640000615833565b614f47565b90506146638282614138565b979650505050505050565b6040516001600160a01b03831660248201526044810182905261404490849063a9059cbb60e01b906064015b60408051601f198184030181529190526020810180516001600160e01b03166001600160e01b031990931692909217909152615037565b6000806146de8385615847565b905083811015610a815760405162461bcd60e51b815260206004820152601060248201526f4552525f4144445f4f564552464c4f5760801b6044820152606401610a20565b600080614730868561442a565b9050600061473e86856146d1565b9050600061474c828861442a565b90506000614762670de0b6b3a76400008561442a565b905060006147708383614542565b9050600061477e828d614138565b90506000614127828e61421d565b613dcb81615109565b611b8a8282615178565b6040516370a0823160e01b81523060048201526000906001600160a01b038516906370a0823190602401602060405180830381865afa1580156147e6573d6000803e3d6000fd5b505050506040513d601f19601f8201168201806040525081019061480a91906158ea565b90506148216001600160a01b038516843085615183565b61482b8282615847565b6040516370a0823160e01b81523060048201526001600160a01b038616906370a0823190602401602060405180830381865afa15801561486f573d6000803e3d6000fd5b505050506040513d601f19601f8201168201806040525081019061489391906158ea565b10156148e15760405162461bcd60e51b815260206004820152601a60248201527f5472616e7366657220616d6f756e7420697320746f6f206c6f770000000000006044820152606401610a20565b50505050565b6000806148f4868561442a565b9050600061490a670de0b6b3a76400008361421d565b9050600061491a82600154614138565b905060006149348661184d670de0b6b3a76400008561421d565b905060006149428b8361421d565b90506000614950828d61442a565b9050600061495e8288614542565b9050600061496c828d614138565b9050600061497a8d8361421d565b90506149938161184d670de0b6b3a7640000600061421d565b9f9e505050505050505050505050505050565b600c805462010000600160b01b031916620100006001600160a01b038a81169190910291909117909155600280546001600160a01b0319169188169190911790558451600090869082906149fc576149fc615903565b602090810291909101810151600181905560408051338152928301919091527fbca0d601c32979eebac4e8cd06375b6e45d39af80fc06a33f366425b450dfb69910160405180910390a185600181518110614a5957614a59615903565b6020908102919091018101516000819055600c805460ff60b01b1916600160b01b89151502179055600e805460ff60a01b1916600160a01b881515021790558451600380546001600160a01b03199081166001600160a01b0393841617909155928601516004805485169183169190911790558451600d805490941691169081179092556040517f5e3e722dbd3b6b8071b78568ac80cd0e8ff92e4fb3024e755d504d8f7c2f6f0992614b0d9233926158c6565b60405180910390a18160016020020151600e80546001600160a01b0319166001600160a01b0392831617905560128054600c54600160a01b620100009091049093166001600160a81b03199091161782179081905560ff9190041698975050505050505050565b670de0b6b3a7640000811015614bbd5760405162461bcd60e51b815260206004820152600e60248201526d11549497d3525397d5d15251d21560921b6044820152606401610a20565b614bd0670de0b6b3a764000060326157ac565b811115614c105760405162461bcd60e51b815260206004820152600e60248201526d11549497d3505617d5d15251d21560921b6044820152606401610a20565b614c2764e8d4a51000670de0b6b3a7640000615833565b821015614c685760405162461bcd60e51b815260206004820152600f60248201526e4552525f4d494e5f42414c414e434560881b6044820152606401610a20565b6001600160a01b03831660009081526010602052604090206002015480821115614d0457614ca1601154614c9c848461421d565b6146d1565b601155614cb7670de0b6b3a764000060326157ac565b6011541115614cff5760405162461bcd60e51b815260206004820152601460248201527311549497d3505617d513d5105317d5d15251d21560621b6044820152606401610a20565b614d20565b80821015614d2057614d1c601154611870838561421d565b6011555b6001600160a01b03841660009081526010602052604090206002810183905560030180549084905580841115614d6957614d648533614d5f878561421d565b61479f565b614d8c565b80841015614d8c576000614d7d828661421d565b9050614d8a86338361428d565b505b5050505050565b600080828410614db257614da78385615934565b600091509150614dc3565b614dbc8484615934565b6001915091505b9250929050565b611b8a8230836142a1565b30600090815260076020526040902054811115614e2b5760405162461bcd60e51b815260206004820152601460248201527311549497d25394d551919250d251539517d0905360621b6044820152606401610a20565b30600090815260076020526040902054614e45908261421d565b30600090815260076020526040902055600954614e62908261421d565b60095560405181815260009030907fddf252ad1be2c89b69c2b068fc378daa952ba7f163c4a11628f55a4df523b3ef906020015b60405180910390a350565b6000670de0b6b3a7640000614eb583614ebf565b610add91906157ac565b6000610add670de0b6b3a764000083615833565b60008281614ee2600285615974565b614ef457670de0b6b3a7640000614ef6565b815b9050614f03600285615833565b93505b83156116f757614f168283614138565b9150614f23600285615974565b15614f3557614f328183614138565b90505b614f40600285615833565b9350614f06565b6000828180614f5e87670de0b6b3a7640000614d93565b9092509050670de0b6b3a764000080600060015b888410615028576000614f8d670de0b6b3a7640000836157ac565b9050600080614fad8a614fa885670de0b6b3a764000061421d565b614d93565b91509150614fbf87610e47848c614138565b9650614fcb878461442a565b965086614fda57505050615028565b8715614fe4579315935b8015614fee579315935b841561500557614ffe868861421d565b9550615012565b61500f86886146d1565b95505b505050808061502090615919565b915050614f72565b50909998505050505050505050565b600061508c826040518060400160405280602081526020017f5361666545524332303a206c6f772d6c6576656c2063616c6c206661696c6564815250856001600160a01b03166151a49092919063ffffffff16565b80519091501561404457808060200190518101906150aa919061585f565b6140445760405162461bcd60e51b815260206004820152602a60248201527f5361666545524332303a204552433230206f7065726174696f6e20646964206e6044820152691bdd081cdd58d8d9595960b21b6064820152608401610a20565b3060009081526007602052604090205461512390826146d1565b3060009081526007602052604090205560095461514090826146d1565b60095560405181815230906000907fddf252ad1be2c89b69c2b068fc378daa952ba7f163c4a11628f55a4df523b3ef90602001614e96565b611b8a3083836142a1565b6148e1846323b872dd60e01b85858560405160240161469a939291906158c6565b60606116f7848460008585843b6151fd5760405162461bcd60e51b815260206004820152601d60248201527f416464726573733a2063616c6c20746f206e6f6e2d636f6e74726163740000006044820152606401610a20565b600080866001600160a01b031685876040516152199190615988565b60006040518083038185875af1925050503d8060008114615256576040519150601f19603f3d011682016040523d82523d6000602084013e61525b565b606091505b509150915061466382828660608315615275575081610a81565b8251156152855782518084602001fd5b8160405162461bcd60e51b8152600401610a2091906152cb565b60005b838110156152ba5781810151838201526020016152a2565b838111156148e15750506000910152565b60208152600082518060208401526152ea81604085016020870161529f565b601f01601f19169190910160400192915050565b80356001600160a01b038116811461234157600080fd5b60008060006060848603121561532a57600080fd5b615333846152fe565b9250615341602085016152fe565b9150604084013590509250925092565b6000806040838503121561536457600080fd5b61536d836152fe565b946020939093013593505050565b60008060008060008060c0878903121561539457600080fd5b61539d876152fe565b955060208701359450604087013593506153b9606088016152fe565b92506080870135915060a087013590509295509295509295565b600080604083850312156153e657600080fd5b50508035926020909101359150565b6000806000806080858703121561540b57600080fd5b615414856152fe565b9350615422602086016152fe565b93969395505050506040820135916060013590565b60006020828403121561544957600080fd5b610a81826152fe565b60006020828403121561546457600080fd5b5035919050565b634e487b7160e01b600052604160045260246000fd5b600080600060c0848603121561549657600080fd5b84601f8501126154a557600080fd5b6040516080810181811067ffffffffffffffff821117156154c8576154c861546b565b6040528060808601878111156154dd57600080fd5b865b818110156154f75780358352602092830192016154df565b509197913596505060a094909401359392505050565b600081518084526020808501945080840160005b838110156155465781516001600160a01b031687529582019590820190600101615521565b509495945050505050565b602081526000610a81602083018461550d565b604081526000615577604083018561550d565b82810360208481019190915284518083528582019282019060005b818110156155ae57845183529383019391830191600101615592565b5090979650505050505050565b8015158114613dcb57600080fd5b8035612341816155bb565b8060408101831015610add57600080fd5b600080600080600080600080610120898b03121561560257600080fd5b61560b896152fe565b975061561960208a016152fe565b9650604089013567ffffffffffffffff8082111561563657600080fd5b818b0191508b601f83011261564a57600080fd5b81358181111561565957600080fd5b8c60208260051b850101111561566e57600080fd5b60208301985080975050505061568660608a016155c9565b935061569460808a016155c9565b92506156a38a60a08b016155d4565b91506156b28a60e08b016155d4565b90509295985092959890939650565b60008060e083850312156156d457600080fd5b60608301848111156156e557600080fd5b8392508460e0850111156156f857600080fd5b809150509250929050565b6000806040838503121561571657600080fd5b61571f836152fe565b915061572d602084016152fe565b90509250929050565b600181811c9082168061574a57607f821691505b6020821081141561576b57634e487b7160e01b600052602260045260246000fd5b50919050565b6020808252600b908201526a4552525f5245454e54525960a81b604082015260600190565b634e487b7160e01b600052601160045260246000fd5b60008160001904831182151516156157c6576157c6615796565b500290565b60208082526011908201527011549497d393d517d19253905312569151607a1b604082015260600190565b6020808252600d908201526c11549497d31253525517d3d555609a1b604082015260600190565b634e487b7160e01b600052601260045260246000fd5b6000826158425761584261581d565b500490565b6000821982111561585a5761585a615796565b500190565b60006020828403121561587157600080fd5b8151610a81816155bb565b6020808252600b908201526a4552525f4d494e5f46454560a81b604082015260600190565b6020808252600b908201526a4552525f4d41585f46454560a81b604082015260600190565b6001600160a01b039384168152919092166020820152604081019190915260600190565b6000602082840312156158fc57600080fd5b5051919050565b634e487b7160e01b600052603260045260246000fd5b600060001982141561592d5761592d615796565b5060010190565b60008282101561594657615946615796565b500390565b6020808252600f908201526e08aa4a4be9a82a890be82a0a0a49eb608b1b604082015260600190565b6000826159835761598361581d565b500690565b6000825161599a81846020870161529f565b919091019291505056fe15a8ca63e37b2cff1677df2b6b82d36fcf8a524228bd7a4b4d02d107c28c1e8a8c5be1e5ebec7d5bd14f71427d1e84f3dd0314c0f7b2291e5b200ac8c7c3b925a2646970667358221220a77359c41510a3c7db5da467ba1b61cfabc04e6b1e8bc5320f7bfde78d567b1b64736f6c634300080c0033",
  "linkReferences": {},
  "deployedLinkReferences": {}
}