{
  "_format": "hh-sol-artifact-1",
  "contractName": "BPool",
  "sourceName": "contracts/pools/balancer/BPool.sol",
  "abi": [
    {
      "anonymous": false,
      "inputs": [
        {
          "indexed": true,
          "internalType": "address",
          "name": "src",
          "type": "address"
        },
        {
          "indexed": true,
          "internalType": "address",
          "name": "dst",
          "type": "address"
        },
        {
          "indexed": false,
          "internalType": "uint256",
          "name": "amt",
          "type": "uint256"
        }
      ],
      "name": "Approval",
      "type": "event"
    },
    {
      "anonymous": false,
      "inputs": [
        {
          "indexed": false,
          "internalType": "address",
          "name": "to",
          "type": "address"
        },
        {
          "indexed": false,
          "internalType": "address",
          "name": "token",
          "type": "address"
        },
        {
          "indexed": false,
          "internalType": "uint256",
          "name": "amount",
          "type": "uint256"
        }
      ],
      "name": "ConsumeMarketFee",
      "type": "event"
    },
    {
      "anonymous": false,
      "inputs": [
        {
          "indexed": false,
          "internalType": "address",
          "name": "token",
          "type": "address"
        },
        {
          "indexed": false,
          "internalType": "uint256",
          "name": "oldBalance",
          "type": "uint256"
        },
        {
          "indexed": false,
          "internalType": "uint256",
          "name": "newBalance",
          "type": "uint256"
        }
      ],
      "name": "Gulped",
      "type": "event"
    },
    {
      "anonymous": false,
      "inputs": [
        {
          "indexed": false,
          "internalType": "uint256",
          "name": "bptAmount",
          "type": "uint256"
        }
      ],
      "name": "LOG_BPT",
      "type": "event"
    },
    {
      "anonymous": false,
      "inputs": [
        {
          "indexed": false,
          "internalType": "uint256",
          "name": "bptAmount",
          "type": "uint256"
        }
      ],
      "name": "LOG_BPT_SS",
      "type": "event"
    },
    {
      "anonymous": false,
      "inputs": [
        {
          "indexed": true,
          "internalType": "bytes4",
          "name": "sig",
          "type": "bytes4"
        },
        {
          "indexed": true,
          "internalType": "address",
          "name": "caller",
          "type": "address"
        },
        {
          "indexed": false,
          "internalType": "uint256",
          "name": "timestamp",
          "type": "uint256"
        },
        {
          "indexed": false,
          "internalType": "bytes",
          "name": "data",
          "type": "bytes"
        }
      ],
      "name": "LOG_CALL",
      "type": "event"
    },
    {
      "anonymous": false,
      "inputs": [
        {
          "indexed": true,
          "internalType": "address",
          "name": "caller",
          "type": "address"
        },
        {
          "indexed": true,
          "internalType": "address",
          "name": "tokenOut",
          "type": "address"
        },
        {
          "indexed": false,
          "internalType": "uint256",
          "name": "tokenAmountOut",
          "type": "uint256"
        },
        {
          "indexed": false,
          "internalType": "uint256",
          "name": "timestamp",
          "type": "uint256"
        }
      ],
      "name": "LOG_EXIT",
      "type": "event"
    },
    {
      "anonymous": false,
      "inputs": [
        {
          "indexed": true,
          "internalType": "address",
          "name": "caller",
          "type": "address"
        },
        {
          "indexed": true,
          "internalType": "address",
          "name": "tokenIn",
          "type": "address"
        },
        {
          "indexed": false,
          "internalType": "uint256",
          "name": "tokenAmountIn",
          "type": "uint256"
        },
        {
          "indexed": false,
          "internalType": "uint256",
          "name": "timestamp",
          "type": "uint256"
        }
      ],
      "name": "LOG_JOIN",
      "type": "event"
    },
    {
      "anonymous": false,
      "inputs": [
        {
          "indexed": true,
          "internalType": "address",
          "name": "caller",
          "type": "address"
        },
        {
          "indexed": true,
          "internalType": "address",
          "name": "baseToken",
          "type": "address"
        },
        {
          "indexed": false,
          "internalType": "uint256",
          "name": "baseTokenAmountIn",
          "type": "uint256"
        },
        {
          "indexed": false,
          "internalType": "uint256",
          "name": "baseTokenWeight",
          "type": "uint256"
        },
        {
          "indexed": true,
          "internalType": "address",
          "name": "datatoken",
          "type": "address"
        },
        {
          "indexed": false,
          "internalType": "uint256",
          "name": "datatokenAmountIn",
          "type": "uint256"
        },
        {
          "indexed": false,
          "internalType": "uint256",
          "name": "datatokenWeight",
          "type": "uint256"
        }
      ],
      "name": "LOG_SETUP",
      "type": "event"
    },
    {
      "anonymous": false,
      "inputs": [
        {
          "indexed": true,
          "internalType": "address",
          "name": "caller",
          "type": "address"
        },
        {
          "indexed": true,
          "internalType": "address",
          "name": "tokenIn",
          "type": "address"
        },
        {
          "indexed": true,
          "internalType": "address",
          "name": "tokenOut",
          "type": "address"
        },
        {
          "indexed": false,
          "internalType": "uint256",
          "name": "tokenAmountIn",
          "type": "uint256"
        },
        {
          "indexed": false,
          "internalType": "uint256",
          "name": "tokenAmountOut",
          "type": "uint256"
        },
        {
          "indexed": false,
          "internalType": "uint256",
          "name": "timestamp",
          "type": "uint256"
        },
        {
          "indexed": false,
          "internalType": "uint256",
          "name": "inBalance",
          "type": "uint256"
        },
        {
          "indexed": false,
          "internalType": "uint256",
          "name": "outBalance",
          "type": "uint256"
        },
        {
          "indexed": false,
          "internalType": "uint256",
          "name": "newSpotPrice",
          "type": "uint256"
        }
      ],
      "name": "LOG_SWAP",
      "type": "event"
    },
    {
      "anonymous": false,
      "inputs": [
        {
          "indexed": false,
          "internalType": "address",
          "name": "caller",
          "type": "address"
        },
        {
          "indexed": false,
          "internalType": "address",
          "name": "OPCWallet",
          "type": "address"
        },
        {
          "indexed": false,
          "internalType": "address",
          "name": "token",
          "type": "address"
        },
        {
          "indexed": false,
          "internalType": "uint256",
          "name": "amount",
          "type": "uint256"
        }
      ],
      "name": "OPCFee",
      "type": "event"
    },
    {
      "anonymous": false,
      "inputs": [
        {
          "indexed": false,
          "internalType": "address",
          "name": "caller",
          "type": "address"
        },
        {
          "indexed": false,
          "internalType": "address",
          "name": "marketAddress",
          "type": "address"
        },
        {
          "indexed": false,
          "internalType": "address",
          "name": "token",
          "type": "address"
        },
        {
          "indexed": false,
          "internalType": "uint256",
          "name": "amount",
          "type": "uint256"
        }
      ],
      "name": "PublishMarketFee",
      "type": "event"
    },
    {
      "anonymous": false,
      "inputs": [
        {
          "indexed": false,
          "internalType": "address",
          "name": "caller",
          "type": "address"
        },
        {
          "indexed": false,
          "internalType": "address",
          "name": "newMarketCollector",
          "type": "address"
        },
        {
          "indexed": false,
          "internalType": "uint256",
          "name": "swapFee",
          "type": "uint256"
        }
      ],
      "name": "PublishMarketFeeChanged",
      "type": "event"
    },
    {
      "anonymous": false,
      "inputs": [
        {
          "indexed": false,
          "internalType": "uint256",
          "name": "LPFeeAmount",
          "type": "uint256"
        },
        {
          "indexed": false,
          "internalType": "uint256",
          "name": "oceanFeeAmount",
          "type": "uint256"
        },
        {
          "indexed": false,
          "internalType": "uint256",
          "name": "marketFeeAmount",
          "type": "uint256"
        },
        {
          "indexed": false,
          "internalType": "uint256",
          "name": "consumeMarketFeeAmount",
          "type": "uint256"
        },
        {
          "indexed": false,
          "internalType": "address",
          "name": "tokenFeeAddress",
          "type": "address"
        }
      ],
      "name": "SWAP_FEES",
      "type": "event"
    },
    {
      "anonymous": false,
      "inputs": [
        {
          "indexed": false,
          "internalType": "address",
          "name": "caller",
          "type": "address"
        },
        {
          "indexed": false,
          "internalType": "uint256",
          "name": "amount",
          "type": "uint256"
        }
      ],
      "name": "SwapFeeChanged",
      "type": "event"
    },
    {
      "anonymous": false,
      "inputs": [
        {
          "indexed": true,
          "internalType": "address",
          "name": "src",
          "type": "address"
        },
        {
          "indexed": true,
          "internalType": "address",
          "name": "dst",
          "type": "address"
        },
        {
          "indexed": false,
          "internalType": "uint256",
          "name": "amt",
          "type": "uint256"
        }
      ],
      "name": "Transfer",
      "type": "event"
    },
    {
      "inputs": [],
      "name": "BONE",
      "outputs": [
        {
          "internalType": "uint256",
          "name": "",
          "type": "uint256"
        }
      ],
      "stateMutability": "view",
      "type": "function"
    },
    {
      "inputs": [],
      "name": "BPOW_PRECISION",
      "outputs": [
        {
          "internalType": "uint256",
          "name": "",
          "type": "uint256"
        }
      ],
      "stateMutability": "view",
      "type": "function"
    },
    {
      "inputs": [],
      "name": "EXIT_FEE",
      "outputs": [
        {
          "internalType": "uint256",
          "name": "",
          "type": "uint256"
        }
      ],
      "stateMutability": "view",
      "type": "function"
    },
    {
      "inputs": [],
      "name": "INIT_POOL_SUPPLY",
      "outputs": [
        {
          "internalType": "uint256",
          "name": "",
          "type": "uint256"
        }
      ],
      "stateMutability": "view",
      "type": "function"
    },
    {
      "inputs": [],
      "name": "MAX_BOUND_TOKENS",
      "outputs": [
        {
          "internalType": "uint256",
          "name": "",
          "type": "uint256"
        }
      ],
      "stateMutability": "view",
      "type": "function"
    },
    {
      "inputs": [],
      "name": "MAX_BPOW_BASE",
      "outputs": [
        {
          "internalType": "uint256",
          "name": "",
          "type": "uint256"
        }
      ],
      "stateMutability": "view",
      "type": "function"
    },
    {
      "inputs": [],
      "name": "MAX_FEE",
      "outputs": [
        {
          "internalType": "uint256",
          "name": "",
          "type": "uint256"
        }
      ],
      "stateMutability": "view",
      "type": "function"
    },
    {
      "inputs": [],
      "name": "MAX_IN_RATIO",
      "outputs": [
        {
          "internalType": "uint256",
          "name": "",
          "type": "uint256"
        }
      ],
      "stateMutability": "view",
      "type": "function"
    },
    {
      "inputs": [],
      "name": "MAX_OUT_RATIO",
      "outputs": [
        {
          "internalType": "uint256",
          "name": "",
          "type": "uint256"
        }
      ],
      "stateMutability": "view",
      "type": "function"
    },
    {
      "inputs": [],
      "name": "MAX_TOTAL_WEIGHT",
      "outputs": [
        {
          "internalType": "uint256",
          "name": "",
          "type": "uint256"
        }
      ],
      "stateMutability": "view",
      "type": "function"
    },
    {
      "inputs": [],
      "name": "MAX_WEIGHT",
      "outputs": [
        {
          "internalType": "uint256",
          "name": "",
          "type": "uint256"
        }
      ],
      "stateMutability": "view",
      "type": "function"
    },
    {
      "inputs": [],
      "name": "MIN_BALANCE",
      "outputs": [
        {
          "internalType": "uint256",
          "name": "",
          "type": "uint256"
        }
      ],
      "stateMutability": "view",
      "type": "function"
    },
    {
      "inputs": [],
      "name": "MIN_BOUND_TOKENS",
      "outputs": [
        {
          "internalType": "uint256",
          "name": "",
          "type": "uint256"
        }
      ],
      "stateMutability": "view",
      "type": "function"
    },
    {
      "inputs": [],
      "name": "MIN_BPOW_BASE",
      "outputs": [
        {
          "internalType": "uint256",
          "name": "",
          "type": "uint256"
        }
      ],
      "stateMutability": "view",
      "type": "function"
    },
    {
      "inputs": [],
      "name": "MIN_FEE",
      "outputs": [
        {
          "internalType": "uint256",
          "name": "",
          "type": "uint256"
        }
      ],
      "stateMutability": "view",
      "type": "function"
    },
    {
      "inputs": [],
      "name": "MIN_WEIGHT",
      "outputs": [
        {
          "internalType": "uint256",
          "name": "",
          "type": "uint256"
        }
      ],
      "stateMutability": "view",
      "type": "function"
    },
    {
      "inputs": [],
      "name": "_opcCollector",
      "outputs": [
        {
          "internalType": "address",
          "name": "",
          "type": "address"
        }
      ],
      "stateMutability": "view",
      "type": "function"
    },
    {
      "inputs": [],
      "name": "_publishMarketCollector",
      "outputs": [
        {
          "internalType": "address",
          "name": "",
          "type": "address"
        }
      ],
      "stateMutability": "view",
      "type": "function"
    },
    {
      "inputs": [],
      "name": "_swapPublishMarketFee",
      "outputs": [
        {
          "internalType": "uint256",
          "name": "",
          "type": "uint256"
        }
      ],
      "stateMutability": "view",
      "type": "function"
    },
    {
      "inputs": [
        {
          "internalType": "address",
          "name": "src",
          "type": "address"
        },
        {
          "internalType": "address",
          "name": "dst",
          "type": "address"
        }
      ],
      "name": "allowance",
      "outputs": [
        {
          "internalType": "uint256",
          "name": "",
          "type": "uint256"
        }
      ],
      "stateMutability": "view",
      "type": "function"
    },
    {
      "inputs": [
        {
          "internalType": "address",
          "name": "dst",
          "type": "address"
        },
        {
          "internalType": "uint256",
          "name": "amt",
          "type": "uint256"
        }
      ],
      "name": "approve",
      "outputs": [
        {
          "internalType": "bool",
          "name": "",
          "type": "bool"
        }
      ],
      "stateMutability": "nonpayable",
      "type": "function"
    },
    {
      "inputs": [
        {
          "internalType": "address",
          "name": "whom",
          "type": "address"
        }
      ],
      "name": "balanceOf",
      "outputs": [
        {
          "internalType": "uint256",
          "name": "",
          "type": "uint256"
        }
      ],
      "stateMutability": "view",
      "type": "function"
    },
    {
      "inputs": [
        {
          "internalType": "uint256[4]",
          "name": "data",
          "type": "uint256[4]"
        },
        {
          "internalType": "uint256",
          "name": "tokenAmountOut",
          "type": "uint256"
        },
        {
          "internalType": "uint256",
          "name": "_consumeMarketSwapFee",
          "type": "uint256"
        }
      ],
      "name": "calcInGivenOut",
      "outputs": [
        {
          "internalType": "uint256",
          "name": "tokenAmountIn",
          "type": "uint256"
        },
        {
          "internalType": "uint256",
          "name": "tokenAmountInBalance",
          "type": "uint256"
        },
        {
          "components": [
            {
              "internalType": "uint256",
              "name": "LPFee",
              "type": "uint256"
            },
            {
              "internalType": "uint256",
              "name": "oceanFeeAmount",
              "type": "uint256"
            },
            {
              "internalType": "uint256",
              "name": "publishMarketFeeAmount",
              "type": "uint256"
            },
            {
              "internalType": "uint256",
              "name": "consumeMarketFee",
              "type": "uint256"
            }
          ],
          "internalType": "struct BMath.swapfees",
          "name": "_swapfees",
          "type": "tuple"
        }
      ],
      "stateMutability": "view",
      "type": "function"
    },
    {
      "inputs": [
        {
          "internalType": "uint256[4]",
          "name": "data",
          "type": "uint256[4]"
        },
        {
          "internalType": "uint256",
          "name": "tokenAmountIn",
          "type": "uint256"
        },
        {
          "internalType": "uint256",
          "name": "_consumeMarketSwapFee",
          "type": "uint256"
        }
      ],
      "name": "calcOutGivenIn",
      "outputs": [
        {
          "internalType": "uint256",
          "name": "tokenAmountOut",
          "type": "uint256"
        },
        {
          "internalType": "uint256",
          "name": "balanceInToAdd",
          "type": "uint256"
        },
        {
          "components": [
            {
              "internalType": "uint256",
              "name": "LPFee",
              "type": "uint256"
            },
            {
              "internalType": "uint256",
              "name": "oceanFeeAmount",
              "type": "uint256"
            },
            {
              "internalType": "uint256",
              "name": "publishMarketFeeAmount",
              "type": "uint256"
            },
            {
              "internalType": "uint256",
              "name": "consumeMarketFee",
              "type": "uint256"
            }
          ],
          "internalType": "struct BMath.swapfees",
          "name": "_swapfees",
          "type": "tuple"
        }
      ],
      "stateMutability": "view",
      "type": "function"
    },
    {
      "inputs": [
        {
          "internalType": "address",
          "name": "tokenOut",
          "type": "address"
        },
        {
          "internalType": "uint256",
          "name": "tokenAmountOut",
          "type": "uint256"
        }
      ],
      "name": "calcPoolInSingleOut",
      "outputs": [
        {
          "internalType": "uint256",
          "name": "poolAmountIn",
          "type": "uint256"
        }
      ],
      "stateMutability": "view",
      "type": "function"
    },
    {
      "inputs": [
        {
          "internalType": "address",
          "name": "tokenIn",
          "type": "address"
        },
        {
          "internalType": "uint256",
          "name": "tokenAmountIn",
          "type": "uint256"
        }
      ],
      "name": "calcPoolOutSingleIn",
      "outputs": [
        {
          "internalType": "uint256",
          "name": "poolAmountOut",
          "type": "uint256"
        }
      ],
      "stateMutability": "view",
      "type": "function"
    },
    {
      "inputs": [
        {
          "internalType": "address",
          "name": "tokenIn",
          "type": "address"
        },
        {
          "internalType": "uint256",
          "name": "poolAmountOut",
          "type": "uint256"
        }
      ],
      "name": "calcSingleInPoolOut",
      "outputs": [
        {
          "internalType": "uint256",
          "name": "tokenAmountIn",
          "type": "uint256"
        }
      ],
      "stateMutability": "view",
      "type": "function"
    },
    {
      "inputs": [
        {
          "internalType": "address",
          "name": "tokenOut",
          "type": "address"
        },
        {
          "internalType": "uint256",
          "name": "poolAmountIn",
          "type": "uint256"
        }
      ],
      "name": "calcSingleOutPoolIn",
      "outputs": [
        {
          "internalType": "uint256",
          "name": "tokenAmountOut",
          "type": "uint256"
        }
      ],
      "stateMutability": "view",
      "type": "function"
    },
    {
      "inputs": [],
      "name": "collectMarketFee",
      "outputs": [],
      "stateMutability": "nonpayable",
      "type": "function"
    },
    {
      "inputs": [],
      "name": "collectOPC",
      "outputs": [],
      "stateMutability": "nonpayable",
      "type": "function"
    },
    {
      "inputs": [
        {
          "internalType": "address",
          "name": "",
          "type": "address"
        }
      ],
      "name": "communityFees",
      "outputs": [
        {
          "internalType": "uint256",
          "name": "",
          "type": "uint256"
        }
      ],
      "stateMutability": "view",
      "type": "function"
    },
    {
      "inputs": [],
      "name": "decimals",
      "outputs": [
        {
          "internalType": "uint8",
          "name": "",
          "type": "uint8"
        }
      ],
      "stateMutability": "view",
      "type": "function"
    },
    {
      "inputs": [
        {
          "internalType": "address",
          "name": "dst",
          "type": "address"
        },
        {
          "internalType": "uint256",
          "name": "amt",
          "type": "uint256"
        }
      ],
      "name": "decreaseApproval",
      "outputs": [
        {
          "internalType": "bool",
          "name": "",
          "type": "bool"
        }
      ],
      "stateMutability": "nonpayable",
      "type": "function"
    },
    {
      "inputs": [
        {
          "internalType": "uint256",
          "name": "poolAmountIn",
          "type": "uint256"
        },
        {
          "internalType": "uint256",
          "name": "minAmountOut",
          "type": "uint256"
        }
      ],
      "name": "exitswapPoolAmountIn",
      "outputs": [
        {
          "internalType": "uint256",
          "name": "tokenAmountOut",
          "type": "uint256"
        }
      ],
      "stateMutability": "nonpayable",
      "type": "function"
    },
    {
      "inputs": [
        {
          "internalType": "address",
          "name": "tokenIn",
          "type": "address"
        },
        {
          "internalType": "address",
          "name": "tokenOut",
          "type": "address"
        },
        {
          "internalType": "uint256",
          "name": "tokenAmountOut",
          "type": "uint256"
        },
        {
          "internalType": "uint256",
          "name": "_consumeMarketSwapFee",
          "type": "uint256"
        }
      ],
      "name": "getAmountInExactOut",
      "outputs": [
        {
          "internalType": "uint256",
          "name": "tokenAmountIn",
          "type": "uint256"
        },
        {
          "internalType": "uint256",
          "name": "lpFeeAmount",
          "type": "uint256"
        },
        {
          "internalType": "uint256",
          "name": "oceanFeeAmount",
          "type": "uint256"
        },
        {
          "internalType": "uint256",
          "name": "publishMarketSwapFeeAmount",
          "type": "uint256"
        },
        {
          "internalType": "uint256",
          "name": "consumeMarketSwapFeeAmount",
          "type": "uint256"
        }
      ],
      "stateMutability": "view",
      "type": "function"
    },
    {
      "inputs": [
        {
          "internalType": "address",
          "name": "tokenIn",
          "type": "address"
        },
        {
          "internalType": "address",
          "name": "tokenOut",
          "type": "address"
        },
        {
          "internalType": "uint256",
          "name": "tokenAmountIn",
          "type": "uint256"
        },
        {
          "internalType": "uint256",
          "name": "_consumeMarketSwapFee",
          "type": "uint256"
        }
      ],
      "name": "getAmountOutExactIn",
      "outputs": [
        {
          "internalType": "uint256",
          "name": "tokenAmountOut",
          "type": "uint256"
        },
        {
          "internalType": "uint256",
          "name": "lpFeeAmount",
          "type": "uint256"
        },
        {
          "internalType": "uint256",
          "name": "oceanFeeAmount",
          "type": "uint256"
        },
        {
          "internalType": "uint256",
          "name": "publishMarketSwapFeeAmount",
          "type": "uint256"
        },
        {
          "internalType": "uint256",
          "name": "consumeMarketSwapFeeAmount",
          "type": "uint256"
        }
      ],
      "stateMutability": "view",
      "type": "function"
    },
    {
      "inputs": [
        {
          "internalType": "address",
          "name": "token",
          "type": "address"
        }
      ],
      "name": "getBalance",
      "outputs": [
        {
          "internalType": "uint256",
          "name": "",
          "type": "uint256"
        }
      ],
      "stateMutability": "view",
      "type": "function"
    },
    {
      "inputs": [],
      "name": "getBaseTokenAddress",
      "outputs": [
        {
          "internalType": "address",
          "name": "",
          "type": "address"
        }
      ],
      "stateMutability": "view",
      "type": "function"
    },
    {
      "inputs": [],
      "name": "getController",
      "outputs": [
        {
          "internalType": "address",
          "name": "",
          "type": "address"
        }
      ],
      "stateMutability": "view",
      "type": "function"
    },
    {
      "inputs": [],
      "name": "getCurrentMarketFees",
      "outputs": [
        {
          "internalType": "address[]",
          "name": "",
          "type": "address[]"
        },
        {
          "internalType": "uint256[]",
          "name": "",
          "type": "uint256[]"
        }
      ],
      "stateMutability": "view",
      "type": "function"
    },
    {
      "inputs": [],
      "name": "getCurrentOPCFees",
      "outputs": [
        {
          "internalType": "address[]",
          "name": "",
          "type": "address[]"
        },
        {
          "internalType": "uint256[]",
          "name": "",
          "type": "uint256[]"
        }
      ],
      "stateMutability": "view",
      "type": "function"
    },
    {
      "inputs": [],
      "name": "getCurrentTokens",
      "outputs": [
        {
          "internalType": "address[]",
          "name": "tokens",
          "type": "address[]"
        }
      ],
      "stateMutability": "view",
      "type": "function"
    },
    {
      "inputs": [],
      "name": "getDatatokenAddress",
      "outputs": [
        {
          "internalType": "address",
          "name": "",
          "type": "address"
        }
      ],
      "stateMutability": "view",
      "type": "function"
    },
    {
      "inputs": [
        {
          "internalType": "address",
          "name": "token",
          "type": "address"
        }
      ],
      "name": "getDenormalizedWeight",
      "outputs": [
        {
          "internalType": "uint256",
          "name": "",
          "type": "uint256"
        }
      ],
      "stateMutability": "view",
      "type": "function"
    },
    {
      "inputs": [],
      "name": "getFinalTokens",
      "outputs": [
        {
          "internalType": "address[]",
          "name": "tokens",
          "type": "address[]"
        }
      ],
      "stateMutability": "view",
      "type": "function"
    },
    {
      "inputs": [],
      "name": "getId",
      "outputs": [
        {
          "internalType": "uint8",
          "name": "",
          "type": "uint8"
        }
      ],
      "stateMutability": "pure",
      "type": "function"
    },
    {
      "inputs": [],
      "name": "getMarketFee",
      "outputs": [
        {
          "internalType": "uint256",
          "name": "",
          "type": "uint256"
        }
      ],
      "stateMutability": "view",
      "type": "function"
    },
    {
      "inputs": [
        {
          "internalType": "address",
          "name": "token",
          "type": "address"
        }
      ],
      "name": "getNormalizedWeight",
      "outputs": [
        {
          "internalType": "uint256",
          "name": "",
          "type": "uint256"
        }
      ],
      "stateMutability": "view",
      "type": "function"
    },
    {
      "inputs": [],
      "name": "getNumTokens",
      "outputs": [
        {
          "internalType": "uint256",
          "name": "",
          "type": "uint256"
        }
      ],
      "stateMutability": "view",
      "type": "function"
    },
    {
      "inputs": [],
      "name": "getOPCFee",
      "outputs": [
        {
          "internalType": "uint256",
          "name": "",
          "type": "uint256"
        }
      ],
      "stateMutability": "view",
      "type": "function"
    },
    {
      "inputs": [
        {
          "internalType": "address",
          "name": "tokenIn",
          "type": "address"
        },
        {
          "internalType": "address",
          "name": "tokenOut",
          "type": "address"
        },
        {
          "internalType": "uint256",
          "name": "_consumeMarketSwapFee",
          "type": "uint256"
        }
      ],
      "name": "getSpotPrice",
      "outputs": [
        {
          "internalType": "uint256",
          "name": "spotPrice",
          "type": "uint256"
        }
      ],
      "stateMutability": "view",
      "type": "function"
    },
    {
      "inputs": [],
      "name": "getSwapFee",
      "outputs": [
        {
          "internalType": "uint256",
          "name": "",
          "type": "uint256"
        }
      ],
      "stateMutability": "view",
      "type": "function"
    },
    {
      "inputs": [],
      "name": "getTotalDenormalizedWeight",
      "outputs": [
        {
          "internalType": "uint256",
          "name": "",
          "type": "uint256"
        }
      ],
      "stateMutability": "view",
      "type": "function"
    },
    {
      "inputs": [
        {
          "internalType": "address",
          "name": "token",
          "type": "address"
        }
      ],
      "name": "gulp",
      "outputs": [],
      "stateMutability": "nonpayable",
      "type": "function"
    },
    {
      "inputs": [
        {
          "internalType": "address",
          "name": "dst",
          "type": "address"
        },
        {
          "internalType": "uint256",
          "name": "amt",
          "type": "uint256"
        }
      ],
      "name": "increaseApproval",
      "outputs": [
        {
          "internalType": "bool",
          "name": "",
          "type": "bool"
        }
      ],
      "stateMutability": "nonpayable",
      "type": "function"
    },
    {
      "inputs": [
        {
          "internalType": "address",
          "name": "controller",
          "type": "address"
        },
        {
          "internalType": "address",
          "name": "factory",
          "type": "address"
        },
        {
          "internalType": "uint256[]",
          "name": "swapFees",
          "type": "uint256[]"
        },
        {
          "internalType": "bool",
          "name": "publicSwap",
          "type": "bool"
        },
        {
          "internalType": "bool",
          "name": "finalized",
          "type": "bool"
        },
        {
          "internalType": "address[2]",
          "name": "tokens",
          "type": "address[2]"
        },
        {
          "internalType": "address[2]",
          "name": "feeCollectors",
          "type": "address[2]"
        }
      ],
      "name": "initialize",
      "outputs": [
        {
          "internalType": "bool",
          "name": "",
          "type": "bool"
        }
      ],
      "stateMutability": "nonpayable",
      "type": "function"
    },
    {
      "inputs": [
        {
          "internalType": "address",
          "name": "t",
          "type": "address"
        }
      ],
      "name": "isBound",
      "outputs": [
        {
          "internalType": "bool",
          "name": "",
          "type": "bool"
        }
      ],
      "stateMutability": "view",
      "type": "function"
    },
    {
      "inputs": [],
      "name": "isFinalized",
      "outputs": [
        {
          "internalType": "bool",
          "name": "",
          "type": "bool"
        }
      ],
      "stateMutability": "view",
      "type": "function"
    },
    {
      "inputs": [],
      "name": "isInitialized",
      "outputs": [
        {
          "internalType": "bool",
          "name": "",
          "type": "bool"
        }
      ],
      "stateMutability": "view",
      "type": "function"
    },
    {
      "inputs": [],
      "name": "isPublicSwap",
      "outputs": [
        {
          "internalType": "bool",
          "name": "",
          "type": "bool"
        }
      ],
      "stateMutability": "view",
      "type": "function"
    },
    {
      "inputs": [
        {
          "internalType": "uint256",
          "name": "tokenAmountIn",
          "type": "uint256"
        },
        {
          "internalType": "uint256",
          "name": "minPoolAmountOut",
          "type": "uint256"
        }
      ],
      "name": "joinswapExternAmountIn",
      "outputs": [
        {
          "internalType": "uint256",
          "name": "poolAmountOut",
          "type": "uint256"
        }
      ],
      "stateMutability": "nonpayable",
      "type": "function"
    },
    {
      "inputs": [],
      "name": "name",
      "outputs": [
        {
          "internalType": "string",
          "name": "",
          "type": "string"
        }
      ],
      "stateMutability": "view",
      "type": "function"
    },
    {
      "inputs": [
        {
          "internalType": "address",
          "name": "",
          "type": "address"
        }
      ],
      "name": "publishMarketFees",
      "outputs": [
        {
          "internalType": "uint256",
          "name": "",
          "type": "uint256"
        }
      ],
      "stateMutability": "view",
      "type": "function"
    },
    {
      "inputs": [
        {
          "internalType": "uint256",
          "name": "swapFee",
          "type": "uint256"
        }
      ],
      "name": "setSwapFee",
      "outputs": [],
      "stateMutability": "nonpayable",
      "type": "function"
    },
    {
      "inputs": [
        {
          "internalType": "address",
          "name": "datatokenAddress",
          "type": "address"
        },
        {
          "internalType": "uint256",
          "name": "datatokenAmount",
          "type": "uint256"
        },
        {
          "internalType": "uint256",
          "name": "datatokenWeight",
          "type": "uint256"
        },
        {
          "internalType": "address",
          "name": "baseTokenAddress",
          "type": "address"
        },
        {
          "internalType": "uint256",
          "name": "baseTokenAmount",
          "type": "uint256"
        },
        {
          "internalType": "uint256",
          "name": "baseTokenWeight",
          "type": "uint256"
        }
      ],
      "name": "setup",
      "outputs": [],
      "stateMutability": "nonpayable",
      "type": "function"
    },
    {
      "inputs": [
        {
          "internalType": "address[3]",
          "name": "tokenInOutMarket",
          "type": "address[3]"
        },
        {
          "internalType": "uint256[4]",
          "name": "amountsInOutMaxFee",
          "type": "uint256[4]"
        }
      ],
      "name": "swapExactAmountIn",
      "outputs": [
        {
          "internalType": "uint256",
          "name": "tokenAmountOut",
          "type": "uint256"
        },
        {
          "internalType": "uint256",
          "name": "spotPriceAfter",
          "type": "uint256"
        }
      ],
      "stateMutability": "nonpayable",
      "type": "function"
    },
    {
      "inputs": [
        {
          "internalType": "address[3]",
          "name": "tokenInOutMarket",
          "type": "address[3]"
        },
        {
          "internalType": "uint256[4]",
          "name": "amountsInOutMaxFee",
          "type": "uint256[4]"
        }
      ],
      "name": "swapExactAmountOut",
      "outputs": [
        {
          "internalType": "uint256",
          "name": "tokenAmountIn",
          "type": "uint256"
        },
        {
          "internalType": "uint256",
          "name": "spotPriceAfter",
          "type": "uint256"
        }
      ],
      "stateMutability": "nonpayable",
      "type": "function"
    },
    {
      "inputs": [],
      "name": "symbol",
      "outputs": [
        {
          "internalType": "string",
          "name": "",
          "type": "string"
        }
      ],
      "stateMutability": "view",
      "type": "function"
    },
    {
      "inputs": [],
      "name": "totalSupply",
      "outputs": [
        {
          "internalType": "uint256",
          "name": "",
          "type": "uint256"
        }
      ],
      "stateMutability": "view",
      "type": "function"
    },
    {
      "inputs": [
        {
          "internalType": "address",
          "name": "dst",
          "type": "address"
        },
        {
          "internalType": "uint256",
          "name": "amt",
          "type": "uint256"
        }
      ],
      "name": "transfer",
      "outputs": [
        {
          "internalType": "bool",
          "name": "",
          "type": "bool"
        }
      ],
      "stateMutability": "nonpayable",
      "type": "function"
    },
    {
      "inputs": [
        {
          "internalType": "address",
          "name": "src",
          "type": "address"
        },
        {
          "internalType": "address",
          "name": "dst",
          "type": "address"
        },
        {
          "internalType": "uint256",
          "name": "amt",
          "type": "uint256"
        }
      ],
      "name": "transferFrom",
      "outputs": [
        {
          "internalType": "bool",
          "name": "",
          "type": "bool"
        }
      ],
      "stateMutability": "nonpayable",
      "type": "function"
    },
    {
      "inputs": [
        {
          "internalType": "address",
          "name": "_newCollector",
          "type": "address"
        },
        {
          "internalType": "uint256",
          "name": "_newSwapFee",
          "type": "uint256"
        }
      ],
      "name": "updatePublishMarketFee",
      "outputs": [],
      "stateMutability": "nonpayable",
      "type": "function"
    }
  ],
  "bytecode": "0x60c0604052601360808190527f42616c616e63657220506f6f6c20546f6b656e0000000000000000000000000060a09081526200004091600a91906200008f565b506040805180820190915260038082526210941560ea1b60209092019182526200006d91600b916200008f565b50600c805460ff191660121790553480156200008857600080fd5b5062000172565b8280546200009d9062000135565b90600052602060002090601f016020900481019282620000c157600085556200010c565b82601f10620000dc57805160ff19168380011785556200010c565b828001600101855582156200010c579182015b828111156200010c578251825591602001919060010190620000ef565b506200011a9291506200011e565b5090565b5b808211156200011a57600081556001016200011f565b600181811c908216806200014a57607f821691505b602082108114156200016c57634e487b7160e01b600052602260045260246000fd5b50919050565b61593580620001826000396000f3fe608060405234801561001057600080fd5b50600436106104285760003560e01c8063892cdf9e1161022b578063c070a6d811610130578063d4cadf68116100b8578063ec09302111610087578063ec09302114610910578063f1b8a9b714610918578063f8b2cb4f1461092b578063fde924f71461093e578063ff9b18501461095057600080fd5b8063d4cadf68146108bc578063d73dd623146108c4578063dd62ed3e146108d7578063e4a28a521461048f57600080fd5b8063c6580d12116100ff578063c6580d121461087e578063c98a59cf14610886578063caa0114814610899578063cc77828d146108ac578063cd2ed8fb146108b457600080fd5b8063c070a6d81461083b578063c36596a6146104e2578063c421a3fc1461084e578063c44a42831461087657600080fd5b8063a9059cbb116101b3578063ba019dab11610182578063ba019dab146107f8578063bc063e1a14610800578063bc694ea214610808578063be3bbd2e14610810578063bf7db2361461082557600080fd5b8063a9059cbb146107d5578063ab77a2de146107e8578063b0e0d136146107f0578063b7b800a4146107f057600080fd5b80639381cd2b116101fa5780639381cd2b14610797578063948d8ce61461079f57806395d89b41146107b2578063992e2a92146107ba578063a3b3a16d146107c257600080fd5b8063892cdf9e146107575780638c28cbe81461076a5780638d4e40831461077d578063936c34771461078f57600080fd5b8063392e53cd11610331578063638c9e95116102b95780637a284be4116102885780637a284be41461070b5780637c5918b31461071457806380ca7308146107345780638329ab331461073c578063867378c51461074f57600080fd5b8063638c9e95146106b457806366188463146106c757806370a08231146106da57806376c7a3c71461070357600080fd5b80634df947d0116103005780634df947d01461063357806351705cd0146106445780635c3f1532146106925780635d1ca631146106a55780635e123add146106ac57600080fd5b8063392e53cd146105ea5780633950b3fd146105fc578063430ed5d01461060f578063458c3fb51461062257600080fd5b8063218b5382116103b45780632f37b624116103835780632f37b6241461054757806330062192146105735780633018205f14610593578063313ce567146105be57806334e19907146105d757600080fd5b8063218b5382146104e257806323b872dd146104f157806329b88a6a146105045780632eebd6ae1461050c57600080fd5b806309ef3f5b116103fb57806309ef3f5b1461049757806312989260146104ac57806318160ddd146104bf578063189d00ca146104c757806318f9722a146104cf57600080fd5b806306fdde031461042d578063079492d41461044b578063095ea7b31461046c57806309a3bbe41461048f575b600080fd5b610435610963565b60405161044291906151e6565b60405180910390f35b61045e610459366004615230565b6109f5565b604051908152602001610442565b61047f61047a36600461526c565b610a88565b6040519015158152602001610442565b61045e610ae3565b6104aa6104a5366004615296565b610af9565b005b61045e6104ba3660046152ee565b610d35565b60095461045e565b61045e611157565b6104aa6104dd36600461526c565b61116e565b61045e670de0b6b3a764000081565b61047f6104ff366004615230565b6112e6565b61045e611435565b61051f61051a366004615310565b6114af565b604080519586526020860194909452928401919091526060830152608082015260a001610442565b61047f610555366004615352565b6001600160a01b031660009081526010602052604090205460ff1690565b61045e610581366004615352565b60056020526000908152604090205481565b600c546201000090046001600160a01b03165b6040516001600160a01b039091168152602001610442565b600c5460ff165b60405160ff9091168152602001610442565b6104aa6105e536600461536d565b611587565b601254600160a01b900460ff1661047f565b61045e61060a36600461526c565b611682565b61045e61061d36600461526c565b6116e7565b6003546001600160a01b03166105a6565b6004546001600160a01b03166105a6565b61065761065236600461539c565b611744565b6040805193845260208085019390935281518482015291810151606080850191909152918101516080840152015160a082015260c001610442565b600e546105a6906001600160a01b031681565b60016105c5565b60005461045e565b600d546105a6906001600160a01b031681565b61047f6106d536600461526c565b6118f7565b61045e6106e8366004615352565b6001600160a01b031660009081526007602052604090205490565b61045e6119cd565b61045e60005481565b61045e610722366004615352565b60066020526000908152604090205481565b6104aa6119e1565b61045e61074a3660046152ee565b611b6e565b61045e611f4d565b61065761076536600461539c565b611f64565b6104aa610778366004615352565b6120fc565b600e54600160a01b900460ff1661047f565b61045e612276565b61045e6122a8565b61045e6107ad366004615352565b6122bb565b610435612312565b61045e612321565b61045e6107d036600461526c565b61233f565b61047f6107e336600461526c565b61239c565b6104aa6123b2565b61045e600281565b61045e600181565b61045e61251b565b61045e61252e565b61081861254d565b604051610442919061546c565b61082d612600565b60405161044292919061547f565b61047f610849366004615500565b612770565b61086161085c3660046155dc565b612a5e565b60408051928352602083019190915201610442565b61082d613235565b61045e600081565b6108616108943660046155dc565b61339a565b61051f6108a7366004615310565b613acb565b610818613b75565b600f5461045e565b60015461045e565b61047f6108d236600461526c565b613ba0565b61045e6108e536600461561e565b6001600160a01b03918216600090815260086020908152604080832093909416825291909152205490565b61045e613c13565b61045e610926366004615352565b613c26565b61045e610939366004615352565b613c84565b600c54600160b01b900460ff1661047f565b61045e61095e36600461526c565b613cd7565b6060600a805461097290615651565b80601f016020809104026020016040519081016040528092919081815260200182805461099e90615651565b80156109eb5780601f106109c0576101008083540402835291602001916109eb565b820191906000526020600020905b8154815290600101906020018083116109ce57829003601f168201915b5050505050905090565b600c54600090610100900460ff1615610a295760405162461bcd60e51b8152600401610a209061568c565b60405180910390fd5b610a3284613d34565b610a3b83613d34565b6001600160a01b03808516600090815260106020526040808220928616825290206003808301546002808501549284015490840154610a7c93919088613d8f565b925050505b9392505050565b3360008181526008602090815260408083206001600160a01b038716808552925280832085905551919290916000805160206158e083398151915290610ad19086815260200190565b60405180910390a35060015b92915050565b610af6670de0b6b3a764000060326156c7565b81565b600c54610100900460ff1615610b215760405162461bcd60e51b8152600401610a209061568c565b600c805461010061ff001990911617908190556201000090046001600160a01b03163314610b8a5760405162461bcd60e51b815260206004820152601660248201527522a9292fa4a72b20a624a22fa1a7a72a2927a62622a960511b6044820152606401610a20565b6003546001600160a01b03878116911614610be75760405162461bcd60e51b815260206004820152601d60248201527f4552525f494e56414c49445f44415441544f4b454e5f414444524553530000006044820152606401610a20565b6004546001600160a01b03848116911614610c445760405162461bcd60e51b815260206004820152601d60248201527f4552525f494e56414c49445f62617365546f6b656e5f414444524553530000006044820152606401610a20565b610c4f868686613e1b565b604080518681524260208201526001600160a01b0388169133916000805160206158c0833981519152910160405180910390a3610c8d838383613e1b565b604080518381524260208201526001600160a01b0385169133916000805160206158c0833981519152910160405180910390a3610cc861400a565b6040805183815260208101839052908101869052606081018590526001600160a01b03808816919085169033907fbece8b4dcdbe446dd65a9288154698e067e3e91de17a1a408c2f531b9f845d739060800160405180910390a45050600c805461ff001916905550505050565b600c54600090610100900460ff1615610d605760405162461bcd60e51b8152600401610a209061568c565b600c805461ff001916610100179055600e54600160a01b900460ff16610d985760405162461bcd60e51b8152600401610a20906156e6565b600454610dad906001600160a01b0316613d34565b6004546001600160a01b031660009081526010602052604090206003810154600954610dda919086614069565b915082821015610dfc5760405162461bcd60e51b8152600401610a2090615711565b6004546001600160a01b0316600090815260106020526040902060030154610e4190610e316002670de0b6b3a764000061574e565b610e3c906001615762565b6140c2565b821115610e845760405162461bcd60e51b81526020600482015260116024820152704552525f4d41585f4f55545f524154494f60781b6044820152606401610a20565b610e928160030154836141a7565b6003820155600454604080518481524260208201526001600160a01b039092169133917f9d9058fd2f25ccc389fec7720abef0ca83472f5abfafd5f10d37f51e6a0493f3910160405180910390a36040518481527ffcda32798d5a9d032f49b37fea876d422f18f6e386e0f07db6029b693624b2c29060200160405180910390a1601254600354604051630d098ab360e11b81526001600160a01b03918216600482015260248101879052911690631a13156690604401602060405180830381865afa158015610f66573d6000803e3d6000fd5b505050506040513d601f19601f82011682018060405250810190610f8a919061577a565b1561111b57600380546001600160a01b0316600090815260106020526040812091820154600954610fbc919088614069565b9050610fcc8260030154826141a7565b60038381019190915554600c54604080518481524260208201526001600160a01b039384169362010000909304909216917f9d9058fd2f25ccc389fec7720abef0ca83472f5abfafd5f10d37f51e6a0493f3910160405180910390a3600c54611044906201000090046001600160a01b031687614204565b61104d8661420e565b600354600c54611070916001600160a01b03908116916201000090041683614217565b60125460035460405163054a976360e41b81526001600160a01b03918216600482015260248101849052604481018990529116906354a9763090606401600060405180830381600087803b1580156110c757600080fd5b505af11580156110db573d6000803e3d6000fd5b505050507f87b3975661762d852ddf2eeaad6a43b2d93777de7b3b7bdb634283df324561188660405161111091815260200190565b60405180910390a150505b6111253385614204565b61112e8461420e565b600454611145906001600160a01b03163384614217565b50600c805461ff001916905592915050565b610af66402540be400670de0b6b3a764000061574e565b600d546001600160a01b031633146111c05760405162461bcd60e51b815260206004820152601560248201527427a7262c9026a0a925a2aa1021a7a62622a1aa27a960591b6044820152606401610a20565b6001600160a01b0382166112165760405162461bcd60e51b815260206004820152601d60248201527f496e76616c6964205f6e6577436f6c6c6563746f7220616464726573730000006044820152606401610a20565b8015806112365750611232612710670de0b6b3a764000061574e565b8110155b6112525760405162461bcd60e51b8152600401610a2090615797565b611265600a670de0b6b3a764000061574e565b8111156112845760405162461bcd60e51b8152600401610a20906157bc565b600d80546001600160a01b0319166001600160a01b03841690811790915560008290556040517f5e3e722dbd3b6b8071b78568ac80cd0e8ff92e4fb3024e755d504d8f7c2f6f09916112da9133919085906157e1565b60405180910390a15050565b6000336001600160a01b038516148061132257506001600160a01b03841660009081526008602090815260408083203384529091529020548211155b6113665760405162461bcd60e51b815260206004820152601560248201527422a9292fa12a27a5a2a72fa120a22fa1a0a62622a960591b6044820152606401610a20565b61137184848461422b565b336001600160a01b038516148015906113af57506001600160a01b038416600090815260086020908152604080832033845290915290205460001914155b1561142b576001600160a01b03841660009081526008602090815260408083203384529091529020546113e290836141a7565b6001600160a01b038516600081815260086020908152604080832033808552908352928190208590555193845290926000805160206158e0833981519152910160405180910390a35b5060019392505050565b6002546004805460405163b8421e2b60e01b81526001600160a01b0391821692810192909252600092169063b8421e2b90602401602060405180830381865afa158015611486573d6000803e3d6000fd5b505050506040513d601f19601f820116820180604052508101906114aa9190615805565b905090565b60008060008060006114c089613d34565b6114c988613d34565b604080516080810182526001600160a01b03808c16600090815260106020818152858320600380820154875260029182015483880152948f1680855283835287852095860154978701979097529583525292015460608201529061154e6040518060800160405280600081526020016000815260200160008152602001600081525090565b611559838b8b611f64565b805160208201516040830151606090930151949c50909a509850965090945050505050945094509450945094565b600c546201000090046001600160a01b031633146115dc5760405162461bcd60e51b815260206004820152601260248201527122a9292fa727aa2fa1a7a72a2927a62622a960711b6044820152606401610a20565b6115f0612710670de0b6b3a764000061574e565b81101561160f5760405162461bcd60e51b8152600401610a2090615797565b611622600a670de0b6b3a764000061574e565b8111156116415760405162461bcd60e51b8152600401610a20906157bc565b600181905560408051338152602081018390527fbca0d601c32979eebac4e8cd06375b6e45d39af80fc06a33f366425b450dfb69910160405180910390a150565b6001600160a01b03821660009081526010602090815260408083208151608081018352815460ff161515815260018201549381019390935260028101549183019190915260030154606082018190526009546116df91908561433d565b949350505050565b6001600160a01b03821660009081526010602090815260408083208151608081018352815460ff161515815260018201549381019390935260028101549183019190915260030154606082018190526009546116df919085614069565b6000806117726040518060800160405280600081526020016000815260200160008152602001600081525090565b600061178d87600360200201518860015b60200201516143f0565b905060006117a28860026020020151886141a7565b905060006117b78960026020020151836143f0565b905060006117c58285614508565b90506117d981670de0b6b3a76400006141a7565b905060008054896117e8611435565b6001546117f59190615762565b6117ff9190615762565b6118099190615762565b90506118376118208c60005b6020020151846140c2565b611832670de0b6b3a7640000846141a7565b6143f0565b975061185a886118558a610e3c670de0b6b3a7640000611855611435565b6141a7565b86602001818152505061187f886118558a610e3c670de0b6b3a76400006000546141a7565b8660400181815250506118a4886118558a610e3c670de0b6b3a76400006001546141a7565b86526118c08861185581610e3c670de0b6b3a76400008e6141a7565b60608701526118e76118d38c6000611815565b611832670de0b6b3a76400006001546141a7565b9650505050505093509350939050565b3360009081526008602090815260408083206001600160a01b03861684529091528120548083111561194c573360009081526008602090815260408083206001600160a01b038816845290915281205561197b565b61195681846141a7565b3360009081526008602090815260408083206001600160a01b03891684529091529020555b3360008181526008602090815260408083206001600160a01b038916808552908352928190205490519081529192916000805160206158e0833981519152910160405180910390a35060019392505050565b610af6612710670de0b6b3a764000061574e565b60006119eb61254d565b905060005b8151811015611b6a57600060066000848481518110611a1157611a1161581e565b60200260200101516001600160a01b03166001600160a01b03168152602001908152602001600020549050600060066000858581518110611a5457611a5461581e565b60200260200101516001600160a01b03166001600160a01b03168152602001908152602001600020819055507fbaf1ab77be65c7abf8fcd922bfcf0a749f556ac1a4cdf39c126ffaa1851edb5633600d60009054906101000a90046001600160a01b0316858581518110611aca57611aca61581e565b602002602001015184604051611b0894939291906001600160a01b039485168152928416602084015292166040820152606081019190915260800190565b60405180910390a1600d548351611b57916001600160a01b0316908390869086908110611b3757611b3761581e565b60200260200101516001600160a01b03166146349092919063ffffffff16565b5080611b6281615834565b9150506119f0565b5050565b600c54600090610100900460ff1615611b995760405162461bcd60e51b8152600401610a209061568c565b600c805461ff001916610100179055600e54600160a01b900460ff16611bd15760405162461bcd60e51b8152600401610a20906156e6565b600454611be6906001600160a01b0316613d34565b6004546001600160a01b0316600090815260106020526040902060030154611c1b90610e3c6002670de0b6b3a764000061574e565b831115611c5d5760405162461bcd60e51b815260206004820152601060248201526f4552525f4d41585f494e5f524154494f60801b6044820152606401610a20565b6004546001600160a01b031660009081526010602052604090206003810154600954611c8a91908661433d565b915082821015611cac5760405162461bcd60e51b8152600401610a2090615711565b611cba816003015485614697565b6003820155600454604080518681524260208201526001600160a01b039092169133916000805160206158c0833981519152910160405180910390a36040518281527ffcda32798d5a9d032f49b37fea876d422f18f6e386e0f07db6029b693624b2c29060200160405180910390a1600380546001600160a01b0316600090815260106020526040812091820154600954611d569190866146e9565b601254600354604051632afbbacb60e01b81526001600160a01b039182166004820152602481018490529293501690632afbbacb90604401602060405180830381865afa158015611dab573d6000803e3d6000fd5b505050506040513d601f19601f82011682018060405250810190611dcf919061577a565b15611f0f5760125460035460405163ebedb8b360e01b81526001600160a01b0391821660048201526024810184905291169063ebedb8b390604401600060405180830381600087803b158015611e2457600080fd5b505af1158015611e38573d6000803e3d6000fd5b50505050611e4a826003015482614697565b60038381019190915554600c54604080518481524260208201526001600160a01b039384169362010000909304909216916000805160206158c0833981519152910160405180910390a36040518481527f87b3975661762d852ddf2eeaad6a43b2d93777de7b3b7bdb634283df324561189060200160405180910390a1611ed08461471a565b600c54611eec906201000090046001600160a01b031685614723565b600354600c54611f0f916001600160a01b0390811691620100009004168361472d565b611f188461471a565b611f223385614723565b600454611f39906001600160a01b0316338861472d565b505050600c805461ff001916905592915050565b610af664e8d4a51000670de0b6b3a764000061574e565b600080611f926040518060800160405280600081526020016000815260200160008152602001600081525090565b6000611fa78760016020020151886003611783565b9050611fc58661185588610e3c670de0b6b3a7640000611855611435565b826020018181525050611fea8661185588610e3c670de0b6b3a76400006000546141a7565b82604001818152505061200f8661185588610e3c670de0b6b3a76400006001546141a7565b825261202b8661185581610e3c670de0b6b3a76400008a6141a7565b606083015260008054869061203e611435565b60015461204b9190615762565b6120559190615762565b61205f9190615762565b90506000612075670de0b6b3a7640000836141a7565b905061208188826140c2565b8951909150600090612097906118328185614697565b905060006120a58286614508565b905060006120bb670de0b6b3a7640000836141a7565b90506120ce8c60026020020151826140c2565b9850886120e98c89604001518a602001516118559190615762565b9850985050505050505093509350939050565b600c54610100900460ff16156121245760405162461bcd60e51b8152600401610a209061568c565b600c805461ff0019166101001790556001600160a01b03811660009081526010602052604090205460ff1661218b5760405162461bcd60e51b815260206004820152600d60248201526c11549497d393d517d093d55391609a1b6044820152606401610a20565b6001600160a01b038116600081815260106020526040908190206003015490516370a0823160e01b81523060048201529091906370a0823190602401602060405180830381865afa1580156121e4573d6000803e3d6000fd5b505050506040513d601f19601f820116820180604052508101906122089190615805565b6001600160a01b038316600081815260106020908152604091829020600301849055815192835282018490528101919091527f9facca02b471d2776031537a8c9e281dfe5120035ede107bd328b165ffd973389060600160405180910390a15050600c805461ff0019169055565b600c54600090610100900460ff16156122a15760405162461bcd60e51b8152600401610a209061568c565b5060115490565b610af6670de0b6b3a764000060646156c7565b600c54600090610100900460ff16156122e65760405162461bcd60e51b8152600401610a209061568c565b6122ef82613d34565b506001600160a01b0381166000908152601060205260409020600201545b919050565b6060600b805461097290615651565b6123346002670de0b6b3a764000061574e565b610af6906001615762565b6001600160a01b03821660009081526010602090815260408083208151608081018352815460ff161515815260018201549381019390935260028101549183019190915260030154606082018190526009546116df919085614875565b60006123a933848461422b565b50600192915050565b60006123bc61254d565b905060005b8151811015611b6a576000600560008484815181106123e2576123e261581e565b60200260200101516001600160a01b03166001600160a01b031681526020019081526020016000205490506000600560008585815181106124255761242561581e565b60200260200101516001600160a01b03166001600160a01b03168152602001908152602001600020819055507fed2b0288692cfc6d01c94a67a53721792f59c3d1388221f8aa4f66c8d2808dde33600e60009054906101000a90046001600160a01b031685858151811061249b5761249b61581e565b6020026020010151846040516124d994939291906001600160a01b039485168152928416602084015292166040820152606081019190915260800190565b60405180910390a1600e548351612508916001600160a01b0316908390869086908110611b3757611b3761581e565b508061251381615834565b9150506123c1565b610af6600a670de0b6b3a764000061574e565b6001612543670de0b6b3a764000060026156c7565b610af6919061584f565b600c54606090610100900460ff16156125785760405162461bcd60e51b8152600401610a209061568c565b600e54600160a01b900460ff166125a15760405162461bcd60e51b8152600401610a20906156e6565b600f8054806020026020016040519081016040528092919081815260200182805480156109eb57602002820191906000526020600020905b81546001600160a01b031681526001909101906020018083116125d9575050505050905090565b606080600061260d61254d565b90506000815167ffffffffffffffff81111561262b5761262b615386565b604051908082528060200260200182016040528015612654578160200160208202803683370190505b5090506000825167ffffffffffffffff81111561267357612673615386565b60405190808252806020026020018201604052801561269c578160200160208202803683370190505b50905060005b8351811015612765578381815181106126bd576126bd61581e565b60200260200101518382815181106126d7576126d761581e565b60200260200101906001600160a01b031690816001600160a01b0316815250506005600085838151811061270d5761270d61581e565b60200260200101516001600160a01b03166001600160a01b03168152602001908152602001600020548282815181106127485761274861581e565b60209081029190910101528061275d81615834565b9150506126a2565b509094909350915050565b601254600090600160a01b900460ff16156127cd5760405162461bcd60e51b815260206004820152601760248201527f4552525f414c52454144595f494e495449414c495a45440000000000000000006044820152606401610a20565b6001600160a01b0389166128235760405162461bcd60e51b815260206004820152601e60248201527f4552525f494e56414c49445f434f4e54524f4c4c45525f4144445245535300006044820152606401610a20565b6001600160a01b0388166128795760405162461bcd60e51b815260206004820152601b60248201527f4552525f494e56414c49445f464143544f52595f4144445245535300000000006044820152606401610a20565b61288d612710670de0b6b3a764000061574e565b878760008181106128a0576128a061581e565b9050602002013510156128c55760405162461bcd60e51b8152600401610a2090615797565b6128d8600a670de0b6b3a764000061574e565b878760008181106128eb576128eb61581e565b9050602002013511156129105760405162461bcd60e51b8152600401610a20906157bc565b868660018181106129235761292361581e565b90506020020135600014806129645750612947612710670de0b6b3a764000061574e565b8787600181811061295a5761295a61581e565b9050602002013510155b6129805760405162461bcd60e51b8152600401610a2090615797565b612993600a670de0b6b3a764000061574e565b878760018181106129a6576129a661581e565b9050602002013511156129cb5760405162461bcd60e51b8152600401610a20906157bc565b612a518989898980806020026020016040519081016040528093929190818152602001838360200280828437600092019190915250506040805180820182528c93508b9250908a9060029083908390808284376000920191909152505060408051808201825291508a9060029083908390808284376000920191909152506148c1915050565b9998505050505050505050565b600c546000908190610100900460ff1615612a8b5760405162461bcd60e51b8152600401610a209061568c565b600c805461ff001916610100179055600e54600160a01b900460ff16612ac35760405162461bcd60e51b8152600401610a20906156e6565b612ad36040850160208601615352565b6001600160a01b0316612ae96020860186615352565b6001600160a01b03161415612b395760405162461bcd60e51b815260206004820152601660248201527521b0b73737ba1039bbb0b81039b0b6b2903a37b5b2b760511b6044820152606401610a20565b612b588460005b602002016020810190612b539190615352565b613d34565b612b63846001612b40565b6000601081612b756020880188615352565b6001600160a01b03168152602081019190915260400160009081209150601081876001602002016020810190612bab9190615352565b6001600160a01b031681526020810191909152604001600020905060608501351580612bee5750612be6612710670de0b6b3a764000061574e565b606086013510155b612c335760405162461bcd60e51b8152602060048201526016602482015275436f6e73756d655377617046656520746f6f206c6f7760501b6044820152606401610a20565b612c46600a670de0b6b3a764000061574e565b60608601351115612c935760405162461bcd60e51b8152602060048201526017602482015276086dedce6eadacaa6eec2e08ccaca40e8dede40d0d2ced604b1b6044820152606401610a20565b6003820154612caf90610e3c6002670de0b6b3a764000061574e565b85351115612cf25760405162461bcd60e51b815260206004820152601060248201526f4552525f4d41585f494e5f524154494f60801b6044820152606401610a20565b6000612d2883600301548460020154846003015485600201548a600360048110612d1e57612d1e61581e565b6020020135613d8f565b90506040860135811115612d745760405162461bcd60e51b81526020600482015260136024820152724552525f4241445f4c494d49545f505249434560681b6044820152606401610a20565b600080604051806080016040528086600301548152602001866002015481526020018560030154815260200185600201548152509050612dd56040518060800160405280600081526020016000815260200160008152602001600081525090565b612de5828a3560608c0135611f64565b91995093509050612e34600560008c815b602002016020810190612e099190615352565b6001600160a01b03166001600160a01b03168152602001908152602001600020548260200151614697565b60056000612e4560208e018e615352565b6001600160a01b03166001600160a01b0316815260200190815260200160002081905550612ec1600660008c600060038110612e8357612e8361581e565b602002016020810190612e969190615352565b6001600160a01b03166001600160a01b03168152602001908152602001600020548260400151614697565b60066000612ed260208e018e615352565b6001600160a01b03166001600160a01b03168152602001908152602001600020819055507f53a9dc73d01196a9c660d761bc5ec77b945340a34b5b52e510760af2dab1c0f181600001518260200151836040015184606001518e600060038110612f3e57612f3e61581e565b602002016020810190612f519190615352565b6040805195865260208601949094529284019190915260608301526001600160a01b0316608082015260a00160405180910390a16020890135881015612fa95760405162461bcd60e51b8152600401610a2090615711565b612fb7866003015484614697565b8660030181905550612fcd8560030154896141a7565b8560030181905550612fff86600301548760020154876003015488600201548d600360048110612d1e57612d1e61581e565b9650838710156130215760405162461bcd60e51b8152600401610a2090615866565b60408901358711156130675760405162461bcd60e51b815260206004820152600f60248201526e4552525f4c494d49545f505249434560881b6044820152606401610a20565b6130728935896143f0565b8411156130915760405162461bcd60e51b8152600401610a2090615866565b6130a160408b0160208c01615352565b6001600160a01b03166130b760208c018c615352565b60038089015490880154604080518e358152602081018e905242918101919091526060810192909252608082015260a081018a90526001600160a01b03919091169033907fbdafe88494b31fc7436fe7992b0f377e874287e841e62eed1ad77e84f3c5b1719060c00160405180910390a461314061313860208c018c615352565b338b3561472d565b60006131658a3561185581610e3c670de0b6b3a76400008f60035b60200201356141a7565b905060608a013515613200576131a98b60025b60200201602081019061318b9190615352565b8261319960208f018f615352565b6001600160a01b03169190614634565b7f6d11837f46cc09b011cf4aae09fcade046c020aac088090ae4f77ff67b7079726131da60608d0160408e01615352565b6131e760208e018e615352565b836040516131f7939291906157e1565b60405180910390a15b61321a61321360408d0160208e01615352565b338b614217565b50505050505050600c805461ff001916905590939092509050565b606080600061324261254d565b90506000815167ffffffffffffffff81111561326057613260615386565b604051908082528060200260200182016040528015613289578160200160208202803683370190505b5090506000825167ffffffffffffffff8111156132a8576132a8615386565b6040519080825280602002602001820160405280156132d1578160200160208202803683370190505b50905060005b8351811015612765578381815181106132f2576132f261581e565b602002602001015183828151811061330c5761330c61581e565b60200260200101906001600160a01b031690816001600160a01b031681525050600660008583815181106133425761334261581e565b60200260200101516001600160a01b03166001600160a01b031681526020019081526020016000205482828151811061337d5761337d61581e565b60209081029190910101528061339281615834565b9150506132d7565b600c546000908190610100900460ff16156133c75760405162461bcd60e51b8152600401610a209061568c565b600c805461ff001916610100179055600e54600160a01b900460ff166133ff5760405162461bcd60e51b8152600401610a20906156e6565b61340f6040850160208601615352565b6001600160a01b03166134256020860186615352565b6001600160a01b031614156134755760405162461bcd60e51b815260206004820152601660248201527521b0b73737ba1039bbb0b81039b0b6b2903a37b5b2b760511b6044820152606401610a20565b6060830135158061349d5750613495612710670de0b6b3a764000061574e565b606084013510155b6134e25760405162461bcd60e51b8152602060048201526016602482015275436f6e73756d655377617046656520746f6f206c6f7760501b6044820152606401610a20565b6134f5600a670de0b6b3a764000061574e565b606084013511156135425760405162461bcd60e51b8152602060048201526017602482015276086dedce6eadacaa6eec2e08ccaca40e8dede40d0d2ced604b1b6044820152606401610a20565b61354d846000612b40565b613558846001612b40565b600060108161356a6020880188615352565b6001600160a01b031681526020810191909152604001600090812091506010818760016020020160208101906135a09190615352565b6001600160a01b03166001600160a01b0316815260200190815260200160002090506135df81600301546002670de0b6b3a7640000610e31919061574e565b602086013511156136265760405162461bcd60e51b81526020600482015260116024820152704552525f4d41585f4f55545f524154494f60781b6044820152606401610a20565b600061365283600301548460020154846003015485600201548a600360048110612d1e57612d1e61581e565b9050604086013581111561369e5760405162461bcd60e51b81526020600482015260136024820152724552525f4241445f4c494d49545f505249434560681b6044820152606401610a20565b6000806040518060800160405280866003015481526020018660020154815260200185600301548152602001856002015481525090506136ff6040518060800160405280600081526020016000815260200160008152602001600081525090565b6137128260208b013560608c0135611744565b91995093509050613727600560008c81612df6565b6005600061373860208e018e615352565b6001600160a01b03166001600160a01b0316815260200190815260200160002081905550613776600660008c600060038110612e8357612e8361581e565b6006600061378760208e018e615352565b6001600160a01b03166001600160a01b03168152602001908152602001600020819055507f53a9dc73d01196a9c660d761bc5ec77b945340a34b5b52e510760af2dab1c0f181600001518260200151836040015184606001518e6000600381106137f3576137f361581e565b6020020160208101906138069190615352565b6040805195865260208601949094529284019190915260608301526001600160a01b0316608082015260a00160405180910390a1883588111561387a5760405162461bcd60e51b815260206004820152600c60248201526b22a9292fa624a6a4aa2fa4a760a11b6044820152606401610a20565b613888866003015484614697565b6003808801919091558501546138a0908a600161315b565b85600301819055506138d286600301548760020154876003015488600201548d600360048110612d1e57612d1e61581e565b9650838710156138f45760405162461bcd60e51b8152600401610a2090615866565b604089013587111561393a5760405162461bcd60e51b815260206004820152600f60248201526e4552525f4c494d49545f505249434560881b6044820152606401610a20565b6139488860208b01356143f0565b8411156139675760405162461bcd60e51b8152600401610a2090615866565b61397760408b0160208c01615352565b6001600160a01b031661398d60208c018c615352565b6001600160a01b0316337fbdafe88494b31fc7436fe7992b0f377e874287e841e62eed1ad77e84f3c5b1718b8d60016020020135428c600301548c600301548f604051613a0296959493929190958652602086019490945260408501929092526060840152608083015260a082015260c00190565b60405180910390a4613a21613a1a60208c018c615352565b338a61472d565b6000613a3f8961185581610e3c670de0b6b3a76400008f600361315b565b905060608a013515613aad57613a568b6002613178565b7f6d11837f46cc09b011cf4aae09fcade046c020aac088090ae4f77ff67b707972613a8760608d0160408e01615352565b613a9460208e018e615352565b83604051613aa4939291906157e1565b60405180910390a15b61321a613ac060408d0160208e01615352565b3360208d0135614217565b6000806000806000613adc89613d34565b613ae588613d34565b604080516080810182526001600160a01b03808c16600090815260106020818152858320600380820154875260029182015483880152948f16808552838352878520958601549787019790975295835252920154606082015290613b6a6040518060800160405280600081526020016000815260200160008152602001600081525090565b611559838b8b611744565b600c54606090610100900460ff16156125a15760405162461bcd60e51b8152600401610a209061568c565b3360009081526008602090815260408083206001600160a01b0386168452909152812054613bce9083614697565b3360008181526008602090815260408083206001600160a01b038916808552908352928190208590555193845290926000805160206158e08339815191529101610ad1565b610af66002670de0b6b3a764000061574e565b600c54600090610100900460ff1615613c515760405162461bcd60e51b8152600401610a209061568c565b613c5a82613d34565b6001600160a01b038216600090815260106020526040902060020154601154610a819082906143f0565b600c54600090610100900460ff1615613caf5760405162461bcd60e51b8152600401610a209061568c565b613cb882613d34565b506001600160a01b031660009081526010602052604090206003015490565b6001600160a01b03821660009081526010602090815260408083208151608081018352815460ff161515815260018201549381019390935260028101549183019190915260030154606082018190526009546116df9190856146e9565b6001600160a01b03811660009081526010602052604090205460ff16613d8c5760405162461bcd60e51b815260206004820152600d60248201526c11549497d393d517d093d55391609a1b6044820152606401610a20565b50565b600080613d9c87876143f0565b90506000613daa86866143f0565b90506000613db883836143f0565b90506000613e01670de0b6b3a7640000611832670de0b6b3a764000089600054613de0611435565b600154613ded9190615762565b613df79190615762565b6118559190615762565b9050613e0d82826140c2565b9a9950505050505050505050565b600c546201000090046001600160a01b03163314613e705760405162461bcd60e51b815260206004820152601260248201527122a9292fa727aa2fa1a7a72a2927a62622a960711b6044820152606401610a20565b6001600160a01b03831660009081526010602052604090205460ff1615613ec85760405162461bcd60e51b815260206004820152600c60248201526b11549497d254d7d093d5539160a21b6044820152606401610a20565b600e54600160a01b900460ff1615613f155760405162461bcd60e51b815260206004820152601060248201526f11549497d254d7d1925390531256915160821b6044820152606401610a20565b600f54600211613f585760405162461bcd60e51b815260206004820152600e60248201526d4552525f4d41585f544f4b454e5360901b6044820152606401610a20565b604080516080810182526001808252600f805460208085019182526000858701818152606087018281526001600160a01b038c1680845260109094529782209651875460ff1916901515178755925186860155915160028601559451600390940193909355805491820181559091527f8d1108e10bcb7c27dddfc02ed9d693a074039d026cf4ea4240b40f7d581ac8020180546001600160a01b0319169091179055614005838383614a8f565b505050565b600e805460ff60a01b1916600160a01b179055600c805460ff60b01b1916600160b01b17905561404b614046670de0b6b3a764000060646156c7565b61471a565b61406733614062670de0b6b3a764000060646156c7565b614723565b565b60006140768260026156c7565b9150600061408484846141a7565b9050600061409282866143f0565b905060006140a8670de0b6b3a7640000836141a7565b905060006140b682896140c2565b98975050505050505050565b6000806140cf83856156c7565b90508315806140e65750826140e4858361574e565b145b6141255760405162461bcd60e51b815260206004820152601060248201526f4552525f4d554c5f4f564552464c4f5760801b6044820152606401610a20565b600061413a6002670de0b6b3a764000061574e565b6141449083615762565b9050818110156141895760405162461bcd60e51b815260206004820152601060248201526f4552525f4d554c5f4f564552464c4f5760801b6044820152606401610a20565b600061419d670de0b6b3a76400008361574e565b9695505050505050565b60008060006141b68585614cae565b9150915080156141fc5760405162461bcd60e51b81526020600482015260116024820152704552525f5355425f554e444552464c4f5760781b6044820152606401610a20565b509392505050565b611b6a8282614ce5565b613d8c81614cf0565b6140056001600160a01b0384168383614634565b6001600160a01b03831660009081526007602052604090205481111561428a5760405162461bcd60e51b815260206004820152601460248201527311549497d25394d551919250d251539517d0905360621b6044820152606401610a20565b6001600160a01b0383166000908152600760205260409020546142ad90826141a7565b6001600160a01b0380851660009081526007602052604080822093909355908416815220546142dc9082614697565b6001600160a01b0380841660008181526007602052604090819020939093559151908516907fddf252ad1be2c89b69c2b068fc378daa952ba7f163c4a11628f55a4df523b3ef906143309085815260200190565b60405180910390a3505050565b60008061435283670de0b6b3a76400006140c2565b905060006143608683614697565b9050600061436e82886143f0565b9050600061438482670de0b6b3a76400006141a7565b9050600061439282896140c2565b905060028110156143e55760405162461bcd60e51b815260206004820152601b60248201527f4552525f544f4b454e5f414d4f554e545f494e5f544f4f5f4c4f5700000000006044820152606401610a20565b612a5160028261574e565b60008161442e5760405162461bcd60e51b815260206004820152600c60248201526b4552525f4449565f5a45524f60a01b6044820152606401610a20565b6000614442670de0b6b3a7640000856156c7565b90508315806144615750670de0b6b3a764000061445f858361574e565b145b6144a05760405162461bcd60e51b815260206004820152601060248201526f11549497d1125597d25395115493905360821b6044820152606401610a20565b60006144ad60028561574e565b6144b79083615762565b9050818110156144fc5760405162461bcd60e51b815260206004820152601060248201526f11549497d1125597d25395115493905360821b6044820152606401610a20565b600061419d858361574e565b600060018310156145535760405162461bcd60e51b81526020600482015260156024820152744552525f42504f575f424153455f544f4f5f4c4f5760581b6044820152606401610a20565b6001614568670de0b6b3a764000060026156c7565b614572919061584f565b8311156145ba5760405162461bcd60e51b815260206004820152601660248201527508aa4a4be84a09eaebe8482a68abea89e9ebe90928e960531b6044820152606401610a20565b60006145c583614dbc565b905060006145d384836141a7565b905060006145e9866145e485614dda565b614dee565b9050816145fa579250610add915050565b600061461d87846146186402540be400670de0b6b3a764000061574e565b614e62565b905061462982826140c2565b979650505050505050565b6040516001600160a01b03831660248201526044810182905261400590849063a9059cbb60e01b906064015b60408051601f198184030181529190526020810180516001600160e01b03166001600160e01b031990931692909217909152614f52565b6000806146a48385615762565b905083811015610a815760405162461bcd60e51b815260206004820152601060248201526f4552525f4144445f4f564552464c4f5760801b6044820152606401610a20565b6000806146f68484614697565b9050600061470482866143f0565b905060006140a882670de0b6b3a76400006141a7565b613d8c81615024565b611b6a8282615093565b6040516370a0823160e01b81523060048201526000906001600160a01b038516906370a0823190602401602060405180830381865afa158015614774573d6000803e3d6000fd5b505050506040513d601f19601f820116820180604052508101906147989190615805565b90506147af6001600160a01b03851684308561509e565b6147b98282615762565b6040516370a0823160e01b81523060048201526001600160a01b038616906370a0823190602401602060405180830381865afa1580156147fd573d6000803e3d6000fd5b505050506040513d601f19601f820116820180604052508101906148219190615805565b101561486f5760405162461bcd60e51b815260206004820152601a60248201527f5472616e7366657220616d6f756e7420697320746f6f206c6f770000000000006044820152606401610a20565b50505050565b60008061488285846141a7565b9050600061489082876143f0565b905060006148a6670de0b6b3a7640000836141a7565b905060006148b482886140c2565b90506140b660028261574e565b600c805462010000600160b01b031916620100006001600160a01b038a81169190910291909117909155600280546001600160a01b0319169188169190911790558451600090869082906149175761491761581e565b602090810291909101810151600181905560408051338152928301919091527fbca0d601c32979eebac4e8cd06375b6e45d39af80fc06a33f366425b450dfb69910160405180910390a1856001815181106149745761497461581e565b6020908102919091018101516000819055600c805460ff60b01b1916600160b01b89151502179055600e805460ff60a01b1916600160a01b881515021790558451600380546001600160a01b03199081166001600160a01b0393841617909155928601516004805485169183169190911790558451600d805490941691169081179092556040517f5e3e722dbd3b6b8071b78568ac80cd0e8ff92e4fb3024e755d504d8f7c2f6f0992614a289233926157e1565b60405180910390a18160016020020151600e80546001600160a01b0319166001600160a01b0392831617905560128054600c54600160a01b620100009091049093166001600160a81b03199091161782179081905560ff9190041698975050505050505050565b670de0b6b3a7640000811015614ad85760405162461bcd60e51b815260206004820152600e60248201526d11549497d3525397d5d15251d21560921b6044820152606401610a20565b614aeb670de0b6b3a764000060326156c7565b811115614b2b5760405162461bcd60e51b815260206004820152600e60248201526d11549497d3505617d5d15251d21560921b6044820152606401610a20565b614b4264e8d4a51000670de0b6b3a764000061574e565b821015614b835760405162461bcd60e51b815260206004820152600f60248201526e4552525f4d494e5f42414c414e434560881b6044820152606401610a20565b6001600160a01b03831660009081526010602052604090206002015480821115614c1f57614bbc601154614bb784846141a7565b614697565b601155614bd2670de0b6b3a764000060326156c7565b6011541115614c1a5760405162461bcd60e51b815260206004820152601460248201527311549497d3505617d513d5105317d5d15251d21560621b6044820152606401610a20565b614c3b565b80821015614c3b57614c3760115461185583856141a7565b6011555b6001600160a01b03841660009081526010602052604090206002810183905560030180549084905580841115614c8457614c7f8533614c7a87856141a7565b61472d565b614ca7565b80841015614ca7576000614c9882866141a7565b9050614ca5863383614217565b505b5050505050565b600080828410614ccd57614cc2838561584f565b600091509150614cde565b614cd7848461584f565b6001915091505b9250929050565b611b6a82308361422b565b30600090815260076020526040902054811115614d465760405162461bcd60e51b815260206004820152601460248201527311549497d25394d551919250d251539517d0905360621b6044820152606401610a20565b30600090815260076020526040902054614d6090826141a7565b30600090815260076020526040902055600954614d7d90826141a7565b60095560405181815260009030907fddf252ad1be2c89b69c2b068fc378daa952ba7f163c4a11628f55a4df523b3ef906020015b60405180910390a350565b6000670de0b6b3a7640000614dd083614dda565b610add91906156c7565b6000610add670de0b6b3a76400008361574e565b60008281614dfd60028561588f565b614e0f57670de0b6b3a7640000614e11565b815b9050614e1e60028561574e565b93505b83156116df57614e3182836140c2565b9150614e3e60028561588f565b15614e5057614e4d81836140c2565b90505b614e5b60028561574e565b9350614e21565b6000828180614e7987670de0b6b3a7640000614cae565b9092509050670de0b6b3a764000080600060015b888410614f43576000614ea8670de0b6b3a7640000836156c7565b9050600080614ec88a614ec385670de0b6b3a76400006141a7565b614cae565b91509150614eda87610e3c848c6140c2565b9650614ee687846143f0565b965086614ef557505050614f43565b8715614eff579315935b8015614f09579315935b8415614f2057614f1986886141a7565b9550614f2d565b614f2a8688614697565b95505b5050508080614f3b90615834565b915050614e8d565b50909998505050505050505050565b6000614fa7826040518060400160405280602081526020017f5361666545524332303a206c6f772d6c6576656c2063616c6c206661696c6564815250856001600160a01b03166150bf9092919063ffffffff16565b8051909150156140055780806020019051810190614fc5919061577a565b6140055760405162461bcd60e51b815260206004820152602a60248201527f5361666545524332303a204552433230206f7065726174696f6e20646964206e6044820152691bdd081cdd58d8d9595960b21b6064820152608401610a20565b3060009081526007602052604090205461503e9082614697565b3060009081526007602052604090205560095461505b9082614697565b60095560405181815230906000907fddf252ad1be2c89b69c2b068fc378daa952ba7f163c4a11628f55a4df523b3ef90602001614db1565b611b6a30838361422b565b61486f846323b872dd60e01b858585604051602401614660939291906157e1565b60606116df848460008585843b6151185760405162461bcd60e51b815260206004820152601d60248201527f416464726573733a2063616c6c20746f206e6f6e2d636f6e74726163740000006044820152606401610a20565b600080866001600160a01b0316858760405161513491906158a3565b60006040518083038185875af1925050503d8060008114615171576040519150601f19603f3d011682016040523d82523d6000602084013e615176565b606091505b509150915061462982828660608315615190575081610a81565b8251156151a05782518084602001fd5b8160405162461bcd60e51b8152600401610a2091906151e6565b60005b838110156151d55781810151838201526020016151bd565b8381111561486f5750506000910152565b60208152600082518060208401526152058160408501602087016151ba565b601f01601f19169190910160400192915050565b80356001600160a01b038116811461230d57600080fd5b60008060006060848603121561524557600080fd5b61524e84615219565b925061525c60208501615219565b9150604084013590509250925092565b6000806040838503121561527f57600080fd5b61528883615219565b946020939093013593505050565b60008060008060008060c087890312156152af57600080fd5b6152b887615219565b955060208701359450604087013593506152d460608801615219565b92506080870135915060a087013590509295509295509295565b6000806040838503121561530157600080fd5b50508035926020909101359150565b6000806000806080858703121561532657600080fd5b61532f85615219565b935061533d60208601615219565b93969395505050506040820135916060013590565b60006020828403121561536457600080fd5b610a8182615219565b60006020828403121561537f57600080fd5b5035919050565b634e487b7160e01b600052604160045260246000fd5b600080600060c084860312156153b157600080fd5b84601f8501126153c057600080fd5b6040516080810181811067ffffffffffffffff821117156153e3576153e3615386565b6040528060808601878111156153f857600080fd5b865b818110156154125780358352602092830192016153fa565b509197913596505060a094909401359392505050565b600081518084526020808501945080840160005b838110156154615781516001600160a01b03168752958201959082019060010161543c565b509495945050505050565b602081526000610a816020830184615428565b6040815260006154926040830185615428565b82810360208481019190915284518083528582019282019060005b818110156154c9578451835293830193918301916001016154ad565b5090979650505050505050565b8015158114613d8c57600080fd5b803561230d816154d6565b8060408101831015610add57600080fd5b600080600080600080600080610120898b03121561551d57600080fd5b61552689615219565b975061553460208a01615219565b9650604089013567ffffffffffffffff8082111561555157600080fd5b818b0191508b601f83011261556557600080fd5b81358181111561557457600080fd5b8c60208260051b850101111561558957600080fd5b6020830198508097505050506155a160608a016154e4565b93506155af60808a016154e4565b92506155be8a60a08b016154ef565b91506155cd8a60e08b016154ef565b90509295985092959890939650565b60008060e083850312156155ef57600080fd5b606083018481111561560057600080fd5b8392508460e08501111561561357600080fd5b809150509250929050565b6000806040838503121561563157600080fd5b61563a83615219565b915061564860208401615219565b90509250929050565b600181811c9082168061566557607f821691505b6020821081141561568657634e487b7160e01b600052602260045260246000fd5b50919050565b6020808252600b908201526a4552525f5245454e54525960a81b604082015260600190565b634e487b7160e01b600052601160045260246000fd5b60008160001904831182151516156156e1576156e16156b1565b500290565b60208082526011908201527011549497d393d517d19253905312569151607a1b604082015260600190565b6020808252600d908201526c11549497d31253525517d3d555609a1b604082015260600190565b634e487b7160e01b600052601260045260246000fd5b60008261575d5761575d615738565b500490565b60008219821115615775576157756156b1565b500190565b60006020828403121561578c57600080fd5b8151610a81816154d6565b6020808252600b908201526a4552525f4d494e5f46454560a81b604082015260600190565b6020808252600b908201526a4552525f4d41585f46454560a81b604082015260600190565b6001600160a01b039384168152919092166020820152604081019190915260600190565b60006020828403121561581757600080fd5b5051919050565b634e487b7160e01b600052603260045260246000fd5b6000600019821415615848576158486156b1565b5060010190565b600082821015615861576158616156b1565b500390565b6020808252600f908201526e08aa4a4be9a82a890be82a0a0a49eb608b1b604082015260600190565b60008261589e5761589e615738565b500690565b600082516158b58184602087016151ba565b919091019291505056fe15a8ca63e37b2cff1677df2b6b82d36fcf8a524228bd7a4b4d02d107c28c1e8a8c5be1e5ebec7d5bd14f71427d1e84f3dd0314c0f7b2291e5b200ac8c7c3b925a26469706673582212204c24984971ddd07e6ac2cc1a88a65695ab47060970370c602a0c4ddf9efd766164736f6c634300080c0033",
  "linkReferences": {},
  "deployedLinkReferences": {}
}