{
  "_format": "hh-sol-artifact-1",
  "contractName": "BPool",
  "sourceName": "contracts/pools/balancer/BPool.sol",
  "abi": [
    {
      "anonymous": false,
      "inputs": [
        {
          "indexed": true,
          "internalType": "address",
          "name": "src",
          "type": "address"
        },
        {
          "indexed": true,
          "internalType": "address",
          "name": "dst",
          "type": "address"
        },
        {
          "indexed": false,
          "internalType": "uint256",
          "name": "amt",
          "type": "uint256"
        }
      ],
      "name": "Approval",
      "type": "event"
    },
    {
      "anonymous": false,
      "inputs": [
        {
          "indexed": false,
          "internalType": "address",
          "name": "to",
          "type": "address"
        },
        {
          "indexed": false,
          "internalType": "address",
          "name": "token",
          "type": "address"
        },
        {
          "indexed": false,
          "internalType": "uint256",
          "name": "amount",
          "type": "uint256"
        }
      ],
      "name": "ConsumeMarketFee",
      "type": "event"
    },
    {
      "anonymous": false,
      "inputs": [
        {
          "indexed": false,
          "internalType": "uint256",
          "name": "bptAmount",
          "type": "uint256"
        }
      ],
      "name": "LOG_BPT",
      "type": "event"
    },
    {
      "anonymous": false,
      "inputs": [
        {
          "indexed": false,
          "internalType": "uint256",
          "name": "bptAmount",
          "type": "uint256"
        }
      ],
      "name": "LOG_BPT_SS",
      "type": "event"
    },
    {
      "anonymous": false,
      "inputs": [
        {
          "indexed": true,
          "internalType": "bytes4",
          "name": "sig",
          "type": "bytes4"
        },
        {
          "indexed": true,
          "internalType": "address",
          "name": "caller",
          "type": "address"
        },
        {
          "indexed": false,
          "internalType": "uint256",
          "name": "timestamp",
          "type": "uint256"
        },
        {
          "indexed": false,
          "internalType": "bytes",
          "name": "data",
          "type": "bytes"
        }
      ],
      "name": "LOG_CALL",
      "type": "event"
    },
    {
      "anonymous": false,
      "inputs": [
        {
          "indexed": true,
          "internalType": "address",
          "name": "caller",
          "type": "address"
        },
        {
          "indexed": true,
          "internalType": "address",
          "name": "tokenOut",
          "type": "address"
        },
        {
          "indexed": false,
          "internalType": "uint256",
          "name": "tokenAmountOut",
          "type": "uint256"
        },
        {
          "indexed": false,
          "internalType": "uint256",
          "name": "timestamp",
          "type": "uint256"
        }
      ],
      "name": "LOG_EXIT",
      "type": "event"
    },
    {
      "anonymous": false,
      "inputs": [
        {
          "indexed": true,
          "internalType": "address",
          "name": "caller",
          "type": "address"
        },
        {
          "indexed": true,
          "internalType": "address",
          "name": "tokenIn",
          "type": "address"
        },
        {
          "indexed": false,
          "internalType": "uint256",
          "name": "tokenAmountIn",
          "type": "uint256"
        },
        {
          "indexed": false,
          "internalType": "uint256",
          "name": "timestamp",
          "type": "uint256"
        }
      ],
      "name": "LOG_JOIN",
      "type": "event"
    },
    {
      "anonymous": false,
      "inputs": [
        {
          "indexed": true,
          "internalType": "address",
          "name": "caller",
          "type": "address"
        },
        {
          "indexed": true,
          "internalType": "address",
          "name": "baseToken",
          "type": "address"
        },
        {
          "indexed": false,
          "internalType": "uint256",
          "name": "baseTokenAmountIn",
          "type": "uint256"
        },
        {
          "indexed": false,
          "internalType": "uint256",
          "name": "baseTokenWeight",
          "type": "uint256"
        },
        {
          "indexed": true,
          "internalType": "address",
          "name": "datatoken",
          "type": "address"
        },
        {
          "indexed": false,
          "internalType": "uint256",
          "name": "datatokenAmountIn",
          "type": "uint256"
        },
        {
          "indexed": false,
          "internalType": "uint256",
          "name": "datatokenWeight",
          "type": "uint256"
        }
      ],
      "name": "LOG_SETUP",
      "type": "event"
    },
    {
      "anonymous": false,
      "inputs": [
        {
          "indexed": true,
          "internalType": "address",
          "name": "caller",
          "type": "address"
        },
        {
          "indexed": true,
          "internalType": "address",
          "name": "tokenIn",
          "type": "address"
        },
        {
          "indexed": true,
          "internalType": "address",
          "name": "tokenOut",
          "type": "address"
        },
        {
          "indexed": false,
          "internalType": "uint256",
          "name": "tokenAmountIn",
          "type": "uint256"
        },
        {
          "indexed": false,
          "internalType": "uint256",
          "name": "tokenAmountOut",
          "type": "uint256"
        },
        {
          "indexed": false,
          "internalType": "uint256",
          "name": "timestamp",
          "type": "uint256"
        },
        {
          "indexed": false,
          "internalType": "uint256",
          "name": "inBalance",
          "type": "uint256"
        },
        {
          "indexed": false,
          "internalType": "uint256",
          "name": "outBalance",
          "type": "uint256"
        },
        {
          "indexed": false,
          "internalType": "uint256",
          "name": "newSpotPrice",
          "type": "uint256"
        }
      ],
      "name": "LOG_SWAP",
      "type": "event"
    },
    {
      "anonymous": false,
      "inputs": [
        {
          "indexed": false,
          "internalType": "address",
          "name": "caller",
          "type": "address"
        },
        {
          "indexed": false,
          "internalType": "address",
          "name": "OPCWallet",
          "type": "address"
        },
        {
          "indexed": false,
          "internalType": "address",
          "name": "token",
          "type": "address"
        },
        {
          "indexed": false,
          "internalType": "uint256",
          "name": "amount",
          "type": "uint256"
        }
      ],
      "name": "OPCFee",
      "type": "event"
    },
    {
      "anonymous": false,
      "inputs": [
        {
          "indexed": false,
          "internalType": "address",
          "name": "caller",
          "type": "address"
        },
        {
          "indexed": false,
          "internalType": "address",
          "name": "marketAddress",
          "type": "address"
        },
        {
          "indexed": false,
          "internalType": "address",
          "name": "token",
          "type": "address"
        },
        {
          "indexed": false,
          "internalType": "uint256",
          "name": "amount",
          "type": "uint256"
        }
      ],
      "name": "PublishMarketFee",
      "type": "event"
    },
    {
      "anonymous": false,
      "inputs": [
        {
          "indexed": false,
          "internalType": "address",
          "name": "caller",
          "type": "address"
        },
        {
          "indexed": false,
          "internalType": "address",
          "name": "newMarketCollector",
          "type": "address"
        },
        {
          "indexed": false,
          "internalType": "uint256",
          "name": "swapFee",
          "type": "uint256"
        }
      ],
      "name": "PublishMarketFeeChanged",
      "type": "event"
    },
    {
      "anonymous": false,
      "inputs": [
        {
          "indexed": false,
          "internalType": "uint256",
          "name": "LPFeeAmount",
          "type": "uint256"
        },
        {
          "indexed": false,
          "internalType": "uint256",
          "name": "oceanFeeAmount",
          "type": "uint256"
        },
        {
          "indexed": false,
          "internalType": "uint256",
          "name": "marketFeeAmount",
          "type": "uint256"
        },
        {
          "indexed": false,
          "internalType": "uint256",
          "name": "consumeMarketFeeAmount",
          "type": "uint256"
        },
        {
          "indexed": false,
          "internalType": "address",
          "name": "tokenFeeAddress",
          "type": "address"
        }
      ],
      "name": "SWAP_FEES",
      "type": "event"
    },
    {
      "anonymous": false,
      "inputs": [
        {
          "indexed": false,
          "internalType": "address",
          "name": "caller",
          "type": "address"
        },
        {
          "indexed": false,
          "internalType": "uint256",
          "name": "amount",
          "type": "uint256"
        }
      ],
      "name": "SwapFeeChanged",
      "type": "event"
    },
    {
      "anonymous": false,
      "inputs": [
        {
          "indexed": true,
          "internalType": "address",
          "name": "src",
          "type": "address"
        },
        {
          "indexed": true,
          "internalType": "address",
          "name": "dst",
          "type": "address"
        },
        {
          "indexed": false,
          "internalType": "uint256",
          "name": "amt",
          "type": "uint256"
        }
      ],
      "name": "Transfer",
      "type": "event"
    },
    {
      "inputs": [],
      "name": "BONE",
      "outputs": [
        {
          "internalType": "uint256",
          "name": "",
          "type": "uint256"
        }
      ],
      "stateMutability": "view",
      "type": "function"
    },
    {
      "inputs": [],
      "name": "BPOW_PRECISION",
      "outputs": [
        {
          "internalType": "uint256",
          "name": "",
          "type": "uint256"
        }
      ],
      "stateMutability": "view",
      "type": "function"
    },
    {
      "inputs": [],
      "name": "EXIT_FEE",
      "outputs": [
        {
          "internalType": "uint256",
          "name": "",
          "type": "uint256"
        }
      ],
      "stateMutability": "view",
      "type": "function"
    },
    {
      "inputs": [],
      "name": "INIT_POOL_SUPPLY",
      "outputs": [
        {
          "internalType": "uint256",
          "name": "",
          "type": "uint256"
        }
      ],
      "stateMutability": "view",
      "type": "function"
    },
    {
      "inputs": [],
      "name": "MAX_BOUND_TOKENS",
      "outputs": [
        {
          "internalType": "uint256",
          "name": "",
          "type": "uint256"
        }
      ],
      "stateMutability": "view",
      "type": "function"
    },
    {
      "inputs": [],
      "name": "MAX_BPOW_BASE",
      "outputs": [
        {
          "internalType": "uint256",
          "name": "",
          "type": "uint256"
        }
      ],
      "stateMutability": "view",
      "type": "function"
    },
    {
      "inputs": [],
      "name": "MAX_FEE",
      "outputs": [
        {
          "internalType": "uint256",
          "name": "",
          "type": "uint256"
        }
      ],
      "stateMutability": "view",
      "type": "function"
    },
    {
      "inputs": [],
      "name": "MAX_IN_RATIO",
      "outputs": [
        {
          "internalType": "uint256",
          "name": "",
          "type": "uint256"
        }
      ],
      "stateMutability": "view",
      "type": "function"
    },
    {
      "inputs": [],
      "name": "MAX_OUT_RATIO",
      "outputs": [
        {
          "internalType": "uint256",
          "name": "",
          "type": "uint256"
        }
      ],
      "stateMutability": "view",
      "type": "function"
    },
    {
      "inputs": [],
      "name": "MAX_TOTAL_WEIGHT",
      "outputs": [
        {
          "internalType": "uint256",
          "name": "",
          "type": "uint256"
        }
      ],
      "stateMutability": "view",
      "type": "function"
    },
    {
      "inputs": [],
      "name": "MAX_WEIGHT",
      "outputs": [
        {
          "internalType": "uint256",
          "name": "",
          "type": "uint256"
        }
      ],
      "stateMutability": "view",
      "type": "function"
    },
    {
      "inputs": [],
      "name": "MIN_BALANCE",
      "outputs": [
        {
          "internalType": "uint256",
          "name": "",
          "type": "uint256"
        }
      ],
      "stateMutability": "view",
      "type": "function"
    },
    {
      "inputs": [],
      "name": "MIN_BOUND_TOKENS",
      "outputs": [
        {
          "internalType": "uint256",
          "name": "",
          "type": "uint256"
        }
      ],
      "stateMutability": "view",
      "type": "function"
    },
    {
      "inputs": [],
      "name": "MIN_BPOW_BASE",
      "outputs": [
        {
          "internalType": "uint256",
          "name": "",
          "type": "uint256"
        }
      ],
      "stateMutability": "view",
      "type": "function"
    },
    {
      "inputs": [],
      "name": "MIN_FEE",
      "outputs": [
        {
          "internalType": "uint256",
          "name": "",
          "type": "uint256"
        }
      ],
      "stateMutability": "view",
      "type": "function"
    },
    {
      "inputs": [],
      "name": "MIN_WEIGHT",
      "outputs": [
        {
          "internalType": "uint256",
          "name": "",
          "type": "uint256"
        }
      ],
      "stateMutability": "view",
      "type": "function"
    },
    {
      "inputs": [],
      "name": "_opcCollector",
      "outputs": [
        {
          "internalType": "address",
          "name": "",
          "type": "address"
        }
      ],
      "stateMutability": "view",
      "type": "function"
    },
    {
      "inputs": [],
      "name": "_publishMarketCollector",
      "outputs": [
        {
          "internalType": "address",
          "name": "",
          "type": "address"
        }
      ],
      "stateMutability": "view",
      "type": "function"
    },
    {
      "inputs": [],
      "name": "_swapPublishMarketFee",
      "outputs": [
        {
          "internalType": "uint256",
          "name": "",
          "type": "uint256"
        }
      ],
      "stateMutability": "view",
      "type": "function"
    },
    {
      "inputs": [
        {
          "internalType": "address",
          "name": "src",
          "type": "address"
        },
        {
          "internalType": "address",
          "name": "dst",
          "type": "address"
        }
      ],
      "name": "allowance",
      "outputs": [
        {
          "internalType": "uint256",
          "name": "",
          "type": "uint256"
        }
      ],
      "stateMutability": "view",
      "type": "function"
    },
    {
      "inputs": [
        {
          "internalType": "address",
          "name": "dst",
          "type": "address"
        },
        {
          "internalType": "uint256",
          "name": "amt",
          "type": "uint256"
        }
      ],
      "name": "approve",
      "outputs": [
        {
          "internalType": "bool",
          "name": "",
          "type": "bool"
        }
      ],
      "stateMutability": "nonpayable",
      "type": "function"
    },
    {
      "inputs": [
        {
          "internalType": "address",
          "name": "whom",
          "type": "address"
        }
      ],
      "name": "balanceOf",
      "outputs": [
        {
          "internalType": "uint256",
          "name": "",
          "type": "uint256"
        }
      ],
      "stateMutability": "view",
      "type": "function"
    },
    {
      "inputs": [
        {
          "internalType": "uint256[4]",
          "name": "data",
          "type": "uint256[4]"
        },
        {
          "internalType": "uint256",
          "name": "tokenAmountOut",
          "type": "uint256"
        },
        {
          "internalType": "uint256",
          "name": "_consumeMarketSwapFee",
          "type": "uint256"
        }
      ],
      "name": "calcInGivenOut",
      "outputs": [
        {
          "internalType": "uint256",
          "name": "tokenAmountIn",
          "type": "uint256"
        },
        {
          "internalType": "uint256",
          "name": "tokenAmountInBalance",
          "type": "uint256"
        },
        {
          "components": [
            {
              "internalType": "uint256",
              "name": "LPFee",
              "type": "uint256"
            },
            {
              "internalType": "uint256",
              "name": "oceanFeeAmount",
              "type": "uint256"
            },
            {
              "internalType": "uint256",
              "name": "publishMarketFeeAmount",
              "type": "uint256"
            },
            {
              "internalType": "uint256",
              "name": "consumeMarketFee",
              "type": "uint256"
            }
          ],
          "internalType": "struct BMath.swapfees",
          "name": "_swapfees",
          "type": "tuple"
        }
      ],
      "stateMutability": "view",
      "type": "function"
    },
    {
      "inputs": [
        {
          "internalType": "uint256[4]",
          "name": "data",
          "type": "uint256[4]"
        },
        {
          "internalType": "uint256",
          "name": "tokenAmountIn",
          "type": "uint256"
        },
        {
          "internalType": "uint256",
          "name": "_consumeMarketSwapFee",
          "type": "uint256"
        }
      ],
      "name": "calcOutGivenIn",
      "outputs": [
        {
          "internalType": "uint256",
          "name": "tokenAmountOut",
          "type": "uint256"
        },
        {
          "internalType": "uint256",
          "name": "balanceInToAdd",
          "type": "uint256"
        },
        {
          "components": [
            {
              "internalType": "uint256",
              "name": "LPFee",
              "type": "uint256"
            },
            {
              "internalType": "uint256",
              "name": "oceanFeeAmount",
              "type": "uint256"
            },
            {
              "internalType": "uint256",
              "name": "publishMarketFeeAmount",
              "type": "uint256"
            },
            {
              "internalType": "uint256",
              "name": "consumeMarketFee",
              "type": "uint256"
            }
          ],
          "internalType": "struct BMath.swapfees",
          "name": "_swapfees",
          "type": "tuple"
        }
      ],
      "stateMutability": "view",
      "type": "function"
    },
    {
      "inputs": [
        {
          "internalType": "address",
          "name": "tokenOut",
          "type": "address"
        },
        {
          "internalType": "uint256",
          "name": "tokenAmountOut",
          "type": "uint256"
        }
      ],
      "name": "calcPoolInSingleOut",
      "outputs": [
        {
          "internalType": "uint256",
          "name": "poolAmountIn",
          "type": "uint256"
        }
      ],
      "stateMutability": "view",
      "type": "function"
    },
    {
      "inputs": [
        {
          "internalType": "address",
          "name": "tokenIn",
          "type": "address"
        },
        {
          "internalType": "uint256",
          "name": "tokenAmountIn",
          "type": "uint256"
        }
      ],
      "name": "calcPoolOutSingleIn",
      "outputs": [
        {
          "internalType": "uint256",
          "name": "poolAmountOut",
          "type": "uint256"
        }
      ],
      "stateMutability": "view",
      "type": "function"
    },
    {
      "inputs": [
        {
          "internalType": "address",
          "name": "tokenIn",
          "type": "address"
        },
        {
          "internalType": "uint256",
          "name": "poolAmountOut",
          "type": "uint256"
        }
      ],
      "name": "calcSingleInPoolOut",
      "outputs": [
        {
          "internalType": "uint256",
          "name": "tokenAmountIn",
          "type": "uint256"
        }
      ],
      "stateMutability": "view",
      "type": "function"
    },
    {
      "inputs": [
        {
          "internalType": "address",
          "name": "tokenOut",
          "type": "address"
        },
        {
          "internalType": "uint256",
          "name": "poolAmountIn",
          "type": "uint256"
        }
      ],
      "name": "calcSingleOutPoolIn",
      "outputs": [
        {
          "internalType": "uint256",
          "name": "tokenAmountOut",
          "type": "uint256"
        }
      ],
      "stateMutability": "view",
      "type": "function"
    },
    {
      "inputs": [],
      "name": "collectMarketFee",
      "outputs": [],
      "stateMutability": "nonpayable",
      "type": "function"
    },
    {
      "inputs": [],
      "name": "collectOPC",
      "outputs": [],
      "stateMutability": "nonpayable",
      "type": "function"
    },
    {
      "inputs": [
        {
          "internalType": "address",
          "name": "",
          "type": "address"
        }
      ],
      "name": "communityFees",
      "outputs": [
        {
          "internalType": "uint256",
          "name": "",
          "type": "uint256"
        }
      ],
      "stateMutability": "view",
      "type": "function"
    },
    {
      "inputs": [],
      "name": "decimals",
      "outputs": [
        {
          "internalType": "uint8",
          "name": "",
          "type": "uint8"
        }
      ],
      "stateMutability": "view",
      "type": "function"
    },
    {
      "inputs": [
        {
          "internalType": "address",
          "name": "dst",
          "type": "address"
        },
        {
          "internalType": "uint256",
          "name": "amt",
          "type": "uint256"
        }
      ],
      "name": "decreaseApproval",
      "outputs": [
        {
          "internalType": "bool",
          "name": "",
          "type": "bool"
        }
      ],
      "stateMutability": "nonpayable",
      "type": "function"
    },
    {
      "inputs": [
        {
          "internalType": "uint256",
          "name": "poolAmountIn",
          "type": "uint256"
        },
        {
          "internalType": "uint256",
          "name": "minAmountOut",
          "type": "uint256"
        }
      ],
      "name": "exitswapPoolAmountIn",
      "outputs": [
        {
          "internalType": "uint256",
          "name": "tokenAmountOut",
          "type": "uint256"
        }
      ],
      "stateMutability": "nonpayable",
      "type": "function"
    },
    {
      "inputs": [
        {
          "internalType": "address",
          "name": "tokenIn",
          "type": "address"
        },
        {
          "internalType": "address",
          "name": "tokenOut",
          "type": "address"
        },
        {
          "internalType": "uint256",
          "name": "tokenAmountOut",
          "type": "uint256"
        },
        {
          "internalType": "uint256",
          "name": "_consumeMarketSwapFee",
          "type": "uint256"
        }
      ],
      "name": "getAmountInExactOut",
      "outputs": [
        {
          "internalType": "uint256",
          "name": "tokenAmountIn",
          "type": "uint256"
        },
        {
          "internalType": "uint256",
          "name": "lpFeeAmount",
          "type": "uint256"
        },
        {
          "internalType": "uint256",
          "name": "oceanFeeAmount",
          "type": "uint256"
        },
        {
          "internalType": "uint256",
          "name": "publishMarketSwapFeeAmount",
          "type": "uint256"
        },
        {
          "internalType": "uint256",
          "name": "consumeMarketSwapFeeAmount",
          "type": "uint256"
        }
      ],
      "stateMutability": "view",
      "type": "function"
    },
    {
      "inputs": [
        {
          "internalType": "address",
          "name": "tokenIn",
          "type": "address"
        },
        {
          "internalType": "address",
          "name": "tokenOut",
          "type": "address"
        },
        {
          "internalType": "uint256",
          "name": "tokenAmountIn",
          "type": "uint256"
        },
        {
          "internalType": "uint256",
          "name": "_consumeMarketSwapFee",
          "type": "uint256"
        }
      ],
      "name": "getAmountOutExactIn",
      "outputs": [
        {
          "internalType": "uint256",
          "name": "tokenAmountOut",
          "type": "uint256"
        },
        {
          "internalType": "uint256",
          "name": "lpFeeAmount",
          "type": "uint256"
        },
        {
          "internalType": "uint256",
          "name": "oceanFeeAmount",
          "type": "uint256"
        },
        {
          "internalType": "uint256",
          "name": "publishMarketSwapFeeAmount",
          "type": "uint256"
        },
        {
          "internalType": "uint256",
          "name": "consumeMarketSwapFeeAmount",
          "type": "uint256"
        }
      ],
      "stateMutability": "view",
      "type": "function"
    },
    {
      "inputs": [
        {
          "internalType": "address",
          "name": "token",
          "type": "address"
        }
      ],
      "name": "getBalance",
      "outputs": [
        {
          "internalType": "uint256",
          "name": "",
          "type": "uint256"
        }
      ],
      "stateMutability": "view",
      "type": "function"
    },
    {
      "inputs": [],
      "name": "getBaseTokenAddress",
      "outputs": [
        {
          "internalType": "address",
          "name": "",
          "type": "address"
        }
      ],
      "stateMutability": "view",
      "type": "function"
    },
    {
      "inputs": [],
      "name": "getController",
      "outputs": [
        {
          "internalType": "address",
          "name": "",
          "type": "address"
        }
      ],
      "stateMutability": "view",
      "type": "function"
    },
    {
      "inputs": [],
      "name": "getCurrentMarketFees",
      "outputs": [
        {
          "internalType": "address[]",
          "name": "",
          "type": "address[]"
        },
        {
          "internalType": "uint256[]",
          "name": "",
          "type": "uint256[]"
        }
      ],
      "stateMutability": "view",
      "type": "function"
    },
    {
      "inputs": [],
      "name": "getCurrentOPCFees",
      "outputs": [
        {
          "internalType": "address[]",
          "name": "",
          "type": "address[]"
        },
        {
          "internalType": "uint256[]",
          "name": "",
          "type": "uint256[]"
        }
      ],
      "stateMutability": "view",
      "type": "function"
    },
    {
      "inputs": [],
      "name": "getCurrentTokens",
      "outputs": [
        {
          "internalType": "address[]",
          "name": "tokens",
          "type": "address[]"
        }
      ],
      "stateMutability": "view",
      "type": "function"
    },
    {
      "inputs": [],
      "name": "getDatatokenAddress",
      "outputs": [
        {
          "internalType": "address",
          "name": "",
          "type": "address"
        }
      ],
      "stateMutability": "view",
      "type": "function"
    },
    {
      "inputs": [
        {
          "internalType": "address",
          "name": "token",
          "type": "address"
        }
      ],
      "name": "getDenormalizedWeight",
      "outputs": [
        {
          "internalType": "uint256",
          "name": "",
          "type": "uint256"
        }
      ],
      "stateMutability": "view",
      "type": "function"
    },
    {
      "inputs": [],
      "name": "getFinalTokens",
      "outputs": [
        {
          "internalType": "address[]",
          "name": "tokens",
          "type": "address[]"
        }
      ],
      "stateMutability": "view",
      "type": "function"
    },
    {
      "inputs": [],
      "name": "getId",
      "outputs": [
        {
          "internalType": "uint8",
          "name": "",
          "type": "uint8"
        }
      ],
      "stateMutability": "pure",
      "type": "function"
    },
    {
      "inputs": [],
      "name": "getMarketFee",
      "outputs": [
        {
          "internalType": "uint256",
          "name": "",
          "type": "uint256"
        }
      ],
      "stateMutability": "view",
      "type": "function"
    },
    {
      "inputs": [
        {
          "internalType": "address",
          "name": "token",
          "type": "address"
        }
      ],
      "name": "getNormalizedWeight",
      "outputs": [
        {
          "internalType": "uint256",
          "name": "",
          "type": "uint256"
        }
      ],
      "stateMutability": "view",
      "type": "function"
    },
    {
      "inputs": [],
      "name": "getNumTokens",
      "outputs": [
        {
          "internalType": "uint256",
          "name": "",
          "type": "uint256"
        }
      ],
      "stateMutability": "view",
      "type": "function"
    },
    {
      "inputs": [],
      "name": "getOPCFee",
      "outputs": [
        {
          "internalType": "uint256",
          "name": "",
          "type": "uint256"
        }
      ],
      "stateMutability": "view",
      "type": "function"
    },
    {
      "inputs": [
        {
          "internalType": "address",
          "name": "tokenIn",
          "type": "address"
        },
        {
          "internalType": "address",
          "name": "tokenOut",
          "type": "address"
        },
        {
          "internalType": "uint256",
          "name": "_consumeMarketSwapFee",
          "type": "uint256"
        }
      ],
      "name": "getSpotPrice",
      "outputs": [
        {
          "internalType": "uint256",
          "name": "spotPrice",
          "type": "uint256"
        }
      ],
      "stateMutability": "view",
      "type": "function"
    },
    {
      "inputs": [],
      "name": "getSwapFee",
      "outputs": [
        {
          "internalType": "uint256",
          "name": "",
          "type": "uint256"
        }
      ],
      "stateMutability": "view",
      "type": "function"
    },
    {
      "inputs": [],
      "name": "getTotalDenormalizedWeight",
      "outputs": [
        {
          "internalType": "uint256",
          "name": "",
          "type": "uint256"
        }
      ],
      "stateMutability": "view",
      "type": "function"
    },
    {
      "inputs": [
        {
          "internalType": "address",
          "name": "dst",
          "type": "address"
        },
        {
          "internalType": "uint256",
          "name": "amt",
          "type": "uint256"
        }
      ],
      "name": "increaseApproval",
      "outputs": [
        {
          "internalType": "bool",
          "name": "",
          "type": "bool"
        }
      ],
      "stateMutability": "nonpayable",
      "type": "function"
    },
    {
      "inputs": [
        {
          "internalType": "address",
          "name": "controller",
          "type": "address"
        },
        {
          "internalType": "address",
          "name": "factory",
          "type": "address"
        },
        {
          "internalType": "uint256[]",
          "name": "swapFees",
          "type": "uint256[]"
        },
        {
          "internalType": "bool",
          "name": "publicSwap",
          "type": "bool"
        },
        {
          "internalType": "bool",
          "name": "finalized",
          "type": "bool"
        },
        {
          "internalType": "address[2]",
          "name": "tokens",
          "type": "address[2]"
        },
        {
          "internalType": "address[2]",
          "name": "feeCollectors",
          "type": "address[2]"
        }
      ],
      "name": "initialize",
      "outputs": [
        {
          "internalType": "bool",
          "name": "",
          "type": "bool"
        }
      ],
      "stateMutability": "nonpayable",
      "type": "function"
    },
    {
      "inputs": [
        {
          "internalType": "address",
          "name": "t",
          "type": "address"
        }
      ],
      "name": "isBound",
      "outputs": [
        {
          "internalType": "bool",
          "name": "",
          "type": "bool"
        }
      ],
      "stateMutability": "view",
      "type": "function"
    },
    {
      "inputs": [],
      "name": "isFinalized",
      "outputs": [
        {
          "internalType": "bool",
          "name": "",
          "type": "bool"
        }
      ],
      "stateMutability": "view",
      "type": "function"
    },
    {
      "inputs": [],
      "name": "isInitialized",
      "outputs": [
        {
          "internalType": "bool",
          "name": "",
          "type": "bool"
        }
      ],
      "stateMutability": "view",
      "type": "function"
    },
    {
      "inputs": [],
      "name": "isPublicSwap",
      "outputs": [
        {
          "internalType": "bool",
          "name": "",
          "type": "bool"
        }
      ],
      "stateMutability": "view",
      "type": "function"
    },
    {
      "inputs": [
        {
          "internalType": "uint256",
          "name": "tokenAmountIn",
          "type": "uint256"
        },
        {
          "internalType": "uint256",
          "name": "minPoolAmountOut",
          "type": "uint256"
        }
      ],
      "name": "joinswapExternAmountIn",
      "outputs": [
        {
          "internalType": "uint256",
          "name": "poolAmountOut",
          "type": "uint256"
        }
      ],
      "stateMutability": "nonpayable",
      "type": "function"
    },
    {
      "inputs": [],
      "name": "name",
      "outputs": [
        {
          "internalType": "string",
          "name": "",
          "type": "string"
        }
      ],
      "stateMutability": "view",
      "type": "function"
    },
    {
      "inputs": [
        {
          "internalType": "address",
          "name": "",
          "type": "address"
        }
      ],
      "name": "publishMarketFees",
      "outputs": [
        {
          "internalType": "uint256",
          "name": "",
          "type": "uint256"
        }
      ],
      "stateMutability": "view",
      "type": "function"
    },
    {
      "inputs": [
        {
          "internalType": "uint256",
          "name": "swapFee",
          "type": "uint256"
        }
      ],
      "name": "setSwapFee",
      "outputs": [],
      "stateMutability": "nonpayable",
      "type": "function"
    },
    {
      "inputs": [
        {
          "internalType": "address",
          "name": "datatokenAddress",
          "type": "address"
        },
        {
          "internalType": "uint256",
          "name": "datatokenAmount",
          "type": "uint256"
        },
        {
          "internalType": "uint256",
          "name": "datatokenWeight",
          "type": "uint256"
        },
        {
          "internalType": "address",
          "name": "baseTokenAddress",
          "type": "address"
        },
        {
          "internalType": "uint256",
          "name": "baseTokenAmount",
          "type": "uint256"
        },
        {
          "internalType": "uint256",
          "name": "baseTokenWeight",
          "type": "uint256"
        }
      ],
      "name": "setup",
      "outputs": [],
      "stateMutability": "nonpayable",
      "type": "function"
    },
    {
      "inputs": [
        {
          "internalType": "address[3]",
          "name": "tokenInOutMarket",
          "type": "address[3]"
        },
        {
          "internalType": "uint256[4]",
          "name": "amountsInOutMaxFee",
          "type": "uint256[4]"
        }
      ],
      "name": "swapExactAmountIn",
      "outputs": [
        {
          "internalType": "uint256",
          "name": "tokenAmountOut",
          "type": "uint256"
        },
        {
          "internalType": "uint256",
          "name": "spotPriceAfter",
          "type": "uint256"
        }
      ],
      "stateMutability": "nonpayable",
      "type": "function"
    },
    {
      "inputs": [
        {
          "internalType": "address[3]",
          "name": "tokenInOutMarket",
          "type": "address[3]"
        },
        {
          "internalType": "uint256[4]",
          "name": "amountsInOutMaxFee",
          "type": "uint256[4]"
        }
      ],
      "name": "swapExactAmountOut",
      "outputs": [
        {
          "internalType": "uint256",
          "name": "tokenAmountIn",
          "type": "uint256"
        },
        {
          "internalType": "uint256",
          "name": "spotPriceAfter",
          "type": "uint256"
        }
      ],
      "stateMutability": "nonpayable",
      "type": "function"
    },
    {
      "inputs": [],
      "name": "symbol",
      "outputs": [
        {
          "internalType": "string",
          "name": "",
          "type": "string"
        }
      ],
      "stateMutability": "view",
      "type": "function"
    },
    {
      "inputs": [],
      "name": "totalSupply",
      "outputs": [
        {
          "internalType": "uint256",
          "name": "",
          "type": "uint256"
        }
      ],
      "stateMutability": "view",
      "type": "function"
    },
    {
      "inputs": [
        {
          "internalType": "address",
          "name": "dst",
          "type": "address"
        },
        {
          "internalType": "uint256",
          "name": "amt",
          "type": "uint256"
        }
      ],
      "name": "transfer",
      "outputs": [
        {
          "internalType": "bool",
          "name": "",
          "type": "bool"
        }
      ],
      "stateMutability": "nonpayable",
      "type": "function"
    },
    {
      "inputs": [
        {
          "internalType": "address",
          "name": "src",
          "type": "address"
        },
        {
          "internalType": "address",
          "name": "dst",
          "type": "address"
        },
        {
          "internalType": "uint256",
          "name": "amt",
          "type": "uint256"
        }
      ],
      "name": "transferFrom",
      "outputs": [
        {
          "internalType": "bool",
          "name": "",
          "type": "bool"
        }
      ],
      "stateMutability": "nonpayable",
      "type": "function"
    },
    {
      "inputs": [
        {
          "internalType": "address",
          "name": "_newCollector",
          "type": "address"
        },
        {
          "internalType": "uint256",
          "name": "_newSwapFee",
          "type": "uint256"
        }
      ],
      "name": "updatePublishMarketFee",
      "outputs": [],
      "stateMutability": "nonpayable",
      "type": "function"
    }
  ],
  "bytecode": "0x60c0604052601360808190527f42616c616e63657220506f6f6c20546f6b656e0000000000000000000000000060a09081526200004091600a91906200008f565b506040805180820190915260038082526210941560ea1b60209092019182526200006d91600b916200008f565b50600c805460ff191660121790553480156200008857600080fd5b5062000172565b8280546200009d9062000135565b90600052602060002090601f016020900481019282620000c157600085556200010c565b82601f10620000dc57805160ff19168380011785556200010c565b828001600101855582156200010c579182015b828111156200010c578251825591602001919060010190620000ef565b506200011a9291506200011e565b5090565b5b808211156200011a57600081556001016200011f565b600181811c908216806200014a57607f821691505b602082108114156200016c57634e487b7160e01b600052602260045260246000fd5b50919050565b61588280620001826000396000f3fe608060405234801561001057600080fd5b506004361061041d5760003560e01c8063867378c51161022b578063c070a6d811610130578063d4cadf68116100b8578063ec09302111610087578063ec093021146108f2578063f1b8a9b7146108fa578063f8b2cb4f1461090d578063fde924f714610920578063ff9b18501461093257600080fd5b8063d4cadf681461089e578063d73dd623146108a6578063dd62ed3e146108b9578063e4a28a521461048457600080fd5b8063c6580d12116100ff578063c6580d1214610860578063c98a59cf14610868578063caa011481461087b578063cc77828d1461088e578063cd2ed8fb1461089657600080fd5b8063c070a6d81461081d578063c36596a6146104d7578063c421a3fc14610830578063c44a42831461085857600080fd5b8063a9059cbb116101b3578063ba019dab11610182578063ba019dab146107da578063bc063e1a146107e2578063bc694ea2146107ea578063be3bbd2e146107f2578063bf7db2361461080757600080fd5b8063a9059cbb146107b7578063ab77a2de146107ca578063b0e0d136146107d2578063b7b800a4146107d257600080fd5b80639381cd2b116101fa5780639381cd2b14610779578063948d8ce61461078157806395d89b4114610794578063992e2a921461079c578063a3b3a16d146107a457600080fd5b8063867378c514610744578063892cdf9e1461074c5780638d4e40831461075f578063936c34771461077157600080fd5b806334e19907116103315780635e123add116102b957806376c7a3c71161028857806376c7a3c7146106f85780637a284be4146107005780637c5918b31461070957806380ca7308146107295780638329ab331461073157600080fd5b80635e123add146106a1578063638c9e95146106a957806366188463146106bc57806370a08231146106cf57600080fd5b8063458c3fb511610300578063458c3fb5146106175780634df947d01461062857806351705cd0146106395780635c3f1532146106875780635d1ca6311461069a57600080fd5b806334e19907146105cc578063392e53cd146105df5780633950b3fd146105f1578063430ed5d01461060457600080fd5b806318f9722a116103b45780632eebd6ae116103835780632eebd6ae146105015780632f37b6241461053c57806330062192146105685780633018205f14610588578063313ce567146105b357600080fd5b806318f9722a146104c4578063218b5382146104d757806323b872dd146104e657806329b88a6a146104f957600080fd5b806309ef3f5b116103f057806309ef3f5b1461048c57806312989260146104a157806318160ddd146104b4578063189d00ca146104bc57600080fd5b806306fdde0314610422578063079492d414610440578063095ea7b31461046157806309a3bbe414610484575b600080fd5b61042a610945565b6040516104379190615133565b60405180910390f35b61045361044e36600461517d565b6109d7565b604051908152602001610437565b61047461046f3660046151b9565b610a6a565b6040519015158152602001610437565b610453610ac5565b61049f61049a3660046151e3565b610adb565b005b6104536104af36600461523b565b610d17565b600954610453565b61045361114e565b61049f6104d23660046151b9565b611165565b610453670de0b6b3a764000081565b6104746104f436600461517d565b6112dd565b61045361142c565b61051461050f36600461525d565b6114a6565b604080519586526020860194909452928401919091526060830152608082015260a001610437565b61047461054a36600461529f565b6001600160a01b031660009081526010602052604090205460ff1690565b61045361057636600461529f565b60056020526000908152604090205481565b600c546201000090046001600160a01b03165b6040516001600160a01b039091168152602001610437565b600c5460ff165b60405160ff9091168152602001610437565b61049f6105da3660046152ba565b61157e565b601254600160a01b900460ff16610474565b6104536105ff3660046151b9565b611679565b6104536106123660046151b9565b6116e1565b6003546001600160a01b031661059b565b6004546001600160a01b031661059b565b61064c6106473660046152e9565b611741565b6040805193845260208085019390935281518482015291810151606080850191909152918101516080840152015160a082015260c001610437565b600e5461059b906001600160a01b031681565b60016105ba565b600054610453565b600d5461059b906001600160a01b031681565b6104746106ca3660046151b9565b6118f4565b6104536106dd36600461529f565b6001600160a01b031660009081526007602052604090205490565b6104536119ca565b61045360005481565b61045361071736600461529f565b60066020526000908152604090205481565b61049f6119de565b61045361073f36600461523b565b611b70565b610453611f63565b61064c61075a3660046152e9565b611f7a565b600e54600160a01b900460ff16610474565b610453612112565b610453612144565b61045361078f36600461529f565b612157565b61042a6121ae565b6104536121bd565b6104536107b23660046151b9565b6121db565b6104746107c53660046151b9565b61223b565b61049f612251565b610453600281565b610453600181565b6104536123bf565b6104536123d2565b6107fa6123f1565b60405161043791906153b9565b61080f6124a4565b6040516104379291906153cc565b61047461082b36600461544d565b612614565b61084361083e366004615529565b612902565b60408051928352602083019190915201610437565b61080f6130d9565b610453600081565b610843610876366004615529565b61323e565b61051461088936600461525d565b61396f565b6107fa613a19565b600f54610453565b600154610453565b6104746108b43660046151b9565b613a44565b6104536108c736600461556b565b6001600160a01b03918216600090815260086020908152604080832093909416825291909152205490565b610453613ab7565b61045361090836600461529f565b613aca565b61045361091b36600461529f565b613b28565b600c54600160b01b900460ff16610474565b6104536109403660046151b9565b613b7b565b6060600a80546109549061559e565b80601f01602080910402602001604051908101604052809291908181526020018280546109809061559e565b80156109cd5780601f106109a2576101008083540402835291602001916109cd565b820191906000526020600020905b8154815290600101906020018083116109b057829003601f168201915b5050505050905090565b600c54600090610100900460ff1615610a0b5760405162461bcd60e51b8152600401610a02906155d9565b60405180910390fd5b610a1484613bdb565b610a1d83613bdb565b6001600160a01b03808516600090815260106020526040808220928616825290206003808301546002808501549284015490840154610a5e93919088613c36565b925050505b9392505050565b3360008181526008602090815260408083206001600160a01b0387168085529252808320859055519192909160008051602061582d83398151915290610ab39086815260200190565b60405180910390a35060015b92915050565b610ad8670de0b6b3a76400006032615614565b81565b600c54610100900460ff1615610b035760405162461bcd60e51b8152600401610a02906155d9565b600c805461010061ff001990911617908190556201000090046001600160a01b03163314610b6c5760405162461bcd60e51b815260206004820152601660248201527522a9292fa4a72b20a624a22fa1a7a72a2927a62622a960511b6044820152606401610a02565b6003546001600160a01b03878116911614610bc95760405162461bcd60e51b815260206004820152601d60248201527f4552525f494e56414c49445f44415441544f4b454e5f414444524553530000006044820152606401610a02565b6004546001600160a01b03848116911614610c265760405162461bcd60e51b815260206004820152601d60248201527f4552525f494e56414c49445f62617365546f6b656e5f414444524553530000006044820152606401610a02565b610c31868686613cc2565b604080518681524260208201526001600160a01b03881691339160008051602061580d833981519152910160405180910390a3610c6f838383613cc2565b604080518381524260208201526001600160a01b03851691339160008051602061580d833981519152910160405180910390a3610caa613eb1565b6040805183815260208101839052908101869052606081018590526001600160a01b03808816919085169033907fbece8b4dcdbe446dd65a9288154698e067e3e91de17a1a408c2f531b9f845d739060800160405180910390a45050600c805461ff001916905550505050565b600c54600090610100900460ff1615610d425760405162461bcd60e51b8152600401610a02906155d9565b600c805461ff001916610100179055600e54600160a01b900460ff16610d7a5760405162461bcd60e51b8152600401610a0290615633565b600454610d8f906001600160a01b0316613bdb565b6004546001600160a01b0316600090815260106020526040902060038101546002820154600954601154610dc69392919088613f10565b915082821015610de85760405162461bcd60e51b8152600401610a029061565e565b6004546001600160a01b03166000908152601060205260409020600390810154610e2e91610e1e90670de0b6b3a764000061569b565b610e299060016156af565b613fa0565b821115610e715760405162461bcd60e51b81526020600482015260116024820152704552525f4d41585f4f55545f524154494f60781b6044820152606401610a02565b610e7f816003015483614085565b6003820155600454604080518481524260208201526001600160a01b039092169133917f9d9058fd2f25ccc389fec7720abef0ca83472f5abfafd5f10d37f51e6a0493f3910160405180910390a36040518481527ffcda32798d5a9d032f49b37fea876d422f18f6e386e0f07db6029b693624b2c29060200160405180910390a1601254600354604051630d098ab360e11b81526001600160a01b03918216600482015260248101879052911690631a13156690604401602060405180830381865afa158015610f53573d6000803e3d6000fd5b505050506040513d601f19601f82011682018060405250810190610f7791906156c7565b1561111257600380546001600160a01b03166000908152601060205260408120918201546002830154600954601154610fb3939291908a613f10565b9050610fc3826003015482614085565b60038381019190915554600c54604080518481524260208201526001600160a01b039384169362010000909304909216917f9d9058fd2f25ccc389fec7720abef0ca83472f5abfafd5f10d37f51e6a0493f3910160405180910390a3600c5461103b906201000090046001600160a01b0316876140e2565b611044866140ec565b600354600c54611067916001600160a01b039081169162010000900416836140f5565b60125460035460405163054a976360e41b81526001600160a01b03918216600482015260248101849052604481018990529116906354a9763090606401600060405180830381600087803b1580156110be57600080fd5b505af11580156110d2573d6000803e3d6000fd5b505050507f87b3975661762d852ddf2eeaad6a43b2d93777de7b3b7bdb634283df324561188660405161110791815260200190565b60405180910390a150505b61111c33856140e2565b611125846140ec565b60045461113c906001600160a01b031633846140f5565b50600c805461ff001916905592915050565b610ad86402540be400670de0b6b3a764000061569b565b600d546001600160a01b031633146111b75760405162461bcd60e51b815260206004820152601560248201527427a7262c9026a0a925a2aa1021a7a62622a1aa27a960591b6044820152606401610a02565b6001600160a01b03821661120d5760405162461bcd60e51b815260206004820152601d60248201527f496e76616c6964205f6e6577436f6c6c6563746f7220616464726573730000006044820152606401610a02565b80158061122d5750611229612710670de0b6b3a764000061569b565b8110155b6112495760405162461bcd60e51b8152600401610a02906156e4565b61125c600a670de0b6b3a764000061569b565b81111561127b5760405162461bcd60e51b8152600401610a0290615709565b600d80546001600160a01b0319166001600160a01b03841690811790915560008290556040517f5e3e722dbd3b6b8071b78568ac80cd0e8ff92e4fb3024e755d504d8f7c2f6f09916112d191339190859061572e565b60405180910390a15050565b6000336001600160a01b038516148061131957506001600160a01b03841660009081526008602090815260408083203384529091529020548211155b61135d5760405162461bcd60e51b815260206004820152601560248201527422a9292fa12a27a5a2a72fa120a22fa1a0a62622a960591b6044820152606401610a02565b611368848484614109565b336001600160a01b038516148015906113a657506001600160a01b038416600090815260086020908152604080832033845290915290205460001914155b15611422576001600160a01b03841660009081526008602090815260408083203384529091529020546113d99083614085565b6001600160a01b0385166000818152600860209081526040808320338085529083529281902085905551938452909260008051602061582d833981519152910160405180910390a35b5060019392505050565b6002546004805460405163b8421e2b60e01b81526001600160a01b0391821692810192909252600092169063b8421e2b90602401602060405180830381865afa15801561147d573d6000803e3d6000fd5b505050506040513d601f19601f820116820180604052508101906114a19190615752565b905090565b60008060008060006114b789613bdb565b6114c088613bdb565b604080516080810182526001600160a01b03808c16600090815260106020818152858320600380820154875260029182015483880152948f168085528383528785209586015497870197909752958352529201546060820152906115456040518060800160405280600081526020016000815260200160008152602001600081525090565b611550838b8b611f7a565b805160208201516040830151606090930151949c50909a509850965090945050505050945094509450945094565b600c546201000090046001600160a01b031633146115d35760405162461bcd60e51b815260206004820152601260248201527122a9292fa727aa2fa1a7a72a2927a62622a960711b6044820152606401610a02565b6115e7612710670de0b6b3a764000061569b565b8110156116065760405162461bcd60e51b8152600401610a02906156e4565b611619600a670de0b6b3a764000061569b565b8111156116385760405162461bcd60e51b8152600401610a0290615709565b600181905560408051338152602081018390527fbca0d601c32979eebac4e8cd06375b6e45d39af80fc06a33f366425b450dfb69910160405180910390a150565b6001600160a01b03821660009081526010602090815260408083208151608081018352815460ff1615158152600182015493810193909352600281015491830182905260030154606083018190526009546011546116d99391908761421b565b949350505050565b6001600160a01b03821660009081526010602090815260408083208151608081018352815460ff1615158152600182015493810193909352600281015491830182905260030154606083018190526009546011546116d993919087613f10565b60008061176f6040518060800160405280600081526020016000815260200160008152602001600081525090565b600061178a87600360200201518860015b6020020151614292565b9050600061179f886002602002015188614085565b905060006117b4896002602002015183614292565b905060006117c282856143aa565b90506117d681670de0b6b3a7640000614085565b905060008054896117e561142c565b6001546117f291906156af565b6117fc91906156af565b61180691906156af565b905061183461181d8c60005b602002015184613fa0565b61182f670de0b6b3a764000084614085565b614292565b9750611857886118528a610e29670de0b6b3a764000061185261142c565b614085565b86602001818152505061187c886118528a610e29670de0b6b3a7640000600054614085565b8660400181815250506118a1886118528a610e29670de0b6b3a7640000600154614085565b86526118bd8861185281610e29670de0b6b3a76400008e614085565b60608701526118e46118d08c6000611812565b61182f670de0b6b3a7640000600154614085565b9650505050505093509350939050565b3360009081526008602090815260408083206001600160a01b038616845290915281205480831115611949573360009081526008602090815260408083206001600160a01b0388168452909152812055611978565b6119538184614085565b3360009081526008602090815260408083206001600160a01b03891684529091529020555b3360008181526008602090815260408083206001600160a01b0389168085529083529281902054905190815291929160008051602061582d833981519152910160405180910390a35060019392505050565b610ad8612710670de0b6b3a764000061569b565b60006119e86123f1565b905060005b8151811015611b6c57600060066000848481518110611a0e57611a0e61576b565b60200260200101516001600160a01b03166001600160a01b03168152602001908152602001600020549050600060066000858581518110611a5157611a5161576b565b60200260200101516001600160a01b03166001600160a01b0316815260200190815260200160002081905550611ac9600d60009054906101000a90046001600160a01b031682858581518110611aa957611aa961576b565b60200260200101516001600160a01b03166144d69092919063ffffffff16565b7fbaf1ab77be65c7abf8fcd922bfcf0a749f556ac1a4cdf39c126ffaa1851edb5633600d60009054906101000a90046001600160a01b0316858581518110611b1357611b1361576b565b602002602001015184604051611b5194939291906001600160a01b039485168152928416602084015292166040820152606081019190915260800190565b60405180910390a15080611b6481615781565b9150506119ed565b5050565b600c54600090610100900460ff1615611b9b5760405162461bcd60e51b8152600401610a02906155d9565b600c805461ff001916610100179055600e54600160a01b900460ff16611bd35760405162461bcd60e51b8152600401610a0290615633565b600454611be8906001600160a01b0316613bdb565b6004546001600160a01b0316600090815260106020526040902060030154611c1d90610e296002670de0b6b3a764000061569b565b831115611c5f5760405162461bcd60e51b815260206004820152601060248201526f4552525f4d41585f494e5f524154494f60801b6044820152606401610a02565b6004546001600160a01b0316600090815260106020526040902060038101546002820154600954601154611c96939291908861421b565b915082821015611cb85760405162461bcd60e51b8152600401610a029061565e565b611cc6816003015485614539565b6003820155600454604080518681524260208201526001600160a01b0390921691339160008051602061580d833981519152910160405180910390a36040518281527ffcda32798d5a9d032f49b37fea876d422f18f6e386e0f07db6029b693624b2c29060200160405180910390a1600380546001600160a01b03166000908152601060205260408120918201546002830154600954601154611d6c939291908861458b565b601254600354604051632afbbacb60e01b81526001600160a01b039182166004820152602481018490529293501690632afbbacb90604401602060405180830381865afa158015611dc1573d6000803e3d6000fd5b505050506040513d601f19601f82011682018060405250810190611de591906156c7565b15611f255760125460035460405163ebedb8b360e01b81526001600160a01b0391821660048201526024810184905291169063ebedb8b390604401600060405180830381600087803b158015611e3a57600080fd5b505af1158015611e4e573d6000803e3d6000fd5b50505050611e60826003015482614539565b60038381019190915554600c54604080518481524260208201526001600160a01b0393841693620100009093049092169160008051602061580d833981519152910160405180910390a36040518481527f87b3975661762d852ddf2eeaad6a43b2d93777de7b3b7bdb634283df324561189060200160405180910390a1611ee6846145f4565b600c54611f02906201000090046001600160a01b0316856145fd565b600354600c54611f25916001600160a01b03908116916201000090041683614607565b611f2e846145f4565b611f3833856145fd565b600454611f4f906001600160a01b03163388614607565b505050600c805461ff001916905592915050565b610ad864e8d4a51000670de0b6b3a764000061569b565b600080611fa86040518060800160405280600081526020016000815260200160008152602001600081525090565b6000611fbd8760016020020151886003611780565b9050611fdb8661185288610e29670de0b6b3a764000061185261142c565b8260200181815250506120008661185288610e29670de0b6b3a7640000600054614085565b8260400181815250506120258661185288610e29670de0b6b3a7640000600154614085565b82526120418661185281610e29670de0b6b3a76400008a614085565b606083015260008054869061205461142c565b60015461206191906156af565b61206b91906156af565b61207591906156af565b9050600061208b670de0b6b3a764000083614085565b90506120978882613fa0565b89519091506000906120ad9061182f8185614539565b905060006120bb82866143aa565b905060006120d1670de0b6b3a764000083614085565b90506120e48c6002602002015182613fa0565b9850886120ff8c89604001518a6020015161185291906156af565b9850985050505050505093509350939050565b600c54600090610100900460ff161561213d5760405162461bcd60e51b8152600401610a02906155d9565b5060115490565b610ad8670de0b6b3a76400006064615614565b600c54600090610100900460ff16156121825760405162461bcd60e51b8152600401610a02906155d9565b61218b82613bdb565b506001600160a01b0381166000908152601060205260409020600201545b919050565b6060600b80546109549061559e565b6121d06003670de0b6b3a764000061569b565b610ad89060016156af565b6001600160a01b03821660009081526010602090815260408083208151608081018352815460ff1615158152600182015493810193909352600281015491830182905260030154606083018190526009546011546116d99391908761474f565b6000612248338484614109565b50600192915050565b600061225b6123f1565b905060005b8151811015611b6c576000600560008484815181106122815761228161576b565b60200260200101516001600160a01b03166001600160a01b031681526020019081526020016000205490506000600560008585815181106122c4576122c461576b565b60200260200101516001600160a01b03166001600160a01b031681526020019081526020016000208190555061231c600e60009054906101000a90046001600160a01b031682858581518110611aa957611aa961576b565b7fed2b0288692cfc6d01c94a67a53721792f59c3d1388221f8aa4f66c8d2808dde33600e60009054906101000a90046001600160a01b03168585815181106123665761236661576b565b6020026020010151846040516123a494939291906001600160a01b039485168152928416602084015292166040820152606081019190915260800190565b60405180910390a150806123b781615781565b915050612260565b610ad8600a670de0b6b3a764000061569b565b60016123e7670de0b6b3a76400006002615614565b610ad8919061579c565b600c54606090610100900460ff161561241c5760405162461bcd60e51b8152600401610a02906155d9565b600e54600160a01b900460ff166124455760405162461bcd60e51b8152600401610a0290615633565b600f8054806020026020016040519081016040528092919081815260200182805480156109cd57602002820191906000526020600020905b81546001600160a01b0316815260019091019060200180831161247d575050505050905090565b60608060006124b16123f1565b90506000815167ffffffffffffffff8111156124cf576124cf6152d3565b6040519080825280602002602001820160405280156124f8578160200160208202803683370190505b5090506000825167ffffffffffffffff811115612517576125176152d3565b604051908082528060200260200182016040528015612540578160200160208202803683370190505b50905060005b8351811015612609578381815181106125615761256161576b565b602002602001015183828151811061257b5761257b61576b565b60200260200101906001600160a01b031690816001600160a01b031681525050600560008583815181106125b1576125b161576b565b60200260200101516001600160a01b03166001600160a01b03168152602001908152602001600020548282815181106125ec576125ec61576b565b60209081029190910101528061260181615781565b915050612546565b509094909350915050565b601254600090600160a01b900460ff16156126715760405162461bcd60e51b815260206004820152601760248201527f4552525f414c52454144595f494e495449414c495a45440000000000000000006044820152606401610a02565b6001600160a01b0389166126c75760405162461bcd60e51b815260206004820152601e60248201527f4552525f494e56414c49445f434f4e54524f4c4c45525f4144445245535300006044820152606401610a02565b6001600160a01b03881661271d5760405162461bcd60e51b815260206004820152601b60248201527f4552525f494e56414c49445f464143544f52595f4144445245535300000000006044820152606401610a02565b612731612710670de0b6b3a764000061569b565b878760008181106127445761274461576b565b9050602002013510156127695760405162461bcd60e51b8152600401610a02906156e4565b61277c600a670de0b6b3a764000061569b565b8787600081811061278f5761278f61576b565b9050602002013511156127b45760405162461bcd60e51b8152600401610a0290615709565b868660018181106127c7576127c761576b565b905060200201356000148061280857506127eb612710670de0b6b3a764000061569b565b878760018181106127fe576127fe61576b565b9050602002013510155b6128245760405162461bcd60e51b8152600401610a02906156e4565b612837600a670de0b6b3a764000061569b565b8787600181811061284a5761284a61576b565b90506020020135111561286f5760405162461bcd60e51b8152600401610a0290615709565b6128f58989898980806020026020016040519081016040528093929190818152602001838360200280828437600092019190915250506040805180820182528c93508b9250908a9060029083908390808284376000920191909152505060408051808201825291508a90600290839083908082843760009201919091525061480e915050565b9998505050505050505050565b600c546000908190610100900460ff161561292f5760405162461bcd60e51b8152600401610a02906155d9565b600c805461ff001916610100179055600e54600160a01b900460ff166129675760405162461bcd60e51b8152600401610a0290615633565b612977604085016020860161529f565b6001600160a01b031661298d602086018661529f565b6001600160a01b031614156129dd5760405162461bcd60e51b815260206004820152601660248201527521b0b73737ba1039bbb0b81039b0b6b2903a37b5b2b760511b6044820152606401610a02565b6129fc8460005b6020020160208101906129f7919061529f565b613bdb565b612a078460016129e4565b6000601081612a19602088018861529f565b6001600160a01b03168152602081019190915260400160009081209150601081876001602002016020810190612a4f919061529f565b6001600160a01b031681526020810191909152604001600020905060608501351580612a925750612a8a612710670de0b6b3a764000061569b565b606086013510155b612ad75760405162461bcd60e51b8152602060048201526016602482015275436f6e73756d655377617046656520746f6f206c6f7760501b6044820152606401610a02565b612aea600a670de0b6b3a764000061569b565b60608601351115612b375760405162461bcd60e51b8152602060048201526017602482015276086dedce6eadacaa6eec2e08ccaca40e8dede40d0d2ced604b1b6044820152606401610a02565b6003820154612b5390610e296002670de0b6b3a764000061569b565b85351115612b965760405162461bcd60e51b815260206004820152601060248201526f4552525f4d41585f494e5f524154494f60801b6044820152606401610a02565b6000612bcc83600301548460020154846003015485600201548a600360048110612bc257612bc261576b565b6020020135613c36565b90506040860135811115612c185760405162461bcd60e51b81526020600482015260136024820152724552525f4241445f4c494d49545f505249434560681b6044820152606401610a02565b600080604051806080016040528086600301548152602001866002015481526020018560030154815260200185600201548152509050612c796040518060800160405280600081526020016000815260200160008152602001600081525090565b612c89828a3560608c0135611f7a565b91995093509050612cd8600560008c815b602002016020810190612cad919061529f565b6001600160a01b03166001600160a01b03168152602001908152602001600020548260200151614539565b60056000612ce960208e018e61529f565b6001600160a01b03166001600160a01b0316815260200190815260200160002081905550612d65600660008c600060038110612d2757612d2761576b565b602002016020810190612d3a919061529f565b6001600160a01b03166001600160a01b03168152602001908152602001600020548260400151614539565b60066000612d7660208e018e61529f565b6001600160a01b03166001600160a01b03168152602001908152602001600020819055507f53a9dc73d01196a9c660d761bc5ec77b945340a34b5b52e510760af2dab1c0f181600001518260200151836040015184606001518e600060038110612de257612de261576b565b602002016020810190612df5919061529f565b6040805195865260208601949094529284019190915260608301526001600160a01b0316608082015260a00160405180910390a16020890135881015612e4d5760405162461bcd60e51b8152600401610a029061565e565b612e5b866003015484614539565b8660030181905550612e71856003015489614085565b8560030181905550612ea386600301548760020154876003015488600201548d600360048110612bc257612bc261576b565b965083871015612ec55760405162461bcd60e51b8152600401610a02906157b3565b6040890135871115612f0b5760405162461bcd60e51b815260206004820152600f60248201526e4552525f4c494d49545f505249434560881b6044820152606401610a02565b612f16893589614292565b841115612f355760405162461bcd60e51b8152600401610a02906157b3565b612f4560408b0160208c0161529f565b6001600160a01b0316612f5b60208c018c61529f565b60038089015490880154604080518e358152602081018e905242918101919091526060810192909252608082015260a081018a90526001600160a01b03919091169033907fbdafe88494b31fc7436fe7992b0f377e874287e841e62eed1ad77e84f3c5b1719060c00160405180910390a4612fe4612fdc60208c018c61529f565b338b35614607565b60006130098a3561185281610e29670de0b6b3a76400008f60035b6020020135614085565b905060608a0135156130a45761304d8b60025b60200201602081019061302f919061529f565b8261303d60208f018f61529f565b6001600160a01b031691906144d6565b7f6d11837f46cc09b011cf4aae09fcade046c020aac088090ae4f77ff67b70797261307e60608d0160408e0161529f565b61308b60208e018e61529f565b8360405161309b9392919061572e565b60405180910390a15b6130be6130b760408d0160208e0161529f565b338b6140f5565b50505050505050600c805461ff001916905590939092509050565b60608060006130e66123f1565b90506000815167ffffffffffffffff811115613104576131046152d3565b60405190808252806020026020018201604052801561312d578160200160208202803683370190505b5090506000825167ffffffffffffffff81111561314c5761314c6152d3565b604051908082528060200260200182016040528015613175578160200160208202803683370190505b50905060005b8351811015612609578381815181106131965761319661576b565b60200260200101518382815181106131b0576131b061576b565b60200260200101906001600160a01b031690816001600160a01b031681525050600660008583815181106131e6576131e661576b565b60200260200101516001600160a01b03166001600160a01b03168152602001908152602001600020548282815181106132215761322161576b565b60209081029190910101528061323681615781565b91505061317b565b600c546000908190610100900460ff161561326b5760405162461bcd60e51b8152600401610a02906155d9565b600c805461ff001916610100179055600e54600160a01b900460ff166132a35760405162461bcd60e51b8152600401610a0290615633565b6132b3604085016020860161529f565b6001600160a01b03166132c9602086018661529f565b6001600160a01b031614156133195760405162461bcd60e51b815260206004820152601660248201527521b0b73737ba1039bbb0b81039b0b6b2903a37b5b2b760511b6044820152606401610a02565b606083013515806133415750613339612710670de0b6b3a764000061569b565b606084013510155b6133865760405162461bcd60e51b8152602060048201526016602482015275436f6e73756d655377617046656520746f6f206c6f7760501b6044820152606401610a02565b613399600a670de0b6b3a764000061569b565b606084013511156133e65760405162461bcd60e51b8152602060048201526017602482015276086dedce6eadacaa6eec2e08ccaca40e8dede40d0d2ced604b1b6044820152606401610a02565b6133f18460006129e4565b6133fc8460016129e4565b600060108161340e602088018861529f565b6001600160a01b03168152602081019190915260400160009081209150601081876001602002016020810190613444919061529f565b6001600160a01b03166001600160a01b03168152602001908152602001600020905061348381600301546003670de0b6b3a7640000610e1e919061569b565b602086013511156134ca5760405162461bcd60e51b81526020600482015260116024820152704552525f4d41585f4f55545f524154494f60781b6044820152606401610a02565b60006134f683600301548460020154846003015485600201548a600360048110612bc257612bc261576b565b905060408601358111156135425760405162461bcd60e51b81526020600482015260136024820152724552525f4241445f4c494d49545f505249434560681b6044820152606401610a02565b6000806040518060800160405280866003015481526020018660020154815260200185600301548152602001856002015481525090506135a36040518060800160405280600081526020016000815260200160008152602001600081525090565b6135b68260208b013560608c0135611741565b919950935090506135cb600560008c81612c9a565b600560006135dc60208e018e61529f565b6001600160a01b03166001600160a01b031681526020019081526020016000208190555061361a600660008c600060038110612d2757612d2761576b565b6006600061362b60208e018e61529f565b6001600160a01b03166001600160a01b03168152602001908152602001600020819055507f53a9dc73d01196a9c660d761bc5ec77b945340a34b5b52e510760af2dab1c0f181600001518260200151836040015184606001518e6000600381106136975761369761576b565b6020020160208101906136aa919061529f565b6040805195865260208601949094529284019190915260608301526001600160a01b0316608082015260a00160405180910390a1883588111561371e5760405162461bcd60e51b815260206004820152600c60248201526b22a9292fa624a6a4aa2fa4a760a11b6044820152606401610a02565b61372c866003015484614539565b600380880191909155850154613744908a6001612fff565b856003018190555061377686600301548760020154876003015488600201548d600360048110612bc257612bc261576b565b9650838710156137985760405162461bcd60e51b8152600401610a02906157b3565b60408901358711156137de5760405162461bcd60e51b815260206004820152600f60248201526e4552525f4c494d49545f505249434560881b6044820152606401610a02565b6137ec8860208b0135614292565b84111561380b5760405162461bcd60e51b8152600401610a02906157b3565b61381b60408b0160208c0161529f565b6001600160a01b031661383160208c018c61529f565b6001600160a01b0316337fbdafe88494b31fc7436fe7992b0f377e874287e841e62eed1ad77e84f3c5b1718b8d60016020020135428c600301548c600301548f6040516138a696959493929190958652602086019490945260408501929092526060840152608083015260a082015260c00190565b60405180910390a46138c56138be60208c018c61529f565b338a614607565b60006138e38961185281610e29670de0b6b3a76400008f6003612fff565b905060608a013515613951576138fa8b600261301c565b7f6d11837f46cc09b011cf4aae09fcade046c020aac088090ae4f77ff67b70797261392b60608d0160408e0161529f565b61393860208e018e61529f565b836040516139489392919061572e565b60405180910390a15b6130be61396460408d0160208e0161529f565b3360208d01356140f5565b600080600080600061398089613bdb565b61398988613bdb565b604080516080810182526001600160a01b03808c16600090815260106020818152858320600380820154875260029182015483880152948f16808552838352878520958601549787019790975295835252920154606082015290613a0e6040518060800160405280600081526020016000815260200160008152602001600081525090565b611550838b8b611741565b600c54606090610100900460ff16156124455760405162461bcd60e51b8152600401610a02906155d9565b3360009081526008602090815260408083206001600160a01b0386168452909152812054613a729083614539565b3360008181526008602090815260408083206001600160a01b0389168085529083529281902085905551938452909260008051602061582d8339815191529101610ab3565b610ad86002670de0b6b3a764000061569b565b600c54600090610100900460ff1615613af55760405162461bcd60e51b8152600401610a02906155d9565b613afe82613bdb565b6001600160a01b038216600090815260106020526040902060020154601154610a63908290614292565b600c54600090610100900460ff1615613b535760405162461bcd60e51b8152600401610a02906155d9565b613b5c82613bdb565b506001600160a01b031660009081526010602052604090206003015490565b6001600160a01b03821660009081526010602090815260408083208151608081018352815460ff1615158152600182015493810193909352600281015491830182905260030154606083018190526009546011546116d99391908761458b565b6001600160a01b03811660009081526010602052604090205460ff16613c335760405162461bcd60e51b815260206004820152600d60248201526c11549497d393d517d093d55391609a1b6044820152606401610a02565b50565b600080613c438787614292565b90506000613c518686614292565b90506000613c5f8383614292565b90506000613ca8670de0b6b3a764000061182f670de0b6b3a764000089600054613c8761142c565b600154613c9491906156af565b613c9e91906156af565b61185291906156af565b9050613cb48282613fa0565b9a9950505050505050505050565b600c546201000090046001600160a01b03163314613d175760405162461bcd60e51b815260206004820152601260248201527122a9292fa727aa2fa1a7a72a2927a62622a960711b6044820152606401610a02565b6001600160a01b03831660009081526010602052604090205460ff1615613d6f5760405162461bcd60e51b815260206004820152600c60248201526b11549497d254d7d093d5539160a21b6044820152606401610a02565b600e54600160a01b900460ff1615613dbc5760405162461bcd60e51b815260206004820152601060248201526f11549497d254d7d1925390531256915160821b6044820152606401610a02565b600f54600211613dff5760405162461bcd60e51b815260206004820152600e60248201526d4552525f4d41585f544f4b454e5360901b6044820152606401610a02565b604080516080810182526001808252600f805460208085019182526000858701818152606087018281526001600160a01b038c1680845260109094529782209651875460ff1916901515178755925186860155915160028601559451600390940193909355805491820181559091527f8d1108e10bcb7c27dddfc02ed9d693a074039d026cf4ea4240b40f7d581ac8020180546001600160a01b0319169091179055613eac8383836149dc565b505050565b600e805460ff60a01b1916600160a01b179055600c805460ff60b01b1916600160b01b179055613ef2613eed670de0b6b3a76400006064615614565b6145f4565b613f0e33613f09670de0b6b3a76400006064615614565b6145fd565b565b600080613f1d8685614292565b90506000613f3884610e29670de0b6b3a76400006000614085565b90506000613f468783614085565b90506000613f548289614292565b90506000613f7382613f6e670de0b6b3a764000088614292565b6143aa565b90506000613f81828d613fa0565b90506000613f8f8d83614085565b9d9c50505050505050505050505050565b600080613fad8385615614565b9050831580613fc4575082613fc2858361569b565b145b6140035760405162461bcd60e51b815260206004820152601060248201526f4552525f4d554c5f4f564552464c4f5760801b6044820152606401610a02565b60006140186002670de0b6b3a764000061569b565b61402290836156af565b9050818110156140675760405162461bcd60e51b815260206004820152601060248201526f4552525f4d554c5f4f564552464c4f5760801b6044820152606401610a02565b600061407b670de0b6b3a76400008361569b565b9695505050505050565b60008060006140948585614bfb565b9150915080156140da5760405162461bcd60e51b81526020600482015260116024820152704552525f5355425f554e444552464c4f5760781b6044820152606401610a02565b509392505050565b611b6c8282614c32565b613c3381614c3d565b613eac6001600160a01b03841683836144d6565b6001600160a01b0383166000908152600760205260409020548111156141685760405162461bcd60e51b815260206004820152601460248201527311549497d25394d551919250d251539517d0905360621b6044820152606401610a02565b6001600160a01b03831660009081526007602052604090205461418b9082614085565b6001600160a01b0380851660009081526007602052604080822093909355908416815220546141ba9082614539565b6001600160a01b0380841660008181526007602052604090819020939093559151908516907fddf252ad1be2c89b69c2b068fc378daa952ba7f163c4a11628f55a4df523b3ef9061420e9085815260200190565b60405180910390a3505050565b6000806142288685614292565b9050600061423e84670de0b6b3a7640000613fa0565b9050600061424c8983614539565b9050600061425a828b614292565b9050600061426882866143aa565b90506000614276828b613fa0565b9050614282818b614085565b9c9b505050505050505050505050565b6000816142d05760405162461bcd60e51b815260206004820152600c60248201526b4552525f4449565f5a45524f60a01b6044820152606401610a02565b60006142e4670de0b6b3a764000085615614565b90508315806143035750670de0b6b3a7640000614301858361569b565b145b6143425760405162461bcd60e51b815260206004820152601060248201526f11549497d1125597d25395115493905360821b6044820152606401610a02565b600061434f60028561569b565b61435990836156af565b90508181101561439e5760405162461bcd60e51b815260206004820152601060248201526f11549497d1125597d25395115493905360821b6044820152606401610a02565b600061407b858361569b565b600060018310156143f55760405162461bcd60e51b81526020600482015260156024820152744552525f42504f575f424153455f544f4f5f4c4f5760581b6044820152606401610a02565b600161440a670de0b6b3a76400006002615614565b614414919061579c565b83111561445c5760405162461bcd60e51b815260206004820152601660248201527508aa4a4be84a09eaebe8482a68abea89e9ebe90928e960531b6044820152606401610a02565b600061446783614d09565b905060006144758483614085565b9050600061448b8661448685614d27565b614d3b565b90508161449c579250610abf915050565b60006144bf87846144ba6402540be400670de0b6b3a764000061569b565b614daf565b90506144cb8282613fa0565b979650505050505050565b6040516001600160a01b038316602482015260448101829052613eac90849063a9059cbb60e01b906064015b60408051601f198184030181529190526020810180516001600160e01b03166001600160e01b031990931692909217909152614e9f565b60008061454683856156af565b905083811015610a635760405162461bcd60e51b815260206004820152601060248201526f4552525f4144445f4f564552464c4f5760801b6044820152606401610a02565b6000806145988685614292565b905060006145a68685614539565b905060006145b48288614292565b905060006145ca670de0b6b3a764000085614292565b905060006145d883836143aa565b905060006145e6828d613fa0565b90506000613f8f828e614085565b613c3381614f71565b611b6c8282614fe0565b6040516370a0823160e01b81523060048201526000906001600160a01b038516906370a0823190602401602060405180830381865afa15801561464e573d6000803e3d6000fd5b505050506040513d601f19601f820116820180604052508101906146729190615752565b90506146896001600160a01b038516843085614feb565b61469382826156af565b6040516370a0823160e01b81523060048201526001600160a01b038616906370a0823190602401602060405180830381865afa1580156146d7573d6000803e3d6000fd5b505050506040513d601f19601f820116820180604052508101906146fb9190615752565b10156147495760405162461bcd60e51b815260206004820152601a60248201527f5472616e7366657220616d6f756e7420697320746f6f206c6f770000000000006044820152606401610a02565b50505050565b60008061475c8685614292565b90506000614772670de0b6b3a764000083614085565b9050600061478282600154613fa0565b9050600061479c8661182f670de0b6b3a764000085614085565b905060006147aa8b83614085565b905060006147b8828d614292565b905060006147c682886143aa565b905060006147d4828d613fa0565b905060006147e28d83614085565b90506147fb8161182f670de0b6b3a76400006000614085565b9f9e505050505050505050505050505050565b600c805462010000600160b01b031916620100006001600160a01b038a81169190910291909117909155600280546001600160a01b0319169188169190911790558451600090869082906148645761486461576b565b602090810291909101810151600181905560408051338152928301919091527fbca0d601c32979eebac4e8cd06375b6e45d39af80fc06a33f366425b450dfb69910160405180910390a1856001815181106148c1576148c161576b565b6020908102919091018101516000819055600c805460ff60b01b1916600160b01b89151502179055600e805460ff60a01b1916600160a01b881515021790558451600380546001600160a01b03199081166001600160a01b0393841617909155928601516004805485169183169190911790558451600d805490941691169081179092556040517f5e3e722dbd3b6b8071b78568ac80cd0e8ff92e4fb3024e755d504d8f7c2f6f099261497592339261572e565b60405180910390a18160016020020151600e80546001600160a01b0319166001600160a01b0392831617905560128054600c54600160a01b620100009091049093166001600160a81b03199091161782179081905560ff9190041698975050505050505050565b670de0b6b3a7640000811015614a255760405162461bcd60e51b815260206004820152600e60248201526d11549497d3525397d5d15251d21560921b6044820152606401610a02565b614a38670de0b6b3a76400006032615614565b811115614a785760405162461bcd60e51b815260206004820152600e60248201526d11549497d3505617d5d15251d21560921b6044820152606401610a02565b614a8f64e8d4a51000670de0b6b3a764000061569b565b821015614ad05760405162461bcd60e51b815260206004820152600f60248201526e4552525f4d494e5f42414c414e434560881b6044820152606401610a02565b6001600160a01b03831660009081526010602052604090206002015480821115614b6c57614b09601154614b048484614085565b614539565b601155614b1f670de0b6b3a76400006032615614565b6011541115614b675760405162461bcd60e51b815260206004820152601460248201527311549497d3505617d513d5105317d5d15251d21560621b6044820152606401610a02565b614b88565b80821015614b8857614b846011546118528385614085565b6011555b6001600160a01b03841660009081526010602052604090206002810183905560030180549084905580841115614bd157614bcc8533614bc78785614085565b614607565b614bf4565b80841015614bf4576000614be58286614085565b9050614bf28633836140f5565b505b5050505050565b600080828410614c1a57614c0f838561579c565b600091509150614c2b565b614c24848461579c565b6001915091505b9250929050565b611b6c823083614109565b30600090815260076020526040902054811115614c935760405162461bcd60e51b815260206004820152601460248201527311549497d25394d551919250d251539517d0905360621b6044820152606401610a02565b30600090815260076020526040902054614cad9082614085565b30600090815260076020526040902055600954614cca9082614085565b60095560405181815260009030907fddf252ad1be2c89b69c2b068fc378daa952ba7f163c4a11628f55a4df523b3ef906020015b60405180910390a350565b6000670de0b6b3a7640000614d1d83614d27565b610abf9190615614565b6000610abf670de0b6b3a76400008361569b565b60008281614d4a6002856157dc565b614d5c57670de0b6b3a7640000614d5e565b815b9050614d6b60028561569b565b93505b83156116d957614d7e8283613fa0565b9150614d8b6002856157dc565b15614d9d57614d9a8183613fa0565b90505b614da860028561569b565b9350614d6e565b6000828180614dc687670de0b6b3a7640000614bfb565b9092509050670de0b6b3a764000080600060015b888410614e90576000614df5670de0b6b3a764000083615614565b9050600080614e158a614e1085670de0b6b3a7640000614085565b614bfb565b91509150614e2787610e29848c613fa0565b9650614e338784614292565b965086614e4257505050614e90565b8715614e4c579315935b8015614e56579315935b8415614e6d57614e668688614085565b9550614e7a565b614e778688614539565b95505b5050508080614e8890615781565b915050614dda565b50909998505050505050505050565b6000614ef4826040518060400160405280602081526020017f5361666545524332303a206c6f772d6c6576656c2063616c6c206661696c6564815250856001600160a01b031661500c9092919063ffffffff16565b805190915015613eac5780806020019051810190614f1291906156c7565b613eac5760405162461bcd60e51b815260206004820152602a60248201527f5361666545524332303a204552433230206f7065726174696f6e20646964206e6044820152691bdd081cdd58d8d9595960b21b6064820152608401610a02565b30600090815260076020526040902054614f8b9082614539565b30600090815260076020526040902055600954614fa89082614539565b60095560405181815230906000907fddf252ad1be2c89b69c2b068fc378daa952ba7f163c4a11628f55a4df523b3ef90602001614cfe565b611b6c308383614109565b614749846323b872dd60e01b8585856040516024016145029392919061572e565b60606116d9848460008585843b6150655760405162461bcd60e51b815260206004820152601d60248201527f416464726573733a2063616c6c20746f206e6f6e2d636f6e74726163740000006044820152606401610a02565b600080866001600160a01b0316858760405161508191906157f0565b60006040518083038185875af1925050503d80600081146150be576040519150601f19603f3d011682016040523d82523d6000602084013e6150c3565b606091505b50915091506144cb828286606083156150dd575081610a63565b8251156150ed5782518084602001fd5b8160405162461bcd60e51b8152600401610a029190615133565b60005b8381101561512257818101518382015260200161510a565b838111156147495750506000910152565b6020815260008251806020840152615152816040850160208701615107565b601f01601f19169190910160400192915050565b80356001600160a01b03811681146121a957600080fd5b60008060006060848603121561519257600080fd5b61519b84615166565b92506151a960208501615166565b9150604084013590509250925092565b600080604083850312156151cc57600080fd5b6151d583615166565b946020939093013593505050565b60008060008060008060c087890312156151fc57600080fd5b61520587615166565b9550602087013594506040870135935061522160608801615166565b92506080870135915060a087013590509295509295509295565b6000806040838503121561524e57600080fd5b50508035926020909101359150565b6000806000806080858703121561527357600080fd5b61527c85615166565b935061528a60208601615166565b93969395505050506040820135916060013590565b6000602082840312156152b157600080fd5b610a6382615166565b6000602082840312156152cc57600080fd5b5035919050565b634e487b7160e01b600052604160045260246000fd5b600080600060c084860312156152fe57600080fd5b84601f85011261530d57600080fd5b6040516080810181811067ffffffffffffffff82111715615330576153306152d3565b60405280608086018781111561534557600080fd5b865b8181101561535f578035835260209283019201615347565b509197913596505060a094909401359392505050565b600081518084526020808501945080840160005b838110156153ae5781516001600160a01b031687529582019590820190600101615389565b509495945050505050565b602081526000610a636020830184615375565b6040815260006153df6040830185615375565b82810360208481019190915284518083528582019282019060005b81811015615416578451835293830193918301916001016153fa565b5090979650505050505050565b8015158114613c3357600080fd5b80356121a981615423565b8060408101831015610abf57600080fd5b600080600080600080600080610120898b03121561546a57600080fd5b61547389615166565b975061548160208a01615166565b9650604089013567ffffffffffffffff8082111561549e57600080fd5b818b0191508b601f8301126154b257600080fd5b8135818111156154c157600080fd5b8c60208260051b85010111156154d657600080fd5b6020830198508097505050506154ee60608a01615431565b93506154fc60808a01615431565b925061550b8a60a08b0161543c565b915061551a8a60e08b0161543c565b90509295985092959890939650565b60008060e0838503121561553c57600080fd5b606083018481111561554d57600080fd5b8392508460e08501111561556057600080fd5b809150509250929050565b6000806040838503121561557e57600080fd5b61558783615166565b915061559560208401615166565b90509250929050565b600181811c908216806155b257607f821691505b602082108114156155d357634e487b7160e01b600052602260045260246000fd5b50919050565b6020808252600b908201526a4552525f5245454e54525960a81b604082015260600190565b634e487b7160e01b600052601160045260246000fd5b600081600019048311821515161561562e5761562e6155fe565b500290565b60208082526011908201527011549497d393d517d19253905312569151607a1b604082015260600190565b6020808252600d908201526c11549497d31253525517d3d555609a1b604082015260600190565b634e487b7160e01b600052601260045260246000fd5b6000826156aa576156aa615685565b500490565b600082198211156156c2576156c26155fe565b500190565b6000602082840312156156d957600080fd5b8151610a6381615423565b6020808252600b908201526a4552525f4d494e5f46454560a81b604082015260600190565b6020808252600b908201526a4552525f4d41585f46454560a81b604082015260600190565b6001600160a01b039384168152919092166020820152604081019190915260600190565b60006020828403121561576457600080fd5b5051919050565b634e487b7160e01b600052603260045260246000fd5b6000600019821415615795576157956155fe565b5060010190565b6000828210156157ae576157ae6155fe565b500390565b6020808252600f908201526e08aa4a4be9a82a890be82a0a0a49eb608b1b604082015260600190565b6000826157eb576157eb615685565b500690565b60008251615802818460208701615107565b919091019291505056fe15a8ca63e37b2cff1677df2b6b82d36fcf8a524228bd7a4b4d02d107c28c1e8a8c5be1e5ebec7d5bd14f71427d1e84f3dd0314c0f7b2291e5b200ac8c7c3b925a264697066735822122084240947792dfe4b44573129e86a129ff55f2c514011c50d163d880f2db1055164736f6c634300080c0033",
  "linkReferences": {},
  "deployedLinkReferences": {}
}