{
  "_format": "hh-sol-artifact-1",
  "contractName": "BPool",
  "sourceName": "contracts/pools/balancer/BPool.sol",
  "abi": [
    {
      "anonymous": false,
      "inputs": [
        {
          "indexed": true,
          "internalType": "address",
          "name": "src",
          "type": "address"
        },
        {
          "indexed": true,
          "internalType": "address",
          "name": "dst",
          "type": "address"
        },
        {
          "indexed": false,
          "internalType": "uint256",
          "name": "amt",
          "type": "uint256"
        }
      ],
      "name": "Approval",
      "type": "event"
    },
    {
      "anonymous": false,
      "inputs": [
        {
          "indexed": false,
          "internalType": "address",
          "name": "to",
          "type": "address"
        },
        {
          "indexed": false,
          "internalType": "address",
          "name": "token",
          "type": "address"
        },
        {
          "indexed": false,
          "internalType": "uint256",
          "name": "amount",
          "type": "uint256"
        }
      ],
      "name": "ConsumeMarketFee",
      "type": "event"
    },
    {
      "anonymous": false,
      "inputs": [
        {
          "indexed": false,
          "internalType": "uint256",
          "name": "bptAmount",
          "type": "uint256"
        }
      ],
      "name": "LOG_BPT",
      "type": "event"
    },
    {
      "anonymous": false,
      "inputs": [
        {
          "indexed": false,
          "internalType": "uint256",
          "name": "bptAmount",
          "type": "uint256"
        }
      ],
      "name": "LOG_BPT_SS",
      "type": "event"
    },
    {
      "anonymous": false,
      "inputs": [
        {
          "indexed": true,
          "internalType": "bytes4",
          "name": "sig",
          "type": "bytes4"
        },
        {
          "indexed": true,
          "internalType": "address",
          "name": "caller",
          "type": "address"
        },
        {
          "indexed": false,
          "internalType": "uint256",
          "name": "timestamp",
          "type": "uint256"
        },
        {
          "indexed": false,
          "internalType": "bytes",
          "name": "data",
          "type": "bytes"
        }
      ],
      "name": "LOG_CALL",
      "type": "event"
    },
    {
      "anonymous": false,
      "inputs": [
        {
          "indexed": true,
          "internalType": "address",
          "name": "caller",
          "type": "address"
        },
        {
          "indexed": true,
          "internalType": "address",
          "name": "tokenOut",
          "type": "address"
        },
        {
          "indexed": false,
          "internalType": "uint256",
          "name": "tokenAmountOut",
          "type": "uint256"
        },
        {
          "indexed": false,
          "internalType": "uint256",
          "name": "timestamp",
          "type": "uint256"
        }
      ],
      "name": "LOG_EXIT",
      "type": "event"
    },
    {
      "anonymous": false,
      "inputs": [
        {
          "indexed": true,
          "internalType": "address",
          "name": "caller",
          "type": "address"
        },
        {
          "indexed": true,
          "internalType": "address",
          "name": "tokenIn",
          "type": "address"
        },
        {
          "indexed": false,
          "internalType": "uint256",
          "name": "tokenAmountIn",
          "type": "uint256"
        },
        {
          "indexed": false,
          "internalType": "uint256",
          "name": "timestamp",
          "type": "uint256"
        }
      ],
      "name": "LOG_JOIN",
      "type": "event"
    },
    {
      "anonymous": false,
      "inputs": [
        {
          "indexed": true,
          "internalType": "address",
          "name": "caller",
          "type": "address"
        },
        {
          "indexed": true,
          "internalType": "address",
          "name": "baseToken",
          "type": "address"
        },
        {
          "indexed": false,
          "internalType": "uint256",
          "name": "baseTokenAmountIn",
          "type": "uint256"
        },
        {
          "indexed": false,
          "internalType": "uint256",
          "name": "baseTokenWeight",
          "type": "uint256"
        },
        {
          "indexed": true,
          "internalType": "address",
          "name": "datatoken",
          "type": "address"
        },
        {
          "indexed": false,
          "internalType": "uint256",
          "name": "datatokenAmountIn",
          "type": "uint256"
        },
        {
          "indexed": false,
          "internalType": "uint256",
          "name": "datatokenWeight",
          "type": "uint256"
        }
      ],
      "name": "LOG_SETUP",
      "type": "event"
    },
    {
      "anonymous": false,
      "inputs": [
        {
          "indexed": true,
          "internalType": "address",
          "name": "caller",
          "type": "address"
        },
        {
          "indexed": true,
          "internalType": "address",
          "name": "tokenIn",
          "type": "address"
        },
        {
          "indexed": true,
          "internalType": "address",
          "name": "tokenOut",
          "type": "address"
        },
        {
          "indexed": false,
          "internalType": "uint256",
          "name": "tokenAmountIn",
          "type": "uint256"
        },
        {
          "indexed": false,
          "internalType": "uint256",
          "name": "tokenAmountOut",
          "type": "uint256"
        },
        {
          "indexed": false,
          "internalType": "uint256",
          "name": "timestamp",
          "type": "uint256"
        }
      ],
      "name": "LOG_SWAP",
      "type": "event"
    },
    {
      "anonymous": false,
      "inputs": [
        {
          "indexed": false,
          "internalType": "address",
          "name": "caller",
          "type": "address"
        },
        {
          "indexed": false,
          "internalType": "address",
          "name": "OPCWallet",
          "type": "address"
        },
        {
          "indexed": false,
          "internalType": "address",
          "name": "token",
          "type": "address"
        },
        {
          "indexed": false,
          "internalType": "uint256",
          "name": "amount",
          "type": "uint256"
        }
      ],
      "name": "OPCFee",
      "type": "event"
    },
    {
      "anonymous": false,
      "inputs": [
        {
          "indexed": false,
          "internalType": "address",
          "name": "caller",
          "type": "address"
        },
        {
          "indexed": false,
          "internalType": "address",
          "name": "marketAddress",
          "type": "address"
        },
        {
          "indexed": false,
          "internalType": "address",
          "name": "token",
          "type": "address"
        },
        {
          "indexed": false,
          "internalType": "uint256",
          "name": "amount",
          "type": "uint256"
        }
      ],
      "name": "PublishMarketFee",
      "type": "event"
    },
    {
      "anonymous": false,
      "inputs": [
        {
          "indexed": false,
          "internalType": "address",
          "name": "caller",
          "type": "address"
        },
        {
          "indexed": false,
          "internalType": "address",
          "name": "newMarketCollector",
          "type": "address"
        },
        {
          "indexed": false,
          "internalType": "uint256",
          "name": "swapFee",
          "type": "uint256"
        }
      ],
      "name": "PublishMarketFeeChanged",
      "type": "event"
    },
    {
      "anonymous": false,
      "inputs": [
        {
          "indexed": false,
          "internalType": "uint256",
          "name": "LPFeeAmount",
          "type": "uint256"
        },
        {
          "indexed": false,
          "internalType": "uint256",
          "name": "oceanFeeAmount",
          "type": "uint256"
        },
        {
          "indexed": false,
          "internalType": "uint256",
          "name": "marketFeeAmount",
          "type": "uint256"
        },
        {
          "indexed": false,
          "internalType": "uint256",
          "name": "consumeMarketFeeAmount",
          "type": "uint256"
        },
        {
          "indexed": false,
          "internalType": "address",
          "name": "tokenFeeAddress",
          "type": "address"
        }
      ],
      "name": "SWAP_FEES",
      "type": "event"
    },
    {
      "anonymous": false,
      "inputs": [
        {
          "indexed": false,
          "internalType": "address",
          "name": "caller",
          "type": "address"
        },
        {
          "indexed": false,
          "internalType": "uint256",
          "name": "amount",
          "type": "uint256"
        }
      ],
      "name": "SwapFeeChanged",
      "type": "event"
    },
    {
      "anonymous": false,
      "inputs": [
        {
          "indexed": true,
          "internalType": "address",
          "name": "src",
          "type": "address"
        },
        {
          "indexed": true,
          "internalType": "address",
          "name": "dst",
          "type": "address"
        },
        {
          "indexed": false,
          "internalType": "uint256",
          "name": "amt",
          "type": "uint256"
        }
      ],
      "name": "Transfer",
      "type": "event"
    },
    {
      "inputs": [],
      "name": "BONE",
      "outputs": [
        {
          "internalType": "uint256",
          "name": "",
          "type": "uint256"
        }
      ],
      "stateMutability": "view",
      "type": "function"
    },
    {
      "inputs": [],
      "name": "BPOW_PRECISION",
      "outputs": [
        {
          "internalType": "uint256",
          "name": "",
          "type": "uint256"
        }
      ],
      "stateMutability": "view",
      "type": "function"
    },
    {
      "inputs": [],
      "name": "EXIT_FEE",
      "outputs": [
        {
          "internalType": "uint256",
          "name": "",
          "type": "uint256"
        }
      ],
      "stateMutability": "view",
      "type": "function"
    },
    {
      "inputs": [],
      "name": "INIT_POOL_SUPPLY",
      "outputs": [
        {
          "internalType": "uint256",
          "name": "",
          "type": "uint256"
        }
      ],
      "stateMutability": "view",
      "type": "function"
    },
    {
      "inputs": [],
      "name": "MAX_BOUND_TOKENS",
      "outputs": [
        {
          "internalType": "uint256",
          "name": "",
          "type": "uint256"
        }
      ],
      "stateMutability": "view",
      "type": "function"
    },
    {
      "inputs": [],
      "name": "MAX_BPOW_BASE",
      "outputs": [
        {
          "internalType": "uint256",
          "name": "",
          "type": "uint256"
        }
      ],
      "stateMutability": "view",
      "type": "function"
    },
    {
      "inputs": [],
      "name": "MAX_FEE",
      "outputs": [
        {
          "internalType": "uint256",
          "name": "",
          "type": "uint256"
        }
      ],
      "stateMutability": "view",
      "type": "function"
    },
    {
      "inputs": [],
      "name": "MAX_IN_RATIO",
      "outputs": [
        {
          "internalType": "uint256",
          "name": "",
          "type": "uint256"
        }
      ],
      "stateMutability": "view",
      "type": "function"
    },
    {
      "inputs": [],
      "name": "MAX_OUT_RATIO",
      "outputs": [
        {
          "internalType": "uint256",
          "name": "",
          "type": "uint256"
        }
      ],
      "stateMutability": "view",
      "type": "function"
    },
    {
      "inputs": [],
      "name": "MAX_TOTAL_WEIGHT",
      "outputs": [
        {
          "internalType": "uint256",
          "name": "",
          "type": "uint256"
        }
      ],
      "stateMutability": "view",
      "type": "function"
    },
    {
      "inputs": [],
      "name": "MAX_WEIGHT",
      "outputs": [
        {
          "internalType": "uint256",
          "name": "",
          "type": "uint256"
        }
      ],
      "stateMutability": "view",
      "type": "function"
    },
    {
      "inputs": [],
      "name": "MIN_BALANCE",
      "outputs": [
        {
          "internalType": "uint256",
          "name": "",
          "type": "uint256"
        }
      ],
      "stateMutability": "view",
      "type": "function"
    },
    {
      "inputs": [],
      "name": "MIN_BOUND_TOKENS",
      "outputs": [
        {
          "internalType": "uint256",
          "name": "",
          "type": "uint256"
        }
      ],
      "stateMutability": "view",
      "type": "function"
    },
    {
      "inputs": [],
      "name": "MIN_BPOW_BASE",
      "outputs": [
        {
          "internalType": "uint256",
          "name": "",
          "type": "uint256"
        }
      ],
      "stateMutability": "view",
      "type": "function"
    },
    {
      "inputs": [],
      "name": "MIN_FEE",
      "outputs": [
        {
          "internalType": "uint256",
          "name": "",
          "type": "uint256"
        }
      ],
      "stateMutability": "view",
      "type": "function"
    },
    {
      "inputs": [],
      "name": "MIN_WEIGHT",
      "outputs": [
        {
          "internalType": "uint256",
          "name": "",
          "type": "uint256"
        }
      ],
      "stateMutability": "view",
      "type": "function"
    },
    {
      "inputs": [],
      "name": "_opcCollector",
      "outputs": [
        {
          "internalType": "address",
          "name": "",
          "type": "address"
        }
      ],
      "stateMutability": "view",
      "type": "function"
    },
    {
      "inputs": [],
      "name": "_publishMarketCollector",
      "outputs": [
        {
          "internalType": "address",
          "name": "",
          "type": "address"
        }
      ],
      "stateMutability": "view",
      "type": "function"
    },
    {
      "inputs": [],
      "name": "_swapPublishMarketFee",
      "outputs": [
        {
          "internalType": "uint256",
          "name": "",
          "type": "uint256"
        }
      ],
      "stateMutability": "view",
      "type": "function"
    },
    {
      "inputs": [
        {
          "internalType": "address",
          "name": "src",
          "type": "address"
        },
        {
          "internalType": "address",
          "name": "dst",
          "type": "address"
        }
      ],
      "name": "allowance",
      "outputs": [
        {
          "internalType": "uint256",
          "name": "",
          "type": "uint256"
        }
      ],
      "stateMutability": "view",
      "type": "function"
    },
    {
      "inputs": [
        {
          "internalType": "address",
          "name": "dst",
          "type": "address"
        },
        {
          "internalType": "uint256",
          "name": "amt",
          "type": "uint256"
        }
      ],
      "name": "approve",
      "outputs": [
        {
          "internalType": "bool",
          "name": "",
          "type": "bool"
        }
      ],
      "stateMutability": "nonpayable",
      "type": "function"
    },
    {
      "inputs": [
        {
          "internalType": "address",
          "name": "whom",
          "type": "address"
        }
      ],
      "name": "balanceOf",
      "outputs": [
        {
          "internalType": "uint256",
          "name": "",
          "type": "uint256"
        }
      ],
      "stateMutability": "view",
      "type": "function"
    },
    {
      "inputs": [
        {
          "internalType": "uint256[4]",
          "name": "data",
          "type": "uint256[4]"
        },
        {
          "internalType": "uint256",
          "name": "tokenAmountOut",
          "type": "uint256"
        },
        {
          "internalType": "address",
          "name": "tokenInAddress",
          "type": "address"
        },
        {
          "internalType": "uint256",
          "name": "_consumeMarketSwapFee",
          "type": "uint256"
        }
      ],
      "name": "calcInGivenOut",
      "outputs": [
        {
          "internalType": "uint256",
          "name": "tokenAmountIn",
          "type": "uint256"
        },
        {
          "internalType": "uint256",
          "name": "tokenAmountInBalance",
          "type": "uint256"
        },
        {
          "components": [
            {
              "internalType": "uint256",
              "name": "LPFee",
              "type": "uint256"
            },
            {
              "internalType": "uint256",
              "name": "oceanFeeAmount",
              "type": "uint256"
            },
            {
              "internalType": "uint256",
              "name": "publishMarketFeeAmount",
              "type": "uint256"
            },
            {
              "internalType": "uint256",
              "name": "consumeMarketFee",
              "type": "uint256"
            }
          ],
          "internalType": "struct BMath.swapfees",
          "name": "_swapfees",
          "type": "tuple"
        }
      ],
      "stateMutability": "view",
      "type": "function"
    },
    {
      "inputs": [
        {
          "internalType": "uint256[4]",
          "name": "data",
          "type": "uint256[4]"
        },
        {
          "internalType": "uint256",
          "name": "tokenAmountIn",
          "type": "uint256"
        },
        {
          "internalType": "address",
          "name": "tokenInAddress",
          "type": "address"
        },
        {
          "internalType": "uint256",
          "name": "_consumeMarketSwapFee",
          "type": "uint256"
        }
      ],
      "name": "calcOutGivenIn",
      "outputs": [
        {
          "internalType": "uint256",
          "name": "tokenAmountOut",
          "type": "uint256"
        },
        {
          "internalType": "uint256",
          "name": "balanceInToAdd",
          "type": "uint256"
        },
        {
          "components": [
            {
              "internalType": "uint256",
              "name": "LPFee",
              "type": "uint256"
            },
            {
              "internalType": "uint256",
              "name": "oceanFeeAmount",
              "type": "uint256"
            },
            {
              "internalType": "uint256",
              "name": "publishMarketFeeAmount",
              "type": "uint256"
            },
            {
              "internalType": "uint256",
              "name": "consumeMarketFee",
              "type": "uint256"
            }
          ],
          "internalType": "struct BMath.swapfees",
          "name": "_swapfees",
          "type": "tuple"
        }
      ],
      "stateMutability": "view",
      "type": "function"
    },
    {
      "inputs": [
        {
          "internalType": "address",
          "name": "tokenOut",
          "type": "address"
        },
        {
          "internalType": "uint256",
          "name": "tokenAmountOut",
          "type": "uint256"
        }
      ],
      "name": "calcPoolInSingleOut",
      "outputs": [
        {
          "internalType": "uint256",
          "name": "poolAmountIn",
          "type": "uint256"
        }
      ],
      "stateMutability": "view",
      "type": "function"
    },
    {
      "inputs": [
        {
          "internalType": "address",
          "name": "tokenIn",
          "type": "address"
        },
        {
          "internalType": "uint256",
          "name": "tokenAmountIn",
          "type": "uint256"
        }
      ],
      "name": "calcPoolOutSingleIn",
      "outputs": [
        {
          "internalType": "uint256",
          "name": "poolAmountOut",
          "type": "uint256"
        }
      ],
      "stateMutability": "view",
      "type": "function"
    },
    {
      "inputs": [
        {
          "internalType": "address",
          "name": "tokenIn",
          "type": "address"
        },
        {
          "internalType": "uint256",
          "name": "poolAmountOut",
          "type": "uint256"
        }
      ],
      "name": "calcSingleInPoolOut",
      "outputs": [
        {
          "internalType": "uint256",
          "name": "tokenAmountIn",
          "type": "uint256"
        }
      ],
      "stateMutability": "view",
      "type": "function"
    },
    {
      "inputs": [
        {
          "internalType": "address",
          "name": "tokenOut",
          "type": "address"
        },
        {
          "internalType": "uint256",
          "name": "poolAmountIn",
          "type": "uint256"
        }
      ],
      "name": "calcSingleOutPoolIn",
      "outputs": [
        {
          "internalType": "uint256",
          "name": "tokenAmountOut",
          "type": "uint256"
        }
      ],
      "stateMutability": "view",
      "type": "function"
    },
    {
      "inputs": [],
      "name": "collectMarketFee",
      "outputs": [],
      "stateMutability": "nonpayable",
      "type": "function"
    },
    {
      "inputs": [],
      "name": "collectOPC",
      "outputs": [],
      "stateMutability": "nonpayable",
      "type": "function"
    },
    {
      "inputs": [
        {
          "internalType": "address",
          "name": "",
          "type": "address"
        }
      ],
      "name": "communityFees",
      "outputs": [
        {
          "internalType": "uint256",
          "name": "",
          "type": "uint256"
        }
      ],
      "stateMutability": "view",
      "type": "function"
    },
    {
      "inputs": [],
      "name": "decimals",
      "outputs": [
        {
          "internalType": "uint8",
          "name": "",
          "type": "uint8"
        }
      ],
      "stateMutability": "view",
      "type": "function"
    },
    {
      "inputs": [
        {
          "internalType": "address",
          "name": "dst",
          "type": "address"
        },
        {
          "internalType": "uint256",
          "name": "amt",
          "type": "uint256"
        }
      ],
      "name": "decreaseApproval",
      "outputs": [
        {
          "internalType": "bool",
          "name": "",
          "type": "bool"
        }
      ],
      "stateMutability": "nonpayable",
      "type": "function"
    },
    {
      "inputs": [
        {
          "internalType": "uint256",
          "name": "poolAmountIn",
          "type": "uint256"
        },
        {
          "internalType": "uint256[]",
          "name": "minAmountsOut",
          "type": "uint256[]"
        }
      ],
      "name": "exitPool",
      "outputs": [],
      "stateMutability": "nonpayable",
      "type": "function"
    },
    {
      "inputs": [
        {
          "internalType": "uint256",
          "name": "poolAmountIn",
          "type": "uint256"
        },
        {
          "internalType": "uint256",
          "name": "minAmountOut",
          "type": "uint256"
        }
      ],
      "name": "exitswapPoolAmountIn",
      "outputs": [
        {
          "internalType": "uint256",
          "name": "tokenAmountOut",
          "type": "uint256"
        }
      ],
      "stateMutability": "nonpayable",
      "type": "function"
    },
    {
      "inputs": [
        {
          "internalType": "address",
          "name": "tokenIn",
          "type": "address"
        },
        {
          "internalType": "address",
          "name": "tokenOut",
          "type": "address"
        },
        {
          "internalType": "uint256",
          "name": "tokenAmountOut",
          "type": "uint256"
        },
        {
          "internalType": "uint256",
          "name": "_consumeMarketSwapFee",
          "type": "uint256"
        }
      ],
      "name": "getAmountInExactOut",
      "outputs": [
        {
          "internalType": "uint256",
          "name": "tokenAmountIn",
          "type": "uint256"
        },
        {
          "internalType": "uint256",
          "name": "lpFeeAmount",
          "type": "uint256"
        },
        {
          "internalType": "uint256",
          "name": "oceanFeeAmount",
          "type": "uint256"
        },
        {
          "internalType": "uint256",
          "name": "publishMarketSwapFeeAmount",
          "type": "uint256"
        },
        {
          "internalType": "uint256",
          "name": "consumeMarketSwapFeeAmount",
          "type": "uint256"
        }
      ],
      "stateMutability": "view",
      "type": "function"
    },
    {
      "inputs": [
        {
          "internalType": "address",
          "name": "tokenIn",
          "type": "address"
        },
        {
          "internalType": "address",
          "name": "tokenOut",
          "type": "address"
        },
        {
          "internalType": "uint256",
          "name": "tokenAmountIn",
          "type": "uint256"
        },
        {
          "internalType": "uint256",
          "name": "_consumeMarketSwapFee",
          "type": "uint256"
        }
      ],
      "name": "getAmountOutExactIn",
      "outputs": [
        {
          "internalType": "uint256",
          "name": "tokenAmountOut",
          "type": "uint256"
        },
        {
          "internalType": "uint256",
          "name": "lpFeeAmount",
          "type": "uint256"
        },
        {
          "internalType": "uint256",
          "name": "oceanFeeAmount",
          "type": "uint256"
        },
        {
          "internalType": "uint256",
          "name": "publishMarketSwapFeeAmount",
          "type": "uint256"
        },
        {
          "internalType": "uint256",
          "name": "consumeMarketSwapFeeAmount",
          "type": "uint256"
        }
      ],
      "stateMutability": "view",
      "type": "function"
    },
    {
      "inputs": [
        {
          "internalType": "address",
          "name": "token",
          "type": "address"
        }
      ],
      "name": "getBalance",
      "outputs": [
        {
          "internalType": "uint256",
          "name": "",
          "type": "uint256"
        }
      ],
      "stateMutability": "view",
      "type": "function"
    },
    {
      "inputs": [],
      "name": "getBaseTokenAddress",
      "outputs": [
        {
          "internalType": "address",
          "name": "",
          "type": "address"
        }
      ],
      "stateMutability": "view",
      "type": "function"
    },
    {
      "inputs": [],
      "name": "getController",
      "outputs": [
        {
          "internalType": "address",
          "name": "",
          "type": "address"
        }
      ],
      "stateMutability": "view",
      "type": "function"
    },
    {
      "inputs": [],
      "name": "getCurrentMarketFees",
      "outputs": [
        {
          "internalType": "address[]",
          "name": "",
          "type": "address[]"
        },
        {
          "internalType": "uint256[]",
          "name": "",
          "type": "uint256[]"
        }
      ],
      "stateMutability": "view",
      "type": "function"
    },
    {
      "inputs": [],
      "name": "getCurrentOPCFees",
      "outputs": [
        {
          "internalType": "address[]",
          "name": "",
          "type": "address[]"
        },
        {
          "internalType": "uint256[]",
          "name": "",
          "type": "uint256[]"
        }
      ],
      "stateMutability": "view",
      "type": "function"
    },
    {
      "inputs": [],
      "name": "getCurrentTokens",
      "outputs": [
        {
          "internalType": "address[]",
          "name": "tokens",
          "type": "address[]"
        }
      ],
      "stateMutability": "view",
      "type": "function"
    },
    {
      "inputs": [],
      "name": "getDatatokenAddress",
      "outputs": [
        {
          "internalType": "address",
          "name": "",
          "type": "address"
        }
      ],
      "stateMutability": "view",
      "type": "function"
    },
    {
      "inputs": [
        {
          "internalType": "address",
          "name": "token",
          "type": "address"
        }
      ],
      "name": "getDenormalizedWeight",
      "outputs": [
        {
          "internalType": "uint256",
          "name": "",
          "type": "uint256"
        }
      ],
      "stateMutability": "view",
      "type": "function"
    },
    {
      "inputs": [],
      "name": "getFinalTokens",
      "outputs": [
        {
          "internalType": "address[]",
          "name": "tokens",
          "type": "address[]"
        }
      ],
      "stateMutability": "view",
      "type": "function"
    },
    {
      "inputs": [],
      "name": "getId",
      "outputs": [
        {
          "internalType": "uint8",
          "name": "",
          "type": "uint8"
        }
      ],
      "stateMutability": "pure",
      "type": "function"
    },
    {
      "inputs": [],
      "name": "getMarketFee",
      "outputs": [
        {
          "internalType": "uint256",
          "name": "",
          "type": "uint256"
        }
      ],
      "stateMutability": "view",
      "type": "function"
    },
    {
      "inputs": [
        {
          "internalType": "address",
          "name": "token",
          "type": "address"
        }
      ],
      "name": "getNormalizedWeight",
      "outputs": [
        {
          "internalType": "uint256",
          "name": "",
          "type": "uint256"
        }
      ],
      "stateMutability": "view",
      "type": "function"
    },
    {
      "inputs": [],
      "name": "getNumTokens",
      "outputs": [
        {
          "internalType": "uint256",
          "name": "",
          "type": "uint256"
        }
      ],
      "stateMutability": "view",
      "type": "function"
    },
    {
      "inputs": [],
      "name": "getOPCFee",
      "outputs": [
        {
          "internalType": "uint256",
          "name": "",
          "type": "uint256"
        }
      ],
      "stateMutability": "view",
      "type": "function"
    },
    {
      "inputs": [
        {
          "internalType": "address",
          "name": "tokenIn",
          "type": "address"
        },
        {
          "internalType": "address",
          "name": "tokenOut",
          "type": "address"
        },
        {
          "internalType": "uint256",
          "name": "_consumeMarketSwapFee",
          "type": "uint256"
        }
      ],
      "name": "getSpotPrice",
      "outputs": [
        {
          "internalType": "uint256",
          "name": "spotPrice",
          "type": "uint256"
        }
      ],
      "stateMutability": "view",
      "type": "function"
    },
    {
      "inputs": [],
      "name": "getSwapFee",
      "outputs": [
        {
          "internalType": "uint256",
          "name": "",
          "type": "uint256"
        }
      ],
      "stateMutability": "view",
      "type": "function"
    },
    {
      "inputs": [],
      "name": "getTotalDenormalizedWeight",
      "outputs": [
        {
          "internalType": "uint256",
          "name": "",
          "type": "uint256"
        }
      ],
      "stateMutability": "view",
      "type": "function"
    },
    {
      "inputs": [
        {
          "internalType": "address",
          "name": "dst",
          "type": "address"
        },
        {
          "internalType": "uint256",
          "name": "amt",
          "type": "uint256"
        }
      ],
      "name": "increaseApproval",
      "outputs": [
        {
          "internalType": "bool",
          "name": "",
          "type": "bool"
        }
      ],
      "stateMutability": "nonpayable",
      "type": "function"
    },
    {
      "inputs": [
        {
          "internalType": "address",
          "name": "controller",
          "type": "address"
        },
        {
          "internalType": "address",
          "name": "factory",
          "type": "address"
        },
        {
          "internalType": "uint256[]",
          "name": "swapFees",
          "type": "uint256[]"
        },
        {
          "internalType": "bool",
          "name": "publicSwap",
          "type": "bool"
        },
        {
          "internalType": "bool",
          "name": "finalized",
          "type": "bool"
        },
        {
          "internalType": "address[2]",
          "name": "tokens",
          "type": "address[2]"
        },
        {
          "internalType": "address[2]",
          "name": "feeCollectors",
          "type": "address[2]"
        }
      ],
      "name": "initialize",
      "outputs": [
        {
          "internalType": "bool",
          "name": "",
          "type": "bool"
        }
      ],
      "stateMutability": "nonpayable",
      "type": "function"
    },
    {
      "inputs": [
        {
          "internalType": "address",
          "name": "t",
          "type": "address"
        }
      ],
      "name": "isBound",
      "outputs": [
        {
          "internalType": "bool",
          "name": "",
          "type": "bool"
        }
      ],
      "stateMutability": "view",
      "type": "function"
    },
    {
      "inputs": [],
      "name": "isFinalized",
      "outputs": [
        {
          "internalType": "bool",
          "name": "",
          "type": "bool"
        }
      ],
      "stateMutability": "view",
      "type": "function"
    },
    {
      "inputs": [],
      "name": "isInitialized",
      "outputs": [
        {
          "internalType": "bool",
          "name": "",
          "type": "bool"
        }
      ],
      "stateMutability": "view",
      "type": "function"
    },
    {
      "inputs": [],
      "name": "isPublicSwap",
      "outputs": [
        {
          "internalType": "bool",
          "name": "",
          "type": "bool"
        }
      ],
      "stateMutability": "view",
      "type": "function"
    },
    {
      "inputs": [
        {
          "internalType": "uint256",
          "name": "poolAmountOut",
          "type": "uint256"
        },
        {
          "internalType": "uint256[]",
          "name": "maxAmountsIn",
          "type": "uint256[]"
        }
      ],
      "name": "joinPool",
      "outputs": [],
      "stateMutability": "nonpayable",
      "type": "function"
    },
    {
      "inputs": [
        {
          "internalType": "uint256",
          "name": "tokenAmountIn",
          "type": "uint256"
        },
        {
          "internalType": "uint256",
          "name": "minPoolAmountOut",
          "type": "uint256"
        }
      ],
      "name": "joinswapExternAmountIn",
      "outputs": [
        {
          "internalType": "uint256",
          "name": "poolAmountOut",
          "type": "uint256"
        }
      ],
      "stateMutability": "nonpayable",
      "type": "function"
    },
    {
      "inputs": [],
      "name": "name",
      "outputs": [
        {
          "internalType": "string",
          "name": "",
          "type": "string"
        }
      ],
      "stateMutability": "view",
      "type": "function"
    },
    {
      "inputs": [
        {
          "internalType": "address",
          "name": "",
          "type": "address"
        }
      ],
      "name": "publishMarketFees",
      "outputs": [
        {
          "internalType": "uint256",
          "name": "",
          "type": "uint256"
        }
      ],
      "stateMutability": "view",
      "type": "function"
    },
    {
      "inputs": [
        {
          "internalType": "uint256",
          "name": "swapFee",
          "type": "uint256"
        }
      ],
      "name": "setSwapFee",
      "outputs": [],
      "stateMutability": "nonpayable",
      "type": "function"
    },
    {
      "inputs": [
        {
          "internalType": "address",
          "name": "datatokenAddress",
          "type": "address"
        },
        {
          "internalType": "uint256",
          "name": "datatokenAmount",
          "type": "uint256"
        },
        {
          "internalType": "uint256",
          "name": "datatokenWeight",
          "type": "uint256"
        },
        {
          "internalType": "address",
          "name": "baseTokenAddress",
          "type": "address"
        },
        {
          "internalType": "uint256",
          "name": "baseTokenAmount",
          "type": "uint256"
        },
        {
          "internalType": "uint256",
          "name": "baseTokenWeight",
          "type": "uint256"
        }
      ],
      "name": "setup",
      "outputs": [],
      "stateMutability": "nonpayable",
      "type": "function"
    },
    {
      "inputs": [
        {
          "internalType": "address[3]",
          "name": "tokenInOutMarket",
          "type": "address[3]"
        },
        {
          "internalType": "uint256[4]",
          "name": "amountsInOutMaxFee",
          "type": "uint256[4]"
        }
      ],
      "name": "swapExactAmountIn",
      "outputs": [
        {
          "internalType": "uint256",
          "name": "tokenAmountOut",
          "type": "uint256"
        },
        {
          "internalType": "uint256",
          "name": "spotPriceAfter",
          "type": "uint256"
        }
      ],
      "stateMutability": "nonpayable",
      "type": "function"
    },
    {
      "inputs": [
        {
          "internalType": "address[3]",
          "name": "tokenInOutMarket",
          "type": "address[3]"
        },
        {
          "internalType": "uint256[4]",
          "name": "amountsInOutMaxFee",
          "type": "uint256[4]"
        }
      ],
      "name": "swapExactAmountOut",
      "outputs": [
        {
          "internalType": "uint256",
          "name": "tokenAmountIn",
          "type": "uint256"
        },
        {
          "internalType": "uint256",
          "name": "spotPriceAfter",
          "type": "uint256"
        }
      ],
      "stateMutability": "nonpayable",
      "type": "function"
    },
    {
      "inputs": [],
      "name": "symbol",
      "outputs": [
        {
          "internalType": "string",
          "name": "",
          "type": "string"
        }
      ],
      "stateMutability": "view",
      "type": "function"
    },
    {
      "inputs": [],
      "name": "totalSupply",
      "outputs": [
        {
          "internalType": "uint256",
          "name": "",
          "type": "uint256"
        }
      ],
      "stateMutability": "view",
      "type": "function"
    },
    {
      "inputs": [
        {
          "internalType": "address",
          "name": "dst",
          "type": "address"
        },
        {
          "internalType": "uint256",
          "name": "amt",
          "type": "uint256"
        }
      ],
      "name": "transfer",
      "outputs": [
        {
          "internalType": "bool",
          "name": "",
          "type": "bool"
        }
      ],
      "stateMutability": "nonpayable",
      "type": "function"
    },
    {
      "inputs": [
        {
          "internalType": "address",
          "name": "src",
          "type": "address"
        },
        {
          "internalType": "address",
          "name": "dst",
          "type": "address"
        },
        {
          "internalType": "uint256",
          "name": "amt",
          "type": "uint256"
        }
      ],
      "name": "transferFrom",
      "outputs": [
        {
          "internalType": "bool",
          "name": "",
          "type": "bool"
        }
      ],
      "stateMutability": "nonpayable",
      "type": "function"
    },
    {
      "inputs": [
        {
          "internalType": "address",
          "name": "_newCollector",
          "type": "address"
        },
        {
          "internalType": "uint256",
          "name": "_newSwapFee",
          "type": "uint256"
        }
      ],
      "name": "updatePublishMarketFee",
      "outputs": [],
      "stateMutability": "nonpayable",
      "type": "function"
    }
  ],
  "bytecode": "0x60c0604052601360808190527f42616c616e63657220506f6f6c20546f6b656e0000000000000000000000000060a09081526200004091600a91906200008f565b506040805180820190915260038082526210941560ea1b60209092019182526200006d91600b916200008f565b50600c805460ff191660121790553480156200008857600080fd5b5062000172565b8280546200009d9062000135565b90600052602060002090601f016020900481019282620000c157600085556200010c565b82601f10620000dc57805160ff19168380011785556200010c565b828001600101855582156200010c579182015b828111156200010c578251825591602001919060010190620000ef565b506200011a9291506200011e565b5090565b5b808211156200011a57600081556001016200011f565b600181811c908216806200014a57607f821691505b602082108114156200016c57634e487b7160e01b600052602260045260246000fd5b50919050565b615b4b80620001826000396000f3fe608060405234801561001057600080fd5b50600436106104335760003560e01c80638d4e408311610236578063c070a6d81161013b578063cd2ed8fb116100c3578063ec09302111610087578063ec0930211461092e578063f1b8a9b714610936578063f8b2cb4f14610949578063fde924f71461095c578063ff9b18501461096e57600080fd5b8063cd2ed8fb146108d2578063d4cadf68146108da578063d73dd623146108e2578063dd62ed3e146108f5578063e4a28a521461049a57600080fd5b8063c6580d121161010a578063c6580d1214610889578063c98a59cf14610891578063ca6ce9e8146108a4578063caa01148146108b7578063cc77828d146108ca57600080fd5b8063c070a6d814610846578063c36596a6146104ed578063c421a3fc14610859578063c44a42831461088157600080fd5b8063ab77a2de116101be578063ba019dab1161018d578063ba019dab14610803578063bc063e1a1461080b578063bc694ea214610813578063be3bbd2e1461081b578063bf7db2361461083057600080fd5b8063ab77a2de146107e0578063b02f0b73146107e8578063b0e0d136146107fb578063b7b800a4146107fb57600080fd5b806395a1f2d01161020557806395a1f2d01461075c57806395d89b41146107aa578063992e2a92146107b2578063a3b3a16d146107ba578063a9059cbb146107cd57600080fd5b80638d4e408314610727578063936c3477146107395780639381cd2b14610741578063948d8ce61461074957600080fd5b8063392e53cd1161033c578063638c9e95116102c45780637a284be4116102935780637a284be4146106db5780637c5918b3146106e457806380ca7308146107045780638329ab331461070c578063867378c51461071f57600080fd5b8063638c9e9514610684578063661884631461069757806370a08231146106aa57806376c7a3c7146106d357600080fd5b80634df947d01161030b5780634df947d01461063e5780634f69c0d41461064f5780635c3f1532146106625780635d1ca631146106755780635e123add1461067c57600080fd5b8063392e53cd146105f55780633950b3fd14610607578063430ed5d01461061a578063458c3fb51461062d57600080fd5b8063218b5382116103bf5780632f37b6241161038e5780632f37b62414610552578063300621921461057e5780633018205f1461059e578063313ce567146105c957806334e19907146105e257600080fd5b8063218b5382146104ed57806323b872dd146104fc57806329b88a6a1461050f5780632eebd6ae1461051757600080fd5b806309ef3f5b1161040657806309ef3f5b146104a257806312989260146104b757806318160ddd146104ca578063189d00ca146104d257806318f9722a146104da57600080fd5b806306fdde0314610438578063079492d414610456578063095ea7b31461047757806309a3bbe41461049a575b600080fd5b610440610981565b60405161044d9190615376565b60405180910390f35b6104696104643660046153c0565b610a13565b60405190815260200161044d565b61048a6104853660046153fc565b610aa6565b604051901515815260200161044d565b610469610b01565b6104b56104b0366004615426565b610b17565b005b6104696104c536600461547e565b610d53565b600954610469565b610469611178565b6104b56104e83660046153fc565b61118f565b610469670de0b6b3a764000081565b61048a61050a3660046153c0565b6112ff565b610469611453565b61052a6105253660046154a0565b6114cd565b604080519586526020860194909452928401919091526060830152608082015260a00161044d565b61048a6105603660046154e2565b6001600160a01b031660009081526010602052604090205460ff1690565b61046961058c3660046154e2565b60056020526000908152604090205481565b600c546201000090046001600160a01b03165b6040516001600160a01b03909116815260200161044d565b600c5460ff165b60405160ff909116815260200161044d565b6104b56105f03660046154fd565b6115a6565b601254600160a01b900460ff1661048a565b6104696106153660046153fc565b6116a2565b6104696106283660046153fc565b61170a565b6003546001600160a01b03166105b1565b6004546001600160a01b03166105b1565b6104b561065d36600461555b565b61176a565b600e546105b1906001600160a01b031681565b60016105d0565b600054610469565b600d546105b1906001600160a01b031681565b61048a6106a53660046153fc565b6119b1565b6104696106b83660046154e2565b6001600160a01b031660009081526007602052604090205490565b610469611a87565b61046960005481565b6104696106f23660046154e2565b60066020526000908152604090205481565b6104b5611a9c565b61046961071a36600461547e565b611c2e565b610469612013565b600e54600160a01b900460ff1661048a565b61046961202a565b61046961205c565b6104696107573660046154e2565b61206f565b61076f61076a3660046155bd565b6120c6565b6040805193845260208085019390935281518482015291810151606080850191909152918101516080840152015160a082015260c00161044d565b61044061226f565b61046961227e565b6104696107c83660046153fc565b61229c565b61048a6107db3660046153fc565b6122fc565b6104b5612312565b6104b56107f636600461555b565b612480565b610469600281565b610469600181565b6104696126a4565b6104696126b7565b6108236126d6565b60405161044d919061569c565b610838612789565b60405161044d9291906156af565b61048a610854366004615725565b6128f9565b61086c6108673660046157d2565b612bc5565b6040805192835260208301919091520161044d565b61083861324d565b610469600081565b61086c61089f3660046157d2565b6133b2565b61076f6108b23660046155bd565b613985565b61052a6108c53660046154a0565b613b29565b610823613bd4565b600f54610469565b600154610469565b61048a6108f03660046153fc565b613bff565b610469610903366004615814565b6001600160a01b03918216600090815260086020908152604080832093909416825291909152205490565b610469613c72565b6104696109443660046154e2565b613c85565b6104696109573660046154e2565b613ce3565b600c54600160b01b900460ff1661048a565b61046961097c3660046153fc565b613d36565b6060600a805461099090615847565b80601f01602080910402602001604051908101604052809291908181526020018280546109bc90615847565b8015610a095780601f106109de57610100808354040283529160200191610a09565b820191906000526020600020905b8154815290600101906020018083116109ec57829003601f168201915b5050505050905090565b600c54600090610100900460ff1615610a475760405162461bcd60e51b8152600401610a3e90615882565b60405180910390fd5b610a5084613d96565b610a5983613d96565b6001600160a01b03808516600090815260106020526040808220928616825290206003808301546002808501549284015490840154610a9a93919088613df1565b925050505b9392505050565b3360008181526008602090815260408083206001600160a01b03871680855292528083208590555191929091600080516020615af683398151915290610aef9086815260200190565b60405180910390a35060015b92915050565b610b14670de0b6b3a764000060326158bd565b81565b600c54610100900460ff1615610b3f5760405162461bcd60e51b8152600401610a3e90615882565b600c805461010061ff001990911617908190556201000090046001600160a01b03163314610ba85760405162461bcd60e51b815260206004820152601660248201527522a9292fa4a72b20a624a22fa1a7a72a2927a62622a960511b6044820152606401610a3e565b6003546001600160a01b03878116911614610c055760405162461bcd60e51b815260206004820152601d60248201527f4552525f494e56414c49445f44415441544f4b454e5f414444524553530000006044820152606401610a3e565b6004546001600160a01b03848116911614610c625760405162461bcd60e51b815260206004820152601d60248201527f4552525f494e56414c49445f62617365546f6b656e5f414444524553530000006044820152606401610a3e565b610c6d868686613e7d565b604080518681524260208201526001600160a01b038816913391600080516020615ad6833981519152910160405180910390a3610cab838383613e7d565b604080518381524260208201526001600160a01b038516913391600080516020615ad6833981519152910160405180910390a3610ce661406c565b6040805183815260208101839052908101869052606081018590526001600160a01b03808816919085169033907fbece8b4dcdbe446dd65a9288154698e067e3e91de17a1a408c2f531b9f845d739060800160405180910390a45050600c805461ff001916905550505050565b600c54600090610100900460ff1615610d7e5760405162461bcd60e51b8152600401610a3e90615882565b600c805461ff001916610100179055600e54600160a01b900460ff16610db65760405162461bcd60e51b8152600401610a3e906158dc565b600454610dcb906001600160a01b0316613d96565b6004546001600160a01b0316600090815260106020526040902060038101546002820154600954601154610e0293929190886140cb565b915082821015610e245760405162461bcd60e51b8152600401610a3e90615907565b6004546001600160a01b03166000908152601060205260409020600390810154610e6a91610e5a90670de0b6b3a7640000615944565b610e65906001615958565b614195565b821115610ead5760405162461bcd60e51b81526020600482015260116024820152704552525f4d41585f4f55545f524154494f60781b6044820152606401610a3e565b610ebb81600301548361427a565b6003820155600454604080518481524260208201526001600160a01b039092169133917f9d9058fd2f25ccc389fec7720abef0ca83472f5abfafd5f10d37f51e6a0493f3910160405180910390a3604051848152600080516020615ab68339815191529060200160405180910390a1610f3433856142d7565b610f3d846142e1565b600454610f54906001600160a01b031633846142ea565b601254600354604051630d098ab360e11b81526001600160a01b03918216600482015260248101879052911690631a13156690604401602060405180830381865afa158015610fa7573d6000803e3d6000fd5b505050506040513d601f19601f82011682018060405250810190610fcb9190615970565b1561116657600380546001600160a01b03166000908152601060205260408120918201546002830154600954601154611007939291908a6140cb565b905061101782600301548261427a565b60038381019190915554600c54604080518481524260208201526001600160a01b039384169362010000909304909216917f9d9058fd2f25ccc389fec7720abef0ca83472f5abfafd5f10d37f51e6a0493f3910160405180910390a3600c5461108f906201000090046001600160a01b0316876142d7565b611098866142e1565b600354600c546110bb916001600160a01b039081169162010000900416836142ea565b60125460035460405163054a976360e41b81526001600160a01b03918216600482015260248101849052604481018990529116906354a9763090606401600060405180830381600087803b15801561111257600080fd5b505af1158015611126573d6000803e3d6000fd5b505050507f87b3975661762d852ddf2eeaad6a43b2d93777de7b3b7bdb634283df324561188660405161115b91815260200190565b60405180910390a150505b50600c805461ff001916905592915050565b610b146402540be400670de0b6b3a7640000615944565b600d546001600160a01b031633146111e15760405162461bcd60e51b815260206004820152601560248201527427a7262c9026a0a925a2aa1021a7a62622a1aa27a960591b6044820152606401610a3e565b6001600160a01b0382166112375760405162461bcd60e51b815260206004820152601d60248201527f496e76616c6964205f6e6577436f6c6c6563746f7220616464726573730000006044820152606401610a3e565b61124c620f4240670de0b6b3a7640000615944565b81101561126b5760405162461bcd60e51b8152600401610a3e9061598d565b61127e600a670de0b6b3a7640000615944565b81111561129d5760405162461bcd60e51b8152600401610a3e906159b2565b600d80546001600160a01b0319166001600160a01b03841690811790915560008290556040517f5e3e722dbd3b6b8071b78568ac80cd0e8ff92e4fb3024e755d504d8f7c2f6f09916112f39133919085906159d7565b60405180910390a15050565b6000336001600160a01b038516148061133b57506001600160a01b03841660009081526008602090815260408083203384529091529020548211155b61137f5760405162461bcd60e51b815260206004820152601560248201527422a9292fa12a27a5a2a72fa120a22fa1a0a62622a960591b6044820152606401610a3e565b61138a8484846142fe565b336001600160a01b038516148015906113c857506001600160a01b038416600090815260086020908152604080832033845290915290205460001914155b15611449576001600160a01b03841660009081526008602090815260408083203384529091529020546113fb908361427a565b6001600160a01b038581166000908152600860209081526040808320338085529083529281902085905551938452918616929091600080516020615af6833981519152910160405180910390a35b5060019392505050565b6002546004805460405163b8421e2b60e01b81526001600160a01b0391821692810192909252600092169063b8421e2b90602401602060405180830381865afa1580156114a4573d6000803e3d6000fd5b505050506040513d601f19601f820116820180604052508101906114c891906159fb565b905090565b60008060008060006114de89613d96565b6114e788613d96565b604080516080810182526001600160a01b03808c16600090815260106020818152858320600380820154875260029182015483880152948f1680855283835287852095860154978701979097529583525292015460608201529061156c6040518060800160405280600081526020016000815260200160008152602001600081525090565b611578838b8e8c6120c6565b805160208201516040830151606090930151949c50909a509850965090945050505050945094509450945094565b600c546201000090046001600160a01b031633146115fb5760405162461bcd60e51b815260206004820152601260248201527122a9292fa727aa2fa1a7a72a2927a62622a960711b6044820152606401610a3e565b611610620f4240670de0b6b3a7640000615944565b81101561162f5760405162461bcd60e51b8152600401610a3e9061598d565b611642600a670de0b6b3a7640000615944565b8111156116615760405162461bcd60e51b8152600401610a3e906159b2565b600181905560408051338152602081018390527fbca0d601c32979eebac4e8cd06375b6e45d39af80fc06a33f366425b450dfb69910160405180910390a150565b6001600160a01b03821660009081526010602090815260408083208151608081018352815460ff16151581526001820154938101939093526002810154918301829052600301546060830181905260095460115461170293919087614410565b949350505050565b6001600160a01b03821660009081526010602090815260408083208151608081018352815460ff161515815260018201549381019390935260028101549183018290526003015460608301819052600954601154611702939190876140cb565b600c54610100900460ff16156117925760405162461bcd60e51b8152600401610a3e90615882565b600c805461ff001916610100179055600e54600160a01b900460ff166117ca5760405162461bcd60e51b8152600401610a3e906158dc565b60006117d560095490565b905060006117e385836144a5565b9050806118025760405162461bcd60e51b8152600401610a3e90615a14565b60005b600f54811015611969576000600f828154811061182457611824615a3d565b60009182526020808320909101546001600160a01b031680835260109091526040822060030154909250906118598583614195565b9050806118785760405162461bcd60e51b8152600401610a3e90615a14565b87878581811061188a5761188a615a3d565b905060200201358111156118cf5760405162461bcd60e51b815260206004820152600c60248201526b22a9292fa624a6a4aa2fa4a760a11b6044820152606401610a3e565b6001600160a01b0383166000908152601060205260409020600301546118f590826145bd565b6001600160a01b038416600081815260106020526040908190206003019290925590513390600080516020615ad6833981519152906119409085904290918252602082015260400190565b60405180910390a361195383338361460f565b505050808061196190615a53565b915050611805565b5061197385614756565b61197d338661475f565b604051858152600080516020615ab6833981519152906020015b60405180910390a15050600c805461ff0019169055505050565b3360009081526008602090815260408083206001600160a01b038616845290915281205480831115611a06573360009081526008602090815260408083206001600160a01b0388168452909152812055611a35565b611a10818461427a565b3360009081526008602090815260408083206001600160a01b03891684529091529020555b3360008181526008602090815260408083206001600160a01b03891680855290835292819020549051908152919291600080516020615af6833981519152910160405180910390a35060019392505050565b610b14620f4240670de0b6b3a7640000615944565b6000611aa66126d6565b905060005b8151811015611c2a57600060066000848481518110611acc57611acc615a3d565b60200260200101516001600160a01b03166001600160a01b03168152602001908152602001600020549050600060066000858581518110611b0f57611b0f615a3d565b60200260200101516001600160a01b03166001600160a01b0316815260200190815260200160002081905550611b87600d60009054906101000a90046001600160a01b031682858581518110611b6757611b67615a3d565b60200260200101516001600160a01b03166147699092919063ffffffff16565b7fbaf1ab77be65c7abf8fcd922bfcf0a749f556ac1a4cdf39c126ffaa1851edb5633600d60009054906101000a90046001600160a01b0316858581518110611bd157611bd1615a3d565b602002602001015184604051611c0f94939291906001600160a01b039485168152928416602084015292166040820152606081019190915260800190565b60405180910390a15080611c2281615a53565b915050611aab565b5050565b600c54600090610100900460ff1615611c595760405162461bcd60e51b8152600401610a3e90615882565b600c805461ff001916610100179055600e54600160a01b900460ff16611c915760405162461bcd60e51b8152600401610a3e906158dc565b600454611ca6906001600160a01b0316613d96565b6004546001600160a01b0316600090815260106020526040902060030154611cdb90610e656002670de0b6b3a7640000615944565b831115611d1d5760405162461bcd60e51b815260206004820152601060248201526f4552525f4d41585f494e5f524154494f60801b6044820152606401610a3e565b6004546001600160a01b0316600090815260106020526040902060038101546002820154600954601154611d549392919088614410565b915082821015611d765760405162461bcd60e51b8152600401610a3e90615907565b611d848160030154856145bd565b6003820155600454604080518681524260208201526001600160a01b03909216913391600080516020615ad6833981519152910160405180910390a3604051828152600080516020615ab68339815191529060200160405180910390a1611dea82614756565b611df4338361475f565b600454611e0b906001600160a01b0316338661460f565b600380546001600160a01b031660009081526010602052604081209182015460028301546009546011548493611e459390929091896147cc565b601254600354604051632afbbacb60e01b81526001600160a01b039182166004820152602481018490529293501690632afbbacb90604401602060405180830381865afa158015611e9a573d6000803e3d6000fd5b505050506040513d601f19601f82011682018060405250810190611ebe9190615970565b15611ffe5760125460035460405163ebedb8b360e01b81526001600160a01b0391821660048201526024810184905291169063ebedb8b390604401600060405180830381600087803b158015611f1357600080fd5b505af1158015611f27573d6000803e3d6000fd5b50505050611f398360030154826145bd565b60038481019190915554600c54604080518481524260208201526001600160a01b03938416936201000090930490921691600080516020615ad6833981519152910160405180910390a36040518581527f87b3975661762d852ddf2eeaad6a43b2d93777de7b3b7bdb634283df324561189060200160405180910390a1611fbf85614756565b600c54611fdb906201000090046001600160a01b03168661475f565b600354600c54611ffe916001600160a01b0390811691620100009004168361460f565b50505050600c805461ff001916905592915050565b610b1464e8d4a51000670de0b6b3a7640000615944565b600c54600090610100900460ff16156120555760405162461bcd60e51b8152600401610a3e90615882565b5060115490565b610b14670de0b6b3a764000060646158bd565b600c54600090610100900460ff161561209a5760405162461bcd60e51b8152600401610a3e90615882565b6120a382613d96565b506001600160a01b0381166000908152601060205260409020600201545b919050565b6000806120f46040518060800160405280600081526020016000815260200160008152602001600081525090565b600061210f88600160200201518960035b60200201516144a5565b90506121328761212d89610e65670de0b6b3a764000061212d611453565b61427a565b8260200181815250506121578761212d89610e65670de0b6b3a764000060005461427a565b82604001818152505061217c8761212d89610e65670de0b6b3a764000060015461427a565b82526121988761212d81610e65670de0b6b3a76400008a61427a565b60608301526000805486906121ab611453565b6001546121b89190615958565b6121c29190615958565b6121cc9190615958565b905060006121e2670de0b6b3a76400008361427a565b90506121ee8982614195565b8a519091506000906122099061220481856145bd565b6144a5565b905060006122178286614866565b9050600061222d670de0b6b3a76400008361427a565b90506122408d6002602002015182614195565b98508861225b8d89604001518a6020015161212d9190615958565b985098505050505050509450945094915050565b6060600b805461099090615847565b6122916003670de0b6b3a7640000615944565b610b14906001615958565b6001600160a01b03821660009081526010602090815260408083208151608081018352815460ff16151581526001820154938101939093526002810154918301829052600301546060830181905260095460115461170293919087614992565b60006123093384846142fe565b50600192915050565b600061231c6126d6565b905060005b8151811015611c2a5760006005600084848151811061234257612342615a3d565b60200260200101516001600160a01b03166001600160a01b0316815260200190815260200160002054905060006005600085858151811061238557612385615a3d565b60200260200101516001600160a01b03166001600160a01b03168152602001908152602001600020819055506123dd600e60009054906101000a90046001600160a01b031682858581518110611b6757611b67615a3d565b7fed2b0288692cfc6d01c94a67a53721792f59c3d1388221f8aa4f66c8d2808dde33600e60009054906101000a90046001600160a01b031685858151811061242757612427615a3d565b60200260200101518460405161246594939291906001600160a01b039485168152928416602084015292166040820152606081019190915260800190565b60405180910390a1508061247881615a53565b915050612321565b600c54610100900460ff16156124a85760405162461bcd60e51b8152600401610a3e90615882565b600c805461ff001916610100179055600e54600160a01b900460ff166124e05760405162461bcd60e51b8152600401610a3e906158dc565b60006124eb60095490565b905060006124f985836144a5565b9050806125185760405162461bcd60e51b8152600401610a3e90615a14565b61252233866142d7565b61252b856142e1565b60005b600f54811015612685576000600f828154811061254d5761254d615a3d565b60009182526020808320909101546001600160a01b031680835260109091526040822060030154909250906125828583614195565b9050806125a15760405162461bcd60e51b8152600401610a3e90615a14565b8787858181106125b3576125b3615a3d565b905060200201358110156125d95760405162461bcd60e51b8152600401610a3e90615907565b6001600160a01b0383166000908152601060205260409020600301546125ff908261427a565b6001600160a01b0384166000818152601060205260409081902060030192909255905133907f9d9058fd2f25ccc389fec7720abef0ca83472f5abfafd5f10d37f51e6a0493f39061265c9085904290918252602082015260400190565b60405180910390a361266f8333836142ea565b505050808061267d90615a53565b91505061252e565b50604051858152600080516020615ab683398151915290602001611997565b610b14600a670de0b6b3a7640000615944565b60016126cc670de0b6b3a764000060026158bd565b610b149190615a6e565b600c54606090610100900460ff16156127015760405162461bcd60e51b8152600401610a3e90615882565b600e54600160a01b900460ff1661272a5760405162461bcd60e51b8152600401610a3e906158dc565b600f805480602002602001604051908101604052809291908181526020018280548015610a0957602002820191906000526020600020905b81546001600160a01b03168152600190910190602001808311612762575050505050905090565b60608060006127966126d6565b90506000815167ffffffffffffffff8111156127b4576127b46155a7565b6040519080825280602002602001820160405280156127dd578160200160208202803683370190505b5090506000825167ffffffffffffffff8111156127fc576127fc6155a7565b604051908082528060200260200182016040528015612825578160200160208202803683370190505b50905060005b83518110156128ee5783818151811061284657612846615a3d565b602002602001015183828151811061286057612860615a3d565b60200260200101906001600160a01b031690816001600160a01b0316815250506005600085838151811061289657612896615a3d565b60200260200101516001600160a01b03166001600160a01b03168152602001908152602001600020548282815181106128d1576128d1615a3d565b6020908102919091010152806128e681615a53565b91505061282b565b509094909350915050565b601254600090600160a01b900460ff16156129565760405162461bcd60e51b815260206004820152601760248201527f4552525f414c52454144595f494e495449414c495a45440000000000000000006044820152606401610a3e565b6001600160a01b0389166129ac5760405162461bcd60e51b815260206004820152601e60248201527f4552525f494e56414c49445f434f4e54524f4c4c45525f4144445245535300006044820152606401610a3e565b6001600160a01b038816612a025760405162461bcd60e51b815260206004820152601b60248201527f4552525f494e56414c49445f464143544f52595f4144445245535300000000006044820152606401610a3e565b612a17620f4240670de0b6b3a7640000615944565b87876000818110612a2a57612a2a615a3d565b905060200201351015612a4f5760405162461bcd60e51b8152600401610a3e9061598d565b612a62600a670de0b6b3a7640000615944565b87876000818110612a7557612a75615a3d565b905060200201351115612a9a5760405162461bcd60e51b8152600401610a3e906159b2565b612aaf620f4240670de0b6b3a7640000615944565b87876001818110612ac257612ac2615a3d565b905060200201351015612ae75760405162461bcd60e51b8152600401610a3e9061598d565b612afa600a670de0b6b3a7640000615944565b87876001818110612b0d57612b0d615a3d565b905060200201351115612b325760405162461bcd60e51b8152600401610a3e906159b2565b612bb88989898980806020026020016040519081016040528093929190818152602001838360200280828437600092019190915250506040805180820182528c93508b9250908a9060029083908390808284376000920191909152505060408051808201825291508a906002908390839080828437600092019190915250614a51915050565b9998505050505050505050565b600c546000908190610100900460ff1615612bf25760405162461bcd60e51b8152600401610a3e90615882565b600c805461ff001916610100179055600e54600160a01b900460ff16612c2a5760405162461bcd60e51b8152600401610a3e906158dc565b612c498460005b602002016020810190612c4491906154e2565b613d96565b612c54846001612c31565b6000601081612c6660208801886154e2565b6001600160a01b03168152602081019190915260400160009081209150601081876001602002016020810190612c9c91906154e2565b6001600160a01b03166001600160a01b031681526020019081526020016000209050612cdb82600301546002670de0b6b3a7640000610e659190615944565b85351115612d1e5760405162461bcd60e51b815260206004820152601060248201526f4552525f4d41585f494e5f524154494f60801b6044820152606401610a3e565b6000612d5483600301548460020154846003015485600201548a600360048110612d4a57612d4a615a3d565b6020020135613df1565b90506040860135811115612da05760405162461bcd60e51b81526020600482015260136024820152724552525f4241445f4c494d49545f505249434560681b6044820152606401610a3e565b600080604051806080016040528086600301548152602001866002015481526020018560030154815260200185600201548152509050612e016040518060800160405280600081526020016000815260200160008152602001600081525090565b612e1e828a35612e1460208e018e6154e2565b60608d01356120c6565b91995093509050612e6d600560008c815b602002016020810190612e4291906154e2565b6001600160a01b03166001600160a01b031681526020019081526020016000205482602001516145bd565b60056000612e7e60208e018e6154e2565b6001600160a01b03166001600160a01b0316815260200190815260200160002081905550612efa600660008c600060038110612ebc57612ebc615a3d565b602002016020810190612ecf91906154e2565b6001600160a01b03166001600160a01b031681526020019081526020016000205482604001516145bd565b60066000612f0b60208e018e6154e2565b6001600160a01b03166001600160a01b03168152602001908152602001600020819055507f53a9dc73d01196a9c660d761bc5ec77b945340a34b5b52e510760af2dab1c0f181600001518260200151836040015184606001518e600060038110612f7757612f77615a3d565b602002016020810190612f8a91906154e2565b6040805195865260208601949094529284019190915260608301526001600160a01b0316608082015260a00160405180910390a16020890135881015612fe25760405162461bcd60e51b8152600401610a3e90615907565b612ff08660030154846145bd565b866003018190555061300685600301548961427a565b856003018190555061303886600301548760020154876003015488600201548d600360048110612d4a57612d4a615a3d565b96508387101561305a5760405162461bcd60e51b8152600401610a3e90615a14565b60408901358711156130a05760405162461bcd60e51b815260206004820152600f60248201526e4552525f4c494d49545f505249434560881b6044820152606401610a3e565b6130ab8935896144a5565b8411156130ca5760405162461bcd60e51b8152600401610a3e90615a14565b6130da60408b0160208c016154e2565b6001600160a01b03166130f060208c018c6154e2565b604080518c358152602081018c9052428183015290516001600160a01b03929092169133917f50ef2fc267012b5c84b56835f16ffd5331ac5a151a3760d74908721ba78b0efe919081900360600190a461315861315060208c018c6154e2565b338b3561460f565b600061317d8a3561212d81610e65670de0b6b3a76400008f60035b602002013561427a565b905060608a013515613218576131c18b60025b6020020160208101906131a391906154e2565b826131b160208f018f6154e2565b6001600160a01b03169190614769565b7f6d11837f46cc09b011cf4aae09fcade046c020aac088090ae4f77ff67b7079726131f260608d0160408e016154e2565b6131ff60208e018e6154e2565b8360405161320f939291906159d7565b60405180910390a15b61323261322b60408d0160208e016154e2565b338b6142ea565b50505050505050600c805461ff001916905590939092509050565b606080600061325a6126d6565b90506000815167ffffffffffffffff811115613278576132786155a7565b6040519080825280602002602001820160405280156132a1578160200160208202803683370190505b5090506000825167ffffffffffffffff8111156132c0576132c06155a7565b6040519080825280602002602001820160405280156132e9578160200160208202803683370190505b50905060005b83518110156128ee5783818151811061330a5761330a615a3d565b602002602001015183828151811061332457613324615a3d565b60200260200101906001600160a01b031690816001600160a01b0316815250506006600085838151811061335a5761335a615a3d565b60200260200101516001600160a01b03166001600160a01b031681526020019081526020016000205482828151811061339557613395615a3d565b6020908102919091010152806133aa81615a53565b9150506132ef565b600c546000908190610100900460ff16156133df5760405162461bcd60e51b8152600401610a3e90615882565b600c805461ff001916610100179055600e54600160a01b900460ff166134175760405162461bcd60e51b8152600401610a3e906158dc565b613422846000612c31565b61342d846001612c31565b600060108161343f60208801886154e2565b6001600160a01b0316815260208101919091526040016000908120915060108187600160200201602081019061347591906154e2565b6001600160a01b03166001600160a01b0316815260200190815260200160002090506134b481600301546003670de0b6b3a7640000610e5a9190615944565b602086013511156134fb5760405162461bcd60e51b81526020600482015260116024820152704552525f4d41585f4f55545f524154494f60781b6044820152606401610a3e565b600061352783600301548460020154846003015485600201548a600360048110612d4a57612d4a615a3d565b905060408601358111156135735760405162461bcd60e51b81526020600482015260136024820152724552525f4241445f4c494d49545f505249434560681b6044820152606401610a3e565b6000806040518060800160405280866003015481526020018660020154815260200185600301548152602001856002015481525090506135d46040518060800160405280600081526020016000815260200160008152602001600081525090565b6135f5826020808c0135906135eb908e018e6154e2565b60608d0135613985565b9199509350905061360a600560008c81612e2f565b6005600061361b60208e018e6154e2565b6001600160a01b03166001600160a01b0316815260200190815260200160002081905550613659600660008c600060038110612ebc57612ebc615a3d565b6006600061366a60208e018e6154e2565b6001600160a01b03166001600160a01b03168152602001908152602001600020819055507f53a9dc73d01196a9c660d761bc5ec77b945340a34b5b52e510760af2dab1c0f181600001518260200151836040015184606001518e6000600381106136d6576136d6615a3d565b6020020160208101906136e991906154e2565b6040805195865260208601949094529284019190915260608301526001600160a01b0316608082015260a00160405180910390a1883588111561375d5760405162461bcd60e51b815260206004820152600c60248201526b22a9292fa624a6a4aa2fa4a760a11b6044820152606401610a3e565b61376b8660030154846145bd565b600380880191909155850154613783908a6001613173565b85600301819055506137b586600301548760020154876003015488600201548d600360048110612d4a57612d4a615a3d565b9650838710156137d75760405162461bcd60e51b8152600401610a3e90615a14565b604089013587111561381d5760405162461bcd60e51b815260206004820152600f60248201526e4552525f4c494d49545f505249434560881b6044820152606401610a3e565b61382b8860208b01356144a5565b84111561384a5760405162461bcd60e51b8152600401610a3e90615a14565b61385a60408b0160208c016154e2565b6001600160a01b031661387060208c018c6154e2565b6001600160a01b0316337f50ef2fc267012b5c84b56835f16ffd5331ac5a151a3760d74908721ba78b0efe8b8d6001604080519384526020918202929092013590830152429082015260600160405180910390a46138db6138d460208c018c6154e2565b338a61460f565b60006138f98961212d81610e65670de0b6b3a76400008f6003613173565b905060608a013515613967576139108b6002613190565b7f6d11837f46cc09b011cf4aae09fcade046c020aac088090ae4f77ff67b70797261394160608d0160408e016154e2565b61394e60208e018e6154e2565b8360405161395e939291906159d7565b60405180910390a15b61323261397a60408d0160208e016154e2565b3360208d01356142ea565b6000806139b36040518060800160405280600081526020016000815260200160008152602001600081525090565b60006139c88860036020020151896001612105565b905060006139dd89600260200201518961427a565b905060006139f28a60026020020151836144a5565b90506000613a008285614866565b9050613a1481670de0b6b3a764000061427a565b90506000805489613a23611453565b600154613a309190615958565b613a3a9190615958565b613a449190615958565b9050613a6d613a5b8d60005b602002015184614195565b612204670de0b6b3a76400008461427a565b9750613a8b8861212d8a610e65670de0b6b3a764000061212d611453565b866020018181525050613ab08861212d8a610e65670de0b6b3a764000060005461427a565b866040018181525050613ad58861212d8a610e65670de0b6b3a764000060015461427a565b8652613af18861212d81610e65670de0b6b3a76400008e61427a565b6060870152613b18613b048d6000613a50565b612204670de0b6b3a764000060015461427a565b965050505050509450945094915050565b6000806000806000613b3a89613d96565b613b4388613d96565b604080516080810182526001600160a01b03808c16600090815260106020818152858320600380820154875260029182015483880152948f16808552838352878520958601549787019790975295835252920154606082015290613bc86040518060800160405280600081526020016000815260200160008152602001600081525090565b611578838b8e8c613985565b600c54606090610100900460ff161561272a5760405162461bcd60e51b8152600401610a3e90615882565b3360009081526008602090815260408083206001600160a01b0386168452909152812054613c2d90836145bd565b3360008181526008602090815260408083206001600160a01b03891680855290835292819020859055519384529092600080516020615af68339815191529101610aef565b610b146002670de0b6b3a7640000615944565b600c54600090610100900460ff1615613cb05760405162461bcd60e51b8152600401610a3e90615882565b613cb982613d96565b6001600160a01b038216600090815260106020526040902060020154601154610a9f9082906144a5565b600c54600090610100900460ff1615613d0e5760405162461bcd60e51b8152600401610a3e90615882565b613d1782613d96565b506001600160a01b031660009081526010602052604090206003015490565b6001600160a01b03821660009081526010602090815260408083208151608081018352815460ff161515815260018201549381019390935260028101549183018290526003015460608301819052600954601154611702939190876147cc565b6001600160a01b03811660009081526010602052604090205460ff16613dee5760405162461bcd60e51b815260206004820152600d60248201526c11549497d393d517d093d55391609a1b6044820152606401610a3e565b50565b600080613dfe87876144a5565b90506000613e0c86866144a5565b90506000613e1a83836144a5565b90506000613e63670de0b6b3a7640000612204670de0b6b3a764000089600054613e42611453565b600154613e4f9190615958565b613e599190615958565b61212d9190615958565b9050613e6f8282614195565b9a9950505050505050505050565b600c546201000090046001600160a01b03163314613ed25760405162461bcd60e51b815260206004820152601260248201527122a9292fa727aa2fa1a7a72a2927a62622a960711b6044820152606401610a3e565b6001600160a01b03831660009081526010602052604090205460ff1615613f2a5760405162461bcd60e51b815260206004820152600c60248201526b11549497d254d7d093d5539160a21b6044820152606401610a3e565b600e54600160a01b900460ff1615613f775760405162461bcd60e51b815260206004820152601060248201526f11549497d254d7d1925390531256915160821b6044820152606401610a3e565b600f54600211613fba5760405162461bcd60e51b815260206004820152600e60248201526d4552525f4d41585f544f4b454e5360901b6044820152606401610a3e565b604080516080810182526001808252600f805460208085019182526000858701818152606087018281526001600160a01b038c1680845260109094529782209651875460ff1916901515178755925186860155915160028601559451600390940193909355805491820181559091527f8d1108e10bcb7c27dddfc02ed9d693a074039d026cf4ea4240b40f7d581ac8020180546001600160a01b0319169091179055614067838383614c1f565b505050565b600e805460ff60a01b1916600160a01b179055600c805460ff60b01b1916600160b01b1790556140ad6140a8670de0b6b3a764000060646158bd565b614756565b6140c9336140c4670de0b6b3a764000060646158bd565b61475f565b565b6000806140d886856144a5565b905060006140f384610e65670de0b6b3a7640000600061427a565b90506000614101878361427a565b9050600061410f82896144a5565b9050600061412e82614129670de0b6b3a7640000886144a5565b614866565b9050600061413c828d614195565b9050600061414a8d8361427a565b9050600061416b614163670de0b6b3a76400008a61427a565b600154614195565b905061418382610e65670de0b6b3a76400008461427a565b9e9d5050505050505050505050505050565b6000806141a283856158bd565b90508315806141b95750826141b78583615944565b145b6141f85760405162461bcd60e51b815260206004820152601060248201526f4552525f4d554c5f4f564552464c4f5760801b6044820152606401610a3e565b600061420d6002670de0b6b3a7640000615944565b6142179083615958565b90508181101561425c5760405162461bcd60e51b815260206004820152601060248201526f4552525f4d554c5f4f564552464c4f5760801b6044820152606401610a3e565b6000614270670de0b6b3a764000083615944565b9695505050505050565b60008060006142898585614e3e565b9150915080156142cf5760405162461bcd60e51b81526020600482015260116024820152704552525f5355425f554e444552464c4f5760781b6044820152606401610a3e565b509392505050565b611c2a8282614e75565b613dee81614e80565b6140676001600160a01b0384168383614769565b6001600160a01b03831660009081526007602052604090205481111561435d5760405162461bcd60e51b815260206004820152601460248201527311549497d25394d551919250d251539517d0905360621b6044820152606401610a3e565b6001600160a01b038316600090815260076020526040902054614380908261427a565b6001600160a01b0380851660009081526007602052604080822093909355908416815220546143af90826145bd565b6001600160a01b0380841660008181526007602052604090819020939093559151908516907fddf252ad1be2c89b69c2b068fc378daa952ba7f163c4a11628f55a4df523b3ef906144039085815260200190565b60405180910390a3505050565b60008061441d86856144a5565b90506000614436614163670de0b6b3a76400008461427a565b9050600061445085610e65670de0b6b3a76400008561427a565b9050600061445e8a836145bd565b9050600061446c828c6144a5565b9050600061447a8287614866565b90506000614488828c614195565b9050614494818c61427a565b9d9c50505050505050505050505050565b6000816144e35760405162461bcd60e51b815260206004820152600c60248201526b4552525f4449565f5a45524f60a01b6044820152606401610a3e565b60006144f7670de0b6b3a7640000856158bd565b90508315806145165750670de0b6b3a76400006145148583615944565b145b6145555760405162461bcd60e51b815260206004820152601060248201526f11549497d1125597d25395115493905360821b6044820152606401610a3e565b6000614562600285615944565b61456c9083615958565b9050818110156145b15760405162461bcd60e51b815260206004820152601060248201526f11549497d1125597d25395115493905360821b6044820152606401610a3e565b60006142708583615944565b6000806145ca8385615958565b905083811015610a9f5760405162461bcd60e51b815260206004820152601060248201526f4552525f4144445f4f564552464c4f5760801b6044820152606401610a3e565b6040516370a0823160e01b81523060048201526000906001600160a01b038516906370a0823190602401602060405180830381865afa158015614656573d6000803e3d6000fd5b505050506040513d601f19601f8201168201806040525081019061467a91906159fb565b90506146916001600160a01b038516843085614f4c565b61469b8282615958565b6040516370a0823160e01b81523060048201526001600160a01b038616906370a0823190602401602060405180830381865afa1580156146df573d6000803e3d6000fd5b505050506040513d601f19601f8201168201806040525081019061470391906159fb565b146147505760405162461bcd60e51b815260206004820152601d60248201527f5472616e7366657220616d6f756e7420776173206e6f742065786163740000006044820152606401610a3e565b50505050565b613dee81614f6d565b611c2a8282614fdc565b6040516001600160a01b03831660248201526044810182905261406790849063a9059cbb60e01b906064015b60408051601f198184030181529190526020810180516001600160e01b03166001600160e01b031990931692909217909152614fe7565b6000806147d986856144a5565b905060006147e786856145bd565b905060006147f582886144a5565b9050600061480b670de0b6b3a7640000856144a5565b905060006148198383614866565b90506000614827828d614195565b90506000614835828e61427a565b9050600061484e614163670de0b6b3a76400008a61427a565b905061418382612204670de0b6b3a76400008461427a565b600060018310156148b15760405162461bcd60e51b81526020600482015260156024820152744552525f42504f575f424153455f544f4f5f4c4f5760581b6044820152606401610a3e565b60016148c6670de0b6b3a764000060026158bd565b6148d09190615a6e565b8311156149185760405162461bcd60e51b815260206004820152601660248201527508aa4a4be84a09eaebe8482a68abea89e9ebe90928e960531b6044820152606401610a3e565b6000614923836150b9565b90506000614931848361427a565b9050600061494786614942856150d7565b6150eb565b905081614958579250610afb915050565b600061497b87846149766402540be400670de0b6b3a7640000615944565b61515f565b90506149878282614195565b979650505050505050565b60008061499f86856144a5565b905060006149b5670de0b6b3a76400008361427a565b905060006149c582600154614195565b905060006149df86612204670de0b6b3a76400008561427a565b905060006149ed8b8361427a565b905060006149fb828d6144a5565b90506000614a098288614866565b90506000614a17828d614195565b90506000614a258d8361427a565b9050614a3e81612204670de0b6b3a7640000600061427a565b9f9e505050505050505050505050505050565b600c805462010000600160b01b031916620100006001600160a01b038a81169190910291909117909155600280546001600160a01b031916918816919091179055845160009086908290614aa757614aa7615a3d565b602090810291909101810151600181905560408051338152928301919091527fbca0d601c32979eebac4e8cd06375b6e45d39af80fc06a33f366425b450dfb69910160405180910390a185600181518110614b0457614b04615a3d565b6020908102919091018101516000819055600c805460ff60b01b1916600160b01b89151502179055600e805460ff60a01b1916600160a01b881515021790558451600380546001600160a01b03199081166001600160a01b0393841617909155928601516004805485169183169190911790558451600d805490941691169081179092556040517f5e3e722dbd3b6b8071b78568ac80cd0e8ff92e4fb3024e755d504d8f7c2f6f0992614bb89233926159d7565b60405180910390a18160016020020151600e80546001600160a01b0319166001600160a01b0392831617905560128054600c54600160a01b620100009091049093166001600160a81b03199091161782179081905560ff9190041698975050505050505050565b670de0b6b3a7640000811015614c685760405162461bcd60e51b815260206004820152600e60248201526d11549497d3525397d5d15251d21560921b6044820152606401610a3e565b614c7b670de0b6b3a764000060326158bd565b811115614cbb5760405162461bcd60e51b815260206004820152600e60248201526d11549497d3505617d5d15251d21560921b6044820152606401610a3e565b614cd264e8d4a51000670de0b6b3a7640000615944565b821015614d135760405162461bcd60e51b815260206004820152600f60248201526e4552525f4d494e5f42414c414e434560881b6044820152606401610a3e565b6001600160a01b03831660009081526010602052604090206002015480821115614daf57614d4c601154614d47848461427a565b6145bd565b601155614d62670de0b6b3a764000060326158bd565b6011541115614daa5760405162461bcd60e51b815260206004820152601460248201527311549497d3505617d513d5105317d5d15251d21560621b6044820152606401610a3e565b614dcb565b80821015614dcb57614dc760115461212d838561427a565b6011555b6001600160a01b03841660009081526010602052604090206002810183905560030180549084905580841115614e1457614e0f8533614e0a878561427a565b61460f565b614e37565b80841015614e37576000614e28828661427a565b9050614e358633836142ea565b505b5050505050565b600080828410614e5d57614e528385615a6e565b600091509150614e6e565b614e678484615a6e565b6001915091505b9250929050565b611c2a8230836142fe565b30600090815260076020526040902054811115614ed65760405162461bcd60e51b815260206004820152601460248201527311549497d25394d551919250d251539517d0905360621b6044820152606401610a3e565b30600090815260076020526040902054614ef0908261427a565b30600090815260076020526040902055600954614f0d908261427a565b60095560405181815260009030907fddf252ad1be2c89b69c2b068fc378daa952ba7f163c4a11628f55a4df523b3ef906020015b60405180910390a350565b614750846323b872dd60e01b858585604051602401614795939291906159d7565b30600090815260076020526040902054614f8790826145bd565b30600090815260076020526040902055600954614fa490826145bd565b60095560405181815230906000907fddf252ad1be2c89b69c2b068fc378daa952ba7f163c4a11628f55a4df523b3ef90602001614f41565b611c2a3083836142fe565b600061503c826040518060400160405280602081526020017f5361666545524332303a206c6f772d6c6576656c2063616c6c206661696c6564815250856001600160a01b031661524f9092919063ffffffff16565b805190915015614067578080602001905181019061505a9190615970565b6140675760405162461bcd60e51b815260206004820152602a60248201527f5361666545524332303a204552433230206f7065726174696f6e20646964206e6044820152691bdd081cdd58d8d9595960b21b6064820152608401610a3e565b6000670de0b6b3a76400006150cd836150d7565b610afb91906158bd565b6000610afb670de0b6b3a764000083615944565b600082816150fa600285615a85565b61510c57670de0b6b3a764000061510e565b815b905061511b600285615944565b93505b83156117025761512e8283614195565b915061513b600285615a85565b1561514d5761514a8183614195565b90505b615158600285615944565b935061511e565b600082818061517687670de0b6b3a7640000614e3e565b9092509050670de0b6b3a764000080600060015b8884106152405760006151a5670de0b6b3a7640000836158bd565b90506000806151c58a6151c085670de0b6b3a764000061427a565b614e3e565b915091506151d787610e65848c614195565b96506151e387846144a5565b9650866151f257505050615240565b87156151fc579315935b8015615206579315935b841561521d57615216868861427a565b955061522a565b61522786886145bd565b95505b505050808061523890615a53565b91505061518a565b50909998505050505050505050565b6060611702848460008585843b6152a85760405162461bcd60e51b815260206004820152601d60248201527f416464726573733a2063616c6c20746f206e6f6e2d636f6e74726163740000006044820152606401610a3e565b600080866001600160a01b031685876040516152c49190615a99565b60006040518083038185875af1925050503d8060008114615301576040519150601f19603f3d011682016040523d82523d6000602084013e615306565b606091505b509150915061498782828660608315615320575081610a9f565b8251156153305782518084602001fd5b8160405162461bcd60e51b8152600401610a3e9190615376565b60005b8381101561536557818101518382015260200161534d565b838111156147505750506000910152565b602081526000825180602084015261539581604085016020870161534a565b601f01601f19169190910160400192915050565b80356001600160a01b03811681146120c157600080fd5b6000806000606084860312156153d557600080fd5b6153de846153a9565b92506153ec602085016153a9565b9150604084013590509250925092565b6000806040838503121561540f57600080fd5b615418836153a9565b946020939093013593505050565b60008060008060008060c0878903121561543f57600080fd5b615448876153a9565b95506020870135945060408701359350615464606088016153a9565b92506080870135915060a087013590509295509295509295565b6000806040838503121561549157600080fd5b50508035926020909101359150565b600080600080608085870312156154b657600080fd5b6154bf856153a9565b93506154cd602086016153a9565b93969395505050506040820135916060013590565b6000602082840312156154f457600080fd5b610a9f826153a9565b60006020828403121561550f57600080fd5b5035919050565b60008083601f84011261552857600080fd5b50813567ffffffffffffffff81111561554057600080fd5b6020830191508360208260051b8501011115614e6e57600080fd5b60008060006040848603121561557057600080fd5b83359250602084013567ffffffffffffffff81111561558e57600080fd5b61559a86828701615516565b9497909650939450505050565b634e487b7160e01b600052604160045260246000fd5b60008060008060e085870312156155d357600080fd5b85601f8601126155e257600080fd5b6040516080810181811067ffffffffffffffff82111715615605576156056155a7565b60405280608087018881111561561a57600080fd5b875b8181101561563457803583526020928301920161561c565b509195505035925061564860a086016153a9565b9396929550929360c00135925050565b600081518084526020808501945080840160005b838110156156915781516001600160a01b03168752958201959082019060010161566c565b509495945050505050565b602081526000610a9f6020830184615658565b6040815260006156c26040830185615658565b82810360208481019190915284518083528582019282019060005b818110156156f9578451835293830193918301916001016156dd565b5090979650505050505050565b8015158114613dee57600080fd5b8060408101831015610afb57600080fd5b600080600080600080600080610120898b03121561574257600080fd5b61574b896153a9565b975061575960208a016153a9565b9650604089013567ffffffffffffffff81111561577557600080fd5b6157818b828c01615516565b909750955050606089013561579581615706565b935060808901356157a581615706565b92506157b48a60a08b01615714565b91506157c38a60e08b01615714565b90509295985092959890939650565b60008060e083850312156157e557600080fd5b60608301848111156157f657600080fd5b8392508460e08501111561580957600080fd5b809150509250929050565b6000806040838503121561582757600080fd5b615830836153a9565b915061583e602084016153a9565b90509250929050565b600181811c9082168061585b57607f821691505b6020821081141561587c57634e487b7160e01b600052602260045260246000fd5b50919050565b6020808252600b908201526a4552525f5245454e54525960a81b604082015260600190565b634e487b7160e01b600052601160045260246000fd5b60008160001904831182151516156158d7576158d76158a7565b500290565b60208082526011908201527011549497d393d517d19253905312569151607a1b604082015260600190565b6020808252600d908201526c11549497d31253525517d3d555609a1b604082015260600190565b634e487b7160e01b600052601260045260246000fd5b6000826159535761595361592e565b500490565b6000821982111561596b5761596b6158a7565b500190565b60006020828403121561598257600080fd5b8151610a9f81615706565b6020808252600b908201526a4552525f4d494e5f46454560a81b604082015260600190565b6020808252600b908201526a4552525f4d41585f46454560a81b604082015260600190565b6001600160a01b039384168152919092166020820152604081019190915260600190565b600060208284031215615a0d57600080fd5b5051919050565b6020808252600f908201526e08aa4a4be9a82a890be82a0a0a49eb608b1b604082015260600190565b634e487b7160e01b600052603260045260246000fd5b6000600019821415615a6757615a676158a7565b5060010190565b600082821015615a8057615a806158a7565b500390565b600082615a9457615a9461592e565b500690565b60008251615aab81846020870161534a565b919091019291505056fefcda32798d5a9d032f49b37fea876d422f18f6e386e0f07db6029b693624b2c215a8ca63e37b2cff1677df2b6b82d36fcf8a524228bd7a4b4d02d107c28c1e8a8c5be1e5ebec7d5bd14f71427d1e84f3dd0314c0f7b2291e5b200ac8c7c3b925a2646970667358221220979351ff326901de75f618cbcdfe32c6648817bd76cb3238519a52ce75dd552964736f6c634300080a0033",
  "linkReferences": {},
  "deployedLinkReferences": {}
}