{
  "_format": "hh-sol-artifact-1",
  "contractName": "BPool",
  "sourceName": "contracts/pools/balancer/BPool.sol",
  "abi": [
    {
      "anonymous": false,
      "inputs": [
        {
          "indexed": true,
          "internalType": "address",
          "name": "src",
          "type": "address"
        },
        {
          "indexed": true,
          "internalType": "address",
          "name": "dst",
          "type": "address"
        },
        {
          "indexed": false,
          "internalType": "uint256",
          "name": "amt",
          "type": "uint256"
        }
      ],
      "name": "Approval",
      "type": "event"
    },
    {
      "anonymous": false,
      "inputs": [
        {
          "indexed": false,
          "internalType": "uint256",
          "name": "bptAmount",
          "type": "uint256"
        }
      ],
      "name": "LOG_BPT",
      "type": "event"
    },
    {
      "anonymous": false,
      "inputs": [
        {
          "indexed": true,
          "internalType": "bytes4",
          "name": "sig",
          "type": "bytes4"
        },
        {
          "indexed": true,
          "internalType": "address",
          "name": "caller",
          "type": "address"
        },
        {
          "indexed": false,
          "internalType": "uint256",
          "name": "timestamp",
          "type": "uint256"
        },
        {
          "indexed": false,
          "internalType": "bytes",
          "name": "data",
          "type": "bytes"
        }
      ],
      "name": "LOG_CALL",
      "type": "event"
    },
    {
      "anonymous": false,
      "inputs": [
        {
          "indexed": true,
          "internalType": "address",
          "name": "caller",
          "type": "address"
        },
        {
          "indexed": true,
          "internalType": "address",
          "name": "tokenOut",
          "type": "address"
        },
        {
          "indexed": false,
          "internalType": "uint256",
          "name": "tokenAmountOut",
          "type": "uint256"
        },
        {
          "indexed": false,
          "internalType": "uint256",
          "name": "timestamp",
          "type": "uint256"
        }
      ],
      "name": "LOG_EXIT",
      "type": "event"
    },
    {
      "anonymous": false,
      "inputs": [
        {
          "indexed": true,
          "internalType": "address",
          "name": "caller",
          "type": "address"
        },
        {
          "indexed": true,
          "internalType": "address",
          "name": "tokenIn",
          "type": "address"
        },
        {
          "indexed": false,
          "internalType": "uint256",
          "name": "tokenAmountIn",
          "type": "uint256"
        },
        {
          "indexed": false,
          "internalType": "uint256",
          "name": "timestamp",
          "type": "uint256"
        }
      ],
      "name": "LOG_JOIN",
      "type": "event"
    },
    {
      "anonymous": false,
      "inputs": [
        {
          "indexed": true,
          "internalType": "address",
          "name": "caller",
          "type": "address"
        },
        {
          "indexed": true,
          "internalType": "address",
          "name": "tokenIn",
          "type": "address"
        },
        {
          "indexed": true,
          "internalType": "address",
          "name": "tokenOut",
          "type": "address"
        },
        {
          "indexed": false,
          "internalType": "uint256",
          "name": "tokenAmountIn",
          "type": "uint256"
        },
        {
          "indexed": false,
          "internalType": "uint256",
          "name": "tokenAmountOut",
          "type": "uint256"
        },
        {
          "indexed": false,
          "internalType": "uint256",
          "name": "timestamp",
          "type": "uint256"
        }
      ],
      "name": "LOG_SWAP",
      "type": "event"
    },
    {
      "anonymous": false,
      "inputs": [
        {
          "indexed": false,
          "internalType": "uint256",
          "name": "swapFeeAmount",
          "type": "uint256"
        },
        {
          "indexed": false,
          "internalType": "uint256",
          "name": "oceanFeeAmount",
          "type": "uint256"
        },
        {
          "indexed": false,
          "internalType": "uint256",
          "name": "marketFeeAmount",
          "type": "uint256"
        },
        {
          "indexed": false,
          "internalType": "address",
          "name": "tokenFees",
          "type": "address"
        }
      ],
      "name": "SWAP_FEES",
      "type": "event"
    },
    {
      "anonymous": false,
      "inputs": [
        {
          "indexed": true,
          "internalType": "address",
          "name": "src",
          "type": "address"
        },
        {
          "indexed": true,
          "internalType": "address",
          "name": "dst",
          "type": "address"
        },
        {
          "indexed": false,
          "internalType": "uint256",
          "name": "amt",
          "type": "uint256"
        }
      ],
      "name": "Transfer",
      "type": "event"
    },
    {
      "inputs": [],
      "name": "BONE",
      "outputs": [
        {
          "internalType": "uint256",
          "name": "",
          "type": "uint256"
        }
      ],
      "stateMutability": "view",
      "type": "function"
    },
    {
      "inputs": [],
      "name": "BPOW_PRECISION",
      "outputs": [
        {
          "internalType": "uint256",
          "name": "",
          "type": "uint256"
        }
      ],
      "stateMutability": "view",
      "type": "function"
    },
    {
      "inputs": [],
      "name": "EXIT_FEE",
      "outputs": [
        {
          "internalType": "uint256",
          "name": "",
          "type": "uint256"
        }
      ],
      "stateMutability": "view",
      "type": "function"
    },
    {
      "inputs": [],
      "name": "INIT_POOL_SUPPLY",
      "outputs": [
        {
          "internalType": "uint256",
          "name": "",
          "type": "uint256"
        }
      ],
      "stateMutability": "view",
      "type": "function"
    },
    {
      "inputs": [],
      "name": "MAX_BOUND_TOKENS",
      "outputs": [
        {
          "internalType": "uint256",
          "name": "",
          "type": "uint256"
        }
      ],
      "stateMutability": "view",
      "type": "function"
    },
    {
      "inputs": [],
      "name": "MAX_BPOW_BASE",
      "outputs": [
        {
          "internalType": "uint256",
          "name": "",
          "type": "uint256"
        }
      ],
      "stateMutability": "view",
      "type": "function"
    },
    {
      "inputs": [],
      "name": "MAX_FEE",
      "outputs": [
        {
          "internalType": "uint256",
          "name": "",
          "type": "uint256"
        }
      ],
      "stateMutability": "view",
      "type": "function"
    },
    {
      "inputs": [],
      "name": "MAX_IN_RATIO",
      "outputs": [
        {
          "internalType": "uint256",
          "name": "",
          "type": "uint256"
        }
      ],
      "stateMutability": "view",
      "type": "function"
    },
    {
      "inputs": [],
      "name": "MAX_OUT_RATIO",
      "outputs": [
        {
          "internalType": "uint256",
          "name": "",
          "type": "uint256"
        }
      ],
      "stateMutability": "view",
      "type": "function"
    },
    {
      "inputs": [],
      "name": "MAX_TOTAL_WEIGHT",
      "outputs": [
        {
          "internalType": "uint256",
          "name": "",
          "type": "uint256"
        }
      ],
      "stateMutability": "view",
      "type": "function"
    },
    {
      "inputs": [],
      "name": "MAX_WEIGHT",
      "outputs": [
        {
          "internalType": "uint256",
          "name": "",
          "type": "uint256"
        }
      ],
      "stateMutability": "view",
      "type": "function"
    },
    {
      "inputs": [],
      "name": "MIN_BALANCE",
      "outputs": [
        {
          "internalType": "uint256",
          "name": "",
          "type": "uint256"
        }
      ],
      "stateMutability": "view",
      "type": "function"
    },
    {
      "inputs": [],
      "name": "MIN_BOUND_TOKENS",
      "outputs": [
        {
          "internalType": "uint256",
          "name": "",
          "type": "uint256"
        }
      ],
      "stateMutability": "view",
      "type": "function"
    },
    {
      "inputs": [],
      "name": "MIN_BPOW_BASE",
      "outputs": [
        {
          "internalType": "uint256",
          "name": "",
          "type": "uint256"
        }
      ],
      "stateMutability": "view",
      "type": "function"
    },
    {
      "inputs": [],
      "name": "MIN_FEE",
      "outputs": [
        {
          "internalType": "uint256",
          "name": "",
          "type": "uint256"
        }
      ],
      "stateMutability": "view",
      "type": "function"
    },
    {
      "inputs": [],
      "name": "MIN_WEIGHT",
      "outputs": [
        {
          "internalType": "uint256",
          "name": "",
          "type": "uint256"
        }
      ],
      "stateMutability": "view",
      "type": "function"
    },
    {
      "inputs": [],
      "name": "_marketCollector",
      "outputs": [
        {
          "internalType": "address",
          "name": "",
          "type": "address"
        }
      ],
      "stateMutability": "view",
      "type": "function"
    },
    {
      "inputs": [],
      "name": "_opfCollector",
      "outputs": [
        {
          "internalType": "address",
          "name": "",
          "type": "address"
        }
      ],
      "stateMutability": "view",
      "type": "function"
    },
    {
      "inputs": [],
      "name": "_swapMarketFee",
      "outputs": [
        {
          "internalType": "uint256",
          "name": "",
          "type": "uint256"
        }
      ],
      "stateMutability": "view",
      "type": "function"
    },
    {
      "inputs": [
        {
          "internalType": "address",
          "name": "src",
          "type": "address"
        },
        {
          "internalType": "address",
          "name": "dst",
          "type": "address"
        }
      ],
      "name": "allowance",
      "outputs": [
        {
          "internalType": "uint256",
          "name": "",
          "type": "uint256"
        }
      ],
      "stateMutability": "view",
      "type": "function"
    },
    {
      "inputs": [
        {
          "internalType": "address",
          "name": "dst",
          "type": "address"
        },
        {
          "internalType": "uint256",
          "name": "amt",
          "type": "uint256"
        }
      ],
      "name": "approve",
      "outputs": [
        {
          "internalType": "bool",
          "name": "",
          "type": "bool"
        }
      ],
      "stateMutability": "nonpayable",
      "type": "function"
    },
    {
      "inputs": [
        {
          "internalType": "address",
          "name": "whom",
          "type": "address"
        }
      ],
      "name": "balanceOf",
      "outputs": [
        {
          "internalType": "uint256",
          "name": "",
          "type": "uint256"
        }
      ],
      "stateMutability": "view",
      "type": "function"
    },
    {
      "inputs": [
        {
          "internalType": "address",
          "name": "tokenOut",
          "type": "address"
        },
        {
          "internalType": "uint256",
          "name": "tokenAmountOut",
          "type": "uint256"
        }
      ],
      "name": "calcPoolInSingleOut",
      "outputs": [
        {
          "internalType": "uint256",
          "name": "poolAmountIn",
          "type": "uint256"
        }
      ],
      "stateMutability": "view",
      "type": "function"
    },
    {
      "inputs": [
        {
          "internalType": "address",
          "name": "tokenIn",
          "type": "address"
        },
        {
          "internalType": "uint256",
          "name": "tokenAmountIn",
          "type": "uint256"
        }
      ],
      "name": "calcPoolOutSingleIn",
      "outputs": [
        {
          "internalType": "uint256",
          "name": "poolAmountOut",
          "type": "uint256"
        }
      ],
      "stateMutability": "view",
      "type": "function"
    },
    {
      "inputs": [
        {
          "internalType": "address",
          "name": "tokenIn",
          "type": "address"
        },
        {
          "internalType": "uint256",
          "name": "poolAmountOut",
          "type": "uint256"
        }
      ],
      "name": "calcSingleInPoolOut",
      "outputs": [
        {
          "internalType": "uint256",
          "name": "tokenAmountIn",
          "type": "uint256"
        }
      ],
      "stateMutability": "view",
      "type": "function"
    },
    {
      "inputs": [
        {
          "internalType": "address",
          "name": "tokenOut",
          "type": "address"
        },
        {
          "internalType": "uint256",
          "name": "poolAmountIn",
          "type": "uint256"
        }
      ],
      "name": "calcSingleOutPoolIn",
      "outputs": [
        {
          "internalType": "uint256",
          "name": "tokenAmountOut",
          "type": "uint256"
        }
      ],
      "stateMutability": "view",
      "type": "function"
    },
    {
      "inputs": [
        {
          "internalType": "address",
          "name": "to",
          "type": "address"
        }
      ],
      "name": "collectMarketFee",
      "outputs": [],
      "stateMutability": "nonpayable",
      "type": "function"
    },
    {
      "inputs": [],
      "name": "collectOPF",
      "outputs": [],
      "stateMutability": "nonpayable",
      "type": "function"
    },
    {
      "inputs": [
        {
          "internalType": "address",
          "name": "",
          "type": "address"
        }
      ],
      "name": "communityFees",
      "outputs": [
        {
          "internalType": "uint256",
          "name": "",
          "type": "uint256"
        }
      ],
      "stateMutability": "view",
      "type": "function"
    },
    {
      "inputs": [],
      "name": "decimals",
      "outputs": [
        {
          "internalType": "uint8",
          "name": "",
          "type": "uint8"
        }
      ],
      "stateMutability": "view",
      "type": "function"
    },
    {
      "inputs": [
        {
          "internalType": "address",
          "name": "dst",
          "type": "address"
        },
        {
          "internalType": "uint256",
          "name": "amt",
          "type": "uint256"
        }
      ],
      "name": "decreaseApproval",
      "outputs": [
        {
          "internalType": "bool",
          "name": "",
          "type": "bool"
        }
      ],
      "stateMutability": "nonpayable",
      "type": "function"
    },
    {
      "inputs": [
        {
          "internalType": "uint256",
          "name": "poolAmountIn",
          "type": "uint256"
        },
        {
          "internalType": "uint256[]",
          "name": "minAmountsOut",
          "type": "uint256[]"
        }
      ],
      "name": "exitPool",
      "outputs": [],
      "stateMutability": "nonpayable",
      "type": "function"
    },
    {
      "inputs": [
        {
          "internalType": "address",
          "name": "tokenOut",
          "type": "address"
        },
        {
          "internalType": "uint256",
          "name": "tokenAmountOut",
          "type": "uint256"
        },
        {
          "internalType": "uint256",
          "name": "maxPoolAmountIn",
          "type": "uint256"
        }
      ],
      "name": "exitswapExternAmountOut",
      "outputs": [
        {
          "internalType": "uint256",
          "name": "poolAmountIn",
          "type": "uint256"
        }
      ],
      "stateMutability": "nonpayable",
      "type": "function"
    },
    {
      "inputs": [
        {
          "internalType": "address",
          "name": "tokenOut",
          "type": "address"
        },
        {
          "internalType": "uint256",
          "name": "poolAmountIn",
          "type": "uint256"
        },
        {
          "internalType": "uint256",
          "name": "minAmountOut",
          "type": "uint256"
        }
      ],
      "name": "exitswapPoolAmountIn",
      "outputs": [
        {
          "internalType": "uint256",
          "name": "tokenAmountOut",
          "type": "uint256"
        }
      ],
      "stateMutability": "nonpayable",
      "type": "function"
    },
    {
      "inputs": [
        {
          "internalType": "address",
          "name": "tokenIn",
          "type": "address"
        },
        {
          "internalType": "address",
          "name": "tokenOut",
          "type": "address"
        },
        {
          "internalType": "uint256",
          "name": "tokenAmountOut",
          "type": "uint256"
        }
      ],
      "name": "getAmountInExactOut",
      "outputs": [
        {
          "internalType": "uint256",
          "name": "tokenAmountIn",
          "type": "uint256"
        }
      ],
      "stateMutability": "view",
      "type": "function"
    },
    {
      "inputs": [
        {
          "internalType": "address",
          "name": "tokenIn",
          "type": "address"
        },
        {
          "internalType": "address",
          "name": "tokenOut",
          "type": "address"
        },
        {
          "internalType": "uint256",
          "name": "tokenAmountIn",
          "type": "uint256"
        }
      ],
      "name": "getAmountOutExactIn",
      "outputs": [
        {
          "internalType": "uint256",
          "name": "tokenAmountOut",
          "type": "uint256"
        }
      ],
      "stateMutability": "view",
      "type": "function"
    },
    {
      "inputs": [
        {
          "internalType": "address",
          "name": "token",
          "type": "address"
        }
      ],
      "name": "getBalance",
      "outputs": [
        {
          "internalType": "uint256",
          "name": "",
          "type": "uint256"
        }
      ],
      "stateMutability": "view",
      "type": "function"
    },
    {
      "inputs": [],
      "name": "getBaseTokenAddress",
      "outputs": [
        {
          "internalType": "address",
          "name": "",
          "type": "address"
        }
      ],
      "stateMutability": "view",
      "type": "function"
    },
    {
      "inputs": [],
      "name": "getController",
      "outputs": [
        {
          "internalType": "address",
          "name": "",
          "type": "address"
        }
      ],
      "stateMutability": "view",
      "type": "function"
    },
    {
      "inputs": [],
      "name": "getCurrentTokens",
      "outputs": [
        {
          "internalType": "address[]",
          "name": "tokens",
          "type": "address[]"
        }
      ],
      "stateMutability": "view",
      "type": "function"
    },
    {
      "inputs": [],
      "name": "getDataTokenAddress",
      "outputs": [
        {
          "internalType": "address",
          "name": "",
          "type": "address"
        }
      ],
      "stateMutability": "view",
      "type": "function"
    },
    {
      "inputs": [
        {
          "internalType": "address",
          "name": "token",
          "type": "address"
        }
      ],
      "name": "getDenormalizedWeight",
      "outputs": [
        {
          "internalType": "uint256",
          "name": "",
          "type": "uint256"
        }
      ],
      "stateMutability": "view",
      "type": "function"
    },
    {
      "inputs": [],
      "name": "getFinalTokens",
      "outputs": [
        {
          "internalType": "address[]",
          "name": "tokens",
          "type": "address[]"
        }
      ],
      "stateMutability": "view",
      "type": "function"
    },
    {
      "inputs": [
        {
          "internalType": "address",
          "name": "token",
          "type": "address"
        }
      ],
      "name": "getNormalizedWeight",
      "outputs": [
        {
          "internalType": "uint256",
          "name": "",
          "type": "uint256"
        }
      ],
      "stateMutability": "view",
      "type": "function"
    },
    {
      "inputs": [],
      "name": "getNumTokens",
      "outputs": [
        {
          "internalType": "uint256",
          "name": "",
          "type": "uint256"
        }
      ],
      "stateMutability": "view",
      "type": "function"
    },
    {
      "inputs": [],
      "name": "getOPFFee",
      "outputs": [
        {
          "internalType": "uint256",
          "name": "",
          "type": "uint256"
        }
      ],
      "stateMutability": "view",
      "type": "function"
    },
    {
      "inputs": [
        {
          "internalType": "address",
          "name": "tokenIn",
          "type": "address"
        },
        {
          "internalType": "address",
          "name": "tokenOut",
          "type": "address"
        }
      ],
      "name": "getSpotPrice",
      "outputs": [
        {
          "internalType": "uint256",
          "name": "spotPrice",
          "type": "uint256"
        }
      ],
      "stateMutability": "view",
      "type": "function"
    },
    {
      "inputs": [],
      "name": "getSwapFee",
      "outputs": [
        {
          "internalType": "uint256",
          "name": "",
          "type": "uint256"
        }
      ],
      "stateMutability": "view",
      "type": "function"
    },
    {
      "inputs": [],
      "name": "getTotalDenormalizedWeight",
      "outputs": [
        {
          "internalType": "uint256",
          "name": "",
          "type": "uint256"
        }
      ],
      "stateMutability": "view",
      "type": "function"
    },
    {
      "inputs": [
        {
          "internalType": "address",
          "name": "dst",
          "type": "address"
        },
        {
          "internalType": "uint256",
          "name": "amt",
          "type": "uint256"
        }
      ],
      "name": "increaseApproval",
      "outputs": [
        {
          "internalType": "bool",
          "name": "",
          "type": "bool"
        }
      ],
      "stateMutability": "nonpayable",
      "type": "function"
    },
    {
      "inputs": [
        {
          "internalType": "address",
          "name": "controller",
          "type": "address"
        },
        {
          "internalType": "address",
          "name": "factory",
          "type": "address"
        },
        {
          "internalType": "uint256[]",
          "name": "swapFees",
          "type": "uint256[]"
        },
        {
          "internalType": "bool",
          "name": "publicSwap",
          "type": "bool"
        },
        {
          "internalType": "bool",
          "name": "finalized",
          "type": "bool"
        },
        {
          "internalType": "address[2]",
          "name": "tokens",
          "type": "address[2]"
        },
        {
          "internalType": "address[2]",
          "name": "feeCollectors",
          "type": "address[2]"
        }
      ],
      "name": "initialize",
      "outputs": [
        {
          "internalType": "bool",
          "name": "",
          "type": "bool"
        }
      ],
      "stateMutability": "nonpayable",
      "type": "function"
    },
    {
      "inputs": [
        {
          "internalType": "address",
          "name": "t",
          "type": "address"
        }
      ],
      "name": "isBound",
      "outputs": [
        {
          "internalType": "bool",
          "name": "",
          "type": "bool"
        }
      ],
      "stateMutability": "view",
      "type": "function"
    },
    {
      "inputs": [],
      "name": "isFinalized",
      "outputs": [
        {
          "internalType": "bool",
          "name": "",
          "type": "bool"
        }
      ],
      "stateMutability": "view",
      "type": "function"
    },
    {
      "inputs": [],
      "name": "isInitialized",
      "outputs": [
        {
          "internalType": "bool",
          "name": "",
          "type": "bool"
        }
      ],
      "stateMutability": "view",
      "type": "function"
    },
    {
      "inputs": [],
      "name": "isPublicSwap",
      "outputs": [
        {
          "internalType": "bool",
          "name": "",
          "type": "bool"
        }
      ],
      "stateMutability": "view",
      "type": "function"
    },
    {
      "inputs": [
        {
          "internalType": "uint256",
          "name": "poolAmountOut",
          "type": "uint256"
        },
        {
          "internalType": "uint256[]",
          "name": "maxAmountsIn",
          "type": "uint256[]"
        }
      ],
      "name": "joinPool",
      "outputs": [],
      "stateMutability": "nonpayable",
      "type": "function"
    },
    {
      "inputs": [
        {
          "internalType": "address",
          "name": "tokenIn",
          "type": "address"
        },
        {
          "internalType": "uint256",
          "name": "tokenAmountIn",
          "type": "uint256"
        },
        {
          "internalType": "uint256",
          "name": "minPoolAmountOut",
          "type": "uint256"
        }
      ],
      "name": "joinswapExternAmountIn",
      "outputs": [
        {
          "internalType": "uint256",
          "name": "poolAmountOut",
          "type": "uint256"
        }
      ],
      "stateMutability": "nonpayable",
      "type": "function"
    },
    {
      "inputs": [
        {
          "internalType": "address",
          "name": "tokenIn",
          "type": "address"
        },
        {
          "internalType": "uint256",
          "name": "poolAmountOut",
          "type": "uint256"
        },
        {
          "internalType": "uint256",
          "name": "maxAmountIn",
          "type": "uint256"
        }
      ],
      "name": "joinswapPoolAmountOut",
      "outputs": [
        {
          "internalType": "uint256",
          "name": "tokenAmountIn",
          "type": "uint256"
        }
      ],
      "stateMutability": "nonpayable",
      "type": "function"
    },
    {
      "inputs": [
        {
          "internalType": "address",
          "name": "",
          "type": "address"
        }
      ],
      "name": "marketFees",
      "outputs": [
        {
          "internalType": "uint256",
          "name": "",
          "type": "uint256"
        }
      ],
      "stateMutability": "view",
      "type": "function"
    },
    {
      "inputs": [],
      "name": "name",
      "outputs": [
        {
          "internalType": "string",
          "name": "",
          "type": "string"
        }
      ],
      "stateMutability": "view",
      "type": "function"
    },
    {
      "inputs": [
        {
          "internalType": "uint256",
          "name": "swapFee",
          "type": "uint256"
        }
      ],
      "name": "setSwapFee",
      "outputs": [],
      "stateMutability": "nonpayable",
      "type": "function"
    },
    {
      "inputs": [
        {
          "internalType": "address",
          "name": "dataTokenAddress",
          "type": "address"
        },
        {
          "internalType": "uint256",
          "name": "dataTokenAmount",
          "type": "uint256"
        },
        {
          "internalType": "uint256",
          "name": "dataTokenWeight",
          "type": "uint256"
        },
        {
          "internalType": "address",
          "name": "baseTokenAddress",
          "type": "address"
        },
        {
          "internalType": "uint256",
          "name": "baseTokenAmount",
          "type": "uint256"
        },
        {
          "internalType": "uint256",
          "name": "baseTokenWeight",
          "type": "uint256"
        }
      ],
      "name": "setup",
      "outputs": [],
      "stateMutability": "nonpayable",
      "type": "function"
    },
    {
      "inputs": [
        {
          "internalType": "address",
          "name": "tokenIn",
          "type": "address"
        },
        {
          "internalType": "uint256",
          "name": "tokenAmountIn",
          "type": "uint256"
        },
        {
          "internalType": "address",
          "name": "tokenOut",
          "type": "address"
        },
        {
          "internalType": "uint256",
          "name": "minAmountOut",
          "type": "uint256"
        },
        {
          "internalType": "uint256",
          "name": "maxPrice",
          "type": "uint256"
        }
      ],
      "name": "swapExactAmountIn",
      "outputs": [
        {
          "internalType": "uint256",
          "name": "tokenAmountOut",
          "type": "uint256"
        },
        {
          "internalType": "uint256",
          "name": "spotPriceAfter",
          "type": "uint256"
        }
      ],
      "stateMutability": "nonpayable",
      "type": "function"
    },
    {
      "inputs": [
        {
          "internalType": "address",
          "name": "tokenIn",
          "type": "address"
        },
        {
          "internalType": "uint256",
          "name": "maxAmountIn",
          "type": "uint256"
        },
        {
          "internalType": "address",
          "name": "tokenOut",
          "type": "address"
        },
        {
          "internalType": "uint256",
          "name": "tokenAmountOut",
          "type": "uint256"
        },
        {
          "internalType": "uint256",
          "name": "maxPrice",
          "type": "uint256"
        }
      ],
      "name": "swapExactAmountOut",
      "outputs": [
        {
          "internalType": "uint256",
          "name": "tokenAmountIn",
          "type": "uint256"
        },
        {
          "internalType": "uint256",
          "name": "spotPriceAfter",
          "type": "uint256"
        }
      ],
      "stateMutability": "nonpayable",
      "type": "function"
    },
    {
      "inputs": [],
      "name": "symbol",
      "outputs": [
        {
          "internalType": "string",
          "name": "",
          "type": "string"
        }
      ],
      "stateMutability": "view",
      "type": "function"
    },
    {
      "inputs": [],
      "name": "totalSupply",
      "outputs": [
        {
          "internalType": "uint256",
          "name": "",
          "type": "uint256"
        }
      ],
      "stateMutability": "view",
      "type": "function"
    },
    {
      "inputs": [
        {
          "internalType": "address",
          "name": "dst",
          "type": "address"
        },
        {
          "internalType": "uint256",
          "name": "amt",
          "type": "uint256"
        }
      ],
      "name": "transfer",
      "outputs": [
        {
          "internalType": "bool",
          "name": "",
          "type": "bool"
        }
      ],
      "stateMutability": "nonpayable",
      "type": "function"
    },
    {
      "inputs": [
        {
          "internalType": "address",
          "name": "src",
          "type": "address"
        },
        {
          "internalType": "address",
          "name": "dst",
          "type": "address"
        },
        {
          "internalType": "uint256",
          "name": "amt",
          "type": "uint256"
        }
      ],
      "name": "transferFrom",
      "outputs": [
        {
          "internalType": "bool",
          "name": "",
          "type": "bool"
        }
      ],
      "stateMutability": "nonpayable",
      "type": "function"
    },
    {
      "inputs": [
        {
          "internalType": "address",
          "name": "_newCollector",
          "type": "address"
        }
      ],
      "name": "updateMarketFeeCollector",
      "outputs": [],
      "stateMutability": "nonpayable",
      "type": "function"
    }
  ],
  "bytecode": "0x60c0604052601360808190527f42616c616e63657220506f6f6c20546f6b656e0000000000000000000000000060a09081526200004091600a91906200008f565b506040805180820190915260038082526210941560ea1b60209092019182526200006d91600b916200008f565b50600c805460ff191660121790553480156200008857600080fd5b5062000172565b8280546200009d9062000135565b90600052602060002090601f016020900481019282620000c157600085556200010c565b82601f10620000dc57805160ff19168380011785556200010c565b828001600101855582156200010c579182015b828111156200010c578251825591602001919060010190620000ef565b506200011a9291506200011e565b5090565b5b808211156200011a57600081556001016200011f565b600181811c908216806200014a57607f821691505b602082108114156200016c57634e487b7160e01b600052602260045260246000fd5b50919050565b61573a80620001826000396000f3fe608060405234801561001057600080fd5b50600436106104075760003560e01c80638201aa3f11610220578063be3bbd2e11610130578063e4a28a52116100b8578063f68045a511610087578063f68045a514610875578063f8b2cb4f1461087d578063fbb9dd5014610890578063fde924f7146108a3578063ff9b1850146108b557600080fd5b8063e4a28a521461048f578063ec09302114610847578063f0f13f0b1461084f578063f1b8a9b71461086257600080fd5b8063cc77828d116100ff578063cc77828d146107e3578063cd2ed8fb146107eb578063d4cadf68146107f3578063d73dd623146107fb578063dd62ed3e1461080e57600080fd5b8063be3bbd2e146107b3578063c070a6d8146107c8578063c36596a6146104cf578063c6580d12146107db57600080fd5b8063a3b3a16d116101b3578063b0e0d13611610182578063b0e0d13614610793578063b7b800a414610793578063ba019dab1461079b578063bc063e1a146107a3578063bc694ea2146107ab57600080fd5b8063a3b3a16d14610747578063a562ddf01461075a578063a9059cbb1461076d578063b02f0b731461078057600080fd5b80639381cd2b116101ef5780639381cd2b1461071c578063948d8ce61461072457806395d89b4114610737578063992e2a921461073f57600080fd5b80638201aa3f146106e7578063867378c5146106fa5780638d4e408314610702578063936c34771461071457600080fd5b806334e199071161031b5780634f69c0d4116102ae578063700dd7e81161027d578063700dd7e814610673578063703305181461067b57806370a082311461068e57806376c7a3c7146106b75780637c5e9ea4146106bf57600080fd5b80634f69c0d4146106275780635db342771461063a578063661884631461064d5780636d06dfa01461066057600080fd5b8063430ed5d0116102ea578063430ed5d0146105e757806346ab38f1146105fa57806349e9350f1461060d5780634df947d01461061657600080fd5b806334e199071461059c578063380376a6146105af578063392e53cd146105c25780633950b3fd146105d457600080fd5b8063189d00ca1161039e5780632f37b6241161036d5780632f37b6241461050457806330062192146105305780633018205f14610550578063313ce5671461056757806331e2761b1461057c57600080fd5b8063189d00ca146104c7578063218b5382146104cf57806323b872dd146104de5780632ea07d8a146104f157600080fd5b806309a3bbe4116103da57806309a3bbe41461048f57806309ef3f5b1461049757806315e84af9146104ac57806318160ddd146104bf57600080fd5b806302c967481461040c57806304ad79541461043257806306fdde0314610457578063095ea7b31461046c575b600080fd5b61041f61041a36600461523a565b6108c8565b6040519081526020015b60405180910390f35b6003546001600160a01b03165b6040516001600160a01b039091168152602001610429565b61045f610d44565b60405161042991906153d1565b61047f61047a3660046151c2565b610dd6565b6040519015158152602001610429565b61041f610e31565b6104aa6104a536600461526d565b610e47565b005b61041f6104ba3660046150a6565b610fe6565b60095461041f565b61041f6110ca565b61041f670de0b6b3a764000081565b61047f6104ec366004615186565b6110e1565b61041f6104ff366004615186565b611235565b61047f61051236600461508b565b6001600160a01b031660009081526010602052604090205460ff1690565b61041f61053e36600461508b565b60056020526000908152604090205481565b600c546201000090046001600160a01b031661043f565b600c5460405160ff9091168152602001610429565b61041f61058a36600461508b565b60066020526000908152604090205481565b6104aa6105aa3660046152e2565b6112f0565b61041f6105bd366004615186565b611439565b601254600160a01b900460ff1661047f565b61041f6105e23660046151c2565b6114ea565b61041f6105f53660046151c2565b611552565b61041f61060836600461523a565b6115b2565b61041f60005481565b6004546001600160a01b031661043f565b6104aa610635366004615314565b6119a9565b61041f61064836600461523a565b611bd0565b61047f61065b3660046151c2565b611fdb565b61041f61066e36600461523a565b6120b1565b61041f6124a0565b6104aa61068936600461508b565b612529565b61041f61069c36600461508b565b6001600160a01b031660009081526007602052604090205490565b61041f61259d565b6106d26106cd3660046151ec565b6125b2565b60408051928352602083019190915201610429565b6106d26106f53660046151ec565b612903565b61041f612c38565b600e54600160a01b900460ff1661047f565b61041f612c4f565b61041f612c81565b61041f61073236600461508b565b612c94565b61045f612d1a565b61041f612d29565b61041f6107553660046151c2565b612d47565b600d5461043f906001600160a01b031681565b61047f61077b3660046151c2565b612da7565b6104aa61078e366004615314565b612dbd565b61041f600281565b61041f600181565b61041f612ff8565b61041f61300b565b6107bb61302a565b6040516104299190615384565b61047f6107d63660046150d9565b6130dd565b61041f600081565b6107bb61334d565b600f5461041f565b60015461041f565b61047f6108093660046151c2565b613378565b61041f61081c3660046150a6565b6001600160a01b03918216600090815260086020908152604080832093909416825291909152205490565b61041f6133eb565b600e5461043f906001600160a01b031681565b61041f61087036600461508b565b6133fe565b6104aa613492565b61041f61088b36600461508b565b6135ec565b6104aa61089e36600461508b565b61366e565b600c54600160b01b900460ff1661047f565b61041f6108c33660046151c2565b613819565b600c54600090610100900460ff16156108fc5760405162461bcd60e51b81526004016108f3906154c6565b60405180910390fd5b600c805461ff001916610100179055600e54600160a01b900460ff166109345760405162461bcd60e51b81526004016108f39061553d565b6001600160a01b03841660009081526010602052604090205460ff1661096c5760405162461bcd60e51b81526004016108f390615516565b6001600160a01b03841660009081526010602052604090206003908101546109b0916109a090670de0b6b3a7640000615580565b6109ab906001615568565b613879565b8311156109cf5760405162461bcd60e51b81526004016108f3906154eb565b6003546001600160a01b039081166000818152601060205260408120909290919087161415610a0b576004546001600160a01b03169150610a30565b50506003546004546001600160a01b0390811660009081526010602052604090209116905b6001600160a01b038616600090815260106020526040902060038101546002820154600954601154610a65939291908a613954565b935083610a845760405162461bcd60e51b81526004016108f390615450565b84841115610aa45760405162461bcd60e51b81526004016108f3906154a0565b610ab2816003015487613a18565b60038201556000610ac38582613879565b604080518981524260208201529192506001600160a01b038a16913391600080516020615685833981519152910160405180910390a36040518581526000805160206156a58339815191529060200160405180910390a1610b243386613a75565b610b36610b318683613a18565b613a7f565b600254610b4c906001600160a01b031682613a8b565b610b57883389613a95565b6000610b72846003015485600201546009546011548a613b63565b60125460035460405163efd4810360e01b81529293506001600160a01b039182169263efd4810392610bac92169089908690600401615360565b60206040518083038186803b158015610bc457600080fd5b505afa158015610bd8573d6000803e3d6000fd5b505050506040513d601f19601f82011682018060405250810190610bfc91906152c5565b151560011415610d2d57610c14846003015482613a18565b6003850155610c24866000613879565b600c54604080518481524260208201529294506001600160a01b0388811693620100009093041691600080516020615685833981519152910160405180910390a3600c54610c81906201000090046001600160a01b031687613a75565b610c8e610b318784613a18565b600254610ca4906001600160a01b031683613a8b565b600c54610cc29086906201000090046001600160a01b031683613a95565b60125460035460405163679346f560e11b81526001600160a01b039283169263cf268dea92610cfa9291169089908690600401615360565b600060405180830381600087803b158015610d1457600080fd5b505af1158015610d28573d6000803e3d6000fd5b505050505b5050505050600c805461ff00191690559392505050565b6060600a8054610d53906155ca565b80601f0160208091040260200160405190810160405280929190818152602001828054610d7f906155ca565b8015610dcc5780601f10610da157610100808354040283529160200191610dcc565b820191906000526020600020905b815481529060010190602001808311610daf57829003601f168201915b5050505050905090565b3360008181526008602090815260408083206001600160a01b038716808552925280832085905551919290916000805160206156e583398151915290610e1f9086815260200190565b60405180910390a35060015b92915050565b610e44670de0b6b3a76400006032615594565b81565b600c546201000090046001600160a01b03163314610ea05760405162461bcd60e51b815260206004820152601660248201527522a9292fa4a72b20a624a22fa1a7a72a2927a62622a960511b60448201526064016108f3565b6003546001600160a01b03878116911614610efd5760405162461bcd60e51b815260206004820152601d60248201527f4552525f494e56414c49445f44415441544f4b454e5f4144445245535300000060448201526064016108f3565b6004546001600160a01b03848116911614610f5a5760405162461bcd60e51b815260206004820152601d60248201527f4552525f494e56414c49445f42415345544f4b454e5f4144445245535300000060448201526064016108f3565b610f65868686613c2d565b604080518681524260208201526001600160a01b0388169133916000805160206156c5833981519152910160405180910390a3610fa3838383613c2d565b604080518381524260208201526001600160a01b0385169133916000805160206156c5833981519152910160405180910390a3610fde613e17565b505050505050565b600c54600090610100900460ff16156110115760405162461bcd60e51b81526004016108f3906154c6565b6001600160a01b03831660009081526010602052604090205460ff166110495760405162461bcd60e51b81526004016108f390615516565b6001600160a01b03821660009081526010602052604090205460ff166110815760405162461bcd60e51b81526004016108f390615516565b6001600160a01b038084166000908152601060205260408082209285168252902060038083015460028085015492840154908401546110c1939190613e76565b95945050505050565b610e446402540be400670de0b6b3a7640000615580565b6000336001600160a01b038516148061111d57506001600160a01b03841660009081526008602090815260408083203384529091529020548211155b6111615760405162461bcd60e51b815260206004820152601560248201527422a9292fa12a27a5a2a72fa120a22fa1a0a62622a960591b60448201526064016108f3565b61116c848484613eee565b336001600160a01b038516148015906111aa57506001600160a01b038416600090815260086020908152604080832033845290915290205460001914155b1561122b576001600160a01b03841660009081526008602090815260408083203384529091529020546111dd9083613a18565b6001600160a01b0385811660009081526008602090815260408083203380855290835292819020859055519384529186169290916000805160206156e5833981519152910160405180910390a35b5060019392505050565b6001600160a01b03831660009081526010602052604081205460ff1661126d5760405162461bcd60e51b81526004016108f390615516565b6001600160a01b03831660009081526010602052604090205460ff166112a55760405162461bcd60e51b81526004016108f390615516565b6001600160a01b038085166000908152601060205260408082209286168252902060038083015460028085015492840154908401546112e693919088614000565b9695505050505050565b600e54600160a01b900460ff161561133d5760405162461bcd60e51b815260206004820152601060248201526f11549497d254d7d1925390531256915160821b60448201526064016108f3565b600c546201000090046001600160a01b031633146113925760405162461bcd60e51b815260206004820152601260248201527122a9292fa727aa2fa1a7a72a2927a62622a960711b60448201526064016108f3565b6113a7620f4240670de0b6b3a7640000615580565b8110156113e45760405162461bcd60e51b815260206004820152600b60248201526a4552525f4d494e5f46454560a81b60448201526064016108f3565b6113f7600a670de0b6b3a7640000615580565b8111156114345760405162461bcd60e51b815260206004820152600b60248201526a4552525f4d41585f46454560a81b60448201526064016108f3565b600155565b6001600160a01b03831660009081526010602052604081205460ff166114715760405162461bcd60e51b81526004016108f390615516565b6001600160a01b03831660009081526010602052604090205460ff166114a95760405162461bcd60e51b81526004016108f390615516565b6001600160a01b038085166000908152601060205260408082209286168252902060038083015460028085015492840154908401546112e6939190886140a8565b6001600160a01b03821660009081526010602090815260408083208151608081018352815460ff16151581526001820154938101939093526002810154918301829052600301546060830181905260095460115461154a9391908761414e565b949350505050565b6001600160a01b03821660009081526010602090815260408083208151608081018352815460ff16151581526001820154938101939093526002810154918301829052600301546060830181905260095460115461154a93919087613b63565b600c54600090610100900460ff16156115dd5760405162461bcd60e51b81526004016108f3906154c6565b600c805461ff001916610100179055600e54600160a01b900460ff166116155760405162461bcd60e51b81526004016108f39061553d565b6001600160a01b03841660009081526010602052604090205460ff1661164d5760405162461bcd60e51b81526004016108f390615516565b6001600160a01b0384166000908152601060205260409020600381015460028201546009546011546116829392919088613b63565b9150828210156116a45760405162461bcd60e51b81526004016108f390615479565b6001600160a01b03851660009081526010602052604090206003908101546116d8916109a090670de0b6b3a7640000615580565b8211156116f75760405162461bcd60e51b81526004016108f3906154eb565b6003546001600160a01b039081166000818152601060205260408120909290919088161415611733576004546001600160a01b03169150611758565b50506003546004546001600160a01b0390811660009081526010602052604090209116905b611766836003015485613a18565b600384015560006117778782613879565b604080518781524260208201529192506001600160a01b038a16913391600080516020615685833981519152910160405180910390a36040518781526000805160206156a58339815191529060200160405180910390a16117d83388613a75565b6117e5610b318883613a18565b6002546117fb906001600160a01b031682613a8b565b611806883387613a95565b6000611821836003015484600201546009546011548c613b63565b60125460035460405163efd4810360e01b81529293506001600160a01b039182169263efd481039261185b92169088908d90600401615360565b60206040518083038186803b15801561187357600080fd5b505afa158015611887573d6000803e3d6000fd5b505050506040513d601f19601f820116820180604052508101906118ab91906152c5565b151560011415610d2d576118c3836003015482613a18565b60038401556118d3886000613879565b600c54604080518481524260208201529294506001600160a01b0387811693620100009093041691600080516020615685833981519152910160405180910390a3600c54611930906201000090046001600160a01b031689613a75565b61193d610b318984613a18565b600254611953906001600160a01b031683613a8b565b600c546119719085906201000090046001600160a01b031683613a95565b60125460035460405163679346f560e11b81526001600160a01b039283169263cf268dea92610cfa9291169088908690600401615360565b600c54610100900460ff16156119d15760405162461bcd60e51b81526004016108f3906154c6565b600c805461ff001916610100179055600e54600160a01b900460ff16611a095760405162461bcd60e51b81526004016108f39061553d565b6000611a1460095490565b90506000611a2285836141e3565b905080611a415760405162461bcd60e51b81526004016108f390615450565b60005b600f54811015611b89576000600f8281548110611a6357611a63615660565b60009182526020808320909101546001600160a01b03168083526010909152604082206003015490925090611a988583613879565b905080611ab75760405162461bcd60e51b81526004016108f390615450565b878785818110611ac957611ac9615660565b90506020020135811115611aef5760405162461bcd60e51b81526004016108f3906154a0565b6001600160a01b038316600090815260106020526040902060030154611b1590826142fb565b6001600160a01b0384166000818152601060205260409081902060030192909255905133906000805160206156c583398151915290611b609085904290918252602082015260400190565b60405180910390a3611b7383338361434d565b5050508080611b8190615605565b915050611a44565b50611b9385614380565b611b9d3386613a8b565b6040518581526000805160206156a58339815191529060200160405180910390a15050600c805461ff0019169055505050565b600c54600090610100900460ff1615611bfb5760405162461bcd60e51b81526004016108f3906154c6565b600c805461ff001916610100179055600e54600160a01b900460ff16611c335760405162461bcd60e51b81526004016108f39061553d565b6001600160a01b03841660009081526010602052604090205460ff16611c6b5760405162461bcd60e51b81526004016108f390615516565b6001600160a01b038416600090815260106020526040902060030154611c9e906109ab6002670de0b6b3a7640000615580565b831115611cbd5760405162461bcd60e51b81526004016108f390615426565b6003546001600160a01b0390811660008181526010602052604081209290919087161415611cf757506004546001600160a01b0316611d1c565b50506004546001600160a01b0390811660009081526010602052604090206003549091165b6001600160a01b038616600090815260106020526040902060038101546002820154600954601154611d51939291908a61414e565b935084841015611d735760405162461bcd60e51b81526004016108f390615479565b611d818160030154876142fb565b6003820155604080518781524260208201526001600160a01b0389169133916000805160206156c5833981519152910160405180910390a36040518481526000805160206156a58339815191529060200160405180910390a1611de384614380565b611ded3385613a8b565b611df887338861434d565b6000611e138460030154856002015460095460115489614389565b6012546003546040516326b1f01f60e01b81529293506001600160a01b03918216926326b1f01f92611e4d92169087908690600401615360565b60206040518083038186803b158015611e6557600080fd5b505afa158015611e79573d6000803e3d6000fd5b505050506040513d601f19601f82011682018060405250810190611e9d91906152c5565b151560011415611fc5576012546003546040516399039fcf60e01b81526001600160a01b03928316926399039fcf92611edf9291169087908690600401615360565b600060405180830381600087803b158015611ef957600080fd5b505af1158015611f0d573d6000803e3d6000fd5b50505050611f1f8460030154826142fb565b6003850155600c54604080518381524260208201526001600160a01b038681169362010000900416916000805160206156c5833981519152910160405180910390a36040518581526000805160206156a58339815191529060200160405180910390a1611f8b85614380565b600c54611fa7906201000090046001600160a01b031686613a8b565b600c54611fc59084906201000090046001600160a01b03168361434d565b50505050600c805461ff00191690559392505050565b3360009081526008602090815260408083206001600160a01b038616845290915281205480831115612030573360009081526008602090815260408083206001600160a01b038816845290915281205561205f565b61203a8184613a18565b3360009081526008602090815260408083206001600160a01b03891684529091529020555b3360008181526008602090815260408083206001600160a01b038916808552908352928190205490519081529192916000805160206156e5833981519152910160405180910390a35060019392505050565b600c54600090610100900460ff16156120dc5760405162461bcd60e51b81526004016108f3906154c6565b600c805461ff001916610100179055600e54600160a01b900460ff166121145760405162461bcd60e51b81526004016108f39061553d565b6001600160a01b03841660009081526010602052604090205460ff1661214c5760405162461bcd60e51b81526004016108f390615516565b6001600160a01b0384166000908152601060205260409020600381015460028201546009546011546121819392919088614389565b6003546001600160a01b03908116600081815260106020526040812093955091881614156121bb57506004546001600160a01b03166121e0565b50506004546001600160a01b0390811660009081526010602052604090206003549091165b836121fd5760405162461bcd60e51b81526004016108f390615450565b8484111561221d5760405162461bcd60e51b81526004016108f3906154a0565b6001600160a01b038716600090815260106020526040902060030154612250906109ab6002670de0b6b3a7640000615580565b84111561226f5760405162461bcd60e51b81526004016108f390615426565b61227d8360030154856142fb565b6003840155604080518581524260208201526001600160a01b0389169133916000805160206156c5833981519152910160405180910390a36040518681526000805160206156a58339815191529060200160405180910390a16122df86614380565b6122e93387613a8b565b6122f487338661434d565b600061230f836003015484600201546009546011548b614389565b6012546003546040516326b1f01f60e01b81529293506001600160a01b03918216926326b1f01f9261234992169086908690600401615360565b60206040518083038186803b15801561236157600080fd5b505afa158015612375573d6000803e3d6000fd5b505050506040513d601f19601f8201168201806040525081019061239991906152c5565b151560011415611fc5576012546003546040516399039fcf60e01b81526001600160a01b03928316926399039fcf926123db9291169086908690600401615360565b600060405180830381600087803b1580156123f557600080fd5b505af1158015612409573d6000803e3d6000fd5b5050505061241b8360030154826142fb565b6003840155600c54604080518381524260208201526001600160a01b038581169362010000900416916000805160206156c5833981519152910160405180910390a361246687614380565b600c54612482906201000090046001600160a01b031688613a8b565b600c54611fc59083906201000090046001600160a01b03168361434d565b60025460048054604051637c0aa57760e11b81526001600160a01b0391821692810192909252600092169063f8154aee9060240160206040518083038186803b1580156124ec57600080fd5b505afa158015612500573d6000803e3d6000fd5b505050506040513d601f19601f8201168201806040525081019061252491906152fb565b905090565b600d546001600160a01b0316331461257b5760405162461bcd60e51b815260206004820152601560248201527427a7262c9026a0a925a2aa1021a7a62622a1aa27a960591b60448201526064016108f3565b600d80546001600160a01b0319166001600160a01b0392909216919091179055565b610e44620f4240670de0b6b3a7640000615580565b600c546000908190610100900460ff16156125df5760405162461bcd60e51b81526004016108f3906154c6565b600c805461ff001916610100179055600e54600160a01b900460ff166126175760405162461bcd60e51b81526004016108f39061553d565b6001600160a01b03871660009081526010602052604090205460ff1661264f5760405162461bcd60e51b81526004016108f390615516565b6001600160a01b03851660009081526010602052604090205460ff166126875760405162461bcd60e51b81526004016108f390615516565b6001600160a01b03808816600090815260106020526040808220928816825290206003808201546126c4916109a090670de0b6b3a7640000615580565b8611156126e35760405162461bcd60e51b81526004016108f3906154eb565b60006127018360030154846002015484600301548560020154613e76565b9050858111156127495760405162461bcd60e51b81526020600482015260136024820152724552525f4241445f4c494d49545f505249434560681b60448201526064016108f3565b60008060405180608001604052808660030154815260200186600201548152602001856003015481526020018560020154815250905061278a818a8e614423565b90975091508a8711156127af5760405162461bcd60e51b81526004016108f3906154a0565b6127bd8560030154836142fb565b85600301819055506127d384600301548a613a18565b6003808601829055860154600280880154908701546127f29390613e76565b9550828610156128145760405162461bcd60e51b81526004016108f390615450565b878611156128565760405162461bcd60e51b815260206004820152600f60248201526e4552525f4c494d49545f505249434560881b60448201526064016108f3565b612860878a6141e3565b83111561287f5760405162461bcd60e51b81526004016108f390615450565b60408051888152602081018b9052428183015290516001600160a01b038c811692908f169133917f50ef2fc267012b5c84b56835f16ffd5331ac5a151a3760d74908721ba78b0efe919081900360600190a46128dc8c338961434d565b6128e78a338b613a95565b5050505050600c805461ff001916905590969095509350505050565b600c546000908190610100900460ff16156129305760405162461bcd60e51b81526004016108f3906154c6565b600c805461ff001916610100179055600e54600160a01b900460ff166129685760405162461bcd60e51b81526004016108f39061553d565b6001600160a01b03871660009081526010602052604090205460ff166129a05760405162461bcd60e51b81526004016108f390615516565b6001600160a01b03851660009081526010602052604090205460ff166129d85760405162461bcd60e51b81526004016108f390615516565b6001600160a01b03808816600090815260106020526040808220928816825290206003820154612a15906109ab6002670de0b6b3a7640000615580565b881115612a345760405162461bcd60e51b81526004016108f390615426565b6000612a528360030154846002015484600301548560020154613e76565b905085811115612a9a5760405162461bcd60e51b81526020600482015260136024820152724552525f4241445f4c494d49545f505249434560681b60448201526064016108f3565b600080604051806080016040528086600301548152602001866002015481526020018560030154815260200185600201548152509050612adb818c8e614641565b909750915088871015612b005760405162461bcd60e51b81526004016108f390615479565b612b0e8560030154836142fb565b8560030181905550612b24846003015488613a18565b600380860182905586015460028088015490870154612b439390613e76565b955082861015612b655760405162461bcd60e51b81526004016108f390615450565b87861115612ba75760405162461bcd60e51b815260206004820152600f60248201526e4552525f4c494d49545f505249434560881b60448201526064016108f3565b612bb18b886141e3565b831115612bd05760405162461bcd60e51b81526004016108f390615450565b604080518c815260208101899052428183015290516001600160a01b038c811692908f169133917f50ef2fc267012b5c84b56835f16ffd5331ac5a151a3760d74908721ba78b0efe919081900360600190a4612c2d8c338d61434d565b6128e78a3389613a95565b610e4464e8d4a51000670de0b6b3a7640000615580565b600c54600090610100900460ff1615612c7a5760405162461bcd60e51b81526004016108f3906154c6565b5060115490565b610e44670de0b6b3a76400006064615594565b600c54600090610100900460ff1615612cbf5760405162461bcd60e51b81526004016108f3906154c6565b6001600160a01b03821660009081526010602052604090205460ff16612cf75760405162461bcd60e51b81526004016108f390615516565b506001600160a01b0381166000908152601060205260409020600201545b919050565b6060600b8054610d53906155ca565b612d3c6003670de0b6b3a7640000615580565b610e44906001615568565b6001600160a01b03821660009081526010602090815260408083208151608081018352815460ff16151581526001820154938101939093526002810154918301829052600301546060830181905260095460115461154a93919087613954565b6000612db4338484613eee565b50600192915050565b600c54610100900460ff1615612de55760405162461bcd60e51b81526004016108f3906154c6565b600c805461ff001916610100179055600e54600160a01b900460ff16612e1d5760405162461bcd60e51b81526004016108f39061553d565b6000612e2860095490565b90506000612e37856000613879565b90506000612e458683613a18565b90506000612e5382856141e3565b905080612e725760405162461bcd60e51b81526004016108f390615450565b612e7c3388613a75565b600254612e92906001600160a01b031684613a8b565b612e9b82613a7f565b60005b600f54811015612fe3576000600f8281548110612ebd57612ebd615660565b60009182526020808320909101546001600160a01b03168083526010909152604082206003015490925090612ef28583613879565b905080612f115760405162461bcd60e51b81526004016108f390615450565b898985818110612f2357612f23615660565b90506020020135811015612f495760405162461bcd60e51b81526004016108f390615479565b6001600160a01b038316600090815260106020526040902060030154612f6f9082613a18565b6001600160a01b03841660008181526010602052604090819020600301929092559051339060008051602061568583398151915290612fba9085904290918252602082015260400190565b60405180910390a3612fcd833383613a95565b5050508080612fdb90615605565b915050612e9e565b5050600c805461ff0019169055505050505050565b610e44600a670de0b6b3a7640000615580565b6001613020670de0b6b3a76400006002615594565b610e4491906155b3565b600c54606090610100900460ff16156130555760405162461bcd60e51b81526004016108f3906154c6565b600e54600160a01b900460ff1661307e5760405162461bcd60e51b81526004016108f39061553d565b600f805480602002602001604051908101604052809291908181526020018280548015610dcc57602002820191906000526020600020905b81546001600160a01b031681526001909101906020018083116130b6575050505050905090565b601254600090600160a01b900460ff161561313a5760405162461bcd60e51b815260206004820152601760248201527f4552525f414c52454144595f494e495449414c495a454400000000000000000060448201526064016108f3565b6001600160a01b0389166131905760405162461bcd60e51b815260206004820152601e60248201527f4552525f494e56414c49445f434f4e54524f4c4c45525f41444452455353000060448201526064016108f3565b6001600160a01b0388166131e65760405162461bcd60e51b815260206004820152601b60248201527f4552525f494e56414c49445f464143544f52595f41444452455353000000000060448201526064016108f3565b6131fb620f4240670de0b6b3a7640000615580565b8787600081811061320e5761320e615660565b9050602002013510156132515760405162461bcd60e51b815260206004820152600b60248201526a4552525f4d494e5f46454560a81b60448201526064016108f3565b613264600a670de0b6b3a7640000615580565b8787600081811061327757613277615660565b9050602002013511156132ba5760405162461bcd60e51b815260206004820152600b60248201526a4552525f4d41585f46454560a81b60448201526064016108f3565b6133408989898980806020026020016040519081016040528093929190818152602001838360200280828437600092019190915250506040805180820182528c93508b9250908a9060029083908390808284376000920191909152505060408051808201825291508a906002908390839080828437600092019190915250614846915050565b9998505050505050505050565b600c54606090610100900460ff161561307e5760405162461bcd60e51b81526004016108f3906154c6565b3360009081526008602090815260408083206001600160a01b03861684529091528120546133a690836142fb565b3360008181526008602090815260408083206001600160a01b038916808552908352928190208590555193845290926000805160206156e58339815191529101610e1f565b610e446002670de0b6b3a7640000615580565b600c54600090610100900460ff16156134295760405162461bcd60e51b81526004016108f3906154c6565b6001600160a01b03821660009081526010602052604090205460ff166134615760405162461bcd60e51b81526004016108f390615516565b6001600160a01b03821660009081526010602052604090206002015460115461348b9082906141e3565b9392505050565b600061349c61302a565b905060005b81518110156135e8576000600560008484815181106134c2576134c2615660565b60200260200101516001600160a01b03166001600160a01b0316815260200190815260200160002054905060006005600085858151811061350557613505615660565b60200260200101516001600160a01b03166001600160a01b031681526020019081526020016000208190555082828151811061354357613543615660565b6020908102919091010151600e5460405163a9059cbb60e01b81526001600160a01b0391821660048201526024810184905291169063a9059cbb90604401602060405180830381600087803b15801561359b57600080fd5b505af11580156135af573d6000803e3d6000fd5b505050506040513d601f19601f820116820180604052508101906135d391906152c5565b505080806135e090615605565b9150506134a1565b5050565b600c54600090610100900460ff16156136175760405162461bcd60e51b81526004016108f3906154c6565b6001600160a01b03821660009081526010602052604090205460ff1661364f5760405162461bcd60e51b81526004016108f390615516565b506001600160a01b031660009081526010602052604090206003015490565b600d546001600160a01b031633146136c05760405162461bcd60e51b815260206004820152601560248201527427a7262c9026a0a925a2aa1021a7a62622a1aa27a960591b60448201526064016108f3565b60006136ca61302a565b905060005b8151811015613814576000600660008484815181106136f0576136f0615660565b60200260200101516001600160a01b03166001600160a01b0316815260200190815260200160002054905060006006600085858151811061373357613733615660565b60200260200101516001600160a01b03166001600160a01b031681526020019081526020016000208190555082828151811061377157613771615660565b602090810291909101015160405163a9059cbb60e01b81526001600160a01b038681166004830152602482018490529091169063a9059cbb90604401602060405180830381600087803b1580156137c757600080fd5b505af11580156137db573d6000803e3d6000fd5b505050506040513d601f19601f820116820180604052508101906137ff91906152c5565b5050808061380c90615605565b9150506136cf565b505050565b6001600160a01b03821660009081526010602090815260408083208151608081018352815460ff16151581526001820154938101939093526002810154918301829052600301546060830181905260095460115461154a93919087614389565b6000806138868385615594565b905083158061389d57508261389b8583615580565b145b6138dc5760405162461bcd60e51b815260206004820152601060248201526f4552525f4d554c5f4f564552464c4f5760801b60448201526064016108f3565b60006138f16002670de0b6b3a7640000615580565b6138fb9083615568565b9050818110156139405760405162461bcd60e51b815260206004820152601060248201526f4552525f4d554c5f4f564552464c4f5760801b60448201526064016108f3565b60006112e6670de0b6b3a764000083615580565b60008061396186856141e3565b90506000613977670de0b6b3a764000083613a18565b9050600061398782600154613879565b905060006139a6866139a1670de0b6b3a764000085613a18565b6141e3565b905060006139b48b83613a18565b905060006139c2828d6141e3565b905060006139d08288614984565b905060006139de828d613879565b905060006139ec8d83613a18565b9050613a05816139a1670de0b6b3a76400006000613a18565b9f9e505050505050505050505050505050565b6000806000613a278585614ab0565b915091508015613a6d5760405162461bcd60e51b81526020600482015260116024820152704552525f5355425f554e444552464c4f5760781b60448201526064016108f3565b509392505050565b6135e88282614ae7565b613a8881614af2565b50565b6135e88282614bbe565b60405163a9059cbb60e01b81526001600160a01b038381166004830152602482018390526000919085169063a9059cbb906044015b602060405180830381600087803b158015613ae457600080fd5b505af1158015613af8573d6000803e3d6000fd5b505050506040513d601f19601f82011682018060405250810190613b1c91906152c5565b905080613b5d5760405162461bcd60e51b815260206004820152600f60248201526e4552525f45524332305f46414c534560881b60448201526064016108f3565b50505050565b600080613b7086856141e3565b90506000613b8b846109ab670de0b6b3a76400006000613a18565b90506000613b998783613a18565b90506000613ba782896141e3565b90506000613bc682613bc1670de0b6b3a7640000886141e3565b614984565b90506000613bd4828d613879565b90506000613be28d83613a18565b90506000613c03613bfb670de0b6b3a76400008a613a18565b600154613879565b9050613c1b826109ab670de0b6b3a764000084613a18565b9e9d5050505050505050505050505050565b600c546201000090046001600160a01b03163314613c825760405162461bcd60e51b815260206004820152601260248201527122a9292fa727aa2fa1a7a72a2927a62622a960711b60448201526064016108f3565b6001600160a01b03831660009081526010602052604090205460ff1615613cda5760405162461bcd60e51b815260206004820152600c60248201526b11549497d254d7d093d5539160a21b60448201526064016108f3565b600e54600160a01b900460ff1615613d275760405162461bcd60e51b815260206004820152601060248201526f11549497d254d7d1925390531256915160821b60448201526064016108f3565b600f54600211613d6a5760405162461bcd60e51b815260206004820152600e60248201526d4552525f4d41585f544f4b454e5360901b60448201526064016108f3565b604080516080810182526001808252600f805460208085019182526000858701818152606087018281526001600160a01b038c1680845260109094529782209651875460ff1916901515178755925186860155915160028601559451600390940193909355805491820181559091527f8d1108e10bcb7c27dddfc02ed9d693a074039d026cf4ea4240b40f7d581ac8020180546001600160a01b0319169091179055613814838383614bc9565b600e805460ff60a01b1916600160a01b179055600c805460ff60b01b1916600160b01b179055613e58613e53670de0b6b3a76400006064615594565b614380565b613e7433613e6f670de0b6b3a76400006064615594565b613a8b565b565b600080613e8386866141e3565b90506000613e9185856141e3565b90506000613e9f83836141e3565b90506000613ee2670de0b6b3a76400006139a1670de0b6b3a7640000600054613ec66124a0565b600154613ed39190615568565b613edd9190615568565b613a18565b90506133408282613879565b6001600160a01b038316600090815260076020526040902054811115613f4d5760405162461bcd60e51b815260206004820152601460248201527311549497d25394d551919250d251539517d0905360621b60448201526064016108f3565b6001600160a01b038316600090815260076020526040902054613f709082613a18565b6001600160a01b038085166000908152600760205260408082209390935590841681522054613f9f90826142fb565b6001600160a01b0380841660008181526007602052604090819020939093559151908516907fddf252ad1be2c89b69c2b068fc378daa952ba7f163c4a11628f55a4df523b3ef90613ff39085815260200190565b60405180910390a3505050565b60008061400d84876141e3565b9050600061401b8685613a18565b9050600061402987836141e3565b905060006140378285614984565b905061404b81670de0b6b3a7640000613a18565b9050600080546140596124a0565b6001546140669190615568565b6140709190615568565b9050614084670de0b6b3a764000082613a18565b95506140996140938c84613879565b876141e3565b9b9a5050505050505050505050565b6000806140b586856141e3565b9050600080546140c36124a0565b6001546140d09190615568565b6140da9190615568565b905060006140f0670de0b6b3a764000083613a18565b90506140fc8582613879565b9050600061410e8a6139a18c856142fb565b9050600061411c8286614984565b90506000614132670de0b6b3a764000083613a18565b905061413e8a82613879565b9c9b505050505050505050505050565b60008061415b86856141e3565b90506000614174613bfb670de0b6b3a764000084613a18565b9050600061418e856109ab670de0b6b3a764000085613a18565b9050600061419c8a836142fb565b905060006141aa828c6141e3565b905060006141b88287614984565b905060006141c6828c613879565b90506141d2818c613a18565b9d9c50505050505050505050505050565b6000816142215760405162461bcd60e51b815260206004820152600c60248201526b4552525f4449565f5a45524f60a01b60448201526064016108f3565b6000614235670de0b6b3a764000085615594565b90508315806142545750670de0b6b3a76400006142528583615580565b145b6142935760405162461bcd60e51b815260206004820152601060248201526f11549497d1125597d25395115493905360821b60448201526064016108f3565b60006142a0600285615580565b6142aa9083615568565b9050818110156142ef5760405162461bcd60e51b815260206004820152601060248201526f11549497d1125597d25395115493905360821b60448201526064016108f3565b60006112e68583615580565b6000806143088385615568565b90508381101561348b5760405162461bcd60e51b815260206004820152601060248201526f4552525f4144445f4f564552464c4f5760801b60448201526064016108f3565b6040516323b872dd60e01b81526000906001600160a01b038516906323b872dd90613aca90869030908790600401615360565b613a8881614e19565b60008061439686856141e3565b905060006143a486856142fb565b905060006143b282886141e3565b905060006143c8670de0b6b3a7640000856141e3565b905060006143d68383614984565b905060006143e4828d613879565b905060006143f2828e613a18565b9050600061440b613bfb670de0b6b3a76400008a613a18565b9050613c1b826139a1670de0b6b3a764000084613a18565b6000808061444086600360200201518760015b60200201516141e3565b90506000614455876002602002015187613a18565b9050600061446a8860026020020151836141e3565b905060006144788285614984565b905061448c81670de0b6b3a7640000613a18565b90506000805461449a6124a0565b6001546144a79190615568565b6144b19190615568565b8a519091506144d6906144c49084613879565b6139a1670de0b6b3a764000084613a18565b965060006144f688613edd8a6109ab670de0b6b3a7640000613edd6124a0565b6001600160a01b038a1660009081526005602052604090205490915061451c90826142fb565b600560008b6001600160a01b03166001600160a01b0316815260200190815260200160002081905550600061456389613edd8b6109ab670de0b6b3a7640000600054613a18565b6001600160a01b038b1660009081526006602052604090205490915061458990826142fb565b6001600160a01b038b166000908152600660205260409020558b516145c6906145b29086613879565b6139a1670de0b6b3a7640000600154613a18565b97507f90d9f1d0641138b6407ac37bea3a905d63a371c2d91a484f68d59924634d4ef36146058a613edd8c6109ab670de0b6b3a7640000600154613a18565b604080519182526020820185905281018390526001600160a01b038c16606082015260800160405180910390a150505050505050935093915050565b600080806146588660016020020151876003614436565b9050600061467886613edd886109ab670de0b6b3a7640000613edd6124a0565b6001600160a01b03861660009081526005602052604090205490915061469e90826142fb565b60056000876001600160a01b03166001600160a01b031681526020019081526020016000208190555060006146e587613edd896109ab670de0b6b3a7640000600054613a18565b6001600160a01b03871660009081526006602052604090205490915061470b90826142fb565b6001600160a01b03871660009081526006602052604081209190915580546147316124a0565b60015461473e9190615568565b6147489190615568565b90507f90d9f1d0641138b6407ac37bea3a905d63a371c2d91a484f68d59924634d4ef361478789613edd8b6109ab670de0b6b3a7640000600154613a18565b604080519182526020820186905281018490526001600160a01b038916606082015260800160405180910390a160006147c8670de0b6b3a764000083613a18565b90506147d48982613879565b8a519091506000906147ea906139a181856142fb565b905060006147f88288614984565b9050600061480e670de0b6b3a764000083613a18565b90506148218d6002602002015182613879565b9950896148328d613edd898b615568565b995099505050505050505050935093915050565b600c805462010000600160b01b031916620100006001600160a01b038a81169190910291909117909155600280546001600160a01b03191691881691909117905584516000908690829061489c5761489c615660565b6020026020010151600181905550856001815181106148bd576148bd615660565b602090810291909101810151600055600c8054961515600160b01b0260ff60b01b199097169690961795869055600e80548551600380546001600160a01b039283166001600160a01b03199182161790915596840151600480549183169189169190911790558551600d805491831691891691909117905594909201518416951515600160a01b908102959095166001600160a81b0319928316179590951790945550601280549093166201000090940416929092178217908190550460ff169392505050565b600060018310156149cf5760405162461bcd60e51b81526020600482015260156024820152744552525f42504f575f424153455f544f4f5f4c4f5760581b60448201526064016108f3565b60016149e4670de0b6b3a76400006002615594565b6149ee91906155b3565b831115614a365760405162461bcd60e51b815260206004820152601660248201527508aa4a4be84a09eaebe8482a68abea89e9ebe90928e960531b60448201526064016108f3565b6000614a4183614e88565b90506000614a4f8483613a18565b90506000614a6586614a6085614ea6565b614eba565b905081614a76579250610e2b915050565b6000614a998784614a946402540be400670de0b6b3a7640000615580565b614f2e565b9050614aa58282613879565b979650505050505050565b600080828410614acf57614ac483856155b3565b600091509150614ae0565b614ad984846155b3565b6001915091505b9250929050565b6135e8823083613eee565b30600090815260076020526040902054811115614b485760405162461bcd60e51b815260206004820152601460248201527311549497d25394d551919250d251539517d0905360621b60448201526064016108f3565b30600090815260076020526040902054614b629082613a18565b30600090815260076020526040902055600954614b7f9082613a18565b60095560405181815260009030907fddf252ad1be2c89b69c2b068fc378daa952ba7f163c4a11628f55a4df523b3ef906020015b60405180910390a350565b6135e8308383613eee565b670de0b6b3a7640000811015614c125760405162461bcd60e51b815260206004820152600e60248201526d11549497d3525397d5d15251d21560921b60448201526064016108f3565b614c25670de0b6b3a76400006032615594565b811115614c655760405162461bcd60e51b815260206004820152600e60248201526d11549497d3505617d5d15251d21560921b60448201526064016108f3565b614c7c64e8d4a51000670de0b6b3a7640000615580565b821015614cbd5760405162461bcd60e51b815260206004820152600f60248201526e4552525f4d494e5f42414c414e434560881b60448201526064016108f3565b6001600160a01b03831660009081526010602052604090206002015480821115614d5957614cf6601154614cf18484613a18565b6142fb565b601155614d0c670de0b6b3a76400006032615594565b6011541115614d545760405162461bcd60e51b815260206004820152601460248201527311549497d3505617d513d5105317d5d15251d21560621b60448201526064016108f3565b614d75565b80821015614d7557614d71601154613edd8385613a18565b6011555b6001600160a01b03841660009081526010602052604090206002810183905560030180549084905580841115614dbe57614db98533614db48785613a18565b61434d565b614e12565b80841015614e12576000614dd28286613a18565b90506000614de1826000613879565b9050614df78733614df28585613a18565b613a95565b600254614e0f9088906001600160a01b031683613a95565b50505b5050505050565b30600090815260076020526040902054614e3390826142fb565b30600090815260076020526040902055600954614e5090826142fb565b60095560405181815230906000907fddf252ad1be2c89b69c2b068fc378daa952ba7f163c4a11628f55a4df523b3ef90602001614bb3565b6000670de0b6b3a7640000614e9c83614ea6565b610e2b9190615594565b6000610e2b670de0b6b3a764000083615580565b60008281614ec9600285615620565b614edb57670de0b6b3a7640000614edd565b815b9050614eea600285615580565b93505b831561154a57614efd8283613879565b9150614f0a600285615620565b15614f1c57614f198183613879565b90505b614f27600285615580565b9350614eed565b6000828180614f4587670de0b6b3a7640000614ab0565b9092509050670de0b6b3a764000080600060015b88841061500f576000614f74670de0b6b3a764000083615594565b9050600080614f948a614f8f85670de0b6b3a7640000613a18565b614ab0565b91509150614fa6876109ab848c613879565b9650614fb287846141e3565b965086614fc15750505061500f565b8715614fcb579315935b8015614fd5579315935b8415614fec57614fe58688613a18565b9550614ff9565b614ff686886142fb565b95505b505050808061500790615605565b915050614f59565b50909998505050505050505050565b80356001600160a01b0381168114612d1557600080fd5b8060408101831015610e2b57600080fd5b60008083601f84011261505857600080fd5b50813567ffffffffffffffff81111561507057600080fd5b6020830191508360208260051b8501011115614ae057600080fd5b60006020828403121561509d57600080fd5b61348b8261501e565b600080604083850312156150b957600080fd5b6150c28361501e565b91506150d06020840161501e565b90509250929050565b600080600080600080600080610120898b0312156150f657600080fd5b6150ff8961501e565b975061510d60208a0161501e565b9650604089013567ffffffffffffffff81111561512957600080fd5b6151358b828c01615046565b909750955050606089013561514981615676565b9350608089013561515981615676565b92506151688a60a08b01615035565b91506151778a60e08b01615035565b90509295985092959890939650565b60008060006060848603121561519b57600080fd5b6151a48461501e565b92506151b26020850161501e565b9150604084013590509250925092565b600080604083850312156151d557600080fd5b6151de8361501e565b946020939093013593505050565b600080600080600060a0868803121561520457600080fd5b61520d8661501e565b9450602086013593506152226040870161501e565b94979396509394606081013594506080013592915050565b60008060006060848603121561524f57600080fd5b6152588461501e565b95602085013595506040909401359392505050565b60008060008060008060c0878903121561528657600080fd5b61528f8761501e565b955060208701359450604087013593506152ab6060880161501e565b92506080870135915060a087013590509295509295509295565b6000602082840312156152d757600080fd5b815161348b81615676565b6000602082840312156152f457600080fd5b5035919050565b60006020828403121561530d57600080fd5b5051919050565b60008060006040848603121561532957600080fd5b83359250602084013567ffffffffffffffff81111561534757600080fd5b61535386828701615046565b9497909650939450505050565b6001600160a01b039384168152919092166020820152604081019190915260600190565b6020808252825182820181905260009190848201906040850190845b818110156153c55783516001600160a01b0316835292840192918401916001016153a0565b50909695505050505050565b600060208083528351808285015260005b818110156153fe578581018301518582016040015282016153e2565b81811115615410576000604083870101525b50601f01601f1916929092016040019392505050565b60208082526010908201526f4552525f4d41585f494e5f524154494f60801b604082015260600190565b6020808252600f908201526e08aa4a4be9a82a890be82a0a0a49eb608b1b604082015260600190565b6020808252600d908201526c11549497d31253525517d3d555609a1b604082015260600190565b6020808252600c908201526b22a9292fa624a6a4aa2fa4a760a11b604082015260600190565b6020808252600b908201526a4552525f5245454e54525960a81b604082015260600190565b6020808252601190820152704552525f4d41585f4f55545f524154494f60781b604082015260600190565b6020808252600d908201526c11549497d393d517d093d55391609a1b604082015260600190565b60208082526011908201527011549497d393d517d19253905312569151607a1b604082015260600190565b6000821982111561557b5761557b615634565b500190565b60008261558f5761558f61564a565b500490565b60008160001904831182151516156155ae576155ae615634565b500290565b6000828210156155c5576155c5615634565b500390565b600181811c908216806155de57607f821691505b602082108114156155ff57634e487b7160e01b600052602260045260246000fd5b50919050565b600060001982141561561957615619615634565b5060010190565b60008261562f5761562f61564a565b500690565b634e487b7160e01b600052601160045260246000fd5b634e487b7160e01b600052601260045260246000fd5b634e487b7160e01b600052603260045260246000fd5b8015158114613a8857600080fdfe9d9058fd2f25ccc389fec7720abef0ca83472f5abfafd5f10d37f51e6a0493f3fcda32798d5a9d032f49b37fea876d422f18f6e386e0f07db6029b693624b2c215a8ca63e37b2cff1677df2b6b82d36fcf8a524228bd7a4b4d02d107c28c1e8a8c5be1e5ebec7d5bd14f71427d1e84f3dd0314c0f7b2291e5b200ac8c7c3b925a264697066735822122009c6c59892318371775b50b67d3bcf7801bf5a2c889ebe825d7966cf1044e80564736f6c63430008070033",
  "linkReferences": {},
  "deployedLinkReferences": {}
}