{
  "_format": "hh-sol-artifact-1",
  "contractName": "BPool",
  "sourceName": "contracts/pools/balancer/BPool.sol",
  "abi": [
    {
      "anonymous": false,
      "inputs": [
        {
          "indexed": true,
          "internalType": "address",
          "name": "src",
          "type": "address"
        },
        {
          "indexed": true,
          "internalType": "address",
          "name": "dst",
          "type": "address"
        },
        {
          "indexed": false,
          "internalType": "uint256",
          "name": "amt",
          "type": "uint256"
        }
      ],
      "name": "Approval",
      "type": "event"
    },
    {
      "anonymous": false,
      "inputs": [
        {
          "indexed": false,
          "internalType": "address",
          "name": "to",
          "type": "address"
        },
        {
          "indexed": false,
          "internalType": "address",
          "name": "token",
          "type": "address"
        },
        {
          "indexed": false,
          "internalType": "uint256",
          "name": "amount",
          "type": "uint256"
        }
      ],
      "name": "ConsumeMarketFee",
      "type": "event"
    },
    {
      "anonymous": false,
      "inputs": [
        {
          "indexed": false,
          "internalType": "address",
          "name": "token",
          "type": "address"
        },
        {
          "indexed": false,
          "internalType": "uint256",
          "name": "oldBalance",
          "type": "uint256"
        },
        {
          "indexed": false,
          "internalType": "uint256",
          "name": "newBalance",
          "type": "uint256"
        }
      ],
      "name": "Gulped",
      "type": "event"
    },
    {
      "anonymous": false,
      "inputs": [
        {
          "indexed": false,
          "internalType": "uint256",
          "name": "bptAmount",
          "type": "uint256"
        }
      ],
      "name": "LOG_BPT",
      "type": "event"
    },
    {
      "anonymous": false,
      "inputs": [
        {
          "indexed": false,
          "internalType": "uint256",
          "name": "bptAmount",
          "type": "uint256"
        }
      ],
      "name": "LOG_BPT_SS",
      "type": "event"
    },
    {
      "anonymous": false,
      "inputs": [
        {
          "indexed": true,
          "internalType": "bytes4",
          "name": "sig",
          "type": "bytes4"
        },
        {
          "indexed": true,
          "internalType": "address",
          "name": "caller",
          "type": "address"
        },
        {
          "indexed": false,
          "internalType": "uint256",
          "name": "timestamp",
          "type": "uint256"
        },
        {
          "indexed": false,
          "internalType": "bytes",
          "name": "data",
          "type": "bytes"
        }
      ],
      "name": "LOG_CALL",
      "type": "event"
    },
    {
      "anonymous": false,
      "inputs": [
        {
          "indexed": true,
          "internalType": "address",
          "name": "caller",
          "type": "address"
        },
        {
          "indexed": true,
          "internalType": "address",
          "name": "tokenOut",
          "type": "address"
        },
        {
          "indexed": false,
          "internalType": "uint256",
          "name": "tokenAmountOut",
          "type": "uint256"
        },
        {
          "indexed": false,
          "internalType": "uint256",
          "name": "timestamp",
          "type": "uint256"
        }
      ],
      "name": "LOG_EXIT",
      "type": "event"
    },
    {
      "anonymous": false,
      "inputs": [
        {
          "indexed": true,
          "internalType": "address",
          "name": "caller",
          "type": "address"
        },
        {
          "indexed": true,
          "internalType": "address",
          "name": "tokenIn",
          "type": "address"
        },
        {
          "indexed": false,
          "internalType": "uint256",
          "name": "tokenAmountIn",
          "type": "uint256"
        },
        {
          "indexed": false,
          "internalType": "uint256",
          "name": "timestamp",
          "type": "uint256"
        }
      ],
      "name": "LOG_JOIN",
      "type": "event"
    },
    {
      "anonymous": false,
      "inputs": [
        {
          "indexed": true,
          "internalType": "address",
          "name": "caller",
          "type": "address"
        },
        {
          "indexed": true,
          "internalType": "address",
          "name": "baseToken",
          "type": "address"
        },
        {
          "indexed": false,
          "internalType": "uint256",
          "name": "baseTokenAmountIn",
          "type": "uint256"
        },
        {
          "indexed": false,
          "internalType": "uint256",
          "name": "baseTokenWeight",
          "type": "uint256"
        },
        {
          "indexed": true,
          "internalType": "address",
          "name": "datatoken",
          "type": "address"
        },
        {
          "indexed": false,
          "internalType": "uint256",
          "name": "datatokenAmountIn",
          "type": "uint256"
        },
        {
          "indexed": false,
          "internalType": "uint256",
          "name": "datatokenWeight",
          "type": "uint256"
        }
      ],
      "name": "LOG_SETUP",
      "type": "event"
    },
    {
      "anonymous": false,
      "inputs": [
        {
          "indexed": true,
          "internalType": "address",
          "name": "caller",
          "type": "address"
        },
        {
          "indexed": true,
          "internalType": "address",
          "name": "tokenIn",
          "type": "address"
        },
        {
          "indexed": true,
          "internalType": "address",
          "name": "tokenOut",
          "type": "address"
        },
        {
          "indexed": false,
          "internalType": "uint256",
          "name": "tokenAmountIn",
          "type": "uint256"
        },
        {
          "indexed": false,
          "internalType": "uint256",
          "name": "tokenAmountOut",
          "type": "uint256"
        },
        {
          "indexed": false,
          "internalType": "uint256",
          "name": "timestamp",
          "type": "uint256"
        },
        {
          "indexed": false,
          "internalType": "uint256",
          "name": "inBalance",
          "type": "uint256"
        },
        {
          "indexed": false,
          "internalType": "uint256",
          "name": "outBalance",
          "type": "uint256"
        },
        {
          "indexed": false,
          "internalType": "uint256",
          "name": "newSpotPrice",
          "type": "uint256"
        }
      ],
      "name": "LOG_SWAP",
      "type": "event"
    },
    {
      "anonymous": false,
      "inputs": [
        {
          "indexed": false,
          "internalType": "address",
          "name": "caller",
          "type": "address"
        },
        {
          "indexed": false,
          "internalType": "address",
          "name": "OPCWallet",
          "type": "address"
        },
        {
          "indexed": false,
          "internalType": "address",
          "name": "token",
          "type": "address"
        },
        {
          "indexed": false,
          "internalType": "uint256",
          "name": "amount",
          "type": "uint256"
        }
      ],
      "name": "OPCFee",
      "type": "event"
    },
    {
      "anonymous": false,
      "inputs": [
        {
          "indexed": false,
          "internalType": "address",
          "name": "caller",
          "type": "address"
        },
        {
          "indexed": false,
          "internalType": "address",
          "name": "marketAddress",
          "type": "address"
        },
        {
          "indexed": false,
          "internalType": "address",
          "name": "token",
          "type": "address"
        },
        {
          "indexed": false,
          "internalType": "uint256",
          "name": "amount",
          "type": "uint256"
        }
      ],
      "name": "PublishMarketFee",
      "type": "event"
    },
    {
      "anonymous": false,
      "inputs": [
        {
          "indexed": false,
          "internalType": "address",
          "name": "caller",
          "type": "address"
        },
        {
          "indexed": false,
          "internalType": "address",
          "name": "newMarketCollector",
          "type": "address"
        },
        {
          "indexed": false,
          "internalType": "uint256",
          "name": "swapFee",
          "type": "uint256"
        }
      ],
      "name": "PublishMarketFeeChanged",
      "type": "event"
    },
    {
      "anonymous": false,
      "inputs": [
        {
          "indexed": false,
          "internalType": "uint256",
          "name": "LPFeeAmount",
          "type": "uint256"
        },
        {
          "indexed": false,
          "internalType": "uint256",
          "name": "oceanFeeAmount",
          "type": "uint256"
        },
        {
          "indexed": false,
          "internalType": "uint256",
          "name": "marketFeeAmount",
          "type": "uint256"
        },
        {
          "indexed": false,
          "internalType": "uint256",
          "name": "consumeMarketFeeAmount",
          "type": "uint256"
        },
        {
          "indexed": false,
          "internalType": "address",
          "name": "tokenFeeAddress",
          "type": "address"
        }
      ],
      "name": "SWAP_FEES",
      "type": "event"
    },
    {
      "anonymous": false,
      "inputs": [
        {
          "indexed": false,
          "internalType": "address",
          "name": "caller",
          "type": "address"
        },
        {
          "indexed": false,
          "internalType": "uint256",
          "name": "amount",
          "type": "uint256"
        }
      ],
      "name": "SwapFeeChanged",
      "type": "event"
    },
    {
      "anonymous": false,
      "inputs": [
        {
          "indexed": true,
          "internalType": "address",
          "name": "src",
          "type": "address"
        },
        {
          "indexed": true,
          "internalType": "address",
          "name": "dst",
          "type": "address"
        },
        {
          "indexed": false,
          "internalType": "uint256",
          "name": "amt",
          "type": "uint256"
        }
      ],
      "name": "Transfer",
      "type": "event"
    },
    {
      "inputs": [],
      "name": "BONE",
      "outputs": [
        {
          "internalType": "uint256",
          "name": "",
          "type": "uint256"
        }
      ],
      "stateMutability": "view",
      "type": "function"
    },
    {
      "inputs": [],
      "name": "BPOW_PRECISION",
      "outputs": [
        {
          "internalType": "uint256",
          "name": "",
          "type": "uint256"
        }
      ],
      "stateMutability": "view",
      "type": "function"
    },
    {
      "inputs": [],
      "name": "EXIT_FEE",
      "outputs": [
        {
          "internalType": "uint256",
          "name": "",
          "type": "uint256"
        }
      ],
      "stateMutability": "view",
      "type": "function"
    },
    {
      "inputs": [],
      "name": "INIT_POOL_SUPPLY",
      "outputs": [
        {
          "internalType": "uint256",
          "name": "",
          "type": "uint256"
        }
      ],
      "stateMutability": "view",
      "type": "function"
    },
    {
      "inputs": [],
      "name": "MAX_BOUND_TOKENS",
      "outputs": [
        {
          "internalType": "uint256",
          "name": "",
          "type": "uint256"
        }
      ],
      "stateMutability": "view",
      "type": "function"
    },
    {
      "inputs": [],
      "name": "MAX_BPOW_BASE",
      "outputs": [
        {
          "internalType": "uint256",
          "name": "",
          "type": "uint256"
        }
      ],
      "stateMutability": "view",
      "type": "function"
    },
    {
      "inputs": [],
      "name": "MAX_FEE",
      "outputs": [
        {
          "internalType": "uint256",
          "name": "",
          "type": "uint256"
        }
      ],
      "stateMutability": "view",
      "type": "function"
    },
    {
      "inputs": [],
      "name": "MAX_IN_RATIO",
      "outputs": [
        {
          "internalType": "uint256",
          "name": "",
          "type": "uint256"
        }
      ],
      "stateMutability": "view",
      "type": "function"
    },
    {
      "inputs": [],
      "name": "MAX_OUT_RATIO",
      "outputs": [
        {
          "internalType": "uint256",
          "name": "",
          "type": "uint256"
        }
      ],
      "stateMutability": "view",
      "type": "function"
    },
    {
      "inputs": [],
      "name": "MAX_TOTAL_WEIGHT",
      "outputs": [
        {
          "internalType": "uint256",
          "name": "",
          "type": "uint256"
        }
      ],
      "stateMutability": "view",
      "type": "function"
    },
    {
      "inputs": [],
      "name": "MAX_WEIGHT",
      "outputs": [
        {
          "internalType": "uint256",
          "name": "",
          "type": "uint256"
        }
      ],
      "stateMutability": "view",
      "type": "function"
    },
    {
      "inputs": [],
      "name": "MIN_BALANCE",
      "outputs": [
        {
          "internalType": "uint256",
          "name": "",
          "type": "uint256"
        }
      ],
      "stateMutability": "view",
      "type": "function"
    },
    {
      "inputs": [],
      "name": "MIN_BOUND_TOKENS",
      "outputs": [
        {
          "internalType": "uint256",
          "name": "",
          "type": "uint256"
        }
      ],
      "stateMutability": "view",
      "type": "function"
    },
    {
      "inputs": [],
      "name": "MIN_BPOW_BASE",
      "outputs": [
        {
          "internalType": "uint256",
          "name": "",
          "type": "uint256"
        }
      ],
      "stateMutability": "view",
      "type": "function"
    },
    {
      "inputs": [],
      "name": "MIN_FEE",
      "outputs": [
        {
          "internalType": "uint256",
          "name": "",
          "type": "uint256"
        }
      ],
      "stateMutability": "view",
      "type": "function"
    },
    {
      "inputs": [],
      "name": "MIN_WEIGHT",
      "outputs": [
        {
          "internalType": "uint256",
          "name": "",
          "type": "uint256"
        }
      ],
      "stateMutability": "view",
      "type": "function"
    },
    {
      "inputs": [],
      "name": "_publishMarketCollector",
      "outputs": [
        {
          "internalType": "address",
          "name": "",
          "type": "address"
        }
      ],
      "stateMutability": "view",
      "type": "function"
    },
    {
      "inputs": [],
      "name": "_swapPublishMarketFee",
      "outputs": [
        {
          "internalType": "uint256",
          "name": "",
          "type": "uint256"
        }
      ],
      "stateMutability": "view",
      "type": "function"
    },
    {
      "inputs": [
        {
          "internalType": "address",
          "name": "src",
          "type": "address"
        },
        {
          "internalType": "address",
          "name": "dst",
          "type": "address"
        }
      ],
      "name": "allowance",
      "outputs": [
        {
          "internalType": "uint256",
          "name": "",
          "type": "uint256"
        }
      ],
      "stateMutability": "view",
      "type": "function"
    },
    {
      "inputs": [
        {
          "internalType": "address",
          "name": "dst",
          "type": "address"
        },
        {
          "internalType": "uint256",
          "name": "amt",
          "type": "uint256"
        }
      ],
      "name": "approve",
      "outputs": [
        {
          "internalType": "bool",
          "name": "",
          "type": "bool"
        }
      ],
      "stateMutability": "nonpayable",
      "type": "function"
    },
    {
      "inputs": [
        {
          "internalType": "address",
          "name": "whom",
          "type": "address"
        }
      ],
      "name": "balanceOf",
      "outputs": [
        {
          "internalType": "uint256",
          "name": "",
          "type": "uint256"
        }
      ],
      "stateMutability": "view",
      "type": "function"
    },
    {
      "inputs": [
        {
          "internalType": "uint256[4]",
          "name": "data",
          "type": "uint256[4]"
        },
        {
          "internalType": "uint256",
          "name": "tokenAmountOut",
          "type": "uint256"
        },
        {
          "internalType": "uint256",
          "name": "_consumeMarketSwapFee",
          "type": "uint256"
        }
      ],
      "name": "calcInGivenOut",
      "outputs": [
        {
          "internalType": "uint256",
          "name": "tokenAmountIn",
          "type": "uint256"
        },
        {
          "internalType": "uint256",
          "name": "tokenAmountInBalance",
          "type": "uint256"
        },
        {
          "components": [
            {
              "internalType": "uint256",
              "name": "LPFee",
              "type": "uint256"
            },
            {
              "internalType": "uint256",
              "name": "oceanFeeAmount",
              "type": "uint256"
            },
            {
              "internalType": "uint256",
              "name": "publishMarketFeeAmount",
              "type": "uint256"
            },
            {
              "internalType": "uint256",
              "name": "consumeMarketFee",
              "type": "uint256"
            }
          ],
          "internalType": "struct BMath.swapfees",
          "name": "_swapfees",
          "type": "tuple"
        }
      ],
      "stateMutability": "view",
      "type": "function"
    },
    {
      "inputs": [
        {
          "internalType": "uint256[4]",
          "name": "data",
          "type": "uint256[4]"
        },
        {
          "internalType": "uint256",
          "name": "tokenAmountIn",
          "type": "uint256"
        },
        {
          "internalType": "uint256",
          "name": "_consumeMarketSwapFee",
          "type": "uint256"
        }
      ],
      "name": "calcOutGivenIn",
      "outputs": [
        {
          "internalType": "uint256",
          "name": "tokenAmountOut",
          "type": "uint256"
        },
        {
          "internalType": "uint256",
          "name": "balanceInToAdd",
          "type": "uint256"
        },
        {
          "components": [
            {
              "internalType": "uint256",
              "name": "LPFee",
              "type": "uint256"
            },
            {
              "internalType": "uint256",
              "name": "oceanFeeAmount",
              "type": "uint256"
            },
            {
              "internalType": "uint256",
              "name": "publishMarketFeeAmount",
              "type": "uint256"
            },
            {
              "internalType": "uint256",
              "name": "consumeMarketFee",
              "type": "uint256"
            }
          ],
          "internalType": "struct BMath.swapfees",
          "name": "_swapfees",
          "type": "tuple"
        }
      ],
      "stateMutability": "view",
      "type": "function"
    },
    {
      "inputs": [
        {
          "internalType": "address",
          "name": "tokenOut",
          "type": "address"
        },
        {
          "internalType": "uint256",
          "name": "tokenAmountOut",
          "type": "uint256"
        }
      ],
      "name": "calcPoolInSingleOut",
      "outputs": [
        {
          "internalType": "uint256",
          "name": "poolAmountIn",
          "type": "uint256"
        }
      ],
      "stateMutability": "view",
      "type": "function"
    },
    {
      "inputs": [
        {
          "internalType": "address",
          "name": "tokenIn",
          "type": "address"
        },
        {
          "internalType": "uint256",
          "name": "tokenAmountIn",
          "type": "uint256"
        }
      ],
      "name": "calcPoolOutSingleIn",
      "outputs": [
        {
          "internalType": "uint256",
          "name": "poolAmountOut",
          "type": "uint256"
        }
      ],
      "stateMutability": "view",
      "type": "function"
    },
    {
      "inputs": [
        {
          "internalType": "address",
          "name": "tokenIn",
          "type": "address"
        },
        {
          "internalType": "uint256",
          "name": "poolAmountOut",
          "type": "uint256"
        }
      ],
      "name": "calcSingleInPoolOut",
      "outputs": [
        {
          "internalType": "uint256",
          "name": "tokenAmountIn",
          "type": "uint256"
        }
      ],
      "stateMutability": "view",
      "type": "function"
    },
    {
      "inputs": [
        {
          "internalType": "address",
          "name": "tokenOut",
          "type": "address"
        },
        {
          "internalType": "uint256",
          "name": "poolAmountIn",
          "type": "uint256"
        }
      ],
      "name": "calcSingleOutPoolIn",
      "outputs": [
        {
          "internalType": "uint256",
          "name": "tokenAmountOut",
          "type": "uint256"
        }
      ],
      "stateMutability": "view",
      "type": "function"
    },
    {
      "inputs": [],
      "name": "collectMarketFee",
      "outputs": [],
      "stateMutability": "nonpayable",
      "type": "function"
    },
    {
      "inputs": [],
      "name": "collectOPC",
      "outputs": [],
      "stateMutability": "nonpayable",
      "type": "function"
    },
    {
      "inputs": [
        {
          "internalType": "address",
          "name": "",
          "type": "address"
        }
      ],
      "name": "communityFees",
      "outputs": [
        {
          "internalType": "uint256",
          "name": "",
          "type": "uint256"
        }
      ],
      "stateMutability": "view",
      "type": "function"
    },
    {
      "inputs": [],
      "name": "decimals",
      "outputs": [
        {
          "internalType": "uint8",
          "name": "",
          "type": "uint8"
        }
      ],
      "stateMutability": "view",
      "type": "function"
    },
    {
      "inputs": [
        {
          "internalType": "address",
          "name": "dst",
          "type": "address"
        },
        {
          "internalType": "uint256",
          "name": "amt",
          "type": "uint256"
        }
      ],
      "name": "decreaseApproval",
      "outputs": [
        {
          "internalType": "bool",
          "name": "",
          "type": "bool"
        }
      ],
      "stateMutability": "nonpayable",
      "type": "function"
    },
    {
      "inputs": [
        {
          "internalType": "uint256",
          "name": "poolAmountIn",
          "type": "uint256"
        },
        {
          "internalType": "uint256",
          "name": "minAmountOut",
          "type": "uint256"
        }
      ],
      "name": "exitswapPoolAmountIn",
      "outputs": [
        {
          "internalType": "uint256",
          "name": "tokenAmountOut",
          "type": "uint256"
        }
      ],
      "stateMutability": "nonpayable",
      "type": "function"
    },
    {
      "inputs": [
        {
          "internalType": "address",
          "name": "tokenIn",
          "type": "address"
        },
        {
          "internalType": "address",
          "name": "tokenOut",
          "type": "address"
        },
        {
          "internalType": "uint256",
          "name": "tokenAmountOut",
          "type": "uint256"
        },
        {
          "internalType": "uint256",
          "name": "_consumeMarketSwapFee",
          "type": "uint256"
        }
      ],
      "name": "getAmountInExactOut",
      "outputs": [
        {
          "internalType": "uint256",
          "name": "tokenAmountIn",
          "type": "uint256"
        },
        {
          "internalType": "uint256",
          "name": "lpFeeAmount",
          "type": "uint256"
        },
        {
          "internalType": "uint256",
          "name": "oceanFeeAmount",
          "type": "uint256"
        },
        {
          "internalType": "uint256",
          "name": "publishMarketSwapFeeAmount",
          "type": "uint256"
        },
        {
          "internalType": "uint256",
          "name": "consumeMarketSwapFeeAmount",
          "type": "uint256"
        }
      ],
      "stateMutability": "view",
      "type": "function"
    },
    {
      "inputs": [
        {
          "internalType": "address",
          "name": "tokenIn",
          "type": "address"
        },
        {
          "internalType": "address",
          "name": "tokenOut",
          "type": "address"
        },
        {
          "internalType": "uint256",
          "name": "tokenAmountIn",
          "type": "uint256"
        },
        {
          "internalType": "uint256",
          "name": "_consumeMarketSwapFee",
          "type": "uint256"
        }
      ],
      "name": "getAmountOutExactIn",
      "outputs": [
        {
          "internalType": "uint256",
          "name": "tokenAmountOut",
          "type": "uint256"
        },
        {
          "internalType": "uint256",
          "name": "lpFeeAmount",
          "type": "uint256"
        },
        {
          "internalType": "uint256",
          "name": "oceanFeeAmount",
          "type": "uint256"
        },
        {
          "internalType": "uint256",
          "name": "publishMarketSwapFeeAmount",
          "type": "uint256"
        },
        {
          "internalType": "uint256",
          "name": "consumeMarketSwapFeeAmount",
          "type": "uint256"
        }
      ],
      "stateMutability": "view",
      "type": "function"
    },
    {
      "inputs": [
        {
          "internalType": "address",
          "name": "token",
          "type": "address"
        }
      ],
      "name": "getBalance",
      "outputs": [
        {
          "internalType": "uint256",
          "name": "",
          "type": "uint256"
        }
      ],
      "stateMutability": "view",
      "type": "function"
    },
    {
      "inputs": [],
      "name": "getBaseTokenAddress",
      "outputs": [
        {
          "internalType": "address",
          "name": "",
          "type": "address"
        }
      ],
      "stateMutability": "view",
      "type": "function"
    },
    {
      "inputs": [],
      "name": "getController",
      "outputs": [
        {
          "internalType": "address",
          "name": "",
          "type": "address"
        }
      ],
      "stateMutability": "view",
      "type": "function"
    },
    {
      "inputs": [],
      "name": "getCurrentMarketFees",
      "outputs": [
        {
          "internalType": "address[]",
          "name": "",
          "type": "address[]"
        },
        {
          "internalType": "uint256[]",
          "name": "",
          "type": "uint256[]"
        }
      ],
      "stateMutability": "view",
      "type": "function"
    },
    {
      "inputs": [],
      "name": "getCurrentOPCFees",
      "outputs": [
        {
          "internalType": "address[]",
          "name": "",
          "type": "address[]"
        },
        {
          "internalType": "uint256[]",
          "name": "",
          "type": "uint256[]"
        }
      ],
      "stateMutability": "view",
      "type": "function"
    },
    {
      "inputs": [],
      "name": "getCurrentTokens",
      "outputs": [
        {
          "internalType": "address[]",
          "name": "tokens",
          "type": "address[]"
        }
      ],
      "stateMutability": "view",
      "type": "function"
    },
    {
      "inputs": [],
      "name": "getDatatokenAddress",
      "outputs": [
        {
          "internalType": "address",
          "name": "",
          "type": "address"
        }
      ],
      "stateMutability": "view",
      "type": "function"
    },
    {
      "inputs": [
        {
          "internalType": "address",
          "name": "token",
          "type": "address"
        }
      ],
      "name": "getDenormalizedWeight",
      "outputs": [
        {
          "internalType": "uint256",
          "name": "",
          "type": "uint256"
        }
      ],
      "stateMutability": "view",
      "type": "function"
    },
    {
      "inputs": [],
      "name": "getFinalTokens",
      "outputs": [
        {
          "internalType": "address[]",
          "name": "tokens",
          "type": "address[]"
        }
      ],
      "stateMutability": "view",
      "type": "function"
    },
    {
      "inputs": [],
      "name": "getId",
      "outputs": [
        {
          "internalType": "uint8",
          "name": "",
          "type": "uint8"
        }
      ],
      "stateMutability": "pure",
      "type": "function"
    },
    {
      "inputs": [],
      "name": "getMarketFee",
      "outputs": [
        {
          "internalType": "uint256",
          "name": "",
          "type": "uint256"
        }
      ],
      "stateMutability": "view",
      "type": "function"
    },
    {
      "inputs": [
        {
          "internalType": "address",
          "name": "token",
          "type": "address"
        }
      ],
      "name": "getNormalizedWeight",
      "outputs": [
        {
          "internalType": "uint256",
          "name": "",
          "type": "uint256"
        }
      ],
      "stateMutability": "view",
      "type": "function"
    },
    {
      "inputs": [],
      "name": "getNumTokens",
      "outputs": [
        {
          "internalType": "uint256",
          "name": "",
          "type": "uint256"
        }
      ],
      "stateMutability": "view",
      "type": "function"
    },
    {
      "inputs": [],
      "name": "getOPCFee",
      "outputs": [
        {
          "internalType": "uint256",
          "name": "",
          "type": "uint256"
        }
      ],
      "stateMutability": "view",
      "type": "function"
    },
    {
      "inputs": [
        {
          "internalType": "address",
          "name": "tokenIn",
          "type": "address"
        },
        {
          "internalType": "address",
          "name": "tokenOut",
          "type": "address"
        },
        {
          "internalType": "uint256",
          "name": "_consumeMarketSwapFee",
          "type": "uint256"
        }
      ],
      "name": "getSpotPrice",
      "outputs": [
        {
          "internalType": "uint256",
          "name": "spotPrice",
          "type": "uint256"
        }
      ],
      "stateMutability": "view",
      "type": "function"
    },
    {
      "inputs": [],
      "name": "getSwapFee",
      "outputs": [
        {
          "internalType": "uint256",
          "name": "",
          "type": "uint256"
        }
      ],
      "stateMutability": "view",
      "type": "function"
    },
    {
      "inputs": [],
      "name": "getTotalDenormalizedWeight",
      "outputs": [
        {
          "internalType": "uint256",
          "name": "",
          "type": "uint256"
        }
      ],
      "stateMutability": "view",
      "type": "function"
    },
    {
      "inputs": [
        {
          "internalType": "address",
          "name": "token",
          "type": "address"
        }
      ],
      "name": "gulp",
      "outputs": [],
      "stateMutability": "nonpayable",
      "type": "function"
    },
    {
      "inputs": [
        {
          "internalType": "address",
          "name": "dst",
          "type": "address"
        },
        {
          "internalType": "uint256",
          "name": "amt",
          "type": "uint256"
        }
      ],
      "name": "increaseApproval",
      "outputs": [
        {
          "internalType": "bool",
          "name": "",
          "type": "bool"
        }
      ],
      "stateMutability": "nonpayable",
      "type": "function"
    },
    {
      "inputs": [
        {
          "internalType": "address",
          "name": "controller",
          "type": "address"
        },
        {
          "internalType": "address",
          "name": "factory",
          "type": "address"
        },
        {
          "internalType": "uint256[]",
          "name": "swapFees",
          "type": "uint256[]"
        },
        {
          "internalType": "bool",
          "name": "publicSwap",
          "type": "bool"
        },
        {
          "internalType": "bool",
          "name": "finalized",
          "type": "bool"
        },
        {
          "internalType": "address[2]",
          "name": "tokens",
          "type": "address[2]"
        },
        {
          "internalType": "address[1]",
          "name": "feeCollectors",
          "type": "address[1]"
        }
      ],
      "name": "initialize",
      "outputs": [
        {
          "internalType": "bool",
          "name": "",
          "type": "bool"
        }
      ],
      "stateMutability": "nonpayable",
      "type": "function"
    },
    {
      "inputs": [
        {
          "internalType": "address",
          "name": "t",
          "type": "address"
        }
      ],
      "name": "isBound",
      "outputs": [
        {
          "internalType": "bool",
          "name": "",
          "type": "bool"
        }
      ],
      "stateMutability": "view",
      "type": "function"
    },
    {
      "inputs": [],
      "name": "isFinalized",
      "outputs": [
        {
          "internalType": "bool",
          "name": "",
          "type": "bool"
        }
      ],
      "stateMutability": "view",
      "type": "function"
    },
    {
      "inputs": [],
      "name": "isInitialized",
      "outputs": [
        {
          "internalType": "bool",
          "name": "",
          "type": "bool"
        }
      ],
      "stateMutability": "view",
      "type": "function"
    },
    {
      "inputs": [],
      "name": "isPublicSwap",
      "outputs": [
        {
          "internalType": "bool",
          "name": "",
          "type": "bool"
        }
      ],
      "stateMutability": "view",
      "type": "function"
    },
    {
      "inputs": [
        {
          "internalType": "uint256",
          "name": "tokenAmountIn",
          "type": "uint256"
        },
        {
          "internalType": "uint256",
          "name": "minPoolAmountOut",
          "type": "uint256"
        }
      ],
      "name": "joinswapExternAmountIn",
      "outputs": [
        {
          "internalType": "uint256",
          "name": "poolAmountOut",
          "type": "uint256"
        }
      ],
      "stateMutability": "nonpayable",
      "type": "function"
    },
    {
      "inputs": [],
      "name": "name",
      "outputs": [
        {
          "internalType": "string",
          "name": "",
          "type": "string"
        }
      ],
      "stateMutability": "view",
      "type": "function"
    },
    {
      "inputs": [
        {
          "internalType": "address",
          "name": "",
          "type": "address"
        }
      ],
      "name": "publishMarketFees",
      "outputs": [
        {
          "internalType": "uint256",
          "name": "",
          "type": "uint256"
        }
      ],
      "stateMutability": "view",
      "type": "function"
    },
    {
      "inputs": [
        {
          "internalType": "uint256",
          "name": "swapFee",
          "type": "uint256"
        }
      ],
      "name": "setSwapFee",
      "outputs": [],
      "stateMutability": "nonpayable",
      "type": "function"
    },
    {
      "inputs": [
        {
          "internalType": "address",
          "name": "datatokenAddress",
          "type": "address"
        },
        {
          "internalType": "uint256",
          "name": "datatokenAmount",
          "type": "uint256"
        },
        {
          "internalType": "uint256",
          "name": "datatokenWeight",
          "type": "uint256"
        },
        {
          "internalType": "address",
          "name": "baseTokenAddress",
          "type": "address"
        },
        {
          "internalType": "uint256",
          "name": "baseTokenAmount",
          "type": "uint256"
        },
        {
          "internalType": "uint256",
          "name": "baseTokenWeight",
          "type": "uint256"
        }
      ],
      "name": "setup",
      "outputs": [],
      "stateMutability": "nonpayable",
      "type": "function"
    },
    {
      "inputs": [
        {
          "internalType": "address[3]",
          "name": "tokenInOutMarket",
          "type": "address[3]"
        },
        {
          "internalType": "uint256[4]",
          "name": "amountsInOutMaxFee",
          "type": "uint256[4]"
        }
      ],
      "name": "swapExactAmountIn",
      "outputs": [
        {
          "internalType": "uint256",
          "name": "tokenAmountOut",
          "type": "uint256"
        },
        {
          "internalType": "uint256",
          "name": "spotPriceAfter",
          "type": "uint256"
        }
      ],
      "stateMutability": "nonpayable",
      "type": "function"
    },
    {
      "inputs": [
        {
          "internalType": "address[3]",
          "name": "tokenInOutMarket",
          "type": "address[3]"
        },
        {
          "internalType": "uint256[4]",
          "name": "amountsInOutMaxFee",
          "type": "uint256[4]"
        }
      ],
      "name": "swapExactAmountOut",
      "outputs": [
        {
          "internalType": "uint256",
          "name": "tokenAmountIn",
          "type": "uint256"
        },
        {
          "internalType": "uint256",
          "name": "spotPriceAfter",
          "type": "uint256"
        }
      ],
      "stateMutability": "nonpayable",
      "type": "function"
    },
    {
      "inputs": [],
      "name": "symbol",
      "outputs": [
        {
          "internalType": "string",
          "name": "",
          "type": "string"
        }
      ],
      "stateMutability": "view",
      "type": "function"
    },
    {
      "inputs": [],
      "name": "totalSupply",
      "outputs": [
        {
          "internalType": "uint256",
          "name": "",
          "type": "uint256"
        }
      ],
      "stateMutability": "view",
      "type": "function"
    },
    {
      "inputs": [
        {
          "internalType": "address",
          "name": "dst",
          "type": "address"
        },
        {
          "internalType": "uint256",
          "name": "amt",
          "type": "uint256"
        }
      ],
      "name": "transfer",
      "outputs": [
        {
          "internalType": "bool",
          "name": "",
          "type": "bool"
        }
      ],
      "stateMutability": "nonpayable",
      "type": "function"
    },
    {
      "inputs": [
        {
          "internalType": "address",
          "name": "src",
          "type": "address"
        },
        {
          "internalType": "address",
          "name": "dst",
          "type": "address"
        },
        {
          "internalType": "uint256",
          "name": "amt",
          "type": "uint256"
        }
      ],
      "name": "transferFrom",
      "outputs": [
        {
          "internalType": "bool",
          "name": "",
          "type": "bool"
        }
      ],
      "stateMutability": "nonpayable",
      "type": "function"
    },
    {
      "inputs": [
        {
          "internalType": "address",
          "name": "_newCollector",
          "type": "address"
        },
        {
          "internalType": "uint256",
          "name": "_newSwapFee",
          "type": "uint256"
        }
      ],
      "name": "updatePublishMarketFee",
      "outputs": [],
      "stateMutability": "nonpayable",
      "type": "function"
    }
  ],
  "bytecode": "0x60c0604052601360808190527f42616c616e63657220506f6f6c20546f6b656e0000000000000000000000000060a09081526200004091600a91906200008f565b506040805180820190915260038082526210941560ea1b60209092019182526200006d91600b916200008f565b50600c805460ff191660121790553480156200008857600080fd5b5062000172565b8280546200009d9062000135565b90600052602060002090601f016020900481019282620000c157600085556200010c565b82601f10620000dc57805160ff19168380011785556200010c565b828001600101855582156200010c579182015b828111156200010c578251825591602001919060010190620000ef565b506200011a9291506200011e565b5090565b5b808211156200011a57600081556001016200011f565b600181811c908216806200014a57607f821691505b602082108114156200016c57634e487b7160e01b600052602260045260246000fd5b50919050565b615a6d80620001826000396000f3fe608060405234801561001057600080fd5b506004361061041d5760003560e01c8063867378c51161022b578063bf7db23611610130578063d4cadf68116100b8578063ec09302111610087578063ec093021146108f2578063f1b8a9b7146108fa578063f8b2cb4f1461090d578063fde924f714610920578063ff9b18501461093257600080fd5b8063d4cadf681461089e578063d73dd623146108a6578063dd62ed3e146108b9578063e4a28a521461048457600080fd5b8063c6580d12116100ff578063c6580d1214610860578063c98a59cf14610868578063caa011481461087b578063cc77828d1461088e578063cd2ed8fb1461089657600080fd5b8063bf7db2361461081a578063c36596a6146104d7578063c421a3fc14610830578063c44a42831461085857600080fd5b8063a3b3a16d116101b3578063b7b800a411610182578063b7b800a4146107e5578063ba019dab146107ed578063bc063e1a146107f5578063bc694ea2146107fd578063be3bbd2e1461080557600080fd5b8063a3b3a16d146107b7578063a9059cbb146107ca578063ab77a2de146107dd578063b0e0d136146107e557600080fd5b8063936c3477116101fa578063936c3477146107845780639381cd2b1461078c578063948d8ce61461079457806395d89b41146107a7578063992e2a92146107af57600080fd5b8063867378c514610744578063892cdf9e1461074c5780638c28cbe81461075f5780638d4e40831461077257600080fd5b8063313ce567116103315780635e123add116102b957806376c7a3c71161028857806376c7a3c7146106f85780637a284be4146107005780637c5918b31461070957806380ca7308146107295780638329ab331461073157600080fd5b80635e123add146106a1578063638c9e95146106a957806366188463146106bc57806370a08231146106cf57600080fd5b8063430ed5d011610300578063430ed5d014610617578063458c3fb51461062a5780634df947d01461063b57806351705cd01461064c5780635d1ca6311461069a57600080fd5b8063313ce567146105c657806334e19907146105df578063392e53cd146105f25780633950b3fd1461060457600080fd5b806318f9722a116103b457806329b88a6a1161038357806329b88a6a1461050c5780632eebd6ae146105145780632f37b6241461054f578063300621921461057b5780633018205f1461059b57600080fd5b806318f9722a146104c4578063218b5382146104d757806323b872dd146104e6578063284e97a9146104f957600080fd5b806309ef3f5b116103f057806309ef3f5b1461048c57806312989260146104a157806318160ddd146104b4578063189d00ca146104bc57600080fd5b806306fdde0314610422578063079492d414610440578063095ea7b31461046157806309a3bbe414610484575b600080fd5b61042a610945565b60405161043791906152e2565b60405180910390f35b61045361044e36600461532a565b6109d7565b604051908152602001610437565b61047461046f36600461536b565b610a6a565b6040519015158152602001610437565b610453610ac5565b61049f61049a366004615397565b610adb565b005b6104536104af3660046153f3565b610d17565b600954610453565b61045361114e565b61049f6104d236600461536b565b611165565b610453670de0b6b3a764000081565b6104746104f436600461532a565b6112dd565b610474610507366004615450565b61142c565b61045361171d565b610527610522366004615530565b611797565b604080519586526020860194909452928401919091526060830152608082015260a001610437565b61047461055d366004615576565b6001600160a01b03166000908152600f602052604090205460ff1690565b610453610589366004615576565b60056020526000908152604090205481565b600c546201000090046001600160a01b03165b6040516001600160a01b039091168152602001610437565b600c5460ff165b60405160ff9091168152602001610437565b61049f6105ed366004615593565b61186f565b601154600160a01b900460ff16610474565b61045361061236600461536b565b61196a565b61045361062536600461536b565b6119d2565b6003546001600160a01b03166105ae565b6004546001600160a01b03166105ae565b61065f61065a3660046155c2565b611a32565b6040805193845260208085019390935281518482015291810151606080850191909152918101516080840152015160a082015260c001610437565b60016105cd565b600054610453565b600d546105ae906001600160a01b031681565b6104746106ca36600461536b565b611be5565b6104536106dd366004615576565b6001600160a01b031660009081526007602052604090205490565b610453611cbb565b61045360005481565b610453610717366004615576565b60066020526000908152604090205481565b61049f611ccf565b61045361073f3660046153f3565b611e5c565b61045361224f565b61065f61075a3660046155c2565b612266565b61049f61076d366004615576565b6123fe565b600d54600160a01b900460ff16610474565b610453612578565b6104536125aa565b6104536107a2366004615576565b6125bd565b61042a612614565b610453612623565b6104536107c536600461536b565b612641565b6104746107d836600461536b565b6126a1565b61049f6126b7565b610453600281565b610453600181565b610453612878565b61045361288b565b61080d6128aa565b6040516104379190615692565b61082261295d565b6040516104379291906156a5565b61084361083e3660046156fc565b612acd565b60408051928352602083019190915201610437565b6108226132a4565b610453600081565b6108436108763660046156fc565b613409565b610527610889366004615530565b613b3a565b61080d613be4565b600e54610453565b600154610453565b6104746108b436600461536b565b613c0f565b6104536108c736600461573e565b6001600160a01b03918216600090815260086020908152604080832093909416825291909152205490565b610453613c82565b610453610908366004615576565b613c95565b61045361091b366004615576565b613cf3565b600c54600160b01b900460ff16610474565b61045361094036600461536b565b613d46565b6060600a80546109549061576c565b80601f01602080910402602001604051908101604052809291908181526020018280546109809061576c565b80156109cd5780601f106109a2576101008083540402835291602001916109cd565b820191906000526020600020905b8154815290600101906020018083116109b057829003601f168201915b5050505050905090565b600c54600090610100900460ff1615610a0b5760405162461bcd60e51b8152600401610a02906157a7565b60405180910390fd5b610a1484613da6565b610a1d83613da6565b6001600160a01b038085166000908152600f6020526040808220928616825290206003808301546002808501549284015490840154610a5e93919088613e01565b925050505b9392505050565b3360008181526008602090815260408083206001600160a01b03871680855292528083208590555191929091600080516020615a1883398151915290610ab39086815260200190565b60405180910390a35060015b92915050565b610ad8670de0b6b3a764000060326157e2565b81565b600c54610100900460ff1615610b035760405162461bcd60e51b8152600401610a02906157a7565b600c805461010061ff001990911617908190556201000090046001600160a01b03163314610b6c5760405162461bcd60e51b815260206004820152601660248201527522a9292fa4a72b20a624a22fa1a7a72a2927a62622a960511b6044820152606401610a02565b6003546001600160a01b03878116911614610bc95760405162461bcd60e51b815260206004820152601d60248201527f4552525f494e56414c49445f44415441544f4b454e5f414444524553530000006044820152606401610a02565b6004546001600160a01b03848116911614610c265760405162461bcd60e51b815260206004820152601d60248201527f4552525f494e56414c49445f62617365546f6b656e5f414444524553530000006044820152606401610a02565b610c31868686613e8d565b604080518681524260208201526001600160a01b0388169133916000805160206159f8833981519152910160405180910390a3610c6f838383613e8d565b604080518381524260208201526001600160a01b0385169133916000805160206159f8833981519152910160405180910390a3610caa61407c565b6040805183815260208101839052908101869052606081018590526001600160a01b03808816919085169033907fbece8b4dcdbe446dd65a9288154698e067e3e91de17a1a408c2f531b9f845d739060800160405180910390a45050600c805461ff001916905550505050565b600c54600090610100900460ff1615610d425760405162461bcd60e51b8152600401610a02906157a7565b600c805461ff001916610100179055600d54600160a01b900460ff16610d7a5760405162461bcd60e51b8152600401610a0290615801565b600454610d8f906001600160a01b0316613da6565b6004546001600160a01b03166000908152600f6020526040902060038101546002820154600954601054610dc693929190886140db565b915082821015610de85760405162461bcd60e51b8152600401610a029061582c565b6004546001600160a01b03166000908152600f60205260409020600390810154610e2e91610e1e90670de0b6b3a7640000615869565b610e2990600161587d565b61416b565b821115610e715760405162461bcd60e51b81526020600482015260116024820152704552525f4d41585f4f55545f524154494f60781b6044820152606401610a02565b610e7f816003015483614250565b6003820155600454604080518481524260208201526001600160a01b039092169133917f9d9058fd2f25ccc389fec7720abef0ca83472f5abfafd5f10d37f51e6a0493f3910160405180910390a36040518481527ffcda32798d5a9d032f49b37fea876d422f18f6e386e0f07db6029b693624b2c29060200160405180910390a1601154600354604051630d098ab360e11b81526001600160a01b03918216600482015260248101879052911690631a13156690604401602060405180830381865afa158015610f53573d6000803e3d6000fd5b505050506040513d601f19601f82011682018060405250810190610f779190615895565b1561111257600380546001600160a01b03166000908152600f60205260408120918201546002830154600954601054610fb3939291908a6140db565b9050610fc3826003015482614250565b60038381019190915554600c54604080518481524260208201526001600160a01b039384169362010000909304909216917f9d9058fd2f25ccc389fec7720abef0ca83472f5abfafd5f10d37f51e6a0493f3910160405180910390a3600c5461103b906201000090046001600160a01b0316876142ad565b611044866142b7565b600354600c54611067916001600160a01b039081169162010000900416836142c0565b60115460035460405163054a976360e41b81526001600160a01b03918216600482015260248101849052604481018990529116906354a9763090606401600060405180830381600087803b1580156110be57600080fd5b505af11580156110d2573d6000803e3d6000fd5b505050507f87b3975661762d852ddf2eeaad6a43b2d93777de7b3b7bdb634283df324561188660405161110791815260200190565b60405180910390a150505b61111c33856142ad565b611125846142b7565b60045461113c906001600160a01b031633846142c0565b50600c805461ff001916905592915050565b610ad86402540be400670de0b6b3a7640000615869565b600d546001600160a01b031633146111b75760405162461bcd60e51b815260206004820152601560248201527427a7262c9026a0a925a2aa1021a7a62622a1aa27a960591b6044820152606401610a02565b6001600160a01b03821661120d5760405162461bcd60e51b815260206004820152601d60248201527f496e76616c6964205f6e6577436f6c6c6563746f7220616464726573730000006044820152606401610a02565b80158061122d5750611229612710670de0b6b3a7640000615869565b8110155b6112495760405162461bcd60e51b8152600401610a02906158b2565b61125c600a670de0b6b3a7640000615869565b81111561127b5760405162461bcd60e51b8152600401610a02906158d7565b600d80546001600160a01b0319166001600160a01b03841690811790915560008290556040517f5e3e722dbd3b6b8071b78568ac80cd0e8ff92e4fb3024e755d504d8f7c2f6f09916112d19133919085906158fc565b60405180910390a15050565b6000336001600160a01b038516148061131957506001600160a01b03841660009081526008602090815260408083203384529091529020548211155b61135d5760405162461bcd60e51b815260206004820152601560248201527422a9292fa12a27a5a2a72fa120a22fa1a0a62622a960591b6044820152606401610a02565b6113688484846142d4565b336001600160a01b038516148015906113a657506001600160a01b038416600090815260086020908152604080832033845290915290205460001914155b15611422576001600160a01b03841660009081526008602090815260408083203384529091529020546113d99083614250565b6001600160a01b03851660008181526008602090815260408083203380855290835292819020859055519384529092600080516020615a18833981519152910160405180910390a35b5060019392505050565b601154600090600160a01b900460ff16156114895760405162461bcd60e51b815260206004820152601760248201527f4552525f414c52454144595f494e495449414c495a45440000000000000000006044820152606401610a02565b6001600160a01b0389166114df5760405162461bcd60e51b815260206004820152601e60248201527f4552525f494e56414c49445f434f4e54524f4c4c45525f4144445245535300006044820152606401610a02565b6001600160a01b0388166115355760405162461bcd60e51b815260206004820152601b60248201527f4552525f494e56414c49445f464143544f52595f4144445245535300000000006044820152606401610a02565b611549612710670de0b6b3a7640000615869565b8787600081811061155c5761155c615920565b9050602002013510156115815760405162461bcd60e51b8152600401610a02906158b2565b611594600a670de0b6b3a7640000615869565b878760008181106115a7576115a7615920565b9050602002013511156115cc5760405162461bcd60e51b8152600401610a02906158d7565b868660018181106115df576115df615920565b90506020020135600014806116205750611603612710670de0b6b3a7640000615869565b8787600181811061161657611616615920565b9050602002013510155b61163c5760405162461bcd60e51b8152600401610a02906158b2565b61164f600a670de0b6b3a7640000615869565b8787600181811061166257611662615920565b9050602002013511156116875760405162461bcd60e51b8152600401610a02906158d7565b6117108989898980806020026020016040519081016040528093929190818152602001838360200280828437600092019190915250506040805180820182528c93508b9250908a9060029083908390808284376000920191909152505060408051602081810190925291508a9060019083908390808284376000920191909152506143e6915050565b9998505050505050505050565b6002546004805460405163b8421e2b60e01b81526001600160a01b0391821692810192909252600092169063b8421e2b90602401602060405180830381865afa15801561176e573d6000803e3d6000fd5b505050506040513d601f19601f820116820180604052508101906117929190615936565b905090565b60008060008060006117a889613da6565b6117b188613da6565b604080516080810182526001600160a01b03808c166000908152600f6020818152858320600380820154875260029182015483880152948f168085528383528785209586015497870197909752958352529201546060820152906118366040518060800160405280600081526020016000815260200160008152602001600081525090565b611841838b8b612266565b805160208201516040830151606090930151949c50909a509850965090945050505050945094509450945094565b600c546201000090046001600160a01b031633146118c45760405162461bcd60e51b815260206004820152601260248201527122a9292fa727aa2fa1a7a72a2927a62622a960711b6044820152606401610a02565b6118d8612710670de0b6b3a7640000615869565b8110156118f75760405162461bcd60e51b8152600401610a02906158b2565b61190a600a670de0b6b3a7640000615869565b8111156119295760405162461bcd60e51b8152600401610a02906158d7565b600181905560408051338152602081018390527fbca0d601c32979eebac4e8cd06375b6e45d39af80fc06a33f366425b450dfb69910160405180910390a150565b6001600160a01b0382166000908152600f602090815260408083208151608081018352815460ff1615158152600182015493810193909352600281015491830182905260030154606083018190526009546010546119ca93919087614598565b949350505050565b6001600160a01b0382166000908152600f602090815260408083208151608081018352815460ff1615158152600182015493810193909352600281015491830182905260030154606083018190526009546010546119ca939190876140db565b600080611a606040518060800160405280600081526020016000815260200160008152602001600081525090565b6000611a7b87600360200201518860015b602002015161460f565b90506000611a90886002602002015188614250565b90506000611aa589600260200201518361460f565b90506000611ab38285614727565b9050611ac781670de0b6b3a7640000614250565b90506000805489611ad661171d565b600154611ae3919061587d565b611aed919061587d565b611af7919061587d565b9050611b25611b0e8c60005b60200201518461416b565b611b20670de0b6b3a764000084614250565b61460f565b9750611b4888611b438a610e29670de0b6b3a7640000611b4361171d565b614250565b866020018181525050611b6d88611b438a610e29670de0b6b3a7640000600054614250565b866040018181525050611b9288611b438a610e29670de0b6b3a7640000600154614250565b8652611bae88611b4381610e29670de0b6b3a76400008e614250565b6060870152611bd5611bc18c6000611b03565b611b20670de0b6b3a7640000600154614250565b9650505050505093509350939050565b3360009081526008602090815260408083206001600160a01b038616845290915281205480831115611c3a573360009081526008602090815260408083206001600160a01b0388168452909152812055611c69565b611c448184614250565b3360009081526008602090815260408083206001600160a01b03891684529091529020555b3360008181526008602090815260408083206001600160a01b03891680855290835292819020549051908152919291600080516020615a18833981519152910160405180910390a35060019392505050565b610ad8612710670de0b6b3a7640000615869565b6000611cd96128aa565b905060005b8151811015611e5857600060066000848481518110611cff57611cff615920565b60200260200101516001600160a01b03166001600160a01b03168152602001908152602001600020549050600060066000858581518110611d4257611d42615920565b60200260200101516001600160a01b03166001600160a01b03168152602001908152602001600020819055507fbaf1ab77be65c7abf8fcd922bfcf0a749f556ac1a4cdf39c126ffaa1851edb5633600d60009054906101000a90046001600160a01b0316858581518110611db857611db8615920565b602002602001015184604051611df694939291906001600160a01b039485168152928416602084015292166040820152606081019190915260800190565b60405180910390a1600d548351611e45916001600160a01b0316908390869086908110611e2557611e25615920565b60200260200101516001600160a01b03166148539092919063ffffffff16565b5080611e508161594f565b915050611cde565b5050565b600c54600090610100900460ff1615611e875760405162461bcd60e51b8152600401610a02906157a7565b600c805461ff001916610100179055600d54600160a01b900460ff16611ebf5760405162461bcd60e51b8152600401610a0290615801565b600454611ed4906001600160a01b0316613da6565b6004546001600160a01b03166000908152600f6020526040902060030154611f0990610e296002670de0b6b3a7640000615869565b831115611f4b5760405162461bcd60e51b815260206004820152601060248201526f4552525f4d41585f494e5f524154494f60801b6044820152606401610a02565b6004546001600160a01b03166000908152600f6020526040902060038101546002820154600954601054611f829392919088614598565b915082821015611fa45760405162461bcd60e51b8152600401610a029061582c565b611fb28160030154856148b6565b6003820155600454604080518681524260208201526001600160a01b039092169133916000805160206159f8833981519152910160405180910390a36040518281527ffcda32798d5a9d032f49b37fea876d422f18f6e386e0f07db6029b693624b2c29060200160405180910390a1600380546001600160a01b03166000908152600f602052604081209182015460028301546009546010546120589392919088614908565b601154600354604051632afbbacb60e01b81526001600160a01b039182166004820152602481018490529293501690632afbbacb90604401602060405180830381865afa1580156120ad573d6000803e3d6000fd5b505050506040513d601f19601f820116820180604052508101906120d19190615895565b156122115760115460035460405163ebedb8b360e01b81526001600160a01b0391821660048201526024810184905291169063ebedb8b390604401600060405180830381600087803b15801561212657600080fd5b505af115801561213a573d6000803e3d6000fd5b5050505061214c8260030154826148b6565b60038381019190915554600c54604080518481524260208201526001600160a01b039384169362010000909304909216916000805160206159f8833981519152910160405180910390a36040518481527f87b3975661762d852ddf2eeaad6a43b2d93777de7b3b7bdb634283df324561189060200160405180910390a16121d284614971565b600c546121ee906201000090046001600160a01b03168561497a565b600354600c54612211916001600160a01b03908116916201000090041683614984565b61221a84614971565b612224338561497a565b60045461223b906001600160a01b03163388614984565b505050600c805461ff001916905592915050565b610ad864e8d4a51000670de0b6b3a7640000615869565b6000806122946040518060800160405280600081526020016000815260200160008152602001600081525090565b60006122a98760016020020151886003611a71565b90506122c786611b4388610e29670de0b6b3a7640000611b4361171d565b8260200181815250506122ec86611b4388610e29670de0b6b3a7640000600054614250565b82604001818152505061231186611b4388610e29670de0b6b3a7640000600154614250565b825261232d86611b4381610e29670de0b6b3a76400008a614250565b606083015260008054869061234061171d565b60015461234d919061587d565b612357919061587d565b612361919061587d565b90506000612377670de0b6b3a764000083614250565b9050612383888261416b565b895190915060009061239990611b2081856148b6565b905060006123a78286614727565b905060006123bd670de0b6b3a764000083614250565b90506123d08c600260200201518261416b565b9850886123eb8c89604001518a60200151611b43919061587d565b9850985050505050505093509350939050565b600c54610100900460ff16156124265760405162461bcd60e51b8152600401610a02906157a7565b600c805461ff0019166101001790556001600160a01b0381166000908152600f602052604090205460ff1661248d5760405162461bcd60e51b815260206004820152600d60248201526c11549497d393d517d093d55391609a1b6044820152606401610a02565b6001600160a01b0381166000818152600f6020526040908190206003015490516370a0823160e01b81523060048201529091906370a0823190602401602060405180830381865afa1580156124e6573d6000803e3d6000fd5b505050506040513d601f19601f8201168201806040525081019061250a9190615936565b6001600160a01b0383166000818152600f6020908152604091829020600301849055815192835282018490528101919091527f9facca02b471d2776031537a8c9e281dfe5120035ede107bd328b165ffd973389060600160405180910390a15050600c805461ff0019169055565b600c54600090610100900460ff16156125a35760405162461bcd60e51b8152600401610a02906157a7565b5060105490565b610ad8670de0b6b3a764000060646157e2565b600c54600090610100900460ff16156125e85760405162461bcd60e51b8152600401610a02906157a7565b6125f182613da6565b506001600160a01b0381166000908152600f60205260409020600201545b919050565b6060600b80546109549061576c565b6126366003670de0b6b3a7640000615869565b610ad890600161587d565b6001600160a01b0382166000908152600f602090815260408083208151608081018352815460ff1615158152600182015493810193909352600281015491830182905260030154606083018190526009546010546119ca93919087614acc565b60006126ae3384846142d4565b50600192915050565b60006126c16128aa565b905060005b8151811015611e58576000600560008484815181106126e7576126e7615920565b60200260200101516001600160a01b03166001600160a01b0316815260200190815260200160002054905060006005600085858151811061272a5761272a615920565b60200260200101516001600160a01b03166001600160a01b03168152602001908152602001600020819055506000600260009054906101000a90046001600160a01b03166001600160a01b0316631a81876d6040518163ffffffff1660e01b8152600401602060405180830381865afa1580156127ab573d6000803e3d6000fd5b505050506040513d601f19601f820116820180604052508101906127cf919061596a565b90507fed2b0288692cfc6d01c94a67a53721792f59c3d1388221f8aa4f66c8d2808dde338286868151811061280657612806615920565b60200260200101518560405161284494939291906001600160a01b039485168152928416602084015292166040820152606081019190915260800190565b60405180910390a16128638183868681518110611e2557611e25615920565b505080806128709061594f565b9150506126c6565b610ad8600a670de0b6b3a7640000615869565b60016128a0670de0b6b3a764000060026157e2565b610ad89190615987565b600c54606090610100900460ff16156128d55760405162461bcd60e51b8152600401610a02906157a7565b600d54600160a01b900460ff166128fe5760405162461bcd60e51b8152600401610a0290615801565b600e8054806020026020016040519081016040528092919081815260200182805480156109cd57602002820191906000526020600020905b81546001600160a01b03168152600190910190602001808311612936575050505050905090565b606080600061296a6128aa565b90506000815167ffffffffffffffff811115612988576129886155ac565b6040519080825280602002602001820160405280156129b1578160200160208202803683370190505b5090506000825167ffffffffffffffff8111156129d0576129d06155ac565b6040519080825280602002602001820160405280156129f9578160200160208202803683370190505b50905060005b8351811015612ac257838181518110612a1a57612a1a615920565b6020026020010151838281518110612a3457612a34615920565b60200260200101906001600160a01b031690816001600160a01b03168152505060056000858381518110612a6a57612a6a615920565b60200260200101516001600160a01b03166001600160a01b0316815260200190815260200160002054828281518110612aa557612aa5615920565b602090810291909101015280612aba8161594f565b9150506129ff565b509094909350915050565b600c546000908190610100900460ff1615612afa5760405162461bcd60e51b8152600401610a02906157a7565b600c805461ff001916610100179055600d54600160a01b900460ff16612b325760405162461bcd60e51b8152600401610a0290615801565b612b426040850160208601615576565b6001600160a01b0316612b586020860186615576565b6001600160a01b03161415612ba85760405162461bcd60e51b815260206004820152601660248201527521b0b73737ba1039bbb0b81039b0b6b2903a37b5b2b760511b6044820152606401610a02565b612bc78460005b602002016020810190612bc29190615576565b613da6565b612bd2846001612baf565b6000600f81612be46020880188615576565b6001600160a01b03168152602081019190915260400160009081209150600f81876001602002016020810190612c1a9190615576565b6001600160a01b031681526020810191909152604001600020905060608501351580612c5d5750612c55612710670de0b6b3a7640000615869565b606086013510155b612ca25760405162461bcd60e51b8152602060048201526016602482015275436f6e73756d655377617046656520746f6f206c6f7760501b6044820152606401610a02565b612cb5600a670de0b6b3a7640000615869565b60608601351115612d025760405162461bcd60e51b8152602060048201526017602482015276086dedce6eadacaa6eec2e08ccaca40e8dede40d0d2ced604b1b6044820152606401610a02565b6003820154612d1e90610e296002670de0b6b3a7640000615869565b85351115612d615760405162461bcd60e51b815260206004820152601060248201526f4552525f4d41585f494e5f524154494f60801b6044820152606401610a02565b6000612d9783600301548460020154846003015485600201548a600360048110612d8d57612d8d615920565b6020020135613e01565b90506040860135811115612de35760405162461bcd60e51b81526020600482015260136024820152724552525f4241445f4c494d49545f505249434560681b6044820152606401610a02565b600080604051806080016040528086600301548152602001866002015481526020018560030154815260200185600201548152509050612e446040518060800160405280600081526020016000815260200160008152602001600081525090565b612e54828a3560608c0135612266565b91995093509050612ea3600560008c815b602002016020810190612e789190615576565b6001600160a01b03166001600160a01b031681526020019081526020016000205482602001516148b6565b60056000612eb460208e018e615576565b6001600160a01b03166001600160a01b0316815260200190815260200160002081905550612f30600660008c600060038110612ef257612ef2615920565b602002016020810190612f059190615576565b6001600160a01b03166001600160a01b031681526020019081526020016000205482604001516148b6565b60066000612f4160208e018e615576565b6001600160a01b03166001600160a01b03168152602001908152602001600020819055507f53a9dc73d01196a9c660d761bc5ec77b945340a34b5b52e510760af2dab1c0f181600001518260200151836040015184606001518e600060038110612fad57612fad615920565b602002016020810190612fc09190615576565b6040805195865260208601949094529284019190915260608301526001600160a01b0316608082015260a00160405180910390a160208901358810156130185760405162461bcd60e51b8152600401610a029061582c565b6130268660030154846148b6565b866003018190555061303c856003015489614250565b856003018190555061306e86600301548760020154876003015488600201548d600360048110612d8d57612d8d615920565b9650838710156130905760405162461bcd60e51b8152600401610a029061599e565b60408901358711156130d65760405162461bcd60e51b815260206004820152600f60248201526e4552525f4c494d49545f505249434560881b6044820152606401610a02565b6130e189358961460f565b8411156131005760405162461bcd60e51b8152600401610a029061599e565b61311060408b0160208c01615576565b6001600160a01b031661312660208c018c615576565b60038089015490880154604080518e358152602081018e905242918101919091526060810192909252608082015260a081018a90526001600160a01b03919091169033907fbdafe88494b31fc7436fe7992b0f377e874287e841e62eed1ad77e84f3c5b1719060c00160405180910390a46131af6131a760208c018c615576565b338b35614984565b60006131d48a35611b4381610e29670de0b6b3a76400008f60035b6020020135614250565b905060608a01351561326f576132188b60025b6020020160208101906131fa9190615576565b8261320860208f018f615576565b6001600160a01b03169190614853565b7f6d11837f46cc09b011cf4aae09fcade046c020aac088090ae4f77ff67b70797261324960608d0160408e01615576565b61325660208e018e615576565b83604051613266939291906158fc565b60405180910390a15b61328961328260408d0160208e01615576565b338b6142c0565b50505050505050600c805461ff001916905590939092509050565b60608060006132b16128aa565b90506000815167ffffffffffffffff8111156132cf576132cf6155ac565b6040519080825280602002602001820160405280156132f8578160200160208202803683370190505b5090506000825167ffffffffffffffff811115613317576133176155ac565b604051908082528060200260200182016040528015613340578160200160208202803683370190505b50905060005b8351811015612ac25783818151811061336157613361615920565b602002602001015183828151811061337b5761337b615920565b60200260200101906001600160a01b031690816001600160a01b031681525050600660008583815181106133b1576133b1615920565b60200260200101516001600160a01b03166001600160a01b03168152602001908152602001600020548282815181106133ec576133ec615920565b6020908102919091010152806134018161594f565b915050613346565b600c546000908190610100900460ff16156134365760405162461bcd60e51b8152600401610a02906157a7565b600c805461ff001916610100179055600d54600160a01b900460ff1661346e5760405162461bcd60e51b8152600401610a0290615801565b61347e6040850160208601615576565b6001600160a01b03166134946020860186615576565b6001600160a01b031614156134e45760405162461bcd60e51b815260206004820152601660248201527521b0b73737ba1039bbb0b81039b0b6b2903a37b5b2b760511b6044820152606401610a02565b6060830135158061350c5750613504612710670de0b6b3a7640000615869565b606084013510155b6135515760405162461bcd60e51b8152602060048201526016602482015275436f6e73756d655377617046656520746f6f206c6f7760501b6044820152606401610a02565b613564600a670de0b6b3a7640000615869565b606084013511156135b15760405162461bcd60e51b8152602060048201526017602482015276086dedce6eadacaa6eec2e08ccaca40e8dede40d0d2ced604b1b6044820152606401610a02565b6135bc846000612baf565b6135c7846001612baf565b6000600f816135d96020880188615576565b6001600160a01b03168152602081019190915260400160009081209150600f8187600160200201602081019061360f9190615576565b6001600160a01b03166001600160a01b03168152602001908152602001600020905061364e81600301546003670de0b6b3a7640000610e1e9190615869565b602086013511156136955760405162461bcd60e51b81526020600482015260116024820152704552525f4d41585f4f55545f524154494f60781b6044820152606401610a02565b60006136c183600301548460020154846003015485600201548a600360048110612d8d57612d8d615920565b9050604086013581111561370d5760405162461bcd60e51b81526020600482015260136024820152724552525f4241445f4c494d49545f505249434560681b6044820152606401610a02565b60008060405180608001604052808660030154815260200186600201548152602001856003015481526020018560020154815250905061376e6040518060800160405280600081526020016000815260200160008152602001600081525090565b6137818260208b013560608c0135611a32565b91995093509050613796600560008c81612e65565b600560006137a760208e018e615576565b6001600160a01b03166001600160a01b03168152602001908152602001600020819055506137e5600660008c600060038110612ef257612ef2615920565b600660006137f660208e018e615576565b6001600160a01b03166001600160a01b03168152602001908152602001600020819055507f53a9dc73d01196a9c660d761bc5ec77b945340a34b5b52e510760af2dab1c0f181600001518260200151836040015184606001518e60006003811061386257613862615920565b6020020160208101906138759190615576565b6040805195865260208601949094529284019190915260608301526001600160a01b0316608082015260a00160405180910390a188358811156138e95760405162461bcd60e51b815260206004820152600c60248201526b22a9292fa624a6a4aa2fa4a760a11b6044820152606401610a02565b6138f78660030154846148b6565b60038088019190915585015461390f908a60016131ca565b856003018190555061394186600301548760020154876003015488600201548d600360048110612d8d57612d8d615920565b9650838710156139635760405162461bcd60e51b8152600401610a029061599e565b60408901358711156139a95760405162461bcd60e51b815260206004820152600f60248201526e4552525f4c494d49545f505249434560881b6044820152606401610a02565b6139b78860208b013561460f565b8411156139d65760405162461bcd60e51b8152600401610a029061599e565b6139e660408b0160208c01615576565b6001600160a01b03166139fc60208c018c615576565b6001600160a01b0316337fbdafe88494b31fc7436fe7992b0f377e874287e841e62eed1ad77e84f3c5b1718b8d60016020020135428c600301548c600301548f604051613a7196959493929190958652602086019490945260408501929092526060840152608083015260a082015260c00190565b60405180910390a4613a90613a8960208c018c615576565b338a614984565b6000613aae89611b4381610e29670de0b6b3a76400008f60036131ca565b905060608a013515613b1c57613ac58b60026131e7565b7f6d11837f46cc09b011cf4aae09fcade046c020aac088090ae4f77ff67b707972613af660608d0160408e01615576565b613b0360208e018e615576565b83604051613b13939291906158fc565b60405180910390a15b613289613b2f60408d0160208e01615576565b3360208d01356142c0565b6000806000806000613b4b89613da6565b613b5488613da6565b604080516080810182526001600160a01b03808c166000908152600f6020818152858320600380820154875260029182015483880152948f16808552838352878520958601549787019790975295835252920154606082015290613bd96040518060800160405280600081526020016000815260200160008152602001600081525090565b611841838b8b611a32565b600c54606090610100900460ff16156128fe5760405162461bcd60e51b8152600401610a02906157a7565b3360009081526008602090815260408083206001600160a01b0386168452909152812054613c3d90836148b6565b3360008181526008602090815260408083206001600160a01b03891680855290835292819020859055519384529092600080516020615a188339815191529101610ab3565b610ad86002670de0b6b3a7640000615869565b600c54600090610100900460ff1615613cc05760405162461bcd60e51b8152600401610a02906157a7565b613cc982613da6565b6001600160a01b0382166000908152600f6020526040902060020154601054610a6390829061460f565b600c54600090610100900460ff1615613d1e5760405162461bcd60e51b8152600401610a02906157a7565b613d2782613da6565b506001600160a01b03166000908152600f602052604090206003015490565b6001600160a01b0382166000908152600f602090815260408083208151608081018352815460ff1615158152600182015493810193909352600281015491830182905260030154606083018190526009546010546119ca93919087614908565b6001600160a01b0381166000908152600f602052604090205460ff16613dfe5760405162461bcd60e51b815260206004820152600d60248201526c11549497d393d517d093d55391609a1b6044820152606401610a02565b50565b600080613e0e878761460f565b90506000613e1c868661460f565b90506000613e2a838361460f565b90506000613e73670de0b6b3a7640000611b20670de0b6b3a764000089600054613e5261171d565b600154613e5f919061587d565b613e69919061587d565b611b43919061587d565b9050613e7f828261416b565b9a9950505050505050505050565b600c546201000090046001600160a01b03163314613ee25760405162461bcd60e51b815260206004820152601260248201527122a9292fa727aa2fa1a7a72a2927a62622a960711b6044820152606401610a02565b6001600160a01b0383166000908152600f602052604090205460ff1615613f3a5760405162461bcd60e51b815260206004820152600c60248201526b11549497d254d7d093d5539160a21b6044820152606401610a02565b600d54600160a01b900460ff1615613f875760405162461bcd60e51b815260206004820152601060248201526f11549497d254d7d1925390531256915160821b6044820152606401610a02565b600e54600211613fca5760405162461bcd60e51b815260206004820152600e60248201526d4552525f4d41585f544f4b454e5360901b6044820152606401610a02565b604080516080810182526001808252600e805460208085019182526000858701818152606087018281526001600160a01b038c16808452600f9094529782209651875460ff1916901515178755925186860155915160028601559451600390940193909355805491820181559091527fbb7b4a454dc3493923482f07822329ed19e8244eff582cc204f8554c3620c3fd0180546001600160a01b0319169091179055614077838383614b8b565b505050565b600d805460ff60a01b1916600160a01b179055600c805460ff60b01b1916600160b01b1790556140bd6140b8670de0b6b3a764000060646157e2565b614971565b6140d9336140d4670de0b6b3a764000060646157e2565b61497a565b565b6000806140e8868561460f565b9050600061410384610e29670de0b6b3a76400006000614250565b905060006141118783614250565b9050600061411f828961460f565b9050600061413e82614139670de0b6b3a76400008861460f565b614727565b9050600061414c828d61416b565b9050600061415a8d83614250565b9d9c50505050505050505050505050565b60008061417883856157e2565b905083158061418f57508261418d8583615869565b145b6141ce5760405162461bcd60e51b815260206004820152601060248201526f4552525f4d554c5f4f564552464c4f5760801b6044820152606401610a02565b60006141e36002670de0b6b3a7640000615869565b6141ed908361587d565b9050818110156142325760405162461bcd60e51b815260206004820152601060248201526f4552525f4d554c5f4f564552464c4f5760801b6044820152606401610a02565b6000614246670de0b6b3a764000083615869565b9695505050505050565b600080600061425f8585614daa565b9150915080156142a55760405162461bcd60e51b81526020600482015260116024820152704552525f5355425f554e444552464c4f5760781b6044820152606401610a02565b509392505050565b611e588282614de1565b613dfe81614dec565b6140776001600160a01b0384168383614853565b6001600160a01b0383166000908152600760205260409020548111156143335760405162461bcd60e51b815260206004820152601460248201527311549497d25394d551919250d251539517d0905360621b6044820152606401610a02565b6001600160a01b0383166000908152600760205260409020546143569082614250565b6001600160a01b03808516600090815260076020526040808220939093559084168152205461438590826148b6565b6001600160a01b0380841660008181526007602052604090819020939093559151908516907fddf252ad1be2c89b69c2b068fc378daa952ba7f163c4a11628f55a4df523b3ef906143d99085815260200190565b60405180910390a3505050565b600c805462010000600160b01b031916620100006001600160a01b038a81169190910291909117909155600280546001600160a01b03191691881691909117905584516000908690829061443c5761443c615920565b602090810291909101810151600181905560408051338152928301919091527fbca0d601c32979eebac4e8cd06375b6e45d39af80fc06a33f366425b450dfb69910160405180910390a18560018151811061449957614499615920565b6020908102919091018101516000819055600c8054881515600160b01b0260ff60b01b19909116179055600d80548651600380546001600160a01b039283166001600160a01b0319918216179091559488015160048054918316918716919091179055865116881515600160a01b02949094166001600160a81b031990911617831790556040517f5e3e722dbd3b6b8071b78568ac80cd0e8ff92e4fb3024e755d504d8f7c2f6f099261454d9233926158fc565b60405180910390a1505060118054600c54600160a01b620100009091046001600160a01b03166001600160a81b03199092169190911781179182905560ff9104169695505050505050565b6000806145a5868561460f565b905060006145bb84670de0b6b3a764000061416b565b905060006145c989836148b6565b905060006145d7828b61460f565b905060006145e58286614727565b905060006145f3828b61416b565b90506145ff818b614250565b9c9b505050505050505050505050565b60008161464d5760405162461bcd60e51b815260206004820152600c60248201526b4552525f4449565f5a45524f60a01b6044820152606401610a02565b6000614661670de0b6b3a7640000856157e2565b90508315806146805750670de0b6b3a764000061467e8583615869565b145b6146bf5760405162461bcd60e51b815260206004820152601060248201526f11549497d1125597d25395115493905360821b6044820152606401610a02565b60006146cc600285615869565b6146d6908361587d565b90508181101561471b5760405162461bcd60e51b815260206004820152601060248201526f11549497d1125597d25395115493905360821b6044820152606401610a02565b60006142468583615869565b600060018310156147725760405162461bcd60e51b81526020600482015260156024820152744552525f42504f575f424153455f544f4f5f4c4f5760581b6044820152606401610a02565b6001614787670de0b6b3a764000060026157e2565b6147919190615987565b8311156147d95760405162461bcd60e51b815260206004820152601660248201527508aa4a4be84a09eaebe8482a68abea89e9ebe90928e960531b6044820152606401610a02565b60006147e483614eb8565b905060006147f28483614250565b905060006148088661480385614ed6565b614eea565b905081614819579250610abf915050565b600061483c87846148376402540be400670de0b6b3a7640000615869565b614f5e565b9050614848828261416b565b979650505050505050565b6040516001600160a01b03831660248201526044810182905261407790849063a9059cbb60e01b906064015b60408051601f198184030181529190526020810180516001600160e01b03166001600160e01b03199093169290921790915261504e565b6000806148c3838561587d565b905083811015610a635760405162461bcd60e51b815260206004820152601060248201526f4552525f4144445f4f564552464c4f5760801b6044820152606401610a02565b600080614915868561460f565b9050600061492386856148b6565b90506000614931828861460f565b90506000614947670de0b6b3a76400008561460f565b905060006149558383614727565b90506000614963828d61416b565b9050600061415a828e614250565b613dfe81615120565b611e58828261518f565b6040516370a0823160e01b81523060048201526000906001600160a01b038516906370a0823190602401602060405180830381865afa1580156149cb573d6000803e3d6000fd5b505050506040513d601f19601f820116820180604052508101906149ef9190615936565b9050614a066001600160a01b03851684308561519a565b614a10828261587d565b6040516370a0823160e01b81523060048201526001600160a01b038616906370a0823190602401602060405180830381865afa158015614a54573d6000803e3d6000fd5b505050506040513d601f19601f82011682018060405250810190614a789190615936565b1015614ac65760405162461bcd60e51b815260206004820152601a60248201527f5472616e7366657220616d6f756e7420697320746f6f206c6f770000000000006044820152606401610a02565b50505050565b600080614ad9868561460f565b90506000614aef670de0b6b3a764000083614250565b90506000614aff8260015461416b565b90506000614b1986611b20670de0b6b3a764000085614250565b90506000614b278b83614250565b90506000614b35828d61460f565b90506000614b438288614727565b90506000614b51828d61416b565b90506000614b5f8d83614250565b9050614b7881611b20670de0b6b3a76400006000614250565b9f9e505050505050505050505050505050565b670de0b6b3a7640000811015614bd45760405162461bcd60e51b815260206004820152600e60248201526d11549497d3525397d5d15251d21560921b6044820152606401610a02565b614be7670de0b6b3a764000060326157e2565b811115614c275760405162461bcd60e51b815260206004820152600e60248201526d11549497d3505617d5d15251d21560921b6044820152606401610a02565b614c3e64e8d4a51000670de0b6b3a7640000615869565b821015614c7f5760405162461bcd60e51b815260206004820152600f60248201526e4552525f4d494e5f42414c414e434560881b6044820152606401610a02565b6001600160a01b0383166000908152600f602052604090206002015480821115614d1b57614cb8601054614cb38484614250565b6148b6565b601055614cce670de0b6b3a764000060326157e2565b6010541115614d165760405162461bcd60e51b815260206004820152601460248201527311549497d3505617d513d5105317d5d15251d21560621b6044820152606401610a02565b614d37565b80821015614d3757614d33601054611b438385614250565b6010555b6001600160a01b0384166000908152600f602052604090206002810183905560030180549084905580841115614d8057614d7b8533614d768785614250565b614984565b614da3565b80841015614da3576000614d948286614250565b9050614da18633836142c0565b505b5050505050565b600080828410614dc957614dbe8385615987565b600091509150614dda565b614dd38484615987565b6001915091505b9250929050565b611e588230836142d4565b30600090815260076020526040902054811115614e425760405162461bcd60e51b815260206004820152601460248201527311549497d25394d551919250d251539517d0905360621b6044820152606401610a02565b30600090815260076020526040902054614e5c9082614250565b30600090815260076020526040902055600954614e799082614250565b60095560405181815260009030907fddf252ad1be2c89b69c2b068fc378daa952ba7f163c4a11628f55a4df523b3ef906020015b60405180910390a350565b6000670de0b6b3a7640000614ecc83614ed6565b610abf91906157e2565b6000610abf670de0b6b3a764000083615869565b60008281614ef96002856159c7565b614f0b57670de0b6b3a7640000614f0d565b815b9050614f1a600285615869565b93505b83156119ca57614f2d828361416b565b9150614f3a6002856159c7565b15614f4c57614f49818361416b565b90505b614f57600285615869565b9350614f1d565b6000828180614f7587670de0b6b3a7640000614daa565b9092509050670de0b6b3a764000080600060015b88841061503f576000614fa4670de0b6b3a7640000836157e2565b9050600080614fc48a614fbf85670de0b6b3a7640000614250565b614daa565b91509150614fd687610e29848c61416b565b9650614fe2878461460f565b965086614ff15750505061503f565b8715614ffb579315935b8015615005579315935b841561501c576150158688614250565b9550615029565b61502686886148b6565b95505b50505080806150379061594f565b915050614f89565b50909998505050505050505050565b60006150a3826040518060400160405280602081526020017f5361666545524332303a206c6f772d6c6576656c2063616c6c206661696c6564815250856001600160a01b03166151bb9092919063ffffffff16565b80519091501561407757808060200190518101906150c19190615895565b6140775760405162461bcd60e51b815260206004820152602a60248201527f5361666545524332303a204552433230206f7065726174696f6e20646964206e6044820152691bdd081cdd58d8d9595960b21b6064820152608401610a02565b3060009081526007602052604090205461513a90826148b6565b3060009081526007602052604090205560095461515790826148b6565b60095560405181815230906000907fddf252ad1be2c89b69c2b068fc378daa952ba7f163c4a11628f55a4df523b3ef90602001614ead565b611e583083836142d4565b614ac6846323b872dd60e01b85858560405160240161487f939291906158fc565b60606119ca848460008585843b6152145760405162461bcd60e51b815260206004820152601d60248201527f416464726573733a2063616c6c20746f206e6f6e2d636f6e74726163740000006044820152606401610a02565b600080866001600160a01b0316858760405161523091906159db565b60006040518083038185875af1925050503d806000811461526d576040519150601f19603f3d011682016040523d82523d6000602084013e615272565b606091505b50915091506148488282866060831561528c575081610a63565b82511561529c5782518084602001fd5b8160405162461bcd60e51b8152600401610a0291906152e2565b60005b838110156152d15781810151838201526020016152b9565b83811115614ac65750506000910152565b60208152600082518060208401526153018160408501602087016152b6565b601f01601f19169190910160400192915050565b6001600160a01b0381168114613dfe57600080fd5b60008060006060848603121561533f57600080fd5b833561534a81615315565b9250602084013561535a81615315565b929592945050506040919091013590565b6000806040838503121561537e57600080fd5b823561538981615315565b946020939093013593505050565b60008060008060008060c087890312156153b057600080fd5b86356153bb81615315565b9550602087013594506040870135935060608701356153d981615315565b9598949750929560808101359460a0909101359350915050565b6000806040838503121561540657600080fd5b50508035926020909101359150565b8015158114613dfe57600080fd5b803561260f81615415565b8060408101831015610abf57600080fd5b8060208101831015610abf57600080fd5b600080600080600080600080610100898b03121561546d57600080fd5b883561547881615315565b9750602089013561548881615315565b9650604089013567ffffffffffffffff808211156154a557600080fd5b818b0191508b601f8301126154b957600080fd5b8135818111156154c857600080fd5b8c60208260051b85010111156154dd57600080fd5b6020830198508097505050506154f560608a01615423565b935061550360808a01615423565b92506155128a60a08b0161542e565b91506155218a60e08b0161543f565b90509295985092959890939650565b6000806000806080858703121561554657600080fd5b843561555181615315565b9350602085013561556181615315565b93969395505050506040820135916060013590565b60006020828403121561558857600080fd5b8135610a6381615315565b6000602082840312156155a557600080fd5b5035919050565b634e487b7160e01b600052604160045260246000fd5b600080600060c084860312156155d757600080fd5b84601f8501126155e657600080fd5b6040516080810181811067ffffffffffffffff82111715615609576156096155ac565b60405280608086018781111561561e57600080fd5b865b81811015615638578035835260209283019201615620565b509197913596505060a094909401359392505050565b600081518084526020808501945080840160005b838110156156875781516001600160a01b031687529582019590820190600101615662565b509495945050505050565b602081526000610a63602083018461564e565b6040815260006156b8604083018561564e565b82810360208481019190915284518083528582019282019060005b818110156156ef578451835293830193918301916001016156d3565b5090979650505050505050565b60008060e0838503121561570f57600080fd5b606083018481111561572057600080fd5b8392508460e08501111561573357600080fd5b809150509250929050565b6000806040838503121561575157600080fd5b823561575c81615315565b9150602083013561573381615315565b600181811c9082168061578057607f821691505b602082108114156157a157634e487b7160e01b600052602260045260246000fd5b50919050565b6020808252600b908201526a4552525f5245454e54525960a81b604082015260600190565b634e487b7160e01b600052601160045260246000fd5b60008160001904831182151516156157fc576157fc6157cc565b500290565b60208082526011908201527011549497d393d517d19253905312569151607a1b604082015260600190565b6020808252600d908201526c11549497d31253525517d3d555609a1b604082015260600190565b634e487b7160e01b600052601260045260246000fd5b60008261587857615878615853565b500490565b60008219821115615890576158906157cc565b500190565b6000602082840312156158a757600080fd5b8151610a6381615415565b6020808252600b908201526a4552525f4d494e5f46454560a81b604082015260600190565b6020808252600b908201526a4552525f4d41585f46454560a81b604082015260600190565b6001600160a01b039384168152919092166020820152604081019190915260600190565b634e487b7160e01b600052603260045260246000fd5b60006020828403121561594857600080fd5b5051919050565b6000600019821415615963576159636157cc565b5060010190565b60006020828403121561597c57600080fd5b8151610a6381615315565b600082821015615999576159996157cc565b500390565b6020808252600f908201526e08aa4a4be9a82a890be82a0a0a49eb608b1b604082015260600190565b6000826159d6576159d6615853565b500690565b600082516159ed8184602087016152b6565b919091019291505056fe15a8ca63e37b2cff1677df2b6b82d36fcf8a524228bd7a4b4d02d107c28c1e8a8c5be1e5ebec7d5bd14f71427d1e84f3dd0314c0f7b2291e5b200ac8c7c3b925a2646970667358221220b6382dd90d446c6df51942829ce34031ea3a3076015c7676240bc4b9610bb5c564736f6c634300080c0033",
  "linkReferences": {},
  "deployedLinkReferences": {}
}