{
  "_format": "hh-sol-artifact-1",
  "contractName": "BPool",
  "sourceName": "contracts/pools/balancer/BPool.sol",
  "abi": [
    {
      "anonymous": false,
      "inputs": [
        {
          "indexed": true,
          "internalType": "address",
          "name": "src",
          "type": "address"
        },
        {
          "indexed": true,
          "internalType": "address",
          "name": "dst",
          "type": "address"
        },
        {
          "indexed": false,
          "internalType": "uint256",
          "name": "amt",
          "type": "uint256"
        }
      ],
      "name": "Approval",
      "type": "event"
    },
    {
      "anonymous": false,
      "inputs": [
        {
          "indexed": false,
          "internalType": "uint256",
          "name": "bptAmount",
          "type": "uint256"
        }
      ],
      "name": "LOG_BPT",
      "type": "event"
    },
    {
      "anonymous": false,
      "inputs": [
        {
          "indexed": false,
          "internalType": "uint256",
          "name": "bptAmount",
          "type": "uint256"
        }
      ],
      "name": "LOG_BPT_SS",
      "type": "event"
    },
    {
      "anonymous": false,
      "inputs": [
        {
          "indexed": true,
          "internalType": "bytes4",
          "name": "sig",
          "type": "bytes4"
        },
        {
          "indexed": true,
          "internalType": "address",
          "name": "caller",
          "type": "address"
        },
        {
          "indexed": false,
          "internalType": "uint256",
          "name": "timestamp",
          "type": "uint256"
        },
        {
          "indexed": false,
          "internalType": "bytes",
          "name": "data",
          "type": "bytes"
        }
      ],
      "name": "LOG_CALL",
      "type": "event"
    },
    {
      "anonymous": false,
      "inputs": [
        {
          "indexed": true,
          "internalType": "address",
          "name": "caller",
          "type": "address"
        },
        {
          "indexed": true,
          "internalType": "address",
          "name": "tokenOut",
          "type": "address"
        },
        {
          "indexed": false,
          "internalType": "uint256",
          "name": "tokenAmountOut",
          "type": "uint256"
        },
        {
          "indexed": false,
          "internalType": "uint256",
          "name": "timestamp",
          "type": "uint256"
        }
      ],
      "name": "LOG_EXIT",
      "type": "event"
    },
    {
      "anonymous": false,
      "inputs": [
        {
          "indexed": true,
          "internalType": "address",
          "name": "caller",
          "type": "address"
        },
        {
          "indexed": true,
          "internalType": "address",
          "name": "tokenIn",
          "type": "address"
        },
        {
          "indexed": false,
          "internalType": "uint256",
          "name": "tokenAmountIn",
          "type": "uint256"
        },
        {
          "indexed": false,
          "internalType": "uint256",
          "name": "timestamp",
          "type": "uint256"
        }
      ],
      "name": "LOG_JOIN",
      "type": "event"
    },
    {
      "anonymous": false,
      "inputs": [
        {
          "indexed": true,
          "internalType": "address",
          "name": "caller",
          "type": "address"
        },
        {
          "indexed": true,
          "internalType": "address",
          "name": "baseToken",
          "type": "address"
        },
        {
          "indexed": false,
          "internalType": "uint256",
          "name": "baseTokenAmountIn",
          "type": "uint256"
        },
        {
          "indexed": false,
          "internalType": "uint256",
          "name": "baseTokenWeight",
          "type": "uint256"
        },
        {
          "indexed": true,
          "internalType": "address",
          "name": "dataToken",
          "type": "address"
        },
        {
          "indexed": false,
          "internalType": "uint256",
          "name": "dataTokenAmountIn",
          "type": "uint256"
        },
        {
          "indexed": false,
          "internalType": "uint256",
          "name": "dataTokenWeight",
          "type": "uint256"
        }
      ],
      "name": "LOG_SETUP",
      "type": "event"
    },
    {
      "anonymous": false,
      "inputs": [
        {
          "indexed": true,
          "internalType": "address",
          "name": "caller",
          "type": "address"
        },
        {
          "indexed": true,
          "internalType": "address",
          "name": "tokenIn",
          "type": "address"
        },
        {
          "indexed": true,
          "internalType": "address",
          "name": "tokenOut",
          "type": "address"
        },
        {
          "indexed": false,
          "internalType": "uint256",
          "name": "tokenAmountIn",
          "type": "uint256"
        },
        {
          "indexed": false,
          "internalType": "uint256",
          "name": "tokenAmountOut",
          "type": "uint256"
        },
        {
          "indexed": false,
          "internalType": "uint256",
          "name": "timestamp",
          "type": "uint256"
        }
      ],
      "name": "LOG_SWAP",
      "type": "event"
    },
    {
      "anonymous": false,
      "inputs": [
        {
          "indexed": false,
          "internalType": "address",
          "name": "caller",
          "type": "address"
        },
        {
          "indexed": false,
          "internalType": "address",
          "name": "newMarketCollector",
          "type": "address"
        }
      ],
      "name": "MarketCollectorChanged",
      "type": "event"
    },
    {
      "anonymous": false,
      "inputs": [
        {
          "indexed": false,
          "internalType": "address",
          "name": "caller",
          "type": "address"
        },
        {
          "indexed": false,
          "internalType": "address",
          "name": "marketAddress",
          "type": "address"
        },
        {
          "indexed": false,
          "internalType": "address",
          "name": "token",
          "type": "address"
        },
        {
          "indexed": false,
          "internalType": "uint256",
          "name": "amount",
          "type": "uint256"
        }
      ],
      "name": "MarketFee",
      "type": "event"
    },
    {
      "anonymous": false,
      "inputs": [
        {
          "indexed": false,
          "internalType": "address",
          "name": "caller",
          "type": "address"
        },
        {
          "indexed": false,
          "internalType": "address",
          "name": "OPFWallet",
          "type": "address"
        },
        {
          "indexed": false,
          "internalType": "address",
          "name": "token",
          "type": "address"
        },
        {
          "indexed": false,
          "internalType": "uint256",
          "name": "amount",
          "type": "uint256"
        }
      ],
      "name": "OPFFee",
      "type": "event"
    },
    {
      "anonymous": false,
      "inputs": [
        {
          "indexed": false,
          "internalType": "uint256",
          "name": "swapFeeAmount",
          "type": "uint256"
        },
        {
          "indexed": false,
          "internalType": "uint256",
          "name": "oceanFeeAmount",
          "type": "uint256"
        },
        {
          "indexed": false,
          "internalType": "uint256",
          "name": "marketFeeAmount",
          "type": "uint256"
        },
        {
          "indexed": false,
          "internalType": "address",
          "name": "tokenFees",
          "type": "address"
        }
      ],
      "name": "SWAP_FEES",
      "type": "event"
    },
    {
      "anonymous": false,
      "inputs": [
        {
          "indexed": false,
          "internalType": "address",
          "name": "caller",
          "type": "address"
        },
        {
          "indexed": false,
          "internalType": "uint256",
          "name": "amount",
          "type": "uint256"
        }
      ],
      "name": "SwapFeeChanged",
      "type": "event"
    },
    {
      "anonymous": false,
      "inputs": [
        {
          "indexed": true,
          "internalType": "address",
          "name": "src",
          "type": "address"
        },
        {
          "indexed": true,
          "internalType": "address",
          "name": "dst",
          "type": "address"
        },
        {
          "indexed": false,
          "internalType": "uint256",
          "name": "amt",
          "type": "uint256"
        }
      ],
      "name": "Transfer",
      "type": "event"
    },
    {
      "inputs": [],
      "name": "BONE",
      "outputs": [
        {
          "internalType": "uint256",
          "name": "",
          "type": "uint256"
        }
      ],
      "stateMutability": "view",
      "type": "function"
    },
    {
      "inputs": [],
      "name": "BPOW_PRECISION",
      "outputs": [
        {
          "internalType": "uint256",
          "name": "",
          "type": "uint256"
        }
      ],
      "stateMutability": "view",
      "type": "function"
    },
    {
      "inputs": [],
      "name": "EXIT_FEE",
      "outputs": [
        {
          "internalType": "uint256",
          "name": "",
          "type": "uint256"
        }
      ],
      "stateMutability": "view",
      "type": "function"
    },
    {
      "inputs": [],
      "name": "INIT_POOL_SUPPLY",
      "outputs": [
        {
          "internalType": "uint256",
          "name": "",
          "type": "uint256"
        }
      ],
      "stateMutability": "view",
      "type": "function"
    },
    {
      "inputs": [],
      "name": "MAX_BOUND_TOKENS",
      "outputs": [
        {
          "internalType": "uint256",
          "name": "",
          "type": "uint256"
        }
      ],
      "stateMutability": "view",
      "type": "function"
    },
    {
      "inputs": [],
      "name": "MAX_BPOW_BASE",
      "outputs": [
        {
          "internalType": "uint256",
          "name": "",
          "type": "uint256"
        }
      ],
      "stateMutability": "view",
      "type": "function"
    },
    {
      "inputs": [],
      "name": "MAX_FEE",
      "outputs": [
        {
          "internalType": "uint256",
          "name": "",
          "type": "uint256"
        }
      ],
      "stateMutability": "view",
      "type": "function"
    },
    {
      "inputs": [],
      "name": "MAX_IN_RATIO",
      "outputs": [
        {
          "internalType": "uint256",
          "name": "",
          "type": "uint256"
        }
      ],
      "stateMutability": "view",
      "type": "function"
    },
    {
      "inputs": [],
      "name": "MAX_OUT_RATIO",
      "outputs": [
        {
          "internalType": "uint256",
          "name": "",
          "type": "uint256"
        }
      ],
      "stateMutability": "view",
      "type": "function"
    },
    {
      "inputs": [],
      "name": "MAX_TOTAL_WEIGHT",
      "outputs": [
        {
          "internalType": "uint256",
          "name": "",
          "type": "uint256"
        }
      ],
      "stateMutability": "view",
      "type": "function"
    },
    {
      "inputs": [],
      "name": "MAX_WEIGHT",
      "outputs": [
        {
          "internalType": "uint256",
          "name": "",
          "type": "uint256"
        }
      ],
      "stateMutability": "view",
      "type": "function"
    },
    {
      "inputs": [],
      "name": "MIN_BALANCE",
      "outputs": [
        {
          "internalType": "uint256",
          "name": "",
          "type": "uint256"
        }
      ],
      "stateMutability": "view",
      "type": "function"
    },
    {
      "inputs": [],
      "name": "MIN_BOUND_TOKENS",
      "outputs": [
        {
          "internalType": "uint256",
          "name": "",
          "type": "uint256"
        }
      ],
      "stateMutability": "view",
      "type": "function"
    },
    {
      "inputs": [],
      "name": "MIN_BPOW_BASE",
      "outputs": [
        {
          "internalType": "uint256",
          "name": "",
          "type": "uint256"
        }
      ],
      "stateMutability": "view",
      "type": "function"
    },
    {
      "inputs": [],
      "name": "MIN_FEE",
      "outputs": [
        {
          "internalType": "uint256",
          "name": "",
          "type": "uint256"
        }
      ],
      "stateMutability": "view",
      "type": "function"
    },
    {
      "inputs": [],
      "name": "MIN_WEIGHT",
      "outputs": [
        {
          "internalType": "uint256",
          "name": "",
          "type": "uint256"
        }
      ],
      "stateMutability": "view",
      "type": "function"
    },
    {
      "inputs": [],
      "name": "_opfCollector",
      "outputs": [
        {
          "internalType": "address",
          "name": "",
          "type": "address"
        }
      ],
      "stateMutability": "view",
      "type": "function"
    },
    {
      "inputs": [],
      "name": "_publishMarketCollector",
      "outputs": [
        {
          "internalType": "address",
          "name": "",
          "type": "address"
        }
      ],
      "stateMutability": "view",
      "type": "function"
    },
    {
      "inputs": [],
      "name": "_swapPublishMarketFee",
      "outputs": [
        {
          "internalType": "uint256",
          "name": "",
          "type": "uint256"
        }
      ],
      "stateMutability": "view",
      "type": "function"
    },
    {
      "inputs": [
        {
          "internalType": "address",
          "name": "src",
          "type": "address"
        },
        {
          "internalType": "address",
          "name": "dst",
          "type": "address"
        }
      ],
      "name": "allowance",
      "outputs": [
        {
          "internalType": "uint256",
          "name": "",
          "type": "uint256"
        }
      ],
      "stateMutability": "view",
      "type": "function"
    },
    {
      "inputs": [
        {
          "internalType": "address",
          "name": "dst",
          "type": "address"
        },
        {
          "internalType": "uint256",
          "name": "amt",
          "type": "uint256"
        }
      ],
      "name": "approve",
      "outputs": [
        {
          "internalType": "bool",
          "name": "",
          "type": "bool"
        }
      ],
      "stateMutability": "nonpayable",
      "type": "function"
    },
    {
      "inputs": [
        {
          "internalType": "address",
          "name": "whom",
          "type": "address"
        }
      ],
      "name": "balanceOf",
      "outputs": [
        {
          "internalType": "uint256",
          "name": "",
          "type": "uint256"
        }
      ],
      "stateMutability": "view",
      "type": "function"
    },
    {
      "inputs": [
        {
          "internalType": "address",
          "name": "tokenOut",
          "type": "address"
        },
        {
          "internalType": "uint256",
          "name": "tokenAmountOut",
          "type": "uint256"
        }
      ],
      "name": "calcPoolInSingleOut",
      "outputs": [
        {
          "internalType": "uint256",
          "name": "poolAmountIn",
          "type": "uint256"
        }
      ],
      "stateMutability": "view",
      "type": "function"
    },
    {
      "inputs": [
        {
          "internalType": "address",
          "name": "tokenIn",
          "type": "address"
        },
        {
          "internalType": "uint256",
          "name": "tokenAmountIn",
          "type": "uint256"
        }
      ],
      "name": "calcPoolOutSingleIn",
      "outputs": [
        {
          "internalType": "uint256",
          "name": "poolAmountOut",
          "type": "uint256"
        }
      ],
      "stateMutability": "view",
      "type": "function"
    },
    {
      "inputs": [
        {
          "internalType": "address",
          "name": "tokenIn",
          "type": "address"
        },
        {
          "internalType": "uint256",
          "name": "poolAmountOut",
          "type": "uint256"
        }
      ],
      "name": "calcSingleInPoolOut",
      "outputs": [
        {
          "internalType": "uint256",
          "name": "tokenAmountIn",
          "type": "uint256"
        }
      ],
      "stateMutability": "view",
      "type": "function"
    },
    {
      "inputs": [
        {
          "internalType": "address",
          "name": "tokenOut",
          "type": "address"
        },
        {
          "internalType": "uint256",
          "name": "poolAmountIn",
          "type": "uint256"
        }
      ],
      "name": "calcSingleOutPoolIn",
      "outputs": [
        {
          "internalType": "uint256",
          "name": "tokenAmountOut",
          "type": "uint256"
        }
      ],
      "stateMutability": "view",
      "type": "function"
    },
    {
      "inputs": [],
      "name": "collectMarketFee",
      "outputs": [],
      "stateMutability": "nonpayable",
      "type": "function"
    },
    {
      "inputs": [],
      "name": "collectOPF",
      "outputs": [],
      "stateMutability": "nonpayable",
      "type": "function"
    },
    {
      "inputs": [
        {
          "internalType": "address",
          "name": "",
          "type": "address"
        }
      ],
      "name": "communityFees",
      "outputs": [
        {
          "internalType": "uint256",
          "name": "",
          "type": "uint256"
        }
      ],
      "stateMutability": "view",
      "type": "function"
    },
    {
      "inputs": [],
      "name": "decimals",
      "outputs": [
        {
          "internalType": "uint8",
          "name": "",
          "type": "uint8"
        }
      ],
      "stateMutability": "view",
      "type": "function"
    },
    {
      "inputs": [
        {
          "internalType": "address",
          "name": "dst",
          "type": "address"
        },
        {
          "internalType": "uint256",
          "name": "amt",
          "type": "uint256"
        }
      ],
      "name": "decreaseApproval",
      "outputs": [
        {
          "internalType": "bool",
          "name": "",
          "type": "bool"
        }
      ],
      "stateMutability": "nonpayable",
      "type": "function"
    },
    {
      "inputs": [
        {
          "internalType": "uint256",
          "name": "poolAmountIn",
          "type": "uint256"
        },
        {
          "internalType": "uint256[]",
          "name": "minAmountsOut",
          "type": "uint256[]"
        }
      ],
      "name": "exitPool",
      "outputs": [],
      "stateMutability": "nonpayable",
      "type": "function"
    },
    {
      "inputs": [
        {
          "internalType": "address",
          "name": "tokenOut",
          "type": "address"
        },
        {
          "internalType": "uint256",
          "name": "tokenAmountOut",
          "type": "uint256"
        },
        {
          "internalType": "uint256",
          "name": "maxPoolAmountIn",
          "type": "uint256"
        }
      ],
      "name": "exitswapExternAmountOut",
      "outputs": [
        {
          "internalType": "uint256",
          "name": "poolAmountIn",
          "type": "uint256"
        }
      ],
      "stateMutability": "nonpayable",
      "type": "function"
    },
    {
      "inputs": [
        {
          "internalType": "address",
          "name": "tokenOut",
          "type": "address"
        },
        {
          "internalType": "uint256",
          "name": "poolAmountIn",
          "type": "uint256"
        },
        {
          "internalType": "uint256",
          "name": "minAmountOut",
          "type": "uint256"
        }
      ],
      "name": "exitswapPoolAmountIn",
      "outputs": [
        {
          "internalType": "uint256",
          "name": "tokenAmountOut",
          "type": "uint256"
        }
      ],
      "stateMutability": "nonpayable",
      "type": "function"
    },
    {
      "inputs": [
        {
          "internalType": "address",
          "name": "tokenIn",
          "type": "address"
        },
        {
          "internalType": "address",
          "name": "tokenOut",
          "type": "address"
        },
        {
          "internalType": "uint256",
          "name": "tokenAmountOut",
          "type": "uint256"
        },
        {
          "internalType": "uint256",
          "name": "_swapMarketFee",
          "type": "uint256"
        }
      ],
      "name": "getAmountInExactOut",
      "outputs": [
        {
          "internalType": "uint256",
          "name": "tokenAmountIn",
          "type": "uint256"
        }
      ],
      "stateMutability": "view",
      "type": "function"
    },
    {
      "inputs": [
        {
          "internalType": "address",
          "name": "tokenIn",
          "type": "address"
        },
        {
          "internalType": "address",
          "name": "tokenOut",
          "type": "address"
        },
        {
          "internalType": "uint256",
          "name": "tokenAmountIn",
          "type": "uint256"
        },
        {
          "internalType": "uint256",
          "name": "_swapMarketFee",
          "type": "uint256"
        }
      ],
      "name": "getAmountOutExactIn",
      "outputs": [
        {
          "internalType": "uint256",
          "name": "tokenAmountOut",
          "type": "uint256"
        }
      ],
      "stateMutability": "view",
      "type": "function"
    },
    {
      "inputs": [
        {
          "internalType": "address",
          "name": "token",
          "type": "address"
        }
      ],
      "name": "getBalance",
      "outputs": [
        {
          "internalType": "uint256",
          "name": "",
          "type": "uint256"
        }
      ],
      "stateMutability": "view",
      "type": "function"
    },
    {
      "inputs": [],
      "name": "getBaseTokenAddress",
      "outputs": [
        {
          "internalType": "address",
          "name": "",
          "type": "address"
        }
      ],
      "stateMutability": "view",
      "type": "function"
    },
    {
      "inputs": [],
      "name": "getController",
      "outputs": [
        {
          "internalType": "address",
          "name": "",
          "type": "address"
        }
      ],
      "stateMutability": "view",
      "type": "function"
    },
    {
      "inputs": [],
      "name": "getCurrentMarketFees",
      "outputs": [
        {
          "internalType": "address[]",
          "name": "",
          "type": "address[]"
        },
        {
          "internalType": "uint256[]",
          "name": "",
          "type": "uint256[]"
        }
      ],
      "stateMutability": "view",
      "type": "function"
    },
    {
      "inputs": [],
      "name": "getCurrentOPFFees",
      "outputs": [
        {
          "internalType": "address[]",
          "name": "",
          "type": "address[]"
        },
        {
          "internalType": "uint256[]",
          "name": "",
          "type": "uint256[]"
        }
      ],
      "stateMutability": "view",
      "type": "function"
    },
    {
      "inputs": [],
      "name": "getCurrentTokens",
      "outputs": [
        {
          "internalType": "address[]",
          "name": "tokens",
          "type": "address[]"
        }
      ],
      "stateMutability": "view",
      "type": "function"
    },
    {
      "inputs": [],
      "name": "getDataTokenAddress",
      "outputs": [
        {
          "internalType": "address",
          "name": "",
          "type": "address"
        }
      ],
      "stateMutability": "view",
      "type": "function"
    },
    {
      "inputs": [
        {
          "internalType": "address",
          "name": "token",
          "type": "address"
        }
      ],
      "name": "getDenormalizedWeight",
      "outputs": [
        {
          "internalType": "uint256",
          "name": "",
          "type": "uint256"
        }
      ],
      "stateMutability": "view",
      "type": "function"
    },
    {
      "inputs": [],
      "name": "getFinalTokens",
      "outputs": [
        {
          "internalType": "address[]",
          "name": "tokens",
          "type": "address[]"
        }
      ],
      "stateMutability": "view",
      "type": "function"
    },
    {
      "inputs": [],
      "name": "getMarketFee",
      "outputs": [
        {
          "internalType": "uint256",
          "name": "",
          "type": "uint256"
        }
      ],
      "stateMutability": "view",
      "type": "function"
    },
    {
      "inputs": [
        {
          "internalType": "address",
          "name": "token",
          "type": "address"
        }
      ],
      "name": "getNormalizedWeight",
      "outputs": [
        {
          "internalType": "uint256",
          "name": "",
          "type": "uint256"
        }
      ],
      "stateMutability": "view",
      "type": "function"
    },
    {
      "inputs": [],
      "name": "getNumTokens",
      "outputs": [
        {
          "internalType": "uint256",
          "name": "",
          "type": "uint256"
        }
      ],
      "stateMutability": "view",
      "type": "function"
    },
    {
      "inputs": [],
      "name": "getOPFFee",
      "outputs": [
        {
          "internalType": "uint256",
          "name": "",
          "type": "uint256"
        }
      ],
      "stateMutability": "view",
      "type": "function"
    },
    {
      "inputs": [
        {
          "internalType": "address",
          "name": "tokenIn",
          "type": "address"
        },
        {
          "internalType": "address",
          "name": "tokenOut",
          "type": "address"
        },
        {
          "internalType": "uint256",
          "name": "_swapMarketFee",
          "type": "uint256"
        }
      ],
      "name": "getSpotPrice",
      "outputs": [
        {
          "internalType": "uint256",
          "name": "spotPrice",
          "type": "uint256"
        }
      ],
      "stateMutability": "view",
      "type": "function"
    },
    {
      "inputs": [],
      "name": "getSwapFee",
      "outputs": [
        {
          "internalType": "uint256",
          "name": "",
          "type": "uint256"
        }
      ],
      "stateMutability": "view",
      "type": "function"
    },
    {
      "inputs": [],
      "name": "getTotalDenormalizedWeight",
      "outputs": [
        {
          "internalType": "uint256",
          "name": "",
          "type": "uint256"
        }
      ],
      "stateMutability": "view",
      "type": "function"
    },
    {
      "inputs": [
        {
          "internalType": "address",
          "name": "dst",
          "type": "address"
        },
        {
          "internalType": "uint256",
          "name": "amt",
          "type": "uint256"
        }
      ],
      "name": "increaseApproval",
      "outputs": [
        {
          "internalType": "bool",
          "name": "",
          "type": "bool"
        }
      ],
      "stateMutability": "nonpayable",
      "type": "function"
    },
    {
      "inputs": [
        {
          "internalType": "address",
          "name": "controller",
          "type": "address"
        },
        {
          "internalType": "address",
          "name": "factory",
          "type": "address"
        },
        {
          "internalType": "uint256[]",
          "name": "swapFees",
          "type": "uint256[]"
        },
        {
          "internalType": "bool",
          "name": "publicSwap",
          "type": "bool"
        },
        {
          "internalType": "bool",
          "name": "finalized",
          "type": "bool"
        },
        {
          "internalType": "address[2]",
          "name": "tokens",
          "type": "address[2]"
        },
        {
          "internalType": "address[2]",
          "name": "feeCollectors",
          "type": "address[2]"
        }
      ],
      "name": "initialize",
      "outputs": [
        {
          "internalType": "bool",
          "name": "",
          "type": "bool"
        }
      ],
      "stateMutability": "nonpayable",
      "type": "function"
    },
    {
      "inputs": [
        {
          "internalType": "address",
          "name": "t",
          "type": "address"
        }
      ],
      "name": "isBound",
      "outputs": [
        {
          "internalType": "bool",
          "name": "",
          "type": "bool"
        }
      ],
      "stateMutability": "view",
      "type": "function"
    },
    {
      "inputs": [],
      "name": "isFinalized",
      "outputs": [
        {
          "internalType": "bool",
          "name": "",
          "type": "bool"
        }
      ],
      "stateMutability": "view",
      "type": "function"
    },
    {
      "inputs": [],
      "name": "isInitialized",
      "outputs": [
        {
          "internalType": "bool",
          "name": "",
          "type": "bool"
        }
      ],
      "stateMutability": "view",
      "type": "function"
    },
    {
      "inputs": [],
      "name": "isPublicSwap",
      "outputs": [
        {
          "internalType": "bool",
          "name": "",
          "type": "bool"
        }
      ],
      "stateMutability": "view",
      "type": "function"
    },
    {
      "inputs": [
        {
          "internalType": "uint256",
          "name": "poolAmountOut",
          "type": "uint256"
        },
        {
          "internalType": "uint256[]",
          "name": "maxAmountsIn",
          "type": "uint256[]"
        }
      ],
      "name": "joinPool",
      "outputs": [],
      "stateMutability": "nonpayable",
      "type": "function"
    },
    {
      "inputs": [
        {
          "internalType": "address",
          "name": "tokenIn",
          "type": "address"
        },
        {
          "internalType": "uint256",
          "name": "tokenAmountIn",
          "type": "uint256"
        },
        {
          "internalType": "uint256",
          "name": "minPoolAmountOut",
          "type": "uint256"
        }
      ],
      "name": "joinswapExternAmountIn",
      "outputs": [
        {
          "internalType": "uint256",
          "name": "poolAmountOut",
          "type": "uint256"
        }
      ],
      "stateMutability": "nonpayable",
      "type": "function"
    },
    {
      "inputs": [
        {
          "internalType": "address",
          "name": "tokenIn",
          "type": "address"
        },
        {
          "internalType": "uint256",
          "name": "poolAmountOut",
          "type": "uint256"
        },
        {
          "internalType": "uint256",
          "name": "maxAmountIn",
          "type": "uint256"
        }
      ],
      "name": "joinswapPoolAmountOut",
      "outputs": [
        {
          "internalType": "uint256",
          "name": "tokenAmountIn",
          "type": "uint256"
        }
      ],
      "stateMutability": "nonpayable",
      "type": "function"
    },
    {
      "inputs": [],
      "name": "name",
      "outputs": [
        {
          "internalType": "string",
          "name": "",
          "type": "string"
        }
      ],
      "stateMutability": "view",
      "type": "function"
    },
    {
      "inputs": [
        {
          "internalType": "address",
          "name": "",
          "type": "address"
        }
      ],
      "name": "publishMarketFees",
      "outputs": [
        {
          "internalType": "uint256",
          "name": "",
          "type": "uint256"
        }
      ],
      "stateMutability": "view",
      "type": "function"
    },
    {
      "inputs": [
        {
          "internalType": "uint256",
          "name": "swapFee",
          "type": "uint256"
        }
      ],
      "name": "setSwapFee",
      "outputs": [],
      "stateMutability": "nonpayable",
      "type": "function"
    },
    {
      "inputs": [
        {
          "internalType": "address",
          "name": "dataTokenAddress",
          "type": "address"
        },
        {
          "internalType": "uint256",
          "name": "dataTokenAmount",
          "type": "uint256"
        },
        {
          "internalType": "uint256",
          "name": "dataTokenWeight",
          "type": "uint256"
        },
        {
          "internalType": "address",
          "name": "baseTokenAddress",
          "type": "address"
        },
        {
          "internalType": "uint256",
          "name": "baseTokenAmount",
          "type": "uint256"
        },
        {
          "internalType": "uint256",
          "name": "baseTokenWeight",
          "type": "uint256"
        }
      ],
      "name": "setup",
      "outputs": [],
      "stateMutability": "nonpayable",
      "type": "function"
    },
    {
      "inputs": [
        {
          "internalType": "address[3]",
          "name": "tokenInOutMarket",
          "type": "address[3]"
        },
        {
          "internalType": "uint256[4]",
          "name": "amountsInOutMaxFee",
          "type": "uint256[4]"
        }
      ],
      "name": "swapExactAmountIn",
      "outputs": [
        {
          "internalType": "uint256",
          "name": "tokenAmountOut",
          "type": "uint256"
        },
        {
          "internalType": "uint256",
          "name": "spotPriceAfter",
          "type": "uint256"
        }
      ],
      "stateMutability": "nonpayable",
      "type": "function"
    },
    {
      "inputs": [
        {
          "internalType": "address[3]",
          "name": "tokenInOutMarket",
          "type": "address[3]"
        },
        {
          "internalType": "uint256[4]",
          "name": "amountsInOutMaxFee",
          "type": "uint256[4]"
        }
      ],
      "name": "swapExactAmountOut",
      "outputs": [
        {
          "internalType": "uint256",
          "name": "tokenAmountIn",
          "type": "uint256"
        },
        {
          "internalType": "uint256",
          "name": "spotPriceAfter",
          "type": "uint256"
        }
      ],
      "stateMutability": "nonpayable",
      "type": "function"
    },
    {
      "inputs": [],
      "name": "symbol",
      "outputs": [
        {
          "internalType": "string",
          "name": "",
          "type": "string"
        }
      ],
      "stateMutability": "view",
      "type": "function"
    },
    {
      "inputs": [],
      "name": "totalSupply",
      "outputs": [
        {
          "internalType": "uint256",
          "name": "",
          "type": "uint256"
        }
      ],
      "stateMutability": "view",
      "type": "function"
    },
    {
      "inputs": [
        {
          "internalType": "address",
          "name": "dst",
          "type": "address"
        },
        {
          "internalType": "uint256",
          "name": "amt",
          "type": "uint256"
        }
      ],
      "name": "transfer",
      "outputs": [
        {
          "internalType": "bool",
          "name": "",
          "type": "bool"
        }
      ],
      "stateMutability": "nonpayable",
      "type": "function"
    },
    {
      "inputs": [
        {
          "internalType": "address",
          "name": "src",
          "type": "address"
        },
        {
          "internalType": "address",
          "name": "dst",
          "type": "address"
        },
        {
          "internalType": "uint256",
          "name": "amt",
          "type": "uint256"
        }
      ],
      "name": "transferFrom",
      "outputs": [
        {
          "internalType": "bool",
          "name": "",
          "type": "bool"
        }
      ],
      "stateMutability": "nonpayable",
      "type": "function"
    },
    {
      "inputs": [
        {
          "internalType": "address",
          "name": "_newCollector",
          "type": "address"
        }
      ],
      "name": "updateMarketFeeCollector",
      "outputs": [],
      "stateMutability": "nonpayable",
      "type": "function"
    }
  ],
  "bytecode": "0x60c0604052601360808190527f42616c616e63657220506f6f6c20546f6b656e0000000000000000000000000060a09081526200004091600a91906200008f565b506040805180820190915260038082526210941560ea1b60209092019182526200006d91600b916200008f565b50600c805460ff191660121790553480156200008857600080fd5b5062000172565b8280546200009d9062000135565b90600052602060002090601f016020900481019282620000c157600085556200010c565b82601f10620000dc57805160ff19168380011785556200010c565b828001600101855582156200010c579182015b828111156200010c578251825591602001919060010190620000ef565b506200011a9291506200011e565b5090565b5b808211156200011a57600081556001016200011f565b600181811c908216806200014a57607f821691505b602082108114156200016c57634e487b7160e01b600052602260045260246000fd5b50919050565b6160a080620001826000396000f3fe608060405234801561001057600080fd5b50600436106104285760003560e01c80638d4e40831161022b578063c44a428311610130578063dd62ed3e116100b8578063f1b8a9b711610087578063f1b8a9b7146108b1578063f68045a5146108c4578063f8b2cb4f146108cc578063fde924f7146108df578063ff9b1850146108f157600080fd5b8063dd62ed3e1461085d578063e4a28a52146104c3578063ec09302114610896578063f0f13f0b1461089e57600080fd5b8063caa01148116100ff578063caa011481461081f578063cc77828d14610832578063cd2ed8fb1461083a578063d4cadf6814610842578063d73dd6231461084a57600080fd5b8063c44a4283146107e6578063c6580d12146107fc578063c8ff183314610804578063c98a59cf1461080c57600080fd5b8063b0e0d136116101b3578063bc694ea211610182578063bc694ea21461078e578063be3bbd2e14610796578063c070a6d8146107ab578063c36596a6146104f0578063c421a3fc146107be57600080fd5b8063b0e0d13614610776578063b7b800a414610776578063ba019dab1461077e578063bc063e1a1461078657600080fd5b806395d89b41116101fa57806395d89b411461072d578063992e2a9214610735578063a3b3a16d1461073d578063a9059cbb14610750578063b02f0b731461076357600080fd5b80638d4e4083146106f8578063936c34771461070a5780639381cd2b14610712578063948d8ce61461071a57600080fd5b80633950b3fd116103315780636d06dfa0116102b957806376c7a3c71161028857806376c7a3c7146106b75780637a284be4146106bf5780637c5918b3146106c857806380ca7308146106e8578063867378c5146106f057600080fd5b80636d06dfa014610660578063700dd7e814610673578063703305181461067b57806370a082311461068e57600080fd5b80634f69c0d4116103005780634f69c0d41461060c5780635db342771461061f5780635e123add14610632578063638c9e951461063a578063661884631461064d57600080fd5b80633950b3fd146105c2578063430ed5d0146105d557806346ab38f1146105e85780634df947d0146105fb57600080fd5b8063218b5382116103b4578063300621921161038357806330062192146105515780633018205f14610571578063313ce5671461058857806334e199071461059d578063392e53cd146105b057600080fd5b8063218b5382146104f057806323b872dd146104ff5780632eebd6ae146105125780632f37b6241461052557600080fd5b8063095ea7b3116103fb578063095ea7b3146104a057806309a3bbe4146104c357806309ef3f5b146104cb57806318160ddd146104e0578063189d00ca146104e857600080fd5b806302c967481461042d57806304ad79541461045357806306fdde0314610478578063079492d41461048d575b600080fd5b61044061043b3660046158a8565b610904565b6040519081526020015b60405180910390f35b6003546001600160a01b03165b6040516001600160a01b03909116815260200161044a565b610480610d94565b60405161044a9190615907565b61044061049b36600461593a565b610e26565b6104b36104ae366004615976565b610f0e565b604051901515815260200161044a565b610440610f69565b6104de6104d93660046159a0565b610f7f565b005b600954610440565b6104406111bb565b610440670de0b6b3a764000081565b6104b361050d36600461593a565b6111d2565b6104406105203660046159f8565b611326565b6104b3610533366004615a3a565b6001600160a01b031660009081526010602052604090205460ff1690565b61044061055f366004615a3a565b60056020526000908152604090205481565b600c546201000090046001600160a01b0316610460565b600c5460405160ff909116815260200161044a565b6104de6105ab366004615a55565b6113e3565b601254600160a01b900460ff166104b3565b6104406105d0366004615976565b611569565b6104406105e3366004615976565b6115d1565b6104406105f63660046158a8565b611631565b6004546001600160a01b0316610460565b6104de61061a366004615ab3565b611a66565b61044061062d3660046158a8565b611c8d565b600054610440565b600d54610460906001600160a01b031681565b6104b361065b366004615976565b61207d565b61044061066e3660046158a8565b612153565b61044061255e565b6104de610689366004615a3a565b6125d8565b61044061069c366004615a3a565b6001600160a01b031660009081526007602052604090205490565b6104406126d5565b61044060005481565b6104406106d6366004615a3a565b60066020526000908152604090205481565b6104de6126ea565b61044061287c565b600e54600160a01b900460ff166104b3565b610440612893565b6104406128c5565b610440610728366004615a3a565b6128d8565b61048061292f565b61044061293e565b61044061074b366004615976565b61295c565b6104b361075e366004615976565b6129bc565b6104de610771366004615ab3565b6129d2565b610440600281565b610440600181565b610440612c2e565b610440612c41565b61079e612c60565b60405161044a9190615b43565b6104b36107b9366004615b75565b612d13565b6107d16107cc366004615c22565b612f83565b6040805192835260208301919091520161044a565b6107ee6133c6565b60405161044a929190615c64565b610440600081565b6107ee613536565b6107d161081a366004615c22565b61369b565b61044061082d3660046159f8565b613ab7565b61079e613b69565b600f54610440565b600154610440565b6104b3610858366004615976565b613b94565b61044061086b366004615cbb565b6001600160a01b03918216600090815260086020908152604080832093909416825291909152205490565b610440613c07565b600e54610460906001600160a01b031681565b6104406108bf366004615a3a565b613c1a565b6104de613c78565b6104406108da366004615a3a565b613de6565b600c54600160b01b900460ff166104b3565b6104406108ff366004615976565b613e39565b600c54600090610100900460ff16156109385760405162461bcd60e51b815260040161092f90615cee565b60405180910390fd5b600c805461ff001916610100179055600e54600160a01b900460ff166109705760405162461bcd60e51b815260040161092f90615d13565b6001600160a01b03841660009081526010602052604090205460ff166109a85760405162461bcd60e51b815260040161092f90615d3e565b6001600160a01b03841660009081526010602052604090206003908101546109ec916109dc90670de0b6b3a7640000615d91565b6109e7906001615da5565b613e99565b831115610a0b5760405162461bcd60e51b815260040161092f90615dbd565b6001600160a01b038416600090815260106020526040902060038101546002820154600954601154610a409392919088613f7e565b915081610a5f5760405162461bcd60e51b815260040161092f90615de8565b82821115610a7f5760405162461bcd60e51b815260040161092f90615e11565b610a8d816003015485614042565b60038201556000610a9e8382613e99565b604080518781524260208201529192506001600160a01b038816913391600080516020615fcb833981519152910160405180910390a360405183815260008051602061600b8339815191529060200160405180910390a1610aff338461409f565b610b11610b0c8483614042565b6140a9565b600254610b27906001600160a01b0316826140b5565b610b328633876140bf565b6003546000906001600160a01b0388811691161415610b5d57506004546001600160a01b0316610b6b565b506003546001600160a01b03165b60125460035460405163efd4810360e01b81526001600160a01b039283169263efd4810392610ba39291169085908990600401615e37565b602060405180830381865afa158015610bc0573d6000803e3d6000fd5b505050506040513d601f19601f82011682018060405250810190610be49190615e5b565b15610d7f57600380546001600160a01b03166000908152601060205260408120918201546002830154600954601154610c20939291908a6140d8565b9050610c30826003015482614042565b6003830155610c40866000613e99565b600c54604080518481524260208201529296506001600160a01b0386811693620100009093041691600080516020615fcb833981519152910160405180910390a3600c54610c9d906201000090046001600160a01b03168761409f565b610caa610b0c8786614042565b600254610cc0906001600160a01b0316856140b5565b600c54610cde9084906201000090046001600160a01b0316836140bf565b6012546003546040516307b01ab360e41b81526001600160a01b03918216600482015285821660248201526044810184905260648101899052911690637b01ab3090608401600060405180830381600087803b158015610d3d57600080fd5b505af1158015610d51573d6000803e3d6000fd5b50505050600080516020615feb83398151915286604051610d7491815260200190565b60405180910390a150505b505050600c805461ff00191690559392505050565b6060600a8054610da390615e78565b80601f0160208091040260200160405190810160405280929190818152602001828054610dcf90615e78565b8015610e1c5780601f10610df157610100808354040283529160200191610e1c565b820191906000526020600020905b815481529060010190602001808311610dff57829003601f168201915b5050505050905090565b600c54600090610100900460ff1615610e515760405162461bcd60e51b815260040161092f90615cee565b6001600160a01b03841660009081526010602052604090205460ff16610e895760405162461bcd60e51b815260040161092f90615d3e565b6001600160a01b03831660009081526010602052604090205460ff16610ec15760405162461bcd60e51b815260040161092f90615d3e565b6001600160a01b03808516600090815260106020526040808220928616825290206003808301546002808501549284015490840154610f02939190886141a2565b925050505b9392505050565b3360008181526008602090815260408083206001600160a01b0387168085529252808320859055519192909160008051602061604b83398151915290610f579086815260200190565b60405180910390a35060015b92915050565b610f7c670de0b6b3a76400006032615eb3565b81565b600c54610100900460ff1615610fa75760405162461bcd60e51b815260040161092f90615cee565b600c805461010061ff001990911617908190556201000090046001600160a01b031633146110105760405162461bcd60e51b815260206004820152601660248201527522a9292fa4a72b20a624a22fa1a7a72a2927a62622a960511b604482015260640161092f565b6003546001600160a01b0387811691161461106d5760405162461bcd60e51b815260206004820152601d60248201527f4552525f494e56414c49445f44415441544f4b454e5f41444452455353000000604482015260640161092f565b6004546001600160a01b038481169116146110ca5760405162461bcd60e51b815260206004820152601d60248201527f4552525f494e56414c49445f42415345544f4b454e5f41444452455353000000604482015260640161092f565b6110d586868661422e565b604080518681524260208201526001600160a01b03881691339160008051602061602b833981519152910160405180910390a361111383838361422e565b604080518381524260208201526001600160a01b03851691339160008051602061602b833981519152910160405180910390a361114e614418565b6040805183815260208101839052908101869052606081018590526001600160a01b03808816919085169033907fbece8b4dcdbe446dd65a9288154698e067e3e91de17a1a408c2f531b9f845d739060800160405180910390a45050600c805461ff001916905550505050565b610f7c6402540be400670de0b6b3a7640000615d91565b6000336001600160a01b038516148061120e57506001600160a01b03841660009081526008602090815260408083203384529091529020548211155b6112525760405162461bcd60e51b815260206004820152601560248201527422a9292fa12a27a5a2a72fa120a22fa1a0a62622a960591b604482015260640161092f565b61125d848484614477565b336001600160a01b0385161480159061129b57506001600160a01b038416600090815260086020908152604080832033845290915290205460001914155b1561131c576001600160a01b03841660009081526008602090815260408083203384529091529020546112ce9083614042565b6001600160a01b03858116600090815260086020908152604080832033808552908352928190208590555193845291861692909160008051602061604b833981519152910160405180910390a35b5060019392505050565b6001600160a01b03841660009081526010602052604081205460ff1661135e5760405162461bcd60e51b815260040161092f90615d3e565b6001600160a01b03841660009081526010602052604090205460ff166113965760405162461bcd60e51b815260040161092f90615d3e565b6001600160a01b038086166000908152601060205260408082209287168252902060038083015460028085015492840154908401546113d89391908989614589565b979650505050505050565b600e54600160a01b900460ff16156114305760405162461bcd60e51b815260206004820152601060248201526f11549497d254d7d1925390531256915160821b604482015260640161092f565b600c546201000090046001600160a01b031633146114855760405162461bcd60e51b815260206004820152601260248201527122a9292fa727aa2fa1a7a72a2927a62622a960711b604482015260640161092f565b61149a620f4240670de0b6b3a7640000615d91565b8110156114d75760405162461bcd60e51b815260206004820152600b60248201526a4552525f4d494e5f46454560a81b604482015260640161092f565b6114ea600a670de0b6b3a7640000615d91565b8111156115275760405162461bcd60e51b815260206004820152600b60248201526a4552525f4d41585f46454560a81b604482015260640161092f565b600181905560408051338152602081018390527fbca0d601c32979eebac4e8cd06375b6e45d39af80fc06a33f366425b450dfb6991015b60405180910390a150565b6001600160a01b03821660009081526010602090815260408083208151608081018352815460ff1615158152600182015493810193909352600281015491830182905260030154606083018190526009546011546115c99391908761463b565b949350505050565b6001600160a01b03821660009081526010602090815260408083208151608081018352815460ff1615158152600182015493810193909352600281015491830182905260030154606083018190526009546011546115c9939190876140d8565b600c54600090610100900460ff161561165c5760405162461bcd60e51b815260040161092f90615cee565b600c805461ff001916610100179055600e54600160a01b900460ff166116945760405162461bcd60e51b815260040161092f90615d13565b6001600160a01b03841660009081526010602052604090205460ff166116cc5760405162461bcd60e51b815260040161092f90615d3e565b6001600160a01b03841660009081526010602052604090206003810154600282015460095460115461170193929190886140d8565b9150828210156117235760405162461bcd60e51b815260040161092f90615ed2565b6001600160a01b0385166000908152601060205260409020600390810154611757916109dc90670de0b6b3a7640000615d91565b8211156117765760405162461bcd60e51b815260040161092f90615dbd565b611784816003015483614042565b600382015560006117958582613e99565b604080518581524260208201529192506001600160a01b038816913391600080516020615fcb833981519152910160405180910390a360405185815260008051602061600b8339815191529060200160405180910390a16117f6338661409f565b611803610b0c8683614042565b600254611819906001600160a01b0316826140b5565b6118248633856140bf565b6003546000906001600160a01b038881169116141561184f57506004546001600160a01b031661185d565b506003546001600160a01b03165b60125460035460405163efd4810360e01b81526001600160a01b039283169263efd48103926118959291169085908b90600401615e37565b602060405180830381865afa1580156118b2573d6000803e3d6000fd5b505050506040513d601f19601f820116820180604052508101906118d69190615e5b565b15610d7f57600380546001600160a01b03166000908152601060205260408120918201546002830154600954601154611912939291908c6140d8565b9050611922826003015482614042565b6003830155611932886000613e99565b600c54604080518481524260208201529296506001600160a01b0386811693620100009093041691600080516020615fcb833981519152910160405180910390a3600c5461198f906201000090046001600160a01b03168961409f565b61199c610b0c8986614042565b6002546119b2906001600160a01b0316856140b5565b600c546119d09084906201000090046001600160a01b0316836140bf565b6012546003546040516307b01ab360e41b81526001600160a01b039182166004820152858216602482015260448101849052606481018b9052911690637b01ab3090608401600060405180830381600087803b158015611a2f57600080fd5b505af1158015611a43573d6000803e3d6000fd5b50505050600080516020615feb83398151915288604051610d7491815260200190565b600c54610100900460ff1615611a8e5760405162461bcd60e51b815260040161092f90615cee565b600c805461ff001916610100179055600e54600160a01b900460ff16611ac65760405162461bcd60e51b815260040161092f90615d13565b6000611ad160095490565b90506000611adf85836146bf565b905080611afe5760405162461bcd60e51b815260040161092f90615de8565b60005b600f54811015611c46576000600f8281548110611b2057611b20615ef9565b60009182526020808320909101546001600160a01b03168083526010909152604082206003015490925090611b558583613e99565b905080611b745760405162461bcd60e51b815260040161092f90615de8565b878785818110611b8657611b86615ef9565b90506020020135811115611bac5760405162461bcd60e51b815260040161092f90615e11565b6001600160a01b038316600090815260106020526040902060030154611bd290826147d7565b6001600160a01b03841660008181526010602052604090819020600301929092559051339060008051602061602b83398151915290611c1d9085904290918252602082015260400190565b60405180910390a3611c30833383614829565b5050508080611c3e90615f0f565b915050611b01565b50611c508561483e565b611c5a33866140b5565b60405185815260008051602061600b8339815191529060200160405180910390a15050600c805461ff0019169055505050565b600c54600090610100900460ff1615611cb85760405162461bcd60e51b815260040161092f90615cee565b600c805461ff001916610100179055600e54600160a01b900460ff16611cf05760405162461bcd60e51b815260040161092f90615d13565b6001600160a01b03841660009081526010602052604090205460ff16611d285760405162461bcd60e51b815260040161092f90615d3e565b6001600160a01b038416600090815260106020526040902060030154611d5b906109e76002670de0b6b3a7640000615d91565b831115611d7a5760405162461bcd60e51b815260040161092f90615f2a565b6001600160a01b038416600090815260106020526040902060038101546002820154600954601154611daf939291908861463b565b915082821015611dd15760405162461bcd60e51b815260040161092f90615ed2565b611ddf8160030154856147d7565b6003820155604080518581524260208201526001600160a01b03871691339160008051602061602b833981519152910160405180910390a360405182815260008051602061600b8339815191529060200160405180910390a1611e418261483e565b611e4b33836140b5565b611e56853386614829565b600380546001600160a01b031660009081526010602052604081209182015460028301546009546011548493611e90939092909189614847565b6003549091506001600160a01b0389811691161415611ebc576004546001600160a01b03169150611ecb565b6003546001600160a01b031691505b6012546003546040516326b1f01f60e01b81526001600160a01b03928316926326b1f01f92611f039291169086908690600401615e37565b602060405180830381865afa158015611f20573d6000803e3d6000fd5b505050506040513d601f19601f82011682018060405250810190611f449190615e5b565b15612067576012546003546040516399039fcf60e01b81526001600160a01b03928316926399039fcf92611f819291169086908690600401615e37565b600060405180830381600087803b158015611f9b57600080fd5b505af1158015611faf573d6000803e3d6000fd5b50505050611fc18360030154826147d7565b6003840155600c54604080518381524260208201526001600160a01b0385811693620100009004169160008051602061602b833981519152910160405180910390a3604051858152600080516020615feb8339815191529060200160405180910390a161202d8561483e565b600c54612049906201000090046001600160a01b0316866140b5565b600c546120679083906201000090046001600160a01b031683614829565b50505050600c805461ff00191690559392505050565b3360009081526008602090815260408083206001600160a01b0386168452909152812054808311156120d2573360009081526008602090815260408083206001600160a01b0388168452909152812055612101565b6120dc8184614042565b3360009081526008602090815260408083206001600160a01b03891684529091529020555b3360008181526008602090815260408083206001600160a01b0389168085529083529281902054905190815291929160008051602061604b833981519152910160405180910390a35060019392505050565b600c54600090610100900460ff161561217e5760405162461bcd60e51b815260040161092f90615cee565b600c805461ff001916610100179055600e54600160a01b900460ff166121b65760405162461bcd60e51b815260040161092f90615d13565b6001600160a01b03841660009081526010602052604090205460ff166121ee5760405162461bcd60e51b815260040161092f90615d3e565b6001600160a01b0384166000908152601060205260409020600381015460028201546009546011546122239392919088614847565b9150816122425760405162461bcd60e51b815260040161092f90615de8565b828211156122625760405162461bcd60e51b815260040161092f90615e11565b6001600160a01b038516600090815260106020526040902060030154612295906109e76002670de0b6b3a7640000615d91565b8211156122b45760405162461bcd60e51b815260040161092f90615f2a565b6122c28160030154836147d7565b6003820155604080518381524260208201526001600160a01b03871691339160008051602061602b833981519152910160405180910390a360405184815260008051602061600b8339815191529060200160405180910390a16123248461483e565b61232e33856140b5565b612339853384614829565b600380546001600160a01b03166000908152601060205260408120918201546002830154600954601154612370939291908a614847565b6003549091506000906001600160a01b038981169116141561239e57506004546001600160a01b03166123ac565b506003546001600160a01b03165b6012546003546040516326b1f01f60e01b81526001600160a01b03928316926326b1f01f926123e49291169085908790600401615e37565b602060405180830381865afa158015612401573d6000803e3d6000fd5b505050506040513d601f19601f820116820180604052508101906124259190615e5b565b15612067576012546003546040516399039fcf60e01b81526001600160a01b03928316926399039fcf926124629291169085908790600401615e37565b600060405180830381600087803b15801561247c57600080fd5b505af1158015612490573d6000803e3d6000fd5b505050506124a28360030154836147d7565b6003840155600c54604080518481524260208201526001600160a01b0384811693620100009004169160008051602061602b833981519152910160405180910390a36124ed8761483e565b600c54612509906201000090046001600160a01b0316886140b5565b600c546125279082906201000090046001600160a01b031684614829565b604051878152600080516020615feb8339815191529060200160405180910390a150505050600c805461ff00191690559392505050565b60025460048054604051637c0aa57760e11b81526001600160a01b0391821692810192909252600092169063f8154aee90602401602060405180830381865afa1580156125af573d6000803e3d6000fd5b505050506040513d601f19601f820116820180604052508101906125d39190615f54565b905090565b600d546001600160a01b0316331461262a5760405162461bcd60e51b815260206004820152601560248201527427a7262c9026a0a925a2aa1021a7a62622a1aa27a960591b604482015260640161092f565b6001600160a01b0381166126805760405162461bcd60e51b815260206004820152601d60248201527f496e76616c6964205f6e6577436f6c6c6563746f722061646472657373000000604482015260640161092f565b600d80546001600160a01b0319166001600160a01b0383169081179091556040805133815260208101929092527f82aaf1a11850bc9b5eb1b7db8b4ad08629911d970a4d7539875938c4017e59b8910161155e565b610f7c620f4240670de0b6b3a7640000615d91565b60006126f4612c60565b905060005b81518110156128785760006006600084848151811061271a5761271a615ef9565b60200260200101516001600160a01b03166001600160a01b0316815260200190815260200160002054905060006006600085858151811061275d5761275d615ef9565b60200260200101516001600160a01b03166001600160a01b03168152602001908152602001600020819055506127d5600d60009054906101000a90046001600160a01b0316828585815181106127b5576127b5615ef9565b60200260200101516001600160a01b03166148e19092919063ffffffff16565b7f6b98b886762529d8027f347356f9ec147e1735888054ace831c0e3de7983ab3d33600d60009054906101000a90046001600160a01b031685858151811061281f5761281f615ef9565b60200260200101518460405161285d94939291906001600160a01b039485168152928416602084015292166040820152606081019190915260800190565b60405180910390a1508061287081615f0f565b9150506126f9565b5050565b610f7c64e8d4a51000670de0b6b3a7640000615d91565b600c54600090610100900460ff16156128be5760405162461bcd60e51b815260040161092f90615cee565b5060115490565b610f7c670de0b6b3a76400006064615eb3565b600c54600090610100900460ff16156129035760405162461bcd60e51b815260040161092f90615cee565b61290c82614944565b506001600160a01b0381166000908152601060205260409020600201545b919050565b6060600b8054610da390615e78565b6129516003670de0b6b3a7640000615d91565b610f7c906001615da5565b6001600160a01b03821660009081526010602090815260408083208151608081018352815460ff1615158152600182015493810193909352600281015491830182905260030154606083018190526009546011546115c993919087613f7e565b60006129c9338484614477565b50600192915050565b600c54610100900460ff16156129fa5760405162461bcd60e51b815260040161092f90615cee565b600c805461ff001916610100179055600e54600160a01b900460ff16612a325760405162461bcd60e51b815260040161092f90615d13565b6000612a3d60095490565b90506000612a4c856000613e99565b90506000612a5a8683614042565b90506000612a6882856146bf565b905080612a875760405162461bcd60e51b815260040161092f90615de8565b612a91338861409f565b600254612aa7906001600160a01b0316846140b5565b612ab0826140a9565b60005b600f54811015612bf8576000600f8281548110612ad257612ad2615ef9565b60009182526020808320909101546001600160a01b03168083526010909152604082206003015490925090612b078583613e99565b905080612b265760405162461bcd60e51b815260040161092f90615de8565b898985818110612b3857612b38615ef9565b90506020020135811015612b5e5760405162461bcd60e51b815260040161092f90615ed2565b6001600160a01b038316600090815260106020526040902060030154612b849082614042565b6001600160a01b038416600081815260106020526040908190206003019290925590513390600080516020615fcb83398151915290612bcf9085904290918252602082015260400190565b60405180910390a3612be28333836140bf565b5050508080612bf090615f0f565b915050612ab3565b5060405187815260008051602061600b8339815191529060200160405180910390a15050600c805461ff00191690555050505050565b610f7c600a670de0b6b3a7640000615d91565b6001612c56670de0b6b3a76400006002615eb3565b610f7c9190615f6d565b600c54606090610100900460ff1615612c8b5760405162461bcd60e51b815260040161092f90615cee565b600e54600160a01b900460ff16612cb45760405162461bcd60e51b815260040161092f90615d13565b600f805480602002602001604051908101604052809291908181526020018280548015610e1c57602002820191906000526020600020905b81546001600160a01b03168152600190910190602001808311612cec575050505050905090565b601254600090600160a01b900460ff1615612d705760405162461bcd60e51b815260206004820152601760248201527f4552525f414c52454144595f494e495449414c495a4544000000000000000000604482015260640161092f565b6001600160a01b038916612dc65760405162461bcd60e51b815260206004820152601e60248201527f4552525f494e56414c49445f434f4e54524f4c4c45525f414444524553530000604482015260640161092f565b6001600160a01b038816612e1c5760405162461bcd60e51b815260206004820152601b60248201527f4552525f494e56414c49445f464143544f52595f414444524553530000000000604482015260640161092f565b612e31620f4240670de0b6b3a7640000615d91565b87876000818110612e4457612e44615ef9565b905060200201351015612e875760405162461bcd60e51b815260206004820152600b60248201526a4552525f4d494e5f46454560a81b604482015260640161092f565b612e9a600a670de0b6b3a7640000615d91565b87876000818110612ead57612ead615ef9565b905060200201351115612ef05760405162461bcd60e51b815260206004820152600b60248201526a4552525f4d41585f46454560a81b604482015260640161092f565b612f768989898980806020026020016040519081016040528093929190818152602001838360200280828437600092019190915250506040805180820182528c93508b9250908a9060029083908390808284376000920191909152505060408051808201825291508a90600290839083908082843760009201919091525061497c915050565b9998505050505050505050565b600c546000908190610100900460ff1615612fb05760405162461bcd60e51b815260040161092f90615cee565b600c805461ff001916610100179055600e54600160a01b900460ff16612fe85760405162461bcd60e51b815260040161092f90615d13565b6130078460005b6020020160208101906130029190615a3a565b614944565b613012846001612fef565b60006010816130246020880188615a3a565b6001600160a01b0316815260208101919091526040016000908120915060108187600160200201602081019061305a9190615a3a565b6001600160a01b03166001600160a01b03168152602001908152602001600020905061309982600301546002670de0b6b3a76400006109e79190615d91565b853511156130b95760405162461bcd60e51b815260040161092f90615f2a565b60006130ef83600301548460020154846003015485600201548a6003600481106130e5576130e5615ef9565b60200201356141a2565b9050604086013581111561313b5760405162461bcd60e51b81526020600482015260136024820152724552525f4241445f4c494d49545f505249434560681b604482015260640161092f565b60408051608081018252600385810154825260028087015460208085019190915291860154938301939093529184015460608201526000916131929082908a3590613188908d018d615a3a565b60608c0135614aba565b909750915060208801358710156131bb5760405162461bcd60e51b815260040161092f90615ed2565b6131c98560030154836147d7565b85600301819055506131df846003015488614042565b846003018190555061321185600301548660020154866003015487600201548c6003600481106130e5576130e5615ef9565b9550828610156132335760405162461bcd60e51b815260040161092f90615de8565b60408801358611156132795760405162461bcd60e51b815260206004820152600f60248201526e4552525f4c494d49545f505249434560881b604482015260640161092f565b6132848835886146bf565b8311156132a35760405162461bcd60e51b815260040161092f90615de8565b6132b360408a0160208b01615a3a565b6001600160a01b03166132c960208b018b615a3a565b604080518b358152602081018b9052428183015290516001600160a01b03929092169133917f50ef2fc267012b5c84b56835f16ffd5331ac5a151a3760d74908721ba78b0efe919081900360600190a461333161332960208b018b615a3a565b338a35614829565b6060880135156133935761339361334e60608b0160408c01615a3a565b6133768a35613371816109e7670de0b6b3a76400008f60035b6020020135614042565b614042565b61338360208d018d615a3a565b6001600160a01b031691906148e1565b6133ad6133a660408b0160208c01615a3a565b33896140bf565b5050505050600c805461ff001916905590939092509050565b60608060006133d3612c60565b90506000815167ffffffffffffffff8111156133f1576133f1615f84565b60405190808252806020026020018201604052801561341a578160200160208202803683370190505b5090506000825167ffffffffffffffff81111561343957613439615f84565b604051908082528060200260200182016040528015613462578160200160208202803683370190505b50905060005b835181101561352b5783818151811061348357613483615ef9565b602002602001015183828151811061349d5761349d615ef9565b60200260200101906001600160a01b031690816001600160a01b031681525050600660008583815181106134d3576134d3615ef9565b60200260200101516001600160a01b03166001600160a01b031681526020019081526020016000205482828151811061350e5761350e615ef9565b60209081029190910101528061352381615f0f565b915050613468565b509094909350915050565b6060806000613543612c60565b90506000815167ffffffffffffffff81111561356157613561615f84565b60405190808252806020026020018201604052801561358a578160200160208202803683370190505b5090506000825167ffffffffffffffff8111156135a9576135a9615f84565b6040519080825280602002602001820160405280156135d2578160200160208202803683370190505b50905060005b835181101561352b578381815181106135f3576135f3615ef9565b602002602001015183828151811061360d5761360d615ef9565b60200260200101906001600160a01b031690816001600160a01b0316815250506005600085838151811061364357613643615ef9565b60200260200101516001600160a01b03166001600160a01b031681526020019081526020016000205482828151811061367e5761367e615ef9565b60209081029190910101528061369381615f0f565b9150506135d8565b600c546000908190610100900460ff16156136c85760405162461bcd60e51b815260040161092f90615cee565b600c805461ff001916610100179055600e54600160a01b900460ff166137005760405162461bcd60e51b815260040161092f90615d13565b61372b6040518060400160405280600a815260200169756e74696c206865726560b01b815250614cd2565b613736846000612fef565b613741846001612fef565b60006010816137536020880188615a3a565b6001600160a01b031681526020810191909152604001600090812091506010818760016020020160208101906137899190615a3a565b6001600160a01b03166001600160a01b0316815260200190815260200160002090506137c881600301546003670de0b6b3a76400006109dc9190615d91565b602086013511156137eb5760405162461bcd60e51b815260040161092f90615dbd565b600061381783600301548460020154846003015485600201548a6003600481106130e5576130e5615ef9565b905060408601358111156138635760405162461bcd60e51b81526020600482015260136024820152724552525f4241445f4c494d49545f505249434560681b604482015260640161092f565b60408051608081018252600385810154825260028087015460208085019190915291860154938301939093529184015460608201526000916138bc9082908a810135906138b2908d018d615a3a565b60608c0135614d15565b909750915087358711156138e25760405162461bcd60e51b815260040161092f90615e11565b6138f08560030154836147d7565b60038087019190915584015461390890896001613367565b846003018190555061393a85600301548660020154866003015487600201548c6003600481106130e5576130e5615ef9565b95508286101561395c5760405162461bcd60e51b815260040161092f90615de8565b60408801358611156139a25760405162461bcd60e51b815260206004820152600f60248201526e4552525f4c494d49545f505249434560881b604482015260640161092f565b6139b08760208a01356146bf565b8311156139cf5760405162461bcd60e51b815260040161092f90615de8565b6139df60408a0160208b01615a3a565b6001600160a01b03166139f560208b018b615a3a565b6001600160a01b0316337f50ef2fc267012b5c84b56835f16ffd5331ac5a151a3760d74908721ba78b0efe8a8c6001604080519384526020918202929092013590830152429082015260600160405180910390a4613a60613a5960208b018b615a3a565b3389614829565b606088013515613a9957613a99613a7d60608b0160408c01615a3a565b61337689613371816109e7670de0b6b3a76400008f6003613367565b6133ad613aac60408b0160208c01615a3a565b3360208b01356140bf565b6001600160a01b03841660009081526010602052604081205460ff16613aef5760405162461bcd60e51b815260040161092f90615d3e565b6001600160a01b03841660009081526010602052604090205460ff16613b275760405162461bcd60e51b815260040161092f90615d3e565b6001600160a01b038086166000908152601060205260408082209287168252902060038083015460028085015492840154908401546113d89391908989614f39565b600c54606090610100900460ff1615612cb45760405162461bcd60e51b815260040161092f90615cee565b3360009081526008602090815260408083206001600160a01b0386168452909152812054613bc290836147d7565b3360008181526008602090815260408083206001600160a01b0389168085529083529281902085905551938452909260008051602061604b8339815191529101610f57565b610f7c6002670de0b6b3a7640000615d91565b600c54600090610100900460ff1615613c455760405162461bcd60e51b815260040161092f90615cee565b613c4e82614944565b6001600160a01b038216600090815260106020526040902060020154601154610f079082906146bf565b6000613c82612c60565b905060005b815181101561287857600060056000848481518110613ca857613ca8615ef9565b60200260200101516001600160a01b03166001600160a01b03168152602001908152602001600020549050600060056000858581518110613ceb57613ceb615ef9565b60200260200101516001600160a01b03166001600160a01b0316815260200190815260200160002081905550613d43600e60009054906101000a90046001600160a01b0316828585815181106127b5576127b5615ef9565b7fe8e83bbe0f2a413d8e79dcb9ef4143cd967143e9d6b93c91d002c7eefdc507cc33600e60009054906101000a90046001600160a01b0316858581518110613d8d57613d8d615ef9565b602002602001015184604051613dcb94939291906001600160a01b039485168152928416602084015292166040820152606081019190915260800190565b60405180910390a15080613dde81615f0f565b915050613c87565b600c54600090610100900460ff1615613e115760405162461bcd60e51b815260040161092f90615cee565b613e1a82614944565b506001600160a01b031660009081526010602052604090206003015490565b6001600160a01b03821660009081526010602090815260408083208151608081018352815460ff1615158152600182015493810193909352600281015491830182905260030154606083018190526009546011546115c993919087614847565b600080613ea68385615eb3565b9050831580613ebd575082613ebb8583615d91565b145b613efc5760405162461bcd60e51b815260206004820152601060248201526f4552525f4d554c5f4f564552464c4f5760801b604482015260640161092f565b6000613f116002670de0b6b3a7640000615d91565b613f1b9083615da5565b905081811015613f605760405162461bcd60e51b815260206004820152601060248201526f4552525f4d554c5f4f564552464c4f5760801b604482015260640161092f565b6000613f74670de0b6b3a764000083615d91565b9695505050505050565b600080613f8b86856146bf565b90506000613fa1670de0b6b3a764000083614042565b90506000613fb182600154613e99565b90506000613fd086613fcb670de0b6b3a764000085614042565b6146bf565b90506000613fde8b83614042565b90506000613fec828d6146bf565b90506000613ffa8288614fed565b90506000614008828d613e99565b905060006140168d83614042565b905061402f81613fcb670de0b6b3a76400006000614042565b9f9e505050505050505050505050505050565b6000806000614051858561510e565b9150915080156140975760405162461bcd60e51b81526020600482015260116024820152704552525f5355425f554e444552464c4f5760781b604482015260640161092f565b509392505050565b6128788282615145565b6140b281615150565b50565b612878828261521c565b6140d36001600160a01b03841683836148e1565b505050565b6000806140e586856146bf565b90506000614100846109e7670de0b6b3a76400006000614042565b9050600061410e8783614042565b9050600061411c82896146bf565b9050600061413b82614136670de0b6b3a7640000886146bf565b614fed565b90506000614149828d613e99565b905060006141578d83614042565b90506000614178614170670de0b6b3a76400008a614042565b600154613e99565b9050614190826109e7670de0b6b3a764000084614042565b9e9d5050505050505050505050505050565b6000806141af87876146bf565b905060006141bd86866146bf565b905060006141cb83836146bf565b90506000614214670de0b6b3a7640000613fcb670de0b6b3a7640000896000546141f361255e565b6001546142009190615da5565b61420a9190615da5565b6133719190615da5565b90506142208282613e99565b9a9950505050505050505050565b600c546201000090046001600160a01b031633146142835760405162461bcd60e51b815260206004820152601260248201527122a9292fa727aa2fa1a7a72a2927a62622a960711b604482015260640161092f565b6001600160a01b03831660009081526010602052604090205460ff16156142db5760405162461bcd60e51b815260206004820152600c60248201526b11549497d254d7d093d5539160a21b604482015260640161092f565b600e54600160a01b900460ff16156143285760405162461bcd60e51b815260206004820152601060248201526f11549497d254d7d1925390531256915160821b604482015260640161092f565b600f5460021161436b5760405162461bcd60e51b815260206004820152600e60248201526d4552525f4d41585f544f4b454e5360901b604482015260640161092f565b604080516080810182526001808252600f805460208085019182526000858701818152606087018281526001600160a01b038c1680845260109094529782209651875460ff1916901515178755925186860155915160028601559451600390940193909355805491820181559091527f8d1108e10bcb7c27dddfc02ed9d693a074039d026cf4ea4240b40f7d581ac8020180546001600160a01b03191690911790556140d3838383615227565b600e805460ff60a01b1916600160a01b179055600c805460ff60b01b1916600160b01b179055614459614454670de0b6b3a76400006064615eb3565b61483e565b61447533614470670de0b6b3a76400006064615eb3565b6140b5565b565b6001600160a01b0383166000908152600760205260409020548111156144d65760405162461bcd60e51b815260206004820152601460248201527311549497d25394d551919250d251539517d0905360621b604482015260640161092f565b6001600160a01b0383166000908152600760205260409020546144f99082614042565b6001600160a01b03808516600090815260076020526040808220939093559084168152205461452890826147d7565b6001600160a01b0380841660008181526007602052604090819020939093559151908516907fddf252ad1be2c89b69c2b068fc378daa952ba7f163c4a11628f55a4df523b3ef9061457c9085815260200190565b60405180910390a3505050565b60008061459687866146bf565b905060008054846145a561255e565b6001546145b29190615da5565b6145bc9190615da5565b6145c69190615da5565b905060006145dc670de0b6b3a764000083614042565b90506145e88682613e99565b905060006145fa8b613fcb8d856147d7565b905060006146088286614fed565b9050600061461e670de0b6b3a764000083614042565b905061462a8b82613e99565b9d9c50505050505050505050505050565b60008061464886856146bf565b90506000614661614170670de0b6b3a764000084614042565b9050600061467b856109e7670de0b6b3a764000085614042565b905060006146898a836147d7565b90506000614697828c6146bf565b905060006146a58287614fed565b905060006146b3828c613e99565b905061462a818c614042565b6000816146fd5760405162461bcd60e51b815260206004820152600c60248201526b4552525f4449565f5a45524f60a01b604482015260640161092f565b6000614711670de0b6b3a764000085615eb3565b90508315806147305750670de0b6b3a764000061472e8583615d91565b145b61476f5760405162461bcd60e51b815260206004820152601060248201526f11549497d1125597d25395115493905360821b604482015260640161092f565b600061477c600285615d91565b6147869083615da5565b9050818110156147cb5760405162461bcd60e51b815260206004820152601060248201526f11549497d1125597d25395115493905360821b604482015260640161092f565b6000613f748583615d91565b6000806147e48385615da5565b905083811015610f075760405162461bcd60e51b815260206004820152601060248201526f4552525f4144445f4f564552464c4f5760801b604482015260640161092f565b6140d36001600160a01b038416833084615477565b6140b28161549e565b60008061485486856146bf565b9050600061486286856147d7565b9050600061487082886146bf565b90506000614886670de0b6b3a7640000856146bf565b905060006148948383614fed565b905060006148a2828d613e99565b905060006148b0828e614042565b905060006148c9614170670de0b6b3a76400008a614042565b905061419082613fcb670de0b6b3a764000084614042565b6040516001600160a01b0383166024820152604481018290526140d390849063a9059cbb60e01b906064015b60408051601f198184030181529190526020810180516001600160e01b03166001600160e01b03199093169290921790915261550d565b6001600160a01b03811660009081526010602052604090205460ff166140b25760405162461bcd60e51b815260040161092f90615d3e565b600c805462010000600160b01b031916620100006001600160a01b038a81169190910291909117909155600280546001600160a01b0319169188169190911790558451600090869082906149d2576149d2615ef9565b6020026020010151600181905550856001815181106149f3576149f3615ef9565b602090810291909101810151600055600c8054961515600160b01b0260ff60b01b199097169690961795869055600e80548551600380546001600160a01b039283166001600160a01b03199182161790915596840151600480549183169189169190911790558551600d805491831691891691909117905594909201518416951515600160a01b908102959095166001600160a81b0319928316179590951790945550601280549093166201000090940416929092178217908190550460ff169392505050565b60008080614ad787600160200201518860035b60200201516146bf565b90506000614af787613371896109e7670de0b6b3a764000061337161255e565b6001600160a01b038716600090815260056020526040902054909150614b1d90826147d7565b60056000886001600160a01b03166001600160a01b03168152602001908152602001600020819055506000614b64886133718a6109e7670de0b6b3a7640000600054614042565b6001600160a01b038816600090815260066020526040902054909150614b8a90826147d7565b6001600160a01b03881660009081526006602052604081209190915580548790614bb261255e565b600154614bbf9190615da5565b614bc99190615da5565b614bd39190615da5565b90507f90d9f1d0641138b6407ac37bea3a905d63a371c2d91a484f68d59924634d4ef3614c128a6133718c6109e7670de0b6b3a7640000600154614042565b604080519182526020820186905281018490526001600160a01b038a16606082015260800160405180910390a16000614c53670de0b6b3a764000083614042565b9050614c5f8a82613e99565b8b51909150600090614c7590613fcb81856147d7565b90506000614c838288614fed565b90506000614c99670de0b6b3a764000083614042565b9050614cac8e6002602002015182613e99565b995089614cbd8e613371898b615da5565b99509950505050505050505094509492505050565b6140b281604051602401614ce69190615907565b60408051601f198184030181529190526020810180516001600160e01b031663104c13eb60e21b1790526155df565b60008080614d2c8760036020020151886001614acd565b90506000614d41886002602002015188614042565b90506000614d568960026020020151836146bf565b90506000614d648285614fed565b9050614d7881670de0b6b3a7640000614042565b90506000805488614d8761255e565b600154614d949190615da5565b614d9e9190615da5565b614da89190615da5565b8b51909150614dcd90614dbb9084613e99565b613fcb670de0b6b3a764000084614042565b96506000614ded886133718a6109e7670de0b6b3a764000061337161255e565b6001600160a01b038b16600090815260056020526040902054909150614e1390826147d7565b600560008c6001600160a01b03166001600160a01b03168152602001908152602001600020819055506000614e5a896133718b6109e7670de0b6b3a7640000600054614042565b6001600160a01b038c16600090815260066020526040902054909150614e8090826147d7565b6001600160a01b038c166000908152600660205260409020558c51614ebd90614ea99086613e99565b613fcb670de0b6b3a7640000600154614042565b97507f90d9f1d0641138b6407ac37bea3a905d63a371c2d91a484f68d59924634d4ef3614efc8a6133718c6109e7670de0b6b3a7640000600154614042565b604080519182526020820185905281018390526001600160a01b038d16606082015260800160405180910390a15050505050505094509492505050565b600080614f4685886146bf565b90506000614f548786614042565b90506000614f6288836146bf565b90506000614f708285614fed565b9050614f8481670de0b6b3a7640000614042565b90506000805487614f9361255e565b600154614fa09190615da5565b614faa9190615da5565b614fb49190615da5565b9050614fc8670de0b6b3a764000082614042565b9550614fdd614fd78d84613e99565b876146bf565b9c9b505050505050505050505050565b600060018310156150385760405162461bcd60e51b81526020600482015260156024820152744552525f42504f575f424153455f544f4f5f4c4f5760581b604482015260640161092f565b600161504d670de0b6b3a76400006002615eb3565b6150579190615f6d565b83111561509f5760405162461bcd60e51b815260206004820152601660248201527508aa4a4be84a09eaebe8482a68abea89e9ebe90928e960531b604482015260640161092f565b60006150aa83615600565b905060006150b88483614042565b905060006150ce866150c98561561e565b615632565b9050816150df579250610f63915050565b600061510287846150fd6402540be400670de0b6b3a7640000615d91565b6156a6565b90506113d88282613e99565b60008082841061512d576151228385615f6d565b60009150915061513e565b6151378484615f6d565b6001915091505b9250929050565b612878823083614477565b306000908152600760205260409020548111156151a65760405162461bcd60e51b815260206004820152601460248201527311549497d25394d551919250d251539517d0905360621b604482015260640161092f565b306000908152600760205260409020546151c09082614042565b306000908152600760205260409020556009546151dd9082614042565b60095560405181815260009030907fddf252ad1be2c89b69c2b068fc378daa952ba7f163c4a11628f55a4df523b3ef906020015b60405180910390a350565b612878308383614477565b670de0b6b3a76400008110156152705760405162461bcd60e51b815260206004820152600e60248201526d11549497d3525397d5d15251d21560921b604482015260640161092f565b615283670de0b6b3a76400006032615eb3565b8111156152c35760405162461bcd60e51b815260206004820152600e60248201526d11549497d3505617d5d15251d21560921b604482015260640161092f565b6152da64e8d4a51000670de0b6b3a7640000615d91565b82101561531b5760405162461bcd60e51b815260206004820152600f60248201526e4552525f4d494e5f42414c414e434560881b604482015260640161092f565b6001600160a01b038316600090815260106020526040902060020154808211156153b75761535460115461534f8484614042565b6147d7565b60115561536a670de0b6b3a76400006032615eb3565b60115411156153b25760405162461bcd60e51b815260206004820152601460248201527311549497d3505617d513d5105317d5d15251d21560621b604482015260640161092f565b6153d3565b808210156153d3576153cf6011546133718385614042565b6011555b6001600160a01b0384166000908152601060205260409020600281018390556003018054908490558084111561541c5761541785336154128785614042565b614829565b615470565b808410156154705760006154308286614042565b9050600061543f826000613e99565b905061545587336154508585614042565b6140bf565b60025461546d9088906001600160a01b0316836140bf565b50505b5050505050565b615498846323b872dd60e01b85858560405160240161490d93929190615e37565b50505050565b306000908152600760205260409020546154b890826147d7565b306000908152600760205260409020556009546154d590826147d7565b60095560405181815230906000907fddf252ad1be2c89b69c2b068fc378daa952ba7f163c4a11628f55a4df523b3ef90602001615211565b6000615562826040518060400160405280602081526020017f5361666545524332303a206c6f772d6c6576656c2063616c6c206661696c6564815250856001600160a01b03166157969092919063ffffffff16565b8051909150156140d357808060200190518101906155809190615e5b565b6140d35760405162461bcd60e51b815260206004820152602a60248201527f5361666545524332303a204552433230206f7065726174696f6e20646964206e6044820152691bdd081cdd58d8d9595960b21b606482015260840161092f565b80516a636f6e736f6c652e6c6f67602083016000808483855afa5050505050565b6000670de0b6b3a76400006156148361561e565b610f639190615eb3565b6000610f63670de0b6b3a764000083615d91565b60008281615641600285615f9a565b61565357670de0b6b3a7640000615655565b815b9050615662600285615d91565b93505b83156115c9576156758283613e99565b9150615682600285615f9a565b15615694576156918183613e99565b90505b61569f600285615d91565b9350615665565b60008281806156bd87670de0b6b3a764000061510e565b9092509050670de0b6b3a764000080600060015b8884106157875760006156ec670de0b6b3a764000083615eb3565b905060008061570c8a61570785670de0b6b3a7640000614042565b61510e565b9150915061571e876109e7848c613e99565b965061572a87846146bf565b96508661573957505050615787565b8715615743579315935b801561574d579315935b84156157645761575d8688614042565b9550615771565b61576e86886147d7565b95505b505050808061577f90615f0f565b9150506156d1565b50909998505050505050505050565b60606115c9848460008585843b6157ef5760405162461bcd60e51b815260206004820152601d60248201527f416464726573733a2063616c6c20746f206e6f6e2d636f6e7472616374000000604482015260640161092f565b600080866001600160a01b0316858760405161580b9190615fae565b60006040518083038185875af1925050503d8060008114615848576040519150601f19603f3d011682016040523d82523d6000602084013e61584d565b606091505b50915091506113d882828660608315615867575081610f07565b8251156158775782518084602001fd5b8160405162461bcd60e51b815260040161092f9190615907565b80356001600160a01b038116811461292a57600080fd5b6000806000606084860312156158bd57600080fd5b6158c684615891565b95602085013595506040909401359392505050565b60005b838110156158f65781810151838201526020016158de565b838111156154985750506000910152565b60208152600082518060208401526159268160408501602087016158db565b601f01601f19169190910160400192915050565b60008060006060848603121561594f57600080fd5b61595884615891565b925061596660208501615891565b9150604084013590509250925092565b6000806040838503121561598957600080fd5b61599283615891565b946020939093013593505050565b60008060008060008060c087890312156159b957600080fd5b6159c287615891565b955060208701359450604087013593506159de60608801615891565b92506080870135915060a087013590509295509295509295565b60008060008060808587031215615a0e57600080fd5b615a1785615891565b9350615a2560208601615891565b93969395505050506040820135916060013590565b600060208284031215615a4c57600080fd5b610f0782615891565b600060208284031215615a6757600080fd5b5035919050565b60008083601f840112615a8057600080fd5b50813567ffffffffffffffff811115615a9857600080fd5b6020830191508360208260051b850101111561513e57600080fd5b600080600060408486031215615ac857600080fd5b83359250602084013567ffffffffffffffff811115615ae657600080fd5b615af286828701615a6e565b9497909650939450505050565b600081518084526020808501945080840160005b83811015615b385781516001600160a01b031687529582019590820190600101615b13565b509495945050505050565b602081526000610f076020830184615aff565b80151581146140b257600080fd5b8060408101831015610f6357600080fd5b600080600080600080600080610120898b031215615b9257600080fd5b615b9b89615891565b9750615ba960208a01615891565b9650604089013567ffffffffffffffff811115615bc557600080fd5b615bd18b828c01615a6e565b9097509550506060890135615be581615b56565b93506080890135615bf581615b56565b9250615c048a60a08b01615b64565b9150615c138a60e08b01615b64565b90509295985092959890939650565b60008060e08385031215615c3557600080fd5b6060830184811115615c4657600080fd5b8392508460e085011115615c5957600080fd5b809150509250929050565b604081526000615c776040830185615aff565b82810360208481019190915284518083528582019282019060005b81811015615cae57845183529383019391830191600101615c92565b5090979650505050505050565b60008060408385031215615cce57600080fd5b615cd783615891565b9150615ce560208401615891565b90509250929050565b6020808252600b908201526a4552525f5245454e54525960a81b604082015260600190565b60208082526011908201527011549497d393d517d19253905312569151607a1b604082015260600190565b6020808252600d908201526c11549497d393d517d093d55391609a1b604082015260600190565b634e487b7160e01b600052601260045260246000fd5b634e487b7160e01b600052601160045260246000fd5b600082615da057615da0615d65565b500490565b60008219821115615db857615db8615d7b565b500190565b6020808252601190820152704552525f4d41585f4f55545f524154494f60781b604082015260600190565b6020808252600f908201526e08aa4a4be9a82a890be82a0a0a49eb608b1b604082015260600190565b6020808252600c908201526b22a9292fa624a6a4aa2fa4a760a11b604082015260600190565b6001600160a01b039384168152919092166020820152604081019190915260600190565b600060208284031215615e6d57600080fd5b8151610f0781615b56565b600181811c90821680615e8c57607f821691505b60208210811415615ead57634e487b7160e01b600052602260045260246000fd5b50919050565b6000816000190483118215151615615ecd57615ecd615d7b565b500290565b6020808252600d908201526c11549497d31253525517d3d555609a1b604082015260600190565b634e487b7160e01b600052603260045260246000fd5b6000600019821415615f2357615f23615d7b565b5060010190565b60208082526010908201526f4552525f4d41585f494e5f524154494f60801b604082015260600190565b600060208284031215615f6657600080fd5b5051919050565b600082821015615f7f57615f7f615d7b565b500390565b634e487b7160e01b600052604160045260246000fd5b600082615fa957615fa9615d65565b500690565b60008251615fc08184602087016158db565b919091019291505056fe9d9058fd2f25ccc389fec7720abef0ca83472f5abfafd5f10d37f51e6a0493f387b3975661762d852ddf2eeaad6a43b2d93777de7b3b7bdb634283df32456118fcda32798d5a9d032f49b37fea876d422f18f6e386e0f07db6029b693624b2c215a8ca63e37b2cff1677df2b6b82d36fcf8a524228bd7a4b4d02d107c28c1e8a8c5be1e5ebec7d5bd14f71427d1e84f3dd0314c0f7b2291e5b200ac8c7c3b925a264697066735822122061fe6ba7f676eae71f653a17a2c0b20765222624e2bb324e43773d01bc0c04a064736f6c634300080a0033",
  "linkReferences": {},
  "deployedLinkReferences": {}
}