{
  "_format": "hh-sol-artifact-1",
  "contractName": "BPool",
  "sourceName": "contracts/pools/balancer/BPool.sol",
  "abi": [
    {
      "anonymous": false,
      "inputs": [
        {
          "indexed": true,
          "internalType": "address",
          "name": "src",
          "type": "address"
        },
        {
          "indexed": true,
          "internalType": "address",
          "name": "dst",
          "type": "address"
        },
        {
          "indexed": false,
          "internalType": "uint256",
          "name": "amt",
          "type": "uint256"
        }
      ],
      "name": "Approval",
      "type": "event"
    },
    {
      "anonymous": false,
      "inputs": [
        {
          "indexed": false,
          "internalType": "uint256",
          "name": "bptAmount",
          "type": "uint256"
        }
      ],
      "name": "LOG_BPT",
      "type": "event"
    },
    {
      "anonymous": false,
      "inputs": [
        {
          "indexed": false,
          "internalType": "uint256",
          "name": "bptAmount",
          "type": "uint256"
        }
      ],
      "name": "LOG_BPT_SS",
      "type": "event"
    },
    {
      "anonymous": false,
      "inputs": [
        {
          "indexed": true,
          "internalType": "bytes4",
          "name": "sig",
          "type": "bytes4"
        },
        {
          "indexed": true,
          "internalType": "address",
          "name": "caller",
          "type": "address"
        },
        {
          "indexed": false,
          "internalType": "uint256",
          "name": "timestamp",
          "type": "uint256"
        },
        {
          "indexed": false,
          "internalType": "bytes",
          "name": "data",
          "type": "bytes"
        }
      ],
      "name": "LOG_CALL",
      "type": "event"
    },
    {
      "anonymous": false,
      "inputs": [
        {
          "indexed": true,
          "internalType": "address",
          "name": "caller",
          "type": "address"
        },
        {
          "indexed": true,
          "internalType": "address",
          "name": "tokenOut",
          "type": "address"
        },
        {
          "indexed": false,
          "internalType": "uint256",
          "name": "tokenAmountOut",
          "type": "uint256"
        },
        {
          "indexed": false,
          "internalType": "uint256",
          "name": "timestamp",
          "type": "uint256"
        }
      ],
      "name": "LOG_EXIT",
      "type": "event"
    },
    {
      "anonymous": false,
      "inputs": [
        {
          "indexed": true,
          "internalType": "address",
          "name": "caller",
          "type": "address"
        },
        {
          "indexed": true,
          "internalType": "address",
          "name": "tokenIn",
          "type": "address"
        },
        {
          "indexed": false,
          "internalType": "uint256",
          "name": "tokenAmountIn",
          "type": "uint256"
        },
        {
          "indexed": false,
          "internalType": "uint256",
          "name": "timestamp",
          "type": "uint256"
        }
      ],
      "name": "LOG_JOIN",
      "type": "event"
    },
    {
      "anonymous": false,
      "inputs": [
        {
          "indexed": true,
          "internalType": "address",
          "name": "caller",
          "type": "address"
        },
        {
          "indexed": true,
          "internalType": "address",
          "name": "baseToken",
          "type": "address"
        },
        {
          "indexed": false,
          "internalType": "uint256",
          "name": "baseTokenAmountIn",
          "type": "uint256"
        },
        {
          "indexed": false,
          "internalType": "uint256",
          "name": "baseTokenWeight",
          "type": "uint256"
        },
        {
          "indexed": true,
          "internalType": "address",
          "name": "dataToken",
          "type": "address"
        },
        {
          "indexed": false,
          "internalType": "uint256",
          "name": "dataTokenAmountIn",
          "type": "uint256"
        },
        {
          "indexed": false,
          "internalType": "uint256",
          "name": "dataTokenWeight",
          "type": "uint256"
        }
      ],
      "name": "LOG_SETUP",
      "type": "event"
    },
    {
      "anonymous": false,
      "inputs": [
        {
          "indexed": true,
          "internalType": "address",
          "name": "caller",
          "type": "address"
        },
        {
          "indexed": true,
          "internalType": "address",
          "name": "tokenIn",
          "type": "address"
        },
        {
          "indexed": true,
          "internalType": "address",
          "name": "tokenOut",
          "type": "address"
        },
        {
          "indexed": false,
          "internalType": "uint256",
          "name": "tokenAmountIn",
          "type": "uint256"
        },
        {
          "indexed": false,
          "internalType": "uint256",
          "name": "tokenAmountOut",
          "type": "uint256"
        },
        {
          "indexed": false,
          "internalType": "uint256",
          "name": "timestamp",
          "type": "uint256"
        }
      ],
      "name": "LOG_SWAP",
      "type": "event"
    },
    {
      "anonymous": false,
      "inputs": [
        {
          "indexed": false,
          "internalType": "address",
          "name": "caller",
          "type": "address"
        },
        {
          "indexed": false,
          "internalType": "address",
          "name": "newMarketCollector",
          "type": "address"
        }
      ],
      "name": "MarketCollectorChanged",
      "type": "event"
    },
    {
      "anonymous": false,
      "inputs": [
        {
          "indexed": false,
          "internalType": "address",
          "name": "caller",
          "type": "address"
        },
        {
          "indexed": false,
          "internalType": "address",
          "name": "marketAddress",
          "type": "address"
        },
        {
          "indexed": false,
          "internalType": "address",
          "name": "token",
          "type": "address"
        },
        {
          "indexed": false,
          "internalType": "uint256",
          "name": "amount",
          "type": "uint256"
        }
      ],
      "name": "MarketFee",
      "type": "event"
    },
    {
      "anonymous": false,
      "inputs": [
        {
          "indexed": false,
          "internalType": "address",
          "name": "caller",
          "type": "address"
        },
        {
          "indexed": false,
          "internalType": "address",
          "name": "OPFWallet",
          "type": "address"
        },
        {
          "indexed": false,
          "internalType": "address",
          "name": "token",
          "type": "address"
        },
        {
          "indexed": false,
          "internalType": "uint256",
          "name": "amount",
          "type": "uint256"
        }
      ],
      "name": "OPFFee",
      "type": "event"
    },
    {
      "anonymous": false,
      "inputs": [
        {
          "indexed": false,
          "internalType": "address",
          "name": "caller",
          "type": "address"
        },
        {
          "indexed": false,
          "internalType": "address",
          "name": "marketAddress",
          "type": "address"
        },
        {
          "indexed": false,
          "internalType": "address",
          "name": "token",
          "type": "address"
        },
        {
          "indexed": false,
          "internalType": "uint256",
          "name": "amount",
          "type": "uint256"
        }
      ],
      "name": "PublishMarketFee",
      "type": "event"
    },
    {
      "anonymous": false,
      "inputs": [
        {
          "indexed": false,
          "internalType": "uint256",
          "name": "swapFeeAmount",
          "type": "uint256"
        },
        {
          "indexed": false,
          "internalType": "uint256",
          "name": "oceanFeeAmount",
          "type": "uint256"
        },
        {
          "indexed": false,
          "internalType": "uint256",
          "name": "marketFeeAmount",
          "type": "uint256"
        },
        {
          "indexed": false,
          "internalType": "address",
          "name": "tokenFees",
          "type": "address"
        }
      ],
      "name": "SWAP_FEES",
      "type": "event"
    },
    {
      "anonymous": false,
      "inputs": [
        {
          "indexed": true,
          "internalType": "address",
          "name": "src",
          "type": "address"
        },
        {
          "indexed": true,
          "internalType": "address",
          "name": "dst",
          "type": "address"
        },
        {
          "indexed": false,
          "internalType": "uint256",
          "name": "amt",
          "type": "uint256"
        }
      ],
      "name": "Transfer",
      "type": "event"
    },
    {
      "inputs": [],
      "name": "BONE",
      "outputs": [
        {
          "internalType": "uint256",
          "name": "",
          "type": "uint256"
        }
      ],
      "stateMutability": "view",
      "type": "function"
    },
    {
      "inputs": [],
      "name": "BPOW_PRECISION",
      "outputs": [
        {
          "internalType": "uint256",
          "name": "",
          "type": "uint256"
        }
      ],
      "stateMutability": "view",
      "type": "function"
    },
    {
      "inputs": [],
      "name": "EXIT_FEE",
      "outputs": [
        {
          "internalType": "uint256",
          "name": "",
          "type": "uint256"
        }
      ],
      "stateMutability": "view",
      "type": "function"
    },
    {
      "inputs": [],
      "name": "INIT_POOL_SUPPLY",
      "outputs": [
        {
          "internalType": "uint256",
          "name": "",
          "type": "uint256"
        }
      ],
      "stateMutability": "view",
      "type": "function"
    },
    {
      "inputs": [],
      "name": "MAX_BOUND_TOKENS",
      "outputs": [
        {
          "internalType": "uint256",
          "name": "",
          "type": "uint256"
        }
      ],
      "stateMutability": "view",
      "type": "function"
    },
    {
      "inputs": [],
      "name": "MAX_BPOW_BASE",
      "outputs": [
        {
          "internalType": "uint256",
          "name": "",
          "type": "uint256"
        }
      ],
      "stateMutability": "view",
      "type": "function"
    },
    {
      "inputs": [],
      "name": "MAX_FEE",
      "outputs": [
        {
          "internalType": "uint256",
          "name": "",
          "type": "uint256"
        }
      ],
      "stateMutability": "view",
      "type": "function"
    },
    {
      "inputs": [],
      "name": "MAX_IN_RATIO",
      "outputs": [
        {
          "internalType": "uint256",
          "name": "",
          "type": "uint256"
        }
      ],
      "stateMutability": "view",
      "type": "function"
    },
    {
      "inputs": [],
      "name": "MAX_OUT_RATIO",
      "outputs": [
        {
          "internalType": "uint256",
          "name": "",
          "type": "uint256"
        }
      ],
      "stateMutability": "view",
      "type": "function"
    },
    {
      "inputs": [],
      "name": "MAX_TOTAL_WEIGHT",
      "outputs": [
        {
          "internalType": "uint256",
          "name": "",
          "type": "uint256"
        }
      ],
      "stateMutability": "view",
      "type": "function"
    },
    {
      "inputs": [],
      "name": "MAX_WEIGHT",
      "outputs": [
        {
          "internalType": "uint256",
          "name": "",
          "type": "uint256"
        }
      ],
      "stateMutability": "view",
      "type": "function"
    },
    {
      "inputs": [],
      "name": "MIN_BALANCE",
      "outputs": [
        {
          "internalType": "uint256",
          "name": "",
          "type": "uint256"
        }
      ],
      "stateMutability": "view",
      "type": "function"
    },
    {
      "inputs": [],
      "name": "MIN_BOUND_TOKENS",
      "outputs": [
        {
          "internalType": "uint256",
          "name": "",
          "type": "uint256"
        }
      ],
      "stateMutability": "view",
      "type": "function"
    },
    {
      "inputs": [],
      "name": "MIN_BPOW_BASE",
      "outputs": [
        {
          "internalType": "uint256",
          "name": "",
          "type": "uint256"
        }
      ],
      "stateMutability": "view",
      "type": "function"
    },
    {
      "inputs": [],
      "name": "MIN_FEE",
      "outputs": [
        {
          "internalType": "uint256",
          "name": "",
          "type": "uint256"
        }
      ],
      "stateMutability": "view",
      "type": "function"
    },
    {
      "inputs": [],
      "name": "MIN_WEIGHT",
      "outputs": [
        {
          "internalType": "uint256",
          "name": "",
          "type": "uint256"
        }
      ],
      "stateMutability": "view",
      "type": "function"
    },
    {
      "inputs": [],
      "name": "_opfCollector",
      "outputs": [
        {
          "internalType": "address",
          "name": "",
          "type": "address"
        }
      ],
      "stateMutability": "view",
      "type": "function"
    },
    {
      "inputs": [],
      "name": "_publishMarketCollector",
      "outputs": [
        {
          "internalType": "address",
          "name": "",
          "type": "address"
        }
      ],
      "stateMutability": "view",
      "type": "function"
    },
    {
      "inputs": [
        {
          "internalType": "address",
          "name": "src",
          "type": "address"
        },
        {
          "internalType": "address",
          "name": "dst",
          "type": "address"
        }
      ],
      "name": "allowance",
      "outputs": [
        {
          "internalType": "uint256",
          "name": "",
          "type": "uint256"
        }
      ],
      "stateMutability": "view",
      "type": "function"
    },
    {
      "inputs": [
        {
          "internalType": "address",
          "name": "dst",
          "type": "address"
        },
        {
          "internalType": "uint256",
          "name": "amt",
          "type": "uint256"
        }
      ],
      "name": "approve",
      "outputs": [
        {
          "internalType": "bool",
          "name": "",
          "type": "bool"
        }
      ],
      "stateMutability": "nonpayable",
      "type": "function"
    },
    {
      "inputs": [
        {
          "internalType": "address",
          "name": "whom",
          "type": "address"
        }
      ],
      "name": "balanceOf",
      "outputs": [
        {
          "internalType": "uint256",
          "name": "",
          "type": "uint256"
        }
      ],
      "stateMutability": "view",
      "type": "function"
    },
    {
      "inputs": [
        {
          "internalType": "address",
          "name": "tokenOut",
          "type": "address"
        },
        {
          "internalType": "uint256",
          "name": "tokenAmountOut",
          "type": "uint256"
        }
      ],
      "name": "calcPoolInSingleOut",
      "outputs": [
        {
          "internalType": "uint256",
          "name": "poolAmountIn",
          "type": "uint256"
        }
      ],
      "stateMutability": "view",
      "type": "function"
    },
    {
      "inputs": [
        {
          "internalType": "address",
          "name": "tokenIn",
          "type": "address"
        },
        {
          "internalType": "uint256",
          "name": "tokenAmountIn",
          "type": "uint256"
        }
      ],
      "name": "calcPoolOutSingleIn",
      "outputs": [
        {
          "internalType": "uint256",
          "name": "poolAmountOut",
          "type": "uint256"
        }
      ],
      "stateMutability": "view",
      "type": "function"
    },
    {
      "inputs": [
        {
          "internalType": "address",
          "name": "tokenIn",
          "type": "address"
        },
        {
          "internalType": "uint256",
          "name": "poolAmountOut",
          "type": "uint256"
        }
      ],
      "name": "calcSingleInPoolOut",
      "outputs": [
        {
          "internalType": "uint256",
          "name": "tokenAmountIn",
          "type": "uint256"
        }
      ],
      "stateMutability": "view",
      "type": "function"
    },
    {
      "inputs": [
        {
          "internalType": "address",
          "name": "tokenOut",
          "type": "address"
        },
        {
          "internalType": "uint256",
          "name": "poolAmountIn",
          "type": "uint256"
        }
      ],
      "name": "calcSingleOutPoolIn",
      "outputs": [
        {
          "internalType": "uint256",
          "name": "tokenAmountOut",
          "type": "uint256"
        }
      ],
      "stateMutability": "view",
      "type": "function"
    },
    {
      "inputs": [
        {
          "internalType": "address",
          "name": "to",
          "type": "address"
        }
      ],
      "name": "collectMarketFee",
      "outputs": [],
      "stateMutability": "nonpayable",
      "type": "function"
    },
    {
      "inputs": [],
      "name": "collectOPF",
      "outputs": [],
      "stateMutability": "nonpayable",
      "type": "function"
    },
    {
      "inputs": [],
      "name": "collectPublishMarketFee",
      "outputs": [],
      "stateMutability": "nonpayable",
      "type": "function"
    },
    {
      "inputs": [
        {
          "internalType": "address",
          "name": "",
          "type": "address"
        }
      ],
      "name": "communityFees",
      "outputs": [
        {
          "internalType": "uint256",
          "name": "",
          "type": "uint256"
        }
      ],
      "stateMutability": "view",
      "type": "function"
    },
    {
      "inputs": [],
      "name": "decimals",
      "outputs": [
        {
          "internalType": "uint8",
          "name": "",
          "type": "uint8"
        }
      ],
      "stateMutability": "view",
      "type": "function"
    },
    {
      "inputs": [
        {
          "internalType": "address",
          "name": "dst",
          "type": "address"
        },
        {
          "internalType": "uint256",
          "name": "amt",
          "type": "uint256"
        }
      ],
      "name": "decreaseApproval",
      "outputs": [
        {
          "internalType": "bool",
          "name": "",
          "type": "bool"
        }
      ],
      "stateMutability": "nonpayable",
      "type": "function"
    },
    {
      "inputs": [
        {
          "internalType": "uint256",
          "name": "poolAmountIn",
          "type": "uint256"
        },
        {
          "internalType": "uint256[]",
          "name": "minAmountsOut",
          "type": "uint256[]"
        }
      ],
      "name": "exitPool",
      "outputs": [],
      "stateMutability": "nonpayable",
      "type": "function"
    },
    {
      "inputs": [
        {
          "internalType": "address",
          "name": "tokenOut",
          "type": "address"
        },
        {
          "internalType": "uint256",
          "name": "tokenAmountOut",
          "type": "uint256"
        },
        {
          "internalType": "uint256",
          "name": "maxPoolAmountIn",
          "type": "uint256"
        }
      ],
      "name": "exitswapExternAmountOut",
      "outputs": [
        {
          "internalType": "uint256",
          "name": "poolAmountIn",
          "type": "uint256"
        }
      ],
      "stateMutability": "nonpayable",
      "type": "function"
    },
    {
      "inputs": [
        {
          "internalType": "address",
          "name": "tokenOut",
          "type": "address"
        },
        {
          "internalType": "uint256",
          "name": "poolAmountIn",
          "type": "uint256"
        },
        {
          "internalType": "uint256",
          "name": "minAmountOut",
          "type": "uint256"
        }
      ],
      "name": "exitswapPoolAmountIn",
      "outputs": [
        {
          "internalType": "uint256",
          "name": "tokenAmountOut",
          "type": "uint256"
        }
      ],
      "stateMutability": "nonpayable",
      "type": "function"
    },
    {
      "inputs": [
        {
          "internalType": "address",
          "name": "tokenIn",
          "type": "address"
        },
        {
          "internalType": "address",
          "name": "tokenOut",
          "type": "address"
        },
        {
          "internalType": "uint256",
          "name": "tokenAmountOut",
          "type": "uint256"
        }
      ],
      "name": "getAmountInExactOut",
      "outputs": [
        {
          "internalType": "uint256",
          "name": "tokenAmountIn",
          "type": "uint256"
        }
      ],
      "stateMutability": "view",
      "type": "function"
    },
    {
      "inputs": [
        {
          "internalType": "address",
          "name": "tokenIn",
          "type": "address"
        },
        {
          "internalType": "address",
          "name": "tokenOut",
          "type": "address"
        },
        {
          "internalType": "uint256",
          "name": "tokenAmountIn",
          "type": "uint256"
        }
      ],
      "name": "getAmountOutExactIn",
      "outputs": [
        {
          "internalType": "uint256",
          "name": "tokenAmountOut",
          "type": "uint256"
        }
      ],
      "stateMutability": "view",
      "type": "function"
    },
    {
      "inputs": [
        {
          "internalType": "address",
          "name": "token",
          "type": "address"
        }
      ],
      "name": "getBalance",
      "outputs": [
        {
          "internalType": "uint256",
          "name": "",
          "type": "uint256"
        }
      ],
      "stateMutability": "view",
      "type": "function"
    },
    {
      "inputs": [],
      "name": "getBaseTokenAddress",
      "outputs": [
        {
          "internalType": "address",
          "name": "",
          "type": "address"
        }
      ],
      "stateMutability": "view",
      "type": "function"
    },
    {
      "inputs": [],
      "name": "getController",
      "outputs": [
        {
          "internalType": "address",
          "name": "",
          "type": "address"
        }
      ],
      "stateMutability": "view",
      "type": "function"
    },
    {
      "inputs": [],
      "name": "getCurrentOPFFees",
      "outputs": [
        {
          "internalType": "address[]",
          "name": "",
          "type": "address[]"
        },
        {
          "internalType": "uint256[]",
          "name": "",
          "type": "uint256[]"
        }
      ],
      "stateMutability": "view",
      "type": "function"
    },
    {
      "inputs": [],
      "name": "getCurrentPublishMarketFees",
      "outputs": [
        {
          "internalType": "address[]",
          "name": "",
          "type": "address[]"
        },
        {
          "internalType": "uint256[]",
          "name": "",
          "type": "uint256[]"
        }
      ],
      "stateMutability": "view",
      "type": "function"
    },
    {
      "inputs": [],
      "name": "getCurrentTokens",
      "outputs": [
        {
          "internalType": "address[]",
          "name": "tokens",
          "type": "address[]"
        }
      ],
      "stateMutability": "view",
      "type": "function"
    },
    {
      "inputs": [],
      "name": "getDataTokenAddress",
      "outputs": [
        {
          "internalType": "address",
          "name": "",
          "type": "address"
        }
      ],
      "stateMutability": "view",
      "type": "function"
    },
    {
      "inputs": [
        {
          "internalType": "address",
          "name": "token",
          "type": "address"
        }
      ],
      "name": "getDenormalizedWeight",
      "outputs": [
        {
          "internalType": "uint256",
          "name": "",
          "type": "uint256"
        }
      ],
      "stateMutability": "view",
      "type": "function"
    },
    {
      "inputs": [],
      "name": "getFinalTokens",
      "outputs": [
        {
          "internalType": "address[]",
          "name": "tokens",
          "type": "address[]"
        }
      ],
      "stateMutability": "view",
      "type": "function"
    },
    {
      "inputs": [],
      "name": "getMarketFee",
      "outputs": [
        {
          "internalType": "uint256",
          "name": "",
          "type": "uint256"
        }
      ],
      "stateMutability": "view",
      "type": "function"
    },
    {
      "inputs": [
        {
          "internalType": "address",
          "name": "token",
          "type": "address"
        }
      ],
      "name": "getNormalizedWeight",
      "outputs": [
        {
          "internalType": "uint256",
          "name": "",
          "type": "uint256"
        }
      ],
      "stateMutability": "view",
      "type": "function"
    },
    {
      "inputs": [],
      "name": "getNumTokens",
      "outputs": [
        {
          "internalType": "uint256",
          "name": "",
          "type": "uint256"
        }
      ],
      "stateMutability": "view",
      "type": "function"
    },
    {
      "inputs": [],
      "name": "getOPFFee",
      "outputs": [
        {
          "internalType": "uint256",
          "name": "",
          "type": "uint256"
        }
      ],
      "stateMutability": "view",
      "type": "function"
    },
    {
      "inputs": [],
      "name": "getPublishMarketFee",
      "outputs": [
        {
          "internalType": "uint256",
          "name": "",
          "type": "uint256"
        }
      ],
      "stateMutability": "view",
      "type": "function"
    },
    {
      "inputs": [
        {
          "internalType": "address",
          "name": "tokenIn",
          "type": "address"
        },
        {
          "internalType": "address",
          "name": "tokenOut",
          "type": "address"
        }
      ],
      "name": "getSpotPrice",
      "outputs": [
        {
          "internalType": "uint256",
          "name": "spotPrice",
          "type": "uint256"
        }
      ],
      "stateMutability": "view",
      "type": "function"
    },
    {
      "inputs": [],
      "name": "getSwapFee",
      "outputs": [
        {
          "internalType": "uint256",
          "name": "",
          "type": "uint256"
        }
      ],
      "stateMutability": "view",
      "type": "function"
    },
    {
      "inputs": [],
      "name": "getTotalDenormalizedWeight",
      "outputs": [
        {
          "internalType": "uint256",
          "name": "",
          "type": "uint256"
        }
      ],
      "stateMutability": "view",
      "type": "function"
    },
    {
      "inputs": [
        {
          "internalType": "address",
          "name": "dst",
          "type": "address"
        },
        {
          "internalType": "uint256",
          "name": "amt",
          "type": "uint256"
        }
      ],
      "name": "increaseApproval",
      "outputs": [
        {
          "internalType": "bool",
          "name": "",
          "type": "bool"
        }
      ],
      "stateMutability": "nonpayable",
      "type": "function"
    },
    {
      "inputs": [
        {
          "internalType": "address",
          "name": "controller",
          "type": "address"
        },
        {
          "internalType": "address",
          "name": "factory",
          "type": "address"
        },
        {
          "internalType": "uint256[]",
          "name": "swapFees",
          "type": "uint256[]"
        },
        {
          "internalType": "bool",
          "name": "publicSwap",
          "type": "bool"
        },
        {
          "internalType": "bool",
          "name": "finalized",
          "type": "bool"
        },
        {
          "internalType": "address[2]",
          "name": "tokens",
          "type": "address[2]"
        },
        {
          "internalType": "address[2]",
          "name": "feeCollectors",
          "type": "address[2]"
        }
      ],
      "name": "initialize",
      "outputs": [
        {
          "internalType": "bool",
          "name": "",
          "type": "bool"
        }
      ],
      "stateMutability": "nonpayable",
      "type": "function"
    },
    {
      "inputs": [
        {
          "internalType": "address",
          "name": "t",
          "type": "address"
        }
      ],
      "name": "isBound",
      "outputs": [
        {
          "internalType": "bool",
          "name": "",
          "type": "bool"
        }
      ],
      "stateMutability": "view",
      "type": "function"
    },
    {
      "inputs": [],
      "name": "isInitialized",
      "outputs": [
        {
          "internalType": "bool",
          "name": "",
          "type": "bool"
        }
      ],
      "stateMutability": "view",
      "type": "function"
    },
    {
      "inputs": [
        {
          "internalType": "uint256",
          "name": "poolAmountOut",
          "type": "uint256"
        },
        {
          "internalType": "uint256[]",
          "name": "maxAmountsIn",
          "type": "uint256[]"
        }
      ],
      "name": "joinPool",
      "outputs": [],
      "stateMutability": "nonpayable",
      "type": "function"
    },
    {
      "inputs": [
        {
          "internalType": "address",
          "name": "tokenIn",
          "type": "address"
        },
        {
          "internalType": "uint256",
          "name": "tokenAmountIn",
          "type": "uint256"
        },
        {
          "internalType": "uint256",
          "name": "minPoolAmountOut",
          "type": "uint256"
        }
      ],
      "name": "joinswapExternAmountIn",
      "outputs": [
        {
          "internalType": "uint256",
          "name": "poolAmountOut",
          "type": "uint256"
        }
      ],
      "stateMutability": "nonpayable",
      "type": "function"
    },
    {
      "inputs": [
        {
          "internalType": "address",
          "name": "tokenIn",
          "type": "address"
        },
        {
          "internalType": "uint256",
          "name": "poolAmountOut",
          "type": "uint256"
        },
        {
          "internalType": "uint256",
          "name": "maxAmountIn",
          "type": "uint256"
        }
      ],
      "name": "joinswapPoolAmountOut",
      "outputs": [
        {
          "internalType": "uint256",
          "name": "tokenAmountIn",
          "type": "uint256"
        }
      ],
      "stateMutability": "nonpayable",
      "type": "function"
    },
    {
      "inputs": [
        {
          "internalType": "address",
          "name": "",
          "type": "address"
        },
        {
          "internalType": "address",
          "name": "",
          "type": "address"
        }
      ],
      "name": "marketFees",
      "outputs": [
        {
          "internalType": "uint256",
          "name": "",
          "type": "uint256"
        }
      ],
      "stateMutability": "view",
      "type": "function"
    },
    {
      "inputs": [],
      "name": "name",
      "outputs": [
        {
          "internalType": "string",
          "name": "",
          "type": "string"
        }
      ],
      "stateMutability": "view",
      "type": "function"
    },
    {
      "inputs": [
        {
          "internalType": "address",
          "name": "",
          "type": "address"
        }
      ],
      "name": "publishMarketFees",
      "outputs": [
        {
          "internalType": "uint256",
          "name": "",
          "type": "uint256"
        }
      ],
      "stateMutability": "view",
      "type": "function"
    },
    {
      "inputs": [
        {
          "internalType": "uint256",
          "name": "swapFee",
          "type": "uint256"
        }
      ],
      "name": "setSwapFee",
      "outputs": [],
      "stateMutability": "nonpayable",
      "type": "function"
    },
    {
      "inputs": [
        {
          "internalType": "address",
          "name": "dataTokenAddress",
          "type": "address"
        },
        {
          "internalType": "uint256",
          "name": "dataTokenAmount",
          "type": "uint256"
        },
        {
          "internalType": "uint256",
          "name": "dataTokenWeight",
          "type": "uint256"
        },
        {
          "internalType": "address",
          "name": "baseTokenAddress",
          "type": "address"
        },
        {
          "internalType": "uint256",
          "name": "baseTokenAmount",
          "type": "uint256"
        },
        {
          "internalType": "uint256",
          "name": "baseTokenWeight",
          "type": "uint256"
        }
      ],
      "name": "setup",
      "outputs": [],
      "stateMutability": "nonpayable",
      "type": "function"
    },
    {
      "inputs": [
        {
          "internalType": "address",
          "name": "tokenIn",
          "type": "address"
        },
        {
          "internalType": "uint256",
          "name": "tokenAmountIn",
          "type": "uint256"
        },
        {
          "internalType": "address",
          "name": "tokenOut",
          "type": "address"
        },
        {
          "internalType": "uint256",
          "name": "minAmountOut",
          "type": "uint256"
        },
        {
          "internalType": "uint256",
          "name": "maxPrice",
          "type": "uint256"
        },
        {
          "internalType": "address",
          "name": "publishMarketFeeAddress",
          "type": "address"
        }
      ],
      "name": "swapExactAmountIn",
      "outputs": [
        {
          "internalType": "uint256",
          "name": "tokenAmountOut",
          "type": "uint256"
        },
        {
          "internalType": "uint256",
          "name": "spotPriceAfter",
          "type": "uint256"
        }
      ],
      "stateMutability": "nonpayable",
      "type": "function"
    },
    {
      "inputs": [
        {
          "internalType": "address",
          "name": "tokenIn",
          "type": "address"
        },
        {
          "internalType": "uint256",
          "name": "maxAmountIn",
          "type": "uint256"
        },
        {
          "internalType": "address",
          "name": "tokenOut",
          "type": "address"
        },
        {
          "internalType": "uint256",
          "name": "tokenAmountOut",
          "type": "uint256"
        },
        {
          "internalType": "uint256",
          "name": "maxPrice",
          "type": "uint256"
        },
        {
          "internalType": "address",
          "name": "publishMarketFeeAddress",
          "type": "address"
        }
      ],
      "name": "swapExactAmountOut",
      "outputs": [
        {
          "internalType": "uint256",
          "name": "tokenAmountIn",
          "type": "uint256"
        },
        {
          "internalType": "uint256",
          "name": "spotPriceAfter",
          "type": "uint256"
        }
      ],
      "stateMutability": "nonpayable",
      "type": "function"
    },
    {
      "inputs": [],
      "name": "symbol",
      "outputs": [
        {
          "internalType": "string",
          "name": "",
          "type": "string"
        }
      ],
      "stateMutability": "view",
      "type": "function"
    },
    {
      "inputs": [],
      "name": "totalSupply",
      "outputs": [
        {
          "internalType": "uint256",
          "name": "",
          "type": "uint256"
        }
      ],
      "stateMutability": "view",
      "type": "function"
    },
    {
      "inputs": [
        {
          "internalType": "address",
          "name": "dst",
          "type": "address"
        },
        {
          "internalType": "uint256",
          "name": "amt",
          "type": "uint256"
        }
      ],
      "name": "transfer",
      "outputs": [
        {
          "internalType": "bool",
          "name": "",
          "type": "bool"
        }
      ],
      "stateMutability": "nonpayable",
      "type": "function"
    },
    {
      "inputs": [
        {
          "internalType": "address",
          "name": "src",
          "type": "address"
        },
        {
          "internalType": "address",
          "name": "dst",
          "type": "address"
        },
        {
          "internalType": "uint256",
          "name": "amt",
          "type": "uint256"
        }
      ],
      "name": "transferFrom",
      "outputs": [
        {
          "internalType": "bool",
          "name": "",
          "type": "bool"
        }
      ],
      "stateMutability": "nonpayable",
      "type": "function"
    },
    {
      "inputs": [
        {
          "internalType": "address",
          "name": "_newCollector",
          "type": "address"
        }
      ],
      "name": "updateMarketFeeCollector",
      "outputs": [],
      "stateMutability": "nonpayable",
      "type": "function"
    }
  ],
  "bytecode": "0x60c0604052601360808190527f42616c616e63657220506f6f6c20546f6b656e0000000000000000000000000060a09081526200004091600c91906200008f565b506040805180820190915260038082526210941560ea1b60209092019182526200006d91600d916200008f565b50600e805460ff191660121790553480156200008857600080fd5b5062000172565b8280546200009d9062000135565b90600052602060002090601f016020900481019282620000c157600085556200010c565b82601f10620000dc57805160ff19168380011785556200010c565b828001600101855582156200010c579182015b828111156200010c578251825591602001919060010190620000ef565b506200011a9291506200011e565b5090565b5b808211156200011a57600081556001016200011f565b600181811c908216806200014a57607f821691505b602082108114156200016c57634e487b7160e01b600052602260045260246000fd5b50919050565b61611c80620001826000396000f3fe608060405234801561001057600080fd5b50600436106104285760003560e01c8063867378c51161022b578063c070a6d811610130578063dd62ed3e116100b8578063f1b8a9b711610087578063f1b8a9b7146108c9578063f68045a5146108dc578063f8b2cb4f146108e4578063fbb9dd50146108f7578063ff9b18501461090a57600080fd5b8063dd62ed3e14610875578063e4a28a52146104b0578063ec093021146108ae578063f0f13f0b146108b657600080fd5b8063cc77828d116100ff578063cc77828d14610837578063cd2ed8fb1461083f578063d210e1fe14610847578063d4cadf681461085a578063d73dd6231461086257600080fd5b8063c070a6d814610814578063c36596a614610506578063c6580d1214610827578063c8ff18331461082f57600080fd5b8063a9059cbb116101b3578063ba019dab11610182578063ba019dab146107df578063bc063e1a146107e7578063bc694ea2146107ef578063bcdb4f3c146107f7578063be3bbd2e146107ff57600080fd5b8063a9059cbb146107b1578063b02f0b73146107c4578063b0e0d136146107d7578063b7b800a4146107d757600080fd5b806395d89b41116101fa57806395d89b411461075e578063992e2a92146107665780639e1f888e1461076e5780639f005f8b14610796578063a3b3a16d1461079e57600080fd5b8063867378c514610733578063936c34771461073b5780639381cd2b14610743578063948d8ce61461074b57600080fd5b8063380376a6116103315780635e123add116102b9578063700dd7e811610288578063700dd7e8146106c757806370330518146106cf57806370a08231146106e257806376c7a3c71461070b5780637c5918b31461071357600080fd5b80635e123add14610686578063638c9e951461068e57806366188463146106a15780636d06dfa0146106b457600080fd5b806346ab38f11161030057806346ab38f1146106115780634a0d3dfa146106245780634df947d01461064f5780634f69c0d4146106605780635db342771461067357600080fd5b8063380376a6146105c6578063392e53cd146105d95780633950b3fd146105eb578063430ed5d0146105fe57600080fd5b8063189d00ca116103b45780632f37b624116103835780632f37b6241461053b57806330062192146105675780633018205f14610587578063313ce5671461059e57806334e19907146105b357600080fd5b8063189d00ca146104fe578063218b53821461050657806323b872dd146105155780632ea07d8a1461052857600080fd5b806309a3bbe4116103fb57806309a3bbe4146104b057806309ef3f5b146104b8578063112e2615146104cd57806315e84af9146104e357806318160ddd146104f657600080fd5b806302c967481461042d57806304ad79541461045357806306fdde0314610478578063095ea7b31461048d575b600080fd5b61044061043b366004615945565b61091d565b6040519081526020015b60405180910390f35b6004546001600160a01b03165b6040516001600160a01b03909116815260200161044a565b610480610db9565b60405161044a9190615978565b6104a061049b3660046159cd565b610e4b565b604051901515815260200161044a565b610440610ea6565b6104cb6104c63660046159f7565b610ebc565b005b6104d56110f8565b60405161044a929190615a93565b6104406104f1366004615aea565b611268565b600b54610440565b61044061134c565b610440670de0b6b3a764000081565b6104a0610523366004615b1d565b611363565b610440610536366004615b1d565b6114b7565b6104a0610549366004615b59565b6001600160a01b031660009081526012602052604090205460ff1690565b610440610575366004615b59565b60066020526000908152604090205481565b600e546201000090046001600160a01b0316610460565b600e5460405160ff909116815260200161044a565b6104cb6105c1366004615b74565b611572565b6104406105d4366004615b1d565b6116bb565b601454600160a01b900460ff166104a0565b6104406105f93660046159cd565b61176c565b61044061060c3660046159cd565b6117d4565b61044061061f366004615945565b611834565b610440610632366004615aea565b600860209081526000928352604080842090915290825290205481565b6005546001600160a01b0316610460565b6104cb61066e366004615bd2565b611c75565b610440610681366004615945565b611e9c565b600054610440565b600f54610460906001600160a01b031681565b6104a06106af3660046159cd565b612294565b6104406106c2366004615945565b61236a565b61044061277d565b6104cb6106dd366004615b59565b6127f7565b6104406106f0366004615b59565b6001600160a01b031660009081526009602052604090205490565b6104406128a4565b610440610721366004615b59565b60076020526000908152604090205481565b6104406128b9565b6104406128d0565b610440612902565b610440610759366004615b59565b612915565b61048061299b565b6104406129aa565b61078161077c366004615c1e565b6129c8565b6040805192835260208301919091520161044a565b6104cb612d1e565b6104406107ac3660046159cd565b612f2f565b6104a06107bf3660046159cd565b612f8f565b6104cb6107d2366004615bd2565b612fa5565b610440600281565b610440600181565b610440613201565b610440613214565b600154610440565b610807613233565b60405161044a9190615c7d565b6104a0610822366004615caf565b6132e6565b610440600081565b6104d5613556565b6108076136bb565b601154610440565b610781610855366004615c1e565b6136e6565b600254610440565b6104a06108703660046159cd565b613a1f565b610440610883366004615aea565b6001600160a01b039182166000908152600a6020908152604080832093909416825291909152205490565b610440613a92565b601054610460906001600160a01b031681565b6104406108d7366004615b59565b613aa5565b6104cb613b39565b6104406108f2366004615b59565b613cea565b6104cb610905366004615b59565b613d6c565b6104406109183660046159cd565b613fa1565b600e54600090610100900460ff16156109515760405162461bcd60e51b815260040161094890615d5c565b60405180910390fd5b600e805461ff001916610100179055601054600160a01b900460ff166109895760405162461bcd60e51b815260040161094890615d81565b6001600160a01b03841660009081526012602052604090205460ff166109c15760405162461bcd60e51b815260040161094890615dac565b6001600160a01b0384166000908152601260205260409020600390810154610a05916109f590670de0b6b3a7640000615dff565b610a00906001615e13565b614001565b831115610a245760405162461bcd60e51b815260040161094890615e2b565b6001600160a01b038416600090815260126020526040902060038101546002820154600b54601354610a5993929190886140dc565b915081610a785760405162461bcd60e51b815260040161094890615e56565b82821115610a985760405162461bcd60e51b815260040161094890615e7f565b610aa68160030154856141a0565b60038201556000610ab78382614001565b604080518781524260208201529192506001600160a01b038816913391600080516020616047833981519152910160405180910390a36040518381526000805160206160878339815191529060200160405180910390a1610b1833846141fd565b610b2a610b2584836141a0565b614207565b600354610b40906001600160a01b031682614213565b610b4b86338761421d565b6004546000906001600160a01b0388811691161415610b7657506005546001600160a01b0316610b84565b506004546001600160a01b03165b6014546004805460405163efd4810360e01b81526001600160a01b039384169363efd4810393610bbc939091169186918a9101615ea5565b602060405180830381865afa158015610bd9573d6000803e3d6000fd5b505050506040513d601f19601f82011682018060405250810190610bfd9190615ec9565b151560011415610da4576004546001600160a01b0316600090815260126020526040812060038101546002820154600b54601354939493610c41939291908a6142dc565b9050610c518260030154826141a0565b6003830155610c61866000614001565b600e54604080518481524260208201529296506001600160a01b0386811693620100009093041691600080516020616047833981519152910160405180910390a3600e54610cbe906201000090046001600160a01b0316876141fd565b610ccb610b2587866141a0565b600354610ce1906001600160a01b031685614213565b600e54610cff9084906201000090046001600160a01b03168361421d565b601454600480546040516307b01ab360e41b81526001600160a01b03918216928101929092528581166024830152604482018490526064820189905290911690637b01ab3090608401600060405180830381600087803b158015610d6257600080fd5b505af1158015610d76573d6000803e3d6000fd5b5050505060008051602061606783398151915286604051610d9991815260200190565b60405180910390a150505b505050600e805461ff00191690559392505050565b6060600c8054610dc890615ee6565b80601f0160208091040260200160405190810160405280929190818152602001828054610df490615ee6565b8015610e415780601f10610e1657610100808354040283529160200191610e41565b820191906000526020600020905b815481529060010190602001808311610e2457829003601f168201915b5050505050905090565b336000818152600a602090815260408083206001600160a01b038716808552925280832085905551919290916000805160206160c783398151915290610e949086815260200190565b60405180910390a35060015b92915050565b610eb9670de0b6b3a76400006032615f21565b81565b600e54610100900460ff1615610ee45760405162461bcd60e51b815260040161094890615d5c565b600e805461010061ff001990911617908190556201000090046001600160a01b03163314610f4d5760405162461bcd60e51b815260206004820152601660248201527522a9292fa4a72b20a624a22fa1a7a72a2927a62622a960511b6044820152606401610948565b6004546001600160a01b03878116911614610faa5760405162461bcd60e51b815260206004820152601d60248201527f4552525f494e56414c49445f44415441544f4b454e5f414444524553530000006044820152606401610948565b6005546001600160a01b038481169116146110075760405162461bcd60e51b815260206004820152601d60248201527f4552525f494e56414c49445f42415345544f4b454e5f414444524553530000006044820152606401610948565b6110128686866143a6565b604080518681524260208201526001600160a01b0388169133916000805160206160a7833981519152910160405180910390a36110508383836143a6565b604080518381524260208201526001600160a01b0385169133916000805160206160a7833981519152910160405180910390a361108b614590565b6040805183815260208101839052908101869052606081018590526001600160a01b03808816919085169033907fbece8b4dcdbe446dd65a9288154698e067e3e91de17a1a408c2f531b9f845d739060800160405180910390a45050600e805461ff001916905550505050565b6060806000611105613233565b90506000815167ffffffffffffffff81111561112357611123615f40565b60405190808252806020026020018201604052801561114c578160200160208202803683370190505b5090506000825167ffffffffffffffff81111561116b5761116b615f40565b604051908082528060200260200182016040528015611194578160200160208202803683370190505b50905060005b835181101561125d578381815181106111b5576111b5615f56565b60200260200101518382815181106111cf576111cf615f56565b60200260200101906001600160a01b031690816001600160a01b0316815250506007600085838151811061120557611205615f56565b60200260200101516001600160a01b03166001600160a01b031681526020019081526020016000205482828151811061124057611240615f56565b60209081029190910101528061125581615f6c565b91505061119a565b509094909350915050565b600e54600090610100900460ff16156112935760405162461bcd60e51b815260040161094890615d5c565b6001600160a01b03831660009081526012602052604090205460ff166112cb5760405162461bcd60e51b815260040161094890615dac565b6001600160a01b03821660009081526012602052604090205460ff166113035760405162461bcd60e51b815260040161094890615dac565b6001600160a01b038084166000908152601260205260408082209285168252902060038083015460028085015492840154908401546113439391906145ef565b95945050505050565b610eb96402540be400670de0b6b3a7640000615dff565b6000336001600160a01b038516148061139f57506001600160a01b0384166000908152600a602090815260408083203384529091529020548211155b6113e35760405162461bcd60e51b815260206004820152601560248201527422a9292fa12a27a5a2a72fa120a22fa1a0a62622a960591b6044820152606401610948565b6113ee848484614674565b336001600160a01b0385161480159061142c57506001600160a01b0384166000908152600a6020908152604080832033845290915290205460001914155b156114ad576001600160a01b0384166000908152600a6020908152604080832033845290915290205461145f90836141a0565b6001600160a01b038581166000908152600a602090815260408083203380855290835292819020859055519384529186169290916000805160206160c7833981519152910160405180910390a35b5060019392505050565b6001600160a01b03831660009081526012602052604081205460ff166114ef5760405162461bcd60e51b815260040161094890615dac565b6001600160a01b03831660009081526012602052604090205460ff166115275760405162461bcd60e51b815260040161094890615dac565b6001600160a01b0380851660009081526012602052604080822092861682529020600380830154600280850154928401549084015461156893919088614786565b9695505050505050565b601054600160a01b900460ff16156115bf5760405162461bcd60e51b815260206004820152601060248201526f11549497d254d7d1925390531256915160821b6044820152606401610948565b600e546201000090046001600160a01b031633146116145760405162461bcd60e51b815260206004820152601260248201527122a9292fa727aa2fa1a7a72a2927a62622a960711b6044820152606401610948565b611629620f4240670de0b6b3a7640000615dff565b8110156116665760405162461bcd60e51b815260206004820152600b60248201526a4552525f4d494e5f46454560a81b6044820152606401610948565b611679600a670de0b6b3a7640000615dff565b8111156116b65760405162461bcd60e51b815260206004820152600b60248201526a4552525f4d41585f46454560a81b6044820152606401610948565b600255565b6001600160a01b03831660009081526012602052604081205460ff166116f35760405162461bcd60e51b815260040161094890615dac565b6001600160a01b03831660009081526012602052604090205460ff1661172b5760405162461bcd60e51b815260040161094890615dac565b6001600160a01b038085166000908152601260205260408082209286168252902060038083015460028085015492840154908401546115689391908861483c565b6001600160a01b03821660009081526012602090815260408083208151608081018352815460ff161515815260018201549381019390935260028101549183018290526003015460608301819052600b546013546117cc939190876148f0565b949350505050565b6001600160a01b03821660009081526012602090815260408083208151608081018352815460ff161515815260018201549381019390935260028101549183018290526003015460608301819052600b546013546117cc939190876142dc565b600e54600090610100900460ff161561185f5760405162461bcd60e51b815260040161094890615d5c565b600e805461ff001916610100179055601054600160a01b900460ff166118975760405162461bcd60e51b815260040161094890615d81565b6001600160a01b03841660009081526012602052604090205460ff166118cf5760405162461bcd60e51b815260040161094890615dac565b6001600160a01b038416600090815260126020526040902060038101546002820154600b5460135461190493929190886142dc565b9150828210156119265760405162461bcd60e51b815260040161094890615f87565b6001600160a01b038516600090815260126020526040902060039081015461195a916109f590670de0b6b3a7640000615dff565b8211156119795760405162461bcd60e51b815260040161094890615e2b565b6119878160030154836141a0565b600382015560006119988582614001565b604080518581524260208201529192506001600160a01b038816913391600080516020616047833981519152910160405180910390a36040518581526000805160206160878339815191529060200160405180910390a16119f933866141fd565b611a06610b2586836141a0565b600354611a1c906001600160a01b031682614213565b611a2786338561421d565b6004546000906001600160a01b0388811691161415611a5257506005546001600160a01b0316611a60565b506004546001600160a01b03165b6014546004805460405163efd4810360e01b81526001600160a01b039384169363efd4810393611a98939091169186918c9101615ea5565b602060405180830381865afa158015611ab5573d6000803e3d6000fd5b505050506040513d601f19601f82011682018060405250810190611ad99190615ec9565b151560011415610da4576004546001600160a01b0316600090815260126020526040812060038101546002820154600b54601354939493611b1d939291908c6142dc565b9050611b2d8260030154826141a0565b6003830155611b3d886000614001565b600e54604080518481524260208201529296506001600160a01b0386811693620100009093041691600080516020616047833981519152910160405180910390a3600e54611b9a906201000090046001600160a01b0316896141fd565b611ba7610b2589866141a0565b600354611bbd906001600160a01b031685614213565b600e54611bdb9084906201000090046001600160a01b03168361421d565b601454600480546040516307b01ab360e41b81526001600160a01b0391821692810192909252858116602483015260448201849052606482018b905290911690637b01ab3090608401600060405180830381600087803b158015611c3e57600080fd5b505af1158015611c52573d6000803e3d6000fd5b5050505060008051602061606783398151915288604051610d9991815260200190565b600e54610100900460ff1615611c9d5760405162461bcd60e51b815260040161094890615d5c565b600e805461ff001916610100179055601054600160a01b900460ff16611cd55760405162461bcd60e51b815260040161094890615d81565b6000611ce0600b5490565b90506000611cee8583614985565b905080611d0d5760405162461bcd60e51b815260040161094890615e56565b60005b601154811015611e5557600060118281548110611d2f57611d2f615f56565b60009182526020808320909101546001600160a01b03168083526012909152604082206003015490925090611d648583614001565b905080611d835760405162461bcd60e51b815260040161094890615e56565b878785818110611d9557611d95615f56565b90506020020135811115611dbb5760405162461bcd60e51b815260040161094890615e7f565b6001600160a01b038316600090815260126020526040902060030154611de19082614a9d565b6001600160a01b0384166000818152601260205260409081902060030192909255905133906000805160206160a783398151915290611e2c9085904290918252602082015260400190565b60405180910390a3611e3f833383614aef565b5050508080611e4d90615f6c565b915050611d10565b50611e5f85614b22565b611e693386614213565b6040518581526000805160206160878339815191529060200160405180910390a15050600e805461ff0019169055505050565b600e54600090610100900460ff1615611ec75760405162461bcd60e51b815260040161094890615d5c565b600e805461ff001916610100179055601054600160a01b900460ff16611eff5760405162461bcd60e51b815260040161094890615d81565b6001600160a01b03841660009081526012602052604090205460ff16611f375760405162461bcd60e51b815260040161094890615dac565b6001600160a01b038416600090815260126020526040902060030154611f6a90610a006002670de0b6b3a7640000615dff565b831115611f895760405162461bcd60e51b815260040161094890615fae565b6001600160a01b038416600090815260126020526040902060038101546002820154600b54601354611fbe93929190886148f0565b915082821015611fe05760405162461bcd60e51b815260040161094890615f87565b611fee816003015485614a9d565b6003820155604080518581524260208201526001600160a01b0387169133916000805160206160a7833981519152910160405180910390a36040518281526000805160206160878339815191529060200160405180910390a161205082614b22565b61205a3383614213565b612065853386614aef565b6004546001600160a01b0316600090815260126020526040812060038101546002820154600b5460135493949384936120a2939092909189614b2b565b6004549091506001600160a01b03898116911614156120ce576005546001600160a01b031691506120dd565b6004546001600160a01b031691505b601454600480546040516326b1f01f60e01b81526001600160a01b03938416936326b1f01f9361211593909116918791879101615ea5565b602060405180830381865afa158015612132573d6000803e3d6000fd5b505050506040513d601f19601f820116820180604052508101906121569190615ec9565b15156001141561227e57601454600480546040516399039fcf60e01b81526001600160a01b03938416936399039fcf9361219893909116918791879101615ea5565b600060405180830381600087803b1580156121b257600080fd5b505af11580156121c6573d6000803e3d6000fd5b505050506121d8836003015482614a9d565b6003840155600e54604080518381524260208201526001600160a01b038581169362010000900416916000805160206160a7833981519152910160405180910390a36040518581526000805160206160678339815191529060200160405180910390a161224485614b22565b600e54612260906201000090046001600160a01b031686614213565b600e5461227e9083906201000090046001600160a01b031683614aef565b50505050600e805461ff00191690559392505050565b336000908152600a602090815260408083206001600160a01b0386168452909152812054808311156122e957336000908152600a602090815260408083206001600160a01b0388168452909152812055612318565b6122f381846141a0565b336000908152600a602090815260408083206001600160a01b03891684529091529020555b336000818152600a602090815260408083206001600160a01b038916808552908352928190205490519081529192916000805160206160c7833981519152910160405180910390a35060019392505050565b600e54600090610100900460ff16156123955760405162461bcd60e51b815260040161094890615d5c565b600e805461ff001916610100179055601054600160a01b900460ff166123cd5760405162461bcd60e51b815260040161094890615d81565b6001600160a01b03841660009081526012602052604090205460ff166124055760405162461bcd60e51b815260040161094890615dac565b6001600160a01b038416600090815260126020526040902060038101546002820154600b5460135461243a9392919088614b2b565b9150816124595760405162461bcd60e51b815260040161094890615e56565b828211156124795760405162461bcd60e51b815260040161094890615e7f565b6001600160a01b0385166000908152601260205260409020600301546124ac90610a006002670de0b6b3a7640000615dff565b8211156124cb5760405162461bcd60e51b815260040161094890615fae565b6124d9816003015483614a9d565b6003820155604080518381524260208201526001600160a01b0387169133916000805160206160a7833981519152910160405180910390a36040518481526000805160206160878339815191529060200160405180910390a161253b84614b22565b6125453385614213565b612550853384614aef565b6004546001600160a01b0316600090815260126020526040812060038101546002820154600b5460135493949361258a939291908a614b2b565b6004549091506000906001600160a01b03898116911614156125b857506005546001600160a01b03166125c6565b506004546001600160a01b03165b601454600480546040516326b1f01f60e01b81526001600160a01b03938416936326b1f01f936125fe93909116918691889101615ea5565b602060405180830381865afa15801561261b573d6000803e3d6000fd5b505050506040513d601f19601f8201168201806040525081019061263f9190615ec9565b15156001141561227e57601454600480546040516399039fcf60e01b81526001600160a01b03938416936399039fcf9361268193909116918691889101615ea5565b600060405180830381600087803b15801561269b57600080fd5b505af11580156126af573d6000803e3d6000fd5b505050506126c1836003015483614a9d565b6003840155600e54604080518481524260208201526001600160a01b038481169362010000900416916000805160206160a7833981519152910160405180910390a361270c87614b22565b600e54612728906201000090046001600160a01b031688614213565b600e546127469082906201000090046001600160a01b031684614aef565b6040518781526000805160206160678339815191529060200160405180910390a150505050600e805461ff00191690559392505050565b600354600554604051637c0aa57760e11b81526001600160a01b039182166004820152600092919091169063f8154aee90602401602060405180830381865afa1580156127ce573d6000803e3d6000fd5b505050506040513d601f19601f820116820180604052508101906127f29190615fd8565b905090565b600f546001600160a01b031633146128495760405162461bcd60e51b815260206004820152601560248201527427a7262c9026a0a925a2aa1021a7a62622a1aa27a960591b6044820152606401610948565b600f80546001600160a01b0319166001600160a01b0383169081179091556040805133815260208101929092527f82aaf1a11850bc9b5eb1b7db8b4ad08629911d970a4d7539875938c4017e59b8910160405180910390a150565b610eb9620f4240670de0b6b3a7640000615dff565b610eb964e8d4a51000670de0b6b3a7640000615dff565b600e54600090610100900460ff16156128fb5760405162461bcd60e51b815260040161094890615d5c565b5060135490565b610eb9670de0b6b3a76400006064615f21565b600e54600090610100900460ff16156129405760405162461bcd60e51b815260040161094890615d5c565b6001600160a01b03821660009081526012602052604090205460ff166129785760405162461bcd60e51b815260040161094890615dac565b506001600160a01b0381166000908152601260205260409020600201545b919050565b6060600d8054610dc890615ee6565b6129bd6003670de0b6b3a7640000615dff565b610eb9906001615e13565b600e546000908190610100900460ff16156129f55760405162461bcd60e51b815260040161094890615d5c565b600e805461ff001916610100179055601054600160a01b900460ff16612a2d5760405162461bcd60e51b815260040161094890615d81565b6001600160a01b03881660009081526012602052604090205460ff16612a655760405162461bcd60e51b815260040161094890615dac565b6001600160a01b03861660009081526012602052604090205460ff16612a9d5760405162461bcd60e51b815260040161094890615dac565b6001600160a01b0380891660009081526012602052604080822092891682529020600380820154612ada916109f590670de0b6b3a7640000615dff565b871115612af95760405162461bcd60e51b815260040161094890615e2b565b6000612b1783600301548460020154846003015485600201546145ef565b905086811115612b5f5760405162461bcd60e51b81526020600482015260136024820152724552525f4241445f4c494d49545f505249434560681b6044820152606401610948565b600080604051806080016040528086600301548152602001866002015481526020018560030154815260200185600201548152509050612ba1818b8f8b614bc5565b90975091508b871115612bc65760405162461bcd60e51b815260040161094890615e7f565b612bd4856003015483614a9d565b8560030181905550612bea84600301548b6141a0565b600380860182905586015460028088015490870154612c0993906145ef565b955082861015612c2b5760405162461bcd60e51b815260040161094890615e56565b88861115612c6d5760405162461bcd60e51b815260206004820152600f60248201526e4552525f4c494d49545f505249434560881b6044820152606401610948565b612c77878b614985565b831115612c965760405162461bcd60e51b815260040161094890615e56565b60408051888152602081018c905242918101919091526001600160a01b03808d1691908f169033907f50ef2fc267012b5c84b56835f16ffd5331ac5a151a3760d74908721ba78b0efe9060600160405180910390a4612cf68d3389614aef565b612d018b338c61421d565b5050505050600e805461ff00191690559097909650945050505050565b6000612d28613233565b905060005b8151811015612f2b57600060076000848481518110612d4e57612d4e615f56565b60200260200101516001600160a01b03166001600160a01b0316815260200190815260200160002054905060008111612dd55760405162461bcd60e51b8152602060048201526024808201527f4e6f206665657320666f72207075626c697368206d61726b657420636f6c6c6560448201526331ba37b960e11b6064820152608401610948565b600060076000858581518110612ded57612ded615f56565b60200260200101516001600160a01b03166001600160a01b0316815260200190815260200160002081905550828281518110612e2b57612e2b615f56565b6020908102919091010151600f5460405163a9059cbb60e01b81526001600160a01b0391821660048201526024810184905291169063a9059cbb906044016020604051808303816000875af1158015612e88573d6000803e3d6000fd5b505050506040513d601f19601f82011682018060405250810190612eac9190615ec9565b507fbaf1ab77be65c7abf8fcd922bfcf0a749f556ac1a4cdf39c126ffaa1851edb5633600f60009054906101000a90046001600160a01b0316858581518110612ef757612ef7615f56565b602002602001015184604051612f109493929190615ff1565b60405180910390a15080612f2381615f6c565b915050612d2d565b5050565b6001600160a01b03821660009081526012602090815260408083208151608081018352815460ff161515815260018201549381019390935260028101549183018290526003015460608301819052600b546013546117cc939190876140dc565b6000612f9c338484614674565b50600192915050565b600e54610100900460ff1615612fcd5760405162461bcd60e51b815260040161094890615d5c565b600e805461ff001916610100179055601054600160a01b900460ff166130055760405162461bcd60e51b815260040161094890615d81565b6000613010600b5490565b9050600061301f856000614001565b9050600061302d86836141a0565b9050600061303b8285614985565b90508061305a5760405162461bcd60e51b815260040161094890615e56565b61306433886141fd565b60035461307a906001600160a01b031684614213565b61308382614207565b60005b6011548110156131cb576000601182815481106130a5576130a5615f56565b60009182526020808320909101546001600160a01b031680835260129091526040822060030154909250906130da8583614001565b9050806130f95760405162461bcd60e51b815260040161094890615e56565b89898581811061310b5761310b615f56565b905060200201358110156131315760405162461bcd60e51b815260040161094890615f87565b6001600160a01b03831660009081526012602052604090206003015461315790826141a0565b6001600160a01b038416600081815260126020526040908190206003019290925590513390600080516020616047833981519152906131a29085904290918252602082015260400190565b60405180910390a36131b583338361421d565b50505080806131c390615f6c565b915050613086565b506040518781526000805160206160878339815191529060200160405180910390a15050600e805461ff00191690555050505050565b610eb9600a670de0b6b3a7640000615dff565b6001613229670de0b6b3a76400006002615f21565b610eb9919061601b565b600e54606090610100900460ff161561325e5760405162461bcd60e51b815260040161094890615d5c565b601054600160a01b900460ff166132875760405162461bcd60e51b815260040161094890615d81565b6011805480602002602001604051908101604052809291908181526020018280548015610e4157602002820191906000526020600020905b81546001600160a01b031681526001909101906020018083116132bf575050505050905090565b601454600090600160a01b900460ff16156133435760405162461bcd60e51b815260206004820152601760248201527f4552525f414c52454144595f494e495449414c495a45440000000000000000006044820152606401610948565b6001600160a01b0389166133995760405162461bcd60e51b815260206004820152601e60248201527f4552525f494e56414c49445f434f4e54524f4c4c45525f4144445245535300006044820152606401610948565b6001600160a01b0388166133ef5760405162461bcd60e51b815260206004820152601b60248201527f4552525f494e56414c49445f464143544f52595f4144445245535300000000006044820152606401610948565b613404620f4240670de0b6b3a7640000615dff565b8787600081811061341757613417615f56565b90506020020135101561345a5760405162461bcd60e51b815260206004820152600b60248201526a4552525f4d494e5f46454560a81b6044820152606401610948565b61346d600a670de0b6b3a7640000615dff565b8787600081811061348057613480615f56565b9050602002013511156134c35760405162461bcd60e51b815260206004820152600b60248201526a4552525f4d41585f46454560a81b6044820152606401610948565b6135498989898980806020026020016040519081016040528093929190818152602001838360200280828437600092019190915250506040805180820182528c93508b9250908a9060029083908390808284376000920191909152505060408051808201825291508a906002908390839080828437600092019190915250614e97915050565b9998505050505050505050565b6060806000613563613233565b90506000815167ffffffffffffffff81111561358157613581615f40565b6040519080825280602002602001820160405280156135aa578160200160208202803683370190505b5090506000825167ffffffffffffffff8111156135c9576135c9615f40565b6040519080825280602002602001820160405280156135f2578160200160208202803683370190505b50905060005b835181101561125d5783818151811061361357613613615f56565b602002602001015183828151811061362d5761362d615f56565b60200260200101906001600160a01b031690816001600160a01b0316815250506006600085838151811061366357613663615f56565b60200260200101516001600160a01b03166001600160a01b031681526020019081526020016000205482828151811061369e5761369e615f56565b6020908102919091010152806136b381615f6c565b9150506135f8565b600e54606090610100900460ff16156132875760405162461bcd60e51b815260040161094890615d5c565b600e546000908190610100900460ff16156137135760405162461bcd60e51b815260040161094890615d5c565b600e805461ff001916610100179055601054600160a01b900460ff1661374b5760405162461bcd60e51b815260040161094890615d81565b6001600160a01b03881660009081526012602052604090205460ff166137835760405162461bcd60e51b815260040161094890615dac565b6001600160a01b03861660009081526012602052604090205460ff166137bb5760405162461bcd60e51b815260040161094890615dac565b6001600160a01b038089166000908152601260205260408082209289168252902060038201546137f890610a006002670de0b6b3a7640000615dff565b8911156138175760405162461bcd60e51b815260040161094890615fae565b600061383583600301548460020154846003015485600201546145ef565b90508681111561387d5760405162461bcd60e51b81526020600482015260136024820152724552525f4241445f4c494d49545f505249434560681b6044820152606401610948565b6000806040518060800160405280866003015481526020018660020154815260200185600301548152602001856002015481525090506138bf818d8f8b614ff6565b9097509150898710156138e45760405162461bcd60e51b815260040161094890615f87565b6138f2856003015483614a9d565b85600301819055506139088460030154886141a0565b60038086018290558601546002808801549087015461392793906145ef565b9550828610156139495760405162461bcd60e51b815260040161094890615e56565b8886111561398b5760405162461bcd60e51b815260206004820152600f60248201526e4552525f4c494d49545f505249434560881b6044820152606401610948565b6139958c88614985565b8311156139b45760405162461bcd60e51b815260040161094890615e56565b604080518d81526020810189905242918101919091526001600160a01b03808d1691908f169033907f50ef2fc267012b5c84b56835f16ffd5331ac5a151a3760d74908721ba78b0efe9060600160405180910390a4613a148d338e614aef565b612d018b338961421d565b336000908152600a602090815260408083206001600160a01b0386168452909152812054613a4d9083614a9d565b336000818152600a602090815260408083206001600160a01b038916808552908352928190208590555193845290926000805160206160c78339815191529101610e94565b610eb96002670de0b6b3a7640000615dff565b600e54600090610100900460ff1615613ad05760405162461bcd60e51b815260040161094890615d5c565b6001600160a01b03821660009081526012602052604090205460ff16613b085760405162461bcd60e51b815260040161094890615dac565b6001600160a01b038216600090815260126020526040902060020154601354613b32908290614985565b9392505050565b6000613b43613233565b905060005b8151811015612f2b57600060066000848481518110613b6957613b69615f56565b60200260200101516001600160a01b03166001600160a01b03168152602001908152602001600020549050600060066000858581518110613bac57613bac615f56565b60200260200101516001600160a01b03166001600160a01b0316815260200190815260200160002081905550828281518110613bea57613bea615f56565b602090810291909101015160105460405163a9059cbb60e01b81526001600160a01b0391821660048201526024810184905291169063a9059cbb906044016020604051808303816000875af1158015613c47573d6000803e3d6000fd5b505050506040513d601f19601f82011682018060405250810190613c6b9190615ec9565b507fe8e83bbe0f2a413d8e79dcb9ef4143cd967143e9d6b93c91d002c7eefdc507cc33601060009054906101000a90046001600160a01b0316858581518110613cb657613cb6615f56565b602002602001015184604051613ccf9493929190615ff1565b60405180910390a15080613ce281615f6c565b915050613b48565b600e54600090610100900460ff1615613d155760405162461bcd60e51b815260040161094890615d5c565b6001600160a01b03821660009081526012602052604090205460ff16613d4d5760405162461bcd60e51b815260040161094890615dac565b506001600160a01b031660009081526012602052604090206003015490565b6000613d76613233565b905060005b8151811015613f9c57600060086000848481518110613d9c57613d9c615f56565b60200260200101516001600160a01b03166001600160a01b031681526020019081526020016000206000856001600160a01b03166001600160a01b0316815260200190815260200160002054905060008111613e3a5760405162461bcd60e51b815260206004820152601860248201527f4e6f206665657320666f722074686973206164647265737300000000000000006044820152606401610948565b600060086000858581518110613e5257613e52615f56565b60200260200101516001600160a01b03166001600160a01b031681526020019081526020016000206000866001600160a01b03166001600160a01b0316815260200190815260200160002081905550828281518110613eb357613eb3615f56565b602090810291909101015160405163a9059cbb60e01b81526001600160a01b038681166004830152602482018490529091169063a9059cbb906044016020604051808303816000875af1158015613f0e573d6000803e3d6000fd5b505050506040513d601f19601f82011682018060405250810190613f329190615ec9565b507f6b98b886762529d8027f347356f9ec147e1735888054ace831c0e3de7983ab3d3385858581518110613f6857613f68615f56565b602002602001015184604051613f819493929190615ff1565b60405180910390a15080613f9481615f6c565b915050613d7b565b505050565b6001600160a01b03821660009081526012602090815260408083208151608081018352815460ff161515815260018201549381019390935260028101549183018290526003015460608301819052600b546013546117cc93919087614b2b565b60008061400e8385615f21565b90508315806140255750826140238583615dff565b145b6140645760405162461bcd60e51b815260206004820152601060248201526f4552525f4d554c5f4f564552464c4f5760801b6044820152606401610948565b60006140796002670de0b6b3a7640000615dff565b6140839083615e13565b9050818110156140c85760405162461bcd60e51b815260206004820152601060248201526f4552525f4d554c5f4f564552464c4f5760801b6044820152606401610948565b6000611568670de0b6b3a764000083615dff565b6000806140e98685614985565b905060006140ff670de0b6b3a7640000836141a0565b9050600061410f82600254614001565b9050600061412e86614129670de0b6b3a7640000856141a0565b614985565b9050600061413c8b836141a0565b9050600061414a828d614985565b905060006141588288615294565b90506000614166828d614001565b905060006141748d836141a0565b905061418d81614129670de0b6b3a764000060006141a0565b9f9e505050505050505050505050505050565b60008060006141af85856153c0565b9150915080156141f55760405162461bcd60e51b81526020600482015260116024820152704552525f5355425f554e444552464c4f5760781b6044820152606401610948565b509392505050565b612f2b82826153f7565b61421081615402565b50565b612f2b82826154ce565b60405163a9059cbb60e01b81526001600160a01b038381166004830152602482018390526000919085169063a9059cbb906044015b6020604051808303816000875af1158015614271573d6000803e3d6000fd5b505050506040513d601f19601f820116820180604052508101906142959190615ec9565b9050806142d65760405162461bcd60e51b815260206004820152600f60248201526e4552525f45524332305f46414c534560881b6044820152606401610948565b50505050565b6000806142e98685614985565b9050600061430484610a00670de0b6b3a764000060006141a0565b9050600061431287836141a0565b905060006143208289614985565b9050600061433f8261433a670de0b6b3a764000088614985565b615294565b9050600061434d828d614001565b9050600061435b8d836141a0565b9050600061437c614374670de0b6b3a76400008a6141a0565b600254614001565b905061439482610a00670de0b6b3a7640000846141a0565b9e9d5050505050505050505050505050565b600e546201000090046001600160a01b031633146143fb5760405162461bcd60e51b815260206004820152601260248201527122a9292fa727aa2fa1a7a72a2927a62622a960711b6044820152606401610948565b6001600160a01b03831660009081526012602052604090205460ff16156144535760405162461bcd60e51b815260206004820152600c60248201526b11549497d254d7d093d5539160a21b6044820152606401610948565b601054600160a01b900460ff16156144a05760405162461bcd60e51b815260206004820152601060248201526f11549497d254d7d1925390531256915160821b6044820152606401610948565b6011546002116144e35760405162461bcd60e51b815260206004820152600e60248201526d4552525f4d41585f544f4b454e5360901b6044820152606401610948565b6040805160808101825260018082526011805460208085019182526000858701818152606087018281526001600160a01b038c1680845260129094529782209651875460ff1916901515178755925186860155915160028601559451600390940193909355805491820181559091527f31ecc21a745e3968a04e9570e4425bc18fa8019c68028196b546d1669c200c680180546001600160a01b0319169091179055613f9c8383836154d9565b6010805460ff60a01b1916600160a01b179055600e805460ff60b01b1916600160b01b1790556145d16145cc670de0b6b3a76400006064615f21565b614b22565b6145ed336145e8670de0b6b3a76400006064615f21565b614213565b565b6000806145fc8686614985565b9050600061460a8585614985565b905060006146188383614985565b90506000614668670de0b6b3a7640000614129670de0b6b3a764000060015460005461464261277d565b60025461464f9190615e13565b6146599190615e13565b6146639190615e13565b6141a0565b90506135498282614001565b6001600160a01b0383166000908152600960205260409020548111156146d35760405162461bcd60e51b815260206004820152601460248201527311549497d25394d551919250d251539517d0905360621b6044820152606401610948565b6001600160a01b0383166000908152600960205260409020546146f690826141a0565b6001600160a01b0380851660009081526009602052604080822093909355908416815220546147259082614a9d565b6001600160a01b0380841660008181526009602052604090819020939093559151908516907fddf252ad1be2c89b69c2b068fc378daa952ba7f163c4a11628f55a4df523b3ef906147799085815260200190565b60405180910390a3505050565b6000806147938487614985565b905060006147a186856141a0565b905060006147af8783614985565b905060006147bd8285615294565b90506147d181670de0b6b3a76400006141a0565b905060006001546000546147e361277d565b6002546147f09190615e13565b6147fa9190615e13565b6148049190615e13565b9050614818670de0b6b3a7640000826141a0565b955061482d6148278c84614001565b87614985565b9b9a5050505050505050505050565b6000806148498685614985565b9050600060015460005461485b61277d565b6002546148689190615e13565b6148729190615e13565b61487c9190615e13565b90506000614892670de0b6b3a7640000836141a0565b905061489e8582614001565b905060006148b08a6141298c85614a9d565b905060006148be8286615294565b905060006148d4670de0b6b3a7640000836141a0565b90506148e08a82614001565b9c9b505050505050505050505050565b6000806148fd8685614985565b90506000614916614374670de0b6b3a7640000846141a0565b9050600061493085610a00670de0b6b3a7640000856141a0565b9050600061493e8a83614a9d565b9050600061494c828c614985565b9050600061495a8287615294565b90506000614968828c614001565b9050614974818c6141a0565b9d9c50505050505050505050505050565b6000816149c35760405162461bcd60e51b815260206004820152600c60248201526b4552525f4449565f5a45524f60a01b6044820152606401610948565b60006149d7670de0b6b3a764000085615f21565b90508315806149f65750670de0b6b3a76400006149f48583615dff565b145b614a355760405162461bcd60e51b815260206004820152601060248201526f11549497d1125597d25395115493905360821b6044820152606401610948565b6000614a42600285615dff565b614a4c9083615e13565b905081811015614a915760405162461bcd60e51b815260206004820152601060248201526f11549497d1125597d25395115493905360821b6044820152606401610948565b60006115688583615dff565b600080614aaa8385615e13565b905083811015613b325760405162461bcd60e51b815260206004820152601060248201526f4552525f4144445f4f564552464c4f5760801b6044820152606401610948565b6040516323b872dd60e01b81526000906001600160a01b038516906323b872dd9061425290869030908790600401615ea5565b61421081615729565b600080614b388685614985565b90506000614b468685614a9d565b90506000614b548288614985565b90506000614b6a670de0b6b3a764000085614985565b90506000614b788383615294565b90506000614b86828d614001565b90506000614b94828e6141a0565b90506000614bad614374670de0b6b3a76400008a6141a0565b905061439482614129670de0b6b3a7640000846141a0565b60008080614be287600360200201518860015b6020020151614985565b90506000614bf78860026020020151886141a0565b90506000614c0c896002602002015183614985565b90506000614c1a8285615294565b9050614c2e81670de0b6b3a76400006141a0565b90506000600154600054614c4061277d565b600254614c4d9190615e13565b614c579190615e13565b614c619190615e13565b8b51909150614c8690614c749084614001565b614129670de0b6b3a7640000846141a0565b96506000614ca6886146638a610a00670de0b6b3a764000061466361277d565b6001600160a01b038b16600090815260066020526040902054909150614ccc9082614a9d565b600660008c6001600160a01b03166001600160a01b03168152602001908152602001600020819055506000614d13896146638b610a00670de0b6b3a76400006000546141a0565b6001600160a01b03808d166000908152600860209081526040808320938f1683529290522054909150614d469082614a9d565b6001600160a01b03808d166000908152600860209081526040808320938f16835292905290812091909155600154614d93908b90614663908290610a0090670de0b6b3a7640000906141a0565b6001600160a01b038d16600090815260076020526040902054909150614db99082614a9d565b600760008e6001600160a01b03166001600160a01b0316815260200190815260200160002081905550614e1a614e068f600060048110614dfb57614dfb615f56565b602002015187614001565b614129670de0b6b3a76400006002546141a0565b98507f90d9f1d0641138b6407ac37bea3a905d63a371c2d91a484f68d59924634d4ef3614e598b6146638d610a00670de0b6b3a76400006002546141a0565b604080519182526020820186905281018490526001600160a01b038e16606082015260800160405180910390a1505050505050505094509492505050565b600e805462010000600160b01b031916620100006001600160a01b038a81169190910291909117909155600380546001600160a01b031916918816919091179055845160009086908290614eed57614eed615f56565b602002602001015160028190555085600181518110614f0e57614f0e615f56565b602002602001015160008190555085600281518110614f2f57614f2f615f56565b602090810291909101810151600155600e8054961515600160b01b0260ff60b01b199097169690961795869055601080548551600480546001600160a01b039283166001600160a01b03199182161790915596840151600580549183169189169190911790558551600f805491831691891691909117905594909201518416951515600160a01b908102959095166001600160a81b0319928316179590951790945550601480549093166201000090940416929092178217908190550460ff169392505050565b6000808061500d8760016020020151886003614bd8565b9050600061502d8761466389610a00670de0b6b3a764000061466361277d565b6001600160a01b0387166000908152600660205260409020549091506150539082614a9d565b60066000886001600160a01b03166001600160a01b0316815260200190815260200160002081905550600061509a886146638a610a00670de0b6b3a76400006001546141a0565b6001600160a01b0388166000908152600760205260409020549091506150c09082614a9d565b60076000896001600160a01b03166001600160a01b03168152602001908152602001600020819055506000615107896146638b610a00670de0b6b3a76400006000546141a0565b6001600160a01b03808a166000908152600860209081526040808320938c168352929052205490915061513a9082614a9d565b6001600160a01b03808a166000908152600860209081526040808320938c16835292905290812091909155600154815461517261277d565b60025461517f9190615e13565b6151899190615e13565b6151939190615e13565b90507f90d9f1d0641138b6407ac37bea3a905d63a371c2d91a484f68d59924634d4ef36151d28b6146638d610a00670de0b6b3a76400006002546141a0565b604080519182526020820187905281018490526001600160a01b038b16606082015260800160405180910390a16000615213670de0b6b3a7640000836141a0565b905061521f8b82614001565b8c51909150600090615235906141298185614a9d565b905060006152438289615294565b90506000615259670de0b6b3a7640000836141a0565b905061526c8f6002602002015182614001565b9a508a61527e8f896146598a8d615e13565b9a509a5050505050505050505094509492505050565b600060018310156152df5760405162461bcd60e51b81526020600482015260156024820152744552525f42504f575f424153455f544f4f5f4c4f5760581b6044820152606401610948565b60016152f4670de0b6b3a76400006002615f21565b6152fe919061601b565b8311156153465760405162461bcd60e51b815260206004820152601660248201527508aa4a4be84a09eaebe8482a68abea89e9ebe90928e960531b6044820152606401610948565b600061535183615798565b9050600061535f84836141a0565b9050600061537586615370856157b6565b6157ca565b905081615386579250610ea0915050565b60006153a987846153a46402540be400670de0b6b3a7640000615dff565b61583e565b90506153b58282614001565b979650505050505050565b6000808284106153df576153d4838561601b565b6000915091506153f0565b6153e9848461601b565b6001915091505b9250929050565b612f2b823083614674565b306000908152600960205260409020548111156154585760405162461bcd60e51b815260206004820152601460248201527311549497d25394d551919250d251539517d0905360621b6044820152606401610948565b3060009081526009602052604090205461547290826141a0565b30600090815260096020526040902055600b5461548f90826141a0565b600b5560405181815260009030907fddf252ad1be2c89b69c2b068fc378daa952ba7f163c4a11628f55a4df523b3ef906020015b60405180910390a350565b612f2b308383614674565b670de0b6b3a76400008110156155225760405162461bcd60e51b815260206004820152600e60248201526d11549497d3525397d5d15251d21560921b6044820152606401610948565b615535670de0b6b3a76400006032615f21565b8111156155755760405162461bcd60e51b815260206004820152600e60248201526d11549497d3505617d5d15251d21560921b6044820152606401610948565b61558c64e8d4a51000670de0b6b3a7640000615dff565b8210156155cd5760405162461bcd60e51b815260206004820152600f60248201526e4552525f4d494e5f42414c414e434560881b6044820152606401610948565b6001600160a01b038316600090815260126020526040902060020154808211156156695761560660135461560184846141a0565b614a9d565b60135561561c670de0b6b3a76400006032615f21565b60135411156156645760405162461bcd60e51b815260206004820152601460248201527311549497d3505617d513d5105317d5d15251d21560621b6044820152606401610948565b615685565b808210156156855761568160135461466383856141a0565b6013555b6001600160a01b038416600090815260126020526040902060028101839055600301805490849055808411156156ce576156c985336156c487856141a0565b614aef565b615722565b808410156157225760006156e282866141a0565b905060006156f1826000614001565b9050615707873361570285856141a0565b61421d565b60035461571f9088906001600160a01b03168361421d565b50505b5050505050565b306000908152600960205260409020546157439082614a9d565b30600090815260096020526040902055600b546157609082614a9d565b600b5560405181815230906000907fddf252ad1be2c89b69c2b068fc378daa952ba7f163c4a11628f55a4df523b3ef906020016154c3565b6000670de0b6b3a76400006157ac836157b6565b610ea09190615f21565b6000610ea0670de0b6b3a764000083615dff565b600082816157d9600285616032565b6157eb57670de0b6b3a76400006157ed565b815b90506157fa600285615dff565b93505b83156117cc5761580d8283614001565b915061581a600285616032565b1561582c576158298183614001565b90505b615837600285615dff565b93506157fd565b600082818061585587670de0b6b3a76400006153c0565b9092509050670de0b6b3a764000080600060015b88841061591f576000615884670de0b6b3a764000083615f21565b90506000806158a48a61589f85670de0b6b3a76400006141a0565b6153c0565b915091506158b687610a00848c614001565b96506158c28784614985565b9650866158d15750505061591f565b87156158db579315935b80156158e5579315935b84156158fc576158f586886141a0565b9550615909565b6159068688614a9d565b95505b505050808061591790615f6c565b915050615869565b50909998505050505050505050565b80356001600160a01b038116811461299657600080fd5b60008060006060848603121561595a57600080fd5b6159638461592e565b95602085013595506040909401359392505050565b600060208083528351808285015260005b818110156159a557858101830151858201604001528201615989565b818111156159b7576000604083870101525b50601f01601f1916929092016040019392505050565b600080604083850312156159e057600080fd5b6159e98361592e565b946020939093013593505050565b60008060008060008060c08789031215615a1057600080fd5b615a198761592e565b95506020870135945060408701359350615a356060880161592e565b92506080870135915060a087013590509295509295509295565b600081518084526020808501945080840160005b83811015615a885781516001600160a01b031687529582019590820190600101615a63565b509495945050505050565b604081526000615aa66040830185615a4f565b82810360208481019190915284518083528582019282019060005b81811015615add57845183529383019391830191600101615ac1565b5090979650505050505050565b60008060408385031215615afd57600080fd5b615b068361592e565b9150615b146020840161592e565b90509250929050565b600080600060608486031215615b3257600080fd5b615b3b8461592e565b9250615b496020850161592e565b9150604084013590509250925092565b600060208284031215615b6b57600080fd5b613b328261592e565b600060208284031215615b8657600080fd5b5035919050565b60008083601f840112615b9f57600080fd5b50813567ffffffffffffffff811115615bb757600080fd5b6020830191508360208260051b85010111156153f057600080fd5b600080600060408486031215615be757600080fd5b83359250602084013567ffffffffffffffff811115615c0557600080fd5b615c1186828701615b8d565b9497909650939450505050565b60008060008060008060c08789031215615c3757600080fd5b615c408761592e565b955060208701359450615c556040880161592e565b93506060870135925060808701359150615c7160a0880161592e565b90509295509295509295565b602081526000613b326020830184615a4f565b801515811461421057600080fd5b8060408101831015610ea057600080fd5b600080600080600080600080610120898b031215615ccc57600080fd5b615cd58961592e565b9750615ce360208a0161592e565b9650604089013567ffffffffffffffff811115615cff57600080fd5b615d0b8b828c01615b8d565b9097509550506060890135615d1f81615c90565b93506080890135615d2f81615c90565b9250615d3e8a60a08b01615c9e565b9150615d4d8a60e08b01615c9e565b90509295985092959890939650565b6020808252600b908201526a4552525f5245454e54525960a81b604082015260600190565b60208082526011908201527011549497d393d517d19253905312569151607a1b604082015260600190565b6020808252600d908201526c11549497d393d517d093d55391609a1b604082015260600190565b634e487b7160e01b600052601260045260246000fd5b634e487b7160e01b600052601160045260246000fd5b600082615e0e57615e0e615dd3565b500490565b60008219821115615e2657615e26615de9565b500190565b6020808252601190820152704552525f4d41585f4f55545f524154494f60781b604082015260600190565b6020808252600f908201526e08aa4a4be9a82a890be82a0a0a49eb608b1b604082015260600190565b6020808252600c908201526b22a9292fa624a6a4aa2fa4a760a11b604082015260600190565b6001600160a01b039384168152919092166020820152604081019190915260600190565b600060208284031215615edb57600080fd5b8151613b3281615c90565b600181811c90821680615efa57607f821691505b60208210811415615f1b57634e487b7160e01b600052602260045260246000fd5b50919050565b6000816000190483118215151615615f3b57615f3b615de9565b500290565b634e487b7160e01b600052604160045260246000fd5b634e487b7160e01b600052603260045260246000fd5b6000600019821415615f8057615f80615de9565b5060010190565b6020808252600d908201526c11549497d31253525517d3d555609a1b604082015260600190565b60208082526010908201526f4552525f4d41585f494e5f524154494f60801b604082015260600190565b600060208284031215615fea57600080fd5b5051919050565b6001600160a01b039485168152928416602084015292166040820152606081019190915260800190565b60008282101561602d5761602d615de9565b500390565b60008261604157616041615dd3565b50069056fe9d9058fd2f25ccc389fec7720abef0ca83472f5abfafd5f10d37f51e6a0493f387b3975661762d852ddf2eeaad6a43b2d93777de7b3b7bdb634283df32456118fcda32798d5a9d032f49b37fea876d422f18f6e386e0f07db6029b693624b2c215a8ca63e37b2cff1677df2b6b82d36fcf8a524228bd7a4b4d02d107c28c1e8a8c5be1e5ebec7d5bd14f71427d1e84f3dd0314c0f7b2291e5b200ac8c7c3b925a26469706673582212202f54a3feba6dfad885701473e905881527a567a50e3b127e176fb440f75be0f564736f6c634300080a0033",
  "linkReferences": {},
  "deployedLinkReferences": {}
}