{
  "_format": "hh-sol-artifact-1",
  "contractName": "BPool",
  "sourceName": "contracts/pools/balancer/BPool.sol",
  "abi": [
    {
      "anonymous": false,
      "inputs": [
        {
          "indexed": true,
          "internalType": "address",
          "name": "src",
          "type": "address"
        },
        {
          "indexed": true,
          "internalType": "address",
          "name": "dst",
          "type": "address"
        },
        {
          "indexed": false,
          "internalType": "uint256",
          "name": "amt",
          "type": "uint256"
        }
      ],
      "name": "Approval",
      "type": "event"
    },
    {
      "anonymous": false,
      "inputs": [
        {
          "indexed": false,
          "internalType": "uint256",
          "name": "bptAmount",
          "type": "uint256"
        }
      ],
      "name": "LOG_BPT",
      "type": "event"
    },
    {
      "anonymous": false,
      "inputs": [
        {
          "indexed": true,
          "internalType": "bytes4",
          "name": "sig",
          "type": "bytes4"
        },
        {
          "indexed": true,
          "internalType": "address",
          "name": "caller",
          "type": "address"
        },
        {
          "indexed": false,
          "internalType": "uint256",
          "name": "timestamp",
          "type": "uint256"
        },
        {
          "indexed": false,
          "internalType": "bytes",
          "name": "data",
          "type": "bytes"
        }
      ],
      "name": "LOG_CALL",
      "type": "event"
    },
    {
      "anonymous": false,
      "inputs": [
        {
          "indexed": true,
          "internalType": "address",
          "name": "caller",
          "type": "address"
        },
        {
          "indexed": true,
          "internalType": "address",
          "name": "tokenOut",
          "type": "address"
        },
        {
          "indexed": false,
          "internalType": "uint256",
          "name": "tokenAmountOut",
          "type": "uint256"
        },
        {
          "indexed": false,
          "internalType": "uint256",
          "name": "timestamp",
          "type": "uint256"
        }
      ],
      "name": "LOG_EXIT",
      "type": "event"
    },
    {
      "anonymous": false,
      "inputs": [
        {
          "indexed": true,
          "internalType": "address",
          "name": "caller",
          "type": "address"
        },
        {
          "indexed": true,
          "internalType": "address",
          "name": "tokenIn",
          "type": "address"
        },
        {
          "indexed": false,
          "internalType": "uint256",
          "name": "tokenAmountIn",
          "type": "uint256"
        },
        {
          "indexed": false,
          "internalType": "uint256",
          "name": "timestamp",
          "type": "uint256"
        }
      ],
      "name": "LOG_JOIN",
      "type": "event"
    },
    {
      "anonymous": false,
      "inputs": [
        {
          "indexed": true,
          "internalType": "address",
          "name": "caller",
          "type": "address"
        },
        {
          "indexed": true,
          "internalType": "address",
          "name": "tokenIn",
          "type": "address"
        },
        {
          "indexed": true,
          "internalType": "address",
          "name": "tokenOut",
          "type": "address"
        },
        {
          "indexed": false,
          "internalType": "uint256",
          "name": "tokenAmountIn",
          "type": "uint256"
        },
        {
          "indexed": false,
          "internalType": "uint256",
          "name": "tokenAmountOut",
          "type": "uint256"
        },
        {
          "indexed": false,
          "internalType": "uint256",
          "name": "timestamp",
          "type": "uint256"
        }
      ],
      "name": "LOG_SWAP",
      "type": "event"
    },
    {
      "anonymous": false,
      "inputs": [
        {
          "indexed": false,
          "internalType": "uint256",
          "name": "swapFeeAmount",
          "type": "uint256"
        },
        {
          "indexed": false,
          "internalType": "uint256",
          "name": "oceanFeeAmount",
          "type": "uint256"
        },
        {
          "indexed": false,
          "internalType": "uint256",
          "name": "marketFeeAmount",
          "type": "uint256"
        },
        {
          "indexed": false,
          "internalType": "address",
          "name": "tokenFees",
          "type": "address"
        }
      ],
      "name": "SWAP_FEES",
      "type": "event"
    },
    {
      "anonymous": false,
      "inputs": [
        {
          "indexed": true,
          "internalType": "address",
          "name": "src",
          "type": "address"
        },
        {
          "indexed": true,
          "internalType": "address",
          "name": "dst",
          "type": "address"
        },
        {
          "indexed": false,
          "internalType": "uint256",
          "name": "amt",
          "type": "uint256"
        }
      ],
      "name": "Transfer",
      "type": "event"
    },
    {
      "inputs": [],
      "name": "BONE",
      "outputs": [
        {
          "internalType": "uint256",
          "name": "",
          "type": "uint256"
        }
      ],
      "stateMutability": "view",
      "type": "function"
    },
    {
      "inputs": [],
      "name": "BPOW_PRECISION",
      "outputs": [
        {
          "internalType": "uint256",
          "name": "",
          "type": "uint256"
        }
      ],
      "stateMutability": "view",
      "type": "function"
    },
    {
      "inputs": [],
      "name": "EXIT_FEE",
      "outputs": [
        {
          "internalType": "uint256",
          "name": "",
          "type": "uint256"
        }
      ],
      "stateMutability": "view",
      "type": "function"
    },
    {
      "inputs": [],
      "name": "INIT_POOL_SUPPLY",
      "outputs": [
        {
          "internalType": "uint256",
          "name": "",
          "type": "uint256"
        }
      ],
      "stateMutability": "view",
      "type": "function"
    },
    {
      "inputs": [],
      "name": "MAX_BOUND_TOKENS",
      "outputs": [
        {
          "internalType": "uint256",
          "name": "",
          "type": "uint256"
        }
      ],
      "stateMutability": "view",
      "type": "function"
    },
    {
      "inputs": [],
      "name": "MAX_BPOW_BASE",
      "outputs": [
        {
          "internalType": "uint256",
          "name": "",
          "type": "uint256"
        }
      ],
      "stateMutability": "view",
      "type": "function"
    },
    {
      "inputs": [],
      "name": "MAX_FEE",
      "outputs": [
        {
          "internalType": "uint256",
          "name": "",
          "type": "uint256"
        }
      ],
      "stateMutability": "view",
      "type": "function"
    },
    {
      "inputs": [],
      "name": "MAX_IN_RATIO",
      "outputs": [
        {
          "internalType": "uint256",
          "name": "",
          "type": "uint256"
        }
      ],
      "stateMutability": "view",
      "type": "function"
    },
    {
      "inputs": [],
      "name": "MAX_OUT_RATIO",
      "outputs": [
        {
          "internalType": "uint256",
          "name": "",
          "type": "uint256"
        }
      ],
      "stateMutability": "view",
      "type": "function"
    },
    {
      "inputs": [],
      "name": "MAX_TOTAL_WEIGHT",
      "outputs": [
        {
          "internalType": "uint256",
          "name": "",
          "type": "uint256"
        }
      ],
      "stateMutability": "view",
      "type": "function"
    },
    {
      "inputs": [],
      "name": "MAX_WEIGHT",
      "outputs": [
        {
          "internalType": "uint256",
          "name": "",
          "type": "uint256"
        }
      ],
      "stateMutability": "view",
      "type": "function"
    },
    {
      "inputs": [],
      "name": "MIN_BALANCE",
      "outputs": [
        {
          "internalType": "uint256",
          "name": "",
          "type": "uint256"
        }
      ],
      "stateMutability": "view",
      "type": "function"
    },
    {
      "inputs": [],
      "name": "MIN_BOUND_TOKENS",
      "outputs": [
        {
          "internalType": "uint256",
          "name": "",
          "type": "uint256"
        }
      ],
      "stateMutability": "view",
      "type": "function"
    },
    {
      "inputs": [],
      "name": "MIN_BPOW_BASE",
      "outputs": [
        {
          "internalType": "uint256",
          "name": "",
          "type": "uint256"
        }
      ],
      "stateMutability": "view",
      "type": "function"
    },
    {
      "inputs": [],
      "name": "MIN_FEE",
      "outputs": [
        {
          "internalType": "uint256",
          "name": "",
          "type": "uint256"
        }
      ],
      "stateMutability": "view",
      "type": "function"
    },
    {
      "inputs": [],
      "name": "MIN_WEIGHT",
      "outputs": [
        {
          "internalType": "uint256",
          "name": "",
          "type": "uint256"
        }
      ],
      "stateMutability": "view",
      "type": "function"
    },
    {
      "inputs": [],
      "name": "_marketCollector",
      "outputs": [
        {
          "internalType": "address",
          "name": "",
          "type": "address"
        }
      ],
      "stateMutability": "view",
      "type": "function"
    },
    {
      "inputs": [],
      "name": "_opfCollector",
      "outputs": [
        {
          "internalType": "address",
          "name": "",
          "type": "address"
        }
      ],
      "stateMutability": "view",
      "type": "function"
    },
    {
      "inputs": [],
      "name": "_swapMarketFee",
      "outputs": [
        {
          "internalType": "uint256",
          "name": "",
          "type": "uint256"
        }
      ],
      "stateMutability": "view",
      "type": "function"
    },
    {
      "inputs": [
        {
          "internalType": "address",
          "name": "src",
          "type": "address"
        },
        {
          "internalType": "address",
          "name": "dst",
          "type": "address"
        }
      ],
      "name": "allowance",
      "outputs": [
        {
          "internalType": "uint256",
          "name": "",
          "type": "uint256"
        }
      ],
      "stateMutability": "view",
      "type": "function"
    },
    {
      "inputs": [
        {
          "internalType": "address",
          "name": "dst",
          "type": "address"
        },
        {
          "internalType": "uint256",
          "name": "amt",
          "type": "uint256"
        }
      ],
      "name": "approve",
      "outputs": [
        {
          "internalType": "bool",
          "name": "",
          "type": "bool"
        }
      ],
      "stateMutability": "nonpayable",
      "type": "function"
    },
    {
      "inputs": [
        {
          "internalType": "address",
          "name": "whom",
          "type": "address"
        }
      ],
      "name": "balanceOf",
      "outputs": [
        {
          "internalType": "uint256",
          "name": "",
          "type": "uint256"
        }
      ],
      "stateMutability": "view",
      "type": "function"
    },
    {
      "inputs": [
        {
          "internalType": "address",
          "name": "tokenOut",
          "type": "address"
        },
        {
          "internalType": "uint256",
          "name": "tokenAmountOut",
          "type": "uint256"
        }
      ],
      "name": "calcPoolInSingleOut",
      "outputs": [
        {
          "internalType": "uint256",
          "name": "poolAmountIn",
          "type": "uint256"
        }
      ],
      "stateMutability": "view",
      "type": "function"
    },
    {
      "inputs": [
        {
          "internalType": "address",
          "name": "tokenIn",
          "type": "address"
        },
        {
          "internalType": "uint256",
          "name": "tokenAmountIn",
          "type": "uint256"
        }
      ],
      "name": "calcPoolOutSingleIn",
      "outputs": [
        {
          "internalType": "uint256",
          "name": "poolAmountOut",
          "type": "uint256"
        }
      ],
      "stateMutability": "view",
      "type": "function"
    },
    {
      "inputs": [
        {
          "internalType": "address",
          "name": "tokenIn",
          "type": "address"
        },
        {
          "internalType": "uint256",
          "name": "poolAmountOut",
          "type": "uint256"
        }
      ],
      "name": "calcSingleInPoolOut",
      "outputs": [
        {
          "internalType": "uint256",
          "name": "tokenAmountIn",
          "type": "uint256"
        }
      ],
      "stateMutability": "view",
      "type": "function"
    },
    {
      "inputs": [
        {
          "internalType": "address",
          "name": "tokenOut",
          "type": "address"
        },
        {
          "internalType": "uint256",
          "name": "poolAmountIn",
          "type": "uint256"
        }
      ],
      "name": "calcSingleOutPoolIn",
      "outputs": [
        {
          "internalType": "uint256",
          "name": "tokenAmountOut",
          "type": "uint256"
        }
      ],
      "stateMutability": "view",
      "type": "function"
    },
    {
      "inputs": [
        {
          "internalType": "address",
          "name": "to",
          "type": "address"
        }
      ],
      "name": "collectMarketFee",
      "outputs": [],
      "stateMutability": "nonpayable",
      "type": "function"
    },
    {
      "inputs": [],
      "name": "collectOPF",
      "outputs": [],
      "stateMutability": "nonpayable",
      "type": "function"
    },
    {
      "inputs": [
        {
          "internalType": "address",
          "name": "",
          "type": "address"
        }
      ],
      "name": "communityFees",
      "outputs": [
        {
          "internalType": "uint256",
          "name": "",
          "type": "uint256"
        }
      ],
      "stateMutability": "view",
      "type": "function"
    },
    {
      "inputs": [],
      "name": "decimals",
      "outputs": [
        {
          "internalType": "uint8",
          "name": "",
          "type": "uint8"
        }
      ],
      "stateMutability": "view",
      "type": "function"
    },
    {
      "inputs": [
        {
          "internalType": "address",
          "name": "dst",
          "type": "address"
        },
        {
          "internalType": "uint256",
          "name": "amt",
          "type": "uint256"
        }
      ],
      "name": "decreaseApproval",
      "outputs": [
        {
          "internalType": "bool",
          "name": "",
          "type": "bool"
        }
      ],
      "stateMutability": "nonpayable",
      "type": "function"
    },
    {
      "inputs": [
        {
          "internalType": "uint256",
          "name": "poolAmountIn",
          "type": "uint256"
        },
        {
          "internalType": "uint256[]",
          "name": "minAmountsOut",
          "type": "uint256[]"
        }
      ],
      "name": "exitPool",
      "outputs": [],
      "stateMutability": "nonpayable",
      "type": "function"
    },
    {
      "inputs": [
        {
          "internalType": "address",
          "name": "tokenOut",
          "type": "address"
        },
        {
          "internalType": "uint256",
          "name": "tokenAmountOut",
          "type": "uint256"
        },
        {
          "internalType": "uint256",
          "name": "maxPoolAmountIn",
          "type": "uint256"
        }
      ],
      "name": "exitswapExternAmountOut",
      "outputs": [
        {
          "internalType": "uint256",
          "name": "poolAmountIn",
          "type": "uint256"
        }
      ],
      "stateMutability": "nonpayable",
      "type": "function"
    },
    {
      "inputs": [
        {
          "internalType": "address",
          "name": "tokenOut",
          "type": "address"
        },
        {
          "internalType": "uint256",
          "name": "poolAmountIn",
          "type": "uint256"
        },
        {
          "internalType": "uint256",
          "name": "minAmountOut",
          "type": "uint256"
        }
      ],
      "name": "exitswapPoolAmountIn",
      "outputs": [
        {
          "internalType": "uint256",
          "name": "tokenAmountOut",
          "type": "uint256"
        }
      ],
      "stateMutability": "nonpayable",
      "type": "function"
    },
    {
      "inputs": [
        {
          "internalType": "address",
          "name": "tokenIn",
          "type": "address"
        },
        {
          "internalType": "address",
          "name": "tokenOut",
          "type": "address"
        },
        {
          "internalType": "uint256",
          "name": "tokenAmountOut",
          "type": "uint256"
        }
      ],
      "name": "getAmountInExactOut",
      "outputs": [
        {
          "internalType": "uint256",
          "name": "tokenAmountIn",
          "type": "uint256"
        }
      ],
      "stateMutability": "view",
      "type": "function"
    },
    {
      "inputs": [
        {
          "internalType": "address",
          "name": "tokenIn",
          "type": "address"
        },
        {
          "internalType": "address",
          "name": "tokenOut",
          "type": "address"
        },
        {
          "internalType": "uint256",
          "name": "tokenAmountIn",
          "type": "uint256"
        }
      ],
      "name": "getAmountOutExactIn",
      "outputs": [
        {
          "internalType": "uint256",
          "name": "tokenAmountOut",
          "type": "uint256"
        }
      ],
      "stateMutability": "view",
      "type": "function"
    },
    {
      "inputs": [
        {
          "internalType": "address",
          "name": "token",
          "type": "address"
        }
      ],
      "name": "getBalance",
      "outputs": [
        {
          "internalType": "uint256",
          "name": "",
          "type": "uint256"
        }
      ],
      "stateMutability": "view",
      "type": "function"
    },
    {
      "inputs": [],
      "name": "getBaseTokenAddress",
      "outputs": [
        {
          "internalType": "address",
          "name": "",
          "type": "address"
        }
      ],
      "stateMutability": "view",
      "type": "function"
    },
    {
      "inputs": [],
      "name": "getController",
      "outputs": [
        {
          "internalType": "address",
          "name": "",
          "type": "address"
        }
      ],
      "stateMutability": "view",
      "type": "function"
    },
    {
      "inputs": [],
      "name": "getCurrentTokens",
      "outputs": [
        {
          "internalType": "address[]",
          "name": "tokens",
          "type": "address[]"
        }
      ],
      "stateMutability": "view",
      "type": "function"
    },
    {
      "inputs": [],
      "name": "getDataTokenAddress",
      "outputs": [
        {
          "internalType": "address",
          "name": "",
          "type": "address"
        }
      ],
      "stateMutability": "view",
      "type": "function"
    },
    {
      "inputs": [
        {
          "internalType": "address",
          "name": "token",
          "type": "address"
        }
      ],
      "name": "getDenormalizedWeight",
      "outputs": [
        {
          "internalType": "uint256",
          "name": "",
          "type": "uint256"
        }
      ],
      "stateMutability": "view",
      "type": "function"
    },
    {
      "inputs": [],
      "name": "getFinalTokens",
      "outputs": [
        {
          "internalType": "address[]",
          "name": "tokens",
          "type": "address[]"
        }
      ],
      "stateMutability": "view",
      "type": "function"
    },
    {
      "inputs": [
        {
          "internalType": "address",
          "name": "token",
          "type": "address"
        }
      ],
      "name": "getNormalizedWeight",
      "outputs": [
        {
          "internalType": "uint256",
          "name": "",
          "type": "uint256"
        }
      ],
      "stateMutability": "view",
      "type": "function"
    },
    {
      "inputs": [],
      "name": "getNumTokens",
      "outputs": [
        {
          "internalType": "uint256",
          "name": "",
          "type": "uint256"
        }
      ],
      "stateMutability": "view",
      "type": "function"
    },
    {
      "inputs": [],
      "name": "getOPFFee",
      "outputs": [
        {
          "internalType": "uint256",
          "name": "",
          "type": "uint256"
        }
      ],
      "stateMutability": "view",
      "type": "function"
    },
    {
      "inputs": [
        {
          "internalType": "address",
          "name": "tokenIn",
          "type": "address"
        },
        {
          "internalType": "address",
          "name": "tokenOut",
          "type": "address"
        }
      ],
      "name": "getSpotPrice",
      "outputs": [
        {
          "internalType": "uint256",
          "name": "spotPrice",
          "type": "uint256"
        }
      ],
      "stateMutability": "view",
      "type": "function"
    },
    {
      "inputs": [],
      "name": "getSwapFee",
      "outputs": [
        {
          "internalType": "uint256",
          "name": "",
          "type": "uint256"
        }
      ],
      "stateMutability": "view",
      "type": "function"
    },
    {
      "inputs": [],
      "name": "getTotalDenormalizedWeight",
      "outputs": [
        {
          "internalType": "uint256",
          "name": "",
          "type": "uint256"
        }
      ],
      "stateMutability": "view",
      "type": "function"
    },
    {
      "inputs": [
        {
          "internalType": "address",
          "name": "dst",
          "type": "address"
        },
        {
          "internalType": "uint256",
          "name": "amt",
          "type": "uint256"
        }
      ],
      "name": "increaseApproval",
      "outputs": [
        {
          "internalType": "bool",
          "name": "",
          "type": "bool"
        }
      ],
      "stateMutability": "nonpayable",
      "type": "function"
    },
    {
      "inputs": [
        {
          "internalType": "address",
          "name": "controller",
          "type": "address"
        },
        {
          "internalType": "address",
          "name": "factory",
          "type": "address"
        },
        {
          "internalType": "uint256[]",
          "name": "swapFees",
          "type": "uint256[]"
        },
        {
          "internalType": "bool",
          "name": "publicSwap",
          "type": "bool"
        },
        {
          "internalType": "bool",
          "name": "finalized",
          "type": "bool"
        },
        {
          "internalType": "address[2]",
          "name": "tokens",
          "type": "address[2]"
        },
        {
          "internalType": "address[2]",
          "name": "feeCollectors",
          "type": "address[2]"
        }
      ],
      "name": "initialize",
      "outputs": [
        {
          "internalType": "bool",
          "name": "",
          "type": "bool"
        }
      ],
      "stateMutability": "nonpayable",
      "type": "function"
    },
    {
      "inputs": [
        {
          "internalType": "address",
          "name": "t",
          "type": "address"
        }
      ],
      "name": "isBound",
      "outputs": [
        {
          "internalType": "bool",
          "name": "",
          "type": "bool"
        }
      ],
      "stateMutability": "view",
      "type": "function"
    },
    {
      "inputs": [],
      "name": "isFinalized",
      "outputs": [
        {
          "internalType": "bool",
          "name": "",
          "type": "bool"
        }
      ],
      "stateMutability": "view",
      "type": "function"
    },
    {
      "inputs": [],
      "name": "isInitialized",
      "outputs": [
        {
          "internalType": "bool",
          "name": "",
          "type": "bool"
        }
      ],
      "stateMutability": "view",
      "type": "function"
    },
    {
      "inputs": [],
      "name": "isPublicSwap",
      "outputs": [
        {
          "internalType": "bool",
          "name": "",
          "type": "bool"
        }
      ],
      "stateMutability": "view",
      "type": "function"
    },
    {
      "inputs": [
        {
          "internalType": "uint256",
          "name": "poolAmountOut",
          "type": "uint256"
        },
        {
          "internalType": "uint256[]",
          "name": "maxAmountsIn",
          "type": "uint256[]"
        }
      ],
      "name": "joinPool",
      "outputs": [],
      "stateMutability": "nonpayable",
      "type": "function"
    },
    {
      "inputs": [
        {
          "internalType": "address",
          "name": "tokenIn",
          "type": "address"
        },
        {
          "internalType": "uint256",
          "name": "tokenAmountIn",
          "type": "uint256"
        },
        {
          "internalType": "uint256",
          "name": "minPoolAmountOut",
          "type": "uint256"
        }
      ],
      "name": "joinswapExternAmountIn",
      "outputs": [
        {
          "internalType": "uint256",
          "name": "poolAmountOut",
          "type": "uint256"
        }
      ],
      "stateMutability": "nonpayable",
      "type": "function"
    },
    {
      "inputs": [
        {
          "internalType": "address",
          "name": "tokenIn",
          "type": "address"
        },
        {
          "internalType": "uint256",
          "name": "poolAmountOut",
          "type": "uint256"
        },
        {
          "internalType": "uint256",
          "name": "maxAmountIn",
          "type": "uint256"
        }
      ],
      "name": "joinswapPoolAmountOut",
      "outputs": [
        {
          "internalType": "uint256",
          "name": "tokenAmountIn",
          "type": "uint256"
        }
      ],
      "stateMutability": "nonpayable",
      "type": "function"
    },
    {
      "inputs": [
        {
          "internalType": "address",
          "name": "",
          "type": "address"
        }
      ],
      "name": "marketFees",
      "outputs": [
        {
          "internalType": "uint256",
          "name": "",
          "type": "uint256"
        }
      ],
      "stateMutability": "view",
      "type": "function"
    },
    {
      "inputs": [],
      "name": "name",
      "outputs": [
        {
          "internalType": "string",
          "name": "",
          "type": "string"
        }
      ],
      "stateMutability": "view",
      "type": "function"
    },
    {
      "inputs": [
        {
          "internalType": "address",
          "name": "dataTokenAddress",
          "type": "address"
        },
        {
          "internalType": "uint256",
          "name": "dataTokenAmount",
          "type": "uint256"
        },
        {
          "internalType": "uint256",
          "name": "dataTokenWeight",
          "type": "uint256"
        },
        {
          "internalType": "address",
          "name": "baseTokenAddress",
          "type": "address"
        },
        {
          "internalType": "uint256",
          "name": "baseTokenAmount",
          "type": "uint256"
        },
        {
          "internalType": "uint256",
          "name": "baseTokenWeight",
          "type": "uint256"
        }
      ],
      "name": "setup",
      "outputs": [],
      "stateMutability": "nonpayable",
      "type": "function"
    },
    {
      "inputs": [
        {
          "internalType": "address",
          "name": "tokenIn",
          "type": "address"
        },
        {
          "internalType": "uint256",
          "name": "tokenAmountIn",
          "type": "uint256"
        },
        {
          "internalType": "address",
          "name": "tokenOut",
          "type": "address"
        },
        {
          "internalType": "uint256",
          "name": "minAmountOut",
          "type": "uint256"
        },
        {
          "internalType": "uint256",
          "name": "maxPrice",
          "type": "uint256"
        }
      ],
      "name": "swapExactAmountIn",
      "outputs": [
        {
          "internalType": "uint256",
          "name": "tokenAmountOut",
          "type": "uint256"
        },
        {
          "internalType": "uint256",
          "name": "spotPriceAfter",
          "type": "uint256"
        }
      ],
      "stateMutability": "nonpayable",
      "type": "function"
    },
    {
      "inputs": [
        {
          "internalType": "address",
          "name": "tokenIn",
          "type": "address"
        },
        {
          "internalType": "uint256",
          "name": "maxAmountIn",
          "type": "uint256"
        },
        {
          "internalType": "address",
          "name": "tokenOut",
          "type": "address"
        },
        {
          "internalType": "uint256",
          "name": "tokenAmountOut",
          "type": "uint256"
        },
        {
          "internalType": "uint256",
          "name": "maxPrice",
          "type": "uint256"
        }
      ],
      "name": "swapExactAmountOut",
      "outputs": [
        {
          "internalType": "uint256",
          "name": "tokenAmountIn",
          "type": "uint256"
        },
        {
          "internalType": "uint256",
          "name": "spotPriceAfter",
          "type": "uint256"
        }
      ],
      "stateMutability": "nonpayable",
      "type": "function"
    },
    {
      "inputs": [],
      "name": "symbol",
      "outputs": [
        {
          "internalType": "string",
          "name": "",
          "type": "string"
        }
      ],
      "stateMutability": "view",
      "type": "function"
    },
    {
      "inputs": [],
      "name": "totalSupply",
      "outputs": [
        {
          "internalType": "uint256",
          "name": "",
          "type": "uint256"
        }
      ],
      "stateMutability": "view",
      "type": "function"
    },
    {
      "inputs": [
        {
          "internalType": "address",
          "name": "dst",
          "type": "address"
        },
        {
          "internalType": "uint256",
          "name": "amt",
          "type": "uint256"
        }
      ],
      "name": "transfer",
      "outputs": [
        {
          "internalType": "bool",
          "name": "",
          "type": "bool"
        }
      ],
      "stateMutability": "nonpayable",
      "type": "function"
    },
    {
      "inputs": [
        {
          "internalType": "address",
          "name": "src",
          "type": "address"
        },
        {
          "internalType": "address",
          "name": "dst",
          "type": "address"
        },
        {
          "internalType": "uint256",
          "name": "amt",
          "type": "uint256"
        }
      ],
      "name": "transferFrom",
      "outputs": [
        {
          "internalType": "bool",
          "name": "",
          "type": "bool"
        }
      ],
      "stateMutability": "nonpayable",
      "type": "function"
    },
    {
      "inputs": [
        {
          "internalType": "address",
          "name": "_newCollector",
          "type": "address"
        }
      ],
      "name": "updateMarketFeeCollector",
      "outputs": [],
      "stateMutability": "nonpayable",
      "type": "function"
    }
  ],
  "bytecode": "0x60c0604052601360808190527f42616c616e63657220506f6f6c20546f6b656e0000000000000000000000000060a09081526200004091600a91906200008f565b506040805180820190915260038082526210941560ea1b60209092019182526200006d91600b916200008f565b50600c805460ff191660121790553480156200008857600080fd5b5062000172565b8280546200009d9062000135565b90600052602060002090601f016020900481019282620000c157600085556200010c565b82601f10620000dc57805160ff19168380011785556200010c565b828001600101855582156200010c579182015b828111156200010c578251825591602001919060010190620000ef565b506200011a9291506200011e565b5090565b5b808211156200011a57600081556001016200011f565b600181811c908216806200014a57607f821691505b602082108114156200016c57634e487b7160e01b600052602260045260246000fd5b50919050565b6155ba80620001826000396000f3fe608060405234801561001057600080fd5b50600436106103fc5760003560e01c8063867378c511610215578063c070a6d811610125578063e4a28a52116100b8578063f68045a511610087578063f68045a514610857578063f8b2cb4f1461085f578063fbb9dd5014610872578063fde924f714610885578063ff9b18501461089757600080fd5b8063e4a28a5214610484578063ec09302114610829578063f0f13f0b14610831578063f1b8a9b71461084457600080fd5b8063cd2ed8fb116100f4578063cd2ed8fb146107cd578063d4cadf68146107d5578063d73dd623146107dd578063dd62ed3e146107f057600080fd5b8063c070a6d8146107aa578063c36596a6146104c4578063c6580d12146107bd578063cc77828d146107c557600080fd5b8063a562ddf0116101a8578063b7b800a411610177578063b7b800a414610775578063ba019dab1461077d578063bc063e1a14610785578063bc694ea21461078d578063be3bbd2e1461079557600080fd5b8063a562ddf01461073c578063a9059cbb1461074f578063b02f0b7314610762578063b0e0d1361461077557600080fd5b8063948d8ce6116101e4578063948d8ce61461070657806395d89b4114610719578063992e2a9214610721578063a3b3a16d1461072957600080fd5b8063867378c5146106dc5780638d4e4083146106e4578063936c3477146106f65780639381cd2b146106fe57600080fd5b8063380376a6116103105780635db34277116102a35780637033051811610272578063703305181461065d57806370a082311461067057806376c7a3c7146106995780637c5e9ea4146106a15780638201aa3f146106c957600080fd5b80635db342771461061c578063661884631461062f5780636d06dfa014610642578063700dd7e81461065557600080fd5b806346ab38f1116102df57806346ab38f1146105dc57806349e9350f146105ef5780634df947d0146105f85780634f69c0d41461060957600080fd5b8063380376a614610591578063392e53cd146105a45780633950b3fd146105b6578063430ed5d0146105c957600080fd5b8063189d00ca116103935780632f37b624116103625780632f37b624146104f957806330062192146105255780633018205f14610545578063313ce5671461055c57806331e2761b1461057157600080fd5b8063189d00ca146104bc578063218b5382146104c457806323b872dd146104d35780632ea07d8a146104e657600080fd5b806309a3bbe4116103cf57806309a3bbe41461048457806309ef3f5b1461048c57806315e84af9146104a157806318160ddd146104b457600080fd5b806302c967481461040157806304ad79541461042757806306fdde031461044c578063095ea7b314610461575b600080fd5b61041461040f3660046150d3565b6108aa565b6040519081526020015b60405180910390f35b6003546001600160a01b03165b6040516001600160a01b03909116815260200161041e565b610454610d26565b60405161041e9190615251565b61047461046f36600461505b565b610db8565b604051901515815260200161041e565b610414610e13565b61049f61049a366004615106565b610e29565b005b6104146104af366004614f3f565b610fc8565b600954610414565b6104146110ac565b610414670de0b6b3a764000081565b6104746104e136600461501f565b6110c3565b6104146104f436600461501f565b611217565b610474610507366004614f24565b6001600160a01b031660009081526010602052604090205460ff1690565b610414610533366004614f24565b60056020526000908152604090205481565b600c546201000090046001600160a01b0316610434565b600c5460405160ff909116815260200161041e565b61041461057f366004614f24565b60066020526000908152604090205481565b61041461059f36600461501f565b6112d2565b601254600160a01b900460ff16610474565b6104146105c436600461505b565b611383565b6104146105d736600461505b565b6113eb565b6104146105ea3660046150d3565b61144b565b61041460005481565b6004546001600160a01b0316610434565b61049f610617366004615194565b611842565b61041461062a3660046150d3565b611a69565b61047461063d36600461505b565b611e74565b6104146106503660046150d3565b611f4a565b610414612339565b61049f61066b366004614f24565b6123c2565b61041461067e366004614f24565b6001600160a01b031660009081526007602052604090205490565b610414612436565b6106b46106af366004615085565b61244b565b6040805192835260208301919091520161041e565b6106b46106d7366004615085565b61279c565b610414612ad1565b600e54600160a01b900460ff16610474565b610414612ae8565b610414612b1a565b610414610714366004614f24565b612b2d565b610454612bb3565b610414612bc2565b61041461073736600461505b565b612be0565b600d54610434906001600160a01b031681565b61047461075d36600461505b565b612c40565b61049f610770366004615194565b612c56565b610414600281565b610414600181565b610414612e91565b610414612ea4565b61079d612ec3565b60405161041e9190615204565b6104746107b8366004614f72565b612f76565b610414600081565b61079d6131e6565b600f54610414565b600154610414565b6104746107eb36600461505b565b613211565b6104146107fe366004614f3f565b6001600160a01b03918216600090815260086020908152604080832093909416825291909152205490565b610414613284565b600e54610434906001600160a01b031681565b610414610852366004614f24565b613297565b61049f61332b565b61041461086d366004614f24565b613485565b61049f610880366004614f24565b613507565b600c54600160b01b900460ff16610474565b6104146108a536600461505b565b6136b2565b600c54600090610100900460ff16156108de5760405162461bcd60e51b81526004016108d590615346565b60405180910390fd5b600c805461ff001916610100179055600e54600160a01b900460ff166109165760405162461bcd60e51b81526004016108d5906153bd565b6001600160a01b03841660009081526010602052604090205460ff1661094e5760405162461bcd60e51b81526004016108d590615396565b6001600160a01b03841660009081526010602052604090206003908101546109929161098290670de0b6b3a7640000615400565b61098d9060016153e8565b613712565b8311156109b15760405162461bcd60e51b81526004016108d59061536b565b6003546001600160a01b0390811660008181526010602052604081209092909190871614156109ed576004546001600160a01b03169150610a12565b50506003546004546001600160a01b0390811660009081526010602052604090209116905b6001600160a01b038616600090815260106020526040902060038101546002820154600954601154610a47939291908a6137ed565b935083610a665760405162461bcd60e51b81526004016108d5906152d0565b84841115610a865760405162461bcd60e51b81526004016108d590615320565b610a948160030154876138b1565b60038201556000610aa58582613712565b604080518981524260208201529192506001600160a01b038a16913391600080516020615505833981519152910160405180910390a36040518581526000805160206155258339815191529060200160405180910390a1610b06338661390e565b610b18610b1386836138b1565b613918565b600254610b2e906001600160a01b031682613924565b610b3988338961392e565b6000610b54846003015485600201546009546011548a6139fc565b60125460035460405163efd4810360e01b81529293506001600160a01b039182169263efd4810392610b8e921690899086906004016151e0565b60206040518083038186803b158015610ba657600080fd5b505afa158015610bba573d6000803e3d6000fd5b505050506040513d601f19601f82011682018060405250810190610bde919061515e565b151560011415610d0f57610bf68460030154826138b1565b6003850155610c06866000613712565b600c54604080518481524260208201529294506001600160a01b0388811693620100009093041691600080516020615505833981519152910160405180910390a3600c54610c63906201000090046001600160a01b03168761390e565b610c70610b1387846138b1565b600254610c86906001600160a01b031683613924565b600c54610ca49086906201000090046001600160a01b03168361392e565b60125460035460405163679346f560e11b81526001600160a01b039283169263cf268dea92610cdc92911690899086906004016151e0565b600060405180830381600087803b158015610cf657600080fd5b505af1158015610d0a573d6000803e3d6000fd5b505050505b5050505050600c805461ff00191690559392505050565b6060600a8054610d359061544a565b80601f0160208091040260200160405190810160405280929190818152602001828054610d619061544a565b8015610dae5780601f10610d8357610100808354040283529160200191610dae565b820191906000526020600020905b815481529060010190602001808311610d9157829003601f168201915b5050505050905090565b3360008181526008602090815260408083206001600160a01b0387168085529252808320859055519192909160008051602061556583398151915290610e019086815260200190565b60405180910390a35060015b92915050565b610e26670de0b6b3a76400006032615414565b81565b600c546201000090046001600160a01b03163314610e825760405162461bcd60e51b815260206004820152601660248201527522a9292fa4a72b20a624a22fa1a7a72a2927a62622a960511b60448201526064016108d5565b6003546001600160a01b03878116911614610edf5760405162461bcd60e51b815260206004820152601d60248201527f4552525f494e56414c49445f44415441544f4b454e5f4144445245535300000060448201526064016108d5565b6004546001600160a01b03848116911614610f3c5760405162461bcd60e51b815260206004820152601d60248201527f4552525f494e56414c49445f42415345544f4b454e5f4144445245535300000060448201526064016108d5565b610f47868686613ac6565b604080518681524260208201526001600160a01b038816913391600080516020615545833981519152910160405180910390a3610f85838383613ac6565b604080518381524260208201526001600160a01b038516913391600080516020615545833981519152910160405180910390a3610fc0613cb0565b505050505050565b600c54600090610100900460ff1615610ff35760405162461bcd60e51b81526004016108d590615346565b6001600160a01b03831660009081526010602052604090205460ff1661102b5760405162461bcd60e51b81526004016108d590615396565b6001600160a01b03821660009081526010602052604090205460ff166110635760405162461bcd60e51b81526004016108d590615396565b6001600160a01b038084166000908152601060205260408082209285168252902060038083015460028085015492840154908401546110a3939190613d0f565b95945050505050565b610e266402540be400670de0b6b3a7640000615400565b6000336001600160a01b03851614806110ff57506001600160a01b03841660009081526008602090815260408083203384529091529020548211155b6111435760405162461bcd60e51b815260206004820152601560248201527422a9292fa12a27a5a2a72fa120a22fa1a0a62622a960591b60448201526064016108d5565b61114e848484613d87565b336001600160a01b0385161480159061118c57506001600160a01b038416600090815260086020908152604080832033845290915290205460001914155b1561120d576001600160a01b03841660009081526008602090815260408083203384529091529020546111bf90836138b1565b6001600160a01b038581166000908152600860209081526040808320338085529083529281902085905551938452918616929091600080516020615565833981519152910160405180910390a35b5060019392505050565b6001600160a01b03831660009081526010602052604081205460ff1661124f5760405162461bcd60e51b81526004016108d590615396565b6001600160a01b03831660009081526010602052604090205460ff166112875760405162461bcd60e51b81526004016108d590615396565b6001600160a01b038085166000908152601060205260408082209286168252902060038083015460028085015492840154908401546112c893919088613e99565b9695505050505050565b6001600160a01b03831660009081526010602052604081205460ff1661130a5760405162461bcd60e51b81526004016108d590615396565b6001600160a01b03831660009081526010602052604090205460ff166113425760405162461bcd60e51b81526004016108d590615396565b6001600160a01b038085166000908152601060205260408082209286168252902060038083015460028085015492840154908401546112c893919088613f41565b6001600160a01b03821660009081526010602090815260408083208151608081018352815460ff1615158152600182015493810193909352600281015491830182905260030154606083018190526009546011546113e393919087613fe7565b949350505050565b6001600160a01b03821660009081526010602090815260408083208151608081018352815460ff1615158152600182015493810193909352600281015491830182905260030154606083018190526009546011546113e3939190876139fc565b600c54600090610100900460ff16156114765760405162461bcd60e51b81526004016108d590615346565b600c805461ff001916610100179055600e54600160a01b900460ff166114ae5760405162461bcd60e51b81526004016108d5906153bd565b6001600160a01b03841660009081526010602052604090205460ff166114e65760405162461bcd60e51b81526004016108d590615396565b6001600160a01b03841660009081526010602052604090206003810154600282015460095460115461151b93929190886139fc565b91508282101561153d5760405162461bcd60e51b81526004016108d5906152f9565b6001600160a01b03851660009081526010602052604090206003908101546115719161098290670de0b6b3a7640000615400565b8211156115905760405162461bcd60e51b81526004016108d59061536b565b6003546001600160a01b0390811660008181526010602052604081209092909190881614156115cc576004546001600160a01b031691506115f1565b50506003546004546001600160a01b0390811660009081526010602052604090209116905b6115ff8360030154856138b1565b600384015560006116108782613712565b604080518781524260208201529192506001600160a01b038a16913391600080516020615505833981519152910160405180910390a36040518781526000805160206155258339815191529060200160405180910390a1611671338861390e565b61167e610b1388836138b1565b600254611694906001600160a01b031682613924565b61169f88338761392e565b60006116ba836003015484600201546009546011548c6139fc565b60125460035460405163efd4810360e01b81529293506001600160a01b039182169263efd48103926116f492169088908d906004016151e0565b60206040518083038186803b15801561170c57600080fd5b505afa158015611720573d6000803e3d6000fd5b505050506040513d601f19601f82011682018060405250810190611744919061515e565b151560011415610d0f5761175c8360030154826138b1565b600384015561176c886000613712565b600c54604080518481524260208201529294506001600160a01b0387811693620100009093041691600080516020615505833981519152910160405180910390a3600c546117c9906201000090046001600160a01b03168961390e565b6117d6610b1389846138b1565b6002546117ec906001600160a01b031683613924565b600c5461180a9085906201000090046001600160a01b03168361392e565b60125460035460405163679346f560e11b81526001600160a01b039283169263cf268dea92610cdc92911690889086906004016151e0565b600c54610100900460ff161561186a5760405162461bcd60e51b81526004016108d590615346565b600c805461ff001916610100179055600e54600160a01b900460ff166118a25760405162461bcd60e51b81526004016108d5906153bd565b60006118ad60095490565b905060006118bb858361407c565b9050806118da5760405162461bcd60e51b81526004016108d5906152d0565b60005b600f54811015611a22576000600f82815481106118fc576118fc6154e0565b60009182526020808320909101546001600160a01b031680835260109091526040822060030154909250906119318583613712565b9050806119505760405162461bcd60e51b81526004016108d5906152d0565b878785818110611962576119626154e0565b905060200201358111156119885760405162461bcd60e51b81526004016108d590615320565b6001600160a01b0383166000908152601060205260409020600301546119ae9082614194565b6001600160a01b038416600081815260106020526040908190206003019290925590513390600080516020615545833981519152906119f99085904290918252602082015260400190565b60405180910390a3611a0c8333836141e6565b5050508080611a1a90615485565b9150506118dd565b50611a2c85614219565b611a363386613924565b6040518581526000805160206155258339815191529060200160405180910390a15050600c805461ff0019169055505050565b600c54600090610100900460ff1615611a945760405162461bcd60e51b81526004016108d590615346565b600c805461ff001916610100179055600e54600160a01b900460ff16611acc5760405162461bcd60e51b81526004016108d5906153bd565b6001600160a01b03841660009081526010602052604090205460ff16611b045760405162461bcd60e51b81526004016108d590615396565b6001600160a01b038416600090815260106020526040902060030154611b379061098d6002670de0b6b3a7640000615400565b831115611b565760405162461bcd60e51b81526004016108d5906152a6565b6003546001600160a01b0390811660008181526010602052604081209290919087161415611b9057506004546001600160a01b0316611bb5565b50506004546001600160a01b0390811660009081526010602052604090206003549091165b6001600160a01b038616600090815260106020526040902060038101546002820154600954601154611bea939291908a613fe7565b935084841015611c0c5760405162461bcd60e51b81526004016108d5906152f9565b611c1a816003015487614194565b6003820155604080518781524260208201526001600160a01b038916913391600080516020615545833981519152910160405180910390a36040518481526000805160206155258339815191529060200160405180910390a1611c7c84614219565b611c863385613924565b611c918733886141e6565b6000611cac8460030154856002015460095460115489614222565b6012546003546040516326b1f01f60e01b81529293506001600160a01b03918216926326b1f01f92611ce6921690879086906004016151e0565b60206040518083038186803b158015611cfe57600080fd5b505afa158015611d12573d6000803e3d6000fd5b505050506040513d601f19601f82011682018060405250810190611d36919061515e565b151560011415611e5e576012546003546040516399039fcf60e01b81526001600160a01b03928316926399039fcf92611d7892911690879086906004016151e0565b600060405180830381600087803b158015611d9257600080fd5b505af1158015611da6573d6000803e3d6000fd5b50505050611db8846003015482614194565b6003850155600c54604080518381524260208201526001600160a01b03868116936201000090041691600080516020615545833981519152910160405180910390a36040518581526000805160206155258339815191529060200160405180910390a1611e2485614219565b600c54611e40906201000090046001600160a01b031686613924565b600c54611e5e9084906201000090046001600160a01b0316836141e6565b50505050600c805461ff00191690559392505050565b3360009081526008602090815260408083206001600160a01b038616845290915281205480831115611ec9573360009081526008602090815260408083206001600160a01b0388168452909152812055611ef8565b611ed381846138b1565b3360009081526008602090815260408083206001600160a01b03891684529091529020555b3360008181526008602090815260408083206001600160a01b03891680855290835292819020549051908152919291600080516020615565833981519152910160405180910390a35060019392505050565b600c54600090610100900460ff1615611f755760405162461bcd60e51b81526004016108d590615346565b600c805461ff001916610100179055600e54600160a01b900460ff16611fad5760405162461bcd60e51b81526004016108d5906153bd565b6001600160a01b03841660009081526010602052604090205460ff16611fe55760405162461bcd60e51b81526004016108d590615396565b6001600160a01b03841660009081526010602052604090206003810154600282015460095460115461201a9392919088614222565b6003546001600160a01b039081166000818152601060205260408120939550918816141561205457506004546001600160a01b0316612079565b50506004546001600160a01b0390811660009081526010602052604090206003549091165b836120965760405162461bcd60e51b81526004016108d5906152d0565b848411156120b65760405162461bcd60e51b81526004016108d590615320565b6001600160a01b0387166000908152601060205260409020600301546120e99061098d6002670de0b6b3a7640000615400565b8411156121085760405162461bcd60e51b81526004016108d5906152a6565b612116836003015485614194565b6003840155604080518581524260208201526001600160a01b038916913391600080516020615545833981519152910160405180910390a36040518681526000805160206155258339815191529060200160405180910390a161217886614219565b6121823387613924565b61218d8733866141e6565b60006121a8836003015484600201546009546011548b614222565b6012546003546040516326b1f01f60e01b81529293506001600160a01b03918216926326b1f01f926121e2921690869086906004016151e0565b60206040518083038186803b1580156121fa57600080fd5b505afa15801561220e573d6000803e3d6000fd5b505050506040513d601f19601f82011682018060405250810190612232919061515e565b151560011415611e5e576012546003546040516399039fcf60e01b81526001600160a01b03928316926399039fcf9261227492911690869086906004016151e0565b600060405180830381600087803b15801561228e57600080fd5b505af11580156122a2573d6000803e3d6000fd5b505050506122b4836003015482614194565b6003840155600c54604080518381524260208201526001600160a01b03858116936201000090041691600080516020615545833981519152910160405180910390a36122ff87614219565b600c5461231b906201000090046001600160a01b031688613924565b600c54611e5e9083906201000090046001600160a01b0316836141e6565b60025460048054604051637c0aa57760e11b81526001600160a01b0391821692810192909252600092169063f8154aee9060240160206040518083038186803b15801561238557600080fd5b505afa158015612399573d6000803e3d6000fd5b505050506040513d601f19601f820116820180604052508101906123bd919061517b565b905090565b600d546001600160a01b031633146124145760405162461bcd60e51b815260206004820152601560248201527427a7262c9026a0a925a2aa1021a7a62622a1aa27a960591b60448201526064016108d5565b600d80546001600160a01b0319166001600160a01b0392909216919091179055565b610e26620f4240670de0b6b3a7640000615400565b600c546000908190610100900460ff16156124785760405162461bcd60e51b81526004016108d590615346565b600c805461ff001916610100179055600e54600160a01b900460ff166124b05760405162461bcd60e51b81526004016108d5906153bd565b6001600160a01b03871660009081526010602052604090205460ff166124e85760405162461bcd60e51b81526004016108d590615396565b6001600160a01b03851660009081526010602052604090205460ff166125205760405162461bcd60e51b81526004016108d590615396565b6001600160a01b038088166000908152601060205260408082209288168252902060038082015461255d9161098290670de0b6b3a7640000615400565b86111561257c5760405162461bcd60e51b81526004016108d59061536b565b600061259a8360030154846002015484600301548560020154613d0f565b9050858111156125e25760405162461bcd60e51b81526020600482015260136024820152724552525f4241445f4c494d49545f505249434560681b60448201526064016108d5565b600080604051806080016040528086600301548152602001866002015481526020018560030154815260200185600201548152509050612623818a8e6142bc565b90975091508a8711156126485760405162461bcd60e51b81526004016108d590615320565b612656856003015483614194565b856003018190555061266c84600301548a6138b1565b60038086018290558601546002808801549087015461268b9390613d0f565b9550828610156126ad5760405162461bcd60e51b81526004016108d5906152d0565b878611156126ef5760405162461bcd60e51b815260206004820152600f60248201526e4552525f4c494d49545f505249434560881b60448201526064016108d5565b6126f9878a61407c565b8311156127185760405162461bcd60e51b81526004016108d5906152d0565b60408051888152602081018b9052428183015290516001600160a01b038c811692908f169133917f50ef2fc267012b5c84b56835f16ffd5331ac5a151a3760d74908721ba78b0efe919081900360600190a46127758c33896141e6565b6127808a338b61392e565b5050505050600c805461ff001916905590969095509350505050565b600c546000908190610100900460ff16156127c95760405162461bcd60e51b81526004016108d590615346565b600c805461ff001916610100179055600e54600160a01b900460ff166128015760405162461bcd60e51b81526004016108d5906153bd565b6001600160a01b03871660009081526010602052604090205460ff166128395760405162461bcd60e51b81526004016108d590615396565b6001600160a01b03851660009081526010602052604090205460ff166128715760405162461bcd60e51b81526004016108d590615396565b6001600160a01b038088166000908152601060205260408082209288168252902060038201546128ae9061098d6002670de0b6b3a7640000615400565b8811156128cd5760405162461bcd60e51b81526004016108d5906152a6565b60006128eb8360030154846002015484600301548560020154613d0f565b9050858111156129335760405162461bcd60e51b81526020600482015260136024820152724552525f4241445f4c494d49545f505249434560681b60448201526064016108d5565b600080604051806080016040528086600301548152602001866002015481526020018560030154815260200185600201548152509050612974818c8e6144da565b9097509150888710156129995760405162461bcd60e51b81526004016108d5906152f9565b6129a7856003015483614194565b85600301819055506129bd8460030154886138b1565b6003808601829055860154600280880154908701546129dc9390613d0f565b9550828610156129fe5760405162461bcd60e51b81526004016108d5906152d0565b87861115612a405760405162461bcd60e51b815260206004820152600f60248201526e4552525f4c494d49545f505249434560881b60448201526064016108d5565b612a4a8b8861407c565b831115612a695760405162461bcd60e51b81526004016108d5906152d0565b604080518c815260208101899052428183015290516001600160a01b038c811692908f169133917f50ef2fc267012b5c84b56835f16ffd5331ac5a151a3760d74908721ba78b0efe919081900360600190a4612ac68c338d6141e6565b6127808a338961392e565b610e2664e8d4a51000670de0b6b3a7640000615400565b600c54600090610100900460ff1615612b135760405162461bcd60e51b81526004016108d590615346565b5060115490565b610e26670de0b6b3a76400006064615414565b600c54600090610100900460ff1615612b585760405162461bcd60e51b81526004016108d590615346565b6001600160a01b03821660009081526010602052604090205460ff16612b905760405162461bcd60e51b81526004016108d590615396565b506001600160a01b0381166000908152601060205260409020600201545b919050565b6060600b8054610d359061544a565b612bd56003670de0b6b3a7640000615400565b610e269060016153e8565b6001600160a01b03821660009081526010602090815260408083208151608081018352815460ff1615158152600182015493810193909352600281015491830182905260030154606083018190526009546011546113e3939190876137ed565b6000612c4d338484613d87565b50600192915050565b600c54610100900460ff1615612c7e5760405162461bcd60e51b81526004016108d590615346565b600c805461ff001916610100179055600e54600160a01b900460ff16612cb65760405162461bcd60e51b81526004016108d5906153bd565b6000612cc160095490565b90506000612cd0856000613712565b90506000612cde86836138b1565b90506000612cec828561407c565b905080612d0b5760405162461bcd60e51b81526004016108d5906152d0565b612d15338861390e565b600254612d2b906001600160a01b031684613924565b612d3482613918565b60005b600f54811015612e7c576000600f8281548110612d5657612d566154e0565b60009182526020808320909101546001600160a01b03168083526010909152604082206003015490925090612d8b8583613712565b905080612daa5760405162461bcd60e51b81526004016108d5906152d0565b898985818110612dbc57612dbc6154e0565b90506020020135811015612de25760405162461bcd60e51b81526004016108d5906152f9565b6001600160a01b038316600090815260106020526040902060030154612e0890826138b1565b6001600160a01b03841660008181526010602052604090819020600301929092559051339060008051602061550583398151915290612e539085904290918252602082015260400190565b60405180910390a3612e6683338361392e565b5050508080612e7490615485565b915050612d37565b5050600c805461ff0019169055505050505050565b610e26600a670de0b6b3a7640000615400565b6001612eb9670de0b6b3a76400006002615414565b610e269190615433565b600c54606090610100900460ff1615612eee5760405162461bcd60e51b81526004016108d590615346565b600e54600160a01b900460ff16612f175760405162461bcd60e51b81526004016108d5906153bd565b600f805480602002602001604051908101604052809291908181526020018280548015610dae57602002820191906000526020600020905b81546001600160a01b03168152600190910190602001808311612f4f575050505050905090565b601254600090600160a01b900460ff1615612fd35760405162461bcd60e51b815260206004820152601760248201527f4552525f414c52454144595f494e495449414c495a454400000000000000000060448201526064016108d5565b6001600160a01b0389166130295760405162461bcd60e51b815260206004820152601e60248201527f4552525f494e56414c49445f434f4e54524f4c4c45525f41444452455353000060448201526064016108d5565b6001600160a01b03881661307f5760405162461bcd60e51b815260206004820152601b60248201527f4552525f494e56414c49445f464143544f52595f41444452455353000000000060448201526064016108d5565b613094620f4240670de0b6b3a7640000615400565b878760008181106130a7576130a76154e0565b9050602002013510156130ea5760405162461bcd60e51b815260206004820152600b60248201526a4552525f4d494e5f46454560a81b60448201526064016108d5565b6130fd600a670de0b6b3a7640000615400565b87876000818110613110576131106154e0565b9050602002013511156131535760405162461bcd60e51b815260206004820152600b60248201526a4552525f4d41585f46454560a81b60448201526064016108d5565b6131d98989898980806020026020016040519081016040528093929190818152602001838360200280828437600092019190915250506040805180820182528c93508b9250908a9060029083908390808284376000920191909152505060408051808201825291508a9060029083908390808284376000920191909152506146df915050565b9998505050505050505050565b600c54606090610100900460ff1615612f175760405162461bcd60e51b81526004016108d590615346565b3360009081526008602090815260408083206001600160a01b038616845290915281205461323f9083614194565b3360008181526008602090815260408083206001600160a01b038916808552908352928190208590555193845290926000805160206155658339815191529101610e01565b610e266002670de0b6b3a7640000615400565b600c54600090610100900460ff16156132c25760405162461bcd60e51b81526004016108d590615346565b6001600160a01b03821660009081526010602052604090205460ff166132fa5760405162461bcd60e51b81526004016108d590615396565b6001600160a01b03821660009081526010602052604090206002015460115461332490829061407c565b9392505050565b6000613335612ec3565b905060005b81518110156134815760006005600084848151811061335b5761335b6154e0565b60200260200101516001600160a01b03166001600160a01b0316815260200190815260200160002054905060006005600085858151811061339e5761339e6154e0565b60200260200101516001600160a01b03166001600160a01b03168152602001908152602001600020819055508282815181106133dc576133dc6154e0565b6020908102919091010151600e5460405163a9059cbb60e01b81526001600160a01b0391821660048201526024810184905291169063a9059cbb90604401602060405180830381600087803b15801561343457600080fd5b505af1158015613448573d6000803e3d6000fd5b505050506040513d601f19601f8201168201806040525081019061346c919061515e565b5050808061347990615485565b91505061333a565b5050565b600c54600090610100900460ff16156134b05760405162461bcd60e51b81526004016108d590615346565b6001600160a01b03821660009081526010602052604090205460ff166134e85760405162461bcd60e51b81526004016108d590615396565b506001600160a01b031660009081526010602052604090206003015490565b600d546001600160a01b031633146135595760405162461bcd60e51b815260206004820152601560248201527427a7262c9026a0a925a2aa1021a7a62622a1aa27a960591b60448201526064016108d5565b6000613563612ec3565b905060005b81518110156136ad57600060066000848481518110613589576135896154e0565b60200260200101516001600160a01b03166001600160a01b031681526020019081526020016000205490506000600660008585815181106135cc576135cc6154e0565b60200260200101516001600160a01b03166001600160a01b031681526020019081526020016000208190555082828151811061360a5761360a6154e0565b602090810291909101015160405163a9059cbb60e01b81526001600160a01b038681166004830152602482018490529091169063a9059cbb90604401602060405180830381600087803b15801561366057600080fd5b505af1158015613674573d6000803e3d6000fd5b505050506040513d601f19601f82011682018060405250810190613698919061515e565b505080806136a590615485565b915050613568565b505050565b6001600160a01b03821660009081526010602090815260408083208151608081018352815460ff1615158152600182015493810193909352600281015491830182905260030154606083018190526009546011546113e393919087614222565b60008061371f8385615414565b90508315806137365750826137348583615400565b145b6137755760405162461bcd60e51b815260206004820152601060248201526f4552525f4d554c5f4f564552464c4f5760801b60448201526064016108d5565b600061378a6002670de0b6b3a7640000615400565b61379490836153e8565b9050818110156137d95760405162461bcd60e51b815260206004820152601060248201526f4552525f4d554c5f4f564552464c4f5760801b60448201526064016108d5565b60006112c8670de0b6b3a764000083615400565b6000806137fa868561407c565b90506000613810670de0b6b3a7640000836138b1565b9050600061382082600154613712565b9050600061383f8661383a670de0b6b3a7640000856138b1565b61407c565b9050600061384d8b836138b1565b9050600061385b828d61407c565b90506000613869828861481d565b90506000613877828d613712565b905060006138858d836138b1565b905061389e8161383a670de0b6b3a764000060006138b1565b9f9e505050505050505050505050505050565b60008060006138c08585614949565b9150915080156139065760405162461bcd60e51b81526020600482015260116024820152704552525f5355425f554e444552464c4f5760781b60448201526064016108d5565b509392505050565b6134818282614980565b6139218161498b565b50565b6134818282614a57565b60405163a9059cbb60e01b81526001600160a01b038381166004830152602482018390526000919085169063a9059cbb906044015b602060405180830381600087803b15801561397d57600080fd5b505af1158015613991573d6000803e3d6000fd5b505050506040513d601f19601f820116820180604052508101906139b5919061515e565b9050806139f65760405162461bcd60e51b815260206004820152600f60248201526e4552525f45524332305f46414c534560881b60448201526064016108d5565b50505050565b600080613a09868561407c565b90506000613a248461098d670de0b6b3a764000060006138b1565b90506000613a3287836138b1565b90506000613a40828961407c565b90506000613a5f82613a5a670de0b6b3a76400008861407c565b61481d565b90506000613a6d828d613712565b90506000613a7b8d836138b1565b90506000613a9c613a94670de0b6b3a76400008a6138b1565b600154613712565b9050613ab48261098d670de0b6b3a7640000846138b1565b9e9d5050505050505050505050505050565b600c546201000090046001600160a01b03163314613b1b5760405162461bcd60e51b815260206004820152601260248201527122a9292fa727aa2fa1a7a72a2927a62622a960711b60448201526064016108d5565b6001600160a01b03831660009081526010602052604090205460ff1615613b735760405162461bcd60e51b815260206004820152600c60248201526b11549497d254d7d093d5539160a21b60448201526064016108d5565b600e54600160a01b900460ff1615613bc05760405162461bcd60e51b815260206004820152601060248201526f11549497d254d7d1925390531256915160821b60448201526064016108d5565b600f54600211613c035760405162461bcd60e51b815260206004820152600e60248201526d4552525f4d41585f544f4b454e5360901b60448201526064016108d5565b604080516080810182526001808252600f805460208085019182526000858701818152606087018281526001600160a01b038c1680845260109094529782209651875460ff1916901515178755925186860155915160028601559451600390940193909355805491820181559091527f8d1108e10bcb7c27dddfc02ed9d693a074039d026cf4ea4240b40f7d581ac8020180546001600160a01b03191690911790556136ad838383614a62565b600e805460ff60a01b1916600160a01b179055600c805460ff60b01b1916600160b01b179055613cf1613cec670de0b6b3a76400006064615414565b614219565b613d0d33613d08670de0b6b3a76400006064615414565b613924565b565b600080613d1c868661407c565b90506000613d2a858561407c565b90506000613d38838361407c565b90506000613d7b670de0b6b3a764000061383a670de0b6b3a7640000600054613d5f612339565b600154613d6c91906153e8565b613d7691906153e8565b6138b1565b90506131d98282613712565b6001600160a01b038316600090815260076020526040902054811115613de65760405162461bcd60e51b815260206004820152601460248201527311549497d25394d551919250d251539517d0905360621b60448201526064016108d5565b6001600160a01b038316600090815260076020526040902054613e0990826138b1565b6001600160a01b038085166000908152600760205260408082209390935590841681522054613e389082614194565b6001600160a01b0380841660008181526007602052604090819020939093559151908516907fddf252ad1be2c89b69c2b068fc378daa952ba7f163c4a11628f55a4df523b3ef90613e8c9085815260200190565b60405180910390a3505050565b600080613ea6848761407c565b90506000613eb486856138b1565b90506000613ec2878361407c565b90506000613ed0828561481d565b9050613ee481670de0b6b3a76400006138b1565b905060008054613ef2612339565b600154613eff91906153e8565b613f0991906153e8565b9050613f1d670de0b6b3a7640000826138b1565b9550613f32613f2c8c84613712565b8761407c565b9b9a5050505050505050505050565b600080613f4e868561407c565b905060008054613f5c612339565b600154613f6991906153e8565b613f7391906153e8565b90506000613f89670de0b6b3a7640000836138b1565b9050613f958582613712565b90506000613fa78a61383a8c85614194565b90506000613fb5828661481d565b90506000613fcb670de0b6b3a7640000836138b1565b9050613fd78a82613712565b9c9b505050505050505050505050565b600080613ff4868561407c565b9050600061400d613a94670de0b6b3a7640000846138b1565b905060006140278561098d670de0b6b3a7640000856138b1565b905060006140358a83614194565b90506000614043828c61407c565b90506000614051828761481d565b9050600061405f828c613712565b905061406b818c6138b1565b9d9c50505050505050505050505050565b6000816140ba5760405162461bcd60e51b815260206004820152600c60248201526b4552525f4449565f5a45524f60a01b60448201526064016108d5565b60006140ce670de0b6b3a764000085615414565b90508315806140ed5750670de0b6b3a76400006140eb8583615400565b145b61412c5760405162461bcd60e51b815260206004820152601060248201526f11549497d1125597d25395115493905360821b60448201526064016108d5565b6000614139600285615400565b61414390836153e8565b9050818110156141885760405162461bcd60e51b815260206004820152601060248201526f11549497d1125597d25395115493905360821b60448201526064016108d5565b60006112c88583615400565b6000806141a183856153e8565b9050838110156133245760405162461bcd60e51b815260206004820152601060248201526f4552525f4144445f4f564552464c4f5760801b60448201526064016108d5565b6040516323b872dd60e01b81526000906001600160a01b038516906323b872dd90613963908690309087906004016151e0565b61392181614cb2565b60008061422f868561407c565b9050600061423d8685614194565b9050600061424b828861407c565b90506000614261670de0b6b3a76400008561407c565b9050600061426f838361481d565b9050600061427d828d613712565b9050600061428b828e6138b1565b905060006142a4613a94670de0b6b3a76400008a6138b1565b9050613ab48261383a670de0b6b3a7640000846138b1565b600080806142d986600360200201518760015b602002015161407c565b905060006142ee8760026020020151876138b1565b9050600061430388600260200201518361407c565b90506000614311828561481d565b905061432581670de0b6b3a76400006138b1565b905060008054614333612339565b60015461434091906153e8565b61434a91906153e8565b8a5190915061436f9061435d9084613712565b61383a670de0b6b3a7640000846138b1565b9650600061438f88613d768a61098d670de0b6b3a7640000613d76612339565b6001600160a01b038a166000908152600560205260409020549091506143b59082614194565b600560008b6001600160a01b03166001600160a01b031681526020019081526020016000208190555060006143fc89613d768b61098d670de0b6b3a76400006000546138b1565b6001600160a01b038b166000908152600660205260409020549091506144229082614194565b6001600160a01b038b166000908152600660205260409020558b5161445f9061444b9086613712565b61383a670de0b6b3a76400006001546138b1565b97507f90d9f1d0641138b6407ac37bea3a905d63a371c2d91a484f68d59924634d4ef361449e8a613d768c61098d670de0b6b3a76400006001546138b1565b604080519182526020820185905281018390526001600160a01b038c16606082015260800160405180910390a150505050505050935093915050565b600080806144f186600160200201518760036142cf565b9050600061451186613d768861098d670de0b6b3a7640000613d76612339565b6001600160a01b0386166000908152600560205260409020549091506145379082614194565b60056000876001600160a01b03166001600160a01b0316815260200190815260200160002081905550600061457e87613d768961098d670de0b6b3a76400006000546138b1565b6001600160a01b0387166000908152600660205260409020549091506145a49082614194565b6001600160a01b03871660009081526006602052604081209190915580546145ca612339565b6001546145d791906153e8565b6145e191906153e8565b90507f90d9f1d0641138b6407ac37bea3a905d63a371c2d91a484f68d59924634d4ef361462089613d768b61098d670de0b6b3a76400006001546138b1565b604080519182526020820186905281018490526001600160a01b038916606082015260800160405180910390a16000614661670de0b6b3a7640000836138b1565b905061466d8982613712565b8a519091506000906146839061383a8185614194565b90506000614691828861481d565b905060006146a7670de0b6b3a7640000836138b1565b90506146ba8d6002602002015182613712565b9950896146cb8d613d76898b6153e8565b995099505050505050505050935093915050565b600c805462010000600160b01b031916620100006001600160a01b038a81169190910291909117909155600280546001600160a01b031916918816919091179055845160009086908290614735576147356154e0565b602002602001015160018190555085600181518110614756576147566154e0565b602090810291909101810151600055600c8054961515600160b01b0260ff60b01b199097169690961795869055600e80548551600380546001600160a01b039283166001600160a01b03199182161790915596840151600480549183169189169190911790558551600d805491831691891691909117905594909201518416951515600160a01b908102959095166001600160a81b0319928316179590951790945550601280549093166201000090940416929092178217908190550460ff169392505050565b600060018310156148685760405162461bcd60e51b81526020600482015260156024820152744552525f42504f575f424153455f544f4f5f4c4f5760581b60448201526064016108d5565b600161487d670de0b6b3a76400006002615414565b6148879190615433565b8311156148cf5760405162461bcd60e51b815260206004820152601660248201527508aa4a4be84a09eaebe8482a68abea89e9ebe90928e960531b60448201526064016108d5565b60006148da83614d21565b905060006148e884836138b1565b905060006148fe866148f985614d3f565b614d53565b90508161490f579250610e0d915050565b6000614932878461492d6402540be400670de0b6b3a7640000615400565b614dc7565b905061493e8282613712565b979650505050505050565b6000808284106149685761495d8385615433565b600091509150614979565b6149728484615433565b6001915091505b9250929050565b613481823083613d87565b306000908152600760205260409020548111156149e15760405162461bcd60e51b815260206004820152601460248201527311549497d25394d551919250d251539517d0905360621b60448201526064016108d5565b306000908152600760205260409020546149fb90826138b1565b30600090815260076020526040902055600954614a1890826138b1565b60095560405181815260009030907fddf252ad1be2c89b69c2b068fc378daa952ba7f163c4a11628f55a4df523b3ef906020015b60405180910390a350565b613481308383613d87565b670de0b6b3a7640000811015614aab5760405162461bcd60e51b815260206004820152600e60248201526d11549497d3525397d5d15251d21560921b60448201526064016108d5565b614abe670de0b6b3a76400006032615414565b811115614afe5760405162461bcd60e51b815260206004820152600e60248201526d11549497d3505617d5d15251d21560921b60448201526064016108d5565b614b1564e8d4a51000670de0b6b3a7640000615400565b821015614b565760405162461bcd60e51b815260206004820152600f60248201526e4552525f4d494e5f42414c414e434560881b60448201526064016108d5565b6001600160a01b03831660009081526010602052604090206002015480821115614bf257614b8f601154614b8a84846138b1565b614194565b601155614ba5670de0b6b3a76400006032615414565b6011541115614bed5760405162461bcd60e51b815260206004820152601460248201527311549497d3505617d513d5105317d5d15251d21560621b60448201526064016108d5565b614c0e565b80821015614c0e57614c0a601154613d7683856138b1565b6011555b6001600160a01b03841660009081526010602052604090206002810183905560030180549084905580841115614c5757614c528533614c4d87856138b1565b6141e6565b614cab565b80841015614cab576000614c6b82866138b1565b90506000614c7a826000613712565b9050614c908733614c8b85856138b1565b61392e565b600254614ca89088906001600160a01b03168361392e565b50505b5050505050565b30600090815260076020526040902054614ccc9082614194565b30600090815260076020526040902055600954614ce99082614194565b60095560405181815230906000907fddf252ad1be2c89b69c2b068fc378daa952ba7f163c4a11628f55a4df523b3ef90602001614a4c565b6000670de0b6b3a7640000614d3583614d3f565b610e0d9190615414565b6000610e0d670de0b6b3a764000083615400565b60008281614d626002856154a0565b614d7457670de0b6b3a7640000614d76565b815b9050614d83600285615400565b93505b83156113e357614d968283613712565b9150614da36002856154a0565b15614db557614db28183613712565b90505b614dc0600285615400565b9350614d86565b6000828180614dde87670de0b6b3a7640000614949565b9092509050670de0b6b3a764000080600060015b888410614ea8576000614e0d670de0b6b3a764000083615414565b9050600080614e2d8a614e2885670de0b6b3a76400006138b1565b614949565b91509150614e3f8761098d848c613712565b9650614e4b878461407c565b965086614e5a57505050614ea8565b8715614e64579315935b8015614e6e579315935b8415614e8557614e7e86886138b1565b9550614e92565b614e8f8688614194565b95505b5050508080614ea090615485565b915050614df2565b50909998505050505050505050565b80356001600160a01b0381168114612bae57600080fd5b8060408101831015610e0d57600080fd5b60008083601f840112614ef157600080fd5b50813567ffffffffffffffff811115614f0957600080fd5b6020830191508360208260051b850101111561497957600080fd5b600060208284031215614f3657600080fd5b61332482614eb7565b60008060408385031215614f5257600080fd5b614f5b83614eb7565b9150614f6960208401614eb7565b90509250929050565b600080600080600080600080610120898b031215614f8f57600080fd5b614f9889614eb7565b9750614fa660208a01614eb7565b9650604089013567ffffffffffffffff811115614fc257600080fd5b614fce8b828c01614edf565b9097509550506060890135614fe2816154f6565b93506080890135614ff2816154f6565b92506150018a60a08b01614ece565b91506150108a60e08b01614ece565b90509295985092959890939650565b60008060006060848603121561503457600080fd5b61503d84614eb7565b925061504b60208501614eb7565b9150604084013590509250925092565b6000806040838503121561506e57600080fd5b61507783614eb7565b946020939093013593505050565b600080600080600060a0868803121561509d57600080fd5b6150a686614eb7565b9450602086013593506150bb60408701614eb7565b94979396509394606081013594506080013592915050565b6000806000606084860312156150e857600080fd5b6150f184614eb7565b95602085013595506040909401359392505050565b60008060008060008060c0878903121561511f57600080fd5b61512887614eb7565b9550602087013594506040870135935061514460608801614eb7565b92506080870135915060a087013590509295509295509295565b60006020828403121561517057600080fd5b8151613324816154f6565b60006020828403121561518d57600080fd5b5051919050565b6000806000604084860312156151a957600080fd5b83359250602084013567ffffffffffffffff8111156151c757600080fd5b6151d386828701614edf565b9497909650939450505050565b6001600160a01b039384168152919092166020820152604081019190915260600190565b6020808252825182820181905260009190848201906040850190845b818110156152455783516001600160a01b031683529284019291840191600101615220565b50909695505050505050565b600060208083528351808285015260005b8181101561527e57858101830151858201604001528201615262565b81811115615290576000604083870101525b50601f01601f1916929092016040019392505050565b60208082526010908201526f4552525f4d41585f494e5f524154494f60801b604082015260600190565b6020808252600f908201526e08aa4a4be9a82a890be82a0a0a49eb608b1b604082015260600190565b6020808252600d908201526c11549497d31253525517d3d555609a1b604082015260600190565b6020808252600c908201526b22a9292fa624a6a4aa2fa4a760a11b604082015260600190565b6020808252600b908201526a4552525f5245454e54525960a81b604082015260600190565b6020808252601190820152704552525f4d41585f4f55545f524154494f60781b604082015260600190565b6020808252600d908201526c11549497d393d517d093d55391609a1b604082015260600190565b60208082526011908201527011549497d393d517d19253905312569151607a1b604082015260600190565b600082198211156153fb576153fb6154b4565b500190565b60008261540f5761540f6154ca565b500490565b600081600019048311821515161561542e5761542e6154b4565b500290565b600082821015615445576154456154b4565b500390565b600181811c9082168061545e57607f821691505b6020821081141561547f57634e487b7160e01b600052602260045260246000fd5b50919050565b6000600019821415615499576154996154b4565b5060010190565b6000826154af576154af6154ca565b500690565b634e487b7160e01b600052601160045260246000fd5b634e487b7160e01b600052601260045260246000fd5b634e487b7160e01b600052603260045260246000fd5b801515811461392157600080fdfe9d9058fd2f25ccc389fec7720abef0ca83472f5abfafd5f10d37f51e6a0493f3fcda32798d5a9d032f49b37fea876d422f18f6e386e0f07db6029b693624b2c215a8ca63e37b2cff1677df2b6b82d36fcf8a524228bd7a4b4d02d107c28c1e8a8c5be1e5ebec7d5bd14f71427d1e84f3dd0314c0f7b2291e5b200ac8c7c3b925a2646970667358221220ec6a78863780440395697c28f1bf4c3009eefcab0fea4c8a7f922dad6c2d23bf64736f6c63430008070033",
  "linkReferences": {},
  "deployedLinkReferences": {}
}