{
  "_format": "hh-sol-artifact-1",
  "contractName": "BPool",
  "sourceName": "contracts/pools/balancer/BPool.sol",
  "abi": [
    {
      "anonymous": false,
      "inputs": [
        {
          "indexed": true,
          "internalType": "address",
          "name": "src",
          "type": "address"
        },
        {
          "indexed": true,
          "internalType": "address",
          "name": "dst",
          "type": "address"
        },
        {
          "indexed": false,
          "internalType": "uint256",
          "name": "amt",
          "type": "uint256"
        }
      ],
      "name": "Approval",
      "type": "event"
    },
    {
      "anonymous": false,
      "inputs": [
        {
          "indexed": false,
          "internalType": "uint256",
          "name": "bptAmount",
          "type": "uint256"
        }
      ],
      "name": "LOG_BPT",
      "type": "event"
    },
    {
      "anonymous": false,
      "inputs": [
        {
          "indexed": false,
          "internalType": "uint256",
          "name": "bptAmount",
          "type": "uint256"
        }
      ],
      "name": "LOG_BPT_SS",
      "type": "event"
    },
    {
      "anonymous": false,
      "inputs": [
        {
          "indexed": true,
          "internalType": "bytes4",
          "name": "sig",
          "type": "bytes4"
        },
        {
          "indexed": true,
          "internalType": "address",
          "name": "caller",
          "type": "address"
        },
        {
          "indexed": false,
          "internalType": "uint256",
          "name": "timestamp",
          "type": "uint256"
        },
        {
          "indexed": false,
          "internalType": "bytes",
          "name": "data",
          "type": "bytes"
        }
      ],
      "name": "LOG_CALL",
      "type": "event"
    },
    {
      "anonymous": false,
      "inputs": [
        {
          "indexed": true,
          "internalType": "address",
          "name": "caller",
          "type": "address"
        },
        {
          "indexed": true,
          "internalType": "address",
          "name": "tokenOut",
          "type": "address"
        },
        {
          "indexed": false,
          "internalType": "uint256",
          "name": "tokenAmountOut",
          "type": "uint256"
        },
        {
          "indexed": false,
          "internalType": "uint256",
          "name": "timestamp",
          "type": "uint256"
        }
      ],
      "name": "LOG_EXIT",
      "type": "event"
    },
    {
      "anonymous": false,
      "inputs": [
        {
          "indexed": true,
          "internalType": "address",
          "name": "caller",
          "type": "address"
        },
        {
          "indexed": true,
          "internalType": "address",
          "name": "tokenIn",
          "type": "address"
        },
        {
          "indexed": false,
          "internalType": "uint256",
          "name": "tokenAmountIn",
          "type": "uint256"
        },
        {
          "indexed": false,
          "internalType": "uint256",
          "name": "timestamp",
          "type": "uint256"
        }
      ],
      "name": "LOG_JOIN",
      "type": "event"
    },
    {
      "anonymous": false,
      "inputs": [
        {
          "indexed": true,
          "internalType": "address",
          "name": "caller",
          "type": "address"
        },
        {
          "indexed": true,
          "internalType": "address",
          "name": "baseToken",
          "type": "address"
        },
        {
          "indexed": false,
          "internalType": "uint256",
          "name": "baseTokenAmountIn",
          "type": "uint256"
        },
        {
          "indexed": false,
          "internalType": "uint256",
          "name": "baseTokenWeight",
          "type": "uint256"
        },
        {
          "indexed": true,
          "internalType": "address",
          "name": "dataToken",
          "type": "address"
        },
        {
          "indexed": false,
          "internalType": "uint256",
          "name": "dataTokenAmountIn",
          "type": "uint256"
        },
        {
          "indexed": false,
          "internalType": "uint256",
          "name": "dataTokenWeight",
          "type": "uint256"
        }
      ],
      "name": "LOG_SETUP",
      "type": "event"
    },
    {
      "anonymous": false,
      "inputs": [
        {
          "indexed": true,
          "internalType": "address",
          "name": "caller",
          "type": "address"
        },
        {
          "indexed": true,
          "internalType": "address",
          "name": "tokenIn",
          "type": "address"
        },
        {
          "indexed": true,
          "internalType": "address",
          "name": "tokenOut",
          "type": "address"
        },
        {
          "indexed": false,
          "internalType": "uint256",
          "name": "tokenAmountIn",
          "type": "uint256"
        },
        {
          "indexed": false,
          "internalType": "uint256",
          "name": "tokenAmountOut",
          "type": "uint256"
        },
        {
          "indexed": false,
          "internalType": "uint256",
          "name": "timestamp",
          "type": "uint256"
        }
      ],
      "name": "LOG_SWAP",
      "type": "event"
    },
    {
      "anonymous": false,
      "inputs": [
        {
          "indexed": false,
          "internalType": "address",
          "name": "caller",
          "type": "address"
        },
        {
          "indexed": false,
          "internalType": "address",
          "name": "newMarketCollector",
          "type": "address"
        }
      ],
      "name": "MarketCollectorChanged",
      "type": "event"
    },
    {
      "anonymous": false,
      "inputs": [
        {
          "indexed": false,
          "internalType": "address",
          "name": "caller",
          "type": "address"
        },
        {
          "indexed": false,
          "internalType": "address",
          "name": "marketAddress",
          "type": "address"
        },
        {
          "indexed": false,
          "internalType": "address",
          "name": "token",
          "type": "address"
        },
        {
          "indexed": false,
          "internalType": "uint256",
          "name": "amount",
          "type": "uint256"
        }
      ],
      "name": "MarketFee",
      "type": "event"
    },
    {
      "anonymous": false,
      "inputs": [
        {
          "indexed": false,
          "internalType": "address",
          "name": "caller",
          "type": "address"
        },
        {
          "indexed": false,
          "internalType": "address",
          "name": "OPFWallet",
          "type": "address"
        },
        {
          "indexed": false,
          "internalType": "address",
          "name": "token",
          "type": "address"
        },
        {
          "indexed": false,
          "internalType": "uint256",
          "name": "amount",
          "type": "uint256"
        }
      ],
      "name": "OPFFee",
      "type": "event"
    },
    {
      "anonymous": false,
      "inputs": [
        {
          "indexed": false,
          "internalType": "uint256",
          "name": "swapFeeAmount",
          "type": "uint256"
        },
        {
          "indexed": false,
          "internalType": "uint256",
          "name": "oceanFeeAmount",
          "type": "uint256"
        },
        {
          "indexed": false,
          "internalType": "uint256",
          "name": "marketFeeAmount",
          "type": "uint256"
        },
        {
          "indexed": false,
          "internalType": "address",
          "name": "tokenFees",
          "type": "address"
        }
      ],
      "name": "SWAP_FEES",
      "type": "event"
    },
    {
      "anonymous": false,
      "inputs": [
        {
          "indexed": false,
          "internalType": "address",
          "name": "caller",
          "type": "address"
        },
        {
          "indexed": false,
          "internalType": "uint256",
          "name": "amount",
          "type": "uint256"
        }
      ],
      "name": "SwapFeeChanged",
      "type": "event"
    },
    {
      "anonymous": false,
      "inputs": [
        {
          "indexed": true,
          "internalType": "address",
          "name": "src",
          "type": "address"
        },
        {
          "indexed": true,
          "internalType": "address",
          "name": "dst",
          "type": "address"
        },
        {
          "indexed": false,
          "internalType": "uint256",
          "name": "amt",
          "type": "uint256"
        }
      ],
      "name": "Transfer",
      "type": "event"
    },
    {
      "inputs": [],
      "name": "BONE",
      "outputs": [
        {
          "internalType": "uint256",
          "name": "",
          "type": "uint256"
        }
      ],
      "stateMutability": "view",
      "type": "function"
    },
    {
      "inputs": [],
      "name": "BPOW_PRECISION",
      "outputs": [
        {
          "internalType": "uint256",
          "name": "",
          "type": "uint256"
        }
      ],
      "stateMutability": "view",
      "type": "function"
    },
    {
      "inputs": [],
      "name": "EXIT_FEE",
      "outputs": [
        {
          "internalType": "uint256",
          "name": "",
          "type": "uint256"
        }
      ],
      "stateMutability": "view",
      "type": "function"
    },
    {
      "inputs": [],
      "name": "INIT_POOL_SUPPLY",
      "outputs": [
        {
          "internalType": "uint256",
          "name": "",
          "type": "uint256"
        }
      ],
      "stateMutability": "view",
      "type": "function"
    },
    {
      "inputs": [],
      "name": "MAX_BOUND_TOKENS",
      "outputs": [
        {
          "internalType": "uint256",
          "name": "",
          "type": "uint256"
        }
      ],
      "stateMutability": "view",
      "type": "function"
    },
    {
      "inputs": [],
      "name": "MAX_BPOW_BASE",
      "outputs": [
        {
          "internalType": "uint256",
          "name": "",
          "type": "uint256"
        }
      ],
      "stateMutability": "view",
      "type": "function"
    },
    {
      "inputs": [],
      "name": "MAX_FEE",
      "outputs": [
        {
          "internalType": "uint256",
          "name": "",
          "type": "uint256"
        }
      ],
      "stateMutability": "view",
      "type": "function"
    },
    {
      "inputs": [],
      "name": "MAX_IN_RATIO",
      "outputs": [
        {
          "internalType": "uint256",
          "name": "",
          "type": "uint256"
        }
      ],
      "stateMutability": "view",
      "type": "function"
    },
    {
      "inputs": [],
      "name": "MAX_OUT_RATIO",
      "outputs": [
        {
          "internalType": "uint256",
          "name": "",
          "type": "uint256"
        }
      ],
      "stateMutability": "view",
      "type": "function"
    },
    {
      "inputs": [],
      "name": "MAX_TOTAL_WEIGHT",
      "outputs": [
        {
          "internalType": "uint256",
          "name": "",
          "type": "uint256"
        }
      ],
      "stateMutability": "view",
      "type": "function"
    },
    {
      "inputs": [],
      "name": "MAX_WEIGHT",
      "outputs": [
        {
          "internalType": "uint256",
          "name": "",
          "type": "uint256"
        }
      ],
      "stateMutability": "view",
      "type": "function"
    },
    {
      "inputs": [],
      "name": "MIN_BALANCE",
      "outputs": [
        {
          "internalType": "uint256",
          "name": "",
          "type": "uint256"
        }
      ],
      "stateMutability": "view",
      "type": "function"
    },
    {
      "inputs": [],
      "name": "MIN_BOUND_TOKENS",
      "outputs": [
        {
          "internalType": "uint256",
          "name": "",
          "type": "uint256"
        }
      ],
      "stateMutability": "view",
      "type": "function"
    },
    {
      "inputs": [],
      "name": "MIN_BPOW_BASE",
      "outputs": [
        {
          "internalType": "uint256",
          "name": "",
          "type": "uint256"
        }
      ],
      "stateMutability": "view",
      "type": "function"
    },
    {
      "inputs": [],
      "name": "MIN_FEE",
      "outputs": [
        {
          "internalType": "uint256",
          "name": "",
          "type": "uint256"
        }
      ],
      "stateMutability": "view",
      "type": "function"
    },
    {
      "inputs": [],
      "name": "MIN_WEIGHT",
      "outputs": [
        {
          "internalType": "uint256",
          "name": "",
          "type": "uint256"
        }
      ],
      "stateMutability": "view",
      "type": "function"
    },
    {
      "inputs": [],
      "name": "_opfCollector",
      "outputs": [
        {
          "internalType": "address",
          "name": "",
          "type": "address"
        }
      ],
      "stateMutability": "view",
      "type": "function"
    },
    {
      "inputs": [],
      "name": "_publishMarketCollector",
      "outputs": [
        {
          "internalType": "address",
          "name": "",
          "type": "address"
        }
      ],
      "stateMutability": "view",
      "type": "function"
    },
    {
      "inputs": [],
      "name": "_swapPublishMarketFee",
      "outputs": [
        {
          "internalType": "uint256",
          "name": "",
          "type": "uint256"
        }
      ],
      "stateMutability": "view",
      "type": "function"
    },
    {
      "inputs": [
        {
          "internalType": "address",
          "name": "src",
          "type": "address"
        },
        {
          "internalType": "address",
          "name": "dst",
          "type": "address"
        }
      ],
      "name": "allowance",
      "outputs": [
        {
          "internalType": "uint256",
          "name": "",
          "type": "uint256"
        }
      ],
      "stateMutability": "view",
      "type": "function"
    },
    {
      "inputs": [
        {
          "internalType": "address",
          "name": "dst",
          "type": "address"
        },
        {
          "internalType": "uint256",
          "name": "amt",
          "type": "uint256"
        }
      ],
      "name": "approve",
      "outputs": [
        {
          "internalType": "bool",
          "name": "",
          "type": "bool"
        }
      ],
      "stateMutability": "nonpayable",
      "type": "function"
    },
    {
      "inputs": [
        {
          "internalType": "address",
          "name": "whom",
          "type": "address"
        }
      ],
      "name": "balanceOf",
      "outputs": [
        {
          "internalType": "uint256",
          "name": "",
          "type": "uint256"
        }
      ],
      "stateMutability": "view",
      "type": "function"
    },
    {
      "inputs": [
        {
          "internalType": "address",
          "name": "tokenOut",
          "type": "address"
        },
        {
          "internalType": "uint256",
          "name": "tokenAmountOut",
          "type": "uint256"
        }
      ],
      "name": "calcPoolInSingleOut",
      "outputs": [
        {
          "internalType": "uint256",
          "name": "poolAmountIn",
          "type": "uint256"
        }
      ],
      "stateMutability": "view",
      "type": "function"
    },
    {
      "inputs": [
        {
          "internalType": "address",
          "name": "tokenIn",
          "type": "address"
        },
        {
          "internalType": "uint256",
          "name": "tokenAmountIn",
          "type": "uint256"
        }
      ],
      "name": "calcPoolOutSingleIn",
      "outputs": [
        {
          "internalType": "uint256",
          "name": "poolAmountOut",
          "type": "uint256"
        }
      ],
      "stateMutability": "view",
      "type": "function"
    },
    {
      "inputs": [
        {
          "internalType": "address",
          "name": "tokenIn",
          "type": "address"
        },
        {
          "internalType": "uint256",
          "name": "poolAmountOut",
          "type": "uint256"
        }
      ],
      "name": "calcSingleInPoolOut",
      "outputs": [
        {
          "internalType": "uint256",
          "name": "tokenAmountIn",
          "type": "uint256"
        }
      ],
      "stateMutability": "view",
      "type": "function"
    },
    {
      "inputs": [
        {
          "internalType": "address",
          "name": "tokenOut",
          "type": "address"
        },
        {
          "internalType": "uint256",
          "name": "poolAmountIn",
          "type": "uint256"
        }
      ],
      "name": "calcSingleOutPoolIn",
      "outputs": [
        {
          "internalType": "uint256",
          "name": "tokenAmountOut",
          "type": "uint256"
        }
      ],
      "stateMutability": "view",
      "type": "function"
    },
    {
      "inputs": [],
      "name": "collectMarketFee",
      "outputs": [],
      "stateMutability": "nonpayable",
      "type": "function"
    },
    {
      "inputs": [],
      "name": "collectOPF",
      "outputs": [],
      "stateMutability": "nonpayable",
      "type": "function"
    },
    {
      "inputs": [
        {
          "internalType": "address",
          "name": "",
          "type": "address"
        }
      ],
      "name": "communityFees",
      "outputs": [
        {
          "internalType": "uint256",
          "name": "",
          "type": "uint256"
        }
      ],
      "stateMutability": "view",
      "type": "function"
    },
    {
      "inputs": [],
      "name": "decimals",
      "outputs": [
        {
          "internalType": "uint8",
          "name": "",
          "type": "uint8"
        }
      ],
      "stateMutability": "view",
      "type": "function"
    },
    {
      "inputs": [
        {
          "internalType": "address",
          "name": "dst",
          "type": "address"
        },
        {
          "internalType": "uint256",
          "name": "amt",
          "type": "uint256"
        }
      ],
      "name": "decreaseApproval",
      "outputs": [
        {
          "internalType": "bool",
          "name": "",
          "type": "bool"
        }
      ],
      "stateMutability": "nonpayable",
      "type": "function"
    },
    {
      "inputs": [
        {
          "internalType": "uint256",
          "name": "poolAmountIn",
          "type": "uint256"
        },
        {
          "internalType": "uint256[]",
          "name": "minAmountsOut",
          "type": "uint256[]"
        }
      ],
      "name": "exitPool",
      "outputs": [],
      "stateMutability": "nonpayable",
      "type": "function"
    },
    {
      "inputs": [
        {
          "internalType": "address",
          "name": "tokenOut",
          "type": "address"
        },
        {
          "internalType": "uint256",
          "name": "tokenAmountOut",
          "type": "uint256"
        },
        {
          "internalType": "uint256",
          "name": "maxPoolAmountIn",
          "type": "uint256"
        }
      ],
      "name": "exitswapExternAmountOut",
      "outputs": [
        {
          "internalType": "uint256",
          "name": "poolAmountIn",
          "type": "uint256"
        }
      ],
      "stateMutability": "nonpayable",
      "type": "function"
    },
    {
      "inputs": [
        {
          "internalType": "address",
          "name": "tokenOut",
          "type": "address"
        },
        {
          "internalType": "uint256",
          "name": "poolAmountIn",
          "type": "uint256"
        },
        {
          "internalType": "uint256",
          "name": "minAmountOut",
          "type": "uint256"
        }
      ],
      "name": "exitswapPoolAmountIn",
      "outputs": [
        {
          "internalType": "uint256",
          "name": "tokenAmountOut",
          "type": "uint256"
        }
      ],
      "stateMutability": "nonpayable",
      "type": "function"
    },
    {
      "inputs": [
        {
          "internalType": "address",
          "name": "tokenIn",
          "type": "address"
        },
        {
          "internalType": "address",
          "name": "tokenOut",
          "type": "address"
        },
        {
          "internalType": "uint256",
          "name": "tokenAmountOut",
          "type": "uint256"
        },
        {
          "internalType": "uint256",
          "name": "_swapMarketFee",
          "type": "uint256"
        }
      ],
      "name": "getAmountInExactOut",
      "outputs": [
        {
          "internalType": "uint256",
          "name": "tokenAmountIn",
          "type": "uint256"
        }
      ],
      "stateMutability": "view",
      "type": "function"
    },
    {
      "inputs": [
        {
          "internalType": "address",
          "name": "tokenIn",
          "type": "address"
        },
        {
          "internalType": "address",
          "name": "tokenOut",
          "type": "address"
        },
        {
          "internalType": "uint256",
          "name": "tokenAmountIn",
          "type": "uint256"
        },
        {
          "internalType": "uint256",
          "name": "_swapMarketFee",
          "type": "uint256"
        }
      ],
      "name": "getAmountOutExactIn",
      "outputs": [
        {
          "internalType": "uint256",
          "name": "tokenAmountOut",
          "type": "uint256"
        }
      ],
      "stateMutability": "view",
      "type": "function"
    },
    {
      "inputs": [
        {
          "internalType": "address",
          "name": "token",
          "type": "address"
        }
      ],
      "name": "getBalance",
      "outputs": [
        {
          "internalType": "uint256",
          "name": "",
          "type": "uint256"
        }
      ],
      "stateMutability": "view",
      "type": "function"
    },
    {
      "inputs": [],
      "name": "getBaseTokenAddress",
      "outputs": [
        {
          "internalType": "address",
          "name": "",
          "type": "address"
        }
      ],
      "stateMutability": "view",
      "type": "function"
    },
    {
      "inputs": [],
      "name": "getController",
      "outputs": [
        {
          "internalType": "address",
          "name": "",
          "type": "address"
        }
      ],
      "stateMutability": "view",
      "type": "function"
    },
    {
      "inputs": [],
      "name": "getCurrentMarketFees",
      "outputs": [
        {
          "internalType": "address[]",
          "name": "",
          "type": "address[]"
        },
        {
          "internalType": "uint256[]",
          "name": "",
          "type": "uint256[]"
        }
      ],
      "stateMutability": "view",
      "type": "function"
    },
    {
      "inputs": [],
      "name": "getCurrentOPFFees",
      "outputs": [
        {
          "internalType": "address[]",
          "name": "",
          "type": "address[]"
        },
        {
          "internalType": "uint256[]",
          "name": "",
          "type": "uint256[]"
        }
      ],
      "stateMutability": "view",
      "type": "function"
    },
    {
      "inputs": [],
      "name": "getCurrentTokens",
      "outputs": [
        {
          "internalType": "address[]",
          "name": "tokens",
          "type": "address[]"
        }
      ],
      "stateMutability": "view",
      "type": "function"
    },
    {
      "inputs": [],
      "name": "getDataTokenAddress",
      "outputs": [
        {
          "internalType": "address",
          "name": "",
          "type": "address"
        }
      ],
      "stateMutability": "view",
      "type": "function"
    },
    {
      "inputs": [
        {
          "internalType": "address",
          "name": "token",
          "type": "address"
        }
      ],
      "name": "getDenormalizedWeight",
      "outputs": [
        {
          "internalType": "uint256",
          "name": "",
          "type": "uint256"
        }
      ],
      "stateMutability": "view",
      "type": "function"
    },
    {
      "inputs": [],
      "name": "getFinalTokens",
      "outputs": [
        {
          "internalType": "address[]",
          "name": "tokens",
          "type": "address[]"
        }
      ],
      "stateMutability": "view",
      "type": "function"
    },
    {
      "inputs": [],
      "name": "getMarketFee",
      "outputs": [
        {
          "internalType": "uint256",
          "name": "",
          "type": "uint256"
        }
      ],
      "stateMutability": "view",
      "type": "function"
    },
    {
      "inputs": [
        {
          "internalType": "address",
          "name": "token",
          "type": "address"
        }
      ],
      "name": "getNormalizedWeight",
      "outputs": [
        {
          "internalType": "uint256",
          "name": "",
          "type": "uint256"
        }
      ],
      "stateMutability": "view",
      "type": "function"
    },
    {
      "inputs": [],
      "name": "getNumTokens",
      "outputs": [
        {
          "internalType": "uint256",
          "name": "",
          "type": "uint256"
        }
      ],
      "stateMutability": "view",
      "type": "function"
    },
    {
      "inputs": [],
      "name": "getOPFFee",
      "outputs": [
        {
          "internalType": "uint256",
          "name": "",
          "type": "uint256"
        }
      ],
      "stateMutability": "view",
      "type": "function"
    },
    {
      "inputs": [
        {
          "internalType": "address",
          "name": "tokenIn",
          "type": "address"
        },
        {
          "internalType": "address",
          "name": "tokenOut",
          "type": "address"
        },
        {
          "internalType": "uint256",
          "name": "_swapMarketFee",
          "type": "uint256"
        }
      ],
      "name": "getSpotPrice",
      "outputs": [
        {
          "internalType": "uint256",
          "name": "spotPrice",
          "type": "uint256"
        }
      ],
      "stateMutability": "view",
      "type": "function"
    },
    {
      "inputs": [],
      "name": "getSwapFee",
      "outputs": [
        {
          "internalType": "uint256",
          "name": "",
          "type": "uint256"
        }
      ],
      "stateMutability": "view",
      "type": "function"
    },
    {
      "inputs": [],
      "name": "getTotalDenormalizedWeight",
      "outputs": [
        {
          "internalType": "uint256",
          "name": "",
          "type": "uint256"
        }
      ],
      "stateMutability": "view",
      "type": "function"
    },
    {
      "inputs": [
        {
          "internalType": "address",
          "name": "dst",
          "type": "address"
        },
        {
          "internalType": "uint256",
          "name": "amt",
          "type": "uint256"
        }
      ],
      "name": "increaseApproval",
      "outputs": [
        {
          "internalType": "bool",
          "name": "",
          "type": "bool"
        }
      ],
      "stateMutability": "nonpayable",
      "type": "function"
    },
    {
      "inputs": [
        {
          "internalType": "address",
          "name": "controller",
          "type": "address"
        },
        {
          "internalType": "address",
          "name": "factory",
          "type": "address"
        },
        {
          "internalType": "uint256[]",
          "name": "swapFees",
          "type": "uint256[]"
        },
        {
          "internalType": "bool",
          "name": "publicSwap",
          "type": "bool"
        },
        {
          "internalType": "bool",
          "name": "finalized",
          "type": "bool"
        },
        {
          "internalType": "address[2]",
          "name": "tokens",
          "type": "address[2]"
        },
        {
          "internalType": "address[2]",
          "name": "feeCollectors",
          "type": "address[2]"
        }
      ],
      "name": "initialize",
      "outputs": [
        {
          "internalType": "bool",
          "name": "",
          "type": "bool"
        }
      ],
      "stateMutability": "nonpayable",
      "type": "function"
    },
    {
      "inputs": [
        {
          "internalType": "address",
          "name": "t",
          "type": "address"
        }
      ],
      "name": "isBound",
      "outputs": [
        {
          "internalType": "bool",
          "name": "",
          "type": "bool"
        }
      ],
      "stateMutability": "view",
      "type": "function"
    },
    {
      "inputs": [],
      "name": "isFinalized",
      "outputs": [
        {
          "internalType": "bool",
          "name": "",
          "type": "bool"
        }
      ],
      "stateMutability": "view",
      "type": "function"
    },
    {
      "inputs": [],
      "name": "isInitialized",
      "outputs": [
        {
          "internalType": "bool",
          "name": "",
          "type": "bool"
        }
      ],
      "stateMutability": "view",
      "type": "function"
    },
    {
      "inputs": [],
      "name": "isPublicSwap",
      "outputs": [
        {
          "internalType": "bool",
          "name": "",
          "type": "bool"
        }
      ],
      "stateMutability": "view",
      "type": "function"
    },
    {
      "inputs": [
        {
          "internalType": "uint256",
          "name": "poolAmountOut",
          "type": "uint256"
        },
        {
          "internalType": "uint256[]",
          "name": "maxAmountsIn",
          "type": "uint256[]"
        }
      ],
      "name": "joinPool",
      "outputs": [],
      "stateMutability": "nonpayable",
      "type": "function"
    },
    {
      "inputs": [
        {
          "internalType": "address",
          "name": "tokenIn",
          "type": "address"
        },
        {
          "internalType": "uint256",
          "name": "tokenAmountIn",
          "type": "uint256"
        },
        {
          "internalType": "uint256",
          "name": "minPoolAmountOut",
          "type": "uint256"
        }
      ],
      "name": "joinswapExternAmountIn",
      "outputs": [
        {
          "internalType": "uint256",
          "name": "poolAmountOut",
          "type": "uint256"
        }
      ],
      "stateMutability": "nonpayable",
      "type": "function"
    },
    {
      "inputs": [
        {
          "internalType": "address",
          "name": "tokenIn",
          "type": "address"
        },
        {
          "internalType": "uint256",
          "name": "poolAmountOut",
          "type": "uint256"
        },
        {
          "internalType": "uint256",
          "name": "maxAmountIn",
          "type": "uint256"
        }
      ],
      "name": "joinswapPoolAmountOut",
      "outputs": [
        {
          "internalType": "uint256",
          "name": "tokenAmountIn",
          "type": "uint256"
        }
      ],
      "stateMutability": "nonpayable",
      "type": "function"
    },
    {
      "inputs": [],
      "name": "name",
      "outputs": [
        {
          "internalType": "string",
          "name": "",
          "type": "string"
        }
      ],
      "stateMutability": "view",
      "type": "function"
    },
    {
      "inputs": [
        {
          "internalType": "address",
          "name": "",
          "type": "address"
        }
      ],
      "name": "publishMarketFees",
      "outputs": [
        {
          "internalType": "uint256",
          "name": "",
          "type": "uint256"
        }
      ],
      "stateMutability": "view",
      "type": "function"
    },
    {
      "inputs": [
        {
          "internalType": "uint256",
          "name": "swapFee",
          "type": "uint256"
        }
      ],
      "name": "setSwapFee",
      "outputs": [],
      "stateMutability": "nonpayable",
      "type": "function"
    },
    {
      "inputs": [
        {
          "internalType": "address",
          "name": "dataTokenAddress",
          "type": "address"
        },
        {
          "internalType": "uint256",
          "name": "dataTokenAmount",
          "type": "uint256"
        },
        {
          "internalType": "uint256",
          "name": "dataTokenWeight",
          "type": "uint256"
        },
        {
          "internalType": "address",
          "name": "baseTokenAddress",
          "type": "address"
        },
        {
          "internalType": "uint256",
          "name": "baseTokenAmount",
          "type": "uint256"
        },
        {
          "internalType": "uint256",
          "name": "baseTokenWeight",
          "type": "uint256"
        }
      ],
      "name": "setup",
      "outputs": [],
      "stateMutability": "nonpayable",
      "type": "function"
    },
    {
      "inputs": [
        {
          "internalType": "address[3]",
          "name": "tokenInOutMarket",
          "type": "address[3]"
        },
        {
          "internalType": "uint256[4]",
          "name": "amountsInOutMaxFee",
          "type": "uint256[4]"
        }
      ],
      "name": "swapExactAmountIn",
      "outputs": [
        {
          "internalType": "uint256",
          "name": "tokenAmountOut",
          "type": "uint256"
        },
        {
          "internalType": "uint256",
          "name": "spotPriceAfter",
          "type": "uint256"
        }
      ],
      "stateMutability": "nonpayable",
      "type": "function"
    },
    {
      "inputs": [
        {
          "internalType": "address[3]",
          "name": "tokenInOutMarket",
          "type": "address[3]"
        },
        {
          "internalType": "uint256[4]",
          "name": "amountsInOutMaxFee",
          "type": "uint256[4]"
        }
      ],
      "name": "swapExactAmountOut",
      "outputs": [
        {
          "internalType": "uint256",
          "name": "tokenAmountIn",
          "type": "uint256"
        },
        {
          "internalType": "uint256",
          "name": "spotPriceAfter",
          "type": "uint256"
        }
      ],
      "stateMutability": "nonpayable",
      "type": "function"
    },
    {
      "inputs": [],
      "name": "symbol",
      "outputs": [
        {
          "internalType": "string",
          "name": "",
          "type": "string"
        }
      ],
      "stateMutability": "view",
      "type": "function"
    },
    {
      "inputs": [],
      "name": "totalSupply",
      "outputs": [
        {
          "internalType": "uint256",
          "name": "",
          "type": "uint256"
        }
      ],
      "stateMutability": "view",
      "type": "function"
    },
    {
      "inputs": [
        {
          "internalType": "address",
          "name": "dst",
          "type": "address"
        },
        {
          "internalType": "uint256",
          "name": "amt",
          "type": "uint256"
        }
      ],
      "name": "transfer",
      "outputs": [
        {
          "internalType": "bool",
          "name": "",
          "type": "bool"
        }
      ],
      "stateMutability": "nonpayable",
      "type": "function"
    },
    {
      "inputs": [
        {
          "internalType": "address",
          "name": "src",
          "type": "address"
        },
        {
          "internalType": "address",
          "name": "dst",
          "type": "address"
        },
        {
          "internalType": "uint256",
          "name": "amt",
          "type": "uint256"
        }
      ],
      "name": "transferFrom",
      "outputs": [
        {
          "internalType": "bool",
          "name": "",
          "type": "bool"
        }
      ],
      "stateMutability": "nonpayable",
      "type": "function"
    },
    {
      "inputs": [
        {
          "internalType": "address",
          "name": "_newCollector",
          "type": "address"
        }
      ],
      "name": "updateMarketFeeCollector",
      "outputs": [],
      "stateMutability": "nonpayable",
      "type": "function"
    }
  ],
  "bytecode": "0x60c0604052601360808190527f42616c616e63657220506f6f6c20546f6b656e0000000000000000000000000060a09081526200004091600a91906200008f565b506040805180820190915260038082526210941560ea1b60209092019182526200006d91600b916200008f565b50600c805460ff191660121790553480156200008857600080fd5b5062000172565b8280546200009d9062000135565b90600052602060002090601f016020900481019282620000c157600085556200010c565b82601f10620000dc57805160ff19168380011785556200010c565b828001600101855582156200010c579182015b828111156200010c578251825591602001919060010190620000ef565b506200011a9291506200011e565b5090565b5b808211156200011a57600081556001016200011f565b600181811c908216806200014a57607f821691505b602082108114156200016c57634e487b7160e01b600052602260045260246000fd5b50919050565b61605380620001826000396000f3fe608060405234801561001057600080fd5b50600436106104285760003560e01c80638d4e40831161022b578063c44a428311610130578063dd62ed3e116100b8578063f1b8a9b711610087578063f1b8a9b7146108b1578063f68045a5146108c4578063f8b2cb4f146108cc578063fde924f7146108df578063ff9b1850146108f157600080fd5b8063dd62ed3e1461085d578063e4a28a52146104c3578063ec09302114610896578063f0f13f0b1461089e57600080fd5b8063caa01148116100ff578063caa011481461081f578063cc77828d14610832578063cd2ed8fb1461083a578063d4cadf6814610842578063d73dd6231461084a57600080fd5b8063c44a4283146107e6578063c6580d12146107fc578063c8ff183314610804578063c98a59cf1461080c57600080fd5b8063b0e0d136116101b3578063bc694ea211610182578063bc694ea21461078e578063be3bbd2e14610796578063c070a6d8146107ab578063c36596a6146104f0578063c421a3fc146107be57600080fd5b8063b0e0d13614610776578063b7b800a414610776578063ba019dab1461077e578063bc063e1a1461078657600080fd5b806395d89b41116101fa57806395d89b411461072d578063992e2a9214610735578063a3b3a16d1461073d578063a9059cbb14610750578063b02f0b731461076357600080fd5b80638d4e4083146106f8578063936c34771461070a5780639381cd2b14610712578063948d8ce61461071a57600080fd5b80633950b3fd116103315780636d06dfa0116102b957806376c7a3c71161028857806376c7a3c7146106b75780637a284be4146106bf5780637c5918b3146106c857806380ca7308146106e8578063867378c5146106f057600080fd5b80636d06dfa014610660578063700dd7e814610673578063703305181461067b57806370a082311461068e57600080fd5b80634f69c0d4116103005780634f69c0d41461060c5780635db342771461061f5780635e123add14610632578063638c9e951461063a578063661884631461064d57600080fd5b80633950b3fd146105c2578063430ed5d0146105d557806346ab38f1146105e85780634df947d0146105fb57600080fd5b8063218b5382116103b4578063300621921161038357806330062192146105515780633018205f14610571578063313ce5671461058857806334e199071461059d578063392e53cd146105b057600080fd5b8063218b5382146104f057806323b872dd146104ff5780632eebd6ae146105125780632f37b6241461052557600080fd5b8063095ea7b3116103fb578063095ea7b3146104a057806309a3bbe4146104c357806309ef3f5b146104cb57806318160ddd146104e0578063189d00ca146104e857600080fd5b806302c967481461042d57806304ad79541461045357806306fdde0314610478578063079492d41461048d575b600080fd5b61044061043b36600461585b565b610904565b6040519081526020015b60405180910390f35b6003546001600160a01b03165b6040516001600160a01b03909116815260200161044a565b610480610d94565b60405161044a91906158ba565b61044061049b3660046158ed565b610e26565b6104b36104ae366004615929565b610f0e565b604051901515815260200161044a565b610440610f69565b6104de6104d9366004615953565b610f7f565b005b600954610440565b6104406111bb565b610440670de0b6b3a764000081565b6104b361050d3660046158ed565b6111d2565b6104406105203660046159ab565b611326565b6104b36105333660046159ed565b6001600160a01b031660009081526010602052604090205460ff1690565b61044061055f3660046159ed565b60056020526000908152604090205481565b600c546201000090046001600160a01b0316610460565b600c5460405160ff909116815260200161044a565b6104de6105ab366004615a08565b6113e3565b601254600160a01b900460ff166104b3565b6104406105d0366004615929565b61151c565b6104406105e3366004615929565b611584565b6104406105f636600461585b565b6115e4565b6004546001600160a01b0316610460565b6104de61061a366004615a66565b611a19565b61044061062d36600461585b565b611c40565b600054610440565b600d54610460906001600160a01b031681565b6104b361065b366004615929565b612030565b61044061066e36600461585b565b612106565b610440612511565b6104de6106893660046159ed565b61258b565b61044061069c3660046159ed565b6001600160a01b031660009081526007602052604090205490565b610440612688565b61044060005481565b6104406106d63660046159ed565b60066020526000908152604090205481565b6104de61269d565b61044061282f565b600e54600160a01b900460ff166104b3565b610440612846565b610440612878565b6104406107283660046159ed565b61288b565b6104806128e2565b6104406128f1565b61044061074b366004615929565b61290f565b6104b361075e366004615929565b61296f565b6104de610771366004615a66565b612985565b610440600281565b610440600181565b610440612be1565b610440612bf4565b61079e612c13565b60405161044a9190615af6565b6104b36107b9366004615b28565b612cc6565b6107d16107cc366004615bd5565b612f36565b6040805192835260208301919091520161044a565b6107ee613379565b60405161044a929190615c17565b610440600081565b6107ee6134e9565b6107d161081a366004615bd5565b61364e565b61044061082d3660046159ab565b613a6a565b61079e613b1c565b600f54610440565b600154610440565b6104b3610858366004615929565b613b47565b61044061086b366004615c6e565b6001600160a01b03918216600090815260086020908152604080832093909416825291909152205490565b610440613bba565b600e54610460906001600160a01b031681565b6104406108bf3660046159ed565b613bcd565b6104de613c2b565b6104406108da3660046159ed565b613d99565b600c54600160b01b900460ff166104b3565b6104406108ff366004615929565b613dec565b600c54600090610100900460ff16156109385760405162461bcd60e51b815260040161092f90615ca1565b60405180910390fd5b600c805461ff001916610100179055600e54600160a01b900460ff166109705760405162461bcd60e51b815260040161092f90615cc6565b6001600160a01b03841660009081526010602052604090205460ff166109a85760405162461bcd60e51b815260040161092f90615cf1565b6001600160a01b03841660009081526010602052604090206003908101546109ec916109dc90670de0b6b3a7640000615d44565b6109e7906001615d58565b613e4c565b831115610a0b5760405162461bcd60e51b815260040161092f90615d70565b6001600160a01b038416600090815260106020526040902060038101546002820154600954601154610a409392919088613f31565b915081610a5f5760405162461bcd60e51b815260040161092f90615d9b565b82821115610a7f5760405162461bcd60e51b815260040161092f90615dc4565b610a8d816003015485613ff5565b60038201556000610a9e8382613e4c565b604080518781524260208201529192506001600160a01b038816913391600080516020615f7e833981519152910160405180910390a3604051838152600080516020615fbe8339815191529060200160405180910390a1610aff3384614052565b610b11610b0c8483613ff5565b61405c565b600254610b27906001600160a01b031682614068565b610b32863387614072565b6003546000906001600160a01b0388811691161415610b5d57506004546001600160a01b0316610b6b565b506003546001600160a01b03165b60125460035460405163efd4810360e01b81526001600160a01b039283169263efd4810392610ba39291169085908990600401615dea565b602060405180830381865afa158015610bc0573d6000803e3d6000fd5b505050506040513d601f19601f82011682018060405250810190610be49190615e0e565b15610d7f57600380546001600160a01b03166000908152601060205260408120918201546002830154600954601154610c20939291908a61408b565b9050610c30826003015482613ff5565b6003830155610c40866000613e4c565b600c54604080518481524260208201529296506001600160a01b0386811693620100009093041691600080516020615f7e833981519152910160405180910390a3600c54610c9d906201000090046001600160a01b031687614052565b610caa610b0c8786613ff5565b600254610cc0906001600160a01b031685614068565b600c54610cde9084906201000090046001600160a01b031683614072565b6012546003546040516307b01ab360e41b81526001600160a01b03918216600482015285821660248201526044810184905260648101899052911690637b01ab3090608401600060405180830381600087803b158015610d3d57600080fd5b505af1158015610d51573d6000803e3d6000fd5b50505050600080516020615f9e83398151915286604051610d7491815260200190565b60405180910390a150505b505050600c805461ff00191690559392505050565b6060600a8054610da390615e2b565b80601f0160208091040260200160405190810160405280929190818152602001828054610dcf90615e2b565b8015610e1c5780601f10610df157610100808354040283529160200191610e1c565b820191906000526020600020905b815481529060010190602001808311610dff57829003601f168201915b5050505050905090565b600c54600090610100900460ff1615610e515760405162461bcd60e51b815260040161092f90615ca1565b6001600160a01b03841660009081526010602052604090205460ff16610e895760405162461bcd60e51b815260040161092f90615cf1565b6001600160a01b03831660009081526010602052604090205460ff16610ec15760405162461bcd60e51b815260040161092f90615cf1565b6001600160a01b03808516600090815260106020526040808220928616825290206003808301546002808501549284015490840154610f0293919088614155565b925050505b9392505050565b3360008181526008602090815260408083206001600160a01b03871680855292528083208590555191929091600080516020615ffe83398151915290610f579086815260200190565b60405180910390a35060015b92915050565b610f7c670de0b6b3a76400006032615e66565b81565b600c54610100900460ff1615610fa75760405162461bcd60e51b815260040161092f90615ca1565b600c805461010061ff001990911617908190556201000090046001600160a01b031633146110105760405162461bcd60e51b815260206004820152601660248201527522a9292fa4a72b20a624a22fa1a7a72a2927a62622a960511b604482015260640161092f565b6003546001600160a01b0387811691161461106d5760405162461bcd60e51b815260206004820152601d60248201527f4552525f494e56414c49445f44415441544f4b454e5f41444452455353000000604482015260640161092f565b6004546001600160a01b038481169116146110ca5760405162461bcd60e51b815260206004820152601d60248201527f4552525f494e56414c49445f42415345544f4b454e5f41444452455353000000604482015260640161092f565b6110d58686866141e1565b604080518681524260208201526001600160a01b038816913391600080516020615fde833981519152910160405180910390a36111138383836141e1565b604080518381524260208201526001600160a01b038516913391600080516020615fde833981519152910160405180910390a361114e6143cb565b6040805183815260208101839052908101869052606081018590526001600160a01b03808816919085169033907fbece8b4dcdbe446dd65a9288154698e067e3e91de17a1a408c2f531b9f845d739060800160405180910390a45050600c805461ff001916905550505050565b610f7c6402540be400670de0b6b3a7640000615d44565b6000336001600160a01b038516148061120e57506001600160a01b03841660009081526008602090815260408083203384529091529020548211155b6112525760405162461bcd60e51b815260206004820152601560248201527422a9292fa12a27a5a2a72fa120a22fa1a0a62622a960591b604482015260640161092f565b61125d84848461442a565b336001600160a01b0385161480159061129b57506001600160a01b038416600090815260086020908152604080832033845290915290205460001914155b1561131c576001600160a01b03841660009081526008602090815260408083203384529091529020546112ce9083613ff5565b6001600160a01b038581166000908152600860209081526040808320338085529083529281902085905551938452918616929091600080516020615ffe833981519152910160405180910390a35b5060019392505050565b6001600160a01b03841660009081526010602052604081205460ff1661135e5760405162461bcd60e51b815260040161092f90615cf1565b6001600160a01b03841660009081526010602052604090205460ff166113965760405162461bcd60e51b815260040161092f90615cf1565b6001600160a01b038086166000908152601060205260408082209287168252902060038083015460028085015492840154908401546113d8939190898961453c565b979650505050505050565b600c546201000090046001600160a01b031633146114385760405162461bcd60e51b815260206004820152601260248201527122a9292fa727aa2fa1a7a72a2927a62622a960711b604482015260640161092f565b61144d620f4240670de0b6b3a7640000615d44565b81101561148a5760405162461bcd60e51b815260206004820152600b60248201526a4552525f4d494e5f46454560a81b604482015260640161092f565b61149d600a670de0b6b3a7640000615d44565b8111156114da5760405162461bcd60e51b815260206004820152600b60248201526a4552525f4d41585f46454560a81b604482015260640161092f565b600181905560408051338152602081018390527fbca0d601c32979eebac4e8cd06375b6e45d39af80fc06a33f366425b450dfb6991015b60405180910390a150565b6001600160a01b03821660009081526010602090815260408083208151608081018352815460ff16151581526001820154938101939093526002810154918301829052600301546060830181905260095460115461157c939190876145ee565b949350505050565b6001600160a01b03821660009081526010602090815260408083208151608081018352815460ff16151581526001820154938101939093526002810154918301829052600301546060830181905260095460115461157c9391908761408b565b600c54600090610100900460ff161561160f5760405162461bcd60e51b815260040161092f90615ca1565b600c805461ff001916610100179055600e54600160a01b900460ff166116475760405162461bcd60e51b815260040161092f90615cc6565b6001600160a01b03841660009081526010602052604090205460ff1661167f5760405162461bcd60e51b815260040161092f90615cf1565b6001600160a01b0384166000908152601060205260409020600381015460028201546009546011546116b4939291908861408b565b9150828210156116d65760405162461bcd60e51b815260040161092f90615e85565b6001600160a01b038516600090815260106020526040902060039081015461170a916109dc90670de0b6b3a7640000615d44565b8211156117295760405162461bcd60e51b815260040161092f90615d70565b611737816003015483613ff5565b600382015560006117488582613e4c565b604080518581524260208201529192506001600160a01b038816913391600080516020615f7e833981519152910160405180910390a3604051858152600080516020615fbe8339815191529060200160405180910390a16117a93386614052565b6117b6610b0c8683613ff5565b6002546117cc906001600160a01b031682614068565b6117d7863385614072565b6003546000906001600160a01b038881169116141561180257506004546001600160a01b0316611810565b506003546001600160a01b03165b60125460035460405163efd4810360e01b81526001600160a01b039283169263efd48103926118489291169085908b90600401615dea565b602060405180830381865afa158015611865573d6000803e3d6000fd5b505050506040513d601f19601f820116820180604052508101906118899190615e0e565b15610d7f57600380546001600160a01b031660009081526010602052604081209182015460028301546009546011546118c5939291908c61408b565b90506118d5826003015482613ff5565b60038301556118e5886000613e4c565b600c54604080518481524260208201529296506001600160a01b0386811693620100009093041691600080516020615f7e833981519152910160405180910390a3600c54611942906201000090046001600160a01b031689614052565b61194f610b0c8986613ff5565b600254611965906001600160a01b031685614068565b600c546119839084906201000090046001600160a01b031683614072565b6012546003546040516307b01ab360e41b81526001600160a01b039182166004820152858216602482015260448101849052606481018b9052911690637b01ab3090608401600060405180830381600087803b1580156119e257600080fd5b505af11580156119f6573d6000803e3d6000fd5b50505050600080516020615f9e83398151915288604051610d7491815260200190565b600c54610100900460ff1615611a415760405162461bcd60e51b815260040161092f90615ca1565b600c805461ff001916610100179055600e54600160a01b900460ff16611a795760405162461bcd60e51b815260040161092f90615cc6565b6000611a8460095490565b90506000611a928583614672565b905080611ab15760405162461bcd60e51b815260040161092f90615d9b565b60005b600f54811015611bf9576000600f8281548110611ad357611ad3615eac565b60009182526020808320909101546001600160a01b03168083526010909152604082206003015490925090611b088583613e4c565b905080611b275760405162461bcd60e51b815260040161092f90615d9b565b878785818110611b3957611b39615eac565b90506020020135811115611b5f5760405162461bcd60e51b815260040161092f90615dc4565b6001600160a01b038316600090815260106020526040902060030154611b85908261478a565b6001600160a01b038416600081815260106020526040908190206003019290925590513390600080516020615fde83398151915290611bd09085904290918252602082015260400190565b60405180910390a3611be38333836147dc565b5050508080611bf190615ec2565b915050611ab4565b50611c03856147f1565b611c0d3386614068565b604051858152600080516020615fbe8339815191529060200160405180910390a15050600c805461ff0019169055505050565b600c54600090610100900460ff1615611c6b5760405162461bcd60e51b815260040161092f90615ca1565b600c805461ff001916610100179055600e54600160a01b900460ff16611ca35760405162461bcd60e51b815260040161092f90615cc6565b6001600160a01b03841660009081526010602052604090205460ff16611cdb5760405162461bcd60e51b815260040161092f90615cf1565b6001600160a01b038416600090815260106020526040902060030154611d0e906109e76002670de0b6b3a7640000615d44565b831115611d2d5760405162461bcd60e51b815260040161092f90615edd565b6001600160a01b038416600090815260106020526040902060038101546002820154600954601154611d6293929190886145ee565b915082821015611d845760405162461bcd60e51b815260040161092f90615e85565b611d9281600301548561478a565b6003820155604080518581524260208201526001600160a01b038716913391600080516020615fde833981519152910160405180910390a3604051828152600080516020615fbe8339815191529060200160405180910390a1611df4826147f1565b611dfe3383614068565b611e098533866147dc565b600380546001600160a01b031660009081526010602052604081209182015460028301546009546011548493611e439390929091896147fa565b6003549091506001600160a01b0389811691161415611e6f576004546001600160a01b03169150611e7e565b6003546001600160a01b031691505b6012546003546040516326b1f01f60e01b81526001600160a01b03928316926326b1f01f92611eb69291169086908690600401615dea565b602060405180830381865afa158015611ed3573d6000803e3d6000fd5b505050506040513d601f19601f82011682018060405250810190611ef79190615e0e565b1561201a576012546003546040516399039fcf60e01b81526001600160a01b03928316926399039fcf92611f349291169086908690600401615dea565b600060405180830381600087803b158015611f4e57600080fd5b505af1158015611f62573d6000803e3d6000fd5b50505050611f7483600301548261478a565b6003840155600c54604080518381524260208201526001600160a01b03858116936201000090041691600080516020615fde833981519152910160405180910390a3604051858152600080516020615f9e8339815191529060200160405180910390a1611fe0856147f1565b600c54611ffc906201000090046001600160a01b031686614068565b600c5461201a9083906201000090046001600160a01b0316836147dc565b50505050600c805461ff00191690559392505050565b3360009081526008602090815260408083206001600160a01b038616845290915281205480831115612085573360009081526008602090815260408083206001600160a01b03881684529091528120556120b4565b61208f8184613ff5565b3360009081526008602090815260408083206001600160a01b03891684529091529020555b3360008181526008602090815260408083206001600160a01b03891680855290835292819020549051908152919291600080516020615ffe833981519152910160405180910390a35060019392505050565b600c54600090610100900460ff16156121315760405162461bcd60e51b815260040161092f90615ca1565b600c805461ff001916610100179055600e54600160a01b900460ff166121695760405162461bcd60e51b815260040161092f90615cc6565b6001600160a01b03841660009081526010602052604090205460ff166121a15760405162461bcd60e51b815260040161092f90615cf1565b6001600160a01b0384166000908152601060205260409020600381015460028201546009546011546121d693929190886147fa565b9150816121f55760405162461bcd60e51b815260040161092f90615d9b565b828211156122155760405162461bcd60e51b815260040161092f90615dc4565b6001600160a01b038516600090815260106020526040902060030154612248906109e76002670de0b6b3a7640000615d44565b8211156122675760405162461bcd60e51b815260040161092f90615edd565b61227581600301548361478a565b6003820155604080518381524260208201526001600160a01b038716913391600080516020615fde833981519152910160405180910390a3604051848152600080516020615fbe8339815191529060200160405180910390a16122d7846147f1565b6122e13385614068565b6122ec8533846147dc565b600380546001600160a01b03166000908152601060205260408120918201546002830154600954601154612323939291908a6147fa565b6003549091506000906001600160a01b038981169116141561235157506004546001600160a01b031661235f565b506003546001600160a01b03165b6012546003546040516326b1f01f60e01b81526001600160a01b03928316926326b1f01f926123979291169085908790600401615dea565b602060405180830381865afa1580156123b4573d6000803e3d6000fd5b505050506040513d601f19601f820116820180604052508101906123d89190615e0e565b1561201a576012546003546040516399039fcf60e01b81526001600160a01b03928316926399039fcf926124159291169085908790600401615dea565b600060405180830381600087803b15801561242f57600080fd5b505af1158015612443573d6000803e3d6000fd5b5050505061245583600301548361478a565b6003840155600c54604080518481524260208201526001600160a01b03848116936201000090041691600080516020615fde833981519152910160405180910390a36124a0876147f1565b600c546124bc906201000090046001600160a01b031688614068565b600c546124da9082906201000090046001600160a01b0316846147dc565b604051878152600080516020615f9e8339815191529060200160405180910390a150505050600c805461ff00191690559392505050565b60025460048054604051637c0aa57760e11b81526001600160a01b0391821692810192909252600092169063f8154aee90602401602060405180830381865afa158015612562573d6000803e3d6000fd5b505050506040513d601f19601f820116820180604052508101906125869190615f07565b905090565b600d546001600160a01b031633146125dd5760405162461bcd60e51b815260206004820152601560248201527427a7262c9026a0a925a2aa1021a7a62622a1aa27a960591b604482015260640161092f565b6001600160a01b0381166126335760405162461bcd60e51b815260206004820152601d60248201527f496e76616c6964205f6e6577436f6c6c6563746f722061646472657373000000604482015260640161092f565b600d80546001600160a01b0319166001600160a01b0383169081179091556040805133815260208101929092527f82aaf1a11850bc9b5eb1b7db8b4ad08629911d970a4d7539875938c4017e59b89101611511565b610f7c620f4240670de0b6b3a7640000615d44565b60006126a7612c13565b905060005b815181101561282b576000600660008484815181106126cd576126cd615eac565b60200260200101516001600160a01b03166001600160a01b0316815260200190815260200160002054905060006006600085858151811061271057612710615eac565b60200260200101516001600160a01b03166001600160a01b0316815260200190815260200160002081905550612788600d60009054906101000a90046001600160a01b03168285858151811061276857612768615eac565b60200260200101516001600160a01b03166148949092919063ffffffff16565b7f6b98b886762529d8027f347356f9ec147e1735888054ace831c0e3de7983ab3d33600d60009054906101000a90046001600160a01b03168585815181106127d2576127d2615eac565b60200260200101518460405161281094939291906001600160a01b039485168152928416602084015292166040820152606081019190915260800190565b60405180910390a1508061282381615ec2565b9150506126ac565b5050565b610f7c64e8d4a51000670de0b6b3a7640000615d44565b600c54600090610100900460ff16156128715760405162461bcd60e51b815260040161092f90615ca1565b5060115490565b610f7c670de0b6b3a76400006064615e66565b600c54600090610100900460ff16156128b65760405162461bcd60e51b815260040161092f90615ca1565b6128bf826148f7565b506001600160a01b0381166000908152601060205260409020600201545b919050565b6060600b8054610da390615e2b565b6129046003670de0b6b3a7640000615d44565b610f7c906001615d58565b6001600160a01b03821660009081526010602090815260408083208151608081018352815460ff16151581526001820154938101939093526002810154918301829052600301546060830181905260095460115461157c93919087613f31565b600061297c33848461442a565b50600192915050565b600c54610100900460ff16156129ad5760405162461bcd60e51b815260040161092f90615ca1565b600c805461ff001916610100179055600e54600160a01b900460ff166129e55760405162461bcd60e51b815260040161092f90615cc6565b60006129f060095490565b905060006129ff856000613e4c565b90506000612a0d8683613ff5565b90506000612a1b8285614672565b905080612a3a5760405162461bcd60e51b815260040161092f90615d9b565b612a443388614052565b600254612a5a906001600160a01b031684614068565b612a638261405c565b60005b600f54811015612bab576000600f8281548110612a8557612a85615eac565b60009182526020808320909101546001600160a01b03168083526010909152604082206003015490925090612aba8583613e4c565b905080612ad95760405162461bcd60e51b815260040161092f90615d9b565b898985818110612aeb57612aeb615eac565b90506020020135811015612b115760405162461bcd60e51b815260040161092f90615e85565b6001600160a01b038316600090815260106020526040902060030154612b379082613ff5565b6001600160a01b038416600081815260106020526040908190206003019290925590513390600080516020615f7e83398151915290612b829085904290918252602082015260400190565b60405180910390a3612b95833383614072565b5050508080612ba390615ec2565b915050612a66565b50604051878152600080516020615fbe8339815191529060200160405180910390a15050600c805461ff00191690555050505050565b610f7c600a670de0b6b3a7640000615d44565b6001612c09670de0b6b3a76400006002615e66565b610f7c9190615f20565b600c54606090610100900460ff1615612c3e5760405162461bcd60e51b815260040161092f90615ca1565b600e54600160a01b900460ff16612c675760405162461bcd60e51b815260040161092f90615cc6565b600f805480602002602001604051908101604052809291908181526020018280548015610e1c57602002820191906000526020600020905b81546001600160a01b03168152600190910190602001808311612c9f575050505050905090565b601254600090600160a01b900460ff1615612d235760405162461bcd60e51b815260206004820152601760248201527f4552525f414c52454144595f494e495449414c495a4544000000000000000000604482015260640161092f565b6001600160a01b038916612d795760405162461bcd60e51b815260206004820152601e60248201527f4552525f494e56414c49445f434f4e54524f4c4c45525f414444524553530000604482015260640161092f565b6001600160a01b038816612dcf5760405162461bcd60e51b815260206004820152601b60248201527f4552525f494e56414c49445f464143544f52595f414444524553530000000000604482015260640161092f565b612de4620f4240670de0b6b3a7640000615d44565b87876000818110612df757612df7615eac565b905060200201351015612e3a5760405162461bcd60e51b815260206004820152600b60248201526a4552525f4d494e5f46454560a81b604482015260640161092f565b612e4d600a670de0b6b3a7640000615d44565b87876000818110612e6057612e60615eac565b905060200201351115612ea35760405162461bcd60e51b815260206004820152600b60248201526a4552525f4d41585f46454560a81b604482015260640161092f565b612f298989898980806020026020016040519081016040528093929190818152602001838360200280828437600092019190915250506040805180820182528c93508b9250908a9060029083908390808284376000920191909152505060408051808201825291508a90600290839083908082843760009201919091525061492f915050565b9998505050505050505050565b600c546000908190610100900460ff1615612f635760405162461bcd60e51b815260040161092f90615ca1565b600c805461ff001916610100179055600e54600160a01b900460ff16612f9b5760405162461bcd60e51b815260040161092f90615cc6565b612fba8460005b602002016020810190612fb591906159ed565b6148f7565b612fc5846001612fa2565b6000601081612fd760208801886159ed565b6001600160a01b0316815260208101919091526040016000908120915060108187600160200201602081019061300d91906159ed565b6001600160a01b03166001600160a01b03168152602001908152602001600020905061304c82600301546002670de0b6b3a76400006109e79190615d44565b8535111561306c5760405162461bcd60e51b815260040161092f90615edd565b60006130a283600301548460020154846003015485600201548a60036004811061309857613098615eac565b6020020135614155565b905060408601358111156130ee5760405162461bcd60e51b81526020600482015260136024820152724552525f4241445f4c494d49545f505249434560681b604482015260640161092f565b60408051608081018252600385810154825260028087015460208085019190915291860154938301939093529184015460608201526000916131459082908a359061313b908d018d6159ed565b60608c0135614a6d565b9097509150602088013587101561316e5760405162461bcd60e51b815260040161092f90615e85565b61317c85600301548361478a565b8560030181905550613192846003015488613ff5565b84600301819055506131c485600301548660020154866003015487600201548c60036004811061309857613098615eac565b9550828610156131e65760405162461bcd60e51b815260040161092f90615d9b565b604088013586111561322c5760405162461bcd60e51b815260206004820152600f60248201526e4552525f4c494d49545f505249434560881b604482015260640161092f565b613237883588614672565b8311156132565760405162461bcd60e51b815260040161092f90615d9b565b61326660408a0160208b016159ed565b6001600160a01b031661327c60208b018b6159ed565b604080518b358152602081018b9052428183015290516001600160a01b03929092169133917f50ef2fc267012b5c84b56835f16ffd5331ac5a151a3760d74908721ba78b0efe919081900360600190a46132e46132dc60208b018b6159ed565b338a356147dc565b6060880135156133465761334661330160608b0160408c016159ed565b6133298a35613324816109e7670de0b6b3a76400008f60035b6020020135613ff5565b613ff5565b61333660208d018d6159ed565b6001600160a01b03169190614894565b61336061335960408b0160208c016159ed565b3389614072565b5050505050600c805461ff001916905590939092509050565b6060806000613386612c13565b90506000815167ffffffffffffffff8111156133a4576133a4615f37565b6040519080825280602002602001820160405280156133cd578160200160208202803683370190505b5090506000825167ffffffffffffffff8111156133ec576133ec615f37565b604051908082528060200260200182016040528015613415578160200160208202803683370190505b50905060005b83518110156134de5783818151811061343657613436615eac565b602002602001015183828151811061345057613450615eac565b60200260200101906001600160a01b031690816001600160a01b0316815250506006600085838151811061348657613486615eac565b60200260200101516001600160a01b03166001600160a01b03168152602001908152602001600020548282815181106134c1576134c1615eac565b6020908102919091010152806134d681615ec2565b91505061341b565b509094909350915050565b60608060006134f6612c13565b90506000815167ffffffffffffffff81111561351457613514615f37565b60405190808252806020026020018201604052801561353d578160200160208202803683370190505b5090506000825167ffffffffffffffff81111561355c5761355c615f37565b604051908082528060200260200182016040528015613585578160200160208202803683370190505b50905060005b83518110156134de578381815181106135a6576135a6615eac565b60200260200101518382815181106135c0576135c0615eac565b60200260200101906001600160a01b031690816001600160a01b031681525050600560008583815181106135f6576135f6615eac565b60200260200101516001600160a01b03166001600160a01b031681526020019081526020016000205482828151811061363157613631615eac565b60209081029190910101528061364681615ec2565b91505061358b565b600c546000908190610100900460ff161561367b5760405162461bcd60e51b815260040161092f90615ca1565b600c805461ff001916610100179055600e54600160a01b900460ff166136b35760405162461bcd60e51b815260040161092f90615cc6565b6136de6040518060400160405280600a815260200169756e74696c206865726560b01b815250614c85565b6136e9846000612fa2565b6136f4846001612fa2565b600060108161370660208801886159ed565b6001600160a01b0316815260208101919091526040016000908120915060108187600160200201602081019061373c91906159ed565b6001600160a01b03166001600160a01b03168152602001908152602001600020905061377b81600301546003670de0b6b3a76400006109dc9190615d44565b6020860135111561379e5760405162461bcd60e51b815260040161092f90615d70565b60006137ca83600301548460020154846003015485600201548a60036004811061309857613098615eac565b905060408601358111156138165760405162461bcd60e51b81526020600482015260136024820152724552525f4241445f4c494d49545f505249434560681b604482015260640161092f565b604080516080810182526003858101548252600280870154602080850191909152918601549383019390935291840154606082015260009161386f9082908a81013590613865908d018d6159ed565b60608c0135614cc8565b909750915087358711156138955760405162461bcd60e51b815260040161092f90615dc4565b6138a385600301548361478a565b6003808701919091558401546138bb9089600161331a565b84600301819055506138ed85600301548660020154866003015487600201548c60036004811061309857613098615eac565b95508286101561390f5760405162461bcd60e51b815260040161092f90615d9b565b60408801358611156139555760405162461bcd60e51b815260206004820152600f60248201526e4552525f4c494d49545f505249434560881b604482015260640161092f565b6139638760208a0135614672565b8311156139825760405162461bcd60e51b815260040161092f90615d9b565b61399260408a0160208b016159ed565b6001600160a01b03166139a860208b018b6159ed565b6001600160a01b0316337f50ef2fc267012b5c84b56835f16ffd5331ac5a151a3760d74908721ba78b0efe8a8c6001604080519384526020918202929092013590830152429082015260600160405180910390a4613a13613a0c60208b018b6159ed565b33896147dc565b606088013515613a4c57613a4c613a3060608b0160408c016159ed565b61332989613324816109e7670de0b6b3a76400008f600361331a565b613360613a5f60408b0160208c016159ed565b3360208b0135614072565b6001600160a01b03841660009081526010602052604081205460ff16613aa25760405162461bcd60e51b815260040161092f90615cf1565b6001600160a01b03841660009081526010602052604090205460ff16613ada5760405162461bcd60e51b815260040161092f90615cf1565b6001600160a01b038086166000908152601060205260408082209287168252902060038083015460028085015492840154908401546113d89391908989614eec565b600c54606090610100900460ff1615612c675760405162461bcd60e51b815260040161092f90615ca1565b3360009081526008602090815260408083206001600160a01b0386168452909152812054613b75908361478a565b3360008181526008602090815260408083206001600160a01b03891680855290835292819020859055519384529092600080516020615ffe8339815191529101610f57565b610f7c6002670de0b6b3a7640000615d44565b600c54600090610100900460ff1615613bf85760405162461bcd60e51b815260040161092f90615ca1565b613c01826148f7565b6001600160a01b038216600090815260106020526040902060020154601154610f07908290614672565b6000613c35612c13565b905060005b815181101561282b57600060056000848481518110613c5b57613c5b615eac565b60200260200101516001600160a01b03166001600160a01b03168152602001908152602001600020549050600060056000858581518110613c9e57613c9e615eac565b60200260200101516001600160a01b03166001600160a01b0316815260200190815260200160002081905550613cf6600e60009054906101000a90046001600160a01b03168285858151811061276857612768615eac565b7fe8e83bbe0f2a413d8e79dcb9ef4143cd967143e9d6b93c91d002c7eefdc507cc33600e60009054906101000a90046001600160a01b0316858581518110613d4057613d40615eac565b602002602001015184604051613d7e94939291906001600160a01b039485168152928416602084015292166040820152606081019190915260800190565b60405180910390a15080613d9181615ec2565b915050613c3a565b600c54600090610100900460ff1615613dc45760405162461bcd60e51b815260040161092f90615ca1565b613dcd826148f7565b506001600160a01b031660009081526010602052604090206003015490565b6001600160a01b03821660009081526010602090815260408083208151608081018352815460ff16151581526001820154938101939093526002810154918301829052600301546060830181905260095460115461157c939190876147fa565b600080613e598385615e66565b9050831580613e70575082613e6e8583615d44565b145b613eaf5760405162461bcd60e51b815260206004820152601060248201526f4552525f4d554c5f4f564552464c4f5760801b604482015260640161092f565b6000613ec46002670de0b6b3a7640000615d44565b613ece9083615d58565b905081811015613f135760405162461bcd60e51b815260206004820152601060248201526f4552525f4d554c5f4f564552464c4f5760801b604482015260640161092f565b6000613f27670de0b6b3a764000083615d44565b9695505050505050565b600080613f3e8685614672565b90506000613f54670de0b6b3a764000083613ff5565b90506000613f6482600154613e4c565b90506000613f8386613f7e670de0b6b3a764000085613ff5565b614672565b90506000613f918b83613ff5565b90506000613f9f828d614672565b90506000613fad8288614fa0565b90506000613fbb828d613e4c565b90506000613fc98d83613ff5565b9050613fe281613f7e670de0b6b3a76400006000613ff5565b9f9e505050505050505050505050505050565b600080600061400485856150c1565b91509150801561404a5760405162461bcd60e51b81526020600482015260116024820152704552525f5355425f554e444552464c4f5760781b604482015260640161092f565b509392505050565b61282b82826150f8565b61406581615103565b50565b61282b82826151cf565b6140866001600160a01b0384168383614894565b505050565b6000806140988685614672565b905060006140b3846109e7670de0b6b3a76400006000613ff5565b905060006140c18783613ff5565b905060006140cf8289614672565b905060006140ee826140e9670de0b6b3a764000088614672565b614fa0565b905060006140fc828d613e4c565b9050600061410a8d83613ff5565b9050600061412b614123670de0b6b3a76400008a613ff5565b600154613e4c565b9050614143826109e7670de0b6b3a764000084613ff5565b9e9d5050505050505050505050505050565b6000806141628787614672565b905060006141708686614672565b9050600061417e8383614672565b905060006141c7670de0b6b3a7640000613f7e670de0b6b3a7640000896000546141a6612511565b6001546141b39190615d58565b6141bd9190615d58565b6133249190615d58565b90506141d38282613e4c565b9a9950505050505050505050565b600c546201000090046001600160a01b031633146142365760405162461bcd60e51b815260206004820152601260248201527122a9292fa727aa2fa1a7a72a2927a62622a960711b604482015260640161092f565b6001600160a01b03831660009081526010602052604090205460ff161561428e5760405162461bcd60e51b815260206004820152600c60248201526b11549497d254d7d093d5539160a21b604482015260640161092f565b600e54600160a01b900460ff16156142db5760405162461bcd60e51b815260206004820152601060248201526f11549497d254d7d1925390531256915160821b604482015260640161092f565b600f5460021161431e5760405162461bcd60e51b815260206004820152600e60248201526d4552525f4d41585f544f4b454e5360901b604482015260640161092f565b604080516080810182526001808252600f805460208085019182526000858701818152606087018281526001600160a01b038c1680845260109094529782209651875460ff1916901515178755925186860155915160028601559451600390940193909355805491820181559091527f8d1108e10bcb7c27dddfc02ed9d693a074039d026cf4ea4240b40f7d581ac8020180546001600160a01b03191690911790556140868383836151da565b600e805460ff60a01b1916600160a01b179055600c805460ff60b01b1916600160b01b17905561440c614407670de0b6b3a76400006064615e66565b6147f1565b61442833614423670de0b6b3a76400006064615e66565b614068565b565b6001600160a01b0383166000908152600760205260409020548111156144895760405162461bcd60e51b815260206004820152601460248201527311549497d25394d551919250d251539517d0905360621b604482015260640161092f565b6001600160a01b0383166000908152600760205260409020546144ac9082613ff5565b6001600160a01b0380851660009081526007602052604080822093909355908416815220546144db908261478a565b6001600160a01b0380841660008181526007602052604090819020939093559151908516907fddf252ad1be2c89b69c2b068fc378daa952ba7f163c4a11628f55a4df523b3ef9061452f9085815260200190565b60405180910390a3505050565b6000806145498786614672565b90506000805484614558612511565b6001546145659190615d58565b61456f9190615d58565b6145799190615d58565b9050600061458f670de0b6b3a764000083613ff5565b905061459b8682613e4c565b905060006145ad8b613f7e8d8561478a565b905060006145bb8286614fa0565b905060006145d1670de0b6b3a764000083613ff5565b90506145dd8b82613e4c565b9d9c50505050505050505050505050565b6000806145fb8685614672565b90506000614614614123670de0b6b3a764000084613ff5565b9050600061462e856109e7670de0b6b3a764000085613ff5565b9050600061463c8a8361478a565b9050600061464a828c614672565b905060006146588287614fa0565b90506000614666828c613e4c565b90506145dd818c613ff5565b6000816146b05760405162461bcd60e51b815260206004820152600c60248201526b4552525f4449565f5a45524f60a01b604482015260640161092f565b60006146c4670de0b6b3a764000085615e66565b90508315806146e35750670de0b6b3a76400006146e18583615d44565b145b6147225760405162461bcd60e51b815260206004820152601060248201526f11549497d1125597d25395115493905360821b604482015260640161092f565b600061472f600285615d44565b6147399083615d58565b90508181101561477e5760405162461bcd60e51b815260206004820152601060248201526f11549497d1125597d25395115493905360821b604482015260640161092f565b6000613f278583615d44565b6000806147978385615d58565b905083811015610f075760405162461bcd60e51b815260206004820152601060248201526f4552525f4144445f4f564552464c4f5760801b604482015260640161092f565b6140866001600160a01b03841683308461542a565b61406581615451565b6000806148078685614672565b90506000614815868561478a565b905060006148238288614672565b90506000614839670de0b6b3a764000085614672565b905060006148478383614fa0565b90506000614855828d613e4c565b90506000614863828e613ff5565b9050600061487c614123670de0b6b3a76400008a613ff5565b905061414382613f7e670de0b6b3a764000084613ff5565b6040516001600160a01b03831660248201526044810182905261408690849063a9059cbb60e01b906064015b60408051601f198184030181529190526020810180516001600160e01b03166001600160e01b0319909316929092179091526154c0565b6001600160a01b03811660009081526010602052604090205460ff166140655760405162461bcd60e51b815260040161092f90615cf1565b600c805462010000600160b01b031916620100006001600160a01b038a81169190910291909117909155600280546001600160a01b03191691881691909117905584516000908690829061498557614985615eac565b6020026020010151600181905550856001815181106149a6576149a6615eac565b602090810291909101810151600055600c8054961515600160b01b0260ff60b01b199097169690961795869055600e80548551600380546001600160a01b039283166001600160a01b03199182161790915596840151600480549183169189169190911790558551600d805491831691891691909117905594909201518416951515600160a01b908102959095166001600160a81b0319928316179590951790945550601280549093166201000090940416929092178217908190550460ff169392505050565b60008080614a8a87600160200201518860035b6020020151614672565b90506000614aaa87613324896109e7670de0b6b3a7640000613324612511565b6001600160a01b038716600090815260056020526040902054909150614ad0908261478a565b60056000886001600160a01b03166001600160a01b03168152602001908152602001600020819055506000614b17886133248a6109e7670de0b6b3a7640000600054613ff5565b6001600160a01b038816600090815260066020526040902054909150614b3d908261478a565b6001600160a01b03881660009081526006602052604081209190915580548790614b65612511565b600154614b729190615d58565b614b7c9190615d58565b614b869190615d58565b90507f90d9f1d0641138b6407ac37bea3a905d63a371c2d91a484f68d59924634d4ef3614bc58a6133248c6109e7670de0b6b3a7640000600154613ff5565b604080519182526020820186905281018490526001600160a01b038a16606082015260800160405180910390a16000614c06670de0b6b3a764000083613ff5565b9050614c128a82613e4c565b8b51909150600090614c2890613f7e818561478a565b90506000614c368288614fa0565b90506000614c4c670de0b6b3a764000083613ff5565b9050614c5f8e6002602002015182613e4c565b995089614c708e613324898b615d58565b99509950505050505050505094509492505050565b61406581604051602401614c9991906158ba565b60408051601f198184030181529190526020810180516001600160e01b031663104c13eb60e21b179052615592565b60008080614cdf8760036020020151886001614a80565b90506000614cf4886002602002015188613ff5565b90506000614d09896002602002015183614672565b90506000614d178285614fa0565b9050614d2b81670de0b6b3a7640000613ff5565b90506000805488614d3a612511565b600154614d479190615d58565b614d519190615d58565b614d5b9190615d58565b8b51909150614d8090614d6e9084613e4c565b613f7e670de0b6b3a764000084613ff5565b96506000614da0886133248a6109e7670de0b6b3a7640000613324612511565b6001600160a01b038b16600090815260056020526040902054909150614dc6908261478a565b600560008c6001600160a01b03166001600160a01b03168152602001908152602001600020819055506000614e0d896133248b6109e7670de0b6b3a7640000600054613ff5565b6001600160a01b038c16600090815260066020526040902054909150614e33908261478a565b6001600160a01b038c166000908152600660205260409020558c51614e7090614e5c9086613e4c565b613f7e670de0b6b3a7640000600154613ff5565b97507f90d9f1d0641138b6407ac37bea3a905d63a371c2d91a484f68d59924634d4ef3614eaf8a6133248c6109e7670de0b6b3a7640000600154613ff5565b604080519182526020820185905281018390526001600160a01b038d16606082015260800160405180910390a15050505050505094509492505050565b600080614ef98588614672565b90506000614f078786613ff5565b90506000614f158883614672565b90506000614f238285614fa0565b9050614f3781670de0b6b3a7640000613ff5565b90506000805487614f46612511565b600154614f539190615d58565b614f5d9190615d58565b614f679190615d58565b9050614f7b670de0b6b3a764000082613ff5565b9550614f90614f8a8d84613e4c565b87614672565b9c9b505050505050505050505050565b60006001831015614feb5760405162461bcd60e51b81526020600482015260156024820152744552525f42504f575f424153455f544f4f5f4c4f5760581b604482015260640161092f565b6001615000670de0b6b3a76400006002615e66565b61500a9190615f20565b8311156150525760405162461bcd60e51b815260206004820152601660248201527508aa4a4be84a09eaebe8482a68abea89e9ebe90928e960531b604482015260640161092f565b600061505d836155b3565b9050600061506b8483613ff5565b905060006150818661507c856155d1565b6155e5565b905081615092579250610f63915050565b60006150b587846150b06402540be400670de0b6b3a7640000615d44565b615659565b90506113d88282613e4c565b6000808284106150e0576150d58385615f20565b6000915091506150f1565b6150ea8484615f20565b6001915091505b9250929050565b61282b82308361442a565b306000908152600760205260409020548111156151595760405162461bcd60e51b815260206004820152601460248201527311549497d25394d551919250d251539517d0905360621b604482015260640161092f565b306000908152600760205260409020546151739082613ff5565b306000908152600760205260409020556009546151909082613ff5565b60095560405181815260009030907fddf252ad1be2c89b69c2b068fc378daa952ba7f163c4a11628f55a4df523b3ef906020015b60405180910390a350565b61282b30838361442a565b670de0b6b3a76400008110156152235760405162461bcd60e51b815260206004820152600e60248201526d11549497d3525397d5d15251d21560921b604482015260640161092f565b615236670de0b6b3a76400006032615e66565b8111156152765760405162461bcd60e51b815260206004820152600e60248201526d11549497d3505617d5d15251d21560921b604482015260640161092f565b61528d64e8d4a51000670de0b6b3a7640000615d44565b8210156152ce5760405162461bcd60e51b815260206004820152600f60248201526e4552525f4d494e5f42414c414e434560881b604482015260640161092f565b6001600160a01b0383166000908152601060205260409020600201548082111561536a576153076011546153028484613ff5565b61478a565b60115561531d670de0b6b3a76400006032615e66565b60115411156153655760405162461bcd60e51b815260206004820152601460248201527311549497d3505617d513d5105317d5d15251d21560621b604482015260640161092f565b615386565b80821015615386576153826011546133248385613ff5565b6011555b6001600160a01b038416600090815260106020526040902060028101839055600301805490849055808411156153cf576153ca85336153c58785613ff5565b6147dc565b615423565b808410156154235760006153e38286613ff5565b905060006153f2826000613e4c565b905061540887336154038585613ff5565b614072565b6002546154209088906001600160a01b031683614072565b50505b5050505050565b61544b846323b872dd60e01b8585856040516024016148c093929190615dea565b50505050565b3060009081526007602052604090205461546b908261478a565b30600090815260076020526040902055600954615488908261478a565b60095560405181815230906000907fddf252ad1be2c89b69c2b068fc378daa952ba7f163c4a11628f55a4df523b3ef906020016151c4565b6000615515826040518060400160405280602081526020017f5361666545524332303a206c6f772d6c6576656c2063616c6c206661696c6564815250856001600160a01b03166157499092919063ffffffff16565b80519091501561408657808060200190518101906155339190615e0e565b6140865760405162461bcd60e51b815260206004820152602a60248201527f5361666545524332303a204552433230206f7065726174696f6e20646964206e6044820152691bdd081cdd58d8d9595960b21b606482015260840161092f565b80516a636f6e736f6c652e6c6f67602083016000808483855afa5050505050565b6000670de0b6b3a76400006155c7836155d1565b610f639190615e66565b6000610f63670de0b6b3a764000083615d44565b600082816155f4600285615f4d565b61560657670de0b6b3a7640000615608565b815b9050615615600285615d44565b93505b831561157c576156288283613e4c565b9150615635600285615f4d565b15615647576156448183613e4c565b90505b615652600285615d44565b9350615618565b600082818061567087670de0b6b3a76400006150c1565b9092509050670de0b6b3a764000080600060015b88841061573a57600061569f670de0b6b3a764000083615e66565b90506000806156bf8a6156ba85670de0b6b3a7640000613ff5565b6150c1565b915091506156d1876109e7848c613e4c565b96506156dd8784614672565b9650866156ec5750505061573a565b87156156f6579315935b8015615700579315935b8415615717576157108688613ff5565b9550615724565b615721868861478a565b95505b505050808061573290615ec2565b915050615684565b50909998505050505050505050565b606061157c848460008585843b6157a25760405162461bcd60e51b815260206004820152601d60248201527f416464726573733a2063616c6c20746f206e6f6e2d636f6e7472616374000000604482015260640161092f565b600080866001600160a01b031685876040516157be9190615f61565b60006040518083038185875af1925050503d80600081146157fb576040519150601f19603f3d011682016040523d82523d6000602084013e615800565b606091505b50915091506113d88282866060831561581a575081610f07565b82511561582a5782518084602001fd5b8160405162461bcd60e51b815260040161092f91906158ba565b80356001600160a01b03811681146128dd57600080fd5b60008060006060848603121561587057600080fd5b61587984615844565b95602085013595506040909401359392505050565b60005b838110156158a9578181015183820152602001615891565b8381111561544b5750506000910152565b60208152600082518060208401526158d981604085016020870161588e565b601f01601f19169190910160400192915050565b60008060006060848603121561590257600080fd5b61590b84615844565b925061591960208501615844565b9150604084013590509250925092565b6000806040838503121561593c57600080fd5b61594583615844565b946020939093013593505050565b60008060008060008060c0878903121561596c57600080fd5b61597587615844565b9550602087013594506040870135935061599160608801615844565b92506080870135915060a087013590509295509295509295565b600080600080608085870312156159c157600080fd5b6159ca85615844565b93506159d860208601615844565b93969395505050506040820135916060013590565b6000602082840312156159ff57600080fd5b610f0782615844565b600060208284031215615a1a57600080fd5b5035919050565b60008083601f840112615a3357600080fd5b50813567ffffffffffffffff811115615a4b57600080fd5b6020830191508360208260051b85010111156150f157600080fd5b600080600060408486031215615a7b57600080fd5b83359250602084013567ffffffffffffffff811115615a9957600080fd5b615aa586828701615a21565b9497909650939450505050565b600081518084526020808501945080840160005b83811015615aeb5781516001600160a01b031687529582019590820190600101615ac6565b509495945050505050565b602081526000610f076020830184615ab2565b801515811461406557600080fd5b8060408101831015610f6357600080fd5b600080600080600080600080610120898b031215615b4557600080fd5b615b4e89615844565b9750615b5c60208a01615844565b9650604089013567ffffffffffffffff811115615b7857600080fd5b615b848b828c01615a21565b9097509550506060890135615b9881615b09565b93506080890135615ba881615b09565b9250615bb78a60a08b01615b17565b9150615bc68a60e08b01615b17565b90509295985092959890939650565b60008060e08385031215615be857600080fd5b6060830184811115615bf957600080fd5b8392508460e085011115615c0c57600080fd5b809150509250929050565b604081526000615c2a6040830185615ab2565b82810360208481019190915284518083528582019282019060005b81811015615c6157845183529383019391830191600101615c45565b5090979650505050505050565b60008060408385031215615c8157600080fd5b615c8a83615844565b9150615c9860208401615844565b90509250929050565b6020808252600b908201526a4552525f5245454e54525960a81b604082015260600190565b60208082526011908201527011549497d393d517d19253905312569151607a1b604082015260600190565b6020808252600d908201526c11549497d393d517d093d55391609a1b604082015260600190565b634e487b7160e01b600052601260045260246000fd5b634e487b7160e01b600052601160045260246000fd5b600082615d5357615d53615d18565b500490565b60008219821115615d6b57615d6b615d2e565b500190565b6020808252601190820152704552525f4d41585f4f55545f524154494f60781b604082015260600190565b6020808252600f908201526e08aa4a4be9a82a890be82a0a0a49eb608b1b604082015260600190565b6020808252600c908201526b22a9292fa624a6a4aa2fa4a760a11b604082015260600190565b6001600160a01b039384168152919092166020820152604081019190915260600190565b600060208284031215615e2057600080fd5b8151610f0781615b09565b600181811c90821680615e3f57607f821691505b60208210811415615e6057634e487b7160e01b600052602260045260246000fd5b50919050565b6000816000190483118215151615615e8057615e80615d2e565b500290565b6020808252600d908201526c11549497d31253525517d3d555609a1b604082015260600190565b634e487b7160e01b600052603260045260246000fd5b6000600019821415615ed657615ed6615d2e565b5060010190565b60208082526010908201526f4552525f4d41585f494e5f524154494f60801b604082015260600190565b600060208284031215615f1957600080fd5b5051919050565b600082821015615f3257615f32615d2e565b500390565b634e487b7160e01b600052604160045260246000fd5b600082615f5c57615f5c615d18565b500690565b60008251615f7381846020870161588e565b919091019291505056fe9d9058fd2f25ccc389fec7720abef0ca83472f5abfafd5f10d37f51e6a0493f387b3975661762d852ddf2eeaad6a43b2d93777de7b3b7bdb634283df32456118fcda32798d5a9d032f49b37fea876d422f18f6e386e0f07db6029b693624b2c215a8ca63e37b2cff1677df2b6b82d36fcf8a524228bd7a4b4d02d107c28c1e8a8c5be1e5ebec7d5bd14f71427d1e84f3dd0314c0f7b2291e5b200ac8c7c3b925a26469706673582212206f14cdd62f6c6fe5dbd1c628b343e3fc155a677fcf4e4601fa517c22015824f464736f6c634300080a0033",
  "linkReferences": {},
  "deployedLinkReferences": {}
}