{
  "_format": "hh-sol-artifact-1",
  "contractName": "BPool",
  "sourceName": "contracts/pools/balancer/BPool.sol",
  "abi": [
    {
      "anonymous": false,
      "inputs": [
        {
          "indexed": true,
          "internalType": "address",
          "name": "src",
          "type": "address"
        },
        {
          "indexed": true,
          "internalType": "address",
          "name": "dst",
          "type": "address"
        },
        {
          "indexed": false,
          "internalType": "uint256",
          "name": "amt",
          "type": "uint256"
        }
      ],
      "name": "Approval",
      "type": "event"
    },
    {
      "anonymous": false,
      "inputs": [
        {
          "indexed": false,
          "internalType": "uint256",
          "name": "bptAmount",
          "type": "uint256"
        }
      ],
      "name": "LOG_BPT",
      "type": "event"
    },
    {
      "anonymous": false,
      "inputs": [
        {
          "indexed": false,
          "internalType": "uint256",
          "name": "bptAmount",
          "type": "uint256"
        }
      ],
      "name": "LOG_BPT_SS",
      "type": "event"
    },
    {
      "anonymous": false,
      "inputs": [
        {
          "indexed": true,
          "internalType": "bytes4",
          "name": "sig",
          "type": "bytes4"
        },
        {
          "indexed": true,
          "internalType": "address",
          "name": "caller",
          "type": "address"
        },
        {
          "indexed": false,
          "internalType": "uint256",
          "name": "timestamp",
          "type": "uint256"
        },
        {
          "indexed": false,
          "internalType": "bytes",
          "name": "data",
          "type": "bytes"
        }
      ],
      "name": "LOG_CALL",
      "type": "event"
    },
    {
      "anonymous": false,
      "inputs": [
        {
          "indexed": true,
          "internalType": "address",
          "name": "caller",
          "type": "address"
        },
        {
          "indexed": true,
          "internalType": "address",
          "name": "tokenOut",
          "type": "address"
        },
        {
          "indexed": false,
          "internalType": "uint256",
          "name": "tokenAmountOut",
          "type": "uint256"
        },
        {
          "indexed": false,
          "internalType": "uint256",
          "name": "timestamp",
          "type": "uint256"
        }
      ],
      "name": "LOG_EXIT",
      "type": "event"
    },
    {
      "anonymous": false,
      "inputs": [
        {
          "indexed": true,
          "internalType": "address",
          "name": "caller",
          "type": "address"
        },
        {
          "indexed": true,
          "internalType": "address",
          "name": "tokenIn",
          "type": "address"
        },
        {
          "indexed": false,
          "internalType": "uint256",
          "name": "tokenAmountIn",
          "type": "uint256"
        },
        {
          "indexed": false,
          "internalType": "uint256",
          "name": "timestamp",
          "type": "uint256"
        }
      ],
      "name": "LOG_JOIN",
      "type": "event"
    },
    {
      "anonymous": false,
      "inputs": [
        {
          "indexed": true,
          "internalType": "address",
          "name": "caller",
          "type": "address"
        },
        {
          "indexed": true,
          "internalType": "address",
          "name": "baseToken",
          "type": "address"
        },
        {
          "indexed": false,
          "internalType": "uint256",
          "name": "baseTokenAmountIn",
          "type": "uint256"
        },
        {
          "indexed": false,
          "internalType": "uint256",
          "name": "baseTokenWeight",
          "type": "uint256"
        },
        {
          "indexed": true,
          "internalType": "address",
          "name": "datatoken",
          "type": "address"
        },
        {
          "indexed": false,
          "internalType": "uint256",
          "name": "datatokenAmountIn",
          "type": "uint256"
        },
        {
          "indexed": false,
          "internalType": "uint256",
          "name": "datatokenWeight",
          "type": "uint256"
        }
      ],
      "name": "LOG_SETUP",
      "type": "event"
    },
    {
      "anonymous": false,
      "inputs": [
        {
          "indexed": true,
          "internalType": "address",
          "name": "caller",
          "type": "address"
        },
        {
          "indexed": true,
          "internalType": "address",
          "name": "tokenIn",
          "type": "address"
        },
        {
          "indexed": true,
          "internalType": "address",
          "name": "tokenOut",
          "type": "address"
        },
        {
          "indexed": false,
          "internalType": "uint256",
          "name": "tokenAmountIn",
          "type": "uint256"
        },
        {
          "indexed": false,
          "internalType": "uint256",
          "name": "tokenAmountOut",
          "type": "uint256"
        },
        {
          "indexed": false,
          "internalType": "uint256",
          "name": "timestamp",
          "type": "uint256"
        }
      ],
      "name": "LOG_SWAP",
      "type": "event"
    },
    {
      "anonymous": false,
      "inputs": [
        {
          "indexed": false,
          "internalType": "address",
          "name": "caller",
          "type": "address"
        },
        {
          "indexed": false,
          "internalType": "address",
          "name": "newMarketCollector",
          "type": "address"
        }
      ],
      "name": "MarketCollectorChanged",
      "type": "event"
    },
    {
      "anonymous": false,
      "inputs": [
        {
          "indexed": false,
          "internalType": "address",
          "name": "to",
          "type": "address"
        },
        {
          "indexed": false,
          "internalType": "address",
          "name": "token",
          "type": "address"
        },
        {
          "indexed": false,
          "internalType": "uint256",
          "name": "amount",
          "type": "uint256"
        }
      ],
      "name": "MarketFees",
      "type": "event"
    },
    {
      "anonymous": false,
      "inputs": [
        {
          "indexed": false,
          "internalType": "address",
          "name": "caller",
          "type": "address"
        },
        {
          "indexed": false,
          "internalType": "address",
          "name": "OPCWallet",
          "type": "address"
        },
        {
          "indexed": false,
          "internalType": "address",
          "name": "token",
          "type": "address"
        },
        {
          "indexed": false,
          "internalType": "uint256",
          "name": "amount",
          "type": "uint256"
        }
      ],
      "name": "OPCFee",
      "type": "event"
    },
    {
      "anonymous": false,
      "inputs": [
        {
          "indexed": false,
          "internalType": "address",
          "name": "caller",
          "type": "address"
        },
        {
          "indexed": false,
          "internalType": "address",
          "name": "marketAddress",
          "type": "address"
        },
        {
          "indexed": false,
          "internalType": "address",
          "name": "token",
          "type": "address"
        },
        {
          "indexed": false,
          "internalType": "uint256",
          "name": "amount",
          "type": "uint256"
        }
      ],
      "name": "PublishMarketFee",
      "type": "event"
    },
    {
      "anonymous": false,
      "inputs": [
        {
          "indexed": false,
          "internalType": "uint256",
          "name": "LPFeeAmount",
          "type": "uint256"
        },
        {
          "indexed": false,
          "internalType": "uint256",
          "name": "oceanFeeAmount",
          "type": "uint256"
        },
        {
          "indexed": false,
          "internalType": "uint256",
          "name": "marketFeeAmount",
          "type": "uint256"
        },
        {
          "indexed": false,
          "internalType": "uint256",
          "name": "consumeMarketFeeAmount",
          "type": "uint256"
        },
        {
          "indexed": false,
          "internalType": "address",
          "name": "tokenFeeAddress",
          "type": "address"
        }
      ],
      "name": "SWAP_FEES",
      "type": "event"
    },
    {
      "anonymous": false,
      "inputs": [
        {
          "indexed": false,
          "internalType": "address",
          "name": "caller",
          "type": "address"
        },
        {
          "indexed": false,
          "internalType": "uint256",
          "name": "amount",
          "type": "uint256"
        }
      ],
      "name": "SwapFeeChanged",
      "type": "event"
    },
    {
      "anonymous": false,
      "inputs": [
        {
          "indexed": true,
          "internalType": "address",
          "name": "src",
          "type": "address"
        },
        {
          "indexed": true,
          "internalType": "address",
          "name": "dst",
          "type": "address"
        },
        {
          "indexed": false,
          "internalType": "uint256",
          "name": "amt",
          "type": "uint256"
        }
      ],
      "name": "Transfer",
      "type": "event"
    },
    {
      "inputs": [],
      "name": "BONE",
      "outputs": [
        {
          "internalType": "uint256",
          "name": "",
          "type": "uint256"
        }
      ],
      "stateMutability": "view",
      "type": "function"
    },
    {
      "inputs": [],
      "name": "BPOW_PRECISION",
      "outputs": [
        {
          "internalType": "uint256",
          "name": "",
          "type": "uint256"
        }
      ],
      "stateMutability": "view",
      "type": "function"
    },
    {
      "inputs": [],
      "name": "EXIT_FEE",
      "outputs": [
        {
          "internalType": "uint256",
          "name": "",
          "type": "uint256"
        }
      ],
      "stateMutability": "view",
      "type": "function"
    },
    {
      "inputs": [],
      "name": "INIT_POOL_SUPPLY",
      "outputs": [
        {
          "internalType": "uint256",
          "name": "",
          "type": "uint256"
        }
      ],
      "stateMutability": "view",
      "type": "function"
    },
    {
      "inputs": [],
      "name": "MAX_BOUND_TOKENS",
      "outputs": [
        {
          "internalType": "uint256",
          "name": "",
          "type": "uint256"
        }
      ],
      "stateMutability": "view",
      "type": "function"
    },
    {
      "inputs": [],
      "name": "MAX_BPOW_BASE",
      "outputs": [
        {
          "internalType": "uint256",
          "name": "",
          "type": "uint256"
        }
      ],
      "stateMutability": "view",
      "type": "function"
    },
    {
      "inputs": [],
      "name": "MAX_FEE",
      "outputs": [
        {
          "internalType": "uint256",
          "name": "",
          "type": "uint256"
        }
      ],
      "stateMutability": "view",
      "type": "function"
    },
    {
      "inputs": [],
      "name": "MAX_IN_RATIO",
      "outputs": [
        {
          "internalType": "uint256",
          "name": "",
          "type": "uint256"
        }
      ],
      "stateMutability": "view",
      "type": "function"
    },
    {
      "inputs": [],
      "name": "MAX_OUT_RATIO",
      "outputs": [
        {
          "internalType": "uint256",
          "name": "",
          "type": "uint256"
        }
      ],
      "stateMutability": "view",
      "type": "function"
    },
    {
      "inputs": [],
      "name": "MAX_TOTAL_WEIGHT",
      "outputs": [
        {
          "internalType": "uint256",
          "name": "",
          "type": "uint256"
        }
      ],
      "stateMutability": "view",
      "type": "function"
    },
    {
      "inputs": [],
      "name": "MAX_WEIGHT",
      "outputs": [
        {
          "internalType": "uint256",
          "name": "",
          "type": "uint256"
        }
      ],
      "stateMutability": "view",
      "type": "function"
    },
    {
      "inputs": [],
      "name": "MIN_BALANCE",
      "outputs": [
        {
          "internalType": "uint256",
          "name": "",
          "type": "uint256"
        }
      ],
      "stateMutability": "view",
      "type": "function"
    },
    {
      "inputs": [],
      "name": "MIN_BOUND_TOKENS",
      "outputs": [
        {
          "internalType": "uint256",
          "name": "",
          "type": "uint256"
        }
      ],
      "stateMutability": "view",
      "type": "function"
    },
    {
      "inputs": [],
      "name": "MIN_BPOW_BASE",
      "outputs": [
        {
          "internalType": "uint256",
          "name": "",
          "type": "uint256"
        }
      ],
      "stateMutability": "view",
      "type": "function"
    },
    {
      "inputs": [],
      "name": "MIN_FEE",
      "outputs": [
        {
          "internalType": "uint256",
          "name": "",
          "type": "uint256"
        }
      ],
      "stateMutability": "view",
      "type": "function"
    },
    {
      "inputs": [],
      "name": "MIN_WEIGHT",
      "outputs": [
        {
          "internalType": "uint256",
          "name": "",
          "type": "uint256"
        }
      ],
      "stateMutability": "view",
      "type": "function"
    },
    {
      "inputs": [],
      "name": "_opcCollector",
      "outputs": [
        {
          "internalType": "address",
          "name": "",
          "type": "address"
        }
      ],
      "stateMutability": "view",
      "type": "function"
    },
    {
      "inputs": [],
      "name": "_publishMarketCollector",
      "outputs": [
        {
          "internalType": "address",
          "name": "",
          "type": "address"
        }
      ],
      "stateMutability": "view",
      "type": "function"
    },
    {
      "inputs": [],
      "name": "_swapPublishMarketFee",
      "outputs": [
        {
          "internalType": "uint256",
          "name": "",
          "type": "uint256"
        }
      ],
      "stateMutability": "view",
      "type": "function"
    },
    {
      "inputs": [
        {
          "internalType": "address",
          "name": "src",
          "type": "address"
        },
        {
          "internalType": "address",
          "name": "dst",
          "type": "address"
        }
      ],
      "name": "allowance",
      "outputs": [
        {
          "internalType": "uint256",
          "name": "",
          "type": "uint256"
        }
      ],
      "stateMutability": "view",
      "type": "function"
    },
    {
      "inputs": [
        {
          "internalType": "address",
          "name": "dst",
          "type": "address"
        },
        {
          "internalType": "uint256",
          "name": "amt",
          "type": "uint256"
        }
      ],
      "name": "approve",
      "outputs": [
        {
          "internalType": "bool",
          "name": "",
          "type": "bool"
        }
      ],
      "stateMutability": "nonpayable",
      "type": "function"
    },
    {
      "inputs": [
        {
          "internalType": "address",
          "name": "whom",
          "type": "address"
        }
      ],
      "name": "balanceOf",
      "outputs": [
        {
          "internalType": "uint256",
          "name": "",
          "type": "uint256"
        }
      ],
      "stateMutability": "view",
      "type": "function"
    },
    {
      "inputs": [
        {
          "internalType": "uint256[4]",
          "name": "data",
          "type": "uint256[4]"
        },
        {
          "internalType": "uint256",
          "name": "tokenAmountOut",
          "type": "uint256"
        },
        {
          "internalType": "address",
          "name": "tokenInAddress",
          "type": "address"
        },
        {
          "internalType": "uint256",
          "name": "_consumeMarketSwapFee",
          "type": "uint256"
        }
      ],
      "name": "calcInGivenOut",
      "outputs": [
        {
          "internalType": "uint256",
          "name": "tokenAmountIn",
          "type": "uint256"
        },
        {
          "internalType": "uint256",
          "name": "tokenAmountInBalance",
          "type": "uint256"
        },
        {
          "components": [
            {
              "internalType": "uint256",
              "name": "LPFee",
              "type": "uint256"
            },
            {
              "internalType": "uint256",
              "name": "oceanFeeAmount",
              "type": "uint256"
            },
            {
              "internalType": "uint256",
              "name": "publishMarketFeeAmount",
              "type": "uint256"
            },
            {
              "internalType": "uint256",
              "name": "consumeMarketFee",
              "type": "uint256"
            }
          ],
          "internalType": "struct BMath.swapfees",
          "name": "_swapfees",
          "type": "tuple"
        }
      ],
      "stateMutability": "view",
      "type": "function"
    },
    {
      "inputs": [
        {
          "internalType": "uint256[4]",
          "name": "data",
          "type": "uint256[4]"
        },
        {
          "internalType": "uint256",
          "name": "tokenAmountIn",
          "type": "uint256"
        },
        {
          "internalType": "address",
          "name": "tokenInAddress",
          "type": "address"
        },
        {
          "internalType": "uint256",
          "name": "_consumeMarketSwapFee",
          "type": "uint256"
        }
      ],
      "name": "calcOutGivenIn",
      "outputs": [
        {
          "internalType": "uint256",
          "name": "tokenAmountOut",
          "type": "uint256"
        },
        {
          "internalType": "uint256",
          "name": "balanceInToAdd",
          "type": "uint256"
        },
        {
          "components": [
            {
              "internalType": "uint256",
              "name": "LPFee",
              "type": "uint256"
            },
            {
              "internalType": "uint256",
              "name": "oceanFeeAmount",
              "type": "uint256"
            },
            {
              "internalType": "uint256",
              "name": "publishMarketFeeAmount",
              "type": "uint256"
            },
            {
              "internalType": "uint256",
              "name": "consumeMarketFee",
              "type": "uint256"
            }
          ],
          "internalType": "struct BMath.swapfees",
          "name": "_swapfees",
          "type": "tuple"
        }
      ],
      "stateMutability": "view",
      "type": "function"
    },
    {
      "inputs": [
        {
          "internalType": "address",
          "name": "tokenOut",
          "type": "address"
        },
        {
          "internalType": "uint256",
          "name": "tokenAmountOut",
          "type": "uint256"
        }
      ],
      "name": "calcPoolInSingleOut",
      "outputs": [
        {
          "internalType": "uint256",
          "name": "poolAmountIn",
          "type": "uint256"
        }
      ],
      "stateMutability": "view",
      "type": "function"
    },
    {
      "inputs": [
        {
          "internalType": "address",
          "name": "tokenIn",
          "type": "address"
        },
        {
          "internalType": "uint256",
          "name": "tokenAmountIn",
          "type": "uint256"
        }
      ],
      "name": "calcPoolOutSingleIn",
      "outputs": [
        {
          "internalType": "uint256",
          "name": "poolAmountOut",
          "type": "uint256"
        }
      ],
      "stateMutability": "view",
      "type": "function"
    },
    {
      "inputs": [
        {
          "internalType": "address",
          "name": "tokenIn",
          "type": "address"
        },
        {
          "internalType": "uint256",
          "name": "poolAmountOut",
          "type": "uint256"
        }
      ],
      "name": "calcSingleInPoolOut",
      "outputs": [
        {
          "internalType": "uint256",
          "name": "tokenAmountIn",
          "type": "uint256"
        }
      ],
      "stateMutability": "view",
      "type": "function"
    },
    {
      "inputs": [
        {
          "internalType": "address",
          "name": "tokenOut",
          "type": "address"
        },
        {
          "internalType": "uint256",
          "name": "poolAmountIn",
          "type": "uint256"
        }
      ],
      "name": "calcSingleOutPoolIn",
      "outputs": [
        {
          "internalType": "uint256",
          "name": "tokenAmountOut",
          "type": "uint256"
        }
      ],
      "stateMutability": "view",
      "type": "function"
    },
    {
      "inputs": [],
      "name": "collectMarketFee",
      "outputs": [],
      "stateMutability": "nonpayable",
      "type": "function"
    },
    {
      "inputs": [],
      "name": "collectOPC",
      "outputs": [],
      "stateMutability": "nonpayable",
      "type": "function"
    },
    {
      "inputs": [
        {
          "internalType": "address",
          "name": "",
          "type": "address"
        }
      ],
      "name": "communityFees",
      "outputs": [
        {
          "internalType": "uint256",
          "name": "",
          "type": "uint256"
        }
      ],
      "stateMutability": "view",
      "type": "function"
    },
    {
      "inputs": [],
      "name": "decimals",
      "outputs": [
        {
          "internalType": "uint8",
          "name": "",
          "type": "uint8"
        }
      ],
      "stateMutability": "view",
      "type": "function"
    },
    {
      "inputs": [
        {
          "internalType": "address",
          "name": "dst",
          "type": "address"
        },
        {
          "internalType": "uint256",
          "name": "amt",
          "type": "uint256"
        }
      ],
      "name": "decreaseApproval",
      "outputs": [
        {
          "internalType": "bool",
          "name": "",
          "type": "bool"
        }
      ],
      "stateMutability": "nonpayable",
      "type": "function"
    },
    {
      "inputs": [
        {
          "internalType": "uint256",
          "name": "poolAmountIn",
          "type": "uint256"
        },
        {
          "internalType": "uint256[]",
          "name": "minAmountsOut",
          "type": "uint256[]"
        }
      ],
      "name": "exitPool",
      "outputs": [],
      "stateMutability": "nonpayable",
      "type": "function"
    },
    {
      "inputs": [
        {
          "internalType": "uint256",
          "name": "poolAmountIn",
          "type": "uint256"
        },
        {
          "internalType": "uint256",
          "name": "minAmountOut",
          "type": "uint256"
        }
      ],
      "name": "exitswapPoolAmountIn",
      "outputs": [
        {
          "internalType": "uint256",
          "name": "tokenAmountOut",
          "type": "uint256"
        }
      ],
      "stateMutability": "nonpayable",
      "type": "function"
    },
    {
      "inputs": [
        {
          "internalType": "address",
          "name": "tokenIn",
          "type": "address"
        },
        {
          "internalType": "address",
          "name": "tokenOut",
          "type": "address"
        },
        {
          "internalType": "uint256",
          "name": "tokenAmountOut",
          "type": "uint256"
        },
        {
          "internalType": "uint256",
          "name": "_consumeMarketSwapFee",
          "type": "uint256"
        }
      ],
      "name": "getAmountInExactOut",
      "outputs": [
        {
          "internalType": "uint256",
          "name": "tokenAmountIn",
          "type": "uint256"
        },
        {
          "internalType": "uint256",
          "name": "lpFeeAmount",
          "type": "uint256"
        },
        {
          "internalType": "uint256",
          "name": "oceanFeeAmount",
          "type": "uint256"
        },
        {
          "internalType": "uint256",
          "name": "publishMarketSwapFeeAmount",
          "type": "uint256"
        },
        {
          "internalType": "uint256",
          "name": "consumeMarketSwapFeeAmount",
          "type": "uint256"
        }
      ],
      "stateMutability": "view",
      "type": "function"
    },
    {
      "inputs": [
        {
          "internalType": "address",
          "name": "tokenIn",
          "type": "address"
        },
        {
          "internalType": "address",
          "name": "tokenOut",
          "type": "address"
        },
        {
          "internalType": "uint256",
          "name": "tokenAmountIn",
          "type": "uint256"
        },
        {
          "internalType": "uint256",
          "name": "_consumeMarketSwapFee",
          "type": "uint256"
        }
      ],
      "name": "getAmountOutExactIn",
      "outputs": [
        {
          "internalType": "uint256",
          "name": "tokenAmountOut",
          "type": "uint256"
        },
        {
          "internalType": "uint256",
          "name": "lpFeeAmount",
          "type": "uint256"
        },
        {
          "internalType": "uint256",
          "name": "oceanFeeAmount",
          "type": "uint256"
        },
        {
          "internalType": "uint256",
          "name": "publishMarketSwapFeeAmount",
          "type": "uint256"
        },
        {
          "internalType": "uint256",
          "name": "consumeMarketSwapFeeAmount",
          "type": "uint256"
        }
      ],
      "stateMutability": "view",
      "type": "function"
    },
    {
      "inputs": [
        {
          "internalType": "address",
          "name": "token",
          "type": "address"
        }
      ],
      "name": "getBalance",
      "outputs": [
        {
          "internalType": "uint256",
          "name": "",
          "type": "uint256"
        }
      ],
      "stateMutability": "view",
      "type": "function"
    },
    {
      "inputs": [],
      "name": "getBaseTokenAddress",
      "outputs": [
        {
          "internalType": "address",
          "name": "",
          "type": "address"
        }
      ],
      "stateMutability": "view",
      "type": "function"
    },
    {
      "inputs": [],
      "name": "getController",
      "outputs": [
        {
          "internalType": "address",
          "name": "",
          "type": "address"
        }
      ],
      "stateMutability": "view",
      "type": "function"
    },
    {
      "inputs": [],
      "name": "getCurrentMarketFees",
      "outputs": [
        {
          "internalType": "address[]",
          "name": "",
          "type": "address[]"
        },
        {
          "internalType": "uint256[]",
          "name": "",
          "type": "uint256[]"
        }
      ],
      "stateMutability": "view",
      "type": "function"
    },
    {
      "inputs": [],
      "name": "getCurrentOPCFees",
      "outputs": [
        {
          "internalType": "address[]",
          "name": "",
          "type": "address[]"
        },
        {
          "internalType": "uint256[]",
          "name": "",
          "type": "uint256[]"
        }
      ],
      "stateMutability": "view",
      "type": "function"
    },
    {
      "inputs": [],
      "name": "getCurrentTokens",
      "outputs": [
        {
          "internalType": "address[]",
          "name": "tokens",
          "type": "address[]"
        }
      ],
      "stateMutability": "view",
      "type": "function"
    },
    {
      "inputs": [],
      "name": "getDatatokenAddress",
      "outputs": [
        {
          "internalType": "address",
          "name": "",
          "type": "address"
        }
      ],
      "stateMutability": "view",
      "type": "function"
    },
    {
      "inputs": [
        {
          "internalType": "address",
          "name": "token",
          "type": "address"
        }
      ],
      "name": "getDenormalizedWeight",
      "outputs": [
        {
          "internalType": "uint256",
          "name": "",
          "type": "uint256"
        }
      ],
      "stateMutability": "view",
      "type": "function"
    },
    {
      "inputs": [],
      "name": "getFinalTokens",
      "outputs": [
        {
          "internalType": "address[]",
          "name": "tokens",
          "type": "address[]"
        }
      ],
      "stateMutability": "view",
      "type": "function"
    },
    {
      "inputs": [],
      "name": "getId",
      "outputs": [
        {
          "internalType": "uint8",
          "name": "",
          "type": "uint8"
        }
      ],
      "stateMutability": "pure",
      "type": "function"
    },
    {
      "inputs": [],
      "name": "getMarketFee",
      "outputs": [
        {
          "internalType": "uint256",
          "name": "",
          "type": "uint256"
        }
      ],
      "stateMutability": "view",
      "type": "function"
    },
    {
      "inputs": [
        {
          "internalType": "address",
          "name": "token",
          "type": "address"
        }
      ],
      "name": "getNormalizedWeight",
      "outputs": [
        {
          "internalType": "uint256",
          "name": "",
          "type": "uint256"
        }
      ],
      "stateMutability": "view",
      "type": "function"
    },
    {
      "inputs": [],
      "name": "getNumTokens",
      "outputs": [
        {
          "internalType": "uint256",
          "name": "",
          "type": "uint256"
        }
      ],
      "stateMutability": "view",
      "type": "function"
    },
    {
      "inputs": [],
      "name": "getOPCFee",
      "outputs": [
        {
          "internalType": "uint256",
          "name": "",
          "type": "uint256"
        }
      ],
      "stateMutability": "view",
      "type": "function"
    },
    {
      "inputs": [
        {
          "internalType": "address",
          "name": "tokenIn",
          "type": "address"
        },
        {
          "internalType": "address",
          "name": "tokenOut",
          "type": "address"
        },
        {
          "internalType": "uint256",
          "name": "_swapMarketFee",
          "type": "uint256"
        }
      ],
      "name": "getSpotPrice",
      "outputs": [
        {
          "internalType": "uint256",
          "name": "spotPrice",
          "type": "uint256"
        }
      ],
      "stateMutability": "view",
      "type": "function"
    },
    {
      "inputs": [],
      "name": "getSwapFee",
      "outputs": [
        {
          "internalType": "uint256",
          "name": "",
          "type": "uint256"
        }
      ],
      "stateMutability": "view",
      "type": "function"
    },
    {
      "inputs": [],
      "name": "getTotalDenormalizedWeight",
      "outputs": [
        {
          "internalType": "uint256",
          "name": "",
          "type": "uint256"
        }
      ],
      "stateMutability": "view",
      "type": "function"
    },
    {
      "inputs": [
        {
          "internalType": "address",
          "name": "dst",
          "type": "address"
        },
        {
          "internalType": "uint256",
          "name": "amt",
          "type": "uint256"
        }
      ],
      "name": "increaseApproval",
      "outputs": [
        {
          "internalType": "bool",
          "name": "",
          "type": "bool"
        }
      ],
      "stateMutability": "nonpayable",
      "type": "function"
    },
    {
      "inputs": [
        {
          "internalType": "address",
          "name": "controller",
          "type": "address"
        },
        {
          "internalType": "address",
          "name": "factory",
          "type": "address"
        },
        {
          "internalType": "uint256[]",
          "name": "swapFees",
          "type": "uint256[]"
        },
        {
          "internalType": "bool",
          "name": "publicSwap",
          "type": "bool"
        },
        {
          "internalType": "bool",
          "name": "finalized",
          "type": "bool"
        },
        {
          "internalType": "address[2]",
          "name": "tokens",
          "type": "address[2]"
        },
        {
          "internalType": "address[2]",
          "name": "feeCollectors",
          "type": "address[2]"
        }
      ],
      "name": "initialize",
      "outputs": [
        {
          "internalType": "bool",
          "name": "",
          "type": "bool"
        }
      ],
      "stateMutability": "nonpayable",
      "type": "function"
    },
    {
      "inputs": [
        {
          "internalType": "address",
          "name": "t",
          "type": "address"
        }
      ],
      "name": "isBound",
      "outputs": [
        {
          "internalType": "bool",
          "name": "",
          "type": "bool"
        }
      ],
      "stateMutability": "view",
      "type": "function"
    },
    {
      "inputs": [],
      "name": "isFinalized",
      "outputs": [
        {
          "internalType": "bool",
          "name": "",
          "type": "bool"
        }
      ],
      "stateMutability": "view",
      "type": "function"
    },
    {
      "inputs": [],
      "name": "isInitialized",
      "outputs": [
        {
          "internalType": "bool",
          "name": "",
          "type": "bool"
        }
      ],
      "stateMutability": "view",
      "type": "function"
    },
    {
      "inputs": [],
      "name": "isPublicSwap",
      "outputs": [
        {
          "internalType": "bool",
          "name": "",
          "type": "bool"
        }
      ],
      "stateMutability": "view",
      "type": "function"
    },
    {
      "inputs": [
        {
          "internalType": "uint256",
          "name": "poolAmountOut",
          "type": "uint256"
        },
        {
          "internalType": "uint256[]",
          "name": "maxAmountsIn",
          "type": "uint256[]"
        }
      ],
      "name": "joinPool",
      "outputs": [],
      "stateMutability": "nonpayable",
      "type": "function"
    },
    {
      "inputs": [
        {
          "internalType": "uint256",
          "name": "tokenAmountIn",
          "type": "uint256"
        },
        {
          "internalType": "uint256",
          "name": "minPoolAmountOut",
          "type": "uint256"
        }
      ],
      "name": "joinswapExternAmountIn",
      "outputs": [
        {
          "internalType": "uint256",
          "name": "poolAmountOut",
          "type": "uint256"
        }
      ],
      "stateMutability": "nonpayable",
      "type": "function"
    },
    {
      "inputs": [],
      "name": "name",
      "outputs": [
        {
          "internalType": "string",
          "name": "",
          "type": "string"
        }
      ],
      "stateMutability": "view",
      "type": "function"
    },
    {
      "inputs": [
        {
          "internalType": "address",
          "name": "",
          "type": "address"
        }
      ],
      "name": "publishMarketFees",
      "outputs": [
        {
          "internalType": "uint256",
          "name": "",
          "type": "uint256"
        }
      ],
      "stateMutability": "view",
      "type": "function"
    },
    {
      "inputs": [
        {
          "internalType": "uint256",
          "name": "swapFee",
          "type": "uint256"
        }
      ],
      "name": "setSwapFee",
      "outputs": [],
      "stateMutability": "nonpayable",
      "type": "function"
    },
    {
      "inputs": [
        {
          "internalType": "address",
          "name": "datatokenAddress",
          "type": "address"
        },
        {
          "internalType": "uint256",
          "name": "datatokenAmount",
          "type": "uint256"
        },
        {
          "internalType": "uint256",
          "name": "datatokenWeight",
          "type": "uint256"
        },
        {
          "internalType": "address",
          "name": "baseTokenAddress",
          "type": "address"
        },
        {
          "internalType": "uint256",
          "name": "baseTokenAmount",
          "type": "uint256"
        },
        {
          "internalType": "uint256",
          "name": "baseTokenWeight",
          "type": "uint256"
        }
      ],
      "name": "setup",
      "outputs": [],
      "stateMutability": "nonpayable",
      "type": "function"
    },
    {
      "inputs": [
        {
          "internalType": "address[3]",
          "name": "tokenInOutMarket",
          "type": "address[3]"
        },
        {
          "internalType": "uint256[4]",
          "name": "amountsInOutMaxFee",
          "type": "uint256[4]"
        }
      ],
      "name": "swapExactAmountIn",
      "outputs": [
        {
          "internalType": "uint256",
          "name": "tokenAmountOut",
          "type": "uint256"
        },
        {
          "internalType": "uint256",
          "name": "spotPriceAfter",
          "type": "uint256"
        }
      ],
      "stateMutability": "nonpayable",
      "type": "function"
    },
    {
      "inputs": [
        {
          "internalType": "address[3]",
          "name": "tokenInOutMarket",
          "type": "address[3]"
        },
        {
          "internalType": "uint256[4]",
          "name": "amountsInOutMaxFee",
          "type": "uint256[4]"
        }
      ],
      "name": "swapExactAmountOut",
      "outputs": [
        {
          "internalType": "uint256",
          "name": "tokenAmountIn",
          "type": "uint256"
        },
        {
          "internalType": "uint256",
          "name": "spotPriceAfter",
          "type": "uint256"
        }
      ],
      "stateMutability": "nonpayable",
      "type": "function"
    },
    {
      "inputs": [],
      "name": "symbol",
      "outputs": [
        {
          "internalType": "string",
          "name": "",
          "type": "string"
        }
      ],
      "stateMutability": "view",
      "type": "function"
    },
    {
      "inputs": [],
      "name": "totalSupply",
      "outputs": [
        {
          "internalType": "uint256",
          "name": "",
          "type": "uint256"
        }
      ],
      "stateMutability": "view",
      "type": "function"
    },
    {
      "inputs": [
        {
          "internalType": "address",
          "name": "dst",
          "type": "address"
        },
        {
          "internalType": "uint256",
          "name": "amt",
          "type": "uint256"
        }
      ],
      "name": "transfer",
      "outputs": [
        {
          "internalType": "bool",
          "name": "",
          "type": "bool"
        }
      ],
      "stateMutability": "nonpayable",
      "type": "function"
    },
    {
      "inputs": [
        {
          "internalType": "address",
          "name": "src",
          "type": "address"
        },
        {
          "internalType": "address",
          "name": "dst",
          "type": "address"
        },
        {
          "internalType": "uint256",
          "name": "amt",
          "type": "uint256"
        }
      ],
      "name": "transferFrom",
      "outputs": [
        {
          "internalType": "bool",
          "name": "",
          "type": "bool"
        }
      ],
      "stateMutability": "nonpayable",
      "type": "function"
    },
    {
      "inputs": [
        {
          "internalType": "address",
          "name": "_newCollector",
          "type": "address"
        }
      ],
      "name": "updateMarketFeeCollector",
      "outputs": [],
      "stateMutability": "nonpayable",
      "type": "function"
    }
  ],
  "bytecode": "0x60c0604052601360808190527f42616c616e63657220506f6f6c20546f6b656e0000000000000000000000000060a09081526200004091600a91906200008f565b506040805180820190915260038082526210941560ea1b60209092019182526200006d91600b916200008f565b50600c805460ff191660121790553480156200008857600080fd5b5062000172565b8280546200009d9062000135565b90600052602060002090601f016020900481019282620000c157600085556200010c565b82601f10620000dc57805160ff19168380011785556200010c565b828001600101855582156200010c579182015b828111156200010c578251825591602001919060010190620000ef565b506200011a9291506200011e565b5090565b5b808211156200011a57600081556001016200011f565b600181811c908216806200014a57607f821691505b602082108114156200016c57634e487b7160e01b600052602260045260246000fd5b50919050565b6159f680620001826000396000f3fe608060405234801561001057600080fd5b50600436106104335760003560e01c80638d4e408311610236578063c070a6d81161013b578063cd2ed8fb116100c3578063ec09302111610087578063ec0930211461092e578063f1b8a9b714610936578063f8b2cb4f14610949578063fde924f71461095c578063ff9b18501461096e57600080fd5b8063cd2ed8fb146108d2578063d4cadf68146108da578063d73dd623146108e2578063dd62ed3e146108f5578063e4a28a521461049a57600080fd5b8063c6580d121161010a578063c6580d1214610889578063c98a59cf14610891578063ca6ce9e8146108a4578063caa01148146108b7578063cc77828d146108ca57600080fd5b8063c070a6d814610846578063c36596a6146104da578063c421a3fc14610859578063c44a42831461088157600080fd5b8063ab77a2de116101be578063ba019dab1161018d578063ba019dab14610803578063bc063e1a1461080b578063bc694ea214610813578063be3bbd2e1461081b578063bf7db2361461083057600080fd5b8063ab77a2de146107e0578063b02f0b73146107e8578063b0e0d136146107fb578063b7b800a4146107fb57600080fd5b806395a1f2d01161020557806395a1f2d01461075c57806395d89b41146107aa578063992e2a92146107b2578063a3b3a16d146107ba578063a9059cbb146107cd57600080fd5b80638d4e408314610727578063936c3477146107395780639381cd2b14610741578063948d8ce61461074957600080fd5b80633950b3fd1161033c57806366188463116102c45780637a284be4116102935780637a284be4146106db5780637c5918b3146106e457806380ca7308146107045780638329ab331461070c578063867378c51461071f57600080fd5b80636618846314610684578063703305181461069757806370a08231146106aa57806376c7a3c7146106d357600080fd5b80634f69c0d41161030b5780634f69c0d41461063c5780635c3f15321461064f5780635d1ca631146106625780635e123add14610669578063638c9e951461067157600080fd5b80633950b3fd146105f4578063430ed5d014610607578063458c3fb51461061a5780634df947d01461062b57600080fd5b806323b872dd116103bf578063300621921161038e578063300621921461056b5780633018205f1461058b578063313ce567146105b657806334e19907146105cf578063392e53cd146105e257600080fd5b806323b872dd146104e957806329b88a6a146104fc5780632eebd6ae146105045780632f37b6241461053f57600080fd5b806309ef3f5b1161040657806309ef3f5b146104a257806312989260146104b757806318160ddd146104ca578063189d00ca146104d2578063218b5382146104da57600080fd5b806306fdde0314610438578063079492d414610456578063095ea7b31461047757806309a3bbe41461049a575b600080fd5b610440610981565b60405161044d919061528f565b60405180910390f35b6104696104643660046152d9565b610a13565b60405190815260200161044d565b61048a610485366004615315565b610aa6565b604051901515815260200161044d565b610469610b01565b6104b56104b036600461533f565b610b17565b005b6104696104c5366004615397565b610d53565b600954610469565b610469611178565b610469670de0b6b3a764000081565b61048a6104f73660046152d9565b61118f565b6104696112e3565b6105176105123660046153b9565b61135d565b604080519586526020860194909452928401919091526060830152608082015260a00161044d565b61048a61054d3660046153fb565b6001600160a01b031660009081526010602052604090205460ff1690565b6104696105793660046153fb565b60056020526000908152604090205481565b600c546201000090046001600160a01b03165b6040516001600160a01b03909116815260200161044d565b600c5460ff165b60405160ff909116815260200161044d565b6104b56105dd366004615416565b611436565b601254600160a01b900460ff1661048a565b610469610602366004615315565b61156f565b610469610615366004615315565b6115d7565b6003546001600160a01b031661059e565b6004546001600160a01b031661059e565b6104b561064a366004615474565b611637565b600e5461059e906001600160a01b031681565b60016105bd565b600054610469565b600d5461059e906001600160a01b031681565b61048a610692366004615315565b61187e565b6104b56106a53660046153fb565b611954565b6104696106b83660046153fb565b6001600160a01b031660009081526007602052604090205490565b610469611a51565b61046960005481565b6104696106f23660046153fb565b60066020526000908152604090205481565b6104b5611a66565b61046961071a366004615397565b611bf8565b610469611fdd565b600e54600160a01b900460ff1661048a565b610469611ff4565b610469612026565b6104696107573660046153fb565b612039565b61076f61076a3660046154d6565b612090565b6040805193845260208085019390935281518482015291810151606080850191909152918101516080840152015160a082015260c00161044d565b610440612239565b610469612248565b6104696107c8366004615315565b612266565b61048a6107db366004615315565b6122c6565b6104b56122dc565b6104b56107f6366004615474565b61244a565b610469600281565b610469600181565b61046961266e565b610469612681565b6108236126a0565b60405161044d91906155b5565b610838612753565b60405161044d9291906155c8565b61048a61085436600461563e565b6128c3565b61086c6108673660046156eb565b612b33565b6040805192835260208301919091520161044d565b6108386131cd565b610469600081565b61086c61089f3660046156eb565b613332565b61076f6108b23660046154d6565b613917565b6105176108c53660046153b9565b613abb565b610823613b66565b600f54610469565b600154610469565b61048a6108f0366004615315565b613b91565b61046961090336600461572d565b6001600160a01b03918216600090815260086020908152604080832093909416825291909152205490565b610469613c04565b6104696109443660046153fb565b613c17565b6104696109573660046153fb565b613c75565b600c54600160b01b900460ff1661048a565b61046961097c366004615315565b613cc8565b6060600a805461099090615760565b80601f01602080910402602001604051908101604052809291908181526020018280546109bc90615760565b8015610a095780601f106109de57610100808354040283529160200191610a09565b820191906000526020600020905b8154815290600101906020018083116109ec57829003601f168201915b5050505050905090565b600c54600090610100900460ff1615610a475760405162461bcd60e51b8152600401610a3e9061579b565b60405180910390fd5b610a5084613d28565b610a5983613d28565b6001600160a01b03808516600090815260106020526040808220928616825290206003808301546002808501549284015490840154610a9a93919088613d83565b925050505b9392505050565b3360008181526008602090815260408083206001600160a01b038716808552925280832085905551919290916000805160206159a183398151915290610aef9086815260200190565b60405180910390a35060015b92915050565b610b14670de0b6b3a764000060326157d6565b81565b600c54610100900460ff1615610b3f5760405162461bcd60e51b8152600401610a3e9061579b565b600c805461010061ff001990911617908190556201000090046001600160a01b03163314610ba85760405162461bcd60e51b815260206004820152601660248201527522a9292fa4a72b20a624a22fa1a7a72a2927a62622a960511b6044820152606401610a3e565b6003546001600160a01b03878116911614610c055760405162461bcd60e51b815260206004820152601d60248201527f4552525f494e56414c49445f44415441544f4b454e5f414444524553530000006044820152606401610a3e565b6004546001600160a01b03848116911614610c625760405162461bcd60e51b815260206004820152601d60248201527f4552525f494e56414c49445f62617365546f6b656e5f414444524553530000006044820152606401610a3e565b610c6d868686613e0f565b604080518681524260208201526001600160a01b038816913391600080516020615981833981519152910160405180910390a3610cab838383613e0f565b604080518381524260208201526001600160a01b038516913391600080516020615981833981519152910160405180910390a3610ce6613ffe565b6040805183815260208101839052908101869052606081018590526001600160a01b03808816919085169033907fbece8b4dcdbe446dd65a9288154698e067e3e91de17a1a408c2f531b9f845d739060800160405180910390a45050600c805461ff001916905550505050565b600c54600090610100900460ff1615610d7e5760405162461bcd60e51b8152600401610a3e9061579b565b600c805461ff001916610100179055600e54600160a01b900460ff16610db65760405162461bcd60e51b8152600401610a3e906157f5565b600454610dcb906001600160a01b0316613d28565b6004546001600160a01b0316600090815260106020526040902060038101546002820154600954601154610e02939291908861405d565b915082821015610e245760405162461bcd60e51b8152600401610a3e90615820565b6004546001600160a01b03166000908152601060205260409020600390810154610e6a91610e5a90670de0b6b3a764000061585d565b610e65906001615871565b614127565b821115610ead5760405162461bcd60e51b81526020600482015260116024820152704552525f4d41585f4f55545f524154494f60781b6044820152606401610a3e565b610ebb81600301548361420c565b6003820155600454604080518481524260208201526001600160a01b039092169133917f9d9058fd2f25ccc389fec7720abef0ca83472f5abfafd5f10d37f51e6a0493f3910160405180910390a36040518481526000805160206159618339815191529060200160405180910390a1610f343385614269565b610f3d84614273565b600454610f54906001600160a01b0316338461427c565b601254600354604051630d098ab360e11b81526001600160a01b03918216600482015260248101879052911690631a13156690604401602060405180830381865afa158015610fa7573d6000803e3d6000fd5b505050506040513d601f19601f82011682018060405250810190610fcb9190615889565b1561116657600380546001600160a01b03166000908152601060205260408120918201546002830154600954601154611007939291908a61405d565b905061101782600301548261420c565b60038381019190915554600c54604080518481524260208201526001600160a01b039384169362010000909304909216917f9d9058fd2f25ccc389fec7720abef0ca83472f5abfafd5f10d37f51e6a0493f3910160405180910390a3600c5461108f906201000090046001600160a01b031687614269565b61109886614273565b600354600c546110bb916001600160a01b0390811691620100009004168361427c565b60125460035460405163054a976360e41b81526001600160a01b03918216600482015260248101849052604481018990529116906354a9763090606401600060405180830381600087803b15801561111257600080fd5b505af1158015611126573d6000803e3d6000fd5b505050507f87b3975661762d852ddf2eeaad6a43b2d93777de7b3b7bdb634283df324561188660405161115b91815260200190565b60405180910390a150505b50600c805461ff001916905592915050565b610b146402540be400670de0b6b3a764000061585d565b6000336001600160a01b03851614806111cb57506001600160a01b03841660009081526008602090815260408083203384529091529020548211155b61120f5760405162461bcd60e51b815260206004820152601560248201527422a9292fa12a27a5a2a72fa120a22fa1a0a62622a960591b6044820152606401610a3e565b61121a848484614290565b336001600160a01b0385161480159061125857506001600160a01b038416600090815260086020908152604080832033845290915290205460001914155b156112d9576001600160a01b038416600090815260086020908152604080832033845290915290205461128b908361420c565b6001600160a01b0385811660009081526008602090815260408083203380855290835292819020859055519384529186169290916000805160206159a1833981519152910160405180910390a35b5060019392505050565b6002546004805460405163b8421e2b60e01b81526001600160a01b0391821692810192909252600092169063b8421e2b90602401602060405180830381865afa158015611334573d6000803e3d6000fd5b505050506040513d601f19601f8201168201806040525081019061135891906158a6565b905090565b600080600080600061136e89613d28565b61137788613d28565b604080516080810182526001600160a01b03808c16600090815260106020818152858320600380820154875260029182015483880152948f168085528383528785209586015497870197909752958352529201546060820152906113fc6040518060800160405280600081526020016000815260200160008152602001600081525090565b611408838b8e8c612090565b805160208201516040830151606090930151949c50909a509850965090945050505050945094509450945094565b600c546201000090046001600160a01b0316331461148b5760405162461bcd60e51b815260206004820152601260248201527122a9292fa727aa2fa1a7a72a2927a62622a960711b6044820152606401610a3e565b6114a0620f4240670de0b6b3a764000061585d565b8110156114dd5760405162461bcd60e51b815260206004820152600b60248201526a4552525f4d494e5f46454560a81b6044820152606401610a3e565b6114f0600a670de0b6b3a764000061585d565b81111561152d5760405162461bcd60e51b815260206004820152600b60248201526a4552525f4d41585f46454560a81b6044820152606401610a3e565b600181905560408051338152602081018390527fbca0d601c32979eebac4e8cd06375b6e45d39af80fc06a33f366425b450dfb6991015b60405180910390a150565b6001600160a01b03821660009081526010602090815260408083208151608081018352815460ff1615158152600182015493810193909352600281015491830182905260030154606083018190526009546011546115cf939190876143a2565b949350505050565b6001600160a01b03821660009081526010602090815260408083208151608081018352815460ff1615158152600182015493810193909352600281015491830182905260030154606083018190526009546011546115cf9391908761405d565b600c54610100900460ff161561165f5760405162461bcd60e51b8152600401610a3e9061579b565b600c805461ff001916610100179055600e54600160a01b900460ff166116975760405162461bcd60e51b8152600401610a3e906157f5565b60006116a260095490565b905060006116b08583614437565b9050806116cf5760405162461bcd60e51b8152600401610a3e906158bf565b60005b600f54811015611836576000600f82815481106116f1576116f16158e8565b60009182526020808320909101546001600160a01b031680835260109091526040822060030154909250906117268583614127565b9050806117455760405162461bcd60e51b8152600401610a3e906158bf565b878785818110611757576117576158e8565b9050602002013581111561179c5760405162461bcd60e51b815260206004820152600c60248201526b22a9292fa624a6a4aa2fa4a760a11b6044820152606401610a3e565b6001600160a01b0383166000908152601060205260409020600301546117c2908261454f565b6001600160a01b0384166000818152601060205260409081902060030192909255905133906000805160206159818339815191529061180d9085904290918252602082015260400190565b60405180910390a36118208333836145a1565b505050808061182e906158fe565b9150506116d2565b50611840856146e8565b61184a33866146f1565b604051858152600080516020615961833981519152906020015b60405180910390a15050600c805461ff0019169055505050565b3360009081526008602090815260408083206001600160a01b0386168452909152812054808311156118d3573360009081526008602090815260408083206001600160a01b0388168452909152812055611902565b6118dd818461420c565b3360009081526008602090815260408083206001600160a01b03891684529091529020555b3360008181526008602090815260408083206001600160a01b038916808552908352928190205490519081529192916000805160206159a1833981519152910160405180910390a35060019392505050565b600d546001600160a01b031633146119a65760405162461bcd60e51b815260206004820152601560248201527427a7262c9026a0a925a2aa1021a7a62622a1aa27a960591b6044820152606401610a3e565b6001600160a01b0381166119fc5760405162461bcd60e51b815260206004820152601d60248201527f496e76616c6964205f6e6577436f6c6c6563746f7220616464726573730000006044820152606401610a3e565b600d80546001600160a01b0319166001600160a01b0383169081179091556040805133815260208101929092527f82aaf1a11850bc9b5eb1b7db8b4ad08629911d970a4d7539875938c4017e59b89101611564565b610b14620f4240670de0b6b3a764000061585d565b6000611a706126a0565b905060005b8151811015611bf457600060066000848481518110611a9657611a966158e8565b60200260200101516001600160a01b03166001600160a01b03168152602001908152602001600020549050600060066000858581518110611ad957611ad96158e8565b60200260200101516001600160a01b03166001600160a01b0316815260200190815260200160002081905550611b51600d60009054906101000a90046001600160a01b031682858581518110611b3157611b316158e8565b60200260200101516001600160a01b03166146fb9092919063ffffffff16565b7fbaf1ab77be65c7abf8fcd922bfcf0a749f556ac1a4cdf39c126ffaa1851edb5633600d60009054906101000a90046001600160a01b0316858581518110611b9b57611b9b6158e8565b602002602001015184604051611bd994939291906001600160a01b039485168152928416602084015292166040820152606081019190915260800190565b60405180910390a15080611bec816158fe565b915050611a75565b5050565b600c54600090610100900460ff1615611c235760405162461bcd60e51b8152600401610a3e9061579b565b600c805461ff001916610100179055600e54600160a01b900460ff16611c5b5760405162461bcd60e51b8152600401610a3e906157f5565b600454611c70906001600160a01b0316613d28565b6004546001600160a01b0316600090815260106020526040902060030154611ca590610e656002670de0b6b3a764000061585d565b831115611ce75760405162461bcd60e51b815260206004820152601060248201526f4552525f4d41585f494e5f524154494f60801b6044820152606401610a3e565b6004546001600160a01b0316600090815260106020526040902060038101546002820154600954601154611d1e93929190886143a2565b915082821015611d405760405162461bcd60e51b8152600401610a3e90615820565b611d4e81600301548561454f565b6003820155600454604080518681524260208201526001600160a01b03909216913391600080516020615981833981519152910160405180910390a36040518281526000805160206159618339815191529060200160405180910390a1611db4826146e8565b611dbe33836146f1565b600454611dd5906001600160a01b031633866145a1565b600380546001600160a01b031660009081526010602052604081209182015460028301546009546011548493611e0f93909290918961475e565b601254600354604051632afbbacb60e01b81526001600160a01b039182166004820152602481018490529293501690632afbbacb90604401602060405180830381865afa158015611e64573d6000803e3d6000fd5b505050506040513d601f19601f82011682018060405250810190611e889190615889565b15611fc85760125460035460405163ebedb8b360e01b81526001600160a01b0391821660048201526024810184905291169063ebedb8b390604401600060405180830381600087803b158015611edd57600080fd5b505af1158015611ef1573d6000803e3d6000fd5b50505050611f0383600301548261454f565b60038481019190915554600c54604080518481524260208201526001600160a01b03938416936201000090930490921691600080516020615981833981519152910160405180910390a36040518581527f87b3975661762d852ddf2eeaad6a43b2d93777de7b3b7bdb634283df324561189060200160405180910390a1611f89856146e8565b600c54611fa5906201000090046001600160a01b0316866146f1565b600354600c54611fc8916001600160a01b039081169162010000900416836145a1565b50505050600c805461ff001916905592915050565b610b1464e8d4a51000670de0b6b3a764000061585d565b600c54600090610100900460ff161561201f5760405162461bcd60e51b8152600401610a3e9061579b565b5060115490565b610b14670de0b6b3a764000060646157d6565b600c54600090610100900460ff16156120645760405162461bcd60e51b8152600401610a3e9061579b565b61206d82613d28565b506001600160a01b0381166000908152601060205260409020600201545b919050565b6000806120be6040518060800160405280600081526020016000815260200160008152602001600081525090565b60006120d988600160200201518960035b6020020151614437565b90506120fc876120f789610e65670de0b6b3a76400006120f76112e3565b61420c565b826020018181525050612121876120f789610e65670de0b6b3a764000060005461420c565b826040018181525050612146876120f789610e65670de0b6b3a764000060015461420c565b8252612162876120f781610e65670de0b6b3a76400008a61420c565b60608301526000805486906121756112e3565b6001546121829190615871565b61218c9190615871565b6121969190615871565b905060006121ac670de0b6b3a76400008361420c565b90506121b88982614127565b8a519091506000906121d3906121ce818561454f565b614437565b905060006121e182866147f8565b905060006121f7670de0b6b3a76400008361420c565b905061220a8d6002602002015182614127565b9850886122258d89604001518a602001516120f79190615871565b985098505050505050509450945094915050565b6060600b805461099090615760565b61225b6003670de0b6b3a764000061585d565b610b14906001615871565b6001600160a01b03821660009081526010602090815260408083208151608081018352815460ff1615158152600182015493810193909352600281015491830182905260030154606083018190526009546011546115cf93919087614924565b60006122d3338484614290565b50600192915050565b60006122e66126a0565b905060005b8151811015611bf45760006005600084848151811061230c5761230c6158e8565b60200260200101516001600160a01b03166001600160a01b0316815260200190815260200160002054905060006005600085858151811061234f5761234f6158e8565b60200260200101516001600160a01b03166001600160a01b03168152602001908152602001600020819055506123a7600e60009054906101000a90046001600160a01b031682858581518110611b3157611b316158e8565b7fed2b0288692cfc6d01c94a67a53721792f59c3d1388221f8aa4f66c8d2808dde33600e60009054906101000a90046001600160a01b03168585815181106123f1576123f16158e8565b60200260200101518460405161242f94939291906001600160a01b039485168152928416602084015292166040820152606081019190915260800190565b60405180910390a15080612442816158fe565b9150506122eb565b600c54610100900460ff16156124725760405162461bcd60e51b8152600401610a3e9061579b565b600c805461ff001916610100179055600e54600160a01b900460ff166124aa5760405162461bcd60e51b8152600401610a3e906157f5565b60006124b560095490565b905060006124c38583614437565b9050806124e25760405162461bcd60e51b8152600401610a3e906158bf565b6124ec3386614269565b6124f585614273565b60005b600f5481101561264f576000600f8281548110612517576125176158e8565b60009182526020808320909101546001600160a01b0316808352601090915260408220600301549092509061254c8583614127565b90508061256b5760405162461bcd60e51b8152600401610a3e906158bf565b87878581811061257d5761257d6158e8565b905060200201358110156125a35760405162461bcd60e51b8152600401610a3e90615820565b6001600160a01b0383166000908152601060205260409020600301546125c9908261420c565b6001600160a01b0384166000818152601060205260409081902060030192909255905133907f9d9058fd2f25ccc389fec7720abef0ca83472f5abfafd5f10d37f51e6a0493f3906126269085904290918252602082015260400190565b60405180910390a361263983338361427c565b5050508080612647906158fe565b9150506124f8565b5060405185815260008051602061596183398151915290602001611864565b610b14600a670de0b6b3a764000061585d565b6001612696670de0b6b3a764000060026157d6565b610b149190615919565b600c54606090610100900460ff16156126cb5760405162461bcd60e51b8152600401610a3e9061579b565b600e54600160a01b900460ff166126f45760405162461bcd60e51b8152600401610a3e906157f5565b600f805480602002602001604051908101604052809291908181526020018280548015610a0957602002820191906000526020600020905b81546001600160a01b0316815260019091019060200180831161272c575050505050905090565b60608060006127606126a0565b90506000815167ffffffffffffffff81111561277e5761277e6154c0565b6040519080825280602002602001820160405280156127a7578160200160208202803683370190505b5090506000825167ffffffffffffffff8111156127c6576127c66154c0565b6040519080825280602002602001820160405280156127ef578160200160208202803683370190505b50905060005b83518110156128b857838181518110612810576128106158e8565b602002602001015183828151811061282a5761282a6158e8565b60200260200101906001600160a01b031690816001600160a01b03168152505060056000858381518110612860576128606158e8565b60200260200101516001600160a01b03166001600160a01b031681526020019081526020016000205482828151811061289b5761289b6158e8565b6020908102919091010152806128b0816158fe565b9150506127f5565b509094909350915050565b601254600090600160a01b900460ff16156129205760405162461bcd60e51b815260206004820152601760248201527f4552525f414c52454144595f494e495449414c495a45440000000000000000006044820152606401610a3e565b6001600160a01b0389166129765760405162461bcd60e51b815260206004820152601e60248201527f4552525f494e56414c49445f434f4e54524f4c4c45525f4144445245535300006044820152606401610a3e565b6001600160a01b0388166129cc5760405162461bcd60e51b815260206004820152601b60248201527f4552525f494e56414c49445f464143544f52595f4144445245535300000000006044820152606401610a3e565b6129e1620f4240670de0b6b3a764000061585d565b878760008181106129f4576129f46158e8565b905060200201351015612a375760405162461bcd60e51b815260206004820152600b60248201526a4552525f4d494e5f46454560a81b6044820152606401610a3e565b612a4a600a670de0b6b3a764000061585d565b87876000818110612a5d57612a5d6158e8565b905060200201351115612aa05760405162461bcd60e51b815260206004820152600b60248201526a4552525f4d41585f46454560a81b6044820152606401610a3e565b612b268989898980806020026020016040519081016040528093929190818152602001838360200280828437600092019190915250506040805180820182528c93508b9250908a9060029083908390808284376000920191909152505060408051808201825291508a9060029083908390808284376000920191909152506149e3915050565b9998505050505050505050565b600c546000908190610100900460ff1615612b605760405162461bcd60e51b8152600401610a3e9061579b565b600c805461ff001916610100179055600e54600160a01b900460ff16612b985760405162461bcd60e51b8152600401610a3e906157f5565b612bb78460005b602002016020810190612bb291906153fb565b613d28565b612bc2846001612b9f565b6000601081612bd460208801886153fb565b6001600160a01b03168152602081019190915260400160009081209150601081876001602002016020810190612c0a91906153fb565b6001600160a01b03166001600160a01b031681526020019081526020016000209050612c4982600301546002670de0b6b3a7640000610e65919061585d565b85351115612c8c5760405162461bcd60e51b815260206004820152601060248201526f4552525f4d41585f494e5f524154494f60801b6044820152606401610a3e565b6000612cc283600301548460020154846003015485600201548a600360048110612cb857612cb86158e8565b6020020135613d83565b90506040860135811115612d0e5760405162461bcd60e51b81526020600482015260136024820152724552525f4241445f4c494d49545f505249434560681b6044820152606401610a3e565b600080604051806080016040528086600301548152602001866002015481526020018560030154815260200185600201548152509050612d6f6040518060800160405280600081526020016000815260200160008152602001600081525090565b612d8c828a35612d8260208e018e6153fb565b60608d0135612090565b91995093509050612ddb600560008c815b602002016020810190612db091906153fb565b6001600160a01b03166001600160a01b0316815260200190815260200160002054826020015161454f565b60056000612dec60208e018e6153fb565b6001600160a01b03166001600160a01b0316815260200190815260200160002081905550612e68600660008c600060038110612e2a57612e2a6158e8565b602002016020810190612e3d91906153fb565b6001600160a01b03166001600160a01b0316815260200190815260200160002054826040015161454f565b60066000612e7960208e018e6153fb565b6001600160a01b03166001600160a01b03168152602001908152602001600020819055507f53a9dc73d01196a9c660d761bc5ec77b945340a34b5b52e510760af2dab1c0f181600001518260200151836040015184606001518e600060038110612ee557612ee56158e8565b602002016020810190612ef891906153fb565b6040805195865260208601949094529284019190915260608301526001600160a01b0316608082015260a00160405180910390a16020890135881015612f505760405162461bcd60e51b8152600401610a3e90615820565b612f5e86600301548461454f565b8660030181905550612f7485600301548961420c565b8560030181905550612fa686600301548760020154876003015488600201548d600360048110612cb857612cb86158e8565b965083871015612fc85760405162461bcd60e51b8152600401610a3e906158bf565b604089013587111561300e5760405162461bcd60e51b815260206004820152600f60248201526e4552525f4c494d49545f505249434560881b6044820152606401610a3e565b613019893589614437565b8411156130385760405162461bcd60e51b8152600401610a3e906158bf565b61304860408b0160208c016153fb565b6001600160a01b031661305e60208c018c6153fb565b604080518c358152602081018c9052428183015290516001600160a01b03929092169133917f50ef2fc267012b5c84b56835f16ffd5331ac5a151a3760d74908721ba78b0efe919081900360600190a46130c66130be60208c018c6153fb565b338b356145a1565b60006130eb8a356120f781610e65670de0b6b3a76400008f60035b602002013561420c565b905060608a0135156131985761312f8b60025b60200201602081019061311191906153fb565b8261311f60208f018f6153fb565b6001600160a01b031691906146fb565b7f73412e11c89feeef4b84e0900c5de25904e834da8f2e1b3cddfd55de4cb6ecae61316060608d0160408e016153fb565b61316d60208e018e6153fb565b604080516001600160a01b039384168152929091166020830152810183905260600160405180910390a15b6131b26131ab60408d0160208e016153fb565b338b61427c565b50505050505050600c805461ff001916905590939092509050565b60608060006131da6126a0565b90506000815167ffffffffffffffff8111156131f8576131f86154c0565b604051908082528060200260200182016040528015613221578160200160208202803683370190505b5090506000825167ffffffffffffffff811115613240576132406154c0565b604051908082528060200260200182016040528015613269578160200160208202803683370190505b50905060005b83518110156128b85783818151811061328a5761328a6158e8565b60200260200101518382815181106132a4576132a46158e8565b60200260200101906001600160a01b031690816001600160a01b031681525050600660008583815181106132da576132da6158e8565b60200260200101516001600160a01b03166001600160a01b0316815260200190815260200160002054828281518110613315576133156158e8565b60209081029190910101528061332a816158fe565b91505061326f565b600c546000908190610100900460ff161561335f5760405162461bcd60e51b8152600401610a3e9061579b565b600c805461ff001916610100179055600e54600160a01b900460ff166133975760405162461bcd60e51b8152600401610a3e906157f5565b6133a2846000612b9f565b6133ad846001612b9f565b60006010816133bf60208801886153fb565b6001600160a01b031681526020810191909152604001600090812091506010818760016020020160208101906133f591906153fb565b6001600160a01b03166001600160a01b03168152602001908152602001600020905061343481600301546003670de0b6b3a7640000610e5a919061585d565b6020860135111561347b5760405162461bcd60e51b81526020600482015260116024820152704552525f4d41585f4f55545f524154494f60781b6044820152606401610a3e565b60006134a783600301548460020154846003015485600201548a600360048110612cb857612cb86158e8565b905060408601358111156134f35760405162461bcd60e51b81526020600482015260136024820152724552525f4241445f4c494d49545f505249434560681b6044820152606401610a3e565b6000806040518060800160405280866003015481526020018660020154815260200185600301548152602001856002015481525090506135546040518060800160405280600081526020016000815260200160008152602001600081525090565b613575826020808c01359061356b908e018e6153fb565b60608d0135613917565b9199509350905061358a600560008c81612d9d565b6005600061359b60208e018e6153fb565b6001600160a01b03166001600160a01b03168152602001908152602001600020819055506135d9600660008c600060038110612e2a57612e2a6158e8565b600660006135ea60208e018e6153fb565b6001600160a01b03166001600160a01b03168152602001908152602001600020819055507f53a9dc73d01196a9c660d761bc5ec77b945340a34b5b52e510760af2dab1c0f181600001518260200151836040015184606001518e600060038110613656576136566158e8565b60200201602081019061366991906153fb565b6040805195865260208601949094529284019190915260608301526001600160a01b0316608082015260a00160405180910390a188358811156136dd5760405162461bcd60e51b815260206004820152600c60248201526b22a9292fa624a6a4aa2fa4a760a11b6044820152606401610a3e565b6136eb86600301548461454f565b600380880191909155850154613703908a60016130e1565b856003018190555061373586600301548760020154876003015488600201548d600360048110612cb857612cb86158e8565b9650838710156137575760405162461bcd60e51b8152600401610a3e906158bf565b604089013587111561379d5760405162461bcd60e51b815260206004820152600f60248201526e4552525f4c494d49545f505249434560881b6044820152606401610a3e565b6137ab8860208b0135614437565b8411156137ca5760405162461bcd60e51b8152600401610a3e906158bf565b6137da60408b0160208c016153fb565b6001600160a01b03166137f060208c018c6153fb565b6001600160a01b0316337f50ef2fc267012b5c84b56835f16ffd5331ac5a151a3760d74908721ba78b0efe8b8d6001604080519384526020918202929092013590830152429082015260600160405180910390a461385b61385460208c018c6153fb565b338a6145a1565b6000613879896120f781610e65670de0b6b3a76400008f60036130e1565b905060608a0135156138f9576138908b60026130fe565b7f73412e11c89feeef4b84e0900c5de25904e834da8f2e1b3cddfd55de4cb6ecae6138c160608d0160408e016153fb565b6138ce60208e018e6153fb565b604080516001600160a01b039384168152929091166020830152810183905260600160405180910390a15b6131b261390c60408d0160208e016153fb565b3360208d013561427c565b6000806139456040518060800160405280600081526020016000815260200160008152602001600081525090565b600061395a88600360200201518960016120cf565b9050600061396f89600260200201518961420c565b905060006139848a6002602002015183614437565b9050600061399282856147f8565b90506139a681670de0b6b3a764000061420c565b905060008054896139b56112e3565b6001546139c29190615871565b6139cc9190615871565b6139d69190615871565b90506139ff6139ed8d60005b602002015184614127565b6121ce670de0b6b3a76400008461420c565b9750613a1d886120f78a610e65670de0b6b3a76400006120f76112e3565b866020018181525050613a42886120f78a610e65670de0b6b3a764000060005461420c565b866040018181525050613a67886120f78a610e65670de0b6b3a764000060015461420c565b8652613a83886120f781610e65670de0b6b3a76400008e61420c565b6060870152613aaa613a968d60006139e2565b6121ce670de0b6b3a764000060015461420c565b965050505050509450945094915050565b6000806000806000613acc89613d28565b613ad588613d28565b604080516080810182526001600160a01b03808c16600090815260106020818152858320600380820154875260029182015483880152948f16808552838352878520958601549787019790975295835252920154606082015290613b5a6040518060800160405280600081526020016000815260200160008152602001600081525090565b611408838b8e8c613917565b600c54606090610100900460ff16156126f45760405162461bcd60e51b8152600401610a3e9061579b565b3360009081526008602090815260408083206001600160a01b0386168452909152812054613bbf908361454f565b3360008181526008602090815260408083206001600160a01b038916808552908352928190208590555193845290926000805160206159a18339815191529101610aef565b610b146002670de0b6b3a764000061585d565b600c54600090610100900460ff1615613c425760405162461bcd60e51b8152600401610a3e9061579b565b613c4b82613d28565b6001600160a01b038216600090815260106020526040902060020154601154610a9f908290614437565b600c54600090610100900460ff1615613ca05760405162461bcd60e51b8152600401610a3e9061579b565b613ca982613d28565b506001600160a01b031660009081526010602052604090206003015490565b6001600160a01b03821660009081526010602090815260408083208151608081018352815460ff1615158152600182015493810193909352600281015491830182905260030154606083018190526009546011546115cf9391908761475e565b6001600160a01b03811660009081526010602052604090205460ff16613d805760405162461bcd60e51b815260206004820152600d60248201526c11549497d393d517d093d55391609a1b6044820152606401610a3e565b50565b600080613d908787614437565b90506000613d9e8686614437565b90506000613dac8383614437565b90506000613df5670de0b6b3a76400006121ce670de0b6b3a764000089600054613dd46112e3565b600154613de19190615871565b613deb9190615871565b6120f79190615871565b9050613e018282614127565b9a9950505050505050505050565b600c546201000090046001600160a01b03163314613e645760405162461bcd60e51b815260206004820152601260248201527122a9292fa727aa2fa1a7a72a2927a62622a960711b6044820152606401610a3e565b6001600160a01b03831660009081526010602052604090205460ff1615613ebc5760405162461bcd60e51b815260206004820152600c60248201526b11549497d254d7d093d5539160a21b6044820152606401610a3e565b600e54600160a01b900460ff1615613f095760405162461bcd60e51b815260206004820152601060248201526f11549497d254d7d1925390531256915160821b6044820152606401610a3e565b600f54600211613f4c5760405162461bcd60e51b815260206004820152600e60248201526d4552525f4d41585f544f4b454e5360901b6044820152606401610a3e565b604080516080810182526001808252600f805460208085019182526000858701818152606087018281526001600160a01b038c1680845260109094529782209651875460ff1916901515178755925186860155915160028601559451600390940193909355805491820181559091527f8d1108e10bcb7c27dddfc02ed9d693a074039d026cf4ea4240b40f7d581ac8020180546001600160a01b0319169091179055613ff9838383614b21565b505050565b600e805460ff60a01b1916600160a01b179055600c805460ff60b01b1916600160b01b17905561403f61403a670de0b6b3a764000060646157d6565b6146e8565b61405b33614056670de0b6b3a764000060646157d6565b6146f1565b565b60008061406a8685614437565b9050600061408584610e65670de0b6b3a7640000600061420c565b90506000614093878361420c565b905060006140a18289614437565b905060006140c0826140bb670de0b6b3a764000088614437565b6147f8565b905060006140ce828d614127565b905060006140dc8d8361420c565b905060006140fd6140f5670de0b6b3a76400008a61420c565b600154614127565b905061411582610e65670de0b6b3a76400008461420c565b9e9d5050505050505050505050505050565b60008061413483856157d6565b905083158061414b575082614149858361585d565b145b61418a5760405162461bcd60e51b815260206004820152601060248201526f4552525f4d554c5f4f564552464c4f5760801b6044820152606401610a3e565b600061419f6002670de0b6b3a764000061585d565b6141a99083615871565b9050818110156141ee5760405162461bcd60e51b815260206004820152601060248201526f4552525f4d554c5f4f564552464c4f5760801b6044820152606401610a3e565b6000614202670de0b6b3a76400008361585d565b9695505050505050565b600080600061421b8585614d40565b9150915080156142615760405162461bcd60e51b81526020600482015260116024820152704552525f5355425f554e444552464c4f5760781b6044820152606401610a3e565b509392505050565b611bf48282614d77565b613d8081614d82565b613ff96001600160a01b03841683836146fb565b6001600160a01b0383166000908152600760205260409020548111156142ef5760405162461bcd60e51b815260206004820152601460248201527311549497d25394d551919250d251539517d0905360621b6044820152606401610a3e565b6001600160a01b038316600090815260076020526040902054614312908261420c565b6001600160a01b038085166000908152600760205260408082209390935590841681522054614341908261454f565b6001600160a01b0380841660008181526007602052604090819020939093559151908516907fddf252ad1be2c89b69c2b068fc378daa952ba7f163c4a11628f55a4df523b3ef906143959085815260200190565b60405180910390a3505050565b6000806143af8685614437565b905060006143c86140f5670de0b6b3a76400008461420c565b905060006143e285610e65670de0b6b3a76400008561420c565b905060006143f08a8361454f565b905060006143fe828c614437565b9050600061440c82876147f8565b9050600061441a828c614127565b9050614426818c61420c565b9d9c50505050505050505050505050565b6000816144755760405162461bcd60e51b815260206004820152600c60248201526b4552525f4449565f5a45524f60a01b6044820152606401610a3e565b6000614489670de0b6b3a7640000856157d6565b90508315806144a85750670de0b6b3a76400006144a6858361585d565b145b6144e75760405162461bcd60e51b815260206004820152601060248201526f11549497d1125597d25395115493905360821b6044820152606401610a3e565b60006144f460028561585d565b6144fe9083615871565b9050818110156145435760405162461bcd60e51b815260206004820152601060248201526f11549497d1125597d25395115493905360821b6044820152606401610a3e565b6000614202858361585d565b60008061455c8385615871565b905083811015610a9f5760405162461bcd60e51b815260206004820152601060248201526f4552525f4144445f4f564552464c4f5760801b6044820152606401610a3e565b6040516370a0823160e01b81523060048201526000906001600160a01b038516906370a0823190602401602060405180830381865afa1580156145e8573d6000803e3d6000fd5b505050506040513d601f19601f8201168201806040525081019061460c91906158a6565b90506146236001600160a01b038516843085614e4e565b61462d8282615871565b6040516370a0823160e01b81523060048201526001600160a01b038616906370a0823190602401602060405180830381865afa158015614671573d6000803e3d6000fd5b505050506040513d601f19601f8201168201806040525081019061469591906158a6565b146146e25760405162461bcd60e51b815260206004820152601d60248201527f5472616e7366657220616d6f756e7420776173206e6f742065786163740000006044820152606401610a3e565b50505050565b613d8081614e86565b611bf48282614ef5565b6040516001600160a01b038316602482015260448101829052613ff990849063a9059cbb60e01b906064015b60408051601f198184030181529190526020810180516001600160e01b03166001600160e01b031990931692909217909152614f00565b60008061476b8685614437565b90506000614779868561454f565b905060006147878288614437565b9050600061479d670de0b6b3a764000085614437565b905060006147ab83836147f8565b905060006147b9828d614127565b905060006147c7828e61420c565b905060006147e06140f5670de0b6b3a76400008a61420c565b9050614115826121ce670de0b6b3a76400008461420c565b600060018310156148435760405162461bcd60e51b81526020600482015260156024820152744552525f42504f575f424153455f544f4f5f4c4f5760581b6044820152606401610a3e565b6001614858670de0b6b3a764000060026157d6565b6148629190615919565b8311156148aa5760405162461bcd60e51b815260206004820152601660248201527508aa4a4be84a09eaebe8482a68abea89e9ebe90928e960531b6044820152606401610a3e565b60006148b583614fd2565b905060006148c3848361420c565b905060006148d9866148d485614ff0565b615004565b9050816148ea579250610afb915050565b600061490d87846149086402540be400670de0b6b3a764000061585d565b615078565b90506149198282614127565b979650505050505050565b6000806149318685614437565b90506000614947670de0b6b3a76400008361420c565b9050600061495782600154614127565b90506000614971866121ce670de0b6b3a76400008561420c565b9050600061497f8b8361420c565b9050600061498d828d614437565b9050600061499b82886147f8565b905060006149a9828d614127565b905060006149b78d8361420c565b90506149d0816121ce670de0b6b3a7640000600061420c565b9f9e505050505050505050505050505050565b600c805462010000600160b01b031916620100006001600160a01b038a81169190910291909117909155600280546001600160a01b031916918816919091179055845160009086908290614a3957614a396158e8565b602002602001015160018190555085600181518110614a5a57614a5a6158e8565b602090810291909101810151600055600c8054961515600160b01b0260ff60b01b199097169690961795869055600e80548551600380546001600160a01b039283166001600160a01b03199182161790915596840151600480549183169189169190911790558551600d805491831691891691909117905594909201518416951515600160a01b908102959095166001600160a81b0319928316179590951790945550601280549093166201000090940416929092178217908190550460ff169392505050565b670de0b6b3a7640000811015614b6a5760405162461bcd60e51b815260206004820152600e60248201526d11549497d3525397d5d15251d21560921b6044820152606401610a3e565b614b7d670de0b6b3a764000060326157d6565b811115614bbd5760405162461bcd60e51b815260206004820152600e60248201526d11549497d3505617d5d15251d21560921b6044820152606401610a3e565b614bd464e8d4a51000670de0b6b3a764000061585d565b821015614c155760405162461bcd60e51b815260206004820152600f60248201526e4552525f4d494e5f42414c414e434560881b6044820152606401610a3e565b6001600160a01b03831660009081526010602052604090206002015480821115614cb157614c4e601154614c49848461420c565b61454f565b601155614c64670de0b6b3a764000060326157d6565b6011541115614cac5760405162461bcd60e51b815260206004820152601460248201527311549497d3505617d513d5105317d5d15251d21560621b6044820152606401610a3e565b614ccd565b80821015614ccd57614cc96011546120f7838561420c565b6011555b6001600160a01b03841660009081526010602052604090206002810183905560030180549084905580841115614d1657614d118533614d0c878561420c565b6145a1565b614d39565b80841015614d39576000614d2a828661420c565b9050614d3786338361427c565b505b5050505050565b600080828410614d5f57614d548385615919565b600091509150614d70565b614d698484615919565b6001915091505b9250929050565b611bf4823083614290565b30600090815260076020526040902054811115614dd85760405162461bcd60e51b815260206004820152601460248201527311549497d25394d551919250d251539517d0905360621b6044820152606401610a3e565b30600090815260076020526040902054614df2908261420c565b30600090815260076020526040902055600954614e0f908261420c565b60095560405181815260009030907fddf252ad1be2c89b69c2b068fc378daa952ba7f163c4a11628f55a4df523b3ef906020015b60405180910390a350565b6040516001600160a01b03808516602483015283166044820152606481018290526146e29085906323b872dd60e01b90608401614727565b30600090815260076020526040902054614ea0908261454f565b30600090815260076020526040902055600954614ebd908261454f565b60095560405181815230906000907fddf252ad1be2c89b69c2b068fc378daa952ba7f163c4a11628f55a4df523b3ef90602001614e43565b611bf4308383614290565b6000614f55826040518060400160405280602081526020017f5361666545524332303a206c6f772d6c6576656c2063616c6c206661696c6564815250856001600160a01b03166151689092919063ffffffff16565b805190915015613ff95780806020019051810190614f739190615889565b613ff95760405162461bcd60e51b815260206004820152602a60248201527f5361666545524332303a204552433230206f7065726174696f6e20646964206e6044820152691bdd081cdd58d8d9595960b21b6064820152608401610a3e565b6000670de0b6b3a7640000614fe683614ff0565b610afb91906157d6565b6000610afb670de0b6b3a76400008361585d565b60008281615013600285615930565b61502557670de0b6b3a7640000615027565b815b905061503460028561585d565b93505b83156115cf576150478283614127565b9150615054600285615930565b15615066576150638183614127565b90505b61507160028561585d565b9350615037565b600082818061508f87670de0b6b3a7640000614d40565b9092509050670de0b6b3a764000080600060015b8884106151595760006150be670de0b6b3a7640000836157d6565b90506000806150de8a6150d985670de0b6b3a764000061420c565b614d40565b915091506150f087610e65848c614127565b96506150fc8784614437565b96508661510b57505050615159565b8715615115579315935b801561511f579315935b84156151365761512f868861420c565b9550615143565b615140868861454f565b95505b5050508080615151906158fe565b9150506150a3565b50909998505050505050505050565b60606115cf848460008585843b6151c15760405162461bcd60e51b815260206004820152601d60248201527f416464726573733a2063616c6c20746f206e6f6e2d636f6e74726163740000006044820152606401610a3e565b600080866001600160a01b031685876040516151dd9190615944565b60006040518083038185875af1925050503d806000811461521a576040519150601f19603f3d011682016040523d82523d6000602084013e61521f565b606091505b509150915061491982828660608315615239575081610a9f565b8251156152495782518084602001fd5b8160405162461bcd60e51b8152600401610a3e919061528f565b60005b8381101561527e578181015183820152602001615266565b838111156146e25750506000910152565b60208152600082518060208401526152ae816040850160208701615263565b601f01601f19169190910160400192915050565b80356001600160a01b038116811461208b57600080fd5b6000806000606084860312156152ee57600080fd5b6152f7846152c2565b9250615305602085016152c2565b9150604084013590509250925092565b6000806040838503121561532857600080fd5b615331836152c2565b946020939093013593505050565b60008060008060008060c0878903121561535857600080fd5b615361876152c2565b9550602087013594506040870135935061537d606088016152c2565b92506080870135915060a087013590509295509295509295565b600080604083850312156153aa57600080fd5b50508035926020909101359150565b600080600080608085870312156153cf57600080fd5b6153d8856152c2565b93506153e6602086016152c2565b93969395505050506040820135916060013590565b60006020828403121561540d57600080fd5b610a9f826152c2565b60006020828403121561542857600080fd5b5035919050565b60008083601f84011261544157600080fd5b50813567ffffffffffffffff81111561545957600080fd5b6020830191508360208260051b8501011115614d7057600080fd5b60008060006040848603121561548957600080fd5b83359250602084013567ffffffffffffffff8111156154a757600080fd5b6154b38682870161542f565b9497909650939450505050565b634e487b7160e01b600052604160045260246000fd5b60008060008060e085870312156154ec57600080fd5b85601f8601126154fb57600080fd5b6040516080810181811067ffffffffffffffff8211171561551e5761551e6154c0565b60405280608087018881111561553357600080fd5b875b8181101561554d578035835260209283019201615535565b509195505035925061556160a086016152c2565b9396929550929360c00135925050565b600081518084526020808501945080840160005b838110156155aa5781516001600160a01b031687529582019590820190600101615585565b509495945050505050565b602081526000610a9f6020830184615571565b6040815260006155db6040830185615571565b82810360208481019190915284518083528582019282019060005b81811015615612578451835293830193918301916001016155f6565b5090979650505050505050565b8015158114613d8057600080fd5b8060408101831015610afb57600080fd5b600080600080600080600080610120898b03121561565b57600080fd5b615664896152c2565b975061567260208a016152c2565b9650604089013567ffffffffffffffff81111561568e57600080fd5b61569a8b828c0161542f565b90975095505060608901356156ae8161561f565b935060808901356156be8161561f565b92506156cd8a60a08b0161562d565b91506156dc8a60e08b0161562d565b90509295985092959890939650565b60008060e083850312156156fe57600080fd5b606083018481111561570f57600080fd5b8392508460e08501111561572257600080fd5b809150509250929050565b6000806040838503121561574057600080fd5b615749836152c2565b9150615757602084016152c2565b90509250929050565b600181811c9082168061577457607f821691505b6020821081141561579557634e487b7160e01b600052602260045260246000fd5b50919050565b6020808252600b908201526a4552525f5245454e54525960a81b604082015260600190565b634e487b7160e01b600052601160045260246000fd5b60008160001904831182151516156157f0576157f06157c0565b500290565b60208082526011908201527011549497d393d517d19253905312569151607a1b604082015260600190565b6020808252600d908201526c11549497d31253525517d3d555609a1b604082015260600190565b634e487b7160e01b600052601260045260246000fd5b60008261586c5761586c615847565b500490565b60008219821115615884576158846157c0565b500190565b60006020828403121561589b57600080fd5b8151610a9f8161561f565b6000602082840312156158b857600080fd5b5051919050565b6020808252600f908201526e08aa4a4be9a82a890be82a0a0a49eb608b1b604082015260600190565b634e487b7160e01b600052603260045260246000fd5b6000600019821415615912576159126157c0565b5060010190565b60008282101561592b5761592b6157c0565b500390565b60008261593f5761593f615847565b500690565b60008251615956818460208701615263565b919091019291505056fefcda32798d5a9d032f49b37fea876d422f18f6e386e0f07db6029b693624b2c215a8ca63e37b2cff1677df2b6b82d36fcf8a524228bd7a4b4d02d107c28c1e8a8c5be1e5ebec7d5bd14f71427d1e84f3dd0314c0f7b2291e5b200ac8c7c3b925a264697066735822122060b94352c2ed1da48bbd30ce6f9c75cb29b8ad57be7084ba7d9565a58a4fd86f64736f6c634300080a0033",
  "linkReferences": {},
  "deployedLinkReferences": {}
}