{
  "_format": "hh-sol-artifact-1",
  "contractName": "BPool",
  "sourceName": "contracts/pools/balancer/BPool.sol",
  "abi": [
    {
      "anonymous": false,
      "inputs": [
        {
          "indexed": true,
          "internalType": "address",
          "name": "src",
          "type": "address"
        },
        {
          "indexed": true,
          "internalType": "address",
          "name": "dst",
          "type": "address"
        },
        {
          "indexed": false,
          "internalType": "uint256",
          "name": "amt",
          "type": "uint256"
        }
      ],
      "name": "Approval",
      "type": "event"
    },
    {
      "anonymous": false,
      "inputs": [
        {
          "indexed": false,
          "internalType": "uint256",
          "name": "bptAmount",
          "type": "uint256"
        }
      ],
      "name": "LOG_BPT",
      "type": "event"
    },
    {
      "anonymous": false,
      "inputs": [
        {
          "indexed": false,
          "internalType": "uint256",
          "name": "bptAmount",
          "type": "uint256"
        }
      ],
      "name": "LOG_BPT_SS",
      "type": "event"
    },
    {
      "anonymous": false,
      "inputs": [
        {
          "indexed": true,
          "internalType": "bytes4",
          "name": "sig",
          "type": "bytes4"
        },
        {
          "indexed": true,
          "internalType": "address",
          "name": "caller",
          "type": "address"
        },
        {
          "indexed": false,
          "internalType": "uint256",
          "name": "timestamp",
          "type": "uint256"
        },
        {
          "indexed": false,
          "internalType": "bytes",
          "name": "data",
          "type": "bytes"
        }
      ],
      "name": "LOG_CALL",
      "type": "event"
    },
    {
      "anonymous": false,
      "inputs": [
        {
          "indexed": true,
          "internalType": "address",
          "name": "caller",
          "type": "address"
        },
        {
          "indexed": true,
          "internalType": "address",
          "name": "tokenOut",
          "type": "address"
        },
        {
          "indexed": false,
          "internalType": "uint256",
          "name": "tokenAmountOut",
          "type": "uint256"
        },
        {
          "indexed": false,
          "internalType": "uint256",
          "name": "timestamp",
          "type": "uint256"
        }
      ],
      "name": "LOG_EXIT",
      "type": "event"
    },
    {
      "anonymous": false,
      "inputs": [
        {
          "indexed": true,
          "internalType": "address",
          "name": "caller",
          "type": "address"
        },
        {
          "indexed": true,
          "internalType": "address",
          "name": "tokenIn",
          "type": "address"
        },
        {
          "indexed": false,
          "internalType": "uint256",
          "name": "tokenAmountIn",
          "type": "uint256"
        },
        {
          "indexed": false,
          "internalType": "uint256",
          "name": "timestamp",
          "type": "uint256"
        }
      ],
      "name": "LOG_JOIN",
      "type": "event"
    },
    {
      "anonymous": false,
      "inputs": [
        {
          "indexed": true,
          "internalType": "address",
          "name": "caller",
          "type": "address"
        },
        {
          "indexed": true,
          "internalType": "address",
          "name": "baseToken",
          "type": "address"
        },
        {
          "indexed": false,
          "internalType": "uint256",
          "name": "baseTokenAmountIn",
          "type": "uint256"
        },
        {
          "indexed": false,
          "internalType": "uint256",
          "name": "baseTokenWeight",
          "type": "uint256"
        },
        {
          "indexed": true,
          "internalType": "address",
          "name": "dataToken",
          "type": "address"
        },
        {
          "indexed": false,
          "internalType": "uint256",
          "name": "dataTokenAmountIn",
          "type": "uint256"
        },
        {
          "indexed": false,
          "internalType": "uint256",
          "name": "dataTokenWeight",
          "type": "uint256"
        }
      ],
      "name": "LOG_SETUP",
      "type": "event"
    },
    {
      "anonymous": false,
      "inputs": [
        {
          "indexed": true,
          "internalType": "address",
          "name": "caller",
          "type": "address"
        },
        {
          "indexed": true,
          "internalType": "address",
          "name": "tokenIn",
          "type": "address"
        },
        {
          "indexed": true,
          "internalType": "address",
          "name": "tokenOut",
          "type": "address"
        },
        {
          "indexed": false,
          "internalType": "uint256",
          "name": "tokenAmountIn",
          "type": "uint256"
        },
        {
          "indexed": false,
          "internalType": "uint256",
          "name": "tokenAmountOut",
          "type": "uint256"
        },
        {
          "indexed": false,
          "internalType": "uint256",
          "name": "timestamp",
          "type": "uint256"
        }
      ],
      "name": "LOG_SWAP",
      "type": "event"
    },
    {
      "anonymous": false,
      "inputs": [
        {
          "indexed": false,
          "internalType": "address",
          "name": "caller",
          "type": "address"
        },
        {
          "indexed": false,
          "internalType": "address",
          "name": "newMarketCollector",
          "type": "address"
        }
      ],
      "name": "MarketCollectorChanged",
      "type": "event"
    },
    {
      "anonymous": false,
      "inputs": [
        {
          "indexed": false,
          "internalType": "address",
          "name": "caller",
          "type": "address"
        },
        {
          "indexed": false,
          "internalType": "address",
          "name": "marketAddress",
          "type": "address"
        },
        {
          "indexed": false,
          "internalType": "address",
          "name": "token",
          "type": "address"
        },
        {
          "indexed": false,
          "internalType": "uint256",
          "name": "amount",
          "type": "uint256"
        }
      ],
      "name": "MarketFee",
      "type": "event"
    },
    {
      "anonymous": false,
      "inputs": [
        {
          "indexed": false,
          "internalType": "address",
          "name": "caller",
          "type": "address"
        },
        {
          "indexed": false,
          "internalType": "address",
          "name": "OPFWallet",
          "type": "address"
        },
        {
          "indexed": false,
          "internalType": "address",
          "name": "token",
          "type": "address"
        },
        {
          "indexed": false,
          "internalType": "uint256",
          "name": "amount",
          "type": "uint256"
        }
      ],
      "name": "OPFFee",
      "type": "event"
    },
    {
      "anonymous": false,
      "inputs": [
        {
          "indexed": false,
          "internalType": "uint256",
          "name": "swapFeeAmount",
          "type": "uint256"
        },
        {
          "indexed": false,
          "internalType": "uint256",
          "name": "oceanFeeAmount",
          "type": "uint256"
        },
        {
          "indexed": false,
          "internalType": "uint256",
          "name": "marketFeeAmount",
          "type": "uint256"
        },
        {
          "indexed": false,
          "internalType": "address",
          "name": "tokenFees",
          "type": "address"
        }
      ],
      "name": "SWAP_FEES",
      "type": "event"
    },
    {
      "anonymous": false,
      "inputs": [
        {
          "indexed": false,
          "internalType": "address",
          "name": "caller",
          "type": "address"
        },
        {
          "indexed": false,
          "internalType": "uint256",
          "name": "amount",
          "type": "uint256"
        }
      ],
      "name": "SwapFeeChanged",
      "type": "event"
    },
    {
      "anonymous": false,
      "inputs": [
        {
          "indexed": true,
          "internalType": "address",
          "name": "src",
          "type": "address"
        },
        {
          "indexed": true,
          "internalType": "address",
          "name": "dst",
          "type": "address"
        },
        {
          "indexed": false,
          "internalType": "uint256",
          "name": "amt",
          "type": "uint256"
        }
      ],
      "name": "Transfer",
      "type": "event"
    },
    {
      "inputs": [],
      "name": "BONE",
      "outputs": [
        {
          "internalType": "uint256",
          "name": "",
          "type": "uint256"
        }
      ],
      "stateMutability": "view",
      "type": "function"
    },
    {
      "inputs": [],
      "name": "BPOW_PRECISION",
      "outputs": [
        {
          "internalType": "uint256",
          "name": "",
          "type": "uint256"
        }
      ],
      "stateMutability": "view",
      "type": "function"
    },
    {
      "inputs": [],
      "name": "EXIT_FEE",
      "outputs": [
        {
          "internalType": "uint256",
          "name": "",
          "type": "uint256"
        }
      ],
      "stateMutability": "view",
      "type": "function"
    },
    {
      "inputs": [],
      "name": "INIT_POOL_SUPPLY",
      "outputs": [
        {
          "internalType": "uint256",
          "name": "",
          "type": "uint256"
        }
      ],
      "stateMutability": "view",
      "type": "function"
    },
    {
      "inputs": [],
      "name": "MAX_BOUND_TOKENS",
      "outputs": [
        {
          "internalType": "uint256",
          "name": "",
          "type": "uint256"
        }
      ],
      "stateMutability": "view",
      "type": "function"
    },
    {
      "inputs": [],
      "name": "MAX_BPOW_BASE",
      "outputs": [
        {
          "internalType": "uint256",
          "name": "",
          "type": "uint256"
        }
      ],
      "stateMutability": "view",
      "type": "function"
    },
    {
      "inputs": [],
      "name": "MAX_FEE",
      "outputs": [
        {
          "internalType": "uint256",
          "name": "",
          "type": "uint256"
        }
      ],
      "stateMutability": "view",
      "type": "function"
    },
    {
      "inputs": [],
      "name": "MAX_IN_RATIO",
      "outputs": [
        {
          "internalType": "uint256",
          "name": "",
          "type": "uint256"
        }
      ],
      "stateMutability": "view",
      "type": "function"
    },
    {
      "inputs": [],
      "name": "MAX_OUT_RATIO",
      "outputs": [
        {
          "internalType": "uint256",
          "name": "",
          "type": "uint256"
        }
      ],
      "stateMutability": "view",
      "type": "function"
    },
    {
      "inputs": [],
      "name": "MAX_TOTAL_WEIGHT",
      "outputs": [
        {
          "internalType": "uint256",
          "name": "",
          "type": "uint256"
        }
      ],
      "stateMutability": "view",
      "type": "function"
    },
    {
      "inputs": [],
      "name": "MAX_WEIGHT",
      "outputs": [
        {
          "internalType": "uint256",
          "name": "",
          "type": "uint256"
        }
      ],
      "stateMutability": "view",
      "type": "function"
    },
    {
      "inputs": [],
      "name": "MIN_BALANCE",
      "outputs": [
        {
          "internalType": "uint256",
          "name": "",
          "type": "uint256"
        }
      ],
      "stateMutability": "view",
      "type": "function"
    },
    {
      "inputs": [],
      "name": "MIN_BOUND_TOKENS",
      "outputs": [
        {
          "internalType": "uint256",
          "name": "",
          "type": "uint256"
        }
      ],
      "stateMutability": "view",
      "type": "function"
    },
    {
      "inputs": [],
      "name": "MIN_BPOW_BASE",
      "outputs": [
        {
          "internalType": "uint256",
          "name": "",
          "type": "uint256"
        }
      ],
      "stateMutability": "view",
      "type": "function"
    },
    {
      "inputs": [],
      "name": "MIN_FEE",
      "outputs": [
        {
          "internalType": "uint256",
          "name": "",
          "type": "uint256"
        }
      ],
      "stateMutability": "view",
      "type": "function"
    },
    {
      "inputs": [],
      "name": "MIN_WEIGHT",
      "outputs": [
        {
          "internalType": "uint256",
          "name": "",
          "type": "uint256"
        }
      ],
      "stateMutability": "view",
      "type": "function"
    },
    {
      "inputs": [],
      "name": "_marketCollector",
      "outputs": [
        {
          "internalType": "address",
          "name": "",
          "type": "address"
        }
      ],
      "stateMutability": "view",
      "type": "function"
    },
    {
      "inputs": [],
      "name": "_opfCollector",
      "outputs": [
        {
          "internalType": "address",
          "name": "",
          "type": "address"
        }
      ],
      "stateMutability": "view",
      "type": "function"
    },
    {
      "inputs": [],
      "name": "_swapMarketFee",
      "outputs": [
        {
          "internalType": "uint256",
          "name": "",
          "type": "uint256"
        }
      ],
      "stateMutability": "view",
      "type": "function"
    },
    {
      "inputs": [
        {
          "internalType": "address",
          "name": "src",
          "type": "address"
        },
        {
          "internalType": "address",
          "name": "dst",
          "type": "address"
        }
      ],
      "name": "allowance",
      "outputs": [
        {
          "internalType": "uint256",
          "name": "",
          "type": "uint256"
        }
      ],
      "stateMutability": "view",
      "type": "function"
    },
    {
      "inputs": [
        {
          "internalType": "address",
          "name": "dst",
          "type": "address"
        },
        {
          "internalType": "uint256",
          "name": "amt",
          "type": "uint256"
        }
      ],
      "name": "approve",
      "outputs": [
        {
          "internalType": "bool",
          "name": "",
          "type": "bool"
        }
      ],
      "stateMutability": "nonpayable",
      "type": "function"
    },
    {
      "inputs": [
        {
          "internalType": "address",
          "name": "whom",
          "type": "address"
        }
      ],
      "name": "balanceOf",
      "outputs": [
        {
          "internalType": "uint256",
          "name": "",
          "type": "uint256"
        }
      ],
      "stateMutability": "view",
      "type": "function"
    },
    {
      "inputs": [
        {
          "internalType": "address",
          "name": "tokenOut",
          "type": "address"
        },
        {
          "internalType": "uint256",
          "name": "tokenAmountOut",
          "type": "uint256"
        }
      ],
      "name": "calcPoolInSingleOut",
      "outputs": [
        {
          "internalType": "uint256",
          "name": "poolAmountIn",
          "type": "uint256"
        }
      ],
      "stateMutability": "view",
      "type": "function"
    },
    {
      "inputs": [
        {
          "internalType": "address",
          "name": "tokenIn",
          "type": "address"
        },
        {
          "internalType": "uint256",
          "name": "tokenAmountIn",
          "type": "uint256"
        }
      ],
      "name": "calcPoolOutSingleIn",
      "outputs": [
        {
          "internalType": "uint256",
          "name": "poolAmountOut",
          "type": "uint256"
        }
      ],
      "stateMutability": "view",
      "type": "function"
    },
    {
      "inputs": [
        {
          "internalType": "address",
          "name": "tokenIn",
          "type": "address"
        },
        {
          "internalType": "uint256",
          "name": "poolAmountOut",
          "type": "uint256"
        }
      ],
      "name": "calcSingleInPoolOut",
      "outputs": [
        {
          "internalType": "uint256",
          "name": "tokenAmountIn",
          "type": "uint256"
        }
      ],
      "stateMutability": "view",
      "type": "function"
    },
    {
      "inputs": [
        {
          "internalType": "address",
          "name": "tokenOut",
          "type": "address"
        },
        {
          "internalType": "uint256",
          "name": "poolAmountIn",
          "type": "uint256"
        }
      ],
      "name": "calcSingleOutPoolIn",
      "outputs": [
        {
          "internalType": "uint256",
          "name": "tokenAmountOut",
          "type": "uint256"
        }
      ],
      "stateMutability": "view",
      "type": "function"
    },
    {
      "inputs": [],
      "name": "collectMarketFee",
      "outputs": [],
      "stateMutability": "nonpayable",
      "type": "function"
    },
    {
      "inputs": [],
      "name": "collectOPF",
      "outputs": [],
      "stateMutability": "nonpayable",
      "type": "function"
    },
    {
      "inputs": [
        {
          "internalType": "address",
          "name": "",
          "type": "address"
        }
      ],
      "name": "communityFees",
      "outputs": [
        {
          "internalType": "uint256",
          "name": "",
          "type": "uint256"
        }
      ],
      "stateMutability": "view",
      "type": "function"
    },
    {
      "inputs": [],
      "name": "decimals",
      "outputs": [
        {
          "internalType": "uint8",
          "name": "",
          "type": "uint8"
        }
      ],
      "stateMutability": "view",
      "type": "function"
    },
    {
      "inputs": [
        {
          "internalType": "address",
          "name": "dst",
          "type": "address"
        },
        {
          "internalType": "uint256",
          "name": "amt",
          "type": "uint256"
        }
      ],
      "name": "decreaseApproval",
      "outputs": [
        {
          "internalType": "bool",
          "name": "",
          "type": "bool"
        }
      ],
      "stateMutability": "nonpayable",
      "type": "function"
    },
    {
      "inputs": [
        {
          "internalType": "uint256",
          "name": "poolAmountIn",
          "type": "uint256"
        },
        {
          "internalType": "uint256[]",
          "name": "minAmountsOut",
          "type": "uint256[]"
        }
      ],
      "name": "exitPool",
      "outputs": [],
      "stateMutability": "nonpayable",
      "type": "function"
    },
    {
      "inputs": [
        {
          "internalType": "address",
          "name": "tokenOut",
          "type": "address"
        },
        {
          "internalType": "uint256",
          "name": "tokenAmountOut",
          "type": "uint256"
        },
        {
          "internalType": "uint256",
          "name": "maxPoolAmountIn",
          "type": "uint256"
        }
      ],
      "name": "exitswapExternAmountOut",
      "outputs": [
        {
          "internalType": "uint256",
          "name": "poolAmountIn",
          "type": "uint256"
        }
      ],
      "stateMutability": "nonpayable",
      "type": "function"
    },
    {
      "inputs": [
        {
          "internalType": "address",
          "name": "tokenOut",
          "type": "address"
        },
        {
          "internalType": "uint256",
          "name": "poolAmountIn",
          "type": "uint256"
        },
        {
          "internalType": "uint256",
          "name": "minAmountOut",
          "type": "uint256"
        }
      ],
      "name": "exitswapPoolAmountIn",
      "outputs": [
        {
          "internalType": "uint256",
          "name": "tokenAmountOut",
          "type": "uint256"
        }
      ],
      "stateMutability": "nonpayable",
      "type": "function"
    },
    {
      "inputs": [
        {
          "internalType": "address",
          "name": "tokenIn",
          "type": "address"
        },
        {
          "internalType": "address",
          "name": "tokenOut",
          "type": "address"
        },
        {
          "internalType": "uint256",
          "name": "tokenAmountOut",
          "type": "uint256"
        }
      ],
      "name": "getAmountInExactOut",
      "outputs": [
        {
          "internalType": "uint256",
          "name": "tokenAmountIn",
          "type": "uint256"
        }
      ],
      "stateMutability": "view",
      "type": "function"
    },
    {
      "inputs": [
        {
          "internalType": "address",
          "name": "tokenIn",
          "type": "address"
        },
        {
          "internalType": "address",
          "name": "tokenOut",
          "type": "address"
        },
        {
          "internalType": "uint256",
          "name": "tokenAmountIn",
          "type": "uint256"
        }
      ],
      "name": "getAmountOutExactIn",
      "outputs": [
        {
          "internalType": "uint256",
          "name": "tokenAmountOut",
          "type": "uint256"
        }
      ],
      "stateMutability": "view",
      "type": "function"
    },
    {
      "inputs": [
        {
          "internalType": "address",
          "name": "token",
          "type": "address"
        }
      ],
      "name": "getBalance",
      "outputs": [
        {
          "internalType": "uint256",
          "name": "",
          "type": "uint256"
        }
      ],
      "stateMutability": "view",
      "type": "function"
    },
    {
      "inputs": [],
      "name": "getBaseTokenAddress",
      "outputs": [
        {
          "internalType": "address",
          "name": "",
          "type": "address"
        }
      ],
      "stateMutability": "view",
      "type": "function"
    },
    {
      "inputs": [],
      "name": "getController",
      "outputs": [
        {
          "internalType": "address",
          "name": "",
          "type": "address"
        }
      ],
      "stateMutability": "view",
      "type": "function"
    },
    {
      "inputs": [],
      "name": "getCurrentMarketFees",
      "outputs": [
        {
          "internalType": "address[]",
          "name": "",
          "type": "address[]"
        },
        {
          "internalType": "uint256[]",
          "name": "",
          "type": "uint256[]"
        }
      ],
      "stateMutability": "view",
      "type": "function"
    },
    {
      "inputs": [],
      "name": "getCurrentOPFFees",
      "outputs": [
        {
          "internalType": "address[]",
          "name": "",
          "type": "address[]"
        },
        {
          "internalType": "uint256[]",
          "name": "",
          "type": "uint256[]"
        }
      ],
      "stateMutability": "view",
      "type": "function"
    },
    {
      "inputs": [],
      "name": "getCurrentTokens",
      "outputs": [
        {
          "internalType": "address[]",
          "name": "tokens",
          "type": "address[]"
        }
      ],
      "stateMutability": "view",
      "type": "function"
    },
    {
      "inputs": [],
      "name": "getDataTokenAddress",
      "outputs": [
        {
          "internalType": "address",
          "name": "",
          "type": "address"
        }
      ],
      "stateMutability": "view",
      "type": "function"
    },
    {
      "inputs": [
        {
          "internalType": "address",
          "name": "token",
          "type": "address"
        }
      ],
      "name": "getDenormalizedWeight",
      "outputs": [
        {
          "internalType": "uint256",
          "name": "",
          "type": "uint256"
        }
      ],
      "stateMutability": "view",
      "type": "function"
    },
    {
      "inputs": [],
      "name": "getFinalTokens",
      "outputs": [
        {
          "internalType": "address[]",
          "name": "tokens",
          "type": "address[]"
        }
      ],
      "stateMutability": "view",
      "type": "function"
    },
    {
      "inputs": [],
      "name": "getMarketFee",
      "outputs": [
        {
          "internalType": "uint256",
          "name": "",
          "type": "uint256"
        }
      ],
      "stateMutability": "view",
      "type": "function"
    },
    {
      "inputs": [
        {
          "internalType": "address",
          "name": "token",
          "type": "address"
        }
      ],
      "name": "getNormalizedWeight",
      "outputs": [
        {
          "internalType": "uint256",
          "name": "",
          "type": "uint256"
        }
      ],
      "stateMutability": "view",
      "type": "function"
    },
    {
      "inputs": [],
      "name": "getNumTokens",
      "outputs": [
        {
          "internalType": "uint256",
          "name": "",
          "type": "uint256"
        }
      ],
      "stateMutability": "view",
      "type": "function"
    },
    {
      "inputs": [],
      "name": "getOPFFee",
      "outputs": [
        {
          "internalType": "uint256",
          "name": "",
          "type": "uint256"
        }
      ],
      "stateMutability": "view",
      "type": "function"
    },
    {
      "inputs": [
        {
          "internalType": "address",
          "name": "tokenIn",
          "type": "address"
        },
        {
          "internalType": "address",
          "name": "tokenOut",
          "type": "address"
        }
      ],
      "name": "getSpotPrice",
      "outputs": [
        {
          "internalType": "uint256",
          "name": "spotPrice",
          "type": "uint256"
        }
      ],
      "stateMutability": "view",
      "type": "function"
    },
    {
      "inputs": [],
      "name": "getSwapFee",
      "outputs": [
        {
          "internalType": "uint256",
          "name": "",
          "type": "uint256"
        }
      ],
      "stateMutability": "view",
      "type": "function"
    },
    {
      "inputs": [],
      "name": "getTotalDenormalizedWeight",
      "outputs": [
        {
          "internalType": "uint256",
          "name": "",
          "type": "uint256"
        }
      ],
      "stateMutability": "view",
      "type": "function"
    },
    {
      "inputs": [
        {
          "internalType": "address",
          "name": "dst",
          "type": "address"
        },
        {
          "internalType": "uint256",
          "name": "amt",
          "type": "uint256"
        }
      ],
      "name": "increaseApproval",
      "outputs": [
        {
          "internalType": "bool",
          "name": "",
          "type": "bool"
        }
      ],
      "stateMutability": "nonpayable",
      "type": "function"
    },
    {
      "inputs": [
        {
          "internalType": "address",
          "name": "controller",
          "type": "address"
        },
        {
          "internalType": "address",
          "name": "factory",
          "type": "address"
        },
        {
          "internalType": "uint256[]",
          "name": "swapFees",
          "type": "uint256[]"
        },
        {
          "internalType": "bool",
          "name": "publicSwap",
          "type": "bool"
        },
        {
          "internalType": "bool",
          "name": "finalized",
          "type": "bool"
        },
        {
          "internalType": "address[2]",
          "name": "tokens",
          "type": "address[2]"
        },
        {
          "internalType": "address[2]",
          "name": "feeCollectors",
          "type": "address[2]"
        }
      ],
      "name": "initialize",
      "outputs": [
        {
          "internalType": "bool",
          "name": "",
          "type": "bool"
        }
      ],
      "stateMutability": "nonpayable",
      "type": "function"
    },
    {
      "inputs": [
        {
          "internalType": "address",
          "name": "t",
          "type": "address"
        }
      ],
      "name": "isBound",
      "outputs": [
        {
          "internalType": "bool",
          "name": "",
          "type": "bool"
        }
      ],
      "stateMutability": "view",
      "type": "function"
    },
    {
      "inputs": [],
      "name": "isFinalized",
      "outputs": [
        {
          "internalType": "bool",
          "name": "",
          "type": "bool"
        }
      ],
      "stateMutability": "view",
      "type": "function"
    },
    {
      "inputs": [],
      "name": "isInitialized",
      "outputs": [
        {
          "internalType": "bool",
          "name": "",
          "type": "bool"
        }
      ],
      "stateMutability": "view",
      "type": "function"
    },
    {
      "inputs": [],
      "name": "isPublicSwap",
      "outputs": [
        {
          "internalType": "bool",
          "name": "",
          "type": "bool"
        }
      ],
      "stateMutability": "view",
      "type": "function"
    },
    {
      "inputs": [
        {
          "internalType": "uint256",
          "name": "poolAmountOut",
          "type": "uint256"
        },
        {
          "internalType": "uint256[]",
          "name": "maxAmountsIn",
          "type": "uint256[]"
        }
      ],
      "name": "joinPool",
      "outputs": [],
      "stateMutability": "nonpayable",
      "type": "function"
    },
    {
      "inputs": [
        {
          "internalType": "address",
          "name": "tokenIn",
          "type": "address"
        },
        {
          "internalType": "uint256",
          "name": "tokenAmountIn",
          "type": "uint256"
        },
        {
          "internalType": "uint256",
          "name": "minPoolAmountOut",
          "type": "uint256"
        }
      ],
      "name": "joinswapExternAmountIn",
      "outputs": [
        {
          "internalType": "uint256",
          "name": "poolAmountOut",
          "type": "uint256"
        }
      ],
      "stateMutability": "nonpayable",
      "type": "function"
    },
    {
      "inputs": [
        {
          "internalType": "address",
          "name": "tokenIn",
          "type": "address"
        },
        {
          "internalType": "uint256",
          "name": "poolAmountOut",
          "type": "uint256"
        },
        {
          "internalType": "uint256",
          "name": "maxAmountIn",
          "type": "uint256"
        }
      ],
      "name": "joinswapPoolAmountOut",
      "outputs": [
        {
          "internalType": "uint256",
          "name": "tokenAmountIn",
          "type": "uint256"
        }
      ],
      "stateMutability": "nonpayable",
      "type": "function"
    },
    {
      "inputs": [
        {
          "internalType": "address",
          "name": "",
          "type": "address"
        }
      ],
      "name": "marketFees",
      "outputs": [
        {
          "internalType": "uint256",
          "name": "",
          "type": "uint256"
        }
      ],
      "stateMutability": "view",
      "type": "function"
    },
    {
      "inputs": [],
      "name": "name",
      "outputs": [
        {
          "internalType": "string",
          "name": "",
          "type": "string"
        }
      ],
      "stateMutability": "view",
      "type": "function"
    },
    {
      "inputs": [
        {
          "internalType": "uint256",
          "name": "swapFee",
          "type": "uint256"
        }
      ],
      "name": "setSwapFee",
      "outputs": [],
      "stateMutability": "nonpayable",
      "type": "function"
    },
    {
      "inputs": [
        {
          "internalType": "address",
          "name": "dataTokenAddress",
          "type": "address"
        },
        {
          "internalType": "uint256",
          "name": "dataTokenAmount",
          "type": "uint256"
        },
        {
          "internalType": "uint256",
          "name": "dataTokenWeight",
          "type": "uint256"
        },
        {
          "internalType": "address",
          "name": "baseTokenAddress",
          "type": "address"
        },
        {
          "internalType": "uint256",
          "name": "baseTokenAmount",
          "type": "uint256"
        },
        {
          "internalType": "uint256",
          "name": "baseTokenWeight",
          "type": "uint256"
        }
      ],
      "name": "setup",
      "outputs": [],
      "stateMutability": "nonpayable",
      "type": "function"
    },
    {
      "inputs": [
        {
          "internalType": "address",
          "name": "tokenIn",
          "type": "address"
        },
        {
          "internalType": "uint256",
          "name": "tokenAmountIn",
          "type": "uint256"
        },
        {
          "internalType": "address",
          "name": "tokenOut",
          "type": "address"
        },
        {
          "internalType": "uint256",
          "name": "minAmountOut",
          "type": "uint256"
        },
        {
          "internalType": "uint256",
          "name": "maxPrice",
          "type": "uint256"
        }
      ],
      "name": "swapExactAmountIn",
      "outputs": [
        {
          "internalType": "uint256",
          "name": "tokenAmountOut",
          "type": "uint256"
        },
        {
          "internalType": "uint256",
          "name": "spotPriceAfter",
          "type": "uint256"
        }
      ],
      "stateMutability": "nonpayable",
      "type": "function"
    },
    {
      "inputs": [
        {
          "internalType": "address",
          "name": "tokenIn",
          "type": "address"
        },
        {
          "internalType": "uint256",
          "name": "maxAmountIn",
          "type": "uint256"
        },
        {
          "internalType": "address",
          "name": "tokenOut",
          "type": "address"
        },
        {
          "internalType": "uint256",
          "name": "tokenAmountOut",
          "type": "uint256"
        },
        {
          "internalType": "uint256",
          "name": "maxPrice",
          "type": "uint256"
        }
      ],
      "name": "swapExactAmountOut",
      "outputs": [
        {
          "internalType": "uint256",
          "name": "tokenAmountIn",
          "type": "uint256"
        },
        {
          "internalType": "uint256",
          "name": "spotPriceAfter",
          "type": "uint256"
        }
      ],
      "stateMutability": "nonpayable",
      "type": "function"
    },
    {
      "inputs": [],
      "name": "symbol",
      "outputs": [
        {
          "internalType": "string",
          "name": "",
          "type": "string"
        }
      ],
      "stateMutability": "view",
      "type": "function"
    },
    {
      "inputs": [],
      "name": "totalSupply",
      "outputs": [
        {
          "internalType": "uint256",
          "name": "",
          "type": "uint256"
        }
      ],
      "stateMutability": "view",
      "type": "function"
    },
    {
      "inputs": [
        {
          "internalType": "address",
          "name": "dst",
          "type": "address"
        },
        {
          "internalType": "uint256",
          "name": "amt",
          "type": "uint256"
        }
      ],
      "name": "transfer",
      "outputs": [
        {
          "internalType": "bool",
          "name": "",
          "type": "bool"
        }
      ],
      "stateMutability": "nonpayable",
      "type": "function"
    },
    {
      "inputs": [
        {
          "internalType": "address",
          "name": "src",
          "type": "address"
        },
        {
          "internalType": "address",
          "name": "dst",
          "type": "address"
        },
        {
          "internalType": "uint256",
          "name": "amt",
          "type": "uint256"
        }
      ],
      "name": "transferFrom",
      "outputs": [
        {
          "internalType": "bool",
          "name": "",
          "type": "bool"
        }
      ],
      "stateMutability": "nonpayable",
      "type": "function"
    },
    {
      "inputs": [
        {
          "internalType": "address",
          "name": "_newCollector",
          "type": "address"
        }
      ],
      "name": "updateMarketFeeCollector",
      "outputs": [],
      "stateMutability": "nonpayable",
      "type": "function"
    }
  ],
  "bytecode": "0x60c0604052601360808190527f42616c616e63657220506f6f6c20546f6b656e0000000000000000000000000060a09081526200004091600a91906200008f565b506040805180820190915260038082526210941560ea1b60209092019182526200006d91600b916200008f565b50600c805460ff191660121790553480156200008857600080fd5b5062000172565b8280546200009d9062000135565b90600052602060002090601f016020900481019282620000c157600085556200010c565b82601f10620000dc57805160ff19168380011785556200010c565b828001600101855582156200010c579182015b828111156200010c578251825591602001919060010190620000ef565b506200011a9291506200011e565b5090565b5b808211156200011a57600081556001016200011f565b600181811c908216806200014a57607f821691505b602082108114156200016c57634e487b7160e01b600052602260045260246000fd5b50919050565b615e5d80620001826000396000f3fe608060405234801561001057600080fd5b50600436106104285760003560e01c80638201aa3f1161022b578063c070a6d811610130578063dd62ed3e116100b8578063f1b8a9b711610087578063f1b8a9b7146108b1578063f68045a5146108c4578063f8b2cb4f146108cc578063fde924f7146108df578063ff9b1850146108f157600080fd5b8063dd62ed3e1461085d578063e4a28a52146104b0578063ec09302114610896578063f0f13f0b1461089e57600080fd5b8063c8ff1833116100ff578063c8ff18331461082a578063cc77828d14610832578063cd2ed8fb1461083a578063d4cadf6814610842578063d73dd6231461084a57600080fd5b8063c070a6d8146107f9578063c36596a6146104f0578063c44a42831461080c578063c6580d121461082257600080fd5b8063a562ddf0116101b3578063b7b800a411610182578063b7b800a4146107c4578063ba019dab146107cc578063bc063e1a146107d4578063bc694ea2146107dc578063be3bbd2e146107e457600080fd5b8063a562ddf01461078b578063a9059cbb1461079e578063b02f0b73146107b1578063b0e0d136146107c457600080fd5b80639381cd2b116101fa5780639381cd2b1461074d578063948d8ce61461075557806395d89b4114610768578063992e2a9214610770578063a3b3a16d1461077857600080fd5b80638201aa3f14610718578063867378c51461072b5780638d4e408314610733578063936c34771461074557600080fd5b8063380376a6116103315780635e123add116102b9578063703305181161028857806370330518146106a457806370a08231146106b757806376c7a3c7146106e05780637c5e9ea4146106e857806380ca73081461071057600080fd5b80635e123add1461066e57806366188463146106765780636d06dfa014610689578063700dd7e81461069c57600080fd5b806346ab38f11161030057806346ab38f11461061b57806349e9350f1461062e5780634df947d0146106375780634f69c0d4146106485780635db342771461065b57600080fd5b8063380376a6146105d0578063392e53cd146105e35780633950b3fd146105f5578063430ed5d01461060857600080fd5b8063218b5382116103b4578063300621921161038357806330062192146105515780633018205f14610571578063313ce5671461058857806331e2761b1461059d57806334e19907146105bd57600080fd5b8063218b5382146104f057806323b872dd146104ff5780632ea07d8a146105125780632f37b6241461052557600080fd5b806309a3bbe4116103fb57806309a3bbe4146104b057806309ef3f5b146104b857806315e84af9146104cd57806318160ddd146104e0578063189d00ca146104e857600080fd5b806302c967481461042d57806304ad79541461045357806306fdde0314610478578063095ea7b31461048d575b600080fd5b61044061043b36600461569b565b610904565b6040519081526020015b60405180910390f35b6003546001600160a01b03165b6040516001600160a01b03909116815260200161044a565b610480610d99565b60405161044a91906156fa565b6104a061049b36600461572d565b610e2b565b604051901515815260200161044a565b610440610e86565b6104cb6104c6366004615757565b610e9c565b005b6104406104db3660046157af565b6110d8565b600954610440565b6104406111bc565b610440670de0b6b3a764000081565b6104a061050d3660046157e2565b6111d3565b6104406105203660046157e2565b611328565b6104a061053336600461581e565b6001600160a01b031660009081526010602052604090205460ff1690565b61044061055f36600461581e565b60056020526000908152604090205481565b600c546201000090046001600160a01b0316610460565b600c5460405160ff909116815260200161044a565b6104406105ab36600461581e565b60066020526000908152604090205481565b6104cb6105cb366004615839565b6113e3565b6104406105de3660046157e2565b611569565b601254600160a01b900460ff166104a0565b61044061060336600461572d565b61161a565b61044061061636600461572d565b611682565b61044061062936600461569b565b6116e2565b61044060005481565b6004546001600160a01b0316610460565b6104cb610656366004615897565b611b1c565b61044061066936600461569b565b611d43565b600054610440565b6104a061068436600461572d565b612138565b61044061069736600461569b565b61220e565b61044061261e565b6104cb6106b236600461581e565b612698565b6104406106c536600461581e565b6001600160a01b031660009081526007602052604090205490565b610440612795565b6106fb6106f63660046158e3565b6127aa565b6040805192835260208301919091520161044a565b6104cb612afb565b6106fb6107263660046158e3565b612c8d565b610440612fc2565b600e54600160a01b900460ff166104a0565b610440612fd9565b61044061300b565b61044061076336600461581e565b61301e565b6104806130a4565b6104406130b3565b61044061078636600461572d565b6130d1565b600d54610460906001600160a01b031681565b6104a06107ac36600461572d565b613131565b6104cb6107bf366004615897565b613147565b610440600281565b610440600181565b6104406133a3565b6104406133b6565b6107ec6133d5565b60405161044a9190615975565b6104a06108073660046159a7565b613488565b6108146136f8565b60405161044a929190615a54565b610440600081565b610814613868565b6107ec6139cd565b600f54610440565b600154610440565b6104a061085836600461572d565b6139f8565b61044061086b3660046157af565b6001600160a01b03918216600090815260086020908152604080832093909416825291909152205490565b610440613a6b565b600e54610460906001600160a01b031681565b6104406108bf36600461581e565b613a7e565b6104cb613b0b565b6104406108da36600461581e565b613c79565b600c54600160b01b900460ff166104a0565b6104406108ff36600461572d565b613cfb565b600c54600090610100900460ff16156109385760405162461bcd60e51b815260040161092f90615aab565b60405180910390fd5b600c805461ff001916610100179055600e54600160a01b900460ff166109705760405162461bcd60e51b815260040161092f90615ad0565b6001600160a01b03841660009081526010602052604090205460ff166109a85760405162461bcd60e51b815260040161092f90615afb565b6001600160a01b03841660009081526010602052604090206003908101546109ec916109dc90670de0b6b3a7640000615b4e565b6109e7906001615b62565b613d5b565b831115610a0b5760405162461bcd60e51b815260040161092f90615b7a565b6001600160a01b038416600090815260106020526040902060038101546002820154600954601154610a409392919088613e36565b915081610a5f5760405162461bcd60e51b815260040161092f90615ba5565b82821115610a7f5760405162461bcd60e51b815260040161092f90615bce565b610a8d816003015485613efa565b60038201556000610a9e8382613d5b565b604080518781524260208201529192506001600160a01b038816913391600080516020615d88833981519152910160405180910390a3604051838152600080516020615dc88339815191529060200160405180910390a1610aff3384613f57565b610b11610b0c8483613efa565b613f61565b600254610b27906001600160a01b031682613f6d565b610b32863387613f77565b6003546000906001600160a01b0388811691161415610b5d57506004546001600160a01b0316610b6b565b506003546001600160a01b03165b60125460035460405163efd4810360e01b81526001600160a01b039283169263efd4810392610ba39291169085908990600401615bf4565b602060405180830381865afa158015610bc0573d6000803e3d6000fd5b505050506040513d601f19601f82011682018060405250810190610be49190615c18565b151560011415610d8457600380546001600160a01b03166000908152601060205260408120918201546002830154600954601154610c25939291908a613f90565b9050610c35826003015482613efa565b6003830155610c45866000613d5b565b600c54604080518481524260208201529296506001600160a01b0386811693620100009093041691600080516020615d88833981519152910160405180910390a3600c54610ca2906201000090046001600160a01b031687613f57565b610caf610b0c8786613efa565b600254610cc5906001600160a01b031685613f6d565b600c54610ce39084906201000090046001600160a01b031683613f77565b6012546003546040516307b01ab360e41b81526001600160a01b03918216600482015285821660248201526044810184905260648101899052911690637b01ab3090608401600060405180830381600087803b158015610d4257600080fd5b505af1158015610d56573d6000803e3d6000fd5b50505050600080516020615da883398151915286604051610d7991815260200190565b60405180910390a150505b505050600c805461ff00191690559392505050565b6060600a8054610da890615c35565b80601f0160208091040260200160405190810160405280929190818152602001828054610dd490615c35565b8015610e215780601f10610df657610100808354040283529160200191610e21565b820191906000526020600020905b815481529060010190602001808311610e0457829003601f168201915b5050505050905090565b3360008181526008602090815260408083206001600160a01b03871680855292528083208590555191929091600080516020615e0883398151915290610e749086815260200190565b60405180910390a35060015b92915050565b610e99670de0b6b3a76400006032615c70565b81565b600c54610100900460ff1615610ec45760405162461bcd60e51b815260040161092f90615aab565b600c805461010061ff001990911617908190556201000090046001600160a01b03163314610f2d5760405162461bcd60e51b815260206004820152601660248201527522a9292fa4a72b20a624a22fa1a7a72a2927a62622a960511b604482015260640161092f565b6003546001600160a01b03878116911614610f8a5760405162461bcd60e51b815260206004820152601d60248201527f4552525f494e56414c49445f44415441544f4b454e5f41444452455353000000604482015260640161092f565b6004546001600160a01b03848116911614610fe75760405162461bcd60e51b815260206004820152601d60248201527f4552525f494e56414c49445f42415345544f4b454e5f41444452455353000000604482015260640161092f565b610ff286868661405a565b604080518681524260208201526001600160a01b038816913391600080516020615de8833981519152910160405180910390a361103083838361405a565b604080518381524260208201526001600160a01b038516913391600080516020615de8833981519152910160405180910390a361106b614244565b6040805183815260208101839052908101869052606081018590526001600160a01b03808816919085169033907fbece8b4dcdbe446dd65a9288154698e067e3e91de17a1a408c2f531b9f845d739060800160405180910390a45050600c805461ff001916905550505050565b600c54600090610100900460ff16156111035760405162461bcd60e51b815260040161092f90615aab565b6001600160a01b03831660009081526010602052604090205460ff1661113b5760405162461bcd60e51b815260040161092f90615afb565b6001600160a01b03821660009081526010602052604090205460ff166111735760405162461bcd60e51b815260040161092f90615afb565b6001600160a01b038084166000908152601060205260408082209285168252902060038083015460028085015492840154908401546111b39391906142a3565b95945050505050565b610e996402540be400670de0b6b3a7640000615b4e565b6000336001600160a01b038516148061120f57506001600160a01b03841660009081526008602090815260408083203384529091529020548211155b6112535760405162461bcd60e51b815260206004820152601560248201527422a9292fa12a27a5a2a72fa120a22fa1a0a62622a960591b604482015260640161092f565b61125e84848461431b565b336001600160a01b0385161480159061129c57506001600160a01b038416600090815260086020908152604080832033845290915290205460001914155b1561131d576001600160a01b03841660009081526008602090815260408083203384529091529020546112cf9083613efa565b6001600160a01b038581166000908152600860209081526040808320338085529083529281902085905551938452918616929091600080516020615e08833981519152910160405180910390a35b5060015b9392505050565b6001600160a01b03831660009081526010602052604081205460ff166113605760405162461bcd60e51b815260040161092f90615afb565b6001600160a01b03831660009081526010602052604090205460ff166113985760405162461bcd60e51b815260040161092f90615afb565b6001600160a01b038085166000908152601060205260408082209286168252902060038083015460028085015492840154908401546113d99391908861442d565b9695505050505050565b600e54600160a01b900460ff16156114305760405162461bcd60e51b815260206004820152601060248201526f11549497d254d7d1925390531256915160821b604482015260640161092f565b600c546201000090046001600160a01b031633146114855760405162461bcd60e51b815260206004820152601260248201527122a9292fa727aa2fa1a7a72a2927a62622a960711b604482015260640161092f565b61149a620f4240670de0b6b3a7640000615b4e565b8110156114d75760405162461bcd60e51b815260206004820152600b60248201526a4552525f4d494e5f46454560a81b604482015260640161092f565b6114ea600a670de0b6b3a7640000615b4e565b8111156115275760405162461bcd60e51b815260206004820152600b60248201526a4552525f4d41585f46454560a81b604482015260640161092f565b600181905560408051338152602081018390527fbca0d601c32979eebac4e8cd06375b6e45d39af80fc06a33f366425b450dfb6991015b60405180910390a150565b6001600160a01b03831660009081526010602052604081205460ff166115a15760405162461bcd60e51b815260040161092f90615afb565b6001600160a01b03831660009081526010602052604090205460ff166115d95760405162461bcd60e51b815260040161092f90615afb565b6001600160a01b038085166000908152601060205260408082209286168252902060038083015460028085015492840154908401546113d9939190886144d5565b6001600160a01b03821660009081526010602090815260408083208151608081018352815460ff16151581526001820154938101939093526002810154918301829052600301546060830181905260095460115461167a9391908761457b565b949350505050565b6001600160a01b03821660009081526010602090815260408083208151608081018352815460ff16151581526001820154938101939093526002810154918301829052600301546060830181905260095460115461167a93919087613f90565b600c54600090610100900460ff161561170d5760405162461bcd60e51b815260040161092f90615aab565b600c805461ff001916610100179055600e54600160a01b900460ff166117455760405162461bcd60e51b815260040161092f90615ad0565b6001600160a01b03841660009081526010602052604090205460ff1661177d5760405162461bcd60e51b815260040161092f90615afb565b6001600160a01b0384166000908152601060205260409020600381015460028201546009546011546117b29392919088613f90565b9150828210156117d45760405162461bcd60e51b815260040161092f90615c8f565b6001600160a01b0385166000908152601060205260409020600390810154611808916109dc90670de0b6b3a7640000615b4e565b8211156118275760405162461bcd60e51b815260040161092f90615b7a565b611835816003015483613efa565b600382015560006118468582613d5b565b604080518581524260208201529192506001600160a01b038816913391600080516020615d88833981519152910160405180910390a3604051858152600080516020615dc88339815191529060200160405180910390a16118a73386613f57565b6118b4610b0c8683613efa565b6002546118ca906001600160a01b031682613f6d565b6118d5863385613f77565b6003546000906001600160a01b038881169116141561190057506004546001600160a01b031661190e565b506003546001600160a01b03165b60125460035460405163efd4810360e01b81526001600160a01b039283169263efd48103926119469291169085908b90600401615bf4565b602060405180830381865afa158015611963573d6000803e3d6000fd5b505050506040513d601f19601f820116820180604052508101906119879190615c18565b151560011415610d8457600380546001600160a01b031660009081526010602052604081209182015460028301546009546011546119c8939291908c613f90565b90506119d8826003015482613efa565b60038301556119e8886000613d5b565b600c54604080518481524260208201529296506001600160a01b0386811693620100009093041691600080516020615d88833981519152910160405180910390a3600c54611a45906201000090046001600160a01b031689613f57565b611a52610b0c8986613efa565b600254611a68906001600160a01b031685613f6d565b600c54611a869084906201000090046001600160a01b031683613f77565b6012546003546040516307b01ab360e41b81526001600160a01b039182166004820152858216602482015260448101849052606481018b9052911690637b01ab3090608401600060405180830381600087803b158015611ae557600080fd5b505af1158015611af9573d6000803e3d6000fd5b50505050600080516020615da883398151915288604051610d7991815260200190565b600c54610100900460ff1615611b445760405162461bcd60e51b815260040161092f90615aab565b600c805461ff001916610100179055600e54600160a01b900460ff16611b7c5760405162461bcd60e51b815260040161092f90615ad0565b6000611b8760095490565b90506000611b958583614610565b905080611bb45760405162461bcd60e51b815260040161092f90615ba5565b60005b600f54811015611cfc576000600f8281548110611bd657611bd6615cb6565b60009182526020808320909101546001600160a01b03168083526010909152604082206003015490925090611c0b8583613d5b565b905080611c2a5760405162461bcd60e51b815260040161092f90615ba5565b878785818110611c3c57611c3c615cb6565b90506020020135811115611c625760405162461bcd60e51b815260040161092f90615bce565b6001600160a01b038316600090815260106020526040902060030154611c889082614728565b6001600160a01b038416600081815260106020526040908190206003019290925590513390600080516020615de883398151915290611cd39085904290918252602082015260400190565b60405180910390a3611ce683338361477a565b5050508080611cf490615ccc565b915050611bb7565b50611d068561478f565b611d103386613f6d565b604051858152600080516020615dc88339815191529060200160405180910390a15050600c805461ff0019169055505050565b600c54600090610100900460ff1615611d6e5760405162461bcd60e51b815260040161092f90615aab565b600c805461ff001916610100179055600e54600160a01b900460ff16611da65760405162461bcd60e51b815260040161092f90615ad0565b6001600160a01b03841660009081526010602052604090205460ff16611dde5760405162461bcd60e51b815260040161092f90615afb565b6001600160a01b038416600090815260106020526040902060030154611e11906109e76002670de0b6b3a7640000615b4e565b831115611e305760405162461bcd60e51b815260040161092f90615ce7565b6001600160a01b038416600090815260106020526040902060038101546002820154600954601154611e65939291908861457b565b915082821015611e875760405162461bcd60e51b815260040161092f90615c8f565b611e95816003015485614728565b6003820155604080518581524260208201526001600160a01b038716913391600080516020615de8833981519152910160405180910390a3604051828152600080516020615dc88339815191529060200160405180910390a1611ef78261478f565b611f013383613f6d565b611f0c85338661477a565b600380546001600160a01b031660009081526010602052604081209182015460028301546009546011548493611f46939092909189614798565b6003549091506001600160a01b0389811691161415611f72576004546001600160a01b03169150611f81565b6003546001600160a01b031691505b6012546003546040516326b1f01f60e01b81526001600160a01b03928316926326b1f01f92611fb99291169086908690600401615bf4565b602060405180830381865afa158015611fd6573d6000803e3d6000fd5b505050506040513d601f19601f82011682018060405250810190611ffa9190615c18565b151560011415612122576012546003546040516399039fcf60e01b81526001600160a01b03928316926399039fcf9261203c9291169086908690600401615bf4565b600060405180830381600087803b15801561205657600080fd5b505af115801561206a573d6000803e3d6000fd5b5050505061207c836003015482614728565b6003840155600c54604080518381524260208201526001600160a01b03858116936201000090041691600080516020615de8833981519152910160405180910390a3604051858152600080516020615da88339815191529060200160405180910390a16120e88561478f565b600c54612104906201000090046001600160a01b031686613f6d565b600c546121229083906201000090046001600160a01b03168361477a565b50505050600c805461ff00191690559392505050565b3360009081526008602090815260408083206001600160a01b03861684529091528120548083111561218d573360009081526008602090815260408083206001600160a01b03881684529091528120556121bc565b6121978184613efa565b3360009081526008602090815260408083206001600160a01b03891684529091529020555b3360008181526008602090815260408083206001600160a01b03891680855290835292819020549051908152919291600080516020615e08833981519152910160405180910390a35060019392505050565b600c54600090610100900460ff16156122395760405162461bcd60e51b815260040161092f90615aab565b600c805461ff001916610100179055600e54600160a01b900460ff166122715760405162461bcd60e51b815260040161092f90615ad0565b6001600160a01b03841660009081526010602052604090205460ff166122a95760405162461bcd60e51b815260040161092f90615afb565b6001600160a01b0384166000908152601060205260409020600381015460028201546009546011546122de9392919088614798565b9150816122fd5760405162461bcd60e51b815260040161092f90615ba5565b8282111561231d5760405162461bcd60e51b815260040161092f90615bce565b6001600160a01b038516600090815260106020526040902060030154612350906109e76002670de0b6b3a7640000615b4e565b82111561236f5760405162461bcd60e51b815260040161092f90615ce7565b61237d816003015483614728565b6003820155604080518381524260208201526001600160a01b038716913391600080516020615de8833981519152910160405180910390a3604051848152600080516020615dc88339815191529060200160405180910390a16123df8461478f565b6123e93385613f6d565b6123f485338461477a565b600380546001600160a01b0316600090815260106020526040812091820154600283015460095460115461242b939291908a614798565b6003549091506000906001600160a01b038981169116141561245957506004546001600160a01b0316612467565b506003546001600160a01b03165b6012546003546040516326b1f01f60e01b81526001600160a01b03928316926326b1f01f9261249f9291169085908790600401615bf4565b602060405180830381865afa1580156124bc573d6000803e3d6000fd5b505050506040513d601f19601f820116820180604052508101906124e09190615c18565b151560011415612122576012546003546040516399039fcf60e01b81526001600160a01b03928316926399039fcf926125229291169085908790600401615bf4565b600060405180830381600087803b15801561253c57600080fd5b505af1158015612550573d6000803e3d6000fd5b50505050612562836003015483614728565b6003840155600c54604080518481524260208201526001600160a01b03848116936201000090041691600080516020615de8833981519152910160405180910390a36125ad8761478f565b600c546125c9906201000090046001600160a01b031688613f6d565b600c546125e79082906201000090046001600160a01b03168461477a565b604051878152600080516020615da88339815191529060200160405180910390a150505050600c805461ff00191690559392505050565b60025460048054604051637c0aa57760e11b81526001600160a01b0391821692810192909252600092169063f8154aee90602401602060405180830381865afa15801561266f573d6000803e3d6000fd5b505050506040513d601f19601f820116820180604052508101906126939190615d11565b905090565b600d546001600160a01b031633146126ea5760405162461bcd60e51b815260206004820152601560248201527427a7262c9026a0a925a2aa1021a7a62622a1aa27a960591b604482015260640161092f565b6001600160a01b0381166127405760405162461bcd60e51b815260206004820152601d60248201527f496e76616c6964205f6e6577436f6c6c6563746f722061646472657373000000604482015260640161092f565b600d80546001600160a01b0319166001600160a01b0383169081179091556040805133815260208101929092527f82aaf1a11850bc9b5eb1b7db8b4ad08629911d970a4d7539875938c4017e59b8910161155e565b610e99620f4240670de0b6b3a7640000615b4e565b600c546000908190610100900460ff16156127d75760405162461bcd60e51b815260040161092f90615aab565b600c805461ff001916610100179055600e54600160a01b900460ff1661280f5760405162461bcd60e51b815260040161092f90615ad0565b6001600160a01b03871660009081526010602052604090205460ff166128475760405162461bcd60e51b815260040161092f90615afb565b6001600160a01b03851660009081526010602052604090205460ff1661287f5760405162461bcd60e51b815260040161092f90615afb565b6001600160a01b03808816600090815260106020526040808220928816825290206003808201546128bc916109dc90670de0b6b3a7640000615b4e565b8611156128db5760405162461bcd60e51b815260040161092f90615b7a565b60006128f983600301548460020154846003015485600201546142a3565b9050858111156129415760405162461bcd60e51b81526020600482015260136024820152724552525f4241445f4c494d49545f505249434560681b604482015260640161092f565b600080604051806080016040528086600301548152602001866002015481526020018560030154815260200185600201548152509050612982818a8e614832565b90975091508a8711156129a75760405162461bcd60e51b815260040161092f90615bce565b6129b5856003015483614728565b85600301819055506129cb84600301548a613efa565b6003808601829055860154600280880154908701546129ea93906142a3565b955082861015612a0c5760405162461bcd60e51b815260040161092f90615ba5565b87861115612a4e5760405162461bcd60e51b815260206004820152600f60248201526e4552525f4c494d49545f505249434560881b604482015260640161092f565b612a58878a614610565b831115612a775760405162461bcd60e51b815260040161092f90615ba5565b60408051888152602081018b9052428183015290516001600160a01b038c811692908f169133917f50ef2fc267012b5c84b56835f16ffd5331ac5a151a3760d74908721ba78b0efe919081900360600190a4612ad48c338961477a565b612adf8a338b613f77565b5050505050600c805461ff001916905590969095509350505050565b6000612b056133d5565b905060005b8151811015612c8957600060066000848481518110612b2b57612b2b615cb6565b60200260200101516001600160a01b03166001600160a01b03168152602001908152602001600020549050600060066000858581518110612b6e57612b6e615cb6565b60200260200101516001600160a01b03166001600160a01b0316815260200190815260200160002081905550612be6600d60009054906101000a90046001600160a01b031682858581518110612bc657612bc6615cb6565b60200260200101516001600160a01b0316614a509092919063ffffffff16565b7f6b98b886762529d8027f347356f9ec147e1735888054ace831c0e3de7983ab3d33600d60009054906101000a90046001600160a01b0316858581518110612c3057612c30615cb6565b602002602001015184604051612c6e94939291906001600160a01b039485168152928416602084015292166040820152606081019190915260800190565b60405180910390a15080612c8181615ccc565b915050612b0a565b5050565b600c546000908190610100900460ff1615612cba5760405162461bcd60e51b815260040161092f90615aab565b600c805461ff001916610100179055600e54600160a01b900460ff16612cf25760405162461bcd60e51b815260040161092f90615ad0565b6001600160a01b03871660009081526010602052604090205460ff16612d2a5760405162461bcd60e51b815260040161092f90615afb565b6001600160a01b03851660009081526010602052604090205460ff16612d625760405162461bcd60e51b815260040161092f90615afb565b6001600160a01b03808816600090815260106020526040808220928816825290206003820154612d9f906109e76002670de0b6b3a7640000615b4e565b881115612dbe5760405162461bcd60e51b815260040161092f90615ce7565b6000612ddc83600301548460020154846003015485600201546142a3565b905085811115612e245760405162461bcd60e51b81526020600482015260136024820152724552525f4241445f4c494d49545f505249434560681b604482015260640161092f565b600080604051806080016040528086600301548152602001866002015481526020018560030154815260200185600201548152509050612e65818c8e614ab3565b909750915088871015612e8a5760405162461bcd60e51b815260040161092f90615c8f565b612e98856003015483614728565b8560030181905550612eae846003015488613efa565b600380860182905586015460028088015490870154612ecd93906142a3565b955082861015612eef5760405162461bcd60e51b815260040161092f90615ba5565b87861115612f315760405162461bcd60e51b815260206004820152600f60248201526e4552525f4c494d49545f505249434560881b604482015260640161092f565b612f3b8b88614610565b831115612f5a5760405162461bcd60e51b815260040161092f90615ba5565b604080518c815260208101899052428183015290516001600160a01b038c811692908f169133917f50ef2fc267012b5c84b56835f16ffd5331ac5a151a3760d74908721ba78b0efe919081900360600190a4612fb78c338d61477a565b612adf8a3389613f77565b610e9964e8d4a51000670de0b6b3a7640000615b4e565b600c54600090610100900460ff16156130045760405162461bcd60e51b815260040161092f90615aab565b5060115490565b610e99670de0b6b3a76400006064615c70565b600c54600090610100900460ff16156130495760405162461bcd60e51b815260040161092f90615aab565b6001600160a01b03821660009081526010602052604090205460ff166130815760405162461bcd60e51b815260040161092f90615afb565b506001600160a01b0381166000908152601060205260409020600201545b919050565b6060600b8054610da890615c35565b6130c66003670de0b6b3a7640000615b4e565b610e99906001615b62565b6001600160a01b03821660009081526010602090815260408083208151608081018352815460ff16151581526001820154938101939093526002810154918301829052600301546060830181905260095460115461167a93919087613e36565b600061313e33848461431b565b50600192915050565b600c54610100900460ff161561316f5760405162461bcd60e51b815260040161092f90615aab565b600c805461ff001916610100179055600e54600160a01b900460ff166131a75760405162461bcd60e51b815260040161092f90615ad0565b60006131b260095490565b905060006131c1856000613d5b565b905060006131cf8683613efa565b905060006131dd8285614610565b9050806131fc5760405162461bcd60e51b815260040161092f90615ba5565b6132063388613f57565b60025461321c906001600160a01b031684613f6d565b61322582613f61565b60005b600f5481101561336d576000600f828154811061324757613247615cb6565b60009182526020808320909101546001600160a01b0316808352601090915260408220600301549092509061327c8583613d5b565b90508061329b5760405162461bcd60e51b815260040161092f90615ba5565b8989858181106132ad576132ad615cb6565b905060200201358110156132d35760405162461bcd60e51b815260040161092f90615c8f565b6001600160a01b0383166000908152601060205260409020600301546132f99082613efa565b6001600160a01b038416600081815260106020526040908190206003019290925590513390600080516020615d88833981519152906133449085904290918252602082015260400190565b60405180910390a3613357833383613f77565b505050808061336590615ccc565b915050613228565b50604051878152600080516020615dc88339815191529060200160405180910390a15050600c805461ff00191690555050505050565b610e99600a670de0b6b3a7640000615b4e565b60016133cb670de0b6b3a76400006002615c70565b610e999190615d2a565b600c54606090610100900460ff16156134005760405162461bcd60e51b815260040161092f90615aab565b600e54600160a01b900460ff166134295760405162461bcd60e51b815260040161092f90615ad0565b600f805480602002602001604051908101604052809291908181526020018280548015610e2157602002820191906000526020600020905b81546001600160a01b03168152600190910190602001808311613461575050505050905090565b601254600090600160a01b900460ff16156134e55760405162461bcd60e51b815260206004820152601760248201527f4552525f414c52454144595f494e495449414c495a4544000000000000000000604482015260640161092f565b6001600160a01b03891661353b5760405162461bcd60e51b815260206004820152601e60248201527f4552525f494e56414c49445f434f4e54524f4c4c45525f414444524553530000604482015260640161092f565b6001600160a01b0388166135915760405162461bcd60e51b815260206004820152601b60248201527f4552525f494e56414c49445f464143544f52595f414444524553530000000000604482015260640161092f565b6135a6620f4240670de0b6b3a7640000615b4e565b878760008181106135b9576135b9615cb6565b9050602002013510156135fc5760405162461bcd60e51b815260206004820152600b60248201526a4552525f4d494e5f46454560a81b604482015260640161092f565b61360f600a670de0b6b3a7640000615b4e565b8787600081811061362257613622615cb6565b9050602002013511156136655760405162461bcd60e51b815260206004820152600b60248201526a4552525f4d41585f46454560a81b604482015260640161092f565b6136eb8989898980806020026020016040519081016040528093929190818152602001838360200280828437600092019190915250506040805180820182528c93508b9250908a9060029083908390808284376000920191909152505060408051808201825291508a906002908390839080828437600092019190915250614cb8915050565b9998505050505050505050565b60608060006137056133d5565b90506000815167ffffffffffffffff81111561372357613723615d41565b60405190808252806020026020018201604052801561374c578160200160208202803683370190505b5090506000825167ffffffffffffffff81111561376b5761376b615d41565b604051908082528060200260200182016040528015613794578160200160208202803683370190505b50905060005b835181101561385d578381815181106137b5576137b5615cb6565b60200260200101518382815181106137cf576137cf615cb6565b60200260200101906001600160a01b031690816001600160a01b0316815250506006600085838151811061380557613805615cb6565b60200260200101516001600160a01b03166001600160a01b031681526020019081526020016000205482828151811061384057613840615cb6565b60209081029190910101528061385581615ccc565b91505061379a565b509094909350915050565b60608060006138756133d5565b90506000815167ffffffffffffffff81111561389357613893615d41565b6040519080825280602002602001820160405280156138bc578160200160208202803683370190505b5090506000825167ffffffffffffffff8111156138db576138db615d41565b604051908082528060200260200182016040528015613904578160200160208202803683370190505b50905060005b835181101561385d5783818151811061392557613925615cb6565b602002602001015183828151811061393f5761393f615cb6565b60200260200101906001600160a01b031690816001600160a01b0316815250506005600085838151811061397557613975615cb6565b60200260200101516001600160a01b03166001600160a01b03168152602001908152602001600020548282815181106139b0576139b0615cb6565b6020908102919091010152806139c581615ccc565b91505061390a565b600c54606090610100900460ff16156134295760405162461bcd60e51b815260040161092f90615aab565b3360009081526008602090815260408083206001600160a01b0386168452909152812054613a269083614728565b3360008181526008602090815260408083206001600160a01b03891680855290835292819020859055519384529092600080516020615e088339815191529101610e74565b610e996002670de0b6b3a7640000615b4e565b600c54600090610100900460ff1615613aa95760405162461bcd60e51b815260040161092f90615aab565b6001600160a01b03821660009081526010602052604090205460ff16613ae15760405162461bcd60e51b815260040161092f90615afb565b6001600160a01b038216600090815260106020526040902060020154601154611321908290614610565b6000613b156133d5565b905060005b8151811015612c8957600060056000848481518110613b3b57613b3b615cb6565b60200260200101516001600160a01b03166001600160a01b03168152602001908152602001600020549050600060056000858581518110613b7e57613b7e615cb6565b60200260200101516001600160a01b03166001600160a01b0316815260200190815260200160002081905550613bd6600e60009054906101000a90046001600160a01b031682858581518110612bc657612bc6615cb6565b7fe8e83bbe0f2a413d8e79dcb9ef4143cd967143e9d6b93c91d002c7eefdc507cc33600e60009054906101000a90046001600160a01b0316858581518110613c2057613c20615cb6565b602002602001015184604051613c5e94939291906001600160a01b039485168152928416602084015292166040820152606081019190915260800190565b60405180910390a15080613c7181615ccc565b915050613b1a565b600c54600090610100900460ff1615613ca45760405162461bcd60e51b815260040161092f90615aab565b6001600160a01b03821660009081526010602052604090205460ff16613cdc5760405162461bcd60e51b815260040161092f90615afb565b506001600160a01b031660009081526010602052604090206003015490565b6001600160a01b03821660009081526010602090815260408083208151608081018352815460ff16151581526001820154938101939093526002810154918301829052600301546060830181905260095460115461167a93919087614798565b600080613d688385615c70565b9050831580613d7f575082613d7d8583615b4e565b145b613dbe5760405162461bcd60e51b815260206004820152601060248201526f4552525f4d554c5f4f564552464c4f5760801b604482015260640161092f565b6000613dd36002670de0b6b3a7640000615b4e565b613ddd9083615b62565b905081811015613e225760405162461bcd60e51b815260206004820152601060248201526f4552525f4d554c5f4f564552464c4f5760801b604482015260640161092f565b60006113d9670de0b6b3a764000083615b4e565b600080613e438685614610565b90506000613e59670de0b6b3a764000083613efa565b90506000613e6982600154613d5b565b90506000613e8886613e83670de0b6b3a764000085613efa565b614610565b90506000613e968b83613efa565b90506000613ea4828d614610565b90506000613eb28288614df6565b90506000613ec0828d613d5b565b90506000613ece8d83613efa565b9050613ee781613e83670de0b6b3a76400006000613efa565b9f9e505050505050505050505050505050565b6000806000613f098585614f22565b915091508015613f4f5760405162461bcd60e51b81526020600482015260116024820152704552525f5355425f554e444552464c4f5760781b604482015260640161092f565b509392505050565b612c898282614f59565b613f6a81614f64565b50565b612c898282615030565b613f8b6001600160a01b0384168383614a50565b505050565b600080613f9d8685614610565b90506000613fb8846109e7670de0b6b3a76400006000613efa565b90506000613fc68783613efa565b90506000613fd48289614610565b90506000613ff382613fee670de0b6b3a764000088614610565b614df6565b90506000614001828d613d5b565b9050600061400f8d83613efa565b90506000614030614028670de0b6b3a76400008a613efa565b600154613d5b565b9050614048826109e7670de0b6b3a764000084613efa565b9e9d5050505050505050505050505050565b600c546201000090046001600160a01b031633146140af5760405162461bcd60e51b815260206004820152601260248201527122a9292fa727aa2fa1a7a72a2927a62622a960711b604482015260640161092f565b6001600160a01b03831660009081526010602052604090205460ff16156141075760405162461bcd60e51b815260206004820152600c60248201526b11549497d254d7d093d5539160a21b604482015260640161092f565b600e54600160a01b900460ff16156141545760405162461bcd60e51b815260206004820152601060248201526f11549497d254d7d1925390531256915160821b604482015260640161092f565b600f546002116141975760405162461bcd60e51b815260206004820152600e60248201526d4552525f4d41585f544f4b454e5360901b604482015260640161092f565b604080516080810182526001808252600f805460208085019182526000858701818152606087018281526001600160a01b038c1680845260109094529782209651875460ff1916901515178755925186860155915160028601559451600390940193909355805491820181559091527f8d1108e10bcb7c27dddfc02ed9d693a074039d026cf4ea4240b40f7d581ac8020180546001600160a01b0319169091179055613f8b83838361503b565b600e805460ff60a01b1916600160a01b179055600c805460ff60b01b1916600160b01b179055614285614280670de0b6b3a76400006064615c70565b61478f565b6142a13361429c670de0b6b3a76400006064615c70565b613f6d565b565b6000806142b08686614610565b905060006142be8585614610565b905060006142cc8383614610565b9050600061430f670de0b6b3a7640000613e83670de0b6b3a76400006000546142f361261e565b6001546143009190615b62565b61430a9190615b62565b613efa565b90506136eb8282613d5b565b6001600160a01b03831660009081526007602052604090205481111561437a5760405162461bcd60e51b815260206004820152601460248201527311549497d25394d551919250d251539517d0905360621b604482015260640161092f565b6001600160a01b03831660009081526007602052604090205461439d9082613efa565b6001600160a01b0380851660009081526007602052604080822093909355908416815220546143cc9082614728565b6001600160a01b0380841660008181526007602052604090819020939093559151908516907fddf252ad1be2c89b69c2b068fc378daa952ba7f163c4a11628f55a4df523b3ef906144209085815260200190565b60405180910390a3505050565b60008061443a8487614610565b905060006144488685613efa565b905060006144568783614610565b905060006144648285614df6565b905061447881670de0b6b3a7640000613efa565b90506000805461448661261e565b6001546144939190615b62565b61449d9190615b62565b90506144b1670de0b6b3a764000082613efa565b95506144c66144c08c84613d5b565b87614610565b9b9a5050505050505050505050565b6000806144e28685614610565b9050600080546144f061261e565b6001546144fd9190615b62565b6145079190615b62565b9050600061451d670de0b6b3a764000083613efa565b90506145298582613d5b565b9050600061453b8a613e838c85614728565b905060006145498286614df6565b9050600061455f670de0b6b3a764000083613efa565b905061456b8a82613d5b565b9c9b505050505050505050505050565b6000806145888685614610565b905060006145a1614028670de0b6b3a764000084613efa565b905060006145bb856109e7670de0b6b3a764000085613efa565b905060006145c98a83614728565b905060006145d7828c614610565b905060006145e58287614df6565b905060006145f3828c613d5b565b90506145ff818c613efa565b9d9c50505050505050505050505050565b60008161464e5760405162461bcd60e51b815260206004820152600c60248201526b4552525f4449565f5a45524f60a01b604482015260640161092f565b6000614662670de0b6b3a764000085615c70565b90508315806146815750670de0b6b3a764000061467f8583615b4e565b145b6146c05760405162461bcd60e51b815260206004820152601060248201526f11549497d1125597d25395115493905360821b604482015260640161092f565b60006146cd600285615b4e565b6146d79083615b62565b90508181101561471c5760405162461bcd60e51b815260206004820152601060248201526f11549497d1125597d25395115493905360821b604482015260640161092f565b60006113d98583615b4e565b6000806147358385615b62565b9050838110156113215760405162461bcd60e51b815260206004820152601060248201526f4552525f4144445f4f564552464c4f5760801b604482015260640161092f565b613f8b6001600160a01b03841683308461528b565b613f6a816152b2565b6000806147a58685614610565b905060006147b38685614728565b905060006147c18288614610565b905060006147d7670de0b6b3a764000085614610565b905060006147e58383614df6565b905060006147f3828d613d5b565b90506000614801828e613efa565b9050600061481a614028670de0b6b3a76400008a613efa565b905061404882613e83670de0b6b3a764000084613efa565b6000808061484f86600360200201518760015b6020020151614610565b90506000614864876002602002015187613efa565b90506000614879886002602002015183614610565b905060006148878285614df6565b905061489b81670de0b6b3a7640000613efa565b9050600080546148a961261e565b6001546148b69190615b62565b6148c09190615b62565b8a519091506148e5906148d39084613d5b565b613e83670de0b6b3a764000084613efa565b965060006149058861430a8a6109e7670de0b6b3a764000061430a61261e565b6001600160a01b038a1660009081526005602052604090205490915061492b9082614728565b600560008b6001600160a01b03166001600160a01b031681526020019081526020016000208190555060006149728961430a8b6109e7670de0b6b3a7640000600054613efa565b6001600160a01b038b166000908152600660205260409020549091506149989082614728565b6001600160a01b038b166000908152600660205260409020558b516149d5906149c19086613d5b565b613e83670de0b6b3a7640000600154613efa565b97507f90d9f1d0641138b6407ac37bea3a905d63a371c2d91a484f68d59924634d4ef3614a148a61430a8c6109e7670de0b6b3a7640000600154613efa565b604080519182526020820185905281018390526001600160a01b038c16606082015260800160405180910390a150505050505050935093915050565b6040516001600160a01b038316602482015260448101829052613f8b90849063a9059cbb60e01b906064015b60408051601f198184030181529190526020810180516001600160e01b03166001600160e01b031990931692909217909152615321565b60008080614aca8660016020020151876003614845565b90506000614aea8661430a886109e7670de0b6b3a764000061430a61261e565b6001600160a01b038616600090815260056020526040902054909150614b109082614728565b60056000876001600160a01b03166001600160a01b03168152602001908152602001600020819055506000614b578761430a896109e7670de0b6b3a7640000600054613efa565b6001600160a01b038716600090815260066020526040902054909150614b7d9082614728565b6001600160a01b0387166000908152600660205260408120919091558054614ba361261e565b600154614bb09190615b62565b614bba9190615b62565b90507f90d9f1d0641138b6407ac37bea3a905d63a371c2d91a484f68d59924634d4ef3614bf98961430a8b6109e7670de0b6b3a7640000600154613efa565b604080519182526020820186905281018490526001600160a01b038916606082015260800160405180910390a16000614c3a670de0b6b3a764000083613efa565b9050614c468982613d5b565b8a51909150600090614c5c90613e838185614728565b90506000614c6a8288614df6565b90506000614c80670de0b6b3a764000083613efa565b9050614c938d6002602002015182613d5b565b995089614ca48d61430a898b615b62565b995099505050505050505050935093915050565b600c805462010000600160b01b031916620100006001600160a01b038a81169190910291909117909155600280546001600160a01b031916918816919091179055845160009086908290614d0e57614d0e615cb6565b602002602001015160018190555085600181518110614d2f57614d2f615cb6565b602090810291909101810151600055600c8054961515600160b01b0260ff60b01b199097169690961795869055600e80548551600380546001600160a01b039283166001600160a01b03199182161790915596840151600480549183169189169190911790558551600d805491831691891691909117905594909201518416951515600160a01b908102959095166001600160a81b0319928316179590951790945550601280549093166201000090940416929092178217908190550460ff169392505050565b60006001831015614e415760405162461bcd60e51b81526020600482015260156024820152744552525f42504f575f424153455f544f4f5f4c4f5760581b604482015260640161092f565b6001614e56670de0b6b3a76400006002615c70565b614e609190615d2a565b831115614ea85760405162461bcd60e51b815260206004820152601660248201527508aa4a4be84a09eaebe8482a68abea89e9ebe90928e960531b604482015260640161092f565b6000614eb3836153f3565b90506000614ec18483613efa565b90506000614ed786614ed285615411565b615425565b905081614ee8579250610e80915050565b6000614f0b8784614f066402540be400670de0b6b3a7640000615b4e565b615499565b9050614f178282613d5b565b979650505050505050565b600080828410614f4157614f368385615d2a565b600091509150614f52565b614f4b8484615d2a565b6001915091505b9250929050565b612c8982308361431b565b30600090815260076020526040902054811115614fba5760405162461bcd60e51b815260206004820152601460248201527311549497d25394d551919250d251539517d0905360621b604482015260640161092f565b30600090815260076020526040902054614fd49082613efa565b30600090815260076020526040902055600954614ff19082613efa565b60095560405181815260009030907fddf252ad1be2c89b69c2b068fc378daa952ba7f163c4a11628f55a4df523b3ef906020015b60405180910390a350565b612c8930838361431b565b670de0b6b3a76400008110156150845760405162461bcd60e51b815260206004820152600e60248201526d11549497d3525397d5d15251d21560921b604482015260640161092f565b615097670de0b6b3a76400006032615c70565b8111156150d75760405162461bcd60e51b815260206004820152600e60248201526d11549497d3505617d5d15251d21560921b604482015260640161092f565b6150ee64e8d4a51000670de0b6b3a7640000615b4e565b82101561512f5760405162461bcd60e51b815260206004820152600f60248201526e4552525f4d494e5f42414c414e434560881b604482015260640161092f565b6001600160a01b038316600090815260106020526040902060020154808211156151cb576151686011546151638484613efa565b614728565b60115561517e670de0b6b3a76400006032615c70565b60115411156151c65760405162461bcd60e51b815260206004820152601460248201527311549497d3505617d513d5105317d5d15251d21560621b604482015260640161092f565b6151e7565b808210156151e7576151e360115461430a8385613efa565b6011555b6001600160a01b038416600090815260106020526040902060028101839055600301805490849055808411156152305761522b85336152268785613efa565b61477a565b615284565b808410156152845760006152448286613efa565b90506000615253826000613d5b565b905061526987336152648585613efa565b613f77565b6002546152819088906001600160a01b031683613f77565b50505b5050505050565b6152ac846323b872dd60e01b858585604051602401614a7c93929190615bf4565b50505050565b306000908152600760205260409020546152cc9082614728565b306000908152600760205260409020556009546152e99082614728565b60095560405181815230906000907fddf252ad1be2c89b69c2b068fc378daa952ba7f163c4a11628f55a4df523b3ef90602001615025565b6000615376826040518060400160405280602081526020017f5361666545524332303a206c6f772d6c6576656c2063616c6c206661696c6564815250856001600160a01b03166155899092919063ffffffff16565b805190915015613f8b57808060200190518101906153949190615c18565b613f8b5760405162461bcd60e51b815260206004820152602a60248201527f5361666545524332303a204552433230206f7065726174696f6e20646964206e6044820152691bdd081cdd58d8d9595960b21b606482015260840161092f565b6000670de0b6b3a764000061540783615411565b610e809190615c70565b6000610e80670de0b6b3a764000083615b4e565b60008281615434600285615d57565b61544657670de0b6b3a7640000615448565b815b9050615455600285615b4e565b93505b831561167a576154688283613d5b565b9150615475600285615d57565b15615487576154848183613d5b565b90505b615492600285615b4e565b9350615458565b60008281806154b087670de0b6b3a7640000614f22565b9092509050670de0b6b3a764000080600060015b88841061557a5760006154df670de0b6b3a764000083615c70565b90506000806154ff8a6154fa85670de0b6b3a7640000613efa565b614f22565b91509150615511876109e7848c613d5b565b965061551d8784614610565b96508661552c5750505061557a565b8715615536579315935b8015615540579315935b8415615557576155508688613efa565b9550615564565b6155618688614728565b95505b505050808061557290615ccc565b9150506154c4565b50909998505050505050505050565b606061167a848460008585843b6155e25760405162461bcd60e51b815260206004820152601d60248201527f416464726573733a2063616c6c20746f206e6f6e2d636f6e7472616374000000604482015260640161092f565b600080866001600160a01b031685876040516155fe9190615d6b565b60006040518083038185875af1925050503d806000811461563b576040519150601f19603f3d011682016040523d82523d6000602084013e615640565b606091505b5091509150614f178282866060831561565a575081611321565b82511561566a5782518084602001fd5b8160405162461bcd60e51b815260040161092f91906156fa565b80356001600160a01b038116811461309f57600080fd5b6000806000606084860312156156b057600080fd5b6156b984615684565b95602085013595506040909401359392505050565b60005b838110156156e95781810151838201526020016156d1565b838111156152ac5750506000910152565b60208152600082518060208401526157198160408501602087016156ce565b601f01601f19169190910160400192915050565b6000806040838503121561574057600080fd5b61574983615684565b946020939093013593505050565b60008060008060008060c0878903121561577057600080fd5b61577987615684565b9550602087013594506040870135935061579560608801615684565b92506080870135915060a087013590509295509295509295565b600080604083850312156157c257600080fd5b6157cb83615684565b91506157d960208401615684565b90509250929050565b6000806000606084860312156157f757600080fd5b61580084615684565b925061580e60208501615684565b9150604084013590509250925092565b60006020828403121561583057600080fd5b61132182615684565b60006020828403121561584b57600080fd5b5035919050565b60008083601f84011261586457600080fd5b50813567ffffffffffffffff81111561587c57600080fd5b6020830191508360208260051b8501011115614f5257600080fd5b6000806000604084860312156158ac57600080fd5b83359250602084013567ffffffffffffffff8111156158ca57600080fd5b6158d686828701615852565b9497909650939450505050565b600080600080600060a086880312156158fb57600080fd5b61590486615684565b94506020860135935061591960408701615684565b94979396509394606081013594506080013592915050565b600081518084526020808501945080840160005b8381101561596a5781516001600160a01b031687529582019590820190600101615945565b509495945050505050565b6020815260006113216020830184615931565b8015158114613f6a57600080fd5b8060408101831015610e8057600080fd5b600080600080600080600080610120898b0312156159c457600080fd5b6159cd89615684565b97506159db60208a01615684565b9650604089013567ffffffffffffffff8111156159f757600080fd5b615a038b828c01615852565b9097509550506060890135615a1781615988565b93506080890135615a2781615988565b9250615a368a60a08b01615996565b9150615a458a60e08b01615996565b90509295985092959890939650565b604081526000615a676040830185615931565b82810360208481019190915284518083528582019282019060005b81811015615a9e57845183529383019391830191600101615a82565b5090979650505050505050565b6020808252600b908201526a4552525f5245454e54525960a81b604082015260600190565b60208082526011908201527011549497d393d517d19253905312569151607a1b604082015260600190565b6020808252600d908201526c11549497d393d517d093d55391609a1b604082015260600190565b634e487b7160e01b600052601260045260246000fd5b634e487b7160e01b600052601160045260246000fd5b600082615b5d57615b5d615b22565b500490565b60008219821115615b7557615b75615b38565b500190565b6020808252601190820152704552525f4d41585f4f55545f524154494f60781b604082015260600190565b6020808252600f908201526e08aa4a4be9a82a890be82a0a0a49eb608b1b604082015260600190565b6020808252600c908201526b22a9292fa624a6a4aa2fa4a760a11b604082015260600190565b6001600160a01b039384168152919092166020820152604081019190915260600190565b600060208284031215615c2a57600080fd5b815161132181615988565b600181811c90821680615c4957607f821691505b60208210811415615c6a57634e487b7160e01b600052602260045260246000fd5b50919050565b6000816000190483118215151615615c8a57615c8a615b38565b500290565b6020808252600d908201526c11549497d31253525517d3d555609a1b604082015260600190565b634e487b7160e01b600052603260045260246000fd5b6000600019821415615ce057615ce0615b38565b5060010190565b60208082526010908201526f4552525f4d41585f494e5f524154494f60801b604082015260600190565b600060208284031215615d2357600080fd5b5051919050565b600082821015615d3c57615d3c615b38565b500390565b634e487b7160e01b600052604160045260246000fd5b600082615d6657615d66615b22565b500690565b60008251615d7d8184602087016156ce565b919091019291505056fe9d9058fd2f25ccc389fec7720abef0ca83472f5abfafd5f10d37f51e6a0493f387b3975661762d852ddf2eeaad6a43b2d93777de7b3b7bdb634283df32456118fcda32798d5a9d032f49b37fea876d422f18f6e386e0f07db6029b693624b2c215a8ca63e37b2cff1677df2b6b82d36fcf8a524228bd7a4b4d02d107c28c1e8a8c5be1e5ebec7d5bd14f71427d1e84f3dd0314c0f7b2291e5b200ac8c7c3b925a26469706673582212201efd344c1177674f6ada264b6992c454789bdadf5468c4012833d605febdb52564736f6c634300080a0033",
  "linkReferences": {},
  "deployedLinkReferences": {}
}