{
  "_format": "hh-sol-artifact-1",
  "contractName": "SmartWalletChecker",
  "sourceName": "contracts/ve/SmartWalletChecker.sol",
  "abi": [
    {
      "inputs": [],
      "stateMutability": "nonpayable",
      "type": "constructor"
    },
    {
      "inputs": [
        {
          "internalType": "address",
          "name": "_address",
          "type": "address"
        }
      ],
      "name": "check",
      "outputs": [
        {
          "internalType": "bool",
          "name": "",
          "type": "bool"
        }
      ],
      "stateMutability": "view",
      "type": "function"
    },
    {
      "inputs": [
        {
          "internalType": "address",
          "name": "",
          "type": "address"
        }
      ],
      "name": "isAllowed",
      "outputs": [
        {
          "internalType": "bool",
          "name": "",
          "type": "bool"
        }
      ],
      "stateMutability": "view",
      "type": "function"
    },
    {
      "inputs": [
        {
          "internalType": "address",
          "name": "",
          "type": "address"
        }
      ],
      "name": "isManager",
      "outputs": [
        {
          "internalType": "bool",
          "name": "",
          "type": "bool"
        }
      ],
      "stateMutability": "view",
      "type": "function"
    },
    {
      "inputs": [
        {
          "internalType": "address",
          "name": "_contract",
          "type": "address"
        },
        {
          "internalType": "bool",
          "name": "_status",
          "type": "bool"
        }
      ],
      "name": "setAllowedContract",
      "outputs": [],
      "stateMutability": "nonpayable",
      "type": "function"
    },
    {
      "inputs": [
        {
          "internalType": "address",
          "name": "_manager",
          "type": "address"
        },
        {
          "internalType": "bool",
          "name": "_status",
          "type": "bool"
        }
      ],
      "name": "setManager",
      "outputs": [],
      "stateMutability": "nonpayable",
      "type": "function"
    }
  ],
  "bytecode": "0x608060405234801561001057600080fd5b50336000908152602081905260409020805460ff191660011790556102a98061003a6000396000f3fe608060405234801561001057600080fd5b50600436106100575760003560e01c806355de1faf1461005c578063a5e90eee14610071578063babcc53914610084578063c23697a8146100bb578063f3ae2415146100e7575b600080fd5b61006f61006a366004610215565b61010a565b005b61006f61007f366004610215565b610184565b6100a7610092366004610251565b60016020526000908152604090205460ff1681565b604051901515815260200160405180910390f35b6100a76100c9366004610251565b6001600160a01b031660009081526001602052604090205460ff1690565b6100a76100f5366004610251565b60006020819052908152604090205460ff1681565b3360009081526020819052604090205460ff166101595760405162461bcd60e51b815260206004820152600860248201526710b6b0b730b3b2b960c11b60448201526064015b60405180910390fd5b6001600160a01b03919091166000908152600160205260409020805460ff1916911515919091179055565b3360009081526020819052604090205460ff166101ce5760405162461bcd60e51b815260206004820152600860248201526710b6b0b730b3b2b960c11b6044820152606401610150565b6001600160a01b03919091166000908152602081905260409020805460ff1916911515919091179055565b80356001600160a01b038116811461021057600080fd5b919050565b6000806040838503121561022857600080fd5b610231836101f9565b91506020830135801515811461024657600080fd5b809150509250929050565b60006020828403121561026357600080fd5b61026c826101f9565b939250505056fea26469706673582212208f72c0c236aafb57d5b43f20c46d0857d7da11acc5dc12800cd7a346b51e2c1064736f6c634300080c0033",
  "linkReferences": {},
  "deployedLinkReferences": {}
}