{
  "_format": "hh-sol-artifact-1",
  "contractName": "veAllocate",
  "sourceName": "contracts/ve/veAllocate.sol",
  "abi": [
    {
      "anonymous": false,
      "inputs": [
        {
          "indexed": true,
          "internalType": "address",
          "name": "sender",
          "type": "address"
        },
        {
          "indexed": true,
          "internalType": "string",
          "name": "id",
          "type": "string"
        }
      ],
      "name": "AllocationRemoved",
      "type": "event"
    },
    {
      "anonymous": false,
      "inputs": [
        {
          "indexed": true,
          "internalType": "address",
          "name": "sender",
          "type": "address"
        },
        {
          "indexed": true,
          "internalType": "string",
          "name": "id",
          "type": "string"
        },
        {
          "indexed": false,
          "internalType": "uint256",
          "name": "amount",
          "type": "uint256"
        }
      ],
      "name": "AllocationSet",
      "type": "event"
    },
    {
      "inputs": [
        {
          "internalType": "address",
          "name": "_address",
          "type": "address"
        },
        {
          "internalType": "uint256",
          "name": "limit",
          "type": "uint256"
        },
        {
          "internalType": "uint256",
          "name": "skip",
          "type": "uint256"
        }
      ],
      "name": "getTotalAllocation",
      "outputs": [
        {
          "internalType": "string[]",
          "name": "allocationIds",
          "type": "string[]"
        },
        {
          "internalType": "uint256[]",
          "name": "allocationAmounts",
          "type": "uint256[]"
        }
      ],
      "stateMutability": "view",
      "type": "function"
    },
    {
      "inputs": [
        {
          "internalType": "address",
          "name": "_address",
          "type": "address"
        }
      ],
      "name": "getTotalAllocation",
      "outputs": [
        {
          "internalType": "uint256",
          "name": "",
          "type": "uint256"
        }
      ],
      "stateMutability": "view",
      "type": "function"
    },
    {
      "inputs": [
        {
          "internalType": "address",
          "name": "_address",
          "type": "address"
        },
        {
          "internalType": "string",
          "name": "_id",
          "type": "string"
        }
      ],
      "name": "getveAllocation",
      "outputs": [
        {
          "internalType": "uint256",
          "name": "",
          "type": "uint256"
        }
      ],
      "stateMutability": "view",
      "type": "function"
    },
    {
      "inputs": [
        {
          "internalType": "uint256",
          "name": "amount",
          "type": "uint256"
        },
        {
          "internalType": "string",
          "name": "_id",
          "type": "string"
        }
      ],
      "name": "setAllocation",
      "outputs": [],
      "stateMutability": "nonpayable",
      "type": "function"
    }
  ],
  "bytecode": "0x608060405234801561001057600080fd5b50610d84806100206000396000f3fe608060405234801561001057600080fd5b506004361061004b5760003560e01c8062b012cc146100505780637eca2cea14610076578063914db4ad14610097578063c49a153e146100ac575b600080fd5b61006361005e3660046109ff565b6100d5565b6040519081526020015b60405180910390f35b610089610084366004610a52565b610115565b60405161006d929190610ac0565b6100aa6100a5366004610b6f565b610394565b005b6100636100ba366004610ba2565b6001600160a01b031660009081526004602052604090205490565b6001600160a01b03831660009081526020819052604080822090516100fd9085908590610bc4565b90815260200160405180910390205490509392505050565b6001600160a01b038316600090815260016020526040902054606090819067ffffffffffffffff81111561014b5761014b610bd4565b60405190808252806020026020018201604052801561017e57816020015b60608152602001906001900390816101695790505b506001600160a01b03861660009081526001602052604090205490925067ffffffffffffffff8111156101b3576101b3610bd4565b6040519080825280602002602001820160405280156101dc578160200160208202803683370190505b50905060006101eb8486610c00565b6001600160a01b0387166000908152600160205260409020541115610211575083610238565b6001600160a01b038616600090815260016020526040902054610235908590610c18565b90505b835b6102448286610c00565b81101561038a576001600160a01b03871660009081526002602090815260408083208484529091529020805461027990610c2f565b80601f01602080910402602001604051908101604052809291908181526020018280546102a590610c2f565b80156102f25780601f106102c7576101008083540402835291602001916102f2565b820191906000526020600020905b8154815290600101906020018083116102d557829003601f168201915b505050505084828151811061030957610309610c6a565b6020908102919091018101919091526001600160a01b038816600090815280825260408082206002845281832085845290935290819020905161034c9190610c80565b90815260200160405180910390205483828151811061036d5761036d610c6a565b60209081029190910101528061038281610d1c565b91505061023a565b5050935093915050565b603281106103d75760405162461bcd60e51b815260206004820152600b60248201526a496420746f6f206c6f6e6760a81b60448201526064015b60405180910390fd5b6103e883111561040e5760405162461bcd60e51b8152602060048201526002602482015261424d60f01b60448201526064016103ce565b3360009081526020819052604090819020905161042e9084908490610bc4565b9081526020016040518091039020546000141561050a576000831161047a5760405162461bcd60e51b8152602060048201526002602482015261534d60f01b60448201526064016103ce565b3360009081526002602090815260408083206001835281842054845290915290206104a6908383610849565b503360009081526001602090815260408083205460039092529182902091519091906104d59085908590610bc4565b908152604080516020928190038301902092909255336000908152600190915290812080549161050483610d1c565b91905055505b3360009081526020819052604090819020905161052a9084908490610bc4565b9081526040805160209281900383019020543360009081526004909352912054610555908590610c00565b61055f9190610c18565b33600090815260046020526040902055826105835761057e8282610608565b6105b7565b336000908152602081905260409081902090518491906105a69085908590610bc4565b908152604051908190036020019020555b81816040516105c7929190610bc4565b6040519081900381208482529033907fd8c9a3d91a9712decb6f475c889dd8aadc77af5358da88983b6d6a9e123cb26f9060200160405180910390a3505050565b3360009081526020819052604080822090516106279085908590610bc4565b908152602001604051809103902054116106685760405162461bcd60e51b8152602060048201526002602482015261534d60f01b60448201526064016103ce565b3360009081526020819052604080822090516106879085908590610bc4565b9081526040805191829003602090810183209390935533600090815260039093528220906106b89085908590610bc4565b908152604080516020928190038301902054336000908152600284528281206001948590529281205491945091926106ef91610c18565b8152602080820192909252604090810160009081203382526002845282822085835290935220815490919061072390610c2f565b61072e9291906108cd565b5033600090815260036020908152604080832060028352818420858552909252918290209151839261075f91610c80565b9081526040805160209281900383019020929092553360009081526002825282812060019283905292812054909161079691610c18565b815260200190815260200160002060006107b09190610948565b336000908152600360205260409081902090516107d09085908590610bc4565b9081526040805160209281900383019020600090819055338152600190925281208054916107fd83610d37565b91905055508282604051610812929190610bc4565b6040519081900381209033907fdfff661e3eda1013045f8e1890c5ba777acb75ca06008312fe62abb41567a1bd90600090a3505050565b82805461085590610c2f565b90600052602060002090601f01602090048101928261087757600085556108bd565b82601f106108905782800160ff198235161785556108bd565b828001600101855582156108bd579182015b828111156108bd5782358255916020019190600101906108a2565b506108c9929150610985565b5090565b8280546108d990610c2f565b90600052602060002090601f0160209004810192826108fb57600085556108bd565b82601f1061090c57805485556108bd565b828001600101855582156108bd57600052602060002091601f016020900482015b828111156108bd57825482559160010191906001019061092d565b50805461095490610c2f565b6000825580601f10610964575050565b601f0160209004906000526020600020908101906109829190610985565b50565b5b808211156108c95760008155600101610986565b80356001600160a01b03811681146109b157600080fd5b919050565b60008083601f8401126109c857600080fd5b50813567ffffffffffffffff8111156109e057600080fd5b6020830191508360208285010111156109f857600080fd5b9250929050565b600080600060408486031215610a1457600080fd5b610a1d8461099a565b9250602084013567ffffffffffffffff811115610a3957600080fd5b610a45868287016109b6565b9497909650939450505050565b600080600060608486031215610a6757600080fd5b610a708461099a565b95602085013595506040909401359392505050565b600081518084526020808501945080840160005b83811015610ab557815187529582019590820190600101610a99565b509495945050505050565b6000604082016040835280855180835260608501915060608160051b860101925060208088016000805b84811015610b4f57888703605f1901865282518051808952835b81811015610b1f578281018701518a82018801528601610b04565b81811115610b2f578487838c0101525b50601f01601f191697909701840196509483019491830191600101610aea565b50505085840381870152505050610b668185610a85565b95945050505050565b600080600060408486031215610b8457600080fd5b83359250602084013567ffffffffffffffff811115610a3957600080fd5b600060208284031215610bb457600080fd5b610bbd8261099a565b9392505050565b8183823760009101908152919050565b634e487b7160e01b600052604160045260246000fd5b634e487b7160e01b600052601160045260246000fd5b60008219821115610c1357610c13610bea565b500190565b600082821015610c2a57610c2a610bea565b500390565b600181811c90821680610c4357607f821691505b60208210811415610c6457634e487b7160e01b600052602260045260246000fd5b50919050565b634e487b7160e01b600052603260045260246000fd5b600080835481600182811c915080831680610c9c57607f831692505b6020808410821415610cbc57634e487b7160e01b86526022600452602486fd5b818015610cd05760018114610ce157610d0e565b60ff19861689528489019650610d0e565b60008a81526020902060005b86811015610d065781548b820152908501908301610ced565b505084890196505b509498975050505050505050565b6000600019821415610d3057610d30610bea565b5060010190565b600081610d4657610d46610bea565b50600019019056fea2646970667358221220a68b384b6027958a49fb786be3696847cb0eb12e35131c705c5566e284396b5d64736f6c634300080c0033",
  "linkReferences": {},
  "deployedLinkReferences": {}
}