{
  "_format": "hh-sol-artifact-1",
  "contractName": "veAllocate",
  "sourceName": "contracts/ve/veAllocate.sol",
  "abi": [
    {
      "anonymous": false,
      "inputs": [
        {
          "indexed": true,
          "internalType": "address",
          "name": "sender",
          "type": "address"
        },
        {
          "indexed": true,
          "internalType": "address",
          "name": "nft",
          "type": "address"
        },
        {
          "indexed": true,
          "internalType": "uint256",
          "name": "chainId",
          "type": "uint256"
        },
        {
          "indexed": false,
          "internalType": "uint256",
          "name": "amount",
          "type": "uint256"
        }
      ],
      "name": "AllocationSet",
      "type": "event"
    },
    {
      "anonymous": false,
      "inputs": [
        {
          "indexed": true,
          "internalType": "address",
          "name": "sender",
          "type": "address"
        },
        {
          "indexed": false,
          "internalType": "address[]",
          "name": "nft",
          "type": "address[]"
        },
        {
          "indexed": false,
          "internalType": "uint256[]",
          "name": "chainId",
          "type": "uint256[]"
        },
        {
          "indexed": false,
          "internalType": "uint256[]",
          "name": "amount",
          "type": "uint256[]"
        }
      ],
      "name": "AllocationSetMultiple",
      "type": "event"
    },
    {
      "inputs": [
        {
          "internalType": "address",
          "name": "user",
          "type": "address"
        }
      ],
      "name": "getTotalAllocation",
      "outputs": [
        {
          "internalType": "uint256",
          "name": "",
          "type": "uint256"
        }
      ],
      "stateMutability": "view",
      "type": "function"
    },
    {
      "inputs": [
        {
          "internalType": "address",
          "name": "user",
          "type": "address"
        },
        {
          "internalType": "address",
          "name": "nft",
          "type": "address"
        },
        {
          "internalType": "uint256",
          "name": "chainid",
          "type": "uint256"
        }
      ],
      "name": "getveAllocation",
      "outputs": [
        {
          "internalType": "uint256",
          "name": "",
          "type": "uint256"
        }
      ],
      "stateMutability": "view",
      "type": "function"
    },
    {
      "inputs": [
        {
          "internalType": "uint256",
          "name": "amount",
          "type": "uint256"
        },
        {
          "internalType": "address",
          "name": "nft",
          "type": "address"
        },
        {
          "internalType": "uint256",
          "name": "chainId",
          "type": "uint256"
        }
      ],
      "name": "setAllocation",
      "outputs": [],
      "stateMutability": "nonpayable",
      "type": "function"
    },
    {
      "inputs": [
        {
          "internalType": "uint256[]",
          "name": "amount",
          "type": "uint256[]"
        },
        {
          "internalType": "address[]",
          "name": "nft",
          "type": "address[]"
        },
        {
          "internalType": "uint256[]",
          "name": "chainId",
          "type": "uint256[]"
        }
      ],
      "name": "setBatchAllocation",
      "outputs": [],
      "stateMutability": "nonpayable",
      "type": "function"
    }
  ],
  "bytecode": "0x608060405234801561001057600080fd5b506107f4806100206000396000f3fe608060405234801561001057600080fd5b506004361061004c5760003560e01c8063540ffae8146100515780639bf648d314610066578063b38e9637146100b6578063c49a153e146100c9575b600080fd5b61006461005f366004610531565b6100f2565b005b6100a4610074366004610566565b6001600160a01b039283166000908152602081815260408083209490951682529283528381209181529152205490565b60405190815260200160405180910390f35b6100646100c43660046105de565b6101fb565b6100a46100d7366004610678565b6001600160a01b031660009081526001602052604090205490565b336000818152602081815260408083206001600160a01b0387168452825280832085845282528083205493835260019091529020546101329085906106b0565b61013c91906106c8565b33600090815260016020526040902081905561271010156101955760405162461bcd60e51b815260206004820152600e60248201526d26b0bc1020b63637b1b0ba34b7b760911b60448201526064015b60405180910390fd5b336000818152602081815260408083206001600160a01b038716808552908352818420868552835292819020879055518681528493917fa147c6cd0dd0fe2f649713a01540a2dcc9a47d469fb689f358031bf7f2f67011910160405180910390a4505050565b60968511156102425760405162461bcd60e51b8152602060048201526013602482015272546f6f204d616e79204f7065726174696f6e7360681b604482015260640161018c565b8483146102915760405162461bcd60e51b815260206004820152601860248201527f4e66742061727261792073697a65206d6973736d617463680000000000000000604482015260640161018c565b8481146102e05760405162461bcd60e51b815260206004820152601a60248201527f436861696e2061727261792073697a65206d6973736d61746368000000000000604482015260640161018c565b60005b8581101561046f573360009081526020819052604081209086868481811061030d5761030d6106df565b90506020020160208101906103229190610678565b6001600160a01b03166001600160a01b031681526020019081526020016000206000848484818110610356576103566106df565b9050602002013581526020019081526020016000205487878381811061037e5761037e6106df565b336000908152600160209081526040909120546103a29491909202013591506106b0565b6103ac91906106c8565b336000908152600160205260409020558686828181106103ce576103ce6106df565b33600090815260208181526040822092029390930135929091508787858181106103fa576103fa6106df565b905060200201602081019061040f9190610678565b6001600160a01b03166001600160a01b031681526020019081526020016000206000858585818110610443576104436106df565b905060200201358152602001908152602001600020819055508080610467906106f5565b9150506102e3565b503360009081526001602052604090205461271010156104c25760405162461bcd60e51b815260206004820152600e60248201526d26b0bc1020b63637b1b0ba34b7b760911b604482015260640161018c565b336001600160a01b03167f40b9a90d4d04a363a00e6fd9afa85f7336a56acbfad813c80d2030f9390302d2858585858b8b60405161050596959493929190610746565b60405180910390a2505050505050565b80356001600160a01b038116811461052c57600080fd5b919050565b60008060006060848603121561054657600080fd5b8335925061055660208501610515565b9150604084013590509250925092565b60008060006060848603121561057b57600080fd5b61058484610515565b925061055660208501610515565b60008083601f8401126105a457600080fd5b50813567ffffffffffffffff8111156105bc57600080fd5b6020830191508360208260051b85010111156105d757600080fd5b9250929050565b600080600080600080606087890312156105f757600080fd5b863567ffffffffffffffff8082111561060f57600080fd5b61061b8a838b01610592565b9098509650602089013591508082111561063457600080fd5b6106408a838b01610592565b9096509450604089013591508082111561065957600080fd5b5061066689828a01610592565b979a9699509497509295939492505050565b60006020828403121561068a57600080fd5b61069382610515565b9392505050565b634e487b7160e01b600052601160045260246000fd5b600082198211156106c3576106c361069a565b500190565b6000828210156106da576106da61069a565b500390565b634e487b7160e01b600052603260045260246000fd5b60006000198214156107095761070961069a565b5060010190565b81835260006001600160fb1b0383111561072957600080fd5b8260051b8083602087013760009401602001938452509192915050565b6060808252810186905260008760808301825b89811015610787576001600160a01b0361077284610515565b16825260209283019290910190600101610759565b50838103602085015261079b81888a610710565b91505082810360408401526107b1818587610710565b999850505050505050505056fea26469706673582212208c34b33ea0bd61ea4ea3be29758b1afd2c678dce66229926ed38b43ca6b9168c64736f6c634300080c0033",
  "linkReferences": {},
  "deployedLinkReferences": {}
}