{
  "_format": "hh-sol-artifact-1",
  "contractName": "BalancerPoolToken",
  "sourceName": "contracts/pools/BalancerPoolToken.sol",
  "abi": [
    {
      "inputs": [
        {
          "internalType": "string[2]",
          "name": "identifiers",
          "type": "string[2]"
        }
      ],
      "stateMutability": "nonpayable",
      "type": "constructor"
    },
    {
      "anonymous": false,
      "inputs": [
        {
          "indexed": true,
          "internalType": "address",
          "name": "owner",
          "type": "address"
        },
        {
          "indexed": true,
          "internalType": "address",
          "name": "spender",
          "type": "address"
        },
        {
          "indexed": false,
          "internalType": "uint256",
          "name": "value",
          "type": "uint256"
        }
      ],
      "name": "Approval",
      "type": "event"
    },
    {
      "anonymous": false,
      "inputs": [
        {
          "indexed": true,
          "internalType": "address",
          "name": "from",
          "type": "address"
        },
        {
          "indexed": true,
          "internalType": "address",
          "name": "to",
          "type": "address"
        },
        {
          "indexed": false,
          "internalType": "uint256",
          "name": "value",
          "type": "uint256"
        }
      ],
      "name": "Transfer",
      "type": "event"
    },
    {
      "inputs": [],
      "name": "DOMAIN_SEPARATOR",
      "outputs": [
        {
          "internalType": "bytes32",
          "name": "",
          "type": "bytes32"
        }
      ],
      "stateMutability": "view",
      "type": "function"
    },
    {
      "inputs": [
        {
          "internalType": "address",
          "name": "owner",
          "type": "address"
        },
        {
          "internalType": "address",
          "name": "spender",
          "type": "address"
        }
      ],
      "name": "allowance",
      "outputs": [
        {
          "internalType": "uint256",
          "name": "",
          "type": "uint256"
        }
      ],
      "stateMutability": "view",
      "type": "function"
    },
    {
      "inputs": [
        {
          "internalType": "address",
          "name": "spender",
          "type": "address"
        },
        {
          "internalType": "uint256",
          "name": "amount",
          "type": "uint256"
        }
      ],
      "name": "approve",
      "outputs": [
        {
          "internalType": "bool",
          "name": "",
          "type": "bool"
        }
      ],
      "stateMutability": "nonpayable",
      "type": "function"
    },
    {
      "inputs": [
        {
          "internalType": "address",
          "name": "account",
          "type": "address"
        }
      ],
      "name": "balanceOf",
      "outputs": [
        {
          "internalType": "uint256",
          "name": "",
          "type": "uint256"
        }
      ],
      "stateMutability": "view",
      "type": "function"
    },
    {
      "inputs": [],
      "name": "decimals",
      "outputs": [
        {
          "internalType": "uint8",
          "name": "",
          "type": "uint8"
        }
      ],
      "stateMutability": "pure",
      "type": "function"
    },
    {
      "inputs": [
        {
          "internalType": "address",
          "name": "spender",
          "type": "address"
        },
        {
          "internalType": "uint256",
          "name": "amount",
          "type": "uint256"
        }
      ],
      "name": "decreaseApproval",
      "outputs": [
        {
          "internalType": "bool",
          "name": "",
          "type": "bool"
        }
      ],
      "stateMutability": "nonpayable",
      "type": "function"
    },
    {
      "inputs": [
        {
          "internalType": "address",
          "name": "spender",
          "type": "address"
        },
        {
          "internalType": "uint256",
          "name": "amount",
          "type": "uint256"
        }
      ],
      "name": "increaseApproval",
      "outputs": [
        {
          "internalType": "bool",
          "name": "",
          "type": "bool"
        }
      ],
      "stateMutability": "nonpayable",
      "type": "function"
    },
    {
      "inputs": [],
      "name": "name",
      "outputs": [
        {
          "internalType": "string",
          "name": "",
          "type": "string"
        }
      ],
      "stateMutability": "view",
      "type": "function"
    },
    {
      "inputs": [
        {
          "internalType": "address",
          "name": "owner",
          "type": "address"
        }
      ],
      "name": "nonces",
      "outputs": [
        {
          "internalType": "uint256",
          "name": "",
          "type": "uint256"
        }
      ],
      "stateMutability": "view",
      "type": "function"
    },
    {
      "inputs": [
        {
          "internalType": "address",
          "name": "owner",
          "type": "address"
        },
        {
          "internalType": "address",
          "name": "spender",
          "type": "address"
        },
        {
          "internalType": "uint256",
          "name": "value",
          "type": "uint256"
        },
        {
          "internalType": "uint256",
          "name": "deadline",
          "type": "uint256"
        },
        {
          "internalType": "uint8",
          "name": "v",
          "type": "uint8"
        },
        {
          "internalType": "bytes32",
          "name": "r",
          "type": "bytes32"
        },
        {
          "internalType": "bytes32",
          "name": "s",
          "type": "bytes32"
        }
      ],
      "name": "permit",
      "outputs": [],
      "stateMutability": "nonpayable",
      "type": "function"
    },
    {
      "inputs": [],
      "name": "symbol",
      "outputs": [
        {
          "internalType": "string",
          "name": "",
          "type": "string"
        }
      ],
      "stateMutability": "view",
      "type": "function"
    },
    {
      "inputs": [],
      "name": "totalSupply",
      "outputs": [
        {
          "internalType": "uint256",
          "name": "",
          "type": "uint256"
        }
      ],
      "stateMutability": "view",
      "type": "function"
    },
    {
      "inputs": [
        {
          "internalType": "address",
          "name": "recipient",
          "type": "address"
        },
        {
          "internalType": "uint256",
          "name": "amount",
          "type": "uint256"
        }
      ],
      "name": "transfer",
      "outputs": [
        {
          "internalType": "bool",
          "name": "",
          "type": "bool"
        }
      ],
      "stateMutability": "nonpayable",
      "type": "function"
    },
    {
      "inputs": [
        {
          "internalType": "address",
          "name": "sender",
          "type": "address"
        },
        {
          "internalType": "address",
          "name": "recipient",
          "type": "address"
        },
        {
          "internalType": "uint256",
          "name": "amount",
          "type": "uint256"
        }
      ],
      "name": "transferFrom",
      "outputs": [
        {
          "internalType": "bool",
          "name": "",
          "type": "bool"
        }
      ],
      "stateMutability": "nonpayable",
      "type": "function"
    }
  ],
  "bytecode": "0x6101006040527f6e71edae12b1b97f4d1f60370fef10105fa2faae0126114a169c64845d6126c960e0523480156200003657600080fd5b5060405162000e1238038062000e1283398101604081905262000059916200017e565b80516040805180820190915260018152603160f81b60208281019182528351938101939093206080529051902060a0527f8b73c3c69bb8fe3d512ecc4cf759cc79239f7b179b0ffacaa9a75d522b39400f60c05281518051620000c1926003920190620000e2565b506020808201518051620000da926004920190620000e2565b5050620002c2565b828054600181600116156101000203166002900490600052602060002090601f016020900481019282601f106200012557805160ff191683800117855562000155565b8280016001018555821562000155579182015b828111156200015557825182559160200191906001019062000138565b506200016392915062000167565b5090565b5b8082111562000163576000815560010162000168565b6000602080838503121562000191578182fd5b82516001600160401b03811115620001a7578283fd5b8301601f8082018613620001b9578384fd5b620001c5604062000244565b8083865b60028110156200023657815186018a86820112620001e5578889fd5b8051620001fc620001f6826200026b565b62000244565b8181528c8a83850101111562000210578a8bfd5b62000221828b83018c86016200028f565b865250509286019290860190600101620001c9565b509098975050505050505050565b6040518181016001600160401b03811182821017156200026357600080fd5b604052919050565b60006001600160401b0382111562000281578081fd5b50601f01601f191660200190565b60005b83811015620002ac57818101518382015260200162000292565b83811115620002bc576000848401525b50505050565b60805160a05160c05160e051610b1a620002f86000398061047c52508061073e52508061078052508061075f5250610b1a6000f3fe608060405234801561001057600080fd5b50600436106100ea5760003560e01c806370a082311161008c578063a9059cbb11610066578063a9059cbb146101b3578063d505accf146101c6578063d73dd623146101db578063dd62ed3e146101ee576100ea565b806370a08231146101855780637ecebe001461019857806395d89b41146101ab576100ea565b806323b872dd116100c857806323b872dd14610142578063313ce567146101555780633644e5151461016a5780636618846314610172576100ea565b806306fdde03146100ef578063095ea7b31461010d57806318160ddd1461012d575b600080fd5b6100f7610201565b6040516101049190610a83565b60405180910390f35b61012061011b3660046109ac565b610297565b60405161010491906109f1565b6101356102ae565b60405161010491906109fc565b6101206101503660046108fc565b6102b4565b61015d610335565b6040516101049190610ad6565b61013561033a565b6101206101803660046109ac565b610349565b6101356101933660046108ad565b6103a3565b6101356101a63660046108ad565b6103be565b6100f76103d9565b6101206101c13660046109ac565b61043a565b6101d96101d4366004610939565b610447565b005b6101206101e93660046109ac565b610590565b6101356101fc3660046108c8565b6105c6565b60038054604080516020601f600260001961010060018816150201909516949094049384018190048102820181019092528281526060939092909183018282801561028d5780601f106102625761010080835404028352916020019161028d565b820191906000526020600020905b81548152906001019060200180831161027057829003601f168201915b5050505050905090565b60006102a43384846105f1565b5060015b92915050565b60025490565b6001600160a01b038316600081815260016020908152604080832033808552925282205491926102f29114806102ea5750838210155b610197610659565b6102fd85858561066b565b336001600160a01b0386161480159061031857506000198114155b1561032a5761032a85338584036105f1565b506001949350505050565b601290565b600061034461073a565b905090565b3360009081526001602090815260408083206001600160a01b038616845290915281205480831061038557610380338560006105f1565b610399565b610399338561039484876107d7565b6105f1565b5060019392505050565b6001600160a01b031660009081526020819052604090205490565b6001600160a01b031660009081526005602052604090205490565b60048054604080516020601f600260001961010060018816150201909516949094049384018190048102820181019092528281526060939092909183018282801561028d5780601f106102625761010080835404028352916020019161028d565b60006102a433848461066b565b6104558442111560d1610659565b6001600160a01b03871660009081526005602090815260408083205490519092916104ac917f0000000000000000000000000000000000000000000000000000000000000000918c918c918c9188918d9101610a05565b60405160208183030381529060405280519060200120905060006104cf826107ed565b90506000600182888888604051600081526020016040526040516104f69493929190610a65565b6020604051602081039080840390855afa158015610518573d6000803e3d6000fd5b5050604051601f190151915061055a90506001600160a01b0382161580159061055257508b6001600160a01b0316826001600160a01b0316145b6101f8610659565b6001600160a01b038b1660009081526005602052604090206001850190556105838b8b8b6105f1565b5050505050505050505050565b3360008181526001602090815260408083206001600160a01b038716845290915281205490916102a49185906103949086610826565b6001600160a01b03918216600090815260016020908152604080832093909416825291909152205490565b6001600160a01b0380841660008181526001602090815260408083209487168084529490915290819020849055517f8c5be1e5ebec7d5bd14f71427d1e84f3dd0314c0f7b2291e5b200ac8c7c3b9259061064c9085906109fc565b60405180910390a3505050565b81610667576106678161083f565b5050565b6001600160a01b03831660009081526020819052604090205461069382821015610196610659565b6106aa6001600160a01b0384161515610199610659565b6001600160a01b038085166000908152602081905260408082208585039055918516815220546106da9083610826565b6001600160a01b0380851660008181526020819052604090819020939093559151908616907fddf252ad1be2c89b69c2b068fc378daa952ba7f163c4a11628f55a4df523b3ef9061072c9086906109fc565b60405180910390a350505050565b60007f00000000000000000000000000000000000000000000000000000000000000007f00000000000000000000000000000000000000000000000000000000000000007f00000000000000000000000000000000000000000000000000000000000000006107a7610892565b306040516020016107bc959493929190610a39565b60405160208183030381529060405280519060200120905090565b60006107e7838311156001610659565b50900390565b60006107f761073a565b826040516020016108099291906109d6565b604051602081830303815290604052805190602001209050919050565b60008282016108388482101583610659565b9392505050565b62461bcd60e51b6000908152602060045260076024526642414c23000030600a808404818106603090810160081b95839006959095019082900491820690940160101b939093010160c81b604452606490fd5b4690565b80356001600160a01b03811681146102a857600080fd5b6000602082840312156108be578081fd5b6108388383610896565b600080604083850312156108da578081fd5b6108e48484610896565b91506108f38460208501610896565b90509250929050565b600080600060608486031215610910578081fd5b61091a8585610896565b92506109298560208601610896565b9150604084013590509250925092565b600080600080600080600060e0888a031215610953578283fd5b61095d8989610896565b965061096c8960208a01610896565b95506040880135945060608801359350608088013560ff8116811461098f578384fd5b9699959850939692959460a0840135945060c09093013592915050565b600080604083850312156109be578182fd5b6109c88484610896565b946020939093013593505050565b61190160f01b81526002810192909252602282015260420190565b901515815260200190565b90815260200190565b9586526001600160a01b0394851660208701529290931660408501526060840152608083019190915260a082015260c00190565b9485526020850193909352604084019190915260608301526001600160a01b0316608082015260a00190565b93845260ff9290921660208401526040830152606082015260800190565b6000602080835283518082850152825b81811015610aaf57858101830151858201604001528201610a93565b81811115610ac05783604083870101525b50601f01601f1916929092016040019392505050565b60ff9190911681526020019056fea26469706673582212209ea5d32f4baa202ea968f2631685397815ff1c41967ea028fe59e85d957c126c64736f6c63430007010033",
  "linkReferences": {},
  "deployedLinkReferences": {}
}