{
  "contracts/oldV3Factory/BMath.sol": {
    "BMath": {
      "abi": [
        {
          "constant": true,
          "inputs": [],
          "name": "MAX_TOTAL_WEIGHT",
          "outputs": [
            {
              "name": "",
              "type": "uint256"
            }
          ],
          "payable": false,
          "stateMutability": "view",
          "type": "function"
        },
        {
          "constant": true,
          "inputs": [],
          "name": "BPOW_PRECISION",
          "outputs": [
            {
              "name": "",
              "type": "uint256"
            }
          ],
          "payable": false,
          "stateMutability": "view",
          "type": "function"
        },
        {
          "constant": true,
          "inputs": [],
          "name": "MIN_WEIGHT",
          "outputs": [
            {
              "name": "",
              "type": "uint256"
            }
          ],
          "payable": false,
          "stateMutability": "view",
          "type": "function"
        },
        {
          "constant": true,
          "inputs": [
            {
              "name": "tokenBalanceIn",
              "type": "uint256"
            },
            {
              "name": "tokenWeightIn",
              "type": "uint256"
            },
            {
              "name": "poolSupply",
              "type": "uint256"
            },
            {
              "name": "totalWeight",
              "type": "uint256"
            },
            {
              "name": "poolAmountOut",
              "type": "uint256"
            },
            {
              "name": "swapFee",
              "type": "uint256"
            }
          ],
          "name": "calcSingleInGivenPoolOut",
          "outputs": [
            {
              "name": "tokenAmountIn",
              "type": "uint256"
            }
          ],
          "payable": false,
          "stateMutability": "pure",
          "type": "function"
        },
        {
          "constant": true,
          "inputs": [],
          "name": "MIN_FEE",
          "outputs": [
            {
              "name": "",
              "type": "uint256"
            }
          ],
          "payable": false,
          "stateMutability": "view",
          "type": "function"
        },
        {
          "constant": true,
          "inputs": [
            {
              "name": "tokenBalanceOut",
              "type": "uint256"
            },
            {
              "name": "tokenWeightOut",
              "type": "uint256"
            },
            {
              "name": "poolSupply",
              "type": "uint256"
            },
            {
              "name": "totalWeight",
              "type": "uint256"
            },
            {
              "name": "tokenAmountOut",
              "type": "uint256"
            },
            {
              "name": "swapFee",
              "type": "uint256"
            }
          ],
          "name": "calcPoolInGivenSingleOut",
          "outputs": [
            {
              "name": "poolAmountIn",
              "type": "uint256"
            }
          ],
          "payable": false,
          "stateMutability": "pure",
          "type": "function"
        },
        {
          "constant": true,
          "inputs": [
            {
              "name": "tokenBalanceIn",
              "type": "uint256"
            },
            {
              "name": "tokenWeightIn",
              "type": "uint256"
            },
            {
              "name": "poolSupply",
              "type": "uint256"
            },
            {
              "name": "totalWeight",
              "type": "uint256"
            },
            {
              "name": "tokenAmountIn",
              "type": "uint256"
            },
            {
              "name": "swapFee",
              "type": "uint256"
            }
          ],
          "name": "calcPoolOutGivenSingleIn",
          "outputs": [
            {
              "name": "poolAmountOut",
              "type": "uint256"
            }
          ],
          "payable": false,
          "stateMutability": "pure",
          "type": "function"
        },
        {
          "constant": true,
          "inputs": [],
          "name": "MIN_BALANCE",
          "outputs": [
            {
              "name": "",
              "type": "uint256"
            }
          ],
          "payable": false,
          "stateMutability": "view",
          "type": "function"
        },
        {
          "constant": true,
          "inputs": [
            {
              "name": "tokenBalanceOut",
              "type": "uint256"
            },
            {
              "name": "tokenWeightOut",
              "type": "uint256"
            },
            {
              "name": "poolSupply",
              "type": "uint256"
            },
            {
              "name": "totalWeight",
              "type": "uint256"
            },
            {
              "name": "poolAmountIn",
              "type": "uint256"
            },
            {
              "name": "swapFee",
              "type": "uint256"
            }
          ],
          "name": "calcSingleOutGivenPoolIn",
          "outputs": [
            {
              "name": "tokenAmountOut",
              "type": "uint256"
            }
          ],
          "payable": false,
          "stateMutability": "pure",
          "type": "function"
        },
        {
          "constant": true,
          "inputs": [],
          "name": "INIT_POOL_SUPPLY",
          "outputs": [
            {
              "name": "",
              "type": "uint256"
            }
          ],
          "payable": false,
          "stateMutability": "view",
          "type": "function"
        },
        {
          "constant": true,
          "inputs": [],
          "name": "MAX_OUT_RATIO",
          "outputs": [
            {
              "name": "",
              "type": "uint256"
            }
          ],
          "payable": false,
          "stateMutability": "view",
          "type": "function"
        },
        {
          "constant": true,
          "inputs": [
            {
              "name": "tokenBalanceIn",
              "type": "uint256"
            },
            {
              "name": "tokenWeightIn",
              "type": "uint256"
            },
            {
              "name": "tokenBalanceOut",
              "type": "uint256"
            },
            {
              "name": "tokenWeightOut",
              "type": "uint256"
            },
            {
              "name": "swapFee",
              "type": "uint256"
            }
          ],
          "name": "calcSpotPrice",
          "outputs": [
            {
              "name": "spotPrice",
              "type": "uint256"
            }
          ],
          "payable": false,
          "stateMutability": "pure",
          "type": "function"
        },
        {
          "constant": true,
          "inputs": [],
          "name": "MAX_BOUND_TOKENS",
          "outputs": [
            {
              "name": "",
              "type": "uint256"
            }
          ],
          "payable": false,
          "stateMutability": "view",
          "type": "function"
        },
        {
          "constant": true,
          "inputs": [],
          "name": "MIN_BOUND_TOKENS",
          "outputs": [
            {
              "name": "",
              "type": "uint256"
            }
          ],
          "payable": false,
          "stateMutability": "view",
          "type": "function"
        },
        {
          "constant": true,
          "inputs": [],
          "name": "MIN_BPOW_BASE",
          "outputs": [
            {
              "name": "",
              "type": "uint256"
            }
          ],
          "payable": false,
          "stateMutability": "view",
          "type": "function"
        },
        {
          "constant": true,
          "inputs": [
            {
              "name": "tokenBalanceIn",
              "type": "uint256"
            },
            {
              "name": "tokenWeightIn",
              "type": "uint256"
            },
            {
              "name": "tokenBalanceOut",
              "type": "uint256"
            },
            {
              "name": "tokenWeightOut",
              "type": "uint256"
            },
            {
              "name": "tokenAmountIn",
              "type": "uint256"
            },
            {
              "name": "swapFee",
              "type": "uint256"
            }
          ],
          "name": "calcOutGivenIn",
          "outputs": [
            {
              "name": "tokenAmountOut",
              "type": "uint256"
            }
          ],
          "payable": false,
          "stateMutability": "pure",
          "type": "function"
        },
        {
          "constant": true,
          "inputs": [],
          "name": "MAX_FEE",
          "outputs": [
            {
              "name": "",
              "type": "uint256"
            }
          ],
          "payable": false,
          "stateMutability": "view",
          "type": "function"
        },
        {
          "constant": true,
          "inputs": [],
          "name": "MAX_BPOW_BASE",
          "outputs": [
            {
              "name": "",
              "type": "uint256"
            }
          ],
          "payable": false,
          "stateMutability": "view",
          "type": "function"
        },
        {
          "constant": true,
          "inputs": [],
          "name": "BONE",
          "outputs": [
            {
              "name": "",
              "type": "uint256"
            }
          ],
          "payable": false,
          "stateMutability": "view",
          "type": "function"
        },
        {
          "constant": true,
          "inputs": [],
          "name": "EXIT_FEE",
          "outputs": [
            {
              "name": "",
              "type": "uint256"
            }
          ],
          "payable": false,
          "stateMutability": "view",
          "type": "function"
        },
        {
          "constant": true,
          "inputs": [],
          "name": "MAX_WEIGHT",
          "outputs": [
            {
              "name": "",
              "type": "uint256"
            }
          ],
          "payable": false,
          "stateMutability": "view",
          "type": "function"
        },
        {
          "constant": true,
          "inputs": [],
          "name": "MAX_IN_RATIO",
          "outputs": [
            {
              "name": "",
              "type": "uint256"
            }
          ],
          "payable": false,
          "stateMutability": "view",
          "type": "function"
        },
        {
          "constant": true,
          "inputs": [
            {
              "name": "tokenBalanceIn",
              "type": "uint256"
            },
            {
              "name": "tokenWeightIn",
              "type": "uint256"
            },
            {
              "name": "tokenBalanceOut",
              "type": "uint256"
            },
            {
              "name": "tokenWeightOut",
              "type": "uint256"
            },
            {
              "name": "tokenAmountOut",
              "type": "uint256"
            },
            {
              "name": "swapFee",
              "type": "uint256"
            }
          ],
          "name": "calcInGivenOut",
          "outputs": [
            {
              "name": "tokenAmountIn",
              "type": "uint256"
            }
          ],
          "payable": false,
          "stateMutability": "pure",
          "type": "function"
        }
      ],
      "evm": {
        "bytecode": {
          "linkReferences": {},
          "object": "608060405234801561001057600080fd5b50610dfb806100206000396000f3fe608060405234801561001057600080fd5b506004361061014d5760003560e01c8063a221ee49116100c3578063bc694ea21161007c578063bc694ea214610318578063c36596a614610174578063c6580d1214610320578063e4a28a5214610152578063ec09302114610328578063f8d6aed4146103305761014d565b8063a221ee4914610288578063b0e0d136146102bd578063b7b800a4146102c5578063ba019dab146102cd578063ba9530a6146102d5578063bc063e1a146103105761014d565b806382f652ad1161011557806382f652ad146101bf5780638656b653146101fa578063867378c514610235578063892980121461023d5780639381cd2b14610278578063992e2a92146102805761014d565b806309a3bbe414610152578063189d00ca1461016c578063218b5382146101745780635c1bbaf71461017c57806376c7a3c7146101b7575b600080fd5b61015a61036b565b60408051918252519081900360200190f35b61015a610378565b61015a61038c565b61015a600480360360c081101561019257600080fd5b5080359060208101359060408101359060608101359060808101359060a00135610398565b61015a610450565b61015a600480360360c08110156101d557600080fd5b5080359060208101359060408101359060608101359060808101359060a00135610462565b61015a600480360360c081101561021057600080fd5b5080359060208101359060408101359060608101359060808101359060a00135610521565b61015a6105c2565b61015a600480360360c081101561025357600080fd5b5080359060208101359060408101359060608101359060808101359060a001356105d6565b61015a610686565b61015a610693565b61015a600480360360a081101561029e57600080fd5b508035906020810135906040810135906060810135906080013561069f565b61015a610704565b61015a610709565b61015a61070e565b61015a600480360360c08110156102eb57600080fd5b5080359060208101359060408101359060608101359060808101359060a00135610713565b61015a610794565b61015a6107a4565b61015a6107b0565b61015a6107b5565b61015a600480360360c081101561034657600080fd5b5080359060208101359060408101359060608101359060808101359060a001356107c5565b6802b5e3af16b188000081565b6402540be400670de0b6b3a76400005b0481565b670de0b6b3a764000081565b6000806103a58786610848565b905060006103b3878661097d565b905060006103c18289610848565b905060006103d7670de0b6b3a764000085610848565b905060006103e583836109e1565b905060006103f3828e610b04565b90506000610401828f610bd2565b9050600061042061041a670de0b6b3a76400008a610bd2565b8b610b04565b905061043d82610438670de0b6b3a764000084610bd2565b610848565b9f9e505050505050505050505050505050565b620f4240670de0b6b3a7640000610388565b60008061046f8786610848565b90506000610485670de0b6b3a764000083610bd2565b905060006104938286610b04565b905060006104ad87610438670de0b6b3a764000085610bd2565b905060006104bb8c83610bd2565b905060006104c9828e610848565b905060006104d782886109e1565b905060006104e5828e610b04565b905060006104f38e83610bd2565b905061050c81610438670de0b6b3a76400006000610bd2565b99505050505050505050509695505050505050565b60008061052e8786610848565b9050600061054d610547670de0b6b3a764000084610bd2565b85610b04565b9050600061056c86610567670de0b6b3a764000085610bd2565b610b04565b9050600061057a8b8361097d565b90506000610588828d610848565b9050600061059682876109e1565b905060006105a4828d610b04565b90506105b0818d610bd2565b9e9d5050505050505050505050505050565b64e8d4a51000670de0b6b3a7640000610388565b6000806105e38786610848565b905060006105fe85610567670de0b6b3a76400006000610bd2565b9050600061060c8883610bd2565b9050600061061a828a610848565b9050600061063982610634670de0b6b3a764000088610848565b6109e1565b90506000610647828e610b04565b905060006106558e83610bd2565b9050600061066e61041a670de0b6b3a76400008a610bd2565b905061043d82610567670de0b6b3a764000084610bd2565b68056bc75e2d6310000081565b6704a03ce68d21555681565b6000806106ac8787610848565b905060006106ba8686610848565b905060006106c88383610848565b905060006106ea670de0b6b3a7640000610438670de0b6b3a764000089610bd2565b90506106f68282610b04565b9a9950505050505050505050565b600881565b600281565b600181565b6000806107208786610848565b90506000610736670de0b6b3a764000085610bd2565b90506107428582610b04565b905060006107548a6104388c8561097d565b9050600061076282856109e1565b90506000610778670de0b6b3a764000083610bd2565b90506107848a82610b04565b9c9b505050505050505050505050565b600a670de0b6b3a7640000610388565b671bc16d674ec7ffff81565b600081565b6002670de0b6b3a7640000610388565b6000806107d28588610848565b905060006107e08786610bd2565b905060006107ee8883610848565b905060006107fc82856109e1565b905061081081670de0b6b3a7640000610bd2565b9050610824670de0b6b3a764000087610bd2565b94506108396108338c83610b04565b86610848565b9b9a5050505050505050505050565b60008161089f5760408051600160e51b62461bcd02815260206004820152600c60248201527f4552525f4449565f5a45524f0000000000000000000000000000000000000000604482015290519081900360640190fd5b670de0b6b3a764000083028315806108c75750670de0b6b3a76400008482816108c457fe5b04145b6109115760408051600160e51b62461bcd0281526020600482015260106024820152600160821b6f11549497d1125597d25395115493905302604482015290519081900360640190fd5b600283048101818110156109655760408051600160e51b62461bcd0281526020600482015260106024820152600160821b6f11549497d1125597d25395115493905302604482015290519081900360640190fd5b600084828161097057fe5b0493505050505b92915050565b6000828201838110156109da5760408051600160e51b62461bcd02815260206004820152601060248201527f4552525f4144445f4f564552464c4f5700000000000000000000000000000000604482015290519081900360640190fd5b9392505050565b60006001831015610a3c5760408051600160e51b62461bcd02815260206004820152601560248201527f4552525f42504f575f424153455f544f4f5f4c4f570000000000000000000000604482015290519081900360640190fd5b671bc16d674ec7ffff831115610a9c5760408051600160e51b62461bcd02815260206004820152601660248201527f4552525f42504f575f424153455f544f4f5f4849474800000000000000000000604482015290519081900360640190fd5b6000610aa783610c43565b90506000610ab58483610bd2565b90506000610acb86610ac685610c5e565b610c6c565b905081610adc579250610977915050565b6000610aed87846305f5e100610ccc565b9050610af98282610b04565b979650505050505050565b6000828202831580610b1e575082848281610b1b57fe5b04145b610b685760408051600160e51b62461bcd0281526020600482015260106024820152600160801b6f4552525f4d554c5f4f564552464c4f5702604482015290519081900360640190fd5b6706f05b59d3b20000810181811015610bc15760408051600160e51b62461bcd0281526020600482015260106024820152600160801b6f4552525f4d554c5f4f564552464c4f5702604482015290519081900360640190fd5b6000670de0b6b3a764000082610970565b6000806000610be18585610daa565b915091508015610c3b5760408051600160e51b62461bcd02815260206004820152601160248201527f4552525f5355425f554e444552464c4f57000000000000000000000000000000604482015290519081900360640190fd5b509392505050565b6000670de0b6b3a7640000610c5783610c5e565b0292915050565b670de0b6b3a7640000900490565b6000828160028406610c8657670de0b6b3a7640000610c88565b815b90506002840493505b8315610cc457610ca18283610b04565b91506002840615610cb957610cb68183610b04565b90505b600284049350610c91565b949350505050565b6000828180610ce387670de0b6b3a7640000610daa565b9092509050670de0b6b3a764000080600060015b888410610d9b576000670de0b6b3a764000082029050600080610d2b8a610d2685670de0b6b3a7640000610bd2565b610daa565b91509150610d3d87610567848c610b04565b9650610d498784610848565b965086610d5857505050610d9b565b8715610d62579315935b8015610d6c579315935b8415610d8357610d7c8688610bd2565b9550610d90565b610d8d868861097d565b95505b505050600101610cf7565b50909998505050505050505050565b600080828410610dc05750508082036000610dc8565b505081810360015b925092905056fea165627a7a723058207430a5953bf3461ce0ac5b3cbdb2f319d70f7831b4584445f88daf53d8ace8490029",
          "opcodes": "PUSH1 0x80 PUSH1 0x40 MSTORE CALLVALUE DUP1 ISZERO PUSH2 0x10 JUMPI PUSH1 0x0 DUP1 REVERT JUMPDEST POP PUSH2 0xDFB DUP1 PUSH2 0x20 PUSH1 0x0 CODECOPY PUSH1 0x0 RETURN INVALID PUSH1 0x80 PUSH1 0x40 MSTORE CALLVALUE DUP1 ISZERO PUSH2 0x10 JUMPI PUSH1 0x0 DUP1 REVERT JUMPDEST POP PUSH1 0x4 CALLDATASIZE LT PUSH2 0x14D JUMPI PUSH1 0x0 CALLDATALOAD PUSH1 0xE0 SHR DUP1 PUSH4 0xA221EE49 GT PUSH2 0xC3 JUMPI DUP1 PUSH4 0xBC694EA2 GT PUSH2 0x7C JUMPI DUP1 PUSH4 0xBC694EA2 EQ PUSH2 0x318 JUMPI DUP1 PUSH4 0xC36596A6 EQ PUSH2 0x174 JUMPI DUP1 PUSH4 0xC6580D12 EQ PUSH2 0x320 JUMPI DUP1 PUSH4 0xE4A28A52 EQ PUSH2 0x152 JUMPI DUP1 PUSH4 0xEC093021 EQ PUSH2 0x328 JUMPI DUP1 PUSH4 0xF8D6AED4 EQ PUSH2 0x330 JUMPI PUSH2 0x14D JUMP JUMPDEST DUP1 PUSH4 0xA221EE49 EQ PUSH2 0x288 JUMPI DUP1 PUSH4 0xB0E0D136 EQ PUSH2 0x2BD JUMPI DUP1 PUSH4 0xB7B800A4 EQ PUSH2 0x2C5 JUMPI DUP1 PUSH4 0xBA019DAB EQ PUSH2 0x2CD JUMPI DUP1 PUSH4 0xBA9530A6 EQ PUSH2 0x2D5 JUMPI DUP1 PUSH4 0xBC063E1A EQ PUSH2 0x310 JUMPI PUSH2 0x14D JUMP JUMPDEST DUP1 PUSH4 0x82F652AD GT PUSH2 0x115 JUMPI DUP1 PUSH4 0x82F652AD EQ PUSH2 0x1BF JUMPI DUP1 PUSH4 0x8656B653 EQ PUSH2 0x1FA JUMPI DUP1 PUSH4 0x867378C5 EQ PUSH2 0x235 JUMPI DUP1 PUSH4 0x89298012 EQ PUSH2 0x23D JUMPI DUP1 PUSH4 0x9381CD2B EQ PUSH2 0x278 JUMPI DUP1 PUSH4 0x992E2A92 EQ PUSH2 0x280 JUMPI PUSH2 0x14D JUMP JUMPDEST DUP1 PUSH4 0x9A3BBE4 EQ PUSH2 0x152 JUMPI DUP1 PUSH4 0x189D00CA EQ PUSH2 0x16C JUMPI DUP1 PUSH4 0x218B5382 EQ PUSH2 0x174 JUMPI DUP1 PUSH4 0x5C1BBAF7 EQ PUSH2 0x17C JUMPI DUP1 PUSH4 0x76C7A3C7 EQ PUSH2 0x1B7 JUMPI JUMPDEST PUSH1 0x0 DUP1 REVERT JUMPDEST PUSH2 0x15A PUSH2 0x36B JUMP JUMPDEST PUSH1 0x40 DUP1 MLOAD SWAP2 DUP3 MSTORE MLOAD SWAP1 DUP2 SWAP1 SUB PUSH1 0x20 ADD SWAP1 RETURN JUMPDEST PUSH2 0x15A PUSH2 0x378 JUMP JUMPDEST PUSH2 0x15A PUSH2 0x38C JUMP JUMPDEST PUSH2 0x15A PUSH1 0x4 DUP1 CALLDATASIZE SUB PUSH1 0xC0 DUP2 LT ISZERO PUSH2 0x192 JUMPI PUSH1 0x0 DUP1 REVERT JUMPDEST POP DUP1 CALLDATALOAD SWAP1 PUSH1 0x20 DUP2 ADD CALLDATALOAD SWAP1 PUSH1 0x40 DUP2 ADD CALLDATALOAD SWAP1 PUSH1 0x60 DUP2 ADD CALLDATALOAD SWAP1 PUSH1 0x80 DUP2 ADD CALLDATALOAD SWAP1 PUSH1 0xA0 ADD CALLDATALOAD PUSH2 0x398 JUMP JUMPDEST PUSH2 0x15A PUSH2 0x450 JUMP JUMPDEST PUSH2 0x15A PUSH1 0x4 DUP1 CALLDATASIZE SUB PUSH1 0xC0 DUP2 LT ISZERO PUSH2 0x1D5 JUMPI PUSH1 0x0 DUP1 REVERT JUMPDEST POP DUP1 CALLDATALOAD SWAP1 PUSH1 0x20 DUP2 ADD CALLDATALOAD SWAP1 PUSH1 0x40 DUP2 ADD CALLDATALOAD SWAP1 PUSH1 0x60 DUP2 ADD CALLDATALOAD SWAP1 PUSH1 0x80 DUP2 ADD CALLDATALOAD SWAP1 PUSH1 0xA0 ADD CALLDATALOAD PUSH2 0x462 JUMP JUMPDEST PUSH2 0x15A PUSH1 0x4 DUP1 CALLDATASIZE SUB PUSH1 0xC0 DUP2 LT ISZERO PUSH2 0x210 JUMPI PUSH1 0x0 DUP1 REVERT JUMPDEST POP DUP1 CALLDATALOAD SWAP1 PUSH1 0x20 DUP2 ADD CALLDATALOAD SWAP1 PUSH1 0x40 DUP2 ADD CALLDATALOAD SWAP1 PUSH1 0x60 DUP2 ADD CALLDATALOAD SWAP1 PUSH1 0x80 DUP2 ADD CALLDATALOAD SWAP1 PUSH1 0xA0 ADD CALLDATALOAD PUSH2 0x521 JUMP JUMPDEST PUSH2 0x15A PUSH2 0x5C2 JUMP JUMPDEST PUSH2 0x15A PUSH1 0x4 DUP1 CALLDATASIZE SUB PUSH1 0xC0 DUP2 LT ISZERO PUSH2 0x253 JUMPI PUSH1 0x0 DUP1 REVERT JUMPDEST POP DUP1 CALLDATALOAD SWAP1 PUSH1 0x20 DUP2 ADD CALLDATALOAD SWAP1 PUSH1 0x40 DUP2 ADD CALLDATALOAD SWAP1 PUSH1 0x60 DUP2 ADD CALLDATALOAD SWAP1 PUSH1 0x80 DUP2 ADD CALLDATALOAD SWAP1 PUSH1 0xA0 ADD CALLDATALOAD PUSH2 0x5D6 JUMP JUMPDEST PUSH2 0x15A PUSH2 0x686 JUMP JUMPDEST PUSH2 0x15A PUSH2 0x693 JUMP JUMPDEST PUSH2 0x15A PUSH1 0x4 DUP1 CALLDATASIZE SUB PUSH1 0xA0 DUP2 LT ISZERO PUSH2 0x29E JUMPI PUSH1 0x0 DUP1 REVERT JUMPDEST POP DUP1 CALLDATALOAD SWAP1 PUSH1 0x20 DUP2 ADD CALLDATALOAD SWAP1 PUSH1 0x40 DUP2 ADD CALLDATALOAD SWAP1 PUSH1 0x60 DUP2 ADD CALLDATALOAD SWAP1 PUSH1 0x80 ADD CALLDATALOAD PUSH2 0x69F JUMP JUMPDEST PUSH2 0x15A PUSH2 0x704 JUMP JUMPDEST PUSH2 0x15A PUSH2 0x709 JUMP JUMPDEST PUSH2 0x15A PUSH2 0x70E JUMP JUMPDEST PUSH2 0x15A PUSH1 0x4 DUP1 CALLDATASIZE SUB PUSH1 0xC0 DUP2 LT ISZERO PUSH2 0x2EB JUMPI PUSH1 0x0 DUP1 REVERT JUMPDEST POP DUP1 CALLDATALOAD SWAP1 PUSH1 0x20 DUP2 ADD CALLDATALOAD SWAP1 PUSH1 0x40 DUP2 ADD CALLDATALOAD SWAP1 PUSH1 0x60 DUP2 ADD CALLDATALOAD SWAP1 PUSH1 0x80 DUP2 ADD CALLDATALOAD SWAP1 PUSH1 0xA0 ADD CALLDATALOAD PUSH2 0x713 JUMP JUMPDEST PUSH2 0x15A PUSH2 0x794 JUMP JUMPDEST PUSH2 0x15A PUSH2 0x7A4 JUMP JUMPDEST PUSH2 0x15A PUSH2 0x7B0 JUMP JUMPDEST PUSH2 0x15A PUSH2 0x7B5 JUMP JUMPDEST PUSH2 0x15A PUSH1 0x4 DUP1 CALLDATASIZE SUB PUSH1 0xC0 DUP2 LT ISZERO PUSH2 0x346 JUMPI PUSH1 0x0 DUP1 REVERT JUMPDEST POP DUP1 CALLDATALOAD SWAP1 PUSH1 0x20 DUP2 ADD CALLDATALOAD SWAP1 PUSH1 0x40 DUP2 ADD CALLDATALOAD SWAP1 PUSH1 0x60 DUP2 ADD CALLDATALOAD SWAP1 PUSH1 0x80 DUP2 ADD CALLDATALOAD SWAP1 PUSH1 0xA0 ADD CALLDATALOAD PUSH2 0x7C5 JUMP JUMPDEST PUSH9 0x2B5E3AF16B1880000 DUP2 JUMP JUMPDEST PUSH5 0x2540BE400 PUSH8 0xDE0B6B3A7640000 JUMPDEST DIV DUP2 JUMP JUMPDEST PUSH8 0xDE0B6B3A7640000 DUP2 JUMP JUMPDEST PUSH1 0x0 DUP1 PUSH2 0x3A5 DUP8 DUP7 PUSH2 0x848 JUMP JUMPDEST SWAP1 POP PUSH1 0x0 PUSH2 0x3B3 DUP8 DUP7 PUSH2 0x97D JUMP JUMPDEST SWAP1 POP PUSH1 0x0 PUSH2 0x3C1 DUP3 DUP10 PUSH2 0x848 JUMP JUMPDEST SWAP1 POP PUSH1 0x0 PUSH2 0x3D7 PUSH8 0xDE0B6B3A7640000 DUP6 PUSH2 0x848 JUMP JUMPDEST SWAP1 POP PUSH1 0x0 PUSH2 0x3E5 DUP4 DUP4 PUSH2 0x9E1 JUMP JUMPDEST SWAP1 POP PUSH1 0x0 PUSH2 0x3F3 DUP3 DUP15 PUSH2 0xB04 JUMP JUMPDEST SWAP1 POP PUSH1 0x0 PUSH2 0x401 DUP3 DUP16 PUSH2 0xBD2 JUMP JUMPDEST SWAP1 POP PUSH1 0x0 PUSH2 0x420 PUSH2 0x41A PUSH8 0xDE0B6B3A7640000 DUP11 PUSH2 0xBD2 JUMP JUMPDEST DUP12 PUSH2 0xB04 JUMP JUMPDEST SWAP1 POP PUSH2 0x43D DUP3 PUSH2 0x438 PUSH8 0xDE0B6B3A7640000 DUP5 PUSH2 0xBD2 JUMP JUMPDEST PUSH2 0x848 JUMP JUMPDEST SWAP16 SWAP15 POP POP POP POP POP POP POP POP POP POP POP POP POP POP POP JUMP JUMPDEST PUSH3 0xF4240 PUSH8 0xDE0B6B3A7640000 PUSH2 0x388 JUMP JUMPDEST PUSH1 0x0 DUP1 PUSH2 0x46F DUP8 DUP7 PUSH2 0x848 JUMP JUMPDEST SWAP1 POP PUSH1 0x0 PUSH2 0x485 PUSH8 0xDE0B6B3A7640000 DUP4 PUSH2 0xBD2 JUMP JUMPDEST SWAP1 POP PUSH1 0x0 PUSH2 0x493 DUP3 DUP7 PUSH2 0xB04 JUMP JUMPDEST SWAP1 POP PUSH1 0x0 PUSH2 0x4AD DUP8 PUSH2 0x438 PUSH8 0xDE0B6B3A7640000 DUP6 PUSH2 0xBD2 JUMP JUMPDEST SWAP1 POP PUSH1 0x0 PUSH2 0x4BB DUP13 DUP4 PUSH2 0xBD2 JUMP JUMPDEST SWAP1 POP PUSH1 0x0 PUSH2 0x4C9 DUP3 DUP15 PUSH2 0x848 JUMP JUMPDEST SWAP1 POP PUSH1 0x0 PUSH2 0x4D7 DUP3 DUP9 PUSH2 0x9E1 JUMP JUMPDEST SWAP1 POP PUSH1 0x0 PUSH2 0x4E5 DUP3 DUP15 PUSH2 0xB04 JUMP JUMPDEST SWAP1 POP PUSH1 0x0 PUSH2 0x4F3 DUP15 DUP4 PUSH2 0xBD2 JUMP JUMPDEST SWAP1 POP PUSH2 0x50C DUP2 PUSH2 0x438 PUSH8 0xDE0B6B3A7640000 PUSH1 0x0 PUSH2 0xBD2 JUMP JUMPDEST SWAP10 POP POP POP POP POP POP POP POP POP POP SWAP7 SWAP6 POP POP POP POP POP POP JUMP JUMPDEST PUSH1 0x0 DUP1 PUSH2 0x52E DUP8 DUP7 PUSH2 0x848 JUMP JUMPDEST SWAP1 POP PUSH1 0x0 PUSH2 0x54D PUSH2 0x547 PUSH8 0xDE0B6B3A7640000 DUP5 PUSH2 0xBD2 JUMP JUMPDEST DUP6 PUSH2 0xB04 JUMP JUMPDEST SWAP1 POP PUSH1 0x0 PUSH2 0x56C DUP7 PUSH2 0x567 PUSH8 0xDE0B6B3A7640000 DUP6 PUSH2 0xBD2 JUMP JUMPDEST PUSH2 0xB04 JUMP JUMPDEST SWAP1 POP PUSH1 0x0 PUSH2 0x57A DUP12 DUP4 PUSH2 0x97D JUMP JUMPDEST SWAP1 POP PUSH1 0x0 PUSH2 0x588 DUP3 DUP14 PUSH2 0x848 JUMP JUMPDEST SWAP1 POP PUSH1 0x0 PUSH2 0x596 DUP3 DUP8 PUSH2 0x9E1 JUMP JUMPDEST SWAP1 POP PUSH1 0x0 PUSH2 0x5A4 DUP3 DUP14 PUSH2 0xB04 JUMP JUMPDEST SWAP1 POP PUSH2 0x5B0 DUP2 DUP14 PUSH2 0xBD2 JUMP JUMPDEST SWAP15 SWAP14 POP POP POP POP POP POP POP POP POP POP POP POP POP POP JUMP JUMPDEST PUSH5 0xE8D4A51000 PUSH8 0xDE0B6B3A7640000 PUSH2 0x388 JUMP JUMPDEST PUSH1 0x0 DUP1 PUSH2 0x5E3 DUP8 DUP7 PUSH2 0x848 JUMP JUMPDEST SWAP1 POP PUSH1 0x0 PUSH2 0x5FE DUP6 PUSH2 0x567 PUSH8 0xDE0B6B3A7640000 PUSH1 0x0 PUSH2 0xBD2 JUMP JUMPDEST SWAP1 POP PUSH1 0x0 PUSH2 0x60C DUP9 DUP4 PUSH2 0xBD2 JUMP JUMPDEST SWAP1 POP PUSH1 0x0 PUSH2 0x61A DUP3 DUP11 PUSH2 0x848 JUMP JUMPDEST SWAP1 POP PUSH1 0x0 PUSH2 0x639 DUP3 PUSH2 0x634 PUSH8 0xDE0B6B3A7640000 DUP9 PUSH2 0x848 JUMP JUMPDEST PUSH2 0x9E1 JUMP JUMPDEST SWAP1 POP PUSH1 0x0 PUSH2 0x647 DUP3 DUP15 PUSH2 0xB04 JUMP JUMPDEST SWAP1 POP PUSH1 0x0 PUSH2 0x655 DUP15 DUP4 PUSH2 0xBD2 JUMP JUMPDEST SWAP1 POP PUSH1 0x0 PUSH2 0x66E PUSH2 0x41A PUSH8 0xDE0B6B3A7640000 DUP11 PUSH2 0xBD2 JUMP JUMPDEST SWAP1 POP PUSH2 0x43D DUP3 PUSH2 0x567 PUSH8 0xDE0B6B3A7640000 DUP5 PUSH2 0xBD2 JUMP JUMPDEST PUSH9 0x56BC75E2D63100000 DUP2 JUMP JUMPDEST PUSH8 0x4A03CE68D215556 DUP2 JUMP JUMPDEST PUSH1 0x0 DUP1 PUSH2 0x6AC DUP8 DUP8 PUSH2 0x848 JUMP JUMPDEST SWAP1 POP PUSH1 0x0 PUSH2 0x6BA DUP7 DUP7 PUSH2 0x848 JUMP JUMPDEST SWAP1 POP PUSH1 0x0 PUSH2 0x6C8 DUP4 DUP4 PUSH2 0x848 JUMP JUMPDEST SWAP1 POP PUSH1 0x0 PUSH2 0x6EA PUSH8 0xDE0B6B3A7640000 PUSH2 0x438 PUSH8 0xDE0B6B3A7640000 DUP10 PUSH2 0xBD2 JUMP JUMPDEST SWAP1 POP PUSH2 0x6F6 DUP3 DUP3 PUSH2 0xB04 JUMP JUMPDEST SWAP11 SWAP10 POP POP POP POP POP POP POP POP POP POP JUMP JUMPDEST PUSH1 0x8 DUP2 JUMP JUMPDEST PUSH1 0x2 DUP2 JUMP JUMPDEST PUSH1 0x1 DUP2 JUMP JUMPDEST PUSH1 0x0 DUP1 PUSH2 0x720 DUP8 DUP7 PUSH2 0x848 JUMP JUMPDEST SWAP1 POP PUSH1 0x0 PUSH2 0x736 PUSH8 0xDE0B6B3A7640000 DUP6 PUSH2 0xBD2 JUMP JUMPDEST SWAP1 POP PUSH2 0x742 DUP6 DUP3 PUSH2 0xB04 JUMP JUMPDEST SWAP1 POP PUSH1 0x0 PUSH2 0x754 DUP11 PUSH2 0x438 DUP13 DUP6 PUSH2 0x97D JUMP JUMPDEST SWAP1 POP PUSH1 0x0 PUSH2 0x762 DUP3 DUP6 PUSH2 0x9E1 JUMP JUMPDEST SWAP1 POP PUSH1 0x0 PUSH2 0x778 PUSH8 0xDE0B6B3A7640000 DUP4 PUSH2 0xBD2 JUMP JUMPDEST SWAP1 POP PUSH2 0x784 DUP11 DUP3 PUSH2 0xB04 JUMP JUMPDEST SWAP13 SWAP12 POP POP POP POP POP POP POP POP POP POP POP POP JUMP JUMPDEST PUSH1 0xA PUSH8 0xDE0B6B3A7640000 PUSH2 0x388 JUMP JUMPDEST PUSH8 0x1BC16D674EC7FFFF DUP2 JUMP JUMPDEST PUSH1 0x0 DUP2 JUMP JUMPDEST PUSH1 0x2 PUSH8 0xDE0B6B3A7640000 PUSH2 0x388 JUMP JUMPDEST PUSH1 0x0 DUP1 PUSH2 0x7D2 DUP6 DUP9 PUSH2 0x848 JUMP JUMPDEST SWAP1 POP PUSH1 0x0 PUSH2 0x7E0 DUP8 DUP7 PUSH2 0xBD2 JUMP JUMPDEST SWAP1 POP PUSH1 0x0 PUSH2 0x7EE DUP9 DUP4 PUSH2 0x848 JUMP JUMPDEST SWAP1 POP PUSH1 0x0 PUSH2 0x7FC DUP3 DUP6 PUSH2 0x9E1 JUMP JUMPDEST SWAP1 POP PUSH2 0x810 DUP2 PUSH8 0xDE0B6B3A7640000 PUSH2 0xBD2 JUMP JUMPDEST SWAP1 POP PUSH2 0x824 PUSH8 0xDE0B6B3A7640000 DUP8 PUSH2 0xBD2 JUMP JUMPDEST SWAP5 POP PUSH2 0x839 PUSH2 0x833 DUP13 DUP4 PUSH2 0xB04 JUMP JUMPDEST DUP7 PUSH2 0x848 JUMP JUMPDEST SWAP12 SWAP11 POP POP POP POP POP POP POP POP POP POP POP JUMP JUMPDEST PUSH1 0x0 DUP2 PUSH2 0x89F JUMPI PUSH1 0x40 DUP1 MLOAD PUSH1 0x1 PUSH1 0xE5 SHL PUSH3 0x461BCD MUL DUP2 MSTORE PUSH1 0x20 PUSH1 0x4 DUP3 ADD MSTORE PUSH1 0xC PUSH1 0x24 DUP3 ADD MSTORE PUSH32 0x4552525F4449565F5A45524F0000000000000000000000000000000000000000 PUSH1 0x44 DUP3 ADD MSTORE SWAP1 MLOAD SWAP1 DUP2 SWAP1 SUB PUSH1 0x64 ADD SWAP1 REVERT JUMPDEST PUSH8 0xDE0B6B3A7640000 DUP4 MUL DUP4 ISZERO DUP1 PUSH2 0x8C7 JUMPI POP PUSH8 0xDE0B6B3A7640000 DUP5 DUP3 DUP2 PUSH2 0x8C4 JUMPI INVALID JUMPDEST DIV EQ JUMPDEST PUSH2 0x911 JUMPI PUSH1 0x40 DUP1 MLOAD PUSH1 0x1 PUSH1 0xE5 SHL PUSH3 0x461BCD MUL DUP2 MSTORE PUSH1 0x20 PUSH1 0x4 DUP3 ADD MSTORE PUSH1 0x10 PUSH1 0x24 DUP3 ADD MSTORE PUSH1 0x1 PUSH1 0x82 SHL PUSH16 0x11549497D1125597D253951154939053 MUL PUSH1 0x44 DUP3 ADD MSTORE SWAP1 MLOAD SWAP1 DUP2 SWAP1 SUB PUSH1 0x64 ADD SWAP1 REVERT JUMPDEST PUSH1 0x2 DUP4 DIV DUP2 ADD DUP2 DUP2 LT ISZERO PUSH2 0x965 JUMPI PUSH1 0x40 DUP1 MLOAD PUSH1 0x1 PUSH1 0xE5 SHL PUSH3 0x461BCD MUL DUP2 MSTORE PUSH1 0x20 PUSH1 0x4 DUP3 ADD MSTORE PUSH1 0x10 PUSH1 0x24 DUP3 ADD MSTORE PUSH1 0x1 PUSH1 0x82 SHL PUSH16 0x11549497D1125597D253951154939053 MUL PUSH1 0x44 DUP3 ADD MSTORE SWAP1 MLOAD SWAP1 DUP2 SWAP1 SUB PUSH1 0x64 ADD SWAP1 REVERT JUMPDEST PUSH1 0x0 DUP5 DUP3 DUP2 PUSH2 0x970 JUMPI INVALID JUMPDEST DIV SWAP4 POP POP POP POP JUMPDEST SWAP3 SWAP2 POP POP JUMP JUMPDEST PUSH1 0x0 DUP3 DUP3 ADD DUP4 DUP2 LT ISZERO PUSH2 0x9DA JUMPI PUSH1 0x40 DUP1 MLOAD PUSH1 0x1 PUSH1 0xE5 SHL PUSH3 0x461BCD MUL DUP2 MSTORE PUSH1 0x20 PUSH1 0x4 DUP3 ADD MSTORE PUSH1 0x10 PUSH1 0x24 DUP3 ADD MSTORE PUSH32 0x4552525F4144445F4F564552464C4F5700000000000000000000000000000000 PUSH1 0x44 DUP3 ADD MSTORE SWAP1 MLOAD SWAP1 DUP2 SWAP1 SUB PUSH1 0x64 ADD SWAP1 REVERT JUMPDEST SWAP4 SWAP3 POP POP POP JUMP JUMPDEST PUSH1 0x0 PUSH1 0x1 DUP4 LT ISZERO PUSH2 0xA3C JUMPI PUSH1 0x40 DUP1 MLOAD PUSH1 0x1 PUSH1 0xE5 SHL PUSH3 0x461BCD MUL DUP2 MSTORE PUSH1 0x20 PUSH1 0x4 DUP3 ADD MSTORE PUSH1 0x15 PUSH1 0x24 DUP3 ADD MSTORE PUSH32 0x4552525F42504F575F424153455F544F4F5F4C4F570000000000000000000000 PUSH1 0x44 DUP3 ADD MSTORE SWAP1 MLOAD SWAP1 DUP2 SWAP1 SUB PUSH1 0x64 ADD SWAP1 REVERT JUMPDEST PUSH8 0x1BC16D674EC7FFFF DUP4 GT ISZERO PUSH2 0xA9C JUMPI PUSH1 0x40 DUP1 MLOAD PUSH1 0x1 PUSH1 0xE5 SHL PUSH3 0x461BCD MUL DUP2 MSTORE PUSH1 0x20 PUSH1 0x4 DUP3 ADD MSTORE PUSH1 0x16 PUSH1 0x24 DUP3 ADD MSTORE PUSH32 0x4552525F42504F575F424153455F544F4F5F4849474800000000000000000000 PUSH1 0x44 DUP3 ADD MSTORE SWAP1 MLOAD SWAP1 DUP2 SWAP1 SUB PUSH1 0x64 ADD SWAP1 REVERT JUMPDEST PUSH1 0x0 PUSH2 0xAA7 DUP4 PUSH2 0xC43 JUMP JUMPDEST SWAP1 POP PUSH1 0x0 PUSH2 0xAB5 DUP5 DUP4 PUSH2 0xBD2 JUMP JUMPDEST SWAP1 POP PUSH1 0x0 PUSH2 0xACB DUP7 PUSH2 0xAC6 DUP6 PUSH2 0xC5E JUMP JUMPDEST PUSH2 0xC6C JUMP JUMPDEST SWAP1 POP DUP2 PUSH2 0xADC JUMPI SWAP3 POP PUSH2 0x977 SWAP2 POP POP JUMP JUMPDEST PUSH1 0x0 PUSH2 0xAED DUP8 DUP5 PUSH4 0x5F5E100 PUSH2 0xCCC JUMP JUMPDEST SWAP1 POP PUSH2 0xAF9 DUP3 DUP3 PUSH2 0xB04 JUMP JUMPDEST SWAP8 SWAP7 POP POP POP POP POP POP POP JUMP JUMPDEST PUSH1 0x0 DUP3 DUP3 MUL DUP4 ISZERO DUP1 PUSH2 0xB1E JUMPI POP DUP3 DUP5 DUP3 DUP2 PUSH2 0xB1B JUMPI INVALID JUMPDEST DIV EQ JUMPDEST PUSH2 0xB68 JUMPI PUSH1 0x40 DUP1 MLOAD PUSH1 0x1 PUSH1 0xE5 SHL PUSH3 0x461BCD MUL DUP2 MSTORE PUSH1 0x20 PUSH1 0x4 DUP3 ADD MSTORE PUSH1 0x10 PUSH1 0x24 DUP3 ADD MSTORE PUSH1 0x1 PUSH1 0x80 SHL PUSH16 0x4552525F4D554C5F4F564552464C4F57 MUL PUSH1 0x44 DUP3 ADD MSTORE SWAP1 MLOAD SWAP1 DUP2 SWAP1 SUB PUSH1 0x64 ADD SWAP1 REVERT JUMPDEST PUSH8 0x6F05B59D3B20000 DUP2 ADD DUP2 DUP2 LT ISZERO PUSH2 0xBC1 JUMPI PUSH1 0x40 DUP1 MLOAD PUSH1 0x1 PUSH1 0xE5 SHL PUSH3 0x461BCD MUL DUP2 MSTORE PUSH1 0x20 PUSH1 0x4 DUP3 ADD MSTORE PUSH1 0x10 PUSH1 0x24 DUP3 ADD MSTORE PUSH1 0x1 PUSH1 0x80 SHL PUSH16 0x4552525F4D554C5F4F564552464C4F57 MUL PUSH1 0x44 DUP3 ADD MSTORE SWAP1 MLOAD SWAP1 DUP2 SWAP1 SUB PUSH1 0x64 ADD SWAP1 REVERT JUMPDEST PUSH1 0x0 PUSH8 0xDE0B6B3A7640000 DUP3 PUSH2 0x970 JUMP JUMPDEST PUSH1 0x0 DUP1 PUSH1 0x0 PUSH2 0xBE1 DUP6 DUP6 PUSH2 0xDAA JUMP JUMPDEST SWAP2 POP SWAP2 POP DUP1 ISZERO PUSH2 0xC3B JUMPI PUSH1 0x40 DUP1 MLOAD PUSH1 0x1 PUSH1 0xE5 SHL PUSH3 0x461BCD MUL DUP2 MSTORE PUSH1 0x20 PUSH1 0x4 DUP3 ADD MSTORE PUSH1 0x11 PUSH1 0x24 DUP3 ADD MSTORE PUSH32 0x4552525F5355425F554E444552464C4F57000000000000000000000000000000 PUSH1 0x44 DUP3 ADD MSTORE SWAP1 MLOAD SWAP1 DUP2 SWAP1 SUB PUSH1 0x64 ADD SWAP1 REVERT JUMPDEST POP SWAP4 SWAP3 POP POP POP JUMP JUMPDEST PUSH1 0x0 PUSH8 0xDE0B6B3A7640000 PUSH2 0xC57 DUP4 PUSH2 0xC5E JUMP JUMPDEST MUL SWAP3 SWAP2 POP POP JUMP JUMPDEST PUSH8 0xDE0B6B3A7640000 SWAP1 DIV SWAP1 JUMP JUMPDEST PUSH1 0x0 DUP3 DUP2 PUSH1 0x2 DUP5 MOD PUSH2 0xC86 JUMPI PUSH8 0xDE0B6B3A7640000 PUSH2 0xC88 JUMP JUMPDEST DUP2 JUMPDEST SWAP1 POP PUSH1 0x2 DUP5 DIV SWAP4 POP JUMPDEST DUP4 ISZERO PUSH2 0xCC4 JUMPI PUSH2 0xCA1 DUP3 DUP4 PUSH2 0xB04 JUMP JUMPDEST SWAP2 POP PUSH1 0x2 DUP5 MOD ISZERO PUSH2 0xCB9 JUMPI PUSH2 0xCB6 DUP2 DUP4 PUSH2 0xB04 JUMP JUMPDEST SWAP1 POP JUMPDEST PUSH1 0x2 DUP5 DIV SWAP4 POP PUSH2 0xC91 JUMP JUMPDEST SWAP5 SWAP4 POP POP POP POP JUMP JUMPDEST PUSH1 0x0 DUP3 DUP2 DUP1 PUSH2 0xCE3 DUP8 PUSH8 0xDE0B6B3A7640000 PUSH2 0xDAA JUMP JUMPDEST SWAP1 SWAP3 POP SWAP1 POP PUSH8 0xDE0B6B3A7640000 DUP1 PUSH1 0x0 PUSH1 0x1 JUMPDEST DUP9 DUP5 LT PUSH2 0xD9B JUMPI PUSH1 0x0 PUSH8 0xDE0B6B3A7640000 DUP3 MUL SWAP1 POP PUSH1 0x0 DUP1 PUSH2 0xD2B DUP11 PUSH2 0xD26 DUP6 PUSH8 0xDE0B6B3A7640000 PUSH2 0xBD2 JUMP JUMPDEST PUSH2 0xDAA JUMP JUMPDEST SWAP2 POP SWAP2 POP PUSH2 0xD3D DUP8 PUSH2 0x567 DUP5 DUP13 PUSH2 0xB04 JUMP JUMPDEST SWAP7 POP PUSH2 0xD49 DUP8 DUP5 PUSH2 0x848 JUMP JUMPDEST SWAP7 POP DUP7 PUSH2 0xD58 JUMPI POP POP POP PUSH2 0xD9B JUMP JUMPDEST DUP8 ISZERO PUSH2 0xD62 JUMPI SWAP4 ISZERO SWAP4 JUMPDEST DUP1 ISZERO PUSH2 0xD6C JUMPI SWAP4 ISZERO SWAP4 JUMPDEST DUP5 ISZERO PUSH2 0xD83 JUMPI PUSH2 0xD7C DUP7 DUP9 PUSH2 0xBD2 JUMP JUMPDEST SWAP6 POP PUSH2 0xD90 JUMP JUMPDEST PUSH2 0xD8D DUP7 DUP9 PUSH2 0x97D JUMP JUMPDEST SWAP6 POP JUMPDEST POP POP POP PUSH1 0x1 ADD PUSH2 0xCF7 JUMP JUMPDEST POP SWAP1 SWAP10 SWAP9 POP POP POP POP POP POP POP POP POP JUMP JUMPDEST PUSH1 0x0 DUP1 DUP3 DUP5 LT PUSH2 0xDC0 JUMPI POP POP DUP1 DUP3 SUB PUSH1 0x0 PUSH2 0xDC8 JUMP JUMPDEST POP POP DUP2 DUP2 SUB PUSH1 0x1 JUMPDEST SWAP3 POP SWAP3 SWAP1 POP JUMP INVALID LOG1 PUSH6 0x627A7A723058 KECCAK256 PUSH21 0x30A5953BF3461CE0AC5B3CBDB2F319D70F7831B458 DIFFICULTY GASLIMIT 0xf8 DUP14 0xaf MSTORE8 0xd8 0xac 0xe8 0x49 STOP 0x29 "
        },
        "methodIdentifiers": {
          "BONE()": "c36596a6",
          "BPOW_PRECISION()": "189d00ca",
          "EXIT_FEE()": "c6580d12",
          "INIT_POOL_SUPPLY()": "9381cd2b",
          "MAX_BOUND_TOKENS()": "b0e0d136",
          "MAX_BPOW_BASE()": "bc694ea2",
          "MAX_FEE()": "bc063e1a",
          "MAX_IN_RATIO()": "ec093021",
          "MAX_OUT_RATIO()": "992e2a92",
          "MAX_TOTAL_WEIGHT()": "09a3bbe4",
          "MAX_WEIGHT()": "e4a28a52",
          "MIN_BALANCE()": "867378c5",
          "MIN_BOUND_TOKENS()": "b7b800a4",
          "MIN_BPOW_BASE()": "ba019dab",
          "MIN_FEE()": "76c7a3c7",
          "MIN_WEIGHT()": "218b5382",
          "calcInGivenOut(uint256,uint256,uint256,uint256,uint256,uint256)": "f8d6aed4",
          "calcOutGivenIn(uint256,uint256,uint256,uint256,uint256,uint256)": "ba9530a6",
          "calcPoolInGivenSingleOut(uint256,uint256,uint256,uint256,uint256,uint256)": "82f652ad",
          "calcPoolOutGivenSingleIn(uint256,uint256,uint256,uint256,uint256,uint256)": "8656b653",
          "calcSingleInGivenPoolOut(uint256,uint256,uint256,uint256,uint256,uint256)": "5c1bbaf7",
          "calcSingleOutGivenPoolIn(uint256,uint256,uint256,uint256,uint256,uint256)": "89298012",
          "calcSpotPrice(uint256,uint256,uint256,uint256,uint256)": "a221ee49"
        }
      }
    }
  }
}