{
  "contracts/pools/factories/FactoryWidePauseWindow.sol": {
    "FactoryWidePauseWindow": {
      "abi": [
        {
          "inputs": [],
          "stateMutability": "nonpayable",
          "type": "constructor"
        },
        {
          "inputs": [],
          "name": "getPauseConfiguration",
          "outputs": [
            {
              "internalType": "uint256",
              "name": "pauseWindowDuration",
              "type": "uint256"
            },
            {
              "internalType": "uint256",
              "name": "bufferPeriodDuration",
              "type": "uint256"
            }
          ],
          "stateMutability": "view",
          "type": "function"
        }
      ],
      "evm": {
        "bytecode": {
          "linkReferences": {},
          "object": "60a060405234801561001057600080fd5b50426276a7000160805260805160f461003560003980604e52806076525060f46000f3fe6080604052348015600f57600080fd5b506004361060285760003560e01c80632da47c4014602d575b600080fd5b60336048565b604051603f92919060b0565b60405180910390f35b600080427f000000000000000000000000000000000000000000000000000000000000000081101560a257807f000000000000000000000000000000000000000000000000000000000000000003925062278d00915060ab565b60009250600091505b509091565b91825260208201526040019056fea2646970667358221220f1deeec38009a2c33bcdb4349581f8736077244264fe93e16d1646993c8cfe9e64736f6c63430007010033",
          "opcodes": "PUSH1 0xA0 PUSH1 0x40 MSTORE CALLVALUE DUP1 ISZERO PUSH2 0x10 JUMPI PUSH1 0x0 DUP1 REVERT JUMPDEST POP TIMESTAMP PUSH3 0x76A700 ADD PUSH1 0x80 MSTORE PUSH1 0x80 MLOAD PUSH1 0xF4 PUSH2 0x35 PUSH1 0x0 CODECOPY DUP1 PUSH1 0x4E MSTORE DUP1 PUSH1 0x76 MSTORE POP PUSH1 0xF4 PUSH1 0x0 RETURN INVALID PUSH1 0x80 PUSH1 0x40 MSTORE CALLVALUE DUP1 ISZERO PUSH1 0xF JUMPI PUSH1 0x0 DUP1 REVERT JUMPDEST POP PUSH1 0x4 CALLDATASIZE LT PUSH1 0x28 JUMPI PUSH1 0x0 CALLDATALOAD PUSH1 0xE0 SHR DUP1 PUSH4 0x2DA47C40 EQ PUSH1 0x2D JUMPI JUMPDEST PUSH1 0x0 DUP1 REVERT JUMPDEST PUSH1 0x33 PUSH1 0x48 JUMP JUMPDEST PUSH1 0x40 MLOAD PUSH1 0x3F SWAP3 SWAP2 SWAP1 PUSH1 0xB0 JUMP JUMPDEST PUSH1 0x40 MLOAD DUP1 SWAP2 SUB SWAP1 RETURN JUMPDEST PUSH1 0x0 DUP1 TIMESTAMP PUSH32 0x0 DUP2 LT ISZERO PUSH1 0xA2 JUMPI DUP1 PUSH32 0x0 SUB SWAP3 POP PUSH3 0x278D00 SWAP2 POP PUSH1 0xAB JUMP JUMPDEST PUSH1 0x0 SWAP3 POP PUSH1 0x0 SWAP2 POP JUMPDEST POP SWAP1 SWAP2 JUMP JUMPDEST SWAP2 DUP3 MSTORE PUSH1 0x20 DUP3 ADD MSTORE PUSH1 0x40 ADD SWAP1 JUMP INVALID LOG2 PUSH5 0x6970667358 0x22 SLT KECCAK256 CALL 0xDE 0xEE 0xC3 DUP1 MULMOD LOG2 0xC3 EXTCODESIZE 0xCD 0xB4 CALLVALUE SWAP6 DUP2 0xF8 PUSH20 0x6077244264FE93E16D1646993C8CFE9E64736F6C PUSH4 0x43000701 STOP CALLER "
        },
        "methodIdentifiers": {
          "getPauseConfiguration()": "2da47c40"
        }
      }
    }
  }
}