{
  "contracts/oldV3Factory/BFactory.sol": {
    "BFactory": {
      "abi": [
        {
          "constant": false,
          "inputs": [
            {
              "name": "controller",
              "type": "address"
            }
          ],
          "name": "newBPool",
          "outputs": [
            {
              "name": "bpool",
              "type": "address"
            }
          ],
          "payable": false,
          "stateMutability": "nonpayable",
          "type": "function"
        },
        {
          "constant": true,
          "inputs": [],
          "name": "MAX_TOTAL_WEIGHT",
          "outputs": [
            {
              "name": "",
              "type": "uint256"
            }
          ],
          "payable": false,
          "stateMutability": "view",
          "type": "function"
        },
        {
          "constant": true,
          "inputs": [],
          "name": "BPOW_PRECISION",
          "outputs": [
            {
              "name": "",
              "type": "uint256"
            }
          ],
          "payable": false,
          "stateMutability": "view",
          "type": "function"
        },
        {
          "constant": true,
          "inputs": [],
          "name": "MIN_WEIGHT",
          "outputs": [
            {
              "name": "",
              "type": "uint256"
            }
          ],
          "payable": false,
          "stateMutability": "view",
          "type": "function"
        },
        {
          "constant": true,
          "inputs": [],
          "name": "MIN_FEE",
          "outputs": [
            {
              "name": "",
              "type": "uint256"
            }
          ],
          "payable": false,
          "stateMutability": "view",
          "type": "function"
        },
        {
          "constant": true,
          "inputs": [],
          "name": "MIN_BALANCE",
          "outputs": [
            {
              "name": "",
              "type": "uint256"
            }
          ],
          "payable": false,
          "stateMutability": "view",
          "type": "function"
        },
        {
          "constant": true,
          "inputs": [],
          "name": "INIT_POOL_SUPPLY",
          "outputs": [
            {
              "name": "",
              "type": "uint256"
            }
          ],
          "payable": false,
          "stateMutability": "view",
          "type": "function"
        },
        {
          "constant": true,
          "inputs": [],
          "name": "MAX_OUT_RATIO",
          "outputs": [
            {
              "name": "",
              "type": "uint256"
            }
          ],
          "payable": false,
          "stateMutability": "view",
          "type": "function"
        },
        {
          "constant": true,
          "inputs": [],
          "name": "MAX_BOUND_TOKENS",
          "outputs": [
            {
              "name": "",
              "type": "uint256"
            }
          ],
          "payable": false,
          "stateMutability": "view",
          "type": "function"
        },
        {
          "constant": true,
          "inputs": [],
          "name": "MIN_BOUND_TOKENS",
          "outputs": [
            {
              "name": "",
              "type": "uint256"
            }
          ],
          "payable": false,
          "stateMutability": "view",
          "type": "function"
        },
        {
          "constant": true,
          "inputs": [],
          "name": "MIN_BPOW_BASE",
          "outputs": [
            {
              "name": "",
              "type": "uint256"
            }
          ],
          "payable": false,
          "stateMutability": "view",
          "type": "function"
        },
        {
          "constant": true,
          "inputs": [],
          "name": "bpoolTemplate",
          "outputs": [
            {
              "name": "",
              "type": "address"
            }
          ],
          "payable": false,
          "stateMutability": "view",
          "type": "function"
        },
        {
          "constant": true,
          "inputs": [],
          "name": "MAX_FEE",
          "outputs": [
            {
              "name": "",
              "type": "uint256"
            }
          ],
          "payable": false,
          "stateMutability": "view",
          "type": "function"
        },
        {
          "constant": true,
          "inputs": [],
          "name": "MAX_BPOW_BASE",
          "outputs": [
            {
              "name": "",
              "type": "uint256"
            }
          ],
          "payable": false,
          "stateMutability": "view",
          "type": "function"
        },
        {
          "constant": true,
          "inputs": [],
          "name": "BONE",
          "outputs": [
            {
              "name": "",
              "type": "uint256"
            }
          ],
          "payable": false,
          "stateMutability": "view",
          "type": "function"
        },
        {
          "constant": true,
          "inputs": [],
          "name": "EXIT_FEE",
          "outputs": [
            {
              "name": "",
              "type": "uint256"
            }
          ],
          "payable": false,
          "stateMutability": "view",
          "type": "function"
        },
        {
          "constant": true,
          "inputs": [],
          "name": "MAX_WEIGHT",
          "outputs": [
            {
              "name": "",
              "type": "uint256"
            }
          ],
          "payable": false,
          "stateMutability": "view",
          "type": "function"
        },
        {
          "constant": true,
          "inputs": [],
          "name": "MAX_IN_RATIO",
          "outputs": [
            {
              "name": "",
              "type": "uint256"
            }
          ],
          "payable": false,
          "stateMutability": "view",
          "type": "function"
        },
        {
          "inputs": [
            {
              "name": "_bpoolTemplate",
              "type": "address"
            }
          ],
          "payable": false,
          "stateMutability": "nonpayable",
          "type": "constructor"
        },
        {
          "anonymous": false,
          "inputs": [
            {
              "indexed": true,
              "name": "newBPoolAddress",
              "type": "address"
            },
            {
              "indexed": true,
              "name": "bpoolTemplateAddress",
              "type": "address"
            }
          ],
          "name": "BPoolCreated",
          "type": "event"
        },
        {
          "anonymous": false,
          "inputs": [
            {
              "indexed": false,
              "name": "bpoolAddress",
              "type": "address"
            },
            {
              "indexed": true,
              "name": "registeredBy",
              "type": "address"
            }
          ],
          "name": "BPoolRegistered",
          "type": "event"
        },
        {
          "anonymous": false,
          "inputs": [
            {
              "indexed": false,
              "name": "instance",
              "type": "address"
            }
          ],
          "name": "InstanceDeployed",
          "type": "event"
        }
      ],
      "evm": {
        "bytecode": {
          "linkReferences": {},
          "object": "608060405234801561001057600080fd5b5060405160208061065a8339810180604052602081101561003057600080fd5b50516001600160a01b038116610091576040517f08c379a000000000000000000000000000000000000000000000000000000000815260040180806020018281038252602d81526020018061062d602d913960400191505060405180910390fd5b600080546001600160a01b039092166001600160a01b031990921691909117905561056c806100c16000396000f3fe608060405234801561001057600080fd5b50600436106101165760003560e01c8063b7b800a4116100a2578063bc694ea211610071578063bc694ea2146101cf578063c36596a61461017f578063c6580d12146101d7578063e4a28a521461015d578063ec093021146101df57610116565b8063b7b800a4146101af578063ba019dab146101b7578063bae6ae12146101bf578063bc063e1a146101c757610116565b806376c7a3c7116100e957806376c7a3c714610187578063867378c51461018f5780639381cd2b14610197578063992e2a921461019f578063b0e0d136146101a757610116565b80630838f2d51461011b57806309a3bbe41461015d578063189d00ca14610177578063218b53821461017f575b600080fd5b6101416004803603602081101561013157600080fd5b50356001600160a01b03166101e7565b604080516001600160a01b039092168252519081900360200190f35b6101656103ba565b60408051918252519081900360200190f35b6101656103c7565b6101656103db565b6101656103e7565b6101656103f9565b61016561040d565b61016561041a565b610165610426565b61016561042b565b610165610430565b610141610435565b610165610444565b610165610454565b610165610460565b610165610465565b600080546101fd906001600160a01b0316610475565b90506001600160a01b03811661024757604051600160e51b62461bcd02815260040180806020018281038252602481526020018061051d6024913960400191505060405180910390fd5b60408051600160e21b63141b7a5d0281526001600160a01b03848116600483015230602483015264e8d4a51000604483015260006064830181905260848301819052925184939184169263506de9749260a48083019360209390929083900390910190829087803b1580156102bb57600080fd5b505af11580156102cf573d6000803e3d6000fd5b505050506040513d60208110156102e557600080fd5b505161033b5760408051600160e51b62461bcd02815260206004820152601460248201527f4552525f494e495449414c495a455f42504f4f4c000000000000000000000000604482015290519081900360640190fd5b600080546040516001600160a01b0391821692918516917f83d56eda3b93446228a036eafbbbcb38aa8f27a21a302b860469af9cb27c84eb91a3604080516001600160a01b0384168152905133917fb19f201dd081bc52562d1f83f3585fd08caa9de15534e6e4787f5ae63d39106c919081900360200190a250919050565b6802b5e3af16b188000081565b6402540be400670de0b6b3a76400005b0481565b670de0b6b3a764000081565b620f4240670de0b6b3a76400006103d7565b64e8d4a51000670de0b6b3a76400006103d7565b68056bc75e2d6310000081565b6704a03ce68d21555681565b600881565b600281565b600181565b6000546001600160a01b031681565b600a670de0b6b3a76400006103d7565b671bc16d674ec7ffff81565b600081565b6002670de0b6b3a76400006103d7565b6000808260601b90506040517f3d602d80600a3d3981f3363d3d373d3d3d363d7300000000000000000000000081528160148201527f5af43d82803e903d91602b57fd5bf3000000000000000000000000000000000060288201526037816000f0604080516001600160a01b038316815290519194507f117c72e6c25f0a072e36e148df71468ce2f3dbe7defec5b2c257a6e3eb65278c925081900360200190a15091905056fe42466163746f72793a20696e76616c69642062706f6f6c207a65726f2061646472657373a165627a7a72305820b364ff72925b03a322ae804daf7c6e910c9bf0c8cc033269855f70101e2e3664002942466163746f72793a20696e76616c69642062706f6f6c2074656d706c617465207a65726f2061646472657373",
          "opcodes": "PUSH1 0x80 PUSH1 0x40 MSTORE CALLVALUE DUP1 ISZERO PUSH2 0x10 JUMPI PUSH1 0x0 DUP1 REVERT JUMPDEST POP PUSH1 0x40 MLOAD PUSH1 0x20 DUP1 PUSH2 0x65A DUP4 CODECOPY DUP2 ADD DUP1 PUSH1 0x40 MSTORE PUSH1 0x20 DUP2 LT ISZERO PUSH2 0x30 JUMPI PUSH1 0x0 DUP1 REVERT JUMPDEST POP MLOAD PUSH1 0x1 PUSH1 0x1 PUSH1 0xA0 SHL SUB DUP2 AND PUSH2 0x91 JUMPI PUSH1 0x40 MLOAD PUSH32 0x8C379A000000000000000000000000000000000000000000000000000000000 DUP2 MSTORE PUSH1 0x4 ADD DUP1 DUP1 PUSH1 0x20 ADD DUP3 DUP2 SUB DUP3 MSTORE PUSH1 0x2D DUP2 MSTORE PUSH1 0x20 ADD DUP1 PUSH2 0x62D PUSH1 0x2D SWAP2 CODECOPY PUSH1 0x40 ADD SWAP2 POP POP PUSH1 0x40 MLOAD DUP1 SWAP2 SUB SWAP1 REVERT JUMPDEST PUSH1 0x0 DUP1 SLOAD PUSH1 0x1 PUSH1 0x1 PUSH1 0xA0 SHL SUB SWAP1 SWAP3 AND PUSH1 0x1 PUSH1 0x1 PUSH1 0xA0 SHL SUB NOT SWAP1 SWAP3 AND SWAP2 SWAP1 SWAP2 OR SWAP1 SSTORE PUSH2 0x56C DUP1 PUSH2 0xC1 PUSH1 0x0 CODECOPY PUSH1 0x0 RETURN INVALID PUSH1 0x80 PUSH1 0x40 MSTORE CALLVALUE DUP1 ISZERO PUSH2 0x10 JUMPI PUSH1 0x0 DUP1 REVERT JUMPDEST POP PUSH1 0x4 CALLDATASIZE LT PUSH2 0x116 JUMPI PUSH1 0x0 CALLDATALOAD PUSH1 0xE0 SHR DUP1 PUSH4 0xB7B800A4 GT PUSH2 0xA2 JUMPI DUP1 PUSH4 0xBC694EA2 GT PUSH2 0x71 JUMPI DUP1 PUSH4 0xBC694EA2 EQ PUSH2 0x1CF JUMPI DUP1 PUSH4 0xC36596A6 EQ PUSH2 0x17F JUMPI DUP1 PUSH4 0xC6580D12 EQ PUSH2 0x1D7 JUMPI DUP1 PUSH4 0xE4A28A52 EQ PUSH2 0x15D JUMPI DUP1 PUSH4 0xEC093021 EQ PUSH2 0x1DF JUMPI PUSH2 0x116 JUMP JUMPDEST DUP1 PUSH4 0xB7B800A4 EQ PUSH2 0x1AF JUMPI DUP1 PUSH4 0xBA019DAB EQ PUSH2 0x1B7 JUMPI DUP1 PUSH4 0xBAE6AE12 EQ PUSH2 0x1BF JUMPI DUP1 PUSH4 0xBC063E1A EQ PUSH2 0x1C7 JUMPI PUSH2 0x116 JUMP JUMPDEST DUP1 PUSH4 0x76C7A3C7 GT PUSH2 0xE9 JUMPI DUP1 PUSH4 0x76C7A3C7 EQ PUSH2 0x187 JUMPI DUP1 PUSH4 0x867378C5 EQ PUSH2 0x18F JUMPI DUP1 PUSH4 0x9381CD2B EQ PUSH2 0x197 JUMPI DUP1 PUSH4 0x992E2A92 EQ PUSH2 0x19F JUMPI DUP1 PUSH4 0xB0E0D136 EQ PUSH2 0x1A7 JUMPI PUSH2 0x116 JUMP JUMPDEST DUP1 PUSH4 0x838F2D5 EQ PUSH2 0x11B JUMPI DUP1 PUSH4 0x9A3BBE4 EQ PUSH2 0x15D JUMPI DUP1 PUSH4 0x189D00CA EQ PUSH2 0x177 JUMPI DUP1 PUSH4 0x218B5382 EQ PUSH2 0x17F JUMPI JUMPDEST PUSH1 0x0 DUP1 REVERT JUMPDEST PUSH2 0x141 PUSH1 0x4 DUP1 CALLDATASIZE SUB PUSH1 0x20 DUP2 LT ISZERO PUSH2 0x131 JUMPI PUSH1 0x0 DUP1 REVERT JUMPDEST POP CALLDATALOAD PUSH1 0x1 PUSH1 0x1 PUSH1 0xA0 SHL SUB AND PUSH2 0x1E7 JUMP JUMPDEST PUSH1 0x40 DUP1 MLOAD PUSH1 0x1 PUSH1 0x1 PUSH1 0xA0 SHL SUB SWAP1 SWAP3 AND DUP3 MSTORE MLOAD SWAP1 DUP2 SWAP1 SUB PUSH1 0x20 ADD SWAP1 RETURN JUMPDEST PUSH2 0x165 PUSH2 0x3BA JUMP JUMPDEST PUSH1 0x40 DUP1 MLOAD SWAP2 DUP3 MSTORE MLOAD SWAP1 DUP2 SWAP1 SUB PUSH1 0x20 ADD SWAP1 RETURN JUMPDEST PUSH2 0x165 PUSH2 0x3C7 JUMP JUMPDEST PUSH2 0x165 PUSH2 0x3DB JUMP JUMPDEST PUSH2 0x165 PUSH2 0x3E7 JUMP JUMPDEST PUSH2 0x165 PUSH2 0x3F9 JUMP JUMPDEST PUSH2 0x165 PUSH2 0x40D JUMP JUMPDEST PUSH2 0x165 PUSH2 0x41A JUMP JUMPDEST PUSH2 0x165 PUSH2 0x426 JUMP JUMPDEST PUSH2 0x165 PUSH2 0x42B JUMP JUMPDEST PUSH2 0x165 PUSH2 0x430 JUMP JUMPDEST PUSH2 0x141 PUSH2 0x435 JUMP JUMPDEST PUSH2 0x165 PUSH2 0x444 JUMP JUMPDEST PUSH2 0x165 PUSH2 0x454 JUMP JUMPDEST PUSH2 0x165 PUSH2 0x460 JUMP JUMPDEST PUSH2 0x165 PUSH2 0x465 JUMP JUMPDEST PUSH1 0x0 DUP1 SLOAD PUSH2 0x1FD SWAP1 PUSH1 0x1 PUSH1 0x1 PUSH1 0xA0 SHL SUB AND PUSH2 0x475 JUMP JUMPDEST SWAP1 POP PUSH1 0x1 PUSH1 0x1 PUSH1 0xA0 SHL SUB DUP2 AND PUSH2 0x247 JUMPI PUSH1 0x40 MLOAD PUSH1 0x1 PUSH1 0xE5 SHL PUSH3 0x461BCD MUL DUP2 MSTORE PUSH1 0x4 ADD DUP1 DUP1 PUSH1 0x20 ADD DUP3 DUP2 SUB DUP3 MSTORE PUSH1 0x24 DUP2 MSTORE PUSH1 0x20 ADD DUP1 PUSH2 0x51D PUSH1 0x24 SWAP2 CODECOPY PUSH1 0x40 ADD SWAP2 POP POP PUSH1 0x40 MLOAD DUP1 SWAP2 SUB SWAP1 REVERT JUMPDEST PUSH1 0x40 DUP1 MLOAD PUSH1 0x1 PUSH1 0xE2 SHL PUSH4 0x141B7A5D MUL DUP2 MSTORE PUSH1 0x1 PUSH1 0x1 PUSH1 0xA0 SHL SUB DUP5 DUP2 AND PUSH1 0x4 DUP4 ADD MSTORE ADDRESS PUSH1 0x24 DUP4 ADD MSTORE PUSH5 0xE8D4A51000 PUSH1 0x44 DUP4 ADD MSTORE PUSH1 0x0 PUSH1 0x64 DUP4 ADD DUP2 SWAP1 MSTORE PUSH1 0x84 DUP4 ADD DUP2 SWAP1 MSTORE SWAP3 MLOAD DUP5 SWAP4 SWAP2 DUP5 AND SWAP3 PUSH4 0x506DE974 SWAP3 PUSH1 0xA4 DUP1 DUP4 ADD SWAP4 PUSH1 0x20 SWAP4 SWAP1 SWAP3 SWAP1 DUP4 SWAP1 SUB SWAP1 SWAP2 ADD SWAP1 DUP3 SWAP1 DUP8 DUP1 EXTCODESIZE ISZERO DUP1 ISZERO PUSH2 0x2BB JUMPI PUSH1 0x0 DUP1 REVERT JUMPDEST POP GAS CALL ISZERO DUP1 ISZERO PUSH2 0x2CF JUMPI RETURNDATASIZE PUSH1 0x0 DUP1 RETURNDATACOPY RETURNDATASIZE PUSH1 0x0 REVERT JUMPDEST POP POP POP POP PUSH1 0x40 MLOAD RETURNDATASIZE PUSH1 0x20 DUP2 LT ISZERO PUSH2 0x2E5 JUMPI PUSH1 0x0 DUP1 REVERT JUMPDEST POP MLOAD PUSH2 0x33B JUMPI PUSH1 0x40 DUP1 MLOAD PUSH1 0x1 PUSH1 0xE5 SHL PUSH3 0x461BCD MUL DUP2 MSTORE PUSH1 0x20 PUSH1 0x4 DUP3 ADD MSTORE PUSH1 0x14 PUSH1 0x24 DUP3 ADD MSTORE PUSH32 0x4552525F494E495449414C495A455F42504F4F4C000000000000000000000000 PUSH1 0x44 DUP3 ADD MSTORE SWAP1 MLOAD SWAP1 DUP2 SWAP1 SUB PUSH1 0x64 ADD SWAP1 REVERT JUMPDEST PUSH1 0x0 DUP1 SLOAD PUSH1 0x40 MLOAD PUSH1 0x1 PUSH1 0x1 PUSH1 0xA0 SHL SUB SWAP2 DUP3 AND SWAP3 SWAP2 DUP6 AND SWAP2 PUSH32 0x83D56EDA3B93446228A036EAFBBBCB38AA8F27A21A302B860469AF9CB27C84EB SWAP2 LOG3 PUSH1 0x40 DUP1 MLOAD PUSH1 0x1 PUSH1 0x1 PUSH1 0xA0 SHL SUB DUP5 AND DUP2 MSTORE SWAP1 MLOAD CALLER SWAP2 PUSH32 0xB19F201DD081BC52562D1F83F3585FD08CAA9DE15534E6E4787F5AE63D39106C SWAP2 SWAP1 DUP2 SWAP1 SUB PUSH1 0x20 ADD SWAP1 LOG2 POP SWAP2 SWAP1 POP JUMP JUMPDEST PUSH9 0x2B5E3AF16B1880000 DUP2 JUMP JUMPDEST PUSH5 0x2540BE400 PUSH8 0xDE0B6B3A7640000 JUMPDEST DIV DUP2 JUMP JUMPDEST PUSH8 0xDE0B6B3A7640000 DUP2 JUMP JUMPDEST PUSH3 0xF4240 PUSH8 0xDE0B6B3A7640000 PUSH2 0x3D7 JUMP JUMPDEST PUSH5 0xE8D4A51000 PUSH8 0xDE0B6B3A7640000 PUSH2 0x3D7 JUMP JUMPDEST PUSH9 0x56BC75E2D63100000 DUP2 JUMP JUMPDEST PUSH8 0x4A03CE68D215556 DUP2 JUMP JUMPDEST PUSH1 0x8 DUP2 JUMP JUMPDEST PUSH1 0x2 DUP2 JUMP JUMPDEST PUSH1 0x1 DUP2 JUMP JUMPDEST PUSH1 0x0 SLOAD PUSH1 0x1 PUSH1 0x1 PUSH1 0xA0 SHL SUB AND DUP2 JUMP JUMPDEST PUSH1 0xA PUSH8 0xDE0B6B3A7640000 PUSH2 0x3D7 JUMP JUMPDEST PUSH8 0x1BC16D674EC7FFFF DUP2 JUMP JUMPDEST PUSH1 0x0 DUP2 JUMP JUMPDEST PUSH1 0x2 PUSH8 0xDE0B6B3A7640000 PUSH2 0x3D7 JUMP JUMPDEST PUSH1 0x0 DUP1 DUP3 PUSH1 0x60 SHL SWAP1 POP PUSH1 0x40 MLOAD PUSH32 0x3D602D80600A3D3981F3363D3D373D3D3D363D73000000000000000000000000 DUP2 MSTORE DUP2 PUSH1 0x14 DUP3 ADD MSTORE PUSH32 0x5AF43D82803E903D91602B57FD5BF30000000000000000000000000000000000 PUSH1 0x28 DUP3 ADD MSTORE PUSH1 0x37 DUP2 PUSH1 0x0 CREATE PUSH1 0x40 DUP1 MLOAD PUSH1 0x1 PUSH1 0x1 PUSH1 0xA0 SHL SUB DUP4 AND DUP2 MSTORE SWAP1 MLOAD SWAP2 SWAP5 POP PUSH32 0x117C72E6C25F0A072E36E148DF71468CE2F3DBE7DEFEC5B2C257A6E3EB65278C SWAP3 POP DUP2 SWAP1 SUB PUSH1 0x20 ADD SWAP1 LOG1 POP SWAP2 SWAP1 POP JUMP INVALID TIMESTAMP 0x46 PUSH2 0x6374 PUSH16 0x72793A20696E76616C69642062706F6F PUSH13 0x207A65726F2061646472657373 LOG1 PUSH6 0x627A7A723058 KECCAK256 0xb3 PUSH5 0xFF72925B03 LOG3 0x22 0xae DUP1 0x4d 0xaf PUSH29 0x6E910C9BF0C8CC033269855F70101E2E3664002942466163746F72793A KECCAK256 PUSH10 0x6E76616C69642062706F PUSH16 0x6C2074656D706C617465207A65726F20 PUSH2 0x6464 PUSH19 0x65737300000000000000000000000000000000 "
        },
        "methodIdentifiers": {
          "BONE()": "c36596a6",
          "BPOW_PRECISION()": "189d00ca",
          "EXIT_FEE()": "c6580d12",
          "INIT_POOL_SUPPLY()": "9381cd2b",
          "MAX_BOUND_TOKENS()": "b0e0d136",
          "MAX_BPOW_BASE()": "bc694ea2",
          "MAX_FEE()": "bc063e1a",
          "MAX_IN_RATIO()": "ec093021",
          "MAX_OUT_RATIO()": "992e2a92",
          "MAX_TOTAL_WEIGHT()": "09a3bbe4",
          "MAX_WEIGHT()": "e4a28a52",
          "MIN_BALANCE()": "867378c5",
          "MIN_BOUND_TOKENS()": "b7b800a4",
          "MIN_BPOW_BASE()": "ba019dab",
          "MIN_FEE()": "76c7a3c7",
          "MIN_WEIGHT()": "218b5382",
          "bpoolTemplate()": "bae6ae12",
          "newBPool(address)": "0838f2d5"
        }
      }
    }
  }
}