{
  "contracts/ve/veAllocate.sol": {
    "veAllocate": {
      "abi": [
        {
          "anonymous": false,
          "inputs": [
            {
              "indexed": true,
              "internalType": "address",
              "name": "sender",
              "type": "address"
            },
            {
              "indexed": true,
              "internalType": "address",
              "name": "nft",
              "type": "address"
            },
            {
              "indexed": true,
              "internalType": "uint256",
              "name": "chainId",
              "type": "uint256"
            },
            {
              "indexed": false,
              "internalType": "uint256",
              "name": "amount",
              "type": "uint256"
            }
          ],
          "name": "AllocationSet",
          "type": "event"
        },
        {
          "anonymous": false,
          "inputs": [
            {
              "indexed": true,
              "internalType": "address",
              "name": "sender",
              "type": "address"
            },
            {
              "indexed": false,
              "internalType": "address[]",
              "name": "nft",
              "type": "address[]"
            },
            {
              "indexed": false,
              "internalType": "uint256[]",
              "name": "chainId",
              "type": "uint256[]"
            },
            {
              "indexed": false,
              "internalType": "uint256[]",
              "name": "amount",
              "type": "uint256[]"
            }
          ],
          "name": "AllocationSetMultiple",
          "type": "event"
        },
        {
          "inputs": [
            {
              "internalType": "address",
              "name": "user",
              "type": "address"
            }
          ],
          "name": "getTotalAllocation",
          "outputs": [
            {
              "internalType": "uint256",
              "name": "",
              "type": "uint256"
            }
          ],
          "stateMutability": "view",
          "type": "function"
        },
        {
          "inputs": [
            {
              "internalType": "address",
              "name": "user",
              "type": "address"
            },
            {
              "internalType": "address",
              "name": "nft",
              "type": "address"
            },
            {
              "internalType": "uint256",
              "name": "chainid",
              "type": "uint256"
            }
          ],
          "name": "getveAllocation",
          "outputs": [
            {
              "internalType": "uint256",
              "name": "",
              "type": "uint256"
            }
          ],
          "stateMutability": "view",
          "type": "function"
        },
        {
          "inputs": [
            {
              "internalType": "uint256",
              "name": "amount",
              "type": "uint256"
            },
            {
              "internalType": "address",
              "name": "nft",
              "type": "address"
            },
            {
              "internalType": "uint256",
              "name": "chainId",
              "type": "uint256"
            }
          ],
          "name": "setAllocation",
          "outputs": [],
          "stateMutability": "nonpayable",
          "type": "function"
        },
        {
          "inputs": [
            {
              "internalType": "uint256[]",
              "name": "amount",
              "type": "uint256[]"
            },
            {
              "internalType": "address[]",
              "name": "nft",
              "type": "address[]"
            },
            {
              "internalType": "uint256[]",
              "name": "chainId",
              "type": "uint256[]"
            }
          ],
          "name": "setBatchAllocation",
          "outputs": [],
          "stateMutability": "nonpayable",
          "type": "function"
        }
      ],
      "evm": {
        "bytecode": {
          "linkReferences": {},
          "object": "608060405234801561001057600080fd5b506107f4806100206000396000f3fe608060405234801561001057600080fd5b506004361061004c5760003560e01c8063540ffae8146100515780639bf648d314610066578063b38e9637146100b6578063c49a153e146100c9575b600080fd5b61006461005f366004610531565b6100f2565b005b6100a4610074366004610566565b6001600160a01b039283166000908152602081815260408083209490951682529283528381209181529152205490565b60405190815260200160405180910390f35b6100646100c43660046105de565b6101fb565b6100a46100d7366004610678565b6001600160a01b031660009081526001602052604090205490565b336000818152602081815260408083206001600160a01b0387168452825280832085845282528083205493835260019091529020546101329085906106b0565b61013c91906106c8565b33600090815260016020526040902081905561271010156101955760405162461bcd60e51b815260206004820152600e60248201526d26b0bc1020b63637b1b0ba34b7b760911b60448201526064015b60405180910390fd5b336000818152602081815260408083206001600160a01b038716808552908352818420868552835292819020879055518681528493917fa147c6cd0dd0fe2f649713a01540a2dcc9a47d469fb689f358031bf7f2f67011910160405180910390a4505050565b60968511156102425760405162461bcd60e51b8152602060048201526013602482015272546f6f204d616e79204f7065726174696f6e7360681b604482015260640161018c565b8483146102915760405162461bcd60e51b815260206004820152601860248201527f4e66742061727261792073697a65206d6973736d617463680000000000000000604482015260640161018c565b8481146102e05760405162461bcd60e51b815260206004820152601a60248201527f436861696e2061727261792073697a65206d6973736d61746368000000000000604482015260640161018c565b60005b8581101561046f573360009081526020819052604081209086868481811061030d5761030d6106df565b90506020020160208101906103229190610678565b6001600160a01b03166001600160a01b031681526020019081526020016000206000848484818110610356576103566106df565b9050602002013581526020019081526020016000205487878381811061037e5761037e6106df565b336000908152600160209081526040909120546103a29491909202013591506106b0565b6103ac91906106c8565b336000908152600160205260409020558686828181106103ce576103ce6106df565b33600090815260208181526040822092029390930135929091508787858181106103fa576103fa6106df565b905060200201602081019061040f9190610678565b6001600160a01b03166001600160a01b031681526020019081526020016000206000858585818110610443576104436106df565b905060200201358152602001908152602001600020819055508080610467906106f5565b9150506102e3565b503360009081526001602052604090205461271010156104c25760405162461bcd60e51b815260206004820152600e60248201526d26b0bc1020b63637b1b0ba34b7b760911b604482015260640161018c565b336001600160a01b03167f40b9a90d4d04a363a00e6fd9afa85f7336a56acbfad813c80d2030f9390302d2858585858b8b60405161050596959493929190610746565b60405180910390a2505050505050565b80356001600160a01b038116811461052c57600080fd5b919050565b60008060006060848603121561054657600080fd5b8335925061055660208501610515565b9150604084013590509250925092565b60008060006060848603121561057b57600080fd5b61058484610515565b925061055660208501610515565b60008083601f8401126105a457600080fd5b50813567ffffffffffffffff8111156105bc57600080fd5b6020830191508360208260051b85010111156105d757600080fd5b9250929050565b600080600080600080606087890312156105f757600080fd5b863567ffffffffffffffff8082111561060f57600080fd5b61061b8a838b01610592565b9098509650602089013591508082111561063457600080fd5b6106408a838b01610592565b9096509450604089013591508082111561065957600080fd5b5061066689828a01610592565b979a9699509497509295939492505050565b60006020828403121561068a57600080fd5b61069382610515565b9392505050565b634e487b7160e01b600052601160045260246000fd5b600082198211156106c3576106c361069a565b500190565b6000828210156106da576106da61069a565b500390565b634e487b7160e01b600052603260045260246000fd5b60006000198214156107095761070961069a565b5060010190565b81835260006001600160fb1b0383111561072957600080fd5b8260051b8083602087013760009401602001938452509192915050565b6060808252810186905260008760808301825b89811015610787576001600160a01b0361077284610515565b16825260209283019290910190600101610759565b50838103602085015261079b81888a610710565b91505082810360408401526107b1818587610710565b999850505050505050505056fea26469706673582212208c34b33ea0bd61ea4ea3be29758b1afd2c678dce66229926ed38b43ca6b9168c64736f6c634300080c0033",
          "opcodes": "PUSH1 0x80 PUSH1 0x40 MSTORE CALLVALUE DUP1 ISZERO PUSH2 0x10 JUMPI PUSH1 0x0 DUP1 REVERT JUMPDEST POP PUSH2 0x7F4 DUP1 PUSH2 0x20 PUSH1 0x0 CODECOPY PUSH1 0x0 RETURN INVALID PUSH1 0x80 PUSH1 0x40 MSTORE CALLVALUE DUP1 ISZERO PUSH2 0x10 JUMPI PUSH1 0x0 DUP1 REVERT JUMPDEST POP PUSH1 0x4 CALLDATASIZE LT PUSH2 0x4C JUMPI PUSH1 0x0 CALLDATALOAD PUSH1 0xE0 SHR DUP1 PUSH4 0x540FFAE8 EQ PUSH2 0x51 JUMPI DUP1 PUSH4 0x9BF648D3 EQ PUSH2 0x66 JUMPI DUP1 PUSH4 0xB38E9637 EQ PUSH2 0xB6 JUMPI DUP1 PUSH4 0xC49A153E EQ PUSH2 0xC9 JUMPI JUMPDEST PUSH1 0x0 DUP1 REVERT JUMPDEST PUSH2 0x64 PUSH2 0x5F CALLDATASIZE PUSH1 0x4 PUSH2 0x531 JUMP JUMPDEST PUSH2 0xF2 JUMP JUMPDEST STOP JUMPDEST PUSH2 0xA4 PUSH2 0x74 CALLDATASIZE PUSH1 0x4 PUSH2 0x566 JUMP JUMPDEST PUSH1 0x1 PUSH1 0x1 PUSH1 0xA0 SHL SUB SWAP3 DUP4 AND PUSH1 0x0 SWAP1 DUP2 MSTORE PUSH1 0x20 DUP2 DUP2 MSTORE PUSH1 0x40 DUP1 DUP4 KECCAK256 SWAP5 SWAP1 SWAP6 AND DUP3 MSTORE SWAP3 DUP4 MSTORE DUP4 DUP2 KECCAK256 SWAP2 DUP2 MSTORE SWAP2 MSTORE KECCAK256 SLOAD SWAP1 JUMP JUMPDEST PUSH1 0x40 MLOAD SWAP1 DUP2 MSTORE PUSH1 0x20 ADD PUSH1 0x40 MLOAD DUP1 SWAP2 SUB SWAP1 RETURN JUMPDEST PUSH2 0x64 PUSH2 0xC4 CALLDATASIZE PUSH1 0x4 PUSH2 0x5DE JUMP JUMPDEST PUSH2 0x1FB JUMP JUMPDEST PUSH2 0xA4 PUSH2 0xD7 CALLDATASIZE PUSH1 0x4 PUSH2 0x678 JUMP JUMPDEST PUSH1 0x1 PUSH1 0x1 PUSH1 0xA0 SHL SUB AND PUSH1 0x0 SWAP1 DUP2 MSTORE PUSH1 0x1 PUSH1 0x20 MSTORE PUSH1 0x40 SWAP1 KECCAK256 SLOAD SWAP1 JUMP JUMPDEST CALLER PUSH1 0x0 DUP2 DUP2 MSTORE PUSH1 0x20 DUP2 DUP2 MSTORE PUSH1 0x40 DUP1 DUP4 KECCAK256 PUSH1 0x1 PUSH1 0x1 PUSH1 0xA0 SHL SUB DUP8 AND DUP5 MSTORE DUP3 MSTORE DUP1 DUP4 KECCAK256 DUP6 DUP5 MSTORE DUP3 MSTORE DUP1 DUP4 KECCAK256 SLOAD SWAP4 DUP4 MSTORE PUSH1 0x1 SWAP1 SWAP2 MSTORE SWAP1 KECCAK256 SLOAD PUSH2 0x132 SWAP1 DUP6 SWAP1 PUSH2 0x6B0 JUMP JUMPDEST PUSH2 0x13C SWAP2 SWAP1 PUSH2 0x6C8 JUMP JUMPDEST CALLER PUSH1 0x0 SWAP1 DUP2 MSTORE PUSH1 0x1 PUSH1 0x20 MSTORE PUSH1 0x40 SWAP1 KECCAK256 DUP2 SWAP1 SSTORE PUSH2 0x2710 LT ISZERO PUSH2 0x195 JUMPI PUSH1 0x40 MLOAD PUSH3 0x461BCD PUSH1 0xE5 SHL DUP2 MSTORE PUSH1 0x20 PUSH1 0x4 DUP3 ADD MSTORE PUSH1 0xE PUSH1 0x24 DUP3 ADD MSTORE PUSH14 0x26B0BC1020B63637B1B0BA34B7B7 PUSH1 0x91 SHL PUSH1 0x44 DUP3 ADD MSTORE PUSH1 0x64 ADD JUMPDEST PUSH1 0x40 MLOAD DUP1 SWAP2 SUB SWAP1 REVERT JUMPDEST CALLER PUSH1 0x0 DUP2 DUP2 MSTORE PUSH1 0x20 DUP2 DUP2 MSTORE PUSH1 0x40 DUP1 DUP4 KECCAK256 PUSH1 0x1 PUSH1 0x1 PUSH1 0xA0 SHL SUB DUP8 AND DUP1 DUP6 MSTORE SWAP1 DUP4 MSTORE DUP2 DUP5 KECCAK256 DUP7 DUP6 MSTORE DUP4 MSTORE SWAP3 DUP2 SWAP1 KECCAK256 DUP8 SWAP1 SSTORE MLOAD DUP7 DUP2 MSTORE DUP5 SWAP4 SWAP2 PUSH32 0xA147C6CD0DD0FE2F649713A01540A2DCC9A47D469FB689F358031BF7F2F67011 SWAP2 ADD PUSH1 0x40 MLOAD DUP1 SWAP2 SUB SWAP1 LOG4 POP POP POP JUMP JUMPDEST PUSH1 0x96 DUP6 GT ISZERO PUSH2 0x242 JUMPI PUSH1 0x40 MLOAD PUSH3 0x461BCD PUSH1 0xE5 SHL DUP2 MSTORE PUSH1 0x20 PUSH1 0x4 DUP3 ADD MSTORE PUSH1 0x13 PUSH1 0x24 DUP3 ADD MSTORE PUSH19 0x546F6F204D616E79204F7065726174696F6E73 PUSH1 0x68 SHL PUSH1 0x44 DUP3 ADD MSTORE PUSH1 0x64 ADD PUSH2 0x18C JUMP JUMPDEST DUP5 DUP4 EQ PUSH2 0x291 JUMPI PUSH1 0x40 MLOAD PUSH3 0x461BCD PUSH1 0xE5 SHL DUP2 MSTORE PUSH1 0x20 PUSH1 0x4 DUP3 ADD MSTORE PUSH1 0x18 PUSH1 0x24 DUP3 ADD MSTORE PUSH32 0x4E66742061727261792073697A65206D6973736D617463680000000000000000 PUSH1 0x44 DUP3 ADD MSTORE PUSH1 0x64 ADD PUSH2 0x18C JUMP JUMPDEST DUP5 DUP2 EQ PUSH2 0x2E0 JUMPI PUSH1 0x40 MLOAD PUSH3 0x461BCD PUSH1 0xE5 SHL DUP2 MSTORE PUSH1 0x20 PUSH1 0x4 DUP3 ADD MSTORE PUSH1 0x1A PUSH1 0x24 DUP3 ADD MSTORE PUSH32 0x436861696E2061727261792073697A65206D6973736D61746368000000000000 PUSH1 0x44 DUP3 ADD MSTORE PUSH1 0x64 ADD PUSH2 0x18C JUMP JUMPDEST PUSH1 0x0 JUMPDEST DUP6 DUP2 LT ISZERO PUSH2 0x46F JUMPI CALLER PUSH1 0x0 SWAP1 DUP2 MSTORE PUSH1 0x20 DUP2 SWAP1 MSTORE PUSH1 0x40 DUP2 KECCAK256 SWAP1 DUP7 DUP7 DUP5 DUP2 DUP2 LT PUSH2 0x30D JUMPI PUSH2 0x30D PUSH2 0x6DF JUMP JUMPDEST SWAP1 POP PUSH1 0x20 MUL ADD PUSH1 0x20 DUP2 ADD SWAP1 PUSH2 0x322 SWAP2 SWAP1 PUSH2 0x678 JUMP JUMPDEST PUSH1 0x1 PUSH1 0x1 PUSH1 0xA0 SHL SUB AND PUSH1 0x1 PUSH1 0x1 PUSH1 0xA0 SHL SUB AND DUP2 MSTORE PUSH1 0x20 ADD SWAP1 DUP2 MSTORE PUSH1 0x20 ADD PUSH1 0x0 KECCAK256 PUSH1 0x0 DUP5 DUP5 DUP5 DUP2 DUP2 LT PUSH2 0x356 JUMPI PUSH2 0x356 PUSH2 0x6DF JUMP JUMPDEST SWAP1 POP PUSH1 0x20 MUL ADD CALLDATALOAD DUP2 MSTORE PUSH1 0x20 ADD SWAP1 DUP2 MSTORE PUSH1 0x20 ADD PUSH1 0x0 KECCAK256 SLOAD DUP8 DUP8 DUP4 DUP2 DUP2 LT PUSH2 0x37E JUMPI PUSH2 0x37E PUSH2 0x6DF JUMP JUMPDEST CALLER PUSH1 0x0 SWAP1 DUP2 MSTORE PUSH1 0x1 PUSH1 0x20 SWAP1 DUP2 MSTORE PUSH1 0x40 SWAP1 SWAP2 KECCAK256 SLOAD PUSH2 0x3A2 SWAP5 SWAP2 SWAP1 SWAP3 MUL ADD CALLDATALOAD SWAP2 POP PUSH2 0x6B0 JUMP JUMPDEST PUSH2 0x3AC SWAP2 SWAP1 PUSH2 0x6C8 JUMP JUMPDEST CALLER PUSH1 0x0 SWAP1 DUP2 MSTORE PUSH1 0x1 PUSH1 0x20 MSTORE PUSH1 0x40 SWAP1 KECCAK256 SSTORE DUP7 DUP7 DUP3 DUP2 DUP2 LT PUSH2 0x3CE JUMPI PUSH2 0x3CE PUSH2 0x6DF JUMP JUMPDEST CALLER PUSH1 0x0 SWAP1 DUP2 MSTORE PUSH1 0x20 DUP2 DUP2 MSTORE PUSH1 0x40 DUP3 KECCAK256 SWAP3 MUL SWAP4 SWAP1 SWAP4 ADD CALLDATALOAD SWAP3 SWAP1 SWAP2 POP DUP8 DUP8 DUP6 DUP2 DUP2 LT PUSH2 0x3FA JUMPI PUSH2 0x3FA PUSH2 0x6DF JUMP JUMPDEST SWAP1 POP PUSH1 0x20 MUL ADD PUSH1 0x20 DUP2 ADD SWAP1 PUSH2 0x40F SWAP2 SWAP1 PUSH2 0x678 JUMP JUMPDEST PUSH1 0x1 PUSH1 0x1 PUSH1 0xA0 SHL SUB AND PUSH1 0x1 PUSH1 0x1 PUSH1 0xA0 SHL SUB AND DUP2 MSTORE PUSH1 0x20 ADD SWAP1 DUP2 MSTORE PUSH1 0x20 ADD PUSH1 0x0 KECCAK256 PUSH1 0x0 DUP6 DUP6 DUP6 DUP2 DUP2 LT PUSH2 0x443 JUMPI PUSH2 0x443 PUSH2 0x6DF JUMP JUMPDEST SWAP1 POP PUSH1 0x20 MUL ADD CALLDATALOAD DUP2 MSTORE PUSH1 0x20 ADD SWAP1 DUP2 MSTORE PUSH1 0x20 ADD PUSH1 0x0 KECCAK256 DUP2 SWAP1 SSTORE POP DUP1 DUP1 PUSH2 0x467 SWAP1 PUSH2 0x6F5 JUMP JUMPDEST SWAP2 POP POP PUSH2 0x2E3 JUMP JUMPDEST POP CALLER PUSH1 0x0 SWAP1 DUP2 MSTORE PUSH1 0x1 PUSH1 0x20 MSTORE PUSH1 0x40 SWAP1 KECCAK256 SLOAD PUSH2 0x2710 LT ISZERO PUSH2 0x4C2 JUMPI PUSH1 0x40 MLOAD PUSH3 0x461BCD PUSH1 0xE5 SHL DUP2 MSTORE PUSH1 0x20 PUSH1 0x4 DUP3 ADD MSTORE PUSH1 0xE PUSH1 0x24 DUP3 ADD MSTORE PUSH14 0x26B0BC1020B63637B1B0BA34B7B7 PUSH1 0x91 SHL PUSH1 0x44 DUP3 ADD MSTORE PUSH1 0x64 ADD PUSH2 0x18C JUMP JUMPDEST CALLER PUSH1 0x1 PUSH1 0x1 PUSH1 0xA0 SHL SUB AND PUSH32 0x40B9A90D4D04A363A00E6FD9AFA85F7336A56ACBFAD813C80D2030F9390302D2 DUP6 DUP6 DUP6 DUP6 DUP12 DUP12 PUSH1 0x40 MLOAD PUSH2 0x505 SWAP7 SWAP6 SWAP5 SWAP4 SWAP3 SWAP2 SWAP1 PUSH2 0x746 JUMP JUMPDEST PUSH1 0x40 MLOAD DUP1 SWAP2 SUB SWAP1 LOG2 POP POP POP POP POP POP JUMP JUMPDEST DUP1 CALLDATALOAD PUSH1 0x1 PUSH1 0x1 PUSH1 0xA0 SHL SUB DUP2 AND DUP2 EQ PUSH2 0x52C JUMPI PUSH1 0x0 DUP1 REVERT JUMPDEST SWAP2 SWAP1 POP JUMP JUMPDEST PUSH1 0x0 DUP1 PUSH1 0x0 PUSH1 0x60 DUP5 DUP7 SUB SLT ISZERO PUSH2 0x546 JUMPI PUSH1 0x0 DUP1 REVERT JUMPDEST DUP4 CALLDATALOAD SWAP3 POP PUSH2 0x556 PUSH1 0x20 DUP6 ADD PUSH2 0x515 JUMP JUMPDEST SWAP2 POP PUSH1 0x40 DUP5 ADD CALLDATALOAD SWAP1 POP SWAP3 POP SWAP3 POP SWAP3 JUMP JUMPDEST PUSH1 0x0 DUP1 PUSH1 0x0 PUSH1 0x60 DUP5 DUP7 SUB SLT ISZERO PUSH2 0x57B JUMPI PUSH1 0x0 DUP1 REVERT JUMPDEST PUSH2 0x584 DUP5 PUSH2 0x515 JUMP JUMPDEST SWAP3 POP PUSH2 0x556 PUSH1 0x20 DUP6 ADD PUSH2 0x515 JUMP JUMPDEST PUSH1 0x0 DUP1 DUP4 PUSH1 0x1F DUP5 ADD SLT PUSH2 0x5A4 JUMPI PUSH1 0x0 DUP1 REVERT JUMPDEST POP DUP2 CALLDATALOAD PUSH8 0xFFFFFFFFFFFFFFFF DUP2 GT ISZERO PUSH2 0x5BC JUMPI PUSH1 0x0 DUP1 REVERT JUMPDEST PUSH1 0x20 DUP4 ADD SWAP2 POP DUP4 PUSH1 0x20 DUP3 PUSH1 0x5 SHL DUP6 ADD ADD GT ISZERO PUSH2 0x5D7 JUMPI PUSH1 0x0 DUP1 REVERT JUMPDEST SWAP3 POP SWAP3 SWAP1 POP JUMP JUMPDEST PUSH1 0x0 DUP1 PUSH1 0x0 DUP1 PUSH1 0x0 DUP1 PUSH1 0x60 DUP8 DUP10 SUB SLT ISZERO PUSH2 0x5F7 JUMPI PUSH1 0x0 DUP1 REVERT JUMPDEST DUP7 CALLDATALOAD PUSH8 0xFFFFFFFFFFFFFFFF DUP1 DUP3 GT ISZERO PUSH2 0x60F JUMPI PUSH1 0x0 DUP1 REVERT JUMPDEST PUSH2 0x61B DUP11 DUP4 DUP12 ADD PUSH2 0x592 JUMP JUMPDEST SWAP1 SWAP9 POP SWAP7 POP PUSH1 0x20 DUP10 ADD CALLDATALOAD SWAP2 POP DUP1 DUP3 GT ISZERO PUSH2 0x634 JUMPI PUSH1 0x0 DUP1 REVERT JUMPDEST PUSH2 0x640 DUP11 DUP4 DUP12 ADD PUSH2 0x592 JUMP JUMPDEST SWAP1 SWAP7 POP SWAP5 POP PUSH1 0x40 DUP10 ADD CALLDATALOAD SWAP2 POP DUP1 DUP3 GT ISZERO PUSH2 0x659 JUMPI PUSH1 0x0 DUP1 REVERT JUMPDEST POP PUSH2 0x666 DUP10 DUP3 DUP11 ADD PUSH2 0x592 JUMP JUMPDEST SWAP8 SWAP11 SWAP7 SWAP10 POP SWAP5 SWAP8 POP SWAP3 SWAP6 SWAP4 SWAP5 SWAP3 POP POP POP JUMP JUMPDEST PUSH1 0x0 PUSH1 0x20 DUP3 DUP5 SUB SLT ISZERO PUSH2 0x68A JUMPI PUSH1 0x0 DUP1 REVERT JUMPDEST PUSH2 0x693 DUP3 PUSH2 0x515 JUMP JUMPDEST SWAP4 SWAP3 POP POP POP JUMP JUMPDEST PUSH4 0x4E487B71 PUSH1 0xE0 SHL PUSH1 0x0 MSTORE PUSH1 0x11 PUSH1 0x4 MSTORE PUSH1 0x24 PUSH1 0x0 REVERT JUMPDEST PUSH1 0x0 DUP3 NOT DUP3 GT ISZERO PUSH2 0x6C3 JUMPI PUSH2 0x6C3 PUSH2 0x69A JUMP JUMPDEST POP ADD SWAP1 JUMP JUMPDEST PUSH1 0x0 DUP3 DUP3 LT ISZERO PUSH2 0x6DA JUMPI PUSH2 0x6DA PUSH2 0x69A JUMP JUMPDEST POP SUB SWAP1 JUMP JUMPDEST PUSH4 0x4E487B71 PUSH1 0xE0 SHL PUSH1 0x0 MSTORE PUSH1 0x32 PUSH1 0x4 MSTORE PUSH1 0x24 PUSH1 0x0 REVERT JUMPDEST PUSH1 0x0 PUSH1 0x0 NOT DUP3 EQ ISZERO PUSH2 0x709 JUMPI PUSH2 0x709 PUSH2 0x69A JUMP JUMPDEST POP PUSH1 0x1 ADD SWAP1 JUMP JUMPDEST DUP2 DUP4 MSTORE PUSH1 0x0 PUSH1 0x1 PUSH1 0x1 PUSH1 0xFB SHL SUB DUP4 GT ISZERO PUSH2 0x729 JUMPI PUSH1 0x0 DUP1 REVERT JUMPDEST DUP3 PUSH1 0x5 SHL DUP1 DUP4 PUSH1 0x20 DUP8 ADD CALLDATACOPY PUSH1 0x0 SWAP5 ADD PUSH1 0x20 ADD SWAP4 DUP5 MSTORE POP SWAP2 SWAP3 SWAP2 POP POP JUMP JUMPDEST PUSH1 0x60 DUP1 DUP3 MSTORE DUP2 ADD DUP7 SWAP1 MSTORE PUSH1 0x0 DUP8 PUSH1 0x80 DUP4 ADD DUP3 JUMPDEST DUP10 DUP2 LT ISZERO PUSH2 0x787 JUMPI PUSH1 0x1 PUSH1 0x1 PUSH1 0xA0 SHL SUB PUSH2 0x772 DUP5 PUSH2 0x515 JUMP JUMPDEST AND DUP3 MSTORE PUSH1 0x20 SWAP3 DUP4 ADD SWAP3 SWAP1 SWAP2 ADD SWAP1 PUSH1 0x1 ADD PUSH2 0x759 JUMP JUMPDEST POP DUP4 DUP2 SUB PUSH1 0x20 DUP6 ADD MSTORE PUSH2 0x79B DUP2 DUP9 DUP11 PUSH2 0x710 JUMP JUMPDEST SWAP2 POP POP DUP3 DUP2 SUB PUSH1 0x40 DUP5 ADD MSTORE PUSH2 0x7B1 DUP2 DUP6 DUP8 PUSH2 0x710 JUMP JUMPDEST SWAP10 SWAP9 POP POP POP POP POP POP POP POP POP JUMP INVALID LOG2 PUSH5 0x6970667358 0x22 SLT KECCAK256 DUP13 CALLVALUE 0xB3 RETURNDATACOPY LOG0 0xBD PUSH2 0xEA4E LOG3 0xBE 0x29 PUSH22 0x8B1AFD2C678DCE66229926ED38B43CA6B9168C64736F PUSH13 0x634300080C0033000000000000 "
        },
        "methodIdentifiers": {
          "getTotalAllocation(address)": "c49a153e",
          "getveAllocation(address,address,uint256)": "9bf648d3",
          "setAllocation(uint256,address,uint256)": "540ffae8",
          "setBatchAllocation(uint256[],address[],uint256[])": "b38e9637"
        }
      }
    }
  }
}