{
  "_format": "hh-sol-artifact-1",
  "contractName": "ERC725Ocean",
  "sourceName": "contracts/utils/ERC725/ERC725Ocean.sol",
  "abi": [
    {
      "inputs": [],
      "stateMutability": "nonpayable",
      "type": "constructor"
    },
    {
      "anonymous": false,
      "inputs": [
        {
          "indexed": true,
          "internalType": "address",
          "name": "contractAddress",
          "type": "address"
        }
      ],
      "name": "ContractCreated",
      "type": "event"
    },
    {
      "anonymous": false,
      "inputs": [
        {
          "indexed": true,
          "internalType": "bytes32",
          "name": "key",
          "type": "bytes32"
        },
        {
          "indexed": false,
          "internalType": "bytes",
          "name": "value",
          "type": "bytes"
        }
      ],
      "name": "DataChanged",
      "type": "event"
    },
    {
      "anonymous": false,
      "inputs": [
        {
          "indexed": true,
          "internalType": "uint256",
          "name": "_operation",
          "type": "uint256"
        },
        {
          "indexed": true,
          "internalType": "address",
          "name": "_to",
          "type": "address"
        },
        {
          "indexed": true,
          "internalType": "uint256",
          "name": "_value",
          "type": "uint256"
        },
        {
          "indexed": false,
          "internalType": "bytes",
          "name": "_data",
          "type": "bytes"
        }
      ],
      "name": "Executed",
      "type": "event"
    },
    {
      "inputs": [
        {
          "internalType": "bytes32",
          "name": "c__0x819d8ba9",
          "type": "bytes32"
        }
      ],
      "name": "c_0x819d8ba9",
      "outputs": [],
      "stateMutability": "pure",
      "type": "function"
    },
    {
      "inputs": [
        {
          "internalType": "bytes32",
          "name": "_key",
          "type": "bytes32"
        }
      ],
      "name": "getData",
      "outputs": [
        {
          "internalType": "bytes",
          "name": "_value",
          "type": "bytes"
        }
      ],
      "stateMutability": "view",
      "type": "function"
    },
    {
      "inputs": [
        {
          "internalType": "bytes4",
          "name": "interfaceId",
          "type": "bytes4"
        }
      ],
      "name": "supportsInterface",
      "outputs": [
        {
          "internalType": "bool",
          "name": "",
          "type": "bool"
        }
      ],
      "stateMutability": "view",
      "type": "function"
    }
  ],
  "bytecode": "0x608060405234801561001057600080fd5b506100437fef0116925d5615da8d9eb6e650aa4e1a1d0ca7d0e4ce034c20016c0c4e11804660001b61013c60201b60201c565b6100757f594945acf7dcb3f1b12a983af168decdd871da7378eb46947c81b5dee5f9b93c60001b61013c60201b60201c565b6100a77fdc4871cabc3b3fd645637e6bf5ab93d170fc6ba1e31305b81279021eea1434c560001b61013c60201b60201c565b6100bd6344c028fe60e01b61013f60201b60201c565b6100ef7f5b3720980fe0bac0d5d3039d2c212a7016a8ae82f40eeb590a920d6f0f23c26760001b61013c60201b60201c565b6101217fe6f459e033d8b154d95e85932245f20c2f74d1706d286ed925daf96a25d17bf260001b61013c60201b60201c565b610137632bd57b7360e01b61013f60201b60201c565b610285565b50565b63ffffffff60e01b817bffffffffffffffffffffffffffffffffffffffffffffffffffffffff191614156101a8576040517f08c379a000000000000000000000000000000000000000000000000000000000815260040161019f90610254565b60405180910390fd5b6001600080837bffffffffffffffffffffffffffffffffffffffffffffffffffffffff19167bffffffffffffffffffffffffffffffffffffffffffffffffffffffff1916815260200190815260200160002060006101000a81548160ff02191690831515021790555050565b6000610221601c83610274565b91507f4552433136353a20696e76616c696420696e74657266616365206964000000006000830152602082019050919050565b6000602082019050818103600083015261026d81610214565b9050919050565b600082825260208201905092915050565b610537806102946000396000f3fe608060405234801561001057600080fd5b50600436106100415760003560e01c806301ffc9a71461004657806354f6127f14610076578063a1014329146100a6575b600080fd5b610060600480360381019061005b9190610322565b6100c2565b60405161006d9190610393565b60405180910390f35b610090600480360381019061008b91906102f9565b610139565b60405161009d91906103ae565b60405180910390f35b6100c060048036038101906100bb91906102f9565b610262565b005b60006100cd82610265565b806101325750600080837bffffffffffffffffffffffffffffffffffffffffffffffffffffffff19167bffffffffffffffffffffffffffffffffffffffffffffffffffffffff1916815260200190815260200160002060009054906101000a900460ff165b9050919050565b60606101677f1347c2e15a8b10c3b83a7a68e0d3f96ca384c11a4a24db8f805df90eccf31aab60001b610262565b6101937fef8923962f14c6f8dfeaa655fb27ed955cc3387faeaa1788e44e41628b91f9c860001b610262565b6101bf7f1614646660ef230e2abe7d61aa587ee46ed5ef4b9896b4c9c85a04954b2319e460001b610262565b6001600083815260200190815260200160002080546101dd90610461565b80601f016020809104026020016040519081016040528092919081815260200182805461020990610461565b80156102565780601f1061022b57610100808354040283529160200191610256565b820191906000526020600020905b81548152906001019060200180831161023957829003601f168201915b50505050509050919050565b50565b60007f01ffc9a7000000000000000000000000000000000000000000000000000000007bffffffffffffffffffffffffffffffffffffffffffffffffffffffff1916827bffffffffffffffffffffffffffffffffffffffffffffffffffffffff1916149050919050565b6000813590506102de816104d3565b92915050565b6000813590506102f3816104ea565b92915050565b60006020828403121561030b57600080fd5b6000610319848285016102cf565b91505092915050565b60006020828403121561033457600080fd5b6000610342848285016102e4565b91505092915050565b610354816103ec565b82525050565b6000610365826103d0565b61036f81856103db565b935061037f81856020860161042e565b610388816104c2565b840191505092915050565b60006020820190506103a8600083018461034b565b92915050565b600060208201905081810360008301526103c8818461035a565b905092915050565b600081519050919050565b600082825260208201905092915050565b60008115159050919050565b6000819050919050565b60007fffffffff0000000000000000000000000000000000000000000000000000000082169050919050565b60005b8381101561044c578082015181840152602081019050610431565b8381111561045b576000848401525b50505050565b6000600282049050600182168061047957607f821691505b6020821081141561048d5761048c610493565b5b50919050565b7f4e487b7100000000000000000000000000000000000000000000000000000000600052602260045260246000fd5b6000601f19601f8301169050919050565b6104dc816103f8565b81146104e757600080fd5b50565b6104f381610402565b81146104fe57600080fd5b5056fea2646970667358221220d0e0e255555a36355c8532af3944f24aa836aa9105c9c19dfeaa1302cfe5b3ce64736f6c63430008000033",
  "linkReferences": {},
  "deployedLinkReferences": {}
}