{
  "_format": "hh-sol-artifact-1",
  "contractName": "OceanPoolFactory",
  "sourceName": "contracts/pools/factories/OceanPoolFactory.sol",
  "abi": [
    {
      "inputs": [
        {
          "internalType": "contract IVault",
          "name": "_vault",
          "type": "address"
        }
      ],
      "stateMutability": "nonpayable",
      "type": "constructor"
    },
    {
      "anonymous": false,
      "inputs": [
        {
          "indexed": true,
          "internalType": "address",
          "name": "pool",
          "type": "address"
        }
      ],
      "name": "PoolCreated",
      "type": "event"
    },
    {
      "inputs": [],
      "name": "getCreationCode",
      "outputs": [
        {
          "internalType": "bytes",
          "name": "",
          "type": "bytes"
        }
      ],
      "stateMutability": "view",
      "type": "function"
    },
    {
      "inputs": [],
      "name": "getCreationCodeContracts",
      "outputs": [
        {
          "internalType": "address",
          "name": "contractA",
          "type": "address"
        },
        {
          "internalType": "address",
          "name": "contractB",
          "type": "address"
        }
      ],
      "stateMutability": "view",
      "type": "function"
    },
    {
      "inputs": [],
      "name": "getPauseConfiguration",
      "outputs": [
        {
          "internalType": "uint256",
          "name": "pauseWindowDuration",
          "type": "uint256"
        },
        {
          "internalType": "uint256",
          "name": "bufferPeriodDuration",
          "type": "uint256"
        }
      ],
      "stateMutability": "view",
      "type": "function"
    },
    {
      "inputs": [],
      "name": "getVault",
      "outputs": [
        {
          "internalType": "contract IVault",
          "name": "",
          "type": "address"
        }
      ],
      "stateMutability": "view",
      "type": "function"
    },
    {
      "inputs": [
        {
          "internalType": "address",
          "name": "pool",
          "type": "address"
        }
      ],
      "name": "isPoolFromFactory",
      "outputs": [
        {
          "internalType": "bool",
          "name": "",
          "type": "bool"
        }
      ],
      "stateMutability": "view",
      "type": "function"
    },
    {
      "inputs": [],
      "name": "vault",
      "outputs": [
        {
          "internalType": "contract IVault",
          "name": "",
          "type": "address"
        }
      ],
      "stateMutability": "view",
      "type": "function"
    }
  ],
  "bytecode": "0x61014060405234801561001157600080fd5b5060405162007463380380620074638339818101604052602081101561003657600080fd5b50516001546040516001600160a01b0390911690610056602082016101b5565b601f1982820381018352601f909101166040528051819060006002820460a081905280830360e08190528185529091508361009b8161011f602090811b6102c117901c565b60601b6001600160601b03191660805282850180518382526100c78261011f602090811b6102c117901c565b606090811b6001600160601b031990811660c0529690935290529590951b909116610100525050506276a70042016101205250600180546001600160a01b0319166001600160a01b03929092169190911790556101c3565b80517f602038038060206000396000f3fefefefefefefefefefefefefefefefefefefe808352600091602081018484f090845291506001600160a01b0382166101af576040805162461bcd60e51b815260206004820152601660248201527f434f44455f4445504c4f594d454e545f4641494c454400000000000000000000604482015290519081900360640190fd5b50919050565b616da180620006c283390190565b60805160601c60a05160c05160601c60e0516101005160601c6101205161049d620002256000398061020c52806102355250806102905250806103585250806101e352806103d45250806103795250806101c252806103b0525061049d6000f3fe608060405234801561001057600080fd5b50600436106100615760003560e01c8062c194db14610066578063174481fa146100e35780632da47c401461011a5780636634b7531461013b5780638d928af814610175578063fbfa77cf14610199575b600080fd5b61006e6101a1565b6040805160208082528351818301528351919283929083019185019080838360005b838110156100a8578181015183820152602001610090565b50505050905090810190601f1680156100d55780820380516001836020036101000a031916815260200191505b509250505060405180910390f35b6100eb6101c0565b60405180836001600160a01b03168152602001826001600160a01b031681526020019250505060405180910390f35b610122610206565b6040805192835260208301919091528051918290030190f35b6101616004803603602081101561015157600080fd5b50356001600160a01b0316610270565b604080519115158252519081900360200190f35b61017d61028e565b604080516001600160a01b039092168252519081900360200190f35b61017d6102b2565b60606101bb60405180602001604052806000815250610350565b905090565b7f00000000000000000000000000000000000000000000000000000000000000007f00000000000000000000000000000000000000000000000000000000000000009091565b600080427f000000000000000000000000000000000000000000000000000000000000000081101561026257807f000000000000000000000000000000000000000000000000000000000000000003925062278d00915061026b565b60009250600091505b509091565b6001600160a01b031660009081526020819052604090205460ff1690565b7f000000000000000000000000000000000000000000000000000000000000000090565b6001546001600160a01b031681565b80517f602038038060206000396000f3fefefefefefefefefefefefefefefefefefefe808352600091602081018484f090845291506001600160a01b03821661034a576040805162461bcd60e51b815260206004820152601660248201527510d3d11157d111541313d65351539517d1905253115160521b604482015290519081900360640190fd5b50919050565b8051604080517f00000000000000000000000000000000000000000000000000000000000000007f0000000000000000000000000000000000000000000000000000000000000000818101858101848101602090810190965280855293957f00000000000000000000000000000000000000000000000000000000000000009592947f000000000000000000000000000000000000000000000000000000000000000094938801866000828a3c846000888301883c506020898101908985010161041b818386610429565b505050505050505050919050565b5b60208110610449578151835260209283019290910190601f190161042a565b905182516020929092036101000a600019018019909116911617905256fea2646970667358221220986bc4862c29de8585e785272aed25464e89f429566aecb110f164ee9fef2e0c64736f6c634300070100336105006040527f6e71edae12b1b97f4d1f60370fef10105fa2faae0126114a169c64845d6126c961012052600a80546001600160a01b03191690553480156200004757600080fd5b5060405162006da138038062006da18339810160408190526200006a9162000f20565b8989898888888888888887516002146200008657600162000089565b60025b89898989898989898282898060006020020151604051806040016040528060018152602001603160f81b81525085600060038110620000c457fe5b602090810291909101513360805260601b6001600160601b03191660a05282519281019290922060c05280519082012060e0527f8b73c3c69bb8fe3d512ecc4cf759cc79239f7b179b0ffacaa9a75d522b39400f61010052815180516200013092600392019062000c71565b5060208082015180516200014992600492019062000c71565b506200016090506276a70083111561019462000981565b6200017462278d0082111561019562000981565b429091016101408190520161016052865162000196906002111560c862000981565b620001ae60088851111560c96200098160201b60201c565b620001c4876200099660201b620011ee1760201c565b620001cf86620009a2565b6200021b856040518060400160405280601781526020017f6f6365616e66656520696e20636f6e7374727563746f7200000000000000000081525062000a1160201b620011fc1760201c565b620002268562000a5e565b620002318462000a63565b6200027d846040518060400160405280601881526020017f6d61726b746566656520696e20636f6e7374727563746f72000000000000000081525062000a1160201b620011fc1760201c565b6040516309b2760f60e01b81526000906001600160a01b038c16906309b2760f90620002ae908d90600401620010c7565b602060405180830381600087803b158015620002c957600080fd5b505af1158015620002de573d6000803e3d6000fd5b505050506040513d601f19601f8201168201806040525081019062000304919062000f07565b90508a6001600160a01b03166366a9c7d2828a8b516001600160401b03811180156200032f57600080fd5b506040519080825280602002602001820160405280156200035a578160200160208202803683370190505b506040518463ffffffff1660e01b81526004016200037b939291906200102b565b600060405180830381600087803b1580156200039657600080fd5b505af1158015620003ab573d6000803e3d6000fd5b5050506001600160601b031960608d901b1661018052506101a081905287516101c0528751620003dd576000620003f4565b87600081518110620003eb57fe5b60200260200101515b60601b6001600160601b0319166101e0528751600110620004175760006200042e565b876001815181106200042557fe5b60200260200101515b60601b6001600160601b0319166102005287516002106200045157600062000468565b876002815181106200045f57fe5b60200260200101515b60601b6001600160601b0319166102205287516003106200048b576000620004a2565b876003815181106200049957fe5b60200260200101515b60601b6001600160601b031916610240528751600410620004c5576000620004dc565b87600481518110620004d357fe5b60200260200101515b60601b6001600160601b031916610260528751600510620004ff57600062000516565b876005815181106200050d57fe5b60200260200101515b60601b6001600160601b0319166102805287516006106200053957600062000550565b876006815181106200054757fe5b60200260200101515b60601b6001600160601b0319166102a0528751600710620005735760006200058a565b876007815181106200058157fe5b60200260200101515b60601b6001600160601b0319166102c0528751620005aa576000620005d0565b620005d088600081518110620005bc57fe5b602002602001015162000a6860201b60201c565b6102e0528751600110620005e6576000620005f8565b620005f888600181518110620005bc57fe5b6103005287516002106200060e57600062000620565b6200062088600281518110620005bc57fe5b6103205287516003106200063657600062000648565b6200064888600381518110620005bc57fe5b6103405287516004106200065e57600062000670565b6200067088600481518110620005bc57fe5b6103605287516005106200068657600062000698565b6200069888600581518110620005bc57fe5b610380528751600610620006ae576000620006c0565b620006c088600681518110620005bc57fe5b6103a0528751600710620006d6576000620006e8565b620006e888600781518110620005bc57fe5b6103c0526040820151620006fc9062000b0a565b5050505050505050505050505050505050505050806001600381106200071e57fe5b6020020151601060006101000a8154816001600160a01b0302191690836001600160a01b03160217905550620007628851885162000b2c60201b620012411760201c565b6000806000805b8b518160ff161015620007e95760008b8260ff16815181106200078857fe5b60200260200101519050620007b0662386f26fc1000082101561012e6200098160201b60201c565b620007ca818662000b3b60201b6200124e1790919060201c565b945082811115620007df578160ff1693508092505b5060010162000769565b5062000802670de0b6b3a7640000841461013462000981565b6103e08290528951620008175760006200082e565b896000815181106200082557fe5b60200260200101515b610400528951600110620008445760006200085b565b896001815181106200085257fe5b60200260200101515b6104205289516002106200087157600062000888565b896002815181106200087f57fe5b60200260200101515b6104405289516003106200089e576000620008b5565b89600381518110620008ac57fe5b60200260200101515b610460528951600410620008cb576000620008e2565b89600481518110620008d957fe5b60200260200101515b610480528951600510620008f85760006200090f565b896005815181106200090657fe5b60200260200101515b6104a0528951600610620009255760006200093c565b896006815181106200093357fe5b60200260200101515b6104c05289516007106200095257600062000969565b896007815181106200096057fe5b60200260200101515b6104e05250620011e19b505050505050505050505050565b816200099257620009928162000b58565b5050565b80620009928162000bab565b620009b764e8d4a5100082101560cb62000981565b620009cf67016345785d8a000082111560ca62000981565b60078190556040517fa9ba3ffe0b6c366b81232caab38605a0699ad5398d6cce76f91ee809e322dafc9062000a06908390620010dc565b60405180910390a150565b62000992828260405160240162000a2a929190620010e5565b60408051601f198184030181529190526020810180516001600160e01b03908116630fa3f34560e01b1790915262000c3816565b600855565b600955565b600080826001600160a01b031663313ce5676040518163ffffffff1660e01b815260040160206040518083038186803b15801562000aa557600080fd5b505afa15801562000aba573d6000803e3d6000fd5b505050506040513d601f19601f8201168201806040525081019062000ae0919062001008565b60ff169050600062000aff60128362000c5960201b620012601760201c565b600a0a949350505050565b600a80546001600160a01b0319166001600160a01b0392909216919091179055565b62000992828214606762000981565b600082820162000b4f848210158362000981565b90505b92915050565b62461bcd60e51b6000908152602060045260076024526642414c23000030600a808404818106603090810160081b95839006959095019082900491820690940160101b939093010160c81b604452606490fd5b60028151101562000bbc5762000c35565b60008160008151811062000bcc57fe5b602002602001015190506000600190505b825181101562000c3257600083828151811062000bf657fe5b6020026020010151905062000c27816001600160a01b0316846001600160a01b03161060656200098160201b60201c565b915060010162000bdd565b50505b50565b80516a636f6e736f6c652e6c6f67602083016000808483855afa5050505050565b600062000c6b83831115600162000981565b50900390565b828054600181600116156101000203166002900490600052602060002090601f016020900481019282601f1062000cb457805160ff191683800117855562000ce4565b8280016001018555821562000ce4579182015b8281111562000ce457825182559160200191906001019062000cc7565b5062000cf292915062000cf6565b5090565b5b8082111562000cf2576000815560010162000cf7565b600082601f83011262000d1e578081fd5b62000d2a606062001121565b905080828460608501111562000d3f57600080fd5b60005b600381101562000d6f57815162000d5981620011cb565b8352602092830192919091019060010162000d42565b50505092915050565b600082601f83011262000d89578081fd5b815162000da062000d9a8262001148565b62001121565b81815291506020808301908481018184028601820187101562000dc257600080fd5b60005b8481101562000dee57815162000ddb81620011cb565b8452928201929082019060010162000dc5565b505050505092915050565b6000601f838184011262000e0b578182fd5b62000e17604062001121565b9150818360005b600281101562000e8b5781518601878582011262000e3b57600080fd5b805162000e4c62000d9a8262001168565b81815260208a8184860101111562000e6357600080fd5b62000e748382840183870162001198565b908652948501949390930192505060010162000e1e565b5050505092915050565b600082601f83011262000ea6578081fd5b815162000eb762000d9a8262001148565b81815291506020808301908481018184028601820187101562000ed957600080fd5b60005b8481101562000dee5781518452928201929082019060010162000edc565b805162000b5281620011cb565b60006020828403121562000f19578081fd5b5051919050565b6000806000806000806000806000806101808b8d03121562000f40578586fd5b62000f4c8c8c62000efa565b60208c0151909a506001600160401b038082111562000f69578788fd5b62000f778e838f0162000df9565b9a5060408d015191508082111562000f8d578788fd5b62000f9b8e838f0162000d78565b995060608d015191508082111562000fb1578788fd5b5062000fc08d828e0162000e95565b97505060808b0151955060a08b0151945060c08b0151935060e08b015192506101008b0151915062000ff78c6101208d0162000d0d565b90509295989b9194979a5092959850565b6000602082840312156200101a578081fd5b815160ff8116811462000b4f578182fd5b60006060820185835260206060818501528186518084526080860191508288019350845b8181101562001077576200106485516200118c565b835293830193918301916001016200104f565b505084810360408601528551808252908201925081860190845b81811015620010b957620010a683516200118c565b8552938301939183019160010162001091565b509298975050505050505050565b6020810160038310620010d657fe5b91905290565b90815260200190565b60008382526040602083015282518060408401526200110c81606085016020870162001198565b601f01601f1916919091016060019392505050565b6040518181016001600160401b03811182821017156200114057600080fd5b604052919050565b60006001600160401b038211156200115e578081fd5b5060209081020190565b60006001600160401b038211156200117e578081fd5b50601f01601f191660200190565b6001600160a01b031690565b60005b83811015620011b55781810151838201526020016200119b565b83811115620011c5576000848401525b50505050565b6001600160a01b038116811462000c3557600080fd5b60805160a05160601c60c05160e051610100516101205161014051610160516101805160601c6101a0516101c0516101e05160601c6102005160601c6102205160601c6102405160601c6102605160601c6102805160601c6102a05160601c6102c05160601c6102e05161030051610320516103405161036051610380516103a0516103c0516103e05161040051610420516104405161046051610480516104a0516104c0516104e0516159826200141f60003980612589528061324152508061254652806131e0525080612503528061317f5250806124c0528061311e52508061247d52806130bd52508061243a528061305c5250806123f75280612ffb5250806123b45280612f9a5250806129b652806129ea5280612a26525080611b255280612020525080611ae25280611fbf525080611a9f5280611f5e525080611a5c5280611efd525080611a195280611e9c5250806119d65280611e3b5250806119935280611dda5250806119425280611d79525080611fe55280612f1b5280613206525080611f845280612ed952806131a5525080611f235280612e975280613144525080611ec25280612e5552806130e3525080611e615280612e135280613082525080611e005280612dd15280613021525080611d9f5280612d8f5280612fc0525080611d3e5280612d4d5280612f5f5250806116005250806106d752508061098e5250806113cd5250806113a9525080610f0b5250806114d05250806115125250806114f152508061096a5250806108f452506159826000f3fe608060405234801561001057600080fd5b506004361061025e5760003560e01c806387ec681711610146578063bc3d3e30116100c3578063dd62ed3e11610087578063dd62ed3e146104d6578063e5c9b87c146104e9578063ef38c0c7146104fc578063f71ebfd41461050f578063f89f27ed14610517578063fcdb30b41461052c5761025e565b8063bc3d3e301461048d578063c0ff1a1514610495578063d505accf1461049d578063d5c096c4146104b0578063d73dd623146104c35761025e565b80639b4843791161010a5780639b484379146104395780639d2c110c1461044c578063a1eb6dfd1461045f578063a9059cbb14610472578063aaabadc5146104855761025e565b806387ec6817146103f9578063893d20e81461040c5780638d928af81461042157806395d89b41146104295780639b02cdde146104315761025e565b8063489e269c116101df578063679aefce116101a3578063679aefce1461038f57806370a082311461039757806374f3b009146103aa5780637ecebe00146103cb5780638059c960146103de578063851c1bb3146103e65761025e565b8063489e269c1461032d57806355c67628146103405780636028bfd4146103485780636141f17814610369578063661884631461037c5761025e565b806323b872dd1161022657806323b872dd146102e2578063313ce567146102f55780633644e5151461030a57806338e9922e1461031257806338fff2d0146103255761025e565b806306fdde0314610263578063095ea7b31461028157806316c38b3c146102a157806318160ddd146102b65780631c0de051146102cb575b600080fd5b61026b610534565b6040516102789190615782565b60405180910390f35b61029461028f366004615011565b6105cb565b6040516102789190615611565b6102b46102af366004615107565b6105e2565b005b6102be6105f6565b6040516102789190615634565b6102d36105fc565b6040516102789392919061561c565b6102946102f0366004614f5c565b610625565b6102fd6106a8565b6040516102789190615876565b6102be6106ad565b6102b46103203660046154c1565b6106bc565b6102be6106d5565b6102b461033b366004614eec565b6106f9565b6102be61073a565b61035b61035636600461513f565b610740565b604051610278929190615844565b6102be6103773660046154c1565b610777565b61029461038a366004615011565b610789565b6102be6107e3565b6102be6103a5366004614eec565b61080e565b6103bd6103b836600461513f565b61082d565b6040516102789291906155ec565b6102be6103d9366004614eec565b6108cf565b6102be6108ea565b6102be6103f436600461523b565b6108f0565b61035b61040736600461513f565b610942565b610414610968565b60405161027891906155a1565b61041461098c565b61026b6109b0565b6102be610a11565b6102b46104473660046154c1565b610a17565b6102be61045a3660046153c6565b610a4f565b6102be61046d3660046154c1565b610dda565b610294610480366004615011565b610dec565b610414610df9565b610414610e03565b6102be610e12565b6102b46104ab366004614f9c565b610ed6565b6103bd6104be36600461513f565b61101f565b6102946104d1366004615011565b611141565b6102be6104e4366004614f24565b611177565b6102be6104f73660046154c1565b6111a2565b6102be61050a3660046154c1565b6111b4565b6104146111c6565b61051f6111de565b60405161027891906155d9565b6102be6111e8565b60038054604080516020601f60026000196101006001881615020190951694909404938401819004810282018101909252828152606093909290918301828280156105c05780601f10610595576101008083540402835291602001916105c0565b820191906000526020600020905b8154815290600101906020018083116105a357829003601f168201915b505050505090505b90565b60006105d8338484611276565b5060015b92915050565b6105ea6112de565b6105f38161130c565b50565b60025490565b600080600061060961138a565b1592506106146113a7565b915061061e6113cb565b9050909192565b6001600160a01b0383166000818152600160209081526040808320338085529252822054919261066391148061065b5750838210155b6101976113ef565b61066e8585856113fd565b336001600160a01b0386161480159061068957506000198114155b1561069b5761069b8533858403611276565b60019150505b9392505050565b601290565b60006106b76114cc565b905090565b6106c46112de565b6106cc611569565b6105f38161157e565b7f000000000000000000000000000000000000000000000000000000000000000090565b33610702610968565b6001600160a01b0316146107315760405162461bcd60e51b8152600401610728906157f6565b60405180910390fd5b6105f3816115dc565b60075490565b6000606061075686516107516115fe565b611241565b61076b898989898989896116226116ea611750565b97509795505050505050565b600c6020526000908152604090205481565b3360009081526001602090815260408083206001600160a01b03861684529091528120548083106107c5576107c033856000611276565b6107d9565b6107d933856107d48487611260565b611276565b5060019392505050565b60006106b76107f06105f6565b6108086107fb610e12565b6108036115fe565b611872565b90611896565b6001600160a01b0381166000908152602081905260409020545b919050565b6060808861085761083c61098c565b6001600160a01b0316336001600160a01b03161460cd6113ef565b61086c6108626106d5565b82146101f46113ef565b60606108766118e7565b90506108828882611b63565b60006060806108968e8e8e8e8e8e8e611622565b9250925092506108a68d84611bc4565b6108b082856116ea565b6108ba81856116ea565b909550935050505b5097509795505050505050565b6001600160a01b031660009081526005602052604090205490565b60095481565b60007f00000000000000000000000000000000000000000000000000000000000000008260405160200161092592919061555e565b604051602081830303815290604052805190602001209050919050565b6000606061095386516107516115fe565b61076b89898989898989611c57611cd4611750565b7f000000000000000000000000000000000000000000000000000000000000000090565b7f000000000000000000000000000000000000000000000000000000000000000090565b60048054604080516020601f60026000196101006001881615020190951694909404938401819004810282018101909252828152606093909290918301828280156105c05780601f10610595576101008083540402835291602001916105c0565b600f5490565b33610a20610968565b6001600160a01b031614610a465760405162461bcd60e51b8152600401610728906157f6565b6105f381611d35565b600080610a5f8560200151611d3a565b90506000610a708660400151611d3a565b9050600086516001811115610a8157fe5b1415610c195760608601516040805180820190915260158152740496e697469616c416d6f756e7420696e207377617605c1b6020820152610ac39082906111fc565b610acc8161204f565b6060808901829052604080519182019052603c808252610af592919061591160208301396111fc565b6000610b058860200151836120a3565b9050610b39816040518060400160405280601081526020016f06f6365616e466565206f6e20737761760841b8152506111fc565b6000610b4989602001518461216c565b9050610b7e816040518060400160405280601181526020017006d61726b6574466565206f6e207377617607c1b8152506111fc565b610b9f81610b99848c6060015161126090919063ffffffff16565b90611260565b6060808b018290526040805191820190526024808252610bc89291906158ed60208301396111fc565b610bd28886612236565b9750610bde8785612236565b9650610bee896060015186612236565b60608a01526000610c008a8a8a612242565b9050610c0c818661227d565b96505050505050506106a1565b610c238583612236565b9450610c2f8482612236565b9350610c3f866060015182612236565b60608701526000610c51878787612289565b9050610c5d81846122bc565b9050610c9681604051806040016040528060158152602001740496e697469616c416d6f756e7420696e207377617605c1b8152506111fc565b6000610ca68860200151836120a3565b9050610cda816040518060400160405280601081526020016f06f6365616e46656520696e20737761760841b8152506111fc565b6000610cea89602001518461216c565b9050610d1f826040518060400160405280601181526020017006d61726b746546656520696e207377617607c1b8152506111fc565b6000610d2a846122c8565b90506000610d4283610d3c848761124e565b9061124e565b9050610d83826040518060400160405280601981526020017f616d6f756e742061667465722062616c207377617020666565000000000000008152506111fc565b610dbb816040518060400160405280601681526020017566696e616c416d6f756e74206166746572206665657360501b8152506111fc565b610dcc83610d3c86610d3c896122c8565b9750505050505050506106a1565b600d6020526000908152604090205481565b60006105d83384846113fd565b60006106b76122df565b600a546001600160a01b031681565b60006060610e1e61098c565b6001600160a01b031663f94d4668610e346106d5565b6040518263ffffffff1660e01b8152600401610e509190615634565b60006040518083038186803b158015610e6857600080fd5b505afa158015610e7c573d6000803e3d6000fd5b505050506040513d6000823e601f3d908101601f19168201604052610ea4919081019061503c565b50915050610eb981610eb46118e7565b611b63565b6060610ec3612359565b9050610ecf81836125b5565b9250505090565b610ee48442111560d16113ef565b6001600160a01b0387166000908152600560209081526040808320549051909291610f3b917f0000000000000000000000000000000000000000000000000000000000000000918c918c918c9188918d910161565c565b6040516020818303038152906040528051906020012090506000610f5e82612627565b9050600060018288888860405160008152602001604052604051610f859493929190615742565b6020604051602081039080840390855afa158015610fa7573d6000803e3d6000fd5b5050604051601f1901519150610fe990506001600160a01b03821615801590610fe157508b6001600160a01b0316826001600160a01b0316145b6101f86113ef565b6001600160a01b038b1660009081526005602052604090206001850190556110128b8b8b611276565b5050505050505050505050565b6060808861102e61083c61098c565b6110396108626106d5565b60606110436118e7565b905061104d6105f6565b6110f257600060606110618d8d8d8a612643565b91509150611076620f424083101560cc6113ef565b6110846000620f42406126e0565b6110938b620f424084036126e0565b61109d8184611cd4565b806110a66115fe565b6001600160401b03811180156110bb57600080fd5b506040519080825280602002602001820160405280156110e5578160200160208202803683370190505b50955095505050506108c2565b6110fc8882611b63565b60006060806111108e8e8e8e8e8e8e611c57565b9250925092506111208c846126e0565b61112a8285611cd4565b61113481856116ea565b90955093506108c2915050565b3360008181526001602090815260408083206001600160a01b038716845290915281205490916105d89185906107d4908661124e565b6001600160a01b03918216600090815260016020908152604080832093909416825291909152205490565b600b6020526000908152604090205481565b600e6020526000908152604090205481565b73ee9300b7961e0a01d9f0adb863c7a227a07aad7581565b60606106b7612359565b60085481565b806111f881612776565b5050565b6111f8828260405160240161121292919061585d565b60408051601f198184030181529190526020810180516001600160e01b0316630fa3f34560e01b1790526127ef565b6111f881831460676113ef565b60008282016106a184821015836113ef565b60006112708383111560016113ef565b50900390565b6001600160a01b0380841660008181526001602090815260408083209487168084529490915290819020849055517f8c5be1e5ebec7d5bd14f71427d1e84f3dd0314c0f7b2291e5b200ac8c7c3b925906112d1908590615634565b60405180910390a3505050565b60006112f56000356001600160e01b0319166108f0565b90506105f36113048233612810565b6101916113ef565b801561132c5761132761131d6113a7565b42106101936113ef565b611341565b6113416113376113cb565b42106101a96113ef565b6006805460ff19168215151790556040517f9e3a5e37224532dea67b89face185703738a228a6e8a23dee546960180d3be649061137f908390615611565b60405180910390a150565b60006113946113cb565b4211806106b757505060065460ff161590565b7f000000000000000000000000000000000000000000000000000000000000000090565b7f000000000000000000000000000000000000000000000000000000000000000090565b816111f8576111f881612900565b6001600160a01b038316600090815260208190526040902054611425828210156101966113ef565b61143c6001600160a01b03841615156101996113ef565b6001600160a01b0380851660009081526020819052604080822085850390559185168152205461146c908361124e565b6001600160a01b0380851660008181526020819052604090819020939093559151908616907fddf252ad1be2c89b69c2b068fc378daa952ba7f163c4a11628f55a4df523b3ef906114be908690615634565b60405180910390a350505050565b60007f00000000000000000000000000000000000000000000000000000000000000007f00000000000000000000000000000000000000000000000000000000000000007f0000000000000000000000000000000000000000000000000000000000000000611539612953565b3060405160200161154e959493929190615716565b60405160208183030381529060405280519060200120905090565b61157c61157461138a565b6101926113ef565b565b61159164e8d4a5100082101560cb6113ef565b6115a767016345785d8a000082111560ca6113ef565b60078190556040517fa9ba3ffe0b6c366b81232caab38605a0699ad5398d6cce76f91ee809e322dafc9061137f908390615634565b600a80546001600160a01b0319166001600160a01b0392909216919091179055565b7f000000000000000000000000000000000000000000000000000000000000000090565b60006060806060611631612359565b905061163b61138a565b1561167257600061164c828a6125b5565b905061165d8983600f54848b612957565b925061166c8984611260612a66565b506116bd565b61167a6115fe565b6001600160401b038111801561168f57600080fd5b506040519080825280602002602001820160405280156116b9578160200160208202803683370190505b5091505b6116c98882878c612ad1565b90945092506116d9888483612bfd565b600f55509750975097945050505050565b60005b6116f56115fe565b81101561174b5761172c83828151811061170b57fe5b602002602001015183838151811061171f57fe5b6020026020010151612c16565b83828151811061173857fe5b60209081029190910101526001016116ed565b505050565b33301461180e576000306001600160a01b0316600036604051611774929190615576565b6000604051808303816000865af19150503d80600081146117b1576040519150601f19603f3d011682016040523d82523d6000602084013e6117b6565b606091505b5050905080600081146117c557fe5b60046000803e6000516001600160e01b0319166343adbafb60e01b81146117f0573d6000803e3d6000fd5b506020600460003e604060205260243d03602460403e601c3d016000f35b60606118186118e7565b90506118248782611b63565b6000606061183b8c8c8c8c8c8c8c8c63ffffffff16565b509150915061184e81848663ffffffff16565b8051601f1982018390526343adbafb603f1983015260200260231982016044820181fd5b60008282026106a184158061188f57508385838161188c57fe5b04145b60036113ef565b60006118a582151560046113ef565b826118b2575060006105dc565b670de0b6b3a7640000838102906118d5908583816118cc57fe5b041460056113ef565b8281816118de57fe5b049150506105dc565b606060006118f36115fe565b90506060816001600160401b038111801561190d57600080fd5b50604051908082528060200260200182016040528015611937578160200160208202803683370190505b509050811561197f577f00000000000000000000000000000000000000000000000000000000000000008160008151811061196e57fe5b602002602001018181525050611988565b91506105c89050565b600182111561197f577f0000000000000000000000000000000000000000000000000000000000000000816001815181106119bf57fe5b602002602001018181525050600282111561197f577f000000000000000000000000000000000000000000000000000000000000000081600281518110611a0257fe5b602002602001018181525050600382111561197f577f000000000000000000000000000000000000000000000000000000000000000081600381518110611a4557fe5b602002602001018181525050600482111561197f577f000000000000000000000000000000000000000000000000000000000000000081600481518110611a8857fe5b602002602001018181525050600582111561197f577f000000000000000000000000000000000000000000000000000000000000000081600581518110611acb57fe5b602002602001018181525050600682111561197f577f000000000000000000000000000000000000000000000000000000000000000081600681518110611b0e57fe5b602002602001018181525050600782111561197f577f000000000000000000000000000000000000000000000000000000000000000081600781518110611b5157fe5b60200260200101818152505091505090565b60005b611b6e6115fe565b81101561174b57611ba5838281518110611b8457fe5b6020026020010151838381518110611b9857fe5b6020026020010151611872565b838281518110611bb157fe5b6020908102919091010152600101611b66565b6001600160a01b038216600090815260208190526040902054611bec828210156101966113ef565b6001600160a01b03831660009081526020819052604090208282039055600254611c169083611260565b6002556040516000906001600160a01b038516907fddf252ad1be2c89b69c2b068fc378daa952ba7f163c4a11628f55a4df523b3ef906112d1908690615634565b6000606080611c64611569565b6060611c6e612359565b90506000611c7c828a6125b5565b90506060611c8f8a84600f54858c612957565b9050611c9e8a82611260612a66565b60006060611cad8c868b612c36565b91509150611cbc8c8287612cc3565b600f55909e909d50909b509950505050505050505050565b60005b611cdf6115fe565b81101561174b57611d16838281518110611cf557fe5b6020026020010151838381518110611d0957fe5b6020026020010151612cd2565b838281518110611d2257fe5b6020908102919091010152600101611cd7565b600955565b60007f00000000000000000000000000000000000000000000000000000000000000006001600160a01b0316826001600160a01b03161415611d9d57507f0000000000000000000000000000000000000000000000000000000000000000610828565b7f00000000000000000000000000000000000000000000000000000000000000006001600160a01b0316826001600160a01b03161415611dfe57507f0000000000000000000000000000000000000000000000000000000000000000610828565b7f00000000000000000000000000000000000000000000000000000000000000006001600160a01b0316826001600160a01b03161415611e5f57507f0000000000000000000000000000000000000000000000000000000000000000610828565b7f00000000000000000000000000000000000000000000000000000000000000006001600160a01b0316826001600160a01b03161415611ec057507f0000000000000000000000000000000000000000000000000000000000000000610828565b7f00000000000000000000000000000000000000000000000000000000000000006001600160a01b0316826001600160a01b03161415611f2157507f0000000000000000000000000000000000000000000000000000000000000000610828565b7f00000000000000000000000000000000000000000000000000000000000000006001600160a01b0316826001600160a01b03161415611f8257507f0000000000000000000000000000000000000000000000000000000000000000610828565b7f00000000000000000000000000000000000000000000000000000000000000006001600160a01b0316826001600160a01b03161415611fe357507f0000000000000000000000000000000000000000000000000000000000000000610828565b7f00000000000000000000000000000000000000000000000000000000000000006001600160a01b0316826001600160a01b0316141561204457507f0000000000000000000000000000000000000000000000000000000000000000610828565b610828610135612900565b60008061206760075484612d0590919063ffffffff16565b9050612099816040518060400160405280600e81526020016d0666565416d6f756e7420737761760941b8152506111fc565b6106a18382611260565b6000806120af84612d49565b90506120e16008546040518060400160405280600c81526020016b39bbb0b82332b2a7b1b2b0b760a11b8152506111fc565b60006120f860085485612d0590919063ffffffff16565b9050612139816040518060400160405280601e81526020017f666565416d6f756e7420696e2063616c63756c6174654f6365616e46656500008152506111fc565b6000828152600b6020526040902054612152908261124e565b6000928352600b6020526040909220919091559392505050565b60008061217884612d49565b90506121ab6009546040518060400160405280600d81526020016c1cddd85c11995953585c9ad95d609a1b8152506111fc565b60006121c260095485612d0590919063ffffffff16565b9050612203816040518060400160405280602081526020017f666565416d6f756e7420696e2063616c63756c6174654d61726b7465724665658152506111fc565b6000828152600d602052604090205461221c908261124e565b6000928352600d6020526040909220919091559392505050565b60006106a18383611872565b600061224c611569565b6122758361225d8660200151612f5b565b8461226b8860400151612f5b565b8860600151613265565b949350505050565b60006106a18383612c16565b6000612293611569565b612275836122a48660200151612f5b565b846122b28860400151612f5b565b88606001516132e0565b60006106a18383612cd2565b60006105dc6122d8600754613356565b839061337c565b60006122e961098c565b6001600160a01b031663aaabadc56040518163ffffffff1660e01b815260040160206040518083038186803b15801561232157600080fd5b505afa158015612335573d6000803e3d6000fd5b505050506040513d601f19601f820116820180604052508101906106b79190614f08565b606060006123656115fe565b90506060816001600160401b038111801561237f57600080fd5b506040519080825280602002602001820160405280156123a9578160200160208202803683370190505b509050811561197f577f0000000000000000000000000000000000000000000000000000000000000000816000815181106123e057fe5b602002602001018181525050600182111561197f577f00000000000000000000000000000000000000000000000000000000000000008160018151811061242357fe5b602002602001018181525050600282111561197f577f00000000000000000000000000000000000000000000000000000000000000008160028151811061246657fe5b602002602001018181525050600382111561197f577f0000000000000000000000000000000000000000000000000000000000000000816003815181106124a957fe5b602002602001018181525050600482111561197f577f0000000000000000000000000000000000000000000000000000000000000000816004815181106124ec57fe5b602002602001018181525050600582111561197f577f00000000000000000000000000000000000000000000000000000000000000008160058151811061252f57fe5b602002602001018181525050600682111561197f577f00000000000000000000000000000000000000000000000000000000000000008160068151811061257257fe5b602002602001018181525050600782111561197f577f000000000000000000000000000000000000000000000000000000000000000081600781518110611b5157fe5b670de0b6b3a764000060005b83518110156126175761260d6126068583815181106125dc57fe5b60200260200101518584815181106125f057fe5b60200260200101516133be90919063ffffffff16565b839061340d565b91506001016125c1565b506105dc600082116101376113ef565b60006126316114cc565b82604051602001610925929190615586565b6000606061264f611569565b600061265a84613439565b9050612675600082600381111561266d57fe5b1460ce6113ef565b60606126808561344f565b905061269461268d6115fe565b8251611241565b6126a081610eb46118e7565b60606126aa612359565b905060006126b882846125b5565b905060006126c8826108036115fe565b600f9290925550945090925050505b94509492505050565b6001600160a01b038216600090815260208190526040902054612703908261124e565b6001600160a01b038316600090815260208190526040902055600254612729908261124e565b6002556040516001600160a01b038316906000907fddf252ad1be2c89b69c2b068fc378daa952ba7f163c4a11628f55a4df523b3ef9061276a908590615634565b60405180910390a35050565b600281511015612785576105f3565b60008160008151811061279457fe5b602002602001015190506000600190505b825181101561174b5760008382815181106127bc57fe5b602002602001015190506127e5816001600160a01b0316846001600160a01b03161060656113ef565b91506001016127a5565b80516a636f6e736f6c652e6c6f67602083016000808483855afa5050505050565b600073ba1ba1ba1ba1ba1ba1ba1ba1ba1ba1ba1ba1ba1b61282f610968565b6001600160a01b03161415801561284a575061284a83613465565b1561287257612857610968565b6001600160a01b0316336001600160a01b03161490506105dc565b61287a6122df565b6001600160a01b0316639be2a8848484306040518463ffffffff1660e01b81526004016128a99392919061563d565b60206040518083038186803b1580156128c157600080fd5b505afa1580156128d5573d6000803e3d6000fd5b505050506040513d601f19601f820116820180604052508101906128f99190615123565b90506105dc565b62461bcd60e51b6000908152602060045260076024526642414c23000030600a808404818106603090810160081b95839006959095019082900491820690940160101b939093010160c81b604452606490fd5b4690565b6060806129626115fe565b6001600160401b038111801561297757600080fd5b506040519080825280602002602001820160405280156129a1578160200160208202803683370190505b509050826129b0579050612a5d565b612a23877f0000000000000000000000000000000000000000000000000000000000000000815181106129df57fe5b6020026020010151877f000000000000000000000000000000000000000000000000000000000000000081518110612a1357fe5b602002602001015187878761347f565b817f000000000000000000000000000000000000000000000000000000000000000081518110612a4f57fe5b602090810291909101015290505b95945050505050565b60005b612a716115fe565b811015612acb57612aac848281518110612a8757fe5b6020026020010151848381518110612a9b57fe5b60200260200101518463ffffffff16565b848281518110612ab857fe5b6020908102919091010152600101612a69565b50505050565b600060606000612ae0856134f7565b90506000816004811115612af057fe5b1415612b0b57612b0187878761350d565b92509250506126d7565b6001816004811115612b1957fe5b1415612b2957612b0187866135ea565b6003816004811115612b3757fe5b1415612b81576001600160a01b03841673ee9300b7961e0a01d9f0adb863c7a227a07aad7514612b795760405162461bcd60e51b815260040161072890615819565b612b0161361c565b6004816004811115612b8f57fe5b1415612bf257600a546001600160a01b0316612bbd5760405162461bcd60e51b815260040161072890615795565b600a546001600160a01b03858116911614612bea5760405162461bcd60e51b8152600401610728906157cc565b612b016136ec565b612b018787876137b1565b6000612c0c8484611260612a66565b61227582856125b5565b6000612c2582151560046113ef565b818381612c2e57fe5b049392505050565b600060606000612c4584613439565b90506001816003811115612c5557fe5b1415612c7057612c6686868661381c565b9250925050612cbb565b6002816003811115612c7e57fe5b1415612c8f57612c66868686613876565b6003816003811115612c9d57fe5b1415612cae57612c6686868661391d565b612cb9610136612900565b505b935093915050565b6000612c0c848461124e612a66565b6000612ce182151560046113ef565b82612cee575060006105dc565b816001840381612cfa57fe5b0460010190506105dc565b6000828202612d1f84158061188f57508385838161188c57fe5b80612d2e5760009150506105dc565b670de0b6b3a764000060001982015b046001019150506105dc565b60007f00000000000000000000000000000000000000000000000000000000000000006001600160a01b0316826001600160a01b03161415612d8d57506000610828565b7f00000000000000000000000000000000000000000000000000000000000000006001600160a01b0316826001600160a01b03161415612dcf57506001610828565b7f00000000000000000000000000000000000000000000000000000000000000006001600160a01b0316826001600160a01b03161415612e1157506002610828565b7f00000000000000000000000000000000000000000000000000000000000000006001600160a01b0316826001600160a01b03161415612e5357506003610828565b7f00000000000000000000000000000000000000000000000000000000000000006001600160a01b0316826001600160a01b03161415612e9557506004610828565b7f00000000000000000000000000000000000000000000000000000000000000006001600160a01b0316826001600160a01b03161415612ed757506005610828565b7f00000000000000000000000000000000000000000000000000000000000000006001600160a01b0316826001600160a01b03161415612f1957506006610828565b7f00000000000000000000000000000000000000000000000000000000000000006001600160a01b0316826001600160a01b0316141561204457506007610828565b60007f00000000000000000000000000000000000000000000000000000000000000006001600160a01b0316826001600160a01b03161415612fbe57507f0000000000000000000000000000000000000000000000000000000000000000610828565b7f00000000000000000000000000000000000000000000000000000000000000006001600160a01b0316826001600160a01b0316141561301f57507f0000000000000000000000000000000000000000000000000000000000000000610828565b7f00000000000000000000000000000000000000000000000000000000000000006001600160a01b0316826001600160a01b0316141561308057507f0000000000000000000000000000000000000000000000000000000000000000610828565b7f00000000000000000000000000000000000000000000000000000000000000006001600160a01b0316826001600160a01b031614156130e157507f0000000000000000000000000000000000000000000000000000000000000000610828565b7f00000000000000000000000000000000000000000000000000000000000000006001600160a01b0316826001600160a01b0316141561314257507f0000000000000000000000000000000000000000000000000000000000000000610828565b7f00000000000000000000000000000000000000000000000000000000000000006001600160a01b0316826001600160a01b031614156131a357507f0000000000000000000000000000000000000000000000000000000000000000610828565b7f00000000000000000000000000000000000000000000000000000000000000006001600160a01b0316826001600160a01b0316141561320457507f0000000000000000000000000000000000000000000000000000000000000000610828565b7f00000000000000000000000000000000000000000000000000000000000000006001600160a01b0316826001600160a01b0316141561204457507f0000000000000000000000000000000000000000000000000000000000000000610828565b600061328761327c87670429d069189e000061340d565b8311156101306113ef565b6000613293878461124e565b905060006132a1888361337c565b905060006132af8887611896565b905060006132bd8383613cee565b90506132d26132cb82613356565b899061340d565b9a9950505050505050505050565b60006133026132f785670429d069189e000061340d565b8311156101316113ef565b60006133186133118685611260565b869061337c565b90506000613326858861337c565b905060006133348383613cee565b9050600061334a82670de0b6b3a7640000611260565b90506132d28a82612d05565b6000670de0b6b3a7640000821061336e5760006105dc565b50670de0b6b3a76400000390565b600061338b82151560046113ef565b82613398575060006105dc565b670de0b6b3a7640000838102906133b2908583816118cc57fe5b826001820381612d3d57fe5b6000806133cb8484613d1a565b905060006133e56133de83612710612d05565b600161124e565b9050808210156133fa576000925050506105dc565b6134048282611260565b925050506105dc565b600082820261342784158061188f57508385838161188c57fe5b670de0b6b3a764000090049392505050565b6000818060200190518101906105dc9190615323565b6060818060200190518101906106a1919061533e565b6000613477631c74c91760e11b6108f0565b909114919050565b600083831161349057506000612a5d565b600061349c858561337c565b905060006134b2670de0b6b3a764000088611896565b90506134c6826709b6e64a8ec60000613e25565b915060006134d48383613cee565b905060006134eb6134e483613356565b8b9061340d565b90506132d2818761340d565b6000818060200190518101906105dc9190615263565b60006060613519611569565b60008061352585613e3c565b9150915061353d6135346115fe565b821060646113ef565b60606135476115fe565b6001600160401b038111801561355c57600080fd5b50604051908082528060200260200182016040528015613586578160200160208202803683370190505b5090506135c588838151811061359857fe5b60200260200101518884815181106135ac57fe5b6020026020010151856135bd6105f6565b600754613e5e565b8183815181106135d157fe5b6020908102919091010152919791965090945050505050565b6000606060006135f984613f1b565b9050606061360f868361360a6105f6565b613f31565b9196919550909350505050565b60006060613628611569565b60606136326115fe565b6001600160401b038111801561364757600080fd5b50604051908082528060200260200182016040528015613671578160200160208202803683370190505b50905060005b61367f6115fe565b8110156136e1576000818152600c6020908152604080832054600b909252909120548351919003908390839081106136b357fe5b6020908102919091018101919091526000828152600b8252604080822054600c909352902055600101613677565b506000925090509091565b600060606136f8611569565b60606137026115fe565b6001600160401b038111801561371757600080fd5b50604051908082528060200260200182016040528015613741578160200160208202803683370190505b50905060005b61374f6115fe565b8110156136e1576000818152600e6020908152604080832054600d9092529091205483519190039083908390811061378357fe5b6020908102919091018101919091526000828152600d8252604080822054600e909352902055600101613747565b600060606137bd611569565b606060006137ca85613fe2565b915091506137db82516107516115fe565b6137e782610eb46118e7565b60006137ff8888856137f76105f6565b600754613ffa565b905061380f8282111560cf6113ef565b9791965090945050505050565b6000606080600061382c8561421e565b9150915061384261383b6115fe565b8351611241565b61384e82610eb46118e7565b600061386688888561385e6105f6565b600754614236565b905061380f8282101560d06113ef565b6000606060008061388685614446565b915091506138956135346115fe565b606061389f6115fe565b6001600160401b03811180156138b457600080fd5b506040519080825280602002602001820160405280156138de578160200160208202803683370190505b5090506135c58883815181106138f057fe5b602002602001015188848151811061390457fe5b6020026020010151856139156105f6565b60075461445d565b6000606060008061392d85614446565b9150915061393c6135346115fe565b60606139466115fe565b6001600160401b038111801561395b57600080fd5b50604051908082528060200260200182016040528015613985578160200160208202803683370190505b5090506139978883815181106138f057fe5b8183815181106139a357fe5b60200260200101818152505060608060006139bc61098c565b6001600160a01b031663f94d46686139d26106d5565b6040518263ffffffff1660e01b81526004016139ee9190615634565b60006040518083038186803b158015613a0657600080fd5b505afa158015613a1a573d6000803e3d6000fd5b505050506040513d6000823e601f3d908101601f19168201604052613a42919081019061503c565b601054604051631c16cc7960e31b8152939650919450925060009182916001600160a01b03169063e0b663c890613a7d9030906004016155a1565b60206040518083038186803b158015613a9557600080fd5b505afa158015613aa9573d6000803e3d6000fd5b505050506040513d601f19601f82011682018060405250810190613acd9190614f08565b9050613afa816040518060400160405280600981526020016864744164647265737360b81b8152506144ff565b60005b613b056115fe565b811015613b4957816001600160a01b0316868281518110613b2257fe5b60200260200101516001600160a01b03161415613b4157809250613b49565b600101613afd565b50613b7382604051806040016040528060078152602001660c8e892dcc8caf60cb1b8152506111fc565b6060613b7d6115fe565b6001600160401b0381118015613b9257600080fd5b50604051908082528060200260200182016040528015613bbc578160200160208202803683370190505b509050613bf3858481518110613bce57fe5b60200260200101518e8581518110613be257fe5b60200260200101518b6139156105f6565b818481518110613bff57fe5b602002602001018181525050606060028a85604051602001613c2393929190615760565b60408051601f198184030181529190526010549091506001600160a01b031663ccda98c7613c4f6106d5565b898585878a81518110613c5e57fe5b60200260200101516040518663ffffffff1660e01b8152600401613c86959493929190615690565b602060405180830381600087803b158015613ca057600080fd5b505af1158015613cb4573d6000803e3d6000fd5b505050506040513d601f19601f82011682018060405250810190613cd89190615123565b50989e969d50959b505050505050505050505050565b600080613cfb8484613d1a565b90506000613d0e6133de83612710612d05565b9050612a5d828261124e565b600081613d305750670de0b6b3a76400006105dc565b82613d3d575060006105dc565b613d4e600160ff1b841060066113ef565b82613d74770bce5086492111aea88f4bb1ca6bcf584181ea8059f76532841060076113ef565b826000670c7d713b49da000083138015613d955750670f43fc2c04ee000083125b15613dcc576000613da584614544565b9050670de0b6b3a764000080820784020583670de0b6b3a764000083050201915050613dda565b81613dd684614662565b0290505b670de0b6b3a76400009005613e12680238fd42c5cf03ffff198212801590613e0b575068070c1cc73b00c800008213155b60086113ef565b613e1b81614a01565b9695505050505050565b600081831015613e3557816106a1565b5090919050565b60008082806020019051810190613e5391906152ee565b909590945092505050565b600080613e7584613e6f8188611260565b9061337c565b9050613e8e6709b6e64a8ec600008210156101326113ef565b6000613eac613ea5670de0b6b3a764000089611896565b8390613cee565b90506000613ec3613ebc83613356565b8a9061340d565b90506000613ed089613356565b90506000613ede8383612d05565b90506000613eec8483611260565b9050613f0b613f04613efd8a613356565b849061340d565b829061124e565b9c9b505050505050505050505050565b6000818060200190518101906106a191906152c2565b60606000613f3f8484611896565b9050606085516001600160401b0381118015613f5a57600080fd5b50604051908082528060200260200182016040528015613f84578160200160208202803683370190505b50905060005b8651811015613fd857613fb983888381518110613fa357fe5b602002602001015161340d90919063ffffffff16565b828281518110613fc557fe5b6020908102919091010152600101613f8a565b5095945050505050565b6060600082806020019051810190613e53919061527e565b6000606084516001600160401b038111801561401557600080fd5b5060405190808252806020026020018201604052801561403f578160200160208202803683370190505b5090506000805b88518110156141045761409f89828151811061405e57fe5b6020026020010151613e6f89848151811061407557fe5b60200260200101518c858151811061408957fe5b602002602001015161126090919063ffffffff16565b8382815181106140ab57fe5b6020026020010181815250506140fa6140f38983815181106140c957fe5b60200260200101518584815181106140dd57fe5b6020026020010151612d0590919063ffffffff16565b839061124e565b9150600101614046565b50670de0b6b3a764000060005b89518110156141fd57600084828151811061412857fe5b602002602001015184111561417f57600061415161414586613356565b8d8581518110613fa357fe5b90506000614165828c868151811061408957fe5b90506141766140f36122d88b613356565b92505050614196565b88828151811061418b57fe5b602002602001015190505b60006141bf8c84815181106141a757fe5b6020026020010151610808848f878151811061408957fe5b90506141f16141ea8c85815181106141d357fe5b6020026020010151836133be90919063ffffffff16565b859061340d565b93505050600101614111565b5061421161420a82613356565b8790612d05565b9998505050505050505050565b6060600082806020019051810190613e53919061538a565b6000606084516001600160401b038111801561425157600080fd5b5060405190808252806020026020018201604052801561427b578160200160208202803683370190505b5090506000805b8851811015614323576142db89828151811061429a57fe5b60200260200101516108088984815181106142b157fe5b60200260200101518c85815181106142c557fe5b602002602001015161124e90919063ffffffff16565b8382815181106142e757fe5b6020026020010181815250506143196140f389838151811061430557fe5b6020026020010151858481518110613fa357fe5b9150600101614282565b50670de0b6b3a764000060005b89518110156144045760008385838151811061434857fe5b602002602001015111156143a457600061436d61414586670de0b6b3a7640000611260565b90506000614381828c868151811061408957fe5b905061439b6140f3612606670de0b6b3a76400008c611260565b925050506143bb565b8882815181106143b057fe5b602002602001015190505b60006143e48c84815181106143cc57fe5b6020026020010151610808848f87815181106142c557fe5b90506143f86141ea8c85815181106141d357fe5b93505050600101614330565b50670de0b6b3a7640000811061443a5761443061442982670de0b6b3a7640000611260565b879061340d565b9350505050612a5d565b60009350505050612a5d565b60008082806020019051810190613e5391906153a8565b60008061446e84613e6f818861124e565b90506144876729a2241af62c00008211156101336113ef565b600061449e613ea5670de0b6b3a76400008961337c565b905060006144be6144b783670de0b6b3a7640000611260565b8a90612d05565b905060006144cb89613356565b905060006144d98383612d05565b905060006144e78483611260565b9050613f0b613f046144f88a613356565b849061337c565b6111f882826040516024016145159291906155b5565b60408051601f198184030181529190526020810180516001600160e01b031663759f86bb60e01b1790526127ef565b670de0b6b3a7640000026000806a0c097ce7bc90715b34b9f160241b808401906ec097ce7bc90715b34b9f0fffffffff198501028161457f57fe5b05905060006a0c097ce7bc90715b34b9f160241b82800205905081806a0c097ce7bc90715b34b9f160241b81840205915060038205016a0c097ce7bc90715b34b9f160241b82840205915060058205016a0c097ce7bc90715b34b9f160241b82840205915060078205016a0c097ce7bc90715b34b9f160241b82840205915060098205016a0c097ce7bc90715b34b9f160241b828402059150600b8205016a0c097ce7bc90715b34b9f160241b828402059150600d8205016a0c097ce7bc90715b34b9f160241b828402059150600f826002919005919091010295945050505050565b6000670de0b6b3a764000082121561469e57614694826a0c097ce7bc90715b34b9f160241b8161468e57fe5b05614662565b6000039050610828565b60007e1600ef3172e58d2e933ec884fde10064c63b5372d805e203c000000000000083126146ef57770195e54c5dd42177f53a27172fa9ec630262827000000000830592506806f05b59d3b2000000015b73011798004d755d3c8bc8e03204cf44619e0000008312614727576b1425982cf597cd205cef7380830592506803782dace9d9000000015b606492830292026e01855144814a7ff805980ff0084000831261476f576e01855144814a7ff805980ff008400068056bc75e2d63100000840205925068ad78ebc5ac62000000015b6b02df0ab5a80a22c61ab5a70083126147aa576b02df0ab5a80a22c61ab5a70068056bc75e2d6310000084020592506856bc75e2d631000000015b693f1fce3da636ea5cf85083126147e157693f1fce3da636ea5cf85068056bc75e2d631000008402059250682b5e3af16b18800000015b690127fa27722cc06cc5e2831261481857690127fa27722cc06cc5e268056bc75e2d6310000084020592506815af1d78b58c400000015b68280e60114edb805d03831261484d5768280e60114edb805d0368056bc75e2d631000008402059250680ad78ebc5ac6200000015b680ebc5fb41746121110831261487857680ebc5fb4174612111068056bc75e2d631000009384020592015b6808f00f760a4b2db55d83126148ad576808f00f760a4b2db55d68056bc75e2d6310000084020592506802b5e3af16b1880000015b6806f5f177578893793783126148e2576806f5f177578893793768056bc75e2d63100000840205925068015af1d78b58c40000015b6806248f33704b2866038312614916576806248f33704b28660368056bc75e2d63100000840205925067ad78ebc5ac620000015b6805c548670b9510e7ac831261494a576805c548670b9510e7ac68056bc75e2d6310000084020592506756bc75e2d6310000015b600068056bc75e2d63100000840168056bc75e2d63100000808603028161496d57fe5b059050600068056bc75e2d63100000828002059050818068056bc75e2d63100000818402059150600382050168056bc75e2d63100000828402059150600582050168056bc75e2d63100000828402059150600782050168056bc75e2d63100000828402059150600982050168056bc75e2d63100000828402059150600b820501600202606485820105979650505050505050565b6000614a30680238fd42c5cf03ffff198312158015614a29575068070c1cc73b00c800008313155b60096113ef565b6000821215614a6357614a4582600003614a01565b6a0c097ce7bc90715b34b9f160241b81614a5b57fe5b059050610828565b60006806f05b59d3b20000008312614aa357506806f05b59d3b1ffffff1990910190770195e54c5dd42177f53a27172fa9ec630262827000000000614ad9565b6803782dace9d90000008312614ad557506803782dace9d8ffffff19909101906b1425982cf597cd205cef7380614ad9565b5060015b6064929092029168056bc75e2d6310000068ad78ebc5ac620000008412614b295768ad78ebc5ac61ffffff199093019268056bc75e2d631000006e01855144814a7ff805980ff008400082020590505b6856bc75e2d6310000008412614b65576856bc75e2d630ffffff199093019268056bc75e2d631000006b02df0ab5a80a22c61ab5a70082020590505b682b5e3af16b188000008412614b9f57682b5e3af16b187fffff199093019268056bc75e2d63100000693f1fce3da636ea5cf85082020590505b6815af1d78b58c4000008412614bd9576815af1d78b58c3fffff199093019268056bc75e2d63100000690127fa27722cc06cc5e282020590505b680ad78ebc5ac62000008412614c1257680ad78ebc5ac61fffff199093019268056bc75e2d6310000068280e60114edb805d0382020590505b68056bc75e2d631000008412614c4b5768056bc75e2d630fffff199093019268056bc75e2d63100000680ebc5fb4174612111082020590505b6802b5e3af16b18800008412614c84576802b5e3af16b187ffff199093019268056bc75e2d631000006808f00f760a4b2db55d82020590505b68015af1d78b58c400008412614cbd5768015af1d78b58c3ffff199093019268056bc75e2d631000006806f5f177578893793782020590505b68056bc75e2d631000008481019085906002908280020505918201919050600368056bc75e2d631000008783020505918201919050600468056bc75e2d631000008783020505918201919050600568056bc75e2d631000008783020505918201919050600668056bc75e2d631000008783020505918201919050600768056bc75e2d631000008783020505918201919050600868056bc75e2d631000008783020505918201919050600968056bc75e2d631000008783020505918201919050600a68056bc75e2d631000008783020505918201919050600b68056bc75e2d631000008783020505918201919050600c68056bc75e2d631000008783020505918201919050606468056bc75e2d63100000848402058502059695505050505050565b80356105dc816158c9565b600082601f830112614df9578081fd5b8151614e0c614e07826158aa565b615884565b818152915060208083019084810181840286018201871015614e2d57600080fd5b60005b84811015614e4c57815184529282019290820190600101614e30565b505050505092915050565b600082601f830112614e67578081fd5b81356001600160401b03811115614e7c578182fd5b614e8f601f8201601f1916602001615884565b9150808252836020828501011115614ea657600080fd5b8060208401602084013760009082016020015292915050565b8051600581106105dc57600080fd5b8051600481106105dc57600080fd5b8035600281106105dc57600080fd5b600060208284031215614efd578081fd5b81356106a1816158c9565b600060208284031215614f19578081fd5b81516106a1816158c9565b60008060408385031215614f36578081fd5b8235614f41816158c9565b91506020830135614f51816158c9565b809150509250929050565b600080600060608486031215614f70578081fd5b8335614f7b816158c9565b92506020840135614f8b816158c9565b929592945050506040919091013590565b600080600080600080600060e0888a031215614fb6578485fd5b8735614fc1816158c9565b96506020880135614fd1816158c9565b95506040880135945060608801359350608088013560ff81168114614ff4578384fd5b9699959850939692959460a0840135945060c09093013592915050565b60008060408385031215615023578182fd5b823561502e816158c9565b946020939093013593505050565b600080600060608486031215615050578081fd5b83516001600160401b0380821115615066578283fd5b818601915086601f830112615079578283fd5b8151615087614e07826158aa565b80828252602080830192508086018b8283870289010111156150a7578788fd5b8796505b848710156150d25780516150be816158c9565b8452600196909601959281019281016150ab565b5089015190975093505050808211156150e9578283fd5b506150f686828701614de9565b925050604084015190509250925092565b600060208284031215615118578081fd5b81356106a1816158de565b600060208284031215615134578081fd5b81516106a1816158de565b600080600080600080600060e0888a031215615159578081fd5b8735965060208089013561516c816158c9565b9650604089013561517c816158c9565b955060608901356001600160401b0380821115615197578384fd5b818b0191508b601f8301126151aa578384fd5b81356151b8614e07826158aa565b8082825285820191508585018f8788860288010111156151d6578788fd5b8795505b838610156151f85780358352600195909501949186019186016151da565b509850505060808b0135955060a08b0135945060c08b013592508083111561521e578384fd5b505061522c8a828b01614e57565b91505092959891949750929550565b60006020828403121561524c578081fd5b81356001600160e01b0319811681146106a1578182fd5b600060208284031215615274578081fd5b6106a18383614ebf565b600080600060608486031215615292578081fd5b61529c8585614ebf565b925060208401516001600160401b038111156152b6578182fd5b6150f686828701614de9565b600080604083850312156152d4578182fd5b6152de8484614ebf565b9150602083015190509250929050565b600080600060608486031215615302578081fd5b61530c8585614ebf565b925060208401519150604084015190509250925092565b600060208284031215615334578081fd5b6106a18383614ece565b60008060408385031215615350578182fd5b61535a8484614ece565b915060208301516001600160401b03811115615374578182fd5b61538085828601614de9565b9150509250929050565b60008060006060848603121561539e578081fd5b61529c8585614ece565b6000806000606084860312156153bc578081fd5b61530c8585614ece565b6000806000606084860312156153da578081fd5b83356001600160401b03808211156153f0578283fd5b8186019150610120808389031215615406578384fd5b61540f81615884565b905061541b8884614edd565b815261542a8860208501614dde565b602082015261543c8860408501614dde565b6040820152606083013560608201526080830135608082015260a083013560a082015261546c8860c08501614dde565b60c082015261547e8860e08501614dde565b60e08201526101008084013583811115615496578586fd5b6154a28a828701614e57565b9183019190915250976020870135975060409096013595945050505050565b6000602082840312156154d2578081fd5b5035919050565b6000815180845260208085019450808401835b83811015615508578151875295820195908201906001016154ec565b509495945050505050565b60008151808452815b818110156155385760208185018101518683018201520161551c565b818111156155495782602083870101525b50601f01601f19169290920160200192915050565b9182526001600160e01b031916602082015260240190565b6000828483379101908152919050565b61190160f01b81526002810192909252602282015260420190565b6001600160a01b0391909116815260200190565b6001600160a01b038316815260406020820181905260009061227590830184615513565b6000602082526106a160208301846154d9565b6000604082526155ff60408301856154d9565b8281036020840152612a5d81856154d9565b901515815260200190565b92151583526020830191909152604082015260600190565b90815260200190565b9283526001600160a01b03918216602084015216604082015260600190565b9586526001600160a01b0394851660208701529290931660408501526060840152608083019190915260a082015260c00190565b600060a08201878352602060a08185015281885180845260c086019150828a019350845b818110156156d95784516001600160a01b0316835293830193918301916001016156b4565b505084810360408601526156ed81896154d9565b9250505082810360608401526157038186615513565b9150508260808301529695505050505050565b9485526020850193909352604084019190915260608301526001600160a01b0316608082015260a00190565b93845260ff9290921660208401526040830152606082015260800190565b606081016004851061576e57fe5b938152602081019290925260409091015290565b6000602082526106a16020830184615513565b6020808252601a908201527f4d61726b6574466565436f6c6c6563746f72204e4f5420534554000000000000604082015260600190565b60208082526010908201526f1393d508135408149150d2541251539560821b604082015260600190565b6020808252600990820152682727aa1027aba722a960b91b604082015260600190565b6020808252601190820152701393d50813d41188149150d25412515395607a1b604082015260600190565b60008382526040602083015261227560408301846154d9565b6000838252604060208301526122756040830184615513565b60ff91909116815260200190565b6040518181016001600160401b03811182821017156158a257600080fd5b604052919050565b60006001600160401b038211156158bf578081fd5b5060209081020190565b6001600160a01b03811681146105f357600080fd5b80151581146105f357600080fdfe61637475616c20416d6f756e74207377617070656420616674657220616c6c2063757473616d6f756e742061667465722073756272616374696e67207377617020666565206265666f7265206f6365616e20616e64206d61726b657420637574a2646970667358221220289f6f3b9429065d2aa788bb83b5534f8f570bf5caafbf0dcd6bb3fd58b607e764736f6c63430007010033",
  "linkReferences": {},
  "deployedLinkReferences": {}
}