{
  "_format": "hh-sol-artifact-1",
  "contractName": "OceanPoolFactory",
  "sourceName": "contracts/pools/factories/OceanPoolFactory.sol",
  "abi": [
    {
      "inputs": [
        {
          "internalType": "contract IVault",
          "name": "_vault",
          "type": "address"
        }
      ],
      "stateMutability": "nonpayable",
      "type": "constructor"
    },
    {
      "anonymous": false,
      "inputs": [
        {
          "indexed": true,
          "internalType": "address",
          "name": "pool",
          "type": "address"
        }
      ],
      "name": "PoolCreated",
      "type": "event"
    },
    {
      "inputs": [],
      "name": "getCreationCode",
      "outputs": [
        {
          "internalType": "bytes",
          "name": "",
          "type": "bytes"
        }
      ],
      "stateMutability": "view",
      "type": "function"
    },
    {
      "inputs": [],
      "name": "getCreationCodeContracts",
      "outputs": [
        {
          "internalType": "address",
          "name": "contractA",
          "type": "address"
        },
        {
          "internalType": "address",
          "name": "contractB",
          "type": "address"
        }
      ],
      "stateMutability": "view",
      "type": "function"
    },
    {
      "inputs": [],
      "name": "getPauseConfiguration",
      "outputs": [
        {
          "internalType": "uint256",
          "name": "pauseWindowDuration",
          "type": "uint256"
        },
        {
          "internalType": "uint256",
          "name": "bufferPeriodDuration",
          "type": "uint256"
        }
      ],
      "stateMutability": "view",
      "type": "function"
    },
    {
      "inputs": [],
      "name": "getVault",
      "outputs": [
        {
          "internalType": "contract IVault",
          "name": "",
          "type": "address"
        }
      ],
      "stateMutability": "view",
      "type": "function"
    },
    {
      "inputs": [
        {
          "internalType": "address",
          "name": "pool",
          "type": "address"
        }
      ],
      "name": "isPoolFromFactory",
      "outputs": [
        {
          "internalType": "bool",
          "name": "",
          "type": "bool"
        }
      ],
      "stateMutability": "view",
      "type": "function"
    },
    {
      "inputs": [],
      "name": "vault",
      "outputs": [
        {
          "internalType": "contract IVault",
          "name": "",
          "type": "address"
        }
      ],
      "stateMutability": "view",
      "type": "function"
    }
  ],
  "bytecode": "0x61014060405234801561001157600080fd5b5060405162007343380380620073438339818101604052602081101561003657600080fd5b50516001546040516001600160a01b0390911690610056602082016101b5565b601f1982820381018352601f909101166040528051819060006002820460a081905280830360e08190528185529091508361009b8161011f602090811b6102c117901c565b60601b6001600160601b03191660805282850180518382526100c78261011f602090811b6102c117901c565b606090811b6001600160601b031990811660c0529690935290529590951b909116610100525050506276a70042016101205250600180546001600160a01b0319166001600160a01b03929092169190911790556101c3565b80517f602038038060206000396000f3fefefefefefefefefefefefefefefefefefefe808352600091602081018484f090845291506001600160a01b0382166101af576040805162461bcd60e51b815260206004820152601660248201527f434f44455f4445504c4f594d454e545f4641494c454400000000000000000000604482015290519081900360640190fd5b50919050565b616c8180620006c283390190565b60805160601c60a05160c05160601c60e0516101005160601c6101205161049d620002256000398061020c52806102355250806102905250806103585250806101e352806103d45250806103795250806101c252806103b0525061049d6000f3fe608060405234801561001057600080fd5b50600436106100615760003560e01c8062c194db14610066578063174481fa146100e35780632da47c401461011a5780636634b7531461013b5780638d928af814610175578063fbfa77cf14610199575b600080fd5b61006e6101a1565b6040805160208082528351818301528351919283929083019185019080838360005b838110156100a8578181015183820152602001610090565b50505050905090810190601f1680156100d55780820380516001836020036101000a031916815260200191505b509250505060405180910390f35b6100eb6101c0565b60405180836001600160a01b03168152602001826001600160a01b031681526020019250505060405180910390f35b610122610206565b6040805192835260208301919091528051918290030190f35b6101616004803603602081101561015157600080fd5b50356001600160a01b0316610270565b604080519115158252519081900360200190f35b61017d61028e565b604080516001600160a01b039092168252519081900360200190f35b61017d6102b2565b60606101bb60405180602001604052806000815250610350565b905090565b7f00000000000000000000000000000000000000000000000000000000000000007f00000000000000000000000000000000000000000000000000000000000000009091565b600080427f000000000000000000000000000000000000000000000000000000000000000081101561026257807f000000000000000000000000000000000000000000000000000000000000000003925062278d00915061026b565b60009250600091505b509091565b6001600160a01b031660009081526020819052604090205460ff1690565b7f000000000000000000000000000000000000000000000000000000000000000090565b6001546001600160a01b031681565b80517f602038038060206000396000f3fefefefefefefefefefefefefefefefefefefe808352600091602081018484f090845291506001600160a01b03821661034a576040805162461bcd60e51b815260206004820152601660248201527510d3d11157d111541313d65351539517d1905253115160521b604482015290519081900360640190fd5b50919050565b8051604080517f00000000000000000000000000000000000000000000000000000000000000007f0000000000000000000000000000000000000000000000000000000000000000818101858101848101602090810190965280855293957f00000000000000000000000000000000000000000000000000000000000000009592947f000000000000000000000000000000000000000000000000000000000000000094938801866000828a3c846000888301883c506020898101908985010161041b818386610429565b505050505050505050919050565b5b60208110610449578151835260209283019290910190601f190161042a565b905182516020929092036101000a600019018019909116911617905256fea2646970667358221220bf9e1de418fd0cc63f4898cf07de1ca9a954645c727859b5bbc3f8b1baa7055d64736f6c634300070100336105006040527f6e71edae12b1b97f4d1f60370fef10105fa2faae0126114a169c64845d6126c961012052600a80546001600160a01b03191690553480156200004757600080fd5b5060405162006c8138038062006c818339810160408190526200006a9162000e35565b8a8a8a8a898989898989898751600214620000875760016200008a565b60025b6040805180820190915260018152603160f81b6020808301918252336080526001600160601b0319606087901b1660a0528d51908e0190812060c0529151902060e0527f8b73c3c69bb8fe3d512ecc4cf759cc79239f7b179b0ffacaa9a75d522b39400f610100528b518c918c918c918c918c918c918c918c918c91849184918c918c916200011d916003919062000c1f565b5080516200013390600490602084019062000c1f565b506200014b9150506276a70083111561019462000951565b6200015f62278d0082111561019562000951565b429091016101408190520161016052865162000181906002111560c862000951565b6200019960088851111560c96200095160201b60201c565b620001af876200096660201b620012071760201c565b620001ba8662000972565b62000206856040518060400160405280601781526020017f6f6365616e66656520696e20636f6e7374727563746f72000000000000000000815250620009e160201b620012151760201c565b620002118562000a2e565b6200021c8462000a33565b62000268846040518060400160405280601881526020017f6d61726b746566656520696e20636f6e7374727563746f720000000000000000815250620009e160201b620012151760201c565b6040516309b2760f60e01b81526000906001600160a01b038d16906309b2760f9062000299908e906004016200101a565b602060405180830381600087803b158015620002b457600080fd5b505af1158015620002c9573d6000803e3d6000fd5b505050506040513d601f19601f82011682018060405250810190620002ef919062000e1c565b90508b6001600160a01b03166366a9c7d2828a8b516001600160401b03811180156200031a57600080fd5b5060405190808252806020026020018201604052801562000345578160200160208202803683370190505b506040518463ffffffff1660e01b8152600401620003669392919062000f7e565b600060405180830381600087803b1580156200038157600080fd5b505af115801562000396573d6000803e3d6000fd5b5050506001600160601b031960608e901b1661018052506101a081905287516101c0528751620003c8576000620003df565b87600081518110620003d657fe5b60200260200101515b60601b6001600160601b0319166101e05287516001106200040257600062000419565b876001815181106200041057fe5b60200260200101515b60601b6001600160601b0319166102005287516002106200043c57600062000453565b876002815181106200044a57fe5b60200260200101515b60601b6001600160601b031916610220528751600310620004765760006200048d565b876003815181106200048457fe5b60200260200101515b60601b6001600160601b031916610240528751600410620004b0576000620004c7565b87600481518110620004be57fe5b60200260200101515b60601b6001600160601b031916610260528751600510620004ea57600062000501565b87600581518110620004f857fe5b60200260200101515b60601b6001600160601b031916610280528751600610620005245760006200053b565b876006815181106200053257fe5b60200260200101515b60601b6001600160601b0319166102a05287516007106200055e57600062000575565b876007815181106200056c57fe5b60200260200101515b60601b6001600160601b0319166102c052875162000595576000620005bb565b620005bb88600081518110620005a757fe5b602002602001015162000a3860201b60201c565b6102e0528751600110620005d1576000620005e3565b620005e388600181518110620005a757fe5b610300528751600210620005f95760006200060b565b6200060b88600281518110620005a757fe5b6103205287516003106200062157600062000633565b6200063388600381518110620005a757fe5b610340528751600410620006495760006200065b565b6200065b88600481518110620005a757fe5b6103605287516005106200067157600062000683565b6200068388600581518110620005a757fe5b61038052875160061062000699576000620006ab565b620006ab88600681518110620005a757fe5b6103a0528751600710620006c1576000620006d3565b620006d388600781518110620005a757fe5b6103c081815250505050505050505050505050505050505050505050505080601060006101000a8154816001600160a01b0302191690836001600160a01b03160217905550620007318851885162000ada60201b6200125a1760201c565b6000806000805b8b518160ff161015620007b85760008b8260ff16815181106200075757fe5b602002602001015190506200077f662386f26fc1000082101561012e6200095160201b60201c565b62000799818662000ae960201b620012671790919060201c565b945082811115620007ae578160ff1693508092505b5060010162000738565b50620007d1670de0b6b3a7640000841461013462000951565b6103e08290528951620007e6576000620007fd565b89600081518110620007f457fe5b60200260200101515b610400528951600110620008135760006200082a565b896001815181106200082157fe5b60200260200101515b6104205289516002106200084057600062000857565b896002815181106200084e57fe5b60200260200101515b6104405289516003106200086d57600062000884565b896003815181106200087b57fe5b60200260200101515b6104605289516004106200089a576000620008b1565b89600481518110620008a857fe5b60200260200101515b610480528951600510620008c7576000620008de565b89600581518110620008d557fe5b60200260200101515b6104a0528951600610620008f45760006200090b565b896006815181106200090257fe5b60200260200101515b6104c05289516007106200092157600062000938565b896007815181106200092f57fe5b60200260200101515b6104e05250620011109c50505050505050505050505050565b816200096257620009628162000b06565b5050565b80620009628162000b59565b6200098764e8d4a5100082101560cb62000951565b6200099f67016345785d8a000082111560ca62000951565b60078190556040517fa9ba3ffe0b6c366b81232caab38605a0699ad5398d6cce76f91ee809e322dafc90620009d69083906200102f565b60405180910390a150565b620009628282604051602401620009fa92919062001038565b60408051601f198184030181529190526020810180516001600160e01b03908116630fa3f34560e01b1790915262000be616565b600855565b600955565b600080826001600160a01b031663313ce5676040518163ffffffff1660e01b815260040160206040518083038186803b15801562000a7557600080fd5b505afa15801562000a8a573d6000803e3d6000fd5b505050506040513d601f19601f8201168201806040525081019062000ab0919062000f5b565b60ff169050600062000acf60128362000c0760201b620012791760201c565b600a0a949350505050565b62000962828214606762000951565b600082820162000afd848210158362000951565b90505b92915050565b62461bcd60e51b6000908152602060045260076024526642414c23000030600a808404818106603090810160081b95839006959095019082900491820690940160101b939093010160c81b604452606490fd5b60028151101562000b6a5762000be3565b60008160008151811062000b7a57fe5b602002602001015190506000600190505b825181101562000be057600083828151811062000ba457fe5b6020026020010151905062000bd5816001600160a01b0316846001600160a01b03161060656200095160201b60201c565b915060010162000b8b565b50505b50565b80516a636f6e736f6c652e6c6f67602083016000808483855afa5050505050565b600062000c1983831115600162000951565b50900390565b828054600181600116156101000203166002900490600052602060002090601f016020900481019282601f1062000c6257805160ff191683800117855562000c92565b8280016001018555821562000c92579182015b8281111562000c9257825182559160200191906001019062000c75565b5062000ca092915062000ca4565b5090565b5b8082111562000ca0576000815560010162000ca5565b805162000b0081620010fa565b600082601f83011262000cd9578081fd5b815162000cf062000cea826200109b565b62001074565b81815291506020808301908481018184028601820187101562000d1257600080fd5b60005b8481101562000d3e57815162000d2b81620010fa565b8452928201929082019060010162000d15565b505050505092915050565b600082601f83011262000d5a578081fd5b815162000d6b62000cea826200109b565b81815291506020808301908481018184028601820187101562000d8d57600080fd5b60005b8481101562000d3e5781518452928201929082019060010162000d90565b600082601f83011262000dbf578081fd5b81516001600160401b0381111562000dd5578182fd5b62000dea601f8201601f191660200162001074565b915080825283602082850101111562000e0257600080fd5b62000e15816020840160208601620010c7565b5092915050565b60006020828403121562000e2e578081fd5b5051919050565b60008060008060008060008060008060006101608c8e03121562000e57578687fd5b62000e638d8d62000cbb565b60208d0151909b506001600160401b0381111562000e7f578788fd5b62000e8d8e828f0162000dae565b60408e0151909b5090506001600160401b0381111562000eab578788fd5b62000eb98e828f0162000dae565b60608e0151909a5090506001600160401b0381111562000ed7578788fd5b62000ee58e828f0162000cc8565b60808e015190995090506001600160401b0381111562000f03578788fd5b62000f118e828f0162000d49565b97505060a08c0151955060c08c0151945060e08c015193506101008c015192506101208c0151915062000f498d6101408e0162000cbb565b90509295989b509295989b9093969950565b60006020828403121562000f6d578081fd5b815160ff8116811462000afd578182fd5b60006060820185835260206060818501528186518084526080860191508288019350845b8181101562000fca5762000fb78551620010bb565b8352938301939183019160010162000fa2565b505084810360408601528551808252908201925081860190845b818110156200100c5762000ff98351620010bb565b8552938301939183019160010162000fe4565b509298975050505050505050565b60208101600383106200102957fe5b91905290565b90815260200190565b60008382526040602083015282518060408401526200105f816060850160208701620010c7565b601f01601f1916919091016060019392505050565b6040518181016001600160401b03811182821017156200109357600080fd5b604052919050565b60006001600160401b03821115620010b1578081fd5b5060209081020190565b6001600160a01b031690565b60005b83811015620010e4578181015183820152602001620010ca565b83811115620010f4576000848401525b50505050565b6001600160a01b038116811462000be357600080fd5b60805160a05160601c60c05160e051610100516101205161014051610160516101805160601c6101a0516101c0516101e05160601c6102005160601c6102205160601c6102405160601c6102605160601c6102805160601c6102a05160601c6102c05160601c6102e05161030051610320516103405161036051610380516103a0516103c0516103e05161040051610420516104405161046051610480516104a0516104c0516104e0516159336200134e60003980612580528061323852508061253d52806131d75250806124fa52806131765250806124b7528061311552508061247452806130b452508061243152806130535250806123ee5280612ff25250806123ab5280612f915250806129ad52806129e15280612a1d525080611b1c5280612017525080611ad95280611fb6525080611a965280611f55525080611a535280611ef4525080611a105280611e935250806119cd5280611e3252508061198a5280611dd15250806119395280611d70525080611fdc5280612f1252806131fd525080611f7b5280612ed0528061319c525080611f1a5280612e8e528061313b525080611eb95280612e4c52806130da525080611e585280612e0a5280613079525080611df75280612dc85280613018525080611d965280612d865280612fb7525080611d355280612d445280612f565250806115f75250806106d75250806109a75250806113e65250806113c2525080610f245250806114e952508061152b52508061150a52508061098352508061090d52506159336000f3fe608060405234801561001057600080fd5b506004361061025e5760003560e01c806387ec681711610146578063bc3d3e30116100c3578063dd62ed3e11610087578063dd62ed3e146104d6578063e5c9b87c146104e9578063ef38c0c7146104fc578063f71ebfd41461050f578063f89f27ed14610517578063fcdb30b41461052c5761025e565b8063bc3d3e301461048d578063c0ff1a1514610495578063d505accf1461049d578063d5c096c4146104b0578063d73dd623146104c35761025e565b80639b4843791161010a5780639b484379146104395780639d2c110c1461044c578063a1eb6dfd1461045f578063a9059cbb14610472578063aaabadc5146104855761025e565b806387ec6817146103f9578063893d20e81461040c5780638d928af81461042157806395d89b41146104295780639b02cdde146104315761025e565b8063489e269c116101df578063679aefce116101a3578063679aefce1461038f57806370a082311461039757806374f3b009146103aa5780637ecebe00146103cb5780638059c960146103de578063851c1bb3146103e65761025e565b8063489e269c1461032d57806355c67628146103405780636028bfd4146103485780636141f17814610369578063661884631461037c5761025e565b806323b872dd1161022657806323b872dd146102e2578063313ce567146102f55780633644e5151461030a57806338e9922e1461031257806338fff2d0146103255761025e565b806306fdde0314610263578063095ea7b31461028157806316c38b3c146102a157806318160ddd146102b65780631c0de051146102cb575b600080fd5b61026b610534565b6040516102789190615733565b60405180910390f35b61029461028f366004614fe6565b6105cb565b60405161027891906155c2565b6102b46102af3660046150dc565b6105e2565b005b6102be6105f6565b60405161027891906155e5565b6102d36105fc565b604051610278939291906155cd565b6102946102f0366004614f31565b610625565b6102fd6106a8565b6040516102789190615827565b6102be6106ad565b6102b4610320366004615496565b6106bc565b6102be6106d5565b6102b461033b366004614ec1565b6106f9565b6102be610753565b61035b610356366004615114565b610759565b6040516102789291906157f5565b6102be610377366004615496565b610790565b61029461038a366004614fe6565b6107a2565b6102be6107fc565b6102be6103a5366004614ec1565b610827565b6103bd6103b8366004615114565b610846565b60405161027892919061559d565b6102be6103d9366004614ec1565b6108e8565b6102be610903565b6102be6103f4366004615210565b610909565b61035b610407366004615114565b61095b565b610414610981565b6040516102789190615576565b6104146109a5565b61026b6109c9565b6102be610a2a565b6102b4610447366004615496565b610a30565b6102be61045a36600461539b565b610a68565b6102be61046d366004615496565b610df3565b610294610480366004614fe6565b610e05565b610414610e12565b610414610e1c565b6102be610e2b565b6102b46104ab366004614f71565b610eef565b6103bd6104be366004615114565b611038565b6102946104d1366004614fe6565b61115a565b6102be6104e4366004614ef9565b611190565b6102be6104f7366004615496565b6111bb565b6102be61050a366004615496565b6111cd565b6104146111df565b61051f6111f7565b604051610278919061558a565b6102be611201565b60038054604080516020601f60026000196101006001881615020190951694909404938401819004810282018101909252828152606093909290918301828280156105c05780601f10610595576101008083540402835291602001916105c0565b820191906000526020600020905b8154815290600101906020018083116105a357829003601f168201915b505050505090505b90565b60006105d833848461128f565b5060015b92915050565b6105ea6112f7565b6105f381611325565b50565b60025490565b60008060006106096113a3565b1592506106146113c0565b915061061e6113e4565b9050909192565b6001600160a01b0383166000818152600160209081526040808320338085529252822054919261066391148061065b5750838210155b610197611408565b61066e858585611416565b336001600160a01b0386161480159061068957506000198114155b1561069b5761069b853385840361128f565b60019150505b9392505050565b601290565b60006106b76114e5565b905090565b6106c46112f7565b6106cc611582565b6105f381611597565b7f000000000000000000000000000000000000000000000000000000000000000090565b33610702610981565b6001600160a01b0316146107315760405162461bcd60e51b8152600401610728906157a7565b60405180910390fd5b600a80546001600160a01b0319166001600160a01b0392909216919091179055565b60075490565b6000606061076f865161076a6115f5565b61125a565b610784898989898989896116196116e1611747565b97509795505050505050565b600c6020526000908152604090205481565b3360009081526001602090815260408083206001600160a01b03861684529091528120548083106107de576107d93385600061128f565b6107f2565b6107f233856107ed8487611279565b61128f565b5060019392505050565b60006106b76108096105f6565b610821610814610e2b565b61081c6115f5565b611869565b9061188d565b6001600160a01b0381166000908152602081905260409020545b919050565b606080886108706108556109a5565b6001600160a01b0316336001600160a01b03161460cd611408565b61088561087b6106d5565b82146101f4611408565b606061088f6118de565b905061089b8882611b5a565b60006060806108af8e8e8e8e8e8e8e611619565b9250925092506108bf8d84611bbb565b6108c982856116e1565b6108d381856116e1565b909550935050505b5097509795505050505050565b6001600160a01b031660009081526005602052604090205490565b60095481565b60007f00000000000000000000000000000000000000000000000000000000000000008260405160200161093e929190615533565b604051602081830303815290604052805190602001209050919050565b6000606061096c865161076a6115f5565b61078489898989898989611c4e611ccb611747565b7f000000000000000000000000000000000000000000000000000000000000000090565b7f000000000000000000000000000000000000000000000000000000000000000090565b60048054604080516020601f60026000196101006001881615020190951694909404938401819004810282018101909252828152606093909290918301828280156105c05780601f10610595576101008083540402835291602001916105c0565b600f5490565b33610a39610981565b6001600160a01b031614610a5f5760405162461bcd60e51b8152600401610728906157a7565b6105f381611d2c565b600080610a788560200151611d31565b90506000610a898660400151611d31565b9050600086516001811115610a9a57fe5b1415610c325760608601516040805180820190915260158152740496e697469616c416d6f756e7420696e207377617605c1b6020820152610adc908290611215565b610ae581612046565b6060808901829052604080519182019052603c808252610b0e9291906158c26020830139611215565b6000610b1e88602001518361209a565b9050610b52816040518060400160405280601081526020016f06f6365616e466565206f6e20737761760841b815250611215565b6000610b62896020015184612163565b9050610b97816040518060400160405280601181526020017006d61726b6574466565206f6e207377617607c1b815250611215565b610bb881610bb2848c6060015161127990919063ffffffff16565b90611279565b6060808b018290526040805191820190526024808252610be192919061589e6020830139611215565b610beb888661222d565b9750610bf7878561222d565b9650610c0789606001518661222d565b60608a01526000610c198a8a8a612239565b9050610c258186612274565b96505050505050506106a1565b610c3c858361222d565b9450610c48848261222d565b9350610c5886606001518261222d565b60608701526000610c6a878787612280565b9050610c7681846122b3565b9050610caf81604051806040016040528060158152602001740496e697469616c416d6f756e7420696e207377617605c1b815250611215565b6000610cbf88602001518361209a565b9050610cf3816040518060400160405280601081526020016f06f6365616e46656520696e20737761760841b815250611215565b6000610d03896020015184612163565b9050610d38826040518060400160405280601181526020017006d61726b746546656520696e207377617607c1b815250611215565b6000610d43846122bf565b90506000610d5b83610d558487611267565b90611267565b9050610d9c826040518060400160405280601981526020017f616d6f756e742061667465722062616c20737761702066656500000000000000815250611215565b610dd4816040518060400160405280601681526020017566696e616c416d6f756e74206166746572206665657360501b815250611215565b610de583610d5586610d55896122bf565b9750505050505050506106a1565b600d6020526000908152604090205481565b60006105d8338484611416565b60006106b76122d6565b600a546001600160a01b031681565b60006060610e376109a5565b6001600160a01b031663f94d4668610e4d6106d5565b6040518263ffffffff1660e01b8152600401610e6991906155e5565b60006040518083038186803b158015610e8157600080fd5b505afa158015610e95573d6000803e3d6000fd5b505050506040513d6000823e601f3d908101601f19168201604052610ebd9190810190615011565b50915050610ed281610ecd6118de565b611b5a565b6060610edc612350565b9050610ee881836125ac565b9250505090565b610efd8442111560d1611408565b6001600160a01b0387166000908152600560209081526040808320549051909291610f54917f0000000000000000000000000000000000000000000000000000000000000000918c918c918c9188918d910161560d565b6040516020818303038152906040528051906020012090506000610f778261261e565b9050600060018288888860405160008152602001604052604051610f9e94939291906156f3565b6020604051602081039080840390855afa158015610fc0573d6000803e3d6000fd5b5050604051601f190151915061100290506001600160a01b03821615801590610ffa57508b6001600160a01b0316826001600160a01b0316145b6101f8611408565b6001600160a01b038b16600090815260056020526040902060018501905561102b8b8b8b61128f565b5050505050505050505050565b606080886110476108556109a5565b61105261087b6106d5565b606061105c6118de565b90506110666105f6565b61110b576000606061107a8d8d8d8a61263a565b9150915061108f620f424083101560cc611408565b61109d6000620f42406126d7565b6110ac8b620f424084036126d7565b6110b68184611ccb565b806110bf6115f5565b6001600160401b03811180156110d457600080fd5b506040519080825280602002602001820160405280156110fe578160200160208202803683370190505b50955095505050506108db565b6111158882611b5a565b60006060806111298e8e8e8e8e8e8e611c4e565b9250925092506111398c846126d7565b6111438285611ccb565b61114d81856116e1565b90955093506108db915050565b3360008181526001602090815260408083206001600160a01b038716845290915281205490916105d89185906107ed9086611267565b6001600160a01b03918216600090815260016020908152604080832093909416825291909152205490565b600b6020526000908152604090205481565b600e6020526000908152604090205481565b73ee9300b7961e0a01d9f0adb863c7a227a07aad7581565b60606106b7612350565b60085481565b806112118161276d565b5050565b611211828260405160240161122b92919061580e565b60408051601f198184030181529190526020810180516001600160e01b0316630fa3f34560e01b1790526127e6565b6112118183146067611408565b60008282016106a18482101583611408565b6000611289838311156001611408565b50900390565b6001600160a01b0380841660008181526001602090815260408083209487168084529490915290819020849055517f8c5be1e5ebec7d5bd14f71427d1e84f3dd0314c0f7b2291e5b200ac8c7c3b925906112ea9085906155e5565b60405180910390a3505050565b600061130e6000356001600160e01b031916610909565b90506105f361131d8233612807565b610191611408565b8015611345576113406113366113c0565b4210610193611408565b61135a565b61135a6113506113e4565b42106101a9611408565b6006805460ff19168215151790556040517f9e3a5e37224532dea67b89face185703738a228a6e8a23dee546960180d3be64906113989083906155c2565b60405180910390a150565b60006113ad6113e4565b4211806106b757505060065460ff161590565b7f000000000000000000000000000000000000000000000000000000000000000090565b7f000000000000000000000000000000000000000000000000000000000000000090565b8161121157611211816128f7565b6001600160a01b03831660009081526020819052604090205461143e82821015610196611408565b6114556001600160a01b0384161515610199611408565b6001600160a01b038085166000908152602081905260408082208585039055918516815220546114859083611267565b6001600160a01b0380851660008181526020819052604090819020939093559151908616907fddf252ad1be2c89b69c2b068fc378daa952ba7f163c4a11628f55a4df523b3ef906114d79086906155e5565b60405180910390a350505050565b60007f00000000000000000000000000000000000000000000000000000000000000007f00000000000000000000000000000000000000000000000000000000000000007f000000000000000000000000000000000000000000000000000000000000000061155261294a565b306040516020016115679594939291906156c7565b60405160208183030381529060405280519060200120905090565b61159561158d6113a3565b610192611408565b565b6115aa64e8d4a5100082101560cb611408565b6115c067016345785d8a000082111560ca611408565b60078190556040517fa9ba3ffe0b6c366b81232caab38605a0699ad5398d6cce76f91ee809e322dafc906113989083906155e5565b7f000000000000000000000000000000000000000000000000000000000000000090565b60006060806060611628612350565b90506116326113a3565b15611669576000611643828a6125ac565b90506116548983600f54848b61294e565b92506116638984611279612a5d565b506116b4565b6116716115f5565b6001600160401b038111801561168657600080fd5b506040519080825280602002602001820160405280156116b0578160200160208202803683370190505b5091505b6116c08882878c612ac8565b90945092506116d0888483612bf4565b600f55509750975097945050505050565b60005b6116ec6115f5565b8110156117425761172383828151811061170257fe5b602002602001015183838151811061171657fe5b6020026020010151612c0d565b83828151811061172f57fe5b60209081029190910101526001016116e4565b505050565b333014611805576000306001600160a01b031660003660405161176b92919061554b565b6000604051808303816000865af19150503d80600081146117a8576040519150601f19603f3d011682016040523d82523d6000602084013e6117ad565b606091505b5050905080600081146117bc57fe5b60046000803e6000516001600160e01b0319166343adbafb60e01b81146117e7573d6000803e3d6000fd5b506020600460003e604060205260243d03602460403e601c3d016000f35b606061180f6118de565b905061181b8782611b5a565b600060606118328c8c8c8c8c8c8c8c63ffffffff16565b509150915061184581848663ffffffff16565b8051601f1982018390526343adbafb603f1983015260200260231982016044820181fd5b60008282026106a184158061188657508385838161188357fe5b04145b6003611408565b600061189c8215156004611408565b826118a9575060006105dc565b670de0b6b3a7640000838102906118cc908583816118c357fe5b04146005611408565b8281816118d557fe5b049150506105dc565b606060006118ea6115f5565b90506060816001600160401b038111801561190457600080fd5b5060405190808252806020026020018201604052801561192e578160200160208202803683370190505b5090508115611976577f00000000000000000000000000000000000000000000000000000000000000008160008151811061196557fe5b60200260200101818152505061197f565b91506105c89050565b6001821115611976577f0000000000000000000000000000000000000000000000000000000000000000816001815181106119b657fe5b6020026020010181815250506002821115611976577f0000000000000000000000000000000000000000000000000000000000000000816002815181106119f957fe5b6020026020010181815250506003821115611976577f000000000000000000000000000000000000000000000000000000000000000081600381518110611a3c57fe5b6020026020010181815250506004821115611976577f000000000000000000000000000000000000000000000000000000000000000081600481518110611a7f57fe5b6020026020010181815250506005821115611976577f000000000000000000000000000000000000000000000000000000000000000081600581518110611ac257fe5b6020026020010181815250506006821115611976577f000000000000000000000000000000000000000000000000000000000000000081600681518110611b0557fe5b6020026020010181815250506007821115611976577f000000000000000000000000000000000000000000000000000000000000000081600781518110611b4857fe5b60200260200101818152505091505090565b60005b611b656115f5565b81101561174257611b9c838281518110611b7b57fe5b6020026020010151838381518110611b8f57fe5b6020026020010151611869565b838281518110611ba857fe5b6020908102919091010152600101611b5d565b6001600160a01b038216600090815260208190526040902054611be382821015610196611408565b6001600160a01b03831660009081526020819052604090208282039055600254611c0d9083611279565b6002556040516000906001600160a01b038516907fddf252ad1be2c89b69c2b068fc378daa952ba7f163c4a11628f55a4df523b3ef906112ea9086906155e5565b6000606080611c5b611582565b6060611c65612350565b90506000611c73828a6125ac565b90506060611c868a84600f54858c61294e565b9050611c958a82611279612a5d565b60006060611ca48c868b612c2d565b91509150611cb38c8287612cba565b600f55909e909d50909b509950505050505050505050565b60005b611cd66115f5565b81101561174257611d0d838281518110611cec57fe5b6020026020010151838381518110611d0057fe5b6020026020010151612cc9565b838281518110611d1957fe5b6020908102919091010152600101611cce565b600955565b60007f00000000000000000000000000000000000000000000000000000000000000006001600160a01b0316826001600160a01b03161415611d9457507f0000000000000000000000000000000000000000000000000000000000000000610841565b7f00000000000000000000000000000000000000000000000000000000000000006001600160a01b0316826001600160a01b03161415611df557507f0000000000000000000000000000000000000000000000000000000000000000610841565b7f00000000000000000000000000000000000000000000000000000000000000006001600160a01b0316826001600160a01b03161415611e5657507f0000000000000000000000000000000000000000000000000000000000000000610841565b7f00000000000000000000000000000000000000000000000000000000000000006001600160a01b0316826001600160a01b03161415611eb757507f0000000000000000000000000000000000000000000000000000000000000000610841565b7f00000000000000000000000000000000000000000000000000000000000000006001600160a01b0316826001600160a01b03161415611f1857507f0000000000000000000000000000000000000000000000000000000000000000610841565b7f00000000000000000000000000000000000000000000000000000000000000006001600160a01b0316826001600160a01b03161415611f7957507f0000000000000000000000000000000000000000000000000000000000000000610841565b7f00000000000000000000000000000000000000000000000000000000000000006001600160a01b0316826001600160a01b03161415611fda57507f0000000000000000000000000000000000000000000000000000000000000000610841565b7f00000000000000000000000000000000000000000000000000000000000000006001600160a01b0316826001600160a01b0316141561203b57507f0000000000000000000000000000000000000000000000000000000000000000610841565b6108416101356128f7565b60008061205e60075484612cfc90919063ffffffff16565b9050612090816040518060400160405280600e81526020016d0666565416d6f756e7420737761760941b815250611215565b6106a18382611279565b6000806120a684612d40565b90506120d86008546040518060400160405280600c81526020016b39bbb0b82332b2a7b1b2b0b760a11b815250611215565b60006120ef60085485612cfc90919063ffffffff16565b9050612130816040518060400160405280601e81526020017f666565416d6f756e7420696e2063616c63756c6174654f6365616e4665650000815250611215565b6000828152600b60205260409020546121499082611267565b6000928352600b6020526040909220919091559392505050565b60008061216f84612d40565b90506121a26009546040518060400160405280600d81526020016c1cddd85c11995953585c9ad95d609a1b815250611215565b60006121b960095485612cfc90919063ffffffff16565b90506121fa816040518060400160405280602081526020017f666565416d6f756e7420696e2063616c63756c6174654d61726b746572466565815250611215565b6000828152600d60205260409020546122139082611267565b6000928352600d6020526040909220919091559392505050565b60006106a18383611869565b6000612243611582565b61226c836122548660200151612f52565b846122628860400151612f52565b886060015161325c565b949350505050565b60006106a18383612c0d565b600061228a611582565b61226c8361229b8660200151612f52565b846122a98860400151612f52565b88606001516132d7565b60006106a18383612cc9565b60006105dc6122cf60075461334d565b8390613373565b60006122e06109a5565b6001600160a01b031663aaabadc56040518163ffffffff1660e01b815260040160206040518083038186803b15801561231857600080fd5b505afa15801561232c573d6000803e3d6000fd5b505050506040513d601f19601f820116820180604052508101906106b79190614edd565b6060600061235c6115f5565b90506060816001600160401b038111801561237657600080fd5b506040519080825280602002602001820160405280156123a0578160200160208202803683370190505b5090508115611976577f0000000000000000000000000000000000000000000000000000000000000000816000815181106123d757fe5b6020026020010181815250506001821115611976577f00000000000000000000000000000000000000000000000000000000000000008160018151811061241a57fe5b6020026020010181815250506002821115611976577f00000000000000000000000000000000000000000000000000000000000000008160028151811061245d57fe5b6020026020010181815250506003821115611976577f0000000000000000000000000000000000000000000000000000000000000000816003815181106124a057fe5b6020026020010181815250506004821115611976577f0000000000000000000000000000000000000000000000000000000000000000816004815181106124e357fe5b6020026020010181815250506005821115611976577f00000000000000000000000000000000000000000000000000000000000000008160058151811061252657fe5b6020026020010181815250506006821115611976577f00000000000000000000000000000000000000000000000000000000000000008160068151811061256957fe5b6020026020010181815250506007821115611976577f000000000000000000000000000000000000000000000000000000000000000081600781518110611b4857fe5b670de0b6b3a764000060005b835181101561260e576126046125fd8583815181106125d357fe5b60200260200101518584815181106125e757fe5b60200260200101516133b590919063ffffffff16565b8390613404565b91506001016125b8565b506105dc60008211610137611408565b60006126286114e5565b8260405160200161093e92919061555b565b60006060612646611582565b600061265184613430565b905061266c600082600381111561266457fe5b1460ce611408565b606061267785613446565b905061268b6126846115f5565b825161125a565b61269781610ecd6118de565b60606126a1612350565b905060006126af82846125ac565b905060006126bf8261081c6115f5565b600f9290925550945090925050505b94509492505050565b6001600160a01b0382166000908152602081905260409020546126fa9082611267565b6001600160a01b0383166000908152602081905260409020556002546127209082611267565b6002556040516001600160a01b038316906000907fddf252ad1be2c89b69c2b068fc378daa952ba7f163c4a11628f55a4df523b3ef906127619085906155e5565b60405180910390a35050565b60028151101561277c576105f3565b60008160008151811061278b57fe5b602002602001015190506000600190505b82518110156117425760008382815181106127b357fe5b602002602001015190506127dc816001600160a01b0316846001600160a01b0316106065611408565b915060010161279c565b80516a636f6e736f6c652e6c6f67602083016000808483855afa5050505050565b600073ba1ba1ba1ba1ba1ba1ba1ba1ba1ba1ba1ba1ba1b612826610981565b6001600160a01b03161415801561284157506128418361345c565b156128695761284e610981565b6001600160a01b0316336001600160a01b03161490506105dc565b6128716122d6565b6001600160a01b0316639be2a8848484306040518463ffffffff1660e01b81526004016128a0939291906155ee565b60206040518083038186803b1580156128b857600080fd5b505afa1580156128cc573d6000803e3d6000fd5b505050506040513d601f19601f820116820180604052508101906128f091906150f8565b90506105dc565b62461bcd60e51b6000908152602060045260076024526642414c23000030600a808404818106603090810160081b95839006959095019082900491820690940160101b939093010160c81b604452606490fd5b4690565b6060806129596115f5565b6001600160401b038111801561296e57600080fd5b50604051908082528060200260200182016040528015612998578160200160208202803683370190505b509050826129a7579050612a54565b612a1a877f0000000000000000000000000000000000000000000000000000000000000000815181106129d657fe5b6020026020010151877f000000000000000000000000000000000000000000000000000000000000000081518110612a0a57fe5b6020026020010151878787613476565b817f000000000000000000000000000000000000000000000000000000000000000081518110612a4657fe5b602090810291909101015290505b95945050505050565b60005b612a686115f5565b811015612ac257612aa3848281518110612a7e57fe5b6020026020010151848381518110612a9257fe5b60200260200101518463ffffffff16565b848281518110612aaf57fe5b6020908102919091010152600101612a60565b50505050565b600060606000612ad7856134ee565b90506000816004811115612ae757fe5b1415612b0257612af8878787613504565b92509250506126ce565b6001816004811115612b1057fe5b1415612b2057612af887866135e1565b6003816004811115612b2e57fe5b1415612b78576001600160a01b03841673ee9300b7961e0a01d9f0adb863c7a227a07aad7514612b705760405162461bcd60e51b8152600401610728906157ca565b612af8613613565b6004816004811115612b8657fe5b1415612be957600a546001600160a01b0316612bb45760405162461bcd60e51b815260040161072890615746565b600a546001600160a01b03858116911614612be15760405162461bcd60e51b81526004016107289061577d565b612af86136e3565b612af88787876137a8565b6000612c038484611279612a5d565b61226c82856125ac565b6000612c1c8215156004611408565b818381612c2557fe5b049392505050565b600060606000612c3c84613430565b90506001816003811115612c4c57fe5b1415612c6757612c5d868686613813565b9250925050612cb2565b6002816003811115612c7557fe5b1415612c8657612c5d86868661386d565b6003816003811115612c9457fe5b1415612ca557612c5d868686613914565b612cb06101366128f7565b505b935093915050565b6000612c038484611267612a5d565b6000612cd88215156004611408565b82612ce5575060006105dc565b816001840381612cf157fe5b0460010190506105dc565b6000828202612d1684158061188657508385838161188357fe5b80612d255760009150506105dc565b670de0b6b3a764000060001982015b046001019150506105dc565b60007f00000000000000000000000000000000000000000000000000000000000000006001600160a01b0316826001600160a01b03161415612d8457506000610841565b7f00000000000000000000000000000000000000000000000000000000000000006001600160a01b0316826001600160a01b03161415612dc657506001610841565b7f00000000000000000000000000000000000000000000000000000000000000006001600160a01b0316826001600160a01b03161415612e0857506002610841565b7f00000000000000000000000000000000000000000000000000000000000000006001600160a01b0316826001600160a01b03161415612e4a57506003610841565b7f00000000000000000000000000000000000000000000000000000000000000006001600160a01b0316826001600160a01b03161415612e8c57506004610841565b7f00000000000000000000000000000000000000000000000000000000000000006001600160a01b0316826001600160a01b03161415612ece57506005610841565b7f00000000000000000000000000000000000000000000000000000000000000006001600160a01b0316826001600160a01b03161415612f1057506006610841565b7f00000000000000000000000000000000000000000000000000000000000000006001600160a01b0316826001600160a01b0316141561203b57506007610841565b60007f00000000000000000000000000000000000000000000000000000000000000006001600160a01b0316826001600160a01b03161415612fb557507f0000000000000000000000000000000000000000000000000000000000000000610841565b7f00000000000000000000000000000000000000000000000000000000000000006001600160a01b0316826001600160a01b0316141561301657507f0000000000000000000000000000000000000000000000000000000000000000610841565b7f00000000000000000000000000000000000000000000000000000000000000006001600160a01b0316826001600160a01b0316141561307757507f0000000000000000000000000000000000000000000000000000000000000000610841565b7f00000000000000000000000000000000000000000000000000000000000000006001600160a01b0316826001600160a01b031614156130d857507f0000000000000000000000000000000000000000000000000000000000000000610841565b7f00000000000000000000000000000000000000000000000000000000000000006001600160a01b0316826001600160a01b0316141561313957507f0000000000000000000000000000000000000000000000000000000000000000610841565b7f00000000000000000000000000000000000000000000000000000000000000006001600160a01b0316826001600160a01b0316141561319a57507f0000000000000000000000000000000000000000000000000000000000000000610841565b7f00000000000000000000000000000000000000000000000000000000000000006001600160a01b0316826001600160a01b031614156131fb57507f0000000000000000000000000000000000000000000000000000000000000000610841565b7f00000000000000000000000000000000000000000000000000000000000000006001600160a01b0316826001600160a01b0316141561203b57507f0000000000000000000000000000000000000000000000000000000000000000610841565b600061327e61327387670429d069189e0000613404565b831115610130611408565b600061328a8784611267565b905060006132988883613373565b905060006132a6888761188d565b905060006132b48383613c9b565b90506132c96132c28261334d565b8990613404565b9a9950505050505050505050565b60006132f96132ee85670429d069189e0000613404565b831115610131611408565b600061330f6133088685611279565b8690613373565b9050600061331d8588613373565b9050600061332b8383613c9b565b9050600061334182670de0b6b3a7640000611279565b90506132c98a82612cfc565b6000670de0b6b3a764000082106133655760006105dc565b50670de0b6b3a76400000390565b60006133828215156004611408565b8261338f575060006105dc565b670de0b6b3a7640000838102906133a9908583816118c357fe5b826001820381612d3457fe5b6000806133c28484613cc7565b905060006133dc6133d583612710612cfc565b6001611267565b9050808210156133f1576000925050506105dc565b6133fb8282611279565b925050506105dc565b600082820261341e84158061188657508385838161188357fe5b670de0b6b3a764000090049392505050565b6000818060200190518101906105dc91906152f8565b6060818060200190518101906106a19190615313565b600061346e631c74c91760e11b610909565b909114919050565b600083831161348757506000612a54565b60006134938585613373565b905060006134a9670de0b6b3a76400008861188d565b90506134bd826709b6e64a8ec60000613dd2565b915060006134cb8383613c9b565b905060006134e26134db8361334d565b8b90613404565b90506132c98187613404565b6000818060200190518101906105dc9190615238565b60006060613510611582565b60008061351c85613de9565b9150915061353461352b6115f5565b82106064611408565b606061353e6115f5565b6001600160401b038111801561355357600080fd5b5060405190808252806020026020018201604052801561357d578160200160208202803683370190505b5090506135bc88838151811061358f57fe5b60200260200101518884815181106135a357fe5b6020026020010151856135b46105f6565b600754613e0b565b8183815181106135c857fe5b6020908102919091010152919791965090945050505050565b6000606060006135f084613ec8565b9050606061360686836136016105f6565b613ede565b9196919550909350505050565b6000606061361f611582565b60606136296115f5565b6001600160401b038111801561363e57600080fd5b50604051908082528060200260200182016040528015613668578160200160208202803683370190505b50905060005b6136766115f5565b8110156136d8576000818152600c6020908152604080832054600b909252909120548351919003908390839081106136aa57fe5b6020908102919091018101919091526000828152600b8252604080822054600c90935290205560010161366e565b506000925090509091565b600060606136ef611582565b60606136f96115f5565b6001600160401b038111801561370e57600080fd5b50604051908082528060200260200182016040528015613738578160200160208202803683370190505b50905060005b6137466115f5565b8110156136d8576000818152600e6020908152604080832054600d9092529091205483519190039083908390811061377a57fe5b6020908102919091018101919091526000828152600d8252604080822054600e90935290205560010161373e565b600060606137b4611582565b606060006137c185613f8f565b915091506137d2825161076a6115f5565b6137de82610ecd6118de565b60006137f68888856137ee6105f6565b600754613fa7565b90506138068282111560cf611408565b9791965090945050505050565b60006060806000613823856141cb565b915091506138396138326115f5565b835161125a565b61384582610ecd6118de565b600061385d8888856138556105f6565b6007546141e3565b90506138068282101560d0611408565b6000606060008061387d856143f3565b9150915061388c61352b6115f5565b60606138966115f5565b6001600160401b03811180156138ab57600080fd5b506040519080825280602002602001820160405280156138d5578160200160208202803683370190505b5090506135bc8883815181106138e757fe5b60200260200101518884815181106138fb57fe5b60200260200101518561390c6105f6565b60075461440a565b60006060600080613924856143f3565b9150915061393361352b6115f5565b606061393d6115f5565b6001600160401b038111801561395257600080fd5b5060405190808252806020026020018201604052801561397c578160200160208202803683370190505b5090506139b888838151811061398e57fe5b60200260200101518884815181106139a257fe5b6020026020010151856139b36105f6565b6144ac565b8183815181106139c457fe5b60200260200101818152505060608060006139dd6109a5565b6001600160a01b031663f94d46686139f36106d5565b6040518263ffffffff1660e01b8152600401613a0f91906155e5565b60006040518083038186803b158015613a2757600080fd5b505afa158015613a3b573d6000803e3d6000fd5b505050506040513d6000823e601f3d908101601f19168201604052613a639190810190615011565b601054604051631c16cc7960e31b8152939650919450925060009182916001600160a01b03169063e0b663c890613a9e903090600401615576565b60206040518083038186803b158015613ab657600080fd5b505afa158015613aca573d6000803e3d6000fd5b505050506040513d601f19601f82011682018060405250810190613aee9190614edd565b905060005b613afb6115f5565b811015613b3f57816001600160a01b0316868281518110613b1857fe5b60200260200101516001600160a01b03161415613b3757809250613b3f565b600101613af3565b506060613b4a6115f5565b6001600160401b0381118015613b5f57600080fd5b50604051908082528060200260200182016040528015613b89578160200160208202803683370190505b509050613bc0858481518110613b9b57fe5b60200260200101518e8581518110613baf57fe5b60200260200101518b6139b36105f6565b818481518110613bcc57fe5b602002602001018181525050606060028a85604051602001613bf093929190615711565b60408051601f198184030181529190526010549091506001600160a01b031663ccda98c7613c1c6106d5565b898585878a81518110613c2b57fe5b60200260200101516040518663ffffffff1660e01b8152600401613c53959493929190615641565b600060405180830381600087803b158015613c6d57600080fd5b505af1158015613c81573d6000803e3d6000fd5b509b9d50989b505050505050505050505050935093915050565b600080613ca88484613cc7565b90506000613cbb6133d583612710612cfc565b9050612a548282611267565b600081613cdd5750670de0b6b3a76400006105dc565b82613cea575060006105dc565b613cfb600160ff1b84106006611408565b82613d21770bce5086492111aea88f4bb1ca6bcf584181ea8059f7653284106007611408565b826000670c7d713b49da000083138015613d425750670f43fc2c04ee000083125b15613d79576000613d5284614519565b9050670de0b6b3a764000080820784020583670de0b6b3a764000083050201915050613d87565b81613d8384614637565b0290505b670de0b6b3a76400009005613dbf680238fd42c5cf03ffff198212801590613db8575068070c1cc73b00c800008213155b6008611408565b613dc8816149d6565b9695505050505050565b600081831015613de257816106a1565b5090919050565b60008082806020019051810190613e0091906152c3565b909590945092505050565b600080613e2284613e1c8188611279565b90613373565b9050613e3b6709b6e64a8ec60000821015610132611408565b6000613e59613e52670de0b6b3a76400008961188d565b8390613c9b565b90506000613e70613e698361334d565b8a90613404565b90506000613e7d8961334d565b90506000613e8b8383612cfc565b90506000613e998483611279565b9050613eb8613eb1613eaa8a61334d565b8490613404565b8290611267565b9c9b505050505050505050505050565b6000818060200190518101906106a19190615297565b60606000613eec848461188d565b9050606085516001600160401b0381118015613f0757600080fd5b50604051908082528060200260200182016040528015613f31578160200160208202803683370190505b50905060005b8651811015613f8557613f6683888381518110613f5057fe5b602002602001015161340490919063ffffffff16565b828281518110613f7257fe5b6020908102919091010152600101613f37565b5095945050505050565b6060600082806020019051810190613e009190615253565b6000606084516001600160401b0381118015613fc257600080fd5b50604051908082528060200260200182016040528015613fec578160200160208202803683370190505b5090506000805b88518110156140b15761404c89828151811061400b57fe5b6020026020010151613e1c89848151811061402257fe5b60200260200101518c858151811061403657fe5b602002602001015161127990919063ffffffff16565b83828151811061405857fe5b6020026020010181815250506140a76140a089838151811061407657fe5b602002602001015185848151811061408a57fe5b6020026020010151612cfc90919063ffffffff16565b8390611267565b9150600101613ff3565b50670de0b6b3a764000060005b89518110156141aa5760008482815181106140d557fe5b602002602001015184111561412c5760006140fe6140f28661334d565b8d8581518110613f5057fe5b90506000614112828c868151811061403657fe5b90506141236140a06122cf8b61334d565b92505050614143565b88828151811061413857fe5b602002602001015190505b600061416c8c848151811061415457fe5b6020026020010151610821848f878151811061403657fe5b905061419e6141978c858151811061418057fe5b6020026020010151836133b590919063ffffffff16565b8590613404565b935050506001016140be565b506141be6141b78261334d565b8790612cfc565b9998505050505050505050565b6060600082806020019051810190613e00919061535f565b6000606084516001600160401b03811180156141fe57600080fd5b50604051908082528060200260200182016040528015614228578160200160208202803683370190505b5090506000805b88518110156142d05761428889828151811061424757fe5b602002602001015161082189848151811061425e57fe5b60200260200101518c858151811061427257fe5b602002602001015161126790919063ffffffff16565b83828151811061429457fe5b6020026020010181815250506142c66140a08983815181106142b257fe5b6020026020010151858481518110613f5057fe5b915060010161422f565b50670de0b6b3a764000060005b89518110156143b1576000838583815181106142f557fe5b6020026020010151111561435157600061431a6140f286670de0b6b3a7640000611279565b9050600061432e828c868151811061403657fe5b90506143486140a06125fd670de0b6b3a76400008c611279565b92505050614368565b88828151811061435d57fe5b602002602001015190505b60006143918c848151811061437957fe5b6020026020010151610821848f878151811061427257fe5b90506143a56141978c858151811061418057fe5b935050506001016142dd565b50670de0b6b3a764000081106143e7576143dd6143d682670de0b6b3a7640000611279565b8790613404565b9350505050612a54565b60009350505050612a54565b60008082806020019051810190613e00919061537d565b60008061441b84613e1c8188611267565b90506144346729a2241af62c0000821115610133611408565b600061444b613e52670de0b6b3a764000089613373565b9050600061446b61446483670de0b6b3a7640000611279565b8a90612cfc565b905060006144788961334d565b905060006144868383612cfc565b905060006144948483611279565b9050613eb8613eb16144a58a61334d565b8490613373565b6000806144bd83613e1c8187611267565b90506144d66729a2241af62c0000821115610133611408565b60006144ed613e52670de0b6b3a764000088613373565b9050600061450d61450683670de0b6b3a7640000611279565b8990612cfc565b98975050505050505050565b670de0b6b3a7640000026000806a0c097ce7bc90715b34b9f160241b808401906ec097ce7bc90715b34b9f0fffffffff198501028161455457fe5b05905060006a0c097ce7bc90715b34b9f160241b82800205905081806a0c097ce7bc90715b34b9f160241b81840205915060038205016a0c097ce7bc90715b34b9f160241b82840205915060058205016a0c097ce7bc90715b34b9f160241b82840205915060078205016a0c097ce7bc90715b34b9f160241b82840205915060098205016a0c097ce7bc90715b34b9f160241b828402059150600b8205016a0c097ce7bc90715b34b9f160241b828402059150600d8205016a0c097ce7bc90715b34b9f160241b828402059150600f826002919005919091010295945050505050565b6000670de0b6b3a764000082121561467357614669826a0c097ce7bc90715b34b9f160241b8161466357fe5b05614637565b6000039050610841565b60007e1600ef3172e58d2e933ec884fde10064c63b5372d805e203c000000000000083126146c457770195e54c5dd42177f53a27172fa9ec630262827000000000830592506806f05b59d3b2000000015b73011798004d755d3c8bc8e03204cf44619e00000083126146fc576b1425982cf597cd205cef7380830592506803782dace9d9000000015b606492830292026e01855144814a7ff805980ff00840008312614744576e01855144814a7ff805980ff008400068056bc75e2d63100000840205925068ad78ebc5ac62000000015b6b02df0ab5a80a22c61ab5a700831261477f576b02df0ab5a80a22c61ab5a70068056bc75e2d6310000084020592506856bc75e2d631000000015b693f1fce3da636ea5cf85083126147b657693f1fce3da636ea5cf85068056bc75e2d631000008402059250682b5e3af16b18800000015b690127fa27722cc06cc5e283126147ed57690127fa27722cc06cc5e268056bc75e2d6310000084020592506815af1d78b58c400000015b68280e60114edb805d0383126148225768280e60114edb805d0368056bc75e2d631000008402059250680ad78ebc5ac6200000015b680ebc5fb41746121110831261484d57680ebc5fb4174612111068056bc75e2d631000009384020592015b6808f00f760a4b2db55d8312614882576808f00f760a4b2db55d68056bc75e2d6310000084020592506802b5e3af16b1880000015b6806f5f177578893793783126148b7576806f5f177578893793768056bc75e2d63100000840205925068015af1d78b58c40000015b6806248f33704b28660383126148eb576806248f33704b28660368056bc75e2d63100000840205925067ad78ebc5ac620000015b6805c548670b9510e7ac831261491f576805c548670b9510e7ac68056bc75e2d6310000084020592506756bc75e2d6310000015b600068056bc75e2d63100000840168056bc75e2d63100000808603028161494257fe5b059050600068056bc75e2d63100000828002059050818068056bc75e2d63100000818402059150600382050168056bc75e2d63100000828402059150600582050168056bc75e2d63100000828402059150600782050168056bc75e2d63100000828402059150600982050168056bc75e2d63100000828402059150600b820501600202606485820105979650505050505050565b6000614a05680238fd42c5cf03ffff1983121580156149fe575068070c1cc73b00c800008313155b6009611408565b6000821215614a3857614a1a826000036149d6565b6a0c097ce7bc90715b34b9f160241b81614a3057fe5b059050610841565b60006806f05b59d3b20000008312614a7857506806f05b59d3b1ffffff1990910190770195e54c5dd42177f53a27172fa9ec630262827000000000614aae565b6803782dace9d90000008312614aaa57506803782dace9d8ffffff19909101906b1425982cf597cd205cef7380614aae565b5060015b6064929092029168056bc75e2d6310000068ad78ebc5ac620000008412614afe5768ad78ebc5ac61ffffff199093019268056bc75e2d631000006e01855144814a7ff805980ff008400082020590505b6856bc75e2d6310000008412614b3a576856bc75e2d630ffffff199093019268056bc75e2d631000006b02df0ab5a80a22c61ab5a70082020590505b682b5e3af16b188000008412614b7457682b5e3af16b187fffff199093019268056bc75e2d63100000693f1fce3da636ea5cf85082020590505b6815af1d78b58c4000008412614bae576815af1d78b58c3fffff199093019268056bc75e2d63100000690127fa27722cc06cc5e282020590505b680ad78ebc5ac62000008412614be757680ad78ebc5ac61fffff199093019268056bc75e2d6310000068280e60114edb805d0382020590505b68056bc75e2d631000008412614c205768056bc75e2d630fffff199093019268056bc75e2d63100000680ebc5fb4174612111082020590505b6802b5e3af16b18800008412614c59576802b5e3af16b187ffff199093019268056bc75e2d631000006808f00f760a4b2db55d82020590505b68015af1d78b58c400008412614c925768015af1d78b58c3ffff199093019268056bc75e2d631000006806f5f177578893793782020590505b68056bc75e2d631000008481019085906002908280020505918201919050600368056bc75e2d631000008783020505918201919050600468056bc75e2d631000008783020505918201919050600568056bc75e2d631000008783020505918201919050600668056bc75e2d631000008783020505918201919050600768056bc75e2d631000008783020505918201919050600868056bc75e2d631000008783020505918201919050600968056bc75e2d631000008783020505918201919050600a68056bc75e2d631000008783020505918201919050600b68056bc75e2d631000008783020505918201919050600c68056bc75e2d631000008783020505918201919050606468056bc75e2d63100000848402058502059695505050505050565b80356105dc8161587a565b600082601f830112614dce578081fd5b8151614de1614ddc8261585b565b615835565b818152915060208083019084810181840286018201871015614e0257600080fd5b60005b84811015614e2157815184529282019290820190600101614e05565b505050505092915050565b600082601f830112614e3c578081fd5b81356001600160401b03811115614e51578182fd5b614e64601f8201601f1916602001615835565b9150808252836020828501011115614e7b57600080fd5b8060208401602084013760009082016020015292915050565b8051600581106105dc57600080fd5b8051600481106105dc57600080fd5b8035600281106105dc57600080fd5b600060208284031215614ed2578081fd5b81356106a18161587a565b600060208284031215614eee578081fd5b81516106a18161587a565b60008060408385031215614f0b578081fd5b8235614f168161587a565b91506020830135614f268161587a565b809150509250929050565b600080600060608486031215614f45578081fd5b8335614f508161587a565b92506020840135614f608161587a565b929592945050506040919091013590565b600080600080600080600060e0888a031215614f8b578485fd5b8735614f968161587a565b96506020880135614fa68161587a565b95506040880135945060608801359350608088013560ff81168114614fc9578384fd5b9699959850939692959460a0840135945060c09093013592915050565b60008060408385031215614ff8578182fd5b82356150038161587a565b946020939093013593505050565b600080600060608486031215615025578081fd5b83516001600160401b038082111561503b578283fd5b818601915086601f83011261504e578283fd5b815161505c614ddc8261585b565b80828252602080830192508086018b82838702890101111561507c578788fd5b8796505b848710156150a75780516150938161587a565b845260019690960195928101928101615080565b5089015190975093505050808211156150be578283fd5b506150cb86828701614dbe565b925050604084015190509250925092565b6000602082840312156150ed578081fd5b81356106a18161588f565b600060208284031215615109578081fd5b81516106a18161588f565b600080600080600080600060e0888a03121561512e578081fd5b873596506020808901356151418161587a565b965060408901356151518161587a565b955060608901356001600160401b038082111561516c578384fd5b818b0191508b601f83011261517f578384fd5b813561518d614ddc8261585b565b8082825285820191508585018f8788860288010111156151ab578788fd5b8795505b838610156151cd5780358352600195909501949186019186016151af565b509850505060808b0135955060a08b0135945060c08b01359250808311156151f3578384fd5b50506152018a828b01614e2c565b91505092959891949750929550565b600060208284031215615221578081fd5b81356001600160e01b0319811681146106a1578182fd5b600060208284031215615249578081fd5b6106a18383614e94565b600080600060608486031215615267578081fd5b6152718585614e94565b925060208401516001600160401b0381111561528b578182fd5b6150cb86828701614dbe565b600080604083850312156152a9578182fd5b6152b38484614e94565b9150602083015190509250929050565b6000806000606084860312156152d7578081fd5b6152e18585614e94565b925060208401519150604084015190509250925092565b600060208284031215615309578081fd5b6106a18383614ea3565b60008060408385031215615325578182fd5b61532f8484614ea3565b915060208301516001600160401b03811115615349578182fd5b61535585828601614dbe565b9150509250929050565b600080600060608486031215615373578081fd5b6152718585614ea3565b600080600060608486031215615391578081fd5b6152e18585614ea3565b6000806000606084860312156153af578081fd5b83356001600160401b03808211156153c5578283fd5b81860191506101208083890312156153db578384fd5b6153e481615835565b90506153f08884614eb2565b81526153ff8860208501614db3565b60208201526154118860408501614db3565b6040820152606083013560608201526080830135608082015260a083013560a08201526154418860c08501614db3565b60c08201526154538860e08501614db3565b60e0820152610100808401358381111561546b578586fd5b6154778a828701614e2c565b9183019190915250976020870135975060409096013595945050505050565b6000602082840312156154a7578081fd5b5035919050565b6000815180845260208085019450808401835b838110156154dd578151875295820195908201906001016154c1565b509495945050505050565b60008151808452815b8181101561550d576020818501810151868301820152016154f1565b8181111561551e5782602083870101525b50601f01601f19169290920160200192915050565b9182526001600160e01b031916602082015260240190565b6000828483379101908152919050565b61190160f01b81526002810192909252602282015260420190565b6001600160a01b0391909116815260200190565b6000602082526106a160208301846154ae565b6000604082526155b060408301856154ae565b8281036020840152612a5481856154ae565b901515815260200190565b92151583526020830191909152604082015260600190565b90815260200190565b9283526001600160a01b03918216602084015216604082015260600190565b9586526001600160a01b0394851660208701529290931660408501526060840152608083019190915260a082015260c00190565b600060a08201878352602060a08185015281885180845260c086019150828a019350845b8181101561568a5784516001600160a01b031683529383019391830191600101615665565b5050848103604086015261569e81896154ae565b9250505082810360608401526156b481866154e8565b9150508260808301529695505050505050565b9485526020850193909352604084019190915260608301526001600160a01b0316608082015260a00190565b93845260ff9290921660208401526040830152606082015260800190565b606081016004851061571f57fe5b938152602081019290925260409091015290565b6000602082526106a160208301846154e8565b6020808252601a908201527f4d61726b6574466565436f6c6c6563746f72204e4f5420534554000000000000604082015260600190565b60208082526010908201526f1393d508135408149150d2541251539560821b604082015260600190565b6020808252600990820152682727aa1027aba722a960b91b604082015260600190565b6020808252601190820152701393d50813d41188149150d25412515395607a1b604082015260600190565b60008382526040602083015261226c60408301846154ae565b60008382526040602083015261226c60408301846154e8565b60ff91909116815260200190565b6040518181016001600160401b038111828210171561585357600080fd5b604052919050565b60006001600160401b03821115615870578081fd5b5060209081020190565b6001600160a01b03811681146105f357600080fd5b80151581146105f357600080fdfe61637475616c20416d6f756e74207377617070656420616674657220616c6c2063757473616d6f756e742061667465722073756272616374696e67207377617020666565206265666f7265206f6365616e20616e64206d61726b657420637574a2646970667358221220e89d8bcdb66a4b4f5d989fa2e48a5107cb4bcba1c1198e8d557b48930f480df764736f6c63430007010033",
  "linkReferences": {},
  "deployedLinkReferences": {}
}