{
  "_format": "hh-sol-artifact-1",
  "contractName": "BNum",
  "sourceName": "contracts/v3/balancer/BNum.sol",
  "abi": [
    {
      "inputs": [],
      "name": "BONE",
      "outputs": [
        {
          "internalType": "uint256",
          "name": "",
          "type": "uint256"
        }
      ],
      "stateMutability": "view",
      "type": "function"
    },
    {
      "inputs": [],
      "name": "BPOW_PRECISION",
      "outputs": [
        {
          "internalType": "uint256",
          "name": "",
          "type": "uint256"
        }
      ],
      "stateMutability": "view",
      "type": "function"
    },
    {
      "inputs": [],
      "name": "EXIT_FEE",
      "outputs": [
        {
          "internalType": "uint256",
          "name": "",
          "type": "uint256"
        }
      ],
      "stateMutability": "view",
      "type": "function"
    },
    {
      "inputs": [],
      "name": "INIT_POOL_SUPPLY",
      "outputs": [
        {
          "internalType": "uint256",
          "name": "",
          "type": "uint256"
        }
      ],
      "stateMutability": "view",
      "type": "function"
    },
    {
      "inputs": [],
      "name": "MAX_BOUND_TOKENS",
      "outputs": [
        {
          "internalType": "uint256",
          "name": "",
          "type": "uint256"
        }
      ],
      "stateMutability": "view",
      "type": "function"
    },
    {
      "inputs": [],
      "name": "MAX_BPOW_BASE",
      "outputs": [
        {
          "internalType": "uint256",
          "name": "",
          "type": "uint256"
        }
      ],
      "stateMutability": "view",
      "type": "function"
    },
    {
      "inputs": [],
      "name": "MAX_FEE",
      "outputs": [
        {
          "internalType": "uint256",
          "name": "",
          "type": "uint256"
        }
      ],
      "stateMutability": "view",
      "type": "function"
    },
    {
      "inputs": [],
      "name": "MAX_IN_RATIO",
      "outputs": [
        {
          "internalType": "uint256",
          "name": "",
          "type": "uint256"
        }
      ],
      "stateMutability": "view",
      "type": "function"
    },
    {
      "inputs": [],
      "name": "MAX_OUT_RATIO",
      "outputs": [
        {
          "internalType": "uint256",
          "name": "",
          "type": "uint256"
        }
      ],
      "stateMutability": "view",
      "type": "function"
    },
    {
      "inputs": [],
      "name": "MAX_TOTAL_WEIGHT",
      "outputs": [
        {
          "internalType": "uint256",
          "name": "",
          "type": "uint256"
        }
      ],
      "stateMutability": "view",
      "type": "function"
    },
    {
      "inputs": [],
      "name": "MAX_WEIGHT",
      "outputs": [
        {
          "internalType": "uint256",
          "name": "",
          "type": "uint256"
        }
      ],
      "stateMutability": "view",
      "type": "function"
    },
    {
      "inputs": [],
      "name": "MIN_BALANCE",
      "outputs": [
        {
          "internalType": "uint256",
          "name": "",
          "type": "uint256"
        }
      ],
      "stateMutability": "view",
      "type": "function"
    },
    {
      "inputs": [],
      "name": "MIN_BOUND_TOKENS",
      "outputs": [
        {
          "internalType": "uint256",
          "name": "",
          "type": "uint256"
        }
      ],
      "stateMutability": "view",
      "type": "function"
    },
    {
      "inputs": [],
      "name": "MIN_BPOW_BASE",
      "outputs": [
        {
          "internalType": "uint256",
          "name": "",
          "type": "uint256"
        }
      ],
      "stateMutability": "view",
      "type": "function"
    },
    {
      "inputs": [],
      "name": "MIN_FEE",
      "outputs": [
        {
          "internalType": "uint256",
          "name": "",
          "type": "uint256"
        }
      ],
      "stateMutability": "view",
      "type": "function"
    },
    {
      "inputs": [],
      "name": "MIN_WEIGHT",
      "outputs": [
        {
          "internalType": "uint256",
          "name": "",
          "type": "uint256"
        }
      ],
      "stateMutability": "view",
      "type": "function"
    }
  ],
  "bytecode": "0x608060405234801561001057600080fd5b5061033d806100206000396000f3fe608060405234801561001057600080fd5b50600436106101005760003560e01c8063b7b800a411610097578063c36596a611610066578063c36596a61461012b578063c6580d121461017b578063e4a28a5214610105578063ec0930211461018357610100565b8063b7b800a41461015b578063ba019dab14610163578063bc063e1a1461016b578063bc694ea21461017357610100565b8063867378c5116100d3578063867378c51461013b5780639381cd2b14610143578063992e2a921461014b578063b0e0d1361461015357610100565b806309a3bbe414610105578063189d00ca14610123578063218b53821461012b57806376c7a3c714610133575b600080fd5b61010d61018b565b60405161011a919061027a565b60405180910390f35b61010d6101a1565b61010d6101b8565b61010d6101c4565b61010d6101d9565b61010d6101f0565b61010d610203565b61010d610221565b61010d610226565b61010d61022b565b61010d610230565b61010d610243565b61010d610262565b61010d610267565b61019e670de0b6b3a764000060326102bb565b81565b61019e6402540be400670de0b6b3a764000061029b565b670de0b6b3a764000081565b61019e620f4240670de0b6b3a764000061029b565b61019e64e8d4a51000670de0b6b3a764000061029b565b61019e670de0b6b3a764000060646102bb565b6102166003670de0b6b3a764000061029b565b61019e906001610283565b600881565b600281565b600181565b61019e600a670de0b6b3a764000061029b565b6001610258670de0b6b3a764000060026102bb565b61019e91906102da565b600081565b61019e6002670de0b6b3a764000061029b565b90815260200190565b60008219821115610296576102966102f1565b500190565b6000826102b657634e487b7160e01b81526012600452602481fd5b500490565b60008160001904831182151516156102d5576102d56102f1565b500290565b6000828210156102ec576102ec6102f1565b500390565b634e487b7160e01b600052601160045260246000fdfea26469706673582212209152377b9b263daedb4a53ad01eaa5f5d6accf793c216f53d60f1c15a37bd43564736f6c63430008000033",
  "linkReferences": {},
  "deployedLinkReferences": {}
}