{
  "_format": "hh-sol-artifact-1",
  "contractName": "Dispenser",
  "sourceName": "contracts/pools/dispenser/Dispenser.sol",
  "abi": [
    {
      "inputs": [
        {
          "internalType": "address",
          "name": "_router",
          "type": "address"
        }
      ],
      "stateMutability": "nonpayable",
      "type": "constructor"
    },
    {
      "anonymous": false,
      "inputs": [
        {
          "indexed": true,
          "internalType": "address",
          "name": "datatokenAddress",
          "type": "address"
        }
      ],
      "name": "DispenserActivated",
      "type": "event"
    },
    {
      "anonymous": false,
      "inputs": [
        {
          "indexed": true,
          "internalType": "address",
          "name": "datatoken",
          "type": "address"
        },
        {
          "indexed": true,
          "internalType": "address",
          "name": "newAllowedSwapper",
          "type": "address"
        }
      ],
      "name": "DispenserAllowedSwapperChanged",
      "type": "event"
    },
    {
      "anonymous": false,
      "inputs": [
        {
          "indexed": true,
          "internalType": "address",
          "name": "datatokenAddress",
          "type": "address"
        },
        {
          "indexed": true,
          "internalType": "address",
          "name": "owner",
          "type": "address"
        },
        {
          "indexed": false,
          "internalType": "uint256",
          "name": "maxTokens",
          "type": "uint256"
        },
        {
          "indexed": false,
          "internalType": "uint256",
          "name": "maxBalance",
          "type": "uint256"
        },
        {
          "indexed": false,
          "internalType": "address",
          "name": "allowedSwapper",
          "type": "address"
        }
      ],
      "name": "DispenserCreated",
      "type": "event"
    },
    {
      "anonymous": false,
      "inputs": [
        {
          "indexed": true,
          "internalType": "address",
          "name": "datatokenAddress",
          "type": "address"
        }
      ],
      "name": "DispenserDeactivated",
      "type": "event"
    },
    {
      "anonymous": false,
      "inputs": [
        {
          "indexed": true,
          "internalType": "address",
          "name": "datatoken",
          "type": "address"
        },
        {
          "indexed": true,
          "internalType": "address",
          "name": "owner",
          "type": "address"
        },
        {
          "indexed": false,
          "internalType": "uint256",
          "name": "amount",
          "type": "uint256"
        }
      ],
      "name": "OwnerWithdrawed",
      "type": "event"
    },
    {
      "anonymous": false,
      "inputs": [
        {
          "indexed": true,
          "internalType": "address",
          "name": "datatokenAddress",
          "type": "address"
        },
        {
          "indexed": true,
          "internalType": "address",
          "name": "userAddress",
          "type": "address"
        },
        {
          "indexed": false,
          "internalType": "uint256",
          "name": "amount",
          "type": "uint256"
        }
      ],
      "name": "TokensDispensed",
      "type": "event"
    },
    {
      "inputs": [
        {
          "internalType": "address",
          "name": "datatoken",
          "type": "address"
        },
        {
          "internalType": "uint256",
          "name": "maxTokens",
          "type": "uint256"
        },
        {
          "internalType": "uint256",
          "name": "maxBalance",
          "type": "uint256"
        }
      ],
      "name": "activate",
      "outputs": [],
      "stateMutability": "nonpayable",
      "type": "function"
    },
    {
      "inputs": [
        {
          "internalType": "address",
          "name": "datatoken",
          "type": "address"
        },
        {
          "internalType": "uint256",
          "name": "maxTokens",
          "type": "uint256"
        },
        {
          "internalType": "uint256",
          "name": "maxBalance",
          "type": "uint256"
        },
        {
          "internalType": "address",
          "name": "owner",
          "type": "address"
        },
        {
          "internalType": "address",
          "name": "allowedSwapper",
          "type": "address"
        }
      ],
      "name": "create",
      "outputs": [],
      "stateMutability": "nonpayable",
      "type": "function"
    },
    {
      "inputs": [
        {
          "internalType": "uint256",
          "name": "",
          "type": "uint256"
        }
      ],
      "name": "datatokensList",
      "outputs": [
        {
          "internalType": "address",
          "name": "",
          "type": "address"
        }
      ],
      "stateMutability": "view",
      "type": "function"
    },
    {
      "inputs": [
        {
          "internalType": "address",
          "name": "datatoken",
          "type": "address"
        }
      ],
      "name": "deactivate",
      "outputs": [],
      "stateMutability": "nonpayable",
      "type": "function"
    },
    {
      "inputs": [
        {
          "internalType": "address",
          "name": "datatoken",
          "type": "address"
        },
        {
          "internalType": "uint256",
          "name": "amount",
          "type": "uint256"
        },
        {
          "internalType": "address",
          "name": "destination",
          "type": "address"
        }
      ],
      "name": "dispense",
      "outputs": [],
      "stateMutability": "payable",
      "type": "function"
    },
    {
      "inputs": [
        {
          "internalType": "address",
          "name": "datatoken",
          "type": "address"
        }
      ],
      "name": "ownerWithdraw",
      "outputs": [],
      "stateMutability": "nonpayable",
      "type": "function"
    },
    {
      "inputs": [],
      "name": "router",
      "outputs": [
        {
          "internalType": "address",
          "name": "",
          "type": "address"
        }
      ],
      "stateMutability": "view",
      "type": "function"
    },
    {
      "inputs": [
        {
          "internalType": "address",
          "name": "datatoken",
          "type": "address"
        },
        {
          "internalType": "address",
          "name": "newAllowedSwapper",
          "type": "address"
        }
      ],
      "name": "setAllowedSwapper",
      "outputs": [],
      "stateMutability": "nonpayable",
      "type": "function"
    },
    {
      "inputs": [
        {
          "internalType": "address",
          "name": "datatoken",
          "type": "address"
        }
      ],
      "name": "status",
      "outputs": [
        {
          "internalType": "bool",
          "name": "active",
          "type": "bool"
        },
        {
          "internalType": "address",
          "name": "owner",
          "type": "address"
        },
        {
          "internalType": "bool",
          "name": "isMinter",
          "type": "bool"
        },
        {
          "internalType": "uint256",
          "name": "maxTokens",
          "type": "uint256"
        },
        {
          "internalType": "uint256",
          "name": "maxBalance",
          "type": "uint256"
        },
        {
          "internalType": "uint256",
          "name": "balance",
          "type": "uint256"
        },
        {
          "internalType": "address",
          "name": "allowedSwapper",
          "type": "address"
        }
      ],
      "stateMutability": "view",
      "type": "function"
    }
  ],
  "bytecode": "0x608060405234801561001057600080fd5b506040516113b13803806113b183398101604081905261002f916100b3565b60016000556001600160a01b03811661008e5760405162461bcd60e51b815260206004820152601f60248201527f44697370656e7365723a2057726f6e6720526f75746572206164647265737300604482015260640160405180910390fd5b600180546001600160a01b0319166001600160a01b03929092169190911790556100e3565b6000602082840312156100c557600080fd5b81516001600160a01b03811681146100dc57600080fd5b9392505050565b6112bf806100f26000396000f3fe6080604052600436106100865760003560e01c806345d6646b1161005957806345d6646b1461011d578063645b8b1b1461013d578063938d71d0146101a0578063f887ea40146101c0578063f9bfaa7d146101e057600080fd5b80631d746d831461008b57806324ce2917146100a05780633398086a146100c05780633ea053eb146100fd575b600080fd5b61009e6100993660046110be565b610200565b005b3480156100ac57600080fd5b5061009e6100bb3660046110fa565b6107e3565b3480156100cc57600080fd5b506100e06100db366004611151565b610a16565b6040516001600160a01b0390911681526020015b60405180910390f35b34801561010957600080fd5b5061009e61011836600461116a565b610a40565b34801561012957600080fd5b5061009e61013836600461118c565b610b1d565b34801561014957600080fd5b5061015d61015836600461116a565b610c0b565b6040805197151588526001600160a01b039687166020890152941515948701949094526060860192909252608085015260a08401521660c082015260e0016100f4565b3480156101ac57600080fd5b5061009e6101bb3660046111bf565b610d74565b3480156101cc57600080fd5b506001546100e0906001600160a01b031681565b3480156101ec57600080fd5b5061009e6101fb36600461116a565b610e94565b600260005414156102585760405162461bcd60e51b815260206004820152601f60248201527f5265656e7472616e637947756172643a207265656e7472616e742063616c6c0060448201526064015b60405180910390fd5b60026000556001600160a01b0383166102835760405162461bcd60e51b815260040161024f906111f2565b6001600160a01b03831660009081526002602052604090205460ff1615156001146102e75760405162461bcd60e51b815260206004820152601460248201527344697370656e736572206e6f742061637469766560601b604482015260640161024f565b6000821161032d5760405162461bcd60e51b8152602060048201526013602482015272125b9d985b1a59081e995c9bc8185b5bdd5b9d606a1b604482015260640161024f565b6001600160a01b03831660009081526002602052604090206001015482111561038a5760405162461bcd60e51b815260206004820152600f60248201526e082dadeeadce840e8dede40d0d2ced608b1b604482015260640161024f565b6001600160a01b03838116600090815260026020526040902060030154161561042b576001600160a01b0383811660009081526002602052604090206003015416331461042b5760405162461bcd60e51b815260206004820152602960248201527f546869732061646472657373206973206e6f7420616c6c6f77656420746f2072604482015268195c5d595cdd08111560ba1b606482015260840161024f565b6040516370a0823160e01b81526001600160a01b03828116600483015284916000918316906370a0823190602401602060405180830381865afa158015610476573d6000803e3d6000fd5b505050506040513d601f19601f8201168201806040525081019061049a9190611229565b6001600160a01b0386166000908152600260208190526040909120015490915081106105085760405162461bcd60e51b815260206004820152601760248201527f43616c6c65722062616c616e636520746f6f2068696768000000000000000000604482015260640161024f565b6040516370a0823160e01b81523060048201526000906001600160a01b038416906370a0823190602401602060405180830381865afa15801561054f573d6000803e3d6000fd5b505050506040513d601f19601f820116820180604052508101906105739190611229565b905084811080156105e757506040516355138f0d60e11b81523060048201526001600160a01b0384169063aa271e1a90602401602060405180830381865afa1580156105c3573d6000803e3d6000fd5b505050506040513d601f19601f820116820180604052508101906105e79190611242565b156106cf576001600160a01b0383166340c10f19306106068489611264565b6040516001600160e01b031960e085901b1681526001600160a01b0390921660048301526024820152604401600060405180830381600087803b15801561064c57600080fd5b505af1158015610660573d6000803e3d6000fd5b50506040516370a0823160e01b81523060048201526001600160a01b03861692506370a082319150602401602060405180830381865afa1580156106a8573d6000803e3d6000fd5b505050506040513d601f19601f820116820180604052508101906106cc9190611229565b90505b848110156107155760405162461bcd60e51b81526020600482015260136024820152724e6f7420656e6f75676820726573657276657360681b604482015260640161024f565b60405163a9059cbb60e01b81526001600160a01b0385811660048301526024820187905284169063a9059cbb906044016020604051808303816000875af1158015610764573d6000803e3d6000fd5b505050506040513d601f19601f820116820180604052508101906107889190611242565b50836001600160a01b0316866001600160a01b03167f63e223ff524bd93d4cbff98ef34405b39f63ded87f5a8d85e39ccda966f13543876040516107ce91815260200190565b60405180910390a35050600160005550505050565b6001546001600160a01b031633146108365760405162461bcd60e51b81526020600482015260166024820152752234b9b832b739b2b91d1037b7363c903937baba32b960511b604482015260640161024f565b6001600160a01b03851661085c5760405162461bcd60e51b815260040161024f906111f2565b6001600160a01b0385811660009081526002602052604090205461010090041615806108a957506001600160a01b0385811660009081526002602052604090205461010090048116908316145b6108f55760405162461bcd60e51b815260206004820152601960248201527f44617461546f6b656e20616c7265616479206372656174656400000000000000604482015260640161024f565b6001600160a01b038581166000818152600260208181526040808420805489881661010081026001600160a81b031990921691909117600190811783558083018d90559482018b905560039182018054988a166001600160a01b0319998a16811790915582549586018355919095527fc2575a0e9e593c00f959f8c92f12db2869c3395a3b0502d05e2516446f71f85b90930180549096168517909555845189815290810188905293840152917f7d0aa581e6eb87e15f58588ff20c39ff6622fc796ec9bb664df6ed3eb02442c99060600160405180910390a3806001600160a01b0316856001600160a01b03167fac5c7317d52e88de62aff4ba6869a4882a4556557b761158934d2fd32a8b2ca560405160405180910390a35050505050565b60038181548110610a2657600080fd5b6000918252602090912001546001600160a01b0316905081565b6001600160a01b038116610a665760405162461bcd60e51b815260040161024f906111f2565b6001600160a01b038181166000908152600260205260409020546101009004163314610ad45760405162461bcd60e51b815260206004820152601b60248201527f44617461546f6b656e20616c7265616479206163746976617465640000000000604482015260640161024f565b6001600160a01b038116600081815260026020526040808220805460ff19169055517f393f01061139648745ea000bb047bbe1785bd3a19d3a9c90f6747e1d2357d2b89190a250565b6001600160a01b038216610b435760405162461bcd60e51b815260040161024f906111f2565b6001600160a01b038281166000908152600260205260409020546101009004163314610bb15760405162461bcd60e51b815260206004820152601b60248201527f44617461546f6b656e20616c7265616479206163746976617465640000000000604482015260640161024f565b6001600160a01b0382811660008181526002602052604080822060030180546001600160a01b0319169486169485179055517fac5c7317d52e88de62aff4ba6869a4882a4556557b761158934d2fd32a8b2ca59190a35050565b60008080808080806001600160a01b038816610c395760405162461bcd60e51b815260040161024f906111f2565b6001600160a01b0388811660008181526002602081905260409182902080546001820154919092015492516370a0823160e01b815230600482015260ff83169c506101009092049094169950929650945089916370a0823190602401602060405180830381865afa158015610cb2573d6000803e3d6000fd5b505050506040513d601f19601f82011682018060405250810190610cd69190611229565b6040516355138f0d60e11b81523060048201529093506001600160a01b0382169063aa271e1a90602401602060405180830381865afa158015610d1d573d6000803e3d6000fd5b505050506040513d601f19601f82011682018060405250810190610d419190611242565b6001600160a01b03998a16600090815260026020526040902060030154989a979990989597949650929490921692915050565b6001600160a01b038316610d9a5760405162461bcd60e51b815260040161024f906111f2565b6001600160a01b038381166000908152600260205260409020546101009004163314610df85760405162461bcd60e51b815260206004820152600d60248201526c24b73b30b634b21037bbb732b960991b604482015260640161024f565b6001600160a01b0383166000818152600260208190526040808320805460ff191660019081178255818101889055920185905560038054928301815583527fc2575a0e9e593c00f959f8c92f12db2869c3395a3b0502d05e2516446f71f85b90910180546001600160a01b03191684179055517fe9372084cb52c5392afee4b9d79d131e04b1e65676088d50a8f39fffb16a87459190a2505050565b60026000541415610ee75760405162461bcd60e51b815260206004820152601f60248201527f5265656e7472616e637947756172643a207265656e7472616e742063616c6c00604482015260640161024f565b60026000556001600160a01b038116610f125760405162461bcd60e51b815260040161024f906111f2565b6001600160a01b038181166000908152600260205260409020546101009004163314610f705760405162461bcd60e51b815260206004820152600d60248201526c24b73b30b634b21037bbb732b960991b604482015260640161024f565b6040516370a0823160e01b815230600482015281906000906001600160a01b038316906370a0823190602401602060405180830381865afa158015610fb9573d6000803e3d6000fd5b505050506040513d601f19601f82011682018060405250810190610fdd9190611229565b905080156110985760405163a9059cbb60e01b8152336004820152602481018290526001600160a01b0383169063a9059cbb906044016020604051808303816000875af1158015611032573d6000803e3d6000fd5b505050506040513d601f19601f820116820180604052508101906110569190611242565b5060405181815233906001600160a01b038516907f03185212530fcdce6b38fbf62ed27ab29b1b047f59b76b17401388a70a95f41b9060200160405180910390a35b5050600160005550565b80356001600160a01b03811681146110b957600080fd5b919050565b6000806000606084860312156110d357600080fd5b6110dc846110a2565b9250602084013591506110f1604085016110a2565b90509250925092565b600080600080600060a0868803121561111257600080fd5b61111b866110a2565b94506020860135935060408601359250611137606087016110a2565b9150611145608087016110a2565b90509295509295909350565b60006020828403121561116357600080fd5b5035919050565b60006020828403121561117c57600080fd5b611185826110a2565b9392505050565b6000806040838503121561119f57600080fd5b6111a8836110a2565b91506111b6602084016110a2565b90509250929050565b6000806000606084860312156111d457600080fd5b6111dd846110a2565b95602085013595506040909401359392505050565b6020808252601e908201527f496e76616c696420746f6b656e20636f6e747261637420616464726573730000604082015260600190565b60006020828403121561123b57600080fd5b5051919050565b60006020828403121561125457600080fd5b8151801515811461118557600080fd5b60008282101561128457634e487b7160e01b600052601160045260246000fd5b50039056fea264697066735822122061ce8fa814c3ebd82e510c773539747d7ca21d717ae0a292636712de2b88a36c64736f6c634300080a0033",
  "linkReferences": {},
  "deployedLinkReferences": {}
}