{
  "_format": "hh-sol-artifact-1",
  "contractName": "Dispenser",
  "sourceName": "contracts/pools/dispenser/Dispenser.sol",
  "abi": [
    {
      "inputs": [
        {
          "internalType": "address",
          "name": "_router",
          "type": "address"
        }
      ],
      "stateMutability": "nonpayable",
      "type": "constructor"
    },
    {
      "anonymous": false,
      "inputs": [
        {
          "indexed": true,
          "internalType": "address",
          "name": "datatokenAddress",
          "type": "address"
        }
      ],
      "name": "DispenserActivated",
      "type": "event"
    },
    {
      "anonymous": false,
      "inputs": [
        {
          "indexed": true,
          "internalType": "address",
          "name": "datatoken",
          "type": "address"
        },
        {
          "indexed": true,
          "internalType": "address",
          "name": "newAllowedSwapper",
          "type": "address"
        }
      ],
      "name": "DispenserAllowedSwapperChanged",
      "type": "event"
    },
    {
      "anonymous": false,
      "inputs": [
        {
          "indexed": true,
          "internalType": "address",
          "name": "datatokenAddress",
          "type": "address"
        },
        {
          "indexed": true,
          "internalType": "address",
          "name": "owner",
          "type": "address"
        },
        {
          "indexed": false,
          "internalType": "uint256",
          "name": "maxTokens",
          "type": "uint256"
        },
        {
          "indexed": false,
          "internalType": "uint256",
          "name": "maxBalance",
          "type": "uint256"
        },
        {
          "indexed": false,
          "internalType": "address",
          "name": "allowedSwapper",
          "type": "address"
        }
      ],
      "name": "DispenserCreated",
      "type": "event"
    },
    {
      "anonymous": false,
      "inputs": [
        {
          "indexed": true,
          "internalType": "address",
          "name": "datatokenAddress",
          "type": "address"
        }
      ],
      "name": "DispenserDeactivated",
      "type": "event"
    },
    {
      "anonymous": false,
      "inputs": [
        {
          "indexed": true,
          "internalType": "address",
          "name": "datatoken",
          "type": "address"
        },
        {
          "indexed": true,
          "internalType": "address",
          "name": "owner",
          "type": "address"
        },
        {
          "indexed": false,
          "internalType": "uint256",
          "name": "amount",
          "type": "uint256"
        }
      ],
      "name": "OwnerWithdrawed",
      "type": "event"
    },
    {
      "anonymous": false,
      "inputs": [
        {
          "indexed": false,
          "internalType": "address",
          "name": "datatoken",
          "type": "address"
        }
      ],
      "name": "Terminated",
      "type": "event"
    },
    {
      "anonymous": false,
      "inputs": [
        {
          "indexed": true,
          "internalType": "address",
          "name": "datatokenAddress",
          "type": "address"
        },
        {
          "indexed": true,
          "internalType": "address",
          "name": "userAddress",
          "type": "address"
        },
        {
          "indexed": false,
          "internalType": "uint256",
          "name": "amount",
          "type": "uint256"
        }
      ],
      "name": "TokensDispensed",
      "type": "event"
    },
    {
      "inputs": [
        {
          "internalType": "address",
          "name": "datatoken",
          "type": "address"
        },
        {
          "internalType": "uint256",
          "name": "maxTokens",
          "type": "uint256"
        },
        {
          "internalType": "uint256",
          "name": "maxBalance",
          "type": "uint256"
        }
      ],
      "name": "activate",
      "outputs": [],
      "stateMutability": "nonpayable",
      "type": "function"
    },
    {
      "inputs": [
        {
          "internalType": "address",
          "name": "datatoken",
          "type": "address"
        },
        {
          "internalType": "uint256",
          "name": "maxTokens",
          "type": "uint256"
        },
        {
          "internalType": "uint256",
          "name": "maxBalance",
          "type": "uint256"
        },
        {
          "internalType": "address",
          "name": "owner",
          "type": "address"
        },
        {
          "internalType": "address",
          "name": "allowedSwapper",
          "type": "address"
        }
      ],
      "name": "create",
      "outputs": [],
      "stateMutability": "nonpayable",
      "type": "function"
    },
    {
      "inputs": [
        {
          "internalType": "uint256",
          "name": "",
          "type": "uint256"
        }
      ],
      "name": "datatokensList",
      "outputs": [
        {
          "internalType": "address",
          "name": "",
          "type": "address"
        }
      ],
      "stateMutability": "view",
      "type": "function"
    },
    {
      "inputs": [
        {
          "internalType": "address",
          "name": "datatoken",
          "type": "address"
        }
      ],
      "name": "deactivate",
      "outputs": [],
      "stateMutability": "nonpayable",
      "type": "function"
    },
    {
      "inputs": [
        {
          "internalType": "address",
          "name": "datatoken",
          "type": "address"
        },
        {
          "internalType": "uint256",
          "name": "amount",
          "type": "uint256"
        },
        {
          "internalType": "address",
          "name": "destination",
          "type": "address"
        }
      ],
      "name": "dispense",
      "outputs": [],
      "stateMutability": "payable",
      "type": "function"
    },
    {
      "inputs": [],
      "name": "getId",
      "outputs": [
        {
          "internalType": "uint8",
          "name": "",
          "type": "uint8"
        }
      ],
      "stateMutability": "pure",
      "type": "function"
    },
    {
      "inputs": [
        {
          "internalType": "address",
          "name": "datatoken",
          "type": "address"
        }
      ],
      "name": "ownerWithdraw",
      "outputs": [],
      "stateMutability": "nonpayable",
      "type": "function"
    },
    {
      "inputs": [],
      "name": "router",
      "outputs": [
        {
          "internalType": "address",
          "name": "",
          "type": "address"
        }
      ],
      "stateMutability": "view",
      "type": "function"
    },
    {
      "inputs": [
        {
          "internalType": "address",
          "name": "datatoken",
          "type": "address"
        },
        {
          "internalType": "address",
          "name": "newAllowedSwapper",
          "type": "address"
        }
      ],
      "name": "setAllowedSwapper",
      "outputs": [],
      "stateMutability": "nonpayable",
      "type": "function"
    },
    {
      "inputs": [
        {
          "internalType": "address",
          "name": "datatoken",
          "type": "address"
        }
      ],
      "name": "status",
      "outputs": [
        {
          "internalType": "bool",
          "name": "active",
          "type": "bool"
        },
        {
          "internalType": "address",
          "name": "owner",
          "type": "address"
        },
        {
          "internalType": "bool",
          "name": "isMinter",
          "type": "bool"
        },
        {
          "internalType": "uint256",
          "name": "maxTokens",
          "type": "uint256"
        },
        {
          "internalType": "uint256",
          "name": "maxBalance",
          "type": "uint256"
        },
        {
          "internalType": "uint256",
          "name": "balance",
          "type": "uint256"
        },
        {
          "internalType": "address",
          "name": "allowedSwapper",
          "type": "address"
        }
      ],
      "stateMutability": "view",
      "type": "function"
    },
    {
      "inputs": [
        {
          "internalType": "address",
          "name": "datatoken",
          "type": "address"
        }
      ],
      "name": "terminateDispenser",
      "outputs": [],
      "stateMutability": "nonpayable",
      "type": "function"
    }
  ],
  "bytecode": "0x608060405234801561001057600080fd5b5060405161192938038061192983398101604081905261002f916100b3565b60016000556001600160a01b03811661008e5760405162461bcd60e51b815260206004820152601f60248201527f44697370656e7365723a2057726f6e6720526f75746572206164647265737300604482015260640160405180910390fd5b600180546001600160a01b0319166001600160a01b03929092169190911790556100e3565b6000602082840312156100c557600080fd5b81516001600160a01b03811681146100dc57600080fd5b9392505050565b611837806100f26000396000f3fe60806040526004361061009c5760003560e01c806345d6646b1161006457806345d6646b146101535780635d1ca63114610173578063645b8b1b1461018f578063938d71d0146101f2578063f887ea4014610212578063f9bfaa7d1461023257600080fd5b80631d746d83146100a157806324ce2917146100b65780633398086a146100d65780633a146782146101135780633ea053eb14610133575b600080fd5b6100b46100af36600461156f565b610252565b005b3480156100c257600080fd5b506100b46100d13660046115ab565b6107d0565b3480156100e257600080fd5b506100f66100f1366004611602565b610a03565b6040516001600160a01b0390911681526020015b60405180910390f35b34801561011f57600080fd5b506100b461012e36600461161b565b610a2d565b34801561013f57600080fd5b506100b461014e36600461161b565b610c72565b34801561015f57600080fd5b506100b461016e366004611636565b610d4f565b34801561017f57600080fd5b506040516001815260200161010a565b34801561019b57600080fd5b506101af6101aa36600461161b565b610e3d565b6040805197151588526001600160a01b039687166020890152941515948701949094526060860192909252608085015260a08401521660c082015260e00161010a565b3480156101fe57600080fd5b506100b461020d366004611669565b610fa6565b34801561021e57600080fd5b506001546100f6906001600160a01b031681565b34801561023e57600080fd5b506100b461024d36600461161b565b6110c6565b600260005414156102aa5760405162461bcd60e51b815260206004820152601f60248201527f5265656e7472616e637947756172643a207265656e7472616e742063616c6c0060448201526064015b60405180910390fd5b60026000556001600160a01b0383166102d55760405162461bcd60e51b81526004016102a19061169c565b6001600160a01b03831660009081526002602052604090205460ff166103345760405162461bcd60e51b815260206004820152601460248201527344697370656e736572206e6f742061637469766560601b60448201526064016102a1565b6000821161037a5760405162461bcd60e51b8152602060048201526013602482015272125b9d985b1a59081e995c9bc8185b5bdd5b9d606a1b60448201526064016102a1565b6001600160a01b0383166000908152600260205260409020600101548211156103d75760405162461bcd60e51b815260206004820152600f60248201526e082dadeeadce840e8dede40d0d2ced608b1b60448201526064016102a1565b6001600160a01b038381166000908152600260205260409020600301541615610478576001600160a01b038381166000908152600260205260409020600301541633146104785760405162461bcd60e51b815260206004820152602960248201527f546869732061646472657373206973206e6f7420616c6c6f77656420746f2072604482015268195c5d595cdd08111560ba1b60648201526084016102a1565b6040516370a0823160e01b81526001600160a01b03828116600483015284916000918316906370a0823190602401602060405180830381865afa1580156104c3573d6000803e3d6000fd5b505050506040513d601f19601f820116820180604052508101906104e791906116d3565b6001600160a01b0386166000908152600260208190526040909120015490915081106105555760405162461bcd60e51b815260206004820152601760248201527f43616c6c65722062616c616e636520746f6f206869676800000000000000000060448201526064016102a1565b6040516370a0823160e01b81523060048201526000906001600160a01b038416906370a0823190602401602060405180830381865afa15801561059c573d6000803e3d6000fd5b505050506040513d601f19601f820116820180604052508101906105c091906116d3565b9050848110801561063457506040516355138f0d60e11b81523060048201526001600160a01b0384169063aa271e1a90602401602060405180830381865afa158015610610573d6000803e3d6000fd5b505050506040513d601f19601f8201168201806040525081019061063491906116ec565b1561071c576001600160a01b0383166340c10f19306106538489611724565b6040516001600160e01b031960e085901b1681526001600160a01b0390921660048301526024820152604401600060405180830381600087803b15801561069957600080fd5b505af11580156106ad573d6000803e3d6000fd5b50506040516370a0823160e01b81523060048201526001600160a01b03861692506370a082319150602401602060405180830381865afa1580156106f5573d6000803e3d6000fd5b505050506040513d601f19601f8201168201806040525081019061071991906116d3565b90505b848110156107625760405162461bcd60e51b81526020600482015260136024820152724e6f7420656e6f75676820726573657276657360681b60448201526064016102a1565b6107766001600160a01b03871685876111b3565b836001600160a01b0316866001600160a01b03167f63e223ff524bd93d4cbff98ef34405b39f63ded87f5a8d85e39ccda966f13543876040516107bb91815260200190565b60405180910390a35050600160005550505050565b6001546001600160a01b031633146108235760405162461bcd60e51b81526020600482015260166024820152752234b9b832b739b2b91d1037b7363c903937baba32b960511b60448201526064016102a1565b6001600160a01b0385166108495760405162461bcd60e51b81526004016102a19061169c565b6001600160a01b03858116600090815260026020526040902054610100900416158061089657506001600160a01b0385811660009081526002602052604090205461010090048116908316145b6108e25760405162461bcd60e51b815260206004820152601960248201527f44617461746f6b656e20616c726561647920637265617465640000000000000060448201526064016102a1565b6001600160a01b038581166000818152600260208181526040808420805489881661010081026001600160a81b031990921691909117600190811783558083018d90559482018b905560039182018054988a166001600160a01b0319998a16811790915582549586018355919095527fc2575a0e9e593c00f959f8c92f12db2869c3395a3b0502d05e2516446f71f85b90930180549096168517909555845189815290810188905293840152917f7d0aa581e6eb87e15f58588ff20c39ff6622fc796ec9bb664df6ed3eb02442c99060600160405180910390a3806001600160a01b0316856001600160a01b03167fac5c7317d52e88de62aff4ba6869a4882a4556557b761158934d2fd32a8b2ca560405160405180910390a35050505050565b60038181548110610a1357600080fd5b6000918252602090912001546001600160a01b0316905081565b6001600160a01b038116331415610c6f576001600160a01b0381811660009081526002602052604090205461010090041615610c6f576040516355138f0d60e11b81523060048201526001600160a01b0382169063aa271e1a90602401602060405180830381865afa158015610aa7573d6000803e3d6000fd5b505050506040513d601f19601f82011682018060405250810190610acb91906116ec565b15610c6f57610ad98161120a565b6001600160a01b0381166000908152600260208190526040822080546001600160a81b03191681556001810183905590810182905560030180546001600160a01b03191690555b600354811015610b7957816001600160a01b031660038281548110610b4757610b4761173b565b6000918252602090912001546001600160a01b03161415610b6757610b79565b80610b7181611751565b915050610b20565b600354811015610c315760038054610b9390600190611724565b81548110610ba357610ba361173b565b600091825260209091200154600380546001600160a01b039092169183908110610bcf57610bcf61173b565b9060005260206000200160006101000a8154816001600160a01b0302191690836001600160a01b031602179055506003805480610c0e57610c0e61176c565b600082815260209020810160001990810180546001600160a01b03191690550190555b6040516001600160a01b03831681527f98cd97fc1a1cc958cbd729b1bb531d4f3ea4925470bf23ea9af386640cbd07be9060200160405180910390a1505b50565b6001600160a01b038116610c985760405162461bcd60e51b81526004016102a19061169c565b6001600160a01b038181166000908152600260205260409020546101009004163314610d065760405162461bcd60e51b815260206004820152601b60248201527f44617461746f6b656e20616c726561647920616374697661746564000000000060448201526064016102a1565b6001600160a01b038116600081815260026020526040808220805460ff19169055517f393f01061139648745ea000bb047bbe1785bd3a19d3a9c90f6747e1d2357d2b89190a250565b6001600160a01b038216610d755760405162461bcd60e51b81526004016102a19061169c565b6001600160a01b038281166000908152600260205260409020546101009004163314610de35760405162461bcd60e51b815260206004820152601b60248201527f44617461546f6b656e20616c726561647920616374697661746564000000000060448201526064016102a1565b6001600160a01b0382811660008181526002602052604080822060030180546001600160a01b0319169486169485179055517fac5c7317d52e88de62aff4ba6869a4882a4556557b761158934d2fd32a8b2ca59190a35050565b60008080808080806001600160a01b038816610e6b5760405162461bcd60e51b81526004016102a19061169c565b6001600160a01b0388811660008181526002602081905260409182902080546001820154919092015492516370a0823160e01b815230600482015260ff83169c506101009092049094169950929650945089916370a0823190602401602060405180830381865afa158015610ee4573d6000803e3d6000fd5b505050506040513d601f19601f82011682018060405250810190610f0891906116d3565b6040516355138f0d60e11b81523060048201529093506001600160a01b0382169063aa271e1a90602401602060405180830381865afa158015610f4f573d6000803e3d6000fd5b505050506040513d601f19601f82011682018060405250810190610f7391906116ec565b6001600160a01b03998a16600090815260026020526040902060030154989a979990989597949650929490921692915050565b6001600160a01b038316610fcc5760405162461bcd60e51b81526004016102a19061169c565b6001600160a01b03838116600090815260026020526040902054610100900416331461102a5760405162461bcd60e51b815260206004820152600d60248201526c24b73b30b634b21037bbb732b960991b60448201526064016102a1565b6001600160a01b0383166000818152600260208190526040808320805460ff191660019081178255818101889055920185905560038054928301815583527fc2575a0e9e593c00f959f8c92f12db2869c3395a3b0502d05e2516446f71f85b90910180546001600160a01b03191684179055517fe9372084cb52c5392afee4b9d79d131e04b1e65676088d50a8f39fffb16a87459190a2505050565b600260005414156111195760405162461bcd60e51b815260206004820152601f60248201527f5265656e7472616e637947756172643a207265656e7472616e742063616c6c0060448201526064016102a1565b60026000556001600160a01b0381166111445760405162461bcd60e51b81526004016102a19061169c565b6001600160a01b0381811660009081526002602052604090205461010090041633146111a25760405162461bcd60e51b815260206004820152600d60248201526c24b73b30b634b21037bbb732b960991b60448201526064016102a1565b6111ab8161120a565b506001600055565b604080516001600160a01b038416602482015260448082018490528251808303909101815260649091019091526020810180516001600160e01b031663a9059cbb60e01b179052611205908490611307565b505050565b6040516370a0823160e01b815230600482015281906000906001600160a01b038316906370a0823190602401602060405180830381865afa158015611253573d6000803e3d6000fd5b505050506040513d601f19601f8201168201806040525081019061127791906116d3565b90508015611205576001600160a01b038084166000818152600260205260409020546112aa9261010090910416836111b3565b6001600160a01b03838116600081815260026020908152604091829020549151858152610100909204909316927f03185212530fcdce6b38fbf62ed27ab29b1b047f59b76b17401388a70a95f41b910160405180910390a3505050565b600061135c826040518060400160405280602081526020017f5361666545524332303a206c6f772d6c6576656c2063616c6c206661696c6564815250856001600160a01b03166113d99092919063ffffffff16565b805190915015611205578080602001905181019061137a91906116ec565b6112055760405162461bcd60e51b815260206004820152602a60248201527f5361666545524332303a204552433230206f7065726174696f6e20646964206e6044820152691bdd081cdd58d8d9595960b21b60648201526084016102a1565b60606113e884846000856113f2565b90505b9392505050565b6060824710156114535760405162461bcd60e51b815260206004820152602660248201527f416464726573733a20696e73756666696369656e742062616c616e636520666f6044820152651c8818d85b1b60d21b60648201526084016102a1565b843b6114a15760405162461bcd60e51b815260206004820152601d60248201527f416464726573733a2063616c6c20746f206e6f6e2d636f6e747261637400000060448201526064016102a1565b600080866001600160a01b031685876040516114bd91906117b2565b60006040518083038185875af1925050503d80600081146114fa576040519150601f19603f3d011682016040523d82523d6000602084013e6114ff565b606091505b509150915061150f82828661151a565b979650505050505050565b606083156115295750816113eb565b8251156115395782518084602001fd5b8160405162461bcd60e51b81526004016102a191906117ce565b80356001600160a01b038116811461156a57600080fd5b919050565b60008060006060848603121561158457600080fd5b61158d84611553565b9250602084013591506115a260408501611553565b90509250925092565b600080600080600060a086880312156115c357600080fd5b6115cc86611553565b945060208601359350604086013592506115e860608701611553565b91506115f660808701611553565b90509295509295909350565b60006020828403121561161457600080fd5b5035919050565b60006020828403121561162d57600080fd5b6113eb82611553565b6000806040838503121561164957600080fd5b61165283611553565b915061166060208401611553565b90509250929050565b60008060006060848603121561167e57600080fd5b61168784611553565b95602085013595506040909401359392505050565b6020808252601e908201527f496e76616c696420746f6b656e20636f6e747261637420616464726573730000604082015260600190565b6000602082840312156116e557600080fd5b5051919050565b6000602082840312156116fe57600080fd5b815180151581146113eb57600080fd5b634e487b7160e01b600052601160045260246000fd5b6000828210156117365761173661170e565b500390565b634e487b7160e01b600052603260045260246000fd5b60006000198214156117655761176561170e565b5060010190565b634e487b7160e01b600052603160045260246000fd5b60005b8381101561179d578181015183820152602001611785565b838111156117ac576000848401525b50505050565b600082516117c4818460208701611782565b9190910192915050565b60208152600082518060208401526117ed816040850160208701611782565b601f01601f1916919091016040019291505056fea2646970667358221220061ecc3ed52ecd559d95dc643a9ae850c11d0a843eeca66064b5036cc8e2465364736f6c634300080c0033",
  "linkReferences": {},
  "deployedLinkReferences": {}
}