{
  "_format": "hh-sol-artifact-1",
  "contractName": "Dispenser",
  "sourceName": "contracts/pools/dispenser/Dispenser.sol",
  "abi": [
    {
      "inputs": [
        {
          "internalType": "address",
          "name": "_router",
          "type": "address"
        }
      ],
      "stateMutability": "nonpayable",
      "type": "constructor"
    },
    {
      "anonymous": false,
      "inputs": [
        {
          "indexed": true,
          "internalType": "address",
          "name": "datatokenAddress",
          "type": "address"
        }
      ],
      "name": "DispenserActivated",
      "type": "event"
    },
    {
      "anonymous": false,
      "inputs": [
        {
          "indexed": true,
          "internalType": "address",
          "name": "datatoken",
          "type": "address"
        },
        {
          "indexed": true,
          "internalType": "address",
          "name": "newAllowedSwapper",
          "type": "address"
        }
      ],
      "name": "DispenserAllowedSwapperChanged",
      "type": "event"
    },
    {
      "anonymous": false,
      "inputs": [
        {
          "indexed": true,
          "internalType": "address",
          "name": "datatokenAddress",
          "type": "address"
        },
        {
          "indexed": true,
          "internalType": "address",
          "name": "owner",
          "type": "address"
        },
        {
          "indexed": false,
          "internalType": "uint256",
          "name": "maxTokens",
          "type": "uint256"
        },
        {
          "indexed": false,
          "internalType": "uint256",
          "name": "maxBalance",
          "type": "uint256"
        },
        {
          "indexed": false,
          "internalType": "address",
          "name": "allowedSwapper",
          "type": "address"
        }
      ],
      "name": "DispenserCreated",
      "type": "event"
    },
    {
      "anonymous": false,
      "inputs": [
        {
          "indexed": true,
          "internalType": "address",
          "name": "datatokenAddress",
          "type": "address"
        }
      ],
      "name": "DispenserDeactivated",
      "type": "event"
    },
    {
      "anonymous": false,
      "inputs": [
        {
          "indexed": true,
          "internalType": "address",
          "name": "datatoken",
          "type": "address"
        },
        {
          "indexed": true,
          "internalType": "address",
          "name": "owner",
          "type": "address"
        },
        {
          "indexed": false,
          "internalType": "uint256",
          "name": "amount",
          "type": "uint256"
        }
      ],
      "name": "OwnerWithdrawed",
      "type": "event"
    },
    {
      "anonymous": false,
      "inputs": [
        {
          "indexed": true,
          "internalType": "address",
          "name": "datatokenAddress",
          "type": "address"
        },
        {
          "indexed": true,
          "internalType": "address",
          "name": "userAddress",
          "type": "address"
        },
        {
          "indexed": false,
          "internalType": "uint256",
          "name": "amount",
          "type": "uint256"
        }
      ],
      "name": "TokensDispensed",
      "type": "event"
    },
    {
      "inputs": [
        {
          "internalType": "address",
          "name": "datatoken",
          "type": "address"
        },
        {
          "internalType": "uint256",
          "name": "maxTokens",
          "type": "uint256"
        },
        {
          "internalType": "uint256",
          "name": "maxBalance",
          "type": "uint256"
        }
      ],
      "name": "activate",
      "outputs": [],
      "stateMutability": "nonpayable",
      "type": "function"
    },
    {
      "inputs": [
        {
          "internalType": "address",
          "name": "datatoken",
          "type": "address"
        },
        {
          "internalType": "uint256",
          "name": "maxTokens",
          "type": "uint256"
        },
        {
          "internalType": "uint256",
          "name": "maxBalance",
          "type": "uint256"
        },
        {
          "internalType": "address",
          "name": "owner",
          "type": "address"
        },
        {
          "internalType": "address",
          "name": "allowedSwapper",
          "type": "address"
        }
      ],
      "name": "create",
      "outputs": [],
      "stateMutability": "nonpayable",
      "type": "function"
    },
    {
      "inputs": [
        {
          "internalType": "uint256",
          "name": "",
          "type": "uint256"
        }
      ],
      "name": "datatokensList",
      "outputs": [
        {
          "internalType": "address",
          "name": "",
          "type": "address"
        }
      ],
      "stateMutability": "view",
      "type": "function"
    },
    {
      "inputs": [
        {
          "internalType": "address",
          "name": "datatoken",
          "type": "address"
        }
      ],
      "name": "deactivate",
      "outputs": [],
      "stateMutability": "nonpayable",
      "type": "function"
    },
    {
      "inputs": [
        {
          "internalType": "address",
          "name": "datatoken",
          "type": "address"
        },
        {
          "internalType": "uint256",
          "name": "amount",
          "type": "uint256"
        },
        {
          "internalType": "address",
          "name": "destination",
          "type": "address"
        }
      ],
      "name": "dispense",
      "outputs": [],
      "stateMutability": "payable",
      "type": "function"
    },
    {
      "inputs": [],
      "name": "getId",
      "outputs": [
        {
          "internalType": "uint8",
          "name": "",
          "type": "uint8"
        }
      ],
      "stateMutability": "pure",
      "type": "function"
    },
    {
      "inputs": [
        {
          "internalType": "address",
          "name": "datatoken",
          "type": "address"
        }
      ],
      "name": "ownerWithdraw",
      "outputs": [],
      "stateMutability": "nonpayable",
      "type": "function"
    },
    {
      "inputs": [],
      "name": "router",
      "outputs": [
        {
          "internalType": "address",
          "name": "",
          "type": "address"
        }
      ],
      "stateMutability": "view",
      "type": "function"
    },
    {
      "inputs": [
        {
          "internalType": "address",
          "name": "datatoken",
          "type": "address"
        },
        {
          "internalType": "address",
          "name": "newAllowedSwapper",
          "type": "address"
        }
      ],
      "name": "setAllowedSwapper",
      "outputs": [],
      "stateMutability": "nonpayable",
      "type": "function"
    },
    {
      "inputs": [
        {
          "internalType": "address",
          "name": "datatoken",
          "type": "address"
        }
      ],
      "name": "status",
      "outputs": [
        {
          "internalType": "bool",
          "name": "active",
          "type": "bool"
        },
        {
          "internalType": "address",
          "name": "owner",
          "type": "address"
        },
        {
          "internalType": "bool",
          "name": "isMinter",
          "type": "bool"
        },
        {
          "internalType": "uint256",
          "name": "maxTokens",
          "type": "uint256"
        },
        {
          "internalType": "uint256",
          "name": "maxBalance",
          "type": "uint256"
        },
        {
          "internalType": "uint256",
          "name": "balance",
          "type": "uint256"
        },
        {
          "internalType": "address",
          "name": "allowedSwapper",
          "type": "address"
        }
      ],
      "stateMutability": "view",
      "type": "function"
    }
  ],
  "bytecode": "0x608060405234801561001057600080fd5b50604051611b26380380611b2683398101604081905261002f916100b3565b60016000556001600160a01b03811661008e5760405162461bcd60e51b815260206004820152601f60248201527f44697370656e7365723a2057726f6e6720526f75746572206164647265737300604482015260640160405180910390fd5b600180546001600160a01b0319166001600160a01b03929092169190911790556100e3565b6000602082840312156100c557600080fd5b81516001600160a01b03811681146100dc57600080fd5b9392505050565b611a34806100f26000396000f3fe6080604052600436106100915760003560e01c80635d1ca631116100595780635d1ca63114610148578063645b8b1b14610164578063938d71d0146101c7578063f887ea40146101e7578063f9bfaa7d1461020757600080fd5b80631d746d831461009657806324ce2917146100ab5780633398086a146100cb5780633ea053eb1461010857806345d6646b14610128575b600080fd5b6100a96100a4366004611763565b610227565b005b3480156100b757600080fd5b506100a96100c63660046117a5565b61075e565b3480156100d757600080fd5b506100eb6100e6366004611804565b610991565b6040516001600160a01b0390911681526020015b60405180910390f35b34801561011457600080fd5b506100a961012336600461181d565b6109bb565b34801561013457600080fd5b506100a961014336600461183a565b610b9a565b34801561015457600080fd5b50604051600181526020016100ff565b34801561017057600080fd5b5061018461017f36600461181d565b610d8a565b6040805197151588526001600160a01b039687166020890152941515948701949094526060860192909252608085015260a08401521660c082015260e0016100ff565b3480156101d357600080fd5b506100a96101e2366004611873565b610ef3565b3480156101f357600080fd5b506001546100eb906001600160a01b031681565b34801561021357600080fd5b506100a961022236600461181d565b611125565b61022f61130d565b6001600160a01b03831661025e5760405162461bcd60e51b8152600401610255906118a8565b60405180910390fd5b6001600160a01b03831660009081526002602052604090205460ff166102bd5760405162461bcd60e51b815260206004820152601460248201527344697370656e736572206e6f742061637469766560601b6044820152606401610255565b600082116103035760405162461bcd60e51b8152602060048201526013602482015272125b9d985b1a59081e995c9bc8185b5bdd5b9d606a1b6044820152606401610255565b6001600160a01b0383166000908152600260205260409020600101548211156103605760405162461bcd60e51b815260206004820152600f60248201526e082dadeeadce840e8dede40d0d2ced608b1b6044820152606401610255565b6001600160a01b038381166000908152600260205260409020600301541615610401576001600160a01b038381166000908152600260205260409020600301541633146104015760405162461bcd60e51b815260206004820152602960248201527f546869732061646472657373206973206e6f7420616c6c6f77656420746f2072604482015268195c5d595cdd08111560ba1b6064820152608401610255565b6040516370a0823160e01b81526001600160a01b03828116600483015284916000918316906370a0823190602401602060405180830381865afa15801561044c573d6000803e3d6000fd5b505050506040513d601f19601f8201168201806040525081019061047091906118df565b6001600160a01b0386166000908152600260208190526040909120015490915081106104de5760405162461bcd60e51b815260206004820152601760248201527f43616c6c65722062616c616e636520746f6f20686967680000000000000000006044820152606401610255565b6040516370a0823160e01b81523060048201526000906001600160a01b038416906370a0823190602401602060405180830381865afa158015610525573d6000803e3d6000fd5b505050506040513d601f19601f8201168201806040525081019061054991906118df565b905084811080156105bd57506040516355138f0d60e11b81523060048201526001600160a01b0384169063aa271e1a90602401602060405180830381865afa158015610599573d6000803e3d6000fd5b505050506040513d601f19601f820116820180604052508101906105bd91906118f8565b156106a5576001600160a01b0383166340c10f19306105dc848961191a565b6040516001600160e01b031960e085901b1681526001600160a01b0390921660048301526024820152604401600060405180830381600087803b15801561062257600080fd5b505af1158015610636573d6000803e3d6000fd5b50506040516370a0823160e01b81523060048201526001600160a01b03861692506370a082319150602401602060405180830381865afa15801561067e573d6000803e3d6000fd5b505050506040513d601f19601f820116820180604052508101906106a291906118df565b90505b848110156106eb5760405162461bcd60e51b81526020600482015260136024820152724e6f7420656e6f75676820726573657276657360681b6044820152606401610255565b836001600160a01b0316866001600160a01b03167f63e223ff524bd93d4cbff98ef34405b39f63ded87f5a8d85e39ccda966f135438760405161073091815260200190565b60405180910390a361074c6001600160a01b0387168587611367565b5050506107596001600055565b505050565b6001546001600160a01b031633146107b15760405162461bcd60e51b81526020600482015260166024820152752234b9b832b739b2b91d1037b7363c903937baba32b960511b6044820152606401610255565b6001600160a01b0385166107d75760405162461bcd60e51b8152600401610255906118a8565b6001600160a01b03858116600090815260026020526040902054610100900416158061082457506001600160a01b0385811660009081526002602052604090205461010090048116908316145b6108705760405162461bcd60e51b815260206004820152601960248201527f44617461746f6b656e20616c72656164792063726561746564000000000000006044820152606401610255565b6001600160a01b038581166000818152600260208181526040808420805489881661010081026001600160a81b031990921691909117600190811783558083018d90559482018b905560039182018054988a166001600160a01b0319998a16811790915582549586018355919095527fc2575a0e9e593c00f959f8c92f12db2869c3395a3b0502d05e2516446f71f85b90930180549096168517909555845189815290810188905293840152917f7d0aa581e6eb87e15f58588ff20c39ff6622fc796ec9bb664df6ed3eb02442c99060600160405180910390a3806001600160a01b0316856001600160a01b03167fac5c7317d52e88de62aff4ba6869a4882a4556557b761158934d2fd32a8b2ca560405160405180910390a35050505050565b600381815481106109a157600080fd5b6000918252602090912001546001600160a01b0316905081565b806001600160a01b0381166109e25760405162461bcd60e51b8152600401610255906118a8565b6040516396fb3eaf60e01b815233600482015281906001600160a01b038216906396fb3eaf90602401602060405180830381865afa158015610a28573d6000803e3d6000fd5b505050506040513d601f19601f82011682018060405250810190610a4c91906118f8565b80610b335750336001600160a01b0316816001600160a01b0316627ffb786040518163ffffffff1660e01b8152600401602060405180830381865afa158015610a99573d6000803e3d6000fd5b505050506040513d601f19601f82011682018060405250810190610abd919061193f565b6040516331a9108f60e11b8152600160048201526001600160a01b039190911690636352211e90602401602060405180830381865afa158015610b04573d6000803e3d6000fd5b505050506040513d601f19601f82011682018060405250810190610b28919061193f565b6001600160a01b0316145b610b4f5760405162461bcd60e51b81526004016102559061195c565b6001600160a01b038316600081815260026020526040808220805460ff19169055517f393f01061139648745ea000bb047bbe1785bd3a19d3a9c90f6747e1d2357d2b89190a2505050565b816001600160a01b038116610bc15760405162461bcd60e51b8152600401610255906118a8565b6040516396fb3eaf60e01b815233600482015281906001600160a01b038216906396fb3eaf90602401602060405180830381865afa158015610c07573d6000803e3d6000fd5b505050506040513d601f19601f82011682018060405250810190610c2b91906118f8565b80610d125750336001600160a01b0316816001600160a01b0316627ffb786040518163ffffffff1660e01b8152600401602060405180830381865afa158015610c78573d6000803e3d6000fd5b505050506040513d601f19601f82011682018060405250810190610c9c919061193f565b6040516331a9108f60e11b8152600160048201526001600160a01b039190911690636352211e90602401602060405180830381865afa158015610ce3573d6000803e3d6000fd5b505050506040513d601f19601f82011682018060405250810190610d07919061193f565b6001600160a01b0316145b610d2e5760405162461bcd60e51b81526004016102559061195c565b6001600160a01b0384811660008181526002602052604080822060030180546001600160a01b0319169488169485179055517fac5c7317d52e88de62aff4ba6869a4882a4556557b761158934d2fd32a8b2ca59190a350505050565b60008080808080806001600160a01b038816610db85760405162461bcd60e51b8152600401610255906118a8565b6001600160a01b0388811660008181526002602081905260409182902080546001820154919092015492516370a0823160e01b815230600482015260ff83169c506101009092049094169950929650945089916370a0823190602401602060405180830381865afa158015610e31573d6000803e3d6000fd5b505050506040513d601f19601f82011682018060405250810190610e5591906118df565b6040516355138f0d60e11b81523060048201529093506001600160a01b0382169063aa271e1a90602401602060405180830381865afa158015610e9c573d6000803e3d6000fd5b505050506040513d601f19601f82011682018060405250810190610ec091906118f8565b6001600160a01b03998a16600090815260026020526040902060030154989a979990989597949650929490921692915050565b826001600160a01b038116610f1a5760405162461bcd60e51b8152600401610255906118a8565b6040516396fb3eaf60e01b815233600482015281906001600160a01b038216906396fb3eaf90602401602060405180830381865afa158015610f60573d6000803e3d6000fd5b505050506040513d601f19601f82011682018060405250810190610f8491906118f8565b8061106b5750336001600160a01b0316816001600160a01b0316627ffb786040518163ffffffff1660e01b8152600401602060405180830381865afa158015610fd1573d6000803e3d6000fd5b505050506040513d601f19601f82011682018060405250810190610ff5919061193f565b6040516331a9108f60e11b8152600160048201526001600160a01b039190911690636352211e90602401602060405180830381865afa15801561103c573d6000803e3d6000fd5b505050506040513d601f19601f82011682018060405250810190611060919061193f565b6001600160a01b0316145b6110875760405162461bcd60e51b81526004016102559061195c565b6001600160a01b0385166000818152600260208190526040808320805460ff1916600190811782558181018a9055920187905560038054928301815583527fc2575a0e9e593c00f959f8c92f12db2869c3395a3b0502d05e2516446f71f85b90910180546001600160a01b03191684179055517fe9372084cb52c5392afee4b9d79d131e04b1e65676088d50a8f39fffb16a87459190a25050505050565b806001600160a01b03811661114c5760405162461bcd60e51b8152600401610255906118a8565b6040516396fb3eaf60e01b815233600482015281906001600160a01b038216906396fb3eaf90602401602060405180830381865afa158015611192573d6000803e3d6000fd5b505050506040513d601f19601f820116820180604052508101906111b691906118f8565b8061129d5750336001600160a01b0316816001600160a01b0316627ffb786040518163ffffffff1660e01b8152600401602060405180830381865afa158015611203573d6000803e3d6000fd5b505050506040513d601f19601f82011682018060405250810190611227919061193f565b6040516331a9108f60e11b8152600160048201526001600160a01b039190911690636352211e90602401602060405180830381865afa15801561126e573d6000803e3d6000fd5b505050506040513d601f19601f82011682018060405250810190611292919061193f565b6001600160a01b0316145b806112b057506001600160a01b03821633145b6112cc5760405162461bcd60e51b81526004016102559061195c565b6112d461130d565b6001600160a01b0383166112fa5760405162461bcd60e51b8152600401610255906118a8565b611303836113b9565b6107596001600055565b600260005414156113605760405162461bcd60e51b815260206004820152601f60248201527f5265656e7472616e637947756172643a207265656e7472616e742063616c6c006044820152606401610255565b6002600055565b604080516001600160a01b038416602482015260448082018490528251808303909101815260649091019091526020810180516001600160e01b031663a9059cbb60e01b1790526107599084906114ff565b60008190506000816001600160a01b031663e487c2e86040518163ffffffff1660e01b8152600401602060405180830381865afa1580156113fe573d6000803e3d6000fd5b505050506040513d601f19601f82011682018060405250810190611422919061193f565b6040516370a0823160e01b81523060048201529091506000906001600160a01b038416906370a0823190602401602060405180830381865afa15801561146c573d6000803e3d6000fd5b505050506040513d601f19601f8201168201806040525081019061149091906118df565b905080156114f957816001600160a01b0316846001600160a01b03167f03185212530fcdce6b38fbf62ed27ab29b1b047f59b76b17401388a70a95f41b836040516114dd91815260200190565b60405180910390a36114f96001600160a01b0385168383611367565b50505050565b6000611554826040518060400160405280602081526020017f5361666545524332303a206c6f772d6c6576656c2063616c6c206661696c6564815250856001600160a01b03166115d19092919063ffffffff16565b805190915015610759578080602001905181019061157291906118f8565b6107595760405162461bcd60e51b815260206004820152602a60248201527f5361666545524332303a204552433230206f7065726174696f6e20646964206e6044820152691bdd081cdd58d8d9595960b21b6064820152608401610255565b60606115e084846000856115ea565b90505b9392505050565b60608247101561164b5760405162461bcd60e51b815260206004820152602660248201527f416464726573733a20696e73756666696369656e742062616c616e636520666f6044820152651c8818d85b1b60d21b6064820152608401610255565b843b6116995760405162461bcd60e51b815260206004820152601d60248201527f416464726573733a2063616c6c20746f206e6f6e2d636f6e74726163740000006044820152606401610255565b600080866001600160a01b031685876040516116b591906119af565b60006040518083038185875af1925050503d80600081146116f2576040519150601f19603f3d011682016040523d82523d6000602084013e6116f7565b606091505b5091509150611707828286611712565b979650505050505050565b606083156117215750816115e3565b8251156117315782518084602001fd5b8160405162461bcd60e51b815260040161025591906119cb565b6001600160a01b038116811461176057600080fd5b50565b60008060006060848603121561177857600080fd5b83356117838161174b565b925060208401359150604084013561179a8161174b565b809150509250925092565b600080600080600060a086880312156117bd57600080fd5b85356117c88161174b565b9450602086013593506040860135925060608601356117e68161174b565b915060808601356117f68161174b565b809150509295509295909350565b60006020828403121561181657600080fd5b5035919050565b60006020828403121561182f57600080fd5b81356115e38161174b565b6000806040838503121561184d57600080fd5b82356118588161174b565b915060208301356118688161174b565b809150509250929050565b60008060006060848603121561188857600080fd5b83356118938161174b565b95602085013595506040909401359392505050565b6020808252601e908201527f496e76616c696420746f6b656e20636f6e747261637420616464726573730000604082015260600190565b6000602082840312156118f157600080fd5b5051919050565b60006020828403121561190a57600080fd5b815180151581146115e357600080fd5b60008282101561193a57634e487b7160e01b600052601160045260246000fd5b500390565b60006020828403121561195157600080fd5b81516115e38161174b565b6020808252600d908201526c24b73b30b634b21037bbb732b960991b604082015260600190565b60005b8381101561199e578181015183820152602001611986565b838111156114f95750506000910152565b600082516119c1818460208701611983565b9190910192915050565b60208152600082518060208401526119ea816040850160208701611983565b601f01601f1916919091016040019291505056fea26469706673582212202505448bab11d26724530479801525f73268077e95b505ee3873eeda34817fe264736f6c634300080c0033",
  "linkReferences": {},
  "deployedLinkReferences": {}
}