{
  "_format": "hh-sol-artifact-1",
  "contractName": "ssFixedRate",
  "sourceName": "contracts/ssContracts/ssFixedRate.sol",
  "abi": [
    {
      "inputs": [],
      "stateMutability": "nonpayable",
      "type": "constructor"
    },
    {
      "inputs": [
        {
          "internalType": "address",
          "name": "datatokenAddress",
          "type": "address"
        },
        {
          "internalType": "address",
          "name": "stakeToken",
          "type": "address"
        },
        {
          "internalType": "uint256",
          "name": "amount",
          "type": "uint256"
        }
      ],
      "name": "Stake",
      "outputs": [],
      "stateMutability": "nonpayable",
      "type": "function"
    },
    {
      "inputs": [
        {
          "internalType": "address",
          "name": "datatokenAddress",
          "type": "address"
        },
        {
          "internalType": "address",
          "name": "stakeToken",
          "type": "address"
        },
        {
          "internalType": "uint256",
          "name": "amount",
          "type": "uint256"
        }
      ],
      "name": "UnStake",
      "outputs": [],
      "stateMutability": "nonpayable",
      "type": "function"
    },
    {
      "inputs": [
        {
          "internalType": "address",
          "name": "datatokenAddress",
          "type": "address"
        },
        {
          "internalType": "address",
          "name": "basetoken",
          "type": "address"
        },
        {
          "internalType": "uint256",
          "name": "datatokenAmount",
          "type": "uint256"
        },
        {
          "internalType": "uint256",
          "name": "basetokenAmount",
          "type": "uint256"
        },
        {
          "internalType": "address",
          "name": "userAddress",
          "type": "address"
        }
      ],
      "name": "allowStake",
      "outputs": [
        {
          "internalType": "bool",
          "name": "",
          "type": "bool"
        }
      ],
      "stateMutability": "view",
      "type": "function"
    },
    {
      "inputs": [
        {
          "internalType": "address",
          "name": "datatokenAddress",
          "type": "address"
        },
        {
          "internalType": "address",
          "name": "basetoken",
          "type": "address"
        },
        {
          "internalType": "uint256",
          "name": "datatokenAmount",
          "type": "uint256"
        },
        {
          "internalType": "uint256",
          "name": "basetokenAmount",
          "type": "uint256"
        },
        {
          "internalType": "address",
          "name": "userAddress",
          "type": "address"
        }
      ],
      "name": "allowUnStake",
      "outputs": [
        {
          "internalType": "bool",
          "name": "",
          "type": "bool"
        }
      ],
      "stateMutability": "view",
      "type": "function"
    },
    {
      "inputs": [
        {
          "internalType": "address",
          "name": "datatokenAddress",
          "type": "address"
        },
        {
          "internalType": "address",
          "name": "tokenIn",
          "type": "address"
        },
        {
          "internalType": "address",
          "name": "tokenOut",
          "type": "address"
        },
        {
          "internalType": "uint256",
          "name": "tokenAmountOut",
          "type": "uint256"
        }
      ],
      "name": "calcInGivenOut",
      "outputs": [
        {
          "internalType": "uint256",
          "name": "",
          "type": "uint256"
        }
      ],
      "stateMutability": "view",
      "type": "function"
    },
    {
      "inputs": [
        {
          "internalType": "address",
          "name": "datatokenAddress",
          "type": "address"
        },
        {
          "internalType": "address",
          "name": "tokenIn",
          "type": "address"
        },
        {
          "internalType": "address",
          "name": "tokenOut",
          "type": "address"
        },
        {
          "internalType": "uint256",
          "name": "tokenAmountIn",
          "type": "uint256"
        }
      ],
      "name": "calcOutGivenIn",
      "outputs": [
        {
          "internalType": "uint256",
          "name": "",
          "type": "uint256"
        }
      ],
      "stateMutability": "view",
      "type": "function"
    },
    {
      "inputs": [
        {
          "internalType": "address",
          "name": "datatokenAddress",
          "type": "address"
        },
        {
          "internalType": "address",
          "name": "stakeToken",
          "type": "address"
        },
        {
          "internalType": "uint256",
          "name": "amount",
          "type": "uint256"
        }
      ],
      "name": "canStake",
      "outputs": [
        {
          "internalType": "bool",
          "name": "",
          "type": "bool"
        }
      ],
      "stateMutability": "view",
      "type": "function"
    },
    {
      "inputs": [
        {
          "internalType": "address",
          "name": "datatokenAddress",
          "type": "address"
        },
        {
          "internalType": "address",
          "name": "stakeToken",
          "type": "address"
        },
        {
          "internalType": "uint256",
          "name": "amount",
          "type": "uint256"
        }
      ],
      "name": "canUnStake",
      "outputs": [
        {
          "internalType": "bool",
          "name": "",
          "type": "bool"
        }
      ],
      "stateMutability": "view",
      "type": "function"
    },
    {
      "inputs": [
        {
          "internalType": "address",
          "name": "datatokenAddress",
          "type": "address"
        }
      ],
      "name": "getBaseTokenAddress",
      "outputs": [
        {
          "internalType": "address",
          "name": "",
          "type": "address"
        }
      ],
      "stateMutability": "view",
      "type": "function"
    },
    {
      "inputs": [
        {
          "internalType": "address",
          "name": "datatokenAddress",
          "type": "address"
        }
      ],
      "name": "getBaseTokenBalance",
      "outputs": [
        {
          "internalType": "uint256",
          "name": "",
          "type": "uint256"
        }
      ],
      "stateMutability": "view",
      "type": "function"
    },
    {
      "inputs": [
        {
          "internalType": "address",
          "name": "datatokenAddress",
          "type": "address"
        }
      ],
      "name": "getDataTokenBalance",
      "outputs": [
        {
          "internalType": "uint256",
          "name": "",
          "type": "uint256"
        }
      ],
      "stateMutability": "view",
      "type": "function"
    },
    {
      "inputs": [
        {
          "internalType": "address",
          "name": "datatokenAddress",
          "type": "address"
        }
      ],
      "name": "getDataTokenCirculatingSupply",
      "outputs": [
        {
          "internalType": "uint256",
          "name": "",
          "type": "uint256"
        }
      ],
      "stateMutability": "view",
      "type": "function"
    },
    {
      "inputs": [
        {
          "internalType": "address",
          "name": "datatokenAddress",
          "type": "address"
        }
      ],
      "name": "getPoolAddress",
      "outputs": [
        {
          "internalType": "address",
          "name": "",
          "type": "address"
        }
      ],
      "stateMutability": "view",
      "type": "function"
    },
    {
      "inputs": [
        {
          "internalType": "address",
          "name": "datatokenAddress",
          "type": "address"
        }
      ],
      "name": "getPublisherAddress",
      "outputs": [
        {
          "internalType": "address",
          "name": "",
          "type": "address"
        }
      ],
      "stateMutability": "view",
      "type": "function"
    },
    {
      "inputs": [
        {
          "internalType": "address",
          "name": "datatokenAddress",
          "type": "address"
        }
      ],
      "name": "getVesting",
      "outputs": [],
      "stateMutability": "nonpayable",
      "type": "function"
    },
    {
      "inputs": [
        {
          "internalType": "address",
          "name": "datatokenAddress",
          "type": "address"
        }
      ],
      "name": "getvestingAmount",
      "outputs": [
        {
          "internalType": "uint256",
          "name": "",
          "type": "uint256"
        }
      ],
      "stateMutability": "view",
      "type": "function"
    },
    {
      "inputs": [
        {
          "internalType": "address",
          "name": "datatokenAddress",
          "type": "address"
        }
      ],
      "name": "getvestingAmountSoFar",
      "outputs": [
        {
          "internalType": "uint256",
          "name": "",
          "type": "uint256"
        }
      ],
      "stateMutability": "view",
      "type": "function"
    },
    {
      "inputs": [
        {
          "internalType": "address",
          "name": "datatokenAddress",
          "type": "address"
        }
      ],
      "name": "getvestingEndBlock",
      "outputs": [
        {
          "internalType": "uint256",
          "name": "",
          "type": "uint256"
        }
      ],
      "stateMutability": "view",
      "type": "function"
    },
    {
      "inputs": [
        {
          "internalType": "address",
          "name": "datatokenAddress",
          "type": "address"
        }
      ],
      "name": "getvestingLastBlock",
      "outputs": [
        {
          "internalType": "uint256",
          "name": "",
          "type": "uint256"
        }
      ],
      "stateMutability": "view",
      "type": "function"
    },
    {
      "inputs": [
        {
          "internalType": "address",
          "name": "datatokenAddress",
          "type": "address"
        },
        {
          "internalType": "address",
          "name": "basetokenAddress",
          "type": "address"
        },
        {
          "internalType": "address",
          "name": "poolAddress",
          "type": "address"
        },
        {
          "internalType": "address",
          "name": "publisherAddress",
          "type": "address"
        },
        {
          "internalType": "uint256[]",
          "name": "ssParams",
          "type": "uint256[]"
        }
      ],
      "name": "newDataTokenCreated",
      "outputs": [
        {
          "internalType": "bool",
          "name": "",
          "type": "bool"
        }
      ],
      "stateMutability": "nonpayable",
      "type": "function"
    },
    {
      "inputs": [
        {
          "internalType": "address",
          "name": "datatokenAddress",
          "type": "address"
        },
        {
          "internalType": "address",
          "name": "userAddress",
          "type": "address"
        },
        {
          "internalType": "address",
          "name": "tokenIn",
          "type": "address"
        },
        {
          "internalType": "uint256",
          "name": "tokenAmountIn",
          "type": "uint256"
        },
        {
          "internalType": "address",
          "name": "tokenOut",
          "type": "address"
        },
        {
          "internalType": "uint256",
          "name": "minAmountOut",
          "type": "uint256"
        }
      ],
      "name": "swapExactAmountIn",
      "outputs": [
        {
          "internalType": "uint256",
          "name": "tokenAmountOut",
          "type": "uint256"
        }
      ],
      "stateMutability": "nonpayable",
      "type": "function"
    },
    {
      "inputs": [
        {
          "internalType": "address",
          "name": "datatokenAddress",
          "type": "address"
        },
        {
          "internalType": "address",
          "name": "userAddress",
          "type": "address"
        },
        {
          "internalType": "address",
          "name": "tokenIn",
          "type": "address"
        },
        {
          "internalType": "uint256",
          "name": "maxTokenAmountIn",
          "type": "uint256"
        },
        {
          "internalType": "address",
          "name": "tokenOut",
          "type": "address"
        },
        {
          "internalType": "uint256",
          "name": "amountOut",
          "type": "uint256"
        }
      ],
      "name": "swapExactAmountOut",
      "outputs": [
        {
          "internalType": "uint256",
          "name": "tokenAmountIn",
          "type": "uint256"
        }
      ],
      "stateMutability": "nonpayable",
      "type": "function"
    }
  ],
  "bytecode": "0x608060405234801561001057600080fd5b50612bc9806100206000396000f3fe608060405234801561001057600080fd5b50600436106101425760003560e01c806392f6cb67116100b8578063c4be24901161007c578063c4be249014610296578063cc49ede7146102a9578063cf268dea146102bc578063efd48103146102cf578063f03cd396146102e2578063fa93fd6d146102f557610142565b806392f6cb671461023557806399039fcf14610248578063bccf74fe1461025d578063bee3913d14610270578063c1b4904d1461028357610142565b806330c157011161010a57806330c15701146101d65780633e6d363f146101e957806353f0c3b4146101fc578063799ece851461020f5780637eaf89011461018357806388afadce1461022257610142565b80631228cbee146101475780631f16cde61461017057806324571dd7146101835780632686375b146101a357806326b1f01f146101c3575b600080fd5b61015a610155366004612358565b610308565b60405161016791906126d9565b60405180910390f35b61015a61017e366004612358565b61035a565b610196610191366004612583565b6103ae565b6040516101679190612764565b6101b66101b1366004612358565b61042d565b6040516101679190612984565b6101966101d1366004612543565b610479565b6101b66101e43660046124d4565b61060e565b6101b66101f73660046124d4565b6108c4565b61019661020a366004612390565b610c10565b6101b661021d366004612358565b611503565b6101b6610230366004612358565b61154f565b6101b6610243366004612484565b6115af565b61025b610256366004612543565b6115f2565b005b6101b661026b366004612358565b611746565b6101b661027e366004612484565b611792565b6101b6610291366004612358565b6117ca565b6101b66102a4366004612358565b611816565b61025b6102b7366004612358565b611862565b61025b6102ca366004612543565b611ac3565b6101966102dd366004612543565b611b7e565b6101b66102f0366004612358565b611c23565b61015a610303366004612358565b611c6f565b6001600160a01b03811660009081526020819052604081205460ff16151560011461033557506000610355565b506001600160a01b03808216600090815260208190526040902060010154165b919050565b6001600160a01b03811660009081526020819052604081205460ff16151560011461038757506000610355565b506001600160a01b0390811660009081526020819052604090206007015461010090041690565b6001600160a01b03851660009081526020819052604081205460ff1615156001146103db57506000610424565b6001600160a01b038681166000908152602081905260409020600101541633146104205760405162461bcd60e51b8152600401610417906128a8565b60405180910390fd5b5060015b95945050505050565b6001600160a01b03811660009081526020819052604081205460ff16151560011461045a57506000610355565b506001600160a01b03166000908152602081905260409020600a015490565b6001600160a01b03831660009081526020819052604081205460ff1615156001146104a657506000610607565b6001600160a01b038481166000908152602081905260409020600101541633146104e25760405162461bcd60e51b8152600401610417906128a8565b6001600160a01b03841660009081526020819052604090205460ff16151560011461050f57506000610607565b6001600160a01b0384811660009081526020819052604090205461010090048116908416141561054157506000610607565b6040516370a0823160e01b815284906000906001600160a01b038316906370a08231906105729030906004016126d9565b60206040518083038186803b15801561058a57600080fd5b505afa15801561059e573d6000803e3d6000fd5b505050506040513d601f19601f820116820180604052508101906105c29190612655565b6001600160a01b03871660009081526020819052604090206002015490915084118015906105f05750838110155b1561060057600192505050610607565b6000925050505b9392505050565b6001600160a01b03861660009081526020819052604081205460ff16151560011461064b5760405162461bcd60e51b815260040161041790612782565b6001600160a01b038781166000908152602081905260409020600101541633146106875760405162461bcd60e51b8152600401610417906128a8565b61069387868585611792565b9050838111156106b55760405162461bcd60e51b8152600401610417906127d6565b6001600160a01b03878116600090815260208190526040908190206001015490516323b872dd60e01b81528792808416926323b872dd92610701929190911690309087906004016126ed565b602060405180830381600087803b15801561071b57600080fd5b505af115801561072f573d6000803e3d6000fd5b505050506040513d601f19601f8201168201806040525081019061075391906125e1565b50876001600160a01b0316866001600160a01b031614156107d4576001600160a01b038816600090815260208190526040812060040180548592906107999084906129d0565b90915550506001600160a01b038816600090815260208190526040812060020180548492906107c99084906129d0565b909155506108359050565b6001600160a01b038816600090815260208190526040812060020180548592906107ff9084906129d0565b90915550506001600160a01b0388166000908152602081905260408120600401805484929061082f9084906129d0565b90915550505b60405163a9059cbb60e01b815284906001600160a01b0382169063a9059cbb90610865908b908890600401612711565b602060405180830381600087803b15801561087f57600080fd5b505af1158015610893573d6000803e3d6000fd5b505050506040513d601f19601f820116820180604052508101906108b791906125e1565b5050509695505050505050565b6001600160a01b03861660009081526020819052604081205460ff1615156001146109015760405162461bcd60e51b815260040161041790612782565b6001600160a01b0387811660009081526020819052604090206001015416331461093d5760405162461bcd60e51b8152600401610417906128a8565b610949878685876115af565b90508181101561096b5760405162461bcd60e51b81526004016104179061294d565b6001600160a01b038781166000908152602081905260408082206001015490516370a0823160e01b81528893808516926370a08231926109b29291909116906004016126d9565b60206040518083038186803b1580156109ca57600080fd5b505afa1580156109de573d6000803e3d6000fd5b505050506040513d601f19601f82011682018060405250810190610a029190612655565b6001600160a01b038a8116600090815260208190526040908190206001015490516323b872dd60e01b8152929350818516926323b872dd92610a4c92169030908b906004016126ed565b602060405180830381600087803b158015610a6657600080fd5b505af1158015610a7a573d6000803e3d6000fd5b505050506040513d601f19601f82011682018060405250810190610a9e91906125e1565b50886001600160a01b0316876001600160a01b03161415610b1f576001600160a01b03891660009081526020819052604081206004018054859290610ae49084906129d0565b90915550506001600160a01b03891660009081526020819052604081206002018054889290610b149084906129d0565b90915550610b809050565b6001600160a01b03891660009081526020819052604081206002018054859290610b4a9084906129d0565b90915550506001600160a01b03891660009081526020819052604081206004018054889290610b7a9084906129d0565b90915550505b60405163a9059cbb60e01b815285906001600160a01b0382169063a9059cbb90610bb0908c908890600401612711565b602060405180830381600087803b158015610bca57600080fd5b505af1158015610bde573d6000803e3d6000fd5b505050506040513d601f19601f82011682018060405250810190610c0291906125e1565b505050509695505050505050565b60006001600160a01b038416610c385760405162461bcd60e51b81526004016104179061287b565b6000849050306001600160a01b0316816001600160a01b0316633018205f6040518163ffffffff1660e01b815260040160206040518083038186803b158015610c8057600080fd5b505afa158015610c94573d6000803e3d6000fd5b505050506040513d601f19601f82011682018060405250810190610cb89190612374565b6001600160a01b031614610cde5760405162461bcd60e51b81526004016104179061280d565b866001600160a01b0316816001600160a01b03166304ad79546040518163ffffffff1660e01b815260040160206040518083038186803b158015610d2157600080fd5b505afa158015610d35573d6000803e3d6000fd5b505050506040513d601f19601f82011682018060405250810190610d599190612374565b6001600160a01b031614610d7f5760405162461bcd60e51b815260040161041790612916565b856001600160a01b0316816001600160a01b0316634df947d06040518163ffffffff1660e01b815260040160206040518083038186803b158015610dc257600080fd5b505afa158015610dd6573d6000803e3d6000fd5b505050506040513d601f19601f82011682018060405250810190610dfa9190612374565b6001600160a01b031614610e205760405162461bcd60e51b8152600401610417906128df565b604051623d104160e31b815287906001600160a01b038216906301e8820890610e4d9030906004016126d9565b604080518083038186803b158015610e6457600080fd5b505afa158015610e78573d6000803e3d6000fd5b505050506040513d601f19601f82011682018060405250810190610e9c91906125fb565b511515600114610ebe5760405162461bcd60e51b815260040161041790612844565b806001600160a01b03166340c10f1930836001600160a01b031663355274ea6040518163ffffffff1660e01b815260040160206040518083038186803b158015610f0757600080fd5b505afa158015610f1b573d6000803e3d6000fd5b505050506040513d601f19601f82011682018060405250810190610f3f9190612655565b6040518363ffffffff1660e01b8152600401610f5c929190612711565b600060405180830381600087803b158015610f7657600080fd5b505af1158015610f8a573d6000803e3d6000fd5b50505050806001600160a01b03166318160ddd6040518163ffffffff1660e01b815260040160206040518083038186803b158015610fc757600080fd5b505afa158015610fdb573d6000803e3d6000fd5b505050506040513d601f19601f82011682018060405250810190610fff9190612655565b6040516370a0823160e01b81526001600160a01b038316906370a082319061102b9030906004016126d9565b60206040518083038186803b15801561104357600080fd5b505afa158015611057573d6000803e3d6000fd5b505050506040513d601f19601f8201168201806040525081019061107b9190612655565b146110985760405162461bcd60e51b8152600401610417906127b1565b60008790506000816001600160a01b031663313ce5676040518163ffffffff1660e01b815260040160206040518083038186803b1580156110d857600080fd5b505afa1580156110ec573d6000803e3d6000fd5b505050506040513d601f19601f82011682018060405250810190611110919061266d565b60ff16905060008660018151811061113857634e487b7160e01b600052603260045260246000fd5b60200260200101516000141561115057506000611154565b5060015b6040518061020001604052806001151581526020018b6001600160a01b031681526020018a6001600160a01b03168152602001600015158152602001856001600160a01b03166318160ddd6040518163ffffffff1660e01b815260040160206040518083038186803b1580156111c957600080fd5b505afa1580156111dd573d6000803e3d6000fd5b505050506040513d601f19601f820116820180604052508101906112019190612655565b8152602001856001600160a01b031663355274ea6040518163ffffffff1660e01b815260040160206040518083038186803b15801561123f57600080fd5b505afa158015611253573d6000803e3d6000fd5b505050506040513d601f19601f820116820180604052508101906112779190612655565b81526020018860048151811061129d57634e487b7160e01b600052603260045260246000fd5b6020026020010151815260200160008152602001886000815181106112d257634e487b7160e01b600052603260045260246000fd5b602002602001015181526020018215158152602001896001600160a01b031681526020014381526020018860038151811061131d57634e487b7160e01b600052603260045260246000fd5b60200260200101514361133091906129d0565b81526020018860028151811061135657634e487b7160e01b600052603260045260246000fd5b6020026020010151815260200143815260200160008152506000808d6001600160a01b03166001600160a01b0316815260200190815260200160002060008201518160000160006101000a81548160ff02191690831515021790555060208201518160000160016101000a8154816001600160a01b0302191690836001600160a01b0316021790555060408201518160010160006101000a8154816001600160a01b0302191690836001600160a01b0316021790555060608201518160010160146101000a81548160ff0219169083151502179055506080820151816002015560a0820151816003015560c0820151816004015560e0820151816005015561010082015181600601556101208201518160070160006101000a81548160ff0219169083151502179055506101408201518160070160016101000a8154816001600160a01b0302191690836001600160a01b03160217905550610160820151816008015561018082015181600901556101a082015181600a01556101c082015181600b01556101e082015181600c01559050506114f28b83611cc0565b5060019a9950505050505050505050565b6001600160a01b03811660009081526020819052604081205460ff16151560011461153057506000610355565b506001600160a01b031660009081526020819052604090206009015490565b6001600160a01b03811660009081526020819052604081205460ff16151560011461157c57506000610355565b6001600160a01b038216600090815260208190526040902060028101546003909101546115a99190612b3b565b92915050565b6001600160a01b03841660009081526020819052604081205460ff1615156001146115dc575060006115ea565b6115e78484846120af565b90505b949350505050565b6001600160a01b03831660009081526020819052604090205460ff16151560011461161c57611741565b6001600160a01b038381166000908152602081905260409020600101541633146116585760405162461bcd60e51b8152600401610417906128a8565b6000611665848484610479565b90506001811515146116775750611741565b6001600160a01b038085166000818152602081905260409081902060010154905163095ea7b360e01b8152879363095ea7b3926116bb929116908790600401612711565b602060405180830381600087803b1580156116d557600080fd5b505af11580156116e9573d6000803e3d6000fd5b505050506040513d601f19601f8201168201806040525081019061170d91906125e1565b506001600160a01b03851660009081526020819052604081206002018054859290611739908490612b3b565b909155505050505b505050565b6001600160a01b03811660009081526020819052604081205460ff16151560011461177357506000610355565b506001600160a01b03166000908152602081905260409020600c015490565b6001600160a01b03841660009081526020819052604081205460ff1615156001146117bf575060006115ea565b6115e78484846121a4565b6001600160a01b03811660009081526020819052604081205460ff1615156001146117f757506000610355565b506001600160a01b031660009081526020819052604090206002015490565b6001600160a01b03811660009081526020819052604081205460ff16151560011461184357506000610355565b506001600160a01b031660009081526020819052604090206004015490565b6001600160a01b03811660009081526020819052604090205460ff16151560011461189f5760405162461bcd60e51b815260040161041790612782565b6001600160a01b0381166000908152602081905260408120600901544311156118f6576001600160a01b0382166000908152602081905260409020600b8101546009909101546118ef9190612b3b565b905061191f565b6001600160a01b0382166000908152602081905260409020600b015461191c9043612b3b565b90505b6001600160a01b038216600090815260208190526040812060088101546009909101546119719161194f91612b3b565b6001600160a01b0385166000908152602081905260409020600a01549061228b565b90508061197f575050611ac0565b600061198b8383612297565b90506000811180156119b857506001600160a01b0384166000908152602081905260409020600201548111155b15611abc576001600160a01b038085166000818152602081905260409081902043600b82015560070154905163a9059cbb60e01b8152879363a9059cbb92611a0e92610100909104909116908690600401612711565b602060405180830381600087803b158015611a2857600080fd5b505af1158015611a3c573d6000803e3d6000fd5b505050506040513d601f19601f82011682018060405250810190611a6091906125e1565b506001600160a01b03851660009081526020819052604081206002018054849290611a8c908490612b3b565b90915550506001600160a01b0385166000908152602081905260408120600c0180548492906117399084906129d0565b5050505b50565b6001600160a01b03831660009081526020819052604090205460ff161515600114611aed57611741565b6001600160a01b03838116600090815260208190526040902060010154163314611b295760405162461bcd60e51b8152600401610417906128a8565b6000611b36848484611b7e565b9050600181151514611b485750611741565b6001600160a01b03841660009081526020819052604081206002018054849290611b739084906129d0565b909155505050505050565b6001600160a01b03831660009081526020819052604081205460ff161515600114611bab57506000610607565b6001600160a01b03848116600090815260208190526040902060010154163314611be75760405162461bcd60e51b8152600401610417906128a8565b6001600160a01b03848116600090815260208190526040902054610100900481169084161415611c1957506000610607565b5060019392505050565b6001600160a01b03811660009081526020819052604081205460ff161515600114611c5057506000610355565b506001600160a01b03166000908152602081905260409020600b015490565b6001600160a01b03811660009081526020819052604081205460ff161515600114611c9c57506000610355565b506001600160a01b0390811660009081526020819052604090205461010090041690565b6001600160a01b03821660009081526020819052604090205460ff161515600114611cea576120ab565b6001600160a01b0382166000908152602081905260409020600190810154600160a01b900460ff1615151415611d1f576120ab565b6001600160a01b0382166000908152602081905260408120600101805460ff60a01b1916600160a01b179055611d5e670de0b6b3a76400006005612b1c565b90506000611d75670de0b6b3a76400006005612b1c565b90506000806000866001600160a01b03166001600160a01b03168152602001908152602001600020600401549050611dd4816040518060400160405280600f81526020016e18985cd9551bdad95b985b5bdd5b9d608a1b8152506122a3565b6000611de1856012612b3b565b611dec90600a612a4e565b6001600160a01b038716600090815260208190526040902060060154670de0b6b3a76400009086908690611e21908790612b1c565b611e2b9190612b1c565b611e3591906129e8565b611e3f91906129e8565b611e499190612b1c565b6001600160a01b038088166000818152602081905260409081902060010154905163095ea7b360e01b81529394508993919263095ea7b392611e9392909116908690600401612711565b602060405180830381600087803b158015611ead57600080fd5b505af1158015611ec1573d6000803e3d6000fd5b505050506040513d601f19601f82011682018060405250810190611ee591906125e1565b506001600160a01b03808816600090815260208190526040908190208054600190910154915163095ea7b360e01b8152610100909104831692839263095ea7b392611f399291909116908890600401612711565b602060405180830381600087803b158015611f5357600080fd5b505af1158015611f67573d6000803e3d6000fd5b505050506040513d601f19601f82011682018060405250810190611f8b91906125e1565b50611fb76040518060400160405280600a8152602001696861737461206171756960b01b8152506122e8565b6001600160a01b03808916600090815260208190526040908190206001810154905491516309ef3f5b60e01b81529083169283926309ef3f5b92612011928e928a928d92610100909204909116908c908f9060040161272a565b600060405180830381600087803b15801561202b57600080fd5b505af115801561203f573d6000803e3d6000fd5b505050506001600160a01b0389166000908152602081905260408120600401805487929061206e908490612b3b565b90915550506001600160a01b0389166000908152602081905260408120600201805486929061209e908490612b3b565b9091555050505050505050505b5050565b6001600160a01b03831660009081526020819052604081205460ff16151560011415612142576001600160a01b03841660009081526020819052604090206007015460ff1661210057506000610607565b6001600160a01b03841660009081526020819052604090206006015461213b90670de0b6b3a764000090612135908590612297565b9061228b565b9050610607565b6001600160a01b03831660009081526020819052604090205460ff1615156001141561219a576001600160a01b03831660009081526020819052604090206006015461213b9061213584670de0b6b3a7640000612297565b5060009392505050565b6001600160a01b03831660009081526020819052604081205460ff16151560011415612230576001600160a01b03841660009081526020819052604090206007015460ff166121f557506000610607565b6001600160a01b0384166000908152602081905260408120600601546122279061213585670de0b6b3a7640000612297565b91506106079050565b6001600160a01b03831660009081526020819052604090205460ff1615156001141561219a576001600160a01b03831660009081526020819052604081206006015461222790670de0b6b3a764000090612135908690612297565b600061060782846129e8565b60006106078284612b1c565b6120ab82826040516024016122b992919061298d565b60408051601f198184030181529190526020810180516001600160e01b0316630fa3f34560e01b179052612327565b611ac0816040516024016122fc919061276f565b60408051601f198184030181529190526020810180516001600160e01b031663104c13eb60e21b1790525b80516a636f6e736f6c652e6c6f67602083016000808483855afa5050505050565b8051801515811461035557600080fd5b600060208284031215612369578081fd5b813561060781612b7e565b600060208284031215612385578081fd5b815161060781612b7e565b600080600080600060a086880312156123a7578081fd5b85356123b281612b7e565b94506020868101356123c381612b7e565b945060408701356123d381612b7e565b935060608701356123e381612b7e565b9250608087013567ffffffffffffffff808211156123ff578384fd5b818901915089601f830112612412578384fd5b81358181111561242457612424612b68565b83810291506124348483016129a6565b8181528481019084860184860187018e101561244e578788fd5b8795505b83861015612470578035835260019590950194918601918601612452565b508096505050505050509295509295909350565b60008060008060808587031215612499578384fd5b84356124a481612b7e565b935060208501356124b481612b7e565b925060408501356124c481612b7e565b9396929550929360600135925050565b60008060008060008060c087890312156124ec578081fd5b86356124f781612b7e565b9550602087013561250781612b7e565b9450604087013561251781612b7e565b935060608701359250608087013561252e81612b7e565b8092505060a087013590509295509295509295565b600080600060608486031215612557578283fd5b833561256281612b7e565b9250602084013561257281612b7e565b929592945050506040919091013590565b600080600080600060a0868803121561259a578081fd5b85356125a581612b7e565b945060208601356125b581612b7e565b9350604086013592506060860135915060808601356125d381612b7e565b809150509295509295909350565b6000602082840312156125f2578081fd5b61060782612348565b60006040828403121561260c578081fd5b6040516040810181811067ffffffffffffffff8211171561262f5761262f612b68565b60405261263b83612348565b815261264960208401612348565b60208201529392505050565b600060208284031215612666578081fd5b5051919050565b60006020828403121561267e578081fd5b815160ff81168114610607578182fd5b60008151808452815b818110156126b357602081850181015186830182015201612697565b818111156126c45782602083870101525b50601f01601f19169290920160200192915050565b6001600160a01b0391909116815260200190565b6001600160a01b039384168152919092166020820152604081019190915260600190565b6001600160a01b03929092168252602082015260400190565b6001600160a01b0396871681526020810195909552604085019390935293166060830152608082019290925260a081019190915260c00190565b901515815260200190565b600060208252610607602083018461268e565b60208082526015908201527422a9291d24b73b30b634b2103230ba30ba37b5b2b760591b604082015260600190565b6020808252600b908201526a135a5b9d0819985a5b195960aa1b604082015260600190565b6020808252601d908201527f4552523a6d6178546f6b656e416d6f756e74496e206e6f74206d656574000000604082015260600190565b6020808252601e908201527f576520617265206e6f742074686520706f6f6c20636f6e74726f6c6c65720000604082015260600190565b6020808252601a908201527f42617365546f6b656e2061646472657373206d69736d61746368000000000000604082015260600190565b602080825260139082015272496e76616c696420706f6f6c4164647265737360681b604082015260600190565b6020808252601c908201527f4552523a204f6e6c7920706f6f6c2063616e2063616c6c207468697300000000604082015260600190565b6020808252601b908201527f42617365546f6b656e2061646472657373206d6973736d617463680000000000604082015260600190565b6020808252601b908201527f44617461546f6b656e2061646472657373206d6973736d617463680000000000604082015260600190565b60208082526019908201527f4552523a6d696e416d6f756e744f7574206e6f74206d65657400000000000000604082015260600190565b90815260200190565b6000838252604060208301526115ea604083018461268e565b60405181810167ffffffffffffffff811182821017156129c8576129c8612b68565b604052919050565b600082198211156129e3576129e3612b52565b500190565b600082612a0357634e487b7160e01b81526012600452602481fd5b500490565b80825b6001808611612a1a5750612a45565b818704821115612a2c57612a2c612b52565b80861615612a3957918102915b9490941c938002612a0b565b94509492505050565b60006106076000198484600082612a6757506001610607565b81612a7457506000610607565b8160018114612a8a5760028114612a9457612ac1565b6001915050610607565b60ff841115612aa557612aa5612b52565b6001841b915084821115612abb57612abb612b52565b50610607565b5060208310610133831016604e8410600b8410161715612af4575081810a83811115612aef57612aef612b52565b610607565b612b018484846001612a08565b808604821115612b1357612b13612b52565b02949350505050565b6000816000190483118215151615612b3657612b36612b52565b500290565b600082821015612b4d57612b4d612b52565b500390565b634e487b7160e01b600052601160045260246000fd5b634e487b7160e01b600052604160045260246000fd5b6001600160a01b0381168114611ac057600080fdfea2646970667358221220418ba0089e309498e123947a2d509a7d8ec94c30b69b5fc16517fa394d68869b64736f6c63430008000033",
  "linkReferences": {},
  "deployedLinkReferences": {}
}