{
  "_format": "hh-sol-artifact-1",
  "contractName": "ssFixedRate",
  "sourceName": "contracts/ssContracts/ssFixedRate.sol",
  "abi": [
    {
      "inputs": [],
      "stateMutability": "nonpayable",
      "type": "constructor"
    },
    {
      "inputs": [
        {
          "internalType": "address",
          "name": "datatokenAddress",
          "type": "address"
        },
        {
          "internalType": "address",
          "name": "stakeToken",
          "type": "address"
        },
        {
          "internalType": "uint256",
          "name": "amount",
          "type": "uint256"
        }
      ],
      "name": "Stake",
      "outputs": [],
      "stateMutability": "nonpayable",
      "type": "function"
    },
    {
      "inputs": [
        {
          "internalType": "address",
          "name": "datatokenAddress",
          "type": "address"
        },
        {
          "internalType": "address",
          "name": "stakeToken",
          "type": "address"
        },
        {
          "internalType": "uint256",
          "name": "amount",
          "type": "uint256"
        }
      ],
      "name": "UnStake",
      "outputs": [],
      "stateMutability": "nonpayable",
      "type": "function"
    },
    {
      "inputs": [
        {
          "internalType": "address",
          "name": "datatokenAddress",
          "type": "address"
        },
        {
          "internalType": "address",
          "name": "basetoken",
          "type": "address"
        },
        {
          "internalType": "uint256",
          "name": "datatokenAmount",
          "type": "uint256"
        },
        {
          "internalType": "uint256",
          "name": "basetokenAmount",
          "type": "uint256"
        },
        {
          "internalType": "address",
          "name": "userAddress",
          "type": "address"
        }
      ],
      "name": "allowStake",
      "outputs": [
        {
          "internalType": "bool",
          "name": "",
          "type": "bool"
        }
      ],
      "stateMutability": "view",
      "type": "function"
    },
    {
      "inputs": [
        {
          "internalType": "address",
          "name": "datatokenAddress",
          "type": "address"
        },
        {
          "internalType": "address",
          "name": "basetoken",
          "type": "address"
        },
        {
          "internalType": "uint256",
          "name": "datatokenAmount",
          "type": "uint256"
        },
        {
          "internalType": "uint256",
          "name": "basetokenAmount",
          "type": "uint256"
        },
        {
          "internalType": "address",
          "name": "userAddress",
          "type": "address"
        }
      ],
      "name": "allowUnStake",
      "outputs": [
        {
          "internalType": "bool",
          "name": "",
          "type": "bool"
        }
      ],
      "stateMutability": "view",
      "type": "function"
    },
    {
      "inputs": [
        {
          "internalType": "address",
          "name": "datatokenAddress",
          "type": "address"
        },
        {
          "internalType": "address",
          "name": "tokenIn",
          "type": "address"
        },
        {
          "internalType": "address",
          "name": "tokenOut",
          "type": "address"
        },
        {
          "internalType": "uint256",
          "name": "tokenAmountOut",
          "type": "uint256"
        }
      ],
      "name": "calcInGivenOut",
      "outputs": [
        {
          "internalType": "uint256",
          "name": "",
          "type": "uint256"
        }
      ],
      "stateMutability": "view",
      "type": "function"
    },
    {
      "inputs": [
        {
          "internalType": "address",
          "name": "datatokenAddress",
          "type": "address"
        },
        {
          "internalType": "address",
          "name": "tokenIn",
          "type": "address"
        },
        {
          "internalType": "address",
          "name": "tokenOut",
          "type": "address"
        },
        {
          "internalType": "uint256",
          "name": "tokenAmountIn",
          "type": "uint256"
        }
      ],
      "name": "calcOutGivenIn",
      "outputs": [
        {
          "internalType": "uint256",
          "name": "",
          "type": "uint256"
        }
      ],
      "stateMutability": "view",
      "type": "function"
    },
    {
      "inputs": [
        {
          "internalType": "address",
          "name": "datatokenAddress",
          "type": "address"
        },
        {
          "internalType": "address",
          "name": "stakeToken",
          "type": "address"
        },
        {
          "internalType": "uint256",
          "name": "amount",
          "type": "uint256"
        }
      ],
      "name": "canStake",
      "outputs": [
        {
          "internalType": "bool",
          "name": "",
          "type": "bool"
        }
      ],
      "stateMutability": "view",
      "type": "function"
    },
    {
      "inputs": [
        {
          "internalType": "address",
          "name": "datatokenAddress",
          "type": "address"
        },
        {
          "internalType": "address",
          "name": "stakeToken",
          "type": "address"
        },
        {
          "internalType": "uint256",
          "name": "amount",
          "type": "uint256"
        }
      ],
      "name": "canUnStake",
      "outputs": [
        {
          "internalType": "bool",
          "name": "",
          "type": "bool"
        }
      ],
      "stateMutability": "view",
      "type": "function"
    },
    {
      "inputs": [
        {
          "internalType": "address",
          "name": "datatokenAddress",
          "type": "address"
        }
      ],
      "name": "getBaseTokenAddress",
      "outputs": [
        {
          "internalType": "address",
          "name": "",
          "type": "address"
        }
      ],
      "stateMutability": "view",
      "type": "function"
    },
    {
      "inputs": [
        {
          "internalType": "address",
          "name": "datatokenAddress",
          "type": "address"
        }
      ],
      "name": "getBaseTokenBalance",
      "outputs": [
        {
          "internalType": "uint256",
          "name": "",
          "type": "uint256"
        }
      ],
      "stateMutability": "view",
      "type": "function"
    },
    {
      "inputs": [
        {
          "internalType": "address",
          "name": "datatokenAddress",
          "type": "address"
        }
      ],
      "name": "getDataTokenBalance",
      "outputs": [
        {
          "internalType": "uint256",
          "name": "",
          "type": "uint256"
        }
      ],
      "stateMutability": "view",
      "type": "function"
    },
    {
      "inputs": [
        {
          "internalType": "address",
          "name": "datatokenAddress",
          "type": "address"
        }
      ],
      "name": "getDataTokenCirculatingSupply",
      "outputs": [
        {
          "internalType": "uint256",
          "name": "",
          "type": "uint256"
        }
      ],
      "stateMutability": "view",
      "type": "function"
    },
    {
      "inputs": [
        {
          "internalType": "address",
          "name": "datatokenAddress",
          "type": "address"
        }
      ],
      "name": "getPoolAddress",
      "outputs": [
        {
          "internalType": "address",
          "name": "",
          "type": "address"
        }
      ],
      "stateMutability": "view",
      "type": "function"
    },
    {
      "inputs": [
        {
          "internalType": "address",
          "name": "datatokenAddress",
          "type": "address"
        }
      ],
      "name": "getPublisherAddress",
      "outputs": [
        {
          "internalType": "address",
          "name": "",
          "type": "address"
        }
      ],
      "stateMutability": "view",
      "type": "function"
    },
    {
      "inputs": [
        {
          "internalType": "address",
          "name": "datatokenAddress",
          "type": "address"
        }
      ],
      "name": "getVesting",
      "outputs": [],
      "stateMutability": "nonpayable",
      "type": "function"
    },
    {
      "inputs": [
        {
          "internalType": "address",
          "name": "datatokenAddress",
          "type": "address"
        }
      ],
      "name": "getvestingAmount",
      "outputs": [
        {
          "internalType": "uint256",
          "name": "",
          "type": "uint256"
        }
      ],
      "stateMutability": "view",
      "type": "function"
    },
    {
      "inputs": [
        {
          "internalType": "address",
          "name": "datatokenAddress",
          "type": "address"
        }
      ],
      "name": "getvestingAmountSoFar",
      "outputs": [
        {
          "internalType": "uint256",
          "name": "",
          "type": "uint256"
        }
      ],
      "stateMutability": "view",
      "type": "function"
    },
    {
      "inputs": [
        {
          "internalType": "address",
          "name": "datatokenAddress",
          "type": "address"
        }
      ],
      "name": "getvestingEndBlock",
      "outputs": [
        {
          "internalType": "uint256",
          "name": "",
          "type": "uint256"
        }
      ],
      "stateMutability": "view",
      "type": "function"
    },
    {
      "inputs": [
        {
          "internalType": "address",
          "name": "datatokenAddress",
          "type": "address"
        }
      ],
      "name": "getvestingLastBlock",
      "outputs": [
        {
          "internalType": "uint256",
          "name": "",
          "type": "uint256"
        }
      ],
      "stateMutability": "view",
      "type": "function"
    },
    {
      "inputs": [
        {
          "internalType": "address",
          "name": "datatokenAddress",
          "type": "address"
        },
        {
          "internalType": "address",
          "name": "basetokenAddress",
          "type": "address"
        },
        {
          "internalType": "address",
          "name": "poolAddress",
          "type": "address"
        },
        {
          "internalType": "address",
          "name": "publisherAddress",
          "type": "address"
        },
        {
          "internalType": "uint256[]",
          "name": "ssParams",
          "type": "uint256[]"
        }
      ],
      "name": "newDataTokenCreated",
      "outputs": [
        {
          "internalType": "bool",
          "name": "",
          "type": "bool"
        }
      ],
      "stateMutability": "nonpayable",
      "type": "function"
    },
    {
      "inputs": [
        {
          "internalType": "address",
          "name": "datatokenAddress",
          "type": "address"
        },
        {
          "internalType": "address",
          "name": "userAddress",
          "type": "address"
        },
        {
          "internalType": "address",
          "name": "tokenIn",
          "type": "address"
        },
        {
          "internalType": "uint256",
          "name": "tokenAmountIn",
          "type": "uint256"
        },
        {
          "internalType": "address",
          "name": "tokenOut",
          "type": "address"
        },
        {
          "internalType": "uint256",
          "name": "minAmountOut",
          "type": "uint256"
        }
      ],
      "name": "swapExactAmountIn",
      "outputs": [
        {
          "internalType": "uint256",
          "name": "tokenAmountOut",
          "type": "uint256"
        }
      ],
      "stateMutability": "nonpayable",
      "type": "function"
    },
    {
      "inputs": [
        {
          "internalType": "address",
          "name": "datatokenAddress",
          "type": "address"
        },
        {
          "internalType": "address",
          "name": "userAddress",
          "type": "address"
        },
        {
          "internalType": "address",
          "name": "tokenIn",
          "type": "address"
        },
        {
          "internalType": "uint256",
          "name": "maxTokenAmountIn",
          "type": "uint256"
        },
        {
          "internalType": "address",
          "name": "tokenOut",
          "type": "address"
        },
        {
          "internalType": "uint256",
          "name": "amountOut",
          "type": "uint256"
        }
      ],
      "name": "swapExactAmountOut",
      "outputs": [
        {
          "internalType": "uint256",
          "name": "tokenAmountIn",
          "type": "uint256"
        }
      ],
      "stateMutability": "nonpayable",
      "type": "function"
    }
  ],
  "bytecode": "0x608060405234801561001057600080fd5b50612803806100206000396000f3fe608060405234801561001057600080fd5b50600436106101425760003560e01c806392f6cb67116100b8578063c4be24901161007c578063c4be249014610296578063cc49ede7146102a9578063cf268dea146102bc578063efd48103146102cf578063f03cd396146102e2578063fa93fd6d146102f557610142565b806392f6cb671461023557806399039fcf14610248578063bccf74fe1461025d578063bee3913d14610270578063c1b4904d1461028357610142565b806330c157011161010a57806330c15701146101d65780633e6d363f146101e957806353f0c3b4146101fc578063799ece851461020f5780637eaf89011461018357806388afadce1461022257610142565b80631228cbee146101475780631f16cde61461017057806324571dd7146101835780632686375b146101a357806326b1f01f146101c3575b600080fd5b61015a61015536600461213e565b610308565b6040516101679190612453565b60405180910390f35b61015a61017e36600461213e565b61035a565b610196610191366004612369565b6103ae565b60405161016791906124de565b6101b66101b136600461213e565b61042d565b60405161016791906126eb565b6101966101d1366004612329565b610479565b6101b66101e43660046122ba565b61060e565b6101b66101f73660046122ba565b6108c4565b61019661020a366004612176565b610c10565b6101b661021d36600461213e565b611422565b6101b661023036600461213e565b61146e565b6101b661024336600461226a565b6114ce565b61025b610256366004612329565b611511565b005b6101b661026b36600461213e565b611665565b6101b661027e36600461226a565b6116b1565b6101b661029136600461213e565b6116e9565b6101b66102a436600461213e565b611735565b61025b6102b736600461213e565b611781565b61025b6102ca366004612329565b6119e2565b6101966102dd366004612329565b611a9d565b6101b66102f036600461213e565b611b42565b61015a61030336600461213e565b611b8e565b6001600160a01b03811660009081526020819052604081205460ff16151560011461033557506000610355565b506001600160a01b03808216600090815260208190526040902060010154165b919050565b6001600160a01b03811660009081526020819052604081205460ff16151560011461038757506000610355565b506001600160a01b0390811660009081526020819052604090206007015461010090041690565b6001600160a01b03851660009081526020819052604081205460ff1615156001146103db57506000610424565b6001600160a01b038681166000908152602081905260409020600101541633146104205760405162461bcd60e51b81526004016104179061260f565b60405180910390fd5b5060015b95945050505050565b6001600160a01b03811660009081526020819052604081205460ff16151560011461045a57506000610355565b506001600160a01b03166000908152602081905260409020600a015490565b6001600160a01b03831660009081526020819052604081205460ff1615156001146104a657506000610607565b6001600160a01b038481166000908152602081905260409020600101541633146104e25760405162461bcd60e51b81526004016104179061260f565b6001600160a01b03841660009081526020819052604090205460ff16151560011461050f57506000610607565b6001600160a01b0384811660009081526020819052604090205461010090048116908416141561054157506000610607565b6040516370a0823160e01b815284906000906001600160a01b038316906370a0823190610572903090600401612453565b60206040518083038186803b15801561058a57600080fd5b505afa15801561059e573d6000803e3d6000fd5b505050506040513d601f19601f820116820180604052508101906105c2919061243b565b6001600160a01b03871660009081526020819052604090206002015490915084118015906105f05750838110155b1561060057600192505050610607565b6000925050505b9392505050565b6001600160a01b03861660009081526020819052604081205460ff16151560011461064b5760405162461bcd60e51b8152600401610417906124e9565b6001600160a01b038781166000908152602081905260409020600101541633146106875760405162461bcd60e51b81526004016104179061260f565b610693878685856116b1565b9050838111156106b55760405162461bcd60e51b81526004016104179061253d565b6001600160a01b03878116600090815260208190526040908190206001015490516323b872dd60e01b81528792808416926323b872dd9261070192919091169030908790600401612467565b602060405180830381600087803b15801561071b57600080fd5b505af115801561072f573d6000803e3d6000fd5b505050506040513d601f19601f8201168201806040525081019061075391906123c7565b50876001600160a01b0316866001600160a01b031614156107d4576001600160a01b0388166000908152602081905260408120600401805485929061079990849061271e565b90915550506001600160a01b038816600090815260208190526040812060020180548492906107c990849061271e565b909155506108359050565b6001600160a01b038816600090815260208190526040812060020180548592906107ff90849061271e565b90915550506001600160a01b0388166000908152602081905260408120600401805484929061082f90849061271e565b90915550505b60405163a9059cbb60e01b815284906001600160a01b0382169063a9059cbb90610865908b90889060040161248b565b602060405180830381600087803b15801561087f57600080fd5b505af1158015610893573d6000803e3d6000fd5b505050506040513d601f19601f820116820180604052508101906108b791906123c7565b5050509695505050505050565b6001600160a01b03861660009081526020819052604081205460ff1615156001146109015760405162461bcd60e51b8152600401610417906124e9565b6001600160a01b0387811660009081526020819052604090206001015416331461093d5760405162461bcd60e51b81526004016104179061260f565b610949878685876114ce565b90508181101561096b5760405162461bcd60e51b8152600401610417906126b4565b6001600160a01b038781166000908152602081905260408082206001015490516370a0823160e01b81528893808516926370a08231926109b2929190911690600401612453565b60206040518083038186803b1580156109ca57600080fd5b505afa1580156109de573d6000803e3d6000fd5b505050506040513d601f19601f82011682018060405250810190610a02919061243b565b6001600160a01b038a8116600090815260208190526040908190206001015490516323b872dd60e01b8152929350818516926323b872dd92610a4c92169030908b90600401612467565b602060405180830381600087803b158015610a6657600080fd5b505af1158015610a7a573d6000803e3d6000fd5b505050506040513d601f19601f82011682018060405250810190610a9e91906123c7565b50886001600160a01b0316876001600160a01b03161415610b1f576001600160a01b03891660009081526020819052604081206004018054859290610ae490849061271e565b90915550506001600160a01b03891660009081526020819052604081206002018054889290610b1490849061271e565b90915550610b809050565b6001600160a01b03891660009081526020819052604081206002018054859290610b4a90849061271e565b90915550506001600160a01b03891660009081526020819052604081206004018054889290610b7a90849061271e565b90915550505b60405163a9059cbb60e01b815285906001600160a01b0382169063a9059cbb90610bb0908c90889060040161248b565b602060405180830381600087803b158015610bca57600080fd5b505af1158015610bde573d6000803e3d6000fd5b505050506040513d601f19601f82011682018060405250810190610c0291906123c7565b505050509695505050505050565b60006001600160a01b038416610c385760405162461bcd60e51b8152600401610417906125e2565b6000849050306001600160a01b0316816001600160a01b0316633018205f6040518163ffffffff1660e01b815260040160206040518083038186803b158015610c8057600080fd5b505afa158015610c94573d6000803e3d6000fd5b505050506040513d601f19601f82011682018060405250810190610cb8919061215a565b6001600160a01b031614610cde5760405162461bcd60e51b815260040161041790612574565b866001600160a01b0316816001600160a01b03166304ad79546040518163ffffffff1660e01b815260040160206040518083038186803b158015610d2157600080fd5b505afa158015610d35573d6000803e3d6000fd5b505050506040513d601f19601f82011682018060405250810190610d59919061215a565b6001600160a01b031614610d7f5760405162461bcd60e51b81526004016104179061267d565b856001600160a01b0316816001600160a01b0316634df947d06040518163ffffffff1660e01b815260040160206040518083038186803b158015610dc257600080fd5b505afa158015610dd6573d6000803e3d6000fd5b505050506040513d601f19601f82011682018060405250810190610dfa919061215a565b6001600160a01b031614610e205760405162461bcd60e51b815260040161041790612646565b604051623d104160e31b815287906001600160a01b038216906301e8820890610e4d903090600401612453565b604080518083038186803b158015610e6457600080fd5b505afa158015610e78573d6000803e3d6000fd5b505050506040513d601f19601f82011682018060405250810190610e9c91906123e1565b511515600114610ebe5760405162461bcd60e51b8152600401610417906125ab565b806001600160a01b03166340c10f1930836001600160a01b031663355274ea6040518163ffffffff1660e01b815260040160206040518083038186803b158015610f0757600080fd5b505afa158015610f1b573d6000803e3d6000fd5b505050506040513d601f19601f82011682018060405250810190610f3f919061243b565b6040518363ffffffff1660e01b8152600401610f5c92919061248b565b600060405180830381600087803b158015610f7657600080fd5b505af1158015610f8a573d6000803e3d6000fd5b50505050806001600160a01b03166318160ddd6040518163ffffffff1660e01b815260040160206040518083038186803b158015610fc757600080fd5b505afa158015610fdb573d6000803e3d6000fd5b505050506040513d601f19601f82011682018060405250810190610fff919061243b565b6040516370a0823160e01b81526001600160a01b038316906370a082319061102b903090600401612453565b60206040518083038186803b15801561104357600080fd5b505afa158015611057573d6000803e3d6000fd5b505050506040513d601f19601f8201168201806040525081019061107b919061243b565b146110985760405162461bcd60e51b815260040161041790612518565b60008790506000856001815181106110c057634e487b7160e01b600052603260045260246000fd5b6020026020010151600014156110d8575060006110dc565b5060015b6040518061020001604052806001151581526020018a6001600160a01b03168152602001896001600160a01b03168152602001600015158152602001846001600160a01b03166318160ddd6040518163ffffffff1660e01b815260040160206040518083038186803b15801561115157600080fd5b505afa158015611165573d6000803e3d6000fd5b505050506040513d601f19601f82011682018060405250810190611189919061243b565b8152602001846001600160a01b031663355274ea6040518163ffffffff1660e01b815260040160206040518083038186803b1580156111c757600080fd5b505afa1580156111db573d6000803e3d6000fd5b505050506040513d601f19601f820116820180604052508101906111ff919061243b565b81526020018760048151811061122557634e487b7160e01b600052603260045260246000fd5b60200260200101518152602001600081526020018760008151811061125a57634e487b7160e01b600052603260045260246000fd5b602002602001015181526020018215158152602001886001600160a01b03168152602001438152602001876003815181106112a557634e487b7160e01b600052603260045260246000fd5b6020026020010151436112b8919061271e565b8152602001876002815181106112de57634e487b7160e01b600052603260045260246000fd5b60209081029190910181015182524382820152600060409283018190526001600160a01b03808f1682528183529083902084518154938601518316610100908102610100600160a81b031992151560ff199687161783161783559486015160018301805460608901511515600160a01b0260ff60a01b199387166001600160a01b031990921691909117929092169190911790556080860151600283015560a0860151600383015560c0860151600483015560e08601516005830155848601516006830155610120860151600783018054610140890151909516909602901515939094169290921790911691909117909155610160820151600882015561018082015160098201556101a0820151600a8201556101c0820151600b8201556101e090910151600c909101556114128a611bdf565b5060019998505050505050505050565b6001600160a01b03811660009081526020819052604081205460ff16151560011461144f57506000610355565b506001600160a01b031660009081526020819052604090206009015490565b6001600160a01b03811660009081526020819052604081205460ff16151560011461149b57506000610355565b6001600160a01b038216600090815260208190526040902060028101546003909101546114c89190612775565b92915050565b6001600160a01b03841660009081526020819052604081205460ff1615156001146114fb57506000611509565b611506848484611f3a565b90505b949350505050565b6001600160a01b03831660009081526020819052604090205460ff16151560011461153b57611660565b6001600160a01b038381166000908152602081905260409020600101541633146115775760405162461bcd60e51b81526004016104179061260f565b6000611584848484610479565b90506001811515146115965750611660565b6001600160a01b038085166000818152602081905260409081902060010154905163095ea7b360e01b8152879363095ea7b3926115da92911690879060040161248b565b602060405180830381600087803b1580156115f457600080fd5b505af1158015611608573d6000803e3d6000fd5b505050506040513d601f19601f8201168201806040525081019061162c91906123c7565b506001600160a01b03851660009081526020819052604081206002018054859290611658908490612775565b909155505050505b505050565b6001600160a01b03811660009081526020819052604081205460ff16151560011461169257506000610355565b506001600160a01b03166000908152602081905260409020600c015490565b6001600160a01b03841660009081526020819052604081205460ff1615156001146116de57506000611509565b61150684848461202f565b6001600160a01b03811660009081526020819052604081205460ff16151560011461171657506000610355565b506001600160a01b031660009081526020819052604090206002015490565b6001600160a01b03811660009081526020819052604081205460ff16151560011461176257506000610355565b506001600160a01b031660009081526020819052604090206004015490565b6001600160a01b03811660009081526020819052604090205460ff1615156001146117be5760405162461bcd60e51b8152600401610417906124e9565b6001600160a01b038116600090815260208190526040812060090154431115611815576001600160a01b0382166000908152602081905260409020600b81015460099091015461180e9190612775565b905061183e565b6001600160a01b0382166000908152602081905260409020600b015461183b9043612775565b90505b6001600160a01b038216600090815260208190526040812060088101546009909101546118909161186e91612775565b6001600160a01b0385166000908152602081905260409020600a015490612116565b90508061189e5750506119df565b60006118aa8383612122565b90506000811180156118d757506001600160a01b0384166000908152602081905260409020600201548111155b156119db576001600160a01b038085166000818152602081905260409081902043600b82015560070154905163a9059cbb60e01b8152879363a9059cbb9261192d9261010090910490911690869060040161248b565b602060405180830381600087803b15801561194757600080fd5b505af115801561195b573d6000803e3d6000fd5b505050506040513d601f19601f8201168201806040525081019061197f91906123c7565b506001600160a01b038516600090815260208190526040812060020180548492906119ab908490612775565b90915550506001600160a01b0385166000908152602081905260408120600c01805484929061165890849061271e565b5050505b50565b6001600160a01b03831660009081526020819052604090205460ff161515600114611a0c57611660565b6001600160a01b03838116600090815260208190526040902060010154163314611a485760405162461bcd60e51b81526004016104179061260f565b6000611a55848484611a9d565b9050600181151514611a675750611660565b6001600160a01b03841660009081526020819052604081206002018054849290611a9290849061271e565b909155505050505050565b6001600160a01b03831660009081526020819052604081205460ff161515600114611aca57506000610607565b6001600160a01b03848116600090815260208190526040902060010154163314611b065760405162461bcd60e51b81526004016104179061260f565b6001600160a01b03848116600090815260208190526040902054610100900481169084161415611b3857506000610607565b5060019392505050565b6001600160a01b03811660009081526020819052604081205460ff161515600114611b6f57506000610355565b506001600160a01b03166000908152602081905260409020600b015490565b6001600160a01b03811660009081526020819052604081205460ff161515600114611bbb57506000610355565b506001600160a01b0390811660009081526020819052604090205461010090041690565b6001600160a01b03811660009081526020819052604090205460ff161515600114611c09576119df565b6001600160a01b0381166000908152602081905260409020600190810154600160a01b900460ff1615151415611c3e576119df565b6001600160a01b0381166000908152602081905260408120600101805460ff60a01b1916600160a01b179055611c7d670de0b6b3a76400006005612756565b90506000611c94670de0b6b3a76400006005612756565b6001600160a01b038416600090815260208190526040812060040154919250670de0b6b3a764000083611cc78685612736565b6001600160a01b038816600090815260208190526040902060060154611ced9190612756565b611cf79190612756565b611d019190612736565b6001600160a01b038087166000818152602081905260409081902060010154905163095ea7b360e01b81529394508893919263095ea7b392611d4b9290911690869060040161248b565b602060405180830381600087803b158015611d6557600080fd5b505af1158015611d79573d6000803e3d6000fd5b505050506040513d601f19601f82011682018060405250810190611d9d91906123c7565b506001600160a01b03808716600090815260208190526040908190208054600190910154915163095ea7b360e01b8152610100909104831692839263095ea7b392611df1929190911690889060040161248b565b602060405180830381600087803b158015611e0b57600080fd5b505af1158015611e1f573d6000803e3d6000fd5b505050506040513d601f19601f82011682018060405250810190611e4391906123c7565b506001600160a01b03808816600090815260208190526040908190206001810154905491516309ef3f5b60e01b81529083169283926309ef3f5b92611e9e928d928a928d92610100909204909116908c908f906004016124a4565b600060405180830381600087803b158015611eb857600080fd5b505af1158015611ecc573d6000803e3d6000fd5b505050506001600160a01b03881660009081526020819052604081206004018054879290611efb908490612775565b90915550506001600160a01b03881660009081526020819052604081206002018054869290611f2b908490612775565b90915550505050505050505050565b6001600160a01b03831660009081526020819052604081205460ff16151560011415611fcd576001600160a01b03841660009081526020819052604090206007015460ff16611f8b57506000610607565b6001600160a01b038416600090815260208190526040902060060154611fc690670de0b6b3a764000090611fc0908590612122565b90612116565b9050610607565b6001600160a01b03831660009081526020819052604090205460ff16151560011415612025576001600160a01b038316600090815260208190526040902060060154611fc690611fc084670de0b6b3a7640000612122565b5060009392505050565b6001600160a01b03831660009081526020819052604081205460ff161515600114156120bb576001600160a01b03841660009081526020819052604090206007015460ff1661208057506000610607565b6001600160a01b0384166000908152602081905260408120600601546120b290611fc085670de0b6b3a7640000612122565b91506106079050565b6001600160a01b03831660009081526020819052604090205460ff16151560011415612025576001600160a01b0383166000908152602081905260408120600601546120b290670de0b6b3a764000090611fc0908690612122565b60006106078284612736565b60006106078284612756565b8051801515811461035557600080fd5b60006020828403121561214f578081fd5b8135610607816127b8565b60006020828403121561216b578081fd5b8151610607816127b8565b600080600080600060a0868803121561218d578081fd5b8535612198816127b8565b94506020868101356121a9816127b8565b945060408701356121b9816127b8565b935060608701356121c9816127b8565b9250608087013567ffffffffffffffff808211156121e5578384fd5b818901915089601f8301126121f8578384fd5b81358181111561220a5761220a6127a2565b838102915061221a8483016126f4565b8181528481019084860184860187018e1015612234578788fd5b8795505b83861015612256578035835260019590950194918601918601612238565b508096505050505050509295509295909350565b6000806000806080858703121561227f578384fd5b843561228a816127b8565b9350602085013561229a816127b8565b925060408501356122aa816127b8565b9396929550929360600135925050565b60008060008060008060c087890312156122d2578081fd5b86356122dd816127b8565b955060208701356122ed816127b8565b945060408701356122fd816127b8565b9350606087013592506080870135612314816127b8565b8092505060a087013590509295509295509295565b60008060006060848603121561233d578283fd5b8335612348816127b8565b92506020840135612358816127b8565b929592945050506040919091013590565b600080600080600060a08688031215612380578081fd5b853561238b816127b8565b9450602086013561239b816127b8565b9350604086013592506060860135915060808601356123b9816127b8565b809150509295509295909350565b6000602082840312156123d8578081fd5b6106078261212e565b6000604082840312156123f2578081fd5b6040516040810181811067ffffffffffffffff82111715612415576124156127a2565b6040526124218361212e565b815261242f6020840161212e565b60208201529392505050565b60006020828403121561244c578081fd5b5051919050565b6001600160a01b0391909116815260200190565b6001600160a01b039384168152919092166020820152604081019190915260600190565b6001600160a01b03929092168252602082015260400190565b6001600160a01b0396871681526020810195909552604085019390935293166060830152608082019290925260a081019190915260c00190565b901515815260200190565b60208082526015908201527422a9291d24b73b30b634b2103230ba30ba37b5b2b760591b604082015260600190565b6020808252600b908201526a135a5b9d0819985a5b195960aa1b604082015260600190565b6020808252601d908201527f4552523a6d6178546f6b656e416d6f756e74496e206e6f74206d656574000000604082015260600190565b6020808252601e908201527f576520617265206e6f742074686520706f6f6c20636f6e74726f6c6c65720000604082015260600190565b6020808252601a908201527f42617365546f6b656e2061646472657373206d69736d61746368000000000000604082015260600190565b602080825260139082015272496e76616c696420706f6f6c4164647265737360681b604082015260600190565b6020808252601c908201527f4552523a204f6e6c7920706f6f6c2063616e2063616c6c207468697300000000604082015260600190565b6020808252601b908201527f42617365546f6b656e2061646472657373206d6973736d617463680000000000604082015260600190565b6020808252601b908201527f44617461546f6b656e2061646472657373206d6973736d617463680000000000604082015260600190565b60208082526019908201527f4552523a6d696e416d6f756e744f7574206e6f74206d65657400000000000000604082015260600190565b90815260200190565b60405181810167ffffffffffffffff81118282101715612716576127166127a2565b604052919050565b600082198211156127315761273161278c565b500190565b60008261275157634e487b7160e01b81526012600452602481fd5b500490565b60008160001904831182151516156127705761277061278c565b500290565b6000828210156127875761278761278c565b500390565b634e487b7160e01b600052601160045260246000fd5b634e487b7160e01b600052604160045260246000fd5b6001600160a01b03811681146119df57600080fdfea264697066735822122025b1491acb4ad84b441e7838755933dbc831c1358bc57768dd3c50fc65a2616164736f6c63430008000033",
  "linkReferences": {},
  "deployedLinkReferences": {}
}