{
  "_format": "hh-sol-artifact-1",
  "contractName": "ssFixedRate",
  "sourceName": "contracts/ssContracts/ssFixedRate.sol",
  "abi": [
    {
      "inputs": [],
      "stateMutability": "nonpayable",
      "type": "constructor"
    },
    {
      "inputs": [
        {
          "internalType": "address",
          "name": "datatokenAddress",
          "type": "address"
        },
        {
          "internalType": "address",
          "name": "stakeToken",
          "type": "address"
        },
        {
          "internalType": "uint256",
          "name": "amount",
          "type": "uint256"
        }
      ],
      "name": "Stake",
      "outputs": [],
      "stateMutability": "nonpayable",
      "type": "function"
    },
    {
      "inputs": [
        {
          "internalType": "address",
          "name": "datatokenAddress",
          "type": "address"
        },
        {
          "internalType": "address",
          "name": "stakeToken",
          "type": "address"
        },
        {
          "internalType": "uint256",
          "name": "amount",
          "type": "uint256"
        }
      ],
      "name": "UnStake",
      "outputs": [],
      "stateMutability": "nonpayable",
      "type": "function"
    },
    {
      "inputs": [
        {
          "internalType": "address",
          "name": "datatokenAddress",
          "type": "address"
        },
        {
          "internalType": "address",
          "name": "basetoken",
          "type": "address"
        },
        {
          "internalType": "uint256",
          "name": "datatokenAmount",
          "type": "uint256"
        },
        {
          "internalType": "uint256",
          "name": "basetokenAmount",
          "type": "uint256"
        },
        {
          "internalType": "address",
          "name": "userAddress",
          "type": "address"
        }
      ],
      "name": "allowStake",
      "outputs": [
        {
          "internalType": "bool",
          "name": "",
          "type": "bool"
        }
      ],
      "stateMutability": "view",
      "type": "function"
    },
    {
      "inputs": [
        {
          "internalType": "address",
          "name": "datatokenAddress",
          "type": "address"
        },
        {
          "internalType": "address",
          "name": "basetoken",
          "type": "address"
        },
        {
          "internalType": "uint256",
          "name": "datatokenAmount",
          "type": "uint256"
        },
        {
          "internalType": "uint256",
          "name": "basetokenAmount",
          "type": "uint256"
        },
        {
          "internalType": "address",
          "name": "userAddress",
          "type": "address"
        }
      ],
      "name": "allowUnStake",
      "outputs": [
        {
          "internalType": "bool",
          "name": "",
          "type": "bool"
        }
      ],
      "stateMutability": "view",
      "type": "function"
    },
    {
      "inputs": [
        {
          "internalType": "address",
          "name": "datatokenAddress",
          "type": "address"
        },
        {
          "internalType": "address",
          "name": "tokenIn",
          "type": "address"
        },
        {
          "internalType": "address",
          "name": "tokenOut",
          "type": "address"
        },
        {
          "internalType": "uint256",
          "name": "tokenAmountOut",
          "type": "uint256"
        }
      ],
      "name": "calcInGivenOut",
      "outputs": [
        {
          "internalType": "uint256",
          "name": "",
          "type": "uint256"
        }
      ],
      "stateMutability": "view",
      "type": "function"
    },
    {
      "inputs": [
        {
          "internalType": "address",
          "name": "datatokenAddress",
          "type": "address"
        },
        {
          "internalType": "address",
          "name": "tokenIn",
          "type": "address"
        },
        {
          "internalType": "address",
          "name": "tokenOut",
          "type": "address"
        },
        {
          "internalType": "uint256",
          "name": "tokenAmountIn",
          "type": "uint256"
        }
      ],
      "name": "calcOutGivenIn",
      "outputs": [
        {
          "internalType": "uint256",
          "name": "",
          "type": "uint256"
        }
      ],
      "stateMutability": "view",
      "type": "function"
    },
    {
      "inputs": [
        {
          "internalType": "address",
          "name": "datatokenAddress",
          "type": "address"
        },
        {
          "internalType": "address",
          "name": "stakeToken",
          "type": "address"
        },
        {
          "internalType": "uint256",
          "name": "amount",
          "type": "uint256"
        }
      ],
      "name": "canStake",
      "outputs": [
        {
          "internalType": "bool",
          "name": "",
          "type": "bool"
        }
      ],
      "stateMutability": "view",
      "type": "function"
    },
    {
      "inputs": [
        {
          "internalType": "address",
          "name": "datatokenAddress",
          "type": "address"
        },
        {
          "internalType": "address",
          "name": "stakeToken",
          "type": "address"
        },
        {
          "internalType": "uint256",
          "name": "amount",
          "type": "uint256"
        }
      ],
      "name": "canUnStake",
      "outputs": [
        {
          "internalType": "bool",
          "name": "",
          "type": "bool"
        }
      ],
      "stateMutability": "view",
      "type": "function"
    },
    {
      "inputs": [
        {
          "internalType": "address",
          "name": "datatokenAddress",
          "type": "address"
        }
      ],
      "name": "getBaseTokenAddress",
      "outputs": [
        {
          "internalType": "address",
          "name": "",
          "type": "address"
        }
      ],
      "stateMutability": "view",
      "type": "function"
    },
    {
      "inputs": [
        {
          "internalType": "address",
          "name": "datatokenAddress",
          "type": "address"
        }
      ],
      "name": "getBaseTokenBalance",
      "outputs": [
        {
          "internalType": "uint256",
          "name": "",
          "type": "uint256"
        }
      ],
      "stateMutability": "view",
      "type": "function"
    },
    {
      "inputs": [
        {
          "internalType": "address",
          "name": "datatokenAddress",
          "type": "address"
        }
      ],
      "name": "getDataTokenBalance",
      "outputs": [
        {
          "internalType": "uint256",
          "name": "",
          "type": "uint256"
        }
      ],
      "stateMutability": "view",
      "type": "function"
    },
    {
      "inputs": [
        {
          "internalType": "address",
          "name": "datatokenAddress",
          "type": "address"
        }
      ],
      "name": "getDataTokenCirculatingSupply",
      "outputs": [
        {
          "internalType": "uint256",
          "name": "",
          "type": "uint256"
        }
      ],
      "stateMutability": "view",
      "type": "function"
    },
    {
      "inputs": [
        {
          "internalType": "address",
          "name": "datatokenAddress",
          "type": "address"
        }
      ],
      "name": "getPoolAddress",
      "outputs": [
        {
          "internalType": "address",
          "name": "",
          "type": "address"
        }
      ],
      "stateMutability": "view",
      "type": "function"
    },
    {
      "inputs": [
        {
          "internalType": "address",
          "name": "datatokenAddress",
          "type": "address"
        }
      ],
      "name": "getPublisherAddress",
      "outputs": [
        {
          "internalType": "address",
          "name": "",
          "type": "address"
        }
      ],
      "stateMutability": "view",
      "type": "function"
    },
    {
      "inputs": [
        {
          "internalType": "address",
          "name": "datatokenAddress",
          "type": "address"
        }
      ],
      "name": "getVesting",
      "outputs": [],
      "stateMutability": "nonpayable",
      "type": "function"
    },
    {
      "inputs": [
        {
          "internalType": "address",
          "name": "datatokenAddress",
          "type": "address"
        }
      ],
      "name": "getburnInEndBlock",
      "outputs": [
        {
          "internalType": "uint256",
          "name": "",
          "type": "uint256"
        }
      ],
      "stateMutability": "view",
      "type": "function"
    },
    {
      "inputs": [
        {
          "internalType": "address",
          "name": "datatokenAddress",
          "type": "address"
        }
      ],
      "name": "getvestingAmount",
      "outputs": [
        {
          "internalType": "uint256",
          "name": "",
          "type": "uint256"
        }
      ],
      "stateMutability": "view",
      "type": "function"
    },
    {
      "inputs": [
        {
          "internalType": "address",
          "name": "datatokenAddress",
          "type": "address"
        }
      ],
      "name": "getvestingAmountSoFar",
      "outputs": [
        {
          "internalType": "uint256",
          "name": "",
          "type": "uint256"
        }
      ],
      "stateMutability": "view",
      "type": "function"
    },
    {
      "inputs": [
        {
          "internalType": "address",
          "name": "datatokenAddress",
          "type": "address"
        }
      ],
      "name": "getvestingEndBlock",
      "outputs": [
        {
          "internalType": "uint256",
          "name": "",
          "type": "uint256"
        }
      ],
      "stateMutability": "view",
      "type": "function"
    },
    {
      "inputs": [
        {
          "internalType": "address",
          "name": "datatokenAddress",
          "type": "address"
        }
      ],
      "name": "getvestingLastBlock",
      "outputs": [
        {
          "internalType": "uint256",
          "name": "",
          "type": "uint256"
        }
      ],
      "stateMutability": "view",
      "type": "function"
    },
    {
      "inputs": [
        {
          "internalType": "address",
          "name": "datatokenAddress",
          "type": "address"
        }
      ],
      "name": "isInBurnIn",
      "outputs": [
        {
          "internalType": "bool",
          "name": "",
          "type": "bool"
        }
      ],
      "stateMutability": "view",
      "type": "function"
    },
    {
      "inputs": [
        {
          "internalType": "address",
          "name": "datatokenAddress",
          "type": "address"
        },
        {
          "internalType": "address",
          "name": "basetokenAddress",
          "type": "address"
        },
        {
          "internalType": "address",
          "name": "poolAddress",
          "type": "address"
        },
        {
          "internalType": "address",
          "name": "publisherAddress",
          "type": "address"
        },
        {
          "internalType": "uint256",
          "name": "burnInEndBlock",
          "type": "uint256"
        },
        {
          "internalType": "uint256[]",
          "name": "ssParams",
          "type": "uint256[]"
        }
      ],
      "name": "newDataTokenCreated",
      "outputs": [
        {
          "internalType": "bool",
          "name": "",
          "type": "bool"
        }
      ],
      "stateMutability": "nonpayable",
      "type": "function"
    },
    {
      "inputs": [
        {
          "internalType": "address",
          "name": "datatokenAddress",
          "type": "address"
        },
        {
          "internalType": "address",
          "name": "userAddress",
          "type": "address"
        },
        {
          "internalType": "address",
          "name": "tokenIn",
          "type": "address"
        },
        {
          "internalType": "uint256",
          "name": "tokenAmountIn",
          "type": "uint256"
        },
        {
          "internalType": "address",
          "name": "tokenOut",
          "type": "address"
        },
        {
          "internalType": "uint256",
          "name": "minAmountOut",
          "type": "uint256"
        }
      ],
      "name": "swapExactAmountIn",
      "outputs": [
        {
          "internalType": "uint256",
          "name": "tokenAmountOut",
          "type": "uint256"
        }
      ],
      "stateMutability": "nonpayable",
      "type": "function"
    },
    {
      "inputs": [
        {
          "internalType": "address",
          "name": "datatokenAddress",
          "type": "address"
        },
        {
          "internalType": "address",
          "name": "userAddress",
          "type": "address"
        },
        {
          "internalType": "address",
          "name": "tokenIn",
          "type": "address"
        },
        {
          "internalType": "uint256",
          "name": "maxTokenAmountIn",
          "type": "uint256"
        },
        {
          "internalType": "address",
          "name": "tokenOut",
          "type": "address"
        },
        {
          "internalType": "uint256",
          "name": "amountOut",
          "type": "uint256"
        }
      ],
      "name": "swapExactAmountOut",
      "outputs": [
        {
          "internalType": "uint256",
          "name": "tokenAmountIn",
          "type": "uint256"
        }
      ],
      "stateMutability": "nonpayable",
      "type": "function"
    }
  ],
  "bytecode": "0x608060405234801561001057600080fd5b50612f75806100206000396000f3fe608060405234801561001057600080fd5b50600436106101585760003560e01c806392f6cb67116100c3578063cc49ede71161007c578063cc49ede7146102d2578063cf268dea146102e5578063efd48103146102f8578063f03cd3961461030b578063f09a9c051461031e578063fa93fd6d1461033157610158565b806392f6cb671461025e57806399039fcf14610271578063bccf74fe14610286578063bee3913d14610299578063c1b4904d146102ac578063c4be2490146102bf57610158565b806330c157011161011557806330c15701146101ff5780633e6d363f146102125780634f3e66dc14610225578063799ece85146102385780637eaf8901146101b957806388afadce1461024b57610158565b80630734b5b11461015d5780631228cbee146101865780631f16cde6146101a657806324571dd7146101b95780632686375b146101cc57806326b1f01f146101ec575b600080fd5b61017061016b366004612797565b610344565b60405161017d9190612b8a565b60405180910390f35b610199610194366004612797565b6103a5565b60405161017d9190612aff565b6101996101b4366004612797565b6103f4565b6101706101c73660046129ca565b610448565b6101df6101da366004612797565b6104e2565b60405161017d9190612e44565b6101706101fa36600461298a565b61052e565b6101df61020d36600461291b565b6106c3565b6101df61022036600461291b565b6109cc565b6101706102333660046127cf565b610dbe565b6101df610246366004612797565b61178f565b6101df610259366004612797565b6117db565b6101df61026c3660046128cb565b61183b565b61028461027f36600461298a565b61187e565b005b6101df610294366004612797565b6119d2565b6101df6102a73660046128cb565b611a1e565b6101df6102ba366004612797565b611a56565b6101df6102cd366004612797565b611aa2565b6102846102e0366004612797565b611aee565b6102846102f336600461298a565b611d3f565b61017061030636600461298a565b611dfa565b6101df610319366004612797565b611e9f565b6101df61032c366004612797565b611eeb565b61019961033f366004612797565b611f37565b6001600160a01b03811660009081526020819052604081205460ff161515600114610371575060006103a0565b6001600160a01b03821660009081526020819052604090206006015443111561039c575060006103a0565b5060015b919050565b6001600160a01b03811660009081526020819052604081205460ff1615156001146103d2575060006103a0565b506001600160a01b039081166000908152602081905260409020600101541690565b6001600160a01b03811660009081526020819052604081205460ff161515600114610421575060006103a0565b506001600160a01b0390811660009081526020819052604090206008015461010090041690565b6001600160a01b03851660009081526020819052604081205460ff161515600114610475575060006104d9565b6001600160a01b038681166000908152602081905260409020600101541633146104ba5760405162461bcd60e51b81526004016104b190612d27565b60405180910390fd5b6104c386610344565b1515600114156104d5575060006104d9565b5060015b95945050505050565b6001600160a01b03811660009081526020819052604081205460ff16151560011461050f575060006103a0565b506001600160a01b03166000908152602081905260409020600b015490565b6001600160a01b03831660009081526020819052604081205460ff16151560011461055b575060006106bc565b6001600160a01b038481166000908152602081905260409020600101541633146105975760405162461bcd60e51b81526004016104b190612d27565b6001600160a01b03841660009081526020819052604090205460ff1615156001146105c4575060006106bc565b6001600160a01b038481166000908152602081905260409020546101009004811690841614156105f6575060006106bc565b6040516370a0823160e01b815284906000906001600160a01b038316906370a0823190610627903090600401612aff565b60206040518083038186803b15801561063f57600080fd5b505afa158015610653573d6000803e3d6000fd5b505050506040513d601f19601f820116820180604052508101906106779190612a9c565b6001600160a01b03871660009081526020819052604090206002015490915084118015906106a55750838110155b156106b5576001925050506106bc565b6000925050505b9392505050565b6001600160a01b03861660009081526020819052604081205460ff1615156001146107005760405162461bcd60e51b81526004016104b190612bca565b6001600160a01b0387811660009081526020819052604090206001015416331461073c5760405162461bcd60e51b81526004016104b190612d27565b61074587610344565b15156001146107665760405162461bcd60e51b81526004016104b190612cf0565b61077287868585611a1e565b905061079d604051806040016040528060078152602001661cdcd19a5e195960ca1b81525082611f88565b838111156107bd5760405162461bcd60e51b81526004016104b190612c1e565b6001600160a01b03878116600090815260208190526040908190206001015490516323b872dd60e01b81528792808416926323b872dd9261080992919091169030908790600401612b13565b602060405180830381600087803b15801561082357600080fd5b505af1158015610837573d6000803e3d6000fd5b505050506040513d601f19601f8201168201806040525081019061085b9190612a28565b50876001600160a01b0316866001600160a01b031614156108dc576001600160a01b038816600090815260208190526040812060040180548592906108a1908490612e90565b90915550506001600160a01b038816600090815260208190526040812060020180548492906108d1908490612e90565b9091555061093d9050565b6001600160a01b03881660009081526020819052604081206002018054859290610907908490612e90565b90915550506001600160a01b03881660009081526020819052604081206004018054849290610937908490612e90565b90915550505b60405163a9059cbb60e01b815284906001600160a01b0382169063a9059cbb9061096d908b908890600401612b37565b602060405180830381600087803b15801561098757600080fd5b505af115801561099b573d6000803e3d6000fd5b505050506040513d601f19601f820116820180604052508101906109bf9190612a28565b5050509695505050505050565b6001600160a01b03861660009081526020819052604081205460ff161515600114610a095760405162461bcd60e51b81526004016104b190612bca565b6001600160a01b03878116600090815260208190526040902060010154163314610a455760405162461bcd60e51b81526004016104b190612d27565b610a4e87610344565b1515600114610a6f5760405162461bcd60e51b81526004016104b190612cf0565b610a7b8786858761183b565b905081811015610a9d5760405162461bcd60e51b81526004016104b190612e0d565b6040805180820190915260048152631d195cdd60e21b60208201528590610ac390611fd1565b6001600160a01b03808916600090815260208190526040902060010154610aea9116612014565b610af385612057565b6001600160a01b038881166000908152602081905260408082206001015490516370a0823160e01b81529192808516926370a0823192610b37921690600401612aff565b60206040518083038186803b158015610b4f57600080fd5b505afa158015610b63573d6000803e3d6000fd5b505050506040513d601f19601f82011682018060405250810190610b879190612a9c565b9050610bb26040518060400160405280600781526020016662616c616e636560c81b81525082611f88565b6001600160a01b03898116600090815260208190526040908190206001015490516323b872dd60e01b8152828516926323b872dd92610bfa9291169030908b90600401612b13565b602060405180830381600087803b158015610c1457600080fd5b505af1158015610c28573d6000803e3d6000fd5b505050506040513d601f19601f82011682018060405250810190610c4c9190612a28565b50886001600160a01b0316876001600160a01b03161415610ccd576001600160a01b03891660009081526020819052604081206004018054859290610c92908490612e90565b90915550506001600160a01b03891660009081526020819052604081206002018054889290610cc2908490612e90565b90915550610d2e9050565b6001600160a01b03891660009081526020819052604081206002018054859290610cf8908490612e90565b90915550506001600160a01b03891660009081526020819052604081206004018054889290610d28908490612e90565b90915550505b60405163a9059cbb60e01b815285906001600160a01b0382169063a9059cbb90610d5e908c908890600401612b37565b602060405180830381600087803b158015610d7857600080fd5b505af1158015610d8c573d6000803e3d6000fd5b505050506040513d601f19601f82011682018060405250810190610db09190612a28565b505050509695505050505050565b60006001600160a01b038516610de65760405162461bcd60e51b81526004016104b190612cc3565b6000859050306001600160a01b0316816001600160a01b0316633018205f6040518163ffffffff1660e01b815260040160206040518083038186803b158015610e2e57600080fd5b505afa158015610e42573d6000803e3d6000fd5b505050506040513d601f19601f82011682018060405250810190610e6691906127b3565b6001600160a01b031614610e8c5760405162461bcd60e51b81526004016104b190612c55565b876001600160a01b0316816001600160a01b03166304ad79546040518163ffffffff1660e01b815260040160206040518083038186803b158015610ecf57600080fd5b505afa158015610ee3573d6000803e3d6000fd5b505050506040513d601f19601f82011682018060405250810190610f0791906127b3565b6001600160a01b031614610f2d5760405162461bcd60e51b81526004016104b190612d95565b866001600160a01b0316816001600160a01b0316634df947d06040518163ffffffff1660e01b815260040160206040518083038186803b158015610f7057600080fd5b505afa158015610f84573d6000803e3d6000fd5b505050506040513d601f19601f82011682018060405250810190610fa891906127b3565b6001600160a01b031614610fce5760405162461bcd60e51b81526004016104b190612d5e565b604051623d104160e31b815288906001600160a01b038216906301e8820890610ffb903090600401612aff565b604080518083038186803b15801561101257600080fd5b505afa158015611026573d6000803e3d6000fd5b505050506040513d601f19601f8201168201806040525081019061104a9190612a42565b51151560011461106c5760405162461bcd60e51b81526004016104b190612c8c565b806001600160a01b03166340c10f1930836001600160a01b031663355274ea6040518163ffffffff1660e01b815260040160206040518083038186803b1580156110b557600080fd5b505afa1580156110c9573d6000803e3d6000fd5b505050506040513d601f19601f820116820180604052508101906110ed9190612a9c565b6040518363ffffffff1660e01b815260040161110a929190612b37565b600060405180830381600087803b15801561112457600080fd5b505af1158015611138573d6000803e3d6000fd5b50505050806001600160a01b03166318160ddd6040518163ffffffff1660e01b815260040160206040518083038186803b15801561117557600080fd5b505afa158015611189573d6000803e3d6000fd5b505050506040513d601f19601f820116820180604052508101906111ad9190612a9c565b6040516370a0823160e01b81526001600160a01b038316906370a08231906111d9903090600401612aff565b60206040518083038186803b1580156111f157600080fd5b505afa158015611205573d6000803e3d6000fd5b505050506040513d601f19601f820116820180604052508101906112299190612a9c565b146112465760405162461bcd60e51b81526004016104b190612bf9565b61126b604051806040016040528060048152602001636865726560e01b815250611fd1565b6040516370a0823160e01b81526112f0906001600160a01b038316906370a082319061129b903090600401612aff565b60206040518083038186803b1580156112b357600080fd5b505afa1580156112c7573d6000803e3d6000fd5b505050506040513d601f19601f820116820180604052508101906112eb9190612a9c565b612057565b604080518082018252600581526427a1a2a0a760d91b602082015290516370a0823160e01b81528991611391916001600160a01b038416906370a082319061133c903090600401612aff565b60206040518083038186803b15801561135457600080fd5b505afa158015611368573d6000803e3d6000fd5b505050506040513d601f19601f8201168201806040525081019061138c9190612a9c565b611f88565b6000856001815181106113b457634e487b7160e01b600052603260045260246000fd5b6020026020010151600014156113cc575060006113d0565b5060015b6040518061022001604052806001151581526020018b6001600160a01b031681526020018a6001600160a01b03168152602001600015158152602001846001600160a01b03166318160ddd6040518163ffffffff1660e01b815260040160206040518083038186803b15801561144557600080fd5b505afa158015611459573d6000803e3d6000fd5b505050506040513d601f19601f8201168201806040525081019061147d9190612a9c565b8152602001846001600160a01b031663355274ea6040518163ffffffff1660e01b815260040160206040518083038186803b1580156114bb57600080fd5b505afa1580156114cf573d6000803e3d6000fd5b505050506040513d601f19601f820116820180604052508101906114f39190612a9c565b81526020018760048151811061151957634e487b7160e01b600052603260045260246000fd5b60200260200101518152602001600081526020018881526020018760008151811061155457634e487b7160e01b600052603260045260246000fd5b602002602001015181526020018215158152602001896001600160a01b031681526020014381526020018760038151811061159f57634e487b7160e01b600052603260045260246000fd5b6020026020010151436115b29190612e90565b8152602001876002815181106115d857634e487b7160e01b600052603260045260246000fd5b6020026020010151815260200143815260200160008152506000808d6001600160a01b03166001600160a01b0316815260200190815260200160002060008201518160000160006101000a81548160ff02191690831515021790555060208201518160000160016101000a8154816001600160a01b0302191690836001600160a01b0316021790555060408201518160010160006101000a8154816001600160a01b0302191690836001600160a01b0316021790555060608201518160010160146101000a81548160ff0219169083151502179055506080820151816002015560a0820151816003015560c0820151816004015560e08201518160050155610100820151816006015561012082015181600701556101408201518160080160006101000a81548160ff0219169083151502179055506101608201518160080160016101000a8154816001600160a01b0302191690836001600160a01b0316021790555061018082015181600901556101a082015181600a01556101c082015181600b01556101e082015181600c015561020082015181600d015590505061177e8b61209a565b5060019a9950505050505050505050565b6001600160a01b03811660009081526020819052604081205460ff1615156001146117bc575060006103a0565b506001600160a01b03166000908152602081905260409020600a015490565b6001600160a01b03811660009081526020819052604081205460ff161515600114611808575060006103a0565b6001600160a01b038216600090815260208190526040902060028101546003909101546118359190612ee7565b92915050565b6001600160a01b03841660009081526020819052604081205460ff16151560011461186857506000611876565b611873848484612426565b90505b949350505050565b6001600160a01b03831660009081526020819052604090205460ff1615156001146118a8576119cd565b6001600160a01b038381166000908152602081905260409020600101541633146118e45760405162461bcd60e51b81526004016104b190612d27565b60006118f184848461052e565b905060018115151461190357506119cd565b6001600160a01b038085166000818152602081905260409081902060010154905163095ea7b360e01b8152879363095ea7b392611947929116908790600401612b37565b602060405180830381600087803b15801561196157600080fd5b505af1158015611975573d6000803e3d6000fd5b505050506040513d601f19601f820116820180604052508101906119999190612a28565b506001600160a01b038516600090815260208190526040812060020180548592906119c5908490612ee7565b909155505050505b505050565b6001600160a01b03811660009081526020819052604081205460ff1615156001146119ff575060006103a0565b506001600160a01b03166000908152602081905260409020600d015490565b6001600160a01b03841660009081526020819052604081205460ff161515600114611a4b57506000611876565b611873848484612622565b6001600160a01b03811660009081526020819052604081205460ff161515600114611a83575060006103a0565b506001600160a01b031660009081526020819052604090206002015490565b6001600160a01b03811660009081526020819052604081205460ff161515600114611acf575060006103a0565b506001600160a01b031660009081526020819052604090206004015490565b6001600160a01b03811660009081526020819052604090205460ff161515600114611b2b5760405162461bcd60e51b81526004016104b190612bca565b6001600160a01b038181166000908152602081905260409020600801546101009004163314611b6c5760405162461bcd60e51b81526004016104b190612dcc565b6001600160a01b0381166000908152602081905260408120600c0154611b929043612ee7565b6001600160a01b03831660009081526020819052604081206009810154600a909101549293509091611be991611bc791612ee7565b6001600160a01b0385166000908152602081905260409020600b015490612709565b905080611bf7575050611d3c565b6000611c038383612715565b9050600081118015611c3057506001600160a01b0384166000908152602081905260409020600201548111155b15611d38576001600160a01b0384166000908152602081905260408120600b0180548692849291611c62908490612e90565b90915550506001600160a01b038086166000908152602081905260409081902043600c82015560080154905163a9059cbb60e01b81528383169263a9059cbb92611cba92610100909104909116908690600401612b37565b602060405180830381600087803b158015611cd457600080fd5b505af1158015611ce8573d6000803e3d6000fd5b505050506040513d601f19601f82011682018060405250810190611d0c9190612a28565b506001600160a01b038516600090815260208190526040812060020180548492906119c5908490612ee7565b5050505b50565b6001600160a01b03831660009081526020819052604090205460ff161515600114611d69576119cd565b6001600160a01b03838116600090815260208190526040902060010154163314611da55760405162461bcd60e51b81526004016104b190612d27565b6000611db2848484611dfa565b9050600181151514611dc457506119cd565b6001600160a01b03841660009081526020819052604081206002018054849290611def908490612e90565b909155505050505050565b6001600160a01b03831660009081526020819052604081205460ff161515600114611e27575060006106bc565b6001600160a01b03848116600090815260208190526040902060010154163314611e635760405162461bcd60e51b81526004016104b190612d27565b6001600160a01b03848116600090815260208190526040902054610100900481169084161415611e95575060006106bc565b5060019392505050565b6001600160a01b03811660009081526020819052604081205460ff161515600114611ecc575060006103a0565b506001600160a01b03166000908152602081905260409020600c015490565b6001600160a01b03811660009081526020819052604081205460ff161515600114611f18575060006103a0565b506001600160a01b031660009081526020819052604090206006015490565b6001600160a01b03811660009081526020819052604081205460ff161515600114611f64575060006103a0565b506001600160a01b0390811660009081526020819052604090205461010090041690565b611fcd8282604051602401611f9e929190612ba8565b60408051601f198184030181529190526020810180516001600160e01b03166309710a9d60e41b179052612721565b5050565b611d3c81604051602401611fe59190612b95565b60408051601f198184030181529190526020810180516001600160e01b031663104c13eb60e21b179052612721565b611d3c816040516024016120289190612aff565b60408051601f198184030181529190526020810180516001600160e01b031663161765e160e11b179052612721565b611d3c8160405160240161206b9190612e44565b60408051601f198184030181529190526020810180516001600160e01b031663f5b1bba960e01b179052612721565b6001600160a01b03811660009081526020819052604090205460ff1615156001146120c457611d3c565b6001600160a01b0381166000908152602081905260409020600190810154600160a01b900460ff16151514156120f957611d3c565b6001600160a01b0381166000908152602081905260408120600101805460ff60a01b1916600160a01b179055612138670de0b6b3a76400006005612ec8565b9050600061214f670de0b6b3a76400006005612ec8565b6001600160a01b038416600090815260208190526040812060040154919250670de0b6b3a7640000836121828685612ea8565b6001600160a01b0388166000908152602081905260409020600701546121a89190612ec8565b6121b29190612ec8565b6121bc9190612ea8565b6001600160a01b038087166000818152602081905260409081902060010154905163095ea7b360e01b81529394508893919263095ea7b39261220692909116908690600401612b37565b602060405180830381600087803b15801561222057600080fd5b505af1158015612234573d6000803e3d6000fd5b505050506040513d601f19601f820116820180604052508101906122589190612a28565b506001600160a01b03808716600090815260208190526040908190208054600190910154915163095ea7b360e01b8152610100909104831692839263095ea7b3926122ac9291909116908890600401612b37565b602060405180830381600087803b1580156122c657600080fd5b505af11580156122da573d6000803e3d6000fd5b505050506040513d601f19601f820116820180604052508101906122fe9190612a28565b506123306040518060400160405280600f81526020016e19185d18551bdad95b905b5bdd5b9d608a1b81525084611f88565b6001600160a01b03808816600090815260208190526040908190206001810154905491516309ef3f5b60e01b81529083169283926309ef3f5b9261238a928d928a928d92610100909204909116908c908f90600401612b50565b600060405180830381600087803b1580156123a457600080fd5b505af11580156123b8573d6000803e3d6000fd5b505050506001600160a01b038816600090815260208190526040812060040180548792906123e7908490612ee7565b90915550506001600160a01b03881660009081526020819052604081206002018054869290612417908490612ee7565b90915550505050505050505050565b60006124586040518060400160405280600f81526020016e2fb1b0b631a7baba23b4bb32b724b760891b815250611fd1565b6001600160a01b03841660009081526020819052604090205460ff1615156001141561251c576124af6040518060400160405280601081526020016f2fb1b0b631a7baba23b4bb32b724b71960811b815250611fd1565b6001600160a01b03841660009081526020819052604090206008015460ff166124da575060006106bc565b6001600160a01b03841660009081526020819052604090206007015461251590670de0b6b3a76400009061250f908590612715565b90612709565b90506106bc565b6001600160a01b03831660009081526020819052604090205460ff16151560011415612618576125736040518060400160405280601081526020016f5f63616c634f7574476976656e496e3360801b815250611fd1565b61257c82612057565b61258d670de0b6b3a7640000612057565b6001600160a01b0383166000908152602081905260409020600701546125b290612057565b6001600160a01b0383166000908152602081905260409020600701546125e49061250f84670de0b6b3a7640000612715565b9050612613816040518060400160405280600b81526020016a1d1bdad95b905b5bdd5b9d60aa1b815250612742565b6106bc565b5060009392505050565b6001600160a01b03831660009081526020819052604081205460ff161515600114156126ae576001600160a01b03841660009081526020819052604090206008015460ff16612673575060006106bc565b6001600160a01b0384166000908152602081905260408120600701546126a59061250f85670de0b6b3a7640000612715565b91506106bc9050565b6001600160a01b03831660009081526020819052604090205460ff16151560011415612618576001600160a01b0383166000908152602081905260408120600701546126a590670de0b6b3a76400009061250f908690612715565b60006106bc8284612ea8565b60006106bc8284612ec8565b80516a636f6e736f6c652e6c6f67602083016000808483855afa5050505050565b611fcd8282604051602401612758929190612e4d565b60408051601f198184030181529190526020810180516001600160e01b0316630fa3f34560e01b179052612721565b805180151581146103a057600080fd5b6000602082840312156127a8578081fd5b81356106bc81612f2a565b6000602082840312156127c4578081fd5b81516106bc81612f2a565b60008060008060008060c087890312156127e7578182fd5b86356127f281612f2a565b955060208781013561280381612f2a565b9550604088013561281381612f2a565b9450606088013561282381612f2a565b93506080880135925060a088013567ffffffffffffffff80821115612846578384fd5b818a0191508a601f830112612859578384fd5b81358181111561286b5761286b612f14565b838102915061287b848301612e66565b8181528481019084860184860187018f1015612895578788fd5b8795505b838610156128b7578035835260019590950194918601918601612899565b508096505050505050509295509295509295565b600080600080608085870312156128e0578384fd5b84356128eb81612f2a565b935060208501356128fb81612f2a565b9250604085013561290b81612f2a565b9396929550929360600135925050565b60008060008060008060c08789031215612933578182fd5b863561293e81612f2a565b9550602087013561294e81612f2a565b9450604087013561295e81612f2a565b935060608701359250608087013561297581612f2a565b8092505060a087013590509295509295509295565b60008060006060848603121561299e578283fd5b83356129a981612f2a565b925060208401356129b981612f2a565b929592945050506040919091013590565b600080600080600060a086880312156129e1578081fd5b85356129ec81612f2a565b945060208601356129fc81612f2a565b935060408601359250606086013591506080860135612a1a81612f2a565b809150509295509295909350565b600060208284031215612a39578081fd5b6106bc82612787565b600060408284031215612a53578081fd5b6040516040810181811067ffffffffffffffff82111715612a7657612a76612f14565b604052612a8283612787565b8152612a9060208401612787565b60208201529392505050565b600060208284031215612aad578081fd5b5051919050565b60008151808452815b81811015612ad957602081850181015186830182015201612abd565b81811115612aea5782602083870101525b50601f01601f19169290920160200192915050565b6001600160a01b0391909116815260200190565b6001600160a01b039384168152919092166020820152604081019190915260600190565b6001600160a01b03929092168252602082015260400190565b6001600160a01b0396871681526020810195909552604085019390935293166060830152608082019290925260a081019190915260c00190565b901515815260200190565b6000602082526106bc6020830184612ab4565b600060408252612bbb6040830185612ab4565b90508260208301529392505050565b60208082526015908201527422a9291d24b73b30b634b2103230ba30ba37b5b2b760591b604082015260600190565b6020808252600b908201526a135a5b9d0819985a5b195960aa1b604082015260600190565b6020808252601d908201527f4552523a6d6178546f6b656e416d6f756e74496e206e6f74206d656574000000604082015260600190565b6020808252601e908201527f576520617265206e6f742074686520706f6f6c20636f6e74726f6c6c65720000604082015260600190565b6020808252601a908201527f42617365546f6b656e2061646472657373206d69736d61746368000000000000604082015260600190565b602080825260139082015272496e76616c696420706f6f6c4164647265737360681b604082015260600190565b6020808252601a908201527f4552523a204e6f7420696e206275726e2d696e20706572696f64000000000000604082015260600190565b6020808252601c908201527f4552523a204f6e6c7920706f6f6c2063616e2063616c6c207468697300000000604082015260600190565b6020808252601b908201527f42617365546f6b656e2061646472657373206d6973736d617463680000000000604082015260600190565b6020808252601b908201527f44617461546f6b656e2061646472657373206d6973736d617463680000000000604082015260600190565b60208082526021908201527f4552523a204f6e6c79207075626c69736865722063616e2063616c6c207468696040820152607360f81b606082015260800190565b60208082526019908201527f4552523a6d696e416d6f756e744f7574206e6f74206d65657400000000000000604082015260600190565b90815260200190565b6000838252604060208301526118766040830184612ab4565b60405181810167ffffffffffffffff81118282101715612e8857612e88612f14565b604052919050565b60008219821115612ea357612ea3612efe565b500190565b600082612ec357634e487b7160e01b81526012600452602481fd5b500490565b6000816000190483118215151615612ee257612ee2612efe565b500290565b600082821015612ef957612ef9612efe565b500390565b634e487b7160e01b600052601160045260246000fd5b634e487b7160e01b600052604160045260246000fd5b6001600160a01b0381168114611d3c57600080fdfea264697066735822122081d2f8e050fce45c796ecda1f26b65fe8a3b0e3b2c25cbfe5580810bb694fefc64736f6c63430008000033",
  "linkReferences": {},
  "deployedLinkReferences": {}
}