{
  "_format": "hh-sol-artifact-1",
  "contractName": "ssFixedRate",
  "sourceName": "contracts/ssContracts/ssFixedRate.sol",
  "abi": [
    {
      "inputs": [],
      "stateMutability": "nonpayable",
      "type": "constructor"
    },
    {
      "inputs": [
        {
          "internalType": "address",
          "name": "datatokenAddress",
          "type": "address"
        },
        {
          "internalType": "address",
          "name": "stakeToken",
          "type": "address"
        },
        {
          "internalType": "uint256",
          "name": "amount",
          "type": "uint256"
        }
      ],
      "name": "Stake",
      "outputs": [],
      "stateMutability": "nonpayable",
      "type": "function"
    },
    {
      "inputs": [
        {
          "internalType": "address",
          "name": "datatokenAddress",
          "type": "address"
        },
        {
          "internalType": "address",
          "name": "stakeToken",
          "type": "address"
        },
        {
          "internalType": "uint256",
          "name": "amount",
          "type": "uint256"
        }
      ],
      "name": "UnStake",
      "outputs": [],
      "stateMutability": "nonpayable",
      "type": "function"
    },
    {
      "inputs": [
        {
          "internalType": "address",
          "name": "datatokenAddress",
          "type": "address"
        },
        {
          "internalType": "address",
          "name": "basetoken",
          "type": "address"
        },
        {
          "internalType": "uint256",
          "name": "datatokenAmount",
          "type": "uint256"
        },
        {
          "internalType": "uint256",
          "name": "basetokenAmount",
          "type": "uint256"
        },
        {
          "internalType": "address",
          "name": "userAddress",
          "type": "address"
        }
      ],
      "name": "allowStake",
      "outputs": [
        {
          "internalType": "bool",
          "name": "",
          "type": "bool"
        }
      ],
      "stateMutability": "view",
      "type": "function"
    },
    {
      "inputs": [
        {
          "internalType": "address",
          "name": "datatokenAddress",
          "type": "address"
        },
        {
          "internalType": "address",
          "name": "basetoken",
          "type": "address"
        },
        {
          "internalType": "uint256",
          "name": "datatokenAmount",
          "type": "uint256"
        },
        {
          "internalType": "uint256",
          "name": "basetokenAmount",
          "type": "uint256"
        },
        {
          "internalType": "address",
          "name": "userAddress",
          "type": "address"
        }
      ],
      "name": "allowUnStake",
      "outputs": [
        {
          "internalType": "bool",
          "name": "",
          "type": "bool"
        }
      ],
      "stateMutability": "view",
      "type": "function"
    },
    {
      "inputs": [
        {
          "internalType": "address",
          "name": "datatokenAddress",
          "type": "address"
        },
        {
          "internalType": "address",
          "name": "tokenIn",
          "type": "address"
        },
        {
          "internalType": "address",
          "name": "tokenOut",
          "type": "address"
        },
        {
          "internalType": "uint256",
          "name": "tokenAmountOut",
          "type": "uint256"
        }
      ],
      "name": "calcInGivenOut",
      "outputs": [
        {
          "internalType": "uint256",
          "name": "",
          "type": "uint256"
        }
      ],
      "stateMutability": "view",
      "type": "function"
    },
    {
      "inputs": [
        {
          "internalType": "address",
          "name": "datatokenAddress",
          "type": "address"
        },
        {
          "internalType": "address",
          "name": "tokenIn",
          "type": "address"
        },
        {
          "internalType": "address",
          "name": "tokenOut",
          "type": "address"
        },
        {
          "internalType": "uint256",
          "name": "tokenAmountIn",
          "type": "uint256"
        }
      ],
      "name": "calcOutGivenIn",
      "outputs": [
        {
          "internalType": "uint256",
          "name": "",
          "type": "uint256"
        }
      ],
      "stateMutability": "view",
      "type": "function"
    },
    {
      "inputs": [
        {
          "internalType": "address",
          "name": "datatokenAddress",
          "type": "address"
        },
        {
          "internalType": "address",
          "name": "stakeToken",
          "type": "address"
        },
        {
          "internalType": "uint256",
          "name": "amount",
          "type": "uint256"
        }
      ],
      "name": "canStake",
      "outputs": [
        {
          "internalType": "bool",
          "name": "",
          "type": "bool"
        }
      ],
      "stateMutability": "view",
      "type": "function"
    },
    {
      "inputs": [
        {
          "internalType": "address",
          "name": "datatokenAddress",
          "type": "address"
        },
        {
          "internalType": "address",
          "name": "stakeToken",
          "type": "address"
        },
        {
          "internalType": "uint256",
          "name": "amount",
          "type": "uint256"
        }
      ],
      "name": "canUnStake",
      "outputs": [
        {
          "internalType": "bool",
          "name": "",
          "type": "bool"
        }
      ],
      "stateMutability": "view",
      "type": "function"
    },
    {
      "inputs": [
        {
          "internalType": "address",
          "name": "datatokenAddress",
          "type": "address"
        }
      ],
      "name": "getBaseTokenAddress",
      "outputs": [
        {
          "internalType": "address",
          "name": "",
          "type": "address"
        }
      ],
      "stateMutability": "view",
      "type": "function"
    },
    {
      "inputs": [
        {
          "internalType": "address",
          "name": "datatokenAddress",
          "type": "address"
        }
      ],
      "name": "getBaseTokenBalance",
      "outputs": [
        {
          "internalType": "uint256",
          "name": "",
          "type": "uint256"
        }
      ],
      "stateMutability": "view",
      "type": "function"
    },
    {
      "inputs": [
        {
          "internalType": "address",
          "name": "datatokenAddress",
          "type": "address"
        }
      ],
      "name": "getDataTokenBalance",
      "outputs": [
        {
          "internalType": "uint256",
          "name": "",
          "type": "uint256"
        }
      ],
      "stateMutability": "view",
      "type": "function"
    },
    {
      "inputs": [
        {
          "internalType": "address",
          "name": "datatokenAddress",
          "type": "address"
        }
      ],
      "name": "getDataTokenCirculatingSupply",
      "outputs": [
        {
          "internalType": "uint256",
          "name": "",
          "type": "uint256"
        }
      ],
      "stateMutability": "view",
      "type": "function"
    },
    {
      "inputs": [
        {
          "internalType": "address",
          "name": "datatokenAddress",
          "type": "address"
        }
      ],
      "name": "getPoolAddress",
      "outputs": [
        {
          "internalType": "address",
          "name": "",
          "type": "address"
        }
      ],
      "stateMutability": "view",
      "type": "function"
    },
    {
      "inputs": [
        {
          "internalType": "address",
          "name": "datatokenAddress",
          "type": "address"
        }
      ],
      "name": "getPublisherAddress",
      "outputs": [
        {
          "internalType": "address",
          "name": "",
          "type": "address"
        }
      ],
      "stateMutability": "view",
      "type": "function"
    },
    {
      "inputs": [
        {
          "internalType": "address",
          "name": "datatokenAddress",
          "type": "address"
        }
      ],
      "name": "getVesting",
      "outputs": [],
      "stateMutability": "nonpayable",
      "type": "function"
    },
    {
      "inputs": [
        {
          "internalType": "address",
          "name": "datatokenAddress",
          "type": "address"
        }
      ],
      "name": "getvestingAmount",
      "outputs": [
        {
          "internalType": "uint256",
          "name": "",
          "type": "uint256"
        }
      ],
      "stateMutability": "view",
      "type": "function"
    },
    {
      "inputs": [
        {
          "internalType": "address",
          "name": "datatokenAddress",
          "type": "address"
        }
      ],
      "name": "getvestingAmountSoFar",
      "outputs": [
        {
          "internalType": "uint256",
          "name": "",
          "type": "uint256"
        }
      ],
      "stateMutability": "view",
      "type": "function"
    },
    {
      "inputs": [
        {
          "internalType": "address",
          "name": "datatokenAddress",
          "type": "address"
        }
      ],
      "name": "getvestingEndBlock",
      "outputs": [
        {
          "internalType": "uint256",
          "name": "",
          "type": "uint256"
        }
      ],
      "stateMutability": "view",
      "type": "function"
    },
    {
      "inputs": [
        {
          "internalType": "address",
          "name": "datatokenAddress",
          "type": "address"
        }
      ],
      "name": "getvestingLastBlock",
      "outputs": [
        {
          "internalType": "uint256",
          "name": "",
          "type": "uint256"
        }
      ],
      "stateMutability": "view",
      "type": "function"
    },
    {
      "inputs": [
        {
          "internalType": "address",
          "name": "datatokenAddress",
          "type": "address"
        },
        {
          "internalType": "address",
          "name": "basetokenAddress",
          "type": "address"
        },
        {
          "internalType": "address",
          "name": "poolAddress",
          "type": "address"
        },
        {
          "internalType": "address",
          "name": "publisherAddress",
          "type": "address"
        },
        {
          "internalType": "uint256[]",
          "name": "ssParams",
          "type": "uint256[]"
        }
      ],
      "name": "newDataTokenCreated",
      "outputs": [
        {
          "internalType": "bool",
          "name": "",
          "type": "bool"
        }
      ],
      "stateMutability": "nonpayable",
      "type": "function"
    }
  ],
  "bytecode": "0x608060405234801561001057600080fd5b506122f7806100206000396000f3fe608060405234801561001057600080fd5b506004361061012c5760003560e01c806399039fcf116100ad578063cc49ede711610071578063cc49ede71461026d578063cf268dea14610280578063efd4810314610293578063f03cd396146102a6578063fa93fd6d146102b95761012c565b806399039fcf1461020c578063bccf74fe14610221578063bee3913d14610234578063c1b4904d14610247578063c4be24901461025a5761012c565b806353f0c3b4116100f457806353f0c3b4146101c0578063799ece85146101d35780637eaf89011461016d57806388afadce146101e657806392f6cb67146101f95761012c565b80631228cbee146101315780631f16cde61461015a57806324571dd71461016d5780632686375b1461018d57806326b1f01f146101ad575b600080fd5b61014461013f366004611ba8565b6102cc565b6040516101519190611e99565b60405180910390f35b610144610168366004611ba8565b61031e565b61018061017b366004611d64565b61036d565b6040516101519190611f00565b6101a061019b366004611ba8565b6103ec565b60405161015191906120b2565b6101806101bb366004611d24565b610438565b6101806101ce366004611be0565b610539565b6101a06101e1366004611ba8565b610d46565b6101a06101f4366004611ba8565b610d92565b6101a0610207366004611cd4565b610df2565b61021f61021a366004611d24565b610e35565b005b6101a061022f366004611ba8565b610f89565b6101a0610242366004611cd4565b610fd5565b6101a0610255366004611ba8565b61100d565b6101a0610268366004611ba8565b611059565b61021f61027b366004611ba8565b6110a5565b61021f61028e366004611d24565b6112ff565b6101806102a1366004611d24565b6113ba565b6101a06102b4366004611ba8565b61145f565b6101446102c7366004611ba8565b6114ab565b6001600160a01b03811660009081526020819052604081205460ff1615156001146102f957506000610319565b506001600160a01b03808216600090815260208190526040902060010154165b919050565b6001600160a01b03811660009081526020819052604081205460ff16151560011461034b57506000610319565b506001600160a01b039081166000908152602081905260409020600701541690565b6001600160a01b03851660009081526020819052604081205460ff16151560011461039a575060006103e3565b6001600160a01b038681166000908152602081905260409020600101541633146103df5760405162461bcd60e51b81526004016103d69061200d565b60405180910390fd5b5060015b95945050505050565b6001600160a01b03811660009081526020819052604081205460ff16151560011461041957506000610319565b506001600160a01b03166000908152602081905260409020600a015490565b6000610443826114fc565b6001600160a01b0384811660009081526020819052604090206001015416331461047f5760405162461bcd60e51b81526004016103d69061200d565b6001600160a01b03841660009081526020819052604090205460ff1615156001146104ac57506000610532565b6001600160a01b038481166000908152602081905260409020546101009004811690841614156104de57506000610532565b61050460405180604001604052806005815260200164191919191960d91b81525061153f565b6001600160a01b038416600090815260208190526040902060020154821161052e57506001610532565b5060005b9392505050565b60006001600160a01b0384166105615760405162461bcd60e51b81526004016103d690611fe0565b6000849050306001600160a01b0316816001600160a01b0316633018205f6040518163ffffffff1660e01b815260040160206040518083038186803b1580156105a957600080fd5b505afa1580156105bd573d6000803e3d6000fd5b505050506040513d601f19601f820116820180604052508101906105e19190611bc4565b6001600160a01b0316146106075760405162461bcd60e51b81526004016103d690611f72565b866001600160a01b0316816001600160a01b03166304ad79546040518163ffffffff1660e01b815260040160206040518083038186803b15801561064a57600080fd5b505afa15801561065e573d6000803e3d6000fd5b505050506040513d601f19601f820116820180604052508101906106829190611bc4565b6001600160a01b0316146106a85760405162461bcd60e51b81526004016103d69061207b565b856001600160a01b0316816001600160a01b0316634df947d06040518163ffffffff1660e01b815260040160206040518083038186803b1580156106eb57600080fd5b505afa1580156106ff573d6000803e3d6000fd5b505050506040513d601f19601f820116820180604052508101906107239190611bc4565b6001600160a01b0316146107495760405162461bcd60e51b81526004016103d690612044565b604051623d104160e31b815287906001600160a01b038216906301e8820890610776903090600401611e99565b604080518083038186803b15801561078d57600080fd5b505afa1580156107a1573d6000803e3d6000fd5b505050506040513d601f19601f820116820180604052508101906107c59190611ddc565b5115156001146107e75760405162461bcd60e51b81526004016103d690611fa9565b806001600160a01b03166340c10f1930836001600160a01b031663355274ea6040518163ffffffff1660e01b815260040160206040518083038186803b15801561083057600080fd5b505afa158015610844573d6000803e3d6000fd5b505050506040513d601f19601f820116820180604052508101906108689190611e36565b6040518363ffffffff1660e01b8152600401610885929190611ead565b600060405180830381600087803b15801561089f57600080fd5b505af11580156108b3573d6000803e3d6000fd5b50505050806001600160a01b03166318160ddd6040518163ffffffff1660e01b815260040160206040518083038186803b1580156108f057600080fd5b505afa158015610904573d6000803e3d6000fd5b505050506040513d601f19601f820116820180604052508101906109289190611e36565b6040516370a0823160e01b81526001600160a01b038316906370a0823190610954903090600401611e99565b60206040518083038186803b15801561096c57600080fd5b505afa158015610980573d6000803e3d6000fd5b505050506040513d601f19601f820116820180604052508101906109a49190611e36565b146109c15760405162461bcd60e51b81526004016103d690611f4d565b604051806101e00160405280600115158152602001886001600160a01b03168152602001876001600160a01b0316815260200160001515815260200185600281518110610a1e57634e487b7160e01b600052603260045260246000fd5b6020026020010151836001600160a01b03166318160ddd6040518163ffffffff1660e01b815260040160206040518083038186803b158015610a5f57600080fd5b505afa158015610a73573d6000803e3d6000fd5b505050506040513d601f19601f82011682018060405250810190610a979190611e36565b610aa19190612269565b8152602001826001600160a01b031663355274ea6040518163ffffffff1660e01b815260040160206040518083038186803b158015610adf57600080fd5b505afa158015610af3573d6000803e3d6000fd5b505050506040513d601f19601f82011682018060405250810190610b179190611e36565b815260200185600481518110610b3d57634e487b7160e01b600052603260045260246000fd5b602002602001015181526020016000815260200185600081518110610b7257634e487b7160e01b600052603260045260246000fd5b60200260200101518152602001866001600160a01b0316815260200143815260200185600381518110610bb557634e487b7160e01b600052603260045260246000fd5b602002602001015143610bc891906120fe565b815260200185600281518110610bee57634e487b7160e01b600052603260045260246000fd5b60209081029190910181015182524382820152600060409283018190526001600160a01b038c8116825281835290839020845181549386015160ff1990941690151517610100600160a81b0319166101009383168402178155928401516001808501805460608801516001600160a01b03199182169486169490941760ff60a01b1916600160a01b941515949094029390931790556080860151600286015560a0860151600386015560c0860151600486015560e08601516005860155928501516006850155610120850151600785018054909216921691909117905561014083015160088301556101608301516009830155610180830151600a8301556101a0830151600b8301556101c090920151600c909101558451610d38918a918791908110610d2b57634e487b7160e01b600052603260045260246000fd5b6020026020010151611582565b506001979650505050505050565b6001600160a01b03811660009081526020819052604081205460ff161515600114610d7357506000610319565b506001600160a01b031660009081526020819052604090206009015490565b6001600160a01b03811660009081526020819052604081205460ff161515600114610dbf57506000610319565b6001600160a01b03821660009081526020819052604090206002810154600390910154610dec9190612269565b92915050565b6001600160a01b03841660009081526020819052604081205460ff161515600114610e1f57506000610e2d565b610e2a84848461199e565b90505b949350505050565b6001600160a01b03831660009081526020819052604090205460ff161515600114610e5f57610f84565b6001600160a01b03838116600090815260208190526040902060010154163314610e9b5760405162461bcd60e51b81526004016103d69061200d565b6000610ea8848484610438565b9050600181151514610eba5750610f84565b6001600160a01b038085166000818152602081905260409081902060010154905163095ea7b360e01b8152879363095ea7b392610efe929116908790600401611ead565b602060405180830381600087803b158015610f1857600080fd5b505af1158015610f2c573d6000803e3d6000fd5b505050506040513d601f19601f82011682018060405250810190610f509190611dc2565b506001600160a01b03851660009081526020819052604081206002018054859290610f7c908490612269565b909155505050505b505050565b6001600160a01b03811660009081526020819052604081205460ff161515600114610fb657506000610319565b506001600160a01b03166000908152602081905260409020600c015490565b6001600160a01b03841660009081526020819052604081205460ff16151560011461100257506000610e2d565b610e2a848484611a5e565b6001600160a01b03811660009081526020819052604081205460ff16151560011461103a57506000610319565b506001600160a01b031660009081526020819052604090206002015490565b6001600160a01b03811660009081526020819052604081205460ff16151560011461108657506000610319565b506001600160a01b031660009081526020819052604090206004015490565b6001600160a01b03811660009081526020819052604090205460ff1615156001146110e25760405162461bcd60e51b81526004016103d690611f1e565b6001600160a01b038116600090815260208190526040812060090154431115611139576001600160a01b0382166000908152602081905260409020600b8101546009909101546111329190612269565b9050611162565b6001600160a01b0382166000908152602081905260409020600b015461115f9043612269565b90505b6001600160a01b038216600090815260208190526040812060088101546009909101546111b49161119291612269565b6001600160a01b0385166000908152602081905260409020600a015490611b1a565b9050806111c25750506112fc565b60006111ce8383611b26565b90506000811180156111fb57506001600160a01b0384166000908152602081905260409020600201548111155b156112f8576001600160a01b038085166000818152602081905260409081902043600b82015560070154905163a9059cbb60e01b8152879363a9059cbb9261124a929116908690600401611ead565b602060405180830381600087803b15801561126457600080fd5b505af1158015611278573d6000803e3d6000fd5b505050506040513d601f19601f8201168201806040525081019061129c9190611dc2565b506001600160a01b038516600090815260208190526040812060020180548492906112c8908490612269565b90915550506001600160a01b0385166000908152602081905260408120600c018054849290610f7c9084906120fe565b5050505b50565b6001600160a01b03831660009081526020819052604090205460ff16151560011461132957610f84565b6001600160a01b038381166000908152602081905260409020600101541633146113655760405162461bcd60e51b81526004016103d69061200d565b60006113728484846113ba565b90506001811515146113845750610f84565b6001600160a01b038416600090815260208190526040812060020180548492906113af9084906120fe565b909155505050505050565b6001600160a01b03831660009081526020819052604081205460ff1615156001146113e757506000610532565b6001600160a01b038481166000908152602081905260409020600101541633146114235760405162461bcd60e51b81526004016103d69061200d565b6001600160a01b0384811660009081526020819052604090205461010090048116908416141561145557506000610532565b5060019392505050565b6001600160a01b03811660009081526020819052604081205460ff16151560011461148c57506000610319565b506001600160a01b03166000908152602081905260409020600b015490565b6001600160a01b03811660009081526020819052604081205460ff1615156001146114d857506000610319565b506001600160a01b0390811660009081526020819052604090205461010090041690565b6112fc8160405160240161151091906120b2565b60408051601f198184030181529190526020810180516001600160e01b031663f5b1bba960e01b179052611b32565b6112fc816040516024016115539190611f0b565b60408051601f198184030181529190526020810180516001600160e01b031663104c13eb60e21b179052611b32565b6001600160a01b03821660009081526020819052604090205460ff1615156001146115ac5761199a565b6001600160a01b0382166000908152602081905260409020600190810154600160a01b900460ff16151514156115e15761199a565b6001600160a01b0382166000908152602081905260408120600101805460ff60a01b1916600160a01b179055611620670de0b6b3a7640000600561224a565b90506000611637670de0b6b3a7640000600561224a565b90506000806000866001600160a01b03166001600160a01b03168152602001908152602001600020600401549050611696816040518060400160405280600f81526020016e18985cd9551bdad95b985b5bdd5b9d608a1b815250611b53565b60006116a3856012612269565b6116ae90600a61217c565b6001600160a01b038716600090815260208190526040902060060154670de0b6b3a764000090869086906116e390879061224a565b6116ed919061224a565b6116f79190612116565b6117019190612116565b61170b919061224a565b905061173e816040518060400160405280600f81526020016e19185d185d1bdad95b985b5bdd5b9d608a1b815250611b53565b6001600160a01b038087166000818152602081905260409081902060010154905163095ea7b360e01b8152899363095ea7b392611782929116908690600401611ead565b602060405180830381600087803b15801561179c57600080fd5b505af11580156117b0573d6000803e3d6000fd5b505050506040513d601f19601f820116820180604052508101906117d49190611dc2565b506001600160a01b03808816600090815260208190526040908190208054600190910154915163095ea7b360e01b8152610100909104831692839263095ea7b3926118289291909116908890600401611ead565b602060405180830381600087803b15801561184257600080fd5b505af1158015611856573d6000803e3d6000fd5b505050506040513d601f19601f8201168201806040525081019061187a9190611dc2565b506118a66040518060400160405280600a8152602001696861737461206171756960b01b81525061153f565b6001600160a01b03808916600090815260208190526040908190206001810154905491516309ef3f5b60e01b81529083169283926309ef3f5b92611900928e928a928d92610100909204909116908c908f90600401611ec6565b600060405180830381600087803b15801561191a57600080fd5b505af115801561192e573d6000803e3d6000fd5b505050506001600160a01b0389166000908152602081905260408120600401805487929061195d908490612269565b90915550506001600160a01b0389166000908152602081905260408120600201805486929061198d908490612269565b9091555050505050505050505b5050565b6001600160a01b03831660009081526020819052604081205460ff16151560011415611a06576001600160a01b0384166000908152602081905260409020600601546119ff90670de0b6b3a7640000906119f9908590611b26565b90611b1a565b9050610532565b6001600160a01b03831660009081526020819052604090205460ff1615156001141561052e576001600160a01b0383166000908152602081905260409020600601546119ff906119f984670de0b6b3a7640000611b26565b6001600160a01b03831660009081526020819052604081205460ff16151560011415611abf576001600160a01b038416600090815260208190526040812060060154611ab6906119f985670de0b6b3a7640000611b26565b91506105329050565b6001600160a01b03831660009081526020819052604090205460ff1615156001141561052e576001600160a01b038316600090815260208190526040812060060154611ab690670de0b6b3a7640000906119f9908690611b26565b60006105328284612116565b6000610532828461224a565b80516a636f6e736f6c652e6c6f67602083016000808483855afa5050505050565b61199a8282604051602401611b699291906120bb565b60408051601f198184030181529190526020810180516001600160e01b0316630fa3f34560e01b179052611b32565b8051801515811461031957600080fd5b600060208284031215611bb9578081fd5b8135610532816122ac565b600060208284031215611bd5578081fd5b8151610532816122ac565b600080600080600060a08688031215611bf7578081fd5b8535611c02816122ac565b9450602086810135611c13816122ac565b94506040870135611c23816122ac565b93506060870135611c33816122ac565b9250608087013567ffffffffffffffff80821115611c4f578384fd5b818901915089601f830112611c62578384fd5b813581811115611c7457611c74612296565b8381029150611c848483016120d4565b8181528481019084860184860187018e1015611c9e578788fd5b8795505b83861015611cc0578035835260019590950194918601918601611ca2565b508096505050505050509295509295909350565b60008060008060808587031215611ce9578384fd5b8435611cf4816122ac565b93506020850135611d04816122ac565b92506040850135611d14816122ac565b9396929550929360600135925050565b600080600060608486031215611d38578283fd5b8335611d43816122ac565b92506020840135611d53816122ac565b929592945050506040919091013590565b600080600080600060a08688031215611d7b578081fd5b8535611d86816122ac565b94506020860135611d96816122ac565b935060408601359250606086013591506080860135611db4816122ac565b809150509295509295909350565b600060208284031215611dd3578081fd5b61053282611b98565b600060408284031215611ded578081fd5b6040516040810181811067ffffffffffffffff82111715611e1057611e10612296565b604052611e1c83611b98565b8152611e2a60208401611b98565b60208201529392505050565b600060208284031215611e47578081fd5b5051919050565b60008151808452815b81811015611e7357602081850181015186830182015201611e57565b81811115611e845782602083870101525b50601f01601f19169290920160200192915050565b6001600160a01b0391909116815260200190565b6001600160a01b03929092168252602082015260400190565b6001600160a01b0396871681526020810195909552604085019390935293166060830152608082019290925260a081019190915260c00190565b901515815260200190565b6000602082526105326020830184611e4e565b60208082526015908201527422a9291d24b73b30b634b2103230ba30ba37b5b2b760591b604082015260600190565b6020808252600b908201526a135a5b9d0819985a5b195960aa1b604082015260600190565b6020808252601e908201527f576520617265206e6f742074686520706f6f6c20636f6e74726f6c6c65720000604082015260600190565b6020808252601a908201527f42617365546f6b656e2061646472657373206d69736d61746368000000000000604082015260600190565b602080825260139082015272496e76616c696420706f6f6c4164647265737360681b604082015260600190565b6020808252601c908201527f4552523a204f6e6c7920706f6f6c2063616e2063616c6c207468697300000000604082015260600190565b6020808252601b908201527f42617365546f6b656e2061646472657373206d6973736d617463680000000000604082015260600190565b6020808252601b908201527f44617461546f6b656e2061646472657373206d6973736d617463680000000000604082015260600190565b90815260200190565b600083825260406020830152610e2d6040830184611e4e565b60405181810167ffffffffffffffff811182821017156120f6576120f6612296565b604052919050565b6000821982111561211157612111612280565b500190565b60008261213157634e487b7160e01b81526012600452602481fd5b500490565b80825b60018086116121485750612173565b81870482111561215a5761215a612280565b8086161561216757918102915b9490941c938002612139565b94509492505050565b6000610532600019848460008261219557506001610532565b816121a257506000610532565b81600181146121b857600281146121c2576121ef565b6001915050610532565b60ff8411156121d3576121d3612280565b6001841b9150848211156121e9576121e9612280565b50610532565b5060208310610133831016604e8410600b8410161715612222575081810a8381111561221d5761221d612280565b610532565b61222f8484846001612136565b80860482111561224157612241612280565b02949350505050565b600081600019048311821515161561226457612264612280565b500290565b60008282101561227b5761227b612280565b500390565b634e487b7160e01b600052601160045260246000fd5b634e487b7160e01b600052604160045260246000fd5b6001600160a01b03811681146112fc57600080fdfea26469706673582212200b43656c051b3741bbad5ad71d5fe8bbd47a180a156d75d41a93b9af2f1fa4bd64736f6c63430008000033",
  "linkReferences": {},
  "deployedLinkReferences": {}
}