{
  "_format": "hh-sol-artifact-1",
  "contractName": "ssFixedRate",
  "sourceName": "contracts/ssContracts/ssFixedRate.sol",
  "abi": [
    {
      "inputs": [],
      "stateMutability": "nonpayable",
      "type": "constructor"
    },
    {
      "inputs": [
        {
          "internalType": "address",
          "name": "datatokenAddress",
          "type": "address"
        },
        {
          "internalType": "address",
          "name": "stakeToken",
          "type": "address"
        },
        {
          "internalType": "uint256",
          "name": "amount",
          "type": "uint256"
        }
      ],
      "name": "Stake",
      "outputs": [],
      "stateMutability": "nonpayable",
      "type": "function"
    },
    {
      "inputs": [
        {
          "internalType": "address",
          "name": "datatokenAddress",
          "type": "address"
        },
        {
          "internalType": "address",
          "name": "stakeToken",
          "type": "address"
        },
        {
          "internalType": "uint256",
          "name": "amount",
          "type": "uint256"
        }
      ],
      "name": "UnStake",
      "outputs": [],
      "stateMutability": "nonpayable",
      "type": "function"
    },
    {
      "inputs": [
        {
          "internalType": "address",
          "name": "datatokenAddress",
          "type": "address"
        },
        {
          "internalType": "address",
          "name": "stakeToken",
          "type": "address"
        },
        {
          "internalType": "uint256",
          "name": "amount",
          "type": "uint256"
        }
      ],
      "name": "canStake",
      "outputs": [
        {
          "internalType": "bool",
          "name": "",
          "type": "bool"
        }
      ],
      "stateMutability": "view",
      "type": "function"
    },
    {
      "inputs": [
        {
          "internalType": "address",
          "name": "datatokenAddress",
          "type": "address"
        },
        {
          "internalType": "address",
          "name": "stakeToken",
          "type": "address"
        },
        {
          "internalType": "uint256",
          "name": "amount",
          "type": "uint256"
        }
      ],
      "name": "canUnStake",
      "outputs": [
        {
          "internalType": "bool",
          "name": "",
          "type": "bool"
        }
      ],
      "stateMutability": "view",
      "type": "function"
    },
    {
      "inputs": [
        {
          "internalType": "address",
          "name": "datatokenAddress",
          "type": "address"
        }
      ],
      "name": "getBaseTokenAddress",
      "outputs": [
        {
          "internalType": "address",
          "name": "",
          "type": "address"
        }
      ],
      "stateMutability": "view",
      "type": "function"
    },
    {
      "inputs": [
        {
          "internalType": "address",
          "name": "datatokenAddress",
          "type": "address"
        }
      ],
      "name": "getBaseTokenBalance",
      "outputs": [
        {
          "internalType": "uint256",
          "name": "",
          "type": "uint256"
        }
      ],
      "stateMutability": "view",
      "type": "function"
    },
    {
      "inputs": [
        {
          "internalType": "address",
          "name": "datatokenAddress",
          "type": "address"
        }
      ],
      "name": "getDataTokenBalance",
      "outputs": [
        {
          "internalType": "uint256",
          "name": "",
          "type": "uint256"
        }
      ],
      "stateMutability": "view",
      "type": "function"
    },
    {
      "inputs": [
        {
          "internalType": "address",
          "name": "datatokenAddress",
          "type": "address"
        }
      ],
      "name": "getDataTokenCirculatingSupply",
      "outputs": [
        {
          "internalType": "uint256",
          "name": "",
          "type": "uint256"
        }
      ],
      "stateMutability": "view",
      "type": "function"
    },
    {
      "inputs": [
        {
          "internalType": "address",
          "name": "datatokenAddress",
          "type": "address"
        }
      ],
      "name": "getPoolAddress",
      "outputs": [
        {
          "internalType": "address",
          "name": "",
          "type": "address"
        }
      ],
      "stateMutability": "view",
      "type": "function"
    },
    {
      "inputs": [
        {
          "internalType": "address",
          "name": "datatokenAddress",
          "type": "address"
        }
      ],
      "name": "getPublisherAddress",
      "outputs": [
        {
          "internalType": "address",
          "name": "",
          "type": "address"
        }
      ],
      "stateMutability": "view",
      "type": "function"
    },
    {
      "inputs": [
        {
          "internalType": "address",
          "name": "datatokenAddress",
          "type": "address"
        }
      ],
      "name": "getVesting",
      "outputs": [],
      "stateMutability": "nonpayable",
      "type": "function"
    },
    {
      "inputs": [
        {
          "internalType": "address",
          "name": "datatokenAddress",
          "type": "address"
        }
      ],
      "name": "getvestingAmount",
      "outputs": [
        {
          "internalType": "uint256",
          "name": "",
          "type": "uint256"
        }
      ],
      "stateMutability": "view",
      "type": "function"
    },
    {
      "inputs": [
        {
          "internalType": "address",
          "name": "datatokenAddress",
          "type": "address"
        }
      ],
      "name": "getvestingAmountSoFar",
      "outputs": [
        {
          "internalType": "uint256",
          "name": "",
          "type": "uint256"
        }
      ],
      "stateMutability": "view",
      "type": "function"
    },
    {
      "inputs": [
        {
          "internalType": "address",
          "name": "datatokenAddress",
          "type": "address"
        }
      ],
      "name": "getvestingEndBlock",
      "outputs": [
        {
          "internalType": "uint256",
          "name": "",
          "type": "uint256"
        }
      ],
      "stateMutability": "view",
      "type": "function"
    },
    {
      "inputs": [
        {
          "internalType": "address",
          "name": "datatokenAddress",
          "type": "address"
        }
      ],
      "name": "getvestingLastBlock",
      "outputs": [
        {
          "internalType": "uint256",
          "name": "",
          "type": "uint256"
        }
      ],
      "stateMutability": "view",
      "type": "function"
    },
    {
      "inputs": [
        {
          "internalType": "address",
          "name": "datatokenAddress",
          "type": "address"
        },
        {
          "internalType": "address",
          "name": "basetokenAddress",
          "type": "address"
        },
        {
          "internalType": "address",
          "name": "poolAddress",
          "type": "address"
        },
        {
          "internalType": "address",
          "name": "publisherAddress",
          "type": "address"
        },
        {
          "internalType": "uint256[]",
          "name": "ssParams",
          "type": "uint256[]"
        }
      ],
      "name": "newDataTokenCreated",
      "outputs": [
        {
          "internalType": "bool",
          "name": "",
          "type": "bool"
        }
      ],
      "stateMutability": "nonpayable",
      "type": "function"
    }
  ],
  "bytecode": "0x608060405234801561001057600080fd5b50611f7f806100206000396000f3fe608060405234801561001057600080fd5b50600436106101005760003560e01c8063bccf74fe11610097578063cf268dea11610066578063cf268dea1461021b578063efd481031461022e578063f03cd39614610241578063fa93fd6d1461025457610100565b8063bccf74fe146101cf578063c1b4904d146101e2578063c4be2490146101f5578063cc49ede71461020857610100565b806353f0c3b4116100d357806353f0c3b414610181578063799ece851461019457806388afadce146101a757806399039fcf146101ba57610100565b80631228cbee146101055780631f16cde61461012e5780632686375b1461014157806326b1f01f14610161575b600080fd5b6101186101133660046118d6565b610267565b6040516101259190611b19565b60405180910390f35b61011861013c3660046118d6565b6102b9565b61015461014f3660046118d6565b610308565b6040516101259190611d32565b61017461016f366004611a02565b610354565b6040516101259190611b80565b61017461018f36600461190e565b61045e565b6101546101a23660046118d6565b610c6b565b6101546101b53660046118d6565b610cb7565b6101cd6101c8366004611a02565b610d17565b005b6101546101dd3660046118d6565b610e6b565b6101546101f03660046118d6565b610eb7565b6101546102033660046118d6565b610f03565b6101cd6102163660046118d6565b610f4f565b6101cd610229366004611a02565b6111a9565b61017461023c366004611a02565b611264565b61015461024f3660046118d6565b611309565b6101186102623660046118d6565b611355565b6001600160a01b03811660009081526020819052604081205460ff161515600114610294575060006102b4565b506001600160a01b03808216600090815260208190526040902060010154165b919050565b6001600160a01b03811660009081526020819052604081205460ff1615156001146102e6575060006102b4565b506001600160a01b039081166000908152602081905260409020600701541690565b6001600160a01b03811660009081526020819052604081205460ff161515600114610335575060006102b4565b506001600160a01b03166000908152602081905260409020600a015490565b600061035f826113a6565b6001600160a01b038481166000908152602081905260409020600101541633146103a45760405162461bcd60e51b815260040161039b90611c8d565b60405180910390fd5b6001600160a01b03841660009081526020819052604090205460ff1615156001146103d157506000610457565b6001600160a01b0384811660009081526020819052604090205461010090048116908416141561040357506000610457565b61042960405180604001604052806005815260200164191919191960d91b8152506113e9565b6001600160a01b038416600090815260208190526040902060020154821161045357506001610457565b5060005b9392505050565b60006001600160a01b0384166104865760405162461bcd60e51b815260040161039b90611c60565b6000849050306001600160a01b0316816001600160a01b0316633018205f6040518163ffffffff1660e01b815260040160206040518083038186803b1580156104ce57600080fd5b505afa1580156104e2573d6000803e3d6000fd5b505050506040513d601f19601f8201168201806040525081019061050691906118f2565b6001600160a01b03161461052c5760405162461bcd60e51b815260040161039b90611bf2565b866001600160a01b0316816001600160a01b03166304ad79546040518163ffffffff1660e01b815260040160206040518083038186803b15801561056f57600080fd5b505afa158015610583573d6000803e3d6000fd5b505050506040513d601f19601f820116820180604052508101906105a791906118f2565b6001600160a01b0316146105cd5760405162461bcd60e51b815260040161039b90611cfb565b856001600160a01b0316816001600160a01b0316634df947d06040518163ffffffff1660e01b815260040160206040518083038186803b15801561061057600080fd5b505afa158015610624573d6000803e3d6000fd5b505050506040513d601f19601f8201168201806040525081019061064891906118f2565b6001600160a01b03161461066e5760405162461bcd60e51b815260040161039b90611cc4565b604051623d104160e31b815287906001600160a01b038216906301e882089061069b903090600401611b19565b604080518083038186803b1580156106b257600080fd5b505afa1580156106c6573d6000803e3d6000fd5b505050506040513d601f19601f820116820180604052508101906106ea9190611a5c565b51151560011461070c5760405162461bcd60e51b815260040161039b90611c29565b806001600160a01b03166340c10f1930836001600160a01b031663355274ea6040518163ffffffff1660e01b815260040160206040518083038186803b15801561075557600080fd5b505afa158015610769573d6000803e3d6000fd5b505050506040513d601f19601f8201168201806040525081019061078d9190611ab6565b6040518363ffffffff1660e01b81526004016107aa929190611b2d565b600060405180830381600087803b1580156107c457600080fd5b505af11580156107d8573d6000803e3d6000fd5b50505050806001600160a01b03166318160ddd6040518163ffffffff1660e01b815260040160206040518083038186803b15801561081557600080fd5b505afa158015610829573d6000803e3d6000fd5b505050506040513d601f19601f8201168201806040525081019061084d9190611ab6565b6040516370a0823160e01b81526001600160a01b038316906370a0823190610879903090600401611b19565b60206040518083038186803b15801561089157600080fd5b505afa1580156108a5573d6000803e3d6000fd5b505050506040513d601f19601f820116820180604052508101906108c99190611ab6565b146108e65760405162461bcd60e51b815260040161039b90611bcd565b604051806101e00160405280600115158152602001886001600160a01b03168152602001876001600160a01b031681526020016000151581526020018560028151811061094357634e487b7160e01b600052603260045260246000fd5b6020026020010151836001600160a01b03166318160ddd6040518163ffffffff1660e01b815260040160206040518083038186803b15801561098457600080fd5b505afa158015610998573d6000803e3d6000fd5b505050506040513d601f19601f820116820180604052508101906109bc9190611ab6565b6109c69190611ef1565b8152602001826001600160a01b031663355274ea6040518163ffffffff1660e01b815260040160206040518083038186803b158015610a0457600080fd5b505afa158015610a18573d6000803e3d6000fd5b505050506040513d601f19601f82011682018060405250810190610a3c9190611ab6565b815260200185600481518110610a6257634e487b7160e01b600052603260045260246000fd5b602002602001015181526020016000815260200185600081518110610a9757634e487b7160e01b600052603260045260246000fd5b60200260200101518152602001866001600160a01b0316815260200143815260200185600381518110610ada57634e487b7160e01b600052603260045260246000fd5b602002602001015143610aed9190611d86565b815260200185600281518110610b1357634e487b7160e01b600052603260045260246000fd5b60209081029190910181015182524382820152600060409283018190526001600160a01b038c8116825281835290839020845181549386015160ff1990941690151517610100600160a81b0319166101009383168402178155928401516001808501805460608801516001600160a01b03199182169486169490941760ff60a01b1916600160a01b941515949094029390931790556080860151600286015560a0860151600386015560c0860151600486015560e08601516005860155928501516006850155610120850151600785018054909216921691909117905561014083015160088301556101608301516009830155610180830151600a8301556101a0830151600b8301556101c090920151600c909101558451610c5d918a918791908110610c5057634e487b7160e01b600052603260045260246000fd5b602002602001015161142c565b506001979650505050505050565b6001600160a01b03811660009081526020819052604081205460ff161515600114610c98575060006102b4565b506001600160a01b031660009081526020819052604090206009015490565b6001600160a01b03811660009081526020819052604081205460ff161515600114610ce4575060006102b4565b6001600160a01b03821660009081526020819052604090206002810154600390910154610d119190611ef1565b92915050565b6001600160a01b03831660009081526020819052604090205460ff161515600114610d4157610e66565b6001600160a01b03838116600090815260208190526040902060010154163314610d7d5760405162461bcd60e51b815260040161039b90611c8d565b6000610d8a848484610354565b9050600181151514610d9c5750610e66565b6001600160a01b038085166000818152602081905260409081902060010154905163095ea7b360e01b8152879363095ea7b392610de0929116908790600401611b2d565b602060405180830381600087803b158015610dfa57600080fd5b505af1158015610e0e573d6000803e3d6000fd5b505050506040513d601f19601f82011682018060405250810190610e329190611a42565b506001600160a01b03851660009081526020819052604081206002018054859290610e5e908490611ef1565b909155505050505b505050565b6001600160a01b03811660009081526020819052604081205460ff161515600114610e98575060006102b4565b506001600160a01b03166000908152602081905260409020600c015490565b6001600160a01b03811660009081526020819052604081205460ff161515600114610ee4575060006102b4565b506001600160a01b031660009081526020819052604090206002015490565b6001600160a01b03811660009081526020819052604081205460ff161515600114610f30575060006102b4565b506001600160a01b031660009081526020819052604090206004015490565b6001600160a01b03811660009081526020819052604090205460ff161515600114610f8c5760405162461bcd60e51b815260040161039b90611b9e565b6001600160a01b038116600090815260208190526040812060090154431115610fe3576001600160a01b0382166000908152602081905260409020600b810154600990910154610fdc9190611ef1565b905061100c565b6001600160a01b0382166000908152602081905260409020600b01546110099043611ef1565b90505b6001600160a01b0382166000908152602081905260408120600881015460099091015461105e9161103c91611ef1565b6001600160a01b0385166000908152602081905260409020600a015490611848565b90508061106c5750506111a6565b60006110788383611854565b90506000811180156110a557506001600160a01b0384166000908152602081905260409020600201548111155b156111a2576001600160a01b038085166000818152602081905260409081902043600b82015560070154905163a9059cbb60e01b8152879363a9059cbb926110f4929116908690600401611b2d565b602060405180830381600087803b15801561110e57600080fd5b505af1158015611122573d6000803e3d6000fd5b505050506040513d601f19601f820116820180604052508101906111469190611a42565b506001600160a01b03851660009081526020819052604081206002018054849290611172908490611ef1565b90915550506001600160a01b0385166000908152602081905260408120600c018054849290610e5e908490611d86565b5050505b50565b6001600160a01b03831660009081526020819052604090205460ff1615156001146111d357610e66565b6001600160a01b0383811660009081526020819052604090206001015416331461120f5760405162461bcd60e51b815260040161039b90611c8d565b600061121c848484611264565b905060018115151461122e5750610e66565b6001600160a01b03841660009081526020819052604081206002018054849290611259908490611d86565b909155505050505050565b6001600160a01b03831660009081526020819052604081205460ff16151560011461129157506000610457565b6001600160a01b038481166000908152602081905260409020600101541633146112cd5760405162461bcd60e51b815260040161039b90611c8d565b6001600160a01b038481166000908152602081905260409020546101009004811690841614156112ff57506000610457565b5060019392505050565b6001600160a01b03811660009081526020819052604081205460ff161515600114611336575060006102b4565b506001600160a01b03166000908152602081905260409020600b015490565b6001600160a01b03811660009081526020819052604081205460ff161515600114611382575060006102b4565b506001600160a01b0390811660009081526020819052604090205461010090041690565b6111a6816040516024016113ba9190611d32565b60408051601f198184030181529190526020810180516001600160e01b031663f5b1bba960e01b179052611860565b6111a6816040516024016113fd9190611b8b565b60408051601f198184030181529190526020810180516001600160e01b031663104c13eb60e21b179052611860565b6001600160a01b03821660009081526020819052604090205460ff16151560011461145657611844565b6001600160a01b0382166000908152602081905260409020600190810154600160a01b900460ff161515141561148b57611844565b6001600160a01b0382166000908152602081905260408120600101805460ff60a01b1916600160a01b1790556114ca670de0b6b3a76400006005611ed2565b905060006114e1670de0b6b3a76400006005611ed2565b90506000806000866001600160a01b03166001600160a01b03168152602001908152602001600020600401549050611540816040518060400160405280600f81526020016e18985cd9551bdad95b985b5bdd5b9d608a1b815250611881565b600061154d856012611ef1565b61155890600a611e04565b6001600160a01b038716600090815260208190526040902060060154670de0b6b3a7640000908690869061158d908790611ed2565b6115979190611ed2565b6115a19190611d9e565b6115ab9190611d9e565b6115b59190611ed2565b90506115e8816040518060400160405280600f81526020016e19185d185d1bdad95b985b5bdd5b9d608a1b815250611881565b6001600160a01b038087166000818152602081905260409081902060010154905163095ea7b360e01b8152899363095ea7b39261162c929116908690600401611b2d565b602060405180830381600087803b15801561164657600080fd5b505af115801561165a573d6000803e3d6000fd5b505050506040513d601f19601f8201168201806040525081019061167e9190611a42565b506001600160a01b03808816600090815260208190526040908190208054600190910154915163095ea7b360e01b8152610100909104831692839263095ea7b3926116d29291909116908890600401611b2d565b602060405180830381600087803b1580156116ec57600080fd5b505af1158015611700573d6000803e3d6000fd5b505050506040513d601f19601f820116820180604052508101906117249190611a42565b506117506040518060400160405280600a8152602001696861737461206171756960b01b8152506113e9565b6001600160a01b03808916600090815260208190526040908190206001810154905491516309ef3f5b60e01b81529083169283926309ef3f5b926117aa928e928a928d92610100909204909116908c908f90600401611b46565b600060405180830381600087803b1580156117c457600080fd5b505af11580156117d8573d6000803e3d6000fd5b505050506001600160a01b03891660009081526020819052604081206004018054879290611807908490611ef1565b90915550506001600160a01b03891660009081526020819052604081206002018054869290611837908490611ef1565b9091555050505050505050505b5050565b60006104578284611d9e565b60006104578284611ed2565b80516a636f6e736f6c652e6c6f67602083016000808483855afa5050505050565b6118448282604051602401611897929190611d3b565b60408051601f198184030181529190526020810180516001600160e01b0316630fa3f34560e01b179052611860565b805180151581146102b457600080fd5b6000602082840312156118e7578081fd5b813561045781611f34565b600060208284031215611903578081fd5b815161045781611f34565b600080600080600060a08688031215611925578081fd5b853561193081611f34565b945060208681013561194181611f34565b9450604087013561195181611f34565b9350606087013561196181611f34565b9250608087013567ffffffffffffffff8082111561197d578384fd5b818901915089601f830112611990578384fd5b8135818111156119a2576119a2611f1e565b83810291506119b2848301611d5c565b8181528481019084860184860187018e10156119cc578788fd5b8795505b838610156119ee5780358352600195909501949186019186016119d0565b508096505050505050509295509295909350565b600080600060608486031215611a16578283fd5b8335611a2181611f34565b92506020840135611a3181611f34565b929592945050506040919091013590565b600060208284031215611a53578081fd5b610457826118c6565b600060408284031215611a6d578081fd5b6040516040810181811067ffffffffffffffff82111715611a9057611a90611f1e565b604052611a9c836118c6565b8152611aaa602084016118c6565b60208201529392505050565b600060208284031215611ac7578081fd5b5051919050565b60008151808452815b81811015611af357602081850181015186830182015201611ad7565b81811115611b045782602083870101525b50601f01601f19169290920160200192915050565b6001600160a01b0391909116815260200190565b6001600160a01b03929092168252602082015260400190565b6001600160a01b0396871681526020810195909552604085019390935293166060830152608082019290925260a081019190915260c00190565b901515815260200190565b6000602082526104576020830184611ace565b60208082526015908201527422a9291d24b73b30b634b2103230ba30ba37b5b2b760591b604082015260600190565b6020808252600b908201526a135a5b9d0819985a5b195960aa1b604082015260600190565b6020808252601e908201527f576520617265206e6f742074686520706f6f6c20636f6e74726f6c6c65720000604082015260600190565b6020808252601a908201527f42617365546f6b656e2061646472657373206d69736d61746368000000000000604082015260600190565b602080825260139082015272496e76616c696420706f6f6c4164647265737360681b604082015260600190565b6020808252601c908201527f4552523a204f6e6c7920706f6f6c2063616e2063616c6c207468697300000000604082015260600190565b6020808252601b908201527f42617365546f6b656e2061646472657373206d6973736d617463680000000000604082015260600190565b6020808252601b908201527f44617461546f6b656e2061646472657373206d6973736d617463680000000000604082015260600190565b90815260200190565b600083825260406020830152611d546040830184611ace565b949350505050565b60405181810167ffffffffffffffff81118282101715611d7e57611d7e611f1e565b604052919050565b60008219821115611d9957611d99611f08565b500190565b600082611db957634e487b7160e01b81526012600452602481fd5b500490565b80825b6001808611611dd05750611dfb565b818704821115611de257611de2611f08565b80861615611def57918102915b9490941c938002611dc1565b94509492505050565b60006104576000198484600082611e1d57506001610457565b81611e2a57506000610457565b8160018114611e405760028114611e4a57611e77565b6001915050610457565b60ff841115611e5b57611e5b611f08565b6001841b915084821115611e7157611e71611f08565b50610457565b5060208310610133831016604e8410600b8410161715611eaa575081810a83811115611ea557611ea5611f08565b610457565b611eb78484846001611dbe565b808604821115611ec957611ec9611f08565b02949350505050565b6000816000190483118215151615611eec57611eec611f08565b500290565b600082821015611f0357611f03611f08565b500390565b634e487b7160e01b600052601160045260246000fd5b634e487b7160e01b600052604160045260246000fd5b6001600160a01b03811681146111a657600080fdfea26469706673582212207a09b70df8dcec829f9c99e4bc178812b46d34f50fb8de105fc7759f71ae59d564736f6c63430008000033",
  "linkReferences": {},
  "deployedLinkReferences": {}
}