{
  "_format": "hh-sol-artifact-1",
  "contractName": "ssFixedRate",
  "sourceName": "contracts/ssContracts/ssFixedRate.sol",
  "abi": [
    {
      "inputs": [],
      "stateMutability": "nonpayable",
      "type": "constructor"
    },
    {
      "inputs": [
        {
          "internalType": "address",
          "name": "datatokenAddress",
          "type": "address"
        },
        {
          "internalType": "address",
          "name": "stakeToken",
          "type": "address"
        },
        {
          "internalType": "uint256",
          "name": "amount",
          "type": "uint256"
        }
      ],
      "name": "Stake",
      "outputs": [],
      "stateMutability": "nonpayable",
      "type": "function"
    },
    {
      "inputs": [
        {
          "internalType": "address",
          "name": "datatokenAddress",
          "type": "address"
        },
        {
          "internalType": "address",
          "name": "stakeToken",
          "type": "address"
        },
        {
          "internalType": "uint256",
          "name": "amount",
          "type": "uint256"
        }
      ],
      "name": "UnStake",
      "outputs": [],
      "stateMutability": "nonpayable",
      "type": "function"
    },
    {
      "inputs": [
        {
          "internalType": "address",
          "name": "datatokenAddress",
          "type": "address"
        },
        {
          "internalType": "address",
          "name": "basetoken",
          "type": "address"
        },
        {
          "internalType": "uint256",
          "name": "datatokenAmount",
          "type": "uint256"
        },
        {
          "internalType": "uint256",
          "name": "basetokenAmount",
          "type": "uint256"
        },
        {
          "internalType": "address",
          "name": "userAddress",
          "type": "address"
        }
      ],
      "name": "allowStake",
      "outputs": [
        {
          "internalType": "bool",
          "name": "",
          "type": "bool"
        }
      ],
      "stateMutability": "view",
      "type": "function"
    },
    {
      "inputs": [
        {
          "internalType": "address",
          "name": "datatokenAddress",
          "type": "address"
        },
        {
          "internalType": "address",
          "name": "basetoken",
          "type": "address"
        },
        {
          "internalType": "uint256",
          "name": "datatokenAmount",
          "type": "uint256"
        },
        {
          "internalType": "uint256",
          "name": "basetokenAmount",
          "type": "uint256"
        },
        {
          "internalType": "address",
          "name": "userAddress",
          "type": "address"
        }
      ],
      "name": "allowUnStake",
      "outputs": [
        {
          "internalType": "bool",
          "name": "",
          "type": "bool"
        }
      ],
      "stateMutability": "view",
      "type": "function"
    },
    {
      "inputs": [
        {
          "internalType": "address",
          "name": "datatokenAddress",
          "type": "address"
        },
        {
          "internalType": "address",
          "name": "tokenIn",
          "type": "address"
        },
        {
          "internalType": "address",
          "name": "tokenOut",
          "type": "address"
        },
        {
          "internalType": "uint256",
          "name": "tokenAmountOut",
          "type": "uint256"
        }
      ],
      "name": "calcInGivenOut",
      "outputs": [
        {
          "internalType": "uint256",
          "name": "",
          "type": "uint256"
        }
      ],
      "stateMutability": "view",
      "type": "function"
    },
    {
      "inputs": [
        {
          "internalType": "address",
          "name": "datatokenAddress",
          "type": "address"
        },
        {
          "internalType": "address",
          "name": "tokenIn",
          "type": "address"
        },
        {
          "internalType": "address",
          "name": "tokenOut",
          "type": "address"
        },
        {
          "internalType": "uint256",
          "name": "tokenAmountIn",
          "type": "uint256"
        }
      ],
      "name": "calcOutGivenIn",
      "outputs": [
        {
          "internalType": "uint256",
          "name": "",
          "type": "uint256"
        }
      ],
      "stateMutability": "view",
      "type": "function"
    },
    {
      "inputs": [
        {
          "internalType": "address",
          "name": "datatokenAddress",
          "type": "address"
        },
        {
          "internalType": "address",
          "name": "stakeToken",
          "type": "address"
        },
        {
          "internalType": "uint256",
          "name": "amount",
          "type": "uint256"
        }
      ],
      "name": "canStake",
      "outputs": [
        {
          "internalType": "bool",
          "name": "",
          "type": "bool"
        }
      ],
      "stateMutability": "view",
      "type": "function"
    },
    {
      "inputs": [
        {
          "internalType": "address",
          "name": "datatokenAddress",
          "type": "address"
        },
        {
          "internalType": "address",
          "name": "stakeToken",
          "type": "address"
        },
        {
          "internalType": "uint256",
          "name": "amount",
          "type": "uint256"
        }
      ],
      "name": "canUnStake",
      "outputs": [
        {
          "internalType": "bool",
          "name": "",
          "type": "bool"
        }
      ],
      "stateMutability": "view",
      "type": "function"
    },
    {
      "inputs": [
        {
          "internalType": "address",
          "name": "datatokenAddress",
          "type": "address"
        }
      ],
      "name": "getBaseTokenAddress",
      "outputs": [
        {
          "internalType": "address",
          "name": "",
          "type": "address"
        }
      ],
      "stateMutability": "view",
      "type": "function"
    },
    {
      "inputs": [
        {
          "internalType": "address",
          "name": "datatokenAddress",
          "type": "address"
        }
      ],
      "name": "getBaseTokenBalance",
      "outputs": [
        {
          "internalType": "uint256",
          "name": "",
          "type": "uint256"
        }
      ],
      "stateMutability": "view",
      "type": "function"
    },
    {
      "inputs": [
        {
          "internalType": "address",
          "name": "datatokenAddress",
          "type": "address"
        }
      ],
      "name": "getDataTokenBalance",
      "outputs": [
        {
          "internalType": "uint256",
          "name": "",
          "type": "uint256"
        }
      ],
      "stateMutability": "view",
      "type": "function"
    },
    {
      "inputs": [
        {
          "internalType": "address",
          "name": "datatokenAddress",
          "type": "address"
        }
      ],
      "name": "getDataTokenCirculatingSupply",
      "outputs": [
        {
          "internalType": "uint256",
          "name": "",
          "type": "uint256"
        }
      ],
      "stateMutability": "view",
      "type": "function"
    },
    {
      "inputs": [
        {
          "internalType": "address",
          "name": "datatokenAddress",
          "type": "address"
        }
      ],
      "name": "getPoolAddress",
      "outputs": [
        {
          "internalType": "address",
          "name": "",
          "type": "address"
        }
      ],
      "stateMutability": "view",
      "type": "function"
    },
    {
      "inputs": [
        {
          "internalType": "address",
          "name": "datatokenAddress",
          "type": "address"
        }
      ],
      "name": "getPublisherAddress",
      "outputs": [
        {
          "internalType": "address",
          "name": "",
          "type": "address"
        }
      ],
      "stateMutability": "view",
      "type": "function"
    },
    {
      "inputs": [
        {
          "internalType": "address",
          "name": "datatokenAddress",
          "type": "address"
        }
      ],
      "name": "getVesting",
      "outputs": [],
      "stateMutability": "nonpayable",
      "type": "function"
    },
    {
      "inputs": [
        {
          "internalType": "address",
          "name": "datatokenAddress",
          "type": "address"
        }
      ],
      "name": "getburnInEndBlock",
      "outputs": [
        {
          "internalType": "uint256",
          "name": "",
          "type": "uint256"
        }
      ],
      "stateMutability": "view",
      "type": "function"
    },
    {
      "inputs": [
        {
          "internalType": "address",
          "name": "datatokenAddress",
          "type": "address"
        }
      ],
      "name": "getvestingAmount",
      "outputs": [
        {
          "internalType": "uint256",
          "name": "",
          "type": "uint256"
        }
      ],
      "stateMutability": "view",
      "type": "function"
    },
    {
      "inputs": [
        {
          "internalType": "address",
          "name": "datatokenAddress",
          "type": "address"
        }
      ],
      "name": "getvestingAmountSoFar",
      "outputs": [
        {
          "internalType": "uint256",
          "name": "",
          "type": "uint256"
        }
      ],
      "stateMutability": "view",
      "type": "function"
    },
    {
      "inputs": [
        {
          "internalType": "address",
          "name": "datatokenAddress",
          "type": "address"
        }
      ],
      "name": "getvestingEndBlock",
      "outputs": [
        {
          "internalType": "uint256",
          "name": "",
          "type": "uint256"
        }
      ],
      "stateMutability": "view",
      "type": "function"
    },
    {
      "inputs": [
        {
          "internalType": "address",
          "name": "datatokenAddress",
          "type": "address"
        }
      ],
      "name": "getvestingLastBlock",
      "outputs": [
        {
          "internalType": "uint256",
          "name": "",
          "type": "uint256"
        }
      ],
      "stateMutability": "view",
      "type": "function"
    },
    {
      "inputs": [
        {
          "internalType": "address",
          "name": "datatokenAddress",
          "type": "address"
        }
      ],
      "name": "isInBurnIn",
      "outputs": [
        {
          "internalType": "bool",
          "name": "",
          "type": "bool"
        }
      ],
      "stateMutability": "view",
      "type": "function"
    },
    {
      "inputs": [
        {
          "internalType": "address",
          "name": "datatokenAddress",
          "type": "address"
        },
        {
          "internalType": "address",
          "name": "basetokenAddress",
          "type": "address"
        },
        {
          "internalType": "address",
          "name": "poolAddress",
          "type": "address"
        },
        {
          "internalType": "address",
          "name": "publisherAddress",
          "type": "address"
        },
        {
          "internalType": "uint256",
          "name": "burnInEndBlock",
          "type": "uint256"
        },
        {
          "internalType": "uint256[]",
          "name": "ssParams",
          "type": "uint256[]"
        }
      ],
      "name": "newDataTokenCreated",
      "outputs": [
        {
          "internalType": "bool",
          "name": "",
          "type": "bool"
        }
      ],
      "stateMutability": "nonpayable",
      "type": "function"
    },
    {
      "inputs": [
        {
          "internalType": "address",
          "name": "datatokenAddress",
          "type": "address"
        }
      ],
      "name": "notifyFinalize",
      "outputs": [],
      "stateMutability": "nonpayable",
      "type": "function"
    },
    {
      "inputs": [
        {
          "internalType": "address",
          "name": "datatokenAddress",
          "type": "address"
        },
        {
          "internalType": "address",
          "name": "userAddress",
          "type": "address"
        },
        {
          "internalType": "address",
          "name": "tokenIn",
          "type": "address"
        },
        {
          "internalType": "uint256",
          "name": "tokenAmountIn",
          "type": "uint256"
        },
        {
          "internalType": "address",
          "name": "tokenOut",
          "type": "address"
        },
        {
          "internalType": "uint256",
          "name": "minAmountOut",
          "type": "uint256"
        }
      ],
      "name": "swapExactAmountIn",
      "outputs": [
        {
          "internalType": "uint256",
          "name": "tokenAmountOut",
          "type": "uint256"
        }
      ],
      "stateMutability": "nonpayable",
      "type": "function"
    },
    {
      "inputs": [
        {
          "internalType": "address",
          "name": "datatokenAddress",
          "type": "address"
        },
        {
          "internalType": "address",
          "name": "userAddress",
          "type": "address"
        },
        {
          "internalType": "address",
          "name": "tokenIn",
          "type": "address"
        },
        {
          "internalType": "uint256",
          "name": "maxTokenAmountIn",
          "type": "uint256"
        },
        {
          "internalType": "address",
          "name": "tokenOut",
          "type": "address"
        },
        {
          "internalType": "uint256",
          "name": "amountOut",
          "type": "uint256"
        }
      ],
      "name": "swapExactAmountOut",
      "outputs": [
        {
          "internalType": "uint256",
          "name": "tokenAmountIn",
          "type": "uint256"
        }
      ],
      "stateMutability": "nonpayable",
      "type": "function"
    }
  ],
  "bytecode": "0x608060405234801561001057600080fd5b50612940806100206000396000f3fe608060405234801561001057600080fd5b50600436106101735760003560e01c806392f6cb67116100de578063cc49ede711610097578063f03cd39611610071578063f03cd39614610326578063f09a9c0514610339578063fa93fd6d1461034c578063fc9439201461035f57610173565b8063cc49ede7146102ed578063cf268dea14610300578063efd481031461031357610173565b806392f6cb671461027957806399039fcf1461028c578063bccf74fe146102a1578063bee3913d146102b4578063c1b4904d146102c7578063c4be2490146102da57610173565b806330c157011161013057806330c157011461021a5780633e6d363f1461022d5780634f3e66dc14610240578063799ece85146102535780637eaf8901146101d457806388afadce1461026657610173565b80630734b5b1146101785780631228cbee146101a15780631f16cde6146101c157806324571dd7146101d45780632686375b146101e757806326b1f01f14610207575b600080fd5b61018b610186366004612232565b610372565b60405161019891906125da565b60405180910390f35b6101b46101af366004612232565b6103d3565b604051610198919061254f565b6101b46101cf366004612232565b610422565b61018b6101e2366004612465565b610476565b6101fa6101f5366004612232565b610510565b6040516101989190612828565b61018b610215366004612425565b61055c565b6101fa6102283660046123b6565b6106f1565b6101fa61023b3660046123b6565b6109d1565b61018b61024e36600461226a565b610c52565b6101fa610261366004612232565b6114ba565b6101fa610274366004612232565b611506565b6101fa610287366004612366565b611566565b61029f61029a366004612425565b6115a9565b005b6101fa6102af366004612232565b6116fd565b6101fa6102c2366004612366565b611749565b6101fa6102d5366004612232565b611781565b6101fa6102e8366004612232565b6117cd565b61029f6102fb366004612232565b611819565b61029f61030e366004612425565b611a6a565b61018b610321366004612425565b611b25565b6101fa610334366004612232565b611bca565b6101fa610347366004612232565b611c16565b6101b461035a366004612232565b611c62565b61029f61036d366004612232565b611cb3565b6001600160a01b03811660009081526020819052604081205460ff16151560011461039f575060006103ce565b6001600160a01b0382166000908152602081905260409020600601544311156103ca575060006103ce565b5060015b919050565b6001600160a01b03811660009081526020819052604081205460ff161515600114610400575060006103ce565b506001600160a01b039081166000908152602081905260409020600101541690565b6001600160a01b03811660009081526020819052604081205460ff16151560011461044f575060006103ce565b506001600160a01b0390811660009081526020819052604090206008015461010090041690565b6001600160a01b03851660009081526020819052604081205460ff1615156001146104a357506000610507565b6001600160a01b038681166000908152602081905260409020600101541633146104e85760405162461bcd60e51b81526004016104df9061270b565b60405180910390fd5b6104f186610372565b15156001141561050357506000610507565b5060015b95945050505050565b6001600160a01b03811660009081526020819052604081205460ff16151560011461053d575060006103ce565b506001600160a01b03166000908152602081905260409020600b015490565b6001600160a01b03831660009081526020819052604081205460ff161515600114610589575060006106ea565b6001600160a01b038481166000908152602081905260409020600101541633146105c55760405162461bcd60e51b81526004016104df9061270b565b6001600160a01b03841660009081526020819052604090205460ff1615156001146105f2575060006106ea565b6001600160a01b03848116600090815260208190526040902054610100900481169084161415610624575060006106ea565b6040516370a0823160e01b815284906000906001600160a01b038316906370a082319061065590309060040161254f565b60206040518083038186803b15801561066d57600080fd5b505afa158015610681573d6000803e3d6000fd5b505050506040513d601f19601f820116820180604052508101906106a59190612537565b6001600160a01b03871660009081526020819052604090206002015490915084118015906106d35750838110155b156106e3576001925050506106ea565b6000925050505b9392505050565b6001600160a01b03861660009081526020819052604081205460ff16151560011461072e5760405162461bcd60e51b81526004016104df906125e5565b6001600160a01b0387811660009081526020819052604090206001015416331461076a5760405162461bcd60e51b81526004016104df9061270b565b61077387610372565b15156001146107945760405162461bcd60e51b81526004016104df906126d4565b6107a087868585611749565b9050838111156107c25760405162461bcd60e51b81526004016104df90612639565b6001600160a01b03878116600090815260208190526040908190206001015490516323b872dd60e01b81528792808416926323b872dd9261080e92919091169030908790600401612563565b602060405180830381600087803b15801561082857600080fd5b505af115801561083c573d6000803e3d6000fd5b505050506040513d601f19601f8201168201806040525081019061086091906124c3565b50876001600160a01b0316866001600160a01b031614156108e1576001600160a01b038816600090815260208190526040812060040180548592906108a690849061285b565b90915550506001600160a01b038816600090815260208190526040812060020180548492906108d690849061285b565b909155506109429050565b6001600160a01b0388166000908152602081905260408120600201805485929061090c90849061285b565b90915550506001600160a01b0388166000908152602081905260408120600401805484929061093c90849061285b565b90915550505b60405163a9059cbb60e01b815284906001600160a01b0382169063a9059cbb90610972908b908890600401612587565b602060405180830381600087803b15801561098c57600080fd5b505af11580156109a0573d6000803e3d6000fd5b505050506040513d601f19601f820116820180604052508101906109c491906124c3565b5050509695505050505050565b6001600160a01b03861660009081526020819052604081205460ff161515600114610a0e5760405162461bcd60e51b81526004016104df906125e5565b6001600160a01b03878116600090815260208190526040902060010154163314610a4a5760405162461bcd60e51b81526004016104df9061270b565b610a5387610372565b1515600114610a745760405162461bcd60e51b81526004016104df906126d4565b610a8087868587611566565b905081811015610aa25760405162461bcd60e51b81526004016104df906127f1565b6001600160a01b03878116600090815260208190526040908190206001015490516323b872dd60e01b81528792808416926323b872dd92610aee92919091169030908a90600401612563565b602060405180830381600087803b158015610b0857600080fd5b505af1158015610b1c573d6000803e3d6000fd5b505050506040513d601f19601f82011682018060405250810190610b4091906124c3565b50876001600160a01b0316866001600160a01b03161415610bc1576001600160a01b03881660009081526020819052604081206004018054849290610b8690849061285b565b90915550506001600160a01b03881660009081526020819052604081206002018054879290610bb690849061285b565b90915550610c229050565b6001600160a01b03881660009081526020819052604081206002018054849290610bec90849061285b565b90915550506001600160a01b03881660009081526020819052604081206004018054879290610c1c90849061285b565b90915550505b60405163a9059cbb60e01b815284906001600160a01b0382169063a9059cbb90610972908b908790600401612587565b60006001600160a01b038516610c7a5760405162461bcd60e51b81526004016104df906126a7565b6000859050306001600160a01b0316816001600160a01b0316633018205f6040518163ffffffff1660e01b815260040160206040518083038186803b158015610cc257600080fd5b505afa158015610cd6573d6000803e3d6000fd5b505050506040513d601f19601f82011682018060405250810190610cfa919061224e565b6001600160a01b031614610d205760405162461bcd60e51b81526004016104df90612670565b876001600160a01b0316816001600160a01b03166304ad79546040518163ffffffff1660e01b815260040160206040518083038186803b158015610d6357600080fd5b505afa158015610d77573d6000803e3d6000fd5b505050506040513d601f19601f82011682018060405250810190610d9b919061224e565b6001600160a01b031614610dc15760405162461bcd60e51b81526004016104df90612779565b866001600160a01b0316816001600160a01b0316634df947d06040518163ffffffff1660e01b815260040160206040518083038186803b158015610e0457600080fd5b505afa158015610e18573d6000803e3d6000fd5b505050506040513d601f19601f82011682018060405250810190610e3c919061224e565b6001600160a01b031614610e625760405162461bcd60e51b81526004016104df90612742565b604051623d104160e31b815288906001600160a01b038216906301e8820890610e8f90309060040161254f565b604080518083038186803b158015610ea657600080fd5b505afa158015610eba573d6000803e3d6000fd5b505050506040513d601f19601f82011682018060405250810190610ede91906124dd565b511515600114610f005760405162461bcd60e51b81526004016104df90612742565b806001600160a01b03166340c10f1930836001600160a01b03166318160ddd6040518163ffffffff1660e01b815260040160206040518083038186803b158015610f4957600080fd5b505afa158015610f5d573d6000803e3d6000fd5b505050506040513d601f19601f82011682018060405250810190610f819190612537565b6040518363ffffffff1660e01b8152600401610f9e929190612587565b600060405180830381600087803b158015610fb857600080fd5b505af1158015610fcc573d6000803e3d6000fd5b50505050806001600160a01b03166318160ddd6040518163ffffffff1660e01b815260040160206040518083038186803b15801561100957600080fd5b505afa15801561101d573d6000803e3d6000fd5b505050506040513d601f19601f820116820180604052508101906110419190612537565b6040516370a0823160e01b81526001600160a01b038316906370a082319061106d90309060040161254f565b60206040518083038186803b15801561108557600080fd5b505afa158015611099573d6000803e3d6000fd5b505050506040513d601f19601f820116820180604052508101906110bd9190612537565b146110da5760405162461bcd60e51b81526004016104df90612614565b6000846000815181106110fd57634e487b7160e01b600052603260045260246000fd5b6020026020010151905060008560018151811061112a57634e487b7160e01b600052603260045260246000fd5b60200260200101516000141561114257506000611146565b5060015b60008660028151811061116957634e487b7160e01b600052603260045260246000fd5b6020026020010151905060008760038151811061119657634e487b7160e01b600052603260045260246000fd5b6020026020010151436111a9919061285b565b90506040518061022001604052806001151581526020018d6001600160a01b031681526020018c6001600160a01b03168152602001600015158152602001866001600160a01b03166318160ddd6040518163ffffffff1660e01b815260040160206040518083038186803b15801561122057600080fd5b505afa158015611234573d6000803e3d6000fd5b505050506040513d601f19601f820116820180604052508101906112589190612537565b8152602001866001600160a01b031663355274ea6040518163ffffffff1660e01b815260040160206040518083038186803b15801561129657600080fd5b505afa1580156112aa573d6000803e3d6000fd5b505050506040513d601f19601f820116820180604052508101906112ce9190612537565b815260200160008152602001600081526020018a815260200185815260200184151581526020018b6001600160a01b0316815260200143815260200182815260200183815260200143815260200160008152506000808f6001600160a01b03166001600160a01b0316815260200190815260200160002060008201518160000160006101000a81548160ff02191690831515021790555060208201518160000160016101000a8154816001600160a01b0302191690836001600160a01b0316021790555060408201518160010160006101000a8154816001600160a01b0302191690836001600160a01b0316021790555060608201518160010160146101000a81548160ff0219169083151502179055506080820151816002015560a0820151816003015560c0820151816004015560e08201518160050155610100820151816006015561012082015181600701556101408201518160080160006101000a81548160ff0219169083151502179055506101608201518160080160016101000a8154816001600160a01b0302191690836001600160a01b0316021790555061018082015181600901556101a082015181600a01556101c082015181600b01556101e082015181600c015561020082015181600d0155905050600196505050505050509695505050505050565b6001600160a01b03811660009081526020819052604081205460ff1615156001146114e7575060006103ce565b506001600160a01b03166000908152602081905260409020600a015490565b6001600160a01b03811660009081526020819052604081205460ff161515600114611533575060006103ce565b6001600160a01b0382166000908152602081905260409020600281015460039091015461156091906128b2565b92915050565b6001600160a01b03841660009081526020819052604081205460ff161515600114611593575060006115a1565b61159e84848461202e565b90505b949350505050565b6001600160a01b03831660009081526020819052604090205460ff1615156001146115d3576116f8565b6001600160a01b0383811660009081526020819052604090206001015416331461160f5760405162461bcd60e51b81526004016104df9061270b565b600061161c84848461055c565b905060018115151461162e57506116f8565b6001600160a01b038085166000818152602081905260409081902060010154905163095ea7b360e01b8152879363095ea7b392611672929116908790600401612587565b602060405180830381600087803b15801561168c57600080fd5b505af11580156116a0573d6000803e3d6000fd5b505050506040513d601f19601f820116820180604052508101906116c491906124c3565b506001600160a01b038516600090815260208190526040812060020180548592906116f09084906128b2565b909155505050505b505050565b6001600160a01b03811660009081526020819052604081205460ff16151560011461172a575060006103ce565b506001600160a01b03166000908152602081905260409020600d015490565b6001600160a01b03841660009081526020819052604081205460ff161515600114611776575060006115a1565b61159e848484612123565b6001600160a01b03811660009081526020819052604081205460ff1615156001146117ae575060006103ce565b506001600160a01b031660009081526020819052604090206002015490565b6001600160a01b03811660009081526020819052604081205460ff1615156001146117fa575060006103ce565b506001600160a01b031660009081526020819052604090206004015490565b6001600160a01b03811660009081526020819052604090205460ff1615156001146118565760405162461bcd60e51b81526004016104df906125e5565b6001600160a01b0381811660009081526020819052604090206008015461010090041633146118975760405162461bcd60e51b81526004016104df906127b0565b6001600160a01b0381166000908152602081905260408120600c01546118bd90436128b2565b6001600160a01b03831660009081526020819052604081206009810154600a909101549293509091611914916118f2916128b2565b6001600160a01b0385166000908152602081905260409020600b01549061220a565b905080611922575050611a67565b600061192e8383612216565b905060008111801561195b57506001600160a01b0384166000908152602081905260409020600201548111155b15611a63576001600160a01b0384166000908152602081905260408120600b018054869284929161198d90849061285b565b90915550506001600160a01b038086166000908152602081905260409081902043600c82015560080154905163a9059cbb60e01b81528383169263a9059cbb926119e592610100909104909116908690600401612587565b602060405180830381600087803b1580156119ff57600080fd5b505af1158015611a13573d6000803e3d6000fd5b505050506040513d601f19601f82011682018060405250810190611a3791906124c3565b506001600160a01b038516600090815260208190526040812060020180548492906116f09084906128b2565b5050505b50565b6001600160a01b03831660009081526020819052604090205460ff161515600114611a94576116f8565b6001600160a01b03838116600090815260208190526040902060010154163314611ad05760405162461bcd60e51b81526004016104df9061270b565b6000611add848484611b25565b9050600181151514611aef57506116f8565b6001600160a01b03841660009081526020819052604081206002018054849290611b1a90849061285b565b909155505050505050565b6001600160a01b03831660009081526020819052604081205460ff161515600114611b52575060006106ea565b6001600160a01b03848116600090815260208190526040902060010154163314611b8e5760405162461bcd60e51b81526004016104df9061270b565b6001600160a01b03848116600090815260208190526040902054610100900481169084161415611bc0575060006106ea565b5060019392505050565b6001600160a01b03811660009081526020819052604081205460ff161515600114611bf7575060006103ce565b506001600160a01b03166000908152602081905260409020600c015490565b6001600160a01b03811660009081526020819052604081205460ff161515600114611c43575060006103ce565b506001600160a01b031660009081526020819052604090206006015490565b6001600160a01b03811660009081526020819052604081205460ff161515600114611c8f575060006103ce565b506001600160a01b0390811660009081526020819052604090205461010090041690565b6001600160a01b03811660009081526020819052604090205460ff161515600114611cdd57611a67565b6001600160a01b03818116600090815260208190526040902060010154163314611d195760405162461bcd60e51b81526004016104df9061270b565b6001600160a01b0381166000908152602081905260409020600190810154600160a01b900460ff1615151415611d4e57611a67565b6001600160a01b0381166000908152602081905260408120600101805460ff60a01b1916600160a01b179055611d8d670de0b6b3a76400006005612893565b90506000611da4670de0b6b3a76400006005612893565b6001600160a01b03841660009081526020819052604081206004015491925082611dce8584612873565b6001600160a01b038716600090815260208190526040902060070154611df49190612893565b611dfe9190612893565b6001600160a01b038087166000818152602081905260409081902060010154905163095ea7b360e01b81529394508893919263095ea7b392611e4892909116908690600401612587565b602060405180830381600087803b158015611e6257600080fd5b505af1158015611e76573d6000803e3d6000fd5b505050506040513d601f19601f82011682018060405250810190611e9a91906124c3565b506001600160a01b038087166000908152602081905260409081902054905163095ea7b360e01b815261010090910490911690819063095ea7b390611ee59083908890600401612587565b602060405180830381600087803b158015611eff57600080fd5b505af1158015611f13573d6000803e3d6000fd5b505050506040513d601f19601f82011682018060405250810190611f3791906124c3565b506001600160a01b03808816600090815260208190526040908190206001810154905491516309ef3f5b60e01b81529083169283926309ef3f5b92611f92928d928a928d92610100909204909116908c908f906004016125a0565b600060405180830381600087803b158015611fac57600080fd5b505af1158015611fc0573d6000803e3d6000fd5b505050506001600160a01b03881660009081526020819052604081206004018054879290611fef9084906128b2565b90915550506001600160a01b0388166000908152602081905260408120600201805486929061201f9084906128b2565b90915550505050505050505050565b6001600160a01b03831660009081526020819052604081205460ff161515600114156120c1576001600160a01b03841660009081526020819052604090206008015460ff1661207f575060006106ea565b6001600160a01b0384166000908152602081905260409020600701546120ba90670de0b6b3a7640000906120b4908590612216565b9061220a565b90506106ea565b6001600160a01b03831660009081526020819052604090205460ff16151560011415612119576001600160a01b0384166000908152602081905260409020600701546120ba906120b484670de0b6b3a7640000612216565b5060009392505050565b6001600160a01b03831660009081526020819052604081205460ff161515600114156121af576001600160a01b03841660009081526020819052604090206008015460ff16612174575060006106ea565b6001600160a01b0384166000908152602081905260408120600701546121a6906120b485670de0b6b3a7640000612216565b91506106ea9050565b6001600160a01b03831660009081526020819052604090205460ff16151560011415612119576001600160a01b0384166000908152602081905260408120600701546121a690670de0b6b3a7640000906120b4908690612216565b60006106ea8284612873565b60006106ea8284612893565b805180151581146103ce57600080fd5b600060208284031215612243578081fd5b81356106ea816128f5565b60006020828403121561225f578081fd5b81516106ea816128f5565b60008060008060008060c08789031215612282578182fd5b863561228d816128f5565b955060208781013561229e816128f5565b955060408801356122ae816128f5565b945060608801356122be816128f5565b93506080880135925060a088013567ffffffffffffffff808211156122e1578384fd5b818a0191508a601f8301126122f4578384fd5b813581811115612306576123066128df565b8381029150612316848301612831565b8181528481019084860184860187018f1015612330578788fd5b8795505b83861015612352578035835260019590950194918601918601612334565b508096505050505050509295509295509295565b6000806000806080858703121561237b578384fd5b8435612386816128f5565b93506020850135612396816128f5565b925060408501356123a6816128f5565b9396929550929360600135925050565b60008060008060008060c087890312156123ce578182fd5b86356123d9816128f5565b955060208701356123e9816128f5565b945060408701356123f9816128f5565b9350606087013592506080870135612410816128f5565b8092505060a087013590509295509295509295565b600080600060608486031215612439578283fd5b8335612444816128f5565b92506020840135612454816128f5565b929592945050506040919091013590565b600080600080600060a0868803121561247c578081fd5b8535612487816128f5565b94506020860135612497816128f5565b9350604086013592506060860135915060808601356124b5816128f5565b809150509295509295909350565b6000602082840312156124d4578081fd5b6106ea82612222565b6000604082840312156124ee578081fd5b6040516040810181811067ffffffffffffffff82111715612511576125116128df565b60405261251d83612222565b815261252b60208401612222565b60208201529392505050565b600060208284031215612548578081fd5b5051919050565b6001600160a01b0391909116815260200190565b6001600160a01b039384168152919092166020820152604081019190915260600190565b6001600160a01b03929092168252602082015260400190565b6001600160a01b0396871681526020810195909552604085019390935293166060830152608082019290925260a081019190915260c00190565b901515815260200190565b60208082526015908201527422a9291d24b73b30b634b2103230ba30ba37b5b2b760591b604082015260600190565b6020808252600b908201526a135a5b9d0819985a5b195960aa1b604082015260600190565b6020808252601d908201527f4552523a6d6178546f6b656e416d6f756e74496e206e6f74206d656574000000604082015260600190565b6020808252601e908201527f576520617265206e6f742074686520706f6f6c20636f6e74726f6c6c65720000604082015260600190565b602080825260139082015272496e76616c696420706f6f6c4164647265737360681b604082015260600190565b6020808252601a908201527f4552523a204e6f7420696e206275726e2d696e20706572696f64000000000000604082015260600190565b6020808252601c908201527f4552523a204f6e6c7920706f6f6c2063616e2063616c6c207468697300000000604082015260600190565b6020808252601b908201527f42617365546f6b656e2061646472657373206d6973736d617463680000000000604082015260600190565b6020808252601b908201527f44617461546f6b656e2061646472657373206d6973736d617463680000000000604082015260600190565b60208082526021908201527f4552523a204f6e6c79207075626c69736865722063616e2063616c6c207468696040820152607360f81b606082015260800190565b60208082526019908201527f4552523a6d696e416d6f756e744f7574206e6f74206d65657400000000000000604082015260600190565b90815260200190565b60405181810167ffffffffffffffff81118282101715612853576128536128df565b604052919050565b6000821982111561286e5761286e6128c9565b500190565b60008261288e57634e487b7160e01b81526012600452602481fd5b500490565b60008160001904831182151516156128ad576128ad6128c9565b500290565b6000828210156128c4576128c46128c9565b500390565b634e487b7160e01b600052601160045260246000fd5b634e487b7160e01b600052604160045260246000fd5b6001600160a01b0381168114611a6757600080fdfea2646970667358221220da39e90d80d4018cfc3b21c46efef6aaca886e54136da2ce3e85abf2d91c254764736f6c63430008000033",
  "linkReferences": {},
  "deployedLinkReferences": {}
}