{
  "_format": "hh-sol-artifact-1",
  "contractName": "ssFixedRate",
  "sourceName": "contracts/ssContracts/ssFixedRate.sol",
  "abi": [
    {
      "inputs": [],
      "stateMutability": "nonpayable",
      "type": "constructor"
    },
    {
      "inputs": [
        {
          "internalType": "address",
          "name": "datatokenAddress",
          "type": "address"
        },
        {
          "internalType": "address",
          "name": "stakeToken",
          "type": "address"
        },
        {
          "internalType": "uint256",
          "name": "amount",
          "type": "uint256"
        }
      ],
      "name": "Stake",
      "outputs": [],
      "stateMutability": "nonpayable",
      "type": "function"
    },
    {
      "inputs": [
        {
          "internalType": "address",
          "name": "datatokenAddress",
          "type": "address"
        },
        {
          "internalType": "address",
          "name": "stakeToken",
          "type": "address"
        },
        {
          "internalType": "uint256",
          "name": "amount",
          "type": "uint256"
        }
      ],
      "name": "UnStake",
      "outputs": [],
      "stateMutability": "nonpayable",
      "type": "function"
    },
    {
      "inputs": [
        {
          "internalType": "address",
          "name": "datatokenAddress",
          "type": "address"
        },
        {
          "internalType": "address",
          "name": "basetoken",
          "type": "address"
        },
        {
          "internalType": "uint256",
          "name": "datatokenAmount",
          "type": "uint256"
        },
        {
          "internalType": "uint256",
          "name": "basetokenAmount",
          "type": "uint256"
        },
        {
          "internalType": "address",
          "name": "userAddress",
          "type": "address"
        }
      ],
      "name": "allowStake",
      "outputs": [
        {
          "internalType": "bool",
          "name": "",
          "type": "bool"
        }
      ],
      "stateMutability": "view",
      "type": "function"
    },
    {
      "inputs": [
        {
          "internalType": "address",
          "name": "datatokenAddress",
          "type": "address"
        },
        {
          "internalType": "address",
          "name": "basetoken",
          "type": "address"
        },
        {
          "internalType": "uint256",
          "name": "datatokenAmount",
          "type": "uint256"
        },
        {
          "internalType": "uint256",
          "name": "basetokenAmount",
          "type": "uint256"
        },
        {
          "internalType": "address",
          "name": "userAddress",
          "type": "address"
        }
      ],
      "name": "allowUnStake",
      "outputs": [
        {
          "internalType": "bool",
          "name": "",
          "type": "bool"
        }
      ],
      "stateMutability": "view",
      "type": "function"
    },
    {
      "inputs": [
        {
          "internalType": "address",
          "name": "datatokenAddress",
          "type": "address"
        },
        {
          "internalType": "address",
          "name": "tokenIn",
          "type": "address"
        },
        {
          "internalType": "address",
          "name": "tokenOut",
          "type": "address"
        },
        {
          "internalType": "uint256",
          "name": "tokenAmountOut",
          "type": "uint256"
        }
      ],
      "name": "calcInGivenOut",
      "outputs": [
        {
          "internalType": "uint256",
          "name": "",
          "type": "uint256"
        }
      ],
      "stateMutability": "view",
      "type": "function"
    },
    {
      "inputs": [
        {
          "internalType": "address",
          "name": "datatokenAddress",
          "type": "address"
        },
        {
          "internalType": "address",
          "name": "tokenIn",
          "type": "address"
        },
        {
          "internalType": "address",
          "name": "tokenOut",
          "type": "address"
        },
        {
          "internalType": "uint256",
          "name": "tokenAmountIn",
          "type": "uint256"
        }
      ],
      "name": "calcOutGivenIn",
      "outputs": [
        {
          "internalType": "uint256",
          "name": "",
          "type": "uint256"
        }
      ],
      "stateMutability": "view",
      "type": "function"
    },
    {
      "inputs": [
        {
          "internalType": "address",
          "name": "datatokenAddress",
          "type": "address"
        },
        {
          "internalType": "address",
          "name": "stakeToken",
          "type": "address"
        },
        {
          "internalType": "uint256",
          "name": "amount",
          "type": "uint256"
        }
      ],
      "name": "canStake",
      "outputs": [
        {
          "internalType": "bool",
          "name": "",
          "type": "bool"
        }
      ],
      "stateMutability": "view",
      "type": "function"
    },
    {
      "inputs": [
        {
          "internalType": "address",
          "name": "datatokenAddress",
          "type": "address"
        },
        {
          "internalType": "address",
          "name": "stakeToken",
          "type": "address"
        },
        {
          "internalType": "uint256",
          "name": "amount",
          "type": "uint256"
        }
      ],
      "name": "canUnStake",
      "outputs": [
        {
          "internalType": "bool",
          "name": "",
          "type": "bool"
        }
      ],
      "stateMutability": "view",
      "type": "function"
    },
    {
      "inputs": [
        {
          "internalType": "address",
          "name": "datatokenAddress",
          "type": "address"
        }
      ],
      "name": "getBaseTokenAddress",
      "outputs": [
        {
          "internalType": "address",
          "name": "",
          "type": "address"
        }
      ],
      "stateMutability": "view",
      "type": "function"
    },
    {
      "inputs": [
        {
          "internalType": "address",
          "name": "datatokenAddress",
          "type": "address"
        }
      ],
      "name": "getBaseTokenBalance",
      "outputs": [
        {
          "internalType": "uint256",
          "name": "",
          "type": "uint256"
        }
      ],
      "stateMutability": "view",
      "type": "function"
    },
    {
      "inputs": [
        {
          "internalType": "address",
          "name": "datatokenAddress",
          "type": "address"
        }
      ],
      "name": "getDataTokenBalance",
      "outputs": [
        {
          "internalType": "uint256",
          "name": "",
          "type": "uint256"
        }
      ],
      "stateMutability": "view",
      "type": "function"
    },
    {
      "inputs": [
        {
          "internalType": "address",
          "name": "datatokenAddress",
          "type": "address"
        }
      ],
      "name": "getDataTokenCirculatingSupply",
      "outputs": [
        {
          "internalType": "uint256",
          "name": "",
          "type": "uint256"
        }
      ],
      "stateMutability": "view",
      "type": "function"
    },
    {
      "inputs": [
        {
          "internalType": "address",
          "name": "datatokenAddress",
          "type": "address"
        }
      ],
      "name": "getPoolAddress",
      "outputs": [
        {
          "internalType": "address",
          "name": "",
          "type": "address"
        }
      ],
      "stateMutability": "view",
      "type": "function"
    },
    {
      "inputs": [
        {
          "internalType": "address",
          "name": "datatokenAddress",
          "type": "address"
        }
      ],
      "name": "getPublisherAddress",
      "outputs": [
        {
          "internalType": "address",
          "name": "",
          "type": "address"
        }
      ],
      "stateMutability": "view",
      "type": "function"
    },
    {
      "inputs": [
        {
          "internalType": "address",
          "name": "datatokenAddress",
          "type": "address"
        }
      ],
      "name": "getVesting",
      "outputs": [],
      "stateMutability": "nonpayable",
      "type": "function"
    },
    {
      "inputs": [
        {
          "internalType": "address",
          "name": "datatokenAddress",
          "type": "address"
        }
      ],
      "name": "getvestingAmount",
      "outputs": [
        {
          "internalType": "uint256",
          "name": "",
          "type": "uint256"
        }
      ],
      "stateMutability": "view",
      "type": "function"
    },
    {
      "inputs": [
        {
          "internalType": "address",
          "name": "datatokenAddress",
          "type": "address"
        }
      ],
      "name": "getvestingAmountSoFar",
      "outputs": [
        {
          "internalType": "uint256",
          "name": "",
          "type": "uint256"
        }
      ],
      "stateMutability": "view",
      "type": "function"
    },
    {
      "inputs": [
        {
          "internalType": "address",
          "name": "datatokenAddress",
          "type": "address"
        }
      ],
      "name": "getvestingEndBlock",
      "outputs": [
        {
          "internalType": "uint256",
          "name": "",
          "type": "uint256"
        }
      ],
      "stateMutability": "view",
      "type": "function"
    },
    {
      "inputs": [
        {
          "internalType": "address",
          "name": "datatokenAddress",
          "type": "address"
        }
      ],
      "name": "getvestingLastBlock",
      "outputs": [
        {
          "internalType": "uint256",
          "name": "",
          "type": "uint256"
        }
      ],
      "stateMutability": "view",
      "type": "function"
    },
    {
      "inputs": [
        {
          "internalType": "address",
          "name": "datatokenAddress",
          "type": "address"
        },
        {
          "internalType": "address",
          "name": "basetokenAddress",
          "type": "address"
        },
        {
          "internalType": "address",
          "name": "poolAddress",
          "type": "address"
        },
        {
          "internalType": "address",
          "name": "publisherAddress",
          "type": "address"
        },
        {
          "internalType": "uint256[]",
          "name": "ssParams",
          "type": "uint256[]"
        }
      ],
      "name": "newDataTokenCreated",
      "outputs": [
        {
          "internalType": "bool",
          "name": "",
          "type": "bool"
        }
      ],
      "stateMutability": "nonpayable",
      "type": "function"
    }
  ],
  "bytecode": "0x608060405234801561001057600080fd5b50612281806100206000396000f3fe608060405234801561001057600080fd5b506004361061012c5760003560e01c806399039fcf116100ad578063cc49ede711610071578063cc49ede71461026d578063cf268dea14610280578063efd4810314610293578063f03cd396146102a6578063fa93fd6d146102b95761012c565b806399039fcf1461020c578063bccf74fe14610221578063bee3913d14610234578063c1b4904d14610247578063c4be24901461025a5761012c565b806353f0c3b4116100f457806353f0c3b4146101c0578063799ece85146101d35780637eaf89011461016d57806388afadce146101e657806392f6cb67146101f95761012c565b80631228cbee146101315780631f16cde61461015a57806324571dd71461016d5780632686375b1461018d57806326b1f01f146101ad575b600080fd5b61014461013f366004611b32565b6102cc565b6040516101519190611e23565b60405180910390f35b610144610168366004611b32565b61031e565b61018061017b366004611cee565b61036d565b6040516101519190611e8a565b6101a061019b366004611b32565b6103ec565b604051610151919061203c565b6101806101bb366004611cae565b610438565b6101806101ce366004611b6a565b61050a565b6101a06101e1366004611b32565b610d17565b6101a06101f4366004611b32565b610d63565b6101a0610207366004611c5e565b610dc3565b61021f61021a366004611cae565b610e06565b005b6101a061022f366004611b32565b610f5a565b6101a0610242366004611c5e565b610fa6565b6101a0610255366004611b32565b610fde565b6101a0610268366004611b32565b61102a565b61021f61027b366004611b32565b611076565b61021f61028e366004611cae565b6112d0565b6101806102a1366004611cae565b61138b565b6101a06102b4366004611b32565b611430565b6101446102c7366004611b32565b61147c565b6001600160a01b03811660009081526020819052604081205460ff1615156001146102f957506000610319565b506001600160a01b03808216600090815260208190526040902060010154165b919050565b6001600160a01b03811660009081526020819052604081205460ff16151560011461034b57506000610319565b506001600160a01b039081166000908152602081905260409020600701541690565b6001600160a01b03851660009081526020819052604081205460ff16151560011461039a575060006103e3565b6001600160a01b038681166000908152602081905260409020600101541633146103df5760405162461bcd60e51b81526004016103d690611f97565b60405180910390fd5b5060015b95945050505050565b6001600160a01b03811660009081526020819052604081205460ff16151560011461041957506000610319565b506001600160a01b03166000908152602081905260409020600a015490565b6001600160a01b0383811660009081526020819052604081206001015490911633146104765760405162461bcd60e51b81526004016103d690611f97565b6001600160a01b03841660009081526020819052604090205460ff1615156001146104a357506000610503565b6001600160a01b038481166000908152602081905260409020546101009004811690841614156104d557506000610503565b6001600160a01b03841660009081526020819052604090206002015482116104ff57506001610503565b5060005b9392505050565b60006001600160a01b0384166105325760405162461bcd60e51b81526004016103d690611f6a565b6000849050306001600160a01b0316816001600160a01b0316633018205f6040518163ffffffff1660e01b815260040160206040518083038186803b15801561057a57600080fd5b505afa15801561058e573d6000803e3d6000fd5b505050506040513d601f19601f820116820180604052508101906105b29190611b4e565b6001600160a01b0316146105d85760405162461bcd60e51b81526004016103d690611efc565b866001600160a01b0316816001600160a01b03166304ad79546040518163ffffffff1660e01b815260040160206040518083038186803b15801561061b57600080fd5b505afa15801561062f573d6000803e3d6000fd5b505050506040513d601f19601f820116820180604052508101906106539190611b4e565b6001600160a01b0316146106795760405162461bcd60e51b81526004016103d690612005565b856001600160a01b0316816001600160a01b0316634df947d06040518163ffffffff1660e01b815260040160206040518083038186803b1580156106bc57600080fd5b505afa1580156106d0573d6000803e3d6000fd5b505050506040513d601f19601f820116820180604052508101906106f49190611b4e565b6001600160a01b03161461071a5760405162461bcd60e51b81526004016103d690611fce565b604051623d104160e31b815287906001600160a01b038216906301e8820890610747903090600401611e23565b604080518083038186803b15801561075e57600080fd5b505afa158015610772573d6000803e3d6000fd5b505050506040513d601f19601f820116820180604052508101906107969190611d66565b5115156001146107b85760405162461bcd60e51b81526004016103d690611f33565b806001600160a01b03166340c10f1930836001600160a01b031663355274ea6040518163ffffffff1660e01b815260040160206040518083038186803b15801561080157600080fd5b505afa158015610815573d6000803e3d6000fd5b505050506040513d601f19601f820116820180604052508101906108399190611dc0565b6040518363ffffffff1660e01b8152600401610856929190611e37565b600060405180830381600087803b15801561087057600080fd5b505af1158015610884573d6000803e3d6000fd5b50505050806001600160a01b03166318160ddd6040518163ffffffff1660e01b815260040160206040518083038186803b1580156108c157600080fd5b505afa1580156108d5573d6000803e3d6000fd5b505050506040513d601f19601f820116820180604052508101906108f99190611dc0565b6040516370a0823160e01b81526001600160a01b038316906370a0823190610925903090600401611e23565b60206040518083038186803b15801561093d57600080fd5b505afa158015610951573d6000803e3d6000fd5b505050506040513d601f19601f820116820180604052508101906109759190611dc0565b146109925760405162461bcd60e51b81526004016103d690611ed7565b604051806101e00160405280600115158152602001886001600160a01b03168152602001876001600160a01b03168152602001600015158152602001856002815181106109ef57634e487b7160e01b600052603260045260246000fd5b6020026020010151836001600160a01b03166318160ddd6040518163ffffffff1660e01b815260040160206040518083038186803b158015610a3057600080fd5b505afa158015610a44573d6000803e3d6000fd5b505050506040513d601f19601f82011682018060405250810190610a689190611dc0565b610a7291906121f3565b8152602001826001600160a01b031663355274ea6040518163ffffffff1660e01b815260040160206040518083038186803b158015610ab057600080fd5b505afa158015610ac4573d6000803e3d6000fd5b505050506040513d601f19601f82011682018060405250810190610ae89190611dc0565b815260200185600481518110610b0e57634e487b7160e01b600052603260045260246000fd5b602002602001015181526020016000815260200185600081518110610b4357634e487b7160e01b600052603260045260246000fd5b60200260200101518152602001866001600160a01b0316815260200143815260200185600381518110610b8657634e487b7160e01b600052603260045260246000fd5b602002602001015143610b999190612088565b815260200185600281518110610bbf57634e487b7160e01b600052603260045260246000fd5b60209081029190910181015182524382820152600060409283018190526001600160a01b038c8116825281835290839020845181549386015160ff1990941690151517610100600160a81b0319166101009383168402178155928401516001808501805460608801516001600160a01b03199182169486169490941760ff60a01b1916600160a01b941515949094029390931790556080860151600286015560a0860151600386015560c0860151600486015560e08601516005860155928501516006850155610120850151600785018054909216921691909117905561014083015160088301556101608301516009830155610180830151600a8301556101a0830151600b8301556101c090920151600c909101558451610d09918a918791908110610cfc57634e487b7160e01b600052603260045260246000fd5b60200260200101516114cd565b506001979650505050505050565b6001600160a01b03811660009081526020819052604081205460ff161515600114610d4457506000610319565b506001600160a01b031660009081526020819052604090206009015490565b6001600160a01b03811660009081526020819052604081205460ff161515600114610d9057506000610319565b6001600160a01b03821660009081526020819052604090206002810154600390910154610dbd91906121f3565b92915050565b6001600160a01b03841660009081526020819052604081205460ff161515600114610df057506000610dfe565b610dfb8484846118e9565b90505b949350505050565b6001600160a01b03831660009081526020819052604090205460ff161515600114610e3057610f55565b6001600160a01b03838116600090815260208190526040902060010154163314610e6c5760405162461bcd60e51b81526004016103d690611f97565b6000610e79848484610438565b9050600181151514610e8b5750610f55565b6001600160a01b038085166000818152602081905260409081902060010154905163095ea7b360e01b8152879363095ea7b392610ecf929116908790600401611e37565b602060405180830381600087803b158015610ee957600080fd5b505af1158015610efd573d6000803e3d6000fd5b505050506040513d601f19601f82011682018060405250810190610f219190611d4c565b506001600160a01b03851660009081526020819052604081206002018054859290610f4d9084906121f3565b909155505050505b505050565b6001600160a01b03811660009081526020819052604081205460ff161515600114610f8757506000610319565b506001600160a01b03166000908152602081905260409020600c015490565b6001600160a01b03841660009081526020819052604081205460ff161515600114610fd357506000610dfe565b610dfb8484846119a9565b6001600160a01b03811660009081526020819052604081205460ff16151560011461100b57506000610319565b506001600160a01b031660009081526020819052604090206002015490565b6001600160a01b03811660009081526020819052604081205460ff16151560011461105757506000610319565b506001600160a01b031660009081526020819052604090206004015490565b6001600160a01b03811660009081526020819052604090205460ff1615156001146110b35760405162461bcd60e51b81526004016103d690611ea8565b6001600160a01b03811660009081526020819052604081206009015443111561110a576001600160a01b0382166000908152602081905260409020600b81015460099091015461110391906121f3565b9050611133565b6001600160a01b0382166000908152602081905260409020600b015461113090436121f3565b90505b6001600160a01b0382166000908152602081905260408120600881015460099091015461118591611163916121f3565b6001600160a01b0385166000908152602081905260409020600a015490611a65565b9050806111935750506112cd565b600061119f8383611a71565b90506000811180156111cc57506001600160a01b0384166000908152602081905260409020600201548111155b156112c9576001600160a01b038085166000818152602081905260409081902043600b82015560070154905163a9059cbb60e01b8152879363a9059cbb9261121b929116908690600401611e37565b602060405180830381600087803b15801561123557600080fd5b505af1158015611249573d6000803e3d6000fd5b505050506040513d601f19601f8201168201806040525081019061126d9190611d4c565b506001600160a01b038516600090815260208190526040812060020180548492906112999084906121f3565b90915550506001600160a01b0385166000908152602081905260408120600c018054849290610f4d908490612088565b5050505b50565b6001600160a01b03831660009081526020819052604090205460ff1615156001146112fa57610f55565b6001600160a01b038381166000908152602081905260409020600101541633146113365760405162461bcd60e51b81526004016103d690611f97565b600061134384848461138b565b90506001811515146113555750610f55565b6001600160a01b03841660009081526020819052604081206002018054849290611380908490612088565b909155505050505050565b6001600160a01b03831660009081526020819052604081205460ff1615156001146113b857506000610503565b6001600160a01b038481166000908152602081905260409020600101541633146113f45760405162461bcd60e51b81526004016103d690611f97565b6001600160a01b0384811660009081526020819052604090205461010090048116908416141561142657506000610503565b5060019392505050565b6001600160a01b03811660009081526020819052604081205460ff16151560011461145d57506000610319565b506001600160a01b03166000908152602081905260409020600b015490565b6001600160a01b03811660009081526020819052604081205460ff1615156001146114a957506000610319565b506001600160a01b0390811660009081526020819052604090205461010090041690565b6001600160a01b03821660009081526020819052604090205460ff1615156001146114f7576118e5565b6001600160a01b0382166000908152602081905260409020600190810154600160a01b900460ff161515141561152c576118e5565b6001600160a01b0382166000908152602081905260408120600101805460ff60a01b1916600160a01b17905561156b670de0b6b3a764000060056121d4565b90506000611582670de0b6b3a764000060056121d4565b90506000806000866001600160a01b03166001600160a01b031681526020019081526020016000206004015490506115e1816040518060400160405280600f81526020016e18985cd9551bdad95b985b5bdd5b9d608a1b815250611a7d565b60006115ee8560126121f3565b6115f990600a612106565b6001600160a01b038716600090815260208190526040902060060154670de0b6b3a7640000908690869061162e9087906121d4565b61163891906121d4565b61164291906120a0565b61164c91906120a0565b61165691906121d4565b9050611689816040518060400160405280600f81526020016e19185d185d1bdad95b985b5bdd5b9d608a1b815250611a7d565b6001600160a01b038087166000818152602081905260409081902060010154905163095ea7b360e01b8152899363095ea7b3926116cd929116908690600401611e37565b602060405180830381600087803b1580156116e757600080fd5b505af11580156116fb573d6000803e3d6000fd5b505050506040513d601f19601f8201168201806040525081019061171f9190611d4c565b506001600160a01b03808816600090815260208190526040908190208054600190910154915163095ea7b360e01b8152610100909104831692839263095ea7b3926117739291909116908890600401611e37565b602060405180830381600087803b15801561178d57600080fd5b505af11580156117a1573d6000803e3d6000fd5b505050506040513d601f19601f820116820180604052508101906117c59190611d4c565b506117f16040518060400160405280600a8152602001696861737461206171756960b01b815250611ac2565b6001600160a01b03808916600090815260208190526040908190206001810154905491516309ef3f5b60e01b81529083169283926309ef3f5b9261184b928e928a928d92610100909204909116908c908f90600401611e50565b600060405180830381600087803b15801561186557600080fd5b505af1158015611879573d6000803e3d6000fd5b505050506001600160a01b038916600090815260208190526040812060040180548792906118a89084906121f3565b90915550506001600160a01b038916600090815260208190526040812060020180548692906118d89084906121f3565b9091555050505050505050505b5050565b6001600160a01b03831660009081526020819052604081205460ff16151560011415611951576001600160a01b03841660009081526020819052604090206006015461194a90670de0b6b3a764000090611944908590611a71565b90611a65565b9050610503565b6001600160a01b03831660009081526020819052604090205460ff161515600114156104ff576001600160a01b03831660009081526020819052604090206006015461194a9061194484670de0b6b3a7640000611a71565b6001600160a01b03831660009081526020819052604081205460ff16151560011415611a0a576001600160a01b038416600090815260208190526040812060060154611a019061194485670de0b6b3a7640000611a71565b91506105039050565b6001600160a01b03831660009081526020819052604090205460ff161515600114156104ff576001600160a01b038316600090815260208190526040812060060154611a0190670de0b6b3a764000090611944908690611a71565b600061050382846120a0565b600061050382846121d4565b6118e58282604051602401611a93929190612045565b60408051601f198184030181529190526020810180516001600160e01b0316630fa3f34560e01b179052611b01565b6112cd81604051602401611ad69190611e95565b60408051601f198184030181529190526020810180516001600160e01b031663104c13eb60e21b1790525b80516a636f6e736f6c652e6c6f67602083016000808483855afa5050505050565b8051801515811461031957600080fd5b600060208284031215611b43578081fd5b813561050381612236565b600060208284031215611b5f578081fd5b815161050381612236565b600080600080600060a08688031215611b81578081fd5b8535611b8c81612236565b9450602086810135611b9d81612236565b94506040870135611bad81612236565b93506060870135611bbd81612236565b9250608087013567ffffffffffffffff80821115611bd9578384fd5b818901915089601f830112611bec578384fd5b813581811115611bfe57611bfe612220565b8381029150611c0e84830161205e565b8181528481019084860184860187018e1015611c28578788fd5b8795505b83861015611c4a578035835260019590950194918601918601611c2c565b508096505050505050509295509295909350565b60008060008060808587031215611c73578384fd5b8435611c7e81612236565b93506020850135611c8e81612236565b92506040850135611c9e81612236565b9396929550929360600135925050565b600080600060608486031215611cc2578283fd5b8335611ccd81612236565b92506020840135611cdd81612236565b929592945050506040919091013590565b600080600080600060a08688031215611d05578081fd5b8535611d1081612236565b94506020860135611d2081612236565b935060408601359250606086013591506080860135611d3e81612236565b809150509295509295909350565b600060208284031215611d5d578081fd5b61050382611b22565b600060408284031215611d77578081fd5b6040516040810181811067ffffffffffffffff82111715611d9a57611d9a612220565b604052611da683611b22565b8152611db460208401611b22565b60208201529392505050565b600060208284031215611dd1578081fd5b5051919050565b60008151808452815b81811015611dfd57602081850181015186830182015201611de1565b81811115611e0e5782602083870101525b50601f01601f19169290920160200192915050565b6001600160a01b0391909116815260200190565b6001600160a01b03929092168252602082015260400190565b6001600160a01b0396871681526020810195909552604085019390935293166060830152608082019290925260a081019190915260c00190565b901515815260200190565b6000602082526105036020830184611dd8565b60208082526015908201527422a9291d24b73b30b634b2103230ba30ba37b5b2b760591b604082015260600190565b6020808252600b908201526a135a5b9d0819985a5b195960aa1b604082015260600190565b6020808252601e908201527f576520617265206e6f742074686520706f6f6c20636f6e74726f6c6c65720000604082015260600190565b6020808252601a908201527f42617365546f6b656e2061646472657373206d69736d61746368000000000000604082015260600190565b602080825260139082015272496e76616c696420706f6f6c4164647265737360681b604082015260600190565b6020808252601c908201527f4552523a204f6e6c7920706f6f6c2063616e2063616c6c207468697300000000604082015260600190565b6020808252601b908201527f42617365546f6b656e2061646472657373206d6973736d617463680000000000604082015260600190565b6020808252601b908201527f44617461546f6b656e2061646472657373206d6973736d617463680000000000604082015260600190565b90815260200190565b600083825260406020830152610dfe6040830184611dd8565b60405181810167ffffffffffffffff8111828210171561208057612080612220565b604052919050565b6000821982111561209b5761209b61220a565b500190565b6000826120bb57634e487b7160e01b81526012600452602481fd5b500490565b80825b60018086116120d257506120fd565b8187048211156120e4576120e461220a565b808616156120f157918102915b9490941c9380026120c3565b94509492505050565b6000610503600019848460008261211f57506001610503565b8161212c57506000610503565b8160018114612142576002811461214c57612179565b6001915050610503565b60ff84111561215d5761215d61220a565b6001841b9150848211156121735761217361220a565b50610503565b5060208310610133831016604e8410600b84101617156121ac575081810a838111156121a7576121a761220a565b610503565b6121b984848460016120c0565b8086048211156121cb576121cb61220a565b02949350505050565b60008160001904831182151516156121ee576121ee61220a565b500290565b6000828210156122055761220561220a565b500390565b634e487b7160e01b600052601160045260246000fd5b634e487b7160e01b600052604160045260246000fd5b6001600160a01b03811681146112cd57600080fdfea26469706673582212200ee27a07c82fa2bc6efaf5d56b1da993f5477be59543d13eaeae8413eaa98c9d64736f6c63430008000033",
  "linkReferences": {},
  "deployedLinkReferences": {}
}