{
  "_format": "hh-sol-artifact-1",
  "contractName": "ssFixedRate",
  "sourceName": "contracts/ssContracts/ssFixedRate.sol",
  "abi": [
    {
      "inputs": [],
      "stateMutability": "nonpayable",
      "type": "constructor"
    },
    {
      "inputs": [
        {
          "internalType": "address",
          "name": "datatokenAddress",
          "type": "address"
        },
        {
          "internalType": "address",
          "name": "stakeToken",
          "type": "address"
        },
        {
          "internalType": "uint256",
          "name": "amount",
          "type": "uint256"
        }
      ],
      "name": "Stake",
      "outputs": [],
      "stateMutability": "nonpayable",
      "type": "function"
    },
    {
      "inputs": [
        {
          "internalType": "address",
          "name": "datatokenAddress",
          "type": "address"
        },
        {
          "internalType": "address",
          "name": "stakeToken",
          "type": "address"
        },
        {
          "internalType": "uint256",
          "name": "amount",
          "type": "uint256"
        }
      ],
      "name": "UnStake",
      "outputs": [],
      "stateMutability": "nonpayable",
      "type": "function"
    },
    {
      "inputs": [
        {
          "internalType": "address",
          "name": "datatokenAddress",
          "type": "address"
        },
        {
          "internalType": "address",
          "name": "basetoken",
          "type": "address"
        },
        {
          "internalType": "uint256",
          "name": "datatokenAmount",
          "type": "uint256"
        },
        {
          "internalType": "uint256",
          "name": "basetokenAmount",
          "type": "uint256"
        },
        {
          "internalType": "address",
          "name": "userAddress",
          "type": "address"
        }
      ],
      "name": "allowStake",
      "outputs": [
        {
          "internalType": "bool",
          "name": "",
          "type": "bool"
        }
      ],
      "stateMutability": "view",
      "type": "function"
    },
    {
      "inputs": [
        {
          "internalType": "address",
          "name": "datatokenAddress",
          "type": "address"
        },
        {
          "internalType": "address",
          "name": "basetoken",
          "type": "address"
        },
        {
          "internalType": "uint256",
          "name": "datatokenAmount",
          "type": "uint256"
        },
        {
          "internalType": "uint256",
          "name": "basetokenAmount",
          "type": "uint256"
        },
        {
          "internalType": "address",
          "name": "userAddress",
          "type": "address"
        }
      ],
      "name": "allowUnStake",
      "outputs": [
        {
          "internalType": "bool",
          "name": "",
          "type": "bool"
        }
      ],
      "stateMutability": "view",
      "type": "function"
    },
    {
      "inputs": [
        {
          "internalType": "address",
          "name": "datatokenAddress",
          "type": "address"
        },
        {
          "internalType": "address",
          "name": "tokenIn",
          "type": "address"
        },
        {
          "internalType": "address",
          "name": "tokenOut",
          "type": "address"
        },
        {
          "internalType": "uint256",
          "name": "tokenAmountOut",
          "type": "uint256"
        }
      ],
      "name": "calcInGivenOut",
      "outputs": [
        {
          "internalType": "uint256",
          "name": "",
          "type": "uint256"
        }
      ],
      "stateMutability": "view",
      "type": "function"
    },
    {
      "inputs": [
        {
          "internalType": "address",
          "name": "datatokenAddress",
          "type": "address"
        },
        {
          "internalType": "address",
          "name": "tokenIn",
          "type": "address"
        },
        {
          "internalType": "address",
          "name": "tokenOut",
          "type": "address"
        },
        {
          "internalType": "uint256",
          "name": "tokenAmountIn",
          "type": "uint256"
        }
      ],
      "name": "calcOutGivenIn",
      "outputs": [
        {
          "internalType": "uint256",
          "name": "",
          "type": "uint256"
        }
      ],
      "stateMutability": "view",
      "type": "function"
    },
    {
      "inputs": [
        {
          "internalType": "address",
          "name": "datatokenAddress",
          "type": "address"
        },
        {
          "internalType": "address",
          "name": "stakeToken",
          "type": "address"
        },
        {
          "internalType": "uint256",
          "name": "amount",
          "type": "uint256"
        }
      ],
      "name": "canStake",
      "outputs": [
        {
          "internalType": "bool",
          "name": "",
          "type": "bool"
        }
      ],
      "stateMutability": "view",
      "type": "function"
    },
    {
      "inputs": [
        {
          "internalType": "address",
          "name": "datatokenAddress",
          "type": "address"
        },
        {
          "internalType": "address",
          "name": "stakeToken",
          "type": "address"
        },
        {
          "internalType": "uint256",
          "name": "amount",
          "type": "uint256"
        }
      ],
      "name": "canUnStake",
      "outputs": [
        {
          "internalType": "bool",
          "name": "",
          "type": "bool"
        }
      ],
      "stateMutability": "view",
      "type": "function"
    },
    {
      "inputs": [
        {
          "internalType": "address",
          "name": "datatokenAddress",
          "type": "address"
        }
      ],
      "name": "getBaseTokenAddress",
      "outputs": [
        {
          "internalType": "address",
          "name": "",
          "type": "address"
        }
      ],
      "stateMutability": "view",
      "type": "function"
    },
    {
      "inputs": [
        {
          "internalType": "address",
          "name": "datatokenAddress",
          "type": "address"
        }
      ],
      "name": "getBaseTokenBalance",
      "outputs": [
        {
          "internalType": "uint256",
          "name": "",
          "type": "uint256"
        }
      ],
      "stateMutability": "view",
      "type": "function"
    },
    {
      "inputs": [
        {
          "internalType": "address",
          "name": "datatokenAddress",
          "type": "address"
        }
      ],
      "name": "getDataTokenBalance",
      "outputs": [
        {
          "internalType": "uint256",
          "name": "",
          "type": "uint256"
        }
      ],
      "stateMutability": "view",
      "type": "function"
    },
    {
      "inputs": [
        {
          "internalType": "address",
          "name": "datatokenAddress",
          "type": "address"
        }
      ],
      "name": "getDataTokenCirculatingSupply",
      "outputs": [
        {
          "internalType": "uint256",
          "name": "",
          "type": "uint256"
        }
      ],
      "stateMutability": "view",
      "type": "function"
    },
    {
      "inputs": [
        {
          "internalType": "address",
          "name": "datatokenAddress",
          "type": "address"
        }
      ],
      "name": "getPoolAddress",
      "outputs": [
        {
          "internalType": "address",
          "name": "",
          "type": "address"
        }
      ],
      "stateMutability": "view",
      "type": "function"
    },
    {
      "inputs": [
        {
          "internalType": "address",
          "name": "datatokenAddress",
          "type": "address"
        }
      ],
      "name": "getPublisherAddress",
      "outputs": [
        {
          "internalType": "address",
          "name": "",
          "type": "address"
        }
      ],
      "stateMutability": "view",
      "type": "function"
    },
    {
      "inputs": [
        {
          "internalType": "address",
          "name": "datatokenAddress",
          "type": "address"
        }
      ],
      "name": "getVesting",
      "outputs": [],
      "stateMutability": "nonpayable",
      "type": "function"
    },
    {
      "inputs": [
        {
          "internalType": "address",
          "name": "datatokenAddress",
          "type": "address"
        }
      ],
      "name": "getburnInEndBlock",
      "outputs": [
        {
          "internalType": "uint256",
          "name": "",
          "type": "uint256"
        }
      ],
      "stateMutability": "view",
      "type": "function"
    },
    {
      "inputs": [
        {
          "internalType": "address",
          "name": "datatokenAddress",
          "type": "address"
        }
      ],
      "name": "getvestingAmount",
      "outputs": [
        {
          "internalType": "uint256",
          "name": "",
          "type": "uint256"
        }
      ],
      "stateMutability": "view",
      "type": "function"
    },
    {
      "inputs": [
        {
          "internalType": "address",
          "name": "datatokenAddress",
          "type": "address"
        }
      ],
      "name": "getvestingAmountSoFar",
      "outputs": [
        {
          "internalType": "uint256",
          "name": "",
          "type": "uint256"
        }
      ],
      "stateMutability": "view",
      "type": "function"
    },
    {
      "inputs": [
        {
          "internalType": "address",
          "name": "datatokenAddress",
          "type": "address"
        }
      ],
      "name": "getvestingEndBlock",
      "outputs": [
        {
          "internalType": "uint256",
          "name": "",
          "type": "uint256"
        }
      ],
      "stateMutability": "view",
      "type": "function"
    },
    {
      "inputs": [
        {
          "internalType": "address",
          "name": "datatokenAddress",
          "type": "address"
        }
      ],
      "name": "getvestingLastBlock",
      "outputs": [
        {
          "internalType": "uint256",
          "name": "",
          "type": "uint256"
        }
      ],
      "stateMutability": "view",
      "type": "function"
    },
    {
      "inputs": [
        {
          "internalType": "address",
          "name": "datatokenAddress",
          "type": "address"
        }
      ],
      "name": "isInBurnIn",
      "outputs": [
        {
          "internalType": "bool",
          "name": "",
          "type": "bool"
        }
      ],
      "stateMutability": "view",
      "type": "function"
    },
    {
      "inputs": [
        {
          "internalType": "address",
          "name": "datatokenAddress",
          "type": "address"
        },
        {
          "internalType": "address",
          "name": "basetokenAddress",
          "type": "address"
        },
        {
          "internalType": "address",
          "name": "poolAddress",
          "type": "address"
        },
        {
          "internalType": "address",
          "name": "publisherAddress",
          "type": "address"
        },
        {
          "internalType": "uint256",
          "name": "burnInEndBlock",
          "type": "uint256"
        },
        {
          "internalType": "uint256[]",
          "name": "ssParams",
          "type": "uint256[]"
        }
      ],
      "name": "newDataTokenCreated",
      "outputs": [
        {
          "internalType": "bool",
          "name": "",
          "type": "bool"
        }
      ],
      "stateMutability": "nonpayable",
      "type": "function"
    },
    {
      "inputs": [
        {
          "internalType": "address",
          "name": "datatokenAddress",
          "type": "address"
        }
      ],
      "name": "notifyFinalize",
      "outputs": [],
      "stateMutability": "nonpayable",
      "type": "function"
    },
    {
      "inputs": [
        {
          "internalType": "address",
          "name": "datatokenAddress",
          "type": "address"
        },
        {
          "internalType": "address",
          "name": "userAddress",
          "type": "address"
        },
        {
          "internalType": "address",
          "name": "tokenIn",
          "type": "address"
        },
        {
          "internalType": "uint256",
          "name": "tokenAmountIn",
          "type": "uint256"
        },
        {
          "internalType": "address",
          "name": "tokenOut",
          "type": "address"
        },
        {
          "internalType": "uint256",
          "name": "minAmountOut",
          "type": "uint256"
        }
      ],
      "name": "swapExactAmountIn",
      "outputs": [
        {
          "internalType": "uint256",
          "name": "tokenAmountOut",
          "type": "uint256"
        }
      ],
      "stateMutability": "nonpayable",
      "type": "function"
    },
    {
      "inputs": [
        {
          "internalType": "address",
          "name": "datatokenAddress",
          "type": "address"
        },
        {
          "internalType": "address",
          "name": "userAddress",
          "type": "address"
        },
        {
          "internalType": "address",
          "name": "tokenIn",
          "type": "address"
        },
        {
          "internalType": "uint256",
          "name": "maxTokenAmountIn",
          "type": "uint256"
        },
        {
          "internalType": "address",
          "name": "tokenOut",
          "type": "address"
        },
        {
          "internalType": "uint256",
          "name": "amountOut",
          "type": "uint256"
        }
      ],
      "name": "swapExactAmountOut",
      "outputs": [
        {
          "internalType": "uint256",
          "name": "tokenAmountIn",
          "type": "uint256"
        }
      ],
      "stateMutability": "nonpayable",
      "type": "function"
    }
  ],
  "bytecode": "0x608060405234801561001057600080fd5b50612ae4806100206000396000f3fe608060405234801561001057600080fd5b50600436106101735760003560e01c806392f6cb67116100de578063cc49ede711610097578063f03cd39611610071578063f03cd39614610326578063f09a9c0514610339578063fa93fd6d1461034c578063fc9439201461035f57610173565b8063cc49ede7146102ed578063cf268dea14610300578063efd481031461031357610173565b806392f6cb671461027957806399039fcf1461028c578063bccf74fe146102a1578063bee3913d146102b4578063c1b4904d146102c7578063c4be2490146102da57610173565b806330c157011161013057806330c157011461021a5780633e6d363f1461022d5780634f3e66dc14610240578063799ece85146102535780637eaf8901146101d457806388afadce1461026657610173565b80630734b5b1146101785780631228cbee146101a15780631f16cde6146101c157806324571dd7146101d45780632686375b146101e757806326b1f01f14610207575b600080fd5b61018b610186366004612383565b610372565b604051610198919061272b565b60405180910390f35b6101b46101af366004612383565b6103d3565b60405161019891906126a0565b6101b46101cf366004612383565b610422565b61018b6101e23660046125b6565b610476565b6101fa6101f5366004612383565b610510565b60405161019891906129cc565b61018b610215366004612576565b61055c565b6101fa610228366004612507565b6106f1565b6101fa61023b366004612507565b6109d1565b61018b61024e3660046123bb565b610c52565b6101fa610261366004612383565b611564565b6101fa610274366004612383565b6115b0565b6101fa6102873660046124b7565b611610565b61029f61029a366004612576565b611653565b005b6101fa6102af366004612383565b6117a7565b6101fa6102c23660046124b7565b6117f3565b6101fa6102d5366004612383565b61182b565b6101fa6102e8366004612383565b611877565b61029f6102fb366004612383565b6118c3565b61029f61030e366004612576565b611b14565b61018b610321366004612576565b611bcf565b6101fa610334366004612383565b611c74565b6101fa610347366004612383565b611cc0565b6101b461035a366004612383565b611d0c565b61029f61036d366004612383565b611d5d565b6001600160a01b03811660009081526020819052604081205460ff16151560011461039f575060006103ce565b6001600160a01b0382166000908152602081905260409020600601544311156103ca575060006103ce565b5060015b919050565b6001600160a01b03811660009081526020819052604081205460ff161515600114610400575060006103ce565b506001600160a01b039081166000908152602081905260409020600101541690565b6001600160a01b03811660009081526020819052604081205460ff16151560011461044f575060006103ce565b506001600160a01b0390811660009081526020819052604090206008015461010090041690565b6001600160a01b03851660009081526020819052604081205460ff1615156001146104a357506000610507565b6001600160a01b038681166000908152602081905260409020600101541633146104e85760405162461bcd60e51b81526004016104df906128af565b60405180910390fd5b6104f186610372565b15156001141561050357506000610507565b5060015b95945050505050565b6001600160a01b03811660009081526020819052604081205460ff16151560011461053d575060006103ce565b506001600160a01b03166000908152602081905260409020600b015490565b6001600160a01b03831660009081526020819052604081205460ff161515600114610589575060006106ea565b6001600160a01b038481166000908152602081905260409020600101541633146105c55760405162461bcd60e51b81526004016104df906128af565b6001600160a01b03841660009081526020819052604090205460ff1615156001146105f2575060006106ea565b6001600160a01b03848116600090815260208190526040902054610100900481169084161415610624575060006106ea565b6040516370a0823160e01b815284906000906001600160a01b038316906370a08231906106559030906004016126a0565b60206040518083038186803b15801561066d57600080fd5b505afa158015610681573d6000803e3d6000fd5b505050506040513d601f19601f820116820180604052508101906106a59190612688565b6001600160a01b03871660009081526020819052604090206002015490915084118015906106d35750838110155b156106e3576001925050506106ea565b6000925050505b9392505050565b6001600160a01b03861660009081526020819052604081205460ff16151560011461072e5760405162461bcd60e51b81526004016104df90612789565b6001600160a01b0387811660009081526020819052604090206001015416331461076a5760405162461bcd60e51b81526004016104df906128af565b61077387610372565b15156001146107945760405162461bcd60e51b81526004016104df90612878565b6107a0878685856117f3565b9050838111156107c25760405162461bcd60e51b81526004016104df906127dd565b6001600160a01b03878116600090815260208190526040908190206001015490516323b872dd60e01b81528792808416926323b872dd9261080e929190911690309087906004016126b4565b602060405180830381600087803b15801561082857600080fd5b505af115801561083c573d6000803e3d6000fd5b505050506040513d601f19601f820116820180604052508101906108609190612614565b50876001600160a01b0316866001600160a01b031614156108e1576001600160a01b038816600090815260208190526040812060040180548592906108a69084906129ff565b90915550506001600160a01b038816600090815260208190526040812060020180548492906108d69084906129ff565b909155506109429050565b6001600160a01b0388166000908152602081905260408120600201805485929061090c9084906129ff565b90915550506001600160a01b0388166000908152602081905260408120600401805484929061093c9084906129ff565b90915550505b60405163a9059cbb60e01b815284906001600160a01b0382169063a9059cbb90610972908b9088906004016126d8565b602060405180830381600087803b15801561098c57600080fd5b505af11580156109a0573d6000803e3d6000fd5b505050506040513d601f19601f820116820180604052508101906109c49190612614565b5050509695505050505050565b6001600160a01b03861660009081526020819052604081205460ff161515600114610a0e5760405162461bcd60e51b81526004016104df90612789565b6001600160a01b03878116600090815260208190526040902060010154163314610a4a5760405162461bcd60e51b81526004016104df906128af565b610a5387610372565b1515600114610a745760405162461bcd60e51b81526004016104df90612878565b610a8087868587611610565b905081811015610aa25760405162461bcd60e51b81526004016104df90612995565b6001600160a01b03878116600090815260208190526040908190206001015490516323b872dd60e01b81528792808416926323b872dd92610aee92919091169030908a906004016126b4565b602060405180830381600087803b158015610b0857600080fd5b505af1158015610b1c573d6000803e3d6000fd5b505050506040513d601f19601f82011682018060405250810190610b409190612614565b50876001600160a01b0316866001600160a01b03161415610bc1576001600160a01b03881660009081526020819052604081206004018054849290610b869084906129ff565b90915550506001600160a01b03881660009081526020819052604081206002018054879290610bb69084906129ff565b90915550610c229050565b6001600160a01b03881660009081526020819052604081206002018054849290610bec9084906129ff565b90915550506001600160a01b03881660009081526020819052604081206004018054879290610c1c9084906129ff565b90915550505b60405163a9059cbb60e01b815284906001600160a01b0382169063a9059cbb90610972908b9087906004016126d8565b60006001600160a01b038516610c7a5760405162461bcd60e51b81526004016104df9061284b565b6000859050306001600160a01b0316816001600160a01b0316633018205f6040518163ffffffff1660e01b815260040160206040518083038186803b158015610cc257600080fd5b505afa158015610cd6573d6000803e3d6000fd5b505050506040513d601f19601f82011682018060405250810190610cfa919061239f565b6001600160a01b031614610d205760405162461bcd60e51b81526004016104df90612814565b876001600160a01b0316816001600160a01b03166304ad79546040518163ffffffff1660e01b815260040160206040518083038186803b158015610d6357600080fd5b505afa158015610d77573d6000803e3d6000fd5b505050506040513d601f19601f82011682018060405250810190610d9b919061239f565b6001600160a01b031614610dc15760405162461bcd60e51b81526004016104df9061291d565b866001600160a01b0316816001600160a01b0316634df947d06040518163ffffffff1660e01b815260040160206040518083038186803b158015610e0457600080fd5b505afa158015610e18573d6000803e3d6000fd5b505050506040513d601f19601f82011682018060405250810190610e3c919061239f565b6001600160a01b031614610e625760405162461bcd60e51b81526004016104df906128e6565b604051623d104160e31b815288906001600160a01b038216906301e8820890610e8f9030906004016126a0565b604080518083038186803b158015610ea657600080fd5b505afa158015610eba573d6000803e3d6000fd5b505050506040513d601f19601f82011682018060405250810190610ede919061262e565b511515600114610f005760405162461bcd60e51b81526004016104df906128e6565b806001600160a01b03166340c10f1930836001600160a01b031663355274ea6040518163ffffffff1660e01b815260040160206040518083038186803b158015610f4957600080fd5b505afa158015610f5d573d6000803e3d6000fd5b505050506040513d601f19601f82011682018060405250810190610f819190612688565b6040518363ffffffff1660e01b8152600401610f9e9291906126d8565b600060405180830381600087803b158015610fb857600080fd5b505af1158015610fcc573d6000803e3d6000fd5b50505050806001600160a01b03166318160ddd6040518163ffffffff1660e01b815260040160206040518083038186803b15801561100957600080fd5b505afa15801561101d573d6000803e3d6000fd5b505050506040513d601f19601f820116820180604052508101906110419190612688565b6040516370a0823160e01b81526001600160a01b038316906370a082319061106d9030906004016126a0565b60206040518083038186803b15801561108557600080fd5b505afa158015611099573d6000803e3d6000fd5b505050506040513d601f19601f820116820180604052508101906110bd9190612688565b146110da5760405162461bcd60e51b81526004016104df906127b8565b6110ff604051806040016040528060048152602001636865726560e01b8152506120d8565b6040516370a0823160e01b8152611184906001600160a01b038316906370a082319061112f9030906004016126a0565b60206040518083038186803b15801561114757600080fd5b505afa15801561115b573d6000803e3d6000fd5b505050506040513d601f19601f8201168201806040525081019061117f9190612688565b61211b565b6000846000815181106111a757634e487b7160e01b600052603260045260246000fd5b602002602001015190506000856001815181106111d457634e487b7160e01b600052603260045260246000fd5b6020026020010151600014156111ec575060006111f0565b5060015b60008660028151811061121357634e487b7160e01b600052603260045260246000fd5b6020026020010151905060008760038151811061124057634e487b7160e01b600052603260045260246000fd5b60200260200101514361125391906129ff565b90506040518061022001604052806001151581526020018d6001600160a01b031681526020018c6001600160a01b03168152602001600015158152602001866001600160a01b03166318160ddd6040518163ffffffff1660e01b815260040160206040518083038186803b1580156112ca57600080fd5b505afa1580156112de573d6000803e3d6000fd5b505050506040513d601f19601f820116820180604052508101906113029190612688565b8152602001866001600160a01b031663355274ea6040518163ffffffff1660e01b815260040160206040518083038186803b15801561134057600080fd5b505afa158015611354573d6000803e3d6000fd5b505050506040513d601f19601f820116820180604052508101906113789190612688565b815260200160008152602001600081526020018a815260200185815260200184151581526020018b6001600160a01b0316815260200143815260200182815260200183815260200143815260200160008152506000808f6001600160a01b03166001600160a01b0316815260200190815260200160002060008201518160000160006101000a81548160ff02191690831515021790555060208201518160000160016101000a8154816001600160a01b0302191690836001600160a01b0316021790555060408201518160010160006101000a8154816001600160a01b0302191690836001600160a01b0316021790555060608201518160010160146101000a81548160ff0219169083151502179055506080820151816002015560a0820151816003015560c0820151816004015560e08201518160050155610100820151816006015561012082015181600701556101408201518160080160006101000a81548160ff0219169083151502179055506101608201518160080160016101000a8154816001600160a01b0302191690836001600160a01b0316021790555061018082015181600901556101a082015181600a01556101c082015181600b01556101e082015181600c015561020082015181600d0155905050600196505050505050509695505050505050565b6001600160a01b03811660009081526020819052604081205460ff161515600114611591575060006103ce565b506001600160a01b03166000908152602081905260409020600a015490565b6001600160a01b03811660009081526020819052604081205460ff1615156001146115dd575060006103ce565b6001600160a01b0382166000908152602081905260409020600281015460039091015461160a9190612a56565b92915050565b6001600160a01b03841660009081526020819052604081205460ff16151560011461163d5750600061164b565b61164884848461215e565b90505b949350505050565b6001600160a01b03831660009081526020819052604090205460ff16151560011461167d576117a2565b6001600160a01b038381166000908152602081905260409020600101541633146116b95760405162461bcd60e51b81526004016104df906128af565b60006116c684848461055c565b90506001811515146116d857506117a2565b6001600160a01b038085166000818152602081905260409081902060010154905163095ea7b360e01b8152879363095ea7b39261171c9291169087906004016126d8565b602060405180830381600087803b15801561173657600080fd5b505af115801561174a573d6000803e3d6000fd5b505050506040513d601f19601f8201168201806040525081019061176e9190612614565b506001600160a01b0385166000908152602081905260408120600201805485929061179a908490612a56565b909155505050505b505050565b6001600160a01b03811660009081526020819052604081205460ff1615156001146117d4575060006103ce565b506001600160a01b03166000908152602081905260409020600d015490565b6001600160a01b03841660009081526020819052604081205460ff1615156001146118205750600061164b565b611648848484612253565b6001600160a01b03811660009081526020819052604081205460ff161515600114611858575060006103ce565b506001600160a01b031660009081526020819052604090206002015490565b6001600160a01b03811660009081526020819052604081205460ff1615156001146118a4575060006103ce565b506001600160a01b031660009081526020819052604090206004015490565b6001600160a01b03811660009081526020819052604090205460ff1615156001146119005760405162461bcd60e51b81526004016104df90612789565b6001600160a01b0381811660009081526020819052604090206008015461010090041633146119415760405162461bcd60e51b81526004016104df90612954565b6001600160a01b0381166000908152602081905260408120600c01546119679043612a56565b6001600160a01b03831660009081526020819052604081206009810154600a9091015492935090916119be9161199c91612a56565b6001600160a01b0385166000908152602081905260409020600b01549061233a565b9050806119cc575050611b11565b60006119d88383612346565b9050600081118015611a0557506001600160a01b0384166000908152602081905260409020600201548111155b15611b0d576001600160a01b0384166000908152602081905260408120600b0180548692849291611a379084906129ff565b90915550506001600160a01b038086166000908152602081905260409081902043600c82015560080154905163a9059cbb60e01b81528383169263a9059cbb92611a8f926101009091049091169086906004016126d8565b602060405180830381600087803b158015611aa957600080fd5b505af1158015611abd573d6000803e3d6000fd5b505050506040513d601f19601f82011682018060405250810190611ae19190612614565b506001600160a01b0385166000908152602081905260408120600201805484929061179a908490612a56565b5050505b50565b6001600160a01b03831660009081526020819052604090205460ff161515600114611b3e576117a2565b6001600160a01b03838116600090815260208190526040902060010154163314611b7a5760405162461bcd60e51b81526004016104df906128af565b6000611b87848484611bcf565b9050600181151514611b9957506117a2565b6001600160a01b03841660009081526020819052604081206002018054849290611bc49084906129ff565b909155505050505050565b6001600160a01b03831660009081526020819052604081205460ff161515600114611bfc575060006106ea565b6001600160a01b03848116600090815260208190526040902060010154163314611c385760405162461bcd60e51b81526004016104df906128af565b6001600160a01b03848116600090815260208190526040902054610100900481169084161415611c6a575060006106ea565b5060019392505050565b6001600160a01b03811660009081526020819052604081205460ff161515600114611ca1575060006103ce565b506001600160a01b03166000908152602081905260409020600c015490565b6001600160a01b03811660009081526020819052604081205460ff161515600114611ced575060006103ce565b506001600160a01b031660009081526020819052604090206006015490565b6001600160a01b03811660009081526020819052604081205460ff161515600114611d39575060006103ce565b506001600160a01b0390811660009081526020819052604090205461010090041690565b6001600160a01b03811660009081526020819052604090205460ff161515600114611d8757611b11565b6001600160a01b03818116600090815260208190526040902060010154163314611dc35760405162461bcd60e51b81526004016104df906128af565b6001600160a01b0381166000908152602081905260409020600190810154600160a01b900460ff1615151415611df857611b11565b6001600160a01b0381166000908152602081905260408120600101805460ff60a01b1916600160a01b179055611e37670de0b6b3a76400006005612a37565b90506000611e4e670de0b6b3a76400006005612a37565b6001600160a01b03841660009081526020819052604081206004015491925082611e788584612a17565b6001600160a01b038716600090815260208190526040902060070154611e9e9190612a37565b611ea89190612a37565b6001600160a01b038087166000818152602081905260409081902060010154905163095ea7b360e01b81529394508893919263095ea7b392611ef2929091169086906004016126d8565b602060405180830381600087803b158015611f0c57600080fd5b505af1158015611f20573d6000803e3d6000fd5b505050506040513d601f19601f82011682018060405250810190611f449190612614565b506001600160a01b038087166000908152602081905260409081902054905163095ea7b360e01b815261010090910490911690819063095ea7b390611f8f90839088906004016126d8565b602060405180830381600087803b158015611fa957600080fd5b505af1158015611fbd573d6000803e3d6000fd5b505050506040513d601f19601f82011682018060405250810190611fe19190612614565b506001600160a01b03808816600090815260208190526040908190206001810154905491516309ef3f5b60e01b81529083169283926309ef3f5b9261203c928d928a928d92610100909204909116908c908f906004016126f1565b600060405180830381600087803b15801561205657600080fd5b505af115801561206a573d6000803e3d6000fd5b505050506001600160a01b03881660009081526020819052604081206004018054879290612099908490612a56565b90915550506001600160a01b038816600090815260208190526040812060020180548692906120c9908490612a56565b90915550505050505050505050565b611b11816040516024016120ec9190612736565b60408051601f198184030181529190526020810180516001600160e01b031663104c13eb60e21b179052612352565b611b118160405160240161212f91906129cc565b60408051601f198184030181529190526020810180516001600160e01b031663f5b1bba960e01b179052612352565b6001600160a01b03831660009081526020819052604081205460ff161515600114156121f1576001600160a01b03841660009081526020819052604090206008015460ff166121af575060006106ea565b6001600160a01b0384166000908152602081905260409020600701546121ea90670de0b6b3a7640000906121e4908590612346565b9061233a565b90506106ea565b6001600160a01b03831660009081526020819052604090205460ff16151560011415612249576001600160a01b0384166000908152602081905260409020600701546121ea906121e484670de0b6b3a7640000612346565b5060009392505050565b6001600160a01b03831660009081526020819052604081205460ff161515600114156122df576001600160a01b03841660009081526020819052604090206008015460ff166122a4575060006106ea565b6001600160a01b0384166000908152602081905260408120600701546122d6906121e485670de0b6b3a7640000612346565b91506106ea9050565b6001600160a01b03831660009081526020819052604090205460ff16151560011415612249576001600160a01b0384166000908152602081905260408120600701546122d690670de0b6b3a7640000906121e4908690612346565b60006106ea8284612a17565b60006106ea8284612a37565b80516a636f6e736f6c652e6c6f67602083016000808483855afa5050505050565b805180151581146103ce57600080fd5b600060208284031215612394578081fd5b81356106ea81612a99565b6000602082840312156123b0578081fd5b81516106ea81612a99565b60008060008060008060c087890312156123d3578182fd5b86356123de81612a99565b95506020878101356123ef81612a99565b955060408801356123ff81612a99565b9450606088013561240f81612a99565b93506080880135925060a088013567ffffffffffffffff80821115612432578384fd5b818a0191508a601f830112612445578384fd5b81358181111561245757612457612a83565b83810291506124678483016129d5565b8181528481019084860184860187018f1015612481578788fd5b8795505b838610156124a3578035835260019590950194918601918601612485565b508096505050505050509295509295509295565b600080600080608085870312156124cc578384fd5b84356124d781612a99565b935060208501356124e781612a99565b925060408501356124f781612a99565b9396929550929360600135925050565b60008060008060008060c0878903121561251f578182fd5b863561252a81612a99565b9550602087013561253a81612a99565b9450604087013561254a81612a99565b935060608701359250608087013561256181612a99565b8092505060a087013590509295509295509295565b60008060006060848603121561258a578283fd5b833561259581612a99565b925060208401356125a581612a99565b929592945050506040919091013590565b600080600080600060a086880312156125cd578081fd5b85356125d881612a99565b945060208601356125e881612a99565b93506040860135925060608601359150608086013561260681612a99565b809150509295509295909350565b600060208284031215612625578081fd5b6106ea82612373565b60006040828403121561263f578081fd5b6040516040810181811067ffffffffffffffff8211171561266257612662612a83565b60405261266e83612373565b815261267c60208401612373565b60208201529392505050565b600060208284031215612699578081fd5b5051919050565b6001600160a01b0391909116815260200190565b6001600160a01b039384168152919092166020820152604081019190915260600190565b6001600160a01b03929092168252602082015260400190565b6001600160a01b0396871681526020810195909552604085019390935293166060830152608082019290925260a081019190915260c00190565b901515815260200190565b6000602080835283518082850152825b8181101561276257858101830151858201604001528201612746565b818111156127735783604083870101525b50601f01601f1916929092016040019392505050565b60208082526015908201527422a9291d24b73b30b634b2103230ba30ba37b5b2b760591b604082015260600190565b6020808252600b908201526a135a5b9d0819985a5b195960aa1b604082015260600190565b6020808252601d908201527f4552523a6d6178546f6b656e416d6f756e74496e206e6f74206d656574000000604082015260600190565b6020808252601e908201527f576520617265206e6f742074686520706f6f6c20636f6e74726f6c6c65720000604082015260600190565b602080825260139082015272496e76616c696420706f6f6c4164647265737360681b604082015260600190565b6020808252601a908201527f4552523a204e6f7420696e206275726e2d696e20706572696f64000000000000604082015260600190565b6020808252601c908201527f4552523a204f6e6c7920706f6f6c2063616e2063616c6c207468697300000000604082015260600190565b6020808252601b908201527f42617365546f6b656e2061646472657373206d6973736d617463680000000000604082015260600190565b6020808252601b908201527f44617461546f6b656e2061646472657373206d6973736d617463680000000000604082015260600190565b60208082526021908201527f4552523a204f6e6c79207075626c69736865722063616e2063616c6c207468696040820152607360f81b606082015260800190565b60208082526019908201527f4552523a6d696e416d6f756e744f7574206e6f74206d65657400000000000000604082015260600190565b90815260200190565b60405181810167ffffffffffffffff811182821017156129f7576129f7612a83565b604052919050565b60008219821115612a1257612a12612a6d565b500190565b600082612a3257634e487b7160e01b81526012600452602481fd5b500490565b6000816000190483118215151615612a5157612a51612a6d565b500290565b600082821015612a6857612a68612a6d565b500390565b634e487b7160e01b600052601160045260246000fd5b634e487b7160e01b600052604160045260246000fd5b6001600160a01b0381168114611b1157600080fdfea264697066735822122079edda8e49e48e73655676c5d9062064a0b7ec7fe48f3ca77e46bb3cfa618d5264736f6c63430008000033",
  "linkReferences": {},
  "deployedLinkReferences": {}
}