{
  "_format": "hh-sol-artifact-1",
  "contractName": "BPool",
  "sourceName": "contracts/v3/balancer/BPool.sol",
  "abi": [
    {
      "constant": false,
      "inputs": [
        {
          "name": "tokenOut",
          "type": "address"
        },
        {
          "name": "tokenAmountOut",
          "type": "uint256"
        },
        {
          "name": "maxPoolAmountIn",
          "type": "uint256"
        }
      ],
      "name": "exitswapExternAmountOut",
      "outputs": [
        {
          "name": "poolAmountIn",
          "type": "uint256"
        }
      ],
      "payable": false,
      "stateMutability": "nonpayable",
      "type": "function"
    },
    {
      "constant": true,
      "inputs": [
        {
          "name": "tokenIn",
          "type": "address"
        },
        {
          "name": "tokenAmountIn",
          "type": "uint256"
        }
      ],
      "name": "ScalcPoolOutGivenSingleIn",
      "outputs": [
        {
          "name": "",
          "type": "uint256"
        }
      ],
      "payable": false,
      "stateMutability": "view",
      "type": "function"
    },
    {
      "constant": true,
      "inputs": [],
      "name": "getDataTokenAddress",
      "outputs": [
        {
          "name": "",
          "type": "address"
        }
      ],
      "payable": false,
      "stateMutability": "view",
      "type": "function"
    },
    {
      "constant": true,
      "inputs": [],
      "name": "name",
      "outputs": [
        {
          "name": "",
          "type": "string"
        }
      ],
      "payable": false,
      "stateMutability": "view",
      "type": "function"
    },
    {
      "constant": false,
      "inputs": [
        {
          "name": "dst",
          "type": "address"
        },
        {
          "name": "amt",
          "type": "uint256"
        }
      ],
      "name": "approve",
      "outputs": [
        {
          "name": "",
          "type": "bool"
        }
      ],
      "payable": false,
      "stateMutability": "nonpayable",
      "type": "function"
    },
    {
      "constant": true,
      "inputs": [],
      "name": "MAX_TOTAL_WEIGHT",
      "outputs": [
        {
          "name": "",
          "type": "uint256"
        }
      ],
      "payable": false,
      "stateMutability": "view",
      "type": "function"
    },
    {
      "constant": false,
      "inputs": [
        {
          "name": "dataTokenAddress",
          "type": "address"
        },
        {
          "name": "dataTokenAmount",
          "type": "uint256"
        },
        {
          "name": "dataTokenWeight",
          "type": "uint256"
        },
        {
          "name": "baseTokenAddress",
          "type": "address"
        },
        {
          "name": "baseTokenAmount",
          "type": "uint256"
        },
        {
          "name": "baseTokenWeight",
          "type": "uint256"
        }
      ],
      "name": "setup",
      "outputs": [],
      "payable": false,
      "stateMutability": "nonpayable",
      "type": "function"
    },
    {
      "constant": true,
      "inputs": [
        {
          "name": "tokenBalanceIn",
          "type": "uint256"
        },
        {
          "name": "tokenWeightIn",
          "type": "uint256"
        },
        {
          "name": "tokenBalanceOut",
          "type": "uint256"
        },
        {
          "name": "tokenWeightOut",
          "type": "uint256"
        },
        {
          "name": "tokenAmountIn",
          "type": "uint256"
        }
      ],
      "name": "calcOutGivenIn",
      "outputs": [
        {
          "name": "tokenAmountOut",
          "type": "uint256"
        }
      ],
      "payable": false,
      "stateMutability": "view",
      "type": "function"
    },
    {
      "constant": true,
      "inputs": [
        {
          "name": "tokenIn",
          "type": "address"
        },
        {
          "name": "tokenOut",
          "type": "address"
        }
      ],
      "name": "getSpotPriceSansFee",
      "outputs": [
        {
          "name": "spotPrice",
          "type": "uint256"
        }
      ],
      "payable": false,
      "stateMutability": "view",
      "type": "function"
    },
    {
      "constant": true,
      "inputs": [
        {
          "name": "tokenIn",
          "type": "address"
        },
        {
          "name": "tokenOut",
          "type": "address"
        }
      ],
      "name": "getSpotPrice",
      "outputs": [
        {
          "name": "spotPrice",
          "type": "uint256"
        }
      ],
      "payable": false,
      "stateMutability": "view",
      "type": "function"
    },
    {
      "constant": true,
      "inputs": [],
      "name": "totalSupply",
      "outputs": [
        {
          "name": "",
          "type": "uint256"
        }
      ],
      "payable": false,
      "stateMutability": "view",
      "type": "function"
    },
    {
      "constant": true,
      "inputs": [],
      "name": "BPOW_PRECISION",
      "outputs": [
        {
          "name": "",
          "type": "uint256"
        }
      ],
      "payable": false,
      "stateMutability": "view",
      "type": "function"
    },
    {
      "constant": true,
      "inputs": [],
      "name": "MIN_WEIGHT",
      "outputs": [
        {
          "name": "",
          "type": "uint256"
        }
      ],
      "payable": false,
      "stateMutability": "view",
      "type": "function"
    },
    {
      "constant": false,
      "inputs": [
        {
          "name": "src",
          "type": "address"
        },
        {
          "name": "dst",
          "type": "address"
        },
        {
          "name": "amt",
          "type": "uint256"
        }
      ],
      "name": "transferFrom",
      "outputs": [
        {
          "name": "",
          "type": "bool"
        }
      ],
      "payable": false,
      "stateMutability": "nonpayable",
      "type": "function"
    },
    {
      "constant": true,
      "inputs": [
        {
          "name": "t",
          "type": "address"
        }
      ],
      "name": "isBound",
      "outputs": [
        {
          "name": "",
          "type": "bool"
        }
      ],
      "payable": false,
      "stateMutability": "view",
      "type": "function"
    },
    {
      "constant": true,
      "inputs": [
        {
          "name": "",
          "type": "address"
        }
      ],
      "name": "communityFees",
      "outputs": [
        {
          "name": "",
          "type": "uint256"
        }
      ],
      "payable": false,
      "stateMutability": "view",
      "type": "function"
    },
    {
      "constant": true,
      "inputs": [],
      "name": "getController",
      "outputs": [
        {
          "name": "",
          "type": "address"
        }
      ],
      "payable": false,
      "stateMutability": "view",
      "type": "function"
    },
    {
      "constant": true,
      "inputs": [],
      "name": "decimals",
      "outputs": [
        {
          "name": "",
          "type": "uint8"
        }
      ],
      "payable": false,
      "stateMutability": "view",
      "type": "function"
    },
    {
      "constant": true,
      "inputs": [
        {
          "name": "",
          "type": "address"
        }
      ],
      "name": "marketFees",
      "outputs": [
        {
          "name": "",
          "type": "uint256"
        }
      ],
      "payable": false,
      "stateMutability": "view",
      "type": "function"
    },
    {
      "constant": false,
      "inputs": [
        {
          "name": "swapFee",
          "type": "uint256"
        }
      ],
      "name": "setSwapFee",
      "outputs": [],
      "payable": false,
      "stateMutability": "nonpayable",
      "type": "function"
    },
    {
      "constant": true,
      "inputs": [],
      "name": "isInitialized",
      "outputs": [
        {
          "name": "",
          "type": "bool"
        }
      ],
      "payable": false,
      "stateMutability": "view",
      "type": "function"
    },
    {
      "constant": false,
      "inputs": [
        {
          "name": "token",
          "type": "address"
        },
        {
          "name": "balance",
          "type": "uint256"
        },
        {
          "name": "denorm",
          "type": "uint256"
        }
      ],
      "name": "rebind",
      "outputs": [],
      "payable": false,
      "stateMutability": "nonpayable",
      "type": "function"
    },
    {
      "constant": false,
      "inputs": [
        {
          "name": "tokenOut",
          "type": "address"
        },
        {
          "name": "poolAmountIn",
          "type": "uint256"
        },
        {
          "name": "minAmountOut",
          "type": "uint256"
        }
      ],
      "name": "exitswapPoolAmountIn",
      "outputs": [
        {
          "name": "tokenAmountOut",
          "type": "uint256"
        }
      ],
      "payable": false,
      "stateMutability": "nonpayable",
      "type": "function"
    },
    {
      "constant": false,
      "inputs": [
        {
          "name": "public_",
          "type": "bool"
        }
      ],
      "name": "setPublicSwap",
      "outputs": [],
      "payable": false,
      "stateMutability": "nonpayable",
      "type": "function"
    },
    {
      "constant": true,
      "inputs": [],
      "name": "_swapMarketFee",
      "outputs": [
        {
          "name": "",
          "type": "uint256"
        }
      ],
      "payable": false,
      "stateMutability": "view",
      "type": "function"
    },
    {
      "constant": false,
      "inputs": [],
      "name": "finalize",
      "outputs": [],
      "payable": false,
      "stateMutability": "nonpayable",
      "type": "function"
    },
    {
      "constant": true,
      "inputs": [],
      "name": "getBaseTokenAddress",
      "outputs": [
        {
          "name": "",
          "type": "address"
        }
      ],
      "payable": false,
      "stateMutability": "view",
      "type": "function"
    },
    {
      "constant": false,
      "inputs": [
        {
          "name": "poolAmountOut",
          "type": "uint256"
        },
        {
          "name": "maxAmountsIn",
          "type": "uint256[]"
        }
      ],
      "name": "joinPool",
      "outputs": [],
      "payable": false,
      "stateMutability": "nonpayable",
      "type": "function"
    },
    {
      "constant": true,
      "inputs": [
        {
          "name": "tokenBalanceIn",
          "type": "uint256"
        },
        {
          "name": "tokenWeightIn",
          "type": "uint256"
        },
        {
          "name": "tokenBalanceOut",
          "type": "uint256"
        },
        {
          "name": "tokenWeightOut",
          "type": "uint256"
        },
        {
          "name": "tokenAmountOut",
          "type": "uint256"
        }
      ],
      "name": "calcInGivenOutSwap",
      "outputs": [
        {
          "name": "tokenAmountIn",
          "type": "uint256"
        }
      ],
      "payable": false,
      "stateMutability": "view",
      "type": "function"
    },
    {
      "constant": true,
      "inputs": [
        {
          "name": "tokenBalanceIn",
          "type": "uint256"
        },
        {
          "name": "tokenWeightIn",
          "type": "uint256"
        },
        {
          "name": "poolSupply",
          "type": "uint256"
        },
        {
          "name": "totalWeight",
          "type": "uint256"
        },
        {
          "name": "poolAmountOut",
          "type": "uint256"
        },
        {
          "name": "swapFee",
          "type": "uint256"
        }
      ],
      "name": "calcSingleInGivenPoolOut",
      "outputs": [
        {
          "name": "tokenAmountIn",
          "type": "uint256"
        }
      ],
      "payable": false,
      "stateMutability": "pure",
      "type": "function"
    },
    {
      "constant": true,
      "inputs": [
        {
          "name": "tokenBalanceIn",
          "type": "uint256"
        },
        {
          "name": "tokenWeightIn",
          "type": "uint256"
        },
        {
          "name": "tokenBalanceOut",
          "type": "uint256"
        },
        {
          "name": "tokenWeightOut",
          "type": "uint256"
        }
      ],
      "name": "calcSpotPrice",
      "outputs": [
        {
          "name": "spotPrice",
          "type": "uint256"
        }
      ],
      "payable": false,
      "stateMutability": "view",
      "type": "function"
    },
    {
      "constant": false,
      "inputs": [
        {
          "name": "tokenIn",
          "type": "address"
        },
        {
          "name": "tokenAmountIn",
          "type": "uint256"
        },
        {
          "name": "minPoolAmountOut",
          "type": "uint256"
        }
      ],
      "name": "joinswapExternAmountIn",
      "outputs": [
        {
          "name": "poolAmountOut",
          "type": "uint256"
        }
      ],
      "payable": false,
      "stateMutability": "nonpayable",
      "type": "function"
    },
    {
      "constant": false,
      "inputs": [
        {
          "name": "dst",
          "type": "address"
        },
        {
          "name": "amt",
          "type": "uint256"
        }
      ],
      "name": "decreaseApproval",
      "outputs": [
        {
          "name": "",
          "type": "bool"
        }
      ],
      "payable": false,
      "stateMutability": "nonpayable",
      "type": "function"
    },
    {
      "constant": true,
      "inputs": [
        {
          "name": "tokenOut",
          "type": "address"
        },
        {
          "name": "tokenAmountOut",
          "type": "uint256"
        }
      ],
      "name": "ScalcPoolInGivenSingleOut",
      "outputs": [
        {
          "name": "",
          "type": "uint256"
        }
      ],
      "payable": false,
      "stateMutability": "view",
      "type": "function"
    },
    {
      "constant": true,
      "inputs": [
        {
          "name": "tokenIn",
          "type": "address"
        },
        {
          "name": "tokenOut",
          "type": "address"
        }
      ],
      "name": "ScalcSpotPrice",
      "outputs": [
        {
          "name": "",
          "type": "uint256"
        }
      ],
      "payable": false,
      "stateMutability": "view",
      "type": "function"
    },
    {
      "constant": true,
      "inputs": [
        {
          "name": "tokenBalanceIn",
          "type": "uint256"
        },
        {
          "name": "tokenWeightIn",
          "type": "uint256"
        },
        {
          "name": "poolSupply",
          "type": "uint256"
        },
        {
          "name": "totalWeight",
          "type": "uint256"
        },
        {
          "name": "poolAmountOut",
          "type": "uint256"
        }
      ],
      "name": "calcSingleInGivenPoolOut",
      "outputs": [
        {
          "name": "tokenAmountIn",
          "type": "uint256"
        }
      ],
      "payable": false,
      "stateMutability": "view",
      "type": "function"
    },
    {
      "constant": false,
      "inputs": [
        {
          "name": "tokenIn",
          "type": "address"
        },
        {
          "name": "poolAmountOut",
          "type": "uint256"
        },
        {
          "name": "maxAmountIn",
          "type": "uint256"
        }
      ],
      "name": "joinswapPoolAmountOut",
      "outputs": [
        {
          "name": "tokenAmountIn",
          "type": "uint256"
        }
      ],
      "payable": false,
      "stateMutability": "nonpayable",
      "type": "function"
    },
    {
      "constant": true,
      "inputs": [
        {
          "name": "whom",
          "type": "address"
        }
      ],
      "name": "balanceOf",
      "outputs": [
        {
          "name": "",
          "type": "uint256"
        }
      ],
      "payable": false,
      "stateMutability": "view",
      "type": "function"
    },
    {
      "constant": true,
      "inputs": [],
      "name": "MIN_FEE",
      "outputs": [
        {
          "name": "",
          "type": "uint256"
        }
      ],
      "payable": false,
      "stateMutability": "view",
      "type": "function"
    },
    {
      "constant": false,
      "inputs": [
        {
          "name": "tokenIn",
          "type": "address"
        },
        {
          "name": "maxAmountIn",
          "type": "uint256"
        },
        {
          "name": "tokenOut",
          "type": "address"
        },
        {
          "name": "tokenAmountOut",
          "type": "uint256"
        },
        {
          "name": "maxPrice",
          "type": "uint256"
        }
      ],
      "name": "swapExactAmountOut",
      "outputs": [
        {
          "name": "tokenAmountIn",
          "type": "uint256"
        },
        {
          "name": "spotPriceAfter",
          "type": "uint256"
        }
      ],
      "payable": false,
      "stateMutability": "nonpayable",
      "type": "function"
    },
    {
      "constant": true,
      "inputs": [
        {
          "name": "",
          "type": "address"
        }
      ],
      "name": "feesCollectedOPF",
      "outputs": [
        {
          "name": "",
          "type": "uint256"
        }
      ],
      "payable": false,
      "stateMutability": "view",
      "type": "function"
    },
    {
      "constant": false,
      "inputs": [
        {
          "name": "tokenIn",
          "type": "address"
        },
        {
          "name": "tokenAmountIn",
          "type": "uint256"
        },
        {
          "name": "tokenOut",
          "type": "address"
        },
        {
          "name": "minAmountOut",
          "type": "uint256"
        },
        {
          "name": "maxPrice",
          "type": "uint256"
        }
      ],
      "name": "swapExactAmountIn",
      "outputs": [
        {
          "name": "tokenAmountOut",
          "type": "uint256"
        },
        {
          "name": "spotPriceAfter",
          "type": "uint256"
        }
      ],
      "payable": false,
      "stateMutability": "nonpayable",
      "type": "function"
    },
    {
      "constant": true,
      "inputs": [
        {
          "name": "tokenBalanceOut",
          "type": "uint256"
        },
        {
          "name": "tokenWeightOut",
          "type": "uint256"
        },
        {
          "name": "poolSupply",
          "type": "uint256"
        },
        {
          "name": "totalWeight",
          "type": "uint256"
        },
        {
          "name": "tokenAmountOut",
          "type": "uint256"
        },
        {
          "name": "swapFee",
          "type": "uint256"
        }
      ],
      "name": "calcPoolInGivenSingleOut",
      "outputs": [
        {
          "name": "poolAmountIn",
          "type": "uint256"
        }
      ],
      "payable": false,
      "stateMutability": "pure",
      "type": "function"
    },
    {
      "constant": true,
      "inputs": [
        {
          "name": "tokenBalanceIn",
          "type": "uint256"
        },
        {
          "name": "tokenWeightIn",
          "type": "uint256"
        },
        {
          "name": "poolSupply",
          "type": "uint256"
        },
        {
          "name": "totalWeight",
          "type": "uint256"
        },
        {
          "name": "tokenAmountIn",
          "type": "uint256"
        },
        {
          "name": "swapFee",
          "type": "uint256"
        }
      ],
      "name": "calcPoolOutGivenSingleIn",
      "outputs": [
        {
          "name": "poolAmountOut",
          "type": "uint256"
        }
      ],
      "payable": false,
      "stateMutability": "pure",
      "type": "function"
    },
    {
      "constant": true,
      "inputs": [],
      "name": "MIN_BALANCE",
      "outputs": [
        {
          "name": "",
          "type": "uint256"
        }
      ],
      "payable": false,
      "stateMutability": "view",
      "type": "function"
    },
    {
      "constant": true,
      "inputs": [
        {
          "name": "tokenBalanceOut",
          "type": "uint256"
        },
        {
          "name": "tokenWeightOut",
          "type": "uint256"
        },
        {
          "name": "poolSupply",
          "type": "uint256"
        },
        {
          "name": "totalWeight",
          "type": "uint256"
        },
        {
          "name": "poolAmountIn",
          "type": "uint256"
        },
        {
          "name": "swapFee",
          "type": "uint256"
        }
      ],
      "name": "calcSingleOutGivenPoolIn",
      "outputs": [
        {
          "name": "tokenAmountOut",
          "type": "uint256"
        }
      ],
      "payable": false,
      "stateMutability": "pure",
      "type": "function"
    },
    {
      "constant": false,
      "inputs": [
        {
          "name": "token",
          "type": "address"
        }
      ],
      "name": "gulp",
      "outputs": [],
      "payable": false,
      "stateMutability": "nonpayable",
      "type": "function"
    },
    {
      "constant": true,
      "inputs": [
        {
          "name": "tokenOut",
          "type": "address"
        },
        {
          "name": "poolAmountIn",
          "type": "uint256"
        }
      ],
      "name": "ScalcSingleOutGivenPoolIn",
      "outputs": [
        {
          "name": "",
          "type": "uint256"
        }
      ],
      "payable": false,
      "stateMutability": "view",
      "type": "function"
    },
    {
      "constant": true,
      "inputs": [],
      "name": "isFinalized",
      "outputs": [
        {
          "name": "",
          "type": "bool"
        }
      ],
      "payable": false,
      "stateMutability": "view",
      "type": "function"
    },
    {
      "constant": false,
      "inputs": [
        {
          "name": "manager",
          "type": "address"
        }
      ],
      "name": "setController",
      "outputs": [],
      "payable": false,
      "stateMutability": "nonpayable",
      "type": "function"
    },
    {
      "constant": true,
      "inputs": [],
      "name": "getTotalDenormalizedWeight",
      "outputs": [
        {
          "name": "",
          "type": "uint256"
        }
      ],
      "payable": false,
      "stateMutability": "view",
      "type": "function"
    },
    {
      "constant": true,
      "inputs": [],
      "name": "INIT_POOL_SUPPLY",
      "outputs": [
        {
          "name": "",
          "type": "uint256"
        }
      ],
      "payable": false,
      "stateMutability": "view",
      "type": "function"
    },
    {
      "constant": true,
      "inputs": [
        {
          "name": "token",
          "type": "address"
        }
      ],
      "name": "getDenormalizedWeight",
      "outputs": [
        {
          "name": "",
          "type": "uint256"
        }
      ],
      "payable": false,
      "stateMutability": "view",
      "type": "function"
    },
    {
      "constant": true,
      "inputs": [],
      "name": "symbol",
      "outputs": [
        {
          "name": "",
          "type": "string"
        }
      ],
      "payable": false,
      "stateMutability": "view",
      "type": "function"
    },
    {
      "constant": true,
      "inputs": [],
      "name": "MAX_OUT_RATIO",
      "outputs": [
        {
          "name": "",
          "type": "uint256"
        }
      ],
      "payable": false,
      "stateMutability": "view",
      "type": "function"
    },
    {
      "constant": true,
      "inputs": [
        {
          "name": "tokenBalanceOut",
          "type": "uint256"
        },
        {
          "name": "tokenWeightOut",
          "type": "uint256"
        },
        {
          "name": "poolSupply",
          "type": "uint256"
        },
        {
          "name": "totalWeight",
          "type": "uint256"
        },
        {
          "name": "tokenAmountOut",
          "type": "uint256"
        }
      ],
      "name": "calcPoolInGivenSingleOut",
      "outputs": [
        {
          "name": "poolAmountIn",
          "type": "uint256"
        }
      ],
      "payable": false,
      "stateMutability": "view",
      "type": "function"
    },
    {
      "constant": false,
      "inputs": [
        {
          "name": "dst",
          "type": "address"
        },
        {
          "name": "amt",
          "type": "uint256"
        }
      ],
      "name": "transfer",
      "outputs": [
        {
          "name": "",
          "type": "bool"
        }
      ],
      "payable": false,
      "stateMutability": "nonpayable",
      "type": "function"
    },
    {
      "constant": false,
      "inputs": [
        {
          "name": "poolAmountIn",
          "type": "uint256"
        },
        {
          "name": "minAmountsOut",
          "type": "uint256[]"
        }
      ],
      "name": "exitPool",
      "outputs": [],
      "payable": false,
      "stateMutability": "nonpayable",
      "type": "function"
    },
    {
      "constant": true,
      "inputs": [],
      "name": "MAX_BOUND_TOKENS",
      "outputs": [
        {
          "name": "",
          "type": "uint256"
        }
      ],
      "payable": false,
      "stateMutability": "view",
      "type": "function"
    },
    {
      "constant": true,
      "inputs": [
        {
          "name": "tokenBalanceIn",
          "type": "uint256"
        },
        {
          "name": "tokenWeightIn",
          "type": "uint256"
        },
        {
          "name": "poolSupply",
          "type": "uint256"
        },
        {
          "name": "totalWeight",
          "type": "uint256"
        },
        {
          "name": "tokenAmountIn",
          "type": "uint256"
        }
      ],
      "name": "calcPoolOutGivenSingleIn",
      "outputs": [
        {
          "name": "poolAmountOut",
          "type": "uint256"
        }
      ],
      "payable": false,
      "stateMutability": "view",
      "type": "function"
    },
    {
      "constant": true,
      "inputs": [],
      "name": "MIN_BOUND_TOKENS",
      "outputs": [
        {
          "name": "",
          "type": "uint256"
        }
      ],
      "payable": false,
      "stateMutability": "view",
      "type": "function"
    },
    {
      "constant": true,
      "inputs": [],
      "name": "_swapOceanFee",
      "outputs": [
        {
          "name": "",
          "type": "uint256"
        }
      ],
      "payable": false,
      "stateMutability": "view",
      "type": "function"
    },
    {
      "constant": true,
      "inputs": [
        {
          "name": "tokenIn",
          "type": "address"
        },
        {
          "name": "poolAmountOut",
          "type": "uint256"
        }
      ],
      "name": "ScalcSingleInGivenPoolOut",
      "outputs": [
        {
          "name": "",
          "type": "uint256"
        }
      ],
      "payable": false,
      "stateMutability": "view",
      "type": "function"
    },
    {
      "constant": true,
      "inputs": [],
      "name": "MIN_BPOW_BASE",
      "outputs": [
        {
          "name": "",
          "type": "uint256"
        }
      ],
      "payable": false,
      "stateMutability": "view",
      "type": "function"
    },
    {
      "constant": true,
      "inputs": [
        {
          "name": "tokenBalanceIn",
          "type": "uint256"
        },
        {
          "name": "tokenWeightIn",
          "type": "uint256"
        },
        {
          "name": "tokenBalanceOut",
          "type": "uint256"
        },
        {
          "name": "tokenWeightOut",
          "type": "uint256"
        },
        {
          "name": "tokenAmountIn",
          "type": "uint256"
        },
        {
          "name": "swapFee",
          "type": "uint256"
        }
      ],
      "name": "calcOutGivenIn",
      "outputs": [
        {
          "name": "tokenAmountOut",
          "type": "uint256"
        }
      ],
      "payable": false,
      "stateMutability": "pure",
      "type": "function"
    },
    {
      "constant": true,
      "inputs": [],
      "name": "MAX_FEE",
      "outputs": [
        {
          "name": "",
          "type": "uint256"
        }
      ],
      "payable": false,
      "stateMutability": "view",
      "type": "function"
    },
    {
      "constant": true,
      "inputs": [],
      "name": "MAX_BPOW_BASE",
      "outputs": [
        {
          "name": "",
          "type": "uint256"
        }
      ],
      "payable": false,
      "stateMutability": "view",
      "type": "function"
    },
    {
      "constant": true,
      "inputs": [],
      "name": "getFinalTokens",
      "outputs": [
        {
          "name": "tokens",
          "type": "address[]"
        }
      ],
      "payable": false,
      "stateMutability": "view",
      "type": "function"
    },
    {
      "constant": false,
      "inputs": [
        {
          "name": "controller",
          "type": "address"
        },
        {
          "name": "factory",
          "type": "address"
        },
        {
          "name": "swapFee",
          "type": "uint256"
        },
        {
          "name": "swapOceanFee",
          "type": "uint256"
        },
        {
          "name": "publicSwap",
          "type": "bool"
        },
        {
          "name": "finalized",
          "type": "bool"
        },
        {
          "name": "datatokenAddress",
          "type": "address"
        },
        {
          "name": "basetokenAddress",
          "type": "address"
        },
        {
          "name": "burnInEndBlock",
          "type": "uint256"
        }
      ],
      "name": "initialize",
      "outputs": [
        {
          "name": "",
          "type": "bool"
        }
      ],
      "payable": false,
      "stateMutability": "nonpayable",
      "type": "function"
    },
    {
      "constant": true,
      "inputs": [],
      "name": "BONE",
      "outputs": [
        {
          "name": "",
          "type": "uint256"
        }
      ],
      "payable": false,
      "stateMutability": "view",
      "type": "function"
    },
    {
      "constant": true,
      "inputs": [],
      "name": "EXIT_FEE",
      "outputs": [
        {
          "name": "",
          "type": "uint256"
        }
      ],
      "payable": false,
      "stateMutability": "view",
      "type": "function"
    },
    {
      "constant": true,
      "inputs": [
        {
          "name": "tokenIn",
          "type": "address"
        },
        {
          "name": "tokenOut",
          "type": "address"
        },
        {
          "name": "tokenAmountIn",
          "type": "uint256"
        }
      ],
      "name": "ScalcOutGivenIn",
      "outputs": [
        {
          "name": "",
          "type": "uint256"
        }
      ],
      "payable": false,
      "stateMutability": "view",
      "type": "function"
    },
    {
      "constant": true,
      "inputs": [],
      "name": "getCurrentTokens",
      "outputs": [
        {
          "name": "tokens",
          "type": "address[]"
        }
      ],
      "payable": false,
      "stateMutability": "view",
      "type": "function"
    },
    {
      "constant": true,
      "inputs": [],
      "name": "getNumTokens",
      "outputs": [
        {
          "name": "",
          "type": "uint256"
        }
      ],
      "payable": false,
      "stateMutability": "view",
      "type": "function"
    },
    {
      "constant": false,
      "inputs": [
        {
          "name": "token",
          "type": "address"
        }
      ],
      "name": "unbind",
      "outputs": [],
      "payable": false,
      "stateMutability": "nonpayable",
      "type": "function"
    },
    {
      "constant": true,
      "inputs": [],
      "name": "getSwapFee",
      "outputs": [
        {
          "name": "",
          "type": "uint256"
        }
      ],
      "payable": false,
      "stateMutability": "view",
      "type": "function"
    },
    {
      "constant": true,
      "inputs": [
        {
          "name": "tokenBalanceIn",
          "type": "uint256"
        },
        {
          "name": "tokenWeightIn",
          "type": "uint256"
        },
        {
          "name": "tokenBalanceOut",
          "type": "uint256"
        },
        {
          "name": "tokenWeightOut",
          "type": "uint256"
        },
        {
          "name": "tokenAmountOut",
          "type": "uint256"
        }
      ],
      "name": "calcInGivenOut",
      "outputs": [
        {
          "name": "tokenAmountIn",
          "type": "uint256"
        }
      ],
      "payable": false,
      "stateMutability": "view",
      "type": "function"
    },
    {
      "constant": false,
      "inputs": [
        {
          "name": "dst",
          "type": "address"
        },
        {
          "name": "amt",
          "type": "uint256"
        }
      ],
      "name": "increaseApproval",
      "outputs": [
        {
          "name": "",
          "type": "bool"
        }
      ],
      "payable": false,
      "stateMutability": "nonpayable",
      "type": "function"
    },
    {
      "constant": true,
      "inputs": [
        {
          "name": "src",
          "type": "address"
        },
        {
          "name": "dst",
          "type": "address"
        }
      ],
      "name": "allowance",
      "outputs": [
        {
          "name": "",
          "type": "uint256"
        }
      ],
      "payable": false,
      "stateMutability": "view",
      "type": "function"
    },
    {
      "constant": true,
      "inputs": [],
      "name": "MAX_WEIGHT",
      "outputs": [
        {
          "name": "",
          "type": "uint256"
        }
      ],
      "payable": false,
      "stateMutability": "view",
      "type": "function"
    },
    {
      "constant": false,
      "inputs": [
        {
          "name": "token",
          "type": "address"
        },
        {
          "name": "balance",
          "type": "uint256"
        },
        {
          "name": "denorm",
          "type": "uint256"
        }
      ],
      "name": "bind",
      "outputs": [],
      "payable": false,
      "stateMutability": "nonpayable",
      "type": "function"
    },
    {
      "constant": true,
      "inputs": [],
      "name": "MAX_IN_RATIO",
      "outputs": [
        {
          "name": "",
          "type": "uint256"
        }
      ],
      "payable": false,
      "stateMutability": "view",
      "type": "function"
    },
    {
      "constant": true,
      "inputs": [
        {
          "name": "tokenBalanceOut",
          "type": "uint256"
        },
        {
          "name": "tokenWeightOut",
          "type": "uint256"
        },
        {
          "name": "poolSupply",
          "type": "uint256"
        },
        {
          "name": "totalWeight",
          "type": "uint256"
        },
        {
          "name": "poolAmountIn",
          "type": "uint256"
        }
      ],
      "name": "calcSingleOutGivenPoolIn",
      "outputs": [
        {
          "name": "tokenAmountOut",
          "type": "uint256"
        }
      ],
      "payable": false,
      "stateMutability": "view",
      "type": "function"
    },
    {
      "constant": true,
      "inputs": [
        {
          "name": "token",
          "type": "address"
        }
      ],
      "name": "getNormalizedWeight",
      "outputs": [
        {
          "name": "",
          "type": "uint256"
        }
      ],
      "payable": false,
      "stateMutability": "view",
      "type": "function"
    },
    {
      "constant": true,
      "inputs": [
        {
          "name": "tokenIn",
          "type": "address"
        },
        {
          "name": "tokenOut",
          "type": "address"
        },
        {
          "name": "tokenAmountOut",
          "type": "uint256"
        }
      ],
      "name": "ScalcInGivenOut",
      "outputs": [
        {
          "name": "",
          "type": "uint256"
        }
      ],
      "payable": false,
      "stateMutability": "view",
      "type": "function"
    },
    {
      "constant": true,
      "inputs": [
        {
          "name": "",
          "type": "address"
        }
      ],
      "name": "feesCollectedMarket",
      "outputs": [
        {
          "name": "",
          "type": "uint256"
        }
      ],
      "payable": false,
      "stateMutability": "view",
      "type": "function"
    },
    {
      "constant": true,
      "inputs": [
        {
          "name": "token",
          "type": "address"
        }
      ],
      "name": "getBalance",
      "outputs": [
        {
          "name": "",
          "type": "uint256"
        }
      ],
      "payable": false,
      "stateMutability": "view",
      "type": "function"
    },
    {
      "constant": true,
      "inputs": [
        {
          "name": "tokenBalanceIn",
          "type": "uint256"
        },
        {
          "name": "tokenWeightIn",
          "type": "uint256"
        },
        {
          "name": "tokenBalanceOut",
          "type": "uint256"
        },
        {
          "name": "tokenWeightOut",
          "type": "uint256"
        },
        {
          "name": "tokenAmountOut",
          "type": "uint256"
        },
        {
          "name": "swapFee",
          "type": "uint256"
        }
      ],
      "name": "calcInGivenOut",
      "outputs": [
        {
          "name": "tokenAmountIn",
          "type": "uint256"
        }
      ],
      "payable": false,
      "stateMutability": "pure",
      "type": "function"
    },
    {
      "constant": true,
      "inputs": [],
      "name": "isPublicSwap",
      "outputs": [
        {
          "name": "",
          "type": "bool"
        }
      ],
      "payable": false,
      "stateMutability": "view",
      "type": "function"
    },
    {
      "inputs": [],
      "payable": false,
      "stateMutability": "nonpayable",
      "type": "constructor"
    },
    {
      "anonymous": false,
      "inputs": [
        {
          "indexed": true,
          "name": "caller",
          "type": "address"
        },
        {
          "indexed": true,
          "name": "tokenIn",
          "type": "address"
        },
        {
          "indexed": true,
          "name": "tokenOut",
          "type": "address"
        },
        {
          "indexed": false,
          "name": "tokenAmountIn",
          "type": "uint256"
        },
        {
          "indexed": false,
          "name": "tokenAmountOut",
          "type": "uint256"
        },
        {
          "indexed": false,
          "name": "timestamp",
          "type": "uint256"
        }
      ],
      "name": "LOG_SWAP",
      "type": "event"
    },
    {
      "anonymous": false,
      "inputs": [
        {
          "indexed": true,
          "name": "caller",
          "type": "address"
        },
        {
          "indexed": true,
          "name": "tokenIn",
          "type": "address"
        },
        {
          "indexed": false,
          "name": "tokenAmountIn",
          "type": "uint256"
        },
        {
          "indexed": false,
          "name": "timestamp",
          "type": "uint256"
        }
      ],
      "name": "LOG_JOIN",
      "type": "event"
    },
    {
      "anonymous": false,
      "inputs": [
        {
          "indexed": true,
          "name": "caller",
          "type": "address"
        },
        {
          "indexed": true,
          "name": "tokenOut",
          "type": "address"
        },
        {
          "indexed": false,
          "name": "tokenAmountOut",
          "type": "uint256"
        },
        {
          "indexed": false,
          "name": "timestamp",
          "type": "uint256"
        }
      ],
      "name": "LOG_EXIT",
      "type": "event"
    },
    {
      "anonymous": false,
      "inputs": [
        {
          "indexed": true,
          "name": "sig",
          "type": "bytes4"
        },
        {
          "indexed": true,
          "name": "caller",
          "type": "address"
        },
        {
          "indexed": false,
          "name": "timestamp",
          "type": "uint256"
        },
        {
          "indexed": false,
          "name": "data",
          "type": "bytes"
        }
      ],
      "name": "LOG_CALL",
      "type": "event"
    },
    {
      "anonymous": false,
      "inputs": [
        {
          "indexed": true,
          "name": "src",
          "type": "address"
        },
        {
          "indexed": true,
          "name": "dst",
          "type": "address"
        },
        {
          "indexed": false,
          "name": "amt",
          "type": "uint256"
        }
      ],
      "name": "Approval",
      "type": "event"
    },
    {
      "anonymous": false,
      "inputs": [
        {
          "indexed": true,
          "name": "src",
          "type": "address"
        },
        {
          "indexed": true,
          "name": "dst",
          "type": "address"
        },
        {
          "indexed": false,
          "name": "amt",
          "type": "uint256"
        }
      ],
      "name": "Transfer",
      "type": "event"
    }
  ],
  "bytecode": "0x60c0604052601360808190527f42616c616e63657220506f6f6c20546f6b656e0000000000000000000000000060a09081526200004091600a9190620001ad565b506040805180820190915260038082527f425054000000000000000000000000000000000000000000000000000000000060209092019182526200008791600b91620001ad565b50600c805460ff1916601217905560168054600160a01b60ff0219169055348015620000b257600080fd5b50620000dc3380620f4240670de0b6b3a764000004600080600033336000620000e360201b60201c565b5062000252565b600d8054600c805462010000600160b01b031916620100006001600160a01b039c8d16021790556011989098556000969096556001600160a01b031996871698881698909817600160a01b60ff021990811674010000000000000000000000000000000000000000951515860217958690556012805460ff191694151594909417909355600e8054871692881692909217909155600f805486169187169190911790556016805460109790975592909416949093168317909116929092179182905560ff91041690565b828054600181600116156101000203166002900490600052602060002090601f016020900481019282601f10620001f057805160ff191683800117855562000220565b8280016001018555821562000220579182015b828111156200022057825182559160200191906001019062000203565b506200022e92915062000232565b5090565b6200024f91905b808211156200022e576000815560010162000239565b90565b618d7180620002626000396000f3fe608060405234801561001057600080fd5b50600436106104e35760003560e01c8063867378c51161028e578063bc694ea211610167578063d73dd623116100d9578063f1b8a9b711610092578063f1b8a9b71461110f578063f3aa484314611135578063f542f6cf1461116b578063f8b2cb4f14611191578063f8d6aed4146111b7578063fde924f7146111f2576104e3565b8063d73dd62314611046578063dd62ed3e14611072578063e4a28a5214610639578063e4e1e538146110a0578063ec093021146110d2578063ee53a6cd146110da576104e3565b8063cb3219341161012b578063cb32193414610f9d578063cc77828d14610fd3578063cd2ed8fb14610fdb578063cf5e7bd314610fe3578063d4cadf6814611009578063d590510014611011576104e3565b8063bc694ea214610ed1578063be3bbd2e14610ed9578063c336eeff14610f31578063c36596a6146106fe578063c6580d1214610f95576104e3565b8063a33adccb11610200578063b7b800a4116101c4578063b7b800a414610e4a578063b80483b014610e52578063b855613814610e5a578063ba019dab14610e86578063ba9530a614610e8e578063bc063e1a14610ec9576104e3565b8063a33adccb14610d35578063a9059cbb14610d6a578063b02f0b7314610d96578063b0e0d13614610e0d578063b4ddf25114610e15576104e3565b806392eefe9b1161025257806392eefe9b14610cc9578063936c347714610cef5780639381cd2b14610cf7578063948d8ce614610cff57806395d89b4114610d25578063992e2a9214610d2d576104e3565b8063867378c514610c2c5780638929801214610c345780638c28cbe814610c6f5780638d07ec2d14610c955780638d4e408314610cc1576104e3565b806346ab38f1116103c0578063672780851161033257806376c7a3c7116102f657806376c7a3c714610aef5780637c5e9ea414610af75780637c6e92c214610b505780638201aa3f14610b7657806382f652ad14610bb65780638656b65314610bf1576104e3565b80636727808514610a085780636bf07d1c14610a345780636c2749c714610a625780636d06dfa014610a9757806370a0823114610ac9576104e3565b80634f69c0d4116103845780634f69c0d4146108945780635678976b1461090b5780635c1bbaf7146109405780635d14552a1461097b5780635db34277146109aa57806366188463146109dc576104e3565b806346ab38f11461082b57806349b595521461085d57806349e9350f1461087c5780634bb278f3146108845780634df947d01461088c576104e3565b8063189d00ca116104595780633018205f1161041d5780633018205f14610788578063313ce5671461079057806331e2761b146107ae57806334e19907146107d4578063392e53cd146107f15780633fdddaa2146107f9576104e3565b8063189d00ca146106f6578063218b5382146106fe57806323b872dd146107065780632f37b6241461073c5780633006219214610762576104e3565b806309a3bbe4116104ab57806309a3bbe41461063957806309ef3f5b146106415780630c78bb4e1461068b5780631446a7ff146106c057806315e84af9146106c057806318160ddd146106ee576104e3565b806302c96748146104e857806304a5e3461461052c57806304ad79541461055857806306fdde031461057c578063095ea7b3146105f9575b600080fd5b61051a600480360360608110156104fe57600080fd5b506001600160a01b0381351690602081013590604001356111fa565b60408051918252519081900360200190f35b61051a6004803603604081101561054257600080fd5b506001600160a01b0381351690602001356119b0565b610560611a21565b604080516001600160a01b039092168252519081900360200190f35b610584611a82565b6040805160208082528351818301528351919283929083019185019080838360005b838110156105be5781810151838201526020016105a6565b50505050905090810190601f1680156105eb5780820380516001836020036101000a031916815260200191505b509250505060405180910390f35b6106256004803603604081101561060f57600080fd5b506001600160a01b038135169060200135611b18565b604080519115158252519081900360200190f35b61051a611b6c565b610689600480360360c081101561065757600080fd5b506001600160a01b03813581169160208101359160408201359160608101359091169060808101359060a00135611b79565b005b61051a600480360360a08110156106a157600080fd5b5080359060208101359060408101359060608101359060800135611e14565b61051a600480360360408110156106d657600080fd5b506001600160a01b0381358116916020013516611ee0565b61051a612036565b61051a61203c565b61051a612050565b6106256004803603606081101561071c57600080fd5b506001600160a01b0381358116916020810135909116906040013561205c565b6106256004803603602081101561075257600080fd5b50356001600160a01b03166121c2565b61051a6004803603602081101561077857600080fd5b50356001600160a01b03166121e0565b6105606121f2565b610798612253565b6040805160ff9092168252519081900360200190f35b61051a600480360360208110156107c457600080fd5b50356001600160a01b031661225c565b610689600480360360208110156107ea57600080fd5b503561226e565b610625612493565b6106896004803603606081101561080f57600080fd5b506001600160a01b0381351690602081013590604001356124a3565b61051a6004803603606081101561084157600080fd5b506001600160a01b03813516906020810135906040013561290e565b6106896004803603602081101561087357600080fd5b50351515613047565b61051a6131e9565b6106896131ef565b610560613417565b610689600480360360408110156108aa57600080fd5b813591908101906040810160208201356401000000008111156108cc57600080fd5b8201836020820111156108de57600080fd5b8035906020019184602083028401116401000000008311171561090057600080fd5b509092509050613478565b61051a600480360360a081101561092157600080fd5b50803590602081013590604081013590606081013590608001356139bd565b61051a600480360360c081101561095657600080fd5b5080359060208101359060408101359060608101359060808101359060a00135613a54565b61051a6004803603608081101561099157600080fd5b5080359060208101359060408101359060600135613b07565b61051a600480360360608110156109c057600080fd5b506001600160a01b038135169060208101359060400135613b7a565b610625600480360360408110156109f257600080fd5b506001600160a01b0381351690602001356142cb565b61051a60048036036040811015610a1e57600080fd5b506001600160a01b0381351690602001356143a3565b61051a60048036036040811015610a4a57600080fd5b506001600160a01b038135811691602001351661440b565b61051a600480360360a0811015610a7857600080fd5b50803590602081013590604081013590606081013590608001356144a7565b61051a60048036036060811015610aad57600080fd5b506001600160a01b038135169060208101359060400135614549565b61051a60048036036020811015610adf57600080fd5b50356001600160a01b0316614c7f565b61051a614c9a565b610b37600480360360a0811015610b0d57600080fd5b506001600160a01b0381358116916020810135916040820135169060608101359060800135614cac565b6040805192835260208301919091528051918290030190f35b61051a60048036036020811015610b6657600080fd5b50356001600160a01b0316615540565b610b37600480360360a0811015610b8c57600080fd5b506001600160a01b0381358116916020810135916040820135169060608101359060800135615552565b61051a600480360360c0811015610bcc57600080fd5b5080359060208101359060408101359060608101359060808101359060a00135615dfd565b61051a600480360360c0811015610c0757600080fd5b5080359060208101359060408101359060608101359060808101359060a00135615ebc565b61051a615f46565b61051a600480360360c0811015610c4a57600080fd5b5080359060208101359060408101359060608101359060808101359060a00135615f5a565b61068960048036036020811015610c8557600080fd5b50356001600160a01b031661600a565b61051a60048036036040811015610cab57600080fd5b506001600160a01b0381351690602001356161dc565b610625616244565b61068960048036036020811015610cdf57600080fd5b50356001600160a01b031661624d565b61051a6163fd565b61051a616455565b61051a60048036036020811015610d1557600080fd5b50356001600160a01b0316616462565b610584616530565b61051a616591565b61051a600480360360a0811015610d4b57600080fd5b508035906020810135906040810135906060810135906080013561659d565b61062560048036036040811015610d8057600080fd5b506001600160a01b038135169060200135616649565b61068960048036036040811015610dac57600080fd5b81359190810190604081016020820135640100000000811115610dce57600080fd5b820183602082011115610de057600080fd5b80359060200191846020830284011164010000000083111715610e0257600080fd5b50909250905061665f565b61051a616be0565b61051a600480360360a0811015610e2b57600080fd5b5080359060208101359060408101359060608101359060800135616be5565b61051a616c7a565b61051a616c7f565b61051a60048036036040811015610e7057600080fd5b506001600160a01b038135169060200135616c85565b61051a616ced565b61051a600480360360c0811015610ea457600080fd5b5080359060208101359060408101359060608101359060808101359060a00135616cf2565b61051a616d63565b61051a616d73565b610ee1616d7f565b60408051602080825283518183015283519192839290830191858101910280838360005b83811015610f1d578181015183820152602001610f05565b505050509050019250505060405180910390f35b6106256004803603610120811015610f4857600080fd5b506001600160a01b0381358116916020810135821691604082013591606081013591608082013515159160a081013515159160c082013581169160e0810135909116906101000135616e77565b61051a617048565b61051a60048036036060811015610fb357600080fd5b506001600160a01b0381358116916020810135909116906040013561704d565b610ee16170f7565b61051a617148565b61068960048036036020811015610ff957600080fd5b50356001600160a01b031661714e565b61051a6174ed565b61051a600480360360a081101561102757600080fd5b5080359060208101359060408101359060608101359060800135617545565b6106256004803603604081101561105c57600080fd5b506001600160a01b0381351690602001356175d7565b61051a6004803603604081101561108857600080fd5b506001600160a01b0381358116916020013516617658565b610689600480360360608110156110b657600080fd5b506001600160a01b038135169060208101359060400135617683565b61051a617919565b61051a600480360360a08110156110f057600080fd5b5080359060208101359060408101359060608101359060800135617929565b61051a6004803603602081101561112557600080fd5b50356001600160a01b03166179d4565b61051a6004803603606081101561114b57600080fd5b506001600160a01b03813581169160208101359091169060400135617aad565b61051a6004803603602081101561118157600080fd5b50356001600160a01b0316617b4f565b61051a600480360360208110156111a757600080fd5b50356001600160a01b0316617b61565b61051a600480360360c08110156111cd57600080fd5b5080359060208101359060408101359060608101359060808101359060a00135617c2f565b610625617ca3565b6000336001600160a01b03166000356001600160e01b0319166001600160e01b031916600080516020618c668339815191524260003660405180848152602001806020018281038252848482818152602001925080828437600083820152604051601f909101601f1916909201829003965090945050505050a3600c54610100900460ff16156112c25760408051600160e51b62461bcd02815260206004820152600b6024820152600080516020618c06833981519152604482015290519081900360640190fd5b600c805461ff00191661010017905560125460ff161580156112e5575060105443115b1561135757601654600e5460408051600160e51b6307e4a1c90281526001600160a01b0392831660048201529051919092169163fc94392091602480830192600092919082900301818387803b15801561133e57600080fd5b505af1158015611352573d6000803e3d6000fd5b505050505b60125460ff1661139f5760408051600160e51b62461bcd0281526020600482015260116024820152600080516020618be6833981519152604482015290519081900360640190fd5b6001600160a01b03841660009081526014602052604090205460ff166113fd5760408051600160e51b62461bcd02815260206004820152600d6024820152600080516020618cc6833981519152604482015290519081900360640190fd5b6001600160a01b038416600090815260146020526040902060039081015461143291670de0b6b3a76400005b04600101617cb3565b8311156114805760408051600160e51b62461bcd0281526020600482015260116024820152600160781b704552525f4d41585f4f55545f524154494f02604482015290519081900360640190fd5b600e546001600160a01b03908116600081815260146020526040812090928392908816141561155157600f54601654600e5460408051600160e01b637eaf89010281526001600160a01b03928316600482015293821660248501819052604485018b9052600060648601523360848601529051909550911691637eaf89019160a4808301926020929190829003018186803b15801561151e57600080fd5b505afa158015611532573d6000803e3d6000fd5b505050506040513d602081101561154857600080fd5b5051925061160a565b5050600e54600f546001600160a01b0390811660008181526014602090815260408083206016548251600160e01b637eaf89010281529787166004890181905260248901969096526044880194909452606487018b90523360848801529051939590949290921692637eaf89019260a4808201939291829003018186803b1580156115db57600080fd5b505afa1580156115ef573d6000803e3d6000fd5b505050506040513d602081101561160557600080fd5b505192505b6001831515146116525760408051600160e51b62461bcd0281526020600482015260186024820152600080516020618c26833981519152604482015290519081900360640190fd5b6001600160a01b03871660009081526014602052604090206003810154600282015460095460155460115461168c94939291908c90615dfd565b9450846116d15760408051600160e51b62461bcd02815260206004820152600f6024820152600080516020618d06833981519152604482015290519081900360640190fd5b8585111561171b5760408051600160e51b62461bcd02815260206004820152600c6024820152600160a11b6b22a9292fa624a6a4aa2fa4a702604482015290519081900360640190fd5b611729816003015488617d88565b6003820155600061173a8682617cb3565b604080518a815242602082015281519293506001600160a01b038c16923392600080516020618c46833981519152928290030190a36117793387617df9565b61178b6117868783617d88565b617e07565b600c546117a7906201000090046001600160a01b031682617e13565b6117b289338a617e1d565b60006117d0846003015485600201546009546015548b601154615f5a565b601654600e5460408051600160e01b63efd481030281526001600160a01b039283166004820152898316602482015260448101859052905193945091169163efd4810391606480820192602092909190829003018186803b15801561183457600080fd5b505afa158015611848573d6000803e3d6000fd5b505050506040513d602081101561185e57600080fd5b505115156001141561199857611878846003015482617d88565b6003850155611888876000617cb3565b600d546040805184815242602082015281519395506001600160a01b03808a1694931692600080516020618c46833981519152929181900390910190a3600d546118db906001600160a01b031688617df9565b6118e86117868884617d88565b600c54611904906201000090046001600160a01b031683617e13565b600d5461191c9086906001600160a01b031683617e1d565b601654600e5460408051600160e11b63679346f50281526001600160a01b0392831660048201528883166024820152604481018590529051919092169163cf268dea91606480830192600092919082900301818387803b15801561197f57600080fd5b505af1158015611993573d6000803e3d6000fd5b505050505b505050505050600c805461ff00191690559392505050565b6001600160a01b03821660009081526014602052604081205460ff1615156001146119dd57506000611a1b565b6001600160a01b03831660009081526014602052604090206003810154600290910154600954601554601154611a1894939291908790615ebc565b90505b92915050565b600c54600090610100900460ff1615611a725760408051600160e51b62461bcd02815260206004820152600b6024820152600080516020618c06833981519152604482015290519081900360640190fd5b50600e546001600160a01b031690565b600a8054604080516020601f6002600019610100600188161502019095169490940493840181900481028201810190925282815260609390929091830182828015611b0e5780601f10611ae357610100808354040283529160200191611b0e565b820191906000526020600020905b815481529060010190602001808311611af157829003601f168201915b5050505050905090565b3360008181526008602090815260408083206001600160a01b03871680855290835281842086905581518681529151939490939092600080516020618ce6833981519152928290030190a350600192915050565b6802b5e3af16b188000081565b336001600160a01b03166000356001600160e01b0319166001600160e01b031916600080516020618c668339815191524260003660405180848152602001806020018281038252848482818152602001925080828437600083820152604051601f909101601f1916909201829003965090945050505050a3600d546001600160a01b03163314611c535760408051600160e51b62461bcd02815260206004820152601660248201527f4552525f494e56414c49445f434f4e54524f4c4c455200000000000000000000604482015290519081900360640190fd5b600e546001600160a01b03878116911614611cb85760408051600160e51b62461bcd02815260206004820152601d60248201527f4552525f494e56414c49445f44415441544f4b454e5f41444452455353000000604482015290519081900360640190fd5b600f546001600160a01b03848116911614611d1d5760408051600160e51b62461bcd02815260206004820152601d60248201527f4552525f494e56414c49445f42415345544f4b454e5f41444452455353000000604482015290519081900360640190fd5b611d5b6040518060400160405280601181526020017f696e2073657475702066756e6374696f6e000000000000000000000000000000815250617efc565b611d66868686617683565b6040805186815242602082015281516001600160a01b038916923392600080516020618ca6833981519152929081900390910190a3611da6838383617683565b6040805183815242602082015281516001600160a01b038616923392600080516020618ca6833981519152929081900390910190a3611e04604051806040016040528060058152602001600160d81b64747570616302815250617efc565b611e0c6131ef565b505050505050565b600080611e218685617fa5565b90506000611e39670de0b6b3a7640000600254617d88565b9050611e458482617cb3565b90506000611e6685611e61670de0b6b3a7640000600054617d88565b617cb3565b90506000611e8286611e61670de0b6b3a7640000600154617d88565b905082820181016000611e9e8c611e9981856180cd565b617fa5565b90506000611eac828861812a565b90506000611ec2670de0b6b3a764000083617d88565b9050611ece8c82617cb3565b9e9d5050505050505050505050505050565b600c54600090610100900460ff1615611f315760408051600160e51b62461bcd02815260206004820152600b6024820152600080516020618c06833981519152604482015290519081900360640190fd5b6001600160a01b03831660009081526014602052604090205460ff16611f8f5760408051600160e51b62461bcd02815260206004820152600d6024820152600080516020618cc6833981519152604482015290519081900360640190fd5b6001600160a01b03821660009081526014602052604090205460ff16611fed5760408051600160e51b62461bcd02815260206004820152600d6024820152600080516020618cc6833981519152604482015290519081900360640190fd5b6001600160a01b0380841660009081526014602052604080822092851682529020600380830154600280850154928401549084015461202d939190613b07565b95945050505050565b60095490565b6402540be400670de0b6b3a76400005b0481565b670de0b6b3a764000081565b6000336001600160a01b038516148061209857506001600160a01b03841660009081526008602090815260408083203384529091529020548211155b6120ec5760408051600160e51b62461bcd02815260206004820152601560248201527f4552525f42544f4b454e5f4241445f43414c4c45520000000000000000000000604482015290519081900360640190fd5b6120f784848461824d565b336001600160a01b0385161480159061213557506001600160a01b038416600090815260086020908152604080832033845290915290205460001914155b156121b7576001600160a01b03841660009081526008602090815260408083203384529091529020546121689083617d88565b6001600160a01b0385811660009081526008602090815260408083203380855290835292819020859055805194855251928716939192600080516020618ce68339815191529281900390910190a35b5060015b9392505050565b6001600160a01b031660009081526014602052604090205460ff1690565b60036020526000908152604090205481565b600c54600090610100900460ff16156122435760408051600160e51b62461bcd02815260206004820152600b6024820152600080516020618c06833981519152604482015290519081900360640190fd5b50600d546001600160a01b031690565b600c5460ff1690565b60056020526000908152604090205481565b336001600160a01b03166000356001600160e01b0319166001600160e01b031916600080516020618c668339815191524260003660405180848152602001806020018281038252848482818152602001925080828437600083820152604051601f909101601f1916909201829003965090945050505050a3600c54610100900460ff16156123345760408051600160e51b62461bcd02815260206004820152600b6024820152600080516020618c06833981519152604482015290519081900360640190fd5b600c805461ff00191661010017905560125460ff16156123945760408051600160e51b62461bcd0281526020600482015260106024820152600160821b6f11549497d254d7d1925390531256915102604482015290519081900360640190fd5b600d546001600160a01b031633146123e45760408051600160e51b62461bcd0281526020600482015260126024820152600080516020618c86833981519152604482015290519081900360640190fd5b64e8d4a510008110156124325760408051600160e51b62461bcd02815260206004820152600b6024820152600160a81b6a4552525f4d494e5f46454502604482015290519081900360640190fd5b67016345785d8a00008111156124835760408051600160e51b62461bcd02815260206004820152600b6024820152600160a81b6a4552525f4d41585f46454502604482015290519081900360640190fd5b601155600c805461ff0019169055565b601654600160a01b900460ff1690565b336001600160a01b03166000356001600160e01b0319166001600160e01b031916600080516020618c668339815191524260003660405180848152602001806020018281038252848482818152602001925080828437600083820152604051601f909101601f1916909201829003965090945050505050a3600c54610100900460ff16156125695760408051600160e51b62461bcd02815260206004820152600b6024820152600080516020618c06833981519152604482015290519081900360640190fd5b600c805461ff001916610100179055600d54336001600160a01b03909116146125ca5760408051600160e51b62461bcd0281526020600482015260126024820152600080516020618c86833981519152604482015290519081900360640190fd5b6001600160a01b03831660009081526014602052604090205460ff166126285760408051600160e51b62461bcd02815260206004820152600d6024820152600080516020618cc6833981519152604482015290519081900360640190fd5b60125460ff16156126795760408051600160e51b62461bcd0281526020600482015260106024820152600160821b6f11549497d254d7d1925390531256915102604482015290519081900360640190fd5b670de0b6b3a76400008110156126d95760408051600160e51b62461bcd02815260206004820152600e60248201527f4552525f4d494e5f574549474854000000000000000000000000000000000000604482015290519081900360640190fd5b6802b5e3af16b188000081111561273a5760408051600160e51b62461bcd02815260206004820152600e60248201527f4552525f4d41585f574549474854000000000000000000000000000000000000604482015290519081900360640190fd5b620f42408210156127955760408051600160e51b62461bcd02815260206004820152600f60248201527f4552525f4d494e5f42414c414e43450000000000000000000000000000000000604482015290519081900360640190fd5b6001600160a01b03831660009081526014602052604090206002015480821115612838576127ce6015546127c98484617d88565b6180cd565b60158190556802b5e3af16b188000010156128335760408051600160e51b62461bcd02815260206004820152601460248201527f4552525f4d41585f544f54414c5f574549474854000000000000000000000000604482015290519081900360640190fd5b612859565b80821015612859576128556015546128508385617d88565b617d88565b6015555b6001600160a01b038416600090815260146020526040902060028101839055600301805490849055808411156128a25761289d85336128988785617d88565b61836b565b6128fc565b808410156128fc5760006128b68286617d88565b905060006128c5826000617cb3565b90506128db87336128d68585617d88565b617e1d565b600c546128f99088906201000090046001600160a01b031683617e1d565b50505b5050600c805461ff0019169055505050565b6000336001600160a01b03166000356001600160e01b0319166001600160e01b031916600080516020618c668339815191524260003660405180848152602001806020018281038252848482818152602001925080828437600083820152604051601f909101601f1916909201829003965090945050505050a3600c54610100900460ff16156129d65760408051600160e51b62461bcd02815260206004820152600b6024820152600080516020618c06833981519152604482015290519081900360640190fd5b600c805461ff00191661010017905560125460ff161580156129f9575060105443115b15612a6b57601654600e5460408051600160e51b6307e4a1c90281526001600160a01b0392831660048201529051919092169163fc94392091602480830192600092919082900301818387803b158015612a5257600080fd5b505af1158015612a66573d6000803e3d6000fd5b505050505b60125460ff16612ab35760408051600160e51b62461bcd0281526020600482015260116024820152600080516020618be6833981519152604482015290519081900360640190fd5b6001600160a01b03841660009081526014602052604090205460ff16612b115760408051600160e51b62461bcd02815260206004820152600d6024820152600080516020618cc6833981519152604482015290519081900360640190fd5b6001600160a01b038416600090815260146020526040902060038101546002820154600954601554601154612b4b94939291908990615f5a565b915082821015612b985760408051600160e51b62461bcd02815260206004820152600d60248201526001609a1b6c11549497d31253525517d3d55502604482015290519081900360640190fd5b6001600160a01b0385166000908152601460205260409020600390810154612bc891670de0b6b3a7640000611429565b821115612c165760408051600160e51b62461bcd0281526020600482015260116024820152600160781b704552525f4d41585f4f55545f524154494f02604482015290519081900360640190fd5b600e546001600160a01b039081166000818152601460205260408120909283929089161415612ce757600f54601654600e5460408051600160e01b637eaf89010281526001600160a01b03928316600482015293821660248501819052604485018a9052600060648601523360848601529051909550911691637eaf89019160a4808301926020929190829003018186803b158015612cb457600080fd5b505afa158015612cc8573d6000803e3d6000fd5b505050506040513d6020811015612cde57600080fd5b50519250612da0565b5050600e54600f546001600160a01b0390811660008181526014602090815260408083206016548251600160e01b637eaf89010281529787166004890181905260248901969096526044880194909452606487018a90523360848801529051939590949290921692637eaf89019260a4808201939291829003018186803b158015612d7157600080fd5b505afa158015612d85573d6000803e3d6000fd5b505050506040513d6020811015612d9b57600080fd5b505192505b600183151514612de85760408051600160e51b62461bcd0281526020600482015260186024820152600080516020618c26833981519152604482015290519081900360640190fd5b612df6846003015486617d88565b60038501556000612e078882617cb3565b6040805188815242602082015281519293506001600160a01b038c16923392600080516020618c46833981519152928290030190a3612e463389617df9565b612e536117868983617d88565b600c54612e6f906201000090046001600160a01b031682617e13565b612e7a893388617e1d565b6000612e98836003015484600201546009546015548d601154615f5a565b601654600e5460408051600160e01b6326b1f01f0281526001600160a01b03928316600482015288831660248201526044810185905290519394509116916326b1f01f91606480820192602092909190829003018186803b158015612efc57600080fd5b505afa158015612f10573d6000803e3d6000fd5b505050506040513d6020811015612f2657600080fd5b505115156001141561199857612f40836003015482617d88565b6003840155612f50896000617cb3565b600d546040805184815242602082015281519395506001600160a01b0380891694931692600080516020618c46833981519152929181900390910190a3600d54612fa3906001600160a01b03168a617df9565b612fb06117868a84617d88565b600c54612fcc906201000090046001600160a01b031683617e13565b600d54612fe49085906001600160a01b031683617e1d565b601654600e5460408051600160e11b63679346f50281526001600160a01b0392831660048201528783166024820152604481018590529051919092169163cf268dea91606480830192600092919082900301818387803b15801561197f57600080fd5b336001600160a01b03166000356001600160e01b0319166001600160e01b031916600080516020618c668339815191524260003660405180848152602001806020018281038252848482818152602001925080828437600083820152604051601f909101601f1916909201829003965090945050505050a3600c54610100900460ff161561310d5760408051600160e51b62461bcd02815260206004820152600b6024820152600080516020618c06833981519152604482015290519081900360640190fd5b600c805461ff00191661010017905560125460ff161561316d5760408051600160e51b62461bcd0281526020600482015260106024820152600160821b6f11549497d254d7d1925390531256915102604482015290519081900360640190fd5b600d546001600160a01b031633146131bd5760408051600160e51b62461bcd0281526020600482015260126024820152600080516020618c86833981519152604482015290519081900360640190fd5b600d8054911515600160a01b02600160a01b60ff0219909216919091179055600c805461ff0019169055565b60015481565b336001600160a01b03166000356001600160e01b0319166001600160e01b031916600080516020618c668339815191524260003660405180848152602001806020018281038252848482818152602001925080828437600083820152604051601f909101601f1916909201829003965090945050505050a3600c54610100900460ff16156132b55760408051600160e51b62461bcd02815260206004820152600b6024820152600080516020618c06833981519152604482015290519081900360640190fd5b600c805461ff001916610100179055600d54336001600160a01b03909116146133165760408051600160e51b62461bcd0281526020600482015260126024820152600080516020618c86833981519152604482015290519081900360640190fd5b60125460ff16156133675760408051600160e51b62461bcd0281526020600482015260106024820152600160821b6f11549497d254d7d1925390531256915102604482015290519081900360640190fd5b601354600211156133c25760408051600160e51b62461bcd02815260206004820152600e60248201527f4552525f4d494e5f544f4b454e53000000000000000000000000000000000000604482015290519081900360640190fd5b6012805460ff19166001179055600d8054600160a01b60ff021916600160a01b1790556133f768056bc75e2d631000006183c7565b61340a3368056bc75e2d63100000617e13565b600c805461ff0019169055565b600c54600090610100900460ff16156134685760408051600160e51b62461bcd02815260206004820152600b6024820152600080516020618c06833981519152604482015290519081900360640190fd5b50600f546001600160a01b031690565b336001600160a01b03166000356001600160e01b0319166001600160e01b031916600080516020618c668339815191524260003660405180848152602001806020018281038252848482818152602001925080828437600083820152604051601f909101601f1916909201829003965090945050505050a3600c54610100900460ff161561353e5760408051600160e51b62461bcd02815260206004820152600b6024820152600080516020618c06833981519152604482015290519081900360640190fd5b600c805461ff00191661010017905560125460ff16158015613561575060105443115b156135d357601654600e5460408051600160e51b6307e4a1c90281526001600160a01b0392831660048201529051919092169163fc94392091602480830192600092919082900301818387803b1580156135ba57600080fd5b505af11580156135ce573d6000803e3d6000fd5b505050505b60125460ff1661361b5760408051600160e51b62461bcd0281526020600482015260116024820152600080516020618be6833981519152604482015290519081900360640190fd5b600080805b6013548110156136ce57600e54601380546001600160a01b03909216918390811061364757fe5b6000918252602090912001546001600160a01b031614156136785784848281811061366e57fe5b9050602002013592505b600f54601380546001600160a01b03909216918390811061369557fe5b6000918252602090912001546001600160a01b031614156136c6578484828181106136bc57fe5b9050602002013591505b600101613620565b50601654600e54600f5460408051600160e01b6324571dd70281526001600160a01b039384166004820152918316602483015260448201869052606482018590523360848301525160009392909216916324571dd79160a480820192602092909190829003018186803b15801561374457600080fd5b505afa158015613758573d6000803e3d6000fd5b505050506040513d602081101561376e57600080fd5b505190506001811515146137ba5760408051600160e51b62461bcd0281526020600482015260186024820152600080516020618c26833981519152604482015290519081900360640190fd5b60006137c4612036565b905060006137d28883617fa5565b9050806138175760408051600160e51b62461bcd02815260206004820152600f6024820152600080516020618d06833981519152604482015290519081900360640190fd5b60005b6013548110156139945760006013828154811061383357fe5b60009182526020808320909101546001600160a01b031680835260149091526040822060030154909250906138688583617cb3565b9050806138ad5760408051600160e51b62461bcd02815260206004820152600f6024820152600080516020618d06833981519152604482015290519081900360640190fd5b8a8a858181106138b957fe5b905060200201358111156139095760408051600160e51b62461bcd02815260206004820152600c6024820152600160a11b6b22a9292fa624a6a4aa2fa4a702604482015290519081900360640190fd5b6001600160a01b03831660009081526014602052604090206003015461392f90826180cd565b6001600160a01b0384166000818152601460209081526040918290206003019390935580518481524293810193909352805191923392600080516020618ca6833981519152929181900390910190a361398983338361836b565b50505060010161381a565b5061399e886183c7565b6139a83389617e13565b5050600c805461ff0019169055505050505050565b6000806139ca8487617fa5565b905060006139d88685617d88565b905060006139e68783617fa5565b905060006139f4828561812a565b9050613a0881670de0b6b3a7640000617d88565b90506000600154600054600254010190506000613a2f670de0b6b3a7640000600254617d88565b9050613a44613a3e8d85617cb3565b82617fa5565b9c9b505050505050505050505050565b600080613a618786617fa5565b90506000613a6f87866180cd565b90506000613a7d8289617fa5565b90506000613a93670de0b6b3a764000085617fa5565b90506000613aa1838361812a565b90506000613aaf828e617cb3565b90506000613abd828f617d88565b90506000613adc613ad6670de0b6b3a76400008a617d88565b8b617cb3565b9050613af482611e99670de0b6b3a764000084617d88565b9f9e505050505050505050505050505050565b600080613b148686617fa5565b90506000613b228585617fa5565b90506000613b308383617fa5565b905060008054600154600254010190506000613b60670de0b6b3a7640000611e99670de0b6b3a764000085617d88565b9050613b6c8382617cb3565b9a9950505050505050505050565b6000336001600160a01b03166000356001600160e01b0319166001600160e01b031916600080516020618c668339815191524260003660405180848152602001806020018281038252848482818152602001925080828437600083820152604051601f909101601f1916909201829003965090945050505050a3600c54610100900460ff1615613c425760408051600160e51b62461bcd02815260206004820152600b6024820152600080516020618c06833981519152604482015290519081900360640190fd5b600c805461ff00191661010017905560125460ff16158015613c65575060105443115b15613cd757601654600e5460408051600160e51b6307e4a1c90281526001600160a01b0392831660048201529051919092169163fc94392091602480830192600092919082900301818387803b158015613cbe57600080fd5b505af1158015613cd2573d6000803e3d6000fd5b505050505b60125460ff16613d1f5760408051600160e51b62461bcd0281526020600482015260116024820152600080516020618be6833981519152604482015290519081900360640190fd5b6001600160a01b03841660009081526014602052604090205460ff16613d7d5760408051600160e51b62461bcd02815260206004820152600d6024820152600080516020618cc6833981519152604482015290519081900360640190fd5b6001600160a01b038416600090815260146020526040902060030154613daf906002670de0b6b3a76400005b04617cb3565b831115613dfc5760408051600160e51b62461bcd0281526020600482015260106024820152600160801b6f4552525f4d41585f494e5f524154494f02604482015290519081900360640190fd5b600e546001600160a01b03908116600081815260146020526040812090929091839188161415613ed05750600f54601654600e5460408051600160e01b6324571dd70281526001600160a01b03928316600482015293821660248501819052604485018a9052600060648601523360848601529051909392909116916324571dd79160a4808301926020929190829003018186803b158015613e9d57600080fd5b505afa158015613eb1573d6000803e3d6000fd5b505050506040513d6020811015613ec757600080fd5b50519250613f88565b5050600f546001600160a01b039081166000818152601460209081526040808320600e546016548351600160e01b6324571dd70281529188166004830181905260248301979097526044820195909552606481018b90523360848201529151909593909316926324571dd79260a480840193919291829003018186803b158015613f5957600080fd5b505afa158015613f6d573d6000803e3d6000fd5b505050506040513d6020811015613f8357600080fd5b505192505b600183151514613fd05760408051600160e51b62461bcd0281526020600482015260186024820152600080516020618c26833981519152604482015290519081900360640190fd5b6001600160a01b03871660009081526014602052604090206003810154600282015460095460155460115461400a94939291908c90615ebc565b9450858510156140575760408051600160e51b62461bcd02815260206004820152600d60248201526001609a1b6c11549497d31253525517d3d55502604482015290519081900360640190fd5b6140658160030154886180cd565b60038201556040805188815242602082015281516001600160a01b038b16923392600080516020618ca6833981519152929081900390910190a36140a8856183c7565b6140b23386617e13565b6140db604051806040016040528060058152602001600160d91b643a32b9ba1902815250617efc565b6140e4886183d0565b6140ed336183d0565b6140f68761841f565b61410188338961836b565b600061411f846003015485600201546009546015548a601154613a54565b601654600e5460408051600160e01b6326b1f01f0281526001600160a01b03928316600482015287831660248201526044810185905290519394509116916326b1f01f91606480820192602092909190829003018186803b15801561418357600080fd5b505afa158015614197573d6000803e3d6000fd5b505050506040513d60208110156141ad57600080fd5b50511515600114156142b457601654600e5460408051600160e01b6399039fcf0281526001600160a01b039283166004820152868316602482015260448101859052905191909216916399039fcf91606480830192600092919082900301818387803b15801561421c57600080fd5b505af1158015614230573d6000803e3d6000fd5b505050506142428460030154826180cd565b6003850155600d546040805183815242602082015281516001600160a01b03808816941692600080516020618ca6833981519152928290030190a3614286866183c7565b600d5461429c906001600160a01b031687617e13565b600d546142b49084906001600160a01b03168361836b565b5050505050600c805461ff00191690559392505050565b3360009081526008602090815260408083206001600160a01b038616845290915281205480831115614320573360009081526008602090815260408083206001600160a01b038816845290915281205561434f565b61432a8184617d88565b3360009081526008602090815260408083206001600160a01b03891684529091529020555b3360008181526008602090815260408083206001600160a01b038916808552908352928190205481519081529051929392600080516020618ce6833981519152929181900390910190a35060019392505050565b6001600160a01b03821660009081526014602052604081205460ff1615156001146143d057506000611a1b565b6001600160a01b03831660009081526014602052604090206003810154600290910154600954601554601154611a1894939291908790615dfd565b6001600160a01b03821660009081526014602052604081205460ff16151560011461443857506000611a1b565b6001600160a01b03821660009081526014602052604090205460ff16151560011461446557506000611a1b565b6001600160a01b0380841660009081526014602052604080822060038082015460029283015495881685529290932092830154920154611a1893919290613b07565b6000806144b48685617fa5565b905060006144c286856180cd565b905060006144d08288617fa5565b905060006144e6670de0b6b3a764000085617fa5565b905060006144f4838361812a565b90506000614502828d617cb3565b90506000614510828e617d88565b90506000614531614529670de0b6b3a76400008a617d88565b600254617cb3565b9050611ece82611e99670de0b6b3a764000084617d88565b6000336001600160a01b03166000356001600160e01b0319166001600160e01b031916600080516020618c668339815191524260003660405180848152602001806020018281038252848482818152602001925080828437600083820152604051601f909101601f1916909201829003965090945050505050a3600c54610100900460ff16156146115760408051600160e51b62461bcd02815260206004820152600b6024820152600080516020618c06833981519152604482015290519081900360640190fd5b600c805461ff00191661010017905560125460ff16158015614634575060105443115b156146a657601654600e5460408051600160e51b6307e4a1c90281526001600160a01b0392831660048201529051919092169163fc94392091602480830192600092919082900301818387803b15801561468d57600080fd5b505af11580156146a1573d6000803e3d6000fd5b505050505b60125460ff166146ee5760408051600160e51b62461bcd0281526020600482015260116024820152600080516020618be6833981519152604482015290519081900360640190fd5b6001600160a01b03841660009081526014602052604090205460ff1661474c5760408051600160e51b62461bcd02815260206004820152600d6024820152600080516020618cc6833981519152604482015290519081900360640190fd5b6001600160a01b03841660009081526014602052604090206003810154600282015460095460155460115461478694939291908990613a54565b600e546001600160a01b03908116600081815260146020526040812093955092918391908916141561485c5750600f54601654600e5460408051600160e01b6324571dd70281526001600160a01b0392831660048201529382166024850181905260448501899052600060648601523360848601529051909392909116916324571dd79160a4808301926020929190829003018186803b15801561482957600080fd5b505afa15801561483d573d6000803e3d6000fd5b505050506040513d602081101561485357600080fd5b50519250614914565b5050600f546001600160a01b039081166000818152601460209081526040808320600e546016548351600160e01b6324571dd70281529188166004830181905260248301979097526044820195909552606481018a90523360848201529151909593909316926324571dd79260a480840193919291829003018186803b1580156148e557600080fd5b505afa1580156148f9573d6000803e3d6000fd5b505050506040513d602081101561490f57600080fd5b505192505b60018315151461495c5760408051600160e51b62461bcd0281526020600482015260186024820152600080516020618c26833981519152604482015290519081900360640190fd5b8461499f5760408051600160e51b62461bcd02815260206004820152600f6024820152600080516020618d06833981519152604482015290519081900360640190fd5b858511156149e95760408051600160e51b62461bcd02815260206004820152600c6024820152600160a11b6b22a9292fa624a6a4aa2fa4a702604482015290519081900360640190fd5b6001600160a01b038816600090815260146020526040902060030154614a19906002670de0b6b3a7640000613da9565b851115614a665760408051600160e51b62461bcd0281526020600482015260106024820152600160801b6f4552525f4d41585f494e5f524154494f02604482015290519081900360640190fd5b614a748460030154866180cd565b60038501556040805186815242602082015281516001600160a01b038b16923392600080516020618ca6833981519152929081900390910190a3614ab7876183c7565b614ac13388617e13565b614acc88338761836b565b6000614aea836003015484600201546009546015548c601154613a54565b601654600e5460408051600160e01b6326b1f01f0281526001600160a01b03928316600482015286831660248201526044810185905290519394509116916326b1f01f91606480820192602092909190829003018186803b158015614b4e57600080fd5b505afa158015614b62573d6000803e3d6000fd5b505050506040513d6020811015614b7857600080fd5b50511515600114156142b457601654600e5460408051600160e01b6399039fcf0281526001600160a01b039283166004820152858316602482015260448101859052905191909216916399039fcf91606480830192600092919082900301818387803b158015614be757600080fd5b505af1158015614bfb573d6000803e3d6000fd5b50505050614c0d8360030154826180cd565b6003840155600d546040805183815242602082015281516001600160a01b03808716941692600080516020618ca6833981519152928290030190a3614c51886183c7565b600d54614c67906001600160a01b031689617e13565b600d546142b49083906001600160a01b03168361836b565b6001600160a01b031660009081526007602052604090205490565b620f4240670de0b6b3a764000061204c565b600080336001600160a01b03166000356001600160e01b0319166001600160e01b031916600080516020618c668339815191524260003660405180848152602001806020018281038252848482818152602001925080828437600083820152604051601f909101601f1916909201829003965090945050505050a3600c54610100900460ff1615614d755760408051600160e51b62461bcd02815260206004820152600b6024820152600080516020618c06833981519152604482015290519081900360640190fd5b600c805461ff001916610100179055601054431161509d57601654600e5460408051600160e01b63bee3913d0281526001600160a01b0392831660048201528a831660248201528883166044820152606481018890529051919092169163bee3913d916084808301926020929190829003018186803b158015614df757600080fd5b505afa158015614e0b573d6000803e3d6000fd5b505050506040513d6020811015614e2157600080fd5b5051915085821115614e6f5760408051600160e51b62461bcd02815260206004820152600c6024820152600160a11b6b22a9292fa624a6a4aa2fa4a702604482015290519081900360640190fd5b6000879050614ea283604051806040016040528060098152602001600160ba1b68185b5bdd5b9d13dd5d02815250618463565b60408051600160e01b6323b872dd0281523360048201523060248201526044810185905290516001600160a01b038316916323b872dd9160648083019260209291908290030181600087803b158015614efa57600080fd5b505af1158015614f0e573d6000803e3d6000fd5b505050506040513d6020811015614f2457600080fd5b5050600d5460408051600160e01b63095ea7b30281526001600160a01b0392831660048201526024810186905290519183169163095ea7b3916044808201926020929091908290030181600087803b158015614f7f57600080fd5b505af1158015614f93573d6000803e3d6000fd5b505050506040513d6020811015614fa957600080fd5b5050601654600e5460408051600160e01b6330c157010281526001600160a01b0392831660048201523360248201528b8316604482015260648101879052898316608482015260a48101899052905191909216916330c157019160c48083019260209291908290030181600087803b15801561502457600080fd5b505af1158015615038573d6000803e3d6000fd5b505050506040513d602081101561504e57600080fd5b50506040805184815260208101879052428183015290516001600160a01b0380891692908b16913391600080516020618d26833981519152919081900360600190a45083915060009050615529565b60125460ff161580156150b1575060105443115b1561512357601654600e5460408051600160e51b6307e4a1c90281526001600160a01b0392831660048201529051919092169163fc94392091602480830192600092919082900301818387803b15801561510a57600080fd5b505af115801561511e573d6000803e3d6000fd5b505050505b6001600160a01b03871660009081526014602052604090205460ff166151815760408051600160e51b62461bcd02815260206004820152600d6024820152600080516020618cc6833981519152604482015290519081900360640190fd5b6001600160a01b03851660009081526014602052604090205460ff166151df5760408051600160e51b62461bcd02815260206004820152600d6024820152600080516020618cc6833981519152604482015290519081900360640190fd5b600d54600160a01b900460ff166152405760408051600160e51b62461bcd02815260206004820152601360248201527f4552525f535741505f4e4f545f5055424c494300000000000000000000000000604482015290519081900360640190fd5b6001600160a01b038088166000908152601460205260408082209288168252902060038082015461527991670de0b6b3a7640000611429565b8611156152c75760408051600160e51b62461bcd0281526020600482015260116024820152600160781b704552525f4d41585f4f55545f524154494f02604482015290519081900360640190fd5b60006152e58360030154846002015484600301548560020154613b07565b90508581111561533f5760408051600160e51b62461bcd02815260206004820152601360248201527f4552525f4241445f4c494d49545f505249434500000000000000000000000000604482015290519081900360640190fd5b61535c83600301548460020154846003015485600201548b6139bd565b9450888511156153a85760408051600160e51b62461bcd02815260206004820152600c6024820152600160a11b6b22a9292fa624a6a4aa2fa4a702604482015290519081900360640190fd5b6153b68360030154866180cd565b83600301819055506153cc826003015488617d88565b6003808401829055840154600280860154908501546153eb9390613b07565b9350808410156154335760408051600160e51b62461bcd02815260206004820152600f6024820152600080516020618d06833981519152604482015290519081900360640190fd5b858411156154805760408051600160e51b62461bcd02815260206004820152600f6024820152600160881b6e4552525f4c494d49545f505249434502604482015290519081900360640190fd5b61548a8588617fa5565b8111156154cf5760408051600160e51b62461bcd02815260206004820152600f6024820152600080516020618d06833981519152604482015290519081900360640190fd5b6040805186815260208101899052428183015290516001600160a01b03808b1692908d16913391600080516020618d26833981519152919081900360600190a461551a8a338761836b565b615525883389617e1d565b5050505b600c805461ff001916905590969095509350505050565b60046020526000908152604090205481565b600080336001600160a01b03166000356001600160e01b0319166001600160e01b031916600080516020618c668339815191524260003660405180848152602001806020018281038252848482818152602001925080828437600083820152604051601f909101601f1916909201829003965090945050505050a36040805180820190915260098152600160ba1b68199a5b985b1a5e9959026020820152601254601054615606929160ff16904390618514565b60105443116158ed57601654600e5460408051600160e01b6392f6cb670281526001600160a01b0392831660048201528a831660248201528883166044820152606481018a9052905191909216916392f6cb67916084808301926020929190829003018186803b15801561567957600080fd5b505afa15801561568d573d6000803e3d6000fd5b505050506040513d60208110156156a357600080fd5b50519150838210156156f25760408051600160e51b62461bcd02815260206004820152600d60248201526001609a1b6c11549497d31253525517d3d55502604482015290519081900360640190fd5b60408051600160e01b6323b872dd02815233600482015230602482015260448101889052905188916001600160a01b038316916323b872dd916064808201926020929091908290030181600087803b15801561574d57600080fd5b505af1158015615761573d6000803e3d6000fd5b505050506040513d602081101561577757600080fd5b5050600d5460408051600160e01b63095ea7b30281526001600160a01b039283166004820152602481018a905290519183169163095ea7b3916044808201926020929091908290030181600087803b1580156157d257600080fd5b505af11580156157e6573d6000803e3d6000fd5b505050506040513d60208110156157fc57600080fd5b5050601654600e5460408051600160e01b633e6d363f0281526001600160a01b0392831660048201523360248201528b83166044820152606481018b9052898316608482015260a4810189905290519190921691633e6d363f9160c48083019260209291908290030181600087803b15801561587757600080fd5b505af115801561588b573d6000803e3d6000fd5b505050506040513d60208110156158a157600080fd5b50506040805188815260208101859052428183015290516001600160a01b0380891692908b16913391600080516020618d26833981519152919081900360600190a45060009050615df3565b60125460ff16158015615901575060105443115b1561599f57615932604051806040016040528060088152602001600160c01b6766696e616c697a6502815250617efc565b601654600e5460408051600160e51b6307e4a1c90281526001600160a01b0392831660048201529051919092169163fc94392091602480830192600092919082900301818387803b15801561598657600080fd5b505af115801561599a573d6000803e3d6000fd5b505050505b6001600160a01b03871660009081526014602052604090205460ff166159fd5760408051600160e51b62461bcd02815260206004820152600d6024820152600080516020618cc6833981519152604482015290519081900360640190fd5b6001600160a01b03851660009081526014602052604090205460ff16615a5b5760408051600160e51b62461bcd02815260206004820152600d6024820152600080516020618cc6833981519152604482015290519081900360640190fd5b600d54600160a01b900460ff16615abc5760408051600160e51b62461bcd02815260206004820152601360248201527f4552525f535741505f4e4f545f5055424c494300000000000000000000000000604482015290519081900360640190fd5b6001600160a01b03808816600090815260146020526040808220928816825290206003820154615af6906002670de0b6b3a7640000613da9565b881115615b435760408051600160e51b62461bcd0281526020600482015260106024820152600160801b6f4552525f4d41585f494e5f524154494f02604482015290519081900360640190fd5b6000615b618360030154846002015484600301548560020154613b07565b905085811115615bbb5760408051600160e51b62461bcd02815260206004820152601360248201527f4552525f4241445f4c494d49545f505249434500000000000000000000000000604482015290519081900360640190fd5b615bd983600301548460020154846003015485600201548d8f6185d9565b945086851015615c265760408051600160e51b62461bcd02815260206004820152600d60248201526001609a1b6c11549497d31253525517d3d55502604482015290519081900360640190fd5b615c3483600301548a6180cd565b8360030181905550615c4a826003015486617d88565b600380840182905584015460028086015490850154615c699390613b07565b9350615c9b6040518060400160405280600a8152602001600160b01b6973706f7450726963657302815250858361871d565b80841015615ce15760408051600160e51b62461bcd02815260206004820152600f6024820152600080516020618d06833981519152604482015290519081900360640190fd5b85841115615d2e5760408051600160e51b62461bcd02815260206004820152600f6024820152600160881b6e4552525f4c494d49545f505249434502604482015290519081900360640190fd5b615d3889866187d6565b615d4a615d458a87617fa5565b61841f565b615d548986617fa5565b811115615d995760408051600160e51b62461bcd02815260206004820152600f6024820152600080516020618d06833981519152604482015290519081900360640190fd5b604080518a815260208101879052428183015290516001600160a01b03808b1692908d16913391600080516020618d26833981519152919081900360600190a4615de48a338b61836b565b615def883387617e1d565b5050505b9550959350505050565b600080615e0a8786617fa5565b90506000615e20670de0b6b3a764000083617d88565b90506000615e2e8286617cb3565b90506000615e4887611e99670de0b6b3a764000085617d88565b90506000615e568c83617d88565b90506000615e64828e617fa5565b90506000615e72828861812a565b90506000615e80828e617cb3565b90506000615e8e8e83617d88565b9050615ea781611e99670de0b6b3a76400006000617d88565b99505050505050505050509695505050505050565b600080615ec98786617fa5565b90506000615ee8615ee2670de0b6b3a764000084617d88565b85617cb3565b90506000615f0286611e61670de0b6b3a764000085617d88565b90506000615f108b836180cd565b90506000615f1e828d617fa5565b90506000615f2c828761812a565b90506000615f3a828d617cb3565b9050611ece818d617d88565b64e8d4a51000670de0b6b3a764000061204c565b600080615f678786617fa5565b90506000615f8285611e61670de0b6b3a76400006000617d88565b90506000615f908883617d88565b90506000615f9e828a617fa5565b90506000615fbd82615fb8670de0b6b3a764000088617fa5565b61812a565b90506000615fcb828e617cb3565b90506000615fd98e83617d88565b90506000615ff2613ad6670de0b6b3a76400008a617d88565b9050613af482611e61670de0b6b3a764000084617d88565b336001600160a01b03166000356001600160e01b0319166001600160e01b031916600080516020618c668339815191524260003660405180848152602001806020018281038252848482818152602001925080828437600083820152604051601f909101601f1916909201829003965090945050505050a3600c54610100900460ff16156160d05760408051600160e51b62461bcd02815260206004820152600b6024820152600080516020618c06833981519152604482015290519081900360640190fd5b600c805461ff0019166101001790556001600160a01b03811660009081526014602052604090205460ff1661613d5760408051600160e51b62461bcd02815260206004820152600d6024820152600080516020618cc6833981519152604482015290519081900360640190fd5b60408051600160e01b6370a0823102815230600482015290516001600160a01b038316916370a08231916024808301926020929190829003018186803b15801561618657600080fd5b505afa15801561619a573d6000803e3d6000fd5b505050506040513d60208110156161b057600080fd5b50516001600160a01b03909116600090815260146020526040902060030155600c805461ff0019169055565b6001600160a01b03821660009081526014602052604081205460ff16151560011461620957506000611a1b565b6001600160a01b03831660009081526014602052604090206003810154600290910154600954601554601154611a1894939291908790615f5a565b60125460ff1690565b336001600160a01b03166000356001600160e01b0319166001600160e01b031916600080516020618c668339815191524260003660405180848152602001806020018281038252848482818152602001925080828437600083820152604051601f909101601f1916909201829003965090945050505050a3600c54610100900460ff16156163135760408051600160e51b62461bcd02815260206004820152600b6024820152600080516020618c06833981519152604482015290519081900360640190fd5b600c805461ff0019166101001790556001600160a01b0381166163805760408051600160e51b62461bcd02815260206004820152601b60248201527f4552525f494e56414c49445f4d414e414745525f414444524553530000000000604482015290519081900360640190fd5b600d546001600160a01b031633146163d05760408051600160e51b62461bcd0281526020600482015260126024820152600080516020618c86833981519152604482015290519081900360640190fd5b600d80546001600160a01b0319166001600160a01b0392909216919091179055600c805461ff0019169055565b600c54600090610100900460ff161561644e5760408051600160e51b62461bcd02815260206004820152600b6024820152600080516020618c06833981519152604482015290519081900360640190fd5b5060155490565b68056bc75e2d6310000081565b600c54600090610100900460ff16156164b35760408051600160e51b62461bcd02815260206004820152600b6024820152600080516020618c06833981519152604482015290519081900360640190fd5b6001600160a01b03821660009081526014602052604090205460ff166165115760408051600160e51b62461bcd02815260206004820152600d6024820152600080516020618cc6833981519152604482015290519081900360640190fd5b506001600160a01b031660009081526014602052604090206002015490565b600b8054604080516020601f6002600019610100600188161502019095169490940493840181900481028201810190925282815260609390929091830182828015611b0e5780601f10611ae357610100808354040283529160200191611b0e565b6704a03ce68d21555681565b6000806165aa8685617fa5565b905060006165c0670de0b6b3a764000083617d88565b905060006165d082600254617cb3565b905060006165ea86611e99670de0b6b3a764000085617d88565b905060006165f88b83617d88565b90506000616606828d617fa5565b90506000616614828861812a565b90506000616622828d617cb3565b905060006166308d83617d88565b9050613af481611e99670de0b6b3a76400006000617d88565b600061665633848461824d565b50600192915050565b336001600160a01b03166000356001600160e01b0319166001600160e01b031916600080516020618c668339815191524260003660405180848152602001806020018281038252848482818152602001925080828437600083820152604051601f909101601f1916909201829003965090945050505050a3600c54610100900460ff16156167255760408051600160e51b62461bcd02815260206004820152600b6024820152600080516020618c06833981519152604482015290519081900360640190fd5b600c805461ff00191661010017905560125460ff16158015616748575060105443115b156167ba57601654600e5460408051600160e51b6307e4a1c90281526001600160a01b0392831660048201529051919092169163fc94392091602480830192600092919082900301818387803b1580156167a157600080fd5b505af11580156167b5573d6000803e3d6000fd5b505050505b60125460ff166168025760408051600160e51b62461bcd0281526020600482015260116024820152600080516020618be6833981519152604482015290519081900360640190fd5b600080805b6013548110156168b557600e54601380546001600160a01b03909216918390811061682e57fe5b6000918252602090912001546001600160a01b0316141561685f5784848281811061685557fe5b9050602002013592505b600f54601380546001600160a01b03909216918390811061687c57fe5b6000918252602090912001546001600160a01b031614156168ad578484828181106168a357fe5b9050602002013591505b600101616807565b50601654600e54600f5460408051600160e01b637eaf89010281526001600160a01b03938416600482015291831660248301526044820186905260648201859052336084830152516000939290921691637eaf89019160a480820192602092909190829003018186803b15801561692b57600080fd5b505afa15801561693f573d6000803e3d6000fd5b505050506040513d602081101561695557600080fd5b505190506001811515146169a15760408051600160e51b62461bcd0281526020600482015260186024820152600080516020618c26833981519152604482015290519081900360640190fd5b60006169ab612036565b905060006169ba886000617cb3565b905060006169c88983617d88565b905060006169d68285617fa5565b905080616a1b5760408051600160e51b62461bcd02815260206004820152600f6024820152600080516020618d06833981519152604482015290519081900360640190fd5b616a25338b617df9565b600c54616a41906201000090046001600160a01b031684617e13565b616a4a82617e07565b60005b601354811015616bc857600060138281548110616a6657fe5b60009182526020808320909101546001600160a01b03168083526014909152604082206003015490925090616a9b8583617cb3565b905080616ae05760408051600160e51b62461bcd02815260206004820152600f6024820152600080516020618d06833981519152604482015290519081900360640190fd5b8c8c85818110616aec57fe5b90506020020135811015616b3d5760408051600160e51b62461bcd02815260206004820152600d60248201526001609a1b6c11549497d31253525517d3d55502604482015290519081900360640190fd5b6001600160a01b038316600090815260146020526040902060030154616b639082617d88565b6001600160a01b0384166000818152601460209081526040918290206003019390935580518481524293810193909352805191923392600080516020618c46833981519152929181900390910190a3616bbd833383617e1d565b505050600101616a4d565b5050600c805461ff0019169055505050505050505050565b600881565b600080616bf28685617fa5565b90506000616c0b614529670de0b6b3a764000084617d88565b90506000616c2585611e61670de0b6b3a764000085617d88565b90506000616c338a836180cd565b90506000616c41828c617fa5565b90506000616c4f828761812a565b90506000616c5d828c617cb3565b9050616c69818c617d88565b9d9c50505050505050505050505050565b600281565b60005481565b6001600160a01b03821660009081526014602052604081205460ff161515600114616cb257506000611a1b565b6001600160a01b03831660009081526014602052604090206003810154600290910154600954601554601154611a1894939291908790613a54565b600181565b600080616cff8786617fa5565b90506000616d15670de0b6b3a764000085617d88565b9050616d218582617cb3565b90506000616d338a611e998c856180cd565b90506000616d41828561812a565b90506000616d57670de0b6b3a764000083617d88565b9050613a448a82617cb3565b600a670de0b6b3a764000061204c565b671bc16d674ec7ffff81565b600c54606090610100900460ff1615616dd05760408051600160e51b62461bcd02815260206004820152600b6024820152600080516020618c06833981519152604482015290519081900360640190fd5b60125460ff16616e185760408051600160e51b62461bcd0281526020600482015260116024820152600080516020618be6833981519152604482015290519081900360640190fd5b6013805480602002602001604051908101604052809291908181526020018280548015611b0e57602002820191906000526020600020905b81546001600160a01b03168152600190910190602001808311616e50575050505050905090565b601654600090600160a01b900460ff1615616edc5760408051600160e51b62461bcd02815260206004820152601760248201527f4552525f414c52454144595f494e495449414c495a4544000000000000000000604482015290519081900360640190fd5b6001600160a01b038a16616f3a5760408051600160e51b62461bcd02815260206004820152601e60248201527f4552525f494e56414c49445f434f4e54524f4c4c45525f414444524553530000604482015290519081900360640190fd5b6001600160a01b038916616f985760408051600160e51b62461bcd02815260206004820152601b60248201527f4552525f494e56414c49445f464143544f52595f414444524553530000000000604482015290519081900360640190fd5b64e8d4a51000881015616fe65760408051600160e51b62461bcd02815260206004820152600b6024820152600160a81b6a4552525f4d494e5f46454502604482015290519081900360640190fd5b67016345785d8a00008811156170375760408051600160e51b62461bcd02815260206004820152600b6024820152600160a81b6a4552525f4d41585f46454502604482015290519081900360640190fd5b613b6c8a8a8a8a8a8a8a8a8a618820565b600081565b6001600160a01b03831660009081526014602052604081205460ff16151560011461707a575060006121bb565b6001600160a01b03831660009081526014602052604090205460ff1615156001146170a7575060006121bb565b6001600160a01b03808516600090815260146020526040808220600380820154600292830154958916855292909320928301549201546011546170ef94929391908790616cf2565b949350505050565b600c54606090610100900460ff1615616e185760408051600160e51b62461bcd02815260206004820152600b6024820152600080516020618c06833981519152604482015290519081900360640190fd5b60135490565b336001600160a01b03166000356001600160e01b0319166001600160e01b031916600080516020618c668339815191524260003660405180848152602001806020018281038252848482818152602001925080828437600083820152604051601f909101601f1916909201829003965090945050505050a3600c54610100900460ff16156172145760408051600160e51b62461bcd02815260206004820152600b6024820152600080516020618c06833981519152604482015290519081900360640190fd5b600c805461ff001916610100179055600d54336001600160a01b03909116146172755760408051600160e51b62461bcd0281526020600482015260126024820152600080516020618c86833981519152604482015290519081900360640190fd5b6001600160a01b03811660009081526014602052604090205460ff166172d35760408051600160e51b62461bcd02815260206004820152600d6024820152600080516020618cc6833981519152604482015290519081900360640190fd5b60125460ff16156173245760408051600160e51b62461bcd0281526020600482015260106024820152600160821b6f11549497d254d7d1925390531256915102604482015290519081900360640190fd5b6001600160a01b0381166000908152601460205260408120600301549061734b8282617cb3565b6015546001600160a01b03851660009081526014602052604090206002015491925061737691617d88565b6015556001600160a01b0383166000908152601460205260409020600101546013805460001981019190829081106173aa57fe5b600091825260209091200154601380546001600160a01b0390921691849081106173d057fe5b9060005260206000200160006101000a8154816001600160a01b0302191690836001600160a01b0316021790555081601460006013858154811061741057fe5b60009182526020808320909101546001600160a01b03168352820192909252604001902060010155601380548061744357fe5b60008281526020808220600019908401810180546001600160a01b031916905590920190925560408051608081018252838152808301848152818301858152606083018681526001600160a01b038c1687526014909552929094209051815460ff191690151517815592516001840155516002830155516003909101556174cf85336128d68787617d88565b600c546128fc9086906201000090046001600160a01b031685617e1d565b600c54600090610100900460ff161561753e5760408051600160e51b62461bcd02815260206004820152600b6024820152600080516020618c06833981519152604482015290519081900360640190fd5b5060115490565b6000806175528487617fa5565b905060006175608685617d88565b9050600061756e8783617fa5565b9050600061757c828561812a565b905061759081670de0b6b3a7640000617d88565b90506000600154600054600254010190506175b3670de0b6b3a764000082617d88565b95506175c86175c28c84617cb3565b87617fa5565b9b9a5050505050505050505050565b3360009081526008602090815260408083206001600160a01b038616845290915281205461760590836180cd565b3360008181526008602090815260408083206001600160a01b038916808552908352928190208590558051948552519193600080516020618ce6833981519152929081900390910190a350600192915050565b6001600160a01b03918216600090815260086020908152604080832093909416825291909152205490565b336001600160a01b03166000356001600160e01b0319166001600160e01b031916600080516020618c668339815191524260003660405180848152602001806020018281038252848482818152602001925080828437600083820152604051601f909101601f1916909201829003965090945050505050a3600d546001600160a01b0316331461774b5760408051600160e51b62461bcd0281526020600482015260126024820152600080516020618c86833981519152604482015290519081900360640190fd5b6001600160a01b03831660009081526014602052604090205460ff16156177bc5760408051600160e51b62461bcd02815260206004820152600c60248201527f4552525f49535f424f554e440000000000000000000000000000000000000000604482015290519081900360640190fd5b60125460ff161561780d5760408051600160e51b62461bcd0281526020600482015260106024820152600160821b6f11549497d254d7d1925390531256915102604482015290519081900360640190fd5b6013546008116178675760408051600160e51b62461bcd02815260206004820152600e60248201527f4552525f4d41585f544f4b454e53000000000000000000000000000000000000604482015290519081900360640190fd5b6040805160808101825260018082526013805460208085019182526000858701818152606087018281526001600160a01b038c1680845260149094529782209651875460ff1916901515178755925186860155915160028601559451600390940193909355805491820181559091527f66de8ffda797e3de9c05e8fc57b3bf0ec28a930d40b0d285d93c06501cf6a0900180546001600160a01b03191690911790556179148383836124a3565b505050565b6002670de0b6b3a764000061204c565b6000806179368685617fa5565b9050600061795184611e61670de0b6b3a76400006000617d88565b9050600061795f8783617d88565b9050600061796d8289617fa5565b9050600061798782615fb8670de0b6b3a764000088617fa5565b90506000617995828d617cb3565b905060006179a38d83617d88565b905060006179bc614529670de0b6b3a76400008a617d88565b9050611ece82611e61670de0b6b3a764000084617d88565b600c54600090610100900460ff1615617a255760408051600160e51b62461bcd02815260206004820152600b6024820152600080516020618c06833981519152604482015290519081900360640190fd5b6001600160a01b03821660009081526014602052604090205460ff16617a835760408051600160e51b62461bcd02815260206004820152600d6024820152600080516020618cc6833981519152604482015290519081900360640190fd5b6001600160a01b0382166000908152601460205260409020600201546015546121bb908290617fa5565b6001600160a01b03831660009081526014602052604081205460ff161515600114617ada575060006121bb565b6001600160a01b03831660009081526014602052604090205460ff161515600114617b07575060006121bb565b6001600160a01b03808516600090815260146020526040808220600380820154600292830154958916855292909320928301549201546011546170ef94929391908790617c2f565b60066020526000908152604090205481565b600c54600090610100900460ff1615617bb25760408051600160e51b62461bcd02815260206004820152600b6024820152600080516020618c06833981519152604482015290519081900360640190fd5b6001600160a01b03821660009081526014602052604090205460ff16617c105760408051600160e51b62461bcd02815260206004820152600d6024820152600080516020618cc6833981519152604482015290519081900360640190fd5b506001600160a01b031660009081526014602052604090206003015490565b600080617c3c8588617fa5565b90506000617c4a8786617d88565b90506000617c588883617fa5565b90506000617c66828561812a565b9050617c7a81670de0b6b3a7640000617d88565b9050617c8e670de0b6b3a764000087617d88565b94506175c8617c9d8c83617cb3565b86617fa5565b600d54600160a01b900460ff1690565b6000828202831580617ccd575082848281617cca57fe5b04145b617d175760408051600160e51b62461bcd0281526020600482015260106024820152600160801b6f4552525f4d554c5f4f564552464c4f5702604482015290519081900360640190fd5b6706f05b59d3b20000810181811015617d705760408051600160e51b62461bcd0281526020600482015260106024820152600160801b6f4552525f4d554c5f4f564552464c4f5702604482015290519081900360640190fd5b6000670de0b6b3a7640000825b049695505050505050565b6000806000617d9785856188d9565b915091508015617df15760408051600160e51b62461bcd02815260206004820152601160248201527f4552525f5355425f554e444552464c4f57000000000000000000000000000000604482015290519081900360640190fd5b509392505050565b617e0382826188fe565b5050565b617e1081618909565b50565b617e0382826189e5565b60408051600160e01b63a9059cbb0281526001600160a01b03848116600483015260248201849052915160009286169163a9059cbb91604480830192602092919082900301818787803b158015617e7357600080fd5b505af1158015617e87573d6000803e3d6000fd5b505050506040513d6020811015617e9d57600080fd5b5051905080617ef65760408051600160e51b62461bcd02815260206004820152600f60248201527f4552525f45524332305f46414c53450000000000000000000000000000000000604482015290519081900360640190fd5b50505050565b617e10816040516024018080602001828103825283818151815260200191508051906020019080838360005b83811015617f40578181015183820152602001617f28565b50505050905090810190601f168015617f6d5780820380516001836020036101000a031916815260200191505b5060408051601f198184030181529190526020810180516001600160e01b0316600160e21b63104c13eb0217905292506189f0915050565b600081617ffc5760408051600160e51b62461bcd02815260206004820152600c60248201527f4552525f4449565f5a45524f0000000000000000000000000000000000000000604482015290519081900360640190fd5b670de0b6b3a764000083028315806180245750670de0b6b3a764000084828161802157fe5b04145b61806e5760408051600160e51b62461bcd0281526020600482015260106024820152600160821b6f11549497d1125597d25395115493905302604482015290519081900360640190fd5b600283048101818110156180c25760408051600160e51b62461bcd0281526020600482015260106024820152600160821b6f11549497d1125597d25395115493905302604482015290519081900360640190fd5b6000848281617d7d57fe5b600082820183811015611a185760408051600160e51b62461bcd02815260206004820152601060248201527f4552525f4144445f4f564552464c4f5700000000000000000000000000000000604482015290519081900360640190fd5b600060018310156181855760408051600160e51b62461bcd02815260206004820152601560248201527f4552525f42504f575f424153455f544f4f5f4c4f570000000000000000000000604482015290519081900360640190fd5b671bc16d674ec7ffff8311156181e55760408051600160e51b62461bcd02815260206004820152601660248201527f4552525f42504f575f424153455f544f4f5f4849474800000000000000000000604482015290519081900360640190fd5b60006181f083618a11565b905060006181fe8483617d88565b905060006182148661820f85618a2c565b618a3a565b905081618225579250611a1b915050565b600061823687846305f5e100618a92565b90506182428282617cb3565b979650505050505050565b6001600160a01b0383166000908152600760205260409020548111156182bd5760408051600160e51b62461bcd02815260206004820152601460248201527f4552525f494e53554646494349454e545f42414c000000000000000000000000604482015290519081900360640190fd5b6001600160a01b0383166000908152600760205260409020546182e09082617d88565b6001600160a01b03808516600090815260076020526040808220939093559084168152205461830f90826180cd565b6001600160a01b0380841660008181526007602090815260409182902094909455805185815290519193928716927fddf252ad1be2c89b69c2b068fc378daa952ba7f163c4a11628f55a4df523b3ef92918290030190a3505050565b60408051600160e01b6323b872dd0281526001600160a01b0384811660048301523060248301526044820184905291516000928616916323b872dd91606480830192602092919082900301818787803b158015617e7357600080fd5b617e1081618b70565b604080516001600160a01b0383166024808301919091528251808303909101815260449091019091526020810180516001600160e01b0316600160e11b63161765e102179052617e10906189f0565b6040805160248082018490528251808303909101815260449091019091526020810180516001600160e01b0316600160e01b63f5b1bba902179052617e10906189f0565b617e0382826040516024018083815260200180602001828103825283818151815260200191508051906020019080838360005b838110156184ae578181015183820152602001618496565b50505050905090810190601f1680156184db5780820380516001836020036101000a031916815260200191505b5060408051601f198184030181529190526020810180516001600160e01b0316600160e01b630fa3f3450217905293506189f092505050565b617ef684848484604051602401808060200185151515158152602001848152602001838152602001828103825286818151815260200191508051906020019080838360005b83811015618571578181015183820152602001618559565b50505050905090810190601f16801561859e5780820380516001836020036101000a031916815260200191505b5060408051601f198184030181529190526020810180516001600160e01b0316600160e31b630bb7fe070217905295506189f0945050505050565b6000806185e68786617fa5565b905060006186068561285087611e61670de0b6b3a7640000600054617d88565b6001600160a01b03851660009081526003602052604090205490915061862c90826180cd565b60036000866001600160a01b03166001600160a01b031681526020019081526020016000208190555060006186738661285088611e61670de0b6b3a7640000600154617d88565b6001600160a01b03861660009081526005602052604090205490915061869990826180cd565b6001600160a01b03861660009081526005602052604081209190915560025483018201906186cf670de0b6b3a764000083617d88565b90506186db8882617cb3565b905060006186ed8d611e998f856180cd565b905060006186fb828861812a565b90506000618711670de0b6b3a764000083617d88565b9050613af48d82617cb3565b6179148383836040516024018080602001848152602001838152602001828103825285818151815260200191508051906020019080838360005b8381101561876f578181015183820152602001618757565b50505050905090810190601f16801561879c5780820380516001836020036101000a031916815260200191505b5060408051601f198184030181529190526020810180516001600160e01b0316600160e01b63969cdd030217905294506189f09350505050565b604080516024810184905260448082018490528251808303909101815260649091019091526020810180516001600160e01b0316600160e71b62d81ed302179052617e03906189f0565b600d8054600c805462010000600160b01b031916620100006001600160a01b039c8d16021790556011989098556000969096556001600160a01b031996871698881698909817600160a01b60ff0219908116600160a01b951515860217958690556012805460ff191694151594909417909355600e8054871692881692909217909155600f805486169187169190911790556016805460109790975592909416949093168317909116929092179182905560ff91041690565b6000808284106188ef57505080820360006188f7565b505081810360015b9250929050565b617e0382308361824d565b306000908152600760205260409020548111156189705760408051600160e51b62461bcd02815260206004820152601460248201527f4552525f494e53554646494349454e545f42414c000000000000000000000000604482015290519081900360640190fd5b3060009081526007602052604090205461898a9082617d88565b306000908152600760205260409020556009546189a79082617d88565b60095560408051828152905160009130917fddf252ad1be2c89b69c2b068fc378daa952ba7f163c4a11628f55a4df523b3ef9181900360200190a350565b617e0330838361824d565b80516a636f6e736f6c652e6c6f67602083016000808483855afa5050505050565b6000670de0b6b3a7640000618a2583618a2c565b0292915050565b670de0b6b3a7640000900490565b6000828160028406618a5457670de0b6b3a7640000618a56565b815b90506002840493505b83156170ef57618a6f8283617cb3565b91506002840615618a8757618a848183617cb3565b90505b600284049350618a5f565b6000828180618aa987670de0b6b3a76400006188d9565b9092509050670de0b6b3a764000080600060015b888410618b61576000670de0b6b3a764000082029050600080618af18a618aec85670de0b6b3a7640000617d88565b6188d9565b91509150618b0387611e61848c617cb3565b9650618b0f8784617fa5565b965086618b1e57505050618b61565b8715618b28579315935b8015618b32579315935b8415618b4957618b428688617d88565b9550618b56565b618b5386886180cd565b95505b505050600101618abd565b50909998505050505050505050565b30600090815260076020526040902054618b8a90826180cd565b30600090815260076020526040902055600954618ba790826180cd565b60095560408051828152905130916000917fddf252ad1be2c89b69c2b068fc378daa952ba7f163c4a11628f55a4df523b3ef9181900360200190a35056fe4552525f4e4f545f46494e414c495a45440000000000000000000000000000004552525f5245454e5452590000000000000000000000000000000000000000004552525f44454e4945445f42595f434f4e54524f4c4c455200000000000000009d9058fd2f25ccc389fec7720abef0ca83472f5abfafd5f10d37f51e6a0493f349691c908be0a8f80db7c1d76fffba317a76f963b252fcd0f82f252e8c86d3e94552525f4e4f545f434f4e54524f4c4c4552000000000000000000000000000015a8ca63e37b2cff1677df2b6b82d36fcf8a524228bd7a4b4d02d107c28c1e8a4552525f4e4f545f424f554e44000000000000000000000000000000000000008c5be1e5ebec7d5bd14f71427d1e84f3dd0314c0f7b2291e5b200ac8c7c3b9254552525f4d4154485f415050524f58000000000000000000000000000000000050ef2fc267012b5c84b56835f16ffd5331ac5a151a3760d74908721ba78b0efea165627a7a72305820df0d0e1a5a5f3fca44d442a9b35cc63c1d09d514e6a455e911d839499a02149a0029",
  "linkReferences": {},
  "deployedLinkReferences": {}
}