{
  "_format": "hh-sol-artifact-1",
  "contractName": "BPool",
  "sourceName": "contracts/v3/balancer/BPool.sol",
  "abi": [
    {
      "constant": false,
      "inputs": [
        {
          "name": "tokenOut",
          "type": "address"
        },
        {
          "name": "tokenAmountOut",
          "type": "uint256"
        },
        {
          "name": "maxPoolAmountIn",
          "type": "uint256"
        }
      ],
      "name": "exitswapExternAmountOut",
      "outputs": [
        {
          "name": "poolAmountIn",
          "type": "uint256"
        }
      ],
      "payable": false,
      "stateMutability": "nonpayable",
      "type": "function"
    },
    {
      "constant": true,
      "inputs": [],
      "name": "getDataTokenAddress",
      "outputs": [
        {
          "name": "",
          "type": "address"
        }
      ],
      "payable": false,
      "stateMutability": "view",
      "type": "function"
    },
    {
      "constant": true,
      "inputs": [],
      "name": "name",
      "outputs": [
        {
          "name": "",
          "type": "string"
        }
      ],
      "payable": false,
      "stateMutability": "view",
      "type": "function"
    },
    {
      "constant": false,
      "inputs": [
        {
          "name": "dst",
          "type": "address"
        },
        {
          "name": "amt",
          "type": "uint256"
        }
      ],
      "name": "approve",
      "outputs": [
        {
          "name": "",
          "type": "bool"
        }
      ],
      "payable": false,
      "stateMutability": "nonpayable",
      "type": "function"
    },
    {
      "constant": true,
      "inputs": [],
      "name": "MAX_TOTAL_WEIGHT",
      "outputs": [
        {
          "name": "",
          "type": "uint256"
        }
      ],
      "payable": false,
      "stateMutability": "view",
      "type": "function"
    },
    {
      "constant": false,
      "inputs": [
        {
          "name": "dataTokenAddress",
          "type": "address"
        },
        {
          "name": "dataTokenAmount",
          "type": "uint256"
        },
        {
          "name": "dataTokenWeight",
          "type": "uint256"
        },
        {
          "name": "baseTokenAddress",
          "type": "address"
        },
        {
          "name": "baseTokenAmount",
          "type": "uint256"
        },
        {
          "name": "baseTokenWeight",
          "type": "uint256"
        }
      ],
      "name": "setup",
      "outputs": [],
      "payable": false,
      "stateMutability": "nonpayable",
      "type": "function"
    },
    {
      "constant": true,
      "inputs": [
        {
          "name": "tokenIn",
          "type": "address"
        },
        {
          "name": "tokenOut",
          "type": "address"
        }
      ],
      "name": "getSpotPrice",
      "outputs": [
        {
          "name": "spotPrice",
          "type": "uint256"
        }
      ],
      "payable": false,
      "stateMutability": "view",
      "type": "function"
    },
    {
      "constant": true,
      "inputs": [],
      "name": "totalSupply",
      "outputs": [
        {
          "name": "",
          "type": "uint256"
        }
      ],
      "payable": false,
      "stateMutability": "view",
      "type": "function"
    },
    {
      "constant": true,
      "inputs": [],
      "name": "BPOW_PRECISION",
      "outputs": [
        {
          "name": "",
          "type": "uint256"
        }
      ],
      "payable": false,
      "stateMutability": "view",
      "type": "function"
    },
    {
      "constant": true,
      "inputs": [],
      "name": "MIN_WEIGHT",
      "outputs": [
        {
          "name": "",
          "type": "uint256"
        }
      ],
      "payable": false,
      "stateMutability": "view",
      "type": "function"
    },
    {
      "constant": false,
      "inputs": [
        {
          "name": "src",
          "type": "address"
        },
        {
          "name": "dst",
          "type": "address"
        },
        {
          "name": "amt",
          "type": "uint256"
        }
      ],
      "name": "transferFrom",
      "outputs": [
        {
          "name": "",
          "type": "bool"
        }
      ],
      "payable": false,
      "stateMutability": "nonpayable",
      "type": "function"
    },
    {
      "constant": true,
      "inputs": [
        {
          "name": "t",
          "type": "address"
        }
      ],
      "name": "isBound",
      "outputs": [
        {
          "name": "",
          "type": "bool"
        }
      ],
      "payable": false,
      "stateMutability": "view",
      "type": "function"
    },
    {
      "constant": true,
      "inputs": [
        {
          "name": "",
          "type": "address"
        }
      ],
      "name": "communityFees",
      "outputs": [
        {
          "name": "",
          "type": "uint256"
        }
      ],
      "payable": false,
      "stateMutability": "view",
      "type": "function"
    },
    {
      "constant": true,
      "inputs": [],
      "name": "getController",
      "outputs": [
        {
          "name": "",
          "type": "address"
        }
      ],
      "payable": false,
      "stateMutability": "view",
      "type": "function"
    },
    {
      "constant": true,
      "inputs": [],
      "name": "decimals",
      "outputs": [
        {
          "name": "",
          "type": "uint8"
        }
      ],
      "payable": false,
      "stateMutability": "view",
      "type": "function"
    },
    {
      "constant": true,
      "inputs": [
        {
          "name": "",
          "type": "address"
        }
      ],
      "name": "marketFees",
      "outputs": [
        {
          "name": "",
          "type": "uint256"
        }
      ],
      "payable": false,
      "stateMutability": "view",
      "type": "function"
    },
    {
      "constant": false,
      "inputs": [
        {
          "name": "swapFee",
          "type": "uint256"
        }
      ],
      "name": "setSwapFee",
      "outputs": [],
      "payable": false,
      "stateMutability": "nonpayable",
      "type": "function"
    },
    {
      "constant": true,
      "inputs": [],
      "name": "isInitialized",
      "outputs": [
        {
          "name": "",
          "type": "bool"
        }
      ],
      "payable": false,
      "stateMutability": "view",
      "type": "function"
    },
    {
      "constant": false,
      "inputs": [
        {
          "name": "tokenOut",
          "type": "address"
        },
        {
          "name": "poolAmountIn",
          "type": "uint256"
        },
        {
          "name": "minAmountOut",
          "type": "uint256"
        }
      ],
      "name": "exitswapPoolAmountIn",
      "outputs": [
        {
          "name": "tokenAmountOut",
          "type": "uint256"
        }
      ],
      "payable": false,
      "stateMutability": "nonpayable",
      "type": "function"
    },
    {
      "constant": true,
      "inputs": [],
      "name": "_swapMarketFee",
      "outputs": [
        {
          "name": "",
          "type": "uint256"
        }
      ],
      "payable": false,
      "stateMutability": "view",
      "type": "function"
    },
    {
      "constant": true,
      "inputs": [],
      "name": "getBaseTokenAddress",
      "outputs": [
        {
          "name": "",
          "type": "address"
        }
      ],
      "payable": false,
      "stateMutability": "view",
      "type": "function"
    },
    {
      "constant": false,
      "inputs": [
        {
          "name": "poolAmountOut",
          "type": "uint256"
        },
        {
          "name": "maxAmountsIn",
          "type": "uint256[]"
        }
      ],
      "name": "joinPool",
      "outputs": [],
      "payable": false,
      "stateMutability": "nonpayable",
      "type": "function"
    },
    {
      "constant": false,
      "inputs": [
        {
          "name": "tokenIn",
          "type": "address"
        },
        {
          "name": "tokenAmountIn",
          "type": "uint256"
        },
        {
          "name": "minPoolAmountOut",
          "type": "uint256"
        }
      ],
      "name": "joinswapExternAmountIn",
      "outputs": [
        {
          "name": "poolAmountOut",
          "type": "uint256"
        }
      ],
      "payable": false,
      "stateMutability": "nonpayable",
      "type": "function"
    },
    {
      "constant": false,
      "inputs": [
        {
          "name": "dst",
          "type": "address"
        },
        {
          "name": "amt",
          "type": "uint256"
        }
      ],
      "name": "decreaseApproval",
      "outputs": [
        {
          "name": "",
          "type": "bool"
        }
      ],
      "payable": false,
      "stateMutability": "nonpayable",
      "type": "function"
    },
    {
      "constant": false,
      "inputs": [
        {
          "name": "tokenIn",
          "type": "address"
        },
        {
          "name": "poolAmountOut",
          "type": "uint256"
        },
        {
          "name": "maxAmountIn",
          "type": "uint256"
        }
      ],
      "name": "joinswapPoolAmountOut",
      "outputs": [
        {
          "name": "tokenAmountIn",
          "type": "uint256"
        }
      ],
      "payable": false,
      "stateMutability": "nonpayable",
      "type": "function"
    },
    {
      "constant": false,
      "inputs": [
        {
          "name": "_newCollector",
          "type": "address"
        }
      ],
      "name": "updateMarketFeeCollector",
      "outputs": [],
      "payable": false,
      "stateMutability": "nonpayable",
      "type": "function"
    },
    {
      "constant": true,
      "inputs": [
        {
          "name": "whom",
          "type": "address"
        }
      ],
      "name": "balanceOf",
      "outputs": [
        {
          "name": "",
          "type": "uint256"
        }
      ],
      "payable": false,
      "stateMutability": "view",
      "type": "function"
    },
    {
      "constant": true,
      "inputs": [],
      "name": "MIN_FEE",
      "outputs": [
        {
          "name": "",
          "type": "uint256"
        }
      ],
      "payable": false,
      "stateMutability": "view",
      "type": "function"
    },
    {
      "constant": false,
      "inputs": [
        {
          "name": "tokenIn",
          "type": "address"
        },
        {
          "name": "maxAmountIn",
          "type": "uint256"
        },
        {
          "name": "tokenOut",
          "type": "address"
        },
        {
          "name": "tokenAmountOut",
          "type": "uint256"
        },
        {
          "name": "maxPrice",
          "type": "uint256"
        }
      ],
      "name": "swapExactAmountOut",
      "outputs": [
        {
          "name": "tokenAmountIn",
          "type": "uint256"
        },
        {
          "name": "spotPriceAfter",
          "type": "uint256"
        }
      ],
      "payable": false,
      "stateMutability": "nonpayable",
      "type": "function"
    },
    {
      "constant": true,
      "inputs": [
        {
          "name": "",
          "type": "address"
        }
      ],
      "name": "feesCollectedOPF",
      "outputs": [
        {
          "name": "",
          "type": "uint256"
        }
      ],
      "payable": false,
      "stateMutability": "view",
      "type": "function"
    },
    {
      "constant": false,
      "inputs": [
        {
          "name": "tokenIn",
          "type": "address"
        },
        {
          "name": "tokenAmountIn",
          "type": "uint256"
        },
        {
          "name": "tokenOut",
          "type": "address"
        },
        {
          "name": "minAmountOut",
          "type": "uint256"
        },
        {
          "name": "maxPrice",
          "type": "uint256"
        }
      ],
      "name": "swapExactAmountIn",
      "outputs": [
        {
          "name": "tokenAmountOut",
          "type": "uint256"
        },
        {
          "name": "spotPriceAfter",
          "type": "uint256"
        }
      ],
      "payable": false,
      "stateMutability": "nonpayable",
      "type": "function"
    },
    {
      "constant": true,
      "inputs": [],
      "name": "MIN_BALANCE",
      "outputs": [
        {
          "name": "",
          "type": "uint256"
        }
      ],
      "payable": false,
      "stateMutability": "view",
      "type": "function"
    },
    {
      "constant": true,
      "inputs": [],
      "name": "isFinalized",
      "outputs": [
        {
          "name": "",
          "type": "bool"
        }
      ],
      "payable": false,
      "stateMutability": "view",
      "type": "function"
    },
    {
      "constant": false,
      "inputs": [
        {
          "name": "to",
          "type": "address"
        }
      ],
      "name": "collectOPF",
      "outputs": [],
      "payable": false,
      "stateMutability": "nonpayable",
      "type": "function"
    },
    {
      "constant": true,
      "inputs": [],
      "name": "getTotalDenormalizedWeight",
      "outputs": [
        {
          "name": "",
          "type": "uint256"
        }
      ],
      "payable": false,
      "stateMutability": "view",
      "type": "function"
    },
    {
      "constant": true,
      "inputs": [],
      "name": "INIT_POOL_SUPPLY",
      "outputs": [
        {
          "name": "",
          "type": "uint256"
        }
      ],
      "payable": false,
      "stateMutability": "view",
      "type": "function"
    },
    {
      "constant": true,
      "inputs": [
        {
          "name": "token",
          "type": "address"
        }
      ],
      "name": "getDenormalizedWeight",
      "outputs": [
        {
          "name": "",
          "type": "uint256"
        }
      ],
      "payable": false,
      "stateMutability": "view",
      "type": "function"
    },
    {
      "constant": true,
      "inputs": [],
      "name": "symbol",
      "outputs": [
        {
          "name": "",
          "type": "string"
        }
      ],
      "payable": false,
      "stateMutability": "view",
      "type": "function"
    },
    {
      "constant": true,
      "inputs": [],
      "name": "MAX_OUT_RATIO",
      "outputs": [
        {
          "name": "",
          "type": "uint256"
        }
      ],
      "payable": false,
      "stateMutability": "view",
      "type": "function"
    },
    {
      "constant": true,
      "inputs": [],
      "name": "_marketCollector",
      "outputs": [
        {
          "name": "",
          "type": "address"
        }
      ],
      "payable": false,
      "stateMutability": "view",
      "type": "function"
    },
    {
      "constant": false,
      "inputs": [
        {
          "name": "dst",
          "type": "address"
        },
        {
          "name": "amt",
          "type": "uint256"
        }
      ],
      "name": "transfer",
      "outputs": [
        {
          "name": "",
          "type": "bool"
        }
      ],
      "payable": false,
      "stateMutability": "nonpayable",
      "type": "function"
    },
    {
      "constant": false,
      "inputs": [
        {
          "name": "poolAmountIn",
          "type": "uint256"
        },
        {
          "name": "minAmountsOut",
          "type": "uint256[]"
        }
      ],
      "name": "exitPool",
      "outputs": [],
      "payable": false,
      "stateMutability": "nonpayable",
      "type": "function"
    },
    {
      "constant": true,
      "inputs": [],
      "name": "MAX_BOUND_TOKENS",
      "outputs": [
        {
          "name": "",
          "type": "uint256"
        }
      ],
      "payable": false,
      "stateMutability": "view",
      "type": "function"
    },
    {
      "constant": true,
      "inputs": [],
      "name": "MIN_BOUND_TOKENS",
      "outputs": [
        {
          "name": "",
          "type": "uint256"
        }
      ],
      "payable": false,
      "stateMutability": "view",
      "type": "function"
    },
    {
      "constant": true,
      "inputs": [],
      "name": "_swapOceanFee",
      "outputs": [
        {
          "name": "",
          "type": "uint256"
        }
      ],
      "payable": false,
      "stateMutability": "view",
      "type": "function"
    },
    {
      "constant": true,
      "inputs": [],
      "name": "MIN_BPOW_BASE",
      "outputs": [
        {
          "name": "",
          "type": "uint256"
        }
      ],
      "payable": false,
      "stateMutability": "view",
      "type": "function"
    },
    {
      "constant": true,
      "inputs": [],
      "name": "MAX_FEE",
      "outputs": [
        {
          "name": "",
          "type": "uint256"
        }
      ],
      "payable": false,
      "stateMutability": "view",
      "type": "function"
    },
    {
      "constant": true,
      "inputs": [],
      "name": "MAX_BPOW_BASE",
      "outputs": [
        {
          "name": "",
          "type": "uint256"
        }
      ],
      "payable": false,
      "stateMutability": "view",
      "type": "function"
    },
    {
      "constant": true,
      "inputs": [],
      "name": "getFinalTokens",
      "outputs": [
        {
          "name": "tokens",
          "type": "address[]"
        }
      ],
      "payable": false,
      "stateMutability": "view",
      "type": "function"
    },
    {
      "constant": false,
      "inputs": [
        {
          "name": "controller",
          "type": "address"
        },
        {
          "name": "factory",
          "type": "address"
        },
        {
          "name": "swapFees",
          "type": "uint256[]"
        },
        {
          "name": "publicSwap",
          "type": "bool"
        },
        {
          "name": "finalized",
          "type": "bool"
        },
        {
          "name": "tokens",
          "type": "address[2]"
        },
        {
          "name": "feeCollectors",
          "type": "address[2]"
        }
      ],
      "name": "initialize",
      "outputs": [
        {
          "name": "",
          "type": "bool"
        }
      ],
      "payable": false,
      "stateMutability": "nonpayable",
      "type": "function"
    },
    {
      "constant": true,
      "inputs": [],
      "name": "BONE",
      "outputs": [
        {
          "name": "",
          "type": "uint256"
        }
      ],
      "payable": false,
      "stateMutability": "view",
      "type": "function"
    },
    {
      "constant": true,
      "inputs": [],
      "name": "EXIT_FEE",
      "outputs": [
        {
          "name": "",
          "type": "uint256"
        }
      ],
      "payable": false,
      "stateMutability": "view",
      "type": "function"
    },
    {
      "constant": true,
      "inputs": [],
      "name": "getCurrentTokens",
      "outputs": [
        {
          "name": "tokens",
          "type": "address[]"
        }
      ],
      "payable": false,
      "stateMutability": "view",
      "type": "function"
    },
    {
      "constant": true,
      "inputs": [],
      "name": "getNumTokens",
      "outputs": [
        {
          "name": "",
          "type": "uint256"
        }
      ],
      "payable": false,
      "stateMutability": "view",
      "type": "function"
    },
    {
      "constant": true,
      "inputs": [],
      "name": "getSwapFee",
      "outputs": [
        {
          "name": "",
          "type": "uint256"
        }
      ],
      "payable": false,
      "stateMutability": "view",
      "type": "function"
    },
    {
      "constant": false,
      "inputs": [
        {
          "name": "dst",
          "type": "address"
        },
        {
          "name": "amt",
          "type": "uint256"
        }
      ],
      "name": "increaseApproval",
      "outputs": [
        {
          "name": "",
          "type": "bool"
        }
      ],
      "payable": false,
      "stateMutability": "nonpayable",
      "type": "function"
    },
    {
      "constant": true,
      "inputs": [
        {
          "name": "src",
          "type": "address"
        },
        {
          "name": "dst",
          "type": "address"
        }
      ],
      "name": "allowance",
      "outputs": [
        {
          "name": "",
          "type": "uint256"
        }
      ],
      "payable": false,
      "stateMutability": "view",
      "type": "function"
    },
    {
      "constant": true,
      "inputs": [],
      "name": "MAX_WEIGHT",
      "outputs": [
        {
          "name": "",
          "type": "uint256"
        }
      ],
      "payable": false,
      "stateMutability": "view",
      "type": "function"
    },
    {
      "constant": true,
      "inputs": [],
      "name": "MAX_IN_RATIO",
      "outputs": [
        {
          "name": "",
          "type": "uint256"
        }
      ],
      "payable": false,
      "stateMutability": "view",
      "type": "function"
    },
    {
      "constant": true,
      "inputs": [],
      "name": "_opfCollector",
      "outputs": [
        {
          "name": "",
          "type": "address"
        }
      ],
      "payable": false,
      "stateMutability": "view",
      "type": "function"
    },
    {
      "constant": true,
      "inputs": [
        {
          "name": "token",
          "type": "address"
        }
      ],
      "name": "getNormalizedWeight",
      "outputs": [
        {
          "name": "",
          "type": "uint256"
        }
      ],
      "payable": false,
      "stateMutability": "view",
      "type": "function"
    },
    {
      "constant": true,
      "inputs": [
        {
          "name": "",
          "type": "address"
        }
      ],
      "name": "feesCollectedMarket",
      "outputs": [
        {
          "name": "",
          "type": "uint256"
        }
      ],
      "payable": false,
      "stateMutability": "view",
      "type": "function"
    },
    {
      "constant": true,
      "inputs": [
        {
          "name": "token",
          "type": "address"
        }
      ],
      "name": "getBalance",
      "outputs": [
        {
          "name": "",
          "type": "uint256"
        }
      ],
      "payable": false,
      "stateMutability": "view",
      "type": "function"
    },
    {
      "constant": false,
      "inputs": [
        {
          "name": "to",
          "type": "address"
        }
      ],
      "name": "collectMarketFee",
      "outputs": [],
      "payable": false,
      "stateMutability": "nonpayable",
      "type": "function"
    },
    {
      "constant": true,
      "inputs": [],
      "name": "isPublicSwap",
      "outputs": [
        {
          "name": "",
          "type": "bool"
        }
      ],
      "payable": false,
      "stateMutability": "view",
      "type": "function"
    },
    {
      "anonymous": false,
      "inputs": [
        {
          "indexed": true,
          "name": "caller",
          "type": "address"
        },
        {
          "indexed": true,
          "name": "tokenIn",
          "type": "address"
        },
        {
          "indexed": true,
          "name": "tokenOut",
          "type": "address"
        },
        {
          "indexed": false,
          "name": "tokenAmountIn",
          "type": "uint256"
        },
        {
          "indexed": false,
          "name": "tokenAmountOut",
          "type": "uint256"
        },
        {
          "indexed": false,
          "name": "timestamp",
          "type": "uint256"
        }
      ],
      "name": "LOG_SWAP",
      "type": "event"
    },
    {
      "anonymous": false,
      "inputs": [
        {
          "indexed": true,
          "name": "caller",
          "type": "address"
        },
        {
          "indexed": true,
          "name": "tokenIn",
          "type": "address"
        },
        {
          "indexed": false,
          "name": "tokenAmountIn",
          "type": "uint256"
        },
        {
          "indexed": false,
          "name": "timestamp",
          "type": "uint256"
        }
      ],
      "name": "LOG_JOIN",
      "type": "event"
    },
    {
      "anonymous": false,
      "inputs": [
        {
          "indexed": true,
          "name": "caller",
          "type": "address"
        },
        {
          "indexed": true,
          "name": "tokenOut",
          "type": "address"
        },
        {
          "indexed": false,
          "name": "tokenAmountOut",
          "type": "uint256"
        },
        {
          "indexed": false,
          "name": "timestamp",
          "type": "uint256"
        }
      ],
      "name": "LOG_EXIT",
      "type": "event"
    },
    {
      "anonymous": false,
      "inputs": [
        {
          "indexed": true,
          "name": "sig",
          "type": "bytes4"
        },
        {
          "indexed": true,
          "name": "caller",
          "type": "address"
        },
        {
          "indexed": false,
          "name": "timestamp",
          "type": "uint256"
        },
        {
          "indexed": false,
          "name": "data",
          "type": "bytes"
        }
      ],
      "name": "LOG_CALL",
      "type": "event"
    },
    {
      "anonymous": false,
      "inputs": [
        {
          "indexed": false,
          "name": "bptAmount",
          "type": "uint256"
        }
      ],
      "name": "LOG_BPT",
      "type": "event"
    },
    {
      "anonymous": false,
      "inputs": [
        {
          "indexed": true,
          "name": "src",
          "type": "address"
        },
        {
          "indexed": true,
          "name": "dst",
          "type": "address"
        },
        {
          "indexed": false,
          "name": "amt",
          "type": "uint256"
        }
      ],
      "name": "Approval",
      "type": "event"
    },
    {
      "anonymous": false,
      "inputs": [
        {
          "indexed": true,
          "name": "src",
          "type": "address"
        },
        {
          "indexed": true,
          "name": "dst",
          "type": "address"
        },
        {
          "indexed": false,
          "name": "amt",
          "type": "uint256"
        }
      ],
      "name": "Transfer",
      "type": "event"
    },
    {
      "anonymous": false,
      "inputs": [
        {
          "indexed": false,
          "name": "swapFeeAmount",
          "type": "uint256"
        },
        {
          "indexed": false,
          "name": "oceanFeeAmount",
          "type": "uint256"
        },
        {
          "indexed": false,
          "name": "marketFeeAmount",
          "type": "uint256"
        },
        {
          "indexed": false,
          "name": "tokenFees",
          "type": "address"
        }
      ],
      "name": "SWAP_FEES",
      "type": "event"
    }
  ],
  "bytecode": "0x60c0604052601360808190527f42616c616e63657220506f6f6c20546f6b656e0000000000000000000000000060a09081526200004091600a9190620000a9565b506040805180820190915260038082527f425054000000000000000000000000000000000000000000000000000000000060209092019182526200008791600b91620000a9565b50600c805460ff19166012179055348015620000a257600080fd5b506200014e565b828054600181600116156101000203166002900490600052602060002090601f016020900481019282601f10620000ec57805160ff19168380011785556200011c565b828001600101855582156200011c579182015b828111156200011c578251825591602001919060010190620000ff565b506200012a9291506200012e565b5090565b6200014b91905b808211156200012a576000815560010162000135565b90565b6165a8806200015e6000396000f3fe608060405234801561001057600080fd5b50600436106103db5760003560e01c80638d4e40831161020a578063be3bbd2e11610125578063dd62ed3e116100b8578063f1b8a9b711610087578063f1b8a9b714610bc3578063f542f6cf14610be9578063f8b2cb4f14610c0f578063fbb9dd5014610c35578063fde924f714610c5b576103db565b8063dd62ed3e14610b85578063e4a28a5214610505578063ec09302114610bb3578063f0f13f0b14610bbb576103db565b8063cc77828d116100f4578063cc77828d14610b41578063cd2ed8fb14610b49578063d4cadf6814610b51578063d73dd62314610b59576103db565b8063be3bbd2e14610a43578063c070a6d814610a9b578063c36596a614610595578063c6580d1214610b39576103db565b8063a9059cbb1161019d578063b80483b01161016c578063b80483b014610a23578063ba019dab14610a2b578063bc063e1a14610a33578063bc694ea214610a3b576103db565b8063a9059cbb14610970578063b02f0b731461099c578063b0e0d13614610a13578063b7b800a414610a1b576103db565b8063948d8ce6116101d9578063948d8ce61461093257806395d89b4114610958578063992e2a9214610960578063a562ddf014610968576103db565b80638d4e4083146108f457806391f2a496146108fc578063936c3477146109225780639381cd2b1461092a576103db565b806334e19907116102fa5780636d06dfa01161028d5780637c5e9ea41161025c5780637c5e9ea41461082d5780637c6e92c2146108865780638201aa3f146108ac578063867378c5146108ec576103db565b80636d06dfa0146107a757806370330518146107d957806370a08231146107ff57806376c7a3c714610825576103db565b80634df947d0116102c95780634df947d0146106ca5780634f69c0d4146106d25780635db3427714610749578063661884631461077b576103db565b806334e199071461066b578063392e53cd1461068857806346ab38f11461069057806349e9350f146106c2576103db565b8063189d00ca11610372578063300621921161034157806330062192146105f95780633018205f1461061f578063313ce5671461062757806331e2761b14610645576103db565b8063189d00ca1461058d578063218b53821461059557806323b872dd1461059d5780632f37b624146105d3576103db565b806309a3bbe4116103ae57806309a3bbe41461050557806309ef3f5b1461050d57806315e84af91461055757806318160ddd14610585576103db565b806302c96748146103e057806304ad79541461042457806306fdde0314610448578063095ea7b3146104c5575b600080fd5b610412600480360360608110156103f657600080fd5b506001600160a01b038135169060208101359060400135610c63565b60408051918252519081900360200190f35b61042c6111ce565b604080516001600160a01b039092168252519081900360200190f35b6104506111dd565b6040805160208082528351818301528351919283929083019185019080838360005b8381101561048a578181015183820152602001610472565b50505050905090810190601f1680156104b75780820380516001836020036101000a031916815260200191505b509250505060405180910390f35b6104f1600480360360408110156104db57600080fd5b506001600160a01b038135169060200135611273565b604080519115158252519081900360200190f35b6104126112c8565b610555600480360360c081101561052357600080fd5b506001600160a01b03813581169160208101359160408201359160608101359091169060808101359060a001356112d5565b005b6104126004803603604081101561056d57600080fd5b506001600160a01b0381358116916020013516611491565b6104126115ea565b6104126115f0565b610412611604565b6104f1600480360360608110156105b357600080fd5b506001600160a01b03813581169160208101359091169060400135611610565b6104f1600480360360208110156105e957600080fd5b50356001600160a01b0316611775565b6104126004803603602081101561060f57600080fd5b50356001600160a01b0316611793565b61042c6117a5565b61062f6117b4565b6040805160ff9092168252519081900360200190f35b6104126004803603602081101561065b57600080fd5b50356001600160a01b03166117bd565b6105556004803603602081101561068157600080fd5b50356117cf565b6104f1611925565b610412600480360360608110156106a657600080fd5b506001600160a01b038135169060208101359060400135611935565b610412611e7b565b61042c611e81565b610555600480360360408110156106e857600080fd5b8135919081019060408101602082013564010000000081111561070a57600080fd5b82018360208201111561071c57600080fd5b8035906020019184602083028401116401000000008311171561073e57600080fd5b509092509050611e90565b6104126004803603606081101561075f57600080fd5b506001600160a01b038135169060208101359060400135612216565b6104f16004803603604081101561079157600080fd5b506001600160a01b0381351690602001356126e0565b610412600480360360608110156107bd57600080fd5b506001600160a01b0381351690602081013590604001356127b8565b610555600480360360208110156107ef57600080fd5b50356001600160a01b0316612ca1565b6104126004803603602081101561081557600080fd5b50356001600160a01b0316612d25565b610412612d40565b61086d600480360360a081101561084357600080fd5b506001600160a01b0381358116916020810135916040820135169060608101359060800135612d52565b6040805192835260208301919091528051918290030190f35b6104126004803603602081101561089c57600080fd5b50356001600160a01b03166132bf565b61086d600480360360a08110156108c257600080fd5b506001600160a01b03813581169160208101359160408201351690606081013590608001356132d1565b610412613960565b6104f1613974565b6105556004803603602081101561091257600080fd5b50356001600160a01b0316613984565b610412613b87565b610412613be2565b6104126004803603602081101561094857600080fd5b50356001600160a01b0316613bef565b610450613cc0565b610412613d21565b61042c613d2d565b6104f16004803603604081101561098657600080fd5b506001600160a01b038135169060200135613d3c565b610555600480360360408110156109b257600080fd5b813591908101906040810160208201356401000000008111156109d457600080fd5b8201836020820111156109e657600080fd5b80359060200191846020830284011164010000000083111715610a0857600080fd5b509092509050613d52565b6104126140f3565b6104126140f8565b6104126140fd565b610412614103565b610412614108565b610412614118565b610a4b614124565b60408051602080825283518183015283519192839290830191858101910280838360005b83811015610a87578181015183820152602001610a6f565b505050509050019250505060405180910390f35b6104f16004803603610120811015610ab257600080fd5b6001600160a01b038235811692602081013590911691810190606081016040820135640100000000811115610ae657600080fd5b820183602082011115610af857600080fd5b80359060200191846020830284011164010000000083111715610b1a57600080fd5b9193509150803515159060208101351515906040810190608001614226565b61041261449b565b610a4b6144a0565b6104126144f4565b6104126144fa565b6104f160048036036040811015610b6f57600080fd5b506001600160a01b038135169060200135614500565b61041260048036036040811015610b9b57600080fd5b506001600160a01b0381358116916020013516614581565b6104126145ac565b61042c6145bc565b61041260048036036020811015610bd957600080fd5b50356001600160a01b03166145cb565b61041260048036036020811015610bff57600080fd5b50356001600160a01b03166146ae565b61041260048036036020811015610c2557600080fd5b50356001600160a01b03166146c0565b61055560048036036020811015610c4b57600080fd5b50356001600160a01b0316614791565b6104f16149df565b600c54600090610100900460ff1615610cb75760408051600160e51b62461bcd02815260206004820152600b6024820152600160a81b6a4552525f5245454e54525902604482015290519081900360640190fd5b600c805461ff001916610100179055601154600160a01b900460ff16610d155760408051600160e51b62461bcd028152602060048201526011602482015260008051602061649d833981519152604482015290519081900360640190fd5b6001600160a01b03841660009081526013602052604090205460ff16610d735760408051600160e51b62461bcd02815260206004820152600d602482015260008051602061651d833981519152604482015290519081900360640190fd5b6001600160a01b0384166000908152601360205260409020600390810154610da891670de0b6b3a76400005b046001016149ef565b831115610df65760408051600160e51b62461bcd0281526020600482015260116024820152600160781b704552525f4d41585f4f55545f524154494f02604482015290519081900360640190fd5b600e546001600160a01b039081166000818152601360205260408120909283929088161415610e3257600f546001600160a01b03169150610e57565b5050600e54600f546001600160a01b0390811660009081526013602052604090209116905b6001600160a01b038716600090815260136020526040902060038101546002820154600954601454610e8c939291908b614ac4565b945084610ed15760408051600160e51b62461bcd02815260206004820152600f602482015260008051602061655d833981519152604482015290519081900360640190fd5b85851115610f1b5760408051600160e51b62461bcd02815260206004820152600c6024820152600160a11b6b22a9292fa624a6a4aa2fa4a702604482015290519081900360640190fd5b610f29816003015488614b88565b60038201556000610f3a86826149ef565b604080518a815242602082015281519293506001600160a01b038c169233926000805160206164bd833981519152928290030190a36040805187815290516000805160206164dd8339815191529181900360200190a1610f9a3387614bf9565b610fac610fa78783614b88565b614c07565b600c54610fc8906201000090046001600160a01b031682614c13565b610fd389338a614c1d565b6000610fee846003015485600201546009546014548b614cfc565b601554600e5460408051600160e01b63efd481030281526001600160a01b039283166004820152898316602482015260448101859052905193945091169163efd4810391606480820192602092909190829003018186803b15801561105257600080fd5b505afa158015611066573d6000803e3d6000fd5b505050506040513d602081101561107c57600080fd5b50511515600114156111b657611096846003015482614b88565b60038501556110a68760006149ef565b600d546040805184815242602082015281519395506001600160a01b03808a16949316926000805160206164bd833981519152929181900390910190a3600d546110f9906001600160a01b031688614bf9565b611106610fa78884614b88565b600c54611122906201000090046001600160a01b031683614c13565b600d5461113a9086906001600160a01b031683614c1d565b601554600e5460408051600160e11b63679346f50281526001600160a01b0392831660048201528883166024820152604481018590529051919092169163cf268dea91606480830192600092919082900301818387803b15801561119d57600080fd5b505af11580156111b1573d6000803e3d6000fd5b505050505b505050505050600c805461ff00191690559392505050565b600e546001600160a01b031690565b600a8054604080516020601f60026000196101006001881615020190951694909404938401819004810282018101909252828152606093909290918301828280156112695780601f1061123e57610100808354040283529160200191611269565b820191906000526020600020905b81548152906001019060200180831161124c57829003601f168201915b5050505050905090565b3360008181526008602090815260408083206001600160a01b0387168085529083528184208690558151868152915193949093909260008051602061653d833981519152928290030190a35060015b92915050565b6802b5e3af16b188000081565b600d546001600160a01b031633146113375760408051600160e51b62461bcd02815260206004820152601660248201527f4552525f494e56414c49445f434f4e54524f4c4c455200000000000000000000604482015290519081900360640190fd5b600e546001600160a01b0387811691161461139c5760408051600160e51b62461bcd02815260206004820152601d60248201527f4552525f494e56414c49445f44415441544f4b454e5f41444452455353000000604482015290519081900360640190fd5b600f546001600160a01b038481169116146114015760408051600160e51b62461bcd02815260206004820152601d60248201527f4552525f494e56414c49445f42415345544f4b454e5f41444452455353000000604482015290519081900360640190fd5b61140c868686614dcb565b6040805186815242602082015281516001600160a01b0389169233926000805160206164fd833981519152929081900390910190a361144c838383614dcb565b6040805183815242602082015281516001600160a01b0386169233926000805160206164fd833981519152929081900390910190a3611489614ff5565b505050505050565b600c54600090610100900460ff16156114e55760408051600160e51b62461bcd02815260206004820152600b6024820152600160a81b6a4552525f5245454e54525902604482015290519081900360640190fd5b6001600160a01b03831660009081526013602052604090205460ff166115435760408051600160e51b62461bcd02815260206004820152600d602482015260008051602061651d833981519152604482015290519081900360640190fd5b6001600160a01b03821660009081526013602052604090205460ff166115a15760408051600160e51b62461bcd02815260206004820152600d602482015260008051602061651d833981519152604482015290519081900360640190fd5b6001600160a01b038084166000908152601360205260408082209285168252902060038083015460028085015492840154908401546115e1939190615042565b95945050505050565b60095490565b6402540be400670de0b6b3a76400005b0481565b670de0b6b3a764000081565b6000336001600160a01b038516148061164c57506001600160a01b03841660009081526008602090815260408083203384529091529020548211155b6116a05760408051600160e51b62461bcd02815260206004820152601560248201527f4552525f42544f4b454e5f4241445f43414c4c45520000000000000000000000604482015290519081900360640190fd5b6116ab848484615240565b336001600160a01b038516148015906116e957506001600160a01b038416600090815260086020908152604080832033845290915290205460001914155b1561176b576001600160a01b038416600090815260086020908152604080832033845290915290205461171c9083614b88565b6001600160a01b038581166000908152600860209081526040808320338085529083529281902085905580519485525192871693919260008051602061653d8339815191529281900390910190a35b5060019392505050565b6001600160a01b031660009081526013602052604090205460ff1690565b60036020526000908152604090205481565b600d546001600160a01b031690565b600c5460ff1690565b60056020526000908152604090205481565b601154600160a01b900460ff16156118275760408051600160e51b62461bcd0281526020600482015260106024820152600160821b6f11549497d254d7d1925390531256915102604482015290519081900360640190fd5b600d546001600160a01b031633146118815760408051600160e51b62461bcd0281526020600482015260126024820152600160711b7122a9292fa727aa2fa1a7a72a2927a62622a902604482015290519081900360640190fd5b64e8d4a510008110156118cf5760408051600160e51b62461bcd02815260206004820152600b6024820152600160a81b6a4552525f4d494e5f46454502604482015290519081900360640190fd5b67016345785d8a00008111156119205760408051600160e51b62461bcd02815260206004820152600b6024820152600160a81b6a4552525f4d41585f46454502604482015290519081900360640190fd5b600255565b601554600160a01b900460ff1690565b600c54600090610100900460ff16156119895760408051600160e51b62461bcd02815260206004820152600b6024820152600160a81b6a4552525f5245454e54525902604482015290519081900360640190fd5b600c805461ff001916610100179055601154600160a01b900460ff166119e75760408051600160e51b62461bcd028152602060048201526011602482015260008051602061649d833981519152604482015290519081900360640190fd5b6001600160a01b03841660009081526013602052604090205460ff16611a455760408051600160e51b62461bcd02815260206004820152600d602482015260008051602061651d833981519152604482015290519081900360640190fd5b6001600160a01b038416600090815260136020526040902060038101546002820154600954601454611a7a9392919088614cfc565b915082821015611ac75760408051600160e51b62461bcd02815260206004820152600d60248201526001609a1b6c11549497d31253525517d3d55502604482015290519081900360640190fd5b6001600160a01b0385166000908152601360205260409020600390810154611af791670de0b6b3a7640000610d9f565b821115611b455760408051600160e51b62461bcd0281526020600482015260116024820152600160781b704552525f4d41585f4f55545f524154494f02604482015290519081900360640190fd5b600e546001600160a01b039081166000818152601360205260408120909290919088161415611b8157600f546001600160a01b03169150611ba6565b5050600e54600f546001600160a01b0390811660009081526013602052604090209116905b611bb4836003015485614b88565b60038401556000611bc587826149ef565b6040805187815242602082015281519293506001600160a01b038b169233926000805160206164bd833981519152928290030190a36040805188815290516000805160206164dd8339815191529181900360200190a1611c43604051806040016040528060048152602001600160e01b63686572650281525061535e565b611c4d3388614bf9565b611c5a610fa78883614b88565b600c54611c76906201000090046001600160a01b031682614c13565b611c81883387614c1d565b6000611c9c836003015484600201546009546014548c614cfc565b601554600e5460408051600160e01b63efd481030281526001600160a01b039283166004820152888316602482015260448101859052905193945091169163efd4810391606480820192602092909190829003018186803b158015611d0057600080fd5b505afa158015611d14573d6000803e3d6000fd5b505050506040513d6020811015611d2a57600080fd5b5051151560011415611e6457611d44836003015482614b88565b6003840155611d548860006149ef565b600d546040805184815242602082015281519395506001600160a01b03808916949316926000805160206164bd833981519152929181900390910190a3600d54611da7906001600160a01b031689614bf9565b611db4610fa78984614b88565b600c54611dd0906201000090046001600160a01b031683614c13565b600d54611de89085906001600160a01b031683614c1d565b601554600e5460408051600160e11b63679346f50281526001600160a01b0392831660048201528783166024820152604481018590529051919092169163cf268dea91606480830192600092919082900301818387803b158015611e4b57600080fd5b505af1158015611e5f573d6000803e3d6000fd5b505050505b5050505050600c805461ff00191690559392505050565b60015481565b600f546001600160a01b031690565b600c54610100900460ff1615611ee15760408051600160e51b62461bcd02815260206004820152600b6024820152600160a81b6a4552525f5245454e54525902604482015290519081900360640190fd5b600c805461ff001916610100179055601154600160a01b900460ff16611f3f5760408051600160e51b62461bcd028152602060048201526011602482015260008051602061649d833981519152604482015290519081900360640190fd5b600080805b601254811015611ff257600e54601280546001600160a01b039092169183908110611f6b57fe5b6000918252602090912001546001600160a01b03161415611f9c57848482818110611f9257fe5b9050602002013592505b600f54601280546001600160a01b039092169183908110611fb957fe5b6000918252602090912001546001600160a01b03161415611fea57848482818110611fe057fe5b9050602002013591505b600101611f44565b506000611ffd6115ea565b9050600061200b8783615407565b9050806120505760408051600160e51b62461bcd02815260206004820152600f602482015260008051602061655d833981519152604482015290519081900360640190fd5b60005b6012548110156121cd5760006012828154811061206c57fe5b60009182526020808320909101546001600160a01b031680835260139091526040822060030154909250906120a185836149ef565b9050806120e65760408051600160e51b62461bcd02815260206004820152600f602482015260008051602061655d833981519152604482015290519081900360640190fd5b8989858181106120f257fe5b905060200201358111156121425760408051600160e51b62461bcd02815260206004820152600c6024820152600160a11b6b22a9292fa624a6a4aa2fa4a702604482015290519081900360640190fd5b6001600160a01b038316600090815260136020526040902060030154612168908261552f565b6001600160a01b03841660008181526013602090815260409182902060030193909355805184815242938101939093528051919233926000805160206164fd833981519152929181900390910190a36121c283338361558c565b505050600101612053565b506121d7876155e8565b6121e13388614c13565b6040805188815290516000805160206164dd8339815191529181900360200190a15050600c805461ff00191690555050505050565b600c54600090610100900460ff161561226a5760408051600160e51b62461bcd02815260206004820152600b6024820152600160a81b6a4552525f5245454e54525902604482015290519081900360640190fd5b600c805461ff001916610100179055601154600160a01b900460ff166122c85760408051600160e51b62461bcd028152602060048201526011602482015260008051602061649d833981519152604482015290519081900360640190fd5b6001600160a01b03841660009081526013602052604090205460ff166123265760408051600160e51b62461bcd02815260206004820152600d602482015260008051602061651d833981519152604482015290519081900360640190fd5b6001600160a01b038416600090815260136020526040902060030154612358906002670de0b6b3a76400005b046149ef565b8311156123a55760408051600160e51b62461bcd0281526020600482015260106024820152600160801b6f4552525f4d41585f494e5f524154494f02604482015290519081900360640190fd5b600e546001600160a01b039081166000818152601360205260408120909290918391881614156123e15750600f546001600160a01b0316612406565b5050600f546001600160a01b039081166000908152601360205260409020600e549091165b6001600160a01b03871660009081526013602052604090206003810154600282015460095460145461243b939291908b6155f1565b9450858510156124885760408051600160e51b62461bcd02815260206004820152600d60248201526001609a1b6c11549497d31253525517d3d55502604482015290519081900360640190fd5b61249681600301548861552f565b60038201556040805188815242602082015281516001600160a01b038b169233926000805160206164fd833981519152929081900390910190a36040805186815290516000805160206164dd8339815191529181900360200190a16124fa856155e8565b6125043386614c13565b61250f88338961558c565b600061252a846003015485600201546009546014548a615686565b601554600e5460408051600160e01b6326b1f01f0281526001600160a01b03928316600482015287831660248201526044810185905290519394509116916326b1f01f91606480820192602092909190829003018186803b15801561258e57600080fd5b505afa1580156125a2573d6000803e3d6000fd5b505050506040513d60208110156125b857600080fd5b5051151560011415611e6457601554600e5460408051600160e01b6399039fcf0281526001600160a01b039283166004820152868316602482015260448101859052905191909216916399039fcf91606480830192600092919082900301818387803b15801561262757600080fd5b505af115801561263b573d6000803e3d6000fd5b5050505061264d84600301548261552f565b6003850155600d546040805183815242602082015281516001600160a01b038088169416926000805160206164fd833981519152928290030190a36040805187815290516000805160206164dd8339815191529181900360200190a16126b2866155e8565b600d546126c8906001600160a01b031687614c13565b600d54611e649084906001600160a01b03168361558c565b3360009081526008602090815260408083206001600160a01b038616845290915281205480831115612735573360009081526008602090815260408083206001600160a01b0388168452909152812055612764565b61273f8184614b88565b3360009081526008602090815260408083206001600160a01b03891684529091529020555b3360008181526008602090815260408083206001600160a01b03891680855290835292819020548151908152905192939260008051602061653d833981519152929181900390910190a35060019392505050565b600c54600090610100900460ff161561280c5760408051600160e51b62461bcd02815260206004820152600b6024820152600160a81b6a4552525f5245454e54525902604482015290519081900360640190fd5b600c805461ff001916610100179055601154600160a01b900460ff1661286a5760408051600160e51b62461bcd028152602060048201526011602482015260008051602061649d833981519152604482015290519081900360640190fd5b6001600160a01b03841660009081526013602052604090205460ff166128c85760408051600160e51b62461bcd02815260206004820152600d602482015260008051602061651d833981519152604482015290519081900360640190fd5b6001600160a01b0384166000908152601360205260409020600381015460028201546009546014546128fd9392919088615686565b600e546001600160a01b03908116600081815260136020526040812093955092918391908916141561293b5750600f546001600160a01b0316612960565b5050600f546001600160a01b039081166000908152601360205260409020600e549091165b846129a35760408051600160e51b62461bcd02815260206004820152600f602482015260008051602061655d833981519152604482015290519081900360640190fd5b858511156129ed5760408051600160e51b62461bcd02815260206004820152600c6024820152600160a11b6b22a9292fa624a6a4aa2fa4a702604482015290519081900360640190fd5b6001600160a01b038816600090815260136020526040902060030154612a1d906002670de0b6b3a7640000612352565b851115612a6a5760408051600160e51b62461bcd0281526020600482015260106024820152600160801b6f4552525f4d41585f494e5f524154494f02604482015290519081900360640190fd5b612a7884600301548661552f565b60038501556040805186815242602082015281516001600160a01b038b169233926000805160206164fd833981519152929081900390910190a36040805188815290516000805160206164dd8339815191529181900360200190a1612adc876155e8565b612ae63388614c13565b612af188338761558c565b6000612b0c836003015484600201546009546014548c615686565b601554600e5460408051600160e01b6326b1f01f0281526001600160a01b03928316600482015286831660248201526044810185905290519394509116916326b1f01f91606480820192602092909190829003018186803b158015612b7057600080fd5b505afa158015612b84573d6000803e3d6000fd5b505050506040513d6020811015612b9a57600080fd5b5051151560011415611e6457601554600e5460408051600160e01b6399039fcf0281526001600160a01b039283166004820152858316602482015260448101859052905191909216916399039fcf91606480830192600092919082900301818387803b158015612c0957600080fd5b505af1158015612c1d573d6000803e3d6000fd5b50505050612c2f83600301548261552f565b6003840155600d546040805183815242602082015281516001600160a01b038087169416926000805160206164fd833981519152928290030190a3612c73886155e8565b600d54612c89906001600160a01b031689614c13565b600d54611e649083906001600160a01b03168361558c565b6010546001600160a01b03163314612d035760408051600160e51b62461bcd02815260206004820152601560248201527f4f4e4c59204d41524b455420434f4c4c4543544f520000000000000000000000604482015290519081900360640190fd5b601080546001600160a01b0319166001600160a01b0392909216919091179055565b6001600160a01b031660009081526007602052604090205490565b620f4240670de0b6b3a7640000611600565b600c546000908190610100900460ff1615612da85760408051600160e51b62461bcd02815260206004820152600b6024820152600160a81b6a4552525f5245454e54525902604482015290519081900360640190fd5b600c805461ff001916610100179055601154600160a01b900460ff16612e065760408051600160e51b62461bcd028152602060048201526011602482015260008051602061649d833981519152604482015290519081900360640190fd5b6001600160a01b03871660009081526013602052604090205460ff16612e645760408051600160e51b62461bcd02815260206004820152600d602482015260008051602061651d833981519152604482015290519081900360640190fd5b6001600160a01b03851660009081526013602052604090205460ff16612ec25760408051600160e51b62461bcd02815260206004820152600d602482015260008051602061651d833981519152604482015290519081900360640190fd5b6001600160a01b0380881660009081526013602052604080822092881682529020600380820154612efb91670de0b6b3a7640000610d9f565b861115612f495760408051600160e51b62461bcd0281526020600482015260116024820152600160781b704552525f4d41585f4f55545f524154494f02604482015290519081900360640190fd5b6000612f678360030154846002015484600301548560020154615042565b905085811115612fc15760408051600160e51b62461bcd02815260206004820152601360248201527f4552525f4241445f4c494d49545f505249434500000000000000000000000000604482015290519081900360640190fd5b6000612fcb61647e565b604051806080016040528086600301548152602001866002015481526020018560030154815260200185600201548152509050613009818a8e615720565b60408051808201909152601481527f6171756920746f6b656e616d6f756e74206f75740000000000000000000000006020820152919850925061304c908a61593a565b61308b6040518060400160405280601381526020017f617175692062616c616e6365496e546f416464000000000000000000000000008152508361593a565b6130ca6040518060400160405280601381526020017f6171756920746f6b656e414f6d756e7420696e000000000000000000000000008152508861593a565b8a8711156131145760408051600160e51b62461bcd02815260206004820152600c6024820152600160a11b6b22a9292fa624a6a4aa2fa4a702604482015290519081900360640190fd5b61312285600301548361552f565b856003018190555061313884600301548a614b88565b6003808601829055860154600280880154908701546131579390615042565b95508286101561319f5760408051600160e51b62461bcd02815260206004820152600f602482015260008051602061655d833981519152604482015290519081900360640190fd5b878611156131ec5760408051600160e51b62461bcd02815260206004820152600f6024820152600160881b6e4552525f4c494d49545f505249434502604482015290519081900360640190fd5b6131f6878a615407565b83111561323b5760408051600160e51b62461bcd02815260206004820152600f602482015260008051602061655d833981519152604482015290519081900360640190fd5b60408051888152602081018b9052428183015290516001600160a01b03808d1692908f169133917f50ef2fc267012b5c84b56835f16ffd5331ac5a151a3760d74908721ba78b0efe919081900360600190a46132988c338961558c565b6132a38a338b614c1d565b5050505050600c805461ff001916905590969095509350505050565b60046020526000908152604090205481565b600c546000908190610100900460ff16156133275760408051600160e51b62461bcd02815260206004820152600b6024820152600160a81b6a4552525f5245454e54525902604482015290519081900360640190fd5b600c805461ff001916610100179055601154600160a01b900460ff166133855760408051600160e51b62461bcd028152602060048201526011602482015260008051602061649d833981519152604482015290519081900360640190fd5b6001600160a01b03871660009081526013602052604090205460ff166133e35760408051600160e51b62461bcd02815260206004820152600d602482015260008051602061651d833981519152604482015290519081900360640190fd5b6001600160a01b03851660009081526013602052604090205460ff166134415760408051600160e51b62461bcd02815260206004820152600d602482015260008051602061651d833981519152604482015290519081900360640190fd5b6001600160a01b0380881660009081526013602052604080822092881682529020600382015461347b906002670de0b6b3a7640000612352565b8811156134c85760408051600160e51b62461bcd0281526020600482015260106024820152600160801b6f4552525f4d41585f494e5f524154494f02604482015290519081900360640190fd5b60006134e68360030154846002015484600301548560020154615042565b9050858111156135405760408051600160e51b62461bcd02815260206004820152601360248201527f4552525f4241445f4c494d49545f505249434500000000000000000000000000604482015290519081900360640190fd5b600061354a61647e565b604051806080016040528086600301548152602001866002015481526020018560030154815260200185600201548152509050613588818c8e6159eb565b6040805180820190915260048152600160e01b636171756902602082015291985092506135b5908861593a565b6135f46040518060400160405280601381526020017f617175692062616c616e6365496e546f416464000000000000000000000000008152508361593a565b6136336040518060400160405280601381526020017f6171756920746f6b656e414f6d756e7420696e000000000000000000000000008152508c61593a565b8887101561367e5760408051600160e51b62461bcd02815260206004820152600d60248201526001609a1b6c11549497d31253525517d3d55502604482015290519081900360640190fd5b61368c85600301548361552f565b85600301819055506136a2846003015488614b88565b6003808601829055860154600280880154908701546136c19390615042565b95506137026040518060400160405280600e81526020017f73706f74507269636541667465720000000000000000000000000000000000008152508761593a565b6137416040518060400160405280601081526020017f73706f745072696365734265666f7265000000000000000000000000000000008152508461593a565b61376e604051806040016040528060088152602001600160c01b676d61785072696365028152508961593a565b828610156137b45760408051600160e51b62461bcd02815260206004820152600f602482015260008051602061655d833981519152604482015290519081900360640190fd5b878611156138015760408051600160e51b62461bcd02815260206004820152600f6024820152600160881b6e4552525f4c494d49545f505249434502604482015290519081900360640190fd5b613826604051806040016040528060018152602001600160f81b60310281525061535e565b61385183604051806040016040528060068152602001600160d01b6561717569203102815250615bd5565b61388461385e8c89615407565b604051806040016040528060058152602001600160d91b6430b8bab49902815250615bd5565b61388e8b88615407565b8311156138d35760408051600160e51b62461bcd02815260206004820152600f602482015260008051602061655d833981519152604482015290519081900360640190fd5b6138f8604051806040016040528060018152602001600160f91b60190281525061535e565b604080518c815260208101899052428183015290516001600160a01b03808d1692908f169133917f50ef2fc267012b5c84b56835f16ffd5331ac5a151a3760d74908721ba78b0efe919081900360600190a46139558c338d61558c565b6132a38a3389614c1d565b64e8d4a51000670de0b6b3a7640000611600565b601154600160a01b900460ff1690565b6011546001600160a01b031633146139d45760408051600160e51b62461bcd0281526020600482015260086024820152600160c11b6727a7262c9027a82302604482015290519081900360640190fd5b60606139de614124565b905060005b8151811015613b82576000600460008484815181106139fe57fe5b60200260200101516001600160a01b03166001600160a01b031681526020019081526020016000205460036000858581518110613a3757fe5b60200260200101516001600160a01b03166001600160a01b03168152602001908152602001600020540390508060046000858581518110613a7457fe5b60200260200101516001600160a01b03166001600160a01b03168152602001908152602001600020540160046000858581518110613aae57fe5b60200260200101516001600160a01b03166001600160a01b0316815260200190815260200160002081905550828281518110613ae657fe5b60200260200101516001600160a01b031663a9059cbb85836040518363ffffffff1660e01b815260040180836001600160a01b03166001600160a01b0316815260200182815260200192505050602060405180830381600087803b158015613b4d57600080fd5b505af1158015613b61573d6000803e3d6000fd5b505050506040513d6020811015613b7757600080fd5b5050506001016139e3565b505050565b600c54600090610100900460ff1615613bdb5760408051600160e51b62461bcd02815260206004820152600b6024820152600160a81b6a4552525f5245454e54525902604482015290519081900360640190fd5b5060145490565b68056bc75e2d6310000081565b600c54600090610100900460ff1615613c435760408051600160e51b62461bcd02815260206004820152600b6024820152600160a81b6a4552525f5245454e54525902604482015290519081900360640190fd5b6001600160a01b03821660009081526013602052604090205460ff16613ca15760408051600160e51b62461bcd02815260206004820152600d602482015260008051602061651d833981519152604482015290519081900360640190fd5b506001600160a01b031660009081526013602052604090206002015490565b600b8054604080516020601f60026000196101006001881615020190951694909404938401819004810282018101909252828152606093909290918301828280156112695780601f1061123e57610100808354040283529160200191611269565b6704a03ce68d21555681565b6010546001600160a01b031681565b6000613d49338484615240565b50600192915050565b600c54610100900460ff1615613da35760408051600160e51b62461bcd02815260206004820152600b6024820152600160a81b6a4552525f5245454e54525902604482015290519081900360640190fd5b600c805461ff001916610100179055601154600160a01b900460ff16613e015760408051600160e51b62461bcd028152602060048201526011602482015260008051602061649d833981519152604482015290519081900360640190fd5b600080805b601254811015613eb457600e54601280546001600160a01b039092169183908110613e2d57fe5b6000918252602090912001546001600160a01b03161415613e5e57848482818110613e5457fe5b9050602002013592505b600f54601280546001600160a01b039092169183908110613e7b57fe5b6000918252602090912001546001600160a01b03161415613eac57848482818110613ea257fe5b9050602002013591505b600101613e06565b506000613ebf6115ea565b90506000613ece8760006149ef565b90506000613edc8883614b88565b90506000613eea8285615407565b905080613f2f5760408051600160e51b62461bcd02815260206004820152600f602482015260008051602061655d833981519152604482015290519081900360640190fd5b613f39338a614bf9565b600c54613f55906201000090046001600160a01b031684614c13565b613f5e82614c07565b60005b6012548110156140dc57600060128281548110613f7a57fe5b60009182526020808320909101546001600160a01b03168083526013909152604082206003015490925090613faf85836149ef565b905080613ff45760408051600160e51b62461bcd02815260206004820152600f602482015260008051602061655d833981519152604482015290519081900360640190fd5b8b8b8581811061400057fe5b905060200201358110156140515760408051600160e51b62461bcd02815260206004820152600d60248201526001609a1b6c11549497d31253525517d3d55502604482015290519081900360640190fd5b6001600160a01b0383166000908152601360205260409020600301546140779082614b88565b6001600160a01b03841660008181526013602090815260409182902060030193909355805184815242938101939093528051919233926000805160206164bd833981519152929181900390910190a36140d1833383614c1d565b505050600101613f61565b5050600c805461ff00191690555050505050505050565b600881565b600281565b60005481565b600181565b600a670de0b6b3a7640000611600565b671bc16d674ec7ffff81565b600c54606090610100900460ff16156141785760408051600160e51b62461bcd02815260206004820152600b6024820152600160a81b6a4552525f5245454e54525902604482015290519081900360640190fd5b601154600160a01b900460ff166141c75760408051600160e51b62461bcd028152602060048201526011602482015260008051602061649d833981519152604482015290519081900360640190fd5b601280548060200260200160405190810160405280929190818152602001828054801561126957602002820191906000526020600020905b81546001600160a01b031681526001909101906020018083116141ff575050505050905090565b601554600090600160a01b900460ff161561428b5760408051600160e51b62461bcd02815260206004820152601760248201527f4552525f414c52454144595f494e495449414c495a4544000000000000000000604482015290519081900360640190fd5b6001600160a01b0389166142e95760408051600160e51b62461bcd02815260206004820152601e60248201527f4552525f494e56414c49445f434f4e54524f4c4c45525f414444524553530000604482015290519081900360640190fd5b6001600160a01b0388166143475760408051600160e51b62461bcd02815260206004820152601b60248201527f4552525f494e56414c49445f464143544f52595f414444524553530000000000604482015290519081900360640190fd5b64e8d4a51000878760008161435857fe5b9050602002013510156143a65760408051600160e51b62461bcd02815260206004820152600b6024820152600160a81b6a4552525f4d494e5f46454502604482015290519081900360640190fd5b67016345785d8a000087876000816143ba57fe5b9050602002013511156144085760408051600160e51b62461bcd02815260206004820152600b6024820152600160a81b6a4552525f4d41585f46454502604482015290519081900360640190fd5b61448e8989898980806020026020016040519081016040528093929190818152602001838360200280828437600092019190915250506040805180820182528c93508b9250908a9060029083908390808284376000920191909152505060408051808201825291508a906002908390839080828437600092019190915250615c86915050565b9998505050505050505050565b600081565b600c54606090610100900460ff16156141c75760408051600160e51b62461bcd02815260206004820152600b6024820152600160a81b6a4552525f5245454e54525902604482015290519081900360640190fd5b60125490565b60025490565b3360009081526008602090815260408083206001600160a01b038616845290915281205461452e908361552f565b3360008181526008602090815260408083206001600160a01b03891680855290835292819020859055805194855251919360008051602061653d833981519152929081900390910190a350600192915050565b6001600160a01b03918216600090815260086020908152604080832093909416825291909152205490565b6002670de0b6b3a7640000611600565b6011546001600160a01b031681565b600c54600090610100900460ff161561461f5760408051600160e51b62461bcd02815260206004820152600b6024820152600160a81b6a4552525f5245454e54525902604482015290519081900360640190fd5b6001600160a01b03821660009081526013602052604090205460ff1661467d5760408051600160e51b62461bcd02815260206004820152600d602482015260008051602061651d833981519152604482015290519081900360640190fd5b6001600160a01b0382166000908152601360205260409020600201546014546146a7908290615407565b9392505050565b60066020526000908152604090205481565b600c54600090610100900460ff16156147145760408051600160e51b62461bcd02815260206004820152600b6024820152600160a81b6a4552525f5245454e54525902604482015290519081900360640190fd5b6001600160a01b03821660009081526013602052604090205460ff166147725760408051600160e51b62461bcd02815260206004820152600d602482015260008051602061651d833981519152604482015290519081900360640190fd5b506001600160a01b031660009081526013602052604090206003015490565b6147cf6040518060400160405280600d81526020017f636f6c6c6563744d61726b74650000000000000000000000000000000000000081525061535e565b6010546001600160a01b031633146148315760408051600160e51b62461bcd02815260206004820152601560248201527f4f4e4c59204d41524b455420434f4c4c4543544f520000000000000000000000604482015290519081900360640190fd5b606061483b614124565b905060005b8151811015613b825760006006600084848151811061485b57fe5b60200260200101516001600160a01b03166001600160a01b03168152602001908152602001600020546005600085858151811061489457fe5b60200260200101516001600160a01b03166001600160a01b031681526020019081526020016000205403905080600660008585815181106148d157fe5b60200260200101516001600160a01b03166001600160a01b0316815260200190815260200160002054016006600085858151811061490b57fe5b60200260200101516001600160a01b03166001600160a01b031681526020019081526020016000208190555082828151811061494357fe5b60200260200101516001600160a01b031663a9059cbb85836040518363ffffffff1660e01b815260040180836001600160a01b03166001600160a01b0316815260200182815260200192505050602060405180830381600087803b1580156149aa57600080fd5b505af11580156149be573d6000803e3d6000fd5b505050506040513d60208110156149d457600080fd5b505050600101614840565b600d54600160a01b900460ff1690565b6000828202831580614a09575082848281614a0657fe5b04145b614a535760408051600160e51b62461bcd0281526020600482015260106024820152600160801b6f4552525f4d554c5f4f564552464c4f5702604482015290519081900360640190fd5b6706f05b59d3b20000810181811015614aac5760408051600160e51b62461bcd0281526020600482015260106024820152600160801b6f4552525f4d554c5f4f564552464c4f5702604482015290519081900360640190fd5b6000670de0b6b3a7640000825b049695505050505050565b600080614ad18685615407565b90506000614ae7670de0b6b3a764000083614b88565b90506000614af7826002546149ef565b90506000614b1686614b11670de0b6b3a764000085614b88565b615407565b90506000614b248b83614b88565b90506000614b32828d615407565b90506000614b408288615dc2565b90506000614b4e828d6149ef565b90506000614b5c8d83614b88565b9050614b7581614b11670de0b6b3a76400006000614b88565b9f9e505050505050505050505050505050565b6000806000614b978585615ee5565b915091508015614bf15760408051600160e51b62461bcd02815260206004820152601160248201527f4552525f5355425f554e444552464c4f57000000000000000000000000000000604482015290519081900360640190fd5b509392505050565b614c038282615f0a565b5050565b614c1081615f15565b50565b614c038282615ff1565b60408051600160e01b63a9059cbb0281526001600160a01b03848116600483015260248201849052915160009286169163a9059cbb91604480830192602092919082900301818787803b158015614c7357600080fd5b505af1158015614c87573d6000803e3d6000fd5b505050506040513d6020811015614c9d57600080fd5b5051905080614cf65760408051600160e51b62461bcd02815260206004820152600f60248201527f4552525f45524332305f46414c53450000000000000000000000000000000000604482015290519081900360640190fd5b50505050565b600080614d098685615407565b90506000614d2984614d24670de0b6b3a76400006000614b88565b6149ef565b90506000614d378783614b88565b90506000614d458289615407565b90506000614d6482614d5f670de0b6b3a764000088615407565b615dc2565b90506000614d72828d6149ef565b90506000614d808d83614b88565b90506000614da1614d99670de0b6b3a76400008a614b88565b6002546149ef565b9050614db982614d24670de0b6b3a764000084614b88565b9e9d5050505050505050505050505050565b600d546001600160a01b03163314614e255760408051600160e51b62461bcd0281526020600482015260126024820152600160711b7122a9292fa727aa2fa1a7a72a2927a62622a902604482015290519081900360640190fd5b6001600160a01b03831660009081526013602052604090205460ff1615614e965760408051600160e51b62461bcd02815260206004820152600c60248201527f4552525f49535f424f554e440000000000000000000000000000000000000000604482015290519081900360640190fd5b601154600160a01b900460ff1615614eee5760408051600160e51b62461bcd0281526020600482015260106024820152600160821b6f11549497d254d7d1925390531256915102604482015290519081900360640190fd5b601254600811614f485760408051600160e51b62461bcd02815260206004820152600e60248201527f4552525f4d41585f544f4b454e53000000000000000000000000000000000000604482015290519081900360640190fd5b6040805160808101825260018082526012805460208085019182526000858701818152606087018281526001600160a01b038c1680845260139094529782209651875460ff1916901515178755925186860155915160028601559451600390940193909355805491820181559091527fbb8a6a4669ba250d26cd7a459eca9d215f8307e33aebe50379bc5a3617ec34440180546001600160a01b0319169091179055613b82838383615ffc565b60118054600160a01b600160a01b60ff02199182168117909255600d8054909116909117905561502d68056bc75e2d631000006155e8565b6150403368056bc75e2d63100000614c13565b565b60006150836040518060400160405280600e81526020017f746f6b656e42616c616e6365496e0000000000000000000000000000000000008152508661593a565b6150c26040518060400160405280600f81526020017f746f6b656e42616c616e63654f757400000000000000000000000000000000008152508461593a565b615101846040518060400160405280600d81526020017f746f6b656e576569676874496e00000000000000000000000000000000000000815250615bd5565b615140826040518060400160405280600e81526020017f746f6b656e5765696768744f7574000000000000000000000000000000000000815250615bd5565b600061514c8686615407565b9050600061515a8585615407565b905060006151688383615407565b905061519481604051806040016040528060058152602001600160d81b64726174696f02815250615bd5565b6151be83604051806040016040528060058152602001600160d91b64373ab6b2b902815250615bd5565b6151e882604051806040016040528060058152602001600160d81b6464656e6f6d02815250615bd5565b600061520a670de0b6b3a7640000614b11670de0b6b3a7640000600254614b88565b9050615236604051806040016040528060058152602001600160d81b647363616c65028152508261593a565b61448e82826149ef565b6001600160a01b0383166000908152600760205260409020548111156152b05760408051600160e51b62461bcd02815260206004820152601460248201527f4552525f494e53554646494349454e545f42414c000000000000000000000000604482015290519081900360640190fd5b6001600160a01b0383166000908152600760205260409020546152d39082614b88565b6001600160a01b038085166000908152600760205260408082209390935590841681522054615302908261552f565b6001600160a01b0380841660008181526007602090815260409182902094909455805185815290519193928716927fddf252ad1be2c89b69c2b068fc378daa952ba7f163c4a11628f55a4df523b3ef92918290030190a3505050565b614c10816040516024018080602001828103825283818151815260200191508051906020019080838360005b838110156153a257818101518382015260200161538a565b50505050905090810190601f1680156153cf5780820380516001836020036101000a031916815260200191505b5060408051601f198184030181529190526020810180516001600160e01b0316600160e21b63104c13eb021790529250616281915050565b60008161545e5760408051600160e51b62461bcd02815260206004820152600c60248201527f4552525f4449565f5a45524f0000000000000000000000000000000000000000604482015290519081900360640190fd5b670de0b6b3a764000083028315806154865750670de0b6b3a764000084828161548357fe5b04145b6154d05760408051600160e51b62461bcd0281526020600482015260106024820152600160821b6f11549497d1125597d25395115493905302604482015290519081900360640190fd5b600283048101818110156155245760408051600160e51b62461bcd0281526020600482015260106024820152600160821b6f11549497d1125597d25395115493905302604482015290519081900360640190fd5b6000848281614ab957fe5b6000828201838110156146a75760408051600160e51b62461bcd02815260206004820152601060248201527f4552525f4144445f4f564552464c4f5700000000000000000000000000000000604482015290519081900360640190fd5b60408051600160e01b6323b872dd0281526001600160a01b0384811660048301523060248301526044820184905291516000928616916323b872dd91606480830192602092919082900301818787803b158015614c7357600080fd5b614c10816162a2565b6000806155fe8685615407565b90506000615617614d99670de0b6b3a764000084614b88565b9050600061563185614d24670de0b6b3a764000085614b88565b9050600061563f8a8361552f565b9050600061564d828c615407565b9050600061565b8287615dc2565b90506000615669828c6149ef565b9050615675818c614b88565b9d9c50505050505050505050505050565b6000806156938685615407565b905060006156a1868561552f565b905060006156af8288615407565b905060006156c5670de0b6b3a764000085615407565b905060006156d38383615dc2565b905060006156e1828d6149ef565b905060006156ef828e614b88565b90506000615708614d99670de0b6b3a76400008a614b88565b9050614db982614b11670de0b6b3a764000084614b88565b6000808061573d86600360200201518760015b6020020151615407565b90506000615752876002602002015187614b88565b90506000615767886002602002015183615407565b905060006157758285615dc2565b905061578981670de0b6b3a7640000614b88565b90506000600154600054600254010190506157ca6157b88b6000600481106157ad57fe5b6020020151846149ef565b614b11670de0b6b3a764000084614b88565b965060006157ef886157ea8a614d24670de0b6b3a7640000600054614b88565b614b88565b6001600160a01b038a16600090815260036020526040902054909150615815908261552f565b600360008b6001600160a01b03166001600160a01b0316815260200190815260200160002081905550600061585c896157ea8b614d24670de0b6b3a7640000600154614b88565b6001600160a01b038b16600090815260056020526040902054909150615882908261552f565b6001600160a01b038b166000908152600560205260409020558b516158bf906158ab90866149ef565b614b11670de0b6b3a7640000600254614b88565b97507f90d9f1d0641138b6407ac37bea3a905d63a371c2d91a484f68d59924634d4ef36158fe8a6157ea8c614d24670de0b6b3a7640000600254614b88565b60408051918252602082018590528181018490526001600160a01b038d166060830152519081900360800190a150505050505050935093915050565b614c0382826040516024018080602001838152602001828103825284818151815260200191508051906020019080838360005b8381101561598557818101518382015260200161596d565b50505050905090810190601f1680156159b25780820380516001836020036101000a031916815260200191505b5060408051601f198184030181529190526020810180516001600160e01b0316600160e41b6309710a9d02179052935061628192505050565b60008080615a028660016020020151876003615733565b90506000615a22866157ea88614d24670de0b6b3a7640000600054614b88565b6001600160a01b038616600090815260036020526040902054909150615a48908261552f565b60036000876001600160a01b03166001600160a01b03168152602001908152602001600020819055506000615a8f876157ea89614d24670de0b6b3a7640000600154614b88565b6001600160a01b038716600090815260056020526040902054909150615ab5908261552f565b6001600160a01b0387166000908152600560205260409020556002548083018201907f90d9f1d0641138b6407ac37bea3a905d63a371c2d91a484f68d59924634d4ef390615b18908a906157ea908290614d2490670de0b6b3a764000090614b88565b60408051918252602082018690528181018590526001600160a01b038a166060830152519081900360800190a16000615b59670de0b6b3a764000083614b88565b9050615b6589826149ef565b8a51909150600090615b7b90614b11818561552f565b90506000615b898288615dc2565b90506000615b9f670de0b6b3a764000083614b88565b9050615bb28d60026020020151826149ef565b995089615bc18d888a01614b88565b995099505050505050505050935093915050565b614c0382826040516024018083815260200180602001828103825283818151815260200191508051906020019080838360005b83811015615c20578181015183820152602001615c08565b50505050905090810190601f168015615c4d5780820380516001836020036101000a031916815260200191505b5060408051601f198184030181529190526020810180516001600160e01b0316600160e01b630fa3f34502179052935061628192505050565b600d80546001600160a01b0319166001600160a01b0389811691909117909155600c805462010000600160b01b0319166201000092891692909202919091179055845160009086908290615cd657fe5b602002602001015160028190555085600181518110615cf157fe5b602002602001015160008190555085600281518110615d0c57fe5b602090810291909101810151600155600d8054961515600160a01b908102600160a01b60ff02199889161791829055601180548751600e80546001600160a01b03199081166001600160a01b039384161790915598860151600f80548b169183169190911790558751601080548b169183169190911790559690940151861697151582029389169390931786169690961790915560158054909616851790931691909216179283905550900460ff169392505050565b60006001831015615e1d5760408051600160e51b62461bcd02815260206004820152601560248201527f4552525f42504f575f424153455f544f4f5f4c4f570000000000000000000000604482015290519081900360640190fd5b671bc16d674ec7ffff831115615e7d5760408051600160e51b62461bcd02815260206004820152601660248201527f4552525f42504f575f424153455f544f4f5f4849474800000000000000000000604482015290519081900360640190fd5b6000615e8883616317565b90506000615e968483614b88565b90506000615eac86615ea785616332565b616340565b905081615ebd5792506112c2915050565b6000615ece87846305f5e1006163a0565b9050615eda82826149ef565b979650505050505050565b600080828410615efb5750508082036000615f03565b505081810360015b9250929050565b614c03823083615240565b30600090815260076020526040902054811115615f7c5760408051600160e51b62461bcd02815260206004820152601460248201527f4552525f494e53554646494349454e545f42414c000000000000000000000000604482015290519081900360640190fd5b30600090815260076020526040902054615f969082614b88565b30600090815260076020526040902055600954615fb39082614b88565b60095560408051828152905160009130917fddf252ad1be2c89b69c2b068fc378daa952ba7f163c4a11628f55a4df523b3ef9181900360200190a350565b614c03308383615240565b670de0b6b3a764000081101561605c5760408051600160e51b62461bcd02815260206004820152600e60248201527f4552525f4d494e5f574549474854000000000000000000000000000000000000604482015290519081900360640190fd5b6802b5e3af16b18800008111156160bd5760408051600160e51b62461bcd02815260206004820152600e60248201527f4552525f4d41585f574549474854000000000000000000000000000000000000604482015290519081900360640190fd5b620f42408210156161185760408051600160e51b62461bcd02815260206004820152600f60248201527f4552525f4d494e5f42414c414e43450000000000000000000000000000000000604482015290519081900360640190fd5b6001600160a01b038316600090815260136020526040902060020154808211156161bb5761615160145461614c8484614b88565b61552f565b60148190556802b5e3af16b188000010156161b65760408051600160e51b62461bcd02815260206004820152601460248201527f4552525f4d41585f544f54414c5f574549474854000000000000000000000000604482015290519081900360640190fd5b6161d7565b808210156161d7576161d36014546157ea8385614b88565b6014555b6001600160a01b038416600090815260136020526040902060028101839055600301805490849055808411156162205761621b85336162168785614b88565b61558c565b61627a565b8084101561627a5760006162348286614b88565b905060006162438260006149ef565b905061625987336162548585614b88565b614c1d565b600c546162779088906201000090046001600160a01b031683614c1d565b50505b5050505050565b80516a636f6e736f6c652e6c6f67602083016000808483855afa5050505050565b306000908152600760205260409020546162bc908261552f565b306000908152600760205260409020556009546162d9908261552f565b60095560408051828152905130916000917fddf252ad1be2c89b69c2b068fc378daa952ba7f163c4a11628f55a4df523b3ef9181900360200190a350565b6000670de0b6b3a764000061632b83616332565b0292915050565b670de0b6b3a7640000900490565b600082816002840661635a57670de0b6b3a764000061635c565b815b90506002840493505b83156163985761637582836149ef565b9150600284061561638d5761638a81836149ef565b90505b600284049350616365565b949350505050565b60008281806163b787670de0b6b3a7640000615ee5565b9092509050670de0b6b3a764000080600060015b88841061646f576000670de0b6b3a7640000820290506000806163ff8a6163fa85670de0b6b3a7640000614b88565b615ee5565b9150915061641187614d24848c6149ef565b965061641d8784615407565b96508661642c5750505061646f565b8715616436579315935b8015616440579315935b8415616457576164508688614b88565b9550616464565b616461868861552f565b95505b5050506001016163cb565b50909998505050505050505050565b6040518060800160405280600490602082028038833950919291505056fe4552525f4e4f545f46494e414c495a45440000000000000000000000000000009d9058fd2f25ccc389fec7720abef0ca83472f5abfafd5f10d37f51e6a0493f3fcda32798d5a9d032f49b37fea876d422f18f6e386e0f07db6029b693624b2c215a8ca63e37b2cff1677df2b6b82d36fcf8a524228bd7a4b4d02d107c28c1e8a4552525f4e4f545f424f554e44000000000000000000000000000000000000008c5be1e5ebec7d5bd14f71427d1e84f3dd0314c0f7b2291e5b200ac8c7c3b9254552525f4d4154485f415050524f580000000000000000000000000000000000a165627a7a723058205fee23afbca7c3731a100b4ac5b7eaa2a64059fc2684ad2db4b51ecdae2392aa0029",
  "linkReferences": {},
  "deployedLinkReferences": {}
}