{
  "_format": "hh-sol-artifact-1",
  "contractName": "BPool",
  "sourceName": "contracts/v3/balancer/BPool.sol",
  "abi": [
    {
      "constant": false,
      "inputs": [
        {
          "name": "tokenOut",
          "type": "address"
        },
        {
          "name": "tokenAmountOut",
          "type": "uint256"
        },
        {
          "name": "maxPoolAmountIn",
          "type": "uint256"
        }
      ],
      "name": "exitswapExternAmountOut",
      "outputs": [
        {
          "name": "poolAmountIn",
          "type": "uint256"
        }
      ],
      "payable": false,
      "stateMutability": "nonpayable",
      "type": "function"
    },
    {
      "constant": true,
      "inputs": [
        {
          "name": "tokenIn",
          "type": "address"
        },
        {
          "name": "tokenAmountIn",
          "type": "uint256"
        }
      ],
      "name": "ScalcPoolOutGivenSingleIn",
      "outputs": [
        {
          "name": "",
          "type": "uint256"
        }
      ],
      "payable": false,
      "stateMutability": "view",
      "type": "function"
    },
    {
      "constant": true,
      "inputs": [],
      "name": "getDataTokenAddress",
      "outputs": [
        {
          "name": "",
          "type": "address"
        }
      ],
      "payable": false,
      "stateMutability": "view",
      "type": "function"
    },
    {
      "constant": true,
      "inputs": [],
      "name": "name",
      "outputs": [
        {
          "name": "",
          "type": "string"
        }
      ],
      "payable": false,
      "stateMutability": "view",
      "type": "function"
    },
    {
      "constant": false,
      "inputs": [
        {
          "name": "dst",
          "type": "address"
        },
        {
          "name": "amt",
          "type": "uint256"
        }
      ],
      "name": "approve",
      "outputs": [
        {
          "name": "",
          "type": "bool"
        }
      ],
      "payable": false,
      "stateMutability": "nonpayable",
      "type": "function"
    },
    {
      "constant": true,
      "inputs": [],
      "name": "MAX_TOTAL_WEIGHT",
      "outputs": [
        {
          "name": "",
          "type": "uint256"
        }
      ],
      "payable": false,
      "stateMutability": "view",
      "type": "function"
    },
    {
      "constant": false,
      "inputs": [
        {
          "name": "dataTokenAaddress",
          "type": "address"
        },
        {
          "name": "dataTokenAmount",
          "type": "uint256"
        },
        {
          "name": "dataTokenWeight",
          "type": "uint256"
        },
        {
          "name": "baseTokenAddress",
          "type": "address"
        },
        {
          "name": "baseTokenAmount",
          "type": "uint256"
        },
        {
          "name": "baseTokenWeight",
          "type": "uint256"
        }
      ],
      "name": "setup",
      "outputs": [],
      "payable": false,
      "stateMutability": "nonpayable",
      "type": "function"
    },
    {
      "constant": true,
      "inputs": [
        {
          "name": "tokenBalanceIn",
          "type": "uint256"
        },
        {
          "name": "tokenWeightIn",
          "type": "uint256"
        },
        {
          "name": "tokenBalanceOut",
          "type": "uint256"
        },
        {
          "name": "tokenWeightOut",
          "type": "uint256"
        },
        {
          "name": "tokenAmountIn",
          "type": "uint256"
        }
      ],
      "name": "calcOutGivenIn",
      "outputs": [
        {
          "name": "tokenAmountOut",
          "type": "uint256"
        }
      ],
      "payable": false,
      "stateMutability": "view",
      "type": "function"
    },
    {
      "constant": true,
      "inputs": [
        {
          "name": "tokenIn",
          "type": "address"
        },
        {
          "name": "tokenOut",
          "type": "address"
        }
      ],
      "name": "getSpotPriceSansFee",
      "outputs": [
        {
          "name": "spotPrice",
          "type": "uint256"
        }
      ],
      "payable": false,
      "stateMutability": "view",
      "type": "function"
    },
    {
      "constant": true,
      "inputs": [
        {
          "name": "tokenIn",
          "type": "address"
        },
        {
          "name": "tokenOut",
          "type": "address"
        }
      ],
      "name": "getSpotPrice",
      "outputs": [
        {
          "name": "spotPrice",
          "type": "uint256"
        }
      ],
      "payable": false,
      "stateMutability": "view",
      "type": "function"
    },
    {
      "constant": true,
      "inputs": [],
      "name": "totalSupply",
      "outputs": [
        {
          "name": "",
          "type": "uint256"
        }
      ],
      "payable": false,
      "stateMutability": "view",
      "type": "function"
    },
    {
      "constant": true,
      "inputs": [],
      "name": "BPOW_PRECISION",
      "outputs": [
        {
          "name": "",
          "type": "uint256"
        }
      ],
      "payable": false,
      "stateMutability": "view",
      "type": "function"
    },
    {
      "constant": true,
      "inputs": [],
      "name": "MIN_WEIGHT",
      "outputs": [
        {
          "name": "",
          "type": "uint256"
        }
      ],
      "payable": false,
      "stateMutability": "view",
      "type": "function"
    },
    {
      "constant": false,
      "inputs": [
        {
          "name": "src",
          "type": "address"
        },
        {
          "name": "dst",
          "type": "address"
        },
        {
          "name": "amt",
          "type": "uint256"
        }
      ],
      "name": "transferFrom",
      "outputs": [
        {
          "name": "",
          "type": "bool"
        }
      ],
      "payable": false,
      "stateMutability": "nonpayable",
      "type": "function"
    },
    {
      "constant": true,
      "inputs": [
        {
          "name": "t",
          "type": "address"
        }
      ],
      "name": "isBound",
      "outputs": [
        {
          "name": "",
          "type": "bool"
        }
      ],
      "payable": false,
      "stateMutability": "view",
      "type": "function"
    },
    {
      "constant": true,
      "inputs": [
        {
          "name": "",
          "type": "address"
        }
      ],
      "name": "communityFees",
      "outputs": [
        {
          "name": "",
          "type": "uint256"
        }
      ],
      "payable": false,
      "stateMutability": "view",
      "type": "function"
    },
    {
      "constant": true,
      "inputs": [],
      "name": "getController",
      "outputs": [
        {
          "name": "",
          "type": "address"
        }
      ],
      "payable": false,
      "stateMutability": "view",
      "type": "function"
    },
    {
      "constant": true,
      "inputs": [],
      "name": "decimals",
      "outputs": [
        {
          "name": "",
          "type": "uint8"
        }
      ],
      "payable": false,
      "stateMutability": "view",
      "type": "function"
    },
    {
      "constant": true,
      "inputs": [
        {
          "name": "",
          "type": "address"
        }
      ],
      "name": "marketFees",
      "outputs": [
        {
          "name": "",
          "type": "uint256"
        }
      ],
      "payable": false,
      "stateMutability": "view",
      "type": "function"
    },
    {
      "constant": false,
      "inputs": [
        {
          "name": "swapFee",
          "type": "uint256"
        }
      ],
      "name": "setSwapFee",
      "outputs": [],
      "payable": false,
      "stateMutability": "nonpayable",
      "type": "function"
    },
    {
      "constant": true,
      "inputs": [],
      "name": "isInitialized",
      "outputs": [
        {
          "name": "",
          "type": "bool"
        }
      ],
      "payable": false,
      "stateMutability": "view",
      "type": "function"
    },
    {
      "constant": false,
      "inputs": [
        {
          "name": "token",
          "type": "address"
        },
        {
          "name": "balance",
          "type": "uint256"
        },
        {
          "name": "denorm",
          "type": "uint256"
        }
      ],
      "name": "rebind",
      "outputs": [],
      "payable": false,
      "stateMutability": "nonpayable",
      "type": "function"
    },
    {
      "constant": false,
      "inputs": [
        {
          "name": "tokenOut",
          "type": "address"
        },
        {
          "name": "poolAmountIn",
          "type": "uint256"
        },
        {
          "name": "minAmountOut",
          "type": "uint256"
        }
      ],
      "name": "exitswapPoolAmountIn",
      "outputs": [
        {
          "name": "tokenAmountOut",
          "type": "uint256"
        }
      ],
      "payable": false,
      "stateMutability": "nonpayable",
      "type": "function"
    },
    {
      "constant": false,
      "inputs": [
        {
          "name": "public_",
          "type": "bool"
        }
      ],
      "name": "setPublicSwap",
      "outputs": [],
      "payable": false,
      "stateMutability": "nonpayable",
      "type": "function"
    },
    {
      "constant": true,
      "inputs": [],
      "name": "_swapMarketFee",
      "outputs": [
        {
          "name": "",
          "type": "uint256"
        }
      ],
      "payable": false,
      "stateMutability": "view",
      "type": "function"
    },
    {
      "constant": false,
      "inputs": [],
      "name": "finalize",
      "outputs": [],
      "payable": false,
      "stateMutability": "nonpayable",
      "type": "function"
    },
    {
      "constant": true,
      "inputs": [],
      "name": "getBaseTokenAddress",
      "outputs": [
        {
          "name": "",
          "type": "address"
        }
      ],
      "payable": false,
      "stateMutability": "view",
      "type": "function"
    },
    {
      "constant": false,
      "inputs": [
        {
          "name": "poolAmountOut",
          "type": "uint256"
        },
        {
          "name": "maxAmountsIn",
          "type": "uint256[]"
        }
      ],
      "name": "joinPool",
      "outputs": [],
      "payable": false,
      "stateMutability": "nonpayable",
      "type": "function"
    },
    {
      "constant": true,
      "inputs": [
        {
          "name": "tokenBalanceIn",
          "type": "uint256"
        },
        {
          "name": "tokenWeightIn",
          "type": "uint256"
        },
        {
          "name": "tokenBalanceOut",
          "type": "uint256"
        },
        {
          "name": "tokenWeightOut",
          "type": "uint256"
        },
        {
          "name": "tokenAmountOut",
          "type": "uint256"
        }
      ],
      "name": "calcInGivenOutSwap",
      "outputs": [
        {
          "name": "tokenAmountIn",
          "type": "uint256"
        }
      ],
      "payable": false,
      "stateMutability": "view",
      "type": "function"
    },
    {
      "constant": true,
      "inputs": [
        {
          "name": "tokenBalanceIn",
          "type": "uint256"
        },
        {
          "name": "tokenWeightIn",
          "type": "uint256"
        },
        {
          "name": "poolSupply",
          "type": "uint256"
        },
        {
          "name": "totalWeight",
          "type": "uint256"
        },
        {
          "name": "poolAmountOut",
          "type": "uint256"
        },
        {
          "name": "swapFee",
          "type": "uint256"
        }
      ],
      "name": "calcSingleInGivenPoolOut",
      "outputs": [
        {
          "name": "tokenAmountIn",
          "type": "uint256"
        }
      ],
      "payable": false,
      "stateMutability": "pure",
      "type": "function"
    },
    {
      "constant": true,
      "inputs": [
        {
          "name": "tokenBalanceIn",
          "type": "uint256"
        },
        {
          "name": "tokenWeightIn",
          "type": "uint256"
        },
        {
          "name": "tokenBalanceOut",
          "type": "uint256"
        },
        {
          "name": "tokenWeightOut",
          "type": "uint256"
        }
      ],
      "name": "calcSpotPrice",
      "outputs": [
        {
          "name": "spotPrice",
          "type": "uint256"
        }
      ],
      "payable": false,
      "stateMutability": "view",
      "type": "function"
    },
    {
      "constant": false,
      "inputs": [
        {
          "name": "tokenIn",
          "type": "address"
        },
        {
          "name": "tokenAmountIn",
          "type": "uint256"
        },
        {
          "name": "minPoolAmountOut",
          "type": "uint256"
        }
      ],
      "name": "joinswapExternAmountIn",
      "outputs": [
        {
          "name": "poolAmountOut",
          "type": "uint256"
        }
      ],
      "payable": false,
      "stateMutability": "nonpayable",
      "type": "function"
    },
    {
      "constant": false,
      "inputs": [
        {
          "name": "dst",
          "type": "address"
        },
        {
          "name": "amt",
          "type": "uint256"
        }
      ],
      "name": "decreaseApproval",
      "outputs": [
        {
          "name": "",
          "type": "bool"
        }
      ],
      "payable": false,
      "stateMutability": "nonpayable",
      "type": "function"
    },
    {
      "constant": true,
      "inputs": [
        {
          "name": "tokenOut",
          "type": "address"
        },
        {
          "name": "tokenAmountOut",
          "type": "uint256"
        }
      ],
      "name": "ScalcPoolInGivenSingleOut",
      "outputs": [
        {
          "name": "",
          "type": "uint256"
        }
      ],
      "payable": false,
      "stateMutability": "view",
      "type": "function"
    },
    {
      "constant": true,
      "inputs": [
        {
          "name": "tokenIn",
          "type": "address"
        },
        {
          "name": "tokenOut",
          "type": "address"
        }
      ],
      "name": "ScalcSpotPrice",
      "outputs": [
        {
          "name": "",
          "type": "uint256"
        }
      ],
      "payable": false,
      "stateMutability": "view",
      "type": "function"
    },
    {
      "constant": true,
      "inputs": [
        {
          "name": "tokenBalanceIn",
          "type": "uint256"
        },
        {
          "name": "tokenWeightIn",
          "type": "uint256"
        },
        {
          "name": "poolSupply",
          "type": "uint256"
        },
        {
          "name": "totalWeight",
          "type": "uint256"
        },
        {
          "name": "poolAmountOut",
          "type": "uint256"
        }
      ],
      "name": "calcSingleInGivenPoolOut",
      "outputs": [
        {
          "name": "tokenAmountIn",
          "type": "uint256"
        }
      ],
      "payable": false,
      "stateMutability": "view",
      "type": "function"
    },
    {
      "constant": false,
      "inputs": [
        {
          "name": "tokenIn",
          "type": "address"
        },
        {
          "name": "poolAmountOut",
          "type": "uint256"
        },
        {
          "name": "maxAmountIn",
          "type": "uint256"
        }
      ],
      "name": "joinswapPoolAmountOut",
      "outputs": [
        {
          "name": "tokenAmountIn",
          "type": "uint256"
        }
      ],
      "payable": false,
      "stateMutability": "nonpayable",
      "type": "function"
    },
    {
      "constant": true,
      "inputs": [
        {
          "name": "whom",
          "type": "address"
        }
      ],
      "name": "balanceOf",
      "outputs": [
        {
          "name": "",
          "type": "uint256"
        }
      ],
      "payable": false,
      "stateMutability": "view",
      "type": "function"
    },
    {
      "constant": true,
      "inputs": [],
      "name": "MIN_FEE",
      "outputs": [
        {
          "name": "",
          "type": "uint256"
        }
      ],
      "payable": false,
      "stateMutability": "view",
      "type": "function"
    },
    {
      "constant": false,
      "inputs": [
        {
          "name": "tokenIn",
          "type": "address"
        },
        {
          "name": "maxAmountIn",
          "type": "uint256"
        },
        {
          "name": "tokenOut",
          "type": "address"
        },
        {
          "name": "tokenAmountOut",
          "type": "uint256"
        },
        {
          "name": "maxPrice",
          "type": "uint256"
        }
      ],
      "name": "swapExactAmountOut",
      "outputs": [
        {
          "name": "tokenAmountIn",
          "type": "uint256"
        },
        {
          "name": "spotPriceAfter",
          "type": "uint256"
        }
      ],
      "payable": false,
      "stateMutability": "nonpayable",
      "type": "function"
    },
    {
      "constant": true,
      "inputs": [
        {
          "name": "",
          "type": "address"
        }
      ],
      "name": "feesCollectedOPF",
      "outputs": [
        {
          "name": "",
          "type": "uint256"
        }
      ],
      "payable": false,
      "stateMutability": "view",
      "type": "function"
    },
    {
      "constant": false,
      "inputs": [
        {
          "name": "tokenIn",
          "type": "address"
        },
        {
          "name": "tokenAmountIn",
          "type": "uint256"
        },
        {
          "name": "tokenOut",
          "type": "address"
        },
        {
          "name": "minAmountOut",
          "type": "uint256"
        },
        {
          "name": "maxPrice",
          "type": "uint256"
        }
      ],
      "name": "swapExactAmountIn",
      "outputs": [
        {
          "name": "tokenAmountOut",
          "type": "uint256"
        },
        {
          "name": "spotPriceAfter",
          "type": "uint256"
        }
      ],
      "payable": false,
      "stateMutability": "nonpayable",
      "type": "function"
    },
    {
      "constant": true,
      "inputs": [
        {
          "name": "tokenBalanceOut",
          "type": "uint256"
        },
        {
          "name": "tokenWeightOut",
          "type": "uint256"
        },
        {
          "name": "poolSupply",
          "type": "uint256"
        },
        {
          "name": "totalWeight",
          "type": "uint256"
        },
        {
          "name": "tokenAmountOut",
          "type": "uint256"
        },
        {
          "name": "swapFee",
          "type": "uint256"
        }
      ],
      "name": "calcPoolInGivenSingleOut",
      "outputs": [
        {
          "name": "poolAmountIn",
          "type": "uint256"
        }
      ],
      "payable": false,
      "stateMutability": "pure",
      "type": "function"
    },
    {
      "constant": true,
      "inputs": [
        {
          "name": "tokenBalanceIn",
          "type": "uint256"
        },
        {
          "name": "tokenWeightIn",
          "type": "uint256"
        },
        {
          "name": "poolSupply",
          "type": "uint256"
        },
        {
          "name": "totalWeight",
          "type": "uint256"
        },
        {
          "name": "tokenAmountIn",
          "type": "uint256"
        },
        {
          "name": "swapFee",
          "type": "uint256"
        }
      ],
      "name": "calcPoolOutGivenSingleIn",
      "outputs": [
        {
          "name": "poolAmountOut",
          "type": "uint256"
        }
      ],
      "payable": false,
      "stateMutability": "pure",
      "type": "function"
    },
    {
      "constant": true,
      "inputs": [],
      "name": "MIN_BALANCE",
      "outputs": [
        {
          "name": "",
          "type": "uint256"
        }
      ],
      "payable": false,
      "stateMutability": "view",
      "type": "function"
    },
    {
      "constant": true,
      "inputs": [
        {
          "name": "tokenBalanceOut",
          "type": "uint256"
        },
        {
          "name": "tokenWeightOut",
          "type": "uint256"
        },
        {
          "name": "poolSupply",
          "type": "uint256"
        },
        {
          "name": "totalWeight",
          "type": "uint256"
        },
        {
          "name": "poolAmountIn",
          "type": "uint256"
        },
        {
          "name": "swapFee",
          "type": "uint256"
        }
      ],
      "name": "calcSingleOutGivenPoolIn",
      "outputs": [
        {
          "name": "tokenAmountOut",
          "type": "uint256"
        }
      ],
      "payable": false,
      "stateMutability": "pure",
      "type": "function"
    },
    {
      "constant": false,
      "inputs": [
        {
          "name": "token",
          "type": "address"
        }
      ],
      "name": "gulp",
      "outputs": [],
      "payable": false,
      "stateMutability": "nonpayable",
      "type": "function"
    },
    {
      "constant": true,
      "inputs": [
        {
          "name": "tokenOut",
          "type": "address"
        },
        {
          "name": "poolAmountIn",
          "type": "uint256"
        }
      ],
      "name": "ScalcSingleOutGivenPoolIn",
      "outputs": [
        {
          "name": "",
          "type": "uint256"
        }
      ],
      "payable": false,
      "stateMutability": "view",
      "type": "function"
    },
    {
      "constant": true,
      "inputs": [],
      "name": "isFinalized",
      "outputs": [
        {
          "name": "",
          "type": "bool"
        }
      ],
      "payable": false,
      "stateMutability": "view",
      "type": "function"
    },
    {
      "constant": false,
      "inputs": [
        {
          "name": "manager",
          "type": "address"
        }
      ],
      "name": "setController",
      "outputs": [],
      "payable": false,
      "stateMutability": "nonpayable",
      "type": "function"
    },
    {
      "constant": true,
      "inputs": [],
      "name": "getTotalDenormalizedWeight",
      "outputs": [
        {
          "name": "",
          "type": "uint256"
        }
      ],
      "payable": false,
      "stateMutability": "view",
      "type": "function"
    },
    {
      "constant": true,
      "inputs": [],
      "name": "INIT_POOL_SUPPLY",
      "outputs": [
        {
          "name": "",
          "type": "uint256"
        }
      ],
      "payable": false,
      "stateMutability": "view",
      "type": "function"
    },
    {
      "constant": true,
      "inputs": [
        {
          "name": "token",
          "type": "address"
        }
      ],
      "name": "getDenormalizedWeight",
      "outputs": [
        {
          "name": "",
          "type": "uint256"
        }
      ],
      "payable": false,
      "stateMutability": "view",
      "type": "function"
    },
    {
      "constant": true,
      "inputs": [],
      "name": "symbol",
      "outputs": [
        {
          "name": "",
          "type": "string"
        }
      ],
      "payable": false,
      "stateMutability": "view",
      "type": "function"
    },
    {
      "constant": true,
      "inputs": [],
      "name": "MAX_OUT_RATIO",
      "outputs": [
        {
          "name": "",
          "type": "uint256"
        }
      ],
      "payable": false,
      "stateMutability": "view",
      "type": "function"
    },
    {
      "constant": true,
      "inputs": [
        {
          "name": "tokenBalanceIn",
          "type": "uint256"
        },
        {
          "name": "tokenWeightIn",
          "type": "uint256"
        },
        {
          "name": "tokenBalanceOut",
          "type": "uint256"
        },
        {
          "name": "tokenWeightOut",
          "type": "uint256"
        },
        {
          "name": "swapFee",
          "type": "uint256"
        }
      ],
      "name": "calcSpotPrice",
      "outputs": [
        {
          "name": "spotPrice",
          "type": "uint256"
        }
      ],
      "payable": false,
      "stateMutability": "pure",
      "type": "function"
    },
    {
      "constant": true,
      "inputs": [
        {
          "name": "tokenBalanceOut",
          "type": "uint256"
        },
        {
          "name": "tokenWeightOut",
          "type": "uint256"
        },
        {
          "name": "poolSupply",
          "type": "uint256"
        },
        {
          "name": "totalWeight",
          "type": "uint256"
        },
        {
          "name": "tokenAmountOut",
          "type": "uint256"
        }
      ],
      "name": "calcPoolInGivenSingleOut",
      "outputs": [
        {
          "name": "poolAmountIn",
          "type": "uint256"
        }
      ],
      "payable": false,
      "stateMutability": "view",
      "type": "function"
    },
    {
      "constant": false,
      "inputs": [
        {
          "name": "dst",
          "type": "address"
        },
        {
          "name": "amt",
          "type": "uint256"
        }
      ],
      "name": "transfer",
      "outputs": [
        {
          "name": "",
          "type": "bool"
        }
      ],
      "payable": false,
      "stateMutability": "nonpayable",
      "type": "function"
    },
    {
      "constant": false,
      "inputs": [
        {
          "name": "poolAmountIn",
          "type": "uint256"
        },
        {
          "name": "minAmountsOut",
          "type": "uint256[]"
        }
      ],
      "name": "exitPool",
      "outputs": [],
      "payable": false,
      "stateMutability": "nonpayable",
      "type": "function"
    },
    {
      "constant": true,
      "inputs": [],
      "name": "MAX_BOUND_TOKENS",
      "outputs": [
        {
          "name": "",
          "type": "uint256"
        }
      ],
      "payable": false,
      "stateMutability": "view",
      "type": "function"
    },
    {
      "constant": true,
      "inputs": [
        {
          "name": "tokenBalanceIn",
          "type": "uint256"
        },
        {
          "name": "tokenWeightIn",
          "type": "uint256"
        },
        {
          "name": "poolSupply",
          "type": "uint256"
        },
        {
          "name": "totalWeight",
          "type": "uint256"
        },
        {
          "name": "tokenAmountIn",
          "type": "uint256"
        }
      ],
      "name": "calcPoolOutGivenSingleIn",
      "outputs": [
        {
          "name": "poolAmountOut",
          "type": "uint256"
        }
      ],
      "payable": false,
      "stateMutability": "view",
      "type": "function"
    },
    {
      "constant": true,
      "inputs": [],
      "name": "MIN_BOUND_TOKENS",
      "outputs": [
        {
          "name": "",
          "type": "uint256"
        }
      ],
      "payable": false,
      "stateMutability": "view",
      "type": "function"
    },
    {
      "constant": true,
      "inputs": [],
      "name": "_swapOceanFee",
      "outputs": [
        {
          "name": "",
          "type": "uint256"
        }
      ],
      "payable": false,
      "stateMutability": "view",
      "type": "function"
    },
    {
      "constant": true,
      "inputs": [
        {
          "name": "tokenIn",
          "type": "address"
        },
        {
          "name": "poolAmountOut",
          "type": "uint256"
        }
      ],
      "name": "ScalcSingleInGivenPoolOut",
      "outputs": [
        {
          "name": "",
          "type": "uint256"
        }
      ],
      "payable": false,
      "stateMutability": "view",
      "type": "function"
    },
    {
      "constant": true,
      "inputs": [],
      "name": "MIN_BPOW_BASE",
      "outputs": [
        {
          "name": "",
          "type": "uint256"
        }
      ],
      "payable": false,
      "stateMutability": "view",
      "type": "function"
    },
    {
      "constant": true,
      "inputs": [
        {
          "name": "tokenBalanceIn",
          "type": "uint256"
        },
        {
          "name": "tokenWeightIn",
          "type": "uint256"
        },
        {
          "name": "tokenBalanceOut",
          "type": "uint256"
        },
        {
          "name": "tokenWeightOut",
          "type": "uint256"
        },
        {
          "name": "tokenAmountIn",
          "type": "uint256"
        },
        {
          "name": "swapFee",
          "type": "uint256"
        }
      ],
      "name": "calcOutGivenIn",
      "outputs": [
        {
          "name": "tokenAmountOut",
          "type": "uint256"
        }
      ],
      "payable": false,
      "stateMutability": "pure",
      "type": "function"
    },
    {
      "constant": true,
      "inputs": [],
      "name": "MAX_FEE",
      "outputs": [
        {
          "name": "",
          "type": "uint256"
        }
      ],
      "payable": false,
      "stateMutability": "view",
      "type": "function"
    },
    {
      "constant": true,
      "inputs": [],
      "name": "MAX_BPOW_BASE",
      "outputs": [
        {
          "name": "",
          "type": "uint256"
        }
      ],
      "payable": false,
      "stateMutability": "view",
      "type": "function"
    },
    {
      "constant": true,
      "inputs": [],
      "name": "getFinalTokens",
      "outputs": [
        {
          "name": "tokens",
          "type": "address[]"
        }
      ],
      "payable": false,
      "stateMutability": "view",
      "type": "function"
    },
    {
      "constant": false,
      "inputs": [
        {
          "name": "controller",
          "type": "address"
        },
        {
          "name": "factory",
          "type": "address"
        },
        {
          "name": "swapFee",
          "type": "uint256"
        },
        {
          "name": "swapOceanFee",
          "type": "uint256"
        },
        {
          "name": "publicSwap",
          "type": "bool"
        },
        {
          "name": "finalized",
          "type": "bool"
        },
        {
          "name": "datatokenAddress",
          "type": "address"
        },
        {
          "name": "basetokenAddress",
          "type": "address"
        },
        {
          "name": "burnInEndBlock",
          "type": "uint256"
        }
      ],
      "name": "initialize",
      "outputs": [
        {
          "name": "",
          "type": "bool"
        }
      ],
      "payable": false,
      "stateMutability": "nonpayable",
      "type": "function"
    },
    {
      "constant": true,
      "inputs": [],
      "name": "BONE",
      "outputs": [
        {
          "name": "",
          "type": "uint256"
        }
      ],
      "payable": false,
      "stateMutability": "view",
      "type": "function"
    },
    {
      "constant": true,
      "inputs": [],
      "name": "EXIT_FEE",
      "outputs": [
        {
          "name": "",
          "type": "uint256"
        }
      ],
      "payable": false,
      "stateMutability": "view",
      "type": "function"
    },
    {
      "constant": true,
      "inputs": [
        {
          "name": "tokenIn",
          "type": "address"
        },
        {
          "name": "tokenOut",
          "type": "address"
        },
        {
          "name": "tokenAmountIn",
          "type": "uint256"
        }
      ],
      "name": "ScalcOutGivenIn",
      "outputs": [
        {
          "name": "",
          "type": "uint256"
        }
      ],
      "payable": false,
      "stateMutability": "view",
      "type": "function"
    },
    {
      "constant": true,
      "inputs": [],
      "name": "getCurrentTokens",
      "outputs": [
        {
          "name": "tokens",
          "type": "address[]"
        }
      ],
      "payable": false,
      "stateMutability": "view",
      "type": "function"
    },
    {
      "constant": true,
      "inputs": [],
      "name": "getNumTokens",
      "outputs": [
        {
          "name": "",
          "type": "uint256"
        }
      ],
      "payable": false,
      "stateMutability": "view",
      "type": "function"
    },
    {
      "constant": false,
      "inputs": [
        {
          "name": "token",
          "type": "address"
        }
      ],
      "name": "unbind",
      "outputs": [],
      "payable": false,
      "stateMutability": "nonpayable",
      "type": "function"
    },
    {
      "constant": true,
      "inputs": [],
      "name": "getSwapFee",
      "outputs": [
        {
          "name": "",
          "type": "uint256"
        }
      ],
      "payable": false,
      "stateMutability": "view",
      "type": "function"
    },
    {
      "constant": true,
      "inputs": [
        {
          "name": "tokenBalanceIn",
          "type": "uint256"
        },
        {
          "name": "tokenWeightIn",
          "type": "uint256"
        },
        {
          "name": "tokenBalanceOut",
          "type": "uint256"
        },
        {
          "name": "tokenWeightOut",
          "type": "uint256"
        },
        {
          "name": "tokenAmountOut",
          "type": "uint256"
        }
      ],
      "name": "calcInGivenOut",
      "outputs": [
        {
          "name": "tokenAmountIn",
          "type": "uint256"
        }
      ],
      "payable": false,
      "stateMutability": "view",
      "type": "function"
    },
    {
      "constant": false,
      "inputs": [
        {
          "name": "dst",
          "type": "address"
        },
        {
          "name": "amt",
          "type": "uint256"
        }
      ],
      "name": "increaseApproval",
      "outputs": [
        {
          "name": "",
          "type": "bool"
        }
      ],
      "payable": false,
      "stateMutability": "nonpayable",
      "type": "function"
    },
    {
      "constant": true,
      "inputs": [
        {
          "name": "src",
          "type": "address"
        },
        {
          "name": "dst",
          "type": "address"
        }
      ],
      "name": "allowance",
      "outputs": [
        {
          "name": "",
          "type": "uint256"
        }
      ],
      "payable": false,
      "stateMutability": "view",
      "type": "function"
    },
    {
      "constant": true,
      "inputs": [],
      "name": "MAX_WEIGHT",
      "outputs": [
        {
          "name": "",
          "type": "uint256"
        }
      ],
      "payable": false,
      "stateMutability": "view",
      "type": "function"
    },
    {
      "constant": false,
      "inputs": [
        {
          "name": "token",
          "type": "address"
        },
        {
          "name": "balance",
          "type": "uint256"
        },
        {
          "name": "denorm",
          "type": "uint256"
        }
      ],
      "name": "bind",
      "outputs": [],
      "payable": false,
      "stateMutability": "nonpayable",
      "type": "function"
    },
    {
      "constant": true,
      "inputs": [],
      "name": "MAX_IN_RATIO",
      "outputs": [
        {
          "name": "",
          "type": "uint256"
        }
      ],
      "payable": false,
      "stateMutability": "view",
      "type": "function"
    },
    {
      "constant": true,
      "inputs": [
        {
          "name": "tokenBalanceOut",
          "type": "uint256"
        },
        {
          "name": "tokenWeightOut",
          "type": "uint256"
        },
        {
          "name": "poolSupply",
          "type": "uint256"
        },
        {
          "name": "totalWeight",
          "type": "uint256"
        },
        {
          "name": "poolAmountIn",
          "type": "uint256"
        }
      ],
      "name": "calcSingleOutGivenPoolIn",
      "outputs": [
        {
          "name": "tokenAmountOut",
          "type": "uint256"
        }
      ],
      "payable": false,
      "stateMutability": "view",
      "type": "function"
    },
    {
      "constant": true,
      "inputs": [
        {
          "name": "token",
          "type": "address"
        }
      ],
      "name": "getNormalizedWeight",
      "outputs": [
        {
          "name": "",
          "type": "uint256"
        }
      ],
      "payable": false,
      "stateMutability": "view",
      "type": "function"
    },
    {
      "constant": true,
      "inputs": [
        {
          "name": "tokenIn",
          "type": "address"
        },
        {
          "name": "tokenOut",
          "type": "address"
        },
        {
          "name": "tokenAmountOut",
          "type": "uint256"
        }
      ],
      "name": "ScalcInGivenOut",
      "outputs": [
        {
          "name": "",
          "type": "uint256"
        }
      ],
      "payable": false,
      "stateMutability": "view",
      "type": "function"
    },
    {
      "constant": true,
      "inputs": [
        {
          "name": "",
          "type": "address"
        }
      ],
      "name": "feesCollectedMarket",
      "outputs": [
        {
          "name": "",
          "type": "uint256"
        }
      ],
      "payable": false,
      "stateMutability": "view",
      "type": "function"
    },
    {
      "constant": true,
      "inputs": [
        {
          "name": "token",
          "type": "address"
        }
      ],
      "name": "getBalance",
      "outputs": [
        {
          "name": "",
          "type": "uint256"
        }
      ],
      "payable": false,
      "stateMutability": "view",
      "type": "function"
    },
    {
      "constant": true,
      "inputs": [
        {
          "name": "tokenBalanceIn",
          "type": "uint256"
        },
        {
          "name": "tokenWeightIn",
          "type": "uint256"
        },
        {
          "name": "tokenBalanceOut",
          "type": "uint256"
        },
        {
          "name": "tokenWeightOut",
          "type": "uint256"
        },
        {
          "name": "tokenAmountOut",
          "type": "uint256"
        },
        {
          "name": "swapFee",
          "type": "uint256"
        }
      ],
      "name": "calcInGivenOut",
      "outputs": [
        {
          "name": "tokenAmountIn",
          "type": "uint256"
        }
      ],
      "payable": false,
      "stateMutability": "pure",
      "type": "function"
    },
    {
      "constant": true,
      "inputs": [],
      "name": "isPublicSwap",
      "outputs": [
        {
          "name": "",
          "type": "bool"
        }
      ],
      "payable": false,
      "stateMutability": "view",
      "type": "function"
    },
    {
      "inputs": [],
      "payable": false,
      "stateMutability": "nonpayable",
      "type": "constructor"
    },
    {
      "anonymous": false,
      "inputs": [
        {
          "indexed": true,
          "name": "caller",
          "type": "address"
        },
        {
          "indexed": true,
          "name": "tokenIn",
          "type": "address"
        },
        {
          "indexed": true,
          "name": "tokenOut",
          "type": "address"
        },
        {
          "indexed": false,
          "name": "tokenAmountIn",
          "type": "uint256"
        },
        {
          "indexed": false,
          "name": "tokenAmountOut",
          "type": "uint256"
        },
        {
          "indexed": false,
          "name": "timestamp",
          "type": "uint256"
        }
      ],
      "name": "LOG_SWAP",
      "type": "event"
    },
    {
      "anonymous": false,
      "inputs": [
        {
          "indexed": true,
          "name": "caller",
          "type": "address"
        },
        {
          "indexed": true,
          "name": "tokenIn",
          "type": "address"
        },
        {
          "indexed": false,
          "name": "tokenAmountIn",
          "type": "uint256"
        },
        {
          "indexed": false,
          "name": "timestamp",
          "type": "uint256"
        }
      ],
      "name": "LOG_JOIN",
      "type": "event"
    },
    {
      "anonymous": false,
      "inputs": [
        {
          "indexed": true,
          "name": "caller",
          "type": "address"
        },
        {
          "indexed": true,
          "name": "tokenOut",
          "type": "address"
        },
        {
          "indexed": false,
          "name": "tokenAmountOut",
          "type": "uint256"
        },
        {
          "indexed": false,
          "name": "timestamp",
          "type": "uint256"
        }
      ],
      "name": "LOG_EXIT",
      "type": "event"
    },
    {
      "anonymous": false,
      "inputs": [
        {
          "indexed": true,
          "name": "sig",
          "type": "bytes4"
        },
        {
          "indexed": true,
          "name": "caller",
          "type": "address"
        },
        {
          "indexed": false,
          "name": "timestamp",
          "type": "uint256"
        },
        {
          "indexed": false,
          "name": "data",
          "type": "bytes"
        }
      ],
      "name": "LOG_CALL",
      "type": "event"
    },
    {
      "anonymous": false,
      "inputs": [
        {
          "indexed": true,
          "name": "src",
          "type": "address"
        },
        {
          "indexed": true,
          "name": "dst",
          "type": "address"
        },
        {
          "indexed": false,
          "name": "amt",
          "type": "uint256"
        }
      ],
      "name": "Approval",
      "type": "event"
    },
    {
      "anonymous": false,
      "inputs": [
        {
          "indexed": true,
          "name": "src",
          "type": "address"
        },
        {
          "indexed": true,
          "name": "dst",
          "type": "address"
        },
        {
          "indexed": false,
          "name": "amt",
          "type": "uint256"
        }
      ],
      "name": "Transfer",
      "type": "event"
    }
  ],
  "bytecode": "0x60c0604052601360808190527f42616c616e63657220506f6f6c20546f6b656e0000000000000000000000000060a09081526200004091600a9190620001ad565b506040805180820190915260038082527f425054000000000000000000000000000000000000000000000000000000000060209092019182526200008791600b91620001ad565b50600c805460ff1916601217905560168054600160a01b60ff0219169055348015620000b257600080fd5b50620000dc3380620f4240670de0b6b3a764000004600080600033336000620000e360201b60201c565b5062000252565b600d8054600c805462010000600160b01b031916620100006001600160a01b039c8d16021790556011989098556000969096556001600160a01b031996871698881698909817600160a01b60ff021990811674010000000000000000000000000000000000000000951515860217958690556012805460ff191694151594909417909355600e8054871692881692909217909155600f805486169187169190911790556016805460109790975592909416949093168317909116929092179182905560ff91041690565b828054600181600116156101000203166002900490600052602060002090601f016020900481019282601f10620001f057805160ff191683800117855562000220565b8280016001018555821562000220579182015b828111156200022057825182559160200191906001019062000203565b506200022e92915062000232565b5090565b6200024f91905b808211156200022e576000815560010162000239565b90565b61896980620002626000396000f3fe608060405234801561001057600080fd5b50600436106104ee5760003560e01c8063892980121161028e578063bc694ea211610167578063d73dd623116100d9578063f1b8a9b711610092578063f1b8a9b71461117d578063f3aa4843146111a3578063f542f6cf146111d9578063f8b2cb4f146111ff578063f8d6aed414611225578063fde924f714611260576104ee565b8063d73dd623146110b4578063dd62ed3e146110e0578063e4a28a5214610644578063e4e1e5381461110e578063ec09302114611140578063ee53a6cd14611148576104ee565b8063cb3219341161012b578063cb3219341461100b578063cc77828d14611041578063cd2ed8fb14611049578063cf5e7bd314611051578063d4cadf6814611077578063d59051001461107f576104ee565b8063bc694ea214610f3f578063be3bbd2e14610f47578063c336eeff14610f9f578063c36596a614610737578063c6580d1214611003576104ee565b8063a33adccb11610200578063b7b800a4116101c4578063b7b800a414610eb8578063b80483b014610ec0578063b855613814610ec8578063ba019dab14610ef4578063ba9530a614610efc578063bc063e1a14610f37576104ee565b8063a33adccb14610da3578063a9059cbb14610dd8578063b02f0b7314610e04578063b0e0d13614610e7b578063b4ddf25114610e83576104ee565b8063936c347711610252578063936c347714610d285780639381cd2b14610d30578063948d8ce614610d3857806395d89b4114610d5e578063992e2a9214610d66578063a221ee4914610d6e576104ee565b80638929801214610c6d5780638c28cbe814610ca85780638d07ec2d14610cce5780638d4e408314610cfa57806392eefe9b14610d02576104ee565b806346ab38f1116103cb578063672780851161033d5780637c5e9ea4116102f65780637c5e9ea414610b305780637c6e92c214610b895780638201aa3f14610baf57806382f652ad14610bef5780638656b65314610c2a578063867378c514610c65576104ee565b80636727808514610a415780636bf07d1c14610a6d5780636c2749c714610a9b5780636d06dfa014610ad057806370a0823114610b0257806376c7a3c714610b28576104ee565b80634f69c0d41161038f5780634f69c0d4146108cd5780635678976b146109445780635c1bbaf7146109795780635d14552a146109b45780635db34277146109e35780636618846314610a15576104ee565b806346ab38f11461086457806349b595521461089657806349e9350f146108b55780634bb278f3146108bd5780634df947d0146108c5576104ee565b8063189d00ca116104645780633018205f116104285780633018205f146107c1578063313ce567146107c957806331e2761b146107e757806334e199071461080d578063392e53cd1461082a5780633fdddaa214610832576104ee565b8063189d00ca1461072f578063218b53821461073757806323b872dd1461073f5780632f37b62414610775578063300621921461079b576104ee565b806309a3bbe4116104b657806309a3bbe41461064457806309ef3f5b1461064c5780630c78bb4e146106965780631446a7ff146106cb57806315e84af9146106f957806318160ddd14610727576104ee565b806302c96748146104f357806304a5e3461461053757806304ad79541461056357806306fdde0314610587578063095ea7b314610604575b600080fd5b6105256004803603606081101561050957600080fd5b506001600160a01b038135169060208101359060400135611268565b60408051918252519081900360200190f35b6105256004803603604081101561054d57600080fd5b506001600160a01b038135169060200135611a1e565b61056b611a8f565b604080516001600160a01b039092168252519081900360200190f35b61058f611af0565b6040805160208082528351818301528351919283929083019185019080838360005b838110156105c95781810151838201526020016105b1565b50505050905090810190601f1680156105f65780820380516001836020036101000a031916815260200191505b509250505060405180910390f35b6106306004803603604081101561061a57600080fd5b506001600160a01b038135169060200135611b86565b604080519115158252519081900360200190f35b610525611bda565b610694600480360360c081101561066257600080fd5b506001600160a01b03813581169160208101359160408201359160608101359091169060808101359060a00135611be7565b005b610525600480360360a08110156106ac57600080fd5b5080359060208101359060408101359060608101359060800135611e1b565b610525600480360360408110156106e157600080fd5b506001600160a01b0381358116916020013516611ee7565b6105256004803603604081101561070f57600080fd5b506001600160a01b0381358116916020013516612041565b610525612192565b610525612198565b6105256121ac565b6106306004803603606081101561075557600080fd5b506001600160a01b038135811691602081013590911690604001356121b8565b6106306004803603602081101561078b57600080fd5b50356001600160a01b031661231e565b610525600480360360208110156107b157600080fd5b50356001600160a01b031661233c565b61056b61234e565b6107d16123af565b6040805160ff9092168252519081900360200190f35b610525600480360360208110156107fd57600080fd5b50356001600160a01b03166123b8565b6106946004803603602081101561082357600080fd5b50356123ca565b6106306125ef565b6106946004803603606081101561084857600080fd5b506001600160a01b0381351690602081013590604001356125ff565b6105256004803603606081101561087a57600080fd5b506001600160a01b038135169060208101359060400135612a6a565b610694600480360360208110156108ac57600080fd5b503515156131a3565b610525613345565b61069461334b565b61056b613573565b610694600480360360408110156108e357600080fd5b8135919081019060408101602082013564010000000081111561090557600080fd5b82018360208201111561091757600080fd5b8035906020019184602083028401116401000000008311171561093957600080fd5b5090925090506135d4565b610525600480360360a081101561095a57600080fd5b5080359060208101359060408101359060608101359060800135613b19565b610525600480360360c081101561098f57600080fd5b5080359060208101359060408101359060608101359060808101359060a00135613bb0565b610525600480360360808110156109ca57600080fd5b5080359060208101359060408101359060600135613c63565b610525600480360360608110156109f957600080fd5b506001600160a01b038135169060208101359060400135613cd6565b61063060048036036040811015610a2b57600080fd5b506001600160a01b0381351690602001356143e3565b61052560048036036040811015610a5757600080fd5b506001600160a01b0381351690602001356144bb565b61052560048036036040811015610a8357600080fd5b506001600160a01b0381358116916020013516614523565b610525600480360360a0811015610ab157600080fd5b50803590602081013590604081013590606081013590608001356145c3565b61052560048036036060811015610ae657600080fd5b506001600160a01b038135169060208101359060400135614665565b61052560048036036020811015610b1857600080fd5b50356001600160a01b0316614d9b565b610525614db6565b610b70600480360360a0811015610b4657600080fd5b506001600160a01b0381358116916020810135916040820135169060608101359060800135614dc8565b6040805192835260208301919091528051918290030190f35b61052560048036036020811015610b9f57600080fd5b50356001600160a01b03166155ac565b610b70600480360360a0811015610bc557600080fd5b506001600160a01b03813581169160208101359160408201351690606081013590608001356155be565b610525600480360360c0811015610c0557600080fd5b5080359060208101359060408101359060608101359060808101359060a00135615d87565b610525600480360360c0811015610c4057600080fd5b5080359060208101359060408101359060608101359060808101359060a00135615e46565b610525615ed0565b610525600480360360c0811015610c8357600080fd5b5080359060208101359060408101359060608101359060808101359060a00135615ee4565b61069460048036036020811015610cbe57600080fd5b50356001600160a01b0316615f94565b61052560048036036040811015610ce457600080fd5b506001600160a01b038135169060200135616166565b6106306161ce565b61069460048036036020811015610d1857600080fd5b50356001600160a01b03166161d7565b610525616387565b6105256163df565b61052560048036036020811015610d4e57600080fd5b50356001600160a01b03166163ec565b61058f6164ba565b61052561651b565b610525600480360360a0811015610d8457600080fd5b5080359060208101359060408101359060608101359060800135616527565b610525600480360360a0811015610db957600080fd5b508035906020810135906040810135906060810135906080013561657e565b61063060048036036040811015610dee57600080fd5b506001600160a01b03813516906020013561662a565b61069460048036036040811015610e1a57600080fd5b81359190810190604081016020820135640100000000811115610e3c57600080fd5b820183602082011115610e4e57600080fd5b80359060200191846020830284011164010000000083111715610e7057600080fd5b509092509050616640565b610525616bc1565b610525600480360360a0811015610e9957600080fd5b5080359060208101359060408101359060608101359060800135616bc6565b610525616c5b565b610525616c60565b61052560048036036040811015610ede57600080fd5b506001600160a01b038135169060200135616c66565b610525616cce565b610525600480360360c0811015610f1257600080fd5b5080359060208101359060408101359060608101359060808101359060a00135616cd3565b610525616d44565b610525616d54565b610f4f616d60565b60408051602080825283518183015283519192839290830191858101910280838360005b83811015610f8b578181015183820152602001610f73565b505050509050019250505060405180910390f35b6106306004803603610120811015610fb657600080fd5b506001600160a01b0381358116916020810135821691604082013591606081013591608082013515159160a081013515159160c082013581169160e0810135909116906101000135616e58565b610525617029565b6105256004803603606081101561102157600080fd5b506001600160a01b0381358116916020810135909116906040013561702e565b610f4f6170d8565b610525617129565b6106946004803603602081101561106757600080fd5b50356001600160a01b031661712f565b6105256174ce565b610525600480360360a081101561109557600080fd5b5080359060208101359060408101359060608101359060800135617526565b610630600480360360408110156110ca57600080fd5b506001600160a01b0381351690602001356175b8565b610525600480360360408110156110f657600080fd5b506001600160a01b0381358116916020013516617639565b6106946004803603606081101561112457600080fd5b506001600160a01b038135169060208101359060400135617664565b6105256178fa565b610525600480360360a081101561115e57600080fd5b508035906020810135906040810135906060810135906080013561790a565b6105256004803603602081101561119357600080fd5b50356001600160a01b03166179b5565b610525600480360360608110156111b957600080fd5b506001600160a01b03813581169160208101359091169060400135617a8e565b610525600480360360208110156111ef57600080fd5b50356001600160a01b0316617b30565b6105256004803603602081101561121557600080fd5b50356001600160a01b0316617b42565b610525600480360360c081101561123b57600080fd5b5080359060208101359060408101359060608101359060808101359060a00135617c10565b610630617c84565b6000336001600160a01b03166000356001600160e01b0319166001600160e01b03191660008051602061885e8339815191524260003660405180848152602001806020018281038252848482818152602001925080828437600083820152604051601f909101601f1916909201829003965090945050505050a3600c54610100900460ff16156113305760408051600160e51b62461bcd02815260206004820152600b60248201526000805160206187fe833981519152604482015290519081900360640190fd5b600c805461ff00191661010017905560125460ff16158015611353575060105443115b156113c557601654600e5460408051600160e51b6307e4a1c90281526001600160a01b0392831660048201529051919092169163fc94392091602480830192600092919082900301818387803b1580156113ac57600080fd5b505af11580156113c0573d6000803e3d6000fd5b505050505b60125460ff1661140d5760408051600160e51b62461bcd02815260206004820152601160248201526000805160206187de833981519152604482015290519081900360640190fd5b6001600160a01b03841660009081526014602052604090205460ff1661146b5760408051600160e51b62461bcd02815260206004820152600d60248201526000805160206188be833981519152604482015290519081900360640190fd5b6001600160a01b03841660009081526014602052604090206003908101546114a091670de0b6b3a76400005b04600101617c94565b8311156114ee5760408051600160e51b62461bcd0281526020600482015260116024820152600160781b704552525f4d41585f4f55545f524154494f02604482015290519081900360640190fd5b600e546001600160a01b0390811660008181526014602052604081209092839290881614156115bf57600f54601654600e5460408051600160e01b637eaf89010281526001600160a01b03928316600482015293821660248501819052604485018b9052600060648601523360848601529051909550911691637eaf89019160a4808301926020929190829003018186803b15801561158c57600080fd5b505afa1580156115a0573d6000803e3d6000fd5b505050506040513d60208110156115b657600080fd5b50519250611678565b5050600e54600f546001600160a01b0390811660008181526014602090815260408083206016548251600160e01b637eaf89010281529787166004890181905260248901969096526044880194909452606487018b90523360848801529051939590949290921692637eaf89019260a4808201939291829003018186803b15801561164957600080fd5b505afa15801561165d573d6000803e3d6000fd5b505050506040513d602081101561167357600080fd5b505192505b6001831515146116c05760408051600160e51b62461bcd028152602060048201526018602482015260008051602061881e833981519152604482015290519081900360640190fd5b6001600160a01b0387166000908152601460205260409020600381015460028201546009546015546011546116fa94939291908c90615d87565b94508461173f5760408051600160e51b62461bcd02815260206004820152600f60248201526000805160206188fe833981519152604482015290519081900360640190fd5b858511156117895760408051600160e51b62461bcd02815260206004820152600c6024820152600160a11b6b22a9292fa624a6a4aa2fa4a702604482015290519081900360640190fd5b611797816003015488617d69565b600382015560006117a88682617c94565b604080518a815242602082015281519293506001600160a01b038c1692339260008051602061883e833981519152928290030190a36117e73387617dda565b6117f96117f48783617d69565b617de8565b600c54611815906201000090046001600160a01b031682617df4565b61182089338a617dfe565b600061183e846003015485600201546009546015548b601154615ee4565b601654600e5460408051600160e01b63efd481030281526001600160a01b039283166004820152898316602482015260448101859052905193945091169163efd4810391606480820192602092909190829003018186803b1580156118a257600080fd5b505afa1580156118b6573d6000803e3d6000fd5b505050506040513d60208110156118cc57600080fd5b5051151560011415611a06576118e6846003015482617d69565b60038501556118f6876000617c94565b600d546040805184815242602082015281519395506001600160a01b03808a169493169260008051602061883e833981519152929181900390910190a3600d54611949906001600160a01b031688617dda565b6119566117f48884617d69565b600c54611972906201000090046001600160a01b031683617df4565b600d5461198a9086906001600160a01b031683617dfe565b601654600e5460408051600160e11b63679346f50281526001600160a01b0392831660048201528883166024820152604481018590529051919092169163cf268dea91606480830192600092919082900301818387803b1580156119ed57600080fd5b505af1158015611a01573d6000803e3d6000fd5b505050505b505050505050600c805461ff00191690559392505050565b6001600160a01b03821660009081526014602052604081205460ff161515600114611a4b57506000611a89565b6001600160a01b03831660009081526014602052604090206003810154600290910154600954601554601154611a8694939291908790615e46565b90505b92915050565b600c54600090610100900460ff1615611ae05760408051600160e51b62461bcd02815260206004820152600b60248201526000805160206187fe833981519152604482015290519081900360640190fd5b50600e546001600160a01b031690565b600a8054604080516020601f6002600019610100600188161502019095169490940493840181900481028201810190925282815260609390929091830182828015611b7c5780601f10611b5157610100808354040283529160200191611b7c565b820191906000526020600020905b815481529060010190602001808311611b5f57829003601f168201915b5050505050905090565b3360008181526008602090815260408083206001600160a01b038716808552908352818420869055815186815291519394909390926000805160206188de833981519152928290030190a350600192915050565b6802b5e3af16b188000081565b336001600160a01b03166000356001600160e01b0319166001600160e01b03191660008051602061885e8339815191524260003660405180848152602001806020018281038252848482818152602001925080828437600083820152604051601f909101601f1916909201829003965090945050505050a3600d546001600160a01b03163314611cc15760408051600160e51b62461bcd02815260206004820152601660248201527f4552525f494e56414c49445f434f4e54524f4c4c455200000000000000000000604482015290519081900360640190fd5b600e546001600160a01b03878116911614611d265760408051600160e51b62461bcd02815260206004820152601d60248201527f4552525f494e56414c49445f44415441544f4b454e5f41444452455353000000604482015290519081900360640190fd5b600f546001600160a01b03848116911614611d8b5760408051600160e51b62461bcd02815260206004820152601d60248201527f4552525f494e56414c49445f42415345544f4b454e5f41444452455353000000604482015290519081900360640190fd5b611d96868686617664565b6040805186815242602082015281516001600160a01b03891692339260008051602061889e833981519152929081900390910190a3611dd6838383617664565b6040805183815242602082015281516001600160a01b03861692339260008051602061889e833981519152929081900390910190a3611e1361334b565b505050505050565b600080611e288685617edd565b90506000611e40670de0b6b3a7640000600254617d69565b9050611e4c8482617c94565b90506000611e6d85611e68670de0b6b3a7640000600054617d69565b617c94565b90506000611e8986611e68670de0b6b3a7640000600154617d69565b905082820181016000611ea58c611ea08185618005565b617edd565b90506000611eb38288618062565b90506000611ec9670de0b6b3a764000083617d69565b9050611ed58c82617c94565b9e9d5050505050505050505050505050565b600c54600090610100900460ff1615611f385760408051600160e51b62461bcd02815260206004820152600b60248201526000805160206187fe833981519152604482015290519081900360640190fd5b6001600160a01b03831660009081526014602052604090205460ff16611f965760408051600160e51b62461bcd02815260206004820152600d60248201526000805160206188be833981519152604482015290519081900360640190fd5b6001600160a01b03821660009081526014602052604090205460ff16611ff45760408051600160e51b62461bcd02815260206004820152600d60248201526000805160206188be833981519152604482015290519081900360640190fd5b6001600160a01b0380841660009081526014602052604080822092851682528120600380840154600280860154928401549084015493946120389492939290616527565b95945050505050565b600c54600090610100900460ff16156120925760408051600160e51b62461bcd02815260206004820152600b60248201526000805160206187fe833981519152604482015290519081900360640190fd5b6001600160a01b03831660009081526014602052604090205460ff166120f05760408051600160e51b62461bcd02815260206004820152600d60248201526000805160206188be833981519152604482015290519081900360640190fd5b6001600160a01b03821660009081526014602052604090205460ff1661214e5760408051600160e51b62461bcd02815260206004820152600d60248201526000805160206188be833981519152604482015290519081900360640190fd5b6001600160a01b0380841660009081526014602052604080822092851682529020600380830154600280850154928401549084015460115461203894929190616527565b60095490565b6402540be400670de0b6b3a76400005b0481565b670de0b6b3a764000081565b6000336001600160a01b03851614806121f457506001600160a01b03841660009081526008602090815260408083203384529091529020548211155b6122485760408051600160e51b62461bcd02815260206004820152601560248201527f4552525f42544f4b454e5f4241445f43414c4c45520000000000000000000000604482015290519081900360640190fd5b612253848484618185565b336001600160a01b0385161480159061229157506001600160a01b038416600090815260086020908152604080832033845290915290205460001914155b15612313576001600160a01b03841660009081526008602090815260408083203384529091529020546122c49083617d69565b6001600160a01b03858116600090815260086020908152604080832033808552908352928190208590558051948552519287169391926000805160206188de8339815191529281900390910190a35b5060015b9392505050565b6001600160a01b031660009081526014602052604090205460ff1690565b60036020526000908152604090205481565b600c54600090610100900460ff161561239f5760408051600160e51b62461bcd02815260206004820152600b60248201526000805160206187fe833981519152604482015290519081900360640190fd5b50600d546001600160a01b031690565b600c5460ff1690565b60056020526000908152604090205481565b336001600160a01b03166000356001600160e01b0319166001600160e01b03191660008051602061885e8339815191524260003660405180848152602001806020018281038252848482818152602001925080828437600083820152604051601f909101601f1916909201829003965090945050505050a3600c54610100900460ff16156124905760408051600160e51b62461bcd02815260206004820152600b60248201526000805160206187fe833981519152604482015290519081900360640190fd5b600c805461ff00191661010017905560125460ff16156124f05760408051600160e51b62461bcd0281526020600482015260106024820152600160821b6f11549497d254d7d1925390531256915102604482015290519081900360640190fd5b600d546001600160a01b031633146125405760408051600160e51b62461bcd028152602060048201526012602482015260008051602061887e833981519152604482015290519081900360640190fd5b64e8d4a5100081101561258e5760408051600160e51b62461bcd02815260206004820152600b6024820152600160a81b6a4552525f4d494e5f46454502604482015290519081900360640190fd5b67016345785d8a00008111156125df5760408051600160e51b62461bcd02815260206004820152600b6024820152600160a81b6a4552525f4d41585f46454502604482015290519081900360640190fd5b601155600c805461ff0019169055565b601654600160a01b900460ff1690565b336001600160a01b03166000356001600160e01b0319166001600160e01b03191660008051602061885e8339815191524260003660405180848152602001806020018281038252848482818152602001925080828437600083820152604051601f909101601f1916909201829003965090945050505050a3600c54610100900460ff16156126c55760408051600160e51b62461bcd02815260206004820152600b60248201526000805160206187fe833981519152604482015290519081900360640190fd5b600c805461ff001916610100179055600d54336001600160a01b03909116146127265760408051600160e51b62461bcd028152602060048201526012602482015260008051602061887e833981519152604482015290519081900360640190fd5b6001600160a01b03831660009081526014602052604090205460ff166127845760408051600160e51b62461bcd02815260206004820152600d60248201526000805160206188be833981519152604482015290519081900360640190fd5b60125460ff16156127d55760408051600160e51b62461bcd0281526020600482015260106024820152600160821b6f11549497d254d7d1925390531256915102604482015290519081900360640190fd5b670de0b6b3a76400008110156128355760408051600160e51b62461bcd02815260206004820152600e60248201527f4552525f4d494e5f574549474854000000000000000000000000000000000000604482015290519081900360640190fd5b6802b5e3af16b18800008111156128965760408051600160e51b62461bcd02815260206004820152600e60248201527f4552525f4d41585f574549474854000000000000000000000000000000000000604482015290519081900360640190fd5b620f42408210156128f15760408051600160e51b62461bcd02815260206004820152600f60248201527f4552525f4d494e5f42414c414e43450000000000000000000000000000000000604482015290519081900360640190fd5b6001600160a01b038316600090815260146020526040902060020154808211156129945761292a6015546129258484617d69565b618005565b60158190556802b5e3af16b1880000101561298f5760408051600160e51b62461bcd02815260206004820152601460248201527f4552525f4d41585f544f54414c5f574549474854000000000000000000000000604482015290519081900360640190fd5b6129b5565b808210156129b5576129b16015546129ac8385617d69565b617d69565b6015555b6001600160a01b038416600090815260146020526040902060028101839055600301805490849055808411156129fe576129f985336129f48785617d69565b6182a3565b612a58565b80841015612a58576000612a128286617d69565b90506000612a21826000617c94565b9050612a378733612a328585617d69565b617dfe565b600c54612a559088906201000090046001600160a01b031683617dfe565b50505b5050600c805461ff0019169055505050565b6000336001600160a01b03166000356001600160e01b0319166001600160e01b03191660008051602061885e8339815191524260003660405180848152602001806020018281038252848482818152602001925080828437600083820152604051601f909101601f1916909201829003965090945050505050a3600c54610100900460ff1615612b325760408051600160e51b62461bcd02815260206004820152600b60248201526000805160206187fe833981519152604482015290519081900360640190fd5b600c805461ff00191661010017905560125460ff16158015612b55575060105443115b15612bc757601654600e5460408051600160e51b6307e4a1c90281526001600160a01b0392831660048201529051919092169163fc94392091602480830192600092919082900301818387803b158015612bae57600080fd5b505af1158015612bc2573d6000803e3d6000fd5b505050505b60125460ff16612c0f5760408051600160e51b62461bcd02815260206004820152601160248201526000805160206187de833981519152604482015290519081900360640190fd5b6001600160a01b03841660009081526014602052604090205460ff16612c6d5760408051600160e51b62461bcd02815260206004820152600d60248201526000805160206188be833981519152604482015290519081900360640190fd5b6001600160a01b038416600090815260146020526040902060038101546002820154600954601554601154612ca794939291908990615ee4565b915082821015612cf45760408051600160e51b62461bcd02815260206004820152600d60248201526001609a1b6c11549497d31253525517d3d55502604482015290519081900360640190fd5b6001600160a01b0385166000908152601460205260409020600390810154612d2491670de0b6b3a7640000611497565b821115612d725760408051600160e51b62461bcd0281526020600482015260116024820152600160781b704552525f4d41585f4f55545f524154494f02604482015290519081900360640190fd5b600e546001600160a01b039081166000818152601460205260408120909283929089161415612e4357600f54601654600e5460408051600160e01b637eaf89010281526001600160a01b03928316600482015293821660248501819052604485018a9052600060648601523360848601529051909550911691637eaf89019160a4808301926020929190829003018186803b158015612e1057600080fd5b505afa158015612e24573d6000803e3d6000fd5b505050506040513d6020811015612e3a57600080fd5b50519250612efc565b5050600e54600f546001600160a01b0390811660008181526014602090815260408083206016548251600160e01b637eaf89010281529787166004890181905260248901969096526044880194909452606487018a90523360848801529051939590949290921692637eaf89019260a4808201939291829003018186803b158015612ecd57600080fd5b505afa158015612ee1573d6000803e3d6000fd5b505050506040513d6020811015612ef757600080fd5b505192505b600183151514612f445760408051600160e51b62461bcd028152602060048201526018602482015260008051602061881e833981519152604482015290519081900360640190fd5b612f52846003015486617d69565b60038501556000612f638882617c94565b6040805188815242602082015281519293506001600160a01b038c1692339260008051602061883e833981519152928290030190a3612fa23389617dda565b612faf6117f48983617d69565b600c54612fcb906201000090046001600160a01b031682617df4565b612fd6893388617dfe565b6000612ff4836003015484600201546009546015548d601154615ee4565b601654600e5460408051600160e01b6326b1f01f0281526001600160a01b03928316600482015288831660248201526044810185905290519394509116916326b1f01f91606480820192602092909190829003018186803b15801561305857600080fd5b505afa15801561306c573d6000803e3d6000fd5b505050506040513d602081101561308257600080fd5b5051151560011415611a065761309c836003015482617d69565b60038401556130ac896000617c94565b600d546040805184815242602082015281519395506001600160a01b038089169493169260008051602061883e833981519152929181900390910190a3600d546130ff906001600160a01b03168a617dda565b61310c6117f48a84617d69565b600c54613128906201000090046001600160a01b031683617df4565b600d546131409085906001600160a01b031683617dfe565b601654600e5460408051600160e11b63679346f50281526001600160a01b0392831660048201528783166024820152604481018590529051919092169163cf268dea91606480830192600092919082900301818387803b1580156119ed57600080fd5b336001600160a01b03166000356001600160e01b0319166001600160e01b03191660008051602061885e8339815191524260003660405180848152602001806020018281038252848482818152602001925080828437600083820152604051601f909101601f1916909201829003965090945050505050a3600c54610100900460ff16156132695760408051600160e51b62461bcd02815260206004820152600b60248201526000805160206187fe833981519152604482015290519081900360640190fd5b600c805461ff00191661010017905560125460ff16156132c95760408051600160e51b62461bcd0281526020600482015260106024820152600160821b6f11549497d254d7d1925390531256915102604482015290519081900360640190fd5b600d546001600160a01b031633146133195760408051600160e51b62461bcd028152602060048201526012602482015260008051602061887e833981519152604482015290519081900360640190fd5b600d8054911515600160a01b02600160a01b60ff0219909216919091179055600c805461ff0019169055565b60015481565b336001600160a01b03166000356001600160e01b0319166001600160e01b03191660008051602061885e8339815191524260003660405180848152602001806020018281038252848482818152602001925080828437600083820152604051601f909101601f1916909201829003965090945050505050a3600c54610100900460ff16156134115760408051600160e51b62461bcd02815260206004820152600b60248201526000805160206187fe833981519152604482015290519081900360640190fd5b600c805461ff001916610100179055600d54336001600160a01b03909116146134725760408051600160e51b62461bcd028152602060048201526012602482015260008051602061887e833981519152604482015290519081900360640190fd5b60125460ff16156134c35760408051600160e51b62461bcd0281526020600482015260106024820152600160821b6f11549497d254d7d1925390531256915102604482015290519081900360640190fd5b6013546002111561351e5760408051600160e51b62461bcd02815260206004820152600e60248201527f4552525f4d494e5f544f4b454e53000000000000000000000000000000000000604482015290519081900360640190fd5b6012805460ff19166001179055600d8054600160a01b60ff021916600160a01b17905561355368056bc75e2d631000006182ff565b6135663368056bc75e2d63100000617df4565b600c805461ff0019169055565b600c54600090610100900460ff16156135c45760408051600160e51b62461bcd02815260206004820152600b60248201526000805160206187fe833981519152604482015290519081900360640190fd5b50600f546001600160a01b031690565b336001600160a01b03166000356001600160e01b0319166001600160e01b03191660008051602061885e8339815191524260003660405180848152602001806020018281038252848482818152602001925080828437600083820152604051601f909101601f1916909201829003965090945050505050a3600c54610100900460ff161561369a5760408051600160e51b62461bcd02815260206004820152600b60248201526000805160206187fe833981519152604482015290519081900360640190fd5b600c805461ff00191661010017905560125460ff161580156136bd575060105443115b1561372f57601654600e5460408051600160e51b6307e4a1c90281526001600160a01b0392831660048201529051919092169163fc94392091602480830192600092919082900301818387803b15801561371657600080fd5b505af115801561372a573d6000803e3d6000fd5b505050505b60125460ff166137775760408051600160e51b62461bcd02815260206004820152601160248201526000805160206187de833981519152604482015290519081900360640190fd5b600080805b60135481101561382a57600e54601380546001600160a01b0390921691839081106137a357fe5b6000918252602090912001546001600160a01b031614156137d4578484828181106137ca57fe5b9050602002013592505b600f54601380546001600160a01b0390921691839081106137f157fe5b6000918252602090912001546001600160a01b031614156138225784848281811061381857fe5b9050602002013591505b60010161377c565b50601654600e54600f5460408051600160e01b6324571dd70281526001600160a01b039384166004820152918316602483015260448201869052606482018590523360848301525160009392909216916324571dd79160a480820192602092909190829003018186803b1580156138a057600080fd5b505afa1580156138b4573d6000803e3d6000fd5b505050506040513d60208110156138ca57600080fd5b505190506001811515146139165760408051600160e51b62461bcd028152602060048201526018602482015260008051602061881e833981519152604482015290519081900360640190fd5b6000613920612192565b9050600061392e8883617edd565b9050806139735760408051600160e51b62461bcd02815260206004820152600f60248201526000805160206188fe833981519152604482015290519081900360640190fd5b60005b601354811015613af05760006013828154811061398f57fe5b60009182526020808320909101546001600160a01b031680835260149091526040822060030154909250906139c48583617c94565b905080613a095760408051600160e51b62461bcd02815260206004820152600f60248201526000805160206188fe833981519152604482015290519081900360640190fd5b8a8a85818110613a1557fe5b90506020020135811115613a655760408051600160e51b62461bcd02815260206004820152600c6024820152600160a11b6b22a9292fa624a6a4aa2fa4a702604482015290519081900360640190fd5b6001600160a01b038316600090815260146020526040902060030154613a8b9082618005565b6001600160a01b038416600081815260146020908152604091829020600301939093558051848152429381019390935280519192339260008051602061889e833981519152929181900390910190a3613ae58333836182a3565b505050600101613976565b50613afa886182ff565b613b043389617df4565b5050600c805461ff0019169055505050505050565b600080613b268487617edd565b90506000613b348685617d69565b90506000613b428783617edd565b90506000613b508285618062565b9050613b6481670de0b6b3a7640000617d69565b90506000600154600054600254010190506000613b8b670de0b6b3a7640000600254617d69565b9050613ba0613b9a8d85617c94565b82617edd565b9c9b505050505050505050505050565b600080613bbd8786617edd565b90506000613bcb8786618005565b90506000613bd98289617edd565b90506000613bef670de0b6b3a764000085617edd565b90506000613bfd8383618062565b90506000613c0b828e617c94565b90506000613c19828f617d69565b90506000613c38613c32670de0b6b3a76400008a617d69565b8b617c94565b9050613c5082611ea0670de0b6b3a764000084617d69565b9f9e505050505050505050505050505050565b600080613c708686617edd565b90506000613c7e8585617edd565b90506000613c8c8383617edd565b905060008054600154600254010190506000613cbc670de0b6b3a7640000611ea0670de0b6b3a764000085617d69565b9050613cc88382617c94565b9a9950505050505050505050565b6000336001600160a01b03166000356001600160e01b0319166001600160e01b03191660008051602061885e8339815191524260003660405180848152602001806020018281038252848482818152602001925080828437600083820152604051601f909101601f1916909201829003965090945050505050a3600c54610100900460ff1615613d9e5760408051600160e51b62461bcd02815260206004820152600b60248201526000805160206187fe833981519152604482015290519081900360640190fd5b600c805461ff00191661010017905560125460ff16158015613dc1575060105443115b15613e3357601654600e5460408051600160e51b6307e4a1c90281526001600160a01b0392831660048201529051919092169163fc94392091602480830192600092919082900301818387803b158015613e1a57600080fd5b505af1158015613e2e573d6000803e3d6000fd5b505050505b60125460ff16613e7b5760408051600160e51b62461bcd02815260206004820152601160248201526000805160206187de833981519152604482015290519081900360640190fd5b6001600160a01b03841660009081526014602052604090205460ff16613ed95760408051600160e51b62461bcd02815260206004820152600d60248201526000805160206188be833981519152604482015290519081900360640190fd5b6001600160a01b038416600090815260146020526040902060030154613f0b906002670de0b6b3a76400005b04617c94565b831115613f585760408051600160e51b62461bcd0281526020600482015260106024820152600160801b6f4552525f4d41585f494e5f524154494f02604482015290519081900360640190fd5b600e546001600160a01b0390811660008181526014602052604081209092909183918816141561402c5750600f54601654600e5460408051600160e01b6324571dd70281526001600160a01b03928316600482015293821660248501819052604485018a9052600060648601523360848601529051909392909116916324571dd79160a4808301926020929190829003018186803b158015613ff957600080fd5b505afa15801561400d573d6000803e3d6000fd5b505050506040513d602081101561402357600080fd5b505192506140e4565b5050600f546001600160a01b039081166000818152601460209081526040808320600e546016548351600160e01b6324571dd70281529188166004830181905260248301979097526044820195909552606481018b90523360848201529151909593909316926324571dd79260a480840193919291829003018186803b1580156140b557600080fd5b505afa1580156140c9573d6000803e3d6000fd5b505050506040513d60208110156140df57600080fd5b505192505b60018315151461412c5760408051600160e51b62461bcd028152602060048201526018602482015260008051602061881e833981519152604482015290519081900360640190fd5b6001600160a01b03871660009081526014602052604090206003810154600282015460095460155460115461416694939291908c90615e46565b9450858510156141b35760408051600160e51b62461bcd02815260206004820152600d60248201526001609a1b6c11549497d31253525517d3d55502604482015290519081900360640190fd5b6141c1816003015488618005565b60038201556040805188815242602082015281516001600160a01b038b1692339260008051602061889e833981519152929081900390910190a3614204856182ff565b61420e3386617df4565b6142198833896182a3565b6000614237846003015485600201546009546015548a601154613bb0565b601654600e5460408051600160e01b6326b1f01f0281526001600160a01b03928316600482015287831660248201526044810185905290519394509116916326b1f01f91606480820192602092909190829003018186803b15801561429b57600080fd5b505afa1580156142af573d6000803e3d6000fd5b505050506040513d60208110156142c557600080fd5b50511515600114156143cc57601654600e5460408051600160e01b6399039fcf0281526001600160a01b039283166004820152868316602482015260448101859052905191909216916399039fcf91606480830192600092919082900301818387803b15801561433457600080fd5b505af1158015614348573d6000803e3d6000fd5b5050505061435a846003015482618005565b6003850155600d546040805183815242602082015281516001600160a01b0380881694169260008051602061889e833981519152928290030190a361439e866182ff565b600d546143b4906001600160a01b031687617df4565b600d546143cc9084906001600160a01b0316836182a3565b5050505050600c805461ff00191690559392505050565b3360009081526008602090815260408083206001600160a01b038616845290915281205480831115614438573360009081526008602090815260408083206001600160a01b0388168452909152812055614467565b6144428184617d69565b3360009081526008602090815260408083206001600160a01b03891684529091529020555b3360008181526008602090815260408083206001600160a01b0389168085529083529281902054815190815290519293926000805160206188de833981519152929181900390910190a35060019392505050565b6001600160a01b03821660009081526014602052604081205460ff1615156001146144e857506000611a89565b6001600160a01b03831660009081526014602052604090206003810154600290910154600954601554601154611a8694939291908790615d87565b6001600160a01b03821660009081526014602052604081205460ff16151560011461455057506000611a89565b6001600160a01b03821660009081526014602052604090205460ff16151560011461457d57506000611a89565b6001600160a01b0380841660009081526014602052604080822060038082015460029283015495881685529290932092830154920154601154611a869492939190616527565b6000806145d08685617edd565b905060006145de8685618005565b905060006145ec8288617edd565b90506000614602670de0b6b3a764000085617edd565b905060006146108383618062565b9050600061461e828d617c94565b9050600061462c828e617d69565b9050600061464d614645670de0b6b3a76400008a617d69565b600254617c94565b9050611ed582611ea0670de0b6b3a764000084617d69565b6000336001600160a01b03166000356001600160e01b0319166001600160e01b03191660008051602061885e8339815191524260003660405180848152602001806020018281038252848482818152602001925080828437600083820152604051601f909101601f1916909201829003965090945050505050a3600c54610100900460ff161561472d5760408051600160e51b62461bcd02815260206004820152600b60248201526000805160206187fe833981519152604482015290519081900360640190fd5b600c805461ff00191661010017905560125460ff16158015614750575060105443115b156147c257601654600e5460408051600160e51b6307e4a1c90281526001600160a01b0392831660048201529051919092169163fc94392091602480830192600092919082900301818387803b1580156147a957600080fd5b505af11580156147bd573d6000803e3d6000fd5b505050505b60125460ff1661480a5760408051600160e51b62461bcd02815260206004820152601160248201526000805160206187de833981519152604482015290519081900360640190fd5b6001600160a01b03841660009081526014602052604090205460ff166148685760408051600160e51b62461bcd02815260206004820152600d60248201526000805160206188be833981519152604482015290519081900360640190fd5b6001600160a01b0384166000908152601460205260409020600381015460028201546009546015546011546148a294939291908990613bb0565b600e546001600160a01b0390811660008181526014602052604081209395509291839190891614156149785750600f54601654600e5460408051600160e01b6324571dd70281526001600160a01b0392831660048201529382166024850181905260448501899052600060648601523360848601529051909392909116916324571dd79160a4808301926020929190829003018186803b15801561494557600080fd5b505afa158015614959573d6000803e3d6000fd5b505050506040513d602081101561496f57600080fd5b50519250614a30565b5050600f546001600160a01b039081166000818152601460209081526040808320600e546016548351600160e01b6324571dd70281529188166004830181905260248301979097526044820195909552606481018a90523360848201529151909593909316926324571dd79260a480840193919291829003018186803b158015614a0157600080fd5b505afa158015614a15573d6000803e3d6000fd5b505050506040513d6020811015614a2b57600080fd5b505192505b600183151514614a785760408051600160e51b62461bcd028152602060048201526018602482015260008051602061881e833981519152604482015290519081900360640190fd5b84614abb5760408051600160e51b62461bcd02815260206004820152600f60248201526000805160206188fe833981519152604482015290519081900360640190fd5b85851115614b055760408051600160e51b62461bcd02815260206004820152600c6024820152600160a11b6b22a9292fa624a6a4aa2fa4a702604482015290519081900360640190fd5b6001600160a01b038816600090815260146020526040902060030154614b35906002670de0b6b3a7640000613f05565b851115614b825760408051600160e51b62461bcd0281526020600482015260106024820152600160801b6f4552525f4d41585f494e5f524154494f02604482015290519081900360640190fd5b614b90846003015486618005565b60038501556040805186815242602082015281516001600160a01b038b1692339260008051602061889e833981519152929081900390910190a3614bd3876182ff565b614bdd3388617df4565b614be88833876182a3565b6000614c06836003015484600201546009546015548c601154613bb0565b601654600e5460408051600160e01b6326b1f01f0281526001600160a01b03928316600482015286831660248201526044810185905290519394509116916326b1f01f91606480820192602092909190829003018186803b158015614c6a57600080fd5b505afa158015614c7e573d6000803e3d6000fd5b505050506040513d6020811015614c9457600080fd5b50511515600114156143cc57601654600e5460408051600160e01b6399039fcf0281526001600160a01b039283166004820152858316602482015260448101859052905191909216916399039fcf91606480830192600092919082900301818387803b158015614d0357600080fd5b505af1158015614d17573d6000803e3d6000fd5b50505050614d29836003015482618005565b6003840155600d546040805183815242602082015281516001600160a01b0380871694169260008051602061889e833981519152928290030190a3614d6d886182ff565b600d54614d83906001600160a01b031689617df4565b600d546143cc9083906001600160a01b0316836182a3565b6001600160a01b031660009081526007602052604090205490565b620f4240670de0b6b3a76400006121a8565b600080336001600160a01b03166000356001600160e01b0319166001600160e01b03191660008051602061885e8339815191524260003660405180848152602001806020018281038252848482818152602001925080828437600083820152604051601f909101601f1916909201829003965090945050505050a3600c54610100900460ff1615614e915760408051600160e51b62461bcd02815260206004820152600b60248201526000805160206187fe833981519152604482015290519081900360640190fd5b600c805461ff0019166101001790556001600160a01b03871660009081526014602052604090205460ff16614efe5760408051600160e51b62461bcd02815260206004820152600d60248201526000805160206188be833981519152604482015290519081900360640190fd5b6001600160a01b03851660009081526014602052604090205460ff16614f5c5760408051600160e51b62461bcd02815260206004820152600d60248201526000805160206188be833981519152604482015290519081900360640190fd5b60105443116151be57601654600e5460408051600160e01b63bee3913d0281526001600160a01b0392831660048201528a831660248201528883166044820152606481018890529051919092169163bee3913d916084808301926020929190829003018186803b158015614fcf57600080fd5b505afa158015614fe3573d6000803e3d6000fd5b505050506040513d6020811015614ff957600080fd5b50519150858211156150475760408051600160e51b62461bcd02815260206004820152600c6024820152600160a11b6b22a9292fa624a6a4aa2fa4a702604482015290519081900360640190fd5b600d5460408051600160e01b63095ea7b30281526001600160a01b039283166004820152602481018590529051899283169163095ea7b39160448083019260209291908290030181600087803b1580156150a057600080fd5b505af11580156150b4573d6000803e3d6000fd5b505050506040513d60208110156150ca57600080fd5b5050601654600e5460408051600160e01b6330c157010281526001600160a01b0392831660048201523360248201528b8316604482015260648101879052898316608482015260a48101899052905191909216916330c157019160c48083019260209291908290030181600087803b15801561514557600080fd5b505af1158015615159573d6000803e3d6000fd5b505050506040513d602081101561516f57600080fd5b50506040805184815260208101879052428183015290516001600160a01b0380891692908b1691339160008051602061891e833981519152919081900360600190a45083915060009050615595565b60125460ff161580156151d2575060105443115b1561524457601654600e5460408051600160e51b6307e4a1c90281526001600160a01b0392831660048201529051919092169163fc94392091602480830192600092919082900301818387803b15801561522b57600080fd5b505af115801561523f573d6000803e3d6000fd5b505050505b600d54600160a01b900460ff166152a55760408051600160e51b62461bcd02815260206004820152601360248201527f4552525f535741505f4e4f545f5055424c494300000000000000000000000000604482015290519081900360640190fd5b6001600160a01b03808816600090815260146020526040808220928816825290206003808201546152de91670de0b6b3a7640000611497565b86111561532c5760408051600160e51b62461bcd0281526020600482015260116024820152600160781b704552525f4d41585f4f55545f524154494f02604482015290519081900360640190fd5b600061534d8360030154846002015484600301548560020154601154616527565b9050858111156153a75760408051600160e51b62461bcd02815260206004820152601360248201527f4552525f4241445f4c494d49545f505249434500000000000000000000000000604482015290519081900360640190fd5b6153c483600301548460020154846003015485600201548b613b19565b9450888511156154105760408051600160e51b62461bcd02815260206004820152600c6024820152600160a11b6b22a9292fa624a6a4aa2fa4a702604482015290519081900360640190fd5b61541e836003015486618005565b8360030181905550615434826003015488617d69565b600380840182905584015460028086015490850154601154615457949190616527565b93508084101561549f5760408051600160e51b62461bcd02815260206004820152600f60248201526000805160206188fe833981519152604482015290519081900360640190fd5b858411156154ec5760408051600160e51b62461bcd02815260206004820152600f6024820152600160881b6e4552525f4c494d49545f505249434502604482015290519081900360640190fd5b6154f68588617edd565b81111561553b5760408051600160e51b62461bcd02815260206004820152600f60248201526000805160206188fe833981519152604482015290519081900360640190fd5b6040805186815260208101899052428183015290516001600160a01b03808b1692908d1691339160008051602061891e833981519152919081900360600190a46155868a33876182a3565b615591883389617dfe565b5050505b600c805461ff001916905590969095509350505050565b60046020526000908152604090205481565b600080336001600160a01b03166000356001600160e01b0319166001600160e01b03191660008051602061885e8339815191524260003660405180848152602001806020018281038252848482818152602001925080828437600083820152604051601f909101601f1916909201829003965090945050505050a3600c54610100900460ff16156156875760408051600160e51b62461bcd02815260206004820152600b60248201526000805160206187fe833981519152604482015290519081900360640190fd5b600c805461ff0019166101001790556001600160a01b03871660009081526014602052604090205460ff166156f45760408051600160e51b62461bcd02815260206004820152600d60248201526000805160206188be833981519152604482015290519081900360640190fd5b6001600160a01b03851660009081526014602052604090205460ff166157525760408051600160e51b62461bcd02815260206004820152600d60248201526000805160206188be833981519152604482015290519081900360640190fd5b60105443116159b257601654600e5460408051600160e01b6392f6cb670281526001600160a01b0392831660048201528a831660248201528883166044820152606481018a9052905191909216916392f6cb67916084808301926020929190829003018186803b1580156157c557600080fd5b505afa1580156157d9573d6000803e3d6000fd5b505050506040513d60208110156157ef57600080fd5b505191508382101561583e5760408051600160e51b62461bcd02815260206004820152600d60248201526001609a1b6c11549497d31253525517d3d55502604482015290519081900360640190fd5b600d5460408051600160e01b63095ea7b30281526001600160a01b039283166004820152602481018990529051899283169163095ea7b39160448083019260209291908290030181600087803b15801561589757600080fd5b505af11580156158ab573d6000803e3d6000fd5b505050506040513d60208110156158c157600080fd5b5050601654600e5460408051600160e01b633e6d363f0281526001600160a01b0392831660048201523360248201528b83166044820152606481018b9052898316608482015260a4810189905290519190921691633e6d363f9160c48083019260209291908290030181600087803b15801561593c57600080fd5b505af1158015615950573d6000803e3d6000fd5b505050506040513d602081101561596657600080fd5b50506040805188815260208101859052428183015290516001600160a01b0380891692908b1691339160008051602061891e833981519152919081900360600190a45060009050615595565b60125460ff161580156159c6575060105443115b15615a3857601654600e5460408051600160e51b6307e4a1c90281526001600160a01b0392831660048201529051919092169163fc94392091602480830192600092919082900301818387803b158015615a1f57600080fd5b505af1158015615a33573d6000803e3d6000fd5b505050505b600d54600160a01b900460ff16615a995760408051600160e51b62461bcd02815260206004820152601360248201527f4552525f535741505f4e4f545f5055424c494300000000000000000000000000604482015290519081900360640190fd5b6001600160a01b03808816600090815260146020526040808220928816825290206003820154615ad3906002670de0b6b3a7640000613f05565b881115615b205760408051600160e51b62461bcd0281526020600482015260106024820152600160801b6f4552525f4d41585f494e5f524154494f02604482015290519081900360640190fd5b6000615b418360030154846002015484600301548560020154601154616527565b905085811115615b9b5760408051600160e51b62461bcd02815260206004820152601360248201527f4552525f4241445f4c494d49545f505249434500000000000000000000000000604482015290519081900360640190fd5b615bb983600301548460020154846003015485600201548d8f618308565b945086851015615c065760408051600160e51b62461bcd02815260206004820152600d60248201526001609a1b6c11549497d31253525517d3d55502604482015290519081900360640190fd5b615c1483600301548a618005565b8360030181905550615c2a826003015486617d69565b600380840182905584015460028086015490850154601154615c4d949190616527565b935080841015615c955760408051600160e51b62461bcd02815260206004820152600f60248201526000805160206188fe833981519152604482015290519081900360640190fd5b85841115615ce25760408051600160e51b62461bcd02815260206004820152600f6024820152600160881b6e4552525f4c494d49545f505249434502604482015290519081900360640190fd5b615cec8986617edd565b811115615d315760408051600160e51b62461bcd02815260206004820152600f60248201526000805160206188fe833981519152604482015290519081900360640190fd5b604080518a815260208101879052428183015290516001600160a01b03808b1692908d1691339160008051602061891e833981519152919081900360600190a4615d7c8a338b6182a3565b615591883387617dfe565b600080615d948786617edd565b90506000615daa670de0b6b3a764000083617d69565b90506000615db88286617c94565b90506000615dd287611ea0670de0b6b3a764000085617d69565b90506000615de08c83617d69565b90506000615dee828e617edd565b90506000615dfc8288618062565b90506000615e0a828e617c94565b90506000615e188e83617d69565b9050615e3181611ea0670de0b6b3a76400006000617d69565b99505050505050505050509695505050505050565b600080615e538786617edd565b90506000615e72615e6c670de0b6b3a764000084617d69565b85617c94565b90506000615e8c86611e68670de0b6b3a764000085617d69565b90506000615e9a8b83618005565b90506000615ea8828d617edd565b90506000615eb68287618062565b90506000615ec4828d617c94565b9050611ed5818d617d69565b64e8d4a51000670de0b6b3a76400006121a8565b600080615ef18786617edd565b90506000615f0c85611e68670de0b6b3a76400006000617d69565b90506000615f1a8883617d69565b90506000615f28828a617edd565b90506000615f4782615f42670de0b6b3a764000088617edd565b618062565b90506000615f55828e617c94565b90506000615f638e83617d69565b90506000615f7c613c32670de0b6b3a76400008a617d69565b9050613c5082611e68670de0b6b3a764000084617d69565b336001600160a01b03166000356001600160e01b0319166001600160e01b03191660008051602061885e8339815191524260003660405180848152602001806020018281038252848482818152602001925080828437600083820152604051601f909101601f1916909201829003965090945050505050a3600c54610100900460ff161561605a5760408051600160e51b62461bcd02815260206004820152600b60248201526000805160206187fe833981519152604482015290519081900360640190fd5b600c805461ff0019166101001790556001600160a01b03811660009081526014602052604090205460ff166160c75760408051600160e51b62461bcd02815260206004820152600d60248201526000805160206188be833981519152604482015290519081900360640190fd5b60408051600160e01b6370a0823102815230600482015290516001600160a01b038316916370a08231916024808301926020929190829003018186803b15801561611057600080fd5b505afa158015616124573d6000803e3d6000fd5b505050506040513d602081101561613a57600080fd5b50516001600160a01b03909116600090815260146020526040902060030155600c805461ff0019169055565b6001600160a01b03821660009081526014602052604081205460ff16151560011461619357506000611a89565b6001600160a01b03831660009081526014602052604090206003810154600290910154600954601554601154611a8694939291908790615ee4565b60125460ff1690565b336001600160a01b03166000356001600160e01b0319166001600160e01b03191660008051602061885e8339815191524260003660405180848152602001806020018281038252848482818152602001925080828437600083820152604051601f909101601f1916909201829003965090945050505050a3600c54610100900460ff161561629d5760408051600160e51b62461bcd02815260206004820152600b60248201526000805160206187fe833981519152604482015290519081900360640190fd5b600c805461ff0019166101001790556001600160a01b03811661630a5760408051600160e51b62461bcd02815260206004820152601b60248201527f4552525f494e56414c49445f4d414e414745525f414444524553530000000000604482015290519081900360640190fd5b600d546001600160a01b0316331461635a5760408051600160e51b62461bcd028152602060048201526012602482015260008051602061887e833981519152604482015290519081900360640190fd5b600d80546001600160a01b0319166001600160a01b0392909216919091179055600c805461ff0019169055565b600c54600090610100900460ff16156163d85760408051600160e51b62461bcd02815260206004820152600b60248201526000805160206187fe833981519152604482015290519081900360640190fd5b5060155490565b68056bc75e2d6310000081565b600c54600090610100900460ff161561643d5760408051600160e51b62461bcd02815260206004820152600b60248201526000805160206187fe833981519152604482015290519081900360640190fd5b6001600160a01b03821660009081526014602052604090205460ff1661649b5760408051600160e51b62461bcd02815260206004820152600d60248201526000805160206188be833981519152604482015290519081900360640190fd5b506001600160a01b031660009081526014602052604090206002015490565b600b8054604080516020601f6002600019610100600188161502019095169490940493840181900481028201810190925282815260609390929091830182828015611b7c5780601f10611b5157610100808354040283529160200191611b7c565b6704a03ce68d21555681565b6000806165348787617edd565b905060006165428686617edd565b905060006165508383617edd565b90506000616572670de0b6b3a7640000611ea0670de0b6b3a764000089617d69565b9050613cc88282617c94565b60008061658b8685617edd565b905060006165a1670de0b6b3a764000083617d69565b905060006165b182600254617c94565b905060006165cb86611ea0670de0b6b3a764000085617d69565b905060006165d98b83617d69565b905060006165e7828d617edd565b905060006165f58288618062565b90506000616603828d617c94565b905060006166118d83617d69565b9050613c5081611ea0670de0b6b3a76400006000617d69565b6000616637338484618185565b50600192915050565b336001600160a01b03166000356001600160e01b0319166001600160e01b03191660008051602061885e8339815191524260003660405180848152602001806020018281038252848482818152602001925080828437600083820152604051601f909101601f1916909201829003965090945050505050a3600c54610100900460ff16156167065760408051600160e51b62461bcd02815260206004820152600b60248201526000805160206187fe833981519152604482015290519081900360640190fd5b600c805461ff00191661010017905560125460ff16158015616729575060105443115b1561679b57601654600e5460408051600160e51b6307e4a1c90281526001600160a01b0392831660048201529051919092169163fc94392091602480830192600092919082900301818387803b15801561678257600080fd5b505af1158015616796573d6000803e3d6000fd5b505050505b60125460ff166167e35760408051600160e51b62461bcd02815260206004820152601160248201526000805160206187de833981519152604482015290519081900360640190fd5b600080805b60135481101561689657600e54601380546001600160a01b03909216918390811061680f57fe5b6000918252602090912001546001600160a01b031614156168405784848281811061683657fe5b9050602002013592505b600f54601380546001600160a01b03909216918390811061685d57fe5b6000918252602090912001546001600160a01b0316141561688e5784848281811061688457fe5b9050602002013591505b6001016167e8565b50601654600e54600f5460408051600160e01b637eaf89010281526001600160a01b03938416600482015291831660248301526044820186905260648201859052336084830152516000939290921691637eaf89019160a480820192602092909190829003018186803b15801561690c57600080fd5b505afa158015616920573d6000803e3d6000fd5b505050506040513d602081101561693657600080fd5b505190506001811515146169825760408051600160e51b62461bcd028152602060048201526018602482015260008051602061881e833981519152604482015290519081900360640190fd5b600061698c612192565b9050600061699b886000617c94565b905060006169a98983617d69565b905060006169b78285617edd565b9050806169fc5760408051600160e51b62461bcd02815260206004820152600f60248201526000805160206188fe833981519152604482015290519081900360640190fd5b616a06338b617dda565b600c54616a22906201000090046001600160a01b031684617df4565b616a2b82617de8565b60005b601354811015616ba957600060138281548110616a4757fe5b60009182526020808320909101546001600160a01b03168083526014909152604082206003015490925090616a7c8583617c94565b905080616ac15760408051600160e51b62461bcd02815260206004820152600f60248201526000805160206188fe833981519152604482015290519081900360640190fd5b8c8c85818110616acd57fe5b90506020020135811015616b1e5760408051600160e51b62461bcd02815260206004820152600d60248201526001609a1b6c11549497d31253525517d3d55502604482015290519081900360640190fd5b6001600160a01b038316600090815260146020526040902060030154616b449082617d69565b6001600160a01b038416600081815260146020908152604091829020600301939093558051848152429381019390935280519192339260008051602061883e833981519152929181900390910190a3616b9e833383617dfe565b505050600101616a2e565b5050600c805461ff0019169055505050505050505050565b600881565b600080616bd38685617edd565b90506000616bec614645670de0b6b3a764000084617d69565b90506000616c0685611e68670de0b6b3a764000085617d69565b90506000616c148a83618005565b90506000616c22828c617edd565b90506000616c308287618062565b90506000616c3e828c617c94565b9050616c4a818c617d69565b9d9c50505050505050505050505050565b600281565b60005481565b6001600160a01b03821660009081526014602052604081205460ff161515600114616c9357506000611a89565b6001600160a01b03831660009081526014602052604090206003810154600290910154600954601554601154611a8694939291908790613bb0565b600181565b600080616ce08786617edd565b90506000616cf6670de0b6b3a764000085617d69565b9050616d028582617c94565b90506000616d148a611ea08c85618005565b90506000616d228285618062565b90506000616d38670de0b6b3a764000083617d69565b9050613ba08a82617c94565b600a670de0b6b3a76400006121a8565b671bc16d674ec7ffff81565b600c54606090610100900460ff1615616db15760408051600160e51b62461bcd02815260206004820152600b60248201526000805160206187fe833981519152604482015290519081900360640190fd5b60125460ff16616df95760408051600160e51b62461bcd02815260206004820152601160248201526000805160206187de833981519152604482015290519081900360640190fd5b6013805480602002602001604051908101604052809291908181526020018280548015611b7c57602002820191906000526020600020905b81546001600160a01b03168152600190910190602001808311616e31575050505050905090565b601654600090600160a01b900460ff1615616ebd5760408051600160e51b62461bcd02815260206004820152601760248201527f4552525f414c52454144595f494e495449414c495a4544000000000000000000604482015290519081900360640190fd5b6001600160a01b038a16616f1b5760408051600160e51b62461bcd02815260206004820152601e60248201527f4552525f494e56414c49445f434f4e54524f4c4c45525f414444524553530000604482015290519081900360640190fd5b6001600160a01b038916616f795760408051600160e51b62461bcd02815260206004820152601b60248201527f4552525f494e56414c49445f464143544f52595f414444524553530000000000604482015290519081900360640190fd5b64e8d4a51000881015616fc75760408051600160e51b62461bcd02815260206004820152600b6024820152600160a81b6a4552525f4d494e5f46454502604482015290519081900360640190fd5b67016345785d8a00008811156170185760408051600160e51b62461bcd02815260206004820152600b6024820152600160a81b6a4552525f4d41585f46454502604482015290519081900360640190fd5b613cc88a8a8a8a8a8a8a8a8a618439565b600081565b6001600160a01b03831660009081526014602052604081205460ff16151560011461705b57506000612317565b6001600160a01b03831660009081526014602052604090205460ff16151560011461708857506000612317565b6001600160a01b03808516600090815260146020526040808220600380820154600292830154958916855292909320928301549201546011546170d094929391908790616cd3565b949350505050565b600c54606090610100900460ff1615616df95760408051600160e51b62461bcd02815260206004820152600b60248201526000805160206187fe833981519152604482015290519081900360640190fd5b60135490565b336001600160a01b03166000356001600160e01b0319166001600160e01b03191660008051602061885e8339815191524260003660405180848152602001806020018281038252848482818152602001925080828437600083820152604051601f909101601f1916909201829003965090945050505050a3600c54610100900460ff16156171f55760408051600160e51b62461bcd02815260206004820152600b60248201526000805160206187fe833981519152604482015290519081900360640190fd5b600c805461ff001916610100179055600d54336001600160a01b03909116146172565760408051600160e51b62461bcd028152602060048201526012602482015260008051602061887e833981519152604482015290519081900360640190fd5b6001600160a01b03811660009081526014602052604090205460ff166172b45760408051600160e51b62461bcd02815260206004820152600d60248201526000805160206188be833981519152604482015290519081900360640190fd5b60125460ff16156173055760408051600160e51b62461bcd0281526020600482015260106024820152600160821b6f11549497d254d7d1925390531256915102604482015290519081900360640190fd5b6001600160a01b0381166000908152601460205260408120600301549061732c8282617c94565b6015546001600160a01b03851660009081526014602052604090206002015491925061735791617d69565b6015556001600160a01b03831660009081526014602052604090206001015460138054600019810191908290811061738b57fe5b600091825260209091200154601380546001600160a01b0390921691849081106173b157fe5b9060005260206000200160006101000a8154816001600160a01b0302191690836001600160a01b031602179055508160146000601385815481106173f157fe5b60009182526020808320909101546001600160a01b03168352820192909252604001902060010155601380548061742457fe5b60008281526020808220600019908401810180546001600160a01b031916905590920190925560408051608081018252838152808301848152818301858152606083018681526001600160a01b038c1687526014909552929094209051815460ff191690151517815592516001840155516002830155516003909101556174b08533612a328787617d69565b600c54612a589086906201000090046001600160a01b031685617dfe565b600c54600090610100900460ff161561751f5760408051600160e51b62461bcd02815260206004820152600b60248201526000805160206187fe833981519152604482015290519081900360640190fd5b5060115490565b6000806175338487617edd565b905060006175418685617d69565b9050600061754f8783617edd565b9050600061755d8285618062565b905061757181670de0b6b3a7640000617d69565b9050600060015460005460025401019050617594670de0b6b3a764000082617d69565b95506175a96175a38c84617c94565b87617edd565b9b9a5050505050505050505050565b3360009081526008602090815260408083206001600160a01b03861684529091528120546175e69083618005565b3360008181526008602090815260408083206001600160a01b0389168085529083529281902085905580519485525191936000805160206188de833981519152929081900390910190a350600192915050565b6001600160a01b03918216600090815260086020908152604080832093909416825291909152205490565b336001600160a01b03166000356001600160e01b0319166001600160e01b03191660008051602061885e8339815191524260003660405180848152602001806020018281038252848482818152602001925080828437600083820152604051601f909101601f1916909201829003965090945050505050a3600d546001600160a01b0316331461772c5760408051600160e51b62461bcd028152602060048201526012602482015260008051602061887e833981519152604482015290519081900360640190fd5b6001600160a01b03831660009081526014602052604090205460ff161561779d5760408051600160e51b62461bcd02815260206004820152600c60248201527f4552525f49535f424f554e440000000000000000000000000000000000000000604482015290519081900360640190fd5b60125460ff16156177ee5760408051600160e51b62461bcd0281526020600482015260106024820152600160821b6f11549497d254d7d1925390531256915102604482015290519081900360640190fd5b6013546008116178485760408051600160e51b62461bcd02815260206004820152600e60248201527f4552525f4d41585f544f4b454e53000000000000000000000000000000000000604482015290519081900360640190fd5b6040805160808101825260018082526013805460208085019182526000858701818152606087018281526001600160a01b038c1680845260149094529782209651875460ff1916901515178755925186860155915160028601559451600390940193909355805491820181559091527f66de8ffda797e3de9c05e8fc57b3bf0ec28a930d40b0d285d93c06501cf6a0900180546001600160a01b03191690911790556178f58383836125ff565b505050565b6002670de0b6b3a76400006121a8565b6000806179178685617edd565b9050600061793284611e68670de0b6b3a76400006000617d69565b905060006179408783617d69565b9050600061794e8289617edd565b9050600061796882615f42670de0b6b3a764000088617edd565b90506000617976828d617c94565b905060006179848d83617d69565b9050600061799d614645670de0b6b3a76400008a617d69565b9050611ed582611e68670de0b6b3a764000084617d69565b600c54600090610100900460ff1615617a065760408051600160e51b62461bcd02815260206004820152600b60248201526000805160206187fe833981519152604482015290519081900360640190fd5b6001600160a01b03821660009081526014602052604090205460ff16617a645760408051600160e51b62461bcd02815260206004820152600d60248201526000805160206188be833981519152604482015290519081900360640190fd5b6001600160a01b038216600090815260146020526040902060020154601554612317908290617edd565b6001600160a01b03831660009081526014602052604081205460ff161515600114617abb57506000612317565b6001600160a01b03831660009081526014602052604090205460ff161515600114617ae857506000612317565b6001600160a01b03808516600090815260146020526040808220600380820154600292830154958916855292909320928301549201546011546170d094929391908790617c10565b60066020526000908152604090205481565b600c54600090610100900460ff1615617b935760408051600160e51b62461bcd02815260206004820152600b60248201526000805160206187fe833981519152604482015290519081900360640190fd5b6001600160a01b03821660009081526014602052604090205460ff16617bf15760408051600160e51b62461bcd02815260206004820152600d60248201526000805160206188be833981519152604482015290519081900360640190fd5b506001600160a01b031660009081526014602052604090206003015490565b600080617c1d8588617edd565b90506000617c2b8786617d69565b90506000617c398883617edd565b90506000617c478285618062565b9050617c5b81670de0b6b3a7640000617d69565b9050617c6f670de0b6b3a764000087617d69565b94506175a9617c7e8c83617c94565b86617edd565b600d54600160a01b900460ff1690565b6000828202831580617cae575082848281617cab57fe5b04145b617cf85760408051600160e51b62461bcd0281526020600482015260106024820152600160801b6f4552525f4d554c5f4f564552464c4f5702604482015290519081900360640190fd5b6706f05b59d3b20000810181811015617d515760408051600160e51b62461bcd0281526020600482015260106024820152600160801b6f4552525f4d554c5f4f564552464c4f5702604482015290519081900360640190fd5b6000670de0b6b3a7640000825b049695505050505050565b6000806000617d7885856184f2565b915091508015617dd25760408051600160e51b62461bcd02815260206004820152601160248201527f4552525f5355425f554e444552464c4f57000000000000000000000000000000604482015290519081900360640190fd5b509392505050565b617de48282618517565b5050565b617df181618522565b50565b617de482826185fe565b60408051600160e01b63a9059cbb0281526001600160a01b03848116600483015260248201849052915160009286169163a9059cbb91604480830192602092919082900301818787803b158015617e5457600080fd5b505af1158015617e68573d6000803e3d6000fd5b505050506040513d6020811015617e7e57600080fd5b5051905080617ed75760408051600160e51b62461bcd02815260206004820152600f60248201527f4552525f45524332305f46414c53450000000000000000000000000000000000604482015290519081900360640190fd5b50505050565b600081617f345760408051600160e51b62461bcd02815260206004820152600c60248201527f4552525f4449565f5a45524f0000000000000000000000000000000000000000604482015290519081900360640190fd5b670de0b6b3a76400008302831580617f5c5750670de0b6b3a7640000848281617f5957fe5b04145b617fa65760408051600160e51b62461bcd0281526020600482015260106024820152600160821b6f11549497d1125597d25395115493905302604482015290519081900360640190fd5b60028304810181811015617ffa5760408051600160e51b62461bcd0281526020600482015260106024820152600160821b6f11549497d1125597d25395115493905302604482015290519081900360640190fd5b6000848281617d5e57fe5b600082820183811015611a865760408051600160e51b62461bcd02815260206004820152601060248201527f4552525f4144445f4f564552464c4f5700000000000000000000000000000000604482015290519081900360640190fd5b600060018310156180bd5760408051600160e51b62461bcd02815260206004820152601560248201527f4552525f42504f575f424153455f544f4f5f4c4f570000000000000000000000604482015290519081900360640190fd5b671bc16d674ec7ffff83111561811d5760408051600160e51b62461bcd02815260206004820152601660248201527f4552525f42504f575f424153455f544f4f5f4849474800000000000000000000604482015290519081900360640190fd5b600061812883618609565b905060006181368483617d69565b9050600061814c8661814785618624565b618632565b90508161815d579250611a89915050565b600061816e87846305f5e10061868a565b905061817a8282617c94565b979650505050505050565b6001600160a01b0383166000908152600760205260409020548111156181f55760408051600160e51b62461bcd02815260206004820152601460248201527f4552525f494e53554646494349454e545f42414c000000000000000000000000604482015290519081900360640190fd5b6001600160a01b0383166000908152600760205260409020546182189082617d69565b6001600160a01b0380851660009081526007602052604080822093909355908416815220546182479082618005565b6001600160a01b0380841660008181526007602090815260409182902094909455805185815290519193928716927fddf252ad1be2c89b69c2b068fc378daa952ba7f163c4a11628f55a4df523b3ef92918290030190a3505050565b60408051600160e01b6323b872dd0281526001600160a01b0384811660048301523060248301526044820184905291516000928616916323b872dd91606480830192602092919082900301818787803b158015617e5457600080fd5b617df181618768565b6000806183158786617edd565b9050600061832d670de0b6b3a7640000600254617d69565b90506183398582617c94565b9050600061835586611e68670de0b6b3a7640000600054617d69565b6001600160a01b03861660009081526003602052604090205490915061837b9082618005565b6001600160a01b0386166000908152600360205260408120919091556001546183b3908890611e6890670de0b6b3a764000090617d69565b6001600160a01b0387166000908152600560205260409020549091506183d99082618005565b6001600160a01b0387166000908152600560205260408120919091558383018201906184098d611ea08185618005565b905060006184178288618062565b9050600061842d670de0b6b3a764000083617d69565b9050613c508d82617c94565b600d8054600c805462010000600160b01b031916620100006001600160a01b039c8d16021790556011989098556000969096556001600160a01b031996871698881698909817600160a01b60ff0219908116600160a01b951515860217958690556012805460ff191694151594909417909355600e8054871692881692909217909155600f805486169187169190911790556016805460109790975592909416949093168317909116929092179182905560ff91041690565b6000808284106185085750508082036000618510565b505081810360015b9250929050565b617de4823083618185565b306000908152600760205260409020548111156185895760408051600160e51b62461bcd02815260206004820152601460248201527f4552525f494e53554646494349454e545f42414c000000000000000000000000604482015290519081900360640190fd5b306000908152600760205260409020546185a39082617d69565b306000908152600760205260409020556009546185c09082617d69565b60095560408051828152905160009130917fddf252ad1be2c89b69c2b068fc378daa952ba7f163c4a11628f55a4df523b3ef9181900360200190a350565b617de4308383618185565b6000670de0b6b3a764000061861d83618624565b0292915050565b670de0b6b3a7640000900490565b600082816002840661864c57670de0b6b3a764000061864e565b815b90506002840493505b83156170d0576186678283617c94565b9150600284061561867f5761867c8183617c94565b90505b600284049350618657565b60008281806186a187670de0b6b3a76400006184f2565b9092509050670de0b6b3a764000080600060015b888410618759576000670de0b6b3a7640000820290506000806186e98a6186e485670de0b6b3a7640000617d69565b6184f2565b915091506186fb87611e68848c617c94565b96506187078784617edd565b96508661871657505050618759565b8715618720579315935b801561872a579315935b84156187415761873a8688617d69565b955061874e565b61874b8688618005565b95505b5050506001016186b5565b50909998505050505050505050565b306000908152600760205260409020546187829082618005565b3060009081526007602052604090205560095461879f9082618005565b60095560408051828152905130916000917fddf252ad1be2c89b69c2b068fc378daa952ba7f163c4a11628f55a4df523b3ef9181900360200190a35056fe4552525f4e4f545f46494e414c495a45440000000000000000000000000000004552525f5245454e5452590000000000000000000000000000000000000000004552525f44454e4945445f42595f434f4e54524f4c4c455200000000000000009d9058fd2f25ccc389fec7720abef0ca83472f5abfafd5f10d37f51e6a0493f349691c908be0a8f80db7c1d76fffba317a76f963b252fcd0f82f252e8c86d3e94552525f4e4f545f434f4e54524f4c4c4552000000000000000000000000000015a8ca63e37b2cff1677df2b6b82d36fcf8a524228bd7a4b4d02d107c28c1e8a4552525f4e4f545f424f554e44000000000000000000000000000000000000008c5be1e5ebec7d5bd14f71427d1e84f3dd0314c0f7b2291e5b200ac8c7c3b9254552525f4d4154485f415050524f58000000000000000000000000000000000050ef2fc267012b5c84b56835f16ffd5331ac5a151a3760d74908721ba78b0efea165627a7a72305820298e9d841f9403d7647fa5b85c59a87f9c22a60032d69c73ad3f95e4bea996980029",
  "linkReferences": {},
  "deployedLinkReferences": {}
}