{
  "_format": "hh-sol-artifact-1",
  "contractName": "BPool",
  "sourceName": "contracts/v3/balancer/BPool.sol",
  "abi": [
    {
      "constant": false,
      "inputs": [
        {
          "name": "tokenOut",
          "type": "address"
        },
        {
          "name": "tokenAmountOut",
          "type": "uint256"
        },
        {
          "name": "maxPoolAmountIn",
          "type": "uint256"
        }
      ],
      "name": "exitswapExternAmountOut",
      "outputs": [
        {
          "name": "poolAmountIn",
          "type": "uint256"
        }
      ],
      "payable": false,
      "stateMutability": "nonpayable",
      "type": "function"
    },
    {
      "constant": true,
      "inputs": [],
      "name": "getDataTokenAddress",
      "outputs": [
        {
          "name": "",
          "type": "address"
        }
      ],
      "payable": false,
      "stateMutability": "view",
      "type": "function"
    },
    {
      "constant": true,
      "inputs": [],
      "name": "name",
      "outputs": [
        {
          "name": "",
          "type": "string"
        }
      ],
      "payable": false,
      "stateMutability": "view",
      "type": "function"
    },
    {
      "constant": false,
      "inputs": [
        {
          "name": "dst",
          "type": "address"
        },
        {
          "name": "amt",
          "type": "uint256"
        }
      ],
      "name": "approve",
      "outputs": [
        {
          "name": "",
          "type": "bool"
        }
      ],
      "payable": false,
      "stateMutability": "nonpayable",
      "type": "function"
    },
    {
      "constant": true,
      "inputs": [],
      "name": "MAX_TOTAL_WEIGHT",
      "outputs": [
        {
          "name": "",
          "type": "uint256"
        }
      ],
      "payable": false,
      "stateMutability": "view",
      "type": "function"
    },
    {
      "constant": false,
      "inputs": [
        {
          "name": "dataTokenAddress",
          "type": "address"
        },
        {
          "name": "dataTokenAmount",
          "type": "uint256"
        },
        {
          "name": "dataTokenWeight",
          "type": "uint256"
        },
        {
          "name": "baseTokenAddress",
          "type": "address"
        },
        {
          "name": "baseTokenAmount",
          "type": "uint256"
        },
        {
          "name": "baseTokenWeight",
          "type": "uint256"
        }
      ],
      "name": "setup",
      "outputs": [],
      "payable": false,
      "stateMutability": "nonpayable",
      "type": "function"
    },
    {
      "constant": true,
      "inputs": [
        {
          "name": "tokenIn",
          "type": "address"
        },
        {
          "name": "tokenOut",
          "type": "address"
        }
      ],
      "name": "getSpotPrice",
      "outputs": [
        {
          "name": "spotPrice",
          "type": "uint256"
        }
      ],
      "payable": false,
      "stateMutability": "view",
      "type": "function"
    },
    {
      "constant": true,
      "inputs": [],
      "name": "totalSupply",
      "outputs": [
        {
          "name": "",
          "type": "uint256"
        }
      ],
      "payable": false,
      "stateMutability": "view",
      "type": "function"
    },
    {
      "constant": true,
      "inputs": [],
      "name": "BPOW_PRECISION",
      "outputs": [
        {
          "name": "",
          "type": "uint256"
        }
      ],
      "payable": false,
      "stateMutability": "view",
      "type": "function"
    },
    {
      "constant": true,
      "inputs": [],
      "name": "MIN_WEIGHT",
      "outputs": [
        {
          "name": "",
          "type": "uint256"
        }
      ],
      "payable": false,
      "stateMutability": "view",
      "type": "function"
    },
    {
      "constant": false,
      "inputs": [
        {
          "name": "src",
          "type": "address"
        },
        {
          "name": "dst",
          "type": "address"
        },
        {
          "name": "amt",
          "type": "uint256"
        }
      ],
      "name": "transferFrom",
      "outputs": [
        {
          "name": "",
          "type": "bool"
        }
      ],
      "payable": false,
      "stateMutability": "nonpayable",
      "type": "function"
    },
    {
      "constant": true,
      "inputs": [
        {
          "name": "t",
          "type": "address"
        }
      ],
      "name": "isBound",
      "outputs": [
        {
          "name": "",
          "type": "bool"
        }
      ],
      "payable": false,
      "stateMutability": "view",
      "type": "function"
    },
    {
      "constant": true,
      "inputs": [
        {
          "name": "",
          "type": "address"
        }
      ],
      "name": "communityFees",
      "outputs": [
        {
          "name": "",
          "type": "uint256"
        }
      ],
      "payable": false,
      "stateMutability": "view",
      "type": "function"
    },
    {
      "constant": true,
      "inputs": [],
      "name": "getController",
      "outputs": [
        {
          "name": "",
          "type": "address"
        }
      ],
      "payable": false,
      "stateMutability": "view",
      "type": "function"
    },
    {
      "constant": true,
      "inputs": [],
      "name": "decimals",
      "outputs": [
        {
          "name": "",
          "type": "uint8"
        }
      ],
      "payable": false,
      "stateMutability": "view",
      "type": "function"
    },
    {
      "constant": true,
      "inputs": [
        {
          "name": "",
          "type": "address"
        }
      ],
      "name": "marketFees",
      "outputs": [
        {
          "name": "",
          "type": "uint256"
        }
      ],
      "payable": false,
      "stateMutability": "view",
      "type": "function"
    },
    {
      "constant": false,
      "inputs": [
        {
          "name": "swapFee",
          "type": "uint256"
        }
      ],
      "name": "setSwapFee",
      "outputs": [],
      "payable": false,
      "stateMutability": "nonpayable",
      "type": "function"
    },
    {
      "constant": true,
      "inputs": [],
      "name": "isInitialized",
      "outputs": [
        {
          "name": "",
          "type": "bool"
        }
      ],
      "payable": false,
      "stateMutability": "view",
      "type": "function"
    },
    {
      "constant": false,
      "inputs": [
        {
          "name": "tokenOut",
          "type": "address"
        },
        {
          "name": "poolAmountIn",
          "type": "uint256"
        },
        {
          "name": "minAmountOut",
          "type": "uint256"
        }
      ],
      "name": "exitswapPoolAmountIn",
      "outputs": [
        {
          "name": "tokenAmountOut",
          "type": "uint256"
        }
      ],
      "payable": false,
      "stateMutability": "nonpayable",
      "type": "function"
    },
    {
      "constant": true,
      "inputs": [],
      "name": "_swapMarketFee",
      "outputs": [
        {
          "name": "",
          "type": "uint256"
        }
      ],
      "payable": false,
      "stateMutability": "view",
      "type": "function"
    },
    {
      "constant": true,
      "inputs": [],
      "name": "getBaseTokenAddress",
      "outputs": [
        {
          "name": "",
          "type": "address"
        }
      ],
      "payable": false,
      "stateMutability": "view",
      "type": "function"
    },
    {
      "constant": false,
      "inputs": [
        {
          "name": "poolAmountOut",
          "type": "uint256"
        },
        {
          "name": "maxAmountsIn",
          "type": "uint256[]"
        }
      ],
      "name": "joinPool",
      "outputs": [],
      "payable": false,
      "stateMutability": "nonpayable",
      "type": "function"
    },
    {
      "constant": false,
      "inputs": [
        {
          "name": "tokenIn",
          "type": "address"
        },
        {
          "name": "tokenAmountIn",
          "type": "uint256"
        },
        {
          "name": "minPoolAmountOut",
          "type": "uint256"
        }
      ],
      "name": "joinswapExternAmountIn",
      "outputs": [
        {
          "name": "poolAmountOut",
          "type": "uint256"
        }
      ],
      "payable": false,
      "stateMutability": "nonpayable",
      "type": "function"
    },
    {
      "constant": false,
      "inputs": [
        {
          "name": "dst",
          "type": "address"
        },
        {
          "name": "amt",
          "type": "uint256"
        }
      ],
      "name": "decreaseApproval",
      "outputs": [
        {
          "name": "",
          "type": "bool"
        }
      ],
      "payable": false,
      "stateMutability": "nonpayable",
      "type": "function"
    },
    {
      "constant": false,
      "inputs": [
        {
          "name": "tokenIn",
          "type": "address"
        },
        {
          "name": "poolAmountOut",
          "type": "uint256"
        },
        {
          "name": "maxAmountIn",
          "type": "uint256"
        }
      ],
      "name": "joinswapPoolAmountOut",
      "outputs": [
        {
          "name": "tokenAmountIn",
          "type": "uint256"
        }
      ],
      "payable": false,
      "stateMutability": "nonpayable",
      "type": "function"
    },
    {
      "constant": false,
      "inputs": [
        {
          "name": "_newCollector",
          "type": "address"
        }
      ],
      "name": "updateMarketFeeCollector",
      "outputs": [],
      "payable": false,
      "stateMutability": "nonpayable",
      "type": "function"
    },
    {
      "constant": true,
      "inputs": [
        {
          "name": "whom",
          "type": "address"
        }
      ],
      "name": "balanceOf",
      "outputs": [
        {
          "name": "",
          "type": "uint256"
        }
      ],
      "payable": false,
      "stateMutability": "view",
      "type": "function"
    },
    {
      "constant": true,
      "inputs": [],
      "name": "MIN_FEE",
      "outputs": [
        {
          "name": "",
          "type": "uint256"
        }
      ],
      "payable": false,
      "stateMutability": "view",
      "type": "function"
    },
    {
      "constant": false,
      "inputs": [
        {
          "name": "tokenIn",
          "type": "address"
        },
        {
          "name": "maxAmountIn",
          "type": "uint256"
        },
        {
          "name": "tokenOut",
          "type": "address"
        },
        {
          "name": "tokenAmountOut",
          "type": "uint256"
        },
        {
          "name": "maxPrice",
          "type": "uint256"
        }
      ],
      "name": "swapExactAmountOut",
      "outputs": [
        {
          "name": "tokenAmountIn",
          "type": "uint256"
        },
        {
          "name": "spotPriceAfter",
          "type": "uint256"
        }
      ],
      "payable": false,
      "stateMutability": "nonpayable",
      "type": "function"
    },
    {
      "constant": false,
      "inputs": [
        {
          "name": "tokenIn",
          "type": "address"
        },
        {
          "name": "tokenAmountIn",
          "type": "uint256"
        },
        {
          "name": "tokenOut",
          "type": "address"
        },
        {
          "name": "minAmountOut",
          "type": "uint256"
        },
        {
          "name": "maxPrice",
          "type": "uint256"
        }
      ],
      "name": "swapExactAmountIn",
      "outputs": [
        {
          "name": "tokenAmountOut",
          "type": "uint256"
        },
        {
          "name": "spotPriceAfter",
          "type": "uint256"
        }
      ],
      "payable": false,
      "stateMutability": "nonpayable",
      "type": "function"
    },
    {
      "constant": true,
      "inputs": [],
      "name": "MIN_BALANCE",
      "outputs": [
        {
          "name": "",
          "type": "uint256"
        }
      ],
      "payable": false,
      "stateMutability": "view",
      "type": "function"
    },
    {
      "constant": true,
      "inputs": [],
      "name": "isFinalized",
      "outputs": [
        {
          "name": "",
          "type": "bool"
        }
      ],
      "payable": false,
      "stateMutability": "view",
      "type": "function"
    },
    {
      "constant": false,
      "inputs": [
        {
          "name": "to",
          "type": "address"
        }
      ],
      "name": "collectOPF",
      "outputs": [],
      "payable": false,
      "stateMutability": "nonpayable",
      "type": "function"
    },
    {
      "constant": true,
      "inputs": [],
      "name": "getTotalDenormalizedWeight",
      "outputs": [
        {
          "name": "",
          "type": "uint256"
        }
      ],
      "payable": false,
      "stateMutability": "view",
      "type": "function"
    },
    {
      "constant": true,
      "inputs": [],
      "name": "INIT_POOL_SUPPLY",
      "outputs": [
        {
          "name": "",
          "type": "uint256"
        }
      ],
      "payable": false,
      "stateMutability": "view",
      "type": "function"
    },
    {
      "constant": true,
      "inputs": [
        {
          "name": "token",
          "type": "address"
        }
      ],
      "name": "getDenormalizedWeight",
      "outputs": [
        {
          "name": "",
          "type": "uint256"
        }
      ],
      "payable": false,
      "stateMutability": "view",
      "type": "function"
    },
    {
      "constant": true,
      "inputs": [],
      "name": "symbol",
      "outputs": [
        {
          "name": "",
          "type": "string"
        }
      ],
      "payable": false,
      "stateMutability": "view",
      "type": "function"
    },
    {
      "constant": true,
      "inputs": [],
      "name": "MAX_OUT_RATIO",
      "outputs": [
        {
          "name": "",
          "type": "uint256"
        }
      ],
      "payable": false,
      "stateMutability": "view",
      "type": "function"
    },
    {
      "constant": true,
      "inputs": [],
      "name": "_marketCollector",
      "outputs": [
        {
          "name": "",
          "type": "address"
        }
      ],
      "payable": false,
      "stateMutability": "view",
      "type": "function"
    },
    {
      "constant": false,
      "inputs": [
        {
          "name": "dst",
          "type": "address"
        },
        {
          "name": "amt",
          "type": "uint256"
        }
      ],
      "name": "transfer",
      "outputs": [
        {
          "name": "",
          "type": "bool"
        }
      ],
      "payable": false,
      "stateMutability": "nonpayable",
      "type": "function"
    },
    {
      "constant": false,
      "inputs": [
        {
          "name": "poolAmountIn",
          "type": "uint256"
        },
        {
          "name": "minAmountsOut",
          "type": "uint256[]"
        }
      ],
      "name": "exitPool",
      "outputs": [],
      "payable": false,
      "stateMutability": "nonpayable",
      "type": "function"
    },
    {
      "constant": true,
      "inputs": [],
      "name": "MAX_BOUND_TOKENS",
      "outputs": [
        {
          "name": "",
          "type": "uint256"
        }
      ],
      "payable": false,
      "stateMutability": "view",
      "type": "function"
    },
    {
      "constant": true,
      "inputs": [],
      "name": "MIN_BOUND_TOKENS",
      "outputs": [
        {
          "name": "",
          "type": "uint256"
        }
      ],
      "payable": false,
      "stateMutability": "view",
      "type": "function"
    },
    {
      "constant": true,
      "inputs": [],
      "name": "_swapOceanFee",
      "outputs": [
        {
          "name": "",
          "type": "uint256"
        }
      ],
      "payable": false,
      "stateMutability": "view",
      "type": "function"
    },
    {
      "constant": true,
      "inputs": [],
      "name": "MIN_BPOW_BASE",
      "outputs": [
        {
          "name": "",
          "type": "uint256"
        }
      ],
      "payable": false,
      "stateMutability": "view",
      "type": "function"
    },
    {
      "constant": true,
      "inputs": [],
      "name": "MAX_FEE",
      "outputs": [
        {
          "name": "",
          "type": "uint256"
        }
      ],
      "payable": false,
      "stateMutability": "view",
      "type": "function"
    },
    {
      "constant": true,
      "inputs": [],
      "name": "MAX_BPOW_BASE",
      "outputs": [
        {
          "name": "",
          "type": "uint256"
        }
      ],
      "payable": false,
      "stateMutability": "view",
      "type": "function"
    },
    {
      "constant": true,
      "inputs": [],
      "name": "getFinalTokens",
      "outputs": [
        {
          "name": "tokens",
          "type": "address[]"
        }
      ],
      "payable": false,
      "stateMutability": "view",
      "type": "function"
    },
    {
      "constant": false,
      "inputs": [
        {
          "name": "controller",
          "type": "address"
        },
        {
          "name": "factory",
          "type": "address"
        },
        {
          "name": "swapFees",
          "type": "uint256[]"
        },
        {
          "name": "publicSwap",
          "type": "bool"
        },
        {
          "name": "finalized",
          "type": "bool"
        },
        {
          "name": "tokens",
          "type": "address[2]"
        },
        {
          "name": "feeCollectors",
          "type": "address[2]"
        }
      ],
      "name": "initialize",
      "outputs": [
        {
          "name": "",
          "type": "bool"
        }
      ],
      "payable": false,
      "stateMutability": "nonpayable",
      "type": "function"
    },
    {
      "constant": true,
      "inputs": [],
      "name": "BONE",
      "outputs": [
        {
          "name": "",
          "type": "uint256"
        }
      ],
      "payable": false,
      "stateMutability": "view",
      "type": "function"
    },
    {
      "constant": true,
      "inputs": [],
      "name": "EXIT_FEE",
      "outputs": [
        {
          "name": "",
          "type": "uint256"
        }
      ],
      "payable": false,
      "stateMutability": "view",
      "type": "function"
    },
    {
      "constant": true,
      "inputs": [],
      "name": "getNumTokens",
      "outputs": [
        {
          "name": "",
          "type": "uint256"
        }
      ],
      "payable": false,
      "stateMutability": "view",
      "type": "function"
    },
    {
      "constant": true,
      "inputs": [],
      "name": "getSwapFee",
      "outputs": [
        {
          "name": "",
          "type": "uint256"
        }
      ],
      "payable": false,
      "stateMutability": "view",
      "type": "function"
    },
    {
      "constant": false,
      "inputs": [
        {
          "name": "dst",
          "type": "address"
        },
        {
          "name": "amt",
          "type": "uint256"
        }
      ],
      "name": "increaseApproval",
      "outputs": [
        {
          "name": "",
          "type": "bool"
        }
      ],
      "payable": false,
      "stateMutability": "nonpayable",
      "type": "function"
    },
    {
      "constant": true,
      "inputs": [
        {
          "name": "src",
          "type": "address"
        },
        {
          "name": "dst",
          "type": "address"
        }
      ],
      "name": "allowance",
      "outputs": [
        {
          "name": "",
          "type": "uint256"
        }
      ],
      "payable": false,
      "stateMutability": "view",
      "type": "function"
    },
    {
      "constant": true,
      "inputs": [],
      "name": "MAX_WEIGHT",
      "outputs": [
        {
          "name": "",
          "type": "uint256"
        }
      ],
      "payable": false,
      "stateMutability": "view",
      "type": "function"
    },
    {
      "constant": true,
      "inputs": [],
      "name": "MAX_IN_RATIO",
      "outputs": [
        {
          "name": "",
          "type": "uint256"
        }
      ],
      "payable": false,
      "stateMutability": "view",
      "type": "function"
    },
    {
      "constant": true,
      "inputs": [],
      "name": "_opfCollector",
      "outputs": [
        {
          "name": "",
          "type": "address"
        }
      ],
      "payable": false,
      "stateMutability": "view",
      "type": "function"
    },
    {
      "constant": true,
      "inputs": [
        {
          "name": "token",
          "type": "address"
        }
      ],
      "name": "getNormalizedWeight",
      "outputs": [
        {
          "name": "",
          "type": "uint256"
        }
      ],
      "payable": false,
      "stateMutability": "view",
      "type": "function"
    },
    {
      "constant": true,
      "inputs": [
        {
          "name": "token",
          "type": "address"
        }
      ],
      "name": "getBalance",
      "outputs": [
        {
          "name": "",
          "type": "uint256"
        }
      ],
      "payable": false,
      "stateMutability": "view",
      "type": "function"
    },
    {
      "constant": false,
      "inputs": [
        {
          "name": "to",
          "type": "address"
        }
      ],
      "name": "collectMarketFee",
      "outputs": [],
      "payable": false,
      "stateMutability": "nonpayable",
      "type": "function"
    },
    {
      "constant": true,
      "inputs": [],
      "name": "isPublicSwap",
      "outputs": [
        {
          "name": "",
          "type": "bool"
        }
      ],
      "payable": false,
      "stateMutability": "view",
      "type": "function"
    },
    {
      "anonymous": false,
      "inputs": [
        {
          "indexed": true,
          "name": "caller",
          "type": "address"
        },
        {
          "indexed": true,
          "name": "tokenIn",
          "type": "address"
        },
        {
          "indexed": true,
          "name": "tokenOut",
          "type": "address"
        },
        {
          "indexed": false,
          "name": "tokenAmountIn",
          "type": "uint256"
        },
        {
          "indexed": false,
          "name": "tokenAmountOut",
          "type": "uint256"
        },
        {
          "indexed": false,
          "name": "timestamp",
          "type": "uint256"
        }
      ],
      "name": "LOG_SWAP",
      "type": "event"
    },
    {
      "anonymous": false,
      "inputs": [
        {
          "indexed": true,
          "name": "caller",
          "type": "address"
        },
        {
          "indexed": true,
          "name": "tokenIn",
          "type": "address"
        },
        {
          "indexed": false,
          "name": "tokenAmountIn",
          "type": "uint256"
        },
        {
          "indexed": false,
          "name": "timestamp",
          "type": "uint256"
        }
      ],
      "name": "LOG_JOIN",
      "type": "event"
    },
    {
      "anonymous": false,
      "inputs": [
        {
          "indexed": true,
          "name": "caller",
          "type": "address"
        },
        {
          "indexed": true,
          "name": "tokenOut",
          "type": "address"
        },
        {
          "indexed": false,
          "name": "tokenAmountOut",
          "type": "uint256"
        },
        {
          "indexed": false,
          "name": "timestamp",
          "type": "uint256"
        }
      ],
      "name": "LOG_EXIT",
      "type": "event"
    },
    {
      "anonymous": false,
      "inputs": [
        {
          "indexed": true,
          "name": "sig",
          "type": "bytes4"
        },
        {
          "indexed": true,
          "name": "caller",
          "type": "address"
        },
        {
          "indexed": false,
          "name": "timestamp",
          "type": "uint256"
        },
        {
          "indexed": false,
          "name": "data",
          "type": "bytes"
        }
      ],
      "name": "LOG_CALL",
      "type": "event"
    },
    {
      "anonymous": false,
      "inputs": [
        {
          "indexed": false,
          "name": "bptAmount",
          "type": "uint256"
        }
      ],
      "name": "LOG_BPT",
      "type": "event"
    },
    {
      "anonymous": false,
      "inputs": [
        {
          "indexed": true,
          "name": "src",
          "type": "address"
        },
        {
          "indexed": true,
          "name": "dst",
          "type": "address"
        },
        {
          "indexed": false,
          "name": "amt",
          "type": "uint256"
        }
      ],
      "name": "Approval",
      "type": "event"
    },
    {
      "anonymous": false,
      "inputs": [
        {
          "indexed": true,
          "name": "src",
          "type": "address"
        },
        {
          "indexed": true,
          "name": "dst",
          "type": "address"
        },
        {
          "indexed": false,
          "name": "amt",
          "type": "uint256"
        }
      ],
      "name": "Transfer",
      "type": "event"
    },
    {
      "anonymous": false,
      "inputs": [
        {
          "indexed": false,
          "name": "swapFeeAmount",
          "type": "uint256"
        },
        {
          "indexed": false,
          "name": "oceanFeeAmount",
          "type": "uint256"
        },
        {
          "indexed": false,
          "name": "marketFeeAmount",
          "type": "uint256"
        },
        {
          "indexed": false,
          "name": "tokenFees",
          "type": "address"
        }
      ],
      "name": "SWAP_FEES",
      "type": "event"
    }
  ],
  "bytecode": "0x60c0604052601360808190527f42616c616e63657220506f6f6c20546f6b656e0000000000000000000000000060a0908152620000409160089190620000a9565b506040805180820190915260038082527f425054000000000000000000000000000000000000000000000000000000000060209092019182526200008791600991620000a9565b50600a805460ff19166012179055348015620000a257600080fd5b506200014e565b828054600181600116156101000203166002900490600052602060002090601f016020900481019282601f10620000ec57805160ff19168380011785556200011c565b828001600101855582156200011c579182015b828111156200011c578251825591602001919060010190620000ff565b506200012a9291506200012e565b5090565b6200014b91905b808211156200012a576000815560010162000135565b90565b615d0d806200015e6000396000f3fe608060405234801561001057600080fd5b50600436106103ba5760003560e01c80638d4e4083116101f4578063bc694ea21161011a578063dd62ed3e116100ad578063f1b8a9b71161007c578063f1b8a9b714610b74578063f8b2cb4f14610b9a578063fbb9dd5014610bc0578063fde924f714610be6576103ba565b8063dd62ed3e14610b36578063e4a28a52146104e4578063ec09302114610b64578063f0f13f0b14610b6c576103ba565b8063c6580d12116100e9578063c6580d1214610af2578063cd2ed8fb14610afa578063d4cadf6814610b02578063d73dd62314610b0a576103ba565b8063bc694ea2146109f4578063be3bbd2e146109fc578063c070a6d814610a54578063c36596a614610574576103ba565b8063a562ddf011610192578063b7b800a411610161578063b7b800a4146109d4578063b80483b0146109dc578063ba019dab146109e4578063bc063e1a146109ec576103ba565b8063a562ddf014610921578063a9059cbb14610929578063b02f0b7314610955578063b0e0d136146109cc576103ba565b80639381cd2b116101ce5780639381cd2b146108e3578063948d8ce6146108eb57806395d89b4114610911578063992e2a9214610919576103ba565b80638d4e4083146108ad57806391f2a496146108b5578063936c3477146108db576103ba565b806331e2761b116102e4578063661884631161027757806376c7a3c71161024657806376c7a3c7146108045780637c5e9ea41461080c5780638201aa3f14610865578063867378c5146108a5576103ba565b8063661884631461075a5780636d06dfa01461078657806370330518146107b857806370a08231146107de576103ba565b806349e9350f116102b357806349e9350f146106a15780634df947d0146106a95780634f69c0d4146106b15780635db3427714610728576103ba565b806331e2761b1461062457806334e199071461064a578063392e53cd1461066757806346ab38f11461066f576103ba565b806318160ddd1161035c5780632f37b6241161032b5780632f37b624146105b257806330062192146105d85780633018205f146105fe578063313ce56714610606576103ba565b806318160ddd14610564578063189d00ca1461056c578063218b53821461057457806323b872dd1461057c576103ba565b8063095ea7b311610398578063095ea7b3146104a457806309a3bbe4146104e457806309ef3f5b146104ec57806315e84af914610536576103ba565b806302c96748146103bf57806304ad79541461040357806306fdde0314610427575b600080fd5b6103f1600480360360608110156103d557600080fd5b506001600160a01b038135169060208101359060400135610bee565b60408051918252519081900360200190f35b61040b611159565b604080516001600160a01b039092168252519081900360200190f35b61042f611168565b6040805160208082528351818301528351919283929083019185019080838360005b83811015610469578181015183820152602001610451565b50505050905090810190601f1680156104965780820380516001836020036101000a031916815260200191505b509250505060405180910390f35b6104d0600480360360408110156104ba57600080fd5b506001600160a01b0381351690602001356111fe565b604080519115158252519081900360200190f35b6103f1611253565b610534600480360360c081101561050257600080fd5b506001600160a01b03813581169160208101359160408201359160608101359091169060808101359060a00135611260565b005b6103f16004803603604081101561054c57600080fd5b506001600160a01b038135811691602001351661141c565b6103f1611575565b6103f161157b565b6103f161158f565b6104d06004803603606081101561059257600080fd5b506001600160a01b0381358116916020810135909116906040013561159b565b6104d0600480360360208110156105c857600080fd5b50356001600160a01b0316611700565b6103f1600480360360208110156105ee57600080fd5b50356001600160a01b031661171e565b61040b611730565b61060e61173f565b6040805160ff9092168252519081900360200190f35b6103f16004803603602081101561063a57600080fd5b50356001600160a01b0316611748565b6105346004803603602081101561066057600080fd5b503561175a565b6104d06118b0565b6103f16004803603606081101561068557600080fd5b506001600160a01b0381351690602081013590604001356118c0565b6103f1611dde565b61040b611de4565b610534600480360360408110156106c757600080fd5b813591908101906040810160208201356401000000008111156106e957600080fd5b8201836020820111156106fb57600080fd5b8035906020019184602083028401116401000000008311171561071d57600080fd5b509092509050611df3565b6103f16004803603606081101561073e57600080fd5b506001600160a01b0381351690602081013590604001356120c3565b6104d06004803603604081101561077057600080fd5b506001600160a01b038135169060200135612647565b6103f16004803603606081101561079c57600080fd5b506001600160a01b03813516906020810135906040013561271f565b610534600480360360208110156107ce57600080fd5b50356001600160a01b0316612c08565b6103f1600480360360208110156107f457600080fd5b50356001600160a01b0316612c8c565b6103f1612ca7565b61084c600480360360a081101561082257600080fd5b506001600160a01b0381358116916020810135916040820135169060608101359060800135612cb9565b6040805192835260208301919091528051918290030190f35b61084c600480360360a081101561087b57600080fd5b506001600160a01b038135811691602081013591604082013516906060810135906080013561316a565b6103f1613600565b6104d0613614565b610534600480360360208110156108cb57600080fd5b50356001600160a01b0316613624565b6103f16137b4565b6103f161380f565b6103f16004803603602081101561090157600080fd5b50356001600160a01b031661381c565b61042f6138ed565b6103f161394e565b61040b61395a565b6104d06004803603604081101561093f57600080fd5b506001600160a01b038135169060200135613969565b6105346004803603604081101561096b57600080fd5b8135919081019060408101602082013564010000000081111561098d57600080fd5b82018360208201111561099f57600080fd5b803590602001918460208302840111640100000000831117156109c157600080fd5b50909250905061397f565b6103f1613c6a565b6103f1613c6f565b6103f1613c74565b6103f1613c7a565b6103f1613c7f565b6103f1613c8f565b610a04613c9b565b60408051602080825283518183015283519192839290830191858101910280838360005b83811015610a40578181015183820152602001610a28565b505050509050019250505060405180910390f35b6104d06004803603610120811015610a6b57600080fd5b6001600160a01b038235811692602081013590911691810190606081016040820135640100000000811115610a9f57600080fd5b820183602082011115610ab157600080fd5b80359060200191846020830284011164010000000083111715610ad357600080fd5b9193509150803515159060208101351515906040810190608001613d9d565b6103f1614012565b6103f1614017565b6103f161401d565b6104d060048036036040811015610b2057600080fd5b506001600160a01b038135169060200135614023565b6103f160048036036040811015610b4c57600080fd5b506001600160a01b03813581169160200135166140a4565b6103f16140cf565b61040b6140df565b6103f160048036036020811015610b8a57600080fd5b50356001600160a01b03166140ee565b6103f160048036036020811015610bb057600080fd5b50356001600160a01b03166141d1565b61053460048036036020811015610bd657600080fd5b50356001600160a01b03166142a2565b6104d061443f565b600a54600090610100900460ff1615610c425760408051600160e51b62461bcd02815260206004820152600b6024820152600160a81b6a4552525f5245454e54525902604482015290519081900360640190fd5b600a805461ff001916610100179055600f54600160a01b900460ff16610ca05760408051600160e51b62461bcd0281526020600482015260116024820152600080516020615c02833981519152604482015290519081900360640190fd5b6001600160a01b03841660009081526011602052604090205460ff16610cfe5760408051600160e51b62461bcd02815260206004820152600d6024820152600080516020615c82833981519152604482015290519081900360640190fd5b6001600160a01b0384166000908152601160205260409020600390810154610d3391670de0b6b3a76400005b0460010161444f565b831115610d815760408051600160e51b62461bcd0281526020600482015260116024820152600160781b704552525f4d41585f4f55545f524154494f02604482015290519081900360640190fd5b600c546001600160a01b039081166000818152601160205260408120909283929088161415610dbd57600d546001600160a01b03169150610de2565b5050600c54600d546001600160a01b0390811660009081526011602052604090209116905b6001600160a01b038716600090815260116020526040902060038101546002820154600754601254610e17939291908b614524565b945084610e5c5760408051600160e51b62461bcd02815260206004820152600f6024820152600080516020615cc2833981519152604482015290519081900360640190fd5b85851115610ea65760408051600160e51b62461bcd02815260206004820152600c6024820152600160a11b6b22a9292fa624a6a4aa2fa4a702604482015290519081900360640190fd5b610eb48160030154886145e8565b60038201556000610ec5868261444f565b604080518a815242602082015281519293506001600160a01b038c16923392600080516020615c22833981519152928290030190a3604080518781529051600080516020615c428339815191529181900360200190a1610f253387614659565b610f37610f3287836145e8565b614667565b600a54610f53906201000090046001600160a01b031682614673565b610f5e89338a61467d565b6000610f79846003015485600201546007546012548b61475c565b601354600c5460408051600160e01b63efd481030281526001600160a01b039283166004820152898316602482015260448101859052905193945091169163efd4810391606480820192602092909190829003018186803b158015610fdd57600080fd5b505afa158015610ff1573d6000803e3d6000fd5b505050506040513d602081101561100757600080fd5b5051151560011415611141576110218460030154826145e8565b600385015561103187600061444f565b600b546040805184815242602082015281519395506001600160a01b03808a1694931692600080516020615c22833981519152929181900390910190a3600b54611084906001600160a01b031688614659565b611091610f3288846145e8565b600a546110ad906201000090046001600160a01b031683614673565b600b546110c59086906001600160a01b03168361467d565b601354600c5460408051600160e11b63679346f50281526001600160a01b0392831660048201528883166024820152604481018590529051919092169163cf268dea91606480830192600092919082900301818387803b15801561112857600080fd5b505af115801561113c573d6000803e3d6000fd5b505050505b505050505050600a805461ff00191690559392505050565b600c546001600160a01b031690565b60088054604080516020601f60026000196101006001881615020190951694909404938401819004810282018101909252828152606093909290918301828280156111f45780601f106111c9576101008083540402835291602001916111f4565b820191906000526020600020905b8154815290600101906020018083116111d757829003601f168201915b5050505050905090565b3360008181526006602090815260408083206001600160a01b03871680855290835281842086905581518681529151939490939092600080516020615ca2833981519152928290030190a35060015b92915050565b6802b5e3af16b188000081565b600b546001600160a01b031633146112c25760408051600160e51b62461bcd02815260206004820152601660248201527f4552525f494e56414c49445f434f4e54524f4c4c455200000000000000000000604482015290519081900360640190fd5b600c546001600160a01b038781169116146113275760408051600160e51b62461bcd02815260206004820152601d60248201527f4552525f494e56414c49445f44415441544f4b454e5f41444452455353000000604482015290519081900360640190fd5b600d546001600160a01b0384811691161461138c5760408051600160e51b62461bcd02815260206004820152601d60248201527f4552525f494e56414c49445f42415345544f4b454e5f41444452455353000000604482015290519081900360640190fd5b61139786868661482b565b6040805186815242602082015281516001600160a01b038916923392600080516020615c62833981519152929081900390910190a36113d783838361482b565b6040805183815242602082015281516001600160a01b038616923392600080516020615c62833981519152929081900390910190a3611414614a55565b505050505050565b600a54600090610100900460ff16156114705760408051600160e51b62461bcd02815260206004820152600b6024820152600160a81b6a4552525f5245454e54525902604482015290519081900360640190fd5b6001600160a01b03831660009081526011602052604090205460ff166114ce5760408051600160e51b62461bcd02815260206004820152600d6024820152600080516020615c82833981519152604482015290519081900360640190fd5b6001600160a01b03821660009081526011602052604090205460ff1661152c5760408051600160e51b62461bcd02815260206004820152600d6024820152600080516020615c82833981519152604482015290519081900360640190fd5b6001600160a01b0380841660009081526011602052604080822092851682529020600380830154600280850154928401549084015461156c939190614aa2565b95945050505050565b60075490565b6402540be400670de0b6b3a76400005b0481565b670de0b6b3a764000081565b6000336001600160a01b03851614806115d757506001600160a01b03841660009081526006602090815260408083203384529091529020548211155b61162b5760408051600160e51b62461bcd02815260206004820152601560248201527f4552525f42544f4b454e5f4241445f43414c4c45520000000000000000000000604482015290519081900360640190fd5b611636848484614afb565b336001600160a01b0385161480159061167457506001600160a01b038416600090815260066020908152604080832033845290915290205460001914155b156116f6576001600160a01b03841660009081526006602090815260408083203384529091529020546116a790836145e8565b6001600160a01b0385811660009081526006602090815260408083203380855290835292819020859055805194855251928716939192600080516020615ca28339815191529281900390910190a35b5060019392505050565b6001600160a01b031660009081526011602052604090205460ff1690565b60036020526000908152604090205481565b600b546001600160a01b031690565b600a5460ff1690565b60046020526000908152604090205481565b600f54600160a01b900460ff16156117b25760408051600160e51b62461bcd0281526020600482015260106024820152600160821b6f11549497d254d7d1925390531256915102604482015290519081900360640190fd5b600b546001600160a01b0316331461180c5760408051600160e51b62461bcd0281526020600482015260126024820152600160711b7122a9292fa727aa2fa1a7a72a2927a62622a902604482015290519081900360640190fd5b64e8d4a5100081101561185a5760408051600160e51b62461bcd02815260206004820152600b6024820152600160a81b6a4552525f4d494e5f46454502604482015290519081900360640190fd5b67016345785d8a00008111156118ab5760408051600160e51b62461bcd02815260206004820152600b6024820152600160a81b6a4552525f4d41585f46454502604482015290519081900360640190fd5b600255565b601354600160a01b900460ff1690565b600a54600090610100900460ff16156119145760408051600160e51b62461bcd02815260206004820152600b6024820152600160a81b6a4552525f5245454e54525902604482015290519081900360640190fd5b600a805461ff001916610100179055600f54600160a01b900460ff166119725760408051600160e51b62461bcd0281526020600482015260116024820152600080516020615c02833981519152604482015290519081900360640190fd5b6001600160a01b03841660009081526011602052604090205460ff166119d05760408051600160e51b62461bcd02815260206004820152600d6024820152600080516020615c82833981519152604482015290519081900360640190fd5b6001600160a01b038416600090815260116020526040902060038101546002820154600754601254611a05939291908861475c565b915082821015611a525760408051600160e51b62461bcd02815260206004820152600d60248201526001609a1b6c11549497d31253525517d3d55502604482015290519081900360640190fd5b6001600160a01b0385166000908152601160205260409020600390810154611a8291670de0b6b3a7640000610d2a565b821115611ad05760408051600160e51b62461bcd0281526020600482015260116024820152600160781b704552525f4d41585f4f55545f524154494f02604482015290519081900360640190fd5b600c546001600160a01b039081166000818152601160205260408120909290919088161415611b0c57600d546001600160a01b03169150611b31565b5050600c54600d546001600160a01b0390811660009081526011602052604090209116905b611b3f8360030154856145e8565b60038401556000611b50878261444f565b6040805187815242602082015281519293506001600160a01b038b16923392600080516020615c22833981519152928290030190a3604080518881529051600080516020615c428339815191529181900360200190a1611bb03388614659565b611bbd610f3288836145e8565b600a54611bd9906201000090046001600160a01b031682614673565b611be488338761467d565b6000611bff836003015484600201546007546012548c61475c565b601354600c5460408051600160e01b63efd481030281526001600160a01b039283166004820152888316602482015260448101859052905193945091169163efd4810391606480820192602092909190829003018186803b158015611c6357600080fd5b505afa158015611c77573d6000803e3d6000fd5b505050506040513d6020811015611c8d57600080fd5b5051151560011415611dc757611ca78360030154826145e8565b6003840155611cb788600061444f565b600b546040805184815242602082015281519395506001600160a01b0380891694931692600080516020615c22833981519152929181900390910190a3600b54611d0a906001600160a01b031689614659565b611d17610f3289846145e8565b600a54611d33906201000090046001600160a01b031683614673565b600b54611d4b9085906001600160a01b03168361467d565b601354600c5460408051600160e11b63679346f50281526001600160a01b0392831660048201528783166024820152604481018590529051919092169163cf268dea91606480830192600092919082900301818387803b158015611dae57600080fd5b505af1158015611dc2573d6000803e3d6000fd5b505050505b5050505050600a805461ff00191690559392505050565b60015481565b600d546001600160a01b031690565b600a54610100900460ff1615611e445760408051600160e51b62461bcd02815260206004820152600b6024820152600160a81b6a4552525f5245454e54525902604482015290519081900360640190fd5b600a805461ff001916610100179055600f54600160a01b900460ff16611ea25760408051600160e51b62461bcd0281526020600482015260116024820152600080516020615c02833981519152604482015290519081900360640190fd5b6000611eac611575565b90506000611eba8583614c19565b905080611eff5760408051600160e51b62461bcd02815260206004820152600f6024820152600080516020615cc2833981519152604482015290519081900360640190fd5b60005b60105481101561207c57600060108281548110611f1b57fe5b60009182526020808320909101546001600160a01b03168083526011909152604082206003015490925090611f50858361444f565b905080611f955760408051600160e51b62461bcd02815260206004820152600f6024820152600080516020615cc2833981519152604482015290519081900360640190fd5b878785818110611fa157fe5b90506020020135811115611ff15760408051600160e51b62461bcd02815260206004820152600c6024820152600160a11b6b22a9292fa624a6a4aa2fa4a702604482015290519081900360640190fd5b6001600160a01b0383166000908152601160205260409020600301546120179082614d41565b6001600160a01b0384166000818152601160209081526040918290206003019390935580518481524293810193909352805191923392600080516020615c62833981519152929181900390910190a3612071833383614d9e565b505050600101611f02565b5061208685614dfa565b6120903386614673565b604080518681529051600080516020615c428339815191529181900360200190a15050600a805461ff0019169055505050565b600a54600090610100900460ff16156121175760408051600160e51b62461bcd02815260206004820152600b6024820152600160a81b6a4552525f5245454e54525902604482015290519081900360640190fd5b600a805461ff001916610100179055600f54600160a01b900460ff166121755760408051600160e51b62461bcd0281526020600482015260116024820152600080516020615c02833981519152604482015290519081900360640190fd5b6001600160a01b03841660009081526011602052604090205460ff166121d35760408051600160e51b62461bcd02815260206004820152600d6024820152600080516020615c82833981519152604482015290519081900360640190fd5b6001600160a01b038416600090815260116020526040902060030154612205906002670de0b6b3a76400005b0461444f565b8311156122525760408051600160e51b62461bcd0281526020600482015260106024820152600160801b6f4552525f4d41585f494e5f524154494f02604482015290519081900360640190fd5b600c546001600160a01b0390811660008181526011602052604081209092909183918816141561228e5750600d546001600160a01b03166122b3565b5050600d546001600160a01b039081166000908152601160205260409020600c549091165b6001600160a01b0387166000908152601160205260409020600381015460028201546007546012546122e8939291908b614e03565b9450858510156123355760408051600160e51b62461bcd02815260206004820152600d60248201526001609a1b6c11549497d31253525517d3d55502604482015290519081900360640190fd5b612343816003015488614d41565b60038201556040805188815242602082015281516001600160a01b038b16923392600080516020615c62833981519152929081900390910190a3604080518681529051600080516020615c428339815191529181900360200190a16123a785614dfa565b6123b13386614673565b6123bc883389614d9e565b60006123d7846003015485600201546007546012548a614e98565b601354600c5460408051600160e01b6326b1f01f0281526001600160a01b03928316600482015287831660248201526044810185905290519394506124939391909216916326b1f01f916064808301926020929190829003018186803b15801561244057600080fd5b505afa158015612454573d6000803e3d6000fd5b505050506040513d602081101561246a57600080fd5b50516040805180820190915260088152600160c01b6763616e7374616b65026020820152614f32565b601354600c5460408051600160e01b6326b1f01f0281526001600160a01b039283166004820152868316602482015260448101859052905191909216916326b1f01f916064808301926020929190829003018186803b1580156124f557600080fd5b505afa158015612509573d6000803e3d6000fd5b505050506040513d602081101561251f57600080fd5b5051151560011415611dc757601354600c5460408051600160e01b6399039fcf0281526001600160a01b039283166004820152868316602482015260448101859052905191909216916399039fcf91606480830192600092919082900301818387803b15801561258e57600080fd5b505af11580156125a2573d6000803e3d6000fd5b505050506125b4846003015482614d41565b6003850155600b546040805183815242602082015281516001600160a01b03808816941692600080516020615c62833981519152928290030190a3604080518781529051600080516020615c428339815191529181900360200190a161261986614dfa565b600b5461262f906001600160a01b031687614673565b600b54611dc79084906001600160a01b031683614d9e565b3360009081526006602090815260408083206001600160a01b03861684529091528120548083111561269c573360009081526006602090815260408083206001600160a01b03881684529091528120556126cb565b6126a681846145e8565b3360009081526006602090815260408083206001600160a01b03891684529091529020555b3360008181526006602090815260408083206001600160a01b038916808552908352928190205481519081529051929392600080516020615ca2833981519152929181900390910190a35060019392505050565b600a54600090610100900460ff16156127735760408051600160e51b62461bcd02815260206004820152600b6024820152600160a81b6a4552525f5245454e54525902604482015290519081900360640190fd5b600a805461ff001916610100179055600f54600160a01b900460ff166127d15760408051600160e51b62461bcd0281526020600482015260116024820152600080516020615c02833981519152604482015290519081900360640190fd5b6001600160a01b03841660009081526011602052604090205460ff1661282f5760408051600160e51b62461bcd02815260206004820152600d6024820152600080516020615c82833981519152604482015290519081900360640190fd5b6001600160a01b0384166000908152601160205260409020600381015460028201546007546012546128649392919088614e98565b600c546001600160a01b0390811660008181526011602052604081209395509291839190891614156128a25750600d546001600160a01b03166128c7565b5050600d546001600160a01b039081166000908152601160205260409020600c549091165b8461290a5760408051600160e51b62461bcd02815260206004820152600f6024820152600080516020615cc2833981519152604482015290519081900360640190fd5b858511156129545760408051600160e51b62461bcd02815260206004820152600c6024820152600160a11b6b22a9292fa624a6a4aa2fa4a702604482015290519081900360640190fd5b6001600160a01b038816600090815260116020526040902060030154612984906002670de0b6b3a76400006121ff565b8511156129d15760408051600160e51b62461bcd0281526020600482015260106024820152600160801b6f4552525f4d41585f494e5f524154494f02604482015290519081900360640190fd5b6129df846003015486614d41565b60038501556040805186815242602082015281516001600160a01b038b16923392600080516020615c62833981519152929081900390910190a3604080518881529051600080516020615c428339815191529181900360200190a1612a4387614dfa565b612a4d3388614673565b612a58883387614d9e565b6000612a73836003015484600201546007546012548c614e98565b601354600c5460408051600160e01b6326b1f01f0281526001600160a01b03928316600482015286831660248201526044810185905290519394509116916326b1f01f91606480820192602092909190829003018186803b158015612ad757600080fd5b505afa158015612aeb573d6000803e3d6000fd5b505050506040513d6020811015612b0157600080fd5b5051151560011415611dc757601354600c5460408051600160e01b6399039fcf0281526001600160a01b039283166004820152858316602482015260448101859052905191909216916399039fcf91606480830192600092919082900301818387803b158015612b7057600080fd5b505af1158015612b84573d6000803e3d6000fd5b50505050612b96836003015482614d41565b6003840155600b546040805183815242602082015281516001600160a01b03808716941692600080516020615c62833981519152928290030190a3612bda88614dfa565b600b54612bf0906001600160a01b031689614673565b600b54611dc79083906001600160a01b031683614d9e565b600e546001600160a01b03163314612c6a5760408051600160e51b62461bcd02815260206004820152601560248201527f4f4e4c59204d41524b455420434f4c4c4543544f520000000000000000000000604482015290519081900360640190fd5b600e80546001600160a01b0319166001600160a01b0392909216919091179055565b6001600160a01b031660009081526005602052604090205490565b620f4240670de0b6b3a764000061158b565b600a546000908190610100900460ff1615612d0f5760408051600160e51b62461bcd02815260206004820152600b6024820152600160a81b6a4552525f5245454e54525902604482015290519081900360640190fd5b600a805461ff001916610100179055600f54600160a01b900460ff16612d6d5760408051600160e51b62461bcd0281526020600482015260116024820152600080516020615c02833981519152604482015290519081900360640190fd5b6001600160a01b03871660009081526011602052604090205460ff16612dcb5760408051600160e51b62461bcd02815260206004820152600d6024820152600080516020615c82833981519152604482015290519081900360640190fd5b6001600160a01b03851660009081526011602052604090205460ff16612e295760408051600160e51b62461bcd02815260206004820152600d6024820152600080516020615c82833981519152604482015290519081900360640190fd5b6001600160a01b0380881660009081526011602052604080822092881682529020600380820154612e6291670de0b6b3a7640000610d2a565b861115612eb05760408051600160e51b62461bcd0281526020600482015260116024820152600160781b704552525f4d41585f4f55545f524154494f02604482015290519081900360640190fd5b6000612ece8360030154846002015484600301548560020154614aa2565b905085811115612f285760408051600160e51b62461bcd02815260206004820152601360248201527f4552525f4241445f4c494d49545f505249434500000000000000000000000000604482015290519081900360640190fd5b6000612f32615be3565b604051806080016040528086600301548152602001866002015481526020018560030154815260200185600201548152509050612f70818a8e614fe7565b90975091508a871115612fbf5760408051600160e51b62461bcd02815260206004820152600c6024820152600160a11b6b22a9292fa624a6a4aa2fa4a702604482015290519081900360640190fd5b612fcd856003015483614d41565b8560030181905550612fe384600301548a6145e8565b6003808601829055860154600280880154908701546130029390614aa2565b95508286101561304a5760408051600160e51b62461bcd02815260206004820152600f6024820152600080516020615cc2833981519152604482015290519081900360640190fd5b878611156130975760408051600160e51b62461bcd02815260206004820152600f6024820152600160881b6e4552525f4c494d49545f505249434502604482015290519081900360640190fd5b6130a1878a614c19565b8311156130e65760408051600160e51b62461bcd02815260206004820152600f6024820152600080516020615cc2833981519152604482015290519081900360640190fd5b60408051888152602081018b9052428183015290516001600160a01b03808d1692908f169133917f50ef2fc267012b5c84b56835f16ffd5331ac5a151a3760d74908721ba78b0efe919081900360600190a46131438c3389614d9e565b61314e8a338b61467d565b5050505050600a805461ff001916905590969095509350505050565b600a546000908190610100900460ff16156131c05760408051600160e51b62461bcd02815260206004820152600b6024820152600160a81b6a4552525f5245454e54525902604482015290519081900360640190fd5b600a805461ff001916610100179055600f54600160a01b900460ff1661321e5760408051600160e51b62461bcd0281526020600482015260116024820152600080516020615c02833981519152604482015290519081900360640190fd5b6001600160a01b03871660009081526011602052604090205460ff1661327c5760408051600160e51b62461bcd02815260206004820152600d6024820152600080516020615c82833981519152604482015290519081900360640190fd5b6001600160a01b03851660009081526011602052604090205460ff166132da5760408051600160e51b62461bcd02815260206004820152600d6024820152600080516020615c82833981519152604482015290519081900360640190fd5b6001600160a01b03808816600090815260116020526040808220928816825290206003820154613314906002670de0b6b3a76400006121ff565b8811156133615760408051600160e51b62461bcd0281526020600482015260106024820152600160801b6f4552525f4d41585f494e5f524154494f02604482015290519081900360640190fd5b600061337f8360030154846002015484600301548560020154614aa2565b9050858111156133d95760408051600160e51b62461bcd02815260206004820152601360248201527f4552525f4241445f4c494d49545f505249434500000000000000000000000000604482015290519081900360640190fd5b60006133e3615be3565b604051806080016040528086600301548152602001866002015481526020018560030154815260200185600201548152509050613421818c8e615201565b9097509150888710156134715760408051600160e51b62461bcd02815260206004820152600d60248201526001609a1b6c11549497d31253525517d3d55502604482015290519081900360640190fd5b61347f856003015483614d41565b85600301819055506134958460030154886145e8565b6003808601829055860154600280880154908701546134b49390614aa2565b9550828610156134fc5760408051600160e51b62461bcd02815260206004820152600f6024820152600080516020615cc2833981519152604482015290519081900360640190fd5b878611156135495760408051600160e51b62461bcd02815260206004820152600f6024820152600160881b6e4552525f4c494d49545f505249434502604482015290519081900360640190fd5b6135538b88614c19565b8311156135985760408051600160e51b62461bcd02815260206004820152600f6024820152600080516020615cc2833981519152604482015290519081900360640190fd5b604080518c815260208101899052428183015290516001600160a01b03808d1692908f169133917f50ef2fc267012b5c84b56835f16ffd5331ac5a151a3760d74908721ba78b0efe919081900360600190a46135f58c338d614d9e565b61314e8a338961467d565b64e8d4a51000670de0b6b3a764000061158b565b600f54600160a01b900460ff1690565b600f546001600160a01b031633146136745760408051600160e51b62461bcd0281526020600482015260086024820152600160c11b6727a7262c9027a82302604482015290519081900360640190fd5b606061367e613c9b565b905060005b81518110156137af5760006003600084848151811061369e57fe5b60200260200101516001600160a01b03166001600160a01b031681526020019081526020016000205490506000600360008585815181106136db57fe5b60200260200101516001600160a01b03166001600160a01b031681526020019081526020016000208190555082828151811061371357fe5b60200260200101516001600160a01b031663a9059cbb85836040518363ffffffff1660e01b815260040180836001600160a01b03166001600160a01b0316815260200182815260200192505050602060405180830381600087803b15801561377a57600080fd5b505af115801561378e573d6000803e3d6000fd5b505050506040513d60208110156137a457600080fd5b505050600101613683565b505050565b600a54600090610100900460ff16156138085760408051600160e51b62461bcd02815260206004820152600b6024820152600160a81b6a4552525f5245454e54525902604482015290519081900360640190fd5b5060125490565b68056bc75e2d6310000081565b600a54600090610100900460ff16156138705760408051600160e51b62461bcd02815260206004820152600b6024820152600160a81b6a4552525f5245454e54525902604482015290519081900360640190fd5b6001600160a01b03821660009081526011602052604090205460ff166138ce5760408051600160e51b62461bcd02815260206004820152600d6024820152600080516020615c82833981519152604482015290519081900360640190fd5b506001600160a01b031660009081526011602052604090206002015490565b60098054604080516020601f60026000196101006001881615020190951694909404938401819004810282018101909252828152606093909290918301828280156111f45780601f106111c9576101008083540402835291602001916111f4565b6704a03ce68d21555681565b600e546001600160a01b031681565b6000613976338484614afb565b50600192915050565b600a54610100900460ff16156139d05760408051600160e51b62461bcd02815260206004820152600b6024820152600160a81b6a4552525f5245454e54525902604482015290519081900360640190fd5b600a805461ff001916610100179055600f54600160a01b900460ff16613a2e5760408051600160e51b62461bcd0281526020600482015260116024820152600080516020615c02833981519152604482015290519081900360640190fd5b6000613a38611575565b90506000613a4785600061444f565b90506000613a5586836145e8565b90506000613a638285614c19565b905080613aa85760408051600160e51b62461bcd02815260206004820152600f6024820152600080516020615cc2833981519152604482015290519081900360640190fd5b613ab23388614659565b600a54613ace906201000090046001600160a01b031684614673565b613ad782614667565b60005b601054811015613c5557600060108281548110613af357fe5b60009182526020808320909101546001600160a01b03168083526011909152604082206003015490925090613b28858361444f565b905080613b6d5760408051600160e51b62461bcd02815260206004820152600f6024820152600080516020615cc2833981519152604482015290519081900360640190fd5b898985818110613b7957fe5b90506020020135811015613bca5760408051600160e51b62461bcd02815260206004820152600d60248201526001609a1b6c11549497d31253525517d3d55502604482015290519081900360640190fd5b6001600160a01b038316600090815260116020526040902060030154613bf090826145e8565b6001600160a01b0384166000818152601160209081526040918290206003019390935580518481524293810193909352805191923392600080516020615c22833981519152929181900390910190a3613c4a83338361467d565b505050600101613ada565b5050600a805461ff0019169055505050505050565b600881565b600281565b60005481565b600181565b600a670de0b6b3a764000061158b565b671bc16d674ec7ffff81565b600a54606090610100900460ff1615613cef5760408051600160e51b62461bcd02815260206004820152600b6024820152600160a81b6a4552525f5245454e54525902604482015290519081900360640190fd5b600f54600160a01b900460ff16613d3e5760408051600160e51b62461bcd0281526020600482015260116024820152600080516020615c02833981519152604482015290519081900360640190fd5b60108054806020026020016040519081016040528092919081815260200182805480156111f457602002820191906000526020600020905b81546001600160a01b03168152600190910190602001808311613d76575050505050905090565b601354600090600160a01b900460ff1615613e025760408051600160e51b62461bcd02815260206004820152601760248201527f4552525f414c52454144595f494e495449414c495a4544000000000000000000604482015290519081900360640190fd5b6001600160a01b038916613e605760408051600160e51b62461bcd02815260206004820152601e60248201527f4552525f494e56414c49445f434f4e54524f4c4c45525f414444524553530000604482015290519081900360640190fd5b6001600160a01b038816613ebe5760408051600160e51b62461bcd02815260206004820152601b60248201527f4552525f494e56414c49445f464143544f52595f414444524553530000000000604482015290519081900360640190fd5b64e8d4a510008787600081613ecf57fe5b905060200201351015613f1d5760408051600160e51b62461bcd02815260206004820152600b6024820152600160a81b6a4552525f4d494e5f46454502604482015290519081900360640190fd5b67016345785d8a00008787600081613f3157fe5b905060200201351115613f7f5760408051600160e51b62461bcd02815260206004820152600b6024820152600160a81b6a4552525f4d41585f46454502604482015290519081900360640190fd5b6140058989898980806020026020016040519081016040528093929190818152602001838360200280828437600092019190915250506040805180820182528c93508b9250908a9060029083908390808284376000920191909152505060408051808201825291508a9060029083908390808284376000920191909152506153eb915050565b9998505050505050505050565b600081565b60105490565b60025490565b3360009081526006602090815260408083206001600160a01b03861684529091528120546140519083614d41565b3360008181526006602090815260408083206001600160a01b038916808552908352928190208590558051948552519193600080516020615ca2833981519152929081900390910190a350600192915050565b6001600160a01b03918216600090815260066020908152604080832093909416825291909152205490565b6002670de0b6b3a764000061158b565b600f546001600160a01b031681565b600a54600090610100900460ff16156141425760408051600160e51b62461bcd02815260206004820152600b6024820152600160a81b6a4552525f5245454e54525902604482015290519081900360640190fd5b6001600160a01b03821660009081526011602052604090205460ff166141a05760408051600160e51b62461bcd02815260206004820152600d6024820152600080516020615c82833981519152604482015290519081900360640190fd5b6001600160a01b0382166000908152601160205260409020600201546012546141ca908290614c19565b9392505050565b600a54600090610100900460ff16156142255760408051600160e51b62461bcd02815260206004820152600b6024820152600160a81b6a4552525f5245454e54525902604482015290519081900360640190fd5b6001600160a01b03821660009081526011602052604090205460ff166142835760408051600160e51b62461bcd02815260206004820152600d6024820152600080516020615c82833981519152604482015290519081900360640190fd5b506001600160a01b031660009081526011602052604090206003015490565b600e546001600160a01b031633146143045760408051600160e51b62461bcd02815260206004820152601560248201527f4f4e4c59204d41524b455420434f4c4c4543544f520000000000000000000000604482015290519081900360640190fd5b606061430e613c9b565b905060005b81518110156137af5760006004600084848151811061432e57fe5b60200260200101516001600160a01b03166001600160a01b0316815260200190815260200160002054905060006004600085858151811061436b57fe5b60200260200101516001600160a01b03166001600160a01b03168152602001908152602001600020819055508282815181106143a357fe5b60200260200101516001600160a01b031663a9059cbb85836040518363ffffffff1660e01b815260040180836001600160a01b03166001600160a01b0316815260200182815260200192505050602060405180830381600087803b15801561440a57600080fd5b505af115801561441e573d6000803e3d6000fd5b505050506040513d602081101561443457600080fd5b505050600101614313565b600b54600160a01b900460ff1690565b600082820283158061446957508284828161446657fe5b04145b6144b35760408051600160e51b62461bcd0281526020600482015260106024820152600160801b6f4552525f4d554c5f4f564552464c4f5702604482015290519081900360640190fd5b6706f05b59d3b2000081018181101561450c5760408051600160e51b62461bcd0281526020600482015260106024820152600160801b6f4552525f4d554c5f4f564552464c4f5702604482015290519081900360640190fd5b6000670de0b6b3a7640000825b049695505050505050565b6000806145318685614c19565b90506000614547670de0b6b3a7640000836145e8565b905060006145578260025461444f565b9050600061457686614571670de0b6b3a7640000856145e8565b614c19565b905060006145848b836145e8565b90506000614592828d614c19565b905060006145a08288615527565b905060006145ae828d61444f565b905060006145bc8d836145e8565b90506145d581614571670de0b6b3a764000060006145e8565b9f9e505050505050505050505050505050565b60008060006145f7858561564a565b9150915080156146515760408051600160e51b62461bcd02815260206004820152601160248201527f4552525f5355425f554e444552464c4f57000000000000000000000000000000604482015290519081900360640190fd5b509392505050565b614663828261566f565b5050565b6146708161567a565b50565b6146638282615756565b60408051600160e01b63a9059cbb0281526001600160a01b03848116600483015260248201849052915160009286169163a9059cbb91604480830192602092919082900301818787803b1580156146d357600080fd5b505af11580156146e7573d6000803e3d6000fd5b505050506040513d60208110156146fd57600080fd5b50519050806147565760408051600160e51b62461bcd02815260206004820152600f60248201527f4552525f45524332305f46414c53450000000000000000000000000000000000604482015290519081900360640190fd5b50505050565b6000806147698685614c19565b9050600061478984614784670de0b6b3a764000060006145e8565b61444f565b9050600061479787836145e8565b905060006147a58289614c19565b905060006147c4826147bf670de0b6b3a764000088614c19565b615527565b905060006147d2828d61444f565b905060006147e08d836145e8565b905060006148016147f9670de0b6b3a76400008a6145e8565b60025461444f565b905061481982614784670de0b6b3a7640000846145e8565b9e9d5050505050505050505050505050565b600b546001600160a01b031633146148855760408051600160e51b62461bcd0281526020600482015260126024820152600160711b7122a9292fa727aa2fa1a7a72a2927a62622a902604482015290519081900360640190fd5b6001600160a01b03831660009081526011602052604090205460ff16156148f65760408051600160e51b62461bcd02815260206004820152600c60248201527f4552525f49535f424f554e440000000000000000000000000000000000000000604482015290519081900360640190fd5b600f54600160a01b900460ff161561494e5760408051600160e51b62461bcd0281526020600482015260106024820152600160821b6f11549497d254d7d1925390531256915102604482015290519081900360640190fd5b6010546008116149a85760408051600160e51b62461bcd02815260206004820152600e60248201527f4552525f4d41585f544f4b454e53000000000000000000000000000000000000604482015290519081900360640190fd5b6040805160808101825260018082526010805460208085019182526000858701818152606087018281526001600160a01b038c1680845260119094529782209651875460ff1916901515178755925186860155915160028601559451600390940193909355805491820181559091527f1b6847dc741a1b0cd08d278845f9d819d87b734759afb55fe2de5cb82a9ae6720180546001600160a01b03191690911790556137af838383615761565b600f8054600160a01b600160a01b60ff02199182168117909255600b80549091169091179055614a8d68056bc75e2d63100000614dfa565b614aa03368056bc75e2d63100000614673565b565b600080614aaf8686614c19565b90506000614abd8585614c19565b90506000614acb8383614c19565b90506000614aef670de0b6b3a7640000614571670de0b6b3a76400006002546145e8565b9050614005828261444f565b6001600160a01b038316600090815260056020526040902054811115614b6b5760408051600160e51b62461bcd02815260206004820152601460248201527f4552525f494e53554646494349454e545f42414c000000000000000000000000604482015290519081900360640190fd5b6001600160a01b038316600090815260056020526040902054614b8e90826145e8565b6001600160a01b038085166000908152600560205260408082209390935590841681522054614bbd9082614d41565b6001600160a01b0380841660008181526005602090815260409182902094909455805185815290519193928716927fddf252ad1be2c89b69c2b068fc378daa952ba7f163c4a11628f55a4df523b3ef92918290030190a3505050565b600081614c705760408051600160e51b62461bcd02815260206004820152600c60248201527f4552525f4449565f5a45524f0000000000000000000000000000000000000000604482015290519081900360640190fd5b670de0b6b3a76400008302831580614c985750670de0b6b3a7640000848281614c9557fe5b04145b614ce25760408051600160e51b62461bcd0281526020600482015260106024820152600160821b6f11549497d1125597d25395115493905302604482015290519081900360640190fd5b60028304810181811015614d365760408051600160e51b62461bcd0281526020600482015260106024820152600160821b6f11549497d1125597d25395115493905302604482015290519081900360640190fd5b600084828161451957fe5b6000828201838110156141ca5760408051600160e51b62461bcd02815260206004820152601060248201527f4552525f4144445f4f564552464c4f5700000000000000000000000000000000604482015290519081900360640190fd5b60408051600160e01b6323b872dd0281526001600160a01b0384811660048301523060248301526044820184905291516000928616916323b872dd91606480830192602092919082900301818787803b1580156146d357600080fd5b614670816159e6565b600080614e108685614c19565b90506000614e296147f9670de0b6b3a7640000846145e8565b90506000614e4385614784670de0b6b3a7640000856145e8565b90506000614e518a83614d41565b90506000614e5f828c614c19565b90506000614e6d8287615527565b90506000614e7b828c61444f565b9050614e87818c6145e8565b9d9c50505050505050505050505050565b600080614ea58685614c19565b90506000614eb38685614d41565b90506000614ec18288614c19565b90506000614ed7670de0b6b3a764000085614c19565b90506000614ee58383615527565b90506000614ef3828d61444f565b90506000614f01828e6145e8565b90506000614f1a6147f9670de0b6b3a76400008a6145e8565b905061481982614571670de0b6b3a7640000846145e8565b6146638282604051602401808315151515815260200180602001828103825283818151815260200191508051906020019080838360005b83811015614f81578181015183820152602001614f69565b50505050905090810190601f168015614fae5780820380516001836020036101000a031916815260200191505b5060408051601f198184030181529190526020810180516001600160e01b0316600160e01b638feac525021790529350615a5b92505050565b6000808061500486600360200201518760015b6020020151614c19565b905060006150198760026020020151876145e8565b9050600061502e886002602002015183614c19565b9050600061503c8285615527565b905061505081670de0b6b3a76400006145e8565b905060006001546000546002540101905061509161507f8b60006004811061507457fe5b60200201518461444f565b614571670de0b6b3a7640000846145e8565b965060006150b6886150b18a614784670de0b6b3a76400006000546145e8565b6145e8565b6001600160a01b038a166000908152600360205260409020549091506150dc9082614d41565b600360008b6001600160a01b03166001600160a01b03168152602001908152602001600020819055506000615123896150b18b614784670de0b6b3a76400006001546145e8565b6001600160a01b038b166000908152600460205260409020549091506151499082614d41565b6001600160a01b038b166000908152600460205260409020558b5161518690615172908661444f565b614571670de0b6b3a76400006002546145e8565b97507f90d9f1d0641138b6407ac37bea3a905d63a371c2d91a484f68d59924634d4ef36151c58a6150b18c614784670de0b6b3a76400006002546145e8565b60408051918252602082018590528181018490526001600160a01b038d166060830152519081900360800190a150505050505050935093915050565b600080806152188660016020020151876003614ffa565b90506000615238866150b188614784670de0b6b3a76400006000546145e8565b6001600160a01b03861660009081526003602052604090205490915061525e9082614d41565b60036000876001600160a01b03166001600160a01b031681526020019081526020016000208190555060006152a5876150b189614784670de0b6b3a76400006001546145e8565b6001600160a01b0387166000908152600460205260409020549091506152cb9082614d41565b6001600160a01b0387166000908152600460205260409020556002548083018201907f90d9f1d0641138b6407ac37bea3a905d63a371c2d91a484f68d59924634d4ef39061532e908a906150b190829061478490670de0b6b3a7640000906145e8565b60408051918252602082018690528181018590526001600160a01b038a166060830152519081900360800190a1600061536f670de0b6b3a7640000836145e8565b905061537b898261444f565b8a51909150600090615391906145718185614d41565b9050600061539f8288615527565b905060006153b5670de0b6b3a7640000836145e8565b90506153c88d600260200201518261444f565b9950896153d78d888a016145e8565b995099505050505050505050935093915050565b600b80546001600160a01b0319166001600160a01b0389811691909117909155600a805462010000600160b01b031916620100009289169290920291909117905584516000908690829061543b57fe5b60200260200101516002819055508560018151811061545657fe5b60200260200101516000819055508560028151811061547157fe5b602090810291909101810151600155600b8054961515600160a01b908102600160a01b60ff02199889161791829055600f80548751600c80546001600160a01b03199081166001600160a01b039384161790915598860151600d80548b169183169190911790558751600e80548b169183169190911790559690940151861697151582029389169390931786169690961790915560138054909616851790931691909216179283905550900460ff169392505050565b600060018310156155825760408051600160e51b62461bcd02815260206004820152601560248201527f4552525f42504f575f424153455f544f4f5f4c4f570000000000000000000000604482015290519081900360640190fd5b671bc16d674ec7ffff8311156155e25760408051600160e51b62461bcd02815260206004820152601660248201527f4552525f42504f575f424153455f544f4f5f4849474800000000000000000000604482015290519081900360640190fd5b60006155ed83615a7c565b905060006155fb84836145e8565b905060006156118661560c85615a97565b615aa5565b90508161562257925061124d915050565b600061563387846305f5e100615b05565b905061563f828261444f565b979650505050505050565b6000808284106156605750508082036000615668565b505081810360015b9250929050565b614663823083614afb565b306000908152600560205260409020548111156156e15760408051600160e51b62461bcd02815260206004820152601460248201527f4552525f494e53554646494349454e545f42414c000000000000000000000000604482015290519081900360640190fd5b306000908152600560205260409020546156fb90826145e8565b3060009081526005602052604090205560075461571890826145e8565b60075560408051828152905160009130917fddf252ad1be2c89b69c2b068fc378daa952ba7f163c4a11628f55a4df523b3ef9181900360200190a350565b614663308383614afb565b670de0b6b3a76400008110156157c15760408051600160e51b62461bcd02815260206004820152600e60248201527f4552525f4d494e5f574549474854000000000000000000000000000000000000604482015290519081900360640190fd5b6802b5e3af16b18800008111156158225760408051600160e51b62461bcd02815260206004820152600e60248201527f4552525f4d41585f574549474854000000000000000000000000000000000000604482015290519081900360640190fd5b620f424082101561587d5760408051600160e51b62461bcd02815260206004820152600f60248201527f4552525f4d494e5f42414c414e43450000000000000000000000000000000000604482015290519081900360640190fd5b6001600160a01b03831660009081526011602052604090206002015480821115615920576158b66012546158b184846145e8565b614d41565b60128190556802b5e3af16b1880000101561591b5760408051600160e51b62461bcd02815260206004820152601460248201527f4552525f4d41585f544f54414c5f574549474854000000000000000000000000604482015290519081900360640190fd5b61593c565b8082101561593c576159386012546150b183856145e8565b6012555b6001600160a01b0384166000908152601160205260409020600281018390556003018054908490558084111561598557615980853361597b87856145e8565b614d9e565b6159df565b808410156159df57600061599982866145e8565b905060006159a882600061444f565b90506159be87336159b985856145e8565b61467d565b600a546159dc9088906201000090046001600160a01b03168361467d565b50505b5050505050565b30600090815260056020526040902054615a009082614d41565b30600090815260056020526040902055600754615a1d9082614d41565b60075560408051828152905130916000917fddf252ad1be2c89b69c2b068fc378daa952ba7f163c4a11628f55a4df523b3ef9181900360200190a350565b80516a636f6e736f6c652e6c6f67602083016000808483855afa5050505050565b6000670de0b6b3a7640000615a9083615a97565b0292915050565b670de0b6b3a7640000900490565b6000828160028406615abf57670de0b6b3a7640000615ac1565b815b90506002840493505b8315615afd57615ada828361444f565b91506002840615615af257615aef818361444f565b90505b600284049350615aca565b949350505050565b6000828180615b1c87670de0b6b3a764000061564a565b9092509050670de0b6b3a764000080600060015b888410615bd4576000670de0b6b3a764000082029050600080615b648a615b5f85670de0b6b3a76400006145e8565b61564a565b91509150615b7687614784848c61444f565b9650615b828784614c19565b965086615b9157505050615bd4565b8715615b9b579315935b8015615ba5579315935b8415615bbc57615bb586886145e8565b9550615bc9565b615bc68688614d41565b95505b505050600101615b30565b50909998505050505050505050565b6040518060800160405280600490602082028038833950919291505056fe4552525f4e4f545f46494e414c495a45440000000000000000000000000000009d9058fd2f25ccc389fec7720abef0ca83472f5abfafd5f10d37f51e6a0493f3fcda32798d5a9d032f49b37fea876d422f18f6e386e0f07db6029b693624b2c215a8ca63e37b2cff1677df2b6b82d36fcf8a524228bd7a4b4d02d107c28c1e8a4552525f4e4f545f424f554e44000000000000000000000000000000000000008c5be1e5ebec7d5bd14f71427d1e84f3dd0314c0f7b2291e5b200ac8c7c3b9254552525f4d4154485f415050524f580000000000000000000000000000000000a165627a7a7230582048e31bf28db9900b4121c6c7ec300dff5b096926d23e9bc38cf19449271106680029",
  "linkReferences": {},
  "deployedLinkReferences": {}
}