{
  "_format": "hh-sol-artifact-1",
  "contractName": "ERC20Factory",
  "sourceName": "contracts/ERC20Factory.sol",
  "abi": [
    {
      "inputs": [
        {
          "internalType": "address",
          "name": "_template",
          "type": "address"
        },
        {
          "internalType": "address",
          "name": "_collector",
          "type": "address"
        },
        {
          "internalType": "address",
          "name": "_router",
          "type": "address"
        }
      ],
      "stateMutability": "nonpayable",
      "type": "constructor"
    },
    {
      "anonymous": false,
      "inputs": [
        {
          "indexed": false,
          "internalType": "address",
          "name": "instance",
          "type": "address"
        }
      ],
      "name": "InstanceDeployed",
      "type": "event"
    },
    {
      "anonymous": false,
      "inputs": [
        {
          "indexed": true,
          "internalType": "address",
          "name": "previousOwner",
          "type": "address"
        },
        {
          "indexed": true,
          "internalType": "address",
          "name": "newOwner",
          "type": "address"
        }
      ],
      "name": "OwnershipTransferred",
      "type": "event"
    },
    {
      "anonymous": false,
      "inputs": [
        {
          "indexed": true,
          "internalType": "address",
          "name": "newTokenAddress",
          "type": "address"
        },
        {
          "indexed": true,
          "internalType": "address",
          "name": "templateAddress",
          "type": "address"
        },
        {
          "indexed": true,
          "internalType": "string",
          "name": "tokenName",
          "type": "string"
        }
      ],
      "name": "TokenCreated",
      "type": "event"
    },
    {
      "anonymous": false,
      "inputs": [
        {
          "indexed": true,
          "internalType": "address",
          "name": "tokenAddress",
          "type": "address"
        },
        {
          "indexed": false,
          "internalType": "string",
          "name": "tokenName",
          "type": "string"
        },
        {
          "indexed": false,
          "internalType": "string",
          "name": "tokenSymbol",
          "type": "string"
        },
        {
          "indexed": false,
          "internalType": "uint256",
          "name": "tokenCap",
          "type": "uint256"
        },
        {
          "indexed": true,
          "internalType": "address",
          "name": "registeredBy",
          "type": "address"
        }
      ],
      "name": "TokenRegistered",
      "type": "event"
    },
    {
      "inputs": [
        {
          "internalType": "address",
          "name": "ERC721address",
          "type": "address"
        }
      ],
      "name": "addToERC721Registry",
      "outputs": [],
      "stateMutability": "nonpayable",
      "type": "function"
    },
    {
      "inputs": [
        {
          "internalType": "address",
          "name": "_templateAddress",
          "type": "address"
        }
      ],
      "name": "addTokenTemplate",
      "outputs": [
        {
          "internalType": "uint256",
          "name": "",
          "type": "uint256"
        }
      ],
      "stateMutability": "nonpayable",
      "type": "function"
    },
    {
      "inputs": [
        {
          "internalType": "string",
          "name": "name",
          "type": "string"
        },
        {
          "internalType": "string",
          "name": "symbol",
          "type": "string"
        },
        {
          "internalType": "uint256",
          "name": "cap",
          "type": "uint256"
        },
        {
          "internalType": "uint256",
          "name": "_templateIndex",
          "type": "uint256"
        },
        {
          "internalType": "address",
          "name": "minter",
          "type": "address"
        },
        {
          "internalType": "address",
          "name": "feeManager",
          "type": "address"
        }
      ],
      "name": "createToken",
      "outputs": [
        {
          "internalType": "address",
          "name": "token",
          "type": "address"
        }
      ],
      "stateMutability": "nonpayable",
      "type": "function"
    },
    {
      "inputs": [
        {
          "internalType": "uint256",
          "name": "_index",
          "type": "uint256"
        }
      ],
      "name": "disableTokenTemplate",
      "outputs": [],
      "stateMutability": "nonpayable",
      "type": "function"
    },
    {
      "inputs": [
        {
          "internalType": "address",
          "name": "",
          "type": "address"
        }
      ],
      "name": "erc20List",
      "outputs": [
        {
          "internalType": "bool",
          "name": "",
          "type": "bool"
        }
      ],
      "stateMutability": "view",
      "type": "function"
    },
    {
      "inputs": [],
      "name": "erc721Factory",
      "outputs": [
        {
          "internalType": "address",
          "name": "",
          "type": "address"
        }
      ],
      "stateMutability": "view",
      "type": "function"
    },
    {
      "inputs": [
        {
          "internalType": "address",
          "name": "",
          "type": "address"
        }
      ],
      "name": "erc721List",
      "outputs": [
        {
          "internalType": "address",
          "name": "",
          "type": "address"
        }
      ],
      "stateMutability": "view",
      "type": "function"
    },
    {
      "inputs": [],
      "name": "getCurrentTemplateCount",
      "outputs": [
        {
          "internalType": "uint256",
          "name": "",
          "type": "uint256"
        }
      ],
      "stateMutability": "view",
      "type": "function"
    },
    {
      "inputs": [],
      "name": "getCurrentTokenCount",
      "outputs": [
        {
          "internalType": "uint256",
          "name": "",
          "type": "uint256"
        }
      ],
      "stateMutability": "view",
      "type": "function"
    },
    {
      "inputs": [
        {
          "internalType": "uint256",
          "name": "_index",
          "type": "uint256"
        }
      ],
      "name": "getTokenTemplate",
      "outputs": [
        {
          "components": [
            {
              "internalType": "address",
              "name": "templateAddress",
              "type": "address"
            },
            {
              "internalType": "bool",
              "name": "isActive",
              "type": "bool"
            }
          ],
          "internalType": "struct ERC20Factory.Template",
          "name": "",
          "type": "tuple"
        }
      ],
      "stateMutability": "view",
      "type": "function"
    },
    {
      "inputs": [],
      "name": "owner",
      "outputs": [
        {
          "internalType": "address",
          "name": "",
          "type": "address"
        }
      ],
      "stateMutability": "view",
      "type": "function"
    },
    {
      "inputs": [
        {
          "internalType": "uint256",
          "name": "_index",
          "type": "uint256"
        }
      ],
      "name": "reactivateTokenTemplate",
      "outputs": [],
      "stateMutability": "nonpayable",
      "type": "function"
    },
    {
      "inputs": [],
      "name": "renounceOwnership",
      "outputs": [],
      "stateMutability": "nonpayable",
      "type": "function"
    },
    {
      "inputs": [],
      "name": "router",
      "outputs": [
        {
          "internalType": "address",
          "name": "",
          "type": "address"
        }
      ],
      "stateMutability": "view",
      "type": "function"
    },
    {
      "inputs": [
        {
          "internalType": "address",
          "name": "_erc721FactoryAddress",
          "type": "address"
        }
      ],
      "name": "setERC721Factory",
      "outputs": [],
      "stateMutability": "nonpayable",
      "type": "function"
    },
    {
      "inputs": [],
      "name": "templateCount",
      "outputs": [
        {
          "internalType": "uint256",
          "name": "",
          "type": "uint256"
        }
      ],
      "stateMutability": "view",
      "type": "function"
    },
    {
      "inputs": [
        {
          "internalType": "uint256",
          "name": "",
          "type": "uint256"
        }
      ],
      "name": "templateList",
      "outputs": [
        {
          "internalType": "address",
          "name": "templateAddress",
          "type": "address"
        },
        {
          "internalType": "bool",
          "name": "isActive",
          "type": "bool"
        }
      ],
      "stateMutability": "view",
      "type": "function"
    },
    {
      "inputs": [
        {
          "internalType": "address",
          "name": "newOwner",
          "type": "address"
        }
      ],
      "name": "transferOwnership",
      "outputs": [],
      "stateMutability": "nonpayable",
      "type": "function"
    }
  ],
  "bytecode": "0x608060405260016002553480156200001657600080fd5b50604051620015db380380620015db833981016040819052620000399162000266565b6000620000456200011a565b600080546001600160a01b0319166001600160a01b0383169081178255604051929350917f8be0079c531659141344cd1fd0a4f28419497f9722a3daafe3b4186f6b6457e0908290a3506001600160a01b03831615801590620000b057506001600160a01b03821615155b620000d85760405162461bcd60e51b8152600401620000cf90620002e6565b60405180910390fd5b620000e3836200011e565b50600580546001600160a01b039283166001600160a01b031991821617909155600180549390921692169190911790555062000404565b3390565b60006200012a6200011a565b6001600160a01b03166200013d62000239565b6001600160a01b031614620001665760405162461bcd60e51b8152600401620000cf906200034d565b6001600160a01b0382166200018f5760405162461bcd60e51b8152600401620000cf9062000382565b6200019a8262000248565b620001b95760405162461bcd60e51b8152600401620000cf90620002af565b600160046000828254620001ce9190620003df565b90915550506040805180820182526001600160a01b0380851682526001602080840191825260048054600090815260069092529490209251835491511515600160a01b0260ff60a01b19919093166001600160a01b031990921691909117161790555490505b919050565b6000546001600160a01b031690565b3b151590565b80516001600160a01b03811681146200023457600080fd5b6000806000606084860312156200027b578283fd5b62000286846200024e565b925062000296602085016200024e565b9150620002a6604085016200024e565b90509250925092565b6020808252601a908201527f4552433230466163746f72793a204e4f5420434f4e5452414354000000000000604082015260600190565b60208082526041908201527f4454466163746f72793a20496e76616c69642074656d706c61746520746f6b6560408201527f6e2f636f6d6d756e6974792066656520636f6c6c6563746f72206164647265736060820152607360f81b608082015260a00190565b6020808252818101527f4f776e61626c653a2063616c6c6572206973206e6f7420746865206f776e6572604082015260600190565b60208082526034908201527f4552433230466163746f72793a204552433732312074656d706c61746520616460408201527f6472657373283029204e4f5420414c4c4f574544000000000000000000000000606082015260800190565b60008219821115620003ff57634e487b7160e01b81526011600452602481fd5b500190565b6111c780620004146000396000f3fe608060405234801561001057600080fd5b50600436106101165760003560e01c80638da5cb5b116100a2578063b43ced0f11610071578063b43ced0f14610233578063bbf8d71f1461023b578063c6cf868a1461024e578063f2fde38b14610256578063f887ea401461026957610116565b80638da5cb5b146101ef57806394051699146101f757806395c603051461021857806396cd51391461022057610116565b806326705c3c116100e957806326705c3c1461018c578063715018a6146101a157806372f670f0146101a957806373ecb347146101c95780637b20bccf146101dc57610116565b8063042ab9b31461011b578063095d4513146101445780630ffda88714610159578063226e76151461016c575b600080fd5b61012e610129366004610c4b565b610271565b60405161013b91906110fc565b60405180910390f35b610157610152366004610b76565b6102ee565b005b610157610167366004610c4b565b61034f565b61017f61017a366004610b76565b6103a9565b60405161013b9190610cda565b6101946103be565b60405161013b919061111e565b6101576103c4565b6101bc6101b7366004610b76565b61044d565b60405161013b9190610cab565b6101bc6101d7366004610bb7565b610468565b6101946101ea366004610b76565b610729565b6101bc610832565b61020a610205366004610c4b565b610841565b60405161013b929190610cbf565b610194610868565b61015761022e366004610b76565b61086e565b6101bc6108c2565b610157610249366004610c4b565b6108d1565b61019461095e565b610157610264366004610b76565b610964565b6101bc610a24565b610279610ac7565b6000828152600660209081526040918290208251808401909352546001600160a01b0381168352600160a01b900460ff1615159082015260045483118015906102c157508215155b6102e65760405162461bcd60e51b81526004016102dd90610d86565b60405180910390fd5b90505b919050565b6102f6610a33565b6001600160a01b0316610307610832565b6001600160a01b03161461032d5760405162461bcd60e51b81526004016102dd90610fcd565b600380546001600160a01b0319166001600160a01b0392909216919091179055565b610357610a33565b6001600160a01b0316610368610832565b6001600160a01b03161461038e5760405162461bcd60e51b81526004016102dd90610fcd565b6000908152600660205260409020805460ff60a01b19169055565b60086020526000908152604090205460ff1681565b60045481565b6103cc610a33565b6001600160a01b03166103dd610832565b6001600160a01b0316146104035760405162461bcd60e51b81526004016102dd90610fcd565b600080546040516001600160a01b03909116907f8be0079c531659141344cd1fd0a4f28419497f9722a3daafe3b4186f6b6457e0908390a3600080546001600160a01b0319169055565b6007602052600090815260409020546001600160a01b031681565b6000846104875760405162461bcd60e51b81526004016102dd90610e97565b600454841115801561049857508315155b6104b45760405162461bcd60e51b81526004016102dd90610d86565b6000848152600660209081526040918290208251808401909352546001600160a01b0381168352600160a01b900460ff16151590820181905260011461050c5760405162461bcd60e51b81526004016102dd90610edc565b805161051790610a37565b6001600160a01b0381166000818152600860205260409020805460ff191660011790559092506105595760405162461bcd60e51b81526004016102dd90611056565b3360008181526007602052604090205483916001600160a01b03909116146105935760405162461bcd60e51b81526004016102dd90610f78565b806001600160a01b0316631ac570898a8a338b600160009054906101000a90046001600160a01b03168b600560009054906101000a90046001600160a01b03168c6040518963ffffffff1660e01b81526004016105f7989796959493929190610ce5565b602060405180830381600087803b15801561061157600080fd5b505af1158015610625573d6000803e3d6000fd5b505050506040513d601f19601f820116820180604052508101906106499190610b97565b6106655760405162461bcd60e51b81526004016102dd90610f27565b886040516106739190610c8f565b604051908190038120835190916001600160a01b03918216918616907fb51c8cbe199ffe8b0d1d39b62d473569750653cb18b165f77ae423b3900180ad90600090a4336001600160a01b0316836001600160a01b03167f54d11595f5fae5f45b1d7cc667adaf93951cf3757995b2c20dcd7b0fa81e91d08b8b8b6040516106fc93929190610d50565b60405180910390a36001600260008282546107179190611127565b90915550929998505050505050505050565b6000610733610a33565b6001600160a01b0316610744610832565b6001600160a01b03161461076a5760405162461bcd60e51b81526004016102dd90610fcd565b6001600160a01b0382166107905760405162461bcd60e51b81526004016102dd90611002565b61079982610ac1565b6107b55760405162461bcd60e51b81526004016102dd90610e1a565b6001600460008282546107c89190611127565b90915550506040805180820182526001600160a01b0380851682526001602080840191825260048054600090815260069092529490209251835491511515600160a01b0260ff60a01b19919093166001600160a01b03199092169190911716179055549050919050565b6000546001600160a01b031690565b6006602052600090815260409020546001600160a01b03811690600160a01b900460ff1682565b60045490565b6003546001600160a01b031633146108985760405162461bcd60e51b81526004016102dd906110b3565b6001600160a01b0316600081815260076020526040902080546001600160a01b0319169091179055565b6003546001600160a01b031681565b6108d9610a33565b6001600160a01b03166108ea610832565b6001600160a01b0316146109105760405162461bcd60e51b81526004016102dd90610fcd565b600454811115801561092157508015155b61093d5760405162461bcd60e51b81526004016102dd90610dcf565b6000908152600660205260409020805460ff60a01b1916600160a01b179055565b60025490565b61096c610a33565b6001600160a01b031661097d610832565b6001600160a01b0316146109a35760405162461bcd60e51b81526004016102dd90610fcd565b6001600160a01b0381166109c95760405162461bcd60e51b81526004016102dd90610e51565b600080546040516001600160a01b03808516939216917f8be0079c531659141344cd1fd0a4f28419497f9722a3daafe3b4186f6b6457e091a3600080546001600160a01b0319166001600160a01b0392909216919091179055565b6005546001600160a01b031681565b3390565b6000808260601b9050604051733d602d80600a3d3981f3363d3d373d3d3d363d7360601b81528160148201526e5af43d82803e903d91602b57fd5bf360881b60288201526037816000f09250507f117c72e6c25f0a072e36e148df71468ce2f3dbe7defec5b2c257a6e3eb65278c82604051610ab39190610cab565b60405180910390a150919050565b3b151590565b604080518082019091526000808252602082015290565b80356001600160a01b03811681146102e957600080fd5b600082601f830112610b05578081fd5b813567ffffffffffffffff80821115610b2057610b2061117b565b604051601f8301601f191681016020018281118282101715610b4457610b4461117b565b604052828152848301602001861015610b5b578384fd5b82602086016020830137918201602001929092529392505050565b600060208284031215610b87578081fd5b610b9082610ade565b9392505050565b600060208284031215610ba8578081fd5b81518015158114610b90578182fd5b60008060008060008060c08789031215610bcf578182fd5b863567ffffffffffffffff80821115610be6578384fd5b610bf28a838b01610af5565b97506020890135915080821115610c07578384fd5b50610c1489828a01610af5565b9550506040870135935060608701359250610c3160808801610ade565b9150610c3f60a08801610ade565b90509295509295509295565b600060208284031215610c5c578081fd5b5035919050565b60008151808452610c7b81602086016020860161114b565b601f01601f19169290920160200192915050565b60008251610ca181846020870161114b565b9190910192915050565b6001600160a01b0391909116815260200190565b6001600160a01b039290921682521515602082015260400190565b901515815260200190565b6000610100808352610cf98184018c610c63565b90508281036020840152610d0d818b610c63565b6001600160a01b03998a16604085015260608401989098525050938616608085015291851660a0840152841660c083015290921660e09092019190915292915050565b600060608252610d636060830186610c63565b8281036020840152610d758186610c63565b915050826040830152949350505050565b60208082526029908201527f4552433230466163746f72793a2054656d706c61746520696e64657820646f656040820152681cdb9d08195e1a5cdd60ba1b606082015260800190565b6020808252602b908201527f45524332304454466163746f72793a2054656d706c61746520696e646578206460408201526a1bd95cdb9d08195e1a5cdd60aa1b606082015260800190565b6020808252601a908201527f4552433230466163746f72793a204e4f5420434f4e5452414354000000000000604082015260600190565b60208082526026908201527f4f776e61626c653a206e6577206f776e657220697320746865207a65726f206160408201526564647265737360d01b606082015260800190565b60208082526025908201527f4552433230466163746f72793a207a65726f20636170206973206e6f7420616c6040820152641b1bddd95960da1b606082015260800190565b6020808252602b908201527f4552433230466163746f72793a20455243373231546f6b656e2054656d706c6160408201526a1d1948191a5cd8589b195960aa1b606082015260800190565b60208082526031908201527f4552433230466163746f72793a20556e61626c6520746f20696e697469616c696040820152707a6520746f6b656e20696e7374616e636560781b606082015260800190565b60208082526035908201527f4552433230466163746f72793a204f4e4c592045524337323120494e5354414e60408201527443452046524f4d20455243373231464143544f525960581b606082015260800190565b6020808252818101527f4f776e61626c653a2063616c6c6572206973206e6f7420746865206f776e6572604082015260600190565b60208082526034908201527f4552433230466163746f72793a204552433732312074656d706c617465206164604082015273191c995cdcca0c0a481393d50810531313d5d15160621b606082015260800190565b6020808252603d908201527f4552433230466163746f72793a204661696c656420746f20706572666f726d2060408201527f6d696e696d616c206465706c6f79206f662061206e657720746f6b656e000000606082015260800190565b60208082526029908201527f4552433230466163746f72793a204f4e4c5920455243373231464143544f52596040820152680810d3d395149050d560ba1b606082015260800190565b81516001600160a01b0316815260209182015115159181019190915260400190565b90815260200190565b6000821982111561114657634e487b7160e01b81526011600452602481fd5b500190565b60005b8381101561116657818101518382015260200161114e565b83811115611175576000848401525b50505050565b634e487b7160e01b600052604160045260246000fdfea2646970667358221220585bef7307d16ec955025325ea4ca8d755b6b343158f02d82b6e3e296a1fcf5864736f6c63430008000033",
  "linkReferences": {},
  "deployedLinkReferences": {}
}