{
  "_format": "hh-sol-artifact-1",
  "contractName": "ERC20Factory",
  "sourceName": "contracts/ERC20Factory.sol",
  "abi": [
    {
      "inputs": [
        {
          "internalType": "address",
          "name": "_template",
          "type": "address"
        },
        {
          "internalType": "address",
          "name": "_collector",
          "type": "address"
        },
        {
          "internalType": "address",
          "name": "_ssContract",
          "type": "address"
        }
      ],
      "stateMutability": "nonpayable",
      "type": "constructor"
    },
    {
      "anonymous": false,
      "inputs": [
        {
          "indexed": false,
          "internalType": "address",
          "name": "instance",
          "type": "address"
        }
      ],
      "name": "InstanceDeployed",
      "type": "event"
    },
    {
      "anonymous": false,
      "inputs": [
        {
          "indexed": true,
          "internalType": "address",
          "name": "previousOwner",
          "type": "address"
        },
        {
          "indexed": true,
          "internalType": "address",
          "name": "newOwner",
          "type": "address"
        }
      ],
      "name": "OwnershipTransferred",
      "type": "event"
    },
    {
      "anonymous": false,
      "inputs": [
        {
          "indexed": true,
          "internalType": "address",
          "name": "newTokenAddress",
          "type": "address"
        },
        {
          "indexed": true,
          "internalType": "address",
          "name": "templateAddress",
          "type": "address"
        },
        {
          "indexed": true,
          "internalType": "string",
          "name": "tokenName",
          "type": "string"
        }
      ],
      "name": "TokenCreated",
      "type": "event"
    },
    {
      "anonymous": false,
      "inputs": [
        {
          "indexed": true,
          "internalType": "address",
          "name": "tokenAddress",
          "type": "address"
        },
        {
          "indexed": false,
          "internalType": "string",
          "name": "tokenName",
          "type": "string"
        },
        {
          "indexed": false,
          "internalType": "string",
          "name": "tokenSymbol",
          "type": "string"
        },
        {
          "indexed": false,
          "internalType": "uint256",
          "name": "tokenCap",
          "type": "uint256"
        },
        {
          "indexed": true,
          "internalType": "address",
          "name": "registeredBy",
          "type": "address"
        }
      ],
      "name": "TokenRegistered",
      "type": "event"
    },
    {
      "inputs": [
        {
          "internalType": "address",
          "name": "_ssContract",
          "type": "address"
        }
      ],
      "name": "addSSContract",
      "outputs": [],
      "stateMutability": "nonpayable",
      "type": "function"
    },
    {
      "inputs": [
        {
          "internalType": "address",
          "name": "ERC721address",
          "type": "address"
        }
      ],
      "name": "addToERC721Registry",
      "outputs": [],
      "stateMutability": "nonpayable",
      "type": "function"
    },
    {
      "inputs": [
        {
          "internalType": "address",
          "name": "_templateAddress",
          "type": "address"
        }
      ],
      "name": "addTokenTemplate",
      "outputs": [
        {
          "internalType": "uint256",
          "name": "",
          "type": "uint256"
        }
      ],
      "stateMutability": "nonpayable",
      "type": "function"
    },
    {
      "inputs": [
        {
          "internalType": "string",
          "name": "name",
          "type": "string"
        },
        {
          "internalType": "string",
          "name": "symbol",
          "type": "string"
        },
        {
          "internalType": "uint256",
          "name": "cap",
          "type": "uint256"
        },
        {
          "internalType": "uint256",
          "name": "_templateIndex",
          "type": "uint256"
        },
        {
          "internalType": "address",
          "name": "minter",
          "type": "address"
        },
        {
          "internalType": "address",
          "name": "baseTokenAddress",
          "type": "address"
        },
        {
          "internalType": "uint256",
          "name": "burnInEndBlock",
          "type": "uint256"
        },
        {
          "internalType": "uint256[]",
          "name": "ssParams",
          "type": "uint256[]"
        }
      ],
      "name": "createToken",
      "outputs": [
        {
          "internalType": "address",
          "name": "token",
          "type": "address"
        }
      ],
      "stateMutability": "nonpayable",
      "type": "function"
    },
    {
      "inputs": [
        {
          "internalType": "uint256",
          "name": "_index",
          "type": "uint256"
        }
      ],
      "name": "disableTokenTemplate",
      "outputs": [],
      "stateMutability": "nonpayable",
      "type": "function"
    },
    {
      "inputs": [
        {
          "internalType": "address",
          "name": "",
          "type": "address"
        }
      ],
      "name": "erc20List",
      "outputs": [
        {
          "internalType": "bool",
          "name": "",
          "type": "bool"
        }
      ],
      "stateMutability": "view",
      "type": "function"
    },
    {
      "inputs": [],
      "name": "erc721Factory",
      "outputs": [
        {
          "internalType": "address",
          "name": "",
          "type": "address"
        }
      ],
      "stateMutability": "view",
      "type": "function"
    },
    {
      "inputs": [
        {
          "internalType": "address",
          "name": "",
          "type": "address"
        }
      ],
      "name": "erc721List",
      "outputs": [
        {
          "internalType": "address",
          "name": "",
          "type": "address"
        }
      ],
      "stateMutability": "view",
      "type": "function"
    },
    {
      "inputs": [],
      "name": "getCurrentTemplateCount",
      "outputs": [
        {
          "internalType": "uint256",
          "name": "",
          "type": "uint256"
        }
      ],
      "stateMutability": "view",
      "type": "function"
    },
    {
      "inputs": [],
      "name": "getCurrentTokenCount",
      "outputs": [
        {
          "internalType": "uint256",
          "name": "",
          "type": "uint256"
        }
      ],
      "stateMutability": "view",
      "type": "function"
    },
    {
      "inputs": [
        {
          "internalType": "uint256",
          "name": "_index",
          "type": "uint256"
        }
      ],
      "name": "getTokenTemplate",
      "outputs": [
        {
          "components": [
            {
              "internalType": "address",
              "name": "templateAddress",
              "type": "address"
            },
            {
              "internalType": "bool",
              "name": "isActive",
              "type": "bool"
            }
          ],
          "internalType": "struct ERC20Factory.Template",
          "name": "",
          "type": "tuple"
        }
      ],
      "stateMutability": "view",
      "type": "function"
    },
    {
      "inputs": [],
      "name": "owner",
      "outputs": [
        {
          "internalType": "address",
          "name": "",
          "type": "address"
        }
      ],
      "stateMutability": "view",
      "type": "function"
    },
    {
      "inputs": [
        {
          "internalType": "uint256",
          "name": "_index",
          "type": "uint256"
        }
      ],
      "name": "reactivateTokenTemplate",
      "outputs": [],
      "stateMutability": "nonpayable",
      "type": "function"
    },
    {
      "inputs": [],
      "name": "renounceOwnership",
      "outputs": [],
      "stateMutability": "nonpayable",
      "type": "function"
    },
    {
      "inputs": [
        {
          "internalType": "address",
          "name": "_erc721FactoryAddress",
          "type": "address"
        }
      ],
      "name": "setERC721Factory",
      "outputs": [],
      "stateMutability": "nonpayable",
      "type": "function"
    },
    {
      "inputs": [],
      "name": "templateCount",
      "outputs": [
        {
          "internalType": "uint256",
          "name": "",
          "type": "uint256"
        }
      ],
      "stateMutability": "view",
      "type": "function"
    },
    {
      "inputs": [
        {
          "internalType": "uint256",
          "name": "",
          "type": "uint256"
        }
      ],
      "name": "templateList",
      "outputs": [
        {
          "internalType": "address",
          "name": "templateAddress",
          "type": "address"
        },
        {
          "internalType": "bool",
          "name": "isActive",
          "type": "bool"
        }
      ],
      "stateMutability": "view",
      "type": "function"
    },
    {
      "inputs": [
        {
          "internalType": "address",
          "name": "newOwner",
          "type": "address"
        }
      ],
      "name": "transferOwnership",
      "outputs": [],
      "stateMutability": "nonpayable",
      "type": "function"
    }
  ],
  "bytecode": "0x608060405260016002553480156200001657600080fd5b50604051620017bd380380620017bd833981016040819052620000399162000275565b60006200004562000129565b600080546001600160a01b0319166001600160a01b0383169081178255604051929350917f8be0079c531659141344cd1fd0a4f28419497f9722a3daafe3b4186f6b6457e0908290a3506001600160a01b03831615801590620000b057506001600160a01b03821615155b620000d85760405162461bcd60e51b8152600401620000cf90620002f5565b60405180910390fd5b620000e3836200012d565b506001600160a01b0390811660009081526008602052604090208054600160ff19909116811790915580546001600160a01b031916929091169190911790555062000413565b3390565b60006200013962000129565b6001600160a01b03166200014c62000248565b6001600160a01b031614620001755760405162461bcd60e51b8152600401620000cf906200035c565b6001600160a01b0382166200019e5760405162461bcd60e51b8152600401620000cf9062000391565b620001a98262000257565b620001c85760405162461bcd60e51b8152600401620000cf90620002be565b600160046000828254620001dd9190620003ee565b90915550506040805180820182526001600160a01b0380851682526001602080840191825260048054600090815260059092529490209251835491511515600160a01b0260ff60a01b19919093166001600160a01b031990921691909117161790555490505b919050565b6000546001600160a01b031690565b3b151590565b80516001600160a01b03811681146200024357600080fd5b6000806000606084860312156200028a578283fd5b62000295846200025d565b9250620002a5602085016200025d565b9150620002b5604085016200025d565b90509250925092565b6020808252601a908201527f4552433230466163746f72793a204e4f5420434f4e5452414354000000000000604082015260600190565b60208082526041908201527f4454466163746f72793a20496e76616c69642074656d706c61746520746f6b6560408201527f6e2f636f6d6d756e6974792066656520636f6c6c6563746f72206164647265736060820152607360f81b608082015260a00190565b6020808252818101527f4f776e61626c653a2063616c6c6572206973206e6f7420746865206f776e6572604082015260600190565b60208082526034908201527f4552433230466163746f72793a204552433732312074656d706c61746520616460408201527f6472657373283029204e4f5420414c4c4f574544000000000000000000000000606082015260800190565b600082198211156200040e57634e487b7160e01b81526011600452602481fd5b500190565b61139a80620004236000396000f3fe608060405234801561001057600080fd5b50600436106101165760003560e01c80637b20bccf116100a257806396cd51391161007157806396cd513914610233578063b43ced0f14610246578063bbf8d71f1461024e578063c6cf868a14610261578063f2fde38b1461026957610116565b80637b20bccf146101ef5780638da5cb5b14610202578063940516991461020a57806395c603051461022b57610116565b806326705c3c116100e957806326705c3c1461018c57806342034acf146101a15780636c9fb612146101c1578063715018a6146101d457806372f670f0146101dc57610116565b8063042ab9b31461011b578063095d4513146101445780630ffda88714610159578063226e76151461016c575b600080fd5b61012e610129366004610d71565b61027c565b60405161013b91906112a5565b60405180910390f35b610157610152366004610c6d565b6102f9565b005b610157610167366004610d71565b61035a565b61017f61017a366004610c6d565b6103b4565b60405161013b9190610e00565b6101946103c9565b60405161013b91906112c7565b6101b46101af366004610cae565b6103cf565b60405161013b9190610dd1565b6101576101cf366004610c6d565b6106bc565b61015761071f565b6101b46101ea366004610c6d565b6107a8565b6101946101fd366004610c6d565b6107c3565b6101b46108cc565b61021d610218366004610d71565b6108db565b60405161013b929190610de5565b610194610902565b610157610241366004610c6d565b610908565b6101b461095c565b61015761025c366004610d71565b61096b565b6101946109f8565b610157610277366004610c6d565b6109fe565b610284610b52565b6000828152600560209081526040918290208251808401909352546001600160a01b0381168352600160a01b900460ff1615159082015260045483118015906102cc57508215155b6102f15760405162461bcd60e51b81526004016102e890610ee8565b60405180910390fd5b90505b919050565b610301610abe565b6001600160a01b03166103126108cc565b6001600160a01b0316146103385760405162461bcd60e51b81526004016102e890611176565b600380546001600160a01b0319166001600160a01b0392909216919091179055565b610362610abe565b6001600160a01b03166103736108cc565b6001600160a01b0316146103995760405162461bcd60e51b81526004016102e890611176565b6000908152600560205260409020805460ff60a01b19169055565b60076020526000908152604090205460ff1681565b60045481565b6000866103ee5760405162461bcd60e51b81526004016102e890611040565b60045486111580156103ff57508515155b61041b5760405162461bcd60e51b81526004016102e890610ee8565b6000868152600560209081526040918290208251808401909352546001600160a01b0381168352600160a01b900460ff1615159082018190526001146104735760405162461bcd60e51b81526004016102e890611085565b6001600160a01b03861660009081526008602052604090205460ff1615156001146104b05760405162461bcd60e51b81526004016102e890610ff9565b80516104bb90610ac2565b6001600160a01b0381166000818152600760205260409020805460ff191660011790559092506104fd5760405162461bcd60e51b81526004016102e8906111ff565b3360008181526006602052604090205483916001600160a01b03909116146105375760405162461bcd60e51b81526004016102e890611121565b806001600160a01b031663b5f09ba18c8c338d600160009054906101000a90046001600160a01b03168d8d8d8d6040518a63ffffffff1660e01b815260040161058899989796959493929190610e0b565b602060405180830381600087803b1580156105a257600080fd5b505af11580156105b6573d6000803e3d6000fd5b505050506040513d601f19601f820116820180604052508101906105da9190610c8e565b6105f65760405162461bcd60e51b81526004016102e8906110d0565b8a6040516106049190610db5565b604051908190038120835190916001600160a01b03918216918616907fb51c8cbe199ffe8b0d1d39b62d473569750653cb18b165f77ae423b3900180ad90600090a4336001600160a01b0316836001600160a01b03167f54d11595f5fae5f45b1d7cc667adaf93951cf3757995b2c20dcd7b0fa81e91d08d8d8d60405161068d93929190610eb2565b60405180910390a36001600260008282546106a891906112fa565b90915550929b9a5050505050505050505050565b6106c4610abe565b6001600160a01b03166106d56108cc565b6001600160a01b0316146106fb5760405162461bcd60e51b81526004016102e890611176565b6001600160a01b03166000908152600860205260409020805460ff19166001179055565b610727610abe565b6001600160a01b03166107386108cc565b6001600160a01b03161461075e5760405162461bcd60e51b81526004016102e890611176565b600080546040516001600160a01b03909116907f8be0079c531659141344cd1fd0a4f28419497f9722a3daafe3b4186f6b6457e0908390a3600080546001600160a01b0319169055565b6006602052600090815260409020546001600160a01b031681565b60006107cd610abe565b6001600160a01b03166107de6108cc565b6001600160a01b0316146108045760405162461bcd60e51b81526004016102e890611176565b6001600160a01b03821661082a5760405162461bcd60e51b81526004016102e8906111ab565b61083382610b4c565b61084f5760405162461bcd60e51b81526004016102e890610f7c565b60016004600082825461086291906112fa565b90915550506040805180820182526001600160a01b0380851682526001602080840191825260048054600090815260059092529490209251835491511515600160a01b0260ff60a01b19919093166001600160a01b03199092169190911716179055549050919050565b6000546001600160a01b031690565b6005602052600090815260409020546001600160a01b03811690600160a01b900460ff1682565b60045490565b6003546001600160a01b031633146109325760405162461bcd60e51b81526004016102e89061125c565b6001600160a01b0316600081815260066020526040902080546001600160a01b0319169091179055565b6003546001600160a01b031681565b610973610abe565b6001600160a01b03166109846108cc565b6001600160a01b0316146109aa5760405162461bcd60e51b81526004016102e890611176565b60045481111580156109bb57508015155b6109d75760405162461bcd60e51b81526004016102e890610f31565b6000908152600560205260409020805460ff60a01b1916600160a01b179055565b60025490565b610a06610abe565b6001600160a01b0316610a176108cc565b6001600160a01b031614610a3d5760405162461bcd60e51b81526004016102e890611176565b6001600160a01b038116610a635760405162461bcd60e51b81526004016102e890610fb3565b600080546040516001600160a01b03808516939216917f8be0079c531659141344cd1fd0a4f28419497f9722a3daafe3b4186f6b6457e091a3600080546001600160a01b0319166001600160a01b0392909216919091179055565b3390565b6000808260601b9050604051733d602d80600a3d3981f3363d3d373d3d3d363d7360601b81528160148201526e5af43d82803e903d91602b57fd5bf360881b60288201526037816000f09250507f117c72e6c25f0a072e36e148df71468ce2f3dbe7defec5b2c257a6e3eb65278c82604051610b3e9190610dd1565b60405180910390a150919050565b3b151590565b604080518082019091526000808252602082015290565b80356001600160a01b03811681146102f457600080fd5b600082601f830112610b90578081fd5b8135602067ffffffffffffffff821115610bac57610bac61134e565b808202610bba8282016112d0565b838152828101908684018388018501891015610bd4578687fd5b8693505b85841015610bf6578035835260019390930192918401918401610bd8565b50979650505050505050565b600082601f830112610c12578081fd5b813567ffffffffffffffff811115610c2c57610c2c61134e565b610c3f601f8201601f19166020016112d0565b818152846020838601011115610c53578283fd5b816020850160208301379081016020019190915292915050565b600060208284031215610c7e578081fd5b610c8782610b69565b9392505050565b600060208284031215610c9f578081fd5b81518015158114610c87578182fd5b600080600080600080600080610100898b031215610cca578384fd5b883567ffffffffffffffff80821115610ce1578586fd5b610ced8c838d01610c02565b995060208b0135915080821115610d02578586fd5b610d0e8c838d01610c02565b985060408b0135975060608b01359650610d2a60808c01610b69565b9550610d3860a08c01610b69565b945060c08b0135935060e08b0135915080821115610d54578283fd5b50610d618b828c01610b80565b9150509295985092959890939650565b600060208284031215610d82578081fd5b5035919050565b60008151808452610da181602086016020860161131e565b601f01601f19169290920160200192915050565b60008251610dc781846020870161131e565b9190910192915050565b6001600160a01b0391909116815260200190565b6001600160a01b039290921682521515602082015260400190565b901515815260200190565b6000610120808352610e1f8184018d610d89565b9050602083820381850152610e34828d610d89565b6001600160a01b038c81166040870152606086018c90528a8116608087015289811660a0870152881660c086015260e085018790528481036101008601528551808252828701935090820190845b81811015610e9e57845183529383019391830191600101610e82565b50909e9d5050505050505050505050505050565b600060608252610ec56060830186610d89565b8281036020840152610ed78186610d89565b915050826040830152949350505050565b60208082526029908201527f4552433230466163746f72793a2054656d706c61746520696e64657820646f656040820152681cdb9d08195e1a5cdd60ba1b606082015260800190565b6020808252602b908201527f45524332304454466163746f72793a2054656d706c61746520696e646578206460408201526a1bd95cdb9d08195e1a5cdd60aa1b606082015260800190565b6020808252601a908201527f4552433230466163746f72793a204e4f5420434f4e5452414354000000000000604082015260600190565b60208082526026908201527f4f776e61626c653a206e6577206f776e657220697320746865207a65726f206160408201526564647265737360d01b606082015260800190565b60208082526027908201527f4552433230466163746f72793a206d696e746572206973206e6f7420737320436040820152661bdb9d1c9858dd60ca1b606082015260800190565b60208082526025908201527f4552433230466163746f72793a207a65726f20636170206973206e6f7420616c6040820152641b1bddd95960da1b606082015260800190565b6020808252602b908201527f4552433230466163746f72793a20455243373231546f6b656e2054656d706c6160408201526a1d1948191a5cd8589b195960aa1b606082015260800190565b60208082526031908201527f4552433230466163746f72793a20556e61626c6520746f20696e697469616c696040820152707a6520746f6b656e20696e7374616e636560781b606082015260800190565b60208082526035908201527f4552433230466163746f72793a204f4e4c592045524337323120494e5354414e60408201527443452046524f4d20455243373231464143544f525960581b606082015260800190565b6020808252818101527f4f776e61626c653a2063616c6c6572206973206e6f7420746865206f776e6572604082015260600190565b60208082526034908201527f4552433230466163746f72793a204552433732312074656d706c617465206164604082015273191c995cdcca0c0a481393d50810531313d5d15160621b606082015260800190565b6020808252603d908201527f4552433230466163746f72793a204661696c656420746f20706572666f726d2060408201527f6d696e696d616c206465706c6f79206f662061206e657720746f6b656e000000606082015260800190565b60208082526029908201527f4552433230466163746f72793a204f4e4c5920455243373231464143544f52596040820152680810d3d395149050d560ba1b606082015260800190565b81516001600160a01b0316815260209182015115159181019190915260400190565b90815260200190565b60405181810167ffffffffffffffff811182821017156112f2576112f261134e565b604052919050565b6000821982111561131957634e487b7160e01b81526011600452602481fd5b500190565b60005b83811015611339578181015183820152602001611321565b83811115611348576000848401525b50505050565b634e487b7160e01b600052604160045260246000fdfea26469706673582212206126eb970185b90154daffcf46cc38d04d04ba72006e9c4a0807e0a50c7f264c64736f6c63430008000033",
  "linkReferences": {},
  "deployedLinkReferences": {}
}