{
  "_format": "hh-sol-artifact-1",
  "contractName": "BToken",
  "sourceName": "contracts/pools/balancer/BToken.sol",
  "abi": [
    {
      "anonymous": false,
      "inputs": [
        {
          "indexed": true,
          "internalType": "address",
          "name": "src",
          "type": "address"
        },
        {
          "indexed": true,
          "internalType": "address",
          "name": "dst",
          "type": "address"
        },
        {
          "indexed": false,
          "internalType": "uint256",
          "name": "amt",
          "type": "uint256"
        }
      ],
      "name": "Approval",
      "type": "event"
    },
    {
      "anonymous": false,
      "inputs": [
        {
          "indexed": true,
          "internalType": "address",
          "name": "src",
          "type": "address"
        },
        {
          "indexed": true,
          "internalType": "address",
          "name": "dst",
          "type": "address"
        },
        {
          "indexed": false,
          "internalType": "uint256",
          "name": "amt",
          "type": "uint256"
        }
      ],
      "name": "Transfer",
      "type": "event"
    },
    {
      "inputs": [],
      "name": "BONE",
      "outputs": [
        {
          "internalType": "uint256",
          "name": "",
          "type": "uint256"
        }
      ],
      "stateMutability": "view",
      "type": "function"
    },
    {
      "inputs": [],
      "name": "BPOW_PRECISION",
      "outputs": [
        {
          "internalType": "uint256",
          "name": "",
          "type": "uint256"
        }
      ],
      "stateMutability": "view",
      "type": "function"
    },
    {
      "inputs": [],
      "name": "EXIT_FEE",
      "outputs": [
        {
          "internalType": "uint256",
          "name": "",
          "type": "uint256"
        }
      ],
      "stateMutability": "view",
      "type": "function"
    },
    {
      "inputs": [],
      "name": "INIT_POOL_SUPPLY",
      "outputs": [
        {
          "internalType": "uint256",
          "name": "",
          "type": "uint256"
        }
      ],
      "stateMutability": "view",
      "type": "function"
    },
    {
      "inputs": [],
      "name": "MAX_BOUND_TOKENS",
      "outputs": [
        {
          "internalType": "uint256",
          "name": "",
          "type": "uint256"
        }
      ],
      "stateMutability": "view",
      "type": "function"
    },
    {
      "inputs": [],
      "name": "MAX_BPOW_BASE",
      "outputs": [
        {
          "internalType": "uint256",
          "name": "",
          "type": "uint256"
        }
      ],
      "stateMutability": "view",
      "type": "function"
    },
    {
      "inputs": [],
      "name": "MAX_FEE",
      "outputs": [
        {
          "internalType": "uint256",
          "name": "",
          "type": "uint256"
        }
      ],
      "stateMutability": "view",
      "type": "function"
    },
    {
      "inputs": [],
      "name": "MAX_IN_RATIO",
      "outputs": [
        {
          "internalType": "uint256",
          "name": "",
          "type": "uint256"
        }
      ],
      "stateMutability": "view",
      "type": "function"
    },
    {
      "inputs": [],
      "name": "MAX_OUT_RATIO",
      "outputs": [
        {
          "internalType": "uint256",
          "name": "",
          "type": "uint256"
        }
      ],
      "stateMutability": "view",
      "type": "function"
    },
    {
      "inputs": [],
      "name": "MAX_TOTAL_WEIGHT",
      "outputs": [
        {
          "internalType": "uint256",
          "name": "",
          "type": "uint256"
        }
      ],
      "stateMutability": "view",
      "type": "function"
    },
    {
      "inputs": [],
      "name": "MAX_WEIGHT",
      "outputs": [
        {
          "internalType": "uint256",
          "name": "",
          "type": "uint256"
        }
      ],
      "stateMutability": "view",
      "type": "function"
    },
    {
      "inputs": [],
      "name": "MIN_BALANCE",
      "outputs": [
        {
          "internalType": "uint256",
          "name": "",
          "type": "uint256"
        }
      ],
      "stateMutability": "view",
      "type": "function"
    },
    {
      "inputs": [],
      "name": "MIN_BOUND_TOKENS",
      "outputs": [
        {
          "internalType": "uint256",
          "name": "",
          "type": "uint256"
        }
      ],
      "stateMutability": "view",
      "type": "function"
    },
    {
      "inputs": [],
      "name": "MIN_BPOW_BASE",
      "outputs": [
        {
          "internalType": "uint256",
          "name": "",
          "type": "uint256"
        }
      ],
      "stateMutability": "view",
      "type": "function"
    },
    {
      "inputs": [],
      "name": "MIN_FEE",
      "outputs": [
        {
          "internalType": "uint256",
          "name": "",
          "type": "uint256"
        }
      ],
      "stateMutability": "view",
      "type": "function"
    },
    {
      "inputs": [],
      "name": "MIN_WEIGHT",
      "outputs": [
        {
          "internalType": "uint256",
          "name": "",
          "type": "uint256"
        }
      ],
      "stateMutability": "view",
      "type": "function"
    },
    {
      "inputs": [
        {
          "internalType": "address",
          "name": "src",
          "type": "address"
        },
        {
          "internalType": "address",
          "name": "dst",
          "type": "address"
        }
      ],
      "name": "allowance",
      "outputs": [
        {
          "internalType": "uint256",
          "name": "",
          "type": "uint256"
        }
      ],
      "stateMutability": "view",
      "type": "function"
    },
    {
      "inputs": [
        {
          "internalType": "address",
          "name": "dst",
          "type": "address"
        },
        {
          "internalType": "uint256",
          "name": "amt",
          "type": "uint256"
        }
      ],
      "name": "approve",
      "outputs": [
        {
          "internalType": "bool",
          "name": "",
          "type": "bool"
        }
      ],
      "stateMutability": "nonpayable",
      "type": "function"
    },
    {
      "inputs": [
        {
          "internalType": "address",
          "name": "whom",
          "type": "address"
        }
      ],
      "name": "balanceOf",
      "outputs": [
        {
          "internalType": "uint256",
          "name": "",
          "type": "uint256"
        }
      ],
      "stateMutability": "view",
      "type": "function"
    },
    {
      "inputs": [],
      "name": "decimals",
      "outputs": [
        {
          "internalType": "uint8",
          "name": "",
          "type": "uint8"
        }
      ],
      "stateMutability": "view",
      "type": "function"
    },
    {
      "inputs": [
        {
          "internalType": "address",
          "name": "dst",
          "type": "address"
        },
        {
          "internalType": "uint256",
          "name": "amt",
          "type": "uint256"
        }
      ],
      "name": "decreaseApproval",
      "outputs": [
        {
          "internalType": "bool",
          "name": "",
          "type": "bool"
        }
      ],
      "stateMutability": "nonpayable",
      "type": "function"
    },
    {
      "inputs": [
        {
          "internalType": "address",
          "name": "dst",
          "type": "address"
        },
        {
          "internalType": "uint256",
          "name": "amt",
          "type": "uint256"
        }
      ],
      "name": "increaseApproval",
      "outputs": [
        {
          "internalType": "bool",
          "name": "",
          "type": "bool"
        }
      ],
      "stateMutability": "nonpayable",
      "type": "function"
    },
    {
      "inputs": [],
      "name": "name",
      "outputs": [
        {
          "internalType": "string",
          "name": "",
          "type": "string"
        }
      ],
      "stateMutability": "view",
      "type": "function"
    },
    {
      "inputs": [],
      "name": "symbol",
      "outputs": [
        {
          "internalType": "string",
          "name": "",
          "type": "string"
        }
      ],
      "stateMutability": "view",
      "type": "function"
    },
    {
      "inputs": [],
      "name": "totalSupply",
      "outputs": [
        {
          "internalType": "uint256",
          "name": "",
          "type": "uint256"
        }
      ],
      "stateMutability": "view",
      "type": "function"
    },
    {
      "inputs": [
        {
          "internalType": "address",
          "name": "dst",
          "type": "address"
        },
        {
          "internalType": "uint256",
          "name": "amt",
          "type": "uint256"
        }
      ],
      "name": "transfer",
      "outputs": [
        {
          "internalType": "bool",
          "name": "",
          "type": "bool"
        }
      ],
      "stateMutability": "nonpayable",
      "type": "function"
    },
    {
      "inputs": [
        {
          "internalType": "address",
          "name": "src",
          "type": "address"
        },
        {
          "internalType": "address",
          "name": "dst",
          "type": "address"
        },
        {
          "internalType": "uint256",
          "name": "amt",
          "type": "uint256"
        }
      ],
      "name": "transferFrom",
      "outputs": [
        {
          "internalType": "bool",
          "name": "",
          "type": "bool"
        }
      ],
      "stateMutability": "nonpayable",
      "type": "function"
    }
  ],
  "bytecode": "0x608060405234801561001057600080fd5b50610b43806100206000396000f3fe608060405234801561001057600080fd5b50600436106101a95760003560e01c806395d89b41116100f9578063bc694ea211610097578063d73dd62311610071578063d73dd6231461031c578063dd62ed3e1461032f578063e4a28a521461020f578063ec0930211461036857600080fd5b8063bc694ea21461030c578063c36596a614610235578063c6580d121461031457600080fd5b8063b0e0d136116100d3578063b0e0d136146102f4578063b7b800a4146102f4578063ba019dab146102fc578063bc063e1a1461030457600080fd5b806395d89b41146102ba578063992e2a92146102d9578063a9059cbb146102e157600080fd5b806323b872dd1161016657806370a082311161014057806370a082311461027957806376c7a3c7146102a2578063867378c5146102aa5780639381cd2b146102b257600080fd5b806323b872dd14610244578063313ce56714610257578063661884631461026657600080fd5b806306fdde03146101ae578063095ea7b3146101ec57806309a3bbe41461020f57806318160ddd14610225578063189d00ca1461022d578063218b538214610235575b600080fd5b60408051808201909152601081526f27b1b2b0b7102837b7b6102a37b5b2b760811b60208201525b6040516101e39190610942565b60405180910390f35b6101ff6101fa3660046109b3565b610370565b60405190151581526020016101e3565b6102176103ca565b6040519081526020016101e3565b600254610217565b6102176103e0565b610217670de0b6b3a764000081565b6101ff6102523660046109dd565b6103f7565b604051601281526020016101e3565b6101ff6102743660046109b3565b61054b565b610217610287366004610a19565b6001600160a01b031660009081526020819052604090205490565b610217610621565b610217610635565b61021761064c565b60408051808201909152600381526213d41560ea1b60208201526101d6565b61021761065f565b6101ff6102ef3660046109b3565b61067d565b610217600281565b610217600181565b610217610693565b6102176106a6565b610217600081565b6101ff61032a3660046109b3565b6106c5565b61021761033d366004610a34565b6001600160a01b03918216600090815260016020908152604080832093909416825291909152205490565b610217610738565b3360008181526001602090815260408083206001600160a01b03871680855292528083208590555191929091600080516020610aee833981519152906103b99086815260200190565b60405180910390a350600192915050565b6103dd670de0b6b3a76400006032610a7d565b81565b6103dd6402540be400670de0b6b3a7640000610a9c565b6000336001600160a01b038516148061043357506001600160a01b03841660009081526001602090815260408083203384529091529020548211155b61047c5760405162461bcd60e51b815260206004820152601560248201527422a9292fa12a27a5a2a72fa120a22fa1a0a62622a960591b60448201526064015b60405180910390fd5b61048784848461074b565b336001600160a01b038516148015906104c557506001600160a01b038416600090815260016020908152604080832033845290915290205460001914155b15610541576001600160a01b03841660009081526001602090815260408083203384529091529020546104f89083610855565b6001600160a01b03851660008181526001602090815260408083203380855290835292819020859055519384529092600080516020610aee833981519152910160405180910390a35b5060019392505050565b3360009081526001602090815260408083206001600160a01b0386168452909152812054808311156105a0573360009081526001602090815260408083206001600160a01b03881684529091528120556105cf565b6105aa8184610855565b3360009081526001602090815260408083206001600160a01b03891684529091529020555b3360008181526001602090815260408083206001600160a01b03891680855290835292819020549051908152919291600080516020610aee833981519152910160405180910390a35060019392505050565b6103dd612710670de0b6b3a7640000610a9c565b6103dd64e8d4a51000670de0b6b3a7640000610a9c565b6103dd670de0b6b3a76400006064610a7d565b6106726002670de0b6b3a7640000610a9c565b6103dd906001610abe565b600061068a33848461074b565b50600192915050565b6103dd600a670de0b6b3a7640000610a9c565b60016106bb670de0b6b3a76400006002610a7d565b6103dd9190610ad6565b3360009081526001602090815260408083206001600160a01b03861684529091528120546106f390836108b2565b3360008181526001602090815260408083206001600160a01b03891680855290835292819020859055519384529092600080516020610aee83398151915291016103b9565b6103dd6002670de0b6b3a7640000610a9c565b6001600160a01b0383166000908152602081905260409020548111156107aa5760405162461bcd60e51b815260206004820152601460248201527311549497d25394d551919250d251539517d0905360621b6044820152606401610473565b6001600160a01b0383166000908152602081905260409020546107cd9082610855565b6001600160a01b0380851660009081526020819052604080822093909355908416815220546107fc90826108b2565b6001600160a01b038381166000818152602081815260409182902094909455518481529092918616917fddf252ad1be2c89b69c2b068fc378daa952ba7f163c4a11628f55a4df523b3ef910160405180910390a3505050565b6000806000610864858561090b565b9150915080156108aa5760405162461bcd60e51b81526020600482015260116024820152704552525f5355425f554e444552464c4f5760781b6044820152606401610473565b509392505050565b6000806108bf8385610abe565b9050838110156109045760405162461bcd60e51b815260206004820152601060248201526f4552525f4144445f4f564552464c4f5760801b6044820152606401610473565b9392505050565b60008082841061092a5761091f8385610ad6565b60009150915061093b565b6109348484610ad6565b6001915091505b9250929050565b600060208083528351808285015260005b8181101561096f57858101830151858201604001528201610953565b81811115610981576000604083870101525b50601f01601f1916929092016040019392505050565b80356001600160a01b03811681146109ae57600080fd5b919050565b600080604083850312156109c657600080fd5b6109cf83610997565b946020939093013593505050565b6000806000606084860312156109f257600080fd5b6109fb84610997565b9250610a0960208501610997565b9150604084013590509250925092565b600060208284031215610a2b57600080fd5b61090482610997565b60008060408385031215610a4757600080fd5b610a5083610997565b9150610a5e60208401610997565b90509250929050565b634e487b7160e01b600052601160045260246000fd5b6000816000190483118215151615610a9757610a97610a67565b500290565b600082610ab957634e487b7160e01b600052601260045260246000fd5b500490565b60008219821115610ad157610ad1610a67565b500190565b600082821015610ae857610ae8610a67565b50039056fe8c5be1e5ebec7d5bd14f71427d1e84f3dd0314c0f7b2291e5b200ac8c7c3b925a2646970667358221220824398989b84284ef5ea9472b66259e29cf3bf2f8f82cb2e402b4d08254ca9d664736f6c634300080c0033",
  "linkReferences": {},
  "deployedLinkReferences": {}
}