{
  "_format": "hh-sol-artifact-1",
  "contractName": "V3BPool",
  "sourceName": "contracts/v3/balancer/V3BPool.sol",
  "abi": [
    {
      "constant": false,
      "inputs": [
        {
          "name": "tokenOut",
          "type": "address"
        },
        {
          "name": "tokenAmountOut",
          "type": "uint256"
        },
        {
          "name": "maxPoolAmountIn",
          "type": "uint256"
        }
      ],
      "name": "exitswapExternAmountOut",
      "outputs": [
        {
          "name": "poolAmountIn",
          "type": "uint256"
        }
      ],
      "payable": false,
      "stateMutability": "nonpayable",
      "type": "function"
    },
    {
      "constant": true,
      "inputs": [],
      "name": "name",
      "outputs": [
        {
          "name": "",
          "type": "string"
        }
      ],
      "payable": false,
      "stateMutability": "view",
      "type": "function"
    },
    {
      "constant": false,
      "inputs": [
        {
          "name": "dst",
          "type": "address"
        },
        {
          "name": "amt",
          "type": "uint256"
        }
      ],
      "name": "approve",
      "outputs": [
        {
          "name": "",
          "type": "bool"
        }
      ],
      "payable": false,
      "stateMutability": "nonpayable",
      "type": "function"
    },
    {
      "constant": true,
      "inputs": [],
      "name": "MAX_TOTAL_WEIGHT",
      "outputs": [
        {
          "name": "",
          "type": "uint256"
        }
      ],
      "payable": false,
      "stateMutability": "view",
      "type": "function"
    },
    {
      "constant": true,
      "inputs": [
        {
          "name": "tokenIn",
          "type": "address"
        },
        {
          "name": "tokenOut",
          "type": "address"
        }
      ],
      "name": "getSpotPriceSansFee",
      "outputs": [
        {
          "name": "spotPrice",
          "type": "uint256"
        }
      ],
      "payable": false,
      "stateMutability": "view",
      "type": "function"
    },
    {
      "constant": true,
      "inputs": [
        {
          "name": "tokenIn",
          "type": "address"
        },
        {
          "name": "tokenOut",
          "type": "address"
        }
      ],
      "name": "getSpotPrice",
      "outputs": [
        {
          "name": "spotPrice",
          "type": "uint256"
        }
      ],
      "payable": false,
      "stateMutability": "view",
      "type": "function"
    },
    {
      "constant": true,
      "inputs": [],
      "name": "totalSupply",
      "outputs": [
        {
          "name": "",
          "type": "uint256"
        }
      ],
      "payable": false,
      "stateMutability": "view",
      "type": "function"
    },
    {
      "constant": true,
      "inputs": [],
      "name": "BPOW_PRECISION",
      "outputs": [
        {
          "name": "",
          "type": "uint256"
        }
      ],
      "payable": false,
      "stateMutability": "view",
      "type": "function"
    },
    {
      "constant": true,
      "inputs": [],
      "name": "MIN_WEIGHT",
      "outputs": [
        {
          "name": "",
          "type": "uint256"
        }
      ],
      "payable": false,
      "stateMutability": "view",
      "type": "function"
    },
    {
      "constant": false,
      "inputs": [
        {
          "name": "src",
          "type": "address"
        },
        {
          "name": "dst",
          "type": "address"
        },
        {
          "name": "amt",
          "type": "uint256"
        }
      ],
      "name": "transferFrom",
      "outputs": [
        {
          "name": "",
          "type": "bool"
        }
      ],
      "payable": false,
      "stateMutability": "nonpayable",
      "type": "function"
    },
    {
      "constant": true,
      "inputs": [
        {
          "name": "t",
          "type": "address"
        }
      ],
      "name": "isBound",
      "outputs": [
        {
          "name": "",
          "type": "bool"
        }
      ],
      "payable": false,
      "stateMutability": "view",
      "type": "function"
    },
    {
      "constant": true,
      "inputs": [],
      "name": "getController",
      "outputs": [
        {
          "name": "",
          "type": "address"
        }
      ],
      "payable": false,
      "stateMutability": "view",
      "type": "function"
    },
    {
      "constant": true,
      "inputs": [],
      "name": "decimals",
      "outputs": [
        {
          "name": "",
          "type": "uint8"
        }
      ],
      "payable": false,
      "stateMutability": "view",
      "type": "function"
    },
    {
      "constant": false,
      "inputs": [
        {
          "name": "swapFee",
          "type": "uint256"
        }
      ],
      "name": "setSwapFee",
      "outputs": [],
      "payable": false,
      "stateMutability": "nonpayable",
      "type": "function"
    },
    {
      "constant": true,
      "inputs": [],
      "name": "isInitialized",
      "outputs": [
        {
          "name": "",
          "type": "bool"
        }
      ],
      "payable": false,
      "stateMutability": "view",
      "type": "function"
    },
    {
      "constant": false,
      "inputs": [
        {
          "name": "token",
          "type": "address"
        },
        {
          "name": "balance",
          "type": "uint256"
        },
        {
          "name": "denorm",
          "type": "uint256"
        }
      ],
      "name": "rebind",
      "outputs": [],
      "payable": false,
      "stateMutability": "nonpayable",
      "type": "function"
    },
    {
      "constant": false,
      "inputs": [
        {
          "name": "tokenOut",
          "type": "address"
        },
        {
          "name": "poolAmountIn",
          "type": "uint256"
        },
        {
          "name": "minAmountOut",
          "type": "uint256"
        }
      ],
      "name": "exitswapPoolAmountIn",
      "outputs": [
        {
          "name": "tokenAmountOut",
          "type": "uint256"
        }
      ],
      "payable": false,
      "stateMutability": "nonpayable",
      "type": "function"
    },
    {
      "constant": false,
      "inputs": [
        {
          "name": "public_",
          "type": "bool"
        }
      ],
      "name": "setPublicSwap",
      "outputs": [],
      "payable": false,
      "stateMutability": "nonpayable",
      "type": "function"
    },
    {
      "constant": false,
      "inputs": [],
      "name": "finalize",
      "outputs": [],
      "payable": false,
      "stateMutability": "nonpayable",
      "type": "function"
    },
    {
      "constant": false,
      "inputs": [
        {
          "name": "poolAmountOut",
          "type": "uint256"
        },
        {
          "name": "maxAmountsIn",
          "type": "uint256[]"
        }
      ],
      "name": "joinPool",
      "outputs": [],
      "payable": false,
      "stateMutability": "nonpayable",
      "type": "function"
    },
    {
      "constant": false,
      "inputs": [
        {
          "name": "controller",
          "type": "address"
        },
        {
          "name": "factory",
          "type": "address"
        },
        {
          "name": "swapFee",
          "type": "uint256"
        },
        {
          "name": "publicSwap",
          "type": "bool"
        },
        {
          "name": "finalized",
          "type": "bool"
        }
      ],
      "name": "initialize",
      "outputs": [
        {
          "name": "",
          "type": "bool"
        }
      ],
      "payable": false,
      "stateMutability": "nonpayable",
      "type": "function"
    },
    {
      "constant": true,
      "inputs": [
        {
          "name": "tokenBalanceIn",
          "type": "uint256"
        },
        {
          "name": "tokenWeightIn",
          "type": "uint256"
        },
        {
          "name": "poolSupply",
          "type": "uint256"
        },
        {
          "name": "totalWeight",
          "type": "uint256"
        },
        {
          "name": "poolAmountOut",
          "type": "uint256"
        },
        {
          "name": "swapFee",
          "type": "uint256"
        }
      ],
      "name": "calcSingleInGivenPoolOut",
      "outputs": [
        {
          "name": "tokenAmountIn",
          "type": "uint256"
        }
      ],
      "payable": false,
      "stateMutability": "pure",
      "type": "function"
    },
    {
      "constant": false,
      "inputs": [
        {
          "name": "tokenIn",
          "type": "address"
        },
        {
          "name": "tokenAmountIn",
          "type": "uint256"
        },
        {
          "name": "minPoolAmountOut",
          "type": "uint256"
        }
      ],
      "name": "joinswapExternAmountIn",
      "outputs": [
        {
          "name": "poolAmountOut",
          "type": "uint256"
        }
      ],
      "payable": false,
      "stateMutability": "nonpayable",
      "type": "function"
    },
    {
      "constant": false,
      "inputs": [
        {
          "name": "dst",
          "type": "address"
        },
        {
          "name": "amt",
          "type": "uint256"
        }
      ],
      "name": "decreaseApproval",
      "outputs": [
        {
          "name": "",
          "type": "bool"
        }
      ],
      "payable": false,
      "stateMutability": "nonpayable",
      "type": "function"
    },
    {
      "constant": false,
      "inputs": [
        {
          "name": "tokenIn",
          "type": "address"
        },
        {
          "name": "poolAmountOut",
          "type": "uint256"
        },
        {
          "name": "maxAmountIn",
          "type": "uint256"
        }
      ],
      "name": "joinswapPoolAmountOut",
      "outputs": [
        {
          "name": "tokenAmountIn",
          "type": "uint256"
        }
      ],
      "payable": false,
      "stateMutability": "nonpayable",
      "type": "function"
    },
    {
      "constant": true,
      "inputs": [
        {
          "name": "whom",
          "type": "address"
        }
      ],
      "name": "balanceOf",
      "outputs": [
        {
          "name": "",
          "type": "uint256"
        }
      ],
      "payable": false,
      "stateMutability": "view",
      "type": "function"
    },
    {
      "constant": true,
      "inputs": [],
      "name": "MIN_FEE",
      "outputs": [
        {
          "name": "",
          "type": "uint256"
        }
      ],
      "payable": false,
      "stateMutability": "view",
      "type": "function"
    },
    {
      "constant": false,
      "inputs": [
        {
          "name": "tokenIn",
          "type": "address"
        },
        {
          "name": "maxAmountIn",
          "type": "uint256"
        },
        {
          "name": "tokenOut",
          "type": "address"
        },
        {
          "name": "tokenAmountOut",
          "type": "uint256"
        },
        {
          "name": "maxPrice",
          "type": "uint256"
        }
      ],
      "name": "swapExactAmountOut",
      "outputs": [
        {
          "name": "tokenAmountIn",
          "type": "uint256"
        },
        {
          "name": "spotPriceAfter",
          "type": "uint256"
        }
      ],
      "payable": false,
      "stateMutability": "nonpayable",
      "type": "function"
    },
    {
      "constant": false,
      "inputs": [
        {
          "name": "tokenIn",
          "type": "address"
        },
        {
          "name": "tokenAmountIn",
          "type": "uint256"
        },
        {
          "name": "tokenOut",
          "type": "address"
        },
        {
          "name": "minAmountOut",
          "type": "uint256"
        },
        {
          "name": "maxPrice",
          "type": "uint256"
        }
      ],
      "name": "swapExactAmountIn",
      "outputs": [
        {
          "name": "tokenAmountOut",
          "type": "uint256"
        },
        {
          "name": "spotPriceAfter",
          "type": "uint256"
        }
      ],
      "payable": false,
      "stateMutability": "nonpayable",
      "type": "function"
    },
    {
      "constant": true,
      "inputs": [
        {
          "name": "tokenBalanceOut",
          "type": "uint256"
        },
        {
          "name": "tokenWeightOut",
          "type": "uint256"
        },
        {
          "name": "poolSupply",
          "type": "uint256"
        },
        {
          "name": "totalWeight",
          "type": "uint256"
        },
        {
          "name": "tokenAmountOut",
          "type": "uint256"
        },
        {
          "name": "swapFee",
          "type": "uint256"
        }
      ],
      "name": "calcPoolInGivenSingleOut",
      "outputs": [
        {
          "name": "poolAmountIn",
          "type": "uint256"
        }
      ],
      "payable": false,
      "stateMutability": "pure",
      "type": "function"
    },
    {
      "constant": true,
      "inputs": [
        {
          "name": "tokenBalanceIn",
          "type": "uint256"
        },
        {
          "name": "tokenWeightIn",
          "type": "uint256"
        },
        {
          "name": "poolSupply",
          "type": "uint256"
        },
        {
          "name": "totalWeight",
          "type": "uint256"
        },
        {
          "name": "tokenAmountIn",
          "type": "uint256"
        },
        {
          "name": "swapFee",
          "type": "uint256"
        }
      ],
      "name": "calcPoolOutGivenSingleIn",
      "outputs": [
        {
          "name": "poolAmountOut",
          "type": "uint256"
        }
      ],
      "payable": false,
      "stateMutability": "pure",
      "type": "function"
    },
    {
      "constant": true,
      "inputs": [],
      "name": "MIN_BALANCE",
      "outputs": [
        {
          "name": "",
          "type": "uint256"
        }
      ],
      "payable": false,
      "stateMutability": "view",
      "type": "function"
    },
    {
      "constant": true,
      "inputs": [
        {
          "name": "tokenBalanceOut",
          "type": "uint256"
        },
        {
          "name": "tokenWeightOut",
          "type": "uint256"
        },
        {
          "name": "poolSupply",
          "type": "uint256"
        },
        {
          "name": "totalWeight",
          "type": "uint256"
        },
        {
          "name": "poolAmountIn",
          "type": "uint256"
        },
        {
          "name": "swapFee",
          "type": "uint256"
        }
      ],
      "name": "calcSingleOutGivenPoolIn",
      "outputs": [
        {
          "name": "tokenAmountOut",
          "type": "uint256"
        }
      ],
      "payable": false,
      "stateMutability": "pure",
      "type": "function"
    },
    {
      "constant": false,
      "inputs": [
        {
          "name": "token",
          "type": "address"
        }
      ],
      "name": "gulp",
      "outputs": [],
      "payable": false,
      "stateMutability": "nonpayable",
      "type": "function"
    },
    {
      "constant": true,
      "inputs": [],
      "name": "isFinalized",
      "outputs": [
        {
          "name": "",
          "type": "bool"
        }
      ],
      "payable": false,
      "stateMutability": "view",
      "type": "function"
    },
    {
      "constant": false,
      "inputs": [
        {
          "name": "manager",
          "type": "address"
        }
      ],
      "name": "setController",
      "outputs": [],
      "payable": false,
      "stateMutability": "nonpayable",
      "type": "function"
    },
    {
      "constant": true,
      "inputs": [],
      "name": "getTotalDenormalizedWeight",
      "outputs": [
        {
          "name": "",
          "type": "uint256"
        }
      ],
      "payable": false,
      "stateMutability": "view",
      "type": "function"
    },
    {
      "constant": true,
      "inputs": [],
      "name": "INIT_POOL_SUPPLY",
      "outputs": [
        {
          "name": "",
          "type": "uint256"
        }
      ],
      "payable": false,
      "stateMutability": "view",
      "type": "function"
    },
    {
      "constant": true,
      "inputs": [
        {
          "name": "token",
          "type": "address"
        }
      ],
      "name": "getDenormalizedWeight",
      "outputs": [
        {
          "name": "",
          "type": "uint256"
        }
      ],
      "payable": false,
      "stateMutability": "view",
      "type": "function"
    },
    {
      "constant": true,
      "inputs": [],
      "name": "symbol",
      "outputs": [
        {
          "name": "",
          "type": "string"
        }
      ],
      "payable": false,
      "stateMutability": "view",
      "type": "function"
    },
    {
      "constant": true,
      "inputs": [],
      "name": "MAX_OUT_RATIO",
      "outputs": [
        {
          "name": "",
          "type": "uint256"
        }
      ],
      "payable": false,
      "stateMutability": "view",
      "type": "function"
    },
    {
      "constant": true,
      "inputs": [
        {
          "name": "tokenBalanceIn",
          "type": "uint256"
        },
        {
          "name": "tokenWeightIn",
          "type": "uint256"
        },
        {
          "name": "tokenBalanceOut",
          "type": "uint256"
        },
        {
          "name": "tokenWeightOut",
          "type": "uint256"
        },
        {
          "name": "swapFee",
          "type": "uint256"
        }
      ],
      "name": "calcSpotPrice",
      "outputs": [
        {
          "name": "spotPrice",
          "type": "uint256"
        }
      ],
      "payable": false,
      "stateMutability": "pure",
      "type": "function"
    },
    {
      "constant": false,
      "inputs": [
        {
          "name": "dst",
          "type": "address"
        },
        {
          "name": "amt",
          "type": "uint256"
        }
      ],
      "name": "transfer",
      "outputs": [
        {
          "name": "",
          "type": "bool"
        }
      ],
      "payable": false,
      "stateMutability": "nonpayable",
      "type": "function"
    },
    {
      "constant": false,
      "inputs": [
        {
          "name": "poolAmountIn",
          "type": "uint256"
        },
        {
          "name": "minAmountsOut",
          "type": "uint256[]"
        }
      ],
      "name": "exitPool",
      "outputs": [],
      "payable": false,
      "stateMutability": "nonpayable",
      "type": "function"
    },
    {
      "constant": true,
      "inputs": [],
      "name": "MAX_BOUND_TOKENS",
      "outputs": [
        {
          "name": "",
          "type": "uint256"
        }
      ],
      "payable": false,
      "stateMutability": "view",
      "type": "function"
    },
    {
      "constant": true,
      "inputs": [],
      "name": "MIN_BOUND_TOKENS",
      "outputs": [
        {
          "name": "",
          "type": "uint256"
        }
      ],
      "payable": false,
      "stateMutability": "view",
      "type": "function"
    },
    {
      "constant": true,
      "inputs": [],
      "name": "MIN_BPOW_BASE",
      "outputs": [
        {
          "name": "",
          "type": "uint256"
        }
      ],
      "payable": false,
      "stateMutability": "view",
      "type": "function"
    },
    {
      "constant": true,
      "inputs": [
        {
          "name": "tokenBalanceIn",
          "type": "uint256"
        },
        {
          "name": "tokenWeightIn",
          "type": "uint256"
        },
        {
          "name": "tokenBalanceOut",
          "type": "uint256"
        },
        {
          "name": "tokenWeightOut",
          "type": "uint256"
        },
        {
          "name": "tokenAmountIn",
          "type": "uint256"
        },
        {
          "name": "swapFee",
          "type": "uint256"
        }
      ],
      "name": "calcOutGivenIn",
      "outputs": [
        {
          "name": "tokenAmountOut",
          "type": "uint256"
        }
      ],
      "payable": false,
      "stateMutability": "pure",
      "type": "function"
    },
    {
      "constant": true,
      "inputs": [],
      "name": "MAX_FEE",
      "outputs": [
        {
          "name": "",
          "type": "uint256"
        }
      ],
      "payable": false,
      "stateMutability": "view",
      "type": "function"
    },
    {
      "constant": true,
      "inputs": [],
      "name": "MAX_BPOW_BASE",
      "outputs": [
        {
          "name": "",
          "type": "uint256"
        }
      ],
      "payable": false,
      "stateMutability": "view",
      "type": "function"
    },
    {
      "constant": true,
      "inputs": [],
      "name": "getFinalTokens",
      "outputs": [
        {
          "name": "tokens",
          "type": "address[]"
        }
      ],
      "payable": false,
      "stateMutability": "view",
      "type": "function"
    },
    {
      "constant": true,
      "inputs": [],
      "name": "BONE",
      "outputs": [
        {
          "name": "",
          "type": "uint256"
        }
      ],
      "payable": false,
      "stateMutability": "view",
      "type": "function"
    },
    {
      "constant": true,
      "inputs": [],
      "name": "EXIT_FEE",
      "outputs": [
        {
          "name": "",
          "type": "uint256"
        }
      ],
      "payable": false,
      "stateMutability": "view",
      "type": "function"
    },
    {
      "constant": true,
      "inputs": [],
      "name": "getCurrentTokens",
      "outputs": [
        {
          "name": "tokens",
          "type": "address[]"
        }
      ],
      "payable": false,
      "stateMutability": "view",
      "type": "function"
    },
    {
      "constant": true,
      "inputs": [],
      "name": "getNumTokens",
      "outputs": [
        {
          "name": "",
          "type": "uint256"
        }
      ],
      "payable": false,
      "stateMutability": "view",
      "type": "function"
    },
    {
      "constant": false,
      "inputs": [
        {
          "name": "token",
          "type": "address"
        }
      ],
      "name": "unbind",
      "outputs": [],
      "payable": false,
      "stateMutability": "nonpayable",
      "type": "function"
    },
    {
      "constant": false,
      "inputs": [
        {
          "name": "dataTokenAaddress",
          "type": "address"
        },
        {
          "name": "dataTokenAmount",
          "type": "uint256"
        },
        {
          "name": "dataTokenWeight",
          "type": "uint256"
        },
        {
          "name": "baseTokenAddress",
          "type": "address"
        },
        {
          "name": "baseTokenAmount",
          "type": "uint256"
        },
        {
          "name": "baseTokenWeight",
          "type": "uint256"
        },
        {
          "name": "swapFee",
          "type": "uint256"
        }
      ],
      "name": "setup",
      "outputs": [],
      "payable": false,
      "stateMutability": "nonpayable",
      "type": "function"
    },
    {
      "constant": true,
      "inputs": [],
      "name": "getSwapFee",
      "outputs": [
        {
          "name": "",
          "type": "uint256"
        }
      ],
      "payable": false,
      "stateMutability": "view",
      "type": "function"
    },
    {
      "constant": false,
      "inputs": [
        {
          "name": "dst",
          "type": "address"
        },
        {
          "name": "amt",
          "type": "uint256"
        }
      ],
      "name": "increaseApproval",
      "outputs": [
        {
          "name": "",
          "type": "bool"
        }
      ],
      "payable": false,
      "stateMutability": "nonpayable",
      "type": "function"
    },
    {
      "constant": true,
      "inputs": [
        {
          "name": "src",
          "type": "address"
        },
        {
          "name": "dst",
          "type": "address"
        }
      ],
      "name": "allowance",
      "outputs": [
        {
          "name": "",
          "type": "uint256"
        }
      ],
      "payable": false,
      "stateMutability": "view",
      "type": "function"
    },
    {
      "constant": true,
      "inputs": [],
      "name": "MAX_WEIGHT",
      "outputs": [
        {
          "name": "",
          "type": "uint256"
        }
      ],
      "payable": false,
      "stateMutability": "view",
      "type": "function"
    },
    {
      "constant": false,
      "inputs": [
        {
          "name": "token",
          "type": "address"
        },
        {
          "name": "balance",
          "type": "uint256"
        },
        {
          "name": "denorm",
          "type": "uint256"
        }
      ],
      "name": "bind",
      "outputs": [],
      "payable": false,
      "stateMutability": "nonpayable",
      "type": "function"
    },
    {
      "constant": true,
      "inputs": [],
      "name": "MAX_IN_RATIO",
      "outputs": [
        {
          "name": "",
          "type": "uint256"
        }
      ],
      "payable": false,
      "stateMutability": "view",
      "type": "function"
    },
    {
      "constant": true,
      "inputs": [
        {
          "name": "token",
          "type": "address"
        }
      ],
      "name": "getNormalizedWeight",
      "outputs": [
        {
          "name": "",
          "type": "uint256"
        }
      ],
      "payable": false,
      "stateMutability": "view",
      "type": "function"
    },
    {
      "constant": true,
      "inputs": [
        {
          "name": "token",
          "type": "address"
        }
      ],
      "name": "getBalance",
      "outputs": [
        {
          "name": "",
          "type": "uint256"
        }
      ],
      "payable": false,
      "stateMutability": "view",
      "type": "function"
    },
    {
      "constant": true,
      "inputs": [
        {
          "name": "tokenBalanceIn",
          "type": "uint256"
        },
        {
          "name": "tokenWeightIn",
          "type": "uint256"
        },
        {
          "name": "tokenBalanceOut",
          "type": "uint256"
        },
        {
          "name": "tokenWeightOut",
          "type": "uint256"
        },
        {
          "name": "tokenAmountOut",
          "type": "uint256"
        },
        {
          "name": "swapFee",
          "type": "uint256"
        }
      ],
      "name": "calcInGivenOut",
      "outputs": [
        {
          "name": "tokenAmountIn",
          "type": "uint256"
        }
      ],
      "payable": false,
      "stateMutability": "pure",
      "type": "function"
    },
    {
      "constant": true,
      "inputs": [],
      "name": "isPublicSwap",
      "outputs": [
        {
          "name": "",
          "type": "bool"
        }
      ],
      "payable": false,
      "stateMutability": "view",
      "type": "function"
    },
    {
      "inputs": [],
      "payable": false,
      "stateMutability": "nonpayable",
      "type": "constructor"
    },
    {
      "anonymous": false,
      "inputs": [
        {
          "indexed": true,
          "name": "caller",
          "type": "address"
        },
        {
          "indexed": true,
          "name": "tokenIn",
          "type": "address"
        },
        {
          "indexed": true,
          "name": "tokenOut",
          "type": "address"
        },
        {
          "indexed": false,
          "name": "tokenAmountIn",
          "type": "uint256"
        },
        {
          "indexed": false,
          "name": "tokenAmountOut",
          "type": "uint256"
        }
      ],
      "name": "LOG_SWAP",
      "type": "event"
    },
    {
      "anonymous": false,
      "inputs": [
        {
          "indexed": true,
          "name": "caller",
          "type": "address"
        },
        {
          "indexed": true,
          "name": "tokenIn",
          "type": "address"
        },
        {
          "indexed": false,
          "name": "tokenAmountIn",
          "type": "uint256"
        }
      ],
      "name": "LOG_JOIN",
      "type": "event"
    },
    {
      "anonymous": false,
      "inputs": [
        {
          "indexed": true,
          "name": "caller",
          "type": "address"
        },
        {
          "indexed": true,
          "name": "tokenOut",
          "type": "address"
        },
        {
          "indexed": false,
          "name": "tokenAmountOut",
          "type": "uint256"
        }
      ],
      "name": "LOG_EXIT",
      "type": "event"
    },
    {
      "anonymous": true,
      "inputs": [
        {
          "indexed": true,
          "name": "sig",
          "type": "bytes4"
        },
        {
          "indexed": true,
          "name": "caller",
          "type": "address"
        },
        {
          "indexed": false,
          "name": "data",
          "type": "bytes"
        }
      ],
      "name": "LOG_CALL",
      "type": "event"
    },
    {
      "anonymous": false,
      "inputs": [
        {
          "indexed": true,
          "name": "from",
          "type": "address"
        },
        {
          "indexed": true,
          "name": "to",
          "type": "address"
        },
        {
          "indexed": false,
          "name": "value",
          "type": "uint256"
        }
      ],
      "name": "Transfer",
      "type": "event"
    },
    {
      "anonymous": false,
      "inputs": [
        {
          "indexed": true,
          "name": "owner",
          "type": "address"
        },
        {
          "indexed": true,
          "name": "spender",
          "type": "address"
        },
        {
          "indexed": false,
          "name": "value",
          "type": "uint256"
        }
      ],
      "name": "Approval",
      "type": "event"
    }
  ],
  "bytecode": "0x60c0604052601360808190527f42616c616e63657220506f6f6c20546f6b656e0000000000000000000000000060a09081526200004091600391906200016e565b506040805180820190915260038082527f4250540000000000000000000000000000000000000000000000000000000000602090920191825262000087916004916200016e565b506005805460ff19908116601217909155600c80549091169055348015620000ae57600080fd5b50620000d23380620f4240670de0b6b3a764000004600080620000d960201b60201c565b5062000213565b60068054600580546001600160a01b03978816620100000262010000600160b01b03199091161790556007949094559115157401000000000000000000000000000000000000000002600160a01b60ff0219959094166001600160a01b03199093169290921793909316919091179091556008805491151560ff19928316179055600c80549091166001179081905560ff1690565b828054600181600116156101000203166002900490600052602060002090601f016020900481019282601f10620001b157805160ff1916838001178555620001e1565b82800160010185558215620001e1579182015b82811115620001e1578251825591602001919060010190620001c4565b50620001ef929150620001f3565b5090565b6200021091905b80821115620001ef5760008155600101620001fa565b90565b615cf180620002236000396000f3fe608060405234801561001057600080fd5b50600436106103f15760003560e01c80638c28cbe811610215578063be3bbd2e11610125578063d73dd623116100b8578063ec09302111610087578063ec09302114610d18578063f1b8a9b714610d20578063f8b2cb4f14610d46578063f8d6aed414610d6c578063fde924f714610da7576103f1565b8063d73dd62314610c8c578063dd62ed3e14610cb8578063e4a28a52146104f7578063e4e1e53814610ce6576103f1565b8063cd2ed8fb116100f4578063cd2ed8fb14610c08578063cf5e7bd314610c10578063d1d7bc9114610c36578063d4cadf6814610c84576103f1565b8063be3bbd2e14610ba0578063c36596a61461056b578063c6580d1214610bf8578063cc77828d14610c00576103f1565b8063a221ee49116101a8578063b7b800a411610177578063b7b800a414610b45578063ba019dab14610b4d578063ba9530a614610b55578063bc063e1a14610b90578063bc694ea214610b98576103f1565b8063a221ee4914610a65578063a9059cbb14610a9a578063b02f0b7314610ac6578063b0e0d13614610b3d576103f1565b80639381cd2b116101e45780639381cd2b14610a27578063948d8ce614610a2f57806395d89b4114610a55578063992e2a9214610a5d576103f1565b80638c28cbe8146109cb5780638d4e4083146109f157806392eefe9b146109f9578063936c347714610a1f576103f1565b806346ab38f1116103105780636d06dfa0116102a35780638201aa3f116102725780638201aa3f146108d257806382f652ad146109125780638656b6531461094d578063867378c5146109885780638929801214610990576103f1565b80636d06dfa01461081957806370a082311461084b57806376c7a3c7146108715780637c5e9ea414610879576103f1565b8063506de974116102df578063506de9741461073a5780635c1bbaf7146107805780635db34277146107bb57806366188463146107ed576103f1565b806346ab38f11461066a57806349b595521461069c5780634bb278f3146106bb5780634f69c0d4146106c3576103f1565b8063218b538211610388578063313ce56711610357578063313ce567146105f357806334e1990714610611578063392e53cd146106305780633fdddaa214610638576103f1565b8063218b53821461056b57806323b872dd146105735780632f37b624146105a95780633018205f146105cf576103f1565b80631446a7ff116103c45780631446a7ff146104ff57806315e84af91461052d57806318160ddd1461055b578063189d00ca14610563576103f1565b806302c96748146103f657806306fdde031461043a578063095ea7b3146104b757806309a3bbe4146104f7575b600080fd5b6104286004803603606081101561040c57600080fd5b506001600160a01b038135169060208101359060400135610daf565b60408051918252519081900360200190f35b61044261111b565b6040805160208082528351818301528351919283929083019185019080838360005b8381101561047c578181015183820152602001610464565b50505050905090810190601f1680156104a95780820380516001836020036101000a031916815260200191505b509250505060405180910390f35b6104e3600480360360408110156104cd57600080fd5b506001600160a01b0381351690602001356111b1565b604080519115158252519081900360200190f35b610428611206565b6104286004803603604081101561051557600080fd5b506001600160a01b0381358116916020013516611213565b6104286004803603604081101561054357600080fd5b506001600160a01b038135811691602001351661136d565b6104286114be565b6104286114c4565b6104286114d8565b6104e36004803603606081101561058957600080fd5b506001600160a01b038135811691602081013590911690604001356114e4565b6104e3600480360360208110156105bf57600080fd5b50356001600160a01b0316611649565b6105d7611667565b604080516001600160a01b039092168252519081900360200190f35b6105fb6116c8565b6040805160ff9092168252519081900360200190f35b61062e6004803603602081101561062757600080fd5b50356116d1565b005b6104e36118df565b61062e6004803603606081101561064e57600080fd5b506001600160a01b0381351690602081013590604001356118e8565b6104286004803603606081101561068057600080fd5b506001600160a01b038135169060208101359060400135611d3c565b61062e600480360360208110156106b257600080fd5b50351515612048565b61062e6121d3565b61062e600480360360408110156106d957600080fd5b813591908101906040810160208201356401000000008111156106fb57600080fd5b82018360208201111561070d57600080fd5b8035906020019184602083028401116401000000008311171561072f57600080fd5b5090925090506123e4565b6104e3600480360360a081101561075057600080fd5b506001600160a01b03813581169160208101359091169060408101359060608101351515906080013515156126cf565b610428600480360360c081101561079657600080fd5b5080359060208101359060408101359060608101359060808101359060a0013561289f565b610428600480360360608110156107d157600080fd5b506001600160a01b038135169060208101359060400135612957565b6104e36004803603604081101561080357600080fd5b506001600160a01b038135169060200135612c35565b6104286004803603606081101561082f57600080fd5b506001600160a01b038135169060208101359060400135612d0d565b6104286004803603602081101561086157600080fd5b50356001600160a01b0316613018565b610428613033565b6108b9600480360360a081101561088f57600080fd5b506001600160a01b0381358116916020810135916040820135169060608101359060800135613045565b6040805192835260208301919091528051918290030190f35b6108b9600480360360a08110156108e857600080fd5b506001600160a01b0381358116916020810135916040820135169060608101359060800135613537565b610428600480360360c081101561092857600080fd5b5080359060208101359060408101359060608101359060808101359060a00135613a10565b610428600480360360c081101561096357600080fd5b5080359060208101359060408101359060608101359060808101359060a00135613acf565b610428613b70565b610428600480360360c08110156109a657600080fd5b5080359060208101359060408101359060608101359060808101359060a00135613b84565b61062e600480360360208110156109e157600080fd5b50356001600160a01b0316613c34565b6104e3613def565b61062e60048036036020811015610a0f57600080fd5b50356001600160a01b0316613df8565b610428613f91565b610428613fe9565b61042860048036036020811015610a4557600080fd5b50356001600160a01b0316613ff6565b6104426140c4565b610428614125565b610428600480360360a0811015610a7b57600080fd5b5080359060208101359060408101359060608101359060800135614131565b6104e360048036036040811015610ab057600080fd5b506001600160a01b038135169060200135614196565b61062e60048036036040811015610adc57600080fd5b81359190810190604081016020820135640100000000811115610afe57600080fd5b820183602082011115610b1057600080fd5b80359060200191846020830284011164010000000083111715610b3257600080fd5b5090925090506141ac565b6104286144f7565b6104286144fc565b610428614501565b610428600480360360c0811015610b6b57600080fd5b5080359060208101359060408101359060608101359060808101359060a00135614506565b610428614587565b610428614597565b610ba86145a3565b60408051602080825283518183015283519192839290830191858101910280838360005b83811015610be4578181015183820152602001610bcc565b505050509050019250505060405180910390f35b61042861469b565b610ba86146a0565b6104286146f1565b61062e60048036036020811015610c2657600080fd5b50356001600160a01b03166146f7565b61062e600480360360e0811015610c4c57600080fd5b506001600160a01b03813581169160208101359160408201359160608101359091169060808101359060a08101359060c00135614a7f565b610428614c28565b6104e360048036036040811015610ca257600080fd5b506001600160a01b038135169060200135614c80565b61042860048036036040811015610cce57600080fd5b506001600160a01b0381358116916020013516614d01565b61062e60048036036060811015610cfc57600080fd5b506001600160a01b038135169060208101359060400135614d2c565b610428614fab565b61042860048036036020811015610d3657600080fd5b50356001600160a01b0316614fbb565b61042860048036036020811015610d5c57600080fd5b50356001600160a01b031661509b565b610428600480360360c0811015610d8257600080fd5b5080359060208101359060408101359060608101359060808101359060a00135615169565b6104e36151ec565b6000336001600160a01b03166000356001600160e01b0319166001600160e01b03191660003660405180806020018281038252848482818152602001925080828437600083820152604051601f909101601f19169092018290039550909350505050a2600554610100900460ff1615610e605760408051600160e51b62461bcd02815260206004820152600b6024820152600080516020615c06833981519152604482015290519081900360640190fd5b6005805461ff00191661010017905560085460ff16610eb75760408051600160e51b62461bcd0281526020600482015260116024820152600080516020615be6833981519152604482015290519081900360640190fd5b6001600160a01b0384166000908152600a602052604090205460ff16610f155760408051600160e51b62461bcd02815260206004820152600d6024820152600080516020615c66833981519152604482015290519081900360640190fd5b6001600160a01b0384166000908152600a60205260409020600390810154610f4a91670de0b6b3a76400005b046001016151fc565b831115610f985760408051600160e51b62461bcd0281526020600482015260116024820152600160781b704552525f4d41585f4f55545f524154494f02604482015290519081900360640190fd5b6001600160a01b0384166000908152600a6020526040902060038101546002808301549054600b54600754610fd294939291908990613a10565b9150816110175760408051600160e51b62461bcd02815260206004820152600f6024820152600080516020615ca6833981519152604482015290519081900360640190fd5b828211156110615760408051600160e51b62461bcd02815260206004820152600c6024820152600160a11b6b22a9292fa624a6a4aa2fa4a702604482015290519081900360640190fd5b61106f8160030154856152d1565b6003820155600061108083826151fc565b6040805187815290519192506001600160a01b0388169133917fe74c91552b64c2e2e7bd255639e004e693bd3e1d01cc33e65610b86afcc1ffed919081900360200190a36110ce3384615342565b6110e06110db84836152d1565b615350565b6005546110fc906201000090046001600160a01b03168261535c565b611107863387615366565b50506005805461ff00191690559392505050565b60038054604080516020601f60026000196101006001881615020190951694909404938401819004810282018101909252828152606093909290918301828280156111a75780601f1061117c576101008083540402835291602001916111a7565b820191906000526020600020905b81548152906001019060200180831161118a57829003601f168201915b5050505050905090565b3360008181526001602090815260408083206001600160a01b03871680855290835281842086905581518681529151939490939092600080516020615c86833981519152928290030190a35060015b92915050565b6802b5e3af16b188000081565b600554600090610100900460ff16156112645760408051600160e51b62461bcd02815260206004820152600b6024820152600080516020615c06833981519152604482015290519081900360640190fd5b6001600160a01b0383166000908152600a602052604090205460ff166112c25760408051600160e51b62461bcd02815260206004820152600d6024820152600080516020615c66833981519152604482015290519081900360640190fd5b6001600160a01b0382166000908152600a602052604090205460ff166113205760408051600160e51b62461bcd02815260206004820152600d6024820152600080516020615c66833981519152604482015290519081900360640190fd5b6001600160a01b038084166000908152600a602052604080822092851682528120600380840154600280860154928401549084015493946113649492939290614131565b95945050505050565b600554600090610100900460ff16156113be5760408051600160e51b62461bcd02815260206004820152600b6024820152600080516020615c06833981519152604482015290519081900360640190fd5b6001600160a01b0383166000908152600a602052604090205460ff1661141c5760408051600160e51b62461bcd02815260206004820152600d6024820152600080516020615c66833981519152604482015290519081900360640190fd5b6001600160a01b0382166000908152600a602052604090205460ff1661147a5760408051600160e51b62461bcd02815260206004820152600d6024820152600080516020615c66833981519152604482015290519081900360640190fd5b6001600160a01b038084166000908152600a602052604080822092851682529020600380830154600280850154928401549084015460075461136494929190614131565b60025490565b6402540be400670de0b6b3a76400005b0481565b670de0b6b3a764000081565b6000336001600160a01b038516148061152057506001600160a01b03841660009081526001602090815260408083203384529091529020548211155b6115745760408051600160e51b62461bcd02815260206004820152601560248201527f4552525f42544f4b454e5f4241445f43414c4c45520000000000000000000000604482015290519081900360640190fd5b61157f848484615445565b336001600160a01b038516148015906115bd57506001600160a01b038416600090815260016020908152604080832033845290915290205460001914155b1561163f576001600160a01b03841660009081526001602090815260408083203384529091529020546115f090836152d1565b6001600160a01b0385811660009081526001602090815260408083203380855290835292819020859055805194855251928716939192600080516020615c868339815191529281900390910190a35b5060019392505050565b6001600160a01b03166000908152600a602052604090205460ff1690565b600554600090610100900460ff16156116b85760408051600160e51b62461bcd02815260206004820152600b6024820152600080516020615c06833981519152604482015290519081900360640190fd5b506006546001600160a01b031690565b60055460ff1690565b336001600160a01b03166000356001600160e01b0319166001600160e01b03191660003660405180806020018281038252848482818152602001925080828437600083820152604051601f909101601f19169092018290039550909350505050a2600554610100900460ff16156117805760408051600160e51b62461bcd02815260206004820152600b6024820152600080516020615c06833981519152604482015290519081900360640190fd5b6005805461ff00191661010017905560085460ff16156117e05760408051600160e51b62461bcd0281526020600482015260106024820152600160821b6f11549497d254d7d1925390531256915102604482015290519081900360640190fd5b6006546001600160a01b031633146118305760408051600160e51b62461bcd0281526020600482015260126024820152600080516020615c46833981519152604482015290519081900360640190fd5b64e8d4a5100081101561187e5760408051600160e51b62461bcd02815260206004820152600b6024820152600160a81b6a4552525f4d494e5f46454502604482015290519081900360640190fd5b67016345785d8a00008111156118cf5760408051600160e51b62461bcd02815260206004820152600b6024820152600160a81b6a4552525f4d41585f46454502604482015290519081900360640190fd5b6007556005805461ff0019169055565b600c5460ff1690565b336001600160a01b03166000356001600160e01b0319166001600160e01b03191660003660405180806020018281038252848482818152602001925080828437600083820152604051601f909101601f19169092018290039550909350505050a2600554610100900460ff16156119975760408051600160e51b62461bcd02815260206004820152600b6024820152600080516020615c06833981519152604482015290519081900360640190fd5b6005805461ff001916610100179055600654336001600160a01b03909116146119f85760408051600160e51b62461bcd0281526020600482015260126024820152600080516020615c46833981519152604482015290519081900360640190fd5b6001600160a01b0383166000908152600a602052604090205460ff16611a565760408051600160e51b62461bcd02815260206004820152600d6024820152600080516020615c66833981519152604482015290519081900360640190fd5b60085460ff1615611aa75760408051600160e51b62461bcd0281526020600482015260106024820152600160821b6f11549497d254d7d1925390531256915102604482015290519081900360640190fd5b670de0b6b3a7640000811015611b075760408051600160e51b62461bcd02815260206004820152600e60248201527f4552525f4d494e5f574549474854000000000000000000000000000000000000604482015290519081900360640190fd5b6802b5e3af16b1880000811115611b685760408051600160e51b62461bcd02815260206004820152600e60248201527f4552525f4d41585f574549474854000000000000000000000000000000000000604482015290519081900360640190fd5b620f4240821015611bc35760408051600160e51b62461bcd02815260206004820152600f60248201527f4552525f4d494e5f42414c414e43450000000000000000000000000000000000604482015290519081900360640190fd5b6001600160a01b0383166000908152600a602052604090206002015480821115611c6657611bfc600b54611bf784846152d1565b615561565b600b8190556802b5e3af16b18800001015611c615760408051600160e51b62461bcd02815260206004820152601460248201527f4552525f4d41585f544f54414c5f574549474854000000000000000000000000604482015290519081900360640190fd5b611c87565b80821015611c8757611c83600b54611c7e83856152d1565b6152d1565b600b555b6001600160a01b0384166000908152600a602052604090206002810183905560030180549084905580841115611cd057611ccb8533611cc687856152d1565b6155be565b611d2a565b80841015611d2a576000611ce482866152d1565b90506000611cf38260006151fc565b9050611d098733611d0485856152d1565b615366565b600554611d279088906201000090046001600160a01b031683615366565b50505b50506005805461ff0019169055505050565b6000336001600160a01b03166000356001600160e01b0319166001600160e01b03191660003660405180806020018281038252848482818152602001925080828437600083820152604051601f909101601f19169092018290039550909350505050a2600554610100900460ff1615611ded5760408051600160e51b62461bcd02815260206004820152600b6024820152600080516020615c06833981519152604482015290519081900360640190fd5b6005805461ff00191661010017905560085460ff16611e445760408051600160e51b62461bcd0281526020600482015260116024820152600080516020615be6833981519152604482015290519081900360640190fd5b6001600160a01b0384166000908152600a602052604090205460ff16611ea25760408051600160e51b62461bcd02815260206004820152600d6024820152600080516020615c66833981519152604482015290519081900360640190fd5b6001600160a01b0384166000908152600a6020526040902060038101546002808301549054600b54600754611edc94939291908990613b84565b915082821015611f295760408051600160e51b62461bcd02815260206004820152600d60248201526001609a1b6c11549497d31253525517d3d55502604482015290519081900360640190fd5b6001600160a01b0385166000908152600a60205260409020600390810154611f5991670de0b6b3a7640000610f41565b821115611fa75760408051600160e51b62461bcd0281526020600482015260116024820152600160781b704552525f4d41585f4f55545f524154494f02604482015290519081900360640190fd5b611fb58160030154836152d1565b60038201556000611fc685826151fc565b6040805185815290519192506001600160a01b0388169133917fe74c91552b64c2e2e7bd255639e004e693bd3e1d01cc33e65610b86afcc1ffed919081900360200190a36120143386615342565b6120216110db86836152d1565b60055461203d906201000090046001600160a01b03168261535c565b611107863385615366565b336001600160a01b03166000356001600160e01b0319166001600160e01b03191660003660405180806020018281038252848482818152602001925080828437600083820152604051601f909101601f19169092018290039550909350505050a2600554610100900460ff16156120f75760408051600160e51b62461bcd02815260206004820152600b6024820152600080516020615c06833981519152604482015290519081900360640190fd5b6005805461ff00191661010017905560085460ff16156121575760408051600160e51b62461bcd0281526020600482015260106024820152600160821b6f11549497d254d7d1925390531256915102604482015290519081900360640190fd5b6006546001600160a01b031633146121a75760408051600160e51b62461bcd0281526020600482015260126024820152600080516020615c46833981519152604482015290519081900360640190fd5b60068054911515600160a01b02600160a01b60ff02199092169190911790556005805461ff0019169055565b336001600160a01b03166000356001600160e01b0319166001600160e01b03191660003660405180806020018281038252848482818152602001925080828437600083820152604051601f909101601f19169092018290039550909350505050a2600554610100900460ff16156122825760408051600160e51b62461bcd02815260206004820152600b6024820152600080516020615c06833981519152604482015290519081900360640190fd5b6005805461ff001916610100179055600654336001600160a01b03909116146122e35760408051600160e51b62461bcd0281526020600482015260126024820152600080516020615c46833981519152604482015290519081900360640190fd5b60085460ff16156123345760408051600160e51b62461bcd0281526020600482015260106024820152600160821b6f11549497d254d7d1925390531256915102604482015290519081900360640190fd5b6009546002111561238f5760408051600160e51b62461bcd02815260206004820152600e60248201527f4552525f4d494e5f544f4b454e53000000000000000000000000000000000000604482015290519081900360640190fd5b6008805460ff1916600117905560068054600160a01b60ff021916600160a01b1790556123c468056bc75e2d6310000061561a565b6123d73368056bc75e2d6310000061535c565b6005805461ff0019169055565b336001600160a01b03166000356001600160e01b0319166001600160e01b03191660003660405180806020018281038252848482818152602001925080828437600083820152604051601f909101601f19169092018290039550909350505050a2600554610100900460ff16156124935760408051600160e51b62461bcd02815260206004820152600b6024820152600080516020615c06833981519152604482015290519081900360640190fd5b6005805461ff00191661010017905560085460ff166124ea5760408051600160e51b62461bcd0281526020600482015260116024820152600080516020615be6833981519152604482015290519081900360640190fd5b60006124f46114be565b905060006125028583615623565b9050806125475760408051600160e51b62461bcd02815260206004820152600f6024820152600080516020615ca6833981519152604482015290519081900360640190fd5b60005b6009548110156126bb5760006009828154811061256357fe5b60009182526020808320909101546001600160a01b0316808352600a90915260408220600301549092509061259885836151fc565b9050806125dd5760408051600160e51b62461bcd02815260206004820152600f6024820152600080516020615ca6833981519152604482015290519081900360640190fd5b8787858181106125e957fe5b905060200201358111156126395760408051600160e51b62461bcd02815260206004820152600c6024820152600160a11b6b22a9292fa624a6a4aa2fa4a702604482015290519081900360640190fd5b6001600160a01b0383166000908152600a602052604090206003015461265f9082615561565b6001600160a01b0384166000818152600a6020908152604091829020600301939093558051848152905191923392600080516020615c268339815191529281900390910190a36126b08333836155be565b50505060010161254a565b506126c58561561a565b611d2a338661535c565b600c5460009060ff161561272d5760408051600160e51b62461bcd02815260206004820152601760248201527f4552525f414c52454144595f494e495449414c495a4544000000000000000000604482015290519081900360640190fd5b6001600160a01b03861661278b5760408051600160e51b62461bcd02815260206004820152601e60248201527f4552525f494e56414c49445f434f4e54524f4c4c45525f414444524553530000604482015290519081900360640190fd5b6001600160a01b0385166127e95760408051600160e51b62461bcd02815260206004820152601b60248201527f4552525f494e56414c49445f464143544f52595f414444524553530000000000604482015290519081900360640190fd5b64e8d4a510008410156128375760408051600160e51b62461bcd02815260206004820152600b6024820152600160a81b6a4552525f4d494e5f46454502604482015290519081900360640190fd5b67016345785d8a00008411156128885760408051600160e51b62461bcd02815260206004820152600b6024820152600160a81b6a4552525f4d41585f46454502604482015290519081900360640190fd5b612895868686868661574b565b9695505050505050565b6000806128ac8786615623565b905060006128ba8786615561565b905060006128c88289615623565b905060006128de670de0b6b3a764000085615623565b905060006128ec83836157cf565b905060006128fa828e6151fc565b90506000612908828f6152d1565b90506000612927612921670de0b6b3a76400008a6152d1565b8b6151fc565b90506129448261293f670de0b6b3a7640000846152d1565b615623565b9f9e505050505050505050505050505050565b6000336001600160a01b03166000356001600160e01b0319166001600160e01b03191660003660405180806020018281038252848482818152602001925080828437600083820152604051601f909101601f19169092018290039550909350505050a2600554610100900460ff1615612a085760408051600160e51b62461bcd02815260206004820152600b6024820152600080516020615c06833981519152604482015290519081900360640190fd5b6005805461ff00191661010017905560085460ff16612a5f5760408051600160e51b62461bcd0281526020600482015260116024820152600080516020615be6833981519152604482015290519081900360640190fd5b6001600160a01b0384166000908152600a602052604090205460ff16612abd5760408051600160e51b62461bcd02815260206004820152600d6024820152600080516020615c66833981519152604482015290519081900360640190fd5b6001600160a01b0384166000908152600a6020526040902060030154612aef906002670de0b6b3a76400005b046151fc565b831115612b3c5760408051600160e51b62461bcd0281526020600482015260106024820152600160801b6f4552525f4d41585f494e5f524154494f02604482015290519081900360640190fd5b6001600160a01b0384166000908152600a6020526040902060038101546002808301549054600b54600754612b7694939291908990613acf565b915082821015612bc35760408051600160e51b62461bcd02815260206004820152600d60248201526001609a1b6c11549497d31253525517d3d55502604482015290519081900360640190fd5b612bd1816003015485615561565b60038201556040805185815290516001600160a01b038716913391600080516020615c268339815191529181900360200190a3612c0d8261561a565b612c17338361535c565b612c228533866155be565b506005805461ff00191690559392505050565b3360009081526001602090815260408083206001600160a01b038616845290915281205480831115612c8a573360009081526001602090815260408083206001600160a01b0388168452909152812055612cb9565b612c9481846152d1565b3360009081526001602090815260408083206001600160a01b03891684529091529020555b3360008181526001602090815260408083206001600160a01b038916808552908352928190205481519081529051929392600080516020615c86833981519152929181900390910190a35060019392505050565b6000336001600160a01b03166000356001600160e01b0319166001600160e01b03191660003660405180806020018281038252848482818152602001925080828437600083820152604051601f909101601f19169092018290039550909350505050a2600554610100900460ff1615612dbe5760408051600160e51b62461bcd02815260206004820152600b6024820152600080516020615c06833981519152604482015290519081900360640190fd5b6005805461ff00191661010017905560085460ff16612e155760408051600160e51b62461bcd0281526020600482015260116024820152600080516020615be6833981519152604482015290519081900360640190fd5b6001600160a01b0384166000908152600a602052604090205460ff16612e735760408051600160e51b62461bcd02815260206004820152600d6024820152600080516020615c66833981519152604482015290519081900360640190fd5b6001600160a01b0384166000908152600a6020526040902060038101546002808301549054600b54600754612ead9493929190899061289f565b915081612ef25760408051600160e51b62461bcd02815260206004820152600f6024820152600080516020615ca6833981519152604482015290519081900360640190fd5b82821115612f3c5760408051600160e51b62461bcd02815260206004820152600c6024820152600160a11b6b22a9292fa624a6a4aa2fa4a702604482015290519081900360640190fd5b6001600160a01b0385166000908152600a6020526040902060030154612f6c906002670de0b6b3a7640000612ae9565b821115612fb95760408051600160e51b62461bcd0281526020600482015260106024820152600160801b6f4552525f4d41585f494e5f524154494f02604482015290519081900360640190fd5b612fc7816003015483615561565b60038201556040805183815290516001600160a01b038716913391600080516020615c268339815191529181900360200190a36130038461561a565b61300d338561535c565b612c228533846155be565b6001600160a01b031660009081526020819052604090205490565b620f4240670de0b6b3a76400006114d4565b60408051602080825236908201819052600092839233926001600160e01b03198535169285929081908101848480828437600083820152604051601f909101601f19169092018290039550909350505050a2600554610100900460ff16156130e55760408051600160e51b62461bcd02815260206004820152600b6024820152600080516020615c06833981519152604482015290519081900360640190fd5b6005805461ff0019166101001790556001600160a01b0387166000908152600a602052604090205460ff166131525760408051600160e51b62461bcd02815260206004820152600d6024820152600080516020615c66833981519152604482015290519081900360640190fd5b6001600160a01b0385166000908152600a602052604090205460ff166131b05760408051600160e51b62461bcd02815260206004820152600d6024820152600080516020615c66833981519152604482015290519081900360640190fd5b600654600160a01b900460ff166132115760408051600160e51b62461bcd02815260206004820152601360248201527f4552525f535741505f4e4f545f5055424c494300000000000000000000000000604482015290519081900360640190fd5b6001600160a01b038088166000908152600a60205260408082209288168252902060038082015461324a91670de0b6b3a7640000610f41565b8611156132985760408051600160e51b62461bcd0281526020600482015260116024820152600160781b704552525f4d41585f4f55545f524154494f02604482015290519081900360640190fd5b60006132b98360030154846002015484600301548560020154600754614131565b9050858111156133135760408051600160e51b62461bcd02815260206004820152601360248201527f4552525f4241445f4c494d49545f505249434500000000000000000000000000604482015290519081900360640190fd5b61333383600301548460020154846003015485600201548b600754615169565b94508885111561337f5760408051600160e51b62461bcd02815260206004820152600c6024820152600160a11b6b22a9292fa624a6a4aa2fa4a702604482015290519081900360640190fd5b61338d836003015486615561565b83600301819055506133a38260030154886152d1565b6003808401829055840154600280860154908501546007546133c6949190614131565b93508084101561340e5760408051600160e51b62461bcd02815260206004820152600f6024820152600080516020615ca6833981519152604482015290519081900360640190fd5b8584111561345b5760408051600160e51b62461bcd02815260206004820152600f6024820152600160881b6e4552525f4c494d49545f505249434502604482015290519081900360640190fd5b6134658588615623565b8111156134aa5760408051600160e51b62461bcd02815260206004820152600f6024820152600080516020615ca6833981519152604482015290519081900360640190fd5b876001600160a01b03168a6001600160a01b0316336001600160a01b03167f908fb5ee8f16c6bc9bc3690973819f32a4d4b10188134543c88706e0e1d43378888b604051808381526020018281526020019250505060405180910390a46135128a33876155be565b61351d883389615366565b5050506005805461ff001916905590969095509350505050565b60408051602080825236908201819052600092839233926001600160e01b03198535169285929081908101848480828437600083820152604051601f909101601f19169092018290039550909350505050a2600554610100900460ff16156135d75760408051600160e51b62461bcd02815260206004820152600b6024820152600080516020615c06833981519152604482015290519081900360640190fd5b6005805461ff0019166101001790556001600160a01b0387166000908152600a602052604090205460ff166136445760408051600160e51b62461bcd02815260206004820152600d6024820152600080516020615c66833981519152604482015290519081900360640190fd5b6001600160a01b0385166000908152600a602052604090205460ff166136a25760408051600160e51b62461bcd02815260206004820152600d6024820152600080516020615c66833981519152604482015290519081900360640190fd5b600654600160a01b900460ff166137035760408051600160e51b62461bcd02815260206004820152601360248201527f4552525f535741505f4e4f545f5055424c494300000000000000000000000000604482015290519081900360640190fd5b6001600160a01b038088166000908152600a602052604080822092881682529020600382015461373d906002670de0b6b3a7640000612ae9565b88111561378a5760408051600160e51b62461bcd0281526020600482015260106024820152600160801b6f4552525f4d41585f494e5f524154494f02604482015290519081900360640190fd5b60006137ab8360030154846002015484600301548560020154600754614131565b9050858111156138055760408051600160e51b62461bcd02815260206004820152601360248201527f4552525f4241445f4c494d49545f505249434500000000000000000000000000604482015290519081900360640190fd5b61382583600301548460020154846003015485600201548d600754614506565b9450868510156138725760408051600160e51b62461bcd02815260206004820152600d60248201526001609a1b6c11549497d31253525517d3d55502604482015290519081900360640190fd5b61388083600301548a615561565b83600301819055506138968260030154866152d1565b6003808401829055840154600280860154908501546007546138b9949190614131565b9350808410156139015760408051600160e51b62461bcd02815260206004820152600f6024820152600080516020615ca6833981519152604482015290519081900360640190fd5b8584111561394e5760408051600160e51b62461bcd02815260206004820152600f6024820152600160881b6e4552525f4c494d49545f505249434502604482015290519081900360640190fd5b6139588986615623565b81111561399d5760408051600160e51b62461bcd02815260206004820152600f6024820152600080516020615ca6833981519152604482015290519081900360640190fd5b876001600160a01b03168a6001600160a01b0316336001600160a01b03167f908fb5ee8f16c6bc9bc3690973819f32a4d4b10188134543c88706e0e1d433788c89604051808381526020018281526020019250505060405180910390a4613a058a338b6155be565b61351d883387615366565b600080613a1d8786615623565b90506000613a33670de0b6b3a7640000836152d1565b90506000613a4182866151fc565b90506000613a5b8761293f670de0b6b3a7640000856152d1565b90506000613a698c836152d1565b90506000613a77828e615623565b90506000613a8582886157cf565b90506000613a93828e6151fc565b90506000613aa18e836152d1565b9050613aba8161293f670de0b6b3a764000060006152d1565b99505050505050505050509695505050505050565b600080613adc8786615623565b90506000613afb613af5670de0b6b3a7640000846152d1565b856151fc565b90506000613b1a86613b15670de0b6b3a7640000856152d1565b6151fc565b90506000613b288b83615561565b90506000613b36828d615623565b90506000613b4482876157cf565b90506000613b52828d6151fc565b9050613b5e818d6152d1565b9e9d5050505050505050505050505050565b64e8d4a51000670de0b6b3a76400006114d4565b600080613b918786615623565b90506000613bac85613b15670de0b6b3a764000060006152d1565b90506000613bba88836152d1565b90506000613bc8828a615623565b90506000613be782613be2670de0b6b3a764000088615623565b6157cf565b90506000613bf5828e6151fc565b90506000613c038e836152d1565b90506000613c1c612921670de0b6b3a76400008a6152d1565b905061294482613b15670de0b6b3a7640000846152d1565b336001600160a01b03166000356001600160e01b0319166001600160e01b03191660003660405180806020018281038252848482818152602001925080828437600083820152604051601f909101601f19169092018290039550909350505050a2600554610100900460ff1615613ce35760408051600160e51b62461bcd02815260206004820152600b6024820152600080516020615c06833981519152604482015290519081900360640190fd5b6005805461ff0019166101001790556001600160a01b0381166000908152600a602052604090205460ff16613d505760408051600160e51b62461bcd02815260206004820152600d6024820152600080516020615c66833981519152604482015290519081900360640190fd5b60408051600160e01b6370a0823102815230600482015290516001600160a01b038316916370a08231916024808301926020929190829003018186803b158015613d9957600080fd5b505afa158015613dad573d6000803e3d6000fd5b505050506040513d6020811015613dc357600080fd5b50516001600160a01b039091166000908152600a60205260409020600301556005805461ff0019169055565b60085460ff1690565b336001600160a01b03166000356001600160e01b0319166001600160e01b03191660003660405180806020018281038252848482818152602001925080828437600083820152604051601f909101601f19169092018290039550909350505050a2600554610100900460ff1615613ea75760408051600160e51b62461bcd02815260206004820152600b6024820152600080516020615c06833981519152604482015290519081900360640190fd5b6005805461ff0019166101001790556001600160a01b038116613f145760408051600160e51b62461bcd02815260206004820152601b60248201527f4552525f494e56414c49445f4d414e414745525f414444524553530000000000604482015290519081900360640190fd5b6006546001600160a01b03163314613f645760408051600160e51b62461bcd0281526020600482015260126024820152600080516020615c46833981519152604482015290519081900360640190fd5b600680546001600160a01b0319166001600160a01b03929092169190911790556005805461ff0019169055565b600554600090610100900460ff1615613fe25760408051600160e51b62461bcd02815260206004820152600b6024820152600080516020615c06833981519152604482015290519081900360640190fd5b50600b5490565b68056bc75e2d6310000081565b600554600090610100900460ff16156140475760408051600160e51b62461bcd02815260206004820152600b6024820152600080516020615c06833981519152604482015290519081900360640190fd5b6001600160a01b0382166000908152600a602052604090205460ff166140a55760408051600160e51b62461bcd02815260206004820152600d6024820152600080516020615c66833981519152604482015290519081900360640190fd5b506001600160a01b03166000908152600a602052604090206002015490565b60048054604080516020601f60026000196101006001881615020190951694909404938401819004810282018101909252828152606093909290918301828280156111a75780601f1061117c576101008083540402835291602001916111a7565b6704a03ce68d21555681565b60008061413e8787615623565b9050600061414c8686615623565b9050600061415a8383615623565b9050600061417c670de0b6b3a764000061293f670de0b6b3a7640000896152d1565b905061418882826151fc565b9a9950505050505050505050565b60006141a3338484615445565b50600192915050565b336001600160a01b03166000356001600160e01b0319166001600160e01b03191660003660405180806020018281038252848482818152602001925080828437600083820152604051601f909101601f19169092018290039550909350505050a2600554610100900460ff161561425b5760408051600160e51b62461bcd02815260206004820152600b6024820152600080516020615c06833981519152604482015290519081900360640190fd5b6005805461ff00191661010017905560085460ff166142b25760408051600160e51b62461bcd0281526020600482015260116024820152600080516020615be6833981519152604482015290519081900360640190fd5b60006142bc6114be565b905060006142cb8560006151fc565b905060006142d986836152d1565b905060006142e78285615623565b90508061432c5760408051600160e51b62461bcd02815260206004820152600f6024820152600080516020615ca6833981519152604482015290519081900360640190fd5b6143363388615342565b600554614352906201000090046001600160a01b03168461535c565b61435b82615350565b60005b6009548110156144e25760006009828154811061437757fe5b60009182526020808320909101546001600160a01b0316808352600a9091526040822060030154909250906143ac85836151fc565b9050806143f15760408051600160e51b62461bcd02815260206004820152600f6024820152600080516020615ca6833981519152604482015290519081900360640190fd5b8989858181106143fd57fe5b9050602002013581101561444e5760408051600160e51b62461bcd02815260206004820152600d60248201526001609a1b6c11549497d31253525517d3d55502604482015290519081900360640190fd5b6001600160a01b0383166000908152600a602052604090206003015461447490826152d1565b6001600160a01b0384166000818152600a60209081526040918290206003019390935580518481529051919233927fe74c91552b64c2e2e7bd255639e004e693bd3e1d01cc33e65610b86afcc1ffed9281900390910190a36144d7833383615366565b50505060010161435e565b50506005805461ff0019169055505050505050565b600881565b600281565b600181565b6000806145138786615623565b90506000614529670de0b6b3a7640000856152d1565b905061453585826151fc565b905060006145478a61293f8c85615561565b9050600061455582856157cf565b9050600061456b670de0b6b3a7640000836152d1565b90506145778a826151fc565b9c9b505050505050505050505050565b600a670de0b6b3a76400006114d4565b671bc16d674ec7ffff81565b600554606090610100900460ff16156145f45760408051600160e51b62461bcd02815260206004820152600b6024820152600080516020615c06833981519152604482015290519081900360640190fd5b60085460ff1661463c5760408051600160e51b62461bcd0281526020600482015260116024820152600080516020615be6833981519152604482015290519081900360640190fd5b60098054806020026020016040519081016040528092919081815260200182805480156111a757602002820191906000526020600020905b81546001600160a01b03168152600190910190602001808311614674575050505050905090565b600081565b600554606090610100900460ff161561463c5760408051600160e51b62461bcd02815260206004820152600b6024820152600080516020615c06833981519152604482015290519081900360640190fd5b60095490565b336001600160a01b03166000356001600160e01b0319166001600160e01b03191660003660405180806020018281038252848482818152602001925080828437600083820152604051601f909101601f19169092018290039550909350505050a2600554610100900460ff16156147a65760408051600160e51b62461bcd02815260206004820152600b6024820152600080516020615c06833981519152604482015290519081900360640190fd5b6005805461ff001916610100179055600654336001600160a01b03909116146148075760408051600160e51b62461bcd0281526020600482015260126024820152600080516020615c46833981519152604482015290519081900360640190fd5b6001600160a01b0381166000908152600a602052604090205460ff166148655760408051600160e51b62461bcd02815260206004820152600d6024820152600080516020615c66833981519152604482015290519081900360640190fd5b60085460ff16156148b65760408051600160e51b62461bcd0281526020600482015260106024820152600160821b6f11549497d254d7d1925390531256915102604482015290519081900360640190fd5b6001600160a01b0381166000908152600a6020526040812060030154906148dd82826151fc565b600b546001600160a01b0385166000908152600a6020526040902060020154919250614908916152d1565b600b556001600160a01b0383166000908152600a602052604090206001015460098054600019810191908290811061493c57fe5b600091825260209091200154600980546001600160a01b03909216918490811061496257fe5b9060005260206000200160006101000a8154816001600160a01b0302191690836001600160a01b0316021790555081600a6000600985815481106149a257fe5b60009182526020808320909101546001600160a01b0316835282019290925260400190206001015560098054806149d557fe5b60008281526020808220600019908401810180546001600160a01b031916905590920190925560408051608081018252838152808301848152818301858152606083018681526001600160a01b038c168752600a909552929094209051815460ff19169015151781559251600184015551600283015551600390910155614a618533611d0487876152d1565b600554611d2a9086906201000090046001600160a01b031685615366565b336001600160a01b03166000356001600160e01b0319166001600160e01b03191660003660405180806020018281038252848482818152602001925080828437600083820152604051601f909101601f19169092018290039550909350505050a26001600160a01b038716614b3e5760408051600160e51b62461bcd02815260206004820152601d60248201527f4552525f494e56414c49445f44415441544f4b454e5f41444452455353000000604482015290519081900360640190fd5b6001600160a01b038416614b9c5760408051600160e51b62461bcd02815260206004820152601d60248201527f4552525f494e56414c49445f42415345544f4b454e5f41444452455353000000604482015290519081900360640190fd5b614ba7878787614d2c565b6040805187815290516001600160a01b038916913391600080516020615c268339815191529181900360200190a3614be0848484614d2c565b6040805184815290516001600160a01b038616913391600080516020615c268339815191529181900360200190a3614c17816116d1565b614c1f6121d3565b50505050505050565b600554600090610100900460ff1615614c795760408051600160e51b62461bcd02815260206004820152600b6024820152600080516020615c06833981519152604482015290519081900360640190fd5b5060075490565b3360009081526001602090815260408083206001600160a01b0386168452909152812054614cae9083615561565b3360008181526001602090815260408083206001600160a01b038916808552908352928190208590558051948552519193600080516020615c86833981519152929081900390910190a350600192915050565b6001600160a01b03918216600090815260016020908152604080832093909416825291909152205490565b336001600160a01b03166000356001600160e01b0319166001600160e01b03191660003660405180806020018281038252848482818152602001925080828437600083820152604051601f909101601f19169092018290039550909350505050a26006546001600160a01b03163314614ddd5760408051600160e51b62461bcd0281526020600482015260126024820152600080516020615c46833981519152604482015290519081900360640190fd5b6001600160a01b0383166000908152600a602052604090205460ff1615614e4e5760408051600160e51b62461bcd02815260206004820152600c60248201527f4552525f49535f424f554e440000000000000000000000000000000000000000604482015290519081900360640190fd5b60085460ff1615614e9f5760408051600160e51b62461bcd0281526020600482015260106024820152600160821b6f11549497d254d7d1925390531256915102604482015290519081900360640190fd5b600954600811614ef95760408051600160e51b62461bcd02815260206004820152600e60248201527f4552525f4d41585f544f4b454e53000000000000000000000000000000000000604482015290519081900360640190fd5b6040805160808101825260018082526009805460208085019182526000858701818152606087018281526001600160a01b038c16808452600a9094529782209651875460ff1916901515178755925186860155915160028601559451600390940193909355805491820181559091527f6e1540171b6c0c960b71a7020d9f60077f6af931a8bbf590da0223dacf75c7af0180546001600160a01b0319169091179055614fa68383836118e8565b505050565b6002670de0b6b3a76400006114d4565b600554600090610100900460ff161561500c5760408051600160e51b62461bcd02815260206004820152600b6024820152600080516020615c06833981519152604482015290519081900360640190fd5b6001600160a01b0382166000908152600a602052604090205460ff1661506a5760408051600160e51b62461bcd02815260206004820152600d6024820152600080516020615c66833981519152604482015290519081900360640190fd5b6001600160a01b0382166000908152600a6020526040902060020154600b54615094908290615623565b9392505050565b600554600090610100900460ff16156150ec5760408051600160e51b62461bcd02815260206004820152600b6024820152600080516020615c06833981519152604482015290519081900360640190fd5b6001600160a01b0382166000908152600a602052604090205460ff1661514a5760408051600160e51b62461bcd02815260206004820152600d6024820152600080516020615c66833981519152604482015290519081900360640190fd5b506001600160a01b03166000908152600a602052604090206003015490565b6000806151768588615623565b9050600061518487866152d1565b905060006151928883615623565b905060006151a082856157cf565b90506151b481670de0b6b3a76400006152d1565b90506151c8670de0b6b3a7640000876152d1565b94506151dd6151d78c836151fc565b86615623565b9b9a5050505050505050505050565b600654600160a01b900460ff1690565b600082820283158061521657508284828161521357fe5b04145b6152605760408051600160e51b62461bcd0281526020600482015260106024820152600160801b6f4552525f4d554c5f4f564552464c4f5702604482015290519081900360640190fd5b6706f05b59d3b200008101818110156152b95760408051600160e51b62461bcd0281526020600482015260106024820152600160801b6f4552525f4d554c5f4f564552464c4f5702604482015290519081900360640190fd5b6000670de0b6b3a7640000825b049695505050505050565b60008060006152e085856158f2565b91509150801561533a5760408051600160e51b62461bcd02815260206004820152601160248201527f4552525f5355425f554e444552464c4f57000000000000000000000000000000604482015290519081900360640190fd5b509392505050565b61534c8282615917565b5050565b61535981615922565b50565b61534c82826159fe565b60408051600160e01b63a9059cbb0281526001600160a01b03848116600483015260248201849052915160009286169163a9059cbb91604480830192602092919082900301818787803b1580156153bc57600080fd5b505af11580156153d0573d6000803e3d6000fd5b505050506040513d60208110156153e657600080fd5b505190508061543f5760408051600160e51b62461bcd02815260206004820152600f60248201527f4552525f45524332305f46414c53450000000000000000000000000000000000604482015290519081900360640190fd5b50505050565b6001600160a01b0383166000908152602081905260409020548111156154b55760408051600160e51b62461bcd02815260206004820152601460248201527f4552525f494e53554646494349454e545f42414c000000000000000000000000604482015290519081900360640190fd5b6001600160a01b0383166000908152602081905260409020546154d890826152d1565b6001600160a01b0380851660009081526020819052604080822093909355908416815220546155079082615561565b6001600160a01b038084166000818152602081815260409182902094909455805185815290519193928716927fddf252ad1be2c89b69c2b068fc378daa952ba7f163c4a11628f55a4df523b3ef92918290030190a3505050565b6000828201838110156150945760408051600160e51b62461bcd02815260206004820152601060248201527f4552525f4144445f4f564552464c4f5700000000000000000000000000000000604482015290519081900360640190fd5b60408051600160e01b6323b872dd0281526001600160a01b0384811660048301523060248301526044820184905291516000928616916323b872dd91606480830192602092919082900301818787803b1580156153bc57600080fd5b61535981615a09565b60008161567a5760408051600160e51b62461bcd02815260206004820152600c60248201527f4552525f4449565f5a45524f0000000000000000000000000000000000000000604482015290519081900360640190fd5b670de0b6b3a764000083028315806156a25750670de0b6b3a764000084828161569f57fe5b04145b6156ec5760408051600160e51b62461bcd0281526020600482015260106024820152600160821b6f11549497d1125597d25395115493905302604482015290519081900360640190fd5b600283048101818110156157405760408051600160e51b62461bcd0281526020600482015260106024820152600160821b6f11549497d1125597d25395115493905302604482015290519081900360640190fd5b60008482816152c657fe5b60068054600580546001600160a01b03978816620100000262010000600160b01b0319909116179055600794909455911515600160a01b02600160a01b60ff0219959094166001600160a01b03199093169290921793909316919091179091556008805491151560ff19928316179055600c80549091166001179081905560ff1690565b6000600183101561582a5760408051600160e51b62461bcd02815260206004820152601560248201527f4552525f42504f575f424153455f544f4f5f4c4f570000000000000000000000604482015290519081900360640190fd5b671bc16d674ec7ffff83111561588a5760408051600160e51b62461bcd02815260206004820152601660248201527f4552525f42504f575f424153455f544f4f5f4849474800000000000000000000604482015290519081900360640190fd5b600061589583615a7e565b905060006158a384836152d1565b905060006158b9866158b485615a99565b615aa7565b9050816158ca579250611200915050565b60006158db87846305f5e100615b07565b90506158e782826151fc565b979650505050505050565b6000808284106159085750508082036000615910565b505081810360015b9250929050565b61534c823083615445565b306000908152602081905260409020548111156159895760408051600160e51b62461bcd02815260206004820152601460248201527f4552525f494e53554646494349454e545f42414c000000000000000000000000604482015290519081900360640190fd5b306000908152602081905260409020546159a390826152d1565b306000908152602081905260409020556002546159c090826152d1565b60025560408051828152905160009130917fddf252ad1be2c89b69c2b068fc378daa952ba7f163c4a11628f55a4df523b3ef9181900360200190a350565b61534c308383615445565b30600090815260208190526040902054615a239082615561565b30600090815260208190526040902055600254615a409082615561565b60025560408051828152905130916000917fddf252ad1be2c89b69c2b068fc378daa952ba7f163c4a11628f55a4df523b3ef9181900360200190a350565b6000670de0b6b3a7640000615a9283615a99565b0292915050565b670de0b6b3a7640000900490565b6000828160028406615ac157670de0b6b3a7640000615ac3565b815b90506002840493505b8315615aff57615adc82836151fc565b91506002840615615af457615af181836151fc565b90505b600284049350615acc565b949350505050565b6000828180615b1e87670de0b6b3a76400006158f2565b9092509050670de0b6b3a764000080600060015b888410615bd6576000670de0b6b3a764000082029050600080615b668a615b6185670de0b6b3a76400006152d1565b6158f2565b91509150615b7887613b15848c6151fc565b9650615b848784615623565b965086615b9357505050615bd6565b8715615b9d579315935b8015615ba7579315935b8415615bbe57615bb786886152d1565b9550615bcb565b615bc88688615561565b95505b505050600101615b32565b5090999850505050505050505056fe4552525f4e4f545f46494e414c495a45440000000000000000000000000000004552525f5245454e54525900000000000000000000000000000000000000000063982df10efd8dfaaaa0fcc7f50b2d93b7cba26ccc48adee2873220d485dc39a4552525f4e4f545f434f4e54524f4c4c455200000000000000000000000000004552525f4e4f545f424f554e44000000000000000000000000000000000000008c5be1e5ebec7d5bd14f71427d1e84f3dd0314c0f7b2291e5b200ac8c7c3b9254552525f4d4154485f415050524f580000000000000000000000000000000000a165627a7a723058201b77be944e5c92f1ee95255c1dd295f2517cda39a71b0d64a4f33a7d4abe2b240029",
  "linkReferences": {},
  "deployedLinkReferences": {}
}