{
  "_format": "hh-sol-artifact-1",
  "contractName": "V3BPool",
  "sourceName": "contracts/v3/balancer/V3BPool.sol",
  "abi": [
    {
      "constant": false,
      "inputs": [
        {
          "name": "tokenOut",
          "type": "address"
        },
        {
          "name": "tokenAmountOut",
          "type": "uint256"
        },
        {
          "name": "maxPoolAmountIn",
          "type": "uint256"
        }
      ],
      "name": "exitswapExternAmountOut",
      "outputs": [
        {
          "name": "poolAmountIn",
          "type": "uint256"
        }
      ],
      "payable": false,
      "stateMutability": "nonpayable",
      "type": "function"
    },
    {
      "constant": true,
      "inputs": [],
      "name": "name",
      "outputs": [
        {
          "name": "",
          "type": "string"
        }
      ],
      "payable": false,
      "stateMutability": "view",
      "type": "function"
    },
    {
      "constant": false,
      "inputs": [
        {
          "name": "dst",
          "type": "address"
        },
        {
          "name": "amt",
          "type": "uint256"
        }
      ],
      "name": "approve",
      "outputs": [
        {
          "name": "",
          "type": "bool"
        }
      ],
      "payable": false,
      "stateMutability": "nonpayable",
      "type": "function"
    },
    {
      "constant": true,
      "inputs": [],
      "name": "MAX_TOTAL_WEIGHT",
      "outputs": [
        {
          "name": "",
          "type": "uint256"
        }
      ],
      "payable": false,
      "stateMutability": "view",
      "type": "function"
    },
    {
      "constant": true,
      "inputs": [
        {
          "name": "tokenBalanceIn",
          "type": "uint256"
        },
        {
          "name": "tokenWeightIn",
          "type": "uint256"
        },
        {
          "name": "tokenBalanceOut",
          "type": "uint256"
        },
        {
          "name": "tokenWeightOut",
          "type": "uint256"
        },
        {
          "name": "tokenAmountIn",
          "type": "uint256"
        }
      ],
      "name": "calcOutGivenIn",
      "outputs": [
        {
          "name": "tokenAmountOut",
          "type": "uint256"
        }
      ],
      "payable": false,
      "stateMutability": "view",
      "type": "function"
    },
    {
      "constant": true,
      "inputs": [
        {
          "name": "tokenIn",
          "type": "address"
        },
        {
          "name": "tokenOut",
          "type": "address"
        }
      ],
      "name": "getSpotPrice",
      "outputs": [
        {
          "name": "spotPrice",
          "type": "uint256"
        }
      ],
      "payable": false,
      "stateMutability": "view",
      "type": "function"
    },
    {
      "constant": true,
      "inputs": [],
      "name": "totalSupply",
      "outputs": [
        {
          "name": "",
          "type": "uint256"
        }
      ],
      "payable": false,
      "stateMutability": "view",
      "type": "function"
    },
    {
      "constant": true,
      "inputs": [],
      "name": "BPOW_PRECISION",
      "outputs": [
        {
          "name": "",
          "type": "uint256"
        }
      ],
      "payable": false,
      "stateMutability": "view",
      "type": "function"
    },
    {
      "constant": true,
      "inputs": [],
      "name": "MIN_WEIGHT",
      "outputs": [
        {
          "name": "",
          "type": "uint256"
        }
      ],
      "payable": false,
      "stateMutability": "view",
      "type": "function"
    },
    {
      "constant": false,
      "inputs": [
        {
          "name": "src",
          "type": "address"
        },
        {
          "name": "dst",
          "type": "address"
        },
        {
          "name": "amt",
          "type": "uint256"
        }
      ],
      "name": "transferFrom",
      "outputs": [
        {
          "name": "",
          "type": "bool"
        }
      ],
      "payable": false,
      "stateMutability": "nonpayable",
      "type": "function"
    },
    {
      "constant": false,
      "inputs": [
        {
          "name": "swapMarketFee",
          "type": "uint256"
        }
      ],
      "name": "setMarketFee",
      "outputs": [],
      "payable": false,
      "stateMutability": "nonpayable",
      "type": "function"
    },
    {
      "constant": true,
      "inputs": [
        {
          "name": "t",
          "type": "address"
        }
      ],
      "name": "isBound",
      "outputs": [
        {
          "name": "",
          "type": "bool"
        }
      ],
      "payable": false,
      "stateMutability": "view",
      "type": "function"
    },
    {
      "constant": true,
      "inputs": [
        {
          "name": "",
          "type": "address"
        }
      ],
      "name": "communityFees",
      "outputs": [
        {
          "name": "",
          "type": "uint256"
        }
      ],
      "payable": false,
      "stateMutability": "view",
      "type": "function"
    },
    {
      "constant": true,
      "inputs": [],
      "name": "getController",
      "outputs": [
        {
          "name": "",
          "type": "address"
        }
      ],
      "payable": false,
      "stateMutability": "view",
      "type": "function"
    },
    {
      "constant": true,
      "inputs": [],
      "name": "decimals",
      "outputs": [
        {
          "name": "",
          "type": "uint8"
        }
      ],
      "payable": false,
      "stateMutability": "view",
      "type": "function"
    },
    {
      "constant": true,
      "inputs": [
        {
          "name": "",
          "type": "address"
        }
      ],
      "name": "marketFees",
      "outputs": [
        {
          "name": "",
          "type": "uint256"
        }
      ],
      "payable": false,
      "stateMutability": "view",
      "type": "function"
    },
    {
      "constant": false,
      "inputs": [
        {
          "name": "swapFee",
          "type": "uint256"
        }
      ],
      "name": "setSwapFee",
      "outputs": [],
      "payable": false,
      "stateMutability": "nonpayable",
      "type": "function"
    },
    {
      "constant": true,
      "inputs": [],
      "name": "isInitialized",
      "outputs": [
        {
          "name": "",
          "type": "bool"
        }
      ],
      "payable": false,
      "stateMutability": "view",
      "type": "function"
    },
    {
      "constant": false,
      "inputs": [
        {
          "name": "token",
          "type": "address"
        },
        {
          "name": "balance",
          "type": "uint256"
        },
        {
          "name": "denorm",
          "type": "uint256"
        }
      ],
      "name": "rebind",
      "outputs": [],
      "payable": false,
      "stateMutability": "nonpayable",
      "type": "function"
    },
    {
      "constant": false,
      "inputs": [
        {
          "name": "tokenOut",
          "type": "address"
        },
        {
          "name": "poolAmountIn",
          "type": "uint256"
        },
        {
          "name": "minAmountOut",
          "type": "uint256"
        }
      ],
      "name": "exitswapPoolAmountIn",
      "outputs": [
        {
          "name": "tokenAmountOut",
          "type": "uint256"
        }
      ],
      "payable": false,
      "stateMutability": "nonpayable",
      "type": "function"
    },
    {
      "constant": false,
      "inputs": [
        {
          "name": "public_",
          "type": "bool"
        }
      ],
      "name": "setPublicSwap",
      "outputs": [],
      "payable": false,
      "stateMutability": "nonpayable",
      "type": "function"
    },
    {
      "constant": true,
      "inputs": [],
      "name": "_swapMarketFee",
      "outputs": [
        {
          "name": "",
          "type": "uint256"
        }
      ],
      "payable": false,
      "stateMutability": "view",
      "type": "function"
    },
    {
      "constant": false,
      "inputs": [],
      "name": "finalize",
      "outputs": [],
      "payable": false,
      "stateMutability": "nonpayable",
      "type": "function"
    },
    {
      "constant": false,
      "inputs": [
        {
          "name": "poolAmountOut",
          "type": "uint256"
        },
        {
          "name": "maxAmountsIn",
          "type": "uint256[]"
        }
      ],
      "name": "joinPool",
      "outputs": [],
      "payable": false,
      "stateMutability": "nonpayable",
      "type": "function"
    },
    {
      "constant": true,
      "inputs": [
        {
          "name": "tokenBalanceIn",
          "type": "uint256"
        },
        {
          "name": "tokenWeightIn",
          "type": "uint256"
        },
        {
          "name": "tokenBalanceOut",
          "type": "uint256"
        },
        {
          "name": "tokenWeightOut",
          "type": "uint256"
        }
      ],
      "name": "calcSpotPrice",
      "outputs": [
        {
          "name": "spotPrice",
          "type": "uint256"
        }
      ],
      "payable": false,
      "stateMutability": "view",
      "type": "function"
    },
    {
      "constant": false,
      "inputs": [
        {
          "name": "tokenIn",
          "type": "address"
        },
        {
          "name": "tokenAmountIn",
          "type": "uint256"
        },
        {
          "name": "minPoolAmountOut",
          "type": "uint256"
        }
      ],
      "name": "joinswapExternAmountIn",
      "outputs": [
        {
          "name": "poolAmountOut",
          "type": "uint256"
        }
      ],
      "payable": false,
      "stateMutability": "nonpayable",
      "type": "function"
    },
    {
      "constant": false,
      "inputs": [
        {
          "name": "dst",
          "type": "address"
        },
        {
          "name": "amt",
          "type": "uint256"
        }
      ],
      "name": "decreaseApproval",
      "outputs": [
        {
          "name": "",
          "type": "bool"
        }
      ],
      "payable": false,
      "stateMutability": "nonpayable",
      "type": "function"
    },
    {
      "constant": true,
      "inputs": [
        {
          "name": "tokenBalanceIn",
          "type": "uint256"
        },
        {
          "name": "tokenWeightIn",
          "type": "uint256"
        },
        {
          "name": "poolSupply",
          "type": "uint256"
        },
        {
          "name": "totalWeight",
          "type": "uint256"
        },
        {
          "name": "poolAmountOut",
          "type": "uint256"
        }
      ],
      "name": "calcSingleInGivenPoolOut",
      "outputs": [
        {
          "name": "tokenAmountIn",
          "type": "uint256"
        }
      ],
      "payable": false,
      "stateMutability": "view",
      "type": "function"
    },
    {
      "constant": false,
      "inputs": [
        {
          "name": "tokenIn",
          "type": "address"
        },
        {
          "name": "poolAmountOut",
          "type": "uint256"
        },
        {
          "name": "maxAmountIn",
          "type": "uint256"
        }
      ],
      "name": "joinswapPoolAmountOut",
      "outputs": [
        {
          "name": "tokenAmountIn",
          "type": "uint256"
        }
      ],
      "payable": false,
      "stateMutability": "nonpayable",
      "type": "function"
    },
    {
      "constant": true,
      "inputs": [
        {
          "name": "whom",
          "type": "address"
        }
      ],
      "name": "balanceOf",
      "outputs": [
        {
          "name": "",
          "type": "uint256"
        }
      ],
      "payable": false,
      "stateMutability": "view",
      "type": "function"
    },
    {
      "constant": true,
      "inputs": [],
      "name": "MIN_FEE",
      "outputs": [
        {
          "name": "",
          "type": "uint256"
        }
      ],
      "payable": false,
      "stateMutability": "view",
      "type": "function"
    },
    {
      "constant": false,
      "inputs": [
        {
          "name": "tokenIn",
          "type": "address"
        },
        {
          "name": "maxAmountIn",
          "type": "uint256"
        },
        {
          "name": "tokenOut",
          "type": "address"
        },
        {
          "name": "tokenAmountOut",
          "type": "uint256"
        },
        {
          "name": "maxPrice",
          "type": "uint256"
        }
      ],
      "name": "swapExactAmountOut",
      "outputs": [
        {
          "name": "tokenAmountIn",
          "type": "uint256"
        },
        {
          "name": "spotPriceAfter",
          "type": "uint256"
        }
      ],
      "payable": false,
      "stateMutability": "nonpayable",
      "type": "function"
    },
    {
      "constant": true,
      "inputs": [
        {
          "name": "",
          "type": "address"
        }
      ],
      "name": "feesCollectedOPF",
      "outputs": [
        {
          "name": "",
          "type": "uint256"
        }
      ],
      "payable": false,
      "stateMutability": "view",
      "type": "function"
    },
    {
      "constant": false,
      "inputs": [
        {
          "name": "tokenIn",
          "type": "address"
        },
        {
          "name": "tokenAmountIn",
          "type": "uint256"
        },
        {
          "name": "tokenOut",
          "type": "address"
        },
        {
          "name": "minAmountOut",
          "type": "uint256"
        },
        {
          "name": "maxPrice",
          "type": "uint256"
        }
      ],
      "name": "swapExactAmountIn",
      "outputs": [
        {
          "name": "tokenAmountOut",
          "type": "uint256"
        },
        {
          "name": "spotPriceAfter",
          "type": "uint256"
        }
      ],
      "payable": false,
      "stateMutability": "nonpayable",
      "type": "function"
    },
    {
      "constant": true,
      "inputs": [],
      "name": "MIN_BALANCE",
      "outputs": [
        {
          "name": "",
          "type": "uint256"
        }
      ],
      "payable": false,
      "stateMutability": "view",
      "type": "function"
    },
    {
      "constant": false,
      "inputs": [
        {
          "name": "token",
          "type": "address"
        }
      ],
      "name": "gulp",
      "outputs": [],
      "payable": false,
      "stateMutability": "nonpayable",
      "type": "function"
    },
    {
      "constant": false,
      "inputs": [
        {
          "name": "dataTokenAaddress",
          "type": "address"
        },
        {
          "name": "dataTokenAmount",
          "type": "uint256"
        },
        {
          "name": "dataTokenWeight",
          "type": "uint256"
        },
        {
          "name": "baseTokenAddress",
          "type": "address"
        },
        {
          "name": "baseTokenAmount",
          "type": "uint256"
        },
        {
          "name": "baseTokenWeight",
          "type": "uint256"
        },
        {
          "name": "swapFee",
          "type": "uint256"
        },
        {
          "name": "swapFeeMarket",
          "type": "uint256"
        }
      ],
      "name": "setup",
      "outputs": [],
      "payable": false,
      "stateMutability": "nonpayable",
      "type": "function"
    },
    {
      "constant": true,
      "inputs": [],
      "name": "isFinalized",
      "outputs": [
        {
          "name": "",
          "type": "bool"
        }
      ],
      "payable": false,
      "stateMutability": "view",
      "type": "function"
    },
    {
      "constant": false,
      "inputs": [
        {
          "name": "controller",
          "type": "address"
        },
        {
          "name": "factory",
          "type": "address"
        },
        {
          "name": "swapFee",
          "type": "uint256"
        },
        {
          "name": "swapFeeOcean",
          "type": "uint256"
        },
        {
          "name": "publicSwap",
          "type": "bool"
        },
        {
          "name": "finalized",
          "type": "bool"
        }
      ],
      "name": "initialize",
      "outputs": [
        {
          "name": "",
          "type": "bool"
        }
      ],
      "payable": false,
      "stateMutability": "nonpayable",
      "type": "function"
    },
    {
      "constant": false,
      "inputs": [
        {
          "name": "manager",
          "type": "address"
        }
      ],
      "name": "setController",
      "outputs": [],
      "payable": false,
      "stateMutability": "nonpayable",
      "type": "function"
    },
    {
      "constant": true,
      "inputs": [],
      "name": "getTotalDenormalizedWeight",
      "outputs": [
        {
          "name": "",
          "type": "uint256"
        }
      ],
      "payable": false,
      "stateMutability": "view",
      "type": "function"
    },
    {
      "constant": true,
      "inputs": [],
      "name": "INIT_POOL_SUPPLY",
      "outputs": [
        {
          "name": "",
          "type": "uint256"
        }
      ],
      "payable": false,
      "stateMutability": "view",
      "type": "function"
    },
    {
      "constant": true,
      "inputs": [
        {
          "name": "token",
          "type": "address"
        }
      ],
      "name": "getDenormalizedWeight",
      "outputs": [
        {
          "name": "",
          "type": "uint256"
        }
      ],
      "payable": false,
      "stateMutability": "view",
      "type": "function"
    },
    {
      "constant": true,
      "inputs": [],
      "name": "symbol",
      "outputs": [
        {
          "name": "",
          "type": "string"
        }
      ],
      "payable": false,
      "stateMutability": "view",
      "type": "function"
    },
    {
      "constant": true,
      "inputs": [],
      "name": "MAX_OUT_RATIO",
      "outputs": [
        {
          "name": "",
          "type": "uint256"
        }
      ],
      "payable": false,
      "stateMutability": "view",
      "type": "function"
    },
    {
      "constant": true,
      "inputs": [
        {
          "name": "tokenBalanceOut",
          "type": "uint256"
        },
        {
          "name": "tokenWeightOut",
          "type": "uint256"
        },
        {
          "name": "poolSupply",
          "type": "uint256"
        },
        {
          "name": "totalWeight",
          "type": "uint256"
        },
        {
          "name": "tokenAmountOut",
          "type": "uint256"
        }
      ],
      "name": "calcPoolInGivenSingleOut",
      "outputs": [
        {
          "name": "poolAmountIn",
          "type": "uint256"
        }
      ],
      "payable": false,
      "stateMutability": "view",
      "type": "function"
    },
    {
      "constant": false,
      "inputs": [
        {
          "name": "dst",
          "type": "address"
        },
        {
          "name": "amt",
          "type": "uint256"
        }
      ],
      "name": "transfer",
      "outputs": [
        {
          "name": "",
          "type": "bool"
        }
      ],
      "payable": false,
      "stateMutability": "nonpayable",
      "type": "function"
    },
    {
      "constant": false,
      "inputs": [
        {
          "name": "poolAmountIn",
          "type": "uint256"
        },
        {
          "name": "minAmountsOut",
          "type": "uint256[]"
        }
      ],
      "name": "exitPool",
      "outputs": [],
      "payable": false,
      "stateMutability": "nonpayable",
      "type": "function"
    },
    {
      "constant": true,
      "inputs": [],
      "name": "MAX_BOUND_TOKENS",
      "outputs": [
        {
          "name": "",
          "type": "uint256"
        }
      ],
      "payable": false,
      "stateMutability": "view",
      "type": "function"
    },
    {
      "constant": true,
      "inputs": [
        {
          "name": "tokenBalanceIn",
          "type": "uint256"
        },
        {
          "name": "tokenWeightIn",
          "type": "uint256"
        },
        {
          "name": "poolSupply",
          "type": "uint256"
        },
        {
          "name": "totalWeight",
          "type": "uint256"
        },
        {
          "name": "tokenAmountIn",
          "type": "uint256"
        }
      ],
      "name": "calcPoolOutGivenSingleIn",
      "outputs": [
        {
          "name": "poolAmountOut",
          "type": "uint256"
        }
      ],
      "payable": false,
      "stateMutability": "view",
      "type": "function"
    },
    {
      "constant": true,
      "inputs": [],
      "name": "MIN_BOUND_TOKENS",
      "outputs": [
        {
          "name": "",
          "type": "uint256"
        }
      ],
      "payable": false,
      "stateMutability": "view",
      "type": "function"
    },
    {
      "constant": true,
      "inputs": [],
      "name": "_swapOceanFee",
      "outputs": [
        {
          "name": "",
          "type": "uint256"
        }
      ],
      "payable": false,
      "stateMutability": "view",
      "type": "function"
    },
    {
      "constant": true,
      "inputs": [],
      "name": "MIN_BPOW_BASE",
      "outputs": [
        {
          "name": "",
          "type": "uint256"
        }
      ],
      "payable": false,
      "stateMutability": "view",
      "type": "function"
    },
    {
      "constant": true,
      "inputs": [],
      "name": "MAX_FEE",
      "outputs": [
        {
          "name": "",
          "type": "uint256"
        }
      ],
      "payable": false,
      "stateMutability": "view",
      "type": "function"
    },
    {
      "constant": true,
      "inputs": [],
      "name": "marketFeeCollector",
      "outputs": [
        {
          "name": "",
          "type": "address"
        }
      ],
      "payable": false,
      "stateMutability": "view",
      "type": "function"
    },
    {
      "constant": true,
      "inputs": [],
      "name": "MAX_BPOW_BASE",
      "outputs": [
        {
          "name": "",
          "type": "uint256"
        }
      ],
      "payable": false,
      "stateMutability": "view",
      "type": "function"
    },
    {
      "constant": true,
      "inputs": [],
      "name": "getFinalTokens",
      "outputs": [
        {
          "name": "tokens",
          "type": "address[]"
        }
      ],
      "payable": false,
      "stateMutability": "view",
      "type": "function"
    },
    {
      "constant": true,
      "inputs": [],
      "name": "BONE",
      "outputs": [
        {
          "name": "",
          "type": "uint256"
        }
      ],
      "payable": false,
      "stateMutability": "view",
      "type": "function"
    },
    {
      "constant": true,
      "inputs": [],
      "name": "EXIT_FEE",
      "outputs": [
        {
          "name": "",
          "type": "uint256"
        }
      ],
      "payable": false,
      "stateMutability": "view",
      "type": "function"
    },
    {
      "constant": true,
      "inputs": [],
      "name": "getCurrentTokens",
      "outputs": [
        {
          "name": "tokens",
          "type": "address[]"
        }
      ],
      "payable": false,
      "stateMutability": "view",
      "type": "function"
    },
    {
      "constant": true,
      "inputs": [],
      "name": "getNumTokens",
      "outputs": [
        {
          "name": "",
          "type": "uint256"
        }
      ],
      "payable": false,
      "stateMutability": "view",
      "type": "function"
    },
    {
      "constant": false,
      "inputs": [
        {
          "name": "token",
          "type": "address"
        }
      ],
      "name": "unbind",
      "outputs": [],
      "payable": false,
      "stateMutability": "nonpayable",
      "type": "function"
    },
    {
      "constant": true,
      "inputs": [],
      "name": "getSwapFee",
      "outputs": [
        {
          "name": "",
          "type": "uint256"
        }
      ],
      "payable": false,
      "stateMutability": "view",
      "type": "function"
    },
    {
      "constant": true,
      "inputs": [
        {
          "name": "tokenBalanceIn",
          "type": "uint256"
        },
        {
          "name": "tokenWeightIn",
          "type": "uint256"
        },
        {
          "name": "tokenBalanceOut",
          "type": "uint256"
        },
        {
          "name": "tokenWeightOut",
          "type": "uint256"
        },
        {
          "name": "tokenAmountOut",
          "type": "uint256"
        }
      ],
      "name": "calcInGivenOut",
      "outputs": [
        {
          "name": "tokenAmountIn",
          "type": "uint256"
        }
      ],
      "payable": false,
      "stateMutability": "view",
      "type": "function"
    },
    {
      "constant": false,
      "inputs": [
        {
          "name": "dst",
          "type": "address"
        },
        {
          "name": "amt",
          "type": "uint256"
        }
      ],
      "name": "increaseApproval",
      "outputs": [
        {
          "name": "",
          "type": "bool"
        }
      ],
      "payable": false,
      "stateMutability": "nonpayable",
      "type": "function"
    },
    {
      "constant": true,
      "inputs": [
        {
          "name": "src",
          "type": "address"
        },
        {
          "name": "dst",
          "type": "address"
        }
      ],
      "name": "allowance",
      "outputs": [
        {
          "name": "",
          "type": "uint256"
        }
      ],
      "payable": false,
      "stateMutability": "view",
      "type": "function"
    },
    {
      "constant": true,
      "inputs": [],
      "name": "MAX_WEIGHT",
      "outputs": [
        {
          "name": "",
          "type": "uint256"
        }
      ],
      "payable": false,
      "stateMutability": "view",
      "type": "function"
    },
    {
      "constant": false,
      "inputs": [
        {
          "name": "token",
          "type": "address"
        },
        {
          "name": "balance",
          "type": "uint256"
        },
        {
          "name": "denorm",
          "type": "uint256"
        }
      ],
      "name": "bind",
      "outputs": [],
      "payable": false,
      "stateMutability": "nonpayable",
      "type": "function"
    },
    {
      "constant": true,
      "inputs": [],
      "name": "oceanAddress",
      "outputs": [
        {
          "name": "",
          "type": "address"
        }
      ],
      "payable": false,
      "stateMutability": "view",
      "type": "function"
    },
    {
      "constant": true,
      "inputs": [],
      "name": "MAX_IN_RATIO",
      "outputs": [
        {
          "name": "",
          "type": "uint256"
        }
      ],
      "payable": false,
      "stateMutability": "view",
      "type": "function"
    },
    {
      "constant": true,
      "inputs": [
        {
          "name": "tokenBalanceOut",
          "type": "uint256"
        },
        {
          "name": "tokenWeightOut",
          "type": "uint256"
        },
        {
          "name": "poolSupply",
          "type": "uint256"
        },
        {
          "name": "totalWeight",
          "type": "uint256"
        },
        {
          "name": "poolAmountIn",
          "type": "uint256"
        }
      ],
      "name": "calcSingleOutGivenPoolIn",
      "outputs": [
        {
          "name": "tokenAmountOut",
          "type": "uint256"
        }
      ],
      "payable": false,
      "stateMutability": "view",
      "type": "function"
    },
    {
      "constant": true,
      "inputs": [
        {
          "name": "token",
          "type": "address"
        }
      ],
      "name": "getNormalizedWeight",
      "outputs": [
        {
          "name": "",
          "type": "uint256"
        }
      ],
      "payable": false,
      "stateMutability": "view",
      "type": "function"
    },
    {
      "constant": true,
      "inputs": [
        {
          "name": "",
          "type": "address"
        }
      ],
      "name": "feesCollectedMarket",
      "outputs": [
        {
          "name": "",
          "type": "uint256"
        }
      ],
      "payable": false,
      "stateMutability": "view",
      "type": "function"
    },
    {
      "constant": true,
      "inputs": [],
      "name": "oceanCommunityCollector",
      "outputs": [
        {
          "name": "",
          "type": "address"
        }
      ],
      "payable": false,
      "stateMutability": "view",
      "type": "function"
    },
    {
      "constant": true,
      "inputs": [
        {
          "name": "token",
          "type": "address"
        }
      ],
      "name": "getBalance",
      "outputs": [
        {
          "name": "",
          "type": "uint256"
        }
      ],
      "payable": false,
      "stateMutability": "view",
      "type": "function"
    },
    {
      "constant": true,
      "inputs": [],
      "name": "isPublicSwap",
      "outputs": [
        {
          "name": "",
          "type": "bool"
        }
      ],
      "payable": false,
      "stateMutability": "view",
      "type": "function"
    },
    {
      "inputs": [
        {
          "name": "_oceanAddress",
          "type": "address"
        }
      ],
      "payable": false,
      "stateMutability": "nonpayable",
      "type": "constructor"
    },
    {
      "anonymous": false,
      "inputs": [
        {
          "indexed": true,
          "name": "caller",
          "type": "address"
        },
        {
          "indexed": true,
          "name": "tokenIn",
          "type": "address"
        },
        {
          "indexed": true,
          "name": "tokenOut",
          "type": "address"
        },
        {
          "indexed": false,
          "name": "tokenAmountIn",
          "type": "uint256"
        },
        {
          "indexed": false,
          "name": "tokenAmountOut",
          "type": "uint256"
        }
      ],
      "name": "LOG_SWAP",
      "type": "event"
    },
    {
      "anonymous": false,
      "inputs": [
        {
          "indexed": true,
          "name": "caller",
          "type": "address"
        },
        {
          "indexed": true,
          "name": "tokenIn",
          "type": "address"
        },
        {
          "indexed": false,
          "name": "tokenAmountIn",
          "type": "uint256"
        }
      ],
      "name": "LOG_JOIN",
      "type": "event"
    },
    {
      "anonymous": false,
      "inputs": [
        {
          "indexed": true,
          "name": "caller",
          "type": "address"
        },
        {
          "indexed": true,
          "name": "tokenOut",
          "type": "address"
        },
        {
          "indexed": false,
          "name": "tokenAmountOut",
          "type": "uint256"
        }
      ],
      "name": "LOG_EXIT",
      "type": "event"
    },
    {
      "anonymous": true,
      "inputs": [
        {
          "indexed": true,
          "name": "sig",
          "type": "bytes4"
        },
        {
          "indexed": true,
          "name": "caller",
          "type": "address"
        },
        {
          "indexed": false,
          "name": "data",
          "type": "bytes"
        }
      ],
      "name": "LOG_CALL",
      "type": "event"
    },
    {
      "anonymous": false,
      "inputs": [
        {
          "indexed": true,
          "name": "from",
          "type": "address"
        },
        {
          "indexed": true,
          "name": "to",
          "type": "address"
        },
        {
          "indexed": false,
          "name": "value",
          "type": "uint256"
        }
      ],
      "name": "Transfer",
      "type": "event"
    },
    {
      "anonymous": false,
      "inputs": [
        {
          "indexed": true,
          "name": "owner",
          "type": "address"
        },
        {
          "indexed": true,
          "name": "spender",
          "type": "address"
        },
        {
          "indexed": false,
          "name": "value",
          "type": "uint256"
        }
      ],
      "name": "Approval",
      "type": "event"
    }
  ],
  "bytecode": "0x60c0604052601360808190527f42616c616e63657220506f6f6c20546f6b656e0000000000000000000000000060a0908152620000409160039190620001cf565b506040805180820190915260038082527f425054000000000000000000000000000000000000000000000000000000000060209092019182526200008791600491620001cf565b506005805460ff1916601290811790915580546001600160a81b0319169055348015620000b357600080fd5b50604051602080620063d083398101806040526020811015620000d557600080fd5b5051601380546001600160a01b0319166001600160a01b038316179055620001173380620f4240670de0b6b3a76400000460008060006200011f60201b60201c565b505062000274565b600e8054600d8054610100600160a81b0319166101006001600160a01b03998a16021790556008959095556006939093556001600160a01b03199093169490931693909317600160a01b60ff021916740100000000000000000000000000000000000000009215159290920291909117600160a81b60ff0219167501000000000000000000000000000000000000000000911515919091021790556012805460ff19166001179081905560ff1690565b828054600181600116156101000203166002900490600052602060002090601f016020900481019282601f106200021257805160ff191683800117855562000242565b8280016001018555821562000242579182015b828111156200024257825182559160200191906001019062000225565b506200025092915062000254565b5090565b6200027191905b808211156200025057600081556001016200025b565b90565b61614c80620002846000396000f3fe608060405234801561001057600080fd5b50600436106104545760003560e01c80638ebd29ca11610241578063c36596a61161013b578063e4a28a52116100c3578063f1b8a9b711610087578063f1b8a9b714610e22578063f542f6cf14610e48578063f71ebfd414610e6e578063f8b2cb4f14610e76578063fde924f714610e9c57610454565b8063e4a28a521461055a578063e4e1e53814610dab578063ea0098ca14610ddd578063ec09302114610de5578063ee53a6cd14610ded57610454565b8063cf5e7bd31161010a578063cf5e7bd314610cee578063d4cadf6814610d14578063d590510014610d1c578063d73dd62314610d51578063dd62ed3e14610d7d57610454565b8063c36596a6146105d5578063c6580d1214610cd6578063cc77828d14610cde578063cd2ed8fb14610ce657610454565b8063b02f0b73116101c9578063ba019dab1161018d578063ba019dab14610c5e578063bc063e1a14610c66578063bc3d3e3014610c6e578063bc694ea214610c76578063be3bbd2e14610c7e57610454565b8063b02f0b7314610b9a578063b0e0d13614610c11578063b4ddf25114610c19578063b7b800a414610c4e578063b80483b014610c5657610454565b8063948d8ce611610210578063948d8ce614610b0357806395d89b4114610b29578063992e2a9214610b31578063a33adccb14610b39578063a9059cbb14610b6e57610454565b80638ebd29ca14610a8157806392eefe9b14610acd578063936c347714610af35780639381cd2b14610afb57610454565b806346ab38f1116103525780636d06dfa0116102da5780638201aa3f1161029e5780638201aa3f146109b6578063867378c5146109f65780638c28cbe8146109fe5780638c5134a614610a245780638d4e408314610a7957610454565b80636d06dfa0146108d757806370a082311461090957806376c7a3c71461092f5780637c5e9ea4146109375780637c6e92c21461099057610454565b80634f69c0d4116103215780634f69c0d41461079e5780635d14552a146108155780635db342771461084457806366188463146108765780636c2749c7146108a257610454565b806346ab38f11461073d57806349b595521461076f57806349e9350f1461078e5780634bb278f31461079657610454565b806323b872dd116103e0578063313ce567116103a4578063313ce567146106a257806331e2761b146106c057806334e19907146106e6578063392e53cd146107035780633fdddaa21461070b57610454565b806323b872dd146105dd57806326b825d2146106135780632f37b6241461063257806330062192146106585780633018205f1461067e57610454565b80630c78bb4e116104275780630c78bb4e1461056257806315e84af91461059757806318160ddd146105c5578063189d00ca146105cd578063218b5382146105d557610454565b806302c967481461045957806306fdde031461049d578063095ea7b31461051a57806309a3bbe41461055a575b600080fd5b61048b6004803603606081101561046f57600080fd5b506001600160a01b038135169060208101359060400135610ea4565b60408051918252519081900360200190f35b6104a5611209565b6040805160208082528351818301528351919283929083019185019080838360005b838110156104df5781810151838201526020016104c7565b50505050905090810190601f16801561050c5780820380516001836020036101000a031916815260200191505b509250505060405180910390f35b6105466004803603604081101561053057600080fd5b506001600160a01b03813516906020013561129f565b604080519115158252519081900360200190f35b61048b6112f4565b61048b600480360360a081101561057857600080fd5b5080359060208101359060408101359060608101359060800135611301565b61048b600480360360408110156105ad57600080fd5b506001600160a01b03813581169160200135166113cd565b61048b61151e565b61048b611524565b61048b611538565b610546600480360360608110156105f357600080fd5b506001600160a01b03813581169160208101359091169060400135611544565b6106306004803603602081101561062957600080fd5b50356116a9565b005b6105466004803603602081101561064857600080fd5b50356001600160a01b03166118ae565b61048b6004803603602081101561066e57600080fd5b50356001600160a01b03166118cc565b6106866118de565b604080516001600160a01b039092168252519081900360200190f35b6106aa61193a565b6040805160ff9092168252519081900360200190f35b61048b600480360360208110156106d657600080fd5b50356001600160a01b0316611943565b610630600480360360208110156106fc57600080fd5b5035611955565b610546611b5a565b6106306004803603606081101561072157600080fd5b506001600160a01b038135169060208101359060400135611b63565b61048b6004803603606081101561075357600080fd5b506001600160a01b038135169060208101359060400135611fad565b6106306004803603602081101561078557600080fd5b503515156122b3565b61048b612435565b61063061243b565b610630600480360360408110156107b457600080fd5b813591908101906040810160208201356401000000008111156107d657600080fd5b8201836020820111156107e857600080fd5b8035906020019184602083028401116401000000008311171561080a57600080fd5b509092509050612648565b61048b6004803603608081101561082b57600080fd5b5080359060208101359060408101359060600135612933565b61048b6004803603606081101561085a57600080fd5b506001600160a01b0381351690602081013590604001356129a7565b6105466004803603604081101561088c57600080fd5b506001600160a01b038135169060200135612c7f565b61048b600480360360a08110156108b857600080fd5b5080359060208101359060408101359060608101359060800135612d57565b61048b600480360360608110156108ed57600080fd5b506001600160a01b038135169060208101359060400135612df9565b61048b6004803603602081101561091f57600080fd5b50356001600160a01b03166130ff565b61048b61311a565b610977600480360360a081101561094d57600080fd5b506001600160a01b038135811691602081013591604082013516906060810135906080013561312c565b6040805192835260208301919091528051918290030190f35b61048b600480360360208110156109a657600080fd5b50356001600160a01b031661360c565b610977600480360360a08110156109cc57600080fd5b506001600160a01b038135811691602081013591604082013516906060810135906080013561361e565b61048b613ae7565b61063060048036036020811015610a1457600080fd5b50356001600160a01b0316613afb565b6106306004803603610100811015610a3b57600080fd5b506001600160a01b03813581169160208101359160408201359160608101359091169060808101359060a08101359060c08101359060e00135613cae565b610546613e7e565b610546600480360360c0811015610a9757600080fd5b506001600160a01b038135811691602081013590911690604081013590606081013590608081013515159060a001351515613e8e565b61063060048036036020811015610ae357600080fd5b50356001600160a01b0316614060565b61048b6141f1565b61048b614244565b61048b60048036036020811015610b1957600080fd5b50356001600160a01b0316614251565b6104a561431a565b61048b61437b565b61048b600480360360a0811015610b4f57600080fd5b5080359060208101359060408101359060608101359060800135614387565b61054660048036036040811015610b8457600080fd5b506001600160a01b038135169060200135614446565b61063060048036036040811015610bb057600080fd5b81359190810190604081016020820135640100000000811115610bd257600080fd5b820183602082011115610be457600080fd5b80359060200191846020830284011164010000000083111715610c0657600080fd5b50909250905061445c565b61048b6147a5565b61048b600480360360a0811015610c2f57600080fd5b50803590602081013590604081013590606081013590608001356147aa565b61048b61483f565b61048b614844565b61048b61484a565b61048b61484f565b61068661485f565b61048b614873565b610c8661487f565b60408051602080825283518183015283519192839290830191858101910280838360005b83811015610cc2578181015183820152602001610caa565b505050509050019250505060405180910390f35b61048b614979565b610c8661497e565b61048b6149ca565b61063060048036036020811015610d0457600080fd5b50356001600160a01b03166149d0565b61048b614d4f565b61048b600480360360a0811015610d3257600080fd5b5080359060208101359060408101359060608101359060800135614da2565b61054660048036036040811015610d6757600080fd5b506001600160a01b038135169060200135614e18565b61048b60048036036040811015610d9357600080fd5b506001600160a01b0381358116916020013516614e99565b61063060048036036060811015610dc157600080fd5b506001600160a01b038135169060208101359060400135614ec4565b610686615142565b61048b615151565b61048b600480360360a0811015610e0357600080fd5b5080359060208101359060408101359060608101359060800135615161565b61048b60048036036020811015610e3857600080fd5b50356001600160a01b0316615211565b61048b60048036036020811015610e5e57600080fd5b50356001600160a01b03166152ec565b6106866152fe565b61048b60048036036020811015610e8c57600080fd5b50356001600160a01b0316615316565b6105466153df565b6000336001600160a01b03166000356001600160e01b0319166001600160e01b03191660003660405180806020018281038252848482818152602001925080828437600083820152604051601f909101601f19169092018290039550909350505050a2600d5460ff1615610f505760408051600160e51b62461bcd02815260206004820152600b6024820152600080516020616041833981519152604482015290519081900360640190fd5b600d805460ff19166001179055600e54600160a81b900460ff16610fac5760408051600160e51b62461bcd0281526020600482015260116024820152600080516020616021833981519152604482015290519081900360640190fd5b6001600160a01b03841660009081526010602052604090205460ff1661100a5760408051600160e51b62461bcd02815260206004820152600d60248201526000805160206160a1833981519152604482015290519081900360640190fd5b6001600160a01b038416600090815260106020526040902060039081015461103f91670de0b6b3a76400005b046001016153ef565b83111561108d5760408051600160e51b62461bcd0281526020600482015260116024820152600160781b704552525f4d41585f4f55545f524154494f02604482015290519081900360640190fd5b6001600160a01b0384166000908152601060205260409020600381015460028083015490546011546110c29392919088614387565b9150816111075760408051600160e51b62461bcd02815260206004820152600f6024820152600080516020616101833981519152604482015290519081900360640190fd5b828211156111515760408051600160e51b62461bcd02815260206004820152600c6024820152600160a11b6b22a9292fa624a6a4aa2fa4a702604482015290519081900360640190fd5b61115f8160030154856154c4565b6003820155600061117083826153ef565b6040805187815290519192506001600160a01b0388169133917fe74c91552b64c2e2e7bd255639e004e693bd3e1d01cc33e65610b86afcc1ffed919081900360200190a36111be3384615535565b6111d06111cb84836154c4565b615543565b600d546111eb9061010090046001600160a01b03168261554f565b6111f6863387615559565b5050600d805460ff191690559392505050565b60038054604080516020601f60026000196101006001881615020190951694909404938401819004810282018101909252828152606093909290918301828280156112955780601f1061126a57610100808354040283529160200191611295565b820191906000526020600020905b81548152906001019060200180831161127857829003601f168201915b5050505050905090565b3360008181526001602090815260408083206001600160a01b038716808552908352818420869055815186815291519394909390926000805160206160c1833981519152928290030190a35060015b92915050565b6802b5e3af16b188000081565b60008061130e8685615638565b90506000611326670de0b6b3a76400006008546154c4565b905061133284826153ef565b905060006113538561134e670de0b6b3a76400006006546154c4565b6153ef565b9050600061136f8661134e670de0b6b3a76400006007546154c4565b90508282018101600061138b8c6113868185615760565b615638565b9050600061139982886157bd565b905060006113af670de0b6b3a7640000836154c4565b90506113bb8c826153ef565b9e9d5050505050505050505050505050565b600d5460009060ff16156114195760408051600160e51b62461bcd02815260206004820152600b6024820152600080516020616041833981519152604482015290519081900360640190fd5b6001600160a01b03831660009081526010602052604090205460ff166114775760408051600160e51b62461bcd02815260206004820152600d60248201526000805160206160a1833981519152604482015290519081900360640190fd5b6001600160a01b03821660009081526010602052604090205460ff166114d55760408051600160e51b62461bcd02815260206004820152600d60248201526000805160206160a1833981519152604482015290519081900360640190fd5b6001600160a01b03808416600090815260106020526040808220928516825290206003808301546002808501549284015490840154611515939190612933565b95945050505050565b60025490565b6402540be400670de0b6b3a76400005b0481565b670de0b6b3a764000081565b6000336001600160a01b038516148061158057506001600160a01b03841660009081526001602090815260408083203384529091529020548211155b6115d45760408051600160e51b62461bcd02815260206004820152601560248201527f4552525f42544f4b454e5f4241445f43414c4c45520000000000000000000000604482015290519081900360640190fd5b6115df8484846158d5565b336001600160a01b0385161480159061161d57506001600160a01b038416600090815260016020908152604080832033845290915290205460001914155b1561169f576001600160a01b038416600090815260016020908152604080832033845290915290205461165090836154c4565b6001600160a01b03858116600090815260016020908152604080832033808552908352928190208590558051948552519287169391926000805160206160c18339815191529281900390910190a35b5060019392505050565b336001600160a01b03166000356001600160e01b0319166001600160e01b03191660003660405180806020018281038252848482818152602001925080828437600083820152604051601f909101601f19169092018290039550909350505050a2600d5460ff16156117535760408051600160e51b62461bcd02815260206004820152600b6024820152600080516020616041833981519152604482015290519081900360640190fd5b600d805460ff19166001179055600e54600160a81b900460ff16156117b05760408051600160e51b62461bcd02815260206004820152601060248201526000805160206160e1833981519152604482015290519081900360640190fd5b600e546001600160a01b031633146118005760408051600160e51b62461bcd0281526020600482015260126024820152600080516020616081833981519152604482015290519081900360640190fd5b64e8d4a5100081101561184e5760408051600160e51b62461bcd02815260206004820152600b6024820152600160a81b6a4552525f4d494e5f46454502604482015290519081900360640190fd5b67016345785d8a000081111561189f5760408051600160e51b62461bcd02815260206004820152600b6024820152600160a81b6a4552525f4d41585f46454502604482015290519081900360640190fd5b600755600d805460ff19169055565b6001600160a01b031660009081526010602052604090205460ff1690565b60096020526000908152604090205481565b600d5460009060ff161561192a5760408051600160e51b62461bcd02815260206004820152600b6024820152600080516020616041833981519152604482015290519081900360640190fd5b50600e546001600160a01b031690565b60055460ff1690565b600b6020526000908152604090205481565b336001600160a01b03166000356001600160e01b0319166001600160e01b03191660003660405180806020018281038252848482818152602001925080828437600083820152604051601f909101601f19169092018290039550909350505050a2600d5460ff16156119ff5760408051600160e51b62461bcd02815260206004820152600b6024820152600080516020616041833981519152604482015290519081900360640190fd5b600d805460ff19166001179055600e54600160a81b900460ff1615611a5c5760408051600160e51b62461bcd02815260206004820152601060248201526000805160206160e1833981519152604482015290519081900360640190fd5b600e546001600160a01b03163314611aac5760408051600160e51b62461bcd0281526020600482015260126024820152600080516020616081833981519152604482015290519081900360640190fd5b64e8d4a51000811015611afa5760408051600160e51b62461bcd02815260206004820152600b6024820152600160a81b6a4552525f4d494e5f46454502604482015290519081900360640190fd5b67016345785d8a0000811115611b4b5760408051600160e51b62461bcd02815260206004820152600b6024820152600160a81b6a4552525f4d41585f46454502604482015290519081900360640190fd5b600855600d805460ff19169055565b60125460ff1690565b336001600160a01b03166000356001600160e01b0319166001600160e01b03191660003660405180806020018281038252848482818152602001925080828437600083820152604051601f909101601f19169092018290039550909350505050a2600d5460ff1615611c0d5760408051600160e51b62461bcd02815260206004820152600b6024820152600080516020616041833981519152604482015290519081900360640190fd5b600d805460ff19166001179055600e54336001600160a01b0390911614611c6c5760408051600160e51b62461bcd0281526020600482015260126024820152600080516020616081833981519152604482015290519081900360640190fd5b6001600160a01b03831660009081526010602052604090205460ff16611cca5760408051600160e51b62461bcd02815260206004820152600d60248201526000805160206160a1833981519152604482015290519081900360640190fd5b600e54600160a81b900460ff1615611d1a5760408051600160e51b62461bcd02815260206004820152601060248201526000805160206160e1833981519152604482015290519081900360640190fd5b670de0b6b3a7640000811015611d7a5760408051600160e51b62461bcd02815260206004820152600e60248201527f4552525f4d494e5f574549474854000000000000000000000000000000000000604482015290519081900360640190fd5b6802b5e3af16b1880000811115611ddb5760408051600160e51b62461bcd02815260206004820152600e60248201527f4552525f4d41585f574549474854000000000000000000000000000000000000604482015290519081900360640190fd5b620f4240821015611e365760408051600160e51b62461bcd02815260206004820152600f60248201527f4552525f4d494e5f42414c414e43450000000000000000000000000000000000604482015290519081900360640190fd5b6001600160a01b03831660009081526010602052604090206002015480821115611ed957611e6f601154611e6a84846154c4565b615760565b60118190556802b5e3af16b18800001015611ed45760408051600160e51b62461bcd02815260206004820152601460248201527f4552525f4d41585f544f54414c5f574549474854000000000000000000000000604482015290519081900360640190fd5b611efa565b80821015611efa57611ef6601154611ef183856154c4565b6154c4565b6011555b6001600160a01b03841660009081526010602052604090206002810183905560030180549084905580841115611f4357611f3e8533611f3987856154c4565b6159f1565b611f9c565b80841015611f9c576000611f5782866154c4565b90506000611f668260006153ef565b9050611f7c8733611f7785856154c4565b615559565b600d54611f9990889061010090046001600160a01b031683615559565b50505b5050600d805460ff19169055505050565b6000336001600160a01b03166000356001600160e01b0319166001600160e01b03191660003660405180806020018281038252848482818152602001925080828437600083820152604051601f909101601f19169092018290039550909350505050a2600d5460ff16156120595760408051600160e51b62461bcd02815260206004820152600b6024820152600080516020616041833981519152604482015290519081900360640190fd5b600d805460ff19166001179055600e54600160a81b900460ff166120b55760408051600160e51b62461bcd0281526020600482015260116024820152600080516020616021833981519152604482015290519081900360640190fd5b6001600160a01b03841660009081526010602052604090205460ff166121135760408051600160e51b62461bcd02815260206004820152600d60248201526000805160206160a1833981519152604482015290519081900360640190fd5b6001600160a01b0384166000908152601060205260409020600381015460028083015490546011546121489392919088615161565b9150828210156121955760408051600160e51b62461bcd02815260206004820152600d60248201526001609a1b6c11549497d31253525517d3d55502604482015290519081900360640190fd5b6001600160a01b03851660009081526010602052604090206003908101546121c591670de0b6b3a7640000611036565b8211156122135760408051600160e51b62461bcd0281526020600482015260116024820152600160781b704552525f4d41585f4f55545f524154494f02604482015290519081900360640190fd5b6122218160030154836154c4565b6003820155600061223285826153ef565b6040805185815290519192506001600160a01b0388169133917fe74c91552b64c2e2e7bd255639e004e693bd3e1d01cc33e65610b86afcc1ffed919081900360200190a36122803386615535565b61228d6111cb86836154c4565b600d546122a89061010090046001600160a01b03168261554f565b6111f6863385615559565b336001600160a01b03166000356001600160e01b0319166001600160e01b03191660003660405180806020018281038252848482818152602001925080828437600083820152604051601f909101601f19169092018290039550909350505050a2600d5460ff161561235d5760408051600160e51b62461bcd02815260206004820152600b6024820152600080516020616041833981519152604482015290519081900360640190fd5b600d805460ff19166001179055600e54600160a81b900460ff16156123ba5760408051600160e51b62461bcd02815260206004820152601060248201526000805160206160e1833981519152604482015290519081900360640190fd5b600e546001600160a01b0316331461240a5760408051600160e51b62461bcd0281526020600482015260126024820152600080516020616081833981519152604482015290519081900360640190fd5b600e8054911515600160a01b02600160a01b60ff0219909216919091179055600d805460ff19169055565b60075481565b336001600160a01b03166000356001600160e01b0319166001600160e01b03191660003660405180806020018281038252848482818152602001925080828437600083820152604051601f909101601f19169092018290039550909350505050a2600d5460ff16156124e55760408051600160e51b62461bcd02815260206004820152600b6024820152600080516020616041833981519152604482015290519081900360640190fd5b600d805460ff19166001179055600e54336001600160a01b03909116146125445760408051600160e51b62461bcd0281526020600482015260126024820152600080516020616081833981519152604482015290519081900360640190fd5b600e54600160a81b900460ff16156125945760408051600160e51b62461bcd02815260206004820152601060248201526000805160206160e1833981519152604482015290519081900360640190fd5b600f54600211156125ef5760408051600160e51b62461bcd02815260206004820152600e60248201527f4552525f4d494e5f544f4b454e53000000000000000000000000000000000000604482015290519081900360640190fd5b600e8054600160a01b60ff0219600160a81b60ff0219909116600160a81b1716600160a01b17905561262968056bc75e2d63100000615a4d565b61263c3368056bc75e2d6310000061554f565b600d805460ff19169055565b336001600160a01b03166000356001600160e01b0319166001600160e01b03191660003660405180806020018281038252848482818152602001925080828437600083820152604051601f909101601f19169092018290039550909350505050a2600d5460ff16156126f25760408051600160e51b62461bcd02815260206004820152600b6024820152600080516020616041833981519152604482015290519081900360640190fd5b600d805460ff19166001179055600e54600160a81b900460ff1661274e5760408051600160e51b62461bcd0281526020600482015260116024820152600080516020616021833981519152604482015290519081900360640190fd5b600061275861151e565b905060006127668583615638565b9050806127ab5760408051600160e51b62461bcd02815260206004820152600f6024820152600080516020616101833981519152604482015290519081900360640190fd5b60005b600f5481101561291f576000600f82815481106127c757fe5b60009182526020808320909101546001600160a01b031680835260109091526040822060030154909250906127fc85836153ef565b9050806128415760408051600160e51b62461bcd02815260206004820152600f6024820152600080516020616101833981519152604482015290519081900360640190fd5b87878581811061284d57fe5b9050602002013581111561289d5760408051600160e51b62461bcd02815260206004820152600c6024820152600160a11b6b22a9292fa624a6a4aa2fa4a702604482015290519081900360640190fd5b6001600160a01b0383166000908152601060205260409020600301546128c39082615760565b6001600160a01b0384166000818152601060209081526040918290206003019390935580518481529051919233926000805160206160618339815191529281900390910190a36129148333836159f1565b5050506001016127ae565b5061292985615a4d565b611f9c338661554f565b6000806129408686615638565b9050600061294e8585615638565b9050600061295c8383615638565b9050600060065460075460085401019050600061298d670de0b6b3a7640000611386670de0b6b3a7640000856154c4565b905061299983826153ef565b9a9950505050505050505050565b6000336001600160a01b03166000356001600160e01b0319166001600160e01b03191660003660405180806020018281038252848482818152602001925080828437600083820152604051601f909101601f19169092018290039550909350505050a2600d5460ff1615612a535760408051600160e51b62461bcd02815260206004820152600b6024820152600080516020616041833981519152604482015290519081900360640190fd5b600d805460ff19166001179055600e54600160a81b900460ff16612aaf5760408051600160e51b62461bcd0281526020600482015260116024820152600080516020616021833981519152604482015290519081900360640190fd5b6001600160a01b03841660009081526010602052604090205460ff16612b0d5760408051600160e51b62461bcd02815260206004820152600d60248201526000805160206160a1833981519152604482015290519081900360640190fd5b6001600160a01b038416600090815260106020526040902060030154612b3f906002670de0b6b3a76400005b046153ef565b831115612b8c5760408051600160e51b62461bcd0281526020600482015260106024820152600160801b6f4552525f4d41585f494e5f524154494f02604482015290519081900360640190fd5b6001600160a01b038416600090815260106020526040902060038101546002808301549054601154612bc193929190886147aa565b915082821015612c0e5760408051600160e51b62461bcd02815260206004820152600d60248201526001609a1b6c11549497d31253525517d3d55502604482015290519081900360640190fd5b612c1c816003015485615760565b60038201556040805185815290516001600160a01b0387169133916000805160206160618339815191529181900360200190a3612c5882615a4d565b612c62338361554f565b612c6d8533866159f1565b50600d805460ff191690559392505050565b3360009081526001602090815260408083206001600160a01b038616845290915281205480831115612cd4573360009081526001602090815260408083206001600160a01b0388168452909152812055612d03565b612cde81846154c4565b3360009081526001602090815260408083206001600160a01b03891684529091529020555b3360008181526001602090815260408083206001600160a01b0389168085529083529281902054815190815290519293926000805160206160c1833981519152929181900390910190a35060019392505050565b600080612d648685615638565b90506000612d728685615760565b90506000612d808288615638565b90506000612d96670de0b6b3a764000085615638565b90506000612da483836157bd565b90506000612db2828d6153ef565b90506000612dc0828e6154c4565b90506000612de1612dd9670de0b6b3a76400008a6154c4565b6008546153ef565b90506113bb82611386670de0b6b3a7640000846154c4565b6000336001600160a01b03166000356001600160e01b0319166001600160e01b03191660003660405180806020018281038252848482818152602001925080828437600083820152604051601f909101601f19169092018290039550909350505050a2600d5460ff1615612ea55760408051600160e51b62461bcd02815260206004820152600b6024820152600080516020616041833981519152604482015290519081900360640190fd5b600d805460ff19166001179055600e54600160a81b900460ff16612f015760408051600160e51b62461bcd0281526020600482015260116024820152600080516020616021833981519152604482015290519081900360640190fd5b6001600160a01b03841660009081526010602052604090205460ff16612f5f5760408051600160e51b62461bcd02815260206004820152600d60248201526000805160206160a1833981519152604482015290519081900360640190fd5b6001600160a01b038416600090815260106020526040902060038101546002808301549054601154612f949392919088612d57565b915081612fd95760408051600160e51b62461bcd02815260206004820152600f6024820152600080516020616101833981519152604482015290519081900360640190fd5b828211156130235760408051600160e51b62461bcd02815260206004820152600c6024820152600160a11b6b22a9292fa624a6a4aa2fa4a702604482015290519081900360640190fd5b6001600160a01b038516600090815260106020526040902060030154613053906002670de0b6b3a7640000612b39565b8211156130a05760408051600160e51b62461bcd0281526020600482015260106024820152600160801b6f4552525f4d41585f494e5f524154494f02604482015290519081900360640190fd5b6130ae816003015483615760565b60038201556040805183815290516001600160a01b0387169133916000805160206160618339815191529181900360200190a36130ea84615a4d565b6130f4338561554f565b612c6d8533846159f1565b6001600160a01b031660009081526020819052604090205490565b620f4240670de0b6b3a7640000611534565b60408051602080825236908201819052600092839233926001600160e01b03198535169285929081908101848480828437600083820152604051601f909101601f19169092018290039550909350505050a2600d5460ff16156131c75760408051600160e51b62461bcd02815260206004820152600b6024820152600080516020616041833981519152604482015290519081900360640190fd5b600d805460ff191660011790556001600160a01b03871660009081526010602052604090205460ff166132325760408051600160e51b62461bcd02815260206004820152600d60248201526000805160206160a1833981519152604482015290519081900360640190fd5b6001600160a01b03851660009081526010602052604090205460ff166132905760408051600160e51b62461bcd02815260206004820152600d60248201526000805160206160a1833981519152604482015290519081900360640190fd5b600e54600160a01b900460ff166132f15760408051600160e51b62461bcd02815260206004820152601360248201527f4552525f535741505f4e4f545f5055424c494300000000000000000000000000604482015290519081900360640190fd5b6001600160a01b038088166000908152601060205260408082209288168252902060038082015461332a91670de0b6b3a7640000611036565b8611156133785760408051600160e51b62461bcd0281526020600482015260116024820152600160781b704552525f4d41585f4f55545f524154494f02604482015290519081900360640190fd5b60006133968360030154846002015484600301548560020154612933565b9050858111156133f05760408051600160e51b62461bcd02815260206004820152601360248201527f4552525f4241445f4c494d49545f505249434500000000000000000000000000604482015290519081900360640190fd5b61340d83600301548460020154846003015485600201548b614da2565b9450888511156134595760408051600160e51b62461bcd02815260206004820152600c6024820152600160a11b6b22a9292fa624a6a4aa2fa4a702604482015290519081900360640190fd5b613467836003015486615760565b836003018190555061347d8260030154886154c4565b60038084018290558401546002808601549085015461349c9390612933565b9350808410156134e45760408051600160e51b62461bcd02815260206004820152600f6024820152600080516020616101833981519152604482015290519081900360640190fd5b858411156135315760408051600160e51b62461bcd02815260206004820152600f6024820152600160881b6e4552525f4c494d49545f505249434502604482015290519081900360640190fd5b61353b8588615638565b8111156135805760408051600160e51b62461bcd02815260206004820152600f6024820152600080516020616101833981519152604482015290519081900360640190fd5b876001600160a01b03168a6001600160a01b0316336001600160a01b03167f908fb5ee8f16c6bc9bc3690973819f32a4d4b10188134543c88706e0e1d43378888b604051808381526020018281526020019250505060405180910390a46135e88a33876159f1565b6135f3883389615559565b505050600d805460ff1916905590969095509350505050565b600a6020526000908152604090205481565b60408051602080825236908201819052600092839233926001600160e01b03198535169285929081908101848480828437600083820152604051601f909101601f19169092018290039550909350505050a2600d5460ff16156136b95760408051600160e51b62461bcd02815260206004820152600b6024820152600080516020616041833981519152604482015290519081900360640190fd5b600d805460ff191660011790556001600160a01b03871660009081526010602052604090205460ff166137245760408051600160e51b62461bcd02815260206004820152600d60248201526000805160206160a1833981519152604482015290519081900360640190fd5b6001600160a01b03851660009081526010602052604090205460ff166137825760408051600160e51b62461bcd02815260206004820152600d60248201526000805160206160a1833981519152604482015290519081900360640190fd5b600e54600160a01b900460ff166137e35760408051600160e51b62461bcd02815260206004820152601360248201527f4552525f535741505f4e4f545f5055424c494300000000000000000000000000604482015290519081900360640190fd5b6001600160a01b0380881660009081526010602052604080822092881682529020600382015461381d906002670de0b6b3a7640000612b39565b88111561386a5760408051600160e51b62461bcd0281526020600482015260106024820152600160801b6f4552525f4d41585f494e5f524154494f02604482015290519081900360640190fd5b60006138888360030154846002015484600301548560020154612933565b9050858111156138e25760408051600160e51b62461bcd02815260206004820152601360248201527f4552525f4241445f4c494d49545f505249434500000000000000000000000000604482015290519081900360640190fd5b61390083600301548460020154846003015485600201548d8f615a56565b94508685101561394d5760408051600160e51b62461bcd02815260206004820152600d60248201526001609a1b6c11549497d31253525517d3d55502604482015290519081900360640190fd5b61395b83600301548a615760565b83600301819055506139718260030154866154c4565b6003808401829055840154600280860154908501546139909390612933565b9350808410156139d85760408051600160e51b62461bcd02815260206004820152600f6024820152600080516020616101833981519152604482015290519081900360640190fd5b85841115613a255760408051600160e51b62461bcd02815260206004820152600f6024820152600160881b6e4552525f4c494d49545f505249434502604482015290519081900360640190fd5b613a2f8986615638565b811115613a745760408051600160e51b62461bcd02815260206004820152600f6024820152600080516020616101833981519152604482015290519081900360640190fd5b876001600160a01b03168a6001600160a01b0316336001600160a01b03167f908fb5ee8f16c6bc9bc3690973819f32a4d4b10188134543c88706e0e1d433788c89604051808381526020018281526020019250505060405180910390a4613adc8a338b6159f1565b6135f3883387615559565b64e8d4a51000670de0b6b3a7640000611534565b336001600160a01b03166000356001600160e01b0319166001600160e01b03191660003660405180806020018281038252848482818152602001925080828437600083820152604051601f909101601f19169092018290039550909350505050a2600d5460ff1615613ba55760408051600160e51b62461bcd02815260206004820152600b6024820152600080516020616041833981519152604482015290519081900360640190fd5b600d805460ff191660011790556001600160a01b03811660009081526010602052604090205460ff16613c105760408051600160e51b62461bcd02815260206004820152600d60248201526000805160206160a1833981519152604482015290519081900360640190fd5b60408051600160e01b6370a0823102815230600482015290516001600160a01b038316916370a08231916024808301926020929190829003018186803b158015613c5957600080fd5b505afa158015613c6d573d6000803e3d6000fd5b505050506040513d6020811015613c8357600080fd5b50516001600160a01b03909116600090815260106020526040902060030155600d805460ff19169055565b336001600160a01b03166000356001600160e01b0319166001600160e01b03191660003660405180806020018281038252848482818152602001925080828437600083820152604051601f909101601f19169092018290039550909350505050a26001600160a01b038816613d6d5760408051600160e51b62461bcd02815260206004820152601d60248201527f4552525f494e56414c49445f44415441544f4b454e5f41444452455353000000604482015290519081900360640190fd5b6001600160a01b038516613dcb5760408051600160e51b62461bcd02815260206004820152601d60248201527f4552525f494e56414c49445f42415345544f4b454e5f41444452455353000000604482015290519081900360640190fd5b613dd6888888614ec4565b6040805188815290516001600160a01b038a169133916000805160206160618339815191529181900360200190a3613e0f858585614ec4565b6040805185815290516001600160a01b0387169133916000805160206160618339815191529181900360200190a3613e4682611955565b613e4f816116a9565b6013546001600160a01b03868116911614613e6c57613e6c615b87565b613e7461243b565b5050505050505050565b600e54600160a81b900460ff1690565b60125460009060ff1615613eec5760408051600160e51b62461bcd02815260206004820152601760248201527f4552525f414c52454144595f494e495449414c495a4544000000000000000000604482015290519081900360640190fd5b6001600160a01b038716613f4a5760408051600160e51b62461bcd02815260206004820152601e60248201527f4552525f494e56414c49445f434f4e54524f4c4c45525f414444524553530000604482015290519081900360640190fd5b6001600160a01b038616613fa85760408051600160e51b62461bcd02815260206004820152601b60248201527f4552525f494e56414c49445f464143544f52595f414444524553530000000000604482015290519081900360640190fd5b64e8d4a51000851015613ff65760408051600160e51b62461bcd02815260206004820152600b6024820152600160a81b6a4552525f4d494e5f46454502604482015290519081900360640190fd5b67016345785d8a00008511156140475760408051600160e51b62461bcd02815260206004820152600b6024820152600160a81b6a4552525f4d41585f46454502604482015290519081900360640190fd5b614055878787878787615ca0565b979650505050505050565b336001600160a01b03166000356001600160e01b0319166001600160e01b03191660003660405180806020018281038252848482818152602001925080828437600083820152604051601f909101601f19169092018290039550909350505050a2600d5460ff161561410a5760408051600160e51b62461bcd02815260206004820152600b6024820152600080516020616041833981519152604482015290519081900360640190fd5b600d805460ff191660011790556001600160a01b0381166141755760408051600160e51b62461bcd02815260206004820152601b60248201527f4552525f494e56414c49445f4d414e414745525f414444524553530000000000604482015290519081900360640190fd5b600e546001600160a01b031633146141c55760408051600160e51b62461bcd0281526020600482015260126024820152600080516020616081833981519152604482015290519081900360640190fd5b600e80546001600160a01b0319166001600160a01b0392909216919091179055600d805460ff19169055565b600d5460009060ff161561423d5760408051600160e51b62461bcd02815260206004820152600b6024820152600080516020616041833981519152604482015290519081900360640190fd5b5060115490565b68056bc75e2d6310000081565b600d5460009060ff161561429d5760408051600160e51b62461bcd02815260206004820152600b6024820152600080516020616041833981519152604482015290519081900360640190fd5b6001600160a01b03821660009081526010602052604090205460ff166142fb5760408051600160e51b62461bcd02815260206004820152600d60248201526000805160206160a1833981519152604482015290519081900360640190fd5b506001600160a01b031660009081526010602052604090206002015490565b60048054604080516020601f60026000196101006001881615020190951694909404938401819004810282018101909252828152606093909290918301828280156112955780601f1061126a57610100808354040283529160200191611295565b6704a03ce68d21555681565b6000806143948685615638565b905060006143aa670de0b6b3a7640000836154c4565b905060006143ba826008546153ef565b905060006143d486611386670de0b6b3a7640000856154c4565b905060006143e28b836154c4565b905060006143f0828d615638565b905060006143fe82886157bd565b9050600061440c828d6153ef565b9050600061441a8d836154c4565b905061443381611386670de0b6b3a764000060006154c4565b9f9e505050505050505050505050505050565b60006144533384846158d5565b50600192915050565b336001600160a01b03166000356001600160e01b0319166001600160e01b03191660003660405180806020018281038252848482818152602001925080828437600083820152604051601f909101601f19169092018290039550909350505050a2600d5460ff16156145065760408051600160e51b62461bcd02815260206004820152600b6024820152600080516020616041833981519152604482015290519081900360640190fd5b600d805460ff19166001179055600e54600160a81b900460ff166145625760408051600160e51b62461bcd0281526020600482015260116024820152600080516020616021833981519152604482015290519081900360640190fd5b600061456c61151e565b9050600061457b8560006153ef565b9050600061458986836154c4565b905060006145978285615638565b9050806145dc5760408051600160e51b62461bcd02815260206004820152600f6024820152600080516020616101833981519152604482015290519081900360640190fd5b6145e63388615535565b600d546146019061010090046001600160a01b03168461554f565b61460a82615543565b60005b600f54811015614791576000600f828154811061462657fe5b60009182526020808320909101546001600160a01b0316808352601090915260408220600301549092509061465b85836153ef565b9050806146a05760408051600160e51b62461bcd02815260206004820152600f6024820152600080516020616101833981519152604482015290519081900360640190fd5b8989858181106146ac57fe5b905060200201358110156146fd5760408051600160e51b62461bcd02815260206004820152600d60248201526001609a1b6c11549497d31253525517d3d55502604482015290519081900360640190fd5b6001600160a01b03831660009081526010602052604090206003015461472390826154c4565b6001600160a01b0384166000818152601060209081526040918290206003019390935580518481529051919233927fe74c91552b64c2e2e7bd255639e004e693bd3e1d01cc33e65610b86afcc1ffed9281900390910190a3614786833383615559565b50505060010161460d565b5050600d805460ff19169055505050505050565b600881565b6000806147b78685615638565b905060006147d0612dd9670de0b6b3a7640000846154c4565b905060006147ea8561134e670de0b6b3a7640000856154c4565b905060006147f88a83615760565b90506000614806828c615638565b9050600061481482876157bd565b90506000614822828c6153ef565b905061482e818c6154c4565b9d9c50505050505050505050505050565b600281565b60065481565b600181565b600a670de0b6b3a7640000611534565b60125461010090046001600160a01b031681565b671bc16d674ec7ffff81565b600d5460609060ff16156148cb5760408051600160e51b62461bcd02815260206004820152600b6024820152600080516020616041833981519152604482015290519081900360640190fd5b600e54600160a81b900460ff1661491a5760408051600160e51b62461bcd0281526020600482015260116024820152600080516020616021833981519152604482015290519081900360640190fd5b600f80548060200260200160405190810160405280929190818152602001828054801561129557602002820191906000526020600020905b81546001600160a01b03168152600190910190602001808311614952575050505050905090565b600081565b600d5460609060ff161561491a5760408051600160e51b62461bcd02815260206004820152600b6024820152600080516020616041833981519152604482015290519081900360640190fd5b600f5490565b336001600160a01b03166000356001600160e01b0319166001600160e01b03191660003660405180806020018281038252848482818152602001925080828437600083820152604051601f909101601f19169092018290039550909350505050a2600d5460ff1615614a7a5760408051600160e51b62461bcd02815260206004820152600b6024820152600080516020616041833981519152604482015290519081900360640190fd5b600d805460ff19166001179055600e54336001600160a01b0390911614614ad95760408051600160e51b62461bcd0281526020600482015260126024820152600080516020616081833981519152604482015290519081900360640190fd5b6001600160a01b03811660009081526010602052604090205460ff16614b375760408051600160e51b62461bcd02815260206004820152600d60248201526000805160206160a1833981519152604482015290519081900360640190fd5b600e54600160a81b900460ff1615614b875760408051600160e51b62461bcd02815260206004820152601060248201526000805160206160e1833981519152604482015290519081900360640190fd5b6001600160a01b03811660009081526010602052604081206003015490614bae82826153ef565b6011546001600160a01b038516600090815260106020526040902060020154919250614bd9916154c4565b6011556001600160a01b038316600090815260106020526040902060010154600f80546000198101919082908110614c0d57fe5b600091825260209091200154600f80546001600160a01b039092169184908110614c3357fe5b9060005260206000200160006101000a8154816001600160a01b0302191690836001600160a01b031602179055508160106000600f8581548110614c7357fe5b60009182526020808320909101546001600160a01b03168352820192909252604001902060010155600f805480614ca657fe5b60008281526020808220600019908401810180546001600160a01b031916905590920190925560408051608081018252838152808301848152818301858152606083018681526001600160a01b038c1687526010909552929094209051815460ff19169015151781559251600184015551600283015551600390910155614d328533611f7787876154c4565b600d54611f9c90869061010090046001600160a01b031685615559565b600d5460009060ff1615614d9b5760408051600160e51b62461bcd02815260206004820152600b6024820152600080516020616041833981519152604482015290519081900360640190fd5b5060085490565b600080614daf8487615638565b90506000614dbd86856154c4565b90506000614dcb8783615638565b90506000614dd982856157bd565b9050614ded81670de0b6b3a76400006154c4565b9050614e03670de0b6b3a76400006008546154c4565b9450612999614e128b836153ef565b86615638565b3360009081526001602090815260408083206001600160a01b0386168452909152812054614e469083615760565b3360008181526001602090815260408083206001600160a01b0389168085529083529281902085905580519485525191936000805160206160c1833981519152929081900390910190a350600192915050565b6001600160a01b03918216600090815260016020908152604080832093909416825291909152205490565b336001600160a01b03166000356001600160e01b0319166001600160e01b03191660003660405180806020018281038252848482818152602001925080828437600083820152604051601f909101601f19169092018290039550909350505050a2600e546001600160a01b03163314614f755760408051600160e51b62461bcd0281526020600482015260126024820152600080516020616081833981519152604482015290519081900360640190fd5b6001600160a01b03831660009081526010602052604090205460ff1615614fe65760408051600160e51b62461bcd02815260206004820152600c60248201527f4552525f49535f424f554e440000000000000000000000000000000000000000604482015290519081900360640190fd5b600e54600160a81b900460ff16156150365760408051600160e51b62461bcd02815260206004820152601060248201526000805160206160e1833981519152604482015290519081900360640190fd5b600f546008116150905760408051600160e51b62461bcd02815260206004820152600e60248201527f4552525f4d41585f544f4b454e53000000000000000000000000000000000000604482015290519081900360640190fd5b604080516080810182526001808252600f805460208085019182526000858701818152606087018281526001600160a01b038c1680845260109094529782209651875460ff1916901515178755925186860155915160028601559451600390940193909355805491820181559091527f8d1108e10bcb7c27dddfc02ed9d693a074039d026cf4ea4240b40f7d581ac8020180546001600160a01b031916909117905561513d838383611b63565b505050565b6013546001600160a01b031681565b6002670de0b6b3a7640000611534565b60008061516e8685615638565b905060006151898461134e670de0b6b3a764000060006154c4565b9050600061519787836154c4565b905060006151a58289615638565b905060006151c4826151bf670de0b6b3a764000088615638565b6157bd565b905060006151d2828d6153ef565b905060006151e08d836154c4565b905060006151f9612dd9670de0b6b3a76400008a6154c4565b90506113bb8261134e670de0b6b3a7640000846154c4565b600d5460009060ff161561525d5760408051600160e51b62461bcd02815260206004820152600b6024820152600080516020616041833981519152604482015290519081900360640190fd5b6001600160a01b03821660009081526010602052604090205460ff166152bb5760408051600160e51b62461bcd02815260206004820152600d60248201526000805160206160a1833981519152604482015290519081900360640190fd5b6001600160a01b0382166000908152601060205260409020600201546011546152e5908290615638565b9392505050565b600c6020526000908152604090205481565b73ee9300b7961e0a01d9f0adb863c7a227a07aad7581565b600d5460009060ff16156153625760408051600160e51b62461bcd02815260206004820152600b6024820152600080516020616041833981519152604482015290519081900360640190fd5b6001600160a01b03821660009081526010602052604090205460ff166153c05760408051600160e51b62461bcd02815260206004820152600d60248201526000805160206160a1833981519152604482015290519081900360640190fd5b506001600160a01b031660009081526010602052604090206003015490565b600e54600160a01b900460ff1690565b600082820283158061540957508284828161540657fe5b04145b6154535760408051600160e51b62461bcd0281526020600482015260106024820152600160801b6f4552525f4d554c5f4f564552464c4f5702604482015290519081900360640190fd5b6706f05b59d3b200008101818110156154ac5760408051600160e51b62461bcd0281526020600482015260106024820152600160801b6f4552525f4d554c5f4f564552464c4f5702604482015290519081900360640190fd5b6000670de0b6b3a7640000825b049695505050505050565b60008060006154d38585615d2d565b91509150801561552d5760408051600160e51b62461bcd02815260206004820152601160248201527f4552525f5355425f554e444552464c4f57000000000000000000000000000000604482015290519081900360640190fd5b509392505050565b61553f8282615d52565b5050565b61554c81615d5d565b50565b61553f8282615e39565b60408051600160e01b63a9059cbb0281526001600160a01b03848116600483015260248201849052915160009286169163a9059cbb91604480830192602092919082900301818787803b1580156155af57600080fd5b505af11580156155c3573d6000803e3d6000fd5b505050506040513d60208110156155d957600080fd5b50519050806156325760408051600160e51b62461bcd02815260206004820152600f60248201527f4552525f45524332305f46414c53450000000000000000000000000000000000604482015290519081900360640190fd5b50505050565b60008161568f5760408051600160e51b62461bcd02815260206004820152600c60248201527f4552525f4449565f5a45524f0000000000000000000000000000000000000000604482015290519081900360640190fd5b670de0b6b3a764000083028315806156b75750670de0b6b3a76400008482816156b457fe5b04145b6157015760408051600160e51b62461bcd0281526020600482015260106024820152600160821b6f11549497d1125597d25395115493905302604482015290519081900360640190fd5b600283048101818110156157555760408051600160e51b62461bcd0281526020600482015260106024820152600160821b6f11549497d1125597d25395115493905302604482015290519081900360640190fd5b60008482816154b957fe5b6000828201838110156152e55760408051600160e51b62461bcd02815260206004820152601060248201527f4552525f4144445f4f564552464c4f5700000000000000000000000000000000604482015290519081900360640190fd5b600060018310156158185760408051600160e51b62461bcd02815260206004820152601560248201527f4552525f42504f575f424153455f544f4f5f4c4f570000000000000000000000604482015290519081900360640190fd5b671bc16d674ec7ffff8311156158785760408051600160e51b62461bcd02815260206004820152601660248201527f4552525f42504f575f424153455f544f4f5f4849474800000000000000000000604482015290519081900360640190fd5b600061588383615e44565b9050600061589184836154c4565b905060006158a7866158a285615e5f565b615e6d565b9050816158b85792506112ee915050565b60006158c987846305f5e100615ecd565b905061405582826153ef565b6001600160a01b0383166000908152602081905260409020548111156159455760408051600160e51b62461bcd02815260206004820152601460248201527f4552525f494e53554646494349454e545f42414c000000000000000000000000604482015290519081900360640190fd5b6001600160a01b03831660009081526020819052604090205461596890826154c4565b6001600160a01b0380851660009081526020819052604080822093909355908416815220546159979082615760565b6001600160a01b038084166000818152602081815260409182902094909455805185815290519193928716927fddf252ad1be2c89b69c2b068fc378daa952ba7f163c4a11628f55a4df523b3ef92918290030190a3505050565b60408051600160e01b6323b872dd0281526001600160a01b0384811660048301523060248301526044820184905291516000928616916323b872dd91606480830192602092919082900301818787803b1580156155af57600080fd5b61554c81615fab565b600080615a638786615638565b90506000615a7b670de0b6b3a76400006008546154c4565b9050615a8785826153ef565b90506000615aa38661134e670de0b6b3a76400006006546154c4565b6001600160a01b038616600090815260096020526040902054909150615ac99082615760565b6001600160a01b038616600090815260096020526040812091909155600754615b0190889061134e90670de0b6b3a7640000906154c4565b6001600160a01b0387166000908152600b6020526040902054909150615b279082615760565b6001600160a01b0387166000908152600b6020526040812091909155838301820190615b578d6113868185615760565b90506000615b6582886157bd565b90506000615b7b670de0b6b3a7640000836154c4565b90506144338d826153ef565b336001600160a01b03166000356001600160e01b0319166001600160e01b03191660003660405180806020018281038252848482818152602001925080828437600083820152604051601f909101601f19169092018290039550909350505050a2600d5460ff1615615c315760408051600160e51b62461bcd02815260206004820152600b6024820152600080516020616041833981519152604482015290519081900360640190fd5b600d805460ff19166001179055600e54600160a81b900460ff1615615c8e5760408051600160e51b62461bcd02815260206004820152601060248201526000805160206160e1833981519152604482015290519081900360640190fd5b612710600655600d805460ff19169055565b600e8054600d8054610100600160a81b0319166101006001600160a01b03998a16021790556008959095556006939093556001600160a01b03199093169490931693909317600160a01b60ff021916600160a01b9215159290920291909117600160a81b60ff021916600160a81b911515919091021790556012805460ff19166001179081905560ff1690565b600080828410615d435750508082036000615d4b565b505081810360015b9250929050565b61553f8230836158d5565b30600090815260208190526040902054811115615dc45760408051600160e51b62461bcd02815260206004820152601460248201527f4552525f494e53554646494349454e545f42414c000000000000000000000000604482015290519081900360640190fd5b30600090815260208190526040902054615dde90826154c4565b30600090815260208190526040902055600254615dfb90826154c4565b60025560408051828152905160009130917fddf252ad1be2c89b69c2b068fc378daa952ba7f163c4a11628f55a4df523b3ef9181900360200190a350565b61553f3083836158d5565b6000670de0b6b3a7640000615e5883615e5f565b0292915050565b670de0b6b3a7640000900490565b6000828160028406615e8757670de0b6b3a7640000615e89565b815b90506002840493505b8315615ec557615ea282836153ef565b91506002840615615eba57615eb781836153ef565b90505b600284049350615e92565b949350505050565b6000828180615ee487670de0b6b3a7640000615d2d565b9092509050670de0b6b3a764000080600060015b888410615f9c576000670de0b6b3a764000082029050600080615f2c8a615f2785670de0b6b3a76400006154c4565b615d2d565b91509150615f3e8761134e848c6153ef565b9650615f4a8784615638565b965086615f5957505050615f9c565b8715615f63579315935b8015615f6d579315935b8415615f8457615f7d86886154c4565b9550615f91565b615f8e8688615760565b95505b505050600101615ef8565b50909998505050505050505050565b30600090815260208190526040902054615fc59082615760565b30600090815260208190526040902055600254615fe29082615760565b60025560408051828152905130916000917fddf252ad1be2c89b69c2b068fc378daa952ba7f163c4a11628f55a4df523b3ef9181900360200190a35056fe4552525f4e4f545f46494e414c495a45440000000000000000000000000000004552525f5245454e54525900000000000000000000000000000000000000000063982df10efd8dfaaaa0fcc7f50b2d93b7cba26ccc48adee2873220d485dc39a4552525f4e4f545f434f4e54524f4c4c455200000000000000000000000000004552525f4e4f545f424f554e44000000000000000000000000000000000000008c5be1e5ebec7d5bd14f71427d1e84f3dd0314c0f7b2291e5b200ac8c7c3b9254552525f49535f46494e414c495a4544000000000000000000000000000000004552525f4d4154485f415050524f580000000000000000000000000000000000a165627a7a723058206dfabe8ec241ae478822e282f02166b10ec5a3171f770230df7acca8aaaf51430029",
  "linkReferences": {},
  "deployedLinkReferences": {}
}