{
  "_format": "hh-sol-artifact-1",
  "contractName": "FactoryRouter",
  "sourceName": "contracts/v3/balancer/FactoryRouter.sol",
  "abi": [
    {
      "constant": false,
      "inputs": [
        {
          "name": "oceanTokenAddress",
          "type": "address"
        }
      ],
      "name": "addOceanToken",
      "outputs": [],
      "payable": false,
      "stateMutability": "nonpayable",
      "type": "function"
    },
    {
      "constant": false,
      "inputs": [
        {
          "name": "_factory",
          "type": "address"
        }
      ],
      "name": "addERC20Factory",
      "outputs": [],
      "payable": false,
      "stateMutability": "nonpayable",
      "type": "function"
    },
    {
      "constant": true,
      "inputs": [],
      "name": "MAX_TOTAL_WEIGHT",
      "outputs": [
        {
          "name": "",
          "type": "uint256"
        }
      ],
      "payable": false,
      "stateMutability": "view",
      "type": "function"
    },
    {
      "constant": false,
      "inputs": [
        {
          "name": "_fixedRate",
          "type": "address"
        }
      ],
      "name": "addFixedRateContract",
      "outputs": [],
      "payable": false,
      "stateMutability": "nonpayable",
      "type": "function"
    },
    {
      "constant": true,
      "inputs": [],
      "name": "BPOW_PRECISION",
      "outputs": [
        {
          "name": "",
          "type": "uint256"
        }
      ],
      "payable": false,
      "stateMutability": "view",
      "type": "function"
    },
    {
      "constant": true,
      "inputs": [],
      "name": "MIN_WEIGHT",
      "outputs": [
        {
          "name": "",
          "type": "uint256"
        }
      ],
      "payable": false,
      "stateMutability": "view",
      "type": "function"
    },
    {
      "constant": false,
      "inputs": [
        {
          "name": "basetokenAddress",
          "type": "address"
        },
        {
          "name": "basetokenDecimals",
          "type": "uint8"
        },
        {
          "name": "rate",
          "type": "uint256"
        },
        {
          "name": "owner",
          "type": "address"
        },
        {
          "name": "marketFee",
          "type": "uint256"
        },
        {
          "name": "marketFeeCollector",
          "type": "address"
        }
      ],
      "name": "deployFixedRate",
      "outputs": [
        {
          "name": "exchangeId",
          "type": "bytes32"
        }
      ],
      "payable": false,
      "stateMutability": "nonpayable",
      "type": "function"
    },
    {
      "constant": false,
      "inputs": [
        {
          "name": "_ssContract",
          "type": "address"
        }
      ],
      "name": "addSSContract",
      "outputs": [],
      "payable": false,
      "stateMutability": "nonpayable",
      "type": "function"
    },
    {
      "constant": true,
      "inputs": [],
      "name": "MIN_FEE",
      "outputs": [
        {
          "name": "",
          "type": "uint256"
        }
      ],
      "payable": false,
      "stateMutability": "view",
      "type": "function"
    },
    {
      "constant": true,
      "inputs": [
        {
          "name": "",
          "type": "address"
        }
      ],
      "name": "oceanTokens",
      "outputs": [
        {
          "name": "",
          "type": "bool"
        }
      ],
      "payable": false,
      "stateMutability": "view",
      "type": "function"
    },
    {
      "constant": true,
      "inputs": [],
      "name": "fixedRate",
      "outputs": [
        {
          "name": "",
          "type": "address"
        }
      ],
      "payable": false,
      "stateMutability": "view",
      "type": "function"
    },
    {
      "constant": true,
      "inputs": [],
      "name": "routerOwner",
      "outputs": [
        {
          "name": "",
          "type": "address"
        }
      ],
      "payable": false,
      "stateMutability": "view",
      "type": "function"
    },
    {
      "constant": true,
      "inputs": [],
      "name": "MIN_BALANCE",
      "outputs": [
        {
          "name": "",
          "type": "uint256"
        }
      ],
      "payable": false,
      "stateMutability": "view",
      "type": "function"
    },
    {
      "constant": true,
      "inputs": [],
      "name": "INIT_POOL_SUPPLY",
      "outputs": [
        {
          "name": "",
          "type": "uint256"
        }
      ],
      "payable": false,
      "stateMutability": "view",
      "type": "function"
    },
    {
      "constant": true,
      "inputs": [],
      "name": "MAX_OUT_RATIO",
      "outputs": [
        {
          "name": "",
          "type": "uint256"
        }
      ],
      "payable": false,
      "stateMutability": "view",
      "type": "function"
    },
    {
      "constant": true,
      "inputs": [],
      "name": "opfCollector",
      "outputs": [
        {
          "name": "",
          "type": "address"
        }
      ],
      "payable": false,
      "stateMutability": "view",
      "type": "function"
    },
    {
      "constant": false,
      "inputs": [
        {
          "name": "controller",
          "type": "address"
        },
        {
          "name": "tokens",
          "type": "address[2]"
        },
        {
          "name": "publisherAddress",
          "type": "address"
        },
        {
          "name": "ssParams",
          "type": "uint256[]"
        },
        {
          "name": "basetokenSender",
          "type": "address"
        },
        {
          "name": "swapFees",
          "type": "uint256[]"
        },
        {
          "name": "marketFeeCollector",
          "type": "address"
        }
      ],
      "name": "deployPool",
      "outputs": [
        {
          "name": "",
          "type": "address"
        }
      ],
      "payable": false,
      "stateMutability": "nonpayable",
      "type": "function"
    },
    {
      "constant": true,
      "inputs": [],
      "name": "MAX_BOUND_TOKENS",
      "outputs": [
        {
          "name": "",
          "type": "uint256"
        }
      ],
      "payable": false,
      "stateMutability": "view",
      "type": "function"
    },
    {
      "constant": true,
      "inputs": [],
      "name": "MIN_BOUND_TOKENS",
      "outputs": [
        {
          "name": "",
          "type": "uint256"
        }
      ],
      "payable": false,
      "stateMutability": "view",
      "type": "function"
    },
    {
      "constant": true,
      "inputs": [],
      "name": "MIN_BPOW_BASE",
      "outputs": [
        {
          "name": "",
          "type": "uint256"
        }
      ],
      "payable": false,
      "stateMutability": "view",
      "type": "function"
    },
    {
      "constant": true,
      "inputs": [],
      "name": "bpoolTemplate",
      "outputs": [
        {
          "name": "",
          "type": "address"
        }
      ],
      "payable": false,
      "stateMutability": "view",
      "type": "function"
    },
    {
      "constant": true,
      "inputs": [],
      "name": "MAX_FEE",
      "outputs": [
        {
          "name": "",
          "type": "uint256"
        }
      ],
      "payable": false,
      "stateMutability": "view",
      "type": "function"
    },
    {
      "constant": true,
      "inputs": [],
      "name": "MAX_BPOW_BASE",
      "outputs": [
        {
          "name": "",
          "type": "uint256"
        }
      ],
      "payable": false,
      "stateMutability": "view",
      "type": "function"
    },
    {
      "constant": true,
      "inputs": [],
      "name": "BONE",
      "outputs": [
        {
          "name": "",
          "type": "uint256"
        }
      ],
      "payable": false,
      "stateMutability": "view",
      "type": "function"
    },
    {
      "constant": true,
      "inputs": [],
      "name": "factory",
      "outputs": [
        {
          "name": "",
          "type": "address"
        }
      ],
      "payable": false,
      "stateMutability": "view",
      "type": "function"
    },
    {
      "constant": true,
      "inputs": [],
      "name": "EXIT_FEE",
      "outputs": [
        {
          "name": "",
          "type": "uint256"
        }
      ],
      "payable": false,
      "stateMutability": "view",
      "type": "function"
    },
    {
      "constant": true,
      "inputs": [],
      "name": "swapOceanFee",
      "outputs": [
        {
          "name": "",
          "type": "uint256"
        }
      ],
      "payable": false,
      "stateMutability": "view",
      "type": "function"
    },
    {
      "constant": true,
      "inputs": [],
      "name": "MAX_WEIGHT",
      "outputs": [
        {
          "name": "",
          "type": "uint256"
        }
      ],
      "payable": false,
      "stateMutability": "view",
      "type": "function"
    },
    {
      "constant": true,
      "inputs": [],
      "name": "MAX_IN_RATIO",
      "outputs": [
        {
          "name": "",
          "type": "uint256"
        }
      ],
      "payable": false,
      "stateMutability": "view",
      "type": "function"
    },
    {
      "constant": true,
      "inputs": [
        {
          "name": "",
          "type": "address"
        }
      ],
      "name": "ssContracts",
      "outputs": [
        {
          "name": "",
          "type": "bool"
        }
      ],
      "payable": false,
      "stateMutability": "view",
      "type": "function"
    },
    {
      "inputs": [
        {
          "name": "_routerOwner",
          "type": "address"
        },
        {
          "name": "_oceanToken",
          "type": "address"
        },
        {
          "name": "_bpoolTemplate",
          "type": "address"
        },
        {
          "name": "_ssContract",
          "type": "address"
        },
        {
          "name": "_opfCollector",
          "type": "address"
        },
        {
          "name": "_preCreatedPools",
          "type": "address[]"
        }
      ],
      "payable": false,
      "stateMutability": "nonpayable",
      "type": "constructor"
    },
    {
      "anonymous": false,
      "inputs": [
        {
          "indexed": true,
          "name": "poolAddress",
          "type": "address"
        },
        {
          "indexed": false,
          "name": "isOcean",
          "type": "bool"
        }
      ],
      "name": "NewPool",
      "type": "event"
    },
    {
      "anonymous": false,
      "inputs": [
        {
          "indexed": true,
          "name": "poolAddress",
          "type": "address"
        }
      ],
      "name": "NewForkPool",
      "type": "event"
    },
    {
      "anonymous": false,
      "inputs": [
        {
          "indexed": true,
          "name": "newBPoolAddress",
          "type": "address"
        },
        {
          "indexed": true,
          "name": "registeredBy",
          "type": "address"
        },
        {
          "indexed": true,
          "name": "datatokenAddress",
          "type": "address"
        },
        {
          "indexed": false,
          "name": "basetokenAddress",
          "type": "address"
        },
        {
          "indexed": false,
          "name": "bpoolTemplateAddress",
          "type": "address"
        },
        {
          "indexed": false,
          "name": "ssAddress",
          "type": "address"
        }
      ],
      "name": "BPoolCreated",
      "type": "event"
    },
    {
      "anonymous": false,
      "inputs": [
        {
          "indexed": false,
          "name": "instance",
          "type": "address"
        }
      ],
      "name": "InstanceDeployed",
      "type": "event"
    }
  ],
  "bytecode": "0x60806040523480156200001157600080fd5b5060405162001aec38038062001aec833981018060405262000037919081019062000300565b8382826001600160a01b03831662000086576040517f08c379a00000000000000000000000000000000000000000000000000000000081526004016200007d90620004ca565b60405180910390fd5b6001600160a01b038216620000c9576040517f08c379a00000000000000000000000000000000000000000000000000000000081526004016200007d90620004e2565b600080546001600160a01b038086166001600160a01b03199283161790925560018054928516929091169190911790558051156200018b5760005b8151811015620001895760006001600160a01b0316336001600160a01b03168383815181106200013057fe5b60200260200101516001600160a01b03167fbb6121447d29a04cc37bfd93cdf6a9dd08229f2d941116c1528f04698c4e790e6000806000604051620001789392919062000494565b60405180910390a460010162000104565b505b5050600280546001600160a01b03808a166001600160a01b03199283161790925560058054868416921691909117905584166000908152600760209081526040909120805460ff19166001179055620001eb91508690620001f7811b901c565b50505050505062000584565b6002546001600160a01b031633146200023e576040517f08c379a00000000000000000000000000000000000000000000000000000000081526004016200007d90620004f4565b6001600160a01b03166000908152600660205260409020805460ff19166001179055565b600062000270825162000563565b9392505050565b600082601f8301126200028957600080fd5b8151620002a06200029a826200052d565b62000506565b91508181835260208401935060208101905083856020840282011115620002c657600080fd5b60005b83811015620002f65781620002df888262000262565b8452506020928301929190910190600101620002c9565b5050505092915050565b60008060008060008060c087890312156200031a57600080fd5b600062000328898962000262565b96505060206200033b89828a0162000262565b95505060406200034e89828a0162000262565b94505060606200036189828a0162000262565b93505060806200037489828a0162000262565b92505060a08701516001600160401b038111156200039157600080fd5b6200039f89828a0162000277565b9150509295509295509295565b620003b78162000570565b82525050565b6000620003cc602d836200054e565b7f42466163746f72793a20696e76616c69642062706f6f6c2074656d706c61746581527f207a65726f206164647265737300000000000000000000000000000000000000602082015260400192915050565b60006200042d6016836200054e565b7f42466163746f72793a207a65726f206164647265737300000000000000000000815260200192915050565b6000620004686016836200054e565b7f4f6365616e526f757465723a204e4f54204f574e455200000000000000000000815260200192915050565b60608101620004a48286620003ac565b620004b36020830185620003ac565b620004c26040830184620003ac565b949350505050565b60208082528101620004dc81620003bd565b92915050565b60208082528101620004dc816200041e565b60208082528101620004dc8162000459565b6040518181016001600160401b03811182821017156200052557600080fd5b604052919050565b60006001600160401b038211156200054457600080fd5b5060209081020190565b90815260200190565b6001600160a01b031690565b6000620004dc8262000557565b6000620004dc826000620004dc8262000563565b61155880620005946000396000f3fe608060405234801561001057600080fd5b50600436106101da5760003560e01c8063a28f78f111610104578063bc694ea2116100a2578063e183fb3f11610071578063e183fb3f14610326578063e4a28a5214610207578063ec0930211461032e578063ee661f6714610336576101da565b8063bc694ea21461030e578063c36596a614610240578063c45a015514610316578063c6580d121461031e576101da565b8063b7b800a4116100de578063b7b800a4146102ee578063ba019dab146102f6578063bae6ae12146102fe578063bc063e1a14610306576101da565b8063a28f78f1146102cb578063ac5717ed146102d3578063b0e0d136146102e6576101da565b80636c9fb6121161017c5780638552730a1161014b5780638552730a146102ab578063867378c5146102b35780639381cd2b146102bb578063992e2a92146102c3576101da565b80636c9fb6121461025b57806376c7a3c71461026e57806379463a0e14610276578063802d142214610296576101da565b806316d9cb3d116101b857806316d9cb3d14610225578063189d00ca14610238578063218b5382146102405780632958984614610248576101da565b80630318ad66146101df5780630361b029146101f457806309a3bbe414610207575b600080fd5b6101f26101ed366004610e39565b610349565b005b6101f2610202366004610e39565b6103a3565b61020f61041e565b60405161021c919061143c565b60405180910390f35b6101f2610233366004610e39565b61042b565b61020f61047a565b61020f61048e565b61020f610256366004610f34565b61049a565b6101f2610269366004610e39565b610612565b61020f610663565b610289610284366004610e39565b610675565b60405161021c919061142e565b61029e61068a565b60405161021c91906112ae565b61029e610699565b61020f6106a8565b61020f6106bc565b61020f6106c9565b61029e6106d5565b61029e6102e1366004610e5f565b6106e4565b61020f610aad565b61020f610ab2565b61020f610ab7565b61029e610abc565b61020f610acb565b61020f610adb565b61029e610ae7565b61020f610af6565b61020f610afb565b61020f610b06565b610289610344366004610e39565b610b16565b6002546001600160a01b0316331461037f57604051600160e51b62461bcd0281526004016103769061148a565b60405180910390fd5b6001600160a01b03166000908152600660205260409020805460ff19166001179055565b6002546001600160a01b031633146103d057604051600160e51b62461bcd0281526004016103769061148a565b6003546001600160a01b0316156103fc57604051600160e51b62461bcd0281526004016103769061147a565b600380546001600160a01b0319166001600160a01b0392909216919091179055565b6802b5e3af16b188000081565b6002546001600160a01b0316331461045857604051600160e51b62461bcd0281526004016103769061148a565b600480546001600160a01b0319166001600160a01b0392909216919091179055565b6402540be400670de0b6b3a76400005b0481565b670de0b6b3a764000081565b600354604051600160e01b63226e76150281526000916001600160a01b03169063226e7615906104ce9033906004016112bc565b60206040518083038186803b1580156104e657600080fd5b505afa1580156104fa573d6000803e3d6000fd5b505050506040513d601f19601f8201168201806040525061051e9190810190610fbb565b151560011461054257604051600160e51b62461bcd0281526004016103769061146a565b6001600160a01b03871660009081526006602052604081205460ff161515600114610571575066038d7ea4c680005b60048054604051600160e11b634c4980e70281526001600160a01b039091169163989301ce916105b4918c9133918d916012918e918e918e918e918d91016112ca565b602060405180830381600087803b1580156105ce57600080fd5b505af11580156105e2573d6000803e3d6000fd5b505050506040513d601f19601f820116820180604052506106069190810190610fd9565b98975050505050505050565b6002546001600160a01b0316331461063f57604051600160e51b62461bcd0281526004016103769061148a565b6001600160a01b03166000908152600760205260409020805460ff19166001179055565b620f4240670de0b6b3a764000061048a565b60066020526000908152604090205460ff1681565b6004546001600160a01b031681565b6002546001600160a01b031681565b64e8d4a51000670de0b6b3a764000061048a565b68056bc75e2d6310000081565b6704a03ce68d21555681565b6005546001600160a01b031681565b600354604051600160e01b63226e76150281526000916001600160a01b03169063226e7615906107189033906004016112bc565b60206040518083038186803b15801561073057600080fd5b505afa158015610744573d6000803e3d6000fd5b505050506040513d601f19601f820116820180604052506107689190810190610fbb565b151560011461078c57604051600160e51b62461bcd0281526004016103769061146a565b6001600160a01b038a166000908152600760205260409020805460ff191660011790556000878760018181106107be57fe5b90506020020135116107e557604051600160e51b62461bcd0281526004016103769061144a565b6020898101356001600160a01b03166000908152600690915260408120548190600160ff9091161515141561081957600191505b6001600160a01b0360208c013516806323b872dd898f8d8d600481811061083c57fe5b905060200201356040518463ffffffff1660e01b815260040161086193929190611406565b602060405180830381600087803b15801561087b57600080fd5b505af115801561088f573d6000803e3d6000fd5b505050506040513d601f19601f820116820180604052506108b39190810190610fbb565b506060878780806020026020016040519081016040528093929190818152602001838360200280828437600092019190915250929350505050831515600114156109935760008160018151811061090657fe5b60200260200101818152505061098c8e8e6002806020026040519081016040528092919082600260200280828437600081840152601f19601f8201169050808301925050505050508e8e8e808060200260200160405190810160405280939291908181526020018383602002808284376000920191909152508892508d9150610b2b9050565b9250610a31565b66038d7ea4c68000816001815181106109a857fe5b602002602001018181525050610a2e8e8e6002806020026040519081016040528092919082600260200280828437600081840152601f19601f8201169050808301925050505050508e8e8e808060200260200160405190810160405280939291908181526020018383602002808284376000920191909152508892508d9150610b2b9050565b92505b6001600160a01b038316610a5a57604051600160e51b62461bcd0281526004016103769061149a565b826001600160a01b03167f90279d7790471e260411db76079630dfaa838fc987d29ae7aa7dc1bcd773ef2e85604051610a93919061142e565b60405180910390a250909c9b505050505050505050505050565b600881565b600281565b600181565b6000546001600160a01b031681565b600a670de0b6b3a764000061048a565b671bc16d674ec7ffff81565b6003546001600160a01b031681565b600081565b66038d7ea4c6800081565b6002670de0b6b3a764000061048a565b60076020526000908152604090205460ff1681565b6000610b35610d78565b50604080518082019091526001600160a01b03808416825260015481166020830152600054610b649116610cd7565b91506001600160a01b038216610b8f57604051600160e51b62461bcd0281526004016103769061145a565b6000829050806001600160a01b031663c070a6d88a30886000808e896040518863ffffffff1660e01b8152600401610bcd97969594939291906113a2565b602060405180830381600087803b158015610be757600080fd5b505af1158015610bfb573d6000803e3d6000fd5b505050506040513d601f19601f82011682018060405250610c1f9190810190610fbb565b610c3e57604051600160e51b62461bcd028152600401610376906114aa565b87516020890151604051600160e21b6314fc30ed0281526001600160a01b038c16926353f0c3b492610c789288908d908d90600401611350565b602060405180830381600087803b158015610c9257600080fd5b505af1158015610ca6573d6000803e3d6000fd5b505050506040513d601f19601f82011682018060405250610cca9190810190610fbb565b5050509695505050505050565b6000808260601b90506040517f3d602d80600a3d3981f3363d3d373d3d3d363d7300000000000000000000000081528160148201527f5af43d82803e903d91602b57fd5bf3000000000000000000000000000000000060288201526037816000f09250507f117c72e6c25f0a072e36e148df71468ce2f3dbe7defec5b2c257a6e3eb65278c82604051610d6a91906112ae565b60405180910390a150919050565b60405180604001604052806002906020820280388339509192915050565b6000610da282356114db565b9392505050565b8060408101831015610dba57600080fd5b92915050565b60008083601f840112610dd257600080fd5b50813567ffffffffffffffff811115610dea57600080fd5b602083019150836020820283011115610e0257600080fd5b9250929050565b6000610da282516114e6565b6000610da282516114ba565b6000610da282356114ba565b6000610da282356114f7565b600060208284031215610e4b57600080fd5b6000610e578484610d96565b949350505050565b60008060008060008060008060006101008a8c031215610e7e57600080fd5b6000610e8a8c8c610d96565b9950506020610e9b8c828d01610da9565b9850506060610eac8c828d01610d96565b97505060808a013567ffffffffffffffff811115610ec957600080fd5b610ed58c828d01610dc0565b965096505060a0610ee88c828d01610d96565b94505060c08a013567ffffffffffffffff811115610f0557600080fd5b610f118c828d01610dc0565b935093505060e0610f248c828d01610d96565b9150509295985092959850929598565b60008060008060008060c08789031215610f4d57600080fd5b6000610f598989610d96565b9650506020610f6a89828a01610e2d565b9550506040610f7b89828a01610e21565b9450506060610f8c89828a01610d96565b9350506080610f9d89828a01610e21565b92505060a0610fae89828a01610d96565b9150509295509295509295565b600060208284031215610fcd57600080fd5b6000610e578484610e09565b600060208284031215610feb57600080fd5b6000610e578484610e15565b60006110038383611026565b505060200190565b600061100383836110dd565b611020816114fd565b82525050565b611020816114db565b611038816114c3565b61104281846114cd565b925061104d826114ba565b60005b8281101561107857611063858351610ff7565b945061106e826114bd565b9150600101611050565b5050505050565b600061108a826114c9565b61109481856114d2565b935061109f836114bd565b60005b828110156110ca576110b586835161100b565b95506110c0826114bd565b91506001016110a2565b5093949350505050565b611020816114e6565b611020816114ba565b61102081611508565b60006110fc600e836114d2565b7f57726f6e6720646563696d616c73000000000000000000000000000000000000815260200192915050565b60006111356024836114d2565b7f42466163746f72793a20696e76616c69642062706f6f6c207a65726f206164648152600160e01b637265737302602082015260400192915050565b600061117e602b836114d2565b7f464143544f525920524f555445523a204e4f54204f524947494e414c204552438152600160a81b6a32302054454d504c41544502602082015260400192915050565b60006111ce6013836114d2565b7f464143544f525920414c52454144592053455400000000000000000000000000815260200192915050565b60006112076016836114d2565b7f4f6365616e526f757465723a204e4f54204f574e455200000000000000000000815260200192915050565b60006112406015836114d2565b7f4641494c454420544f204445504c4f5920504f4f4c0000000000000000000000815260200192915050565b60006112796014836114d2565b7f4552525f494e495449414c495a455f42504f4f4c000000000000000000000000815260200192915050565b611020816114f7565b60208101610dba8284611026565b60208101610dba8284611017565b61012081016112d9828c611026565b6112e6602083018b611017565b6112f3604083018a6112a5565b61130060608301896110e6565b61130d60808301886110dd565b61131a60a0830187611026565b61132760c08301866110dd565b61133460e0830185611026565b6113426101008301846110dd565b9a9950505050505050505050565b60a0810161135e8288611026565b61136b6020830187611026565b6113786040830186611026565b6113856060830185611026565b8181036080830152611397818461107f565b979650505050505050565b61012081016113b1828a611026565b6113be6020830189611026565b81810360408301526113d0818861107f565b90506113df60608301876110d4565b6113ec60808301866110d4565b6113f960a083018561102f565b61060660e083018461102f565b606081016114148286611026565b6114216020830185611026565b610e5760408301846110dd565b60208101610dba82846110d4565b60208101610dba82846110dd565b60208082528101610dba816110ef565b60208082528101610dba81611128565b60208082528101610dba81611171565b60208082528101610dba816111c1565b60208082528101610dba816111fa565b60208082528101610dba81611233565b60208082528101610dba8161126c565b90565b60200190565b50600290565b5190565b919050565b90815260200190565b6000610dba826114eb565b151590565b6001600160a01b031690565b60ff1690565b6000610dba82611513565b6000610dba826114f7565b6000610dba826114db56fea265627a7a72305820589afa31bb34337e04fb9a54b587583397530d19ab7b3e489f14e47b357e09f66c6578706572696d656e74616cf50037",
  "linkReferences": {},
  "deployedLinkReferences": {}
}