{
  "_format": "hh-sol-artifact-1",
  "contractName": "FactoryRouter",
  "sourceName": "contracts/v3/balancer/FactoryRouter.sol",
  "abi": [
    {
      "constant": true,
      "inputs": [],
      "name": "getCreationCode",
      "outputs": [
        {
          "name": "",
          "type": "bytes"
        }
      ],
      "payable": false,
      "stateMutability": "view",
      "type": "function"
    },
    {
      "constant": false,
      "inputs": [
        {
          "name": "oceanTokenAddress",
          "type": "address"
        }
      ],
      "name": "addOceanToken",
      "outputs": [],
      "payable": false,
      "stateMutability": "nonpayable",
      "type": "function"
    },
    {
      "constant": false,
      "inputs": [
        {
          "name": "_erc20Factory",
          "type": "address"
        }
      ],
      "name": "addERC20Factory",
      "outputs": [],
      "payable": false,
      "stateMutability": "nonpayable",
      "type": "function"
    },
    {
      "constant": true,
      "inputs": [],
      "name": "MAX_TOTAL_WEIGHT",
      "outputs": [
        {
          "name": "",
          "type": "uint256"
        }
      ],
      "payable": false,
      "stateMutability": "view",
      "type": "function"
    },
    {
      "constant": false,
      "inputs": [
        {
          "name": "_fixedRate",
          "type": "address"
        }
      ],
      "name": "addFixedRateContract",
      "outputs": [],
      "payable": false,
      "stateMutability": "nonpayable",
      "type": "function"
    },
    {
      "constant": true,
      "inputs": [],
      "name": "getCreationCodeContracts",
      "outputs": [
        {
          "name": "contractA",
          "type": "address"
        },
        {
          "name": "contractB",
          "type": "address"
        }
      ],
      "payable": false,
      "stateMutability": "view",
      "type": "function"
    },
    {
      "constant": true,
      "inputs": [],
      "name": "BPOW_PRECISION",
      "outputs": [
        {
          "name": "",
          "type": "uint256"
        }
      ],
      "payable": false,
      "stateMutability": "view",
      "type": "function"
    },
    {
      "constant": true,
      "inputs": [],
      "name": "MIN_WEIGHT",
      "outputs": [
        {
          "name": "",
          "type": "uint256"
        }
      ],
      "payable": false,
      "stateMutability": "view",
      "type": "function"
    },
    {
      "constant": false,
      "inputs": [
        {
          "name": "basetokenAddress",
          "type": "address"
        },
        {
          "name": "basetokenDecimals",
          "type": "uint8"
        },
        {
          "name": "rate",
          "type": "uint256"
        },
        {
          "name": "owner",
          "type": "address"
        },
        {
          "name": "marketFee",
          "type": "uint256"
        },
        {
          "name": "marketFeeCollector",
          "type": "address"
        }
      ],
      "name": "deployFixedRate",
      "outputs": [
        {
          "name": "exchangeId",
          "type": "bytes32"
        }
      ],
      "payable": false,
      "stateMutability": "nonpayable",
      "type": "function"
    },
    {
      "constant": false,
      "inputs": [
        {
          "name": "_ssContract",
          "type": "address"
        }
      ],
      "name": "addSSContract",
      "outputs": [],
      "payable": false,
      "stateMutability": "nonpayable",
      "type": "function"
    },
    {
      "constant": true,
      "inputs": [],
      "name": "MIN_FEE",
      "outputs": [
        {
          "name": "",
          "type": "uint256"
        }
      ],
      "payable": false,
      "stateMutability": "view",
      "type": "function"
    },
    {
      "constant": true,
      "inputs": [
        {
          "name": "",
          "type": "address"
        }
      ],
      "name": "oceanTokens",
      "outputs": [
        {
          "name": "",
          "type": "bool"
        }
      ],
      "payable": false,
      "stateMutability": "view",
      "type": "function"
    },
    {
      "constant": true,
      "inputs": [],
      "name": "fixedRate",
      "outputs": [
        {
          "name": "",
          "type": "address"
        }
      ],
      "payable": false,
      "stateMutability": "view",
      "type": "function"
    },
    {
      "constant": true,
      "inputs": [],
      "name": "routerOwner",
      "outputs": [
        {
          "name": "",
          "type": "address"
        }
      ],
      "payable": false,
      "stateMutability": "view",
      "type": "function"
    },
    {
      "constant": true,
      "inputs": [],
      "name": "MIN_BALANCE",
      "outputs": [
        {
          "name": "",
          "type": "uint256"
        }
      ],
      "payable": false,
      "stateMutability": "view",
      "type": "function"
    },
    {
      "constant": true,
      "inputs": [],
      "name": "INIT_POOL_SUPPLY",
      "outputs": [
        {
          "name": "",
          "type": "uint256"
        }
      ],
      "payable": false,
      "stateMutability": "view",
      "type": "function"
    },
    {
      "constant": true,
      "inputs": [],
      "name": "MAX_OUT_RATIO",
      "outputs": [
        {
          "name": "",
          "type": "uint256"
        }
      ],
      "payable": false,
      "stateMutability": "view",
      "type": "function"
    },
    {
      "constant": true,
      "inputs": [],
      "name": "opfCollector",
      "outputs": [
        {
          "name": "",
          "type": "address"
        }
      ],
      "payable": false,
      "stateMutability": "view",
      "type": "function"
    },
    {
      "constant": false,
      "inputs": [
        {
          "name": "controller",
          "type": "address"
        },
        {
          "name": "tokens",
          "type": "address[2]"
        },
        {
          "name": "publisherAddress",
          "type": "address"
        },
        {
          "name": "ssParams",
          "type": "uint256[]"
        },
        {
          "name": "basetokenSender",
          "type": "address"
        },
        {
          "name": "swapFees",
          "type": "uint256[]"
        },
        {
          "name": "marketFeeCollector",
          "type": "address"
        }
      ],
      "name": "deployPool",
      "outputs": [
        {
          "name": "",
          "type": "address"
        }
      ],
      "payable": false,
      "stateMutability": "nonpayable",
      "type": "function"
    },
    {
      "constant": true,
      "inputs": [],
      "name": "MAX_BOUND_TOKENS",
      "outputs": [
        {
          "name": "",
          "type": "uint256"
        }
      ],
      "payable": false,
      "stateMutability": "view",
      "type": "function"
    },
    {
      "constant": true,
      "inputs": [],
      "name": "MIN_BOUND_TOKENS",
      "outputs": [
        {
          "name": "",
          "type": "uint256"
        }
      ],
      "payable": false,
      "stateMutability": "view",
      "type": "function"
    },
    {
      "constant": true,
      "inputs": [],
      "name": "MIN_BPOW_BASE",
      "outputs": [
        {
          "name": "",
          "type": "uint256"
        }
      ],
      "payable": false,
      "stateMutability": "view",
      "type": "function"
    },
    {
      "constant": true,
      "inputs": [],
      "name": "bpoolTemplate",
      "outputs": [
        {
          "name": "",
          "type": "address"
        }
      ],
      "payable": false,
      "stateMutability": "view",
      "type": "function"
    },
    {
      "constant": true,
      "inputs": [],
      "name": "MAX_FEE",
      "outputs": [
        {
          "name": "",
          "type": "uint256"
        }
      ],
      "payable": false,
      "stateMutability": "view",
      "type": "function"
    },
    {
      "constant": true,
      "inputs": [],
      "name": "MAX_BPOW_BASE",
      "outputs": [
        {
          "name": "",
          "type": "uint256"
        }
      ],
      "payable": false,
      "stateMutability": "view",
      "type": "function"
    },
    {
      "constant": true,
      "inputs": [],
      "name": "BONE",
      "outputs": [
        {
          "name": "",
          "type": "uint256"
        }
      ],
      "payable": false,
      "stateMutability": "view",
      "type": "function"
    },
    {
      "constant": true,
      "inputs": [],
      "name": "EXIT_FEE",
      "outputs": [
        {
          "name": "",
          "type": "uint256"
        }
      ],
      "payable": false,
      "stateMutability": "view",
      "type": "function"
    },
    {
      "constant": true,
      "inputs": [],
      "name": "swapOceanFee",
      "outputs": [
        {
          "name": "",
          "type": "uint256"
        }
      ],
      "payable": false,
      "stateMutability": "view",
      "type": "function"
    },
    {
      "constant": true,
      "inputs": [],
      "name": "MAX_WEIGHT",
      "outputs": [
        {
          "name": "",
          "type": "uint256"
        }
      ],
      "payable": false,
      "stateMutability": "view",
      "type": "function"
    },
    {
      "constant": true,
      "inputs": [],
      "name": "MAX_IN_RATIO",
      "outputs": [
        {
          "name": "",
          "type": "uint256"
        }
      ],
      "payable": false,
      "stateMutability": "view",
      "type": "function"
    },
    {
      "constant": true,
      "inputs": [
        {
          "name": "",
          "type": "address"
        }
      ],
      "name": "ssContracts",
      "outputs": [
        {
          "name": "",
          "type": "bool"
        }
      ],
      "payable": false,
      "stateMutability": "view",
      "type": "function"
    },
    {
      "constant": true,
      "inputs": [],
      "name": "erc20Factory",
      "outputs": [
        {
          "name": "",
          "type": "address"
        }
      ],
      "payable": false,
      "stateMutability": "view",
      "type": "function"
    },
    {
      "inputs": [
        {
          "name": "_routerOwner",
          "type": "address"
        },
        {
          "name": "_oceanToken",
          "type": "address"
        },
        {
          "name": "_bpoolTemplate",
          "type": "address"
        },
        {
          "name": "_ssContract",
          "type": "address"
        },
        {
          "name": "_opfCollector",
          "type": "address"
        },
        {
          "name": "_preCreatedPools",
          "type": "address[]"
        }
      ],
      "payable": false,
      "stateMutability": "nonpayable",
      "type": "constructor"
    },
    {
      "anonymous": false,
      "inputs": [
        {
          "indexed": true,
          "name": "poolAddress",
          "type": "address"
        },
        {
          "indexed": false,
          "name": "isOcean",
          "type": "bool"
        }
      ],
      "name": "NewPool",
      "type": "event"
    },
    {
      "anonymous": false,
      "inputs": [
        {
          "indexed": true,
          "name": "poolAddress",
          "type": "address"
        }
      ],
      "name": "NewForkPool",
      "type": "event"
    },
    {
      "anonymous": false,
      "inputs": [
        {
          "indexed": true,
          "name": "newBPoolAddress",
          "type": "address"
        },
        {
          "indexed": true,
          "name": "registeredBy",
          "type": "address"
        },
        {
          "indexed": true,
          "name": "datatokenAddress",
          "type": "address"
        },
        {
          "indexed": false,
          "name": "basetokenAddress",
          "type": "address"
        },
        {
          "indexed": false,
          "name": "bpoolTemplateAddress",
          "type": "address"
        },
        {
          "indexed": false,
          "name": "ssAddress",
          "type": "address"
        }
      ],
      "name": "BPoolCreated",
      "type": "event"
    },
    {
      "anonymous": false,
      "inputs": [
        {
          "indexed": false,
          "name": "instance",
          "type": "address"
        }
      ],
      "name": "InstanceDeployed",
      "type": "event"
    }
  ],
  "bytecode": "0x60806040523480156200001157600080fd5b5060405162007e6538038062007e65833981018060405262000037919081019062000442565b838282604051806020016200004c9062000396565b601f1982820381018352601f90910116604052805160006002820460018190558083036003819055818552909150836200009281620002ad602090811b6200168417901c565b600080546001600160a01b0319166001600160a01b03929092169190911790558285018051838252620000d182620002ad602090811b6200168417901c565b600280546001600160a01b0319166001600160a01b03928316179055959092525250508416151590506200013c576040517f08c379a000000000000000000000000000000000000000000000000000000000815260040162000133906200065f565b60405180910390fd5b6001600160a01b0382166200017f576040517f08c379a0000000000000000000000000000000000000000000000000000000008152600401620001339062000671565b600480546001600160a01b038086166001600160a01b0319928316179092556005805492851692909116919091179055805115620002415760005b81518110156200023f5760006001600160a01b0316336001600160a01b0316838381518110620001e657fe5b60200260200101516001600160a01b03167fbb6121447d29a04cc37bfd93cdf6a9dd08229f2d941116c1528f04698c4e790e60008060006040516200022e9392919062000611565b60405180910390a4600101620001ba565b505b5050600680546001600160a01b03808a166001600160a01b03199283161790925560098054868416921691909117905584166000908152600b60209081526040909120805460ff19166001179055620002a1915086906200032b811b901c565b50505050505062000713565b80517f602038038060206000396000f3fefefefefefefefefefefefefefefefefefefe808352600091602081018484f090845291506001600160a01b03821662000325576040517f08c379a0000000000000000000000000000000000000000000000000000000008152600401620001339062000647565b50919050565b6006546001600160a01b0316331462000372576040517f08c379a0000000000000000000000000000000000000000000000000000000008152600401620001339062000683565b6001600160a01b03166000908152600a60205260409020805460ff19166001179055565b615fd78062001e8e83390190565b6000620003b28251620006f2565b9392505050565b600082601f830112620003cb57600080fd5b8151620003e2620003dc82620006bc565b62000695565b915081818352602084019350602081019050838560208402820111156200040857600080fd5b60005b83811015620004385781620004218882620003a4565b84525060209283019291909101906001016200040b565b5050505092915050565b60008060008060008060c087890312156200045c57600080fd5b60006200046a8989620003a4565b96505060206200047d89828a01620003a4565b95505060406200049089828a01620003a4565b9450506060620004a389828a01620003a4565b9350506080620004b689828a01620003a4565b92505060a08701516001600160401b03811115620004d357600080fd5b620004e189828a01620003b9565b9150509295509295509295565b620004f981620006ff565b82525050565b60006200050e601683620006dd565b7f434f44455f4445504c4f594d454e545f4641494c454400000000000000000000815260200192915050565b600062000549602d83620006dd565b7f42466163746f72793a20696e76616c69642062706f6f6c2074656d706c61746581527f207a65726f206164647265737300000000000000000000000000000000000000602082015260400192915050565b6000620005aa601683620006dd565b7f42466163746f72793a207a65726f206164647265737300000000000000000000815260200192915050565b6000620005e5601683620006dd565b7f4f6365616e526f757465723a204e4f54204f574e455200000000000000000000815260200192915050565b60608101620006218286620004ee565b620006306020830185620004ee565b6200063f6040830184620004ee565b949350505050565b602080825281016200065981620004ff565b92915050565b6020808252810162000659816200053a565b6020808252810162000659816200059b565b602080825281016200065981620005d6565b6040518181016001600160401b0381118282101715620006b457600080fd5b604052919050565b60006001600160401b03821115620006d357600080fd5b5060209081020190565b90815260200190565b6001600160a01b031690565b60006200065982620006e6565b6000620006598260006200065982620006f2565b61176b80620007236000396000f3fe608060405234801561001057600080fd5b50600436106101ef5760003560e01c8063992e2a921161010f578063bc694ea2116100a2578063e4a28a5211610071578063e4a28a521461023a578063ec09302114610366578063ee661f671461036e578063f4c3066f14610381576101ef565b8063bc694ea21461034e578063c36596a614610280578063c6580d1214610356578063e183fb3f1461035e576101ef565b8063b7b800a4116100de578063b7b800a41461032e578063ba019dab14610336578063bae6ae121461033e578063bc063e1a14610346576101ef565b8063992e2a9214610303578063a28f78f11461030b578063ac5717ed14610313578063b0e0d13614610326576101ef565b80632958984611610187578063802d142211610156578063802d1422146102d65780638552730a146102eb578063867378c5146102f35780639381cd2b146102fb576101ef565b806329589846146102885780636c9fb6121461029b57806376c7a3c7146102ae57806379463a0e146102b6576101ef565b806316d9cb3d116101c357806316d9cb3d1461024f578063174481fa14610262578063189d00ca14610278578063218b538214610280576101ef565b8062c194db146101f45780630318ad66146102125780630361b0291461022757806309a3bbe41461023a575b600080fd5b6101fc610389565b6040516102099190611565565b60405180910390f35b610225610220366004610f01565b6103a8565b005b610225610235366004610f01565b610402565b61024261047d565b6040516102099190611557565b61022561025d366004610f01565b61048a565b61026a6104d9565b6040516102099291906113ca565b6102426104f0565b610242610504565b610242610296366004610ffc565b610510565b6102256102a9366004610f01565b610689565b6102426106da565b6102c96102c4366004610f01565b6106ec565b6040516102099190611549565b6102de610701565b60405161020991906113ae565b6102de610710565b61024261071f565b610242610733565b610242610740565b6102de61074c565b6102de610321366004610f27565b61075b565b610242610b24565b610242610b29565b610242610b2e565b6102de610b33565b610242610b42565b610242610b52565b610242610b5e565b610242610b63565b610242610b6e565b6102c961037c366004610f01565b610b7e565b6102de610b93565b60606103a360405180602001604052806000815250610ba2565b905090565b6006546001600160a01b031633146103de57604051600160e51b62461bcd0281526004016103d5906115b6565b60405180910390fd5b6001600160a01b03166000908152600a60205260409020805460ff19166001179055565b6006546001600160a01b0316331461042f57604051600160e51b62461bcd0281526004016103d5906115b6565b6007546001600160a01b03161561045b57604051600160e51b62461bcd0281526004016103d5906115a6565b600780546001600160a01b0319166001600160a01b0392909216919091179055565b6802b5e3af16b188000081565b6006546001600160a01b031633146104b757604051600160e51b62461bcd0281526004016103d5906115b6565b600880546001600160a01b0319166001600160a01b0392909216919091179055565b6000546002546001600160a01b0391821691169091565b6402540be400670de0b6b3a76400005b0481565b670de0b6b3a764000081565b600754604051600160e01b63226e76150281526000916001600160a01b03169063226e7615906105449033906004016113bc565b60206040518083038186803b15801561055c57600080fd5b505afa158015610570573d6000803e3d6000fd5b505050506040513d601f19601f820116820180604052506105949190810190611083565b15156001146105b857604051600160e51b62461bcd0281526004016103d590611596565b6001600160a01b0387166000908152600a602052604081205460ff1615156001146105e7575066038d7ea4c680005b600854604051600160e11b634c4980e70281526001600160a01b039091169063989301ce9061062b908b9033908c906012908d908d908d908d908c906004016113e5565b602060405180830381600087803b15801561064557600080fd5b505af1158015610659573d6000803e3d6000fd5b505050506040513d601f19601f8201168201806040525061067d91908101906110a1565b98975050505050505050565b6006546001600160a01b031633146106b657604051600160e51b62461bcd0281526004016103d5906115b6565b6001600160a01b03166000908152600b60205260409020805460ff19166001179055565b620f4240670de0b6b3a7640000610500565b600a6020526000908152604090205460ff1681565b6008546001600160a01b031681565b6006546001600160a01b031681565b64e8d4a51000670de0b6b3a7640000610500565b68056bc75e2d6310000081565b6704a03ce68d21555681565b6009546001600160a01b031681565b600754604051600160e01b63226e76150281526000916001600160a01b03169063226e76159061078f9033906004016113bc565b60206040518083038186803b1580156107a757600080fd5b505afa1580156107bb573d6000803e3d6000fd5b505050506040513d601f19601f820116820180604052506107df9190810190611083565b151560011461080357604051600160e51b62461bcd0281526004016103d590611596565b6001600160a01b038a166000908152600b60205260409020805460ff1916600117905560008787600181811061083557fe5b905060200201351161085c57604051600160e51b62461bcd0281526004016103d590611576565b6020898101356001600160a01b03166000908152600a90915260408120548190600160ff9091161515141561089057600191505b6001600160a01b0360208c013516806323b872dd898f8d8d60048181106108b357fe5b905060200201356040518463ffffffff1660e01b81526004016108d893929190611521565b602060405180830381600087803b1580156108f257600080fd5b505af1158015610906573d6000803e3d6000fd5b505050506040513d601f19601f8201168201806040525061092a9190810190611083565b50606087878080602002602001604051908101604052809392919081815260200183836020028082843760009201919091525092935050505083151560011415610a0a5760008160018151811061097d57fe5b602002602001018181525050610a038e8e6002806020026040519081016040528092919082600260200280828437600081840152601f19601f8201169050808301925050505050508e8e8e808060200260200160405190810160405280939291908181526020018383602002808284376000920191909152508892508d9150610c139050565b9250610aa8565b66038d7ea4c6800081600181518110610a1f57fe5b602002602001018181525050610aa58e8e6002806020026040519081016040528092919082600260200280828437600081840152601f19601f8201169050808301925050505050508e8e8e808060200260200160405190810160405280939291908181526020018383602002808284376000920191909152508892508d9150610c139050565b92505b6001600160a01b038316610ad157604051600160e51b62461bcd0281526004016103d5906115c6565b826001600160a01b03167f90279d7790471e260411db76079630dfaa838fc987d29ae7aa7dc1bcd773ef2e85604051610b0a9190611549565b60405180910390a250909c9b505050505050505050505050565b600881565b600281565b600181565b6004546001600160a01b031681565b600a670de0b6b3a7640000610500565b671bc16d674ec7ffff81565b600081565b66038d7ea4c6800081565b6002670de0b6b3a7640000610500565b600b6020526000908152604090205460ff1681565b6007546001600160a01b031681565b60008054600154600254600354855160408051838601838101828101602090810190945280835291986001600160a01b039889169896909616959093928901908790828a3c846000888301883c5060208981019089850101610c05818386610dce565b505050505050505050919050565b6000610c1d610e47565b506040805180820182526001600160a01b03808516825260055416602080830191909152825190810190925260008083529091610c5990610e0c565b90506001600160a01b038116610c8457604051600160e51b62461bcd0281526004016103d590611586565b6000819050806001600160a01b031663c070a6d88b30896000808f8a6040518863ffffffff1660e01b8152600401610cc297969594939291906114bd565b602060405180830381600087803b158015610cdc57600080fd5b505af1158015610cf0573d6000803e3d6000fd5b505050506040513d601f19601f82011682018060405250610d149190810190611083565b610d3357604051600160e51b62461bcd0281526004016103d5906115d6565b885160208a0151604051600160e21b6314fc30ed0281526001600160a01b038d16926353f0c3b492610d6d9287908e908e9060040161146b565b602060405180830381600087803b158015610d8757600080fd5b505af1158015610d9b573d6000803e3d6000fd5b505050506040513d601f19601f82011682018060405250610dbf9190810190611083565b50909998505050505050505050565b5b60208110610dee578151835260209283019290910190601f1901610dcf565b905182516020929092036101000a6000190180199091169116179052565b60006060610e1983610ba2565b905060008151602083016000f090506001600160a01b038116610e40573d6000803e3d6000fd5b9392505050565b60405180604001604052806002906020820280388339509192915050565b6000610e408235611607565b8060408101831015610e8257600080fd5b92915050565b60008083601f840112610e9a57600080fd5b50813567ffffffffffffffff811115610eb257600080fd5b602083019150836020820283011115610eca57600080fd5b9250929050565b6000610e408251611612565b6000610e4082516115e6565b6000610e4082356115e6565b6000610e408235611623565b600060208284031215610f1357600080fd5b6000610f1f8484610e65565b949350505050565b60008060008060008060008060006101008a8c031215610f4657600080fd5b6000610f528c8c610e65565b9950506020610f638c828d01610e71565b9850506060610f748c828d01610e65565b97505060808a013567ffffffffffffffff811115610f9157600080fd5b610f9d8c828d01610e88565b965096505060a0610fb08c828d01610e65565b94505060c08a013567ffffffffffffffff811115610fcd57600080fd5b610fd98c828d01610e88565b935093505060e0610fec8c828d01610e65565b9150509295985092959850929598565b60008060008060008060c0878903121561101557600080fd5b60006110218989610e65565b965050602061103289828a01610ef5565b955050604061104389828a01610ee9565b945050606061105489828a01610e65565b935050608061106589828a01610ee9565b92505060a061107689828a01610e65565b9150509295509295509295565b60006020828403121561109557600080fd5b6000610f1f8484610ed1565b6000602082840312156110b357600080fd5b6000610f1f8484610edd565b60006110cb83836110ee565b505060200190565b60006110cb83836111a5565b6110e881611629565b82525050565b6110e881611607565b611100816115ef565b61110a81846115f9565b9250611115826115e6565b60005b828110156111405761112b8583516110bf565b9450611136826115e9565b9150600101611118565b5050505050565b6000611152826115f5565b61115c81856115fe565b9350611167836115e9565b60005b828110156111925761117d8683516110d3565b9550611188826115e9565b915060010161116a565b5093949350505050565b6110e881611612565b6110e8816115e6565b60006111b9826115f5565b6111c381856115fe565b93506111d381856020860161164a565b6111dc8161167a565b9093019392505050565b6110e881611634565b60006111fc600e836115fe565b7f57726f6e6720646563696d616c73000000000000000000000000000000000000815260200192915050565b60006112356024836115fe565b7f42466163746f72793a20696e76616c69642062706f6f6c207a65726f206164648152600160e01b637265737302602082015260400192915050565b600061127e602b836115fe565b7f464143544f525920524f555445523a204e4f54204f524947494e414c204552438152600160a81b6a32302054454d504c41544502602082015260400192915050565b60006112ce6013836115fe565b7f464143544f525920414c52454144592053455400000000000000000000000000815260200192915050565b60006113076016836115fe565b7f4f6365616e526f757465723a204e4f54204f574e455200000000000000000000815260200192915050565b60006113406015836115fe565b7f4641494c454420544f204445504c4f5920504f4f4c0000000000000000000000815260200192915050565b60006113796014836115fe565b7f4552525f494e495449414c495a455f42504f4f4c000000000000000000000000815260200192915050565b6110e881611623565b60208101610e8282846110ee565b60208101610e8282846110df565b604081016113d882856110ee565b610e4060208301846110ee565b61012081016113f4828c6110ee565b611401602083018b6110df565b61140e604083018a6113a5565b61141b60608301896111e6565b61142860808301886111a5565b61143560a08301876110ee565b61144260c08301866111a5565b61144f60e08301856110ee565b61145d6101008301846111a5565b9a9950505050505050505050565b60a0810161147982886110ee565b61148660208301876110ee565b61149360408301866110ee565b6114a060608301856110ee565b81810360808301526114b28184611147565b979650505050505050565b61012081016114cc828a6110ee565b6114d960208301896110ee565b81810360408301526114eb8188611147565b90506114fa606083018761119c565b611507608083018661119c565b61151460a08301856110f7565b61067d60e08301846110f7565b6060810161152f82866110ee565b61153c60208301856110ee565b610f1f60408301846111a5565b60208101610e82828461119c565b60208101610e8282846111a5565b60208082528101610e4081846111ae565b60208082528101610e82816111ef565b60208082528101610e8281611228565b60208082528101610e8281611271565b60208082528101610e82816112c1565b60208082528101610e82816112fa565b60208082528101610e8281611333565b60208082528101610e828161136c565b90565b60200190565b50600290565b5190565b919050565b90815260200190565b6000610e8282611617565b151590565b6001600160a01b031690565b60ff1690565b6000610e828261163f565b6000610e8282611623565b6000610e8282611607565b60005b8381101561166557818101518382015260200161164d565b83811115611674576000848401525b50505050565b601f01601f191690565b80517f602038038060206000396000f3fefefefefefefefefefefefefefefefefefefe808352600091602081018484f090845291506001600160a01b0382166116e257604051600160e51b62461bcd0281526004016103d590611721565b50919050565b60006116f56016836115fe565b7f434f44455f4445504c4f594d454e545f4641494c454400000000000000000000815260200192915050565b60208082528101610e82816116e856fea265627a7a723058206a3b70da1a27d627767fc52ffdd88a4b542fd70cdd23b5a996b40df4e8355ea96c6578706572696d656e74616cf5003760c0604052601360808190527f42616c616e63657220506f6f6c20546f6b656e0000000000000000000000000060a0908152620000409160089190620000a9565b506040805180820190915260038082527f425054000000000000000000000000000000000000000000000000000000000060209092019182526200008791600991620000a9565b50600a805460ff19166012179055348015620000a257600080fd5b506200014e565b828054600181600116156101000203166002900490600052602060002090601f016020900481019282601f10620000ec57805160ff19168380011785556200011c565b828001600101855582156200011c579182015b828111156200011c578251825591602001919060010190620000ff565b506200012a9291506200012e565b5090565b6200014b91905b808211156200012a576000815560010162000135565b90565b615e79806200015e6000396000f3fe608060405234801561001057600080fd5b50600436106103ba5760003560e01c80638d4e4083116101f4578063bc694ea21161011a578063dd62ed3e116100ad578063f1b8a9b71161007c578063f1b8a9b714610b74578063f8b2cb4f14610b9a578063fbb9dd5014610bc0578063fde924f714610be6576103ba565b8063dd62ed3e14610b36578063e4a28a52146104e4578063ec09302114610b64578063f0f13f0b14610b6c576103ba565b8063c6580d12116100e9578063c6580d1214610af2578063cd2ed8fb14610afa578063d4cadf6814610b02578063d73dd62314610b0a576103ba565b8063bc694ea2146109f4578063be3bbd2e146109fc578063c070a6d814610a54578063c36596a614610574576103ba565b8063a562ddf011610192578063b7b800a411610161578063b7b800a4146109d4578063b80483b0146109dc578063ba019dab146109e4578063bc063e1a146109ec576103ba565b8063a562ddf014610921578063a9059cbb14610929578063b02f0b7314610955578063b0e0d136146109cc576103ba565b80639381cd2b116101ce5780639381cd2b146108e3578063948d8ce6146108eb57806395d89b4114610911578063992e2a9214610919576103ba565b80638d4e4083146108ad57806391f2a496146108b5578063936c3477146108db576103ba565b806331e2761b116102e4578063661884631161027757806376c7a3c71161024657806376c7a3c7146108045780637c5e9ea41461080c5780638201aa3f14610865578063867378c5146108a5576103ba565b8063661884631461075a5780636d06dfa01461078657806370330518146107b857806370a08231146107de576103ba565b806349e9350f116102b357806349e9350f146106a15780634df947d0146106a95780634f69c0d4146106b15780635db3427714610728576103ba565b806331e2761b1461062457806334e199071461064a578063392e53cd1461066757806346ab38f11461066f576103ba565b806318160ddd1161035c5780632f37b6241161032b5780632f37b624146105b257806330062192146105d85780633018205f146105fe578063313ce56714610606576103ba565b806318160ddd14610564578063189d00ca1461056c578063218b53821461057457806323b872dd1461057c576103ba565b8063095ea7b311610398578063095ea7b3146104a457806309a3bbe4146104e457806309ef3f5b146104ec57806315e84af914610536576103ba565b806302c96748146103bf57806304ad79541461040357806306fdde0314610427575b600080fd5b6103f1600480360360608110156103d557600080fd5b506001600160a01b038135169060208101359060400135610bee565b60408051918252519081900360200190f35b61040b611159565b604080516001600160a01b039092168252519081900360200190f35b61042f611168565b6040805160208082528351818301528351919283929083019185019080838360005b83811015610469578181015183820152602001610451565b50505050905090810190601f1680156104965780820380516001836020036101000a031916815260200191505b509250505060405180910390f35b6104d0600480360360408110156104ba57600080fd5b506001600160a01b0381351690602001356111fe565b604080519115158252519081900360200190f35b6103f1611253565b610534600480360360c081101561050257600080fd5b506001600160a01b03813581169160208101359160408201359160608101359091169060808101359060a00135611260565b005b6103f16004803603604081101561054c57600080fd5b506001600160a01b038135811691602001351661141c565b6103f1611575565b6103f161157b565b6103f161158f565b6104d06004803603606081101561059257600080fd5b506001600160a01b0381358116916020810135909116906040013561159b565b6104d0600480360360208110156105c857600080fd5b50356001600160a01b0316611700565b6103f1600480360360208110156105ee57600080fd5b50356001600160a01b031661171e565b61040b611730565b61060e61173f565b6040805160ff9092168252519081900360200190f35b6103f16004803603602081101561063a57600080fd5b50356001600160a01b0316611748565b6105346004803603602081101561066057600080fd5b503561175a565b6104d06118b0565b6103f16004803603606081101561068557600080fd5b506001600160a01b0381351690602081013590604001356118c0565b6103f1611dde565b61040b611de4565b610534600480360360408110156106c757600080fd5b813591908101906040810160208201356401000000008111156106e957600080fd5b8201836020820111156106fb57600080fd5b8035906020019184602083028401116401000000008311171561071d57600080fd5b509092509050611df3565b6103f16004803603606081101561073e57600080fd5b506001600160a01b038135169060208101359060400135612179565b6104d06004803603604081101561077057600080fd5b506001600160a01b0381351690602001356126fd565b6103f16004803603606081101561079c57600080fd5b506001600160a01b0381351690602081013590604001356127d5565b610534600480360360208110156107ce57600080fd5b50356001600160a01b0316612cbe565b6103f1600480360360208110156107f457600080fd5b50356001600160a01b0316612d42565b6103f1612d5d565b61084c600480360360a081101561082257600080fd5b506001600160a01b0381358116916020810135916040820135169060608101359060800135612d6f565b6040805192835260208301919091528051918290030190f35b61084c600480360360a081101561087b57600080fd5b506001600160a01b0381358116916020810135916040820135169060608101359060800135613220565b6103f16136b6565b6104d06136ca565b610534600480360360208110156108cb57600080fd5b50356001600160a01b03166136da565b6103f161386a565b6103f16138c5565b6103f16004803603602081101561090157600080fd5b50356001600160a01b03166138d2565b61042f6139a3565b6103f1613a04565b61040b613a10565b6104d06004803603604081101561093f57600080fd5b506001600160a01b038135169060200135613a1f565b6105346004803603604081101561096b57600080fd5b8135919081019060408101602082013564010000000081111561098d57600080fd5b82018360208201111561099f57600080fd5b803590602001918460208302840111640100000000831117156109c157600080fd5b509092509050613a35565b6103f1613dd6565b6103f1613ddb565b6103f1613de0565b6103f1613de6565b6103f1613deb565b6103f1613dfb565b610a04613e07565b60408051602080825283518183015283519192839290830191858101910280838360005b83811015610a40578181015183820152602001610a28565b505050509050019250505060405180910390f35b6104d06004803603610120811015610a6b57600080fd5b6001600160a01b038235811692602081013590911691810190606081016040820135640100000000811115610a9f57600080fd5b820183602082011115610ab157600080fd5b80359060200191846020830284011164010000000083111715610ad357600080fd5b9193509150803515159060208101351515906040810190608001613f09565b6103f161417e565b6103f1614183565b6103f1614189565b6104d060048036036040811015610b2057600080fd5b506001600160a01b03813516906020013561418f565b6103f160048036036040811015610b4c57600080fd5b506001600160a01b0381358116916020013516614210565b6103f161423b565b61040b61424b565b6103f160048036036020811015610b8a57600080fd5b50356001600160a01b031661425a565b6103f160048036036020811015610bb057600080fd5b50356001600160a01b031661433d565b61053460048036036020811015610bd657600080fd5b50356001600160a01b031661440e565b6104d06145ab565b600a54600090610100900460ff1615610c425760408051600160e51b62461bcd02815260206004820152600b6024820152600160a81b6a4552525f5245454e54525902604482015290519081900360640190fd5b600a805461ff001916610100179055600f54600160a01b900460ff16610ca05760408051600160e51b62461bcd0281526020600482015260116024820152600080516020615d6e833981519152604482015290519081900360640190fd5b6001600160a01b03841660009081526011602052604090205460ff16610cfe5760408051600160e51b62461bcd02815260206004820152600d6024820152600080516020615dee833981519152604482015290519081900360640190fd5b6001600160a01b0384166000908152601160205260409020600390810154610d3391670de0b6b3a76400005b046001016145bb565b831115610d815760408051600160e51b62461bcd0281526020600482015260116024820152600160781b704552525f4d41585f4f55545f524154494f02604482015290519081900360640190fd5b600c546001600160a01b039081166000818152601160205260408120909283929088161415610dbd57600d546001600160a01b03169150610de2565b5050600c54600d546001600160a01b0390811660009081526011602052604090209116905b6001600160a01b038716600090815260116020526040902060038101546002820154600754601254610e17939291908b614690565b945084610e5c5760408051600160e51b62461bcd02815260206004820152600f6024820152600080516020615e2e833981519152604482015290519081900360640190fd5b85851115610ea65760408051600160e51b62461bcd02815260206004820152600c6024820152600160a11b6b22a9292fa624a6a4aa2fa4a702604482015290519081900360640190fd5b610eb4816003015488614754565b60038201556000610ec586826145bb565b604080518a815242602082015281519293506001600160a01b038c16923392600080516020615d8e833981519152928290030190a3604080518781529051600080516020615dae8339815191529181900360200190a1610f2533876147c5565b610f37610f328783614754565b6147d3565b600a54610f53906201000090046001600160a01b0316826147df565b610f5e89338a6147e9565b6000610f79846003015485600201546007546012548b6148c8565b601354600c5460408051600160e01b63efd481030281526001600160a01b039283166004820152898316602482015260448101859052905193945091169163efd4810391606480820192602092909190829003018186803b158015610fdd57600080fd5b505afa158015610ff1573d6000803e3d6000fd5b505050506040513d602081101561100757600080fd5b505115156001141561114157611021846003015482614754565b60038501556110318760006145bb565b600b546040805184815242602082015281519395506001600160a01b03808a1694931692600080516020615d8e833981519152929181900390910190a3600b54611084906001600160a01b0316886147c5565b611091610f328884614754565b600a546110ad906201000090046001600160a01b0316836147df565b600b546110c59086906001600160a01b0316836147e9565b601354600c5460408051600160e11b63679346f50281526001600160a01b0392831660048201528883166024820152604481018590529051919092169163cf268dea91606480830192600092919082900301818387803b15801561112857600080fd5b505af115801561113c573d6000803e3d6000fd5b505050505b505050505050600a805461ff00191690559392505050565b600c546001600160a01b031690565b60088054604080516020601f60026000196101006001881615020190951694909404938401819004810282018101909252828152606093909290918301828280156111f45780601f106111c9576101008083540402835291602001916111f4565b820191906000526020600020905b8154815290600101906020018083116111d757829003601f168201915b5050505050905090565b3360008181526006602090815260408083206001600160a01b03871680855290835281842086905581518681529151939490939092600080516020615e0e833981519152928290030190a35060015b92915050565b6802b5e3af16b188000081565b600b546001600160a01b031633146112c25760408051600160e51b62461bcd02815260206004820152601660248201527f4552525f494e56414c49445f434f4e54524f4c4c455200000000000000000000604482015290519081900360640190fd5b600c546001600160a01b038781169116146113275760408051600160e51b62461bcd02815260206004820152601d60248201527f4552525f494e56414c49445f44415441544f4b454e5f41444452455353000000604482015290519081900360640190fd5b600d546001600160a01b0384811691161461138c5760408051600160e51b62461bcd02815260206004820152601d60248201527f4552525f494e56414c49445f42415345544f4b454e5f41444452455353000000604482015290519081900360640190fd5b611397868686614997565b6040805186815242602082015281516001600160a01b038916923392600080516020615dce833981519152929081900390910190a36113d7838383614997565b6040805183815242602082015281516001600160a01b038616923392600080516020615dce833981519152929081900390910190a3611414614bc1565b505050505050565b600a54600090610100900460ff16156114705760408051600160e51b62461bcd02815260206004820152600b6024820152600160a81b6a4552525f5245454e54525902604482015290519081900360640190fd5b6001600160a01b03831660009081526011602052604090205460ff166114ce5760408051600160e51b62461bcd02815260206004820152600d6024820152600080516020615dee833981519152604482015290519081900360640190fd5b6001600160a01b03821660009081526011602052604090205460ff1661152c5760408051600160e51b62461bcd02815260206004820152600d6024820152600080516020615dee833981519152604482015290519081900360640190fd5b6001600160a01b0380841660009081526011602052604080822092851682529020600380830154600280850154928401549084015461156c939190614c0e565b95945050505050565b60075490565b6402540be400670de0b6b3a76400005b0481565b670de0b6b3a764000081565b6000336001600160a01b03851614806115d757506001600160a01b03841660009081526006602090815260408083203384529091529020548211155b61162b5760408051600160e51b62461bcd02815260206004820152601560248201527f4552525f42544f4b454e5f4241445f43414c4c45520000000000000000000000604482015290519081900360640190fd5b611636848484614c67565b336001600160a01b0385161480159061167457506001600160a01b038416600090815260066020908152604080832033845290915290205460001914155b156116f6576001600160a01b03841660009081526006602090815260408083203384529091529020546116a79083614754565b6001600160a01b0385811660009081526006602090815260408083203380855290835292819020859055805194855251928716939192600080516020615e0e8339815191529281900390910190a35b5060019392505050565b6001600160a01b031660009081526011602052604090205460ff1690565b60036020526000908152604090205481565b600b546001600160a01b031690565b600a5460ff1690565b60046020526000908152604090205481565b600f54600160a01b900460ff16156117b25760408051600160e51b62461bcd0281526020600482015260106024820152600160821b6f11549497d254d7d1925390531256915102604482015290519081900360640190fd5b600b546001600160a01b0316331461180c5760408051600160e51b62461bcd0281526020600482015260126024820152600160711b7122a9292fa727aa2fa1a7a72a2927a62622a902604482015290519081900360640190fd5b64e8d4a5100081101561185a5760408051600160e51b62461bcd02815260206004820152600b6024820152600160a81b6a4552525f4d494e5f46454502604482015290519081900360640190fd5b67016345785d8a00008111156118ab5760408051600160e51b62461bcd02815260206004820152600b6024820152600160a81b6a4552525f4d41585f46454502604482015290519081900360640190fd5b600255565b601354600160a01b900460ff1690565b600a54600090610100900460ff16156119145760408051600160e51b62461bcd02815260206004820152600b6024820152600160a81b6a4552525f5245454e54525902604482015290519081900360640190fd5b600a805461ff001916610100179055600f54600160a01b900460ff166119725760408051600160e51b62461bcd0281526020600482015260116024820152600080516020615d6e833981519152604482015290519081900360640190fd5b6001600160a01b03841660009081526011602052604090205460ff166119d05760408051600160e51b62461bcd02815260206004820152600d6024820152600080516020615dee833981519152604482015290519081900360640190fd5b6001600160a01b038416600090815260116020526040902060038101546002820154600754601254611a0593929190886148c8565b915082821015611a525760408051600160e51b62461bcd02815260206004820152600d60248201526001609a1b6c11549497d31253525517d3d55502604482015290519081900360640190fd5b6001600160a01b0385166000908152601160205260409020600390810154611a8291670de0b6b3a7640000610d2a565b821115611ad05760408051600160e51b62461bcd0281526020600482015260116024820152600160781b704552525f4d41585f4f55545f524154494f02604482015290519081900360640190fd5b600c546001600160a01b039081166000818152601160205260408120909290919088161415611b0c57600d546001600160a01b03169150611b31565b5050600c54600d546001600160a01b0390811660009081526011602052604090209116905b611b3f836003015485614754565b60038401556000611b5087826145bb565b6040805187815242602082015281519293506001600160a01b038b16923392600080516020615d8e833981519152928290030190a3604080518881529051600080516020615dae8339815191529181900360200190a1611bb033886147c5565b611bbd610f328883614754565b600a54611bd9906201000090046001600160a01b0316826147df565b611be48833876147e9565b6000611bff836003015484600201546007546012548c6148c8565b601354600c5460408051600160e01b63efd481030281526001600160a01b039283166004820152888316602482015260448101859052905193945091169163efd4810391606480820192602092909190829003018186803b158015611c6357600080fd5b505afa158015611c77573d6000803e3d6000fd5b505050506040513d6020811015611c8d57600080fd5b5051151560011415611dc757611ca7836003015482614754565b6003840155611cb78860006145bb565b600b546040805184815242602082015281519395506001600160a01b0380891694931692600080516020615d8e833981519152929181900390910190a3600b54611d0a906001600160a01b0316896147c5565b611d17610f328984614754565b600a54611d33906201000090046001600160a01b0316836147df565b600b54611d4b9085906001600160a01b0316836147e9565b601354600c5460408051600160e11b63679346f50281526001600160a01b0392831660048201528783166024820152604481018590529051919092169163cf268dea91606480830192600092919082900301818387803b158015611dae57600080fd5b505af1158015611dc2573d6000803e3d6000fd5b505050505b5050505050600a805461ff00191690559392505050565b60015481565b600d546001600160a01b031690565b600a54610100900460ff1615611e445760408051600160e51b62461bcd02815260206004820152600b6024820152600160a81b6a4552525f5245454e54525902604482015290519081900360640190fd5b600a805461ff001916610100179055600f54600160a01b900460ff16611ea25760408051600160e51b62461bcd0281526020600482015260116024820152600080516020615d6e833981519152604482015290519081900360640190fd5b600080805b601054811015611f5557600c54601080546001600160a01b039092169183908110611ece57fe5b6000918252602090912001546001600160a01b03161415611eff57848482818110611ef557fe5b9050602002013592505b600d54601080546001600160a01b039092169183908110611f1c57fe5b6000918252602090912001546001600160a01b03161415611f4d57848482818110611f4357fe5b9050602002013591505b600101611ea7565b506000611f60611575565b90506000611f6e8783614d85565b905080611fb35760408051600160e51b62461bcd02815260206004820152600f6024820152600080516020615e2e833981519152604482015290519081900360640190fd5b60005b60105481101561213057600060108281548110611fcf57fe5b60009182526020808320909101546001600160a01b0316808352601190915260408220600301549092509061200485836145bb565b9050806120495760408051600160e51b62461bcd02815260206004820152600f6024820152600080516020615e2e833981519152604482015290519081900360640190fd5b89898581811061205557fe5b905060200201358111156120a55760408051600160e51b62461bcd02815260206004820152600c6024820152600160a11b6b22a9292fa624a6a4aa2fa4a702604482015290519081900360640190fd5b6001600160a01b0383166000908152601160205260409020600301546120cb9082614ead565b6001600160a01b0384166000818152601160209081526040918290206003019390935580518481524293810193909352805191923392600080516020615dce833981519152929181900390910190a3612125833383614f0a565b505050600101611fb6565b5061213a87614f66565b61214433886147df565b604080518881529051600080516020615dae8339815191529181900360200190a15050600a805461ff00191690555050505050565b600a54600090610100900460ff16156121cd5760408051600160e51b62461bcd02815260206004820152600b6024820152600160a81b6a4552525f5245454e54525902604482015290519081900360640190fd5b600a805461ff001916610100179055600f54600160a01b900460ff1661222b5760408051600160e51b62461bcd0281526020600482015260116024820152600080516020615d6e833981519152604482015290519081900360640190fd5b6001600160a01b03841660009081526011602052604090205460ff166122895760408051600160e51b62461bcd02815260206004820152600d6024820152600080516020615dee833981519152604482015290519081900360640190fd5b6001600160a01b0384166000908152601160205260409020600301546122bb906002670de0b6b3a76400005b046145bb565b8311156123085760408051600160e51b62461bcd0281526020600482015260106024820152600160801b6f4552525f4d41585f494e5f524154494f02604482015290519081900360640190fd5b600c546001600160a01b039081166000818152601160205260408120909290918391881614156123445750600d546001600160a01b0316612369565b5050600d546001600160a01b039081166000908152601160205260409020600c549091165b6001600160a01b03871660009081526011602052604090206003810154600282015460075460125461239e939291908b614f6f565b9450858510156123eb5760408051600160e51b62461bcd02815260206004820152600d60248201526001609a1b6c11549497d31253525517d3d55502604482015290519081900360640190fd5b6123f9816003015488614ead565b60038201556040805188815242602082015281516001600160a01b038b16923392600080516020615dce833981519152929081900390910190a3604080518681529051600080516020615dae8339815191529181900360200190a161245d85614f66565b61246733866147df565b612472883389614f0a565b600061248d846003015485600201546007546012548a615004565b601354600c5460408051600160e01b6326b1f01f0281526001600160a01b03928316600482015287831660248201526044810185905290519394506125499391909216916326b1f01f916064808301926020929190829003018186803b1580156124f657600080fd5b505afa15801561250a573d6000803e3d6000fd5b505050506040513d602081101561252057600080fd5b50516040805180820190915260088152600160c01b6763616e7374616b6502602082015261509e565b601354600c5460408051600160e01b6326b1f01f0281526001600160a01b039283166004820152868316602482015260448101859052905191909216916326b1f01f916064808301926020929190829003018186803b1580156125ab57600080fd5b505afa1580156125bf573d6000803e3d6000fd5b505050506040513d60208110156125d557600080fd5b5051151560011415611dc757601354600c5460408051600160e01b6399039fcf0281526001600160a01b039283166004820152868316602482015260448101859052905191909216916399039fcf91606480830192600092919082900301818387803b15801561264457600080fd5b505af1158015612658573d6000803e3d6000fd5b5050505061266a846003015482614ead565b6003850155600b546040805183815242602082015281516001600160a01b03808816941692600080516020615dce833981519152928290030190a3604080518781529051600080516020615dae8339815191529181900360200190a16126cf86614f66565b600b546126e5906001600160a01b0316876147df565b600b54611dc79084906001600160a01b031683614f0a565b3360009081526006602090815260408083206001600160a01b038616845290915281205480831115612752573360009081526006602090815260408083206001600160a01b0388168452909152812055612781565b61275c8184614754565b3360009081526006602090815260408083206001600160a01b03891684529091529020555b3360008181526006602090815260408083206001600160a01b038916808552908352928190205481519081529051929392600080516020615e0e833981519152929181900390910190a35060019392505050565b600a54600090610100900460ff16156128295760408051600160e51b62461bcd02815260206004820152600b6024820152600160a81b6a4552525f5245454e54525902604482015290519081900360640190fd5b600a805461ff001916610100179055600f54600160a01b900460ff166128875760408051600160e51b62461bcd0281526020600482015260116024820152600080516020615d6e833981519152604482015290519081900360640190fd5b6001600160a01b03841660009081526011602052604090205460ff166128e55760408051600160e51b62461bcd02815260206004820152600d6024820152600080516020615dee833981519152604482015290519081900360640190fd5b6001600160a01b03841660009081526011602052604090206003810154600282015460075460125461291a9392919088615004565b600c546001600160a01b0390811660008181526011602052604081209395509291839190891614156129585750600d546001600160a01b031661297d565b5050600d546001600160a01b039081166000908152601160205260409020600c549091165b846129c05760408051600160e51b62461bcd02815260206004820152600f6024820152600080516020615e2e833981519152604482015290519081900360640190fd5b85851115612a0a5760408051600160e51b62461bcd02815260206004820152600c6024820152600160a11b6b22a9292fa624a6a4aa2fa4a702604482015290519081900360640190fd5b6001600160a01b038816600090815260116020526040902060030154612a3a906002670de0b6b3a76400006122b5565b851115612a875760408051600160e51b62461bcd0281526020600482015260106024820152600160801b6f4552525f4d41585f494e5f524154494f02604482015290519081900360640190fd5b612a95846003015486614ead565b60038501556040805186815242602082015281516001600160a01b038b16923392600080516020615dce833981519152929081900390910190a3604080518881529051600080516020615dae8339815191529181900360200190a1612af987614f66565b612b0333886147df565b612b0e883387614f0a565b6000612b29836003015484600201546007546012548c615004565b601354600c5460408051600160e01b6326b1f01f0281526001600160a01b03928316600482015286831660248201526044810185905290519394509116916326b1f01f91606480820192602092909190829003018186803b158015612b8d57600080fd5b505afa158015612ba1573d6000803e3d6000fd5b505050506040513d6020811015612bb757600080fd5b5051151560011415611dc757601354600c5460408051600160e01b6399039fcf0281526001600160a01b039283166004820152858316602482015260448101859052905191909216916399039fcf91606480830192600092919082900301818387803b158015612c2657600080fd5b505af1158015612c3a573d6000803e3d6000fd5b50505050612c4c836003015482614ead565b6003840155600b546040805183815242602082015281516001600160a01b03808716941692600080516020615dce833981519152928290030190a3612c9088614f66565b600b54612ca6906001600160a01b0316896147df565b600b54611dc79083906001600160a01b031683614f0a565b600e546001600160a01b03163314612d205760408051600160e51b62461bcd02815260206004820152601560248201527f4f4e4c59204d41524b455420434f4c4c4543544f520000000000000000000000604482015290519081900360640190fd5b600e80546001600160a01b0319166001600160a01b0392909216919091179055565b6001600160a01b031660009081526005602052604090205490565b620f4240670de0b6b3a764000061158b565b600a546000908190610100900460ff1615612dc55760408051600160e51b62461bcd02815260206004820152600b6024820152600160a81b6a4552525f5245454e54525902604482015290519081900360640190fd5b600a805461ff001916610100179055600f54600160a01b900460ff16612e235760408051600160e51b62461bcd0281526020600482015260116024820152600080516020615d6e833981519152604482015290519081900360640190fd5b6001600160a01b03871660009081526011602052604090205460ff16612e815760408051600160e51b62461bcd02815260206004820152600d6024820152600080516020615dee833981519152604482015290519081900360640190fd5b6001600160a01b03851660009081526011602052604090205460ff16612edf5760408051600160e51b62461bcd02815260206004820152600d6024820152600080516020615dee833981519152604482015290519081900360640190fd5b6001600160a01b0380881660009081526011602052604080822092881682529020600380820154612f1891670de0b6b3a7640000610d2a565b861115612f665760408051600160e51b62461bcd0281526020600482015260116024820152600160781b704552525f4d41585f4f55545f524154494f02604482015290519081900360640190fd5b6000612f848360030154846002015484600301548560020154614c0e565b905085811115612fde5760408051600160e51b62461bcd02815260206004820152601360248201527f4552525f4241445f4c494d49545f505249434500000000000000000000000000604482015290519081900360640190fd5b6000612fe8615d4f565b604051806080016040528086600301548152602001866002015481526020018560030154815260200185600201548152509050613026818a8e615153565b90975091508a8711156130755760408051600160e51b62461bcd02815260206004820152600c6024820152600160a11b6b22a9292fa624a6a4aa2fa4a702604482015290519081900360640190fd5b613083856003015483614ead565b856003018190555061309984600301548a614754565b6003808601829055860154600280880154908701546130b89390614c0e565b9550828610156131005760408051600160e51b62461bcd02815260206004820152600f6024820152600080516020615e2e833981519152604482015290519081900360640190fd5b8786111561314d5760408051600160e51b62461bcd02815260206004820152600f6024820152600160881b6e4552525f4c494d49545f505249434502604482015290519081900360640190fd5b613157878a614d85565b83111561319c5760408051600160e51b62461bcd02815260206004820152600f6024820152600080516020615e2e833981519152604482015290519081900360640190fd5b60408051888152602081018b9052428183015290516001600160a01b03808d1692908f169133917f50ef2fc267012b5c84b56835f16ffd5331ac5a151a3760d74908721ba78b0efe919081900360600190a46131f98c3389614f0a565b6132048a338b6147e9565b5050505050600a805461ff001916905590969095509350505050565b600a546000908190610100900460ff16156132765760408051600160e51b62461bcd02815260206004820152600b6024820152600160a81b6a4552525f5245454e54525902604482015290519081900360640190fd5b600a805461ff001916610100179055600f54600160a01b900460ff166132d45760408051600160e51b62461bcd0281526020600482015260116024820152600080516020615d6e833981519152604482015290519081900360640190fd5b6001600160a01b03871660009081526011602052604090205460ff166133325760408051600160e51b62461bcd02815260206004820152600d6024820152600080516020615dee833981519152604482015290519081900360640190fd5b6001600160a01b03851660009081526011602052604090205460ff166133905760408051600160e51b62461bcd02815260206004820152600d6024820152600080516020615dee833981519152604482015290519081900360640190fd5b6001600160a01b038088166000908152601160205260408082209288168252902060038201546133ca906002670de0b6b3a76400006122b5565b8811156134175760408051600160e51b62461bcd0281526020600482015260106024820152600160801b6f4552525f4d41585f494e5f524154494f02604482015290519081900360640190fd5b60006134358360030154846002015484600301548560020154614c0e565b90508581111561348f5760408051600160e51b62461bcd02815260206004820152601360248201527f4552525f4241445f4c494d49545f505249434500000000000000000000000000604482015290519081900360640190fd5b6000613499615d4f565b6040518060800160405280866003015481526020018660020154815260200185600301548152602001856002015481525090506134d7818c8e61536d565b9097509150888710156135275760408051600160e51b62461bcd02815260206004820152600d60248201526001609a1b6c11549497d31253525517d3d55502604482015290519081900360640190fd5b613535856003015483614ead565b856003018190555061354b846003015488614754565b60038086018290558601546002808801549087015461356a9390614c0e565b9550828610156135b25760408051600160e51b62461bcd02815260206004820152600f6024820152600080516020615e2e833981519152604482015290519081900360640190fd5b878611156135ff5760408051600160e51b62461bcd02815260206004820152600f6024820152600160881b6e4552525f4c494d49545f505249434502604482015290519081900360640190fd5b6136098b88614d85565b83111561364e5760408051600160e51b62461bcd02815260206004820152600f6024820152600080516020615e2e833981519152604482015290519081900360640190fd5b604080518c815260208101899052428183015290516001600160a01b03808d1692908f169133917f50ef2fc267012b5c84b56835f16ffd5331ac5a151a3760d74908721ba78b0efe919081900360600190a46136ab8c338d614f0a565b6132048a33896147e9565b64e8d4a51000670de0b6b3a764000061158b565b600f54600160a01b900460ff1690565b600f546001600160a01b0316331461372a5760408051600160e51b62461bcd0281526020600482015260086024820152600160c11b6727a7262c9027a82302604482015290519081900360640190fd5b6060613734613e07565b905060005b81518110156138655760006003600084848151811061375457fe5b60200260200101516001600160a01b03166001600160a01b0316815260200190815260200160002054905060006003600085858151811061379157fe5b60200260200101516001600160a01b03166001600160a01b03168152602001908152602001600020819055508282815181106137c957fe5b60200260200101516001600160a01b031663a9059cbb85836040518363ffffffff1660e01b815260040180836001600160a01b03166001600160a01b0316815260200182815260200192505050602060405180830381600087803b15801561383057600080fd5b505af1158015613844573d6000803e3d6000fd5b505050506040513d602081101561385a57600080fd5b505050600101613739565b505050565b600a54600090610100900460ff16156138be5760408051600160e51b62461bcd02815260206004820152600b6024820152600160a81b6a4552525f5245454e54525902604482015290519081900360640190fd5b5060125490565b68056bc75e2d6310000081565b600a54600090610100900460ff16156139265760408051600160e51b62461bcd02815260206004820152600b6024820152600160a81b6a4552525f5245454e54525902604482015290519081900360640190fd5b6001600160a01b03821660009081526011602052604090205460ff166139845760408051600160e51b62461bcd02815260206004820152600d6024820152600080516020615dee833981519152604482015290519081900360640190fd5b506001600160a01b031660009081526011602052604090206002015490565b60098054604080516020601f60026000196101006001881615020190951694909404938401819004810282018101909252828152606093909290918301828280156111f45780601f106111c9576101008083540402835291602001916111f4565b6704a03ce68d21555681565b600e546001600160a01b031681565b6000613a2c338484614c67565b50600192915050565b600a54610100900460ff1615613a865760408051600160e51b62461bcd02815260206004820152600b6024820152600160a81b6a4552525f5245454e54525902604482015290519081900360640190fd5b600a805461ff001916610100179055600f54600160a01b900460ff16613ae45760408051600160e51b62461bcd0281526020600482015260116024820152600080516020615d6e833981519152604482015290519081900360640190fd5b600080805b601054811015613b9757600c54601080546001600160a01b039092169183908110613b1057fe5b6000918252602090912001546001600160a01b03161415613b4157848482818110613b3757fe5b9050602002013592505b600d54601080546001600160a01b039092169183908110613b5e57fe5b6000918252602090912001546001600160a01b03161415613b8f57848482818110613b8557fe5b9050602002013591505b600101613ae9565b506000613ba2611575565b90506000613bb18760006145bb565b90506000613bbf8883614754565b90506000613bcd8285614d85565b905080613c125760408051600160e51b62461bcd02815260206004820152600f6024820152600080516020615e2e833981519152604482015290519081900360640190fd5b613c1c338a6147c5565b600a54613c38906201000090046001600160a01b0316846147df565b613c41826147d3565b60005b601054811015613dbf57600060108281548110613c5d57fe5b60009182526020808320909101546001600160a01b03168083526011909152604082206003015490925090613c9285836145bb565b905080613cd75760408051600160e51b62461bcd02815260206004820152600f6024820152600080516020615e2e833981519152604482015290519081900360640190fd5b8b8b85818110613ce357fe5b90506020020135811015613d345760408051600160e51b62461bcd02815260206004820152600d60248201526001609a1b6c11549497d31253525517d3d55502604482015290519081900360640190fd5b6001600160a01b038316600090815260116020526040902060030154613d5a9082614754565b6001600160a01b0384166000818152601160209081526040918290206003019390935580518481524293810193909352805191923392600080516020615d8e833981519152929181900390910190a3613db48333836147e9565b505050600101613c44565b5050600a805461ff00191690555050505050505050565b600881565b600281565b60005481565b600181565b600a670de0b6b3a764000061158b565b671bc16d674ec7ffff81565b600a54606090610100900460ff1615613e5b5760408051600160e51b62461bcd02815260206004820152600b6024820152600160a81b6a4552525f5245454e54525902604482015290519081900360640190fd5b600f54600160a01b900460ff16613eaa5760408051600160e51b62461bcd0281526020600482015260116024820152600080516020615d6e833981519152604482015290519081900360640190fd5b60108054806020026020016040519081016040528092919081815260200182805480156111f457602002820191906000526020600020905b81546001600160a01b03168152600190910190602001808311613ee2575050505050905090565b601354600090600160a01b900460ff1615613f6e5760408051600160e51b62461bcd02815260206004820152601760248201527f4552525f414c52454144595f494e495449414c495a4544000000000000000000604482015290519081900360640190fd5b6001600160a01b038916613fcc5760408051600160e51b62461bcd02815260206004820152601e60248201527f4552525f494e56414c49445f434f4e54524f4c4c45525f414444524553530000604482015290519081900360640190fd5b6001600160a01b03881661402a5760408051600160e51b62461bcd02815260206004820152601b60248201527f4552525f494e56414c49445f464143544f52595f414444524553530000000000604482015290519081900360640190fd5b64e8d4a51000878760008161403b57fe5b9050602002013510156140895760408051600160e51b62461bcd02815260206004820152600b6024820152600160a81b6a4552525f4d494e5f46454502604482015290519081900360640190fd5b67016345785d8a0000878760008161409d57fe5b9050602002013511156140eb5760408051600160e51b62461bcd02815260206004820152600b6024820152600160a81b6a4552525f4d41585f46454502604482015290519081900360640190fd5b6141718989898980806020026020016040519081016040528093929190818152602001838360200280828437600092019190915250506040805180820182528c93508b9250908a9060029083908390808284376000920191909152505060408051808201825291508a906002908390839080828437600092019190915250615557915050565b9998505050505050505050565b600081565b60105490565b60025490565b3360009081526006602090815260408083206001600160a01b03861684529091528120546141bd9083614ead565b3360008181526006602090815260408083206001600160a01b038916808552908352928190208590558051948552519193600080516020615e0e833981519152929081900390910190a350600192915050565b6001600160a01b03918216600090815260066020908152604080832093909416825291909152205490565b6002670de0b6b3a764000061158b565b600f546001600160a01b031681565b600a54600090610100900460ff16156142ae5760408051600160e51b62461bcd02815260206004820152600b6024820152600160a81b6a4552525f5245454e54525902604482015290519081900360640190fd5b6001600160a01b03821660009081526011602052604090205460ff1661430c5760408051600160e51b62461bcd02815260206004820152600d6024820152600080516020615dee833981519152604482015290519081900360640190fd5b6001600160a01b038216600090815260116020526040902060020154601254614336908290614d85565b9392505050565b600a54600090610100900460ff16156143915760408051600160e51b62461bcd02815260206004820152600b6024820152600160a81b6a4552525f5245454e54525902604482015290519081900360640190fd5b6001600160a01b03821660009081526011602052604090205460ff166143ef5760408051600160e51b62461bcd02815260206004820152600d6024820152600080516020615dee833981519152604482015290519081900360640190fd5b506001600160a01b031660009081526011602052604090206003015490565b600e546001600160a01b031633146144705760408051600160e51b62461bcd02815260206004820152601560248201527f4f4e4c59204d41524b455420434f4c4c4543544f520000000000000000000000604482015290519081900360640190fd5b606061447a613e07565b905060005b81518110156138655760006004600084848151811061449a57fe5b60200260200101516001600160a01b03166001600160a01b031681526020019081526020016000205490506000600460008585815181106144d757fe5b60200260200101516001600160a01b03166001600160a01b031681526020019081526020016000208190555082828151811061450f57fe5b60200260200101516001600160a01b031663a9059cbb85836040518363ffffffff1660e01b815260040180836001600160a01b03166001600160a01b0316815260200182815260200192505050602060405180830381600087803b15801561457657600080fd5b505af115801561458a573d6000803e3d6000fd5b505050506040513d60208110156145a057600080fd5b50505060010161447f565b600b54600160a01b900460ff1690565b60008282028315806145d55750828482816145d257fe5b04145b61461f5760408051600160e51b62461bcd0281526020600482015260106024820152600160801b6f4552525f4d554c5f4f564552464c4f5702604482015290519081900360640190fd5b6706f05b59d3b200008101818110156146785760408051600160e51b62461bcd0281526020600482015260106024820152600160801b6f4552525f4d554c5f4f564552464c4f5702604482015290519081900360640190fd5b6000670de0b6b3a7640000825b049695505050505050565b60008061469d8685614d85565b905060006146b3670de0b6b3a764000083614754565b905060006146c3826002546145bb565b905060006146e2866146dd670de0b6b3a764000085614754565b614d85565b905060006146f08b83614754565b905060006146fe828d614d85565b9050600061470c8288615693565b9050600061471a828d6145bb565b905060006147288d83614754565b9050614741816146dd670de0b6b3a76400006000614754565b9f9e505050505050505050505050505050565b600080600061476385856157b6565b9150915080156147bd5760408051600160e51b62461bcd02815260206004820152601160248201527f4552525f5355425f554e444552464c4f57000000000000000000000000000000604482015290519081900360640190fd5b509392505050565b6147cf82826157db565b5050565b6147dc816157e6565b50565b6147cf82826158c2565b60408051600160e01b63a9059cbb0281526001600160a01b03848116600483015260248201849052915160009286169163a9059cbb91604480830192602092919082900301818787803b15801561483f57600080fd5b505af1158015614853573d6000803e3d6000fd5b505050506040513d602081101561486957600080fd5b50519050806148c25760408051600160e51b62461bcd02815260206004820152600f60248201527f4552525f45524332305f46414c53450000000000000000000000000000000000604482015290519081900360640190fd5b50505050565b6000806148d58685614d85565b905060006148f5846148f0670de0b6b3a76400006000614754565b6145bb565b905060006149038783614754565b905060006149118289614d85565b905060006149308261492b670de0b6b3a764000088614d85565b615693565b9050600061493e828d6145bb565b9050600061494c8d83614754565b9050600061496d614965670de0b6b3a76400008a614754565b6002546145bb565b9050614985826148f0670de0b6b3a764000084614754565b9e9d5050505050505050505050505050565b600b546001600160a01b031633146149f15760408051600160e51b62461bcd0281526020600482015260126024820152600160711b7122a9292fa727aa2fa1a7a72a2927a62622a902604482015290519081900360640190fd5b6001600160a01b03831660009081526011602052604090205460ff1615614a625760408051600160e51b62461bcd02815260206004820152600c60248201527f4552525f49535f424f554e440000000000000000000000000000000000000000604482015290519081900360640190fd5b600f54600160a01b900460ff1615614aba5760408051600160e51b62461bcd0281526020600482015260106024820152600160821b6f11549497d254d7d1925390531256915102604482015290519081900360640190fd5b601054600811614b145760408051600160e51b62461bcd02815260206004820152600e60248201527f4552525f4d41585f544f4b454e53000000000000000000000000000000000000604482015290519081900360640190fd5b6040805160808101825260018082526010805460208085019182526000858701818152606087018281526001600160a01b038c1680845260119094529782209651875460ff1916901515178755925186860155915160028601559451600390940193909355805491820181559091527f1b6847dc741a1b0cd08d278845f9d819d87b734759afb55fe2de5cb82a9ae6720180546001600160a01b03191690911790556138658383836158cd565b600f8054600160a01b600160a01b60ff02199182168117909255600b80549091169091179055614bf968056bc75e2d63100000614f66565b614c0c3368056bc75e2d631000006147df565b565b600080614c1b8686614d85565b90506000614c298585614d85565b90506000614c378383614d85565b90506000614c5b670de0b6b3a76400006146dd670de0b6b3a7640000600254614754565b905061417182826145bb565b6001600160a01b038316600090815260056020526040902054811115614cd75760408051600160e51b62461bcd02815260206004820152601460248201527f4552525f494e53554646494349454e545f42414c000000000000000000000000604482015290519081900360640190fd5b6001600160a01b038316600090815260056020526040902054614cfa9082614754565b6001600160a01b038085166000908152600560205260408082209390935590841681522054614d299082614ead565b6001600160a01b0380841660008181526005602090815260409182902094909455805185815290519193928716927fddf252ad1be2c89b69c2b068fc378daa952ba7f163c4a11628f55a4df523b3ef92918290030190a3505050565b600081614ddc5760408051600160e51b62461bcd02815260206004820152600c60248201527f4552525f4449565f5a45524f0000000000000000000000000000000000000000604482015290519081900360640190fd5b670de0b6b3a76400008302831580614e045750670de0b6b3a7640000848281614e0157fe5b04145b614e4e5760408051600160e51b62461bcd0281526020600482015260106024820152600160821b6f11549497d1125597d25395115493905302604482015290519081900360640190fd5b60028304810181811015614ea25760408051600160e51b62461bcd0281526020600482015260106024820152600160821b6f11549497d1125597d25395115493905302604482015290519081900360640190fd5b600084828161468557fe5b6000828201838110156143365760408051600160e51b62461bcd02815260206004820152601060248201527f4552525f4144445f4f564552464c4f5700000000000000000000000000000000604482015290519081900360640190fd5b60408051600160e01b6323b872dd0281526001600160a01b0384811660048301523060248301526044820184905291516000928616916323b872dd91606480830192602092919082900301818787803b15801561483f57600080fd5b6147dc81615b52565b600080614f7c8685614d85565b90506000614f95614965670de0b6b3a764000084614754565b90506000614faf856148f0670de0b6b3a764000085614754565b90506000614fbd8a83614ead565b90506000614fcb828c614d85565b90506000614fd98287615693565b90506000614fe7828c6145bb565b9050614ff3818c614754565b9d9c50505050505050505050505050565b6000806150118685614d85565b9050600061501f8685614ead565b9050600061502d8288614d85565b90506000615043670de0b6b3a764000085614d85565b905060006150518383615693565b9050600061505f828d6145bb565b9050600061506d828e614754565b90506000615086614965670de0b6b3a76400008a614754565b9050614985826146dd670de0b6b3a764000084614754565b6147cf8282604051602401808315151515815260200180602001828103825283818151815260200191508051906020019080838360005b838110156150ed5781810151838201526020016150d5565b50505050905090810190601f16801561511a5780820380516001836020036101000a031916815260200191505b5060408051601f198184030181529190526020810180516001600160e01b0316600160e01b638feac525021790529350615bc792505050565b6000808061517086600360200201518760015b6020020151614d85565b90506000615185876002602002015187614754565b9050600061519a886002602002015183614d85565b905060006151a88285615693565b90506151bc81670de0b6b3a7640000614754565b90506000600154600054600254010190506151fd6151eb8b6000600481106151e057fe5b6020020151846145bb565b6146dd670de0b6b3a764000084614754565b965060006152228861521d8a6148f0670de0b6b3a7640000600054614754565b614754565b6001600160a01b038a166000908152600360205260409020549091506152489082614ead565b600360008b6001600160a01b03166001600160a01b0316815260200190815260200160002081905550600061528f8961521d8b6148f0670de0b6b3a7640000600154614754565b6001600160a01b038b166000908152600460205260409020549091506152b59082614ead565b6001600160a01b038b166000908152600460205260409020558b516152f2906152de90866145bb565b6146dd670de0b6b3a7640000600254614754565b97507f90d9f1d0641138b6407ac37bea3a905d63a371c2d91a484f68d59924634d4ef36153318a61521d8c6148f0670de0b6b3a7640000600254614754565b60408051918252602082018590528181018490526001600160a01b038d166060830152519081900360800190a150505050505050935093915050565b600080806153848660016020020151876003615166565b905060006153a48661521d886148f0670de0b6b3a7640000600054614754565b6001600160a01b0386166000908152600360205260409020549091506153ca9082614ead565b60036000876001600160a01b03166001600160a01b031681526020019081526020016000208190555060006154118761521d896148f0670de0b6b3a7640000600154614754565b6001600160a01b0387166000908152600460205260409020549091506154379082614ead565b6001600160a01b0387166000908152600460205260409020556002548083018201907f90d9f1d0641138b6407ac37bea3a905d63a371c2d91a484f68d59924634d4ef39061549a908a9061521d9082906148f090670de0b6b3a764000090614754565b60408051918252602082018690528181018590526001600160a01b038a166060830152519081900360800190a160006154db670de0b6b3a764000083614754565b90506154e789826145bb565b8a519091506000906154fd906146dd8185614ead565b9050600061550b8288615693565b90506000615521670de0b6b3a764000083614754565b90506155348d60026020020151826145bb565b9950896155438d888a01614754565b995099505050505050505050935093915050565b600b80546001600160a01b0319166001600160a01b0389811691909117909155600a805462010000600160b01b03191662010000928916929092029190911790558451600090869082906155a757fe5b6020026020010151600281905550856001815181106155c257fe5b6020026020010151600081905550856002815181106155dd57fe5b602090810291909101810151600155600b8054961515600160a01b908102600160a01b60ff02199889161791829055600f80548751600c80546001600160a01b03199081166001600160a01b039384161790915598860151600d80548b169183169190911790558751600e80548b169183169190911790559690940151861697151582029389169390931786169690961790915560138054909616851790931691909216179283905550900460ff169392505050565b600060018310156156ee5760408051600160e51b62461bcd02815260206004820152601560248201527f4552525f42504f575f424153455f544f4f5f4c4f570000000000000000000000604482015290519081900360640190fd5b671bc16d674ec7ffff83111561574e5760408051600160e51b62461bcd02815260206004820152601660248201527f4552525f42504f575f424153455f544f4f5f4849474800000000000000000000604482015290519081900360640190fd5b600061575983615be8565b905060006157678483614754565b9050600061577d8661577885615c03565b615c11565b90508161578e57925061124d915050565b600061579f87846305f5e100615c71565b90506157ab82826145bb565b979650505050505050565b6000808284106157cc57505080820360006157d4565b505081810360015b9250929050565b6147cf823083614c67565b3060009081526005602052604090205481111561584d5760408051600160e51b62461bcd02815260206004820152601460248201527f4552525f494e53554646494349454e545f42414c000000000000000000000000604482015290519081900360640190fd5b306000908152600560205260409020546158679082614754565b306000908152600560205260409020556007546158849082614754565b60075560408051828152905160009130917fddf252ad1be2c89b69c2b068fc378daa952ba7f163c4a11628f55a4df523b3ef9181900360200190a350565b6147cf308383614c67565b670de0b6b3a764000081101561592d5760408051600160e51b62461bcd02815260206004820152600e60248201527f4552525f4d494e5f574549474854000000000000000000000000000000000000604482015290519081900360640190fd5b6802b5e3af16b188000081111561598e5760408051600160e51b62461bcd02815260206004820152600e60248201527f4552525f4d41585f574549474854000000000000000000000000000000000000604482015290519081900360640190fd5b620f42408210156159e95760408051600160e51b62461bcd02815260206004820152600f60248201527f4552525f4d494e5f42414c414e43450000000000000000000000000000000000604482015290519081900360640190fd5b6001600160a01b03831660009081526011602052604090206002015480821115615a8c57615a22601254615a1d8484614754565b614ead565b60128190556802b5e3af16b18800001015615a875760408051600160e51b62461bcd02815260206004820152601460248201527f4552525f4d41585f544f54414c5f574549474854000000000000000000000000604482015290519081900360640190fd5b615aa8565b80821015615aa857615aa460125461521d8385614754565b6012555b6001600160a01b03841660009081526011602052604090206002810183905560030180549084905580841115615af157615aec8533615ae78785614754565b614f0a565b615b4b565b80841015615b4b576000615b058286614754565b90506000615b148260006145bb565b9050615b2a8733615b258585614754565b6147e9565b600a54615b489088906201000090046001600160a01b0316836147e9565b50505b5050505050565b30600090815260056020526040902054615b6c9082614ead565b30600090815260056020526040902055600754615b899082614ead565b60075560408051828152905130916000917fddf252ad1be2c89b69c2b068fc378daa952ba7f163c4a11628f55a4df523b3ef9181900360200190a350565b80516a636f6e736f6c652e6c6f67602083016000808483855afa5050505050565b6000670de0b6b3a7640000615bfc83615c03565b0292915050565b670de0b6b3a7640000900490565b6000828160028406615c2b57670de0b6b3a7640000615c2d565b815b90506002840493505b8315615c6957615c4682836145bb565b91506002840615615c5e57615c5b81836145bb565b90505b600284049350615c36565b949350505050565b6000828180615c8887670de0b6b3a76400006157b6565b9092509050670de0b6b3a764000080600060015b888410615d40576000670de0b6b3a764000082029050600080615cd08a615ccb85670de0b6b3a7640000614754565b6157b6565b91509150615ce2876148f0848c6145bb565b9650615cee8784614d85565b965086615cfd57505050615d40565b8715615d07579315935b8015615d11579315935b8415615d2857615d218688614754565b9550615d35565b615d328688614ead565b95505b505050600101615c9c565b50909998505050505050505050565b6040518060800160405280600490602082028038833950919291505056fe4552525f4e4f545f46494e414c495a45440000000000000000000000000000009d9058fd2f25ccc389fec7720abef0ca83472f5abfafd5f10d37f51e6a0493f3fcda32798d5a9d032f49b37fea876d422f18f6e386e0f07db6029b693624b2c215a8ca63e37b2cff1677df2b6b82d36fcf8a524228bd7a4b4d02d107c28c1e8a4552525f4e4f545f424f554e44000000000000000000000000000000000000008c5be1e5ebec7d5bd14f71427d1e84f3dd0314c0f7b2291e5b200ac8c7c3b9254552525f4d4154485f415050524f580000000000000000000000000000000000a165627a7a723058203ef3ac0fe0556822043a807efcecb1a2eaafc742113f555215bfc85ab649992b0029",
  "linkReferences": {},
  "deployedLinkReferences": {}
}