{
  "_format": "hh-sol-artifact-1",
  "contractName": "FactoryRouter",
  "sourceName": "contracts/v3/balancer/FactoryRouter.sol",
  "abi": [
    {
      "constant": true,
      "inputs": [],
      "name": "getCreationCode",
      "outputs": [
        {
          "name": "",
          "type": "bytes"
        }
      ],
      "payable": false,
      "stateMutability": "view",
      "type": "function"
    },
    {
      "constant": false,
      "inputs": [
        {
          "name": "oceanTokenAddress",
          "type": "address"
        }
      ],
      "name": "addOceanToken",
      "outputs": [],
      "payable": false,
      "stateMutability": "nonpayable",
      "type": "function"
    },
    {
      "constant": false,
      "inputs": [
        {
          "name": "_erc20Factory",
          "type": "address"
        }
      ],
      "name": "addERC20Factory",
      "outputs": [],
      "payable": false,
      "stateMutability": "nonpayable",
      "type": "function"
    },
    {
      "constant": true,
      "inputs": [],
      "name": "MAX_TOTAL_WEIGHT",
      "outputs": [
        {
          "name": "",
          "type": "uint256"
        }
      ],
      "payable": false,
      "stateMutability": "view",
      "type": "function"
    },
    {
      "constant": true,
      "inputs": [],
      "name": "getCreationCodeContracts",
      "outputs": [
        {
          "name": "contractA",
          "type": "address"
        },
        {
          "name": "contractB",
          "type": "address"
        }
      ],
      "payable": false,
      "stateMutability": "view",
      "type": "function"
    },
    {
      "constant": true,
      "inputs": [],
      "name": "BPOW_PRECISION",
      "outputs": [
        {
          "name": "",
          "type": "uint256"
        }
      ],
      "payable": false,
      "stateMutability": "view",
      "type": "function"
    },
    {
      "constant": true,
      "inputs": [],
      "name": "MIN_WEIGHT",
      "outputs": [
        {
          "name": "",
          "type": "uint256"
        }
      ],
      "payable": false,
      "stateMutability": "view",
      "type": "function"
    },
    {
      "constant": false,
      "inputs": [
        {
          "name": "_ssContract",
          "type": "address"
        }
      ],
      "name": "addSSContract",
      "outputs": [],
      "payable": false,
      "stateMutability": "nonpayable",
      "type": "function"
    },
    {
      "constant": true,
      "inputs": [],
      "name": "MIN_FEE",
      "outputs": [
        {
          "name": "",
          "type": "uint256"
        }
      ],
      "payable": false,
      "stateMutability": "view",
      "type": "function"
    },
    {
      "constant": true,
      "inputs": [
        {
          "name": "",
          "type": "address"
        }
      ],
      "name": "oceanTokens",
      "outputs": [
        {
          "name": "",
          "type": "bool"
        }
      ],
      "payable": false,
      "stateMutability": "view",
      "type": "function"
    },
    {
      "constant": true,
      "inputs": [],
      "name": "routerOwner",
      "outputs": [
        {
          "name": "",
          "type": "address"
        }
      ],
      "payable": false,
      "stateMutability": "view",
      "type": "function"
    },
    {
      "constant": true,
      "inputs": [],
      "name": "MIN_BALANCE",
      "outputs": [
        {
          "name": "",
          "type": "uint256"
        }
      ],
      "payable": false,
      "stateMutability": "view",
      "type": "function"
    },
    {
      "constant": true,
      "inputs": [],
      "name": "INIT_POOL_SUPPLY",
      "outputs": [
        {
          "name": "",
          "type": "uint256"
        }
      ],
      "payable": false,
      "stateMutability": "view",
      "type": "function"
    },
    {
      "constant": true,
      "inputs": [],
      "name": "MAX_OUT_RATIO",
      "outputs": [
        {
          "name": "",
          "type": "uint256"
        }
      ],
      "payable": false,
      "stateMutability": "view",
      "type": "function"
    },
    {
      "constant": true,
      "inputs": [],
      "name": "opfCollector",
      "outputs": [
        {
          "name": "",
          "type": "address"
        }
      ],
      "payable": false,
      "stateMutability": "view",
      "type": "function"
    },
    {
      "constant": false,
      "inputs": [
        {
          "name": "controller",
          "type": "address"
        },
        {
          "name": "tokens",
          "type": "address[2]"
        },
        {
          "name": "publisherAddress",
          "type": "address"
        },
        {
          "name": "ssParams",
          "type": "uint256[]"
        },
        {
          "name": "basetokenSender",
          "type": "address"
        },
        {
          "name": "swapFees",
          "type": "uint256[]"
        },
        {
          "name": "marketFeeCollector",
          "type": "address"
        }
      ],
      "name": "deployPool",
      "outputs": [
        {
          "name": "",
          "type": "address"
        }
      ],
      "payable": false,
      "stateMutability": "nonpayable",
      "type": "function"
    },
    {
      "constant": true,
      "inputs": [],
      "name": "MAX_BOUND_TOKENS",
      "outputs": [
        {
          "name": "",
          "type": "uint256"
        }
      ],
      "payable": false,
      "stateMutability": "view",
      "type": "function"
    },
    {
      "constant": true,
      "inputs": [],
      "name": "MIN_BOUND_TOKENS",
      "outputs": [
        {
          "name": "",
          "type": "uint256"
        }
      ],
      "payable": false,
      "stateMutability": "view",
      "type": "function"
    },
    {
      "constant": true,
      "inputs": [],
      "name": "MIN_BPOW_BASE",
      "outputs": [
        {
          "name": "",
          "type": "uint256"
        }
      ],
      "payable": false,
      "stateMutability": "view",
      "type": "function"
    },
    {
      "constant": true,
      "inputs": [],
      "name": "bpoolTemplate",
      "outputs": [
        {
          "name": "",
          "type": "address"
        }
      ],
      "payable": false,
      "stateMutability": "view",
      "type": "function"
    },
    {
      "constant": true,
      "inputs": [],
      "name": "MAX_FEE",
      "outputs": [
        {
          "name": "",
          "type": "uint256"
        }
      ],
      "payable": false,
      "stateMutability": "view",
      "type": "function"
    },
    {
      "constant": true,
      "inputs": [],
      "name": "MAX_BPOW_BASE",
      "outputs": [
        {
          "name": "",
          "type": "uint256"
        }
      ],
      "payable": false,
      "stateMutability": "view",
      "type": "function"
    },
    {
      "constant": true,
      "inputs": [],
      "name": "BONE",
      "outputs": [
        {
          "name": "",
          "type": "uint256"
        }
      ],
      "payable": false,
      "stateMutability": "view",
      "type": "function"
    },
    {
      "constant": true,
      "inputs": [],
      "name": "EXIT_FEE",
      "outputs": [
        {
          "name": "",
          "type": "uint256"
        }
      ],
      "payable": false,
      "stateMutability": "view",
      "type": "function"
    },
    {
      "constant": true,
      "inputs": [],
      "name": "swapOceanFee",
      "outputs": [
        {
          "name": "",
          "type": "uint256"
        }
      ],
      "payable": false,
      "stateMutability": "view",
      "type": "function"
    },
    {
      "constant": true,
      "inputs": [],
      "name": "MAX_WEIGHT",
      "outputs": [
        {
          "name": "",
          "type": "uint256"
        }
      ],
      "payable": false,
      "stateMutability": "view",
      "type": "function"
    },
    {
      "constant": true,
      "inputs": [],
      "name": "MAX_IN_RATIO",
      "outputs": [
        {
          "name": "",
          "type": "uint256"
        }
      ],
      "payable": false,
      "stateMutability": "view",
      "type": "function"
    },
    {
      "constant": true,
      "inputs": [
        {
          "name": "",
          "type": "address"
        }
      ],
      "name": "ssContracts",
      "outputs": [
        {
          "name": "",
          "type": "bool"
        }
      ],
      "payable": false,
      "stateMutability": "view",
      "type": "function"
    },
    {
      "constant": true,
      "inputs": [],
      "name": "erc20Factory",
      "outputs": [
        {
          "name": "",
          "type": "address"
        }
      ],
      "payable": false,
      "stateMutability": "view",
      "type": "function"
    },
    {
      "inputs": [
        {
          "name": "_routerOwner",
          "type": "address"
        },
        {
          "name": "_oceanToken",
          "type": "address"
        },
        {
          "name": "_bpoolTemplate",
          "type": "address"
        },
        {
          "name": "_ssContract",
          "type": "address"
        },
        {
          "name": "_opfCollector",
          "type": "address"
        },
        {
          "name": "_preCreatedPools",
          "type": "address[]"
        }
      ],
      "payable": false,
      "stateMutability": "nonpayable",
      "type": "constructor"
    },
    {
      "anonymous": false,
      "inputs": [
        {
          "indexed": true,
          "name": "poolAddress",
          "type": "address"
        },
        {
          "indexed": false,
          "name": "isOcean",
          "type": "bool"
        }
      ],
      "name": "NewPool",
      "type": "event"
    },
    {
      "anonymous": false,
      "inputs": [
        {
          "indexed": true,
          "name": "poolAddress",
          "type": "address"
        }
      ],
      "name": "NewForkPool",
      "type": "event"
    },
    {
      "anonymous": false,
      "inputs": [
        {
          "indexed": true,
          "name": "newBPoolAddress",
          "type": "address"
        },
        {
          "indexed": true,
          "name": "registeredBy",
          "type": "address"
        },
        {
          "indexed": true,
          "name": "datatokenAddress",
          "type": "address"
        },
        {
          "indexed": false,
          "name": "basetokenAddress",
          "type": "address"
        },
        {
          "indexed": false,
          "name": "bpoolTemplateAddress",
          "type": "address"
        },
        {
          "indexed": false,
          "name": "ssAddress",
          "type": "address"
        }
      ],
      "name": "BPoolCreated",
      "type": "event"
    },
    {
      "anonymous": false,
      "inputs": [
        {
          "indexed": false,
          "name": "instance",
          "type": "address"
        }
      ],
      "name": "InstanceDeployed",
      "type": "event"
    }
  ],
  "bytecode": "0x60806040523480156200001157600080fd5b5060405162007b9d38038062007b9d833981018060405262000037919081019062000434565b838282604051806020016200004c9062000388565b601f1982820381018352601f909101166040528051600060028204600181905580830360038190558185529091508362000092816200029f602090811b6200126c17901c565b600080546001600160a01b0319166001600160a01b03929092169190911790558285018051838252620000d1826200029f602090811b6200126c17901c565b600280546001600160a01b0319166001600160a01b03928316179055959092525250508416151590506200013c576040517f08c379a0000000000000000000000000000000000000000000000000000000008152600401620001339062000651565b60405180910390fd5b6001600160a01b0382166200017f576040517f08c379a0000000000000000000000000000000000000000000000000000000008152600401620001339062000663565b600480546001600160a01b038086166001600160a01b0319928316179092556005805492851692909116919091179055805115620002415760005b81518110156200023f5760006001600160a01b0316336001600160a01b0316838381518110620001e657fe5b60200260200101516001600160a01b03167fbb6121447d29a04cc37bfd93cdf6a9dd08229f2d941116c1528f04698c4e790e60008060006040516200022e9392919062000603565b60405180910390a4600101620001ba565b505b5050600680546001600160a01b0319166001600160a01b038981169190911790915584166000908152600960209081526040909120805460ff1916600117905562000293915086906200031d811b901c565b50505050505062000705565b80517f602038038060206000396000f3fefefefefefefefefefefefefefefefefefefe808352600091602081018484f090845291506001600160a01b03821662000317576040517f08c379a0000000000000000000000000000000000000000000000000000000008152600401620001339062000639565b50919050565b6006546001600160a01b0316331462000364576040517f08c379a0000000000000000000000000000000000000000000000000000000008152600401620001339062000675565b6001600160a01b03166000908152600860205260409020805460ff19166001179055565b6161358062001a6883390190565b6000620003a48251620006e4565b9392505050565b600082601f830112620003bd57600080fd5b8151620003d4620003ce82620006ae565b62000687565b91508181835260208401935060208101905083856020840282011115620003fa57600080fd5b60005b838110156200042a578162000413888262000396565b8452506020928301929190910190600101620003fd565b5050505092915050565b60008060008060008060c087890312156200044e57600080fd5b60006200045c898962000396565b96505060206200046f89828a0162000396565b95505060406200048289828a0162000396565b94505060606200049589828a0162000396565b9350506080620004a889828a0162000396565b92505060a08701516001600160401b03811115620004c557600080fd5b620004d389828a01620003ab565b9150509295509295509295565b620004eb81620006f1565b82525050565b600062000500601683620006cf565b7f434f44455f4445504c4f594d454e545f4641494c454400000000000000000000815260200192915050565b60006200053b602d83620006cf565b7f42466163746f72793a20696e76616c69642062706f6f6c2074656d706c61746581527f207a65726f206164647265737300000000000000000000000000000000000000602082015260400192915050565b60006200059c601683620006cf565b7f42466163746f72793a207a65726f206164647265737300000000000000000000815260200192915050565b6000620005d7601683620006cf565b7f4f6365616e526f757465723a204e4f54204f574e455200000000000000000000815260200192915050565b60608101620006138286620004e0565b620006226020830185620004e0565b620006316040830184620004e0565b949350505050565b602080825281016200064b81620004f1565b92915050565b602080825281016200064b816200052c565b602080825281016200064b816200058d565b602080825281016200064b81620005c8565b6040518181016001600160401b0381118282101715620006a657600080fd5b604052919050565b60006001600160401b03821115620006c557600080fd5b5060209081020190565b90815260200190565b6001600160a01b031690565b60006200064b82620006d8565b60006200064b8260006200064b82620006e4565b61135380620007156000396000f3fe608060405234801561001057600080fd5b50600436106101ce5760003560e01c8063a28f78f111610104578063bc694ea2116100a2578063e4a28a5211610071578063e4a28a5214610219578063ec09302114610317578063ee661f671461031f578063f4c3066f14610332576101ce565b8063bc694ea2146102ff578063c36596a61461024c578063c6580d1214610307578063e183fb3f1461030f576101ce565b8063b7b800a4116100de578063b7b800a4146102df578063ba019dab146102e7578063bae6ae12146102ef578063bc063e1a146102f7576101ce565b8063a28f78f1146102bc578063ac5717ed146102c4578063b0e0d136146102d7576101ce565b80636c9fb612116101715780638552730a1161014b5780638552730a1461028f578063867378c5146102a45780639381cd2b146102ac578063992e2a92146102b4576101ce565b80636c9fb6121461025457806376c7a3c71461026757806379463a0e1461026f576101ce565b806309a3bbe4116101ad57806309a3bbe414610219578063174481fa1461022e578063189d00ca14610244578063218b53821461024c576101ce565b8062c194db146101d35780630318ad66146101f15780630361b02914610206575b600080fd5b6101db61033a565b6040516101e89190611165565b60405180910390f35b6102046101ff366004610c79565b610359565b005b610204610214366004610c79565b6103b3565b61022161042e565b6040516101e891906111d6565b61023661043b565b6040516101e8929190611052565b610221610452565b610221610466565b610204610262366004610c79565b610472565b6102216104c3565b61028261027d366004610c79565b6104d5565b6040516101e89190611157565b6102976104ea565b6040516101e89190611036565b6102216104f9565b61022161050d565b61022161051a565b610297610526565b6102976102d2366004610c9f565b610535565b6102216108c0565b6102216108c5565b6102216108ca565b6102976108cf565b6102216108de565b6102216108ee565b6102216108fa565b6102216108ff565b61022161090a565b61028261032d366004610c79565b61091a565b61029761092f565b60606103546040518060200160405280600081525061093e565b905090565b6006546001600160a01b0316331461038f57604051600160e51b62461bcd028152600401610386906111a6565b60405180910390fd5b6001600160a01b03166000908152600860205260409020805460ff19166001179055565b6006546001600160a01b031633146103e057604051600160e51b62461bcd028152600401610386906111a6565b6007546001600160a01b03161561040c57604051600160e51b62461bcd02815260040161038690611196565b600780546001600160a01b0319166001600160a01b0392909216919091179055565b6802b5e3af16b188000081565b6000546002546001600160a01b0391821691169091565b6402540be400670de0b6b3a76400005b0481565b670de0b6b3a764000081565b6006546001600160a01b0316331461049f57604051600160e51b62461bcd028152600401610386906111a6565b6001600160a01b03166000908152600960205260409020805460ff19166001179055565b620f4240670de0b6b3a7640000610462565b60086020526000908152604090205460ff1681565b6006546001600160a01b031681565b64e8d4a51000670de0b6b3a7640000610462565b68056bc75e2d6310000081565b6704a03ce68d21555681565b6005546001600160a01b031681565b600754604051600160e01b63226e76150281526000916001600160a01b03169063226e761590610569903390600401611044565b60206040518083038186803b15801561058157600080fd5b505afa158015610595573d6000803e3d6000fd5b505050506040513d601f19601f820116820180604052506105b99190810190610d74565b15156001146105dd57604051600160e51b62461bcd02815260040161038690611186565b6001600160a01b038a81166000908152600960209081526040808320805460ff191660019081179091558d830135909416835260089091528120549091829160ff161515141561062c57600191505b6001600160a01b0360208c013516806323b872dd898f8d8d600481811061064f57fe5b905060200201356040518463ffffffff1660e01b81526004016106749392919061112f565b602060405180830381600087803b15801561068e57600080fd5b505af11580156106a2573d6000803e3d6000fd5b505050506040513d601f19601f820116820180604052506106c69190810190610d74565b506060878780806020026020016040519081016040528093929190818152602001838360200280828437600092019190915250929350505050831515600114156107a65760008160018151811061071957fe5b60200260200101818152505061079f8e8e6002806020026040519081016040528092919082600260200280828437600081840152601f19601f8201169050808301925050505050508e8e8e808060200260200160405190810160405280939291908181526020018383602002808284376000920191909152508892508d91506109af9050565b9250610844565b66038d7ea4c68000816001815181106107bb57fe5b6020026020010181815250506108418e8e6002806020026040519081016040528092919082600260200280828437600081840152601f19601f8201169050808301925050505050508e8e8e808060200260200160405190810160405280939291908181526020018383602002808284376000920191909152508892508d91506109af9050565b92505b6001600160a01b03831661086d57604051600160e51b62461bcd028152600401610386906111b6565b826001600160a01b03167f90279d7790471e260411db76079630dfaa838fc987d29ae7aa7dc1bcd773ef2e856040516108a69190611157565b60405180910390a250909c9b505050505050505050505050565b600881565b600281565b600181565b6004546001600160a01b031681565b600a670de0b6b3a7640000610462565b671bc16d674ec7ffff81565b600081565b66038d7ea4c6800081565b6002670de0b6b3a7640000610462565b60096020526000908152604090205460ff1681565b6007546001600160a01b031681565b60008054600154600254600354855160408051838601838101828101602090810190945280835291986001600160a01b039889169896909616959093928901908790828a3c846000888301883c50602089810190898501016109a1818386610b6a565b505050505050505050919050565b60006109b9610be3565b506040805180820182526001600160a01b038085168252600554166020808301919091528251908101909252600080835290916109f590610ba8565b90506001600160a01b038116610a2057604051600160e51b62461bcd02815260040161038690611176565b6000819050806001600160a01b031663c070a6d88b30896000808f8a6040518863ffffffff1660e01b8152600401610a5e97969594939291906110bf565b602060405180830381600087803b158015610a7857600080fd5b505af1158015610a8c573d6000803e3d6000fd5b505050506040513d601f19601f82011682018060405250610ab09190810190610d74565b610acf57604051600160e51b62461bcd028152600401610386906111c6565b885160208a0151604051600160e21b6314fc30ed0281526001600160a01b038d16926353f0c3b492610b099287908e908e9060040161106d565b602060405180830381600087803b158015610b2357600080fd5b505af1158015610b37573d6000803e3d6000fd5b505050506040513d601f19601f82011682018060405250610b5b9190810190610d74565b50909998505050505050505050565b5b60208110610b8a578151835260209283019290910190601f1901610b6b565b905182516020929092036101000a6000190180199091169116179052565b60006060610bb58361093e565b905060008151602083016000f090506001600160a01b038116610bdc573d6000803e3d6000fd5b9392505050565b60405180604001604052806002906020820280388339509192915050565b6000610bdc8235611205565b8060408101831015610c1e57600080fd5b92915050565b60008083601f840112610c3657600080fd5b50813567ffffffffffffffff811115610c4e57600080fd5b602083019150836020820283011115610c6657600080fd5b9250929050565b6000610bdc8251611210565b600060208284031215610c8b57600080fd5b6000610c978484610c01565b949350505050565b60008060008060008060008060006101008a8c031215610cbe57600080fd5b6000610cca8c8c610c01565b9950506020610cdb8c828d01610c0d565b9850506060610cec8c828d01610c01565b97505060808a013567ffffffffffffffff811115610d0957600080fd5b610d158c828d01610c24565b965096505060a0610d288c828d01610c01565b94505060c08a013567ffffffffffffffff811115610d4557600080fd5b610d518c828d01610c24565b935093505060e0610d648c828d01610c01565b9150509295985092959850929598565b600060208284031215610d8657600080fd5b6000610c978484610c6d565b6000610d9e8383610dc1565b505060200190565b6000610d9e838361102d565b610dbb81611221565b82525050565b610dbb81611205565b610dd3816111ed565b610ddd81846111f7565b9250610de8826111e4565b60005b82811015610e1357610dfe858351610d92565b9450610e09826111e7565b9150600101610deb565b5050505050565b6000610e25826111f3565b610e2f81856111fc565b9350610e3a836111e7565b60005b82811015610e6557610e50868351610da6565b9550610e5b826111e7565b9150600101610e3d565b5093949350505050565b610dbb81611210565b6000610e83826111f3565b610e8d81856111fc565b9350610e9d818560208601611232565b610ea681611262565b9093019392505050565b6000610ebd6024836111fc565b7f42466163746f72793a20696e76616c69642062706f6f6c207a65726f206164648152600160e01b637265737302602082015260400192915050565b6000610f06602b836111fc565b7f464143544f525920524f555445523a204e4f54204f524947494e414c204552438152600160a81b6a32302054454d504c41544502602082015260400192915050565b6000610f566013836111fc565b7f464143544f525920414c52454144592053455400000000000000000000000000815260200192915050565b6000610f8f6016836111fc565b7f4f6365616e526f757465723a204e4f54204f574e455200000000000000000000815260200192915050565b6000610fc86015836111fc565b7f4641494c454420544f204445504c4f5920504f4f4c0000000000000000000000815260200192915050565b60006110016014836111fc565b7f4552525f494e495449414c495a455f42504f4f4c000000000000000000000000815260200192915050565b610dbb816111e4565b60208101610c1e8284610dc1565b60208101610c1e8284610db2565b604081016110608285610dc1565b610bdc6020830184610dc1565b60a0810161107b8288610dc1565b6110886020830187610dc1565b6110956040830186610dc1565b6110a26060830185610dc1565b81810360808301526110b48184610e1a565b979650505050505050565b61012081016110ce828a610dc1565b6110db6020830189610dc1565b81810360408301526110ed8188610e1a565b90506110fc6060830187610e6f565b6111096080830186610e6f565b61111660a0830185610dca565b61112360e0830184610dca565b98975050505050505050565b6060810161113d8286610dc1565b61114a6020830185610dc1565b610c97604083018461102d565b60208101610c1e8284610e6f565b60208082528101610bdc8184610e78565b60208082528101610c1e81610eb0565b60208082528101610c1e81610ef9565b60208082528101610c1e81610f49565b60208082528101610c1e81610f82565b60208082528101610c1e81610fbb565b60208082528101610c1e81610ff4565b60208101610c1e828461102d565b90565b60200190565b50600290565b5190565b919050565b90815260200190565b6000610c1e82611215565b151590565b6001600160a01b031690565b6000610c1e826000610c1e82611205565b60005b8381101561124d578181015183820152602001611235565b8381111561125c576000848401525b50505050565b601f01601f191690565b80517f602038038060206000396000f3fefefefefefefefefefefefefefefefefefefe808352600091602081018484f090845291506001600160a01b0382166112ca57604051600160e51b62461bcd02815260040161038690611309565b50919050565b60006112dd6016836111fc565b7f434f44455f4445504c4f594d454e545f4641494c454400000000000000000000815260200192915050565b60208082528101610c1e816112d056fea265627a7a723058209b9eabece19dd13d129a9da06472c66e22f6b3e341ccbf8872f668297e8447226c6578706572696d656e74616cf5003760c0604052601360808190527f42616c616e63657220506f6f6c20546f6b656e0000000000000000000000000060a09081526200004091600a9190620000a9565b506040805180820190915260038082527f425054000000000000000000000000000000000000000000000000000000000060209092019182526200008791600b91620000a9565b50600c805460ff19166012179055348015620000a257600080fd5b506200014e565b828054600181600116156101000203166002900490600052602060002090601f016020900481019282601f10620000ec57805160ff19168380011785556200011c565b828001600101855582156200011c579182015b828111156200011c578251825591602001919060010190620000ff565b506200012a9291506200012e565b5090565b6200014b91905b808211156200012a576000815560010162000135565b90565b615fd7806200015e6000396000f3fe608060405234801561001057600080fd5b50600436106103db5760003560e01c80638d4e40831161020a578063be3bbd2e11610125578063dd62ed3e116100b8578063f1b8a9b711610087578063f1b8a9b714610bc3578063f542f6cf14610be9578063f8b2cb4f14610c0f578063fbb9dd5014610c35578063fde924f714610c5b576103db565b8063dd62ed3e14610b85578063e4a28a5214610505578063ec09302114610bb3578063f0f13f0b14610bbb576103db565b8063cc77828d116100f4578063cc77828d14610b41578063cd2ed8fb14610b49578063d4cadf6814610b51578063d73dd62314610b59576103db565b8063be3bbd2e14610a43578063c070a6d814610a9b578063c36596a614610595578063c6580d1214610b39576103db565b8063a9059cbb1161019d578063b80483b01161016c578063b80483b014610a23578063ba019dab14610a2b578063bc063e1a14610a33578063bc694ea214610a3b576103db565b8063a9059cbb14610970578063b02f0b731461099c578063b0e0d13614610a13578063b7b800a414610a1b576103db565b8063948d8ce6116101d9578063948d8ce61461093257806395d89b4114610958578063992e2a9214610960578063a562ddf014610968576103db565b80638d4e4083146108f457806391f2a496146108fc578063936c3477146109225780639381cd2b1461092a576103db565b806334e19907116102fa5780636d06dfa01161028d5780637c5e9ea41161025c5780637c5e9ea41461082d5780637c6e92c2146108865780638201aa3f146108ac578063867378c5146108ec576103db565b80636d06dfa0146107a757806370330518146107d957806370a08231146107ff57806376c7a3c714610825576103db565b80634df947d0116102c95780634df947d0146106ca5780634f69c0d4146106d25780635db3427714610749578063661884631461077b576103db565b806334e199071461066b578063392e53cd1461068857806346ab38f11461069057806349e9350f146106c2576103db565b8063189d00ca11610372578063300621921161034157806330062192146105f95780633018205f1461061f578063313ce5671461062757806331e2761b14610645576103db565b8063189d00ca1461058d578063218b53821461059557806323b872dd1461059d5780632f37b624146105d3576103db565b806309a3bbe4116103ae57806309a3bbe41461050557806309ef3f5b1461050d57806315e84af91461055757806318160ddd14610585576103db565b806302c96748146103e057806304ad79541461042457806306fdde0314610448578063095ea7b3146104c5575b600080fd5b610412600480360360608110156103f657600080fd5b506001600160a01b038135169060208101359060400135610c63565b60408051918252519081900360200190f35b61042c6111ce565b604080516001600160a01b039092168252519081900360200190f35b6104506111dd565b6040805160208082528351818301528351919283929083019185019080838360005b8381101561048a578181015183820152602001610472565b50505050905090810190601f1680156104b75780820380516001836020036101000a031916815260200191505b509250505060405180910390f35b6104f1600480360360408110156104db57600080fd5b506001600160a01b038135169060200135611273565b604080519115158252519081900360200190f35b6104126112c8565b610555600480360360c081101561052357600080fd5b506001600160a01b03813581169160208101359160408201359160608101359091169060808101359060a001356112d5565b005b6104126004803603604081101561056d57600080fd5b506001600160a01b0381358116916020013516611491565b6104126115ea565b6104126115f0565b610412611604565b6104f1600480360360608110156105b357600080fd5b506001600160a01b03813581169160208101359091169060400135611610565b6104f1600480360360208110156105e957600080fd5b50356001600160a01b0316611775565b6104126004803603602081101561060f57600080fd5b50356001600160a01b0316611793565b61042c6117a5565b61062f6117b4565b6040805160ff9092168252519081900360200190f35b6104126004803603602081101561065b57600080fd5b50356001600160a01b03166117bd565b6105556004803603602081101561068157600080fd5b50356117cf565b6104f1611925565b610412600480360360608110156106a657600080fd5b506001600160a01b038135169060208101359060400135611935565b610412611e53565b61042c611e59565b610555600480360360408110156106e857600080fd5b8135919081019060408101602082013564010000000081111561070a57600080fd5b82018360208201111561071c57600080fd5b8035906020019184602083028401116401000000008311171561073e57600080fd5b509092509050611e68565b6104126004803603606081101561075f57600080fd5b506001600160a01b0381351690602081013590604001356121ee565b6104f16004803603604081101561079157600080fd5b506001600160a01b0381351690602001356126b8565b610412600480360360608110156107bd57600080fd5b506001600160a01b038135169060208101359060400135612790565b610555600480360360208110156107ef57600080fd5b50356001600160a01b0316612c79565b6104126004803603602081101561081557600080fd5b50356001600160a01b0316612cfd565b610412612d18565b61086d600480360360a081101561084357600080fd5b506001600160a01b0381358116916020810135916040820135169060608101359060800135612d2a565b6040805192835260208301919091528051918290030190f35b6104126004803603602081101561089c57600080fd5b50356001600160a01b03166131db565b61086d600480360360a08110156108c257600080fd5b506001600160a01b03813581169160208101359160408201351690606081013590608001356131ed565b610412613670565b6104f1613684565b6105556004803603602081101561091257600080fd5b50356001600160a01b0316613694565b610412613897565b6104126138f2565b6104126004803603602081101561094857600080fd5b50356001600160a01b03166138ff565b6104506139d0565b610412613a31565b61042c613a3d565b6104f16004803603604081101561098657600080fd5b506001600160a01b038135169060200135613a4c565b610555600480360360408110156109b257600080fd5b813591908101906040810160208201356401000000008111156109d457600080fd5b8201836020820111156109e657600080fd5b80359060200191846020830284011164010000000083111715610a0857600080fd5b509092509050613a62565b610412613e03565b610412613e08565b610412613e0d565b610412613e13565b610412613e18565b610412613e28565b610a4b613e34565b60408051602080825283518183015283519192839290830191858101910280838360005b83811015610a87578181015183820152602001610a6f565b505050509050019250505060405180910390f35b6104f16004803603610120811015610ab257600080fd5b6001600160a01b038235811692602081013590911691810190606081016040820135640100000000811115610ae657600080fd5b820183602082011115610af857600080fd5b80359060200191846020830284011164010000000083111715610b1a57600080fd5b9193509150803515159060208101351515906040810190608001613f36565b6104126141ab565b610a4b6141b0565b610412614204565b61041261420a565b6104f160048036036040811015610b6f57600080fd5b506001600160a01b038135169060200135614210565b61041260048036036040811015610b9b57600080fd5b506001600160a01b0381358116916020013516614291565b6104126142bc565b61042c6142cc565b61041260048036036020811015610bd957600080fd5b50356001600160a01b03166142db565b61041260048036036020811015610bff57600080fd5b50356001600160a01b03166143be565b61041260048036036020811015610c2557600080fd5b50356001600160a01b03166143d0565b61055560048036036020811015610c4b57600080fd5b50356001600160a01b03166144a1565b6104f16146b1565b600c54600090610100900460ff1615610cb75760408051600160e51b62461bcd02815260206004820152600b6024820152600160a81b6a4552525f5245454e54525902604482015290519081900360640190fd5b600c805461ff001916610100179055601154600160a01b900460ff16610d155760408051600160e51b62461bcd0281526020600482015260116024820152600080516020615ecc833981519152604482015290519081900360640190fd5b6001600160a01b03841660009081526013602052604090205460ff16610d735760408051600160e51b62461bcd02815260206004820152600d6024820152600080516020615f4c833981519152604482015290519081900360640190fd5b6001600160a01b0384166000908152601360205260409020600390810154610da891670de0b6b3a76400005b046001016146c1565b831115610df65760408051600160e51b62461bcd0281526020600482015260116024820152600160781b704552525f4d41585f4f55545f524154494f02604482015290519081900360640190fd5b600e546001600160a01b039081166000818152601360205260408120909283929088161415610e3257600f546001600160a01b03169150610e57565b5050600e54600f546001600160a01b0390811660009081526013602052604090209116905b6001600160a01b038716600090815260136020526040902060038101546002820154600954601454610e8c939291908b614796565b945084610ed15760408051600160e51b62461bcd02815260206004820152600f6024820152600080516020615f8c833981519152604482015290519081900360640190fd5b85851115610f1b5760408051600160e51b62461bcd02815260206004820152600c6024820152600160a11b6b22a9292fa624a6a4aa2fa4a702604482015290519081900360640190fd5b610f2981600301548861485a565b60038201556000610f3a86826146c1565b604080518a815242602082015281519293506001600160a01b038c16923392600080516020615eec833981519152928290030190a3604080518781529051600080516020615f0c8339815191529181900360200190a1610f9a33876148cb565b610fac610fa7878361485a565b6148d9565b600c54610fc8906201000090046001600160a01b0316826148e5565b610fd389338a6148ef565b6000610fee846003015485600201546009546014548b6149ce565b601554600e5460408051600160e01b63efd481030281526001600160a01b039283166004820152898316602482015260448101859052905193945091169163efd4810391606480820192602092909190829003018186803b15801561105257600080fd5b505afa158015611066573d6000803e3d6000fd5b505050506040513d602081101561107c57600080fd5b50511515600114156111b65761109684600301548261485a565b60038501556110a68760006146c1565b600d546040805184815242602082015281519395506001600160a01b03808a1694931692600080516020615eec833981519152929181900390910190a3600d546110f9906001600160a01b0316886148cb565b611106610fa7888461485a565b600c54611122906201000090046001600160a01b0316836148e5565b600d5461113a9086906001600160a01b0316836148ef565b601554600e5460408051600160e11b63679346f50281526001600160a01b0392831660048201528883166024820152604481018590529051919092169163cf268dea91606480830192600092919082900301818387803b15801561119d57600080fd5b505af11580156111b1573d6000803e3d6000fd5b505050505b505050505050600c805461ff00191690559392505050565b600e546001600160a01b031690565b600a8054604080516020601f60026000196101006001881615020190951694909404938401819004810282018101909252828152606093909290918301828280156112695780601f1061123e57610100808354040283529160200191611269565b820191906000526020600020905b81548152906001019060200180831161124c57829003601f168201915b5050505050905090565b3360008181526008602090815260408083206001600160a01b03871680855290835281842086905581518681529151939490939092600080516020615f6c833981519152928290030190a35060015b92915050565b6802b5e3af16b188000081565b600d546001600160a01b031633146113375760408051600160e51b62461bcd02815260206004820152601660248201527f4552525f494e56414c49445f434f4e54524f4c4c455200000000000000000000604482015290519081900360640190fd5b600e546001600160a01b0387811691161461139c5760408051600160e51b62461bcd02815260206004820152601d60248201527f4552525f494e56414c49445f44415441544f4b454e5f41444452455353000000604482015290519081900360640190fd5b600f546001600160a01b038481169116146114015760408051600160e51b62461bcd02815260206004820152601d60248201527f4552525f494e56414c49445f42415345544f4b454e5f41444452455353000000604482015290519081900360640190fd5b61140c868686614a9d565b6040805186815242602082015281516001600160a01b038916923392600080516020615f2c833981519152929081900390910190a361144c838383614a9d565b6040805183815242602082015281516001600160a01b038616923392600080516020615f2c833981519152929081900390910190a3611489614cc7565b505050505050565b600c54600090610100900460ff16156114e55760408051600160e51b62461bcd02815260206004820152600b6024820152600160a81b6a4552525f5245454e54525902604482015290519081900360640190fd5b6001600160a01b03831660009081526013602052604090205460ff166115435760408051600160e51b62461bcd02815260206004820152600d6024820152600080516020615f4c833981519152604482015290519081900360640190fd5b6001600160a01b03821660009081526013602052604090205460ff166115a15760408051600160e51b62461bcd02815260206004820152600d6024820152600080516020615f4c833981519152604482015290519081900360640190fd5b6001600160a01b038084166000908152601360205260408082209285168252902060038083015460028085015492840154908401546115e1939190614d14565b95945050505050565b60095490565b6402540be400670de0b6b3a76400005b0481565b670de0b6b3a764000081565b6000336001600160a01b038516148061164c57506001600160a01b03841660009081526008602090815260408083203384529091529020548211155b6116a05760408051600160e51b62461bcd02815260206004820152601560248201527f4552525f42544f4b454e5f4241445f43414c4c45520000000000000000000000604482015290519081900360640190fd5b6116ab848484614d87565b336001600160a01b038516148015906116e957506001600160a01b038416600090815260086020908152604080832033845290915290205460001914155b1561176b576001600160a01b038416600090815260086020908152604080832033845290915290205461171c908361485a565b6001600160a01b0385811660009081526008602090815260408083203380855290835292819020859055805194855251928716939192600080516020615f6c8339815191529281900390910190a35b5060019392505050565b6001600160a01b031660009081526013602052604090205460ff1690565b60036020526000908152604090205481565b600d546001600160a01b031690565b600c5460ff1690565b60056020526000908152604090205481565b601154600160a01b900460ff16156118275760408051600160e51b62461bcd0281526020600482015260106024820152600160821b6f11549497d254d7d1925390531256915102604482015290519081900360640190fd5b600d546001600160a01b031633146118815760408051600160e51b62461bcd0281526020600482015260126024820152600160711b7122a9292fa727aa2fa1a7a72a2927a62622a902604482015290519081900360640190fd5b64e8d4a510008110156118cf5760408051600160e51b62461bcd02815260206004820152600b6024820152600160a81b6a4552525f4d494e5f46454502604482015290519081900360640190fd5b67016345785d8a00008111156119205760408051600160e51b62461bcd02815260206004820152600b6024820152600160a81b6a4552525f4d41585f46454502604482015290519081900360640190fd5b600255565b601554600160a01b900460ff1690565b600c54600090610100900460ff16156119895760408051600160e51b62461bcd02815260206004820152600b6024820152600160a81b6a4552525f5245454e54525902604482015290519081900360640190fd5b600c805461ff001916610100179055601154600160a01b900460ff166119e75760408051600160e51b62461bcd0281526020600482015260116024820152600080516020615ecc833981519152604482015290519081900360640190fd5b6001600160a01b03841660009081526013602052604090205460ff16611a455760408051600160e51b62461bcd02815260206004820152600d6024820152600080516020615f4c833981519152604482015290519081900360640190fd5b6001600160a01b038416600090815260136020526040902060038101546002820154600954601454611a7a93929190886149ce565b915082821015611ac75760408051600160e51b62461bcd02815260206004820152600d60248201526001609a1b6c11549497d31253525517d3d55502604482015290519081900360640190fd5b6001600160a01b0385166000908152601360205260409020600390810154611af791670de0b6b3a7640000610d9f565b821115611b455760408051600160e51b62461bcd0281526020600482015260116024820152600160781b704552525f4d41585f4f55545f524154494f02604482015290519081900360640190fd5b600e546001600160a01b039081166000818152601360205260408120909290919088161415611b8157600f546001600160a01b03169150611ba6565b5050600e54600f546001600160a01b0390811660009081526013602052604090209116905b611bb483600301548561485a565b60038401556000611bc587826146c1565b6040805187815242602082015281519293506001600160a01b038b16923392600080516020615eec833981519152928290030190a3604080518881529051600080516020615f0c8339815191529181900360200190a1611c2533886148cb565b611c32610fa7888361485a565b600c54611c4e906201000090046001600160a01b0316826148e5565b611c598833876148ef565b6000611c74836003015484600201546009546014548c6149ce565b601554600e5460408051600160e01b63efd481030281526001600160a01b039283166004820152888316602482015260448101859052905193945091169163efd4810391606480820192602092909190829003018186803b158015611cd857600080fd5b505afa158015611cec573d6000803e3d6000fd5b505050506040513d6020811015611d0257600080fd5b5051151560011415611e3c57611d1c83600301548261485a565b6003840155611d2c8860006146c1565b600d546040805184815242602082015281519395506001600160a01b0380891694931692600080516020615eec833981519152929181900390910190a3600d54611d7f906001600160a01b0316896148cb565b611d8c610fa7898461485a565b600c54611da8906201000090046001600160a01b0316836148e5565b600d54611dc09085906001600160a01b0316836148ef565b601554600e5460408051600160e11b63679346f50281526001600160a01b0392831660048201528783166024820152604481018590529051919092169163cf268dea91606480830192600092919082900301818387803b158015611e2357600080fd5b505af1158015611e37573d6000803e3d6000fd5b505050505b5050505050600c805461ff00191690559392505050565b60015481565b600f546001600160a01b031690565b600c54610100900460ff1615611eb95760408051600160e51b62461bcd02815260206004820152600b6024820152600160a81b6a4552525f5245454e54525902604482015290519081900360640190fd5b600c805461ff001916610100179055601154600160a01b900460ff16611f175760408051600160e51b62461bcd0281526020600482015260116024820152600080516020615ecc833981519152604482015290519081900360640190fd5b600080805b601254811015611fca57600e54601280546001600160a01b039092169183908110611f4357fe5b6000918252602090912001546001600160a01b03161415611f7457848482818110611f6a57fe5b9050602002013592505b600f54601280546001600160a01b039092169183908110611f9157fe5b6000918252602090912001546001600160a01b03161415611fc257848482818110611fb857fe5b9050602002013591505b600101611f1c565b506000611fd56115ea565b90506000611fe38783614ea5565b9050806120285760408051600160e51b62461bcd02815260206004820152600f6024820152600080516020615f8c833981519152604482015290519081900360640190fd5b60005b6012548110156121a55760006012828154811061204457fe5b60009182526020808320909101546001600160a01b0316808352601390915260408220600301549092509061207985836146c1565b9050806120be5760408051600160e51b62461bcd02815260206004820152600f6024820152600080516020615f8c833981519152604482015290519081900360640190fd5b8989858181106120ca57fe5b9050602002013581111561211a5760408051600160e51b62461bcd02815260206004820152600c6024820152600160a11b6b22a9292fa624a6a4aa2fa4a702604482015290519081900360640190fd5b6001600160a01b0383166000908152601360205260409020600301546121409082614fcd565b6001600160a01b0384166000818152601360209081526040918290206003019390935580518481524293810193909352805191923392600080516020615f2c833981519152929181900390910190a361219a83338361502a565b50505060010161202b565b506121af87615086565b6121b933886148e5565b604080518881529051600080516020615f0c8339815191529181900360200190a15050600c805461ff00191690555050505050565b600c54600090610100900460ff16156122425760408051600160e51b62461bcd02815260206004820152600b6024820152600160a81b6a4552525f5245454e54525902604482015290519081900360640190fd5b600c805461ff001916610100179055601154600160a01b900460ff166122a05760408051600160e51b62461bcd0281526020600482015260116024820152600080516020615ecc833981519152604482015290519081900360640190fd5b6001600160a01b03841660009081526013602052604090205460ff166122fe5760408051600160e51b62461bcd02815260206004820152600d6024820152600080516020615f4c833981519152604482015290519081900360640190fd5b6001600160a01b038416600090815260136020526040902060030154612330906002670de0b6b3a76400005b046146c1565b83111561237d5760408051600160e51b62461bcd0281526020600482015260106024820152600160801b6f4552525f4d41585f494e5f524154494f02604482015290519081900360640190fd5b600e546001600160a01b039081166000818152601360205260408120909290918391881614156123b95750600f546001600160a01b03166123de565b5050600f546001600160a01b039081166000908152601360205260409020600e549091165b6001600160a01b038716600090815260136020526040902060038101546002820154600954601454612413939291908b61508f565b9450858510156124605760408051600160e51b62461bcd02815260206004820152600d60248201526001609a1b6c11549497d31253525517d3d55502604482015290519081900360640190fd5b61246e816003015488614fcd565b60038201556040805188815242602082015281516001600160a01b038b16923392600080516020615f2c833981519152929081900390910190a3604080518681529051600080516020615f0c8339815191529181900360200190a16124d285615086565b6124dc33866148e5565b6124e788338961502a565b6000612502846003015485600201546009546014548a615124565b601554600e5460408051600160e01b6326b1f01f0281526001600160a01b03928316600482015287831660248201526044810185905290519394509116916326b1f01f91606480820192602092909190829003018186803b15801561256657600080fd5b505afa15801561257a573d6000803e3d6000fd5b505050506040513d602081101561259057600080fd5b5051151560011415611e3c57601554600e5460408051600160e01b6399039fcf0281526001600160a01b039283166004820152868316602482015260448101859052905191909216916399039fcf91606480830192600092919082900301818387803b1580156125ff57600080fd5b505af1158015612613573d6000803e3d6000fd5b50505050612625846003015482614fcd565b6003850155600d546040805183815242602082015281516001600160a01b03808816941692600080516020615f2c833981519152928290030190a3604080518781529051600080516020615f0c8339815191529181900360200190a161268a86615086565b600d546126a0906001600160a01b0316876148e5565b600d54611e3c9084906001600160a01b03168361502a565b3360009081526008602090815260408083206001600160a01b03861684529091528120548083111561270d573360009081526008602090815260408083206001600160a01b038816845290915281205561273c565b612717818461485a565b3360009081526008602090815260408083206001600160a01b03891684529091529020555b3360008181526008602090815260408083206001600160a01b038916808552908352928190205481519081529051929392600080516020615f6c833981519152929181900390910190a35060019392505050565b600c54600090610100900460ff16156127e45760408051600160e51b62461bcd02815260206004820152600b6024820152600160a81b6a4552525f5245454e54525902604482015290519081900360640190fd5b600c805461ff001916610100179055601154600160a01b900460ff166128425760408051600160e51b62461bcd0281526020600482015260116024820152600080516020615ecc833981519152604482015290519081900360640190fd5b6001600160a01b03841660009081526013602052604090205460ff166128a05760408051600160e51b62461bcd02815260206004820152600d6024820152600080516020615f4c833981519152604482015290519081900360640190fd5b6001600160a01b0384166000908152601360205260409020600381015460028201546009546014546128d59392919088615124565b600e546001600160a01b0390811660008181526013602052604081209395509291839190891614156129135750600f546001600160a01b0316612938565b5050600f546001600160a01b039081166000908152601360205260409020600e549091165b8461297b5760408051600160e51b62461bcd02815260206004820152600f6024820152600080516020615f8c833981519152604482015290519081900360640190fd5b858511156129c55760408051600160e51b62461bcd02815260206004820152600c6024820152600160a11b6b22a9292fa624a6a4aa2fa4a702604482015290519081900360640190fd5b6001600160a01b0388166000908152601360205260409020600301546129f5906002670de0b6b3a764000061232a565b851115612a425760408051600160e51b62461bcd0281526020600482015260106024820152600160801b6f4552525f4d41585f494e5f524154494f02604482015290519081900360640190fd5b612a50846003015486614fcd565b60038501556040805186815242602082015281516001600160a01b038b16923392600080516020615f2c833981519152929081900390910190a3604080518881529051600080516020615f0c8339815191529181900360200190a1612ab487615086565b612abe33886148e5565b612ac988338761502a565b6000612ae4836003015484600201546009546014548c615124565b601554600e5460408051600160e01b6326b1f01f0281526001600160a01b03928316600482015286831660248201526044810185905290519394509116916326b1f01f91606480820192602092909190829003018186803b158015612b4857600080fd5b505afa158015612b5c573d6000803e3d6000fd5b505050506040513d6020811015612b7257600080fd5b5051151560011415611e3c57601554600e5460408051600160e01b6399039fcf0281526001600160a01b039283166004820152858316602482015260448101859052905191909216916399039fcf91606480830192600092919082900301818387803b158015612be157600080fd5b505af1158015612bf5573d6000803e3d6000fd5b50505050612c07836003015482614fcd565b6003840155600d546040805183815242602082015281516001600160a01b03808716941692600080516020615f2c833981519152928290030190a3612c4b88615086565b600d54612c61906001600160a01b0316896148e5565b600d54611e3c9083906001600160a01b03168361502a565b6010546001600160a01b03163314612cdb5760408051600160e51b62461bcd02815260206004820152601560248201527f4f4e4c59204d41524b455420434f4c4c4543544f520000000000000000000000604482015290519081900360640190fd5b601080546001600160a01b0319166001600160a01b0392909216919091179055565b6001600160a01b031660009081526007602052604090205490565b620f4240670de0b6b3a7640000611600565b600c546000908190610100900460ff1615612d805760408051600160e51b62461bcd02815260206004820152600b6024820152600160a81b6a4552525f5245454e54525902604482015290519081900360640190fd5b600c805461ff001916610100179055601154600160a01b900460ff16612dde5760408051600160e51b62461bcd0281526020600482015260116024820152600080516020615ecc833981519152604482015290519081900360640190fd5b6001600160a01b03871660009081526013602052604090205460ff16612e3c5760408051600160e51b62461bcd02815260206004820152600d6024820152600080516020615f4c833981519152604482015290519081900360640190fd5b6001600160a01b03851660009081526013602052604090205460ff16612e9a5760408051600160e51b62461bcd02815260206004820152600d6024820152600080516020615f4c833981519152604482015290519081900360640190fd5b6001600160a01b0380881660009081526013602052604080822092881682529020600380820154612ed391670de0b6b3a7640000610d9f565b861115612f215760408051600160e51b62461bcd0281526020600482015260116024820152600160781b704552525f4d41585f4f55545f524154494f02604482015290519081900360640190fd5b6000612f3f8360030154846002015484600301548560020154614d14565b905085811115612f995760408051600160e51b62461bcd02815260206004820152601360248201527f4552525f4241445f4c494d49545f505249434500000000000000000000000000604482015290519081900360640190fd5b6000612fa3615ead565b604051806080016040528086600301548152602001866002015481526020018560030154815260200185600201548152509050612fe1818a8e6151be565b90975091508a8711156130305760408051600160e51b62461bcd02815260206004820152600c6024820152600160a11b6b22a9292fa624a6a4aa2fa4a702604482015290519081900360640190fd5b61303e856003015483614fcd565b856003018190555061305484600301548a61485a565b6003808601829055860154600280880154908701546130739390614d14565b9550828610156130bb5760408051600160e51b62461bcd02815260206004820152600f6024820152600080516020615f8c833981519152604482015290519081900360640190fd5b878611156131085760408051600160e51b62461bcd02815260206004820152600f6024820152600160881b6e4552525f4c494d49545f505249434502604482015290519081900360640190fd5b613112878a614ea5565b8311156131575760408051600160e51b62461bcd02815260206004820152600f6024820152600080516020615f8c833981519152604482015290519081900360640190fd5b60408051888152602081018b9052428183015290516001600160a01b03808d1692908f169133917f50ef2fc267012b5c84b56835f16ffd5331ac5a151a3760d74908721ba78b0efe919081900360600190a46131b48c338961502a565b6131bf8a338b6148ef565b5050505050600c805461ff001916905590969095509350505050565b60046020526000908152604090205481565b600c546000908190610100900460ff16156132435760408051600160e51b62461bcd02815260206004820152600b6024820152600160a81b6a4552525f5245454e54525902604482015290519081900360640190fd5b600c805461ff001916610100179055601154600160a01b900460ff166132a15760408051600160e51b62461bcd0281526020600482015260116024820152600080516020615ecc833981519152604482015290519081900360640190fd5b6001600160a01b03871660009081526013602052604090205460ff166132ff5760408051600160e51b62461bcd02815260206004820152600d6024820152600080516020615f4c833981519152604482015290519081900360640190fd5b6001600160a01b03851660009081526013602052604090205460ff1661335d5760408051600160e51b62461bcd02815260206004820152600d6024820152600080516020615f4c833981519152604482015290519081900360640190fd5b6001600160a01b03808816600090815260136020526040808220928816825290206003820154613397906002670de0b6b3a764000061232a565b8811156133e45760408051600160e51b62461bcd0281526020600482015260106024820152600160801b6f4552525f4d41585f494e5f524154494f02604482015290519081900360640190fd5b60006134028360030154846002015484600301548560020154614d14565b90508581111561345c5760408051600160e51b62461bcd02815260206004820152601360248201527f4552525f4241445f4c494d49545f505249434500000000000000000000000000604482015290519081900360640190fd5b61347a83600301548460020154846003015485600201548d8f6153d7565b9450868510156134c75760408051600160e51b62461bcd02815260206004820152600d60248201526001609a1b6c11549497d31253525517d3d55502604482015290519081900360640190fd5b6134d583600301548a614fcd565b83600301819055506134eb82600301548661485a565b60038084018290558401546002808601549085015461350a9390614d14565b9350808410156135525760408051600160e51b62461bcd02815260206004820152600f6024820152600080516020615f8c833981519152604482015290519081900360640190fd5b8584111561359f5760408051600160e51b62461bcd02815260206004820152600f6024820152600160881b6e4552525f4c494d49545f505249434502604482015290519081900360640190fd5b6135a98986614ea5565b8111156135ee5760408051600160e51b62461bcd02815260206004820152600f6024820152600080516020615f8c833981519152604482015290519081900360640190fd5b604080518a815260208101879052428183015290516001600160a01b03808b1692908d169133917f50ef2fc267012b5c84b56835f16ffd5331ac5a151a3760d74908721ba78b0efe919081900360600190a461364b8a338b61502a565b6136568833876148ef565b505050600c805461ff001916905590969095509350505050565b64e8d4a51000670de0b6b3a7640000611600565b601154600160a01b900460ff1690565b6011546001600160a01b031633146136e45760408051600160e51b62461bcd0281526020600482015260086024820152600160c11b6727a7262c9027a82302604482015290519081900360640190fd5b60606136ee613e34565b905060005b81518110156138925760006004600084848151811061370e57fe5b60200260200101516001600160a01b03166001600160a01b03168152602001908152602001600020546003600085858151811061374757fe5b60200260200101516001600160a01b03166001600160a01b0316815260200190815260200160002054039050806004600085858151811061378457fe5b60200260200101516001600160a01b03166001600160a01b031681526020019081526020016000205401600460008585815181106137be57fe5b60200260200101516001600160a01b03166001600160a01b03168152602001908152602001600020819055508282815181106137f657fe5b60200260200101516001600160a01b031663a9059cbb85836040518363ffffffff1660e01b815260040180836001600160a01b03166001600160a01b0316815260200182815260200192505050602060405180830381600087803b15801561385d57600080fd5b505af1158015613871573d6000803e3d6000fd5b505050506040513d602081101561388757600080fd5b5050506001016136f3565b505050565b600c54600090610100900460ff16156138eb5760408051600160e51b62461bcd02815260206004820152600b6024820152600160a81b6a4552525f5245454e54525902604482015290519081900360640190fd5b5060145490565b68056bc75e2d6310000081565b600c54600090610100900460ff16156139535760408051600160e51b62461bcd02815260206004820152600b6024820152600160a81b6a4552525f5245454e54525902604482015290519081900360640190fd5b6001600160a01b03821660009081526013602052604090205460ff166139b15760408051600160e51b62461bcd02815260206004820152600d6024820152600080516020615f4c833981519152604482015290519081900360640190fd5b506001600160a01b031660009081526013602052604090206002015490565b600b8054604080516020601f60026000196101006001881615020190951694909404938401819004810282018101909252828152606093909290918301828280156112695780601f1061123e57610100808354040283529160200191611269565b6704a03ce68d21555681565b6010546001600160a01b031681565b6000613a59338484614d87565b50600192915050565b600c54610100900460ff1615613ab35760408051600160e51b62461bcd02815260206004820152600b6024820152600160a81b6a4552525f5245454e54525902604482015290519081900360640190fd5b600c805461ff001916610100179055601154600160a01b900460ff16613b115760408051600160e51b62461bcd0281526020600482015260116024820152600080516020615ecc833981519152604482015290519081900360640190fd5b600080805b601254811015613bc457600e54601280546001600160a01b039092169183908110613b3d57fe5b6000918252602090912001546001600160a01b03161415613b6e57848482818110613b6457fe5b9050602002013592505b600f54601280546001600160a01b039092169183908110613b8b57fe5b6000918252602090912001546001600160a01b03161415613bbc57848482818110613bb257fe5b9050602002013591505b600101613b16565b506000613bcf6115ea565b90506000613bde8760006146c1565b90506000613bec888361485a565b90506000613bfa8285614ea5565b905080613c3f5760408051600160e51b62461bcd02815260206004820152600f6024820152600080516020615f8c833981519152604482015290519081900360640190fd5b613c49338a6148cb565b600c54613c65906201000090046001600160a01b0316846148e5565b613c6e826148d9565b60005b601254811015613dec57600060128281548110613c8a57fe5b60009182526020808320909101546001600160a01b03168083526013909152604082206003015490925090613cbf85836146c1565b905080613d045760408051600160e51b62461bcd02815260206004820152600f6024820152600080516020615f8c833981519152604482015290519081900360640190fd5b8b8b85818110613d1057fe5b90506020020135811015613d615760408051600160e51b62461bcd02815260206004820152600d60248201526001609a1b6c11549497d31253525517d3d55502604482015290519081900360640190fd5b6001600160a01b038316600090815260136020526040902060030154613d87908261485a565b6001600160a01b0384166000818152601360209081526040918290206003019390935580518481524293810193909352805191923392600080516020615eec833981519152929181900390910190a3613de18333836148ef565b505050600101613c71565b5050600c805461ff00191690555050505050505050565b600881565b600281565b60005481565b600181565b600a670de0b6b3a7640000611600565b671bc16d674ec7ffff81565b600c54606090610100900460ff1615613e885760408051600160e51b62461bcd02815260206004820152600b6024820152600160a81b6a4552525f5245454e54525902604482015290519081900360640190fd5b601154600160a01b900460ff16613ed75760408051600160e51b62461bcd0281526020600482015260116024820152600080516020615ecc833981519152604482015290519081900360640190fd5b601280548060200260200160405190810160405280929190818152602001828054801561126957602002820191906000526020600020905b81546001600160a01b03168152600190910190602001808311613f0f575050505050905090565b601554600090600160a01b900460ff1615613f9b5760408051600160e51b62461bcd02815260206004820152601760248201527f4552525f414c52454144595f494e495449414c495a4544000000000000000000604482015290519081900360640190fd5b6001600160a01b038916613ff95760408051600160e51b62461bcd02815260206004820152601e60248201527f4552525f494e56414c49445f434f4e54524f4c4c45525f414444524553530000604482015290519081900360640190fd5b6001600160a01b0388166140575760408051600160e51b62461bcd02815260206004820152601b60248201527f4552525f494e56414c49445f464143544f52595f414444524553530000000000604482015290519081900360640190fd5b64e8d4a51000878760008161406857fe5b9050602002013510156140b65760408051600160e51b62461bcd02815260206004820152600b6024820152600160a81b6a4552525f4d494e5f46454502604482015290519081900360640190fd5b67016345785d8a000087876000816140ca57fe5b9050602002013511156141185760408051600160e51b62461bcd02815260206004820152600b6024820152600160a81b6a4552525f4d41585f46454502604482015290519081900360640190fd5b61419e8989898980806020026020016040519081016040528093929190818152602001838360200280828437600092019190915250506040805180820182528c93508b9250908a9060029083908390808284376000920191909152505060408051808201825291508a906002908390839080828437600092019190915250615589915050565b9998505050505050505050565b600081565b600c54606090610100900460ff1615613ed75760408051600160e51b62461bcd02815260206004820152600b6024820152600160a81b6a4552525f5245454e54525902604482015290519081900360640190fd5b60125490565b60025490565b3360009081526008602090815260408083206001600160a01b038616845290915281205461423e9083614fcd565b3360008181526008602090815260408083206001600160a01b038916808552908352928190208590558051948552519193600080516020615f6c833981519152929081900390910190a350600192915050565b6001600160a01b03918216600090815260086020908152604080832093909416825291909152205490565b6002670de0b6b3a7640000611600565b6011546001600160a01b031681565b600c54600090610100900460ff161561432f5760408051600160e51b62461bcd02815260206004820152600b6024820152600160a81b6a4552525f5245454e54525902604482015290519081900360640190fd5b6001600160a01b03821660009081526013602052604090205460ff1661438d5760408051600160e51b62461bcd02815260206004820152600d6024820152600080516020615f4c833981519152604482015290519081900360640190fd5b6001600160a01b0382166000908152601360205260409020600201546014546143b7908290614ea5565b9392505050565b60066020526000908152604090205481565b600c54600090610100900460ff16156144245760408051600160e51b62461bcd02815260206004820152600b6024820152600160a81b6a4552525f5245454e54525902604482015290519081900360640190fd5b6001600160a01b03821660009081526013602052604090205460ff166144825760408051600160e51b62461bcd02815260206004820152600d6024820152600080516020615f4c833981519152604482015290519081900360640190fd5b506001600160a01b031660009081526013602052604090206003015490565b6010546001600160a01b031633146145035760408051600160e51b62461bcd02815260206004820152601560248201527f4f4e4c59204d41524b455420434f4c4c4543544f520000000000000000000000604482015290519081900360640190fd5b606061450d613e34565b905060005b81518110156138925760006006600084848151811061452d57fe5b60200260200101516001600160a01b03166001600160a01b03168152602001908152602001600020546005600085858151811061456657fe5b60200260200101516001600160a01b03166001600160a01b031681526020019081526020016000205403905080600660008585815181106145a357fe5b60200260200101516001600160a01b03166001600160a01b031681526020019081526020016000205401600660008585815181106145dd57fe5b60200260200101516001600160a01b03166001600160a01b031681526020019081526020016000208190555082828151811061461557fe5b60200260200101516001600160a01b031663a9059cbb85836040518363ffffffff1660e01b815260040180836001600160a01b03166001600160a01b0316815260200182815260200192505050602060405180830381600087803b15801561467c57600080fd5b505af1158015614690573d6000803e3d6000fd5b505050506040513d60208110156146a657600080fd5b505050600101614512565b600d54600160a01b900460ff1690565b60008282028315806146db5750828482816146d857fe5b04145b6147255760408051600160e51b62461bcd0281526020600482015260106024820152600160801b6f4552525f4d554c5f4f564552464c4f5702604482015290519081900360640190fd5b6706f05b59d3b2000081018181101561477e5760408051600160e51b62461bcd0281526020600482015260106024820152600160801b6f4552525f4d554c5f4f564552464c4f5702604482015290519081900360640190fd5b6000670de0b6b3a7640000825b049695505050505050565b6000806147a38685614ea5565b905060006147b9670de0b6b3a76400008361485a565b905060006147c9826002546146c1565b905060006147e8866147e3670de0b6b3a76400008561485a565b614ea5565b905060006147f68b8361485a565b90506000614804828d614ea5565b905060006148128288615730565b90506000614820828d6146c1565b9050600061482e8d8361485a565b9050614847816147e3670de0b6b3a7640000600061485a565b9f9e505050505050505050505050505050565b60008060006148698585615853565b9150915080156148c35760408051600160e51b62461bcd02815260206004820152601160248201527f4552525f5355425f554e444552464c4f57000000000000000000000000000000604482015290519081900360640190fd5b509392505050565b6148d58282615878565b5050565b6148e281615883565b50565b6148d5828261595f565b60408051600160e01b63a9059cbb0281526001600160a01b03848116600483015260248201849052915160009286169163a9059cbb91604480830192602092919082900301818787803b15801561494557600080fd5b505af1158015614959573d6000803e3d6000fd5b505050506040513d602081101561496f57600080fd5b50519050806149c85760408051600160e51b62461bcd02815260206004820152600f60248201527f4552525f45524332305f46414c53450000000000000000000000000000000000604482015290519081900360640190fd5b50505050565b6000806149db8685614ea5565b905060006149fb846149f6670de0b6b3a7640000600061485a565b6146c1565b90506000614a09878361485a565b90506000614a178289614ea5565b90506000614a3682614a31670de0b6b3a764000088614ea5565b615730565b90506000614a44828d6146c1565b90506000614a528d8361485a565b90506000614a73614a6b670de0b6b3a76400008a61485a565b6002546146c1565b9050614a8b826149f6670de0b6b3a76400008461485a565b9e9d5050505050505050505050505050565b600d546001600160a01b03163314614af75760408051600160e51b62461bcd0281526020600482015260126024820152600160711b7122a9292fa727aa2fa1a7a72a2927a62622a902604482015290519081900360640190fd5b6001600160a01b03831660009081526013602052604090205460ff1615614b685760408051600160e51b62461bcd02815260206004820152600c60248201527f4552525f49535f424f554e440000000000000000000000000000000000000000604482015290519081900360640190fd5b601154600160a01b900460ff1615614bc05760408051600160e51b62461bcd0281526020600482015260106024820152600160821b6f11549497d254d7d1925390531256915102604482015290519081900360640190fd5b601254600811614c1a5760408051600160e51b62461bcd02815260206004820152600e60248201527f4552525f4d41585f544f4b454e53000000000000000000000000000000000000604482015290519081900360640190fd5b6040805160808101825260018082526012805460208085019182526000858701818152606087018281526001600160a01b038c1680845260139094529782209651875460ff1916901515178755925186860155915160028601559451600390940193909355805491820181559091527fbb8a6a4669ba250d26cd7a459eca9d215f8307e33aebe50379bc5a3617ec34440180546001600160a01b031916909117905561389283838361596a565b60118054600160a01b600160a01b60ff02199182168117909255600d80549091169091179055614cff68056bc75e2d63100000615086565b614d123368056bc75e2d631000006148e5565b565b600080614d218686614ea5565b90506000614d2f8585614ea5565b90506000614d3d8383614ea5565b905060008054600154600254010190506000614d6d670de0b6b3a76400006147e3670de0b6b3a76400008561485a565b9050614d7983826146c1565b9a9950505050505050505050565b6001600160a01b038316600090815260076020526040902054811115614df75760408051600160e51b62461bcd02815260206004820152601460248201527f4552525f494e53554646494349454e545f42414c000000000000000000000000604482015290519081900360640190fd5b6001600160a01b038316600090815260076020526040902054614e1a908261485a565b6001600160a01b038085166000908152600760205260408082209390935590841681522054614e499082614fcd565b6001600160a01b0380841660008181526007602090815260409182902094909455805185815290519193928716927fddf252ad1be2c89b69c2b068fc378daa952ba7f163c4a11628f55a4df523b3ef92918290030190a3505050565b600081614efc5760408051600160e51b62461bcd02815260206004820152600c60248201527f4552525f4449565f5a45524f0000000000000000000000000000000000000000604482015290519081900360640190fd5b670de0b6b3a76400008302831580614f245750670de0b6b3a7640000848281614f2157fe5b04145b614f6e5760408051600160e51b62461bcd0281526020600482015260106024820152600160821b6f11549497d1125597d25395115493905302604482015290519081900360640190fd5b60028304810181811015614fc25760408051600160e51b62461bcd0281526020600482015260106024820152600160821b6f11549497d1125597d25395115493905302604482015290519081900360640190fd5b600084828161478b57fe5b6000828201838110156143b75760408051600160e51b62461bcd02815260206004820152601060248201527f4552525f4144445f4f564552464c4f5700000000000000000000000000000000604482015290519081900360640190fd5b60408051600160e01b6323b872dd0281526001600160a01b0384811660048301523060248301526044820184905291516000928616916323b872dd91606480830192602092919082900301818787803b15801561494557600080fd5b6148e281615bef565b60008061509c8685614ea5565b905060006150b5614a6b670de0b6b3a76400008461485a565b905060006150cf856149f6670de0b6b3a76400008561485a565b905060006150dd8a83614fcd565b905060006150eb828c614ea5565b905060006150f98287615730565b90506000615107828c6146c1565b9050615113818c61485a565b9d9c50505050505050505050505050565b6000806151318685614ea5565b9050600061513f8685614fcd565b9050600061514d8288614ea5565b90506000615163670de0b6b3a764000085614ea5565b905060006151718383615730565b9050600061517f828d6146c1565b9050600061518d828e61485a565b905060006151a6614a6b670de0b6b3a76400008a61485a565b9050614a8b826147e3670de0b6b3a76400008461485a565b600080806151da86600360200201518760016020020151614ea5565b905060006151ef87600260200201518761485a565b90506000615204886002602002015183614ea5565b905060006152128285615730565b905061522681670de0b6b3a764000061485a565b90506000600154600054600254010190506152676152558b60006004811061524a57fe5b6020020151846146c1565b6147e3670de0b6b3a76400008461485a565b9650600061528c886152878a6149f6670de0b6b3a764000060005461485a565b61485a565b6001600160a01b038a166000908152600360205260409020549091506152b29082614fcd565b600360008b6001600160a01b03166001600160a01b031681526020019081526020016000208190555060006152f9896152878b6149f6670de0b6b3a764000060015461485a565b6001600160a01b038b1660009081526005602052604090205490915061531f9082614fcd565b6001600160a01b038b166000908152600560205260409020558b5161535c9061534890866146c1565b6147e3670de0b6b3a764000060025461485a565b97507f90d9f1d0641138b6407ac37bea3a905d63a371c2d91a484f68d59924634d4ef361539b8a6152878c6149f6670de0b6b3a764000060025461485a565b60408051918252602082018590528181018490526001600160a01b038d166060830152519081900360800190a150505050505050935093915050565b6000806153e48786614ea5565b9050600061540485615287876149f6670de0b6b3a764000060005461485a565b6001600160a01b03851660009081526003602052604090205490915061542a9082614fcd565b60036000866001600160a01b03166001600160a01b0316815260200190815260200160002081905550600061547186615287886149f6670de0b6b3a764000060015461485a565b6001600160a01b0386166000908152600560205260409020549091506154979082614fcd565b6001600160a01b0386166000908152600560205260409020556002548083018201907f90d9f1d0641138b6407ac37bea3a905d63a371c2d91a484f68d59924634d4ef3906154fa9089906152879082906149f690670de0b6b3a76400009061485a565b60408051918252602082018690528181018590526001600160a01b0389166060830152519081900360800190a1600061553b670de0b6b3a76400008361485a565b905061554788826146c1565b905060006155598d6147e38f85614fcd565b905060006155678288615730565b9050600061557d670de0b6b3a76400008361485a565b90506148478d826146c1565b600d80546001600160a01b0319166001600160a01b0389811691909117909155600c805462010000600160b01b03191662010000928916929092029190911790558451600090869082906155d957fe5b6020026020010151600281905550615652866000815181106155f757fe5b60200260200101518760018151811061560c57fe5b60200260200101518860028151811061562157fe5b6020026020010151604051806040016040528060088152602001600160c01b67737761704665657302815250615c64565b8560018151811061565f57fe5b60200260200101516000819055508560028151811061567a57fe5b602090810291909101810151600155600d8054961515600160a01b908102600160a01b60ff02199889161791829055601180548751600e80546001600160a01b03199081166001600160a01b039384161790915598860151600f80548b169183169190911790558751601080548b169183169190911790559690940151861697151582029389169390931786169690961790915560158054909616851790931691909216179283905550900460ff169392505050565b6000600183101561578b5760408051600160e51b62461bcd02815260206004820152601560248201527f4552525f42504f575f424153455f544f4f5f4c4f570000000000000000000000604482015290519081900360640190fd5b671bc16d674ec7ffff8311156157eb5760408051600160e51b62461bcd02815260206004820152601660248201527f4552525f42504f575f424153455f544f4f5f4849474800000000000000000000604482015290519081900360640190fd5b60006157f683615d25565b90506000615804848361485a565b9050600061581a8661581585615d40565b615d4e565b90508161582b5792506112c2915050565b600061583c87846305f5e100615dae565b905061584882826146c1565b979650505050505050565b6000808284106158695750508082036000615871565b505081810360015b9250929050565b6148d5823083614d87565b306000908152600760205260409020548111156158ea5760408051600160e51b62461bcd02815260206004820152601460248201527f4552525f494e53554646494349454e545f42414c000000000000000000000000604482015290519081900360640190fd5b30600090815260076020526040902054615904908261485a565b30600090815260076020526040902055600954615921908261485a565b60095560408051828152905160009130917fddf252ad1be2c89b69c2b068fc378daa952ba7f163c4a11628f55a4df523b3ef9181900360200190a350565b6148d5308383614d87565b670de0b6b3a76400008110156159ca5760408051600160e51b62461bcd02815260206004820152600e60248201527f4552525f4d494e5f574549474854000000000000000000000000000000000000604482015290519081900360640190fd5b6802b5e3af16b1880000811115615a2b5760408051600160e51b62461bcd02815260206004820152600e60248201527f4552525f4d41585f574549474854000000000000000000000000000000000000604482015290519081900360640190fd5b620f4240821015615a865760408051600160e51b62461bcd02815260206004820152600f60248201527f4552525f4d494e5f42414c414e43450000000000000000000000000000000000604482015290519081900360640190fd5b6001600160a01b03831660009081526013602052604090206002015480821115615b2957615abf601454615aba848461485a565b614fcd565b60148190556802b5e3af16b18800001015615b245760408051600160e51b62461bcd02815260206004820152601460248201527f4552525f4d41585f544f54414c5f574549474854000000000000000000000000604482015290519081900360640190fd5b615b45565b80821015615b4557615b41601454615287838561485a565b6014555b6001600160a01b03841660009081526013602052604090206002810183905560030180549084905580841115615b8e57615b898533615b84878561485a565b61502a565b615be8565b80841015615be8576000615ba2828661485a565b90506000615bb18260006146c1565b9050615bc78733615bc2858561485a565b6148ef565b600c54615be59088906201000090046001600160a01b0316836148ef565b50505b5050505050565b30600090815260076020526040902054615c099082614fcd565b30600090815260076020526040902055600954615c269082614fcd565b60095560408051828152905130916000917fddf252ad1be2c89b69c2b068fc378daa952ba7f163c4a11628f55a4df523b3ef9181900360200190a350565b6149c8848484846040516024018085815260200184815260200183815260200180602001828103825283818151815260200191508051906020019080838360005b83811015615cbd578181015183820152602001615ca5565b50505050905090810190601f168015615cea5780820380516001836020036101000a031916815260200191505b5060408051601f198184030181529190526020810180516001600160e01b0316600160e21b631e2b5e83021790529550615e8c945050505050565b6000670de0b6b3a7640000615d3983615d40565b0292915050565b670de0b6b3a7640000900490565b6000828160028406615d6857670de0b6b3a7640000615d6a565b815b90506002840493505b8315615da657615d8382836146c1565b91506002840615615d9b57615d9881836146c1565b90505b600284049350615d73565b949350505050565b6000828180615dc587670de0b6b3a7640000615853565b9092509050670de0b6b3a764000080600060015b888410615e7d576000670de0b6b3a764000082029050600080615e0d8a615e0885670de0b6b3a764000061485a565b615853565b91509150615e1f876149f6848c6146c1565b9650615e2b8784614ea5565b965086615e3a57505050615e7d565b8715615e44579315935b8015615e4e579315935b8415615e6557615e5e868861485a565b9550615e72565b615e6f8688614fcd565b95505b505050600101615dd9565b50909998505050505050505050565b80516a636f6e736f6c652e6c6f67602083016000808483855afa5050505050565b6040518060800160405280600490602082028038833950919291505056fe4552525f4e4f545f46494e414c495a45440000000000000000000000000000009d9058fd2f25ccc389fec7720abef0ca83472f5abfafd5f10d37f51e6a0493f3fcda32798d5a9d032f49b37fea876d422f18f6e386e0f07db6029b693624b2c215a8ca63e37b2cff1677df2b6b82d36fcf8a524228bd7a4b4d02d107c28c1e8a4552525f4e4f545f424f554e44000000000000000000000000000000000000008c5be1e5ebec7d5bd14f71427d1e84f3dd0314c0f7b2291e5b200ac8c7c3b9254552525f4d4154485f415050524f580000000000000000000000000000000000a165627a7a72305820bc88d99d59e1c653a98636cf59874d0f80a884fe7468b4932e67755cba8c67c40029",
  "linkReferences": {},
  "deployedLinkReferences": {}
}