{
  "_format": "hh-sol-artifact-1",
  "contractName": "FactoryRouter",
  "sourceName": "contracts/v3/balancer/FactoryRouter.sol",
  "abi": [
    {
      "constant": false,
      "inputs": [
        {
          "name": "oceanTokenAddress",
          "type": "address"
        }
      ],
      "name": "addOceanToken",
      "outputs": [],
      "payable": false,
      "stateMutability": "nonpayable",
      "type": "function"
    },
    {
      "constant": false,
      "inputs": [
        {
          "name": "_erc20Factory",
          "type": "address"
        }
      ],
      "name": "addERC20Factory",
      "outputs": [],
      "payable": false,
      "stateMutability": "nonpayable",
      "type": "function"
    },
    {
      "constant": true,
      "inputs": [],
      "name": "MAX_TOTAL_WEIGHT",
      "outputs": [
        {
          "name": "",
          "type": "uint256"
        }
      ],
      "payable": false,
      "stateMutability": "view",
      "type": "function"
    },
    {
      "constant": true,
      "inputs": [],
      "name": "BPOW_PRECISION",
      "outputs": [
        {
          "name": "",
          "type": "uint256"
        }
      ],
      "payable": false,
      "stateMutability": "view",
      "type": "function"
    },
    {
      "constant": true,
      "inputs": [],
      "name": "MIN_WEIGHT",
      "outputs": [
        {
          "name": "",
          "type": "uint256"
        }
      ],
      "payable": false,
      "stateMutability": "view",
      "type": "function"
    },
    {
      "constant": false,
      "inputs": [
        {
          "name": "_ssContract",
          "type": "address"
        }
      ],
      "name": "addSSContract",
      "outputs": [],
      "payable": false,
      "stateMutability": "nonpayable",
      "type": "function"
    },
    {
      "constant": true,
      "inputs": [],
      "name": "MIN_FEE",
      "outputs": [
        {
          "name": "",
          "type": "uint256"
        }
      ],
      "payable": false,
      "stateMutability": "view",
      "type": "function"
    },
    {
      "constant": true,
      "inputs": [
        {
          "name": "",
          "type": "address"
        }
      ],
      "name": "oceanTokens",
      "outputs": [
        {
          "name": "",
          "type": "bool"
        }
      ],
      "payable": false,
      "stateMutability": "view",
      "type": "function"
    },
    {
      "constant": true,
      "inputs": [],
      "name": "routerOwner",
      "outputs": [
        {
          "name": "",
          "type": "address"
        }
      ],
      "payable": false,
      "stateMutability": "view",
      "type": "function"
    },
    {
      "constant": true,
      "inputs": [],
      "name": "MIN_BALANCE",
      "outputs": [
        {
          "name": "",
          "type": "uint256"
        }
      ],
      "payable": false,
      "stateMutability": "view",
      "type": "function"
    },
    {
      "constant": true,
      "inputs": [],
      "name": "INIT_POOL_SUPPLY",
      "outputs": [
        {
          "name": "",
          "type": "uint256"
        }
      ],
      "payable": false,
      "stateMutability": "view",
      "type": "function"
    },
    {
      "constant": true,
      "inputs": [],
      "name": "MAX_OUT_RATIO",
      "outputs": [
        {
          "name": "",
          "type": "uint256"
        }
      ],
      "payable": false,
      "stateMutability": "view",
      "type": "function"
    },
    {
      "constant": true,
      "inputs": [],
      "name": "MAX_BOUND_TOKENS",
      "outputs": [
        {
          "name": "",
          "type": "uint256"
        }
      ],
      "payable": false,
      "stateMutability": "view",
      "type": "function"
    },
    {
      "constant": true,
      "inputs": [],
      "name": "MIN_BOUND_TOKENS",
      "outputs": [
        {
          "name": "",
          "type": "uint256"
        }
      ],
      "payable": false,
      "stateMutability": "view",
      "type": "function"
    },
    {
      "constant": true,
      "inputs": [],
      "name": "MIN_BPOW_BASE",
      "outputs": [
        {
          "name": "",
          "type": "uint256"
        }
      ],
      "payable": false,
      "stateMutability": "view",
      "type": "function"
    },
    {
      "constant": true,
      "inputs": [],
      "name": "bpoolTemplate",
      "outputs": [
        {
          "name": "",
          "type": "address"
        }
      ],
      "payable": false,
      "stateMutability": "view",
      "type": "function"
    },
    {
      "constant": true,
      "inputs": [],
      "name": "MAX_FEE",
      "outputs": [
        {
          "name": "",
          "type": "uint256"
        }
      ],
      "payable": false,
      "stateMutability": "view",
      "type": "function"
    },
    {
      "constant": true,
      "inputs": [],
      "name": "MAX_BPOW_BASE",
      "outputs": [
        {
          "name": "",
          "type": "uint256"
        }
      ],
      "payable": false,
      "stateMutability": "view",
      "type": "function"
    },
    {
      "constant": true,
      "inputs": [],
      "name": "BONE",
      "outputs": [
        {
          "name": "",
          "type": "uint256"
        }
      ],
      "payable": false,
      "stateMutability": "view",
      "type": "function"
    },
    {
      "constant": true,
      "inputs": [],
      "name": "EXIT_FEE",
      "outputs": [
        {
          "name": "",
          "type": "uint256"
        }
      ],
      "payable": false,
      "stateMutability": "view",
      "type": "function"
    },
    {
      "constant": false,
      "inputs": [
        {
          "name": "controller",
          "type": "address"
        },
        {
          "name": "datatokenAddress",
          "type": "address"
        },
        {
          "name": "basetokenAddress",
          "type": "address"
        },
        {
          "name": "publisherAddress",
          "type": "address"
        },
        {
          "name": "burnInEndBlock",
          "type": "uint256"
        },
        {
          "name": "ssParams",
          "type": "uint256[]"
        },
        {
          "name": "basetokenSender",
          "type": "address"
        }
      ],
      "name": "deployPool",
      "outputs": [
        {
          "name": "",
          "type": "address"
        }
      ],
      "payable": false,
      "stateMutability": "nonpayable",
      "type": "function"
    },
    {
      "constant": true,
      "inputs": [],
      "name": "swapOceanFee",
      "outputs": [
        {
          "name": "",
          "type": "uint256"
        }
      ],
      "payable": false,
      "stateMutability": "view",
      "type": "function"
    },
    {
      "constant": true,
      "inputs": [],
      "name": "MAX_WEIGHT",
      "outputs": [
        {
          "name": "",
          "type": "uint256"
        }
      ],
      "payable": false,
      "stateMutability": "view",
      "type": "function"
    },
    {
      "constant": true,
      "inputs": [],
      "name": "MAX_IN_RATIO",
      "outputs": [
        {
          "name": "",
          "type": "uint256"
        }
      ],
      "payable": false,
      "stateMutability": "view",
      "type": "function"
    },
    {
      "constant": true,
      "inputs": [
        {
          "name": "",
          "type": "address"
        }
      ],
      "name": "ssContracts",
      "outputs": [
        {
          "name": "",
          "type": "bool"
        }
      ],
      "payable": false,
      "stateMutability": "view",
      "type": "function"
    },
    {
      "constant": true,
      "inputs": [],
      "name": "erc20Factory",
      "outputs": [
        {
          "name": "",
          "type": "address"
        }
      ],
      "payable": false,
      "stateMutability": "view",
      "type": "function"
    },
    {
      "inputs": [
        {
          "name": "_routerOwner",
          "type": "address"
        },
        {
          "name": "_oceanToken",
          "type": "address"
        },
        {
          "name": "_bpoolTemplate",
          "type": "address"
        },
        {
          "name": "_ssContract",
          "type": "address"
        },
        {
          "name": "_preCreatedPools",
          "type": "address[]"
        }
      ],
      "payable": false,
      "stateMutability": "nonpayable",
      "type": "constructor"
    },
    {
      "anonymous": false,
      "inputs": [
        {
          "indexed": true,
          "name": "poolAddress",
          "type": "address"
        },
        {
          "indexed": false,
          "name": "isOcean",
          "type": "bool"
        }
      ],
      "name": "NewPool",
      "type": "event"
    },
    {
      "anonymous": false,
      "inputs": [
        {
          "indexed": true,
          "name": "poolAddress",
          "type": "address"
        }
      ],
      "name": "NewForkPool",
      "type": "event"
    },
    {
      "anonymous": false,
      "inputs": [
        {
          "indexed": true,
          "name": "newBPoolAddress",
          "type": "address"
        },
        {
          "indexed": true,
          "name": "registeredBy",
          "type": "address"
        },
        {
          "indexed": true,
          "name": "datatokenAddress",
          "type": "address"
        },
        {
          "indexed": false,
          "name": "basetokenAddress",
          "type": "address"
        },
        {
          "indexed": false,
          "name": "bpoolTemplateAddress",
          "type": "address"
        },
        {
          "indexed": false,
          "name": "ssAddress",
          "type": "address"
        }
      ],
      "name": "BPoolCreated",
      "type": "event"
    },
    {
      "anonymous": false,
      "inputs": [
        {
          "indexed": false,
          "name": "instance",
          "type": "address"
        }
      ],
      "name": "InstanceDeployed",
      "type": "event"
    }
  ],
  "bytecode": "0x60806040523480156200001157600080fd5b50604051620014dd380380620014dd833981018060405262000037919081019062000297565b82816001600160a01b03821662000085576040517f08c379a00000000000000000000000000000000000000000000000000000000081526004016200007c9062000412565b60405180910390fd5b600080546001600160a01b0319166001600160a01b038416179055805115620001325760005b8151811015620001305760006001600160a01b0316336001600160a01b0316838381518110620000d757fe5b60200260200101516001600160a01b03167fbb6121447d29a04cc37bfd93cdf6a9dd08229f2d941116c1528f04698c4e790e60008060006040516200011f93929190620003dc565b60405180910390a4600101620000ab565b505b5050600180546001600160a01b0319166001600160a01b0387811691909117825583166000908152600460209081526040909120805460ff1916909217909155620001839085906200018e811b901c565b5050505050620004ba565b6001546001600160a01b03163314620001d5576040517f08c379a00000000000000000000000000000000000000000000000000000000081526004016200007c906200042a565b6001600160a01b03166000908152600360205260409020805460ff19166001179055565b600062000207825162000499565b9392505050565b600082601f8301126200022057600080fd5b815162000237620002318262000463565b6200043c565b915081818352602084019350602081019050838560208402820111156200025d57600080fd5b60005b838110156200028d5781620002768882620001f9565b845250602092830192919091019060010162000260565b5050505092915050565b600080600080600060a08688031215620002b057600080fd5b6000620002be8888620001f9565b9550506020620002d188828901620001f9565b9450506040620002e488828901620001f9565b9350506060620002f788828901620001f9565b92505060808601516001600160401b038111156200031457600080fd5b62000322888289016200020e565b9150509295509295909350565b6200033a81620004a6565b82525050565b60006200034f602d8362000484565b7f42466163746f72793a20696e76616c69642062706f6f6c2074656d706c61746581527f207a65726f206164647265737300000000000000000000000000000000000000602082015260400192915050565b6000620003b060168362000484565b7f4f6365616e526f757465723a204e4f54204f574e455200000000000000000000815260200192915050565b60608101620003ec82866200032f565b620003fb60208301856200032f565b6200040a60408301846200032f565b949350505050565b60208082528101620004248162000340565b92915050565b602080825281016200042481620003a1565b6040518181016001600160401b03811182821017156200045b57600080fd5b604052919050565b60006001600160401b038211156200047a57600080fd5b5060209081020190565b90815260200190565b6001600160a01b031690565b600062000424826200048d565b600062000424826000620004248262000499565b61101380620004ca6000396000f3fe608060405234801561001057600080fd5b506004361061018e5760003560e01c8063b7b800a4116100de578063c6580d1211610097578063e4a28a5211610071578063e4a28a52146101bb578063ec093021146102a4578063ee661f67146102ac578063f4c3066f146102bf5761018e565b8063c6580d1214610281578063db7a971714610289578063e183fb3f1461029c5761018e565b8063b7b800a414610259578063ba019dab14610261578063bae6ae1214610269578063bc063e1a14610271578063bc694ea214610279578063c36596a6146101e15761018e565b806376c7a3c71161014b578063867378c511610125578063867378c5146102395780639381cd2b14610241578063992e2a9214610249578063b0e0d136146102515761018e565b806376c7a3c7146101fc57806379463a0e146102045780638552730a146102245761018e565b80630318ad66146101935780630361b029146101a857806309a3bbe4146101bb578063189d00ca146101d9578063218b5382146101e15780636c9fb612146101e9575b600080fd5b6101a66101a1366004610ab6565b6102c7565b005b6101a66101b6366004610ab6565b610321565b6101c361039c565b6040516101d09190610f88565b60405180910390f35b6101c36103a9565b6101c36103bd565b6101a66101f7366004610ab6565b6103c9565b6101c361041a565b610217610212366004610ab6565b61042c565b6040516101d09190610f1a565b61022c610441565b6040516101d09190610dc2565b6101c3610450565b6101c3610464565b6101c3610471565b6101c361047d565b6101c3610482565b6101c3610487565b61022c61048c565b6101c361049b565b6101c36104ab565b6101c36104b7565b61022c610297366004610adc565b6104bc565b6101c3610762565b6101c361076b565b6102176102ba366004610ab6565b61077b565b61022c610790565b6001546001600160a01b031633146102fd57604051600160e51b62461bcd0281526004016102f490610f58565b60405180910390fd5b6001600160a01b03166000908152600360205260409020805460ff19166001179055565b6001546001600160a01b0316331461034e57604051600160e51b62461bcd0281526004016102f490610f58565b6002546001600160a01b03161561037a57604051600160e51b62461bcd0281526004016102f490610f48565b600280546001600160a01b0319166001600160a01b0392909216919091179055565b6802b5e3af16b188000081565b6402540be400670de0b6b3a76400005b0481565b670de0b6b3a764000081565b6001546001600160a01b031633146103f657604051600160e51b62461bcd0281526004016102f490610f58565b6001600160a01b03166000908152600460205260409020805460ff19166001179055565b620f4240670de0b6b3a76400006103b9565b60036020526000908152604090205460ff1681565b6001546001600160a01b031681565b64e8d4a51000670de0b6b3a76400006103b9565b68056bc75e2d6310000081565b6704a03ce68d21555681565b600881565b600281565b600181565b6000546001600160a01b031681565b600a670de0b6b3a76400006103b9565b671bc16d674ec7ffff81565b600081565b600254604051600160e01b63226e76150281526000916001600160a01b03169063226e7615906104f0903390600401610dd6565b60206040518083038186803b15801561050857600080fd5b505afa15801561051c573d6000803e3d6000fd5b505050506040513d601f19601f820116820180604052506105409190810190610b94565b151560011461056457604051600160e51b62461bcd0281526004016102f490610f38565b6001600160a01b0389166000908152600460205260409020805460ff191660011790556001600160a01b038716600090815260036020526040812054819060ff161515600114156105b457600191505b886001600160a01b0381166323b872dd868e8a8a60048181106105d357fe5b905060200201356040518463ffffffff1660e01b81526004016105f893929190610e6c565b602060405180830381600087803b15801561061257600080fd5b505af1158015610626573d6000803e3d6000fd5b505050506040513d601f19601f8201168201806040525061064a9190810190610b94565b506001831515141561069e576106978c8c8c8c8c8c8c808060200260200160405190810160405280939291908181526020018383602002808284376000920182905250925061079f915050565b91506106e9565b6106e68c8c8c8c8c8c8c8080602002602001604051908101604052809392919081815260200183836020028082843760009201919091525064e8d4a51000925061079f915050565b91505b6001600160a01b03821661071257604051600160e51b62461bcd0281526004016102f490610f68565b816001600160a01b03167f90279d7790471e260411db76079630dfaa838fc987d29ae7aa7dc1bcd773ef2e8460405161074b9190610f1a565b60405180910390a2509a9950505050505050505050565b64e8d4a5100081565b6002670de0b6b3a76400006103b9565b60046020526000908152604090205460ff1681565b6002546001600160a01b031681565b600080546107b5906001600160a01b03166109a1565b90506001600160a01b0381166107e057604051600160e51b62461bcd0281526004016102f490610f28565b806001600160a01b03811663c336eeff8a30620f4240670de0b6b3a764000004876000808f8f8e6040518a63ffffffff1660e01b815260040161082b99989796959493929190610e94565b602060405180830381600087803b15801561084557600080fd5b505af1158015610859573d6000803e3d6000fd5b505050506040513d601f19601f8201168201806040525061087d9190810190610b94565b61089c57604051600160e51b62461bcd0281526004016102f490610f78565b876001600160a01b0316336001600160a01b0316836001600160a01b03167fbb6121447d29a04cc37bfd93cdf6a9dd08229f2d941116c1528f04698c4e790e8a6000809054906101000a90046001600160a01b03168e60405161090193929190610de4565b60405180910390a4604051600160e21b6313cf99b70281526001600160a01b038a1690634f3e66dc90610942908b908b9087908c908c908c90600401610e0c565b602060405180830381600087803b15801561095c57600080fd5b505af1158015610970573d6000803e3d6000fd5b505050506040513d601f19601f820116820180604052506109949190810190610b94565b5050979650505050505050565b6000808260601b90506040517f3d602d80600a3d3981f3363d3d373d3d3d363d7300000000000000000000000081528160148201527f5af43d82803e903d91602b57fd5bf3000000000000000000000000000000000060288201526037816000f09250507f117c72e6c25f0a072e36e148df71468ce2f3dbe7defec5b2c257a6e3eb65278c82604051610a349190610dc2565b60405180910390a150919050565b6000610a4e8235610fa9565b9392505050565b60008083601f840112610a6757600080fd5b50813567ffffffffffffffff811115610a7f57600080fd5b602083019150836020820283011115610a9757600080fd5b9250929050565b6000610a4e8251610fb4565b6000610a4e8235610fc5565b600060208284031215610ac857600080fd5b6000610ad48484610a42565b949350505050565b60008060008060008060008060e0898b031215610af857600080fd5b6000610b048b8b610a42565b9850506020610b158b828c01610a42565b9750506040610b268b828c01610a42565b9650506060610b378b828c01610a42565b9550506080610b488b828c01610aaa565b94505060a089013567ffffffffffffffff811115610b6557600080fd5b610b718b828c01610a55565b935093505060c0610b848b828c01610a42565b9150509295985092959890939650565b600060208284031215610ba657600080fd5b6000610ad48484610a9e565b6000610bbe8383610db9565b505060200190565b610bcf81610fc8565b82525050565b610bcf81610fa9565b6000610be982610f9c565b610bf38185610fa0565b9350610bfe83610f96565b60005b82811015610c2957610c14868351610bb2565b9550610c1f82610f96565b9150600101610c01565b5093949350505050565b610bcf81610fb4565b6000610c49602483610fa0565b7f42466163746f72793a20696e76616c69642062706f6f6c207a65726f206164648152600160e01b637265737302602082015260400192915050565b6000610c92602b83610fa0565b7f464143544f525920524f555445523a204e4f54204f524947494e414c204552438152600160a81b6a32302054454d504c41544502602082015260400192915050565b6000610ce2601383610fa0565b7f464143544f525920414c52454144592053455400000000000000000000000000815260200192915050565b6000610d1b601683610fa0565b7f4f6365616e526f757465723a204e4f54204f574e455200000000000000000000815260200192915050565b6000610d54601583610fa0565b7f4641494c454420544f204445504c4f5920504f4f4c0000000000000000000000815260200192915050565b6000610d8d601483610fa0565b7f4552525f494e495449414c495a455f42504f4f4c000000000000000000000000815260200192915050565b610bcf81610fc5565b60208101610dd08284610bd5565b92915050565b60208101610dd08284610bc6565b60608101610df28286610bd5565b610dff6020830185610bd5565b610ad46040830184610bd5565b60c08101610e1a8289610bd5565b610e276020830188610bd5565b610e346040830187610bd5565b610e416060830186610bd5565b610e4e6080830185610db9565b81810360a0830152610e608184610bde565b98975050505050505050565b60608101610e7a8286610bd5565b610e876020830185610bd5565b610ad46040830184610db9565b6101208101610ea3828c610bd5565b610eb0602083018b610bd5565b610ebd604083018a610db9565b610eca6060830189610db9565b610ed76080830188610c33565b610ee460a0830187610c33565b610ef160c0830186610bd5565b610efe60e0830185610bd5565b610f0c610100830184610db9565b9a9950505050505050505050565b60208101610dd08284610c33565b60208082528101610dd081610c3c565b60208082528101610dd081610c85565b60208082528101610dd081610cd5565b60208082528101610dd081610d0e565b60208082528101610dd081610d47565b60208082528101610dd081610d80565b60208101610dd08284610db9565b60200190565b5190565b90815260200190565b6000610dd082610fb9565b151590565b6001600160a01b031690565b90565b6000610dd0826000610dd082610fa956fea265627a7a72305820b39bb9a81b16a8e0207ff63cdb17e855be0fd0dae6fe3b8b37d159a1c727ae8c6c6578706572696d656e74616cf50037",
  "linkReferences": {},
  "deployedLinkReferences": {}
}