{
  "_format": "hh-sol-artifact-1",
  "contractName": "OceanPoolFactoryRouter",
  "sourceName": "contracts/v3/balancer/FactoryRouter.sol",
  "abi": [
    {
      "constant": false,
      "inputs": [
        {
          "name": "oceanTokenAddress",
          "type": "address"
        }
      ],
      "name": "addOceanToken",
      "outputs": [],
      "payable": false,
      "stateMutability": "nonpayable",
      "type": "function"
    },
    {
      "constant": true,
      "inputs": [],
      "name": "MAX_TOTAL_WEIGHT",
      "outputs": [
        {
          "name": "",
          "type": "uint256"
        }
      ],
      "payable": false,
      "stateMutability": "view",
      "type": "function"
    },
    {
      "constant": true,
      "inputs": [],
      "name": "BPOW_PRECISION",
      "outputs": [
        {
          "name": "",
          "type": "uint256"
        }
      ],
      "payable": false,
      "stateMutability": "view",
      "type": "function"
    },
    {
      "constant": true,
      "inputs": [],
      "name": "MIN_WEIGHT",
      "outputs": [
        {
          "name": "",
          "type": "uint256"
        }
      ],
      "payable": false,
      "stateMutability": "view",
      "type": "function"
    },
    {
      "constant": true,
      "inputs": [],
      "name": "oceanPoolFactory",
      "outputs": [
        {
          "name": "",
          "type": "address"
        }
      ],
      "payable": false,
      "stateMutability": "view",
      "type": "function"
    },
    {
      "constant": true,
      "inputs": [],
      "name": "MIN_FEE",
      "outputs": [
        {
          "name": "",
          "type": "uint256"
        }
      ],
      "payable": false,
      "stateMutability": "view",
      "type": "function"
    },
    {
      "constant": true,
      "inputs": [
        {
          "name": "",
          "type": "address"
        }
      ],
      "name": "oceanTokens",
      "outputs": [
        {
          "name": "",
          "type": "bool"
        }
      ],
      "payable": false,
      "stateMutability": "view",
      "type": "function"
    },
    {
      "constant": true,
      "inputs": [],
      "name": "routerOwner",
      "outputs": [
        {
          "name": "",
          "type": "address"
        }
      ],
      "payable": false,
      "stateMutability": "view",
      "type": "function"
    },
    {
      "constant": true,
      "inputs": [],
      "name": "MIN_BALANCE",
      "outputs": [
        {
          "name": "",
          "type": "uint256"
        }
      ],
      "payable": false,
      "stateMutability": "view",
      "type": "function"
    },
    {
      "constant": true,
      "inputs": [],
      "name": "INIT_POOL_SUPPLY",
      "outputs": [
        {
          "name": "",
          "type": "uint256"
        }
      ],
      "payable": false,
      "stateMutability": "view",
      "type": "function"
    },
    {
      "constant": true,
      "inputs": [],
      "name": "MAX_OUT_RATIO",
      "outputs": [
        {
          "name": "",
          "type": "uint256"
        }
      ],
      "payable": false,
      "stateMutability": "view",
      "type": "function"
    },
    {
      "constant": true,
      "inputs": [],
      "name": "MAX_BOUND_TOKENS",
      "outputs": [
        {
          "name": "",
          "type": "uint256"
        }
      ],
      "payable": false,
      "stateMutability": "view",
      "type": "function"
    },
    {
      "constant": true,
      "inputs": [],
      "name": "stakingBot",
      "outputs": [
        {
          "name": "",
          "type": "address"
        }
      ],
      "payable": false,
      "stateMutability": "view",
      "type": "function"
    },
    {
      "constant": true,
      "inputs": [],
      "name": "MIN_BOUND_TOKENS",
      "outputs": [
        {
          "name": "",
          "type": "uint256"
        }
      ],
      "payable": false,
      "stateMutability": "view",
      "type": "function"
    },
    {
      "constant": true,
      "inputs": [],
      "name": "MIN_BPOW_BASE",
      "outputs": [
        {
          "name": "",
          "type": "uint256"
        }
      ],
      "payable": false,
      "stateMutability": "view",
      "type": "function"
    },
    {
      "constant": true,
      "inputs": [],
      "name": "bpoolTemplate",
      "outputs": [
        {
          "name": "",
          "type": "address"
        }
      ],
      "payable": false,
      "stateMutability": "view",
      "type": "function"
    },
    {
      "constant": true,
      "inputs": [],
      "name": "MAX_FEE",
      "outputs": [
        {
          "name": "",
          "type": "uint256"
        }
      ],
      "payable": false,
      "stateMutability": "view",
      "type": "function"
    },
    {
      "constant": true,
      "inputs": [],
      "name": "MAX_BPOW_BASE",
      "outputs": [
        {
          "name": "",
          "type": "uint256"
        }
      ],
      "payable": false,
      "stateMutability": "view",
      "type": "function"
    },
    {
      "constant": true,
      "inputs": [],
      "name": "BONE",
      "outputs": [
        {
          "name": "",
          "type": "uint256"
        }
      ],
      "payable": false,
      "stateMutability": "view",
      "type": "function"
    },
    {
      "constant": false,
      "inputs": [
        {
          "name": "controller",
          "type": "address"
        },
        {
          "name": "datatokenAddress",
          "type": "address"
        },
        {
          "name": "basetokenAddress",
          "type": "address"
        },
        {
          "name": "publisherAddress",
          "type": "address"
        },
        {
          "name": "burnInEndBlock",
          "type": "uint256"
        },
        {
          "name": "ssParams",
          "type": "uint256[]"
        }
      ],
      "name": "deployPool",
      "outputs": [
        {
          "name": "",
          "type": "address"
        }
      ],
      "payable": false,
      "stateMutability": "nonpayable",
      "type": "function"
    },
    {
      "constant": true,
      "inputs": [],
      "name": "EXIT_FEE",
      "outputs": [
        {
          "name": "",
          "type": "uint256"
        }
      ],
      "payable": false,
      "stateMutability": "view",
      "type": "function"
    },
    {
      "constant": true,
      "inputs": [],
      "name": "swapOceanFee",
      "outputs": [
        {
          "name": "",
          "type": "uint256"
        }
      ],
      "payable": false,
      "stateMutability": "view",
      "type": "function"
    },
    {
      "constant": true,
      "inputs": [],
      "name": "MAX_WEIGHT",
      "outputs": [
        {
          "name": "",
          "type": "uint256"
        }
      ],
      "payable": false,
      "stateMutability": "view",
      "type": "function"
    },
    {
      "constant": true,
      "inputs": [],
      "name": "MAX_IN_RATIO",
      "outputs": [
        {
          "name": "",
          "type": "uint256"
        }
      ],
      "payable": false,
      "stateMutability": "view",
      "type": "function"
    },
    {
      "inputs": [
        {
          "name": "_routerOwner",
          "type": "address"
        },
        {
          "name": "_oceanToken",
          "type": "address"
        },
        {
          "name": "_bpoolTemplate",
          "type": "address"
        },
        {
          "name": "_preCreatedPools",
          "type": "address[]"
        }
      ],
      "payable": false,
      "stateMutability": "nonpayable",
      "type": "constructor"
    },
    {
      "anonymous": false,
      "inputs": [
        {
          "indexed": true,
          "name": "poolAddress",
          "type": "address"
        },
        {
          "indexed": false,
          "name": "isOcean",
          "type": "bool"
        }
      ],
      "name": "NewPool",
      "type": "event"
    },
    {
      "anonymous": false,
      "inputs": [
        {
          "indexed": true,
          "name": "poolAddress",
          "type": "address"
        }
      ],
      "name": "NewForkPool",
      "type": "event"
    },
    {
      "anonymous": false,
      "inputs": [
        {
          "indexed": true,
          "name": "newBPoolAddress",
          "type": "address"
        },
        {
          "indexed": true,
          "name": "registeredBy",
          "type": "address"
        },
        {
          "indexed": true,
          "name": "datatokenAddress",
          "type": "address"
        },
        {
          "indexed": false,
          "name": "basetokenAddress",
          "type": "address"
        },
        {
          "indexed": false,
          "name": "bpoolTemplateAddress",
          "type": "address"
        },
        {
          "indexed": false,
          "name": "ssAddress",
          "type": "address"
        }
      ],
      "name": "BPoolCreated",
      "type": "event"
    },
    {
      "anonymous": false,
      "inputs": [
        {
          "indexed": false,
          "name": "instance",
          "type": "address"
        }
      ],
      "name": "InstanceDeployed",
      "type": "event"
    }
  ],
  "bytecode": "0x60806040523480156200001157600080fd5b506040516200110138038062001101833981018060405262000037919081019062000274565b81816001600160a01b03821662000085576040517f08c379a00000000000000000000000000000000000000000000000000000000081526004016200007c90620003d9565b60405180910390fd5b600080546001600160a01b0319166001600160a01b038416179055805115620001325760005b8151811015620001305760006001600160a01b0316336001600160a01b0316838381518110620000d757fe5b60200260200101516001600160a01b03167fbb6121447d29a04cc37bfd93cdf6a9dd08229f2d941116c1528f04698c4e790e60008060006040516200011f93929190620003a3565b60405180910390a4600101620000ab565b505b5050600180546001600160a01b0319166001600160a01b03861617905562000161836200016b602090811b901c565b5050505062000481565b6001546001600160a01b03163314620001b2576040517f08c379a00000000000000000000000000000000000000000000000000000000081526004016200007c90620003f1565b6001600160a01b03166000908152600460205260409020805460ff19166001179055565b6000620001e4825162000460565b9392505050565b600082601f830112620001fd57600080fd5b8151620002146200020e826200042a565b62000403565b915081818352602084019350602081019050838560208402820111156200023a57600080fd5b60005b838110156200026a5781620002538882620001d6565b84525060209283019291909101906001016200023d565b5050505092915050565b600080600080608085870312156200028b57600080fd5b6000620002998787620001d6565b9450506020620002ac87828801620001d6565b9350506040620002bf87828801620001d6565b92505060608501516001600160401b03811115620002dc57600080fd5b620002ea87828801620001eb565b91505092959194509250565b62000301816200046d565b82525050565b600062000316602d836200044b565b7f42466163746f72793a20696e76616c69642062706f6f6c2074656d706c61746581527f207a65726f206164647265737300000000000000000000000000000000000000602082015260400192915050565b6000620003776016836200044b565b7f4f6365616e526f757465723a204e4f54204f574e455200000000000000000000815260200192915050565b60608101620003b38286620002f6565b620003c26020830185620002f6565b620003d16040830184620002f6565b949350505050565b60208082528101620003eb8162000307565b92915050565b60208082528101620003eb8162000368565b6040518181016001600160401b03811182821017156200042257600080fd5b604052919050565b60006001600160401b038211156200044157600080fd5b5060209081020190565b90815260200190565b6001600160a01b031690565b6000620003eb8262000454565b6000620003eb826000620003eb8262000460565b610c7080620004916000396000f3fe608060405234801561001057600080fd5b50600436106101585760003560e01c8063b14eb5a3116100c3578063c36596a61161007c578063c36596a614610198578063c3a9152e14610235578063c6580d1214610248578063e183fb3f14610250578063e4a28a5214610172578063ec0930211461025857610158565b8063b14eb5a314610205578063b7b800a41461020d578063ba019dab14610215578063bae6ae121461021d578063bc063e1a14610225578063bc694ea21461022d57610158565b806379463a0e1161011557806379463a0e146101bd5780638552730a146101dd578063867378c5146101e55780639381cd2b146101ed578063992e2a92146101f5578063b0e0d136146101fd57610158565b80630318ad661461015d57806309a3bbe414610172578063189d00ca14610190578063218b53821461019857806329b9213e146101a057806376c7a3c7146101b5575b600080fd5b61017061016b36600461081f565b610260565b005b61017a6102ba565b6040516101879190610bf6565b60405180910390f35b61017a6102c7565b61017a6102db565b6101a86102e7565b6040516101879190610a86565b61017a6102f6565b6101d06101cb36600461081f565b610308565b6040516101879190610ba8565b6101a861031d565b61017a61032c565b61017a610340565b61017a61034d565b61017a610359565b6101a861035e565b61017a61036d565b61017a610372565b6101a8610377565b61017a610386565b61017a610396565b6101a8610243366004610845565b6103a2565b61017a6104e8565b61017a6104ed565b61017a6104f8565b6001546001600160a01b0316331461029657604051600160e51b62461bcd02815260040161028d90610bc6565b60405180910390fd5b6001600160a01b03166000908152600460205260409020805460ff19166001179055565b6802b5e3af16b188000081565b6402540be400670de0b6b3a76400005b0481565b670de0b6b3a764000081565b6002546001600160a01b031681565b620f4240670de0b6b3a76400006102d7565b60046020526000908152604090205460ff1681565b6001546001600160a01b031681565b64e8d4a51000670de0b6b3a76400006102d7565b68056bc75e2d6310000081565b6704a03ce68d21555681565b600881565b6003546001600160a01b031681565b600281565b600181565b6000546001600160a01b031681565b600a670de0b6b3a76400006102d7565b671bc16d674ec7ffff81565b6001600160a01b0385166000908152600460205260408120548190819060ff161515600114156103d157600191505b600182151514156104245761041d8a8a8a8a8a8a8a8080602002602001604051908101604052809392919081815260200183836020028082843760009201829052509250610508915050565b9050610471565b61046e8a8a8a8a8a8a8a8080602002602001604051908101604052809392919081815260200183836020028082843760009201919091525066038d7ea4c680009250610508915050565b90505b6001600160a01b03811661049a57604051600160e51b62461bcd02815260040161028d90610bd6565b806001600160a01b03167f90279d7790471e260411db76079630dfaa838fc987d29ae7aa7dc1bcd773ef2e836040516104d39190610ba8565b60405180910390a29998505050505050505050565b600081565b66038d7ea4c6800081565b6002670de0b6b3a76400006102d7565b6000805461051e906001600160a01b031661070a565b90506001600160a01b03811661054957604051600160e51b62461bcd02815260040161028d90610bb6565b806001600160a01b03811663c336eeff8a30620f4240670de0b6b3a764000004876000808f8f8e6040518a63ffffffff1660e01b815260040161059499989796959493929190610b22565b602060405180830381600087803b1580156105ae57600080fd5b505af11580156105c2573d6000803e3d6000fd5b505050506040513d601f19601f820116820180604052506105e691908101906108ea565b61060557604051600160e51b62461bcd02815260040161028d90610be6565b876001600160a01b0316336001600160a01b0316836001600160a01b03167fbb6121447d29a04cc37bfd93cdf6a9dd08229f2d941116c1528f04698c4e790e8a6000809054906101000a90046001600160a01b03168e60405161066a93929190610a9a565b60405180910390a4604051600160e21b6313cf99b70281526001600160a01b038a1690634f3e66dc906106ab908b908b9087908c908c908c90600401610ac2565b602060405180830381600087803b1580156106c557600080fd5b505af11580156106d9573d6000803e3d6000fd5b505050506040513d601f19601f820116820180604052506106fd91908101906108ea565b5050979650505050505050565b6000808260601b90506040517f3d602d80600a3d3981f3363d3d373d3d3d363d7300000000000000000000000081528160148201527f5af43d82803e903d91602b57fd5bf3000000000000000000000000000000000060288201526037816000f09250507f117c72e6c25f0a072e36e148df71468ce2f3dbe7defec5b2c257a6e3eb65278c8260405161079d9190610a86565b60405180910390a150919050565b60006107b78235610c17565b9392505050565b60008083601f8401126107d057600080fd5b50813567ffffffffffffffff8111156107e857600080fd5b60208301915083602082028301111561080057600080fd5b9250929050565b60006107b78251610c22565b60006107b78235610c33565b60006020828403121561083157600080fd5b600061083d84846107ab565b949350505050565b600080600080600080600060c0888a03121561086057600080fd5b600061086c8a8a6107ab565b975050602061087d8a828b016107ab565b965050604061088e8a828b016107ab565b955050606061089f8a828b016107ab565b94505060806108b08a828b01610813565b93505060a088013567ffffffffffffffff8111156108cd57600080fd5b6108d98a828b016107be565b925092505092959891949750929550565b6000602082840312156108fc57600080fd5b600061083d8484610807565b60006109148383610a7d565b505060200190565b61092581610c17565b82525050565b600061093682610c0a565b6109408185610c0e565b935061094b83610c04565b60005b8281101561097657610961868351610908565b955061096c82610c04565b915060010161094e565b5093949350505050565b61092581610c22565b6000610996602483610c0e565b7f42466163746f72793a20696e76616c69642062706f6f6c207a65726f206164648152600160e01b637265737302602082015260400192915050565b60006109df601683610c0e565b7f4f6365616e526f757465723a204e4f54204f574e455200000000000000000000815260200192915050565b6000610a18601583610c0e565b7f4641494c454420544f204445504c4f5920504f4f4c0000000000000000000000815260200192915050565b6000610a51601483610c0e565b7f4552525f494e495449414c495a455f42504f4f4c000000000000000000000000815260200192915050565b61092581610c33565b60208101610a94828461091c565b92915050565b60608101610aa8828661091c565b610ab5602083018561091c565b61083d604083018461091c565b60c08101610ad0828961091c565b610add602083018861091c565b610aea604083018761091c565b610af7606083018661091c565b610b046080830185610a7d565b81810360a0830152610b16818461092b565b98975050505050505050565b6101208101610b31828c61091c565b610b3e602083018b61091c565b610b4b604083018a610a7d565b610b586060830189610a7d565b610b656080830188610980565b610b7260a0830187610980565b610b7f60c083018661091c565b610b8c60e083018561091c565b610b9a610100830184610a7d565b9a9950505050505050505050565b60208101610a948284610980565b60208082528101610a9481610989565b60208082528101610a94816109d2565b60208082528101610a9481610a0b565b60208082528101610a9481610a44565b60208101610a948284610a7d565b60200190565b5190565b90815260200190565b6000610a9482610c27565b151590565b6001600160a01b031690565b9056fea265627a7a723058209738dbe496f35d8d06b25a02ea6d706917ce87255d3661f3dc9f45684500af856c6578706572696d656e74616cf50037",
  "linkReferences": {},
  "deployedLinkReferences": {}
}