{
  "_format": "hh-sol-artifact-1",
  "contractName": "OceanPoolFactoryRouter",
  "sourceName": "contracts/v3/balancer/FactoryRouter.sol",
  "abi": [
    {
      "constant": false,
      "inputs": [
        {
          "name": "oceanTokenAddress",
          "type": "address"
        }
      ],
      "name": "addOceanToken",
      "outputs": [],
      "payable": false,
      "stateMutability": "nonpayable",
      "type": "function"
    },
    {
      "constant": true,
      "inputs": [],
      "name": "MAX_TOTAL_WEIGHT",
      "outputs": [
        {
          "name": "",
          "type": "uint256"
        }
      ],
      "payable": false,
      "stateMutability": "view",
      "type": "function"
    },
    {
      "constant": true,
      "inputs": [],
      "name": "BPOW_PRECISION",
      "outputs": [
        {
          "name": "",
          "type": "uint256"
        }
      ],
      "payable": false,
      "stateMutability": "view",
      "type": "function"
    },
    {
      "constant": true,
      "inputs": [],
      "name": "MIN_WEIGHT",
      "outputs": [
        {
          "name": "",
          "type": "uint256"
        }
      ],
      "payable": false,
      "stateMutability": "view",
      "type": "function"
    },
    {
      "constant": true,
      "inputs": [],
      "name": "oceanPoolFactory",
      "outputs": [
        {
          "name": "",
          "type": "address"
        }
      ],
      "payable": false,
      "stateMutability": "view",
      "type": "function"
    },
    {
      "constant": false,
      "inputs": [
        {
          "name": "_ssContract",
          "type": "address"
        }
      ],
      "name": "addSSContract",
      "outputs": [],
      "payable": false,
      "stateMutability": "nonpayable",
      "type": "function"
    },
    {
      "constant": true,
      "inputs": [],
      "name": "MIN_FEE",
      "outputs": [
        {
          "name": "",
          "type": "uint256"
        }
      ],
      "payable": false,
      "stateMutability": "view",
      "type": "function"
    },
    {
      "constant": true,
      "inputs": [
        {
          "name": "",
          "type": "address"
        }
      ],
      "name": "oceanTokens",
      "outputs": [
        {
          "name": "",
          "type": "bool"
        }
      ],
      "payable": false,
      "stateMutability": "view",
      "type": "function"
    },
    {
      "constant": true,
      "inputs": [],
      "name": "routerOwner",
      "outputs": [
        {
          "name": "",
          "type": "address"
        }
      ],
      "payable": false,
      "stateMutability": "view",
      "type": "function"
    },
    {
      "constant": true,
      "inputs": [],
      "name": "MIN_BALANCE",
      "outputs": [
        {
          "name": "",
          "type": "uint256"
        }
      ],
      "payable": false,
      "stateMutability": "view",
      "type": "function"
    },
    {
      "constant": true,
      "inputs": [],
      "name": "INIT_POOL_SUPPLY",
      "outputs": [
        {
          "name": "",
          "type": "uint256"
        }
      ],
      "payable": false,
      "stateMutability": "view",
      "type": "function"
    },
    {
      "constant": true,
      "inputs": [],
      "name": "MAX_OUT_RATIO",
      "outputs": [
        {
          "name": "",
          "type": "uint256"
        }
      ],
      "payable": false,
      "stateMutability": "view",
      "type": "function"
    },
    {
      "constant": true,
      "inputs": [],
      "name": "MAX_BOUND_TOKENS",
      "outputs": [
        {
          "name": "",
          "type": "uint256"
        }
      ],
      "payable": false,
      "stateMutability": "view",
      "type": "function"
    },
    {
      "constant": true,
      "inputs": [],
      "name": "MIN_BOUND_TOKENS",
      "outputs": [
        {
          "name": "",
          "type": "uint256"
        }
      ],
      "payable": false,
      "stateMutability": "view",
      "type": "function"
    },
    {
      "constant": true,
      "inputs": [],
      "name": "MIN_BPOW_BASE",
      "outputs": [
        {
          "name": "",
          "type": "uint256"
        }
      ],
      "payable": false,
      "stateMutability": "view",
      "type": "function"
    },
    {
      "constant": true,
      "inputs": [],
      "name": "bpoolTemplate",
      "outputs": [
        {
          "name": "",
          "type": "address"
        }
      ],
      "payable": false,
      "stateMutability": "view",
      "type": "function"
    },
    {
      "constant": true,
      "inputs": [],
      "name": "MAX_FEE",
      "outputs": [
        {
          "name": "",
          "type": "uint256"
        }
      ],
      "payable": false,
      "stateMutability": "view",
      "type": "function"
    },
    {
      "constant": true,
      "inputs": [],
      "name": "MAX_BPOW_BASE",
      "outputs": [
        {
          "name": "",
          "type": "uint256"
        }
      ],
      "payable": false,
      "stateMutability": "view",
      "type": "function"
    },
    {
      "constant": true,
      "inputs": [],
      "name": "BONE",
      "outputs": [
        {
          "name": "",
          "type": "uint256"
        }
      ],
      "payable": false,
      "stateMutability": "view",
      "type": "function"
    },
    {
      "constant": false,
      "inputs": [
        {
          "name": "controller",
          "type": "address"
        },
        {
          "name": "datatokenAddress",
          "type": "address"
        },
        {
          "name": "basetokenAddress",
          "type": "address"
        },
        {
          "name": "publisherAddress",
          "type": "address"
        },
        {
          "name": "burnInEndBlock",
          "type": "uint256"
        },
        {
          "name": "ssParams",
          "type": "uint256[]"
        }
      ],
      "name": "deployPool",
      "outputs": [
        {
          "name": "",
          "type": "address"
        }
      ],
      "payable": false,
      "stateMutability": "nonpayable",
      "type": "function"
    },
    {
      "constant": true,
      "inputs": [],
      "name": "EXIT_FEE",
      "outputs": [
        {
          "name": "",
          "type": "uint256"
        }
      ],
      "payable": false,
      "stateMutability": "view",
      "type": "function"
    },
    {
      "constant": true,
      "inputs": [],
      "name": "swapOceanFee",
      "outputs": [
        {
          "name": "",
          "type": "uint256"
        }
      ],
      "payable": false,
      "stateMutability": "view",
      "type": "function"
    },
    {
      "constant": true,
      "inputs": [],
      "name": "MAX_WEIGHT",
      "outputs": [
        {
          "name": "",
          "type": "uint256"
        }
      ],
      "payable": false,
      "stateMutability": "view",
      "type": "function"
    },
    {
      "constant": true,
      "inputs": [],
      "name": "MAX_IN_RATIO",
      "outputs": [
        {
          "name": "",
          "type": "uint256"
        }
      ],
      "payable": false,
      "stateMutability": "view",
      "type": "function"
    },
    {
      "constant": true,
      "inputs": [
        {
          "name": "",
          "type": "address"
        }
      ],
      "name": "ssContracts",
      "outputs": [
        {
          "name": "",
          "type": "bool"
        }
      ],
      "payable": false,
      "stateMutability": "view",
      "type": "function"
    },
    {
      "constant": true,
      "inputs": [],
      "name": "erc20Factory",
      "outputs": [
        {
          "name": "",
          "type": "address"
        }
      ],
      "payable": false,
      "stateMutability": "view",
      "type": "function"
    },
    {
      "inputs": [
        {
          "name": "_routerOwner",
          "type": "address"
        },
        {
          "name": "_oceanToken",
          "type": "address"
        },
        {
          "name": "_bpoolTemplate",
          "type": "address"
        },
        {
          "name": "_ssContract",
          "type": "address"
        },
        {
          "name": "_erc20Factory",
          "type": "address"
        },
        {
          "name": "_preCreatedPools",
          "type": "address[]"
        }
      ],
      "payable": false,
      "stateMutability": "nonpayable",
      "type": "constructor"
    },
    {
      "anonymous": false,
      "inputs": [
        {
          "indexed": true,
          "name": "poolAddress",
          "type": "address"
        },
        {
          "indexed": false,
          "name": "isOcean",
          "type": "bool"
        }
      ],
      "name": "NewPool",
      "type": "event"
    },
    {
      "anonymous": false,
      "inputs": [
        {
          "indexed": true,
          "name": "poolAddress",
          "type": "address"
        }
      ],
      "name": "NewForkPool",
      "type": "event"
    },
    {
      "anonymous": false,
      "inputs": [
        {
          "indexed": true,
          "name": "newBPoolAddress",
          "type": "address"
        },
        {
          "indexed": true,
          "name": "registeredBy",
          "type": "address"
        },
        {
          "indexed": true,
          "name": "datatokenAddress",
          "type": "address"
        },
        {
          "indexed": false,
          "name": "basetokenAddress",
          "type": "address"
        },
        {
          "indexed": false,
          "name": "bpoolTemplateAddress",
          "type": "address"
        },
        {
          "indexed": false,
          "name": "ssAddress",
          "type": "address"
        }
      ],
      "name": "BPoolCreated",
      "type": "event"
    },
    {
      "anonymous": false,
      "inputs": [
        {
          "indexed": false,
          "name": "instance",
          "type": "address"
        }
      ],
      "name": "InstanceDeployed",
      "type": "event"
    }
  ],
  "bytecode": "0x60806040523480156200001157600080fd5b5060405162001371380380620013718339810180604052620000379190810190620002a7565b83816001600160a01b03821662000085576040517f08c379a00000000000000000000000000000000000000000000000000000000081526004016200007c9062000436565b60405180910390fd5b600080546001600160a01b0319166001600160a01b038416179055805115620001325760005b8151811015620001305760006001600160a01b0316336001600160a01b0316838381518110620000d757fe5b60200260200101516001600160a01b03167fbb6121447d29a04cc37bfd93cdf6a9dd08229f2d941116c1528f04698c4e790e60008060006040516200011f9392919062000400565b60405180910390a4600101620000ab565b505b5050600180546001600160a01b038089166001600160a01b03199283161783556003805486831693169290921790915584166000908152600560209081526040909120805460ff1916909217909155620001929086906200019e811b901c565b505050505050620004de565b6001546001600160a01b03163314620001e5576040517f08c379a00000000000000000000000000000000000000000000000000000000081526004016200007c906200044e565b6001600160a01b03166000908152600460205260409020805460ff19166001179055565b6000620002178251620004bd565b9392505050565b600082601f8301126200023057600080fd5b815162000247620002418262000487565b62000460565b915081818352602084019350602081019050838560208402820111156200026d57600080fd5b60005b838110156200029d578162000286888262000209565b845250602092830192919091019060010162000270565b5050505092915050565b60008060008060008060c08789031215620002c157600080fd5b6000620002cf898962000209565b9650506020620002e289828a0162000209565b9550506040620002f589828a0162000209565b94505060606200030889828a0162000209565b93505060806200031b89828a0162000209565b92505060a08701516001600160401b038111156200033857600080fd5b6200034689828a016200021e565b9150509295509295509295565b6200035e81620004ca565b82525050565b600062000373602d83620004a8565b7f42466163746f72793a20696e76616c69642062706f6f6c2074656d706c61746581527f207a65726f206164647265737300000000000000000000000000000000000000602082015260400192915050565b6000620003d4601683620004a8565b7f4f6365616e526f757465723a204e4f54204f574e455200000000000000000000815260200192915050565b6060810162000410828662000353565b6200041f602083018562000353565b6200042e604083018462000353565b949350505050565b60208082528101620004488162000364565b92915050565b602080825281016200044881620003c5565b6040518181016001600160401b03811182821017156200047f57600080fd5b604052919050565b60006001600160401b038211156200049e57600080fd5b5060209081020190565b90815260200190565b6001600160a01b031690565b60006200044882620004b1565b6000620004488260006200044882620004bd565b610e8380620004ee6000396000f3fe608060405234801561001057600080fd5b506004361061018e5760003560e01c8063b7b800a4116100de578063c3a9152e11610097578063e4a28a5211610071578063e4a28a52146101a8578063ec09302114610299578063ee661f67146102a1578063f4c3066f146102b45761018e565b8063c3a9152e14610276578063c6580d1214610289578063e183fb3f146102915761018e565b8063b7b800a41461024e578063ba019dab14610256578063bae6ae121461025e578063bc063e1a14610266578063bc694ea21461026e578063c36596a6146101ce5761018e565b806376c7a3c71161014b578063867378c511610125578063867378c51461022e5780639381cd2b14610236578063992e2a921461023e578063b0e0d136146102465761018e565b806376c7a3c7146101fe57806379463a0e146102065780638552730a146102265761018e565b80630318ad661461019357806309a3bbe4146101a8578063189d00ca146101c6578063218b5382146101ce57806329b9213e146101d65780636c9fb612146101eb575b600080fd5b6101a66101a13660046109aa565b6102bc565b005b6101b0610316565b6040516101bd9190610df8565b60405180910390f35b6101b0610323565b6101b0610337565b6101de610343565b6040516101bd9190610c6a565b6101a66101f93660046109aa565b610352565b6101b06103a3565b6102196102143660046109aa565b6103b5565b6040516101bd9190610d9a565b6101de6103ca565b6101b06103d9565b6101b06103ed565b6101b06103fa565b6101b0610406565b6101b061040b565b6101b0610410565b6101de610415565b6101b0610424565b6101b0610434565b6101de6102843660046109d0565b610440565b6101b061064f565b6101b0610654565b6101b061065f565b6102196102af3660046109aa565b61066f565b6101de610684565b6001546001600160a01b031633146102f257604051600160e51b62461bcd0281526004016102e990610dc8565b60405180910390fd5b6001600160a01b03166000908152600460205260409020805460ff19166001179055565b6802b5e3af16b188000081565b6402540be400670de0b6b3a76400005b0481565b670de0b6b3a764000081565b6002546001600160a01b031681565b6001546001600160a01b0316331461037f57604051600160e51b62461bcd0281526004016102e990610dc8565b6001600160a01b03166000908152600560205260409020805460ff19166001179055565b620f4240670de0b6b3a7640000610333565b60046020526000908152604090205460ff1681565b6001546001600160a01b031681565b64e8d4a51000670de0b6b3a7640000610333565b68056bc75e2d6310000081565b6704a03ce68d21555681565b600881565b600281565b600181565b6000546001600160a01b031681565b600a670de0b6b3a7640000610333565b671bc16d674ec7ffff81565b600354604051600160e01b63226e76150281526000916001600160a01b03169063226e761590610474903390600401610c7e565b60206040518083038186803b15801561048c57600080fd5b505afa1580156104a0573d6000803e3d6000fd5b505050506040513d601f19601f820116820180604052506104c49190810190610a75565b15156001146104e857604051600160e51b62461bcd0281526004016102e990610db8565b6001600160a01b0388166000908152600560205260409020805460ff191660011790556001600160a01b038616600090815260046020526040812054819060ff1615156001141561053857600191505b6001821515141561058b576105848a8a8a8a8a8a8a8080602002602001604051908101604052809392919081815260200183836020028082843760009201829052509250610693915050565b90506105d8565b6105d58a8a8a8a8a8a8a8080602002602001604051908101604052809392919081815260200183836020028082843760009201919091525066038d7ea4c680009250610693915050565b90505b6001600160a01b03811661060157604051600160e51b62461bcd0281526004016102e990610dd8565b806001600160a01b03167f90279d7790471e260411db76079630dfaa838fc987d29ae7aa7dc1bcd773ef2e8360405161063a9190610d9a565b60405180910390a29998505050505050505050565b600081565b66038d7ea4c6800081565b6002670de0b6b3a7640000610333565b60056020526000908152604090205460ff1681565b6003546001600160a01b031681565b600080546106a9906001600160a01b0316610895565b90506001600160a01b0381166106d457604051600160e51b62461bcd0281526004016102e990610da8565b806001600160a01b03811663c336eeff8a30620f4240670de0b6b3a764000004876000808f8f8e6040518a63ffffffff1660e01b815260040161071f99989796959493929190610d14565b602060405180830381600087803b15801561073957600080fd5b505af115801561074d573d6000803e3d6000fd5b505050506040513d601f19601f820116820180604052506107719190810190610a75565b61079057604051600160e51b62461bcd0281526004016102e990610de8565b876001600160a01b0316336001600160a01b0316836001600160a01b03167fbb6121447d29a04cc37bfd93cdf6a9dd08229f2d941116c1528f04698c4e790e8a6000809054906101000a90046001600160a01b03168e6040516107f593929190610c8c565b60405180910390a4604051600160e21b6313cf99b70281526001600160a01b038a1690634f3e66dc90610836908b908b9087908c908c908c90600401610cb4565b602060405180830381600087803b15801561085057600080fd5b505af1158015610864573d6000803e3d6000fd5b505050506040513d601f19601f820116820180604052506108889190810190610a75565b5050979650505050505050565b6000808260601b90506040517f3d602d80600a3d3981f3363d3d373d3d3d363d7300000000000000000000000081528160148201527f5af43d82803e903d91602b57fd5bf3000000000000000000000000000000000060288201526037816000f09250507f117c72e6c25f0a072e36e148df71468ce2f3dbe7defec5b2c257a6e3eb65278c826040516109289190610c6a565b60405180910390a150919050565b60006109428235610e19565b9392505050565b60008083601f84011261095b57600080fd5b50813567ffffffffffffffff81111561097357600080fd5b60208301915083602082028301111561098b57600080fd5b9250929050565b60006109428251610e24565b60006109428235610e35565b6000602082840312156109bc57600080fd5b60006109c88484610936565b949350505050565b600080600080600080600060c0888a0312156109eb57600080fd5b60006109f78a8a610936565b9750506020610a088a828b01610936565b9650506040610a198a828b01610936565b9550506060610a2a8a828b01610936565b9450506080610a3b8a828b0161099e565b93505060a088013567ffffffffffffffff811115610a5857600080fd5b610a648a828b01610949565b925092505092959891949750929550565b600060208284031215610a8757600080fd5b60006109c88484610992565b6000610a9f8383610c61565b505060200190565b610ab081610e38565b82525050565b610ab081610e19565b6000610aca82610e0c565b610ad48185610e10565b9350610adf83610e06565b60005b82811015610b0a57610af5868351610a93565b9550610b0082610e06565b9150600101610ae2565b5093949350505050565b610ab081610e24565b6000610b2a602483610e10565b7f42466163746f72793a20696e76616c69642062706f6f6c207a65726f206164648152600160e01b637265737302602082015260400192915050565b6000610b73602b83610e10565b7f464143544f525920524f555445523a204e4f54204f524947494e414c204552438152600160a81b6a32302054454d504c41544502602082015260400192915050565b6000610bc3601683610e10565b7f4f6365616e526f757465723a204e4f54204f574e455200000000000000000000815260200192915050565b6000610bfc601583610e10565b7f4641494c454420544f204445504c4f5920504f4f4c0000000000000000000000815260200192915050565b6000610c35601483610e10565b7f4552525f494e495449414c495a455f42504f4f4c000000000000000000000000815260200192915050565b610ab081610e35565b60208101610c788284610ab6565b92915050565b60208101610c788284610aa7565b60608101610c9a8286610ab6565b610ca76020830185610ab6565b6109c86040830184610ab6565b60c08101610cc28289610ab6565b610ccf6020830188610ab6565b610cdc6040830187610ab6565b610ce96060830186610ab6565b610cf66080830185610c61565b81810360a0830152610d088184610abf565b98975050505050505050565b6101208101610d23828c610ab6565b610d30602083018b610ab6565b610d3d604083018a610c61565b610d4a6060830189610c61565b610d576080830188610b14565b610d6460a0830187610b14565b610d7160c0830186610ab6565b610d7e60e0830185610ab6565b610d8c610100830184610c61565b9a9950505050505050505050565b60208101610c788284610b14565b60208082528101610c7881610b1d565b60208082528101610c7881610b66565b60208082528101610c7881610bb6565b60208082528101610c7881610bef565b60208082528101610c7881610c28565b60208101610c788284610c61565b60200190565b5190565b90815260200190565b6000610c7882610e29565b151590565b6001600160a01b031690565b90565b6000610c78826000610c7882610e1956fea265627a7a72305820bb7c8f33e36dd11eb9edb717be58428d44cd23fb5cf01e016d2eaf2dbfe6eba86c6578706572696d656e74616cf50037",
  "linkReferences": {},
  "deployedLinkReferences": {}
}