{
  "contractName": "BNum",
  "abi": [
    {
      "constant": true,
      "inputs": [],
      "name": "MAX_TOTAL_WEIGHT",
      "outputs": [
        {
          "name": "",
          "type": "uint256"
        }
      ],
      "payable": false,
      "stateMutability": "view",
      "type": "function"
    },
    {
      "constant": true,
      "inputs": [],
      "name": "BPOW_PRECISION",
      "outputs": [
        {
          "name": "",
          "type": "uint256"
        }
      ],
      "payable": false,
      "stateMutability": "view",
      "type": "function"
    },
    {
      "constant": true,
      "inputs": [],
      "name": "MIN_WEIGHT",
      "outputs": [
        {
          "name": "",
          "type": "uint256"
        }
      ],
      "payable": false,
      "stateMutability": "view",
      "type": "function"
    },
    {
      "constant": true,
      "inputs": [],
      "name": "MIN_FEE",
      "outputs": [
        {
          "name": "",
          "type": "uint256"
        }
      ],
      "payable": false,
      "stateMutability": "view",
      "type": "function"
    },
    {
      "constant": true,
      "inputs": [],
      "name": "MIN_BALANCE",
      "outputs": [
        {
          "name": "",
          "type": "uint256"
        }
      ],
      "payable": false,
      "stateMutability": "view",
      "type": "function"
    },
    {
      "constant": true,
      "inputs": [],
      "name": "INIT_POOL_SUPPLY",
      "outputs": [
        {
          "name": "",
          "type": "uint256"
        }
      ],
      "payable": false,
      "stateMutability": "view",
      "type": "function"
    },
    {
      "constant": true,
      "inputs": [],
      "name": "MAX_OUT_RATIO",
      "outputs": [
        {
          "name": "",
          "type": "uint256"
        }
      ],
      "payable": false,
      "stateMutability": "view",
      "type": "function"
    },
    {
      "constant": true,
      "inputs": [],
      "name": "getColor",
      "outputs": [
        {
          "name": "",
          "type": "bytes32"
        }
      ],
      "payable": false,
      "stateMutability": "view",
      "type": "function"
    },
    {
      "constant": true,
      "inputs": [],
      "name": "MAX_BOUND_TOKENS",
      "outputs": [
        {
          "name": "",
          "type": "uint256"
        }
      ],
      "payable": false,
      "stateMutability": "view",
      "type": "function"
    },
    {
      "constant": true,
      "inputs": [],
      "name": "MIN_BOUND_TOKENS",
      "outputs": [
        {
          "name": "",
          "type": "uint256"
        }
      ],
      "payable": false,
      "stateMutability": "view",
      "type": "function"
    },
    {
      "constant": true,
      "inputs": [],
      "name": "MIN_BPOW_BASE",
      "outputs": [
        {
          "name": "",
          "type": "uint256"
        }
      ],
      "payable": false,
      "stateMutability": "view",
      "type": "function"
    },
    {
      "constant": true,
      "inputs": [],
      "name": "MAX_FEE",
      "outputs": [
        {
          "name": "",
          "type": "uint256"
        }
      ],
      "payable": false,
      "stateMutability": "view",
      "type": "function"
    },
    {
      "constant": true,
      "inputs": [],
      "name": "MAX_BPOW_BASE",
      "outputs": [
        {
          "name": "",
          "type": "uint256"
        }
      ],
      "payable": false,
      "stateMutability": "view",
      "type": "function"
    },
    {
      "constant": true,
      "inputs": [],
      "name": "BONE",
      "outputs": [
        {
          "name": "",
          "type": "uint256"
        }
      ],
      "payable": false,
      "stateMutability": "view",
      "type": "function"
    },
    {
      "constant": true,
      "inputs": [],
      "name": "EXIT_FEE",
      "outputs": [
        {
          "name": "",
          "type": "uint256"
        }
      ],
      "payable": false,
      "stateMutability": "view",
      "type": "function"
    },
    {
      "constant": true,
      "inputs": [],
      "name": "MAX_WEIGHT",
      "outputs": [
        {
          "name": "",
          "type": "uint256"
        }
      ],
      "payable": false,
      "stateMutability": "view",
      "type": "function"
    },
    {
      "constant": true,
      "inputs": [],
      "name": "MAX_IN_RATIO",
      "outputs": [
        {
          "name": "",
          "type": "uint256"
        }
      ],
      "payable": false,
      "stateMutability": "view",
      "type": "function"
    }
  ],
  "bytecode": "0x608060405234801561001057600080fd5b5061047b806100206000396000f3fe608060405234801561001057600080fd5b5060043610610128576000357c010000000000000000000000000000000000000000000000000000000090048063b0e0d136116100bf578063bc694ea21161008e578063bc694ea214610295578063c36596a6146102b3578063c6580d12146102d1578063e4a28a52146102ef578063ec0930211461030d57610128565b8063b0e0d1361461021d578063b7b800a41461023b578063ba019dab14610259578063bc063e1a1461027757610128565b8063867378c5116100fb578063867378c5146101a55780639381cd2b146101c3578063992e2a92146101e15780639a86139b146101ff57610128565b806309a3bbe41461012d578063189d00ca1461014b578063218b53821461016957806376c7a3c714610187575b600080fd5b61013561032b565b6040518082815260200191505060405180910390f35b61015361033a565b6040518082815260200191505060405180910390f35b610171610354565b6040518082815260200191505060405180910390f35b61018f610360565b6040518082815260200191505060405180910390f35b6101ad610378565b6040518082815260200191505060405180910390f35b6101cb610392565b6040518082815260200191505060405180910390f35b6101e96103a1565b6040518082815260200191505060405180910390f35b6102076103ba565b6040518082815260200191505060405180910390f35b6102256103e2565b6040518082815260200191505060405180910390f35b6102436103e7565b6040518082815260200191505060405180910390f35b6102616103ec565b6040518082815260200191505060405180910390f35b61027f6103f1565b6040518082815260200191505060405180910390f35b61029d610407565b6040518082815260200191505060405180910390f35b6102bb610419565b6040518082815260200191505060405180910390f35b6102d9610425565b6040518082815260200191505060405180910390f35b6102f761042a565b6040518082815260200191505060405180910390f35b610315610439565b6040518082815260200191505060405180910390f35b6032670de0b6b3a76400000281565b6402540be400670de0b6b3a76400008161035057fe5b0481565b670de0b6b3a764000081565b620f4240670de0b6b3a76400008161037457fe5b0481565b64e8d4a51000670de0b6b3a76400008161038e57fe5b0481565b6064670de0b6b3a76400000281565b60016003670de0b6b3a7640000816103b557fe5b040181565b60007f42524f4e5a450000000000000000000000000000000000000000000000000000905090565b600881565b600281565b600181565b600a670de0b6b3a76400008161040357fe5b0481565b6001670de0b6b3a76400006002020381565b670de0b6b3a764000081565b600081565b6032670de0b6b3a76400000281565b6002670de0b6b3a76400008161044b57fe5b048156fea165627a7a72305820638d8ecd5751f616ff0b13e6e46e5805b1f486448228ea75b27d72c24ec0fba90029",
  "source": "// This program is free software: you can redistribute it and/or modify\n// it under the terms of the GNU General Public License as published by\n// the Free Software Foundation, either version 3 of the License, or\n// (at your option) any later version.\n\n// This program is distributed in the hope that it will be useful,\n// but WITHOUT ANY WARRANTY; without even the implied warranty of\n// MERCHANTABILITY or FITNESS FOR A PARTICULAR PURPOSE.  See the\n// GNU General Public License for more details.\n\n// You should have received a copy of the GNU General Public License\n// along with this program.  If not, see <http://www.gnu.org/licenses/>.\n\npragma solidity 0.5.7;\n\nimport './BConst.sol';\n\ncontract BNum is BConst {\n\n    function btoi(uint a)\n        internal pure \n        returns (uint)\n    {\n        return a / BONE;\n    }\n\n    function bfloor(uint a)\n        internal pure\n        returns (uint)\n    {\n        return btoi(a) * BONE;\n    }\n\n    function badd(uint a, uint b)\n        internal pure\n        returns (uint)\n    {\n        uint c = a + b;\n        require(c >= a, 'ERR_ADD_OVERFLOW');\n        return c;\n    }\n\n    function bsub(uint a, uint b)\n        internal pure\n        returns (uint)\n    {\n        (uint c, bool flag) = bsubSign(a, b);\n        require(!flag, 'ERR_SUB_UNDERFLOW');\n        return c;\n    }\n\n    function bsubSign(uint a, uint b)\n        internal pure\n        returns (uint, bool)\n    {\n        if (a >= b) {\n            return (a - b, false);\n        } else {\n            return (b - a, true);\n        }\n    }\n\n    function bmul(uint a, uint b)\n        internal pure\n        returns (uint)\n    {\n        uint c0 = a * b;\n        require(a == 0 || c0 / a == b, 'ERR_MUL_OVERFLOW');\n        uint c1 = c0 + (BONE / 2);\n        require(c1 >= c0, 'ERR_MUL_OVERFLOW');\n        uint c2 = c1 / BONE;\n        return c2;\n    }\n\n    function bdiv(uint a, uint b)\n        internal pure\n        returns (uint)\n    {\n        require(b != 0, 'ERR_DIV_ZERO');\n        uint c0 = a * BONE;\n        require(a == 0 || c0 / a == BONE, 'ERR_DIV_INTERNAL'); // bmul overflow\n        uint c1 = c0 + (b / 2);\n        require(c1 >= c0, 'ERR_DIV_INTERNAL'); //  badd require\n        uint c2 = c1 / b;\n        return c2;\n    }\n\n    // DSMath.wpow\n    function bpowi(uint a, uint n)\n        internal pure\n        returns (uint)\n    {\n        uint b = a;\n        uint z = n % 2 != 0 ? b : BONE;\n\n        for (n /= 2; n != 0; n /= 2) {\n            b = bmul(b, b);\n\n            if (n % 2 != 0) {\n                z = bmul(z, b);\n            }\n        }\n        return z;\n    }\n\n    // Compute b^(e.w) by splitting it into (b^e)*(b^0.w).\n    // Use `bpowi` for `b^e` and `bpowK` for k iterations\n    // of approximation of b^0.w\n    function bpow(uint base, uint exp)\n        internal pure\n        returns (uint)\n    {\n        require(base >= MIN_BPOW_BASE, 'ERR_BPOW_BASE_TOO_LOW');\n        require(base <= MAX_BPOW_BASE, 'ERR_BPOW_BASE_TOO_HIGH');\n\n        uint whole  = bfloor(exp);   \n        uint remain = bsub(exp, whole);\n\n        uint wholePow = bpowi(base, btoi(whole));\n\n        if (remain == 0) {\n            return wholePow;\n        }\n\n        uint partialResult = bpowApprox(base, remain, BPOW_PRECISION);\n        return bmul(wholePow, partialResult);\n    }\n\n    function bpowApprox(uint base, uint exp, uint precision)\n        internal pure\n        returns (uint)\n    {\n        // term 0:\n        uint a     = exp;\n        (uint x, bool xneg)  = bsubSign(base, BONE);\n        uint term = BONE;\n        uint sum   = term;\n        bool negative = false;\n\n\n        // term(k) = numer / denom \n        //         = (product(a - i - 1, i=1-->k) * x^k) / (k!)\n        // each iteration, multiply previous term by (a-(k-1)) * x / k\n        // continue until term is less than precision\n        for (uint i = 1; term >= precision; i++) {\n            uint bigK = i * BONE;\n            (uint c, bool cneg) = bsubSign(a, bsub(bigK, BONE));\n            term = bmul(term, bmul(c, x));\n            term = bdiv(term, bigK);\n            if (term == 0) break;\n\n            if (xneg) negative = !negative;\n            if (cneg) negative = !negative;\n            if (negative) {\n                sum = bsub(sum, term);\n            } else {\n                sum = badd(sum, term);\n            }\n        }\n\n        return sum;\n    }\n\n}\n",
  "sourcePath": "/Users/ahmedali/Desktop/work/Ocean/ocean-contracts/contracts/balancer/BNum.sol",
  "compiler": {
    "name": "solc",
    "version": "0.5.7+commit.6da8b019.Emscripten.clang"
  },
  "schemaVersion": "3.2.0",
  "updatedAt": "2020-07-15T14:42:53.111Z",
  "devdoc": {
    "methods": {}
  },
  "userdoc": {
    "methods": {}
  }
}