{
  "contractName": "Converter",
  "abi": [
    {
      "constant": true,
      "inputs": [
        {
          "name": "value",
          "type": "uint256"
        }
      ],
      "name": "uintToString",
      "outputs": [
        {
          "name": "",
          "type": "string"
        }
      ],
      "payable": false,
      "stateMutability": "pure",
      "type": "function"
    },
    {
      "constant": true,
      "inputs": [
        {
          "name": "str1",
          "type": "string"
        },
        {
          "name": "str2",
          "type": "string"
        }
      ],
      "name": "concatenateStrings",
      "outputs": [
        {
          "name": "",
          "type": "string"
        }
      ],
      "payable": false,
      "stateMutability": "pure",
      "type": "function"
    }
  ],
  "bytecode": "0x608060405234801561001057600080fd5b50610416806100206000396000f3fe608060405234801561001057600080fd5b5060043610610052577c010000000000000000000000000000000000000000000000000000000060003504637a36b3ee8114610057578063e9395679146101f9575b600080fd5b6101846004803603604081101561006d57600080fd5b81019060208101813564010000000081111561008857600080fd5b82018360208201111561009a57600080fd5b803590602001918460018302840111640100000000831117156100bc57600080fd5b91908080601f016020809104026020016040519081016040528093929190818152602001838380828437600092019190915250929594936020810193503591505064010000000081111561010f57600080fd5b82018360208201111561012157600080fd5b8035906020019184600183028401116401000000008311171561014357600080fd5b91908080601f016020809104026020016040519081016040528093929190818152602001838380828437600092019190915250929550610216945050505050565b6040805160208082528351818301528351919283929083019185019080838360005b838110156101be5781810151838201526020016101a6565b50505050905090810190601f1680156101eb5780820380516001836020036101000a031916815260200191505b509250505060405180910390f35b6101846004803603602081101561020f57600080fd5b50356102d1565b606082826040516020018083805190602001908083835b6020831061024c5780518252601f19909201916020918201910161022d565b51815160209384036101000a600019018019909216911617905285519190930192850191508083835b602083106102945780518252601f199092019160209182019101610275565b6001836020036101000a03801982511681845116808217855250505050505090500192505050604051602081830303815290604052905092915050565b606081610312575060408051808201909152600181527f300000000000000000000000000000000000000000000000000000000000000060208201526103e5565b8160005b811561032a57600101600a82049150610316565b6060816040519080825280601f01601f191660200182016040528015610357576020820181803883390190505b50859350905060001982015b83156103df57600a84066030017f010000000000000000000000000000000000000000000000000000000000000002828280600190039350815181106103a557fe5b60200101907effffffffffffffffffffffffffffffffffffffffffffffffffffffffffffff1916908160001a905350600a84049350610363565b50925050505b91905056fea165627a7a723058202db489c27aea89a65c408be91f4481228fab9d38274669b3df85329b1fa5032e0029",
  "source": "pragma solidity ^0.5.7;\n// Copyright BigchainDB GmbH and Ocean Protocol contributors\n// SPDX-License-Identifier: (Apache-2.0 AND CC-BY-4.0)\n// Code is Apache-2.0 and docs are CC-BY-4.0\n\n/**\n * @title Converter Contract\n * @author Ocean Protocol Team\n *\n * @dev Simple types converter\n *      This contract provides sompe helper functions\n *      such as converting integers to strings\n */\ncontract Converter {\n    /**\n     * @dev uintToString\n     *      converts an integer value to a string value\n     * @param value refers to integer value\n     * @return converted string value\n     */\n    function uintToString\n    (\n        uint256 value\n    )\n        public\n        pure\n        returns (string memory) \n    {\n        if ( value == 0) {\n            return '0';\n        }\n        uint tempUint = value;\n        uint len;\n        while (tempUint != 0) {\n            len++;\n            tempUint /= 10;\n        }\n        \n        bytes memory bstr = new bytes(len);\n        uint k = len - 1;\n        tempUint = value; \n        while (tempUint != 0) {\n            bstr[k--] = byte(uint8(48 + tempUint % 10));\n            tempUint /= 10;\n        }\n        return string(bstr);\n    }\n\n    /**\n     * @dev concatenateStrings\n     *      concatenates two strings\n     * @param str1 refers to first string\n     * @param str2 refers to second string\n     * @return catenated string value\n     */\n    function concatenateStrings(\n        string memory str1, \n        string memory str2\n    )\n        public\n        pure\n        returns(string memory)\n    {\n        return string(abi.encodePacked(str1, str2));\n    }\n}",
  "sourcePath": "/Users/ahmedali/Desktop/work/Ocean/ocean-contracts/contracts/utils/Converter.sol",
  "compiler": {
    "name": "solc",
    "version": "0.5.7+commit.6da8b019.Emscripten.clang"
  },
  "schemaVersion": "3.2.0",
  "updatedAt": "2020-07-20T07:42:20.366Z",
  "devdoc": {
    "author": "Ocean Protocol Team",
    "details": "Simple types converter     This contract provides sompe helper functions     such as converting integers to strings",
    "methods": {
      "concatenateStrings(string,string)": {
        "details": "concatenateStrings     concatenates two strings",
        "params": {
          "str1": "refers to first string",
          "str2": "refers to second string"
        },
        "return": "catenated string value"
      },
      "uintToString(uint256)": {
        "details": "uintToString     converts an integer value to a string value",
        "params": {
          "value": "refers to integer value"
        },
        "return": "converted string value"
      }
    },
    "title": "Converter Contract"
  },
  "userdoc": {
    "methods": {}
  }
}