{
  "contractName": "Migrations",
  "abi": [
    {
      "constant": true,
      "inputs": [],
      "name": "last_completed_migration",
      "outputs": [
        {
          "name": "",
          "type": "uint256"
        }
      ],
      "payable": false,
      "stateMutability": "view",
      "type": "function"
    },
    {
      "constant": true,
      "inputs": [],
      "name": "owner",
      "outputs": [
        {
          "name": "",
          "type": "address"
        }
      ],
      "payable": false,
      "stateMutability": "view",
      "type": "function"
    },
    {
      "inputs": [],
      "payable": false,
      "stateMutability": "nonpayable",
      "type": "constructor"
    },
    {
      "constant": false,
      "inputs": [
        {
          "name": "completed",
          "type": "uint256"
        }
      ],
      "name": "setCompleted",
      "outputs": [],
      "payable": false,
      "stateMutability": "nonpayable",
      "type": "function"
    }
  ],
  "bytecode": "0x608060405234801561001057600080fd5b5060008054600160a060020a03191633179055610143806100326000396000f3fe608060405234801561001057600080fd5b506004361061005d577c01000000000000000000000000000000000000000000000000000000006000350463445df0ac81146100625780638da5cb5b1461007c578063fdacd576146100ad575b600080fd5b61006a6100cc565b60408051918252519081900360200190f35b6100846100d2565b6040805173ffffffffffffffffffffffffffffffffffffffff9092168252519081900360200190f35b6100ca600480360360208110156100c357600080fd5b50356100ee565b005b60015481565b60005473ffffffffffffffffffffffffffffffffffffffff1681565b60005473ffffffffffffffffffffffffffffffffffffffff163314156101145760018190555b5056fea165627a7a723058202c0a58bf1baf04d87a228ddc59492508f3fa89b5d0e8ebd0b51f20e5988a8a540029",
  "source": "pragma solidity >=0.4.21 <0.7.0;\n\ncontract Migrations {\n  \n    address public owner;\n    uint public last_completed_migration;\n  \n    constructor() public {\n        owner = msg.sender;\n    }\n  \n    modifier restricted() { \n        if (msg.sender == owner) _;\n    }\n    \n    function setCompleted(uint completed) public restricted {\n        last_completed_migration = completed;\n    }\n}\n",
  "sourcePath": "/Users/ahmedali/Desktop/work/Ocean/ocean-contracts/contracts/Migrations.sol",
  "compiler": {
    "name": "solc",
    "version": "0.5.7+commit.6da8b019.Emscripten.clang"
  },
  "schemaVersion": "3.2.0",
  "updatedAt": "2020-07-20T07:42:20.240Z",
  "devdoc": {
    "methods": {}
  },
  "userdoc": {
    "methods": {}
  }
}