{
  "contractName": "SFactory",
  "abi": [
    {
      "constant": true,
      "inputs": [],
      "name": "MAX_TOTAL_WEIGHT",
      "outputs": [
        {
          "name": "",
          "type": "uint256"
        }
      ],
      "payable": false,
      "stateMutability": "view",
      "type": "function"
    },
    {
      "constant": true,
      "inputs": [],
      "name": "BPOW_PRECISION",
      "outputs": [
        {
          "name": "",
          "type": "uint256"
        }
      ],
      "payable": false,
      "stateMutability": "view",
      "type": "function"
    },
    {
      "constant": true,
      "inputs": [],
      "name": "MIN_WEIGHT",
      "outputs": [
        {
          "name": "",
          "type": "uint256"
        }
      ],
      "payable": false,
      "stateMutability": "view",
      "type": "function"
    },
    {
      "constant": true,
      "inputs": [],
      "name": "MIN_FEE",
      "outputs": [
        {
          "name": "",
          "type": "uint256"
        }
      ],
      "payable": false,
      "stateMutability": "view",
      "type": "function"
    },
    {
      "constant": true,
      "inputs": [
        {
          "name": "str1",
          "type": "string"
        },
        {
          "name": "str2",
          "type": "string"
        }
      ],
      "name": "concatenateStrings",
      "outputs": [
        {
          "name": "",
          "type": "string"
        }
      ],
      "payable": false,
      "stateMutability": "pure",
      "type": "function"
    },
    {
      "constant": true,
      "inputs": [],
      "name": "MIN_BALANCE",
      "outputs": [
        {
          "name": "",
          "type": "uint256"
        }
      ],
      "payable": false,
      "stateMutability": "view",
      "type": "function"
    },
    {
      "constant": true,
      "inputs": [],
      "name": "INIT_POOL_SUPPLY",
      "outputs": [
        {
          "name": "",
          "type": "uint256"
        }
      ],
      "payable": false,
      "stateMutability": "view",
      "type": "function"
    },
    {
      "constant": true,
      "inputs": [],
      "name": "MAX_OUT_RATIO",
      "outputs": [
        {
          "name": "",
          "type": "uint256"
        }
      ],
      "payable": false,
      "stateMutability": "view",
      "type": "function"
    },
    {
      "constant": true,
      "inputs": [],
      "name": "MAX_BOUND_TOKENS",
      "outputs": [
        {
          "name": "",
          "type": "uint256"
        }
      ],
      "payable": false,
      "stateMutability": "view",
      "type": "function"
    },
    {
      "constant": true,
      "inputs": [],
      "name": "MIN_BOUND_TOKENS",
      "outputs": [
        {
          "name": "",
          "type": "uint256"
        }
      ],
      "payable": false,
      "stateMutability": "view",
      "type": "function"
    },
    {
      "constant": true,
      "inputs": [],
      "name": "MIN_BPOW_BASE",
      "outputs": [
        {
          "name": "",
          "type": "uint256"
        }
      ],
      "payable": false,
      "stateMutability": "view",
      "type": "function"
    },
    {
      "constant": true,
      "inputs": [],
      "name": "MAX_FEE",
      "outputs": [
        {
          "name": "",
          "type": "uint256"
        }
      ],
      "payable": false,
      "stateMutability": "view",
      "type": "function"
    },
    {
      "constant": true,
      "inputs": [],
      "name": "MAX_BPOW_BASE",
      "outputs": [
        {
          "name": "",
          "type": "uint256"
        }
      ],
      "payable": false,
      "stateMutability": "view",
      "type": "function"
    },
    {
      "constant": true,
      "inputs": [],
      "name": "BONE",
      "outputs": [
        {
          "name": "",
          "type": "uint256"
        }
      ],
      "payable": false,
      "stateMutability": "view",
      "type": "function"
    },
    {
      "constant": true,
      "inputs": [],
      "name": "EXIT_FEE",
      "outputs": [
        {
          "name": "",
          "type": "uint256"
        }
      ],
      "payable": false,
      "stateMutability": "view",
      "type": "function"
    },
    {
      "constant": true,
      "inputs": [],
      "name": "MAX_WEIGHT",
      "outputs": [
        {
          "name": "",
          "type": "uint256"
        }
      ],
      "payable": false,
      "stateMutability": "view",
      "type": "function"
    },
    {
      "constant": true,
      "inputs": [
        {
          "name": "value",
          "type": "uint256"
        }
      ],
      "name": "uintToString",
      "outputs": [
        {
          "name": "",
          "type": "string"
        }
      ],
      "payable": false,
      "stateMutability": "pure",
      "type": "function"
    },
    {
      "constant": true,
      "inputs": [],
      "name": "MAX_IN_RATIO",
      "outputs": [
        {
          "name": "",
          "type": "uint256"
        }
      ],
      "payable": false,
      "stateMutability": "view",
      "type": "function"
    },
    {
      "inputs": [
        {
          "name": "spoolTemplate",
          "type": "address"
        }
      ],
      "payable": false,
      "stateMutability": "nonpayable",
      "type": "constructor"
    },
    {
      "anonymous": false,
      "inputs": [
        {
          "indexed": true,
          "name": "newSPoolAddress",
          "type": "address"
        },
        {
          "indexed": true,
          "name": "spoolTemplateAddress",
          "type": "address"
        }
      ],
      "name": "SPoolCreated",
      "type": "event"
    },
    {
      "anonymous": false,
      "inputs": [
        {
          "indexed": false,
          "name": "spoolAddress",
          "type": "address"
        },
        {
          "indexed": true,
          "name": "registeredBy",
          "type": "address"
        },
        {
          "indexed": true,
          "name": "registeredAt",
          "type": "uint256"
        }
      ],
      "name": "SPoolRegistered",
      "type": "event"
    },
    {
      "anonymous": false,
      "inputs": [
        {
          "indexed": false,
          "name": "instance",
          "type": "address"
        }
      ],
      "name": "InstanceDeployed",
      "type": "event"
    },
    {
      "constant": false,
      "inputs": [
        {
          "name": "controller",
          "type": "address"
        }
      ],
      "name": "newSPool",
      "outputs": [
        {
          "name": "spool",
          "type": "address"
        }
      ],
      "payable": false,
      "stateMutability": "nonpayable",
      "type": "function"
    },
    {
      "constant": true,
      "inputs": [],
      "name": "getSPool",
      "outputs": [
        {
          "name": "",
          "type": "address"
        }
      ],
      "payable": false,
      "stateMutability": "view",
      "type": "function"
    }
  ],
  "bytecode": "0x608060405234801561001057600080fd5b50604051602080610ada8339810180604052602081101561003057600080fd5b5051600160a060020a0381166100a757604080517f08c379a000000000000000000000000000000000000000000000000000000000815260206004820152600d60248201527f4552525f414444524553535f3000000000000000000000000000000000000000604482015290519081900360640190fd5b60008054600160a060020a03909216600160a060020a0319909216919091179055610a03806100d76000396000f3fe608060405234801561001057600080fd5b5060043610610149576000357c010000000000000000000000000000000000000000000000000000000090048063b0e0d136116100ca578063c36596a61161008e578063c36596a614610170578063c6580d12146103ac578063e4a28a521461014e578063e9395679146103b4578063ec093021146103d157610149565b8063b0e0d13614610384578063b7b800a41461038c578063ba019dab14610394578063bc063e1a1461039c578063bc694ea2146103a457610149565b80637a36b3ee116101115780637a36b3ee146101a4578063867378c5146103465780639381cd2b1461034e57806393e433b214610356578063992e2a921461037c57610149565b806309a3bbe41461014e578063189d00ca14610168578063218b538214610170578063409f84fc1461017857806376c7a3c71461019c575b600080fd5b6101566103d9565b60408051918252519081900360200190f35b6101566103e6565b6101566103fa565b610180610406565b60408051600160a060020a039092168252519081900360200190f35b610156610415565b6102d1600480360360408110156101ba57600080fd5b8101906020810181356401000000008111156101d557600080fd5b8201836020820111156101e757600080fd5b8035906020019184600183028401116401000000008311171561020957600080fd5b91908080601f016020809104026020016040519081016040528093929190818152602001838380828437600092019190915250929594936020810193503591505064010000000081111561025c57600080fd5b82018360208201111561026e57600080fd5b8035906020019184600183028401116401000000008311171561029057600080fd5b91908080601f016020809104026020016040519081016040528093929190818152602001838380828437600092019190915250929550610427945050505050565b6040805160208082528351818301528351919283929083019185019080838360005b8381101561030b5781810151838201526020016102f3565b50505050905090810190601f1680156103385780820380516001836020036101000a031916815260200191505b509250505060405180910390f35b6101566104e2565b6101566104f6565b6101806004803603602081101561036c57600080fd5b5035600160a060020a0316610503565b6101566107c1565b6101566107cd565b6101566107d2565b6101566107d7565b6101566107dc565b6101566107ec565b6101566107f8565b6102d1600480360360208110156103ca57600080fd5b50356107fd565b610156610916565b6802b5e3af16b188000081565b6402540be400670de0b6b3a76400005b0481565b670de0b6b3a764000081565b600054600160a060020a031690565b620f4240670de0b6b3a76400006103f6565b606082826040516020018083805190602001908083835b6020831061045d5780518252601f19909201916020918201910161043e565b51815160209384036101000a600019018019909216911617905285519190930192850191508083835b602083106104a55780518252601f199092019160209182019101610486565b6001836020036101000a03801982511681845116808217855250505050505090500192505050604051602081830303815290604052905092915050565b64e8d4a51000670de0b6b3a76400006103f6565b68056bc75e2d6310000081565b6000805461051990600160a060020a0316610926565b9050600160a060020a03811661059057604080517f08c379a000000000000000000000000000000000000000000000000000000000815260206004820152600d60248201527f4552525f414444524553535f3000000000000000000000000000000000000000604482015290519081900360640190fd5b604080517f506de974000000000000000000000000000000000000000000000000000000008152600160a060020a038481166004830152306024830181905264e8d4a510006044840181905260006064850181905260848501819052945186959294919383929087169163506de9749160a48082019260209290919082900301818787803b15801561062157600080fd5b505af1158015610635573d6000803e3d6000fd5b505050506040513d602081101561064b57600080fd5b5050604080517f392e53cd0000000000000000000000000000000000000000000000000000000081529051600160a060020a0387169163392e53cd916004808301926020929190829003018186803b1580156106a657600080fd5b505afa1580156106ba573d6000803e3d6000fd5b505050506040513d60208110156106d057600080fd5b505161073d57604080517f08c379a000000000000000000000000000000000000000000000000000000000815260206004820152601460248201527f4552525f494e495449414c495a455f53504f4f4c000000000000000000000000604482015290519081900360640190fd5b60008054604051600160a060020a0391821692918916917f75c84bc3fea03d287558c86073810ad6f2c1bd373d9982ac615203d1539aff1391a360408051600160a060020a03881681529051439133917f14e7567eaf089d4c31f0ebf88996f9e09fdb0dd445800675a7c81a5dfe8e37e59181900360200190a35050505050919050565b6704a03ce68d21555681565b600881565b600281565b600181565b600a670de0b6b3a76400006103f6565b671bc16d674ec7ffff81565b600081565b60608161083e575060408051808201909152600181527f30000000000000000000000000000000000000000000000000000000000000006020820152610911565b8160005b811561085657600101600a82049150610842565b6060816040519080825280601f01601f191660200182016040528015610883576020820181803883390190505b50859350905060001982015b831561090b57600a84066030017f010000000000000000000000000000000000000000000000000000000000000002828280600190039350815181106108d157fe5b60200101907effffffffffffffffffffffffffffffffffffffffffffffffffffffffffffff1916908160001a905350600a8404935061088f565b50925050505b919050565b6002670de0b6b3a76400006103f6565b6040517f3d602d80600a3d3981f3363d3d373d3d3d363d7300000000000000000000000081526c010000000000000000000000008202601482018190527f5af43d82803e903d91602b57fd5bf30000000000000000000000000000000000602883015260009160378184f060408051600160a060020a038316815290519194507f117c72e6c25f0a072e36e148df71468ce2f3dbe7defec5b2c257a6e3eb65278c925081900360200190a15091905056fea165627a7a723058200c32923969d0cb4a60e42b2668988a72afb55d88fababd35d6661505324d3d3b0029",
  "source": "pragma solidity ^0.5.7;\n// Copyright BigchainDB GmbH and Ocean Protocol contributors\n// SPDX-License-Identifier: (Apache-2.0 AND CC-BY-4.0)\n// Code is Apache-2.0 and docs are CC-BY-4.0\n\nimport './utils/Deployer.sol';\nimport './utils/Converter.sol';\nimport './balancer/SPool.sol';\nimport './balancer/BConst.sol';\n\n/*\n* @title SFactory contract\n* @author Ocean Protocol (with code from Balancer Labs)\n*\n* @dev Ocean implementation of Balancer SPool Factory\n*      SFactory deploys SPool proxy contracts.\n*      New SPool proxy contracts are links to the template contract's bytecode. \n*      Proxy contract functionality is based on Ocean Protocol custom\n*        implementation of ERC1167 standard.\n*/\n\ncontract SFactory is BConst, Deployer, Converter {\n\n    address private _spoolTemplate;\n\n    event SPoolCreated(\n        address indexed newSPoolAddress, \n        address indexed spoolTemplateAddress\n    );\n    \n    event SPoolRegistered(\n        address spoolAddress,\n        address indexed registeredBy,\n        uint256 indexed registeredAt\n    );\n    \n    /* @dev Called on contract deployment. Cannot be called with zero address.\n       @param _spoolTemplate -- address of a deployed SPool contract. */\n    constructor(address spoolTemplate) \n        public \n    {\n        require(spoolTemplate != address(0), 'ERR_ADDRESS_0');\n        _spoolTemplate = spoolTemplate;\n    }\n\n    /* @dev Deploys new SPool proxy contract.\n       Template contract address could not be a zero address. \n       @return address of a new proxy SPool contract */\n    function newSPool(address controller) \n        public\n        returns (address spool)\n    {\n        spool = deploy(_spoolTemplate);\n        require(spool != address(0), 'ERR_ADDRESS_0');\n        \n        // replace SPool with interface\n        SPool spoolInstance = SPool(spool);\n\t\n        address factory = address(this);\n        uint swapFee = MIN_FEE;\n        bool publicSwap = false;\n        bool finalized = false;\n        spoolInstance.initialize(\n            controller, \n            factory, \n            swapFee, \n            publicSwap,\n            finalized\n        );\n\t\n        require(spoolInstance.isInitialized(), 'ERR_INITIALIZE_SPOOL');\n        emit SPoolCreated(spool, _spoolTemplate);\n        emit SPoolRegistered(spool, msg.sender, block.number);\n    }\n\n\n    /* @dev get the spool template address\n       @return the template address */\n    function getSPool()\n        external\n        view\n        returns (address)\n    {\n        return _spoolTemplate;\n    }\n}\n",
  "sourcePath": "/Users/ahmedali/Desktop/work/Ocean/ocean-contracts/contracts/SFactory.sol",
  "compiler": {
    "name": "solc",
    "version": "0.5.7+commit.6da8b019.Emscripten.clang"
  },
  "schemaVersion": "3.2.0",
  "updatedAt": "2020-07-17T08:17:03.182Z",
  "devdoc": {
    "methods": {
      "concatenateStrings(string,string)": {
        "details": "concatenateStrings     concatenates two strings",
        "params": {
          "str1": "refers to first string",
          "str2": "refers to second string"
        },
        "return": "catenated string value"
      },
      "uintToString(uint256)": {
        "details": "uintToString     converts an integer value to a string value",
        "params": {
          "value": "refers to integer value"
        },
        "return": "converted string value"
      }
    }
  },
  "userdoc": {
    "methods": {}
  }
}