{
  "_format": "hh-sol-artifact-1",
  "contractName": "ERC721Template",
  "sourceName": "contracts/templates/ERC721Template.sol",
  "abi": [
    {
      "anonymous": false,
      "inputs": [
        {
          "indexed": true,
          "internalType": "address",
          "name": "user",
          "type": "address"
        },
        {
          "indexed": true,
          "internalType": "address",
          "name": "signer",
          "type": "address"
        },
        {
          "indexed": false,
          "internalType": "uint256",
          "name": "timestamp",
          "type": "uint256"
        },
        {
          "indexed": false,
          "internalType": "uint256",
          "name": "blockNumber",
          "type": "uint256"
        }
      ],
      "name": "AddedManager",
      "type": "event"
    },
    {
      "anonymous": false,
      "inputs": [
        {
          "indexed": true,
          "internalType": "address",
          "name": "user",
          "type": "address"
        },
        {
          "indexed": true,
          "internalType": "address",
          "name": "signer",
          "type": "address"
        },
        {
          "indexed": false,
          "internalType": "uint256",
          "name": "timestamp",
          "type": "uint256"
        },
        {
          "indexed": false,
          "internalType": "uint256",
          "name": "blockNumber",
          "type": "uint256"
        }
      ],
      "name": "AddedTo725StoreList",
      "type": "event"
    },
    {
      "anonymous": false,
      "inputs": [
        {
          "indexed": true,
          "internalType": "address",
          "name": "user",
          "type": "address"
        },
        {
          "indexed": true,
          "internalType": "address",
          "name": "signer",
          "type": "address"
        },
        {
          "indexed": false,
          "internalType": "uint256",
          "name": "timestamp",
          "type": "uint256"
        },
        {
          "indexed": false,
          "internalType": "uint256",
          "name": "blockNumber",
          "type": "uint256"
        }
      ],
      "name": "AddedToCreateERC20List",
      "type": "event"
    },
    {
      "anonymous": false,
      "inputs": [
        {
          "indexed": true,
          "internalType": "address",
          "name": "user",
          "type": "address"
        },
        {
          "indexed": true,
          "internalType": "address",
          "name": "signer",
          "type": "address"
        },
        {
          "indexed": false,
          "internalType": "uint256",
          "name": "timestamp",
          "type": "uint256"
        },
        {
          "indexed": false,
          "internalType": "uint256",
          "name": "blockNumber",
          "type": "uint256"
        }
      ],
      "name": "AddedToMetadataList",
      "type": "event"
    },
    {
      "anonymous": false,
      "inputs": [
        {
          "indexed": true,
          "internalType": "address",
          "name": "owner",
          "type": "address"
        },
        {
          "indexed": true,
          "internalType": "address",
          "name": "approved",
          "type": "address"
        },
        {
          "indexed": true,
          "internalType": "uint256",
          "name": "tokenId",
          "type": "uint256"
        }
      ],
      "name": "Approval",
      "type": "event"
    },
    {
      "anonymous": false,
      "inputs": [
        {
          "indexed": true,
          "internalType": "address",
          "name": "owner",
          "type": "address"
        },
        {
          "indexed": true,
          "internalType": "address",
          "name": "operator",
          "type": "address"
        },
        {
          "indexed": false,
          "internalType": "bool",
          "name": "approved",
          "type": "bool"
        }
      ],
      "name": "ApprovalForAll",
      "type": "event"
    },
    {
      "anonymous": false,
      "inputs": [
        {
          "indexed": true,
          "internalType": "address",
          "name": "signer",
          "type": "address"
        },
        {
          "indexed": false,
          "internalType": "uint256",
          "name": "timestamp",
          "type": "uint256"
        },
        {
          "indexed": false,
          "internalType": "uint256",
          "name": "blockNumber",
          "type": "uint256"
        }
      ],
      "name": "CleanedPermissions",
      "type": "event"
    },
    {
      "anonymous": false,
      "inputs": [
        {
          "indexed": true,
          "internalType": "address",
          "name": "contractAddress",
          "type": "address"
        }
      ],
      "name": "ContractCreated",
      "type": "event"
    },
    {
      "anonymous": false,
      "inputs": [
        {
          "indexed": true,
          "internalType": "bytes32",
          "name": "key",
          "type": "bytes32"
        },
        {
          "indexed": false,
          "internalType": "bytes",
          "name": "value",
          "type": "bytes"
        }
      ],
      "name": "DataChanged",
      "type": "event"
    },
    {
      "anonymous": false,
      "inputs": [
        {
          "indexed": true,
          "internalType": "uint256",
          "name": "_operation",
          "type": "uint256"
        },
        {
          "indexed": true,
          "internalType": "address",
          "name": "_to",
          "type": "address"
        },
        {
          "indexed": true,
          "internalType": "uint256",
          "name": "_value",
          "type": "uint256"
        },
        {
          "indexed": false,
          "internalType": "bytes",
          "name": "_data",
          "type": "bytes"
        }
      ],
      "name": "Executed",
      "type": "event"
    },
    {
      "anonymous": false,
      "inputs": [
        {
          "indexed": true,
          "internalType": "address",
          "name": "createdBy",
          "type": "address"
        },
        {
          "indexed": false,
          "internalType": "uint8",
          "name": "state",
          "type": "uint8"
        },
        {
          "indexed": false,
          "internalType": "string",
          "name": "decryptorUrl",
          "type": "string"
        },
        {
          "indexed": false,
          "internalType": "bytes",
          "name": "flags",
          "type": "bytes"
        },
        {
          "indexed": false,
          "internalType": "bytes",
          "name": "data",
          "type": "bytes"
        },
        {
          "indexed": false,
          "internalType": "bytes32",
          "name": "metaDataHash",
          "type": "bytes32"
        },
        {
          "indexed": false,
          "internalType": "uint256",
          "name": "timestamp",
          "type": "uint256"
        },
        {
          "indexed": false,
          "internalType": "uint256",
          "name": "blockNumber",
          "type": "uint256"
        }
      ],
      "name": "MetadataCreated",
      "type": "event"
    },
    {
      "anonymous": false,
      "inputs": [
        {
          "indexed": true,
          "internalType": "address",
          "name": "updatedBy",
          "type": "address"
        },
        {
          "indexed": false,
          "internalType": "uint8",
          "name": "state",
          "type": "uint8"
        },
        {
          "indexed": false,
          "internalType": "uint256",
          "name": "timestamp",
          "type": "uint256"
        },
        {
          "indexed": false,
          "internalType": "uint256",
          "name": "blockNumber",
          "type": "uint256"
        }
      ],
      "name": "MetadataState",
      "type": "event"
    },
    {
      "anonymous": false,
      "inputs": [
        {
          "indexed": true,
          "internalType": "address",
          "name": "updatedBy",
          "type": "address"
        },
        {
          "indexed": false,
          "internalType": "uint8",
          "name": "state",
          "type": "uint8"
        },
        {
          "indexed": false,
          "internalType": "string",
          "name": "decryptorUrl",
          "type": "string"
        },
        {
          "indexed": false,
          "internalType": "bytes",
          "name": "flags",
          "type": "bytes"
        },
        {
          "indexed": false,
          "internalType": "bytes",
          "name": "data",
          "type": "bytes"
        },
        {
          "indexed": false,
          "internalType": "bytes32",
          "name": "metaDataHash",
          "type": "bytes32"
        },
        {
          "indexed": false,
          "internalType": "uint256",
          "name": "timestamp",
          "type": "uint256"
        },
        {
          "indexed": false,
          "internalType": "uint256",
          "name": "blockNumber",
          "type": "uint256"
        }
      ],
      "name": "MetadataUpdated",
      "type": "event"
    },
    {
      "anonymous": false,
      "inputs": [
        {
          "indexed": true,
          "internalType": "address",
          "name": "validator",
          "type": "address"
        },
        {
          "indexed": false,
          "internalType": "bytes32",
          "name": "metaDataHash",
          "type": "bytes32"
        },
        {
          "indexed": false,
          "internalType": "uint8",
          "name": "v",
          "type": "uint8"
        },
        {
          "indexed": false,
          "internalType": "bytes32",
          "name": "r",
          "type": "bytes32"
        },
        {
          "indexed": false,
          "internalType": "bytes32",
          "name": "s",
          "type": "bytes32"
        }
      ],
      "name": "MetadataValidated",
      "type": "event"
    },
    {
      "anonymous": false,
      "inputs": [
        {
          "indexed": true,
          "internalType": "address",
          "name": "user",
          "type": "address"
        },
        {
          "indexed": true,
          "internalType": "address",
          "name": "signer",
          "type": "address"
        },
        {
          "indexed": false,
          "internalType": "uint256",
          "name": "timestamp",
          "type": "uint256"
        },
        {
          "indexed": false,
          "internalType": "uint256",
          "name": "blockNumber",
          "type": "uint256"
        }
      ],
      "name": "RemovedFrom725StoreList",
      "type": "event"
    },
    {
      "anonymous": false,
      "inputs": [
        {
          "indexed": true,
          "internalType": "address",
          "name": "user",
          "type": "address"
        },
        {
          "indexed": true,
          "internalType": "address",
          "name": "signer",
          "type": "address"
        },
        {
          "indexed": false,
          "internalType": "uint256",
          "name": "timestamp",
          "type": "uint256"
        },
        {
          "indexed": false,
          "internalType": "uint256",
          "name": "blockNumber",
          "type": "uint256"
        }
      ],
      "name": "RemovedFromCreateERC20List",
      "type": "event"
    },
    {
      "anonymous": false,
      "inputs": [
        {
          "indexed": true,
          "internalType": "address",
          "name": "user",
          "type": "address"
        },
        {
          "indexed": true,
          "internalType": "address",
          "name": "signer",
          "type": "address"
        },
        {
          "indexed": false,
          "internalType": "uint256",
          "name": "timestamp",
          "type": "uint256"
        },
        {
          "indexed": false,
          "internalType": "uint256",
          "name": "blockNumber",
          "type": "uint256"
        }
      ],
      "name": "RemovedFromMetadataList",
      "type": "event"
    },
    {
      "anonymous": false,
      "inputs": [
        {
          "indexed": true,
          "internalType": "address",
          "name": "user",
          "type": "address"
        },
        {
          "indexed": true,
          "internalType": "address",
          "name": "signer",
          "type": "address"
        },
        {
          "indexed": false,
          "internalType": "uint256",
          "name": "timestamp",
          "type": "uint256"
        },
        {
          "indexed": false,
          "internalType": "uint256",
          "name": "blockNumber",
          "type": "uint256"
        }
      ],
      "name": "RemovedManager",
      "type": "event"
    },
    {
      "anonymous": false,
      "inputs": [
        {
          "indexed": true,
          "internalType": "address",
          "name": "newTokenAddress",
          "type": "address"
        },
        {
          "indexed": true,
          "internalType": "address",
          "name": "templateAddress",
          "type": "address"
        },
        {
          "indexed": false,
          "internalType": "string",
          "name": "name",
          "type": "string"
        },
        {
          "indexed": false,
          "internalType": "string",
          "name": "symbol",
          "type": "string"
        },
        {
          "indexed": false,
          "internalType": "uint256",
          "name": "cap",
          "type": "uint256"
        },
        {
          "indexed": false,
          "internalType": "address",
          "name": "creator",
          "type": "address"
        }
      ],
      "name": "TokenCreated",
      "type": "event"
    },
    {
      "anonymous": false,
      "inputs": [
        {
          "indexed": true,
          "internalType": "address",
          "name": "updatedBy",
          "type": "address"
        },
        {
          "indexed": false,
          "internalType": "string",
          "name": "tokenURI",
          "type": "string"
        },
        {
          "indexed": false,
          "internalType": "uint256",
          "name": "tokenID",
          "type": "uint256"
        },
        {
          "indexed": false,
          "internalType": "uint256",
          "name": "timestamp",
          "type": "uint256"
        },
        {
          "indexed": false,
          "internalType": "uint256",
          "name": "blockNumber",
          "type": "uint256"
        }
      ],
      "name": "TokenURIUpdate",
      "type": "event"
    },
    {
      "anonymous": false,
      "inputs": [
        {
          "indexed": true,
          "internalType": "address",
          "name": "from",
          "type": "address"
        },
        {
          "indexed": true,
          "internalType": "address",
          "name": "to",
          "type": "address"
        },
        {
          "indexed": true,
          "internalType": "uint256",
          "name": "tokenId",
          "type": "uint256"
        }
      ],
      "name": "Transfer",
      "type": "event"
    },
    {
      "stateMutability": "payable",
      "type": "fallback"
    },
    {
      "inputs": [
        {
          "internalType": "address",
          "name": "_managerAddress",
          "type": "address"
        }
      ],
      "name": "addManager",
      "outputs": [],
      "stateMutability": "nonpayable",
      "type": "function"
    },
    {
      "inputs": [
        {
          "internalType": "address",
          "name": "_allowedAddress",
          "type": "address"
        }
      ],
      "name": "addTo725StoreList",
      "outputs": [],
      "stateMutability": "nonpayable",
      "type": "function"
    },
    {
      "inputs": [
        {
          "internalType": "address",
          "name": "_allowedAddress",
          "type": "address"
        }
      ],
      "name": "addToCreateERC20List",
      "outputs": [],
      "stateMutability": "nonpayable",
      "type": "function"
    },
    {
      "inputs": [
        {
          "internalType": "address",
          "name": "_allowedAddress",
          "type": "address"
        }
      ],
      "name": "addToMetadataList",
      "outputs": [],
      "stateMutability": "nonpayable",
      "type": "function"
    },
    {
      "inputs": [
        {
          "internalType": "address",
          "name": "to",
          "type": "address"
        },
        {
          "internalType": "uint256",
          "name": "tokenId",
          "type": "uint256"
        }
      ],
      "name": "approve",
      "outputs": [],
      "stateMutability": "nonpayable",
      "type": "function"
    },
    {
      "inputs": [
        {
          "internalType": "uint256",
          "name": "",
          "type": "uint256"
        }
      ],
      "name": "auth",
      "outputs": [
        {
          "internalType": "address",
          "name": "",
          "type": "address"
        }
      ],
      "stateMutability": "view",
      "type": "function"
    },
    {
      "inputs": [
        {
          "internalType": "address",
          "name": "owner",
          "type": "address"
        }
      ],
      "name": "balanceOf",
      "outputs": [
        {
          "internalType": "uint256",
          "name": "",
          "type": "uint256"
        }
      ],
      "stateMutability": "view",
      "type": "function"
    },
    {
      "inputs": [],
      "name": "cleanPermissions",
      "outputs": [],
      "stateMutability": "nonpayable",
      "type": "function"
    },
    {
      "inputs": [
        {
          "internalType": "uint256",
          "name": "_templateIndex",
          "type": "uint256"
        },
        {
          "internalType": "string[]",
          "name": "strings",
          "type": "string[]"
        },
        {
          "internalType": "address[]",
          "name": "addresses",
          "type": "address[]"
        },
        {
          "internalType": "uint256[]",
          "name": "uints",
          "type": "uint256[]"
        },
        {
          "internalType": "bytes[]",
          "name": "bytess",
          "type": "bytes[]"
        }
      ],
      "name": "createERC20",
      "outputs": [
        {
          "internalType": "address",
          "name": "",
          "type": "address"
        }
      ],
      "stateMutability": "nonpayable",
      "type": "function"
    },
    {
      "inputs": [
        {
          "internalType": "uint256",
          "name": "_operation",
          "type": "uint256"
        },
        {
          "internalType": "address",
          "name": "_to",
          "type": "address"
        },
        {
          "internalType": "uint256",
          "name": "_value",
          "type": "uint256"
        },
        {
          "internalType": "bytes",
          "name": "_data",
          "type": "bytes"
        }
      ],
      "name": "executeCall",
      "outputs": [],
      "stateMutability": "payable",
      "type": "function"
    },
    {
      "inputs": [
        {
          "internalType": "uint256",
          "name": "tokenId",
          "type": "uint256"
        }
      ],
      "name": "getApproved",
      "outputs": [
        {
          "internalType": "address",
          "name": "",
          "type": "address"
        }
      ],
      "stateMutability": "view",
      "type": "function"
    },
    {
      "inputs": [
        {
          "internalType": "bytes32",
          "name": "_key",
          "type": "bytes32"
        }
      ],
      "name": "getData",
      "outputs": [
        {
          "internalType": "bytes",
          "name": "_value",
          "type": "bytes"
        }
      ],
      "stateMutability": "view",
      "type": "function"
    },
    {
      "inputs": [],
      "name": "getId",
      "outputs": [
        {
          "internalType": "uint8",
          "name": "",
          "type": "uint8"
        }
      ],
      "stateMutability": "pure",
      "type": "function"
    },
    {
      "inputs": [],
      "name": "getMetaData",
      "outputs": [
        {
          "internalType": "string",
          "name": "",
          "type": "string"
        },
        {
          "internalType": "string",
          "name": "",
          "type": "string"
        },
        {
          "internalType": "uint8",
          "name": "",
          "type": "uint8"
        },
        {
          "internalType": "bool",
          "name": "",
          "type": "bool"
        }
      ],
      "stateMutability": "view",
      "type": "function"
    },
    {
      "inputs": [
        {
          "internalType": "address",
          "name": "user",
          "type": "address"
        }
      ],
      "name": "getPermissions",
      "outputs": [
        {
          "components": [
            {
              "internalType": "bool",
              "name": "manager",
              "type": "bool"
            },
            {
              "internalType": "bool",
              "name": "deployERC20",
              "type": "bool"
            },
            {
              "internalType": "bool",
              "name": "updateMetadata",
              "type": "bool"
            },
            {
              "internalType": "bool",
              "name": "store",
              "type": "bool"
            }
          ],
          "internalType": "struct ERC721RolesAddress.Roles",
          "name": "",
          "type": "tuple"
        }
      ],
      "stateMutability": "view",
      "type": "function"
    },
    {
      "inputs": [],
      "name": "getTokensList",
      "outputs": [
        {
          "internalType": "address[]",
          "name": "",
          "type": "address[]"
        }
      ],
      "stateMutability": "view",
      "type": "function"
    },
    {
      "inputs": [],
      "name": "hasMetaData",
      "outputs": [
        {
          "internalType": "bool",
          "name": "",
          "type": "bool"
        }
      ],
      "stateMutability": "view",
      "type": "function"
    },
    {
      "inputs": [
        {
          "internalType": "address",
          "name": "owner",
          "type": "address"
        },
        {
          "internalType": "string",
          "name": "name_",
          "type": "string"
        },
        {
          "internalType": "string",
          "name": "symbol_",
          "type": "string"
        },
        {
          "internalType": "address",
          "name": "tokenFactory",
          "type": "address"
        },
        {
          "internalType": "address",
          "name": "additionalERC20Deployer",
          "type": "address"
        },
        {
          "internalType": "address",
          "name": "additionalMetaDataUpdater",
          "type": "address"
        },
        {
          "internalType": "string",
          "name": "tokenURI",
          "type": "string"
        }
      ],
      "name": "initialize",
      "outputs": [
        {
          "internalType": "bool",
          "name": "",
          "type": "bool"
        }
      ],
      "stateMutability": "nonpayable",
      "type": "function"
    },
    {
      "inputs": [
        {
          "internalType": "address",
          "name": "owner",
          "type": "address"
        },
        {
          "internalType": "address",
          "name": "operator",
          "type": "address"
        }
      ],
      "name": "isApprovedForAll",
      "outputs": [
        {
          "internalType": "bool",
          "name": "",
          "type": "bool"
        }
      ],
      "stateMutability": "view",
      "type": "function"
    },
    {
      "inputs": [
        {
          "internalType": "address",
          "name": "datatoken",
          "type": "address"
        }
      ],
      "name": "isDeployed",
      "outputs": [
        {
          "internalType": "bool",
          "name": "",
          "type": "bool"
        }
      ],
      "stateMutability": "view",
      "type": "function"
    },
    {
      "inputs": [
        {
          "internalType": "address",
          "name": "account",
          "type": "address"
        }
      ],
      "name": "isERC20Deployer",
      "outputs": [
        {
          "internalType": "bool",
          "name": "",
          "type": "bool"
        }
      ],
      "stateMutability": "view",
      "type": "function"
    },
    {
      "inputs": [],
      "name": "isInitialized",
      "outputs": [
        {
          "internalType": "bool",
          "name": "",
          "type": "bool"
        }
      ],
      "stateMutability": "view",
      "type": "function"
    },
    {
      "inputs": [],
      "name": "metaDataDecryptorAddress",
      "outputs": [
        {
          "internalType": "string",
          "name": "",
          "type": "string"
        }
      ],
      "stateMutability": "view",
      "type": "function"
    },
    {
      "inputs": [],
      "name": "metaDataDecryptorUrl",
      "outputs": [
        {
          "internalType": "string",
          "name": "",
          "type": "string"
        }
      ],
      "stateMutability": "view",
      "type": "function"
    },
    {
      "inputs": [],
      "name": "metaDataState",
      "outputs": [
        {
          "internalType": "uint8",
          "name": "",
          "type": "uint8"
        }
      ],
      "stateMutability": "view",
      "type": "function"
    },
    {
      "inputs": [],
      "name": "name",
      "outputs": [
        {
          "internalType": "string",
          "name": "",
          "type": "string"
        }
      ],
      "stateMutability": "view",
      "type": "function"
    },
    {
      "inputs": [
        {
          "internalType": "uint256",
          "name": "tokenId",
          "type": "uint256"
        }
      ],
      "name": "ownerOf",
      "outputs": [
        {
          "internalType": "address",
          "name": "",
          "type": "address"
        }
      ],
      "stateMutability": "view",
      "type": "function"
    },
    {
      "inputs": [
        {
          "internalType": "address",
          "name": "_allowedAddress",
          "type": "address"
        }
      ],
      "name": "removeFrom725StoreList",
      "outputs": [],
      "stateMutability": "nonpayable",
      "type": "function"
    },
    {
      "inputs": [
        {
          "internalType": "address",
          "name": "_allowedAddress",
          "type": "address"
        }
      ],
      "name": "removeFromCreateERC20List",
      "outputs": [],
      "stateMutability": "nonpayable",
      "type": "function"
    },
    {
      "inputs": [
        {
          "internalType": "address",
          "name": "_allowedAddress",
          "type": "address"
        }
      ],
      "name": "removeFromMetadataList",
      "outputs": [],
      "stateMutability": "nonpayable",
      "type": "function"
    },
    {
      "inputs": [
        {
          "internalType": "address",
          "name": "_managerAddress",
          "type": "address"
        }
      ],
      "name": "removeManager",
      "outputs": [],
      "stateMutability": "nonpayable",
      "type": "function"
    },
    {
      "inputs": [
        {
          "internalType": "address",
          "name": "from",
          "type": "address"
        },
        {
          "internalType": "address",
          "name": "to",
          "type": "address"
        },
        {
          "internalType": "uint256",
          "name": "tokenId",
          "type": "uint256"
        }
      ],
      "name": "safeTransferFrom",
      "outputs": [],
      "stateMutability": "nonpayable",
      "type": "function"
    },
    {
      "inputs": [
        {
          "internalType": "address",
          "name": "operator",
          "type": "address"
        },
        {
          "internalType": "bool",
          "name": "approved",
          "type": "bool"
        }
      ],
      "name": "setApprovalForAll",
      "outputs": [],
      "stateMutability": "nonpayable",
      "type": "function"
    },
    {
      "inputs": [
        {
          "internalType": "string",
          "name": "_baseURI",
          "type": "string"
        }
      ],
      "name": "setBaseURI",
      "outputs": [],
      "stateMutability": "nonpayable",
      "type": "function"
    },
    {
      "inputs": [
        {
          "internalType": "bytes32",
          "name": "_key",
          "type": "bytes32"
        },
        {
          "internalType": "bytes",
          "name": "_value",
          "type": "bytes"
        }
      ],
      "name": "setDataERC20",
      "outputs": [],
      "stateMutability": "nonpayable",
      "type": "function"
    },
    {
      "inputs": [
        {
          "internalType": "uint8",
          "name": "_metaDataState",
          "type": "uint8"
        },
        {
          "internalType": "string",
          "name": "_metaDataDecryptorUrl",
          "type": "string"
        },
        {
          "internalType": "string",
          "name": "_metaDataDecryptorAddress",
          "type": "string"
        },
        {
          "internalType": "bytes",
          "name": "flags",
          "type": "bytes"
        },
        {
          "internalType": "bytes",
          "name": "data",
          "type": "bytes"
        },
        {
          "internalType": "bytes32",
          "name": "_metaDataHash",
          "type": "bytes32"
        },
        {
          "components": [
            {
              "internalType": "address",
              "name": "validatorAddress",
              "type": "address"
            },
            {
              "internalType": "uint8",
              "name": "v",
              "type": "uint8"
            },
            {
              "internalType": "bytes32",
              "name": "r",
              "type": "bytes32"
            },
            {
              "internalType": "bytes32",
              "name": "s",
              "type": "bytes32"
            }
          ],
          "internalType": "struct ERC721Template.metaDataProof[]",
          "name": "_metadataProofs",
          "type": "tuple[]"
        }
      ],
      "name": "setMetaData",
      "outputs": [],
      "stateMutability": "nonpayable",
      "type": "function"
    },
    {
      "inputs": [
        {
          "components": [
            {
              "internalType": "uint8",
              "name": "metaDataState",
              "type": "uint8"
            },
            {
              "internalType": "string",
              "name": "metaDataDecryptorUrl",
              "type": "string"
            },
            {
              "internalType": "string",
              "name": "metaDataDecryptorAddress",
              "type": "string"
            },
            {
              "internalType": "bytes",
              "name": "flags",
              "type": "bytes"
            },
            {
              "internalType": "bytes",
              "name": "data",
              "type": "bytes"
            },
            {
              "internalType": "bytes32",
              "name": "metaDataHash",
              "type": "bytes32"
            },
            {
              "internalType": "uint256",
              "name": "tokenId",
              "type": "uint256"
            },
            {
              "internalType": "string",
              "name": "tokenURI",
              "type": "string"
            },
            {
              "components": [
                {
                  "internalType": "address",
                  "name": "validatorAddress",
                  "type": "address"
                },
                {
                  "internalType": "uint8",
                  "name": "v",
                  "type": "uint8"
                },
                {
                  "internalType": "bytes32",
                  "name": "r",
                  "type": "bytes32"
                },
                {
                  "internalType": "bytes32",
                  "name": "s",
                  "type": "bytes32"
                }
              ],
              "internalType": "struct ERC721Template.metaDataProof[]",
              "name": "metadataProofs",
              "type": "tuple[]"
            }
          ],
          "internalType": "struct ERC721Template.metaDataAndTokenURI",
          "name": "_metaDataAndTokenURI",
          "type": "tuple"
        }
      ],
      "name": "setMetaDataAndTokenURI",
      "outputs": [],
      "stateMutability": "nonpayable",
      "type": "function"
    },
    {
      "inputs": [
        {
          "internalType": "uint8",
          "name": "_metaDataState",
          "type": "uint8"
        }
      ],
      "name": "setMetaDataState",
      "outputs": [],
      "stateMutability": "nonpayable",
      "type": "function"
    },
    {
      "inputs": [
        {
          "internalType": "bytes32",
          "name": "_key",
          "type": "bytes32"
        },
        {
          "internalType": "bytes",
          "name": "_value",
          "type": "bytes"
        }
      ],
      "name": "setNewData",
      "outputs": [],
      "stateMutability": "nonpayable",
      "type": "function"
    },
    {
      "inputs": [
        {
          "internalType": "uint256",
          "name": "tokenId",
          "type": "uint256"
        },
        {
          "internalType": "string",
          "name": "tokenURI",
          "type": "string"
        }
      ],
      "name": "setTokenURI",
      "outputs": [],
      "stateMutability": "nonpayable",
      "type": "function"
    },
    {
      "inputs": [],
      "name": "ssContract",
      "outputs": [
        {
          "internalType": "address",
          "name": "",
          "type": "address"
        }
      ],
      "stateMutability": "view",
      "type": "function"
    },
    {
      "inputs": [
        {
          "internalType": "bytes4",
          "name": "interfaceId",
          "type": "bytes4"
        }
      ],
      "name": "supportsInterface",
      "outputs": [
        {
          "internalType": "bool",
          "name": "",
          "type": "bool"
        }
      ],
      "stateMutability": "view",
      "type": "function"
    },
    {
      "inputs": [],
      "name": "symbol",
      "outputs": [
        {
          "internalType": "string",
          "name": "",
          "type": "string"
        }
      ],
      "stateMutability": "view",
      "type": "function"
    },
    {
      "inputs": [
        {
          "internalType": "uint256",
          "name": "tokenId",
          "type": "uint256"
        }
      ],
      "name": "tokenURI",
      "outputs": [
        {
          "internalType": "string",
          "name": "",
          "type": "string"
        }
      ],
      "stateMutability": "view",
      "type": "function"
    },
    {
      "inputs": [
        {
          "internalType": "address",
          "name": "from",
          "type": "address"
        },
        {
          "internalType": "address",
          "name": "to",
          "type": "address"
        },
        {
          "internalType": "uint256",
          "name": "tokenId",
          "type": "uint256"
        }
      ],
      "name": "transferFrom",
      "outputs": [],
      "stateMutability": "nonpayable",
      "type": "function"
    },
    {
      "inputs": [],
      "name": "withdrawETH",
      "outputs": [],
      "stateMutability": "payable",
      "type": "function"
    }
  ],
  "bytecode": "0x60806040523480156200001157600080fd5b50604080518082018252600881526754656d706c61746560c01b60208083019182528351808501909452600e84526d15195b5c1b185d1954de5b589bdb60921b908401528151919291620000689160009162000136565b5080516200007e90600190602084019062000136565b50620000959150632260147f60e11b9050620000b2565b620000a7632bd57b7360e01b620000b2565b6001600c5562000219565b6001600160e01b03198082161415620001115760405162461bcd60e51b815260206004820152601c60248201527f4552433136353a20696e76616c696420696e7465726661636520696400000000604482015260640160405180910390fd5b6001600160e01b0319166000908152600a60205260409020805460ff19166001179055565b8280546200014490620001dc565b90600052602060002090601f016020900481019282620001685760008555620001b3565b82601f106200018357805160ff1916838001178555620001b3565b82800160010185558215620001b3579182015b82811115620001b357825182559160200191906001019062000196565b50620001c1929150620001c5565b5090565b5b80821115620001c15760008155600101620001c6565b600181811c90821680620001f157607f821691505b602082108114156200021357634e487b7160e01b600052602260045260246000fd5b50919050565b61465e80620002296000396000f3fe6080604052600436106102685760003560e01c806354f6127f11610143578063a22cb465116100bb578063d2786ba411610077578063d2786ba414610858578063d8053ad31461087d578063e086e5ec1461089c578063e38d7cad146108a4578063e985e9c5146108c4578063fe1ec8801461090d57005b8063a22cb465146107ab578063ac18de43146107cb578063b0c41ead146107eb578063c55f81261461080b578063c87b56dd1461081e578063ccd7d4761461083e57005b806370a082311161010a57806370a08231146106bc57806382cf129d146106ea57806390184b02146106ff578063947fcb831461073857806395d89b411461075857806396fb3eaf1461076d57005b806354f6127f1461061a57806355f804b31461063a5780635d1ca6311461065a5780636352211e1461067c57806367530a611461069c57005b80631aa3adf9116101e1578063431053ac1161019d578063431053ac14610563578063466bca0214610583578063467c97f5146105a55780634a63740a146105c55780634b2ee5e9146105e55780634f189cb21461060557005b80631aa3adf9146104ab57806323b872dd146104cb578063273e06b3146104eb5780632d06177a1461050b578063392e53cd1461052b57806342842e0e1461054357005b80630e57c7e8116102305780630e57c7e81461032e57806310c558bf1461034e578063160a79251461036e578063162094c41461044b57806319a18a851461046b57806319c186e51461048b57005b806301ffc9a71461026a57806306fdde031461029f578063081812fc146102c1578063095ea7b3146102f95780630e05662e14610319575b005b34801561027657600080fd5b5061028a6102853660046136cd565b61092d565b60405190151581526020015b60405180910390f35b3480156102ab57600080fd5b506102b461096d565b6040516102969190613749565b3480156102cd57600080fd5b506102e16102dc36600461375c565b6109ff565b6040516001600160a01b039091168152602001610296565b34801561030557600080fd5b5061026861031436600461379a565b610a99565b34801561032557600080fd5b506102b4610baf565b34801561033a57600080fd5b5061026861034936600461380e565b610c3d565b34801561035a57600080fd5b50610268610369366004613859565b610cb2565b34801561037a57600080fd5b50610410610389366004613859565b604080516080810182526000808252602082018190529181018290526060810191909152506001600160a01b03166000908152600860209081526040918290208251608081018452905460ff808216151583526101008204811615159383019390935262010000810483161515938201939093526301000000909204161515606082015290565b604051610296919081511515815260208083015115159082015260408083015115159082015260609182015115159181019190915260800190565b34801561045757600080fd5b5061026861046636600461392b565b610d85565b34801561047757600080fd5b50610268610486366004613971565b610e13565b34801561049757600080fd5b506102686104a6366004613859565b610f47565b3480156104b757600080fd5b506102686104c6366004613ab8565b611010565b3480156104d757600080fd5b506102686104e6366004613bbf565b611065565b3480156104f757600080fd5b50610268610506366004613859565b611137565b34801561051757600080fd5b50610268610526366004613859565b61126d565b34801561053757600080fd5b50600f5460ff1661028a565b34801561054f57600080fd5b5061026861055e366004613bbf565b6112b0565b34801561056f57600080fd5b5061026861057e366004613859565b611356565b34801561058f57600080fd5b5061059861148b565b6040516102969190613c00565b3480156105b157600080fd5b506102686105c0366004613c4d565b6114ec565b3480156105d157600080fd5b506102686105e0366004613859565b611577565b3480156105f157600080fd5b506014546102e1906001600160a01b031681565b34801561061157600080fd5b5061026861163c565b34801561062657600080fd5b506102b461063536600461375c565b611680565b34801561064657600080fd5b50610268610655366004613c68565b611722565b34801561066657600080fd5b5060015b60405160ff9091168152602001610296565b34801561068857600080fd5b506102e161069736600461375c565b611773565b3480156106a857600080fd5b506102686106b736600461380e565b6117ea565b3480156106c857600080fd5b506106dc6106d7366004613859565b61185a565b604051908152602001610296565b3480156106f657600080fd5b506102b46118e1565b34801561070b57600080fd5b5061028a61071a366004613859565b6001600160a01b031660009081526015602052604090205460ff1690565b34801561074457600080fd5b5061028a610753366004613c9c565b6118ee565b34801561076457600080fd5b506102b4611a18565b34801561077957600080fd5b5061028a610788366004613859565b6001600160a01b0316600090815260086020526040902054610100900460ff1690565b3480156107b757600080fd5b506102686107c6366004613d77565b611a27565b3480156107d757600080fd5b506102686107e6366004613859565b611ae5565b3480156107f757600080fd5b506102e161080636600461375c565b611b28565b610268610819366004613db5565b611b52565b34801561082a57600080fd5b506102b461083936600461375c565b611b9a565b34801561084a57600080fd5b5060125461066a9060ff1681565b34801561086457600080fd5b5061086d611cf8565b6040516102969493929190613e1e565b34801561088957600080fd5b50600f5461028a90610100900460ff1681565b610268611e48565b3480156108b057600080fd5b506102e16108bf366004613ea3565b611e8a565b3480156108d057600080fd5b5061028a6108df366004613f72565b6001600160a01b03918216600090815260066020908152604080832093909416825291909152205460ff1690565b34801561091957600080fd5b50610268610928366004613859565b61205a565b60006301ffc9a760e01b6001600160e01b03198316148061096757506001600160e01b031982166000908152600a602052604090205460ff165b92915050565b6060600d805461097c90613fa0565b80601f01602080910402602001604051908101604052809291908181526020018280546109a890613fa0565b80156109f55780601f106109ca576101008083540402835291602001916109f5565b820191906000526020600020905b8154815290600101906020018083116109d857829003601f168201915b5050505050905090565b6000818152600360205260408120546001600160a01b0316610a7d5760405162461bcd60e51b815260206004820152602c60248201527f4552433732313a20617070726f76656420717565727920666f72206e6f6e657860448201526b34b9ba32b73a103a37b5b2b760a11b60648201526084015b60405180910390fd5b506000908152600560205260409020546001600160a01b031690565b6000610aa482611773565b9050806001600160a01b0316836001600160a01b03161415610b125760405162461bcd60e51b815260206004820152602160248201527f4552433732313a20617070726f76616c20746f2063757272656e74206f776e656044820152603960f91b6064820152608401610a74565b336001600160a01b0382161480610b2e5750610b2e81336108df565b610ba05760405162461bcd60e51b815260206004820152603860248201527f4552433732313a20617070726f76652063616c6c6572206973206e6f74206f7760448201527f6e6572206e6f7220617070726f76656420666f7220616c6c00000000000000006064820152608401610a74565b610baa838361218a565b505050565b60118054610bbc90613fa0565b80601f0160208091040260200160405190810160405280929190818152602001828054610be890613fa0565b8015610c355780601f10610c0a57610100808354040283529160200191610c35565b820191906000526020600020905b815481529060010190602001808311610c1857829003601f168201915b505050505081565b3360009081526015602052604090205460ff16610ca75760405162461bcd60e51b815260206004820152602260248201527f45524337323154656d706c6174653a204e4f5420455243323020436f6e74726160448201526118dd60f21b6064820152608401610a74565b610baa8383836121f8565b3360009081526008602052604090205460ff161515600114610ce65760405162461bcd60e51b8152600401610a7490613fdb565b6001600160a01b038116600081815260086020526040808220805462ff000019166201000017815560098054600181018255935260008051602061460983398151915290920180546001600160a01b0319168417905551909133917fc2a42571a74ce1442c8c44d375ba9442e7d55d94b37afeace261c83c62128fa490610d799042904390918252602082015260400190565b60405180910390a35050565b610d8e82611773565b6001600160a01b0316336001600160a01b031614610dbe5760405162461bcd60e51b8152600401610a7490614012565b610dc88282612251565b336001600160a01b03167f6de6cd3982065cbd31e789e3109106f4d76d1c8a46e85262045cf947fb3fd4ed82844243604051610e079493929190614049565b60405180910390a25050565b3360009081526008602052604090205462010000900460ff16610e485760405162461bcd60e51b8152600401610a7490614078565b610ef5610e586020830183613c4d565b610e6560208401846140b9565b610e7260408601866140b9565b610e7f60608801886140b9565b610e8c60808a018a6140b9565b60a08b0135610e9f6101008d018d6140ff565b808060200260200160405190810160405280939291908181526020016000905b82821015610eeb57610edc60808302860136819003810190614148565b81526020019060010190610ebf565b50505050506122eb565b610f4460c0820135610f0a60e08401846140b9565b8080601f016020809104026020016040519081016040528093929190818152602001838380828437600092019190915250610d8592505050565b50565b3360009081526008602052604090205460ff161515600114610f7b5760405162461bcd60e51b8152600401610a7490613fdb565b6001600160a01b038116600081815260086020526040808220805463ff0000001916630100000017815560098054600181018255935260008051602061460983398151915290920180546001600160a01b0319168417905551909133917feb09276310ed110a7e565d64966d0ff68a47112d2dd5eeb6cbd7451836ce35ee90610d799042904390918252602082015260400190565b3360009081526008602052604090205462010000900460ff166110455760405162461bcd60e51b8152600401610a7490614078565b6110588b8b8b8b8b8b8b8b8b8b8b6122eb565b5050505050505050505050565b806001146110855760405162461bcd60e51b8152600401610a7490614164565b6110ef6110ea60138054806020026020016040519081016040528092919081815260200182805480156110e157602002820191906000526020600020905b81546001600160a01b031681526001909101906020018083116110c3575b50505050505190565b6126f4565b6110f7612785565b611102838383612836565b61110b82612877565b506001600160a01b03166000908152600860205260409020805463ffffff001916630101010017905550565b3360009081526008602052604090205460ff161515600114806111885750336001600160a01b0382161480156111885750336000908152600860205260409020546301000000900460ff1615156001145b156111f0576001600160a01b03811660008181526008602052604090819020805463ff000000191681559051909133917fc929b18b08ffea86a1f95e29384dbe8968f2fcbd70cfd735df3aba1cc548cbf390610d799042904390918252602082015260400190565b60405162461bcd60e51b815260206004820152604660248201527f455243373231526f6c6573416464726573733a204e6f7420656e6f756768207060448201527f65726d697373696f6e7320746f2072656d6f76652066726f6d2037323553746f6064820152651c99531a5cdd60d21b608482015260a401610a74565b6112776001611773565b6001600160a01b0316336001600160a01b0316146112a75760405162461bcd60e51b8152600401610a7490614012565b610f4481612877565b806001146112d05760405162461bcd60e51b8152600401610a7490614164565b6113336110ea60138054806020026020016040519081016040528092919081815260200182805480156110e1576020028201919060005260206000209081546001600160a01b031681526001909101906020018083116110c35750505050505190565b61133b612785565b61110283838360405180602001604052806000815250612908565b3360009081526008602052604090205460ff161515600114806113a65750336001600160a01b0382161480156113a657503360009081526008602052604090205462010000900460ff1615156001145b1561140d576001600160a01b03811660008181526008602052604090819020805462ff0000191681559051909133917f9b41e1311fa819e825bc77fa2568492112e15ea92d173f3f8ee1c8ec3c1c562b90610d799042904390918252602082015260400190565b60405162461bcd60e51b815260206004820152604760248201527f455243373231526f6c6573416464726573733a204e6f7420656e6f756768207060448201527f65726d697373696f6e7320746f2072656d6f76652066726f6d206d65746164616064820152661d18481b1a5cdd60ca1b608482015260a401610a74565b606060138054806020026020016040519081016040528092919081815260200182805480156109f557602002820191906000526020600020905b81546001600160a01b031681526001909101906020018083116114c5575050505050905090565b3360009081526008602052604090205462010000900460ff166115215760405162461bcd60e51b8152600401610a7490614078565b6012805460ff191660ff831690811790915560408051918252426020830152439082015233907fa8336411cc72db0e5bdc4dff989eeb35879bafaceffb59b54b37645c3395adb99060600160405180910390a250565b3360009081526008602052604090205460ff1615156001146115ab5760405162461bcd60e51b8152600401610a7490613fdb565b6001600160a01b038116600081815260086020526040808220805461ff00191661010017815560098054600181018255935260008051602061460983398151915290920180546001600160a01b0319168417905551909133917f0572d56343be407a66810f01449212e8545e14ff5049c479d34be944cdfd0d4f90610d799042904390918252602082015260400190565b6116466001611773565b6001600160a01b0316336001600160a01b0316146116765760405162461bcd60e51b8152600401610a7490614012565b61167e612785565b565b6000818152600b6020526040902080546060919061169d90613fa0565b80601f01602080910402602001604051908101604052809291908181526020018280546116c990613fa0565b80156117165780601f106116eb57610100808354040283529160200191611716565b820191906000526020600020905b8154815290600101906020018083116116f957829003601f168201915b50505050509050919050565b61172c6001611773565b6001600160a01b0316336001600160a01b03161461175c5760405162461bcd60e51b8152600401610a7490614012565b805161176f906002906020840190613590565b5050565b6000818152600360205260408120546001600160a01b0316806109675760405162461bcd60e51b815260206004820152602960248201527f4552433732313a206f776e657220717565727920666f72206e6f6e657869737460448201526832b73a103a37b5b2b760b91b6064820152608401610a74565b336000908152600860205260409020546301000000900460ff16610ca75760405162461bcd60e51b815260206004820152602160248201527f45524337323154656d706c6174653a204e4f542053544f5245205550444154456044820152602960f91b6064820152608401610a74565b60006001600160a01b0382166118c55760405162461bcd60e51b815260206004820152602a60248201527f4552433732313a2062616c616e636520717565727920666f7220746865207a65604482015269726f206164647265737360b01b6064820152608401610a74565b506001600160a01b031660009081526004602052604090205490565b60108054610bbc90613fa0565b600f5460009060ff161561195f5760405162461bcd60e51b815260206004820152603260248201527f45524337323154656d706c6174653a20746f6b656e20696e7374616e636520616044820152711b1c9958591e481a5b9a5d1a585b1a5e995960721b6064820152608401610a74565b6001600160a01b0384161561197757611977846115ab565b6001600160a01b0383161561198f5761198f83610ce6565b6000611a098b8b8b8080601f01602080910402602001604051908101604052809392919081815260200183838082843760009201919091525050604080516020601f8f018190048102820181019092528d815292508d91508c90819084018382808284376000920191909152508c92508991506129409050565b9b9a5050505050505050505050565b6060600e805461097c90613fa0565b6001600160a01b038216331415611a805760405162461bcd60e51b815260206004820152601960248201527f4552433732313a20617070726f766520746f2063616c6c6572000000000000006044820152606401610a74565b3360008181526006602090815260408083206001600160a01b03871680855290835292819020805460ff191686151590811790915590519081529192917f17307eab39ab6107e8899845ad3d59bd9653f200f220920489ca2b5937696c319101610d79565b611aef6001611773565b6001600160a01b0316336001600160a01b031614611b1f5760405162461bcd60e51b8152600401610a7490614012565b610f4481612a80565b60098181548110611b3857600080fd5b6000918252602090912001546001600160a01b0316905081565b3360009081526008602052604090205460ff161515600114611b865760405162461bcd60e51b8152600401610a7490613fdb565b611b938585858585612ae0565b5050505050565b6000818152600360205260409020546060906001600160a01b0316611c195760405162461bcd60e51b815260206004820152602f60248201527f4552433732314d657461646174613a2055524920717565727920666f72206e6f60448201526e3732bc34b9ba32b73a103a37b5b2b760891b6064820152608401610a74565b60008281526007602052604081208054611c3290613fa0565b80601f0160208091040260200160405190810160405280929190818152602001828054611c5e90613fa0565b8015611cab5780601f10611c8057610100808354040283529160200191611cab565b820191906000526020600020905b815481529060010190602001808311611c8e57829003601f168201915b505050505090506000611cbc612d09565b825190915015611cf1578082604051602001611cd99291906141b0565b60405160208183030381529060405292505050919050565b5092915050565b60608060008060106011601260009054906101000a900460ff16600f60019054906101000a900460ff16838054611d2e90613fa0565b80601f0160208091040260200160405190810160405280929190818152602001828054611d5a90613fa0565b8015611da75780601f10611d7c57610100808354040283529160200191611da7565b820191906000526020600020905b815481529060010190602001808311611d8a57829003601f168201915b50505050509350828054611dba90613fa0565b80601f0160208091040260200160405190810160405280929190818152602001828054611de690613fa0565b8015611e335780601f10611e0857610100808354040283529160200191611e33565b820191906000526020600020905b815481529060010190602001808311611e1657829003601f168201915b50505050509250935093509350935090919293565b611e526001611773565b6001600160a01b03166108fc479081150290604051600060405180830381858888f19350505050158015610f44573d6000803e3d6000fd5b60006002600c541415611edf5760405162461bcd60e51b815260206004820152601f60248201527f5265656e7472616e637947756172643a207265656e7472616e742063616c6c006044820152606401610a74565b6002600c5533600090815260086020526040902054610100900460ff16611f575760405162461bcd60e51b815260206004820152602660248201527f45524337323154656d706c6174653a204e4f542045524332304445504c4f5945604482015265525f524f4c4560d01b6064820152608401610a74565b601254604051630557fcfb60e41b815260009161010090046001600160a01b03169063557fcfb090611f9d908e908e908e908e908e908e908e908e908e90600401614329565b6020604051808303816000875af1158015611fbc573d6000803e3d6000fd5b505050506040513d601f19601f82011682018060405250810190611fe091906143da565b6001600160a01b0381166000818152601560205260408120805460ff191660019081179091556013805491820181559091527f66de8ffda797e3de9c05e8fc57b3bf0ec28a930d40b0d285d93c06501cf6a0900180546001600160a01b03191690911790559150506001600c559998505050505050505050565b3360009081526008602052604090205460ff161515600114806120aa5750336001600160a01b0382161480156120aa57503360009081526008602052604090205460ff6101009091041615156001145b15612110576001600160a01b03811660008181526008602052604090819020805461ff00191681559051909133917f59bd33f4c27cc16a2d74450e1fa43d7896020be9aecea4bee009db9294de899790610d799042904390918252602082015260400190565b60405162461bcd60e51b815260206004820152604360248201527f455243373231526f6c6573416464726573733a204e6f7420656e6f756768207060448201527f65726d697373696f6e7320746f2072656d6f76652066726f6d2045524332304c6064820152621a5cdd60ea1b608482015260a401610a74565b600081815260056020526040902080546001600160a01b0319166001600160a01b03841690811790915581906121bf82611773565b6001600160a01b03167f8c5be1e5ebec7d5bd14f71427d1e84f3dd0314c0f7b2291e5b200ac8c7c3b92560405160405180910390a45050565b6000838152600b60205260409020612211908383613614565b50827fece574603820d07bc9b91f2a932baadf4628aabcb8afba49776529c14a6104b283836040516122449291906143f7565b60405180910390a2505050565b6000828152600360205260409020546001600160a01b03166122cc5760405162461bcd60e51b815260206004820152602e60248201527f45524337323155524953746f726167653a2055524920736574206f66206e6f6e60448201526d32bc34b9ba32b73a103a37b5b2b760911b6064820152608401610a74565b60008281526007602090815260409091208251610baa92840190613590565b6012805460ff191660ff8d1617905561230660108b8b613614565b5061231360118989613614565b50600f54610100900460ff1661238a57336001600160a01b03167f5463569dcc320958360074a9ab27e809e8a6942c394fb151d139b5f7b4ecb1bd8c8c8c8a8a8a8a8a424360405161236e9a9998979695949392919061440b565b60405180910390a2600f805461ff0019166101001790556123dc565b60125460405133917fe5c4cf86b1815151e6f453e1e133d4454ae3b0b07145db39f2e0178685deac84916123d39160ff16908e908e908c908c908c908c908c904290439061440b565b60405180910390a25b6032815111156124205760405162461bcd60e51b815260206004820152600f60248201526e546f6f204d616e792050726f6f667360881b6044820152606401610a74565b60408051808201909152601c81527f19457468657265756d205369676e6564204d6573736167653a0a333200000000602082015260005b82518110156126e55760006001600160a01b031683828151811061247d5761247d614473565b6020026020010151600001516001600160a01b0316146125ff57600082856040516020016124ac929190614489565b60405160208183030381529060405280519060200120905060006001828685815181106124db576124db614473565b6020026020010151602001518786815181106124f9576124f9614473565b60200260200101516040015188878151811061251757612517614473565b60200260200101516060015160405160008152602001604052604051612559949392919093845260ff9290921660208401526040830152606082015260800190565b6020604051602081039080840390855afa15801561257b573d6000803e3d6000fd5b50505060206040510351905084838151811061259957612599614473565b6020026020010151600001516001600160a01b0316816001600160a01b0316146125fc5760405162461bcd60e51b815260206004820152601460248201527324b73b30b634b210383937b7b31039b4b3b732b960611b6044820152606401610a74565b50505b82818151811061261157612611614473565b6020026020010151600001516001600160a01b03167f2819d8badf5cff2c9220b8ee99dacc14d67058e343d7f0c2c444d198507fe9418585848151811061265a5761265a614473565b60200260200101516020015186858151811061267857612678614473565b60200260200101516040015187868151811061269657612696614473565b6020026020010151606001516040516126cb949392919093845260ff9290921660208401526040830152606082015260800190565b60405180910390a2806126dd816144c1565b915050612457565b50505050505050505050505050565b60005b8181101561176f576013818154811061271257612712614473565b6000918252602082200154604080516382c03da560e01b815290516001600160a01b03909216926382c03da59260048084019382900301818387803b15801561275a57600080fd5b505af115801561276e573d6000803e3d6000fd5b50505050808061277d906144c1565b9150506126f7565b60005b6009548110156127ed57600060086000600984815481106127ab576127ab614473565b60009182526020808320909101546001600160a01b031683528201929092526040019020805463ffffffff1916905550806127e5816144c1565b915050612788565b506127fa60096000613688565b6040805142815243602082015233917f712bc71db81927a76b8bf1ea346247bb0ad58f18e4e5c1bd4aa0ec6573e02a2b910160405180910390a2565b6128403382612d18565b61285c5760405162461bcd60e51b8152600401610a74906144dc565b610baa83838360405180602001604052806000815250612908565b6001600160a01b038116600081815260086020526040808220805460ff19166001908117825560098054918201815590935260008051602061460983398151915290920180546001600160a01b0319168417905551909133917faf8fc8b6726138c96881c895390a08e9d91a94c288f06281e7f9821c49c7155b90610d799042904390918252602082015260400190565b6129123383612d18565b61292e5760405162461bcd60e51b8152600401610a74906144dc565b61293a84848484612e0f565b50505050565b60006001600160a01b0386166129af5760405162461bcd60e51b815260206004820152602e60248201527f45524337323154656d706c6174653a3a20496e76616c6964206d696e7465722c60448201526d20207a65726f206164647265737360901b6064820152608401610a74565b84516129c290600d906020880190613590565b5083516129d690600e906020870190613590565b5060128054610100600160a81b0319166101006001600160a01b03861602179055604080516020810191829052600090819052612a1591600291613590565b50600f805461ffff19166001908117909155612a32908790612e42565b612a3b86612877565b6001600160a01b0386166000908152600860205260409020805463ffffff0019166301010100178155612a6f600184612251565b5050600f5460ff1695945050505050565b6001600160a01b03811660008181526008602052604090819020805460ff191681559051909133917fb572db0e6da4924b771ed1712b980d48b5992b9a1c27aede55fbb3318c48996a90610d799042904390918252602082015260400190565b82846001600160a01b0316867f1f920dbda597d7bf95035464170fa58d0a4b57f13a1c315ace6793b9f63688b88585604051612b1d9291906143f7565b60405180910390a460006109c45a612b35919061452d565b905085612b8557612b7f858585858080601f016020809104026020016040519081016040528093929190818152602001838380828437600092019190915250879250612e5c915050565b50612d01565b6003861415612bce57612b7f8484848080601f016020809104026020016040519081016040528093929190818152602001838380828437600092019190915250612e7492505050565b6002861415612cc2576000612c2584848080601f016020809104026020016040519081016040528093929190818152602001838380828437600092019190915250612c2092506020915087905061452d565b612f10565b90506000612c7485858080601f01602080910402602001604051908101604052809392919081815260200183838082843760009201829052509250612c6f9150602090508861452d565b612f6e565b90506000612c8387848461307b565b6040519091506001600160a01b038216907fcf78cf0d6f3d8371e1075c69c492ab4ec5d8cf23a1a239b6a51a1d00be7ca31290600090a2505050612d01565b60405162461bcd60e51b815260206004820152601460248201527357726f6e67206f7065726174696f6e207479706560601b6044820152606401610a74565b505050505050565b60606002805461097c90613fa0565b6000818152600360205260408120546001600160a01b0316612d915760405162461bcd60e51b815260206004820152602c60248201527f4552433732313a206f70657261746f7220717565727920666f72206e6f6e657860448201526b34b9ba32b73a103a37b5b2b760a11b6064820152608401610a74565b6000612d9c83611773565b9050806001600160a01b0316846001600160a01b03161480612dd75750836001600160a01b0316612dcc846109ff565b6001600160a01b0316145b80612e0757506001600160a01b0380821660009081526006602090815260408083209388168352929052205460ff165b949350505050565b612e1a84848461317d565b612e268484848461331d565b61293a5760405162461bcd60e51b8152600401610a7490614544565b61176f82826040518060200160405280600081525061341b565b6000806000845160208601878987f195945050505050565b600081516020830184f090506001600160a01b038116612ed65760405162461bcd60e51b815260206004820152601960248201527f436f756c64206e6f74206465706c6f7920636f6e7472616374000000000000006044820152606401610a74565b6040516001600160a01b038216907fcf78cf0d6f3d8371e1075c69c492ab4ec5d8cf23a1a239b6a51a1d00be7ca31290600090a292915050565b6000612f1d826020614596565b83511015612f655760405162461bcd60e51b8152602060048201526015602482015274746f427974657333325f6f75744f66426f756e647360581b6044820152606401610a74565b50016020015190565b606081612f7c81601f614596565b1015612fbb5760405162461bcd60e51b815260206004820152600e60248201526d736c6963655f6f766572666c6f7760901b6044820152606401610a74565b612fc58284614596565b845110156130095760405162461bcd60e51b8152602060048201526011602482015270736c6963655f6f75744f66426f756e647360781b6044820152606401610a74565b6060821580156130285760405191506000825260208201604052613072565b6040519150601f8416801560200281840101858101878315602002848b0101015b81831015613061578051835260209283019201613049565b5050858452601f01601f1916604052505b50949350505050565b600080844710156130ce5760405162461bcd60e51b815260206004820152601d60248201527f437265617465323a20696e73756666696369656e742062616c616e63650000006044820152606401610a74565b825161311c5760405162461bcd60e51b815260206004820181905260248201527f437265617465323a2062797465636f6465206c656e677468206973207a65726f6044820152606401610a74565b8383516020850187f590506001600160a01b038116612e075760405162461bcd60e51b815260206004820152601960248201527f437265617465323a204661696c6564206f6e206465706c6f79000000000000006044820152606401610a74565b826001600160a01b031661319082611773565b6001600160a01b0316146131f85760405162461bcd60e51b815260206004820152602960248201527f4552433732313a207472616e73666572206f6620746f6b656e2074686174206960448201526839903737ba1037bbb760b91b6064820152608401610a74565b6001600160a01b03821661325a5760405162461bcd60e51b8152602060048201526024808201527f4552433732313a207472616e7366657220746f20746865207a65726f206164646044820152637265737360e01b6064820152608401610a74565b61326560008261218a565b6001600160a01b038316600090815260046020526040812080546001929061328e90849061452d565b90915550506001600160a01b03821660009081526004602052604081208054600192906132bc908490614596565b909155505060008181526003602052604080822080546001600160a01b0319166001600160a01b0386811691821790925591518493918716917fddf252ad1be2c89b69c2b068fc378daa952ba7f163c4a11628f55a4df523b3ef91a4505050565b60006001600160a01b0384163b1561341057604051630a85bd0160e11b81526001600160a01b0385169063150b7a02906133619033908990889088906004016145ae565b6020604051808303816000875af192505050801561339c575060408051601f3d908101601f19168201909252613399918101906145eb565b60015b6133f6573d8080156133ca576040519150601f19603f3d011682016040523d82523d6000602084013e6133cf565b606091505b5080516133ee5760405162461bcd60e51b8152600401610a7490614544565b805181602001fd5b6001600160e01b031916630a85bd0160e11b149050612e07565b506001949350505050565b613425838361344e565b613432600084848461331d565b610baa5760405162461bcd60e51b8152600401610a7490614544565b6001600160a01b0382166134a45760405162461bcd60e51b815260206004820181905260248201527f4552433732313a206d696e7420746f20746865207a65726f20616464726573736044820152606401610a74565b6000818152600360205260409020546001600160a01b0316156135095760405162461bcd60e51b815260206004820152601c60248201527f4552433732313a20746f6b656e20616c7265616479206d696e746564000000006044820152606401610a74565b6001600160a01b0382166000908152600460205260408120805460019290613532908490614596565b909155505060008181526003602052604080822080546001600160a01b0319166001600160a01b03861690811790915590518392907fddf252ad1be2c89b69c2b068fc378daa952ba7f163c4a11628f55a4df523b3ef908290a45050565b82805461359c90613fa0565b90600052602060002090601f0160209004810192826135be5760008555613604565b82601f106135d757805160ff1916838001178555613604565b82800160010185558215613604579182015b828111156136045782518255916020019190600101906135e9565b506136109291506136a2565b5090565b82805461362090613fa0565b90600052602060002090601f0160209004810192826136425760008555613604565b82601f1061365b5782800160ff19823516178555613604565b82800160010185558215613604579182015b8281111561360457823582559160200191906001019061366d565b5080546000825590600052602060002090810190610f4491905b5b8082111561361057600081556001016136a3565b6001600160e01b031981168114610f4457600080fd5b6000602082840312156136df57600080fd5b81356136ea816136b7565b9392505050565b60005b8381101561370c5781810151838201526020016136f4565b8381111561293a5750506000910152565b600081518084526137358160208601602086016136f1565b601f01601f19169290920160200192915050565b6020815260006136ea602083018461371d565b60006020828403121561376e57600080fd5b5035919050565b6001600160a01b0381168114610f4457600080fd5b803561379581613775565b919050565b600080604083850312156137ad57600080fd5b82356137b881613775565b946020939093013593505050565b60008083601f8401126137d857600080fd5b5081356001600160401b038111156137ef57600080fd5b60208301915083602082850101111561380757600080fd5b9250929050565b60008060006040848603121561382357600080fd5b8335925060208401356001600160401b0381111561384057600080fd5b61384c868287016137c6565b9497909650939450505050565b60006020828403121561386b57600080fd5b81356136ea81613775565b634e487b7160e01b600052604160045260246000fd5b604051601f8201601f191681016001600160401b03811182821017156138b4576138b4613876565b604052919050565b600082601f8301126138cd57600080fd5b81356001600160401b038111156138e6576138e6613876565b6138f9601f8201601f191660200161388c565b81815284602083860101111561390e57600080fd5b816020850160208301376000918101602001919091529392505050565b6000806040838503121561393e57600080fd5b8235915060208301356001600160401b0381111561395b57600080fd5b613967858286016138bc565b9150509250929050565b60006020828403121561398357600080fd5b81356001600160401b0381111561399957600080fd5b820161012081850312156136ea57600080fd5b803560ff8116811461379557600080fd5b6000608082840312156139cf57600080fd5b604051608081018181106001600160401b03821117156139f1576139f1613876565b6040529050808235613a0281613775565b8152613a10602084016139ac565b602082015260408301356040820152606083013560608201525092915050565b600082601f830112613a4157600080fd5b813560206001600160401b03821115613a5c57613a5c613876565b613a6a818360051b0161388c565b82815260079290921b84018101918181019086841115613a8957600080fd5b8286015b84811015613aad57613a9f88826139bd565b835291830191608001613a8d565b509695505050505050565b600080600080600080600080600080600060e08c8e031215613ad957600080fd5b613ae28c6139ac565b9a506001600160401b038060208e01351115613afd57600080fd5b613b0d8e60208f01358f016137c6565b909b50995060408d0135811015613b2357600080fd5b613b338e60408f01358f016137c6565b909950975060608d0135811015613b4957600080fd5b613b598e60608f01358f016137c6565b909750955060808d0135811015613b6f57600080fd5b613b7f8e60808f01358f016137c6565b909550935060a08d0135925060c08d0135811015613b9c57600080fd5b50613bad8d60c08e01358e01613a30565b90509295989b509295989b9093969950565b600080600060608486031215613bd457600080fd5b8335613bdf81613775565b92506020840135613bef81613775565b929592945050506040919091013590565b6020808252825182820181905260009190848201906040850190845b81811015613c415783516001600160a01b031683529284019291840191600101613c1c565b50909695505050505050565b600060208284031215613c5f57600080fd5b6136ea826139ac565b600060208284031215613c7a57600080fd5b81356001600160401b03811115613c9057600080fd5b612e07848285016138bc565b600080600080600080600080600060e08a8c031215613cba57600080fd5b8935613cc581613775565b985060208a01356001600160401b0380821115613ce157600080fd5b613ced8d838e016137c6565b909a50985060408c0135915080821115613d0657600080fd5b613d128d838e016137c6565b909850965060608c01359150613d2782613775565b819550613d3660808d0161378a565b9450613d4460a08d0161378a565b935060c08c0135915080821115613d5a57600080fd5b50613d678c828d016138bc565b9150509295985092959850929598565b60008060408385031215613d8a57600080fd5b8235613d9581613775565b915060208301358015158114613daa57600080fd5b809150509250929050565b600080600080600060808688031215613dcd57600080fd5b853594506020860135613ddf81613775565b93506040860135925060608601356001600160401b03811115613e0157600080fd5b613e0d888289016137c6565b969995985093965092949392505050565b608081526000613e31608083018761371d565b8281036020840152613e43818761371d565b60ff959095166040840152505090151560609091015292915050565b60008083601f840112613e7157600080fd5b5081356001600160401b03811115613e8857600080fd5b6020830191508360208260051b850101111561380757600080fd5b600080600080600080600080600060a08a8c031215613ec157600080fd5b8935985060208a01356001600160401b0380821115613edf57600080fd5b613eeb8d838e01613e5f565b909a50985060408c0135915080821115613f0457600080fd5b613f108d838e01613e5f565b909850965060608c0135915080821115613f2957600080fd5b613f358d838e01613e5f565b909650945060808c0135915080821115613f4e57600080fd5b50613f5b8c828d01613e5f565b915080935050809150509295985092959850929598565b60008060408385031215613f8557600080fd5b8235613f9081613775565b91506020830135613daa81613775565b600181811c90821680613fb457607f821691505b60208210811415613fd557634e487b7160e01b600052602260045260246000fd5b50919050565b6020808252601f908201527f455243373231526f6c6573416464726573733a204e4f54204d414e4147455200604082015260600190565b6020808252601c908201527f45524337323154656d706c6174653a206e6f74204e46544f776e657200000000604082015260600190565b60808152600061405c608083018761371d565b6020830195909552506040810192909252606090910152919050565b60208082526021908201527f45524337323154656d706c6174653a204e4f54204d455441444154415f524f4c6040820152604560f81b606082015260800190565b6000808335601e198436030181126140d057600080fd5b8301803591506001600160401b038211156140ea57600080fd5b60200191503681900382131561380757600080fd5b6000808335601e1984360301811261411657600080fd5b8301803591506001600160401b0382111561413057600080fd5b6020019150600781901b360382131561380757600080fd5b60006080828403121561415a57600080fd5b6136ea83836139bd565b6020808252602c908201527f45524337323154656d706c6174653a2043616e6e6f74207472616e736665722060408201526b1d1a1a5cc81d1bdad95b925960a21b606082015260800190565b600083516141c28184602088016136f1565b8351908301906141d68183602088016136f1565b01949350505050565b81835281816020850137506000828201602090810191909152601f909101601f19169091010190565b6000808335601e1984360301811261421f57600080fd5b83016020810192503590506001600160401b0381111561423e57600080fd5b80360383131561380757600080fd5b8183526000602080850194508260005b8581101561428b57813561427081613775565b6001600160a01b03168752958201959082019060010161425d565b509495945050505050565b81835260006001600160fb1b038311156142af57600080fd5b8260051b8083602087013760009401602001938452509192915050565b81835260006020808501808196508560051b810191508460005b8781101561431c5782840389526142fd8288614208565b6143088682846141df565b9a87019a95505050908401906001016142e6565b5091979650505050505050565b89815260a0602082018190528101889052600060c060058a901b830181019083018b835b8c81101561438a5785840360bf19018352614368828f614208565b6143738682846141df565b95505050602092830192919091019060010161434d565b50505082810360408401526143a081898b61424d565b905082810360608401526143b5818789614296565b905082810360808401526143ca8185876142cc565b9c9b505050505050505050505050565b6000602082840312156143ec57600080fd5b81516136ea81613775565b602081526000612e076020830184866141df565b60ff8b16815260e06020820152600061442860e083018b8d6141df565b828103604084015261443b818a8c6141df565b9050828103606084015261445081888a6141df565b6080840196909652505060a081019290925260c090910152979650505050505050565b634e487b7160e01b600052603260045260246000fd5b6000835161449b8184602088016136f1565b9190910191825250602001919050565b634e487b7160e01b600052601160045260246000fd5b60006000198214156144d5576144d56144ab565b5060010190565b60208082526031908201527f4552433732313a207472616e736665722063616c6c6572206973206e6f74206f6040820152701ddb995c881b9bdc88185c1c1c9bdd9959607a1b606082015260800190565b60008282101561453f5761453f6144ab565b500390565b60208082526032908201527f4552433732313a207472616e7366657220746f206e6f6e20455243373231526560408201527131b2b4bb32b91034b6b83632b6b2b73a32b960711b606082015260800190565b600082198211156145a9576145a96144ab565b500190565b6001600160a01b03858116825284166020820152604081018390526080606082018190526000906145e19083018461371d565b9695505050505050565b6000602082840312156145fd57600080fd5b81516136ea816136b756fe6e1540171b6c0c960b71a7020d9f60077f6af931a8bbf590da0223dacf75c7afa2646970667358221220aae158f04f05587a9c3c0c4fe3bbe179acb51225c801e93d929bd5877deb8b4864736f6c634300080a0033",
  "linkReferences": {},
  "deployedLinkReferences": {}
}