{
  "_format": "hh-sol-artifact-1",
  "contractName": "ERC721Template",
  "sourceName": "contracts/templates/ERC721Template.sol",
  "abi": [
    {
      "anonymous": false,
      "inputs": [
        {
          "indexed": true,
          "internalType": "address",
          "name": "owner",
          "type": "address"
        },
        {
          "indexed": true,
          "internalType": "address",
          "name": "approved",
          "type": "address"
        },
        {
          "indexed": true,
          "internalType": "uint256",
          "name": "tokenId",
          "type": "uint256"
        }
      ],
      "name": "Approval",
      "type": "event"
    },
    {
      "anonymous": false,
      "inputs": [
        {
          "indexed": true,
          "internalType": "address",
          "name": "owner",
          "type": "address"
        },
        {
          "indexed": true,
          "internalType": "address",
          "name": "operator",
          "type": "address"
        },
        {
          "indexed": false,
          "internalType": "bool",
          "name": "approved",
          "type": "bool"
        }
      ],
      "name": "ApprovalForAll",
      "type": "event"
    },
    {
      "anonymous": false,
      "inputs": [
        {
          "indexed": true,
          "internalType": "address",
          "name": "contractAddress",
          "type": "address"
        }
      ],
      "name": "ContractCreated",
      "type": "event"
    },
    {
      "anonymous": false,
      "inputs": [
        {
          "indexed": true,
          "internalType": "bytes32",
          "name": "key",
          "type": "bytes32"
        },
        {
          "indexed": false,
          "internalType": "bytes",
          "name": "value",
          "type": "bytes"
        }
      ],
      "name": "DataChanged",
      "type": "event"
    },
    {
      "anonymous": false,
      "inputs": [
        {
          "indexed": true,
          "internalType": "address",
          "name": "erc20Address",
          "type": "address"
        }
      ],
      "name": "ERC20Created",
      "type": "event"
    },
    {
      "anonymous": false,
      "inputs": [
        {
          "indexed": true,
          "internalType": "uint256",
          "name": "_operation",
          "type": "uint256"
        },
        {
          "indexed": true,
          "internalType": "address",
          "name": "_to",
          "type": "address"
        },
        {
          "indexed": true,
          "internalType": "uint256",
          "name": "_value",
          "type": "uint256"
        },
        {
          "indexed": false,
          "internalType": "bytes",
          "name": "_data",
          "type": "bytes"
        }
      ],
      "name": "Executed",
      "type": "event"
    },
    {
      "anonymous": false,
      "inputs": [
        {
          "indexed": true,
          "internalType": "address",
          "name": "from",
          "type": "address"
        },
        {
          "indexed": true,
          "internalType": "address",
          "name": "to",
          "type": "address"
        },
        {
          "indexed": true,
          "internalType": "uint256",
          "name": "tokenId",
          "type": "uint256"
        }
      ],
      "name": "Transfer",
      "type": "event"
    },
    {
      "inputs": [],
      "name": "METADATA_KEY",
      "outputs": [
        {
          "internalType": "bytes32",
          "name": "",
          "type": "bytes32"
        }
      ],
      "stateMutability": "view",
      "type": "function"
    },
    {
      "inputs": [
        {
          "internalType": "address",
          "name": "account",
          "type": "address"
        }
      ],
      "name": "_getPermissions",
      "outputs": [
        {
          "components": [
            {
              "internalType": "bool",
              "name": "manager",
              "type": "bool"
            },
            {
              "internalType": "bool",
              "name": "deployERC20",
              "type": "bool"
            },
            {
              "internalType": "bool",
              "name": "updateMetadata",
              "type": "bool"
            },
            {
              "internalType": "bool",
              "name": "store",
              "type": "bool"
            },
            {
              "internalType": "bool",
              "name": "v3Minter",
              "type": "bool"
            }
          ],
          "internalType": "struct ERC721RolesAddress.Roles",
          "name": "",
          "type": "tuple"
        }
      ],
      "stateMutability": "view",
      "type": "function"
    },
    {
      "inputs": [],
      "name": "_metadata",
      "outputs": [
        {
          "internalType": "address",
          "name": "",
          "type": "address"
        }
      ],
      "stateMutability": "view",
      "type": "function"
    },
    {
      "inputs": [
        {
          "internalType": "address",
          "name": "_managerAddress",
          "type": "address"
        }
      ],
      "name": "addManager",
      "outputs": [],
      "stateMutability": "nonpayable",
      "type": "function"
    },
    {
      "inputs": [
        {
          "internalType": "address",
          "name": "_allowedAddress",
          "type": "address"
        }
      ],
      "name": "addTo725StoreList",
      "outputs": [],
      "stateMutability": "nonpayable",
      "type": "function"
    },
    {
      "inputs": [
        {
          "internalType": "address",
          "name": "_allowedAddress",
          "type": "address"
        }
      ],
      "name": "addToCreateERC20List",
      "outputs": [],
      "stateMutability": "nonpayable",
      "type": "function"
    },
    {
      "inputs": [
        {
          "internalType": "address",
          "name": "_allowedAddress",
          "type": "address"
        }
      ],
      "name": "addToMetadataList",
      "outputs": [],
      "stateMutability": "nonpayable",
      "type": "function"
    },
    {
      "inputs": [
        {
          "internalType": "address",
          "name": "newMinter",
          "type": "address"
        }
      ],
      "name": "addV3Minter",
      "outputs": [],
      "stateMutability": "nonpayable",
      "type": "function"
    },
    {
      "inputs": [
        {
          "internalType": "address",
          "name": "to",
          "type": "address"
        },
        {
          "internalType": "uint256",
          "name": "tokenId",
          "type": "uint256"
        }
      ],
      "name": "approve",
      "outputs": [],
      "stateMutability": "nonpayable",
      "type": "function"
    },
    {
      "inputs": [
        {
          "internalType": "uint256",
          "name": "",
          "type": "uint256"
        }
      ],
      "name": "auth",
      "outputs": [
        {
          "internalType": "address",
          "name": "",
          "type": "address"
        }
      ],
      "stateMutability": "view",
      "type": "function"
    },
    {
      "inputs": [
        {
          "internalType": "address",
          "name": "owner",
          "type": "address"
        }
      ],
      "name": "balanceOf",
      "outputs": [
        {
          "internalType": "uint256",
          "name": "",
          "type": "uint256"
        }
      ],
      "stateMutability": "view",
      "type": "function"
    },
    {
      "inputs": [],
      "name": "cleanPermissions",
      "outputs": [],
      "stateMutability": "nonpayable",
      "type": "function"
    },
    {
      "inputs": [
        {
          "internalType": "string",
          "name": "name_",
          "type": "string"
        },
        {
          "internalType": "string",
          "name": "symbol_",
          "type": "string"
        },
        {
          "internalType": "uint256",
          "name": "cap",
          "type": "uint256"
        },
        {
          "internalType": "uint256",
          "name": "templateIndex",
          "type": "uint256"
        },
        {
          "internalType": "address",
          "name": "minter",
          "type": "address"
        }
      ],
      "name": "createERC20",
      "outputs": [
        {
          "internalType": "address",
          "name": "",
          "type": "address"
        }
      ],
      "stateMutability": "nonpayable",
      "type": "function"
    },
    {
      "inputs": [
        {
          "internalType": "uint256",
          "name": "_operation",
          "type": "uint256"
        },
        {
          "internalType": "address",
          "name": "_to",
          "type": "address"
        },
        {
          "internalType": "uint256",
          "name": "_value",
          "type": "uint256"
        },
        {
          "internalType": "bytes",
          "name": "_data",
          "type": "bytes"
        }
      ],
      "name": "executeCall",
      "outputs": [],
      "stateMutability": "payable",
      "type": "function"
    },
    {
      "inputs": [
        {
          "internalType": "uint256",
          "name": "tokenId",
          "type": "uint256"
        }
      ],
      "name": "getApproved",
      "outputs": [
        {
          "internalType": "address",
          "name": "",
          "type": "address"
        }
      ],
      "stateMutability": "view",
      "type": "function"
    },
    {
      "inputs": [
        {
          "internalType": "bytes32",
          "name": "_key",
          "type": "bytes32"
        }
      ],
      "name": "getData",
      "outputs": [
        {
          "internalType": "bytes",
          "name": "_value",
          "type": "bytes"
        }
      ],
      "stateMutability": "view",
      "type": "function"
    },
    {
      "inputs": [
        {
          "internalType": "address",
          "name": "owner",
          "type": "address"
        },
        {
          "internalType": "string",
          "name": "name_",
          "type": "string"
        },
        {
          "internalType": "string",
          "name": "symbol_",
          "type": "string"
        },
        {
          "internalType": "address",
          "name": "metadata",
          "type": "address"
        },
        {
          "internalType": "address",
          "name": "erc20Factory",
          "type": "address"
        },
        {
          "internalType": "bytes",
          "name": "_data",
          "type": "bytes"
        },
        {
          "internalType": "bytes",
          "name": "_flags",
          "type": "bytes"
        }
      ],
      "name": "initialize",
      "outputs": [
        {
          "internalType": "bool",
          "name": "",
          "type": "bool"
        }
      ],
      "stateMutability": "nonpayable",
      "type": "function"
    },
    {
      "inputs": [
        {
          "internalType": "address",
          "name": "owner",
          "type": "address"
        },
        {
          "internalType": "address",
          "name": "operator",
          "type": "address"
        }
      ],
      "name": "isApprovedForAll",
      "outputs": [
        {
          "internalType": "bool",
          "name": "",
          "type": "bool"
        }
      ],
      "stateMutability": "view",
      "type": "function"
    },
    {
      "inputs": [],
      "name": "isInitialized",
      "outputs": [
        {
          "internalType": "bool",
          "name": "",
          "type": "bool"
        }
      ],
      "stateMutability": "view",
      "type": "function"
    },
    {
      "inputs": [
        {
          "internalType": "address",
          "name": "datatoken",
          "type": "address"
        },
        {
          "internalType": "address",
          "name": "to",
          "type": "address"
        },
        {
          "internalType": "uint256",
          "name": "value",
          "type": "uint256"
        }
      ],
      "name": "mintV3DT",
      "outputs": [],
      "stateMutability": "nonpayable",
      "type": "function"
    },
    {
      "inputs": [],
      "name": "name",
      "outputs": [
        {
          "internalType": "string",
          "name": "",
          "type": "string"
        }
      ],
      "stateMutability": "view",
      "type": "function"
    },
    {
      "inputs": [
        {
          "internalType": "uint256",
          "name": "tokenId",
          "type": "uint256"
        }
      ],
      "name": "ownerOf",
      "outputs": [
        {
          "internalType": "address",
          "name": "",
          "type": "address"
        }
      ],
      "stateMutability": "view",
      "type": "function"
    },
    {
      "inputs": [
        {
          "internalType": "address",
          "name": "_allowedAddress",
          "type": "address"
        }
      ],
      "name": "removeFrom725StoreList",
      "outputs": [],
      "stateMutability": "nonpayable",
      "type": "function"
    },
    {
      "inputs": [
        {
          "internalType": "address",
          "name": "_allowedAddress",
          "type": "address"
        }
      ],
      "name": "removeFromCreateERC20List",
      "outputs": [],
      "stateMutability": "nonpayable",
      "type": "function"
    },
    {
      "inputs": [
        {
          "internalType": "address",
          "name": "_allowedAddress",
          "type": "address"
        }
      ],
      "name": "removeFromMetadataList",
      "outputs": [],
      "stateMutability": "nonpayable",
      "type": "function"
    },
    {
      "inputs": [
        {
          "internalType": "address",
          "name": "_managerAddress",
          "type": "address"
        }
      ],
      "name": "removeManager",
      "outputs": [],
      "stateMutability": "nonpayable",
      "type": "function"
    },
    {
      "inputs": [
        {
          "internalType": "address",
          "name": "minter",
          "type": "address"
        }
      ],
      "name": "removeV3Minter",
      "outputs": [],
      "stateMutability": "nonpayable",
      "type": "function"
    },
    {
      "inputs": [
        {
          "internalType": "address",
          "name": "operator",
          "type": "address"
        },
        {
          "internalType": "bool",
          "name": "approved",
          "type": "bool"
        }
      ],
      "name": "setApprovalForAll",
      "outputs": [],
      "stateMutability": "nonpayable",
      "type": "function"
    },
    {
      "inputs": [
        {
          "internalType": "bytes32",
          "name": "_key",
          "type": "bytes32"
        },
        {
          "internalType": "bytes",
          "name": "_value",
          "type": "bytes"
        }
      ],
      "name": "setDataERC20",
      "outputs": [],
      "stateMutability": "nonpayable",
      "type": "function"
    },
    {
      "inputs": [
        {
          "internalType": "address",
          "name": "datatoken",
          "type": "address"
        },
        {
          "internalType": "bytes",
          "name": "_value",
          "type": "bytes"
        },
        {
          "internalType": "bytes",
          "name": "flags",
          "type": "bytes"
        },
        {
          "internalType": "bytes",
          "name": "data",
          "type": "bytes"
        }
      ],
      "name": "setDataV3",
      "outputs": [],
      "stateMutability": "nonpayable",
      "type": "function"
    },
    {
      "inputs": [
        {
          "internalType": "bytes32",
          "name": "_key",
          "type": "bytes32"
        },
        {
          "internalType": "bytes",
          "name": "_value",
          "type": "bytes"
        }
      ],
      "name": "setNewData",
      "outputs": [],
      "stateMutability": "nonpayable",
      "type": "function"
    },
    {
      "inputs": [],
      "name": "ssContract",
      "outputs": [
        {
          "internalType": "address",
          "name": "",
          "type": "address"
        }
      ],
      "stateMutability": "view",
      "type": "function"
    },
    {
      "inputs": [
        {
          "internalType": "bytes4",
          "name": "interfaceId",
          "type": "bytes4"
        }
      ],
      "name": "supportsInterface",
      "outputs": [
        {
          "internalType": "bool",
          "name": "",
          "type": "bool"
        }
      ],
      "stateMutability": "view",
      "type": "function"
    },
    {
      "inputs": [],
      "name": "symbol",
      "outputs": [
        {
          "internalType": "string",
          "name": "",
          "type": "string"
        }
      ],
      "stateMutability": "view",
      "type": "function"
    },
    {
      "inputs": [
        {
          "internalType": "uint256",
          "name": "tokenId",
          "type": "uint256"
        }
      ],
      "name": "tokenURI",
      "outputs": [
        {
          "internalType": "string",
          "name": "",
          "type": "string"
        }
      ],
      "stateMutability": "view",
      "type": "function"
    },
    {
      "inputs": [
        {
          "internalType": "address",
          "name": "from",
          "type": "address"
        },
        {
          "internalType": "address",
          "name": "to",
          "type": "address"
        },
        {
          "internalType": "uint256",
          "name": "tokenId",
          "type": "uint256"
        }
      ],
      "name": "transferFrom",
      "outputs": [],
      "stateMutability": "nonpayable",
      "type": "function"
    },
    {
      "inputs": [
        {
          "internalType": "bytes",
          "name": "flags",
          "type": "bytes"
        },
        {
          "internalType": "bytes",
          "name": "data",
          "type": "bytes"
        }
      ],
      "name": "updateMetadata",
      "outputs": [],
      "stateMutability": "nonpayable",
      "type": "function"
    },
    {
      "inputs": [
        {
          "internalType": "address",
          "name": "",
          "type": "address"
        }
      ],
      "name": "v3DT",
      "outputs": [
        {
          "internalType": "bool",
          "name": "",
          "type": "bool"
        }
      ],
      "stateMutability": "view",
      "type": "function"
    },
    {
      "inputs": [
        {
          "internalType": "address",
          "name": "datatoken",
          "type": "address"
        },
        {
          "internalType": "address",
          "name": "newMinter",
          "type": "address"
        }
      ],
      "name": "wrapV3DT",
      "outputs": [],
      "stateMutability": "nonpayable",
      "type": "function"
    }
  ],
  "bytecode": "0x60806040523480156200001157600080fd5b50604080518082018252600881526754656d706c61746560c01b60208083019182528351808501909452600e84526d15195b5c1b185d1954de5b589bdb60921b908401528151919291620000689160009162000108565b5080516200007e90600190602084019062000108565b50620000959150632260147f60e11b9050620000ad565b620000a7632bd57b7360e01b620000ad565b62000222565b6001600160e01b03198082161415620000e35760405162461bcd60e51b8152600401620000da90620001ae565b60405180910390fd5b6001600160e01b0319166000908152600860205260409020805460ff19166001179055565b8280546200011690620001e5565b90600052602060002090601f0160209004810192826200013a576000855562000185565b82601f106200015557805160ff191683800117855562000185565b8280016001018555821562000185579182015b828111156200018557825182559160200191906001019062000168565b506200019392915062000197565b5090565b5b8082111562000193576000815560010162000198565b6020808252601c908201527f4552433136353a20696e76616c696420696e7465726661636520696400000000604082015260600190565b600281046001821680620001fa57607f821691505b602082108114156200021c57634e487b7160e01b600052602260045260246000fd5b50919050565b613a3480620002326000396000f3fe6080604052600436106102305760003560e01c80634f189cb21161012e5780639e753293116100ab578063c87b56dd1161006f578063c87b56dd14610672578063cf76312014610692578063ddd0af5b146106b2578063e985e9c5146106c7578063fe1ec880146106e757610230565b80639e753293146105df578063a22cb465146105ff578063ac18de431461061f578063b0c41ead1461063f578063c55f81261461065f57610230565b80637db0f56d116100f25780637db0f56d1461053d578063819172d91461055d57806393db11d01461057d57806395d89b411461059d5780639e268119146105b257610230565b80634f189cb21461049b57806354f6127f146104b05780636352211e146104d057806367530a61146104f057806370a082311461051057610230565b8063273e06b3116101bc57806339371b251161018057806339371b251461041157806342c914c814610426578063431053ac146104465780634a63740a146104665780634b2ee5e91461048657610230565b8063273e06b31461037c5780632748a9f91461039c5780632b940806146103bc5780632d06177a146103dc578063392e53cd146103fc57610230565b80630e57c7e8116102035780630e57c7e8146102dc57806310c558bf146102fc57806319c186e51461031c5780631b1de75c1461033c57806323b872dd1461035c57610230565b806301ffc9a71461023557806306fdde031461026b578063081812fc1461028d578063095ea7b3146102ba575b600080fd5b34801561024157600080fd5b50610255610250366004612b08565b610707565b6040516102629190612e37565b60405180910390f35b34801561027757600080fd5b5061028061073e565b6040516102629190612e5f565b34801561029957600080fd5b506102ad6102a8366004612aa6565b6107d0565b6040516102629190612d47565b3480156102c657600080fd5b506102da6102d5366004612a7b565b61081c565b005b3480156102e857600080fd5b506102da6102f7366004612abe565b6108b4565b34801561030857600080fd5b506102da6103173660046127f9565b6108f3565b34801561032857600080fd5b506102da6103373660046127f9565b610951565b34801561034857600080fd5b506102556103573660046127f9565b6109b1565b34801561036857600080fd5b506102da610377366004612869565b6109c6565b34801561038857600080fd5b506102da6103973660046127f9565b610a6d565b3480156103a857600080fd5b506102da6103b7366004612869565b610a9a565b3480156103c857600080fd5b506102da6103d73660046128da565b610b92565b3480156103e857600080fd5b506102da6103f73660046127f9565b610c7f565b34801561040857600080fd5b50610255610c94565b34801561041d57600080fd5b506102ad610c9d565b34801561043257600080fd5b506102da610441366004612b40565b610cb1565b34801561045257600080fd5b506102da6104613660046127f9565b610d86565b34801561047257600080fd5b506102da6104813660046127f9565b610db2565b34801561049257600080fd5b506102ad610e0e565b3480156104a757600080fd5b506102da610e1d565b3480156104bc57600080fd5b506102806104cb366004612aa6565b610e30565b3480156104dc57600080fd5b506102ad6104eb366004612aa6565b610ed2565b3480156104fc57600080fd5b506102da61050b366004612abe565b610f07565b34801561051c57600080fd5b5061053061052b3660046127f9565b610f4d565b6040516102629190612e42565b34801561054957600080fd5b50610255610558366004612983565b610f91565b34801561056957600080fd5b506102da6105783660046127f9565b611088565b34801561058957600080fd5b506102ad610598366004612ba9565b61109a565b3480156105a957600080fd5b506102806111fa565b3480156105be57600080fd5b506105d26105cd3660046127f9565b611209565b604051610262919061386a565b3480156105eb57600080fd5b506102da6105fa3660046127f9565b611285565b34801561060b57600080fd5b506102da61061a3660046128a9565b611297565b34801561062b57600080fd5b506102da61063a3660046127f9565b611365565b34801561064b57600080fd5b506102ad61065a366004612aa6565b611377565b6102da61066d366004612c3d565b6113a1565b34801561067e57600080fd5b5061028061068d366004612aa6565b6113b7565b34801561069e57600080fd5b506102da6106ad366004612831565b61143a565b3480156106be57600080fd5b50610530611459565b3480156106d357600080fd5b506102556106e2366004612831565b61147d565b3480156106f357600080fd5b506102da6107023660046127f9565b6114ab565b6000610712826114d6565b8061073657506001600160e01b0319821660009081526008602052604090205460ff165b90505b919050565b6060600b805461074d9061391d565b80601f01602080910402602001604051908101604052809291908181526020018280546107799061391d565b80156107c65780601f1061079b576101008083540402835291602001916107c6565b820191906000526020600020905b8154815290600101906020018083116107a957829003601f168201915b5050505050905090565b60006107db826114ef565b6108005760405162461bcd60e51b81526004016107f7906134c9565b60405180910390fd5b506000908152600460205260409020546001600160a01b031690565b600061082782610ed2565b9050806001600160a01b0316836001600160a01b0316141561085b5760405162461bcd60e51b81526004016107f790613628565b806001600160a01b031661086d61150c565b6001600160a01b031614806108895750610889816106e261150c565b6108a55760405162461bcd60e51b81526004016107f790613226565b6108af8383611510565b505050565b3360009081526011602052604090205460ff1615156001146108e85760405162461bcd60e51b81526004016107f7906131ad565b6108af83838361157e565b6108fc336115d7565b6001600160a01b03166000818152600660205260408120805462ff00001916620100001790556007805460018101825591526000805160206139df8339815191520180546001600160a01b0319169091179055565b61095a336115d7565b6001600160a01b03166000818152600660205260408120805463ff000000191663010000001790556007805460018101825591526000805160206139df8339815191520180546001600160a01b0319169091179055565b600a6020526000908152604090205460ff1681565b806001146109e65760405162461bcd60e51b81526004016107f7906135dc565b610a51610a4c600f805480602002602001604051908101604052809291908181526020018280548015610a4257602002820191906000526020600020905b81546001600160a01b03168152600190910190602001808311610a24575b5050505050611608565b61160c565b610a596116ab565b610a6483838361172f565b6108af82611777565b610a76336115d7565b6001600160a01b03166000908152600660205260409020805463ff00000019169055565b33600090815260066020908152604091829020825160a081018452905460ff808216151583526101008204811615159383019390935262010000810483161515938201939093526301000000830482161515606082015264010000000090920416151560808201819052600114610b235760405162461bcd60e51b81526004016107f790613283565b610b2c846117cb565b6040516340c10f1960e01b81526001600160a01b038516906340c10f1990610b5a9086908690600401612e1e565b600060405180830381600087803b158015610b7457600080fd5b505af1158015610b88573d6000803e3d6000fd5b5050505050505050565b6000610b9d33611209565b9050806080015115156001151514610bc75760405162461bcd60e51b81526004016107f790612f03565b610bd0886117cb565b600088604051602001610be39190612cfb565b604051602081830303815290604052805190602001209050610c0681898961157e565b600d54604051637c4d8f9b60e11b81526101009091046001600160a01b03169063f89b1f3690610c42908c908a908a908a908a90600401612d98565b600060405180830381600087803b158015610c5c57600080fd5b505af1158015610c70573d6000803e3d6000fd5b50505050505050505050505050565b610c8833611808565b610c9181611777565b50565b600d5460ff1690565b600d5461010090046001600160a01b031681565b6000610cbc33611209565b9050806040015115156001151514610ce65760405162461bcd60e51b81526004016107f790612f3a565b600d54604051637c4d8f9b60e11b81526101009091046001600160a01b03169063f89b1f3690610d229030908990899089908990600401612d98565b600060405180830381600087803b158015610d3c57600080fd5b505af1158015610d50573d6000803e3d6000fd5b50505050610d7f7fa063f3cd8b0dcd6546ffc1c06fc86515c40fe331e91488c5e18c88c7efc881e8848461157e565b5050505050565b610d8f336115d7565b6001600160a01b03166000908152600660205260409020805462ff000019169055565b610dbb336115d7565b6001600160a01b03166000818152600660205260408120805461ff0019166101001790556007805460018101825591526000805160206139df8339815191520180546001600160a01b0319169091179055565b6010546001600160a01b031681565b610e2633611808565b610e2e6116ab565b565b6000818152600960205260409020805460609190610e4d9061391d565b80601f0160208091040260200160405190810160405280929190818152602001828054610e799061391d565b8015610ec65780601f10610e9b57610100808354040283529160200191610ec6565b820191906000526020600020905b815481529060010190602001808311610ea957829003601f168201915b50505050509050919050565b6000818152600260205260408120546001600160a01b0316806107365760405162461bcd60e51b81526004016107f79061334c565b6000610f1233611209565b9050806060015115156001151514610f3c5760405162461bcd60e51b81526004016107f790612ec2565b610f4784848461157e565b50505050565b60006001600160a01b038216610f755760405162461bcd60e51b81526004016107f790613302565b506001600160a01b031660009081526003602052604090205490565b600d5460009060ff1615610fb75760405162461bcd60e51b81526004016107f790613763565b6110788c8c8c8080601f016020809104026020016040519081016040528093929190818152602001838380828437600081840152601f19601f820116905080830192505050505050508b8b8080601f01602080910402602001604051908101604052809392919081815260200183838082843760009201919091525050604080516020601f8b018190048102820181019092528981528e93508d92508c918c91908c908c908190840183828082843760009201919091525061184292505050565b9c9b505050505050505050505050565b611091336115d7565b610c9181611932565b6000806110a633611209565b90508060200151151560011515146110d05760405162461bcd60e51b81526004016107f7906131ef565b600e5460405163350d4d6560e01b81526000916001600160a01b03169063350d4d659061110d908d908d908d908d908d908d908d90600401612e72565b602060405180830381600087803b15801561112757600080fd5b505af115801561113b573d6000803e3d6000fd5b505050506040513d601f19601f8201168201806040525081019061115f9190612815565b6001600160a01b038116600081815260116020526040808220805460ff19166001908117909155600f8054918201815583527f8d1108e10bcb7c27dddfc02ed9d693a074039d026cf4ea4240b40f7d581ac8020180546001600160a01b031916841790555192935090917f41039c8b82bb5a365f56b4f9d87cee99e069b450bfdc3d87696fcd87783f24c19190a29998505050505050505050565b6060600c805461074d9061391d565b61121161264e565b506001600160a01b0316600090815260066020908152604091829020825160a081018452905460ff8082161515835261010082048116151593830193909352620100008104831615159382019390935263010000008304821615156060820152640100000000909204161515608082015290565b61128e336115d7565b610c918161198b565b61129f61150c565b6001600160a01b0316826001600160a01b031614156112d05760405162461bcd60e51b81526004016107f7906130b4565b80600560006112dd61150c565b6001600160a01b03908116825260208083019390935260409182016000908120918716808252919093529120805460ff19169215159290921790915561132161150c565b6001600160a01b03167f17307eab39ab6107e8899845ad3d59bd9653f200f220920489ca2b5937696c31836040516113599190612e37565b60405180910390a35050565b61136e33611808565b610c91816119b0565b6007818154811061138757600080fd5b6000918252602090912001546001600160a01b0316905081565b6113aa336115d7565b610d7f85858585856119d1565b60606113c2826114ef565b6113de5760405162461bcd60e51b81526004016107f79061358d565b60006113e8611bd3565b905060008151116114085760405180602001604052806000815250611433565b8061141284611be5565b604051602001611423929190612d18565b6040516020818303038152906040525b9392505050565b61144333611808565b61144c82611d08565b61145581611932565b5050565b7fa063f3cd8b0dcd6546ffc1c06fc86515c40fe331e91488c5e18c88c7efc881e881565b6001600160a01b03918216600090815260056020908152604080832093909416825291909152205460ff1690565b6114b4336115d7565b6001600160a01b03166000908152600660205260409020805461ff0019169055565b6001600160e01b031981166301ffc9a760e01b14919050565b6000908152600260205260409020546001600160a01b0316151590565b3390565b600081815260046020526040902080546001600160a01b0319166001600160a01b038416908117909155819061154582610ed2565b6001600160a01b03167f8c5be1e5ebec7d5bd14f71427d1e84f3dd0314c0f7b2291e5b200ac8c7c3b92560405160405180910390a45050565b600083815260096020526040902061159790838361267c565b50827fece574603820d07bc9b91f2a932baadf4628aabcb8afba49776529c14a6104b283836040516115ca929190612e4b565b60405180910390a2505050565b60006115e282611209565b805190915015156001146114555760405162461bcd60e51b81526004016107f7906137b5565b5190565b60005b8181101561145557600f818154811061163857634e487b7160e01b600052603260045260246000fd5b6000918252602082200154604080516382c03da560e01b815290516001600160a01b03909216926382c03da59260048084019382900301818387803b15801561168057600080fd5b505af1158015611694573d6000803e3d6000fd5b5050505080806116a390613958565b91505061160f565b60005b60075481101561172257600060066000600784815481106116df57634e487b7160e01b600052603260045260246000fd5b60009182526020808320909101546001600160a01b031683528201929092526040019020805464ffffffffff19169055508061171a81613958565b9150506116ae565b50610e2e60076000612700565b61174061173a61150c565b82611eb8565b61175c5760405162461bcd60e51b81526004016107f790613697565b6108af83838360405180602001604052806000815250611f35565b6001600160a01b03166000818152600660205260408120805460ff191660019081179091556007805491820181559091526000805160206139df8339815191520180546001600160a01b0319169091179055565b6001600160a01b0381166000908152600a602052604090205460ff161515600114610c915760405162461bcd60e51b81526004016107f7906137ec565b6118126001610ed2565b6001600160a01b0316816001600160a01b031614610c915760405162461bcd60e51b81526004016107f790613039565b60006001600160a01b03891661186a5760405162461bcd60e51b81526004016107f7906130eb565b6001600160a01b0386166118905760405162461bcd60e51b81526004016107f790613713565b600d8054610100600160a81b0319166101006001600160a01b0389160217905587516118c390600b9060208b019061271e565b5086516118d790600c9060208a019061271e565b50600e80546001600160a01b0319166001600160a01b038716179055600d805460ff1916600117905561190b828585611f6e565b6119168960016120ad565b61191f89611777565b50600d5460ff1698975050505050505050565b6001600160a01b03166000818152600660205260408120805464ff0000000019166401000000001790556007805460018101825591526000805160206139df8339815191520180546001600160a01b0319169091179055565b6001600160a01b03166000908152600660205260409020805464ff0000000019169055565b6001600160a01b03166000908152600660205260409020805460ff19169055565b82846001600160a01b0316867f1f920dbda597d7bf95035464170fa58d0a4b57f13a1c315ace6793b9f63688b88585604051611a0e929190612e4b565b60405180910390a460006109c45a611a2691906138da565b905085611a7657611a70858585858080601f0160208091040260200160405190810160405280939291908181526020018383808284376000920191909152508792506120c7915050565b50611bcb565b6003861415611abf57611a708484848080601f0160208091040260200160405190810160405280939291908181526020018383808284376000920191909152506120df92505050565b6002861415611bb3576000611b1684848080601f016020809104026020016040519081016040528093929190818152602001838380828437600092019190915250611b119250602091508790506138da565b61214b565b90506000611b6585858080601f01602080910402602001604051908101604052809392919081815260200183838082843760009201829052509250611b60915060209050886138da565b612181565b90506000611b74878484612249565b6040519091506001600160a01b038216907fcf78cf0d6f3d8371e1075c69c492ab4ec5d8cf23a1a239b6a51a1d00be7ca31290600090a2505050611bcb565b60405162461bcd60e51b81526004016107f790613669565b505050505050565b60408051602081019091526000815290565b606081611c0a57506040805180820190915260018152600360fc1b6020820152610739565b8160005b8115611c345780611c1e81613958565b9150611c2d9050600a836138c6565b9150611c0e565b60008167ffffffffffffffff811115611c5d57634e487b7160e01b600052604160045260246000fd5b6040519080825280601f01601f191660200182016040528015611c87576020820181803683370190505b5090505b8415611d0057611c9c6001836138da565b9150611ca9600a86613973565b611cb49060306138ae565b60f81b818381518110611cd757634e487b7160e01b600052603260045260246000fd5b60200101906001600160f81b031916908160001a905350611cf9600a866138c6565b9450611c8b565b949350505050565b336001600160a01b0316816001600160a01b031663075461726040518163ffffffff1660e01b815260040160206040518083038186803b158015611d4b57600080fd5b505afa158015611d5f573d6000803e3d6000fd5b505050506040513d601f19601f82011682018060405250810190611d839190612815565b6001600160a01b031614611da95760405162461bcd60e51b81526004016107f790613446565b6001600160a01b0381166000818152600a6020526040808220805460ff19166001179055805163eb40024b60e01b8152905163eb40024b9260048084019391929182900301818387803b158015611dff57600080fd5b505af1158015611e13573d6000803e3d6000fd5b50505050306001600160a01b0316816001600160a01b031663075461726040518163ffffffff1660e01b815260040160206040518083038186803b158015611e5a57600080fd5b505afa158015611e6e573d6000803e3d6000fd5b505050506040513d601f19601f82011682018060405250810190611e929190612815565b6001600160a01b031614610c915760405162461bcd60e51b81526004016107f7906132ba565b6000611ec3826114ef565b611edf5760405162461bcd60e51b81526004016107f790613139565b6000611eea83610ed2565b9050806001600160a01b0316846001600160a01b03161480611f255750836001600160a01b0316611f1a846107d0565b6001600160a01b0316145b80611d005750611d00818561147d565b611f46611f4061150c565b83611eb8565b611f625760405162461bcd60e51b81526004016107f790613697565b610f47848484846122bb565b600e5460405163072f670f60e41b815230916001600160a01b0316906372f670f090611f9e908490600401612d47565b602060405180830381600087803b158015611fb857600080fd5b505af1158015611fcc573d6000803e3d6000fd5b505050506040513d601f19601f82011682018060405250810190611ff09190612815565b6001600160a01b0316146120165760405162461bcd60e51b81526004016107f790613401565b600d5460405163209d0e0560e21b81526101009091046001600160a01b031690638274381490612050903090879087908790600401612ddc565b600060405180830381600087803b15801561206a57600080fd5b505af115801561207e573d6000803e3d6000fd5b505050506108af7fa063f3cd8b0dcd6546ffc1c06fc86515c40fe331e91488c5e18c88c7efc881e8838361157e565b6114558282604051806020016040528060008152506122ee565b6000806000845160208601878987f195945050505050565b600081516020830184f090506001600160a01b0381166121115760405162461bcd60e51b81526004016107f790613492565b6040516001600160a01b038216907fcf78cf0d6f3d8371e1075c69c492ab4ec5d8cf23a1a239b6a51a1d00be7ca31290600090a292915050565b60006121588260206138ae565b835110156121785760405162461bcd60e51b81526004016107f790613515565b50016020015190565b60608161218f81601f6138ae565b10156121ad5760405162461bcd60e51b81526004016107f790613185565b6121b782846138ae565b845110156121d75760405162461bcd60e51b81526004016107f7906136e8565b6060821580156121f65760405191506000825260208201604052612240565b6040519150601f8416801560200281840101858101878315602002848b0101015b8183101561222f578051835260209283019201612217565b5050858452601f01601f1916604052505b50949350505050565b6000808447101561226c5760405162461bcd60e51b81526004016107f790613833565b825161228a5760405162461bcd60e51b81526004016107f790612f7b565b8383516020850187f590506001600160a01b038116611d005760405162461bcd60e51b81526004016107f790613395565b6122c6848484612321565b6122d28484848461244e565b610f475760405162461bcd60e51b81526004016107f790612fb0565b6122f88383612569565b612305600084848461244e565b6108af5760405162461bcd60e51b81526004016107f790612fb0565b826001600160a01b031661233482610ed2565b6001600160a01b03161461235a5760405162461bcd60e51b81526004016107f790613544565b6001600160a01b0382166123805760405162461bcd60e51b81526004016107f790613070565b61238b8383836108af565b612396600082611510565b6001600160a01b03831660009081526003602052604081208054600192906123bf9084906138da565b90915550506001600160a01b03821660009081526003602052604081208054600192906123ed9084906138ae565b909155505060008181526002602052604080822080546001600160a01b0319166001600160a01b0386811691821790925591518493918716917fddf252ad1be2c89b69c2b068fc378daa952ba7f163c4a11628f55a4df523b3ef91a4505050565b6000612462846001600160a01b0316612648565b1561255e57836001600160a01b031663150b7a0261247e61150c565b8786866040518563ffffffff1660e01b81526004016124a09493929190612d5b565b602060405180830381600087803b1580156124ba57600080fd5b505af19250505080156124ea575060408051601f3d908101601f191682019092526124e791810190612b24565b60015b612544573d808015612518576040519150601f19603f3d011682016040523d82523d6000602084013e61251d565b606091505b50805161253c5760405162461bcd60e51b81526004016107f790612fb0565b805181602001fd5b6001600160e01b031916630a85bd0160e11b149050611d00565b506001949350505050565b6001600160a01b03821661258f5760405162461bcd60e51b81526004016107f7906133cc565b612598816114ef565b156125b55760405162461bcd60e51b81526004016107f790613002565b6125c1600083836108af565b6001600160a01b03821660009081526003602052604081208054600192906125ea9084906138ae565b909155505060008181526002602052604080822080546001600160a01b0319166001600160a01b03861690811790915590518392907fddf252ad1be2c89b69c2b068fc378daa952ba7f163c4a11628f55a4df523b3ef908290a45050565b3b151590565b6040805160a08101825260008082526020820181905291810182905260608101829052608081019190915290565b8280546126889061391d565b90600052602060002090601f0160209004810192826126aa57600085556126f0565b82601f106126c35782800160ff198235161785556126f0565b828001600101855582156126f0579182015b828111156126f05782358255916020019190600101906126d5565b506126fc929150612792565b5090565b5080546000825590600052602060002090810190610c919190612792565b82805461272a9061391d565b90600052602060002090601f01602090048101928261274c57600085556126f0565b82601f1061276557805160ff19168380011785556126f0565b828001600101855582156126f0579182015b828111156126f0578251825591602001919060010190612777565b5b808211156126fc5760008155600101612793565b8035610739816139b3565b60008083601f8401126127c3578182fd5b50813567ffffffffffffffff8111156127da578182fd5b6020830191508360208285010111156127f257600080fd5b9250929050565b60006020828403121561280a578081fd5b8135611433816139b3565b600060208284031215612826578081fd5b8151611433816139b3565b60008060408385031215612843578081fd5b823561284e816139b3565b9150602083013561285e816139b3565b809150509250929050565b60008060006060848603121561287d578081fd5b8335612888816139b3565b92506020840135612898816139b3565b929592945050506040919091013590565b600080604083850312156128bb578182fd5b82356128c6816139b3565b91506020830135801515811461285e578182fd5b60008060008060008060006080888a0312156128f4578283fd5b87356128ff816139b3565b9650602088013567ffffffffffffffff8082111561291b578485fd5b6129278b838c016127b2565b909850965060408a013591508082111561293f578485fd5b61294b8b838c016127b2565b909650945060608a0135915080821115612963578384fd5b506129708a828b016127b2565b989b979a50959850939692959293505050565b600080600080600080600080600080600060e08c8e0312156129a3578384fd5b6129ac8c6127a7565b9a5067ffffffffffffffff8060208e013511156129c7578485fd5b6129d78e60208f01358f016127b2565b909b50995060408d01358110156129ec578485fd5b6129fc8e60408f01358f016127b2565b9099509750612a0d60608e016127a7565b9650612a1b60808e016127a7565b95508060a08e01351115612a2d578485fd5b612a3d8e60a08f01358f016127b2565b909550935060c08d0135811015612a52578283fd5b50612a638d60c08e01358e016127b2565b81935080925050509295989b509295989b9093969950565b60008060408385031215612a8d578182fd5b8235612a98816139b3565b946020939093013593505050565b600060208284031215612ab7578081fd5b5035919050565b600080600060408486031215612ad2578283fd5b83359250602084013567ffffffffffffffff811115612aef578283fd5b612afb868287016127b2565b9497909650939450505050565b600060208284031215612b19578081fd5b8135611433816139c8565b600060208284031215612b35578081fd5b8151611433816139c8565b60008060008060408587031215612b55578182fd5b843567ffffffffffffffff80821115612b6c578384fd5b612b78888389016127b2565b90965094506020870135915080821115612b90578384fd5b50612b9d878288016127b2565b95989497509550505050565b600080600080600080600060a0888a031215612bc3578081fd5b873567ffffffffffffffff80821115612bda578283fd5b612be68b838c016127b2565b909950975060208a0135915080821115612bfe578283fd5b50612c0b8a828b016127b2565b90965094505060408801359250606088013591506080880135612c2d816139b3565b8091505092959891949750929550565b600080600080600060808688031215612c54578283fd5b853594506020860135612c66816139b3565b935060408601359250606086013567ffffffffffffffff811115612c88578182fd5b612c94888289016127b2565b969995985093965092949392505050565b60008284528282602086013780602084860101526020601f19601f85011685010190509392505050565b60008151808452612ce78160208601602086016138f1565b601f01601f19169290920160200192915050565b60609190911b6bffffffffffffffffffffffff1916815260140190565b60008351612d2a8184602088016138f1565b835190830190612d3e8183602088016138f1565b01949350505050565b6001600160a01b0391909116815260200190565b6001600160a01b0385811682528416602082015260408101839052608060608201819052600090612d8e90830184612ccf565b9695505050505050565b6001600160a01b0386168152606060208201819052600090612dbd9083018688612ca5565b8281036040840152612dd0818587612ca5565b98975050505050505050565b6001600160a01b0385168152606060208201819052600090612e0090830186612ccf565b8281036040840152612e13818587612ca5565b979650505050505050565b6001600160a01b03929092168252602082015260400190565b901515815260200190565b90815260200190565b600060208252611d00602083018486612ca5565b6000602082526114336020830184612ccf565b600060a08252612e8660a08301898b612ca5565b8281036020840152612e9981888a612ca5565b6040840196909652505060608101929092526001600160a01b0316608090910152949350505050565b60208082526021908201527f45524337323154656d706c6174653a204e4f542053544f5245205550444154456040820152602960f91b606082015260800190565b6020808252601c908201527f45524337323154656d706c6174653a204e4f542076334d696e74657200000000604082015260600190565b60208082526021908201527f45524337323154656d706c6174653a204e4f54204d455441444154415f524f4c6040820152604560f81b606082015260800190565b6020808252818101527f437265617465323a2062797465636f6465206c656e677468206973207a65726f604082015260600190565b60208082526032908201527f4552433732313a207472616e7366657220746f206e6f6e20455243373231526560408201527131b2b4bb32b91034b6b83632b6b2b73a32b960711b606082015260800190565b6020808252601c908201527f4552433732313a20746f6b656e20616c7265616479206d696e74656400000000604082015260600190565b6020808252601c908201527f45524337323154656d706c6174653a206e6f74204e46544f776e657200000000604082015260600190565b60208082526024908201527f4552433732313a207472616e7366657220746f20746865207a65726f206164646040820152637265737360e01b606082015260800190565b60208082526019908201527f4552433732313a20617070726f766520746f2063616c6c657200000000000000604082015260600190565b6020808252602e908201527f45524337323154656d706c6174653a3a20496e76616c6964206d696e7465722c60408201526d20207a65726f206164647265737360901b606082015260800190565b6020808252602c908201527f4552433732313a206f70657261746f7220717565727920666f72206e6f6e657860408201526b34b9ba32b73a103a37b5b2b760a11b606082015260800190565b6020808252600e908201526d736c6963655f6f766572666c6f7760901b604082015260600190565b60208082526022908201527f45524337323154656d706c6174653a204e4f5420455243323020436f6e74726160408201526118dd60f21b606082015260800190565b6020808252601f908201527f45524337323154656d706c6174653a204e4f54204d494e5445525f524f4c4500604082015260600190565b60208082526038908201527f4552433732313a20617070726f76652063616c6c6572206973206e6f74206f7760408201527f6e6572206e6f7220617070726f76656420666f7220616c6c0000000000000000606082015260800190565b6020808252601d908201527f45524337323154656d706c6174653a204e4f54207633204d494e544552000000604082015260600190565b60208082526028908201527f45524337323154656d706c6174653a204641494c454420544f20534554204e456040820152672b9026a4a72a22a960c11b606082015260800190565b6020808252602a908201527f4552433732313a2062616c616e636520717565727920666f7220746865207a65604082015269726f206164647265737360b01b606082015260800190565b60208082526029908201527f4552433732313a206f776e657220717565727920666f72206e6f6e657869737460408201526832b73a103a37b5b2b760b91b606082015260800190565b60208082526019908201527f437265617465323a204661696c6564206f6e206465706c6f7900000000000000604082015260600190565b6020808252818101527f4552433732313a206d696e7420746f20746865207a65726f2061646472657373604082015260600190565b60208082526025908201527f45524337323154656d706c6174653a204e4f54204f524947494e414c2054454d604082015264504c41544560d81b606082015260800190565b6020808252602c908201527f45524337323154656d706c6174653a204e4f542045524332302056332064617460408201526b30ba37b5b2b71037bbb732b960a11b606082015260800190565b60208082526019908201527f436f756c64206e6f74206465706c6f7920636f6e747261637400000000000000604082015260600190565b6020808252602c908201527f4552433732313a20617070726f76656420717565727920666f72206e6f6e657860408201526b34b9ba32b73a103a37b5b2b760a11b606082015260800190565b602080825260159082015274746f427974657333325f6f75744f66426f756e647360581b604082015260600190565b60208082526029908201527f4552433732313a207472616e73666572206f6620746f6b656e2074686174206960408201526839903737ba1037bbb760b91b606082015260800190565b6020808252602f908201527f4552433732314d657461646174613a2055524920717565727920666f72206e6f60408201526e3732bc34b9ba32b73a103a37b5b2b760891b606082015260800190565b6020808252602c908201527f45524337323154656d706c6174653a2043616e6e6f74207472616e736665722060408201526b1d1a1a5cc81d1bdad95b925960a21b606082015260800190565b60208082526021908201527f4552433732313a20617070726f76616c20746f2063757272656e74206f776e656040820152603960f91b606082015260800190565b60208082526014908201527357726f6e67206f7065726174696f6e207479706560601b604082015260600190565b60208082526031908201527f4552433732313a207472616e736665722063616c6c6572206973206e6f74206f6040820152701ddb995c881b9bdc88185c1c1c9bdd9959607a1b606082015260800190565b602080825260119082015270736c6963655f6f75744f66426f756e647360781b604082015260600190565b60208082526030908201527f45524337323154656d706c6174653a3a204d657461646174612061646472657360408201526f732063616e6e6f74206265207a65726f60801b606082015260800190565b60208082526032908201527f45524337323154656d706c6174653a20746f6b656e20696e7374616e636520616040820152711b1c9958591e481a5b9a5d1a585b1a5e995960721b606082015260800190565b6020808252601f908201527f455243373231526f6c6573416464726573733a204e4f54204d414e4147455200604082015260600190565b60208082526027908201527f45524337323154656d706c6174653a20763344617461746f6b656e206e6f742060408201526615d4905414115160ca1b606082015260800190565b6020808252601d908201527f437265617465323a20696e73756666696369656e742062616c616e6365000000604082015260600190565b600060a08201905082511515825260208301511515602083015260408301511515604083015260608301511515606083015260808301511515608083015292915050565b600082198211156138c1576138c1613987565b500190565b6000826138d5576138d561399d565b500490565b6000828210156138ec576138ec613987565b500390565b60005b8381101561390c5781810151838201526020016138f4565b83811115610f475750506000910152565b60028104600182168061393157607f821691505b6020821081141561395257634e487b7160e01b600052602260045260246000fd5b50919050565b600060001982141561396c5761396c613987565b5060010190565b6000826139825761398261399d565b500690565b634e487b7160e01b600052601160045260246000fd5b634e487b7160e01b600052601260045260246000fd5b6001600160a01b0381168114610c9157600080fd5b6001600160e01b031981168114610c9157600080fdfea66cc928b5edb82af9bd49922954155ab7b0942694bea4ce44661d9a8736c688a2646970667358221220b3a8222e931e2cd2dd89f996e51d5723f5eea360666395c018bc7b2414b823ac64736f6c63430008000033",
  "linkReferences": {},
  "deployedLinkReferences": {}
}