{
  "_format": "hh-sol-artifact-1",
  "contractName": "ERC721Template",
  "sourceName": "contracts/templates/ERC721Template.sol",
  "abi": [
    {
      "anonymous": false,
      "inputs": [
        {
          "indexed": true,
          "internalType": "address",
          "name": "user",
          "type": "address"
        },
        {
          "indexed": true,
          "internalType": "address",
          "name": "signer",
          "type": "address"
        },
        {
          "indexed": false,
          "internalType": "uint256",
          "name": "timestamp",
          "type": "uint256"
        },
        {
          "indexed": false,
          "internalType": "uint256",
          "name": "blockNumber",
          "type": "uint256"
        }
      ],
      "name": "AddedManager",
      "type": "event"
    },
    {
      "anonymous": false,
      "inputs": [
        {
          "indexed": true,
          "internalType": "address",
          "name": "user",
          "type": "address"
        },
        {
          "indexed": true,
          "internalType": "address",
          "name": "signer",
          "type": "address"
        },
        {
          "indexed": false,
          "internalType": "uint256",
          "name": "timestamp",
          "type": "uint256"
        },
        {
          "indexed": false,
          "internalType": "uint256",
          "name": "blockNumber",
          "type": "uint256"
        }
      ],
      "name": "AddedTo725StoreList",
      "type": "event"
    },
    {
      "anonymous": false,
      "inputs": [
        {
          "indexed": true,
          "internalType": "address",
          "name": "user",
          "type": "address"
        },
        {
          "indexed": true,
          "internalType": "address",
          "name": "signer",
          "type": "address"
        },
        {
          "indexed": false,
          "internalType": "uint256",
          "name": "timestamp",
          "type": "uint256"
        },
        {
          "indexed": false,
          "internalType": "uint256",
          "name": "blockNumber",
          "type": "uint256"
        }
      ],
      "name": "AddedToCreateERC20List",
      "type": "event"
    },
    {
      "anonymous": false,
      "inputs": [
        {
          "indexed": true,
          "internalType": "address",
          "name": "user",
          "type": "address"
        },
        {
          "indexed": true,
          "internalType": "address",
          "name": "signer",
          "type": "address"
        },
        {
          "indexed": false,
          "internalType": "uint256",
          "name": "timestamp",
          "type": "uint256"
        },
        {
          "indexed": false,
          "internalType": "uint256",
          "name": "blockNumber",
          "type": "uint256"
        }
      ],
      "name": "AddedToMetadataList",
      "type": "event"
    },
    {
      "anonymous": false,
      "inputs": [
        {
          "indexed": true,
          "internalType": "address",
          "name": "owner",
          "type": "address"
        },
        {
          "indexed": true,
          "internalType": "address",
          "name": "approved",
          "type": "address"
        },
        {
          "indexed": true,
          "internalType": "uint256",
          "name": "tokenId",
          "type": "uint256"
        }
      ],
      "name": "Approval",
      "type": "event"
    },
    {
      "anonymous": false,
      "inputs": [
        {
          "indexed": true,
          "internalType": "address",
          "name": "owner",
          "type": "address"
        },
        {
          "indexed": true,
          "internalType": "address",
          "name": "operator",
          "type": "address"
        },
        {
          "indexed": false,
          "internalType": "bool",
          "name": "approved",
          "type": "bool"
        }
      ],
      "name": "ApprovalForAll",
      "type": "event"
    },
    {
      "anonymous": false,
      "inputs": [
        {
          "indexed": true,
          "internalType": "address",
          "name": "signer",
          "type": "address"
        },
        {
          "indexed": false,
          "internalType": "uint256",
          "name": "timestamp",
          "type": "uint256"
        },
        {
          "indexed": false,
          "internalType": "uint256",
          "name": "blockNumber",
          "type": "uint256"
        }
      ],
      "name": "CleanedPermissions",
      "type": "event"
    },
    {
      "anonymous": false,
      "inputs": [
        {
          "indexed": true,
          "internalType": "address",
          "name": "contractAddress",
          "type": "address"
        }
      ],
      "name": "ContractCreated",
      "type": "event"
    },
    {
      "anonymous": false,
      "inputs": [
        {
          "indexed": true,
          "internalType": "bytes32",
          "name": "key",
          "type": "bytes32"
        },
        {
          "indexed": false,
          "internalType": "bytes",
          "name": "value",
          "type": "bytes"
        }
      ],
      "name": "DataChanged",
      "type": "event"
    },
    {
      "anonymous": false,
      "inputs": [
        {
          "indexed": true,
          "internalType": "uint256",
          "name": "_operation",
          "type": "uint256"
        },
        {
          "indexed": true,
          "internalType": "address",
          "name": "_to",
          "type": "address"
        },
        {
          "indexed": true,
          "internalType": "uint256",
          "name": "_value",
          "type": "uint256"
        },
        {
          "indexed": false,
          "internalType": "bytes",
          "name": "_data",
          "type": "bytes"
        }
      ],
      "name": "Executed",
      "type": "event"
    },
    {
      "anonymous": false,
      "inputs": [
        {
          "indexed": true,
          "internalType": "address",
          "name": "createdBy",
          "type": "address"
        },
        {
          "indexed": false,
          "internalType": "uint8",
          "name": "state",
          "type": "uint8"
        },
        {
          "indexed": false,
          "internalType": "string",
          "name": "decryptorUrl",
          "type": "string"
        },
        {
          "indexed": false,
          "internalType": "bytes",
          "name": "flags",
          "type": "bytes"
        },
        {
          "indexed": false,
          "internalType": "bytes",
          "name": "data",
          "type": "bytes"
        },
        {
          "indexed": false,
          "internalType": "bytes32",
          "name": "metaDataHash",
          "type": "bytes32"
        },
        {
          "indexed": false,
          "internalType": "uint256",
          "name": "timestamp",
          "type": "uint256"
        },
        {
          "indexed": false,
          "internalType": "uint256",
          "name": "blockNumber",
          "type": "uint256"
        }
      ],
      "name": "MetadataCreated",
      "type": "event"
    },
    {
      "anonymous": false,
      "inputs": [
        {
          "indexed": true,
          "internalType": "address",
          "name": "updatedBy",
          "type": "address"
        },
        {
          "indexed": false,
          "internalType": "uint8",
          "name": "state",
          "type": "uint8"
        },
        {
          "indexed": false,
          "internalType": "uint256",
          "name": "timestamp",
          "type": "uint256"
        },
        {
          "indexed": false,
          "internalType": "uint256",
          "name": "blockNumber",
          "type": "uint256"
        }
      ],
      "name": "MetadataState",
      "type": "event"
    },
    {
      "anonymous": false,
      "inputs": [
        {
          "indexed": true,
          "internalType": "address",
          "name": "updatedBy",
          "type": "address"
        },
        {
          "indexed": false,
          "internalType": "uint8",
          "name": "state",
          "type": "uint8"
        },
        {
          "indexed": false,
          "internalType": "string",
          "name": "decryptorUrl",
          "type": "string"
        },
        {
          "indexed": false,
          "internalType": "bytes",
          "name": "flags",
          "type": "bytes"
        },
        {
          "indexed": false,
          "internalType": "bytes",
          "name": "data",
          "type": "bytes"
        },
        {
          "indexed": false,
          "internalType": "bytes32",
          "name": "metaDataHash",
          "type": "bytes32"
        },
        {
          "indexed": false,
          "internalType": "uint256",
          "name": "timestamp",
          "type": "uint256"
        },
        {
          "indexed": false,
          "internalType": "uint256",
          "name": "blockNumber",
          "type": "uint256"
        }
      ],
      "name": "MetadataUpdated",
      "type": "event"
    },
    {
      "anonymous": false,
      "inputs": [
        {
          "indexed": true,
          "internalType": "address",
          "name": "validator",
          "type": "address"
        },
        {
          "indexed": false,
          "internalType": "bytes32",
          "name": "metaDataHash",
          "type": "bytes32"
        },
        {
          "indexed": false,
          "internalType": "uint8",
          "name": "v",
          "type": "uint8"
        },
        {
          "indexed": false,
          "internalType": "bytes32",
          "name": "r",
          "type": "bytes32"
        },
        {
          "indexed": false,
          "internalType": "bytes32",
          "name": "s",
          "type": "bytes32"
        }
      ],
      "name": "MetadataValidated",
      "type": "event"
    },
    {
      "anonymous": false,
      "inputs": [
        {
          "indexed": true,
          "internalType": "address",
          "name": "user",
          "type": "address"
        },
        {
          "indexed": true,
          "internalType": "address",
          "name": "signer",
          "type": "address"
        },
        {
          "indexed": false,
          "internalType": "uint256",
          "name": "timestamp",
          "type": "uint256"
        },
        {
          "indexed": false,
          "internalType": "uint256",
          "name": "blockNumber",
          "type": "uint256"
        }
      ],
      "name": "RemovedFrom725StoreList",
      "type": "event"
    },
    {
      "anonymous": false,
      "inputs": [
        {
          "indexed": true,
          "internalType": "address",
          "name": "user",
          "type": "address"
        },
        {
          "indexed": true,
          "internalType": "address",
          "name": "signer",
          "type": "address"
        },
        {
          "indexed": false,
          "internalType": "uint256",
          "name": "timestamp",
          "type": "uint256"
        },
        {
          "indexed": false,
          "internalType": "uint256",
          "name": "blockNumber",
          "type": "uint256"
        }
      ],
      "name": "RemovedFromCreateERC20List",
      "type": "event"
    },
    {
      "anonymous": false,
      "inputs": [
        {
          "indexed": true,
          "internalType": "address",
          "name": "user",
          "type": "address"
        },
        {
          "indexed": true,
          "internalType": "address",
          "name": "signer",
          "type": "address"
        },
        {
          "indexed": false,
          "internalType": "uint256",
          "name": "timestamp",
          "type": "uint256"
        },
        {
          "indexed": false,
          "internalType": "uint256",
          "name": "blockNumber",
          "type": "uint256"
        }
      ],
      "name": "RemovedFromMetadataList",
      "type": "event"
    },
    {
      "anonymous": false,
      "inputs": [
        {
          "indexed": true,
          "internalType": "address",
          "name": "user",
          "type": "address"
        },
        {
          "indexed": true,
          "internalType": "address",
          "name": "signer",
          "type": "address"
        },
        {
          "indexed": false,
          "internalType": "uint256",
          "name": "timestamp",
          "type": "uint256"
        },
        {
          "indexed": false,
          "internalType": "uint256",
          "name": "blockNumber",
          "type": "uint256"
        }
      ],
      "name": "RemovedManager",
      "type": "event"
    },
    {
      "anonymous": false,
      "inputs": [
        {
          "indexed": true,
          "internalType": "address",
          "name": "newTokenAddress",
          "type": "address"
        },
        {
          "indexed": true,
          "internalType": "address",
          "name": "templateAddress",
          "type": "address"
        },
        {
          "indexed": false,
          "internalType": "string",
          "name": "name",
          "type": "string"
        },
        {
          "indexed": false,
          "internalType": "string",
          "name": "symbol",
          "type": "string"
        },
        {
          "indexed": false,
          "internalType": "uint256",
          "name": "cap",
          "type": "uint256"
        },
        {
          "indexed": false,
          "internalType": "address",
          "name": "creator",
          "type": "address"
        }
      ],
      "name": "TokenCreated",
      "type": "event"
    },
    {
      "anonymous": false,
      "inputs": [
        {
          "indexed": true,
          "internalType": "address",
          "name": "updatedBy",
          "type": "address"
        },
        {
          "indexed": false,
          "internalType": "string",
          "name": "tokenURI",
          "type": "string"
        },
        {
          "indexed": false,
          "internalType": "uint256",
          "name": "tokenID",
          "type": "uint256"
        },
        {
          "indexed": false,
          "internalType": "uint256",
          "name": "timestamp",
          "type": "uint256"
        },
        {
          "indexed": false,
          "internalType": "uint256",
          "name": "blockNumber",
          "type": "uint256"
        }
      ],
      "name": "TokenURIUpdate",
      "type": "event"
    },
    {
      "anonymous": false,
      "inputs": [
        {
          "indexed": true,
          "internalType": "address",
          "name": "from",
          "type": "address"
        },
        {
          "indexed": true,
          "internalType": "address",
          "name": "to",
          "type": "address"
        },
        {
          "indexed": true,
          "internalType": "uint256",
          "name": "tokenId",
          "type": "uint256"
        }
      ],
      "name": "Transfer",
      "type": "event"
    },
    {
      "stateMutability": "payable",
      "type": "fallback"
    },
    {
      "inputs": [
        {
          "internalType": "address",
          "name": "_managerAddress",
          "type": "address"
        }
      ],
      "name": "addManager",
      "outputs": [],
      "stateMutability": "nonpayable",
      "type": "function"
    },
    {
      "inputs": [
        {
          "internalType": "address",
          "name": "_allowedAddress",
          "type": "address"
        }
      ],
      "name": "addTo725StoreList",
      "outputs": [],
      "stateMutability": "nonpayable",
      "type": "function"
    },
    {
      "inputs": [
        {
          "internalType": "address",
          "name": "_allowedAddress",
          "type": "address"
        }
      ],
      "name": "addToCreateERC20List",
      "outputs": [],
      "stateMutability": "nonpayable",
      "type": "function"
    },
    {
      "inputs": [
        {
          "internalType": "address",
          "name": "_allowedAddress",
          "type": "address"
        }
      ],
      "name": "addToMetadataList",
      "outputs": [],
      "stateMutability": "nonpayable",
      "type": "function"
    },
    {
      "inputs": [
        {
          "internalType": "address",
          "name": "to",
          "type": "address"
        },
        {
          "internalType": "uint256",
          "name": "tokenId",
          "type": "uint256"
        }
      ],
      "name": "approve",
      "outputs": [],
      "stateMutability": "nonpayable",
      "type": "function"
    },
    {
      "inputs": [
        {
          "internalType": "uint256",
          "name": "",
          "type": "uint256"
        }
      ],
      "name": "auth",
      "outputs": [
        {
          "internalType": "address",
          "name": "",
          "type": "address"
        }
      ],
      "stateMutability": "view",
      "type": "function"
    },
    {
      "inputs": [
        {
          "internalType": "address",
          "name": "owner",
          "type": "address"
        }
      ],
      "name": "balanceOf",
      "outputs": [
        {
          "internalType": "uint256",
          "name": "",
          "type": "uint256"
        }
      ],
      "stateMutability": "view",
      "type": "function"
    },
    {
      "inputs": [],
      "name": "baseURI",
      "outputs": [
        {
          "internalType": "string",
          "name": "",
          "type": "string"
        }
      ],
      "stateMutability": "view",
      "type": "function"
    },
    {
      "inputs": [],
      "name": "cleanPermissions",
      "outputs": [],
      "stateMutability": "nonpayable",
      "type": "function"
    },
    {
      "inputs": [
        {
          "internalType": "uint256",
          "name": "_templateIndex",
          "type": "uint256"
        },
        {
          "internalType": "string[]",
          "name": "strings",
          "type": "string[]"
        },
        {
          "internalType": "address[]",
          "name": "addresses",
          "type": "address[]"
        },
        {
          "internalType": "uint256[]",
          "name": "uints",
          "type": "uint256[]"
        },
        {
          "internalType": "bytes[]",
          "name": "bytess",
          "type": "bytes[]"
        }
      ],
      "name": "createERC20",
      "outputs": [
        {
          "internalType": "address",
          "name": "",
          "type": "address"
        }
      ],
      "stateMutability": "nonpayable",
      "type": "function"
    },
    {
      "inputs": [
        {
          "internalType": "uint256",
          "name": "_operation",
          "type": "uint256"
        },
        {
          "internalType": "address",
          "name": "_to",
          "type": "address"
        },
        {
          "internalType": "uint256",
          "name": "_value",
          "type": "uint256"
        },
        {
          "internalType": "bytes",
          "name": "_data",
          "type": "bytes"
        }
      ],
      "name": "executeCall",
      "outputs": [],
      "stateMutability": "payable",
      "type": "function"
    },
    {
      "inputs": [
        {
          "internalType": "uint256",
          "name": "tokenId",
          "type": "uint256"
        }
      ],
      "name": "getApproved",
      "outputs": [
        {
          "internalType": "address",
          "name": "",
          "type": "address"
        }
      ],
      "stateMutability": "view",
      "type": "function"
    },
    {
      "inputs": [
        {
          "internalType": "bytes32",
          "name": "_key",
          "type": "bytes32"
        }
      ],
      "name": "getData",
      "outputs": [
        {
          "internalType": "bytes",
          "name": "_value",
          "type": "bytes"
        }
      ],
      "stateMutability": "view",
      "type": "function"
    },
    {
      "inputs": [],
      "name": "getId",
      "outputs": [
        {
          "internalType": "uint8",
          "name": "",
          "type": "uint8"
        }
      ],
      "stateMutability": "pure",
      "type": "function"
    },
    {
      "inputs": [],
      "name": "getMetaData",
      "outputs": [
        {
          "internalType": "string",
          "name": "",
          "type": "string"
        },
        {
          "internalType": "string",
          "name": "",
          "type": "string"
        },
        {
          "internalType": "uint8",
          "name": "",
          "type": "uint8"
        },
        {
          "internalType": "bool",
          "name": "",
          "type": "bool"
        }
      ],
      "stateMutability": "view",
      "type": "function"
    },
    {
      "inputs": [
        {
          "internalType": "address",
          "name": "user",
          "type": "address"
        }
      ],
      "name": "getPermissions",
      "outputs": [
        {
          "components": [
            {
              "internalType": "bool",
              "name": "manager",
              "type": "bool"
            },
            {
              "internalType": "bool",
              "name": "deployERC20",
              "type": "bool"
            },
            {
              "internalType": "bool",
              "name": "updateMetadata",
              "type": "bool"
            },
            {
              "internalType": "bool",
              "name": "store",
              "type": "bool"
            }
          ],
          "internalType": "struct ERC721RolesAddress.Roles",
          "name": "",
          "type": "tuple"
        }
      ],
      "stateMutability": "view",
      "type": "function"
    },
    {
      "inputs": [],
      "name": "getTokensList",
      "outputs": [
        {
          "internalType": "address[]",
          "name": "",
          "type": "address[]"
        }
      ],
      "stateMutability": "view",
      "type": "function"
    },
    {
      "inputs": [],
      "name": "hasMetaData",
      "outputs": [
        {
          "internalType": "bool",
          "name": "",
          "type": "bool"
        }
      ],
      "stateMutability": "view",
      "type": "function"
    },
    {
      "inputs": [
        {
          "internalType": "address",
          "name": "owner",
          "type": "address"
        },
        {
          "internalType": "string",
          "name": "name_",
          "type": "string"
        },
        {
          "internalType": "string",
          "name": "symbol_",
          "type": "string"
        },
        {
          "internalType": "address",
          "name": "tokenFactory",
          "type": "address"
        },
        {
          "internalType": "address",
          "name": "additionalERC20Deployer",
          "type": "address"
        },
        {
          "internalType": "address",
          "name": "additionalMetaDataUpdater",
          "type": "address"
        },
        {
          "internalType": "string",
          "name": "tokenURI",
          "type": "string"
        }
      ],
      "name": "initialize",
      "outputs": [
        {
          "internalType": "bool",
          "name": "",
          "type": "bool"
        }
      ],
      "stateMutability": "nonpayable",
      "type": "function"
    },
    {
      "inputs": [
        {
          "internalType": "address",
          "name": "owner",
          "type": "address"
        },
        {
          "internalType": "address",
          "name": "operator",
          "type": "address"
        }
      ],
      "name": "isApprovedForAll",
      "outputs": [
        {
          "internalType": "bool",
          "name": "",
          "type": "bool"
        }
      ],
      "stateMutability": "view",
      "type": "function"
    },
    {
      "inputs": [
        {
          "internalType": "address",
          "name": "datatoken",
          "type": "address"
        }
      ],
      "name": "isDeployed",
      "outputs": [
        {
          "internalType": "bool",
          "name": "",
          "type": "bool"
        }
      ],
      "stateMutability": "view",
      "type": "function"
    },
    {
      "inputs": [
        {
          "internalType": "address",
          "name": "account",
          "type": "address"
        }
      ],
      "name": "isERC20Deployer",
      "outputs": [
        {
          "internalType": "bool",
          "name": "",
          "type": "bool"
        }
      ],
      "stateMutability": "view",
      "type": "function"
    },
    {
      "inputs": [],
      "name": "isInitialized",
      "outputs": [
        {
          "internalType": "bool",
          "name": "",
          "type": "bool"
        }
      ],
      "stateMutability": "view",
      "type": "function"
    },
    {
      "inputs": [],
      "name": "metaDataDecryptorAddress",
      "outputs": [
        {
          "internalType": "string",
          "name": "",
          "type": "string"
        }
      ],
      "stateMutability": "view",
      "type": "function"
    },
    {
      "inputs": [],
      "name": "metaDataDecryptorUrl",
      "outputs": [
        {
          "internalType": "string",
          "name": "",
          "type": "string"
        }
      ],
      "stateMutability": "view",
      "type": "function"
    },
    {
      "inputs": [],
      "name": "metaDataState",
      "outputs": [
        {
          "internalType": "uint8",
          "name": "",
          "type": "uint8"
        }
      ],
      "stateMutability": "view",
      "type": "function"
    },
    {
      "inputs": [],
      "name": "name",
      "outputs": [
        {
          "internalType": "string",
          "name": "",
          "type": "string"
        }
      ],
      "stateMutability": "view",
      "type": "function"
    },
    {
      "inputs": [
        {
          "internalType": "uint256",
          "name": "tokenId",
          "type": "uint256"
        }
      ],
      "name": "ownerOf",
      "outputs": [
        {
          "internalType": "address",
          "name": "",
          "type": "address"
        }
      ],
      "stateMutability": "view",
      "type": "function"
    },
    {
      "inputs": [
        {
          "internalType": "address",
          "name": "_allowedAddress",
          "type": "address"
        }
      ],
      "name": "removeFrom725StoreList",
      "outputs": [],
      "stateMutability": "nonpayable",
      "type": "function"
    },
    {
      "inputs": [
        {
          "internalType": "address",
          "name": "_allowedAddress",
          "type": "address"
        }
      ],
      "name": "removeFromCreateERC20List",
      "outputs": [],
      "stateMutability": "nonpayable",
      "type": "function"
    },
    {
      "inputs": [
        {
          "internalType": "address",
          "name": "_allowedAddress",
          "type": "address"
        }
      ],
      "name": "removeFromMetadataList",
      "outputs": [],
      "stateMutability": "nonpayable",
      "type": "function"
    },
    {
      "inputs": [
        {
          "internalType": "address",
          "name": "_managerAddress",
          "type": "address"
        }
      ],
      "name": "removeManager",
      "outputs": [],
      "stateMutability": "nonpayable",
      "type": "function"
    },
    {
      "inputs": [
        {
          "internalType": "address",
          "name": "from",
          "type": "address"
        },
        {
          "internalType": "address",
          "name": "to",
          "type": "address"
        },
        {
          "internalType": "uint256",
          "name": "tokenId",
          "type": "uint256"
        }
      ],
      "name": "safeTransferFrom",
      "outputs": [],
      "stateMutability": "nonpayable",
      "type": "function"
    },
    {
      "inputs": [
        {
          "internalType": "address",
          "name": "operator",
          "type": "address"
        },
        {
          "internalType": "bool",
          "name": "approved",
          "type": "bool"
        }
      ],
      "name": "setApprovalForAll",
      "outputs": [],
      "stateMutability": "nonpayable",
      "type": "function"
    },
    {
      "inputs": [
        {
          "internalType": "string",
          "name": "_baseURI",
          "type": "string"
        }
      ],
      "name": "setBaseURI",
      "outputs": [],
      "stateMutability": "nonpayable",
      "type": "function"
    },
    {
      "inputs": [
        {
          "internalType": "bytes32",
          "name": "_key",
          "type": "bytes32"
        },
        {
          "internalType": "bytes",
          "name": "_value",
          "type": "bytes"
        }
      ],
      "name": "setDataERC20",
      "outputs": [],
      "stateMutability": "nonpayable",
      "type": "function"
    },
    {
      "inputs": [
        {
          "internalType": "uint8",
          "name": "_metaDataState",
          "type": "uint8"
        },
        {
          "internalType": "string",
          "name": "_metaDataDecryptorUrl",
          "type": "string"
        },
        {
          "internalType": "string",
          "name": "_metaDataDecryptorAddress",
          "type": "string"
        },
        {
          "internalType": "bytes",
          "name": "flags",
          "type": "bytes"
        },
        {
          "internalType": "bytes",
          "name": "data",
          "type": "bytes"
        },
        {
          "internalType": "bytes32",
          "name": "_metaDataHash",
          "type": "bytes32"
        },
        {
          "components": [
            {
              "internalType": "address",
              "name": "validatorAddress",
              "type": "address"
            },
            {
              "internalType": "uint8",
              "name": "v",
              "type": "uint8"
            },
            {
              "internalType": "bytes32",
              "name": "r",
              "type": "bytes32"
            },
            {
              "internalType": "bytes32",
              "name": "s",
              "type": "bytes32"
            }
          ],
          "internalType": "struct ERC721Template.metaDataProof[]",
          "name": "_metadataProofs",
          "type": "tuple[]"
        }
      ],
      "name": "setMetaData",
      "outputs": [],
      "stateMutability": "nonpayable",
      "type": "function"
    },
    {
      "inputs": [
        {
          "components": [
            {
              "internalType": "uint8",
              "name": "metaDataState",
              "type": "uint8"
            },
            {
              "internalType": "string",
              "name": "metaDataDecryptorUrl",
              "type": "string"
            },
            {
              "internalType": "string",
              "name": "metaDataDecryptorAddress",
              "type": "string"
            },
            {
              "internalType": "bytes",
              "name": "flags",
              "type": "bytes"
            },
            {
              "internalType": "bytes",
              "name": "data",
              "type": "bytes"
            },
            {
              "internalType": "bytes32",
              "name": "metaDataHash",
              "type": "bytes32"
            },
            {
              "internalType": "uint256",
              "name": "tokenId",
              "type": "uint256"
            },
            {
              "internalType": "string",
              "name": "tokenURI",
              "type": "string"
            },
            {
              "components": [
                {
                  "internalType": "address",
                  "name": "validatorAddress",
                  "type": "address"
                },
                {
                  "internalType": "uint8",
                  "name": "v",
                  "type": "uint8"
                },
                {
                  "internalType": "bytes32",
                  "name": "r",
                  "type": "bytes32"
                },
                {
                  "internalType": "bytes32",
                  "name": "s",
                  "type": "bytes32"
                }
              ],
              "internalType": "struct ERC721Template.metaDataProof[]",
              "name": "metadataProofs",
              "type": "tuple[]"
            }
          ],
          "internalType": "struct ERC721Template.metaDataAndTokenURI",
          "name": "_metaDataAndTokenURI",
          "type": "tuple"
        }
      ],
      "name": "setMetaDataAndTokenURI",
      "outputs": [],
      "stateMutability": "nonpayable",
      "type": "function"
    },
    {
      "inputs": [
        {
          "internalType": "uint8",
          "name": "_metaDataState",
          "type": "uint8"
        }
      ],
      "name": "setMetaDataState",
      "outputs": [],
      "stateMutability": "nonpayable",
      "type": "function"
    },
    {
      "inputs": [
        {
          "internalType": "bytes32",
          "name": "_key",
          "type": "bytes32"
        },
        {
          "internalType": "bytes",
          "name": "_value",
          "type": "bytes"
        }
      ],
      "name": "setNewData",
      "outputs": [],
      "stateMutability": "nonpayable",
      "type": "function"
    },
    {
      "inputs": [
        {
          "internalType": "uint256",
          "name": "tokenId",
          "type": "uint256"
        },
        {
          "internalType": "string",
          "name": "tokenURI",
          "type": "string"
        }
      ],
      "name": "setTokenURI",
      "outputs": [],
      "stateMutability": "nonpayable",
      "type": "function"
    },
    {
      "inputs": [],
      "name": "ssContract",
      "outputs": [
        {
          "internalType": "address",
          "name": "",
          "type": "address"
        }
      ],
      "stateMutability": "view",
      "type": "function"
    },
    {
      "inputs": [
        {
          "internalType": "bytes4",
          "name": "interfaceId",
          "type": "bytes4"
        }
      ],
      "name": "supportsInterface",
      "outputs": [
        {
          "internalType": "bool",
          "name": "",
          "type": "bool"
        }
      ],
      "stateMutability": "view",
      "type": "function"
    },
    {
      "inputs": [],
      "name": "symbol",
      "outputs": [
        {
          "internalType": "string",
          "name": "",
          "type": "string"
        }
      ],
      "stateMutability": "view",
      "type": "function"
    },
    {
      "inputs": [
        {
          "internalType": "uint256",
          "name": "index",
          "type": "uint256"
        }
      ],
      "name": "tokenByIndex",
      "outputs": [
        {
          "internalType": "uint256",
          "name": "",
          "type": "uint256"
        }
      ],
      "stateMutability": "view",
      "type": "function"
    },
    {
      "inputs": [
        {
          "internalType": "address",
          "name": "owner",
          "type": "address"
        },
        {
          "internalType": "uint256",
          "name": "index",
          "type": "uint256"
        }
      ],
      "name": "tokenOfOwnerByIndex",
      "outputs": [
        {
          "internalType": "uint256",
          "name": "",
          "type": "uint256"
        }
      ],
      "stateMutability": "view",
      "type": "function"
    },
    {
      "inputs": [
        {
          "internalType": "uint256",
          "name": "tokenId",
          "type": "uint256"
        }
      ],
      "name": "tokenURI",
      "outputs": [
        {
          "internalType": "string",
          "name": "",
          "type": "string"
        }
      ],
      "stateMutability": "view",
      "type": "function"
    },
    {
      "inputs": [],
      "name": "totalSupply",
      "outputs": [
        {
          "internalType": "uint256",
          "name": "",
          "type": "uint256"
        }
      ],
      "stateMutability": "view",
      "type": "function"
    },
    {
      "inputs": [
        {
          "internalType": "address",
          "name": "from",
          "type": "address"
        },
        {
          "internalType": "address",
          "name": "to",
          "type": "address"
        },
        {
          "internalType": "uint256",
          "name": "tokenId",
          "type": "uint256"
        }
      ],
      "name": "transferFrom",
      "outputs": [],
      "stateMutability": "nonpayable",
      "type": "function"
    },
    {
      "inputs": [],
      "name": "withdrawETH",
      "outputs": [],
      "stateMutability": "payable",
      "type": "function"
    }
  ],
  "bytecode": "0x60806040523480156200001157600080fd5b50604080518082018252600881526754656d706c61746560c01b6020808301919091528251808401909352600e83526d15195b5c1b185d1954de5b589bdb60921b9083015290620000696301ffc9a760e01b620000d1565b81516200007e9060019060208501906200018d565b508051620000949060029060208401906200018d565b506200009f62000155565b50620000b49050632260147f60e11b620000d1565b620000c6632bd57b7360e01b620000d1565b6001600d5562000270565b6001600160e01b03198082161415620001305760405162461bcd60e51b815260206004820152601c60248201527f4552433136353a20696e76616c696420696e7465726661636520696400000000604482015260640160405180910390fd5b6001600160e01b0319166000908152602081905260409020805460ff19166001179055565b620001676380ac58cd60e01b620000d1565b62000179635b5e139f60e01b620000d1565b6200018b63780e9d6360e01b620000d1565b565b8280546200019b9062000233565b90600052602060002090601f016020900481019282620001bf57600085556200020a565b82601f10620001da57805160ff19168380011785556200020a565b828001600101855582156200020a579182015b828111156200020a578251825591602001919060010190620001ed565b50620002189291506200021c565b5090565b5b808211156200021857600081556001016200021d565b600181811c908216806200024857607f821691505b602082108114156200026a57634e487b7160e01b600052602260045260246000fd5b50919050565b614bbb80620002806000396000f3fe6080604052600436106102ae5760003560e01c80634f6ccce71161016657806396fb3eaf116100d3578063ccd7d4761161008f578063e086e5ec1161006c578063e086e5ec14610966578063e38d7cad1461096e578063e985e9c51461098e578063fe1ec880146109d757005b8063ccd7d47614610908578063d2786ba414610922578063d8053ad31461094757005b806396fb3eaf14610837578063a22cb46514610875578063ac18de4314610895578063b0c41ead146108b5578063c55f8126146108d5578063c87b56dd146108e857005b80636c0360eb116101225780636c0360eb1461077f57806370a082311461079457806382cf129d146107b457806390184b02146107c9578063947fcb831461080257806395d89b411461082257005b80634f6ccce7146106bd57806354f6127f146106dd57806355f804b3146106fd5780635d1ca6311461071d5780636352211e1461073f57806367530a611461075f57005b80631aa3adf91161021c57806342842e0e116101d8578063467c97f5116101b5578063467c97f5146106485780634a63740a146106685780634b2ee5e9146106885780634f189cb2146106a857005b806342842e0e146105e6578063431053ac14610606578063466bca021461062657005b80631aa3adf91461052e57806323b872dd1461054e578063273e06b31461056e5780632d06177a1461058e5780632f745c59146105ae578063392e53cd146105ce57005b806310c558bf1161026b57806310c558bf146103ae578063160a7925146103ce578063162094c4146104ab57806318160ddd146104cb57806319a18a85146104ee57806319c186e51461050e57005b806301ffc9a7146102b057806306fdde03146102ff578063081812fc14610321578063095ea7b3146103595780630e05662e146103795780630e57c7e81461038e575b005b3480156102bc57600080fd5b506102ea6102cb366004613bf9565b6001600160e01b03191660009081526020819052604090205460ff1690565b60405190151581526020015b60405180910390f35b34801561030b57600080fd5b506103146109f7565b6040516102f69190613c6e565b34801561032d57600080fd5b5061034161033c366004613c81565b610a89565b6040516001600160a01b0390911681526020016102f6565b34801561036557600080fd5b506102ae610374366004613cbf565b610b16565b34801561038557600080fd5b50610314610c2c565b34801561039a57600080fd5b506102ae6103a9366004613d2c565b610cba565b3480156103ba57600080fd5b506102ae6103c9366004613d77565b610d2f565b3480156103da57600080fd5b506104706103e9366004613d77565b604080516080810182526000808252602082018190529181018290526060810191909152506001600160a01b03166000908152600a60209081526040918290208251608081018452905460ff808216151583526101008204811615159383019390935262010000810483161515938201939093526301000000909204161515606082015290565b6040516102f6919081511515815260208083015115159082015260408083015115159082015260609182015115159181019190915260800190565b3480156104b757600080fd5b506102ae6104c6366004613e49565b610e02565b3480156104d757600080fd5b506104e0610e90565b6040519081526020016102f6565b3480156104fa57600080fd5b506102ae610509366004613e8f565b610ea1565b34801561051a57600080fd5b506102ae610529366004613d77565b610fd5565b34801561053a57600080fd5b506102ae610549366004613fd6565b61109e565b34801561055a57600080fd5b506102ae6105693660046140dd565b6110f3565b34801561057a57600080fd5b506102ae610589366004613d77565b6111c8565b34801561059a57600080fd5b506102ae6105a9366004613d77565b6112fe565b3480156105ba57600080fd5b506104e06105c9366004613cbf565b611341565b3480156105da57600080fd5b5060105460ff166102ea565b3480156105f257600080fd5b506102ae6106013660046140dd565b61136c565b34801561061257600080fd5b506102ae610621366004613d77565b611446565b34801561063257600080fd5b5061063b61157b565b6040516102f6919061411e565b34801561065457600080fd5b506102ae61066336600461416b565b6115dc565b34801561067457600080fd5b506102ae610683366004613d77565b611667565b34801561069457600080fd5b50601554610341906001600160a01b031681565b3480156106b457600080fd5b506102ae61172c565b3480156106c957600080fd5b506104e06106d8366004613c81565b611770565b3480156106e957600080fd5b506103146106f8366004613c81565b611786565b34801561070957600080fd5b506102ae610718366004614186565b611828565b34801561072957600080fd5b5060015b60405160ff90911681526020016102f6565b34801561074b57600080fd5b5061034161075a366004613c81565b611879565b34801561076b57600080fd5b506102ae61077a366004613d2c565b6118a1565b34801561078b57600080fd5b50610314611911565b3480156107a057600080fd5b506104e06107af366004613d77565b61191b565b3480156107c057600080fd5b506103146119a7565b3480156107d557600080fd5b506102ea6107e4366004613d77565b6001600160a01b031660009081526016602052604090205460ff1690565b34801561080e57600080fd5b506102ea61081d3660046141ba565b6119b4565b34801561082e57600080fd5b50610314611b07565b34801561084357600080fd5b506102ea610852366004613d77565b6001600160a01b03166000908152600a6020526040902054610100900460ff1690565b34801561088157600080fd5b506102ae610890366004614295565b611b16565b3480156108a157600080fd5b506102ae6108b0366004613d77565b611bd4565b3480156108c157600080fd5b506103416108d0366004613c81565b611c17565b6102ae6108e33660046142d3565b611c41565b3480156108f457600080fd5b50610314610903366004613c81565b611c89565b34801561091457600080fd5b5060135461072d9060ff1681565b34801561092e57600080fd5b50610937611dd7565b6040516102f6949392919061433c565b34801561095357600080fd5b506010546102ea90610100900460ff1681565b6102ae611f27565b34801561097a57600080fd5b506103416109893660046143c1565b611f69565b34801561099a57600080fd5b506102ea6109a9366004614490565b6001600160a01b03918216600090815260086020908152604080832093909416825291909152205460ff1690565b3480156109e357600080fd5b506102ae6109f2366004613d77565b612139565b6060600e8054610a06906144be565b80601f0160208091040260200160405190810160405280929190818152602001828054610a32906144be565b8015610a7f5780601f10610a5457610100808354040283529160200191610a7f565b820191906000526020600020905b815481529060010190602001808311610a6257829003601f168201915b5050505050905090565b6000610a9482612269565b610afa5760405162461bcd60e51b815260206004820152602c60248201527f4552433732313a20617070726f76656420717565727920666f72206e6f6e657860448201526b34b9ba32b73a103a37b5b2b760a11b60648201526084015b60405180910390fd5b506000908152600760205260409020546001600160a01b031690565b6000610b2182611879565b9050806001600160a01b0316836001600160a01b03161415610b8f5760405162461bcd60e51b815260206004820152602160248201527f4552433732313a20617070726f76616c20746f2063757272656e74206f776e656044820152603960f91b6064820152608401610af1565b336001600160a01b0382161480610bab5750610bab81336109a9565b610c1d5760405162461bcd60e51b815260206004820152603860248201527f4552433732313a20617070726f76652063616c6c6572206973206e6f74206f7760448201527f6e6572206e6f7220617070726f76656420666f7220616c6c00000000000000006064820152608401610af1565b610c278383612276565b505050565b60128054610c39906144be565b80601f0160208091040260200160405190810160405280929190818152602001828054610c65906144be565b8015610cb25780601f10610c8757610100808354040283529160200191610cb2565b820191906000526020600020905b815481529060010190602001808311610c9557829003601f168201915b505050505081565b3360009081526016602052604090205460ff16610d245760405162461bcd60e51b815260206004820152602260248201527f45524337323154656d706c6174653a204e4f5420455243323020436f6e74726160448201526118dd60f21b6064820152608401610af1565b610c278383836122e4565b336000908152600a602052604090205460ff161515600114610d635760405162461bcd60e51b8152600401610af1906144f9565b6001600160a01b0381166000818152600a6020526040808220805462ff0000191662010000178155600b80546001810182559352600080516020614b6683398151915290920180546001600160a01b0319168417905551909133917fc2a42571a74ce1442c8c44d375ba9442e7d55d94b37afeace261c83c62128fa490610df69042904390918252602082015260400190565b60405180910390a35050565b610e0b82611879565b6001600160a01b0316336001600160a01b031614610e3b5760405162461bcd60e51b8152600401610af190614530565b610e45828261233d565b336001600160a01b03167f6de6cd3982065cbd31e789e3109106f4d76d1c8a46e85262045cf947fb3fd4ed82844243604051610e849493929190614567565b60405180910390a25050565b6000610e9c60056123c8565b905090565b336000908152600a602052604090205462010000900460ff16610ed65760405162461bcd60e51b8152600401610af190614596565b610f83610ee6602083018361416b565b610ef360208401846145d7565b610f0060408601866145d7565b610f0d60608801886145d7565b610f1a60808a018a6145d7565b60a08b0135610f2d6101008d018d61461d565b808060200260200160405190810160405280939291908181526020016000905b82821015610f7957610f6a60808302860136819003810190614666565b81526020019060010190610f4d565b50505050506123d2565b610fd260c0820135610f9860e08401846145d7565b8080601f016020809104026020016040519081016040528093929190818152602001838380828437600092019190915250610e0292505050565b50565b336000908152600a602052604090205460ff1615156001146110095760405162461bcd60e51b8152600401610af1906144f9565b6001600160a01b0381166000818152600a6020526040808220805463ff00000019166301000000178155600b80546001810182559352600080516020614b6683398151915290920180546001600160a01b0319168417905551909133917feb09276310ed110a7e565d64966d0ff68a47112d2dd5eeb6cbd7451836ce35ee90610df69042904390918252602082015260400190565b336000908152600a602052604090205462010000900460ff166110d35760405162461bcd60e51b8152600401610af190614596565b6110e68b8b8b8b8b8b8b8b8b8b8b6123d2565b5050505050505050505050565b806001146111135760405162461bcd60e51b8152600401610af190614682565b61117d611178601480548060200260200160405190810160405280929190818152602001828054801561116f57602002820191906000526020600020905b81546001600160a01b03168152600190910190602001808311611151575b50505050505190565b6127db565b61118561286c565b61118e8261291d565b6001600160a01b0382166000908152600a60205260409020805463ffffff00191663010101001781556111c28484846129ae565b50505050565b336000908152600a602052604090205460ff161515600114806112195750336001600160a01b0382161480156112195750336000908152600a60205260409020546301000000900460ff1615156001145b15611281576001600160a01b0381166000818152600a602052604090819020805463ff000000191681559051909133917fc929b18b08ffea86a1f95e29384dbe8968f2fcbd70cfd735df3aba1cc548cbf390610df69042904390918252602082015260400190565b60405162461bcd60e51b815260206004820152604660248201527f455243373231526f6c6573416464726573733a204e6f7420656e6f756768207060448201527f65726d697373696f6e7320746f2072656d6f76652066726f6d2037323553746f6064820152651c99531a5cdd60d21b608482015260a401610af1565b6113086001611879565b6001600160a01b0316336001600160a01b0316146113385760405162461bcd60e51b8152600401610af190614530565b610fd28161291d565b6001600160a01b038216600090815260046020526040812061136390836129ef565b90505b92915050565b8060011461138c5760405162461bcd60e51b8152600401610af190614682565b6113ef611178601480548060200260200160405190810160405280929190818152602001828054801561116f576020028201919060005260206000209081546001600160a01b031681526001909101906020018083116111515750505050505190565b6113f761286c565b6114008261291d565b6001600160a01b0382166000908152600a60209081526040808320805463ffffff001916630101010017815581519283019091529181526111c2908590859085906129fb565b336000908152600a602052604090205460ff161515600114806114965750336001600160a01b0382161480156114965750336000908152600a602052604090205462010000900460ff1615156001145b156114fd576001600160a01b0381166000818152600a602052604090819020805462ff0000191681559051909133917f9b41e1311fa819e825bc77fa2568492112e15ea92d173f3f8ee1c8ec3c1c562b90610df69042904390918252602082015260400190565b60405162461bcd60e51b815260206004820152604760248201527f455243373231526f6c6573416464726573733a204e6f7420656e6f756768207060448201527f65726d697373696f6e7320746f2072656d6f76652066726f6d206d65746164616064820152661d18481b1a5cdd60ca1b608482015260a401610af1565b60606014805480602002602001604051908101604052809291908181526020018280548015610a7f57602002820191906000526020600020905b81546001600160a01b031681526001909101906020018083116115b5575050505050905090565b336000908152600a602052604090205462010000900460ff166116115760405162461bcd60e51b8152600401610af190614596565b6013805460ff191660ff831690811790915560408051918252426020830152439082015233907fa8336411cc72db0e5bdc4dff989eeb35879bafaceffb59b54b37645c3395adb99060600160405180910390a250565b336000908152600a602052604090205460ff16151560011461169b5760405162461bcd60e51b8152600401610af1906144f9565b6001600160a01b0381166000818152600a6020526040808220805461ff001916610100178155600b80546001810182559352600080516020614b6683398151915290920180546001600160a01b0319168417905551909133917f0572d56343be407a66810f01449212e8545e14ff5049c479d34be944cdfd0d4f90610df69042904390918252602082015260400190565b6117366001611879565b6001600160a01b0316336001600160a01b0316146117665760405162461bcd60e51b8152600401610af190614530565b61176e61286c565b565b60008061177e600584612a2d565b509392505050565b6000818152600c602052604090208054606091906117a3906144be565b80601f01602080910402602001604051908101604052809291908181526020018280546117cf906144be565b801561181c5780601f106117f15761010080835404028352916020019161181c565b820191906000526020600020905b8154815290600101906020018083116117ff57829003601f168201915b50505050509050919050565b6118326001611879565b6001600160a01b0316336001600160a01b0316146118625760405162461bcd60e51b8152600401610af190614530565b8051611875906003906020840190613abc565b5050565b600061136682604051806060016040528060298152602001614b3d6029913960059190612a4b565b336000908152600a60205260409020546301000000900460ff16610d245760405162461bcd60e51b815260206004820152602160248201527f45524337323154656d706c6174653a204e4f542053544f5245205550444154456044820152602960f91b6064820152608401610af1565b6060610e9c612a62565b60006001600160a01b0382166119865760405162461bcd60e51b815260206004820152602a60248201527f4552433732313a2062616c616e636520717565727920666f7220746865207a65604482015269726f206164647265737360b01b6064820152608401610af1565b6001600160a01b0382166000908152600460205260409020611366906123c8565b60118054610c39906144be565b60105460009060ff1615611a255760405162461bcd60e51b815260206004820152603260248201527f45524337323154656d706c6174653a20746f6b656e20696e7374616e636520616044820152711b1c9958591e481a5b9a5d1a585b1a5e995960721b6064820152608401610af1565b6001600160a01b03841615611a3d57611a3d8461169b565b6001600160a01b03831615611a5557611a5583610d63565b6000611acf8b8b8b8080601f01602080910402602001604051908101604052809392919081815260200183838082843760009201919091525050604080516020601f8f018190048102820181019092528d815292508d91508c90819084018382808284376000920191909152508c9250899150612a719050565b9050611ad9612bb1565b611ae9632260147f60e11b612bdd565b611af9632bd57b7360e01b612bdd565b9a9950505050505050505050565b6060600f8054610a06906144be565b6001600160a01b038216331415611b6f5760405162461bcd60e51b815260206004820152601960248201527f4552433732313a20617070726f766520746f2063616c6c6572000000000000006044820152606401610af1565b3360008181526008602090815260408083206001600160a01b03871680855290835292819020805460ff191686151590811790915590519081529192917f17307eab39ab6107e8899845ad3d59bd9653f200f220920489ca2b5937696c319101610df6565b611bde6001611879565b6001600160a01b0316336001600160a01b031614611c0e5760405162461bcd60e51b8152600401610af190614530565b610fd281612c5c565b600b8181548110611c2757600080fd5b6000918252602090912001546001600160a01b0316905081565b336000908152600a602052604090205460ff161515600114611c755760405162461bcd60e51b8152600401610af1906144f9565b611c828585858585612cbc565b5050505050565b6060611c9482612269565b611cf85760405162461bcd60e51b815260206004820152602f60248201527f4552433732314d657461646174613a2055524920717565727920666f72206e6f60448201526e3732bc34b9ba32b73a103a37b5b2b760891b6064820152608401610af1565b60008281526009602052604081208054611d11906144be565b80601f0160208091040260200160405190810160405280929190818152602001828054611d3d906144be565b8015611d8a5780601f10611d5f57610100808354040283529160200191611d8a565b820191906000526020600020905b815481529060010190602001808311611d6d57829003601f168201915b505050505090506000611d9b612a62565b825190915015611dd0578082604051602001611db89291906146ce565b60405160208183030381529060405292505050919050565b5092915050565b60608060008060116012601360009054906101000a900460ff16601060019054906101000a900460ff16838054611e0d906144be565b80601f0160208091040260200160405190810160405280929190818152602001828054611e39906144be565b8015611e865780601f10611e5b57610100808354040283529160200191611e86565b820191906000526020600020905b815481529060010190602001808311611e6957829003601f168201915b50505050509350828054611e99906144be565b80601f0160208091040260200160405190810160405280929190818152602001828054611ec5906144be565b8015611f125780601f10611ee757610100808354040283529160200191611f12565b820191906000526020600020905b815481529060010190602001808311611ef557829003601f168201915b50505050509250935093509350935090919293565b611f316001611879565b6001600160a01b03166108fc479081150290604051600060405180830381858888f19350505050158015610fd2573d6000803e3d6000fd5b60006002600d541415611fbe5760405162461bcd60e51b815260206004820152601f60248201527f5265656e7472616e637947756172643a207265656e7472616e742063616c6c006044820152606401610af1565b6002600d55336000908152600a6020526040902054610100900460ff166120365760405162461bcd60e51b815260206004820152602660248201527f45524337323154656d706c6174653a204e4f542045524332304445504c4f5945604482015265525f524f4c4560d01b6064820152608401610af1565b601354604051630557fcfb60e41b815260009161010090046001600160a01b03169063557fcfb09061207c908e908e908e908e908e908e908e908e908e90600401614847565b6020604051808303816000875af115801561209b573d6000803e3d6000fd5b505050506040513d601f19601f820116820180604052508101906120bf91906148f8565b6001600160a01b0381166000818152601660205260408120805460ff191660019081179091556014805491820181559091527fce6d7b5282bd9a3661ae061feed1dbda4e52ab073b1f9285be6e155d9c38d4ec0180546001600160a01b03191690911790559150506001600d559998505050505050505050565b336000908152600a602052604090205460ff161515600114806121895750336001600160a01b0382161480156121895750336000908152600a602052604090205460ff6101009091041615156001145b156121ef576001600160a01b0381166000818152600a602052604090819020805461ff00191681559051909133917f59bd33f4c27cc16a2d74450e1fa43d7896020be9aecea4bee009db9294de899790610df69042904390918252602082015260400190565b60405162461bcd60e51b815260206004820152604360248201527f455243373231526f6c6573416464726573733a204e6f7420656e6f756768207060448201527f65726d697373696f6e7320746f2072656d6f76652066726f6d2045524332304c6064820152621a5cdd60ea1b608482015260a401610af1565b6000611366600583612ee5565b600081815260076020526040902080546001600160a01b0319166001600160a01b03841690811790915581906122ab82611879565b6001600160a01b03167f8c5be1e5ebec7d5bd14f71427d1e84f3dd0314c0f7b2291e5b200ac8c7c3b92560405160405180910390a45050565b6000838152600c602052604090206122fd908383613b40565b50827fece574603820d07bc9b91f2a932baadf4628aabcb8afba49776529c14a6104b28383604051612330929190614915565b60405180910390a2505050565b61234682612269565b6123a95760405162461bcd60e51b815260206004820152602e60248201527f45524337323155524953746f726167653a2055524920736574206f66206e6f6e60448201526d32bc34b9ba32b73a103a37b5b2b760911b6064820152608401610af1565b60008281526009602090815260409091208251610c2792840190613abc565b6000611366825490565b6013805460ff191660ff8d161790556123ed60118b8b613b40565b506123fa60128989613b40565b50601054610100900460ff1661247157336001600160a01b03167f5463569dcc320958360074a9ab27e809e8a6942c394fb151d139b5f7b4ecb1bd8c8c8c8a8a8a8a8a42436040516124559a99989796959493929190614929565b60405180910390a26010805461ff0019166101001790556124c3565b60135460405133917fe5c4cf86b1815151e6f453e1e133d4454ae3b0b07145db39f2e0178685deac84916124ba9160ff16908e908e908c908c908c908c908c9042904390614929565b60405180910390a25b6032815111156125075760405162461bcd60e51b815260206004820152600f60248201526e546f6f204d616e792050726f6f667360881b6044820152606401610af1565b60408051808201909152601c81527f19457468657265756d205369676e6564204d6573736167653a0a333200000000602082015260005b82518110156127cc5760006001600160a01b031683828151811061256457612564614991565b6020026020010151600001516001600160a01b0316146126e657600082856040516020016125939291906149a7565b60405160208183030381529060405280519060200120905060006001828685815181106125c2576125c2614991565b6020026020010151602001518786815181106125e0576125e0614991565b6020026020010151604001518887815181106125fe576125fe614991565b60200260200101516060015160405160008152602001604052604051612640949392919093845260ff9290921660208401526040830152606082015260800190565b6020604051602081039080840390855afa158015612662573d6000803e3d6000fd5b50505060206040510351905084838151811061268057612680614991565b6020026020010151600001516001600160a01b0316816001600160a01b0316146126e35760405162461bcd60e51b815260206004820152601460248201527324b73b30b634b210383937b7b31039b4b3b732b960611b6044820152606401610af1565b50505b8281815181106126f8576126f8614991565b6020026020010151600001516001600160a01b03167f2819d8badf5cff2c9220b8ee99dacc14d67058e343d7f0c2c444d198507fe9418585848151811061274157612741614991565b60200260200101516020015186858151811061275f5761275f614991565b60200260200101516040015187868151811061277d5761277d614991565b6020026020010151606001516040516127b2949392919093845260ff9290921660208401526040830152606082015260800190565b60405180910390a2806127c4816149df565b91505061253e565b50505050505050505050505050565b60005b8181101561187557601481815481106127f9576127f9614991565b6000918252602082200154604080516382c03da560e01b815290516001600160a01b03909216926382c03da59260048084019382900301818387803b15801561284157600080fd5b505af1158015612855573d6000803e3d6000fd5b505050508080612864906149df565b9150506127de565b60005b600b548110156128d4576000600a6000600b848154811061289257612892614991565b60009182526020808320909101546001600160a01b031683528201929092526040019020805463ffffffff1916905550806128cc816149df565b91505061286f565b506128e1600b6000613bb4565b6040805142815243602082015233917f712bc71db81927a76b8bf1ea346247bb0ad58f18e4e5c1bd4aa0ec6573e02a2b910160405180910390a2565b6001600160a01b0381166000818152600a6020526040808220805460ff191660019081178255600b80549182018155909352600080516020614b6683398151915290920180546001600160a01b0319168417905551909133917faf8fc8b6726138c96881c895390a08e9d91a94c288f06281e7f9821c49c7155b90610df69042904390918252602082015260400190565b6129b83382612efd565b6129d45760405162461bcd60e51b8152600401610af1906149fa565b610c27838383604051806020016040528060008152506129fb565b60006113638383612fe7565b612a053383612efd565b612a215760405162461bcd60e51b8152600401610af1906149fa565b6111c28484848461306d565b6000808080612a3c86866130a0565b909450925050505b9250929050565b6000612a5884848461313d565b90505b9392505050565b606060038054610a06906144be565b60006001600160a01b038616612ae05760405162461bcd60e51b815260206004820152602e60248201527f45524337323154656d706c6174653a3a20496e76616c6964206d696e7465722c60448201526d20207a65726f206164647265737360901b6064820152608401610af1565b8451612af390600e906020880190613abc565b508351612b0790600f906020870190613abc565b5060138054610100600160a81b0319166101006001600160a01b03861602179055604080516020810191829052600090819052612b4691600391613abc565b506010805461ffff19166001908117909155612b639087906131a6565b612b6c8661291d565b6001600160a01b0386166000908152600a60205260409020805463ffffff0019166301010100178155612ba060018461233d565b505060105460ff1695945050505050565b612bc16380ac58cd60e01b612bdd565b612bd1635b5e139f60e01b612bdd565b61176e63780e9d6360e01b5b6001600160e01b03198082161415612c375760405162461bcd60e51b815260206004820152601c60248201527f4552433136353a20696e76616c696420696e74657266616365206964000000006044820152606401610af1565b6001600160e01b0319166000908152602081905260409020805460ff19166001179055565b6001600160a01b0381166000818152600a602052604090819020805460ff191681559051909133917fb572db0e6da4924b771ed1712b980d48b5992b9a1c27aede55fbb3318c48996a90610df69042904390918252602082015260400190565b82846001600160a01b0316867f1f920dbda597d7bf95035464170fa58d0a4b57f13a1c315ace6793b9f63688b88585604051612cf9929190614915565b60405180910390a460006109c45a612d119190614a4b565b905085612d6157612d5b858585858080601f0160208091040260200160405190810160405280939291908181526020018383808284376000920191909152508792506131c0915050565b50612edd565b6003861415612daa57612d5b8484848080601f0160208091040260200160405190810160405280939291908181526020018383808284376000920191909152506131d892505050565b6002861415612e9e576000612e0184848080601f016020809104026020016040519081016040528093929190818152602001838380828437600092019190915250612dfc925060209150879050614a4b565b613274565b90506000612e5085858080601f01602080910402602001604051908101604052809392919081815260200183838082843760009201829052509250612e4b91506020905088614a4b565b6132d2565b90506000612e5f8784846133df565b6040519091506001600160a01b038216907fcf78cf0d6f3d8371e1075c69c492ab4ec5d8cf23a1a239b6a51a1d00be7ca31290600090a2505050612edd565b60405162461bcd60e51b815260206004820152601460248201527357726f6e67206f7065726174696f6e207479706560601b6044820152606401610af1565b505050505050565b60008181526001830160205260408120541515611363565b6000612f0882612269565b612f695760405162461bcd60e51b815260206004820152602c60248201527f4552433732313a206f70657261746f7220717565727920666f72206e6f6e657860448201526b34b9ba32b73a103a37b5b2b760a11b6064820152608401610af1565b6000612f7483611879565b9050806001600160a01b0316846001600160a01b03161480612faf5750836001600160a01b0316612fa484610a89565b6001600160a01b0316145b80612fdf57506001600160a01b0380821660009081526008602090815260408083209388168352929052205460ff165b949350505050565b815460009082106130455760405162461bcd60e51b815260206004820152602260248201527f456e756d657261626c655365743a20696e646578206f7574206f6620626f756e604482015261647360f01b6064820152608401610af1565b82600001828154811061305a5761305a614991565b9060005260206000200154905092915050565b6130788484846134e1565b61308484848484613662565b6111c25760405162461bcd60e51b8152600401610af190614a62565b8154600090819083106131005760405162461bcd60e51b815260206004820152602260248201527f456e756d657261626c654d61703a20696e646578206f7574206f6620626f756e604482015261647360f01b6064820152608401610af1565b600084600001848154811061311757613117614991565b906000526020600020906002020190508060000154816001015492509250509250929050565b6000828152600184016020526040812054828161316d5760405162461bcd60e51b8152600401610af19190613c6e565b508461317a600183614a4b565b8154811061318a5761318a614991565b9060005260206000209060020201600101549150509392505050565b611875828260405180602001604052806000815250613760565b6000806000845160208601878987f195945050505050565b600081516020830184f090506001600160a01b03811661323a5760405162461bcd60e51b815260206004820152601960248201527f436f756c64206e6f74206465706c6f7920636f6e7472616374000000000000006044820152606401610af1565b6040516001600160a01b038216907fcf78cf0d6f3d8371e1075c69c492ab4ec5d8cf23a1a239b6a51a1d00be7ca31290600090a292915050565b6000613281826020614ab4565b835110156132c95760405162461bcd60e51b8152602060048201526015602482015274746f427974657333325f6f75744f66426f756e647360581b6044820152606401610af1565b50016020015190565b6060816132e081601f614ab4565b101561331f5760405162461bcd60e51b815260206004820152600e60248201526d736c6963655f6f766572666c6f7760901b6044820152606401610af1565b6133298284614ab4565b8451101561336d5760405162461bcd60e51b8152602060048201526011602482015270736c6963655f6f75744f66426f756e647360781b6044820152606401610af1565b60608215801561338c57604051915060008252602082016040526133d6565b6040519150601f8416801560200281840101858101878315602002848b0101015b818310156133c55780518352602092830192016133ad565b5050858452601f01601f1916604052505b50949350505050565b600080844710156134325760405162461bcd60e51b815260206004820152601d60248201527f437265617465323a20696e73756666696369656e742062616c616e63650000006044820152606401610af1565b82516134805760405162461bcd60e51b815260206004820181905260248201527f437265617465323a2062797465636f6465206c656e677468206973207a65726f6044820152606401610af1565b8383516020850187f590506001600160a01b038116612a585760405162461bcd60e51b815260206004820152601960248201527f437265617465323a204661696c6564206f6e206465706c6f79000000000000006044820152606401610af1565b826001600160a01b03166134f482611879565b6001600160a01b03161461355c5760405162461bcd60e51b815260206004820152602960248201527f4552433732313a207472616e73666572206f6620746f6b656e2074686174206960448201526839903737ba1037bbb760b91b6064820152608401610af1565b6001600160a01b0382166135be5760405162461bcd60e51b8152602060048201526024808201527f4552433732313a207472616e7366657220746f20746865207a65726f206164646044820152637265737360e01b6064820152608401610af1565b6135c9600082612276565b6001600160a01b03831660009081526004602052604090206135eb9082613793565b506001600160a01b038216600090815260046020526040902061360e908261379f565b5061361b600582846137ab565b5080826001600160a01b0316846001600160a01b03167fddf252ad1be2c89b69c2b068fc378daa952ba7f163c4a11628f55a4df523b3ef60405160405180910390a4505050565b60006001600160a01b0384163b1561375557604051630a85bd0160e11b81526001600160a01b0385169063150b7a02906136a6903390899088908890600401614acc565b6020604051808303816000875af19250505080156136e1575060408051601f3d908101601f191682019092526136de91810190614b09565b60015b61373b573d80801561370f576040519150601f19603f3d011682016040523d82523d6000602084013e613714565b606091505b5080516137335760405162461bcd60e51b8152600401610af190614a62565b805181602001fd5b6001600160e01b031916630a85bd0160e11b149050612fdf565b506001949350505050565b61376a83836137c1565b6137776000848484613662565b610c275760405162461bcd60e51b8152600401610af190614a62565b600061136383836138d9565b600061136383836139cc565b6000612a5884846001600160a01b038516613a1b565b6001600160a01b0382166138175760405162461bcd60e51b815260206004820181905260248201527f4552433732313a206d696e7420746f20746865207a65726f20616464726573736044820152606401610af1565b61382081612269565b1561386d5760405162461bcd60e51b815260206004820152601c60248201527f4552433732313a20746f6b656e20616c7265616479206d696e746564000000006044820152606401610af1565b6001600160a01b038216600090815260046020526040902061388f908261379f565b5061389c600582846137ab565b5060405181906001600160a01b038416906000907fddf252ad1be2c89b69c2b068fc378daa952ba7f163c4a11628f55a4df523b3ef908290a45050565b600081815260018301602052604081205480156139c25760006138fd600183614a4b565b855490915060009061391190600190614a4b565b9050600086600001828154811061392a5761392a614991565b906000526020600020015490508087600001848154811061394d5761394d614991565b600091825260209091200155613964836001614ab4565b6000828152600189016020526040902055865487908061398657613986614b26565b60019003818190600052602060002001600090559055866001016000878152602001908152602001600020600090556001945050505050611366565b6000915050611366565b6000818152600183016020526040812054613a1357508154600181810184556000848152602080822090930184905584548482528286019093526040902091909155611366565b506000611366565b600082815260018401602052604081205480613a80575050604080518082018252838152602080820184815286546001818101895560008981528481209551600290930290950191825591519082015586548684528188019092529290912055612a5b565b8285613a8d600184614a4b565b81548110613a9d57613a9d614991565b9060005260206000209060020201600101819055506000915050612a5b565b828054613ac8906144be565b90600052602060002090601f016020900481019282613aea5760008555613b30565b82601f10613b0357805160ff1916838001178555613b30565b82800160010185558215613b30579182015b82811115613b30578251825591602001919060010190613b15565b50613b3c929150613bce565b5090565b828054613b4c906144be565b90600052602060002090601f016020900481019282613b6e5760008555613b30565b82601f10613b875782800160ff19823516178555613b30565b82800160010185558215613b30579182015b82811115613b30578235825591602001919060010190613b99565b5080546000825590600052602060002090810190610fd291905b5b80821115613b3c5760008155600101613bcf565b6001600160e01b031981168114610fd257600080fd5b600060208284031215613c0b57600080fd5b8135612a5b81613be3565b60005b83811015613c31578181015183820152602001613c19565b838111156111c25750506000910152565b60008151808452613c5a816020860160208601613c16565b601f01601f19169290920160200192915050565b6020815260006113636020830184613c42565b600060208284031215613c9357600080fd5b5035919050565b6001600160a01b0381168114610fd257600080fd5b8035613cba81613c9a565b919050565b60008060408385031215613cd257600080fd5b8235613cdd81613c9a565b946020939093013593505050565b60008083601f840112613cfd57600080fd5b5081356001600160401b03811115613d1457600080fd5b602083019150836020828501011115612a4457600080fd5b600080600060408486031215613d4157600080fd5b8335925060208401356001600160401b03811115613d5e57600080fd5b613d6a86828701613ceb565b9497909650939450505050565b600060208284031215613d8957600080fd5b8135612a5b81613c9a565b634e487b7160e01b600052604160045260246000fd5b604051601f8201601f191681016001600160401b0381118282101715613dd257613dd2613d94565b604052919050565b600082601f830112613deb57600080fd5b81356001600160401b03811115613e0457613e04613d94565b613e17601f8201601f1916602001613daa565b818152846020838601011115613e2c57600080fd5b816020850160208301376000918101602001919091529392505050565b60008060408385031215613e5c57600080fd5b8235915060208301356001600160401b03811115613e7957600080fd5b613e8585828601613dda565b9150509250929050565b600060208284031215613ea157600080fd5b81356001600160401b03811115613eb757600080fd5b82016101208185031215612a5b57600080fd5b803560ff81168114613cba57600080fd5b600060808284031215613eed57600080fd5b604051608081018181106001600160401b0382111715613f0f57613f0f613d94565b6040529050808235613f2081613c9a565b8152613f2e60208401613eca565b602082015260408301356040820152606083013560608201525092915050565b600082601f830112613f5f57600080fd5b813560206001600160401b03821115613f7a57613f7a613d94565b613f88818360051b01613daa565b82815260079290921b84018101918181019086841115613fa757600080fd5b8286015b84811015613fcb57613fbd8882613edb565b835291830191608001613fab565b509695505050505050565b600080600080600080600080600080600060e08c8e031215613ff757600080fd5b6140008c613eca565b9a506001600160401b038060208e0135111561401b57600080fd5b61402b8e60208f01358f01613ceb565b909b50995060408d013581101561404157600080fd5b6140518e60408f01358f01613ceb565b909950975060608d013581101561406757600080fd5b6140778e60608f01358f01613ceb565b909750955060808d013581101561408d57600080fd5b61409d8e60808f01358f01613ceb565b909550935060a08d0135925060c08d01358110156140ba57600080fd5b506140cb8d60c08e01358e01613f4e565b90509295989b509295989b9093969950565b6000806000606084860312156140f257600080fd5b83356140fd81613c9a565b9250602084013561410d81613c9a565b929592945050506040919091013590565b6020808252825182820181905260009190848201906040850190845b8181101561415f5783516001600160a01b03168352928401929184019160010161413a565b50909695505050505050565b60006020828403121561417d57600080fd5b61136382613eca565b60006020828403121561419857600080fd5b81356001600160401b038111156141ae57600080fd5b612fdf84828501613dda565b600080600080600080600080600060e08a8c0312156141d857600080fd5b89356141e381613c9a565b985060208a01356001600160401b03808211156141ff57600080fd5b61420b8d838e01613ceb565b909a50985060408c013591508082111561422457600080fd5b6142308d838e01613ceb565b909850965060608c0135915061424582613c9a565b81955061425460808d01613caf565b945061426260a08d01613caf565b935060c08c013591508082111561427857600080fd5b506142858c828d01613dda565b9150509295985092959850929598565b600080604083850312156142a857600080fd5b82356142b381613c9a565b9150602083013580151581146142c857600080fd5b809150509250929050565b6000806000806000608086880312156142eb57600080fd5b8535945060208601356142fd81613c9a565b93506040860135925060608601356001600160401b0381111561431f57600080fd5b61432b88828901613ceb565b969995985093965092949392505050565b60808152600061434f6080830187613c42565b82810360208401526143618187613c42565b60ff959095166040840152505090151560609091015292915050565b60008083601f84011261438f57600080fd5b5081356001600160401b038111156143a657600080fd5b6020830191508360208260051b8501011115612a4457600080fd5b600080600080600080600080600060a08a8c0312156143df57600080fd5b8935985060208a01356001600160401b03808211156143fd57600080fd5b6144098d838e0161437d565b909a50985060408c013591508082111561442257600080fd5b61442e8d838e0161437d565b909850965060608c013591508082111561444757600080fd5b6144538d838e0161437d565b909650945060808c013591508082111561446c57600080fd5b506144798c828d0161437d565b915080935050809150509295985092959850929598565b600080604083850312156144a357600080fd5b82356144ae81613c9a565b915060208301356142c881613c9a565b600181811c908216806144d257607f821691505b602082108114156144f357634e487b7160e01b600052602260045260246000fd5b50919050565b6020808252601f908201527f455243373231526f6c6573416464726573733a204e4f54204d414e4147455200604082015260600190565b6020808252601c908201527f45524337323154656d706c6174653a206e6f74204e46544f776e657200000000604082015260600190565b60808152600061457a6080830187613c42565b6020830195909552506040810192909252606090910152919050565b60208082526021908201527f45524337323154656d706c6174653a204e4f54204d455441444154415f524f4c6040820152604560f81b606082015260800190565b6000808335601e198436030181126145ee57600080fd5b8301803591506001600160401b0382111561460857600080fd5b602001915036819003821315612a4457600080fd5b6000808335601e1984360301811261463457600080fd5b8301803591506001600160401b0382111561464e57600080fd5b6020019150600781901b3603821315612a4457600080fd5b60006080828403121561467857600080fd5b6113638383613edb565b6020808252602c908201527f45524337323154656d706c6174653a2043616e6e6f74207472616e736665722060408201526b1d1a1a5cc81d1bdad95b925960a21b606082015260800190565b600083516146e0818460208801613c16565b8351908301906146f4818360208801613c16565b01949350505050565b81835281816020850137506000828201602090810191909152601f909101601f19169091010190565b6000808335601e1984360301811261473d57600080fd5b83016020810192503590506001600160401b0381111561475c57600080fd5b803603831315612a4457600080fd5b8183526000602080850194508260005b858110156147a957813561478e81613c9a565b6001600160a01b03168752958201959082019060010161477b565b509495945050505050565b81835260006001600160fb1b038311156147cd57600080fd5b8260051b8083602087013760009401602001938452509192915050565b81835260006020808501808196508560051b810191508460005b8781101561483a57828403895261481b8288614726565b6148268682846146fd565b9a87019a9550505090840190600101614804565b5091979650505050505050565b89815260a0602082018190528101889052600060c060058a901b830181019083018b835b8c8110156148a85785840360bf19018352614886828f614726565b6148918682846146fd565b95505050602092830192919091019060010161486b565b50505082810360408401526148be81898b61476b565b905082810360608401526148d38187896147b4565b905082810360808401526148e88185876147ea565b9c9b505050505050505050505050565b60006020828403121561490a57600080fd5b8151612a5b81613c9a565b602081526000612a586020830184866146fd565b60ff8b16815260e06020820152600061494660e083018b8d6146fd565b8281036040840152614959818a8c6146fd565b9050828103606084015261496e81888a6146fd565b6080840196909652505060a081019290925260c090910152979650505050505050565b634e487b7160e01b600052603260045260246000fd5b600083516149b9818460208801613c16565b9190910191825250602001919050565b634e487b7160e01b600052601160045260246000fd5b60006000198214156149f3576149f36149c9565b5060010190565b60208082526031908201527f4552433732313a207472616e736665722063616c6c6572206973206e6f74206f6040820152701ddb995c881b9bdc88185c1c1c9bdd9959607a1b606082015260800190565b600082821015614a5d57614a5d6149c9565b500390565b60208082526032908201527f4552433732313a207472616e7366657220746f206e6f6e20455243373231526560408201527131b2b4bb32b91034b6b83632b6b2b73a32b960711b606082015260800190565b60008219821115614ac757614ac76149c9565b500190565b6001600160a01b0385811682528416602082015260408101839052608060608201819052600090614aff90830184613c42565b9695505050505050565b600060208284031215614b1b57600080fd5b8151612a5b81613be3565b634e487b7160e01b600052603160045260246000fdfe4552433732313a206f776e657220717565727920666f72206e6f6e6578697374656e7420746f6b656e0175b7a638427703f0dbe7bb9bbf987a2551717b34e79f33b5b1008d1fa01db9a264697066735822122069f3e908ab4dd4b13669ca8a4da6f710d89d8dc786402504c77bda74817525a264736f6c634300080c0033",
  "linkReferences": {},
  "deployedLinkReferences": {}
}