{
  "_format": "hh-sol-artifact-1",
  "contractName": "ERC721Template",
  "sourceName": "contracts/templates/ERC721Template.sol",
  "abi": [
    {
      "anonymous": false,
      "inputs": [
        {
          "indexed": true,
          "internalType": "address",
          "name": "owner",
          "type": "address"
        },
        {
          "indexed": true,
          "internalType": "address",
          "name": "approved",
          "type": "address"
        },
        {
          "indexed": true,
          "internalType": "uint256",
          "name": "tokenId",
          "type": "uint256"
        }
      ],
      "name": "Approval",
      "type": "event"
    },
    {
      "anonymous": false,
      "inputs": [
        {
          "indexed": true,
          "internalType": "address",
          "name": "owner",
          "type": "address"
        },
        {
          "indexed": true,
          "internalType": "address",
          "name": "operator",
          "type": "address"
        },
        {
          "indexed": false,
          "internalType": "bool",
          "name": "approved",
          "type": "bool"
        }
      ],
      "name": "ApprovalForAll",
      "type": "event"
    },
    {
      "anonymous": false,
      "inputs": [
        {
          "indexed": true,
          "internalType": "address",
          "name": "contractAddress",
          "type": "address"
        }
      ],
      "name": "ContractCreated",
      "type": "event"
    },
    {
      "anonymous": false,
      "inputs": [
        {
          "indexed": true,
          "internalType": "bytes32",
          "name": "key",
          "type": "bytes32"
        },
        {
          "indexed": false,
          "internalType": "bytes",
          "name": "value",
          "type": "bytes"
        }
      ],
      "name": "DataChanged",
      "type": "event"
    },
    {
      "anonymous": false,
      "inputs": [
        {
          "indexed": true,
          "internalType": "address",
          "name": "erc20Address",
          "type": "address"
        }
      ],
      "name": "ERC20Created",
      "type": "event"
    },
    {
      "anonymous": false,
      "inputs": [
        {
          "indexed": true,
          "internalType": "uint256",
          "name": "_operation",
          "type": "uint256"
        },
        {
          "indexed": true,
          "internalType": "address",
          "name": "_to",
          "type": "address"
        },
        {
          "indexed": true,
          "internalType": "uint256",
          "name": "_value",
          "type": "uint256"
        },
        {
          "indexed": false,
          "internalType": "bytes",
          "name": "_data",
          "type": "bytes"
        }
      ],
      "name": "Executed",
      "type": "event"
    },
    {
      "anonymous": false,
      "inputs": [
        {
          "indexed": true,
          "internalType": "address",
          "name": "from",
          "type": "address"
        },
        {
          "indexed": true,
          "internalType": "address",
          "name": "to",
          "type": "address"
        },
        {
          "indexed": true,
          "internalType": "uint256",
          "name": "tokenId",
          "type": "uint256"
        }
      ],
      "name": "Transfer",
      "type": "event"
    },
    {
      "inputs": [],
      "name": "METADATA_KEY",
      "outputs": [
        {
          "internalType": "bytes32",
          "name": "",
          "type": "bytes32"
        }
      ],
      "stateMutability": "view",
      "type": "function"
    },
    {
      "inputs": [
        {
          "internalType": "address",
          "name": "account",
          "type": "address"
        }
      ],
      "name": "_getPermissions",
      "outputs": [
        {
          "components": [
            {
              "internalType": "bool",
              "name": "manager",
              "type": "bool"
            },
            {
              "internalType": "bool",
              "name": "deployERC20",
              "type": "bool"
            },
            {
              "internalType": "bool",
              "name": "updateMetadata",
              "type": "bool"
            },
            {
              "internalType": "bool",
              "name": "store",
              "type": "bool"
            },
            {
              "internalType": "bool",
              "name": "v3Minter",
              "type": "bool"
            }
          ],
          "internalType": "struct ERC721RolesAddress.Roles",
          "name": "",
          "type": "tuple"
        }
      ],
      "stateMutability": "view",
      "type": "function"
    },
    {
      "inputs": [],
      "name": "_metadata",
      "outputs": [
        {
          "internalType": "address",
          "name": "",
          "type": "address"
        }
      ],
      "stateMutability": "view",
      "type": "function"
    },
    {
      "inputs": [
        {
          "internalType": "address",
          "name": "_managerAddress",
          "type": "address"
        }
      ],
      "name": "addManager",
      "outputs": [],
      "stateMutability": "nonpayable",
      "type": "function"
    },
    {
      "inputs": [
        {
          "internalType": "address",
          "name": "_allowedAddress",
          "type": "address"
        }
      ],
      "name": "addTo725StoreList",
      "outputs": [],
      "stateMutability": "nonpayable",
      "type": "function"
    },
    {
      "inputs": [
        {
          "internalType": "address",
          "name": "_allowedAddress",
          "type": "address"
        }
      ],
      "name": "addToCreateERC20List",
      "outputs": [],
      "stateMutability": "nonpayable",
      "type": "function"
    },
    {
      "inputs": [
        {
          "internalType": "address",
          "name": "_allowedAddress",
          "type": "address"
        }
      ],
      "name": "addToMetadataList",
      "outputs": [],
      "stateMutability": "nonpayable",
      "type": "function"
    },
    {
      "inputs": [
        {
          "internalType": "address",
          "name": "newMinter",
          "type": "address"
        }
      ],
      "name": "addV3Minter",
      "outputs": [],
      "stateMutability": "nonpayable",
      "type": "function"
    },
    {
      "inputs": [
        {
          "internalType": "address",
          "name": "to",
          "type": "address"
        },
        {
          "internalType": "uint256",
          "name": "tokenId",
          "type": "uint256"
        }
      ],
      "name": "approve",
      "outputs": [],
      "stateMutability": "nonpayable",
      "type": "function"
    },
    {
      "inputs": [
        {
          "internalType": "uint256",
          "name": "",
          "type": "uint256"
        }
      ],
      "name": "auth",
      "outputs": [
        {
          "internalType": "address",
          "name": "",
          "type": "address"
        }
      ],
      "stateMutability": "view",
      "type": "function"
    },
    {
      "inputs": [
        {
          "internalType": "address",
          "name": "owner",
          "type": "address"
        }
      ],
      "name": "balanceOf",
      "outputs": [
        {
          "internalType": "uint256",
          "name": "",
          "type": "uint256"
        }
      ],
      "stateMutability": "view",
      "type": "function"
    },
    {
      "inputs": [],
      "name": "cleanPermissions",
      "outputs": [],
      "stateMutability": "nonpayable",
      "type": "function"
    },
    {
      "inputs": [
        {
          "internalType": "string",
          "name": "name_",
          "type": "string"
        },
        {
          "internalType": "string",
          "name": "symbol_",
          "type": "string"
        },
        {
          "internalType": "uint256",
          "name": "cap",
          "type": "uint256"
        },
        {
          "internalType": "uint256",
          "name": "templateIndex",
          "type": "uint256"
        },
        {
          "internalType": "address",
          "name": "minter",
          "type": "address"
        },
        {
          "internalType": "address",
          "name": "feeManager",
          "type": "address"
        }
      ],
      "name": "createERC20",
      "outputs": [
        {
          "internalType": "address",
          "name": "",
          "type": "address"
        }
      ],
      "stateMutability": "nonpayable",
      "type": "function"
    },
    {
      "inputs": [
        {
          "internalType": "uint256",
          "name": "_operation",
          "type": "uint256"
        },
        {
          "internalType": "address",
          "name": "_to",
          "type": "address"
        },
        {
          "internalType": "uint256",
          "name": "_value",
          "type": "uint256"
        },
        {
          "internalType": "bytes",
          "name": "_data",
          "type": "bytes"
        }
      ],
      "name": "executeCall",
      "outputs": [],
      "stateMutability": "payable",
      "type": "function"
    },
    {
      "inputs": [
        {
          "internalType": "uint256",
          "name": "tokenId",
          "type": "uint256"
        }
      ],
      "name": "getApproved",
      "outputs": [
        {
          "internalType": "address",
          "name": "",
          "type": "address"
        }
      ],
      "stateMutability": "view",
      "type": "function"
    },
    {
      "inputs": [
        {
          "internalType": "bytes32",
          "name": "_key",
          "type": "bytes32"
        }
      ],
      "name": "getData",
      "outputs": [
        {
          "internalType": "bytes",
          "name": "_value",
          "type": "bytes"
        }
      ],
      "stateMutability": "view",
      "type": "function"
    },
    {
      "inputs": [
        {
          "internalType": "address",
          "name": "owner",
          "type": "address"
        },
        {
          "internalType": "string",
          "name": "name_",
          "type": "string"
        },
        {
          "internalType": "string",
          "name": "symbol_",
          "type": "string"
        },
        {
          "internalType": "address",
          "name": "metadata",
          "type": "address"
        },
        {
          "internalType": "address",
          "name": "erc20Factory",
          "type": "address"
        },
        {
          "internalType": "bytes",
          "name": "_data",
          "type": "bytes"
        },
        {
          "internalType": "bytes",
          "name": "_flags",
          "type": "bytes"
        }
      ],
      "name": "initialize",
      "outputs": [
        {
          "internalType": "bool",
          "name": "",
          "type": "bool"
        }
      ],
      "stateMutability": "nonpayable",
      "type": "function"
    },
    {
      "inputs": [
        {
          "internalType": "address",
          "name": "owner",
          "type": "address"
        },
        {
          "internalType": "address",
          "name": "operator",
          "type": "address"
        }
      ],
      "name": "isApprovedForAll",
      "outputs": [
        {
          "internalType": "bool",
          "name": "",
          "type": "bool"
        }
      ],
      "stateMutability": "view",
      "type": "function"
    },
    {
      "inputs": [],
      "name": "isInitialized",
      "outputs": [
        {
          "internalType": "bool",
          "name": "",
          "type": "bool"
        }
      ],
      "stateMutability": "view",
      "type": "function"
    },
    {
      "inputs": [
        {
          "internalType": "address",
          "name": "datatoken",
          "type": "address"
        },
        {
          "internalType": "address",
          "name": "to",
          "type": "address"
        },
        {
          "internalType": "uint256",
          "name": "value",
          "type": "uint256"
        }
      ],
      "name": "mintV3DT",
      "outputs": [],
      "stateMutability": "nonpayable",
      "type": "function"
    },
    {
      "inputs": [],
      "name": "name",
      "outputs": [
        {
          "internalType": "string",
          "name": "",
          "type": "string"
        }
      ],
      "stateMutability": "view",
      "type": "function"
    },
    {
      "inputs": [
        {
          "internalType": "uint256",
          "name": "tokenId",
          "type": "uint256"
        }
      ],
      "name": "ownerOf",
      "outputs": [
        {
          "internalType": "address",
          "name": "",
          "type": "address"
        }
      ],
      "stateMutability": "view",
      "type": "function"
    },
    {
      "inputs": [
        {
          "internalType": "address",
          "name": "_allowedAddress",
          "type": "address"
        }
      ],
      "name": "removeFrom725StoreList",
      "outputs": [],
      "stateMutability": "nonpayable",
      "type": "function"
    },
    {
      "inputs": [
        {
          "internalType": "address",
          "name": "_allowedAddress",
          "type": "address"
        }
      ],
      "name": "removeFromCreateERC20List",
      "outputs": [],
      "stateMutability": "nonpayable",
      "type": "function"
    },
    {
      "inputs": [
        {
          "internalType": "address",
          "name": "_allowedAddress",
          "type": "address"
        }
      ],
      "name": "removeFromMetadataList",
      "outputs": [],
      "stateMutability": "nonpayable",
      "type": "function"
    },
    {
      "inputs": [
        {
          "internalType": "address",
          "name": "_managerAddress",
          "type": "address"
        }
      ],
      "name": "removeManager",
      "outputs": [],
      "stateMutability": "nonpayable",
      "type": "function"
    },
    {
      "inputs": [
        {
          "internalType": "address",
          "name": "minter",
          "type": "address"
        }
      ],
      "name": "removeV3Minter",
      "outputs": [],
      "stateMutability": "nonpayable",
      "type": "function"
    },
    {
      "inputs": [
        {
          "internalType": "address",
          "name": "operator",
          "type": "address"
        },
        {
          "internalType": "bool",
          "name": "approved",
          "type": "bool"
        }
      ],
      "name": "setApprovalForAll",
      "outputs": [],
      "stateMutability": "nonpayable",
      "type": "function"
    },
    {
      "inputs": [
        {
          "internalType": "bytes32",
          "name": "_key",
          "type": "bytes32"
        },
        {
          "internalType": "bytes",
          "name": "_value",
          "type": "bytes"
        }
      ],
      "name": "setDataERC20",
      "outputs": [],
      "stateMutability": "nonpayable",
      "type": "function"
    },
    {
      "inputs": [
        {
          "internalType": "address",
          "name": "datatoken",
          "type": "address"
        },
        {
          "internalType": "bytes",
          "name": "_value",
          "type": "bytes"
        },
        {
          "internalType": "bytes",
          "name": "flags",
          "type": "bytes"
        },
        {
          "internalType": "bytes",
          "name": "data",
          "type": "bytes"
        }
      ],
      "name": "setDataV3",
      "outputs": [],
      "stateMutability": "nonpayable",
      "type": "function"
    },
    {
      "inputs": [
        {
          "internalType": "bytes32",
          "name": "_key",
          "type": "bytes32"
        },
        {
          "internalType": "bytes",
          "name": "_value",
          "type": "bytes"
        }
      ],
      "name": "setNewData",
      "outputs": [],
      "stateMutability": "nonpayable",
      "type": "function"
    },
    {
      "inputs": [],
      "name": "ssContract",
      "outputs": [
        {
          "internalType": "address",
          "name": "",
          "type": "address"
        }
      ],
      "stateMutability": "view",
      "type": "function"
    },
    {
      "inputs": [
        {
          "internalType": "bytes4",
          "name": "interfaceId",
          "type": "bytes4"
        }
      ],
      "name": "supportsInterface",
      "outputs": [
        {
          "internalType": "bool",
          "name": "",
          "type": "bool"
        }
      ],
      "stateMutability": "view",
      "type": "function"
    },
    {
      "inputs": [],
      "name": "symbol",
      "outputs": [
        {
          "internalType": "string",
          "name": "",
          "type": "string"
        }
      ],
      "stateMutability": "view",
      "type": "function"
    },
    {
      "inputs": [
        {
          "internalType": "uint256",
          "name": "tokenId",
          "type": "uint256"
        }
      ],
      "name": "tokenURI",
      "outputs": [
        {
          "internalType": "string",
          "name": "",
          "type": "string"
        }
      ],
      "stateMutability": "view",
      "type": "function"
    },
    {
      "inputs": [
        {
          "internalType": "address",
          "name": "from",
          "type": "address"
        },
        {
          "internalType": "address",
          "name": "to",
          "type": "address"
        },
        {
          "internalType": "uint256",
          "name": "tokenId",
          "type": "uint256"
        }
      ],
      "name": "transferFrom",
      "outputs": [],
      "stateMutability": "nonpayable",
      "type": "function"
    },
    {
      "inputs": [
        {
          "internalType": "bytes",
          "name": "flags",
          "type": "bytes"
        },
        {
          "internalType": "bytes",
          "name": "data",
          "type": "bytes"
        }
      ],
      "name": "updateMetadata",
      "outputs": [],
      "stateMutability": "nonpayable",
      "type": "function"
    },
    {
      "inputs": [
        {
          "internalType": "address",
          "name": "",
          "type": "address"
        }
      ],
      "name": "v3DT",
      "outputs": [
        {
          "internalType": "bool",
          "name": "",
          "type": "bool"
        }
      ],
      "stateMutability": "view",
      "type": "function"
    },
    {
      "inputs": [
        {
          "internalType": "address",
          "name": "datatoken",
          "type": "address"
        },
        {
          "internalType": "address",
          "name": "newMinter",
          "type": "address"
        }
      ],
      "name": "wrapV3DT",
      "outputs": [],
      "stateMutability": "nonpayable",
      "type": "function"
    }
  ],
  "bytecode": "0x60806040523480156200001157600080fd5b50604080518082018252600881526754656d706c61746560c01b60208083019182528351808501909452600e84526d15195b5c1b185d1954de5b589bdb60921b908401528151919291620000689160009162000108565b5080516200007e90600190602084019062000108565b50620000959150632260147f60e11b9050620000ad565b620000a7632bd57b7360e01b620000ad565b62000222565b6001600160e01b03198082161415620000e35760405162461bcd60e51b8152600401620000da90620001ae565b60405180910390fd5b6001600160e01b0319166000908152600860205260409020805460ff19166001179055565b8280546200011690620001e5565b90600052602060002090601f0160209004810192826200013a576000855562000185565b82601f106200015557805160ff191683800117855562000185565b8280016001018555821562000185579182015b828111156200018557825182559160200191906001019062000168565b506200019392915062000197565b5090565b5b8082111562000193576000815560010162000198565b6020808252601c908201527f4552433136353a20696e76616c696420696e7465726661636520696400000000604082015260600190565b600281046001821680620001fa57607f821691505b602082108114156200021c57634e487b7160e01b600052602260045260246000fd5b50919050565b613a5180620002326000396000f3fe6080604052600436106102305760003560e01c80634f189cb21161012e578063a22cb465116100ab578063c87b56dd1161006f578063c87b56dd14610672578063cf76312014610692578063ddd0af5b146106b2578063e985e9c5146106c7578063fe1ec880146106e757610230565b8063a22cb465146105df578063ac18de43146105ff578063b0c41ead1461061f578063b4d070231461063f578063c55f81261461065f57610230565b80637db0f56d116100f25780637db0f56d1461053d578063819172d91461055d57806395d89b411461057d5780639e268119146105925780639e753293146105bf57610230565b80634f189cb21461049b57806354f6127f146104b05780636352211e146104d057806367530a61146104f057806370a082311461051057610230565b8063273e06b3116101bc57806339371b251161018057806339371b251461041157806342c914c814610426578063431053ac146104465780634a63740a146104665780634b2ee5e91461048657610230565b8063273e06b31461037c5780632748a9f91461039c5780632b940806146103bc5780632d06177a146103dc578063392e53cd146103fc57610230565b80630e57c7e8116102035780630e57c7e8146102dc57806310c558bf146102fc57806319c186e51461031c5780631b1de75c1461033c57806323b872dd1461035c57610230565b806301ffc9a71461023557806306fdde031461026b578063081812fc1461028d578063095ea7b3146102ba575b600080fd5b34801561024157600080fd5b50610255610250366004612b0b565b610707565b6040516102629190612e4c565b60405180910390f35b34801561027757600080fd5b5061028061073e565b6040516102629190612e74565b34801561029957600080fd5b506102ad6102a8366004612aa9565b6107d0565b6040516102629190612d5c565b3480156102c657600080fd5b506102da6102d5366004612a7e565b61081c565b005b3480156102e857600080fd5b506102da6102f7366004612ac1565b6108b4565b34801561030857600080fd5b506102da6103173660046127fc565b6108f3565b34801561032857600080fd5b506102da6103373660046127fc565b610951565b34801561034857600080fd5b506102556103573660046127fc565b6109b1565b34801561036857600080fd5b506102da61037736600461286c565b6109c6565b34801561038857600080fd5b506102da6103973660046127fc565b610a6d565b3480156103a857600080fd5b506102da6103b736600461286c565b610a9a565b3480156103c857600080fd5b506102da6103d73660046128dd565b610b92565b3480156103e857600080fd5b506102da6103f73660046127fc565b610c7f565b34801561040857600080fd5b50610255610c94565b34801561041d57600080fd5b506102ad610c9d565b34801561043257600080fd5b506102da610441366004612b43565b610cb1565b34801561045257600080fd5b506102da6104613660046127fc565b610d86565b34801561047257600080fd5b506102da6104813660046127fc565b610db2565b34801561049257600080fd5b506102ad610e0e565b3480156104a757600080fd5b506102da610e1d565b3480156104bc57600080fd5b506102806104cb366004612aa9565b610e30565b3480156104dc57600080fd5b506102ad6104eb366004612aa9565b610ed2565b3480156104fc57600080fd5b506102da61050b366004612ac1565b610f07565b34801561051c57600080fd5b5061053061052b3660046127fc565b610f4d565b6040516102629190612e57565b34801561054957600080fd5b50610255610558366004612986565b610f91565b34801561056957600080fd5b506102da6105783660046127fc565b611088565b34801561058957600080fd5b5061028061109a565b34801561059e57600080fd5b506105b26105ad3660046127fc565b6110a9565b6040516102629190613887565b3480156105cb57600080fd5b506102da6105da3660046127fc565b611125565b3480156105eb57600080fd5b506102da6105fa3660046128ac565b611137565b34801561060b57600080fd5b506102da61061a3660046127fc565b611205565b34801561062b57600080fd5b506102ad61063a366004612aa9565b611217565b34801561064b57600080fd5b506102ad61065a366004612bac565b611241565b6102da61066d366004612c52565b6113a4565b34801561067e57600080fd5b5061028061068d366004612aa9565b6113ba565b34801561069e57600080fd5b506102da6106ad366004612834565b61143d565b3480156106be57600080fd5b5061053061145c565b3480156106d357600080fd5b506102556106e2366004612834565b611480565b3480156106f357600080fd5b506102da6107023660046127fc565b6114ae565b6000610712826114d9565b8061073657506001600160e01b0319821660009081526008602052604090205460ff165b90505b919050565b6060600b805461074d9061393a565b80601f01602080910402602001604051908101604052809291908181526020018280546107799061393a565b80156107c65780601f1061079b576101008083540402835291602001916107c6565b820191906000526020600020905b8154815290600101906020018083116107a957829003601f168201915b5050505050905090565b60006107db826114f2565b6108005760405162461bcd60e51b81526004016107f7906134e6565b60405180910390fd5b506000908152600460205260409020546001600160a01b031690565b600061082782610ed2565b9050806001600160a01b0316836001600160a01b0316141561085b5760405162461bcd60e51b81526004016107f790613645565b806001600160a01b031661086d61150f565b6001600160a01b031614806108895750610889816106e261150f565b6108a55760405162461bcd60e51b81526004016107f790613243565b6108af8383611513565b505050565b3360009081526011602052604090205460ff1615156001146108e85760405162461bcd60e51b81526004016107f7906131ca565b6108af838383611581565b6108fc336115da565b6001600160a01b03166000818152600660205260408120805462ff00001916620100001790556007805460018101825591526000805160206139fc8339815191520180546001600160a01b0319169091179055565b61095a336115da565b6001600160a01b03166000818152600660205260408120805463ff000000191663010000001790556007805460018101825591526000805160206139fc8339815191520180546001600160a01b0319169091179055565b600a6020526000908152604090205460ff1681565b806001146109e65760405162461bcd60e51b81526004016107f7906135f9565b610a51610a4c600f805480602002602001604051908101604052809291908181526020018280548015610a4257602002820191906000526020600020905b81546001600160a01b03168152600190910190602001808311610a24575b505050505061160b565b61160f565b610a596116ae565b610a64838383611732565b6108af8261177a565b610a76336115da565b6001600160a01b03166000908152600660205260409020805463ff00000019169055565b33600090815260066020908152604091829020825160a081018452905460ff808216151583526101008204811615159383019390935262010000810483161515938201939093526301000000830482161515606082015264010000000090920416151560808201819052600114610b235760405162461bcd60e51b81526004016107f7906132a0565b610b2c846117ce565b6040516340c10f1960e01b81526001600160a01b038516906340c10f1990610b5a9086908690600401612e33565b600060405180830381600087803b158015610b7457600080fd5b505af1158015610b88573d6000803e3d6000fd5b5050505050505050565b6000610b9d336110a9565b9050806080015115156001151514610bc75760405162461bcd60e51b81526004016107f790612f20565b610bd0886117ce565b600088604051602001610be39190612d10565b604051602081830303815290604052805190602001209050610c06818989611581565b600d54604051637c4d8f9b60e11b81526101009091046001600160a01b03169063f89b1f3690610c42908c908a908a908a908a90600401612dad565b600060405180830381600087803b158015610c5c57600080fd5b505af1158015610c70573d6000803e3d6000fd5b50505050505050505050505050565b610c883361180b565b610c918161177a565b50565b600d5460ff1690565b600d5461010090046001600160a01b031681565b6000610cbc336110a9565b9050806040015115156001151514610ce65760405162461bcd60e51b81526004016107f790612f57565b600d54604051637c4d8f9b60e11b81526101009091046001600160a01b03169063f89b1f3690610d229030908990899089908990600401612dad565b600060405180830381600087803b158015610d3c57600080fd5b505af1158015610d50573d6000803e3d6000fd5b50505050610d7f7fa063f3cd8b0dcd6546ffc1c06fc86515c40fe331e91488c5e18c88c7efc881e88484611581565b5050505050565b610d8f336115da565b6001600160a01b03166000908152600660205260409020805462ff000019169055565b610dbb336115da565b6001600160a01b03166000818152600660205260408120805461ff0019166101001790556007805460018101825591526000805160206139fc8339815191520180546001600160a01b0319169091179055565b6010546001600160a01b031681565b610e263361180b565b610e2e6116ae565b565b6000818152600960205260409020805460609190610e4d9061393a565b80601f0160208091040260200160405190810160405280929190818152602001828054610e799061393a565b8015610ec65780601f10610e9b57610100808354040283529160200191610ec6565b820191906000526020600020905b815481529060010190602001808311610ea957829003601f168201915b50505050509050919050565b6000818152600260205260408120546001600160a01b0316806107365760405162461bcd60e51b81526004016107f790613369565b6000610f12336110a9565b9050806060015115156001151514610f3c5760405162461bcd60e51b81526004016107f790612edf565b610f47848484611581565b50505050565b60006001600160a01b038216610f755760405162461bcd60e51b81526004016107f79061331f565b506001600160a01b031660009081526003602052604090205490565b600d5460009060ff1615610fb75760405162461bcd60e51b81526004016107f790613780565b6110788c8c8c8080601f016020809104026020016040519081016040528093929190818152602001838380828437600081840152601f19601f820116905080830192505050505050508b8b8080601f01602080910402602001604051908101604052809392919081815260200183838082843760009201919091525050604080516020601f8b018190048102820181019092528981528e93508d92508c918c91908c908c908190840183828082843760009201919091525061184592505050565b9c9b505050505050505050505050565b611091336115da565b610c9181611935565b6060600c805461074d9061393a565b6110b1612651565b506001600160a01b0316600090815260066020908152604091829020825160a081018452905460ff8082161515835261010082048116151593830193909352620100008104831615159382019390935263010000008304821615156060820152640100000000909204161515608082015290565b61112e336115da565b610c918161198e565b61113f61150f565b6001600160a01b0316826001600160a01b031614156111705760405162461bcd60e51b81526004016107f7906130d1565b806005600061117d61150f565b6001600160a01b03908116825260208083019390935260409182016000908120918716808252919093529120805460ff1916921515929092179091556111c161150f565b6001600160a01b03167f17307eab39ab6107e8899845ad3d59bd9653f200f220920489ca2b5937696c31836040516111f99190612e4c565b60405180910390a35050565b61120e3361180b565b610c91816119b3565b6007818154811061122757600080fd5b6000918252602090912001546001600160a01b0316905081565b60008061124d336110a9565b90508060200151151560011515146112775760405162461bcd60e51b81526004016107f79061320c565b600e546040516373ecb34760e01b81526000916001600160a01b0316906373ecb347906112b6908e908e908e908e908e908e908e908e90600401612e87565b602060405180830381600087803b1580156112d057600080fd5b505af11580156112e4573d6000803e3d6000fd5b505050506040513d601f19601f820116820180604052508101906113089190612818565b6001600160a01b038116600081815260116020526040808220805460ff19166001908117909155600f8054918201815583527f8d1108e10bcb7c27dddfc02ed9d693a074039d026cf4ea4240b40f7d581ac8020180546001600160a01b031916841790555192935090917f41039c8b82bb5a365f56b4f9d87cee99e069b450bfdc3d87696fcd87783f24c19190a29a9950505050505050505050565b6113ad336115da565b610d7f85858585856119d4565b60606113c5826114f2565b6113e15760405162461bcd60e51b81526004016107f7906135aa565b60006113eb611bd6565b9050600081511161140b5760405180602001604052806000815250611436565b8061141584611be8565b604051602001611426929190612d2d565b6040516020818303038152906040525b9392505050565b6114463361180b565b61144f82611d0b565b61145881611935565b5050565b7fa063f3cd8b0dcd6546ffc1c06fc86515c40fe331e91488c5e18c88c7efc881e881565b6001600160a01b03918216600090815260056020908152604080832093909416825291909152205460ff1690565b6114b7336115da565b6001600160a01b03166000908152600660205260409020805461ff0019169055565b6001600160e01b031981166301ffc9a760e01b14919050565b6000908152600260205260409020546001600160a01b0316151590565b3390565b600081815260046020526040902080546001600160a01b0319166001600160a01b038416908117909155819061154882610ed2565b6001600160a01b03167f8c5be1e5ebec7d5bd14f71427d1e84f3dd0314c0f7b2291e5b200ac8c7c3b92560405160405180910390a45050565b600083815260096020526040902061159a90838361267f565b50827fece574603820d07bc9b91f2a932baadf4628aabcb8afba49776529c14a6104b283836040516115cd929190612e60565b60405180910390a2505050565b60006115e5826110a9565b805190915015156001146114585760405162461bcd60e51b81526004016107f7906137d2565b5190565b60005b8181101561145857600f818154811061163b57634e487b7160e01b600052603260045260246000fd5b6000918252602082200154604080516382c03da560e01b815290516001600160a01b03909216926382c03da59260048084019382900301818387803b15801561168357600080fd5b505af1158015611697573d6000803e3d6000fd5b5050505080806116a690613975565b915050611612565b60005b60075481101561172557600060066000600784815481106116e257634e487b7160e01b600052603260045260246000fd5b60009182526020808320909101546001600160a01b031683528201929092526040019020805464ffffffffff19169055508061171d81613975565b9150506116b1565b50610e2e60076000612703565b61174361173d61150f565b82611ebb565b61175f5760405162461bcd60e51b81526004016107f7906136b4565b6108af83838360405180602001604052806000815250611f38565b6001600160a01b03166000818152600660205260408120805460ff191660019081179091556007805491820181559091526000805160206139fc8339815191520180546001600160a01b0319169091179055565b6001600160a01b0381166000908152600a602052604090205460ff161515600114610c915760405162461bcd60e51b81526004016107f790613809565b6118156001610ed2565b6001600160a01b0316816001600160a01b031614610c915760405162461bcd60e51b81526004016107f790613056565b60006001600160a01b03891661186d5760405162461bcd60e51b81526004016107f790613108565b6001600160a01b0386166118935760405162461bcd60e51b81526004016107f790613730565b600d8054610100600160a81b0319166101006001600160a01b0389160217905587516118c690600b9060208b0190612721565b5086516118da90600c9060208a0190612721565b50600e80546001600160a01b0319166001600160a01b038716179055600d805460ff1916600117905561190e828585611f71565b6119198960016120b0565b6119228961177a565b50600d5460ff1698975050505050505050565b6001600160a01b03166000818152600660205260408120805464ff0000000019166401000000001790556007805460018101825591526000805160206139fc8339815191520180546001600160a01b0319169091179055565b6001600160a01b03166000908152600660205260409020805464ff0000000019169055565b6001600160a01b03166000908152600660205260409020805460ff19169055565b82846001600160a01b0316867f1f920dbda597d7bf95035464170fa58d0a4b57f13a1c315ace6793b9f63688b88585604051611a11929190612e60565b60405180910390a460006109c45a611a2991906138f7565b905085611a7957611a73858585858080601f0160208091040260200160405190810160405280939291908181526020018383808284376000920191909152508792506120ca915050565b50611bce565b6003861415611ac257611a738484848080601f0160208091040260200160405190810160405280939291908181526020018383808284376000920191909152506120e292505050565b6002861415611bb6576000611b1984848080601f016020809104026020016040519081016040528093929190818152602001838380828437600092019190915250611b149250602091508790506138f7565b61214e565b90506000611b6885858080601f01602080910402602001604051908101604052809392919081815260200183838082843760009201829052509250611b63915060209050886138f7565b612184565b90506000611b7787848461224c565b6040519091506001600160a01b038216907fcf78cf0d6f3d8371e1075c69c492ab4ec5d8cf23a1a239b6a51a1d00be7ca31290600090a2505050611bce565b60405162461bcd60e51b81526004016107f790613686565b505050505050565b60408051602081019091526000815290565b606081611c0d57506040805180820190915260018152600360fc1b6020820152610739565b8160005b8115611c375780611c2181613975565b9150611c309050600a836138e3565b9150611c11565b60008167ffffffffffffffff811115611c6057634e487b7160e01b600052604160045260246000fd5b6040519080825280601f01601f191660200182016040528015611c8a576020820181803683370190505b5090505b8415611d0357611c9f6001836138f7565b9150611cac600a86613990565b611cb79060306138cb565b60f81b818381518110611cda57634e487b7160e01b600052603260045260246000fd5b60200101906001600160f81b031916908160001a905350611cfc600a866138e3565b9450611c8e565b949350505050565b336001600160a01b0316816001600160a01b031663075461726040518163ffffffff1660e01b815260040160206040518083038186803b158015611d4e57600080fd5b505afa158015611d62573d6000803e3d6000fd5b505050506040513d601f19601f82011682018060405250810190611d869190612818565b6001600160a01b031614611dac5760405162461bcd60e51b81526004016107f790613463565b6001600160a01b0381166000818152600a6020526040808220805460ff19166001179055805163eb40024b60e01b8152905163eb40024b9260048084019391929182900301818387803b158015611e0257600080fd5b505af1158015611e16573d6000803e3d6000fd5b50505050306001600160a01b0316816001600160a01b031663075461726040518163ffffffff1660e01b815260040160206040518083038186803b158015611e5d57600080fd5b505afa158015611e71573d6000803e3d6000fd5b505050506040513d601f19601f82011682018060405250810190611e959190612818565b6001600160a01b031614610c915760405162461bcd60e51b81526004016107f7906132d7565b6000611ec6826114f2565b611ee25760405162461bcd60e51b81526004016107f790613156565b6000611eed83610ed2565b9050806001600160a01b0316846001600160a01b03161480611f285750836001600160a01b0316611f1d846107d0565b6001600160a01b0316145b80611d035750611d038185611480565b611f49611f4361150f565b83611ebb565b611f655760405162461bcd60e51b81526004016107f7906136b4565b610f47848484846122be565b600e5460405163072f670f60e41b815230916001600160a01b0316906372f670f090611fa1908490600401612d5c565b602060405180830381600087803b158015611fbb57600080fd5b505af1158015611fcf573d6000803e3d6000fd5b505050506040513d601f19601f82011682018060405250810190611ff39190612818565b6001600160a01b0316146120195760405162461bcd60e51b81526004016107f79061341e565b600d5460405163209d0e0560e21b81526101009091046001600160a01b031690638274381490612053903090879087908790600401612df1565b600060405180830381600087803b15801561206d57600080fd5b505af1158015612081573d6000803e3d6000fd5b505050506108af7fa063f3cd8b0dcd6546ffc1c06fc86515c40fe331e91488c5e18c88c7efc881e88383611581565b6114588282604051806020016040528060008152506122f1565b6000806000845160208601878987f195945050505050565b600081516020830184f090506001600160a01b0381166121145760405162461bcd60e51b81526004016107f7906134af565b6040516001600160a01b038216907fcf78cf0d6f3d8371e1075c69c492ab4ec5d8cf23a1a239b6a51a1d00be7ca31290600090a292915050565b600061215b8260206138cb565b8351101561217b5760405162461bcd60e51b81526004016107f790613532565b50016020015190565b60608161219281601f6138cb565b10156121b05760405162461bcd60e51b81526004016107f7906131a2565b6121ba82846138cb565b845110156121da5760405162461bcd60e51b81526004016107f790613705565b6060821580156121f95760405191506000825260208201604052612243565b6040519150601f8416801560200281840101858101878315602002848b0101015b8183101561223257805183526020928301920161221a565b5050858452601f01601f1916604052505b50949350505050565b6000808447101561226f5760405162461bcd60e51b81526004016107f790613850565b825161228d5760405162461bcd60e51b81526004016107f790612f98565b8383516020850187f590506001600160a01b038116611d035760405162461bcd60e51b81526004016107f7906133b2565b6122c9848484612324565b6122d584848484612451565b610f475760405162461bcd60e51b81526004016107f790612fcd565b6122fb838361256c565b6123086000848484612451565b6108af5760405162461bcd60e51b81526004016107f790612fcd565b826001600160a01b031661233782610ed2565b6001600160a01b03161461235d5760405162461bcd60e51b81526004016107f790613561565b6001600160a01b0382166123835760405162461bcd60e51b81526004016107f79061308d565b61238e8383836108af565b612399600082611513565b6001600160a01b03831660009081526003602052604081208054600192906123c29084906138f7565b90915550506001600160a01b03821660009081526003602052604081208054600192906123f09084906138cb565b909155505060008181526002602052604080822080546001600160a01b0319166001600160a01b0386811691821790925591518493918716917fddf252ad1be2c89b69c2b068fc378daa952ba7f163c4a11628f55a4df523b3ef91a4505050565b6000612465846001600160a01b031661264b565b1561256157836001600160a01b031663150b7a0261248161150f565b8786866040518563ffffffff1660e01b81526004016124a39493929190612d70565b602060405180830381600087803b1580156124bd57600080fd5b505af19250505080156124ed575060408051601f3d908101601f191682019092526124ea91810190612b27565b60015b612547573d80801561251b576040519150601f19603f3d011682016040523d82523d6000602084013e612520565b606091505b50805161253f5760405162461bcd60e51b81526004016107f790612fcd565b805181602001fd5b6001600160e01b031916630a85bd0160e11b149050611d03565b506001949350505050565b6001600160a01b0382166125925760405162461bcd60e51b81526004016107f7906133e9565b61259b816114f2565b156125b85760405162461bcd60e51b81526004016107f79061301f565b6125c4600083836108af565b6001600160a01b03821660009081526003602052604081208054600192906125ed9084906138cb565b909155505060008181526002602052604080822080546001600160a01b0319166001600160a01b03861690811790915590518392907fddf252ad1be2c89b69c2b068fc378daa952ba7f163c4a11628f55a4df523b3ef908290a45050565b3b151590565b6040805160a08101825260008082526020820181905291810182905260608101829052608081019190915290565b82805461268b9061393a565b90600052602060002090601f0160209004810192826126ad57600085556126f3565b82601f106126c65782800160ff198235161785556126f3565b828001600101855582156126f3579182015b828111156126f35782358255916020019190600101906126d8565b506126ff929150612795565b5090565b5080546000825590600052602060002090810190610c919190612795565b82805461272d9061393a565b90600052602060002090601f01602090048101928261274f57600085556126f3565b82601f1061276857805160ff19168380011785556126f3565b828001600101855582156126f3579182015b828111156126f357825182559160200191906001019061277a565b5b808211156126ff5760008155600101612796565b8035610739816139d0565b60008083601f8401126127c6578182fd5b50813567ffffffffffffffff8111156127dd578182fd5b6020830191508360208285010111156127f557600080fd5b9250929050565b60006020828403121561280d578081fd5b8135611436816139d0565b600060208284031215612829578081fd5b8151611436816139d0565b60008060408385031215612846578081fd5b8235612851816139d0565b91506020830135612861816139d0565b809150509250929050565b600080600060608486031215612880578081fd5b833561288b816139d0565b9250602084013561289b816139d0565b929592945050506040919091013590565b600080604083850312156128be578182fd5b82356128c9816139d0565b915060208301358015158114612861578182fd5b60008060008060008060006080888a0312156128f7578283fd5b8735612902816139d0565b9650602088013567ffffffffffffffff8082111561291e578485fd5b61292a8b838c016127b5565b909850965060408a0135915080821115612942578485fd5b61294e8b838c016127b5565b909650945060608a0135915080821115612966578384fd5b506129738a828b016127b5565b989b979a50959850939692959293505050565b600080600080600080600080600080600060e08c8e0312156129a6578384fd5b6129af8c6127aa565b9a5067ffffffffffffffff8060208e013511156129ca578485fd5b6129da8e60208f01358f016127b5565b909b50995060408d01358110156129ef578485fd5b6129ff8e60408f01358f016127b5565b9099509750612a1060608e016127aa565b9650612a1e60808e016127aa565b95508060a08e01351115612a30578485fd5b612a408e60a08f01358f016127b5565b909550935060c08d0135811015612a55578283fd5b50612a668d60c08e01358e016127b5565b81935080925050509295989b509295989b9093969950565b60008060408385031215612a90578182fd5b8235612a9b816139d0565b946020939093013593505050565b600060208284031215612aba578081fd5b5035919050565b600080600060408486031215612ad5578283fd5b83359250602084013567ffffffffffffffff811115612af2578283fd5b612afe868287016127b5565b9497909650939450505050565b600060208284031215612b1c578081fd5b8135611436816139e5565b600060208284031215612b38578081fd5b8151611436816139e5565b60008060008060408587031215612b58578182fd5b843567ffffffffffffffff80821115612b6f578384fd5b612b7b888389016127b5565b90965094506020870135915080821115612b93578384fd5b50612ba0878288016127b5565b95989497509550505050565b60008060008060008060008060c0898b031215612bc7578182fd5b883567ffffffffffffffff80821115612bde578384fd5b612bea8c838d016127b5565b909a50985060208b0135915080821115612c02578384fd5b50612c0f8b828c016127b5565b90975095505060408901359350606089013592506080890135612c31816139d0565b915060a0890135612c41816139d0565b809150509295985092959890939650565b600080600080600060808688031215612c69578283fd5b853594506020860135612c7b816139d0565b935060408601359250606086013567ffffffffffffffff811115612c9d578182fd5b612ca9888289016127b5565b969995985093965092949392505050565b60008284528282602086013780602084860101526020601f19601f85011685010190509392505050565b60008151808452612cfc81602086016020860161390e565b601f01601f19169290920160200192915050565b60609190911b6bffffffffffffffffffffffff1916815260140190565b60008351612d3f81846020880161390e565b835190830190612d5381836020880161390e565b01949350505050565b6001600160a01b0391909116815260200190565b6001600160a01b0385811682528416602082015260408101839052608060608201819052600090612da390830184612ce4565b9695505050505050565b6001600160a01b0386168152606060208201819052600090612dd29083018688612cba565b8281036040840152612de5818587612cba565b98975050505050505050565b6001600160a01b0385168152606060208201819052600090612e1590830186612ce4565b8281036040840152612e28818587612cba565b979650505050505050565b6001600160a01b03929092168252602082015260400190565b901515815260200190565b90815260200190565b600060208252611d03602083018486612cba565b6000602082526114366020830184612ce4565b600060c08252612e9b60c083018a8c612cba565b8281036020840152612eae81898b612cba565b6040840197909752505060608101939093526001600160a01b0391821660808401521660a090910152949350505050565b60208082526021908201527f45524337323154656d706c6174653a204e4f542053544f5245205550444154456040820152602960f91b606082015260800190565b6020808252601c908201527f45524337323154656d706c6174653a204e4f542076334d696e74657200000000604082015260600190565b60208082526021908201527f45524337323154656d706c6174653a204e4f54204d455441444154415f524f4c6040820152604560f81b606082015260800190565b6020808252818101527f437265617465323a2062797465636f6465206c656e677468206973207a65726f604082015260600190565b60208082526032908201527f4552433732313a207472616e7366657220746f206e6f6e20455243373231526560408201527131b2b4bb32b91034b6b83632b6b2b73a32b960711b606082015260800190565b6020808252601c908201527f4552433732313a20746f6b656e20616c7265616479206d696e74656400000000604082015260600190565b6020808252601c908201527f45524337323154656d706c6174653a206e6f74204e46544f776e657200000000604082015260600190565b60208082526024908201527f4552433732313a207472616e7366657220746f20746865207a65726f206164646040820152637265737360e01b606082015260800190565b60208082526019908201527f4552433732313a20617070726f766520746f2063616c6c657200000000000000604082015260600190565b6020808252602e908201527f45524337323154656d706c6174653a3a20496e76616c6964206d696e7465722c60408201526d20207a65726f206164647265737360901b606082015260800190565b6020808252602c908201527f4552433732313a206f70657261746f7220717565727920666f72206e6f6e657860408201526b34b9ba32b73a103a37b5b2b760a11b606082015260800190565b6020808252600e908201526d736c6963655f6f766572666c6f7760901b604082015260600190565b60208082526022908201527f45524337323154656d706c6174653a204e4f5420455243323020436f6e74726160408201526118dd60f21b606082015260800190565b6020808252601f908201527f45524337323154656d706c6174653a204e4f54204d494e5445525f524f4c4500604082015260600190565b60208082526038908201527f4552433732313a20617070726f76652063616c6c6572206973206e6f74206f7760408201527f6e6572206e6f7220617070726f76656420666f7220616c6c0000000000000000606082015260800190565b6020808252601d908201527f45524337323154656d706c6174653a204e4f54207633204d494e544552000000604082015260600190565b60208082526028908201527f45524337323154656d706c6174653a204641494c454420544f20534554204e456040820152672b9026a4a72a22a960c11b606082015260800190565b6020808252602a908201527f4552433732313a2062616c616e636520717565727920666f7220746865207a65604082015269726f206164647265737360b01b606082015260800190565b60208082526029908201527f4552433732313a206f776e657220717565727920666f72206e6f6e657869737460408201526832b73a103a37b5b2b760b91b606082015260800190565b60208082526019908201527f437265617465323a204661696c6564206f6e206465706c6f7900000000000000604082015260600190565b6020808252818101527f4552433732313a206d696e7420746f20746865207a65726f2061646472657373604082015260600190565b60208082526025908201527f45524337323154656d706c6174653a204e4f54204f524947494e414c2054454d604082015264504c41544560d81b606082015260800190565b6020808252602c908201527f45524337323154656d706c6174653a204e4f542045524332302056332064617460408201526b30ba37b5b2b71037bbb732b960a11b606082015260800190565b60208082526019908201527f436f756c64206e6f74206465706c6f7920636f6e747261637400000000000000604082015260600190565b6020808252602c908201527f4552433732313a20617070726f76656420717565727920666f72206e6f6e657860408201526b34b9ba32b73a103a37b5b2b760a11b606082015260800190565b602080825260159082015274746f427974657333325f6f75744f66426f756e647360581b604082015260600190565b60208082526029908201527f4552433732313a207472616e73666572206f6620746f6b656e2074686174206960408201526839903737ba1037bbb760b91b606082015260800190565b6020808252602f908201527f4552433732314d657461646174613a2055524920717565727920666f72206e6f60408201526e3732bc34b9ba32b73a103a37b5b2b760891b606082015260800190565b6020808252602c908201527f45524337323154656d706c6174653a2043616e6e6f74207472616e736665722060408201526b1d1a1a5cc81d1bdad95b925960a21b606082015260800190565b60208082526021908201527f4552433732313a20617070726f76616c20746f2063757272656e74206f776e656040820152603960f91b606082015260800190565b60208082526014908201527357726f6e67206f7065726174696f6e207479706560601b604082015260600190565b60208082526031908201527f4552433732313a207472616e736665722063616c6c6572206973206e6f74206f6040820152701ddb995c881b9bdc88185c1c1c9bdd9959607a1b606082015260800190565b602080825260119082015270736c6963655f6f75744f66426f756e647360781b604082015260600190565b60208082526030908201527f45524337323154656d706c6174653a3a204d657461646174612061646472657360408201526f732063616e6e6f74206265207a65726f60801b606082015260800190565b60208082526032908201527f45524337323154656d706c6174653a20746f6b656e20696e7374616e636520616040820152711b1c9958591e481a5b9a5d1a585b1a5e995960721b606082015260800190565b6020808252601f908201527f455243373231526f6c6573416464726573733a204e4f54204d414e4147455200604082015260600190565b60208082526027908201527f45524337323154656d706c6174653a20763344617461746f6b656e206e6f742060408201526615d4905414115160ca1b606082015260800190565b6020808252601d908201527f437265617465323a20696e73756666696369656e742062616c616e6365000000604082015260600190565b600060a08201905082511515825260208301511515602083015260408301511515604083015260608301511515606083015260808301511515608083015292915050565b600082198211156138de576138de6139a4565b500190565b6000826138f2576138f26139ba565b500490565b600082821015613909576139096139a4565b500390565b60005b83811015613929578181015183820152602001613911565b83811115610f475750506000910152565b60028104600182168061394e57607f821691505b6020821081141561396f57634e487b7160e01b600052602260045260246000fd5b50919050565b6000600019821415613989576139896139a4565b5060010190565b60008261399f5761399f6139ba565b500690565b634e487b7160e01b600052601160045260246000fd5b634e487b7160e01b600052601260045260246000fd5b6001600160a01b0381168114610c9157600080fd5b6001600160e01b031981168114610c9157600080fdfea66cc928b5edb82af9bd49922954155ab7b0942694bea4ce44661d9a8736c688a26469706673582212209c4d177e49ea98866db2d46defb8155ceb49952507fe02739f0999708ce0654364736f6c63430008000033",
  "linkReferences": {},
  "deployedLinkReferences": {}
}