{
  "_format": "hh-sol-artifact-1",
  "contractName": "ERC721Template",
  "sourceName": "contracts/templates/ERC721Template.sol",
  "abi": [
    {
      "anonymous": false,
      "inputs": [
        {
          "indexed": true,
          "internalType": "address",
          "name": "owner",
          "type": "address"
        },
        {
          "indexed": true,
          "internalType": "address",
          "name": "approved",
          "type": "address"
        },
        {
          "indexed": true,
          "internalType": "uint256",
          "name": "tokenId",
          "type": "uint256"
        }
      ],
      "name": "Approval",
      "type": "event"
    },
    {
      "anonymous": false,
      "inputs": [
        {
          "indexed": true,
          "internalType": "address",
          "name": "owner",
          "type": "address"
        },
        {
          "indexed": true,
          "internalType": "address",
          "name": "operator",
          "type": "address"
        },
        {
          "indexed": false,
          "internalType": "bool",
          "name": "approved",
          "type": "bool"
        }
      ],
      "name": "ApprovalForAll",
      "type": "event"
    },
    {
      "anonymous": false,
      "inputs": [
        {
          "indexed": true,
          "internalType": "address",
          "name": "contractAddress",
          "type": "address"
        }
      ],
      "name": "ContractCreated",
      "type": "event"
    },
    {
      "anonymous": false,
      "inputs": [
        {
          "indexed": true,
          "internalType": "bytes32",
          "name": "key",
          "type": "bytes32"
        },
        {
          "indexed": false,
          "internalType": "bytes",
          "name": "value",
          "type": "bytes"
        }
      ],
      "name": "DataChanged",
      "type": "event"
    },
    {
      "anonymous": false,
      "inputs": [
        {
          "indexed": true,
          "internalType": "address",
          "name": "erc20Address",
          "type": "address"
        }
      ],
      "name": "ERC20Created",
      "type": "event"
    },
    {
      "anonymous": false,
      "inputs": [
        {
          "indexed": true,
          "internalType": "uint256",
          "name": "_operation",
          "type": "uint256"
        },
        {
          "indexed": true,
          "internalType": "address",
          "name": "_to",
          "type": "address"
        },
        {
          "indexed": true,
          "internalType": "uint256",
          "name": "_value",
          "type": "uint256"
        },
        {
          "indexed": false,
          "internalType": "bytes",
          "name": "_data",
          "type": "bytes"
        }
      ],
      "name": "Executed",
      "type": "event"
    },
    {
      "anonymous": false,
      "inputs": [
        {
          "indexed": true,
          "internalType": "address",
          "name": "from",
          "type": "address"
        },
        {
          "indexed": true,
          "internalType": "address",
          "name": "to",
          "type": "address"
        },
        {
          "indexed": true,
          "internalType": "uint256",
          "name": "tokenId",
          "type": "uint256"
        }
      ],
      "name": "Transfer",
      "type": "event"
    },
    {
      "inputs": [],
      "name": "METADATA_KEY",
      "outputs": [
        {
          "internalType": "bytes32",
          "name": "",
          "type": "bytes32"
        }
      ],
      "stateMutability": "view",
      "type": "function"
    },
    {
      "inputs": [],
      "name": "_metadata",
      "outputs": [
        {
          "internalType": "address",
          "name": "",
          "type": "address"
        }
      ],
      "stateMutability": "view",
      "type": "function"
    },
    {
      "inputs": [
        {
          "internalType": "address",
          "name": "_managerAddress",
          "type": "address"
        }
      ],
      "name": "addManager",
      "outputs": [],
      "stateMutability": "nonpayable",
      "type": "function"
    },
    {
      "inputs": [
        {
          "internalType": "address",
          "name": "_allowedAddress",
          "type": "address"
        }
      ],
      "name": "addTo725StoreList",
      "outputs": [],
      "stateMutability": "nonpayable",
      "type": "function"
    },
    {
      "inputs": [
        {
          "internalType": "address",
          "name": "_allowedAddress",
          "type": "address"
        }
      ],
      "name": "addToCreateERC20List",
      "outputs": [],
      "stateMutability": "nonpayable",
      "type": "function"
    },
    {
      "inputs": [
        {
          "internalType": "address",
          "name": "_allowedAddress",
          "type": "address"
        }
      ],
      "name": "addToMetadataList",
      "outputs": [],
      "stateMutability": "nonpayable",
      "type": "function"
    },
    {
      "inputs": [
        {
          "internalType": "address",
          "name": "newMinter",
          "type": "address"
        }
      ],
      "name": "addV3Minter",
      "outputs": [],
      "stateMutability": "nonpayable",
      "type": "function"
    },
    {
      "inputs": [
        {
          "internalType": "address",
          "name": "to",
          "type": "address"
        },
        {
          "internalType": "uint256",
          "name": "tokenId",
          "type": "uint256"
        }
      ],
      "name": "approve",
      "outputs": [],
      "stateMutability": "nonpayable",
      "type": "function"
    },
    {
      "inputs": [
        {
          "internalType": "uint256",
          "name": "",
          "type": "uint256"
        }
      ],
      "name": "auth",
      "outputs": [
        {
          "internalType": "address",
          "name": "",
          "type": "address"
        }
      ],
      "stateMutability": "view",
      "type": "function"
    },
    {
      "inputs": [
        {
          "internalType": "address",
          "name": "owner",
          "type": "address"
        }
      ],
      "name": "balanceOf",
      "outputs": [
        {
          "internalType": "uint256",
          "name": "",
          "type": "uint256"
        }
      ],
      "stateMutability": "view",
      "type": "function"
    },
    {
      "inputs": [
        {
          "internalType": "bytes32",
          "name": "c__0x819d8ba9",
          "type": "bytes32"
        }
      ],
      "name": "c_0x819d8ba9",
      "outputs": [],
      "stateMutability": "pure",
      "type": "function"
    },
    {
      "inputs": [
        {
          "internalType": "bytes32",
          "name": "c__0x9799fda3",
          "type": "bytes32"
        }
      ],
      "name": "c_0x9799fda3",
      "outputs": [],
      "stateMutability": "pure",
      "type": "function"
    },
    {
      "inputs": [
        {
          "internalType": "bytes32",
          "name": "c__0xab11631e",
          "type": "bytes32"
        }
      ],
      "name": "c_0xab11631e",
      "outputs": [],
      "stateMutability": "pure",
      "type": "function"
    },
    {
      "inputs": [
        {
          "internalType": "bytes32",
          "name": "c__0xce1a1efe",
          "type": "bytes32"
        }
      ],
      "name": "c_0xce1a1efe",
      "outputs": [],
      "stateMutability": "pure",
      "type": "function"
    },
    {
      "inputs": [
        {
          "internalType": "bytes32",
          "name": "c__0xff926fff",
          "type": "bytes32"
        }
      ],
      "name": "c_0xff926fff",
      "outputs": [],
      "stateMutability": "pure",
      "type": "function"
    },
    {
      "inputs": [],
      "name": "cleanPermissions",
      "outputs": [],
      "stateMutability": "nonpayable",
      "type": "function"
    },
    {
      "inputs": [
        {
          "internalType": "string",
          "name": "name_",
          "type": "string"
        },
        {
          "internalType": "string",
          "name": "symbol_",
          "type": "string"
        },
        {
          "internalType": "uint256",
          "name": "cap",
          "type": "uint256"
        },
        {
          "internalType": "uint256",
          "name": "templateIndex",
          "type": "uint256"
        },
        {
          "internalType": "address",
          "name": "minter",
          "type": "address"
        },
        {
          "internalType": "address",
          "name": "feeManager",
          "type": "address"
        }
      ],
      "name": "createERC20",
      "outputs": [
        {
          "internalType": "address",
          "name": "",
          "type": "address"
        }
      ],
      "stateMutability": "nonpayable",
      "type": "function"
    },
    {
      "inputs": [
        {
          "internalType": "uint256",
          "name": "_operation",
          "type": "uint256"
        },
        {
          "internalType": "address",
          "name": "_to",
          "type": "address"
        },
        {
          "internalType": "uint256",
          "name": "_value",
          "type": "uint256"
        },
        {
          "internalType": "bytes",
          "name": "_data",
          "type": "bytes"
        }
      ],
      "name": "executeCall",
      "outputs": [],
      "stateMutability": "payable",
      "type": "function"
    },
    {
      "inputs": [
        {
          "internalType": "uint256",
          "name": "tokenId",
          "type": "uint256"
        }
      ],
      "name": "getApproved",
      "outputs": [
        {
          "internalType": "address",
          "name": "",
          "type": "address"
        }
      ],
      "stateMutability": "view",
      "type": "function"
    },
    {
      "inputs": [
        {
          "internalType": "bytes32",
          "name": "_key",
          "type": "bytes32"
        }
      ],
      "name": "getData",
      "outputs": [
        {
          "internalType": "bytes",
          "name": "_value",
          "type": "bytes"
        }
      ],
      "stateMutability": "view",
      "type": "function"
    },
    {
      "inputs": [
        {
          "internalType": "address",
          "name": "user",
          "type": "address"
        }
      ],
      "name": "getPermissions",
      "outputs": [
        {
          "components": [
            {
              "internalType": "bool",
              "name": "manager",
              "type": "bool"
            },
            {
              "internalType": "bool",
              "name": "deployERC20",
              "type": "bool"
            },
            {
              "internalType": "bool",
              "name": "updateMetadata",
              "type": "bool"
            },
            {
              "internalType": "bool",
              "name": "store",
              "type": "bool"
            },
            {
              "internalType": "bool",
              "name": "v3Minter",
              "type": "bool"
            }
          ],
          "internalType": "struct ERC721RolesAddress.Roles",
          "name": "",
          "type": "tuple"
        }
      ],
      "stateMutability": "view",
      "type": "function"
    },
    {
      "inputs": [
        {
          "internalType": "address",
          "name": "owner",
          "type": "address"
        },
        {
          "internalType": "string",
          "name": "name_",
          "type": "string"
        },
        {
          "internalType": "string",
          "name": "symbol_",
          "type": "string"
        },
        {
          "internalType": "address",
          "name": "metadata",
          "type": "address"
        },
        {
          "internalType": "address",
          "name": "tokenFactory",
          "type": "address"
        },
        {
          "internalType": "bytes",
          "name": "_data",
          "type": "bytes"
        },
        {
          "internalType": "bytes",
          "name": "_flags",
          "type": "bytes"
        }
      ],
      "name": "initialize",
      "outputs": [
        {
          "internalType": "bool",
          "name": "",
          "type": "bool"
        }
      ],
      "stateMutability": "nonpayable",
      "type": "function"
    },
    {
      "inputs": [
        {
          "internalType": "address",
          "name": "owner",
          "type": "address"
        },
        {
          "internalType": "address",
          "name": "operator",
          "type": "address"
        }
      ],
      "name": "isApprovedForAll",
      "outputs": [
        {
          "internalType": "bool",
          "name": "",
          "type": "bool"
        }
      ],
      "stateMutability": "view",
      "type": "function"
    },
    {
      "inputs": [],
      "name": "isInitialized",
      "outputs": [
        {
          "internalType": "bool",
          "name": "",
          "type": "bool"
        }
      ],
      "stateMutability": "view",
      "type": "function"
    },
    {
      "inputs": [
        {
          "internalType": "address",
          "name": "datatoken",
          "type": "address"
        },
        {
          "internalType": "address",
          "name": "to",
          "type": "address"
        },
        {
          "internalType": "uint256",
          "name": "value",
          "type": "uint256"
        }
      ],
      "name": "mintV3DT",
      "outputs": [],
      "stateMutability": "nonpayable",
      "type": "function"
    },
    {
      "inputs": [],
      "name": "name",
      "outputs": [
        {
          "internalType": "string",
          "name": "",
          "type": "string"
        }
      ],
      "stateMutability": "view",
      "type": "function"
    },
    {
      "inputs": [
        {
          "internalType": "uint256",
          "name": "tokenId",
          "type": "uint256"
        }
      ],
      "name": "ownerOf",
      "outputs": [
        {
          "internalType": "address",
          "name": "",
          "type": "address"
        }
      ],
      "stateMutability": "view",
      "type": "function"
    },
    {
      "inputs": [
        {
          "internalType": "address",
          "name": "_allowedAddress",
          "type": "address"
        }
      ],
      "name": "removeFrom725StoreList",
      "outputs": [],
      "stateMutability": "nonpayable",
      "type": "function"
    },
    {
      "inputs": [
        {
          "internalType": "address",
          "name": "_allowedAddress",
          "type": "address"
        }
      ],
      "name": "removeFromCreateERC20List",
      "outputs": [],
      "stateMutability": "nonpayable",
      "type": "function"
    },
    {
      "inputs": [
        {
          "internalType": "address",
          "name": "_allowedAddress",
          "type": "address"
        }
      ],
      "name": "removeFromMetadataList",
      "outputs": [],
      "stateMutability": "nonpayable",
      "type": "function"
    },
    {
      "inputs": [
        {
          "internalType": "address",
          "name": "_managerAddress",
          "type": "address"
        }
      ],
      "name": "removeManager",
      "outputs": [],
      "stateMutability": "nonpayable",
      "type": "function"
    },
    {
      "inputs": [
        {
          "internalType": "address",
          "name": "minter",
          "type": "address"
        }
      ],
      "name": "removeV3Minter",
      "outputs": [],
      "stateMutability": "nonpayable",
      "type": "function"
    },
    {
      "inputs": [
        {
          "internalType": "address",
          "name": "from",
          "type": "address"
        },
        {
          "internalType": "address",
          "name": "to",
          "type": "address"
        },
        {
          "internalType": "uint256",
          "name": "tokenId",
          "type": "uint256"
        }
      ],
      "name": "safeTransferFrom",
      "outputs": [],
      "stateMutability": "nonpayable",
      "type": "function"
    },
    {
      "inputs": [
        {
          "internalType": "address",
          "name": "operator",
          "type": "address"
        },
        {
          "internalType": "bool",
          "name": "approved",
          "type": "bool"
        }
      ],
      "name": "setApprovalForAll",
      "outputs": [],
      "stateMutability": "nonpayable",
      "type": "function"
    },
    {
      "inputs": [
        {
          "internalType": "bytes32",
          "name": "_key",
          "type": "bytes32"
        },
        {
          "internalType": "bytes",
          "name": "_value",
          "type": "bytes"
        }
      ],
      "name": "setDataERC20",
      "outputs": [],
      "stateMutability": "nonpayable",
      "type": "function"
    },
    {
      "inputs": [
        {
          "internalType": "address",
          "name": "datatoken",
          "type": "address"
        },
        {
          "internalType": "bytes",
          "name": "_value",
          "type": "bytes"
        },
        {
          "internalType": "bytes",
          "name": "flags",
          "type": "bytes"
        },
        {
          "internalType": "bytes",
          "name": "data",
          "type": "bytes"
        }
      ],
      "name": "setDataV3",
      "outputs": [],
      "stateMutability": "nonpayable",
      "type": "function"
    },
    {
      "inputs": [
        {
          "internalType": "bytes32",
          "name": "_key",
          "type": "bytes32"
        },
        {
          "internalType": "bytes",
          "name": "_value",
          "type": "bytes"
        }
      ],
      "name": "setNewData",
      "outputs": [],
      "stateMutability": "nonpayable",
      "type": "function"
    },
    {
      "inputs": [],
      "name": "ssContract",
      "outputs": [
        {
          "internalType": "address",
          "name": "",
          "type": "address"
        }
      ],
      "stateMutability": "view",
      "type": "function"
    },
    {
      "inputs": [
        {
          "internalType": "bytes4",
          "name": "interfaceId",
          "type": "bytes4"
        }
      ],
      "name": "supportsInterface",
      "outputs": [
        {
          "internalType": "bool",
          "name": "",
          "type": "bool"
        }
      ],
      "stateMutability": "view",
      "type": "function"
    },
    {
      "inputs": [],
      "name": "symbol",
      "outputs": [
        {
          "internalType": "string",
          "name": "",
          "type": "string"
        }
      ],
      "stateMutability": "view",
      "type": "function"
    },
    {
      "inputs": [
        {
          "internalType": "uint256",
          "name": "tokenId",
          "type": "uint256"
        }
      ],
      "name": "tokenURI",
      "outputs": [
        {
          "internalType": "string",
          "name": "",
          "type": "string"
        }
      ],
      "stateMutability": "view",
      "type": "function"
    },
    {
      "inputs": [
        {
          "internalType": "address",
          "name": "from",
          "type": "address"
        },
        {
          "internalType": "address",
          "name": "to",
          "type": "address"
        },
        {
          "internalType": "uint256",
          "name": "tokenId",
          "type": "uint256"
        }
      ],
      "name": "transferFrom",
      "outputs": [],
      "stateMutability": "nonpayable",
      "type": "function"
    },
    {
      "inputs": [
        {
          "internalType": "bytes",
          "name": "flags",
          "type": "bytes"
        },
        {
          "internalType": "bytes",
          "name": "data",
          "type": "bytes"
        }
      ],
      "name": "updateMetadata",
      "outputs": [],
      "stateMutability": "nonpayable",
      "type": "function"
    },
    {
      "inputs": [
        {
          "internalType": "address",
          "name": "",
          "type": "address"
        }
      ],
      "name": "v3DT",
      "outputs": [
        {
          "internalType": "bool",
          "name": "",
          "type": "bool"
        }
      ],
      "stateMutability": "view",
      "type": "function"
    },
    {
      "inputs": [
        {
          "internalType": "address",
          "name": "datatoken",
          "type": "address"
        },
        {
          "internalType": "address",
          "name": "newMinter",
          "type": "address"
        }
      ],
      "name": "wrapV3DT",
      "outputs": [],
      "stateMutability": "nonpayable",
      "type": "function"
    }
  ],
  "bytecode": "0x60806040523480156200001157600080fd5b506040518060400160405280600881526020017f54656d706c6174650000000000000000000000000000000000000000000000008152506040518060400160405280600e81526020017f54656d706c61746553796d626f6c000000000000000000000000000000000000815250620000b27f0b3e0742e9487d4c37e9cf2200397f3847ac5975ac39830d4e943c0c352f15c560001b620002f060201b60201c565b620000e67f2a9bd605ffd93f49cbe044460ab034fe2d4fc5566db6a45e26d477ad385b639b60001b620002f060201b60201c565b6200011a7fd2cdadcfb83e34c269756fd9693f325f2fe03067b6e8329ac09c3717d701102960001b620002f060201b60201c565b816000908051906020019062000132929190620003cf565b50620001677f3ff59510062844e0c0a48594a5d9b99f914c06868b6f64d899d4c86f1debe0e860001b620002f060201b60201c565b6200019b7f3d52d27e06d0483e79cda06d959303550bb1b1bb741336576313fa3e297d462a60001b620002f060201b60201c565b8060019080519060200190620001b3929190620003cf565b505050620001ea7f167698c847263a69b43c2516f580b7bed4f5070f3ee823cc922cca4435a23ac560001b620002f360201b60201c565b6200021e7fc8d6a5d41b66a75b9b459fc471d968e6b3ec4aa2b14d4ab20e80c30e720c4b8a60001b620002f360201b60201c565b620002527f214cd305a98121240979a7cb5bfd4c2c33a74a9cbf4b9b2a3d34b7264f09a38d60001b620002f360201b60201c565b6200026a6344c028fe60e01b620002f660201b60201c565b6200029e7f407721bc965a6899a14c8ec3f6b204e0167e8bb14b91b600cc16eb993eea0dda60001b620002f360201b60201c565b620002d27fddf36b200d4aa69e71f13ec01c11e3bf47aa2a7908c41511b3b30a9e5e6c4e9960001b620002f360201b60201c565b620002ea632bd57b7360e01b620002f660201b60201c565b62000559565b50565b50565b63ffffffff60e01b817bffffffffffffffffffffffffffffffffffffffffffffffffffffffff1916141562000362576040517f08c379a00000000000000000000000000000000000000000000000000000000081526004016200035990620004c1565b60405180910390fd5b600160086000837bffffffffffffffffffffffffffffffffffffffffffffffffffffffff19167bffffffffffffffffffffffffffffffffffffffffffffffffffffffff1916815260200190815260200160002060006101000a81548160ff02191690831515021790555050565b828054620003dd90620004f4565b90600052602060002090601f0160209004810192826200040157600085556200044d565b82601f106200041c57805160ff19168380011785556200044d565b828001600101855582156200044d579182015b828111156200044c5782518255916020019190600101906200042f565b5b5090506200045c919062000460565b5090565b5b808211156200047b57600081600090555060010162000461565b5090565b60006200048e601c83620004e3565b91507f4552433136353a20696e76616c696420696e74657266616365206964000000006000830152602082019050919050565b60006020820190508181036000830152620004dc816200047f565b9050919050565b600082825260208201905092915050565b600060028204905060018216806200050d57607f821691505b602082108114156200052457620005236200052a565b5b50919050565b7f4e487b7100000000000000000000000000000000000000000000000000000000600052602260045260246000fd5b61d1a580620005696000396000f3fe6080604052600436106102725760003560e01c806354f6127f1161014f578063a22cb465116100c1578063cf7631201161007a578063cf7631201461097d578063d606af56146109a6578063d93fc7c8146109cf578063ddd0af5b146109f8578063e985e9c514610a23578063fe1ec88014610a6057610272565b8063a22cb46514610858578063ac18de4314610881578063b0c41ead146108aa578063b4d07023146108e7578063c55f812614610924578063c87b56dd1461094057610272565b806378245c961161011357806378245c961461074c5780637db0f56d14610775578063819172d9146107b257806395d89b41146107db5780639e75329314610806578063a10143291461082f57610272565b806354f6127f146106435780636352211e1461068057806367530a61146106bd5780636868ff0d146106e657806370a082311461070f57610272565b80632748a9f9116101e857806342842e0e116101ac57806342842e0e1461055d57806342c914c814610586578063431053ac146105af5780634a63740a146105d85780634b2ee5e9146106015780634f189cb21461062c57610272565b80632748a9f91461048c5780632b940806146104b55780632d06177a146104de578063392e53cd1461050757806339371b251461053257610272565b806310c558bf1161023a57806310c558bf1461036e578063160a79251461039757806319c186e5146103d45780631b1de75c146103fd57806323b872dd1461043a578063273e06b31461046357610272565b806301ffc9a71461027757806306fdde03146102b4578063081812fc146102df578063095ea7b31461031c5780630e57c7e814610345575b600080fd5b34801561028357600080fd5b5061029e6004803603810190610299919061b4f3565b610a89565b6040516102ab919061c79c565b60405180910390f35b3480156102c057600080fd5b506102c9610b01565b6040516102d6919061c88b565b60405180910390f35b3480156102eb57600080fd5b506103066004803603810190610301919061b67d565b610c17565b604051610313919061c67c565b60405180910390f35b34801561032857600080fd5b50610343600480360381019061033e919061b436565b610dd0565b005b34801561035157600080fd5b5061036c6004803603810190610367919061b49b565b611124565b005b34801561037a57600080fd5b506103956004803603810190610390919061b154565b6112fb565b005b3480156103a357600080fd5b506103be60048036038101906103b9919061b154565b611694565b6040516103cb919061cd8d565b60405180910390f35b3480156103e057600080fd5b506103fb60048036038101906103f6919061b154565b6117f8565b005b34801561040957600080fd5b50610424600480360381019061041f919061b154565b611b91565b604051610431919061c79c565b60405180910390f35b34801561044657600080fd5b50610461600480360381019061045c919061b1e2565b611bb1565b005b34801561046f57600080fd5b5061048a6004803603810190610485919061b154565b611ee8565b005b34801561049857600080fd5b506104b360048036038101906104ae919061b1e2565b6121c6565b005b3480156104c157600080fd5b506104dc60048036038101906104d7919061b26d565b612463565b005b3480156104ea57600080fd5b506105056004803603810190610500919061b154565b612813565b005b34801561051357600080fd5b5061051c612a22565b604051610529919061c79c565b60405180910390f35b34801561053e57600080fd5b50610547612abd565b604051610554919061c67c565b60405180910390f35b34801561056957600080fd5b50610584600480360381019061057f919061b1e2565b612ae3565b005b34801561059257600080fd5b506105ad60048036038101906105a8919061b545565b612e2a565b005b3480156105bb57600080fd5b506105d660048036038101906105d1919061b154565b613111565b005b3480156105e457600080fd5b506105ff60048036038101906105fa919061b154565b6133ef565b005b34801561060d57600080fd5b50610616613788565b604051610623919061c67c565b60405180910390f35b34801561063857600080fd5b506106416137ae565b005b34801561064f57600080fd5b5061066a6004803603810190610665919061b472565b6139bb565b604051610677919061c7f6565b60405180910390f35b34801561068c57600080fd5b506106a760048036038101906106a2919061b67d565b613ae4565b6040516106b4919061c67c565b60405180910390f35b3480156106c957600080fd5b506106e460048036038101906106df919061b49b565b613d23565b005b3480156106f257600080fd5b5061070d6004803603810190610708919061b472565b613efd565b005b34801561071b57600080fd5b506107366004803603810190610731919061b154565b613f00565b604051610743919061cda8565b60405180910390f35b34801561075857600080fd5b50610773600480360381019061076e919061b472565b6140ed565b005b34801561078157600080fd5b5061079c6004803603810190610797919061b326565b6140f0565b6040516107a9919061c79c565b60405180910390f35b3480156107be57600080fd5b506107d960048036038101906107d4919061b154565b614363565b005b3480156107e757600080fd5b506107f0614591565b6040516107fd919061c88b565b60405180910390f35b34801561081257600080fd5b5061082d6004803603810190610828919061b154565b6146a7565b005b34801561083b57600080fd5b506108566004803603810190610851919061b472565b6148d5565b005b34801561086457600080fd5b5061087f600480360381019061087a919061b231565b6148d8565b005b34801561088d57600080fd5b506108a860048036038101906108a3919061b154565b614be4565b005b3480156108b657600080fd5b506108d160048036038101906108cc919061b67d565b614df3565b6040516108de919061c67c565b60405180910390f35b3480156108f357600080fd5b5061090e6004803603810190610909919061b5ba565b614e32565b60405161091b919061c67c565b60405180910390f35b61093e6004803603810190610939919061b6a6565b61532b565b005b34801561094c57600080fd5b506109676004803603810190610962919061b67d565b615561565b604051610974919061c88b565b60405180910390f35b34801561098957600080fd5b506109a4600480360381019061099f919061b1a6565b615794565b005b3480156109b257600080fd5b506109cd60048036038101906109c8919061b472565b615a05565b005b3480156109db57600080fd5b506109f660048036038101906109f1919061b472565b615a08565b005b348015610a0457600080fd5b50610a0d615a0b565b604051610a1a919061c7b7565b60405180910390f35b348015610a2f57600080fd5b50610a4a6004803603810190610a45919061b1a6565b615a2f565b604051610a57919061c79c565b60405180910390f35b348015610a6c57600080fd5b50610a876004803603810190610a82919061b154565b615b47565b005b6000610a9482615e25565b80610afa575060086000837bffffffffffffffffffffffffffffffffffffffffffffffffffffffff19167bffffffffffffffffffffffffffffffffffffffffffffffffffffffff1916815260200190815260200160002060009054906101000a900460ff165b9050919050565b6060610b2f7fe3e1dfb4fb76cfc5ea064e309430145329ab07248d6c91b35333508e92e6439360001b6140ed565b610b5b7f6bb5fab53422f2ecf3356b331a4d05dc242f932683bd47e0c10c62971fe4818e60001b6140ed565b610b877fc897c8a791cd23cbbc346455b2acf9008a1f4308a260ffb14252229c03804ccb60001b6140ed565b600b8054610b949061cf81565b80601f0160208091040260200160405190810160405280929190818152602001828054610bc09061cf81565b8015610c0d5780601f10610be257610100808354040283529160200191610c0d565b820191906000526020600020905b815481529060010190602001808311610bf057829003601f168201915b5050505050905090565b6000610c457f07d01ae8969be6a96abc9dabd7793e5a0e2701651df25de4417580cda7cf35e460001b615a08565b610c717fc46a123e46d2e2f5a317450c8ba877aae763f7ac33d723bbd15cc75da28de99c60001b615a08565b610c9d7f9148eeb245c4125ef61224c750d1b46e661571b1aa7f413342c464c68ef38bf660001b615a08565b610cc97fc13c90e3be8f188178ad711071af19a12ab2ab7080c55e75b4820fb1e5220fd760001b615a08565b610cd282615e8f565b610d11576040517f08c379a0000000000000000000000000000000000000000000000000000000008152600401610d089061cbcd565b60405180910390fd5b610d3d7f4ac933e8481f567a747b6e181b56521405d01599fa4ec46f1c1c1e51e2544b3660001b615a08565b610d697f8b1213438a2b3e735ba5ec77d01490b64062e1378a9fabbb4735afc505dc335760001b615a08565b610d957f7ca0d74e93b0fc5a9950dde79e97ff6be9dcec591bb46d4567fc93eba90d4a0b60001b615a08565b6004600083815260200190815260200160002060009054906101000a900473ffffffffffffffffffffffffffffffffffffffff169050919050565b610dfc7fded5f23f7ae66971e18b23a49e9c8e6b3521a6ac0f3d3fea4c09e3f6724bd63d60001b615a08565b610e287fdcb3fe48db66270008ab07015f993d8e2d31c80211cc8a49daedae647bb7354260001b615a08565b610e547fb227aae3e91e724b6e2314084fa73a7629948ee6f88640fbada400c11c2add1d60001b615a08565b6000610e5f82613ae4565b9050610e8d7f92207e37564a898646fa6c6725dd213c3a59b92b28e37ff364d781e8b472b18860001b615a08565b610eb97f58ccaebaa5a845ab5d275dd2f804c9b02583b6471510fe544ba8935982a4f24b60001b615a08565b610ee57f410e4a1d0b09de215f46e3998f17d127928bf198428e791e2cc992d9928edcbb60001b615a08565b8073ffffffffffffffffffffffffffffffffffffffff168373ffffffffffffffffffffffffffffffffffffffff161415610f54576040517f08c379a0000000000000000000000000000000000000000000000000000000008152600401610f4b9061cc6d565b60405180910390fd5b610f807f80d4bf9a59ba17559a0e25050b4190285e57099c7088d479d8df44d4c1110b5060001b615a08565b610fac7fa0c6195bd827f95fec90dc33a55d96aab9e78a7aedc8997d840020cda5f5c50960001b615a08565b610fd87f272fb205db42ef9c1d76c5eba8e57d7dcea2da98a1cace0d6a56740d501f83fc60001b615a08565b6110047f8a8902ee5e47e4a9bf0d0483e60edde8c5dc730f37c525296ae710d291b3ac3260001b615a08565b8073ffffffffffffffffffffffffffffffffffffffff16611023615f80565b73ffffffffffffffffffffffffffffffffffffffff16148061105257506110518161104c615f80565b615a2f565b5b611091576040517f08c379a00000000000000000000000000000000000000000000000000000000081526004016110889061ca6d565b60405180910390fd5b6110bd7f578ed35bacb67d853770c779d025a78fe70d7e3b6821a57fa99a6ebfb82cdb6860001b615a08565b6110e97f646debc50d38937682b1d42cc987be8bc5d31fe30e9308aac5c610fe07382b6e60001b615a08565b6111157fd6cf9db475cd64745f8504517f4fbfa8bb8f1a81ccaa80727de8dfae81214e7260001b615a08565b61111f8383615f88565b505050565b6111507fefdfc12b6161c2cb48d0e8d7b48ed6f2ce452316445ee4ae934e0de607da645a60001b6140ed565b61117c7fdd89d5028b5cac06af8c19b98fccc8bca646ae870ea18a8097267d89cdb13fe960001b6140ed565b6111a87fc3286e822ce90230307961c9989723b3cfdad076b25e686db66fb960db053c2a60001b6140ed565b6111d47fc810ce9b652a5a479f093f0b143466dd42003685e0d796d8e39a7681f24395cb60001b6140ed565b60011515601160003373ffffffffffffffffffffffffffffffffffffffff1673ffffffffffffffffffffffffffffffffffffffff16815260200190815260200160002060009054906101000a900460ff16151514611267576040517f08c379a000000000000000000000000000000000000000000000000000000000815260040161125e9061ca4d565b60405180910390fd5b6112937f9dcf929522dbbd886affd03e79cd41232f82d5e191cb9ea0bc2b9bd7e6fb40d060001b6140ed565b6112bf7f5f8055d39bd9aa74757977c72faa34c4c26633e4721116f8752df4796485632960001b6140ed565b6112eb7f96b0e091455599307c79f1e47cca6954357b0aef72208eb6db13e4767be6b5ec60001b6140ed565b6112f683838361611d565b505050565b6113277f6e9e6acb812841407579b64d2dad26c53ceec9183f1d741efe3c49ac84d929f160001b615a05565b6113537f86148161f9f780b7fa2d65724cb5ac8ce1dc9ef2b29a63c5a346dbef59ce9d2d60001b615a05565b61137f7f9f5285834aa1ce8cee6cd724aef9dbb2eb5ec4172796df48c8646a8963565e8a60001b615a05565b6113ab7ffe509709e2a944a06096cdc5981bcc2b588217972996a035d719c91a5bd3b98c60001b615a05565b60011515600660003373ffffffffffffffffffffffffffffffffffffffff1673ffffffffffffffffffffffffffffffffffffffff16815260200190815260200160002060000160009054906101000a900460ff16151514611441576040517f08c379a00000000000000000000000000000000000000000000000000000000081526004016114389061cd2d565b60405180910390fd5b61146d7f86d7d58308d5b5c2ff47421233ed35a75bf1d89a189c1bba9e089af8dba2eca660001b615a05565b6114997fc0064d47094f40b4051e93e5c02a91671d47cb976c4358ccba7db7b1871460bf60001b615a05565b6114c57ff94871687f83727bf8d7a3a14d04e5664b371c1f0fb0203883deebd9c72355b760001b615a05565b6114f17fc52fa6c4f4b300d03a48a703133c1351a6abb716a6e06aff3e9a12409bb37e1e60001b615a05565b61151d7fcbd111a4dbe62ead0bc6395ee05aac322312567761d86b82ff692a24d6e9169e60001b615a05565b6000600660008373ffffffffffffffffffffffffffffffffffffffff1673ffffffffffffffffffffffffffffffffffffffff168152602001908152602001600020905061158c7fb7c939ab8d6bb8152ba187516c6b1e4409bd19660ce775a0535c6142f4f1a64060001b615a05565b6115b87fe66aaa2334790bd8a7ca1f41e7cbb8029cb72bdf40cce1d95eef2c26e398aaef60001b615a05565b60018160000160026101000a81548160ff0219169083151502179055506116017f01a0cda485204e495a19c996e4c0f6ff50645ee0093c2a5e3ac9519f9ca074aa60001b615a05565b61162d7fd23348ad4b64b1b7f381de40f6835d3acb2ea362c525130590554a6b9b73fcd660001b615a05565b6007829080600181540180825580915050600190039060005260206000200160009091909190916101000a81548173ffffffffffffffffffffffffffffffffffffffff021916908373ffffffffffffffffffffffffffffffffffffffff1602179055505050565b61169c61aeaa565b6116c87fc1c72c72e48c13e8bd3acb58f87318aee86c7d7fd74b7357171564f72ccb772f60001b615a05565b6116f47ff1fb817d8b9fb9475dfc2b7ae92b0db7cc1195286a72f24562c8efe4decffb0760001b615a05565b6117207f90af3017f49ab1baa1687aaa66d1ad1dde3e2289607a5a89e01746def1a1ecc460001b615a05565b600660008373ffffffffffffffffffffffffffffffffffffffff1673ffffffffffffffffffffffffffffffffffffffff1681526020019081526020016000206040518060a00160405290816000820160009054906101000a900460ff161515151581526020016000820160019054906101000a900460ff161515151581526020016000820160029054906101000a900460ff161515151581526020016000820160039054906101000a900460ff161515151581526020016000820160049054906101000a900460ff1615151515815250509050919050565b6118247f6e9e6acb812841407579b64d2dad26c53ceec9183f1d741efe3c49ac84d929f160001b615a05565b6118507f86148161f9f780b7fa2d65724cb5ac8ce1dc9ef2b29a63c5a346dbef59ce9d2d60001b615a05565b61187c7f9f5285834aa1ce8cee6cd724aef9dbb2eb5ec4172796df48c8646a8963565e8a60001b615a05565b6118a87ffe509709e2a944a06096cdc5981bcc2b588217972996a035d719c91a5bd3b98c60001b615a05565b60011515600660003373ffffffffffffffffffffffffffffffffffffffff1673ffffffffffffffffffffffffffffffffffffffff16815260200190815260200160002060000160009054906101000a900460ff1615151461193e576040517f08c379a00000000000000000000000000000000000000000000000000000000081526004016119359061cd2d565b60405180910390fd5b61196a7f86d7d58308d5b5c2ff47421233ed35a75bf1d89a189c1bba9e089af8dba2eca660001b615a05565b6119967fc0064d47094f40b4051e93e5c02a91671d47cb976c4358ccba7db7b1871460bf60001b615a05565b6119c27f25b6b2218b7c69891b85b8afa6de73f2fe8e00681d5413cb780810f4c275d5d360001b615a05565b6119ee7f339b1d6e99d2ee1deb19f805cc649fb285deeeb1d7b680329d20c071a140d77d60001b615a05565b611a1a7fcdbc1e037ceff4d2e2cbf0b8cdbb82f622c03df82f8343388b079048a3957ac260001b615a05565b6000600660008373ffffffffffffffffffffffffffffffffffffffff1673ffffffffffffffffffffffffffffffffffffffff1681526020019081526020016000209050611a897f7f3501bccd3dd21c3df20c95c7162f46c2629db204edea45878a813b2eae9efe60001b615a05565b611ab57f3016e74721e87133cbb91b4579dfddc84817c751659119c6c4dc90e5ca77334d60001b615a05565b60018160000160036101000a81548160ff021916908315150217905550611afe7f39768a6552c2f7562b0e628d9b1d5bf94271fa47f23b82d847335162d12378e460001b615a05565b611b2a7fd3e3f1d62655a26307cb94a94e3db1a1e7e22557705da1287b5b14ffd024cd7d60001b615a05565b6007829080600181540180825580915050600190039060005260206000200160009091909190916101000a81548173ffffffffffffffffffffffffffffffffffffffff021916908373ffffffffffffffffffffffffffffffffffffffff1602179055505050565b600a6020528060005260406000206000915054906101000a900460ff1681565b611bdd7fd38a3f289f570d6ee0f49f73ea11310312634e31dbc6390fd47b4588265fe72d60001b6140ed565b611c097f22f89ca554cb1fecd28da37e2e11e348f426174aa1bcaa5cb39607db9abf254460001b6140ed565b611c357fbdfb16d3457527af0c5100c3cc267827d1d3b27115fe5e64881e665ae5a9572c60001b6140ed565b611c617fee31f3faeba7dfb65be7b7ec66e863e69e04e50982e80bd8cc26d39c9cc30ee060001b6140ed565b60018114611ca4576040517f08c379a0000000000000000000000000000000000000000000000000000000008152600401611c9b9061cc4d565b60405180910390fd5b611cd07f141e89ab58b07bb0c87727fa32777fbab96b98de0833c1ac9087e5ac06e6416f60001b6140ed565b611cfc7f0a459bfff72e5e944bcab6e50ea46c731f1688a9bb82f459a2ce434cfce2245d60001b6140ed565b611d287fbb7a8c59854e1461a4122c2bbb72f543766cc2b50e44e04787aac830fc5fe99160001b6140ed565b611dbf611dba600f805480602002602001604051908101604052809291908181526020018280548015611db057602002820191906000526020600020905b8160009054906101000a900473ffffffffffffffffffffffffffffffffffffffff1673ffffffffffffffffffffffffffffffffffffffff1681526020019060010190808311611d66575b505050505061625b565b6162ea565b611deb7f796fed04cbe02e80760b483b53be1cce9493effa618e7b810362dfc536c1ed0d60001b6140ed565b611e177fe2618f900e7f8e0393f9b3f64ad34d6cb7ea44862a85396812851b13d4ab4a9d60001b6140ed565b611e1f6164ac565b611e4b7f5590f9ab0f3163cd007aa4193db1d76376353aac911c5495aa0347ab1f3cf9da60001b6140ed565b611e777fd1ee38ef7aaf882cc62c8d42f806a807f448c5285a142bd3b52164e032ed923760001b6140ed565b611e828383836168d9565b611eae7fd8e9496e9d58d4790a162cec5cc0a14f704ec8fc6b4dbb0430a4c101e8125eb460001b6140ed565b611eda7fe3de9844c4cb447b9fae4a1025c69a6c5a6d642d20d7aa55c12aa242020fcb4460001b6140ed565b611ee382616a7d565b505050565b611f147f6e9e6acb812841407579b64d2dad26c53ceec9183f1d741efe3c49ac84d929f160001b615a05565b611f407f86148161f9f780b7fa2d65724cb5ac8ce1dc9ef2b29a63c5a346dbef59ce9d2d60001b615a05565b611f6c7f9f5285834aa1ce8cee6cd724aef9dbb2eb5ec4172796df48c8646a8963565e8a60001b615a05565b611f987ffe509709e2a944a06096cdc5981bcc2b588217972996a035d719c91a5bd3b98c60001b615a05565b60011515600660003373ffffffffffffffffffffffffffffffffffffffff1673ffffffffffffffffffffffffffffffffffffffff16815260200190815260200160002060000160009054906101000a900460ff1615151461202e576040517f08c379a00000000000000000000000000000000000000000000000000000000081526004016120259061cd2d565b60405180910390fd5b61205a7f86d7d58308d5b5c2ff47421233ed35a75bf1d89a189c1bba9e089af8dba2eca660001b615a05565b6120867fc0064d47094f40b4051e93e5c02a91671d47cb976c4358ccba7db7b1871460bf60001b615a05565b6120b27fd19aa8c3c9a2afac9d474d7f3e2f4dab0f76aacec227e24259ce7ca61be2af4860001b615a05565b6120de7f476c27acbcc01ed0d132e5667b7b2d84d3ee10053d6d7ad88a1f98f4d918f0eb60001b615a05565b61210a7fca4c0f5c038ec1ef3001eab44448fc166a5d4967b62f4fdc4525ead4ed295f4b60001b615a05565b6000600660008373ffffffffffffffffffffffffffffffffffffffff1673ffffffffffffffffffffffffffffffffffffffff16815260200190815260200160002090506121797fa15a5734f0fe0be8296640645e97e61d04304f39c0b6004e9fb9e687e1e2390a60001b615a05565b6121a57f99e1f73228bd7433b7c9bd43934ae6ee898e1d7ffdecb122f1cdc76e7f04a68160001b615a05565b60008160000160036101000a81548160ff0219169083151502179055505050565b6121f27f25c9d60c169e62783c643f83a2b1098c06885bb9d252d76e47e0b5391b0cc82560001b6140ed565b61221e7fac83726d49509cd354cce04f6e512679c997fa920554e629233e8645b06ab75c60001b6140ed565b61224a7f9835b48fd1a2d567bb1996ffa8da6b7161d7a7cc844bf124ada9091b56d4732960001b6140ed565b6122767fa0e5519faa484d2ab58e0069c9b7d25183023f2cccd0aa2b159677694a41201460001b6140ed565b60011515600660003373ffffffffffffffffffffffffffffffffffffffff1673ffffffffffffffffffffffffffffffffffffffff16815260200190815260200160002060000160049054906101000a900460ff1615151461230c576040517f08c379a00000000000000000000000000000000000000000000000000000000081526004016123039061ca8d565b60405180910390fd5b6123387fbb620d68af6961a93cf664a0f49453dbba1cf5509e5d19fe7edfc1884ac8650260001b6140ed565b6123647f79d2799974346c0fcfd7b96884161704537ceb468bb1f5ee0a1e232d1a9070b760001b6140ed565b6123907fba8675f3a9f09bba63be754a120da322097da661816fcda70339084f936845fe60001b6140ed565b61239983616c78565b6123c57f8b6847e841697ac217e2b9972985f4572b3a8545bfccba6a1cda289dc1ee4acf60001b6140ed565b6123f17f43b59a96ba9f4a4ccabb5b20502bd93bea4cbb5132e9660d65d4847a1d4226bf60001b6140ed565b8273ffffffffffffffffffffffffffffffffffffffff166340c10f1983836040518363ffffffff1660e01b815260040161242c92919061c773565b600060405180830381600087803b15801561244657600080fd5b505af115801561245a573d6000803e3d6000fd5b50505050505050565b61248f7f783a5d8684372381fb6207af57ecd51bafe21a4bc052b11aacc79f7ee829198160001b6140ed565b6124bb7feadbc77f8e4141506c2d62276be2316c2600b8bf40f7d079fd689676aa71a5ba60001b6140ed565b6124e77f467f41bee04bbeb17ac9daf7315e350acbb78d0375b07c40d0e5149dffc60fd560001b6140ed565b6125137f85d08ba1b04f93c41b9d2abeda0e62829b77be2993007e1cc51b6f8af7b456d560001b6140ed565b60011515600660003373ffffffffffffffffffffffffffffffffffffffff1673ffffffffffffffffffffffffffffffffffffffff16815260200190815260200160002060000160049054906101000a900460ff161515146125a9576040517f08c379a00000000000000000000000000000000000000000000000000000000081526004016125a09061c8cd565b60405180910390fd5b6125d57f016026c3f4776e895461dbb5dec5a0f2830bbf363412bcbfe088bec4bbbf119060001b6140ed565b6126017f349c354d55ce06ae61da2f822a606656653bc38d0828c10f82a62c068b69a5f860001b6140ed565b61262d7fa3d686a534d643ca87170c2203d5288c6fd7c79a484241033ac79428c01f2f1260001b6140ed565b61263687616c78565b6126627f296d424fd4a988ac10531e9ab21ad32b3d3fd2ddbf56667974c318829b1a8b5760001b6140ed565b61268e7f4b699b00f120b1cc1eab9771cb17fdc944e1db23d8416409e224fe3e879a13de60001b6140ed565b6000876040516020016126a1919061c63d565b6040516020818303038152906040528051906020012090506126e57fc09caa55f5d0237e8e31a2343c6fa3e4f69e449342be8f2cff82e3218b6c221860001b6140ed565b6127117f677c59c179db07ea673c489ae50c05641bb15d407d10a3e07fa10d8d98e04dce60001b6140ed565b61271c81888861611d565b6127487f9a63cddc7adb084e4e0a3b57147ad4f0cdba66fb47c4a53d3463e4157826299060001b6140ed565b6127747ff08e77b82e1c5052cec4a42145364f2ba3cac4df4ff5568c9aa050c2a8e8728d60001b6140ed565b600d60019054906101000a900473ffffffffffffffffffffffffffffffffffffffff1673ffffffffffffffffffffffffffffffffffffffff1663f89b1f3689878787876040518663ffffffff1660e01b81526004016127d795949392919061c6e3565b600060405180830381600087803b1580156127f157600080fd5b505af1158015612805573d6000803e3d6000fd5b505050505050505050505050565b61283f7f70a39972af67296fadfc0d34a219d745947334d186f684aaac321e88e62e02c760001b6140ed565b61286b7f8a97558cb303d45e630ba28fab20961c10f49a3b2356ecb6cd4c344320c04b9a60001b6140ed565b6128977f41ff4f0d5e8b81ed756efdaea6d4921c83730a066699eb7504ae1862bffb531e60001b6140ed565b6128c37f0a90ec6647f8ccf6d3ec8644150c1c9f1e07d9c888f12e555fb7d63bb7d1111760001b6140ed565b6128cd6001613ae4565b73ffffffffffffffffffffffffffffffffffffffff163373ffffffffffffffffffffffffffffffffffffffff161461293a576040517f08c379a00000000000000000000000000000000000000000000000000000000081526004016129319061c96d565b60405180910390fd5b6129667f01e975b3a3f6ee969fc8e575ecd4bf3a0c9e85ed5c1acab16b5b6a80ac1ed6a360001b6140ed565b6129927f735cf138bf6da90054afcb67e4b5fc542efd0da4cf7afdec79a6795d399dfcdd60001b6140ed565b6129be7f9feccf5177f94f73799a5422484819c5dee09ee37c163d669c4dd1e07c95c43860001b6140ed565b6129ea7f7acf5aef37de6a14dba25bc28ba1e2f90c46c79b20487e26917c10b91a5f383260001b6140ed565b612a167f83f1b59e7bce549f8f663b363f47cbad8a4fa128c3901dd1cbf6954232090eb160001b6140ed565b612a1f81616a7d565b50565b6000612a507f3a61c3d29a6fa1c9783a07de77f8091f1855a8d1d674d37ea7bdf7dffd195c5560001b6140ed565b612a7c7f40f1122b9c1d02b72b66a7d58eeb0266cdbf6a86dfed9c266d6f03c0a75ac2ba60001b6140ed565b612aa87f3b55b710b2b9ade513547e7790b2c8250a46f4092b9a45fb3fca46b71fdaa52260001b6140ed565b600d60009054906101000a900460ff16905090565b600d60019054906101000a900473ffffffffffffffffffffffffffffffffffffffff1681565b612b0f7f37c005e39493909d1e7d037c87de7235d72623606b789de1a7e26f7e4cc6c9af60001b6140ed565b612b3b7f9834ababe31c5f74a924cdb7eb1b1bb34f5a1db768301c5760532ebd8199e14260001b6140ed565b612b677fedf7f324adf691d27739e234c303fa441a874b14b9e6b40deed8fcc19402045e60001b6140ed565b612b937f2af65428f831f4a9745dba328e4ba9be0047db6d010933c166eb15a3d0b4722560001b6140ed565b60018114612bd6576040517f08c379a0000000000000000000000000000000000000000000000000000000008152600401612bcd9061cc4d565b60405180910390fd5b612c027f51e608562c5db002193497f82b68fee38d1772e9acec4bdcdbeee6b63ba5f0c660001b6140ed565b612c2e7f99ad98229da2425a2190f7aee1c2f498baaaa1de059ffc228a2650cf8c4aa89460001b6140ed565b612c5a7f325d7cff6916e826e8225ce882656d2fc6a73e210cca89dbf340a66d525fa61360001b6140ed565b612cf1612cec600f805480602002602001604051908101604052809291908181526020018280548015612ce257602002820191906000526020600020905b8160009054906101000a900473ffffffffffffffffffffffffffffffffffffffff1673ffffffffffffffffffffffffffffffffffffffff1681526020019060010190808311612c98575b505050505061625b565b6162ea565b612d1d7f8bba63e45839dfd1f9c7a9d31aca83259a0550aae970205780e1ea0cc6f9aa2e60001b6140ed565b612d497f60f83769887168441881c8adf38966f66c29f6eecee0fa50c41e66b03b3d8c5f60001b6140ed565b612d516164ac565b612d7d7f28fdee99909b58588d6558990d343b5fb7d98fcf225ff52859c5718fc93bd8cf60001b6140ed565b612da97f90f00677f3e3b31f43cc6d3e688b89643a02b93eea58b5280c375279abe6e4f860001b6140ed565b612dc483838360405180602001604052806000815250616dea565b612df07ff7b39d63cb4e00e9998c262878cbb391276fa44fe114d46da2186856fc8c7cba60001b6140ed565b612e1c7f104b0900d1ce18f7a525d444299efac06073e86b2f18455232d4ec31e7b59c9d60001b6140ed565b612e2582616a7d565b505050565b612e567f91da884185230e4acea5ed815d771585270930afc3e0d1570702681382ee8ec160001b6140ed565b612e827f7221331bf3970f7c80478c2561368b50415eeecb526a343df2f5fef09734de0a60001b6140ed565b612eae7f9ed4570a0ec9e7f1b9d5a1b735f5c8d095b25873d20b42e61716ec81bf8c87b560001b6140ed565b612eda7ffa8e5b019f1deaf9cdb945a8ad18dc2c58fbcb819d0c9f13fd14c7e5db5f77aa60001b6140ed565b60011515600660003373ffffffffffffffffffffffffffffffffffffffff1673ffffffffffffffffffffffffffffffffffffffff16815260200190815260200160002060000160029054906101000a900460ff16151514612f70576040517f08c379a0000000000000000000000000000000000000000000000000000000008152600401612f679061c8ed565b60405180910390fd5b612f9b7ec696893f12930a5e8ce6d82f7285f72b51734d28ff388a4ba896dae607bcb860001b6140ed565b612fc77ff272b08498d0b9cd65fdc0c5b1f266219badd65eaec32e28e5a46bbfa19d6c4460001b6140ed565b612ff37f8c1f08cca73787944ea42688076c5e7fd427e57d8436f3ddcb39ea709f38ab0560001b6140ed565b600d60019054906101000a900473ffffffffffffffffffffffffffffffffffffffff1673ffffffffffffffffffffffffffffffffffffffff1663f89b1f3630868686866040518663ffffffff1660e01b815260040161305695949392919061c6e3565b600060405180830381600087803b15801561307057600080fd5b505af1158015613084573d6000803e3d6000fd5b505050506130b47fa64b13296027d79a2d29c9ab3da2b093cb42d0369646bf7fb18c73a0a444b9b160001b6140ed565b6130e07f23ccb7f304e24ab5f1e9da39a942988d4fca01111448e7741508267f43685af360001b6140ed565b61310b7fa063f3cd8b0dcd6546ffc1c06fc86515c40fe331e91488c5e18c88c7efc881e8838361611d565b50505050565b61313d7f6e9e6acb812841407579b64d2dad26c53ceec9183f1d741efe3c49ac84d929f160001b615a05565b6131697f86148161f9f780b7fa2d65724cb5ac8ce1dc9ef2b29a63c5a346dbef59ce9d2d60001b615a05565b6131957f9f5285834aa1ce8cee6cd724aef9dbb2eb5ec4172796df48c8646a8963565e8a60001b615a05565b6131c17ffe509709e2a944a06096cdc5981bcc2b588217972996a035d719c91a5bd3b98c60001b615a05565b60011515600660003373ffffffffffffffffffffffffffffffffffffffff1673ffffffffffffffffffffffffffffffffffffffff16815260200190815260200160002060000160009054906101000a900460ff16151514613257576040517f08c379a000000000000000000000000000000000000000000000000000000000815260040161324e9061cd2d565b60405180910390fd5b6132837f86d7d58308d5b5c2ff47421233ed35a75bf1d89a189c1bba9e089af8dba2eca660001b615a05565b6132af7fc0064d47094f40b4051e93e5c02a91671d47cb976c4358ccba7db7b1871460bf60001b615a05565b6132db7fd2792cae7e8c5d4f708969de679b12292c81240cbb0091b656dab671f6aca4e760001b615a05565b6133077f3f76df27e58098e5825657c6205fc6bbd38fb94eef243ef685403bedafb9c53a60001b615a05565b6133337f2da76fbb0b3c51ca05f90e10ef7bbb6f082b87939f3da38bdb9ba4ac92a569bd60001b615a05565b6000600660008373ffffffffffffffffffffffffffffffffffffffff1673ffffffffffffffffffffffffffffffffffffffff16815260200190815260200160002090506133a27fb77ce0ec7a5c8aec25f9dd40e27f50fc84c11d2f48b6f16b7dc990248a11396160001b615a05565b6133ce7fe7a9e3b30ec001b3bc13a50033d6c1750c2a7f9c71335c6114fe3da18b73f40760001b615a05565b60008160000160026101000a81548160ff0219169083151502179055505050565b61341b7f6e9e6acb812841407579b64d2dad26c53ceec9183f1d741efe3c49ac84d929f160001b615a05565b6134477f86148161f9f780b7fa2d65724cb5ac8ce1dc9ef2b29a63c5a346dbef59ce9d2d60001b615a05565b6134737f9f5285834aa1ce8cee6cd724aef9dbb2eb5ec4172796df48c8646a8963565e8a60001b615a05565b61349f7ffe509709e2a944a06096cdc5981bcc2b588217972996a035d719c91a5bd3b98c60001b615a05565b60011515600660003373ffffffffffffffffffffffffffffffffffffffff1673ffffffffffffffffffffffffffffffffffffffff16815260200190815260200160002060000160009054906101000a900460ff16151514613535576040517f08c379a000000000000000000000000000000000000000000000000000000000815260040161352c9061cd2d565b60405180910390fd5b6135617f86d7d58308d5b5c2ff47421233ed35a75bf1d89a189c1bba9e089af8dba2eca660001b615a05565b61358d7fc0064d47094f40b4051e93e5c02a91671d47cb976c4358ccba7db7b1871460bf60001b615a05565b6135b97f1471702c9d955442e6c05b664b87228af20e1c6fb349753f3caecc00cedd2afb60001b615a05565b6135e57fab8dec4075364e902d9fc4cd51bbde3c2d79d7d56ff81287af55ca2eb2d387a560001b615a05565b6136117fbb274cf3a43fb99279e0421d4e6e8c0bb6deb96fa02e072b2dc58b75c753af6460001b615a05565b6000600660008373ffffffffffffffffffffffffffffffffffffffff1673ffffffffffffffffffffffffffffffffffffffff16815260200190815260200160002090506136807fe1e992054206326e6338a762c7614b53e869c95caf42e8b3e8f8e409652a503e60001b615a05565b6136ac7f55b0d00b2220001054d699954de3ad81aec26a4e7266ecac35c50371a1f3352260001b615a05565b60018160000160016101000a81548160ff0219169083151502179055506136f57f73292f97072dc3bb2f335e20e6237f2b7539221ecfffaaf31f18fa99711589f560001b615a05565b6137217f627739c1b289eff076dd9594c5551d8522d1fc0a875693f64187161f89d93f4960001b615a05565b6007829080600181540180825580915050600190039060005260206000200160009091909190916101000a81548173ffffffffffffffffffffffffffffffffffffffff021916908373ffffffffffffffffffffffffffffffffffffffff1602179055505050565b601060009054906101000a900473ffffffffffffffffffffffffffffffffffffffff1681565b6137da7f70a39972af67296fadfc0d34a219d745947334d186f684aaac321e88e62e02c760001b6140ed565b6138067f8a97558cb303d45e630ba28fab20961c10f49a3b2356ecb6cd4c344320c04b9a60001b6140ed565b6138327f41ff4f0d5e8b81ed756efdaea6d4921c83730a066699eb7504ae1862bffb531e60001b6140ed565b61385e7f0a90ec6647f8ccf6d3ec8644150c1c9f1e07d9c888f12e555fb7d63bb7d1111760001b6140ed565b6138686001613ae4565b73ffffffffffffffffffffffffffffffffffffffff163373ffffffffffffffffffffffffffffffffffffffff16146138d5576040517f08c379a00000000000000000000000000000000000000000000000000000000081526004016138cc9061c96d565b60405180910390fd5b6139017f01e975b3a3f6ee969fc8e575ecd4bf3a0c9e85ed5c1acab16b5b6a80ac1ed6a360001b6140ed565b61392d7f735cf138bf6da90054afcb67e4b5fc542efd0da4cf7afdec79a6795d399dfcdd60001b6140ed565b6139597f997ac31006f6723a77fb23c5add37e28e5ead43e5d83fcfa33840a650607a95f60001b6140ed565b6139857fb37faabeaac0e9d24ddfc055fcc10863e188e55740d92d41edbaaf1a5ed9a9f260001b6140ed565b6139b17fa81b5d8f59f4bfb6f77d7d2f6ec71834d2653eeef74d923e255f72d9b152902860001b6140ed565b6139b96164ac565b565b60606139e97f0f40304ddbb792d10f62f74ea846d686a100bbf17adab617ec6ca605a47f1e6460001b6148d5565b613a157fdf154ac840b3e72bd91d3f41932e92037b58021158b77d28cdaa9f9cbb23516b60001b6148d5565b613a417f4bcb2adab00d77f38e73d54b326621e033be370d5c3beffd7c334da9524bbe1e60001b6148d5565b600960008381526020019081526020016000208054613a5f9061cf81565b80601f0160208091040260200160405190810160405280929190818152602001828054613a8b9061cf81565b8015613ad85780601f10613aad57610100808354040283529160200191613ad8565b820191906000526020600020905b815481529060010190602001808311613abb57829003601f168201915b50505050509050919050565b6000613b127f830b0f9630e4ea49f8af88cd6d67d7d45df37629ef04d1584553e5a07677eb3260001b615a08565b613b3e7f816c182c7b0b4f95ff89cd924838586f7bb349b02e13c3076b7c126db3ee10b160001b615a08565b613b6a7fd09e36c4d01eb3c11b35f5407c4a54e82fa3ede07f86d3216bc13af4589ac2a760001b615a08565b60006002600084815260200190815260200160002060009054906101000a900473ffffffffffffffffffffffffffffffffffffffff169050613bce7f7bb36db0c7c0168708111a426e8c159a610b29e906013e4e2cb33b101e58208f60001b615a08565b613bfa7f2baf7c114f8263006a0a3195538b80a8e5b44caa5cf0be1417e1ba62d17128af60001b615a08565b613c267f07cce5b0b1655fe77d5d190b5c81faefb80d08bb5f9f99a34607aaefd91bfea460001b615a08565b600073ffffffffffffffffffffffffffffffffffffffff168173ffffffffffffffffffffffffffffffffffffffff161415613c96576040517f08c379a0000000000000000000000000000000000000000000000000000000008152600401613c8d9061caed565b60405180910390fd5b613cc27f4d3544df8a92ae648b8a6a2ca5ab557821bfe16d524ebdf1406410afeadd545f60001b615a08565b613cee7f581ae9a66695b9f8cf3cd77d4686f74abc8150f7b23cf79cf8f8efa7450a1b3860001b615a08565b613d1a7fa1086b119c4e2b01c97cb1ab26c9b0ed18e2eaf5099514eb4780c5e4d9ba9d6260001b615a08565b80915050919050565b613d4f7f824832e328ff66871b2b62cd377ee5013bea5a1ea4c11606fdba814af6e89c6760001b6140ed565b613d7b7f1dcef36980eeae7011f94a51ae400416de0fa4513279dc2b862ff999b174a1a360001b6140ed565b613da77f87e8258ef62e13098d11aa57c79945e0055eb25497efa69a82ee910dfe66703a60001b6140ed565b613dd37f3c0d5aa2ddd7ccc73d72fc49b29b2295746fd301360ee94c69d80df83f03c8e160001b6140ed565b60011515600660003373ffffffffffffffffffffffffffffffffffffffff1673ffffffffffffffffffffffffffffffffffffffff16815260200190815260200160002060000160039054906101000a900460ff16151514613e69576040517f08c379a0000000000000000000000000000000000000000000000000000000008152600401613e609061c8ad565b60405180910390fd5b613e957f57f0c08d61f2b2124fc28d980cee88fcd086fd9db70e76bca9055b617245c1a760001b6140ed565b613ec17f5447b77be9d3f78b5587fb25a6b0c7c7620cd814e065e902d8771775de76e47160001b6140ed565b613eed7f0b1602794df5270a6a0bebcce1cbedefa51488b3b5a274f6a230592c0e0cf5b160001b6140ed565b613ef883838361611d565b505050565b50565b6000613f2e7fd7112a0028d6523178a52e77724753662f5a41420604c7e63175e51b285985d260001b615a08565b613f5a7f91f9b46edbeaac17c6ba7e9f35d3c9d1d9d93cfad63daf9b32937fbfec1e1f9e60001b615a08565b613f867f19826c937488309186bb9786e9ca7c7765f902acc475618f4ab2fec4de44736760001b615a08565b613fb27f5f87e49821a2f7131de293a5c881b264916217f96ec93a80a5534e56d11c8faf60001b615a08565b600073ffffffffffffffffffffffffffffffffffffffff168273ffffffffffffffffffffffffffffffffffffffff161415614022576040517f08c379a00000000000000000000000000000000000000000000000000000000081526004016140199061cacd565b60405180910390fd5b61404e7fc39d49893414921e29871d1c4757640e80776dcbea303949ad19cf579ce47d6e60001b615a08565b61407a7f7bcb302001f5fd5001b4ceb6445c73ba6c154f7135b5ef4bf2ce51f6c836198960001b615a08565b6140a67fa15f47e2a6b6a2c36a7d3621df96a1a602d6c276a534714ec8e5463e522f402a60001b615a08565b600360008373ffffffffffffffffffffffffffffffffffffffff1673ffffffffffffffffffffffffffffffffffffffff168152602001908152602001600020549050919050565b50565b600061411e7f9418089d0db5dc74d99ae79b120f6411a48ddba9cddc764f2b033840660fcb7d60001b6140ed565b61414a7f2f4bffa2cfd83cdf41db3ecc0b786ca11dd5288cea6521c53827d7110159c89b60001b6140ed565b6141767fdfc0137ece80322c6085b6ecf1c32fb648d23f8242b761d75e84aeeb44e094d460001b6140ed565b6141a27f7982c6b0e87c2c47e33bb196f0e29725b00f2819980100281fe05fc1bf2c236460001b6140ed565b600d60009054906101000a900460ff16156141f2576040517f08c379a00000000000000000000000000000000000000000000000000000000081526004016141e99061cd0d565b60405180910390fd5b61421e7f96ed42fa453da08ba78fdc43a62a12b7cfb3fdfa1d73ff109cd449862f26148560001b6140ed565b61424a7f23d10fd7be828e440cdb10447de0ca9da0e19b0fb9af069d0bec23ab2ee6a33660001b6140ed565b6142767fec29ad65dcab4ea0850e9868cff7c2260c9408202a53b58af40d5633d799757160001b6140ed565b6143528c8c8c8080601f016020809104026020016040519081016040528093929190818152602001838380828437600081840152601f19601f820116905080830192505050505050508b8b8080601f016020809104026020016040519081016040528093929190818152602001838380828437600081840152601f19601f820116905080830192505050505050508a8a8a8a8a8a8080601f016020809104026020016040519081016040528093929190818152602001838380828437600081840152601f19601f82011690508083019250505050505050616f80565b90509b9a5050505050505050505050565b61438f7f6e9e6acb812841407579b64d2dad26c53ceec9183f1d741efe3c49ac84d929f160001b615a05565b6143bb7f86148161f9f780b7fa2d65724cb5ac8ce1dc9ef2b29a63c5a346dbef59ce9d2d60001b615a05565b6143e77f9f5285834aa1ce8cee6cd724aef9dbb2eb5ec4172796df48c8646a8963565e8a60001b615a05565b6144137ffe509709e2a944a06096cdc5981bcc2b588217972996a035d719c91a5bd3b98c60001b615a05565b60011515600660003373ffffffffffffffffffffffffffffffffffffffff1673ffffffffffffffffffffffffffffffffffffffff16815260200190815260200160002060000160009054906101000a900460ff161515146144a9576040517f08c379a00000000000000000000000000000000000000000000000000000000081526004016144a09061cd2d565b60405180910390fd5b6144d57f86d7d58308d5b5c2ff47421233ed35a75bf1d89a189c1bba9e089af8dba2eca660001b615a05565b6145017fc0064d47094f40b4051e93e5c02a91671d47cb976c4358ccba7db7b1871460bf60001b615a05565b61452d7f0919c3efd060225250f2f8c68c2ab5bbb84ab6c442b44707cb8c623b3202206f60001b6140ed565b6145597f80189beebae8079a8901e7ddd5785fa9605d5f2c71b4d7a381314bb5d336781060001b6140ed565b6145857f2a43b843329887b37a6ff26f2f69a97b8adaa92c064ad5ee1f69095b4c53f3b460001b6140ed565b61458e8161760d565b50565b60606145bf7f40aec517f7419f961a42475e7719db27bfd4c0be32e5f9d1b291e1a8fdf28a9060001b6140ed565b6145eb7feafa2b6034ca705537750c61cd52aff63cac7a8bd0e93083f6a4a087822ac08960001b6140ed565b6146177f53c0fc493f57b605af8c755247567862367ee1d47228c6cc3b295550377d25f660001b6140ed565b600c80546146249061cf81565b80601f01602080910402602001604051908101604052809291908181526020018280546146509061cf81565b801561469d5780601f106146725761010080835404028352916020019161469d565b820191906000526020600020905b81548152906001019060200180831161468057829003601f168201915b5050505050905090565b6146d37f6e9e6acb812841407579b64d2dad26c53ceec9183f1d741efe3c49ac84d929f160001b615a05565b6146ff7f86148161f9f780b7fa2d65724cb5ac8ce1dc9ef2b29a63c5a346dbef59ce9d2d60001b615a05565b61472b7f9f5285834aa1ce8cee6cd724aef9dbb2eb5ec4172796df48c8646a8963565e8a60001b615a05565b6147577ffe509709e2a944a06096cdc5981bcc2b588217972996a035d719c91a5bd3b98c60001b615a05565b60011515600660003373ffffffffffffffffffffffffffffffffffffffff1673ffffffffffffffffffffffffffffffffffffffff16815260200190815260200160002060000160009054906101000a900460ff161515146147ed576040517f08c379a00000000000000000000000000000000000000000000000000000000081526004016147e49061cd2d565b60405180910390fd5b6148197f86d7d58308d5b5c2ff47421233ed35a75bf1d89a189c1bba9e089af8dba2eca660001b615a05565b6148457fc0064d47094f40b4051e93e5c02a91671d47cb976c4358ccba7db7b1871460bf60001b615a05565b6148717f9cf026a0838ee9c3aef416c00d70d4f7ae5533aaad9494f1bb27072601c992d460001b6140ed565b61489d7f74b7249ecad3aab34e728effeecbcca17f9f61df2231ca0b5d5d4f8b0bbb2abb60001b6140ed565b6148c97f46e6b510df48973241009d341e4984e10f39b0f205252dd2d7f8265637eda71e60001b6140ed565b6148d281617808565b50565b50565b6149047f0cd28ef66caab9ae5e2e88e638b415e5af740cd745e6f82c20468f3f046bb28a60001b615a08565b6149307fa051b1ae7e1840f2dd50944f6be2146a496d6a5920225a643d8b82aebf16abc860001b615a08565b61495c7f5494433f1f7d50c679cb586dabf2ce4e62476172583f7a60b34d3fd6e3d445ac60001b615a08565b6149887fd722eede0135375645f8a8f4c682e00e5364927a8a910f32185142d89d0b813f60001b615a08565b614990615f80565b73ffffffffffffffffffffffffffffffffffffffff168273ffffffffffffffffffffffffffffffffffffffff1614156149fe576040517f08c379a00000000000000000000000000000000000000000000000000000000081526004016149f59061c9ad565b60405180910390fd5b614a297e9d81a914777c4a2590da886a22867a68295fa09e47666adbbcb62c90623efd60001b615a08565b614a557f2123d5dc62529ffff906efaefe7fddb0ab6d612366d69257cf5603c928df3df860001b615a08565b614a817f207cb55a554e9d03de0d77af06662e58708c037e7bd972f943be41f7a237c2ed60001b615a08565b8060056000614a8e615f80565b73ffffffffffffffffffffffffffffffffffffffff1673ffffffffffffffffffffffffffffffffffffffff16815260200190815260200160002060008473ffffffffffffffffffffffffffffffffffffffff1673ffffffffffffffffffffffffffffffffffffffff16815260200190815260200160002060006101000a81548160ff021916908315150217905550614b487fbe992af212154136095701b431318badd0d6ced3f8d1ada807e74d72bce527a560001b615a08565b614b747f083a4284079a4c99153994ef8b6a3b2026a1c2d3a0b558e85a4e8a65a4c4e6f760001b615a08565b8173ffffffffffffffffffffffffffffffffffffffff16614b93615f80565b73ffffffffffffffffffffffffffffffffffffffff167f17307eab39ab6107e8899845ad3d59bd9653f200f220920489ca2b5937696c3183604051614bd8919061c79c565b60405180910390a35050565b614c107f70a39972af67296fadfc0d34a219d745947334d186f684aaac321e88e62e02c760001b6140ed565b614c3c7f8a97558cb303d45e630ba28fab20961c10f49a3b2356ecb6cd4c344320c04b9a60001b6140ed565b614c687f41ff4f0d5e8b81ed756efdaea6d4921c83730a066699eb7504ae1862bffb531e60001b6140ed565b614c947f0a90ec6647f8ccf6d3ec8644150c1c9f1e07d9c888f12e555fb7d63bb7d1111760001b6140ed565b614c9e6001613ae4565b73ffffffffffffffffffffffffffffffffffffffff163373ffffffffffffffffffffffffffffffffffffffff1614614d0b576040517f08c379a0000000000000000000000000000000000000000000000000000000008152600401614d029061c96d565b60405180910390fd5b614d377f01e975b3a3f6ee969fc8e575ecd4bf3a0c9e85ed5c1acab16b5b6a80ac1ed6a360001b6140ed565b614d637f735cf138bf6da90054afcb67e4b5fc542efd0da4cf7afdec79a6795d399dfcdd60001b6140ed565b614d8f7f1ba8713fcb53024f1e4b95228a15dc7d6424cbe4aff18bed4444b4223299c48460001b6140ed565b614dbb7f2fe776079e7284979f07364b906eb96ed07db2386dc08014f49310a6db87d30560001b6140ed565b614de77f564714272f63b7a870836521e81e4e54f8e03ba0a2cdc737f28ba2e70a74911d60001b6140ed565b614df081617948565b50565b60078181548110614e0357600080fd5b906000526020600020016000915054906101000a900473ffffffffffffffffffffffffffffffffffffffff1681565b6000614e607f6a43d39f74e7e2caf7217630212329da6d46ad4d6b08d7418988345e91ecd6e560001b6140ed565b614e8c7f832f31ece65bf2a9d9f8c8167d4b4495440bfd032caf9331ce7910fcfef2e66960001b6140ed565b614eb87ffb623ac7fbb79cbe30d64fe48f40af9b9deae15dc2f34cf4dae319f156aa197660001b6140ed565b614ee47fa8b7fb7c6b82db4ae78fa6dc7657d9a85c4b9da527f65a6b6a0b382c7dd2b13060001b6140ed565b60011515600660003373ffffffffffffffffffffffffffffffffffffffff1673ffffffffffffffffffffffffffffffffffffffff16815260200190815260200160002060000160019054906101000a900460ff16151514614f7a576040517f08c379a0000000000000000000000000000000000000000000000000000000008152600401614f719061c9cd565b60405180910390fd5b614fa67fcaa5493b551bd3e1b01cdfe1071a39e6f06372e1e03738e0956cffd973a0a65860001b6140ed565b614fd27ff226322d3365f9cc6190c6741e51e51d4ecffd27511914ba196a1eabc58a62e960001b6140ed565b614ffe7f7f5da9a8b6ee5782df85b6f83703d41b59af8d6b00a9df74ec4ce4990231bce560001b6140ed565b6000600e60009054906101000a900473ffffffffffffffffffffffffffffffffffffffff1673ffffffffffffffffffffffffffffffffffffffff166373ecb3478b8b8b8b8b8b8b8b6040518963ffffffff1660e01b815260040161506998979695949392919061c818565b602060405180830381600087803b15801561508357600080fd5b505af1158015615097573d6000803e3d6000fd5b505050506040513d601f19601f820116820180604052508101906150bb919061b17d565b90506150e97fbf0296909dcaa19a97b25d0468e4a1e6594a349780e7ba587f43aeebbeb772c960001b6140ed565b6151157f9518598f2fb4669ddb2d0c9cb0e80e1cd7bafe5e5257f90d99c84382b758d35d60001b6140ed565b6001601160008373ffffffffffffffffffffffffffffffffffffffff1673ffffffffffffffffffffffffffffffffffffffff16815260200190815260200160002060006101000a81548160ff0219169083151502179055506151997f9df8c2231cbf47bd0154d166a587c39ec9dedd21ddd1ab46142965ee8c86d0e860001b6140ed565b6151c57f77ff9b00b81cba9ab0a5b5690755fe8769c67273d2f35cb7e4f7b7b1f623493d60001b6140ed565b600f819080600181540180825580915050600190039060005260206000200160009091909190916101000a81548173ffffffffffffffffffffffffffffffffffffffff021916908373ffffffffffffffffffffffffffffffffffffffff1602179055506152547f40e5f0416c32c1bf801512e075201bd34d5db18c15f9ae7d8ccadbf3e0d9e95460001b6140ed565b6152807f0f6aa119563fcef7edf99afb405c6b0ed3c568ac0c15b73d934ae958217b745460001b6140ed565b8073ffffffffffffffffffffffffffffffffffffffff167f41039c8b82bb5a365f56b4f9d87cee99e069b450bfdc3d87696fcd87783f24c160405160405180910390a26152ef7f24a5843d619ae2d6589b4e5f0a8615b04551cfdb030cdbcaf56c00cff53557dc60001b6140ed565b61531b7f1443a966adacd4ac468abc020c7b0d194a55ece5a7c049bd1c6ef4d4eec353a460001b6140ed565b8091505098975050505050505050565b6153577f6e9e6acb812841407579b64d2dad26c53ceec9183f1d741efe3c49ac84d929f160001b615a05565b6153837f86148161f9f780b7fa2d65724cb5ac8ce1dc9ef2b29a63c5a346dbef59ce9d2d60001b615a05565b6153af7f9f5285834aa1ce8cee6cd724aef9dbb2eb5ec4172796df48c8646a8963565e8a60001b615a05565b6153db7ffe509709e2a944a06096cdc5981bcc2b588217972996a035d719c91a5bd3b98c60001b615a05565b60011515600660003373ffffffffffffffffffffffffffffffffffffffff1673ffffffffffffffffffffffffffffffffffffffff16815260200190815260200160002060000160009054906101000a900460ff16151514615471576040517f08c379a00000000000000000000000000000000000000000000000000000000081526004016154689061cd2d565b60405180910390fd5b61549d7f86d7d58308d5b5c2ff47421233ed35a75bf1d89a189c1bba9e089af8dba2eca660001b615a05565b6154c97fc0064d47094f40b4051e93e5c02a91671d47cb976c4358ccba7db7b1871460bf60001b615a05565b6154f57ff3e573e559b5b5b758962aea538917889ea33856a125719510616b5cd2234d9160001b6140ed565b6155217fd2dcfbf76622545c23054e5599298a23742712cedfaae3af88ff7c1b286c723a60001b6140ed565b61554d7f9057ff9100256a99055a95cd43071fc4a0f7beb6c9f63a1556759870daa89e8860001b6140ed565b61555a8585858585617a88565b5050505050565b606061558f7f40bece8f3c14bcf8bac2b77b5bc7de9db91f8d42c4062aa791712b708088009860001b615a08565b6155bb7ff258d5636d79ed80247d753175ac91277082606e57d272d21a6b5c2c26a67af760001b615a08565b6155e77f679b1054e1ccb72a29c9e4e57a99fd815222878254a9e6bfd254c9d6f5b1a89d60001b615a08565b6156137f4e5b6c25f3986bf43499f18ceadc58e706eaf50f3786398525e44d9d4c98c0f760001b615a08565b61561c82615e8f565b61565b576040517f08c379a00000000000000000000000000000000000000000000000000000000081526004016156529061cc2d565b60405180910390fd5b6156877fc8f11fad7a528f89e46b9ea8bd67c231500f183c0970525b0e91c9c38f05494b60001b615a08565b6156b37fa7a285a21a5cb44b133ced09f16f9a398bda37d4a2648b126bf346a68bed449960001b615a08565b6156df7fcc4635635aa654446bdd9bee89043cd0b36e3752c56a55f4f7fc1a6fb8faa75660001b615a08565b60006156e9618210565b90506157177f373fd9a46a3f0f0b8b9a7552f1f4c614842dc38c6cb380fbb9f0669a1abf6a4a60001b615a08565b6157437fe1b337a462e3d2f653dbd9d103742928ca0ebdf9778298da6a25cc0f8294c75660001b615a08565b6000815111615761576040518060200160405280600081525061578c565b8061576b846182ab565b60405160200161577c92919061c658565b6040516020818303038152906040525b915050919050565b6157c07f70a39972af67296fadfc0d34a219d745947334d186f684aaac321e88e62e02c760001b6140ed565b6157ec7f8a97558cb303d45e630ba28fab20961c10f49a3b2356ecb6cd4c344320c04b9a60001b6140ed565b6158187f41ff4f0d5e8b81ed756efdaea6d4921c83730a066699eb7504ae1862bffb531e60001b6140ed565b6158447f0a90ec6647f8ccf6d3ec8644150c1c9f1e07d9c888f12e555fb7d63bb7d1111760001b6140ed565b61584e6001613ae4565b73ffffffffffffffffffffffffffffffffffffffff163373ffffffffffffffffffffffffffffffffffffffff16146158bb576040517f08c379a00000000000000000000000000000000000000000000000000000000081526004016158b29061c96d565b60405180910390fd5b6158e77f01e975b3a3f6ee969fc8e575ecd4bf3a0c9e85ed5c1acab16b5b6a80ac1ed6a360001b6140ed565b6159137f735cf138bf6da90054afcb67e4b5fc542efd0da4cf7afdec79a6795d399dfcdd60001b6140ed565b61593f7ff8f0da8b580daca4c504de6d2193bc686e370253e9d7349521bec2f2d58622f860001b6140ed565b61596b7fbf0f9749f84c7edccaf2377c30c6b219be18eb553db9c73393f3986df886d1be60001b6140ed565b6159977f162187633f7d38b2432e34fcc8b0e9d064b28d70351a1a50ee4da69dbac4c02160001b6140ed565b6159a082618928565b6159cc7ff9b3e807035954dd16dbd2cf37a1568b0ca628e602a3a6ea11ff8338e01e71b460001b6140ed565b6159f87fffe4d168bb84c168056b84f0ccba8f029ed38e2c185daae9f461f37df38880d660001b6140ed565b615a018161760d565b5050565b50565b50565b7fa063f3cd8b0dcd6546ffc1c06fc86515c40fe331e91488c5e18c88c7efc881e881565b6000615a5d7fa8c3a2e4fd712e11a0997071119aaebc83f0061a6a9efc15192383fa5817007960001b615a08565b615a897fa678ff82239fb36f361c9b19c9282e4157e330c66152c16485346415fd98105660001b615a08565b615ab57fabbbffcf68e3f3828d03b05a2defb0f3ec91e86ed19ee08db01e5683829c7fb960001b615a08565b600560008473ffffffffffffffffffffffffffffffffffffffff1673ffffffffffffffffffffffffffffffffffffffff16815260200190815260200160002060008373ffffffffffffffffffffffffffffffffffffffff1673ffffffffffffffffffffffffffffffffffffffff16815260200190815260200160002060009054906101000a900460ff16905092915050565b615b737f6e9e6acb812841407579b64d2dad26c53ceec9183f1d741efe3c49ac84d929f160001b615a05565b615b9f7f86148161f9f780b7fa2d65724cb5ac8ce1dc9ef2b29a63c5a346dbef59ce9d2d60001b615a05565b615bcb7f9f5285834aa1ce8cee6cd724aef9dbb2eb5ec4172796df48c8646a8963565e8a60001b615a05565b615bf77ffe509709e2a944a06096cdc5981bcc2b588217972996a035d719c91a5bd3b98c60001b615a05565b60011515600660003373ffffffffffffffffffffffffffffffffffffffff1673ffffffffffffffffffffffffffffffffffffffff16815260200190815260200160002060000160009054906101000a900460ff16151514615c8d576040517f08c379a0000000000000000000000000000000000000000000000000000000008152600401615c849061cd2d565b60405180910390fd5b615cb97f86d7d58308d5b5c2ff47421233ed35a75bf1d89a189c1bba9e089af8dba2eca660001b615a05565b615ce57fc0064d47094f40b4051e93e5c02a91671d47cb976c4358ccba7db7b1871460bf60001b615a05565b615d117fadd31ced94735ed5f546cf304841d738459fbfaa8cb447396110ab4e60ab5b4a60001b615a05565b615d3d7fb35f0bd853b3a87fd1a5d3f21b19f3b22038e2395613122b662910cffb0bceb660001b615a05565b615d697fa760b3252732c42cb5b892ad335264475515e60431c2381d3fb9f86bb208adcf60001b615a05565b6000600660008373ffffffffffffffffffffffffffffffffffffffff1673ffffffffffffffffffffffffffffffffffffffff1681526020019081526020016000209050615dd87f03953a269517468af76716313dce8c7a8d144242fe6cc797070a4f478f5caaa160001b615a05565b615e047f01b8c5ab78a92c1fd63386a35cb119f22c564dac6e39d4e659cfcb8fe404614760001b615a05565b60008160000160016101000a81548160ff0219169083151502179055505050565b60007f01ffc9a7000000000000000000000000000000000000000000000000000000007bffffffffffffffffffffffffffffffffffffffffffffffffffffffff1916827bffffffffffffffffffffffffffffffffffffffffffffffffffffffff1916149050919050565b6000615ebd7fb46f49820a743f7adb46ef8de7ed6854fd41a4166ce05b83d7b278fe47f0ecec60001b615a08565b615ee97fff36d0d5d55de9416cd315ca2f8de2677869d4b334a2cf371c36619368bab38660001b615a08565b615f157f3750f8473dd9338048d05ee5f655c6772b8e29ad8e5bfc0f62292525ebba30a060001b615a08565b600073ffffffffffffffffffffffffffffffffffffffff166002600084815260200190815260200160002060009054906101000a900473ffffffffffffffffffffffffffffffffffffffff1673ffffffffffffffffffffffffffffffffffffffff1614159050919050565b600033905090565b615fb47f2a3be4ebfbce0057583dc85fd190dfbb0bc91a9bf3c2aa1212774982f3c425cb60001b615a08565b615fe07f0b0222db512509d096f182c1ab9345e966b7364a7d077a1704df31f3e013bb4560001b615a08565b61600c7fd46e64f08bf1baff360464ecc153079c5e0fc6c4fd46957ba47c817a3df73e4760001b615a08565b816004600083815260200190815260200160002060006101000a81548173ffffffffffffffffffffffffffffffffffffffff021916908373ffffffffffffffffffffffffffffffffffffffff16021790555061608a7faea5980c0f448df5e75b96e5b623029c7e4099e920a24033afa8f404d45c54e460001b615a08565b6160b67f04149980b7406ccb9b412bb4c952dc07c331fd52ee1bd755c32f29c14ec94fff60001b615a08565b808273ffffffffffffffffffffffffffffffffffffffff166160d783613ae4565b73ffffffffffffffffffffffffffffffffffffffff167f8c5be1e5ebec7d5bd14f71427d1e84f3dd0314c0f7b2291e5b200ac8c7c3b92560405160405180910390a45050565b6161497f8542c058108589e0d5e660b1935badf86c54c78929914132b0b432a12ac9305360001b6148d5565b6161757f6e33a6ac903023ae7e97783a853225a2aeb30098298299ac0172957378eeb16c60001b6148d5565b6161a17fc7b5603ad8606a8bf840da2aff2daac0ae882a5b2b00045bb6d08eeca29ce2a460001b6148d5565b81816009600086815260200190815260200160002091906161c392919061aee3565b506161f07fd457a081ee47bf5f08d762bf610f958cf7f274a55afdeff2ad194eee37917e6560001b6148d5565b61621c7fd74b0db0201ee90a655c43bb131579e1cb8301037cce31a523dd1ab61642af5560001b6148d5565b827fece574603820d07bc9b91f2a932baadf4628aabcb8afba49776529c14a6104b2838360405161624e92919061c7d2565b60405180910390a2505050565b60006162897f216d8455754540755927d9613d5af0125ad70a31a2e7c99afbe0f8aa516acb0460001b6140ed565b6162b57f2bc893707b48989dd9756cacd1d6d3a46bf717dfbc8073c0690866a0cb338db860001b6140ed565b6162e17f4b04a4f5f1e179e447568888380c21e78fde0834a7d20aca852e22cfc1b62e2060001b6140ed565b81519050919050565b6163167f198b29514f58cc66ec7cd802d199fa84dc7f2b9c12ba5991110b9bae78796d0f60001b6140ed565b6163427fb3faa951023d0198fa2e83f3d201775234f998315d611a6168c46cf15d4556d260001b6140ed565b61636e7f350214cb6475a46640dfee8d0865521090a9c282680e00254dac2958507745ec60001b6140ed565b60005b818110156164a8576163a57fe6de61c4cbab818adb5c518e476a785b14a83c9eaa2dbd6b10ebd0925077fa4e60001b6140ed565b6163d17fa5f6efd538c08ef86d84dfd750b5a348f7909ab014c3e5a0f572823cf6a9b28960001b6140ed565b600f818154811061640b577f4e487b7100000000000000000000000000000000000000000000000000000000600052603260045260246000fd5b9060005260206000200160009054906101000a900473ffffffffffffffffffffffffffffffffffffffff1673ffffffffffffffffffffffffffffffffffffffff166382c03da56040518163ffffffff1660e01b8152600401600060405180830381600087803b15801561647d57600080fd5b505af1158015616491573d6000803e3d6000fd5b5050505080806164a09061cfb3565b915050616371565b5050565b6164d87f09fb3dc4c6aed9bc813d3668c0c8ece9c39321eb35fc1ebe894e15528f0dd11e60001b615a05565b6165047f2db98ec878a6cab1f77926f48eb2c266dc496b263f57593a75140614e9954fd960001b615a05565b6165307f78361b9ad24a316c801a8afb6d1f882601c91abf6110d3ee5b9d3795992b561260001b615a05565b60005b60078054905081101561689c5761656c7fd7fe001ae8f0d8c96896bc7b6a57b12bbe54a1d95049ba71c6183e0f717c1e4860001b615a05565b6165987f317ad910ef772b461e780fb222590fe211f30eda242720f6fa4672cd929d10dc60001b615a05565b600060066000600784815481106165d8577f4e487b7100000000000000000000000000000000000000000000000000000000600052603260045260246000fd5b9060005260206000200160009054906101000a900473ffffffffffffffffffffffffffffffffffffffff1673ffffffffffffffffffffffffffffffffffffffff1673ffffffffffffffffffffffffffffffffffffffff168152602001908152602001600020905061666b7f487b4f8fc82e4acd0723baee3e97de6cbd25819363c567b9bcfb2c84cfcfccb960001b615a05565b6166977f24cb0c3ccb3bb7b384b6004c3c6d3b2cbce3b03e3f79f4751484bbbfe1894bd660001b615a05565b60008160000160006101000a81548160ff0219169083151502179055506166e07f852f3ebf9f2123b4151fcb77c153b855458d177953e0b44bcc9e83034b3187c360001b615a05565b61670c7f651711b39c616c18b6751fe93fbb7b90232c5a2d182ac27285e17a979c34ed6b60001b615a05565b60008160000160016101000a81548160ff0219169083151502179055506167557f1d22d79459f293f339e94021c04759d824d50b7b5bf6085f52acb272286ef99360001b615a05565b6167817fb584d4e2222022bafadc46798e3f073a9789bec0d0da09468dad3db95586611f60001b615a05565b60008160000160026101000a81548160ff0219169083151502179055506167ca7fe176574f06520ebae44b759a13e78bef099c2c485fe5517ccffeeb2e9e9b5c1560001b615a05565b6167f67fd96e0691a8c467c91097ea04fe5eab6a262d4d58003e9fa227132cdd6aabdc4160001b615a05565b60008160000160036101000a81548160ff02191690831515021790555061683f7f9489f7b905f8de1c69ffdca4538fc80b84bdde684df16efa5f9e62d5a5a3d62060001b615a05565b61686b7fb555b7773a33bcd0b36f799b36f08d5e7b1462e13b318f684f7ad978741ba10c60001b615a05565b60008160000160046101000a81548160ff0219169083151502179055505080806168949061cfb3565b915050616533565b506168c97f3ee3debdd394a994f17c1b3f1268234bd800825e85728ec47433e1d962eeab7560001b615a05565b600760006168d7919061af69565b565b6169057f7c31c46cd3f1672c8afaa9d7b04c501d8a1492c1e92b2b67acb5dfbeca1c7c9660001b615a08565b6169317f58bb6e81064e8aa7880c2c9e4e630bd6d4aecf7c0379d231f231971a9f4e083f60001b615a08565b61695d7fe0b6151c0b7fbbe06a9a0cff765bd5487c88ad8f3f0d5e88cb2b50478a9db16d60001b615a08565b6169897f16a4bbf5be464e0b6c90bd34bfa81103616574efa3a841c06a6770782665a61760001b615a08565b61699a616994615f80565b82618f38565b6169d9576040517f08c379a00000000000000000000000000000000000000000000000000000000081526004016169d09061ccad565b60405180910390fd5b616a057f76940344afeb7e034d676b0fe647985e06b23841373f7a6b398251c8dee3b3ca60001b615a08565b616a317f431e76be99cbc3e74bdb38617c7300a01005a67452cb3b5d352b610cab9c6aa160001b615a08565b616a5d7f77f3db958759d86e1c314fe340609ade897165f55c3a871210edf346ceed98cd60001b615a08565b616a7883838360405180602001604052806000815250616dea565b505050565b616aa97f096f676ec0a6d271595b5bd04c1ef0ca3110473cd110a909fef5053477cad04860001b615a05565b616ad57fb8b3da34437abe49091f49b06f813d1f377dfd8a15098ccfb6cd4fa38145230660001b615a05565b616b017fce03f446dc32b26060c40b3cd8968f309f3fc63d5c663338dd1019553df7322860001b615a05565b6000600660008373ffffffffffffffffffffffffffffffffffffffff1673ffffffffffffffffffffffffffffffffffffffff1681526020019081526020016000209050616b707fbb7180c8e6f424931b811a266c2acefefeece3061c314f824fc80d2cb5e6144960001b615a05565b616b9c7fbe17de9aed18b5d15678c6143ece104927b4b02d0e63e9f18d994b29a1f93f7560001b615a05565b60018160000160006101000a81548160ff021916908315150217905550616be57f33f48df78e8b4c8f243b9296e7be6b042d0d5db449e6a05c418869b309e5bc3f60001b615a05565b616c117f5229c496da136194f24872c7d93c280e75d389c9369f3954d77aed25875263ab60001b615a05565b6007829080600181540180825580915050600190039060005260206000200160009091909190916101000a81548173ffffffffffffffffffffffffffffffffffffffff021916908373ffffffffffffffffffffffffffffffffffffffff1602179055505050565b616ca47f1e2450d2bfe015c26e50b01171e6c84449b9f6787946b62ffd1fbe7e5f3f5f5860001b613efd565b616cd07f12830594f1e89c80137e08e5f17df31cfa88720e92531c1eb3cfac4827f384fe60001b613efd565b616cfc7fc67a02c4829d869270bee8b91c7abc541e498b3b88efc5413801bef156853a7860001b613efd565b616d287f35e338dc3df0a1f7f67a9b036737935a63231a9a28624f4814e646e77376b46b60001b613efd565b60011515600a60008373ffffffffffffffffffffffffffffffffffffffff1673ffffffffffffffffffffffffffffffffffffffff16815260200190815260200160002060009054906101000a900460ff16151514616dbb576040517f08c379a0000000000000000000000000000000000000000000000000000000008152600401616db29061cd4d565b60405180910390fd5b616de77fc02847734cc7153f5741cb941464a4f41ac15ba1fd463d9948ee914631c06f4060001b613efd565b50565b616e167ffd895491fa4eb5685358afaeb565eb0f89e0c56d456ba794baac3a17a8c2764e60001b615a08565b616e427f80ef5f2ef388ef08efac02e6c644e80958cff2ef4f2afc350082f988c27ff37f60001b615a08565b616e6e7f2ca79883fc135e493f22b026658e0ef40d1684abf025fc852f3edfb9bf3f2a9060001b615a08565b616e9a7fa3aecdae6be44568f835db0887c6795ec340cbfb2c47c443ac94adf283f7a47560001b615a08565b616eab616ea5615f80565b83618f38565b616eea576040517f08c379a0000000000000000000000000000000000000000000000000000000008152600401616ee19061ccad565b60405180910390fd5b616f167fab45b27c64f8ffb70d8a248f3395cb05e62a58311f225b85b20e146c02da708160001b615a08565b616f427fab7d0f29ed5117dc96d81e853571d0ee812c68e946c856b6d694c7ba0ede61e460001b615a08565b616f6e7f7aec3132cd63c9be380c821d67d1746d5d539c58245e375562eb4b173e6c8fa260001b615a08565b616f7a848484846191a2565b50505050565b6000616fae7f9ebb892b85dd09f13abb918559226e67ed45345dcccf9c9d7db268938b1b142160001b6140ed565b616fda7f7ec1de6d24f725b31a58825bcff6b950c6bbc25b910e712e663d330d273bfdbb60001b6140ed565b6170067fbd000fc72dd83813dcfb3d00df4df44f4569e2aeee87a2c41f48d6721500c4c760001b6140ed565b6170327f3bcfe0ac9fc6605032415da20f98d89e4c95b7b41381cdbe17ea1c8ddae50da560001b6140ed565b600073ffffffffffffffffffffffffffffffffffffffff168973ffffffffffffffffffffffffffffffffffffffff1614156170a2576040517f08c379a00000000000000000000000000000000000000000000000000000000081526004016170999061c9ed565b60405180910390fd5b6170cd7edac031cbb41f01cc28c7ca5eb66bae7e37cc6a3806a9d0afcf65d6e0b42de160001b6140ed565b6170f97f2f8303f4bfa72597b0ff142c5a234fb237c1e14c1630163503ef3c82b019081660001b6140ed565b6171257f661daab38d21b4ea9daccb7b915781603e778c6e5c9a8939c6d19da77788184d60001b6140ed565b6171517f7b049236dbfff08f9678c1f61cfd7c1b25c95a101f350e91f1b8388ec0afb42960001b6140ed565b600073ffffffffffffffffffffffffffffffffffffffff168673ffffffffffffffffffffffffffffffffffffffff1614156171c1576040517f08c379a00000000000000000000000000000000000000000000000000000000081526004016171b89061cced565b60405180910390fd5b6171ed7f687e0d567625fd5a125cd8293468d6ae84013dacba96f5ec22c3eda52d6f47ef60001b6140ed565b6172197fc0708f2d7fd0879f40c508719b162d3eaa0311ccceb053b3bbc5c44297744bad60001b6140ed565b6172457fe8a19651994f80346f6c4f78cc501a1c600cec802c4f0da9c52aa43dc88ad71760001b6140ed565b85600d60016101000a81548173ffffffffffffffffffffffffffffffffffffffff021916908373ffffffffffffffffffffffffffffffffffffffff1602179055506172b27f071c500b52f0a64f17fa8b494e262271d92d53cabf7f858df6811e756be37f3560001b6140ed565b6172de7f1208556af02fa7c197996fe1dd423c3b67191981b0c13bd766ca45a009adae3860001b6140ed565b87600b90805190602001906172f492919061af8a565b506173217fbcb52ee3da58f2987aa62d975a15a35c1c2497f91ba2d4215deb647723a1bcc160001b6140ed565b61734d7fe14d6f157c802af63bb64b1f4d954821f547075d51eb47531f2dbfe1085b151260001b6140ed565b86600c908051906020019061736392919061af8a565b506173907fa023b8436aa099492280c3eabb30cc4fd88cbd3fb7beaec614ba91a12d4d664360001b6140ed565b6173bc7f336eda9d5c6e4d9a1a336a7179f5a23b5bcd81eccf6207aa2db5ae51be3e555b60001b6140ed565b84600e60006101000a81548173ffffffffffffffffffffffffffffffffffffffff021916908373ffffffffffffffffffffffffffffffffffffffff1602179055506174297f18c9b76ee032344e9c315057b68794f009675595cafae5d7ae9ba5f43201c5bc60001b6140ed565b6174557f988c5116b59478064e052eb258db2b5039dc1062cd459368c9bfca7e7fbb558c60001b6140ed565b6001600d60006101000a81548160ff02191690831515021790555061749c7fa81124e65d30fd6bdf75c806cc7be7de9630cc40132bcf690a1892b81a4e4a7b60001b6140ed565b6174c87fe9f20c022fd923634739e4649157869615bb1d6ca97adb34cb823beea78068df60001b6140ed565b6174d3828585619332565b6174ff7fd4ac3aa0e420baf3696e9ebc6c14a867701b5bce556d2f9be5acc830fe87e08160001b6140ed565b61752b7f95001c62def3115aea79685fb7294de97837172f30ab176d525e37255e2c028d60001b6140ed565b61753689600161969b565b6175627fa61cc78a2f21acbb5cff022e636edd10c6f341827eaf0367df532416b02ce15e60001b6140ed565b61758e7fd71dba8ade4c4a72761173b52d033e238a9bb872077edef0ab3bb89b32d0ab4f60001b6140ed565b61759789616a7d565b6175c37fbfbd4d5522d5ce5453ce6eee328aabf56537e896946f553c643c759e995b474a60001b6140ed565b6175ef7f68bef78f99938e5639ebf8e096f017767aa085d719fcf9f6214e49ba523c49a160001b6140ed565b600d60009054906101000a900460ff16905098975050505050505050565b6176397f78abfe7ca68d53f70673091c3de0bbc6c1b1ff7d6109e0b5c92733bacb3dbc1060001b615a05565b6176657fc1c286e66dad5b88e982fd089e60efe9ab8d82a87afb9bdfb3f0c8c83ba72a2560001b615a05565b6176917fe2ef4e0444e7d0ac61efdb46fe2dd58347d5eca05d584440bb55740e9f87abba60001b615a05565b6000600660008373ffffffffffffffffffffffffffffffffffffffff1673ffffffffffffffffffffffffffffffffffffffff16815260200190815260200160002090506177007fabd398df60d488067e3cdb7cb4bfb74fe2ac2d24e0969f39d8644c6c37cf9f0f60001b615a05565b61772c7ff020ddbec7e92342014c859048353619210ba242dcdb6044129fc7ba635745d560001b615a05565b60018160000160046101000a81548160ff0219169083151502179055506177757ff032afb6503b5fdba47f12dd3226f8738d3b50fa945c3591d8c8cafbcd40033060001b615a05565b6177a17fc4d3d801f92232fb8a088e19bbb92ff990244ee4a49a8474a8fe6e700bb4f86c60001b615a05565b6007829080600181540180825580915050600190039060005260206000200160009091909190916101000a81548173ffffffffffffffffffffffffffffffffffffffff021916908373ffffffffffffffffffffffffffffffffffffffff1602179055505050565b6178347f1ca944e9084c97c1cae19f9ae41381f48c86c69e788a50659f5dddf1a0d7a2fb60001b615a05565b6178607fa63bdbe85010652475fa2f63dbb9b3108663870adceef6f5ab2a30c764a4b30760001b615a05565b61788c7ffe9cfc6c54de2db9aece857cb742c8a3a49b42d29fc12dbf4a51b4bba2d5970c60001b615a05565b6000600660008373ffffffffffffffffffffffffffffffffffffffff1673ffffffffffffffffffffffffffffffffffffffff16815260200190815260200160002090506178fb7f7e18d0cfe2b69bde2d3daefb2d14c7277d6351794b63d9d5721033c507938a3c60001b615a05565b6179277fe5826d419b47b6d9b8e9755a42eef83736db28546db50e98a3b2d27c096c5f2460001b615a05565b60008160000160046101000a81548160ff0219169083151502179055505050565b6179747fa0b13187c0a5023452f5a92c7c382505880ef0aad56d4032a21820f311becc4b60001b615a05565b6179a07ff9d0a6398bc14f4ce93b2f4e7060094889e4c46dc5d9329ce9a4872244ca943060001b615a05565b6179cc7fb8f7badd68474e7f904fe33ca2aefda7c8be258715ab7a2dbe0388bab430346360001b615a05565b6000600660008373ffffffffffffffffffffffffffffffffffffffff1673ffffffffffffffffffffffffffffffffffffffff1681526020019081526020016000209050617a3b7f8b9551241da1d06c89f616e0693ab0f79952a51bf61294a1b7eecfa205af164b60001b615a05565b617a677fac715c02414fef554092bff6f0f99b4e6caf151cc0879fd00838d12220d7a71160001b615a05565b60008160000160006101000a81548160ff0219169083151502179055505050565b617ab47f484e7fd66a8abee3ad3935f71d7c44b7c05f1a73a2f1c061f9339e4b9605e2a360001b6148d5565b617ae07f4517607ad1e2391ebf4ab95294c2ededd619e8ffcc0a90b58756942021dd87be60001b6148d5565b617b0c7f50bb88c45067fd316237e4ff532ae2997a1704c8576fb4423a90d6acb504e0e660001b6148d5565b828473ffffffffffffffffffffffffffffffffffffffff16867f1f920dbda597d7bf95035464170fa58d0a4b57f13a1c315ace6793b9f63688b88585604051617b5692919061c7d2565b60405180910390a4617b8a7f5c25f146f802a95b0505967aae7c14a88c3065588c2b71934e5ecbe50b1145e260001b6148d5565b617bb67f9f6c9836c0abb6ebb89fca507eb1d29cf77342806ea2fcdcc6aa5eaff6b0981f60001b6148d5565b60006109c45a617bc6919061ce8d565b9050617bf47f8664a76488ca3ece8e6b98902032cc4836ee726209d90d366e9b40c3bf8b18bb60001b6148d5565b617c207fcb689923835d2f9a8acccb4821ee69d0f6223028f577b6fcff55374458649ecf60001b6148d5565b6000861415617d0357617c557fb9941fec9e3c6c7a219ff0480b0959530645d40a2b2c4188dad24c7718d4480d60001b6148d5565b617c817f4123995531c547dcc933f65ecbbca9e8512606918ad3348e6cd6e44a56f65ba360001b6148d5565b617cad7fd2d4e2eec432d54beda14c5c8c14cae9555540c3d1ea2fae5d6b154b6c65b39460001b6148d5565b617cfd858585858080601f016020809104026020016040519081016040528093929190818152602001838380828437600081840152601f19601f820116905080830192505050505050508461973d565b50618208565b617d2f7f7b806577d04e95509433a47dfb609a3c4d781de88851cf10230f11edcbf6d75860001b6148d5565b617d5b7f810b89e0325a2ec949d94f582a46a5011367d6c250453769d3f7dd7039811c2960001b6148d5565b6003861415617e3c57617d907f2e8f1f42987bf6bf32c0c058ee92ee9c10523710e8303f9afa90fd7bef43183560001b6148d5565b617dbc7f6abb789933fba8e354087113a3c05e0c2c5b764e46b12ca72699287adf87c8cd60001b6148d5565b617de87f2cfdfb0fa97139dfc2ee5b79dc77c25c4a33c5b4c7e79cc260cb2e1349a291de60001b6148d5565b617e368484848080601f016020809104026020016040519081016040528093929190818152602001838380828437600081840152601f19601f820116905080830192505050505050506197ae565b50618207565b617e687f1125f2d72f13e256f518529e8920707ff701394b6d2052a79e0a5c5ee0ddd27e60001b6148d5565b617e947fb4111db22483c0451d07d67deac1eccfd6eaba2095ada0e393908c6bb7c415d360001b6148d5565b600286141561814757617ec97f1347c2e15a8b10c3b83a7a68e0d3f96ca384c11a4a24db8f805df90eccf31aab60001b6148d5565b617ef57fef8923962f14c6f8dfeaa655fb27ed955cc3387faeaa1788e44e41628b91f9c860001b6148d5565b617f217f1614646660ef230e2abe7d61aa587ee46ed5ef4b9896b4c9c85a04954b2319e460001b6148d5565b6000617f8084848080601f016020809104026020016040519081016040528093929190818152602001838380828437600081840152601f19601f82011690508083019250505050505050602086869050617f7b919061ce8d565b6199d1565b9050617fae7ff841e8565d64a6121e1d6369a7da40f5a1f522739e4d501cdecc81a71cf7af9b60001b6148d5565b617fda7f225b024187e0a73e5a6d415777f43329c912f22fecb89f45a4889a5ea758f4ee60001b6148d5565b600061803b85858080601f016020809104026020016040519081016040528093929190818152602001838380828437600081840152601f19601f820116905080830192505050505050506000602088889050618036919061ce8d565b619a38565b90506180697f36078241af4b3be63bf41b3e000fa67644a203e9a77f0de55e457f0efbc4cd6860001b6148d5565b6180957fc78ba09d5b4e7616c71631c278bd3d1332b753741ba628dacd49965a928700e760001b6148d5565b60006180a2878484619b56565b90506180d07fd4a2cd29700fd4f412496092d55b5922c59e71c89220a5153b486ac85bcf993060001b6148d5565b6180fc7f64d74cd3d97176ead9ed460d412be1c7a305f91f9e8c158413fe6acf8bfea82b60001b6148d5565b8073ffffffffffffffffffffffffffffffffffffffff167fcf78cf0d6f3d8371e1075c69c492ab4ec5d8cf23a1a239b6a51a1d00be7ca31260405160405180910390a2505050618206565b6181737fcceda46d08b92a0d315dd5197fe41975cb67efecf30b12b0d664ef905f5eafdb60001b6148d5565b61819f7f138531c242ea87fd791c5b0ef690e3d4d37fa4c51b28f061fd2a1505ed210f8e60001b6148d5565b6181cb7f834b5ae573e8f8469d93b729ecaa70569058e2e67a8e293bbd3dffbf0b01b84c60001b6148d5565b6040517f08c379a00000000000000000000000000000000000000000000000000000000081526004016181fd9061cc8d565b60405180910390fd5b5b5b505050505050565b606061823e7f2adfb31b904f041b0d78acc33dc132b915ed93b6375bf3148b5343fe6df43c8160001b615a08565b61826a7f5b59c792b3a68109c307c569e95f3c564ca5877d97c6aec87191c9001599632c60001b615a08565b6182967f62a0b251907a190dc67ccd8d8e4fba72f8ffce3ee9f4ba468c1bda4df7b1079860001b615a08565b60405180602001604052806000815250905090565b60606182d97f9a2a05562c64660483ad9cb5e73880731ad09e14eeed0b0660e0ecc123ed33f560001b619c67565b6183057f4f78b7bd63afe42b731eb9c5cce14e7a895c1632e1af5f76e37a3fe9eca8cea960001b619c67565b6183317fde44c8435aacf22674814f3a77f5e9b802cab5d4258441c2b3028c5c4f5405cc60001b619c67565b60008214156183fb576183667f24bec8c938b2ee0617122b8bda6a412dc6bdcf362db6c344f2c12844b7620c7d60001b619c67565b6183927f9409c1d0d705d0dc56b4503271ecedce98375cd6362ff8e8a5616cb6fdc67a5960001b619c67565b6183be7fae1e5b7e83bfc1864b2ac231ea11b2bcbe1012f158f72592196777b8c7cbf00560001b619c67565b6040518060400160405280600181526020017f30000000000000000000000000000000000000000000000000000000000000008152509050618923565b6184277f1e5f7add9577df6a8822d4cd0a0318afd567aedbd089b4b535d1387176c85c0660001b619c67565b6184537f775ee977b911d991fedeab6a13ec4a2c15f0bc2b552e12c3349f60f6525351ca60001b619c67565b61847f7f55528c6ec26d498b08a4d0a6b5d8dcb6ae2bea2d3867a467120280658354f14260001b619c67565b60008290506184b07f35e3b8abee4385b2c1304ef71afb777c7a6ad4e48dacf21316acb443bd8bcdac60001b619c67565b6184dc7f427ac9209b438b7061788f4081e09db1c06c5ddc6037f09fbff9eb7a5404fe9b60001b619c67565b600061850a7fe7af6179690ef9707f71185b123750fe58cfc637a807aeb3e9708c4fc86d2e6b60001b619c67565b6185367fd1491ade964879bd60a5cbec6a99148715a60d3e9d9df213a6bc13ad09b2862260001b619c67565b5b600082146185e55761856b7fd441db6b5bac67840cbb26ec390749483f01a4e2637c0b95b7bc6a0f5046c09160001b619c67565b80806185769061cfb3565b9150506185a57fe6f87e0f3f33d880debfc87218f3dea2a4cb11179c8f8b99a5da714747f95ce660001b619c67565b6185d17f2d3420ba15998fd435c59a8c2c393da80a1930c6fd24d149528c18bb1194a43a60001b619c67565b600a826185de919061ce5c565b9150618537565b6186117f02d541b5d47be85800b8eef410eb15968ed089f88e2ba148f23ee253c0bb424360001b619c67565b61863d7ff624bf92ddba41b067ccccf946ae444d9df8db44bddc0a08937692cdd0d467aa60001b619c67565b60008167ffffffffffffffff81111561867f577f4e487b7100000000000000000000000000000000000000000000000000000000600052604160045260246000fd5b6040519080825280601f01601f1916602001820160405280156186b15781602001600182028036833780820191505090505b5090506186e07fd0fa9ba3888a1fa2998a440dd606f430cfdc824780de3e8948258b5ffe88e48860001b619c67565b61870c7feb9866b9c141a61ee2e19bd4276d9f4b4bcaf1bc9aa637d2abf82f3b559ce82960001b619c67565b5b600085146188c4576187417f427623c68d09986f2b634ed37874a5a47e146208647b5304c09a6eccbffd306560001b619c67565b61876d7f22b0e15ff96b63dfecb59a7b787451e6a5cccae0c3dde1b170d363d2a37bf73c60001b619c67565b60018261877a919061ce8d565b91506187a87fa7dd476f0a2aa1b2edfc9d917e2e6748602a5fab96c2808c9fd7e3656f4da5ad60001b619c67565b6187d47f900e5c2ef7eb4be02931763ad0c96020a00a82810188b88ced78510fa59ef91e60001b619c67565b600a856187e1919061d020565b60306187ed919061ce06565b60f81b818381518110618829577f4e487b7100000000000000000000000000000000000000000000000000000000600052603260045260246000fd5b60200101907effffffffffffffffffffffffffffffffffffffffffffffffffffffffffffff1916908160001a9053506188847f35488a664d79e43cf6df5990793a02e2eb1931b984a22dfafeef544baaf96bd660001b619c67565b6188b07fd2d7f0ee2a96068ada320d968062a2a8c9fc7758cbb57dffd071a6ad194483ae60001b619c67565b600a856188bd919061ce5c565b945061870d565b6188f07fcae00ea3de4936a2e44b3dc6827b92af9a8c98ffe091f52401bddc90c46d545f60001b619c67565b61891c7f604b8c76f6fa76acb506b4170a9dc486b7a3793e62c9294a228c221c8572195f60001b619c67565b8093505050505b919050565b6189547fb55b79bea11d03b8f9eed6fba5566828f5fdcc89420a1ade5128fa9319da367b60001b613efd565b6189807f6fb8d3c2f470968d186c227278f1db60acb484b0593ac417a278842ba4a1108e60001b613efd565b6189ac7f789ca366e0c231b366f0ae832d76182110048fc5c906a554459bad2b8b2d378e60001b613efd565b6189d87f79feb24316ac4d7f8db44ef91c9fae76e6b21f23cec4c18b259bb3836f1d6d2a60001b613efd565b3373ffffffffffffffffffffffffffffffffffffffff168173ffffffffffffffffffffffffffffffffffffffff1663075461726040518163ffffffff1660e01b815260040160206040518083038186803b158015618a3557600080fd5b505afa158015618a49573d6000803e3d6000fd5b505050506040513d601f19601f82011682018060405250810190618a6d919061b17d565b73ffffffffffffffffffffffffffffffffffffffff1614618ac3576040517f08c379a0000000000000000000000000000000000000000000000000000000008152600401618aba9061cb8d565b60405180910390fd5b618aef7f29d4af23b0939f43733ea3446053cb14aa865e4629e7838b7f6ef21ccc0ecc7e60001b613efd565b618b1b7f24647a53bf960f838d28052e209860571406beeb94643afe7f0b6183e5aff62760001b613efd565b618b477f8e55cc9ef577248ee3019b0c55f62f0132453befecc01e263e4c58822c6023f760001b613efd565b618b737f1252df00c26b1b18c7db044327f60a16b8753fcc738da8d12417a31a466bfd0860001b613efd565b60001515600a60008373ffffffffffffffffffffffffffffffffffffffff1673ffffffffffffffffffffffffffffffffffffffff16815260200190815260200160002060009054906101000a900460ff16151514618c06576040517f08c379a0000000000000000000000000000000000000000000000000000000008152600401618bfd9061cb4d565b60405180910390fd5b618c327f8f45471a6b4b4ad82afb59057ac102ccdc12ae041d11ef56c5c087b67113112560001b613efd565b618c5e7f873a404fc80cb99ec5fb6516e37c7aa9cab684dacb578047fedc11ace9baa62260001b613efd565b618c8a7fb6bea0eb7551da2bbd362a6a2c58088dcfbc0ac5d5c8b2abd6f91f579961fa5c60001b613efd565b6001600a60008373ffffffffffffffffffffffffffffffffffffffff1673ffffffffffffffffffffffffffffffffffffffff16815260200190815260200160002060006101000a81548160ff021916908315150217905550618d0e7f222c69182d47a82bd653e670c3ce151645f014a4151fcac24509ba12f42b996e60001b613efd565b618d3a7f408e1f8d54c112eb550110be667b2cbb864c7a2c28f9ee6fb79215ee6bf8006660001b613efd565b8073ffffffffffffffffffffffffffffffffffffffff1663eb40024b6040518163ffffffff1660e01b8152600401600060405180830381600087803b158015618d8257600080fd5b505af1158015618d96573d6000803e3d6000fd5b50505050618dc67fee08ded8b7f785e6be27474c2ef1703dc74c5946c1c49025434981ff63378bf460001b613efd565b618df27f350aa2df28488e9874d90f1fb0fd8243d7e462c93bd1c8999ae86e640e5ed3ee60001b613efd565b618e1e7fd028e8876605813b2e485fb0ee6a26ed76c489f5b27aa7e2530293a733df926060001b613efd565b3073ffffffffffffffffffffffffffffffffffffffff168173ffffffffffffffffffffffffffffffffffffffff1663075461726040518163ffffffff1660e01b815260040160206040518083038186803b158015618e7b57600080fd5b505afa158015618e8f573d6000803e3d6000fd5b505050506040513d601f19601f82011682018060405250810190618eb3919061b17d565b73ffffffffffffffffffffffffffffffffffffffff1614618f09576040517f08c379a0000000000000000000000000000000000000000000000000000000008152600401618f009061caad565b60405180910390fd5b618f357f10fa936a9ccfe1764193300421317b5f71201bba7c9aec4e3cf9b4270331344c60001b613efd565b50565b6000618f667f0bd917e653489ad3e521247c8c4cd3b5d9a75625ae6b1763ee293eea8045d0b460001b615a08565b618f927fe98337f665e1467477630928dac750b7c733eaecce4c115d8eb9f54526231d1a60001b615a08565b618fbe7f3f5d82ef9fbf69a36585c6346332665a9892780a3317fcc13781a249c22b56c260001b615a08565b618fea7fd05bc86dd6ea1c1fce6b8c536ab33bf130affa11e50f62fcc684b5c9bdf6d4fc60001b615a08565b618ff382615e8f565b619032576040517f08c379a00000000000000000000000000000000000000000000000000000000081526004016190299061ca0d565b60405180910390fd5b61905e7f61c86042e04e9b36ff436e5b33f10a6b95170d976a418ecbe0fa52b2213dc00a60001b615a08565b61908a7f532f244a2825f5bde0760f57118e2abd54074af39fe6726dd7773c1a8bd153c760001b615a08565b6190b67f7bd043042500e54c8c59bff8215a3854cdae1b875dac4ceb36103672af98eca260001b615a08565b60006190c183613ae4565b90506190ef7fb3bf207ff7119ea6e020c134be4a26ed437b86dcabf1cecce31e06c16a0b753960001b615a08565b61911b7f362b550638709b3dcaef8fe24f93319fd0bcab910c74a12c0bd8e5832a4ddf6c60001b615a08565b8073ffffffffffffffffffffffffffffffffffffffff168473ffffffffffffffffffffffffffffffffffffffff16148061918857508373ffffffffffffffffffffffffffffffffffffffff1661917084610c17565b73ffffffffffffffffffffffffffffffffffffffff16145b8061919957506191988185615a2f565b5b91505092915050565b6191ce7f610ec429080812b143e433455a534227a623ed7157641d5d4d801a984cfc5faa60001b615a08565b6191fa7f46795d677b4b0ec1e4e397dc715933595669b182b99771e793f742e9b5e76caa60001b615a08565b6192267f10f998749415b4892cd6c16df58bcb24344a88ad377ef691693b68ed025155c560001b615a08565b619231848484619c6a565b61925d7f7497266109f9f108d6ab193b1f51b51721ab97974e897596006528bd994e87ad60001b615a08565b6192897f9e7ed4ba51bd41d3dd4e8a40af6949dc4b5491c1cb8f667b19c135449096401b60001b615a08565b6192b57fe47e473944f656f05f705823123479692eab6a308d7f97bb5e10c9cfefea8b7160001b615a08565b6192c18484848461a262565b619300576040517f08c379a00000000000000000000000000000000000000000000000000000000081526004016192f79061c92d565b60405180910390fd5b61932c7f2971d10bb1650c61aaa901cb389b7a3d470bc8cf91c26aab352ec3ea7744a1de60001b615a08565b50505050565b61935e7fa114fdebfb2f5b26cd09dd868f2fca1ebaa9be14dd48912b7a7c3383ff23600260001b6140ed565b61938a7fda37b6312e472a372f5385dba4365b344ebf6af5a54eda2d99d72e2e3fc183da60001b6140ed565b6193b67ffea548e9856e369df2872c04076e16d0d078c093bab34a4b7719a8d1e567cd6e60001b6140ed565b6193e27fed475fc43b3543dd45b34d046be954d7766f214fac55b2e126b875fb5dc5d97460001b6140ed565b3073ffffffffffffffffffffffffffffffffffffffff16600e60009054906101000a900473ffffffffffffffffffffffffffffffffffffffff1673ffffffffffffffffffffffffffffffffffffffff166372f670f0306040518263ffffffff1660e01b8152600401619454919061c67c565b602060405180830381600087803b15801561946e57600080fd5b505af1158015619482573d6000803e3d6000fd5b505050506040513d601f19601f820116820180604052508101906194a6919061b17d565b73ffffffffffffffffffffffffffffffffffffffff16146194fc576040517f08c379a00000000000000000000000000000000000000000000000000000000081526004016194f39061cb6d565b60405180910390fd5b6195287fae0dcfb20b1cf6d4aadc936eabd63b1be588b45b9581ab1919aa62dab72f84c560001b6140ed565b6195547f11c9a43a20d9a8a315b71ac8f25c3a7a2824d25860397ecdcd5ca4f79222828c60001b6140ed565b6195807f9ecc24cbcd7a6585e5ae248c13df5941e3e9da699021d80f619df9eb3089891960001b6140ed565b600d60019054906101000a900473ffffffffffffffffffffffffffffffffffffffff1673ffffffffffffffffffffffffffffffffffffffff166382743814308585856040518563ffffffff1660e01b81526004016195e1949392919061c72c565b600060405180830381600087803b1580156195fb57600080fd5b505af115801561960f573d6000803e3d6000fd5b5050505061963f7fa47175ddd5d68db5193d5528a40a8dd3a2b3c9ca38ee351be9da8426ffe2cea360001b6140ed565b61966b7faf864ceedb184d1496393eaa4888d8fabd688a1d4facb4322738edcea7975e8f60001b6140ed565b6196967fa063f3cd8b0dcd6546ffc1c06fc86515c40fe331e91488c5e18c88c7efc881e8838361611d565b505050565b6196c77ff568053a58dc50051fb961eaf97227d55a3a8e9d245a6d56f4109b8a0c616a6160001b615a08565b6196f37f3389017ffaf04dfdbabed7f1e43a85e7ed27da4edab4ae4c7cf584a06583560960001b615a08565b61971f7f45bf0aa5d8efb362e45d9e97cde7260ebc1b2f85e60666a2b929f2ca97d6cb0060001b615a08565b61973982826040518060200160405280600081525061a711565b5050565b600061976b7f6e9230394b80a5bbcee7ff12d5b5ed6b97db0d49e05474a5fd7c2dc6f557d34360001b6148d5565b6197977f93337536d56a15179ecb5f09853bd9dcaa71840af9d49c3c9ca6c7a1a6f84b8560001b6148d5565b600080845160208601878987f19050949350505050565b60006197dc7ff6a6d14ade2d6b90db7e58069ec22aed0ac388b0f3f4862fdda3af961471d33760001b6148d5565b6198087f3c8601dbefd91b8cab9714b9d4a9b796033f9bc16ac2a33c66a95c40d9ef505e60001b6148d5565b81516020830184f0905061983d7eaf4224af367061d97f439f08fa81e5842a0e09ff21178bfef5ec3675e082d260001b6148d5565b6198697f20d3d35f175d14a8e80d0d9997dfd7d4e652355715facc5bab4936f94b6e7d6960001b6148d5565b6198957f8e24dd289f629914568c572cbc818a6fc66c8f437e549b3e7a38e76c70c40c8560001b6148d5565b600073ffffffffffffffffffffffffffffffffffffffff168173ffffffffffffffffffffffffffffffffffffffff161415619905576040517f08c379a00000000000000000000000000000000000000000000000000000000081526004016198fc9061cbad565b60405180910390fd5b6199307efdbc7d41fb05123db897deea0a69644d05cdf6ee180b651e5353cb67b5c58e60001b6148d5565b61995c7f1f094ac15de18e0e3c651798d3ea8b693b03cfc3993abd31e7d76f65aac0c03260001b6148d5565b6199887fc6c4973b9667e3a271c95321d9b0e41b6dbffab9991001c059883f317d5c3a4b60001b6148d5565b8073ffffffffffffffffffffffffffffffffffffffff167fcf78cf0d6f3d8371e1075c69c492ab4ec5d8cf23a1a239b6a51a1d00be7ca31260405160405180910390a292915050565b60006020826199e0919061ce06565b83511015619a23576040517f08c379a0000000000000000000000000000000000000000000000000000000008152600401619a1a9061cbed565b60405180910390fd5b60008260208501015190508091505092915050565b606081601f83619a48919061ce06565b1015619a89576040517f08c379a0000000000000000000000000000000000000000000000000000000008152600401619a809061ca2d565b60405180910390fd5b8183619a95919061ce06565b84511015619ad8576040517f08c379a0000000000000000000000000000000000000000000000000000000008152600401619acf9061cccd565b60405180910390fd5b6060821560008114619af95760405191506000825260208201604052619b4a565b6040519150601f8416801560200281840101858101878315602002848b0101015b81831015619b375780518352602083019250602081019050619b1a565b50868552601f19601f8301166040525050505b50809150509392505050565b60008084471015619b9c576040517f08c379a0000000000000000000000000000000000000000000000000000000008152600401619b939061cd6d565b60405180910390fd5b600083511415619be1576040517f08c379a0000000000000000000000000000000000000000000000000000000008152600401619bd89061c90d565b60405180910390fd5b8383516020850187f59050600073ffffffffffffffffffffffffffffffffffffffff168173ffffffffffffffffffffffffffffffffffffffff161415619c5c576040517f08c379a0000000000000000000000000000000000000000000000000000000008152600401619c539061cb0d565b60405180910390fd5b809150509392505050565b50565b619c967fcba03f8850c59168db76de39c2693bd060a7e1953a123b0e26abea51483c33e660001b615a08565b619cc27f14ebc87b8e50eeeb4988aebad0107344cfb1eefc043598f49d2ec75203eee74e60001b615a08565b619cee7fdb0d7031ad7cc8d0c837623fe737278ce62566caa413ed981c4fdf526a9a4eed60001b615a08565b619d1a7f4de319e4ea806cce55f80dfd018a842e00dc8d81c003cc3f73f7b86123e9762160001b615a08565b8273ffffffffffffffffffffffffffffffffffffffff16619d3a82613ae4565b73ffffffffffffffffffffffffffffffffffffffff1614619d90576040517f08c379a0000000000000000000000000000000000000000000000000000000008152600401619d879061cc0d565b60405180910390fd5b619dbc7ff5ebebb7534ecdf6b9768d1411736c9ad000f2548a89f45966e5e0b7ce8e083760001b615a08565b619de87fa73abd69391865324aa4ee8937add44c7659aab683f281e70db08d32ea739c2e60001b615a08565b619e147f62781c075e2def8c1807bd2d4726c313311d4c5149239dec4acdbb2324a0886660001b615a08565b619e407f6c21abf69d35d44d02cfe909d381543d2e96b36085fcb79facb577047950055460001b615a08565b600073ffffffffffffffffffffffffffffffffffffffff168273ffffffffffffffffffffffffffffffffffffffff161415619eb0576040517f08c379a0000000000000000000000000000000000000000000000000000000008152600401619ea79061c98d565b60405180910390fd5b619edc7f94572ac1a8deb76588c3f0ca8efc7d009d9293766adf54ecc42727b8b9cdc38860001b615a08565b619f087fb55531bbf1e7674a5c00ad821d338ffec49f527f7abdcc031e732c05dd303a8660001b615a08565b619f347fe22750cb423ebdc000ba788c996a6b4bbc4f5b6a559bde84e451c200635e815860001b615a08565b619f3f83838361a8a0565b619f6b7f67af5f9e1598a435a2c2dfa6c247c05aee6cca4dbc342e017d6904e7b56ddd2860001b615a08565b619f977f97ed45e50d13a89991d3bb52bb44383c7eef34679e753cd9d045373b12b5b4e360001b615a08565b619fa2600082615f88565b619fce7f9de2f9c256b2a1e9d951c07349e81d6c16384fed8ab782ff09741b94c815b52560001b615a08565b619ffa7fdca7384043be5dc4684fb48db54faf19c6285a85478c501bf3282075709af41460001b615a08565b6001600360008573ffffffffffffffffffffffffffffffffffffffff1673ffffffffffffffffffffffffffffffffffffffff168152602001908152602001600020600082825461a04a919061ce8d565b9250508190555061a07d7facfc2c74b2eeae0abd45259d3767539385bafb98e89d93c86ff7358d0a32096160001b615a08565b61a0a97fc129fc59de0e1352ce87fd5ddaa0338c7b8603da56958226614b944081d98cfd60001b615a08565b6001600360008473ffffffffffffffffffffffffffffffffffffffff1673ffffffffffffffffffffffffffffffffffffffff168152602001908152602001600020600082825461a0f9919061ce06565b9250508190555061a12c7fc2e5dd36c225b52e932d563fdaa902ae6c217ce79e807216dc8fe0b4fd42fe7a60001b615a08565b61a1587f4787d7dec2204db04d7d2a55ead2f5542ad0a9a83e69a366865ca17f52fdc3f160001b615a08565b816002600083815260200190815260200160002060006101000a81548173ffffffffffffffffffffffffffffffffffffffff021916908373ffffffffffffffffffffffffffffffffffffffff16021790555061a1d67ff98cad407aa3ea6f8a9f60ba8d369d60f87a45e1378bfff8f77c0a9b01d4d4ab60001b615a08565b61a2027f4cdb83ac315ab07fcb960f4831e910db7bb86d5653ab6e372d8af83e1801e70a60001b615a08565b808273ffffffffffffffffffffffffffffffffffffffff168473ffffffffffffffffffffffffffffffffffffffff167fddf252ad1be2c89b69c2b068fc378daa952ba7f163c4a11628f55a4df523b3ef60405160405180910390a4505050565b600061a2907fbb9b9bd5e2483ff100a6c41ac038ddb6bf25a5cc35c0b5190823d072c985a81160001b615a08565b61a2bc7fd2f9b44fcde42ddb26ec266d4bfd65e86405149379a83a4ec0188034218116e660001b615a08565b61a2e87f34d767b242464d7deed4e22989b0b607e24ef4d79fef4aaa748dad110d98103b60001b615a08565b61a3078473ffffffffffffffffffffffffffffffffffffffff1661a8d1565b1561a6805761a3387f391b2c9d2ae3fe704a81d262726c3e1b38c159f2f8f0fa166a488ddf6f6df4a360001b615a08565b61a3647ff63772ad8873f4e908f50246d0d3a3804d695e4ba584dd3f8faa62547e0b10e460001b615a08565b61a3907f7c5938331bc5fe4be06d077f86ba391b033da11d6ace762fcee3766d1d47137260001b615a08565b8373ffffffffffffffffffffffffffffffffffffffff1663150b7a0261a3b4615f80565b8786866040518563ffffffff1660e01b815260040161a3d6949392919061c697565b602060405180830381600087803b15801561a3f057600080fd5b505af192505050801561a42157506040513d601f19601f8201168201806040525081019061a41e919061b51c565b60015b61a5d8573d806000811461a451576040519150601f19603f3d011682016040523d82523d6000602084013e61a456565b606091505b5061a4837fba42cbd04e8977d0916740099d0d7b8a2482c2ce85541a23055fab51c2e2f82160001b615a08565b61a4af7f990916ea212771f8f1e788e8a47862bf8452493f38a6035a4a357b2b6d36150760001b615a08565b60008151141561a5785761a4e57f2e055c4df53bec8bfe2c134be8c3299867ffa10399f87fd1917b06d4b786f88e60001b615a08565b61a5117fbcc7a558a0791a7b23622744cbe1ff0b52bc96c4aa4a2a47d85e91000c0a8d2760001b615a08565b61a53d7f32e47b2b8712662c619c041e6cd6b04a2991bccd5825618ea434c87160c8e61760001b615a08565b6040517f08c379a000000000000000000000000000000000000000000000000000000000815260040161a56f9061c92d565b60405180910390fd5b61a5a47fe3f2926a25702cf1c89e0fafbf30ec78209753db389035f2b2f677492b1d683160001b615a08565b61a5d07fcdd87e8d7c375396d3541c3d3da5d3dd73edaa7d6af7d966602aa6db9a48a11b60001b615a08565b805181602001fd5b61a6047fde4a89a47232fd68fa1e7bdc00947930284d5596ae1a04039700387f5ee5092c60001b615a08565b61a6307f5aeca500c8e194014a801f5bdba313f123b9a974c462c51eb65992d5ad9c66bd60001b615a08565b63150b7a0260e01b7bffffffffffffffffffffffffffffffffffffffffffffffffffffffff1916817bffffffffffffffffffffffffffffffffffffffffffffffffffffffff19161491505061a709565b61a6ac7f9d37d92f9bd4955b1fc7cb12024eed10aef7a11e28e7ba043b113bf5d8c6330460001b615a08565b61a6d87fe834200fae06f1eb0018dcb8394aafda8516bf5990eff627363e3439a9b3e24e60001b615a08565b61a7047f3d1a1661d041ce9eb897ad465dbfd55bf05216912acd66039bdeb01c479a297860001b615a08565b600190505b949350505050565b61a73d7f59212cce1de0042a84ce3f9001068eedbce7fbe1d1d25134efd8f9adf1008ae260001b615a08565b61a7697f6c1d7ae2e56e7fa92606031776ff2f201c79ed609ef16fe4497575a68522213860001b615a08565b61a7957f06975cbd5e777f9f96d4e2b8ed5ea42e6b895cf09fc841eecf1faa100cdd390960001b615a08565b61a79f838361a9ed565b61a7cb7f55220462d3915abb9b266ce685254f61fab054f4f6bf9b151bb5b36cc3ef0ec560001b615a08565b61a7f77f57bbfe2585f61fed39b7fd91d4dc2cf41d2b6334d183d651e3cbdc586a0d0dbe60001b615a08565b61a8237f5e91b21036b2a8d2ad15ae08e10ab7e0d0237d5b6dc40abadbed4e0aad1b018660001b615a08565b61a830600084848461a262565b61a86f576040517f08c379a000000000000000000000000000000000000000000000000000000000815260040161a8669061c92d565b60405180910390fd5b61a89b7f75e5ef3f32de14302d7d88383b5fa9f7e57c54c479260769598303d4807398ab60001b615a08565b505050565b61a8cc7f09701061a7b17b6be3b98ebfd0cc5060c9189adda784cc20a4678862bc5b51bc60001b615a08565b505050565b600061a8ff7f1f3d1031c94cd29125070d7abb55e17ca8e80155b35e3140b2b4d14ee626120960001b61aea7565b61a92b7f8eddaf0bf692968d5b6af5d0b98eb190d1b0f23598d1d8ff6b65309eb4389f1160001b61aea7565b61a9577f9cd787b23bca0c625e2f1978aa4cfed8ae8f6948577575fd3b90f03ca8ddfcda60001b61aea7565b600061a9857f910317f2c36bace81c373ebf5f0fbb51bd4602740a243d3f748573f6915ec04a60001b61aea7565b823b905061a9b57fe80f7af9d78633e0c346ff163e7086145e2bef83a56e180eeb97deaaa9bcfc0e60001b61aea7565b61a9e17f9b85525dc53716589ec8eca498787d3b198f6f547cb1c88215d0593284a4ff6360001b61aea7565b60008111915050919050565b61aa197fbe2aacd06ff4f04758758474398df72907c51fd7e3961876d2d7a8abfd85d5d960001b615a08565b61aa457f907446ba129a676195bdf73b4f20a0f3805b1ef5c030fb9584eb390698d291f260001b615a08565b61aa717f37386df575e89864a47b9344c99c935946685e779af375b4f9a167414ff2cf5560001b615a08565b61aa9d7f463de46d6eaf99112ee78081f2a937337fb5872a679dd1f40e247b4a9a8cd3a160001b615a08565b600073ffffffffffffffffffffffffffffffffffffffff168273ffffffffffffffffffffffffffffffffffffffff16141561ab0d576040517f08c379a000000000000000000000000000000000000000000000000000000000815260040161ab049061cb2d565b60405180910390fd5b61ab397f9ca9bff73b40c9b0592557c01a0f9c03f08b50dd323d9465eb97207a9d145d3160001b615a08565b61ab657f4788c7c60dede7bf7be0a08af7d64c13ff3a1107e3e43c0a75b59e1ec574afc660001b615a08565b61ab917f99ba0654a76e63380f85e035878b80ea655af619936d142f7f6e6413c2df907260001b615a08565b61abbd7f2c7bb4dcce8c826a9d7dcf19d8ef969df7d874e72755d5b8cef10df4e12ace2b60001b615a08565b61abc681615e8f565b1561ac06576040517f08c379a000000000000000000000000000000000000000000000000000000000815260040161abfd9061c94d565b60405180910390fd5b61ac327f43dc131fcff41cee15024f4c830dcc9122d9e3bb270e05bcf224c677496ede3160001b615a08565b61ac5e7f87d9372feb0768fc360f44f046e421a09bd4449390e2e16aa67536776573b7c760001b615a08565b61ac8a7f9c21f669e8ca1764fda8b18a9d8b41e21af9b68d4e1f260b1c4ac5ba7c5a3af760001b615a08565b61ac966000838361a8a0565b61acc27fa76a62e241a8a0b2c69d55da976b9759905fdb03b0313c7842118c933cd22c9f60001b615a08565b61acee7f893edaca1cf18a0cee953e43bcb162dc212bd32d5695ad001d9cbbdd1350797460001b615a08565b6001600360008473ffffffffffffffffffffffffffffffffffffffff1673ffffffffffffffffffffffffffffffffffffffff168152602001908152602001600020600082825461ad3e919061ce06565b9250508190555061ad717f9301a8c9e7aaf4a0dba5fbc2a393b0813e440a75d60c44ed8a424b0ca1f1138360001b615a08565b61ad9d7f4e969d2eaea37238d8846febf77be89bcaa820a347b3c33652b30a231bad0ab260001b615a08565b816002600083815260200190815260200160002060006101000a81548173ffffffffffffffffffffffffffffffffffffffff021916908373ffffffffffffffffffffffffffffffffffffffff16021790555061ae1b7f13002aafcf59e07f1a9869a3fba00fa70073b8ae106131f08504f3a0923cc15960001b615a08565b61ae477f90f40d349e31ffe14aa8cfd573e55a5fd1a8585af1598fd0853b578e0ce4653c60001b615a08565b808273ffffffffffffffffffffffffffffffffffffffff16600073ffffffffffffffffffffffffffffffffffffffff167fddf252ad1be2c89b69c2b068fc378daa952ba7f163c4a11628f55a4df523b3ef60405160405180910390a45050565b50565b6040518060a001604052806000151581526020016000151581526020016000151581526020016000151581526020016000151581525090565b82805461aeef9061cf81565b90600052602060002090601f01602090048101928261af11576000855561af58565b82601f1061af2a57803560ff191683800117855561af58565b8280016001018555821561af58579182015b8281111561af5757823582559160200191906001019061af3c565b5b50905061af65919061b010565b5090565b508054600082559060005260206000209081019061af87919061b010565b50565b82805461af969061cf81565b90600052602060002090601f01602090048101928261afb8576000855561afff565b82601f1061afd157805160ff191683800117855561afff565b8280016001018555821561afff579182015b8281111561affe57825182559160200191906001019061afe3565b5b50905061b00c919061b010565b5090565b5b8082111561b02957600081600090555060010161b011565b5090565b60008135905061b03c8161d0fc565b92915050565b60008151905061b0518161d0fc565b92915050565b60008135905061b0668161d113565b92915050565b60008135905061b07b8161d12a565b92915050565b60008135905061b0908161d141565b92915050565b60008151905061b0a58161d141565b92915050565b60008083601f84011261b0bd57600080fd5b8235905067ffffffffffffffff81111561b0d657600080fd5b60208301915083600182028301111561b0ee57600080fd5b9250929050565b60008083601f84011261b10757600080fd5b8235905067ffffffffffffffff81111561b12057600080fd5b60208301915083600182028301111561b13857600080fd5b9250929050565b60008135905061b14e8161d158565b92915050565b60006020828403121561b16657600080fd5b600061b1748482850161b02d565b91505092915050565b60006020828403121561b18f57600080fd5b600061b19d8482850161b042565b91505092915050565b6000806040838503121561b1b957600080fd5b600061b1c78582860161b02d565b925050602061b1d88582860161b02d565b9150509250929050565b60008060006060848603121561b1f757600080fd5b600061b2058682870161b02d565b935050602061b2168682870161b02d565b925050604061b2278682870161b13f565b9150509250925092565b6000806040838503121561b24457600080fd5b600061b2528582860161b02d565b925050602061b2638582860161b057565b9150509250929050565b60008060008060008060006080888a03121561b28857600080fd5b600061b2968a828b0161b02d565b975050602088013567ffffffffffffffff81111561b2b357600080fd5b61b2bf8a828b0161b0ab565b9650965050604088013567ffffffffffffffff81111561b2de57600080fd5b61b2ea8a828b0161b0ab565b9450945050606088013567ffffffffffffffff81111561b30957600080fd5b61b3158a828b0161b0ab565b925092505092959891949750929550565b600080600080600080600080600080600060e08c8e03121561b34757600080fd5b600061b3558e828f0161b02d565b9b505060208c013567ffffffffffffffff81111561b37257600080fd5b61b37e8e828f0161b0f5565b9a509a505060408c013567ffffffffffffffff81111561b39d57600080fd5b61b3a98e828f0161b0f5565b9850985050606061b3bc8e828f0161b02d565b965050608061b3cd8e828f0161b02d565b95505060a08c013567ffffffffffffffff81111561b3ea57600080fd5b61b3f68e828f0161b0ab565b945094505060c08c013567ffffffffffffffff81111561b41557600080fd5b61b4218e828f0161b0ab565b92509250509295989b509295989b9093969950565b6000806040838503121561b44957600080fd5b600061b4578582860161b02d565b925050602061b4688582860161b13f565b9150509250929050565b60006020828403121561b48457600080fd5b600061b4928482850161b06c565b91505092915050565b60008060006040848603121561b4b057600080fd5b600061b4be8682870161b06c565b935050602084013567ffffffffffffffff81111561b4db57600080fd5b61b4e78682870161b0ab565b92509250509250925092565b60006020828403121561b50557600080fd5b600061b5138482850161b081565b91505092915050565b60006020828403121561b52e57600080fd5b600061b53c8482850161b096565b91505092915050565b6000806000806040858703121561b55b57600080fd5b600085013567ffffffffffffffff81111561b57557600080fd5b61b5818782880161b0ab565b9450945050602085013567ffffffffffffffff81111561b5a057600080fd5b61b5ac8782880161b0ab565b925092505092959194509250565b60008060008060008060008060c0898b03121561b5d657600080fd5b600089013567ffffffffffffffff81111561b5f057600080fd5b61b5fc8b828c0161b0f5565b9850985050602089013567ffffffffffffffff81111561b61b57600080fd5b61b6278b828c0161b0f5565b9650965050604061b63a8b828c0161b13f565b945050606061b64b8b828c0161b13f565b935050608061b65c8b828c0161b02d565b92505060a061b66d8b828c0161b02d565b9150509295985092959890939650565b60006020828403121561b68f57600080fd5b600061b69d8482850161b13f565b91505092915050565b60008060008060006080868803121561b6be57600080fd5b600061b6cc8882890161b13f565b955050602061b6dd8882890161b02d565b945050604061b6ee8882890161b13f565b935050606086013567ffffffffffffffff81111561b70b57600080fd5b61b7178882890161b0ab565b92509250509295509295909350565b61b72f8161cec1565b82525050565b61b74661b7418261cec1565b61cffc565b82525050565b61b7558161ced3565b82525050565b61b7648161ced3565b82525050565b61b7738161cedf565b82525050565b600061b785838561cdd9565b935061b79283858461cf3f565b61b79b8361d0de565b840190509392505050565b600061b7b18261cdc3565b61b7bb818561cdd9565b935061b7cb81856020860161cf4e565b61b7d48161d0de565b840191505092915050565b600061b7eb838561cdea565b935061b7f883858461cf3f565b61b8018361d0de565b840190509392505050565b600061b8178261cdce565b61b821818561cdea565b935061b83181856020860161cf4e565b61b83a8161d0de565b840191505092915050565b600061b8508261cdce565b61b85a818561cdfb565b935061b86a81856020860161cf4e565b80840191505092915050565b600061b88360218361cdea565b91507f45524337323154656d706c6174653a204e4f542053544f52452055504441544560008301527f52000000000000000000000000000000000000000000000000000000000000006020830152604082019050919050565b600061b8e9601c8361cdea565b91507f45524337323154656d706c6174653a204e4f542076334d696e746572000000006000830152602082019050919050565b600061b92960218361cdea565b91507f45524337323154656d706c6174653a204e4f54204d455441444154415f524f4c60008301527f45000000000000000000000000000000000000000000000000000000000000006020830152604082019050919050565b600061b98f60208361cdea565b91507f437265617465323a2062797465636f6465206c656e677468206973207a65726f6000830152602082019050919050565b600061b9cf60328361cdea565b91507f4552433732313a207472616e7366657220746f206e6f6e20455243373231526560008301527f63656976657220696d706c656d656e74657200000000000000000000000000006020830152604082019050919050565b600061ba35601c8361cdea565b91507f4552433732313a20746f6b656e20616c7265616479206d696e746564000000006000830152602082019050919050565b600061ba75601c8361cdea565b91507f45524337323154656d706c6174653a206e6f74204e46544f776e6572000000006000830152602082019050919050565b600061bab560248361cdea565b91507f4552433732313a207472616e7366657220746f20746865207a65726f2061646460008301527f72657373000000000000000000000000000000000000000000000000000000006020830152604082019050919050565b600061bb1b60198361cdea565b91507f4552433732313a20617070726f766520746f2063616c6c6572000000000000006000830152602082019050919050565b600061bb5b60268361cdea565b91507f45524337323154656d706c6174653a204e4f542045524332304445504c4f594560008301527f525f524f4c4500000000000000000000000000000000000000000000000000006020830152604082019050919050565b600061bbc1602e8361cdea565b91507f45524337323154656d706c6174653a3a20496e76616c6964206d696e7465722c60008301527f20207a65726f20616464726573730000000000000000000000000000000000006020830152604082019050919050565b600061bc27602c8361cdea565b91507f4552433732313a206f70657261746f7220717565727920666f72206e6f6e657860008301527f697374656e7420746f6b656e00000000000000000000000000000000000000006020830152604082019050919050565b600061bc8d600e8361cdea565b91507f736c6963655f6f766572666c6f770000000000000000000000000000000000006000830152602082019050919050565b600061bccd60228361cdea565b91507f45524337323154656d706c6174653a204e4f5420455243323020436f6e74726160008301527f63740000000000000000000000000000000000000000000000000000000000006020830152604082019050919050565b600061bd3360388361cdea565b91507f4552433732313a20617070726f76652063616c6c6572206973206e6f74206f7760008301527f6e6572206e6f7220617070726f76656420666f7220616c6c00000000000000006020830152604082019050919050565b600061bd99601d8361cdea565b91507f45524337323154656d706c6174653a204e4f54207633204d494e5445520000006000830152602082019050919050565b600061bdd960288361cdea565b91507f45524337323154656d706c6174653a204641494c454420544f20534554204e4560008301527f57204d494e5445520000000000000000000000000000000000000000000000006020830152604082019050919050565b600061be3f602a8361cdea565b91507f4552433732313a2062616c616e636520717565727920666f7220746865207a6560008301527f726f2061646472657373000000000000000000000000000000000000000000006020830152604082019050919050565b600061bea560298361cdea565b91507f4552433732313a206f776e657220717565727920666f72206e6f6e657869737460008301527f656e7420746f6b656e00000000000000000000000000000000000000000000006020830152604082019050919050565b600061bf0b60198361cdea565b91507f437265617465323a204661696c6564206f6e206465706c6f79000000000000006000830152602082019050919050565b600061bf4b60208361cdea565b91507f4552433732313a206d696e7420746f20746865207a65726f20616464726573736000830152602082019050919050565b600061bf8b602c8361cdea565b91507f45524337323154656d706c6174653a2056332064617461746f6b656e20616c7260008301527f65616479207772617070656400000000000000000000000000000000000000006020830152604082019050919050565b600061bff160258361cdea565b91507f45524337323154656d706c6174653a204e4f54204f524947494e414c2054454d60008301527f504c4154450000000000000000000000000000000000000000000000000000006020830152604082019050919050565b600061c057602c8361cdea565b91507f45524337323154656d706c6174653a204e4f542045524332302056332064617460008301527f61746f6b656e206f776e657200000000000000000000000000000000000000006020830152604082019050919050565b600061c0bd60198361cdea565b91507f436f756c64206e6f74206465706c6f7920636f6e7472616374000000000000006000830152602082019050919050565b600061c0fd602c8361cdea565b91507f4552433732313a20617070726f76656420717565727920666f72206e6f6e657860008301527f697374656e7420746f6b656e00000000000000000000000000000000000000006020830152604082019050919050565b600061c16360158361cdea565b91507f746f427974657333325f6f75744f66426f756e647300000000000000000000006000830152602082019050919050565b600061c1a360298361cdea565b91507f4552433732313a207472616e73666572206f6620746f6b656e2074686174206960008301527f73206e6f74206f776e00000000000000000000000000000000000000000000006020830152604082019050919050565b600061c209602f8361cdea565b91507f4552433732314d657461646174613a2055524920717565727920666f72206e6f60008301527f6e6578697374656e7420746f6b656e00000000000000000000000000000000006020830152604082019050919050565b600061c26f602c8361cdea565b91507f45524337323154656d706c6174653a2043616e6e6f74207472616e736665722060008301527f7468697320746f6b656e496400000000000000000000000000000000000000006020830152604082019050919050565b600061c2d560218361cdea565b91507f4552433732313a20617070726f76616c20746f2063757272656e74206f776e6560008301527f72000000000000000000000000000000000000000000000000000000000000006020830152604082019050919050565b600061c33b60148361cdea565b91507f57726f6e67206f7065726174696f6e20747970650000000000000000000000006000830152602082019050919050565b600061c37b60318361cdea565b91507f4552433732313a207472616e736665722063616c6c6572206973206e6f74206f60008301527f776e6572206e6f7220617070726f7665640000000000000000000000000000006020830152604082019050919050565b600061c3e160118361cdea565b91507f736c6963655f6f75744f66426f756e64730000000000000000000000000000006000830152602082019050919050565b600061c42160308361cdea565b91507f45524337323154656d706c6174653a3a204d657461646174612061646472657360008301527f732063616e6e6f74206265207a65726f000000000000000000000000000000006020830152604082019050919050565b600061c48760328361cdea565b91507f45524337323154656d706c6174653a20746f6b656e20696e7374616e6365206160008301527f6c726561647920696e697469616c697a656400000000000000000000000000006020830152604082019050919050565b600061c4ed601f8361cdea565b91507f455243373231526f6c6573416464726573733a204e4f54204d414e41474552006000830152602082019050919050565b600061c52d60278361cdea565b91507f45524337323154656d706c6174653a20763344617461746f6b656e206e6f742060008301527f57524150504544000000000000000000000000000000000000000000000000006020830152604082019050919050565b600061c593601d8361cdea565b91507f437265617465323a20696e73756666696369656e742062616c616e63650000006000830152602082019050919050565b60a08201600082015161c5dc600085018261b74c565b50602082015161c5ef602085018261b74c565b50604082015161c602604085018261b74c565b50606082015161c615606085018261b74c565b50608082015161c628608085018261b74c565b50505050565b61c6378161cf35565b82525050565b600061c649828461b735565b60148201915081905092915050565b600061c664828561b845565b915061c670828461b845565b91508190509392505050565b600060208201905061c691600083018461b726565b92915050565b600060808201905061c6ac600083018761b726565b61c6b9602083018661b726565b61c6c6604083018561c62e565b818103606083015261c6d8818461b7a6565b905095945050505050565b600060608201905061c6f8600083018861b726565b818103602083015261c70b81868861b779565b9050818103604083015261c72081848661b779565b90509695505050505050565b600060608201905061c741600083018761b726565b818103602083015261c753818661b7a6565b9050818103604083015261c76881848661b779565b905095945050505050565b600060408201905061c788600083018561b726565b61c795602083018461c62e565b9392505050565b600060208201905061c7b1600083018461b75b565b92915050565b600060208201905061c7cc600083018461b76a565b92915050565b6000602082019050818103600083015261c7ed81848661b779565b90509392505050565b6000602082019050818103600083015261c810818461b7a6565b905092915050565b600060c082019050818103600083015261c833818a8c61b7df565b9050818103602083015261c84881888a61b7df565b905061c857604083018761c62e565b61c864606083018661c62e565b61c871608083018561b726565b61c87e60a083018461b726565b9998505050505050505050565b6000602082019050818103600083015261c8a5818461b80c565b905092915050565b6000602082019050818103600083015261c8c68161b876565b9050919050565b6000602082019050818103600083015261c8e68161b8dc565b9050919050565b6000602082019050818103600083015261c9068161b91c565b9050919050565b6000602082019050818103600083015261c9268161b982565b9050919050565b6000602082019050818103600083015261c9468161b9c2565b9050919050565b6000602082019050818103600083015261c9668161ba28565b9050919050565b6000602082019050818103600083015261c9868161ba68565b9050919050565b6000602082019050818103600083015261c9a68161baa8565b9050919050565b6000602082019050818103600083015261c9c68161bb0e565b9050919050565b6000602082019050818103600083015261c9e68161bb4e565b9050919050565b6000602082019050818103600083015261ca068161bbb4565b9050919050565b6000602082019050818103600083015261ca268161bc1a565b9050919050565b6000602082019050818103600083015261ca468161bc80565b9050919050565b6000602082019050818103600083015261ca668161bcc0565b9050919050565b6000602082019050818103600083015261ca868161bd26565b9050919050565b6000602082019050818103600083015261caa68161bd8c565b9050919050565b6000602082019050818103600083015261cac68161bdcc565b9050919050565b6000602082019050818103600083015261cae68161be32565b9050919050565b6000602082019050818103600083015261cb068161be98565b9050919050565b6000602082019050818103600083015261cb268161befe565b9050919050565b6000602082019050818103600083015261cb468161bf3e565b9050919050565b6000602082019050818103600083015261cb668161bf7e565b9050919050565b6000602082019050818103600083015261cb868161bfe4565b9050919050565b6000602082019050818103600083015261cba68161c04a565b9050919050565b6000602082019050818103600083015261cbc68161c0b0565b9050919050565b6000602082019050818103600083015261cbe68161c0f0565b9050919050565b6000602082019050818103600083015261cc068161c156565b9050919050565b6000602082019050818103600083015261cc268161c196565b9050919050565b6000602082019050818103600083015261cc468161c1fc565b9050919050565b6000602082019050818103600083015261cc668161c262565b9050919050565b6000602082019050818103600083015261cc868161c2c8565b9050919050565b6000602082019050818103600083015261cca68161c32e565b9050919050565b6000602082019050818103600083015261ccc68161c36e565b9050919050565b6000602082019050818103600083015261cce68161c3d4565b9050919050565b6000602082019050818103600083015261cd068161c414565b9050919050565b6000602082019050818103600083015261cd268161c47a565b9050919050565b6000602082019050818103600083015261cd468161c4e0565b9050919050565b6000602082019050818103600083015261cd668161c520565b9050919050565b6000602082019050818103600083015261cd868161c586565b9050919050565b600060a08201905061cda2600083018461c5c6565b92915050565b600060208201905061cdbd600083018461c62e565b92915050565b600081519050919050565b600081519050919050565b600082825260208201905092915050565b600082825260208201905092915050565b600081905092915050565b600061ce118261cf35565b915061ce1c8361cf35565b9250827fffffffffffffffffffffffffffffffffffffffffffffffffffffffffffffffff0382111561ce515761ce5061d051565b5b828201905092915050565b600061ce678261cf35565b915061ce728361cf35565b92508261ce825761ce8161d080565b5b828204905092915050565b600061ce988261cf35565b915061cea38361cf35565b92508282101561ceb65761ceb561d051565b5b828203905092915050565b600061cecc8261cf15565b9050919050565b60008115159050919050565b6000819050919050565b60007fffffffff0000000000000000000000000000000000000000000000000000000082169050919050565b600073ffffffffffffffffffffffffffffffffffffffff82169050919050565b6000819050919050565b82818337600083830152505050565b60005b8381101561cf6c57808201518184015260208101905061cf51565b8381111561cf7b576000848401525b50505050565b6000600282049050600182168061cf9957607f821691505b6020821081141561cfad5761cfac61d0af565b5b50919050565b600061cfbe8261cf35565b91507fffffffffffffffffffffffffffffffffffffffffffffffffffffffffffffffff82141561cff15761cff061d051565b5b600182019050919050565b600061d0078261d00e565b9050919050565b600061d0198261d0ef565b9050919050565b600061d02b8261cf35565b915061d0368361cf35565b92508261d0465761d04561d080565b5b828206905092915050565b7f4e487b7100000000000000000000000000000000000000000000000000000000600052601160045260246000fd5b7f4e487b7100000000000000000000000000000000000000000000000000000000600052601260045260246000fd5b7f4e487b7100000000000000000000000000000000000000000000000000000000600052602260045260246000fd5b6000601f19601f8301169050919050565b60008160601b9050919050565b61d1058161cec1565b811461d11057600080fd5b50565b61d11c8161ced3565b811461d12757600080fd5b50565b61d1338161cedf565b811461d13e57600080fd5b50565b61d14a8161cee9565b811461d15557600080fd5b50565b61d1618161cf35565b811461d16c57600080fd5b5056fea2646970667358221220d834b07d4b257d3573bf9065d4339b87423589e75586a563aca36e23ef4e6dda64736f6c63430008000033",
  "linkReferences": {},
  "deployedLinkReferences": {}
}