{
  "_format": "hh-sol-artifact-1",
  "contractName": "ERC721Template",
  "sourceName": "contracts/templates/ERC721Template.sol",
  "abi": [
    {
      "anonymous": false,
      "inputs": [
        {
          "indexed": true,
          "internalType": "address",
          "name": "owner",
          "type": "address"
        },
        {
          "indexed": true,
          "internalType": "address",
          "name": "approved",
          "type": "address"
        },
        {
          "indexed": true,
          "internalType": "uint256",
          "name": "tokenId",
          "type": "uint256"
        }
      ],
      "name": "Approval",
      "type": "event"
    },
    {
      "anonymous": false,
      "inputs": [
        {
          "indexed": true,
          "internalType": "address",
          "name": "owner",
          "type": "address"
        },
        {
          "indexed": true,
          "internalType": "address",
          "name": "operator",
          "type": "address"
        },
        {
          "indexed": false,
          "internalType": "bool",
          "name": "approved",
          "type": "bool"
        }
      ],
      "name": "ApprovalForAll",
      "type": "event"
    },
    {
      "anonymous": false,
      "inputs": [
        {
          "indexed": true,
          "internalType": "address",
          "name": "contractAddress",
          "type": "address"
        }
      ],
      "name": "ContractCreated",
      "type": "event"
    },
    {
      "anonymous": false,
      "inputs": [
        {
          "indexed": true,
          "internalType": "bytes32",
          "name": "key",
          "type": "bytes32"
        },
        {
          "indexed": false,
          "internalType": "bytes",
          "name": "value",
          "type": "bytes"
        }
      ],
      "name": "DataChanged",
      "type": "event"
    },
    {
      "anonymous": false,
      "inputs": [
        {
          "indexed": true,
          "internalType": "address",
          "name": "erc20Address",
          "type": "address"
        }
      ],
      "name": "ERC20Created",
      "type": "event"
    },
    {
      "anonymous": false,
      "inputs": [
        {
          "indexed": true,
          "internalType": "uint256",
          "name": "_operation",
          "type": "uint256"
        },
        {
          "indexed": true,
          "internalType": "address",
          "name": "_to",
          "type": "address"
        },
        {
          "indexed": true,
          "internalType": "uint256",
          "name": "_value",
          "type": "uint256"
        },
        {
          "indexed": false,
          "internalType": "bytes",
          "name": "_data",
          "type": "bytes"
        }
      ],
      "name": "Executed",
      "type": "event"
    },
    {
      "anonymous": false,
      "inputs": [
        {
          "indexed": true,
          "internalType": "address",
          "name": "from",
          "type": "address"
        },
        {
          "indexed": true,
          "internalType": "address",
          "name": "to",
          "type": "address"
        },
        {
          "indexed": true,
          "internalType": "uint256",
          "name": "tokenId",
          "type": "uint256"
        }
      ],
      "name": "Transfer",
      "type": "event"
    },
    {
      "inputs": [],
      "name": "METADATA_KEY",
      "outputs": [
        {
          "internalType": "bytes32",
          "name": "",
          "type": "bytes32"
        }
      ],
      "stateMutability": "view",
      "type": "function"
    },
    {
      "inputs": [
        {
          "internalType": "address",
          "name": "account",
          "type": "address"
        }
      ],
      "name": "_getPermissions",
      "outputs": [
        {
          "components": [
            {
              "internalType": "bool",
              "name": "manager",
              "type": "bool"
            },
            {
              "internalType": "bool",
              "name": "deployERC20",
              "type": "bool"
            },
            {
              "internalType": "bool",
              "name": "updateMetadata",
              "type": "bool"
            },
            {
              "internalType": "bool",
              "name": "store",
              "type": "bool"
            },
            {
              "internalType": "bool",
              "name": "v3Minter",
              "type": "bool"
            }
          ],
          "internalType": "struct ERC721RolesAddress.Roles",
          "name": "",
          "type": "tuple"
        }
      ],
      "stateMutability": "view",
      "type": "function"
    },
    {
      "inputs": [],
      "name": "_metadata",
      "outputs": [
        {
          "internalType": "address",
          "name": "",
          "type": "address"
        }
      ],
      "stateMutability": "view",
      "type": "function"
    },
    {
      "inputs": [
        {
          "internalType": "address",
          "name": "_managerAddress",
          "type": "address"
        }
      ],
      "name": "addManager",
      "outputs": [],
      "stateMutability": "nonpayable",
      "type": "function"
    },
    {
      "inputs": [
        {
          "internalType": "address",
          "name": "_allowedAddress",
          "type": "address"
        }
      ],
      "name": "addTo725StoreList",
      "outputs": [],
      "stateMutability": "nonpayable",
      "type": "function"
    },
    {
      "inputs": [
        {
          "internalType": "address",
          "name": "_allowedAddress",
          "type": "address"
        }
      ],
      "name": "addToCreateERC20List",
      "outputs": [],
      "stateMutability": "nonpayable",
      "type": "function"
    },
    {
      "inputs": [
        {
          "internalType": "address",
          "name": "_allowedAddress",
          "type": "address"
        }
      ],
      "name": "addToMetadataList",
      "outputs": [],
      "stateMutability": "nonpayable",
      "type": "function"
    },
    {
      "inputs": [
        {
          "internalType": "address",
          "name": "newMinter",
          "type": "address"
        }
      ],
      "name": "addV3Minter",
      "outputs": [],
      "stateMutability": "nonpayable",
      "type": "function"
    },
    {
      "inputs": [
        {
          "internalType": "address",
          "name": "to",
          "type": "address"
        },
        {
          "internalType": "uint256",
          "name": "tokenId",
          "type": "uint256"
        }
      ],
      "name": "approve",
      "outputs": [],
      "stateMutability": "nonpayable",
      "type": "function"
    },
    {
      "inputs": [
        {
          "internalType": "uint256",
          "name": "",
          "type": "uint256"
        }
      ],
      "name": "auth",
      "outputs": [
        {
          "internalType": "address",
          "name": "",
          "type": "address"
        }
      ],
      "stateMutability": "view",
      "type": "function"
    },
    {
      "inputs": [
        {
          "internalType": "address",
          "name": "owner",
          "type": "address"
        }
      ],
      "name": "balanceOf",
      "outputs": [
        {
          "internalType": "uint256",
          "name": "",
          "type": "uint256"
        }
      ],
      "stateMutability": "view",
      "type": "function"
    },
    {
      "inputs": [],
      "name": "cleanPermissions",
      "outputs": [],
      "stateMutability": "nonpayable",
      "type": "function"
    },
    {
      "inputs": [
        {
          "internalType": "string",
          "name": "name_",
          "type": "string"
        },
        {
          "internalType": "string",
          "name": "symbol_",
          "type": "string"
        },
        {
          "internalType": "uint256",
          "name": "cap",
          "type": "uint256"
        },
        {
          "internalType": "uint256",
          "name": "templateIndex",
          "type": "uint256"
        },
        {
          "internalType": "address",
          "name": "minter",
          "type": "address"
        }
      ],
      "name": "createERC20",
      "outputs": [
        {
          "internalType": "address",
          "name": "",
          "type": "address"
        }
      ],
      "stateMutability": "nonpayable",
      "type": "function"
    },
    {
      "inputs": [
        {
          "internalType": "uint256",
          "name": "_operation",
          "type": "uint256"
        },
        {
          "internalType": "address",
          "name": "_to",
          "type": "address"
        },
        {
          "internalType": "uint256",
          "name": "_value",
          "type": "uint256"
        },
        {
          "internalType": "bytes",
          "name": "_data",
          "type": "bytes"
        }
      ],
      "name": "executeCall",
      "outputs": [],
      "stateMutability": "payable",
      "type": "function"
    },
    {
      "inputs": [
        {
          "internalType": "uint256",
          "name": "tokenId",
          "type": "uint256"
        }
      ],
      "name": "getApproved",
      "outputs": [
        {
          "internalType": "address",
          "name": "",
          "type": "address"
        }
      ],
      "stateMutability": "view",
      "type": "function"
    },
    {
      "inputs": [
        {
          "internalType": "bytes32",
          "name": "_key",
          "type": "bytes32"
        }
      ],
      "name": "getData",
      "outputs": [
        {
          "internalType": "bytes",
          "name": "_value",
          "type": "bytes"
        }
      ],
      "stateMutability": "view",
      "type": "function"
    },
    {
      "inputs": [
        {
          "internalType": "address",
          "name": "owner",
          "type": "address"
        },
        {
          "internalType": "string",
          "name": "name_",
          "type": "string"
        },
        {
          "internalType": "string",
          "name": "symbol_",
          "type": "string"
        },
        {
          "internalType": "address",
          "name": "metadata",
          "type": "address"
        },
        {
          "internalType": "address",
          "name": "erc20Factory",
          "type": "address"
        },
        {
          "internalType": "bytes",
          "name": "_data",
          "type": "bytes"
        },
        {
          "internalType": "bytes",
          "name": "_flags",
          "type": "bytes"
        }
      ],
      "name": "initialize",
      "outputs": [
        {
          "internalType": "bool",
          "name": "",
          "type": "bool"
        }
      ],
      "stateMutability": "nonpayable",
      "type": "function"
    },
    {
      "inputs": [
        {
          "internalType": "address",
          "name": "owner",
          "type": "address"
        },
        {
          "internalType": "address",
          "name": "operator",
          "type": "address"
        }
      ],
      "name": "isApprovedForAll",
      "outputs": [
        {
          "internalType": "bool",
          "name": "",
          "type": "bool"
        }
      ],
      "stateMutability": "view",
      "type": "function"
    },
    {
      "inputs": [],
      "name": "isInitialized",
      "outputs": [
        {
          "internalType": "bool",
          "name": "",
          "type": "bool"
        }
      ],
      "stateMutability": "view",
      "type": "function"
    },
    {
      "inputs": [
        {
          "internalType": "address",
          "name": "datatoken",
          "type": "address"
        },
        {
          "internalType": "address",
          "name": "to",
          "type": "address"
        },
        {
          "internalType": "uint256",
          "name": "value",
          "type": "uint256"
        }
      ],
      "name": "mintV3DT",
      "outputs": [],
      "stateMutability": "nonpayable",
      "type": "function"
    },
    {
      "inputs": [],
      "name": "name",
      "outputs": [
        {
          "internalType": "string",
          "name": "",
          "type": "string"
        }
      ],
      "stateMutability": "view",
      "type": "function"
    },
    {
      "inputs": [
        {
          "internalType": "uint256",
          "name": "tokenId",
          "type": "uint256"
        }
      ],
      "name": "ownerOf",
      "outputs": [
        {
          "internalType": "address",
          "name": "",
          "type": "address"
        }
      ],
      "stateMutability": "view",
      "type": "function"
    },
    {
      "inputs": [
        {
          "internalType": "address",
          "name": "_allowedAddress",
          "type": "address"
        }
      ],
      "name": "removeFrom725StoreList",
      "outputs": [],
      "stateMutability": "nonpayable",
      "type": "function"
    },
    {
      "inputs": [
        {
          "internalType": "address",
          "name": "_allowedAddress",
          "type": "address"
        }
      ],
      "name": "removeFromCreateERC20List",
      "outputs": [],
      "stateMutability": "nonpayable",
      "type": "function"
    },
    {
      "inputs": [
        {
          "internalType": "address",
          "name": "_allowedAddress",
          "type": "address"
        }
      ],
      "name": "removeFromMetadataList",
      "outputs": [],
      "stateMutability": "nonpayable",
      "type": "function"
    },
    {
      "inputs": [
        {
          "internalType": "address",
          "name": "_managerAddress",
          "type": "address"
        }
      ],
      "name": "removeManager",
      "outputs": [],
      "stateMutability": "nonpayable",
      "type": "function"
    },
    {
      "inputs": [
        {
          "internalType": "address",
          "name": "minter",
          "type": "address"
        }
      ],
      "name": "removeV3Minter",
      "outputs": [],
      "stateMutability": "nonpayable",
      "type": "function"
    },
    {
      "inputs": [
        {
          "internalType": "address",
          "name": "operator",
          "type": "address"
        },
        {
          "internalType": "bool",
          "name": "approved",
          "type": "bool"
        }
      ],
      "name": "setApprovalForAll",
      "outputs": [],
      "stateMutability": "nonpayable",
      "type": "function"
    },
    {
      "inputs": [
        {
          "internalType": "bytes32",
          "name": "_key",
          "type": "bytes32"
        },
        {
          "internalType": "bytes",
          "name": "_value",
          "type": "bytes"
        }
      ],
      "name": "setDataERC20",
      "outputs": [],
      "stateMutability": "nonpayable",
      "type": "function"
    },
    {
      "inputs": [
        {
          "internalType": "address",
          "name": "datatoken",
          "type": "address"
        },
        {
          "internalType": "bytes",
          "name": "_value",
          "type": "bytes"
        },
        {
          "internalType": "bytes",
          "name": "flags",
          "type": "bytes"
        },
        {
          "internalType": "bytes",
          "name": "data",
          "type": "bytes"
        }
      ],
      "name": "setDataV3",
      "outputs": [],
      "stateMutability": "nonpayable",
      "type": "function"
    },
    {
      "inputs": [
        {
          "internalType": "bytes32",
          "name": "_key",
          "type": "bytes32"
        },
        {
          "internalType": "bytes",
          "name": "_value",
          "type": "bytes"
        }
      ],
      "name": "setNewData",
      "outputs": [],
      "stateMutability": "nonpayable",
      "type": "function"
    },
    {
      "inputs": [
        {
          "internalType": "bytes4",
          "name": "interfaceId",
          "type": "bytes4"
        }
      ],
      "name": "supportsInterface",
      "outputs": [
        {
          "internalType": "bool",
          "name": "",
          "type": "bool"
        }
      ],
      "stateMutability": "view",
      "type": "function"
    },
    {
      "inputs": [],
      "name": "symbol",
      "outputs": [
        {
          "internalType": "string",
          "name": "",
          "type": "string"
        }
      ],
      "stateMutability": "view",
      "type": "function"
    },
    {
      "inputs": [
        {
          "internalType": "uint256",
          "name": "tokenId",
          "type": "uint256"
        }
      ],
      "name": "tokenURI",
      "outputs": [
        {
          "internalType": "string",
          "name": "",
          "type": "string"
        }
      ],
      "stateMutability": "view",
      "type": "function"
    },
    {
      "inputs": [
        {
          "internalType": "address",
          "name": "from",
          "type": "address"
        },
        {
          "internalType": "address",
          "name": "to",
          "type": "address"
        },
        {
          "internalType": "uint256",
          "name": "tokenId",
          "type": "uint256"
        }
      ],
      "name": "transferFrom",
      "outputs": [],
      "stateMutability": "nonpayable",
      "type": "function"
    },
    {
      "inputs": [
        {
          "internalType": "bytes",
          "name": "flags",
          "type": "bytes"
        },
        {
          "internalType": "bytes",
          "name": "data",
          "type": "bytes"
        }
      ],
      "name": "updateMetadata",
      "outputs": [],
      "stateMutability": "nonpayable",
      "type": "function"
    },
    {
      "inputs": [
        {
          "internalType": "address",
          "name": "",
          "type": "address"
        }
      ],
      "name": "v3DT",
      "outputs": [
        {
          "internalType": "bool",
          "name": "",
          "type": "bool"
        }
      ],
      "stateMutability": "view",
      "type": "function"
    },
    {
      "inputs": [
        {
          "internalType": "address",
          "name": "datatoken",
          "type": "address"
        },
        {
          "internalType": "address",
          "name": "newMinter",
          "type": "address"
        }
      ],
      "name": "wrapV3DT",
      "outputs": [],
      "stateMutability": "nonpayable",
      "type": "function"
    }
  ],
  "bytecode": "0x60806040523480156200001157600080fd5b50604080518082018252600881526754656d706c61746560c01b60208083019182528351808501909452600e84526d15195b5c1b185d1954de5b589bdb60921b908401528151919291620000689160009162000108565b5080516200007e90600190602084019062000108565b50620000959150632260147f60e11b9050620000ad565b620000a7632bd57b7360e01b620000ad565b62000222565b6001600160e01b03198082161415620000e35760405162461bcd60e51b8152600401620000da90620001ae565b60405180910390fd5b6001600160e01b0319166000908152600860205260409020805460ff19166001179055565b8280546200011690620001e5565b90600052602060002090601f0160209004810192826200013a576000855562000185565b82601f106200015557805160ff191683800117855562000185565b8280016001018555821562000185579182015b828111156200018557825182559160200191906001019062000168565b506200019392915062000197565b5090565b5b8082111562000193576000815560010162000198565b6020808252601c908201527f4552433136353a20696e76616c696420696e7465726661636520696400000000604082015260600190565b600281046001821680620001fa57607f821691505b602082108114156200021c57634e487b7160e01b600052602260045260246000fd5b50919050565b61383780620002326000396000f3fe6080604052600436106102255760003560e01c806354f6127f116101235780639e753293116100ab578063c87b56dd1161006f578063c87b56dd14610652578063cf76312014610672578063ddd0af5b14610692578063e985e9c5146106a7578063fe1ec880146106c757610225565b80639e753293146105bf578063a22cb465146105df578063ac18de43146105ff578063b0c41ead1461061f578063c55f81261461063f57610225565b80637db0f56d116100f25780637db0f56d1461051d578063819172d91461053d57806393db11d01461055d57806395d89b411461057d5780639e2681191461059257610225565b806354f6127f146104905780636352211e146104b057806367530a61146104d057806370a08231146104f057610225565b8063273e06b3116101b157806339371b251161017557806339371b251461040657806342c914c81461041b578063431053ac1461043b5780634a63740a1461045b5780634f189cb21461047b57610225565b8063273e06b3146103715780632748a9f9146103915780632b940806146103b15780632d06177a146103d1578063392e53cd146103f157610225565b80630e57c7e8116101f85780630e57c7e8146102d157806310c558bf146102f157806319c186e5146103115780631b1de75c1461033157806323b872dd1461035157610225565b806301ffc9a71461022a57806306fdde0314610260578063081812fc14610282578063095ea7b3146102af575b600080fd5b34801561023657600080fd5b5061024a610245366004612992565b6106e7565b6040516102579190612c7f565b60405180910390f35b34801561026c57600080fd5b5061027561071e565b6040516102579190612ca7565b34801561028e57600080fd5b506102a261029d366004612930565b6107b0565b6040516102579190612bd1565b3480156102bb57600080fd5b506102cf6102ca366004612905565b6107fc565b005b3480156102dd57600080fd5b506102cf6102ec366004612948565b610894565b3480156102fd57600080fd5b506102cf61030c366004612683565b6108d3565b34801561031d57600080fd5b506102cf61032c366004612683565b610931565b34801561033d57600080fd5b5061024a61034c366004612683565b610991565b34801561035d57600080fd5b506102cf61036c3660046126f3565b6109a6565b34801561037d57600080fd5b506102cf61038c366004612683565b610a4d565b34801561039d57600080fd5b506102cf6103ac3660046126f3565b610a7a565b3480156103bd57600080fd5b506102cf6103cc366004612764565b610b72565b3480156103dd57600080fd5b506102cf6103ec366004612683565b610c5f565b3480156103fd57600080fd5b5061024a610c74565b34801561041257600080fd5b506102a2610c7d565b34801561042757600080fd5b506102cf6104363660046129ca565b610c91565b34801561044757600080fd5b506102cf610456366004612683565b610d66565b34801561046757600080fd5b506102cf610476366004612683565b610d92565b34801561048757600080fd5b506102cf610dee565b34801561049c57600080fd5b506102756104ab366004612930565b610e01565b3480156104bc57600080fd5b506102a26104cb366004612930565b610ea3565b3480156104dc57600080fd5b506102cf6104eb366004612948565b610ed8565b3480156104fc57600080fd5b5061051061050b366004612683565b610f1e565b6040516102579190612c8a565b34801561052957600080fd5b5061024a61053836600461280d565b610f62565b34801561054957600080fd5b506102cf610558366004612683565b611059565b34801561056957600080fd5b506102a2610578366004612a33565b61106b565b34801561058957600080fd5b506102756111cb565b34801561059e57600080fd5b506105b26105ad366004612683565b6111da565b604051610257919061366d565b3480156105cb57600080fd5b506102cf6105da366004612683565b611256565b3480156105eb57600080fd5b506102cf6105fa366004612733565b611268565b34801561060b57600080fd5b506102cf61061a366004612683565b611336565b34801561062b57600080fd5b506102a261063a366004612930565b611348565b6102cf61064d366004612ac7565b611372565b34801561065e57600080fd5b5061027561066d366004612930565b611388565b34801561067e57600080fd5b506102cf61068d3660046126bb565b61140b565b34801561069e57600080fd5b5061051061142a565b3480156106b357600080fd5b5061024a6106c23660046126bb565b61144e565b3480156106d357600080fd5b506102cf6106e2366004612683565b61147c565b60006106f2826114a7565b8061071657506001600160e01b0319821660009081526008602052604090205460ff165b90505b919050565b6060600b805461072d90613720565b80601f016020809104026020016040519081016040528092919081815260200182805461075990613720565b80156107a65780601f1061077b576101008083540402835291602001916107a6565b820191906000526020600020905b81548152906001019060200180831161078957829003601f168201915b5050505050905090565b60006107bb826114c0565b6107e05760405162461bcd60e51b81526004016107d7906132cc565b60405180910390fd5b506000908152600460205260409020546001600160a01b031690565b600061080782610ea3565b9050806001600160a01b0316836001600160a01b0316141561083b5760405162461bcd60e51b81526004016107d79061342b565b806001600160a01b031661084d6114dd565b6001600160a01b031614806108695750610869816106c26114dd565b6108855760405162461bcd60e51b81526004016107d79061306e565b61088f83836114e1565b505050565b3360009081526010602052604090205460ff1615156001146108c85760405162461bcd60e51b81526004016107d790612ff5565b61088f83838361154f565b6108dc336115a8565b6001600160a01b03166000818152600660205260408120805462ff00001916620100001790556007805460018101825591526000805160206137e28339815191520180546001600160a01b0319169091179055565b61093a336115a8565b6001600160a01b03166000818152600660205260408120805463ff000000191663010000001790556007805460018101825591526000805160206137e28339815191520180546001600160a01b0319169091179055565b600a6020526000908152604090205460ff1681565b806001146109c65760405162461bcd60e51b81526004016107d7906133df565b610a31610a2c600f805480602002602001604051908101604052809291908181526020018280548015610a2257602002820191906000526020600020905b81546001600160a01b03168152600190910190602001808311610a04575b50505050506115d9565b6115dd565b610a3961167c565b610a44838383611700565b61088f82611748565b610a56336115a8565b6001600160a01b03166000908152600660205260409020805463ff00000019169055565b33600090815260066020908152604091829020825160a081018452905460ff808216151583526101008204811615159383019390935262010000810483161515938201939093526301000000830482161515606082015264010000000090920416151560808201819052600114610b035760405162461bcd60e51b81526004016107d7906130cb565b610b0c8461179c565b6040516340c10f1960e01b81526001600160a01b038516906340c10f1990610b3a9086908690600401612c66565b600060405180830381600087803b158015610b5457600080fd5b505af1158015610b68573d6000803e3d6000fd5b5050505050505050565b6000610b7d336111da565b9050806080015115156001151514610ba75760405162461bcd60e51b81526004016107d790612d4b565b610bb08861179c565b600088604051602001610bc39190612b85565b604051602081830303815290604052805190602001209050610be681898961154f565b600d54604051637c4d8f9b60e11b81526101009091046001600160a01b03169063f89b1f3690610c22908c908a908a908a908a90600401612c22565b600060405180830381600087803b158015610c3c57600080fd5b505af1158015610c50573d6000803e3d6000fd5b50505050505050505050505050565b610c68336117d9565b610c7181611748565b50565b600d5460ff1690565b600d5461010090046001600160a01b031681565b6000610c9c336111da565b9050806040015115156001151514610cc65760405162461bcd60e51b81526004016107d790612d82565b600d54604051637c4d8f9b60e11b81526101009091046001600160a01b03169063f89b1f3690610d029030908990899089908990600401612c22565b600060405180830381600087803b158015610d1c57600080fd5b505af1158015610d30573d6000803e3d6000fd5b50505050610d5f7fa063f3cd8b0dcd6546ffc1c06fc86515c40fe331e91488c5e18c88c7efc881e8848461154f565b5050505050565b610d6f336115a8565b6001600160a01b03166000908152600660205260409020805462ff000019169055565b610d9b336115a8565b6001600160a01b03166000818152600660205260408120805461ff0019166101001790556007805460018101825591526000805160206137e28339815191520180546001600160a01b0319169091179055565b610df7336117d9565b610dff61167c565b565b6000818152600960205260409020805460609190610e1e90613720565b80601f0160208091040260200160405190810160405280929190818152602001828054610e4a90613720565b8015610e975780601f10610e6c57610100808354040283529160200191610e97565b820191906000526020600020905b815481529060010190602001808311610e7a57829003601f168201915b50505050509050919050565b6000818152600260205260408120546001600160a01b0316806107165760405162461bcd60e51b81526004016107d790613194565b6000610ee3336111da565b9050806060015115156001151514610f0d5760405162461bcd60e51b81526004016107d790612d0a565b610f1884848461154f565b50505050565b60006001600160a01b038216610f465760405162461bcd60e51b81526004016107d79061314a565b506001600160a01b031660009081526003602052604090205490565b600d5460009060ff1615610f885760405162461bcd60e51b81526004016107d790613566565b6110498c8c8c8080601f016020809104026020016040519081016040528093929190818152602001838380828437600081840152601f19601f820116905080830192505050505050508b8b8080601f01602080910402602001604051908101604052809392919081815260200183838082843760009201919091525050604080516020601f8b018190048102820181019092528981528e93508d92508c918c91908c908c908190840183828082843760009201919091525061181392505050565b9c9b505050505050505050505050565b611062336115a8565b610c71816118fb565b600080611077336111da565b90508060200151151560011515146110a15760405162461bcd60e51b81526004016107d790613037565b600e5460405163350d4d6560e01b81526000916001600160a01b03169063350d4d65906110de908d908d908d908d908d908d908d90600401612cba565b602060405180830381600087803b1580156110f857600080fd5b505af115801561110c573d6000803e3d6000fd5b505050506040513d601f19601f82011682018060405250810190611130919061269f565b6001600160a01b038116600081815260106020526040808220805460ff19166001908117909155600f8054918201815583527f8d1108e10bcb7c27dddfc02ed9d693a074039d026cf4ea4240b40f7d581ac8020180546001600160a01b031916841790555192935090917f41039c8b82bb5a365f56b4f9d87cee99e069b450bfdc3d87696fcd87783f24c19190a29998505050505050505050565b6060600c805461072d90613720565b6111e26124d8565b506001600160a01b0316600090815260066020908152604091829020825160a081018452905460ff8082161515835261010082048116151593830193909352620100008104831615159382019390935263010000008304821615156060820152640100000000909204161515608082015290565b61125f336115a8565b610c7181611954565b6112706114dd565b6001600160a01b0316826001600160a01b031614156112a15760405162461bcd60e51b81526004016107d790612efc565b80600560006112ae6114dd565b6001600160a01b03908116825260208083019390935260409182016000908120918716808252919093529120805460ff1916921515929092179091556112f26114dd565b6001600160a01b03167f17307eab39ab6107e8899845ad3d59bd9653f200f220920489ca2b5937696c318360405161132a9190612c7f565b60405180910390a35050565b61133f336117d9565b610c7181611979565b6007818154811061135857600080fd5b6000918252602090912001546001600160a01b0316905081565b61137b336115a8565b610d5f858585858561199a565b6060611393826114c0565b6113af5760405162461bcd60e51b81526004016107d790613390565b60006113b9611b9c565b905060008151116113d95760405180602001604052806000815250611404565b806113e384611bae565b6040516020016113f4929190612ba2565b6040516020818303038152906040525b9392505050565b611414336117d9565b61141d82611cd1565b611426816118fb565b5050565b7fa063f3cd8b0dcd6546ffc1c06fc86515c40fe331e91488c5e18c88c7efc881e881565b6001600160a01b03918216600090815260056020908152604080832093909416825291909152205460ff1690565b611485336115a8565b6001600160a01b03166000908152600660205260409020805461ff0019169055565b6001600160e01b031981166301ffc9a760e01b14919050565b6000908152600260205260409020546001600160a01b0316151590565b3390565b600081815260046020526040902080546001600160a01b0319166001600160a01b038416908117909155819061151682610ea3565b6001600160a01b03167f8c5be1e5ebec7d5bd14f71427d1e84f3dd0314c0f7b2291e5b200ac8c7c3b92560405160405180910390a45050565b6000838152600960205260409020611568908383612506565b50827fece574603820d07bc9b91f2a932baadf4628aabcb8afba49776529c14a6104b2838360405161159b929190612c93565b60405180910390a2505050565b60006115b3826111da565b805190915015156001146114265760405162461bcd60e51b81526004016107d7906135b8565b5190565b60005b8181101561142657600f818154811061160957634e487b7160e01b600052603260045260246000fd5b6000918252602082200154604080516382c03da560e01b815290516001600160a01b03909216926382c03da59260048084019382900301818387803b15801561165157600080fd5b505af1158015611665573d6000803e3d6000fd5b5050505080806116749061375b565b9150506115e0565b60005b6007548110156116f357600060066000600784815481106116b057634e487b7160e01b600052603260045260246000fd5b60009182526020808320909101546001600160a01b031683528201929092526040019020805464ffffffffff1916905550806116eb8161375b565b91505061167f565b50610dff6007600061258a565b61171161170b6114dd565b82611e81565b61172d5760405162461bcd60e51b81526004016107d79061349a565b61088f83838360405180602001604052806000815250611efe565b6001600160a01b03166000818152600660205260408120805460ff191660019081179091556007805491820181559091526000805160206137e28339815191520180546001600160a01b0319169091179055565b6001600160a01b0381166000908152600a602052604090205460ff161515600114610c715760405162461bcd60e51b81526004016107d7906135ef565b6117e36001610ea3565b6001600160a01b0316816001600160a01b031614610c715760405162461bcd60e51b81526004016107d790612e81565b60006001600160a01b03891661183b5760405162461bcd60e51b81526004016107d790612f33565b6001600160a01b0386166118615760405162461bcd60e51b81526004016107d790613516565b600d8054610100600160a81b0319166101006001600160a01b03891602179055875161189490600b9060208b01906125a8565b5086516118a890600c9060208a01906125a8565b50600e80546001600160a01b0319166001600160a01b038716179055600d805460ff191660019081179091556118df908a90611f37565b6118e889611748565b50600d5460ff1698975050505050505050565b6001600160a01b03166000818152600660205260408120805464ff0000000019166401000000001790556007805460018101825591526000805160206137e28339815191520180546001600160a01b0319169091179055565b6001600160a01b03166000908152600660205260409020805464ff0000000019169055565b6001600160a01b03166000908152600660205260409020805460ff19169055565b82846001600160a01b0316867f1f920dbda597d7bf95035464170fa58d0a4b57f13a1c315ace6793b9f63688b885856040516119d7929190612c93565b60405180910390a460006109c45a6119ef91906136dd565b905085611a3f57611a39858585858080601f016020809104026020016040519081016040528093929190818152602001838380828437600092019190915250879250611f51915050565b50611b94565b6003861415611a8857611a398484848080601f016020809104026020016040519081016040528093929190818152602001838380828437600092019190915250611f6992505050565b6002861415611b7c576000611adf84848080601f016020809104026020016040519081016040528093929190818152602001838380828437600092019190915250611ada9250602091508790506136dd565b611fd5565b90506000611b2e85858080601f01602080910402602001604051908101604052809392919081815260200183838082843760009201829052509250611b29915060209050886136dd565b61200b565b90506000611b3d8784846120d3565b6040519091506001600160a01b038216907fcf78cf0d6f3d8371e1075c69c492ab4ec5d8cf23a1a239b6a51a1d00be7ca31290600090a2505050611b94565b60405162461bcd60e51b81526004016107d79061346c565b505050505050565b60408051602081019091526000815290565b606081611bd357506040805180820190915260018152600360fc1b6020820152610719565b8160005b8115611bfd5780611be78161375b565b9150611bf69050600a836136c9565b9150611bd7565b60008167ffffffffffffffff811115611c2657634e487b7160e01b600052604160045260246000fd5b6040519080825280601f01601f191660200182016040528015611c50576020820181803683370190505b5090505b8415611cc957611c656001836136dd565b9150611c72600a86613776565b611c7d9060306136b1565b60f81b818381518110611ca057634e487b7160e01b600052603260045260246000fd5b60200101906001600160f81b031916908160001a905350611cc2600a866136c9565b9450611c54565b949350505050565b336001600160a01b0316816001600160a01b031663075461726040518163ffffffff1660e01b815260040160206040518083038186803b158015611d1457600080fd5b505afa158015611d28573d6000803e3d6000fd5b505050506040513d601f19601f82011682018060405250810190611d4c919061269f565b6001600160a01b031614611d725760405162461bcd60e51b81526004016107d790613249565b6001600160a01b0381166000818152600a6020526040808220805460ff19166001179055805163eb40024b60e01b8152905163eb40024b9260048084019391929182900301818387803b158015611dc857600080fd5b505af1158015611ddc573d6000803e3d6000fd5b50505050306001600160a01b0316816001600160a01b031663075461726040518163ffffffff1660e01b815260040160206040518083038186803b158015611e2357600080fd5b505afa158015611e37573d6000803e3d6000fd5b505050506040513d601f19601f82011682018060405250810190611e5b919061269f565b6001600160a01b031614610c715760405162461bcd60e51b81526004016107d790613102565b6000611e8c826114c0565b611ea85760405162461bcd60e51b81526004016107d790612f81565b6000611eb383610ea3565b9050806001600160a01b0316846001600160a01b03161480611eee5750836001600160a01b0316611ee3846107b0565b6001600160a01b0316145b80611cc95750611cc9818561144e565b611f0f611f096114dd565b83611e81565b611f2b5760405162461bcd60e51b81526004016107d79061349a565b610f1884848484612145565b611426828260405180602001604052806000815250612178565b6000806000845160208601878987f195945050505050565b600081516020830184f090506001600160a01b038116611f9b5760405162461bcd60e51b81526004016107d790613295565b6040516001600160a01b038216907fcf78cf0d6f3d8371e1075c69c492ab4ec5d8cf23a1a239b6a51a1d00be7ca31290600090a292915050565b6000611fe28260206136b1565b835110156120025760405162461bcd60e51b81526004016107d790613318565b50016020015190565b60608161201981601f6136b1565b10156120375760405162461bcd60e51b81526004016107d790612fcd565b61204182846136b1565b845110156120615760405162461bcd60e51b81526004016107d7906134eb565b60608215801561208057604051915060008252602082016040526120ca565b6040519150601f8416801560200281840101858101878315602002848b0101015b818310156120b95780518352602092830192016120a1565b5050858452601f01601f1916604052505b50949350505050565b600080844710156120f65760405162461bcd60e51b81526004016107d790613636565b82516121145760405162461bcd60e51b81526004016107d790612dc3565b8383516020850187f590506001600160a01b038116611cc95760405162461bcd60e51b81526004016107d7906131dd565b6121508484846121ab565b61215c848484846122d8565b610f185760405162461bcd60e51b81526004016107d790612df8565b61218283836123f3565b61218f60008484846122d8565b61088f5760405162461bcd60e51b81526004016107d790612df8565b826001600160a01b03166121be82610ea3565b6001600160a01b0316146121e45760405162461bcd60e51b81526004016107d790613347565b6001600160a01b03821661220a5760405162461bcd60e51b81526004016107d790612eb8565b61221583838361088f565b6122206000826114e1565b6001600160a01b03831660009081526003602052604081208054600192906122499084906136dd565b90915550506001600160a01b03821660009081526003602052604081208054600192906122779084906136b1565b909155505060008181526002602052604080822080546001600160a01b0319166001600160a01b0386811691821790925591518493918716917fddf252ad1be2c89b69c2b068fc378daa952ba7f163c4a11628f55a4df523b3ef91a4505050565b60006122ec846001600160a01b03166124d2565b156123e857836001600160a01b031663150b7a026123086114dd565b8786866040518563ffffffff1660e01b815260040161232a9493929190612be5565b602060405180830381600087803b15801561234457600080fd5b505af1925050508015612374575060408051601f3d908101601f19168201909252612371918101906129ae565b60015b6123ce573d8080156123a2576040519150601f19603f3d011682016040523d82523d6000602084013e6123a7565b606091505b5080516123c65760405162461bcd60e51b81526004016107d790612df8565b805181602001fd5b6001600160e01b031916630a85bd0160e11b149050611cc9565b506001949350505050565b6001600160a01b0382166124195760405162461bcd60e51b81526004016107d790613214565b612422816114c0565b1561243f5760405162461bcd60e51b81526004016107d790612e4a565b61244b6000838361088f565b6001600160a01b03821660009081526003602052604081208054600192906124749084906136b1565b909155505060008181526002602052604080822080546001600160a01b0319166001600160a01b03861690811790915590518392907fddf252ad1be2c89b69c2b068fc378daa952ba7f163c4a11628f55a4df523b3ef908290a45050565b3b151590565b6040805160a08101825260008082526020820181905291810182905260608101829052608081019190915290565b82805461251290613720565b90600052602060002090601f016020900481019282612534576000855561257a565b82601f1061254d5782800160ff1982351617855561257a565b8280016001018555821561257a579182015b8281111561257a57823582559160200191906001019061255f565b5061258692915061261c565b5090565b5080546000825590600052602060002090810190610c71919061261c565b8280546125b490613720565b90600052602060002090601f0160209004810192826125d6576000855561257a565b82601f106125ef57805160ff191683800117855561257a565b8280016001018555821561257a579182015b8281111561257a578251825591602001919060010190612601565b5b80821115612586576000815560010161261d565b8035610719816137b6565b60008083601f84011261264d578182fd5b50813567ffffffffffffffff811115612664578182fd5b60208301915083602082850101111561267c57600080fd5b9250929050565b600060208284031215612694578081fd5b8135611404816137b6565b6000602082840312156126b0578081fd5b8151611404816137b6565b600080604083850312156126cd578081fd5b82356126d8816137b6565b915060208301356126e8816137b6565b809150509250929050565b600080600060608486031215612707578081fd5b8335612712816137b6565b92506020840135612722816137b6565b929592945050506040919091013590565b60008060408385031215612745578182fd5b8235612750816137b6565b9150602083013580151581146126e8578182fd5b60008060008060008060006080888a03121561277e578283fd5b8735612789816137b6565b9650602088013567ffffffffffffffff808211156127a5578485fd5b6127b18b838c0161263c565b909850965060408a01359150808211156127c9578485fd5b6127d58b838c0161263c565b909650945060608a01359150808211156127ed578384fd5b506127fa8a828b0161263c565b989b979a50959850939692959293505050565b600080600080600080600080600080600060e08c8e03121561282d578384fd5b6128368c612631565b9a5067ffffffffffffffff8060208e01351115612851578485fd5b6128618e60208f01358f0161263c565b909b50995060408d0135811015612876578485fd5b6128868e60408f01358f0161263c565b909950975061289760608e01612631565b96506128a560808e01612631565b95508060a08e013511156128b7578485fd5b6128c78e60a08f01358f0161263c565b909550935060c08d01358110156128dc578283fd5b506128ed8d60c08e01358e0161263c565b81935080925050509295989b509295989b9093969950565b60008060408385031215612917578182fd5b8235612922816137b6565b946020939093013593505050565b600060208284031215612941578081fd5b5035919050565b60008060006040848603121561295c578283fd5b83359250602084013567ffffffffffffffff811115612979578283fd5b6129858682870161263c565b9497909650939450505050565b6000602082840312156129a3578081fd5b8135611404816137cb565b6000602082840312156129bf578081fd5b8151611404816137cb565b600080600080604085870312156129df578182fd5b843567ffffffffffffffff808211156129f6578384fd5b612a028883890161263c565b90965094506020870135915080821115612a1a578384fd5b50612a278782880161263c565b95989497509550505050565b600080600080600080600060a0888a031215612a4d578081fd5b873567ffffffffffffffff80821115612a64578283fd5b612a708b838c0161263c565b909950975060208a0135915080821115612a88578283fd5b50612a958a828b0161263c565b90965094505060408801359250606088013591506080880135612ab7816137b6565b8091505092959891949750929550565b600080600080600060808688031215612ade578283fd5b853594506020860135612af0816137b6565b935060408601359250606086013567ffffffffffffffff811115612b12578182fd5b612b1e8882890161263c565b969995985093965092949392505050565b60008284528282602086013780602084860101526020601f19601f85011685010190509392505050565b60008151808452612b718160208601602086016136f4565b601f01601f19169290920160200192915050565b60609190911b6bffffffffffffffffffffffff1916815260140190565b60008351612bb48184602088016136f4565b835190830190612bc88183602088016136f4565b01949350505050565b6001600160a01b0391909116815260200190565b6001600160a01b0385811682528416602082015260408101839052608060608201819052600090612c1890830184612b59565b9695505050505050565b6001600160a01b0386168152606060208201819052600090612c479083018688612b2f565b8281036040840152612c5a818587612b2f565b98975050505050505050565b6001600160a01b03929092168252602082015260400190565b901515815260200190565b90815260200190565b600060208252611cc9602083018486612b2f565b6000602082526114046020830184612b59565b600060a08252612cce60a08301898b612b2f565b8281036020840152612ce181888a612b2f565b6040840196909652505060608101929092526001600160a01b0316608090910152949350505050565b60208082526021908201527f45524337323154656d706c6174653a204e4f542053544f5245205550444154456040820152602960f91b606082015260800190565b6020808252601c908201527f45524337323154656d706c6174653a204e4f542076334d696e74657200000000604082015260600190565b60208082526021908201527f45524337323154656d706c6174653a204e4f54204d455441444154415f524f4c6040820152604560f81b606082015260800190565b6020808252818101527f437265617465323a2062797465636f6465206c656e677468206973207a65726f604082015260600190565b60208082526032908201527f4552433732313a207472616e7366657220746f206e6f6e20455243373231526560408201527131b2b4bb32b91034b6b83632b6b2b73a32b960711b606082015260800190565b6020808252601c908201527f4552433732313a20746f6b656e20616c7265616479206d696e74656400000000604082015260600190565b6020808252601c908201527f45524337323154656d706c6174653a206e6f74204e46544f776e657200000000604082015260600190565b60208082526024908201527f4552433732313a207472616e7366657220746f20746865207a65726f206164646040820152637265737360e01b606082015260800190565b60208082526019908201527f4552433732313a20617070726f766520746f2063616c6c657200000000000000604082015260600190565b6020808252602e908201527f45524337323154656d706c6174653a3a20496e76616c6964206d696e7465722c60408201526d20207a65726f206164647265737360901b606082015260800190565b6020808252602c908201527f4552433732313a206f70657261746f7220717565727920666f72206e6f6e657860408201526b34b9ba32b73a103a37b5b2b760a11b606082015260800190565b6020808252600e908201526d736c6963655f6f766572666c6f7760901b604082015260600190565b60208082526022908201527f45524337323154656d706c6174653a204e4f5420455243323020436f6e74726160408201526118dd60f21b606082015260800190565b6020808252601f908201527f45524337323154656d706c6174653a204e4f54204d494e5445525f524f4c4500604082015260600190565b60208082526038908201527f4552433732313a20617070726f76652063616c6c6572206973206e6f74206f7760408201527f6e6572206e6f7220617070726f76656420666f7220616c6c0000000000000000606082015260800190565b6020808252601d908201527f45524337323154656d706c6174653a204e4f54207633204d494e544552000000604082015260600190565b60208082526028908201527f45524337323154656d706c6174653a204641494c454420544f20534554204e456040820152672b9026a4a72a22a960c11b606082015260800190565b6020808252602a908201527f4552433732313a2062616c616e636520717565727920666f7220746865207a65604082015269726f206164647265737360b01b606082015260800190565b60208082526029908201527f4552433732313a206f776e657220717565727920666f72206e6f6e657869737460408201526832b73a103a37b5b2b760b91b606082015260800190565b60208082526019908201527f437265617465323a204661696c6564206f6e206465706c6f7900000000000000604082015260600190565b6020808252818101527f4552433732313a206d696e7420746f20746865207a65726f2061646472657373604082015260600190565b6020808252602c908201527f45524337323154656d706c6174653a204e4f542045524332302056332064617460408201526b30ba37b5b2b71037bbb732b960a11b606082015260800190565b60208082526019908201527f436f756c64206e6f74206465706c6f7920636f6e747261637400000000000000604082015260600190565b6020808252602c908201527f4552433732313a20617070726f76656420717565727920666f72206e6f6e657860408201526b34b9ba32b73a103a37b5b2b760a11b606082015260800190565b602080825260159082015274746f427974657333325f6f75744f66426f756e647360581b604082015260600190565b60208082526029908201527f4552433732313a207472616e73666572206f6620746f6b656e2074686174206960408201526839903737ba1037bbb760b91b606082015260800190565b6020808252602f908201527f4552433732314d657461646174613a2055524920717565727920666f72206e6f60408201526e3732bc34b9ba32b73a103a37b5b2b760891b606082015260800190565b6020808252602c908201527f45524337323154656d706c6174653a2043616e6e6f74207472616e736665722060408201526b1d1a1a5cc81d1bdad95b925960a21b606082015260800190565b60208082526021908201527f4552433732313a20617070726f76616c20746f2063757272656e74206f776e656040820152603960f91b606082015260800190565b60208082526014908201527357726f6e67206f7065726174696f6e207479706560601b604082015260600190565b60208082526031908201527f4552433732313a207472616e736665722063616c6c6572206973206e6f74206f6040820152701ddb995c881b9bdc88185c1c1c9bdd9959607a1b606082015260800190565b602080825260119082015270736c6963655f6f75744f66426f756e647360781b604082015260600190565b60208082526030908201527f45524337323154656d706c6174653a3a204d657461646174612061646472657360408201526f732063616e6e6f74206265207a65726f60801b606082015260800190565b60208082526032908201527f45524337323154656d706c6174653a20746f6b656e20696e7374616e636520616040820152711b1c9958591e481a5b9a5d1a585b1a5e995960721b606082015260800190565b6020808252601f908201527f455243373231526f6c6573416464726573733a204e4f54204d414e4147455200604082015260600190565b60208082526027908201527f45524337323154656d706c6174653a20763344617461746f6b656e206e6f742060408201526615d4905414115160ca1b606082015260800190565b6020808252601d908201527f437265617465323a20696e73756666696369656e742062616c616e6365000000604082015260600190565b600060a08201905082511515825260208301511515602083015260408301511515604083015260608301511515606083015260808301511515608083015292915050565b600082198211156136c4576136c461378a565b500190565b6000826136d8576136d86137a0565b500490565b6000828210156136ef576136ef61378a565b500390565b60005b8381101561370f5781810151838201526020016136f7565b83811115610f185750506000910152565b60028104600182168061373457607f821691505b6020821081141561375557634e487b7160e01b600052602260045260246000fd5b50919050565b600060001982141561376f5761376f61378a565b5060010190565b600082613785576137856137a0565b500690565b634e487b7160e01b600052601160045260246000fd5b634e487b7160e01b600052601260045260246000fd5b6001600160a01b0381168114610c7157600080fd5b6001600160e01b031981168114610c7157600080fdfea66cc928b5edb82af9bd49922954155ab7b0942694bea4ce44661d9a8736c688a26469706673582212202d17217e5b943c42282d0ab67f5b64e1bc575da9a9ee91bc4937b89437c2b87f64736f6c63430008000033",
  "linkReferences": {},
  "deployedLinkReferences": {}
}