{
  "_format": "hh-sol-artifact-1",
  "contractName": "ERC721Template",
  "sourceName": "contracts/templates/ERC721Template.sol",
  "abi": [
    {
      "anonymous": false,
      "inputs": [
        {
          "indexed": true,
          "internalType": "address",
          "name": "user",
          "type": "address"
        },
        {
          "indexed": true,
          "internalType": "address",
          "name": "signer",
          "type": "address"
        },
        {
          "indexed": false,
          "internalType": "uint256",
          "name": "timestamp",
          "type": "uint256"
        },
        {
          "indexed": false,
          "internalType": "uint256",
          "name": "blockNumber",
          "type": "uint256"
        }
      ],
      "name": "AddedManager",
      "type": "event"
    },
    {
      "anonymous": false,
      "inputs": [
        {
          "indexed": true,
          "internalType": "address",
          "name": "user",
          "type": "address"
        },
        {
          "indexed": true,
          "internalType": "address",
          "name": "signer",
          "type": "address"
        },
        {
          "indexed": false,
          "internalType": "uint256",
          "name": "timestamp",
          "type": "uint256"
        },
        {
          "indexed": false,
          "internalType": "uint256",
          "name": "blockNumber",
          "type": "uint256"
        }
      ],
      "name": "AddedTo725StoreList",
      "type": "event"
    },
    {
      "anonymous": false,
      "inputs": [
        {
          "indexed": true,
          "internalType": "address",
          "name": "user",
          "type": "address"
        },
        {
          "indexed": true,
          "internalType": "address",
          "name": "signer",
          "type": "address"
        },
        {
          "indexed": false,
          "internalType": "uint256",
          "name": "timestamp",
          "type": "uint256"
        },
        {
          "indexed": false,
          "internalType": "uint256",
          "name": "blockNumber",
          "type": "uint256"
        }
      ],
      "name": "AddedToCreateERC20List",
      "type": "event"
    },
    {
      "anonymous": false,
      "inputs": [
        {
          "indexed": true,
          "internalType": "address",
          "name": "user",
          "type": "address"
        },
        {
          "indexed": true,
          "internalType": "address",
          "name": "signer",
          "type": "address"
        },
        {
          "indexed": false,
          "internalType": "uint256",
          "name": "timestamp",
          "type": "uint256"
        },
        {
          "indexed": false,
          "internalType": "uint256",
          "name": "blockNumber",
          "type": "uint256"
        }
      ],
      "name": "AddedToMetadataList",
      "type": "event"
    },
    {
      "anonymous": false,
      "inputs": [
        {
          "indexed": true,
          "internalType": "address",
          "name": "user",
          "type": "address"
        },
        {
          "indexed": true,
          "internalType": "address",
          "name": "signer",
          "type": "address"
        },
        {
          "indexed": false,
          "internalType": "uint256",
          "name": "timestamp",
          "type": "uint256"
        },
        {
          "indexed": false,
          "internalType": "uint256",
          "name": "blockNumber",
          "type": "uint256"
        }
      ],
      "name": "AddedV3Minter",
      "type": "event"
    },
    {
      "anonymous": false,
      "inputs": [
        {
          "indexed": true,
          "internalType": "address",
          "name": "owner",
          "type": "address"
        },
        {
          "indexed": true,
          "internalType": "address",
          "name": "approved",
          "type": "address"
        },
        {
          "indexed": true,
          "internalType": "uint256",
          "name": "tokenId",
          "type": "uint256"
        }
      ],
      "name": "Approval",
      "type": "event"
    },
    {
      "anonymous": false,
      "inputs": [
        {
          "indexed": true,
          "internalType": "address",
          "name": "owner",
          "type": "address"
        },
        {
          "indexed": true,
          "internalType": "address",
          "name": "operator",
          "type": "address"
        },
        {
          "indexed": false,
          "internalType": "bool",
          "name": "approved",
          "type": "bool"
        }
      ],
      "name": "ApprovalForAll",
      "type": "event"
    },
    {
      "anonymous": false,
      "inputs": [
        {
          "indexed": true,
          "internalType": "address",
          "name": "signer",
          "type": "address"
        },
        {
          "indexed": false,
          "internalType": "uint256",
          "name": "timestamp",
          "type": "uint256"
        },
        {
          "indexed": false,
          "internalType": "uint256",
          "name": "blockNumber",
          "type": "uint256"
        }
      ],
      "name": "CleanedPermissions",
      "type": "event"
    },
    {
      "anonymous": false,
      "inputs": [
        {
          "indexed": true,
          "internalType": "address",
          "name": "contractAddress",
          "type": "address"
        }
      ],
      "name": "ContractCreated",
      "type": "event"
    },
    {
      "anonymous": false,
      "inputs": [
        {
          "indexed": true,
          "internalType": "bytes32",
          "name": "key",
          "type": "bytes32"
        },
        {
          "indexed": false,
          "internalType": "bytes",
          "name": "value",
          "type": "bytes"
        }
      ],
      "name": "DataChanged",
      "type": "event"
    },
    {
      "anonymous": false,
      "inputs": [
        {
          "indexed": true,
          "internalType": "uint256",
          "name": "_operation",
          "type": "uint256"
        },
        {
          "indexed": true,
          "internalType": "address",
          "name": "_to",
          "type": "address"
        },
        {
          "indexed": true,
          "internalType": "uint256",
          "name": "_value",
          "type": "uint256"
        },
        {
          "indexed": false,
          "internalType": "bytes",
          "name": "_data",
          "type": "bytes"
        }
      ],
      "name": "Executed",
      "type": "event"
    },
    {
      "anonymous": false,
      "inputs": [
        {
          "indexed": true,
          "internalType": "address",
          "name": "createdBy",
          "type": "address"
        },
        {
          "indexed": false,
          "internalType": "uint8",
          "name": "state",
          "type": "uint8"
        },
        {
          "indexed": false,
          "internalType": "string",
          "name": "decryptorUrl",
          "type": "string"
        },
        {
          "indexed": false,
          "internalType": "bytes",
          "name": "flags",
          "type": "bytes"
        },
        {
          "indexed": false,
          "internalType": "bytes",
          "name": "data",
          "type": "bytes"
        },
        {
          "indexed": false,
          "internalType": "string",
          "name": "metaDataDecryptorAddress",
          "type": "string"
        },
        {
          "indexed": false,
          "internalType": "uint256",
          "name": "timestamp",
          "type": "uint256"
        },
        {
          "indexed": false,
          "internalType": "uint256",
          "name": "blockNumber",
          "type": "uint256"
        }
      ],
      "name": "MetadataCreated",
      "type": "event"
    },
    {
      "anonymous": false,
      "inputs": [
        {
          "indexed": true,
          "internalType": "address",
          "name": "updatedBy",
          "type": "address"
        },
        {
          "indexed": false,
          "internalType": "uint8",
          "name": "state",
          "type": "uint8"
        },
        {
          "indexed": false,
          "internalType": "string",
          "name": "decryptorUrl",
          "type": "string"
        },
        {
          "indexed": false,
          "internalType": "bytes",
          "name": "flags",
          "type": "bytes"
        },
        {
          "indexed": false,
          "internalType": "bytes",
          "name": "data",
          "type": "bytes"
        },
        {
          "indexed": false,
          "internalType": "string",
          "name": "metaDataDecryptorAddress",
          "type": "string"
        },
        {
          "indexed": false,
          "internalType": "uint256",
          "name": "timestamp",
          "type": "uint256"
        },
        {
          "indexed": false,
          "internalType": "uint256",
          "name": "blockNumber",
          "type": "uint256"
        }
      ],
      "name": "MetadataUpdated",
      "type": "event"
    },
    {
      "anonymous": false,
      "inputs": [
        {
          "indexed": true,
          "internalType": "address",
          "name": "user",
          "type": "address"
        },
        {
          "indexed": true,
          "internalType": "address",
          "name": "signer",
          "type": "address"
        },
        {
          "indexed": false,
          "internalType": "uint256",
          "name": "timestamp",
          "type": "uint256"
        },
        {
          "indexed": false,
          "internalType": "uint256",
          "name": "blockNumber",
          "type": "uint256"
        }
      ],
      "name": "RemovedFrom725StoreList",
      "type": "event"
    },
    {
      "anonymous": false,
      "inputs": [
        {
          "indexed": true,
          "internalType": "address",
          "name": "user",
          "type": "address"
        },
        {
          "indexed": true,
          "internalType": "address",
          "name": "signer",
          "type": "address"
        },
        {
          "indexed": false,
          "internalType": "uint256",
          "name": "timestamp",
          "type": "uint256"
        },
        {
          "indexed": false,
          "internalType": "uint256",
          "name": "blockNumber",
          "type": "uint256"
        }
      ],
      "name": "RemovedFromCreateERC20List",
      "type": "event"
    },
    {
      "anonymous": false,
      "inputs": [
        {
          "indexed": true,
          "internalType": "address",
          "name": "user",
          "type": "address"
        },
        {
          "indexed": true,
          "internalType": "address",
          "name": "signer",
          "type": "address"
        },
        {
          "indexed": false,
          "internalType": "uint256",
          "name": "timestamp",
          "type": "uint256"
        },
        {
          "indexed": false,
          "internalType": "uint256",
          "name": "blockNumber",
          "type": "uint256"
        }
      ],
      "name": "RemovedFromMetadataList",
      "type": "event"
    },
    {
      "anonymous": false,
      "inputs": [
        {
          "indexed": true,
          "internalType": "address",
          "name": "user",
          "type": "address"
        },
        {
          "indexed": true,
          "internalType": "address",
          "name": "signer",
          "type": "address"
        },
        {
          "indexed": false,
          "internalType": "uint256",
          "name": "timestamp",
          "type": "uint256"
        },
        {
          "indexed": false,
          "internalType": "uint256",
          "name": "blockNumber",
          "type": "uint256"
        }
      ],
      "name": "RemovedManager",
      "type": "event"
    },
    {
      "anonymous": false,
      "inputs": [
        {
          "indexed": true,
          "internalType": "address",
          "name": "user",
          "type": "address"
        },
        {
          "indexed": true,
          "internalType": "address",
          "name": "signer",
          "type": "address"
        },
        {
          "indexed": false,
          "internalType": "uint256",
          "name": "timestamp",
          "type": "uint256"
        },
        {
          "indexed": false,
          "internalType": "uint256",
          "name": "blockNumber",
          "type": "uint256"
        }
      ],
      "name": "RemovedV3Minter",
      "type": "event"
    },
    {
      "anonymous": false,
      "inputs": [
        {
          "indexed": true,
          "internalType": "address",
          "name": "newTokenAddress",
          "type": "address"
        },
        {
          "indexed": true,
          "internalType": "address",
          "name": "templateAddress",
          "type": "address"
        },
        {
          "indexed": true,
          "internalType": "string",
          "name": "tokenName",
          "type": "string"
        }
      ],
      "name": "TokenCreated",
      "type": "event"
    },
    {
      "anonymous": false,
      "inputs": [
        {
          "indexed": true,
          "internalType": "address",
          "name": "from",
          "type": "address"
        },
        {
          "indexed": true,
          "internalType": "address",
          "name": "to",
          "type": "address"
        },
        {
          "indexed": true,
          "internalType": "uint256",
          "name": "tokenId",
          "type": "uint256"
        }
      ],
      "name": "Transfer",
      "type": "event"
    },
    {
      "stateMutability": "payable",
      "type": "fallback"
    },
    {
      "inputs": [
        {
          "internalType": "address",
          "name": "_managerAddress",
          "type": "address"
        }
      ],
      "name": "addManager",
      "outputs": [],
      "stateMutability": "nonpayable",
      "type": "function"
    },
    {
      "inputs": [
        {
          "internalType": "address",
          "name": "_allowedAddress",
          "type": "address"
        }
      ],
      "name": "addTo725StoreList",
      "outputs": [],
      "stateMutability": "nonpayable",
      "type": "function"
    },
    {
      "inputs": [
        {
          "internalType": "address",
          "name": "_allowedAddress",
          "type": "address"
        }
      ],
      "name": "addToCreateERC20List",
      "outputs": [],
      "stateMutability": "nonpayable",
      "type": "function"
    },
    {
      "inputs": [
        {
          "internalType": "address",
          "name": "_allowedAddress",
          "type": "address"
        }
      ],
      "name": "addToMetadataList",
      "outputs": [],
      "stateMutability": "nonpayable",
      "type": "function"
    },
    {
      "inputs": [
        {
          "internalType": "address",
          "name": "to",
          "type": "address"
        },
        {
          "internalType": "uint256",
          "name": "tokenId",
          "type": "uint256"
        }
      ],
      "name": "approve",
      "outputs": [],
      "stateMutability": "nonpayable",
      "type": "function"
    },
    {
      "inputs": [
        {
          "internalType": "uint256",
          "name": "",
          "type": "uint256"
        }
      ],
      "name": "auth",
      "outputs": [
        {
          "internalType": "address",
          "name": "",
          "type": "address"
        }
      ],
      "stateMutability": "view",
      "type": "function"
    },
    {
      "inputs": [
        {
          "internalType": "address",
          "name": "owner",
          "type": "address"
        }
      ],
      "name": "balanceOf",
      "outputs": [
        {
          "internalType": "uint256",
          "name": "",
          "type": "uint256"
        }
      ],
      "stateMutability": "view",
      "type": "function"
    },
    {
      "inputs": [],
      "name": "cleanPermissions",
      "outputs": [],
      "stateMutability": "nonpayable",
      "type": "function"
    },
    {
      "inputs": [
        {
          "internalType": "uint256",
          "name": "_templateIndex",
          "type": "uint256"
        },
        {
          "internalType": "string[]",
          "name": "strings",
          "type": "string[]"
        },
        {
          "internalType": "address[]",
          "name": "addresses",
          "type": "address[]"
        },
        {
          "internalType": "uint256[]",
          "name": "uints",
          "type": "uint256[]"
        },
        {
          "internalType": "bytes[]",
          "name": "bytess",
          "type": "bytes[]"
        }
      ],
      "name": "createERC20",
      "outputs": [
        {
          "internalType": "address",
          "name": "",
          "type": "address"
        }
      ],
      "stateMutability": "nonpayable",
      "type": "function"
    },
    {
      "inputs": [
        {
          "internalType": "uint256",
          "name": "_operation",
          "type": "uint256"
        },
        {
          "internalType": "address",
          "name": "_to",
          "type": "address"
        },
        {
          "internalType": "uint256",
          "name": "_value",
          "type": "uint256"
        },
        {
          "internalType": "bytes",
          "name": "_data",
          "type": "bytes"
        }
      ],
      "name": "executeCall",
      "outputs": [],
      "stateMutability": "payable",
      "type": "function"
    },
    {
      "inputs": [
        {
          "internalType": "uint256",
          "name": "tokenId",
          "type": "uint256"
        }
      ],
      "name": "getApproved",
      "outputs": [
        {
          "internalType": "address",
          "name": "",
          "type": "address"
        }
      ],
      "stateMutability": "view",
      "type": "function"
    },
    {
      "inputs": [
        {
          "internalType": "bytes32",
          "name": "_key",
          "type": "bytes32"
        }
      ],
      "name": "getData",
      "outputs": [
        {
          "internalType": "bytes",
          "name": "_value",
          "type": "bytes"
        }
      ],
      "stateMutability": "view",
      "type": "function"
    },
    {
      "inputs": [],
      "name": "getMetaData",
      "outputs": [
        {
          "internalType": "string",
          "name": "",
          "type": "string"
        },
        {
          "internalType": "string",
          "name": "",
          "type": "string"
        },
        {
          "internalType": "uint8",
          "name": "",
          "type": "uint8"
        },
        {
          "internalType": "bool",
          "name": "",
          "type": "bool"
        }
      ],
      "stateMutability": "view",
      "type": "function"
    },
    {
      "inputs": [
        {
          "internalType": "address",
          "name": "user",
          "type": "address"
        }
      ],
      "name": "getPermissions",
      "outputs": [
        {
          "components": [
            {
              "internalType": "bool",
              "name": "manager",
              "type": "bool"
            },
            {
              "internalType": "bool",
              "name": "deployERC20",
              "type": "bool"
            },
            {
              "internalType": "bool",
              "name": "updateMetadata",
              "type": "bool"
            },
            {
              "internalType": "bool",
              "name": "store",
              "type": "bool"
            },
            {
              "internalType": "bool",
              "name": "v3Minter",
              "type": "bool"
            }
          ],
          "internalType": "struct ERC721RolesAddress.Roles",
          "name": "",
          "type": "tuple"
        }
      ],
      "stateMutability": "view",
      "type": "function"
    },
    {
      "inputs": [],
      "name": "getTokensList",
      "outputs": [
        {
          "internalType": "address[]",
          "name": "",
          "type": "address[]"
        }
      ],
      "stateMutability": "view",
      "type": "function"
    },
    {
      "inputs": [],
      "name": "hasMetaData",
      "outputs": [
        {
          "internalType": "bool",
          "name": "",
          "type": "bool"
        }
      ],
      "stateMutability": "view",
      "type": "function"
    },
    {
      "inputs": [
        {
          "internalType": "address",
          "name": "owner",
          "type": "address"
        },
        {
          "internalType": "string",
          "name": "name_",
          "type": "string"
        },
        {
          "internalType": "string",
          "name": "symbol_",
          "type": "string"
        },
        {
          "internalType": "address",
          "name": "tokenFactory",
          "type": "address"
        },
        {
          "internalType": "address",
          "name": "additionalERC20Deployer",
          "type": "address"
        }
      ],
      "name": "initialize",
      "outputs": [
        {
          "internalType": "bool",
          "name": "",
          "type": "bool"
        }
      ],
      "stateMutability": "nonpayable",
      "type": "function"
    },
    {
      "inputs": [
        {
          "internalType": "address",
          "name": "owner",
          "type": "address"
        },
        {
          "internalType": "address",
          "name": "operator",
          "type": "address"
        }
      ],
      "name": "isApprovedForAll",
      "outputs": [
        {
          "internalType": "bool",
          "name": "",
          "type": "bool"
        }
      ],
      "stateMutability": "view",
      "type": "function"
    },
    {
      "inputs": [
        {
          "internalType": "address",
          "name": "datatoken",
          "type": "address"
        }
      ],
      "name": "isDeployed",
      "outputs": [
        {
          "internalType": "bool",
          "name": "",
          "type": "bool"
        }
      ],
      "stateMutability": "view",
      "type": "function"
    },
    {
      "inputs": [],
      "name": "isInitialized",
      "outputs": [
        {
          "internalType": "bool",
          "name": "",
          "type": "bool"
        }
      ],
      "stateMutability": "view",
      "type": "function"
    },
    {
      "inputs": [],
      "name": "metaDataDecryptorAddress",
      "outputs": [
        {
          "internalType": "string",
          "name": "",
          "type": "string"
        }
      ],
      "stateMutability": "view",
      "type": "function"
    },
    {
      "inputs": [],
      "name": "metaDataDecryptorUrl",
      "outputs": [
        {
          "internalType": "string",
          "name": "",
          "type": "string"
        }
      ],
      "stateMutability": "view",
      "type": "function"
    },
    {
      "inputs": [],
      "name": "metaDataState",
      "outputs": [
        {
          "internalType": "uint8",
          "name": "",
          "type": "uint8"
        }
      ],
      "stateMutability": "view",
      "type": "function"
    },
    {
      "inputs": [],
      "name": "name",
      "outputs": [
        {
          "internalType": "string",
          "name": "",
          "type": "string"
        }
      ],
      "stateMutability": "view",
      "type": "function"
    },
    {
      "inputs": [
        {
          "internalType": "uint256",
          "name": "tokenId",
          "type": "uint256"
        }
      ],
      "name": "ownerOf",
      "outputs": [
        {
          "internalType": "address",
          "name": "",
          "type": "address"
        }
      ],
      "stateMutability": "view",
      "type": "function"
    },
    {
      "inputs": [
        {
          "internalType": "address",
          "name": "_allowedAddress",
          "type": "address"
        }
      ],
      "name": "removeFrom725StoreList",
      "outputs": [],
      "stateMutability": "nonpayable",
      "type": "function"
    },
    {
      "inputs": [
        {
          "internalType": "address",
          "name": "_allowedAddress",
          "type": "address"
        }
      ],
      "name": "removeFromCreateERC20List",
      "outputs": [],
      "stateMutability": "nonpayable",
      "type": "function"
    },
    {
      "inputs": [
        {
          "internalType": "address",
          "name": "_allowedAddress",
          "type": "address"
        }
      ],
      "name": "removeFromMetadataList",
      "outputs": [],
      "stateMutability": "nonpayable",
      "type": "function"
    },
    {
      "inputs": [
        {
          "internalType": "address",
          "name": "_managerAddress",
          "type": "address"
        }
      ],
      "name": "removeManager",
      "outputs": [],
      "stateMutability": "nonpayable",
      "type": "function"
    },
    {
      "inputs": [
        {
          "internalType": "address",
          "name": "from",
          "type": "address"
        },
        {
          "internalType": "address",
          "name": "to",
          "type": "address"
        },
        {
          "internalType": "uint256",
          "name": "tokenId",
          "type": "uint256"
        }
      ],
      "name": "safeTransferFrom",
      "outputs": [],
      "stateMutability": "nonpayable",
      "type": "function"
    },
    {
      "inputs": [
        {
          "internalType": "address",
          "name": "operator",
          "type": "address"
        },
        {
          "internalType": "bool",
          "name": "approved",
          "type": "bool"
        }
      ],
      "name": "setApprovalForAll",
      "outputs": [],
      "stateMutability": "nonpayable",
      "type": "function"
    },
    {
      "inputs": [
        {
          "internalType": "bytes32",
          "name": "_key",
          "type": "bytes32"
        },
        {
          "internalType": "bytes",
          "name": "_value",
          "type": "bytes"
        }
      ],
      "name": "setDataERC20",
      "outputs": [],
      "stateMutability": "nonpayable",
      "type": "function"
    },
    {
      "inputs": [
        {
          "internalType": "uint8",
          "name": "_metaDataState",
          "type": "uint8"
        },
        {
          "internalType": "string",
          "name": "_metaDataDecryptorUrl",
          "type": "string"
        },
        {
          "internalType": "string",
          "name": "_metaDataDecryptorAddress",
          "type": "string"
        },
        {
          "internalType": "bytes",
          "name": "flags",
          "type": "bytes"
        },
        {
          "internalType": "bytes",
          "name": "data",
          "type": "bytes"
        }
      ],
      "name": "setMetaData",
      "outputs": [],
      "stateMutability": "nonpayable",
      "type": "function"
    },
    {
      "inputs": [
        {
          "internalType": "bytes32",
          "name": "_key",
          "type": "bytes32"
        },
        {
          "internalType": "bytes",
          "name": "_value",
          "type": "bytes"
        }
      ],
      "name": "setNewData",
      "outputs": [],
      "stateMutability": "nonpayable",
      "type": "function"
    },
    {
      "inputs": [],
      "name": "ssContract",
      "outputs": [
        {
          "internalType": "address",
          "name": "",
          "type": "address"
        }
      ],
      "stateMutability": "view",
      "type": "function"
    },
    {
      "inputs": [
        {
          "internalType": "bytes4",
          "name": "interfaceId",
          "type": "bytes4"
        }
      ],
      "name": "supportsInterface",
      "outputs": [
        {
          "internalType": "bool",
          "name": "",
          "type": "bool"
        }
      ],
      "stateMutability": "view",
      "type": "function"
    },
    {
      "inputs": [],
      "name": "symbol",
      "outputs": [
        {
          "internalType": "string",
          "name": "",
          "type": "string"
        }
      ],
      "stateMutability": "view",
      "type": "function"
    },
    {
      "inputs": [
        {
          "internalType": "uint256",
          "name": "tokenId",
          "type": "uint256"
        }
      ],
      "name": "tokenURI",
      "outputs": [
        {
          "internalType": "string",
          "name": "",
          "type": "string"
        }
      ],
      "stateMutability": "view",
      "type": "function"
    },
    {
      "inputs": [
        {
          "internalType": "address",
          "name": "from",
          "type": "address"
        },
        {
          "internalType": "address",
          "name": "to",
          "type": "address"
        },
        {
          "internalType": "uint256",
          "name": "tokenId",
          "type": "uint256"
        }
      ],
      "name": "transferFrom",
      "outputs": [],
      "stateMutability": "nonpayable",
      "type": "function"
    },
    {
      "inputs": [],
      "name": "withdrawETH",
      "outputs": [],
      "stateMutability": "payable",
      "type": "function"
    }
  ],
  "bytecode": "0x60806040523480156200001157600080fd5b50604080518082018252600881526754656d706c61746560c01b60208083019182528351808501909452600e84526d15195b5c1b185d1954de5b589bdb60921b908401528151919291620000689160009162000131565b5080516200007e90600190602084019062000131565b50620000959150632260147f60e11b9050620000ad565b620000a7632bd57b7360e01b620000ad565b62000214565b6001600160e01b031980821614156200010c5760405162461bcd60e51b815260206004820152601c60248201527f4552433136353a20696e76616c696420696e7465726661636520696400000000604482015260640160405180910390fd5b6001600160e01b0319166000908152600860205260409020805460ff19166001179055565b8280546200013f90620001d7565b90600052602060002090601f016020900481019282620001635760008555620001ae565b82601f106200017e57805160ff1916838001178555620001ae565b82800160010185558215620001ae579182015b82811115620001ae57825182559160200191906001019062000191565b50620001bc929150620001c0565b5090565b5b80821115620001bc5760008155600101620001c1565b600181811c90821680620001ec57607f821691505b602082108114156200020e57634e487b7160e01b600052602260045260246000fd5b50919050565b613b8880620002246000396000f3fe6080604052600436106102265760003560e01c806354f6127f11610122578063b0c41ead116100a5578063d8053ad31161006c578063d8053ad314610796578063e086e5ec146107b5578063e38d7cad146107bd578063e985e9c5146107dd578063fe1ec8801461082657005b8063b0c41ead146106f2578063c55f812614610712578063c87b56dd14610725578063ccd7d47614610745578063d2786ba41461077157005b806382cf129d116100e957806382cf129d1461064f57806390184b021461066457806395d89b411461069d578063a22cb465146106b2578063ac18de43146106d257005b806354f6127f146105a15780636352211e146105c157806367530a61146105e15780636cf1dbed1461060157806370a082311461062157005b806323b872dd116101aa578063431053ac11610171578063431053ac1461050a578063466bca021461052a5780634a63740a1461054c5780634b2ee5e91461056c5780634f189cb21461058c57005b806323b872dd14610472578063273e06b3146104925780632d06177a146104b2578063392e53cd146104d257806342842e0e146104ea57005b80630e05662e116101ee5780630e05662e146102f75780630e57c7e81461030c57806310c558bf1461032c578063160a79251461034c57806319c186e51461045257005b806301ffc9a71461022857806302a982171461025d57806306fdde031461027d578063081812fc1461029f578063095ea7b3146102d7575b005b34801561023457600080fd5b5061024861024336600461327f565b610846565b60405190151581526020015b60405180910390f35b34801561026957600080fd5b506102266102783660046133f3565b610886565b34801561028957600080fd5b50610292610a10565b60405161025491906136b9565b3480156102ab57600080fd5b506102bf6102ba36600461321a565b610aa2565b6040516001600160a01b039091168152602001610254565b3480156102e357600080fd5b506102266102f23660046131ee565b610b37565b34801561030357600080fd5b50610292610c4d565b34801561031857600080fd5b50610226610327366004613233565b610cdb565b34801561033857600080fd5b5061022661034736600461305e565b610d55565b34801561035857600080fd5b5061040661036736600461305e565b6040805160a081018252600080825260208201819052918101829052606081018290526080810191909152506001600160a01b0316600090815260066020908152604091829020825160a081018452905460ff8082161515835261010082048116151593830193909352620100008104831615159382019390935263010000008304821615156060820152640100000000909204161515608082015290565b6040516102549190600060a08201905082511515825260208301511515602083015260408301511515604083015260608301511515606083015260808301511515608083015292915050565b34801561045e57600080fd5b5061022661046d36600461305e565b610e28565b34801561047e57600080fd5b5061022661048d3660046130d1565b610ef1565b34801561049e57600080fd5b506102266104ad36600461305e565b610fc3565b3480156104be57600080fd5b506102266104cd36600461305e565b6110fc565b3480156104de57600080fd5b50600c5460ff16610248565b3480156104f657600080fd5b506102266105053660046130d1565b61113f565b34801561051657600080fd5b5061022661052536600461305e565b6111e5565b34801561053657600080fd5b5061053f61131a565b6040516102549190613658565b34801561055857600080fd5b5061022661056736600461305e565b61137b565b34801561057857600080fd5b506011546102bf906001600160a01b031681565b34801561059857600080fd5b50610226611440565b3480156105ad57600080fd5b506102926105bc36600461321a565b611484565b3480156105cd57600080fd5b506102bf6105dc36600461321a565b611526565b3480156105ed57600080fd5b506102266105fc366004613233565b61159d565b34801561060d57600080fd5b5061024861061c366004613145565b611612565b34801561062d57600080fd5b5061064161063c36600461305e565b61172c565b604051908152602001610254565b34801561065b57600080fd5b506102926117b3565b34801561067057600080fd5b5061024861067f36600461305e565b6001600160a01b031660009081526012602052604090205460ff1690565b3480156106a957600080fd5b506102926117c0565b3480156106be57600080fd5b506102266106cd366004613112565b6117cf565b3480156106de57600080fd5b506102266106ed36600461305e565b61188d565b3480156106fe57600080fd5b506102bf61070d36600461321a565b6118d0565b6102266107203660046132b9565b6118fa565b34801561073157600080fd5b5061029261074036600461321a565b611942565b34801561075157600080fd5b50600f5461075f9060ff1681565b60405160ff9091168152602001610254565b34801561077d57600080fd5b50610786611a2a565b60405161025494939291906136cc565b3480156107a257600080fd5b50600c5461024890610100900460ff1681565b610226611b7a565b3480156107c957600080fd5b506102bf6107d8366004613323565b611bbc565b3480156107e957600080fd5b506102486107f8366004613098565b6001600160a01b03918216600090815260056020908152604080832093909416825291909152205460ff1690565b34801561083257600080fd5b5061022661084136600461305e565b611d42565b60006301ffc9a760e01b6001600160e01b03198316148061088057506001600160e01b0319821660009081526008602052604090205460ff165b92915050565b3360009081526006602052604090205462010000900460ff1615156001146108ff5760405162461bcd60e51b815260206004820152602160248201527f45524337323154656d706c6174653a204e4f54204d455441444154415f524f4c6044820152604560f81b60648201526084015b60405180910390fd5b600f805460ff191660ff8b1617905561091a600d8989612ea5565b50610927600e8787612ea5565b50600c54610100900460ff166109a057336001600160a01b03167fc7f11fe44b8845bed4feaffc564dfebf3765d1d55aea7f4107257a5e9bca710a8a8a8a888888888e8e42436040516109849b9a9998979695949392919061391b565b60405180910390a2600c805461ff001916610100179055610a05565b336001600160a01b03167f189a7a87e5602b8084471084b2404582fa77587fe8ba12201f5b926dc4080be2600f60009054906101000a900460ff168a8a888888888e8e42436040516109fc9b9a9998979695949392919061391b565b60405180910390a25b505050505050505050565b6060600a8054610a1f90613a45565b80601f0160208091040260200160405190810160405280929190818152602001828054610a4b90613a45565b8015610a985780601f10610a6d57610100808354040283529160200191610a98565b820191906000526020600020905b815481529060010190602001808311610a7b57829003601f168201915b5050505050905090565b6000818152600260205260408120546001600160a01b0316610b1b5760405162461bcd60e51b815260206004820152602c60248201527f4552433732313a20617070726f76656420717565727920666f72206e6f6e657860448201526b34b9ba32b73a103a37b5b2b760a11b60648201526084016108f6565b506000908152600460205260409020546001600160a01b031690565b6000610b4282611526565b9050806001600160a01b0316836001600160a01b03161415610bb05760405162461bcd60e51b815260206004820152602160248201527f4552433732313a20617070726f76616c20746f2063757272656e74206f776e656044820152603960f91b60648201526084016108f6565b336001600160a01b0382161480610bcc5750610bcc81336107f8565b610c3e5760405162461bcd60e51b815260206004820152603860248201527f4552433732313a20617070726f76652063616c6c6572206973206e6f74206f7760448201527f6e6572206e6f7220617070726f76656420666f7220616c6c000000000000000060648201526084016108f6565b610c488383611e72565b505050565b600e8054610c5a90613a45565b80601f0160208091040260200160405190810160405280929190818152602001828054610c8690613a45565b8015610cd35780601f10610ca857610100808354040283529160200191610cd3565b820191906000526020600020905b815481529060010190602001808311610cb657829003601f168201915b505050505081565b3360009081526012602052604090205460ff161515600114610d4a5760405162461bcd60e51b815260206004820152602260248201527f45524337323154656d706c6174653a204e4f5420455243323020436f6e74726160448201526118dd60f21b60648201526084016108f6565b610c48838383611ee0565b3360009081526006602052604090205460ff161515600114610d895760405162461bcd60e51b81526004016108f690613833565b6001600160a01b038116600081815260066020526040808220805462ff0000191662010000178155600780546001810182559352600080516020613b3383398151915290920180546001600160a01b0319168417905551909133917fc2a42571a74ce1442c8c44d375ba9442e7d55d94b37afeace261c83c62128fa490610e1c9042904390918252602082015260400190565b60405180910390a35050565b3360009081526006602052604090205460ff161515600114610e5c5760405162461bcd60e51b81526004016108f690613833565b6001600160a01b038116600081815260066020526040808220805463ff00000019166301000000178155600780546001810182559352600080516020613b3383398151915290920180546001600160a01b0319168417905551909133917feb09276310ed110a7e565d64966d0ff68a47112d2dd5eeb6cbd7451836ce35ee90610e1c9042904390918252602082015260400190565b80600114610f115760405162461bcd60e51b81526004016108f690613796565b610f7b610f766010805480602002602001604051908101604052809291908181526020018280548015610f6d57602002820191906000526020600020905b81546001600160a01b03168152600190910190602001808311610f4f575b50505050505190565b611f39565b610f83611fce565b610f8e838383612080565b610f97826120c1565b506001600160a01b03166000908152600660205260409020805463ffffff001916630101010017905550565b3360009081526006602052604090205460ff161515600114806110145750336001600160a01b0382161480156110145750336000908152600660205260409020546301000000900460ff1615156001145b1561107c576001600160a01b03811660008181526006602052604090819020805463ff000000191681559051909133917fc929b18b08ffea86a1f95e29384dbe8968f2fcbd70cfd735df3aba1cc548cbf390610e1c9042904390918252602082015260400190565b60405162461bcd60e51b815260206004820152604660248201527f455243373231526f6c6573416464726573733a204e6f7420656e6f756768207060448201527f65726d697373696f6e7320746f2072656d6f76652066726f6d2037323553746f6064820152651c99531a5cdd60d21b608482015260a4016108f6565b50565b6111066001611526565b6001600160a01b0316336001600160a01b0316146111365760405162461bcd60e51b81526004016108f69061375f565b6110f9816120c1565b8060011461115f5760405162461bcd60e51b81526004016108f690613796565b6111c2610f766010805480602002602001604051908101604052809291908181526020018280548015610f6d576020028201919060005260206000209081546001600160a01b03168152600190910190602001808311610f4f5750505050505190565b6111ca611fce565b610f8e83838360405180602001604052806000815250612152565b3360009081526006602052604090205460ff161515600114806112355750336001600160a01b03821614801561123557503360009081526006602052604090205462010000900460ff1615156001145b1561129c576001600160a01b03811660008181526006602052604090819020805462ff0000191681559051909133917f9b41e1311fa819e825bc77fa2568492112e15ea92d173f3f8ee1c8ec3c1c562b90610e1c9042904390918252602082015260400190565b60405162461bcd60e51b815260206004820152604760248201527f455243373231526f6c6573416464726573733a204e6f7420656e6f756768207060448201527f65726d697373696f6e7320746f2072656d6f76652066726f6d206d65746164616064820152661d18481b1a5cdd60ca1b608482015260a4016108f6565b60606010805480602002602001604051908101604052809291908181526020018280548015610a9857602002820191906000526020600020905b81546001600160a01b03168152600190910190602001808311611354575050505050905090565b3360009081526006602052604090205460ff1615156001146113af5760405162461bcd60e51b81526004016108f690613833565b6001600160a01b038116600081815260066020526040808220805461ff001916610100178155600780546001810182559352600080516020613b3383398151915290920180546001600160a01b0319168417905551909133917f0572d56343be407a66810f01449212e8545e14ff5049c479d34be944cdfd0d4f90610e1c9042904390918252602082015260400190565b61144a6001611526565b6001600160a01b0316336001600160a01b03161461147a5760405162461bcd60e51b81526004016108f69061375f565b611482611fce565b565b60008181526009602052604090208054606091906114a190613a45565b80601f01602080910402602001604051908101604052809291908181526020018280546114cd90613a45565b801561151a5780601f106114ef5761010080835404028352916020019161151a565b820191906000526020600020905b8154815290600101906020018083116114fd57829003601f168201915b50505050509050919050565b6000818152600260205260408120546001600160a01b0316806108805760405162461bcd60e51b815260206004820152602960248201527f4552433732313a206f776e657220717565727920666f72206e6f6e657869737460448201526832b73a103a37b5b2b760b91b60648201526084016108f6565b336000908152600660205260409020546301000000900460ff161515600114610d4a5760405162461bcd60e51b815260206004820152602160248201527f45524337323154656d706c6174653a204e4f542053544f5245205550444154456044820152602960f91b60648201526084016108f6565b600c5460009060ff16156116835760405162461bcd60e51b815260206004820152603260248201527f45524337323154656d706c6174653a20746f6b656e20696e7374616e636520616044820152711b1c9958591e481a5b9a5d1a585b1a5e995960721b60648201526084016108f6565b60006116fb8989898080601f01602080910402602001604051908101604052809392919081815260200183838082843760009201919091525050604080516020601f8d018190048102820181019092528b815292508b91508a90819084018382808284376000920191909152508a925061218a915050565b905080801561171257506001600160a01b03831615155b1561172057611720836113af565b98975050505050505050565b60006001600160a01b0382166117975760405162461bcd60e51b815260206004820152602a60248201527f4552433732313a2062616c616e636520717565727920666f7220746865207a65604482015269726f206164647265737360b01b60648201526084016108f6565b506001600160a01b031660009081526003602052604090205490565b600d8054610c5a90613a45565b6060600b8054610a1f90613a45565b6001600160a01b0382163314156118285760405162461bcd60e51b815260206004820152601960248201527f4552433732313a20617070726f766520746f2063616c6c65720000000000000060448201526064016108f6565b3360008181526005602090815260408083206001600160a01b03871680855290835292819020805460ff191686151590811790915590519081529192917f17307eab39ab6107e8899845ad3d59bd9653f200f220920489ca2b5937696c319101610e1c565b6118976001611526565b6001600160a01b0316336001600160a01b0316146118c75760405162461bcd60e51b81526004016108f69061375f565b6110f98161229e565b600781815481106118e057600080fd5b6000918252602090912001546001600160a01b0316905081565b3360009081526006602052604090205460ff16151560011461192e5760405162461bcd60e51b81526004016108f690613833565b61193b85858585856122fe565b5050505050565b6000818152600260205260409020546060906001600160a01b03166119c15760405162461bcd60e51b815260206004820152602f60248201527f4552433732314d657461646174613a2055524920717565727920666f72206e6f60448201526e3732bc34b9ba32b73a103a37b5b2b760891b60648201526084016108f6565b60006119d860408051602081019091526000815290565b905060008151116119f85760405180602001604052806000815250611a23565b80611a0284612527565b604051602001611a139291906135ec565b6040516020818303038152906040525b9392505050565b606080600080600d600e600f60009054906101000a900460ff16600c60019054906101000a900460ff16838054611a6090613a45565b80601f0160208091040260200160405190810160405280929190818152602001828054611a8c90613a45565b8015611ad95780601f10611aae57610100808354040283529160200191611ad9565b820191906000526020600020905b815481529060010190602001808311611abc57829003601f168201915b50505050509350828054611aec90613a45565b80601f0160208091040260200160405190810160405280929190818152602001828054611b1890613a45565b8015611b655780601f10611b3a57610100808354040283529160200191611b65565b820191906000526020600020905b815481529060010190602001808311611b4857829003601f168201915b50505050509250935093509350935090919293565b611b846001611526565b6001600160a01b03166108fc479081150290604051600060405180830381858888f193505050501580156110f9573d6000803e3d6000fd5b3360009081526006602052604081205460ff610100909104161515600114611c355760405162461bcd60e51b815260206004820152602660248201527f45524337323154656d706c6174653a204e4f542045524332304445504c4f5945604482015265525f524f4c4560d01b60648201526084016108f6565b600f54604051630557fcfb60e41b815260009161010090046001600160a01b03169063557fcfb090611c7b908e908e908e908e908e908e908e908e908e9060040161386a565b602060405180830381600087803b158015611c9557600080fd5b505af1158015611ca9573d6000803e3d6000fd5b505050506040513d601f19601f82011682018060405250810190611ccd919061307b565b6001600160a01b0381166000818152601260205260408120805460ff191660019081179091556010805491820181559091527f1b6847dc741a1b0cd08d278845f9d819d87b734759afb55fe2de5cb82a9ae6720180546001600160a01b03191690911790559150509998505050505050505050565b3360009081526006602052604090205460ff16151560011480611d925750336001600160a01b038216148015611d9257503360009081526006602052604090205460ff6101009091041615156001145b15611df8576001600160a01b03811660008181526006602052604090819020805461ff00191681559051909133917f59bd33f4c27cc16a2d74450e1fa43d7896020be9aecea4bee009db9294de899790610e1c9042904390918252602082015260400190565b60405162461bcd60e51b815260206004820152604360248201527f455243373231526f6c6573416464726573733a204e6f7420656e6f756768207060448201527f65726d697373696f6e7320746f2072656d6f76652066726f6d2045524332304c6064820152621a5cdd60ea1b608482015260a4016108f6565b600081815260046020526040902080546001600160a01b0319166001600160a01b0384169081179091558190611ea782611526565b6001600160a01b03167f8c5be1e5ebec7d5bd14f71427d1e84f3dd0314c0f7b2291e5b200ac8c7c3b92560405160405180910390a45050565b6000838152600960205260409020611ef9908383612ea5565b50827fece574603820d07bc9b91f2a932baadf4628aabcb8afba49776529c14a6104b28383604051611f2c9291906136a5565b60405180910390a2505050565b60005b81811015611fca5760108181548110611f5757611f57613adb565b6000918252602082200154604080516382c03da560e01b815290516001600160a01b03909216926382c03da59260048084019382900301818387803b158015611f9f57600080fd5b505af1158015611fb3573d6000803e3d6000fd5b505050508080611fc290613a80565b915050611f3c565b5050565b60005b6007548110156120375760006006600060078481548110611ff457611ff4613adb565b60009182526020808320909101546001600160a01b031683528201929092526040019020805464ffffffffff19169055508061202f81613a80565b915050611fd1565b5061204460076000612f29565b6040805142815243602082015233917f712bc71db81927a76b8bf1ea346247bb0ad58f18e4e5c1bd4aa0ec6573e02a2b910160405180910390a2565b61208a3382612625565b6120a65760405162461bcd60e51b81526004016108f6906137e2565b610c4883838360405180602001604052806000815250612152565b6001600160a01b038116600081815260066020526040808220805460ff191660019081178255600780549182018155909352600080516020613b3383398151915290920180546001600160a01b0319168417905551909133917faf8fc8b6726138c96881c895390a08e9d91a94c288f06281e7f9821c49c7155b90610e1c9042904390918252602082015260400190565b61215c3383612625565b6121785760405162461bcd60e51b81526004016108f6906137e2565b61218484848484612718565b50505050565b60006001600160a01b0385166121f95760405162461bcd60e51b815260206004820152602e60248201527f45524337323154656d706c6174653a3a20496e76616c6964206d696e7465722c60448201526d20207a65726f206164647265737360901b60648201526084016108f6565b835161220c90600a906020870190612f47565b50825161222090600b906020860190612f47565b50600f8054610100600160a81b0319166101006001600160a01b03851602179055600c805460ff1916600190811790915561225c90869061274b565b612265856120c1565b506001600160a01b0384166000908152600660205260409020805463ffffff0019166301010100179055600c5460ff165b949350505050565b6001600160a01b03811660008181526006602052604090819020805460ff191681559051909133917fb572db0e6da4924b771ed1712b980d48b5992b9a1c27aede55fbb3318c48996a90610e1c9042904390918252602082015260400190565b82846001600160a01b0316867f1f920dbda597d7bf95035464170fa58d0a4b57f13a1c315ace6793b9f63688b8858560405161233b9291906136a5565b60405180910390a460006109c45a6123539190613a02565b9050856123a35761239d858585858080601f016020809104026020016040519081016040528093929190818152602001838380828437600092019190915250879250612765915050565b5061251f565b60038614156123ec5761239d8484848080601f01602080910402602001604051908101604052809392919081815260200183838082843760009201919091525061277d92505050565b60028614156124e057600061244384848080601f01602080910402602001604051908101604052809392919081815260200183838082843760009201919091525061243e925060209150879050613a02565b612819565b9050600061249285858080601f0160208091040260200160405190810160405280939291908181526020018383808284376000920182905250925061248d91506020905088613a02565b612877565b905060006124a1878484612984565b6040519091506001600160a01b038216907fcf78cf0d6f3d8371e1075c69c492ab4ec5d8cf23a1a239b6a51a1d00be7ca31290600090a250505061251f565b60405162461bcd60e51b815260206004820152601460248201527357726f6e67206f7065726174696f6e207479706560601b60448201526064016108f6565b505050505050565b60608161254b5750506040805180820190915260018152600360fc1b602082015290565b8160005b8115612575578061255f81613a80565b915061256e9050600a836139ee565b915061254f565b60008167ffffffffffffffff81111561259057612590613af1565b6040519080825280601f01601f1916602001820160405280156125ba576020820181803683370190505b5090505b8415612296576125cf600183613a02565b91506125dc600a86613a9b565b6125e79060306139d6565b60f81b8183815181106125fc576125fc613adb565b60200101906001600160f81b031916908160001a90535061261e600a866139ee565b94506125be565b6000818152600260205260408120546001600160a01b031661269e5760405162461bcd60e51b815260206004820152602c60248201527f4552433732313a206f70657261746f7220717565727920666f72206e6f6e657860448201526b34b9ba32b73a103a37b5b2b760a11b60648201526084016108f6565b60006126a983611526565b9050806001600160a01b0316846001600160a01b031614806126e45750836001600160a01b03166126d984610aa2565b6001600160a01b0316145b8061229657506001600160a01b0380821660009081526005602090815260408083209388168352929052205460ff16612296565b612723848484612a86565b61272f84848484612c26565b6121845760405162461bcd60e51b81526004016108f69061370d565b611fca828260405180602001604052806000815250612d30565b6000806000845160208601878987f195945050505050565b600081516020830184f090506001600160a01b0381166127df5760405162461bcd60e51b815260206004820152601960248201527f436f756c64206e6f74206465706c6f7920636f6e74726163740000000000000060448201526064016108f6565b6040516001600160a01b038216907fcf78cf0d6f3d8371e1075c69c492ab4ec5d8cf23a1a239b6a51a1d00be7ca31290600090a292915050565b60006128268260206139d6565b8351101561286e5760405162461bcd60e51b8152602060048201526015602482015274746f427974657333325f6f75744f66426f756e647360581b60448201526064016108f6565b50016020015190565b60608161288581601f6139d6565b10156128c45760405162461bcd60e51b815260206004820152600e60248201526d736c6963655f6f766572666c6f7760901b60448201526064016108f6565b6128ce82846139d6565b845110156129125760405162461bcd60e51b8152602060048201526011602482015270736c6963655f6f75744f66426f756e647360781b60448201526064016108f6565b606082158015612931576040519150600082526020820160405261297b565b6040519150601f8416801560200281840101858101878315602002848b0101015b8183101561296a578051835260209283019201612952565b5050858452601f01601f1916604052505b50949350505050565b600080844710156129d75760405162461bcd60e51b815260206004820152601d60248201527f437265617465323a20696e73756666696369656e742062616c616e636500000060448201526064016108f6565b8251612a255760405162461bcd60e51b815260206004820181905260248201527f437265617465323a2062797465636f6465206c656e677468206973207a65726f60448201526064016108f6565b8383516020850187f590506001600160a01b0381166122965760405162461bcd60e51b815260206004820152601960248201527f437265617465323a204661696c6564206f6e206465706c6f790000000000000060448201526064016108f6565b826001600160a01b0316612a9982611526565b6001600160a01b031614612b015760405162461bcd60e51b815260206004820152602960248201527f4552433732313a207472616e73666572206f6620746f6b656e2074686174206960448201526839903737ba1037bbb760b91b60648201526084016108f6565b6001600160a01b038216612b635760405162461bcd60e51b8152602060048201526024808201527f4552433732313a207472616e7366657220746f20746865207a65726f206164646044820152637265737360e01b60648201526084016108f6565b612b6e600082611e72565b6001600160a01b0383166000908152600360205260408120805460019290612b97908490613a02565b90915550506001600160a01b0382166000908152600360205260408120805460019290612bc59084906139d6565b909155505060008181526002602052604080822080546001600160a01b0319166001600160a01b0386811691821790925591518493918716917fddf252ad1be2c89b69c2b068fc378daa952ba7f163c4a11628f55a4df523b3ef91a4505050565b60006001600160a01b0384163b15612d2857604051630a85bd0160e11b81526001600160a01b0385169063150b7a0290612c6a90339089908890889060040161361b565b602060405180830381600087803b158015612c8457600080fd5b505af1925050508015612cb4575060408051601f3d908101601f19168201909252612cb19181019061329c565b60015b612d0e573d808015612ce2576040519150601f19603f3d011682016040523d82523d6000602084013e612ce7565b606091505b508051612d065760405162461bcd60e51b81526004016108f69061370d565b805181602001fd5b6001600160e01b031916630a85bd0160e11b149050612296565b506001612296565b612d3a8383612d63565b612d476000848484612c26565b610c485760405162461bcd60e51b81526004016108f69061370d565b6001600160a01b038216612db95760405162461bcd60e51b815260206004820181905260248201527f4552433732313a206d696e7420746f20746865207a65726f206164647265737360448201526064016108f6565b6000818152600260205260409020546001600160a01b031615612e1e5760405162461bcd60e51b815260206004820152601c60248201527f4552433732313a20746f6b656e20616c7265616479206d696e7465640000000060448201526064016108f6565b6001600160a01b0382166000908152600360205260408120805460019290612e479084906139d6565b909155505060008181526002602052604080822080546001600160a01b0319166001600160a01b03861690811790915590518392907fddf252ad1be2c89b69c2b068fc378daa952ba7f163c4a11628f55a4df523b3ef908290a45050565b828054612eb190613a45565b90600052602060002090601f016020900481019282612ed35760008555612f19565b82601f10612eec5782800160ff19823516178555612f19565b82800160010185558215612f19579182015b82811115612f19578235825591602001919060010190612efe565b50612f25929150612fbb565b5090565b50805460008255906000526020600020908101906110f99190612fbb565b828054612f5390613a45565b90600052602060002090601f016020900481019282612f755760008555612f19565b82601f10612f8e57805160ff1916838001178555612f19565b82800160010185558215612f19579182015b82811115612f19578251825591602001919060010190612fa0565b5b80821115612f255760008155600101612fbc565b60008083601f840112612fe257600080fd5b50813567ffffffffffffffff811115612ffa57600080fd5b6020830191508360208260051b850101111561301557600080fd5b9250929050565b60008083601f84011261302e57600080fd5b50813567ffffffffffffffff81111561304657600080fd5b60208301915083602082850101111561301557600080fd5b60006020828403121561307057600080fd5b8135611a2381613b07565b60006020828403121561308d57600080fd5b8151611a2381613b07565b600080604083850312156130ab57600080fd5b82356130b681613b07565b915060208301356130c681613b07565b809150509250929050565b6000806000606084860312156130e657600080fd5b83356130f181613b07565b9250602084013561310181613b07565b929592945050506040919091013590565b6000806040838503121561312557600080fd5b823561313081613b07565b9150602083013580151581146130c657600080fd5b600080600080600080600060a0888a03121561316057600080fd5b873561316b81613b07565b9650602088013567ffffffffffffffff8082111561318857600080fd5b6131948b838c0161301c565b909850965060408a01359150808211156131ad57600080fd5b506131ba8a828b0161301c565b90955093505060608801356131ce81613b07565b915060808801356131de81613b07565b8091505092959891949750929550565b6000806040838503121561320157600080fd5b823561320c81613b07565b946020939093013593505050565b60006020828403121561322c57600080fd5b5035919050565b60008060006040848603121561324857600080fd5b83359250602084013567ffffffffffffffff81111561326657600080fd5b6132728682870161301c565b9497909650939450505050565b60006020828403121561329157600080fd5b8135611a2381613b1c565b6000602082840312156132ae57600080fd5b8151611a2381613b1c565b6000806000806000608086880312156132d157600080fd5b8535945060208601356132e381613b07565b935060408601359250606086013567ffffffffffffffff81111561330657600080fd5b6133128882890161301c565b969995985093965092949392505050565b600080600080600080600080600060a08a8c03121561334157600080fd5b8935985060208a013567ffffffffffffffff8082111561336057600080fd5b61336c8d838e01612fd0565b909a50985060408c013591508082111561338557600080fd5b6133918d838e01612fd0565b909850965060608c01359150808211156133aa57600080fd5b6133b68d838e01612fd0565b909650945060808c01359150808211156133cf57600080fd5b506133dc8c828d01612fd0565b915080935050809150509295985092959850929598565b600080600080600080600080600060a08a8c03121561341157600080fd5b893560ff8116811461342257600080fd5b985060208a013567ffffffffffffffff8082111561343f57600080fd5b61344b8d838e0161301c565b909a50985060408c013591508082111561346457600080fd5b6134708d838e0161301c565b909850965060608c013591508082111561348957600080fd5b6134958d838e0161301c565b909650945060808c01359150808211156134ae57600080fd5b506133dc8c828d0161301c565b8183526000602080850194508260005b858110156134f95781356134de81613b07565b6001600160a01b0316875295820195908201906001016134cb565b509495945050505050565b81835260006020808501808196508560051b810191508460005b878110156135545782840389526135358288613990565b613540868284613597565b9a87019a955050509084019060010161351e565b5091979650505050505050565b81835260006001600160fb1b0383111561357a57600080fd5b8260051b8083602087013760009401602001938452509192915050565b81835281816020850137506000828201602090810191909152601f909101601f19169091010190565b600081518084526135d8816020860160208601613a19565b601f01601f19169290920160200192915050565b600083516135fe818460208801613a19565b835190830190613612818360208801613a19565b01949350505050565b6001600160a01b038581168252841660208201526040810183905260806060820181905260009061364e908301846135c0565b9695505050505050565b6020808252825182820181905260009190848201906040850190845b818110156136995783516001600160a01b031683529284019291840191600101613674565b50909695505050505050565b602081526000612296602083018486613597565b602081526000611a2360208301846135c0565b6080815260006136df60808301876135c0565b82810360208401526136f181876135c0565b60ff959095166040840152505090151560609091015292915050565b60208082526032908201527f4552433732313a207472616e7366657220746f206e6f6e20455243373231526560408201527131b2b4bb32b91034b6b83632b6b2b73a32b960711b606082015260800190565b6020808252601c908201527f45524337323154656d706c6174653a206e6f74204e46544f776e657200000000604082015260600190565b6020808252602c908201527f45524337323154656d706c6174653a2043616e6e6f74207472616e736665722060408201526b1d1a1a5cc81d1bdad95b925960a21b606082015260800190565b60208082526031908201527f4552433732313a207472616e736665722063616c6c6572206973206e6f74206f6040820152701ddb995c881b9bdc88185c1c1c9bdd9959607a1b606082015260800190565b6020808252601f908201527f455243373231526f6c6573416464726573733a204e4f54204d414e4147455200604082015260600190565b89815260a0602082018190528101889052600060c060058a901b830181019083018b835b8c8110156138cb5785840360bf190183526138a9828f613990565b6138b4868284613597565b95505050602092830192919091019060010161388e565b50505082810360408401526138e181898b6134bb565b905082810360608401526138f6818789613561565b9050828103608084015261390b818587613504565b9c9b505050505050505050505050565b60ff8c16815260e06020820152600061393860e083018c8e613597565b828103604084015261394b818b8d613597565b9050828103606084015261396081898b613597565b90508281036080840152613975818789613597565b60a0840195909552505060c001529998505050505050505050565b6000808335601e198436030181126139a757600080fd5b830160208101925035905067ffffffffffffffff8111156139c757600080fd5b80360383131561301557600080fd5b600082198211156139e9576139e9613aaf565b500190565b6000826139fd576139fd613ac5565b500490565b600082821015613a1457613a14613aaf565b500390565b60005b83811015613a34578181015183820152602001613a1c565b838111156121845750506000910152565b600181811c90821680613a5957607f821691505b60208210811415613a7a57634e487b7160e01b600052602260045260246000fd5b50919050565b6000600019821415613a9457613a94613aaf565b5060010190565b600082613aaa57613aaa613ac5565b500690565b634e487b7160e01b600052601160045260246000fd5b634e487b7160e01b600052601260045260246000fd5b634e487b7160e01b600052603260045260246000fd5b634e487b7160e01b600052604160045260246000fd5b6001600160a01b03811681146110f957600080fd5b6001600160e01b0319811681146110f957600080fdfea66cc928b5edb82af9bd49922954155ab7b0942694bea4ce44661d9a8736c688a2646970667358221220bf1f7e9853a5f4f8fc0331c1ac0d40b3e27d7202a2c84f580fd9b14a4f031e5f64736f6c63430008070033",
  "linkReferences": {},
  "deployedLinkReferences": {}
}