{
  "_format": "hh-sol-artifact-1",
  "contractName": "ERC721Template",
  "sourceName": "contracts/templates/ERC721Template.sol",
  "abi": [
    {
      "anonymous": false,
      "inputs": [
        {
          "indexed": true,
          "internalType": "address",
          "name": "user",
          "type": "address"
        },
        {
          "indexed": true,
          "internalType": "address",
          "name": "signer",
          "type": "address"
        },
        {
          "indexed": false,
          "internalType": "uint256",
          "name": "timestamp",
          "type": "uint256"
        },
        {
          "indexed": false,
          "internalType": "uint256",
          "name": "blockNumber",
          "type": "uint256"
        }
      ],
      "name": "AddedManager",
      "type": "event"
    },
    {
      "anonymous": false,
      "inputs": [
        {
          "indexed": true,
          "internalType": "address",
          "name": "user",
          "type": "address"
        },
        {
          "indexed": true,
          "internalType": "address",
          "name": "signer",
          "type": "address"
        },
        {
          "indexed": false,
          "internalType": "uint256",
          "name": "timestamp",
          "type": "uint256"
        },
        {
          "indexed": false,
          "internalType": "uint256",
          "name": "blockNumber",
          "type": "uint256"
        }
      ],
      "name": "AddedTo725StoreList",
      "type": "event"
    },
    {
      "anonymous": false,
      "inputs": [
        {
          "indexed": true,
          "internalType": "address",
          "name": "user",
          "type": "address"
        },
        {
          "indexed": true,
          "internalType": "address",
          "name": "signer",
          "type": "address"
        },
        {
          "indexed": false,
          "internalType": "uint256",
          "name": "timestamp",
          "type": "uint256"
        },
        {
          "indexed": false,
          "internalType": "uint256",
          "name": "blockNumber",
          "type": "uint256"
        }
      ],
      "name": "AddedToCreateERC20List",
      "type": "event"
    },
    {
      "anonymous": false,
      "inputs": [
        {
          "indexed": true,
          "internalType": "address",
          "name": "user",
          "type": "address"
        },
        {
          "indexed": true,
          "internalType": "address",
          "name": "signer",
          "type": "address"
        },
        {
          "indexed": false,
          "internalType": "uint256",
          "name": "timestamp",
          "type": "uint256"
        },
        {
          "indexed": false,
          "internalType": "uint256",
          "name": "blockNumber",
          "type": "uint256"
        }
      ],
      "name": "AddedToMetadataList",
      "type": "event"
    },
    {
      "anonymous": false,
      "inputs": [
        {
          "indexed": true,
          "internalType": "address",
          "name": "owner",
          "type": "address"
        },
        {
          "indexed": true,
          "internalType": "address",
          "name": "approved",
          "type": "address"
        },
        {
          "indexed": true,
          "internalType": "uint256",
          "name": "tokenId",
          "type": "uint256"
        }
      ],
      "name": "Approval",
      "type": "event"
    },
    {
      "anonymous": false,
      "inputs": [
        {
          "indexed": true,
          "internalType": "address",
          "name": "owner",
          "type": "address"
        },
        {
          "indexed": true,
          "internalType": "address",
          "name": "operator",
          "type": "address"
        },
        {
          "indexed": false,
          "internalType": "bool",
          "name": "approved",
          "type": "bool"
        }
      ],
      "name": "ApprovalForAll",
      "type": "event"
    },
    {
      "anonymous": false,
      "inputs": [
        {
          "indexed": true,
          "internalType": "address",
          "name": "signer",
          "type": "address"
        },
        {
          "indexed": false,
          "internalType": "uint256",
          "name": "timestamp",
          "type": "uint256"
        },
        {
          "indexed": false,
          "internalType": "uint256",
          "name": "blockNumber",
          "type": "uint256"
        }
      ],
      "name": "CleanedPermissions",
      "type": "event"
    },
    {
      "anonymous": false,
      "inputs": [
        {
          "indexed": true,
          "internalType": "address",
          "name": "contractAddress",
          "type": "address"
        }
      ],
      "name": "ContractCreated",
      "type": "event"
    },
    {
      "anonymous": false,
      "inputs": [
        {
          "indexed": true,
          "internalType": "bytes32",
          "name": "key",
          "type": "bytes32"
        },
        {
          "indexed": false,
          "internalType": "bytes",
          "name": "value",
          "type": "bytes"
        }
      ],
      "name": "DataChanged",
      "type": "event"
    },
    {
      "anonymous": false,
      "inputs": [
        {
          "indexed": true,
          "internalType": "uint256",
          "name": "_operation",
          "type": "uint256"
        },
        {
          "indexed": true,
          "internalType": "address",
          "name": "_to",
          "type": "address"
        },
        {
          "indexed": true,
          "internalType": "uint256",
          "name": "_value",
          "type": "uint256"
        },
        {
          "indexed": false,
          "internalType": "bytes",
          "name": "_data",
          "type": "bytes"
        }
      ],
      "name": "Executed",
      "type": "event"
    },
    {
      "anonymous": false,
      "inputs": [
        {
          "indexed": true,
          "internalType": "address",
          "name": "createdBy",
          "type": "address"
        },
        {
          "indexed": false,
          "internalType": "uint8",
          "name": "state",
          "type": "uint8"
        },
        {
          "indexed": false,
          "internalType": "string",
          "name": "decryptorUrl",
          "type": "string"
        },
        {
          "indexed": false,
          "internalType": "bytes",
          "name": "flags",
          "type": "bytes"
        },
        {
          "indexed": false,
          "internalType": "bytes",
          "name": "data",
          "type": "bytes"
        },
        {
          "indexed": false,
          "internalType": "bytes32",
          "name": "metaDataHash",
          "type": "bytes32"
        },
        {
          "indexed": false,
          "internalType": "uint256",
          "name": "timestamp",
          "type": "uint256"
        },
        {
          "indexed": false,
          "internalType": "uint256",
          "name": "blockNumber",
          "type": "uint256"
        }
      ],
      "name": "MetadataCreated",
      "type": "event"
    },
    {
      "anonymous": false,
      "inputs": [
        {
          "indexed": true,
          "internalType": "address",
          "name": "updatedBy",
          "type": "address"
        },
        {
          "indexed": false,
          "internalType": "uint8",
          "name": "state",
          "type": "uint8"
        },
        {
          "indexed": false,
          "internalType": "uint256",
          "name": "timestamp",
          "type": "uint256"
        },
        {
          "indexed": false,
          "internalType": "uint256",
          "name": "blockNumber",
          "type": "uint256"
        }
      ],
      "name": "MetadataState",
      "type": "event"
    },
    {
      "anonymous": false,
      "inputs": [
        {
          "indexed": true,
          "internalType": "address",
          "name": "updatedBy",
          "type": "address"
        },
        {
          "indexed": false,
          "internalType": "uint8",
          "name": "state",
          "type": "uint8"
        },
        {
          "indexed": false,
          "internalType": "string",
          "name": "decryptorUrl",
          "type": "string"
        },
        {
          "indexed": false,
          "internalType": "bytes",
          "name": "flags",
          "type": "bytes"
        },
        {
          "indexed": false,
          "internalType": "bytes",
          "name": "data",
          "type": "bytes"
        },
        {
          "indexed": false,
          "internalType": "bytes32",
          "name": "metaDataHash",
          "type": "bytes32"
        },
        {
          "indexed": false,
          "internalType": "uint256",
          "name": "timestamp",
          "type": "uint256"
        },
        {
          "indexed": false,
          "internalType": "uint256",
          "name": "blockNumber",
          "type": "uint256"
        }
      ],
      "name": "MetadataUpdated",
      "type": "event"
    },
    {
      "anonymous": false,
      "inputs": [
        {
          "indexed": true,
          "internalType": "address",
          "name": "validator",
          "type": "address"
        },
        {
          "indexed": false,
          "internalType": "bytes32",
          "name": "metaDataHash",
          "type": "bytes32"
        },
        {
          "indexed": false,
          "internalType": "uint8",
          "name": "v",
          "type": "uint8"
        },
        {
          "indexed": false,
          "internalType": "bytes32",
          "name": "r",
          "type": "bytes32"
        },
        {
          "indexed": false,
          "internalType": "bytes32",
          "name": "s",
          "type": "bytes32"
        }
      ],
      "name": "MetadataValidated",
      "type": "event"
    },
    {
      "anonymous": false,
      "inputs": [
        {
          "indexed": true,
          "internalType": "address",
          "name": "user",
          "type": "address"
        },
        {
          "indexed": true,
          "internalType": "address",
          "name": "signer",
          "type": "address"
        },
        {
          "indexed": false,
          "internalType": "uint256",
          "name": "timestamp",
          "type": "uint256"
        },
        {
          "indexed": false,
          "internalType": "uint256",
          "name": "blockNumber",
          "type": "uint256"
        }
      ],
      "name": "RemovedFrom725StoreList",
      "type": "event"
    },
    {
      "anonymous": false,
      "inputs": [
        {
          "indexed": true,
          "internalType": "address",
          "name": "user",
          "type": "address"
        },
        {
          "indexed": true,
          "internalType": "address",
          "name": "signer",
          "type": "address"
        },
        {
          "indexed": false,
          "internalType": "uint256",
          "name": "timestamp",
          "type": "uint256"
        },
        {
          "indexed": false,
          "internalType": "uint256",
          "name": "blockNumber",
          "type": "uint256"
        }
      ],
      "name": "RemovedFromCreateERC20List",
      "type": "event"
    },
    {
      "anonymous": false,
      "inputs": [
        {
          "indexed": true,
          "internalType": "address",
          "name": "user",
          "type": "address"
        },
        {
          "indexed": true,
          "internalType": "address",
          "name": "signer",
          "type": "address"
        },
        {
          "indexed": false,
          "internalType": "uint256",
          "name": "timestamp",
          "type": "uint256"
        },
        {
          "indexed": false,
          "internalType": "uint256",
          "name": "blockNumber",
          "type": "uint256"
        }
      ],
      "name": "RemovedFromMetadataList",
      "type": "event"
    },
    {
      "anonymous": false,
      "inputs": [
        {
          "indexed": true,
          "internalType": "address",
          "name": "user",
          "type": "address"
        },
        {
          "indexed": true,
          "internalType": "address",
          "name": "signer",
          "type": "address"
        },
        {
          "indexed": false,
          "internalType": "uint256",
          "name": "timestamp",
          "type": "uint256"
        },
        {
          "indexed": false,
          "internalType": "uint256",
          "name": "blockNumber",
          "type": "uint256"
        }
      ],
      "name": "RemovedManager",
      "type": "event"
    },
    {
      "anonymous": false,
      "inputs": [
        {
          "indexed": true,
          "internalType": "address",
          "name": "newTokenAddress",
          "type": "address"
        },
        {
          "indexed": true,
          "internalType": "address",
          "name": "templateAddress",
          "type": "address"
        },
        {
          "indexed": false,
          "internalType": "string",
          "name": "name",
          "type": "string"
        },
        {
          "indexed": false,
          "internalType": "string",
          "name": "symbol",
          "type": "string"
        },
        {
          "indexed": false,
          "internalType": "uint256",
          "name": "cap",
          "type": "uint256"
        },
        {
          "indexed": false,
          "internalType": "address",
          "name": "creator",
          "type": "address"
        }
      ],
      "name": "TokenCreated",
      "type": "event"
    },
    {
      "anonymous": false,
      "inputs": [
        {
          "indexed": true,
          "internalType": "address",
          "name": "updatedBy",
          "type": "address"
        },
        {
          "indexed": false,
          "internalType": "string",
          "name": "tokenURI",
          "type": "string"
        },
        {
          "indexed": false,
          "internalType": "uint256",
          "name": "tokenID",
          "type": "uint256"
        },
        {
          "indexed": false,
          "internalType": "uint256",
          "name": "timestamp",
          "type": "uint256"
        },
        {
          "indexed": false,
          "internalType": "uint256",
          "name": "blockNumber",
          "type": "uint256"
        }
      ],
      "name": "TokenURIUpdate",
      "type": "event"
    },
    {
      "anonymous": false,
      "inputs": [
        {
          "indexed": true,
          "internalType": "address",
          "name": "from",
          "type": "address"
        },
        {
          "indexed": true,
          "internalType": "address",
          "name": "to",
          "type": "address"
        },
        {
          "indexed": true,
          "internalType": "uint256",
          "name": "tokenId",
          "type": "uint256"
        }
      ],
      "name": "Transfer",
      "type": "event"
    },
    {
      "stateMutability": "payable",
      "type": "fallback"
    },
    {
      "inputs": [
        {
          "internalType": "address",
          "name": "_managerAddress",
          "type": "address"
        }
      ],
      "name": "addManager",
      "outputs": [],
      "stateMutability": "nonpayable",
      "type": "function"
    },
    {
      "inputs": [
        {
          "internalType": "address[]",
          "name": "addresses",
          "type": "address[]"
        },
        {
          "internalType": "enum ERC721RolesAddress.RolesType[]",
          "name": "roles",
          "type": "uint8[]"
        }
      ],
      "name": "addMultipleUsersToRoles",
      "outputs": [],
      "stateMutability": "nonpayable",
      "type": "function"
    },
    {
      "inputs": [
        {
          "internalType": "address",
          "name": "_allowedAddress",
          "type": "address"
        }
      ],
      "name": "addTo725StoreList",
      "outputs": [],
      "stateMutability": "nonpayable",
      "type": "function"
    },
    {
      "inputs": [
        {
          "internalType": "address",
          "name": "_allowedAddress",
          "type": "address"
        }
      ],
      "name": "addToCreateERC20List",
      "outputs": [],
      "stateMutability": "nonpayable",
      "type": "function"
    },
    {
      "inputs": [
        {
          "internalType": "address",
          "name": "_allowedAddress",
          "type": "address"
        }
      ],
      "name": "addToMetadataList",
      "outputs": [],
      "stateMutability": "nonpayable",
      "type": "function"
    },
    {
      "inputs": [
        {
          "internalType": "address",
          "name": "to",
          "type": "address"
        },
        {
          "internalType": "uint256",
          "name": "tokenId",
          "type": "uint256"
        }
      ],
      "name": "approve",
      "outputs": [],
      "stateMutability": "nonpayable",
      "type": "function"
    },
    {
      "inputs": [
        {
          "internalType": "uint256",
          "name": "",
          "type": "uint256"
        }
      ],
      "name": "auth",
      "outputs": [
        {
          "internalType": "address",
          "name": "",
          "type": "address"
        }
      ],
      "stateMutability": "view",
      "type": "function"
    },
    {
      "inputs": [
        {
          "internalType": "address",
          "name": "owner",
          "type": "address"
        }
      ],
      "name": "balanceOf",
      "outputs": [
        {
          "internalType": "uint256",
          "name": "",
          "type": "uint256"
        }
      ],
      "stateMutability": "view",
      "type": "function"
    },
    {
      "inputs": [],
      "name": "baseURI",
      "outputs": [
        {
          "internalType": "string",
          "name": "",
          "type": "string"
        }
      ],
      "stateMutability": "view",
      "type": "function"
    },
    {
      "inputs": [],
      "name": "cleanPermissions",
      "outputs": [],
      "stateMutability": "nonpayable",
      "type": "function"
    },
    {
      "inputs": [
        {
          "internalType": "uint256",
          "name": "_templateIndex",
          "type": "uint256"
        },
        {
          "internalType": "string[]",
          "name": "strings",
          "type": "string[]"
        },
        {
          "internalType": "address[]",
          "name": "addresses",
          "type": "address[]"
        },
        {
          "internalType": "uint256[]",
          "name": "uints",
          "type": "uint256[]"
        },
        {
          "internalType": "bytes[]",
          "name": "bytess",
          "type": "bytes[]"
        }
      ],
      "name": "createERC20",
      "outputs": [
        {
          "internalType": "address",
          "name": "",
          "type": "address"
        }
      ],
      "stateMutability": "nonpayable",
      "type": "function"
    },
    {
      "inputs": [
        {
          "internalType": "uint256",
          "name": "_operation",
          "type": "uint256"
        },
        {
          "internalType": "address",
          "name": "_to",
          "type": "address"
        },
        {
          "internalType": "uint256",
          "name": "_value",
          "type": "uint256"
        },
        {
          "internalType": "bytes",
          "name": "_data",
          "type": "bytes"
        }
      ],
      "name": "executeCall",
      "outputs": [],
      "stateMutability": "payable",
      "type": "function"
    },
    {
      "inputs": [
        {
          "internalType": "uint256",
          "name": "tokenId",
          "type": "uint256"
        }
      ],
      "name": "getApproved",
      "outputs": [
        {
          "internalType": "address",
          "name": "",
          "type": "address"
        }
      ],
      "stateMutability": "view",
      "type": "function"
    },
    {
      "inputs": [
        {
          "internalType": "bytes32",
          "name": "_key",
          "type": "bytes32"
        }
      ],
      "name": "getData",
      "outputs": [
        {
          "internalType": "bytes",
          "name": "_value",
          "type": "bytes"
        }
      ],
      "stateMutability": "view",
      "type": "function"
    },
    {
      "inputs": [],
      "name": "getId",
      "outputs": [
        {
          "internalType": "uint8",
          "name": "",
          "type": "uint8"
        }
      ],
      "stateMutability": "pure",
      "type": "function"
    },
    {
      "inputs": [],
      "name": "getMetaData",
      "outputs": [
        {
          "internalType": "string",
          "name": "",
          "type": "string"
        },
        {
          "internalType": "string",
          "name": "",
          "type": "string"
        },
        {
          "internalType": "uint8",
          "name": "",
          "type": "uint8"
        },
        {
          "internalType": "bool",
          "name": "",
          "type": "bool"
        }
      ],
      "stateMutability": "view",
      "type": "function"
    },
    {
      "inputs": [
        {
          "internalType": "address",
          "name": "user",
          "type": "address"
        }
      ],
      "name": "getPermissions",
      "outputs": [
        {
          "components": [
            {
              "internalType": "bool",
              "name": "manager",
              "type": "bool"
            },
            {
              "internalType": "bool",
              "name": "deployERC20",
              "type": "bool"
            },
            {
              "internalType": "bool",
              "name": "updateMetadata",
              "type": "bool"
            },
            {
              "internalType": "bool",
              "name": "store",
              "type": "bool"
            }
          ],
          "internalType": "struct ERC721RolesAddress.Roles",
          "name": "",
          "type": "tuple"
        }
      ],
      "stateMutability": "view",
      "type": "function"
    },
    {
      "inputs": [],
      "name": "getTokensList",
      "outputs": [
        {
          "internalType": "address[]",
          "name": "",
          "type": "address[]"
        }
      ],
      "stateMutability": "view",
      "type": "function"
    },
    {
      "inputs": [],
      "name": "hasMetaData",
      "outputs": [
        {
          "internalType": "bool",
          "name": "",
          "type": "bool"
        }
      ],
      "stateMutability": "view",
      "type": "function"
    },
    {
      "inputs": [
        {
          "internalType": "address",
          "name": "owner",
          "type": "address"
        },
        {
          "internalType": "string",
          "name": "name_",
          "type": "string"
        },
        {
          "internalType": "string",
          "name": "symbol_",
          "type": "string"
        },
        {
          "internalType": "address",
          "name": "tokenFactory",
          "type": "address"
        },
        {
          "internalType": "address",
          "name": "additionalERC20Deployer",
          "type": "address"
        },
        {
          "internalType": "address",
          "name": "additionalMetaDataUpdater",
          "type": "address"
        },
        {
          "internalType": "string",
          "name": "tokenURI",
          "type": "string"
        }
      ],
      "name": "initialize",
      "outputs": [
        {
          "internalType": "bool",
          "name": "",
          "type": "bool"
        }
      ],
      "stateMutability": "nonpayable",
      "type": "function"
    },
    {
      "inputs": [
        {
          "internalType": "address",
          "name": "owner",
          "type": "address"
        },
        {
          "internalType": "address",
          "name": "operator",
          "type": "address"
        }
      ],
      "name": "isApprovedForAll",
      "outputs": [
        {
          "internalType": "bool",
          "name": "",
          "type": "bool"
        }
      ],
      "stateMutability": "view",
      "type": "function"
    },
    {
      "inputs": [
        {
          "internalType": "address",
          "name": "datatoken",
          "type": "address"
        }
      ],
      "name": "isDeployed",
      "outputs": [
        {
          "internalType": "bool",
          "name": "",
          "type": "bool"
        }
      ],
      "stateMutability": "view",
      "type": "function"
    },
    {
      "inputs": [
        {
          "internalType": "address",
          "name": "account",
          "type": "address"
        }
      ],
      "name": "isERC20Deployer",
      "outputs": [
        {
          "internalType": "bool",
          "name": "",
          "type": "bool"
        }
      ],
      "stateMutability": "view",
      "type": "function"
    },
    {
      "inputs": [],
      "name": "isInitialized",
      "outputs": [
        {
          "internalType": "bool",
          "name": "",
          "type": "bool"
        }
      ],
      "stateMutability": "view",
      "type": "function"
    },
    {
      "inputs": [],
      "name": "metaDataDecryptorAddress",
      "outputs": [
        {
          "internalType": "string",
          "name": "",
          "type": "string"
        }
      ],
      "stateMutability": "view",
      "type": "function"
    },
    {
      "inputs": [],
      "name": "metaDataDecryptorUrl",
      "outputs": [
        {
          "internalType": "string",
          "name": "",
          "type": "string"
        }
      ],
      "stateMutability": "view",
      "type": "function"
    },
    {
      "inputs": [],
      "name": "metaDataState",
      "outputs": [
        {
          "internalType": "uint8",
          "name": "",
          "type": "uint8"
        }
      ],
      "stateMutability": "view",
      "type": "function"
    },
    {
      "inputs": [],
      "name": "name",
      "outputs": [
        {
          "internalType": "string",
          "name": "",
          "type": "string"
        }
      ],
      "stateMutability": "view",
      "type": "function"
    },
    {
      "inputs": [
        {
          "internalType": "uint256",
          "name": "tokenId",
          "type": "uint256"
        }
      ],
      "name": "ownerOf",
      "outputs": [
        {
          "internalType": "address",
          "name": "",
          "type": "address"
        }
      ],
      "stateMutability": "view",
      "type": "function"
    },
    {
      "inputs": [
        {
          "internalType": "address",
          "name": "_allowedAddress",
          "type": "address"
        }
      ],
      "name": "removeFrom725StoreList",
      "outputs": [],
      "stateMutability": "nonpayable",
      "type": "function"
    },
    {
      "inputs": [
        {
          "internalType": "address",
          "name": "_allowedAddress",
          "type": "address"
        }
      ],
      "name": "removeFromCreateERC20List",
      "outputs": [],
      "stateMutability": "nonpayable",
      "type": "function"
    },
    {
      "inputs": [
        {
          "internalType": "address",
          "name": "_allowedAddress",
          "type": "address"
        }
      ],
      "name": "removeFromMetadataList",
      "outputs": [],
      "stateMutability": "nonpayable",
      "type": "function"
    },
    {
      "inputs": [
        {
          "internalType": "address",
          "name": "_managerAddress",
          "type": "address"
        }
      ],
      "name": "removeManager",
      "outputs": [],
      "stateMutability": "nonpayable",
      "type": "function"
    },
    {
      "inputs": [
        {
          "internalType": "address",
          "name": "from",
          "type": "address"
        },
        {
          "internalType": "address",
          "name": "to",
          "type": "address"
        },
        {
          "internalType": "uint256",
          "name": "tokenId",
          "type": "uint256"
        }
      ],
      "name": "safeTransferFrom",
      "outputs": [],
      "stateMutability": "nonpayable",
      "type": "function"
    },
    {
      "inputs": [
        {
          "internalType": "address",
          "name": "operator",
          "type": "address"
        },
        {
          "internalType": "bool",
          "name": "approved",
          "type": "bool"
        }
      ],
      "name": "setApprovalForAll",
      "outputs": [],
      "stateMutability": "nonpayable",
      "type": "function"
    },
    {
      "inputs": [
        {
          "internalType": "string",
          "name": "_baseURI",
          "type": "string"
        }
      ],
      "name": "setBaseURI",
      "outputs": [],
      "stateMutability": "nonpayable",
      "type": "function"
    },
    {
      "inputs": [
        {
          "internalType": "bytes32",
          "name": "_key",
          "type": "bytes32"
        },
        {
          "internalType": "bytes",
          "name": "_value",
          "type": "bytes"
        }
      ],
      "name": "setDataERC20",
      "outputs": [],
      "stateMutability": "nonpayable",
      "type": "function"
    },
    {
      "inputs": [
        {
          "internalType": "uint8",
          "name": "_metaDataState",
          "type": "uint8"
        },
        {
          "internalType": "string",
          "name": "_metaDataDecryptorUrl",
          "type": "string"
        },
        {
          "internalType": "string",
          "name": "_metaDataDecryptorAddress",
          "type": "string"
        },
        {
          "internalType": "bytes",
          "name": "flags",
          "type": "bytes"
        },
        {
          "internalType": "bytes",
          "name": "data",
          "type": "bytes"
        },
        {
          "internalType": "bytes32",
          "name": "_metaDataHash",
          "type": "bytes32"
        },
        {
          "components": [
            {
              "internalType": "address",
              "name": "validatorAddress",
              "type": "address"
            },
            {
              "internalType": "uint8",
              "name": "v",
              "type": "uint8"
            },
            {
              "internalType": "bytes32",
              "name": "r",
              "type": "bytes32"
            },
            {
              "internalType": "bytes32",
              "name": "s",
              "type": "bytes32"
            }
          ],
          "internalType": "struct ERC721Template.metaDataProof[]",
          "name": "_metadataProofs",
          "type": "tuple[]"
        }
      ],
      "name": "setMetaData",
      "outputs": [],
      "stateMutability": "nonpayable",
      "type": "function"
    },
    {
      "inputs": [
        {
          "components": [
            {
              "internalType": "uint8",
              "name": "metaDataState",
              "type": "uint8"
            },
            {
              "internalType": "string",
              "name": "metaDataDecryptorUrl",
              "type": "string"
            },
            {
              "internalType": "string",
              "name": "metaDataDecryptorAddress",
              "type": "string"
            },
            {
              "internalType": "bytes",
              "name": "flags",
              "type": "bytes"
            },
            {
              "internalType": "bytes",
              "name": "data",
              "type": "bytes"
            },
            {
              "internalType": "bytes32",
              "name": "metaDataHash",
              "type": "bytes32"
            },
            {
              "internalType": "uint256",
              "name": "tokenId",
              "type": "uint256"
            },
            {
              "internalType": "string",
              "name": "tokenURI",
              "type": "string"
            },
            {
              "components": [
                {
                  "internalType": "address",
                  "name": "validatorAddress",
                  "type": "address"
                },
                {
                  "internalType": "uint8",
                  "name": "v",
                  "type": "uint8"
                },
                {
                  "internalType": "bytes32",
                  "name": "r",
                  "type": "bytes32"
                },
                {
                  "internalType": "bytes32",
                  "name": "s",
                  "type": "bytes32"
                }
              ],
              "internalType": "struct ERC721Template.metaDataProof[]",
              "name": "metadataProofs",
              "type": "tuple[]"
            }
          ],
          "internalType": "struct ERC721Template.metaDataAndTokenURI",
          "name": "_metaDataAndTokenURI",
          "type": "tuple"
        }
      ],
      "name": "setMetaDataAndTokenURI",
      "outputs": [],
      "stateMutability": "nonpayable",
      "type": "function"
    },
    {
      "inputs": [
        {
          "internalType": "uint8",
          "name": "_metaDataState",
          "type": "uint8"
        }
      ],
      "name": "setMetaDataState",
      "outputs": [],
      "stateMutability": "nonpayable",
      "type": "function"
    },
    {
      "inputs": [
        {
          "internalType": "bytes32",
          "name": "_key",
          "type": "bytes32"
        },
        {
          "internalType": "bytes",
          "name": "_value",
          "type": "bytes"
        }
      ],
      "name": "setNewData",
      "outputs": [],
      "stateMutability": "nonpayable",
      "type": "function"
    },
    {
      "inputs": [
        {
          "internalType": "uint256",
          "name": "tokenId",
          "type": "uint256"
        },
        {
          "internalType": "string",
          "name": "tokenURI",
          "type": "string"
        }
      ],
      "name": "setTokenURI",
      "outputs": [],
      "stateMutability": "nonpayable",
      "type": "function"
    },
    {
      "inputs": [],
      "name": "ssContract",
      "outputs": [
        {
          "internalType": "address",
          "name": "",
          "type": "address"
        }
      ],
      "stateMutability": "view",
      "type": "function"
    },
    {
      "inputs": [
        {
          "internalType": "bytes4",
          "name": "interfaceId",
          "type": "bytes4"
        }
      ],
      "name": "supportsInterface",
      "outputs": [
        {
          "internalType": "bool",
          "name": "",
          "type": "bool"
        }
      ],
      "stateMutability": "view",
      "type": "function"
    },
    {
      "inputs": [],
      "name": "symbol",
      "outputs": [
        {
          "internalType": "string",
          "name": "",
          "type": "string"
        }
      ],
      "stateMutability": "view",
      "type": "function"
    },
    {
      "inputs": [
        {
          "internalType": "uint256",
          "name": "index",
          "type": "uint256"
        }
      ],
      "name": "tokenByIndex",
      "outputs": [
        {
          "internalType": "uint256",
          "name": "",
          "type": "uint256"
        }
      ],
      "stateMutability": "view",
      "type": "function"
    },
    {
      "inputs": [
        {
          "internalType": "address",
          "name": "owner",
          "type": "address"
        },
        {
          "internalType": "uint256",
          "name": "index",
          "type": "uint256"
        }
      ],
      "name": "tokenOfOwnerByIndex",
      "outputs": [
        {
          "internalType": "uint256",
          "name": "",
          "type": "uint256"
        }
      ],
      "stateMutability": "view",
      "type": "function"
    },
    {
      "inputs": [
        {
          "internalType": "uint256",
          "name": "tokenId",
          "type": "uint256"
        }
      ],
      "name": "tokenURI",
      "outputs": [
        {
          "internalType": "string",
          "name": "",
          "type": "string"
        }
      ],
      "stateMutability": "view",
      "type": "function"
    },
    {
      "inputs": [],
      "name": "totalSupply",
      "outputs": [
        {
          "internalType": "uint256",
          "name": "",
          "type": "uint256"
        }
      ],
      "stateMutability": "view",
      "type": "function"
    },
    {
      "inputs": [
        {
          "internalType": "address",
          "name": "from",
          "type": "address"
        },
        {
          "internalType": "address",
          "name": "to",
          "type": "address"
        },
        {
          "internalType": "uint256",
          "name": "tokenId",
          "type": "uint256"
        }
      ],
      "name": "transferFrom",
      "outputs": [],
      "stateMutability": "nonpayable",
      "type": "function"
    },
    {
      "inputs": [],
      "name": "withdrawETH",
      "outputs": [],
      "stateMutability": "payable",
      "type": "function"
    }
  ],
  "bytecode": "0x60806040523480156200001157600080fd5b50604080518082018252600881526754656d706c61746560c01b6020808301919091528251808401909352600e83526d15195b5c1b185d1954de5b589bdb60921b9083015290620000696301ffc9a760e01b620000d1565b81516200007e9060019060208501906200018d565b508051620000949060029060208401906200018d565b506200009f62000155565b50620000b49050632260147f60e11b620000d1565b620000c6632bd57b7360e01b620000d1565b6001600d5562000270565b6001600160e01b03198082161415620001305760405162461bcd60e51b815260206004820152601c60248201527f4552433136353a20696e76616c696420696e7465726661636520696400000000604482015260640160405180910390fd5b6001600160e01b0319166000908152602081905260409020805460ff19166001179055565b620001676380ac58cd60e01b620000d1565b62000179635b5e139f60e01b620000d1565b6200018b63780e9d6360e01b620000d1565b565b8280546200019b9062000233565b90600052602060002090601f016020900481019282620001bf57600085556200020a565b82601f10620001da57805160ff19168380011785556200020a565b828001600101855582156200020a579182015b828111156200020a578251825591602001919060010190620001ed565b50620002189291506200021c565b5090565b5b808211156200021857600081556001016200021d565b600181811c908216806200024857607f821691505b602082108114156200026a57634e487b7160e01b600052602260045260246000fd5b50919050565b61532680620002806000396000f3fe6080604052600436106102c65760003560e01c80634f6ccce71161017e578063a22cb465116100d3578063ccd7d4761161008f578063e086e5ec1161006c578063e086e5ec1461099e578063e38d7cad146109a6578063e985e9c5146109c6578063fe1ec88014610a0f57005b8063ccd7d47614610940578063d2786ba41461095a578063d8053ad31461097f57005b8063a22cb4651461088d578063ac18de43146108ad578063b0c41ead146108cd578063c2d60e6e146108ed578063c55f81261461090d578063c87b56dd1461092057005b80636c0360eb1161013a57806390184b021161011757806390184b02146107e1578063947fcb831461081a57806395d89b411461083a57806396fb3eaf1461084f57005b80636c0360eb1461079757806370a08231146107ac57806382cf129d146107cc57005b80634f6ccce7146106d557806354f6127f146106f557806355f804b3146107155780635d1ca631146107355780636352211e1461075757806367530a611461077757005b80631aa3adf91161023457806342842e0e116101f0578063467c97f5116101cd578063467c97f5146106605780634a63740a146106805780634b2ee5e9146106a05780634f189cb2146106c057005b806342842e0e146105fe578063431053ac1461061e578063466bca021461063e57005b80631aa3adf91461054657806323b872dd14610566578063273e06b3146105865780632d06177a146105a65780632f745c59146105c6578063392e53cd146105e657005b806310c558bf1161028357806310c558bf146103c6578063160a7925146103e6578063162094c4146104c357806318160ddd146104e357806319a18a851461050657806319c186e51461052657005b806301ffc9a7146102c857806306fdde0314610317578063081812fc14610339578063095ea7b3146103715780630e05662e146103915780630e57c7e8146103a6575b005b3480156102d457600080fd5b506103026102e336600461423f565b6001600160e01b03191660009081526020819052604090205460ff1690565b60405190151581526020015b60405180910390f35b34801561032357600080fd5b5061032c610a2f565b60405161030e91906142b4565b34801561034557600080fd5b506103596103543660046142c7565b610ac1565b6040516001600160a01b03909116815260200161030e565b34801561037d57600080fd5b506102c661038c366004614305565b610b4e565b34801561039d57600080fd5b5061032c610c64565b3480156103b257600080fd5b506102c66103c1366004614372565b610cf2565b3480156103d257600080fd5b506102c66103e13660046143bd565b610d67565b3480156103f257600080fd5b506104886104013660046143bd565b604080516080810182526000808252602082018190529181018290526060810191909152506001600160a01b03166000908152600a60209081526040918290208251608081018452905460ff808216151583526101008204811615159383019390935262010000810483161515938201939093526301000000909204161515606082015290565b60405161030e919081511515815260208083015115159082015260408083015115159082015260609182015115159181019190915260800190565b3480156104cf57600080fd5b506102c66104de36600461448f565b610da7565b3480156104ef57600080fd5b506104f8610e35565b60405190815260200161030e565b34801561051257600080fd5b506102c66105213660046144d5565b610e46565b34801561053257600080fd5b506102c66105413660046143bd565b610f77565b34801561055257600080fd5b506102c661056136600461462b565b611036565b34801561057257600080fd5b506102c6610581366004614732565b61108b565b34801561059257600080fd5b506102c66105a13660046143bd565b611160565b3480156105b257600080fd5b506102c66105c13660046143bd565b6112ab565b3480156105d257600080fd5b506104f86105e1366004614305565b6112ee565b3480156105f257600080fd5b5060105460ff16610302565b34801561060a57600080fd5b506102c6610619366004614732565b611319565b34801561062a57600080fd5b506102c66106393660046143bd565b6113f3565b34801561064a57600080fd5b50610653611528565b60405161030e9190614773565b34801561066c57600080fd5b506102c661067b3660046147c0565b611589565b34801561068c57600080fd5b506102c661069b3660046143bd565b611614565b3480156106ac57600080fd5b50601554610359906001600160a01b031681565b3480156106cc57600080fd5b506102c6611651565b3480156106e157600080fd5b506104f86106f03660046142c7565b6116a7565b34801561070157600080fd5b5061032c6107103660046142c7565b6116bd565b34801561072157600080fd5b506102c66107303660046147db565b61175f565b34801561074157600080fd5b5060015b60405160ff909116815260200161030e565b34801561076357600080fd5b506103596107723660046142c7565b6117ac565b34801561078357600080fd5b506102c6610792366004614372565b6117d4565b3480156107a357600080fd5b5061032c611844565b3480156107b857600080fd5b506104f86107c73660046143bd565b61184e565b3480156107d857600080fd5b5061032c6118da565b3480156107ed57600080fd5b506103026107fc3660046143bd565b6001600160a01b031660009081526016602052604090205460ff1690565b34801561082657600080fd5b5061030261083536600461480f565b6118e7565b34801561084657600080fd5b5061032c611a3a565b34801561085b57600080fd5b5061030261086a3660046143bd565b6001600160a01b03166000908152600a6020526040902054610100900460ff1690565b34801561089957600080fd5b506102c66108a83660046148ea565b611a49565b3480156108b957600080fd5b506102c66108c83660046143bd565b611b07565b3480156108d957600080fd5b506103596108e83660046142c7565b611b4a565b3480156108f957600080fd5b506102c6610908366004614991565b611b74565b6102c661091b366004614a48565b611f7c565b34801561092c57600080fd5b5061032c61093b3660046142c7565b611fc4565b34801561094c57600080fd5b506013546107459060ff1681565b34801561096657600080fd5b5061096f612112565b60405161030e9493929190614ab1565b34801561098b57600080fd5b5060105461030290610100900460ff1681565b6102c6612262565b3480156109b257600080fd5b506103596109c1366004614b36565b6122a4565b3480156109d257600080fd5b506103026109e1366004614c05565b6001600160a01b03918216600090815260086020908152604080832093909416825291909152205460ff1690565b348015610a1b57600080fd5b506102c6610a2a3660046143bd565b612474565b6060600e8054610a3e90614c33565b80601f0160208091040260200160405190810160405280929190818152602001828054610a6a90614c33565b8015610ab75780601f10610a8c57610100808354040283529160200191610ab7565b820191906000526020600020905b815481529060010190602001808311610a9a57829003601f168201915b5050505050905090565b6000610acc826125a4565b610b325760405162461bcd60e51b815260206004820152602c60248201527f4552433732313a20617070726f76656420717565727920666f72206e6f6e657860448201526b34b9ba32b73a103a37b5b2b760a11b60648201526084015b60405180910390fd5b506000908152600760205260409020546001600160a01b031690565b6000610b59826117ac565b9050806001600160a01b0316836001600160a01b03161415610bc75760405162461bcd60e51b815260206004820152602160248201527f4552433732313a20617070726f76616c20746f2063757272656e74206f776e656044820152603960f91b6064820152608401610b29565b336001600160a01b0382161480610be35750610be381336109e1565b610c555760405162461bcd60e51b815260206004820152603860248201527f4552433732313a20617070726f76652063616c6c6572206973206e6f74206f7760448201527f6e6572206e6f7220617070726f76656420666f7220616c6c00000000000000006064820152608401610b29565b610c5f83836125b1565b505050565b60128054610c7190614c33565b80601f0160208091040260200160405190810160405280929190818152602001828054610c9d90614c33565b8015610cea5780601f10610cbf57610100808354040283529160200191610cea565b820191906000526020600020905b815481529060010190602001808311610ccd57829003601f168201915b505050505081565b3360009081526016602052604090205460ff16610d5c5760405162461bcd60e51b815260206004820152602260248201527f45524337323154656d706c6174653a204e4f5420455243323020436f6e74726160448201526118dd60f21b6064820152608401610b29565b610c5f83838361261f565b336000908152600a602052604090205460ff161515600114610d9b5760405162461bcd60e51b8152600401610b2990614c6e565b610da481612678565b50565b610db0826117ac565b6001600160a01b0316336001600160a01b031614610de05760405162461bcd60e51b8152600401610b2990614ca5565b610dea82826126f9565b336001600160a01b03167f6de6cd3982065cbd31e789e3109106f4d76d1c8a46e85262045cf947fb3fd4ed82844243604051610e299493929190614cdc565b60405180910390a25050565b6000610e416005612784565b905090565b336000908152600a602052604090205462010000900460ff16610e7b5760405162461bcd60e51b8152600401610b2990614d0b565b610f28610e8b60208301836147c0565b610e986020840184614d4c565b610ea56040860186614d4c565b610eb26060880188614d4c565b610ebf60808a018a614d4c565b60a08b0135610ed26101008d018d614d92565b808060200260200160405190810160405280939291908181526020016000905b82821015610f1e57610f0f60808302860136819003810190614ddb565b81526020019060010190610ef2565b505050505061278e565b610da460c0820135610f3d60e0840184614d4c565b8080601f016020809104026020016040519081016040528093929190818152602001838380828437600092019190915250610da792505050565b336000908152600a602052604090205460ff161515600114610fab5760405162461bcd60e51b8152600401610b2990614c6e565b6001600160a01b03811615610da4576001600160a01b0381166000908152600a60205260409020805463ff00000019166301000000178155610fec82612b97565b6040805142815243602082015233916001600160a01b038516917feb09276310ed110a7e565d64966d0ff68a47112d2dd5eeb6cbd7451836ce35ee91015b60405180910390a35050565b336000908152600a602052604090205462010000900460ff1661106b5760405162461bcd60e51b8152600401610b2990614d0b565b61107e8b8b8b8b8b8b8b8b8b8b8b61278e565b5050505050505050505050565b806001146110ab5760405162461bcd60e51b8152600401610b2990614df7565b611115611110601480548060200260200160405190810160405280929190818152602001828054801561110757602002820191906000526020600020905b81546001600160a01b031681526001909101906020018083116110e9575b50505050505190565b612c4e565b61111d612cdf565b61112682612d90565b6001600160a01b0382166000908152600a60205260409020805463ffffff001916630101010017815561115a848484612e0d565b50505050565b336000908152600a602052604090205460ff161515600114806111b15750336001600160a01b0382161480156111b15750336000908152600a60205260409020546301000000900460ff1615156001145b1561122e576001600160a01b0381166000818152600a602052604090819020805463ff000000191681559051909133917fc929b18b08ffea86a1f95e29384dbe8968f2fcbd70cfd735df3aba1cc548cbf3906112199042904390918252602082015260400190565b60405180910390a361122a82612e4e565b5050565b60405162461bcd60e51b815260206004820152604660248201527f455243373231526f6c6573416464726573733a204e6f7420656e6f756768207060448201527f65726d697373696f6e7320746f2072656d6f76652066726f6d2037323553746f6064820152651c99531a5cdd60d21b608482015260a401610b29565b6112b560016117ac565b6001600160a01b0316336001600160a01b0316146112e55760405162461bcd60e51b8152600401610b2990614ca5565b610da481612d90565b6001600160a01b03821660009081526004602052604081206113109083612fc5565b90505b92915050565b806001146113395760405162461bcd60e51b8152600401610b2990614df7565b61139c6111106014805480602002602001604051908101604052809291908181526020018280548015611107576020028201919060005260206000209081546001600160a01b031681526001909101906020018083116110e95750505050505190565b6113a4612cdf565b6113ad82612d90565b6001600160a01b0382166000908152600a60209081526040808320805463ffffff0019166301010100178155815192830190915291815261115a90859085908590612fd1565b336000908152600a602052604090205460ff161515600114806114435750336001600160a01b0382161480156114435750336000908152600a602052604090205462010000900460ff1615156001145b156114aa576001600160a01b0381166000818152600a602052604090819020805462ff0000191681559051909133917f9b41e1311fa819e825bc77fa2568492112e15ea92d173f3f8ee1c8ec3c1c562b906112199042904390918252602082015260400190565b60405162461bcd60e51b815260206004820152604760248201527f455243373231526f6c6573416464726573733a204e6f7420656e6f756768207060448201527f65726d697373696f6e7320746f2072656d6f76652066726f6d206d65746164616064820152661d18481b1a5cdd60ca1b608482015260a401610b29565b60606014805480602002602001604051908101604052809291908181526020018280548015610ab757602002820191906000526020600020905b81546001600160a01b03168152600190910190602001808311611562575050505050905090565b336000908152600a602052604090205462010000900460ff166115be5760405162461bcd60e51b8152600401610b2990614d0b565b6013805460ff191660ff831690811790915560408051918252426020830152439082015233907fa8336411cc72db0e5bdc4dff989eeb35879bafaceffb59b54b37645c3395adb99060600160405180910390a250565b336000908152600a602052604090205460ff1615156001146116485760405162461bcd60e51b8152600401610b2990614c6e565b610da481613003565b61165b60016117ac565b6001600160a01b0316336001600160a01b03161461168b5760405162461bcd60e51b8152600401610b2990614ca5565b611693612cdf565b6116a56116a060016117ac565b612d90565b565b6000806116b5600584613073565b509392505050565b6000818152600c602052604090208054606091906116da90614c33565b80601f016020809104026020016040519081016040528092919081815260200182805461170690614c33565b80156117535780601f1061172857610100808354040283529160200191611753565b820191906000526020600020905b81548152906001019060200180831161173657829003601f168201915b50505050509050919050565b61176960016117ac565b6001600160a01b0316336001600160a01b0316146117995760405162461bcd60e51b8152600401610b2990614ca5565b805161122a906003906020840190614102565b6000611313826040518060600160405280602981526020016152c86029913960059190613091565b336000908152600a60205260409020546301000000900460ff16610d5c5760405162461bcd60e51b815260206004820152602160248201527f45524337323154656d706c6174653a204e4f542053544f5245205550444154456044820152602960f91b6064820152608401610b29565b6060610e416130a8565b60006001600160a01b0382166118b95760405162461bcd60e51b815260206004820152602a60248201527f4552433732313a2062616c616e636520717565727920666f7220746865207a65604482015269726f206164647265737360b01b6064820152608401610b29565b6001600160a01b038216600090815260046020526040902061131390612784565b60118054610c7190614c33565b60105460009060ff16156119585760405162461bcd60e51b815260206004820152603260248201527f45524337323154656d706c6174653a20746f6b656e20696e7374616e636520616044820152711b1c9958591e481a5b9a5d1a585b1a5e995960721b6064820152608401610b29565b6001600160a01b038416156119705761197084613003565b6001600160a01b038316156119885761198883612678565b6000611a028b8b8b8080601f01602080910402602001604051908101604052809392919081815260200183838082843760009201919091525050604080516020601f8f018190048102820181019092528d815292508d91508c90819084018382808284376000920191909152508c92508991506130b79050565b9050611a0c6131f7565b611a1c632260147f60e11b613223565b611a2c632bd57b7360e01b613223565b9a9950505050505050505050565b6060600f8054610a3e90614c33565b6001600160a01b038216331415611aa25760405162461bcd60e51b815260206004820152601960248201527f4552433732313a20617070726f766520746f2063616c6c6572000000000000006044820152606401610b29565b3360008181526008602090815260408083206001600160a01b03871680855290835292819020805460ff191686151590811790915590519081529192917f17307eab39ab6107e8899845ad3d59bd9653f200f220920489ca2b5937696c31910161102a565b611b1160016117ac565b6001600160a01b0316336001600160a01b031614611b415760405162461bcd60e51b8152600401610b2990614ca5565b610da4816132a2565b600b8181548110611b5a57600080fd5b6000918252602090912001546001600160a01b0316905081565b336000908152600a602052604090205460ff161515600114611ba85760405162461bcd60e51b8152600401610b2990614c6e565b80518251148015611bba575060008151115b8015611bc7575060328151105b611c085760405162461bcd60e51b8152602060048201526012602482015271496e76616c69642061727261792073697a6560701b6044820152606401610b29565b60005b8151811015610c5f5760006001600160a01b0316838281518110611c3157611c31614e43565b60200260200101516001600160a01b031614611f6a576000600a6000858481518110611c5f57611c5f614e43565b60200260200101516001600160a01b03166001600160a01b03168152602001908152602001600020905060006003811115611c9c57611c9c614e59565b838381518110611cae57611cae614e43565b60200260200101516003811115611cc757611cc7614e59565b1415611d4257805460ff1916600117815583513390859084908110611cee57611cee614e43565b60200260200101516001600160a01b03167faf8fc8b6726138c96881c895390a08e9d91a94c288f06281e7f9821c49c7155b4243604051611d39929190918252602082015260400190565b60405180910390a35b6001838381518110611d5657611d56614e43565b60200260200101516003811115611d6f57611d6f614e59565b1415611dec57805461ff00191661010017815583513390859084908110611d9857611d98614e43565b60200260200101516001600160a01b03167f0572d56343be407a66810f01449212e8545e14ff5049c479d34be944cdfd0d4f4243604051611de3929190918252602082015260400190565b60405180910390a35b6002838381518110611e0057611e00614e43565b60200260200101516003811115611e1957611e19614e59565b1415611e9857805462ff000019166201000017815583513390859084908110611e4457611e44614e43565b60200260200101516001600160a01b03167fc2a42571a74ce1442c8c44d375ba9442e7d55d94b37afeace261c83c62128fa44243604051611e8f929190918252602082015260400190565b60405180910390a35b6003838381518110611eac57611eac614e43565b60200260200101516003811115611ec557611ec5614e59565b1415611f4657805463ff0000001916630100000017815583513390859084908110611ef257611ef2614e43565b60200260200101516001600160a01b03167feb09276310ed110a7e565d64966d0ff68a47112d2dd5eeb6cbd7451836ce35ee4243604051611f3d929190918252602082015260400190565b60405180910390a35b611f68848381518110611f5b57611f5b614e43565b6020026020010151612b97565b505b80611f7481614e85565b915050611c0b565b336000908152600a602052604090205460ff161515600114611fb05760405162461bcd60e51b8152600401610b2990614c6e565b611fbd8585858585613302565b5050505050565b6060611fcf826125a4565b6120335760405162461bcd60e51b815260206004820152602f60248201527f4552433732314d657461646174613a2055524920717565727920666f72206e6f60448201526e3732bc34b9ba32b73a103a37b5b2b760891b6064820152608401610b29565b6000828152600960205260408120805461204c90614c33565b80601f016020809104026020016040519081016040528092919081815260200182805461207890614c33565b80156120c55780601f1061209a576101008083540402835291602001916120c5565b820191906000526020600020905b8154815290600101906020018083116120a857829003601f168201915b5050505050905060006120d66130a8565b82519091501561210b5780826040516020016120f3929190614ea0565b60405160208183030381529060405292505050919050565b5092915050565b60608060008060116012601360009054906101000a900460ff16601060019054906101000a900460ff1683805461214890614c33565b80601f016020809104026020016040519081016040528092919081815260200182805461217490614c33565b80156121c15780601f10612196576101008083540402835291602001916121c1565b820191906000526020600020905b8154815290600101906020018083116121a457829003601f168201915b505050505093508280546121d490614c33565b80601f016020809104026020016040519081016040528092919081815260200182805461220090614c33565b801561224d5780601f106122225761010080835404028352916020019161224d565b820191906000526020600020905b81548152906001019060200180831161223057829003601f168201915b50505050509250935093509350935090919293565b61226c60016117ac565b6001600160a01b03166108fc479081150290604051600060405180830381858888f19350505050158015610da4573d6000803e3d6000fd5b60006002600d5414156122f95760405162461bcd60e51b815260206004820152601f60248201527f5265656e7472616e637947756172643a207265656e7472616e742063616c6c006044820152606401610b29565b6002600d55336000908152600a6020526040902054610100900460ff166123715760405162461bcd60e51b815260206004820152602660248201527f45524337323154656d706c6174653a204e4f542045524332304445504c4f5945604482015265525f524f4c4560d01b6064820152608401610b29565b601354604051630557fcfb60e41b815260009161010090046001600160a01b03169063557fcfb0906123b7908e908e908e908e908e908e908e908e908e90600401615019565b6020604051808303816000875af11580156123d6573d6000803e3d6000fd5b505050506040513d601f19601f820116820180604052508101906123fa91906150ca565b6001600160a01b0381166000818152601660205260408120805460ff191660019081179091556014805491820181559091527fce6d7b5282bd9a3661ae061feed1dbda4e52ab073b1f9285be6e155d9c38d4ec0180546001600160a01b03191690911790559150506001600d559998505050505050505050565b336000908152600a602052604090205460ff161515600114806124c45750336001600160a01b0382161480156124c45750336000908152600a602052604090205460ff6101009091041615156001145b1561252a576001600160a01b0381166000818152600a602052604090819020805461ff00191681559051909133917f59bd33f4c27cc16a2d74450e1fa43d7896020be9aecea4bee009db9294de8997906112199042904390918252602082015260400190565b60405162461bcd60e51b815260206004820152604360248201527f455243373231526f6c6573416464726573733a204e6f7420656e6f756768207060448201527f65726d697373696f6e7320746f2072656d6f76652066726f6d2045524332304c6064820152621a5cdd60ea1b608482015260a401610b29565b600061131360058361352b565b600081815260076020526040902080546001600160a01b0319166001600160a01b03841690811790915581906125e6826117ac565b6001600160a01b03167f8c5be1e5ebec7d5bd14f71427d1e84f3dd0314c0f7b2291e5b200ac8c7c3b92560405160405180910390a45050565b6000838152600c60205260409020612638908383614186565b50827fece574603820d07bc9b91f2a932baadf4628aabcb8afba49776529c14a6104b2838360405161266b9291906150e7565b60405180910390a2505050565b6001600160a01b03811615610da4576001600160a01b0381166000908152600a60205260409020805462ff00001916620100001781556126b782612b97565b6040805142815243602082015233916001600160a01b038516917fc2a42571a74ce1442c8c44d375ba9442e7d55d94b37afeace261c83c62128fa4910161102a565b612702826125a4565b6127655760405162461bcd60e51b815260206004820152602e60248201527f45524337323155524953746f726167653a2055524920736574206f66206e6f6e60448201526d32bc34b9ba32b73a103a37b5b2b760911b6064820152608401610b29565b60008281526009602090815260409091208251610c5f92840190614102565b6000611313825490565b6013805460ff191660ff8d161790556127a960118b8b614186565b506127b660128989614186565b50601054610100900460ff1661282d57336001600160a01b03167f5463569dcc320958360074a9ab27e809e8a6942c394fb151d139b5f7b4ecb1bd8c8c8c8a8a8a8a8a42436040516128119a999897969594939291906150fb565b60405180910390a26010805461ff00191661010017905561287f565b60135460405133917fe5c4cf86b1815151e6f453e1e133d4454ae3b0b07145db39f2e0178685deac84916128769160ff16908e908e908c908c908c908c908c90429043906150fb565b60405180910390a25b6032815111156128c35760405162461bcd60e51b815260206004820152600f60248201526e546f6f204d616e792050726f6f667360881b6044820152606401610b29565b60408051808201909152601c81527f19457468657265756d205369676e6564204d6573736167653a0a333200000000602082015260005b8251811015612b885760006001600160a01b031683828151811061292057612920614e43565b6020026020010151600001516001600160a01b031614612aa2576000828560405160200161294f929190615163565b604051602081830303815290604052805190602001209050600060018286858151811061297e5761297e614e43565b60200260200101516020015187868151811061299c5761299c614e43565b6020026020010151604001518887815181106129ba576129ba614e43565b602002602001015160600151604051600081526020016040526040516129fc949392919093845260ff9290921660208401526040830152606082015260800190565b6020604051602081039080840390855afa158015612a1e573d6000803e3d6000fd5b505050602060405103519050848381518110612a3c57612a3c614e43565b6020026020010151600001516001600160a01b0316816001600160a01b031614612a9f5760405162461bcd60e51b815260206004820152601460248201527324b73b30b634b210383937b7b31039b4b3b732b960611b6044820152606401610b29565b50505b828181518110612ab457612ab4614e43565b6020026020010151600001516001600160a01b03167f2819d8badf5cff2c9220b8ee99dacc14d67058e343d7f0c2c444d198507fe94185858481518110612afd57612afd614e43565b602002602001015160200151868581518110612b1b57612b1b614e43565b602002602001015160400151878681518110612b3957612b39614e43565b602002602001015160600151604051612b6e949392919093845260ff9290921660208401526040830152606082015260800190565b60405180910390a280612b8081614e85565b9150506128fa565b50505050505050505050505050565b60005b600b54811015612bf357816001600160a01b0316600b8281548110612bc157612bc1614e43565b6000918252602090912001546001600160a01b03161415612be157612bf3565b80612beb81614e85565b915050612b9a565b600b5481141561122a57600b80546001810182556000919091527f0175b7a638427703f0dbe7bb9bbf987a2551717b34e79f33b5b1008d1fa01db90180546001600160a01b0384166001600160a01b03199091161790555050565b60005b8181101561122a5760148181548110612c6c57612c6c614e43565b6000918252602082200154604080516382c03da560e01b815290516001600160a01b03909216926382c03da59260048084019382900301818387803b158015612cb457600080fd5b505af1158015612cc8573d6000803e3d6000fd5b505050508080612cd790614e85565b915050612c51565b60005b600b54811015612d47576000600a6000600b8481548110612d0557612d05614e43565b60009182526020808320909101546001600160a01b031683528201929092526040019020805463ffffffff191690555080612d3f81614e85565b915050612ce2565b50612d54600b60006141fa565b6040805142815243602082015233917f712bc71db81927a76b8bf1ea346247bb0ad58f18e4e5c1bd4aa0ec6573e02a2b910160405180910390a2565b6001600160a01b03811615610da4576001600160a01b0381166000908152600a60205260409020805460ff19166001178155612dcb82612b97565b6040805142815243602082015233916001600160a01b038516917faf8fc8b6726138c96881c895390a08e9d91a94c288f06281e7f9821c49c7155b910161102a565b612e173382613543565b612e335760405162461bcd60e51b8152600401610b2990615185565b610c5f83838360405180602001604052806000815250612fd1565b6001600160a01b0381166000908152600a60205260409020805460ff16158015612e7f57508054610100900460ff16155b8015612e935750805462010000900460ff16155b8015612ea8575080546301000000900460ff16155b1561122a5760005b600b54811015612f0957826001600160a01b0316600b8281548110612ed757612ed7614e43565b6000918252602090912001546001600160a01b03161415612ef757612f09565b80612f0181614e85565b915050612eb0565b600b54811015610c5f57600b8054612f23906001906151d6565b81548110612f3357612f33614e43565b600091825260209091200154600b80546001600160a01b039092169183908110612f5f57612f5f614e43565b9060005260206000200160006101000a8154816001600160a01b0302191690836001600160a01b03160217905550600b805480612f9e57612f9e6151ed565b600082815260209020810160001990810180546001600160a01b0319169055019055505050565b6000611310838361362d565b612fdb3383613543565b612ff75760405162461bcd60e51b8152600401610b2990615185565b61115a848484846136b3565b6001600160a01b0381166000908152600a60205260409020805461ff00191661010017815561303182612b97565b6040805142815243602082015233916001600160a01b038516917f0572d56343be407a66810f01449212e8545e14ff5049c479d34be944cdfd0d4f910161102a565b600080808061308286866136e6565b909450925050505b9250929050565b600061309e848484613783565b90505b9392505050565b606060038054610a3e90614c33565b60006001600160a01b0386166131265760405162461bcd60e51b815260206004820152602e60248201527f45524337323154656d706c6174653a3a20496e76616c6964206d696e7465722c60448201526d20207a65726f206164647265737360901b6064820152608401610b29565b845161313990600e906020880190614102565b50835161314d90600f906020870190614102565b5060138054610100600160a81b0319166101006001600160a01b0386160217905560408051602081019182905260009081905261318c91600391614102565b506010805461ffff191660019081179091556131a99087906137ec565b6131b286612d90565b6001600160a01b0386166000908152600a60205260409020805463ffffff00191663010101001781556131e66001846126f9565b505060105460ff1695945050505050565b6132076380ac58cd60e01b613223565b613217635b5e139f60e01b613223565b6116a563780e9d6360e01b5b6001600160e01b0319808216141561327d5760405162461bcd60e51b815260206004820152601c60248201527f4552433136353a20696e76616c696420696e74657266616365206964000000006044820152606401610b29565b6001600160e01b0319166000908152602081905260409020805460ff19166001179055565b6001600160a01b0381166000818152600a602052604090819020805460ff191681559051909133917fb572db0e6da4924b771ed1712b980d48b5992b9a1c27aede55fbb3318c48996a906112199042904390918252602082015260400190565b82846001600160a01b0316867f1f920dbda597d7bf95035464170fa58d0a4b57f13a1c315ace6793b9f63688b8858560405161333f9291906150e7565b60405180910390a460006109c45a61335791906151d6565b9050856133a7576133a1858585858080601f016020809104026020016040519081016040528093929190818152602001838380828437600092019190915250879250613806915050565b50613523565b60038614156133f0576133a18484848080601f01602080910402602001604051908101604052809392919081815260200183838082843760009201919091525061381e92505050565b60028614156134e457600061344784848080601f0160208091040260200160405190810160405280939291908181526020018383808284376000920191909152506134429250602091508790506151d6565b6138ba565b9050600061349685858080601f01602080910402602001604051908101604052809392919081815260200183838082843760009201829052509250613491915060209050886151d6565b613918565b905060006134a5878484613a25565b6040519091506001600160a01b038216907fcf78cf0d6f3d8371e1075c69c492ab4ec5d8cf23a1a239b6a51a1d00be7ca31290600090a2505050613523565b60405162461bcd60e51b815260206004820152601460248201527357726f6e67206f7065726174696f6e207479706560601b6044820152606401610b29565b505050505050565b60008181526001830160205260408120541515611310565b600061354e826125a4565b6135af5760405162461bcd60e51b815260206004820152602c60248201527f4552433732313a206f70657261746f7220717565727920666f72206e6f6e657860448201526b34b9ba32b73a103a37b5b2b760a11b6064820152608401610b29565b60006135ba836117ac565b9050806001600160a01b0316846001600160a01b031614806135f55750836001600160a01b03166135ea84610ac1565b6001600160a01b0316145b8061362557506001600160a01b0380821660009081526008602090815260408083209388168352929052205460ff165b949350505050565b8154600090821061368b5760405162461bcd60e51b815260206004820152602260248201527f456e756d657261626c655365743a20696e646578206f7574206f6620626f756e604482015261647360f01b6064820152608401610b29565b8260000182815481106136a0576136a0614e43565b9060005260206000200154905092915050565b6136be848484613b27565b6136ca84848484613ca8565b61115a5760405162461bcd60e51b8152600401610b2990615203565b8154600090819083106137465760405162461bcd60e51b815260206004820152602260248201527f456e756d657261626c654d61703a20696e646578206f7574206f6620626f756e604482015261647360f01b6064820152608401610b29565b600084600001848154811061375d5761375d614e43565b906000526020600020906002020190508060000154816001015492509250509250929050565b600082815260018401602052604081205482816137b35760405162461bcd60e51b8152600401610b2991906142b4565b50846137c06001836151d6565b815481106137d0576137d0614e43565b9060005260206000209060020201600101549150509392505050565b61122a828260405180602001604052806000815250613da6565b6000806000845160208601878987f195945050505050565b600081516020830184f090506001600160a01b0381166138805760405162461bcd60e51b815260206004820152601960248201527f436f756c64206e6f74206465706c6f7920636f6e7472616374000000000000006044820152606401610b29565b6040516001600160a01b038216907fcf78cf0d6f3d8371e1075c69c492ab4ec5d8cf23a1a239b6a51a1d00be7ca31290600090a292915050565b60006138c7826020615255565b8351101561390f5760405162461bcd60e51b8152602060048201526015602482015274746f427974657333325f6f75744f66426f756e647360581b6044820152606401610b29565b50016020015190565b60608161392681601f615255565b10156139655760405162461bcd60e51b815260206004820152600e60248201526d736c6963655f6f766572666c6f7760901b6044820152606401610b29565b61396f8284615255565b845110156139b35760405162461bcd60e51b8152602060048201526011602482015270736c6963655f6f75744f66426f756e647360781b6044820152606401610b29565b6060821580156139d25760405191506000825260208201604052613a1c565b6040519150601f8416801560200281840101858101878315602002848b0101015b81831015613a0b5780518352602092830192016139f3565b5050858452601f01601f1916604052505b50949350505050565b60008084471015613a785760405162461bcd60e51b815260206004820152601d60248201527f437265617465323a20696e73756666696369656e742062616c616e63650000006044820152606401610b29565b8251613ac65760405162461bcd60e51b815260206004820181905260248201527f437265617465323a2062797465636f6465206c656e677468206973207a65726f6044820152606401610b29565b8383516020850187f590506001600160a01b03811661309e5760405162461bcd60e51b815260206004820152601960248201527f437265617465323a204661696c6564206f6e206465706c6f79000000000000006044820152606401610b29565b826001600160a01b0316613b3a826117ac565b6001600160a01b031614613ba25760405162461bcd60e51b815260206004820152602960248201527f4552433732313a207472616e73666572206f6620746f6b656e2074686174206960448201526839903737ba1037bbb760b91b6064820152608401610b29565b6001600160a01b038216613c045760405162461bcd60e51b8152602060048201526024808201527f4552433732313a207472616e7366657220746f20746865207a65726f206164646044820152637265737360e01b6064820152608401610b29565b613c0f6000826125b1565b6001600160a01b0383166000908152600460205260409020613c319082613dd9565b506001600160a01b0382166000908152600460205260409020613c549082613de5565b50613c6160058284613df1565b5080826001600160a01b0316846001600160a01b03167fddf252ad1be2c89b69c2b068fc378daa952ba7f163c4a11628f55a4df523b3ef60405160405180910390a4505050565b60006001600160a01b0384163b15613d9b57604051630a85bd0160e11b81526001600160a01b0385169063150b7a0290613cec90339089908890889060040161526d565b6020604051808303816000875af1925050508015613d27575060408051601f3d908101601f19168201909252613d24918101906152aa565b60015b613d81573d808015613d55576040519150601f19603f3d011682016040523d82523d6000602084013e613d5a565b606091505b508051613d795760405162461bcd60e51b8152600401610b2990615203565b805181602001fd5b6001600160e01b031916630a85bd0160e11b149050613625565b506001949350505050565b613db08383613e07565b613dbd6000848484613ca8565b610c5f5760405162461bcd60e51b8152600401610b2990615203565b60006113108383613f1f565b60006113108383614012565b600061309e84846001600160a01b038516614061565b6001600160a01b038216613e5d5760405162461bcd60e51b815260206004820181905260248201527f4552433732313a206d696e7420746f20746865207a65726f20616464726573736044820152606401610b29565b613e66816125a4565b15613eb35760405162461bcd60e51b815260206004820152601c60248201527f4552433732313a20746f6b656e20616c7265616479206d696e746564000000006044820152606401610b29565b6001600160a01b0382166000908152600460205260409020613ed59082613de5565b50613ee260058284613df1565b5060405181906001600160a01b038416906000907fddf252ad1be2c89b69c2b068fc378daa952ba7f163c4a11628f55a4df523b3ef908290a45050565b60008181526001830160205260408120548015614008576000613f436001836151d6565b8554909150600090613f57906001906151d6565b90506000866000018281548110613f7057613f70614e43565b9060005260206000200154905080876000018481548110613f9357613f93614e43565b600091825260209091200155613faa836001615255565b60008281526001890160205260409020558654879080613fcc57613fcc6151ed565b60019003818190600052602060002001600090559055866001016000878152602001908152602001600020600090556001945050505050611313565b6000915050611313565b600081815260018301602052604081205461405957508154600181810184556000848152602080822090930184905584548482528286019093526040902091909155611313565b506000611313565b6000828152600184016020526040812054806140c65750506040805180820182528381526020808201848152865460018181018955600089815284812095516002909302909501918255915190820155865486845281880190925292909120556130a1565b82856140d36001846151d6565b815481106140e3576140e3614e43565b90600052602060002090600202016001018190555060009150506130a1565b82805461410e90614c33565b90600052602060002090601f0160209004810192826141305760008555614176565b82601f1061414957805160ff1916838001178555614176565b82800160010185558215614176579182015b8281111561417657825182559160200191906001019061415b565b50614182929150614214565b5090565b82805461419290614c33565b90600052602060002090601f0160209004810192826141b45760008555614176565b82601f106141cd5782800160ff19823516178555614176565b82800160010185558215614176579182015b828111156141765782358255916020019190600101906141df565b5080546000825590600052602060002090810190610da491905b5b808211156141825760008155600101614215565b6001600160e01b031981168114610da457600080fd5b60006020828403121561425157600080fd5b81356130a181614229565b60005b8381101561427757818101518382015260200161425f565b8381111561115a5750506000910152565b600081518084526142a081602086016020860161425c565b601f01601f19169290920160200192915050565b6020815260006113106020830184614288565b6000602082840312156142d957600080fd5b5035919050565b6001600160a01b0381168114610da457600080fd5b8035614300816142e0565b919050565b6000806040838503121561431857600080fd5b8235614323816142e0565b946020939093013593505050565b60008083601f84011261434357600080fd5b5081356001600160401b0381111561435a57600080fd5b60208301915083602082850101111561308a57600080fd5b60008060006040848603121561438757600080fd5b8335925060208401356001600160401b038111156143a457600080fd5b6143b086828701614331565b9497909650939450505050565b6000602082840312156143cf57600080fd5b81356130a1816142e0565b634e487b7160e01b600052604160045260246000fd5b604051601f8201601f191681016001600160401b0381118282101715614418576144186143da565b604052919050565b600082601f83011261443157600080fd5b81356001600160401b0381111561444a5761444a6143da565b61445d601f8201601f19166020016143f0565b81815284602083860101111561447257600080fd5b816020850160208301376000918101602001919091529392505050565b600080604083850312156144a257600080fd5b8235915060208301356001600160401b038111156144bf57600080fd5b6144cb85828601614420565b9150509250929050565b6000602082840312156144e757600080fd5b81356001600160401b038111156144fd57600080fd5b820161012081850312156130a157600080fd5b803560ff8116811461430057600080fd5b60006001600160401b0382111561453a5761453a6143da565b5060051b60200190565b60006080828403121561455657600080fd5b604051608081018181106001600160401b0382111715614578576145786143da565b6040529050808235614589816142e0565b815261459760208401614510565b602082015260408301356040820152606083013560608201525092915050565b600082601f8301126145c857600080fd5b813560206145dd6145d883614521565b6143f0565b82815260079290921b840181019181810190868411156145fc57600080fd5b8286015b84811015614620576146128882614544565b835291830191608001614600565b509695505050505050565b600080600080600080600080600080600060e08c8e03121561464c57600080fd5b6146558c614510565b9a506001600160401b038060208e0135111561467057600080fd5b6146808e60208f01358f01614331565b909b50995060408d013581101561469657600080fd5b6146a68e60408f01358f01614331565b909950975060608d01358110156146bc57600080fd5b6146cc8e60608f01358f01614331565b909750955060808d01358110156146e257600080fd5b6146f28e60808f01358f01614331565b909550935060a08d0135925060c08d013581101561470f57600080fd5b506147208d60c08e01358e016145b7565b90509295989b509295989b9093969950565b60008060006060848603121561474757600080fd5b8335614752816142e0565b92506020840135614762816142e0565b929592945050506040919091013590565b6020808252825182820181905260009190848201906040850190845b818110156147b45783516001600160a01b03168352928401929184019160010161478f565b50909695505050505050565b6000602082840312156147d257600080fd5b61131082614510565b6000602082840312156147ed57600080fd5b81356001600160401b0381111561480357600080fd5b61362584828501614420565b600080600080600080600080600060e08a8c03121561482d57600080fd5b8935614838816142e0565b985060208a01356001600160401b038082111561485457600080fd5b6148608d838e01614331565b909a50985060408c013591508082111561487957600080fd5b6148858d838e01614331565b909850965060608c0135915061489a826142e0565b8195506148a960808d016142f5565b94506148b760a08d016142f5565b935060c08c01359150808211156148cd57600080fd5b506148da8c828d01614420565b9150509295985092959850929598565b600080604083850312156148fd57600080fd5b8235614908816142e0565b91506020830135801515811461491d57600080fd5b809150509250929050565b600082601f83011261493957600080fd5b813560206149496145d883614521565b82815260059290921b8401810191818101908684111561496857600080fd5b8286015b84811015614620578035600481106149845760008081fd5b835291830191830161496c565b600080604083850312156149a457600080fd5b82356001600160401b03808211156149bb57600080fd5b818501915085601f8301126149cf57600080fd5b813560206149df6145d883614521565b82815260059290921b840181019181810190898411156149fe57600080fd5b948201945b83861015614a25578535614a16816142e0565b82529482019490820190614a03565b96505086013592505080821115614a3b57600080fd5b506144cb85828601614928565b600080600080600060808688031215614a6057600080fd5b853594506020860135614a72816142e0565b93506040860135925060608601356001600160401b03811115614a9457600080fd5b614aa088828901614331565b969995985093965092949392505050565b608081526000614ac46080830187614288565b8281036020840152614ad68187614288565b60ff959095166040840152505090151560609091015292915050565b60008083601f840112614b0457600080fd5b5081356001600160401b03811115614b1b57600080fd5b6020830191508360208260051b850101111561308a57600080fd5b600080600080600080600080600060a08a8c031215614b5457600080fd5b8935985060208a01356001600160401b0380821115614b7257600080fd5b614b7e8d838e01614af2565b909a50985060408c0135915080821115614b9757600080fd5b614ba38d838e01614af2565b909850965060608c0135915080821115614bbc57600080fd5b614bc88d838e01614af2565b909650945060808c0135915080821115614be157600080fd5b50614bee8c828d01614af2565b915080935050809150509295985092959850929598565b60008060408385031215614c1857600080fd5b8235614c23816142e0565b9150602083013561491d816142e0565b600181811c90821680614c4757607f821691505b60208210811415614c6857634e487b7160e01b600052602260045260246000fd5b50919050565b6020808252601f908201527f455243373231526f6c6573416464726573733a204e4f54204d414e4147455200604082015260600190565b6020808252601c908201527f45524337323154656d706c6174653a206e6f74204e46544f776e657200000000604082015260600190565b608081526000614cef6080830187614288565b6020830195909552506040810192909252606090910152919050565b60208082526021908201527f45524337323154656d706c6174653a204e4f54204d455441444154415f524f4c6040820152604560f81b606082015260800190565b6000808335601e19843603018112614d6357600080fd5b8301803591506001600160401b03821115614d7d57600080fd5b60200191503681900382131561308a57600080fd5b6000808335601e19843603018112614da957600080fd5b8301803591506001600160401b03821115614dc357600080fd5b6020019150600781901b360382131561308a57600080fd5b600060808284031215614ded57600080fd5b6113108383614544565b6020808252602c908201527f45524337323154656d706c6174653a2043616e6e6f74207472616e736665722060408201526b1d1a1a5cc81d1bdad95b925960a21b606082015260800190565b634e487b7160e01b600052603260045260246000fd5b634e487b7160e01b600052602160045260246000fd5b634e487b7160e01b600052601160045260246000fd5b6000600019821415614e9957614e99614e6f565b5060010190565b60008351614eb281846020880161425c565b835190830190614ec681836020880161425c565b01949350505050565b81835281816020850137506000828201602090810191909152601f909101601f19169091010190565b6000808335601e19843603018112614f0f57600080fd5b83016020810192503590506001600160401b03811115614f2e57600080fd5b80360383131561308a57600080fd5b8183526000602080850194508260005b85811015614f7b578135614f60816142e0565b6001600160a01b031687529582019590820190600101614f4d565b509495945050505050565b81835260006001600160fb1b03831115614f9f57600080fd5b8260051b8083602087013760009401602001938452509192915050565b81835260006020808501808196508560051b810191508460005b8781101561500c578284038952614fed8288614ef8565b614ff8868284614ecf565b9a87019a9550505090840190600101614fd6565b5091979650505050505050565b89815260a0602082018190528101889052600060c060058a901b830181019083018b835b8c81101561507a5785840360bf19018352615058828f614ef8565b615063868284614ecf565b95505050602092830192919091019060010161503d565b505050828103604084015261509081898b614f3d565b905082810360608401526150a5818789614f86565b905082810360808401526150ba818587614fbc565b9c9b505050505050505050505050565b6000602082840312156150dc57600080fd5b81516130a1816142e0565b60208152600061309e602083018486614ecf565b60ff8b16815260e06020820152600061511860e083018b8d614ecf565b828103604084015261512b818a8c614ecf565b9050828103606084015261514081888a614ecf565b6080840196909652505060a081019290925260c090910152979650505050505050565b6000835161517581846020880161425c565b9190910191825250602001919050565b60208082526031908201527f4552433732313a207472616e736665722063616c6c6572206973206e6f74206f6040820152701ddb995c881b9bdc88185c1c1c9bdd9959607a1b606082015260800190565b6000828210156151e8576151e8614e6f565b500390565b634e487b7160e01b600052603160045260246000fd5b60208082526032908201527f4552433732313a207472616e7366657220746f206e6f6e20455243373231526560408201527131b2b4bb32b91034b6b83632b6b2b73a32b960711b606082015260800190565b6000821982111561526857615268614e6f565b500190565b6001600160a01b03858116825284166020820152604081018390526080606082018190526000906152a090830184614288565b9695505050505050565b6000602082840312156152bc57600080fd5b81516130a18161422956fe4552433732313a206f776e657220717565727920666f72206e6f6e6578697374656e7420746f6b656ea26469706673582212209d4e2397ba050c980e0143d5695ba9c0f48f1c7ffe468eccfb3a336ca013b3c364736f6c634300080c0033",
  "linkReferences": {},
  "deployedLinkReferences": {}
}