{
  "_format": "hh-sol-artifact-1",
  "contractName": "ERC721Template",
  "sourceName": "contracts/templates/ERC721Template.sol",
  "abi": [
    {
      "anonymous": false,
      "inputs": [
        {
          "indexed": true,
          "internalType": "address",
          "name": "owner",
          "type": "address"
        },
        {
          "indexed": true,
          "internalType": "address",
          "name": "approved",
          "type": "address"
        },
        {
          "indexed": true,
          "internalType": "uint256",
          "name": "tokenId",
          "type": "uint256"
        }
      ],
      "name": "Approval",
      "type": "event"
    },
    {
      "anonymous": false,
      "inputs": [
        {
          "indexed": true,
          "internalType": "address",
          "name": "owner",
          "type": "address"
        },
        {
          "indexed": true,
          "internalType": "address",
          "name": "operator",
          "type": "address"
        },
        {
          "indexed": false,
          "internalType": "bool",
          "name": "approved",
          "type": "bool"
        }
      ],
      "name": "ApprovalForAll",
      "type": "event"
    },
    {
      "anonymous": false,
      "inputs": [
        {
          "indexed": true,
          "internalType": "address",
          "name": "contractAddress",
          "type": "address"
        }
      ],
      "name": "ContractCreated",
      "type": "event"
    },
    {
      "anonymous": false,
      "inputs": [
        {
          "indexed": true,
          "internalType": "bytes32",
          "name": "key",
          "type": "bytes32"
        },
        {
          "indexed": false,
          "internalType": "bytes",
          "name": "value",
          "type": "bytes"
        }
      ],
      "name": "DataChanged",
      "type": "event"
    },
    {
      "anonymous": false,
      "inputs": [
        {
          "indexed": true,
          "internalType": "address",
          "name": "erc20Address",
          "type": "address"
        }
      ],
      "name": "ERC20Created",
      "type": "event"
    },
    {
      "anonymous": false,
      "inputs": [
        {
          "indexed": true,
          "internalType": "uint256",
          "name": "_operation",
          "type": "uint256"
        },
        {
          "indexed": true,
          "internalType": "address",
          "name": "_to",
          "type": "address"
        },
        {
          "indexed": true,
          "internalType": "uint256",
          "name": "_value",
          "type": "uint256"
        },
        {
          "indexed": false,
          "internalType": "bytes",
          "name": "_data",
          "type": "bytes"
        }
      ],
      "name": "Executed",
      "type": "event"
    },
    {
      "anonymous": false,
      "inputs": [
        {
          "indexed": true,
          "internalType": "address",
          "name": "from",
          "type": "address"
        },
        {
          "indexed": true,
          "internalType": "address",
          "name": "to",
          "type": "address"
        },
        {
          "indexed": true,
          "internalType": "uint256",
          "name": "tokenId",
          "type": "uint256"
        }
      ],
      "name": "Transfer",
      "type": "event"
    },
    {
      "inputs": [],
      "name": "METADATA_KEY",
      "outputs": [
        {
          "internalType": "bytes32",
          "name": "",
          "type": "bytes32"
        }
      ],
      "stateMutability": "view",
      "type": "function"
    },
    {
      "inputs": [],
      "name": "_metadata",
      "outputs": [
        {
          "internalType": "address",
          "name": "",
          "type": "address"
        }
      ],
      "stateMutability": "view",
      "type": "function"
    },
    {
      "inputs": [
        {
          "internalType": "address",
          "name": "_managerAddress",
          "type": "address"
        }
      ],
      "name": "addManager",
      "outputs": [],
      "stateMutability": "nonpayable",
      "type": "function"
    },
    {
      "inputs": [
        {
          "internalType": "address",
          "name": "_allowedAddress",
          "type": "address"
        }
      ],
      "name": "addTo725StoreList",
      "outputs": [],
      "stateMutability": "nonpayable",
      "type": "function"
    },
    {
      "inputs": [
        {
          "internalType": "address",
          "name": "_allowedAddress",
          "type": "address"
        }
      ],
      "name": "addToCreateERC20List",
      "outputs": [],
      "stateMutability": "nonpayable",
      "type": "function"
    },
    {
      "inputs": [
        {
          "internalType": "address",
          "name": "_allowedAddress",
          "type": "address"
        }
      ],
      "name": "addToMetadataList",
      "outputs": [],
      "stateMutability": "nonpayable",
      "type": "function"
    },
    {
      "inputs": [
        {
          "internalType": "address",
          "name": "newMinter",
          "type": "address"
        }
      ],
      "name": "addV3Minter",
      "outputs": [],
      "stateMutability": "nonpayable",
      "type": "function"
    },
    {
      "inputs": [
        {
          "internalType": "address",
          "name": "to",
          "type": "address"
        },
        {
          "internalType": "uint256",
          "name": "tokenId",
          "type": "uint256"
        }
      ],
      "name": "approve",
      "outputs": [],
      "stateMutability": "nonpayable",
      "type": "function"
    },
    {
      "inputs": [
        {
          "internalType": "uint256",
          "name": "",
          "type": "uint256"
        }
      ],
      "name": "auth",
      "outputs": [
        {
          "internalType": "address",
          "name": "",
          "type": "address"
        }
      ],
      "stateMutability": "view",
      "type": "function"
    },
    {
      "inputs": [
        {
          "internalType": "address",
          "name": "owner",
          "type": "address"
        }
      ],
      "name": "balanceOf",
      "outputs": [
        {
          "internalType": "uint256",
          "name": "",
          "type": "uint256"
        }
      ],
      "stateMutability": "view",
      "type": "function"
    },
    {
      "inputs": [
        {
          "internalType": "bytes32",
          "name": "c__0x819d8ba9",
          "type": "bytes32"
        }
      ],
      "name": "c_0x819d8ba9",
      "outputs": [],
      "stateMutability": "pure",
      "type": "function"
    },
    {
      "inputs": [
        {
          "internalType": "bytes32",
          "name": "c__0x9799fda3",
          "type": "bytes32"
        }
      ],
      "name": "c_0x9799fda3",
      "outputs": [],
      "stateMutability": "pure",
      "type": "function"
    },
    {
      "inputs": [
        {
          "internalType": "bytes32",
          "name": "c__0xab11631e",
          "type": "bytes32"
        }
      ],
      "name": "c_0xab11631e",
      "outputs": [],
      "stateMutability": "pure",
      "type": "function"
    },
    {
      "inputs": [
        {
          "internalType": "bytes32",
          "name": "c__0xce1a1efe",
          "type": "bytes32"
        }
      ],
      "name": "c_0xce1a1efe",
      "outputs": [],
      "stateMutability": "pure",
      "type": "function"
    },
    {
      "inputs": [
        {
          "internalType": "bytes32",
          "name": "c__0xff926fff",
          "type": "bytes32"
        }
      ],
      "name": "c_0xff926fff",
      "outputs": [],
      "stateMutability": "pure",
      "type": "function"
    },
    {
      "inputs": [],
      "name": "cleanPermissions",
      "outputs": [],
      "stateMutability": "nonpayable",
      "type": "function"
    },
    {
      "inputs": [
        {
          "internalType": "string",
          "name": "name_",
          "type": "string"
        },
        {
          "internalType": "string",
          "name": "symbol_",
          "type": "string"
        },
        {
          "internalType": "uint256",
          "name": "cap",
          "type": "uint256"
        },
        {
          "internalType": "uint256",
          "name": "templateIndex",
          "type": "uint256"
        },
        {
          "internalType": "address",
          "name": "minter",
          "type": "address"
        },
        {
          "internalType": "address",
          "name": "feeManager",
          "type": "address"
        }
      ],
      "name": "createERC20",
      "outputs": [
        {
          "internalType": "address",
          "name": "",
          "type": "address"
        }
      ],
      "stateMutability": "nonpayable",
      "type": "function"
    },
    {
      "inputs": [
        {
          "internalType": "uint256",
          "name": "_operation",
          "type": "uint256"
        },
        {
          "internalType": "address",
          "name": "_to",
          "type": "address"
        },
        {
          "internalType": "uint256",
          "name": "_value",
          "type": "uint256"
        },
        {
          "internalType": "bytes",
          "name": "_data",
          "type": "bytes"
        }
      ],
      "name": "executeCall",
      "outputs": [],
      "stateMutability": "payable",
      "type": "function"
    },
    {
      "inputs": [
        {
          "internalType": "uint256",
          "name": "tokenId",
          "type": "uint256"
        }
      ],
      "name": "getApproved",
      "outputs": [
        {
          "internalType": "address",
          "name": "",
          "type": "address"
        }
      ],
      "stateMutability": "view",
      "type": "function"
    },
    {
      "inputs": [
        {
          "internalType": "bytes32",
          "name": "_key",
          "type": "bytes32"
        }
      ],
      "name": "getData",
      "outputs": [
        {
          "internalType": "bytes",
          "name": "_value",
          "type": "bytes"
        }
      ],
      "stateMutability": "view",
      "type": "function"
    },
    {
      "inputs": [
        {
          "internalType": "address",
          "name": "user",
          "type": "address"
        }
      ],
      "name": "getPermissions",
      "outputs": [
        {
          "components": [
            {
              "internalType": "bool",
              "name": "manager",
              "type": "bool"
            },
            {
              "internalType": "bool",
              "name": "deployERC20",
              "type": "bool"
            },
            {
              "internalType": "bool",
              "name": "updateMetadata",
              "type": "bool"
            },
            {
              "internalType": "bool",
              "name": "store",
              "type": "bool"
            },
            {
              "internalType": "bool",
              "name": "v3Minter",
              "type": "bool"
            }
          ],
          "internalType": "struct ERC721RolesAddress.Roles",
          "name": "",
          "type": "tuple"
        }
      ],
      "stateMutability": "view",
      "type": "function"
    },
    {
      "inputs": [
        {
          "internalType": "address",
          "name": "owner",
          "type": "address"
        },
        {
          "internalType": "string",
          "name": "name_",
          "type": "string"
        },
        {
          "internalType": "string",
          "name": "symbol_",
          "type": "string"
        },
        {
          "internalType": "address",
          "name": "metadata",
          "type": "address"
        },
        {
          "internalType": "address",
          "name": "tokenFactory",
          "type": "address"
        },
        {
          "internalType": "bytes",
          "name": "_data",
          "type": "bytes"
        },
        {
          "internalType": "bytes",
          "name": "_flags",
          "type": "bytes"
        }
      ],
      "name": "initialize",
      "outputs": [
        {
          "internalType": "bool",
          "name": "",
          "type": "bool"
        }
      ],
      "stateMutability": "nonpayable",
      "type": "function"
    },
    {
      "inputs": [
        {
          "internalType": "address",
          "name": "owner",
          "type": "address"
        },
        {
          "internalType": "address",
          "name": "operator",
          "type": "address"
        }
      ],
      "name": "isApprovedForAll",
      "outputs": [
        {
          "internalType": "bool",
          "name": "",
          "type": "bool"
        }
      ],
      "stateMutability": "view",
      "type": "function"
    },
    {
      "inputs": [],
      "name": "isInitialized",
      "outputs": [
        {
          "internalType": "bool",
          "name": "",
          "type": "bool"
        }
      ],
      "stateMutability": "view",
      "type": "function"
    },
    {
      "inputs": [
        {
          "internalType": "address",
          "name": "datatoken",
          "type": "address"
        },
        {
          "internalType": "address",
          "name": "to",
          "type": "address"
        },
        {
          "internalType": "uint256",
          "name": "value",
          "type": "uint256"
        }
      ],
      "name": "mintV3DT",
      "outputs": [],
      "stateMutability": "nonpayable",
      "type": "function"
    },
    {
      "inputs": [],
      "name": "name",
      "outputs": [
        {
          "internalType": "string",
          "name": "",
          "type": "string"
        }
      ],
      "stateMutability": "view",
      "type": "function"
    },
    {
      "inputs": [
        {
          "internalType": "uint256",
          "name": "tokenId",
          "type": "uint256"
        }
      ],
      "name": "ownerOf",
      "outputs": [
        {
          "internalType": "address",
          "name": "",
          "type": "address"
        }
      ],
      "stateMutability": "view",
      "type": "function"
    },
    {
      "inputs": [
        {
          "internalType": "address",
          "name": "_allowedAddress",
          "type": "address"
        }
      ],
      "name": "removeFrom725StoreList",
      "outputs": [],
      "stateMutability": "nonpayable",
      "type": "function"
    },
    {
      "inputs": [
        {
          "internalType": "address",
          "name": "_allowedAddress",
          "type": "address"
        }
      ],
      "name": "removeFromCreateERC20List",
      "outputs": [],
      "stateMutability": "nonpayable",
      "type": "function"
    },
    {
      "inputs": [
        {
          "internalType": "address",
          "name": "_allowedAddress",
          "type": "address"
        }
      ],
      "name": "removeFromMetadataList",
      "outputs": [],
      "stateMutability": "nonpayable",
      "type": "function"
    },
    {
      "inputs": [
        {
          "internalType": "address",
          "name": "_managerAddress",
          "type": "address"
        }
      ],
      "name": "removeManager",
      "outputs": [],
      "stateMutability": "nonpayable",
      "type": "function"
    },
    {
      "inputs": [
        {
          "internalType": "address",
          "name": "minter",
          "type": "address"
        }
      ],
      "name": "removeV3Minter",
      "outputs": [],
      "stateMutability": "nonpayable",
      "type": "function"
    },
    {
      "inputs": [
        {
          "internalType": "address",
          "name": "from",
          "type": "address"
        },
        {
          "internalType": "address",
          "name": "to",
          "type": "address"
        },
        {
          "internalType": "uint256",
          "name": "tokenId",
          "type": "uint256"
        }
      ],
      "name": "safeTransferFrom",
      "outputs": [],
      "stateMutability": "nonpayable",
      "type": "function"
    },
    {
      "inputs": [
        {
          "internalType": "address",
          "name": "operator",
          "type": "address"
        },
        {
          "internalType": "bool",
          "name": "approved",
          "type": "bool"
        }
      ],
      "name": "setApprovalForAll",
      "outputs": [],
      "stateMutability": "nonpayable",
      "type": "function"
    },
    {
      "inputs": [
        {
          "internalType": "bytes32",
          "name": "_key",
          "type": "bytes32"
        },
        {
          "internalType": "bytes",
          "name": "_value",
          "type": "bytes"
        }
      ],
      "name": "setDataERC20",
      "outputs": [],
      "stateMutability": "nonpayable",
      "type": "function"
    },
    {
      "inputs": [
        {
          "internalType": "address",
          "name": "datatoken",
          "type": "address"
        },
        {
          "internalType": "bytes",
          "name": "_value",
          "type": "bytes"
        },
        {
          "internalType": "bytes",
          "name": "flags",
          "type": "bytes"
        },
        {
          "internalType": "bytes",
          "name": "data",
          "type": "bytes"
        }
      ],
      "name": "setDataV3",
      "outputs": [],
      "stateMutability": "nonpayable",
      "type": "function"
    },
    {
      "inputs": [
        {
          "internalType": "bytes32",
          "name": "_key",
          "type": "bytes32"
        },
        {
          "internalType": "bytes",
          "name": "_value",
          "type": "bytes"
        }
      ],
      "name": "setNewData",
      "outputs": [],
      "stateMutability": "nonpayable",
      "type": "function"
    },
    {
      "inputs": [],
      "name": "ssContract",
      "outputs": [
        {
          "internalType": "address",
          "name": "",
          "type": "address"
        }
      ],
      "stateMutability": "view",
      "type": "function"
    },
    {
      "inputs": [
        {
          "internalType": "bytes4",
          "name": "interfaceId",
          "type": "bytes4"
        }
      ],
      "name": "supportsInterface",
      "outputs": [
        {
          "internalType": "bool",
          "name": "",
          "type": "bool"
        }
      ],
      "stateMutability": "view",
      "type": "function"
    },
    {
      "inputs": [],
      "name": "symbol",
      "outputs": [
        {
          "internalType": "string",
          "name": "",
          "type": "string"
        }
      ],
      "stateMutability": "view",
      "type": "function"
    },
    {
      "inputs": [
        {
          "internalType": "uint256",
          "name": "tokenId",
          "type": "uint256"
        }
      ],
      "name": "tokenURI",
      "outputs": [
        {
          "internalType": "string",
          "name": "",
          "type": "string"
        }
      ],
      "stateMutability": "view",
      "type": "function"
    },
    {
      "inputs": [
        {
          "internalType": "address",
          "name": "from",
          "type": "address"
        },
        {
          "internalType": "address",
          "name": "to",
          "type": "address"
        },
        {
          "internalType": "uint256",
          "name": "tokenId",
          "type": "uint256"
        }
      ],
      "name": "transferFrom",
      "outputs": [],
      "stateMutability": "nonpayable",
      "type": "function"
    },
    {
      "inputs": [
        {
          "internalType": "bytes",
          "name": "flags",
          "type": "bytes"
        },
        {
          "internalType": "bytes",
          "name": "data",
          "type": "bytes"
        }
      ],
      "name": "updateMetadata",
      "outputs": [],
      "stateMutability": "nonpayable",
      "type": "function"
    },
    {
      "inputs": [
        {
          "internalType": "address",
          "name": "",
          "type": "address"
        }
      ],
      "name": "v3DT",
      "outputs": [
        {
          "internalType": "bool",
          "name": "",
          "type": "bool"
        }
      ],
      "stateMutability": "view",
      "type": "function"
    },
    {
      "inputs": [
        {
          "internalType": "address",
          "name": "datatoken",
          "type": "address"
        },
        {
          "internalType": "address",
          "name": "newMinter",
          "type": "address"
        }
      ],
      "name": "wrapV3DT",
      "outputs": [],
      "stateMutability": "nonpayable",
      "type": "function"
    }
  ],
  "bytecode": "0x60806040523480156200001157600080fd5b506040518060400160405280600881526020017f54656d706c6174650000000000000000000000000000000000000000000000008152506040518060400160405280600e81526020017f54656d706c61746553796d626f6c000000000000000000000000000000000000815250620000b27f3558b6801f52852e0b7d898f96848130130f90ccd81751e108bbc213393315e660001b620002f060201b60201c565b620000e67f6c0b391b1c27a92c64122a2610ba041ae8edc1bbe95ed2b426953db1a75de16260001b620002f060201b60201c565b6200011a7f0212108dd536b632bfcd1a4e9b8f332dae071cacc493d326f9af378e80221bcd60001b620002f060201b60201c565b816000908051906020019062000132929190620003cf565b50620001677f97adce8e35be492dd1181251d44cc9e19250db5a9617711505cfb465e736bb9d60001b620002f060201b60201c565b6200019b7fe7454eed787426314e0759d855f20417a154cf0206e86392a631df16ae8cd42e60001b620002f060201b60201c565b8060019080519060200190620001b3929190620003cf565b505050620001ea7fef0116925d5615da8d9eb6e650aa4e1a1d0ca7d0e4ce034c20016c0c4e11804660001b620002f360201b60201c565b6200021e7f594945acf7dcb3f1b12a983af168decdd871da7378eb46947c81b5dee5f9b93c60001b620002f360201b60201c565b620002527fdc4871cabc3b3fd645637e6bf5ab93d170fc6ba1e31305b81279021eea1434c560001b620002f360201b60201c565b6200026a6344c028fe60e01b620002f660201b60201c565b6200029e7f5b3720980fe0bac0d5d3039d2c212a7016a8ae82f40eeb590a920d6f0f23c26760001b620002f360201b60201c565b620002d27fe6f459e033d8b154d95e85932245f20c2f74d1706d286ed925daf96a25d17bf260001b620002f360201b60201c565b620002ea632bd57b7360e01b620002f660201b60201c565b62000559565b50565b50565b63ffffffff60e01b817bffffffffffffffffffffffffffffffffffffffffffffffffffffffff1916141562000362576040517f08c379a00000000000000000000000000000000000000000000000000000000081526004016200035990620004c1565b60405180910390fd5b600160086000837bffffffffffffffffffffffffffffffffffffffffffffffffffffffff19167bffffffffffffffffffffffffffffffffffffffffffffffffffffffff1916815260200190815260200160002060006101000a81548160ff02191690831515021790555050565b828054620003dd90620004f4565b90600052602060002090601f0160209004810192826200040157600085556200044d565b82601f106200041c57805160ff19168380011785556200044d565b828001600101855582156200044d579182015b828111156200044c5782518255916020019190600101906200042f565b5b5090506200045c919062000460565b5090565b5b808211156200047b57600081600090555060010162000461565b5090565b60006200048e601c83620004e3565b91507f4552433136353a20696e76616c696420696e74657266616365206964000000006000830152602082019050919050565b60006020820190508181036000830152620004dc816200047f565b9050919050565b600082825260208201905092915050565b600060028204905060018216806200050d57607f821691505b602082108114156200052457620005236200052a565b5b50919050565b7f4e487b7100000000000000000000000000000000000000000000000000000000600052602260045260246000fd5b61d79780620005696000396000f3fe6080604052600436106102725760003560e01c806354f6127f1161014f578063a22cb465116100c1578063cf7631201161007a578063cf7631201461097d578063d606af56146109a6578063d93fc7c8146109cf578063ddd0af5b146109f8578063e985e9c514610a23578063fe1ec88014610a6057610272565b8063a22cb46514610858578063ac18de4314610881578063b0c41ead146108aa578063b4d07023146108e7578063c55f812614610924578063c87b56dd1461094057610272565b806378245c961161011357806378245c961461074c5780637db0f56d14610775578063819172d9146107b257806395d89b41146107db5780639e75329314610806578063a10143291461082f57610272565b806354f6127f146106435780636352211e1461068057806367530a61146106bd5780636868ff0d146106e657806370a082311461070f57610272565b80632748a9f9116101e857806342842e0e116101ac57806342842e0e1461055d57806342c914c814610586578063431053ac146105af5780634a63740a146105d85780634b2ee5e9146106015780634f189cb21461062c57610272565b80632748a9f91461048c5780632b940806146104b55780632d06177a146104de578063392e53cd1461050757806339371b251461053257610272565b806310c558bf1161023a57806310c558bf1461036e578063160a79251461039757806319c186e5146103d45780631b1de75c146103fd57806323b872dd1461043a578063273e06b31461046357610272565b806301ffc9a71461027757806306fdde03146102b4578063081812fc146102df578063095ea7b31461031c5780630e57c7e814610345575b600080fd5b34801561028357600080fd5b5061029e6004803603810190610299919061bae5565b610a89565b6040516102ab919061cd8e565b60405180910390f35b3480156102c057600080fd5b506102c9610b01565b6040516102d6919061ce7d565b60405180910390f35b3480156102eb57600080fd5b506103066004803603810190610301919061bc6f565b610c17565b604051610313919061cc6e565b60405180910390f35b34801561032857600080fd5b50610343600480360381019061033e919061ba28565b610dd0565b005b34801561035157600080fd5b5061036c6004803603810190610367919061ba8d565b611124565b005b34801561037a57600080fd5b506103956004803603810190610390919061b746565b6112fb565b005b3480156103a357600080fd5b506103be60048036038101906103b9919061b746565b611694565b6040516103cb919061d37f565b60405180910390f35b3480156103e057600080fd5b506103fb60048036038101906103f6919061b746565b6117f8565b005b34801561040957600080fd5b50610424600480360381019061041f919061b746565b611b91565b604051610431919061cd8e565b60405180910390f35b34801561044657600080fd5b50610461600480360381019061045c919061b7d4565b611bb1565b005b34801561046f57600080fd5b5061048a6004803603810190610485919061b746565b6120e3565b005b34801561049857600080fd5b506104b360048036038101906104ae919061b7d4565b6123c1565b005b3480156104c157600080fd5b506104dc60048036038101906104d7919061b85f565b61265e565b005b3480156104ea57600080fd5b506105056004803603810190610500919061b746565b612a0e565b005b34801561051357600080fd5b5061051c612c1d565b604051610529919061cd8e565b60405180910390f35b34801561053e57600080fd5b50610547612cb8565b604051610554919061cc6e565b60405180910390f35b34801561056957600080fd5b50610584600480360381019061057f919061b7d4565b612cde565b005b34801561059257600080fd5b506105ad60048036038101906105a8919061bb37565b613220565b005b3480156105bb57600080fd5b506105d660048036038101906105d1919061b746565b613508565b005b3480156105e457600080fd5b506105ff60048036038101906105fa919061b746565b6137e6565b005b34801561060d57600080fd5b50610616613b7f565b604051610623919061cc6e565b60405180910390f35b34801561063857600080fd5b50610641613ba5565b005b34801561064f57600080fd5b5061066a6004803603810190610665919061ba64565b613db2565b604051610677919061cde8565b60405180910390f35b34801561068c57600080fd5b506106a760048036038101906106a2919061bc6f565b613edb565b6040516106b4919061cc6e565b60405180910390f35b3480156106c957600080fd5b506106e460048036038101906106df919061ba8d565b61411a565b005b3480156106f257600080fd5b5061070d6004803603810190610708919061ba64565b6142f4565b005b34801561071b57600080fd5b506107366004803603810190610731919061b746565b6142f7565b604051610743919061d39a565b60405180910390f35b34801561075857600080fd5b50610773600480360381019061076e919061ba64565b6144e4565b005b34801561078157600080fd5b5061079c6004803603810190610797919061b918565b6144e7565b6040516107a9919061cd8e565b60405180910390f35b3480156107be57600080fd5b506107d960048036038101906107d4919061b746565b61475a565b005b3480156107e757600080fd5b506107f0614988565b6040516107fd919061ce7d565b60405180910390f35b34801561081257600080fd5b5061082d6004803603810190610828919061b746565b614a9e565b005b34801561083b57600080fd5b506108566004803603810190610851919061ba64565b614ccc565b005b34801561086457600080fd5b5061087f600480360381019061087a919061b823565b614ccf565b005b34801561088d57600080fd5b506108a860048036038101906108a3919061b746565b614fdc565b005b3480156108b657600080fd5b506108d160048036038101906108cc919061bc6f565b6151eb565b6040516108de919061cc6e565b60405180910390f35b3480156108f357600080fd5b5061090e6004803603810190610909919061bbac565b61522a565b60405161091b919061cc6e565b60405180910390f35b61093e6004803603810190610939919061bc98565b615722565b005b34801561094c57600080fd5b506109676004803603810190610962919061bc6f565b615958565b604051610974919061ce7d565b60405180910390f35b34801561098957600080fd5b506109a4600480360381019061099f919061b798565b615b8b565b005b3480156109b257600080fd5b506109cd60048036038101906109c8919061ba64565b615dfc565b005b3480156109db57600080fd5b506109f660048036038101906109f1919061ba64565b615dff565b005b348015610a0457600080fd5b50610a0d615e02565b604051610a1a919061cda9565b60405180910390f35b348015610a2f57600080fd5b50610a4a6004803603810190610a45919061b798565b615e26565b604051610a57919061cd8e565b60405180910390f35b348015610a6c57600080fd5b50610a876004803603810190610a82919061b746565b615f3e565b005b6000610a948261621c565b80610afa575060086000837bffffffffffffffffffffffffffffffffffffffffffffffffffffffff19167bffffffffffffffffffffffffffffffffffffffffffffffffffffffff1916815260200190815260200160002060009054906101000a900460ff165b9050919050565b6060610b2f7f23ccb7f304e24ab5f1e9da39a942988d4fca01111448e7741508267f43685af360001b6144e4565b610b5b7f6a43d39f74e7e2caf7217630212329da6d46ad4d6b08d7418988345e91ecd6e560001b6144e4565b610b877f832f31ece65bf2a9d9f8c8167d4b4495440bfd032caf9331ce7910fcfef2e66960001b6144e4565b600b8054610b949061d573565b80601f0160208091040260200160405190810160405280929190818152602001828054610bc09061d573565b8015610c0d5780601f10610be257610100808354040283529160200191610c0d565b820191906000526020600020905b815481529060010190602001808311610bf057829003601f168201915b5050505050905090565b6000610c457ff258d5636d79ed80247d753175ac91277082606e57d272d21a6b5c2c26a67af760001b615dff565b610c717f679b1054e1ccb72a29c9e4e57a99fd815222878254a9e6bfd254c9d6f5b1a89d60001b615dff565b610c9d7f4e5b6c25f3986bf43499f18ceadc58e706eaf50f3786398525e44d9d4c98c0f760001b615dff565b610cc97fc8f11fad7a528f89e46b9ea8bd67c231500f183c0970525b0e91c9c38f05494b60001b615dff565b610cd282616286565b610d11576040517f08c379a0000000000000000000000000000000000000000000000000000000008152600401610d089061d1bf565b60405180910390fd5b610d3d7fa7a285a21a5cb44b133ced09f16f9a398bda37d4a2648b126bf346a68bed449960001b615dff565b610d697fcc4635635aa654446bdd9bee89043cd0b36e3752c56a55f4f7fc1a6fb8faa75660001b615dff565b610d957f373fd9a46a3f0f0b8b9a7552f1f4c614842dc38c6cb380fbb9f0669a1abf6a4a60001b615dff565b6004600083815260200190815260200160002060009054906101000a900473ffffffffffffffffffffffffffffffffffffffff169050919050565b610dfc7f7bb36db0c7c0168708111a426e8c159a610b29e906013e4e2cb33b101e58208f60001b615dff565b610e287f2baf7c114f8263006a0a3195538b80a8e5b44caa5cf0be1417e1ba62d17128af60001b615dff565b610e547f07cce5b0b1655fe77d5d190b5c81faefb80d08bb5f9f99a34607aaefd91bfea460001b615dff565b6000610e5f82613edb565b9050610e8d7f4d3544df8a92ae648b8a6a2ca5ab557821bfe16d524ebdf1406410afeadd545f60001b615dff565b610eb97f581ae9a66695b9f8cf3cd77d4686f74abc8150f7b23cf79cf8f8efa7450a1b3860001b615dff565b610ee57fa1086b119c4e2b01c97cb1ab26c9b0ed18e2eaf5099514eb4780c5e4d9ba9d6260001b615dff565b8073ffffffffffffffffffffffffffffffffffffffff168373ffffffffffffffffffffffffffffffffffffffff161415610f54576040517f08c379a0000000000000000000000000000000000000000000000000000000008152600401610f4b9061d25f565b60405180910390fd5b610f807fd8733f7c851ad50304bb8f16a33f0eaf018e4dcf3242379cd58587557b84c7d260001b615dff565b610fac7fb2d447a8cf5426bc26d723c9b1869b71b2c94a1614d4465abab195a9e704f37460001b615dff565b610fd87ffea63f5f07f61a944ce0bd87f71246ab19a0b007cea3d294901a8049ee9e88af60001b615dff565b6110047fedc0c0fdb9f8aa85c9f21e418618b4f7470c213408f066e9c9bb53d71d7fe34e60001b615dff565b8073ffffffffffffffffffffffffffffffffffffffff16611023616377565b73ffffffffffffffffffffffffffffffffffffffff16148061105257506110518161104c616377565b615e26565b5b611091576040517f08c379a00000000000000000000000000000000000000000000000000000000081526004016110889061d05f565b60405180910390fd5b6110bd7f3b34e5307d43040444430e59e7ac8d62c7988a97212e6d9dee274c0e987a0ab360001b615dff565b6110e97f5e80b6cafc9a32554c75c04bb3cfffa8d560e742c7aa804e2247bcbfbe8c9d1960001b615dff565b6111157f40bece8f3c14bcf8bac2b77b5bc7de9db91f8d42c4062aa791712b708088009860001b615dff565b61111f838361637f565b505050565b6111507f9feccf5177f94f73799a5422484819c5dee09ee37c163d669c4dd1e07c95c43860001b6144e4565b61117c7f7acf5aef37de6a14dba25bc28ba1e2f90c46c79b20487e26917c10b91a5f383260001b6144e4565b6111a87f83f1b59e7bce549f8f663b363f47cbad8a4fa128c3901dd1cbf6954232090eb160001b6144e4565b6111d47f1ba8713fcb53024f1e4b95228a15dc7d6424cbe4aff18bed4444b4223299c48460001b6144e4565b60011515601160003373ffffffffffffffffffffffffffffffffffffffff1673ffffffffffffffffffffffffffffffffffffffff16815260200190815260200160002060009054906101000a900460ff16151514611267576040517f08c379a000000000000000000000000000000000000000000000000000000000815260040161125e9061d03f565b60405180910390fd5b6112937f2fe776079e7284979f07364b906eb96ed07db2386dc08014f49310a6db87d30560001b6144e4565b6112bf7f564714272f63b7a870836521e81e4e54f8e03ba0a2cdc737f28ba2e70a74911d60001b6144e4565b6112eb7ff3e573e559b5b5b758962aea538917889ea33856a125719510616b5cd2234d9160001b6144e4565b6112f6838383616514565b505050565b6113277f17fe06c1ff24b480e2d5c4537cb6a430c42ba0473672368c0a390c810b11a1a360001b615dfc565b6113537fc7eb559059a6fa814de76fa269d81c398eef659661ddd2049c0df0c1757e5d2460001b615dfc565b61137f7fa89ede0a82d9eadc8a8807fc35d959176cdedf22051c35dd4ac006eb3bd3621160001b615dfc565b6113ab7f4573e1375296082cc1db18a03ce12e297d38891e60c401402457dccc4e2fde6260001b615dfc565b60011515600660003373ffffffffffffffffffffffffffffffffffffffff1673ffffffffffffffffffffffffffffffffffffffff16815260200190815260200160002060000160009054906101000a900460ff16151514611441576040517f08c379a00000000000000000000000000000000000000000000000000000000081526004016114389061d31f565b60405180910390fd5b61146d7feb2d4160c3fc83620a133db97bfd595fde2160850d937cad8ac76d89436c1a5860001b615dfc565b6114997f7ca390149a8967dc5d4d0d5130e5a35de804eafcc236a99841be64d647014a5060001b615dfc565b6114c57f25b6b2218b7c69891b85b8afa6de73f2fe8e00681d5413cb780810f4c275d5d360001b615dfc565b6114f17f339b1d6e99d2ee1deb19f805cc649fb285deeeb1d7b680329d20c071a140d77d60001b615dfc565b61151d7fcdbc1e037ceff4d2e2cbf0b8cdbb82f622c03df82f8343388b079048a3957ac260001b615dfc565b6000600660008373ffffffffffffffffffffffffffffffffffffffff1673ffffffffffffffffffffffffffffffffffffffff168152602001908152602001600020905061158c7f7f3501bccd3dd21c3df20c95c7162f46c2629db204edea45878a813b2eae9efe60001b615dfc565b6115b87f3016e74721e87133cbb91b4579dfddc84817c751659119c6c4dc90e5ca77334d60001b615dfc565b60018160000160026101000a81548160ff0219169083151502179055506116017f39768a6552c2f7562b0e628d9b1d5bf94271fa47f23b82d847335162d12378e460001b615dfc565b61162d7fd3e3f1d62655a26307cb94a94e3db1a1e7e22557705da1287b5b14ffd024cd7d60001b615dfc565b6007829080600181540180825580915050600190039060005260206000200160009091909190916101000a81548173ffffffffffffffffffffffffffffffffffffffff021916908373ffffffffffffffffffffffffffffffffffffffff1602179055505050565b61169c61b49c565b6116c87fe1070a821a5d68fa9338a68ac254a075447f8f47f11bb499bafe9c5b749f307160001b615dfc565b6116f47f59ca76b9e024dc9eabf4df65d240f8b223ad87bc599cf2f39fb3833a1113c84c60001b615dfc565b6117207ff4c7077c69a19903634a92868c085462dac8b6137552dd257efe30b10faf612d60001b615dfc565b600660008373ffffffffffffffffffffffffffffffffffffffff1673ffffffffffffffffffffffffffffffffffffffff1681526020019081526020016000206040518060a00160405290816000820160009054906101000a900460ff161515151581526020016000820160019054906101000a900460ff161515151581526020016000820160029054906101000a900460ff161515151581526020016000820160039054906101000a900460ff161515151581526020016000820160049054906101000a900460ff1615151515815250509050919050565b6118247f17fe06c1ff24b480e2d5c4537cb6a430c42ba0473672368c0a390c810b11a1a360001b615dfc565b6118507fc7eb559059a6fa814de76fa269d81c398eef659661ddd2049c0df0c1757e5d2460001b615dfc565b61187c7fa89ede0a82d9eadc8a8807fc35d959176cdedf22051c35dd4ac006eb3bd3621160001b615dfc565b6118a87f4573e1375296082cc1db18a03ce12e297d38891e60c401402457dccc4e2fde6260001b615dfc565b60011515600660003373ffffffffffffffffffffffffffffffffffffffff1673ffffffffffffffffffffffffffffffffffffffff16815260200190815260200160002060000160009054906101000a900460ff1615151461193e576040517f08c379a00000000000000000000000000000000000000000000000000000000081526004016119359061d31f565b60405180910390fd5b61196a7feb2d4160c3fc83620a133db97bfd595fde2160850d937cad8ac76d89436c1a5860001b615dfc565b6119967f7ca390149a8967dc5d4d0d5130e5a35de804eafcc236a99841be64d647014a5060001b615dfc565b6119c27fa6c1ca8a04cfdcf72ecc4ec7ec3669fc12ab9a6d9812c5238296d1848aff93e860001b615dfc565b6119ee7f1e1b3cdb52d6393d18adc7111bcd798035d1890ee1a4c0e5a00b4c5f185e537060001b615dfc565b611a1a7f5febf4282c636126af8f525f56367ec8779d54c8604734c49375708e069cc0ca60001b615dfc565b6000600660008373ffffffffffffffffffffffffffffffffffffffff1673ffffffffffffffffffffffffffffffffffffffff1681526020019081526020016000209050611a897f01f25fa4cfc5c655506531a4bb898409ddcfe864428957984905520ecde2425660001b615dfc565b611ab57fba635133e9ae8d3c51ac09b0787d80c868cc46f694ce36059309e601f0c540f960001b615dfc565b60018160000160036101000a81548160ff021916908315150217905550611afe7f24c180f7e436575c9cf58a867e0da3131cf0dd8a8dbbef070720a76b622faf2e60001b615dfc565b611b2a7fc1eb621eaf485711f8af9dc452f831528323ea3729e9c2a64b1b02b17f9ea0fb60001b615dfc565b6007829080600181540180825580915050600190039060005260206000200160009091909190916101000a81548173ffffffffffffffffffffffffffffffffffffffff021916908373ffffffffffffffffffffffffffffffffffffffff1602179055505050565b600a6020528060005260406000206000915054906101000a900460ff1681565b611bdd7fffe4d168bb84c168056b84f0ccba8f029ed38e2c185daae9f461f37df38880d660001b6144e4565b611c097f25c9d60c169e62783c643f83a2b1098c06885bb9d252d76e47e0b5391b0cc82560001b6144e4565b611c357fac83726d49509cd354cce04f6e512679c997fa920554e629233e8645b06ab75c60001b6144e4565b611c617f9835b48fd1a2d567bb1996ffa8da6b7161d7a7cc844bf124ada9091b56d4732960001b6144e4565b60018114611ca4576040517f08c379a0000000000000000000000000000000000000000000000000000000008152600401611c9b9061d23f565b60405180910390fd5b611cd07fa0e5519faa484d2ab58e0069c9b7d25183023f2cccd0aa2b159677694a41201460001b6144e4565b611cfc7fbb620d68af6961a93cf664a0f49453dbba1cf5509e5d19fe7edfc1884ac8650260001b6144e4565b611d287f79d2799974346c0fcfd7b96884161704537ceb468bb1f5ee0a1e232d1a9070b760001b6144e4565b611dbf611dba600f805480602002602001604051908101604052809291908181526020018280548015611db057602002820191906000526020600020905b8160009054906101000a900473ffffffffffffffffffffffffffffffffffffffff1673ffffffffffffffffffffffffffffffffffffffff1681526020019060010190808311611d66575b5050505050616652565b6166e1565b611deb7fba8675f3a9f09bba63be754a120da322097da661816fcda70339084f936845fe60001b6144e4565b611e177f8b6847e841697ac217e2b9972985f4572b3a8545bfccba6a1cda289dc1ee4acf60001b6144e4565b611e1f6168a3565b611e4b7f43b59a96ba9f4a4ccabb5b20502bd93bea4cbb5132e9660d65d4847a1d4226bf60001b6144e4565b611e777f0919c3efd060225250f2f8c68c2ab5bbb84ab6c442b44707cb8c623b3202206f60001b6144e4565b611e82838383616cd0565b611eae7f80189beebae8079a8901e7ddd5785fa9605d5f2c71b4d7a381314bb5d336781060001b6144e4565b611eda7f2a43b843329887b37a6ff26f2f69a97b8adaa92c064ad5ee1f69095b4c53f3b460001b6144e4565b611ee382616e74565b611f0f7f9cf026a0838ee9c3aef416c00d70d4f7ae5533aaad9494f1bb27072601c992d460001b6144e4565b611f3b7f74b7249ecad3aab34e728effeecbcca17f9f61df2231ca0b5d5d4f8b0bbb2abb60001b6144e4565b6000600660008473ffffffffffffffffffffffffffffffffffffffff1673ffffffffffffffffffffffffffffffffffffffff1681526020019081526020016000209050611faa7f46e6b510df48973241009d341e4984e10f39b0f205252dd2d7f8265637eda71e60001b6144e4565b611fd67fd38a3f289f570d6ee0f49f73ea11310312634e31dbc6390fd47b4588265fe72d60001b6144e4565b60018160000160026101000a81548160ff02191690831515021790555061201f7f22f89ca554cb1fecd28da37e2e11e348f426174aa1bcaa5cb39607db9abf254460001b6144e4565b61204b7fbdfb16d3457527af0c5100c3cc267827d1d3b27115fe5e64881e665ae5a9572c60001b6144e4565b60018160000160016101000a81548160ff0219169083151502179055506120947fee31f3faeba7dfb65be7b7ec66e863e69e04e50982e80bd8cc26d39c9cc30ee060001b6144e4565b6120c07f141e89ab58b07bb0c87727fa32777fbab96b98de0833c1ac9087e5ac06e6416f60001b6144e4565b60018160000160036101000a81548160ff02191690831515021790555050505050565b61210f7f17fe06c1ff24b480e2d5c4537cb6a430c42ba0473672368c0a390c810b11a1a360001b615dfc565b61213b7fc7eb559059a6fa814de76fa269d81c398eef659661ddd2049c0df0c1757e5d2460001b615dfc565b6121677fa89ede0a82d9eadc8a8807fc35d959176cdedf22051c35dd4ac006eb3bd3621160001b615dfc565b6121937f4573e1375296082cc1db18a03ce12e297d38891e60c401402457dccc4e2fde6260001b615dfc565b60011515600660003373ffffffffffffffffffffffffffffffffffffffff1673ffffffffffffffffffffffffffffffffffffffff16815260200190815260200160002060000160009054906101000a900460ff16151514612229576040517f08c379a00000000000000000000000000000000000000000000000000000000081526004016122209061d31f565b60405180910390fd5b6122557feb2d4160c3fc83620a133db97bfd595fde2160850d937cad8ac76d89436c1a5860001b615dfc565b6122817f7ca390149a8967dc5d4d0d5130e5a35de804eafcc236a99841be64d647014a5060001b615dfc565b6122ad7f672033f04b4e112370b6ecc5c95c5fd26530079ec680a0c1570bee6e0f462d2560001b615dfc565b6122d97ff8fc32c10d43807198a95614f0b9098e7003c5c089b0b704c8572fd799d2672c60001b615dfc565b6123057f0dba79ac72aa60bdafdd09b80c230a7f7016ad1651b4b17e64feefecb0305a2060001b615dfc565b6000600660008373ffffffffffffffffffffffffffffffffffffffff1673ffffffffffffffffffffffffffffffffffffffff16815260200190815260200160002090506123747f57b7c787c01cf0840d6b36365bfc2df9d8b03ffc1278be64ec990463d8c9869360001b615dfc565b6123a07fbdbe439f487ce571a62119d8101cc50e88ac630ce1ccee1bc0254846e1091bf360001b615dfc565b60008160000160036101000a81548160ff0219169083151502179055505050565b6123ed7f349c354d55ce06ae61da2f822a606656653bc38d0828c10f82a62c068b69a5f860001b6144e4565b6124197fa3d686a534d643ca87170c2203d5288c6fd7c79a484241033ac79428c01f2f1260001b6144e4565b6124457f296d424fd4a988ac10531e9ab21ad32b3d3fd2ddbf56667974c318829b1a8b5760001b6144e4565b6124717f4b699b00f120b1cc1eab9771cb17fdc944e1db23d8416409e224fe3e879a13de60001b6144e4565b60011515600660003373ffffffffffffffffffffffffffffffffffffffff1673ffffffffffffffffffffffffffffffffffffffff16815260200190815260200160002060000160049054906101000a900460ff16151514612507576040517f08c379a00000000000000000000000000000000000000000000000000000000081526004016124fe9061d07f565b60405180910390fd5b6125337fc09caa55f5d0237e8e31a2343c6fa3e4f69e449342be8f2cff82e3218b6c221860001b6144e4565b61255f7f677c59c179db07ea673c489ae50c05641bb15d407d10a3e07fa10d8d98e04dce60001b6144e4565b61258b7f9a63cddc7adb084e4e0a3b57147ad4f0cdba66fb47c4a53d3463e4157826299060001b6144e4565b6125948361706f565b6125c07ff08e77b82e1c5052cec4a42145364f2ba3cac4df4ff5568c9aa050c2a8e8728d60001b6144e4565b6125ec7f997ac31006f6723a77fb23c5add37e28e5ead43e5d83fcfa33840a650607a95f60001b6144e4565b8273ffffffffffffffffffffffffffffffffffffffff166340c10f1983836040518363ffffffff1660e01b815260040161262792919061cd65565b600060405180830381600087803b15801561264157600080fd5b505af1158015612655573d6000803e3d6000fd5b50505050505050565b61268a7fd2dcfbf76622545c23054e5599298a23742712cedfaae3af88ff7c1b286c723a60001b6144e4565b6126b67f9057ff9100256a99055a95cd43071fc4a0f7beb6c9f63a1556759870daa89e8860001b6144e4565b6126e27f824832e328ff66871b2b62cd377ee5013bea5a1ea4c11606fdba814af6e89c6760001b6144e4565b61270e7f1dcef36980eeae7011f94a51ae400416de0fa4513279dc2b862ff999b174a1a360001b6144e4565b60011515600660003373ffffffffffffffffffffffffffffffffffffffff1673ffffffffffffffffffffffffffffffffffffffff16815260200190815260200160002060000160049054906101000a900460ff161515146127a4576040517f08c379a000000000000000000000000000000000000000000000000000000000815260040161279b9061cebf565b60405180910390fd5b6127d07f87e8258ef62e13098d11aa57c79945e0055eb25497efa69a82ee910dfe66703a60001b6144e4565b6127fc7f3c0d5aa2ddd7ccc73d72fc49b29b2295746fd301360ee94c69d80df83f03c8e160001b6144e4565b6128287f57f0c08d61f2b2124fc28d980cee88fcd086fd9db70e76bca9055b617245c1a760001b6144e4565b6128318761706f565b61285d7f5447b77be9d3f78b5587fb25a6b0c7c7620cd814e065e902d8771775de76e47160001b6144e4565b6128897f0b1602794df5270a6a0bebcce1cbedefa51488b3b5a274f6a230592c0e0cf5b160001b6144e4565b60008760405160200161289c919061cc2f565b6040516020818303038152906040528051906020012090506128e07fefdfc12b6161c2cb48d0e8d7b48ed6f2ce452316445ee4ae934e0de607da645a60001b6144e4565b61290c7fdd89d5028b5cac06af8c19b98fccc8bca646ae870ea18a8097267d89cdb13fe960001b6144e4565b612917818888616514565b6129437fc3286e822ce90230307961c9989723b3cfdad076b25e686db66fb960db053c2a60001b6144e4565b61296f7fc810ce9b652a5a479f093f0b143466dd42003685e0d796d8e39a7681f24395cb60001b6144e4565b600d60019054906101000a900473ffffffffffffffffffffffffffffffffffffffff1673ffffffffffffffffffffffffffffffffffffffff1663f89b1f3689878787876040518663ffffffff1660e01b81526004016129d295949392919061ccd5565b600060405180830381600087803b1580156129ec57600080fd5b505af1158015612a00573d6000803e3d6000fd5b505050505050505050505050565b612a3a7f4d89f0c2a44dc8eb2ef1431e8562e7a25173bdbd7a5ac724f815e4f6503cbe9b60001b6144e4565b612a667f085009ab0571d89f4533e63df3a728832af3cbf80af3ad704d99620ea755a40560001b6144e4565b612a927fe231f23917b6769d9a5613d68c4735c6ca7e676f8e4d42c1c017e8d3412c3b8860001b6144e4565b612abe7f76c15a65a0893958865ed23025e12aa72f77abb32ac9572fb5832792375e54f160001b6144e4565b612ac86001613edb565b73ffffffffffffffffffffffffffffffffffffffff163373ffffffffffffffffffffffffffffffffffffffff1614612b35576040517f08c379a0000000000000000000000000000000000000000000000000000000008152600401612b2c9061cf5f565b60405180910390fd5b612b617fdb3ad76bdaf3629eb07484d93695dd59b0a2426fd76d6795443874a44670a73260001b6144e4565b612b8d7faa8b423a9e52ce476e94b16a9b6c4309c0a7823dd3f82c29ace17d6e0d5ae82b60001b6144e4565b612bb97f9518598f2fb4669ddb2d0c9cb0e80e1cd7bafe5e5257f90d99c84382b758d35d60001b6144e4565b612be57f9df8c2231cbf47bd0154d166a587c39ec9dedd21ddd1ab46142965ee8c86d0e860001b6144e4565b612c117f77ff9b00b81cba9ab0a5b5690755fe8769c67273d2f35cb7e4f7b7b1f623493d60001b6144e4565b612c1a81616e74565b50565b6000612c4b7ff226322d3365f9cc6190c6741e51e51d4ecffd27511914ba196a1eabc58a62e960001b6144e4565b612c777f7f5da9a8b6ee5782df85b6f83703d41b59af8d6b00a9df74ec4ce4990231bce560001b6144e4565b612ca37fbf0296909dcaa19a97b25d0468e4a1e6594a349780e7ba587f43aeebbeb772c960001b6144e4565b600d60009054906101000a900460ff16905090565b600d60019054906101000a900473ffffffffffffffffffffffffffffffffffffffff1681565b612d0a7f0a459bfff72e5e944bcab6e50ea46c731f1688a9bb82f459a2ce434cfce2245d60001b6144e4565b612d367fbb7a8c59854e1461a4122c2bbb72f543766cc2b50e44e04787aac830fc5fe99160001b6144e4565b612d627f796fed04cbe02e80760b483b53be1cce9493effa618e7b810362dfc536c1ed0d60001b6144e4565b612d8e7fe2618f900e7f8e0393f9b3f64ad34d6cb7ea44862a85396812851b13d4ab4a9d60001b6144e4565b60018114612dd1576040517f08c379a0000000000000000000000000000000000000000000000000000000008152600401612dc89061d23f565b60405180910390fd5b612dfd7f5590f9ab0f3163cd007aa4193db1d76376353aac911c5495aa0347ab1f3cf9da60001b6144e4565b612e297fd1ee38ef7aaf882cc62c8d42f806a807f448c5285a142bd3b52164e032ed923760001b6144e4565b612e557fd8e9496e9d58d4790a162cec5cc0a14f704ec8fc6b4dbb0430a4c101e8125eb460001b6144e4565b612eec612ee7600f805480602002602001604051908101604052809291908181526020018280548015612edd57602002820191906000526020600020905b8160009054906101000a900473ffffffffffffffffffffffffffffffffffffffff1673ffffffffffffffffffffffffffffffffffffffff1681526020019060010190808311612e93575b5050505050616652565b6166e1565b612f187fe3de9844c4cb447b9fae4a1025c69a6c5a6d642d20d7aa55c12aa242020fcb4460001b6144e4565b612f447f37c005e39493909d1e7d037c87de7235d72623606b789de1a7e26f7e4cc6c9af60001b6144e4565b612f4c6168a3565b612f787f9834ababe31c5f74a924cdb7eb1b1bb34f5a1db768301c5760532ebd8199e14260001b6144e4565b612fa47fedf7f324adf691d27739e234c303fa441a874b14b9e6b40deed8fcc19402045e60001b6144e4565b612fbf838383604051806020016040528060008152506171e1565b612feb7f2af65428f831f4a9745dba328e4ba9be0047db6d010933c166eb15a3d0b4722560001b6144e4565b6130177f51e608562c5db002193497f82b68fee38d1772e9acec4bdcdbeee6b63ba5f0c660001b6144e4565b61302082616e74565b61304c7f99ad98229da2425a2190f7aee1c2f498baaaa1de059ffc228a2650cf8c4aa89460001b6144e4565b6130787f325d7cff6916e826e8225ce882656d2fc6a73e210cca89dbf340a66d525fa61360001b6144e4565b6000600660008473ffffffffffffffffffffffffffffffffffffffff1673ffffffffffffffffffffffffffffffffffffffff16815260200190815260200160002090506130e77f8bba63e45839dfd1f9c7a9d31aca83259a0550aae970205780e1ea0cc6f9aa2e60001b6144e4565b6131137f60f83769887168441881c8adf38966f66c29f6eecee0fa50c41e66b03b3d8c5f60001b6144e4565b60018160000160026101000a81548160ff02191690831515021790555061315c7f28fdee99909b58588d6558990d343b5fb7d98fcf225ff52859c5718fc93bd8cf60001b6144e4565b6131887f90f00677f3e3b31f43cc6d3e688b89643a02b93eea58b5280c375279abe6e4f860001b6144e4565b60018160000160016101000a81548160ff0219169083151502179055506131d17ff7b39d63cb4e00e9998c262878cbb391276fa44fe114d46da2186856fc8c7cba60001b6144e4565b6131fd7f104b0900d1ce18f7a525d444299efac06073e86b2f18455232d4ec31e7b59c9d60001b6144e4565b60018160000160036101000a81548160ff02191690831515021790555050505050565b61324c7fe9f20c022fd923634739e4649157869615bb1d6ca97adb34cb823beea78068df60001b6144e4565b6132787fd4ac3aa0e420baf3696e9ebc6c14a867701b5bce556d2f9be5acc830fe87e08160001b6144e4565b6132a47f95001c62def3115aea79685fb7294de97837172f30ab176d525e37255e2c028d60001b6144e4565b6132d07fa61cc78a2f21acbb5cff022e636edd10c6f341827eaf0367df532416b02ce15e60001b6144e4565b60011515600660003373ffffffffffffffffffffffffffffffffffffffff1673ffffffffffffffffffffffffffffffffffffffff16815260200190815260200160002060000160029054906101000a900460ff16151514613366576040517f08c379a000000000000000000000000000000000000000000000000000000000815260040161335d9061cedf565b60405180910390fd5b6133927fd71dba8ade4c4a72761173b52d033e238a9bb872077edef0ab3bb89b32d0ab4f60001b6144e4565b6133be7fbfbd4d5522d5ce5453ce6eee328aabf56537e896946f553c643c759e995b474a60001b6144e4565b6133ea7f68bef78f99938e5639ebf8e096f017767aa085d719fcf9f6214e49ba523c49a160001b6144e4565b600d60019054906101000a900473ffffffffffffffffffffffffffffffffffffffff1673ffffffffffffffffffffffffffffffffffffffff1663f89b1f3630868686866040518663ffffffff1660e01b815260040161344d95949392919061ccd5565b600060405180830381600087803b15801561346757600080fd5b505af115801561347b573d6000803e3d6000fd5b505050506134ab7fa114fdebfb2f5b26cd09dd868f2fca1ebaa9be14dd48912b7a7c3383ff23600260001b6144e4565b6134d77fda37b6312e472a372f5385dba4365b344ebf6af5a54eda2d99d72e2e3fc183da60001b6144e4565b6135027fa063f3cd8b0dcd6546ffc1c06fc86515c40fe331e91488c5e18c88c7efc881e88383616514565b50505050565b6135347f17fe06c1ff24b480e2d5c4537cb6a430c42ba0473672368c0a390c810b11a1a360001b615dfc565b6135607fc7eb559059a6fa814de76fa269d81c398eef659661ddd2049c0df0c1757e5d2460001b615dfc565b61358c7fa89ede0a82d9eadc8a8807fc35d959176cdedf22051c35dd4ac006eb3bd3621160001b615dfc565b6135b87f4573e1375296082cc1db18a03ce12e297d38891e60c401402457dccc4e2fde6260001b615dfc565b60011515600660003373ffffffffffffffffffffffffffffffffffffffff1673ffffffffffffffffffffffffffffffffffffffff16815260200190815260200160002060000160009054906101000a900460ff1615151461364e576040517f08c379a00000000000000000000000000000000000000000000000000000000081526004016136459061d31f565b60405180910390fd5b61367a7feb2d4160c3fc83620a133db97bfd595fde2160850d937cad8ac76d89436c1a5860001b615dfc565b6136a67f7ca390149a8967dc5d4d0d5130e5a35de804eafcc236a99841be64d647014a5060001b615dfc565b6136d27fd19aa8c3c9a2afac9d474d7f3e2f4dab0f76aacec227e24259ce7ca61be2af4860001b615dfc565b6136fe7f476c27acbcc01ed0d132e5667b7b2d84d3ee10053d6d7ad88a1f98f4d918f0eb60001b615dfc565b61372a7fca4c0f5c038ec1ef3001eab44448fc166a5d4967b62f4fdc4525ead4ed295f4b60001b615dfc565b6000600660008373ffffffffffffffffffffffffffffffffffffffff1673ffffffffffffffffffffffffffffffffffffffff16815260200190815260200160002090506137997fa15a5734f0fe0be8296640645e97e61d04304f39c0b6004e9fb9e687e1e2390a60001b615dfc565b6137c57f99e1f73228bd7433b7c9bd43934ae6ee898e1d7ffdecb122f1cdc76e7f04a68160001b615dfc565b60008160000160026101000a81548160ff0219169083151502179055505050565b6138127f17fe06c1ff24b480e2d5c4537cb6a430c42ba0473672368c0a390c810b11a1a360001b615dfc565b61383e7fc7eb559059a6fa814de76fa269d81c398eef659661ddd2049c0df0c1757e5d2460001b615dfc565b61386a7fa89ede0a82d9eadc8a8807fc35d959176cdedf22051c35dd4ac006eb3bd3621160001b615dfc565b6138967f4573e1375296082cc1db18a03ce12e297d38891e60c401402457dccc4e2fde6260001b615dfc565b60011515600660003373ffffffffffffffffffffffffffffffffffffffff1673ffffffffffffffffffffffffffffffffffffffff16815260200190815260200160002060000160009054906101000a900460ff1615151461392c576040517f08c379a00000000000000000000000000000000000000000000000000000000081526004016139239061d31f565b60405180910390fd5b6139587feb2d4160c3fc83620a133db97bfd595fde2160850d937cad8ac76d89436c1a5860001b615dfc565b6139847f7ca390149a8967dc5d4d0d5130e5a35de804eafcc236a99841be64d647014a5060001b615dfc565b6139b07f0b1291371d9463994aae42a61df0414b3d0b3fdd2d067475d4821730825f7cf860001b615dfc565b6139dc7f599b9bfe92d899fc6894f1f1b67d0bb4c6216e64ff1ff1e134f8298835f3ef1060001b615dfc565b613a087f3056afd5e69b4d47e433daf171be35d6822804f0c8fa3f3185d6a628061ccf6460001b615dfc565b6000600660008373ffffffffffffffffffffffffffffffffffffffff1673ffffffffffffffffffffffffffffffffffffffff1681526020019081526020016000209050613a777fc1c72c72e48c13e8bd3acb58f87318aee86c7d7fd74b7357171564f72ccb772f60001b615dfc565b613aa37ff1fb817d8b9fb9475dfc2b7ae92b0db7cc1195286a72f24562c8efe4decffb0760001b615dfc565b60018160000160016101000a81548160ff021916908315150217905550613aec7f90af3017f49ab1baa1687aaa66d1ad1dde3e2289607a5a89e01746def1a1ecc460001b615dfc565b613b187f6e9e6acb812841407579b64d2dad26c53ceec9183f1d741efe3c49ac84d929f160001b615dfc565b6007829080600181540180825580915050600190039060005260206000200160009091909190916101000a81548173ffffffffffffffffffffffffffffffffffffffff021916908373ffffffffffffffffffffffffffffffffffffffff1602179055505050565b601060009054906101000a900473ffffffffffffffffffffffffffffffffffffffff1681565b613bd17f4d89f0c2a44dc8eb2ef1431e8562e7a25173bdbd7a5ac724f815e4f6503cbe9b60001b6144e4565b613bfd7f085009ab0571d89f4533e63df3a728832af3cbf80af3ad704d99620ea755a40560001b6144e4565b613c297fe231f23917b6769d9a5613d68c4735c6ca7e676f8e4d42c1c017e8d3412c3b8860001b6144e4565b613c557f76c15a65a0893958865ed23025e12aa72f77abb32ac9572fb5832792375e54f160001b6144e4565b613c5f6001613edb565b73ffffffffffffffffffffffffffffffffffffffff163373ffffffffffffffffffffffffffffffffffffffff1614613ccc576040517f08c379a0000000000000000000000000000000000000000000000000000000008152600401613cc39061cf5f565b60405180910390fd5b613cf87fdb3ad76bdaf3629eb07484d93695dd59b0a2426fd76d6795443874a44670a73260001b6144e4565b613d247faa8b423a9e52ce476e94b16a9b6c4309c0a7823dd3f82c29ace17d6e0d5ae82b60001b6144e4565b613d507f9dcf929522dbbd886affd03e79cd41232f82d5e191cb9ea0bc2b9bd7e6fb40d060001b6144e4565b613d7c7f5f8055d39bd9aa74757977c72faa34c4c26633e4721116f8752df4796485632960001b6144e4565b613da87f96b0e091455599307c79f1e47cca6954357b0aef72208eb6db13e4767be6b5ec60001b6144e4565b613db06168a3565b565b6060613de07f1347c2e15a8b10c3b83a7a68e0d3f96ca384c11a4a24db8f805df90eccf31aab60001b614ccc565b613e0c7fef8923962f14c6f8dfeaa655fb27ed955cc3387faeaa1788e44e41628b91f9c860001b614ccc565b613e387f1614646660ef230e2abe7d61aa587ee46ed5ef4b9896b4c9c85a04954b2319e460001b614ccc565b600960008381526020019081526020016000208054613e569061d573565b80601f0160208091040260200160405190810160405280929190818152602001828054613e829061d573565b8015613ecf5780601f10613ea457610100808354040283529160200191613ecf565b820191906000526020600020905b815481529060010190602001808311613eb257829003601f168201915b50505050509050919050565b6000613f097fb64a6ad3980ed7e6c52499ffa0132759e2b753f04313b7dd143b7fed23fe542960001b615dff565b613f357fac1f7ed87ba90f1039487b563b3c60edda69061e86574cbd28b25f901a260ca460001b615dff565b613f617fb54154a02e92dac3a88195d34173b940e8818fc70b523d2c3c449158e5783f4a60001b615dff565b60006002600084815260200190815260200160002060009054906101000a900473ffffffffffffffffffffffffffffffffffffffff169050613fc57fb95aa3fb90c400e68c34fdc51e53db1d38917073cd5e1434709e58e72bd0637560001b615dff565b613ff17f1a47a2e3e9f27e3719267f31daf5f3665d5fbffe14dfc5b27f0a60f6cb45943960001b615dff565b61401d7ff35b30f497c4348e1eda7b63dbe7938ac75d66c41c39902fb5ef4903bb1cb6c960001b615dff565b600073ffffffffffffffffffffffffffffffffffffffff168173ffffffffffffffffffffffffffffffffffffffff16141561408d576040517f08c379a00000000000000000000000000000000000000000000000000000000081526004016140849061d0df565b60405180910390fd5b6140b97fcf96872600edbd53f8a11bbca2264ed8dba4e27a5293b3f6c274dab19aa0bb4060001b615dff565b6140e57f8fc2c61e9edaf5ec6c85a96b0b5544c6720b7cac8efcf853ee025c81febbb15660001b615dff565b6141117f8db9c6394f35bec6b48697c8cdf930b6cc65e4aa710855527db943931a8726cb60001b615dff565b80915050919050565b6141467fc897c8a791cd23cbbc346455b2acf9008a1f4308a260ffb14252229c03804ccb60001b6144e4565b6141727f40aec517f7419f961a42475e7719db27bfd4c0be32e5f9d1b291e1a8fdf28a9060001b6144e4565b61419e7feafa2b6034ca705537750c61cd52aff63cac7a8bd0e93083f6a4a087822ac08960001b6144e4565b6141ca7f53c0fc493f57b605af8c755247567862367ee1d47228c6cc3b295550377d25f660001b6144e4565b60011515600660003373ffffffffffffffffffffffffffffffffffffffff1673ffffffffffffffffffffffffffffffffffffffff16815260200190815260200160002060000160039054906101000a900460ff16151514614260576040517f08c379a00000000000000000000000000000000000000000000000000000000081526004016142579061ce9f565b60405180910390fd5b61428c7f3a61c3d29a6fa1c9783a07de77f8091f1855a8d1d674d37ea7bdf7dffd195c5560001b6144e4565b6142b87f40f1122b9c1d02b72b66a7d58eeb0266cdbf6a86dfed9c266d6f03c0a75ac2ba60001b6144e4565b6142e47f3b55b710b2b9ade513547e7790b2c8250a46f4092b9a45fb3fca46b71fdaa52260001b6144e4565b6142ef838383616514565b505050565b50565b60006143257f1188dc62a6a3200c565b3b638fac1b5ca09c281349efcef1209e5e9538c5c06d60001b615dff565b6143517ffed18eab34b2bb64fde8c2aed48a8e676351617675f56bfcbdfdfef70c9dcf3760001b615dff565b61437d7f41d9fbc33e0979d313415fa163d5e6c02a01e25cb23f7d93e833eea7dcdacdf860001b615dff565b6143a97f142c9050b0a261b6d8fc80e4638b2eb3bfe47ef8ad9d9ca218e9feb962d2d12960001b615dff565b600073ffffffffffffffffffffffffffffffffffffffff168273ffffffffffffffffffffffffffffffffffffffff161415614419576040517f08c379a00000000000000000000000000000000000000000000000000000000081526004016144109061d0bf565b60405180910390fd5b6144457ff39eb2acb62f2322ab5fdd54da1f38cf4381140cc9a2d06b98b8f3bde1d4d38560001b615dff565b6144717f6997381a92a413ce70a5e8a4bce45baa8a4ec1380d4bdc234b9e820badd1a6b360001b615dff565b61449d7fc3a365527343b6d027654e9a381a3c114fb9694e077478d1073673d0d1b9c52a60001b615dff565b600360008373ffffffffffffffffffffffffffffffffffffffff1673ffffffffffffffffffffffffffffffffffffffff168152602001908152602001600020549050919050565b50565b60006145157fb3d849c77a4223b32293b0194c55cc25de986b58f9a1481bf2e2c9007b095d0660001b6144e4565b6145417f9685b0d45f2c39e9a24736a9d694303bd57fe12e4ef75966652b20a00cda36a560001b6144e4565b61456d7f3359d0534b80a9cd19d4e5d281e396f3d50203c8903db0589f659f43cb16c7f360001b6144e4565b6145997f1f61723fc4d2413cb0eaca719fb986df707ef9057f7df7fc6c1d1c1561ed480d60001b6144e4565b600d60009054906101000a900460ff16156145e9576040517f08c379a00000000000000000000000000000000000000000000000000000000081526004016145e09061d2ff565b60405180910390fd5b6146157f8afc4ee2010362d29a2168219a2b5788dfa055b74d5320ab2ca9145f596dc04760001b6144e4565b6146417fea7a9bdabb01a390df54010a5cc83ca2f915a62235cb83bc3b197738b331f57660001b6144e4565b61466d7f8bea330f55637306b12584f6e87acf7e1c7b49eac34808487102c2bd6a3090b660001b6144e4565b6147498c8c8c8080601f016020809104026020016040519081016040528093929190818152602001838380828437600081840152601f19601f820116905080830192505050505050508b8b8080601f016020809104026020016040519081016040528093929190818152602001838380828437600081840152601f19601f820116905080830192505050505050508a8a8a8a8a8a8080601f016020809104026020016040519081016040528093929190818152602001838380828437600081840152601f19601f82011690508083019250505050505050617376565b90509b9a5050505050505050505050565b6147867f17fe06c1ff24b480e2d5c4537cb6a430c42ba0473672368c0a390c810b11a1a360001b615dfc565b6147b27fc7eb559059a6fa814de76fa269d81c398eef659661ddd2049c0df0c1757e5d2460001b615dfc565b6147de7fa89ede0a82d9eadc8a8807fc35d959176cdedf22051c35dd4ac006eb3bd3621160001b615dfc565b61480a7f4573e1375296082cc1db18a03ce12e297d38891e60c401402457dccc4e2fde6260001b615dfc565b60011515600660003373ffffffffffffffffffffffffffffffffffffffff1673ffffffffffffffffffffffffffffffffffffffff16815260200190815260200160002060000160009054906101000a900460ff161515146148a0576040517f08c379a00000000000000000000000000000000000000000000000000000000081526004016148979061d31f565b60405180910390fd5b6148cc7feb2d4160c3fc83620a133db97bfd595fde2160850d937cad8ac76d89436c1a5860001b615dfc565b6148f87f7ca390149a8967dc5d4d0d5130e5a35de804eafcc236a99841be64d647014a5060001b615dfc565b6149247fb37faabeaac0e9d24ddfc055fcc10863e188e55740d92d41edbaaf1a5ed9a9f260001b6144e4565b6149507fa81b5d8f59f4bfb6f77d7d2f6ec71834d2653eeef74d923e255f72d9b152902860001b6144e4565b61497c7ff8f0da8b580daca4c504de6d2193bc686e370253e9d7349521bec2f2d58622f860001b6144e4565b61498581617bfe565b50565b60606149b67ffb623ac7fbb79cbe30d64fe48f40af9b9deae15dc2f34cf4dae319f156aa197660001b6144e4565b6149e27fa8b7fb7c6b82db4ae78fa6dc7657d9a85c4b9da527f65a6b6a0b382c7dd2b13060001b6144e4565b614a0e7fcaa5493b551bd3e1b01cdfe1071a39e6f06372e1e03738e0956cffd973a0a65860001b6144e4565b600c8054614a1b9061d573565b80601f0160208091040260200160405190810160405280929190818152602001828054614a479061d573565b8015614a945780601f10614a6957610100808354040283529160200191614a94565b820191906000526020600020905b815481529060010190602001808311614a7757829003601f168201915b5050505050905090565b614aca7f17fe06c1ff24b480e2d5c4537cb6a430c42ba0473672368c0a390c810b11a1a360001b615dfc565b614af67fc7eb559059a6fa814de76fa269d81c398eef659661ddd2049c0df0c1757e5d2460001b615dfc565b614b227fa89ede0a82d9eadc8a8807fc35d959176cdedf22051c35dd4ac006eb3bd3621160001b615dfc565b614b4e7f4573e1375296082cc1db18a03ce12e297d38891e60c401402457dccc4e2fde6260001b615dfc565b60011515600660003373ffffffffffffffffffffffffffffffffffffffff1673ffffffffffffffffffffffffffffffffffffffff16815260200190815260200160002060000160009054906101000a900460ff16151514614be4576040517f08c379a0000000000000000000000000000000000000000000000000000000008152600401614bdb9061d31f565b60405180910390fd5b614c107feb2d4160c3fc83620a133db97bfd595fde2160850d937cad8ac76d89436c1a5860001b615dfc565b614c3c7f7ca390149a8967dc5d4d0d5130e5a35de804eafcc236a99841be64d647014a5060001b615dfc565b614c687fbf0f9749f84c7edccaf2377c30c6b219be18eb553db9c73393f3986df886d1be60001b6144e4565b614c947f162187633f7d38b2432e34fcc8b0e9d064b28d70351a1a50ee4da69dbac4c02160001b6144e4565b614cc07ff9b3e807035954dd16dbd2cf37a1568b0ca628e602a3a6ea11ff8338e01e71b460001b6144e4565b614cc981617df9565b50565b50565b614cfb7fe1b337a462e3d2f653dbd9d103742928ca0ebdf9778298da6a25cc0f8294c75660001b615dff565b614d277f2adfb31b904f041b0d78acc33dc132b915ed93b6375bf3148b5343fe6df43c8160001b615dff565b614d537f5b59c792b3a68109c307c569e95f3c564ca5877d97c6aec87191c9001599632c60001b615dff565b614d7f7f62a0b251907a190dc67ccd8d8e4fba72f8ffce3ee9f4ba468c1bda4df7b1079860001b615dff565b614d87616377565b73ffffffffffffffffffffffffffffffffffffffff168273ffffffffffffffffffffffffffffffffffffffff161415614df5576040517f08c379a0000000000000000000000000000000000000000000000000000000008152600401614dec9061cf9f565b60405180910390fd5b614e217fded5f23f7ae66971e18b23a49e9c8e6b3521a6ac0f3d3fea4c09e3f6724bd63d60001b615dff565b614e4d7fdcb3fe48db66270008ab07015f993d8e2d31c80211cc8a49daedae647bb7354260001b615dff565b614e797fb227aae3e91e724b6e2314084fa73a7629948ee6f88640fbada400c11c2add1d60001b615dff565b8060056000614e86616377565b73ffffffffffffffffffffffffffffffffffffffff1673ffffffffffffffffffffffffffffffffffffffff16815260200190815260200160002060008473ffffffffffffffffffffffffffffffffffffffff1673ffffffffffffffffffffffffffffffffffffffff16815260200190815260200160002060006101000a81548160ff021916908315150217905550614f407f92207e37564a898646fa6c6725dd213c3a59b92b28e37ff364d781e8b472b18860001b615dff565b614f6c7f58ccaebaa5a845ab5d275dd2f804c9b02583b6471510fe544ba8935982a4f24b60001b615dff565b8173ffffffffffffffffffffffffffffffffffffffff16614f8b616377565b73ffffffffffffffffffffffffffffffffffffffff167f17307eab39ab6107e8899845ad3d59bd9653f200f220920489ca2b5937696c3183604051614fd0919061cd8e565b60405180910390a35050565b6150087f4d89f0c2a44dc8eb2ef1431e8562e7a25173bdbd7a5ac724f815e4f6503cbe9b60001b6144e4565b6150347f085009ab0571d89f4533e63df3a728832af3cbf80af3ad704d99620ea755a40560001b6144e4565b6150607fe231f23917b6769d9a5613d68c4735c6ca7e676f8e4d42c1c017e8d3412c3b8860001b6144e4565b61508c7f76c15a65a0893958865ed23025e12aa72f77abb32ac9572fb5832792375e54f160001b6144e4565b6150966001613edb565b73ffffffffffffffffffffffffffffffffffffffff163373ffffffffffffffffffffffffffffffffffffffff1614615103576040517f08c379a00000000000000000000000000000000000000000000000000000000081526004016150fa9061cf5f565b60405180910390fd5b61512f7fdb3ad76bdaf3629eb07484d93695dd59b0a2426fd76d6795443874a44670a73260001b6144e4565b61515b7faa8b423a9e52ce476e94b16a9b6c4309c0a7823dd3f82c29ace17d6e0d5ae82b60001b6144e4565b6151877f40e5f0416c32c1bf801512e075201bd34d5db18c15f9ae7d8ccadbf3e0d9e95460001b6144e4565b6151b37f0f6aa119563fcef7edf99afb405c6b0ed3c568ac0c15b73d934ae958217b745460001b6144e4565b6151df7f24a5843d619ae2d6589b4e5f0a8615b04551cfdb030cdbcaf56c00cff53557dc60001b6144e4565b6151e881617f39565b50565b600781815481106151fb57600080fd5b906000526020600020016000915054906101000a900473ffffffffffffffffffffffffffffffffffffffff1681565b60006152587ffea548e9856e369df2872c04076e16d0d078c093bab34a4b7719a8d1e567cd6e60001b6144e4565b6152847fed475fc43b3543dd45b34d046be954d7766f214fac55b2e126b875fb5dc5d97460001b6144e4565b6152b07fae0dcfb20b1cf6d4aadc936eabd63b1be588b45b9581ab1919aa62dab72f84c560001b6144e4565b6152dc7f11c9a43a20d9a8a315b71ac8f25c3a7a2824d25860397ecdcd5ca4f79222828c60001b6144e4565b60011515600660003373ffffffffffffffffffffffffffffffffffffffff1673ffffffffffffffffffffffffffffffffffffffff16815260200190815260200160002060000160019054906101000a900460ff16151514615372576040517f08c379a00000000000000000000000000000000000000000000000000000000081526004016153699061cfbf565b60405180910390fd5b61539e7f9ecc24cbcd7a6585e5ae248c13df5941e3e9da699021d80f619df9eb3089891960001b6144e4565b6153ca7fa47175ddd5d68db5193d5528a40a8dd3a2b3c9ca38ee351be9da8426ffe2cea360001b6144e4565b6153f67faf864ceedb184d1496393eaa4888d8fabd688a1d4facb4322738edcea7975e8f60001b6144e4565b6000600e60009054906101000a900473ffffffffffffffffffffffffffffffffffffffff1673ffffffffffffffffffffffffffffffffffffffff166373ecb3478b8b8b8b8b8b8b8b6040518963ffffffff1660e01b815260040161546198979695949392919061ce0a565b602060405180830381600087803b15801561547b57600080fd5b505af115801561548f573d6000803e3d6000fd5b505050506040513d601f19601f820116820180604052508101906154b3919061b76f565b90506154e17f91da884185230e4acea5ed815d771585270930afc3e0d1570702681382ee8ec160001b6144e4565b61550d7f7221331bf3970f7c80478c2561368b50415eeecb526a343df2f5fef09734de0a60001b6144e4565b6001601160008373ffffffffffffffffffffffffffffffffffffffff1673ffffffffffffffffffffffffffffffffffffffff16815260200190815260200160002060006101000a81548160ff0219169083151502179055506155917f9ed4570a0ec9e7f1b9d5a1b735f5c8d095b25873d20b42e61716ec81bf8c87b560001b6144e4565b6155bd7ffa8e5b019f1deaf9cdb945a8ad18dc2c58fbcb819d0c9f13fd14c7e5db5f77aa60001b6144e4565b600f819080600181540180825580915050600190039060005260206000200160009091909190916101000a81548173ffffffffffffffffffffffffffffffffffffffff021916908373ffffffffffffffffffffffffffffffffffffffff16021790555061564b7ec696893f12930a5e8ce6d82f7285f72b51734d28ff388a4ba896dae607bcb860001b6144e4565b6156777ff272b08498d0b9cd65fdc0c5b1f266219badd65eaec32e28e5a46bbfa19d6c4460001b6144e4565b8073ffffffffffffffffffffffffffffffffffffffff167f41039c8b82bb5a365f56b4f9d87cee99e069b450bfdc3d87696fcd87783f24c160405160405180910390a26156e67f8c1f08cca73787944ea42688076c5e7fd427e57d8436f3ddcb39ea709f38ab0560001b6144e4565b6157127fa64b13296027d79a2d29c9ab3da2b093cb42d0369646bf7fb18c73a0a444b9b160001b6144e4565b8091505098975050505050505050565b61574e7f17fe06c1ff24b480e2d5c4537cb6a430c42ba0473672368c0a390c810b11a1a360001b615dfc565b61577a7fc7eb559059a6fa814de76fa269d81c398eef659661ddd2049c0df0c1757e5d2460001b615dfc565b6157a67fa89ede0a82d9eadc8a8807fc35d959176cdedf22051c35dd4ac006eb3bd3621160001b615dfc565b6157d27f4573e1375296082cc1db18a03ce12e297d38891e60c401402457dccc4e2fde6260001b615dfc565b60011515600660003373ffffffffffffffffffffffffffffffffffffffff1673ffffffffffffffffffffffffffffffffffffffff16815260200190815260200160002060000160009054906101000a900460ff16151514615868576040517f08c379a000000000000000000000000000000000000000000000000000000000815260040161585f9061d31f565b60405180910390fd5b6158947feb2d4160c3fc83620a133db97bfd595fde2160850d937cad8ac76d89436c1a5860001b615dfc565b6158c07f7ca390149a8967dc5d4d0d5130e5a35de804eafcc236a99841be64d647014a5060001b615dfc565b6158ec7f1443a966adacd4ac468abc020c7b0d194a55ece5a7c049bd1c6ef4d4eec353a460001b6144e4565b6159187fe3e1dfb4fb76cfc5ea064e309430145329ab07248d6c91b35333508e92e6439360001b6144e4565b6159447f6bb5fab53422f2ecf3356b331a4d05dc242f932683bd47e0c10c62971fe4818e60001b6144e4565b6159518585858585618079565b5050505050565b60606159867f3ff59510062844e0c0a48594a5d9b99f914c06868b6f64d899d4c86f1debe0e860001b615dff565b6159b27f3d52d27e06d0483e79cda06d959303550bb1b1bb741336576313fa3e297d462a60001b615dff565b6159de7fd7112a0028d6523178a52e77724753662f5a41420604c7e63175e51b285985d260001b615dff565b615a0a7f91f9b46edbeaac17c6ba7e9f35d3c9d1d9d93cfad63daf9b32937fbfec1e1f9e60001b615dff565b615a1382616286565b615a52576040517f08c379a0000000000000000000000000000000000000000000000000000000008152600401615a499061d21f565b60405180910390fd5b615a7e7f19826c937488309186bb9786e9ca7c7765f902acc475618f4ab2fec4de44736760001b615dff565b615aaa7f5f87e49821a2f7131de293a5c881b264916217f96ec93a80a5534e56d11c8faf60001b615dff565b615ad67fc39d49893414921e29871d1c4757640e80776dcbea303949ad19cf579ce47d6e60001b615dff565b6000615ae0618801565b9050615b0e7f7bcb302001f5fd5001b4ceb6445c73ba6c154f7135b5ef4bf2ce51f6c836198960001b615dff565b615b3a7fa15f47e2a6b6a2c36a7d3621df96a1a602d6c276a534714ec8e5463e522f402a60001b615dff565b6000815111615b585760405180602001604052806000815250615b83565b80615b628461889c565b604051602001615b7392919061cc4a565b6040516020818303038152906040525b915050919050565b615bb77f4d89f0c2a44dc8eb2ef1431e8562e7a25173bdbd7a5ac724f815e4f6503cbe9b60001b6144e4565b615be37f085009ab0571d89f4533e63df3a728832af3cbf80af3ad704d99620ea755a40560001b6144e4565b615c0f7fe231f23917b6769d9a5613d68c4735c6ca7e676f8e4d42c1c017e8d3412c3b8860001b6144e4565b615c3b7f76c15a65a0893958865ed23025e12aa72f77abb32ac9572fb5832792375e54f160001b6144e4565b615c456001613edb565b73ffffffffffffffffffffffffffffffffffffffff163373ffffffffffffffffffffffffffffffffffffffff1614615cb2576040517f08c379a0000000000000000000000000000000000000000000000000000000008152600401615ca99061cf5f565b60405180910390fd5b615cde7fdb3ad76bdaf3629eb07484d93695dd59b0a2426fd76d6795443874a44670a73260001b6144e4565b615d0a7faa8b423a9e52ce476e94b16a9b6c4309c0a7823dd3f82c29ace17d6e0d5ae82b60001b6144e4565b615d367f783a5d8684372381fb6207af57ecd51bafe21a4bc052b11aacc79f7ee829198160001b6144e4565b615d627feadbc77f8e4141506c2d62276be2316c2600b8bf40f7d079fd689676aa71a5ba60001b6144e4565b615d8e7f467f41bee04bbeb17ac9daf7315e350acbb78d0375b07c40d0e5149dffc60fd560001b6144e4565b615d9782618f18565b615dc37f85d08ba1b04f93c41b9d2abeda0e62829b77be2993007e1cc51b6f8af7b456d560001b6144e4565b615def7f016026c3f4776e895461dbb5dec5a0f2830bbf363412bcbfe088bec4bbbf119060001b6144e4565b615df881617bfe565b5050565b50565b50565b7fa063f3cd8b0dcd6546ffc1c06fc86515c40fe331e91488c5e18c88c7efc881e881565b6000615e547f410e4a1d0b09de215f46e3998f17d127928bf198428e791e2cc992d9928edcbb60001b615dff565b615e807f80d4bf9a59ba17559a0e25050b4190285e57099c7088d479d8df44d4c1110b5060001b615dff565b615eac7fa0c6195bd827f95fec90dc33a55d96aab9e78a7aedc8997d840020cda5f5c50960001b615dff565b600560008473ffffffffffffffffffffffffffffffffffffffff1673ffffffffffffffffffffffffffffffffffffffff16815260200190815260200160002060008373ffffffffffffffffffffffffffffffffffffffff1673ffffffffffffffffffffffffffffffffffffffff16815260200190815260200160002060009054906101000a900460ff16905092915050565b615f6a7f17fe06c1ff24b480e2d5c4537cb6a430c42ba0473672368c0a390c810b11a1a360001b615dfc565b615f967fc7eb559059a6fa814de76fa269d81c398eef659661ddd2049c0df0c1757e5d2460001b615dfc565b615fc27fa89ede0a82d9eadc8a8807fc35d959176cdedf22051c35dd4ac006eb3bd3621160001b615dfc565b615fee7f4573e1375296082cc1db18a03ce12e297d38891e60c401402457dccc4e2fde6260001b615dfc565b60011515600660003373ffffffffffffffffffffffffffffffffffffffff1673ffffffffffffffffffffffffffffffffffffffff16815260200190815260200160002060000160009054906101000a900460ff16151514616084576040517f08c379a000000000000000000000000000000000000000000000000000000000815260040161607b9061d31f565b60405180910390fd5b6160b07feb2d4160c3fc83620a133db97bfd595fde2160850d937cad8ac76d89436c1a5860001b615dfc565b6160dc7f7ca390149a8967dc5d4d0d5130e5a35de804eafcc236a99841be64d647014a5060001b615dfc565b6161087f86148161f9f780b7fa2d65724cb5ac8ce1dc9ef2b29a63c5a346dbef59ce9d2d60001b615dfc565b6161347f9f5285834aa1ce8cee6cd724aef9dbb2eb5ec4172796df48c8646a8963565e8a60001b615dfc565b6161607ffe509709e2a944a06096cdc5981bcc2b588217972996a035d719c91a5bd3b98c60001b615dfc565b6000600660008373ffffffffffffffffffffffffffffffffffffffff1673ffffffffffffffffffffffffffffffffffffffff16815260200190815260200160002090506161cf7f86d7d58308d5b5c2ff47421233ed35a75bf1d89a189c1bba9e089af8dba2eca660001b615dfc565b6161fb7fc0064d47094f40b4051e93e5c02a91671d47cb976c4358ccba7db7b1871460bf60001b615dfc565b60008160000160016101000a81548160ff0219169083151502179055505050565b60007f01ffc9a7000000000000000000000000000000000000000000000000000000007bffffffffffffffffffffffffffffffffffffffffffffffffffffffff1916827bffffffffffffffffffffffffffffffffffffffffffffffffffffffff1916149050919050565b60006162b47f7c31c46cd3f1672c8afaa9d7b04c501d8a1492c1e92b2b67acb5dfbeca1c7c9660001b615dff565b6162e07f58bb6e81064e8aa7880c2c9e4e630bd6d4aecf7c0379d231f231971a9f4e083f60001b615dff565b61630c7fe0b6151c0b7fbbe06a9a0cff765bd5487c88ad8f3f0d5e88cb2b50478a9db16d60001b615dff565b600073ffffffffffffffffffffffffffffffffffffffff166002600084815260200190815260200160002060009054906101000a900473ffffffffffffffffffffffffffffffffffffffff1673ffffffffffffffffffffffffffffffffffffffff1614159050919050565b600033905090565b6163ab7fb38487f5c61cca9ead25997473b9d5efb42611e3723775771bbc76e4e92a33ca60001b615dff565b6163d77fa011a2b3f974f03ac7dced569a0bb32849ab1ef7af1549720273cbbc67568e8360001b615dff565b6164037f261d9eb85f5903fa2e3260724cc80e509c97cd18792e51c1adf1aab57bf5000160001b615dff565b816004600083815260200190815260200160002060006101000a81548173ffffffffffffffffffffffffffffffffffffffff021916908373ffffffffffffffffffffffffffffffffffffffff1602179055506164817fcba03f8850c59168db76de39c2693bd060a7e1953a123b0e26abea51483c33e660001b615dff565b6164ad7f14ebc87b8e50eeeb4988aebad0107344cfb1eefc043598f49d2ec75203eee74e60001b615dff565b808273ffffffffffffffffffffffffffffffffffffffff166164ce83613edb565b73ffffffffffffffffffffffffffffffffffffffff167f8c5be1e5ebec7d5bd14f71427d1e84f3dd0314c0f7b2291e5b200ac8c7c3b92560405160405180910390a45050565b6165407ff841e8565d64a6121e1d6369a7da40f5a1f522739e4d501cdecc81a71cf7af9b60001b614ccc565b61656c7f225b024187e0a73e5a6d415777f43329c912f22fecb89f45a4889a5ea758f4ee60001b614ccc565b6165987f36078241af4b3be63bf41b3e000fa67644a203e9a77f0de55e457f0efbc4cd6860001b614ccc565b81816009600086815260200190815260200160002091906165ba92919061b4d5565b506165e77fc78ba09d5b4e7616c71631c278bd3d1332b753741ba628dacd49965a928700e760001b614ccc565b6166137fd4a2cd29700fd4f412496092d55b5922c59e71c89220a5153b486ac85bcf993060001b614ccc565b827fece574603820d07bc9b91f2a932baadf4628aabcb8afba49776529c14a6104b2838360405161664592919061cdc4565b60405180910390a2505050565b60006166807f216d8455754540755927d9613d5af0125ad70a31a2e7c99afbe0f8aa516acb0460001b6144e4565b6166ac7f2bc893707b48989dd9756cacd1d6d3a46bf717dfbc8073c0690866a0cb338db860001b6144e4565b6166d87f4b04a4f5f1e179e447568888380c21e78fde0834a7d20aca852e22cfc1b62e2060001b6144e4565b81519050919050565b61670d7f198b29514f58cc66ec7cd802d199fa84dc7f2b9c12ba5991110b9bae78796d0f60001b6144e4565b6167397fb3faa951023d0198fa2e83f3d201775234f998315d611a6168c46cf15d4556d260001b6144e4565b6167657f350214cb6475a46640dfee8d0865521090a9c282680e00254dac2958507745ec60001b6144e4565b60005b8181101561689f5761679c7fe6de61c4cbab818adb5c518e476a785b14a83c9eaa2dbd6b10ebd0925077fa4e60001b6144e4565b6167c87fa5f6efd538c08ef86d84dfd750b5a348f7909ab014c3e5a0f572823cf6a9b28960001b6144e4565b600f8181548110616802577f4e487b7100000000000000000000000000000000000000000000000000000000600052603260045260246000fd5b9060005260206000200160009054906101000a900473ffffffffffffffffffffffffffffffffffffffff1673ffffffffffffffffffffffffffffffffffffffff166382c03da56040518163ffffffff1660e01b8152600401600060405180830381600087803b15801561687457600080fd5b505af1158015616888573d6000803e3d6000fd5b5050505080806168979061d5a5565b915050616768565b5050565b6168cf7f096f676ec0a6d271595b5bd04c1ef0ca3110473cd110a909fef5053477cad04860001b615dfc565b6168fb7fb8b3da34437abe49091f49b06f813d1f377dfd8a15098ccfb6cd4fa38145230660001b615dfc565b6169277fce03f446dc32b26060c40b3cd8968f309f3fc63d5c663338dd1019553df7322860001b615dfc565b60005b600780549050811015616c93576169637fbb7180c8e6f424931b811a266c2acefefeece3061c314f824fc80d2cb5e6144960001b615dfc565b61698f7fbe17de9aed18b5d15678c6143ece104927b4b02d0e63e9f18d994b29a1f93f7560001b615dfc565b600060066000600784815481106169cf577f4e487b7100000000000000000000000000000000000000000000000000000000600052603260045260246000fd5b9060005260206000200160009054906101000a900473ffffffffffffffffffffffffffffffffffffffff1673ffffffffffffffffffffffffffffffffffffffff1673ffffffffffffffffffffffffffffffffffffffff1681526020019081526020016000209050616a627f33f48df78e8b4c8f243b9296e7be6b042d0d5db449e6a05c418869b309e5bc3f60001b615dfc565b616a8e7f5229c496da136194f24872c7d93c280e75d389c9369f3954d77aed25875263ab60001b615dfc565b60008160000160006101000a81548160ff021916908315150217905550616ad77fa0b13187c0a5023452f5a92c7c382505880ef0aad56d4032a21820f311becc4b60001b615dfc565b616b037ff9d0a6398bc14f4ce93b2f4e7060094889e4c46dc5d9329ce9a4872244ca943060001b615dfc565b60008160000160016101000a81548160ff021916908315150217905550616b4c7fb8f7badd68474e7f904fe33ca2aefda7c8be258715ab7a2dbe0388bab430346360001b615dfc565b616b787f8b9551241da1d06c89f616e0693ab0f79952a51bf61294a1b7eecfa205af164b60001b615dfc565b60008160000160026101000a81548160ff021916908315150217905550616bc17fac715c02414fef554092bff6f0f99b4e6caf151cc0879fd00838d12220d7a71160001b615dfc565b616bed7f78abfe7ca68d53f70673091c3de0bbc6c1b1ff7d6109e0b5c92733bacb3dbc1060001b615dfc565b60008160000160036101000a81548160ff021916908315150217905550616c367fc1c286e66dad5b88e982fd089e60efe9ab8d82a87afb9bdfb3f0c8c83ba72a2560001b615dfc565b616c627fe2ef4e0444e7d0ac61efdb46fe2dd58347d5eca05d584440bb55740e9f87abba60001b615dfc565b60008160000160046101000a81548160ff021916908315150217905550508080616c8b9061d5a5565b91505061692a565b50616cc07fabd398df60d488067e3cdb7cb4bfb74fe2ac2d24e0969f39d8644c6c37cf9f0f60001b615dfc565b60076000616cce919061b55b565b565b616cfc7f272fb205db42ef9c1d76c5eba8e57d7dcea2da98a1cace0d6a56740d501f83fc60001b615dff565b616d287f8a8902ee5e47e4a9bf0d0483e60edde8c5dc730f37c525296ae710d291b3ac3260001b615dff565b616d547f578ed35bacb67d853770c779d025a78fe70d7e3b6821a57fa99a6ebfb82cdb6860001b615dff565b616d807f646debc50d38937682b1d42cc987be8bc5d31fe30e9308aac5c610fe07382b6e60001b615dff565b616d91616d8b616377565b82619528565b616dd0576040517f08c379a0000000000000000000000000000000000000000000000000000000008152600401616dc79061d29f565b60405180910390fd5b616dfc7fd6cf9db475cd64745f8504517f4fbfa8bb8f1a81ccaa80727de8dfae81214e7260001b615dff565b616e287f07d01ae8969be6a96abc9dabd7793e5a0e2701651df25de4417580cda7cf35e460001b615dff565b616e547fc46a123e46d2e2f5a317450c8ba877aae763f7ac33d723bbd15cc75da28de99c60001b615dff565b616e6f838383604051806020016040528060008152506171e1565b505050565b616ea07f1471702c9d955442e6c05b664b87228af20e1c6fb349753f3caecc00cedd2afb60001b615dfc565b616ecc7fab8dec4075364e902d9fc4cd51bbde3c2d79d7d56ff81287af55ca2eb2d387a560001b615dfc565b616ef87fbb274cf3a43fb99279e0421d4e6e8c0bb6deb96fa02e072b2dc58b75c753af6460001b615dfc565b6000600660008373ffffffffffffffffffffffffffffffffffffffff1673ffffffffffffffffffffffffffffffffffffffff1681526020019081526020016000209050616f677fe1e992054206326e6338a762c7614b53e869c95caf42e8b3e8f8e409652a503e60001b615dfc565b616f937f55b0d00b2220001054d699954de3ad81aec26a4e7266ecac35c50371a1f3352260001b615dfc565b60018160000160006101000a81548160ff021916908315150217905550616fdc7f73292f97072dc3bb2f335e20e6237f2b7539221ecfffaaf31f18fa99711589f560001b615dfc565b6170087f627739c1b289eff076dd9594c5551d8522d1fc0a875693f64187161f89d93f4960001b615dfc565b6007829080600181540180825580915050600190039060005260206000200160009091909190916101000a81548173ffffffffffffffffffffffffffffffffffffffff021916908373ffffffffffffffffffffffffffffffffffffffff1602179055505050565b61709b7fc9a137eab836be3674a4f750257a9197c891cfabde777d89bbc148826b7190f060001b6142f4565b6170c77f60d7c317d196d685cdc8df3ef6e5f5d022195a05d1713b014a19ff12e50e85bc60001b6142f4565b6170f37fd0052bfa5aad1b70d8ce6030fdd1c41c96f2c00e87e5811f699e51a57664cce160001b6142f4565b61711f7fa596f40a2a2f15cdda1fac819ba949593c463b28c1735e892eff0502139cb38760001b6142f4565b60011515600a60008373ffffffffffffffffffffffffffffffffffffffff1673ffffffffffffffffffffffffffffffffffffffff16815260200190815260200160002060009054906101000a900460ff161515146171b2576040517f08c379a00000000000000000000000000000000000000000000000000000000081526004016171a99061d33f565b60405180910390fd5b6171de7f1361ef590730e60ca6dedabed747d5d0c5b17c75feb8d9e10c9184bf3ca18bfb60001b6142f4565b50565b61720d7f8b1213438a2b3e735ba5ec77d01490b64062e1378a9fabbb4735afc505dc335760001b615dff565b6172397f7ca0d74e93b0fc5a9950dde79e97ff6be9dcec591bb46d4567fc93eba90d4a0b60001b615dff565b6172657f0cd28ef66caab9ae5e2e88e638b415e5af740cd745e6f82c20468f3f046bb28a60001b615dff565b6172917fa051b1ae7e1840f2dd50944f6be2146a496d6a5920225a643d8b82aebf16abc860001b615dff565b6172a261729c616377565b83619528565b6172e1576040517f08c379a00000000000000000000000000000000000000000000000000000000081526004016172d89061d29f565b60405180910390fd5b61730d7f5494433f1f7d50c679cb586dabf2ce4e62476172583f7a60b34d3fd6e3d445ac60001b615dff565b6173397fd722eede0135375645f8a8f4c682e00e5364927a8a910f32185142d89d0b813f60001b615dff565b6173647e9d81a914777c4a2590da886a22867a68295fa09e47666adbbcb62c90623efd60001b615dff565b61737084848484619792565b50505050565b60006173a47f99330605b2e7f8a41ff7ee9f85bb5258f003a24ddfb244d7f1f4af7fd002f5ec60001b6144e4565b6173d07f74727a4c18c2f59396fd00454d6e5c1afd9cdd1d4fba86a88cbaa956bd6afa5b60001b6144e4565b6173fc7fb278738abcbeab489afe37de18d317a27223712c24e3fb282e105c810bf96c1260001b6144e4565b6174287fcf30e61623f29c066fe58b938b167d061fcbb979efaafa44b98bca15b757439660001b6144e4565b600073ffffffffffffffffffffffffffffffffffffffff168973ffffffffffffffffffffffffffffffffffffffff161415617498576040517f08c379a000000000000000000000000000000000000000000000000000000000815260040161748f9061cfdf565b60405180910390fd5b6174c47f1ecabb48a704a598d3d2d95c6401bffb527cb8db56a1cbecb3f931fadebcaa7060001b6144e4565b6174f07fa3f3c5477d6ddf94f01798678be783bec6e37d18ccbb53f353c52b1da4b48ec460001b6144e4565b61751c7fffbe3c23696598dddfe04759f653776a573d7abc1e5d8239df74c5db8810d84560001b6144e4565b6175487f41f05f6c44938410718b5ee4c8b4606f95a8ac629f623ee9d45eb3378686b63a60001b6144e4565b600073ffffffffffffffffffffffffffffffffffffffff168673ffffffffffffffffffffffffffffffffffffffff1614156175b8576040517f08c379a00000000000000000000000000000000000000000000000000000000081526004016175af9061d2df565b60405180910390fd5b6175e47fe7d8a34d9b64a0235d0010d6d803935637791ede9ac269667097994af1270d1460001b6144e4565b6176107f346f57b77fa9edadb3e39c2a1b004d8ea53d746880e6feee4c22640e1d8ebb7160001b6144e4565b61763c7f0fa3c6c5ce31fdb8e4cb13cf08fbaba355cab9bb0c1e9ce5a708ab5011325dbe60001b6144e4565b85600d60016101000a81548173ffffffffffffffffffffffffffffffffffffffff021916908373ffffffffffffffffffffffffffffffffffffffff1602179055506176a97f70a39972af67296fadfc0d34a219d745947334d186f684aaac321e88e62e02c760001b6144e4565b6176d57f8a97558cb303d45e630ba28fab20961c10f49a3b2356ecb6cd4c344320c04b9a60001b6144e4565b87600b90805190602001906176eb92919061b57c565b506177187f41ff4f0d5e8b81ed756efdaea6d4921c83730a066699eb7504ae1862bffb531e60001b6144e4565b6177447f0a90ec6647f8ccf6d3ec8644150c1c9f1e07d9c888f12e555fb7d63bb7d1111760001b6144e4565b86600c908051906020019061775a92919061b57c565b506177877f01e975b3a3f6ee969fc8e575ecd4bf3a0c9e85ed5c1acab16b5b6a80ac1ed6a360001b6144e4565b6177b37f735cf138bf6da90054afcb67e4b5fc542efd0da4cf7afdec79a6795d399dfcdd60001b6144e4565b84600e60006101000a81548173ffffffffffffffffffffffffffffffffffffffff021916908373ffffffffffffffffffffffffffffffffffffffff1602179055506178207f9418089d0db5dc74d99ae79b120f6411a48ddba9cddc764f2b033840660fcb7d60001b6144e4565b61784c7f2f4bffa2cfd83cdf41db3ecc0b786ca11dd5288cea6521c53827d7110159c89b60001b6144e4565b6001600d60006101000a81548160ff0219169083151502179055506178937fdfc0137ece80322c6085b6ecf1c32fb648d23f8242b761d75e84aeeb44e094d460001b6144e4565b6178bf7f7982c6b0e87c2c47e33bb196f0e29725b00f2819980100281fe05fc1bf2c236460001b6144e4565b6178ca828585619922565b6178f67f96ed42fa453da08ba78fdc43a62a12b7cfb3fdfa1d73ff109cd449862f26148560001b6144e4565b6179227f23d10fd7be828e440cdb10447de0ca9da0e19b0fb9af069d0bec23ab2ee6a33660001b6144e4565b61792d896001619c8b565b6179597fec29ad65dcab4ea0850e9868cff7c2260c9408202a53b58af40d5633d799757160001b6144e4565b6179857f9ebb892b85dd09f13abb918559226e67ed45345dcccf9c9d7db268938b1b142160001b6144e4565b61798e89616e74565b6179ba7f7ec1de6d24f725b31a58825bcff6b950c6bbc25b910e712e663d330d273bfdbb60001b6144e4565b6179e67fbd000fc72dd83813dcfb3d00df4df44f4569e2aeee87a2c41f48d6721500c4c760001b6144e4565b6000600660008b73ffffffffffffffffffffffffffffffffffffffff1673ffffffffffffffffffffffffffffffffffffffff1681526020019081526020016000209050617a557f3bcfe0ac9fc6605032415da20f98d89e4c95b7b41381cdbe17ea1c8ddae50da560001b6144e4565b617a807edac031cbb41f01cc28c7ca5eb66bae7e37cc6a3806a9d0afcf65d6e0b42de160001b6144e4565b60018160000160026101000a81548160ff021916908315150217905550617ac97f2f8303f4bfa72597b0ff142c5a234fb237c1e14c1630163503ef3c82b019081660001b6144e4565b617af57f661daab38d21b4ea9daccb7b915781603e778c6e5c9a8939c6d19da77788184d60001b6144e4565b60018160000160016101000a81548160ff021916908315150217905550617b3e7f7b049236dbfff08f9678c1f61cfd7c1b25c95a101f350e91f1b8388ec0afb42960001b6144e4565b617b6a7f687e0d567625fd5a125cd8293468d6ae84013dacba96f5ec22c3eda52d6f47ef60001b6144e4565b60018160000160036101000a81548160ff021916908315150217905550617bb37fc0708f2d7fd0879f40c508719b162d3eaa0311ccceb053b3bbc5c44297744bad60001b6144e4565b617bdf7fe8a19651994f80346f6c4f78cc501a1c600cec802c4f0da9c52aa43dc88ad71760001b6144e4565b600d60009054906101000a900460ff1691505098975050505050505050565b617c2a7ff94871687f83727bf8d7a3a14d04e5664b371c1f0fb0203883deebd9c72355b760001b615dfc565b617c567fc52fa6c4f4b300d03a48a703133c1351a6abb716a6e06aff3e9a12409bb37e1e60001b615dfc565b617c827fcbd111a4dbe62ead0bc6395ee05aac322312567761d86b82ff692a24d6e9169e60001b615dfc565b6000600660008373ffffffffffffffffffffffffffffffffffffffff1673ffffffffffffffffffffffffffffffffffffffff1681526020019081526020016000209050617cf17fb7c939ab8d6bb8152ba187516c6b1e4409bd19660ce775a0535c6142f4f1a64060001b615dfc565b617d1d7fe66aaa2334790bd8a7ca1f41e7cbb8029cb72bdf40cce1d95eef2c26e398aaef60001b615dfc565b60018160000160046101000a81548160ff021916908315150217905550617d667f01a0cda485204e495a19c996e4c0f6ff50645ee0093c2a5e3ac9519f9ca074aa60001b615dfc565b617d927fd23348ad4b64b1b7f381de40f6835d3acb2ea362c525130590554a6b9b73fcd660001b615dfc565b6007829080600181540180825580915050600190039060005260206000200160009091909190916101000a81548173ffffffffffffffffffffffffffffffffffffffff021916908373ffffffffffffffffffffffffffffffffffffffff1602179055505050565b617e257fd2792cae7e8c5d4f708969de679b12292c81240cbb0091b656dab671f6aca4e760001b615dfc565b617e517f3f76df27e58098e5825657c6205fc6bbd38fb94eef243ef685403bedafb9c53a60001b615dfc565b617e7d7f2da76fbb0b3c51ca05f90e10ef7bbb6f082b87939f3da38bdb9ba4ac92a569bd60001b615dfc565b6000600660008373ffffffffffffffffffffffffffffffffffffffff1673ffffffffffffffffffffffffffffffffffffffff1681526020019081526020016000209050617eec7fb77ce0ec7a5c8aec25f9dd40e27f50fc84c11d2f48b6f16b7dc990248a11396160001b615dfc565b617f187fe7a9e3b30ec001b3bc13a50033d6c1750c2a7f9c71335c6114fe3da18b73f40760001b615dfc565b60008160000160046101000a81548160ff0219169083151502179055505050565b617f657fadd31ced94735ed5f546cf304841d738459fbfaa8cb447396110ab4e60ab5b4a60001b615dfc565b617f917fb35f0bd853b3a87fd1a5d3f21b19f3b22038e2395613122b662910cffb0bceb660001b615dfc565b617fbd7fa760b3252732c42cb5b892ad335264475515e60431c2381d3fb9f86bb208adcf60001b615dfc565b6000600660008373ffffffffffffffffffffffffffffffffffffffff1673ffffffffffffffffffffffffffffffffffffffff168152602001908152602001600020905061802c7f03953a269517468af76716313dce8c7a8d144242fe6cc797070a4f478f5caaa160001b615dfc565b6180587f01b8c5ab78a92c1fd63386a35cb119f22c564dac6e39d4e659cfcb8fe404614760001b615dfc565b60008160000160006101000a81548160ff0219169083151502179055505050565b6180a57f6b1271fcf06d1b908adf68639b2d6805b0879f078fa520375fb3c21c493c067e60001b614ccc565b6180d17fbe1135bb371f2c523bf9ff6ff4289b06f1bbec417f9abb146292fd70a9d26e1660001b614ccc565b6180fd7f67935b7e7efc81554fa7153c1fde78c351937f431a9a5dad3704c5bd7fd9f60760001b614ccc565b828473ffffffffffffffffffffffffffffffffffffffff16867f1f920dbda597d7bf95035464170fa58d0a4b57f13a1c315ace6793b9f63688b8858560405161814792919061cdc4565b60405180910390a461817b7fdd540dd8b8734d022e3d7754d0097dbd582e95f2fec626341f87a6eb4044447160001b614ccc565b6181a77f3dadd52fe4664dae68ae1cffd0fc6b0860b2ef19cbf23e692b5f11726b1d2e3360001b614ccc565b60006109c45a6181b7919061d47f565b90506181e57f7369ef8e4147f7c4ec846a426f8804cbf057350dcd8d916ce8adbbebc5b44fc260001b614ccc565b6182117fb6bdc826c0ae3689dad0c3aaa28165f48c3077bc053731f6be0edd534728178060001b614ccc565b60008614156182f4576182467f45823f1ce92c5ae8af0a2dff3c843563ddf33a3d1eae8a87e650f3b5cbf7491360001b614ccc565b6182727f8588a4464c4756176ab517101606f5e21a2486c9a607937ac1473ca00ef4795260001b614ccc565b61829e7feee426d616e8e013ea0c46af8a6816b21428bd0155bdeada8d8c6bd99f83346c60001b614ccc565b6182ee858585858080601f016020809104026020016040519081016040528093929190818152602001838380828437600081840152601f19601f8201169050808301925050505050505084619d2d565b506187f9565b6183207f9567cf1b3020b288fffb90fb026671b549401b925a9962343f6edb1f2e360a9660001b614ccc565b61834c7fa346264dab28f7867223cf4efc1fb4e4aeea96438d3e4da829177f621c6b424460001b614ccc565b600386141561842d576183817f4e2e719a92184cae30e898fc3eedf7be9273d3d09110f7bbd9f3933f84c4905e60001b614ccc565b6183ad7fbcbf7b2ffd4bffa14b6a6d0a37fc4ea5672fa542e0e081c4be5c968395ebe02760001b614ccc565b6183d97fbbcd525684d3724ee41512558e30dd51c8685e8cd16ce27c45ceb5780f37b98760001b614ccc565b6184278484848080601f016020809104026020016040519081016040528093929190818152602001838380828437600081840152601f19601f82011690508083019250505050505050619d9e565b506187f8565b6184597f60d6de6d2af732ad1d73945d1e88f2a816f2adb164a35c9e30ccbc8451b6760960001b614ccc565b6184857f98bac20ba1cd16ec8bf6f3959aa8faac5f49dc7ab7a67630939a6dcbca66cd3860001b614ccc565b6002861415618738576184ba7ff270ad8cb84fcbfafe586958f5404cf63cfcb4c807ec53ab430ef03fdd90c26760001b614ccc565b6184e67feb4e2d8f5096c9e39d3a0aeb9315d1a7faf5cba6bdf73776647d6520e2b0025460001b614ccc565b6185127f167698c847263a69b43c2516f580b7bed4f5070f3ee823cc922cca4435a23ac560001b614ccc565b600061857184848080601f016020809104026020016040519081016040528093929190818152602001838380828437600081840152601f19601f8201169050808301925050505050505060208686905061856c919061d47f565b619fc3565b905061859f7fc8d6a5d41b66a75b9b459fc471d968e6b3ec4aa2b14d4ab20e80c30e720c4b8a60001b614ccc565b6185cb7f214cd305a98121240979a7cb5bfd4c2c33a74a9cbf4b9b2a3d34b7264f09a38d60001b614ccc565b600061862c85858080601f016020809104026020016040519081016040528093929190818152602001838380828437600081840152601f19601f820116905080830192505050505050506000602088889050618627919061d47f565b61a02a565b905061865a7f407721bc965a6899a14c8ec3f6b204e0167e8bb14b91b600cc16eb993eea0dda60001b614ccc565b6186867fddf36b200d4aa69e71f13ec01c11e3bf47aa2a7908c41511b3b30a9e5e6c4e9960001b614ccc565b600061869387848461a148565b90506186c17f484e7fd66a8abee3ad3935f71d7c44b7c05f1a73a2f1c061f9339e4b9605e2a360001b614ccc565b6186ed7f4517607ad1e2391ebf4ab95294c2ededd619e8ffcc0a90b58756942021dd87be60001b614ccc565b8073ffffffffffffffffffffffffffffffffffffffff167fcf78cf0d6f3d8371e1075c69c492ab4ec5d8cf23a1a239b6a51a1d00be7ca31260405160405180910390a25050506187f7565b6187647f50bb88c45067fd316237e4ff532ae2997a1704c8576fb4423a90d6acb504e0e660001b614ccc565b6187907f5c25f146f802a95b0505967aae7c14a88c3065588c2b71934e5ecbe50b1145e260001b614ccc565b6187bc7f9f6c9836c0abb6ebb89fca507eb1d29cf77342806ea2fcdcc6aa5eaff6b0981f60001b614ccc565b6040517f08c379a00000000000000000000000000000000000000000000000000000000081526004016187ee9061d27f565b60405180910390fd5b5b5b505050505050565b606061882f7f830b0f9630e4ea49f8af88cd6d67d7d45df37629ef04d1584553e5a07677eb3260001b615dff565b61885b7f816c182c7b0b4f95ff89cd924838586f7bb349b02e13c3076b7c126db3ee10b160001b615dff565b6188877fd09e36c4d01eb3c11b35f5407c4a54e82fa3ede07f86d3216bc13af4589ac2a760001b615dff565b60405180602001604052806000815250905090565b60606188ca7f7c6c3f197cef16fc9d037fe3d08ac9bb02922cc0bf79af4fee2ea1dc9ec752ef60001b61a259565b6188f67f717fca2242e7a6c57470dc08173a7366b54b43aaea1c460024f621d4b3c39d3160001b61a259565b6189227fb4c6e1e393278b15e7312c6880b797bcb460e93af7f8c4028bb5479c13d24dba60001b61a259565b60008214156189ec576189577f53ce00ccd4795018b16db1669b7e83c8157ac0477addc1d6c60d31eedf028a7e60001b61a259565b6189837fa258f36064f8a1f9d82df539e24c24cd8e2b60e32bf389908024a71f915e655160001b61a259565b6189af7f591d465b8e710834358e6650f31082f5ba8cd55e439d8222665bc8e0525a2c5960001b61a259565b6040518060400160405280600181526020017f30000000000000000000000000000000000000000000000000000000000000008152509050618f13565b618a177e64ee93aef57cddf188591f07acadfdf94cf6302a61bdaa5b3df55618c7da8960001b61a259565b618a437fcce6648c49ed5fc8459ebc66f2ba6806894a06fc0e399c883dd6c1046e14ce4560001b61a259565b618a6f7f4fab1232e9f3684d3bf0238000a416fcee9add828407893a08efc0bf938d6ca960001b61a259565b6000829050618aa07fc7f4305b2637eca118fdf6b166a84646ba50201e0b40aefc51c902305bcd0b8f60001b61a259565b618acc7fe6c208ac633c959d6e0bfda2a2a80e52a4965062505b8bdce251720316af151c60001b61a259565b6000618afa7fea7ff3eecf3d62cefda57822f75ceef27bada4cf935c20afe0b123489549b4d960001b61a259565b618b267fcb6a96d080fe5a1bf9103fe9a73b5eec1c74d0d324b0a6a9cc1eb167607888cd60001b61a259565b5b60008214618bd557618b5b7f83412cbb00b9e4396282083b6f0b89ed60436612b937141e9128db1a635fa5bd60001b61a259565b8080618b669061d5a5565b915050618b957f2c1438436166db35e11aaa4bd79930ba495fb9a2aab2ebb6d80eb66e71ae496e60001b61a259565b618bc17fa314706c0d2331c161b1c6c83c71346a11ec2aa968385ed246bd0f0f8b69e67a60001b61a259565b600a82618bce919061d44e565b9150618b27565b618c017f83972acc1094723bb1dc36432e54b7cd4c208778220490b4e64958134c0d529760001b61a259565b618c2d7f908795a2a75747cbd22db914d0d1cce522f13e1dc9fa47becda29464134f960f60001b61a259565b60008167ffffffffffffffff811115618c6f577f4e487b7100000000000000000000000000000000000000000000000000000000600052604160045260246000fd5b6040519080825280601f01601f191660200182016040528015618ca15781602001600182028036833780820191505090505b509050618cd07f1fe668dfca776db215eb7510db3b848e7757eb1693f4759c7092442fead74a1660001b61a259565b618cfc7f852b39e8e99a5fa5f79820b55cca3d32f252de3f76da8ffa767611db47b6862960001b61a259565b5b60008514618eb457618d317f19a3d1776a3b06e7617b62c0ed7f19c5b99b30ad28ceda1bfec87a3804f431ef60001b61a259565b618d5d7f327c625d573054e25b028ca2dbc564aa4a18f900d7150a85fb03c92f0c9b6b0460001b61a259565b600182618d6a919061d47f565b9150618d987ffe599410cc0f063de46864901055f770280e2b8f139ef050c361eedd71a8d68160001b61a259565b618dc47f270e00250adbb82611f044c050117804ea79c9b91070ef4637e5da8dbab45e2560001b61a259565b600a85618dd1919061d612565b6030618ddd919061d3f8565b60f81b818381518110618e19577f4e487b7100000000000000000000000000000000000000000000000000000000600052603260045260246000fd5b60200101907effffffffffffffffffffffffffffffffffffffffffffffffffffffffffffff1916908160001a905350618e747f9a2a05562c64660483ad9cb5e73880731ad09e14eeed0b0660e0ecc123ed33f560001b61a259565b618ea07f4f78b7bd63afe42b731eb9c5cce14e7a895c1632e1af5f76e37a3fe9eca8cea960001b61a259565b600a85618ead919061d44e565b9450618cfd565b618ee07fde44c8435aacf22674814f3a77f5e9b802cab5d4258441c2b3028c5c4f5405cc60001b61a259565b618f0c7f24bec8c938b2ee0617122b8bda6a412dc6bdcf362db6c344f2c12844b7620c7d60001b61a259565b8093505050505b919050565b618f447f01dd02d2ae1c59039e4e525a72746d331898af922a74b9d0a0ae47e2e2001bcf60001b6142f4565b618f707fb1b08644ecb7afe3835e4d750cf4beab2b2384a75934c3642d085a5c6677cf5660001b6142f4565b618f9c7fedc52b30e4dff6f8dd8d4ecb23f494a2474787bb60b83309553663725b8847c460001b6142f4565b618fc87f506c8f448d7b7bbf37a39cbf9a02e18f93b0d7e5d12195b5bbd9bd41fd6f769460001b6142f4565b3373ffffffffffffffffffffffffffffffffffffffff168173ffffffffffffffffffffffffffffffffffffffff1663075461726040518163ffffffff1660e01b815260040160206040518083038186803b15801561902557600080fd5b505afa158015619039573d6000803e3d6000fd5b505050506040513d601f19601f8201168201806040525081019061905d919061b76f565b73ffffffffffffffffffffffffffffffffffffffff16146190b3576040517f08c379a00000000000000000000000000000000000000000000000000000000081526004016190aa9061d17f565b60405180910390fd5b6190df7f0a63d968dd6d7973c19fa2b221953c9bf589751bafec05fefc9c0d3305b5e9fa60001b6142f4565b61910b7fb86b6aea3d2018cd9e04d898a4567581fe629d5f80e1f3de4cace2262f07ef9460001b6142f4565b6191377f14abeabbae29b26e220193a36546c5bbdfe7601aa8b08062c71c7c746877ed9960001b6142f4565b6191637f6a70e4a82ad7e050ce80cc717841f90dc5e5b32fc7876c4d2fc34231a50ee1bd60001b6142f4565b60001515600a60008373ffffffffffffffffffffffffffffffffffffffff1673ffffffffffffffffffffffffffffffffffffffff16815260200190815260200160002060009054906101000a900460ff161515146191f6576040517f08c379a00000000000000000000000000000000000000000000000000000000081526004016191ed9061d13f565b60405180910390fd5b6192227fd2a05fdb6380b24ea1e4aecf3fb3cb74f8e69290219df020cd5e27ebde9f85b260001b6142f4565b61924e7fc8aa3b5acb9874bf1b6c61476e28ac4804cdc927f246769a63ea7ef06f1f487b60001b6142f4565b61927a7fca22ab1b4e35e3798190e6ad5d5d1ee50cb822b5952c8acf5b1815eb185b0fc060001b6142f4565b6001600a60008373ffffffffffffffffffffffffffffffffffffffff1673ffffffffffffffffffffffffffffffffffffffff16815260200190815260200160002060006101000a81548160ff0219169083151502179055506192fe7fd0348369bd6c723e5e2b923d63d2ff8fe857ab47470349a1b8cd588fa1d8fd0260001b6142f4565b61932a7f5b4e005de6117a899021206ca954e2ff19736964f98b9209d91f45e39c85292760001b6142f4565b8073ffffffffffffffffffffffffffffffffffffffff1663eb40024b6040518163ffffffff1660e01b8152600401600060405180830381600087803b15801561937257600080fd5b505af1158015619386573d6000803e3d6000fd5b505050506193b67fe3d3e4905ecbae6de39c5bb430ff1fb0998d073cd8f61d39229af7821253a74060001b6142f4565b6193e27fd9103ef884669ed4b2737a00f21cc99167c9b993836601e28d49210f61f3a33860001b6142f4565b61940e7f6c400a1aa88012fb5c42f2f83f6f790c6512ce9a459d2f8374444503dae1e6f060001b6142f4565b3073ffffffffffffffffffffffffffffffffffffffff168173ffffffffffffffffffffffffffffffffffffffff1663075461726040518163ffffffff1660e01b815260040160206040518083038186803b15801561946b57600080fd5b505afa15801561947f573d6000803e3d6000fd5b505050506040513d601f19601f820116820180604052508101906194a3919061b76f565b73ffffffffffffffffffffffffffffffffffffffff16146194f9576040517f08c379a00000000000000000000000000000000000000000000000000000000081526004016194f09061d09f565b60405180910390fd5b6195257fec601829fdfec99d8a3fa52e0e9d743bf4b81c162929e3b686f69542be5233a460001b6142f4565b50565b60006195567f16a4bbf5be464e0b6c90bd34bfa81103616574efa3a841c06a6770782665a61760001b615dff565b6195827f76940344afeb7e034d676b0fe647985e06b23841373f7a6b398251c8dee3b3ca60001b615dff565b6195ae7f431e76be99cbc3e74bdb38617c7300a01005a67452cb3b5d352b610cab9c6aa160001b615dff565b6195da7f77f3db958759d86e1c314fe340609ade897165f55c3a871210edf346ceed98cd60001b615dff565b6195e382616286565b619622576040517f08c379a00000000000000000000000000000000000000000000000000000000081526004016196199061cfff565b60405180910390fd5b61964e7f01f567567d78e860c17c9da98cb9e70238b00f5006d4ab5aef018f2144e8b77860001b615dff565b61967a7f0d12fc317b007b8ded3e5d3ce6d1f5e704d23381fc9918c05023d6e11aa0aaed60001b615dff565b6196a67fb488044c4f627cbe53f53b02a0af1b7107fb713a9bd1ed0e08b106a02629022560001b615dff565b60006196b183613edb565b90506196df7ffd895491fa4eb5685358afaeb565eb0f89e0c56d456ba794baac3a17a8c2764e60001b615dff565b61970b7f80ef5f2ef388ef08efac02e6c644e80958cff2ef4f2afc350082f988c27ff37f60001b615dff565b8073ffffffffffffffffffffffffffffffffffffffff168473ffffffffffffffffffffffffffffffffffffffff16148061977857508373ffffffffffffffffffffffffffffffffffffffff1661976084610c17565b73ffffffffffffffffffffffffffffffffffffffff16145b8061978957506197888185615e26565b5b91505092915050565b6197be7f2123d5dc62529ffff906efaefe7fddb0ab6d612366d69257cf5603c928df3df860001b615dff565b6197ea7f207cb55a554e9d03de0d77af06662e58708c037e7bd972f943be41f7a237c2ed60001b615dff565b6198167fbe992af212154136095701b431318badd0d6ced3f8d1ada807e74d72bce527a560001b615dff565b61982184848461a25c565b61984d7f083a4284079a4c99153994ef8b6a3b2026a1c2d3a0b558e85a4e8a65a4c4e6f760001b615dff565b6198797fa8c3a2e4fd712e11a0997071119aaebc83f0061a6a9efc15192383fa5817007960001b615dff565b6198a57fa678ff82239fb36f361c9b19c9282e4157e330c66152c16485346415fd98105660001b615dff565b6198b18484848461a854565b6198f0576040517f08c379a00000000000000000000000000000000000000000000000000000000081526004016198e79061cf1f565b60405180910390fd5b61991c7fabbbffcf68e3f3828d03b05a2defb0f3ec91e86ed19ee08db01e5683829c7fb960001b615dff565b50505050565b61994e7f071c500b52f0a64f17fa8b494e262271d92d53cabf7f858df6811e756be37f3560001b6144e4565b61997a7f1208556af02fa7c197996fe1dd423c3b67191981b0c13bd766ca45a009adae3860001b6144e4565b6199a67fbcb52ee3da58f2987aa62d975a15a35c1c2497f91ba2d4215deb647723a1bcc160001b6144e4565b6199d27fe14d6f157c802af63bb64b1f4d954821f547075d51eb47531f2dbfe1085b151260001b6144e4565b3073ffffffffffffffffffffffffffffffffffffffff16600e60009054906101000a900473ffffffffffffffffffffffffffffffffffffffff1673ffffffffffffffffffffffffffffffffffffffff166372f670f0306040518263ffffffff1660e01b8152600401619a44919061cc6e565b602060405180830381600087803b158015619a5e57600080fd5b505af1158015619a72573d6000803e3d6000fd5b505050506040513d601f19601f82011682018060405250810190619a96919061b76f565b73ffffffffffffffffffffffffffffffffffffffff1614619aec576040517f08c379a0000000000000000000000000000000000000000000000000000000008152600401619ae39061d15f565b60405180910390fd5b619b187fa023b8436aa099492280c3eabb30cc4fd88cbd3fb7beaec614ba91a12d4d664360001b6144e4565b619b447f336eda9d5c6e4d9a1a336a7179f5a23b5bcd81eccf6207aa2db5ae51be3e555b60001b6144e4565b619b707f18c9b76ee032344e9c315057b68794f009675595cafae5d7ae9ba5f43201c5bc60001b6144e4565b600d60019054906101000a900473ffffffffffffffffffffffffffffffffffffffff1673ffffffffffffffffffffffffffffffffffffffff166382743814308585856040518563ffffffff1660e01b8152600401619bd1949392919061cd1e565b600060405180830381600087803b158015619beb57600080fd5b505af1158015619bff573d6000803e3d6000fd5b50505050619c2f7f988c5116b59478064e052eb258db2b5039dc1062cd459368c9bfca7e7fbb558c60001b6144e4565b619c5b7fa81124e65d30fd6bdf75c806cc7be7de9630cc40132bcf690a1892b81a4e4a7b60001b6144e4565b619c867fa063f3cd8b0dcd6546ffc1c06fc86515c40fe331e91488c5e18c88c7efc881e88383616514565b505050565b619cb77f2ca79883fc135e493f22b026658e0ef40d1684abf025fc852f3edfb9bf3f2a9060001b615dff565b619ce37fa3aecdae6be44568f835db0887c6795ec340cbfb2c47c443ac94adf283f7a47560001b615dff565b619d0f7fab45b27c64f8ffb70d8a248f3395cb05e62a58311f225b85b20e146c02da708160001b615dff565b619d2982826040518060200160405280600081525061ad03565b5050565b6000619d5b7f8664a76488ca3ece8e6b98902032cc4836ee726209d90d366e9b40c3bf8b18bb60001b614ccc565b619d877fcb689923835d2f9a8acccb4821ee69d0f6223028f577b6fcff55374458649ecf60001b614ccc565b600080845160208601878987f19050949350505050565b6000619dcc7fd2d4e2eec432d54beda14c5c8c14cae9555540c3d1ea2fae5d6b154b6c65b39460001b614ccc565b619df87f7b806577d04e95509433a47dfb609a3c4d781de88851cf10230f11edcbf6d75860001b614ccc565b81516020830184f09050619e2e7f810b89e0325a2ec949d94f582a46a5011367d6c250453769d3f7dd7039811c2960001b614ccc565b619e5a7f2e8f1f42987bf6bf32c0c058ee92ee9c10523710e8303f9afa90fd7bef43183560001b614ccc565b619e867f6abb789933fba8e354087113a3c05e0c2c5b764e46b12ca72699287adf87c8cd60001b614ccc565b600073ffffffffffffffffffffffffffffffffffffffff168173ffffffffffffffffffffffffffffffffffffffff161415619ef6576040517f08c379a0000000000000000000000000000000000000000000000000000000008152600401619eed9061d19f565b60405180910390fd5b619f227f2cfdfb0fa97139dfc2ee5b79dc77c25c4a33c5b4c7e79cc260cb2e1349a291de60001b614ccc565b619f4e7f1125f2d72f13e256f518529e8920707ff701394b6d2052a79e0a5c5ee0ddd27e60001b614ccc565b619f7a7fb4111db22483c0451d07d67deac1eccfd6eaba2095ada0e393908c6bb7c415d360001b614ccc565b8073ffffffffffffffffffffffffffffffffffffffff167fcf78cf0d6f3d8371e1075c69c492ab4ec5d8cf23a1a239b6a51a1d00be7ca31260405160405180910390a292915050565b6000602082619fd2919061d3f8565b8351101561a015576040517f08c379a000000000000000000000000000000000000000000000000000000000815260040161a00c9061d1df565b60405180910390fd5b60008260208501015190508091505092915050565b606081601f8361a03a919061d3f8565b101561a07b576040517f08c379a000000000000000000000000000000000000000000000000000000000815260040161a0729061d01f565b60405180910390fd5b818361a087919061d3f8565b8451101561a0ca576040517f08c379a000000000000000000000000000000000000000000000000000000000815260040161a0c19061d2bf565b60405180910390fd5b606082156000811461a0eb576040519150600082526020820160405261a13c565b6040519150601f8416801560200281840101858101878315602002848b0101015b8183101561a129578051835260208301925060208101905061a10c565b50868552601f19601f8301166040525050505b50809150509392505050565b6000808447101561a18e576040517f08c379a000000000000000000000000000000000000000000000000000000000815260040161a1859061d35f565b60405180910390fd5b60008351141561a1d3576040517f08c379a000000000000000000000000000000000000000000000000000000000815260040161a1ca9061ceff565b60405180910390fd5b8383516020850187f59050600073ffffffffffffffffffffffffffffffffffffffff168173ffffffffffffffffffffffffffffffffffffffff16141561a24e576040517f08c379a000000000000000000000000000000000000000000000000000000000815260040161a2459061d0ff565b60405180910390fd5b809150509392505050565b50565b61a2887f4788c7c60dede7bf7be0a08af7d64c13ff3a1107e3e43c0a75b59e1ec574afc660001b615dff565b61a2b47f99ba0654a76e63380f85e035878b80ea655af619936d142f7f6e6413c2df907260001b615dff565b61a2e07f2c7bb4dcce8c826a9d7dcf19d8ef969df7d874e72755d5b8cef10df4e12ace2b60001b615dff565b61a30c7f43dc131fcff41cee15024f4c830dcc9122d9e3bb270e05bcf224c677496ede3160001b615dff565b8273ffffffffffffffffffffffffffffffffffffffff1661a32c82613edb565b73ffffffffffffffffffffffffffffffffffffffff161461a382576040517f08c379a000000000000000000000000000000000000000000000000000000000815260040161a3799061d1ff565b60405180910390fd5b61a3ae7f87d9372feb0768fc360f44f046e421a09bd4449390e2e16aa67536776573b7c760001b615dff565b61a3da7f9c21f669e8ca1764fda8b18a9d8b41e21af9b68d4e1f260b1c4ac5ba7c5a3af760001b615dff565b61a4067fa76a62e241a8a0b2c69d55da976b9759905fdb03b0313c7842118c933cd22c9f60001b615dff565b61a4327f893edaca1cf18a0cee953e43bcb162dc212bd32d5695ad001d9cbbdd1350797460001b615dff565b600073ffffffffffffffffffffffffffffffffffffffff168273ffffffffffffffffffffffffffffffffffffffff16141561a4a2576040517f08c379a000000000000000000000000000000000000000000000000000000000815260040161a4999061cf7f565b60405180910390fd5b61a4ce7f9301a8c9e7aaf4a0dba5fbc2a393b0813e440a75d60c44ed8a424b0ca1f1138360001b615dff565b61a4fa7f4e969d2eaea37238d8846febf77be89bcaa820a347b3c33652b30a231bad0ab260001b615dff565b61a5267f13002aafcf59e07f1a9869a3fba00fa70073b8ae106131f08504f3a0923cc15960001b615dff565b61a53183838361ae92565b61a55d7f90f40d349e31ffe14aa8cfd573e55a5fd1a8585af1598fd0853b578e0ce4653c60001b615dff565b61a5897f412dfc24739e080dc6826d0f3e6363922a467dfdc97490db74b21755093e238460001b615dff565b61a59460008261637f565b61a5c07f01dd522e89f2b7616b73605cfa1c33e205342efb0f872c21346ed84615cad86460001b615dff565b61a5ec7f567346aa2dbaa4a8ae5fa4ff1188b64c71a284fd40ed3c936e83f23e7e2432bf60001b615dff565b6001600360008573ffffffffffffffffffffffffffffffffffffffff1673ffffffffffffffffffffffffffffffffffffffff168152602001908152602001600020600082825461a63c919061d47f565b9250508190555061a66f7f30e617c6d7d331a94bb0e39a767187a2ae913ac2f92005b19855e8938bc0ba4460001b615dff565b61a69b7f6d001b6794b05634e094c96b7fef969da149fc59a413ce7bbddd764bd756a1b260001b615dff565b6001600360008473ffffffffffffffffffffffffffffffffffffffff1673ffffffffffffffffffffffffffffffffffffffff168152602001908152602001600020600082825461a6eb919061d3f8565b9250508190555061a71e7f61dcd67f7628d546bdf02b902e8a2e9b2f33abb5d8b27ac02812c20cc330247560001b615dff565b61a74a7fbb7d3b26260ced89daa50fc57abbddac0ec68524b701013d38853f14d625fa1360001b615dff565b816002600083815260200190815260200160002060006101000a81548173ffffffffffffffffffffffffffffffffffffffff021916908373ffffffffffffffffffffffffffffffffffffffff16021790555061a7c87ffebc4f8e3741b1992e73ac558c9e74aca3bd87f1c046e31938775472d9cd406d60001b615dff565b61a7f47fc096119b766db4529ec661aa763f2cc1849f74317a426d4f8ce13d9cf374655260001b615dff565b808273ffffffffffffffffffffffffffffffffffffffff168473ffffffffffffffffffffffffffffffffffffffff167fddf252ad1be2c89b69c2b068fc378daa952ba7f163c4a11628f55a4df523b3ef60405160405180910390a4505050565b600061a8827fdb0d7031ad7cc8d0c837623fe737278ce62566caa413ed981c4fdf526a9a4eed60001b615dff565b61a8ae7f4de319e4ea806cce55f80dfd018a842e00dc8d81c003cc3f73f7b86123e9762160001b615dff565b61a8da7ff5ebebb7534ecdf6b9768d1411736c9ad000f2548a89f45966e5e0b7ce8e083760001b615dff565b61a8f98473ffffffffffffffffffffffffffffffffffffffff1661aec3565b1561ac725761a92a7fa73abd69391865324aa4ee8937add44c7659aab683f281e70db08d32ea739c2e60001b615dff565b61a9567f62781c075e2def8c1807bd2d4726c313311d4c5149239dec4acdbb2324a0886660001b615dff565b61a9827f6c21abf69d35d44d02cfe909d381543d2e96b36085fcb79facb577047950055460001b615dff565b8373ffffffffffffffffffffffffffffffffffffffff1663150b7a0261a9a6616377565b8786866040518563ffffffff1660e01b815260040161a9c8949392919061cc89565b602060405180830381600087803b15801561a9e257600080fd5b505af192505050801561aa1357506040513d601f19601f8201168201806040525081019061aa10919061bb0e565b60015b61abca573d806000811461aa43576040519150601f19603f3d011682016040523d82523d6000602084013e61aa48565b606091505b5061aa757fe22750cb423ebdc000ba788c996a6b4bbc4f5b6a559bde84e451c200635e815860001b615dff565b61aaa17f67af5f9e1598a435a2c2dfa6c247c05aee6cca4dbc342e017d6904e7b56ddd2860001b615dff565b60008151141561ab6a5761aad77f97ed45e50d13a89991d3bb52bb44383c7eef34679e753cd9d045373b12b5b4e360001b615dff565b61ab037f9de2f9c256b2a1e9d951c07349e81d6c16384fed8ab782ff09741b94c815b52560001b615dff565b61ab2f7fdca7384043be5dc4684fb48db54faf19c6285a85478c501bf3282075709af41460001b615dff565b6040517f08c379a000000000000000000000000000000000000000000000000000000000815260040161ab619061cf1f565b60405180910390fd5b61ab967facfc2c74b2eeae0abd45259d3767539385bafb98e89d93c86ff7358d0a32096160001b615dff565b61abc27fc129fc59de0e1352ce87fd5ddaa0338c7b8603da56958226614b944081d98cfd60001b615dff565b805181602001fd5b61abf67f94572ac1a8deb76588c3f0ca8efc7d009d9293766adf54ecc42727b8b9cdc38860001b615dff565b61ac227fb55531bbf1e7674a5c00ad821d338ffec49f527f7abdcc031e732c05dd303a8660001b615dff565b63150b7a0260e01b7bffffffffffffffffffffffffffffffffffffffffffffffffffffffff1916817bffffffffffffffffffffffffffffffffffffffffffffffffffffffff19161491505061acfb565b61ac9e7fc2e5dd36c225b52e932d563fdaa902ae6c217ce79e807216dc8fe0b4fd42fe7a60001b615dff565b61acca7f4787d7dec2204db04d7d2a55ead2f5542ad0a9a83e69a366865ca17f52fdc3f160001b615dff565b61acf67ff98cad407aa3ea6f8a9f60ba8d369d60f87a45e1378bfff8f77c0a9b01d4d4ab60001b615dff565b600190505b949350505050565b61ad2f7fab7d0f29ed5117dc96d81e853571d0ee812c68e946c856b6d694c7ba0ede61e460001b615dff565b61ad5b7f7aec3132cd63c9be380c821d67d1746d5d539c58245e375562eb4b173e6c8fa260001b615dff565b61ad877f610ec429080812b143e433455a534227a623ed7157641d5d4d801a984cfc5faa60001b615dff565b61ad91838361afdf565b61adbd7f46795d677b4b0ec1e4e397dc715933595669b182b99771e793f742e9b5e76caa60001b615dff565b61ade97f10f998749415b4892cd6c16df58bcb24344a88ad377ef691693b68ed025155c560001b615dff565b61ae157f7497266109f9f108d6ab193b1f51b51721ab97974e897596006528bd994e87ad60001b615dff565b61ae22600084848461a854565b61ae61576040517f08c379a000000000000000000000000000000000000000000000000000000000815260040161ae589061cf1f565b60405180910390fd5b61ae8d7f9e7ed4ba51bd41d3dd4e8a40af6949dc4b5491c1cb8f667b19c135449096401b60001b615dff565b505050565b61aebe7f4cdb83ac315ab07fcb960f4831e910db7bb86d5653ab6e372d8af83e1801e70a60001b615dff565b505050565b600061aef17f0710dfb292bf60e096f6589858530f5074d497c14d4b79ff4b080d60c64e68cf60001b61b499565b61af1d7f7841b1199b4294e27fc86c1f653f7cdb5dad879ebf52119d63a50add9305f8fa60001b61b499565b61af497f95d1ad450cf4d58e3f6137466ea3ccd777755ee9c12e08e4b63bd4bf505960b260001b61b499565b600061af777f1a7133350fff80c03e67dd654146c30fb7334e91c3634314e330ed439183307160001b61b499565b823b905061afa77f640d0e1cb60df5427e7b2932cb8848c3f098733aa89fa18e2a5ad378bd1d2f2260001b61b499565b61afd37ff903e991b0c9997d5b350984f612083ca22f70e656a13b9a853b1f4207e92f1b60001b61b499565b60008111915050919050565b61b00b7fe47e473944f656f05f705823123479692eab6a308d7f97bb5e10c9cfefea8b7160001b615dff565b61b0377f2971d10bb1650c61aaa901cb389b7a3d470bc8cf91c26aab352ec3ea7744a1de60001b615dff565b61b0637fb46f49820a743f7adb46ef8de7ed6854fd41a4166ce05b83d7b278fe47f0ecec60001b615dff565b61b08f7fff36d0d5d55de9416cd315ca2f8de2677869d4b334a2cf371c36619368bab38660001b615dff565b600073ffffffffffffffffffffffffffffffffffffffff168273ffffffffffffffffffffffffffffffffffffffff16141561b0ff576040517f08c379a000000000000000000000000000000000000000000000000000000000815260040161b0f69061d11f565b60405180910390fd5b61b12b7f3750f8473dd9338048d05ee5f655c6772b8e29ad8e5bfc0f62292525ebba30a060001b615dff565b61b1577f0bd917e653489ad3e521247c8c4cd3b5d9a75625ae6b1763ee293eea8045d0b460001b615dff565b61b1837fe98337f665e1467477630928dac750b7c733eaecce4c115d8eb9f54526231d1a60001b615dff565b61b1af7f3f5d82ef9fbf69a36585c6346332665a9892780a3317fcc13781a249c22b56c260001b615dff565b61b1b881616286565b1561b1f8576040517f08c379a000000000000000000000000000000000000000000000000000000000815260040161b1ef9061cf3f565b60405180910390fd5b61b2247fd05bc86dd6ea1c1fce6b8c536ab33bf130affa11e50f62fcc684b5c9bdf6d4fc60001b615dff565b61b2507f61c86042e04e9b36ff436e5b33f10a6b95170d976a418ecbe0fa52b2213dc00a60001b615dff565b61b27c7f532f244a2825f5bde0760f57118e2abd54074af39fe6726dd7773c1a8bd153c760001b615dff565b61b2886000838361ae92565b61b2b47f7bd043042500e54c8c59bff8215a3854cdae1b875dac4ceb36103672af98eca260001b615dff565b61b2e07fb3bf207ff7119ea6e020c134be4a26ed437b86dcabf1cecce31e06c16a0b753960001b615dff565b6001600360008473ffffffffffffffffffffffffffffffffffffffff1673ffffffffffffffffffffffffffffffffffffffff168152602001908152602001600020600082825461b330919061d3f8565b9250508190555061b3637f362b550638709b3dcaef8fe24f93319fd0bcab910c74a12c0bd8e5832a4ddf6c60001b615dff565b61b38f7ff568053a58dc50051fb961eaf97227d55a3a8e9d245a6d56f4109b8a0c616a6160001b615dff565b816002600083815260200190815260200160002060006101000a81548173ffffffffffffffffffffffffffffffffffffffff021916908373ffffffffffffffffffffffffffffffffffffffff16021790555061b40d7f3389017ffaf04dfdbabed7f1e43a85e7ed27da4edab4ae4c7cf584a06583560960001b615dff565b61b4397f45bf0aa5d8efb362e45d9e97cde7260ebc1b2f85e60666a2b929f2ca97d6cb0060001b615dff565b808273ffffffffffffffffffffffffffffffffffffffff16600073ffffffffffffffffffffffffffffffffffffffff167fddf252ad1be2c89b69c2b068fc378daa952ba7f163c4a11628f55a4df523b3ef60405160405180910390a45050565b50565b6040518060a001604052806000151581526020016000151581526020016000151581526020016000151581526020016000151581525090565b82805461b4e19061d573565b90600052602060002090601f01602090048101928261b503576000855561b54a565b82601f1061b51c57803560ff191683800117855561b54a565b8280016001018555821561b54a579182015b8281111561b54957823582559160200191906001019061b52e565b5b50905061b557919061b602565b5090565b508054600082559060005260206000209081019061b579919061b602565b50565b82805461b5889061d573565b90600052602060002090601f01602090048101928261b5aa576000855561b5f1565b82601f1061b5c357805160ff191683800117855561b5f1565b8280016001018555821561b5f1579182015b8281111561b5f057825182559160200191906001019061b5d5565b5b50905061b5fe919061b602565b5090565b5b8082111561b61b57600081600090555060010161b603565b5090565b60008135905061b62e8161d6ee565b92915050565b60008151905061b6438161d6ee565b92915050565b60008135905061b6588161d705565b92915050565b60008135905061b66d8161d71c565b92915050565b60008135905061b6828161d733565b92915050565b60008151905061b6978161d733565b92915050565b60008083601f84011261b6af57600080fd5b8235905067ffffffffffffffff81111561b6c857600080fd5b60208301915083600182028301111561b6e057600080fd5b9250929050565b60008083601f84011261b6f957600080fd5b8235905067ffffffffffffffff81111561b71257600080fd5b60208301915083600182028301111561b72a57600080fd5b9250929050565b60008135905061b7408161d74a565b92915050565b60006020828403121561b75857600080fd5b600061b7668482850161b61f565b91505092915050565b60006020828403121561b78157600080fd5b600061b78f8482850161b634565b91505092915050565b6000806040838503121561b7ab57600080fd5b600061b7b98582860161b61f565b925050602061b7ca8582860161b61f565b9150509250929050565b60008060006060848603121561b7e957600080fd5b600061b7f78682870161b61f565b935050602061b8088682870161b61f565b925050604061b8198682870161b731565b9150509250925092565b6000806040838503121561b83657600080fd5b600061b8448582860161b61f565b925050602061b8558582860161b649565b9150509250929050565b60008060008060008060006080888a03121561b87a57600080fd5b600061b8888a828b0161b61f565b975050602088013567ffffffffffffffff81111561b8a557600080fd5b61b8b18a828b0161b69d565b9650965050604088013567ffffffffffffffff81111561b8d057600080fd5b61b8dc8a828b0161b69d565b9450945050606088013567ffffffffffffffff81111561b8fb57600080fd5b61b9078a828b0161b69d565b925092505092959891949750929550565b600080600080600080600080600080600060e08c8e03121561b93957600080fd5b600061b9478e828f0161b61f565b9b505060208c013567ffffffffffffffff81111561b96457600080fd5b61b9708e828f0161b6e7565b9a509a505060408c013567ffffffffffffffff81111561b98f57600080fd5b61b99b8e828f0161b6e7565b9850985050606061b9ae8e828f0161b61f565b965050608061b9bf8e828f0161b61f565b95505060a08c013567ffffffffffffffff81111561b9dc57600080fd5b61b9e88e828f0161b69d565b945094505060c08c013567ffffffffffffffff81111561ba0757600080fd5b61ba138e828f0161b69d565b92509250509295989b509295989b9093969950565b6000806040838503121561ba3b57600080fd5b600061ba498582860161b61f565b925050602061ba5a8582860161b731565b9150509250929050565b60006020828403121561ba7657600080fd5b600061ba848482850161b65e565b91505092915050565b60008060006040848603121561baa257600080fd5b600061bab08682870161b65e565b935050602084013567ffffffffffffffff81111561bacd57600080fd5b61bad98682870161b69d565b92509250509250925092565b60006020828403121561baf757600080fd5b600061bb058482850161b673565b91505092915050565b60006020828403121561bb2057600080fd5b600061bb2e8482850161b688565b91505092915050565b6000806000806040858703121561bb4d57600080fd5b600085013567ffffffffffffffff81111561bb6757600080fd5b61bb738782880161b69d565b9450945050602085013567ffffffffffffffff81111561bb9257600080fd5b61bb9e8782880161b69d565b925092505092959194509250565b60008060008060008060008060c0898b03121561bbc857600080fd5b600089013567ffffffffffffffff81111561bbe257600080fd5b61bbee8b828c0161b6e7565b9850985050602089013567ffffffffffffffff81111561bc0d57600080fd5b61bc198b828c0161b6e7565b9650965050604061bc2c8b828c0161b731565b945050606061bc3d8b828c0161b731565b935050608061bc4e8b828c0161b61f565b92505060a061bc5f8b828c0161b61f565b9150509295985092959890939650565b60006020828403121561bc8157600080fd5b600061bc8f8482850161b731565b91505092915050565b60008060008060006080868803121561bcb057600080fd5b600061bcbe8882890161b731565b955050602061bccf8882890161b61f565b945050604061bce08882890161b731565b935050606086013567ffffffffffffffff81111561bcfd57600080fd5b61bd098882890161b69d565b92509250509295509295909350565b61bd218161d4b3565b82525050565b61bd3861bd338261d4b3565b61d5ee565b82525050565b61bd478161d4c5565b82525050565b61bd568161d4c5565b82525050565b61bd658161d4d1565b82525050565b600061bd77838561d3cb565b935061bd8483858461d531565b61bd8d8361d6d0565b840190509392505050565b600061bda38261d3b5565b61bdad818561d3cb565b935061bdbd81856020860161d540565b61bdc68161d6d0565b840191505092915050565b600061bddd838561d3dc565b935061bdea83858461d531565b61bdf38361d6d0565b840190509392505050565b600061be098261d3c0565b61be13818561d3dc565b935061be2381856020860161d540565b61be2c8161d6d0565b840191505092915050565b600061be428261d3c0565b61be4c818561d3ed565b935061be5c81856020860161d540565b80840191505092915050565b600061be7560218361d3dc565b91507f45524337323154656d706c6174653a204e4f542053544f52452055504441544560008301527f52000000000000000000000000000000000000000000000000000000000000006020830152604082019050919050565b600061bedb601c8361d3dc565b91507f45524337323154656d706c6174653a204e4f542076334d696e746572000000006000830152602082019050919050565b600061bf1b60218361d3dc565b91507f45524337323154656d706c6174653a204e4f54204d455441444154415f524f4c60008301527f45000000000000000000000000000000000000000000000000000000000000006020830152604082019050919050565b600061bf8160208361d3dc565b91507f437265617465323a2062797465636f6465206c656e677468206973207a65726f6000830152602082019050919050565b600061bfc160328361d3dc565b91507f4552433732313a207472616e7366657220746f206e6f6e20455243373231526560008301527f63656976657220696d706c656d656e74657200000000000000000000000000006020830152604082019050919050565b600061c027601c8361d3dc565b91507f4552433732313a20746f6b656e20616c7265616479206d696e746564000000006000830152602082019050919050565b600061c067601c8361d3dc565b91507f45524337323154656d706c6174653a206e6f74204e46544f776e6572000000006000830152602082019050919050565b600061c0a760248361d3dc565b91507f4552433732313a207472616e7366657220746f20746865207a65726f2061646460008301527f72657373000000000000000000000000000000000000000000000000000000006020830152604082019050919050565b600061c10d60198361d3dc565b91507f4552433732313a20617070726f766520746f2063616c6c6572000000000000006000830152602082019050919050565b600061c14d60268361d3dc565b91507f45524337323154656d706c6174653a204e4f542045524332304445504c4f594560008301527f525f524f4c4500000000000000000000000000000000000000000000000000006020830152604082019050919050565b600061c1b3602e8361d3dc565b91507f45524337323154656d706c6174653a3a20496e76616c6964206d696e7465722c60008301527f20207a65726f20616464726573730000000000000000000000000000000000006020830152604082019050919050565b600061c219602c8361d3dc565b91507f4552433732313a206f70657261746f7220717565727920666f72206e6f6e657860008301527f697374656e7420746f6b656e00000000000000000000000000000000000000006020830152604082019050919050565b600061c27f600e8361d3dc565b91507f736c6963655f6f766572666c6f770000000000000000000000000000000000006000830152602082019050919050565b600061c2bf60228361d3dc565b91507f45524337323154656d706c6174653a204e4f5420455243323020436f6e74726160008301527f63740000000000000000000000000000000000000000000000000000000000006020830152604082019050919050565b600061c32560388361d3dc565b91507f4552433732313a20617070726f76652063616c6c6572206973206e6f74206f7760008301527f6e6572206e6f7220617070726f76656420666f7220616c6c00000000000000006020830152604082019050919050565b600061c38b601d8361d3dc565b91507f45524337323154656d706c6174653a204e4f54207633204d494e5445520000006000830152602082019050919050565b600061c3cb60288361d3dc565b91507f45524337323154656d706c6174653a204641494c454420544f20534554204e4560008301527f57204d494e5445520000000000000000000000000000000000000000000000006020830152604082019050919050565b600061c431602a8361d3dc565b91507f4552433732313a2062616c616e636520717565727920666f7220746865207a6560008301527f726f2061646472657373000000000000000000000000000000000000000000006020830152604082019050919050565b600061c49760298361d3dc565b91507f4552433732313a206f776e657220717565727920666f72206e6f6e657869737460008301527f656e7420746f6b656e00000000000000000000000000000000000000000000006020830152604082019050919050565b600061c4fd60198361d3dc565b91507f437265617465323a204661696c6564206f6e206465706c6f79000000000000006000830152602082019050919050565b600061c53d60208361d3dc565b91507f4552433732313a206d696e7420746f20746865207a65726f20616464726573736000830152602082019050919050565b600061c57d602c8361d3dc565b91507f45524337323154656d706c6174653a2056332064617461746f6b656e20616c7260008301527f65616479207772617070656400000000000000000000000000000000000000006020830152604082019050919050565b600061c5e360258361d3dc565b91507f45524337323154656d706c6174653a204e4f54204f524947494e414c2054454d60008301527f504c4154450000000000000000000000000000000000000000000000000000006020830152604082019050919050565b600061c649602c8361d3dc565b91507f45524337323154656d706c6174653a204e4f542045524332302056332064617460008301527f61746f6b656e206f776e657200000000000000000000000000000000000000006020830152604082019050919050565b600061c6af60198361d3dc565b91507f436f756c64206e6f74206465706c6f7920636f6e7472616374000000000000006000830152602082019050919050565b600061c6ef602c8361d3dc565b91507f4552433732313a20617070726f76656420717565727920666f72206e6f6e657860008301527f697374656e7420746f6b656e00000000000000000000000000000000000000006020830152604082019050919050565b600061c75560158361d3dc565b91507f746f427974657333325f6f75744f66426f756e647300000000000000000000006000830152602082019050919050565b600061c79560298361d3dc565b91507f4552433732313a207472616e73666572206f6620746f6b656e2074686174206960008301527f73206e6f74206f776e00000000000000000000000000000000000000000000006020830152604082019050919050565b600061c7fb602f8361d3dc565b91507f4552433732314d657461646174613a2055524920717565727920666f72206e6f60008301527f6e6578697374656e7420746f6b656e00000000000000000000000000000000006020830152604082019050919050565b600061c861602c8361d3dc565b91507f45524337323154656d706c6174653a2043616e6e6f74207472616e736665722060008301527f7468697320746f6b656e496400000000000000000000000000000000000000006020830152604082019050919050565b600061c8c760218361d3dc565b91507f4552433732313a20617070726f76616c20746f2063757272656e74206f776e6560008301527f72000000000000000000000000000000000000000000000000000000000000006020830152604082019050919050565b600061c92d60148361d3dc565b91507f57726f6e67206f7065726174696f6e20747970650000000000000000000000006000830152602082019050919050565b600061c96d60318361d3dc565b91507f4552433732313a207472616e736665722063616c6c6572206973206e6f74206f60008301527f776e6572206e6f7220617070726f7665640000000000000000000000000000006020830152604082019050919050565b600061c9d360118361d3dc565b91507f736c6963655f6f75744f66426f756e64730000000000000000000000000000006000830152602082019050919050565b600061ca1360308361d3dc565b91507f45524337323154656d706c6174653a3a204d657461646174612061646472657360008301527f732063616e6e6f74206265207a65726f000000000000000000000000000000006020830152604082019050919050565b600061ca7960328361d3dc565b91507f45524337323154656d706c6174653a20746f6b656e20696e7374616e6365206160008301527f6c726561647920696e697469616c697a656400000000000000000000000000006020830152604082019050919050565b600061cadf601f8361d3dc565b91507f455243373231526f6c6573416464726573733a204e4f54204d414e41474552006000830152602082019050919050565b600061cb1f60278361d3dc565b91507f45524337323154656d706c6174653a20763344617461746f6b656e206e6f742060008301527f57524150504544000000000000000000000000000000000000000000000000006020830152604082019050919050565b600061cb85601d8361d3dc565b91507f437265617465323a20696e73756666696369656e742062616c616e63650000006000830152602082019050919050565b60a08201600082015161cbce600085018261bd3e565b50602082015161cbe1602085018261bd3e565b50604082015161cbf4604085018261bd3e565b50606082015161cc07606085018261bd3e565b50608082015161cc1a608085018261bd3e565b50505050565b61cc298161d527565b82525050565b600061cc3b828461bd27565b60148201915081905092915050565b600061cc56828561be37565b915061cc62828461be37565b91508190509392505050565b600060208201905061cc83600083018461bd18565b92915050565b600060808201905061cc9e600083018761bd18565b61ccab602083018661bd18565b61ccb8604083018561cc20565b818103606083015261ccca818461bd98565b905095945050505050565b600060608201905061ccea600083018861bd18565b818103602083015261ccfd81868861bd6b565b9050818103604083015261cd1281848661bd6b565b90509695505050505050565b600060608201905061cd33600083018761bd18565b818103602083015261cd45818661bd98565b9050818103604083015261cd5a81848661bd6b565b905095945050505050565b600060408201905061cd7a600083018561bd18565b61cd87602083018461cc20565b9392505050565b600060208201905061cda3600083018461bd4d565b92915050565b600060208201905061cdbe600083018461bd5c565b92915050565b6000602082019050818103600083015261cddf81848661bd6b565b90509392505050565b6000602082019050818103600083015261ce02818461bd98565b905092915050565b600060c082019050818103600083015261ce25818a8c61bdd1565b9050818103602083015261ce3a81888a61bdd1565b905061ce49604083018761cc20565b61ce56606083018661cc20565b61ce63608083018561bd18565b61ce7060a083018461bd18565b9998505050505050505050565b6000602082019050818103600083015261ce97818461bdfe565b905092915050565b6000602082019050818103600083015261ceb88161be68565b9050919050565b6000602082019050818103600083015261ced88161bece565b9050919050565b6000602082019050818103600083015261cef88161bf0e565b9050919050565b6000602082019050818103600083015261cf188161bf74565b9050919050565b6000602082019050818103600083015261cf388161bfb4565b9050919050565b6000602082019050818103600083015261cf588161c01a565b9050919050565b6000602082019050818103600083015261cf788161c05a565b9050919050565b6000602082019050818103600083015261cf988161c09a565b9050919050565b6000602082019050818103600083015261cfb88161c100565b9050919050565b6000602082019050818103600083015261cfd88161c140565b9050919050565b6000602082019050818103600083015261cff88161c1a6565b9050919050565b6000602082019050818103600083015261d0188161c20c565b9050919050565b6000602082019050818103600083015261d0388161c272565b9050919050565b6000602082019050818103600083015261d0588161c2b2565b9050919050565b6000602082019050818103600083015261d0788161c318565b9050919050565b6000602082019050818103600083015261d0988161c37e565b9050919050565b6000602082019050818103600083015261d0b88161c3be565b9050919050565b6000602082019050818103600083015261d0d88161c424565b9050919050565b6000602082019050818103600083015261d0f88161c48a565b9050919050565b6000602082019050818103600083015261d1188161c4f0565b9050919050565b6000602082019050818103600083015261d1388161c530565b9050919050565b6000602082019050818103600083015261d1588161c570565b9050919050565b6000602082019050818103600083015261d1788161c5d6565b9050919050565b6000602082019050818103600083015261d1988161c63c565b9050919050565b6000602082019050818103600083015261d1b88161c6a2565b9050919050565b6000602082019050818103600083015261d1d88161c6e2565b9050919050565b6000602082019050818103600083015261d1f88161c748565b9050919050565b6000602082019050818103600083015261d2188161c788565b9050919050565b6000602082019050818103600083015261d2388161c7ee565b9050919050565b6000602082019050818103600083015261d2588161c854565b9050919050565b6000602082019050818103600083015261d2788161c8ba565b9050919050565b6000602082019050818103600083015261d2988161c920565b9050919050565b6000602082019050818103600083015261d2b88161c960565b9050919050565b6000602082019050818103600083015261d2d88161c9c6565b9050919050565b6000602082019050818103600083015261d2f88161ca06565b9050919050565b6000602082019050818103600083015261d3188161ca6c565b9050919050565b6000602082019050818103600083015261d3388161cad2565b9050919050565b6000602082019050818103600083015261d3588161cb12565b9050919050565b6000602082019050818103600083015261d3788161cb78565b9050919050565b600060a08201905061d394600083018461cbb8565b92915050565b600060208201905061d3af600083018461cc20565b92915050565b600081519050919050565b600081519050919050565b600082825260208201905092915050565b600082825260208201905092915050565b600081905092915050565b600061d4038261d527565b915061d40e8361d527565b9250827fffffffffffffffffffffffffffffffffffffffffffffffffffffffffffffffff0382111561d4435761d44261d643565b5b828201905092915050565b600061d4598261d527565b915061d4648361d527565b92508261d4745761d47361d672565b5b828204905092915050565b600061d48a8261d527565b915061d4958361d527565b92508282101561d4a85761d4a761d643565b5b828203905092915050565b600061d4be8261d507565b9050919050565b60008115159050919050565b6000819050919050565b60007fffffffff0000000000000000000000000000000000000000000000000000000082169050919050565b600073ffffffffffffffffffffffffffffffffffffffff82169050919050565b6000819050919050565b82818337600083830152505050565b60005b8381101561d55e57808201518184015260208101905061d543565b8381111561d56d576000848401525b50505050565b6000600282049050600182168061d58b57607f821691505b6020821081141561d59f5761d59e61d6a1565b5b50919050565b600061d5b08261d527565b91507fffffffffffffffffffffffffffffffffffffffffffffffffffffffffffffffff82141561d5e35761d5e261d643565b5b600182019050919050565b600061d5f98261d600565b9050919050565b600061d60b8261d6e1565b9050919050565b600061d61d8261d527565b915061d6288361d527565b92508261d6385761d63761d672565b5b828206905092915050565b7f4e487b7100000000000000000000000000000000000000000000000000000000600052601160045260246000fd5b7f4e487b7100000000000000000000000000000000000000000000000000000000600052601260045260246000fd5b7f4e487b7100000000000000000000000000000000000000000000000000000000600052602260045260246000fd5b6000601f19601f8301169050919050565b60008160601b9050919050565b61d6f78161d4b3565b811461d70257600080fd5b50565b61d70e8161d4c5565b811461d71957600080fd5b50565b61d7258161d4d1565b811461d73057600080fd5b50565b61d73c8161d4db565b811461d74757600080fd5b50565b61d7538161d527565b811461d75e57600080fd5b5056fea2646970667358221220b43bd28c553485ea769376afad9da14fd37f8a0cb92e906301619a81926bd17964736f6c63430008000033",
  "linkReferences": {},
  "deployedLinkReferences": {}
}