{
  "_format": "hh-sol-artifact-1",
  "contractName": "ERC721Template",
  "sourceName": "contracts/templates/ERC721Template.sol",
  "abi": [
    {
      "anonymous": false,
      "inputs": [
        {
          "indexed": true,
          "internalType": "address",
          "name": "owner",
          "type": "address"
        },
        {
          "indexed": true,
          "internalType": "address",
          "name": "approved",
          "type": "address"
        },
        {
          "indexed": true,
          "internalType": "uint256",
          "name": "tokenId",
          "type": "uint256"
        }
      ],
      "name": "Approval",
      "type": "event"
    },
    {
      "anonymous": false,
      "inputs": [
        {
          "indexed": true,
          "internalType": "address",
          "name": "owner",
          "type": "address"
        },
        {
          "indexed": true,
          "internalType": "address",
          "name": "operator",
          "type": "address"
        },
        {
          "indexed": false,
          "internalType": "bool",
          "name": "approved",
          "type": "bool"
        }
      ],
      "name": "ApprovalForAll",
      "type": "event"
    },
    {
      "anonymous": false,
      "inputs": [
        {
          "indexed": true,
          "internalType": "address",
          "name": "contractAddress",
          "type": "address"
        }
      ],
      "name": "ContractCreated",
      "type": "event"
    },
    {
      "anonymous": false,
      "inputs": [
        {
          "indexed": true,
          "internalType": "bytes32",
          "name": "key",
          "type": "bytes32"
        },
        {
          "indexed": false,
          "internalType": "bytes",
          "name": "value",
          "type": "bytes"
        }
      ],
      "name": "DataChanged",
      "type": "event"
    },
    {
      "anonymous": false,
      "inputs": [
        {
          "indexed": true,
          "internalType": "address",
          "name": "erc20Address",
          "type": "address"
        }
      ],
      "name": "ERC20Created",
      "type": "event"
    },
    {
      "anonymous": false,
      "inputs": [
        {
          "indexed": true,
          "internalType": "uint256",
          "name": "_operation",
          "type": "uint256"
        },
        {
          "indexed": true,
          "internalType": "address",
          "name": "_to",
          "type": "address"
        },
        {
          "indexed": true,
          "internalType": "uint256",
          "name": "_value",
          "type": "uint256"
        },
        {
          "indexed": false,
          "internalType": "bytes",
          "name": "_data",
          "type": "bytes"
        }
      ],
      "name": "Executed",
      "type": "event"
    },
    {
      "anonymous": false,
      "inputs": [
        {
          "indexed": true,
          "internalType": "address",
          "name": "from",
          "type": "address"
        },
        {
          "indexed": true,
          "internalType": "address",
          "name": "to",
          "type": "address"
        },
        {
          "indexed": true,
          "internalType": "uint256",
          "name": "tokenId",
          "type": "uint256"
        }
      ],
      "name": "Transfer",
      "type": "event"
    },
    {
      "inputs": [],
      "name": "METADATA_KEY",
      "outputs": [
        {
          "internalType": "bytes32",
          "name": "",
          "type": "bytes32"
        }
      ],
      "stateMutability": "view",
      "type": "function"
    },
    {
      "inputs": [],
      "name": "_metadata",
      "outputs": [
        {
          "internalType": "address",
          "name": "",
          "type": "address"
        }
      ],
      "stateMutability": "view",
      "type": "function"
    },
    {
      "inputs": [
        {
          "internalType": "address",
          "name": "_managerAddress",
          "type": "address"
        }
      ],
      "name": "addManager",
      "outputs": [],
      "stateMutability": "nonpayable",
      "type": "function"
    },
    {
      "inputs": [
        {
          "internalType": "address",
          "name": "_allowedAddress",
          "type": "address"
        }
      ],
      "name": "addTo725StoreList",
      "outputs": [],
      "stateMutability": "nonpayable",
      "type": "function"
    },
    {
      "inputs": [
        {
          "internalType": "address",
          "name": "_allowedAddress",
          "type": "address"
        }
      ],
      "name": "addToCreateERC20List",
      "outputs": [],
      "stateMutability": "nonpayable",
      "type": "function"
    },
    {
      "inputs": [
        {
          "internalType": "address",
          "name": "_allowedAddress",
          "type": "address"
        }
      ],
      "name": "addToMetadataList",
      "outputs": [],
      "stateMutability": "nonpayable",
      "type": "function"
    },
    {
      "inputs": [
        {
          "internalType": "address",
          "name": "newMinter",
          "type": "address"
        }
      ],
      "name": "addV3Minter",
      "outputs": [],
      "stateMutability": "nonpayable",
      "type": "function"
    },
    {
      "inputs": [
        {
          "internalType": "address",
          "name": "to",
          "type": "address"
        },
        {
          "internalType": "uint256",
          "name": "tokenId",
          "type": "uint256"
        }
      ],
      "name": "approve",
      "outputs": [],
      "stateMutability": "nonpayable",
      "type": "function"
    },
    {
      "inputs": [
        {
          "internalType": "uint256",
          "name": "",
          "type": "uint256"
        }
      ],
      "name": "auth",
      "outputs": [
        {
          "internalType": "address",
          "name": "",
          "type": "address"
        }
      ],
      "stateMutability": "view",
      "type": "function"
    },
    {
      "inputs": [
        {
          "internalType": "address",
          "name": "owner",
          "type": "address"
        }
      ],
      "name": "balanceOf",
      "outputs": [
        {
          "internalType": "uint256",
          "name": "",
          "type": "uint256"
        }
      ],
      "stateMutability": "view",
      "type": "function"
    },
    {
      "inputs": [],
      "name": "cleanPermissions",
      "outputs": [],
      "stateMutability": "nonpayable",
      "type": "function"
    },
    {
      "inputs": [
        {
          "internalType": "string",
          "name": "name_",
          "type": "string"
        },
        {
          "internalType": "string",
          "name": "symbol_",
          "type": "string"
        },
        {
          "internalType": "uint256",
          "name": "cap",
          "type": "uint256"
        },
        {
          "internalType": "uint256",
          "name": "templateIndex",
          "type": "uint256"
        },
        {
          "internalType": "address",
          "name": "minter",
          "type": "address"
        },
        {
          "internalType": "address",
          "name": "feeManager",
          "type": "address"
        }
      ],
      "name": "createERC20",
      "outputs": [
        {
          "internalType": "address",
          "name": "",
          "type": "address"
        }
      ],
      "stateMutability": "nonpayable",
      "type": "function"
    },
    {
      "inputs": [
        {
          "internalType": "uint256",
          "name": "_operation",
          "type": "uint256"
        },
        {
          "internalType": "address",
          "name": "_to",
          "type": "address"
        },
        {
          "internalType": "uint256",
          "name": "_value",
          "type": "uint256"
        },
        {
          "internalType": "bytes",
          "name": "_data",
          "type": "bytes"
        }
      ],
      "name": "executeCall",
      "outputs": [],
      "stateMutability": "payable",
      "type": "function"
    },
    {
      "inputs": [
        {
          "internalType": "uint256",
          "name": "tokenId",
          "type": "uint256"
        }
      ],
      "name": "getApproved",
      "outputs": [
        {
          "internalType": "address",
          "name": "",
          "type": "address"
        }
      ],
      "stateMutability": "view",
      "type": "function"
    },
    {
      "inputs": [
        {
          "internalType": "bytes32",
          "name": "_key",
          "type": "bytes32"
        }
      ],
      "name": "getData",
      "outputs": [
        {
          "internalType": "bytes",
          "name": "_value",
          "type": "bytes"
        }
      ],
      "stateMutability": "view",
      "type": "function"
    },
    {
      "inputs": [
        {
          "internalType": "address",
          "name": "user",
          "type": "address"
        }
      ],
      "name": "getPermissions",
      "outputs": [
        {
          "components": [
            {
              "internalType": "bool",
              "name": "manager",
              "type": "bool"
            },
            {
              "internalType": "bool",
              "name": "deployERC20",
              "type": "bool"
            },
            {
              "internalType": "bool",
              "name": "updateMetadata",
              "type": "bool"
            },
            {
              "internalType": "bool",
              "name": "store",
              "type": "bool"
            },
            {
              "internalType": "bool",
              "name": "v3Minter",
              "type": "bool"
            }
          ],
          "internalType": "struct ERC721RolesAddress.Roles",
          "name": "",
          "type": "tuple"
        }
      ],
      "stateMutability": "view",
      "type": "function"
    },
    {
      "inputs": [
        {
          "internalType": "address",
          "name": "owner",
          "type": "address"
        },
        {
          "internalType": "string",
          "name": "name_",
          "type": "string"
        },
        {
          "internalType": "string",
          "name": "symbol_",
          "type": "string"
        },
        {
          "internalType": "address",
          "name": "metadata",
          "type": "address"
        },
        {
          "internalType": "address",
          "name": "tokenFactory",
          "type": "address"
        },
        {
          "internalType": "bytes",
          "name": "_data",
          "type": "bytes"
        },
        {
          "internalType": "bytes",
          "name": "_flags",
          "type": "bytes"
        }
      ],
      "name": "initialize",
      "outputs": [
        {
          "internalType": "bool",
          "name": "",
          "type": "bool"
        }
      ],
      "stateMutability": "nonpayable",
      "type": "function"
    },
    {
      "inputs": [
        {
          "internalType": "address",
          "name": "owner",
          "type": "address"
        },
        {
          "internalType": "address",
          "name": "operator",
          "type": "address"
        }
      ],
      "name": "isApprovedForAll",
      "outputs": [
        {
          "internalType": "bool",
          "name": "",
          "type": "bool"
        }
      ],
      "stateMutability": "view",
      "type": "function"
    },
    {
      "inputs": [],
      "name": "isInitialized",
      "outputs": [
        {
          "internalType": "bool",
          "name": "",
          "type": "bool"
        }
      ],
      "stateMutability": "view",
      "type": "function"
    },
    {
      "inputs": [
        {
          "internalType": "address",
          "name": "datatoken",
          "type": "address"
        },
        {
          "internalType": "address",
          "name": "to",
          "type": "address"
        },
        {
          "internalType": "uint256",
          "name": "value",
          "type": "uint256"
        }
      ],
      "name": "mintV3DT",
      "outputs": [],
      "stateMutability": "nonpayable",
      "type": "function"
    },
    {
      "inputs": [],
      "name": "name",
      "outputs": [
        {
          "internalType": "string",
          "name": "",
          "type": "string"
        }
      ],
      "stateMutability": "view",
      "type": "function"
    },
    {
      "inputs": [
        {
          "internalType": "uint256",
          "name": "tokenId",
          "type": "uint256"
        }
      ],
      "name": "ownerOf",
      "outputs": [
        {
          "internalType": "address",
          "name": "",
          "type": "address"
        }
      ],
      "stateMutability": "view",
      "type": "function"
    },
    {
      "inputs": [
        {
          "internalType": "address",
          "name": "_allowedAddress",
          "type": "address"
        }
      ],
      "name": "removeFrom725StoreList",
      "outputs": [],
      "stateMutability": "nonpayable",
      "type": "function"
    },
    {
      "inputs": [
        {
          "internalType": "address",
          "name": "_allowedAddress",
          "type": "address"
        }
      ],
      "name": "removeFromCreateERC20List",
      "outputs": [],
      "stateMutability": "nonpayable",
      "type": "function"
    },
    {
      "inputs": [
        {
          "internalType": "address",
          "name": "_allowedAddress",
          "type": "address"
        }
      ],
      "name": "removeFromMetadataList",
      "outputs": [],
      "stateMutability": "nonpayable",
      "type": "function"
    },
    {
      "inputs": [
        {
          "internalType": "address",
          "name": "_managerAddress",
          "type": "address"
        }
      ],
      "name": "removeManager",
      "outputs": [],
      "stateMutability": "nonpayable",
      "type": "function"
    },
    {
      "inputs": [
        {
          "internalType": "address",
          "name": "minter",
          "type": "address"
        }
      ],
      "name": "removeV3Minter",
      "outputs": [],
      "stateMutability": "nonpayable",
      "type": "function"
    },
    {
      "inputs": [
        {
          "internalType": "address",
          "name": "operator",
          "type": "address"
        },
        {
          "internalType": "bool",
          "name": "approved",
          "type": "bool"
        }
      ],
      "name": "setApprovalForAll",
      "outputs": [],
      "stateMutability": "nonpayable",
      "type": "function"
    },
    {
      "inputs": [
        {
          "internalType": "bytes32",
          "name": "_key",
          "type": "bytes32"
        },
        {
          "internalType": "bytes",
          "name": "_value",
          "type": "bytes"
        }
      ],
      "name": "setDataERC20",
      "outputs": [],
      "stateMutability": "nonpayable",
      "type": "function"
    },
    {
      "inputs": [
        {
          "internalType": "address",
          "name": "datatoken",
          "type": "address"
        },
        {
          "internalType": "bytes",
          "name": "_value",
          "type": "bytes"
        },
        {
          "internalType": "bytes",
          "name": "flags",
          "type": "bytes"
        },
        {
          "internalType": "bytes",
          "name": "data",
          "type": "bytes"
        }
      ],
      "name": "setDataV3",
      "outputs": [],
      "stateMutability": "nonpayable",
      "type": "function"
    },
    {
      "inputs": [
        {
          "internalType": "bytes32",
          "name": "_key",
          "type": "bytes32"
        },
        {
          "internalType": "bytes",
          "name": "_value",
          "type": "bytes"
        }
      ],
      "name": "setNewData",
      "outputs": [],
      "stateMutability": "nonpayable",
      "type": "function"
    },
    {
      "inputs": [],
      "name": "ssContract",
      "outputs": [
        {
          "internalType": "address",
          "name": "",
          "type": "address"
        }
      ],
      "stateMutability": "view",
      "type": "function"
    },
    {
      "inputs": [
        {
          "internalType": "bytes4",
          "name": "interfaceId",
          "type": "bytes4"
        }
      ],
      "name": "supportsInterface",
      "outputs": [
        {
          "internalType": "bool",
          "name": "",
          "type": "bool"
        }
      ],
      "stateMutability": "view",
      "type": "function"
    },
    {
      "inputs": [],
      "name": "symbol",
      "outputs": [
        {
          "internalType": "string",
          "name": "",
          "type": "string"
        }
      ],
      "stateMutability": "view",
      "type": "function"
    },
    {
      "inputs": [
        {
          "internalType": "uint256",
          "name": "tokenId",
          "type": "uint256"
        }
      ],
      "name": "tokenURI",
      "outputs": [
        {
          "internalType": "string",
          "name": "",
          "type": "string"
        }
      ],
      "stateMutability": "view",
      "type": "function"
    },
    {
      "inputs": [
        {
          "internalType": "address",
          "name": "from",
          "type": "address"
        },
        {
          "internalType": "address",
          "name": "to",
          "type": "address"
        },
        {
          "internalType": "uint256",
          "name": "tokenId",
          "type": "uint256"
        }
      ],
      "name": "transferFrom",
      "outputs": [],
      "stateMutability": "nonpayable",
      "type": "function"
    },
    {
      "inputs": [
        {
          "internalType": "bytes",
          "name": "flags",
          "type": "bytes"
        },
        {
          "internalType": "bytes",
          "name": "data",
          "type": "bytes"
        }
      ],
      "name": "updateMetadata",
      "outputs": [],
      "stateMutability": "nonpayable",
      "type": "function"
    },
    {
      "inputs": [
        {
          "internalType": "address",
          "name": "",
          "type": "address"
        }
      ],
      "name": "v3DT",
      "outputs": [
        {
          "internalType": "bool",
          "name": "",
          "type": "bool"
        }
      ],
      "stateMutability": "view",
      "type": "function"
    },
    {
      "inputs": [
        {
          "internalType": "address",
          "name": "datatoken",
          "type": "address"
        },
        {
          "internalType": "address",
          "name": "newMinter",
          "type": "address"
        }
      ],
      "name": "wrapV3DT",
      "outputs": [],
      "stateMutability": "nonpayable",
      "type": "function"
    }
  ],
  "bytecode": "0x60806040523480156200001157600080fd5b50604080518082018252600881526754656d706c61746560c01b60208083019182528351808501909452600e84526d15195b5c1b185d1954de5b589bdb60921b908401528151919291620000689160009162000108565b5080516200007e90600190602084019062000108565b50620000959150632260147f60e11b9050620000ad565b620000a7632bd57b7360e01b620000ad565b62000222565b6001600160e01b03198082161415620000e35760405162461bcd60e51b8152600401620000da90620001ae565b60405180910390fd5b6001600160e01b0319166000908152600860205260409020805460ff19166001179055565b8280546200011690620001e5565b90600052602060002090601f0160209004810192826200013a576000855562000185565b82601f106200015557805160ff191683800117855562000185565b8280016001018555821562000185579182015b828111156200018557825182559160200191906001019062000168565b506200019392915062000197565b5090565b5b8082111562000193576000815560010162000198565b6020808252601c908201527f4552433136353a20696e76616c696420696e7465726661636520696400000000604082015260600190565b600281046001821680620001fa57607f821691505b602082108114156200021c57634e487b7160e01b600052602260045260246000fd5b50919050565b613bf780620002326000396000f3fe6080604052600436106102305760003560e01c80634b2ee5e91161012e578063a22cb465116100ab578063c87b56dd1161006f578063c87b56dd14610672578063cf76312014610692578063ddd0af5b146106b2578063e985e9c5146106c7578063fe1ec880146106e757610230565b8063a22cb465146105df578063ac18de43146105ff578063b0c41ead1461061f578063b4d070231461063f578063c55f81261461065f57610230565b806370a08231116100f257806370a082311461053d5780637db0f56d1461056a578063819172d91461058a57806395d89b41146105aa5780639e753293146105bf57610230565b80634b2ee5e9146104b35780634f189cb2146104c857806354f6127f146104dd5780636352211e146104fd57806367530a611461051d57610230565b806323b872dd116101bc578063392e53cd11610180578063392e53cd1461042957806339371b251461043e57806342c914c814610453578063431053ac146104735780634a63740a1461049357610230565b806323b872dd14610389578063273e06b3146103a95780632748a9f9146103c95780632b940806146103e95780632d06177a1461040957610230565b80630e57c7e8116102035780630e57c7e8146102dc57806310c558bf146102fc578063160a79251461031c57806319c186e5146103495780631b1de75c1461036957610230565b806301ffc9a71461023557806306fdde031461026b578063081812fc1461028d578063095ea7b3146102ba575b600080fd5b34801561024157600080fd5b50610255610250366004612ca2565b610707565b6040516102629190612fe3565b60405180910390f35b34801561027757600080fd5b5061028061073e565b604051610262919061300b565b34801561029957600080fd5b506102ad6102a8366004612c40565b6107d0565b6040516102629190612ef3565b3480156102c657600080fd5b506102da6102d5366004612c15565b61081c565b005b3480156102e857600080fd5b506102da6102f7366004612c58565b6108b4565b34801561030857600080fd5b506102da610317366004612993565b6108f3565b34801561032857600080fd5b5061033c610337366004612993565b61097c565b6040516102629190613a2d565b34801561035557600080fd5b506102da610364366004612993565b6109f8565b34801561037557600080fd5b50610255610384366004612993565b610a83565b34801561039557600080fd5b506102da6103a4366004612a03565b610a98565b3480156103b557600080fd5b506102da6103c4366004612993565b610b3f565b3480156103d557600080fd5b506102da6103e4366004612a03565b610b97565b3480156103f557600080fd5b506102da610404366004612a74565b610c41565b34801561041557600080fd5b506102da610424366004612993565b610d34565b34801561043557600080fd5b50610255610d7a565b34801561044a57600080fd5b506102ad610d83565b34801561045f57600080fd5b506102da61046e366004612cda565b610d97565b34801561047f57600080fd5b506102da61048e366004612993565b610e70565b34801561049f57600080fd5b506102da6104ae366004612993565b610ec7565b3480156104bf57600080fd5b506102ad610f4e565b3480156104d457600080fd5b506102da610f5d565b3480156104e957600080fd5b506102806104f8366004612c40565b610fa1565b34801561050957600080fd5b506102ad610518366004612c40565b611043565b34801561052957600080fd5b506102da610538366004612c58565b611078565b34801561054957600080fd5b5061055d610558366004612993565b6110b3565b6040516102629190612fee565b34801561057657600080fd5b50610255610585366004612b1d565b6110f7565b34801561059657600080fd5b506102da6105a5366004612993565b6111ee565b3480156105b657600080fd5b5061028061122b565b3480156105cb57600080fd5b506102da6105da366004612993565b61123a565b3480156105eb57600080fd5b506102da6105fa366004612a43565b611277565b34801561060b57600080fd5b506102da61061a366004612993565b611345565b34801561062b57600080fd5b506102ad61063a366004612c40565b611388565b34801561064b57600080fd5b506102ad61065a366004612d43565b6113b2565b6102da61066d366004612de9565b611518565b34801561067e57600080fd5b5061028061068d366004612c40565b611560565b34801561069e57600080fd5b506102da6106ad3660046129cb565b6115e3565b3480156106be57600080fd5b5061055d611633565b3480156106d357600080fd5b506102556106e23660046129cb565b611657565b3480156106f357600080fd5b506102da610702366004612993565b611685565b6000610712826116db565b8061073657506001600160e01b0319821660009081526008602052604090205460ff165b90505b919050565b6060600b805461074d90613ae0565b80601f016020809104026020016040519081016040528092919081815260200182805461077990613ae0565b80156107c65780601f1061079b576101008083540402835291602001916107c6565b820191906000526020600020905b8154815290600101906020018083116107a957829003601f168201915b5050505050905090565b60006107db826116f4565b6108005760405162461bcd60e51b81526004016107f79061368c565b60405180910390fd5b506000908152600460205260409020546001600160a01b031690565b600061082782611043565b9050806001600160a01b0316836001600160a01b0316141561085b5760405162461bcd60e51b81526004016107f7906137eb565b806001600160a01b031661086d611711565b6001600160a01b031614806108895750610889816106e2611711565b6108a55760405162461bcd60e51b81526004016107f7906133e9565b6108af8383611715565b505050565b3360009081526011602052604090205460ff1615156001146108e85760405162461bcd60e51b81526004016107f7906133a7565b6108af838383611783565b3360009081526006602052604090205460ff1615156001146109275760405162461bcd60e51b81526004016107f790613978565b6001600160a01b03166000818152600660205260408120805462ff0000191662010000179055600780546001810182559152600080516020613ba28339815191520180546001600160a01b0319169091179055565b6109846127e8565b506001600160a01b0316600090815260066020908152604091829020825160a081018452905460ff8082161515835261010082048116151593830193909352620100008104831615159382019390935263010000008304821615156060820152640100000000909204161515608082015290565b3360009081526006602052604090205460ff161515600114610a2c5760405162461bcd60e51b81526004016107f790613978565b6001600160a01b03166000818152600660205260408120805463ff00000019166301000000179055600780546001810182559152600080516020613ba28339815191520180546001600160a01b0319169091179055565b600a6020526000908152604090205460ff1681565b80600114610ab85760405162461bcd60e51b81526004016107f79061379f565b610b23610b1e600f805480602002602001604051908101604052809291908181526020018280548015610b1457602002820191906000526020600020905b81546001600160a01b03168152600190910190602001808311610af6575b50505050506117dc565b6117e0565b610b2b61187f565b610b36838383611903565b6108af8261194b565b3360009081526006602052604090205460ff161515600114610b735760405162461bcd60e51b81526004016107f790613978565b6001600160a01b03166000908152600660205260409020805463ff00000019169055565b33600090815260066020526040902054640100000000900460ff161515600114610bd35760405162461bcd60e51b81526004016107f790613446565b610bdc8361199f565b6040516340c10f1960e01b81526001600160a01b038416906340c10f1990610c0a9085908590600401612fca565b600060405180830381600087803b158015610c2457600080fd5b505af1158015610c38573d6000803e3d6000fd5b50505050505050565b33600090815260066020526040902054640100000000900460ff161515600114610c7d5760405162461bcd60e51b81526004016107f7906130b7565b610c868761199f565b600087604051602001610c999190612ea7565b604051602081830303815290604052805190602001209050610cbc818888611783565b600d54604051637c4d8f9b60e11b81526101009091046001600160a01b03169063f89b1f3690610cf8908b908990899089908990600401612f44565b600060405180830381600087803b158015610d1257600080fd5b505af1158015610d26573d6000803e3d6000fd5b505050505050505050505050565b610d3e6001611043565b6001600160a01b0316336001600160a01b031614610d6e5760405162461bcd60e51b81526004016107f7906131ed565b610d778161194b565b50565b600d5460ff1690565b600d5461010090046001600160a01b031681565b3360009081526006602052604090205462010000900460ff161515600114610dd15760405162461bcd60e51b81526004016107f7906130ee565b600d54604051637c4d8f9b60e11b81526101009091046001600160a01b03169063f89b1f3690610e0d9030908890889088908890600401612f44565b600060405180830381600087803b158015610e2757600080fd5b505af1158015610e3b573d6000803e3d6000fd5b50505050610e6a7fa063f3cd8b0dcd6546ffc1c06fc86515c40fe331e91488c5e18c88c7efc881e88383611783565b50505050565b3360009081526006602052604090205460ff161515600114610ea45760405162461bcd60e51b81526004016107f790613978565b6001600160a01b03166000908152600660205260409020805462ff000019169055565b3360009081526006602052604090205460ff161515600114610efb5760405162461bcd60e51b81526004016107f790613978565b6001600160a01b03166000818152600660205260408120805461ff001916610100179055600780546001810182559152600080516020613ba28339815191520180546001600160a01b0319169091179055565b6010546001600160a01b031681565b610f676001611043565b6001600160a01b0316336001600160a01b031614610f975760405162461bcd60e51b81526004016107f7906131ed565b610f9f61187f565b565b6000818152600960205260409020805460609190610fbe90613ae0565b80601f0160208091040260200160405190810160405280929190818152602001828054610fea90613ae0565b80156110375780601f1061100c57610100808354040283529160200191611037565b820191906000526020600020905b81548152906001019060200180831161101a57829003601f168201915b50505050509050919050565b6000818152600260205260408120546001600160a01b0316806107365760405162461bcd60e51b81526004016107f79061350f565b336000908152600660205260409020546301000000900460ff1615156001146108e85760405162461bcd60e51b81526004016107f790613076565b60006001600160a01b0382166110db5760405162461bcd60e51b81526004016107f7906134c5565b506001600160a01b031660009081526003602052604090205490565b600d5460009060ff161561111d5760405162461bcd60e51b81526004016107f790613926565b6111de8c8c8c8080601f016020809104026020016040519081016040528093929190818152602001838380828437600081840152601f19601f820116905080830192505050505050508b8b8080601f01602080910402602001604051908101604052809392919081815260200183838082843760009201919091525050604080516020601f8b018190048102820181019092528981528e93508d92508c918c91908c908c90819084018382808284376000920191909152506119dc92505050565b9c9b505050505050505050505050565b3360009081526006602052604090205460ff1615156001146112225760405162461bcd60e51b81526004016107f790613978565b610d7781611acc565b6060600c805461074d90613ae0565b3360009081526006602052604090205460ff16151560011461126e5760405162461bcd60e51b81526004016107f790613978565b610d7781611b25565b61127f611711565b6001600160a01b0316826001600160a01b031614156112b05760405162461bcd60e51b81526004016107f790613268565b80600560006112bd611711565b6001600160a01b03908116825260208083019390935260409182016000908120918716808252919093529120805460ff191692151592909217909155611301611711565b6001600160a01b03167f17307eab39ab6107e8899845ad3d59bd9653f200f220920489ca2b5937696c31836040516113399190612fe3565b60405180910390a35050565b61134f6001611043565b6001600160a01b0316336001600160a01b03161461137f5760405162461bcd60e51b81526004016107f7906131ed565b610d7781611b4a565b6007818154811061139857600080fd5b6000918252602090912001546001600160a01b0316905081565b3360009081526006602052604081205460ff6101009091041615156001146113ec5760405162461bcd60e51b81526004016107f79061329f565b600e546040516373ecb34760e01b81526000916001600160a01b0316906373ecb3479061142b908d908d908d908d908d908d908d908d9060040161301e565b602060405180830381600087803b15801561144557600080fd5b505af1158015611459573d6000803e3d6000fd5b505050506040513d601f19601f8201168201806040525081019061147d91906129af565b6001600160a01b038116600081815260116020526040808220805460ff19166001908117909155600f8054918201815583527f8d1108e10bcb7c27dddfc02ed9d693a074039d026cf4ea4240b40f7d581ac8020180546001600160a01b031916841790555192935090917f41039c8b82bb5a365f56b4f9d87cee99e069b450bfdc3d87696fcd87783f24c19190a29998505050505050505050565b3360009081526006602052604090205460ff16151560011461154c5760405162461bcd60e51b81526004016107f790613978565b6115598585858585611b6b565b5050505050565b606061156b826116f4565b6115875760405162461bcd60e51b81526004016107f790613750565b6000611591611d6d565b905060008151116115b157604051806020016040528060008152506115dc565b806115bb84611d7f565b6040516020016115cc929190612ec4565b6040516020818303038152906040525b9392505050565b6115ed6001611043565b6001600160a01b0316336001600160a01b03161461161d5760405162461bcd60e51b81526004016107f7906131ed565b61162682611ea2565b61162f81611acc565b5050565b7fa063f3cd8b0dcd6546ffc1c06fc86515c40fe331e91488c5e18c88c7efc881e881565b6001600160a01b03918216600090815260056020908152604080832093909416825291909152205460ff1690565b3360009081526006602052604090205460ff1615156001146116b95760405162461bcd60e51b81526004016107f790613978565b6001600160a01b03166000908152600660205260409020805461ff0019169055565b6001600160e01b031981166301ffc9a760e01b14919050565b6000908152600260205260409020546001600160a01b0316151590565b3390565b600081815260046020526040902080546001600160a01b0319166001600160a01b038416908117909155819061174a82611043565b6001600160a01b03167f8c5be1e5ebec7d5bd14f71427d1e84f3dd0314c0f7b2291e5b200ac8c7c3b92560405160405180910390a45050565b600083815260096020526040902061179c908383612816565b50827fece574603820d07bc9b91f2a932baadf4628aabcb8afba49776529c14a6104b283836040516117cf929190612ff7565b60405180910390a2505050565b5190565b60005b8181101561162f57600f818154811061180c57634e487b7160e01b600052603260045260246000fd5b6000918252602082200154604080516382c03da560e01b815290516001600160a01b03909216926382c03da59260048084019382900301818387803b15801561185457600080fd5b505af1158015611868573d6000803e3d6000fd5b50505050808061187790613b1b565b9150506117e3565b60005b6007548110156118f657600060066000600784815481106118b357634e487b7160e01b600052603260045260246000fd5b60009182526020808320909101546001600160a01b031683528201929092526040019020805464ffffffffff1916905550806118ee81613b1b565b915050611882565b50610f9f6007600061289a565b61191461190e611711565b82612052565b6119305760405162461bcd60e51b81526004016107f79061385a565b6108af838383604051806020016040528060008152506120cf565b6001600160a01b03166000818152600660205260408120805460ff19166001908117909155600780549182018155909152600080516020613ba28339815191520180546001600160a01b0319169091179055565b6001600160a01b0381166000908152600a602052604090205460ff161515600114610d775760405162461bcd60e51b81526004016107f7906139af565b60006001600160a01b038916611a045760405162461bcd60e51b81526004016107f7906132e5565b6001600160a01b038616611a2a5760405162461bcd60e51b81526004016107f7906138d6565b600d8054610100600160a81b0319166101006001600160a01b038916021790558751611a5d90600b9060208b01906128b8565b508651611a7190600c9060208a01906128b8565b50600e80546001600160a01b0319166001600160a01b038716179055600d805460ff19166001179055611aa5828585612108565b611ab0896001612247565b611ab98961194b565b50600d5460ff1698975050505050505050565b6001600160a01b03166000818152600660205260408120805464ff000000001916640100000000179055600780546001810182559152600080516020613ba28339815191520180546001600160a01b0319169091179055565b6001600160a01b03166000908152600660205260409020805464ff0000000019169055565b6001600160a01b03166000908152600660205260409020805460ff19169055565b82846001600160a01b0316867f1f920dbda597d7bf95035464170fa58d0a4b57f13a1c315ace6793b9f63688b88585604051611ba8929190612ff7565b60405180910390a460006109c45a611bc09190613a9d565b905085611c1057611c0a858585858080601f016020809104026020016040519081016040528093929190818152602001838380828437600092019190915250879250612261915050565b50611d65565b6003861415611c5957611c0a8484848080601f01602080910402602001604051908101604052809392919081815260200183838082843760009201919091525061227992505050565b6002861415611d4d576000611cb084848080601f016020809104026020016040519081016040528093929190818152602001838380828437600092019190915250611cab925060209150879050613a9d565b6122e5565b90506000611cff85858080601f01602080910402602001604051908101604052809392919081815260200183838082843760009201829052509250611cfa91506020905088613a9d565b61231b565b90506000611d0e8784846123e3565b6040519091506001600160a01b038216907fcf78cf0d6f3d8371e1075c69c492ab4ec5d8cf23a1a239b6a51a1d00be7ca31290600090a2505050611d65565b60405162461bcd60e51b81526004016107f79061382c565b505050505050565b60408051602081019091526000815290565b606081611da457506040805180820190915260018152600360fc1b6020820152610739565b8160005b8115611dce5780611db881613b1b565b9150611dc79050600a83613a89565b9150611da8565b60008167ffffffffffffffff811115611df757634e487b7160e01b600052604160045260246000fd5b6040519080825280601f01601f191660200182016040528015611e21576020820181803683370190505b5090505b8415611e9a57611e36600183613a9d565b9150611e43600a86613b36565b611e4e906030613a71565b60f81b818381518110611e7157634e487b7160e01b600052603260045260246000fd5b60200101906001600160f81b031916908160001a905350611e93600a86613a89565b9450611e25565b949350505050565b336001600160a01b0316816001600160a01b031663075461726040518163ffffffff1660e01b815260040160206040518083038186803b158015611ee557600080fd5b505afa158015611ef9573d6000803e3d6000fd5b505050506040513d601f19601f82011682018060405250810190611f1d91906129af565b6001600160a01b031614611f435760405162461bcd60e51b81526004016107f790613609565b6001600160a01b0381166000818152600a6020526040808220805460ff19166001179055805163eb40024b60e01b8152905163eb40024b9260048084019391929182900301818387803b158015611f9957600080fd5b505af1158015611fad573d6000803e3d6000fd5b50505050306001600160a01b0316816001600160a01b031663075461726040518163ffffffff1660e01b815260040160206040518083038186803b158015611ff457600080fd5b505afa158015612008573d6000803e3d6000fd5b505050506040513d601f19601f8201168201806040525081019061202c91906129af565b6001600160a01b031614610d775760405162461bcd60e51b81526004016107f79061347d565b600061205d826116f4565b6120795760405162461bcd60e51b81526004016107f790613333565b600061208483611043565b9050806001600160a01b0316846001600160a01b031614806120bf5750836001600160a01b03166120b4846107d0565b6001600160a01b0316145b80611e9a5750611e9a8185611657565b6120e06120da611711565b83612052565b6120fc5760405162461bcd60e51b81526004016107f79061385a565b610e6a84848484612455565b600e5460405163072f670f60e41b815230916001600160a01b0316906372f670f090612138908490600401612ef3565b602060405180830381600087803b15801561215257600080fd5b505af1158015612166573d6000803e3d6000fd5b505050506040513d601f19601f8201168201806040525081019061218a91906129af565b6001600160a01b0316146121b05760405162461bcd60e51b81526004016107f7906135c4565b600d5460405163209d0e0560e21b81526101009091046001600160a01b0316906382743814906121ea903090879087908790600401612f88565b600060405180830381600087803b15801561220457600080fd5b505af1158015612218573d6000803e3d6000fd5b505050506108af7fa063f3cd8b0dcd6546ffc1c06fc86515c40fe331e91488c5e18c88c7efc881e88383611783565b61162f828260405180602001604052806000815250612488565b6000806000845160208601878987f195945050505050565b600081516020830184f090506001600160a01b0381166122ab5760405162461bcd60e51b81526004016107f790613655565b6040516001600160a01b038216907fcf78cf0d6f3d8371e1075c69c492ab4ec5d8cf23a1a239b6a51a1d00be7ca31290600090a292915050565b60006122f2826020613a71565b835110156123125760405162461bcd60e51b81526004016107f7906136d8565b50016020015190565b60608161232981601f613a71565b10156123475760405162461bcd60e51b81526004016107f79061337f565b6123518284613a71565b845110156123715760405162461bcd60e51b81526004016107f7906138ab565b60608215801561239057604051915060008252602082016040526123da565b6040519150601f8416801560200281840101858101878315602002848b0101015b818310156123c95780518352602092830192016123b1565b5050858452601f01601f1916604052505b50949350505050565b600080844710156124065760405162461bcd60e51b81526004016107f7906139f6565b82516124245760405162461bcd60e51b81526004016107f79061312f565b8383516020850187f590506001600160a01b038116611e9a5760405162461bcd60e51b81526004016107f790613558565b6124608484846124bb565b61246c848484846125e8565b610e6a5760405162461bcd60e51b81526004016107f790613164565b6124928383612703565b61249f60008484846125e8565b6108af5760405162461bcd60e51b81526004016107f790613164565b826001600160a01b03166124ce82611043565b6001600160a01b0316146124f45760405162461bcd60e51b81526004016107f790613707565b6001600160a01b03821661251a5760405162461bcd60e51b81526004016107f790613224565b6125258383836108af565b612530600082611715565b6001600160a01b0383166000908152600360205260408120805460019290612559908490613a9d565b90915550506001600160a01b0382166000908152600360205260408120805460019290612587908490613a71565b909155505060008181526002602052604080822080546001600160a01b0319166001600160a01b0386811691821790925591518493918716917fddf252ad1be2c89b69c2b068fc378daa952ba7f163c4a11628f55a4df523b3ef91a4505050565b60006125fc846001600160a01b03166127e2565b156126f857836001600160a01b031663150b7a02612618611711565b8786866040518563ffffffff1660e01b815260040161263a9493929190612f07565b602060405180830381600087803b15801561265457600080fd5b505af1925050508015612684575060408051601f3d908101601f1916820190925261268191810190612cbe565b60015b6126de573d8080156126b2576040519150601f19603f3d011682016040523d82523d6000602084013e6126b7565b606091505b5080516126d65760405162461bcd60e51b81526004016107f790613164565b805181602001fd5b6001600160e01b031916630a85bd0160e11b149050611e9a565b506001949350505050565b6001600160a01b0382166127295760405162461bcd60e51b81526004016107f79061358f565b612732816116f4565b1561274f5760405162461bcd60e51b81526004016107f7906131b6565b61275b600083836108af565b6001600160a01b0382166000908152600360205260408120805460019290612784908490613a71565b909155505060008181526002602052604080822080546001600160a01b0319166001600160a01b03861690811790915590518392907fddf252ad1be2c89b69c2b068fc378daa952ba7f163c4a11628f55a4df523b3ef908290a45050565b3b151590565b6040805160a08101825260008082526020820181905291810182905260608101829052608081019190915290565b82805461282290613ae0565b90600052602060002090601f016020900481019282612844576000855561288a565b82601f1061285d5782800160ff1982351617855561288a565b8280016001018555821561288a579182015b8281111561288a57823582559160200191906001019061286f565b5061289692915061292c565b5090565b5080546000825590600052602060002090810190610d77919061292c565b8280546128c490613ae0565b90600052602060002090601f0160209004810192826128e6576000855561288a565b82601f106128ff57805160ff191683800117855561288a565b8280016001018555821561288a579182015b8281111561288a578251825591602001919060010190612911565b5b80821115612896576000815560010161292d565b803561073981613b76565b60008083601f84011261295d578182fd5b50813567ffffffffffffffff811115612974578182fd5b60208301915083602082850101111561298c57600080fd5b9250929050565b6000602082840312156129a4578081fd5b81356115dc81613b76565b6000602082840312156129c0578081fd5b81516115dc81613b76565b600080604083850312156129dd578081fd5b82356129e881613b76565b915060208301356129f881613b76565b809150509250929050565b600080600060608486031215612a17578081fd5b8335612a2281613b76565b92506020840135612a3281613b76565b929592945050506040919091013590565b60008060408385031215612a55578182fd5b8235612a6081613b76565b9150602083013580151581146129f8578182fd5b60008060008060008060006080888a031215612a8e578283fd5b8735612a9981613b76565b9650602088013567ffffffffffffffff80821115612ab5578485fd5b612ac18b838c0161294c565b909850965060408a0135915080821115612ad9578485fd5b612ae58b838c0161294c565b909650945060608a0135915080821115612afd578384fd5b50612b0a8a828b0161294c565b989b979a50959850939692959293505050565b600080600080600080600080600080600060e08c8e031215612b3d578384fd5b612b468c612941565b9a5067ffffffffffffffff8060208e01351115612b61578485fd5b612b718e60208f01358f0161294c565b909b50995060408d0135811015612b86578485fd5b612b968e60408f01358f0161294c565b9099509750612ba760608e01612941565b9650612bb560808e01612941565b95508060a08e01351115612bc7578485fd5b612bd78e60a08f01358f0161294c565b909550935060c08d0135811015612bec578283fd5b50612bfd8d60c08e01358e0161294c565b81935080925050509295989b509295989b9093969950565b60008060408385031215612c27578182fd5b8235612c3281613b76565b946020939093013593505050565b600060208284031215612c51578081fd5b5035919050565b600080600060408486031215612c6c578283fd5b83359250602084013567ffffffffffffffff811115612c89578283fd5b612c958682870161294c565b9497909650939450505050565b600060208284031215612cb3578081fd5b81356115dc81613b8b565b600060208284031215612ccf578081fd5b81516115dc81613b8b565b60008060008060408587031215612cef578182fd5b843567ffffffffffffffff80821115612d06578384fd5b612d128883890161294c565b90965094506020870135915080821115612d2a578384fd5b50612d378782880161294c565b95989497509550505050565b60008060008060008060008060c0898b031215612d5e578182fd5b883567ffffffffffffffff80821115612d75578384fd5b612d818c838d0161294c565b909a50985060208b0135915080821115612d99578384fd5b50612da68b828c0161294c565b90975095505060408901359350606089013592506080890135612dc881613b76565b915060a0890135612dd881613b76565b809150509295985092959890939650565b600080600080600060808688031215612e00578283fd5b853594506020860135612e1281613b76565b935060408601359250606086013567ffffffffffffffff811115612e34578182fd5b612e408882890161294c565b969995985093965092949392505050565b60008284528282602086013780602084860101526020601f19601f85011685010190509392505050565b60008151808452612e93816020860160208601613ab4565b601f01601f19169290920160200192915050565b60609190911b6bffffffffffffffffffffffff1916815260140190565b60008351612ed6818460208801613ab4565b835190830190612eea818360208801613ab4565b01949350505050565b6001600160a01b0391909116815260200190565b6001600160a01b0385811682528416602082015260408101839052608060608201819052600090612f3a90830184612e7b565b9695505050505050565b6001600160a01b0386168152606060208201819052600090612f699083018688612e51565b8281036040840152612f7c818587612e51565b98975050505050505050565b6001600160a01b0385168152606060208201819052600090612fac90830186612e7b565b8281036040840152612fbf818587612e51565b979650505050505050565b6001600160a01b03929092168252602082015260400190565b901515815260200190565b90815260200190565b600060208252611e9a602083018486612e51565b6000602082526115dc6020830184612e7b565b600060c0825261303260c083018a8c612e51565b828103602084015261304581898b612e51565b6040840197909752505060608101939093526001600160a01b0391821660808401521660a090910152949350505050565b60208082526021908201527f45524337323154656d706c6174653a204e4f542053544f5245205550444154456040820152602960f91b606082015260800190565b6020808252601c908201527f45524337323154656d706c6174653a204e4f542076334d696e74657200000000604082015260600190565b60208082526021908201527f45524337323154656d706c6174653a204e4f54204d455441444154415f524f4c6040820152604560f81b606082015260800190565b6020808252818101527f437265617465323a2062797465636f6465206c656e677468206973207a65726f604082015260600190565b60208082526032908201527f4552433732313a207472616e7366657220746f206e6f6e20455243373231526560408201527131b2b4bb32b91034b6b83632b6b2b73a32b960711b606082015260800190565b6020808252601c908201527f4552433732313a20746f6b656e20616c7265616479206d696e74656400000000604082015260600190565b6020808252601c908201527f45524337323154656d706c6174653a206e6f74204e46544f776e657200000000604082015260600190565b60208082526024908201527f4552433732313a207472616e7366657220746f20746865207a65726f206164646040820152637265737360e01b606082015260800190565b60208082526019908201527f4552433732313a20617070726f766520746f2063616c6c657200000000000000604082015260600190565b60208082526026908201527f45524337323154656d706c6174653a204e4f542045524332304445504c4f5945604082015265525f524f4c4560d01b606082015260800190565b6020808252602e908201527f45524337323154656d706c6174653a3a20496e76616c6964206d696e7465722c60408201526d20207a65726f206164647265737360901b606082015260800190565b6020808252602c908201527f4552433732313a206f70657261746f7220717565727920666f72206e6f6e657860408201526b34b9ba32b73a103a37b5b2b760a11b606082015260800190565b6020808252600e908201526d736c6963655f6f766572666c6f7760901b604082015260600190565b60208082526022908201527f45524337323154656d706c6174653a204e4f5420455243323020436f6e74726160408201526118dd60f21b606082015260800190565b60208082526038908201527f4552433732313a20617070726f76652063616c6c6572206973206e6f74206f7760408201527f6e6572206e6f7220617070726f76656420666f7220616c6c0000000000000000606082015260800190565b6020808252601d908201527f45524337323154656d706c6174653a204e4f54207633204d494e544552000000604082015260600190565b60208082526028908201527f45524337323154656d706c6174653a204641494c454420544f20534554204e456040820152672b9026a4a72a22a960c11b606082015260800190565b6020808252602a908201527f4552433732313a2062616c616e636520717565727920666f7220746865207a65604082015269726f206164647265737360b01b606082015260800190565b60208082526029908201527f4552433732313a206f776e657220717565727920666f72206e6f6e657869737460408201526832b73a103a37b5b2b760b91b606082015260800190565b60208082526019908201527f437265617465323a204661696c6564206f6e206465706c6f7900000000000000604082015260600190565b6020808252818101527f4552433732313a206d696e7420746f20746865207a65726f2061646472657373604082015260600190565b60208082526025908201527f45524337323154656d706c6174653a204e4f54204f524947494e414c2054454d604082015264504c41544560d81b606082015260800190565b6020808252602c908201527f45524337323154656d706c6174653a204e4f542045524332302056332064617460408201526b30ba37b5b2b71037bbb732b960a11b606082015260800190565b60208082526019908201527f436f756c64206e6f74206465706c6f7920636f6e747261637400000000000000604082015260600190565b6020808252602c908201527f4552433732313a20617070726f76656420717565727920666f72206e6f6e657860408201526b34b9ba32b73a103a37b5b2b760a11b606082015260800190565b602080825260159082015274746f427974657333325f6f75744f66426f756e647360581b604082015260600190565b60208082526029908201527f4552433732313a207472616e73666572206f6620746f6b656e2074686174206960408201526839903737ba1037bbb760b91b606082015260800190565b6020808252602f908201527f4552433732314d657461646174613a2055524920717565727920666f72206e6f60408201526e3732bc34b9ba32b73a103a37b5b2b760891b606082015260800190565b6020808252602c908201527f45524337323154656d706c6174653a2043616e6e6f74207472616e736665722060408201526b1d1a1a5cc81d1bdad95b925960a21b606082015260800190565b60208082526021908201527f4552433732313a20617070726f76616c20746f2063757272656e74206f776e656040820152603960f91b606082015260800190565b60208082526014908201527357726f6e67206f7065726174696f6e207479706560601b604082015260600190565b60208082526031908201527f4552433732313a207472616e736665722063616c6c6572206973206e6f74206f6040820152701ddb995c881b9bdc88185c1c1c9bdd9959607a1b606082015260800190565b602080825260119082015270736c6963655f6f75744f66426f756e647360781b604082015260600190565b60208082526030908201527f45524337323154656d706c6174653a3a204d657461646174612061646472657360408201526f732063616e6e6f74206265207a65726f60801b606082015260800190565b60208082526032908201527f45524337323154656d706c6174653a20746f6b656e20696e7374616e636520616040820152711b1c9958591e481a5b9a5d1a585b1a5e995960721b606082015260800190565b6020808252601f908201527f455243373231526f6c6573416464726573733a204e4f54204d414e4147455200604082015260600190565b60208082526027908201527f45524337323154656d706c6174653a20763344617461746f6b656e206e6f742060408201526615d4905414115160ca1b606082015260800190565b6020808252601d908201527f437265617465323a20696e73756666696369656e742062616c616e6365000000604082015260600190565b600060a08201905082511515825260208301511515602083015260408301511515604083015260608301511515606083015260808301511515608083015292915050565b60008219821115613a8457613a84613b4a565b500190565b600082613a9857613a98613b60565b500490565b600082821015613aaf57613aaf613b4a565b500390565b60005b83811015613acf578181015183820152602001613ab7565b83811115610e6a5750506000910152565b600281046001821680613af457607f821691505b60208210811415613b1557634e487b7160e01b600052602260045260246000fd5b50919050565b6000600019821415613b2f57613b2f613b4a565b5060010190565b600082613b4557613b45613b60565b500690565b634e487b7160e01b600052601160045260246000fd5b634e487b7160e01b600052601260045260246000fd5b6001600160a01b0381168114610d7757600080fd5b6001600160e01b031981168114610d7757600080fdfea66cc928b5edb82af9bd49922954155ab7b0942694bea4ce44661d9a8736c688a26469706673582212203077521d89300b0f5c2a33e7690c72bfa0e065645327d8e720ea4f79858ff6bc64736f6c63430008000033",
  "linkReferences": {},
  "deployedLinkReferences": {}
}