{
  "_format": "hh-sol-artifact-1",
  "contractName": "ERC721Template",
  "sourceName": "contracts/templates/ERC721Template.sol",
  "abi": [
    {
      "anonymous": false,
      "inputs": [
        {
          "indexed": true,
          "internalType": "address",
          "name": "owner",
          "type": "address"
        },
        {
          "indexed": true,
          "internalType": "address",
          "name": "approved",
          "type": "address"
        },
        {
          "indexed": true,
          "internalType": "uint256",
          "name": "tokenId",
          "type": "uint256"
        }
      ],
      "name": "Approval",
      "type": "event"
    },
    {
      "anonymous": false,
      "inputs": [
        {
          "indexed": true,
          "internalType": "address",
          "name": "owner",
          "type": "address"
        },
        {
          "indexed": true,
          "internalType": "address",
          "name": "operator",
          "type": "address"
        },
        {
          "indexed": false,
          "internalType": "bool",
          "name": "approved",
          "type": "bool"
        }
      ],
      "name": "ApprovalForAll",
      "type": "event"
    },
    {
      "anonymous": false,
      "inputs": [
        {
          "indexed": true,
          "internalType": "address",
          "name": "contractAddress",
          "type": "address"
        }
      ],
      "name": "ContractCreated",
      "type": "event"
    },
    {
      "anonymous": false,
      "inputs": [
        {
          "indexed": true,
          "internalType": "bytes32",
          "name": "key",
          "type": "bytes32"
        },
        {
          "indexed": false,
          "internalType": "bytes",
          "name": "value",
          "type": "bytes"
        }
      ],
      "name": "DataChanged",
      "type": "event"
    },
    {
      "anonymous": false,
      "inputs": [
        {
          "indexed": true,
          "internalType": "address",
          "name": "erc20Address",
          "type": "address"
        }
      ],
      "name": "ERC20Created",
      "type": "event"
    },
    {
      "anonymous": false,
      "inputs": [
        {
          "indexed": true,
          "internalType": "uint256",
          "name": "_operation",
          "type": "uint256"
        },
        {
          "indexed": true,
          "internalType": "address",
          "name": "_to",
          "type": "address"
        },
        {
          "indexed": true,
          "internalType": "uint256",
          "name": "_value",
          "type": "uint256"
        },
        {
          "indexed": false,
          "internalType": "bytes",
          "name": "_data",
          "type": "bytes"
        }
      ],
      "name": "Executed",
      "type": "event"
    },
    {
      "anonymous": false,
      "inputs": [
        {
          "indexed": true,
          "internalType": "address",
          "name": "from",
          "type": "address"
        },
        {
          "indexed": true,
          "internalType": "address",
          "name": "to",
          "type": "address"
        },
        {
          "indexed": true,
          "internalType": "uint256",
          "name": "tokenId",
          "type": "uint256"
        }
      ],
      "name": "Transfer",
      "type": "event"
    },
    {
      "inputs": [],
      "name": "METADATA_KEY",
      "outputs": [
        {
          "internalType": "bytes32",
          "name": "",
          "type": "bytes32"
        }
      ],
      "stateMutability": "view",
      "type": "function"
    },
    {
      "inputs": [],
      "name": "_metadata",
      "outputs": [
        {
          "internalType": "address",
          "name": "",
          "type": "address"
        }
      ],
      "stateMutability": "view",
      "type": "function"
    },
    {
      "inputs": [
        {
          "internalType": "address",
          "name": "_managerAddress",
          "type": "address"
        }
      ],
      "name": "addManager",
      "outputs": [],
      "stateMutability": "nonpayable",
      "type": "function"
    },
    {
      "inputs": [
        {
          "internalType": "address",
          "name": "_allowedAddress",
          "type": "address"
        }
      ],
      "name": "addTo725StoreList",
      "outputs": [],
      "stateMutability": "nonpayable",
      "type": "function"
    },
    {
      "inputs": [
        {
          "internalType": "address",
          "name": "_allowedAddress",
          "type": "address"
        }
      ],
      "name": "addToCreateERC20List",
      "outputs": [],
      "stateMutability": "nonpayable",
      "type": "function"
    },
    {
      "inputs": [
        {
          "internalType": "address",
          "name": "_allowedAddress",
          "type": "address"
        }
      ],
      "name": "addToMetadataList",
      "outputs": [],
      "stateMutability": "nonpayable",
      "type": "function"
    },
    {
      "inputs": [
        {
          "internalType": "address",
          "name": "newMinter",
          "type": "address"
        }
      ],
      "name": "addV3Minter",
      "outputs": [],
      "stateMutability": "nonpayable",
      "type": "function"
    },
    {
      "inputs": [
        {
          "internalType": "address",
          "name": "to",
          "type": "address"
        },
        {
          "internalType": "uint256",
          "name": "tokenId",
          "type": "uint256"
        }
      ],
      "name": "approve",
      "outputs": [],
      "stateMutability": "nonpayable",
      "type": "function"
    },
    {
      "inputs": [
        {
          "internalType": "uint256",
          "name": "",
          "type": "uint256"
        }
      ],
      "name": "auth",
      "outputs": [
        {
          "internalType": "address",
          "name": "",
          "type": "address"
        }
      ],
      "stateMutability": "view",
      "type": "function"
    },
    {
      "inputs": [
        {
          "internalType": "address",
          "name": "owner",
          "type": "address"
        }
      ],
      "name": "balanceOf",
      "outputs": [
        {
          "internalType": "uint256",
          "name": "",
          "type": "uint256"
        }
      ],
      "stateMutability": "view",
      "type": "function"
    },
    {
      "inputs": [],
      "name": "cleanPermissions",
      "outputs": [],
      "stateMutability": "nonpayable",
      "type": "function"
    },
    {
      "inputs": [
        {
          "internalType": "string",
          "name": "name_",
          "type": "string"
        },
        {
          "internalType": "string",
          "name": "symbol_",
          "type": "string"
        },
        {
          "internalType": "uint256",
          "name": "cap",
          "type": "uint256"
        },
        {
          "internalType": "uint256",
          "name": "templateIndex",
          "type": "uint256"
        },
        {
          "internalType": "address",
          "name": "minter",
          "type": "address"
        },
        {
          "internalType": "address",
          "name": "feeManager",
          "type": "address"
        }
      ],
      "name": "createERC20",
      "outputs": [
        {
          "internalType": "address",
          "name": "",
          "type": "address"
        }
      ],
      "stateMutability": "nonpayable",
      "type": "function"
    },
    {
      "inputs": [
        {
          "internalType": "uint256",
          "name": "_operation",
          "type": "uint256"
        },
        {
          "internalType": "address",
          "name": "_to",
          "type": "address"
        },
        {
          "internalType": "uint256",
          "name": "_value",
          "type": "uint256"
        },
        {
          "internalType": "bytes",
          "name": "_data",
          "type": "bytes"
        }
      ],
      "name": "executeCall",
      "outputs": [],
      "stateMutability": "payable",
      "type": "function"
    },
    {
      "inputs": [
        {
          "internalType": "uint256",
          "name": "tokenId",
          "type": "uint256"
        }
      ],
      "name": "getApproved",
      "outputs": [
        {
          "internalType": "address",
          "name": "",
          "type": "address"
        }
      ],
      "stateMutability": "view",
      "type": "function"
    },
    {
      "inputs": [
        {
          "internalType": "bytes32",
          "name": "_key",
          "type": "bytes32"
        }
      ],
      "name": "getData",
      "outputs": [
        {
          "internalType": "bytes",
          "name": "_value",
          "type": "bytes"
        }
      ],
      "stateMutability": "view",
      "type": "function"
    },
    {
      "inputs": [
        {
          "internalType": "address",
          "name": "user",
          "type": "address"
        }
      ],
      "name": "getPermissions",
      "outputs": [
        {
          "components": [
            {
              "internalType": "bool",
              "name": "manager",
              "type": "bool"
            },
            {
              "internalType": "bool",
              "name": "deployERC20",
              "type": "bool"
            },
            {
              "internalType": "bool",
              "name": "updateMetadata",
              "type": "bool"
            },
            {
              "internalType": "bool",
              "name": "store",
              "type": "bool"
            },
            {
              "internalType": "bool",
              "name": "v3Minter",
              "type": "bool"
            }
          ],
          "internalType": "struct ERC721RolesAddress.Roles",
          "name": "",
          "type": "tuple"
        }
      ],
      "stateMutability": "view",
      "type": "function"
    },
    {
      "inputs": [
        {
          "internalType": "address",
          "name": "owner",
          "type": "address"
        },
        {
          "internalType": "string",
          "name": "name_",
          "type": "string"
        },
        {
          "internalType": "string",
          "name": "symbol_",
          "type": "string"
        },
        {
          "internalType": "address",
          "name": "metadata",
          "type": "address"
        },
        {
          "internalType": "address",
          "name": "tokenFactory",
          "type": "address"
        },
        {
          "internalType": "bytes",
          "name": "_data",
          "type": "bytes"
        },
        {
          "internalType": "bytes",
          "name": "_flags",
          "type": "bytes"
        }
      ],
      "name": "initialize",
      "outputs": [
        {
          "internalType": "bool",
          "name": "",
          "type": "bool"
        }
      ],
      "stateMutability": "nonpayable",
      "type": "function"
    },
    {
      "inputs": [
        {
          "internalType": "address",
          "name": "owner",
          "type": "address"
        },
        {
          "internalType": "address",
          "name": "operator",
          "type": "address"
        }
      ],
      "name": "isApprovedForAll",
      "outputs": [
        {
          "internalType": "bool",
          "name": "",
          "type": "bool"
        }
      ],
      "stateMutability": "view",
      "type": "function"
    },
    {
      "inputs": [],
      "name": "isInitialized",
      "outputs": [
        {
          "internalType": "bool",
          "name": "",
          "type": "bool"
        }
      ],
      "stateMutability": "view",
      "type": "function"
    },
    {
      "inputs": [
        {
          "internalType": "address",
          "name": "datatoken",
          "type": "address"
        },
        {
          "internalType": "address",
          "name": "to",
          "type": "address"
        },
        {
          "internalType": "uint256",
          "name": "value",
          "type": "uint256"
        }
      ],
      "name": "mintV3DT",
      "outputs": [],
      "stateMutability": "nonpayable",
      "type": "function"
    },
    {
      "inputs": [],
      "name": "name",
      "outputs": [
        {
          "internalType": "string",
          "name": "",
          "type": "string"
        }
      ],
      "stateMutability": "view",
      "type": "function"
    },
    {
      "inputs": [
        {
          "internalType": "uint256",
          "name": "tokenId",
          "type": "uint256"
        }
      ],
      "name": "ownerOf",
      "outputs": [
        {
          "internalType": "address",
          "name": "",
          "type": "address"
        }
      ],
      "stateMutability": "view",
      "type": "function"
    },
    {
      "inputs": [
        {
          "internalType": "address",
          "name": "_allowedAddress",
          "type": "address"
        }
      ],
      "name": "removeFrom725StoreList",
      "outputs": [],
      "stateMutability": "nonpayable",
      "type": "function"
    },
    {
      "inputs": [
        {
          "internalType": "address",
          "name": "_allowedAddress",
          "type": "address"
        }
      ],
      "name": "removeFromCreateERC20List",
      "outputs": [],
      "stateMutability": "nonpayable",
      "type": "function"
    },
    {
      "inputs": [
        {
          "internalType": "address",
          "name": "_allowedAddress",
          "type": "address"
        }
      ],
      "name": "removeFromMetadataList",
      "outputs": [],
      "stateMutability": "nonpayable",
      "type": "function"
    },
    {
      "inputs": [
        {
          "internalType": "address",
          "name": "_managerAddress",
          "type": "address"
        }
      ],
      "name": "removeManager",
      "outputs": [],
      "stateMutability": "nonpayable",
      "type": "function"
    },
    {
      "inputs": [
        {
          "internalType": "address",
          "name": "minter",
          "type": "address"
        }
      ],
      "name": "removeV3Minter",
      "outputs": [],
      "stateMutability": "nonpayable",
      "type": "function"
    },
    {
      "inputs": [
        {
          "internalType": "address",
          "name": "from",
          "type": "address"
        },
        {
          "internalType": "address",
          "name": "to",
          "type": "address"
        },
        {
          "internalType": "uint256",
          "name": "tokenId",
          "type": "uint256"
        }
      ],
      "name": "safeTransferFrom",
      "outputs": [],
      "stateMutability": "nonpayable",
      "type": "function"
    },
    {
      "inputs": [
        {
          "internalType": "address",
          "name": "operator",
          "type": "address"
        },
        {
          "internalType": "bool",
          "name": "approved",
          "type": "bool"
        }
      ],
      "name": "setApprovalForAll",
      "outputs": [],
      "stateMutability": "nonpayable",
      "type": "function"
    },
    {
      "inputs": [
        {
          "internalType": "bytes32",
          "name": "_key",
          "type": "bytes32"
        },
        {
          "internalType": "bytes",
          "name": "_value",
          "type": "bytes"
        }
      ],
      "name": "setDataERC20",
      "outputs": [],
      "stateMutability": "nonpayable",
      "type": "function"
    },
    {
      "inputs": [
        {
          "internalType": "address",
          "name": "datatoken",
          "type": "address"
        },
        {
          "internalType": "bytes",
          "name": "_value",
          "type": "bytes"
        },
        {
          "internalType": "bytes",
          "name": "flags",
          "type": "bytes"
        },
        {
          "internalType": "bytes",
          "name": "data",
          "type": "bytes"
        }
      ],
      "name": "setDataV3",
      "outputs": [],
      "stateMutability": "nonpayable",
      "type": "function"
    },
    {
      "inputs": [
        {
          "internalType": "bytes32",
          "name": "_key",
          "type": "bytes32"
        },
        {
          "internalType": "bytes",
          "name": "_value",
          "type": "bytes"
        }
      ],
      "name": "setNewData",
      "outputs": [],
      "stateMutability": "nonpayable",
      "type": "function"
    },
    {
      "inputs": [],
      "name": "ssContract",
      "outputs": [
        {
          "internalType": "address",
          "name": "",
          "type": "address"
        }
      ],
      "stateMutability": "view",
      "type": "function"
    },
    {
      "inputs": [
        {
          "internalType": "bytes4",
          "name": "interfaceId",
          "type": "bytes4"
        }
      ],
      "name": "supportsInterface",
      "outputs": [
        {
          "internalType": "bool",
          "name": "",
          "type": "bool"
        }
      ],
      "stateMutability": "view",
      "type": "function"
    },
    {
      "inputs": [],
      "name": "symbol",
      "outputs": [
        {
          "internalType": "string",
          "name": "",
          "type": "string"
        }
      ],
      "stateMutability": "view",
      "type": "function"
    },
    {
      "inputs": [
        {
          "internalType": "uint256",
          "name": "tokenId",
          "type": "uint256"
        }
      ],
      "name": "tokenURI",
      "outputs": [
        {
          "internalType": "string",
          "name": "",
          "type": "string"
        }
      ],
      "stateMutability": "view",
      "type": "function"
    },
    {
      "inputs": [
        {
          "internalType": "address",
          "name": "from",
          "type": "address"
        },
        {
          "internalType": "address",
          "name": "to",
          "type": "address"
        },
        {
          "internalType": "uint256",
          "name": "tokenId",
          "type": "uint256"
        }
      ],
      "name": "transferFrom",
      "outputs": [],
      "stateMutability": "nonpayable",
      "type": "function"
    },
    {
      "inputs": [
        {
          "internalType": "bytes",
          "name": "flags",
          "type": "bytes"
        },
        {
          "internalType": "bytes",
          "name": "data",
          "type": "bytes"
        }
      ],
      "name": "updateMetadata",
      "outputs": [],
      "stateMutability": "nonpayable",
      "type": "function"
    },
    {
      "inputs": [
        {
          "internalType": "address",
          "name": "",
          "type": "address"
        }
      ],
      "name": "v3DT",
      "outputs": [
        {
          "internalType": "bool",
          "name": "",
          "type": "bool"
        }
      ],
      "stateMutability": "view",
      "type": "function"
    },
    {
      "inputs": [
        {
          "internalType": "address",
          "name": "datatoken",
          "type": "address"
        },
        {
          "internalType": "address",
          "name": "newMinter",
          "type": "address"
        }
      ],
      "name": "wrapV3DT",
      "outputs": [],
      "stateMutability": "nonpayable",
      "type": "function"
    }
  ],
  "bytecode": "0x60806040523480156200001157600080fd5b50604080518082018252600881526754656d706c61746560c01b60208083019182528351808501909452600e84526d15195b5c1b185d1954de5b589bdb60921b908401528151919291620000689160009162000108565b5080516200007e90600190602084019062000108565b50620000959150632260147f60e11b9050620000ad565b620000a7632bd57b7360e01b620000ad565b62000222565b6001600160e01b03198082161415620000e35760405162461bcd60e51b8152600401620000da90620001ae565b60405180910390fd5b6001600160e01b0319166000908152600860205260409020805460ff19166001179055565b8280546200011690620001e5565b90600052602060002090601f0160209004810192826200013a576000855562000185565b82601f106200015557805160ff191683800117855562000185565b8280016001018555821562000185579182015b828111156200018557825182559160200191906001019062000168565b506200019392915062000197565b5090565b5b8082111562000193576000815560010162000198565b6020808252601c908201527f4552433136353a20696e76616c696420696e7465726661636520696400000000604082015260600190565b600281046001821680620001fa57607f821691505b602082108114156200021c57634e487b7160e01b600052602260045260246000fd5b50919050565b613dd580620002326000396000f3fe60806040526004361061023b5760003560e01c80634b2ee5e91161012e578063a22cb465116100ab578063c87b56dd1161006f578063c87b56dd1461069d578063cf763120146106bd578063ddd0af5b146106dd578063e985e9c5146106f2578063fe1ec880146107125761023b565b8063a22cb4651461060a578063ac18de431461062a578063b0c41ead1461064a578063b4d070231461066a578063c55f81261461068a5761023b565b806370a08231116100f257806370a08231146105685780637db0f56d14610595578063819172d9146105b557806395d89b41146105d55780639e753293146105ea5761023b565b80634b2ee5e9146104de5780634f189cb2146104f357806354f6127f146105085780636352211e1461052857806367530a61146105485761023b565b8063273e06b3116101bc57806339371b251161018057806339371b251461044957806342842e0e1461045e57806342c914c81461047e578063431053ac1461049e5780634a63740a146104be5761023b565b8063273e06b3146103b45780632748a9f9146103d45780632b940806146103f45780632d06177a14610414578063392e53cd146104345761023b565b806310c558bf1161020357806310c558bf14610307578063160a79251461032757806319c186e5146103545780631b1de75c1461037457806323b872dd146103945761023b565b806301ffc9a71461024057806306fdde0314610276578063081812fc14610298578063095ea7b3146102c55780630e57c7e8146102e7575b600080fd5b34801561024c57600080fd5b5061026061025b366004612e34565b610732565b60405161026d9190613175565b60405180910390f35b34801561028257600080fd5b5061028b610769565b60405161026d919061319d565b3480156102a457600080fd5b506102b86102b3366004612dd2565b6107fb565b60405161026d9190613085565b3480156102d157600080fd5b506102e56102e0366004612da7565b610847565b005b3480156102f357600080fd5b506102e5610302366004612dea565b6108df565b34801561031357600080fd5b506102e5610322366004612b25565b61091e565b34801561033357600080fd5b50610347610342366004612b25565b6109a7565b60405161026d9190613c0b565b34801561036057600080fd5b506102e561036f366004612b25565b610a23565b34801561038057600080fd5b5061026061038f366004612b25565b610aae565b3480156103a057600080fd5b506102e56103af366004612b95565b610ac3565b3480156103c057600080fd5b506102e56103cf366004612b25565b610baf565b3480156103e057600080fd5b506102e56103ef366004612b95565b610c07565b34801561040057600080fd5b506102e561040f366004612c06565b610cb1565b34801561042057600080fd5b506102e561042f366004612b25565b610da4565b34801561044057600080fd5b50610260610dea565b34801561045557600080fd5b506102b8610df3565b34801561046a57600080fd5b506102e5610479366004612b95565b610e07565b34801561048a57600080fd5b506102e5610499366004612e6c565b610eae565b3480156104aa57600080fd5b506102e56104b9366004612b25565b610f87565b3480156104ca57600080fd5b506102e56104d9366004612b25565b610fde565b3480156104ea57600080fd5b506102b8611065565b3480156104ff57600080fd5b506102e5611074565b34801561051457600080fd5b5061028b610523366004612dd2565b6110b8565b34801561053457600080fd5b506102b8610543366004612dd2565b61115a565b34801561055457600080fd5b506102e5610563366004612dea565b61118f565b34801561057457600080fd5b50610588610583366004612b25565b6111ca565b60405161026d9190613180565b3480156105a157600080fd5b506102606105b0366004612caf565b61120e565b3480156105c157600080fd5b506102e56105d0366004612b25565b611305565b3480156105e157600080fd5b5061028b611342565b3480156105f657600080fd5b506102e5610605366004612b25565b611351565b34801561061657600080fd5b506102e5610625366004612bd5565b61138e565b34801561063657600080fd5b506102e5610645366004612b25565b61145c565b34801561065657600080fd5b506102b8610665366004612dd2565b61149f565b34801561067657600080fd5b506102b8610685366004612ed5565b6114c9565b6102e5610698366004612f7b565b61162f565b3480156106a957600080fd5b5061028b6106b8366004612dd2565b611677565b3480156106c957600080fd5b506102e56106d8366004612b5d565b6116fa565b3480156106e957600080fd5b5061058861174a565b3480156106fe57600080fd5b5061026061070d366004612b5d565b61176e565b34801561071e57600080fd5b506102e561072d366004612b25565b61179c565b600061073d826117f2565b8061076157506001600160e01b0319821660009081526008602052604090205460ff165b90505b919050565b6060600b805461077890613cbe565b80601f01602080910402602001604051908101604052809291908181526020018280546107a490613cbe565b80156107f15780601f106107c6576101008083540402835291602001916107f1565b820191906000526020600020905b8154815290600101906020018083116107d457829003601f168201915b5050505050905090565b60006108068261180b565b61082b5760405162461bcd60e51b81526004016108229061386a565b60405180910390fd5b506000908152600460205260409020546001600160a01b031690565b60006108528261115a565b9050806001600160a01b0316836001600160a01b031614156108865760405162461bcd60e51b8152600401610822906139c9565b806001600160a01b0316610898611828565b6001600160a01b031614806108b457506108b48161070d611828565b6108d05760405162461bcd60e51b81526004016108229061357b565b6108da838361182c565b505050565b3360009081526011602052604090205460ff1615156001146109135760405162461bcd60e51b815260040161082290613539565b6108da83838361189a565b3360009081526006602052604090205460ff1615156001146109525760405162461bcd60e51b815260040161082290613b56565b6001600160a01b03166000818152600660205260408120805462ff0000191662010000179055600780546001810182559152600080516020613d808339815191520180546001600160a01b0319169091179055565b6109af61297a565b506001600160a01b0316600090815260066020908152604091829020825160a081018452905460ff8082161515835261010082048116151593830193909352620100008104831615159382019390935263010000008304821615156060820152640100000000909204161515608082015290565b3360009081526006602052604090205460ff161515600114610a575760405162461bcd60e51b815260040161082290613b56565b6001600160a01b03166000818152600660205260408120805463ff00000019166301000000179055600780546001810182559152600080516020613d808339815191520180546001600160a01b0319169091179055565b600a6020526000908152604090205460ff1681565b80600114610ae35760405162461bcd60e51b81526004016108229061397d565b610b4e610b49600f805480602002602001604051908101604052809291908181526020018280548015610b3f57602002820191906000526020600020905b81546001600160a01b03168152600190910190602001808311610b21575b50505050506118f3565b6118f7565b610b56611996565b610b61838383611a1a565b610b6a82611a62565b506001600160a01b03166000908152600660205260409020805463ff0000001961ff001962ff0000199092166201000017919091166101001716630100000017905550565b3360009081526006602052604090205460ff161515600114610be35760405162461bcd60e51b815260040161082290613b56565b6001600160a01b03166000908152600660205260409020805463ff00000019169055565b33600090815260066020526040902054640100000000900460ff161515600114610c435760405162461bcd60e51b8152600401610822906135d8565b610c4c83611ab6565b6040516340c10f1960e01b81526001600160a01b038416906340c10f1990610c7a908590859060040161315c565b600060405180830381600087803b158015610c9457600080fd5b505af1158015610ca8573d6000803e3d6000fd5b50505050505050565b33600090815260066020526040902054640100000000900460ff161515600114610ced5760405162461bcd60e51b815260040161082290613249565b610cf687611ab6565b600087604051602001610d099190613039565b604051602081830303815290604052805190602001209050610d2c81888861189a565b600d54604051637c4d8f9b60e11b81526101009091046001600160a01b03169063f89b1f3690610d68908b9089908990899089906004016130d6565b600060405180830381600087803b158015610d8257600080fd5b505af1158015610d96573d6000803e3d6000fd5b505050505050505050505050565b610dae600161115a565b6001600160a01b0316336001600160a01b031614610dde5760405162461bcd60e51b81526004016108229061337f565b610de781611a62565b50565b600d5460ff1690565b600d5461010090046001600160a01b031681565b80600114610e275760405162461bcd60e51b81526004016108229061397d565b610e8b610b49600f805480602002602001604051908101604052809291908181526020018280548015610b3f576020028201919060005260206000209081546001600160a01b03168152600190910190602001808311610b215750505050506118f3565b610e93611996565b610b6183838360405180602001604052806000815250611af3565b3360009081526006602052604090205462010000900460ff161515600114610ee85760405162461bcd60e51b815260040161082290613280565b600d54604051637c4d8f9b60e11b81526101009091046001600160a01b03169063f89b1f3690610f2490309088908890889088906004016130d6565b600060405180830381600087803b158015610f3e57600080fd5b505af1158015610f52573d6000803e3d6000fd5b50505050610f817fa063f3cd8b0dcd6546ffc1c06fc86515c40fe331e91488c5e18c88c7efc881e8838361189a565b50505050565b3360009081526006602052604090205460ff161515600114610fbb5760405162461bcd60e51b815260040161082290613b56565b6001600160a01b03166000908152600660205260409020805462ff000019169055565b3360009081526006602052604090205460ff1615156001146110125760405162461bcd60e51b815260040161082290613b56565b6001600160a01b03166000818152600660205260408120805461ff001916610100179055600780546001810182559152600080516020613d808339815191520180546001600160a01b0319169091179055565b6010546001600160a01b031681565b61107e600161115a565b6001600160a01b0316336001600160a01b0316146110ae5760405162461bcd60e51b81526004016108229061337f565b6110b6611996565b565b60008181526009602052604090208054606091906110d590613cbe565b80601f016020809104026020016040519081016040528092919081815260200182805461110190613cbe565b801561114e5780601f106111235761010080835404028352916020019161114e565b820191906000526020600020905b81548152906001019060200180831161113157829003601f168201915b50505050509050919050565b6000818152600260205260408120546001600160a01b0316806107615760405162461bcd60e51b8152600401610822906136a1565b336000908152600660205260409020546301000000900460ff1615156001146109135760405162461bcd60e51b815260040161082290613208565b60006001600160a01b0382166111f25760405162461bcd60e51b815260040161082290613657565b506001600160a01b031660009081526003602052604090205490565b600d5460009060ff16156112345760405162461bcd60e51b815260040161082290613b04565b6112f58c8c8c8080601f016020809104026020016040519081016040528093929190818152602001838380828437600081840152601f19601f820116905080830192505050505050508b8b8080601f01602080910402602001604051908101604052809392919081815260200183838082843760009201919091525050604080516020601f8b018190048102820181019092528981528e93508d92508c918c91908c908c9081908401838280828437600092019190915250611b2c92505050565b9c9b505050505050505050505050565b3360009081526006602052604090205460ff1615156001146113395760405162461bcd60e51b815260040161082290613b56565b610de781611c5e565b6060600c805461077890613cbe565b3360009081526006602052604090205460ff1615156001146113855760405162461bcd60e51b815260040161082290613b56565b610de781611cb7565b611396611828565b6001600160a01b0316826001600160a01b031614156113c75760405162461bcd60e51b8152600401610822906133fa565b80600560006113d4611828565b6001600160a01b03908116825260208083019390935260409182016000908120918716808252919093529120805460ff191692151592909217909155611418611828565b6001600160a01b03167f17307eab39ab6107e8899845ad3d59bd9653f200f220920489ca2b5937696c31836040516114509190613175565b60405180910390a35050565b611466600161115a565b6001600160a01b0316336001600160a01b0316146114965760405162461bcd60e51b81526004016108229061337f565b610de781611cdc565b600781815481106114af57600080fd5b6000918252602090912001546001600160a01b0316905081565b3360009081526006602052604081205460ff6101009091041615156001146115035760405162461bcd60e51b815260040161082290613431565b600e546040516373ecb34760e01b81526000916001600160a01b0316906373ecb34790611542908d908d908d908d908d908d908d908d906004016131b0565b602060405180830381600087803b15801561155c57600080fd5b505af1158015611570573d6000803e3d6000fd5b505050506040513d601f19601f820116820180604052508101906115949190612b41565b6001600160a01b038116600081815260116020526040808220805460ff19166001908117909155600f8054918201815583527f8d1108e10bcb7c27dddfc02ed9d693a074039d026cf4ea4240b40f7d581ac8020180546001600160a01b031916841790555192935090917f41039c8b82bb5a365f56b4f9d87cee99e069b450bfdc3d87696fcd87783f24c19190a29998505050505050505050565b3360009081526006602052604090205460ff1615156001146116635760405162461bcd60e51b815260040161082290613b56565b6116708585858585611cfd565b5050505050565b60606116828261180b565b61169e5760405162461bcd60e51b81526004016108229061392e565b60006116a8611eff565b905060008151116116c857604051806020016040528060008152506116f3565b806116d284611f11565b6040516020016116e3929190613056565b6040516020818303038152906040525b9392505050565b611704600161115a565b6001600160a01b0316336001600160a01b0316146117345760405162461bcd60e51b81526004016108229061337f565b61173d82612034565b61174681611c5e565b5050565b7fa063f3cd8b0dcd6546ffc1c06fc86515c40fe331e91488c5e18c88c7efc881e881565b6001600160a01b03918216600090815260056020908152604080832093909416825291909152205460ff1690565b3360009081526006602052604090205460ff1615156001146117d05760405162461bcd60e51b815260040161082290613b56565b6001600160a01b03166000908152600660205260409020805461ff0019169055565b6001600160e01b031981166301ffc9a760e01b14919050565b6000908152600260205260409020546001600160a01b0316151590565b3390565b600081815260046020526040902080546001600160a01b0319166001600160a01b03841690811790915581906118618261115a565b6001600160a01b03167f8c5be1e5ebec7d5bd14f71427d1e84f3dd0314c0f7b2291e5b200ac8c7c3b92560405160405180910390a45050565b60008381526009602052604090206118b39083836129a8565b50827fece574603820d07bc9b91f2a932baadf4628aabcb8afba49776529c14a6104b283836040516118e6929190613189565b60405180910390a2505050565b5190565b60005b8181101561174657600f818154811061192357634e487b7160e01b600052603260045260246000fd5b6000918252602082200154604080516382c03da560e01b815290516001600160a01b03909216926382c03da59260048084019382900301818387803b15801561196b57600080fd5b505af115801561197f573d6000803e3d6000fd5b50505050808061198e90613cf9565b9150506118fa565b60005b600754811015611a0d57600060066000600784815481106119ca57634e487b7160e01b600052603260045260246000fd5b60009182526020808320909101546001600160a01b031683528201929092526040019020805464ffffffffff191690555080611a0581613cf9565b915050611999565b506110b660076000612a2c565b611a2b611a25611828565b8261221d565b611a475760405162461bcd60e51b815260040161082290613a38565b6108da83838360405180602001604052806000815250611af3565b6001600160a01b03166000818152600660205260408120805460ff19166001908117909155600780549182018155909152600080516020613d808339815191520180546001600160a01b0319169091179055565b6001600160a01b0381166000908152600a602052604090205460ff161515600114610de75760405162461bcd60e51b815260040161082290613b8d565b611b04611afe611828565b8361221d565b611b205760405162461bcd60e51b815260040161082290613a38565b610f818484848461229a565b60006001600160a01b038916611b545760405162461bcd60e51b815260040161082290613477565b6001600160a01b038616611b7a5760405162461bcd60e51b815260040161082290613ab4565b600d8054610100600160a81b0319166101006001600160a01b038916021790558751611bad90600b9060208b0190612a4a565b508651611bc190600c9060208a0190612a4a565b50600e80546001600160a01b0319166001600160a01b038716179055600d805460ff19166001179055611bf58285856122cd565b611c0089600161240c565b611c0989611a62565b506001600160a01b0388166000908152600660205260409020805463ff0000001961ff001962ff00001990921662010000179190911661010017166301000000179055600d5460ff1698975050505050505050565b6001600160a01b03166000818152600660205260408120805464ff000000001916640100000000179055600780546001810182559152600080516020613d808339815191520180546001600160a01b0319169091179055565b6001600160a01b03166000908152600660205260409020805464ff0000000019169055565b6001600160a01b03166000908152600660205260409020805460ff19169055565b82846001600160a01b0316867f1f920dbda597d7bf95035464170fa58d0a4b57f13a1c315ace6793b9f63688b88585604051611d3a929190613189565b60405180910390a460006109c45a611d529190613c7b565b905085611da257611d9c858585858080601f016020809104026020016040519081016040528093929190818152602001838380828437600092019190915250879250612426915050565b50611ef7565b6003861415611deb57611d9c8484848080601f01602080910402602001604051908101604052809392919081815260200183838082843760009201919091525061243e92505050565b6002861415611edf576000611e4284848080601f016020809104026020016040519081016040528093929190818152602001838380828437600092019190915250611e3d925060209150879050613c7b565b6124aa565b90506000611e9185858080601f01602080910402602001604051908101604052809392919081815260200183838082843760009201829052509250611e8c91506020905088613c7b565b6124e0565b90506000611ea08784846125a8565b6040519091506001600160a01b038216907fcf78cf0d6f3d8371e1075c69c492ab4ec5d8cf23a1a239b6a51a1d00be7ca31290600090a2505050611ef7565b60405162461bcd60e51b815260040161082290613a0a565b505050505050565b60408051602081019091526000815290565b606081611f3657506040805180820190915260018152600360fc1b6020820152610764565b8160005b8115611f605780611f4a81613cf9565b9150611f599050600a83613c67565b9150611f3a565b60008167ffffffffffffffff811115611f8957634e487b7160e01b600052604160045260246000fd5b6040519080825280601f01601f191660200182016040528015611fb3576020820181803683370190505b5090505b841561202c57611fc8600183613c7b565b9150611fd5600a86613d14565b611fe0906030613c4f565b60f81b81838151811061200357634e487b7160e01b600052603260045260246000fd5b60200101906001600160f81b031916908160001a905350612025600a86613c67565b9450611fb7565b949350505050565b336001600160a01b0316816001600160a01b031663075461726040518163ffffffff1660e01b815260040160206040518083038186803b15801561207757600080fd5b505afa15801561208b573d6000803e3d6000fd5b505050506040513d601f19601f820116820180604052508101906120af9190612b41565b6001600160a01b0316146120d55760405162461bcd60e51b8152600401610822906137e7565b6001600160a01b0381166000908152600a602052604090205460ff161561210e5760405162461bcd60e51b815260040161082290613756565b6001600160a01b0381166000818152600a6020526040808220805460ff19166001179055805163eb40024b60e01b8152905163eb40024b9260048084019391929182900301818387803b15801561216457600080fd5b505af1158015612178573d6000803e3d6000fd5b50505050306001600160a01b0316816001600160a01b031663075461726040518163ffffffff1660e01b815260040160206040518083038186803b1580156121bf57600080fd5b505afa1580156121d3573d6000803e3d6000fd5b505050506040513d601f19601f820116820180604052508101906121f79190612b41565b6001600160a01b031614610de75760405162461bcd60e51b81526004016108229061360f565b60006122288261180b565b6122445760405162461bcd60e51b8152600401610822906134c5565b600061224f8361115a565b9050806001600160a01b0316846001600160a01b0316148061228a5750836001600160a01b031661227f846107fb565b6001600160a01b0316145b8061202c575061202c818561176e565b6122a584848461261a565b6122b184848484612747565b610f815760405162461bcd60e51b8152600401610822906132f6565b600e5460405163072f670f60e41b815230916001600160a01b0316906372f670f0906122fd908490600401613085565b602060405180830381600087803b15801561231757600080fd5b505af115801561232b573d6000803e3d6000fd5b505050506040513d601f19601f8201168201806040525081019061234f9190612b41565b6001600160a01b0316146123755760405162461bcd60e51b8152600401610822906137a2565b600d5460405163209d0e0560e21b81526101009091046001600160a01b0316906382743814906123af90309087908790879060040161311a565b600060405180830381600087803b1580156123c957600080fd5b505af11580156123dd573d6000803e3d6000fd5b505050506108da7fa063f3cd8b0dcd6546ffc1c06fc86515c40fe331e91488c5e18c88c7efc881e8838361189a565b611746828260405180602001604052806000815250612862565b6000806000845160208601878987f195945050505050565b600081516020830184f090506001600160a01b0381166124705760405162461bcd60e51b815260040161082290613833565b6040516001600160a01b038216907fcf78cf0d6f3d8371e1075c69c492ab4ec5d8cf23a1a239b6a51a1d00be7ca31290600090a292915050565b60006124b7826020613c4f565b835110156124d75760405162461bcd60e51b8152600401610822906138b6565b50016020015190565b6060816124ee81601f613c4f565b101561250c5760405162461bcd60e51b815260040161082290613511565b6125168284613c4f565b845110156125365760405162461bcd60e51b815260040161082290613a89565b606082158015612555576040519150600082526020820160405261259f565b6040519150601f8416801560200281840101858101878315602002848b0101015b8183101561258e578051835260209283019201612576565b5050858452601f01601f1916604052505b50949350505050565b600080844710156125cb5760405162461bcd60e51b815260040161082290613bd4565b82516125e95760405162461bcd60e51b8152600401610822906132c1565b8383516020850187f590506001600160a01b03811661202c5760405162461bcd60e51b8152600401610822906136ea565b826001600160a01b031661262d8261115a565b6001600160a01b0316146126535760405162461bcd60e51b8152600401610822906138e5565b6001600160a01b0382166126795760405162461bcd60e51b8152600401610822906133b6565b6126848383836108da565b61268f60008261182c565b6001600160a01b03831660009081526003602052604081208054600192906126b8908490613c7b565b90915550506001600160a01b03821660009081526003602052604081208054600192906126e6908490613c4f565b909155505060008181526002602052604080822080546001600160a01b0319166001600160a01b0386811691821790925591518493918716917fddf252ad1be2c89b69c2b068fc378daa952ba7f163c4a11628f55a4df523b3ef91a4505050565b600061275b846001600160a01b0316612895565b1561285757836001600160a01b031663150b7a02612777611828565b8786866040518563ffffffff1660e01b81526004016127999493929190613099565b602060405180830381600087803b1580156127b357600080fd5b505af19250505080156127e3575060408051601f3d908101601f191682019092526127e091810190612e50565b60015b61283d573d808015612811576040519150601f19603f3d011682016040523d82523d6000602084013e612816565b606091505b5080516128355760405162461bcd60e51b8152600401610822906132f6565b805181602001fd5b6001600160e01b031916630a85bd0160e11b14905061202c565b506001949350505050565b61286c838361289b565b6128796000848484612747565b6108da5760405162461bcd60e51b8152600401610822906132f6565b3b151590565b6001600160a01b0382166128c15760405162461bcd60e51b815260040161082290613721565b6128ca8161180b565b156128e75760405162461bcd60e51b815260040161082290613348565b6128f3600083836108da565b6001600160a01b038216600090815260036020526040812080546001929061291c908490613c4f565b909155505060008181526002602052604080822080546001600160a01b0319166001600160a01b03861690811790915590518392907fddf252ad1be2c89b69c2b068fc378daa952ba7f163c4a11628f55a4df523b3ef908290a45050565b6040805160a08101825260008082526020820181905291810182905260608101829052608081019190915290565b8280546129b490613cbe565b90600052602060002090601f0160209004810192826129d65760008555612a1c565b82601f106129ef5782800160ff19823516178555612a1c565b82800160010185558215612a1c579182015b82811115612a1c578235825591602001919060010190612a01565b50612a28929150612abe565b5090565b5080546000825590600052602060002090810190610de79190612abe565b828054612a5690613cbe565b90600052602060002090601f016020900481019282612a785760008555612a1c565b82601f10612a9157805160ff1916838001178555612a1c565b82800160010185558215612a1c579182015b82811115612a1c578251825591602001919060010190612aa3565b5b80821115612a285760008155600101612abf565b803561076481613d54565b60008083601f840112612aef578182fd5b50813567ffffffffffffffff811115612b06578182fd5b602083019150836020828501011115612b1e57600080fd5b9250929050565b600060208284031215612b36578081fd5b81356116f381613d54565b600060208284031215612b52578081fd5b81516116f381613d54565b60008060408385031215612b6f578081fd5b8235612b7a81613d54565b91506020830135612b8a81613d54565b809150509250929050565b600080600060608486031215612ba9578081fd5b8335612bb481613d54565b92506020840135612bc481613d54565b929592945050506040919091013590565b60008060408385031215612be7578182fd5b8235612bf281613d54565b915060208301358015158114612b8a578182fd5b60008060008060008060006080888a031215612c20578283fd5b8735612c2b81613d54565b9650602088013567ffffffffffffffff80821115612c47578485fd5b612c538b838c01612ade565b909850965060408a0135915080821115612c6b578485fd5b612c778b838c01612ade565b909650945060608a0135915080821115612c8f578384fd5b50612c9c8a828b01612ade565b989b979a50959850939692959293505050565b600080600080600080600080600080600060e08c8e031215612ccf578384fd5b612cd88c612ad3565b9a5067ffffffffffffffff8060208e01351115612cf3578485fd5b612d038e60208f01358f01612ade565b909b50995060408d0135811015612d18578485fd5b612d288e60408f01358f01612ade565b9099509750612d3960608e01612ad3565b9650612d4760808e01612ad3565b95508060a08e01351115612d59578485fd5b612d698e60a08f01358f01612ade565b909550935060c08d0135811015612d7e578283fd5b50612d8f8d60c08e01358e01612ade565b81935080925050509295989b509295989b9093969950565b60008060408385031215612db9578182fd5b8235612dc481613d54565b946020939093013593505050565b600060208284031215612de3578081fd5b5035919050565b600080600060408486031215612dfe578283fd5b83359250602084013567ffffffffffffffff811115612e1b578283fd5b612e2786828701612ade565b9497909650939450505050565b600060208284031215612e45578081fd5b81356116f381613d69565b600060208284031215612e61578081fd5b81516116f381613d69565b60008060008060408587031215612e81578182fd5b843567ffffffffffffffff80821115612e98578384fd5b612ea488838901612ade565b90965094506020870135915080821115612ebc578384fd5b50612ec987828801612ade565b95989497509550505050565b60008060008060008060008060c0898b031215612ef0578182fd5b883567ffffffffffffffff80821115612f07578384fd5b612f138c838d01612ade565b909a50985060208b0135915080821115612f2b578384fd5b50612f388b828c01612ade565b90975095505060408901359350606089013592506080890135612f5a81613d54565b915060a0890135612f6a81613d54565b809150509295985092959890939650565b600080600080600060808688031215612f92578283fd5b853594506020860135612fa481613d54565b935060408601359250606086013567ffffffffffffffff811115612fc6578182fd5b612fd288828901612ade565b969995985093965092949392505050565b60008284528282602086013780602084860101526020601f19601f85011685010190509392505050565b60008151808452613025816020860160208601613c92565b601f01601f19169290920160200192915050565b60609190911b6bffffffffffffffffffffffff1916815260140190565b60008351613068818460208801613c92565b83519083019061307c818360208801613c92565b01949350505050565b6001600160a01b0391909116815260200190565b6001600160a01b03858116825284166020820152604081018390526080606082018190526000906130cc9083018461300d565b9695505050505050565b6001600160a01b03861681526060602082018190526000906130fb9083018688612fe3565b828103604084015261310e818587612fe3565b98975050505050505050565b6001600160a01b038516815260606020820181905260009061313e9083018661300d565b8281036040840152613151818587612fe3565b979650505050505050565b6001600160a01b03929092168252602082015260400190565b901515815260200190565b90815260200190565b60006020825261202c602083018486612fe3565b6000602082526116f3602083018461300d565b600060c082526131c460c083018a8c612fe3565b82810360208401526131d781898b612fe3565b6040840197909752505060608101939093526001600160a01b0391821660808401521660a090910152949350505050565b60208082526021908201527f45524337323154656d706c6174653a204e4f542053544f5245205550444154456040820152602960f91b606082015260800190565b6020808252601c908201527f45524337323154656d706c6174653a204e4f542076334d696e74657200000000604082015260600190565b60208082526021908201527f45524337323154656d706c6174653a204e4f54204d455441444154415f524f4c6040820152604560f81b606082015260800190565b6020808252818101527f437265617465323a2062797465636f6465206c656e677468206973207a65726f604082015260600190565b60208082526032908201527f4552433732313a207472616e7366657220746f206e6f6e20455243373231526560408201527131b2b4bb32b91034b6b83632b6b2b73a32b960711b606082015260800190565b6020808252601c908201527f4552433732313a20746f6b656e20616c7265616479206d696e74656400000000604082015260600190565b6020808252601c908201527f45524337323154656d706c6174653a206e6f74204e46544f776e657200000000604082015260600190565b60208082526024908201527f4552433732313a207472616e7366657220746f20746865207a65726f206164646040820152637265737360e01b606082015260800190565b60208082526019908201527f4552433732313a20617070726f766520746f2063616c6c657200000000000000604082015260600190565b60208082526026908201527f45524337323154656d706c6174653a204e4f542045524332304445504c4f5945604082015265525f524f4c4560d01b606082015260800190565b6020808252602e908201527f45524337323154656d706c6174653a3a20496e76616c6964206d696e7465722c60408201526d20207a65726f206164647265737360901b606082015260800190565b6020808252602c908201527f4552433732313a206f70657261746f7220717565727920666f72206e6f6e657860408201526b34b9ba32b73a103a37b5b2b760a11b606082015260800190565b6020808252600e908201526d736c6963655f6f766572666c6f7760901b604082015260600190565b60208082526022908201527f45524337323154656d706c6174653a204e4f5420455243323020436f6e74726160408201526118dd60f21b606082015260800190565b60208082526038908201527f4552433732313a20617070726f76652063616c6c6572206973206e6f74206f7760408201527f6e6572206e6f7220617070726f76656420666f7220616c6c0000000000000000606082015260800190565b6020808252601d908201527f45524337323154656d706c6174653a204e4f54207633204d494e544552000000604082015260600190565b60208082526028908201527f45524337323154656d706c6174653a204641494c454420544f20534554204e456040820152672b9026a4a72a22a960c11b606082015260800190565b6020808252602a908201527f4552433732313a2062616c616e636520717565727920666f7220746865207a65604082015269726f206164647265737360b01b606082015260800190565b60208082526029908201527f4552433732313a206f776e657220717565727920666f72206e6f6e657869737460408201526832b73a103a37b5b2b760b91b606082015260800190565b60208082526019908201527f437265617465323a204661696c6564206f6e206465706c6f7900000000000000604082015260600190565b6020808252818101527f4552433732313a206d696e7420746f20746865207a65726f2061646472657373604082015260600190565b6020808252602c908201527f45524337323154656d706c6174653a2056332064617461746f6b656e20616c7260408201526b1958591e481ddc985c1c195960a21b606082015260800190565b60208082526025908201527f45524337323154656d706c6174653a204e4f54204f524947494e414c2054454d604082015264504c41544560d81b606082015260800190565b6020808252602c908201527f45524337323154656d706c6174653a204e4f542045524332302056332064617460408201526b30ba37b5b2b71037bbb732b960a11b606082015260800190565b60208082526019908201527f436f756c64206e6f74206465706c6f7920636f6e747261637400000000000000604082015260600190565b6020808252602c908201527f4552433732313a20617070726f76656420717565727920666f72206e6f6e657860408201526b34b9ba32b73a103a37b5b2b760a11b606082015260800190565b602080825260159082015274746f427974657333325f6f75744f66426f756e647360581b604082015260600190565b60208082526029908201527f4552433732313a207472616e73666572206f6620746f6b656e2074686174206960408201526839903737ba1037bbb760b91b606082015260800190565b6020808252602f908201527f4552433732314d657461646174613a2055524920717565727920666f72206e6f60408201526e3732bc34b9ba32b73a103a37b5b2b760891b606082015260800190565b6020808252602c908201527f45524337323154656d706c6174653a2043616e6e6f74207472616e736665722060408201526b1d1a1a5cc81d1bdad95b925960a21b606082015260800190565b60208082526021908201527f4552433732313a20617070726f76616c20746f2063757272656e74206f776e656040820152603960f91b606082015260800190565b60208082526014908201527357726f6e67206f7065726174696f6e207479706560601b604082015260600190565b60208082526031908201527f4552433732313a207472616e736665722063616c6c6572206973206e6f74206f6040820152701ddb995c881b9bdc88185c1c1c9bdd9959607a1b606082015260800190565b602080825260119082015270736c6963655f6f75744f66426f756e647360781b604082015260600190565b60208082526030908201527f45524337323154656d706c6174653a3a204d657461646174612061646472657360408201526f732063616e6e6f74206265207a65726f60801b606082015260800190565b60208082526032908201527f45524337323154656d706c6174653a20746f6b656e20696e7374616e636520616040820152711b1c9958591e481a5b9a5d1a585b1a5e995960721b606082015260800190565b6020808252601f908201527f455243373231526f6c6573416464726573733a204e4f54204d414e4147455200604082015260600190565b60208082526027908201527f45524337323154656d706c6174653a20763344617461746f6b656e206e6f742060408201526615d4905414115160ca1b606082015260800190565b6020808252601d908201527f437265617465323a20696e73756666696369656e742062616c616e6365000000604082015260600190565b600060a08201905082511515825260208301511515602083015260408301511515604083015260608301511515606083015260808301511515608083015292915050565b60008219821115613c6257613c62613d28565b500190565b600082613c7657613c76613d3e565b500490565b600082821015613c8d57613c8d613d28565b500390565b60005b83811015613cad578181015183820152602001613c95565b83811115610f815750506000910152565b600281046001821680613cd257607f821691505b60208210811415613cf357634e487b7160e01b600052602260045260246000fd5b50919050565b6000600019821415613d0d57613d0d613d28565b5060010190565b600082613d2357613d23613d3e565b500690565b634e487b7160e01b600052601160045260246000fd5b634e487b7160e01b600052601260045260246000fd5b6001600160a01b0381168114610de757600080fd5b6001600160e01b031981168114610de757600080fdfea66cc928b5edb82af9bd49922954155ab7b0942694bea4ce44661d9a8736c688a2646970667358221220d53b16bf2223a26de8a8b2da3bd4c43df1a39b81b1310c3360b6c51c402f420b64736f6c63430008000033",
  "linkReferences": {},
  "deployedLinkReferences": {}
}