{
  "_format": "hh-sol-artifact-1",
  "contractName": "ERC721Template",
  "sourceName": "contracts/templates/ERC721Template.sol",
  "abi": [
    {
      "anonymous": false,
      "inputs": [
        {
          "indexed": true,
          "internalType": "address",
          "name": "owner",
          "type": "address"
        },
        {
          "indexed": true,
          "internalType": "address",
          "name": "approved",
          "type": "address"
        },
        {
          "indexed": true,
          "internalType": "uint256",
          "name": "tokenId",
          "type": "uint256"
        }
      ],
      "name": "Approval",
      "type": "event"
    },
    {
      "anonymous": false,
      "inputs": [
        {
          "indexed": true,
          "internalType": "address",
          "name": "owner",
          "type": "address"
        },
        {
          "indexed": true,
          "internalType": "address",
          "name": "operator",
          "type": "address"
        },
        {
          "indexed": false,
          "internalType": "bool",
          "name": "approved",
          "type": "bool"
        }
      ],
      "name": "ApprovalForAll",
      "type": "event"
    },
    {
      "anonymous": false,
      "inputs": [
        {
          "indexed": true,
          "internalType": "address",
          "name": "contractAddress",
          "type": "address"
        }
      ],
      "name": "ContractCreated",
      "type": "event"
    },
    {
      "anonymous": false,
      "inputs": [
        {
          "indexed": true,
          "internalType": "bytes32",
          "name": "key",
          "type": "bytes32"
        },
        {
          "indexed": false,
          "internalType": "bytes",
          "name": "value",
          "type": "bytes"
        }
      ],
      "name": "DataChanged",
      "type": "event"
    },
    {
      "anonymous": false,
      "inputs": [
        {
          "indexed": true,
          "internalType": "address",
          "name": "erc20Address",
          "type": "address"
        }
      ],
      "name": "ERC20Created",
      "type": "event"
    },
    {
      "anonymous": false,
      "inputs": [
        {
          "indexed": true,
          "internalType": "uint256",
          "name": "_operation",
          "type": "uint256"
        },
        {
          "indexed": true,
          "internalType": "address",
          "name": "_to",
          "type": "address"
        },
        {
          "indexed": true,
          "internalType": "uint256",
          "name": "_value",
          "type": "uint256"
        },
        {
          "indexed": false,
          "internalType": "bytes",
          "name": "_data",
          "type": "bytes"
        }
      ],
      "name": "Executed",
      "type": "event"
    },
    {
      "anonymous": false,
      "inputs": [
        {
          "indexed": true,
          "internalType": "address",
          "name": "from",
          "type": "address"
        },
        {
          "indexed": true,
          "internalType": "address",
          "name": "to",
          "type": "address"
        },
        {
          "indexed": true,
          "internalType": "uint256",
          "name": "tokenId",
          "type": "uint256"
        }
      ],
      "name": "Transfer",
      "type": "event"
    },
    {
      "inputs": [],
      "name": "METADATA_KEY",
      "outputs": [
        {
          "internalType": "bytes32",
          "name": "",
          "type": "bytes32"
        }
      ],
      "stateMutability": "view",
      "type": "function"
    },
    {
      "inputs": [],
      "name": "_metadata",
      "outputs": [
        {
          "internalType": "address",
          "name": "",
          "type": "address"
        }
      ],
      "stateMutability": "view",
      "type": "function"
    },
    {
      "inputs": [
        {
          "internalType": "address",
          "name": "_managerAddress",
          "type": "address"
        }
      ],
      "name": "addManager",
      "outputs": [],
      "stateMutability": "nonpayable",
      "type": "function"
    },
    {
      "inputs": [
        {
          "internalType": "address",
          "name": "_allowedAddress",
          "type": "address"
        }
      ],
      "name": "addTo725StoreList",
      "outputs": [],
      "stateMutability": "nonpayable",
      "type": "function"
    },
    {
      "inputs": [
        {
          "internalType": "address",
          "name": "_allowedAddress",
          "type": "address"
        }
      ],
      "name": "addToCreateERC20List",
      "outputs": [],
      "stateMutability": "nonpayable",
      "type": "function"
    },
    {
      "inputs": [
        {
          "internalType": "address",
          "name": "_allowedAddress",
          "type": "address"
        }
      ],
      "name": "addToMetadataList",
      "outputs": [],
      "stateMutability": "nonpayable",
      "type": "function"
    },
    {
      "inputs": [
        {
          "internalType": "address",
          "name": "newMinter",
          "type": "address"
        }
      ],
      "name": "addV3Minter",
      "outputs": [],
      "stateMutability": "nonpayable",
      "type": "function"
    },
    {
      "inputs": [
        {
          "internalType": "address",
          "name": "to",
          "type": "address"
        },
        {
          "internalType": "uint256",
          "name": "tokenId",
          "type": "uint256"
        }
      ],
      "name": "approve",
      "outputs": [],
      "stateMutability": "nonpayable",
      "type": "function"
    },
    {
      "inputs": [
        {
          "internalType": "uint256",
          "name": "",
          "type": "uint256"
        }
      ],
      "name": "auth",
      "outputs": [
        {
          "internalType": "address",
          "name": "",
          "type": "address"
        }
      ],
      "stateMutability": "view",
      "type": "function"
    },
    {
      "inputs": [
        {
          "internalType": "address",
          "name": "owner",
          "type": "address"
        }
      ],
      "name": "balanceOf",
      "outputs": [
        {
          "internalType": "uint256",
          "name": "",
          "type": "uint256"
        }
      ],
      "stateMutability": "view",
      "type": "function"
    },
    {
      "inputs": [],
      "name": "cleanPermissions",
      "outputs": [],
      "stateMutability": "nonpayable",
      "type": "function"
    },
    {
      "inputs": [
        {
          "internalType": "string",
          "name": "name_",
          "type": "string"
        },
        {
          "internalType": "string",
          "name": "symbol_",
          "type": "string"
        },
        {
          "internalType": "uint256",
          "name": "cap",
          "type": "uint256"
        },
        {
          "internalType": "uint256",
          "name": "templateIndex",
          "type": "uint256"
        },
        {
          "internalType": "address",
          "name": "minter",
          "type": "address"
        },
        {
          "internalType": "address",
          "name": "feeManager",
          "type": "address"
        }
      ],
      "name": "createERC20",
      "outputs": [
        {
          "internalType": "address",
          "name": "",
          "type": "address"
        }
      ],
      "stateMutability": "nonpayable",
      "type": "function"
    },
    {
      "inputs": [
        {
          "internalType": "uint256",
          "name": "_operation",
          "type": "uint256"
        },
        {
          "internalType": "address",
          "name": "_to",
          "type": "address"
        },
        {
          "internalType": "uint256",
          "name": "_value",
          "type": "uint256"
        },
        {
          "internalType": "bytes",
          "name": "_data",
          "type": "bytes"
        }
      ],
      "name": "executeCall",
      "outputs": [],
      "stateMutability": "payable",
      "type": "function"
    },
    {
      "inputs": [
        {
          "internalType": "uint256",
          "name": "tokenId",
          "type": "uint256"
        }
      ],
      "name": "getApproved",
      "outputs": [
        {
          "internalType": "address",
          "name": "",
          "type": "address"
        }
      ],
      "stateMutability": "view",
      "type": "function"
    },
    {
      "inputs": [
        {
          "internalType": "bytes32",
          "name": "_key",
          "type": "bytes32"
        }
      ],
      "name": "getData",
      "outputs": [
        {
          "internalType": "bytes",
          "name": "_value",
          "type": "bytes"
        }
      ],
      "stateMutability": "view",
      "type": "function"
    },
    {
      "inputs": [
        {
          "internalType": "address",
          "name": "user",
          "type": "address"
        }
      ],
      "name": "getPermissions",
      "outputs": [
        {
          "components": [
            {
              "internalType": "bool",
              "name": "manager",
              "type": "bool"
            },
            {
              "internalType": "bool",
              "name": "deployERC20",
              "type": "bool"
            },
            {
              "internalType": "bool",
              "name": "updateMetadata",
              "type": "bool"
            },
            {
              "internalType": "bool",
              "name": "store",
              "type": "bool"
            },
            {
              "internalType": "bool",
              "name": "v3Minter",
              "type": "bool"
            }
          ],
          "internalType": "struct ERC721RolesAddress.Roles",
          "name": "",
          "type": "tuple"
        }
      ],
      "stateMutability": "view",
      "type": "function"
    },
    {
      "inputs": [
        {
          "internalType": "address",
          "name": "owner",
          "type": "address"
        },
        {
          "internalType": "string",
          "name": "name_",
          "type": "string"
        },
        {
          "internalType": "string",
          "name": "symbol_",
          "type": "string"
        },
        {
          "internalType": "address",
          "name": "metadata",
          "type": "address"
        },
        {
          "internalType": "address",
          "name": "tokenFactory",
          "type": "address"
        },
        {
          "internalType": "bytes",
          "name": "_data",
          "type": "bytes"
        },
        {
          "internalType": "bytes",
          "name": "_flags",
          "type": "bytes"
        }
      ],
      "name": "initialize",
      "outputs": [
        {
          "internalType": "bool",
          "name": "",
          "type": "bool"
        }
      ],
      "stateMutability": "nonpayable",
      "type": "function"
    },
    {
      "inputs": [
        {
          "internalType": "address",
          "name": "owner",
          "type": "address"
        },
        {
          "internalType": "address",
          "name": "operator",
          "type": "address"
        }
      ],
      "name": "isApprovedForAll",
      "outputs": [
        {
          "internalType": "bool",
          "name": "",
          "type": "bool"
        }
      ],
      "stateMutability": "view",
      "type": "function"
    },
    {
      "inputs": [],
      "name": "isInitialized",
      "outputs": [
        {
          "internalType": "bool",
          "name": "",
          "type": "bool"
        }
      ],
      "stateMutability": "view",
      "type": "function"
    },
    {
      "inputs": [
        {
          "internalType": "address",
          "name": "datatoken",
          "type": "address"
        },
        {
          "internalType": "address",
          "name": "to",
          "type": "address"
        },
        {
          "internalType": "uint256",
          "name": "value",
          "type": "uint256"
        }
      ],
      "name": "mintV3DT",
      "outputs": [],
      "stateMutability": "nonpayable",
      "type": "function"
    },
    {
      "inputs": [],
      "name": "name",
      "outputs": [
        {
          "internalType": "string",
          "name": "",
          "type": "string"
        }
      ],
      "stateMutability": "view",
      "type": "function"
    },
    {
      "inputs": [
        {
          "internalType": "uint256",
          "name": "tokenId",
          "type": "uint256"
        }
      ],
      "name": "ownerOf",
      "outputs": [
        {
          "internalType": "address",
          "name": "",
          "type": "address"
        }
      ],
      "stateMutability": "view",
      "type": "function"
    },
    {
      "inputs": [
        {
          "internalType": "address",
          "name": "_allowedAddress",
          "type": "address"
        }
      ],
      "name": "removeFrom725StoreList",
      "outputs": [],
      "stateMutability": "nonpayable",
      "type": "function"
    },
    {
      "inputs": [
        {
          "internalType": "address",
          "name": "_allowedAddress",
          "type": "address"
        }
      ],
      "name": "removeFromCreateERC20List",
      "outputs": [],
      "stateMutability": "nonpayable",
      "type": "function"
    },
    {
      "inputs": [
        {
          "internalType": "address",
          "name": "_allowedAddress",
          "type": "address"
        }
      ],
      "name": "removeFromMetadataList",
      "outputs": [],
      "stateMutability": "nonpayable",
      "type": "function"
    },
    {
      "inputs": [
        {
          "internalType": "address",
          "name": "_managerAddress",
          "type": "address"
        }
      ],
      "name": "removeManager",
      "outputs": [],
      "stateMutability": "nonpayable",
      "type": "function"
    },
    {
      "inputs": [
        {
          "internalType": "address",
          "name": "minter",
          "type": "address"
        }
      ],
      "name": "removeV3Minter",
      "outputs": [],
      "stateMutability": "nonpayable",
      "type": "function"
    },
    {
      "inputs": [
        {
          "internalType": "address",
          "name": "from",
          "type": "address"
        },
        {
          "internalType": "address",
          "name": "to",
          "type": "address"
        },
        {
          "internalType": "uint256",
          "name": "tokenId",
          "type": "uint256"
        }
      ],
      "name": "safeTransferFrom",
      "outputs": [],
      "stateMutability": "nonpayable",
      "type": "function"
    },
    {
      "inputs": [
        {
          "internalType": "address",
          "name": "operator",
          "type": "address"
        },
        {
          "internalType": "bool",
          "name": "approved",
          "type": "bool"
        }
      ],
      "name": "setApprovalForAll",
      "outputs": [],
      "stateMutability": "nonpayable",
      "type": "function"
    },
    {
      "inputs": [
        {
          "internalType": "bytes32",
          "name": "_key",
          "type": "bytes32"
        },
        {
          "internalType": "bytes",
          "name": "_value",
          "type": "bytes"
        }
      ],
      "name": "setDataERC20",
      "outputs": [],
      "stateMutability": "nonpayable",
      "type": "function"
    },
    {
      "inputs": [
        {
          "internalType": "address",
          "name": "datatoken",
          "type": "address"
        },
        {
          "internalType": "bytes",
          "name": "_value",
          "type": "bytes"
        },
        {
          "internalType": "bytes",
          "name": "flags",
          "type": "bytes"
        },
        {
          "internalType": "bytes",
          "name": "data",
          "type": "bytes"
        }
      ],
      "name": "setDataV3",
      "outputs": [],
      "stateMutability": "nonpayable",
      "type": "function"
    },
    {
      "inputs": [
        {
          "internalType": "bytes32",
          "name": "_key",
          "type": "bytes32"
        },
        {
          "internalType": "bytes",
          "name": "_value",
          "type": "bytes"
        }
      ],
      "name": "setNewData",
      "outputs": [],
      "stateMutability": "nonpayable",
      "type": "function"
    },
    {
      "inputs": [],
      "name": "ssContract",
      "outputs": [
        {
          "internalType": "address",
          "name": "",
          "type": "address"
        }
      ],
      "stateMutability": "view",
      "type": "function"
    },
    {
      "inputs": [
        {
          "internalType": "bytes4",
          "name": "interfaceId",
          "type": "bytes4"
        }
      ],
      "name": "supportsInterface",
      "outputs": [
        {
          "internalType": "bool",
          "name": "",
          "type": "bool"
        }
      ],
      "stateMutability": "view",
      "type": "function"
    },
    {
      "inputs": [],
      "name": "symbol",
      "outputs": [
        {
          "internalType": "string",
          "name": "",
          "type": "string"
        }
      ],
      "stateMutability": "view",
      "type": "function"
    },
    {
      "inputs": [
        {
          "internalType": "uint256",
          "name": "tokenId",
          "type": "uint256"
        }
      ],
      "name": "tokenURI",
      "outputs": [
        {
          "internalType": "string",
          "name": "",
          "type": "string"
        }
      ],
      "stateMutability": "view",
      "type": "function"
    },
    {
      "inputs": [
        {
          "internalType": "address",
          "name": "from",
          "type": "address"
        },
        {
          "internalType": "address",
          "name": "to",
          "type": "address"
        },
        {
          "internalType": "uint256",
          "name": "tokenId",
          "type": "uint256"
        }
      ],
      "name": "transferFrom",
      "outputs": [],
      "stateMutability": "nonpayable",
      "type": "function"
    },
    {
      "inputs": [
        {
          "internalType": "bytes",
          "name": "flags",
          "type": "bytes"
        },
        {
          "internalType": "bytes",
          "name": "data",
          "type": "bytes"
        }
      ],
      "name": "updateMetadata",
      "outputs": [],
      "stateMutability": "nonpayable",
      "type": "function"
    },
    {
      "inputs": [
        {
          "internalType": "address",
          "name": "",
          "type": "address"
        }
      ],
      "name": "v3DT",
      "outputs": [
        {
          "internalType": "bool",
          "name": "",
          "type": "bool"
        }
      ],
      "stateMutability": "view",
      "type": "function"
    },
    {
      "inputs": [
        {
          "internalType": "address",
          "name": "datatoken",
          "type": "address"
        },
        {
          "internalType": "address",
          "name": "newMinter",
          "type": "address"
        }
      ],
      "name": "wrapV3DT",
      "outputs": [],
      "stateMutability": "nonpayable",
      "type": "function"
    }
  ],
  "bytecode": "0x60806040523480156200001157600080fd5b50604080518082018252600881526754656d706c61746560c01b60208083019182528351808501909452600e84526d15195b5c1b185d1954de5b589bdb60921b908401528151919291620000689160009162000108565b5080516200007e90600190602084019062000108565b50620000959150632260147f60e11b9050620000ad565b620000a7632bd57b7360e01b620000ad565b62000222565b6001600160e01b03198082161415620000e35760405162461bcd60e51b8152600401620000da90620001ae565b60405180910390fd5b6001600160e01b0319166000908152600860205260409020805460ff19166001179055565b8280546200011690620001e5565b90600052602060002090601f0160209004810192826200013a576000855562000185565b82601f106200015557805160ff191683800117855562000185565b8280016001018555821562000185579182015b828111156200018557825182559160200191906001019062000168565b506200019392915062000197565b5090565b5b8082111562000193576000815560010162000198565b6020808252601c908201527f4552433136353a20696e76616c696420696e7465726661636520696400000000604082015260600190565b600281046001821680620001fa57607f821691505b602082108114156200021c57634e487b7160e01b600052602260045260246000fd5b50919050565b613ca780620002326000396000f3fe60806040526004361061023b5760003560e01c80634b2ee5e91161012e578063a22cb465116100ab578063c87b56dd1161006f578063c87b56dd1461069d578063cf763120146106bd578063ddd0af5b146106dd578063e985e9c5146106f2578063fe1ec880146107125761023b565b8063a22cb4651461060a578063ac18de431461062a578063b0c41ead1461064a578063b4d070231461066a578063c55f81261461068a5761023b565b806370a08231116100f257806370a08231146105685780637db0f56d14610595578063819172d9146105b557806395d89b41146105d55780639e753293146105ea5761023b565b80634b2ee5e9146104de5780634f189cb2146104f357806354f6127f146105085780636352211e1461052857806367530a61146105485761023b565b8063273e06b3116101bc57806339371b251161018057806339371b251461044957806342842e0e1461045e57806342c914c81461047e578063431053ac1461049e5780634a63740a146104be5761023b565b8063273e06b3146103b45780632748a9f9146103d45780632b940806146103f45780632d06177a14610414578063392e53cd146104345761023b565b806310c558bf1161020357806310c558bf14610307578063160a79251461032757806319c186e5146103545780631b1de75c1461037457806323b872dd146103945761023b565b806301ffc9a71461024057806306fdde0314610276578063081812fc14610298578063095ea7b3146102c55780630e57c7e8146102e7575b600080fd5b34801561024c57600080fd5b5061026061025b366004612d06565b610732565b60405161026d9190613047565b60405180910390f35b34801561028257600080fd5b5061028b610769565b60405161026d919061306f565b3480156102a457600080fd5b506102b86102b3366004612ca4565b6107fb565b60405161026d9190612f57565b3480156102d157600080fd5b506102e56102e0366004612c79565b610847565b005b3480156102f357600080fd5b506102e5610302366004612cbc565b6108df565b34801561031357600080fd5b506102e56103223660046129f7565b61091e565b34801561033357600080fd5b506103476103423660046129f7565b6109a7565b60405161026d9190613add565b34801561036057600080fd5b506102e561036f3660046129f7565b610a23565b34801561038057600080fd5b5061026061038f3660046129f7565b610aae565b3480156103a057600080fd5b506102e56103af366004612a67565b610ac3565b3480156103c057600080fd5b506102e56103cf3660046129f7565b610b6a565b3480156103e057600080fd5b506102e56103ef366004612a67565b610bc2565b34801561040057600080fd5b506102e561040f366004612ad8565b610c6c565b34801561042057600080fd5b506102e561042f3660046129f7565b610d5f565b34801561044057600080fd5b50610260610da5565b34801561045557600080fd5b506102b8610dae565b34801561046a57600080fd5b506102e5610479366004612a67565b610dc2565b34801561048a57600080fd5b506102e5610499366004612d3e565b610ddd565b3480156104aa57600080fd5b506102e56104b93660046129f7565b610eb6565b3480156104ca57600080fd5b506102e56104d93660046129f7565b610f0d565b3480156104ea57600080fd5b506102b8610f94565b3480156104ff57600080fd5b506102e5610fa3565b34801561051457600080fd5b5061028b610523366004612ca4565b610fe7565b34801561053457600080fd5b506102b8610543366004612ca4565b611089565b34801561055457600080fd5b506102e5610563366004612cbc565b6110be565b34801561057457600080fd5b506105886105833660046129f7565b6110f9565b60405161026d9190613052565b3480156105a157600080fd5b506102606105b0366004612b81565b61113d565b3480156105c157600080fd5b506102e56105d03660046129f7565b611234565b3480156105e157600080fd5b5061028b611271565b3480156105f657600080fd5b506102e56106053660046129f7565b611280565b34801561061657600080fd5b506102e5610625366004612aa7565b6112bd565b34801561063657600080fd5b506102e56106453660046129f7565b61138b565b34801561065657600080fd5b506102b8610665366004612ca4565b6113ce565b34801561067657600080fd5b506102b8610685366004612da7565b6113f8565b6102e5610698366004612e4d565b61155e565b3480156106a957600080fd5b5061028b6106b8366004612ca4565b6115a6565b3480156106c957600080fd5b506102e56106d8366004612a2f565b611629565b3480156106e957600080fd5b50610588611679565b3480156106fe57600080fd5b5061026061070d366004612a2f565b61169d565b34801561071e57600080fd5b506102e561072d3660046129f7565b6116cb565b600061073d82611721565b8061076157506001600160e01b0319821660009081526008602052604090205460ff165b90505b919050565b6060600b805461077890613b90565b80601f01602080910402602001604051908101604052809291908181526020018280546107a490613b90565b80156107f15780601f106107c6576101008083540402835291602001916107f1565b820191906000526020600020905b8154815290600101906020018083116107d457829003601f168201915b5050505050905090565b60006108068261173a565b61082b5760405162461bcd60e51b81526004016108229061373c565b60405180910390fd5b506000908152600460205260409020546001600160a01b031690565b600061085282611089565b9050806001600160a01b0316836001600160a01b031614156108865760405162461bcd60e51b81526004016108229061389b565b806001600160a01b0316610898611757565b6001600160a01b031614806108b457506108b48161070d611757565b6108d05760405162461bcd60e51b81526004016108229061344d565b6108da838361175b565b505050565b3360009081526011602052604090205460ff1615156001146109135760405162461bcd60e51b81526004016108229061340b565b6108da8383836117c9565b3360009081526006602052604090205460ff1615156001146109525760405162461bcd60e51b815260040161082290613a28565b6001600160a01b03166000818152600660205260408120805462ff0000191662010000179055600780546001810182559152600080516020613c528339815191520180546001600160a01b0319169091179055565b6109af61284c565b506001600160a01b0316600090815260066020908152604091829020825160a081018452905460ff8082161515835261010082048116151593830193909352620100008104831615159382019390935263010000008304821615156060820152640100000000909204161515608082015290565b3360009081526006602052604090205460ff161515600114610a575760405162461bcd60e51b815260040161082290613a28565b6001600160a01b03166000818152600660205260408120805463ff00000019166301000000179055600780546001810182559152600080516020613c528339815191520180546001600160a01b0319169091179055565b600a6020526000908152604090205460ff1681565b80600114610ae35760405162461bcd60e51b81526004016108229061384f565b610b4e610b49600f805480602002602001604051908101604052809291908181526020018280548015610b3f57602002820191906000526020600020905b81546001600160a01b03168152600190910190602001808311610b21575b5050505050611822565b611826565b610b566118c5565b610b61838383611949565b6108da82611976565b3360009081526006602052604090205460ff161515600114610b9e5760405162461bcd60e51b815260040161082290613a28565b6001600160a01b03166000908152600660205260409020805463ff00000019169055565b33600090815260066020526040902054640100000000900460ff161515600114610bfe5760405162461bcd60e51b8152600401610822906134aa565b610c07836119ca565b6040516340c10f1960e01b81526001600160a01b038416906340c10f1990610c35908590859060040161302e565b600060405180830381600087803b158015610c4f57600080fd5b505af1158015610c63573d6000803e3d6000fd5b50505050505050565b33600090815260066020526040902054640100000000900460ff161515600114610ca85760405162461bcd60e51b81526004016108229061311b565b610cb1876119ca565b600087604051602001610cc49190612f0b565b604051602081830303815290604052805190602001209050610ce78188886117c9565b600d54604051637c4d8f9b60e11b81526101009091046001600160a01b03169063f89b1f3690610d23908b908990899089908990600401612fa8565b600060405180830381600087803b158015610d3d57600080fd5b505af1158015610d51573d6000803e3d6000fd5b505050505050505050505050565b610d696001611089565b6001600160a01b0316336001600160a01b031614610d995760405162461bcd60e51b815260040161082290613251565b610da281611976565b50565b600d5460ff1690565b600d5461010090046001600160a01b031681565b6108da83838360405180602001604052806000815250611a07565b3360009081526006602052604090205462010000900460ff161515600114610e175760405162461bcd60e51b815260040161082290613152565b600d54604051637c4d8f9b60e11b81526101009091046001600160a01b03169063f89b1f3690610e539030908890889088908890600401612fa8565b600060405180830381600087803b158015610e6d57600080fd5b505af1158015610e81573d6000803e3d6000fd5b50505050610eb07fa063f3cd8b0dcd6546ffc1c06fc86515c40fe331e91488c5e18c88c7efc881e883836117c9565b50505050565b3360009081526006602052604090205460ff161515600114610eea5760405162461bcd60e51b815260040161082290613a28565b6001600160a01b03166000908152600660205260409020805462ff000019169055565b3360009081526006602052604090205460ff161515600114610f415760405162461bcd60e51b815260040161082290613a28565b6001600160a01b03166000818152600660205260408120805461ff001916610100179055600780546001810182559152600080516020613c528339815191520180546001600160a01b0319169091179055565b6010546001600160a01b031681565b610fad6001611089565b6001600160a01b0316336001600160a01b031614610fdd5760405162461bcd60e51b815260040161082290613251565b610fe56118c5565b565b600081815260096020526040902080546060919061100490613b90565b80601f016020809104026020016040519081016040528092919081815260200182805461103090613b90565b801561107d5780601f106110525761010080835404028352916020019161107d565b820191906000526020600020905b81548152906001019060200180831161106057829003601f168201915b50505050509050919050565b6000818152600260205260408120546001600160a01b0316806107615760405162461bcd60e51b815260040161082290613573565b336000908152600660205260409020546301000000900460ff1615156001146109135760405162461bcd60e51b8152600401610822906130da565b60006001600160a01b0382166111215760405162461bcd60e51b815260040161082290613529565b506001600160a01b031660009081526003602052604090205490565b600d5460009060ff16156111635760405162461bcd60e51b8152600401610822906139d6565b6112248c8c8c8080601f016020809104026020016040519081016040528093929190818152602001838380828437600081840152601f19601f820116905080830192505050505050508b8b8080601f01602080910402602001604051908101604052809392919081815260200183838082843760009201919091525050604080516020601f8b018190048102820181019092528981528e93508d92508c918c91908c908c9081908401838280828437600092019190915250611a4092505050565b9c9b505050505050505050505050565b3360009081526006602052604090205460ff1615156001146112685760405162461bcd60e51b815260040161082290613a28565b610da281611b30565b6060600c805461077890613b90565b3360009081526006602052604090205460ff1615156001146112b45760405162461bcd60e51b815260040161082290613a28565b610da281611b89565b6112c5611757565b6001600160a01b0316826001600160a01b031614156112f65760405162461bcd60e51b8152600401610822906132cc565b8060056000611303611757565b6001600160a01b03908116825260208083019390935260409182016000908120918716808252919093529120805460ff191692151592909217909155611347611757565b6001600160a01b03167f17307eab39ab6107e8899845ad3d59bd9653f200f220920489ca2b5937696c318360405161137f9190613047565b60405180910390a35050565b6113956001611089565b6001600160a01b0316336001600160a01b0316146113c55760405162461bcd60e51b815260040161082290613251565b610da281611bae565b600781815481106113de57600080fd5b6000918252602090912001546001600160a01b0316905081565b3360009081526006602052604081205460ff6101009091041615156001146114325760405162461bcd60e51b815260040161082290613303565b600e546040516373ecb34760e01b81526000916001600160a01b0316906373ecb34790611471908d908d908d908d908d908d908d908d90600401613082565b602060405180830381600087803b15801561148b57600080fd5b505af115801561149f573d6000803e3d6000fd5b505050506040513d601f19601f820116820180604052508101906114c39190612a13565b6001600160a01b038116600081815260116020526040808220805460ff19166001908117909155600f8054918201815583527f8d1108e10bcb7c27dddfc02ed9d693a074039d026cf4ea4240b40f7d581ac8020180546001600160a01b031916841790555192935090917f41039c8b82bb5a365f56b4f9d87cee99e069b450bfdc3d87696fcd87783f24c19190a29998505050505050505050565b3360009081526006602052604090205460ff1615156001146115925760405162461bcd60e51b815260040161082290613a28565b61159f8585858585611bcf565b5050505050565b60606115b18261173a565b6115cd5760405162461bcd60e51b815260040161082290613800565b60006115d7611dd1565b905060008151116115f75760405180602001604052806000815250611622565b8061160184611de3565b604051602001611612929190612f28565b6040516020818303038152906040525b9392505050565b6116336001611089565b6001600160a01b0316336001600160a01b0316146116635760405162461bcd60e51b815260040161082290613251565b61166c82611f06565b61167581611b30565b5050565b7fa063f3cd8b0dcd6546ffc1c06fc86515c40fe331e91488c5e18c88c7efc881e881565b6001600160a01b03918216600090815260056020908152604080832093909416825291909152205460ff1690565b3360009081526006602052604090205460ff1615156001146116ff5760405162461bcd60e51b815260040161082290613a28565b6001600160a01b03166000908152600660205260409020805461ff0019169055565b6001600160e01b031981166301ffc9a760e01b14919050565b6000908152600260205260409020546001600160a01b0316151590565b3390565b600081815260046020526040902080546001600160a01b0319166001600160a01b038416908117909155819061179082611089565b6001600160a01b03167f8c5be1e5ebec7d5bd14f71427d1e84f3dd0314c0f7b2291e5b200ac8c7c3b92560405160405180910390a45050565b60008381526009602052604090206117e290838361287a565b50827fece574603820d07bc9b91f2a932baadf4628aabcb8afba49776529c14a6104b2838360405161181592919061305b565b60405180910390a2505050565b5190565b60005b8181101561167557600f818154811061185257634e487b7160e01b600052603260045260246000fd5b6000918252602082200154604080516382c03da560e01b815290516001600160a01b03909216926382c03da59260048084019382900301818387803b15801561189a57600080fd5b505af11580156118ae573d6000803e3d6000fd5b5050505080806118bd90613bcb565b915050611829565b60005b60075481101561193c57600060066000600784815481106118f957634e487b7160e01b600052603260045260246000fd5b60009182526020808320909101546001600160a01b031683528201929092526040019020805464ffffffffff19169055508061193481613bcb565b9150506118c8565b50610fe5600760006128fe565b61195a611954611757565b826120ef565b610dc25760405162461bcd60e51b81526004016108229061390a565b6001600160a01b03166000818152600660205260408120805460ff19166001908117909155600780549182018155909152600080516020613c528339815191520180546001600160a01b0319169091179055565b6001600160a01b0381166000908152600a602052604090205460ff161515600114610da25760405162461bcd60e51b815260040161082290613a5f565b611a18611a12611757565b836120ef565b611a345760405162461bcd60e51b81526004016108229061390a565b610eb08484848461216c565b60006001600160a01b038916611a685760405162461bcd60e51b815260040161082290613349565b6001600160a01b038616611a8e5760405162461bcd60e51b815260040161082290613986565b600d8054610100600160a81b0319166101006001600160a01b038916021790558751611ac190600b9060208b019061291c565b508651611ad590600c9060208a019061291c565b50600e80546001600160a01b0319166001600160a01b038716179055600d805460ff19166001179055611b0982858561219f565b611b148960016122de565b611b1d89611976565b50600d5460ff1698975050505050505050565b6001600160a01b03166000818152600660205260408120805464ff000000001916640100000000179055600780546001810182559152600080516020613c528339815191520180546001600160a01b0319169091179055565b6001600160a01b03166000908152600660205260409020805464ff0000000019169055565b6001600160a01b03166000908152600660205260409020805460ff19169055565b82846001600160a01b0316867f1f920dbda597d7bf95035464170fa58d0a4b57f13a1c315ace6793b9f63688b88585604051611c0c92919061305b565b60405180910390a460006109c45a611c249190613b4d565b905085611c7457611c6e858585858080601f0160208091040260200160405190810160405280939291908181526020018383808284376000920191909152508792506122f8915050565b50611dc9565b6003861415611cbd57611c6e8484848080601f01602080910402602001604051908101604052809392919081815260200183838082843760009201919091525061231092505050565b6002861415611db1576000611d1484848080601f016020809104026020016040519081016040528093929190818152602001838380828437600092019190915250611d0f925060209150879050613b4d565b61237c565b90506000611d6385858080601f01602080910402602001604051908101604052809392919081815260200183838082843760009201829052509250611d5e91506020905088613b4d565b6123b2565b90506000611d7287848461247a565b6040519091506001600160a01b038216907fcf78cf0d6f3d8371e1075c69c492ab4ec5d8cf23a1a239b6a51a1d00be7ca31290600090a2505050611dc9565b60405162461bcd60e51b8152600401610822906138dc565b505050505050565b60408051602081019091526000815290565b606081611e0857506040805180820190915260018152600360fc1b6020820152610764565b8160005b8115611e325780611e1c81613bcb565b9150611e2b9050600a83613b39565b9150611e0c565b60008167ffffffffffffffff811115611e5b57634e487b7160e01b600052604160045260246000fd5b6040519080825280601f01601f191660200182016040528015611e85576020820181803683370190505b5090505b8415611efe57611e9a600183613b4d565b9150611ea7600a86613be6565b611eb2906030613b21565b60f81b818381518110611ed557634e487b7160e01b600052603260045260246000fd5b60200101906001600160f81b031916908160001a905350611ef7600a86613b39565b9450611e89565b949350505050565b336001600160a01b0316816001600160a01b031663075461726040518163ffffffff1660e01b815260040160206040518083038186803b158015611f4957600080fd5b505afa158015611f5d573d6000803e3d6000fd5b505050506040513d601f19601f82011682018060405250810190611f819190612a13565b6001600160a01b031614611fa75760405162461bcd60e51b8152600401610822906136b9565b6001600160a01b0381166000908152600a602052604090205460ff1615611fe05760405162461bcd60e51b815260040161082290613628565b6001600160a01b0381166000818152600a6020526040808220805460ff19166001179055805163eb40024b60e01b8152905163eb40024b9260048084019391929182900301818387803b15801561203657600080fd5b505af115801561204a573d6000803e3d6000fd5b50505050306001600160a01b0316816001600160a01b031663075461726040518163ffffffff1660e01b815260040160206040518083038186803b15801561209157600080fd5b505afa1580156120a5573d6000803e3d6000fd5b505050506040513d601f19601f820116820180604052508101906120c99190612a13565b6001600160a01b031614610da25760405162461bcd60e51b8152600401610822906134e1565b60006120fa8261173a565b6121165760405162461bcd60e51b815260040161082290613397565b600061212183611089565b9050806001600160a01b0316846001600160a01b0316148061215c5750836001600160a01b0316612151846107fb565b6001600160a01b0316145b80611efe5750611efe818561169d565b6121778484846124ec565b61218384848484612619565b610eb05760405162461bcd60e51b8152600401610822906131c8565b600e5460405163072f670f60e41b815230916001600160a01b0316906372f670f0906121cf908490600401612f57565b602060405180830381600087803b1580156121e957600080fd5b505af11580156121fd573d6000803e3d6000fd5b505050506040513d601f19601f820116820180604052508101906122219190612a13565b6001600160a01b0316146122475760405162461bcd60e51b815260040161082290613674565b600d5460405163209d0e0560e21b81526101009091046001600160a01b031690638274381490612281903090879087908790600401612fec565b600060405180830381600087803b15801561229b57600080fd5b505af11580156122af573d6000803e3d6000fd5b505050506108da7fa063f3cd8b0dcd6546ffc1c06fc86515c40fe331e91488c5e18c88c7efc881e883836117c9565b611675828260405180602001604052806000815250612734565b6000806000845160208601878987f195945050505050565b600081516020830184f090506001600160a01b0381166123425760405162461bcd60e51b815260040161082290613705565b6040516001600160a01b038216907fcf78cf0d6f3d8371e1075c69c492ab4ec5d8cf23a1a239b6a51a1d00be7ca31290600090a292915050565b6000612389826020613b21565b835110156123a95760405162461bcd60e51b815260040161082290613788565b50016020015190565b6060816123c081601f613b21565b10156123de5760405162461bcd60e51b8152600401610822906133e3565b6123e88284613b21565b845110156124085760405162461bcd60e51b81526004016108229061395b565b6060821580156124275760405191506000825260208201604052612471565b6040519150601f8416801560200281840101858101878315602002848b0101015b81831015612460578051835260209283019201612448565b5050858452601f01601f1916604052505b50949350505050565b6000808447101561249d5760405162461bcd60e51b815260040161082290613aa6565b82516124bb5760405162461bcd60e51b815260040161082290613193565b8383516020850187f590506001600160a01b038116611efe5760405162461bcd60e51b8152600401610822906135bc565b826001600160a01b03166124ff82611089565b6001600160a01b0316146125255760405162461bcd60e51b8152600401610822906137b7565b6001600160a01b03821661254b5760405162461bcd60e51b815260040161082290613288565b6125568383836108da565b61256160008261175b565b6001600160a01b038316600090815260036020526040812080546001929061258a908490613b4d565b90915550506001600160a01b03821660009081526003602052604081208054600192906125b8908490613b21565b909155505060008181526002602052604080822080546001600160a01b0319166001600160a01b0386811691821790925591518493918716917fddf252ad1be2c89b69c2b068fc378daa952ba7f163c4a11628f55a4df523b3ef91a4505050565b600061262d846001600160a01b0316612767565b1561272957836001600160a01b031663150b7a02612649611757565b8786866040518563ffffffff1660e01b815260040161266b9493929190612f6b565b602060405180830381600087803b15801561268557600080fd5b505af19250505080156126b5575060408051601f3d908101601f191682019092526126b291810190612d22565b60015b61270f573d8080156126e3576040519150601f19603f3d011682016040523d82523d6000602084013e6126e8565b606091505b5080516127075760405162461bcd60e51b8152600401610822906131c8565b805181602001fd5b6001600160e01b031916630a85bd0160e11b149050611efe565b506001949350505050565b61273e838361276d565b61274b6000848484612619565b6108da5760405162461bcd60e51b8152600401610822906131c8565b3b151590565b6001600160a01b0382166127935760405162461bcd60e51b8152600401610822906135f3565b61279c8161173a565b156127b95760405162461bcd60e51b81526004016108229061321a565b6127c5600083836108da565b6001600160a01b03821660009081526003602052604081208054600192906127ee908490613b21565b909155505060008181526002602052604080822080546001600160a01b0319166001600160a01b03861690811790915590518392907fddf252ad1be2c89b69c2b068fc378daa952ba7f163c4a11628f55a4df523b3ef908290a45050565b6040805160a08101825260008082526020820181905291810182905260608101829052608081019190915290565b82805461288690613b90565b90600052602060002090601f0160209004810192826128a857600085556128ee565b82601f106128c15782800160ff198235161785556128ee565b828001600101855582156128ee579182015b828111156128ee5782358255916020019190600101906128d3565b506128fa929150612990565b5090565b5080546000825590600052602060002090810190610da29190612990565b82805461292890613b90565b90600052602060002090601f01602090048101928261294a57600085556128ee565b82601f1061296357805160ff19168380011785556128ee565b828001600101855582156128ee579182015b828111156128ee578251825591602001919060010190612975565b5b808211156128fa5760008155600101612991565b803561076481613c26565b60008083601f8401126129c1578182fd5b50813567ffffffffffffffff8111156129d8578182fd5b6020830191508360208285010111156129f057600080fd5b9250929050565b600060208284031215612a08578081fd5b813561162281613c26565b600060208284031215612a24578081fd5b815161162281613c26565b60008060408385031215612a41578081fd5b8235612a4c81613c26565b91506020830135612a5c81613c26565b809150509250929050565b600080600060608486031215612a7b578081fd5b8335612a8681613c26565b92506020840135612a9681613c26565b929592945050506040919091013590565b60008060408385031215612ab9578182fd5b8235612ac481613c26565b915060208301358015158114612a5c578182fd5b60008060008060008060006080888a031215612af2578283fd5b8735612afd81613c26565b9650602088013567ffffffffffffffff80821115612b19578485fd5b612b258b838c016129b0565b909850965060408a0135915080821115612b3d578485fd5b612b498b838c016129b0565b909650945060608a0135915080821115612b61578384fd5b50612b6e8a828b016129b0565b989b979a50959850939692959293505050565b600080600080600080600080600080600060e08c8e031215612ba1578384fd5b612baa8c6129a5565b9a5067ffffffffffffffff8060208e01351115612bc5578485fd5b612bd58e60208f01358f016129b0565b909b50995060408d0135811015612bea578485fd5b612bfa8e60408f01358f016129b0565b9099509750612c0b60608e016129a5565b9650612c1960808e016129a5565b95508060a08e01351115612c2b578485fd5b612c3b8e60a08f01358f016129b0565b909550935060c08d0135811015612c50578283fd5b50612c618d60c08e01358e016129b0565b81935080925050509295989b509295989b9093969950565b60008060408385031215612c8b578182fd5b8235612c9681613c26565b946020939093013593505050565b600060208284031215612cb5578081fd5b5035919050565b600080600060408486031215612cd0578283fd5b83359250602084013567ffffffffffffffff811115612ced578283fd5b612cf9868287016129b0565b9497909650939450505050565b600060208284031215612d17578081fd5b813561162281613c3b565b600060208284031215612d33578081fd5b815161162281613c3b565b60008060008060408587031215612d53578182fd5b843567ffffffffffffffff80821115612d6a578384fd5b612d76888389016129b0565b90965094506020870135915080821115612d8e578384fd5b50612d9b878288016129b0565b95989497509550505050565b60008060008060008060008060c0898b031215612dc2578182fd5b883567ffffffffffffffff80821115612dd9578384fd5b612de58c838d016129b0565b909a50985060208b0135915080821115612dfd578384fd5b50612e0a8b828c016129b0565b90975095505060408901359350606089013592506080890135612e2c81613c26565b915060a0890135612e3c81613c26565b809150509295985092959890939650565b600080600080600060808688031215612e64578283fd5b853594506020860135612e7681613c26565b935060408601359250606086013567ffffffffffffffff811115612e98578182fd5b612ea4888289016129b0565b969995985093965092949392505050565b60008284528282602086013780602084860101526020601f19601f85011685010190509392505050565b60008151808452612ef7816020860160208601613b64565b601f01601f19169290920160200192915050565b60609190911b6bffffffffffffffffffffffff1916815260140190565b60008351612f3a818460208801613b64565b835190830190612f4e818360208801613b64565b01949350505050565b6001600160a01b0391909116815260200190565b6001600160a01b0385811682528416602082015260408101839052608060608201819052600090612f9e90830184612edf565b9695505050505050565b6001600160a01b0386168152606060208201819052600090612fcd9083018688612eb5565b8281036040840152612fe0818587612eb5565b98975050505050505050565b6001600160a01b038516815260606020820181905260009061301090830186612edf565b8281036040840152613023818587612eb5565b979650505050505050565b6001600160a01b03929092168252602082015260400190565b901515815260200190565b90815260200190565b600060208252611efe602083018486612eb5565b6000602082526116226020830184612edf565b600060c0825261309660c083018a8c612eb5565b82810360208401526130a981898b612eb5565b6040840197909752505060608101939093526001600160a01b0391821660808401521660a090910152949350505050565b60208082526021908201527f45524337323154656d706c6174653a204e4f542053544f5245205550444154456040820152602960f91b606082015260800190565b6020808252601c908201527f45524337323154656d706c6174653a204e4f542076334d696e74657200000000604082015260600190565b60208082526021908201527f45524337323154656d706c6174653a204e4f54204d455441444154415f524f4c6040820152604560f81b606082015260800190565b6020808252818101527f437265617465323a2062797465636f6465206c656e677468206973207a65726f604082015260600190565b60208082526032908201527f4552433732313a207472616e7366657220746f206e6f6e20455243373231526560408201527131b2b4bb32b91034b6b83632b6b2b73a32b960711b606082015260800190565b6020808252601c908201527f4552433732313a20746f6b656e20616c7265616479206d696e74656400000000604082015260600190565b6020808252601c908201527f45524337323154656d706c6174653a206e6f74204e46544f776e657200000000604082015260600190565b60208082526024908201527f4552433732313a207472616e7366657220746f20746865207a65726f206164646040820152637265737360e01b606082015260800190565b60208082526019908201527f4552433732313a20617070726f766520746f2063616c6c657200000000000000604082015260600190565b60208082526026908201527f45524337323154656d706c6174653a204e4f542045524332304445504c4f5945604082015265525f524f4c4560d01b606082015260800190565b6020808252602e908201527f45524337323154656d706c6174653a3a20496e76616c6964206d696e7465722c60408201526d20207a65726f206164647265737360901b606082015260800190565b6020808252602c908201527f4552433732313a206f70657261746f7220717565727920666f72206e6f6e657860408201526b34b9ba32b73a103a37b5b2b760a11b606082015260800190565b6020808252600e908201526d736c6963655f6f766572666c6f7760901b604082015260600190565b60208082526022908201527f45524337323154656d706c6174653a204e4f5420455243323020436f6e74726160408201526118dd60f21b606082015260800190565b60208082526038908201527f4552433732313a20617070726f76652063616c6c6572206973206e6f74206f7760408201527f6e6572206e6f7220617070726f76656420666f7220616c6c0000000000000000606082015260800190565b6020808252601d908201527f45524337323154656d706c6174653a204e4f54207633204d494e544552000000604082015260600190565b60208082526028908201527f45524337323154656d706c6174653a204641494c454420544f20534554204e456040820152672b9026a4a72a22a960c11b606082015260800190565b6020808252602a908201527f4552433732313a2062616c616e636520717565727920666f7220746865207a65604082015269726f206164647265737360b01b606082015260800190565b60208082526029908201527f4552433732313a206f776e657220717565727920666f72206e6f6e657869737460408201526832b73a103a37b5b2b760b91b606082015260800190565b60208082526019908201527f437265617465323a204661696c6564206f6e206465706c6f7900000000000000604082015260600190565b6020808252818101527f4552433732313a206d696e7420746f20746865207a65726f2061646472657373604082015260600190565b6020808252602c908201527f45524337323154656d706c6174653a2056332064617461746f6b656e20616c7260408201526b1958591e481ddc985c1c195960a21b606082015260800190565b60208082526025908201527f45524337323154656d706c6174653a204e4f54204f524947494e414c2054454d604082015264504c41544560d81b606082015260800190565b6020808252602c908201527f45524337323154656d706c6174653a204e4f542045524332302056332064617460408201526b30ba37b5b2b71037bbb732b960a11b606082015260800190565b60208082526019908201527f436f756c64206e6f74206465706c6f7920636f6e747261637400000000000000604082015260600190565b6020808252602c908201527f4552433732313a20617070726f76656420717565727920666f72206e6f6e657860408201526b34b9ba32b73a103a37b5b2b760a11b606082015260800190565b602080825260159082015274746f427974657333325f6f75744f66426f756e647360581b604082015260600190565b60208082526029908201527f4552433732313a207472616e73666572206f6620746f6b656e2074686174206960408201526839903737ba1037bbb760b91b606082015260800190565b6020808252602f908201527f4552433732314d657461646174613a2055524920717565727920666f72206e6f60408201526e3732bc34b9ba32b73a103a37b5b2b760891b606082015260800190565b6020808252602c908201527f45524337323154656d706c6174653a2043616e6e6f74207472616e736665722060408201526b1d1a1a5cc81d1bdad95b925960a21b606082015260800190565b60208082526021908201527f4552433732313a20617070726f76616c20746f2063757272656e74206f776e656040820152603960f91b606082015260800190565b60208082526014908201527357726f6e67206f7065726174696f6e207479706560601b604082015260600190565b60208082526031908201527f4552433732313a207472616e736665722063616c6c6572206973206e6f74206f6040820152701ddb995c881b9bdc88185c1c1c9bdd9959607a1b606082015260800190565b602080825260119082015270736c6963655f6f75744f66426f756e647360781b604082015260600190565b60208082526030908201527f45524337323154656d706c6174653a3a204d657461646174612061646472657360408201526f732063616e6e6f74206265207a65726f60801b606082015260800190565b60208082526032908201527f45524337323154656d706c6174653a20746f6b656e20696e7374616e636520616040820152711b1c9958591e481a5b9a5d1a585b1a5e995960721b606082015260800190565b6020808252601f908201527f455243373231526f6c6573416464726573733a204e4f54204d414e4147455200604082015260600190565b60208082526027908201527f45524337323154656d706c6174653a20763344617461746f6b656e206e6f742060408201526615d4905414115160ca1b606082015260800190565b6020808252601d908201527f437265617465323a20696e73756666696369656e742062616c616e6365000000604082015260600190565b600060a08201905082511515825260208301511515602083015260408301511515604083015260608301511515606083015260808301511515608083015292915050565b60008219821115613b3457613b34613bfa565b500190565b600082613b4857613b48613c10565b500490565b600082821015613b5f57613b5f613bfa565b500390565b60005b83811015613b7f578181015183820152602001613b67565b83811115610eb05750506000910152565b600281046001821680613ba457607f821691505b60208210811415613bc557634e487b7160e01b600052602260045260246000fd5b50919050565b6000600019821415613bdf57613bdf613bfa565b5060010190565b600082613bf557613bf5613c10565b500690565b634e487b7160e01b600052601160045260246000fd5b634e487b7160e01b600052601260045260246000fd5b6001600160a01b0381168114610da257600080fd5b6001600160e01b031981168114610da257600080fdfea66cc928b5edb82af9bd49922954155ab7b0942694bea4ce44661d9a8736c688a2646970667358221220c74b7ee4846592c95c1719f2143d64ab5cdce308b1e67483d54a24e0df897d9064736f6c63430008000033",
  "linkReferences": {},
  "deployedLinkReferences": {}
}