{
  "_format": "hh-sol-artifact-1",
  "contractName": "DFStrategyV1",
  "sourceName": "contracts/df/DFStrategyV1.sol",
  "abi": [
    {
      "inputs": [
        {
          "internalType": "address",
          "name": "_dfrewards",
          "type": "address"
        }
      ],
      "stateMutability": "nonpayable",
      "type": "constructor"
    },
    {
      "inputs": [
        {
          "internalType": "address[]",
          "name": "tokenAddresses",
          "type": "address[]"
        }
      ],
      "name": "claim",
      "outputs": [
        {
          "internalType": "bool",
          "name": "",
          "type": "bool"
        }
      ],
      "stateMutability": "nonpayable",
      "type": "function"
    },
    {
      "inputs": [
        {
          "internalType": "address",
          "name": "tokenAddress",
          "type": "address"
        },
        {
          "internalType": "address[]",
          "name": "poolAddress",
          "type": "address[]"
        },
        {
          "internalType": "uint256[]",
          "name": "amount",
          "type": "uint256[]"
        }
      ],
      "name": "claimAndStake",
      "outputs": [
        {
          "internalType": "bool",
          "name": "",
          "type": "bool"
        }
      ],
      "stateMutability": "nonpayable",
      "type": "function"
    },
    {
      "inputs": [
        {
          "internalType": "address",
          "name": "_to",
          "type": "address"
        },
        {
          "internalType": "address[]",
          "name": "tokenAddresses",
          "type": "address[]"
        }
      ],
      "name": "claimMultiple",
      "outputs": [],
      "stateMutability": "nonpayable",
      "type": "function"
    },
    {
      "inputs": [
        {
          "internalType": "address",
          "name": "_to",
          "type": "address"
        },
        {
          "internalType": "address[]",
          "name": "tokenAddresses",
          "type": "address[]"
        }
      ],
      "name": "claimables",
      "outputs": [
        {
          "internalType": "uint256[]",
          "name": "result",
          "type": "uint256[]"
        }
      ],
      "stateMutability": "view",
      "type": "function"
    },
    {
      "inputs": [],
      "name": "id",
      "outputs": [
        {
          "internalType": "uint8",
          "name": "",
          "type": "uint8"
        }
      ],
      "stateMutability": "view",
      "type": "function"
    }
  ],
  "bytecode": "0x60806040526001805460ff60a01b1916600160a01b17905534801561002357600080fd5b506040516110613803806110618339810160408190526100429161006c565b6001600081905580546001600160a01b0319166001600160a01b039290921691909117905561009c565b60006020828403121561007e57600080fd5b81516001600160a01b038116811461009557600080fd5b9392505050565b610fb6806100ab6000396000f3fe608060405234801561001057600080fd5b50600436106100575760003560e01c80630758ca751461005c578063081df9c314610085578063318d9e5d1461009a578063af640d0f146100bd578063e30b00ff146100e3575b600080fd5b61006f61006a366004610ca6565b6100f6565b60405161007c9190610cfb565b60405180910390f35b610098610093366004610ca6565b610228565b005b6100ad6100a8366004610d3f565b6102f6565b604051901515815260200161007c565b6001546100d190600160a01b900460ff1681565b60405160ff909116815260200161007c565b6100ad6100f1366004610d81565b61030c565b60608167ffffffffffffffff81111561011157610111610e04565b60405190808252806020026020018201604052801561013a578160200160208202803683370190505b50905060005b8281101561021f576001546001600160a01b031663d4570c1c8686868581811061016c5761016c610e1a565b90506020020160208101906101819190610e30565b6040516001600160e01b031960e085901b1681526001600160a01b03928316600482015291166024820152604401602060405180830381865afa1580156101cc573d6000803e3d6000fd5b505050506040513d601f19601f820116820180604052508101906101f09190610e4d565b82828151811061020257610202610e1a565b6020908102919091010152610218600182610e7c565b9050610140565b505b9392505050565b60005b818110156102f0576001546001600160a01b031663b4ba9e118585858581811061025757610257610e1a565b905060200201602081019061026c9190610e30565b6040516001600160e01b031960e085901b1681526001600160a01b039283166004820152911660248201526044016020604051808303816000875af11580156102b9573d6000803e3d6000fd5b505050506040513d601f19601f820116820180604052508101906102dd9190610e4d565b50806102e881610e94565b91505061022b565b50505050565b6000610303338484610228565b50600192915050565b6000600260005414156103665760405162461bcd60e51b815260206004820152601f60248201527f5265656e7472616e637947756172643a207265656e7472616e742063616c6c0060448201526064015b60405180910390fd5b60026000558382146103af5760405162461bcd60e51b8152602060048201526012602482015271098cadccee8d0e640daeae6e840dac2e8c6d60731b604482015260640161035d565b6000805b838110156103f3578484828181106103cd576103cd610e1a565b90506020020135826103df9190610e7c565b91506103ec600182610e7c565b90506103b3565b600154604051633515c30760e21b81523360048201526001600160a01b038a811660248301528492169063d4570c1c90604401602060405180830381865afa158015610443573d6000803e3d6000fd5b505050506040513d601f19601f820116820180604052508101906104679190610e4d565b116104a95760405162461bcd60e51b81526020600482015260126024820152714e6f7420656e6f756768207265776172647360701b604482015260640161035d565b6040516370a0823160e01b81523060048201526000906001600160a01b038a16906370a0823190602401602060405180830381865afa1580156104f0573d6000803e3d6000fd5b505050506040513d601f19601f820116820180604052508101906105149190610e4d565b600154604051631638efb160e11b81523360048201526001600160a01b038c8116602483015292935060009290911690632c71df62906044016020604051808303816000875af115801561056c573d6000803e3d6000fd5b505050506040513d601f19601f820116820180604052508101906105909190610e4d565b6040516370a0823160e01b81523060048201529091506000906001600160a01b038c16906370a0823190602401602060405180830381865afa1580156105da573d6000803e3d6000fd5b505050506040513d601f19601f820116820180604052508101906105fe9190610e4d565b90508161060b8483610eaf565b1461064d5760405162461bcd60e51b81526020600482015260126024820152714e6f7420656e6f756768207265776172647360701b604482015260640161035d565b600093505b868410156106b7576106a48b8b8b8781811061067057610670610e1a565b90506020020160208101906106859190610e30565b8a8a8881811061069757610697610e1a565b90506020020135336106f5565b506106b0600185610e7c565b9350610652565b848211156106de576106de336106cd8785610eaf565b6001600160a01b038e169190610998565b600195505050505050600160005595945050505050565b6000836001600160a01b0316634df947d06040518163ffffffff1660e01b8152600401602060405180830381865afa158015610735573d6000803e3d6000fd5b505050506040513d601f19601f820116820180604052508101906107599190610ec6565b6001600160a01b0316856001600160a01b0316146107a85760405162461bcd60e51b815260206004820152600c60248201526b43616e6e6f74207374616b6560a01b604482015260640161035d565b6040516370a0823160e01b81523060048201526000906001600160a01b038616906370a0823190602401602060405180830381865afa1580156107ef573d6000803e3d6000fd5b505050506040513d601f19601f820116820180604052508101906108139190610e4d565b60405163095ea7b360e01b81526001600160a01b038781166004830152602482018790529192509087169063095ea7b3906044016020604051808303816000875af1158015610866573d6000803e3d6000fd5b505050506040513d601f19601f8201168201806040525081019061088a9190610ee3565b50604051638329ab3360e01b815260048101859052600060248201526001600160a01b03861690638329ab33906044016020604051808303816000875af11580156108d9573d6000803e3d6000fd5b505050506040513d601f19601f820116820180604052508101906108fd9190610e4d565b506040516370a0823160e01b815230600482015260009082906001600160a01b038816906370a0823190602401602060405180830381865afa158015610947573d6000803e3d6000fd5b505050506040513d601f19601f8201168201806040525081019061096b9190610e4d565b6109759190610eaf565b905061098b6001600160a01b0387168583610998565b5060019695505050505050565b604080516001600160a01b038416602482015260448082018490528251808303909101815260649091019091526020810180516001600160e01b031663a9059cbb60e01b1790526109ea9084906109ef565b505050565b6000610a44826040518060400160405280602081526020017f5361666545524332303a206c6f772d6c6576656c2063616c6c206661696c6564815250856001600160a01b0316610ac19092919063ffffffff16565b8051909150156109ea5780806020019051810190610a629190610ee3565b6109ea5760405162461bcd60e51b815260206004820152602a60248201527f5361666545524332303a204552433230206f7065726174696f6e20646964206e6044820152691bdd081cdd58d8d9595960b21b606482015260840161035d565b6060610ad08484600085610ad8565b949350505050565b606082471015610b395760405162461bcd60e51b815260206004820152602660248201527f416464726573733a20696e73756666696369656e742062616c616e636520666f6044820152651c8818d85b1b60d21b606482015260840161035d565b6001600160a01b0385163b610b905760405162461bcd60e51b815260206004820152601d60248201527f416464726573733a2063616c6c20746f206e6f6e2d636f6e7472616374000000604482015260640161035d565b600080866001600160a01b03168587604051610bac9190610f31565b60006040518083038185875af1925050503d8060008114610be9576040519150601f19603f3d011682016040523d82523d6000602084013e610bee565b606091505b5091509150610bfe828286610c09565b979650505050505050565b60608315610c18575081610221565b825115610c285782518084602001fd5b8160405162461bcd60e51b815260040161035d9190610f4d565b6001600160a01b0381168114610c5757600080fd5b50565b60008083601f840112610c6c57600080fd5b50813567ffffffffffffffff811115610c8457600080fd5b6020830191508360208260051b8501011115610c9f57600080fd5b9250929050565b600080600060408486031215610cbb57600080fd5b8335610cc681610c42565b9250602084013567ffffffffffffffff811115610ce257600080fd5b610cee86828701610c5a565b9497909650939450505050565b6020808252825182820181905260009190848201906040850190845b81811015610d3357835183529284019291840191600101610d17565b50909695505050505050565b60008060208385031215610d5257600080fd5b823567ffffffffffffffff811115610d6957600080fd5b610d7585828601610c5a565b90969095509350505050565b600080600080600060608688031215610d9957600080fd5b8535610da481610c42565b9450602086013567ffffffffffffffff80821115610dc157600080fd5b610dcd89838a01610c5a565b90965094506040880135915080821115610de657600080fd5b50610df388828901610c5a565b969995985093965092949392505050565b634e487b7160e01b600052604160045260246000fd5b634e487b7160e01b600052603260045260246000fd5b600060208284031215610e4257600080fd5b813561022181610c42565b600060208284031215610e5f57600080fd5b5051919050565b634e487b7160e01b600052601160045260246000fd5b60008219821115610e8f57610e8f610e66565b500190565b6000600019821415610ea857610ea8610e66565b5060010190565b600082821015610ec157610ec1610e66565b500390565b600060208284031215610ed857600080fd5b815161022181610c42565b600060208284031215610ef557600080fd5b8151801515811461022157600080fd5b60005b83811015610f20578181015183820152602001610f08565b838111156102f05750506000910152565b60008251610f43818460208701610f05565b9190910192915050565b6020815260008251806020840152610f6c816040850160208701610f05565b601f01601f1916919091016040019291505056fea264697066735822122051d2640eb5a8e3507578bfcbd4ab48291c0926772406764cbfb572f7470ed56c64736f6c634300080c0033",
  "linkReferences": {},
  "deployedLinkReferences": {}
}