{
  "_format": "hh-sol-artifact-1",
  "contractName": "BMath",
  "sourceName": "contracts/oldV3Factory/BMath.sol",
  "abi": [
    {
      "constant": true,
      "inputs": [],
      "name": "MAX_TOTAL_WEIGHT",
      "outputs": [
        {
          "name": "",
          "type": "uint256"
        }
      ],
      "payable": false,
      "stateMutability": "view",
      "type": "function"
    },
    {
      "constant": true,
      "inputs": [],
      "name": "BPOW_PRECISION",
      "outputs": [
        {
          "name": "",
          "type": "uint256"
        }
      ],
      "payable": false,
      "stateMutability": "view",
      "type": "function"
    },
    {
      "constant": true,
      "inputs": [],
      "name": "MIN_WEIGHT",
      "outputs": [
        {
          "name": "",
          "type": "uint256"
        }
      ],
      "payable": false,
      "stateMutability": "view",
      "type": "function"
    },
    {
      "constant": true,
      "inputs": [
        {
          "name": "tokenBalanceIn",
          "type": "uint256"
        },
        {
          "name": "tokenWeightIn",
          "type": "uint256"
        },
        {
          "name": "poolSupply",
          "type": "uint256"
        },
        {
          "name": "totalWeight",
          "type": "uint256"
        },
        {
          "name": "poolAmountOut",
          "type": "uint256"
        },
        {
          "name": "swapFee",
          "type": "uint256"
        }
      ],
      "name": "calcSingleInGivenPoolOut",
      "outputs": [
        {
          "name": "tokenAmountIn",
          "type": "uint256"
        }
      ],
      "payable": false,
      "stateMutability": "pure",
      "type": "function"
    },
    {
      "constant": true,
      "inputs": [],
      "name": "MIN_FEE",
      "outputs": [
        {
          "name": "",
          "type": "uint256"
        }
      ],
      "payable": false,
      "stateMutability": "view",
      "type": "function"
    },
    {
      "constant": true,
      "inputs": [
        {
          "name": "tokenBalanceOut",
          "type": "uint256"
        },
        {
          "name": "tokenWeightOut",
          "type": "uint256"
        },
        {
          "name": "poolSupply",
          "type": "uint256"
        },
        {
          "name": "totalWeight",
          "type": "uint256"
        },
        {
          "name": "tokenAmountOut",
          "type": "uint256"
        },
        {
          "name": "swapFee",
          "type": "uint256"
        }
      ],
      "name": "calcPoolInGivenSingleOut",
      "outputs": [
        {
          "name": "poolAmountIn",
          "type": "uint256"
        }
      ],
      "payable": false,
      "stateMutability": "pure",
      "type": "function"
    },
    {
      "constant": true,
      "inputs": [
        {
          "name": "tokenBalanceIn",
          "type": "uint256"
        },
        {
          "name": "tokenWeightIn",
          "type": "uint256"
        },
        {
          "name": "poolSupply",
          "type": "uint256"
        },
        {
          "name": "totalWeight",
          "type": "uint256"
        },
        {
          "name": "tokenAmountIn",
          "type": "uint256"
        },
        {
          "name": "swapFee",
          "type": "uint256"
        }
      ],
      "name": "calcPoolOutGivenSingleIn",
      "outputs": [
        {
          "name": "poolAmountOut",
          "type": "uint256"
        }
      ],
      "payable": false,
      "stateMutability": "pure",
      "type": "function"
    },
    {
      "constant": true,
      "inputs": [],
      "name": "MIN_BALANCE",
      "outputs": [
        {
          "name": "",
          "type": "uint256"
        }
      ],
      "payable": false,
      "stateMutability": "view",
      "type": "function"
    },
    {
      "constant": true,
      "inputs": [
        {
          "name": "tokenBalanceOut",
          "type": "uint256"
        },
        {
          "name": "tokenWeightOut",
          "type": "uint256"
        },
        {
          "name": "poolSupply",
          "type": "uint256"
        },
        {
          "name": "totalWeight",
          "type": "uint256"
        },
        {
          "name": "poolAmountIn",
          "type": "uint256"
        },
        {
          "name": "swapFee",
          "type": "uint256"
        }
      ],
      "name": "calcSingleOutGivenPoolIn",
      "outputs": [
        {
          "name": "tokenAmountOut",
          "type": "uint256"
        }
      ],
      "payable": false,
      "stateMutability": "pure",
      "type": "function"
    },
    {
      "constant": true,
      "inputs": [],
      "name": "INIT_POOL_SUPPLY",
      "outputs": [
        {
          "name": "",
          "type": "uint256"
        }
      ],
      "payable": false,
      "stateMutability": "view",
      "type": "function"
    },
    {
      "constant": true,
      "inputs": [],
      "name": "MAX_OUT_RATIO",
      "outputs": [
        {
          "name": "",
          "type": "uint256"
        }
      ],
      "payable": false,
      "stateMutability": "view",
      "type": "function"
    },
    {
      "constant": true,
      "inputs": [
        {
          "name": "tokenBalanceIn",
          "type": "uint256"
        },
        {
          "name": "tokenWeightIn",
          "type": "uint256"
        },
        {
          "name": "tokenBalanceOut",
          "type": "uint256"
        },
        {
          "name": "tokenWeightOut",
          "type": "uint256"
        },
        {
          "name": "swapFee",
          "type": "uint256"
        }
      ],
      "name": "calcSpotPrice",
      "outputs": [
        {
          "name": "spotPrice",
          "type": "uint256"
        }
      ],
      "payable": false,
      "stateMutability": "pure",
      "type": "function"
    },
    {
      "constant": true,
      "inputs": [],
      "name": "MAX_BOUND_TOKENS",
      "outputs": [
        {
          "name": "",
          "type": "uint256"
        }
      ],
      "payable": false,
      "stateMutability": "view",
      "type": "function"
    },
    {
      "constant": true,
      "inputs": [],
      "name": "MIN_BOUND_TOKENS",
      "outputs": [
        {
          "name": "",
          "type": "uint256"
        }
      ],
      "payable": false,
      "stateMutability": "view",
      "type": "function"
    },
    {
      "constant": true,
      "inputs": [],
      "name": "MIN_BPOW_BASE",
      "outputs": [
        {
          "name": "",
          "type": "uint256"
        }
      ],
      "payable": false,
      "stateMutability": "view",
      "type": "function"
    },
    {
      "constant": true,
      "inputs": [
        {
          "name": "tokenBalanceIn",
          "type": "uint256"
        },
        {
          "name": "tokenWeightIn",
          "type": "uint256"
        },
        {
          "name": "tokenBalanceOut",
          "type": "uint256"
        },
        {
          "name": "tokenWeightOut",
          "type": "uint256"
        },
        {
          "name": "tokenAmountIn",
          "type": "uint256"
        },
        {
          "name": "swapFee",
          "type": "uint256"
        }
      ],
      "name": "calcOutGivenIn",
      "outputs": [
        {
          "name": "tokenAmountOut",
          "type": "uint256"
        }
      ],
      "payable": false,
      "stateMutability": "pure",
      "type": "function"
    },
    {
      "constant": true,
      "inputs": [],
      "name": "MAX_FEE",
      "outputs": [
        {
          "name": "",
          "type": "uint256"
        }
      ],
      "payable": false,
      "stateMutability": "view",
      "type": "function"
    },
    {
      "constant": true,
      "inputs": [],
      "name": "MAX_BPOW_BASE",
      "outputs": [
        {
          "name": "",
          "type": "uint256"
        }
      ],
      "payable": false,
      "stateMutability": "view",
      "type": "function"
    },
    {
      "constant": true,
      "inputs": [],
      "name": "BONE",
      "outputs": [
        {
          "name": "",
          "type": "uint256"
        }
      ],
      "payable": false,
      "stateMutability": "view",
      "type": "function"
    },
    {
      "constant": true,
      "inputs": [],
      "name": "EXIT_FEE",
      "outputs": [
        {
          "name": "",
          "type": "uint256"
        }
      ],
      "payable": false,
      "stateMutability": "view",
      "type": "function"
    },
    {
      "constant": true,
      "inputs": [],
      "name": "MAX_WEIGHT",
      "outputs": [
        {
          "name": "",
          "type": "uint256"
        }
      ],
      "payable": false,
      "stateMutability": "view",
      "type": "function"
    },
    {
      "constant": true,
      "inputs": [],
      "name": "MAX_IN_RATIO",
      "outputs": [
        {
          "name": "",
          "type": "uint256"
        }
      ],
      "payable": false,
      "stateMutability": "view",
      "type": "function"
    },
    {
      "constant": true,
      "inputs": [
        {
          "name": "tokenBalanceIn",
          "type": "uint256"
        },
        {
          "name": "tokenWeightIn",
          "type": "uint256"
        },
        {
          "name": "tokenBalanceOut",
          "type": "uint256"
        },
        {
          "name": "tokenWeightOut",
          "type": "uint256"
        },
        {
          "name": "tokenAmountOut",
          "type": "uint256"
        },
        {
          "name": "swapFee",
          "type": "uint256"
        }
      ],
      "name": "calcInGivenOut",
      "outputs": [
        {
          "name": "tokenAmountIn",
          "type": "uint256"
        }
      ],
      "payable": false,
      "stateMutability": "pure",
      "type": "function"
    }
  ],
  "bytecode": "0x608060405234801561001057600080fd5b50610dfb806100206000396000f3fe608060405234801561001057600080fd5b506004361061014d5760003560e01c8063a221ee49116100c3578063bc694ea21161007c578063bc694ea214610318578063c36596a614610174578063c6580d1214610320578063e4a28a5214610152578063ec09302114610328578063f8d6aed4146103305761014d565b8063a221ee4914610288578063b0e0d136146102bd578063b7b800a4146102c5578063ba019dab146102cd578063ba9530a6146102d5578063bc063e1a146103105761014d565b806382f652ad1161011557806382f652ad146101bf5780638656b653146101fa578063867378c514610235578063892980121461023d5780639381cd2b14610278578063992e2a92146102805761014d565b806309a3bbe414610152578063189d00ca1461016c578063218b5382146101745780635c1bbaf71461017c57806376c7a3c7146101b7575b600080fd5b61015a61036b565b60408051918252519081900360200190f35b61015a610378565b61015a61038c565b61015a600480360360c081101561019257600080fd5b5080359060208101359060408101359060608101359060808101359060a00135610398565b61015a610450565b61015a600480360360c08110156101d557600080fd5b5080359060208101359060408101359060608101359060808101359060a00135610462565b61015a600480360360c081101561021057600080fd5b5080359060208101359060408101359060608101359060808101359060a00135610521565b61015a6105c2565b61015a600480360360c081101561025357600080fd5b5080359060208101359060408101359060608101359060808101359060a001356105d6565b61015a610686565b61015a610693565b61015a600480360360a081101561029e57600080fd5b508035906020810135906040810135906060810135906080013561069f565b61015a610704565b61015a610709565b61015a61070e565b61015a600480360360c08110156102eb57600080fd5b5080359060208101359060408101359060608101359060808101359060a00135610713565b61015a610794565b61015a6107a4565b61015a6107b0565b61015a6107b5565b61015a600480360360c081101561034657600080fd5b5080359060208101359060408101359060608101359060808101359060a001356107c5565b6802b5e3af16b188000081565b6402540be400670de0b6b3a76400005b0481565b670de0b6b3a764000081565b6000806103a58786610848565b905060006103b3878661097d565b905060006103c18289610848565b905060006103d7670de0b6b3a764000085610848565b905060006103e583836109e1565b905060006103f3828e610b04565b90506000610401828f610bd2565b9050600061042061041a670de0b6b3a76400008a610bd2565b8b610b04565b905061043d82610438670de0b6b3a764000084610bd2565b610848565b9f9e505050505050505050505050505050565b620f4240670de0b6b3a7640000610388565b60008061046f8786610848565b90506000610485670de0b6b3a764000083610bd2565b905060006104938286610b04565b905060006104ad87610438670de0b6b3a764000085610bd2565b905060006104bb8c83610bd2565b905060006104c9828e610848565b905060006104d782886109e1565b905060006104e5828e610b04565b905060006104f38e83610bd2565b905061050c81610438670de0b6b3a76400006000610bd2565b99505050505050505050509695505050505050565b60008061052e8786610848565b9050600061054d610547670de0b6b3a764000084610bd2565b85610b04565b9050600061056c86610567670de0b6b3a764000085610bd2565b610b04565b9050600061057a8b8361097d565b90506000610588828d610848565b9050600061059682876109e1565b905060006105a4828d610b04565b90506105b0818d610bd2565b9e9d5050505050505050505050505050565b64e8d4a51000670de0b6b3a7640000610388565b6000806105e38786610848565b905060006105fe85610567670de0b6b3a76400006000610bd2565b9050600061060c8883610bd2565b9050600061061a828a610848565b9050600061063982610634670de0b6b3a764000088610848565b6109e1565b90506000610647828e610b04565b905060006106558e83610bd2565b9050600061066e61041a670de0b6b3a76400008a610bd2565b905061043d82610567670de0b6b3a764000084610bd2565b68056bc75e2d6310000081565b6704a03ce68d21555681565b6000806106ac8787610848565b905060006106ba8686610848565b905060006106c88383610848565b905060006106ea670de0b6b3a7640000610438670de0b6b3a764000089610bd2565b90506106f68282610b04565b9a9950505050505050505050565b600881565b600281565b600181565b6000806107208786610848565b90506000610736670de0b6b3a764000085610bd2565b90506107428582610b04565b905060006107548a6104388c8561097d565b9050600061076282856109e1565b90506000610778670de0b6b3a764000083610bd2565b90506107848a82610b04565b9c9b505050505050505050505050565b600a670de0b6b3a7640000610388565b671bc16d674ec7ffff81565b600081565b6002670de0b6b3a7640000610388565b6000806107d28588610848565b905060006107e08786610bd2565b905060006107ee8883610848565b905060006107fc82856109e1565b905061081081670de0b6b3a7640000610bd2565b9050610824670de0b6b3a764000087610bd2565b94506108396108338c83610b04565b86610848565b9b9a5050505050505050505050565b60008161089f5760408051600160e51b62461bcd02815260206004820152600c60248201527f4552525f4449565f5a45524f0000000000000000000000000000000000000000604482015290519081900360640190fd5b670de0b6b3a764000083028315806108c75750670de0b6b3a76400008482816108c457fe5b04145b6109115760408051600160e51b62461bcd0281526020600482015260106024820152600160821b6f11549497d1125597d25395115493905302604482015290519081900360640190fd5b600283048101818110156109655760408051600160e51b62461bcd0281526020600482015260106024820152600160821b6f11549497d1125597d25395115493905302604482015290519081900360640190fd5b600084828161097057fe5b0493505050505b92915050565b6000828201838110156109da5760408051600160e51b62461bcd02815260206004820152601060248201527f4552525f4144445f4f564552464c4f5700000000000000000000000000000000604482015290519081900360640190fd5b9392505050565b60006001831015610a3c5760408051600160e51b62461bcd02815260206004820152601560248201527f4552525f42504f575f424153455f544f4f5f4c4f570000000000000000000000604482015290519081900360640190fd5b671bc16d674ec7ffff831115610a9c5760408051600160e51b62461bcd02815260206004820152601660248201527f4552525f42504f575f424153455f544f4f5f4849474800000000000000000000604482015290519081900360640190fd5b6000610aa783610c43565b90506000610ab58483610bd2565b90506000610acb86610ac685610c5e565b610c6c565b905081610adc579250610977915050565b6000610aed87846305f5e100610ccc565b9050610af98282610b04565b979650505050505050565b6000828202831580610b1e575082848281610b1b57fe5b04145b610b685760408051600160e51b62461bcd0281526020600482015260106024820152600160801b6f4552525f4d554c5f4f564552464c4f5702604482015290519081900360640190fd5b6706f05b59d3b20000810181811015610bc15760408051600160e51b62461bcd0281526020600482015260106024820152600160801b6f4552525f4d554c5f4f564552464c4f5702604482015290519081900360640190fd5b6000670de0b6b3a764000082610970565b6000806000610be18585610daa565b915091508015610c3b5760408051600160e51b62461bcd02815260206004820152601160248201527f4552525f5355425f554e444552464c4f57000000000000000000000000000000604482015290519081900360640190fd5b509392505050565b6000670de0b6b3a7640000610c5783610c5e565b0292915050565b670de0b6b3a7640000900490565b6000828160028406610c8657670de0b6b3a7640000610c88565b815b90506002840493505b8315610cc457610ca18283610b04565b91506002840615610cb957610cb68183610b04565b90505b600284049350610c91565b949350505050565b6000828180610ce387670de0b6b3a7640000610daa565b9092509050670de0b6b3a764000080600060015b888410610d9b576000670de0b6b3a764000082029050600080610d2b8a610d2685670de0b6b3a7640000610bd2565b610daa565b91509150610d3d87610567848c610b04565b9650610d498784610848565b965086610d5857505050610d9b565b8715610d62579315935b8015610d6c579315935b8415610d8357610d7c8688610bd2565b9550610d90565b610d8d868861097d565b95505b505050600101610cf7565b50909998505050505050505050565b600080828410610dc05750508082036000610dc8565b505081810360015b925092905056fea165627a7a723058207430a5953bf3461ce0ac5b3cbdb2f319d70f7831b4584445f88daf53d8ace8490029",
  "linkReferences": {},
  "deployedLinkReferences": {}
}