{
  "contractName": "Converter",
  "abi": [
    {
      "constant": true,
      "inputs": [
        {
          "name": "value",
          "type": "uint256"
        }
      ],
      "name": "uintToString",
      "outputs": [
        {
          "name": "",
          "type": "string"
        }
      ],
      "payable": false,
      "stateMutability": "pure",
      "type": "function"
    },
    {
      "constant": true,
      "inputs": [
        {
          "name": "str1",
          "type": "string"
        },
        {
          "name": "str2",
          "type": "string"
        }
      ],
      "name": "concatenateStrings",
      "outputs": [
        {
          "name": "",
          "type": "string"
        }
      ],
      "payable": false,
      "stateMutability": "pure",
      "type": "function"
    }
  ],
  "bytecode": "0x608060405234801561001057600080fd5b5061050d806100206000396000f3fe608060405234801561001057600080fd5b5060043610610053576000357c0100000000000000000000000000000000000000000000000000000000900480637a36b3ee14610058578063e939567914610223575b600080fd5b6101a86004803603604081101561006e57600080fd5b810190808035906020019064010000000081111561008b57600080fd5b82018360208201111561009d57600080fd5b803590602001918460018302840111640100000000831117156100bf57600080fd5b91908080601f016020809104026020016040519081016040528093929190818152602001838380828437600081840152601f19601f8201169050808301925050505050505091929192908035906020019064010000000081111561012257600080fd5b82018360208201111561013457600080fd5b8035906020019184600183028401116401000000008311171561015657600080fd5b91908080601f016020809104026020016040519081016040528093929190818152602001838380828437600081840152601f19601f8201169050808301925050505050505091929192905050506102ca565b6040518080602001828103825283818151815260200191508051906020019080838360005b838110156101e85780820151818401526020810190506101cd565b50505050905090810190601f1680156102155780820380516001836020036101000a031916815260200191505b509250505060405180910390f35b61024f6004803603602081101561023957600080fd5b8101908080359060200190929190505050610392565b6040518080602001828103825283818151815260200191508051906020019080838360005b8381101561028f578082015181840152602081019050610274565b50505050905090810190601f1680156102bc5780820380516001836020036101000a031916815260200191505b509250505060405180910390f35b606082826040516020018083805190602001908083835b6020831061030457805182526020820191506020810190506020830392506102e1565b6001836020036101000a03801982511681845116808217855250505050505090500182805190602001908083835b602083106103555780518252602082019150602081019050602083039250610332565b6001836020036101000a03801982511681845116808217855250505050505090500192505050604051602081830303815290604052905092915050565b606060008214156103da576040518060400160405280600181526020017f300000000000000000000000000000000000000000000000000000000000000081525090506104dc565b600082905060005b60008214610404578080600101915050600a82816103fc57fe5b0491506103e2565b6060816040519080825280601f01601f1916602001820160405280156104395781602001600182028038833980820191505090505b50905060006001830390508593505b600084146104d457600a848161045a57fe5b066030017f0100000000000000000000000000000000000000000000000000000000000000028282806001900393508151811061049357fe5b60200101907effffffffffffffffffffffffffffffffffffffffffffffffffffffffffffff1916908160001a905350600a84816104cc57fe5b049350610448565b819450505050505b91905056fea165627a7a723058206e37ac52d9edf00ebcf42679a3fe5556cc9b08d1e6a2e691bafdafd1c13a0b720029",
  "source": "pragma solidity ^0.5.7;\n// Copyright BigchainDB GmbH and Ocean Protocol contributors\n// SPDX-License-Identifier: (Apache-2.0 AND CC-BY-4.0)\n// Code is Apache-2.0 and docs are CC-BY-4.0\n\n/**\n * @title Converter Contract\n * @author Ocean Protocol Team\n *\n * @dev Simple types converter\n *      This contract provides sompe helper functions\n *      such as converting integers to strings\n */\ncontract Converter {\n    /**\n     * @dev uintToString\n     *      converts an integer value to a string value\n     * @param value refers to integer value\n     * @return converted string value\n     */\n    function uintToString\n    (\n        uint256 value\n    )\n        public\n        pure\n        returns (string memory) \n    {\n        if ( value == 0) {\n            return '0';\n        }\n        uint tempUint = value;\n        uint len;\n        while (tempUint != 0) {\n            len++;\n            tempUint /= 10;\n        }\n        \n        bytes memory bstr = new bytes(len);\n        uint k = len - 1;\n        tempUint = value; \n        while (tempUint != 0) {\n            bstr[k--] = byte(uint8(48 + tempUint % 10));\n            tempUint /= 10;\n        }\n        return string(bstr);\n    }\n\n    /**\n     * @dev concatenateStrings\n     *      concatenates two strings\n     * @param str1 refers to first string\n     * @param str2 refers to second string\n     * @return catenated string value\n     */\n    function concatenateStrings(\n        string memory str1, \n        string memory str2\n    )\n        public\n        pure\n        returns(string memory)\n    {\n        return string(abi.encodePacked(str1, str2));\n    }\n}",
  "sourcePath": "/Users/ahmedali/Desktop/work/Ocean/ocean-contracts/contracts/utils/Converter.sol",
  "compiler": {
    "name": "solc",
    "version": "0.5.7+commit.6da8b019.Emscripten.clang"
  },
  "schemaVersion": "3.2.0",
  "updatedAt": "2020-06-09T08:49:37.034Z",
  "devdoc": {
    "author": "Ocean Protocol Team",
    "details": "Simple types converter     This contract provides sompe helper functions     such as converting integers to strings",
    "methods": {
      "concatenateStrings(string,string)": {
        "details": "concatenateStrings     concatenates two strings",
        "params": {
          "str1": "refers to first string",
          "str2": "refers to second string"
        },
        "return": "catenated string value"
      },
      "uintToString(uint256)": {
        "details": "uintToString     converts an integer value to a string value",
        "params": {
          "value": "refers to integer value"
        },
        "return": "converted string value"
      }
    },
    "title": "Converter Contract"
  },
  "userdoc": {
    "methods": {}
  }
}