{
  "contractName": "Factory",
  "abi": [
    {
      "constant": true,
      "inputs": [
        {
          "name": "str1",
          "type": "string"
        },
        {
          "name": "str2",
          "type": "string"
        }
      ],
      "name": "concatenateStrings",
      "outputs": [
        {
          "name": "",
          "type": "string"
        }
      ],
      "payable": false,
      "stateMutability": "pure",
      "type": "function"
    },
    {
      "constant": true,
      "inputs": [
        {
          "name": "value",
          "type": "uint256"
        }
      ],
      "name": "uintToString",
      "outputs": [
        {
          "name": "",
          "type": "string"
        }
      ],
      "payable": false,
      "stateMutability": "pure",
      "type": "function"
    },
    {
      "inputs": [
        {
          "name": "_template",
          "type": "address"
        }
      ],
      "payable": false,
      "stateMutability": "nonpayable",
      "type": "constructor"
    },
    {
      "anonymous": false,
      "inputs": [
        {
          "indexed": false,
          "name": "newTokenAddress",
          "type": "address"
        },
        {
          "indexed": false,
          "name": "templateAddress",
          "type": "address"
        },
        {
          "indexed": false,
          "name": "tokenName",
          "type": "string"
        }
      ],
      "name": "TokenCreated",
      "type": "event"
    },
    {
      "anonymous": false,
      "inputs": [
        {
          "indexed": true,
          "name": "tokenAddress",
          "type": "address"
        },
        {
          "indexed": true,
          "name": "tokenName",
          "type": "string"
        },
        {
          "indexed": true,
          "name": "tokenSymbol",
          "type": "string"
        },
        {
          "indexed": false,
          "name": "tokenCap",
          "type": "uint256"
        },
        {
          "indexed": false,
          "name": "RegisteredBy",
          "type": "address"
        },
        {
          "indexed": false,
          "name": "RegisteredAt",
          "type": "uint256"
        },
        {
          "indexed": false,
          "name": "blob",
          "type": "string"
        }
      ],
      "name": "TokenRegistered",
      "type": "event"
    },
    {
      "anonymous": false,
      "inputs": [
        {
          "indexed": false,
          "name": "instance",
          "type": "address"
        }
      ],
      "name": "InstanceDeployed",
      "type": "event"
    },
    {
      "constant": false,
      "inputs": [
        {
          "name": "blob",
          "type": "string"
        }
      ],
      "name": "createToken",
      "outputs": [
        {
          "name": "token",
          "type": "address"
        }
      ],
      "payable": false,
      "stateMutability": "nonpayable",
      "type": "function"
    }
  ],
  "bytecode": "0x60806040526001805534801561001457600080fd5b50604051602080610ff08339810180604052602081101561003457600080fd5b8101908080519060200190929190505050600073ffffffffffffffffffffffffffffffffffffffff168173ffffffffffffffffffffffffffffffffffffffff1614156100cb576040517f08c379a000000000000000000000000000000000000000000000000000000000815260040180806020018281038252602c815260200180610fc4602c913960400191505060405180910390fd5b806000806101000a81548173ffffffffffffffffffffffffffffffffffffffff021916908373ffffffffffffffffffffffffffffffffffffffff16021790555050610ea98061011b6000396000f3fe608060405234801561001057600080fd5b506004361061005e576000357c01000000000000000000000000000000000000000000000000000000009004806345576f94146100635780637a36b3ee1461015e578063e939567914610329575b600080fd5b61011c6004803603602081101561007957600080fd5b810190808035906020019064010000000081111561009657600080fd5b8201836020820111156100a857600080fd5b803590602001918460018302840111640100000000831117156100ca57600080fd5b91908080601f016020809104026020016040519081016040528093929190818152602001838380828437600081840152601f19601f8201169050808301925050505050505091929192905050506103d0565b604051808273ffffffffffffffffffffffffffffffffffffffff1673ffffffffffffffffffffffffffffffffffffffff16815260200191505060405180910390f35b6102ae6004803603604081101561017457600080fd5b810190808035906020019064010000000081111561019157600080fd5b8201836020820111156101a357600080fd5b803590602001918460018302840111640100000000831117156101c557600080fd5b91908080601f016020809104026020016040519081016040528093929190818152602001838380828437600081840152601f19601f8201169050808301925050505050505091929192908035906020019064010000000081111561022857600080fd5b82018360208201111561023a57600080fd5b8035906020019184600183028401116401000000008311171561025c57600080fd5b91908080601f016020809104026020016040519081016040528093929190818152602001838380828437600081840152601f19601f820116905080830192505050505050509192919290505050610b29565b6040518080602001828103825283818151815260200191508051906020019080838360005b838110156102ee5780820151818401526020810190506102d3565b50505050905090810190601f16801561031b5780820380516001836020036101000a031916815260200191505b509250505060405180910390f35b6103556004803603602081101561033f57600080fd5b8101908080359060200190929190505050610bf1565b6040518080602001828103825283818151815260200191508051906020019080838360005b8381101561039557808201518184015260208101905061037a565b50505050905090810190601f1680156103c25780820380516001836020036101000a031916815260200191505b509250505060405180910390f35b60006103fc6000809054906101000a900473ffffffffffffffffffffffffffffffffffffffff16610d40565b9050600073ffffffffffffffffffffffffffffffffffffffff168173ffffffffffffffffffffffffffffffffffffffff161415610484576040517f08c379a0000000000000000000000000000000000000000000000000000000008152600401808060200182810382526038815260200180610e466038913960400191505060405180910390fd5b60606104cf6040518060400160405280600281526020017f44540000000000000000000000000000000000000000000000000000000000008152506104ca600154610bf1565b610b29565b9050606081905060008390508073ffffffffffffffffffffffffffffffffffffffff16630a6f3d9b8484337fffffffffffffffffffffffffffffffffffffffffffffffffffffffffffffffff8a6040518663ffffffff167c01000000000000000000000000000000000000000000000000000000000281526004018080602001806020018673ffffffffffffffffffffffffffffffffffffffff1673ffffffffffffffffffffffffffffffffffffffff16815260200185815260200180602001848103845289818151815260200191508051906020019080838360005b838110156105c75780820151818401526020810190506105ac565b50505050905090810190601f1680156105f45780820380516001836020036101000a031916815260200191505b50848103835288818151815260200191508051906020019080838360005b8381101561062d578082015181840152602081019050610612565b50505050905090810190601f16801561065a5780820380516001836020036101000a031916815260200191505b50848103825285818151815260200191508051906020019080838360005b83811015610693578082015181840152602081019050610678565b50505050905090810190601f1680156106c05780820380516001836020036101000a031916815260200191505b5098505050505050505050602060405180830381600087803b1580156106e557600080fd5b505af11580156106f9573d6000803e3d6000fd5b505050506040513d602081101561070f57600080fd5b8101908080519060200190929190505050508073ffffffffffffffffffffffffffffffffffffffff1663392e53cd6040518163ffffffff167c010000000000000000000000000000000000000000000000000000000002815260040160206040518083038186803b15801561078357600080fd5b505afa158015610797573d6000803e3d6000fd5b505050506040513d60208110156107ad57600080fd5b8101908080519060200190929190505050610813576040517f08c379a000000000000000000000000000000000000000000000000000000000815260040180806020018281038252602c815260200180610e1a602c913960400191505060405180910390fd5b7fb51c8cbe199ffe8b0d1d39b62d473569750653cb18b165f77ae423b3900180ad846000809054906101000a900473ffffffffffffffffffffffffffffffffffffffff1685604051808473ffffffffffffffffffffffffffffffffffffffff1673ffffffffffffffffffffffffffffffffffffffff1681526020018373ffffffffffffffffffffffffffffffffffffffff1673ffffffffffffffffffffffffffffffffffffffff16815260200180602001828103825283818151815260200191508051906020019080838360005b838110156108fc5780820151818401526020810190506108e1565b50505050905090810190601f1680156109295780820380516001836020036101000a031916815260200191505b5094505050505060405180910390a1816040518082805190602001908083835b6020831061096c5780518252602082019150602081019050602083039250610949565b6001836020036101000a0380198251168184511680821785525050505050509050019150506040518091039020836040518082805190602001908083835b602083106109cd57805182526020820191506020810190506020830392506109aa565b6001836020036101000a03801982511681845116808217855250505050505090500191505060405180910390208573ffffffffffffffffffffffffffffffffffffffff167f5242aec5021ca3b80047b99ba11a4f6ee963561e3ca5c01854964affbf18c0897fffffffffffffffffffffffffffffffffffffffffffffffffffffffffffffffff33438b604051808581526020018473ffffffffffffffffffffffffffffffffffffffff1673ffffffffffffffffffffffffffffffffffffffff16815260200183815260200180602001828103825283818151815260200191508051906020019080838360005b83811015610ad4578082015181840152602081019050610ab9565b50505050905090810190601f168015610b015780820380516001836020036101000a031916815260200191505b509550505050505060405180910390a460018060008282540192505081905550505050919050565b606082826040516020018083805190602001908083835b60208310610b635780518252602082019150602081019050602083039250610b40565b6001836020036101000a03801982511681845116808217855250505050505090500182805190602001908083835b60208310610bb45780518252602082019150602081019050602083039250610b91565b6001836020036101000a03801982511681845116808217855250505050505090500192505050604051602081830303815290604052905092915050565b60606000821415610c39576040518060400160405280600181526020017f30000000000000000000000000000000000000000000000000000000000000008152509050610d3b565b600082905060005b60008214610c63578080600101915050600a8281610c5b57fe5b049150610c41565b6060816040519080825280601f01601f191660200182016040528015610c985781602001600182028038833980820191505090505b50905060006001830390508593505b60008414610d3357600a8481610cb957fe5b066030017f01000000000000000000000000000000000000000000000000000000000000000282828060019003935081518110610cf257fe5b60200101907effffffffffffffffffffffffffffffffffffffffffffffffffffffffffffff1916908160001a905350600a8481610d2b57fe5b049350610ca7565b819450505050505b919050565b600080826c010000000000000000000000000290506040517f3d602d80600a3d3981f3363d3d373d3d3d363d7300000000000000000000000081528160148201527f5af43d82803e903d91602b57fd5bf3000000000000000000000000000000000060288201526037816000f09250507f117c72e6c25f0a072e36e148df71468ce2f3dbe7defec5b2c257a6e3eb65278c82604051808273ffffffffffffffffffffffffffffffffffffffff1673ffffffffffffffffffffffffffffffffffffffff16815260200191505060405180910390a15091905056fe466163746f72793a20556e61626c6520746f20696e697469616c697a6520746f6b656e20696e7374616e6365466163746f72793a204661696c656420746f20706572666f726d206d696e696d616c206465706c6f79206f662061206e657720746f6b656ea165627a7a723058208661a4f1759a51204c39e8e7507448b81499f1f9e035fda3f65d9daaadaa2c1c0029466163746f72793a20496e76616c696420546f6b656e466163746f727920696e697469616c697a6174696f6e",
  "source": "pragma solidity ^0.5.7;\n// Copyright BigchainDB GmbH and Ocean Protocol contributors\n// SPDX-License-Identifier: (Apache-2.0 AND CC-BY-4.0)\n// Code is Apache-2.0 and docs are CC-BY-4.0\n\nimport './utils/Deployer.sol';\nimport './utils/Converter.sol';\nimport './interfaces/IERC20Template.sol';\n/**\n* @title Factory contract\n* @author Ocean Protocol Team\n*\n* @dev Implementation of Ocean DataTokens Factory\n*\n*      Factory deploys DataToken proxy contracts.\n*      New DataToken proxy contracts are links to the template contract's bytecode. \n*      Proxy contract functionality is based on Ocean Protocol custom implementation of ERC1167 standard.\n*/\ncontract Factory is Deployer, Converter {\n\n    address private tokenTemplate;\n    uint256 private currentTokenCount = 1;\n    // cap has max uint256 (2^256 -1)\n    uint256 constant private cap = \n    115792089237316195423570985008687907853269984665640564039457584007913129639935;\n    string constant private TOKEN_NAME_PREFIX = 'DT';\n\n    event TokenCreated(\n        address newTokenAddress, \n        address templateAddress,\n        string tokenName\n    );\n    \n    event TokenRegistered(\n        address indexed tokenAddress,\n        string indexed tokenName,\n        string indexed tokenSymbol,\n        uint256 tokenCap,\n        address RegisteredBy,\n        uint256 RegisteredAt,\n        string blob\n    );\n    \n    /**\n     * @dev constructor\n     *      Called on contract deployment. Could not be called with zero address parameters.\n     * @param _template refers to the address of a deployed DataToken contract.\n     */\n    constructor(\n        address _template\n    ) \n        public \n    {\n        require(\n            _template != address(0),\n            'Factory: Invalid TokenFactory initialization'\n        );\n        tokenTemplate = _template;\n    }\n\n    /**\n     * @dev Deploys new DataToken proxy contract.\n     *      Template contract address could not be a zero address. \n     * @return address of a new proxy DataToken contract\n     */\n    function createToken(\n        string memory blob\n    ) \n        public\n        returns (address token)\n    {\n\n        token = deploy(tokenTemplate);\n        \n        require(\n            token != address(0),\n            'Factory: Failed to perform minimal deploy of a new token'\n        );\n        \n        string memory name = concatenateStrings(\n            TOKEN_NAME_PREFIX, \n            uintToString(currentTokenCount)\n        );\n        string memory symbol = name; \n\n        IERC20Template tokenInstance = IERC20Template(token);\n        tokenInstance.initialize(\n            name,\n            symbol,\n            msg.sender,\n            cap,\n            blob\n        );\n\n        require(\n            tokenInstance.isInitialized(),\n            'Factory: Unable to initialize token instance'\n        );\n\n        emit TokenCreated(\n            token, \n            tokenTemplate,\n            name\n        );\n\n        emit TokenRegistered(\n            token,\n            name,\n            symbol,\n            cap,\n            msg.sender,\n            block.number,\n            blob\n        );\n\n        currentTokenCount += 1;\n    }\n}",
  "sourcePath": "/Users/ahmedali/Desktop/work/Ocean/ocean-contracts/contracts/Factory.sol",
  "compiler": {
    "name": "solc",
    "version": "0.5.7+commit.6da8b019.Emscripten.clang"
  },
  "schemaVersion": "3.2.0",
  "updatedAt": "2020-06-10T09:16:13.502Z",
  "networkType": "ethereum",
  "devdoc": {
    "author": "Ocean Protocol Team",
    "details": "Implementation of Ocean DataTokens Factory *      Factory deploys DataToken proxy contracts.     New DataToken proxy contracts are links to the template contract's bytecode.      Proxy contract functionality is based on Ocean Protocol custom implementation of ERC1167 standard.",
    "methods": {
      "concatenateStrings(string,string)": {
        "details": "concatenateStrings     concatenates two strings",
        "params": {
          "str1": "refers to first string",
          "str2": "refers to second string"
        },
        "return": "catenated string value"
      },
      "constructor": {
        "details": "constructor     Called on contract deployment. Could not be called with zero address parameters.",
        "params": {
          "_template": "refers to the address of a deployed DataToken contract."
        }
      },
      "createToken(string)": {
        "details": "Deploys new DataToken proxy contract.     Template contract address could not be a zero address. ",
        "return": "address of a new proxy DataToken contract"
      },
      "uintToString(uint256)": {
        "details": "uintToString     converts an integer value to a string value",
        "params": {
          "value": "refers to integer value"
        },
        "return": "converted string value"
      }
    },
    "title": "Factory contract"
  },
  "userdoc": {
    "methods": {}
  }
}