{
  "_format": "hh-sol-artifact-1",
  "contractName": "ERC20TemplateEnterprise",
  "sourceName": "contracts/templates/ERC20TemplateEnterprise.sol",
  "abi": [
    {
      "anonymous": false,
      "inputs": [
        {
          "indexed": true,
          "internalType": "address",
          "name": "user",
          "type": "address"
        },
        {
          "indexed": true,
          "internalType": "address",
          "name": "signer",
          "type": "address"
        },
        {
          "indexed": false,
          "internalType": "uint256",
          "name": "timestamp",
          "type": "uint256"
        },
        {
          "indexed": false,
          "internalType": "uint256",
          "name": "blockNumber",
          "type": "uint256"
        }
      ],
      "name": "AddedMinter",
      "type": "event"
    },
    {
      "anonymous": false,
      "inputs": [
        {
          "indexed": true,
          "internalType": "address",
          "name": "user",
          "type": "address"
        },
        {
          "indexed": true,
          "internalType": "address",
          "name": "signer",
          "type": "address"
        },
        {
          "indexed": false,
          "internalType": "uint256",
          "name": "timestamp",
          "type": "uint256"
        },
        {
          "indexed": false,
          "internalType": "uint256",
          "name": "blockNumber",
          "type": "uint256"
        }
      ],
      "name": "AddedPaymentManager",
      "type": "event"
    },
    {
      "anonymous": false,
      "inputs": [
        {
          "indexed": true,
          "internalType": "address",
          "name": "owner",
          "type": "address"
        },
        {
          "indexed": true,
          "internalType": "address",
          "name": "spender",
          "type": "address"
        },
        {
          "indexed": false,
          "internalType": "uint256",
          "name": "value",
          "type": "uint256"
        }
      ],
      "name": "Approval",
      "type": "event"
    },
    {
      "anonymous": false,
      "inputs": [
        {
          "indexed": false,
          "internalType": "address",
          "name": "buyer",
          "type": "address"
        },
        {
          "indexed": false,
          "internalType": "uint256",
          "name": "baseTokenAmount",
          "type": "uint256"
        },
        {
          "indexed": false,
          "internalType": "uint256",
          "name": "marketFeeAmount",
          "type": "uint256"
        }
      ],
      "name": "BuyAndOrder",
      "type": "event"
    },
    {
      "anonymous": false,
      "inputs": [
        {
          "indexed": true,
          "internalType": "address",
          "name": "signer",
          "type": "address"
        },
        {
          "indexed": false,
          "internalType": "uint256",
          "name": "timestamp",
          "type": "uint256"
        },
        {
          "indexed": false,
          "internalType": "uint256",
          "name": "blockNumber",
          "type": "uint256"
        }
      ],
      "name": "CleanedPermissions",
      "type": "event"
    },
    {
      "anonymous": false,
      "inputs": [
        {
          "indexed": false,
          "internalType": "address",
          "name": "currentMinter",
          "type": "address"
        },
        {
          "indexed": false,
          "internalType": "address",
          "name": "newMinter",
          "type": "address"
        }
      ],
      "name": "MinterApproved",
      "type": "event"
    },
    {
      "anonymous": false,
      "inputs": [
        {
          "indexed": false,
          "internalType": "address",
          "name": "currentMinter",
          "type": "address"
        },
        {
          "indexed": false,
          "internalType": "address",
          "name": "newMinter",
          "type": "address"
        }
      ],
      "name": "MinterProposed",
      "type": "event"
    },
    {
      "anonymous": false,
      "inputs": [
        {
          "indexed": false,
          "internalType": "bytes32",
          "name": "exchangeId",
          "type": "bytes32"
        },
        {
          "indexed": false,
          "internalType": "address",
          "name": "owner",
          "type": "address"
        }
      ],
      "name": "NewFixedRate",
      "type": "event"
    },
    {
      "anonymous": false,
      "inputs": [
        {
          "indexed": true,
          "internalType": "address",
          "name": "caller",
          "type": "address"
        },
        {
          "indexed": true,
          "internalType": "address",
          "name": "_newPaymentCollector",
          "type": "address"
        },
        {
          "indexed": false,
          "internalType": "uint256",
          "name": "timestamp",
          "type": "uint256"
        },
        {
          "indexed": false,
          "internalType": "uint256",
          "name": "blockNumber",
          "type": "uint256"
        }
      ],
      "name": "NewPaymentCollector",
      "type": "event"
    },
    {
      "anonymous": false,
      "inputs": [
        {
          "indexed": false,
          "internalType": "address",
          "name": "poolAddress",
          "type": "address"
        },
        {
          "indexed": false,
          "internalType": "address",
          "name": "ssContract",
          "type": "address"
        },
        {
          "indexed": false,
          "internalType": "address",
          "name": "basetokenAddress",
          "type": "address"
        }
      ],
      "name": "NewPool",
      "type": "event"
    },
    {
      "anonymous": false,
      "inputs": [
        {
          "indexed": true,
          "internalType": "address",
          "name": "consumer",
          "type": "address"
        },
        {
          "indexed": false,
          "internalType": "address",
          "name": "payer",
          "type": "address"
        },
        {
          "indexed": false,
          "internalType": "uint256",
          "name": "amount",
          "type": "uint256"
        },
        {
          "indexed": false,
          "internalType": "uint256",
          "name": "serviceIndex",
          "type": "uint256"
        },
        {
          "indexed": false,
          "internalType": "uint256",
          "name": "timestamp",
          "type": "uint256"
        },
        {
          "indexed": true,
          "internalType": "address",
          "name": "publishMarketAddress",
          "type": "address"
        },
        {
          "indexed": false,
          "internalType": "uint256",
          "name": "blockNumber",
          "type": "uint256"
        }
      ],
      "name": "OrderStarted",
      "type": "event"
    },
    {
      "anonymous": false,
      "inputs": [
        {
          "indexed": true,
          "internalType": "address",
          "name": "providerFeeAddress",
          "type": "address"
        },
        {
          "indexed": true,
          "internalType": "address",
          "name": "providerFeeToken",
          "type": "address"
        },
        {
          "indexed": false,
          "internalType": "uint256",
          "name": "providerFeeAmount",
          "type": "uint256"
        }
      ],
      "name": "ProviderFees",
      "type": "event"
    },
    {
      "anonymous": false,
      "inputs": [
        {
          "indexed": true,
          "internalType": "address",
          "name": "PublishMarketFeeAddress",
          "type": "address"
        },
        {
          "indexed": true,
          "internalType": "address",
          "name": "PublishMarketFeeToken",
          "type": "address"
        },
        {
          "indexed": false,
          "internalType": "uint256",
          "name": "PublishMarketFeeAmount",
          "type": "uint256"
        }
      ],
      "name": "PublishMarketFees",
      "type": "event"
    },
    {
      "anonymous": false,
      "inputs": [
        {
          "indexed": false,
          "internalType": "address",
          "name": "caller",
          "type": "address"
        },
        {
          "indexed": false,
          "internalType": "address",
          "name": "PublishMarketFeeAddress",
          "type": "address"
        },
        {
          "indexed": false,
          "internalType": "address",
          "name": "PublishMarketFeeToken",
          "type": "address"
        },
        {
          "indexed": false,
          "internalType": "uint256",
          "name": "PublishMarketFeeAmount",
          "type": "uint256"
        }
      ],
      "name": "PublishMarketFeesChanged",
      "type": "event"
    },
    {
      "anonymous": false,
      "inputs": [
        {
          "indexed": true,
          "internalType": "address",
          "name": "user",
          "type": "address"
        },
        {
          "indexed": true,
          "internalType": "address",
          "name": "signer",
          "type": "address"
        },
        {
          "indexed": false,
          "internalType": "uint256",
          "name": "timestamp",
          "type": "uint256"
        },
        {
          "indexed": false,
          "internalType": "uint256",
          "name": "blockNumber",
          "type": "uint256"
        }
      ],
      "name": "RemovedMinter",
      "type": "event"
    },
    {
      "anonymous": false,
      "inputs": [
        {
          "indexed": true,
          "internalType": "address",
          "name": "user",
          "type": "address"
        },
        {
          "indexed": true,
          "internalType": "address",
          "name": "signer",
          "type": "address"
        },
        {
          "indexed": false,
          "internalType": "uint256",
          "name": "timestamp",
          "type": "uint256"
        },
        {
          "indexed": false,
          "internalType": "uint256",
          "name": "blockNumber",
          "type": "uint256"
        }
      ],
      "name": "RemovedPaymentManager",
      "type": "event"
    },
    {
      "anonymous": false,
      "inputs": [
        {
          "indexed": true,
          "internalType": "address",
          "name": "from",
          "type": "address"
        },
        {
          "indexed": true,
          "internalType": "address",
          "name": "to",
          "type": "address"
        },
        {
          "indexed": false,
          "internalType": "uint256",
          "name": "value",
          "type": "uint256"
        }
      ],
      "name": "Transfer",
      "type": "event"
    },
    {
      "stateMutability": "payable",
      "type": "fallback"
    },
    {
      "inputs": [],
      "name": "BASE",
      "outputs": [
        {
          "internalType": "uint256",
          "name": "",
          "type": "uint256"
        }
      ],
      "stateMutability": "view",
      "type": "function"
    },
    {
      "inputs": [],
      "name": "BASE_COMMUNITY_FEE_PERCENTAGE",
      "outputs": [
        {
          "internalType": "uint256",
          "name": "",
          "type": "uint256"
        }
      ],
      "stateMutability": "view",
      "type": "function"
    },
    {
      "inputs": [],
      "name": "DOMAIN_SEPARATOR",
      "outputs": [
        {
          "internalType": "bytes32",
          "name": "",
          "type": "bytes32"
        }
      ],
      "stateMutability": "view",
      "type": "function"
    },
    {
      "inputs": [],
      "name": "PERMIT_TYPEHASH",
      "outputs": [
        {
          "internalType": "bytes32",
          "name": "",
          "type": "bytes32"
        }
      ],
      "stateMutability": "view",
      "type": "function"
    },
    {
      "inputs": [
        {
          "internalType": "address",
          "name": "_minter",
          "type": "address"
        }
      ],
      "name": "addMinter",
      "outputs": [],
      "stateMutability": "nonpayable",
      "type": "function"
    },
    {
      "inputs": [
        {
          "internalType": "address",
          "name": "_paymentManager",
          "type": "address"
        }
      ],
      "name": "addPaymentManager",
      "outputs": [],
      "stateMutability": "nonpayable",
      "type": "function"
    },
    {
      "inputs": [
        {
          "internalType": "address",
          "name": "owner",
          "type": "address"
        },
        {
          "internalType": "address",
          "name": "spender",
          "type": "address"
        }
      ],
      "name": "allowance",
      "outputs": [
        {
          "internalType": "uint256",
          "name": "",
          "type": "uint256"
        }
      ],
      "stateMutability": "view",
      "type": "function"
    },
    {
      "inputs": [
        {
          "internalType": "address",
          "name": "spender",
          "type": "address"
        },
        {
          "internalType": "uint256",
          "name": "amount",
          "type": "uint256"
        }
      ],
      "name": "approve",
      "outputs": [
        {
          "internalType": "bool",
          "name": "",
          "type": "bool"
        }
      ],
      "stateMutability": "nonpayable",
      "type": "function"
    },
    {
      "inputs": [
        {
          "internalType": "uint256",
          "name": "",
          "type": "uint256"
        }
      ],
      "name": "authERC20",
      "outputs": [
        {
          "internalType": "address",
          "name": "",
          "type": "address"
        }
      ],
      "stateMutability": "view",
      "type": "function"
    },
    {
      "inputs": [
        {
          "internalType": "address",
          "name": "account",
          "type": "address"
        }
      ],
      "name": "balanceOf",
      "outputs": [
        {
          "internalType": "uint256",
          "name": "",
          "type": "uint256"
        }
      ],
      "stateMutability": "view",
      "type": "function"
    },
    {
      "inputs": [
        {
          "internalType": "uint256",
          "name": "amount",
          "type": "uint256"
        }
      ],
      "name": "burn",
      "outputs": [],
      "stateMutability": "nonpayable",
      "type": "function"
    },
    {
      "inputs": [
        {
          "internalType": "address",
          "name": "account",
          "type": "address"
        },
        {
          "internalType": "uint256",
          "name": "amount",
          "type": "uint256"
        }
      ],
      "name": "burnFrom",
      "outputs": [],
      "stateMutability": "nonpayable",
      "type": "function"
    },
    {
      "inputs": [
        {
          "components": [
            {
              "internalType": "address",
              "name": "consumer",
              "type": "address"
            },
            {
              "internalType": "uint256",
              "name": "amount",
              "type": "uint256"
            },
            {
              "internalType": "uint256",
              "name": "serviceIndex",
              "type": "uint256"
            },
            {
              "internalType": "address",
              "name": "providerFeeAddress",
              "type": "address"
            },
            {
              "internalType": "address",
              "name": "providerFeeToken",
              "type": "address"
            },
            {
              "internalType": "uint256",
              "name": "providerFeeAmount",
              "type": "uint256"
            }
          ],
          "internalType": "struct ERC20TemplateEnterprise.OrderParams",
          "name": "_orderParams",
          "type": "tuple"
        },
        {
          "internalType": "address",
          "name": "dispenserContract",
          "type": "address"
        }
      ],
      "name": "buyFromDispenserAndOrder",
      "outputs": [],
      "stateMutability": "nonpayable",
      "type": "function"
    },
    {
      "inputs": [
        {
          "components": [
            {
              "internalType": "address",
              "name": "consumer",
              "type": "address"
            },
            {
              "internalType": "uint256",
              "name": "amount",
              "type": "uint256"
            },
            {
              "internalType": "uint256",
              "name": "serviceIndex",
              "type": "uint256"
            },
            {
              "internalType": "address",
              "name": "providerFeeAddress",
              "type": "address"
            },
            {
              "internalType": "address",
              "name": "providerFeeToken",
              "type": "address"
            },
            {
              "internalType": "uint256",
              "name": "providerFeeAmount",
              "type": "uint256"
            }
          ],
          "internalType": "struct ERC20TemplateEnterprise.OrderParams",
          "name": "_orderParams",
          "type": "tuple"
        },
        {
          "components": [
            {
              "internalType": "address",
              "name": "exchangeContract",
              "type": "address"
            },
            {
              "internalType": "bytes32",
              "name": "exchangeId",
              "type": "bytes32"
            },
            {
              "internalType": "uint256",
              "name": "maxBaseTokenAmount",
              "type": "uint256"
            },
            {
              "internalType": "uint256",
              "name": "swapMarketFee",
              "type": "uint256"
            },
            {
              "internalType": "address",
              "name": "marketFeeAddress",
              "type": "address"
            }
          ],
          "internalType": "struct ERC20TemplateEnterprise.FreParams",
          "name": "_freParams",
          "type": "tuple"
        }
      ],
      "name": "buyFromFreAndOrder",
      "outputs": [],
      "stateMutability": "nonpayable",
      "type": "function"
    },
    {
      "inputs": [],
      "name": "cap",
      "outputs": [
        {
          "internalType": "uint256",
          "name": "",
          "type": "uint256"
        }
      ],
      "stateMutability": "view",
      "type": "function"
    },
    {
      "inputs": [],
      "name": "cleanFrom721",
      "outputs": [],
      "stateMutability": "nonpayable",
      "type": "function"
    },
    {
      "inputs": [],
      "name": "cleanPermissions",
      "outputs": [],
      "stateMutability": "nonpayable",
      "type": "function"
    },
    {
      "inputs": [
        {
          "internalType": "address",
          "name": "_dispenser",
          "type": "address"
        },
        {
          "internalType": "uint256",
          "name": "maxTokens",
          "type": "uint256"
        },
        {
          "internalType": "uint256",
          "name": "maxBalance",
          "type": "uint256"
        },
        {
          "internalType": "bool",
          "name": "withMint",
          "type": "bool"
        }
      ],
      "name": "createDispenser",
      "outputs": [],
      "stateMutability": "nonpayable",
      "type": "function"
    },
    {
      "inputs": [
        {
          "internalType": "address",
          "name": "fixedPriceAddress",
          "type": "address"
        },
        {
          "internalType": "address[]",
          "name": "addresses",
          "type": "address[]"
        },
        {
          "internalType": "uint256[]",
          "name": "uints",
          "type": "uint256[]"
        }
      ],
      "name": "createFixedRate",
      "outputs": [
        {
          "internalType": "bytes32",
          "name": "exchangeId",
          "type": "bytes32"
        }
      ],
      "stateMutability": "nonpayable",
      "type": "function"
    },
    {
      "inputs": [],
      "name": "decimals",
      "outputs": [
        {
          "internalType": "uint8",
          "name": "",
          "type": "uint8"
        }
      ],
      "stateMutability": "pure",
      "type": "function"
    },
    {
      "inputs": [
        {
          "internalType": "address",
          "name": "spender",
          "type": "address"
        },
        {
          "internalType": "uint256",
          "name": "subtractedValue",
          "type": "uint256"
        }
      ],
      "name": "decreaseAllowance",
      "outputs": [
        {
          "internalType": "bool",
          "name": "",
          "type": "bool"
        }
      ],
      "stateMutability": "nonpayable",
      "type": "function"
    },
    {
      "inputs": [],
      "name": "getERC721Address",
      "outputs": [
        {
          "internalType": "address",
          "name": "",
          "type": "address"
        }
      ],
      "stateMutability": "view",
      "type": "function"
    },
    {
      "inputs": [],
      "name": "getId",
      "outputs": [
        {
          "internalType": "uint8",
          "name": "",
          "type": "uint8"
        }
      ],
      "stateMutability": "pure",
      "type": "function"
    },
    {
      "inputs": [],
      "name": "getPaymentCollector",
      "outputs": [
        {
          "internalType": "address",
          "name": "",
          "type": "address"
        }
      ],
      "stateMutability": "view",
      "type": "function"
    },
    {
      "inputs": [],
      "name": "getPublishingMarketFee",
      "outputs": [
        {
          "internalType": "address",
          "name": "",
          "type": "address"
        },
        {
          "internalType": "address",
          "name": "",
          "type": "address"
        },
        {
          "internalType": "uint256",
          "name": "",
          "type": "uint256"
        }
      ],
      "stateMutability": "view",
      "type": "function"
    },
    {
      "inputs": [
        {
          "internalType": "address",
          "name": "spender",
          "type": "address"
        },
        {
          "internalType": "uint256",
          "name": "addedValue",
          "type": "uint256"
        }
      ],
      "name": "increaseAllowance",
      "outputs": [
        {
          "internalType": "bool",
          "name": "",
          "type": "bool"
        }
      ],
      "stateMutability": "nonpayable",
      "type": "function"
    },
    {
      "inputs": [
        {
          "internalType": "string[]",
          "name": "strings_",
          "type": "string[]"
        },
        {
          "internalType": "address[]",
          "name": "addresses_",
          "type": "address[]"
        },
        {
          "internalType": "address[]",
          "name": "factoryAddresses_",
          "type": "address[]"
        },
        {
          "internalType": "uint256[]",
          "name": "uints_",
          "type": "uint256[]"
        },
        {
          "internalType": "bytes[]",
          "name": "bytes_",
          "type": "bytes[]"
        }
      ],
      "name": "initialize",
      "outputs": [
        {
          "internalType": "bool",
          "name": "",
          "type": "bool"
        }
      ],
      "stateMutability": "nonpayable",
      "type": "function"
    },
    {
      "inputs": [
        {
          "internalType": "address",
          "name": "user",
          "type": "address"
        }
      ],
      "name": "isERC20Deployer",
      "outputs": [
        {
          "internalType": "bool",
          "name": "deployer",
          "type": "bool"
        }
      ],
      "stateMutability": "nonpayable",
      "type": "function"
    },
    {
      "inputs": [],
      "name": "isInitialized",
      "outputs": [
        {
          "internalType": "bool",
          "name": "",
          "type": "bool"
        }
      ],
      "stateMutability": "view",
      "type": "function"
    },
    {
      "inputs": [
        {
          "internalType": "address",
          "name": "account",
          "type": "address"
        }
      ],
      "name": "isMinter",
      "outputs": [
        {
          "internalType": "bool",
          "name": "",
          "type": "bool"
        }
      ],
      "stateMutability": "view",
      "type": "function"
    },
    {
      "inputs": [
        {
          "internalType": "address",
          "name": "account",
          "type": "address"
        },
        {
          "internalType": "uint256",
          "name": "value",
          "type": "uint256"
        }
      ],
      "name": "mint",
      "outputs": [],
      "stateMutability": "nonpayable",
      "type": "function"
    },
    {
      "inputs": [],
      "name": "name",
      "outputs": [
        {
          "internalType": "string",
          "name": "",
          "type": "string"
        }
      ],
      "stateMutability": "view",
      "type": "function"
    },
    {
      "inputs": [
        {
          "internalType": "address",
          "name": "",
          "type": "address"
        }
      ],
      "name": "nonces",
      "outputs": [
        {
          "internalType": "uint256",
          "name": "",
          "type": "uint256"
        }
      ],
      "stateMutability": "view",
      "type": "function"
    },
    {
      "inputs": [
        {
          "internalType": "address",
          "name": "",
          "type": "address"
        }
      ],
      "name": "permissions",
      "outputs": [
        {
          "internalType": "bool",
          "name": "minter",
          "type": "bool"
        },
        {
          "internalType": "bool",
          "name": "paymentManager",
          "type": "bool"
        }
      ],
      "stateMutability": "view",
      "type": "function"
    },
    {
      "inputs": [
        {
          "internalType": "address",
          "name": "owner",
          "type": "address"
        },
        {
          "internalType": "address",
          "name": "spender",
          "type": "address"
        },
        {
          "internalType": "uint256",
          "name": "value",
          "type": "uint256"
        },
        {
          "internalType": "uint256",
          "name": "deadline",
          "type": "uint256"
        },
        {
          "internalType": "uint8",
          "name": "v",
          "type": "uint8"
        },
        {
          "internalType": "bytes32",
          "name": "r",
          "type": "bytes32"
        },
        {
          "internalType": "bytes32",
          "name": "s",
          "type": "bytes32"
        }
      ],
      "name": "permit",
      "outputs": [],
      "stateMutability": "nonpayable",
      "type": "function"
    },
    {
      "inputs": [
        {
          "internalType": "address",
          "name": "_minter",
          "type": "address"
        }
      ],
      "name": "removeMinter",
      "outputs": [],
      "stateMutability": "nonpayable",
      "type": "function"
    },
    {
      "inputs": [
        {
          "internalType": "address",
          "name": "_paymentManager",
          "type": "address"
        }
      ],
      "name": "removePaymentManager",
      "outputs": [],
      "stateMutability": "nonpayable",
      "type": "function"
    },
    {
      "inputs": [],
      "name": "router",
      "outputs": [
        {
          "internalType": "address",
          "name": "",
          "type": "address"
        }
      ],
      "stateMutability": "view",
      "type": "function"
    },
    {
      "inputs": [
        {
          "internalType": "bytes",
          "name": "_value",
          "type": "bytes"
        }
      ],
      "name": "setData",
      "outputs": [],
      "stateMutability": "nonpayable",
      "type": "function"
    },
    {
      "inputs": [
        {
          "internalType": "address",
          "name": "_newPaymentCollector",
          "type": "address"
        }
      ],
      "name": "setPaymentCollector",
      "outputs": [],
      "stateMutability": "nonpayable",
      "type": "function"
    },
    {
      "inputs": [
        {
          "internalType": "address",
          "name": "_publishMarketFeeAddress",
          "type": "address"
        },
        {
          "internalType": "address",
          "name": "_publishMarketFeeToken",
          "type": "address"
        },
        {
          "internalType": "uint256",
          "name": "_publishMarketFeeAmount",
          "type": "uint256"
        }
      ],
      "name": "setPublishingMarketFee",
      "outputs": [],
      "stateMutability": "nonpayable",
      "type": "function"
    },
    {
      "inputs": [
        {
          "internalType": "address",
          "name": "consumer",
          "type": "address"
        },
        {
          "internalType": "uint256",
          "name": "amount",
          "type": "uint256"
        },
        {
          "internalType": "uint256",
          "name": "serviceIndex",
          "type": "uint256"
        },
        {
          "internalType": "address",
          "name": "providerFeeAddress",
          "type": "address"
        },
        {
          "internalType": "address",
          "name": "providerFeeToken",
          "type": "address"
        },
        {
          "internalType": "uint256",
          "name": "providerFeeAmount",
          "type": "uint256"
        }
      ],
      "name": "startOrder",
      "outputs": [],
      "stateMutability": "nonpayable",
      "type": "function"
    },
    {
      "inputs": [],
      "name": "symbol",
      "outputs": [
        {
          "internalType": "string",
          "name": "",
          "type": "string"
        }
      ],
      "stateMutability": "view",
      "type": "function"
    },
    {
      "inputs": [],
      "name": "totalSupply",
      "outputs": [
        {
          "internalType": "uint256",
          "name": "",
          "type": "uint256"
        }
      ],
      "stateMutability": "view",
      "type": "function"
    },
    {
      "inputs": [
        {
          "internalType": "address",
          "name": "recipient",
          "type": "address"
        },
        {
          "internalType": "uint256",
          "name": "amount",
          "type": "uint256"
        }
      ],
      "name": "transfer",
      "outputs": [
        {
          "internalType": "bool",
          "name": "",
          "type": "bool"
        }
      ],
      "stateMutability": "nonpayable",
      "type": "function"
    },
    {
      "inputs": [
        {
          "internalType": "address",
          "name": "sender",
          "type": "address"
        },
        {
          "internalType": "address",
          "name": "recipient",
          "type": "address"
        },
        {
          "internalType": "uint256",
          "name": "amount",
          "type": "uint256"
        }
      ],
      "name": "transferFrom",
      "outputs": [
        {
          "internalType": "bool",
          "name": "",
          "type": "bool"
        }
      ],
      "stateMutability": "nonpayable",
      "type": "function"
    },
    {
      "inputs": [],
      "name": "withdrawETH",
      "outputs": [],
      "stateMutability": "payable",
      "type": "function"
    }
  ],
  "bytecode": "0x6080604052600a805460ff60a01b191690553480156200001e57600080fd5b5060408051808201825260048152631d195cdd60e21b60208083019182528351808501909452600a8452691d195cdd14de5b589bdb60b21b9084015281519192916200006d916003916200008c565b508051620000839060049060208401906200008c565b5050506200016f565b8280546200009a9062000132565b90600052602060002090601f016020900481019282620000be576000855562000109565b82601f10620000d957805160ff191683800117855562000109565b8280016001018555821562000109579182015b8281111562000109578251825591602001919060010190620000ec565b50620001179291506200011b565b5090565b5b808211156200011757600081556001016200011c565b600181811c908216806200014757607f821691505b602082108114156200016957634e487b7160e01b600052602260045260246000fd5b50919050565b6142e6806200017f6000396000f3fe6080604052600436106102725760003560e01c806370a082311161014e578063ab62f0e1116100bb578063e487c2e811610077578063e487c2e81461081a578063ec342ad01461082f578063ef867ff41461084b578063f887ea401461086b578063f94bb4211461088b578063fda9dae7146108ab57005b8063ab62f0e114610757578063b2263a5d14610777578063b3998be01461078c578063d505accf146107ac578063dd62ed3e146107cc578063e086e5ec1461081257005b806396fb3eaf1161010a57806396fb3eaf1461067e578063983b2d561461069e578063a457c2d7146106be578063a9059cbb146106de578063aa271e1a146106fe578063aa492ef91461073757005b806370a08231146105b157806379cc6790146105e75780637ecebe001461060757806382c03da5146106345780638b96412b1461064957806395d89b411461066957005b8063355274ea116101ec57806340c10f19116101a857806340c10f191461050857806342966c68146105285780634f189cb21461054857806357a3a31b1461055d57806357ad5ff61461057d5780635d1ca6311461059d57005b8063355274ea146104425780633644e51514610457578063383028501461046d578063392e53cd1461048d57806339509351146104ac578063397b3743146104cc57005b80631d069feb1161023b5780631d069feb1461036c57806323b872dd1461038c57806325b00243146103ac5780633092afd5146103cc57806330adf81f146103ec578063313ce5671461042057005b80627ffb781461027457806301e88208146102ab57806306fdde03146102fb578063095ea7b31461031d57806318160ddd1461034d575b005b34801561028057600080fd5b50600b546001600160a01b03165b6040516001600160a01b0390911681526020015b60405180910390f35b3480156102b757600080fd5b506102e46102c63660046135a9565b60056020526000908152604090205460ff8082169161010090041682565b6040805192151583529015156020830152016102a2565b34801561030757600080fd5b506103106108cb565b6040516102a291906135f2565b34801561032957600080fd5b5061033d610338366004613625565b61095d565b60405190151581526020016102a2565b34801561035957600080fd5b506002545b6040519081526020016102a2565b34801561037857600080fd5b5061027261038736600461372d565b610973565b34801561039857600080fd5b5061033d6103a73660046137d6565b610d45565b3480156103b857600080fd5b506102726103c73660046135a9565b610df1565b3480156103d857600080fd5b506102726103e73660046135a9565b610e8b565b3480156103f857600080fd5b5061035e7f6e71edae12b1b97f4d1f60370fef10105fa2faae0126114a169c64845d6126c981565b34801561042c57600080fd5b5060125b60405160ff90911681526020016102a2565b34801561044e57600080fd5b5060095461035e565b34801561046357600080fd5b5061035e60105481565b34801561047957600080fd5b50610272610488366004613817565b610f22565b34801561049957600080fd5b50600a54600160a01b900460ff1661033d565b3480156104b857600080fd5b5061033d6104c7366004613625565b61102a565b3480156104d857600080fd5b50600d54600e54600f54604080516001600160a01b039485168152939092166020840152908201526060016102a2565b34801561051457600080fd5b50610272610523366004613625565b611066565b34801561053457600080fd5b5061027261054336600461384f565b611133565b34801561055457600080fd5b5061027261113d565b34801561056957600080fd5b506102726105783660046135a9565b611224565b34801561058957600080fd5b506102726105983660046137d6565b611366565b3480156105a957600080fd5b506002610430565b3480156105bd57600080fd5b5061035e6105cc3660046135a9565b6001600160a01b031660009081526020819052604090205490565b3480156105f357600080fd5b50610272610602366004613625565b6114ba565b34801561061357600080fd5b5061035e6106223660046135a9565b60116020526000908152604090205481565b34801561064057600080fd5b50610272611540565b34801561065557600080fd5b5061035e6106643660046138f7565b61159a565b34801561067557600080fd5b5061031061175b565b34801561068a57600080fd5b5061033d6106993660046135a9565b61176a565b3480156106aa57600080fd5b506102726106b93660046135a9565b6117e5565b3480156106ca57600080fd5b5061033d6106d9366004613625565b61187c565b3480156106ea57600080fd5b5061033d6106f9366004613625565b611915565b34801561070a57600080fd5b5061033d6107193660046135a9565b6001600160a01b031660009081526005602052604090205460ff1690565b34801561074357600080fd5b506102726107523660046135a9565b611922565b34801561076357600080fd5b506102726107723660046139cd565b6119b9565b34801561078357600080fd5b5061035e611aea565b34801561079857600080fd5b5061033d6107a7366004613a8b565b611b00565b3480156107b857600080fd5b506102726107c7366004613b7c565b611c3a565b3480156107d857600080fd5b5061035e6107e7366004613bf3565b6001600160a01b03918216600090815260016020908152604080832093909416825291909152205490565b610272611e4c565b34801561082657600080fd5b5061028e611e8c565b34801561083b57600080fd5b5061035e670de0b6b3a764000081565b34801561085757600080fd5b5061028e61086636600461384f565b611f21565b34801561087757600080fd5b5060125461028e906001600160a01b031681565b34801561089757600080fd5b506102726108a6366004613c2f565b611f4b565b3480156108b757600080fd5b506102726108c6366004613c79565b61206e565b6060600780546108da90613ce0565b80601f016020809104026020016040519081016040528092919081815260200182805461090690613ce0565b80156109535780601f1061092857610100808354040283529160200191610953565b820191906000526020600020905b81548152906001019060200180831161093657829003601f168201915b5050505050905090565b600061096a338484612084565b50600192915050565b80516020820151604051634c87087d60e01b815260009283926001600160a01b0390911691634c87087d916109ae9160040190815260200190565b61018060405180830381865afa1580156109cc573d6000803e3d6000fd5b505050506040513d601f19601f820116820180604052508101906109f09190613d1b565b5050505050505050935050925050306001600160a01b0316826001600160a01b031614610a745760405162461bcd60e51b815260206004820152602760248201527f5468697320466978656452617465206973206e6f742070726f766964696e67206044820152661d1a1a5cc8111560ca1b60648201526084015b60405180910390fd5b82516020808501519086015160405163c99733a760e01b81526004810192909252602482015260009182916001600160a01b039091169063c99733a790604401608060405180830381865afa158015610ad1573d6000803e3d6000fd5b505050506040513d601f19601f82011682018060405250810190610af59190613dd8565b5050915091508460400151821115610b5f5760405162461bcd60e51b815260206004820152602760248201527f46697865645261746545786368616e67653a20546f6f206d616e79206261736560448201526620746f6b656e7360c81b6064820152608401610a6b565b6000670de0b6b3a7640000866060015183610b7a9190613e24565b610b849190613e43565b905082610b918282613e65565b9350610ba86001600160a01b0386163330876121a8565b8651610bbf906001600160a01b0387169083612213565b8651602080890151908a015160405163412dae6b60e11b815260048101929092526024820152604481018690526001600160a01b039091169063825b5cd690606401600060405180830381600087803b158015610c1b57600080fd5b505af1158015610c2f573d6000803e3d6000fd5b505050508760200151610c57306001600160a01b031660009081526020819052604090205490565b1015610ca55760405162461bcd60e51b815260206004820152601f60248201527f556e61626c6520746f206275792044542066726f6d20466978656452617465006044820152606401610a6b565b610cb430338a602001516122c5565b610cda886000015189602001518a604001518b606001518c608001518d60a00151612493565b8115610cfa576080870151610cfa906001600160a01b038716908461276d565b60408051338152602081018690529081018390527fe89458a7527f4bf466ab18794ab8b1ca208b478483a1a87bcf0d976d421b4aff9060600160405180910390a15050505050505050565b6000610d528484846122c5565b6001600160a01b038416600090815260016020908152604080832033845290915290205482811015610dd75760405162461bcd60e51b815260206004820152602860248201527f45524332303a207472616e7366657220616d6f756e74206578636565647320616044820152676c6c6f77616e636560c01b6064820152608401610a6b565b610de48533858403612084565b60019150505b9392505050565b600b5460405163160a792560e01b81523360048201526001600160a01b039091169063160a7925906024016080604051808303816000875af1158015610e3b573d6000803e3d6000fd5b505050506040513d601f19601f82011682018060405250810190610e5f9190613e7d565b60200151610e7f5760405162461bcd60e51b8152600401610a6b90613f02565b610e888161279d565b50565b600b5460405163160a792560e01b81523360048201526001600160a01b039091169063160a7925906024016080604051808303816000875af1158015610ed5573d6000803e3d6000fd5b505050506040513d601f19601f82011682018060405250810190610ef99190613e7d565b60200151610f195760405162461bcd60e51b8152600401610a6b90613f02565b610e888161280a565b6020820151604051631d746d8360e01b815230600482015260248101919091523360448201526001600160a01b03821690631d746d8390606401600060405180830381600087803b158015610f7657600080fd5b505af1158015610f8a573d6000803e3d6000fd5b505050508160200151610fb2336001600160a01b031660009081526020819052604090205490565b10156110005760405162461bcd60e51b815260206004820152601f60248201527f556e61626c6520746f206765742044542066726f6d2044697370656e736572006044820152606401610a6b565b611026826000015183602001518460400151856060015186608001518760a00151612493565b5050565b3360008181526001602090815260408083206001600160a01b0387168452909152812054909161096a918590611061908690613e65565b612084565b3360009081526005602052604090205460ff166110c55760405162461bcd60e51b815260206004820152601960248201527f455243323054656d706c6174653a204e4f54204d494e544552000000000000006044820152606401610a6b565b6009546110db826110d560025490565b9061286a565b11156111295760405162461bcd60e51b815260206004820152601f60248201527f44617461546f6b656e54656d706c6174653a20636170206578636565646564006044820152606401610a6b565b6110268282612876565b610e883382612955565b600b546040516331a9108f60e11b8152600160048201526001600160a01b0390911690636352211e90602401602060405180830381865afa158015611186573d6000803e3d6000fd5b505050506040513d601f19601f820116820180604052508101906111aa9190613f37565b6001600160a01b0316336001600160a01b03161461120a5760405162461bcd60e51b815260206004820152601b60248201527f455243323054656d706c6174653a206e6f74204e46544f776e657200000000006044820152606401610a6b565b611212612aa3565b600c80546001600160a01b0319169055565b33600090815260056020526040902054610100900460ff16806112b55750600b5460405163160a792560e01b81523360048201526001600160a01b039091169063160a7925906024016080604051808303816000875af115801561128c573d6000803e3d6000fd5b505050506040513d601f19601f820116820180604052508101906112b09190613e7d565b602001515b6113155760405162461bcd60e51b815260206004820152602b60248201527f455243323054656d706c6174653a204e4f54205041594d454e54204d414e414760448201526a22a91037b91027aba722a960a91b6064820152608401610a6b565b61131e81612b52565b604080514281524360208201526001600160a01b0383169133917f4d7694d695c57cc54947177c8e8a0e61aae664e9223492a798c32fadfc6419cc910160405180910390a350565b600d546001600160a01b031633146113d35760405162461bcd60e51b815260206004820152602a60248201527f455243323054656d706c6174653a206e6f74207075626c6973684d61726b65746044820152694665654164647265737360b01b6064820152608401610a6b565b6001600160a01b03831661143a5760405162461bcd60e51b815260206004820152602860248201527f496e76616c6964205f7075626c6973684d61726b657446656541646472657373604482015267206164647265737360c01b6064820152608401610a6b565b600d80546001600160a01b038581166001600160a01b03199283168117909355600e8054918616919092168117909155600f839055604080513381526020810193909352820152606081018290527fe0b85b6f04fa914cf57f6401c5672a83a32b1c388d194c3d78e17f2897d46f439060800160405180910390a1505050565b60006114c683336107e7565b9050818110156115245760405162461bcd60e51b8152602060048201526024808201527f45524332303a206275726e20616d6f756e74206578636565647320616c6c6f77604482015263616e636560e01b6064820152608401610a6b565b6115318333848403612084565b61153b8383612955565b505050565b600b546001600160a01b0316331461120a5760405162461bcd60e51b815260206004820152601f60248201527f455243323054656d706c6174653a204e4f542037323120436f6e7472616374006044820152606401610a6b565b600b5460405163160a792560e01b81523360048201526000916001600160a01b03169063160a7925906024016080604051808303816000875af11580156115e5573d6000803e3d6000fd5b505050506040513d601f19601f820116820180604052508101906116099190613e7d565b602001516116295760405162461bcd60e51b8152600401610a6b90613f02565b308360038151811061163d5761163d613f54565b6001600160a01b039283166020918202929092010152601254604051638244937560e01b815291169063824493759061167e90879087908790600401613f6a565b6020604051808303816000875af115801561169d573d6000803e3d6000fd5b505050506040513d601f19601f820116820180604052508101906116c19190613ffe565b90506000826004815181106116d8576116d8613f54565b602002602001015111156116ef576116ef84612b74565b7f195d202f33578769e120c3041341554af3193e67ee004175095bc9c06e6e6165818460008151811061172457611724613f54565b602002602001015160405161174c9291909182526001600160a01b0316602082015260400190565b60405180910390a19392505050565b6060600880546108da90613ce0565b600b5460405163160a792560e01b81526001600160a01b038381166004830152600092169063160a7925906024016080604051808303816000875af11580156117b7573d6000803e3d6000fd5b505050506040513d601f19601f820116820180604052508101906117db9190613e7d565b6020015192915050565b600b5460405163160a792560e01b81523360048201526001600160a01b039091169063160a7925906024016080604051808303816000875af115801561182f573d6000803e3d6000fd5b505050506040513d601f19601f820116820180604052508101906118539190613e7d565b602001516118735760405162461bcd60e51b8152600401610a6b90613f02565b610e8881612b74565b3360009081526001602090815260408083206001600160a01b0386168452909152812054828110156118fe5760405162461bcd60e51b815260206004820152602560248201527f45524332303a2064656372656173656420616c6c6f77616e63652062656c6f77604482015264207a65726f60d81b6064820152608401610a6b565b61190b3385858403612084565b5060019392505050565b600061096a3384846122c5565b600b5460405163160a792560e01b81523360048201526001600160a01b039091169063160a7925906024016080604051808303816000875af115801561196c573d6000803e3d6000fd5b505050506040513d601f19601f820116820180604052508101906119909190613e7d565b602001516119b05760405162461bcd60e51b8152600401610a6b90613f02565b610e8881612c6e565b600b5460405163160a792560e01b81523360048201526001600160a01b039091169063160a7925906024016080604051808303816000875af1158015611a03573d6000803e3d6000fd5b505050506040513d601f19601f82011682018060405250810190611a279190613e7d565b60200151611a475760405162461bcd60e51b8152600401610a6b90613f02565b6040516bffffffffffffffffffffffff193060601b16602082015260009060340160408051601f19818403018152908290528051602090910120600b546301caf8fd60e31b83529092506001600160a01b031690630e57c7e890611ab390849087908790600401614017565b600060405180830381600087803b158015611acd57600080fd5b505af1158015611ae1573d6000803e3d6000fd5b50505050505050565b611afd6064670de0b6b3a7640000613e43565b81565b600a54600090600160a01b900460ff1615611b775760405162461bcd60e51b815260206004820152603160248201527f455243323054656d706c6174653a20746f6b656e20696e7374616e636520616c6044820152701c9958591e481a5b9a5d1a585b1a5e9959607a1b6064820152608401610a6b565b611c2b611b848b8d6140a5565b8a8a8080602002602001604051908101604052809392919081815260200183836020028082843760009201919091525050604080516020808e0282810182019093528d82529093508d92508c91829185019084908082843760009201919091525050604080516020808d0282810182019093528c82529093508c92508b918291850190849080828437600092019190915250611c2692508991508a905061412d565b612d7c565b9b9a5050505050505050505050565b43841015611c7d5760405162461bcd60e51b815260206004820152601060248201526f115490cc8c11150e881156141254915160821b6044820152606401610a6b565b6010546001600160a01b038816600090815260116020526040812080549192917f6e71edae12b1b97f4d1f60370fef10105fa2faae0126114a169c64845d6126c9918b918b918b919087611cd0836141a9565b909155506040805160208101969096526001600160a01b0394851690860152929091166060840152608083015260a082015260c0810187905260e00160405160208183030381529060405280519060200120604051602001611d4992919061190160f01b81526002810192909252602282015260420190565b60408051601f198184030181528282528051602091820120600080855291840180845281905260ff88169284019290925260608301869052608083018590529092509060019060a0016020604051602081039080840390855afa158015611db4573d6000803e3d6000fd5b5050604051601f1901519150506001600160a01b03811615801590611dea5750886001600160a01b0316816001600160a01b0316145b611e365760405162461bcd60e51b815260206004820152601a60248201527f455243323044543a20494e56414c49445f5349474e41545552450000000000006044820152606401610a6b565b611e41898989612084565b505050505050505050565b611e54611e8c565b6001600160a01b03166108fc479081150290604051600060405180830381858888f19350505050158015610e88573d6000803e3d6000fd5b600c546000906001600160a01b0316611f1157600b546040516331a9108f60e11b8152600160048201526001600160a01b0390911690636352211e90602401602060405180830381865afa158015611ee8573d6000803e3d6000fd5b505050506040513d601f19601f82011682018060405250810190611f0c9190613f37565b905090565b50600c546001600160a01b031690565b60068181548110611f3157600080fd5b6000918252602090912001546001600160a01b0316905081565b600b5460405163160a792560e01b81523360048201526001600160a01b039091169063160a7925906024016080604051808303816000875af1158015611f95573d6000803e3d6000fd5b505050506040513d601f19601f82011682018060405250810190611fb99190613e7d565b60200151611fd95760405162461bcd60e51b8152600401610a6b90613f02565b601254604051636b14d00560e11b81526001600160a01b0386811660048301523060248301819052604483018790526064830186905233608484015260a48301529091169063d629a00a9060c401600060405180830381600087803b15801561204157600080fd5b505af1158015612055573d6000803e3d6000fd5b5050505080156120685761206884612b74565b50505050565b61207c868686868686612493565b505050505050565b6001600160a01b0383166120e65760405162461bcd60e51b8152602060048201526024808201527f45524332303a20617070726f76652066726f6d20746865207a65726f206164646044820152637265737360e01b6064820152608401610a6b565b6001600160a01b0382166121475760405162461bcd60e51b815260206004820152602260248201527f45524332303a20617070726f766520746f20746865207a65726f206164647265604482015261737360f01b6064820152608401610a6b565b6001600160a01b0383811660008181526001602090815260408083209487168084529482529182902085905590518481527f8c5be1e5ebec7d5bd14f71427d1e84f3dd0314c0f7b2291e5b200ac8c7c3b925910160405180910390a3505050565b6040516001600160a01b03808516602483015283166044820152606481018290526120689085906323b872dd60e01b906084015b60408051601f198184030181529190526020810180516001600160e01b03166001600160e01b03199093169290921790915261327b565b604051636eb1769f60e11b81523060048201526001600160a01b038381166024830152600091839186169063dd62ed3e90604401602060405180830381865afa158015612264573d6000803e3d6000fd5b505050506040513d601f19601f820116820180604052508101906122889190613ffe565b6122929190613e65565b6040516001600160a01b03851660248201526044810182905290915061206890859063095ea7b360e01b906064016121dc565b6001600160a01b0383166123295760405162461bcd60e51b815260206004820152602560248201527f45524332303a207472616e736665722066726f6d20746865207a65726f206164604482015264647265737360d81b6064820152608401610a6b565b6001600160a01b03821661238b5760405162461bcd60e51b815260206004820152602360248201527f45524332303a207472616e7366657220746f20746865207a65726f206164647260448201526265737360e81b6064820152608401610a6b565b6001600160a01b038316600090815260208190526040902054818110156124035760405162461bcd60e51b815260206004820152602660248201527f45524332303a207472616e7366657220616d6f756e7420657863656564732062604482015265616c616e636560d01b6064820152608401610a6b565b6001600160a01b0380851660009081526020819052604080822085850390559185168152908120805484929061243a908490613e65565b92505081905550826001600160a01b0316846001600160a01b03167fddf252ad1be2c89b69c2b068fc378daa952ba7f163c4a11628f55a4df523b3ef8460405161248691815260200190565b60405180910390a3612068565b336000908152602081905260408120548611156125005760405162461bcd60e51b815260206004820152602560248201527f4e6f7420656e6f756768204461746120546f6b656e7320746f2073746172742060448201526427b93232b960d91b6064820152608401610a6b565b600d5460408051338152602081018990529081018790524260608201524360808201526001600160a01b03918216918916907fe1c4fa794edfa8f619b8257a077398950357b9c6398528f94480307352f9afcc9060a00160405180910390a36000600f5411801561257b5750600e546001600160a01b031615155b80156125915750600d546001600160a01b031615155b156126bc57600f54600e546125b5916001600160a01b0390911690339030906121a8565b600f546125c390606461334d565b600d54600f549192506125f9916001600160a01b03909116906125e69084613359565b600e546001600160a01b0316919061276d565b600e54600d54600f546001600160a01b0392831692909116907ff666b31c81334b6085802ba4149907fa724689d43bc31df6de1a51291ddc55b49061263e9085613359565b60405190815260200160405180910390a380156126bc57600a54600e54612672916001600160a01b0391821691168361276d565b600e54600a546040518381526001600160a01b0392831692909116907ff666b31c81334b6085802ba4149907fa724689d43bc31df6de1a51291ddc55b49060200160405180910390a35b6000821180156126d457506001600160a01b03831615155b80156126e857506001600160a01b03841615155b15612764576127026001600160a01b0384163330856121a8565b6127166001600160a01b038416858461276d565b826001600160a01b0316846001600160a01b03167f1c540397cffcfd0fa041ec7e0d246506db42327dc3346fe1951185dc734569e48460405161275b91815260200190565b60405180910390a35b611ae186611133565b6040516001600160a01b03831660248201526044810182905261153b90849063a9059cbb60e01b906064016121dc565b6001600160a01b03811660008181526005602052604090819020805461ff00191681559051909133917faee911eec8b2df8f3ae0464841541b1e5f339519bd5cf51889fe8b07fecff658906127fe9042904390918252602082015260400190565b60405180910390a35050565b6001600160a01b03811660008181526005602052604090819020805460ff191681559051909133917fefa2735987005aaa89c050c0ff8cc9ae7d9079d19382081c429130f98c52d480906127fe9042904390918252602082015260400190565b6000610dea8284613e65565b6001600160a01b0382166128cc5760405162461bcd60e51b815260206004820152601f60248201527f45524332303a206d696e7420746f20746865207a65726f2061646472657373006044820152606401610a6b565b80600260008282546128de9190613e65565b90915550506001600160a01b0382166000908152602081905260408120805483929061290b908490613e65565b90915550506040518181526001600160a01b038316906000907fddf252ad1be2c89b69c2b068fc378daa952ba7f163c4a11628f55a4df523b3ef9060200160405180910390a35050565b6001600160a01b0382166129b55760405162461bcd60e51b815260206004820152602160248201527f45524332303a206275726e2066726f6d20746865207a65726f206164647265736044820152607360f81b6064820152608401610a6b565b6001600160a01b03821660009081526020819052604090205481811015612a295760405162461bcd60e51b815260206004820152602260248201527f45524332303a206275726e20616d6f756e7420657863656564732062616c616e604482015261636560f01b6064820152608401610a6b565b6001600160a01b0383166000908152602081905260408120838303905560028054849290612a589084906141c4565b90915550506040518281526000906001600160a01b038516907fddf252ad1be2c89b69c2b068fc378daa952ba7f163c4a11628f55a4df523b3ef9060200160405180910390a3505050565b60005b600654811015612b095760006005600060068481548110612ac957612ac9613f54565b60009182526020808320909101546001600160a01b031683528201929092526040019020805461ffff191690555080612b01816141a9565b915050612aa6565b50612b16600660006134dd565b6040805142815243602082015233917f712bc71db81927a76b8bf1ea346247bb0ad58f18e4e5c1bd4aa0ec6573e02a2b910160405180910390a2565b600c80546001600160a01b0319166001600160a01b0392909216919091179055565b6001600160a01b0381166000908152600560205260409020805460ff1615612bde5760405162461bcd60e51b815260206004820152601d60248201527f4552433230526f6c65733a2020414c52454144592041204d494e5445520000006044820152606401610a6b565b8054600160ff19909116811782556006805491820181556000527ff652222313e28459528d920b65115c16c04f3efc82aaedc97be59f3f377c0d3f0180546001600160a01b0319166001600160a01b038416908117909155604080514281524360208201523392917f4f7e100eb1ee13e903798bd0d6aa854152e07eb05544f392b9409c12935c809591016127fe565b6001600160a01b03811660009081526005602052604090208054610100900460ff1615612ce85760405162461bcd60e51b815260206004820152602260248201527f4552433230526f6c65733a2020414c5245414459204120464545204d414e414760448201526122a960f11b6064820152608401610a6b565b805461ff001916610100178155600680546001810182556000919091527ff652222313e28459528d920b65115c16c04f3efc82aaedc97be59f3f377c0d3f0180546001600160a01b0384166001600160a01b03199091168117909155604080514281524360208201523392917fb17da2e9910b4ba5754e8872385ba315a238bafb5ae221fc85093c33432c40a791016127fe565b60008084600081518110612d9257612d92613f54565b60200260200101519050600085600181518110612db157612db1613f54565b6020026020010151905060006001600160a01b0316826001600160a01b03161415612e335760405162461bcd60e51b815260206004820152602c60248201527f455243323054656d706c6174653a20496e76616c6964206d696e7465722c202060448201526b7a65726f206164647265737360a01b6064820152608401610a6b565b6001600160a01b038116612eaf5760405162461bcd60e51b815260206004820152603c60248201527f455243323054656d706c6174653a20496e76616c696420636f6d6d756e69747960448201527f2066656520636f6c6c6563746f722c207a65726f2061646472657373000000006064820152608401610a6b565b84600081518110612ec257612ec2613f54565b602002602001015160001415612f265760405162461bcd60e51b8152602060048201526024808201527f44617461546f6b656e54656d706c6174653a20496e76616c6964206361702076604482015263616c756560e01b6064820152608401610a6b565b84600081518110612f3957612f39613f54565b602002602001015160098190555087600081518110612f5a57612f5a613f54565b602002602001015160079080519060200190612f779291906134fb565b5087600181518110612f8b57612f8b613f54565b602002602001015160089080519060200190612fa89291906134fb565b50600b80546001600160a01b0319166001600160a01b038416179055855186906002908110612fd957612fd9613f54565b6020908102919091010151601280546001600160a01b039283166001600160a01b0319909116179055600a80546001600160a81b03191691831691909117600160a01b179055865161304390889060009061303657613036613f54565b6020026020010151612b74565b60006001600160a01b03168760018151811061306157613061613f54565b60200260200101516001600160a01b03161461310b5761309a8760018151811061308d5761308d613f54565b6020026020010151612b52565b866001815181106130ad576130ad613f54565b60200260200101516001600160a01b0316336001600160a01b03167f4d7694d695c57cc54947177c8e8a0e61aae664e9223492a798c32fadfc6419cc4243604051613102929190918252602082015260400190565b60405180910390a35b8660028151811061311e5761311e613f54565b6020026020010151600d60006101000a8154816001600160a01b0302191690836001600160a01b031602179055508660038151811061315f5761315f613f54565b6020026020010151600e60006101000a8154816001600160a01b0302191690836001600160a01b03160217905550846001815181106131a0576131a0613f54565b6020026020010151600f8190555060004690507f8b73c3c69bb8fe3d512ecc4cf759cc79239f7b179b0ffacaa9a75d522b39400f60076040516131e391906141db565b60408051918290038220828201825260018352603160f81b6020938401528151928301939093528101919091527fc89efdaa54c0f20c7adf612882df0950f5a951637e0307cdcb4c672f298b8bc66060820152608081018290523060a082015260c00160408051808303601f1901815291905280516020909101206010555050600a54600160a01b900460ff16979650505050505050565b60006132d0826040518060400160405280602081526020017f5361666545524332303a206c6f772d6c6576656c2063616c6c206661696c6564815250856001600160a01b03166133659092919063ffffffff16565b80519091501561153b57808060200190518101906132ee9190614277565b61153b5760405162461bcd60e51b815260206004820152602a60248201527f5361666545524332303a204552433230206f7065726174696f6e20646964206e6044820152691bdd081cdd58d8d9595960b21b6064820152608401610a6b565b6000610dea8284613e43565b6000610dea82846141c4565b6060613374848460008561337c565b949350505050565b6060824710156133dd5760405162461bcd60e51b815260206004820152602660248201527f416464726573733a20696e73756666696369656e742062616c616e636520666f6044820152651c8818d85b1b60d21b6064820152608401610a6b565b843b61342b5760405162461bcd60e51b815260206004820152601d60248201527f416464726573733a2063616c6c20746f206e6f6e2d636f6e74726163740000006044820152606401610a6b565b600080866001600160a01b031685876040516134479190614294565b60006040518083038185875af1925050503d8060008114613484576040519150601f19603f3d011682016040523d82523d6000602084013e613489565b606091505b50915091506134998282866134a4565b979650505050505050565b606083156134b3575081610dea565b8251156134c35782518084602001fd5b8160405162461bcd60e51b8152600401610a6b91906135f2565b5080546000825590600052602060002090810190610e88919061357f565b82805461350790613ce0565b90600052602060002090601f016020900481019282613529576000855561356f565b82601f1061354257805160ff191683800117855561356f565b8280016001018555821561356f579182015b8281111561356f578251825591602001919060010190613554565b5061357b92915061357f565b5090565b5b8082111561357b5760008155600101613580565b6001600160a01b0381168114610e8857600080fd5b6000602082840312156135bb57600080fd5b8135610dea81613594565b60005b838110156135e15781810151838201526020016135c9565b838111156120685750506000910152565b60208152600082518060208401526136118160408501602087016135c6565b601f01601f19169190910160400192915050565b6000806040838503121561363857600080fd5b823561364381613594565b946020939093013593505050565b634e487b7160e01b600052604160045260246000fd5b604051601f8201601f1916810167ffffffffffffffff8111828210171561369057613690613651565b604052919050565b600060c082840312156136aa57600080fd5b60405160c0810181811067ffffffffffffffff821117156136cd576136cd613651565b60405290508082356136de81613594565b808252506020830135602082015260408301356040820152606083013561370481613594565b6060820152608083013561371781613594565b608082015260a092830135920191909152919050565b60008082840361016081121561374257600080fd5b61374c8585613698565b925060a060bf198201121561376057600080fd5b5060405160a0810181811067ffffffffffffffff8211171561378457613784613651565b60405260c084013561379581613594565b815260e08401356020820152610100840135604082015261012084013560608201526101408401356137c681613594565b6080820152919491935090915050565b6000806000606084860312156137eb57600080fd5b83356137f681613594565b9250602084013561380681613594565b929592945050506040919091013590565b60008060e0838503121561382a57600080fd5b6138348484613698565b915060c083013561384481613594565b809150509250929050565b60006020828403121561386157600080fd5b5035919050565b600067ffffffffffffffff82111561388257613882613651565b5060051b60200190565b600082601f83011261389d57600080fd5b813560206138b26138ad83613868565b613667565b82815260059290921b840181019181810190868411156138d157600080fd5b8286015b848110156138ec57803583529183019183016138d5565b509695505050505050565b60008060006060848603121561390c57600080fd5b833561391781613594565b925060208481013567ffffffffffffffff8082111561393557600080fd5b818701915087601f83011261394957600080fd5b81356139576138ad82613868565b81815260059190911b8301840190848101908a83111561397657600080fd5b938501935b8285101561399d57843561398e81613594565b8252938501939085019061397b565b9650505060408701359250808311156139b557600080fd5b50506139c38682870161388c565b9150509250925092565b600080602083850312156139e057600080fd5b823567ffffffffffffffff808211156139f857600080fd5b818501915085601f830112613a0c57600080fd5b813581811115613a1b57600080fd5b866020828501011115613a2d57600080fd5b60209290920196919550909350505050565b60008083601f840112613a5157600080fd5b50813567ffffffffffffffff811115613a6957600080fd5b6020830191508360208260051b8501011115613a8457600080fd5b9250929050565b60008060008060008060008060008060a08b8d031215613aaa57600080fd5b8a3567ffffffffffffffff80821115613ac257600080fd5b613ace8e838f01613a3f565b909c509a5060208d0135915080821115613ae757600080fd5b613af38e838f01613a3f565b909a50985060408d0135915080821115613b0c57600080fd5b613b188e838f01613a3f565b909850965060608d0135915080821115613b3157600080fd5b613b3d8e838f01613a3f565b909650945060808d0135915080821115613b5657600080fd5b50613b638d828e01613a3f565b915080935050809150509295989b9194979a5092959850565b600080600080600080600060e0888a031215613b9757600080fd5b8735613ba281613594565b96506020880135613bb281613594565b95506040880135945060608801359350608088013560ff81168114613bd657600080fd5b9699959850939692959460a0840135945060c09093013592915050565b60008060408385031215613c0657600080fd5b8235613c1181613594565b9150602083013561384481613594565b8015158114610e8857600080fd5b60008060008060808587031215613c4557600080fd5b8435613c5081613594565b935060208501359250604085013591506060850135613c6e81613c21565b939692955090935050565b60008060008060008060c08789031215613c9257600080fd5b8635613c9d81613594565b955060208701359450604087013593506060870135613cbb81613594565b92506080870135613ccb81613594565b8092505060a087013590509295509295509295565b600181811c90821680613cf457607f821691505b60208210811415613d1557634e487b7160e01b600052602260045260246000fd5b50919050565b6000806000806000806000806000806000806101808d8f031215613d3e57600080fd5b8c51613d4981613594565b60208e0151909c50613d5a81613594565b60408e015160608f0151919c509a50613d7281613594565b8099505060808d0151975060a08d0151965060c08d0151613d9281613c21565b8096505060e08d015194506101008d015193506101208d015192506101408d015191506101608d0151613dc481613c21565b809150509295989b509295989b509295989b565b60008060008060808587031215613dee57600080fd5b505082516020840151604085015160609095015191969095509092509050565b634e487b7160e01b600052601160045260246000fd5b6000816000190483118215151615613e3e57613e3e613e0e565b500290565b600082613e6057634e487b7160e01b600052601260045260246000fd5b500490565b60008219821115613e7857613e78613e0e565b500190565b600060808284031215613e8f57600080fd5b6040516080810181811067ffffffffffffffff82111715613eb257613eb2613651565b6040528251613ec081613c21565b81526020830151613ed081613c21565b60208201526040830151613ee381613c21565b60408201526060830151613ef681613c21565b60608201529392505050565b6020808252818101527f455243323054656d706c6174653a204e4f54204445504c4f59455220524f4c45604082015260600190565b600060208284031215613f4957600080fd5b8151610dea81613594565b634e487b7160e01b600052603260045260246000fd5b6001600160a01b038481168252606060208084018290528551918401829052600092868201929091906080860190855b81811015613fb8578551851683529483019491830191600101613f9a565b5050858103604087015286518082529082019350915080860160005b83811015613ff057815185529382019390820190600101613fd4565b509298975050505050505050565b60006020828403121561401057600080fd5b5051919050565b83815260406020820152816040820152818360608301376000818301606090810191909152601f909201601f1916010192915050565b600067ffffffffffffffff83111561406757614067613651565b61407a601f8401601f1916602001613667565b905082815283838301111561408e57600080fd5b828260208301376000602084830101529392505050565b60006140b36138ad84613868565b80848252602080830192508560051b8501368111156140d157600080fd5b855b8181101561412157803567ffffffffffffffff8111156140f35760008081fd5b870136601f8201126141055760008081fd5b61411336823586840161404d565b8652509382019382016140d3565b50919695505050505050565b600061413b6138ad84613868565b80848252602080830192508560051b85013681111561415957600080fd5b855b8181101561412157803567ffffffffffffffff81111561417b5760008081fd5b870136601f82011261418d5760008081fd5b61419b36823586840161404d565b86525093820193820161415b565b60006000198214156141bd576141bd613e0e565b5060010190565b6000828210156141d6576141d6613e0e565b500390565b600080835481600182811c9150808316806141f757607f831692505b602080841082141561421757634e487b7160e01b86526022600452602486fd5b81801561422b576001811461423c57614269565b60ff19861689528489019650614269565b60008a81526020902060005b868110156142615781548b820152908501908301614248565b505084890196505b509498975050505050505050565b60006020828403121561428957600080fd5b8151610dea81613c21565b600082516142a68184602087016135c6565b919091019291505056fea2646970667358221220a6bc24c3e231c71f747f2abd88ae3cec047ea4eb5e77880dfbfd15baa0593dac64736f6c634300080a0033",
  "linkReferences": {},
  "deployedLinkReferences": {}
}