{
  "_format": "hh-sol-artifact-1",
  "contractName": "ERC20TemplateEnterprise",
  "sourceName": "contracts/templates/ERC20TemplateEnterprise.sol",
  "abi": [
    {
      "anonymous": false,
      "inputs": [
        {
          "indexed": true,
          "internalType": "address",
          "name": "user",
          "type": "address"
        },
        {
          "indexed": true,
          "internalType": "address",
          "name": "signer",
          "type": "address"
        },
        {
          "indexed": false,
          "internalType": "uint256",
          "name": "timestamp",
          "type": "uint256"
        },
        {
          "indexed": false,
          "internalType": "uint256",
          "name": "blockNumber",
          "type": "uint256"
        }
      ],
      "name": "AddedMinter",
      "type": "event"
    },
    {
      "anonymous": false,
      "inputs": [
        {
          "indexed": true,
          "internalType": "address",
          "name": "user",
          "type": "address"
        },
        {
          "indexed": true,
          "internalType": "address",
          "name": "signer",
          "type": "address"
        },
        {
          "indexed": false,
          "internalType": "uint256",
          "name": "timestamp",
          "type": "uint256"
        },
        {
          "indexed": false,
          "internalType": "uint256",
          "name": "blockNumber",
          "type": "uint256"
        }
      ],
      "name": "AddedPaymentManager",
      "type": "event"
    },
    {
      "anonymous": false,
      "inputs": [
        {
          "indexed": true,
          "internalType": "address",
          "name": "owner",
          "type": "address"
        },
        {
          "indexed": true,
          "internalType": "address",
          "name": "spender",
          "type": "address"
        },
        {
          "indexed": false,
          "internalType": "uint256",
          "name": "value",
          "type": "uint256"
        }
      ],
      "name": "Approval",
      "type": "event"
    },
    {
      "anonymous": false,
      "inputs": [
        {
          "indexed": false,
          "internalType": "address",
          "name": "buyer",
          "type": "address"
        },
        {
          "indexed": false,
          "internalType": "uint256",
          "name": "baseTokenAmount",
          "type": "uint256"
        },
        {
          "indexed": false,
          "internalType": "uint256",
          "name": "marketFeeAmount",
          "type": "uint256"
        }
      ],
      "name": "BuyAndOrder",
      "type": "event"
    },
    {
      "anonymous": false,
      "inputs": [
        {
          "indexed": true,
          "internalType": "address",
          "name": "signer",
          "type": "address"
        },
        {
          "indexed": false,
          "internalType": "uint256",
          "name": "timestamp",
          "type": "uint256"
        },
        {
          "indexed": false,
          "internalType": "uint256",
          "name": "blockNumber",
          "type": "uint256"
        }
      ],
      "name": "CleanedPermissions",
      "type": "event"
    },
    {
      "anonymous": false,
      "inputs": [
        {
          "indexed": true,
          "internalType": "address",
          "name": "consumeFeeAddress",
          "type": "address"
        },
        {
          "indexed": true,
          "internalType": "address",
          "name": "consumeFeeToken",
          "type": "address"
        },
        {
          "indexed": false,
          "internalType": "uint256",
          "name": "consumeFeeAmount",
          "type": "uint256"
        }
      ],
      "name": "ConsumeMarketFees",
      "type": "event"
    },
    {
      "anonymous": false,
      "inputs": [
        {
          "indexed": false,
          "internalType": "address",
          "name": "currentMinter",
          "type": "address"
        },
        {
          "indexed": false,
          "internalType": "address",
          "name": "newMinter",
          "type": "address"
        }
      ],
      "name": "MinterApproved",
      "type": "event"
    },
    {
      "anonymous": false,
      "inputs": [
        {
          "indexed": false,
          "internalType": "address",
          "name": "currentMinter",
          "type": "address"
        },
        {
          "indexed": false,
          "internalType": "address",
          "name": "newMinter",
          "type": "address"
        }
      ],
      "name": "MinterProposed",
      "type": "event"
    },
    {
      "anonymous": false,
      "inputs": [
        {
          "indexed": false,
          "internalType": "bytes32",
          "name": "exchangeId",
          "type": "bytes32"
        },
        {
          "indexed": false,
          "internalType": "address",
          "name": "owner",
          "type": "address"
        }
      ],
      "name": "NewFixedRate",
      "type": "event"
    },
    {
      "anonymous": false,
      "inputs": [
        {
          "indexed": true,
          "internalType": "address",
          "name": "caller",
          "type": "address"
        },
        {
          "indexed": true,
          "internalType": "address",
          "name": "_newPaymentCollector",
          "type": "address"
        },
        {
          "indexed": false,
          "internalType": "uint256",
          "name": "timestamp",
          "type": "uint256"
        },
        {
          "indexed": false,
          "internalType": "uint256",
          "name": "blockNumber",
          "type": "uint256"
        }
      ],
      "name": "NewPaymentCollector",
      "type": "event"
    },
    {
      "anonymous": false,
      "inputs": [
        {
          "indexed": false,
          "internalType": "address",
          "name": "poolAddress",
          "type": "address"
        },
        {
          "indexed": false,
          "internalType": "address",
          "name": "ssContract",
          "type": "address"
        },
        {
          "indexed": false,
          "internalType": "address",
          "name": "basetokenAddress",
          "type": "address"
        }
      ],
      "name": "NewPool",
      "type": "event"
    },
    {
      "anonymous": false,
      "inputs": [
        {
          "indexed": true,
          "internalType": "address",
          "name": "consumer",
          "type": "address"
        },
        {
          "indexed": false,
          "internalType": "address",
          "name": "payer",
          "type": "address"
        },
        {
          "indexed": false,
          "internalType": "uint256",
          "name": "amount",
          "type": "uint256"
        },
        {
          "indexed": false,
          "internalType": "uint256",
          "name": "serviceIndex",
          "type": "uint256"
        },
        {
          "indexed": false,
          "internalType": "uint256",
          "name": "timestamp",
          "type": "uint256"
        },
        {
          "indexed": true,
          "internalType": "address",
          "name": "publishMarketAddress",
          "type": "address"
        },
        {
          "indexed": true,
          "internalType": "address",
          "name": "consumeFeeMarketAddress",
          "type": "address"
        },
        {
          "indexed": false,
          "internalType": "uint256",
          "name": "blockNumber",
          "type": "uint256"
        }
      ],
      "name": "OrderStarted",
      "type": "event"
    },
    {
      "anonymous": false,
      "inputs": [
        {
          "indexed": true,
          "internalType": "address",
          "name": "PublishMarketFeeAddress",
          "type": "address"
        },
        {
          "indexed": true,
          "internalType": "address",
          "name": "PublishMarketFeeToken",
          "type": "address"
        },
        {
          "indexed": false,
          "internalType": "uint256",
          "name": "PublishMarketFeeAmount",
          "type": "uint256"
        }
      ],
      "name": "PublishMarketFees",
      "type": "event"
    },
    {
      "anonymous": false,
      "inputs": [
        {
          "indexed": false,
          "internalType": "address",
          "name": "caller",
          "type": "address"
        },
        {
          "indexed": false,
          "internalType": "address",
          "name": "PublishMarketFeeAddress",
          "type": "address"
        },
        {
          "indexed": false,
          "internalType": "address",
          "name": "PublishMarketFeeToken",
          "type": "address"
        },
        {
          "indexed": false,
          "internalType": "uint256",
          "name": "PublishMarketFeeAmount",
          "type": "uint256"
        }
      ],
      "name": "PublishMarketFeesChanged",
      "type": "event"
    },
    {
      "anonymous": false,
      "inputs": [
        {
          "indexed": true,
          "internalType": "address",
          "name": "user",
          "type": "address"
        },
        {
          "indexed": true,
          "internalType": "address",
          "name": "signer",
          "type": "address"
        },
        {
          "indexed": false,
          "internalType": "uint256",
          "name": "timestamp",
          "type": "uint256"
        },
        {
          "indexed": false,
          "internalType": "uint256",
          "name": "blockNumber",
          "type": "uint256"
        }
      ],
      "name": "RemovedMinter",
      "type": "event"
    },
    {
      "anonymous": false,
      "inputs": [
        {
          "indexed": true,
          "internalType": "address",
          "name": "user",
          "type": "address"
        },
        {
          "indexed": true,
          "internalType": "address",
          "name": "signer",
          "type": "address"
        },
        {
          "indexed": false,
          "internalType": "uint256",
          "name": "timestamp",
          "type": "uint256"
        },
        {
          "indexed": false,
          "internalType": "uint256",
          "name": "blockNumber",
          "type": "uint256"
        }
      ],
      "name": "RemovedPaymentManager",
      "type": "event"
    },
    {
      "anonymous": false,
      "inputs": [
        {
          "indexed": true,
          "internalType": "address",
          "name": "from",
          "type": "address"
        },
        {
          "indexed": true,
          "internalType": "address",
          "name": "to",
          "type": "address"
        },
        {
          "indexed": false,
          "internalType": "uint256",
          "name": "value",
          "type": "uint256"
        }
      ],
      "name": "Transfer",
      "type": "event"
    },
    {
      "stateMutability": "payable",
      "type": "fallback"
    },
    {
      "inputs": [],
      "name": "BASE",
      "outputs": [
        {
          "internalType": "uint256",
          "name": "",
          "type": "uint256"
        }
      ],
      "stateMutability": "view",
      "type": "function"
    },
    {
      "inputs": [],
      "name": "BASE_COMMUNITY_FEE_PERCENTAGE",
      "outputs": [
        {
          "internalType": "uint256",
          "name": "",
          "type": "uint256"
        }
      ],
      "stateMutability": "view",
      "type": "function"
    },
    {
      "inputs": [],
      "name": "DOMAIN_SEPARATOR",
      "outputs": [
        {
          "internalType": "bytes32",
          "name": "",
          "type": "bytes32"
        }
      ],
      "stateMutability": "view",
      "type": "function"
    },
    {
      "inputs": [],
      "name": "PERMIT_TYPEHASH",
      "outputs": [
        {
          "internalType": "bytes32",
          "name": "",
          "type": "bytes32"
        }
      ],
      "stateMutability": "view",
      "type": "function"
    },
    {
      "inputs": [
        {
          "internalType": "address",
          "name": "_minter",
          "type": "address"
        }
      ],
      "name": "addMinter",
      "outputs": [],
      "stateMutability": "nonpayable",
      "type": "function"
    },
    {
      "inputs": [
        {
          "internalType": "address",
          "name": "_paymentManager",
          "type": "address"
        }
      ],
      "name": "addPaymentManager",
      "outputs": [],
      "stateMutability": "nonpayable",
      "type": "function"
    },
    {
      "inputs": [
        {
          "internalType": "address",
          "name": "owner",
          "type": "address"
        },
        {
          "internalType": "address",
          "name": "spender",
          "type": "address"
        }
      ],
      "name": "allowance",
      "outputs": [
        {
          "internalType": "uint256",
          "name": "",
          "type": "uint256"
        }
      ],
      "stateMutability": "view",
      "type": "function"
    },
    {
      "inputs": [
        {
          "internalType": "address",
          "name": "spender",
          "type": "address"
        },
        {
          "internalType": "uint256",
          "name": "amount",
          "type": "uint256"
        }
      ],
      "name": "approve",
      "outputs": [
        {
          "internalType": "bool",
          "name": "",
          "type": "bool"
        }
      ],
      "stateMutability": "nonpayable",
      "type": "function"
    },
    {
      "inputs": [
        {
          "internalType": "uint256",
          "name": "",
          "type": "uint256"
        }
      ],
      "name": "authERC20",
      "outputs": [
        {
          "internalType": "address",
          "name": "",
          "type": "address"
        }
      ],
      "stateMutability": "view",
      "type": "function"
    },
    {
      "inputs": [
        {
          "internalType": "address",
          "name": "account",
          "type": "address"
        }
      ],
      "name": "balanceOf",
      "outputs": [
        {
          "internalType": "uint256",
          "name": "",
          "type": "uint256"
        }
      ],
      "stateMutability": "view",
      "type": "function"
    },
    {
      "inputs": [
        {
          "internalType": "uint256",
          "name": "amount",
          "type": "uint256"
        }
      ],
      "name": "burn",
      "outputs": [],
      "stateMutability": "nonpayable",
      "type": "function"
    },
    {
      "inputs": [
        {
          "internalType": "address",
          "name": "account",
          "type": "address"
        },
        {
          "internalType": "uint256",
          "name": "amount",
          "type": "uint256"
        }
      ],
      "name": "burnFrom",
      "outputs": [],
      "stateMutability": "nonpayable",
      "type": "function"
    },
    {
      "inputs": [
        {
          "components": [
            {
              "internalType": "address",
              "name": "consumer",
              "type": "address"
            },
            {
              "internalType": "uint256",
              "name": "amount",
              "type": "uint256"
            },
            {
              "internalType": "uint256",
              "name": "serviceIndex",
              "type": "uint256"
            },
            {
              "internalType": "address",
              "name": "consumeFeeAddress",
              "type": "address"
            },
            {
              "internalType": "address",
              "name": "consumeFeeToken",
              "type": "address"
            },
            {
              "internalType": "uint256",
              "name": "consumeFeeAmount",
              "type": "uint256"
            }
          ],
          "internalType": "struct ERC20TemplateEnterprise.OrderParams",
          "name": "_orderParams",
          "type": "tuple"
        },
        {
          "internalType": "address",
          "name": "dispenserContract",
          "type": "address"
        }
      ],
      "name": "buyFromDispenserAndOrder",
      "outputs": [],
      "stateMutability": "nonpayable",
      "type": "function"
    },
    {
      "inputs": [
        {
          "components": [
            {
              "internalType": "address",
              "name": "consumer",
              "type": "address"
            },
            {
              "internalType": "uint256",
              "name": "amount",
              "type": "uint256"
            },
            {
              "internalType": "uint256",
              "name": "serviceIndex",
              "type": "uint256"
            },
            {
              "internalType": "address",
              "name": "consumeFeeAddress",
              "type": "address"
            },
            {
              "internalType": "address",
              "name": "consumeFeeToken",
              "type": "address"
            },
            {
              "internalType": "uint256",
              "name": "consumeFeeAmount",
              "type": "uint256"
            }
          ],
          "internalType": "struct ERC20TemplateEnterprise.OrderParams",
          "name": "_orderParams",
          "type": "tuple"
        },
        {
          "components": [
            {
              "internalType": "address",
              "name": "exchangeContract",
              "type": "address"
            },
            {
              "internalType": "bytes32",
              "name": "exchangeId",
              "type": "bytes32"
            },
            {
              "internalType": "uint256",
              "name": "maxBaseTokenAmount",
              "type": "uint256"
            },
            {
              "internalType": "uint256",
              "name": "swapMarketFee",
              "type": "uint256"
            },
            {
              "internalType": "address",
              "name": "marketFeeAddress",
              "type": "address"
            }
          ],
          "internalType": "struct ERC20TemplateEnterprise.FreParams",
          "name": "_freParams",
          "type": "tuple"
        }
      ],
      "name": "buyFromFreAndOrder",
      "outputs": [],
      "stateMutability": "nonpayable",
      "type": "function"
    },
    {
      "inputs": [],
      "name": "cap",
      "outputs": [
        {
          "internalType": "uint256",
          "name": "",
          "type": "uint256"
        }
      ],
      "stateMutability": "view",
      "type": "function"
    },
    {
      "inputs": [],
      "name": "cleanFrom721",
      "outputs": [],
      "stateMutability": "nonpayable",
      "type": "function"
    },
    {
      "inputs": [],
      "name": "cleanPermissions",
      "outputs": [],
      "stateMutability": "nonpayable",
      "type": "function"
    },
    {
      "inputs": [
        {
          "internalType": "address",
          "name": "_dispenser",
          "type": "address"
        },
        {
          "internalType": "uint256",
          "name": "maxTokens",
          "type": "uint256"
        },
        {
          "internalType": "uint256",
          "name": "maxBalance",
          "type": "uint256"
        },
        {
          "internalType": "bool",
          "name": "withMint",
          "type": "bool"
        }
      ],
      "name": "createDispenser",
      "outputs": [],
      "stateMutability": "nonpayable",
      "type": "function"
    },
    {
      "inputs": [
        {
          "internalType": "address",
          "name": "fixedPriceAddress",
          "type": "address"
        },
        {
          "internalType": "address[]",
          "name": "addresses",
          "type": "address[]"
        },
        {
          "internalType": "uint256[]",
          "name": "uints",
          "type": "uint256[]"
        }
      ],
      "name": "createFixedRate",
      "outputs": [
        {
          "internalType": "bytes32",
          "name": "exchangeId",
          "type": "bytes32"
        }
      ],
      "stateMutability": "nonpayable",
      "type": "function"
    },
    {
      "inputs": [],
      "name": "decimals",
      "outputs": [
        {
          "internalType": "uint8",
          "name": "",
          "type": "uint8"
        }
      ],
      "stateMutability": "pure",
      "type": "function"
    },
    {
      "inputs": [
        {
          "internalType": "address",
          "name": "spender",
          "type": "address"
        },
        {
          "internalType": "uint256",
          "name": "subtractedValue",
          "type": "uint256"
        }
      ],
      "name": "decreaseAllowance",
      "outputs": [
        {
          "internalType": "bool",
          "name": "",
          "type": "bool"
        }
      ],
      "stateMutability": "nonpayable",
      "type": "function"
    },
    {
      "inputs": [],
      "name": "getERC721Address",
      "outputs": [
        {
          "internalType": "address",
          "name": "",
          "type": "address"
        }
      ],
      "stateMutability": "view",
      "type": "function"
    },
    {
      "inputs": [],
      "name": "getId",
      "outputs": [
        {
          "internalType": "uint8",
          "name": "",
          "type": "uint8"
        }
      ],
      "stateMutability": "pure",
      "type": "function"
    },
    {
      "inputs": [],
      "name": "getPaymentCollector",
      "outputs": [
        {
          "internalType": "address",
          "name": "",
          "type": "address"
        }
      ],
      "stateMutability": "view",
      "type": "function"
    },
    {
      "inputs": [],
      "name": "getPublishingMarketFee",
      "outputs": [
        {
          "internalType": "address",
          "name": "",
          "type": "address"
        },
        {
          "internalType": "address",
          "name": "",
          "type": "address"
        },
        {
          "internalType": "uint256",
          "name": "",
          "type": "uint256"
        }
      ],
      "stateMutability": "view",
      "type": "function"
    },
    {
      "inputs": [
        {
          "internalType": "address",
          "name": "spender",
          "type": "address"
        },
        {
          "internalType": "uint256",
          "name": "addedValue",
          "type": "uint256"
        }
      ],
      "name": "increaseAllowance",
      "outputs": [
        {
          "internalType": "bool",
          "name": "",
          "type": "bool"
        }
      ],
      "stateMutability": "nonpayable",
      "type": "function"
    },
    {
      "inputs": [
        {
          "internalType": "string[]",
          "name": "strings_",
          "type": "string[]"
        },
        {
          "internalType": "address[]",
          "name": "addresses_",
          "type": "address[]"
        },
        {
          "internalType": "address[]",
          "name": "factoryAddresses_",
          "type": "address[]"
        },
        {
          "internalType": "uint256[]",
          "name": "uints_",
          "type": "uint256[]"
        },
        {
          "internalType": "bytes[]",
          "name": "bytes_",
          "type": "bytes[]"
        }
      ],
      "name": "initialize",
      "outputs": [
        {
          "internalType": "bool",
          "name": "",
          "type": "bool"
        }
      ],
      "stateMutability": "nonpayable",
      "type": "function"
    },
    {
      "inputs": [],
      "name": "isInitialized",
      "outputs": [
        {
          "internalType": "bool",
          "name": "",
          "type": "bool"
        }
      ],
      "stateMutability": "view",
      "type": "function"
    },
    {
      "inputs": [
        {
          "internalType": "address",
          "name": "account",
          "type": "address"
        }
      ],
      "name": "isMinter",
      "outputs": [
        {
          "internalType": "bool",
          "name": "",
          "type": "bool"
        }
      ],
      "stateMutability": "view",
      "type": "function"
    },
    {
      "inputs": [
        {
          "internalType": "address",
          "name": "account",
          "type": "address"
        },
        {
          "internalType": "uint256",
          "name": "value",
          "type": "uint256"
        }
      ],
      "name": "mint",
      "outputs": [],
      "stateMutability": "nonpayable",
      "type": "function"
    },
    {
      "inputs": [],
      "name": "name",
      "outputs": [
        {
          "internalType": "string",
          "name": "",
          "type": "string"
        }
      ],
      "stateMutability": "view",
      "type": "function"
    },
    {
      "inputs": [
        {
          "internalType": "address",
          "name": "",
          "type": "address"
        }
      ],
      "name": "nonces",
      "outputs": [
        {
          "internalType": "uint256",
          "name": "",
          "type": "uint256"
        }
      ],
      "stateMutability": "view",
      "type": "function"
    },
    {
      "inputs": [
        {
          "internalType": "address",
          "name": "",
          "type": "address"
        }
      ],
      "name": "permissions",
      "outputs": [
        {
          "internalType": "bool",
          "name": "minter",
          "type": "bool"
        },
        {
          "internalType": "bool",
          "name": "paymentManager",
          "type": "bool"
        }
      ],
      "stateMutability": "view",
      "type": "function"
    },
    {
      "inputs": [
        {
          "internalType": "address",
          "name": "owner",
          "type": "address"
        },
        {
          "internalType": "address",
          "name": "spender",
          "type": "address"
        },
        {
          "internalType": "uint256",
          "name": "value",
          "type": "uint256"
        },
        {
          "internalType": "uint256",
          "name": "deadline",
          "type": "uint256"
        },
        {
          "internalType": "uint8",
          "name": "v",
          "type": "uint8"
        },
        {
          "internalType": "bytes32",
          "name": "r",
          "type": "bytes32"
        },
        {
          "internalType": "bytes32",
          "name": "s",
          "type": "bytes32"
        }
      ],
      "name": "permit",
      "outputs": [],
      "stateMutability": "nonpayable",
      "type": "function"
    },
    {
      "inputs": [
        {
          "internalType": "address",
          "name": "_minter",
          "type": "address"
        }
      ],
      "name": "removeMinter",
      "outputs": [],
      "stateMutability": "nonpayable",
      "type": "function"
    },
    {
      "inputs": [
        {
          "internalType": "address",
          "name": "_paymentManager",
          "type": "address"
        }
      ],
      "name": "removePaymentManager",
      "outputs": [],
      "stateMutability": "nonpayable",
      "type": "function"
    },
    {
      "inputs": [],
      "name": "router",
      "outputs": [
        {
          "internalType": "address",
          "name": "",
          "type": "address"
        }
      ],
      "stateMutability": "view",
      "type": "function"
    },
    {
      "inputs": [
        {
          "internalType": "bytes",
          "name": "_value",
          "type": "bytes"
        }
      ],
      "name": "setData",
      "outputs": [],
      "stateMutability": "nonpayable",
      "type": "function"
    },
    {
      "inputs": [
        {
          "internalType": "address",
          "name": "_newPaymentCollector",
          "type": "address"
        }
      ],
      "name": "setPaymentCollector",
      "outputs": [],
      "stateMutability": "nonpayable",
      "type": "function"
    },
    {
      "inputs": [
        {
          "internalType": "address",
          "name": "_publishMarketFeeAddress",
          "type": "address"
        },
        {
          "internalType": "address",
          "name": "_publishMarketFeeToken",
          "type": "address"
        },
        {
          "internalType": "uint256",
          "name": "_publishMarketFeeAmount",
          "type": "uint256"
        }
      ],
      "name": "setPublishingMarketFee",
      "outputs": [],
      "stateMutability": "nonpayable",
      "type": "function"
    },
    {
      "inputs": [
        {
          "internalType": "address",
          "name": "consumer",
          "type": "address"
        },
        {
          "internalType": "uint256",
          "name": "amount",
          "type": "uint256"
        },
        {
          "internalType": "uint256",
          "name": "serviceIndex",
          "type": "uint256"
        },
        {
          "internalType": "address",
          "name": "consumeFeeAddress",
          "type": "address"
        },
        {
          "internalType": "address",
          "name": "consumeFeeToken",
          "type": "address"
        },
        {
          "internalType": "uint256",
          "name": "consumeFeeAmount",
          "type": "uint256"
        }
      ],
      "name": "startOrder",
      "outputs": [],
      "stateMutability": "nonpayable",
      "type": "function"
    },
    {
      "inputs": [],
      "name": "symbol",
      "outputs": [
        {
          "internalType": "string",
          "name": "",
          "type": "string"
        }
      ],
      "stateMutability": "view",
      "type": "function"
    },
    {
      "inputs": [],
      "name": "totalSupply",
      "outputs": [
        {
          "internalType": "uint256",
          "name": "",
          "type": "uint256"
        }
      ],
      "stateMutability": "view",
      "type": "function"
    },
    {
      "inputs": [
        {
          "internalType": "address",
          "name": "recipient",
          "type": "address"
        },
        {
          "internalType": "uint256",
          "name": "amount",
          "type": "uint256"
        }
      ],
      "name": "transfer",
      "outputs": [
        {
          "internalType": "bool",
          "name": "",
          "type": "bool"
        }
      ],
      "stateMutability": "nonpayable",
      "type": "function"
    },
    {
      "inputs": [
        {
          "internalType": "address",
          "name": "sender",
          "type": "address"
        },
        {
          "internalType": "address",
          "name": "recipient",
          "type": "address"
        },
        {
          "internalType": "uint256",
          "name": "amount",
          "type": "uint256"
        }
      ],
      "name": "transferFrom",
      "outputs": [
        {
          "internalType": "bool",
          "name": "",
          "type": "bool"
        }
      ],
      "stateMutability": "nonpayable",
      "type": "function"
    },
    {
      "inputs": [],
      "name": "withdrawETH",
      "outputs": [],
      "stateMutability": "payable",
      "type": "function"
    }
  ],
  "bytecode": "0x6080604052600a805460ff60a01b191690553480156200001e57600080fd5b5060408051808201825260048152631d195cdd60e21b60208083019182528351808501909452600a8452691d195cdd14de5b589bdb60b21b9084015281519192916200006d916003916200008c565b508051620000839060049060208401906200008c565b5050506200016f565b8280546200009a9062000132565b90600052602060002090601f016020900481019282620000be576000855562000109565b82601f10620000d957805160ff191683800117855562000109565b8280016001018555821562000109579182015b8281111562000109578251825591602001919060010190620000ec565b50620001179291506200011b565b5090565b5b808211156200011757600081556001016200011c565b600181811c908216806200014757607f821691505b602082108114156200016957634e487b7160e01b600052602260045260246000fd5b50919050565b6143dc806200017f6000396000f3fe6080604052600436106102675760003560e01c806370a0823111610143578063ab62f0e1116100bb578063e487c2e811610077578063e487c2e8146107ef578063ec342ad014610804578063ef867ff414610820578063f887ea4014610840578063f94bb42114610860578063fda9dae71461088057005b8063ab62f0e11461072c578063b2263a5d1461074c578063b3998be014610761578063d505accf14610781578063dd62ed3e146107a1578063e086e5ec146107e757005b806395d89b411161010a57806395d89b411461065e578063983b2d5614610673578063a457c2d714610693578063a9059cbb146106b3578063aa271e1a146106d3578063aa492ef91461070c57005b806370a08231146105a657806379cc6790146105dc5780637ecebe00146105fc57806382c03da5146106295780638b96412b1461063e57005b8063355274ea116101e157806340c10f191161019d57806340c10f19146104fd57806342966c681461051d5780634f189cb21461053d57806357a3a31b1461055257806357ad5ff6146105725780635d1ca6311461059257005b8063355274ea146104375780633644e5151461044c5780633830285014610462578063392e53cd1461048257806339509351146104a1578063397b3743146104c157005b80631d069feb116102305780631d069feb1461036157806323b872dd1461038157806325b00243146103a15780633092afd5146103c157806330adf81f146103e1578063313ce5671461041557005b80627ffb781461026957806301e88208146102a057806306fdde03146102f0578063095ea7b31461031257806318160ddd14610342575b005b34801561027557600080fd5b50600b546001600160a01b03165b6040516001600160a01b0390911681526020015b60405180910390f35b3480156102ac57600080fd5b506102d96102bb36600461369f565b60056020526000908152604090205460ff8082169161010090041682565b604080519215158352901515602083015201610297565b3480156102fc57600080fd5b506103056108a0565b60405161029791906136e8565b34801561031e57600080fd5b5061033261032d36600461371b565b610932565b6040519015158152602001610297565b34801561034e57600080fd5b506002545b604051908152602001610297565b34801561036d57600080fd5b5061026761037c366004613823565b610948565b34801561038d57600080fd5b5061033261039c3660046138cc565b610d12565b3480156103ad57600080fd5b506102676103bc36600461369f565b610dbe565b3480156103cd57600080fd5b506102676103dc36600461369f565b610e58565b3480156103ed57600080fd5b506103537f6e71edae12b1b97f4d1f60370fef10105fa2faae0126114a169c64845d6126c981565b34801561042157600080fd5b5060125b60405160ff9091168152602001610297565b34801561044357600080fd5b50600954610353565b34801561045857600080fd5b5061035360105481565b34801561046e57600080fd5b5061026761047d36600461390d565b610eef565b34801561048e57600080fd5b50600a54600160a01b900460ff16610332565b3480156104ad57600080fd5b506103326104bc36600461371b565b610ff7565b3480156104cd57600080fd5b50600d54600e54600f54604080516001600160a01b03948516815293909216602084015290820152606001610297565b34801561050957600080fd5b5061026761051836600461371b565b611033565b34801561052957600080fd5b50610267610538366004613945565b611100565b34801561054957600080fd5b5061026761110a565b34801561055e57600080fd5b5061026761056d36600461369f565b6111f1565b34801561057e57600080fd5b5061026761058d3660046138cc565b611333565b34801561059e57600080fd5b506002610425565b3480156105b257600080fd5b506103536105c136600461369f565b6001600160a01b031660009081526020819052604090205490565b3480156105e857600080fd5b506102676105f736600461371b565b611487565b34801561060857600080fd5b5061035361061736600461369f565b60116020526000908152604090205481565b34801561063557600080fd5b5061026761150d565b34801561064a57600080fd5b506103536106593660046139ed565b611567565b34801561066a57600080fd5b50610305611728565b34801561067f57600080fd5b5061026761068e36600461369f565b611737565b34801561069f57600080fd5b506103326106ae36600461371b565b6117ce565b3480156106bf57600080fd5b506103326106ce36600461371b565b611867565b3480156106df57600080fd5b506103326106ee36600461369f565b6001600160a01b031660009081526005602052604090205460ff1690565b34801561071857600080fd5b5061026761072736600461369f565b611874565b34801561073857600080fd5b50610267610747366004613ac3565b61190b565b34801561075857600080fd5b50610353611a3c565b34801561076d57600080fd5b5061033261077c366004613b81565b611a52565b34801561078d57600080fd5b5061026761079c366004613c72565b611b8c565b3480156107ad57600080fd5b506103536107bc366004613ce9565b6001600160a01b03918216600090815260016020908152604080832093909416825291909152205490565b610267611d9e565b3480156107fb57600080fd5b50610283611dde565b34801561081057600080fd5b50610353670de0b6b3a764000081565b34801561082c57600080fd5b5061028361083b366004613945565b611e73565b34801561084c57600080fd5b50601254610283906001600160a01b031681565b34801561086c57600080fd5b5061026761087b366004613d25565b611e9d565b34801561088c57600080fd5b5061026761089b366004613d6f565b611fc0565b6060600780546108af90613dd6565b80601f01602080910402602001604051908101604052809291908181526020018280546108db90613dd6565b80156109285780601f106108fd57610100808354040283529160200191610928565b820191906000526020600020905b81548152906001019060200180831161090b57829003601f168201915b5050505050905090565b600061093f338484611fd6565b50600192915050565b80516020820151604051634c87087d60e01b815260009283926001600160a01b0390911691634c87087d916109839160040190815260200190565b61018060405180830381865afa1580156109a1573d6000803e3d6000fd5b505050506040513d601f19601f820116820180604052508101906109c59190613e11565b5050505050505050935050925050306001600160a01b0316826001600160a01b031614610a495760405162461bcd60e51b815260206004820152602760248201527f5468697320466978656452617465206973206e6f742070726f766964696e67206044820152661d1a1a5cc8111560ca1b60648201526084015b60405180910390fd5b82516020808501519086015160405163c99733a760e01b81526004810192909252602482015260009182916001600160a01b039091169063c99733a790604401608060405180830381865afa158015610aa6573d6000803e3d6000fd5b505050506040513d601f19601f82011682018060405250810190610aca9190613ece565b5050915091508460400151821115610b345760405162461bcd60e51b815260206004820152602760248201527f46697865645261746545786368616e67653a20546f6f206d616e79206261736560448201526620746f6b656e7360c81b6064820152608401610a40565b6000670de0b6b3a7640000866060015183610b4f9190613f1a565b610b599190613f39565b9050610b658184613f5b565b9250610b7c6001600160a01b0385163330866120fa565b8551610b93906001600160a01b0386169085612165565b85516020808801519089015160405163412dae6b60e11b815260048101929092526024820152604481018590526001600160a01b039091169063825b5cd690606401600060405180830381600087803b158015610bef57600080fd5b505af1158015610c03573d6000803e3d6000fd5b505050508660200151610c2b306001600160a01b031660009081526020819052604090205490565b1015610c795760405162461bcd60e51b815260206004820152601f60248201527f556e61626c6520746f206275792044542066726f6d20466978656452617465006044820152606401610a40565b610c8830338960200151612217565b610cae8760000151886020015189604001518a606001518b608001518c60a001516123e5565b6080860151610cc8906001600160a01b0386169083612863565b60408051338152602081018590529081018290527fe89458a7527f4bf466ab18794ab8b1ca208b478483a1a87bcf0d976d421b4aff9060600160405180910390a150505050505050565b6000610d1f848484612217565b6001600160a01b038416600090815260016020908152604080832033845290915290205482811015610da45760405162461bcd60e51b815260206004820152602860248201527f45524332303a207472616e7366657220616d6f756e74206578636565647320616044820152676c6c6f77616e636560c01b6064820152608401610a40565b610db18533858403611fd6565b60019150505b9392505050565b600b5460405163160a792560e01b81523360048201526001600160a01b039091169063160a7925906024016080604051808303816000875af1158015610e08573d6000803e3d6000fd5b505050506040513d601f19601f82011682018060405250810190610e2c9190613f73565b60200151610e4c5760405162461bcd60e51b8152600401610a4090613ff8565b610e5581612893565b50565b600b5460405163160a792560e01b81523360048201526001600160a01b039091169063160a7925906024016080604051808303816000875af1158015610ea2573d6000803e3d6000fd5b505050506040513d601f19601f82011682018060405250810190610ec69190613f73565b60200151610ee65760405162461bcd60e51b8152600401610a4090613ff8565b610e5581612900565b6020820151604051631d746d8360e01b815230600482015260248101919091523360448201526001600160a01b03821690631d746d8390606401600060405180830381600087803b158015610f4357600080fd5b505af1158015610f57573d6000803e3d6000fd5b505050508160200151610f7f336001600160a01b031660009081526020819052604090205490565b1015610fcd5760405162461bcd60e51b815260206004820152601f60248201527f556e61626c6520746f206765742044542066726f6d2044697370656e736572006044820152606401610a40565b610ff3826000015183602001518460400151856060015186608001518760a001516123e5565b5050565b3360008181526001602090815260408083206001600160a01b0387168452909152812054909161093f91859061102e908690613f5b565b611fd6565b3360009081526005602052604090205460ff166110925760405162461bcd60e51b815260206004820152601960248201527f455243323054656d706c6174653a204e4f54204d494e544552000000000000006044820152606401610a40565b6009546110a8826110a260025490565b90612960565b11156110f65760405162461bcd60e51b815260206004820152601f60248201527f44617461546f6b656e54656d706c6174653a20636170206578636565646564006044820152606401610a40565b610ff3828261296c565b610e553382612a4b565b600b546040516331a9108f60e11b8152600160048201526001600160a01b0390911690636352211e90602401602060405180830381865afa158015611153573d6000803e3d6000fd5b505050506040513d601f19601f82011682018060405250810190611177919061402d565b6001600160a01b0316336001600160a01b0316146111d75760405162461bcd60e51b815260206004820152601b60248201527f455243323054656d706c6174653a206e6f74204e46544f776e657200000000006044820152606401610a40565b6111df612b99565b600c80546001600160a01b0319169055565b33600090815260056020526040902054610100900460ff16806112825750600b5460405163160a792560e01b81523360048201526001600160a01b039091169063160a7925906024016080604051808303816000875af1158015611259573d6000803e3d6000fd5b505050506040513d601f19601f8201168201806040525081019061127d9190613f73565b602001515b6112e25760405162461bcd60e51b815260206004820152602b60248201527f455243323054656d706c6174653a204e4f54205041594d454e54204d414e414760448201526a22a91037b91027aba722a960a91b6064820152608401610a40565b6112eb81612c48565b604080514281524360208201526001600160a01b0383169133917f4d7694d695c57cc54947177c8e8a0e61aae664e9223492a798c32fadfc6419cc910160405180910390a350565b600d546001600160a01b031633146113a05760405162461bcd60e51b815260206004820152602a60248201527f455243323054656d706c6174653a206e6f74207075626c6973684d61726b65746044820152694665654164647265737360b01b6064820152608401610a40565b6001600160a01b0383166114075760405162461bcd60e51b815260206004820152602860248201527f496e76616c6964205f7075626c6973684d61726b657446656541646472657373604482015267206164647265737360c01b6064820152608401610a40565b600d80546001600160a01b038581166001600160a01b03199283168117909355600e8054918616919092168117909155600f839055604080513381526020810193909352820152606081018290527fe0b85b6f04fa914cf57f6401c5672a83a32b1c388d194c3d78e17f2897d46f439060800160405180910390a1505050565b600061149383336107bc565b9050818110156114f15760405162461bcd60e51b8152602060048201526024808201527f45524332303a206275726e20616d6f756e74206578636565647320616c6c6f77604482015263616e636560e01b6064820152608401610a40565b6114fe8333848403611fd6565b6115088383612a4b565b505050565b600b546001600160a01b031633146111d75760405162461bcd60e51b815260206004820152601f60248201527f455243323054656d706c6174653a204e4f542037323120436f6e7472616374006044820152606401610a40565b600b5460405163160a792560e01b81523360048201526000916001600160a01b03169063160a7925906024016080604051808303816000875af11580156115b2573d6000803e3d6000fd5b505050506040513d601f19601f820116820180604052508101906115d69190613f73565b602001516115f65760405162461bcd60e51b8152600401610a4090613ff8565b308360038151811061160a5761160a61404a565b6001600160a01b039283166020918202929092010152601254604051638244937560e01b815291169063824493759061164b90879087908790600401614060565b6020604051808303816000875af115801561166a573d6000803e3d6000fd5b505050506040513d601f19601f8201168201806040525081019061168e91906140f4565b90506000826004815181106116a5576116a561404a565b602002602001015111156116bc576116bc84612c6a565b7f195d202f33578769e120c3041341554af3193e67ee004175095bc9c06e6e616581846000815181106116f1576116f161404a565b60200260200101516040516117199291909182526001600160a01b0316602082015260400190565b60405180910390a19392505050565b6060600880546108af90613dd6565b600b5460405163160a792560e01b81523360048201526001600160a01b039091169063160a7925906024016080604051808303816000875af1158015611781573d6000803e3d6000fd5b505050506040513d601f19601f820116820180604052508101906117a59190613f73565b602001516117c55760405162461bcd60e51b8152600401610a4090613ff8565b610e5581612c6a565b3360009081526001602090815260408083206001600160a01b0386168452909152812054828110156118505760405162461bcd60e51b815260206004820152602560248201527f45524332303a2064656372656173656420616c6c6f77616e63652062656c6f77604482015264207a65726f60d81b6064820152608401610a40565b61185d3385858403611fd6565b5060019392505050565b600061093f338484612217565b600b5460405163160a792560e01b81523360048201526001600160a01b039091169063160a7925906024016080604051808303816000875af11580156118be573d6000803e3d6000fd5b505050506040513d601f19601f820116820180604052508101906118e29190613f73565b602001516119025760405162461bcd60e51b8152600401610a4090613ff8565b610e5581612d64565b600b5460405163160a792560e01b81523360048201526001600160a01b039091169063160a7925906024016080604051808303816000875af1158015611955573d6000803e3d6000fd5b505050506040513d601f19601f820116820180604052508101906119799190613f73565b602001516119995760405162461bcd60e51b8152600401610a4090613ff8565b6040516bffffffffffffffffffffffff193060601b16602082015260009060340160408051601f19818403018152908290528051602090910120600b546301caf8fd60e31b83529092506001600160a01b031690630e57c7e890611a059084908790879060040161410d565b600060405180830381600087803b158015611a1f57600080fd5b505af1158015611a33573d6000803e3d6000fd5b50505050505050565b611a4f6064670de0b6b3a7640000613f39565b81565b600a54600090600160a01b900460ff1615611ac95760405162461bcd60e51b815260206004820152603160248201527f455243323054656d706c6174653a20746f6b656e20696e7374616e636520616c6044820152701c9958591e481a5b9a5d1a585b1a5e9959607a1b6064820152608401610a40565b611b7d611ad68b8d61419b565b8a8a8080602002602001604051908101604052809392919081815260200183836020028082843760009201919091525050604080516020808e0282810182019093528d82529093508d92508c91829185019084908082843760009201919091525050604080516020808d0282810182019093528c82529093508c92508b918291850190849080828437600092019190915250611b7892508991508a9050614223565b612e72565b9b9a5050505050505050505050565b43841015611bcf5760405162461bcd60e51b815260206004820152601060248201526f115490cc8c11150e881156141254915160821b6044820152606401610a40565b6010546001600160a01b038816600090815260116020526040812080549192917f6e71edae12b1b97f4d1f60370fef10105fa2faae0126114a169c64845d6126c9918b918b918b919087611c228361429f565b909155506040805160208101969096526001600160a01b0394851690860152929091166060840152608083015260a082015260c0810187905260e00160405160208183030381529060405280519060200120604051602001611c9b92919061190160f01b81526002810192909252602282015260420190565b60408051601f198184030181528282528051602091820120600080855291840180845281905260ff88169284019290925260608301869052608083018590529092509060019060a0016020604051602081039080840390855afa158015611d06573d6000803e3d6000fd5b5050604051601f1901519150506001600160a01b03811615801590611d3c5750886001600160a01b0316816001600160a01b0316145b611d885760405162461bcd60e51b815260206004820152601a60248201527f455243323044543a20494e56414c49445f5349474e41545552450000000000006044820152606401610a40565b611d93898989611fd6565b505050505050505050565b611da6611dde565b6001600160a01b03166108fc479081150290604051600060405180830381858888f19350505050158015610e55573d6000803e3d6000fd5b600c546000906001600160a01b0316611e6357600b546040516331a9108f60e11b8152600160048201526001600160a01b0390911690636352211e90602401602060405180830381865afa158015611e3a573d6000803e3d6000fd5b505050506040513d601f19601f82011682018060405250810190611e5e919061402d565b905090565b50600c546001600160a01b031690565b60068181548110611e8357600080fd5b6000918252602090912001546001600160a01b0316905081565b600b5460405163160a792560e01b81523360048201526001600160a01b039091169063160a7925906024016080604051808303816000875af1158015611ee7573d6000803e3d6000fd5b505050506040513d601f19601f82011682018060405250810190611f0b9190613f73565b60200151611f2b5760405162461bcd60e51b8152600401610a4090613ff8565b601254604051636b14d00560e11b81526001600160a01b0386811660048301523060248301819052604483018790526064830186905233608484015260a48301529091169063d629a00a9060c401600060405180830381600087803b158015611f9357600080fd5b505af1158015611fa7573d6000803e3d6000fd5b505050508015611fba57611fba84612c6a565b50505050565b611fce8686868686866123e5565b505050505050565b6001600160a01b0383166120385760405162461bcd60e51b8152602060048201526024808201527f45524332303a20617070726f76652066726f6d20746865207a65726f206164646044820152637265737360e01b6064820152608401610a40565b6001600160a01b0382166120995760405162461bcd60e51b815260206004820152602260248201527f45524332303a20617070726f766520746f20746865207a65726f206164647265604482015261737360f01b6064820152608401610a40565b6001600160a01b0383811660008181526001602090815260408083209487168084529482529182902085905590518481527f8c5be1e5ebec7d5bd14f71427d1e84f3dd0314c0f7b2291e5b200ac8c7c3b925910160405180910390a3505050565b6040516001600160a01b0380851660248301528316604482015260648101829052611fba9085906323b872dd60e01b906084015b60408051601f198184030181529190526020810180516001600160e01b03166001600160e01b031990931692909217909152613371565b604051636eb1769f60e11b81523060048201526001600160a01b038381166024830152600091839186169063dd62ed3e90604401602060405180830381865afa1580156121b6573d6000803e3d6000fd5b505050506040513d601f19601f820116820180604052508101906121da91906140f4565b6121e49190613f5b565b6040516001600160a01b038516602482015260448101829052909150611fba90859063095ea7b360e01b9060640161212e565b6001600160a01b03831661227b5760405162461bcd60e51b815260206004820152602560248201527f45524332303a207472616e736665722066726f6d20746865207a65726f206164604482015264647265737360d81b6064820152608401610a40565b6001600160a01b0382166122dd5760405162461bcd60e51b815260206004820152602360248201527f45524332303a207472616e7366657220746f20746865207a65726f206164647260448201526265737360e81b6064820152608401610a40565b6001600160a01b038316600090815260208190526040902054818110156123555760405162461bcd60e51b815260206004820152602660248201527f45524332303a207472616e7366657220616d6f756e7420657863656564732062604482015265616c616e636560d01b6064820152608401610a40565b6001600160a01b0380851660009081526020819052604080822085850390559185168152908120805484929061238c908490613f5b565b92505081905550826001600160a01b0316846001600160a01b03167fddf252ad1be2c89b69c2b068fc378daa952ba7f163c4a11628f55a4df523b3ef846040516123d891815260200190565b60405180910390a3611fba565b3360009081526020819052604081205481908711156124545760405162461bcd60e51b815260206004820152602560248201527f4e6f7420656e6f756768204461746120546f6b656e7320746f2073746172742060448201526427b93232b960d91b6064820152608401610a40565b600d5460408051338152602081018a90529081018890524260608201524360808201526001600160a01b0387811692811691908b16907fb07adb6a34680ecbbc7935971c45a07b9baf67ce5dc57332d51e3a5745c9e9639060a00160405180910390a46000600f541180156124d35750600e546001600160a01b031615155b80156124e95750600d546001600160a01b031615155b156125a857600f54600e5461250d916001600160a01b0390911690339030906120fa565b600f5461251b906064613443565b600d54600f54919250612551916001600160a01b039091169061253e908461344f565b600e546001600160a01b03169190612863565b600e54600d54600f546001600160a01b0392831692909116907ff666b31c81334b6085802ba4149907fa724689d43bc31df6de1a51291ddc55b490612596908561344f565b60405190815260200160405180910390a35b6000831180156125c057506001600160a01b03841615155b80156125d457506001600160a01b03851615155b15612665576125ee6001600160a01b0385163330866120fa565b6125f9836064613443565b915061261a85612609858561344f565b6001600160a01b0387169190612863565b6001600160a01b038085169086167f504f65f39bc14c176feeffb7a6f6f46cf702ca4dcc8e6197b5a4c741dd94f3d1612653868661344f565b60405190815260200160405180910390a35b6000811180156126755750600082115b801561268e5750600e546001600160a01b038581169116145b80156126a257506001600160a01b03841615155b1561274e57600a546126c1906001600160a01b03166126098385612960565b600a546040518281526001600160a01b038681169216907ff666b31c81334b6085802ba4149907fa724689d43bc31df6de1a51291ddc55b49060200160405180910390a3600a546040518381526001600160a01b038681169216907f504f65f39bc14c176feeffb7a6f6f46cf702ca4dcc8e6197b5a4c741dd94f3d19060200160405180910390a3612850565b6000811180156127685750600e546001600160a01b031615155b156127d457600a54600e5461278a916001600160a01b03918216911683612863565b600e54600a546040518381526001600160a01b0392831692909116907ff666b31c81334b6085802ba4149907fa724689d43bc31df6de1a51291ddc55b49060200160405180910390a35b6000821180156127ec57506001600160a01b03841615155b1561285057600a5461280b906001600160a01b03868116911684612863565b600a546040518381526001600160a01b038681169216907f504f65f39bc14c176feeffb7a6f6f46cf702ca4dcc8e6197b5a4c741dd94f3d19060200160405180910390a35b61285987611100565b5050505050505050565b6040516001600160a01b03831660248201526044810182905261150890849063a9059cbb60e01b9060640161212e565b6001600160a01b03811660008181526005602052604090819020805461ff00191681559051909133917faee911eec8b2df8f3ae0464841541b1e5f339519bd5cf51889fe8b07fecff658906128f49042904390918252602082015260400190565b60405180910390a35050565b6001600160a01b03811660008181526005602052604090819020805460ff191681559051909133917fefa2735987005aaa89c050c0ff8cc9ae7d9079d19382081c429130f98c52d480906128f49042904390918252602082015260400190565b6000610db78284613f5b565b6001600160a01b0382166129c25760405162461bcd60e51b815260206004820152601f60248201527f45524332303a206d696e7420746f20746865207a65726f2061646472657373006044820152606401610a40565b80600260008282546129d49190613f5b565b90915550506001600160a01b03821660009081526020819052604081208054839290612a01908490613f5b565b90915550506040518181526001600160a01b038316906000907fddf252ad1be2c89b69c2b068fc378daa952ba7f163c4a11628f55a4df523b3ef9060200160405180910390a35050565b6001600160a01b038216612aab5760405162461bcd60e51b815260206004820152602160248201527f45524332303a206275726e2066726f6d20746865207a65726f206164647265736044820152607360f81b6064820152608401610a40565b6001600160a01b03821660009081526020819052604090205481811015612b1f5760405162461bcd60e51b815260206004820152602260248201527f45524332303a206275726e20616d6f756e7420657863656564732062616c616e604482015261636560f01b6064820152608401610a40565b6001600160a01b0383166000908152602081905260408120838303905560028054849290612b4e9084906142ba565b90915550506040518281526000906001600160a01b038516907fddf252ad1be2c89b69c2b068fc378daa952ba7f163c4a11628f55a4df523b3ef9060200160405180910390a3505050565b60005b600654811015612bff5760006005600060068481548110612bbf57612bbf61404a565b60009182526020808320909101546001600160a01b031683528201929092526040019020805461ffff191690555080612bf78161429f565b915050612b9c565b50612c0c600660006135d3565b6040805142815243602082015233917f712bc71db81927a76b8bf1ea346247bb0ad58f18e4e5c1bd4aa0ec6573e02a2b910160405180910390a2565b600c80546001600160a01b0319166001600160a01b0392909216919091179055565b6001600160a01b0381166000908152600560205260409020805460ff1615612cd45760405162461bcd60e51b815260206004820152601d60248201527f4552433230526f6c65733a2020414c52454144592041204d494e5445520000006044820152606401610a40565b8054600160ff19909116811782556006805491820181556000527ff652222313e28459528d920b65115c16c04f3efc82aaedc97be59f3f377c0d3f0180546001600160a01b0319166001600160a01b038416908117909155604080514281524360208201523392917f4f7e100eb1ee13e903798bd0d6aa854152e07eb05544f392b9409c12935c809591016128f4565b6001600160a01b03811660009081526005602052604090208054610100900460ff1615612dde5760405162461bcd60e51b815260206004820152602260248201527f4552433230526f6c65733a2020414c5245414459204120464545204d414e414760448201526122a960f11b6064820152608401610a40565b805461ff001916610100178155600680546001810182556000919091527ff652222313e28459528d920b65115c16c04f3efc82aaedc97be59f3f377c0d3f0180546001600160a01b0384166001600160a01b03199091168117909155604080514281524360208201523392917fb17da2e9910b4ba5754e8872385ba315a238bafb5ae221fc85093c33432c40a791016128f4565b60008084600081518110612e8857612e8861404a565b60200260200101519050600085600181518110612ea757612ea761404a565b6020026020010151905060006001600160a01b0316826001600160a01b03161415612f295760405162461bcd60e51b815260206004820152602c60248201527f455243323054656d706c6174653a20496e76616c6964206d696e7465722c202060448201526b7a65726f206164647265737360a01b6064820152608401610a40565b6001600160a01b038116612fa55760405162461bcd60e51b815260206004820152603c60248201527f455243323054656d706c6174653a20496e76616c696420636f6d6d756e69747960448201527f2066656520636f6c6c6563746f722c207a65726f2061646472657373000000006064820152608401610a40565b84600081518110612fb857612fb861404a565b60200260200101516000141561301c5760405162461bcd60e51b8152602060048201526024808201527f44617461546f6b656e54656d706c6174653a20496e76616c6964206361702076604482015263616c756560e01b6064820152608401610a40565b8460008151811061302f5761302f61404a565b6020026020010151600981905550876000815181106130505761305061404a565b60200260200101516007908051906020019061306d9291906135f1565b50876001815181106130815761308161404a565b60200260200101516008908051906020019061309e9291906135f1565b50600b80546001600160a01b0319166001600160a01b0384161790558551869060029081106130cf576130cf61404a565b6020908102919091010151601280546001600160a01b039283166001600160a01b0319909116179055600a80546001600160a81b03191691831691909117600160a01b179055865161313990889060009061312c5761312c61404a565b6020026020010151612c6a565b60006001600160a01b0316876001815181106131575761315761404a565b60200260200101516001600160a01b03161461320157613190876001815181106131835761318361404a565b6020026020010151612c48565b866001815181106131a3576131a361404a565b60200260200101516001600160a01b0316336001600160a01b03167f4d7694d695c57cc54947177c8e8a0e61aae664e9223492a798c32fadfc6419cc42436040516131f8929190918252602082015260400190565b60405180910390a35b866002815181106132145761321461404a565b6020026020010151600d60006101000a8154816001600160a01b0302191690836001600160a01b03160217905550866003815181106132555761325561404a565b6020026020010151600e60006101000a8154816001600160a01b0302191690836001600160a01b03160217905550846001815181106132965761329661404a565b6020026020010151600f8190555060004690507f8b73c3c69bb8fe3d512ecc4cf759cc79239f7b179b0ffacaa9a75d522b39400f60076040516132d991906142d1565b60408051918290038220828201825260018352603160f81b6020938401528151928301939093528101919091527fc89efdaa54c0f20c7adf612882df0950f5a951637e0307cdcb4c672f298b8bc66060820152608081018290523060a082015260c00160408051808303601f1901815291905280516020909101206010555050600a54600160a01b900460ff16979650505050505050565b60006133c6826040518060400160405280602081526020017f5361666545524332303a206c6f772d6c6576656c2063616c6c206661696c6564815250856001600160a01b031661345b9092919063ffffffff16565b80519091501561150857808060200190518101906133e4919061436d565b6115085760405162461bcd60e51b815260206004820152602a60248201527f5361666545524332303a204552433230206f7065726174696f6e20646964206e6044820152691bdd081cdd58d8d9595960b21b6064820152608401610a40565b6000610db78284613f39565b6000610db782846142ba565b606061346a8484600085613472565b949350505050565b6060824710156134d35760405162461bcd60e51b815260206004820152602660248201527f416464726573733a20696e73756666696369656e742062616c616e636520666f6044820152651c8818d85b1b60d21b6064820152608401610a40565b843b6135215760405162461bcd60e51b815260206004820152601d60248201527f416464726573733a2063616c6c20746f206e6f6e2d636f6e74726163740000006044820152606401610a40565b600080866001600160a01b0316858760405161353d919061438a565b60006040518083038185875af1925050503d806000811461357a576040519150601f19603f3d011682016040523d82523d6000602084013e61357f565b606091505b509150915061358f82828661359a565b979650505050505050565b606083156135a9575081610db7565b8251156135b95782518084602001fd5b8160405162461bcd60e51b8152600401610a4091906136e8565b5080546000825590600052602060002090810190610e559190613675565b8280546135fd90613dd6565b90600052602060002090601f01602090048101928261361f5760008555613665565b82601f1061363857805160ff1916838001178555613665565b82800160010185558215613665579182015b8281111561366557825182559160200191906001019061364a565b50613671929150613675565b5090565b5b808211156136715760008155600101613676565b6001600160a01b0381168114610e5557600080fd5b6000602082840312156136b157600080fd5b8135610db78161368a565b60005b838110156136d75781810151838201526020016136bf565b83811115611fba5750506000910152565b60208152600082518060208401526137078160408501602087016136bc565b601f01601f19169190910160400192915050565b6000806040838503121561372e57600080fd5b82356137398161368a565b946020939093013593505050565b634e487b7160e01b600052604160045260246000fd5b604051601f8201601f1916810167ffffffffffffffff8111828210171561378657613786613747565b604052919050565b600060c082840312156137a057600080fd5b60405160c0810181811067ffffffffffffffff821117156137c3576137c3613747565b60405290508082356137d48161368a565b80825250602083013560208201526040830135604082015260608301356137fa8161368a565b6060820152608083013561380d8161368a565b608082015260a092830135920191909152919050565b60008082840361016081121561383857600080fd5b613842858561378e565b925060a060bf198201121561385657600080fd5b5060405160a0810181811067ffffffffffffffff8211171561387a5761387a613747565b60405260c084013561388b8161368a565b815260e08401356020820152610100840135604082015261012084013560608201526101408401356138bc8161368a565b6080820152919491935090915050565b6000806000606084860312156138e157600080fd5b83356138ec8161368a565b925060208401356138fc8161368a565b929592945050506040919091013590565b60008060e0838503121561392057600080fd5b61392a848461378e565b915060c083013561393a8161368a565b809150509250929050565b60006020828403121561395757600080fd5b5035919050565b600067ffffffffffffffff82111561397857613978613747565b5060051b60200190565b600082601f83011261399357600080fd5b813560206139a86139a38361395e565b61375d565b82815260059290921b840181019181810190868411156139c757600080fd5b8286015b848110156139e257803583529183019183016139cb565b509695505050505050565b600080600060608486031215613a0257600080fd5b8335613a0d8161368a565b925060208481013567ffffffffffffffff80821115613a2b57600080fd5b818701915087601f830112613a3f57600080fd5b8135613a4d6139a38261395e565b81815260059190911b8301840190848101908a831115613a6c57600080fd5b938501935b82851015613a93578435613a848161368a565b82529385019390850190613a71565b965050506040870135925080831115613aab57600080fd5b5050613ab986828701613982565b9150509250925092565b60008060208385031215613ad657600080fd5b823567ffffffffffffffff80821115613aee57600080fd5b818501915085601f830112613b0257600080fd5b813581811115613b1157600080fd5b866020828501011115613b2357600080fd5b60209290920196919550909350505050565b60008083601f840112613b4757600080fd5b50813567ffffffffffffffff811115613b5f57600080fd5b6020830191508360208260051b8501011115613b7a57600080fd5b9250929050565b60008060008060008060008060008060a08b8d031215613ba057600080fd5b8a3567ffffffffffffffff80821115613bb857600080fd5b613bc48e838f01613b35565b909c509a5060208d0135915080821115613bdd57600080fd5b613be98e838f01613b35565b909a50985060408d0135915080821115613c0257600080fd5b613c0e8e838f01613b35565b909850965060608d0135915080821115613c2757600080fd5b613c338e838f01613b35565b909650945060808d0135915080821115613c4c57600080fd5b50613c598d828e01613b35565b915080935050809150509295989b9194979a5092959850565b600080600080600080600060e0888a031215613c8d57600080fd5b8735613c988161368a565b96506020880135613ca88161368a565b95506040880135945060608801359350608088013560ff81168114613ccc57600080fd5b9699959850939692959460a0840135945060c09093013592915050565b60008060408385031215613cfc57600080fd5b8235613d078161368a565b9150602083013561393a8161368a565b8015158114610e5557600080fd5b60008060008060808587031215613d3b57600080fd5b8435613d468161368a565b935060208501359250604085013591506060850135613d6481613d17565b939692955090935050565b60008060008060008060c08789031215613d8857600080fd5b8635613d938161368a565b955060208701359450604087013593506060870135613db18161368a565b92506080870135613dc18161368a565b8092505060a087013590509295509295509295565b600181811c90821680613dea57607f821691505b60208210811415613e0b57634e487b7160e01b600052602260045260246000fd5b50919050565b6000806000806000806000806000806000806101808d8f031215613e3457600080fd5b8c51613e3f8161368a565b60208e0151909c50613e508161368a565b60408e015160608f0151919c509a50613e688161368a565b8099505060808d0151975060a08d0151965060c08d0151613e8881613d17565b8096505060e08d015194506101008d015193506101208d015192506101408d015191506101608d0151613eba81613d17565b809150509295989b509295989b509295989b565b60008060008060808587031215613ee457600080fd5b505082516020840151604085015160609095015191969095509092509050565b634e487b7160e01b600052601160045260246000fd5b6000816000190483118215151615613f3457613f34613f04565b500290565b600082613f5657634e487b7160e01b600052601260045260246000fd5b500490565b60008219821115613f6e57613f6e613f04565b500190565b600060808284031215613f8557600080fd5b6040516080810181811067ffffffffffffffff82111715613fa857613fa8613747565b6040528251613fb681613d17565b81526020830151613fc681613d17565b60208201526040830151613fd981613d17565b60408201526060830151613fec81613d17565b60608201529392505050565b6020808252818101527f455243323054656d706c6174653a204e4f54204445504c4f59455220524f4c45604082015260600190565b60006020828403121561403f57600080fd5b8151610db78161368a565b634e487b7160e01b600052603260045260246000fd5b6001600160a01b038481168252606060208084018290528551918401829052600092868201929091906080860190855b818110156140ae578551851683529483019491830191600101614090565b5050858103604087015286518082529082019350915080860160005b838110156140e6578151855293820193908201906001016140ca565b509298975050505050505050565b60006020828403121561410657600080fd5b5051919050565b83815260406020820152816040820152818360608301376000818301606090810191909152601f909201601f1916010192915050565b600067ffffffffffffffff83111561415d5761415d613747565b614170601f8401601f191660200161375d565b905082815283838301111561418457600080fd5b828260208301376000602084830101529392505050565b60006141a96139a38461395e565b80848252602080830192508560051b8501368111156141c757600080fd5b855b8181101561421757803567ffffffffffffffff8111156141e95760008081fd5b870136601f8201126141fb5760008081fd5b614209368235868401614143565b8652509382019382016141c9565b50919695505050505050565b60006142316139a38461395e565b80848252602080830192508560051b85013681111561424f57600080fd5b855b8181101561421757803567ffffffffffffffff8111156142715760008081fd5b870136601f8201126142835760008081fd5b614291368235868401614143565b865250938201938201614251565b60006000198214156142b3576142b3613f04565b5060010190565b6000828210156142cc576142cc613f04565b500390565b600080835481600182811c9150808316806142ed57607f831692505b602080841082141561430d57634e487b7160e01b86526022600452602486fd5b81801561432157600181146143325761435f565b60ff1986168952848901965061435f565b60008a81526020902060005b868110156143575781548b82015290850190830161433e565b505084890196505b509498975050505050505050565b60006020828403121561437f57600080fd5b8151610db781613d17565b6000825161439c8184602087016136bc565b919091019291505056fea2646970667358221220fe0d9cb89f50788e74ad9620d60f2f55ef60610fe04155b915c118bae748372b64736f6c634300080a0033",
  "linkReferences": {},
  "deployedLinkReferences": {}
}