{
  "_format": "hh-sol-artifact-1",
  "contractName": "ERC20TemplateEnterprise",
  "sourceName": "contracts/templates/ERC20TemplateEnterprise.sol",
  "abi": [
    {
      "anonymous": false,
      "inputs": [
        {
          "indexed": true,
          "internalType": "address",
          "name": "user",
          "type": "address"
        },
        {
          "indexed": true,
          "internalType": "address",
          "name": "signer",
          "type": "address"
        },
        {
          "indexed": false,
          "internalType": "uint256",
          "name": "timestamp",
          "type": "uint256"
        },
        {
          "indexed": false,
          "internalType": "uint256",
          "name": "blockNumber",
          "type": "uint256"
        }
      ],
      "name": "AddedMinter",
      "type": "event"
    },
    {
      "anonymous": false,
      "inputs": [
        {
          "indexed": true,
          "internalType": "address",
          "name": "user",
          "type": "address"
        },
        {
          "indexed": true,
          "internalType": "address",
          "name": "signer",
          "type": "address"
        },
        {
          "indexed": false,
          "internalType": "uint256",
          "name": "timestamp",
          "type": "uint256"
        },
        {
          "indexed": false,
          "internalType": "uint256",
          "name": "blockNumber",
          "type": "uint256"
        }
      ],
      "name": "AddedPaymentManager",
      "type": "event"
    },
    {
      "anonymous": false,
      "inputs": [
        {
          "indexed": true,
          "internalType": "address",
          "name": "owner",
          "type": "address"
        },
        {
          "indexed": true,
          "internalType": "address",
          "name": "spender",
          "type": "address"
        },
        {
          "indexed": false,
          "internalType": "uint256",
          "name": "value",
          "type": "uint256"
        }
      ],
      "name": "Approval",
      "type": "event"
    },
    {
      "anonymous": false,
      "inputs": [
        {
          "indexed": true,
          "internalType": "address",
          "name": "signer",
          "type": "address"
        },
        {
          "indexed": false,
          "internalType": "uint256",
          "name": "timestamp",
          "type": "uint256"
        },
        {
          "indexed": false,
          "internalType": "uint256",
          "name": "blockNumber",
          "type": "uint256"
        }
      ],
      "name": "CleanedPermissions",
      "type": "event"
    },
    {
      "anonymous": false,
      "inputs": [
        {
          "indexed": true,
          "internalType": "address",
          "name": "consumeFeeAddress",
          "type": "address"
        },
        {
          "indexed": true,
          "internalType": "address",
          "name": "consumeFeeToken",
          "type": "address"
        },
        {
          "indexed": false,
          "internalType": "uint256",
          "name": "consumeFeeAmount",
          "type": "uint256"
        }
      ],
      "name": "ConsumeMarketFees",
      "type": "event"
    },
    {
      "anonymous": false,
      "inputs": [
        {
          "indexed": false,
          "internalType": "address",
          "name": "currentMinter",
          "type": "address"
        },
        {
          "indexed": false,
          "internalType": "address",
          "name": "newMinter",
          "type": "address"
        }
      ],
      "name": "MinterApproved",
      "type": "event"
    },
    {
      "anonymous": false,
      "inputs": [
        {
          "indexed": false,
          "internalType": "address",
          "name": "currentMinter",
          "type": "address"
        },
        {
          "indexed": false,
          "internalType": "address",
          "name": "newMinter",
          "type": "address"
        }
      ],
      "name": "MinterProposed",
      "type": "event"
    },
    {
      "anonymous": false,
      "inputs": [
        {
          "indexed": false,
          "internalType": "bytes32",
          "name": "exchangeId",
          "type": "bytes32"
        },
        {
          "indexed": false,
          "internalType": "address",
          "name": "owner",
          "type": "address"
        }
      ],
      "name": "NewFixedRate",
      "type": "event"
    },
    {
      "anonymous": false,
      "inputs": [
        {
          "indexed": true,
          "internalType": "address",
          "name": "caller",
          "type": "address"
        },
        {
          "indexed": true,
          "internalType": "address",
          "name": "_newPaymentCollector",
          "type": "address"
        },
        {
          "indexed": false,
          "internalType": "uint256",
          "name": "timestamp",
          "type": "uint256"
        },
        {
          "indexed": false,
          "internalType": "uint256",
          "name": "blockNumber",
          "type": "uint256"
        }
      ],
      "name": "NewPaymentCollector",
      "type": "event"
    },
    {
      "anonymous": false,
      "inputs": [
        {
          "indexed": false,
          "internalType": "address",
          "name": "poolAddress",
          "type": "address"
        },
        {
          "indexed": false,
          "internalType": "address",
          "name": "ssContract",
          "type": "address"
        },
        {
          "indexed": false,
          "internalType": "address",
          "name": "basetokenAddress",
          "type": "address"
        }
      ],
      "name": "NewPool",
      "type": "event"
    },
    {
      "anonymous": false,
      "inputs": [
        {
          "indexed": true,
          "internalType": "address",
          "name": "consumer",
          "type": "address"
        },
        {
          "indexed": false,
          "internalType": "address",
          "name": "payer",
          "type": "address"
        },
        {
          "indexed": false,
          "internalType": "uint256",
          "name": "amount",
          "type": "uint256"
        },
        {
          "indexed": false,
          "internalType": "uint256",
          "name": "serviceIndex",
          "type": "uint256"
        },
        {
          "indexed": false,
          "internalType": "uint256",
          "name": "timestamp",
          "type": "uint256"
        },
        {
          "indexed": true,
          "internalType": "address",
          "name": "publishMarketAddress",
          "type": "address"
        },
        {
          "indexed": true,
          "internalType": "address",
          "name": "consumeFeeMarketAddress",
          "type": "address"
        },
        {
          "indexed": false,
          "internalType": "uint256",
          "name": "blockNumber",
          "type": "uint256"
        }
      ],
      "name": "OrderStarted",
      "type": "event"
    },
    {
      "anonymous": false,
      "inputs": [
        {
          "indexed": true,
          "internalType": "address",
          "name": "PublishMarketFeeAddress",
          "type": "address"
        },
        {
          "indexed": true,
          "internalType": "address",
          "name": "PublishMarketFeeToken",
          "type": "address"
        },
        {
          "indexed": false,
          "internalType": "uint256",
          "name": "PublishMarketFeeAmount",
          "type": "uint256"
        }
      ],
      "name": "PublishMarketFees",
      "type": "event"
    },
    {
      "anonymous": false,
      "inputs": [
        {
          "indexed": false,
          "internalType": "address",
          "name": "caller",
          "type": "address"
        },
        {
          "indexed": false,
          "internalType": "address",
          "name": "PublishMarketFeeAddress",
          "type": "address"
        },
        {
          "indexed": false,
          "internalType": "address",
          "name": "PublishMarketFeeToken",
          "type": "address"
        },
        {
          "indexed": false,
          "internalType": "uint256",
          "name": "PublishMarketFeeAmount",
          "type": "uint256"
        }
      ],
      "name": "PublishMarketFeesChanged",
      "type": "event"
    },
    {
      "anonymous": false,
      "inputs": [
        {
          "indexed": true,
          "internalType": "address",
          "name": "user",
          "type": "address"
        },
        {
          "indexed": true,
          "internalType": "address",
          "name": "signer",
          "type": "address"
        },
        {
          "indexed": false,
          "internalType": "uint256",
          "name": "timestamp",
          "type": "uint256"
        },
        {
          "indexed": false,
          "internalType": "uint256",
          "name": "blockNumber",
          "type": "uint256"
        }
      ],
      "name": "RemovedMinter",
      "type": "event"
    },
    {
      "anonymous": false,
      "inputs": [
        {
          "indexed": true,
          "internalType": "address",
          "name": "user",
          "type": "address"
        },
        {
          "indexed": true,
          "internalType": "address",
          "name": "signer",
          "type": "address"
        },
        {
          "indexed": false,
          "internalType": "uint256",
          "name": "timestamp",
          "type": "uint256"
        },
        {
          "indexed": false,
          "internalType": "uint256",
          "name": "blockNumber",
          "type": "uint256"
        }
      ],
      "name": "RemovedPaymentManager",
      "type": "event"
    },
    {
      "anonymous": false,
      "inputs": [
        {
          "indexed": true,
          "internalType": "address",
          "name": "from",
          "type": "address"
        },
        {
          "indexed": true,
          "internalType": "address",
          "name": "to",
          "type": "address"
        },
        {
          "indexed": false,
          "internalType": "uint256",
          "name": "value",
          "type": "uint256"
        }
      ],
      "name": "Transfer",
      "type": "event"
    },
    {
      "stateMutability": "payable",
      "type": "fallback"
    },
    {
      "inputs": [],
      "name": "BASE",
      "outputs": [
        {
          "internalType": "uint256",
          "name": "",
          "type": "uint256"
        }
      ],
      "stateMutability": "view",
      "type": "function"
    },
    {
      "inputs": [],
      "name": "BASE_COMMUNITY_FEE_PERCENTAGE",
      "outputs": [
        {
          "internalType": "uint256",
          "name": "",
          "type": "uint256"
        }
      ],
      "stateMutability": "view",
      "type": "function"
    },
    {
      "inputs": [],
      "name": "DOMAIN_SEPARATOR",
      "outputs": [
        {
          "internalType": "bytes32",
          "name": "",
          "type": "bytes32"
        }
      ],
      "stateMutability": "view",
      "type": "function"
    },
    {
      "inputs": [],
      "name": "PERMIT_TYPEHASH",
      "outputs": [
        {
          "internalType": "bytes32",
          "name": "",
          "type": "bytes32"
        }
      ],
      "stateMutability": "view",
      "type": "function"
    },
    {
      "inputs": [
        {
          "internalType": "address",
          "name": "_minter",
          "type": "address"
        }
      ],
      "name": "addMinter",
      "outputs": [],
      "stateMutability": "nonpayable",
      "type": "function"
    },
    {
      "inputs": [
        {
          "internalType": "address",
          "name": "_paymentManager",
          "type": "address"
        }
      ],
      "name": "addPaymentManager",
      "outputs": [],
      "stateMutability": "nonpayable",
      "type": "function"
    },
    {
      "inputs": [
        {
          "internalType": "address",
          "name": "owner",
          "type": "address"
        },
        {
          "internalType": "address",
          "name": "spender",
          "type": "address"
        }
      ],
      "name": "allowance",
      "outputs": [
        {
          "internalType": "uint256",
          "name": "",
          "type": "uint256"
        }
      ],
      "stateMutability": "view",
      "type": "function"
    },
    {
      "inputs": [
        {
          "internalType": "address",
          "name": "spender",
          "type": "address"
        },
        {
          "internalType": "uint256",
          "name": "amount",
          "type": "uint256"
        }
      ],
      "name": "approve",
      "outputs": [
        {
          "internalType": "bool",
          "name": "",
          "type": "bool"
        }
      ],
      "stateMutability": "nonpayable",
      "type": "function"
    },
    {
      "inputs": [
        {
          "internalType": "uint256",
          "name": "",
          "type": "uint256"
        }
      ],
      "name": "authERC20",
      "outputs": [
        {
          "internalType": "address",
          "name": "",
          "type": "address"
        }
      ],
      "stateMutability": "view",
      "type": "function"
    },
    {
      "inputs": [
        {
          "internalType": "address",
          "name": "account",
          "type": "address"
        }
      ],
      "name": "balanceOf",
      "outputs": [
        {
          "internalType": "uint256",
          "name": "",
          "type": "uint256"
        }
      ],
      "stateMutability": "view",
      "type": "function"
    },
    {
      "inputs": [
        {
          "internalType": "uint256",
          "name": "amount",
          "type": "uint256"
        }
      ],
      "name": "burn",
      "outputs": [],
      "stateMutability": "nonpayable",
      "type": "function"
    },
    {
      "inputs": [
        {
          "internalType": "address",
          "name": "account",
          "type": "address"
        },
        {
          "internalType": "uint256",
          "name": "amount",
          "type": "uint256"
        }
      ],
      "name": "burnFrom",
      "outputs": [],
      "stateMutability": "nonpayable",
      "type": "function"
    },
    {
      "inputs": [
        {
          "components": [
            {
              "internalType": "address",
              "name": "consumer",
              "type": "address"
            },
            {
              "internalType": "uint256",
              "name": "amount",
              "type": "uint256"
            },
            {
              "internalType": "uint256",
              "name": "serviceIndex",
              "type": "uint256"
            },
            {
              "internalType": "address",
              "name": "consumeFeeAddress",
              "type": "address"
            },
            {
              "internalType": "address",
              "name": "consumeFeeToken",
              "type": "address"
            },
            {
              "internalType": "uint256",
              "name": "consumeFeeAmount",
              "type": "uint256"
            }
          ],
          "internalType": "struct ERC20TemplateEnterprise.OrderParams",
          "name": "_orderParams",
          "type": "tuple"
        },
        {
          "internalType": "address",
          "name": "dispenserContract",
          "type": "address"
        }
      ],
      "name": "buyFromDispenserAndOrder",
      "outputs": [],
      "stateMutability": "nonpayable",
      "type": "function"
    },
    {
      "inputs": [
        {
          "components": [
            {
              "internalType": "address",
              "name": "consumer",
              "type": "address"
            },
            {
              "internalType": "uint256",
              "name": "amount",
              "type": "uint256"
            },
            {
              "internalType": "uint256",
              "name": "serviceIndex",
              "type": "uint256"
            },
            {
              "internalType": "address",
              "name": "consumeFeeAddress",
              "type": "address"
            },
            {
              "internalType": "address",
              "name": "consumeFeeToken",
              "type": "address"
            },
            {
              "internalType": "uint256",
              "name": "consumeFeeAmount",
              "type": "uint256"
            }
          ],
          "internalType": "struct ERC20TemplateEnterprise.OrderParams",
          "name": "_orderParams",
          "type": "tuple"
        },
        {
          "components": [
            {
              "internalType": "address",
              "name": "exchangeContract",
              "type": "address"
            },
            {
              "internalType": "bytes32",
              "name": "exchangeId",
              "type": "bytes32"
            },
            {
              "internalType": "uint256",
              "name": "maxBaseTokenAmount",
              "type": "uint256"
            },
            {
              "internalType": "uint256",
              "name": "swapMarketFee",
              "type": "uint256"
            },
            {
              "internalType": "address",
              "name": "marketFeeAddress",
              "type": "address"
            }
          ],
          "internalType": "struct ERC20TemplateEnterprise.FreParams",
          "name": "_freParams",
          "type": "tuple"
        }
      ],
      "name": "buyFromFreAndOrder",
      "outputs": [],
      "stateMutability": "nonpayable",
      "type": "function"
    },
    {
      "inputs": [],
      "name": "cap",
      "outputs": [
        {
          "internalType": "uint256",
          "name": "",
          "type": "uint256"
        }
      ],
      "stateMutability": "view",
      "type": "function"
    },
    {
      "inputs": [],
      "name": "cleanFrom721",
      "outputs": [],
      "stateMutability": "nonpayable",
      "type": "function"
    },
    {
      "inputs": [],
      "name": "cleanPermissions",
      "outputs": [],
      "stateMutability": "nonpayable",
      "type": "function"
    },
    {
      "inputs": [
        {
          "internalType": "address",
          "name": "_dispenser",
          "type": "address"
        },
        {
          "internalType": "uint256",
          "name": "maxTokens",
          "type": "uint256"
        },
        {
          "internalType": "uint256",
          "name": "maxBalance",
          "type": "uint256"
        },
        {
          "internalType": "bool",
          "name": "withMint",
          "type": "bool"
        }
      ],
      "name": "createDispenser",
      "outputs": [],
      "stateMutability": "nonpayable",
      "type": "function"
    },
    {
      "inputs": [
        {
          "internalType": "address",
          "name": "fixedPriceAddress",
          "type": "address"
        },
        {
          "internalType": "address[]",
          "name": "addresses",
          "type": "address[]"
        },
        {
          "internalType": "uint256[]",
          "name": "uints",
          "type": "uint256[]"
        }
      ],
      "name": "createFixedRate",
      "outputs": [
        {
          "internalType": "bytes32",
          "name": "exchangeId",
          "type": "bytes32"
        }
      ],
      "stateMutability": "nonpayable",
      "type": "function"
    },
    {
      "inputs": [],
      "name": "decimals",
      "outputs": [
        {
          "internalType": "uint8",
          "name": "",
          "type": "uint8"
        }
      ],
      "stateMutability": "pure",
      "type": "function"
    },
    {
      "inputs": [
        {
          "internalType": "address",
          "name": "spender",
          "type": "address"
        },
        {
          "internalType": "uint256",
          "name": "subtractedValue",
          "type": "uint256"
        }
      ],
      "name": "decreaseAllowance",
      "outputs": [
        {
          "internalType": "bool",
          "name": "",
          "type": "bool"
        }
      ],
      "stateMutability": "nonpayable",
      "type": "function"
    },
    {
      "inputs": [],
      "name": "getERC721Address",
      "outputs": [
        {
          "internalType": "address",
          "name": "",
          "type": "address"
        }
      ],
      "stateMutability": "view",
      "type": "function"
    },
    {
      "inputs": [],
      "name": "getId",
      "outputs": [
        {
          "internalType": "uint8",
          "name": "",
          "type": "uint8"
        }
      ],
      "stateMutability": "pure",
      "type": "function"
    },
    {
      "inputs": [],
      "name": "getPaymentCollector",
      "outputs": [
        {
          "internalType": "address",
          "name": "",
          "type": "address"
        }
      ],
      "stateMutability": "view",
      "type": "function"
    },
    {
      "inputs": [],
      "name": "getPublishingMarketFee",
      "outputs": [
        {
          "internalType": "address",
          "name": "",
          "type": "address"
        },
        {
          "internalType": "address",
          "name": "",
          "type": "address"
        },
        {
          "internalType": "uint256",
          "name": "",
          "type": "uint256"
        }
      ],
      "stateMutability": "view",
      "type": "function"
    },
    {
      "inputs": [
        {
          "internalType": "address",
          "name": "spender",
          "type": "address"
        },
        {
          "internalType": "uint256",
          "name": "addedValue",
          "type": "uint256"
        }
      ],
      "name": "increaseAllowance",
      "outputs": [
        {
          "internalType": "bool",
          "name": "",
          "type": "bool"
        }
      ],
      "stateMutability": "nonpayable",
      "type": "function"
    },
    {
      "inputs": [
        {
          "internalType": "string[]",
          "name": "strings_",
          "type": "string[]"
        },
        {
          "internalType": "address[]",
          "name": "addresses_",
          "type": "address[]"
        },
        {
          "internalType": "address[]",
          "name": "factoryAddresses_",
          "type": "address[]"
        },
        {
          "internalType": "uint256[]",
          "name": "uints_",
          "type": "uint256[]"
        },
        {
          "internalType": "bytes[]",
          "name": "bytes_",
          "type": "bytes[]"
        }
      ],
      "name": "initialize",
      "outputs": [
        {
          "internalType": "bool",
          "name": "",
          "type": "bool"
        }
      ],
      "stateMutability": "nonpayable",
      "type": "function"
    },
    {
      "inputs": [],
      "name": "isInitialized",
      "outputs": [
        {
          "internalType": "bool",
          "name": "",
          "type": "bool"
        }
      ],
      "stateMutability": "view",
      "type": "function"
    },
    {
      "inputs": [
        {
          "internalType": "address",
          "name": "account",
          "type": "address"
        }
      ],
      "name": "isMinter",
      "outputs": [
        {
          "internalType": "bool",
          "name": "",
          "type": "bool"
        }
      ],
      "stateMutability": "view",
      "type": "function"
    },
    {
      "inputs": [
        {
          "internalType": "address",
          "name": "account",
          "type": "address"
        },
        {
          "internalType": "uint256",
          "name": "value",
          "type": "uint256"
        }
      ],
      "name": "mint",
      "outputs": [],
      "stateMutability": "nonpayable",
      "type": "function"
    },
    {
      "inputs": [],
      "name": "name",
      "outputs": [
        {
          "internalType": "string",
          "name": "",
          "type": "string"
        }
      ],
      "stateMutability": "view",
      "type": "function"
    },
    {
      "inputs": [
        {
          "internalType": "address",
          "name": "",
          "type": "address"
        }
      ],
      "name": "nonces",
      "outputs": [
        {
          "internalType": "uint256",
          "name": "",
          "type": "uint256"
        }
      ],
      "stateMutability": "view",
      "type": "function"
    },
    {
      "inputs": [
        {
          "internalType": "address",
          "name": "",
          "type": "address"
        }
      ],
      "name": "permissions",
      "outputs": [
        {
          "internalType": "bool",
          "name": "minter",
          "type": "bool"
        },
        {
          "internalType": "bool",
          "name": "paymentManager",
          "type": "bool"
        }
      ],
      "stateMutability": "view",
      "type": "function"
    },
    {
      "inputs": [
        {
          "internalType": "address",
          "name": "owner",
          "type": "address"
        },
        {
          "internalType": "address",
          "name": "spender",
          "type": "address"
        },
        {
          "internalType": "uint256",
          "name": "value",
          "type": "uint256"
        },
        {
          "internalType": "uint256",
          "name": "deadline",
          "type": "uint256"
        },
        {
          "internalType": "uint8",
          "name": "v",
          "type": "uint8"
        },
        {
          "internalType": "bytes32",
          "name": "r",
          "type": "bytes32"
        },
        {
          "internalType": "bytes32",
          "name": "s",
          "type": "bytes32"
        }
      ],
      "name": "permit",
      "outputs": [],
      "stateMutability": "nonpayable",
      "type": "function"
    },
    {
      "inputs": [
        {
          "internalType": "address",
          "name": "_minter",
          "type": "address"
        }
      ],
      "name": "removeMinter",
      "outputs": [],
      "stateMutability": "nonpayable",
      "type": "function"
    },
    {
      "inputs": [
        {
          "internalType": "address",
          "name": "_paymentManager",
          "type": "address"
        }
      ],
      "name": "removePaymentManager",
      "outputs": [],
      "stateMutability": "nonpayable",
      "type": "function"
    },
    {
      "inputs": [],
      "name": "router",
      "outputs": [
        {
          "internalType": "address",
          "name": "",
          "type": "address"
        }
      ],
      "stateMutability": "view",
      "type": "function"
    },
    {
      "inputs": [
        {
          "internalType": "bytes",
          "name": "_value",
          "type": "bytes"
        }
      ],
      "name": "setData",
      "outputs": [],
      "stateMutability": "nonpayable",
      "type": "function"
    },
    {
      "inputs": [
        {
          "internalType": "address",
          "name": "_newPaymentCollector",
          "type": "address"
        }
      ],
      "name": "setPaymentCollector",
      "outputs": [],
      "stateMutability": "nonpayable",
      "type": "function"
    },
    {
      "inputs": [
        {
          "internalType": "address",
          "name": "_publishMarketFeeAddress",
          "type": "address"
        },
        {
          "internalType": "address",
          "name": "_publishMarketFeeToken",
          "type": "address"
        },
        {
          "internalType": "uint256",
          "name": "_publishMarketFeeAmount",
          "type": "uint256"
        }
      ],
      "name": "setPublishingMarketFee",
      "outputs": [],
      "stateMutability": "nonpayable",
      "type": "function"
    },
    {
      "inputs": [
        {
          "internalType": "address",
          "name": "consumer",
          "type": "address"
        },
        {
          "internalType": "uint256",
          "name": "amount",
          "type": "uint256"
        },
        {
          "internalType": "uint256",
          "name": "serviceIndex",
          "type": "uint256"
        },
        {
          "internalType": "address",
          "name": "consumeFeeAddress",
          "type": "address"
        },
        {
          "internalType": "address",
          "name": "consumeFeeToken",
          "type": "address"
        },
        {
          "internalType": "uint256",
          "name": "consumeFeeAmount",
          "type": "uint256"
        }
      ],
      "name": "startOrder",
      "outputs": [],
      "stateMutability": "nonpayable",
      "type": "function"
    },
    {
      "inputs": [],
      "name": "symbol",
      "outputs": [
        {
          "internalType": "string",
          "name": "",
          "type": "string"
        }
      ],
      "stateMutability": "view",
      "type": "function"
    },
    {
      "inputs": [],
      "name": "totalSupply",
      "outputs": [
        {
          "internalType": "uint256",
          "name": "",
          "type": "uint256"
        }
      ],
      "stateMutability": "view",
      "type": "function"
    },
    {
      "inputs": [
        {
          "internalType": "address",
          "name": "recipient",
          "type": "address"
        },
        {
          "internalType": "uint256",
          "name": "amount",
          "type": "uint256"
        }
      ],
      "name": "transfer",
      "outputs": [
        {
          "internalType": "bool",
          "name": "",
          "type": "bool"
        }
      ],
      "stateMutability": "nonpayable",
      "type": "function"
    },
    {
      "inputs": [
        {
          "internalType": "address",
          "name": "sender",
          "type": "address"
        },
        {
          "internalType": "address",
          "name": "recipient",
          "type": "address"
        },
        {
          "internalType": "uint256",
          "name": "amount",
          "type": "uint256"
        }
      ],
      "name": "transferFrom",
      "outputs": [
        {
          "internalType": "bool",
          "name": "",
          "type": "bool"
        }
      ],
      "stateMutability": "nonpayable",
      "type": "function"
    },
    {
      "inputs": [],
      "name": "withdrawETH",
      "outputs": [],
      "stateMutability": "payable",
      "type": "function"
    }
  ],
  "bytecode": "0x6080604052600a805460ff60a01b191690553480156200001e57600080fd5b5060408051808201825260048152631d195cdd60e21b60208083019182528351808501909452600a8452691d195cdd14de5b589bdb60b21b9084015281519192916200006d916003916200008c565b508051620000839060049060208401906200008c565b5050506200016f565b8280546200009a9062000132565b90600052602060002090601f016020900481019282620000be576000855562000109565b82601f10620000d957805160ff191683800117855562000109565b8280016001018555821562000109579182015b8281111562000109578251825591602001919060010190620000ec565b50620001179291506200011b565b5090565b5b808211156200011757600081556001016200011c565b600181811c908216806200014757607f821691505b602082108114156200016957634e487b7160e01b600052602260045260246000fd5b50919050565b614392806200017f6000396000f3fe6080604052600436106102675760003560e01c806370a0823111610143578063ab62f0e1116100bb578063e487c2e811610077578063e487c2e8146107ef578063ec342ad014610804578063ef867ff414610820578063f887ea4014610840578063f94bb42114610860578063fda9dae71461088057005b8063ab62f0e11461072c578063b2263a5d1461074c578063b3998be014610761578063d505accf14610781578063dd62ed3e146107a1578063e086e5ec146107e757005b806395d89b411161010a57806395d89b411461065e578063983b2d5614610673578063a457c2d714610693578063a9059cbb146106b3578063aa271e1a146106d3578063aa492ef91461070c57005b806370a08231146105a657806379cc6790146105dc5780637ecebe00146105fc57806382c03da5146106295780638b96412b1461063e57005b8063355274ea116101e157806340c10f191161019d57806340c10f19146104fd57806342966c681461051d5780634f189cb21461053d57806357a3a31b1461055257806357ad5ff6146105725780635d1ca6311461059257005b8063355274ea146104375780633644e5151461044c5780633830285014610462578063392e53cd1461048257806339509351146104a1578063397b3743146104c157005b80631d069feb116102305780631d069feb1461036157806323b872dd1461038157806325b00243146103a15780633092afd5146103c157806330adf81f146103e1578063313ce5671461041557005b80627ffb781461026957806301e88208146102a057806306fdde03146102f0578063095ea7b31461031257806318160ddd14610342575b005b34801561027557600080fd5b50600b546001600160a01b03165b6040516001600160a01b0390911681526020015b60405180910390f35b3480156102ac57600080fd5b506102d96102bb366004613655565b60056020526000908152604090205460ff8082169161010090041682565b604080519215158352901515602083015201610297565b3480156102fc57600080fd5b506103056108a0565b604051610297919061369e565b34801561031e57600080fd5b5061033261032d3660046136d1565b610932565b6040519015158152602001610297565b34801561034e57600080fd5b506002545b604051908152602001610297565b34801561036d57600080fd5b5061026761037c3660046137d9565b610948565b34801561038d57600080fd5b5061033261039c366004613882565b610cd1565b3480156103ad57600080fd5b506102676103bc366004613655565b610d7d565b3480156103cd57600080fd5b506102676103dc366004613655565b610e17565b3480156103ed57600080fd5b506103537f6e71edae12b1b97f4d1f60370fef10105fa2faae0126114a169c64845d6126c981565b34801561042157600080fd5b5060125b60405160ff9091168152602001610297565b34801561044357600080fd5b50600954610353565b34801561045857600080fd5b5061035360105481565b34801561046e57600080fd5b5061026761047d3660046138c3565b610eae565b34801561048e57600080fd5b50600a54600160a01b900460ff16610332565b3480156104ad57600080fd5b506103326104bc3660046136d1565b610fb6565b3480156104cd57600080fd5b50600d54600e54600f54604080516001600160a01b03948516815293909216602084015290820152606001610297565b34801561050957600080fd5b506102676105183660046136d1565b610ff2565b34801561052957600080fd5b506102676105383660046138fb565b6110bf565b34801561054957600080fd5b506102676110c9565b34801561055e57600080fd5b5061026761056d366004613655565b6111b0565b34801561057e57600080fd5b5061026761058d366004613882565b6112f2565b34801561059e57600080fd5b506002610425565b3480156105b257600080fd5b506103536105c1366004613655565b6001600160a01b031660009081526020819052604090205490565b3480156105e857600080fd5b506102676105f73660046136d1565b611446565b34801561060857600080fd5b50610353610617366004613655565b60116020526000908152604090205481565b34801561063557600080fd5b506102676114cc565b34801561064a57600080fd5b506103536106593660046139a3565b611526565b34801561066a57600080fd5b506103056116e7565b34801561067f57600080fd5b5061026761068e366004613655565b6116f6565b34801561069f57600080fd5b506103326106ae3660046136d1565b61178d565b3480156106bf57600080fd5b506103326106ce3660046136d1565b611826565b3480156106df57600080fd5b506103326106ee366004613655565b6001600160a01b031660009081526005602052604090205460ff1690565b34801561071857600080fd5b50610267610727366004613655565b611833565b34801561073857600080fd5b50610267610747366004613a79565b6118ca565b34801561075857600080fd5b506103536119f2565b34801561076d57600080fd5b5061033261077c366004613b37565b611a08565b34801561078d57600080fd5b5061026761079c366004613c28565b611b42565b3480156107ad57600080fd5b506103536107bc366004613c9f565b6001600160a01b03918216600090815260016020908152604080832093909416825291909152205490565b610267611d54565b3480156107fb57600080fd5b50610283611d94565b34801561081057600080fd5b50610353670de0b6b3a764000081565b34801561082c57600080fd5b5061028361083b3660046138fb565b611e29565b34801561084c57600080fd5b50601254610283906001600160a01b031681565b34801561086c57600080fd5b5061026761087b366004613cdb565b611e53565b34801561088c57600080fd5b5061026761089b366004613d25565b611f76565b6060600780546108af90613d8c565b80601f01602080910402602001604051908101604052809291908181526020018280546108db90613d8c565b80156109285780601f106108fd57610100808354040283529160200191610928565b820191906000526020600020905b81548152906001019060200180831161090b57829003601f168201915b5050505050905090565b600061093f338484611f8c565b50600192915050565b80516020820151604051634c87087d60e01b815260009283926001600160a01b0390911691634c87087d916109839160040190815260200190565b61018060405180830381865afa1580156109a1573d6000803e3d6000fd5b505050506040513d601f19601f820116820180604052508101906109c59190613dc7565b5050505050505050935050925050306001600160a01b0316826001600160a01b031614610a495760405162461bcd60e51b815260206004820152602760248201527f5468697320466978656452617465206973206e6f742070726f766964696e67206044820152661d1a1a5cc8111560ca1b60648201526084015b60405180910390fd5b82516020808501519086015160405163c99733a760e01b81526004810192909252602482015260009182916001600160a01b039091169063c99733a790604401608060405180830381865afa158015610aa6573d6000803e3d6000fd5b505050506040513d601f19601f82011682018060405250810190610aca9190613e84565b5050915091508460400151821115610b345760405162461bcd60e51b815260206004820152602760248201527f46697865645261746545786368616e67653a20546f6f206d616e79206261736560448201526620746f6b656e7360c81b6064820152608401610a40565b6000670de0b6b3a7640000866060015183610b4f9190613ed0565b610b599190613eef565b9050610b658184613f11565b9250610b7c6001600160a01b0385163330866120b0565b8551610b93906001600160a01b038616908561211b565b85516020808801519089015160405163412dae6b60e11b815260048101929092526024820152604481018590526001600160a01b039091169063825b5cd690606401600060405180830381600087803b158015610bef57600080fd5b505af1158015610c03573d6000803e3d6000fd5b505050508660200151610c2b306001600160a01b031660009081526020819052604090205490565b1015610c795760405162461bcd60e51b815260206004820152601f60248201527f556e61626c6520746f206275792044542066726f6d20466978656452617465006044820152606401610a40565b610c88303389602001516121cd565b610cae8760000151886020015189604001518a606001518b608001518c60a0015161239b565b6080860151610cc8906001600160a01b0386169083612819565b50505050505050565b6000610cde8484846121cd565b6001600160a01b038416600090815260016020908152604080832033845290915290205482811015610d635760405162461bcd60e51b815260206004820152602860248201527f45524332303a207472616e7366657220616d6f756e74206578636565647320616044820152676c6c6f77616e636560c01b6064820152608401610a40565b610d708533858403611f8c565b60019150505b9392505050565b600b5460405163160a792560e01b81523360048201526001600160a01b039091169063160a7925906024016080604051808303816000875af1158015610dc7573d6000803e3d6000fd5b505050506040513d601f19601f82011682018060405250810190610deb9190613f29565b60200151610e0b5760405162461bcd60e51b8152600401610a4090613fae565b610e1481612849565b50565b600b5460405163160a792560e01b81523360048201526001600160a01b039091169063160a7925906024016080604051808303816000875af1158015610e61573d6000803e3d6000fd5b505050506040513d601f19601f82011682018060405250810190610e859190613f29565b60200151610ea55760405162461bcd60e51b8152600401610a4090613fae565b610e14816128b6565b6020820151604051631d746d8360e01b815230600482015260248101919091523360448201526001600160a01b03821690631d746d8390606401600060405180830381600087803b158015610f0257600080fd5b505af1158015610f16573d6000803e3d6000fd5b505050508160200151610f3e336001600160a01b031660009081526020819052604090205490565b1015610f8c5760405162461bcd60e51b815260206004820152601f60248201527f556e61626c6520746f206765742044542066726f6d2044697370656e736572006044820152606401610a40565b610fb2826000015183602001518460400151856060015186608001518760a0015161239b565b5050565b3360008181526001602090815260408083206001600160a01b0387168452909152812054909161093f918590610fed908690613f11565b611f8c565b3360009081526005602052604090205460ff166110515760405162461bcd60e51b815260206004820152601960248201527f455243323054656d706c6174653a204e4f54204d494e544552000000000000006044820152606401610a40565b6009546110678261106160025490565b90612916565b11156110b55760405162461bcd60e51b815260206004820152601f60248201527f44617461546f6b656e54656d706c6174653a20636170206578636565646564006044820152606401610a40565b610fb28282612922565b610e143382612a01565b600b546040516331a9108f60e11b8152600160048201526001600160a01b0390911690636352211e90602401602060405180830381865afa158015611112573d6000803e3d6000fd5b505050506040513d601f19601f820116820180604052508101906111369190613fe3565b6001600160a01b0316336001600160a01b0316146111965760405162461bcd60e51b815260206004820152601b60248201527f455243323054656d706c6174653a206e6f74204e46544f776e657200000000006044820152606401610a40565b61119e612b4f565b600c80546001600160a01b0319169055565b33600090815260056020526040902054610100900460ff16806112415750600b5460405163160a792560e01b81523360048201526001600160a01b039091169063160a7925906024016080604051808303816000875af1158015611218573d6000803e3d6000fd5b505050506040513d601f19601f8201168201806040525081019061123c9190613f29565b602001515b6112a15760405162461bcd60e51b815260206004820152602b60248201527f455243323054656d706c6174653a204e4f54205041594d454e54204d414e414760448201526a22a91037b91027aba722a960a91b6064820152608401610a40565b6112aa81612bfe565b604080514281524360208201526001600160a01b0383169133917f4d7694d695c57cc54947177c8e8a0e61aae664e9223492a798c32fadfc6419cc910160405180910390a350565b600d546001600160a01b0316331461135f5760405162461bcd60e51b815260206004820152602a60248201527f455243323054656d706c6174653a206e6f74207075626c6973684d61726b65746044820152694665654164647265737360b01b6064820152608401610a40565b6001600160a01b0383166113c65760405162461bcd60e51b815260206004820152602860248201527f496e76616c6964205f7075626c6973684d61726b657446656541646472657373604482015267206164647265737360c01b6064820152608401610a40565b600d80546001600160a01b038581166001600160a01b03199283168117909355600e8054918616919092168117909155600f839055604080513381526020810193909352820152606081018290527fe0b85b6f04fa914cf57f6401c5672a83a32b1c388d194c3d78e17f2897d46f439060800160405180910390a1505050565b600061145283336107bc565b9050818110156114b05760405162461bcd60e51b8152602060048201526024808201527f45524332303a206275726e20616d6f756e74206578636565647320616c6c6f77604482015263616e636560e01b6064820152608401610a40565b6114bd8333848403611f8c565b6114c78383612a01565b505050565b600b546001600160a01b031633146111965760405162461bcd60e51b815260206004820152601f60248201527f455243323054656d706c6174653a204e4f542037323120436f6e7472616374006044820152606401610a40565b600b5460405163160a792560e01b81523360048201526000916001600160a01b03169063160a7925906024016080604051808303816000875af1158015611571573d6000803e3d6000fd5b505050506040513d601f19601f820116820180604052508101906115959190613f29565b602001516115b55760405162461bcd60e51b8152600401610a4090613fae565b30836003815181106115c9576115c9614000565b6001600160a01b039283166020918202929092010152601254604051638244937560e01b815291169063824493759061160a90879087908790600401614016565b6020604051808303816000875af1158015611629573d6000803e3d6000fd5b505050506040513d601f19601f8201168201806040525081019061164d91906140aa565b905060008260048151811061166457611664614000565b6020026020010151111561167b5761167b84612c20565b7f195d202f33578769e120c3041341554af3193e67ee004175095bc9c06e6e616581846000815181106116b0576116b0614000565b60200260200101516040516116d89291909182526001600160a01b0316602082015260400190565b60405180910390a19392505050565b6060600880546108af90613d8c565b600b5460405163160a792560e01b81523360048201526001600160a01b039091169063160a7925906024016080604051808303816000875af1158015611740573d6000803e3d6000fd5b505050506040513d601f19601f820116820180604052508101906117649190613f29565b602001516117845760405162461bcd60e51b8152600401610a4090613fae565b610e1481612c20565b3360009081526001602090815260408083206001600160a01b03861684529091528120548281101561180f5760405162461bcd60e51b815260206004820152602560248201527f45524332303a2064656372656173656420616c6c6f77616e63652062656c6f77604482015264207a65726f60d81b6064820152608401610a40565b61181c3385858403611f8c565b5060019392505050565b600061093f3384846121cd565b600b5460405163160a792560e01b81523360048201526001600160a01b039091169063160a7925906024016080604051808303816000875af115801561187d573d6000803e3d6000fd5b505050506040513d601f19601f820116820180604052508101906118a19190613f29565b602001516118c15760405162461bcd60e51b8152600401610a4090613fae565b610e1481612d1a565b600b5460405163160a792560e01b81523360048201526001600160a01b039091169063160a7925906024016080604051808303816000875af1158015611914573d6000803e3d6000fd5b505050506040513d601f19601f820116820180604052508101906119389190613f29565b602001516119585760405162461bcd60e51b8152600401610a4090613fae565b6040516bffffffffffffffffffffffff193060601b16602082015260009060340160408051601f19818403018152908290528051602090910120600b546301caf8fd60e31b83529092506001600160a01b031690630e57c7e8906119c4908490879087906004016140c3565b600060405180830381600087803b1580156119de57600080fd5b505af1158015610cc8573d6000803e3d6000fd5b611a056064670de0b6b3a7640000613eef565b81565b600a54600090600160a01b900460ff1615611a7f5760405162461bcd60e51b815260206004820152603160248201527f455243323054656d706c6174653a20746f6b656e20696e7374616e636520616c6044820152701c9958591e481a5b9a5d1a585b1a5e9959607a1b6064820152608401610a40565b611b33611a8c8b8d614151565b8a8a8080602002602001604051908101604052809392919081815260200183836020028082843760009201919091525050604080516020808e0282810182019093528d82529093508d92508c91829185019084908082843760009201919091525050604080516020808d0282810182019093528c82529093508c92508b918291850190849080828437600092019190915250611b2e92508991508a90506141d9565b612e28565b9b9a5050505050505050505050565b43841015611b855760405162461bcd60e51b815260206004820152601060248201526f115490cc8c11150e881156141254915160821b6044820152606401610a40565b6010546001600160a01b038816600090815260116020526040812080549192917f6e71edae12b1b97f4d1f60370fef10105fa2faae0126114a169c64845d6126c9918b918b918b919087611bd883614255565b909155506040805160208101969096526001600160a01b0394851690860152929091166060840152608083015260a082015260c0810187905260e00160405160208183030381529060405280519060200120604051602001611c5192919061190160f01b81526002810192909252602282015260420190565b60408051601f198184030181528282528051602091820120600080855291840180845281905260ff88169284019290925260608301869052608083018590529092509060019060a0016020604051602081039080840390855afa158015611cbc573d6000803e3d6000fd5b5050604051601f1901519150506001600160a01b03811615801590611cf25750886001600160a01b0316816001600160a01b0316145b611d3e5760405162461bcd60e51b815260206004820152601a60248201527f455243323044543a20494e56414c49445f5349474e41545552450000000000006044820152606401610a40565b611d49898989611f8c565b505050505050505050565b611d5c611d94565b6001600160a01b03166108fc479081150290604051600060405180830381858888f19350505050158015610e14573d6000803e3d6000fd5b600c546000906001600160a01b0316611e1957600b546040516331a9108f60e11b8152600160048201526001600160a01b0390911690636352211e90602401602060405180830381865afa158015611df0573d6000803e3d6000fd5b505050506040513d601f19601f82011682018060405250810190611e149190613fe3565b905090565b50600c546001600160a01b031690565b60068181548110611e3957600080fd5b6000918252602090912001546001600160a01b0316905081565b600b5460405163160a792560e01b81523360048201526001600160a01b039091169063160a7925906024016080604051808303816000875af1158015611e9d573d6000803e3d6000fd5b505050506040513d601f19601f82011682018060405250810190611ec19190613f29565b60200151611ee15760405162461bcd60e51b8152600401610a4090613fae565b601254604051636b14d00560e11b81526001600160a01b0386811660048301523060248301819052604483018790526064830186905233608484015260a48301529091169063d629a00a9060c401600060405180830381600087803b158015611f4957600080fd5b505af1158015611f5d573d6000803e3d6000fd5b505050508015611f7057611f7084612c20565b50505050565b611f8486868686868661239b565b505050505050565b6001600160a01b038316611fee5760405162461bcd60e51b8152602060048201526024808201527f45524332303a20617070726f76652066726f6d20746865207a65726f206164646044820152637265737360e01b6064820152608401610a40565b6001600160a01b03821661204f5760405162461bcd60e51b815260206004820152602260248201527f45524332303a20617070726f766520746f20746865207a65726f206164647265604482015261737360f01b6064820152608401610a40565b6001600160a01b0383811660008181526001602090815260408083209487168084529482529182902085905590518481527f8c5be1e5ebec7d5bd14f71427d1e84f3dd0314c0f7b2291e5b200ac8c7c3b925910160405180910390a3505050565b6040516001600160a01b0380851660248301528316604482015260648101829052611f709085906323b872dd60e01b906084015b60408051601f198184030181529190526020810180516001600160e01b03166001600160e01b031990931692909217909152613327565b604051636eb1769f60e11b81523060048201526001600160a01b038381166024830152600091839186169063dd62ed3e90604401602060405180830381865afa15801561216c573d6000803e3d6000fd5b505050506040513d601f19601f8201168201806040525081019061219091906140aa565b61219a9190613f11565b6040516001600160a01b038516602482015260448101829052909150611f7090859063095ea7b360e01b906064016120e4565b6001600160a01b0383166122315760405162461bcd60e51b815260206004820152602560248201527f45524332303a207472616e736665722066726f6d20746865207a65726f206164604482015264647265737360d81b6064820152608401610a40565b6001600160a01b0382166122935760405162461bcd60e51b815260206004820152602360248201527f45524332303a207472616e7366657220746f20746865207a65726f206164647260448201526265737360e81b6064820152608401610a40565b6001600160a01b0383166000908152602081905260409020548181101561230b5760405162461bcd60e51b815260206004820152602660248201527f45524332303a207472616e7366657220616d6f756e7420657863656564732062604482015265616c616e636560d01b6064820152608401610a40565b6001600160a01b03808516600090815260208190526040808220858503905591851681529081208054849290612342908490613f11565b92505081905550826001600160a01b0316846001600160a01b03167fddf252ad1be2c89b69c2b068fc378daa952ba7f163c4a11628f55a4df523b3ef8460405161238e91815260200190565b60405180910390a3611f70565b33600090815260208190526040812054819087111561240a5760405162461bcd60e51b815260206004820152602560248201527f4e6f7420656e6f756768204461746120546f6b656e7320746f2073746172742060448201526427b93232b960d91b6064820152608401610a40565b600d5460408051338152602081018a90529081018890524260608201524360808201526001600160a01b0387811692811691908b16907fb07adb6a34680ecbbc7935971c45a07b9baf67ce5dc57332d51e3a5745c9e9639060a00160405180910390a46000600f541180156124895750600e546001600160a01b031615155b801561249f5750600d546001600160a01b031615155b1561255e57600f54600e546124c3916001600160a01b0390911690339030906120b0565b600f546124d19060646133f9565b600d54600f54919250612507916001600160a01b03909116906124f49084613405565b600e546001600160a01b03169190612819565b600e54600d54600f546001600160a01b0392831692909116907ff666b31c81334b6085802ba4149907fa724689d43bc31df6de1a51291ddc55b49061254c9085613405565b60405190815260200160405180910390a35b60008311801561257657506001600160a01b03841615155b801561258a57506001600160a01b03851615155b1561261b576125a46001600160a01b0385163330866120b0565b6125af8360646133f9565b91506125d0856125bf8585613405565b6001600160a01b0387169190612819565b6001600160a01b038085169086167f504f65f39bc14c176feeffb7a6f6f46cf702ca4dcc8e6197b5a4c741dd94f3d16126098686613405565b60405190815260200160405180910390a35b60008111801561262b5750600082115b80156126445750600e546001600160a01b038581169116145b801561265857506001600160a01b03841615155b1561270457600a54612677906001600160a01b03166125bf8385612916565b600a546040518281526001600160a01b038681169216907ff666b31c81334b6085802ba4149907fa724689d43bc31df6de1a51291ddc55b49060200160405180910390a3600a546040518381526001600160a01b038681169216907f504f65f39bc14c176feeffb7a6f6f46cf702ca4dcc8e6197b5a4c741dd94f3d19060200160405180910390a3612806565b60008111801561271e5750600e546001600160a01b031615155b1561278a57600a54600e54612740916001600160a01b03918216911683612819565b600e54600a546040518381526001600160a01b0392831692909116907ff666b31c81334b6085802ba4149907fa724689d43bc31df6de1a51291ddc55b49060200160405180910390a35b6000821180156127a257506001600160a01b03841615155b1561280657600a546127c1906001600160a01b03868116911684612819565b600a546040518381526001600160a01b038681169216907f504f65f39bc14c176feeffb7a6f6f46cf702ca4dcc8e6197b5a4c741dd94f3d19060200160405180910390a35b61280f876110bf565b5050505050505050565b6040516001600160a01b0383166024820152604481018290526114c790849063a9059cbb60e01b906064016120e4565b6001600160a01b03811660008181526005602052604090819020805461ff00191681559051909133917faee911eec8b2df8f3ae0464841541b1e5f339519bd5cf51889fe8b07fecff658906128aa9042904390918252602082015260400190565b60405180910390a35050565b6001600160a01b03811660008181526005602052604090819020805460ff191681559051909133917fefa2735987005aaa89c050c0ff8cc9ae7d9079d19382081c429130f98c52d480906128aa9042904390918252602082015260400190565b6000610d768284613f11565b6001600160a01b0382166129785760405162461bcd60e51b815260206004820152601f60248201527f45524332303a206d696e7420746f20746865207a65726f2061646472657373006044820152606401610a40565b806002600082825461298a9190613f11565b90915550506001600160a01b038216600090815260208190526040812080548392906129b7908490613f11565b90915550506040518181526001600160a01b038316906000907fddf252ad1be2c89b69c2b068fc378daa952ba7f163c4a11628f55a4df523b3ef9060200160405180910390a35050565b6001600160a01b038216612a615760405162461bcd60e51b815260206004820152602160248201527f45524332303a206275726e2066726f6d20746865207a65726f206164647265736044820152607360f81b6064820152608401610a40565b6001600160a01b03821660009081526020819052604090205481811015612ad55760405162461bcd60e51b815260206004820152602260248201527f45524332303a206275726e20616d6f756e7420657863656564732062616c616e604482015261636560f01b6064820152608401610a40565b6001600160a01b0383166000908152602081905260408120838303905560028054849290612b04908490614270565b90915550506040518281526000906001600160a01b038516907fddf252ad1be2c89b69c2b068fc378daa952ba7f163c4a11628f55a4df523b3ef9060200160405180910390a3505050565b60005b600654811015612bb55760006005600060068481548110612b7557612b75614000565b60009182526020808320909101546001600160a01b031683528201929092526040019020805461ffff191690555080612bad81614255565b915050612b52565b50612bc260066000613589565b6040805142815243602082015233917f712bc71db81927a76b8bf1ea346247bb0ad58f18e4e5c1bd4aa0ec6573e02a2b910160405180910390a2565b600c80546001600160a01b0319166001600160a01b0392909216919091179055565b6001600160a01b0381166000908152600560205260409020805460ff1615612c8a5760405162461bcd60e51b815260206004820152601d60248201527f4552433230526f6c65733a2020414c52454144592041204d494e5445520000006044820152606401610a40565b8054600160ff19909116811782556006805491820181556000527ff652222313e28459528d920b65115c16c04f3efc82aaedc97be59f3f377c0d3f0180546001600160a01b0319166001600160a01b038416908117909155604080514281524360208201523392917f4f7e100eb1ee13e903798bd0d6aa854152e07eb05544f392b9409c12935c809591016128aa565b6001600160a01b03811660009081526005602052604090208054610100900460ff1615612d945760405162461bcd60e51b815260206004820152602260248201527f4552433230526f6c65733a2020414c5245414459204120464545204d414e414760448201526122a960f11b6064820152608401610a40565b805461ff001916610100178155600680546001810182556000919091527ff652222313e28459528d920b65115c16c04f3efc82aaedc97be59f3f377c0d3f0180546001600160a01b0384166001600160a01b03199091168117909155604080514281524360208201523392917fb17da2e9910b4ba5754e8872385ba315a238bafb5ae221fc85093c33432c40a791016128aa565b60008084600081518110612e3e57612e3e614000565b60200260200101519050600085600181518110612e5d57612e5d614000565b6020026020010151905060006001600160a01b0316826001600160a01b03161415612edf5760405162461bcd60e51b815260206004820152602c60248201527f455243323054656d706c6174653a20496e76616c6964206d696e7465722c202060448201526b7a65726f206164647265737360a01b6064820152608401610a40565b6001600160a01b038116612f5b5760405162461bcd60e51b815260206004820152603c60248201527f455243323054656d706c6174653a20496e76616c696420636f6d6d756e69747960448201527f2066656520636f6c6c6563746f722c207a65726f2061646472657373000000006064820152608401610a40565b84600081518110612f6e57612f6e614000565b602002602001015160001415612fd25760405162461bcd60e51b8152602060048201526024808201527f44617461546f6b656e54656d706c6174653a20496e76616c6964206361702076604482015263616c756560e01b6064820152608401610a40565b84600081518110612fe557612fe5614000565b60200260200101516009819055508760008151811061300657613006614000565b6020026020010151600790805190602001906130239291906135a7565b508760018151811061303757613037614000565b6020026020010151600890805190602001906130549291906135a7565b50600b80546001600160a01b0319166001600160a01b03841617905585518690600290811061308557613085614000565b6020908102919091010151601280546001600160a01b039283166001600160a01b0319909116179055600a80546001600160a81b03191691831691909117600160a01b17905586516130ef9088906000906130e2576130e2614000565b6020026020010151612c20565b60006001600160a01b03168760018151811061310d5761310d614000565b60200260200101516001600160a01b0316146131b7576131468760018151811061313957613139614000565b6020026020010151612bfe565b8660018151811061315957613159614000565b60200260200101516001600160a01b0316336001600160a01b03167f4d7694d695c57cc54947177c8e8a0e61aae664e9223492a798c32fadfc6419cc42436040516131ae929190918252602082015260400190565b60405180910390a35b866002815181106131ca576131ca614000565b6020026020010151600d60006101000a8154816001600160a01b0302191690836001600160a01b031602179055508660038151811061320b5761320b614000565b6020026020010151600e60006101000a8154816001600160a01b0302191690836001600160a01b031602179055508460018151811061324c5761324c614000565b6020026020010151600f8190555060004690507f8b73c3c69bb8fe3d512ecc4cf759cc79239f7b179b0ffacaa9a75d522b39400f600760405161328f9190614287565b60408051918290038220828201825260018352603160f81b6020938401528151928301939093528101919091527fc89efdaa54c0f20c7adf612882df0950f5a951637e0307cdcb4c672f298b8bc66060820152608081018290523060a082015260c00160408051808303601f1901815291905280516020909101206010555050600a54600160a01b900460ff16979650505050505050565b600061337c826040518060400160405280602081526020017f5361666545524332303a206c6f772d6c6576656c2063616c6c206661696c6564815250856001600160a01b03166134119092919063ffffffff16565b8051909150156114c7578080602001905181019061339a9190614323565b6114c75760405162461bcd60e51b815260206004820152602a60248201527f5361666545524332303a204552433230206f7065726174696f6e20646964206e6044820152691bdd081cdd58d8d9595960b21b6064820152608401610a40565b6000610d768284613eef565b6000610d768284614270565b60606134208484600085613428565b949350505050565b6060824710156134895760405162461bcd60e51b815260206004820152602660248201527f416464726573733a20696e73756666696369656e742062616c616e636520666f6044820152651c8818d85b1b60d21b6064820152608401610a40565b843b6134d75760405162461bcd60e51b815260206004820152601d60248201527f416464726573733a2063616c6c20746f206e6f6e2d636f6e74726163740000006044820152606401610a40565b600080866001600160a01b031685876040516134f39190614340565b60006040518083038185875af1925050503d8060008114613530576040519150601f19603f3d011682016040523d82523d6000602084013e613535565b606091505b5091509150613545828286613550565b979650505050505050565b6060831561355f575081610d76565b82511561356f5782518084602001fd5b8160405162461bcd60e51b8152600401610a40919061369e565b5080546000825590600052602060002090810190610e14919061362b565b8280546135b390613d8c565b90600052602060002090601f0160209004810192826135d5576000855561361b565b82601f106135ee57805160ff191683800117855561361b565b8280016001018555821561361b579182015b8281111561361b578251825591602001919060010190613600565b5061362792915061362b565b5090565b5b80821115613627576000815560010161362c565b6001600160a01b0381168114610e1457600080fd5b60006020828403121561366757600080fd5b8135610d7681613640565b60005b8381101561368d578181015183820152602001613675565b83811115611f705750506000910152565b60208152600082518060208401526136bd816040850160208701613672565b601f01601f19169190910160400192915050565b600080604083850312156136e457600080fd5b82356136ef81613640565b946020939093013593505050565b634e487b7160e01b600052604160045260246000fd5b604051601f8201601f1916810167ffffffffffffffff8111828210171561373c5761373c6136fd565b604052919050565b600060c0828403121561375657600080fd5b60405160c0810181811067ffffffffffffffff82111715613779576137796136fd565b604052905080823561378a81613640565b80825250602083013560208201526040830135604082015260608301356137b081613640565b606082015260808301356137c381613640565b608082015260a092830135920191909152919050565b6000808284036101608112156137ee57600080fd5b6137f88585613744565b925060a060bf198201121561380c57600080fd5b5060405160a0810181811067ffffffffffffffff82111715613830576138306136fd565b60405260c084013561384181613640565b815260e084013560208201526101008401356040820152610120840135606082015261014084013561387281613640565b6080820152919491935090915050565b60008060006060848603121561389757600080fd5b83356138a281613640565b925060208401356138b281613640565b929592945050506040919091013590565b60008060e083850312156138d657600080fd5b6138e08484613744565b915060c08301356138f081613640565b809150509250929050565b60006020828403121561390d57600080fd5b5035919050565b600067ffffffffffffffff82111561392e5761392e6136fd565b5060051b60200190565b600082601f83011261394957600080fd5b8135602061395e61395983613914565b613713565b82815260059290921b8401810191818101908684111561397d57600080fd5b8286015b848110156139985780358352918301918301613981565b509695505050505050565b6000806000606084860312156139b857600080fd5b83356139c381613640565b925060208481013567ffffffffffffffff808211156139e157600080fd5b818701915087601f8301126139f557600080fd5b8135613a0361395982613914565b81815260059190911b8301840190848101908a831115613a2257600080fd5b938501935b82851015613a49578435613a3a81613640565b82529385019390850190613a27565b965050506040870135925080831115613a6157600080fd5b5050613a6f86828701613938565b9150509250925092565b60008060208385031215613a8c57600080fd5b823567ffffffffffffffff80821115613aa457600080fd5b818501915085601f830112613ab857600080fd5b813581811115613ac757600080fd5b866020828501011115613ad957600080fd5b60209290920196919550909350505050565b60008083601f840112613afd57600080fd5b50813567ffffffffffffffff811115613b1557600080fd5b6020830191508360208260051b8501011115613b3057600080fd5b9250929050565b60008060008060008060008060008060a08b8d031215613b5657600080fd5b8a3567ffffffffffffffff80821115613b6e57600080fd5b613b7a8e838f01613aeb565b909c509a5060208d0135915080821115613b9357600080fd5b613b9f8e838f01613aeb565b909a50985060408d0135915080821115613bb857600080fd5b613bc48e838f01613aeb565b909850965060608d0135915080821115613bdd57600080fd5b613be98e838f01613aeb565b909650945060808d0135915080821115613c0257600080fd5b50613c0f8d828e01613aeb565b915080935050809150509295989b9194979a5092959850565b600080600080600080600060e0888a031215613c4357600080fd5b8735613c4e81613640565b96506020880135613c5e81613640565b95506040880135945060608801359350608088013560ff81168114613c8257600080fd5b9699959850939692959460a0840135945060c09093013592915050565b60008060408385031215613cb257600080fd5b8235613cbd81613640565b915060208301356138f081613640565b8015158114610e1457600080fd5b60008060008060808587031215613cf157600080fd5b8435613cfc81613640565b935060208501359250604085013591506060850135613d1a81613ccd565b939692955090935050565b60008060008060008060c08789031215613d3e57600080fd5b8635613d4981613640565b955060208701359450604087013593506060870135613d6781613640565b92506080870135613d7781613640565b8092505060a087013590509295509295509295565b600181811c90821680613da057607f821691505b60208210811415613dc157634e487b7160e01b600052602260045260246000fd5b50919050565b6000806000806000806000806000806000806101808d8f031215613dea57600080fd5b8c51613df581613640565b60208e0151909c50613e0681613640565b60408e015160608f0151919c509a50613e1e81613640565b8099505060808d0151975060a08d0151965060c08d0151613e3e81613ccd565b8096505060e08d015194506101008d015193506101208d015192506101408d015191506101608d0151613e7081613ccd565b809150509295989b509295989b509295989b565b60008060008060808587031215613e9a57600080fd5b505082516020840151604085015160609095015191969095509092509050565b634e487b7160e01b600052601160045260246000fd5b6000816000190483118215151615613eea57613eea613eba565b500290565b600082613f0c57634e487b7160e01b600052601260045260246000fd5b500490565b60008219821115613f2457613f24613eba565b500190565b600060808284031215613f3b57600080fd5b6040516080810181811067ffffffffffffffff82111715613f5e57613f5e6136fd565b6040528251613f6c81613ccd565b81526020830151613f7c81613ccd565b60208201526040830151613f8f81613ccd565b60408201526060830151613fa281613ccd565b60608201529392505050565b6020808252818101527f455243323054656d706c6174653a204e4f54204445504c4f59455220524f4c45604082015260600190565b600060208284031215613ff557600080fd5b8151610d7681613640565b634e487b7160e01b600052603260045260246000fd5b6001600160a01b038481168252606060208084018290528551918401829052600092868201929091906080860190855b81811015614064578551851683529483019491830191600101614046565b5050858103604087015286518082529082019350915080860160005b8381101561409c57815185529382019390820190600101614080565b509298975050505050505050565b6000602082840312156140bc57600080fd5b5051919050565b83815260406020820152816040820152818360608301376000818301606090810191909152601f909201601f1916010192915050565b600067ffffffffffffffff831115614113576141136136fd565b614126601f8401601f1916602001613713565b905082815283838301111561413a57600080fd5b828260208301376000602084830101529392505050565b600061415f61395984613914565b80848252602080830192508560051b85013681111561417d57600080fd5b855b818110156141cd57803567ffffffffffffffff81111561419f5760008081fd5b870136601f8201126141b15760008081fd5b6141bf3682358684016140f9565b86525093820193820161417f565b50919695505050505050565b60006141e761395984613914565b80848252602080830192508560051b85013681111561420557600080fd5b855b818110156141cd57803567ffffffffffffffff8111156142275760008081fd5b870136601f8201126142395760008081fd5b6142473682358684016140f9565b865250938201938201614207565b600060001982141561426957614269613eba565b5060010190565b60008282101561428257614282613eba565b500390565b600080835481600182811c9150808316806142a357607f831692505b60208084108214156142c357634e487b7160e01b86526022600452602486fd5b8180156142d757600181146142e857614315565b60ff19861689528489019650614315565b60008a81526020902060005b8681101561430d5781548b8201529085019083016142f4565b505084890196505b509498975050505050505050565b60006020828403121561433557600080fd5b8151610d7681613ccd565b60008251614352818460208701613672565b919091019291505056fea264697066735822122044378b039f2388d12b9e7dbe76b93cac823eebd047623bda8505d81838da776d64736f6c634300080a0033",
  "linkReferences": {},
  "deployedLinkReferences": {}
}