{
  "_format": "hh-sol-artifact-1",
  "contractName": "ERC20TemplateEnterprise",
  "sourceName": "contracts/templates/ERC20TemplateEnterprise.sol",
  "abi": [
    {
      "anonymous": false,
      "inputs": [
        {
          "indexed": true,
          "internalType": "address",
          "name": "user",
          "type": "address"
        },
        {
          "indexed": true,
          "internalType": "address",
          "name": "signer",
          "type": "address"
        },
        {
          "indexed": false,
          "internalType": "uint256",
          "name": "timestamp",
          "type": "uint256"
        },
        {
          "indexed": false,
          "internalType": "uint256",
          "name": "blockNumber",
          "type": "uint256"
        }
      ],
      "name": "AddedMinter",
      "type": "event"
    },
    {
      "anonymous": false,
      "inputs": [
        {
          "indexed": true,
          "internalType": "address",
          "name": "user",
          "type": "address"
        },
        {
          "indexed": true,
          "internalType": "address",
          "name": "signer",
          "type": "address"
        },
        {
          "indexed": false,
          "internalType": "uint256",
          "name": "timestamp",
          "type": "uint256"
        },
        {
          "indexed": false,
          "internalType": "uint256",
          "name": "blockNumber",
          "type": "uint256"
        }
      ],
      "name": "AddedPaymentManager",
      "type": "event"
    },
    {
      "anonymous": false,
      "inputs": [
        {
          "indexed": true,
          "internalType": "address",
          "name": "owner",
          "type": "address"
        },
        {
          "indexed": true,
          "internalType": "address",
          "name": "spender",
          "type": "address"
        },
        {
          "indexed": false,
          "internalType": "uint256",
          "name": "value",
          "type": "uint256"
        }
      ],
      "name": "Approval",
      "type": "event"
    },
    {
      "anonymous": false,
      "inputs": [
        {
          "indexed": true,
          "internalType": "address",
          "name": "signer",
          "type": "address"
        },
        {
          "indexed": false,
          "internalType": "uint256",
          "name": "timestamp",
          "type": "uint256"
        },
        {
          "indexed": false,
          "internalType": "uint256",
          "name": "blockNumber",
          "type": "uint256"
        }
      ],
      "name": "CleanedPermissions",
      "type": "event"
    },
    {
      "anonymous": false,
      "inputs": [
        {
          "indexed": true,
          "internalType": "address",
          "name": "consumeFeeAddress",
          "type": "address"
        },
        {
          "indexed": true,
          "internalType": "address",
          "name": "consumeFeeToken",
          "type": "address"
        },
        {
          "indexed": false,
          "internalType": "uint256",
          "name": "consumeFeeAmount",
          "type": "uint256"
        }
      ],
      "name": "ConsumeMarketFees",
      "type": "event"
    },
    {
      "anonymous": false,
      "inputs": [
        {
          "indexed": false,
          "internalType": "address",
          "name": "currentMinter",
          "type": "address"
        },
        {
          "indexed": false,
          "internalType": "address",
          "name": "newMinter",
          "type": "address"
        }
      ],
      "name": "MinterApproved",
      "type": "event"
    },
    {
      "anonymous": false,
      "inputs": [
        {
          "indexed": false,
          "internalType": "address",
          "name": "currentMinter",
          "type": "address"
        },
        {
          "indexed": false,
          "internalType": "address",
          "name": "newMinter",
          "type": "address"
        }
      ],
      "name": "MinterProposed",
      "type": "event"
    },
    {
      "anonymous": false,
      "inputs": [
        {
          "indexed": false,
          "internalType": "bytes32",
          "name": "exchangeId",
          "type": "bytes32"
        },
        {
          "indexed": false,
          "internalType": "address",
          "name": "owner",
          "type": "address"
        }
      ],
      "name": "NewFixedRate",
      "type": "event"
    },
    {
      "anonymous": false,
      "inputs": [
        {
          "indexed": true,
          "internalType": "address",
          "name": "caller",
          "type": "address"
        },
        {
          "indexed": true,
          "internalType": "address",
          "name": "_newPaymentCollector",
          "type": "address"
        },
        {
          "indexed": false,
          "internalType": "uint256",
          "name": "timestamp",
          "type": "uint256"
        },
        {
          "indexed": false,
          "internalType": "uint256",
          "name": "blockNumber",
          "type": "uint256"
        }
      ],
      "name": "NewPaymentCollector",
      "type": "event"
    },
    {
      "anonymous": false,
      "inputs": [
        {
          "indexed": false,
          "internalType": "address",
          "name": "poolAddress",
          "type": "address"
        },
        {
          "indexed": false,
          "internalType": "address",
          "name": "ssContract",
          "type": "address"
        },
        {
          "indexed": false,
          "internalType": "address",
          "name": "basetokenAddress",
          "type": "address"
        }
      ],
      "name": "NewPool",
      "type": "event"
    },
    {
      "anonymous": false,
      "inputs": [
        {
          "indexed": true,
          "internalType": "address",
          "name": "consumer",
          "type": "address"
        },
        {
          "indexed": false,
          "internalType": "address",
          "name": "payer",
          "type": "address"
        },
        {
          "indexed": false,
          "internalType": "uint256",
          "name": "amount",
          "type": "uint256"
        },
        {
          "indexed": false,
          "internalType": "uint256",
          "name": "serviceIndex",
          "type": "uint256"
        },
        {
          "indexed": false,
          "internalType": "uint256",
          "name": "timestamp",
          "type": "uint256"
        },
        {
          "indexed": true,
          "internalType": "address",
          "name": "publishMarketAddress",
          "type": "address"
        },
        {
          "indexed": true,
          "internalType": "address",
          "name": "consumeFeeMarketAddress",
          "type": "address"
        },
        {
          "indexed": false,
          "internalType": "uint256",
          "name": "blockNumber",
          "type": "uint256"
        }
      ],
      "name": "OrderStarted",
      "type": "event"
    },
    {
      "anonymous": false,
      "inputs": [
        {
          "indexed": true,
          "internalType": "address",
          "name": "providerFeeAddress",
          "type": "address"
        },
        {
          "indexed": true,
          "internalType": "address",
          "name": "providerFeeToken",
          "type": "address"
        },
        {
          "indexed": false,
          "internalType": "uint256",
          "name": "providerFeeAmount",
          "type": "uint256"
        }
      ],
      "name": "ProviderFees",
      "type": "event"
    },
    {
      "anonymous": false,
      "inputs": [
        {
          "indexed": true,
          "internalType": "address",
          "name": "PublishMarketFeeAddress",
          "type": "address"
        },
        {
          "indexed": true,
          "internalType": "address",
          "name": "PublishMarketFeeToken",
          "type": "address"
        },
        {
          "indexed": false,
          "internalType": "uint256",
          "name": "PublishMarketFeeAmount",
          "type": "uint256"
        }
      ],
      "name": "PublishMarketFees",
      "type": "event"
    },
    {
      "anonymous": false,
      "inputs": [
        {
          "indexed": false,
          "internalType": "address",
          "name": "caller",
          "type": "address"
        },
        {
          "indexed": false,
          "internalType": "address",
          "name": "PublishMarketFeeAddress",
          "type": "address"
        },
        {
          "indexed": false,
          "internalType": "address",
          "name": "PublishMarketFeeToken",
          "type": "address"
        },
        {
          "indexed": false,
          "internalType": "uint256",
          "name": "PublishMarketFeeAmount",
          "type": "uint256"
        }
      ],
      "name": "PublishMarketFeesChanged",
      "type": "event"
    },
    {
      "anonymous": false,
      "inputs": [
        {
          "indexed": true,
          "internalType": "address",
          "name": "user",
          "type": "address"
        },
        {
          "indexed": true,
          "internalType": "address",
          "name": "signer",
          "type": "address"
        },
        {
          "indexed": false,
          "internalType": "uint256",
          "name": "timestamp",
          "type": "uint256"
        },
        {
          "indexed": false,
          "internalType": "uint256",
          "name": "blockNumber",
          "type": "uint256"
        }
      ],
      "name": "RemovedMinter",
      "type": "event"
    },
    {
      "anonymous": false,
      "inputs": [
        {
          "indexed": true,
          "internalType": "address",
          "name": "user",
          "type": "address"
        },
        {
          "indexed": true,
          "internalType": "address",
          "name": "signer",
          "type": "address"
        },
        {
          "indexed": false,
          "internalType": "uint256",
          "name": "timestamp",
          "type": "uint256"
        },
        {
          "indexed": false,
          "internalType": "uint256",
          "name": "blockNumber",
          "type": "uint256"
        }
      ],
      "name": "RemovedPaymentManager",
      "type": "event"
    },
    {
      "anonymous": false,
      "inputs": [
        {
          "indexed": true,
          "internalType": "address",
          "name": "from",
          "type": "address"
        },
        {
          "indexed": true,
          "internalType": "address",
          "name": "to",
          "type": "address"
        },
        {
          "indexed": false,
          "internalType": "uint256",
          "name": "value",
          "type": "uint256"
        }
      ],
      "name": "Transfer",
      "type": "event"
    },
    {
      "stateMutability": "payable",
      "type": "fallback"
    },
    {
      "inputs": [],
      "name": "BASE",
      "outputs": [
        {
          "internalType": "uint256",
          "name": "",
          "type": "uint256"
        }
      ],
      "stateMutability": "view",
      "type": "function"
    },
    {
      "inputs": [],
      "name": "BASE_COMMUNITY_FEE_PERCENTAGE",
      "outputs": [
        {
          "internalType": "uint256",
          "name": "",
          "type": "uint256"
        }
      ],
      "stateMutability": "view",
      "type": "function"
    },
    {
      "inputs": [],
      "name": "DOMAIN_SEPARATOR",
      "outputs": [
        {
          "internalType": "bytes32",
          "name": "",
          "type": "bytes32"
        }
      ],
      "stateMutability": "view",
      "type": "function"
    },
    {
      "inputs": [],
      "name": "PERMIT_TYPEHASH",
      "outputs": [
        {
          "internalType": "bytes32",
          "name": "",
          "type": "bytes32"
        }
      ],
      "stateMutability": "view",
      "type": "function"
    },
    {
      "inputs": [
        {
          "internalType": "address",
          "name": "_minter",
          "type": "address"
        }
      ],
      "name": "addMinter",
      "outputs": [],
      "stateMutability": "nonpayable",
      "type": "function"
    },
    {
      "inputs": [
        {
          "internalType": "address",
          "name": "_paymentManager",
          "type": "address"
        }
      ],
      "name": "addPaymentManager",
      "outputs": [],
      "stateMutability": "nonpayable",
      "type": "function"
    },
    {
      "inputs": [
        {
          "internalType": "address",
          "name": "owner",
          "type": "address"
        },
        {
          "internalType": "address",
          "name": "spender",
          "type": "address"
        }
      ],
      "name": "allowance",
      "outputs": [
        {
          "internalType": "uint256",
          "name": "",
          "type": "uint256"
        }
      ],
      "stateMutability": "view",
      "type": "function"
    },
    {
      "inputs": [
        {
          "internalType": "address",
          "name": "spender",
          "type": "address"
        },
        {
          "internalType": "uint256",
          "name": "amount",
          "type": "uint256"
        }
      ],
      "name": "approve",
      "outputs": [
        {
          "internalType": "bool",
          "name": "",
          "type": "bool"
        }
      ],
      "stateMutability": "nonpayable",
      "type": "function"
    },
    {
      "inputs": [
        {
          "internalType": "uint256",
          "name": "",
          "type": "uint256"
        }
      ],
      "name": "authERC20",
      "outputs": [
        {
          "internalType": "address",
          "name": "",
          "type": "address"
        }
      ],
      "stateMutability": "view",
      "type": "function"
    },
    {
      "inputs": [
        {
          "internalType": "address",
          "name": "account",
          "type": "address"
        }
      ],
      "name": "balanceOf",
      "outputs": [
        {
          "internalType": "uint256",
          "name": "",
          "type": "uint256"
        }
      ],
      "stateMutability": "view",
      "type": "function"
    },
    {
      "inputs": [
        {
          "internalType": "uint256",
          "name": "amount",
          "type": "uint256"
        }
      ],
      "name": "burn",
      "outputs": [],
      "stateMutability": "nonpayable",
      "type": "function"
    },
    {
      "inputs": [
        {
          "internalType": "address",
          "name": "account",
          "type": "address"
        },
        {
          "internalType": "uint256",
          "name": "amount",
          "type": "uint256"
        }
      ],
      "name": "burnFrom",
      "outputs": [],
      "stateMutability": "nonpayable",
      "type": "function"
    },
    {
      "inputs": [
        {
          "components": [
            {
              "internalType": "address",
              "name": "consumer",
              "type": "address"
            },
            {
              "internalType": "uint256",
              "name": "amount",
              "type": "uint256"
            },
            {
              "internalType": "uint256",
              "name": "serviceIndex",
              "type": "uint256"
            },
            {
              "internalType": "address",
              "name": "consumeFeeAddress",
              "type": "address"
            },
            {
              "internalType": "address",
              "name": "consumeFeeToken",
              "type": "address"
            },
            {
              "internalType": "uint256",
              "name": "consumeFeeAmount",
              "type": "uint256"
            },
            {
              "internalType": "address",
              "name": "providerFeeAddress",
              "type": "address"
            },
            {
              "internalType": "address",
              "name": "providerFeeToken",
              "type": "address"
            },
            {
              "internalType": "uint256",
              "name": "providerFeeAmount",
              "type": "uint256"
            }
          ],
          "internalType": "struct ERC20TemplateEnterprise.OrderParams",
          "name": "_orderParams",
          "type": "tuple"
        },
        {
          "internalType": "address",
          "name": "dispenserContract",
          "type": "address"
        }
      ],
      "name": "buyFromDispenserAndOrder",
      "outputs": [],
      "stateMutability": "nonpayable",
      "type": "function"
    },
    {
      "inputs": [
        {
          "components": [
            {
              "internalType": "address",
              "name": "consumer",
              "type": "address"
            },
            {
              "internalType": "uint256",
              "name": "amount",
              "type": "uint256"
            },
            {
              "internalType": "uint256",
              "name": "serviceIndex",
              "type": "uint256"
            },
            {
              "internalType": "address",
              "name": "consumeFeeAddress",
              "type": "address"
            },
            {
              "internalType": "address",
              "name": "consumeFeeToken",
              "type": "address"
            },
            {
              "internalType": "uint256",
              "name": "consumeFeeAmount",
              "type": "uint256"
            },
            {
              "internalType": "address",
              "name": "providerFeeAddress",
              "type": "address"
            },
            {
              "internalType": "address",
              "name": "providerFeeToken",
              "type": "address"
            },
            {
              "internalType": "uint256",
              "name": "providerFeeAmount",
              "type": "uint256"
            }
          ],
          "internalType": "struct ERC20TemplateEnterprise.OrderParams",
          "name": "_orderParams",
          "type": "tuple"
        },
        {
          "components": [
            {
              "internalType": "address",
              "name": "exchangeContract",
              "type": "address"
            },
            {
              "internalType": "bytes32",
              "name": "exchangeId",
              "type": "bytes32"
            },
            {
              "internalType": "uint256",
              "name": "maxBaseTokenAmount",
              "type": "uint256"
            }
          ],
          "internalType": "struct ERC20TemplateEnterprise.FreParams",
          "name": "_freParams",
          "type": "tuple"
        }
      ],
      "name": "buyFromFreAndOrder",
      "outputs": [],
      "stateMutability": "nonpayable",
      "type": "function"
    },
    {
      "inputs": [],
      "name": "cap",
      "outputs": [
        {
          "internalType": "uint256",
          "name": "",
          "type": "uint256"
        }
      ],
      "stateMutability": "view",
      "type": "function"
    },
    {
      "inputs": [],
      "name": "cleanFrom721",
      "outputs": [],
      "stateMutability": "nonpayable",
      "type": "function"
    },
    {
      "inputs": [],
      "name": "cleanPermissions",
      "outputs": [],
      "stateMutability": "nonpayable",
      "type": "function"
    },
    {
      "inputs": [
        {
          "internalType": "address",
          "name": "_dispenser",
          "type": "address"
        },
        {
          "internalType": "uint256",
          "name": "maxTokens",
          "type": "uint256"
        },
        {
          "internalType": "uint256",
          "name": "maxBalance",
          "type": "uint256"
        },
        {
          "internalType": "bool",
          "name": "withMint",
          "type": "bool"
        }
      ],
      "name": "createDispenser",
      "outputs": [],
      "stateMutability": "nonpayable",
      "type": "function"
    },
    {
      "inputs": [
        {
          "internalType": "address",
          "name": "fixedPriceAddress",
          "type": "address"
        },
        {
          "internalType": "address[]",
          "name": "addresses",
          "type": "address[]"
        },
        {
          "internalType": "uint256[]",
          "name": "uints",
          "type": "uint256[]"
        }
      ],
      "name": "createFixedRate",
      "outputs": [
        {
          "internalType": "bytes32",
          "name": "exchangeId",
          "type": "bytes32"
        }
      ],
      "stateMutability": "nonpayable",
      "type": "function"
    },
    {
      "inputs": [],
      "name": "decimals",
      "outputs": [
        {
          "internalType": "uint8",
          "name": "",
          "type": "uint8"
        }
      ],
      "stateMutability": "pure",
      "type": "function"
    },
    {
      "inputs": [
        {
          "internalType": "address",
          "name": "spender",
          "type": "address"
        },
        {
          "internalType": "uint256",
          "name": "subtractedValue",
          "type": "uint256"
        }
      ],
      "name": "decreaseAllowance",
      "outputs": [
        {
          "internalType": "bool",
          "name": "",
          "type": "bool"
        }
      ],
      "stateMutability": "nonpayable",
      "type": "function"
    },
    {
      "inputs": [],
      "name": "getERC721Address",
      "outputs": [
        {
          "internalType": "address",
          "name": "",
          "type": "address"
        }
      ],
      "stateMutability": "view",
      "type": "function"
    },
    {
      "inputs": [],
      "name": "getId",
      "outputs": [
        {
          "internalType": "uint8",
          "name": "",
          "type": "uint8"
        }
      ],
      "stateMutability": "pure",
      "type": "function"
    },
    {
      "inputs": [],
      "name": "getPaymentCollector",
      "outputs": [
        {
          "internalType": "address",
          "name": "",
          "type": "address"
        }
      ],
      "stateMutability": "view",
      "type": "function"
    },
    {
      "inputs": [],
      "name": "getPublishingMarketFee",
      "outputs": [
        {
          "internalType": "address",
          "name": "",
          "type": "address"
        },
        {
          "internalType": "address",
          "name": "",
          "type": "address"
        },
        {
          "internalType": "uint256",
          "name": "",
          "type": "uint256"
        }
      ],
      "stateMutability": "view",
      "type": "function"
    },
    {
      "inputs": [
        {
          "internalType": "address",
          "name": "spender",
          "type": "address"
        },
        {
          "internalType": "uint256",
          "name": "addedValue",
          "type": "uint256"
        }
      ],
      "name": "increaseAllowance",
      "outputs": [
        {
          "internalType": "bool",
          "name": "",
          "type": "bool"
        }
      ],
      "stateMutability": "nonpayable",
      "type": "function"
    },
    {
      "inputs": [
        {
          "internalType": "string[]",
          "name": "strings_",
          "type": "string[]"
        },
        {
          "internalType": "address[]",
          "name": "addresses_",
          "type": "address[]"
        },
        {
          "internalType": "address[]",
          "name": "factoryAddresses_",
          "type": "address[]"
        },
        {
          "internalType": "uint256[]",
          "name": "uints_",
          "type": "uint256[]"
        },
        {
          "internalType": "bytes[]",
          "name": "bytes_",
          "type": "bytes[]"
        }
      ],
      "name": "initialize",
      "outputs": [
        {
          "internalType": "bool",
          "name": "",
          "type": "bool"
        }
      ],
      "stateMutability": "nonpayable",
      "type": "function"
    },
    {
      "inputs": [],
      "name": "isInitialized",
      "outputs": [
        {
          "internalType": "bool",
          "name": "",
          "type": "bool"
        }
      ],
      "stateMutability": "view",
      "type": "function"
    },
    {
      "inputs": [
        {
          "internalType": "address",
          "name": "account",
          "type": "address"
        }
      ],
      "name": "isMinter",
      "outputs": [
        {
          "internalType": "bool",
          "name": "",
          "type": "bool"
        }
      ],
      "stateMutability": "view",
      "type": "function"
    },
    {
      "inputs": [
        {
          "internalType": "address",
          "name": "account",
          "type": "address"
        },
        {
          "internalType": "uint256",
          "name": "value",
          "type": "uint256"
        }
      ],
      "name": "mint",
      "outputs": [],
      "stateMutability": "nonpayable",
      "type": "function"
    },
    {
      "inputs": [],
      "name": "name",
      "outputs": [
        {
          "internalType": "string",
          "name": "",
          "type": "string"
        }
      ],
      "stateMutability": "view",
      "type": "function"
    },
    {
      "inputs": [
        {
          "internalType": "address",
          "name": "",
          "type": "address"
        }
      ],
      "name": "nonces",
      "outputs": [
        {
          "internalType": "uint256",
          "name": "",
          "type": "uint256"
        }
      ],
      "stateMutability": "view",
      "type": "function"
    },
    {
      "inputs": [
        {
          "internalType": "address",
          "name": "",
          "type": "address"
        }
      ],
      "name": "permissions",
      "outputs": [
        {
          "internalType": "bool",
          "name": "minter",
          "type": "bool"
        },
        {
          "internalType": "bool",
          "name": "paymentManager",
          "type": "bool"
        }
      ],
      "stateMutability": "view",
      "type": "function"
    },
    {
      "inputs": [
        {
          "internalType": "address",
          "name": "owner",
          "type": "address"
        },
        {
          "internalType": "address",
          "name": "spender",
          "type": "address"
        },
        {
          "internalType": "uint256",
          "name": "value",
          "type": "uint256"
        },
        {
          "internalType": "uint256",
          "name": "deadline",
          "type": "uint256"
        },
        {
          "internalType": "uint8",
          "name": "v",
          "type": "uint8"
        },
        {
          "internalType": "bytes32",
          "name": "r",
          "type": "bytes32"
        },
        {
          "internalType": "bytes32",
          "name": "s",
          "type": "bytes32"
        }
      ],
      "name": "permit",
      "outputs": [],
      "stateMutability": "nonpayable",
      "type": "function"
    },
    {
      "inputs": [
        {
          "internalType": "address",
          "name": "_minter",
          "type": "address"
        }
      ],
      "name": "removeMinter",
      "outputs": [],
      "stateMutability": "nonpayable",
      "type": "function"
    },
    {
      "inputs": [
        {
          "internalType": "address",
          "name": "_paymentManager",
          "type": "address"
        }
      ],
      "name": "removePaymentManager",
      "outputs": [],
      "stateMutability": "nonpayable",
      "type": "function"
    },
    {
      "inputs": [],
      "name": "router",
      "outputs": [
        {
          "internalType": "address",
          "name": "",
          "type": "address"
        }
      ],
      "stateMutability": "view",
      "type": "function"
    },
    {
      "inputs": [
        {
          "internalType": "bytes",
          "name": "_value",
          "type": "bytes"
        }
      ],
      "name": "setData",
      "outputs": [],
      "stateMutability": "nonpayable",
      "type": "function"
    },
    {
      "inputs": [
        {
          "internalType": "address",
          "name": "_newPaymentCollector",
          "type": "address"
        }
      ],
      "name": "setPaymentCollector",
      "outputs": [],
      "stateMutability": "nonpayable",
      "type": "function"
    },
    {
      "inputs": [
        {
          "internalType": "address",
          "name": "_publishMarketFeeAddress",
          "type": "address"
        },
        {
          "internalType": "address",
          "name": "_publishMarketFeeToken",
          "type": "address"
        },
        {
          "internalType": "uint256",
          "name": "_publishMarketFeeAmount",
          "type": "uint256"
        }
      ],
      "name": "setPublishingMarketFee",
      "outputs": [],
      "stateMutability": "nonpayable",
      "type": "function"
    },
    {
      "inputs": [
        {
          "internalType": "address",
          "name": "consumer",
          "type": "address"
        },
        {
          "internalType": "uint256",
          "name": "amount",
          "type": "uint256"
        },
        {
          "internalType": "uint256",
          "name": "serviceIndex",
          "type": "uint256"
        },
        {
          "internalType": "address",
          "name": "consumeFeeAddress",
          "type": "address"
        },
        {
          "internalType": "address",
          "name": "consumeFeeToken",
          "type": "address"
        },
        {
          "internalType": "uint256",
          "name": "consumeFeeAmount",
          "type": "uint256"
        },
        {
          "internalType": "address",
          "name": "providerFeeAddress",
          "type": "address"
        },
        {
          "internalType": "address",
          "name": "providerFeeToken",
          "type": "address"
        },
        {
          "internalType": "uint256",
          "name": "providerFeeAmount",
          "type": "uint256"
        }
      ],
      "name": "startOrder",
      "outputs": [],
      "stateMutability": "nonpayable",
      "type": "function"
    },
    {
      "inputs": [],
      "name": "symbol",
      "outputs": [
        {
          "internalType": "string",
          "name": "",
          "type": "string"
        }
      ],
      "stateMutability": "view",
      "type": "function"
    },
    {
      "inputs": [],
      "name": "totalSupply",
      "outputs": [
        {
          "internalType": "uint256",
          "name": "",
          "type": "uint256"
        }
      ],
      "stateMutability": "view",
      "type": "function"
    },
    {
      "inputs": [
        {
          "internalType": "address",
          "name": "recipient",
          "type": "address"
        },
        {
          "internalType": "uint256",
          "name": "amount",
          "type": "uint256"
        }
      ],
      "name": "transfer",
      "outputs": [
        {
          "internalType": "bool",
          "name": "",
          "type": "bool"
        }
      ],
      "stateMutability": "nonpayable",
      "type": "function"
    },
    {
      "inputs": [
        {
          "internalType": "address",
          "name": "sender",
          "type": "address"
        },
        {
          "internalType": "address",
          "name": "recipient",
          "type": "address"
        },
        {
          "internalType": "uint256",
          "name": "amount",
          "type": "uint256"
        }
      ],
      "name": "transferFrom",
      "outputs": [
        {
          "internalType": "bool",
          "name": "",
          "type": "bool"
        }
      ],
      "stateMutability": "nonpayable",
      "type": "function"
    },
    {
      "inputs": [],
      "name": "withdrawETH",
      "outputs": [],
      "stateMutability": "payable",
      "type": "function"
    }
  ],
  "bytecode": "0x6080604052600a805460ff60a01b191690553480156200001e57600080fd5b5060408051808201825260048152631d195cdd60e21b60208083019182528351808501909452600a8452691d195cdd14de5b589bdb60b21b9084015281519192916200006d916003916200008c565b508051620000839060049060208401906200008c565b5050506200016f565b8280546200009a9062000132565b90600052602060002090601f016020900481019282620000be576000855562000109565b82601f10620000d957805160ff191683800117855562000109565b8280016001018555821562000109579182015b8281111562000109578251825591602001919060010190620000ec565b50620001179291506200011b565b5090565b5b808211156200011757600081556001016200011c565b600181811c908216806200014757607f821691505b602082108114156200016957634e487b7160e01b600052602260045260246000fd5b50919050565b614448806200017f6000396000f3fe6080604052600436106102675760003560e01c806360d5e8fa11610143578063aa492ef9116100bb578063e086e5ec11610077578063e086e5ec14610807578063e487c2e81461080f578063ec342ad014610824578063ef867ff414610840578063f887ea4014610860578063f94bb4211461088057005b8063aa492ef91461072c578063ab62f0e11461074c578063b2263a5d1461076c578063b3998be014610781578063d505accf146107a1578063dd62ed3e146107c157005b80638b96412b1161010a5780638b96412b1461065e57806395d89b411461067e578063983b2d5614610693578063a457c2d7146106b3578063a9059cbb146106d3578063aa271e1a146106f357005b806360d5e8fa146105a657806370a08231146105c657806379cc6790146105fc5780637ecebe001461061c57806382c03da51461064957005b8063355274ea116101e157806342966c681161019d57806342966c68146104fd57806347a0c3581461051d5780634f189cb21461053d57806357a3a31b1461055257806357ad5ff6146105725780635d1ca6311461059257005b8063355274ea146104375780633644e5151461044c578063392e53cd146104625780633950935114610481578063397b3743146104a157806340c10f19146104dd57005b806323b872dd1161023057806323b872dd1461036157806325b0024314610381578063304efe22146103a15780633092afd5146103c157806330adf81f146103e1578063313ce5671461041557005b80627ffb781461026957806301e88208146102a057806306fdde03146102f0578063095ea7b31461031257806318160ddd14610342575b005b34801561027557600080fd5b50600b546001600160a01b03165b6040516001600160a01b0390911681526020015b60405180910390f35b3480156102ac57600080fd5b506102d96102bb3660046136e5565b60056020526000908152604090205460ff8082169161010090041682565b604080519215158352901515602083015201610297565b3480156102fc57600080fd5b506103056108a0565b604051610297919061372e565b34801561031e57600080fd5b5061033261032d366004613761565b610932565b6040519015158152602001610297565b34801561034e57600080fd5b506002545b604051908152602001610297565b34801561036d57600080fd5b5061033261037c36600461378d565b610948565b34801561038d57600080fd5b5061026761039c3660046136e5565b6109f9565b3480156103ad57600080fd5b506102676103bc3660046138db565b610a93565b3480156103cd57600080fd5b506102676103dc3660046136e5565b610dd8565b3480156103ed57600080fd5b506103537f6e71edae12b1b97f4d1f60370fef10105fa2faae0126114a169c64845d6126c981565b34801561042157600080fd5b5060125b60405160ff9091168152602001610297565b34801561044357600080fd5b50600954610353565b34801561045857600080fd5b5061035360105481565b34801561046e57600080fd5b50600a54600160a01b900460ff16610332565b34801561048d57600080fd5b5061033261049c366004613761565b610e6f565b3480156104ad57600080fd5b50600d54600e54600f54604080516001600160a01b03948516815293909216602084015290820152606001610297565b3480156104e957600080fd5b506102676104f8366004613761565b610eab565b34801561050957600080fd5b50610267610518366004613965565b610f7c565b34801561052957600080fd5b5061026761053836600461397e565b610f86565b34801561054957600080fd5b50610267610fa2565b34801561055e57600080fd5b5061026761056d3660046136e5565b611089565b34801561057e57600080fd5b5061026761058d36600461378d565b6111cb565b34801561059e57600080fd5b506002610425565b3480156105b257600080fd5b506102676105c1366004613a16565b61131f565b3480156105d257600080fd5b506103536105e13660046136e5565b6001600160a01b031660009081526020819052604090205490565b34801561060857600080fd5b50610267610617366004613761565b611433565b34801561062857600080fd5b506103536106373660046136e5565b60116020526000908152604090205481565b34801561065557600080fd5b506102676114b9565b34801561066a57600080fd5b50610353610679366004613adf565b611513565b34801561068a57600080fd5b506103056116d4565b34801561069f57600080fd5b506102676106ae3660046136e5565b6116e3565b3480156106bf57600080fd5b506103326106ce366004613761565b61177a565b3480156106df57600080fd5b506103326106ee366004613761565b611813565b3480156106ff57600080fd5b5061033261070e3660046136e5565b6001600160a01b031660009081526005602052604090205460ff1690565b34801561073857600080fd5b506102676107473660046136e5565b611820565b34801561075857600080fd5b50610267610767366004613bb5565b6118b7565b34801561077857600080fd5b506103536119e8565b34801561078d57600080fd5b5061033261079c366004613c73565b6119fe565b3480156107ad57600080fd5b506102676107bc366004613d64565b611b38565b3480156107cd57600080fd5b506103536107dc366004613ddb565b6001600160a01b03918216600090815260016020908152604080832093909416825291909152205490565b610267611d3f565b34801561081b57600080fd5b50610283611d7f565b34801561083057600080fd5b50610353670de0b6b3a764000081565b34801561084c57600080fd5b5061028361085b366004613965565b611e14565b34801561086c57600080fd5b50601254610283906001600160a01b031681565b34801561088c57600080fd5b5061026761089b366004613e17565b611e3e565b6060600780546108af90613e61565b80601f01602080910402602001604051908101604052809291908181526020018280546108db90613e61565b80156109285780601f106108fd57610100808354040283529160200191610928565b820191906000526020600020905b81548152906001019060200180831161090b57829003601f168201915b5050505050905090565b600061093f338484611f61565b50600192915050565b6000610955848484612085565b6001600160a01b0384166000908152600160209081526040808320338452909152902054828110156109df5760405162461bcd60e51b815260206004820152602860248201527f45524332303a207472616e7366657220616d6f756e74206578636565647320616044820152676c6c6f77616e636560c01b60648201526084015b60405180910390fd5b6109ec8533858403611f61565b60019150505b9392505050565b600b5460405163160a792560e01b81523360048201526001600160a01b039091169063160a7925906024016080604051808303816000875af1158015610a43573d6000803e3d6000fd5b505050506040513d601f19601f82011682018060405250810190610a679190613e9c565b60200151610a875760405162461bcd60e51b81526004016109d690613f21565b610a9081612253565b50565b80516020820151604051634c87087d60e01b815260009283926001600160a01b0390911691634c87087d91610ace9160040190815260200190565b61018060405180830381865afa158015610aec573d6000803e3d6000fd5b505050506040513d601f19601f82011682018060405250810190610b109190613f56565b5050505050505050935050925050306001600160a01b0316826001600160a01b031614610b8f5760405162461bcd60e51b815260206004820152602760248201527f5468697320466978656452617465206973206e6f742070726f766964696e67206044820152661d1a1a5cc8111560ca1b60648201526084016109d6565b82516020808501519086015160405163c99733a760e01b81526000936001600160a01b03169263c99733a792610bd092600401918252602082015260400190565b608060405180830381865afa158015610bed573d6000803e3d6000fd5b505050506040513d601f19601f82011682018060405250810190610c119190614013565b50505090508360400151811115610c7a5760405162461bcd60e51b815260206004820152602760248201527f46697865645261746545786368616e67653a20546f6f206d616e79206261736560448201526620746f6b656e7360c81b60648201526084016109d6565b610c8f6001600160a01b0383163330846122c0565b8351610ca6906001600160a01b038416908361232b565b83516020808601519087015160405163412dae6b60e11b815260048101929092526024820152604481018390526001600160a01b039091169063825b5cd690606401600060405180830381600087803b158015610d0257600080fd5b505af1158015610d16573d6000803e3d6000fd5b505050508460200151610d3e306001600160a01b031660009081526020819052604090205490565b1015610d8c5760405162461bcd60e51b815260206004820152601f60248201527f556e61626c6520746f206275792044542066726f6d204669786564526174650060448201526064016109d6565b610d9b30338760200151612085565b610dd1856000015186602001518760400151886060015189608001518a60a001518b60c001518c60e001518d61010001516123dd565b5050505050565b600b5460405163160a792560e01b81523360048201526001600160a01b039091169063160a7925906024016080604051808303816000875af1158015610e22573d6000803e3d6000fd5b505050506040513d601f19601f82011682018060405250810190610e469190613e9c565b60200151610e665760405162461bcd60e51b81526004016109d690613f21565b610a9081612906565b3360008181526001602090815260408083206001600160a01b0387168452909152812054909161093f918590610ea690869061405f565b611f61565b3360009081526005602052604090205460ff16610f0a5760405162461bcd60e51b815260206004820152601960248201527f455243323054656d706c6174653a204e4f54204d494e5445520000000000000060448201526064016109d6565b600954610f2082610f1a60025490565b90612966565b1115610f6e5760405162461bcd60e51b815260206004820152601f60248201527f44617461546f6b656e54656d706c6174653a206361702065786365656465640060448201526064016109d6565b610f788282612972565b5050565b610a903382612a51565b610f978989898989898989896123dd565b505050505050505050565b600b546040516331a9108f60e11b8152600160048201526001600160a01b0390911690636352211e90602401602060405180830381865afa158015610feb573d6000803e3d6000fd5b505050506040513d601f19601f8201168201806040525081019061100f9190614077565b6001600160a01b0316336001600160a01b03161461106f5760405162461bcd60e51b815260206004820152601b60248201527f455243323054656d706c6174653a206e6f74204e46544f776e6572000000000060448201526064016109d6565b611077612b9f565b600c80546001600160a01b0319169055565b33600090815260056020526040902054610100900460ff168061111a5750600b5460405163160a792560e01b81523360048201526001600160a01b039091169063160a7925906024016080604051808303816000875af11580156110f1573d6000803e3d6000fd5b505050506040513d601f19601f820116820180604052508101906111159190613e9c565b602001515b61117a5760405162461bcd60e51b815260206004820152602b60248201527f455243323054656d706c6174653a204e4f54205041594d454e54204d414e414760448201526a22a91037b91027aba722a960a91b60648201526084016109d6565b61118381612c4e565b604080514281524360208201526001600160a01b0383169133917f4d7694d695c57cc54947177c8e8a0e61aae664e9223492a798c32fadfc6419cc910160405180910390a350565b600d546001600160a01b031633146112385760405162461bcd60e51b815260206004820152602a60248201527f455243323054656d706c6174653a206e6f74207075626c6973684d61726b65746044820152694665654164647265737360b01b60648201526084016109d6565b6001600160a01b03831661129f5760405162461bcd60e51b815260206004820152602860248201527f496e76616c6964205f7075626c6973684d61726b657446656541646472657373604482015267206164647265737360c01b60648201526084016109d6565b600d80546001600160a01b038581166001600160a01b03199283168117909355600e8054918616919092168117909155600f839055604080513381526020810193909352820152606081018290527fe0b85b6f04fa914cf57f6401c5672a83a32b1c388d194c3d78e17f2897d46f439060800160405180910390a1505050565b6020820151604051631d746d8360e01b815230600482015260248101919091523360448201526001600160a01b03821690631d746d8390606401600060405180830381600087803b15801561137357600080fd5b505af1158015611387573d6000803e3d6000fd5b5050505081602001516113af336001600160a01b031660009081526020819052604090205490565b10156113fd5760405162461bcd60e51b815260206004820152601f60248201527f556e61626c6520746f206765742044542066726f6d2044697370656e7365720060448201526064016109d6565b610f78826000015183602001518460400151856060015186608001518760a001518860c001518960e001518a61010001516123dd565b600061143f83336107dc565b90508181101561149d5760405162461bcd60e51b8152602060048201526024808201527f45524332303a206275726e20616d6f756e74206578636565647320616c6c6f77604482015263616e636560e01b60648201526084016109d6565b6114aa8333848403611f61565b6114b48383612a51565b505050565b600b546001600160a01b0316331461106f5760405162461bcd60e51b815260206004820152601f60248201527f455243323054656d706c6174653a204e4f542037323120436f6e74726163740060448201526064016109d6565b600b5460405163160a792560e01b81523360048201526000916001600160a01b03169063160a7925906024016080604051808303816000875af115801561155e573d6000803e3d6000fd5b505050506040513d601f19601f820116820180604052508101906115829190613e9c565b602001516115a25760405162461bcd60e51b81526004016109d690613f21565b30836003815181106115b6576115b6614094565b6001600160a01b039283166020918202929092010152601254604051638244937560e01b81529116906382449375906115f7908790879087906004016140aa565b6020604051808303816000875af1158015611616573d6000803e3d6000fd5b505050506040513d601f19601f8201168201806040525081019061163a919061413e565b905060008260048151811061165157611651614094565b602002602001015111156116685761166884612c70565b7f195d202f33578769e120c3041341554af3193e67ee004175095bc9c06e6e6165818460008151811061169d5761169d614094565b60200260200101516040516116c59291909182526001600160a01b0316602082015260400190565b60405180910390a19392505050565b6060600880546108af90613e61565b600b5460405163160a792560e01b81523360048201526001600160a01b039091169063160a7925906024016080604051808303816000875af115801561172d573d6000803e3d6000fd5b505050506040513d601f19601f820116820180604052508101906117519190613e9c565b602001516117715760405162461bcd60e51b81526004016109d690613f21565b610a9081612c70565b3360009081526001602090815260408083206001600160a01b0386168452909152812054828110156117fc5760405162461bcd60e51b815260206004820152602560248201527f45524332303a2064656372656173656420616c6c6f77616e63652062656c6f77604482015264207a65726f60d81b60648201526084016109d6565b6118093385858403611f61565b5060019392505050565b600061093f338484612085565b600b5460405163160a792560e01b81523360048201526001600160a01b039091169063160a7925906024016080604051808303816000875af115801561186a573d6000803e3d6000fd5b505050506040513d601f19601f8201168201806040525081019061188e9190613e9c565b602001516118ae5760405162461bcd60e51b81526004016109d690613f21565b610a9081612d6a565b600b5460405163160a792560e01b81523360048201526001600160a01b039091169063160a7925906024016080604051808303816000875af1158015611901573d6000803e3d6000fd5b505050506040513d601f19601f820116820180604052508101906119259190613e9c565b602001516119455760405162461bcd60e51b81526004016109d690613f21565b6040516bffffffffffffffffffffffff193060601b16602082015260009060340160408051601f19818403018152908290528051602090910120600b546301caf8fd60e31b83529092506001600160a01b031690630e57c7e8906119b190849087908790600401614157565b600060405180830381600087803b1580156119cb57600080fd5b505af11580156119df573d6000803e3d6000fd5b50505050505050565b6119fb6064670de0b6b3a764000061418d565b81565b600a54600090600160a01b900460ff1615611a755760405162461bcd60e51b815260206004820152603160248201527f455243323054656d706c6174653a20746f6b656e20696e7374616e636520616c6044820152701c9958591e481a5b9a5d1a585b1a5e9959607a1b60648201526084016109d6565b611b29611a828b8d614207565b8a8a8080602002602001604051908101604052809392919081815260200183836020028082843760009201919091525050604080516020808e0282810182019093528d82529093508d92508c91829185019084908082843760009201919091525050604080516020808d0282810182019093528c82529093508c92508b918291850190849080828437600092019190915250611b2492508991508a905061428f565b612e78565b9b9a5050505050505050505050565b43841015611b7b5760405162461bcd60e51b815260206004820152601060248201526f115490cc8c11150e881156141254915160821b60448201526064016109d6565b6010546001600160a01b038816600090815260116020526040812080549192917f6e71edae12b1b97f4d1f60370fef10105fa2faae0126114a169c64845d6126c9918b918b918b919087611bce8361430b565b909155506040805160208101969096526001600160a01b0394851690860152929091166060840152608083015260a082015260c0810187905260e00160405160208183030381529060405280519060200120604051602001611c4792919061190160f01b81526002810192909252602282015260420190565b60408051601f198184030181528282528051602091820120600080855291840180845281905260ff88169284019290925260608301869052608083018590529092509060019060a0016020604051602081039080840390855afa158015611cb2573d6000803e3d6000fd5b5050604051601f1901519150506001600160a01b03811615801590611ce85750886001600160a01b0316816001600160a01b0316145b611d345760405162461bcd60e51b815260206004820152601a60248201527f455243323044543a20494e56414c49445f5349474e415455524500000000000060448201526064016109d6565b610f97898989611f61565b611d47611d7f565b6001600160a01b03166108fc479081150290604051600060405180830381858888f19350505050158015610a90573d6000803e3d6000fd5b600c546000906001600160a01b0316611e0457600b546040516331a9108f60e11b8152600160048201526001600160a01b0390911690636352211e90602401602060405180830381865afa158015611ddb573d6000803e3d6000fd5b505050506040513d601f19601f82011682018060405250810190611dff9190614077565b905090565b50600c546001600160a01b031690565b60068181548110611e2457600080fd5b6000918252602090912001546001600160a01b0316905081565b600b5460405163160a792560e01b81523360048201526001600160a01b039091169063160a7925906024016080604051808303816000875af1158015611e88573d6000803e3d6000fd5b505050506040513d601f19601f82011682018060405250810190611eac9190613e9c565b60200151611ecc5760405162461bcd60e51b81526004016109d690613f21565b601254604051636b14d00560e11b81526001600160a01b0386811660048301523060248301819052604483018790526064830186905233608484015260a48301529091169063d629a00a9060c401600060405180830381600087803b158015611f3457600080fd5b505af1158015611f48573d6000803e3d6000fd5b505050508015611f5b57611f5b84612c70565b50505050565b6001600160a01b038316611fc35760405162461bcd60e51b8152602060048201526024808201527f45524332303a20617070726f76652066726f6d20746865207a65726f206164646044820152637265737360e01b60648201526084016109d6565b6001600160a01b0382166120245760405162461bcd60e51b815260206004820152602260248201527f45524332303a20617070726f766520746f20746865207a65726f206164647265604482015261737360f01b60648201526084016109d6565b6001600160a01b0383811660008181526001602090815260408083209487168084529482529182902085905590518481527f8c5be1e5ebec7d5bd14f71427d1e84f3dd0314c0f7b2291e5b200ac8c7c3b925910160405180910390a3505050565b6001600160a01b0383166120e95760405162461bcd60e51b815260206004820152602560248201527f45524332303a207472616e736665722066726f6d20746865207a65726f206164604482015264647265737360d81b60648201526084016109d6565b6001600160a01b03821661214b5760405162461bcd60e51b815260206004820152602360248201527f45524332303a207472616e7366657220746f20746865207a65726f206164647260448201526265737360e81b60648201526084016109d6565b6001600160a01b038316600090815260208190526040902054818110156121c35760405162461bcd60e51b815260206004820152602660248201527f45524332303a207472616e7366657220616d6f756e7420657863656564732062604482015265616c616e636560d01b60648201526084016109d6565b6001600160a01b038085166000908152602081905260408082208585039055918516815290812080548492906121fa90849061405f565b92505081905550826001600160a01b0316846001600160a01b03167fddf252ad1be2c89b69c2b068fc378daa952ba7f163c4a11628f55a4df523b3ef8460405161224691815260200190565b60405180910390a3611f5b565b6001600160a01b03811660008181526005602052604090819020805461ff00191681559051909133917faee911eec8b2df8f3ae0464841541b1e5f339519bd5cf51889fe8b07fecff658906122b49042904390918252602082015260400190565b60405180910390a35050565b6040516001600160a01b0380851660248301528316604482015260648101829052611f5b9085906323b872dd60e01b906084015b60408051601f198184030181529190526020810180516001600160e01b03166001600160e01b031990931692909217909152613377565b604051636eb1769f60e11b81523060048201526001600160a01b038381166024830152600091839186169063dd62ed3e90604401602060405180830381865afa15801561237c573d6000803e3d6000fd5b505050506040513d601f19601f820116820180604052508101906123a0919061413e565b6123aa919061405f565b6040516001600160a01b038516602482015260448101829052909150611f5b90859063095ea7b360e01b906064016122f4565b3360009081526020819052604081205481908a111561244c5760405162461bcd60e51b815260206004820152602560248201527f4e6f7420656e6f756768204461746120546f6b656e7320746f2073746172742060448201526427b93232b960d91b60648201526084016109d6565b600d5460408051338152602081018d90529081018b90524260608201524360808201526001600160a01b03808b1692811691908e16907fb07adb6a34680ecbbc7935971c45a07b9baf67ce5dc57332d51e3a5745c9e9639060a00160405180910390a46000600f541180156124cb5750600e546001600160a01b031615155b80156124e15750600d546001600160a01b031615155b156125a057600f54600e54612505916001600160a01b0390911690339030906122c0565b600f54612513906064613449565b600d54600f54919250612549916001600160a01b03909116906125369084613455565b600e546001600160a01b03169190613461565b600e54600d54600f546001600160a01b0392831692909116907ff666b31c81334b6085802ba4149907fa724689d43bc31df6de1a51291ddc55b49061258e9085613455565b60405190815260200160405180910390a35b6000861180156125b857506001600160a01b03871615155b80156125cc57506001600160a01b03881615155b1561265d576125e66001600160a01b0388163330896122c0565b6125f1866064613449565b9150612612886126018885613455565b6001600160a01b038a169190613461565b6001600160a01b038088169089167f504f65f39bc14c176feeffb7a6f6f46cf702ca4dcc8e6197b5a4c741dd94f3d161264b8986613455565b60405190815260200160405180910390a35b60008111801561266d5750600082115b80156126865750600e546001600160a01b038881169116145b801561269a57506001600160a01b03871615155b1561274657600a546126b9906001600160a01b03166126018385612966565b600a546040518281526001600160a01b038981169216907ff666b31c81334b6085802ba4149907fa724689d43bc31df6de1a51291ddc55b49060200160405180910390a3600a546040518381526001600160a01b038981169216907f504f65f39bc14c176feeffb7a6f6f46cf702ca4dcc8e6197b5a4c741dd94f3d19060200160405180910390a3612848565b6000811180156127605750600e546001600160a01b031615155b156127cc57600a54600e54612782916001600160a01b03918216911683613461565b600e54600a546040518381526001600160a01b0392831692909116907ff666b31c81334b6085802ba4149907fa724689d43bc31df6de1a51291ddc55b49060200160405180910390a35b6000821180156127e457506001600160a01b03871615155b1561284857600a54612803906001600160a01b03898116911684613461565b600a546040518381526001600160a01b038981169216907f504f65f39bc14c176feeffb7a6f6f46cf702ca4dcc8e6197b5a4c741dd94f3d19060200160405180910390a35b60008311801561286057506001600160a01b03841615155b801561287457506001600160a01b03851615155b156128f05761288e6001600160a01b0385163330866122c0565b6128a26001600160a01b0385168685613461565b836001600160a01b0316856001600160a01b03167f1c540397cffcfd0fa041ec7e0d246506db42327dc3346fe1951185dc734569e4856040516128e791815260200190565b60405180910390a35b6128f98a610f7c565b5050505050505050505050565b6001600160a01b03811660008181526005602052604090819020805460ff191681559051909133917fefa2735987005aaa89c050c0ff8cc9ae7d9079d19382081c429130f98c52d480906122b49042904390918252602082015260400190565b60006109f2828461405f565b6001600160a01b0382166129c85760405162461bcd60e51b815260206004820152601f60248201527f45524332303a206d696e7420746f20746865207a65726f20616464726573730060448201526064016109d6565b80600260008282546129da919061405f565b90915550506001600160a01b03821660009081526020819052604081208054839290612a0790849061405f565b90915550506040518181526001600160a01b038316906000907fddf252ad1be2c89b69c2b068fc378daa952ba7f163c4a11628f55a4df523b3ef9060200160405180910390a35050565b6001600160a01b038216612ab15760405162461bcd60e51b815260206004820152602160248201527f45524332303a206275726e2066726f6d20746865207a65726f206164647265736044820152607360f81b60648201526084016109d6565b6001600160a01b03821660009081526020819052604090205481811015612b255760405162461bcd60e51b815260206004820152602260248201527f45524332303a206275726e20616d6f756e7420657863656564732062616c616e604482015261636560f01b60648201526084016109d6565b6001600160a01b0383166000908152602081905260408120838303905560028054849290612b54908490614326565b90915550506040518281526000906001600160a01b038516907fddf252ad1be2c89b69c2b068fc378daa952ba7f163c4a11628f55a4df523b3ef9060200160405180910390a3505050565b60005b600654811015612c055760006005600060068481548110612bc557612bc5614094565b60009182526020808320909101546001600160a01b031683528201929092526040019020805461ffff191690555080612bfd8161430b565b915050612ba2565b50612c1260066000613609565b6040805142815243602082015233917f712bc71db81927a76b8bf1ea346247bb0ad58f18e4e5c1bd4aa0ec6573e02a2b910160405180910390a2565b600c80546001600160a01b0319166001600160a01b0392909216919091179055565b6001600160a01b0381166000908152600560205260409020805460ff1615612cda5760405162461bcd60e51b815260206004820152601d60248201527f4552433230526f6c65733a2020414c52454144592041204d494e54455200000060448201526064016109d6565b8054600160ff19909116811782556006805491820181556000527ff652222313e28459528d920b65115c16c04f3efc82aaedc97be59f3f377c0d3f0180546001600160a01b0319166001600160a01b038416908117909155604080514281524360208201523392917f4f7e100eb1ee13e903798bd0d6aa854152e07eb05544f392b9409c12935c809591016122b4565b6001600160a01b03811660009081526005602052604090208054610100900460ff1615612de45760405162461bcd60e51b815260206004820152602260248201527f4552433230526f6c65733a2020414c5245414459204120464545204d414e414760448201526122a960f11b60648201526084016109d6565b805461ff001916610100178155600680546001810182556000919091527ff652222313e28459528d920b65115c16c04f3efc82aaedc97be59f3f377c0d3f0180546001600160a01b0384166001600160a01b03199091168117909155604080514281524360208201523392917fb17da2e9910b4ba5754e8872385ba315a238bafb5ae221fc85093c33432c40a791016122b4565b60008084600081518110612e8e57612e8e614094565b60200260200101519050600085600181518110612ead57612ead614094565b6020026020010151905060006001600160a01b0316826001600160a01b03161415612f2f5760405162461bcd60e51b815260206004820152602c60248201527f455243323054656d706c6174653a20496e76616c6964206d696e7465722c202060448201526b7a65726f206164647265737360a01b60648201526084016109d6565b6001600160a01b038116612fab5760405162461bcd60e51b815260206004820152603c60248201527f455243323054656d706c6174653a20496e76616c696420636f6d6d756e69747960448201527f2066656520636f6c6c6563746f722c207a65726f20616464726573730000000060648201526084016109d6565b84600081518110612fbe57612fbe614094565b6020026020010151600014156130225760405162461bcd60e51b8152602060048201526024808201527f44617461546f6b656e54656d706c6174653a20496e76616c6964206361702076604482015263616c756560e01b60648201526084016109d6565b8460008151811061303557613035614094565b60200260200101516009819055508760008151811061305657613056614094565b602002602001015160079080519060200190613073929190613627565b508760018151811061308757613087614094565b6020026020010151600890805190602001906130a4929190613627565b50600b80546001600160a01b0319166001600160a01b0384161790558551869060029081106130d5576130d5614094565b6020908102919091010151601280546001600160a01b039283166001600160a01b0319909116179055600a80546001600160a81b03191691831691909117600160a01b179055865161313f90889060009061313257613132614094565b6020026020010151612c70565b60006001600160a01b03168760018151811061315d5761315d614094565b60200260200101516001600160a01b031614613207576131968760018151811061318957613189614094565b6020026020010151612c4e565b866001815181106131a9576131a9614094565b60200260200101516001600160a01b0316336001600160a01b03167f4d7694d695c57cc54947177c8e8a0e61aae664e9223492a798c32fadfc6419cc42436040516131fe929190918252602082015260400190565b60405180910390a35b8660028151811061321a5761321a614094565b6020026020010151600d60006101000a8154816001600160a01b0302191690836001600160a01b031602179055508660038151811061325b5761325b614094565b6020026020010151600e60006101000a8154816001600160a01b0302191690836001600160a01b031602179055508460018151811061329c5761329c614094565b6020026020010151600f8190555060004690507f8b73c3c69bb8fe3d512ecc4cf759cc79239f7b179b0ffacaa9a75d522b39400f60076040516132df919061433d565b60408051918290038220828201825260018352603160f81b6020938401528151928301939093528101919091527fc89efdaa54c0f20c7adf612882df0950f5a951637e0307cdcb4c672f298b8bc66060820152608081018290523060a082015260c00160408051808303601f1901815291905280516020909101206010555050600a54600160a01b900460ff16979650505050505050565b60006133cc826040518060400160405280602081526020017f5361666545524332303a206c6f772d6c6576656c2063616c6c206661696c6564815250856001600160a01b03166134919092919063ffffffff16565b8051909150156114b457808060200190518101906133ea91906143d9565b6114b45760405162461bcd60e51b815260206004820152602a60248201527f5361666545524332303a204552433230206f7065726174696f6e20646964206e6044820152691bdd081cdd58d8d9595960b21b60648201526084016109d6565b60006109f2828461418d565b60006109f28284614326565b6040516001600160a01b0383166024820152604481018290526114b490849063a9059cbb60e01b906064016122f4565b60606134a084846000856134a8565b949350505050565b6060824710156135095760405162461bcd60e51b815260206004820152602660248201527f416464726573733a20696e73756666696369656e742062616c616e636520666f6044820152651c8818d85b1b60d21b60648201526084016109d6565b843b6135575760405162461bcd60e51b815260206004820152601d60248201527f416464726573733a2063616c6c20746f206e6f6e2d636f6e747261637400000060448201526064016109d6565b600080866001600160a01b0316858760405161357391906143f6565b60006040518083038185875af1925050503d80600081146135b0576040519150601f19603f3d011682016040523d82523d6000602084013e6135b5565b606091505b50915091506135c58282866135d0565b979650505050505050565b606083156135df5750816109f2565b8251156135ef5782518084602001fd5b8160405162461bcd60e51b81526004016109d6919061372e565b5080546000825590600052602060002090810190610a9091906136ab565b82805461363390613e61565b90600052602060002090601f016020900481019282613655576000855561369b565b82601f1061366e57805160ff191683800117855561369b565b8280016001018555821561369b579182015b8281111561369b578251825591602001919060010190613680565b506136a79291506136ab565b5090565b5b808211156136a757600081556001016136ac565b6001600160a01b0381168114610a9057600080fd5b80356136e0816136c0565b919050565b6000602082840312156136f757600080fd5b81356109f2816136c0565b60005b8381101561371d578181015183820152602001613705565b83811115611f5b5750506000910152565b602081526000825180602084015261374d816040850160208701613702565b601f01601f19169190910160400192915050565b6000806040838503121561377457600080fd5b823561377f816136c0565b946020939093013593505050565b6000806000606084860312156137a257600080fd5b83356137ad816136c0565b925060208401356137bd816136c0565b929592945050506040919091013590565b634e487b7160e01b600052604160045260246000fd5b604051610120810167ffffffffffffffff81118282101715613808576138086137ce565b60405290565b604051601f8201601f1916810167ffffffffffffffff81118282101715613837576138376137ce565b604052919050565b6000610120828403121561385257600080fd5b61385a6137e4565b9050613865826136d5565b81526020820135602082015260408201356040820152613887606083016136d5565b6060820152613898608083016136d5565b608082015260a082013560a08201526138b360c083016136d5565b60c08201526138c460e083016136d5565b60e082015261010080830135818301525092915050565b6000808284036101808112156138f057600080fd5b6138fa858561383f565b9250606061011f198201121561390f57600080fd5b506040516060810181811067ffffffffffffffff82111715613933576139336137ce565b604052610120840135613945816136c0565b815261014084013560208201526101609093013560408401525092909150565b60006020828403121561397757600080fd5b5035919050565b60008060008060008060008060006101208a8c03121561399d57600080fd5b89356139a8816136c0565b985060208a0135975060408a0135965060608a01356139c6816136c0565b955060808a01356139d6816136c0565b945060a08a0135935060c08a01356139ed816136c0565b925060e08a01356139fd816136c0565b809250506101008a013590509295985092959850929598565b6000806101408385031215613a2a57600080fd5b613a34848461383f565b9150610120830135613a45816136c0565b809150509250929050565b600067ffffffffffffffff821115613a6a57613a6a6137ce565b5060051b60200190565b600082601f830112613a8557600080fd5b81356020613a9a613a9583613a50565b61380e565b82815260059290921b84018101918181019086841115613ab957600080fd5b8286015b84811015613ad45780358352918301918301613abd565b509695505050505050565b600080600060608486031215613af457600080fd5b8335613aff816136c0565b925060208481013567ffffffffffffffff80821115613b1d57600080fd5b818701915087601f830112613b3157600080fd5b8135613b3f613a9582613a50565b81815260059190911b8301840190848101908a831115613b5e57600080fd5b938501935b82851015613b85578435613b76816136c0565b82529385019390850190613b63565b965050506040870135925080831115613b9d57600080fd5b5050613bab86828701613a74565b9150509250925092565b60008060208385031215613bc857600080fd5b823567ffffffffffffffff80821115613be057600080fd5b818501915085601f830112613bf457600080fd5b813581811115613c0357600080fd5b866020828501011115613c1557600080fd5b60209290920196919550909350505050565b60008083601f840112613c3957600080fd5b50813567ffffffffffffffff811115613c5157600080fd5b6020830191508360208260051b8501011115613c6c57600080fd5b9250929050565b60008060008060008060008060008060a08b8d031215613c9257600080fd5b8a3567ffffffffffffffff80821115613caa57600080fd5b613cb68e838f01613c27565b909c509a5060208d0135915080821115613ccf57600080fd5b613cdb8e838f01613c27565b909a50985060408d0135915080821115613cf457600080fd5b613d008e838f01613c27565b909850965060608d0135915080821115613d1957600080fd5b613d258e838f01613c27565b909650945060808d0135915080821115613d3e57600080fd5b50613d4b8d828e01613c27565b915080935050809150509295989b9194979a5092959850565b600080600080600080600060e0888a031215613d7f57600080fd5b8735613d8a816136c0565b96506020880135613d9a816136c0565b95506040880135945060608801359350608088013560ff81168114613dbe57600080fd5b9699959850939692959460a0840135945060c09093013592915050565b60008060408385031215613dee57600080fd5b8235613df9816136c0565b91506020830135613a45816136c0565b8015158114610a9057600080fd5b60008060008060808587031215613e2d57600080fd5b8435613e38816136c0565b935060208501359250604085013591506060850135613e5681613e09565b939692955090935050565b600181811c90821680613e7557607f821691505b60208210811415613e9657634e487b7160e01b600052602260045260246000fd5b50919050565b600060808284031215613eae57600080fd5b6040516080810181811067ffffffffffffffff82111715613ed157613ed16137ce565b6040528251613edf81613e09565b81526020830151613eef81613e09565b60208201526040830151613f0281613e09565b60408201526060830151613f1581613e09565b60608201529392505050565b6020808252818101527f455243323054656d706c6174653a204e4f54204445504c4f59455220524f4c45604082015260600190565b6000806000806000806000806000806000806101808d8f031215613f7957600080fd5b8c51613f84816136c0565b60208e0151909c50613f95816136c0565b60408e015160608f0151919c509a50613fad816136c0565b8099505060808d0151975060a08d0151965060c08d0151613fcd81613e09565b8096505060e08d015194506101008d015193506101208d015192506101408d015191506101608d0151613fff81613e09565b809150509295989b509295989b509295989b565b6000806000806080858703121561402957600080fd5b505082516020840151604085015160609095015191969095509092509050565b634e487b7160e01b600052601160045260246000fd5b6000821982111561407257614072614049565b500190565b60006020828403121561408957600080fd5b81516109f2816136c0565b634e487b7160e01b600052603260045260246000fd5b6001600160a01b038481168252606060208084018290528551918401829052600092868201929091906080860190855b818110156140f85785518516835294830194918301916001016140da565b5050858103604087015286518082529082019350915080860160005b8381101561413057815185529382019390820190600101614114565b509298975050505050505050565b60006020828403121561415057600080fd5b5051919050565b83815260406020820152816040820152818360608301376000818301606090810191909152601f909201601f1916010192915050565b6000826141aa57634e487b7160e01b600052601260045260246000fd5b500490565b600067ffffffffffffffff8311156141c9576141c96137ce565b6141dc601f8401601f191660200161380e565b90508281528383830111156141f057600080fd5b828260208301376000602084830101529392505050565b6000614215613a9584613a50565b80848252602080830192508560051b85013681111561423357600080fd5b855b8181101561428357803567ffffffffffffffff8111156142555760008081fd5b870136601f8201126142675760008081fd5b6142753682358684016141af565b865250938201938201614235565b50919695505050505050565b600061429d613a9584613a50565b80848252602080830192508560051b8501368111156142bb57600080fd5b855b8181101561428357803567ffffffffffffffff8111156142dd5760008081fd5b870136601f8201126142ef5760008081fd5b6142fd3682358684016141af565b8652509382019382016142bd565b600060001982141561431f5761431f614049565b5060010190565b60008282101561433857614338614049565b500390565b600080835481600182811c91508083168061435957607f831692505b602080841082141561437957634e487b7160e01b86526022600452602486fd5b81801561438d576001811461439e576143cb565b60ff198616895284890196506143cb565b60008a81526020902060005b868110156143c35781548b8201529085019083016143aa565b505084890196505b509498975050505050505050565b6000602082840312156143eb57600080fd5b81516109f281613e09565b60008251614408818460208701613702565b919091019291505056fea2646970667358221220680abcb103adfc3050aa6582c3d939577933585b018174e76f1644e261170a8964736f6c634300080a0033",
  "linkReferences": {},
  "deployedLinkReferences": {}
}