{
  "_format": "hh-sol-artifact-1",
  "contractName": "ERC20TemplateEnterprise",
  "sourceName": "contracts/templates/ERC20TemplateEnterprise.sol",
  "abi": [
    {
      "anonymous": false,
      "inputs": [
        {
          "indexed": true,
          "internalType": "address",
          "name": "user",
          "type": "address"
        },
        {
          "indexed": true,
          "internalType": "address",
          "name": "signer",
          "type": "address"
        },
        {
          "indexed": false,
          "internalType": "uint256",
          "name": "timestamp",
          "type": "uint256"
        },
        {
          "indexed": false,
          "internalType": "uint256",
          "name": "blockNumber",
          "type": "uint256"
        }
      ],
      "name": "AddedMinter",
      "type": "event"
    },
    {
      "anonymous": false,
      "inputs": [
        {
          "indexed": true,
          "internalType": "address",
          "name": "user",
          "type": "address"
        },
        {
          "indexed": true,
          "internalType": "address",
          "name": "signer",
          "type": "address"
        },
        {
          "indexed": false,
          "internalType": "uint256",
          "name": "timestamp",
          "type": "uint256"
        },
        {
          "indexed": false,
          "internalType": "uint256",
          "name": "blockNumber",
          "type": "uint256"
        }
      ],
      "name": "AddedPaymentManager",
      "type": "event"
    },
    {
      "anonymous": false,
      "inputs": [
        {
          "indexed": true,
          "internalType": "address",
          "name": "owner",
          "type": "address"
        },
        {
          "indexed": true,
          "internalType": "address",
          "name": "spender",
          "type": "address"
        },
        {
          "indexed": false,
          "internalType": "uint256",
          "name": "value",
          "type": "uint256"
        }
      ],
      "name": "Approval",
      "type": "event"
    },
    {
      "anonymous": false,
      "inputs": [
        {
          "indexed": false,
          "internalType": "address",
          "name": "buyer",
          "type": "address"
        },
        {
          "indexed": false,
          "internalType": "uint256",
          "name": "baseTokenAmount",
          "type": "uint256"
        },
        {
          "indexed": false,
          "internalType": "uint256",
          "name": "marketFeeAmount",
          "type": "uint256"
        }
      ],
      "name": "BuyAndOrder",
      "type": "event"
    },
    {
      "anonymous": false,
      "inputs": [
        {
          "indexed": true,
          "internalType": "address",
          "name": "signer",
          "type": "address"
        },
        {
          "indexed": false,
          "internalType": "uint256",
          "name": "timestamp",
          "type": "uint256"
        },
        {
          "indexed": false,
          "internalType": "uint256",
          "name": "blockNumber",
          "type": "uint256"
        }
      ],
      "name": "CleanedPermissions",
      "type": "event"
    },
    {
      "anonymous": false,
      "inputs": [
        {
          "indexed": true,
          "internalType": "address",
          "name": "consumeMarketFeeAddress",
          "type": "address"
        },
        {
          "indexed": true,
          "internalType": "address",
          "name": "consumeMarketFeeToken",
          "type": "address"
        },
        {
          "indexed": false,
          "internalType": "uint256",
          "name": "consumeMarketFeeAmount",
          "type": "uint256"
        }
      ],
      "name": "ConsumeMarketFee",
      "type": "event"
    },
    {
      "anonymous": false,
      "inputs": [
        {
          "indexed": false,
          "internalType": "address",
          "name": "currentMinter",
          "type": "address"
        },
        {
          "indexed": false,
          "internalType": "address",
          "name": "newMinter",
          "type": "address"
        }
      ],
      "name": "MinterApproved",
      "type": "event"
    },
    {
      "anonymous": false,
      "inputs": [
        {
          "indexed": false,
          "internalType": "address",
          "name": "currentMinter",
          "type": "address"
        },
        {
          "indexed": false,
          "internalType": "address",
          "name": "newMinter",
          "type": "address"
        }
      ],
      "name": "MinterProposed",
      "type": "event"
    },
    {
      "anonymous": false,
      "inputs": [
        {
          "indexed": false,
          "internalType": "address",
          "name": "dispenserContract",
          "type": "address"
        }
      ],
      "name": "NewDispenser",
      "type": "event"
    },
    {
      "anonymous": false,
      "inputs": [
        {
          "indexed": false,
          "internalType": "bytes32",
          "name": "exchangeId",
          "type": "bytes32"
        },
        {
          "indexed": true,
          "internalType": "address",
          "name": "owner",
          "type": "address"
        },
        {
          "indexed": false,
          "internalType": "address",
          "name": "exchangeContract",
          "type": "address"
        },
        {
          "indexed": true,
          "internalType": "address",
          "name": "baseToken",
          "type": "address"
        }
      ],
      "name": "NewFixedRate",
      "type": "event"
    },
    {
      "anonymous": false,
      "inputs": [
        {
          "indexed": true,
          "internalType": "address",
          "name": "caller",
          "type": "address"
        },
        {
          "indexed": true,
          "internalType": "address",
          "name": "_newPaymentCollector",
          "type": "address"
        },
        {
          "indexed": false,
          "internalType": "uint256",
          "name": "timestamp",
          "type": "uint256"
        },
        {
          "indexed": false,
          "internalType": "uint256",
          "name": "blockNumber",
          "type": "uint256"
        }
      ],
      "name": "NewPaymentCollector",
      "type": "event"
    },
    {
      "anonymous": false,
      "inputs": [
        {
          "indexed": false,
          "internalType": "bytes32",
          "name": "orderTxId",
          "type": "bytes32"
        },
        {
          "indexed": false,
          "internalType": "address",
          "name": "caller",
          "type": "address"
        },
        {
          "indexed": false,
          "internalType": "uint256",
          "name": "timestamp",
          "type": "uint256"
        },
        {
          "indexed": false,
          "internalType": "uint256",
          "name": "number",
          "type": "uint256"
        }
      ],
      "name": "OrderReused",
      "type": "event"
    },
    {
      "anonymous": false,
      "inputs": [
        {
          "indexed": true,
          "internalType": "address",
          "name": "consumer",
          "type": "address"
        },
        {
          "indexed": false,
          "internalType": "address",
          "name": "payer",
          "type": "address"
        },
        {
          "indexed": false,
          "internalType": "uint256",
          "name": "amount",
          "type": "uint256"
        },
        {
          "indexed": false,
          "internalType": "uint256",
          "name": "serviceIndex",
          "type": "uint256"
        },
        {
          "indexed": false,
          "internalType": "uint256",
          "name": "timestamp",
          "type": "uint256"
        },
        {
          "indexed": true,
          "internalType": "address",
          "name": "publishMarketAddress",
          "type": "address"
        },
        {
          "indexed": false,
          "internalType": "uint256",
          "name": "blockNumber",
          "type": "uint256"
        }
      ],
      "name": "OrderStarted",
      "type": "event"
    },
    {
      "anonymous": false,
      "inputs": [
        {
          "indexed": true,
          "internalType": "address",
          "name": "providerFeeAddress",
          "type": "address"
        },
        {
          "indexed": true,
          "internalType": "address",
          "name": "providerFeeToken",
          "type": "address"
        },
        {
          "indexed": false,
          "internalType": "uint256",
          "name": "providerFeeAmount",
          "type": "uint256"
        },
        {
          "indexed": false,
          "internalType": "bytes",
          "name": "providerData",
          "type": "bytes"
        },
        {
          "indexed": false,
          "internalType": "uint8",
          "name": "v",
          "type": "uint8"
        },
        {
          "indexed": false,
          "internalType": "bytes32",
          "name": "r",
          "type": "bytes32"
        },
        {
          "indexed": false,
          "internalType": "bytes32",
          "name": "s",
          "type": "bytes32"
        },
        {
          "indexed": false,
          "internalType": "uint256",
          "name": "validUntil",
          "type": "uint256"
        }
      ],
      "name": "ProviderFee",
      "type": "event"
    },
    {
      "anonymous": false,
      "inputs": [
        {
          "indexed": true,
          "internalType": "address",
          "name": "PublishMarketFeeAddress",
          "type": "address"
        },
        {
          "indexed": true,
          "internalType": "address",
          "name": "PublishMarketFeeToken",
          "type": "address"
        },
        {
          "indexed": false,
          "internalType": "uint256",
          "name": "PublishMarketFeeAmount",
          "type": "uint256"
        }
      ],
      "name": "PublishMarketFee",
      "type": "event"
    },
    {
      "anonymous": false,
      "inputs": [
        {
          "indexed": false,
          "internalType": "address",
          "name": "caller",
          "type": "address"
        },
        {
          "indexed": false,
          "internalType": "address",
          "name": "PublishMarketFeeAddress",
          "type": "address"
        },
        {
          "indexed": false,
          "internalType": "address",
          "name": "PublishMarketFeeToken",
          "type": "address"
        },
        {
          "indexed": false,
          "internalType": "uint256",
          "name": "PublishMarketFeeAmount",
          "type": "uint256"
        }
      ],
      "name": "PublishMarketFeeChanged",
      "type": "event"
    },
    {
      "anonymous": false,
      "inputs": [
        {
          "indexed": true,
          "internalType": "address",
          "name": "user",
          "type": "address"
        },
        {
          "indexed": true,
          "internalType": "address",
          "name": "signer",
          "type": "address"
        },
        {
          "indexed": false,
          "internalType": "uint256",
          "name": "timestamp",
          "type": "uint256"
        },
        {
          "indexed": false,
          "internalType": "uint256",
          "name": "blockNumber",
          "type": "uint256"
        }
      ],
      "name": "RemovedMinter",
      "type": "event"
    },
    {
      "anonymous": false,
      "inputs": [
        {
          "indexed": true,
          "internalType": "address",
          "name": "user",
          "type": "address"
        },
        {
          "indexed": true,
          "internalType": "address",
          "name": "signer",
          "type": "address"
        },
        {
          "indexed": false,
          "internalType": "uint256",
          "name": "timestamp",
          "type": "uint256"
        },
        {
          "indexed": false,
          "internalType": "uint256",
          "name": "blockNumber",
          "type": "uint256"
        }
      ],
      "name": "RemovedPaymentManager",
      "type": "event"
    },
    {
      "anonymous": false,
      "inputs": [
        {
          "indexed": true,
          "internalType": "address",
          "name": "from",
          "type": "address"
        },
        {
          "indexed": true,
          "internalType": "address",
          "name": "to",
          "type": "address"
        },
        {
          "indexed": false,
          "internalType": "uint256",
          "name": "value",
          "type": "uint256"
        }
      ],
      "name": "Transfer",
      "type": "event"
    },
    {
      "stateMutability": "payable",
      "type": "fallback"
    },
    {
      "inputs": [],
      "name": "BASE",
      "outputs": [
        {
          "internalType": "uint256",
          "name": "",
          "type": "uint256"
        }
      ],
      "stateMutability": "view",
      "type": "function"
    },
    {
      "inputs": [],
      "name": "DOMAIN_SEPARATOR",
      "outputs": [
        {
          "internalType": "bytes32",
          "name": "",
          "type": "bytes32"
        }
      ],
      "stateMutability": "view",
      "type": "function"
    },
    {
      "inputs": [],
      "name": "PERMIT_TYPEHASH",
      "outputs": [
        {
          "internalType": "bytes32",
          "name": "",
          "type": "bytes32"
        }
      ],
      "stateMutability": "view",
      "type": "function"
    },
    {
      "inputs": [
        {
          "internalType": "address",
          "name": "_minter",
          "type": "address"
        }
      ],
      "name": "addMinter",
      "outputs": [],
      "stateMutability": "nonpayable",
      "type": "function"
    },
    {
      "inputs": [
        {
          "internalType": "address",
          "name": "_paymentManager",
          "type": "address"
        }
      ],
      "name": "addPaymentManager",
      "outputs": [],
      "stateMutability": "nonpayable",
      "type": "function"
    },
    {
      "inputs": [
        {
          "internalType": "address",
          "name": "owner",
          "type": "address"
        },
        {
          "internalType": "address",
          "name": "spender",
          "type": "address"
        }
      ],
      "name": "allowance",
      "outputs": [
        {
          "internalType": "uint256",
          "name": "",
          "type": "uint256"
        }
      ],
      "stateMutability": "view",
      "type": "function"
    },
    {
      "inputs": [
        {
          "internalType": "address",
          "name": "spender",
          "type": "address"
        },
        {
          "internalType": "uint256",
          "name": "amount",
          "type": "uint256"
        }
      ],
      "name": "approve",
      "outputs": [
        {
          "internalType": "bool",
          "name": "",
          "type": "bool"
        }
      ],
      "stateMutability": "nonpayable",
      "type": "function"
    },
    {
      "inputs": [
        {
          "internalType": "uint256",
          "name": "",
          "type": "uint256"
        }
      ],
      "name": "authERC20",
      "outputs": [
        {
          "internalType": "address",
          "name": "",
          "type": "address"
        }
      ],
      "stateMutability": "view",
      "type": "function"
    },
    {
      "inputs": [
        {
          "internalType": "address",
          "name": "account",
          "type": "address"
        }
      ],
      "name": "balanceOf",
      "outputs": [
        {
          "internalType": "uint256",
          "name": "",
          "type": "uint256"
        }
      ],
      "stateMutability": "view",
      "type": "function"
    },
    {
      "inputs": [
        {
          "internalType": "uint256",
          "name": "amount",
          "type": "uint256"
        }
      ],
      "name": "burn",
      "outputs": [],
      "stateMutability": "nonpayable",
      "type": "function"
    },
    {
      "inputs": [
        {
          "internalType": "address",
          "name": "account",
          "type": "address"
        },
        {
          "internalType": "uint256",
          "name": "amount",
          "type": "uint256"
        }
      ],
      "name": "burnFrom",
      "outputs": [],
      "stateMutability": "nonpayable",
      "type": "function"
    },
    {
      "inputs": [
        {
          "components": [
            {
              "internalType": "address",
              "name": "consumer",
              "type": "address"
            },
            {
              "internalType": "uint256",
              "name": "serviceIndex",
              "type": "uint256"
            },
            {
              "components": [
                {
                  "internalType": "address",
                  "name": "providerFeeAddress",
                  "type": "address"
                },
                {
                  "internalType": "address",
                  "name": "providerFeeToken",
                  "type": "address"
                },
                {
                  "internalType": "uint256",
                  "name": "providerFeeAmount",
                  "type": "uint256"
                },
                {
                  "internalType": "uint8",
                  "name": "v",
                  "type": "uint8"
                },
                {
                  "internalType": "bytes32",
                  "name": "r",
                  "type": "bytes32"
                },
                {
                  "internalType": "bytes32",
                  "name": "s",
                  "type": "bytes32"
                },
                {
                  "internalType": "uint256",
                  "name": "validUntil",
                  "type": "uint256"
                },
                {
                  "internalType": "bytes",
                  "name": "providerData",
                  "type": "bytes"
                }
              ],
              "internalType": "struct ERC20TemplateEnterprise.providerFee",
              "name": "_providerFee",
              "type": "tuple"
            },
            {
              "components": [
                {
                  "internalType": "address",
                  "name": "consumeMarketFeeAddress",
                  "type": "address"
                },
                {
                  "internalType": "address",
                  "name": "consumeMarketFeeToken",
                  "type": "address"
                },
                {
                  "internalType": "uint256",
                  "name": "consumeMarketFeeAmount",
                  "type": "uint256"
                }
              ],
              "internalType": "struct ERC20TemplateEnterprise.consumeMarketFee",
              "name": "_consumeMarketFee",
              "type": "tuple"
            }
          ],
          "internalType": "struct ERC20TemplateEnterprise.OrderParams",
          "name": "_orderParams",
          "type": "tuple"
        },
        {
          "internalType": "address",
          "name": "dispenserContract",
          "type": "address"
        }
      ],
      "name": "buyFromDispenserAndOrder",
      "outputs": [],
      "stateMutability": "nonpayable",
      "type": "function"
    },
    {
      "inputs": [
        {
          "components": [
            {
              "internalType": "address",
              "name": "consumer",
              "type": "address"
            },
            {
              "internalType": "uint256",
              "name": "serviceIndex",
              "type": "uint256"
            },
            {
              "components": [
                {
                  "internalType": "address",
                  "name": "providerFeeAddress",
                  "type": "address"
                },
                {
                  "internalType": "address",
                  "name": "providerFeeToken",
                  "type": "address"
                },
                {
                  "internalType": "uint256",
                  "name": "providerFeeAmount",
                  "type": "uint256"
                },
                {
                  "internalType": "uint8",
                  "name": "v",
                  "type": "uint8"
                },
                {
                  "internalType": "bytes32",
                  "name": "r",
                  "type": "bytes32"
                },
                {
                  "internalType": "bytes32",
                  "name": "s",
                  "type": "bytes32"
                },
                {
                  "internalType": "uint256",
                  "name": "validUntil",
                  "type": "uint256"
                },
                {
                  "internalType": "bytes",
                  "name": "providerData",
                  "type": "bytes"
                }
              ],
              "internalType": "struct ERC20TemplateEnterprise.providerFee",
              "name": "_providerFee",
              "type": "tuple"
            },
            {
              "components": [
                {
                  "internalType": "address",
                  "name": "consumeMarketFeeAddress",
                  "type": "address"
                },
                {
                  "internalType": "address",
                  "name": "consumeMarketFeeToken",
                  "type": "address"
                },
                {
                  "internalType": "uint256",
                  "name": "consumeMarketFeeAmount",
                  "type": "uint256"
                }
              ],
              "internalType": "struct ERC20TemplateEnterprise.consumeMarketFee",
              "name": "_consumeMarketFee",
              "type": "tuple"
            }
          ],
          "internalType": "struct ERC20TemplateEnterprise.OrderParams",
          "name": "_orderParams",
          "type": "tuple"
        },
        {
          "components": [
            {
              "internalType": "address",
              "name": "exchangeContract",
              "type": "address"
            },
            {
              "internalType": "bytes32",
              "name": "exchangeId",
              "type": "bytes32"
            },
            {
              "internalType": "uint256",
              "name": "maxBaseTokenAmount",
              "type": "uint256"
            },
            {
              "internalType": "uint256",
              "name": "swapMarketFee",
              "type": "uint256"
            },
            {
              "internalType": "address",
              "name": "marketFeeAddress",
              "type": "address"
            }
          ],
          "internalType": "struct ERC20TemplateEnterprise.FreParams",
          "name": "_freParams",
          "type": "tuple"
        }
      ],
      "name": "buyFromFreAndOrder",
      "outputs": [],
      "stateMutability": "nonpayable",
      "type": "function"
    },
    {
      "inputs": [],
      "name": "cap",
      "outputs": [
        {
          "internalType": "uint256",
          "name": "",
          "type": "uint256"
        }
      ],
      "stateMutability": "view",
      "type": "function"
    },
    {
      "inputs": [],
      "name": "cleanFrom721",
      "outputs": [],
      "stateMutability": "nonpayable",
      "type": "function"
    },
    {
      "inputs": [],
      "name": "cleanPermissions",
      "outputs": [],
      "stateMutability": "nonpayable",
      "type": "function"
    },
    {
      "inputs": [
        {
          "internalType": "address",
          "name": "_dispenser",
          "type": "address"
        },
        {
          "internalType": "uint256",
          "name": "maxTokens",
          "type": "uint256"
        },
        {
          "internalType": "uint256",
          "name": "maxBalance",
          "type": "uint256"
        },
        {
          "internalType": "bool",
          "name": "withMint",
          "type": "bool"
        },
        {
          "internalType": "address",
          "name": "allowedSwapper",
          "type": "address"
        }
      ],
      "name": "createDispenser",
      "outputs": [],
      "stateMutability": "nonpayable",
      "type": "function"
    },
    {
      "inputs": [
        {
          "internalType": "address",
          "name": "fixedPriceAddress",
          "type": "address"
        },
        {
          "internalType": "address[]",
          "name": "addresses",
          "type": "address[]"
        },
        {
          "internalType": "uint256[]",
          "name": "uints",
          "type": "uint256[]"
        }
      ],
      "name": "createFixedRate",
      "outputs": [
        {
          "internalType": "bytes32",
          "name": "exchangeId",
          "type": "bytes32"
        }
      ],
      "stateMutability": "nonpayable",
      "type": "function"
    },
    {
      "inputs": [],
      "name": "decimals",
      "outputs": [
        {
          "internalType": "uint8",
          "name": "",
          "type": "uint8"
        }
      ],
      "stateMutability": "pure",
      "type": "function"
    },
    {
      "inputs": [
        {
          "internalType": "address",
          "name": "spender",
          "type": "address"
        },
        {
          "internalType": "uint256",
          "name": "subtractedValue",
          "type": "uint256"
        }
      ],
      "name": "decreaseAllowance",
      "outputs": [
        {
          "internalType": "bool",
          "name": "",
          "type": "bool"
        }
      ],
      "stateMutability": "nonpayable",
      "type": "function"
    },
    {
      "inputs": [],
      "name": "getDispensers",
      "outputs": [
        {
          "internalType": "address[]",
          "name": "",
          "type": "address[]"
        }
      ],
      "stateMutability": "view",
      "type": "function"
    },
    {
      "inputs": [],
      "name": "getERC721Address",
      "outputs": [
        {
          "internalType": "address",
          "name": "",
          "type": "address"
        }
      ],
      "stateMutability": "view",
      "type": "function"
    },
    {
      "inputs": [],
      "name": "getFixedRates",
      "outputs": [
        {
          "components": [
            {
              "internalType": "address",
              "name": "contractAddress",
              "type": "address"
            },
            {
              "internalType": "bytes32",
              "name": "id",
              "type": "bytes32"
            }
          ],
          "internalType": "struct ERC20TemplateEnterprise.fixedRate[]",
          "name": "",
          "type": "tuple[]"
        }
      ],
      "stateMutability": "view",
      "type": "function"
    },
    {
      "inputs": [],
      "name": "getId",
      "outputs": [
        {
          "internalType": "uint8",
          "name": "",
          "type": "uint8"
        }
      ],
      "stateMutability": "pure",
      "type": "function"
    },
    {
      "inputs": [],
      "name": "getPaymentCollector",
      "outputs": [
        {
          "internalType": "address",
          "name": "",
          "type": "address"
        }
      ],
      "stateMutability": "view",
      "type": "function"
    },
    {
      "inputs": [
        {
          "internalType": "address",
          "name": "user",
          "type": "address"
        }
      ],
      "name": "getPermissions",
      "outputs": [
        {
          "components": [
            {
              "internalType": "bool",
              "name": "minter",
              "type": "bool"
            },
            {
              "internalType": "bool",
              "name": "paymentManager",
              "type": "bool"
            }
          ],
          "internalType": "struct ERC20Roles.RolesERC20",
          "name": "",
          "type": "tuple"
        }
      ],
      "stateMutability": "view",
      "type": "function"
    },
    {
      "inputs": [],
      "name": "getPublishingMarketFee",
      "outputs": [
        {
          "internalType": "address",
          "name": "",
          "type": "address"
        },
        {
          "internalType": "address",
          "name": "",
          "type": "address"
        },
        {
          "internalType": "uint256",
          "name": "",
          "type": "uint256"
        }
      ],
      "stateMutability": "view",
      "type": "function"
    },
    {
      "inputs": [
        {
          "internalType": "address",
          "name": "spender",
          "type": "address"
        },
        {
          "internalType": "uint256",
          "name": "addedValue",
          "type": "uint256"
        }
      ],
      "name": "increaseAllowance",
      "outputs": [
        {
          "internalType": "bool",
          "name": "",
          "type": "bool"
        }
      ],
      "stateMutability": "nonpayable",
      "type": "function"
    },
    {
      "inputs": [
        {
          "internalType": "string[]",
          "name": "strings_",
          "type": "string[]"
        },
        {
          "internalType": "address[]",
          "name": "addresses_",
          "type": "address[]"
        },
        {
          "internalType": "address[]",
          "name": "factoryAddresses_",
          "type": "address[]"
        },
        {
          "internalType": "uint256[]",
          "name": "uints_",
          "type": "uint256[]"
        },
        {
          "internalType": "bytes[]",
          "name": "bytes_",
          "type": "bytes[]"
        }
      ],
      "name": "initialize",
      "outputs": [
        {
          "internalType": "bool",
          "name": "",
          "type": "bool"
        }
      ],
      "stateMutability": "nonpayable",
      "type": "function"
    },
    {
      "inputs": [
        {
          "internalType": "address",
          "name": "user",
          "type": "address"
        }
      ],
      "name": "isERC20Deployer",
      "outputs": [
        {
          "internalType": "bool",
          "name": "deployer",
          "type": "bool"
        }
      ],
      "stateMutability": "nonpayable",
      "type": "function"
    },
    {
      "inputs": [],
      "name": "isInitialized",
      "outputs": [
        {
          "internalType": "bool",
          "name": "",
          "type": "bool"
        }
      ],
      "stateMutability": "view",
      "type": "function"
    },
    {
      "inputs": [
        {
          "internalType": "address",
          "name": "account",
          "type": "address"
        }
      ],
      "name": "isMinter",
      "outputs": [
        {
          "internalType": "bool",
          "name": "",
          "type": "bool"
        }
      ],
      "stateMutability": "view",
      "type": "function"
    },
    {
      "inputs": [
        {
          "internalType": "address",
          "name": "account",
          "type": "address"
        },
        {
          "internalType": "uint256",
          "name": "value",
          "type": "uint256"
        }
      ],
      "name": "mint",
      "outputs": [],
      "stateMutability": "nonpayable",
      "type": "function"
    },
    {
      "inputs": [],
      "name": "name",
      "outputs": [
        {
          "internalType": "string",
          "name": "",
          "type": "string"
        }
      ],
      "stateMutability": "view",
      "type": "function"
    },
    {
      "inputs": [
        {
          "internalType": "address",
          "name": "",
          "type": "address"
        }
      ],
      "name": "nonces",
      "outputs": [
        {
          "internalType": "uint256",
          "name": "",
          "type": "uint256"
        }
      ],
      "stateMutability": "view",
      "type": "function"
    },
    {
      "inputs": [
        {
          "internalType": "address",
          "name": "",
          "type": "address"
        }
      ],
      "name": "permissions",
      "outputs": [
        {
          "internalType": "bool",
          "name": "minter",
          "type": "bool"
        },
        {
          "internalType": "bool",
          "name": "paymentManager",
          "type": "bool"
        }
      ],
      "stateMutability": "view",
      "type": "function"
    },
    {
      "inputs": [
        {
          "internalType": "address",
          "name": "owner",
          "type": "address"
        },
        {
          "internalType": "address",
          "name": "spender",
          "type": "address"
        },
        {
          "internalType": "uint256",
          "name": "value",
          "type": "uint256"
        },
        {
          "internalType": "uint256",
          "name": "deadline",
          "type": "uint256"
        },
        {
          "internalType": "uint8",
          "name": "v",
          "type": "uint8"
        },
        {
          "internalType": "bytes32",
          "name": "r",
          "type": "bytes32"
        },
        {
          "internalType": "bytes32",
          "name": "s",
          "type": "bytes32"
        }
      ],
      "name": "permit",
      "outputs": [],
      "stateMutability": "nonpayable",
      "type": "function"
    },
    {
      "inputs": [
        {
          "internalType": "address",
          "name": "_minter",
          "type": "address"
        }
      ],
      "name": "removeMinter",
      "outputs": [],
      "stateMutability": "nonpayable",
      "type": "function"
    },
    {
      "inputs": [
        {
          "internalType": "address",
          "name": "_paymentManager",
          "type": "address"
        }
      ],
      "name": "removePaymentManager",
      "outputs": [],
      "stateMutability": "nonpayable",
      "type": "function"
    },
    {
      "inputs": [
        {
          "internalType": "bytes32",
          "name": "orderTxId",
          "type": "bytes32"
        },
        {
          "components": [
            {
              "internalType": "address",
              "name": "providerFeeAddress",
              "type": "address"
            },
            {
              "internalType": "address",
              "name": "providerFeeToken",
              "type": "address"
            },
            {
              "internalType": "uint256",
              "name": "providerFeeAmount",
              "type": "uint256"
            },
            {
              "internalType": "uint8",
              "name": "v",
              "type": "uint8"
            },
            {
              "internalType": "bytes32",
              "name": "r",
              "type": "bytes32"
            },
            {
              "internalType": "bytes32",
              "name": "s",
              "type": "bytes32"
            },
            {
              "internalType": "uint256",
              "name": "validUntil",
              "type": "uint256"
            },
            {
              "internalType": "bytes",
              "name": "providerData",
              "type": "bytes"
            }
          ],
          "internalType": "struct ERC20TemplateEnterprise.providerFee",
          "name": "_providerFee",
          "type": "tuple"
        }
      ],
      "name": "reuseOrder",
      "outputs": [],
      "stateMutability": "nonpayable",
      "type": "function"
    },
    {
      "inputs": [],
      "name": "router",
      "outputs": [
        {
          "internalType": "address",
          "name": "",
          "type": "address"
        }
      ],
      "stateMutability": "view",
      "type": "function"
    },
    {
      "inputs": [
        {
          "internalType": "bytes",
          "name": "_value",
          "type": "bytes"
        }
      ],
      "name": "setData",
      "outputs": [],
      "stateMutability": "nonpayable",
      "type": "function"
    },
    {
      "inputs": [
        {
          "internalType": "address",
          "name": "_newPaymentCollector",
          "type": "address"
        }
      ],
      "name": "setPaymentCollector",
      "outputs": [],
      "stateMutability": "nonpayable",
      "type": "function"
    },
    {
      "inputs": [
        {
          "internalType": "address",
          "name": "_publishMarketFeeAddress",
          "type": "address"
        },
        {
          "internalType": "address",
          "name": "_publishMarketFeeToken",
          "type": "address"
        },
        {
          "internalType": "uint256",
          "name": "_publishMarketFeeAmount",
          "type": "uint256"
        }
      ],
      "name": "setPublishingMarketFee",
      "outputs": [],
      "stateMutability": "nonpayable",
      "type": "function"
    },
    {
      "inputs": [
        {
          "internalType": "address",
          "name": "consumer",
          "type": "address"
        },
        {
          "internalType": "uint256",
          "name": "serviceIndex",
          "type": "uint256"
        },
        {
          "components": [
            {
              "internalType": "address",
              "name": "providerFeeAddress",
              "type": "address"
            },
            {
              "internalType": "address",
              "name": "providerFeeToken",
              "type": "address"
            },
            {
              "internalType": "uint256",
              "name": "providerFeeAmount",
              "type": "uint256"
            },
            {
              "internalType": "uint8",
              "name": "v",
              "type": "uint8"
            },
            {
              "internalType": "bytes32",
              "name": "r",
              "type": "bytes32"
            },
            {
              "internalType": "bytes32",
              "name": "s",
              "type": "bytes32"
            },
            {
              "internalType": "uint256",
              "name": "validUntil",
              "type": "uint256"
            },
            {
              "internalType": "bytes",
              "name": "providerData",
              "type": "bytes"
            }
          ],
          "internalType": "struct ERC20TemplateEnterprise.providerFee",
          "name": "_providerFee",
          "type": "tuple"
        },
        {
          "components": [
            {
              "internalType": "address",
              "name": "consumeMarketFeeAddress",
              "type": "address"
            },
            {
              "internalType": "address",
              "name": "consumeMarketFeeToken",
              "type": "address"
            },
            {
              "internalType": "uint256",
              "name": "consumeMarketFeeAmount",
              "type": "uint256"
            }
          ],
          "internalType": "struct ERC20TemplateEnterprise.consumeMarketFee",
          "name": "_consumeMarketFee",
          "type": "tuple"
        }
      ],
      "name": "startOrder",
      "outputs": [],
      "stateMutability": "nonpayable",
      "type": "function"
    },
    {
      "inputs": [],
      "name": "symbol",
      "outputs": [
        {
          "internalType": "string",
          "name": "",
          "type": "string"
        }
      ],
      "stateMutability": "view",
      "type": "function"
    },
    {
      "inputs": [],
      "name": "totalSupply",
      "outputs": [
        {
          "internalType": "uint256",
          "name": "",
          "type": "uint256"
        }
      ],
      "stateMutability": "view",
      "type": "function"
    },
    {
      "inputs": [
        {
          "internalType": "address",
          "name": "recipient",
          "type": "address"
        },
        {
          "internalType": "uint256",
          "name": "amount",
          "type": "uint256"
        }
      ],
      "name": "transfer",
      "outputs": [
        {
          "internalType": "bool",
          "name": "",
          "type": "bool"
        }
      ],
      "stateMutability": "nonpayable",
      "type": "function"
    },
    {
      "inputs": [
        {
          "internalType": "address",
          "name": "sender",
          "type": "address"
        },
        {
          "internalType": "address",
          "name": "recipient",
          "type": "address"
        },
        {
          "internalType": "uint256",
          "name": "amount",
          "type": "uint256"
        }
      ],
      "name": "transferFrom",
      "outputs": [
        {
          "internalType": "bool",
          "name": "",
          "type": "bool"
        }
      ],
      "stateMutability": "nonpayable",
      "type": "function"
    },
    {
      "inputs": [],
      "name": "withdrawETH",
      "outputs": [],
      "stateMutability": "payable",
      "type": "function"
    }
  ],
  "bytecode": "0x6080604052600b805460ff60a01b191690553480156200001e57600080fd5b5060408051808201825260048152631d195cdd60e21b60208083019182528351808501909452600a8452691d195cdd14de5b589bdb60b21b9084015281519192916200006d9160039162000091565b5080516200008390600490602084019062000091565b505060016007555062000174565b8280546200009f9062000137565b90600052602060002090601f016020900481019282620000c357600085556200010e565b82601f10620000de57805160ff19168380011785556200010e565b828001600101855582156200010e579182015b828111156200010e578251825591602001919060010190620000f1565b506200011c92915062000120565b5090565b5b808211156200011c576000815560010162000121565b600181811c908216806200014c57607f821691505b602082108114156200016e57634e487b7160e01b600052602260045260246000fd5b50919050565b61503a80620001846000396000f3fe6080604052600436106102ad5760003560e01c80635d1ca63111610166578063a8c09b0b116100d3578063d505accf1161008f578063e487c2e81161006c578063e487c2e814610970578063ec342ad014610985578063ef867ff4146109a1578063f887ea40146109c157005b8063d505accf14610902578063dd62ed3e14610922578063e086e5ec1461096857005b8063a8c09b0b14610829578063a9059cbb14610849578063aa271e1a14610869578063aa492ef9146108a2578063ab62f0e1146108c2578063b3998be0146108e257005b806382c03da51161012257806382c03da51461077f5780638b96412b1461079457806395d89b41146107b457806396fb3eaf146107c9578063983b2d56146107e9578063a457c2d71461080957005b80635d1ca631146106a657806370a08231146106ba57806379cc6790146106f057806379d9d7f3146107105780637dda231e146107305780637ecebe001461075257005b8063313ce5671161021c578063397b3743116101d857806347ac7d55116101b557806347ac7d551461062f5780634f189cb21461065157806357a3a31b1461066657806357ad5ff61461068657005b8063397b3743146105b357806340c10f19146105ef57806342966c681461060f57005b8063313ce56714610507578063355274ea14610529578063361fef491461053e5780633644e5151461055e578063392e53cd14610574578063395093511461059357005b8063191c918a1161026b578063191c918a146104335780631b53b05f1461045357806323b872dd1461047357806325b00243146104935780633092afd5146104b357806330adf81f146104d357005b80627ffb78146102af57806301e88208146102e657806306fdde0314610336578063095ea7b314610358578063160a79251461038857806318160ddd14610414575b005b3480156102bb57600080fd5b50600c546001600160a01b03165b6040516001600160a01b0390911681526020015b60405180910390f35b3480156102f257600080fd5b5061031f610301366004614152565b60056020526000908152604090205460ff8082169161010090041682565b6040805192151583529015156020830152016102dd565b34801561034257600080fd5b5061034b6109e1565b6040516102dd919061419b565b34801561036457600080fd5b506103786103733660046141ce565b610a73565b60405190151581526020016102dd565b34801561039457600080fd5b506103f56103a3366004614152565b6040805180820190915260008082526020820152506001600160a01b031660009081526005602090815260409182902082518084019093525460ff808216151584526101009091041615159082015290565b60408051825115158152602092830151151592810192909252016102dd565b34801561042057600080fd5b506002545b6040519081526020016102dd565b34801561043f57600080fd5b506102ad61044e366004614208565b610a89565b34801561045f57600080fd5b506102ad61046e36600461427f565b610c64565b34801561047f57600080fd5b5061037861048e3660046142d0565b610d92565b34801561049f57600080fd5b506102ad6104ae366004614152565b610e3e565b3480156104bf57600080fd5b506102ad6104ce366004614152565b610ed8565b3480156104df57600080fd5b506104257f6e71edae12b1b97f4d1f60370fef10105fa2faae0126114a169c64845d6126c981565b34801561051357600080fd5b5060125b60405160ff90911681526020016102dd565b34801561053557600080fd5b50600a54610425565b34801561054a57600080fd5b506102ad610559366004614324565b610f6f565b34801561056a57600080fd5b5061042560115481565b34801561058057600080fd5b50600b54600160a01b900460ff16610378565b34801561059f57600080fd5b506103786105ae3660046141ce565b610fc0565b3480156105bf57600080fd5b50600e54600f54601054604080516001600160a01b039485168152939092166020840152908201526060016102dd565b3480156105fb57600080fd5b506102ad61060a3660046141ce565b610ffc565b34801561061b57600080fd5b506102ad61062a36600461436a565b6110c9565b34801561063b57600080fd5b506106446110d3565b6040516102dd91906143c7565b34801561065d57600080fd5b506102ad611134565b34801561067257600080fd5b506102ad610681366004614152565b61121b565b34801561069257600080fd5b506102ad6106a13660046142d0565b61135d565b3480156106b257600080fd5b506002610517565b3480156106c657600080fd5b506104256106d5366004614152565b6001600160a01b031660009081526020819052604090205490565b3480156106fc57600080fd5b506102ad61070b3660046141ce565b6114b1565b34801561071c57600080fd5b506102ad61072b3660046143da565b611537565b34801561073c57600080fd5b50610745611a43565b6040516102dd919061444d565b34801561075e57600080fd5b5061042561076d366004614152565b60126020526000908152604090205481565b34801561078b57600080fd5b506102ad611ab8565b3480156107a057600080fd5b506104256107af366004614579565b611b12565b3480156107c057600080fd5b5061034b611dc6565b3480156107d557600080fd5b506103786107e4366004614152565b611dd5565b3480156107f557600080fd5b506102ad610804366004614152565b611e50565b34801561081557600080fd5b506103786108243660046141ce565b611ee7565b34801561083557600080fd5b506102ad61084436600461464e565b611f80565b34801561085557600080fd5b506103786108643660046141ce565b61239b565b34801561087557600080fd5b50610378610884366004614152565b6001600160a01b031660009081526005602052604090205460ff1690565b3480156108ae57600080fd5b506102ad6108bd366004614152565b6123a8565b3480156108ce57600080fd5b506102ad6108dd3660046146a7565b61243f565b3480156108ee57600080fd5b506103786108fd366004614763565b612570565b34801561090e57600080fd5b506102ad61091d366004614869565b6126aa565b34801561092e57600080fd5b5061042561093d3660046148d7565b6001600160a01b03918216600090815260016020908152604080832093909416825291909152205490565b6102ad6128bc565b34801561097c57600080fd5b506102c96128fc565b34801561099157600080fd5b50610425670de0b6b3a764000081565b3480156109ad57600080fd5b506102c96109bc36600461436a565b612991565b3480156109cd57600080fd5b506013546102c9906001600160a01b031681565b6060600880546109f090614905565b80601f0160208091040260200160405190810160405280929190818152602001828054610a1c90614905565b8015610a695780601f10610a3e57610100808354040283529160200191610a69565b820191906000526020600020905b815481529060010190602001808311610a4c57829003601f168201915b5050505050905090565b6000610a803384846129bb565b50600192915050565b600c5460405163160a792560e01b81523360048201526001600160a01b039091169063160a7925906024016080604051808303816000875af1158015610ad3573d6000803e3d6000fd5b505050506040513d601f19601f82011682018060405250810190610af7919061493a565b60200151610b205760405162461bcd60e51b8152600401610b17906149be565b60405180910390fd5b60026007541415610b435760405162461bcd60e51b8152600401610b17906149f3565b6002600755601354604051636b14d00560e11b81526001600160a01b0387811660048301523060248301819052604483018890526064830187905233608484015260a48301529091169063d629a00a9060c401600060405180830381600087803b158015610bb057600080fd5b505af1158015610bc4573d6000803e3d6000fd5b505050508115610bd757610bd785612adf565b601580546001810182556000919091527f55f448fdea98c4d29eb340757ef0a66cd03dbb9538908a6a81d96026b71ec4750180546001600160a01b0319166001600160a01b0387169081179091556040519081527fa31ffd41531537eb31bfd827a3f5372b5f62bf4dd8579e5354b280dc58490e709060200160405180910390a150506001600755505050565b60026007541415610c875760405162461bcd60e51b8152600401610b17906149f3565b6002600755604051631d746d8360e01b8152306004820152670de0b6b3a764000060248201819052336044830152906001600160a01b03831690631d746d8390606401600060405180830381600087803b158015610ce457600080fd5b505af1158015610cf8573d6000803e3d6000fd5b50503360009081526020819052604090205483925090501015610d5d5760405162461bcd60e51b815260206004820152601f60248201527f556e61626c6520746f206765742044542066726f6d2044697370656e736572006044820152606401610b17565b610d88610d6d6020850185614152565b6020850135610d7f6040870187614a2a565b86606001611537565b5050600160075550565b6000610d9f848484612be1565b6001600160a01b038416600090815260016020908152604080832033845290915290205482811015610e245760405162461bcd60e51b815260206004820152602860248201527f45524332303a207472616e7366657220616d6f756e74206578636565647320616044820152676c6c6f77616e636560c01b6064820152608401610b17565b610e3185338584036129bb565b60019150505b9392505050565b600c5460405163160a792560e01b81523360048201526001600160a01b039091169063160a7925906024016080604051808303816000875af1158015610e88573d6000803e3d6000fd5b505050506040513d601f19601f82011682018060405250810190610eac919061493a565b60200151610ecc5760405162461bcd60e51b8152600401610b17906149be565b610ed581612db1565b50565b600c5460405163160a792560e01b81523360048201526001600160a01b039091169063160a7925906024016080604051808303816000875af1158015610f22573d6000803e3d6000fd5b505050506040513d601f19601f82011682018060405250810190610f46919061493a565b60200151610f665760405162461bcd60e51b8152600401610b17906149be565b610ed581612e12565b60408051838152336020820152428183015243606082015290517f526e31449ea46e2aecf9b480c8d7dfa191348ef74ffdf75b445a6ab726daa6ff9181900360800190a1610fbc81612e72565b5050565b3360008181526001602090815260408083206001600160a01b03871684529091528120549091610a80918590610ff7908690614a60565b6129bb565b3360009081526005602052604090205460ff1661105b5760405162461bcd60e51b815260206004820152601960248201527f455243323054656d706c6174653a204e4f54204d494e544552000000000000006044820152606401610b17565b600a546110718261106b60025490565b9061320f565b11156110bf5760405162461bcd60e51b815260206004820152601f60248201527f44617461746f6b656e54656d706c6174653a20636170206578636565646564006044820152606401610b17565b610fbc828261321b565b610ed533826132fa565b60606015805480602002602001604051908101604052809291908181526020018280548015610a6957602002820191906000526020600020905b81546001600160a01b0316815260019091019060200180831161110d575050505050905090565b600c546040516331a9108f60e11b8152600160048201526001600160a01b0390911690636352211e90602401602060405180830381865afa15801561117d573d6000803e3d6000fd5b505050506040513d601f19601f820116820180604052508101906111a19190614a78565b6001600160a01b0316336001600160a01b0316146112015760405162461bcd60e51b815260206004820152601b60248201527f455243323054656d706c6174653a206e6f74204e46544f776e657200000000006044820152606401610b17565b611209613448565b600d80546001600160a01b0319169055565b33600090815260056020526040902054610100900460ff16806112ac5750600c5460405163160a792560e01b81523360048201526001600160a01b039091169063160a7925906024016080604051808303816000875af1158015611283573d6000803e3d6000fd5b505050506040513d601f19601f820116820180604052508101906112a7919061493a565b602001515b61130c5760405162461bcd60e51b815260206004820152602b60248201527f455243323054656d706c6174653a204e4f54205041594d454e54204d414e414760448201526a22a91037b91027aba722a960a91b6064820152608401610b17565b611315816134f7565b604080514281524360208201526001600160a01b0383169133917f4d7694d695c57cc54947177c8e8a0e61aae664e9223492a798c32fadfc6419cc910160405180910390a350565b600e546001600160a01b031633146113ca5760405162461bcd60e51b815260206004820152602a60248201527f455243323054656d706c6174653a206e6f74207075626c6973684d61726b65746044820152694665654164647265737360b01b6064820152608401610b17565b6001600160a01b0383166114315760405162461bcd60e51b815260206004820152602860248201527f496e76616c6964205f7075626c6973684d61726b657446656541646472657373604482015267206164647265737360c01b6064820152608401610b17565b600e80546001600160a01b038581166001600160a01b03199283168117909355600f80549186169190921681179091556010839055604080513381526020810193909352820152606081018290527f02ab4b3fc023109c2d0da394bda239166c833f63c42b71b67ed4b836dca0ddfe9060800160405180910390a1505050565b60006114bd833361093d565b90508181101561151b5760405162461bcd60e51b8152602060048201526024808201527f45524332303a206275726e20616d6f756e74206578636565647320616c6c6f77604482015263616e636560e01b6064820152608401610b17565b61152883338484036129bb565b61153283836132fa565b505050565b33600090815260208190526040812054670de0b6b3a764000091908211156115ad5760405162461bcd60e51b8152602060048201526024808201527f4e6f7420656e6f7567682064617461746f6b656e7320746f207374617274204f604482015263393232b960e11b6064820152608401610b17565b600e5460408051338152602081018590529081018790524260608201524360808201526001600160a01b03918216918816907fe1c4fa794edfa8f619b8257a077398950357b9c6398528f94480307352f9afcc9060a00160405180910390a360006010541180156116285750600f546001600160a01b031615155b801561163e5750600e546001600160a01b031615155b156117f657600f54601054611660916001600160a01b03169033903090613519565b60135460408051637d28354d60e01b815290516000926001600160a01b031691637d28354d9160048083019260209291908290030181865afa1580156116aa573d6000803e3d6000fd5b505050506040513d601f19601f820116820180604052508101906116ce9190614a95565b90508015611700576116fd670de0b6b3a76400006116f78360105461366690919063ffffffff16565b90613672565b91505b600e54601054611731916001600160a01b03169061171e908561367e565b600f546001600160a01b0316919061368a565b600f54600e546010546001600160a01b0392831692909116907f4049a448ac6f0284a98d2cb9199e73605944ea5bec901a037f88c84703de82b290611776908661367e565b60405190815260200160405180910390a381156117f457600b54600f546117aa916001600160a01b0391821691168461368a565b600f54600b546040518481526001600160a01b0392831692909116907f4049a448ac6f0284a98d2cb9199e73605944ea5bec901a037f88c84703de82b29060200160405180910390a35b505b60008360400135118015611823575060006118176040850160208601614152565b6001600160a01b031614155b8015611845575060006118396020850185614152565b6001600160a01b031614155b15611a295761186961185d6040850160208601614152565b33308660400135613519565b60135460408051637d28354d60e01b815290516000926001600160a01b031691637d28354d9160048083019260209291908290030181865afa1580156118b3573d6000803e3d6000fd5b505050506040513d601f19601f820116820180604052508101906118d79190614a95565b905080156118fc576118f9670de0b6b3a76400006116f7604087013584613666565b91505b61193a61190c6020860186614152565b61191a60408701358561367e565b61192a6040880160208901614152565b6001600160a01b0316919061368a565b61194a6040850160208601614152565b6001600160a01b03166119606020860186614152565b6001600160a01b03167f6d11837f46cc09b011cf4aae09fcade046c020aac088090ae4f77ff67b70797261199860408801358661367e565b60405190815260200160405180910390a38115611a2757600b546119d0906001600160a01b03168361192a6040880160208901614152565b6119e06040850160208601614152565b600b546040518481526001600160a01b0392831692909116907f6d11837f46cc09b011cf4aae09fcade046c020aac088090ae4f77ff67b7079729060200160405180910390a35b505b611a3284612e72565b611a3b826110c9565b505050505050565b60606014805480602002602001604051908101604052809291908181526020016000905b82821015611aaf576000848152602090819020604080518082019091526002850290910180546001600160a01b03168252600190810154828401529083529092019101611a67565b50505050905090565b600c546001600160a01b031633146112015760405162461bcd60e51b815260206004820152601f60248201527f455243323054656d706c6174653a204e4f542037323120436f6e7472616374006044820152606401610b17565b600c5460405163160a792560e01b81523360048201526000916001600160a01b03169063160a7925906024016080604051808303816000875af1158015611b5d573d6000803e3d6000fd5b505050506040513d601f19601f82011682018060405250810190611b81919061493a565b60200151611ba15760405162461bcd60e51b8152600401610b17906149be565b60026007541415611bc45760405162461bcd60e51b8152600401610b17906149f3565b60026007819055503083600381518110611be057611be0614aae565b6001600160a01b039283166020918202929092010152601354604051638244937560e01b8152911690638244937590611c2190879087908790600401614ac4565b6020604051808303816000875af1158015611c40573d6000803e3d6000fd5b505050506040513d601f19601f82011682018060405250810190611c649190614a95565b9050600082600481518110611c7b57611c7b614aae565b60200260200101511115611c9257611c9284612adf565b82600081518110611ca557611ca5614aae565b60200260200101516001600160a01b031683600181518110611cc957611cc9614aae565b60200260200101516001600160a01b03167fb3fac3ae95956dbac74e63ba8dac94081832395c8788e3049c900a7732f348058387604051611d1d9291909182526001600160a01b0316602082015260400190565b60405180910390a3604080518082019091526001600160a01b03948516815260208101828152601480546001808201835560009290925292517fce6d7b5282bd9a3661ae061feed1dbda4e52ab073b1f9285be6e155d9c38d4ec600290940293840180546001600160a01b0319169190981617909655517fce6d7b5282bd9a3661ae061feed1dbda4e52ab073b1f9285be6e155d9c38d4ed909101556007939093555090919050565b6060600980546109f090614905565b600c5460405163160a792560e01b81526001600160a01b038381166004830152600092169063160a7925906024016080604051808303816000875af1158015611e22573d6000803e3d6000fd5b505050506040513d601f19601f82011682018060405250810190611e46919061493a565b6020015192915050565b600c5460405163160a792560e01b81523360048201526001600160a01b039091169063160a7925906024016080604051808303816000875af1158015611e9a573d6000803e3d6000fd5b505050506040513d601f19601f82011682018060405250810190611ebe919061493a565b60200151611ede5760405162461bcd60e51b8152600401610b17906149be565b610ed581612adf565b3360009081526001602090815260408083206001600160a01b038616845290915281205482811015611f695760405162461bcd60e51b815260206004820152602560248201527f45524332303a2064656372656173656420616c6c6f77616e63652062656c6f77604482015264207a65726f60d81b6064820152608401610b17565b611f7633858584036129bb565b5060019392505050565b60026007541415611fa35760405162461bcd60e51b8152600401610b17906149f3565b6002600755600080611fb86020840184614152565b604051634c87087d60e01b8152602085013560048201526001600160a01b039190911690634c87087d9060240161018060405180830381865afa158015612003573d6000803e3d6000fd5b505050506040513d601f19601f820116820180604052508101906120279190614b2a565b5050505050505050935050925050306001600160a01b0316826001600160a01b0316146120a65760405162461bcd60e51b815260206004820152602760248201527f5468697320466978656452617465206973206e6f742070726f766964696e67206044820152661d1a1a5cc8111560ca1b6064820152608401610b17565b6000806120b66020860186614152565b60405163c99733a760e01b815260208701356004820152670de0b6b3a764000060248201526001600160a01b03919091169063c99733a790604401608060405180830381865afa15801561210e573d6000803e3d6000fd5b505050506040513d601f19601f820116820180604052508101906121329190614be7565b505091509150846040013582111561219c5760405162461bcd60e51b815260206004820152602760248201527f46697865645261746545786368616e67653a20546f6f206d616e79206261736560448201526620746f6b656e7360c81b6064820152608401610b17565b6000670de0b6b3a76400006121b5606088013584614c1d565b6121bf9190614c3c565b90506121cb8184614a60565b92506121d984333086613519565b6121fa6121e96020880188614152565b6001600160a01b03861690856136ed565b6122076020870187614152565b60405163412dae6b60e11b815260208801356004820152670de0b6b3a76400006024820152604481018590526001600160a01b03919091169063825b5cd690606401600060405180830381600087803b15801561226357600080fd5b505af1158015612277573d6000803e3d6000fd5b505030600090815260208190526040902054670de0b6b3a76400009250905010156122e45760405162461bcd60e51b815260206004820152601f60248201527f556e61626c6520746f206275792044542066726f6d20466978656452617465006044820152606401610b17565b6122f73033670de0b6b3a7640000612be1565b6123226123076020890189614152565b602089013561231960408b018b614a2a565b8a606001611537565b801561234c5761234c61233b60a0880160808901614152565b6001600160a01b038616908361368a565b60408051338152602081018590529081018290527fe89458a7527f4bf466ab18794ab8b1ca208b478483a1a87bcf0d976d421b4aff9060600160405180910390a1505060016007555050505050565b6000610a80338484612be1565b600c5460405163160a792560e01b81523360048201526001600160a01b039091169063160a7925906024016080604051808303816000875af11580156123f2573d6000803e3d6000fd5b505050506040513d601f19601f82011682018060405250810190612416919061493a565b602001516124365760405162461bcd60e51b8152600401610b17906149be565b610ed58161379f565b600c5460405163160a792560e01b81523360048201526001600160a01b039091169063160a7925906024016080604051808303816000875af1158015612489573d6000803e3d6000fd5b505050506040513d601f19601f820116820180604052508101906124ad919061493a565b602001516124cd5760405162461bcd60e51b8152600401610b17906149be565b6040516bffffffffffffffffffffffff193060601b16602082015260009060340160408051601f19818403018152908290528051602090910120600c546301caf8fd60e31b83529092506001600160a01b031690630e57c7e89061253990849087908790600401614c87565b600060405180830381600087803b15801561255357600080fd5b505af1158015612567573d6000803e3d6000fd5b50505050505050565b600b54600090600160a01b900460ff16156125e75760405162461bcd60e51b815260206004820152603160248201527f455243323054656d706c6174653a20746f6b656e20696e7374616e636520616c6044820152701c9958591e481a5b9a5d1a585b1a5e9959607a1b6064820152608401610b17565b61269b6125f48b8d614d01565b8a8a8080602002602001604051908101604052809392919081815260200183836020028082843760009201919091525050604080516020808e0282810182019093528d82529093508d92508c91829185019084908082843760009201919091525050604080516020808d0282810182019093528c82529093508c92508b91829185019084908082843760009201919091525061269692508991508a9050614d88565b6138ad565b9b9a5050505050505050505050565b438410156126ed5760405162461bcd60e51b815260206004820152601060248201526f115490cc8c11150e881156141254915160821b6044820152606401610b17565b6011546001600160a01b038816600090815260126020526040812080549192917f6e71edae12b1b97f4d1f60370fef10105fa2faae0126114a169c64845d6126c9918b918b918b91908761274083614e03565b909155506040805160208101969096526001600160a01b0394851690860152929091166060840152608083015260a082015260c0810187905260e001604051602081830303815290604052805190602001206040516020016127b992919061190160f01b81526002810192909252602282015260420190565b60408051601f198184030181528282528051602091820120600080855291840180845281905260ff88169284019290925260608301869052608083018590529092509060019060a0016020604051602081039080840390855afa158015612824573d6000803e3d6000fd5b5050604051601f1901519150506001600160a01b0381161580159061285a5750886001600160a01b0316816001600160a01b0316145b6128a65760405162461bcd60e51b815260206004820152601a60248201527f455243323044543a20494e56414c49445f5349474e41545552450000000000006044820152606401610b17565b6128b18989896129bb565b505050505050505050565b6128c46128fc565b6001600160a01b03166108fc479081150290604051600060405180830381858888f19350505050158015610ed5573d6000803e3d6000fd5b600d546000906001600160a01b031661298157600c546040516331a9108f60e11b8152600160048201526001600160a01b0390911690636352211e90602401602060405180830381865afa158015612958573d6000803e3d6000fd5b505050506040513d601f19601f8201168201806040525081019061297c9190614a78565b905090565b50600d546001600160a01b031690565b600681815481106129a157600080fd5b6000918252602090912001546001600160a01b0316905081565b6001600160a01b038316612a1d5760405162461bcd60e51b8152602060048201526024808201527f45524332303a20617070726f76652066726f6d20746865207a65726f206164646044820152637265737360e01b6064820152608401610b17565b6001600160a01b038216612a7e5760405162461bcd60e51b815260206004820152602260248201527f45524332303a20617070726f766520746f20746865207a65726f206164647265604482015261737360f01b6064820152608401610b17565b6001600160a01b0383811660008181526001602090815260408083209487168084529482529182902085905590518481527f8c5be1e5ebec7d5bd14f71427d1e84f3dd0314c0f7b2291e5b200ac8c7c3b925910160405180910390a3505050565b6001600160a01b0381166000908152600560205260409020805460ff1615612b495760405162461bcd60e51b815260206004820152601d60248201527f4552433230526f6c65733a2020414c52454144592041204d494e5445520000006044820152606401610b17565b8054600160ff19909116811782556006805491820181556000527ff652222313e28459528d920b65115c16c04f3efc82aaedc97be59f3f377c0d3f0180546001600160a01b0319166001600160a01b038416908117909155604080514281524360208201523392917f4f7e100eb1ee13e903798bd0d6aa854152e07eb05544f392b9409c12935c809591015b60405180910390a35050565b6001600160a01b038316612c455760405162461bcd60e51b815260206004820152602560248201527f45524332303a207472616e736665722066726f6d20746865207a65726f206164604482015264647265737360d81b6064820152608401610b17565b6001600160a01b038216612ca75760405162461bcd60e51b815260206004820152602360248201527f45524332303a207472616e7366657220746f20746865207a65726f206164647260448201526265737360e81b6064820152608401610b17565b6001600160a01b03831660009081526020819052604090205481811015612d1f5760405162461bcd60e51b815260206004820152602660248201527f45524332303a207472616e7366657220616d6f756e7420657863656564732062604482015265616c616e636560d01b6064820152608401610b17565b6001600160a01b03808516600090815260208190526040808220858503905591851681529081208054849290612d56908490614a60565b92505081905550826001600160a01b0316846001600160a01b03167fddf252ad1be2c89b69c2b068fc378daa952ba7f163c4a11628f55a4df523b3ef84604051612da291815260200190565b60405180910390a35b50505050565b6001600160a01b03811660008181526005602052604090819020805461ff00191681559051909133917faee911eec8b2df8f3ae0464841541b1e5f339519bd5cf51889fe8b07fecff65890612bd59042904390918252602082015260400190565b6001600160a01b03811660008181526005602052604090819020805460ff191681559051909133917fefa2735987005aaa89c050c0ff8cc9ae7d9079d19382081c429130f98c52d48090612bd59042904390918252602082015260400190565b60408051808201909152601c81527f19457468657265756d205369676e6564204d6573736167653a0a3332000000006020820152600081612eb660e0850185614e1e565b612ec36020870187614152565b612ed36040880160208901614152565b87604001358860c00135604051602001612ef296959493929190614e64565b60405160208183030381529060405280519060200120604051602001612f19929190614ea2565b60408051601f19818403018152919052805160209091012090506000600182612f486080870160608801614ec4565b6040805160008152602081018083529390935260ff90911690820152608080870135606083015260a08088013591830191909152016020604051602081039080840390855afa158015612f9f573d6000803e3d6000fd5b5050604051601f1901519150612fba90506020850185614152565b6001600160a01b0316816001600160a01b0316146130115760405162461bcd60e51b8152602060048201526014602482015273496e76616c69642070726f76696465722066656560601b6044820152606401610b17565b6130216040850160208601614152565b6001600160a01b03166130376020860186614152565b6001600160a01b03167ff8ed11cdaaf10eca2b6c941fb802cb8682afe86cac1eb93f70d0780fa062c544604087013561307360e0890189614e1e565b61308360808b0160608c01614ec4565b8a608001358b60a001358c60c001356040516130a59796959493929190614edf565b60405180910390a3600084604001351180156130da575060006130ce6040860160208701614152565b6001600160a01b031614155b80156130fc575060006130f06020860186614152565b6001600160a01b031614155b15612dab5760135460408051636c45e88160e01b815290516000926001600160a01b031691636c45e8819160048083019260209291908290030181865afa15801561314b573d6000803e3d6000fd5b505050506040513d601f19601f8201168201806040525081019061316f9190614a95565b90506000811561319657613193670de0b6b3a76400006116f7604089013585613666565b90505b60006131a660408801358361367e565b90506131c76131bb6040890160208a01614152565b33308a60400135613519565b6131e86131d76020890189614152565b8261192a60408b0160208c01614152565b811561256757600b54612567906001600160a01b03168361192a60408b0160208c01614152565b6000610e378284614a60565b6001600160a01b0382166132715760405162461bcd60e51b815260206004820152601f60248201527f45524332303a206d696e7420746f20746865207a65726f2061646472657373006044820152606401610b17565b80600260008282546132839190614a60565b90915550506001600160a01b038216600090815260208190526040812080548392906132b0908490614a60565b90915550506040518181526001600160a01b038316906000907fddf252ad1be2c89b69c2b068fc378daa952ba7f163c4a11628f55a4df523b3ef9060200160405180910390a35050565b6001600160a01b03821661335a5760405162461bcd60e51b815260206004820152602160248201527f45524332303a206275726e2066726f6d20746865207a65726f206164647265736044820152607360f81b6064820152608401610b17565b6001600160a01b038216600090815260208190526040902054818110156133ce5760405162461bcd60e51b815260206004820152602260248201527f45524332303a206275726e20616d6f756e7420657863656564732062616c616e604482015261636560f01b6064820152608401610b17565b6001600160a01b03831660009081526020819052604081208383039055600280548492906133fd908490614f22565b90915550506040518281526000906001600160a01b038516907fddf252ad1be2c89b69c2b068fc378daa952ba7f163c4a11628f55a4df523b3ef9060200160405180910390a3505050565b60005b6006548110156134ae576000600560006006848154811061346e5761346e614aae565b60009182526020808320909101546001600160a01b031683528201929092526040019020805461ffff1916905550806134a681614e03565b91505061344b565b506134bb60066000614086565b6040805142815243602082015233917f712bc71db81927a76b8bf1ea346247bb0ad58f18e4e5c1bd4aa0ec6573e02a2b910160405180910390a2565b600d80546001600160a01b0319166001600160a01b0392909216919091179055565b6040516370a0823160e01b81526001600160a01b038381166004830152600091908616906370a0823190602401602060405180830381865afa158015613563573d6000803e3d6000fd5b505050506040513d601f19601f820116820180604052508101906135879190614a95565b905061359e6001600160a01b038616858585613e04565b6135a8818361320f565b6040516370a0823160e01b81526001600160a01b0385811660048301528716906370a0823190602401602060405180830381865afa1580156135ee573d6000803e3d6000fd5b505050506040513d601f19601f820116820180604052508101906136129190614a95565b1461365f5760405162461bcd60e51b815260206004820152601d60248201527f5472616e7366657220616d6f756e7420776173206e6f742065786163740000006044820152606401610b17565b5050505050565b6000610e378284614c1d565b6000610e378284614c3c565b6000610e378284614f22565b6040516001600160a01b03831660248201526044810182905261153290849063a9059cbb60e01b906064015b60408051601f198184030181529190526020810180516001600160e01b03166001600160e01b031990931692909217909152613e3c565b604051636eb1769f60e11b81523060048201526001600160a01b038381166024830152600091839186169063dd62ed3e90604401602060405180830381865afa15801561373e573d6000803e3d6000fd5b505050506040513d601f19601f820116820180604052508101906137629190614a95565b61376c9190614a60565b6040516001600160a01b038516602482015260448101829052909150612dab90859063095ea7b360e01b906064016136b6565b6001600160a01b03811660009081526005602052604090208054610100900460ff16156138195760405162461bcd60e51b815260206004820152602260248201527f4552433230526f6c65733a2020414c5245414459204120464545204d414e414760448201526122a960f11b6064820152608401610b17565b805461ff001916610100178155600680546001810182556000919091527ff652222313e28459528d920b65115c16c04f3efc82aaedc97be59f3f377c0d3f0180546001600160a01b0384166001600160a01b03199091168117909155604080514281524360208201523392917fb17da2e9910b4ba5754e8872385ba315a238bafb5ae221fc85093c33432c40a79101612bd5565b600080846000815181106138c3576138c3614aae565b602002602001015190506000856001815181106138e2576138e2614aae565b6020026020010151905060006001600160a01b0316826001600160a01b031614156139645760405162461bcd60e51b815260206004820152602c60248201527f455243323054656d706c6174653a20496e76616c6964206d696e7465722c202060448201526b7a65726f206164647265737360a01b6064820152608401610b17565b6001600160a01b0381166139e05760405162461bcd60e51b815260206004820152603c60248201527f455243323054656d706c6174653a20496e76616c696420636f6d6d756e69747960448201527f2066656520636f6c6c6563746f722c207a65726f2061646472657373000000006064820152608401610b17565b846000815181106139f3576139f3614aae565b602002602001015160001415613a575760405162461bcd60e51b8152602060048201526024808201527f44617461746f6b656e54656d706c6174653a20496e76616c6964206361702076604482015263616c756560e01b6064820152608401610b17565b84600081518110613a6a57613a6a614aae565b6020026020010151600a8190555087600081518110613a8b57613a8b614aae565b602002602001015160089080519060200190613aa89291906140a4565b5087600181518110613abc57613abc614aae565b602002602001015160099080519060200190613ad99291906140a4565b50600c80546001600160a01b0319166001600160a01b038416179055855186906002908110613b0a57613b0a614aae565b6020908102919091010151601380546001600160a01b039283166001600160a01b0319909116179055600b80546001600160a81b03191691831691909117600160a01b1790558651613b74908890600090613b6757613b67614aae565b6020026020010151612adf565b60006001600160a01b031687600181518110613b9257613b92614aae565b60200260200101516001600160a01b031614613c3c57613bcb87600181518110613bbe57613bbe614aae565b60200260200101516134f7565b86600181518110613bde57613bde614aae565b60200260200101516001600160a01b0316336001600160a01b03167f4d7694d695c57cc54947177c8e8a0e61aae664e9223492a798c32fadfc6419cc4243604051613c33929190918252602082015260400190565b60405180910390a35b86600281518110613c4f57613c4f614aae565b6020026020010151600e60006101000a8154816001600160a01b0302191690836001600160a01b0316021790555086600381518110613c9057613c90614aae565b6020026020010151600f60006101000a8154816001600160a01b0302191690836001600160a01b0316021790555084600181518110613cd157613cd1614aae565b6020908102919091018101516010819055600e54600f54604080513381526001600160a01b039384169581019590955291169083015260608201527f02ab4b3fc023109c2d0da394bda239166c833f63c42b71b67ed4b836dca0ddfe9060800160405180910390a160405146907f8b73c3c69bb8fe3d512ecc4cf759cc79239f7b179b0ffacaa9a75d522b39400f90613d6c90600890614f39565b60408051918290038220828201825260018352603160f81b6020938401528151928301939093528101919091527fc89efdaa54c0f20c7adf612882df0950f5a951637e0307cdcb4c672f298b8bc66060820152608081018290523060a082015260c00160408051808303601f1901815291905280516020909101206011555050600b54600160a01b900460ff16979650505050505050565b6040516001600160a01b0380851660248301528316604482015260648101829052612dab9085906323b872dd60e01b906084016136b6565b6000613e91826040518060400160405280602081526020017f5361666545524332303a206c6f772d6c6576656c2063616c6c206661696c6564815250856001600160a01b0316613f0e9092919063ffffffff16565b8051909150156115325780806020019051810190613eaf9190614fd5565b6115325760405162461bcd60e51b815260206004820152602a60248201527f5361666545524332303a204552433230206f7065726174696f6e20646964206e6044820152691bdd081cdd58d8d9595960b21b6064820152608401610b17565b6060613f1d8484600085613f25565b949350505050565b606082471015613f865760405162461bcd60e51b815260206004820152602660248201527f416464726573733a20696e73756666696369656e742062616c616e636520666f6044820152651c8818d85b1b60d21b6064820152608401610b17565b843b613fd45760405162461bcd60e51b815260206004820152601d60248201527f416464726573733a2063616c6c20746f206e6f6e2d636f6e74726163740000006044820152606401610b17565b600080866001600160a01b03168587604051613ff09190614ff2565b60006040518083038185875af1925050503d806000811461402d576040519150601f19603f3d011682016040523d82523d6000602084013e614032565b606091505b509150915061404282828661404d565b979650505050505050565b6060831561405c575081610e37565b82511561406c5782518084602001fd5b8160405162461bcd60e51b8152600401610b17919061419b565b5080546000825590600052602060002090810190610ed59190614128565b8280546140b090614905565b90600052602060002090601f0160209004810192826140d25760008555614118565b82601f106140eb57805160ff1916838001178555614118565b82800160010185558215614118579182015b828111156141185782518255916020019190600101906140fd565b50614124929150614128565b5090565b5b808211156141245760008155600101614129565b6001600160a01b0381168114610ed557600080fd5b60006020828403121561416457600080fd5b8135610e378161413d565b60005b8381101561418a578181015183820152602001614172565b83811115612dab5750506000910152565b60208152600082518060208401526141ba81604085016020870161416f565b601f01601f19169190910160400192915050565b600080604083850312156141e157600080fd5b82356141ec8161413d565b946020939093013593505050565b8015158114610ed557600080fd5b600080600080600060a0868803121561422057600080fd5b853561422b8161413d565b945060208601359350604086013592506060860135614249816141fa565b915060808601356142598161413d565b809150509295509295909350565b600060c0828403121561427957600080fd5b50919050565b6000806040838503121561429257600080fd5b82356001600160401b038111156142a857600080fd5b6142b485828601614267565b92505060208301356142c58161413d565b809150509250929050565b6000806000606084860312156142e557600080fd5b83356142f08161413d565b925060208401356143008161413d565b929592945050506040919091013590565b6000610100828403121561427957600080fd5b6000806040838503121561433757600080fd5b8235915060208301356001600160401b0381111561435457600080fd5b61436085828601614311565b9150509250929050565b60006020828403121561437c57600080fd5b5035919050565b600081518084526020808501945080840160005b838110156143bc5781516001600160a01b031687529582019590820190600101614397565b509495945050505050565b602081526000610e376020830184614383565b60008060008084860360c08112156143f157600080fd5b85356143fc8161413d565b94506020860135935060408601356001600160401b0381111561441e57600080fd5b61442a88828901614311565b9350506060605f198201121561443f57600080fd5b509295919450926060019150565b602080825282518282018190526000919060409081850190868401855b8281101561449857815180516001600160a01b0316855286015186850152928401929085019060010161446a565b5091979650505050505050565b634e487b7160e01b600052604160045260246000fd5b604051601f8201601f191681016001600160401b03811182821017156144e3576144e36144a5565b604052919050565b60006001600160401b03821115614504576145046144a5565b5060051b60200190565b600082601f83011261451f57600080fd5b8135602061453461452f836144eb565b6144bb565b82815260059290921b8401810191818101908684111561455357600080fd5b8286015b8481101561456e5780358352918301918301614557565b509695505050505050565b60008060006060848603121561458e57600080fd5b83356145998161413d565b92506020848101356001600160401b03808211156145b657600080fd5b818701915087601f8301126145ca57600080fd5b81356145d861452f826144eb565b81815260059190911b8301840190848101908a8311156145f757600080fd5b938501935b8285101561461e57843561460f8161413d565b825293850193908501906145fc565b96505050604087013592508083111561463657600080fd5b50506146448682870161450e565b9150509250925092565b60008082840360c081121561466257600080fd5b83356001600160401b0381111561467857600080fd5b61468486828701614267565b93505060a0601f198201121561469957600080fd5b506020830190509250929050565b600080602083850312156146ba57600080fd5b82356001600160401b03808211156146d157600080fd5b818501915085601f8301126146e557600080fd5b8135818111156146f457600080fd5b86602082850101111561470657600080fd5b60209290920196919550909350505050565b60008083601f84011261472a57600080fd5b5081356001600160401b0381111561474157600080fd5b6020830191508360208260051b850101111561475c57600080fd5b9250929050565b60008060008060008060008060008060a08b8d03121561478257600080fd5b8a356001600160401b038082111561479957600080fd5b6147a58e838f01614718565b909c509a5060208d01359150808211156147be57600080fd5b6147ca8e838f01614718565b909a50985060408d01359150808211156147e357600080fd5b6147ef8e838f01614718565b909850965060608d013591508082111561480857600080fd5b6148148e838f01614718565b909650945060808d013591508082111561482d57600080fd5b5061483a8d828e01614718565b915080935050809150509295989b9194979a5092959850565b803560ff8116811461486457600080fd5b919050565b600080600080600080600060e0888a03121561488457600080fd5b873561488f8161413d565b9650602088013561489f8161413d565b955060408801359450606088013593506148bb60808901614853565b925060a0880135915060c0880135905092959891949750929550565b600080604083850312156148ea57600080fd5b82356148f58161413d565b915060208301356142c58161413d565b600181811c9082168061491957607f821691505b6020821081141561427957634e487b7160e01b600052602260045260246000fd5b60006080828403121561494c57600080fd5b604051608081018181106001600160401b038211171561496e5761496e6144a5565b604052825161497c816141fa565b8152602083015161498c816141fa565b6020820152604083015161499f816141fa565b604082015260608301516149b2816141fa565b60608201529392505050565b6020808252818101527f455243323054656d706c6174653a204e4f54204445504c4f59455220524f4c45604082015260600190565b6020808252601f908201527f5265656e7472616e637947756172643a207265656e7472616e742063616c6c00604082015260600190565b6000823560fe19833603018112614a4057600080fd5b9190910192915050565b634e487b7160e01b600052601160045260246000fd5b60008219821115614a7357614a73614a4a565b500190565b600060208284031215614a8a57600080fd5b8151610e378161413d565b600060208284031215614aa757600080fd5b5051919050565b634e487b7160e01b600052603260045260246000fd5b6001600160a01b038416815260606020808301829052600091614ae990840186614383565b838103604085015284518082528286019183019060005b81811015614b1c57835183529284019291840191600101614b00565b509098975050505050505050565b6000806000806000806000806000806000806101808d8f031215614b4d57600080fd5b8c51614b588161413d565b60208e0151909c50614b698161413d565b60408e015160608f0151919c509a50614b818161413d565b8099505060808d0151975060a08d0151965060c08d0151614ba1816141fa565b8096505060e08d015194506101008d015193506101208d015192506101408d015191506101608d0151614bd3816141fa565b809150509295989b509295989b509295989b565b60008060008060808587031215614bfd57600080fd5b505082516020840151604085015160609095015191969095509092509050565b6000816000190483118215151615614c3757614c37614a4a565b500290565b600082614c5957634e487b7160e01b600052601260045260246000fd5b500490565b81835281816020850137506000828201602090810191909152601f909101601f19169091010190565b838152604060208201526000614ca1604083018486614c5e565b95945050505050565b60006001600160401b03831115614cc357614cc36144a5565b614cd6601f8401601f19166020016144bb565b9050828152838383011115614cea57600080fd5b828260208301376000602084830101529392505050565b6000614d0f61452f846144eb565b80848252602080830192508560051b850136811115614d2d57600080fd5b855b81811015614d7c5780356001600160401b03811115614d4e5760008081fd5b870136601f820112614d605760008081fd5b614d6e368235868401614caa565b865250938201938201614d2f565b50919695505050505050565b6000614d9661452f846144eb565b80848252602080830192508560051b850136811115614db457600080fd5b855b81811015614d7c5780356001600160401b03811115614dd55760008081fd5b870136601f820112614de75760008081fd5b614df5368235868401614caa565b865250938201938201614db6565b6000600019821415614e1757614e17614a4a565b5060010190565b6000808335601e19843603018112614e3557600080fd5b8301803591506001600160401b03821115614e4f57600080fd5b60200191503681900382131561475c57600080fd5b858782376bffffffffffffffffffffffff19606095861b8116969091019586529290931b909116601484015260288301526048820152606801919050565b60008351614eb481846020880161416f565b9190910191825250602001919050565b600060208284031215614ed657600080fd5b610e3782614853565b87815260c060208201526000614ef960c08301888a614c5e565b905060ff861660408301528460608301528360808301528260a083015298975050505050505050565b600082821015614f3457614f34614a4a565b500390565b600080835481600182811c915080831680614f5557607f831692505b6020808410821415614f7557634e487b7160e01b86526022600452602486fd5b818015614f895760018114614f9a57614fc7565b60ff19861689528489019650614fc7565b60008a81526020902060005b86811015614fbf5781548b820152908501908301614fa6565b505084890196505b509498975050505050505050565b600060208284031215614fe757600080fd5b8151610e37816141fa565b60008251614a4081846020870161416f56fea26469706673582212209e2e10550bbd3329ea2060f943e7536f0b4301c8c6498b82f7c2c8195373047a64736f6c634300080a0033",
  "linkReferences": {},
  "deployedLinkReferences": {}
}