{
  "_format": "hh-sol-artifact-1",
  "contractName": "ERC20TemplateEnterprise",
  "sourceName": "contracts/templates/ERC20TemplateEnterprise.sol",
  "abi": [
    {
      "anonymous": false,
      "inputs": [
        {
          "indexed": true,
          "internalType": "address",
          "name": "user",
          "type": "address"
        },
        {
          "indexed": true,
          "internalType": "address",
          "name": "signer",
          "type": "address"
        },
        {
          "indexed": false,
          "internalType": "uint256",
          "name": "timestamp",
          "type": "uint256"
        },
        {
          "indexed": false,
          "internalType": "uint256",
          "name": "blockNumber",
          "type": "uint256"
        }
      ],
      "name": "AddedFeeManager",
      "type": "event"
    },
    {
      "anonymous": false,
      "inputs": [
        {
          "indexed": true,
          "internalType": "address",
          "name": "user",
          "type": "address"
        },
        {
          "indexed": true,
          "internalType": "address",
          "name": "signer",
          "type": "address"
        },
        {
          "indexed": false,
          "internalType": "uint256",
          "name": "timestamp",
          "type": "uint256"
        },
        {
          "indexed": false,
          "internalType": "uint256",
          "name": "blockNumber",
          "type": "uint256"
        }
      ],
      "name": "AddedMinter",
      "type": "event"
    },
    {
      "anonymous": false,
      "inputs": [
        {
          "indexed": true,
          "internalType": "address",
          "name": "owner",
          "type": "address"
        },
        {
          "indexed": true,
          "internalType": "address",
          "name": "spender",
          "type": "address"
        },
        {
          "indexed": false,
          "internalType": "uint256",
          "name": "value",
          "type": "uint256"
        }
      ],
      "name": "Approval",
      "type": "event"
    },
    {
      "anonymous": false,
      "inputs": [
        {
          "indexed": true,
          "internalType": "address",
          "name": "signer",
          "type": "address"
        },
        {
          "indexed": false,
          "internalType": "uint256",
          "name": "timestamp",
          "type": "uint256"
        },
        {
          "indexed": false,
          "internalType": "uint256",
          "name": "blockNumber",
          "type": "uint256"
        }
      ],
      "name": "CleanedPermissions",
      "type": "event"
    },
    {
      "anonymous": false,
      "inputs": [
        {
          "indexed": false,
          "internalType": "address",
          "name": "currentMinter",
          "type": "address"
        },
        {
          "indexed": false,
          "internalType": "address",
          "name": "newMinter",
          "type": "address"
        }
      ],
      "name": "MinterApproved",
      "type": "event"
    },
    {
      "anonymous": false,
      "inputs": [
        {
          "indexed": false,
          "internalType": "address",
          "name": "currentMinter",
          "type": "address"
        },
        {
          "indexed": false,
          "internalType": "address",
          "name": "newMinter",
          "type": "address"
        }
      ],
      "name": "MinterProposed",
      "type": "event"
    },
    {
      "anonymous": false,
      "inputs": [
        {
          "indexed": false,
          "internalType": "bytes32",
          "name": "exchangeId",
          "type": "bytes32"
        },
        {
          "indexed": false,
          "internalType": "address",
          "name": "owner",
          "type": "address"
        }
      ],
      "name": "NewFixedRate",
      "type": "event"
    },
    {
      "anonymous": false,
      "inputs": [
        {
          "indexed": false,
          "internalType": "address",
          "name": "poolAddress",
          "type": "address"
        },
        {
          "indexed": false,
          "internalType": "address",
          "name": "ssContract",
          "type": "address"
        },
        {
          "indexed": false,
          "internalType": "address",
          "name": "basetokenAddress",
          "type": "address"
        }
      ],
      "name": "NewPool",
      "type": "event"
    },
    {
      "anonymous": false,
      "inputs": [
        {
          "indexed": true,
          "internalType": "address",
          "name": "consumer",
          "type": "address"
        },
        {
          "indexed": false,
          "internalType": "address",
          "name": "payer",
          "type": "address"
        },
        {
          "indexed": false,
          "internalType": "uint256",
          "name": "amount",
          "type": "uint256"
        },
        {
          "indexed": false,
          "internalType": "uint256",
          "name": "serviceId",
          "type": "uint256"
        },
        {
          "indexed": false,
          "internalType": "uint256",
          "name": "timestamp",
          "type": "uint256"
        },
        {
          "indexed": true,
          "internalType": "address",
          "name": "publishMarketAddress",
          "type": "address"
        },
        {
          "indexed": true,
          "internalType": "address",
          "name": "consumeFeeMarketAddress",
          "type": "address"
        },
        {
          "indexed": false,
          "internalType": "uint256",
          "name": "blockNumber",
          "type": "uint256"
        }
      ],
      "name": "OrderStarted",
      "type": "event"
    },
    {
      "anonymous": false,
      "inputs": [
        {
          "indexed": true,
          "internalType": "address",
          "name": "user",
          "type": "address"
        },
        {
          "indexed": true,
          "internalType": "address",
          "name": "signer",
          "type": "address"
        },
        {
          "indexed": false,
          "internalType": "uint256",
          "name": "timestamp",
          "type": "uint256"
        },
        {
          "indexed": false,
          "internalType": "uint256",
          "name": "blockNumber",
          "type": "uint256"
        }
      ],
      "name": "RemovedFeeManager",
      "type": "event"
    },
    {
      "anonymous": false,
      "inputs": [
        {
          "indexed": true,
          "internalType": "address",
          "name": "user",
          "type": "address"
        },
        {
          "indexed": true,
          "internalType": "address",
          "name": "signer",
          "type": "address"
        },
        {
          "indexed": false,
          "internalType": "uint256",
          "name": "timestamp",
          "type": "uint256"
        },
        {
          "indexed": false,
          "internalType": "uint256",
          "name": "blockNumber",
          "type": "uint256"
        }
      ],
      "name": "RemovedMinter",
      "type": "event"
    },
    {
      "anonymous": false,
      "inputs": [
        {
          "indexed": true,
          "internalType": "address",
          "name": "from",
          "type": "address"
        },
        {
          "indexed": true,
          "internalType": "address",
          "name": "to",
          "type": "address"
        },
        {
          "indexed": false,
          "internalType": "uint256",
          "name": "value",
          "type": "uint256"
        }
      ],
      "name": "Transfer",
      "type": "event"
    },
    {
      "stateMutability": "payable",
      "type": "fallback"
    },
    {
      "inputs": [],
      "name": "BASE",
      "outputs": [
        {
          "internalType": "uint256",
          "name": "",
          "type": "uint256"
        }
      ],
      "stateMutability": "view",
      "type": "function"
    },
    {
      "inputs": [],
      "name": "BASE_COMMUNITY_FEE_PERCENTAGE",
      "outputs": [
        {
          "internalType": "uint256",
          "name": "",
          "type": "uint256"
        }
      ],
      "stateMutability": "view",
      "type": "function"
    },
    {
      "inputs": [],
      "name": "DOMAIN_SEPARATOR",
      "outputs": [
        {
          "internalType": "bytes32",
          "name": "",
          "type": "bytes32"
        }
      ],
      "stateMutability": "view",
      "type": "function"
    },
    {
      "inputs": [],
      "name": "PERMIT_TYPEHASH",
      "outputs": [
        {
          "internalType": "bytes32",
          "name": "",
          "type": "bytes32"
        }
      ],
      "stateMutability": "view",
      "type": "function"
    },
    {
      "inputs": [
        {
          "internalType": "address",
          "name": "_feeManager",
          "type": "address"
        }
      ],
      "name": "addFeeManager",
      "outputs": [],
      "stateMutability": "nonpayable",
      "type": "function"
    },
    {
      "inputs": [
        {
          "internalType": "address",
          "name": "_minter",
          "type": "address"
        }
      ],
      "name": "addMinter",
      "outputs": [],
      "stateMutability": "nonpayable",
      "type": "function"
    },
    {
      "inputs": [
        {
          "internalType": "address",
          "name": "owner",
          "type": "address"
        },
        {
          "internalType": "address",
          "name": "spender",
          "type": "address"
        }
      ],
      "name": "allowance",
      "outputs": [
        {
          "internalType": "uint256",
          "name": "",
          "type": "uint256"
        }
      ],
      "stateMutability": "view",
      "type": "function"
    },
    {
      "inputs": [
        {
          "internalType": "address",
          "name": "spender",
          "type": "address"
        },
        {
          "internalType": "uint256",
          "name": "amount",
          "type": "uint256"
        }
      ],
      "name": "approve",
      "outputs": [
        {
          "internalType": "bool",
          "name": "",
          "type": "bool"
        }
      ],
      "stateMutability": "nonpayable",
      "type": "function"
    },
    {
      "inputs": [
        {
          "internalType": "uint256",
          "name": "",
          "type": "uint256"
        }
      ],
      "name": "authERC20",
      "outputs": [
        {
          "internalType": "address",
          "name": "",
          "type": "address"
        }
      ],
      "stateMutability": "view",
      "type": "function"
    },
    {
      "inputs": [
        {
          "internalType": "address",
          "name": "account",
          "type": "address"
        }
      ],
      "name": "balanceOf",
      "outputs": [
        {
          "internalType": "uint256",
          "name": "",
          "type": "uint256"
        }
      ],
      "stateMutability": "view",
      "type": "function"
    },
    {
      "inputs": [
        {
          "internalType": "uint256",
          "name": "amount",
          "type": "uint256"
        }
      ],
      "name": "burn",
      "outputs": [],
      "stateMutability": "nonpayable",
      "type": "function"
    },
    {
      "inputs": [
        {
          "internalType": "address",
          "name": "account",
          "type": "address"
        },
        {
          "internalType": "uint256",
          "name": "amount",
          "type": "uint256"
        }
      ],
      "name": "burnFrom",
      "outputs": [],
      "stateMutability": "nonpayable",
      "type": "function"
    },
    {
      "inputs": [
        {
          "components": [
            {
              "internalType": "address",
              "name": "consumer",
              "type": "address"
            },
            {
              "internalType": "uint256",
              "name": "amount",
              "type": "uint256"
            },
            {
              "internalType": "uint256",
              "name": "serviceId",
              "type": "uint256"
            },
            {
              "internalType": "address",
              "name": "consumeFeeAddress",
              "type": "address"
            },
            {
              "internalType": "address",
              "name": "consumeFeeToken",
              "type": "address"
            },
            {
              "internalType": "uint256",
              "name": "consumeFeeAmount",
              "type": "uint256"
            }
          ],
          "internalType": "struct ERC20TemplateEnterprise.OrderParams",
          "name": "_orderParams",
          "type": "tuple"
        },
        {
          "internalType": "address",
          "name": "dispenserContract",
          "type": "address"
        }
      ],
      "name": "buyFromDispenserAndOrder",
      "outputs": [],
      "stateMutability": "nonpayable",
      "type": "function"
    },
    {
      "inputs": [
        {
          "components": [
            {
              "internalType": "address",
              "name": "consumer",
              "type": "address"
            },
            {
              "internalType": "uint256",
              "name": "amount",
              "type": "uint256"
            },
            {
              "internalType": "uint256",
              "name": "serviceId",
              "type": "uint256"
            },
            {
              "internalType": "address",
              "name": "consumeFeeAddress",
              "type": "address"
            },
            {
              "internalType": "address",
              "name": "consumeFeeToken",
              "type": "address"
            },
            {
              "internalType": "uint256",
              "name": "consumeFeeAmount",
              "type": "uint256"
            }
          ],
          "internalType": "struct ERC20TemplateEnterprise.OrderParams",
          "name": "_orderParams",
          "type": "tuple"
        },
        {
          "components": [
            {
              "internalType": "address",
              "name": "exchangeContract",
              "type": "address"
            },
            {
              "internalType": "bytes32",
              "name": "exchangeId",
              "type": "bytes32"
            },
            {
              "internalType": "uint256",
              "name": "maxBaseTokenAmount",
              "type": "uint256"
            }
          ],
          "internalType": "struct ERC20TemplateEnterprise.FreParams",
          "name": "_freParams",
          "type": "tuple"
        }
      ],
      "name": "buyFromFreAndOrder",
      "outputs": [],
      "stateMutability": "nonpayable",
      "type": "function"
    },
    {
      "inputs": [],
      "name": "cap",
      "outputs": [
        {
          "internalType": "uint256",
          "name": "",
          "type": "uint256"
        }
      ],
      "stateMutability": "view",
      "type": "function"
    },
    {
      "inputs": [],
      "name": "cleanFrom721",
      "outputs": [],
      "stateMutability": "nonpayable",
      "type": "function"
    },
    {
      "inputs": [],
      "name": "cleanPermissions",
      "outputs": [],
      "stateMutability": "nonpayable",
      "type": "function"
    },
    {
      "inputs": [
        {
          "internalType": "address",
          "name": "_dispenser",
          "type": "address"
        },
        {
          "internalType": "uint256",
          "name": "maxTokens",
          "type": "uint256"
        },
        {
          "internalType": "uint256",
          "name": "maxBalance",
          "type": "uint256"
        },
        {
          "internalType": "bool",
          "name": "withMint",
          "type": "bool"
        }
      ],
      "name": "createDispenser",
      "outputs": [],
      "stateMutability": "nonpayable",
      "type": "function"
    },
    {
      "inputs": [
        {
          "internalType": "address",
          "name": "fixedPriceAddress",
          "type": "address"
        },
        {
          "internalType": "address[]",
          "name": "addresses",
          "type": "address[]"
        },
        {
          "internalType": "uint256[]",
          "name": "uints",
          "type": "uint256[]"
        }
      ],
      "name": "createFixedRate",
      "outputs": [
        {
          "internalType": "bytes32",
          "name": "exchangeId",
          "type": "bytes32"
        }
      ],
      "stateMutability": "nonpayable",
      "type": "function"
    },
    {
      "inputs": [],
      "name": "decimals",
      "outputs": [
        {
          "internalType": "uint8",
          "name": "",
          "type": "uint8"
        }
      ],
      "stateMutability": "pure",
      "type": "function"
    },
    {
      "inputs": [
        {
          "internalType": "address",
          "name": "spender",
          "type": "address"
        },
        {
          "internalType": "uint256",
          "name": "subtractedValue",
          "type": "uint256"
        }
      ],
      "name": "decreaseAllowance",
      "outputs": [
        {
          "internalType": "bool",
          "name": "",
          "type": "bool"
        }
      ],
      "stateMutability": "nonpayable",
      "type": "function"
    },
    {
      "inputs": [],
      "name": "getERC721Address",
      "outputs": [
        {
          "internalType": "address",
          "name": "",
          "type": "address"
        }
      ],
      "stateMutability": "view",
      "type": "function"
    },
    {
      "inputs": [],
      "name": "getFeeCollector",
      "outputs": [
        {
          "internalType": "address",
          "name": "",
          "type": "address"
        }
      ],
      "stateMutability": "view",
      "type": "function"
    },
    {
      "inputs": [],
      "name": "getId",
      "outputs": [
        {
          "internalType": "uint8",
          "name": "",
          "type": "uint8"
        }
      ],
      "stateMutability": "pure",
      "type": "function"
    },
    {
      "inputs": [],
      "name": "getPublishingMarketFee",
      "outputs": [
        {
          "internalType": "address",
          "name": "",
          "type": "address"
        },
        {
          "internalType": "address",
          "name": "",
          "type": "address"
        },
        {
          "internalType": "uint256",
          "name": "",
          "type": "uint256"
        }
      ],
      "stateMutability": "view",
      "type": "function"
    },
    {
      "inputs": [
        {
          "internalType": "address",
          "name": "spender",
          "type": "address"
        },
        {
          "internalType": "uint256",
          "name": "addedValue",
          "type": "uint256"
        }
      ],
      "name": "increaseAllowance",
      "outputs": [
        {
          "internalType": "bool",
          "name": "",
          "type": "bool"
        }
      ],
      "stateMutability": "nonpayable",
      "type": "function"
    },
    {
      "inputs": [
        {
          "internalType": "string[]",
          "name": "strings_",
          "type": "string[]"
        },
        {
          "internalType": "address[]",
          "name": "addresses_",
          "type": "address[]"
        },
        {
          "internalType": "address[]",
          "name": "factoryAddresses_",
          "type": "address[]"
        },
        {
          "internalType": "uint256[]",
          "name": "uints_",
          "type": "uint256[]"
        },
        {
          "internalType": "bytes[]",
          "name": "bytes_",
          "type": "bytes[]"
        }
      ],
      "name": "initialize",
      "outputs": [
        {
          "internalType": "bool",
          "name": "",
          "type": "bool"
        }
      ],
      "stateMutability": "nonpayable",
      "type": "function"
    },
    {
      "inputs": [],
      "name": "isInitialized",
      "outputs": [
        {
          "internalType": "bool",
          "name": "",
          "type": "bool"
        }
      ],
      "stateMutability": "view",
      "type": "function"
    },
    {
      "inputs": [
        {
          "internalType": "address",
          "name": "account",
          "type": "address"
        }
      ],
      "name": "isMinter",
      "outputs": [
        {
          "internalType": "bool",
          "name": "",
          "type": "bool"
        }
      ],
      "stateMutability": "view",
      "type": "function"
    },
    {
      "inputs": [
        {
          "internalType": "address",
          "name": "account",
          "type": "address"
        },
        {
          "internalType": "uint256",
          "name": "value",
          "type": "uint256"
        }
      ],
      "name": "mint",
      "outputs": [],
      "stateMutability": "nonpayable",
      "type": "function"
    },
    {
      "inputs": [],
      "name": "name",
      "outputs": [
        {
          "internalType": "string",
          "name": "",
          "type": "string"
        }
      ],
      "stateMutability": "view",
      "type": "function"
    },
    {
      "inputs": [
        {
          "internalType": "address",
          "name": "",
          "type": "address"
        }
      ],
      "name": "nonces",
      "outputs": [
        {
          "internalType": "uint256",
          "name": "",
          "type": "uint256"
        }
      ],
      "stateMutability": "view",
      "type": "function"
    },
    {
      "inputs": [
        {
          "internalType": "address",
          "name": "",
          "type": "address"
        }
      ],
      "name": "permissions",
      "outputs": [
        {
          "internalType": "bool",
          "name": "minter",
          "type": "bool"
        },
        {
          "internalType": "bool",
          "name": "feeManager",
          "type": "bool"
        }
      ],
      "stateMutability": "view",
      "type": "function"
    },
    {
      "inputs": [
        {
          "internalType": "address",
          "name": "owner",
          "type": "address"
        },
        {
          "internalType": "address",
          "name": "spender",
          "type": "address"
        },
        {
          "internalType": "uint256",
          "name": "value",
          "type": "uint256"
        },
        {
          "internalType": "uint256",
          "name": "deadline",
          "type": "uint256"
        },
        {
          "internalType": "uint8",
          "name": "v",
          "type": "uint8"
        },
        {
          "internalType": "bytes32",
          "name": "r",
          "type": "bytes32"
        },
        {
          "internalType": "bytes32",
          "name": "s",
          "type": "bytes32"
        }
      ],
      "name": "permit",
      "outputs": [],
      "stateMutability": "nonpayable",
      "type": "function"
    },
    {
      "inputs": [
        {
          "internalType": "address",
          "name": "_feeManager",
          "type": "address"
        }
      ],
      "name": "removeFeeManager",
      "outputs": [],
      "stateMutability": "nonpayable",
      "type": "function"
    },
    {
      "inputs": [
        {
          "internalType": "address",
          "name": "_minter",
          "type": "address"
        }
      ],
      "name": "removeMinter",
      "outputs": [],
      "stateMutability": "nonpayable",
      "type": "function"
    },
    {
      "inputs": [],
      "name": "router",
      "outputs": [
        {
          "internalType": "address",
          "name": "",
          "type": "address"
        }
      ],
      "stateMutability": "view",
      "type": "function"
    },
    {
      "inputs": [
        {
          "internalType": "bytes",
          "name": "_value",
          "type": "bytes"
        }
      ],
      "name": "setData",
      "outputs": [],
      "stateMutability": "nonpayable",
      "type": "function"
    },
    {
      "inputs": [
        {
          "internalType": "address",
          "name": "_newFeeCollector",
          "type": "address"
        }
      ],
      "name": "setFeeCollector",
      "outputs": [],
      "stateMutability": "nonpayable",
      "type": "function"
    },
    {
      "inputs": [
        {
          "internalType": "address",
          "name": "_publishMarketFeeAddress",
          "type": "address"
        },
        {
          "internalType": "address",
          "name": "_publishMarketFeeToken",
          "type": "address"
        },
        {
          "internalType": "uint256",
          "name": "_publishMarketFeeAmount",
          "type": "uint256"
        }
      ],
      "name": "setPublishingMarketFee",
      "outputs": [],
      "stateMutability": "nonpayable",
      "type": "function"
    },
    {
      "inputs": [
        {
          "internalType": "address",
          "name": "consumer",
          "type": "address"
        },
        {
          "internalType": "uint256",
          "name": "amount",
          "type": "uint256"
        },
        {
          "internalType": "uint256",
          "name": "serviceId",
          "type": "uint256"
        },
        {
          "internalType": "address",
          "name": "consumeFeeAddress",
          "type": "address"
        },
        {
          "internalType": "address",
          "name": "consumeFeeToken",
          "type": "address"
        },
        {
          "internalType": "uint256",
          "name": "consumeFeeAmount",
          "type": "uint256"
        }
      ],
      "name": "startOrder",
      "outputs": [],
      "stateMutability": "nonpayable",
      "type": "function"
    },
    {
      "inputs": [],
      "name": "symbol",
      "outputs": [
        {
          "internalType": "string",
          "name": "",
          "type": "string"
        }
      ],
      "stateMutability": "view",
      "type": "function"
    },
    {
      "inputs": [],
      "name": "totalSupply",
      "outputs": [
        {
          "internalType": "uint256",
          "name": "",
          "type": "uint256"
        }
      ],
      "stateMutability": "view",
      "type": "function"
    },
    {
      "inputs": [
        {
          "internalType": "address",
          "name": "recipient",
          "type": "address"
        },
        {
          "internalType": "uint256",
          "name": "amount",
          "type": "uint256"
        }
      ],
      "name": "transfer",
      "outputs": [
        {
          "internalType": "bool",
          "name": "",
          "type": "bool"
        }
      ],
      "stateMutability": "nonpayable",
      "type": "function"
    },
    {
      "inputs": [
        {
          "internalType": "address",
          "name": "sender",
          "type": "address"
        },
        {
          "internalType": "address",
          "name": "recipient",
          "type": "address"
        },
        {
          "internalType": "uint256",
          "name": "amount",
          "type": "uint256"
        }
      ],
      "name": "transferFrom",
      "outputs": [
        {
          "internalType": "bool",
          "name": "",
          "type": "bool"
        }
      ],
      "stateMutability": "nonpayable",
      "type": "function"
    },
    {
      "inputs": [],
      "name": "withdrawETH",
      "outputs": [],
      "stateMutability": "payable",
      "type": "function"
    }
  ],
  "bytecode": "0x6080604052600a805460ff60a01b191690553480156200001e57600080fd5b5060408051808201825260048152631d195cdd60e21b60208083019182528351808501909452600a8452691d195cdd14de5b589bdb60b21b9084015281519192916200006d916003916200008c565b508051620000839060049060208401906200008c565b5050506200016f565b8280546200009a9062000132565b90600052602060002090601f016020900481019282620000be576000855562000109565b82601f10620000d957805160ff191683800117855562000109565b8280016001018555821562000109579182015b8281111562000109578251825591602001919060010190620000ec565b50620001179291506200011b565b5090565b5b808211156200011757600081556001016200011c565b600181811c908216806200014757607f821691505b602082108114156200016957634e487b7160e01b600052602260045260246000fd5b50919050565b6141dd806200017f6000396000f3fe6080604052600436106102675760003560e01c806379cc679011610143578063ab62f0e1116100bb578063e086e5ec11610077578063e086e5ec146107f1578063ec342ad0146107f9578063ef867ff414610815578063f887ea4014610835578063f94bb42114610855578063fda9dae71461087557005b8063ab62f0e114610716578063b2263a5d14610736578063b3998be01461074b578063c3d3cf4d1461076b578063d505accf1461078b578063dd62ed3e146107ab57005b806395d89b411161010a57806395d89b4114610648578063983b2d561461065d578063a42dce801461067d578063a457c2d71461069d578063a9059cbb146106bd578063aa271e1a146106dd57005b806379cc6790146105a65780637ecebe00146105c65780638115c9cc146105f357806382c03da5146106135780638b96412b1461062857005b8063355274ea116101e157806340c10f191161019d57806340c10f19146104e757806342966c68146105075780634f189cb21461052757806357ad5ff61461053c5780635d1ca6311461055c57806370a082311461057057005b8063355274ea1461042c5780633644e515146104415780633830285014610457578063392e53cd146104775780633950935114610496578063397b3743146104b657005b806318160ddd1161023057806318160ddd146103575780631f2d32c31461037657806323b872dd146103965780633092afd5146103b657806330adf81f146103d6578063313ce5671461040a57005b80627ffb781461026957806301e88208146102a057806306fdde03146102f0578063095ea7b31461031257806312fde4b714610342575b005b34801561027557600080fd5b50600b546001600160a01b03165b6040516001600160a01b0390911681526020015b60405180910390f35b3480156102ac57600080fd5b506102d96102bb3660046134e3565b60056020526000908152604090205460ff8082169161010090041682565b604080519215158352901515602083015201610297565b3480156102fc57600080fd5b50610305610895565b6040516102979190613500565b34801561031e57600080fd5b5061033261032d366004613555565b610927565b6040519015158152602001610297565b34801561034e57600080fd5b5061028361093d565b34801561036357600080fd5b506002545b604051908152602001610297565b34801561038257600080fd5b506102676103913660046134e3565b6109d2565b3480156103a257600080fd5b506103326103b1366004613581565b610a7a565b3480156103c257600080fd5b506102676103d13660046134e3565b610b24565b3480156103e257600080fd5b506103687f6e71edae12b1b97f4d1f60370fef10105fa2faae0126114a169c64845d6126c981565b34801561041657600080fd5b5060125b60405160ff9091168152602001610297565b34801561043857600080fd5b50600954610368565b34801561044d57600080fd5b5061036860105481565b34801561046357600080fd5b5061026761047236600461369e565b610bc0565b34801561048357600080fd5b50600a54600160a01b900460ff16610332565b3480156104a257600080fd5b506103326104b1366004613555565b610cc8565b3480156104c257600080fd5b50600d54600e54600f54604051610297936001600160a01b03908116931691906136d6565b3480156104f357600080fd5b50610267610502366004613555565b610d04565b34801561051357600080fd5b506102676105223660046136fa565b610dd6565b34801561053357600080fd5b50610267610de0565b34801561054857600080fd5b50610267610557366004613581565b610ec7565b34801561056857600080fd5b50600261041a565b34801561057c57600080fd5b5061036861058b3660046134e3565b6001600160a01b031660009081526020819052604090205490565b3480156105b257600080fd5b506102676105c1366004613555565b610f69565b3480156105d257600080fd5b506103686105e13660046134e3565b60116020526000908152604090205481565b3480156105ff57600080fd5b5061026761060e3660046134e3565b610fef565b34801561061f57600080fd5b5061026761108b565b34801561063457600080fd5b506103686106433660046137a2565b6110e5565b34801561065457600080fd5b506103056112ab565b34801561066957600080fd5b506102676106783660046134e3565b6112ba565b34801561068957600080fd5b506102676106983660046134e3565b611356565b3480156106a957600080fd5b506103326106b8366004613555565b6113e2565b3480156106c957600080fd5b506103326106d8366004613555565b61147b565b3480156106e957600080fd5b506103326106f83660046134e3565b6001600160a01b031660009081526005602052604090205460ff1690565b34801561072257600080fd5b50610267610731366004613878565b611488565b34801561074257600080fd5b506103686115be565b34801561075757600080fd5b50610332610766366004613936565b6115d4565b34801561077757600080fd5b50610267610786366004613a27565b61170e565b34801561079757600080fd5b506102676107a6366004613aae565b611b58565b3480156107b757600080fd5b506103686107c6366004613b25565b6001600160a01b03918216600090815260016020908152604080832093909416825291909152205490565b610267611d6a565b34801561080557600080fd5b50610368670de0b6b3a764000081565b34801561082157600080fd5b506102836108303660046136fa565b611daa565b34801561084157600080fd5b50601254610283906001600160a01b031681565b34801561086157600080fd5b50610267610870366004613b61565b611dd4565b34801561088157600080fd5b50610267610890366004613bab565b611f01565b6060600780546108a490613c12565b80601f01602080910402602001604051908101604052809291908181526020018280546108d090613c12565b801561091d5780601f106108f25761010080835404028352916020019161091d565b820191906000526020600020905b81548152906001019060200180831161090057829003601f168201915b5050505050905090565b6000610934338484611f17565b50600192915050565b600c546000906001600160a01b03166109c257600b546040516331a9108f60e11b8152600160048201526001600160a01b0390911690636352211e90602401602060405180830381865afa158015610999573d6000803e3d6000fd5b505050506040513d601f19601f820116820180604052508101906109bd9190613c4d565b905090565b50600c546001600160a01b031690565b600b5460405163160a792560e01b81523360048201526001600160a01b039091169063160a7925906024016080604051808303816000875af1158015610a1c573d6000803e3d6000fd5b505050506040513d601f19601f82011682018060405250810190610a409190613c6a565b602001511515600114610a6e5760405162461bcd60e51b8152600401610a6590613cef565b60405180910390fd5b610a778161203b565b50565b6000610a87848484612151565b6001600160a01b038416600090815260016020908152604080832033845290915290205482811015610b0c5760405162461bcd60e51b815260206004820152602860248201527f45524332303a207472616e7366657220616d6f756e74206578636565647320616044820152676c6c6f77616e636560c01b6064820152608401610a65565b610b198533858403611f17565b506001949350505050565b600b5460405163160a792560e01b81523360048201526001600160a01b039091169063160a7925906024016080604051808303816000875af1158015610b6e573d6000803e3d6000fd5b505050506040513d601f19601f82011682018060405250810190610b929190613c6a565b602001511515600114610bb75760405162461bcd60e51b8152600401610a6590613cef565b610a778161231f565b6020820151604051631d746d8360e01b815230600482015260248101919091523360448201526001600160a01b03821690631d746d8390606401600060405180830381600087803b158015610c1457600080fd5b505af1158015610c28573d6000803e3d6000fd5b505050508160200151610c50336001600160a01b031660009081526020819052604090205490565b1015610c9e5760405162461bcd60e51b815260206004820152601f60248201527f556e61626c6520746f206765742044542066726f6d2044697370656e736572006044820152606401610a65565b610cc4826000015183602001518460400151856060015186608001518760a0015161237f565b5050565b3360008181526001602090815260408083206001600160a01b03871684529091528120549091610934918590610cff908690613d3a565b611f17565b3360009081526005602052604090205460ff161515600114610d685760405162461bcd60e51b815260206004820152601960248201527f455243323054656d706c6174653a204e4f54204d494e544552000000000000006044820152606401610a65565b600954610d7e82610d7860025490565b90612b5b565b1115610dcc5760405162461bcd60e51b815260206004820152601f60248201527f44617461546f6b656e54656d706c6174653a20636170206578636565646564006044820152606401610a65565b610cc48282612b6e565b610a773382612c4d565b600b546040516331a9108f60e11b8152600160048201526001600160a01b0390911690636352211e90602401602060405180830381865afa158015610e29573d6000803e3d6000fd5b505050506040513d601f19601f82011682018060405250810190610e4d9190613c4d565b6001600160a01b0316336001600160a01b031614610ead5760405162461bcd60e51b815260206004820152601b60248201527f455243323054656d706c6174653a206e6f74204e46544f776e657200000000006044820152606401610a65565b610eb5612d9b565b600c80546001600160a01b0319169055565b600d546001600160a01b03163314610f345760405162461bcd60e51b815260206004820152602a60248201527f455243323054656d706c6174653a206e6f74207075626c6973684d61726b65746044820152694665654164647265737360b01b6064820152608401610a65565b600d80546001600160a01b039485166001600160a01b031991821617909155600e805493909416921691909117909155600f55565b6000610f7583336107c6565b905081811015610fd35760405162461bcd60e51b8152602060048201526024808201527f45524332303a206275726e20616d6f756e74206578636565647320616c6c6f77604482015263616e636560e01b6064820152608401610a65565b610fe08333848403611f17565b610fea8383612c4d565b505050565b600b5460405163160a792560e01b81523360048201526001600160a01b039091169063160a7925906024016080604051808303816000875af1158015611039573d6000803e3d6000fd5b505050506040513d601f19601f8201168201806040525081019061105d9190613c6a565b6020015115156001146110825760405162461bcd60e51b8152600401610a6590613cef565b610a7781612e4a565b600b546001600160a01b03163314610ead5760405162461bcd60e51b815260206004820152601f60248201527f455243323054656d706c6174653a204e4f542037323120436f6e7472616374006044820152606401610a65565b600b5460405163160a792560e01b81523360048201526000916001600160a01b03169063160a7925906024016080604051808303816000875af1158015611130573d6000803e3d6000fd5b505050506040513d601f19601f820116820180604052508101906111549190613c6a565b6020015115156001146111795760405162461bcd60e51b8152600401610a6590613cef565b308360038151811061118d5761118d613d52565b6001600160a01b039283166020918202929092010152601254604051638244937560e01b81529116906382449375906111ce90879087908790600401613d68565b6020604051808303816000875af11580156111ed573d6000803e3d6000fd5b505050506040513d601f19601f820116820180604052508101906112119190613dfc565b905060008260048151811061122857611228613d52565b6020026020010151111561123f5761123f84612eab565b7f195d202f33578769e120c3041341554af3193e67ee004175095bc9c06e6e6165818460008151811061127457611274613d52565b602002602001015160405161129c9291909182526001600160a01b0316602082015260400190565b60405180910390a19392505050565b6060600880546108a490613c12565b600b5460405163160a792560e01b81523360048201526001600160a01b039091169063160a7925906024016080604051808303816000875af1158015611304573d6000803e3d6000fd5b505050506040513d601f19601f820116820180604052508101906113289190613c6a565b60200151151560011461134d5760405162461bcd60e51b8152600401610a6590613cef565b610a7781612eab565b3360009081526005602052604090205460ff6101009091041615156001146113c05760405162461bcd60e51b815260206004820152601e60248201527f455243323054656d706c6174653a204e4f5420464545204d414e4147455200006044820152606401610a65565b600c80546001600160a01b0319166001600160a01b0392909216919091179055565b3360009081526001602090815260408083206001600160a01b0386168452909152812054828110156114645760405162461bcd60e51b815260206004820152602560248201527f45524332303a2064656372656173656420616c6c6f77616e63652062656c6f77604482015264207a65726f60d81b6064820152608401610a65565b6114713385858403611f17565b5060019392505050565b6000610934338484612151565b600b5460405163160a792560e01b81523360048201526001600160a01b039091169063160a7925906024016080604051808303816000875af11580156114d2573d6000803e3d6000fd5b505050506040513d601f19601f820116820180604052508101906114f69190613c6a565b60200151151560011461151b5760405162461bcd60e51b8152600401610a6590613cef565b6040516bffffffffffffffffffffffff193060601b16602082015260009060340160408051601f19818403018152908290528051602090910120600b546301caf8fd60e31b83529092506001600160a01b031690630e57c7e89061158790849087908790600401613e15565b600060405180830381600087803b1580156115a157600080fd5b505af11580156115b5573d6000803e3d6000fd5b50505050505050565b6115d16064670de0b6b3a7640000613e4b565b81565b600a54600090600160a01b900460ff161561164b5760405162461bcd60e51b815260206004820152603160248201527f455243323054656d706c6174653a20746f6b656e20696e7374616e636520616c6044820152701c9958591e481a5b9a5d1a585b1a5e9959607a1b6064820152608401610a65565b6116ff6116588b8d613ec5565b8a8a8080602002602001604051908101604052809392919081815260200183836020028082843760009201919091525050604080516020808e0282810182019093528d82529093508d92508c91829185019084908082843760009201919091525050604080516020808d0282810182019093528c82529093508c92508b9182918501908490808284376000920191909152506116fa92508991508a9050613f4d565b612fa5565b9b9a5050505050505050505050565b80516020820151604051634c87087d60e01b815260009283926001600160a01b0390911691634c87087d916117499160040190815260200190565b61018060405180830381865afa158015611767573d6000803e3d6000fd5b505050506040513d601f19601f8201168201806040525081019061178b9190613fc9565b5050505050505050935050925050306001600160a01b0316826001600160a01b03161461180a5760405162461bcd60e51b815260206004820152602760248201527f5468697320466978656452617465206973206e6f742070726f766964696e67206044820152661d1a1a5cc8111560ca1b6064820152608401610a65565b82516020808501519086015160405163c99733a760e01b81526000936001600160a01b03169263c99733a79261184b92600401918252602082015260400190565b608060405180830381865afa158015611868573d6000803e3d6000fd5b505050506040513d601f19601f8201168201806040525081019061188c9190614086565b505050905083604001518111156118f55760405162461bcd60e51b815260206004820152602760248201527f46697865645261746545786368616e67653a20546f6f206d616e79206261736560448201526620746f6b656e7360c81b6064820152608401610a65565b6040516323b872dd60e01b81526001600160a01b038316906323b872dd90611925903390309086906004016136d6565b6020604051808303816000875af1158015611944573d6000803e3d6000fd5b505050506040513d601f19601f8201168201806040525081019061196891906140bc565b6119bf5760405162461bcd60e51b815260206004820152602260248201527f4661696c656420746f207472616e736665722062617365546f6b656e416d6f756044820152611b9d60f21b6064820152608401610a65565b835160405163095ea7b360e01b81526001600160a01b039182166004820152602481018390529083169063095ea7b3906044016020604051808303816000875af1158015611a11573d6000803e3d6000fd5b505050506040513d601f19601f82011682018060405250810190611a3591906140bc565b5083516020808601519087015160405163412dae6b60e11b815260048101929092526024820152604481018390526001600160a01b039091169063825b5cd690606401600060405180830381600087803b158015611a9257600080fd5b505af1158015611aa6573d6000803e3d6000fd5b505050508460200151611ace306001600160a01b031660009081526020819052604090205490565b1015611b1c5760405162461bcd60e51b815260206004820152601f60248201527f556e61626c6520746f206275792044542066726f6d20466978656452617465006044820152606401610a65565b611b2b30338760200151612151565b611b51856000015186602001518760400151886060015189608001518a60a0015161237f565b5050505050565b42841015611b9b5760405162461bcd60e51b815260206004820152601060248201526f115490cc8c11150e881156141254915160821b6044820152606401610a65565b6010546001600160a01b038816600090815260116020526040812080549192917f6e71edae12b1b97f4d1f60370fef10105fa2faae0126114a169c64845d6126c9918b918b918b919087611bee836140d9565b909155506040805160208101969096526001600160a01b0394851690860152929091166060840152608083015260a082015260c0810187905260e00160405160208183030381529060405280519060200120604051602001611c6792919061190160f01b81526002810192909252602282015260420190565b60408051601f198184030181528282528051602091820120600080855291840180845281905260ff88169284019290925260608301869052608083018590529092509060019060a0016020604051602081039080840390855afa158015611cd2573d6000803e3d6000fd5b5050604051601f1901519150506001600160a01b03811615801590611d085750886001600160a01b0316816001600160a01b0316145b611d545760405162461bcd60e51b815260206004820152601a60248201527f455243323044543a20494e56414c49445f5349474e41545552450000000000006044820152606401610a65565b611d5f898989611f17565b505050505050505050565b611d7261093d565b6001600160a01b03166108fc479081150290604051600060405180830381858888f19350505050158015610a77573d6000803e3d6000fd5b60068181548110611dba57600080fd5b6000918252602090912001546001600160a01b0316905081565b600b5460405163160a792560e01b81523360048201526001600160a01b039091169063160a7925906024016080604051808303816000875af1158015611e1e573d6000803e3d6000fd5b505050506040513d601f19601f82011682018060405250810190611e429190613c6a565b602001511515600114611e675760405162461bcd60e51b8152600401610a6590613cef565b601254604051636b14d00560e11b81526001600160a01b0386811660048301523060248301819052604483018790526064830186905233608484015260a48301529091169063d629a00a9060c401600060405180830381600087803b158015611ecf57600080fd5b505af1158015611ee3573d6000803e3d6000fd5b5050505080151560011415611efb57611efb84612eab565b50505050565b611f0f86868686868661237f565b505050505050565b6001600160a01b038316611f795760405162461bcd60e51b8152602060048201526024808201527f45524332303a20617070726f76652066726f6d20746865207a65726f206164646044820152637265737360e01b6064820152608401610a65565b6001600160a01b038216611fda5760405162461bcd60e51b815260206004820152602260248201527f45524332303a20617070726f766520746f20746865207a65726f206164647265604482015261737360f01b6064820152608401610a65565b6001600160a01b0383811660008181526001602090815260408083209487168084529482529182902085905590518481527f8c5be1e5ebec7d5bd14f71427d1e84f3dd0314c0f7b2291e5b200ac8c7c3b925910160405180910390a3505050565b6001600160a01b03811660009081526005602052604090208054610100900460ff16156120b55760405162461bcd60e51b815260206004820152602260248201527f4552433230526f6c65733a2020414c5245414459204120464545204d414e414760448201526122a960f11b6064820152608401610a65565b805461ff001916610100178155600680546001810182556000919091527ff652222313e28459528d920b65115c16c04f3efc82aaedc97be59f3f377c0d3f0180546001600160a01b0384166001600160a01b03199091168117909155604080514281524360208201523392917f5b0831b6bc7ca878cadad8a6b96869b9db121df456a859f03261d13f4d08204b91015b60405180910390a35050565b6001600160a01b0383166121b55760405162461bcd60e51b815260206004820152602560248201527f45524332303a207472616e736665722066726f6d20746865207a65726f206164604482015264647265737360d81b6064820152608401610a65565b6001600160a01b0382166122175760405162461bcd60e51b815260206004820152602360248201527f45524332303a207472616e7366657220746f20746865207a65726f206164647260448201526265737360e81b6064820152608401610a65565b6001600160a01b0383166000908152602081905260409020548181101561228f5760405162461bcd60e51b815260206004820152602660248201527f45524332303a207472616e7366657220616d6f756e7420657863656564732062604482015265616c616e636560d01b6064820152608401610a65565b6001600160a01b038085166000908152602081905260408082208585039055918516815290812080548492906122c6908490613d3a565b92505081905550826001600160a01b0316846001600160a01b03167fddf252ad1be2c89b69c2b068fc378daa952ba7f163c4a11628f55a4df523b3ef8460405161231291815260200190565b60405180910390a3611efb565b6001600160a01b03811660008181526005602052604090819020805460ff191681559051909133917fefa2735987005aaa89c050c0ff8cc9ae7d9079d19382081c429130f98c52d480906121459042904390918252602082015260400190565b3360009081526020819052604081205481908711156123ee5760405162461bcd60e51b815260206004820152602560248201527f4e6f7420656e6f756768204461746120546f6b656e7320746f2073746172742060448201526427b93232b960d91b6064820152608401610a65565b6000600f5411801561240a5750600e546001600160a01b031615155b80156124205750600d546001600160a01b031615155b1561260457600e54600f546040516323b872dd60e01b81526001600160a01b03909216916323b872dd9161245a91339130916004016136d6565b6020604051808303816000875af1158015612479573d6000803e3d6000fd5b505050506040513d601f19601f8201168201806040525081019061249d91906140bc565b6124f55760405162461bcd60e51b815260206004820152602360248201527f4661696c656420746f207472616e73666572207075626c6973684d61726b657460448201526246656560e81b6064820152608401610a65565b600f546125039060646133ff565b600e54600d54600f549293506001600160a01b039182169263a9059cbb929091169061252f908561340b565b6040516001600160e01b031960e085901b1681526001600160a01b03909216600483015260248201526044016020604051808303816000875af115801561257a573d6000803e3d6000fd5b505050506040513d601f19601f8201168201806040525081019061259e91906140bc565b6126045760405162461bcd60e51b815260206004820152603160248201527f4661696c656420746f207472616e736665722066656520746f207075626c6973604482015270684d61726b65744665654164647265737360781b6064820152608401610a65565b60008311801561261c57506001600160a01b03841615155b801561263057506001600160a01b03851615155b156127ea576040516323b872dd60e01b81526001600160a01b038516906323b872dd90612665903390309088906004016136d6565b6020604051808303816000875af1158015612684573d6000803e3d6000fd5b505050506040513d601f19601f820116820180604052508101906126a891906140bc565b6126f45760405162461bcd60e51b815260206004820152601d60248201527f4661696c656420746f207472616e7366657220636f6e73756d654665650000006044820152606401610a65565b6126ff8360646133ff565b91506001600160a01b03841663a9059cbb8661271b868661340b565b6040516001600160e01b031960e085901b1681526001600160a01b03909216600483015260248201526044016020604051808303816000875af1158015612766573d6000803e3d6000fd5b505050506040513d601f19601f8201168201806040525081019061278a91906140bc565b6127ea5760405162461bcd60e51b815260206004820152602b60248201527f4661696c656420746f207472616e736665722066656520746f20636f6e73756d60448201526a654665654164647265737360a81b6064820152608401610a65565b6000811180156127fa5750600082115b80156128135750600e546001600160a01b038581169116145b1561290457600a546001600160a01b038086169163a9059cbb91166128388486612b5b565b6040516001600160e01b031960e085901b1681526001600160a01b03909216600483015260248201526044016020604051808303816000875af1158015612883573d6000803e3d6000fd5b505050506040513d601f19601f820116820180604052508101906128a791906140bc565b6128ff5760405162461bcd60e51b815260206004820152602360248201527f4661696c656420746f207472616e7366657220626f7468206665657320746f2060448201526227a82360e91b6064820152608401610a65565b612ae5565b60008111801561291e5750600e546001600160a01b031615155b156129f757600e54600a5460405163a9059cbb60e01b81526001600160a01b0391821660048201526024810184905291169063a9059cbb906044016020604051808303816000875af1158015612978573d6000803e3d6000fd5b505050506040513d601f19601f8201168201806040525081019061299c91906140bc565b6129f75760405162461bcd60e51b815260206004820152602660248201527f4661696c656420746f207472616e73666572207075626c6973682066656573206044820152653a379027a82360d11b6064820152608401610a65565b600082118015612a0f57506001600160a01b03841615155b15612ae557600a5460405163a9059cbb60e01b81526001600160a01b039182166004820152602481018490529085169063a9059cbb906044016020604051808303816000875af1158015612a67573d6000803e3d6000fd5b505050506040513d601f19601f82011682018060405250810190612a8b91906140bc565b612ae55760405162461bcd60e51b815260206004820152602560248201527f4661696c656420746f207472616e7366657220636f6e73756d65206665652074604482015264379027a82360d91b6064820152608401610a65565b612aee87610dd6565b600d5460408051338152602081018a90529081018890524260608201524360808201526001600160a01b0387811692811691908b16907fb07adb6a34680ecbbc7935971c45a07b9baf67ce5dc57332d51e3a5745c9e9639060a00160405180910390a45050505050505050565b6000612b678284613d3a565b9392505050565b6001600160a01b038216612bc45760405162461bcd60e51b815260206004820152601f60248201527f45524332303a206d696e7420746f20746865207a65726f2061646472657373006044820152606401610a65565b8060026000828254612bd69190613d3a565b90915550506001600160a01b03821660009081526020819052604081208054839290612c03908490613d3a565b90915550506040518181526001600160a01b038316906000907fddf252ad1be2c89b69c2b068fc378daa952ba7f163c4a11628f55a4df523b3ef9060200160405180910390a35050565b6001600160a01b038216612cad5760405162461bcd60e51b815260206004820152602160248201527f45524332303a206275726e2066726f6d20746865207a65726f206164647265736044820152607360f81b6064820152608401610a65565b6001600160a01b03821660009081526020819052604090205481811015612d215760405162461bcd60e51b815260206004820152602260248201527f45524332303a206275726e20616d6f756e7420657863656564732062616c616e604482015261636560f01b6064820152608401610a65565b6001600160a01b0383166000908152602081905260408120838303905560028054849290612d509084906140f4565b90915550506040518281526000906001600160a01b038516907fddf252ad1be2c89b69c2b068fc378daa952ba7f163c4a11628f55a4df523b3ef9060200160405180910390a3505050565b60005b600654811015612e015760006005600060068481548110612dc157612dc1613d52565b60009182526020808320909101546001600160a01b031683528201929092526040019020805461ffff191690555080612df9816140d9565b915050612d9e565b50612e0e60066000613417565b6040805142815243602082015233917f712bc71db81927a76b8bf1ea346247bb0ad58f18e4e5c1bd4aa0ec6573e02a2b910160405180910390a2565b6001600160a01b03811660008181526005602052604090819020805461ff00191681559051909133917fc6148ac08e050e2098c5d953dffbbf54d7eae1a56b8d894015268bfc2dff5b6a906121459042904390918252602082015260400190565b6001600160a01b0381166000908152600560205260409020805460ff1615612f155760405162461bcd60e51b815260206004820152601d60248201527f4552433230526f6c65733a2020414c52454144592041204d494e5445520000006044820152606401610a65565b8054600160ff19909116811782556006805491820181556000527ff652222313e28459528d920b65115c16c04f3efc82aaedc97be59f3f377c0d3f0180546001600160a01b0319166001600160a01b038416908117909155604080514281524360208201523392917f4f7e100eb1ee13e903798bd0d6aa854152e07eb05544f392b9409c12935c80959101612145565b60008084600081518110612fbb57612fbb613d52565b60200260200101519050600085600181518110612fda57612fda613d52565b6020026020010151905060006001600160a01b0316826001600160a01b0316141561305c5760405162461bcd60e51b815260206004820152602c60248201527f455243323054656d706c6174653a20496e76616c6964206d696e7465722c202060448201526b7a65726f206164647265737360a01b6064820152608401610a65565b6001600160a01b0381166130d85760405162461bcd60e51b815260206004820152603c60248201527f455243323054656d706c6174653a20496e76616c696420636f6d6d756e69747960448201527f2066656520636f6c6c6563746f722c207a65726f2061646472657373000000006064820152608401610a65565b846000815181106130eb576130eb613d52565b60200260200101516000141561314f5760405162461bcd60e51b8152602060048201526024808201527f44617461546f6b656e54656d706c6174653a20496e76616c6964206361702076604482015263616c756560e01b6064820152608401610a65565b8460008151811061316257613162613d52565b60200260200101516009819055508760008151811061318357613183613d52565b6020026020010151600790805190602001906131a0929190613435565b50876001815181106131b4576131b4613d52565b6020026020010151600890805190602001906131d1929190613435565b50600b80546001600160a01b0319166001600160a01b03841617905585518690600290811061320257613202613d52565b6020908102919091010151601280546001600160a01b039283166001600160a01b0319909116179055600a80546001600160a81b03191691831691909117600160a01b179055865161326c90889060009061325f5761325f613d52565b6020026020010151612eab565b61328f8760018151811061328257613282613d52565b602002602001015161203b565b866002815181106132a2576132a2613d52565b6020026020010151600d60006101000a8154816001600160a01b0302191690836001600160a01b03160217905550866003815181106132e3576132e3613d52565b6020026020010151600e60006101000a8154816001600160a01b0302191690836001600160a01b031602179055508460018151811061332457613324613d52565b6020026020010151600f8190555060004690507f8b73c3c69bb8fe3d512ecc4cf759cc79239f7b179b0ffacaa9a75d522b39400f6007604051613367919061410b565b60408051918290038220828201825260018352603160f81b6020938401528151928301939093528101919091527fc89efdaa54c0f20c7adf612882df0950f5a951637e0307cdcb4c672f298b8bc66060820152608081018290523060a082015260c00160408051808303601f1901815291905280516020909101206010555050600a54600160a01b900460ff16979650505050505050565b6000612b678284613e4b565b6000612b6782846140f4565b5080546000825590600052602060002090810190610a7791906134b9565b82805461344190613c12565b90600052602060002090601f01602090048101928261346357600085556134a9565b82601f1061347c57805160ff19168380011785556134a9565b828001600101855582156134a9579182015b828111156134a957825182559160200191906001019061348e565b506134b59291506134b9565b5090565b5b808211156134b557600081556001016134ba565b6001600160a01b0381168114610a7757600080fd5b6000602082840312156134f557600080fd5b8135612b67816134ce565b600060208083528351808285015260005b8181101561352d57858101830151858201604001528201613511565b8181111561353f576000604083870101525b50601f01601f1916929092016040019392505050565b6000806040838503121561356857600080fd5b8235613573816134ce565b946020939093013593505050565b60008060006060848603121561359657600080fd5b83356135a1816134ce565b925060208401356135b1816134ce565b929592945050506040919091013590565b634e487b7160e01b600052604160045260246000fd5b604051601f8201601f1916810167ffffffffffffffff81118282101715613601576136016135c2565b604052919050565b600060c0828403121561361b57600080fd5b60405160c0810181811067ffffffffffffffff8211171561363e5761363e6135c2565b604052905080823561364f816134ce565b8082525060208301356020820152604083013560408201526060830135613675816134ce565b60608201526080830135613688816134ce565b608082015260a092830135920191909152919050565b60008060e083850312156136b157600080fd5b6136bb8484613609565b915060c08301356136cb816134ce565b809150509250929050565b6001600160a01b039384168152919092166020820152604081019190915260600190565b60006020828403121561370c57600080fd5b5035919050565b600067ffffffffffffffff82111561372d5761372d6135c2565b5060051b60200190565b600082601f83011261374857600080fd5b8135602061375d61375883613713565b6135d8565b82815260059290921b8401810191818101908684111561377c57600080fd5b8286015b848110156137975780358352918301918301613780565b509695505050505050565b6000806000606084860312156137b757600080fd5b83356137c2816134ce565b925060208481013567ffffffffffffffff808211156137e057600080fd5b818701915087601f8301126137f457600080fd5b813561380261375882613713565b81815260059190911b8301840190848101908a83111561382157600080fd5b938501935b82851015613848578435613839816134ce565b82529385019390850190613826565b96505050604087013592508083111561386057600080fd5b505061386e86828701613737565b9150509250925092565b6000806020838503121561388b57600080fd5b823567ffffffffffffffff808211156138a357600080fd5b818501915085601f8301126138b757600080fd5b8135818111156138c657600080fd5b8660208285010111156138d857600080fd5b60209290920196919550909350505050565b60008083601f8401126138fc57600080fd5b50813567ffffffffffffffff81111561391457600080fd5b6020830191508360208260051b850101111561392f57600080fd5b9250929050565b60008060008060008060008060008060a08b8d03121561395557600080fd5b8a3567ffffffffffffffff8082111561396d57600080fd5b6139798e838f016138ea565b909c509a5060208d013591508082111561399257600080fd5b61399e8e838f016138ea565b909a50985060408d01359150808211156139b757600080fd5b6139c38e838f016138ea565b909850965060608d01359150808211156139dc57600080fd5b6139e88e838f016138ea565b909650945060808d0135915080821115613a0157600080fd5b50613a0e8d828e016138ea565b915080935050809150509295989b9194979a5092959850565b600080828403610120811215613a3c57600080fd5b613a468585613609565b9250606060bf1982011215613a5a57600080fd5b506040516060810181811067ffffffffffffffff82111715613a7e57613a7e6135c2565b60405260c0840135613a8f816134ce565b815260e084013560208201526101009093013560408401525092909150565b600080600080600080600060e0888a031215613ac957600080fd5b8735613ad4816134ce565b96506020880135613ae4816134ce565b95506040880135945060608801359350608088013560ff81168114613b0857600080fd5b9699959850939692959460a0840135945060c09093013592915050565b60008060408385031215613b3857600080fd5b8235613b43816134ce565b915060208301356136cb816134ce565b8015158114610a7757600080fd5b60008060008060808587031215613b7757600080fd5b8435613b82816134ce565b935060208501359250604085013591506060850135613ba081613b53565b939692955090935050565b60008060008060008060c08789031215613bc457600080fd5b8635613bcf816134ce565b955060208701359450604087013593506060870135613bed816134ce565b92506080870135613bfd816134ce565b8092505060a087013590509295509295509295565b600181811c90821680613c2657607f821691505b60208210811415613c4757634e487b7160e01b600052602260045260246000fd5b50919050565b600060208284031215613c5f57600080fd5b8151612b67816134ce565b600060808284031215613c7c57600080fd5b6040516080810181811067ffffffffffffffff82111715613c9f57613c9f6135c2565b6040528251613cad81613b53565b81526020830151613cbd81613b53565b60208201526040830151613cd081613b53565b60408201526060830151613ce381613b53565b60608201529392505050565b6020808252818101527f455243323054656d706c6174653a204e4f54204445504c4f59455220524f4c45604082015260600190565b634e487b7160e01b600052601160045260246000fd5b60008219821115613d4d57613d4d613d24565b500190565b634e487b7160e01b600052603260045260246000fd5b6001600160a01b038481168252606060208084018290528551918401829052600092868201929091906080860190855b81811015613db6578551851683529483019491830191600101613d98565b5050858103604087015286518082529082019350915080860160005b83811015613dee57815185529382019390820190600101613dd2565b509298975050505050505050565b600060208284031215613e0e57600080fd5b5051919050565b83815260406020820152816040820152818360608301376000818301606090810191909152601f909201601f1916010192915050565b600082613e6857634e487b7160e01b600052601260045260246000fd5b500490565b600067ffffffffffffffff831115613e8757613e876135c2565b613e9a601f8401601f19166020016135d8565b9050828152838383011115613eae57600080fd5b828260208301376000602084830101529392505050565b6000613ed361375884613713565b80848252602080830192508560051b850136811115613ef157600080fd5b855b81811015613f4157803567ffffffffffffffff811115613f135760008081fd5b870136601f820112613f255760008081fd5b613f33368235868401613e6d565b865250938201938201613ef3565b50919695505050505050565b6000613f5b61375884613713565b80848252602080830192508560051b850136811115613f7957600080fd5b855b81811015613f4157803567ffffffffffffffff811115613f9b5760008081fd5b870136601f820112613fad5760008081fd5b613fbb368235868401613e6d565b865250938201938201613f7b565b6000806000806000806000806000806000806101808d8f031215613fec57600080fd5b8c51613ff7816134ce565b60208e0151909c50614008816134ce565b60408e015160608f0151919c509a50614020816134ce565b8099505060808d0151975060a08d0151965060c08d015161404081613b53565b8096505060e08d015194506101008d015193506101208d015192506101408d015191506101608d015161407281613b53565b809150509295989b509295989b509295989b565b6000806000806080858703121561409c57600080fd5b505082516020840151604085015160609095015191969095509092509050565b6000602082840312156140ce57600080fd5b8151612b6781613b53565b60006000198214156140ed576140ed613d24565b5060010190565b60008282101561410657614106613d24565b500390565b600080835481600182811c91508083168061412757607f831692505b602080841082141561414757634e487b7160e01b86526022600452602486fd5b81801561415b576001811461416c57614199565b60ff19861689528489019650614199565b60008a81526020902060005b868110156141915781548b820152908501908301614178565b505084890196505b50949897505050505050505056fea264697066735822122048a6c0ac4101cdaffff796448bd11e7d9de871c6dcb39ab5d3d2ad6ff4df8ad764736f6c634300080a0033",
  "linkReferences": {},
  "deployedLinkReferences": {}
}