{
  "_format": "hh-sol-artifact-1",
  "contractName": "ERC20TemplateEnterprise",
  "sourceName": "contracts/templates/ERC20TemplateEnterprise.sol",
  "abi": [
    {
      "anonymous": false,
      "inputs": [
        {
          "indexed": true,
          "internalType": "address",
          "name": "user",
          "type": "address"
        },
        {
          "indexed": true,
          "internalType": "address",
          "name": "signer",
          "type": "address"
        },
        {
          "indexed": false,
          "internalType": "uint256",
          "name": "timestamp",
          "type": "uint256"
        },
        {
          "indexed": false,
          "internalType": "uint256",
          "name": "blockNumber",
          "type": "uint256"
        }
      ],
      "name": "AddedMinter",
      "type": "event"
    },
    {
      "anonymous": false,
      "inputs": [
        {
          "indexed": true,
          "internalType": "address",
          "name": "user",
          "type": "address"
        },
        {
          "indexed": true,
          "internalType": "address",
          "name": "signer",
          "type": "address"
        },
        {
          "indexed": false,
          "internalType": "uint256",
          "name": "timestamp",
          "type": "uint256"
        },
        {
          "indexed": false,
          "internalType": "uint256",
          "name": "blockNumber",
          "type": "uint256"
        }
      ],
      "name": "AddedPaymentManager",
      "type": "event"
    },
    {
      "anonymous": false,
      "inputs": [
        {
          "indexed": true,
          "internalType": "address",
          "name": "owner",
          "type": "address"
        },
        {
          "indexed": true,
          "internalType": "address",
          "name": "spender",
          "type": "address"
        },
        {
          "indexed": false,
          "internalType": "uint256",
          "name": "value",
          "type": "uint256"
        }
      ],
      "name": "Approval",
      "type": "event"
    },
    {
      "anonymous": false,
      "inputs": [
        {
          "indexed": true,
          "internalType": "address",
          "name": "signer",
          "type": "address"
        },
        {
          "indexed": false,
          "internalType": "uint256",
          "name": "timestamp",
          "type": "uint256"
        },
        {
          "indexed": false,
          "internalType": "uint256",
          "name": "blockNumber",
          "type": "uint256"
        }
      ],
      "name": "CleanedPermissions",
      "type": "event"
    },
    {
      "anonymous": false,
      "inputs": [
        {
          "indexed": true,
          "internalType": "address",
          "name": "consumeMarketFeeAddress",
          "type": "address"
        },
        {
          "indexed": true,
          "internalType": "address",
          "name": "consumeMarketFeeToken",
          "type": "address"
        },
        {
          "indexed": false,
          "internalType": "uint256",
          "name": "consumeMarketFeeAmount",
          "type": "uint256"
        }
      ],
      "name": "ConsumeMarketFee",
      "type": "event"
    },
    {
      "anonymous": false,
      "inputs": [
        {
          "indexed": false,
          "internalType": "address",
          "name": "currentMinter",
          "type": "address"
        },
        {
          "indexed": false,
          "internalType": "address",
          "name": "newMinter",
          "type": "address"
        }
      ],
      "name": "MinterApproved",
      "type": "event"
    },
    {
      "anonymous": false,
      "inputs": [
        {
          "indexed": false,
          "internalType": "address",
          "name": "currentMinter",
          "type": "address"
        },
        {
          "indexed": false,
          "internalType": "address",
          "name": "newMinter",
          "type": "address"
        }
      ],
      "name": "MinterProposed",
      "type": "event"
    },
    {
      "anonymous": false,
      "inputs": [
        {
          "indexed": false,
          "internalType": "address",
          "name": "dispenserContract",
          "type": "address"
        }
      ],
      "name": "NewDispenser",
      "type": "event"
    },
    {
      "anonymous": false,
      "inputs": [
        {
          "indexed": false,
          "internalType": "bytes32",
          "name": "exchangeId",
          "type": "bytes32"
        },
        {
          "indexed": true,
          "internalType": "address",
          "name": "owner",
          "type": "address"
        },
        {
          "indexed": false,
          "internalType": "address",
          "name": "exchangeContract",
          "type": "address"
        },
        {
          "indexed": true,
          "internalType": "address",
          "name": "baseToken",
          "type": "address"
        }
      ],
      "name": "NewFixedRate",
      "type": "event"
    },
    {
      "anonymous": false,
      "inputs": [
        {
          "indexed": true,
          "internalType": "address",
          "name": "caller",
          "type": "address"
        },
        {
          "indexed": true,
          "internalType": "address",
          "name": "_newPaymentCollector",
          "type": "address"
        },
        {
          "indexed": false,
          "internalType": "uint256",
          "name": "timestamp",
          "type": "uint256"
        },
        {
          "indexed": false,
          "internalType": "uint256",
          "name": "blockNumber",
          "type": "uint256"
        }
      ],
      "name": "NewPaymentCollector",
      "type": "event"
    },
    {
      "anonymous": false,
      "inputs": [
        {
          "indexed": true,
          "internalType": "address",
          "name": "providerAddress",
          "type": "address"
        },
        {
          "indexed": true,
          "internalType": "address",
          "name": "consumerAddress",
          "type": "address"
        },
        {
          "indexed": false,
          "internalType": "bytes32",
          "name": "orderTxId",
          "type": "bytes32"
        },
        {
          "indexed": false,
          "internalType": "bytes",
          "name": "providerData",
          "type": "bytes"
        },
        {
          "indexed": false,
          "internalType": "bytes",
          "name": "providerSignature",
          "type": "bytes"
        },
        {
          "indexed": false,
          "internalType": "bytes",
          "name": "consumerData",
          "type": "bytes"
        },
        {
          "indexed": false,
          "internalType": "bytes",
          "name": "consumerSignature",
          "type": "bytes"
        },
        {
          "indexed": false,
          "internalType": "uint256",
          "name": "timestamp",
          "type": "uint256"
        },
        {
          "indexed": false,
          "internalType": "uint256",
          "name": "blockNumber",
          "type": "uint256"
        }
      ],
      "name": "OrderExecuted",
      "type": "event"
    },
    {
      "anonymous": false,
      "inputs": [
        {
          "indexed": false,
          "internalType": "bytes32",
          "name": "orderTxId",
          "type": "bytes32"
        },
        {
          "indexed": false,
          "internalType": "address",
          "name": "caller",
          "type": "address"
        },
        {
          "indexed": false,
          "internalType": "uint256",
          "name": "timestamp",
          "type": "uint256"
        },
        {
          "indexed": false,
          "internalType": "uint256",
          "name": "number",
          "type": "uint256"
        }
      ],
      "name": "OrderReused",
      "type": "event"
    },
    {
      "anonymous": false,
      "inputs": [
        {
          "indexed": true,
          "internalType": "address",
          "name": "consumer",
          "type": "address"
        },
        {
          "indexed": false,
          "internalType": "address",
          "name": "payer",
          "type": "address"
        },
        {
          "indexed": false,
          "internalType": "uint256",
          "name": "amount",
          "type": "uint256"
        },
        {
          "indexed": false,
          "internalType": "uint256",
          "name": "serviceIndex",
          "type": "uint256"
        },
        {
          "indexed": false,
          "internalType": "uint256",
          "name": "timestamp",
          "type": "uint256"
        },
        {
          "indexed": true,
          "internalType": "address",
          "name": "publishMarketAddress",
          "type": "address"
        },
        {
          "indexed": false,
          "internalType": "uint256",
          "name": "blockNumber",
          "type": "uint256"
        }
      ],
      "name": "OrderStarted",
      "type": "event"
    },
    {
      "anonymous": false,
      "inputs": [
        {
          "indexed": true,
          "internalType": "address",
          "name": "providerFeeAddress",
          "type": "address"
        },
        {
          "indexed": true,
          "internalType": "address",
          "name": "providerFeeToken",
          "type": "address"
        },
        {
          "indexed": false,
          "internalType": "uint256",
          "name": "providerFeeAmount",
          "type": "uint256"
        },
        {
          "indexed": false,
          "internalType": "bytes",
          "name": "providerData",
          "type": "bytes"
        },
        {
          "indexed": false,
          "internalType": "uint8",
          "name": "v",
          "type": "uint8"
        },
        {
          "indexed": false,
          "internalType": "bytes32",
          "name": "r",
          "type": "bytes32"
        },
        {
          "indexed": false,
          "internalType": "bytes32",
          "name": "s",
          "type": "bytes32"
        },
        {
          "indexed": false,
          "internalType": "uint256",
          "name": "validUntil",
          "type": "uint256"
        }
      ],
      "name": "ProviderFee",
      "type": "event"
    },
    {
      "anonymous": false,
      "inputs": [
        {
          "indexed": true,
          "internalType": "address",
          "name": "PublishMarketFeeAddress",
          "type": "address"
        },
        {
          "indexed": true,
          "internalType": "address",
          "name": "PublishMarketFeeToken",
          "type": "address"
        },
        {
          "indexed": false,
          "internalType": "uint256",
          "name": "PublishMarketFeeAmount",
          "type": "uint256"
        }
      ],
      "name": "PublishMarketFee",
      "type": "event"
    },
    {
      "anonymous": false,
      "inputs": [
        {
          "indexed": false,
          "internalType": "address",
          "name": "caller",
          "type": "address"
        },
        {
          "indexed": false,
          "internalType": "address",
          "name": "PublishMarketFeeAddress",
          "type": "address"
        },
        {
          "indexed": false,
          "internalType": "address",
          "name": "PublishMarketFeeToken",
          "type": "address"
        },
        {
          "indexed": false,
          "internalType": "uint256",
          "name": "PublishMarketFeeAmount",
          "type": "uint256"
        }
      ],
      "name": "PublishMarketFeeChanged",
      "type": "event"
    },
    {
      "anonymous": false,
      "inputs": [
        {
          "indexed": true,
          "internalType": "address",
          "name": "user",
          "type": "address"
        },
        {
          "indexed": true,
          "internalType": "address",
          "name": "signer",
          "type": "address"
        },
        {
          "indexed": false,
          "internalType": "uint256",
          "name": "timestamp",
          "type": "uint256"
        },
        {
          "indexed": false,
          "internalType": "uint256",
          "name": "blockNumber",
          "type": "uint256"
        }
      ],
      "name": "RemovedMinter",
      "type": "event"
    },
    {
      "anonymous": false,
      "inputs": [
        {
          "indexed": true,
          "internalType": "address",
          "name": "user",
          "type": "address"
        },
        {
          "indexed": true,
          "internalType": "address",
          "name": "signer",
          "type": "address"
        },
        {
          "indexed": false,
          "internalType": "uint256",
          "name": "timestamp",
          "type": "uint256"
        },
        {
          "indexed": false,
          "internalType": "uint256",
          "name": "blockNumber",
          "type": "uint256"
        }
      ],
      "name": "RemovedPaymentManager",
      "type": "event"
    },
    {
      "anonymous": false,
      "inputs": [
        {
          "indexed": true,
          "internalType": "address",
          "name": "from",
          "type": "address"
        },
        {
          "indexed": true,
          "internalType": "address",
          "name": "to",
          "type": "address"
        },
        {
          "indexed": false,
          "internalType": "uint256",
          "name": "value",
          "type": "uint256"
        }
      ],
      "name": "Transfer",
      "type": "event"
    },
    {
      "stateMutability": "payable",
      "type": "fallback"
    },
    {
      "inputs": [],
      "name": "BASE",
      "outputs": [
        {
          "internalType": "uint256",
          "name": "",
          "type": "uint256"
        }
      ],
      "stateMutability": "view",
      "type": "function"
    },
    {
      "inputs": [],
      "name": "DOMAIN_SEPARATOR",
      "outputs": [
        {
          "internalType": "bytes32",
          "name": "",
          "type": "bytes32"
        }
      ],
      "stateMutability": "view",
      "type": "function"
    },
    {
      "inputs": [],
      "name": "PERMIT_TYPEHASH",
      "outputs": [
        {
          "internalType": "bytes32",
          "name": "",
          "type": "bytes32"
        }
      ],
      "stateMutability": "view",
      "type": "function"
    },
    {
      "inputs": [
        {
          "internalType": "address",
          "name": "_minter",
          "type": "address"
        }
      ],
      "name": "addMinter",
      "outputs": [],
      "stateMutability": "nonpayable",
      "type": "function"
    },
    {
      "inputs": [
        {
          "internalType": "address",
          "name": "_paymentManager",
          "type": "address"
        }
      ],
      "name": "addPaymentManager",
      "outputs": [],
      "stateMutability": "nonpayable",
      "type": "function"
    },
    {
      "inputs": [
        {
          "internalType": "address",
          "name": "owner",
          "type": "address"
        },
        {
          "internalType": "address",
          "name": "spender",
          "type": "address"
        }
      ],
      "name": "allowance",
      "outputs": [
        {
          "internalType": "uint256",
          "name": "",
          "type": "uint256"
        }
      ],
      "stateMutability": "view",
      "type": "function"
    },
    {
      "inputs": [
        {
          "internalType": "address",
          "name": "spender",
          "type": "address"
        },
        {
          "internalType": "uint256",
          "name": "amount",
          "type": "uint256"
        }
      ],
      "name": "approve",
      "outputs": [
        {
          "internalType": "bool",
          "name": "",
          "type": "bool"
        }
      ],
      "stateMutability": "nonpayable",
      "type": "function"
    },
    {
      "inputs": [
        {
          "internalType": "uint256",
          "name": "",
          "type": "uint256"
        }
      ],
      "name": "authERC20",
      "outputs": [
        {
          "internalType": "address",
          "name": "",
          "type": "address"
        }
      ],
      "stateMutability": "view",
      "type": "function"
    },
    {
      "inputs": [
        {
          "internalType": "address",
          "name": "account",
          "type": "address"
        }
      ],
      "name": "balanceOf",
      "outputs": [
        {
          "internalType": "uint256",
          "name": "",
          "type": "uint256"
        }
      ],
      "stateMutability": "view",
      "type": "function"
    },
    {
      "inputs": [
        {
          "internalType": "uint256",
          "name": "amount",
          "type": "uint256"
        }
      ],
      "name": "burn",
      "outputs": [],
      "stateMutability": "nonpayable",
      "type": "function"
    },
    {
      "inputs": [
        {
          "internalType": "address",
          "name": "account",
          "type": "address"
        },
        {
          "internalType": "uint256",
          "name": "amount",
          "type": "uint256"
        }
      ],
      "name": "burnFrom",
      "outputs": [],
      "stateMutability": "nonpayable",
      "type": "function"
    },
    {
      "inputs": [
        {
          "components": [
            {
              "internalType": "address",
              "name": "consumer",
              "type": "address"
            },
            {
              "internalType": "uint256",
              "name": "serviceIndex",
              "type": "uint256"
            },
            {
              "components": [
                {
                  "internalType": "address",
                  "name": "providerFeeAddress",
                  "type": "address"
                },
                {
                  "internalType": "address",
                  "name": "providerFeeToken",
                  "type": "address"
                },
                {
                  "internalType": "uint256",
                  "name": "providerFeeAmount",
                  "type": "uint256"
                },
                {
                  "internalType": "uint8",
                  "name": "v",
                  "type": "uint8"
                },
                {
                  "internalType": "bytes32",
                  "name": "r",
                  "type": "bytes32"
                },
                {
                  "internalType": "bytes32",
                  "name": "s",
                  "type": "bytes32"
                },
                {
                  "internalType": "uint256",
                  "name": "validUntil",
                  "type": "uint256"
                },
                {
                  "internalType": "bytes",
                  "name": "providerData",
                  "type": "bytes"
                }
              ],
              "internalType": "struct ERC20TemplateEnterprise.providerFee",
              "name": "_providerFee",
              "type": "tuple"
            },
            {
              "components": [
                {
                  "internalType": "address",
                  "name": "consumeMarketFeeAddress",
                  "type": "address"
                },
                {
                  "internalType": "address",
                  "name": "consumeMarketFeeToken",
                  "type": "address"
                },
                {
                  "internalType": "uint256",
                  "name": "consumeMarketFeeAmount",
                  "type": "uint256"
                }
              ],
              "internalType": "struct ERC20TemplateEnterprise.consumeMarketFee",
              "name": "_consumeMarketFee",
              "type": "tuple"
            }
          ],
          "internalType": "struct ERC20TemplateEnterprise.OrderParams",
          "name": "_orderParams",
          "type": "tuple"
        },
        {
          "internalType": "address",
          "name": "dispenserContract",
          "type": "address"
        }
      ],
      "name": "buyFromDispenserAndOrder",
      "outputs": [],
      "stateMutability": "nonpayable",
      "type": "function"
    },
    {
      "inputs": [
        {
          "components": [
            {
              "internalType": "address",
              "name": "consumer",
              "type": "address"
            },
            {
              "internalType": "uint256",
              "name": "serviceIndex",
              "type": "uint256"
            },
            {
              "components": [
                {
                  "internalType": "address",
                  "name": "providerFeeAddress",
                  "type": "address"
                },
                {
                  "internalType": "address",
                  "name": "providerFeeToken",
                  "type": "address"
                },
                {
                  "internalType": "uint256",
                  "name": "providerFeeAmount",
                  "type": "uint256"
                },
                {
                  "internalType": "uint8",
                  "name": "v",
                  "type": "uint8"
                },
                {
                  "internalType": "bytes32",
                  "name": "r",
                  "type": "bytes32"
                },
                {
                  "internalType": "bytes32",
                  "name": "s",
                  "type": "bytes32"
                },
                {
                  "internalType": "uint256",
                  "name": "validUntil",
                  "type": "uint256"
                },
                {
                  "internalType": "bytes",
                  "name": "providerData",
                  "type": "bytes"
                }
              ],
              "internalType": "struct ERC20TemplateEnterprise.providerFee",
              "name": "_providerFee",
              "type": "tuple"
            },
            {
              "components": [
                {
                  "internalType": "address",
                  "name": "consumeMarketFeeAddress",
                  "type": "address"
                },
                {
                  "internalType": "address",
                  "name": "consumeMarketFeeToken",
                  "type": "address"
                },
                {
                  "internalType": "uint256",
                  "name": "consumeMarketFeeAmount",
                  "type": "uint256"
                }
              ],
              "internalType": "struct ERC20TemplateEnterprise.consumeMarketFee",
              "name": "_consumeMarketFee",
              "type": "tuple"
            }
          ],
          "internalType": "struct ERC20TemplateEnterprise.OrderParams",
          "name": "_orderParams",
          "type": "tuple"
        },
        {
          "components": [
            {
              "internalType": "address",
              "name": "exchangeContract",
              "type": "address"
            },
            {
              "internalType": "bytes32",
              "name": "exchangeId",
              "type": "bytes32"
            },
            {
              "internalType": "uint256",
              "name": "maxBaseTokenAmount",
              "type": "uint256"
            },
            {
              "internalType": "uint256",
              "name": "swapMarketFee",
              "type": "uint256"
            },
            {
              "internalType": "address",
              "name": "marketFeeAddress",
              "type": "address"
            }
          ],
          "internalType": "struct ERC20TemplateEnterprise.FreParams",
          "name": "_freParams",
          "type": "tuple"
        }
      ],
      "name": "buyFromFreAndOrder",
      "outputs": [],
      "stateMutability": "nonpayable",
      "type": "function"
    },
    {
      "inputs": [],
      "name": "cap",
      "outputs": [
        {
          "internalType": "uint256",
          "name": "",
          "type": "uint256"
        }
      ],
      "stateMutability": "view",
      "type": "function"
    },
    {
      "inputs": [],
      "name": "cleanFrom721",
      "outputs": [],
      "stateMutability": "nonpayable",
      "type": "function"
    },
    {
      "inputs": [],
      "name": "cleanPermissions",
      "outputs": [],
      "stateMutability": "nonpayable",
      "type": "function"
    },
    {
      "inputs": [
        {
          "internalType": "address",
          "name": "_dispenser",
          "type": "address"
        },
        {
          "internalType": "uint256",
          "name": "maxTokens",
          "type": "uint256"
        },
        {
          "internalType": "uint256",
          "name": "maxBalance",
          "type": "uint256"
        },
        {
          "internalType": "bool",
          "name": "withMint",
          "type": "bool"
        },
        {
          "internalType": "address",
          "name": "allowedSwapper",
          "type": "address"
        }
      ],
      "name": "createDispenser",
      "outputs": [],
      "stateMutability": "nonpayable",
      "type": "function"
    },
    {
      "inputs": [
        {
          "internalType": "address",
          "name": "fixedPriceAddress",
          "type": "address"
        },
        {
          "internalType": "address[]",
          "name": "addresses",
          "type": "address[]"
        },
        {
          "internalType": "uint256[]",
          "name": "uints",
          "type": "uint256[]"
        }
      ],
      "name": "createFixedRate",
      "outputs": [
        {
          "internalType": "bytes32",
          "name": "exchangeId",
          "type": "bytes32"
        }
      ],
      "stateMutability": "nonpayable",
      "type": "function"
    },
    {
      "inputs": [],
      "name": "decimals",
      "outputs": [
        {
          "internalType": "uint8",
          "name": "",
          "type": "uint8"
        }
      ],
      "stateMutability": "pure",
      "type": "function"
    },
    {
      "inputs": [
        {
          "internalType": "address",
          "name": "spender",
          "type": "address"
        },
        {
          "internalType": "uint256",
          "name": "subtractedValue",
          "type": "uint256"
        }
      ],
      "name": "decreaseAllowance",
      "outputs": [
        {
          "internalType": "bool",
          "name": "",
          "type": "bool"
        }
      ],
      "stateMutability": "nonpayable",
      "type": "function"
    },
    {
      "inputs": [],
      "name": "getDispensers",
      "outputs": [
        {
          "internalType": "address[]",
          "name": "",
          "type": "address[]"
        }
      ],
      "stateMutability": "view",
      "type": "function"
    },
    {
      "inputs": [],
      "name": "getERC721Address",
      "outputs": [
        {
          "internalType": "address",
          "name": "",
          "type": "address"
        }
      ],
      "stateMutability": "view",
      "type": "function"
    },
    {
      "inputs": [],
      "name": "getFixedRates",
      "outputs": [
        {
          "components": [
            {
              "internalType": "address",
              "name": "contractAddress",
              "type": "address"
            },
            {
              "internalType": "bytes32",
              "name": "id",
              "type": "bytes32"
            }
          ],
          "internalType": "struct ERC20TemplateEnterprise.fixedRate[]",
          "name": "",
          "type": "tuple[]"
        }
      ],
      "stateMutability": "view",
      "type": "function"
    },
    {
      "inputs": [],
      "name": "getId",
      "outputs": [
        {
          "internalType": "uint8",
          "name": "",
          "type": "uint8"
        }
      ],
      "stateMutability": "pure",
      "type": "function"
    },
    {
      "inputs": [],
      "name": "getPaymentCollector",
      "outputs": [
        {
          "internalType": "address",
          "name": "",
          "type": "address"
        }
      ],
      "stateMutability": "view",
      "type": "function"
    },
    {
      "inputs": [
        {
          "internalType": "address",
          "name": "user",
          "type": "address"
        }
      ],
      "name": "getPermissions",
      "outputs": [
        {
          "components": [
            {
              "internalType": "bool",
              "name": "minter",
              "type": "bool"
            },
            {
              "internalType": "bool",
              "name": "paymentManager",
              "type": "bool"
            }
          ],
          "internalType": "struct ERC20Roles.RolesERC20",
          "name": "",
          "type": "tuple"
        }
      ],
      "stateMutability": "view",
      "type": "function"
    },
    {
      "inputs": [],
      "name": "getPublishingMarketFee",
      "outputs": [
        {
          "internalType": "address",
          "name": "",
          "type": "address"
        },
        {
          "internalType": "address",
          "name": "",
          "type": "address"
        },
        {
          "internalType": "uint256",
          "name": "",
          "type": "uint256"
        }
      ],
      "stateMutability": "view",
      "type": "function"
    },
    {
      "inputs": [
        {
          "internalType": "address",
          "name": "spender",
          "type": "address"
        },
        {
          "internalType": "uint256",
          "name": "addedValue",
          "type": "uint256"
        }
      ],
      "name": "increaseAllowance",
      "outputs": [
        {
          "internalType": "bool",
          "name": "",
          "type": "bool"
        }
      ],
      "stateMutability": "nonpayable",
      "type": "function"
    },
    {
      "inputs": [
        {
          "internalType": "string[]",
          "name": "strings_",
          "type": "string[]"
        },
        {
          "internalType": "address[]",
          "name": "addresses_",
          "type": "address[]"
        },
        {
          "internalType": "address[]",
          "name": "factoryAddresses_",
          "type": "address[]"
        },
        {
          "internalType": "uint256[]",
          "name": "uints_",
          "type": "uint256[]"
        },
        {
          "internalType": "bytes[]",
          "name": "bytes_",
          "type": "bytes[]"
        }
      ],
      "name": "initialize",
      "outputs": [
        {
          "internalType": "bool",
          "name": "",
          "type": "bool"
        }
      ],
      "stateMutability": "nonpayable",
      "type": "function"
    },
    {
      "inputs": [
        {
          "internalType": "address",
          "name": "user",
          "type": "address"
        }
      ],
      "name": "isERC20Deployer",
      "outputs": [
        {
          "internalType": "bool",
          "name": "deployer",
          "type": "bool"
        }
      ],
      "stateMutability": "nonpayable",
      "type": "function"
    },
    {
      "inputs": [],
      "name": "isInitialized",
      "outputs": [
        {
          "internalType": "bool",
          "name": "",
          "type": "bool"
        }
      ],
      "stateMutability": "view",
      "type": "function"
    },
    {
      "inputs": [
        {
          "internalType": "address",
          "name": "account",
          "type": "address"
        }
      ],
      "name": "isMinter",
      "outputs": [
        {
          "internalType": "bool",
          "name": "",
          "type": "bool"
        }
      ],
      "stateMutability": "view",
      "type": "function"
    },
    {
      "inputs": [
        {
          "internalType": "address",
          "name": "account",
          "type": "address"
        },
        {
          "internalType": "uint256",
          "name": "value",
          "type": "uint256"
        }
      ],
      "name": "mint",
      "outputs": [],
      "stateMutability": "nonpayable",
      "type": "function"
    },
    {
      "inputs": [],
      "name": "name",
      "outputs": [
        {
          "internalType": "string",
          "name": "",
          "type": "string"
        }
      ],
      "stateMutability": "view",
      "type": "function"
    },
    {
      "inputs": [
        {
          "internalType": "address",
          "name": "",
          "type": "address"
        }
      ],
      "name": "nonces",
      "outputs": [
        {
          "internalType": "uint256",
          "name": "",
          "type": "uint256"
        }
      ],
      "stateMutability": "view",
      "type": "function"
    },
    {
      "inputs": [
        {
          "internalType": "bytes32",
          "name": "orderTxId",
          "type": "bytes32"
        },
        {
          "internalType": "bytes",
          "name": "providerData",
          "type": "bytes"
        },
        {
          "internalType": "bytes",
          "name": "providerSignature",
          "type": "bytes"
        },
        {
          "internalType": "bytes",
          "name": "consumerData",
          "type": "bytes"
        },
        {
          "internalType": "bytes",
          "name": "consumerSignature",
          "type": "bytes"
        },
        {
          "internalType": "address",
          "name": "consumerAddress",
          "type": "address"
        }
      ],
      "name": "orderExecuted",
      "outputs": [],
      "stateMutability": "nonpayable",
      "type": "function"
    },
    {
      "inputs": [
        {
          "internalType": "address",
          "name": "",
          "type": "address"
        }
      ],
      "name": "permissions",
      "outputs": [
        {
          "internalType": "bool",
          "name": "minter",
          "type": "bool"
        },
        {
          "internalType": "bool",
          "name": "paymentManager",
          "type": "bool"
        }
      ],
      "stateMutability": "view",
      "type": "function"
    },
    {
      "inputs": [
        {
          "internalType": "address",
          "name": "owner",
          "type": "address"
        },
        {
          "internalType": "address",
          "name": "spender",
          "type": "address"
        },
        {
          "internalType": "uint256",
          "name": "value",
          "type": "uint256"
        },
        {
          "internalType": "uint256",
          "name": "deadline",
          "type": "uint256"
        },
        {
          "internalType": "uint8",
          "name": "v",
          "type": "uint8"
        },
        {
          "internalType": "bytes32",
          "name": "r",
          "type": "bytes32"
        },
        {
          "internalType": "bytes32",
          "name": "s",
          "type": "bytes32"
        }
      ],
      "name": "permit",
      "outputs": [],
      "stateMutability": "nonpayable",
      "type": "function"
    },
    {
      "inputs": [
        {
          "internalType": "address",
          "name": "_minter",
          "type": "address"
        }
      ],
      "name": "removeMinter",
      "outputs": [],
      "stateMutability": "nonpayable",
      "type": "function"
    },
    {
      "inputs": [
        {
          "internalType": "address",
          "name": "_paymentManager",
          "type": "address"
        }
      ],
      "name": "removePaymentManager",
      "outputs": [],
      "stateMutability": "nonpayable",
      "type": "function"
    },
    {
      "inputs": [
        {
          "internalType": "bytes32",
          "name": "orderTxId",
          "type": "bytes32"
        },
        {
          "components": [
            {
              "internalType": "address",
              "name": "providerFeeAddress",
              "type": "address"
            },
            {
              "internalType": "address",
              "name": "providerFeeToken",
              "type": "address"
            },
            {
              "internalType": "uint256",
              "name": "providerFeeAmount",
              "type": "uint256"
            },
            {
              "internalType": "uint8",
              "name": "v",
              "type": "uint8"
            },
            {
              "internalType": "bytes32",
              "name": "r",
              "type": "bytes32"
            },
            {
              "internalType": "bytes32",
              "name": "s",
              "type": "bytes32"
            },
            {
              "internalType": "uint256",
              "name": "validUntil",
              "type": "uint256"
            },
            {
              "internalType": "bytes",
              "name": "providerData",
              "type": "bytes"
            }
          ],
          "internalType": "struct ERC20TemplateEnterprise.providerFee",
          "name": "_providerFee",
          "type": "tuple"
        }
      ],
      "name": "reuseOrder",
      "outputs": [],
      "stateMutability": "nonpayable",
      "type": "function"
    },
    {
      "inputs": [],
      "name": "router",
      "outputs": [
        {
          "internalType": "address",
          "name": "",
          "type": "address"
        }
      ],
      "stateMutability": "view",
      "type": "function"
    },
    {
      "inputs": [
        {
          "internalType": "bytes",
          "name": "_value",
          "type": "bytes"
        }
      ],
      "name": "setData",
      "outputs": [],
      "stateMutability": "nonpayable",
      "type": "function"
    },
    {
      "inputs": [
        {
          "internalType": "address",
          "name": "_newPaymentCollector",
          "type": "address"
        }
      ],
      "name": "setPaymentCollector",
      "outputs": [],
      "stateMutability": "nonpayable",
      "type": "function"
    },
    {
      "inputs": [
        {
          "internalType": "address",
          "name": "_publishMarketFeeAddress",
          "type": "address"
        },
        {
          "internalType": "address",
          "name": "_publishMarketFeeToken",
          "type": "address"
        },
        {
          "internalType": "uint256",
          "name": "_publishMarketFeeAmount",
          "type": "uint256"
        }
      ],
      "name": "setPublishingMarketFee",
      "outputs": [],
      "stateMutability": "nonpayable",
      "type": "function"
    },
    {
      "inputs": [
        {
          "internalType": "address",
          "name": "consumer",
          "type": "address"
        },
        {
          "internalType": "uint256",
          "name": "serviceIndex",
          "type": "uint256"
        },
        {
          "components": [
            {
              "internalType": "address",
              "name": "providerFeeAddress",
              "type": "address"
            },
            {
              "internalType": "address",
              "name": "providerFeeToken",
              "type": "address"
            },
            {
              "internalType": "uint256",
              "name": "providerFeeAmount",
              "type": "uint256"
            },
            {
              "internalType": "uint8",
              "name": "v",
              "type": "uint8"
            },
            {
              "internalType": "bytes32",
              "name": "r",
              "type": "bytes32"
            },
            {
              "internalType": "bytes32",
              "name": "s",
              "type": "bytes32"
            },
            {
              "internalType": "uint256",
              "name": "validUntil",
              "type": "uint256"
            },
            {
              "internalType": "bytes",
              "name": "providerData",
              "type": "bytes"
            }
          ],
          "internalType": "struct ERC20TemplateEnterprise.providerFee",
          "name": "_providerFee",
          "type": "tuple"
        },
        {
          "components": [
            {
              "internalType": "address",
              "name": "consumeMarketFeeAddress",
              "type": "address"
            },
            {
              "internalType": "address",
              "name": "consumeMarketFeeToken",
              "type": "address"
            },
            {
              "internalType": "uint256",
              "name": "consumeMarketFeeAmount",
              "type": "uint256"
            }
          ],
          "internalType": "struct ERC20TemplateEnterprise.consumeMarketFee",
          "name": "_consumeMarketFee",
          "type": "tuple"
        }
      ],
      "name": "startOrder",
      "outputs": [],
      "stateMutability": "nonpayable",
      "type": "function"
    },
    {
      "inputs": [],
      "name": "symbol",
      "outputs": [
        {
          "internalType": "string",
          "name": "",
          "type": "string"
        }
      ],
      "stateMutability": "view",
      "type": "function"
    },
    {
      "inputs": [],
      "name": "totalSupply",
      "outputs": [
        {
          "internalType": "uint256",
          "name": "",
          "type": "uint256"
        }
      ],
      "stateMutability": "view",
      "type": "function"
    },
    {
      "inputs": [
        {
          "internalType": "address",
          "name": "recipient",
          "type": "address"
        },
        {
          "internalType": "uint256",
          "name": "amount",
          "type": "uint256"
        }
      ],
      "name": "transfer",
      "outputs": [
        {
          "internalType": "bool",
          "name": "",
          "type": "bool"
        }
      ],
      "stateMutability": "nonpayable",
      "type": "function"
    },
    {
      "inputs": [
        {
          "internalType": "address",
          "name": "sender",
          "type": "address"
        },
        {
          "internalType": "address",
          "name": "recipient",
          "type": "address"
        },
        {
          "internalType": "uint256",
          "name": "amount",
          "type": "uint256"
        }
      ],
      "name": "transferFrom",
      "outputs": [
        {
          "internalType": "bool",
          "name": "",
          "type": "bool"
        }
      ],
      "stateMutability": "nonpayable",
      "type": "function"
    },
    {
      "inputs": [],
      "name": "withdrawETH",
      "outputs": [],
      "stateMutability": "payable",
      "type": "function"
    }
  ],
  "bytecode": "0x6080604052600b805460ff60a01b191690553480156200001e57600080fd5b5060408051808201825260048152631d195cdd60e21b60208083019182528351808501909452600a8452691d195cdd14de5b589bdb60b21b9084015281519192916200006d9160039162000091565b5080516200008390600490602084019062000091565b505060016007555062000174565b8280546200009f9062000137565b90600052602060002090601f016020900481019282620000c357600085556200010e565b82601f10620000de57805160ff19168380011785556200010e565b828001600101855582156200010e579182015b828111156200010e578251825591602001919060010190620000f1565b506200011c92915062000120565b5090565b5b808211156200011c576000815560010162000121565b600181811c908216806200014c57607f821691505b602082108114156200016e57634e487b7160e01b600052602260045260246000fd5b50919050565b61594180620001846000396000f3fe6080604052600436106102c55760003560e01c80635d1ca6311161017e578063a8c09b0b116100d3578063d505accf1161008f578063e487c2e81161006c578063e487c2e8146109a8578063ec342ad0146109bd578063ef867ff4146109d9578063f887ea40146109f957005b8063d505accf1461093a578063dd62ed3e1461095a578063e086e5ec146109a057005b8063a8c09b0b14610861578063a9059cbb14610881578063aa271e1a146108a1578063aa492ef9146108da578063ab62f0e1146108fa578063b3998be01461091a57005b806382c03da51161013a57806395d89b411161011757806395d89b41146107ec57806396fb3eaf14610801578063983b2d5614610821578063a457c2d71461084157005b806382c03da51461079757806389208f0f146107ac5780638b96412b146107cc57005b80635d1ca631146106be57806370a08231146106d257806379cc67901461070857806379d9d7f3146107285780637dda231e146107485780637ecebe001461076a57005b8063313ce56711610234578063397b3743116101f057806347ac7d55116101cd57806347ac7d55146106475780634f189cb21461066957806357a3a31b1461067e57806357ad5ff61461069e57005b8063397b3743146105cb57806340c10f191461060757806342966c681461062757005b8063313ce5671461051f578063355274ea14610541578063361fef49146105565780633644e51514610576578063392e53cd1461058c57806339509351146105ab57005b8063191c918a11610283578063191c918a1461044b5780631b53b05f1461046b57806323b872dd1461048b57806325b00243146104ab5780633092afd5146104cb57806330adf81f146104eb57005b80627ffb78146102c757806301e88208146102fe57806306fdde031461034e578063095ea7b314610370578063160a7925146103a057806318160ddd1461042c575b005b3480156102d357600080fd5b50600c546001600160a01b03165b6040516001600160a01b0390911681526020015b60405180910390f35b34801561030a57600080fd5b50610337610319366004614899565b60056020526000908152604090205460ff8082169161010090041682565b6040805192151583529015156020830152016102f5565b34801561035a57600080fd5b50610363610a19565b6040516102f591906148e2565b34801561037c57600080fd5b5061039061038b366004614915565b610aab565b60405190151581526020016102f5565b3480156103ac57600080fd5b5061040d6103bb366004614899565b6040805180820190915260008082526020820152506001600160a01b031660009081526005602090815260409182902082518084019093525460ff808216151584526101009091041615159082015290565b60408051825115158152602092830151151592810192909252016102f5565b34801561043857600080fd5b506002545b6040519081526020016102f5565b34801561045757600080fd5b506102c561046636600461494f565b610ac2565b34801561047757600080fd5b506102c56104863660046149c6565b610d1b565b34801561049757600080fd5b506103906104a6366004614a17565b610e49565b3480156104b757600080fd5b506102c56104c6366004614899565b610ef5565b3480156104d757600080fd5b506102c56104e6366004614899565b61100d565b3480156104f757600080fd5b5061043d7f6e71edae12b1b97f4d1f60370fef10105fa2faae0126114a169c64845d6126c981565b34801561052b57600080fd5b5060125b60405160ff90911681526020016102f5565b34801561054d57600080fd5b50600a5461043d565b34801561056257600080fd5b506102c5610571366004614a6b565b611122565b34801561058257600080fd5b5061043d60115481565b34801561059857600080fd5b50600b54600160a01b900460ff16610390565b3480156105b757600080fd5b506103906105c6366004614915565b611173565b3480156105d757600080fd5b50600e54600f54601054604080516001600160a01b039485168152939092166020840152908201526060016102f5565b34801561061357600080fd5b506102c5610622366004614915565b6111af565b34801561063357600080fd5b506102c5610642366004614ab1565b61127c565b34801561065357600080fd5b5061065c611286565b6040516102f59190614b0e565b34801561067557600080fd5b506102c56112e7565b34801561068a57600080fd5b506102c5610699366004614899565b6113ce565b3480156106aa57600080fd5b506102c56106b9366004614a17565b61158e565b3480156106ca57600080fd5b50600261052f565b3480156106de57600080fd5b5061043d6106ed366004614899565b6001600160a01b031660009081526020819052604090205490565b34801561071457600080fd5b506102c5610723366004614915565b611747565b34801561073457600080fd5b506102c5610743366004614b21565b6117cd565b34801561075457600080fd5b5061075d611a4f565b6040516102f59190614b94565b34801561077657600080fd5b5061043d610785366004614899565b60126020526000908152604090205481565b3480156107a357600080fd5b506102c5611ac4565b3480156107b857600080fd5b506102c56107c7366004614c34565b611b1e565b3480156107d857600080fd5b5061043d6107e7366004614de5565b611e0b565b3480156107f857600080fd5b5061036361213d565b34801561080d57600080fd5b5061039061081c366004614899565b61214c565b34801561082d57600080fd5b506102c561083c366004614899565b6121c7565b34801561084d57600080fd5b5061039061085c366004614915565b6122dc565b34801561086d57600080fd5b506102c561087c366004614eba565b612375565b34801561088d57600080fd5b5061039061089c366004614915565b612729565b3480156108ad57600080fd5b506103906108bc366004614899565b6001600160a01b031660009081526005602052604090205460ff1690565b3480156108e657600080fd5b506102c56108f5366004614899565b612736565b34801561090657600080fd5b506102c5610915366004614f13565b61284b565b34801561092657600080fd5b50610390610935366004614f98565b6129fa565b34801561094657600080fd5b506102c5610955366004615099565b612b34565b34801561096657600080fd5b5061043d610975366004615107565b6001600160a01b03918216600090815260016020908152604080832093909416825291909152205490565b6102c5612d46565b3480156109b457600080fd5b506102e1612d86565b3480156109c957600080fd5b5061043d670de0b6b3a764000081565b3480156109e557600080fd5b506102e16109f4366004614ab1565b612e1b565b348015610a0557600080fd5b506013546102e1906001600160a01b031681565b606060088054610a2890615135565b80601f0160208091040260200160405190810160405280929190818152602001828054610a5490615135565b8015610aa15780601f10610a7657610100808354040283529160200191610aa1565b820191906000526020600020905b815481529060010190602001808311610a8457829003601f168201915b5050505050905090565b6000610ab8338484612e45565b5060015b92915050565b600c5460405163160a792560e01b81523360048201526001600160a01b039091169063160a7925906024016080604051808303816000875af1158015610b0c573d6000803e3d6000fd5b505050506040513d601f19601f82011682018060405250810190610b30919061516a565b6020015180610bb25750600c546040516331a9108f60e11b81526001600482015233916001600160a01b031690636352211e90602401602060405180830381865afa158015610b83573d6000803e3d6000fd5b505050506040513d601f19601f82011682018060405250810190610ba791906151ee565b6001600160a01b0316145b610bd75760405162461bcd60e51b8152600401610bce9061520b565b60405180910390fd5b60026007541415610bfa5760405162461bcd60e51b8152600401610bce90615240565b6002600755601354604051636b14d00560e11b81526001600160a01b0387811660048301523060248301819052604483018890526064830187905233608484015260a48301529091169063d629a00a9060c401600060405180830381600087803b158015610c6757600080fd5b505af1158015610c7b573d6000803e3d6000fd5b505050508115610c8e57610c8e85612f69565b601580546001810182556000919091527f55f448fdea98c4d29eb340757ef0a66cd03dbb9538908a6a81d96026b71ec4750180546001600160a01b0319166001600160a01b0387169081179091556040519081527fa31ffd41531537eb31bfd827a3f5372b5f62bf4dd8579e5354b280dc58490e709060200160405180910390a150506001600755505050565b60026007541415610d3e5760405162461bcd60e51b8152600401610bce90615240565b6002600755604051631d746d8360e01b8152306004820152670de0b6b3a764000060248201819052336044830152906001600160a01b03831690631d746d8390606401600060405180830381600087803b158015610d9b57600080fd5b505af1158015610daf573d6000803e3d6000fd5b50503360009081526020819052604090205483925090501015610e145760405162461bcd60e51b815260206004820152601f60248201527f556e61626c6520746f206765742044542066726f6d2044697370656e736572006044820152606401610bce565b610e3f610e246020850185614899565b6020850135610e366040870187615277565b866060016117cd565b5050600160075550565b6000610e56848484613040565b6001600160a01b038416600090815260016020908152604080832033845290915290205482811015610edb5760405162461bcd60e51b815260206004820152602860248201527f45524332303a207472616e7366657220616d6f756e74206578636565647320616044820152676c6c6f77616e636560c01b6064820152608401610bce565b610ee88533858403612e45565b60019150505b9392505050565b600c5460405163160a792560e01b81523360048201526001600160a01b039091169063160a7925906024016080604051808303816000875af1158015610f3f573d6000803e3d6000fd5b505050506040513d601f19601f82011682018060405250810190610f63919061516a565b6020015180610fe55750600c546040516331a9108f60e11b81526001600482015233916001600160a01b031690636352211e90602401602060405180830381865afa158015610fb6573d6000803e3d6000fd5b505050506040513d601f19601f82011682018060405250810190610fda91906151ee565b6001600160a01b0316145b6110015760405162461bcd60e51b8152600401610bce9061520b565b61100a81613210565b50565b600c5460405163160a792560e01b81523360048201526001600160a01b039091169063160a7925906024016080604051808303816000875af1158015611057573d6000803e3d6000fd5b505050506040513d601f19601f8201168201806040525081019061107b919061516a565b60200151806110fd5750600c546040516331a9108f60e11b81526001600482015233916001600160a01b031690636352211e90602401602060405180830381865afa1580156110ce573d6000803e3d6000fd5b505050506040513d601f19601f820116820180604052508101906110f291906151ee565b6001600160a01b0316145b6111195760405162461bcd60e51b8152600401610bce9061520b565b61100a81613282565b60408051838152336020820152428183015243606082015290517f526e31449ea46e2aecf9b480c8d7dfa191348ef74ffdf75b445a6ab726daa6ff9181900360800190a161116f816132e2565b5050565b3360008181526001602090815260408083206001600160a01b03871684529091528120549091610ab89185906111aa9086906152ad565b612e45565b3360009081526005602052604090205460ff1661120e5760405162461bcd60e51b815260206004820152601960248201527f455243323054656d706c6174653a204e4f54204d494e544552000000000000006044820152606401610bce565b600a546112248261121e60025490565b90613695565b11156112725760405162461bcd60e51b815260206004820152601f60248201527f44617461746f6b656e54656d706c6174653a20636170206578636565646564006044820152606401610bce565b61116f82826136a1565b61100a3382613780565b60606015805480602002602001604051908101604052809291908181526020018280548015610aa157602002820191906000526020600020905b81546001600160a01b031681526001909101906020018083116112c0575050505050905090565b600c546040516331a9108f60e11b8152600160048201526001600160a01b0390911690636352211e90602401602060405180830381865afa158015611330573d6000803e3d6000fd5b505050506040513d601f19601f8201168201806040525081019061135491906151ee565b6001600160a01b0316336001600160a01b0316146113b45760405162461bcd60e51b815260206004820152601b60248201527f455243323054656d706c6174653a206e6f74204e46544f776e657200000000006044820152606401610bce565b6113bc6138ce565b600d80546001600160a01b0319169055565b33600090815260056020526040902054610100900460ff168061145f5750600c5460405163160a792560e01b81523360048201526001600160a01b039091169063160a7925906024016080604051808303816000875af1158015611436573d6000803e3d6000fd5b505050506040513d601f19601f8201168201806040525081019061145a919061516a565b602001515b806114dd5750600c546040516331a9108f60e11b81526001600482015233916001600160a01b031690636352211e90602401602060405180830381865afa1580156114ae573d6000803e3d6000fd5b505050506040513d601f19601f820116820180604052508101906114d291906151ee565b6001600160a01b0316145b61153d5760405162461bcd60e51b815260206004820152602b60248201527f455243323054656d706c6174653a204e4f54205041594d454e54204d414e414760448201526a22a91037b91027aba722a960a91b6064820152608401610bce565b6115468161397d565b604080514281524360208201526001600160a01b0383169133917f4d7694d695c57cc54947177c8e8a0e61aae664e9223492a798c32fadfc6419cc910160405180910390a350565b600e546001600160a01b031633146115fb5760405162461bcd60e51b815260206004820152602a60248201527f455243323054656d706c6174653a206e6f74207075626c6973684d61726b65746044820152694665654164647265737360b01b6064820152608401610bce565b6001600160a01b0383166116625760405162461bcd60e51b815260206004820152602860248201527f496e76616c6964205f7075626c6973684d61726b657446656541646472657373604482015267206164647265737360c01b6064820152608401610bce565b6001600160a01b0382166116c75760405162461bcd60e51b815260206004820152602660248201527f496e76616c6964205f7075626c6973684d61726b6574466565546f6b656e206160448201526564647265737360d01b6064820152608401610bce565b600e80546001600160a01b038581166001600160a01b03199283168117909355600f80549186169190921681179091556010839055604080513381526020810193909352820152606081018290527f02ab4b3fc023109c2d0da394bda239166c833f63c42b71b67ed4b836dca0ddfe9060800160405180910390a1505050565b60006117538333610975565b9050818110156117b15760405162461bcd60e51b8152602060048201526024808201527f45524332303a206275726e20616d6f756e74206578636565647320616c6c6f77604482015263616e636560e01b6064820152608401610bce565b6117be8333848403612e45565b6117c88383613780565b505050565b33600090815260208190526040812054670de0b6b3a764000091908211156118435760405162461bcd60e51b8152602060048201526024808201527f4e6f7420656e6f7567682064617461746f6b656e7320746f207374617274204f604482015263393232b960e11b6064820152608401610bce565b600e5460408051338152602081018590529081018790524260608201524360808201526001600160a01b03918216918816907fe1c4fa794edfa8f619b8257a077398950357b9c6398528f94480307352f9afcc9060a00160405180910390a360006010541180156118be5750600f546001600160a01b031615155b80156118d45750600e546001600160a01b031615155b1561194957600f54600e546010546118fc926001600160a01b0390811692339291169061399f565b600f54600e546010546040519081526001600160a01b0392831692909116907f4049a448ac6f0284a98d2cb9199e73605944ea5bec901a037f88c84703de82b29060200160405180910390a35b600083604001351180156119765750600061196a6040850160208601614899565b6001600160a01b031614155b80156119985750600061198c6020850185614899565b6001600160a01b031614155b15611a35576119c86119b06040850160208601614899565b336119be6020870187614899565b866040013561399f565b6119d86040840160208501614899565b6001600160a01b03166119ee6020850185614899565b6001600160a01b03167f6d11837f46cc09b011cf4aae09fcade046c020aac088090ae4f77ff67b7079728560400135604051611a2c91815260200190565b60405180910390a35b611a3e846132e2565b611a478261127c565b505050505050565b60606014805480602002602001604051908101604052809291908181526020016000905b82821015611abb576000848152602090819020604080518082019091526002850290910180546001600160a01b03168252600190810154828401529083529092019101611a73565b50505050905090565b600c546001600160a01b031633146113b45760405162461bcd60e51b815260206004820152601f60248201527f455243323054656d706c6174653a204e4f542037323120436f6e7472616374006044820152606401610bce565b336001600160a01b0382161415611b775760405162461bcd60e51b815260206004820152601f60248201527f50726f76696465722063616e6e6f742062652074686520636f6e73756d6572006044820152606401610bce565b60006040518060400160405280601c81526020017f19457468657265756d205369676e6564204d6573736167653a0a33320000000081525090506000818c8c8c604051602001611bc9939291906152c5565b60405160208183030381529060405280519060200120604051602001611bf09291906152df565b604051602081830303815290604052805190602001209050336001600160a01b0316611c52828b8b8080601f016020809104026020016040519081016040528093929190818152602001838380828437600092019190915250613aed92505050565b6001600160a01b031614611ca85760405162461bcd60e51b815260206004820152601f60248201527f50726f7669646572207369676e617475726520636865636b206661696c6564006044820152606401610bce565b6000828888604051602001611cbe929190615301565b60405160208183030381529060405280519060200120604051602001611ce59291906152df565b604051602081830303815290604052805190602001209050836001600160a01b0316611d478288888080601f016020809104026020016040519081016040528093929190818152602001838380828437600092019190915250613aed92505050565b6001600160a01b031614611d9d5760405162461bcd60e51b815260206004820152601f60248201527f436f6e73756d6572207369676e617475726520636865636b206661696c6564006044820152606401610bce565b836001600160a01b0316336001600160a01b03167fc9a10280e9c735c63092fa5431e6acb3ed342e08b69a083e5e676994eb7070f98f8f8f8f8f8f8f8f8f4243604051611df49b9a9998979695949392919061533a565b60405180910390a350505050505050505050505050565b600c5460405163160a792560e01b81523360048201526000916001600160a01b03169063160a7925906024016080604051808303816000875af1158015611e56573d6000803e3d6000fd5b505050506040513d601f19601f82011682018060405250810190611e7a919061516a565b6020015180611efc5750600c546040516331a9108f60e11b81526001600482015233916001600160a01b031690636352211e90602401602060405180830381865afa158015611ecd573d6000803e3d6000fd5b505050506040513d601f19601f82011682018060405250810190611ef191906151ee565b6001600160a01b0316145b611f185760405162461bcd60e51b8152600401610bce9061520b565b60026007541415611f3b5760405162461bcd60e51b8152600401610bce90615240565b60026007819055503083600381518110611f5757611f576153ac565b6001600160a01b039283166020918202929092010152601354604051638244937560e01b8152911690638244937590611f98908790879087906004016153c2565b6020604051808303816000875af1158015611fb7573d6000803e3d6000fd5b505050506040513d601f19601f82011682018060405250810190611fdb9190615428565b9050600082600481518110611ff257611ff26153ac565b602002602001015111156120095761200984612f69565b8260008151811061201c5761201c6153ac565b60200260200101516001600160a01b031683600181518110612040576120406153ac565b60200260200101516001600160a01b03167fb3fac3ae95956dbac74e63ba8dac94081832395c8788e3049c900a7732f3480583876040516120949291909182526001600160a01b0316602082015260400190565b60405180910390a3604080518082019091526001600160a01b03948516815260208101828152601480546001808201835560009290925292517fce6d7b5282bd9a3661ae061feed1dbda4e52ab073b1f9285be6e155d9c38d4ec600290940293840180546001600160a01b0319169190981617909655517fce6d7b5282bd9a3661ae061feed1dbda4e52ab073b1f9285be6e155d9c38d4ed909101556007939093555090919050565b606060098054610a2890615135565b600c5460405163160a792560e01b81526001600160a01b038381166004830152600092169063160a7925906024016080604051808303816000875af1158015612199573d6000803e3d6000fd5b505050506040513d601f19601f820116820180604052508101906121bd919061516a565b6020015192915050565b600c5460405163160a792560e01b81523360048201526001600160a01b039091169063160a7925906024016080604051808303816000875af1158015612211573d6000803e3d6000fd5b505050506040513d601f19601f82011682018060405250810190612235919061516a565b60200151806122b75750600c546040516331a9108f60e11b81526001600482015233916001600160a01b031690636352211e90602401602060405180830381865afa158015612288573d6000803e3d6000fd5b505050506040513d601f19601f820116820180604052508101906122ac91906151ee565b6001600160a01b0316145b6122d35760405162461bcd60e51b8152600401610bce9061520b565b61100a81612f69565b3360009081526001602090815260408083206001600160a01b03861684529091528120548281101561235e5760405162461bcd60e51b815260206004820152602560248201527f45524332303a2064656372656173656420616c6c6f77616e63652062656c6f77604482015264207a65726f60d81b6064820152608401610bce565b61236b3385858403612e45565b5060019392505050565b600260075414156123985760405162461bcd60e51b8152600401610bce90615240565b60026007556000806123ad6020840184614899565b604051634c87087d60e01b8152602085013560048201526001600160a01b039190911690634c87087d9060240161018060405180830381865afa1580156123f8573d6000803e3d6000fd5b505050506040513d601f19601f8201168201806040525081019061241c9190615441565b5050505050505050935050925050306001600160a01b0316826001600160a01b03161461249b5760405162461bcd60e51b815260206004820152602760248201527f5468697320466978656452617465206973206e6f742070726f766964696e67206044820152661d1a1a5cc8111560ca1b6064820152608401610bce565b60006124aa6020850185614899565b604051636e8de4b560e11b815260208601356004820152670de0b6b3a76400006024820152606086013560448201526001600160a01b03919091169063dd1bc96a90606401608060405180830381865afa15801561250c573d6000803e3d6000fd5b505050506040513d601f19601f8201168201806040525081019061253091906154fe565b505050905083604001358111156125995760405162461bcd60e51b815260206004820152602760248201527f46697865645261746545786368616e67653a20546f6f206d616e79206261736560448201526620746f6b656e7360c81b6064820152608401610bce565b6125a58233308461399f565b6125c66125b56020860186614899565b6001600160a01b0384169083613bc5565b6125d36020850185614899565b6001600160a01b03166368c4b7e96020860135670de0b6b3a76400008461260060a08a0160808b01614899565b6040516001600160e01b031960e087901b1681526004810194909452602484019290925260448301526001600160a01b031660648201526060870135608482015260a401600060405180830381600087803b15801561265e57600080fd5b505af1158015612672573d6000803e3d6000fd5b505030600090815260208190526040902054670de0b6b3a76400009250905010156126df5760405162461bcd60e51b815260206004820152601f60248201527f556e61626c6520746f206275792044542066726f6d20466978656452617465006044820152606401610bce565b6126f23033670de0b6b3a7640000613040565b61271d6127026020870187614899565b60208701356127146040890189615277565b886060016117cd565b50506001600755505050565b6000610ab8338484613040565b600c5460405163160a792560e01b81523360048201526001600160a01b039091169063160a7925906024016080604051808303816000875af1158015612780573d6000803e3d6000fd5b505050506040513d601f19601f820116820180604052508101906127a4919061516a565b60200151806128265750600c546040516331a9108f60e11b81526001600482015233916001600160a01b031690636352211e90602401602060405180830381865afa1580156127f7573d6000803e3d6000fd5b505050506040513d601f19601f8201168201806040525081019061281b91906151ee565b6001600160a01b0316145b6128425760405162461bcd60e51b8152600401610bce9061520b565b61100a81613caa565b600c5460405163160a792560e01b81523360048201526001600160a01b039091169063160a7925906024016080604051808303816000875af1158015612895573d6000803e3d6000fd5b505050506040513d601f19601f820116820180604052508101906128b9919061516a565b602001518061293b5750600c546040516331a9108f60e11b81526001600482015233916001600160a01b031690636352211e90602401602060405180830381865afa15801561290c573d6000803e3d6000fd5b505050506040513d601f19601f8201168201806040525081019061293091906151ee565b6001600160a01b0316145b6129575760405162461bcd60e51b8152600401610bce9061520b565b6040516bffffffffffffffffffffffff193060601b16602082015260009060340160408051601f19818403018152908290528051602090910120600c546301caf8fd60e31b83529092506001600160a01b031690630e57c7e8906129c390849087908790600401615534565b600060405180830381600087803b1580156129dd57600080fd5b505af11580156129f1573d6000803e3d6000fd5b50505050505050565b600b54600090600160a01b900460ff1615612a715760405162461bcd60e51b815260206004820152603160248201527f455243323054656d706c6174653a20746f6b656e20696e7374616e636520616c6044820152701c9958591e481a5b9a5d1a585b1a5e9959607a1b6064820152608401610bce565b612b25612a7e8b8d6155ae565b8a8a8080602002602001604051908101604052809392919081815260200183836020028082843760009201919091525050604080516020808e0282810182019093528d82529093508d92508c91829185019084908082843760009201919091525050604080516020808d0282810182019093528c82529093508c92508b918291850190849080828437600092019190915250612b2092508991508a9050615635565b613d8b565b9b9a5050505050505050505050565b43841015612b775760405162461bcd60e51b815260206004820152601060248201526f115490cc8c11150e881156141254915160821b6044820152606401610bce565b6011546001600160a01b038816600090815260126020526040812080549192917f6e71edae12b1b97f4d1f60370fef10105fa2faae0126114a169c64845d6126c9918b918b918b919087612bca836156b0565b909155506040805160208101969096526001600160a01b0394851690860152929091166060840152608083015260a082015260c0810187905260e00160405160208183030381529060405280519060200120604051602001612c4392919061190160f01b81526002810192909252602282015260420190565b60408051601f198184030181528282528051602091820120600080855291840180845281905260ff88169284019290925260608301869052608083018590529092509060019060a0016020604051602081039080840390855afa158015612cae573d6000803e3d6000fd5b5050604051601f1901519150506001600160a01b03811615801590612ce45750886001600160a01b0316816001600160a01b0316145b612d305760405162461bcd60e51b815260206004820152601a60248201527f455243323044543a20494e56414c49445f5349474e41545552450000000000006044820152606401610bce565b612d3b898989612e45565b505050505050505050565b612d4e612d86565b6001600160a01b03166108fc479081150290604051600060405180830381858888f1935050505015801561100a573d6000803e3d6000fd5b600d546000906001600160a01b0316612e0b57600c546040516331a9108f60e11b8152600160048201526001600160a01b0390911690636352211e90602401602060405180830381865afa158015612de2573d6000803e3d6000fd5b505050506040513d601f19601f82011682018060405250810190612e0691906151ee565b905090565b50600d546001600160a01b031690565b60068181548110612e2b57600080fd5b6000918252602090912001546001600160a01b0316905081565b6001600160a01b038316612ea75760405162461bcd60e51b8152602060048201526024808201527f45524332303a20617070726f76652066726f6d20746865207a65726f206164646044820152637265737360e01b6064820152608401610bce565b6001600160a01b038216612f085760405162461bcd60e51b815260206004820152602260248201527f45524332303a20617070726f766520746f20746865207a65726f206164647265604482015261737360f01b6064820152608401610bce565b6001600160a01b0383811660008181526001602090815260408083209487168084529482529182902085905590518481527f8c5be1e5ebec7d5bd14f71427d1e84f3dd0314c0f7b2291e5b200ac8c7c3b925910160405180910390a3505050565b6001600160a01b0381161561100a576001600160a01b0381166000908152600560205260409020805460ff1615612fe25760405162461bcd60e51b815260206004820152601d60248201527f4552433230526f6c65733a2020414c52454144592041204d494e5445520000006044820152606401610bce565b805460ff19166001178155612ff6826142e2565b6040805142815243602082015233916001600160a01b038516917f4f7e100eb1ee13e903798bd0d6aa854152e07eb05544f392b9409c12935c809591015b60405180910390a35050565b6001600160a01b0383166130a45760405162461bcd60e51b815260206004820152602560248201527f45524332303a207472616e736665722066726f6d20746865207a65726f206164604482015264647265737360d81b6064820152608401610bce565b6001600160a01b0382166131065760405162461bcd60e51b815260206004820152602360248201527f45524332303a207472616e7366657220746f20746865207a65726f206164647260448201526265737360e81b6064820152608401610bce565b6001600160a01b0383166000908152602081905260409020548181101561317e5760405162461bcd60e51b815260206004820152602660248201527f45524332303a207472616e7366657220616d6f756e7420657863656564732062604482015265616c616e636560d01b6064820152608401610bce565b6001600160a01b038085166000908152602081905260408082208585039055918516815290812080548492906131b59084906152ad565b92505081905550826001600160a01b0316846001600160a01b03167fddf252ad1be2c89b69c2b068fc378daa952ba7f163c4a11628f55a4df523b3ef8460405161320191815260200190565b60405180910390a35b50505050565b6001600160a01b03811660008181526005602052604090819020805461ff00191681559051909133917faee911eec8b2df8f3ae0464841541b1e5f339519bd5cf51889fe8b07fecff658906132719042904390918252602082015260400190565b60405180910390a361116f82614399565b6001600160a01b03811660008181526005602052604090819020805460ff191681559051909133917fefa2735987005aaa89c050c0ff8cc9ae7d9079d19382081c429130f98c52d480906132719042904390918252602082015260400190565b60408051808201909152601c81527f19457468657265756d205369676e6564204d6573736167653a0a333200000000602082015260008161332660e08501856156cb565b6133336020870187614899565b6133436040880160208901614899565b87604001358860c0013560405160200161336296959493929190615711565b604051602081830303815290604052805190602001206040516020016133899291906152df565b60408051601f198184030181529190528051602090910120905060006001826133b8608087016060880161574f565b6040805160008152602081018083529390935260ff90911690820152608080870135606083015260a08088013591830191909152016020604051602081039080840390855afa15801561340f573d6000803e3d6000fd5b5050604051601f190151915061342a90506020850185614899565b6001600160a01b0316816001600160a01b0316146134815760405162461bcd60e51b8152602060048201526014602482015273496e76616c69642070726f76696465722066656560601b6044820152606401610bce565b6134916040850160208601614899565b6001600160a01b03166134a76020860186614899565b6001600160a01b03167ff8ed11cdaaf10eca2b6c941fb802cb8682afe86cac1eb93f70d0780fa062c54460408701356134e360e08901896156cb565b6134f360808b0160608c0161574f565b8a608001358b60a001358c60c00135604051613515979695949392919061576a565b60405180910390a36000846040013511801561354a5750600061353e6040860160208701614899565b6001600160a01b031614155b801561356c575060006135606020860186614899565b6001600160a01b031614155b1561320a5760135460408051636c45e88160e01b815290516000926001600160a01b031691636c45e8819160048083019260209291908290030181865afa1580156135bb573d6000803e3d6000fd5b505050506040513d601f19601f820116820180604052508101906135df9190615428565b90506000811561360c57613609670de0b6b3a76400006136036040890135856144e7565b906144f3565b90505b600061361c6040880135836144ff565b905061363d6136316040890160208a01614899565b33308a6040013561399f565b61366e61364d6020890189614899565b8261365e60408b0160208c01614899565b6001600160a01b0316919061450b565b81156129f157600b546129f1906001600160a01b03168361365e60408b0160208c01614899565b6000610eee82846152ad565b6001600160a01b0382166136f75760405162461bcd60e51b815260206004820152601f60248201527f45524332303a206d696e7420746f20746865207a65726f2061646472657373006044820152606401610bce565b806002600082825461370991906152ad565b90915550506001600160a01b038216600090815260208190526040812080548392906137369084906152ad565b90915550506040518181526001600160a01b038316906000907fddf252ad1be2c89b69c2b068fc378daa952ba7f163c4a11628f55a4df523b3ef9060200160405180910390a35050565b6001600160a01b0382166137e05760405162461bcd60e51b815260206004820152602160248201527f45524332303a206275726e2066726f6d20746865207a65726f206164647265736044820152607360f81b6064820152608401610bce565b6001600160a01b038216600090815260208190526040902054818110156138545760405162461bcd60e51b815260206004820152602260248201527f45524332303a206275726e20616d6f756e7420657863656564732062616c616e604482015261636560f01b6064820152608401610bce565b6001600160a01b03831660009081526020819052604081208383039055600280548492906138839084906157ad565b90915550506040518281526000906001600160a01b038516907fddf252ad1be2c89b69c2b068fc378daa952ba7f163c4a11628f55a4df523b3ef9060200160405180910390a3505050565b60005b60065481101561393457600060056000600684815481106138f4576138f46153ac565b60009182526020808320909101546001600160a01b031683528201929092526040019020805461ffff19169055508061392c816156b0565b9150506138d1565b50613941600660006147bd565b6040805142815243602082015233917f712bc71db81927a76b8bf1ea346247bb0ad58f18e4e5c1bd4aa0ec6573e02a2b910160405180910390a2565b600d80546001600160a01b0319166001600160a01b0392909216919091179055565b6040516370a0823160e01b81526001600160a01b038381166004830152600091908616906370a0823190602401602060405180830381865afa1580156139e9573d6000803e3d6000fd5b505050506040513d601f19601f82011682018060405250810190613a0d9190615428565b9050613a246001600160a01b03861685858561453b565b613a2e8183613695565b6040516370a0823160e01b81526001600160a01b0385811660048301528716906370a0823190602401602060405180830381865afa158015613a74573d6000803e3d6000fd5b505050506040513d601f19601f82011682018060405250810190613a989190615428565b1015613ae65760405162461bcd60e51b815260206004820152601a60248201527f5472616e7366657220616d6f756e7420697320746f6f206c6f770000000000006044820152606401610bce565b5050505050565b6000806000808451604114613b085760009350505050610abc565b50505060208201516040830151604184015160ff16601b811015613b3457613b31601b826157c4565b90505b8060ff16601b14158015613b4c57508060ff16601c14155b15613b5d5760009350505050610abc565b60408051600081526020810180835288905260ff831691810191909152606081018490526080810183905260019060a0016020604051602081039080840390855afa158015613bb0573d6000803e3d6000fd5b5050604051601f190151979650505050505050565b604051636eb1769f60e11b81523060048201526001600160a01b038381166024830152600091839186169063dd62ed3e90604401602060405180830381865afa158015613c16573d6000803e3d6000fd5b505050506040513d601f19601f82011682018060405250810190613c3a9190615428565b613c4491906152ad565b6040516001600160a01b03851660248201526044810182905290915061320a90859063095ea7b360e01b906064015b60408051601f198184030181529190526020810180516001600160e01b03166001600160e01b031990931692909217909152614573565b6001600160a01b0381161561100a576001600160a01b03811660009081526005602052604090208054610100900460ff1615613d335760405162461bcd60e51b815260206004820152602260248201527f4552433230526f6c65733a2020414c5245414459204120464545204d414e414760448201526122a960f11b6064820152608401610bce565b805461ff001916610100178155613d49826142e2565b6040805142815243602082015233916001600160a01b038516917fb17da2e9910b4ba5754e8872385ba315a238bafb5ae221fc85093c33432c40a79101613034565b60008084600081518110613da157613da16153ac565b60200260200101519050600085600181518110613dc057613dc06153ac565b6020026020010151905060006001600160a01b0316826001600160a01b03161415613e425760405162461bcd60e51b815260206004820152602c60248201527f455243323054656d706c6174653a20496e76616c6964206d696e7465722c202060448201526b7a65726f206164647265737360a01b6064820152608401610bce565b6001600160a01b038116613ebe5760405162461bcd60e51b815260206004820152603c60248201527f455243323054656d706c6174653a20496e76616c696420636f6d6d756e69747960448201527f2066656520636f6c6c6563746f722c207a65726f2061646472657373000000006064820152608401610bce565b84600081518110613ed157613ed16153ac565b602002602001015160001415613f355760405162461bcd60e51b8152602060048201526024808201527f44617461746f6b656e54656d706c6174653a20496e76616c6964206361702076604482015263616c756560e01b6064820152608401610bce565b84600081518110613f4857613f486153ac565b6020026020010151600a8190555087600081518110613f6957613f696153ac565b602002602001015160089080519060200190613f869291906147db565b5087600181518110613f9a57613f9a6153ac565b602002602001015160099080519060200190613fb79291906147db565b50600c80546001600160a01b0319166001600160a01b038416179055855186906002908110613fe857613fe86153ac565b6020908102919091010151601380546001600160a01b039283166001600160a01b0319909116179055600b80546001600160a81b03191691831691909117600160a01b1790558651614052908890600090614045576140456153ac565b6020026020010151612f69565b60006001600160a01b031687600181518110614070576140706153ac565b60200260200101516001600160a01b03161461411a576140a98760018151811061409c5761409c6153ac565b602002602001015161397d565b866001815181106140bc576140bc6153ac565b60200260200101516001600160a01b0316336001600160a01b03167f4d7694d695c57cc54947177c8e8a0e61aae664e9223492a798c32fadfc6419cc4243604051614111929190918252602082015260400190565b60405180910390a35b8660028151811061412d5761412d6153ac565b6020026020010151600e60006101000a8154816001600160a01b0302191690836001600160a01b031602179055508660038151811061416e5761416e6153ac565b6020026020010151600f60006101000a8154816001600160a01b0302191690836001600160a01b03160217905550846001815181106141af576141af6153ac565b6020908102919091018101516010819055600e54600f54604080513381526001600160a01b039384169581019590955291169083015260608201527f02ab4b3fc023109c2d0da394bda239166c833f63c42b71b67ed4b836dca0ddfe9060800160405180910390a160405146907f8b73c3c69bb8fe3d512ecc4cf759cc79239f7b179b0ffacaa9a75d522b39400f9061424a906008906157e9565b60408051918290038220828201825260018352603160f81b6020938401528151928301939093528101919091527fc89efdaa54c0f20c7adf612882df0950f5a951637e0307cdcb4c672f298b8bc66060820152608081018290523060a082015260c00160408051808303601f1901815291905280516020909101206011555050600b54600160a01b900460ff16979650505050505050565b60005b60065481101561433e57816001600160a01b03166006828154811061430c5761430c6153ac565b6000918252602090912001546001600160a01b0316141561432c5761433e565b80614336816156b0565b9150506142e5565b60065481141561116f57600680546001810182556000919091527ff652222313e28459528d920b65115c16c04f3efc82aaedc97be59f3f377c0d3f0180546001600160a01b0384166001600160a01b03199091161790555050565b6001600160a01b0381166000908152600560205260409020805460ff161580156143ca57508054610100900460ff16155b1561116f5760005b60065481101561442b57826001600160a01b0316600682815481106143f9576143f96153ac565b6000918252602090912001546001600160a01b031614156144195761442b565b80614423816156b0565b9150506143d2565b6006548110156117c85760068054614445906001906157ad565b81548110614455576144556153ac565b600091825260209091200154600680546001600160a01b039092169183908110614481576144816153ac565b9060005260206000200160006101000a8154816001600160a01b0302191690836001600160a01b0316021790555060068054806144c0576144c0615885565b600082815260209020810160001990810180546001600160a01b0319169055019055505050565b6000610eee828461589b565b6000610eee82846158ba565b6000610eee82846157ad565b6040516001600160a01b0383166024820152604481018290526117c890849063a9059cbb60e01b90606401613c73565b6040516001600160a01b038085166024830152831660448201526064810182905261320a9085906323b872dd60e01b90608401613c73565b60006145c8826040518060400160405280602081526020017f5361666545524332303a206c6f772d6c6576656c2063616c6c206661696c6564815250856001600160a01b03166146459092919063ffffffff16565b8051909150156117c857808060200190518101906145e691906158dc565b6117c85760405162461bcd60e51b815260206004820152602a60248201527f5361666545524332303a204552433230206f7065726174696f6e20646964206e6044820152691bdd081cdd58d8d9595960b21b6064820152608401610bce565b6060614654848460008561465c565b949350505050565b6060824710156146bd5760405162461bcd60e51b815260206004820152602660248201527f416464726573733a20696e73756666696369656e742062616c616e636520666f6044820152651c8818d85b1b60d21b6064820152608401610bce565b843b61470b5760405162461bcd60e51b815260206004820152601d60248201527f416464726573733a2063616c6c20746f206e6f6e2d636f6e74726163740000006044820152606401610bce565b600080866001600160a01b0316858760405161472791906158f9565b60006040518083038185875af1925050503d8060008114614764576040519150601f19603f3d011682016040523d82523d6000602084013e614769565b606091505b5091509150614779828286614784565b979650505050505050565b60608315614793575081610eee565b8251156147a35782518084602001fd5b8160405162461bcd60e51b8152600401610bce91906148e2565b508054600082559060005260206000209081019061100a919061485f565b8280546147e790615135565b90600052602060002090601f016020900481019282614809576000855561484f565b82601f1061482257805160ff191683800117855561484f565b8280016001018555821561484f579182015b8281111561484f578251825591602001919060010190614834565b5061485b92915061485f565b5090565b5b8082111561485b5760008155600101614860565b6001600160a01b038116811461100a57600080fd5b803561489481614874565b919050565b6000602082840312156148ab57600080fd5b8135610eee81614874565b60005b838110156148d15781810151838201526020016148b9565b8381111561320a5750506000910152565b60208152600082518060208401526149018160408501602087016148b6565b601f01601f19169190910160400192915050565b6000806040838503121561492857600080fd5b823561493381614874565b946020939093013593505050565b801515811461100a57600080fd5b600080600080600060a0868803121561496757600080fd5b853561497281614874565b94506020860135935060408601359250606086013561499081614941565b915060808601356149a081614874565b809150509295509295909350565b600060c082840312156149c057600080fd5b50919050565b600080604083850312156149d957600080fd5b82356001600160401b038111156149ef57600080fd5b6149fb858286016149ae565b9250506020830135614a0c81614874565b809150509250929050565b600080600060608486031215614a2c57600080fd5b8335614a3781614874565b92506020840135614a4781614874565b929592945050506040919091013590565b600061010082840312156149c057600080fd5b60008060408385031215614a7e57600080fd5b8235915060208301356001600160401b03811115614a9b57600080fd5b614aa785828601614a58565b9150509250929050565b600060208284031215614ac357600080fd5b5035919050565b600081518084526020808501945080840160005b83811015614b035781516001600160a01b031687529582019590820190600101614ade565b509495945050505050565b602081526000610eee6020830184614aca565b60008060008084860360c0811215614b3857600080fd5b8535614b4381614874565b94506020860135935060408601356001600160401b03811115614b6557600080fd5b614b7188828901614a58565b9350506060605f1982011215614b8657600080fd5b509295919450926060019150565b602080825282518282018190526000919060409081850190868401855b82811015614bdf57815180516001600160a01b03168552860151868501529284019290850190600101614bb1565b5091979650505050505050565b60008083601f840112614bfe57600080fd5b5081356001600160401b03811115614c1557600080fd5b602083019150836020828501011115614c2d57600080fd5b9250929050565b60008060008060008060008060008060c08b8d031215614c5357600080fd5b8a35995060208b01356001600160401b0380821115614c7157600080fd5b614c7d8e838f01614bec565b909b50995060408d0135915080821115614c9657600080fd5b614ca28e838f01614bec565b909950975060608d0135915080821115614cbb57600080fd5b614cc78e838f01614bec565b909750955060808d0135915080821115614ce057600080fd5b50614ced8d828e01614bec565b9094509250614d00905060a08c01614889565b90509295989b9194979a5092959850565b634e487b7160e01b600052604160045260246000fd5b604051601f8201601f191681016001600160401b0381118282101715614d4f57614d4f614d11565b604052919050565b60006001600160401b03821115614d7057614d70614d11565b5060051b60200190565b600082601f830112614d8b57600080fd5b81356020614da0614d9b83614d57565b614d27565b82815260059290921b84018101918181019086841115614dbf57600080fd5b8286015b84811015614dda5780358352918301918301614dc3565b509695505050505050565b600080600060608486031215614dfa57600080fd5b8335614e0581614874565b92506020848101356001600160401b0380821115614e2257600080fd5b818701915087601f830112614e3657600080fd5b8135614e44614d9b82614d57565b81815260059190911b8301840190848101908a831115614e6357600080fd5b938501935b82851015614e8a578435614e7b81614874565b82529385019390850190614e68565b965050506040870135925080831115614ea257600080fd5b5050614eb086828701614d7a565b9150509250925092565b60008082840360c0811215614ece57600080fd5b83356001600160401b03811115614ee457600080fd5b614ef0868287016149ae565b93505060a0601f1982011215614f0557600080fd5b506020830190509250929050565b60008060208385031215614f2657600080fd5b82356001600160401b03811115614f3c57600080fd5b614f4885828601614bec565b90969095509350505050565b60008083601f840112614f6657600080fd5b5081356001600160401b03811115614f7d57600080fd5b6020830191508360208260051b8501011115614c2d57600080fd5b60008060008060008060008060008060a08b8d031215614fb757600080fd5b8a356001600160401b0380821115614fce57600080fd5b614fda8e838f01614f54565b909c509a5060208d0135915080821115614ff357600080fd5b614fff8e838f01614f54565b909a50985060408d013591508082111561501857600080fd5b6150248e838f01614f54565b909850965060608d013591508082111561503d57600080fd5b6150498e838f01614f54565b909650945060808d013591508082111561506257600080fd5b5061506f8d828e01614f54565b915080935050809150509295989b9194979a5092959850565b803560ff8116811461489457600080fd5b600080600080600080600060e0888a0312156150b457600080fd5b87356150bf81614874565b965060208801356150cf81614874565b955060408801359450606088013593506150eb60808901615088565b925060a0880135915060c0880135905092959891949750929550565b6000806040838503121561511a57600080fd5b823561512581614874565b91506020830135614a0c81614874565b600181811c9082168061514957607f821691505b602082108114156149c057634e487b7160e01b600052602260045260246000fd5b60006080828403121561517c57600080fd5b604051608081018181106001600160401b038211171561519e5761519e614d11565b60405282516151ac81614941565b815260208301516151bc81614941565b602082015260408301516151cf81614941565b604082015260608301516151e281614941565b60608201529392505050565b60006020828403121561520057600080fd5b8151610eee81614874565b6020808252818101527f455243323054656d706c6174653a204e4f54204445504c4f59455220524f4c45604082015260600190565b6020808252601f908201527f5265656e7472616e637947756172643a207265656e7472616e742063616c6c00604082015260600190565b6000823560fe1983360301811261528d57600080fd5b9190910192915050565b634e487b7160e01b600052601160045260246000fd5b600082198211156152c0576152c0615297565b500190565b838152818360208301376000910160200190815292915050565b600083516152f18184602088016148b6565b9190910191825250602001919050565b8183823760009101908152919050565b81835281816020850137506000828201602090810191909152601f909101601f19169091010190565b8b815260e06020820152600061535460e083018c8e615311565b8281036040840152615367818b8d615311565b9050828103606084015261537c81898b615311565b90508281036080840152615391818789615311565b60a0840195909552505060c001529998505050505050505050565b634e487b7160e01b600052603260045260246000fd5b6001600160a01b0384168152606060208083018290526000916153e790840186614aca565b838103604085015284518082528286019183019060005b8181101561541a578351835292840192918401916001016153fe565b509098975050505050505050565b60006020828403121561543a57600080fd5b5051919050565b6000806000806000806000806000806000806101808d8f03121561546457600080fd5b8c5161546f81614874565b60208e0151909c5061548081614874565b60408e015160608f0151919c509a5061549881614874565b8099505060808d0151975060a08d0151965060c08d01516154b881614941565b8096505060e08d015194506101008d015193506101208d015192506101408d015191506101608d01516154ea81614941565b809150509295989b509295989b509295989b565b6000806000806080858703121561551457600080fd5b505082516020840151604085015160609095015191969095509092509050565b83815260406020820152600061554e604083018486615311565b95945050505050565b60006001600160401b0383111561557057615570614d11565b615583601f8401601f1916602001614d27565b905082815283838301111561559757600080fd5b828260208301376000602084830101529392505050565b60006155bc614d9b84614d57565b80848252602080830192508560051b8501368111156155da57600080fd5b855b818110156156295780356001600160401b038111156155fb5760008081fd5b870136601f82011261560d5760008081fd5b61561b368235868401615557565b8652509382019382016155dc565b50919695505050505050565b6000615643614d9b84614d57565b80848252602080830192508560051b85013681111561566157600080fd5b855b818110156156295780356001600160401b038111156156825760008081fd5b870136601f8201126156945760008081fd5b6156a2368235868401615557565b865250938201938201615663565b60006000198214156156c4576156c4615297565b5060010190565b6000808335601e198436030181126156e257600080fd5b8301803591506001600160401b038211156156fc57600080fd5b602001915036819003821315614c2d57600080fd5b858782376bffffffffffffffffffffffff19606095861b8116969091019586529290931b909116601484015260288301526048820152606801919050565b60006020828403121561576157600080fd5b610eee82615088565b87815260c06020820152600061578460c08301888a615311565b905060ff861660408301528460608301528360808301528260a083015298975050505050505050565b6000828210156157bf576157bf615297565b500390565b600060ff821660ff84168060ff038211156157e1576157e1615297565b019392505050565b600080835481600182811c91508083168061580557607f831692505b602080841082141561582557634e487b7160e01b86526022600452602486fd5b818015615839576001811461584a57615877565b60ff19861689528489019650615877565b60008a81526020902060005b8681101561586f5781548b820152908501908301615856565b505084890196505b509498975050505050505050565b634e487b7160e01b600052603160045260246000fd5b60008160001904831182151516156158b5576158b5615297565b500290565b6000826158d757634e487b7160e01b600052601260045260246000fd5b500490565b6000602082840312156158ee57600080fd5b8151610eee81614941565b6000825161528d8184602087016148b656fea26469706673582212202c7c6c8403fe42b4c30b376e1b5b217ab777ffe94a9e91f43510a58bdccc573b64736f6c634300080c0033",
  "linkReferences": {},
  "deployedLinkReferences": {}
}