{
  "_format": "hh-sol-artifact-1",
  "contractName": "ERC20TemplateEnterprise",
  "sourceName": "contracts/templates/ERC20TemplateEnterprise.sol",
  "abi": [
    {
      "anonymous": false,
      "inputs": [
        {
          "indexed": true,
          "internalType": "address",
          "name": "user",
          "type": "address"
        },
        {
          "indexed": true,
          "internalType": "address",
          "name": "signer",
          "type": "address"
        },
        {
          "indexed": false,
          "internalType": "uint256",
          "name": "timestamp",
          "type": "uint256"
        },
        {
          "indexed": false,
          "internalType": "uint256",
          "name": "blockNumber",
          "type": "uint256"
        }
      ],
      "name": "AddedMinter",
      "type": "event"
    },
    {
      "anonymous": false,
      "inputs": [
        {
          "indexed": true,
          "internalType": "address",
          "name": "user",
          "type": "address"
        },
        {
          "indexed": true,
          "internalType": "address",
          "name": "signer",
          "type": "address"
        },
        {
          "indexed": false,
          "internalType": "uint256",
          "name": "timestamp",
          "type": "uint256"
        },
        {
          "indexed": false,
          "internalType": "uint256",
          "name": "blockNumber",
          "type": "uint256"
        }
      ],
      "name": "AddedPaymentManager",
      "type": "event"
    },
    {
      "anonymous": false,
      "inputs": [
        {
          "indexed": true,
          "internalType": "address",
          "name": "owner",
          "type": "address"
        },
        {
          "indexed": true,
          "internalType": "address",
          "name": "spender",
          "type": "address"
        },
        {
          "indexed": false,
          "internalType": "uint256",
          "name": "value",
          "type": "uint256"
        }
      ],
      "name": "Approval",
      "type": "event"
    },
    {
      "anonymous": false,
      "inputs": [
        {
          "indexed": true,
          "internalType": "address",
          "name": "signer",
          "type": "address"
        },
        {
          "indexed": false,
          "internalType": "uint256",
          "name": "timestamp",
          "type": "uint256"
        },
        {
          "indexed": false,
          "internalType": "uint256",
          "name": "blockNumber",
          "type": "uint256"
        }
      ],
      "name": "CleanedPermissions",
      "type": "event"
    },
    {
      "anonymous": false,
      "inputs": [
        {
          "indexed": true,
          "internalType": "address",
          "name": "consumeMarketFeeAddress",
          "type": "address"
        },
        {
          "indexed": true,
          "internalType": "address",
          "name": "consumeMarketFeeToken",
          "type": "address"
        },
        {
          "indexed": false,
          "internalType": "uint256",
          "name": "consumeMarketFeeAmount",
          "type": "uint256"
        }
      ],
      "name": "ConsumeMarketFee",
      "type": "event"
    },
    {
      "anonymous": false,
      "inputs": [
        {
          "indexed": false,
          "internalType": "address",
          "name": "currentMinter",
          "type": "address"
        },
        {
          "indexed": false,
          "internalType": "address",
          "name": "newMinter",
          "type": "address"
        }
      ],
      "name": "MinterApproved",
      "type": "event"
    },
    {
      "anonymous": false,
      "inputs": [
        {
          "indexed": false,
          "internalType": "address",
          "name": "currentMinter",
          "type": "address"
        },
        {
          "indexed": false,
          "internalType": "address",
          "name": "newMinter",
          "type": "address"
        }
      ],
      "name": "MinterProposed",
      "type": "event"
    },
    {
      "anonymous": false,
      "inputs": [
        {
          "indexed": false,
          "internalType": "address",
          "name": "dispenserContract",
          "type": "address"
        }
      ],
      "name": "NewDispenser",
      "type": "event"
    },
    {
      "anonymous": false,
      "inputs": [
        {
          "indexed": false,
          "internalType": "bytes32",
          "name": "exchangeId",
          "type": "bytes32"
        },
        {
          "indexed": true,
          "internalType": "address",
          "name": "owner",
          "type": "address"
        },
        {
          "indexed": false,
          "internalType": "address",
          "name": "exchangeContract",
          "type": "address"
        },
        {
          "indexed": true,
          "internalType": "address",
          "name": "baseToken",
          "type": "address"
        }
      ],
      "name": "NewFixedRate",
      "type": "event"
    },
    {
      "anonymous": false,
      "inputs": [
        {
          "indexed": true,
          "internalType": "address",
          "name": "caller",
          "type": "address"
        },
        {
          "indexed": true,
          "internalType": "address",
          "name": "_newPaymentCollector",
          "type": "address"
        },
        {
          "indexed": false,
          "internalType": "uint256",
          "name": "timestamp",
          "type": "uint256"
        },
        {
          "indexed": false,
          "internalType": "uint256",
          "name": "blockNumber",
          "type": "uint256"
        }
      ],
      "name": "NewPaymentCollector",
      "type": "event"
    },
    {
      "anonymous": false,
      "inputs": [
        {
          "indexed": false,
          "internalType": "bytes32",
          "name": "orderTxId",
          "type": "bytes32"
        },
        {
          "indexed": false,
          "internalType": "address",
          "name": "caller",
          "type": "address"
        },
        {
          "indexed": false,
          "internalType": "uint256",
          "name": "timestamp",
          "type": "uint256"
        },
        {
          "indexed": false,
          "internalType": "uint256",
          "name": "number",
          "type": "uint256"
        }
      ],
      "name": "OrderReused",
      "type": "event"
    },
    {
      "anonymous": false,
      "inputs": [
        {
          "indexed": true,
          "internalType": "address",
          "name": "consumer",
          "type": "address"
        },
        {
          "indexed": false,
          "internalType": "address",
          "name": "payer",
          "type": "address"
        },
        {
          "indexed": false,
          "internalType": "uint256",
          "name": "amount",
          "type": "uint256"
        },
        {
          "indexed": false,
          "internalType": "uint256",
          "name": "serviceIndex",
          "type": "uint256"
        },
        {
          "indexed": false,
          "internalType": "uint256",
          "name": "timestamp",
          "type": "uint256"
        },
        {
          "indexed": true,
          "internalType": "address",
          "name": "publishMarketAddress",
          "type": "address"
        },
        {
          "indexed": false,
          "internalType": "uint256",
          "name": "blockNumber",
          "type": "uint256"
        }
      ],
      "name": "OrderStarted",
      "type": "event"
    },
    {
      "anonymous": false,
      "inputs": [
        {
          "indexed": true,
          "internalType": "address",
          "name": "providerFeeAddress",
          "type": "address"
        },
        {
          "indexed": true,
          "internalType": "address",
          "name": "providerFeeToken",
          "type": "address"
        },
        {
          "indexed": false,
          "internalType": "uint256",
          "name": "providerFeeAmount",
          "type": "uint256"
        },
        {
          "indexed": false,
          "internalType": "bytes",
          "name": "providerData",
          "type": "bytes"
        },
        {
          "indexed": false,
          "internalType": "uint8",
          "name": "v",
          "type": "uint8"
        },
        {
          "indexed": false,
          "internalType": "bytes32",
          "name": "r",
          "type": "bytes32"
        },
        {
          "indexed": false,
          "internalType": "bytes32",
          "name": "s",
          "type": "bytes32"
        },
        {
          "indexed": false,
          "internalType": "uint256",
          "name": "validUntil",
          "type": "uint256"
        }
      ],
      "name": "ProviderFee",
      "type": "event"
    },
    {
      "anonymous": false,
      "inputs": [
        {
          "indexed": true,
          "internalType": "address",
          "name": "PublishMarketFeeAddress",
          "type": "address"
        },
        {
          "indexed": true,
          "internalType": "address",
          "name": "PublishMarketFeeToken",
          "type": "address"
        },
        {
          "indexed": false,
          "internalType": "uint256",
          "name": "PublishMarketFeeAmount",
          "type": "uint256"
        }
      ],
      "name": "PublishMarketFee",
      "type": "event"
    },
    {
      "anonymous": false,
      "inputs": [
        {
          "indexed": false,
          "internalType": "address",
          "name": "caller",
          "type": "address"
        },
        {
          "indexed": false,
          "internalType": "address",
          "name": "PublishMarketFeeAddress",
          "type": "address"
        },
        {
          "indexed": false,
          "internalType": "address",
          "name": "PublishMarketFeeToken",
          "type": "address"
        },
        {
          "indexed": false,
          "internalType": "uint256",
          "name": "PublishMarketFeeAmount",
          "type": "uint256"
        }
      ],
      "name": "PublishMarketFeeChanged",
      "type": "event"
    },
    {
      "anonymous": false,
      "inputs": [
        {
          "indexed": true,
          "internalType": "address",
          "name": "user",
          "type": "address"
        },
        {
          "indexed": true,
          "internalType": "address",
          "name": "signer",
          "type": "address"
        },
        {
          "indexed": false,
          "internalType": "uint256",
          "name": "timestamp",
          "type": "uint256"
        },
        {
          "indexed": false,
          "internalType": "uint256",
          "name": "blockNumber",
          "type": "uint256"
        }
      ],
      "name": "RemovedMinter",
      "type": "event"
    },
    {
      "anonymous": false,
      "inputs": [
        {
          "indexed": true,
          "internalType": "address",
          "name": "user",
          "type": "address"
        },
        {
          "indexed": true,
          "internalType": "address",
          "name": "signer",
          "type": "address"
        },
        {
          "indexed": false,
          "internalType": "uint256",
          "name": "timestamp",
          "type": "uint256"
        },
        {
          "indexed": false,
          "internalType": "uint256",
          "name": "blockNumber",
          "type": "uint256"
        }
      ],
      "name": "RemovedPaymentManager",
      "type": "event"
    },
    {
      "anonymous": false,
      "inputs": [
        {
          "indexed": true,
          "internalType": "address",
          "name": "from",
          "type": "address"
        },
        {
          "indexed": true,
          "internalType": "address",
          "name": "to",
          "type": "address"
        },
        {
          "indexed": false,
          "internalType": "uint256",
          "name": "value",
          "type": "uint256"
        }
      ],
      "name": "Transfer",
      "type": "event"
    },
    {
      "stateMutability": "payable",
      "type": "fallback"
    },
    {
      "inputs": [],
      "name": "BASE",
      "outputs": [
        {
          "internalType": "uint256",
          "name": "",
          "type": "uint256"
        }
      ],
      "stateMutability": "view",
      "type": "function"
    },
    {
      "inputs": [],
      "name": "DOMAIN_SEPARATOR",
      "outputs": [
        {
          "internalType": "bytes32",
          "name": "",
          "type": "bytes32"
        }
      ],
      "stateMutability": "view",
      "type": "function"
    },
    {
      "inputs": [],
      "name": "PERMIT_TYPEHASH",
      "outputs": [
        {
          "internalType": "bytes32",
          "name": "",
          "type": "bytes32"
        }
      ],
      "stateMutability": "view",
      "type": "function"
    },
    {
      "inputs": [
        {
          "internalType": "address",
          "name": "_minter",
          "type": "address"
        }
      ],
      "name": "addMinter",
      "outputs": [],
      "stateMutability": "nonpayable",
      "type": "function"
    },
    {
      "inputs": [
        {
          "internalType": "address",
          "name": "_paymentManager",
          "type": "address"
        }
      ],
      "name": "addPaymentManager",
      "outputs": [],
      "stateMutability": "nonpayable",
      "type": "function"
    },
    {
      "inputs": [
        {
          "internalType": "address",
          "name": "owner",
          "type": "address"
        },
        {
          "internalType": "address",
          "name": "spender",
          "type": "address"
        }
      ],
      "name": "allowance",
      "outputs": [
        {
          "internalType": "uint256",
          "name": "",
          "type": "uint256"
        }
      ],
      "stateMutability": "view",
      "type": "function"
    },
    {
      "inputs": [
        {
          "internalType": "address",
          "name": "spender",
          "type": "address"
        },
        {
          "internalType": "uint256",
          "name": "amount",
          "type": "uint256"
        }
      ],
      "name": "approve",
      "outputs": [
        {
          "internalType": "bool",
          "name": "",
          "type": "bool"
        }
      ],
      "stateMutability": "nonpayable",
      "type": "function"
    },
    {
      "inputs": [
        {
          "internalType": "uint256",
          "name": "",
          "type": "uint256"
        }
      ],
      "name": "authERC20",
      "outputs": [
        {
          "internalType": "address",
          "name": "",
          "type": "address"
        }
      ],
      "stateMutability": "view",
      "type": "function"
    },
    {
      "inputs": [
        {
          "internalType": "address",
          "name": "account",
          "type": "address"
        }
      ],
      "name": "balanceOf",
      "outputs": [
        {
          "internalType": "uint256",
          "name": "",
          "type": "uint256"
        }
      ],
      "stateMutability": "view",
      "type": "function"
    },
    {
      "inputs": [
        {
          "internalType": "uint256",
          "name": "amount",
          "type": "uint256"
        }
      ],
      "name": "burn",
      "outputs": [],
      "stateMutability": "nonpayable",
      "type": "function"
    },
    {
      "inputs": [
        {
          "internalType": "address",
          "name": "account",
          "type": "address"
        },
        {
          "internalType": "uint256",
          "name": "amount",
          "type": "uint256"
        }
      ],
      "name": "burnFrom",
      "outputs": [],
      "stateMutability": "nonpayable",
      "type": "function"
    },
    {
      "inputs": [
        {
          "components": [
            {
              "internalType": "address",
              "name": "consumer",
              "type": "address"
            },
            {
              "internalType": "uint256",
              "name": "serviceIndex",
              "type": "uint256"
            },
            {
              "components": [
                {
                  "internalType": "address",
                  "name": "providerFeeAddress",
                  "type": "address"
                },
                {
                  "internalType": "address",
                  "name": "providerFeeToken",
                  "type": "address"
                },
                {
                  "internalType": "uint256",
                  "name": "providerFeeAmount",
                  "type": "uint256"
                },
                {
                  "internalType": "uint8",
                  "name": "v",
                  "type": "uint8"
                },
                {
                  "internalType": "bytes32",
                  "name": "r",
                  "type": "bytes32"
                },
                {
                  "internalType": "bytes32",
                  "name": "s",
                  "type": "bytes32"
                },
                {
                  "internalType": "uint256",
                  "name": "validUntil",
                  "type": "uint256"
                },
                {
                  "internalType": "bytes",
                  "name": "providerData",
                  "type": "bytes"
                }
              ],
              "internalType": "struct ERC20TemplateEnterprise.providerFee",
              "name": "_providerFee",
              "type": "tuple"
            },
            {
              "components": [
                {
                  "internalType": "address",
                  "name": "consumeMarketFeeAddress",
                  "type": "address"
                },
                {
                  "internalType": "address",
                  "name": "consumeMarketFeeToken",
                  "type": "address"
                },
                {
                  "internalType": "uint256",
                  "name": "consumeMarketFeeAmount",
                  "type": "uint256"
                }
              ],
              "internalType": "struct ERC20TemplateEnterprise.consumeMarketFee",
              "name": "_consumeMarketFee",
              "type": "tuple"
            }
          ],
          "internalType": "struct ERC20TemplateEnterprise.OrderParams",
          "name": "_orderParams",
          "type": "tuple"
        },
        {
          "internalType": "address",
          "name": "dispenserContract",
          "type": "address"
        }
      ],
      "name": "buyFromDispenserAndOrder",
      "outputs": [],
      "stateMutability": "nonpayable",
      "type": "function"
    },
    {
      "inputs": [
        {
          "components": [
            {
              "internalType": "address",
              "name": "consumer",
              "type": "address"
            },
            {
              "internalType": "uint256",
              "name": "serviceIndex",
              "type": "uint256"
            },
            {
              "components": [
                {
                  "internalType": "address",
                  "name": "providerFeeAddress",
                  "type": "address"
                },
                {
                  "internalType": "address",
                  "name": "providerFeeToken",
                  "type": "address"
                },
                {
                  "internalType": "uint256",
                  "name": "providerFeeAmount",
                  "type": "uint256"
                },
                {
                  "internalType": "uint8",
                  "name": "v",
                  "type": "uint8"
                },
                {
                  "internalType": "bytes32",
                  "name": "r",
                  "type": "bytes32"
                },
                {
                  "internalType": "bytes32",
                  "name": "s",
                  "type": "bytes32"
                },
                {
                  "internalType": "uint256",
                  "name": "validUntil",
                  "type": "uint256"
                },
                {
                  "internalType": "bytes",
                  "name": "providerData",
                  "type": "bytes"
                }
              ],
              "internalType": "struct ERC20TemplateEnterprise.providerFee",
              "name": "_providerFee",
              "type": "tuple"
            },
            {
              "components": [
                {
                  "internalType": "address",
                  "name": "consumeMarketFeeAddress",
                  "type": "address"
                },
                {
                  "internalType": "address",
                  "name": "consumeMarketFeeToken",
                  "type": "address"
                },
                {
                  "internalType": "uint256",
                  "name": "consumeMarketFeeAmount",
                  "type": "uint256"
                }
              ],
              "internalType": "struct ERC20TemplateEnterprise.consumeMarketFee",
              "name": "_consumeMarketFee",
              "type": "tuple"
            }
          ],
          "internalType": "struct ERC20TemplateEnterprise.OrderParams",
          "name": "_orderParams",
          "type": "tuple"
        },
        {
          "components": [
            {
              "internalType": "address",
              "name": "exchangeContract",
              "type": "address"
            },
            {
              "internalType": "bytes32",
              "name": "exchangeId",
              "type": "bytes32"
            },
            {
              "internalType": "uint256",
              "name": "maxBaseTokenAmount",
              "type": "uint256"
            },
            {
              "internalType": "uint256",
              "name": "swapMarketFee",
              "type": "uint256"
            },
            {
              "internalType": "address",
              "name": "marketFeeAddress",
              "type": "address"
            }
          ],
          "internalType": "struct ERC20TemplateEnterprise.FreParams",
          "name": "_freParams",
          "type": "tuple"
        }
      ],
      "name": "buyFromFreAndOrder",
      "outputs": [],
      "stateMutability": "nonpayable",
      "type": "function"
    },
    {
      "inputs": [],
      "name": "cap",
      "outputs": [
        {
          "internalType": "uint256",
          "name": "",
          "type": "uint256"
        }
      ],
      "stateMutability": "view",
      "type": "function"
    },
    {
      "inputs": [],
      "name": "cleanFrom721",
      "outputs": [],
      "stateMutability": "nonpayable",
      "type": "function"
    },
    {
      "inputs": [],
      "name": "cleanPermissions",
      "outputs": [],
      "stateMutability": "nonpayable",
      "type": "function"
    },
    {
      "inputs": [
        {
          "internalType": "address",
          "name": "_dispenser",
          "type": "address"
        },
        {
          "internalType": "uint256",
          "name": "maxTokens",
          "type": "uint256"
        },
        {
          "internalType": "uint256",
          "name": "maxBalance",
          "type": "uint256"
        },
        {
          "internalType": "bool",
          "name": "withMint",
          "type": "bool"
        },
        {
          "internalType": "address",
          "name": "allowedSwapper",
          "type": "address"
        }
      ],
      "name": "createDispenser",
      "outputs": [],
      "stateMutability": "nonpayable",
      "type": "function"
    },
    {
      "inputs": [
        {
          "internalType": "address",
          "name": "fixedPriceAddress",
          "type": "address"
        },
        {
          "internalType": "address[]",
          "name": "addresses",
          "type": "address[]"
        },
        {
          "internalType": "uint256[]",
          "name": "uints",
          "type": "uint256[]"
        }
      ],
      "name": "createFixedRate",
      "outputs": [
        {
          "internalType": "bytes32",
          "name": "exchangeId",
          "type": "bytes32"
        }
      ],
      "stateMutability": "nonpayable",
      "type": "function"
    },
    {
      "inputs": [],
      "name": "decimals",
      "outputs": [
        {
          "internalType": "uint8",
          "name": "",
          "type": "uint8"
        }
      ],
      "stateMutability": "pure",
      "type": "function"
    },
    {
      "inputs": [
        {
          "internalType": "address",
          "name": "spender",
          "type": "address"
        },
        {
          "internalType": "uint256",
          "name": "subtractedValue",
          "type": "uint256"
        }
      ],
      "name": "decreaseAllowance",
      "outputs": [
        {
          "internalType": "bool",
          "name": "",
          "type": "bool"
        }
      ],
      "stateMutability": "nonpayable",
      "type": "function"
    },
    {
      "inputs": [],
      "name": "getDispensers",
      "outputs": [
        {
          "internalType": "address[]",
          "name": "",
          "type": "address[]"
        }
      ],
      "stateMutability": "view",
      "type": "function"
    },
    {
      "inputs": [],
      "name": "getERC721Address",
      "outputs": [
        {
          "internalType": "address",
          "name": "",
          "type": "address"
        }
      ],
      "stateMutability": "view",
      "type": "function"
    },
    {
      "inputs": [],
      "name": "getFixedRates",
      "outputs": [
        {
          "components": [
            {
              "internalType": "address",
              "name": "contractAddress",
              "type": "address"
            },
            {
              "internalType": "bytes32",
              "name": "id",
              "type": "bytes32"
            }
          ],
          "internalType": "struct ERC20TemplateEnterprise.fixedRate[]",
          "name": "",
          "type": "tuple[]"
        }
      ],
      "stateMutability": "view",
      "type": "function"
    },
    {
      "inputs": [],
      "name": "getId",
      "outputs": [
        {
          "internalType": "uint8",
          "name": "",
          "type": "uint8"
        }
      ],
      "stateMutability": "pure",
      "type": "function"
    },
    {
      "inputs": [],
      "name": "getPaymentCollector",
      "outputs": [
        {
          "internalType": "address",
          "name": "",
          "type": "address"
        }
      ],
      "stateMutability": "view",
      "type": "function"
    },
    {
      "inputs": [
        {
          "internalType": "address",
          "name": "user",
          "type": "address"
        }
      ],
      "name": "getPermissions",
      "outputs": [
        {
          "components": [
            {
              "internalType": "bool",
              "name": "minter",
              "type": "bool"
            },
            {
              "internalType": "bool",
              "name": "paymentManager",
              "type": "bool"
            }
          ],
          "internalType": "struct ERC20Roles.RolesERC20",
          "name": "",
          "type": "tuple"
        }
      ],
      "stateMutability": "view",
      "type": "function"
    },
    {
      "inputs": [],
      "name": "getPublishingMarketFee",
      "outputs": [
        {
          "internalType": "address",
          "name": "",
          "type": "address"
        },
        {
          "internalType": "address",
          "name": "",
          "type": "address"
        },
        {
          "internalType": "uint256",
          "name": "",
          "type": "uint256"
        }
      ],
      "stateMutability": "view",
      "type": "function"
    },
    {
      "inputs": [
        {
          "internalType": "address",
          "name": "spender",
          "type": "address"
        },
        {
          "internalType": "uint256",
          "name": "addedValue",
          "type": "uint256"
        }
      ],
      "name": "increaseAllowance",
      "outputs": [
        {
          "internalType": "bool",
          "name": "",
          "type": "bool"
        }
      ],
      "stateMutability": "nonpayable",
      "type": "function"
    },
    {
      "inputs": [
        {
          "internalType": "string[]",
          "name": "strings_",
          "type": "string[]"
        },
        {
          "internalType": "address[]",
          "name": "addresses_",
          "type": "address[]"
        },
        {
          "internalType": "address[]",
          "name": "factoryAddresses_",
          "type": "address[]"
        },
        {
          "internalType": "uint256[]",
          "name": "uints_",
          "type": "uint256[]"
        },
        {
          "internalType": "bytes[]",
          "name": "bytes_",
          "type": "bytes[]"
        }
      ],
      "name": "initialize",
      "outputs": [
        {
          "internalType": "bool",
          "name": "",
          "type": "bool"
        }
      ],
      "stateMutability": "nonpayable",
      "type": "function"
    },
    {
      "inputs": [
        {
          "internalType": "address",
          "name": "user",
          "type": "address"
        }
      ],
      "name": "isERC20Deployer",
      "outputs": [
        {
          "internalType": "bool",
          "name": "deployer",
          "type": "bool"
        }
      ],
      "stateMutability": "nonpayable",
      "type": "function"
    },
    {
      "inputs": [],
      "name": "isInitialized",
      "outputs": [
        {
          "internalType": "bool",
          "name": "",
          "type": "bool"
        }
      ],
      "stateMutability": "view",
      "type": "function"
    },
    {
      "inputs": [
        {
          "internalType": "address",
          "name": "account",
          "type": "address"
        }
      ],
      "name": "isMinter",
      "outputs": [
        {
          "internalType": "bool",
          "name": "",
          "type": "bool"
        }
      ],
      "stateMutability": "view",
      "type": "function"
    },
    {
      "inputs": [
        {
          "internalType": "address",
          "name": "account",
          "type": "address"
        },
        {
          "internalType": "uint256",
          "name": "value",
          "type": "uint256"
        }
      ],
      "name": "mint",
      "outputs": [],
      "stateMutability": "nonpayable",
      "type": "function"
    },
    {
      "inputs": [],
      "name": "name",
      "outputs": [
        {
          "internalType": "string",
          "name": "",
          "type": "string"
        }
      ],
      "stateMutability": "view",
      "type": "function"
    },
    {
      "inputs": [
        {
          "internalType": "address",
          "name": "",
          "type": "address"
        }
      ],
      "name": "nonces",
      "outputs": [
        {
          "internalType": "uint256",
          "name": "",
          "type": "uint256"
        }
      ],
      "stateMutability": "view",
      "type": "function"
    },
    {
      "inputs": [
        {
          "internalType": "address",
          "name": "",
          "type": "address"
        }
      ],
      "name": "permissions",
      "outputs": [
        {
          "internalType": "bool",
          "name": "minter",
          "type": "bool"
        },
        {
          "internalType": "bool",
          "name": "paymentManager",
          "type": "bool"
        }
      ],
      "stateMutability": "view",
      "type": "function"
    },
    {
      "inputs": [
        {
          "internalType": "address",
          "name": "owner",
          "type": "address"
        },
        {
          "internalType": "address",
          "name": "spender",
          "type": "address"
        },
        {
          "internalType": "uint256",
          "name": "value",
          "type": "uint256"
        },
        {
          "internalType": "uint256",
          "name": "deadline",
          "type": "uint256"
        },
        {
          "internalType": "uint8",
          "name": "v",
          "type": "uint8"
        },
        {
          "internalType": "bytes32",
          "name": "r",
          "type": "bytes32"
        },
        {
          "internalType": "bytes32",
          "name": "s",
          "type": "bytes32"
        }
      ],
      "name": "permit",
      "outputs": [],
      "stateMutability": "nonpayable",
      "type": "function"
    },
    {
      "inputs": [
        {
          "internalType": "address",
          "name": "_minter",
          "type": "address"
        }
      ],
      "name": "removeMinter",
      "outputs": [],
      "stateMutability": "nonpayable",
      "type": "function"
    },
    {
      "inputs": [
        {
          "internalType": "address",
          "name": "_paymentManager",
          "type": "address"
        }
      ],
      "name": "removePaymentManager",
      "outputs": [],
      "stateMutability": "nonpayable",
      "type": "function"
    },
    {
      "inputs": [
        {
          "internalType": "bytes32",
          "name": "orderTxId",
          "type": "bytes32"
        },
        {
          "components": [
            {
              "internalType": "address",
              "name": "providerFeeAddress",
              "type": "address"
            },
            {
              "internalType": "address",
              "name": "providerFeeToken",
              "type": "address"
            },
            {
              "internalType": "uint256",
              "name": "providerFeeAmount",
              "type": "uint256"
            },
            {
              "internalType": "uint8",
              "name": "v",
              "type": "uint8"
            },
            {
              "internalType": "bytes32",
              "name": "r",
              "type": "bytes32"
            },
            {
              "internalType": "bytes32",
              "name": "s",
              "type": "bytes32"
            },
            {
              "internalType": "uint256",
              "name": "validUntil",
              "type": "uint256"
            },
            {
              "internalType": "bytes",
              "name": "providerData",
              "type": "bytes"
            }
          ],
          "internalType": "struct ERC20TemplateEnterprise.providerFee",
          "name": "_providerFee",
          "type": "tuple"
        }
      ],
      "name": "reuseOrder",
      "outputs": [],
      "stateMutability": "nonpayable",
      "type": "function"
    },
    {
      "inputs": [],
      "name": "router",
      "outputs": [
        {
          "internalType": "address",
          "name": "",
          "type": "address"
        }
      ],
      "stateMutability": "view",
      "type": "function"
    },
    {
      "inputs": [
        {
          "internalType": "bytes",
          "name": "_value",
          "type": "bytes"
        }
      ],
      "name": "setData",
      "outputs": [],
      "stateMutability": "nonpayable",
      "type": "function"
    },
    {
      "inputs": [
        {
          "internalType": "address",
          "name": "_newPaymentCollector",
          "type": "address"
        }
      ],
      "name": "setPaymentCollector",
      "outputs": [],
      "stateMutability": "nonpayable",
      "type": "function"
    },
    {
      "inputs": [
        {
          "internalType": "address",
          "name": "_publishMarketFeeAddress",
          "type": "address"
        },
        {
          "internalType": "address",
          "name": "_publishMarketFeeToken",
          "type": "address"
        },
        {
          "internalType": "uint256",
          "name": "_publishMarketFeeAmount",
          "type": "uint256"
        }
      ],
      "name": "setPublishingMarketFee",
      "outputs": [],
      "stateMutability": "nonpayable",
      "type": "function"
    },
    {
      "inputs": [
        {
          "internalType": "address",
          "name": "consumer",
          "type": "address"
        },
        {
          "internalType": "uint256",
          "name": "serviceIndex",
          "type": "uint256"
        },
        {
          "components": [
            {
              "internalType": "address",
              "name": "providerFeeAddress",
              "type": "address"
            },
            {
              "internalType": "address",
              "name": "providerFeeToken",
              "type": "address"
            },
            {
              "internalType": "uint256",
              "name": "providerFeeAmount",
              "type": "uint256"
            },
            {
              "internalType": "uint8",
              "name": "v",
              "type": "uint8"
            },
            {
              "internalType": "bytes32",
              "name": "r",
              "type": "bytes32"
            },
            {
              "internalType": "bytes32",
              "name": "s",
              "type": "bytes32"
            },
            {
              "internalType": "uint256",
              "name": "validUntil",
              "type": "uint256"
            },
            {
              "internalType": "bytes",
              "name": "providerData",
              "type": "bytes"
            }
          ],
          "internalType": "struct ERC20TemplateEnterprise.providerFee",
          "name": "_providerFee",
          "type": "tuple"
        },
        {
          "components": [
            {
              "internalType": "address",
              "name": "consumeMarketFeeAddress",
              "type": "address"
            },
            {
              "internalType": "address",
              "name": "consumeMarketFeeToken",
              "type": "address"
            },
            {
              "internalType": "uint256",
              "name": "consumeMarketFeeAmount",
              "type": "uint256"
            }
          ],
          "internalType": "struct ERC20TemplateEnterprise.consumeMarketFee",
          "name": "_consumeMarketFee",
          "type": "tuple"
        }
      ],
      "name": "startOrder",
      "outputs": [],
      "stateMutability": "nonpayable",
      "type": "function"
    },
    {
      "inputs": [],
      "name": "symbol",
      "outputs": [
        {
          "internalType": "string",
          "name": "",
          "type": "string"
        }
      ],
      "stateMutability": "view",
      "type": "function"
    },
    {
      "inputs": [],
      "name": "totalSupply",
      "outputs": [
        {
          "internalType": "uint256",
          "name": "",
          "type": "uint256"
        }
      ],
      "stateMutability": "view",
      "type": "function"
    },
    {
      "inputs": [
        {
          "internalType": "address",
          "name": "recipient",
          "type": "address"
        },
        {
          "internalType": "uint256",
          "name": "amount",
          "type": "uint256"
        }
      ],
      "name": "transfer",
      "outputs": [
        {
          "internalType": "bool",
          "name": "",
          "type": "bool"
        }
      ],
      "stateMutability": "nonpayable",
      "type": "function"
    },
    {
      "inputs": [
        {
          "internalType": "address",
          "name": "sender",
          "type": "address"
        },
        {
          "internalType": "address",
          "name": "recipient",
          "type": "address"
        },
        {
          "internalType": "uint256",
          "name": "amount",
          "type": "uint256"
        }
      ],
      "name": "transferFrom",
      "outputs": [
        {
          "internalType": "bool",
          "name": "",
          "type": "bool"
        }
      ],
      "stateMutability": "nonpayable",
      "type": "function"
    },
    {
      "inputs": [],
      "name": "withdrawETH",
      "outputs": [],
      "stateMutability": "payable",
      "type": "function"
    }
  ],
  "bytecode": "0x6080604052600b805460ff60a01b191690553480156200001e57600080fd5b5060408051808201825260048152631d195cdd60e21b60208083019182528351808501909452600a8452691d195cdd14de5b589bdb60b21b9084015281519192916200006d9160039162000091565b5080516200008390600490602084019062000091565b505060016007555062000174565b8280546200009f9062000137565b90600052602060002090601f016020900481019282620000c357600085556200010e565b82601f10620000de57805160ff19168380011785556200010e565b828001600101855582156200010e579182015b828111156200010e578251825591602001919060010190620000f1565b506200011c92915062000120565b5090565b5b808211156200011c576000815560010162000121565b600181811c908216806200014c57607f821691505b602082108114156200016e57634e487b7160e01b600052602260045260246000fd5b50919050565b614fd380620001846000396000f3fe6080604052600436106102ad5760003560e01c80635d1ca63111610166578063a8c09b0b116100d3578063d505accf1161008f578063e487c2e81161006c578063e487c2e814610970578063ec342ad014610985578063ef867ff4146109a1578063f887ea40146109c157005b8063d505accf14610902578063dd62ed3e14610922578063e086e5ec1461096857005b8063a8c09b0b14610829578063a9059cbb14610849578063aa271e1a14610869578063aa492ef9146108a2578063ab62f0e1146108c2578063b3998be0146108e257005b806382c03da51161012257806382c03da51461077f5780638b96412b1461079457806395d89b41146107b457806396fb3eaf146107c9578063983b2d56146107e9578063a457c2d71461080957005b80635d1ca631146106a657806370a08231146106ba57806379cc6790146106f057806379d9d7f3146107105780637dda231e146107305780637ecebe001461075257005b8063313ce5671161021c578063397b3743116101d857806347ac7d55116101b557806347ac7d551461062f5780634f189cb21461065157806357a3a31b1461066657806357ad5ff61461068657005b8063397b3743146105b357806340c10f19146105ef57806342966c681461060f57005b8063313ce56714610507578063355274ea14610529578063361fef491461053e5780633644e5151461055e578063392e53cd14610574578063395093511461059357005b8063191c918a1161026b578063191c918a146104335780631b53b05f1461045357806323b872dd1461047357806325b00243146104935780633092afd5146104b357806330adf81f146104d357005b80627ffb78146102af57806301e88208146102e657806306fdde0314610336578063095ea7b314610358578063160a79251461038857806318160ddd14610414575b005b3480156102bb57600080fd5b50600c546001600160a01b03165b6040516001600160a01b0390911681526020015b60405180910390f35b3480156102f257600080fd5b5061031f6103013660046140eb565b60056020526000908152604090205460ff8082169161010090041682565b6040805192151583529015156020830152016102dd565b34801561034257600080fd5b5061034b6109e1565b6040516102dd9190614134565b34801561036457600080fd5b50610378610373366004614167565b610a73565b60405190151581526020016102dd565b34801561039457600080fd5b506103f56103a33660046140eb565b6040805180820190915260008082526020820152506001600160a01b031660009081526005602090815260409182902082518084019093525460ff808216151584526101009091041615159082015290565b60408051825115158152602092830151151592810192909252016102dd565b34801561042057600080fd5b506002545b6040519081526020016102dd565b34801561043f57600080fd5b506102ad61044e3660046141a1565b610a89565b34801561045f57600080fd5b506102ad61046e366004614218565b610c64565b34801561047f57600080fd5b5061037861048e366004614269565b610d92565b34801561049f57600080fd5b506102ad6104ae3660046140eb565b610e3e565b3480156104bf57600080fd5b506102ad6104ce3660046140eb565b610ed8565b3480156104df57600080fd5b506104257f6e71edae12b1b97f4d1f60370fef10105fa2faae0126114a169c64845d6126c981565b34801561051357600080fd5b5060125b60405160ff90911681526020016102dd565b34801561053557600080fd5b50600a54610425565b34801561054a57600080fd5b506102ad6105593660046142bd565b610f6f565b34801561056a57600080fd5b5061042560115481565b34801561058057600080fd5b50600b54600160a01b900460ff16610378565b34801561059f57600080fd5b506103786105ae366004614167565b610fc0565b3480156105bf57600080fd5b50600e54600f54601054604080516001600160a01b039485168152939092166020840152908201526060016102dd565b3480156105fb57600080fd5b506102ad61060a366004614167565b610ffc565b34801561061b57600080fd5b506102ad61062a366004614303565b6110c9565b34801561063b57600080fd5b506106446110d3565b6040516102dd9190614360565b34801561065d57600080fd5b506102ad611134565b34801561067257600080fd5b506102ad6106813660046140eb565b61121b565b34801561069257600080fd5b506102ad6106a1366004614269565b61135d565b3480156106b257600080fd5b506002610517565b3480156106c657600080fd5b506104256106d53660046140eb565b6001600160a01b031660009081526020819052604090205490565b3480156106fc57600080fd5b506102ad61070b366004614167565b6114b1565b34801561071c57600080fd5b506102ad61072b366004614373565b611537565b34801561073c57600080fd5b50610745611a43565b6040516102dd91906143e6565b34801561075e57600080fd5b5061042561076d3660046140eb565b60126020526000908152604090205481565b34801561078b57600080fd5b506102ad611ab8565b3480156107a057600080fd5b506104256107af366004614512565b611b12565b3480156107c057600080fd5b5061034b611dc6565b3480156107d557600080fd5b506103786107e43660046140eb565b611dd5565b3480156107f557600080fd5b506102ad6108043660046140eb565b611e50565b34801561081557600080fd5b50610378610824366004614167565b611ee7565b34801561083557600080fd5b506102ad6108443660046145e7565b611f80565b34801561085557600080fd5b50610378610864366004614167565b612334565b34801561087557600080fd5b506103786108843660046140eb565b6001600160a01b031660009081526005602052604090205460ff1690565b3480156108ae57600080fd5b506102ad6108bd3660046140eb565b612341565b3480156108ce57600080fd5b506102ad6108dd366004614640565b6123d8565b3480156108ee57600080fd5b506103786108fd3660046146fc565b612509565b34801561090e57600080fd5b506102ad61091d366004614802565b612643565b34801561092e57600080fd5b5061042561093d366004614870565b6001600160a01b03918216600090815260016020908152604080832093909416825291909152205490565b6102ad612855565b34801561097c57600080fd5b506102c9612895565b34801561099157600080fd5b50610425670de0b6b3a764000081565b3480156109ad57600080fd5b506102c96109bc366004614303565b61292a565b3480156109cd57600080fd5b506013546102c9906001600160a01b031681565b6060600880546109f09061489e565b80601f0160208091040260200160405190810160405280929190818152602001828054610a1c9061489e565b8015610a695780601f10610a3e57610100808354040283529160200191610a69565b820191906000526020600020905b815481529060010190602001808311610a4c57829003601f168201915b5050505050905090565b6000610a80338484612954565b50600192915050565b600c5460405163160a792560e01b81523360048201526001600160a01b039091169063160a7925906024016080604051808303816000875af1158015610ad3573d6000803e3d6000fd5b505050506040513d601f19601f82011682018060405250810190610af791906148d3565b60200151610b205760405162461bcd60e51b8152600401610b1790614957565b60405180910390fd5b60026007541415610b435760405162461bcd60e51b8152600401610b179061498c565b6002600755601354604051636b14d00560e11b81526001600160a01b0387811660048301523060248301819052604483018890526064830187905233608484015260a48301529091169063d629a00a9060c401600060405180830381600087803b158015610bb057600080fd5b505af1158015610bc4573d6000803e3d6000fd5b505050508115610bd757610bd785612a78565b601580546001810182556000919091527f55f448fdea98c4d29eb340757ef0a66cd03dbb9538908a6a81d96026b71ec4750180546001600160a01b0319166001600160a01b0387169081179091556040519081527fa31ffd41531537eb31bfd827a3f5372b5f62bf4dd8579e5354b280dc58490e709060200160405180910390a150506001600755505050565b60026007541415610c875760405162461bcd60e51b8152600401610b179061498c565b6002600755604051631d746d8360e01b8152306004820152670de0b6b3a764000060248201819052336044830152906001600160a01b03831690631d746d8390606401600060405180830381600087803b158015610ce457600080fd5b505af1158015610cf8573d6000803e3d6000fd5b50503360009081526020819052604090205483925090501015610d5d5760405162461bcd60e51b815260206004820152601f60248201527f556e61626c6520746f206765742044542066726f6d2044697370656e736572006044820152606401610b17565b610d88610d6d60208501856140eb565b6020850135610d7f60408701876149c3565b86606001611537565b5050600160075550565b6000610d9f848484612b7a565b6001600160a01b038416600090815260016020908152604080832033845290915290205482811015610e245760405162461bcd60e51b815260206004820152602860248201527f45524332303a207472616e7366657220616d6f756e74206578636565647320616044820152676c6c6f77616e636560c01b6064820152608401610b17565b610e318533858403612954565b60019150505b9392505050565b600c5460405163160a792560e01b81523360048201526001600160a01b039091169063160a7925906024016080604051808303816000875af1158015610e88573d6000803e3d6000fd5b505050506040513d601f19601f82011682018060405250810190610eac91906148d3565b60200151610ecc5760405162461bcd60e51b8152600401610b1790614957565b610ed581612d4a565b50565b600c5460405163160a792560e01b81523360048201526001600160a01b039091169063160a7925906024016080604051808303816000875af1158015610f22573d6000803e3d6000fd5b505050506040513d601f19601f82011682018060405250810190610f4691906148d3565b60200151610f665760405162461bcd60e51b8152600401610b1790614957565b610ed581612dab565b60408051838152336020820152428183015243606082015290517f526e31449ea46e2aecf9b480c8d7dfa191348ef74ffdf75b445a6ab726daa6ff9181900360800190a1610fbc81612e0b565b5050565b3360008181526001602090815260408083206001600160a01b03871684529091528120549091610a80918590610ff79086906149f9565b612954565b3360009081526005602052604090205460ff1661105b5760405162461bcd60e51b815260206004820152601960248201527f455243323054656d706c6174653a204e4f54204d494e544552000000000000006044820152606401610b17565b600a546110718261106b60025490565b906131a8565b11156110bf5760405162461bcd60e51b815260206004820152601f60248201527f44617461746f6b656e54656d706c6174653a20636170206578636565646564006044820152606401610b17565b610fbc82826131b4565b610ed53382613293565b60606015805480602002602001604051908101604052809291908181526020018280548015610a6957602002820191906000526020600020905b81546001600160a01b0316815260019091019060200180831161110d575050505050905090565b600c546040516331a9108f60e11b8152600160048201526001600160a01b0390911690636352211e90602401602060405180830381865afa15801561117d573d6000803e3d6000fd5b505050506040513d601f19601f820116820180604052508101906111a19190614a11565b6001600160a01b0316336001600160a01b0316146112015760405162461bcd60e51b815260206004820152601b60248201527f455243323054656d706c6174653a206e6f74204e46544f776e657200000000006044820152606401610b17565b6112096133e1565b600d80546001600160a01b0319169055565b33600090815260056020526040902054610100900460ff16806112ac5750600c5460405163160a792560e01b81523360048201526001600160a01b039091169063160a7925906024016080604051808303816000875af1158015611283573d6000803e3d6000fd5b505050506040513d601f19601f820116820180604052508101906112a791906148d3565b602001515b61130c5760405162461bcd60e51b815260206004820152602b60248201527f455243323054656d706c6174653a204e4f54205041594d454e54204d414e414760448201526a22a91037b91027aba722a960a91b6064820152608401610b17565b61131581613490565b604080514281524360208201526001600160a01b0383169133917f4d7694d695c57cc54947177c8e8a0e61aae664e9223492a798c32fadfc6419cc910160405180910390a350565b600e546001600160a01b031633146113ca5760405162461bcd60e51b815260206004820152602a60248201527f455243323054656d706c6174653a206e6f74207075626c6973684d61726b65746044820152694665654164647265737360b01b6064820152608401610b17565b6001600160a01b0383166114315760405162461bcd60e51b815260206004820152602860248201527f496e76616c6964205f7075626c6973684d61726b657446656541646472657373604482015267206164647265737360c01b6064820152608401610b17565b600e80546001600160a01b038581166001600160a01b03199283168117909355600f80549186169190921681179091556010839055604080513381526020810193909352820152606081018290527f02ab4b3fc023109c2d0da394bda239166c833f63c42b71b67ed4b836dca0ddfe9060800160405180910390a1505050565b60006114bd833361093d565b90508181101561151b5760405162461bcd60e51b8152602060048201526024808201527f45524332303a206275726e20616d6f756e74206578636565647320616c6c6f77604482015263616e636560e01b6064820152608401610b17565b6115288333848403612954565b6115328383613293565b505050565b33600090815260208190526040812054670de0b6b3a764000091908211156115ad5760405162461bcd60e51b8152602060048201526024808201527f4e6f7420656e6f7567682064617461746f6b656e7320746f207374617274204f604482015263393232b960e11b6064820152608401610b17565b600e5460408051338152602081018590529081018790524260608201524360808201526001600160a01b03918216918816907fe1c4fa794edfa8f619b8257a077398950357b9c6398528f94480307352f9afcc9060a00160405180910390a360006010541180156116285750600f546001600160a01b031615155b801561163e5750600e546001600160a01b031615155b156117f657600f54601054611660916001600160a01b031690339030906134b2565b60135460408051637d28354d60e01b815290516000926001600160a01b031691637d28354d9160048083019260209291908290030181865afa1580156116aa573d6000803e3d6000fd5b505050506040513d601f19601f820116820180604052508101906116ce9190614a2e565b90508015611700576116fd670de0b6b3a76400006116f7836010546135ff90919063ffffffff16565b9061360b565b91505b600e54601054611731916001600160a01b03169061171e9085613617565b600f546001600160a01b03169190613623565b600f54600e546010546001600160a01b0392831692909116907f4049a448ac6f0284a98d2cb9199e73605944ea5bec901a037f88c84703de82b2906117769086613617565b60405190815260200160405180910390a381156117f457600b54600f546117aa916001600160a01b03918216911684613623565b600f54600b546040518481526001600160a01b0392831692909116907f4049a448ac6f0284a98d2cb9199e73605944ea5bec901a037f88c84703de82b29060200160405180910390a35b505b600083604001351180156118235750600061181760408501602086016140eb565b6001600160a01b031614155b80156118455750600061183960208501856140eb565b6001600160a01b031614155b15611a295761186961185d60408501602086016140eb565b333086604001356134b2565b60135460408051637d28354d60e01b815290516000926001600160a01b031691637d28354d9160048083019260209291908290030181865afa1580156118b3573d6000803e3d6000fd5b505050506040513d601f19601f820116820180604052508101906118d79190614a2e565b905080156118fc576118f9670de0b6b3a76400006116f76040870135846135ff565b91505b61193a61190c60208601866140eb565b61191a604087013585613617565b61192a60408801602089016140eb565b6001600160a01b03169190613623565b61194a60408501602086016140eb565b6001600160a01b031661196060208601866140eb565b6001600160a01b03167f6d11837f46cc09b011cf4aae09fcade046c020aac088090ae4f77ff67b707972611998604088013586613617565b60405190815260200160405180910390a38115611a2757600b546119d0906001600160a01b03168361192a60408801602089016140eb565b6119e060408501602086016140eb565b600b546040518481526001600160a01b0392831692909116907f6d11837f46cc09b011cf4aae09fcade046c020aac088090ae4f77ff67b7079729060200160405180910390a35b505b611a3284612e0b565b611a3b826110c9565b505050505050565b60606014805480602002602001604051908101604052809291908181526020016000905b82821015611aaf576000848152602090819020604080518082019091526002850290910180546001600160a01b03168252600190810154828401529083529092019101611a67565b50505050905090565b600c546001600160a01b031633146112015760405162461bcd60e51b815260206004820152601f60248201527f455243323054656d706c6174653a204e4f542037323120436f6e7472616374006044820152606401610b17565b600c5460405163160a792560e01b81523360048201526000916001600160a01b03169063160a7925906024016080604051808303816000875af1158015611b5d573d6000803e3d6000fd5b505050506040513d601f19601f82011682018060405250810190611b8191906148d3565b60200151611ba15760405162461bcd60e51b8152600401610b1790614957565b60026007541415611bc45760405162461bcd60e51b8152600401610b179061498c565b60026007819055503083600381518110611be057611be0614a47565b6001600160a01b039283166020918202929092010152601354604051638244937560e01b8152911690638244937590611c2190879087908790600401614a5d565b6020604051808303816000875af1158015611c40573d6000803e3d6000fd5b505050506040513d601f19601f82011682018060405250810190611c649190614a2e565b9050600082600481518110611c7b57611c7b614a47565b60200260200101511115611c9257611c9284612a78565b82600081518110611ca557611ca5614a47565b60200260200101516001600160a01b031683600181518110611cc957611cc9614a47565b60200260200101516001600160a01b03167fb3fac3ae95956dbac74e63ba8dac94081832395c8788e3049c900a7732f348058387604051611d1d9291909182526001600160a01b0316602082015260400190565b60405180910390a3604080518082019091526001600160a01b03948516815260208101828152601480546001808201835560009290925292517fce6d7b5282bd9a3661ae061feed1dbda4e52ab073b1f9285be6e155d9c38d4ec600290940293840180546001600160a01b0319169190981617909655517fce6d7b5282bd9a3661ae061feed1dbda4e52ab073b1f9285be6e155d9c38d4ed909101556007939093555090919050565b6060600980546109f09061489e565b600c5460405163160a792560e01b81526001600160a01b038381166004830152600092169063160a7925906024016080604051808303816000875af1158015611e22573d6000803e3d6000fd5b505050506040513d601f19601f82011682018060405250810190611e4691906148d3565b6020015192915050565b600c5460405163160a792560e01b81523360048201526001600160a01b039091169063160a7925906024016080604051808303816000875af1158015611e9a573d6000803e3d6000fd5b505050506040513d601f19601f82011682018060405250810190611ebe91906148d3565b60200151611ede5760405162461bcd60e51b8152600401610b1790614957565b610ed581612a78565b3360009081526001602090815260408083206001600160a01b038616845290915281205482811015611f695760405162461bcd60e51b815260206004820152602560248201527f45524332303a2064656372656173656420616c6c6f77616e63652062656c6f77604482015264207a65726f60d81b6064820152608401610b17565b611f763385858403612954565b5060019392505050565b60026007541415611fa35760405162461bcd60e51b8152600401610b179061498c565b6002600755600080611fb860208401846140eb565b604051634c87087d60e01b8152602085013560048201526001600160a01b039190911690634c87087d9060240161018060405180830381865afa158015612003573d6000803e3d6000fd5b505050506040513d601f19601f820116820180604052508101906120279190614ac3565b5050505050505050935050925050306001600160a01b0316826001600160a01b0316146120a65760405162461bcd60e51b815260206004820152602760248201527f5468697320466978656452617465206973206e6f742070726f766964696e67206044820152661d1a1a5cc8111560ca1b6064820152608401610b17565b60006120b560208501856140eb565b604051636e8de4b560e11b815260208601356004820152670de0b6b3a76400006024820152606086013560448201526001600160a01b03919091169063dd1bc96a90606401608060405180830381865afa158015612117573d6000803e3d6000fd5b505050506040513d601f19601f8201168201806040525081019061213b9190614b80565b505050905083604001358111156121a45760405162461bcd60e51b815260206004820152602760248201527f46697865645261746545786368616e67653a20546f6f206d616e79206261736560448201526620746f6b656e7360c81b6064820152608401610b17565b6121b0823330846134b2565b6121d16121c060208601866140eb565b6001600160a01b0384169083613686565b6121de60208501856140eb565b6001600160a01b03166368c4b7e96020860135670de0b6b3a76400008461220b60a08a0160808b016140eb565b6040516001600160e01b031960e087901b1681526004810194909452602484019290925260448301526001600160a01b031660648201526060870135608482015260a401600060405180830381600087803b15801561226957600080fd5b505af115801561227d573d6000803e3d6000fd5b505030600090815260208190526040902054670de0b6b3a76400009250905010156122ea5760405162461bcd60e51b815260206004820152601f60248201527f556e61626c6520746f206275792044542066726f6d20466978656452617465006044820152606401610b17565b6122fd3033670de0b6b3a7640000612b7a565b61232861230d60208701876140eb565b602087013561231f60408901896149c3565b88606001611537565b50506001600755505050565b6000610a80338484612b7a565b600c5460405163160a792560e01b81523360048201526001600160a01b039091169063160a7925906024016080604051808303816000875af115801561238b573d6000803e3d6000fd5b505050506040513d601f19601f820116820180604052508101906123af91906148d3565b602001516123cf5760405162461bcd60e51b8152600401610b1790614957565b610ed581613738565b600c5460405163160a792560e01b81523360048201526001600160a01b039091169063160a7925906024016080604051808303816000875af1158015612422573d6000803e3d6000fd5b505050506040513d601f19601f8201168201806040525081019061244691906148d3565b602001516124665760405162461bcd60e51b8152600401610b1790614957565b6040516bffffffffffffffffffffffff193060601b16602082015260009060340160408051601f19818403018152908290528051602090910120600c546301caf8fd60e31b83529092506001600160a01b031690630e57c7e8906124d290849087908790600401614bdf565b600060405180830381600087803b1580156124ec57600080fd5b505af1158015612500573d6000803e3d6000fd5b50505050505050565b600b54600090600160a01b900460ff16156125805760405162461bcd60e51b815260206004820152603160248201527f455243323054656d706c6174653a20746f6b656e20696e7374616e636520616c6044820152701c9958591e481a5b9a5d1a585b1a5e9959607a1b6064820152608401610b17565b61263461258d8b8d614c59565b8a8a8080602002602001604051908101604052809392919081815260200183836020028082843760009201919091525050604080516020808e0282810182019093528d82529093508d92508c91829185019084908082843760009201919091525050604080516020808d0282810182019093528c82529093508c92508b91829185019084908082843760009201919091525061262f92508991508a9050614ce0565b613846565b9b9a5050505050505050505050565b438410156126865760405162461bcd60e51b815260206004820152601060248201526f115490cc8c11150e881156141254915160821b6044820152606401610b17565b6011546001600160a01b038816600090815260126020526040812080549192917f6e71edae12b1b97f4d1f60370fef10105fa2faae0126114a169c64845d6126c9918b918b918b9190876126d983614d5b565b909155506040805160208101969096526001600160a01b0394851690860152929091166060840152608083015260a082015260c0810187905260e0016040516020818303038152906040528051906020012060405160200161275292919061190160f01b81526002810192909252602282015260420190565b60408051601f198184030181528282528051602091820120600080855291840180845281905260ff88169284019290925260608301869052608083018590529092509060019060a0016020604051602081039080840390855afa1580156127bd573d6000803e3d6000fd5b5050604051601f1901519150506001600160a01b038116158015906127f35750886001600160a01b0316816001600160a01b0316145b61283f5760405162461bcd60e51b815260206004820152601a60248201527f455243323044543a20494e56414c49445f5349474e41545552450000000000006044820152606401610b17565b61284a898989612954565b505050505050505050565b61285d612895565b6001600160a01b03166108fc479081150290604051600060405180830381858888f19350505050158015610ed5573d6000803e3d6000fd5b600d546000906001600160a01b031661291a57600c546040516331a9108f60e11b8152600160048201526001600160a01b0390911690636352211e90602401602060405180830381865afa1580156128f1573d6000803e3d6000fd5b505050506040513d601f19601f820116820180604052508101906129159190614a11565b905090565b50600d546001600160a01b031690565b6006818154811061293a57600080fd5b6000918252602090912001546001600160a01b0316905081565b6001600160a01b0383166129b65760405162461bcd60e51b8152602060048201526024808201527f45524332303a20617070726f76652066726f6d20746865207a65726f206164646044820152637265737360e01b6064820152608401610b17565b6001600160a01b038216612a175760405162461bcd60e51b815260206004820152602260248201527f45524332303a20617070726f766520746f20746865207a65726f206164647265604482015261737360f01b6064820152608401610b17565b6001600160a01b0383811660008181526001602090815260408083209487168084529482529182902085905590518481527f8c5be1e5ebec7d5bd14f71427d1e84f3dd0314c0f7b2291e5b200ac8c7c3b925910160405180910390a3505050565b6001600160a01b0381166000908152600560205260409020805460ff1615612ae25760405162461bcd60e51b815260206004820152601d60248201527f4552433230526f6c65733a2020414c52454144592041204d494e5445520000006044820152606401610b17565b8054600160ff19909116811782556006805491820181556000527ff652222313e28459528d920b65115c16c04f3efc82aaedc97be59f3f377c0d3f0180546001600160a01b0319166001600160a01b038416908117909155604080514281524360208201523392917f4f7e100eb1ee13e903798bd0d6aa854152e07eb05544f392b9409c12935c809591015b60405180910390a35050565b6001600160a01b038316612bde5760405162461bcd60e51b815260206004820152602560248201527f45524332303a207472616e736665722066726f6d20746865207a65726f206164604482015264647265737360d81b6064820152608401610b17565b6001600160a01b038216612c405760405162461bcd60e51b815260206004820152602360248201527f45524332303a207472616e7366657220746f20746865207a65726f206164647260448201526265737360e81b6064820152608401610b17565b6001600160a01b03831660009081526020819052604090205481811015612cb85760405162461bcd60e51b815260206004820152602660248201527f45524332303a207472616e7366657220616d6f756e7420657863656564732062604482015265616c616e636560d01b6064820152608401610b17565b6001600160a01b03808516600090815260208190526040808220858503905591851681529081208054849290612cef9084906149f9565b92505081905550826001600160a01b0316846001600160a01b03167fddf252ad1be2c89b69c2b068fc378daa952ba7f163c4a11628f55a4df523b3ef84604051612d3b91815260200190565b60405180910390a35b50505050565b6001600160a01b03811660008181526005602052604090819020805461ff00191681559051909133917faee911eec8b2df8f3ae0464841541b1e5f339519bd5cf51889fe8b07fecff65890612b6e9042904390918252602082015260400190565b6001600160a01b03811660008181526005602052604090819020805460ff191681559051909133917fefa2735987005aaa89c050c0ff8cc9ae7d9079d19382081c429130f98c52d48090612b6e9042904390918252602082015260400190565b60408051808201909152601c81527f19457468657265756d205369676e6564204d6573736167653a0a3332000000006020820152600081612e4f60e0850185614d76565b612e5c60208701876140eb565b612e6c60408801602089016140eb565b87604001358860c00135604051602001612e8b96959493929190614dbc565b60405160208183030381529060405280519060200120604051602001612eb2929190614dfa565b60408051601f19818403018152919052805160209091012090506000600182612ee16080870160608801614e1c565b6040805160008152602081018083529390935260ff90911690820152608080870135606083015260a08088013591830191909152016020604051602081039080840390855afa158015612f38573d6000803e3d6000fd5b5050604051601f1901519150612f53905060208501856140eb565b6001600160a01b0316816001600160a01b031614612faa5760405162461bcd60e51b8152602060048201526014602482015273496e76616c69642070726f76696465722066656560601b6044820152606401610b17565b612fba60408501602086016140eb565b6001600160a01b0316612fd060208601866140eb565b6001600160a01b03167ff8ed11cdaaf10eca2b6c941fb802cb8682afe86cac1eb93f70d0780fa062c544604087013561300c60e0890189614d76565b61301c60808b0160608c01614e1c565b8a608001358b60a001358c60c0013560405161303e9796959493929190614e37565b60405180910390a3600084604001351180156130735750600061306760408601602087016140eb565b6001600160a01b031614155b80156130955750600061308960208601866140eb565b6001600160a01b031614155b15612d445760135460408051636c45e88160e01b815290516000926001600160a01b031691636c45e8819160048083019260209291908290030181865afa1580156130e4573d6000803e3d6000fd5b505050506040513d601f19601f820116820180604052508101906131089190614a2e565b90506000811561312f5761312c670de0b6b3a76400006116f76040890135856135ff565b90505b600061313f604088013583613617565b90506131606131546040890160208a016140eb565b33308a604001356134b2565b61318161317060208901896140eb565b8261192a60408b0160208c016140eb565b811561250057600b54612500906001600160a01b03168361192a60408b0160208c016140eb565b6000610e3782846149f9565b6001600160a01b03821661320a5760405162461bcd60e51b815260206004820152601f60248201527f45524332303a206d696e7420746f20746865207a65726f2061646472657373006044820152606401610b17565b806002600082825461321c91906149f9565b90915550506001600160a01b038216600090815260208190526040812080548392906132499084906149f9565b90915550506040518181526001600160a01b038316906000907fddf252ad1be2c89b69c2b068fc378daa952ba7f163c4a11628f55a4df523b3ef9060200160405180910390a35050565b6001600160a01b0382166132f35760405162461bcd60e51b815260206004820152602160248201527f45524332303a206275726e2066726f6d20746865207a65726f206164647265736044820152607360f81b6064820152608401610b17565b6001600160a01b038216600090815260208190526040902054818110156133675760405162461bcd60e51b815260206004820152602260248201527f45524332303a206275726e20616d6f756e7420657863656564732062616c616e604482015261636560f01b6064820152608401610b17565b6001600160a01b0383166000908152602081905260408120838303905560028054849290613396908490614e7a565b90915550506040518281526000906001600160a01b038516907fddf252ad1be2c89b69c2b068fc378daa952ba7f163c4a11628f55a4df523b3ef9060200160405180910390a3505050565b60005b600654811015613447576000600560006006848154811061340757613407614a47565b60009182526020808320909101546001600160a01b031683528201929092526040019020805461ffff19169055508061343f81614d5b565b9150506133e4565b506134546006600061401f565b6040805142815243602082015233917f712bc71db81927a76b8bf1ea346247bb0ad58f18e4e5c1bd4aa0ec6573e02a2b910160405180910390a2565b600d80546001600160a01b0319166001600160a01b0392909216919091179055565b6040516370a0823160e01b81526001600160a01b038381166004830152600091908616906370a0823190602401602060405180830381865afa1580156134fc573d6000803e3d6000fd5b505050506040513d601f19601f820116820180604052508101906135209190614a2e565b90506135376001600160a01b038616858585613d9d565b61354181836131a8565b6040516370a0823160e01b81526001600160a01b0385811660048301528716906370a0823190602401602060405180830381865afa158015613587573d6000803e3d6000fd5b505050506040513d601f19601f820116820180604052508101906135ab9190614a2e565b146135f85760405162461bcd60e51b815260206004820152601d60248201527f5472616e7366657220616d6f756e7420776173206e6f742065786163740000006044820152606401610b17565b5050505050565b6000610e378284614e91565b6000610e378284614eb0565b6000610e378284614e7a565b6040516001600160a01b03831660248201526044810182905261153290849063a9059cbb60e01b906064015b60408051601f198184030181529190526020810180516001600160e01b03166001600160e01b031990931692909217909152613dd5565b604051636eb1769f60e11b81523060048201526001600160a01b038381166024830152600091839186169063dd62ed3e90604401602060405180830381865afa1580156136d7573d6000803e3d6000fd5b505050506040513d601f19601f820116820180604052508101906136fb9190614a2e565b61370591906149f9565b6040516001600160a01b038516602482015260448101829052909150612d4490859063095ea7b360e01b9060640161364f565b6001600160a01b03811660009081526005602052604090208054610100900460ff16156137b25760405162461bcd60e51b815260206004820152602260248201527f4552433230526f6c65733a2020414c5245414459204120464545204d414e414760448201526122a960f11b6064820152608401610b17565b805461ff001916610100178155600680546001810182556000919091527ff652222313e28459528d920b65115c16c04f3efc82aaedc97be59f3f377c0d3f0180546001600160a01b0384166001600160a01b03199091168117909155604080514281524360208201523392917fb17da2e9910b4ba5754e8872385ba315a238bafb5ae221fc85093c33432c40a79101612b6e565b6000808460008151811061385c5761385c614a47565b6020026020010151905060008560018151811061387b5761387b614a47565b6020026020010151905060006001600160a01b0316826001600160a01b031614156138fd5760405162461bcd60e51b815260206004820152602c60248201527f455243323054656d706c6174653a20496e76616c6964206d696e7465722c202060448201526b7a65726f206164647265737360a01b6064820152608401610b17565b6001600160a01b0381166139795760405162461bcd60e51b815260206004820152603c60248201527f455243323054656d706c6174653a20496e76616c696420636f6d6d756e69747960448201527f2066656520636f6c6c6563746f722c207a65726f2061646472657373000000006064820152608401610b17565b8460008151811061398c5761398c614a47565b6020026020010151600014156139f05760405162461bcd60e51b8152602060048201526024808201527f44617461746f6b656e54656d706c6174653a20496e76616c6964206361702076604482015263616c756560e01b6064820152608401610b17565b84600081518110613a0357613a03614a47565b6020026020010151600a8190555087600081518110613a2457613a24614a47565b602002602001015160089080519060200190613a4192919061403d565b5087600181518110613a5557613a55614a47565b602002602001015160099080519060200190613a7292919061403d565b50600c80546001600160a01b0319166001600160a01b038416179055855186906002908110613aa357613aa3614a47565b6020908102919091010151601380546001600160a01b039283166001600160a01b0319909116179055600b80546001600160a81b03191691831691909117600160a01b1790558651613b0d908890600090613b0057613b00614a47565b6020026020010151612a78565b60006001600160a01b031687600181518110613b2b57613b2b614a47565b60200260200101516001600160a01b031614613bd557613b6487600181518110613b5757613b57614a47565b6020026020010151613490565b86600181518110613b7757613b77614a47565b60200260200101516001600160a01b0316336001600160a01b03167f4d7694d695c57cc54947177c8e8a0e61aae664e9223492a798c32fadfc6419cc4243604051613bcc929190918252602082015260400190565b60405180910390a35b86600281518110613be857613be8614a47565b6020026020010151600e60006101000a8154816001600160a01b0302191690836001600160a01b0316021790555086600381518110613c2957613c29614a47565b6020026020010151600f60006101000a8154816001600160a01b0302191690836001600160a01b0316021790555084600181518110613c6a57613c6a614a47565b6020908102919091018101516010819055600e54600f54604080513381526001600160a01b039384169581019590955291169083015260608201527f02ab4b3fc023109c2d0da394bda239166c833f63c42b71b67ed4b836dca0ddfe9060800160405180910390a160405146907f8b73c3c69bb8fe3d512ecc4cf759cc79239f7b179b0ffacaa9a75d522b39400f90613d0590600890614ed2565b60408051918290038220828201825260018352603160f81b6020938401528151928301939093528101919091527fc89efdaa54c0f20c7adf612882df0950f5a951637e0307cdcb4c672f298b8bc66060820152608081018290523060a082015260c00160408051808303601f1901815291905280516020909101206011555050600b54600160a01b900460ff16979650505050505050565b6040516001600160a01b0380851660248301528316604482015260648101829052612d449085906323b872dd60e01b9060840161364f565b6000613e2a826040518060400160405280602081526020017f5361666545524332303a206c6f772d6c6576656c2063616c6c206661696c6564815250856001600160a01b0316613ea79092919063ffffffff16565b8051909150156115325780806020019051810190613e489190614f6e565b6115325760405162461bcd60e51b815260206004820152602a60248201527f5361666545524332303a204552433230206f7065726174696f6e20646964206e6044820152691bdd081cdd58d8d9595960b21b6064820152608401610b17565b6060613eb68484600085613ebe565b949350505050565b606082471015613f1f5760405162461bcd60e51b815260206004820152602660248201527f416464726573733a20696e73756666696369656e742062616c616e636520666f6044820152651c8818d85b1b60d21b6064820152608401610b17565b843b613f6d5760405162461bcd60e51b815260206004820152601d60248201527f416464726573733a2063616c6c20746f206e6f6e2d636f6e74726163740000006044820152606401610b17565b600080866001600160a01b03168587604051613f899190614f8b565b60006040518083038185875af1925050503d8060008114613fc6576040519150601f19603f3d011682016040523d82523d6000602084013e613fcb565b606091505b5091509150613fdb828286613fe6565b979650505050505050565b60608315613ff5575081610e37565b8251156140055782518084602001fd5b8160405162461bcd60e51b8152600401610b179190614134565b5080546000825590600052602060002090810190610ed591906140c1565b8280546140499061489e565b90600052602060002090601f01602090048101928261406b57600085556140b1565b82601f1061408457805160ff19168380011785556140b1565b828001600101855582156140b1579182015b828111156140b1578251825591602001919060010190614096565b506140bd9291506140c1565b5090565b5b808211156140bd57600081556001016140c2565b6001600160a01b0381168114610ed557600080fd5b6000602082840312156140fd57600080fd5b8135610e37816140d6565b60005b8381101561412357818101518382015260200161410b565b83811115612d445750506000910152565b6020815260008251806020840152614153816040850160208701614108565b601f01601f19169190910160400192915050565b6000806040838503121561417a57600080fd5b8235614185816140d6565b946020939093013593505050565b8015158114610ed557600080fd5b600080600080600060a086880312156141b957600080fd5b85356141c4816140d6565b9450602086013593506040860135925060608601356141e281614193565b915060808601356141f2816140d6565b809150509295509295909350565b600060c0828403121561421257600080fd5b50919050565b6000806040838503121561422b57600080fd5b82356001600160401b0381111561424157600080fd5b61424d85828601614200565b925050602083013561425e816140d6565b809150509250929050565b60008060006060848603121561427e57600080fd5b8335614289816140d6565b92506020840135614299816140d6565b929592945050506040919091013590565b6000610100828403121561421257600080fd5b600080604083850312156142d057600080fd5b8235915060208301356001600160401b038111156142ed57600080fd5b6142f9858286016142aa565b9150509250929050565b60006020828403121561431557600080fd5b5035919050565b600081518084526020808501945080840160005b838110156143555781516001600160a01b031687529582019590820190600101614330565b509495945050505050565b602081526000610e37602083018461431c565b60008060008084860360c081121561438a57600080fd5b8535614395816140d6565b94506020860135935060408601356001600160401b038111156143b757600080fd5b6143c3888289016142aa565b9350506060605f19820112156143d857600080fd5b509295919450926060019150565b602080825282518282018190526000919060409081850190868401855b8281101561443157815180516001600160a01b03168552860151868501529284019290850190600101614403565b5091979650505050505050565b634e487b7160e01b600052604160045260246000fd5b604051601f8201601f191681016001600160401b038111828210171561447c5761447c61443e565b604052919050565b60006001600160401b0382111561449d5761449d61443e565b5060051b60200190565b600082601f8301126144b857600080fd5b813560206144cd6144c883614484565b614454565b82815260059290921b840181019181810190868411156144ec57600080fd5b8286015b8481101561450757803583529183019183016144f0565b509695505050505050565b60008060006060848603121561452757600080fd5b8335614532816140d6565b92506020848101356001600160401b038082111561454f57600080fd5b818701915087601f83011261456357600080fd5b81356145716144c882614484565b81815260059190911b8301840190848101908a83111561459057600080fd5b938501935b828510156145b75784356145a8816140d6565b82529385019390850190614595565b9650505060408701359250808311156145cf57600080fd5b50506145dd868287016144a7565b9150509250925092565b60008082840360c08112156145fb57600080fd5b83356001600160401b0381111561461157600080fd5b61461d86828701614200565b93505060a0601f198201121561463257600080fd5b506020830190509250929050565b6000806020838503121561465357600080fd5b82356001600160401b038082111561466a57600080fd5b818501915085601f83011261467e57600080fd5b81358181111561468d57600080fd5b86602082850101111561469f57600080fd5b60209290920196919550909350505050565b60008083601f8401126146c357600080fd5b5081356001600160401b038111156146da57600080fd5b6020830191508360208260051b85010111156146f557600080fd5b9250929050565b60008060008060008060008060008060a08b8d03121561471b57600080fd5b8a356001600160401b038082111561473257600080fd5b61473e8e838f016146b1565b909c509a5060208d013591508082111561475757600080fd5b6147638e838f016146b1565b909a50985060408d013591508082111561477c57600080fd5b6147888e838f016146b1565b909850965060608d01359150808211156147a157600080fd5b6147ad8e838f016146b1565b909650945060808d01359150808211156147c657600080fd5b506147d38d828e016146b1565b915080935050809150509295989b9194979a5092959850565b803560ff811681146147fd57600080fd5b919050565b600080600080600080600060e0888a03121561481d57600080fd5b8735614828816140d6565b96506020880135614838816140d6565b95506040880135945060608801359350614854608089016147ec565b925060a0880135915060c0880135905092959891949750929550565b6000806040838503121561488357600080fd5b823561488e816140d6565b9150602083013561425e816140d6565b600181811c908216806148b257607f821691505b6020821081141561421257634e487b7160e01b600052602260045260246000fd5b6000608082840312156148e557600080fd5b604051608081018181106001600160401b03821117156149075761490761443e565b604052825161491581614193565b8152602083015161492581614193565b6020820152604083015161493881614193565b6040820152606083015161494b81614193565b60608201529392505050565b6020808252818101527f455243323054656d706c6174653a204e4f54204445504c4f59455220524f4c45604082015260600190565b6020808252601f908201527f5265656e7472616e637947756172643a207265656e7472616e742063616c6c00604082015260600190565b6000823560fe198336030181126149d957600080fd5b9190910192915050565b634e487b7160e01b600052601160045260246000fd5b60008219821115614a0c57614a0c6149e3565b500190565b600060208284031215614a2357600080fd5b8151610e37816140d6565b600060208284031215614a4057600080fd5b5051919050565b634e487b7160e01b600052603260045260246000fd5b6001600160a01b038416815260606020808301829052600091614a829084018661431c565b838103604085015284518082528286019183019060005b81811015614ab557835183529284019291840191600101614a99565b509098975050505050505050565b6000806000806000806000806000806000806101808d8f031215614ae657600080fd5b8c51614af1816140d6565b60208e0151909c50614b02816140d6565b60408e015160608f0151919c509a50614b1a816140d6565b8099505060808d0151975060a08d0151965060c08d0151614b3a81614193565b8096505060e08d015194506101008d015193506101208d015192506101408d015191506101608d0151614b6c81614193565b809150509295989b509295989b509295989b565b60008060008060808587031215614b9657600080fd5b505082516020840151604085015160609095015191969095509092509050565b81835281816020850137506000828201602090810191909152601f909101601f19169091010190565b838152604060208201526000614bf9604083018486614bb6565b95945050505050565b60006001600160401b03831115614c1b57614c1b61443e565b614c2e601f8401601f1916602001614454565b9050828152838383011115614c4257600080fd5b828260208301376000602084830101529392505050565b6000614c676144c884614484565b80848252602080830192508560051b850136811115614c8557600080fd5b855b81811015614cd45780356001600160401b03811115614ca65760008081fd5b870136601f820112614cb85760008081fd5b614cc6368235868401614c02565b865250938201938201614c87565b50919695505050505050565b6000614cee6144c884614484565b80848252602080830192508560051b850136811115614d0c57600080fd5b855b81811015614cd45780356001600160401b03811115614d2d5760008081fd5b870136601f820112614d3f5760008081fd5b614d4d368235868401614c02565b865250938201938201614d0e565b6000600019821415614d6f57614d6f6149e3565b5060010190565b6000808335601e19843603018112614d8d57600080fd5b8301803591506001600160401b03821115614da757600080fd5b6020019150368190038213156146f557600080fd5b858782376bffffffffffffffffffffffff19606095861b8116969091019586529290931b909116601484015260288301526048820152606801919050565b60008351614e0c818460208801614108565b9190910191825250602001919050565b600060208284031215614e2e57600080fd5b610e37826147ec565b87815260c060208201526000614e5160c08301888a614bb6565b905060ff861660408301528460608301528360808301528260a083015298975050505050505050565b600082821015614e8c57614e8c6149e3565b500390565b6000816000190483118215151615614eab57614eab6149e3565b500290565b600082614ecd57634e487b7160e01b600052601260045260246000fd5b500490565b600080835481600182811c915080831680614eee57607f831692505b6020808410821415614f0e57634e487b7160e01b86526022600452602486fd5b818015614f225760018114614f3357614f60565b60ff19861689528489019650614f60565b60008a81526020902060005b86811015614f585781548b820152908501908301614f3f565b505084890196505b509498975050505050505050565b600060208284031215614f8057600080fd5b8151610e3781614193565b600082516149d981846020870161410856fea2646970667358221220dfeceeb3df065312c767ec2922084a117c334c0477f9c97932eac558b3dce23b64736f6c634300080a0033",
  "linkReferences": {},
  "deployedLinkReferences": {}
}