{
  "_format": "hh-sol-artifact-1",
  "contractName": "ERC20TemplateEnterprise",
  "sourceName": "contracts/templates/ERC20TemplateEnterprise.sol",
  "abi": [
    {
      "anonymous": false,
      "inputs": [
        {
          "indexed": true,
          "internalType": "address",
          "name": "user",
          "type": "address"
        },
        {
          "indexed": true,
          "internalType": "address",
          "name": "signer",
          "type": "address"
        },
        {
          "indexed": false,
          "internalType": "uint256",
          "name": "timestamp",
          "type": "uint256"
        },
        {
          "indexed": false,
          "internalType": "uint256",
          "name": "blockNumber",
          "type": "uint256"
        }
      ],
      "name": "AddedMinter",
      "type": "event"
    },
    {
      "anonymous": false,
      "inputs": [
        {
          "indexed": true,
          "internalType": "address",
          "name": "user",
          "type": "address"
        },
        {
          "indexed": true,
          "internalType": "address",
          "name": "signer",
          "type": "address"
        },
        {
          "indexed": false,
          "internalType": "uint256",
          "name": "timestamp",
          "type": "uint256"
        },
        {
          "indexed": false,
          "internalType": "uint256",
          "name": "blockNumber",
          "type": "uint256"
        }
      ],
      "name": "AddedPaymentManager",
      "type": "event"
    },
    {
      "anonymous": false,
      "inputs": [
        {
          "indexed": true,
          "internalType": "address",
          "name": "owner",
          "type": "address"
        },
        {
          "indexed": true,
          "internalType": "address",
          "name": "spender",
          "type": "address"
        },
        {
          "indexed": false,
          "internalType": "uint256",
          "name": "value",
          "type": "uint256"
        }
      ],
      "name": "Approval",
      "type": "event"
    },
    {
      "anonymous": false,
      "inputs": [
        {
          "indexed": true,
          "internalType": "address",
          "name": "signer",
          "type": "address"
        },
        {
          "indexed": false,
          "internalType": "uint256",
          "name": "timestamp",
          "type": "uint256"
        },
        {
          "indexed": false,
          "internalType": "uint256",
          "name": "blockNumber",
          "type": "uint256"
        }
      ],
      "name": "CleanedPermissions",
      "type": "event"
    },
    {
      "anonymous": false,
      "inputs": [
        {
          "indexed": true,
          "internalType": "address",
          "name": "consumeMarketFeeAddress",
          "type": "address"
        },
        {
          "indexed": true,
          "internalType": "address",
          "name": "consumeMarketFeeToken",
          "type": "address"
        },
        {
          "indexed": false,
          "internalType": "uint256",
          "name": "consumeMarketFeeAmount",
          "type": "uint256"
        }
      ],
      "name": "ConsumeMarketFee",
      "type": "event"
    },
    {
      "anonymous": false,
      "inputs": [
        {
          "indexed": false,
          "internalType": "address",
          "name": "currentMinter",
          "type": "address"
        },
        {
          "indexed": false,
          "internalType": "address",
          "name": "newMinter",
          "type": "address"
        }
      ],
      "name": "MinterApproved",
      "type": "event"
    },
    {
      "anonymous": false,
      "inputs": [
        {
          "indexed": false,
          "internalType": "address",
          "name": "currentMinter",
          "type": "address"
        },
        {
          "indexed": false,
          "internalType": "address",
          "name": "newMinter",
          "type": "address"
        }
      ],
      "name": "MinterProposed",
      "type": "event"
    },
    {
      "anonymous": false,
      "inputs": [
        {
          "indexed": false,
          "internalType": "address",
          "name": "dispenserContract",
          "type": "address"
        }
      ],
      "name": "NewDispenser",
      "type": "event"
    },
    {
      "anonymous": false,
      "inputs": [
        {
          "indexed": false,
          "internalType": "bytes32",
          "name": "exchangeId",
          "type": "bytes32"
        },
        {
          "indexed": true,
          "internalType": "address",
          "name": "owner",
          "type": "address"
        },
        {
          "indexed": false,
          "internalType": "address",
          "name": "exchangeContract",
          "type": "address"
        },
        {
          "indexed": true,
          "internalType": "address",
          "name": "baseToken",
          "type": "address"
        }
      ],
      "name": "NewFixedRate",
      "type": "event"
    },
    {
      "anonymous": false,
      "inputs": [
        {
          "indexed": true,
          "internalType": "address",
          "name": "caller",
          "type": "address"
        },
        {
          "indexed": true,
          "internalType": "address",
          "name": "_newPaymentCollector",
          "type": "address"
        },
        {
          "indexed": false,
          "internalType": "uint256",
          "name": "timestamp",
          "type": "uint256"
        },
        {
          "indexed": false,
          "internalType": "uint256",
          "name": "blockNumber",
          "type": "uint256"
        }
      ],
      "name": "NewPaymentCollector",
      "type": "event"
    },
    {
      "anonymous": false,
      "inputs": [
        {
          "indexed": true,
          "internalType": "address",
          "name": "providerAddress",
          "type": "address"
        },
        {
          "indexed": true,
          "internalType": "address",
          "name": "consumerAddress",
          "type": "address"
        },
        {
          "indexed": false,
          "internalType": "bytes32",
          "name": "orderTxId",
          "type": "bytes32"
        },
        {
          "indexed": false,
          "internalType": "bytes",
          "name": "providerData",
          "type": "bytes"
        },
        {
          "indexed": false,
          "internalType": "bytes",
          "name": "providerSignature",
          "type": "bytes"
        },
        {
          "indexed": false,
          "internalType": "bytes",
          "name": "consumerData",
          "type": "bytes"
        },
        {
          "indexed": false,
          "internalType": "bytes",
          "name": "consumerSignature",
          "type": "bytes"
        },
        {
          "indexed": false,
          "internalType": "uint256",
          "name": "timestamp",
          "type": "uint256"
        },
        {
          "indexed": false,
          "internalType": "uint256",
          "name": "blockNumber",
          "type": "uint256"
        }
      ],
      "name": "OrderExecuted",
      "type": "event"
    },
    {
      "anonymous": false,
      "inputs": [
        {
          "indexed": false,
          "internalType": "bytes32",
          "name": "orderTxId",
          "type": "bytes32"
        },
        {
          "indexed": false,
          "internalType": "address",
          "name": "caller",
          "type": "address"
        },
        {
          "indexed": false,
          "internalType": "uint256",
          "name": "timestamp",
          "type": "uint256"
        },
        {
          "indexed": false,
          "internalType": "uint256",
          "name": "number",
          "type": "uint256"
        }
      ],
      "name": "OrderReused",
      "type": "event"
    },
    {
      "anonymous": false,
      "inputs": [
        {
          "indexed": true,
          "internalType": "address",
          "name": "consumer",
          "type": "address"
        },
        {
          "indexed": false,
          "internalType": "address",
          "name": "payer",
          "type": "address"
        },
        {
          "indexed": false,
          "internalType": "uint256",
          "name": "amount",
          "type": "uint256"
        },
        {
          "indexed": false,
          "internalType": "uint256",
          "name": "serviceIndex",
          "type": "uint256"
        },
        {
          "indexed": false,
          "internalType": "uint256",
          "name": "timestamp",
          "type": "uint256"
        },
        {
          "indexed": true,
          "internalType": "address",
          "name": "publishMarketAddress",
          "type": "address"
        },
        {
          "indexed": false,
          "internalType": "uint256",
          "name": "blockNumber",
          "type": "uint256"
        }
      ],
      "name": "OrderStarted",
      "type": "event"
    },
    {
      "anonymous": false,
      "inputs": [
        {
          "indexed": true,
          "internalType": "address",
          "name": "providerFeeAddress",
          "type": "address"
        },
        {
          "indexed": true,
          "internalType": "address",
          "name": "providerFeeToken",
          "type": "address"
        },
        {
          "indexed": false,
          "internalType": "uint256",
          "name": "providerFeeAmount",
          "type": "uint256"
        },
        {
          "indexed": false,
          "internalType": "bytes",
          "name": "providerData",
          "type": "bytes"
        },
        {
          "indexed": false,
          "internalType": "uint8",
          "name": "v",
          "type": "uint8"
        },
        {
          "indexed": false,
          "internalType": "bytes32",
          "name": "r",
          "type": "bytes32"
        },
        {
          "indexed": false,
          "internalType": "bytes32",
          "name": "s",
          "type": "bytes32"
        },
        {
          "indexed": false,
          "internalType": "uint256",
          "name": "validUntil",
          "type": "uint256"
        }
      ],
      "name": "ProviderFee",
      "type": "event"
    },
    {
      "anonymous": false,
      "inputs": [
        {
          "indexed": true,
          "internalType": "address",
          "name": "PublishMarketFeeAddress",
          "type": "address"
        },
        {
          "indexed": true,
          "internalType": "address",
          "name": "PublishMarketFeeToken",
          "type": "address"
        },
        {
          "indexed": false,
          "internalType": "uint256",
          "name": "PublishMarketFeeAmount",
          "type": "uint256"
        }
      ],
      "name": "PublishMarketFee",
      "type": "event"
    },
    {
      "anonymous": false,
      "inputs": [
        {
          "indexed": false,
          "internalType": "address",
          "name": "caller",
          "type": "address"
        },
        {
          "indexed": false,
          "internalType": "address",
          "name": "PublishMarketFeeAddress",
          "type": "address"
        },
        {
          "indexed": false,
          "internalType": "address",
          "name": "PublishMarketFeeToken",
          "type": "address"
        },
        {
          "indexed": false,
          "internalType": "uint256",
          "name": "PublishMarketFeeAmount",
          "type": "uint256"
        }
      ],
      "name": "PublishMarketFeeChanged",
      "type": "event"
    },
    {
      "anonymous": false,
      "inputs": [
        {
          "indexed": true,
          "internalType": "address",
          "name": "user",
          "type": "address"
        },
        {
          "indexed": true,
          "internalType": "address",
          "name": "signer",
          "type": "address"
        },
        {
          "indexed": false,
          "internalType": "uint256",
          "name": "timestamp",
          "type": "uint256"
        },
        {
          "indexed": false,
          "internalType": "uint256",
          "name": "blockNumber",
          "type": "uint256"
        }
      ],
      "name": "RemovedMinter",
      "type": "event"
    },
    {
      "anonymous": false,
      "inputs": [
        {
          "indexed": true,
          "internalType": "address",
          "name": "user",
          "type": "address"
        },
        {
          "indexed": true,
          "internalType": "address",
          "name": "signer",
          "type": "address"
        },
        {
          "indexed": false,
          "internalType": "uint256",
          "name": "timestamp",
          "type": "uint256"
        },
        {
          "indexed": false,
          "internalType": "uint256",
          "name": "blockNumber",
          "type": "uint256"
        }
      ],
      "name": "RemovedPaymentManager",
      "type": "event"
    },
    {
      "anonymous": false,
      "inputs": [
        {
          "indexed": true,
          "internalType": "address",
          "name": "from",
          "type": "address"
        },
        {
          "indexed": true,
          "internalType": "address",
          "name": "to",
          "type": "address"
        },
        {
          "indexed": false,
          "internalType": "uint256",
          "name": "value",
          "type": "uint256"
        }
      ],
      "name": "Transfer",
      "type": "event"
    },
    {
      "stateMutability": "payable",
      "type": "fallback"
    },
    {
      "inputs": [],
      "name": "BASE",
      "outputs": [
        {
          "internalType": "uint256",
          "name": "",
          "type": "uint256"
        }
      ],
      "stateMutability": "view",
      "type": "function"
    },
    {
      "inputs": [],
      "name": "DOMAIN_SEPARATOR",
      "outputs": [
        {
          "internalType": "bytes32",
          "name": "",
          "type": "bytes32"
        }
      ],
      "stateMutability": "view",
      "type": "function"
    },
    {
      "inputs": [],
      "name": "PERMIT_TYPEHASH",
      "outputs": [
        {
          "internalType": "bytes32",
          "name": "",
          "type": "bytes32"
        }
      ],
      "stateMutability": "view",
      "type": "function"
    },
    {
      "inputs": [
        {
          "internalType": "address",
          "name": "_minter",
          "type": "address"
        }
      ],
      "name": "addMinter",
      "outputs": [],
      "stateMutability": "nonpayable",
      "type": "function"
    },
    {
      "inputs": [
        {
          "internalType": "address",
          "name": "_paymentManager",
          "type": "address"
        }
      ],
      "name": "addPaymentManager",
      "outputs": [],
      "stateMutability": "nonpayable",
      "type": "function"
    },
    {
      "inputs": [
        {
          "internalType": "address",
          "name": "owner",
          "type": "address"
        },
        {
          "internalType": "address",
          "name": "spender",
          "type": "address"
        }
      ],
      "name": "allowance",
      "outputs": [
        {
          "internalType": "uint256",
          "name": "",
          "type": "uint256"
        }
      ],
      "stateMutability": "view",
      "type": "function"
    },
    {
      "inputs": [
        {
          "internalType": "address",
          "name": "spender",
          "type": "address"
        },
        {
          "internalType": "uint256",
          "name": "amount",
          "type": "uint256"
        }
      ],
      "name": "approve",
      "outputs": [
        {
          "internalType": "bool",
          "name": "",
          "type": "bool"
        }
      ],
      "stateMutability": "nonpayable",
      "type": "function"
    },
    {
      "inputs": [
        {
          "internalType": "uint256",
          "name": "",
          "type": "uint256"
        }
      ],
      "name": "authERC20",
      "outputs": [
        {
          "internalType": "address",
          "name": "",
          "type": "address"
        }
      ],
      "stateMutability": "view",
      "type": "function"
    },
    {
      "inputs": [
        {
          "internalType": "address",
          "name": "account",
          "type": "address"
        }
      ],
      "name": "balanceOf",
      "outputs": [
        {
          "internalType": "uint256",
          "name": "",
          "type": "uint256"
        }
      ],
      "stateMutability": "view",
      "type": "function"
    },
    {
      "inputs": [
        {
          "internalType": "uint256",
          "name": "amount",
          "type": "uint256"
        }
      ],
      "name": "burn",
      "outputs": [],
      "stateMutability": "nonpayable",
      "type": "function"
    },
    {
      "inputs": [
        {
          "internalType": "address",
          "name": "account",
          "type": "address"
        },
        {
          "internalType": "uint256",
          "name": "amount",
          "type": "uint256"
        }
      ],
      "name": "burnFrom",
      "outputs": [],
      "stateMutability": "nonpayable",
      "type": "function"
    },
    {
      "inputs": [
        {
          "components": [
            {
              "internalType": "address",
              "name": "consumer",
              "type": "address"
            },
            {
              "internalType": "uint256",
              "name": "serviceIndex",
              "type": "uint256"
            },
            {
              "components": [
                {
                  "internalType": "address",
                  "name": "providerFeeAddress",
                  "type": "address"
                },
                {
                  "internalType": "address",
                  "name": "providerFeeToken",
                  "type": "address"
                },
                {
                  "internalType": "uint256",
                  "name": "providerFeeAmount",
                  "type": "uint256"
                },
                {
                  "internalType": "uint8",
                  "name": "v",
                  "type": "uint8"
                },
                {
                  "internalType": "bytes32",
                  "name": "r",
                  "type": "bytes32"
                },
                {
                  "internalType": "bytes32",
                  "name": "s",
                  "type": "bytes32"
                },
                {
                  "internalType": "uint256",
                  "name": "validUntil",
                  "type": "uint256"
                },
                {
                  "internalType": "bytes",
                  "name": "providerData",
                  "type": "bytes"
                }
              ],
              "internalType": "struct ERC20TemplateEnterprise.providerFee",
              "name": "_providerFee",
              "type": "tuple"
            },
            {
              "components": [
                {
                  "internalType": "address",
                  "name": "consumeMarketFeeAddress",
                  "type": "address"
                },
                {
                  "internalType": "address",
                  "name": "consumeMarketFeeToken",
                  "type": "address"
                },
                {
                  "internalType": "uint256",
                  "name": "consumeMarketFeeAmount",
                  "type": "uint256"
                }
              ],
              "internalType": "struct ERC20TemplateEnterprise.consumeMarketFee",
              "name": "_consumeMarketFee",
              "type": "tuple"
            }
          ],
          "internalType": "struct ERC20TemplateEnterprise.OrderParams",
          "name": "_orderParams",
          "type": "tuple"
        },
        {
          "internalType": "address",
          "name": "dispenserContract",
          "type": "address"
        }
      ],
      "name": "buyFromDispenserAndOrder",
      "outputs": [],
      "stateMutability": "nonpayable",
      "type": "function"
    },
    {
      "inputs": [
        {
          "components": [
            {
              "internalType": "address",
              "name": "consumer",
              "type": "address"
            },
            {
              "internalType": "uint256",
              "name": "serviceIndex",
              "type": "uint256"
            },
            {
              "components": [
                {
                  "internalType": "address",
                  "name": "providerFeeAddress",
                  "type": "address"
                },
                {
                  "internalType": "address",
                  "name": "providerFeeToken",
                  "type": "address"
                },
                {
                  "internalType": "uint256",
                  "name": "providerFeeAmount",
                  "type": "uint256"
                },
                {
                  "internalType": "uint8",
                  "name": "v",
                  "type": "uint8"
                },
                {
                  "internalType": "bytes32",
                  "name": "r",
                  "type": "bytes32"
                },
                {
                  "internalType": "bytes32",
                  "name": "s",
                  "type": "bytes32"
                },
                {
                  "internalType": "uint256",
                  "name": "validUntil",
                  "type": "uint256"
                },
                {
                  "internalType": "bytes",
                  "name": "providerData",
                  "type": "bytes"
                }
              ],
              "internalType": "struct ERC20TemplateEnterprise.providerFee",
              "name": "_providerFee",
              "type": "tuple"
            },
            {
              "components": [
                {
                  "internalType": "address",
                  "name": "consumeMarketFeeAddress",
                  "type": "address"
                },
                {
                  "internalType": "address",
                  "name": "consumeMarketFeeToken",
                  "type": "address"
                },
                {
                  "internalType": "uint256",
                  "name": "consumeMarketFeeAmount",
                  "type": "uint256"
                }
              ],
              "internalType": "struct ERC20TemplateEnterprise.consumeMarketFee",
              "name": "_consumeMarketFee",
              "type": "tuple"
            }
          ],
          "internalType": "struct ERC20TemplateEnterprise.OrderParams",
          "name": "_orderParams",
          "type": "tuple"
        },
        {
          "components": [
            {
              "internalType": "address",
              "name": "exchangeContract",
              "type": "address"
            },
            {
              "internalType": "bytes32",
              "name": "exchangeId",
              "type": "bytes32"
            },
            {
              "internalType": "uint256",
              "name": "maxBaseTokenAmount",
              "type": "uint256"
            },
            {
              "internalType": "uint256",
              "name": "swapMarketFee",
              "type": "uint256"
            },
            {
              "internalType": "address",
              "name": "marketFeeAddress",
              "type": "address"
            }
          ],
          "internalType": "struct ERC20TemplateEnterprise.FreParams",
          "name": "_freParams",
          "type": "tuple"
        }
      ],
      "name": "buyFromFreAndOrder",
      "outputs": [],
      "stateMutability": "nonpayable",
      "type": "function"
    },
    {
      "inputs": [],
      "name": "cap",
      "outputs": [
        {
          "internalType": "uint256",
          "name": "",
          "type": "uint256"
        }
      ],
      "stateMutability": "view",
      "type": "function"
    },
    {
      "inputs": [],
      "name": "cleanFrom721",
      "outputs": [],
      "stateMutability": "nonpayable",
      "type": "function"
    },
    {
      "inputs": [],
      "name": "cleanPermissions",
      "outputs": [],
      "stateMutability": "nonpayable",
      "type": "function"
    },
    {
      "inputs": [
        {
          "internalType": "address",
          "name": "_dispenser",
          "type": "address"
        },
        {
          "internalType": "uint256",
          "name": "maxTokens",
          "type": "uint256"
        },
        {
          "internalType": "uint256",
          "name": "maxBalance",
          "type": "uint256"
        },
        {
          "internalType": "bool",
          "name": "withMint",
          "type": "bool"
        },
        {
          "internalType": "address",
          "name": "allowedSwapper",
          "type": "address"
        }
      ],
      "name": "createDispenser",
      "outputs": [],
      "stateMutability": "nonpayable",
      "type": "function"
    },
    {
      "inputs": [
        {
          "internalType": "address",
          "name": "fixedPriceAddress",
          "type": "address"
        },
        {
          "internalType": "address[]",
          "name": "addresses",
          "type": "address[]"
        },
        {
          "internalType": "uint256[]",
          "name": "uints",
          "type": "uint256[]"
        }
      ],
      "name": "createFixedRate",
      "outputs": [
        {
          "internalType": "bytes32",
          "name": "exchangeId",
          "type": "bytes32"
        }
      ],
      "stateMutability": "nonpayable",
      "type": "function"
    },
    {
      "inputs": [],
      "name": "decimals",
      "outputs": [
        {
          "internalType": "uint8",
          "name": "",
          "type": "uint8"
        }
      ],
      "stateMutability": "pure",
      "type": "function"
    },
    {
      "inputs": [
        {
          "internalType": "address",
          "name": "spender",
          "type": "address"
        },
        {
          "internalType": "uint256",
          "name": "subtractedValue",
          "type": "uint256"
        }
      ],
      "name": "decreaseAllowance",
      "outputs": [
        {
          "internalType": "bool",
          "name": "",
          "type": "bool"
        }
      ],
      "stateMutability": "nonpayable",
      "type": "function"
    },
    {
      "inputs": [],
      "name": "getDispensers",
      "outputs": [
        {
          "internalType": "address[]",
          "name": "",
          "type": "address[]"
        }
      ],
      "stateMutability": "view",
      "type": "function"
    },
    {
      "inputs": [],
      "name": "getERC721Address",
      "outputs": [
        {
          "internalType": "address",
          "name": "",
          "type": "address"
        }
      ],
      "stateMutability": "view",
      "type": "function"
    },
    {
      "inputs": [],
      "name": "getFixedRates",
      "outputs": [
        {
          "components": [
            {
              "internalType": "address",
              "name": "contractAddress",
              "type": "address"
            },
            {
              "internalType": "bytes32",
              "name": "id",
              "type": "bytes32"
            }
          ],
          "internalType": "struct ERC20TemplateEnterprise.fixedRate[]",
          "name": "",
          "type": "tuple[]"
        }
      ],
      "stateMutability": "view",
      "type": "function"
    },
    {
      "inputs": [],
      "name": "getId",
      "outputs": [
        {
          "internalType": "uint8",
          "name": "",
          "type": "uint8"
        }
      ],
      "stateMutability": "pure",
      "type": "function"
    },
    {
      "inputs": [],
      "name": "getPaymentCollector",
      "outputs": [
        {
          "internalType": "address",
          "name": "",
          "type": "address"
        }
      ],
      "stateMutability": "view",
      "type": "function"
    },
    {
      "inputs": [
        {
          "internalType": "address",
          "name": "user",
          "type": "address"
        }
      ],
      "name": "getPermissions",
      "outputs": [
        {
          "components": [
            {
              "internalType": "bool",
              "name": "minter",
              "type": "bool"
            },
            {
              "internalType": "bool",
              "name": "paymentManager",
              "type": "bool"
            }
          ],
          "internalType": "struct ERC20Roles.RolesERC20",
          "name": "",
          "type": "tuple"
        }
      ],
      "stateMutability": "view",
      "type": "function"
    },
    {
      "inputs": [],
      "name": "getPublishingMarketFee",
      "outputs": [
        {
          "internalType": "address",
          "name": "",
          "type": "address"
        },
        {
          "internalType": "address",
          "name": "",
          "type": "address"
        },
        {
          "internalType": "uint256",
          "name": "",
          "type": "uint256"
        }
      ],
      "stateMutability": "view",
      "type": "function"
    },
    {
      "inputs": [
        {
          "internalType": "address",
          "name": "spender",
          "type": "address"
        },
        {
          "internalType": "uint256",
          "name": "addedValue",
          "type": "uint256"
        }
      ],
      "name": "increaseAllowance",
      "outputs": [
        {
          "internalType": "bool",
          "name": "",
          "type": "bool"
        }
      ],
      "stateMutability": "nonpayable",
      "type": "function"
    },
    {
      "inputs": [
        {
          "internalType": "string[]",
          "name": "strings_",
          "type": "string[]"
        },
        {
          "internalType": "address[]",
          "name": "addresses_",
          "type": "address[]"
        },
        {
          "internalType": "address[]",
          "name": "factoryAddresses_",
          "type": "address[]"
        },
        {
          "internalType": "uint256[]",
          "name": "uints_",
          "type": "uint256[]"
        },
        {
          "internalType": "bytes[]",
          "name": "bytes_",
          "type": "bytes[]"
        }
      ],
      "name": "initialize",
      "outputs": [
        {
          "internalType": "bool",
          "name": "",
          "type": "bool"
        }
      ],
      "stateMutability": "nonpayable",
      "type": "function"
    },
    {
      "inputs": [
        {
          "internalType": "address",
          "name": "user",
          "type": "address"
        }
      ],
      "name": "isERC20Deployer",
      "outputs": [
        {
          "internalType": "bool",
          "name": "deployer",
          "type": "bool"
        }
      ],
      "stateMutability": "nonpayable",
      "type": "function"
    },
    {
      "inputs": [],
      "name": "isInitialized",
      "outputs": [
        {
          "internalType": "bool",
          "name": "",
          "type": "bool"
        }
      ],
      "stateMutability": "view",
      "type": "function"
    },
    {
      "inputs": [
        {
          "internalType": "address",
          "name": "account",
          "type": "address"
        }
      ],
      "name": "isMinter",
      "outputs": [
        {
          "internalType": "bool",
          "name": "",
          "type": "bool"
        }
      ],
      "stateMutability": "view",
      "type": "function"
    },
    {
      "inputs": [
        {
          "internalType": "address",
          "name": "account",
          "type": "address"
        },
        {
          "internalType": "uint256",
          "name": "value",
          "type": "uint256"
        }
      ],
      "name": "mint",
      "outputs": [],
      "stateMutability": "nonpayable",
      "type": "function"
    },
    {
      "inputs": [],
      "name": "name",
      "outputs": [
        {
          "internalType": "string",
          "name": "",
          "type": "string"
        }
      ],
      "stateMutability": "view",
      "type": "function"
    },
    {
      "inputs": [
        {
          "internalType": "address",
          "name": "",
          "type": "address"
        }
      ],
      "name": "nonces",
      "outputs": [
        {
          "internalType": "uint256",
          "name": "",
          "type": "uint256"
        }
      ],
      "stateMutability": "view",
      "type": "function"
    },
    {
      "inputs": [
        {
          "internalType": "bytes32",
          "name": "orderTxId",
          "type": "bytes32"
        },
        {
          "internalType": "bytes",
          "name": "providerData",
          "type": "bytes"
        },
        {
          "internalType": "bytes",
          "name": "providerSignature",
          "type": "bytes"
        },
        {
          "internalType": "bytes",
          "name": "consumerData",
          "type": "bytes"
        },
        {
          "internalType": "bytes",
          "name": "consumerSignature",
          "type": "bytes"
        },
        {
          "internalType": "address",
          "name": "consumerAddress",
          "type": "address"
        }
      ],
      "name": "orderExecuted",
      "outputs": [],
      "stateMutability": "nonpayable",
      "type": "function"
    },
    {
      "inputs": [
        {
          "internalType": "address",
          "name": "",
          "type": "address"
        }
      ],
      "name": "permissions",
      "outputs": [
        {
          "internalType": "bool",
          "name": "minter",
          "type": "bool"
        },
        {
          "internalType": "bool",
          "name": "paymentManager",
          "type": "bool"
        }
      ],
      "stateMutability": "view",
      "type": "function"
    },
    {
      "inputs": [
        {
          "internalType": "address",
          "name": "owner",
          "type": "address"
        },
        {
          "internalType": "address",
          "name": "spender",
          "type": "address"
        },
        {
          "internalType": "uint256",
          "name": "value",
          "type": "uint256"
        },
        {
          "internalType": "uint256",
          "name": "deadline",
          "type": "uint256"
        },
        {
          "internalType": "uint8",
          "name": "v",
          "type": "uint8"
        },
        {
          "internalType": "bytes32",
          "name": "r",
          "type": "bytes32"
        },
        {
          "internalType": "bytes32",
          "name": "s",
          "type": "bytes32"
        }
      ],
      "name": "permit",
      "outputs": [],
      "stateMutability": "nonpayable",
      "type": "function"
    },
    {
      "inputs": [
        {
          "internalType": "address",
          "name": "_minter",
          "type": "address"
        }
      ],
      "name": "removeMinter",
      "outputs": [],
      "stateMutability": "nonpayable",
      "type": "function"
    },
    {
      "inputs": [
        {
          "internalType": "address",
          "name": "_paymentManager",
          "type": "address"
        }
      ],
      "name": "removePaymentManager",
      "outputs": [],
      "stateMutability": "nonpayable",
      "type": "function"
    },
    {
      "inputs": [
        {
          "internalType": "bytes32",
          "name": "orderTxId",
          "type": "bytes32"
        },
        {
          "components": [
            {
              "internalType": "address",
              "name": "providerFeeAddress",
              "type": "address"
            },
            {
              "internalType": "address",
              "name": "providerFeeToken",
              "type": "address"
            },
            {
              "internalType": "uint256",
              "name": "providerFeeAmount",
              "type": "uint256"
            },
            {
              "internalType": "uint8",
              "name": "v",
              "type": "uint8"
            },
            {
              "internalType": "bytes32",
              "name": "r",
              "type": "bytes32"
            },
            {
              "internalType": "bytes32",
              "name": "s",
              "type": "bytes32"
            },
            {
              "internalType": "uint256",
              "name": "validUntil",
              "type": "uint256"
            },
            {
              "internalType": "bytes",
              "name": "providerData",
              "type": "bytes"
            }
          ],
          "internalType": "struct ERC20TemplateEnterprise.providerFee",
          "name": "_providerFee",
          "type": "tuple"
        }
      ],
      "name": "reuseOrder",
      "outputs": [],
      "stateMutability": "nonpayable",
      "type": "function"
    },
    {
      "inputs": [],
      "name": "router",
      "outputs": [
        {
          "internalType": "address",
          "name": "",
          "type": "address"
        }
      ],
      "stateMutability": "view",
      "type": "function"
    },
    {
      "inputs": [
        {
          "internalType": "bytes",
          "name": "_value",
          "type": "bytes"
        }
      ],
      "name": "setData",
      "outputs": [],
      "stateMutability": "nonpayable",
      "type": "function"
    },
    {
      "inputs": [
        {
          "internalType": "address",
          "name": "_newPaymentCollector",
          "type": "address"
        }
      ],
      "name": "setPaymentCollector",
      "outputs": [],
      "stateMutability": "nonpayable",
      "type": "function"
    },
    {
      "inputs": [
        {
          "internalType": "address",
          "name": "_publishMarketFeeAddress",
          "type": "address"
        },
        {
          "internalType": "address",
          "name": "_publishMarketFeeToken",
          "type": "address"
        },
        {
          "internalType": "uint256",
          "name": "_publishMarketFeeAmount",
          "type": "uint256"
        }
      ],
      "name": "setPublishingMarketFee",
      "outputs": [],
      "stateMutability": "nonpayable",
      "type": "function"
    },
    {
      "inputs": [
        {
          "internalType": "address",
          "name": "consumer",
          "type": "address"
        },
        {
          "internalType": "uint256",
          "name": "serviceIndex",
          "type": "uint256"
        },
        {
          "components": [
            {
              "internalType": "address",
              "name": "providerFeeAddress",
              "type": "address"
            },
            {
              "internalType": "address",
              "name": "providerFeeToken",
              "type": "address"
            },
            {
              "internalType": "uint256",
              "name": "providerFeeAmount",
              "type": "uint256"
            },
            {
              "internalType": "uint8",
              "name": "v",
              "type": "uint8"
            },
            {
              "internalType": "bytes32",
              "name": "r",
              "type": "bytes32"
            },
            {
              "internalType": "bytes32",
              "name": "s",
              "type": "bytes32"
            },
            {
              "internalType": "uint256",
              "name": "validUntil",
              "type": "uint256"
            },
            {
              "internalType": "bytes",
              "name": "providerData",
              "type": "bytes"
            }
          ],
          "internalType": "struct ERC20TemplateEnterprise.providerFee",
          "name": "_providerFee",
          "type": "tuple"
        },
        {
          "components": [
            {
              "internalType": "address",
              "name": "consumeMarketFeeAddress",
              "type": "address"
            },
            {
              "internalType": "address",
              "name": "consumeMarketFeeToken",
              "type": "address"
            },
            {
              "internalType": "uint256",
              "name": "consumeMarketFeeAmount",
              "type": "uint256"
            }
          ],
          "internalType": "struct ERC20TemplateEnterprise.consumeMarketFee",
          "name": "_consumeMarketFee",
          "type": "tuple"
        }
      ],
      "name": "startOrder",
      "outputs": [],
      "stateMutability": "nonpayable",
      "type": "function"
    },
    {
      "inputs": [],
      "name": "symbol",
      "outputs": [
        {
          "internalType": "string",
          "name": "",
          "type": "string"
        }
      ],
      "stateMutability": "view",
      "type": "function"
    },
    {
      "inputs": [],
      "name": "totalSupply",
      "outputs": [
        {
          "internalType": "uint256",
          "name": "",
          "type": "uint256"
        }
      ],
      "stateMutability": "view",
      "type": "function"
    },
    {
      "inputs": [
        {
          "internalType": "address",
          "name": "to",
          "type": "address"
        },
        {
          "internalType": "uint256",
          "name": "amount",
          "type": "uint256"
        }
      ],
      "name": "transfer",
      "outputs": [
        {
          "internalType": "bool",
          "name": "",
          "type": "bool"
        }
      ],
      "stateMutability": "nonpayable",
      "type": "function"
    },
    {
      "inputs": [
        {
          "internalType": "address",
          "name": "from",
          "type": "address"
        },
        {
          "internalType": "address",
          "name": "to",
          "type": "address"
        },
        {
          "internalType": "uint256",
          "name": "amount",
          "type": "uint256"
        }
      ],
      "name": "transferFrom",
      "outputs": [
        {
          "internalType": "bool",
          "name": "",
          "type": "bool"
        }
      ],
      "stateMutability": "nonpayable",
      "type": "function"
    },
    {
      "inputs": [],
      "name": "withdrawETH",
      "outputs": [],
      "stateMutability": "payable",
      "type": "function"
    }
  ],
  "bytecode": "0x6080604052600b805460ff60a01b191690553480156200001e57600080fd5b5060408051808201825260048152631d195cdd60e21b60208083019182528351808501909452600a8452691d195cdd14de5b589bdb60b21b9084015281519192916200006d9160039162000091565b5080516200008390600490602084019062000091565b505060016007555062000174565b8280546200009f9062000137565b90600052602060002090601f016020900481019282620000c357600085556200010e565b82601f10620000de57805160ff19168380011785556200010e565b828001600101855582156200010e579182015b828111156200010e578251825591602001919060010190620000f1565b506200011c92915062000120565b5090565b5b808211156200011c576000815560010162000121565b600181811c908216806200014c57607f821691505b602082108114156200016e57634e487b7160e01b600052602260045260246000fd5b50919050565b615e8680620001846000396000f3fe6080604052600436106102c55760003560e01c80635d1ca6311161017e578063a8c09b0b116100d3578063d505accf1161008f578063e487c2e81161006c578063e487c2e8146109a8578063ec342ad0146109bd578063ef867ff4146109d9578063f887ea40146109f957005b8063d505accf1461093a578063dd62ed3e1461095a578063e086e5ec146109a057005b8063a8c09b0b14610861578063a9059cbb14610881578063aa271e1a146108a1578063aa492ef9146108da578063ab62f0e1146108fa578063b3998be01461091a57005b806382c03da51161013a57806395d89b411161011757806395d89b41146107ec57806396fb3eaf14610801578063983b2d5614610821578063a457c2d71461084157005b806382c03da51461079757806389208f0f146107ac5780638b96412b146107cc57005b80635d1ca631146106be57806370a08231146106d257806379cc67901461070857806379d9d7f3146107285780637dda231e146107485780637ecebe001461076a57005b8063313ce56711610234578063397b3743116101f057806347ac7d55116101cd57806347ac7d55146106475780634f189cb21461066957806357a3a31b1461067e57806357ad5ff61461069e57005b8063397b3743146105cb57806340c10f191461060757806342966c681461062757005b8063313ce5671461051f578063355274ea14610541578063361fef49146105565780633644e51514610576578063392e53cd1461058c57806339509351146105ab57005b8063191c918a11610283578063191c918a1461044b5780631b53b05f1461046b57806323b872dd1461048b57806325b00243146104ab5780633092afd5146104cb57806330adf81f146104eb57005b80627ffb78146102c757806301e88208146102fe57806306fdde031461034e578063095ea7b314610370578063160a7925146103a057806318160ddd1461042c575b005b3480156102d357600080fd5b50600c546001600160a01b03165b6040516001600160a01b0390911681526020015b60405180910390f35b34801561030a57600080fd5b50610337610319366004614dde565b60056020526000908152604090205460ff8082169161010090041682565b6040805192151583529015156020830152016102f5565b34801561035a57600080fd5b50610363610a19565b6040516102f59190614e27565b34801561037c57600080fd5b5061039061038b366004614e5a565b610aab565b60405190151581526020016102f5565b3480156103ac57600080fd5b5061040d6103bb366004614dde565b6040805180820190915260008082526020820152506001600160a01b031660009081526005602090815260409182902082518084019093525460ff808216151584526101009091041615159082015290565b60408051825115158152602092830151151592810192909252016102f5565b34801561043857600080fd5b506002545b6040519081526020016102f5565b34801561045757600080fd5b506102c5610466366004614e94565b610ac5565b34801561047757600080fd5b506102c5610486366004614f0b565b610d1e565b34801561049757600080fd5b506103906104a6366004614f5c565b610e4c565b3480156104b757600080fd5b506102c56104c6366004614dde565b610e72565b3480156104d757600080fd5b506102c56104e6366004614dde565b610f8a565b3480156104f757600080fd5b5061043d7f6e71edae12b1b97f4d1f60370fef10105fa2faae0126114a169c64845d6126c981565b34801561052b57600080fd5b5060125b60405160ff90911681526020016102f5565b34801561054d57600080fd5b50600a5461043d565b34801561056257600080fd5b506102c5610571366004614fb0565b61109f565b34801561058257600080fd5b5061043d60115481565b34801561059857600080fd5b50600b54600160a01b900460ff16610390565b3480156105b757600080fd5b506103906105c6366004614e5a565b6110f0565b3480156105d757600080fd5b50600e54600f54601054604080516001600160a01b039485168152939092166020840152908201526060016102f5565b34801561061357600080fd5b506102c5610622366004614e5a565b61112f565b34801561063357600080fd5b506102c5610642366004614ff6565b6111fc565b34801561065357600080fd5b5061065c611206565b6040516102f59190615053565b34801561067557600080fd5b506102c5611267565b34801561068a57600080fd5b506102c5610699366004614dde565b61133e565b3480156106aa57600080fd5b506102c56106b9366004614f5c565b6114fe565b3480156106ca57600080fd5b50600261052f565b3480156106de57600080fd5b5061043d6106ed366004614dde565b6001600160a01b031660009081526020819052604090205490565b34801561071457600080fd5b506102c5610723366004614e5a565b6116b7565b34801561073457600080fd5b506102c5610743366004615066565b6116cc565b34801561075457600080fd5b5061075d61194e565b6040516102f591906150d9565b34801561077657600080fd5b5061043d610785366004614dde565b60126020526000908152604090205481565b3480156107a357600080fd5b506102c56119c3565b3480156107b857600080fd5b506102c56107c7366004615179565b611a1d565b3480156107d857600080fd5b5061043d6107e736600461532a565b611d0a565b3480156107f857600080fd5b5061036361203c565b34801561080d57600080fd5b5061039061081c366004614dde565b61204b565b34801561082d57600080fd5b506102c561083c366004614dde565b6120c6565b34801561084d57600080fd5b5061039061085c366004614e5a565b6121db565b34801561086d57600080fd5b506102c561087c3660046153ff565b612278565b34801561088d57600080fd5b5061039061089c366004614e5a565b61270c565b3480156108ad57600080fd5b506103906108bc366004614dde565b6001600160a01b031660009081526005602052604090205460ff1690565b3480156108e657600080fd5b506102c56108f5366004614dde565b61271a565b34801561090657600080fd5b506102c5610915366004615458565b61282f565b34801561092657600080fd5b506103906109353660046154dd565b6129de565b34801561094657600080fd5b506102c56109553660046155de565b612b18565b34801561096657600080fd5b5061043d61097536600461564c565b6001600160a01b03918216600090815260016020908152604080832093909416825291909152205490565b6102c5612d2a565b3480156109b457600080fd5b506102e1612d6a565b3480156109c957600080fd5b5061043d670de0b6b3a764000081565b3480156109e557600080fd5b506102e16109f4366004614ff6565b612dff565b348015610a0557600080fd5b506013546102e1906001600160a01b031681565b606060088054610a289061567a565b80601f0160208091040260200160405190810160405280929190818152602001828054610a549061567a565b8015610aa15780601f10610a7657610100808354040283529160200191610aa1565b820191906000526020600020905b815481529060010190602001808311610a8457829003601f168201915b5050505050905090565b600033610ab9818585612e29565b60019150505b92915050565b600c5460405163160a792560e01b81523360048201526001600160a01b039091169063160a7925906024016080604051808303816000875af1158015610b0f573d6000803e3d6000fd5b505050506040513d601f19601f82011682018060405250810190610b3391906156af565b6020015180610bb55750600c546040516331a9108f60e11b81526001600482015233916001600160a01b031690636352211e90602401602060405180830381865afa158015610b86573d6000803e3d6000fd5b505050506040513d601f19601f82011682018060405250810190610baa9190615733565b6001600160a01b0316145b610bda5760405162461bcd60e51b8152600401610bd190615750565b60405180910390fd5b60026007541415610bfd5760405162461bcd60e51b8152600401610bd190615785565b6002600755601354604051636b14d00560e11b81526001600160a01b0387811660048301523060248301819052604483018890526064830187905233608484015260a48301529091169063d629a00a9060c401600060405180830381600087803b158015610c6a57600080fd5b505af1158015610c7e573d6000803e3d6000fd5b505050508115610c9157610c9185612f4e565b601580546001810182556000919091527f55f448fdea98c4d29eb340757ef0a66cd03dbb9538908a6a81d96026b71ec4750180546001600160a01b0319166001600160a01b0387169081179091556040519081527fa31ffd41531537eb31bfd827a3f5372b5f62bf4dd8579e5354b280dc58490e709060200160405180910390a150506001600755505050565b60026007541415610d415760405162461bcd60e51b8152600401610bd190615785565b6002600755604051631d746d8360e01b8152306004820152670de0b6b3a764000060248201819052336044830152906001600160a01b03831690631d746d8390606401600060405180830381600087803b158015610d9e57600080fd5b505af1158015610db2573d6000803e3d6000fd5b50503360009081526020819052604090205483925090501015610e175760405162461bcd60e51b815260206004820152601f60248201527f556e61626c6520746f206765742044542066726f6d2044697370656e736572006044820152606401610bd1565b610e42610e276020850185614dde565b6020850135610e3960408701876157bc565b866060016116cc565b5050600160075550565b600033610e5a858285613025565b610e658585856130b7565b60019150505b9392505050565b600c5460405163160a792560e01b81523360048201526001600160a01b039091169063160a7925906024016080604051808303816000875af1158015610ebc573d6000803e3d6000fd5b505050506040513d601f19601f82011682018060405250810190610ee091906156af565b6020015180610f625750600c546040516331a9108f60e11b81526001600482015233916001600160a01b031690636352211e90602401602060405180830381865afa158015610f33573d6000803e3d6000fd5b505050506040513d601f19601f82011682018060405250810190610f579190615733565b6001600160a01b0316145b610f7e5760405162461bcd60e51b8152600401610bd190615750565b610f8781613285565b50565b600c5460405163160a792560e01b81523360048201526001600160a01b039091169063160a7925906024016080604051808303816000875af1158015610fd4573d6000803e3d6000fd5b505050506040513d601f19601f82011682018060405250810190610ff891906156af565b602001518061107a5750600c546040516331a9108f60e11b81526001600482015233916001600160a01b031690636352211e90602401602060405180830381865afa15801561104b573d6000803e3d6000fd5b505050506040513d601f19601f8201168201806040525081019061106f9190615733565b6001600160a01b0316145b6110965760405162461bcd60e51b8152600401610bd190615750565b610f87816132f7565b60408051838152336020820152428183015243606082015290517f526e31449ea46e2aecf9b480c8d7dfa191348ef74ffdf75b445a6ab726daa6ff9181900360800190a16110ec81613357565b5050565b3360008181526001602090815260408083206001600160a01b0387168452909152812054909190610ab9908290869061112a9087906157f2565b612e29565b3360009081526005602052604090205460ff1661118e5760405162461bcd60e51b815260206004820152601960248201527f455243323054656d706c6174653a204e4f54204d494e544552000000000000006044820152606401610bd1565b600a546111a48261119e60025490565b9061370a565b11156111f25760405162461bcd60e51b815260206004820152601f60248201527f44617461746f6b656e54656d706c6174653a20636170206578636565646564006044820152606401610bd1565b6110ec8282613716565b610f8733826137f5565b60606015805480602002602001604051908101604052809291908181526020018280548015610aa157602002820191906000526020600020905b81546001600160a01b03168152600190910190602001808311611240575050505050905090565b600c546040516331a9108f60e11b8152600160048201526001600160a01b0390911690636352211e90602401602060405180830381865afa1580156112b0573d6000803e3d6000fd5b505050506040513d601f19601f820116820180604052508101906112d49190615733565b6001600160a01b0316336001600160a01b0316146113345760405162461bcd60e51b815260206004820152601b60248201527f455243323054656d706c6174653a206e6f74204e46544f776e657200000000006044820152606401610bd1565b61133c613940565b565b33600090815260056020526040902054610100900460ff16806113cf5750600c5460405163160a792560e01b81523360048201526001600160a01b039091169063160a7925906024016080604051808303816000875af11580156113a6573d6000803e3d6000fd5b505050506040513d601f19601f820116820180604052508101906113ca91906156af565b602001515b8061144d5750600c546040516331a9108f60e11b81526001600482015233916001600160a01b031690636352211e90602401602060405180830381865afa15801561141e573d6000803e3d6000fd5b505050506040513d601f19601f820116820180604052508101906114429190615733565b6001600160a01b0316145b6114ad5760405162461bcd60e51b815260206004820152602b60248201527f455243323054656d706c6174653a204e4f54205041594d454e54204d414e414760448201526a22a91037b91027aba722a960a91b6064820152608401610bd1565b6114b681613e1b565b604080514281524360208201526001600160a01b0383169133917f4d7694d695c57cc54947177c8e8a0e61aae664e9223492a798c32fadfc6419cc910160405180910390a350565b600e546001600160a01b0316331461156b5760405162461bcd60e51b815260206004820152602a60248201527f455243323054656d706c6174653a206e6f74207075626c6973684d61726b65746044820152694665654164647265737360b01b6064820152608401610bd1565b6001600160a01b0383166115d25760405162461bcd60e51b815260206004820152602860248201527f496e76616c6964205f7075626c6973684d61726b657446656541646472657373604482015267206164647265737360c01b6064820152608401610bd1565b6001600160a01b0382166116375760405162461bcd60e51b815260206004820152602660248201527f496e76616c6964205f7075626c6973684d61726b6574466565546f6b656e206160448201526564647265737360d01b6064820152608401610bd1565b600e80546001600160a01b038581166001600160a01b03199283168117909355600f80549186169190921681179091556010839055604080513381526020810193909352820152606081018290527f02ab4b3fc023109c2d0da394bda239166c833f63c42b71b67ed4b836dca0ddfe9060800160405180910390a1505050565b6116c2823383613025565b6110ec82826137f5565b33600090815260208190526040812054670de0b6b3a764000091908211156117425760405162461bcd60e51b8152602060048201526024808201527f4e6f7420656e6f7567682064617461746f6b656e7320746f207374617274204f604482015263393232b960e11b6064820152608401610bd1565b600e5460408051338152602081018590529081018790524260608201524360808201526001600160a01b03918216918816907fe1c4fa794edfa8f619b8257a077398950357b9c6398528f94480307352f9afcc9060a00160405180910390a360006010541180156117bd5750600f546001600160a01b031615155b80156117d35750600e546001600160a01b031615155b1561184857600f54600e546010546117fb926001600160a01b03908116923392911690613e3d565b600f54600e546010546040519081526001600160a01b0392831692909116907f4049a448ac6f0284a98d2cb9199e73605944ea5bec901a037f88c84703de82b29060200160405180910390a35b60008360400135118015611875575060006118696040850160208601614dde565b6001600160a01b031614155b80156118975750600061188b6020850185614dde565b6001600160a01b031614155b15611934576118c76118af6040850160208601614dde565b336118bd6020870187614dde565b8660400135613e3d565b6118d76040840160208501614dde565b6001600160a01b03166118ed6020850185614dde565b6001600160a01b03167f6d11837f46cc09b011cf4aae09fcade046c020aac088090ae4f77ff67b707972856040013560405161192b91815260200190565b60405180910390a35b61193d84613357565b611946826111fc565b505050505050565b60606014805480602002602001604051908101604052809291908181526020016000905b828210156119ba576000848152602090819020604080518082019091526002850290910180546001600160a01b03168252600190810154828401529083529092019101611972565b50505050905090565b600c546001600160a01b031633146113345760405162461bcd60e51b815260206004820152601f60248201527f455243323054656d706c6174653a204e4f542037323120436f6e7472616374006044820152606401610bd1565b336001600160a01b0382161415611a765760405162461bcd60e51b815260206004820152601f60248201527f50726f76696465722063616e6e6f742062652074686520636f6e73756d6572006044820152606401610bd1565b60006040518060400160405280601c81526020017f19457468657265756d205369676e6564204d6573736167653a0a33320000000081525090506000818c8c8c604051602001611ac89392919061580a565b60405160208183030381529060405280519060200120604051602001611aef929190615824565b604051602081830303815290604052805190602001209050336001600160a01b0316611b51828b8b8080601f016020809104026020016040519081016040528093929190818152602001838380828437600092019190915250613f8b92505050565b6001600160a01b031614611ba75760405162461bcd60e51b815260206004820152601f60248201527f50726f7669646572207369676e617475726520636865636b206661696c6564006044820152606401610bd1565b6000828888604051602001611bbd929190615846565b60405160208183030381529060405280519060200120604051602001611be4929190615824565b604051602081830303815290604052805190602001209050836001600160a01b0316611c468288888080601f016020809104026020016040519081016040528093929190818152602001838380828437600092019190915250613f8b92505050565b6001600160a01b031614611c9c5760405162461bcd60e51b815260206004820152601f60248201527f436f6e73756d6572207369676e617475726520636865636b206661696c6564006044820152606401610bd1565b836001600160a01b0316336001600160a01b03167fc9a10280e9c735c63092fa5431e6acb3ed342e08b69a083e5e676994eb7070f98f8f8f8f8f8f8f8f8f4243604051611cf39b9a9998979695949392919061587f565b60405180910390a350505050505050505050505050565b600c5460405163160a792560e01b81523360048201526000916001600160a01b03169063160a7925906024016080604051808303816000875af1158015611d55573d6000803e3d6000fd5b505050506040513d601f19601f82011682018060405250810190611d7991906156af565b6020015180611dfb5750600c546040516331a9108f60e11b81526001600482015233916001600160a01b031690636352211e90602401602060405180830381865afa158015611dcc573d6000803e3d6000fd5b505050506040513d601f19601f82011682018060405250810190611df09190615733565b6001600160a01b0316145b611e175760405162461bcd60e51b8152600401610bd190615750565b60026007541415611e3a5760405162461bcd60e51b8152600401610bd190615785565b60026007819055503083600381518110611e5657611e566158f1565b6001600160a01b039283166020918202929092010152601354604051638244937560e01b8152911690638244937590611e9790879087908790600401615907565b6020604051808303816000875af1158015611eb6573d6000803e3d6000fd5b505050506040513d601f19601f82011682018060405250810190611eda919061596d565b9050600082600481518110611ef157611ef16158f1565b60200260200101511115611f0857611f0884612f4e565b82600081518110611f1b57611f1b6158f1565b60200260200101516001600160a01b031683600181518110611f3f57611f3f6158f1565b60200260200101516001600160a01b03167fb3fac3ae95956dbac74e63ba8dac94081832395c8788e3049c900a7732f348058387604051611f939291909182526001600160a01b0316602082015260400190565b60405180910390a3604080518082019091526001600160a01b03948516815260208101828152601480546001808201835560009290925292517fce6d7b5282bd9a3661ae061feed1dbda4e52ab073b1f9285be6e155d9c38d4ec600290940293840180546001600160a01b0319169190981617909655517fce6d7b5282bd9a3661ae061feed1dbda4e52ab073b1f9285be6e155d9c38d4ed909101556007939093555090919050565b606060098054610a289061567a565b600c5460405163160a792560e01b81526001600160a01b038381166004830152600092169063160a7925906024016080604051808303816000875af1158015612098573d6000803e3d6000fd5b505050506040513d601f19601f820116820180604052508101906120bc91906156af565b6020015192915050565b600c5460405163160a792560e01b81523360048201526001600160a01b039091169063160a7925906024016080604051808303816000875af1158015612110573d6000803e3d6000fd5b505050506040513d601f19601f8201168201806040525081019061213491906156af565b60200151806121b65750600c546040516331a9108f60e11b81526001600482015233916001600160a01b031690636352211e90602401602060405180830381865afa158015612187573d6000803e3d6000fd5b505050506040513d601f19601f820116820180604052508101906121ab9190615733565b6001600160a01b0316145b6121d25760405162461bcd60e51b8152600401610bd190615750565b610f8781612f4e565b3360008181526001602090815260408083206001600160a01b0387168452909152812054909190838110156122605760405162461bcd60e51b815260206004820152602560248201527f45524332303a2064656372656173656420616c6c6f77616e63652062656c6f77604482015264207a65726f60d81b6064820152608401610bd1565b61226d8286868403612e29565b506001949350505050565b6002600754141561229b5760405162461bcd60e51b8152600401610bd190615785565b600260075560006122af6020830183614dde565b604051634c87087d60e01b81526020840135600482015290915060009081906001600160a01b03841690634c87087d9060240161018060405180830381865afa158015612300573d6000803e3d6000fd5b505050506040513d601f19601f820116820180604052508101906123249190615986565b5050505050505050935050925050306001600160a01b0316826001600160a01b0316146123a35760405162461bcd60e51b815260206004820152602760248201527f5468697320466978656452617465206973206e6f742070726f766964696e67206044820152661d1a1a5cc8111560ca1b6064820152608401610bd1565b604051636e8de4b560e11b815260208501356004820152670de0b6b3a76400006024820152606085013560448201526000906001600160a01b0385169063dd1bc96a90606401608060405180830381865afa158015612406573d6000803e3d6000fd5b505050506040513d601f19601f8201168201806040525081019061242a9190615a43565b505050905084604001358111156124935760405162461bcd60e51b815260206004820152602760248201527f46697865645261746545786368616e67653a20546f6f206d616e79206261736560448201526620746f6b656e7360c81b6064820152608401610bd1565b61249f82333084613e3d565b6124c06124af6020870187614dde565b6001600160a01b0384169083614063565b6001600160a01b0384166368c4b7e96020870135670de0b6b3a7640000846124ee60a08b0160808c01614dde565b6040516001600160e01b031960e087901b1681526004810194909452602484019290925260448301526001600160a01b031660648201526060880135608482015260a401600060405180830381600087803b15801561254c57600080fd5b505af1158015612560573d6000803e3d6000fd5b505030600090815260208190526040902054670de0b6b3a76400009250905010156125cd5760405162461bcd60e51b815260206004820152601f60248201527f556e61626c6520746f206275792044542066726f6d20466978656452617465006044820152606401610bd1565b6125e03033670de0b6b3a76400006130b7565b61260b6125f06020880188614dde565b602088013561260260408a018a6157bc565b896060016116cc565b604051634c87087d60e01b815260208601356004820152600090819081906001600160a01b03881690634c87087d9060240161018060405180830381865afa15801561265b573d6000803e3d6000fd5b505050506040513d601f19601f8201168201806040525081019061267f9190615986565b9b509b509b5050505050505050505060008211156126fc57604051637997ca3b60e11b815260208901356004820152602481018390526001600160a01b0388169063f32f947690604401600060405180830381600087803b1580156126e357600080fd5b505af11580156126f7573d6000803e3d6000fd5b505050505b5050600160075550505050505050565b600033610ab98185856130b7565b600c5460405163160a792560e01b81523360048201526001600160a01b039091169063160a7925906024016080604051808303816000875af1158015612764573d6000803e3d6000fd5b505050506040513d601f19601f8201168201806040525081019061278891906156af565b602001518061280a5750600c546040516331a9108f60e11b81526001600482015233916001600160a01b031690636352211e90602401602060405180830381865afa1580156127db573d6000803e3d6000fd5b505050506040513d601f19601f820116820180604052508101906127ff9190615733565b6001600160a01b0316145b6128265760405162461bcd60e51b8152600401610bd190615750565b610f8781614148565b600c5460405163160a792560e01b81523360048201526001600160a01b039091169063160a7925906024016080604051808303816000875af1158015612879573d6000803e3d6000fd5b505050506040513d601f19601f8201168201806040525081019061289d91906156af565b602001518061291f5750600c546040516331a9108f60e11b81526001600482015233916001600160a01b031690636352211e90602401602060405180830381865afa1580156128f0573d6000803e3d6000fd5b505050506040513d601f19601f820116820180604052508101906129149190615733565b6001600160a01b0316145b61293b5760405162461bcd60e51b8152600401610bd190615750565b6040516bffffffffffffffffffffffff193060601b16602082015260009060340160408051601f19818403018152908290528051602090910120600c546301caf8fd60e31b83529092506001600160a01b031690630e57c7e8906129a790849087908790600401615a79565b600060405180830381600087803b1580156129c157600080fd5b505af11580156129d5573d6000803e3d6000fd5b50505050505050565b600b54600090600160a01b900460ff1615612a555760405162461bcd60e51b815260206004820152603160248201527f455243323054656d706c6174653a20746f6b656e20696e7374616e636520616c6044820152701c9958591e481a5b9a5d1a585b1a5e9959607a1b6064820152608401610bd1565b612b09612a628b8d615af3565b8a8a8080602002602001604051908101604052809392919081815260200183836020028082843760009201919091525050604080516020808e0282810182019093528d82529093508d92508c91829185019084908082843760009201919091525050604080516020808d0282810182019093528c82529093508c92508b918291850190849080828437600092019190915250612b0492508991508a9050615b7a565b614229565b9b9a5050505050505050505050565b43841015612b5b5760405162461bcd60e51b815260206004820152601060248201526f115490cc8c11150e881156141254915160821b6044820152606401610bd1565b6011546001600160a01b038816600090815260126020526040812080549192917f6e71edae12b1b97f4d1f60370fef10105fa2faae0126114a169c64845d6126c9918b918b918b919087612bae83615bf5565b909155506040805160208101969096526001600160a01b0394851690860152929091166060840152608083015260a082015260c0810187905260e00160405160208183030381529060405280519060200120604051602001612c2792919061190160f01b81526002810192909252602282015260420190565b60408051601f198184030181528282528051602091820120600080855291840180845281905260ff88169284019290925260608301869052608083018590529092509060019060a0016020604051602081039080840390855afa158015612c92573d6000803e3d6000fd5b5050604051601f1901519150506001600160a01b03811615801590612cc85750886001600160a01b0316816001600160a01b0316145b612d145760405162461bcd60e51b815260206004820152601a60248201527f455243323044543a20494e56414c49445f5349474e41545552450000000000006044820152606401610bd1565b612d1f898989612e29565b505050505050505050565b612d32612d6a565b6001600160a01b03166108fc479081150290604051600060405180830381858888f19350505050158015610f87573d6000803e3d6000fd5b600d546000906001600160a01b0316612def57600c546040516331a9108f60e11b8152600160048201526001600160a01b0390911690636352211e90602401602060405180830381865afa158015612dc6573d6000803e3d6000fd5b505050506040513d601f19601f82011682018060405250810190612dea9190615733565b905090565b50600d546001600160a01b031690565b60068181548110612e0f57600080fd5b6000918252602090912001546001600160a01b0316905081565b6001600160a01b038316612e8b5760405162461bcd60e51b8152602060048201526024808201527f45524332303a20617070726f76652066726f6d20746865207a65726f206164646044820152637265737360e01b6064820152608401610bd1565b6001600160a01b038216612eec5760405162461bcd60e51b815260206004820152602260248201527f45524332303a20617070726f766520746f20746865207a65726f206164647265604482015261737360f01b6064820152608401610bd1565b6001600160a01b0383811660008181526001602090815260408083209487168084529482529182902085905590518481527f8c5be1e5ebec7d5bd14f71427d1e84f3dd0314c0f7b2291e5b200ac8c7c3b92591015b60405180910390a3505050565b6001600160a01b03811615610f87576001600160a01b0381166000908152600560205260409020805460ff1615612fc75760405162461bcd60e51b815260206004820152601d60248201527f4552433230526f6c65733a2020414c52454144592041204d494e5445520000006044820152606401610bd1565b805460ff19166001178155612fdb82614773565b6040805142815243602082015233916001600160a01b038516917f4f7e100eb1ee13e903798bd0d6aa854152e07eb05544f392b9409c12935c809591015b60405180910390a35050565b6001600160a01b0383811660009081526001602090815260408083209386168352929052205460001981146130b157818110156130a45760405162461bcd60e51b815260206004820152601d60248201527f45524332303a20696e73756666696369656e7420616c6c6f77616e63650000006044820152606401610bd1565b6130b18484848403612e29565b50505050565b6001600160a01b03831661311b5760405162461bcd60e51b815260206004820152602560248201527f45524332303a207472616e736665722066726f6d20746865207a65726f206164604482015264647265737360d81b6064820152608401610bd1565b6001600160a01b03821661317d5760405162461bcd60e51b815260206004820152602360248201527f45524332303a207472616e7366657220746f20746865207a65726f206164647260448201526265737360e81b6064820152608401610bd1565b6001600160a01b038316600090815260208190526040902054818110156131f55760405162461bcd60e51b815260206004820152602660248201527f45524332303a207472616e7366657220616d6f756e7420657863656564732062604482015265616c616e636560d01b6064820152608401610bd1565b6001600160a01b0380851660009081526020819052604080822085850390559185168152908120805484929061322c9084906157f2565b92505081905550826001600160a01b0316846001600160a01b03167fddf252ad1be2c89b69c2b068fc378daa952ba7f163c4a11628f55a4df523b3ef8460405161327891815260200190565b60405180910390a36130b1565b6001600160a01b03811660008181526005602052604090819020805461ff00191681559051909133917faee911eec8b2df8f3ae0464841541b1e5f339519bd5cf51889fe8b07fecff658906132e69042904390918252602082015260400190565b60405180910390a36110ec8261482a565b6001600160a01b03811660008181526005602052604090819020805460ff191681559051909133917fefa2735987005aaa89c050c0ff8cc9ae7d9079d19382081c429130f98c52d480906132e69042904390918252602082015260400190565b60408051808201909152601c81527f19457468657265756d205369676e6564204d6573736167653a0a333200000000602082015260008161339b60e0850185615c10565b6133a86020870187614dde565b6133b86040880160208901614dde565b87604001358860c001356040516020016133d796959493929190615c56565b604051602081830303815290604052805190602001206040516020016133fe929190615824565b60408051601f1981840301815291905280516020909101209050600060018261342d6080870160608801615c94565b6040805160008152602081018083529390935260ff90911690820152608080870135606083015260a08088013591830191909152016020604051602081039080840390855afa158015613484573d6000803e3d6000fd5b5050604051601f190151915061349f90506020850185614dde565b6001600160a01b0316816001600160a01b0316146134f65760405162461bcd60e51b8152602060048201526014602482015273496e76616c69642070726f76696465722066656560601b6044820152606401610bd1565b6135066040850160208601614dde565b6001600160a01b031661351c6020860186614dde565b6001600160a01b03167ff8ed11cdaaf10eca2b6c941fb802cb8682afe86cac1eb93f70d0780fa062c544604087013561355860e0890189615c10565b61356860808b0160608c01615c94565b8a608001358b60a001358c60c0013560405161358a9796959493929190615caf565b60405180910390a3600084604001351180156135bf575060006135b36040860160208701614dde565b6001600160a01b031614155b80156135e1575060006135d56020860186614dde565b6001600160a01b031614155b156130b15760135460408051636c45e88160e01b815290516000926001600160a01b031691636c45e8819160048083019260209291908290030181865afa158015613630573d6000803e3d6000fd5b505050506040513d601f19601f82011682018060405250810190613654919061596d565b9050600081156136815761367e670de0b6b3a7640000613678604089013585614978565b90614984565b90505b6000613691604088013583614990565b90506136b26136a66040890160208a01614dde565b33308a60400135613e3d565b6136e36136c26020890189614dde565b826136d360408b0160208c01614dde565b6001600160a01b0316919061499c565b81156129d557600b546129d5906001600160a01b0316836136d360408b0160208c01614dde565b6000610e6b82846157f2565b6001600160a01b03821661376c5760405162461bcd60e51b815260206004820152601f60248201527f45524332303a206d696e7420746f20746865207a65726f2061646472657373006044820152606401610bd1565b806002600082825461377e91906157f2565b90915550506001600160a01b038216600090815260208190526040812080548392906137ab9084906157f2565b90915550506040518181526001600160a01b038316906000907fddf252ad1be2c89b69c2b068fc378daa952ba7f163c4a11628f55a4df523b3ef9060200160405180910390a35050565b6001600160a01b0382166138555760405162461bcd60e51b815260206004820152602160248201527f45524332303a206275726e2066726f6d20746865207a65726f206164647265736044820152607360f81b6064820152608401610bd1565b6001600160a01b038216600090815260208190526040902054818110156138c95760405162461bcd60e51b815260206004820152602260248201527f45524332303a206275726e20616d6f756e7420657863656564732062616c616e604482015261636560f01b6064820152608401610bd1565b6001600160a01b03831660009081526020819052604081208383039055600280548492906138f8908490615cf2565b90915550506040518281526000906001600160a01b038516907fddf252ad1be2c89b69c2b068fc378daa952ba7f163c4a11628f55a4df523b3ef90602001612f41565b505050565b601554601454600091613952916157f2565b9050600080826001600160401b0381111561396f5761396f615256565b604051908082528060200260200182016040528015613998578160200160208202803683370190505b50905060005b601454811015613c7e576000601482815481106139bd576139bd6158f1565b60009182526020822060029091020154601480546001600160a01b039092169350829182918591634c87087d9190889081106139fb576139fb6158f1565b9060005260206000209060020201600101546040518263ffffffff1660e01b8152600401613a2b91815260200190565b61018060405180830381865afa158015613a49573d6000803e3d6000fd5b505050506040513d601f19601f82011682018060405250810190613a6d9190615986565b9b509b509b505050505050505050506000821115613b1357836001600160a01b031663f32f947660148781548110613aa757613aa76158f1565b906000526020600020906002020160010154846040518363ffffffff1660e01b8152600401613ae0929190918252602082015260400190565b600060405180830381600087803b158015613afa57600080fd5b505af1158015613b0e573d6000803e3d6000fd5b505050505b8215613ba757836001600160a01b031663c612e48a60148781548110613b3b57613b3b6158f1565b906000526020600020906002020160010154856040518363ffffffff1660e01b8152600401613b74929190918252602082015260400190565b600060405180830381600087803b158015613b8e57600080fd5b505af1158015613ba2573d6000803e3d6000fd5b505050505b613bea60148681548110613bbd57613bbd6158f1565b600091825260208083206002909202909101546001600160a01b0316825260059052604090205460ff1690565b8015613bf857506001811515145b15613c675760148581548110613c1057613c106158f1565b600091825260209091206002909102015486516001600160a01b0390911690879089908110613c4157613c416158f1565b6001600160a01b039092166020928302919091019091015286613c6381615bf5565b9750505b505050508080613c7690615bf5565b91505061399e565b5060005b601554811015613dc35760158181548110613c9f57613c9f6158f1565b60009182526020909120015460405163f9bfaa7d60e01b81523060048201526001600160a01b039091169063f9bfaa7d90602401600060405180830381600087803b158015613ced57600080fd5b505af1158015613d01573d6000803e3d6000fd5b50505050613d4360158281548110613d1b57613d1b6158f1565b60009182526020808320909101546001600160a01b0316825260059052604090205460ff1690565b15613db15760158181548110613d5b57613d5b6158f1565b9060005260206000200160009054906101000a90046001600160a01b0316828481518110613d8b57613d8b6158f1565b6001600160a01b039092166020928302919091019091015282613dad81615bf5565b9350505b80613dbb81615bf5565b915050613c82565b613dcb6149cc565b50600d80546001600160a01b031916905560005b828110156130b157613e09828281518110613dfc57613dfc6158f1565b6020026020010151612f4e565b80613e1381615bf5565b915050613ddf565b600d80546001600160a01b0319166001600160a01b0392909216919091179055565b6040516370a0823160e01b81526001600160a01b038381166004830152600091908616906370a0823190602401602060405180830381865afa158015613e87573d6000803e3d6000fd5b505050506040513d601f19601f82011682018060405250810190613eab919061596d565b9050613ec26001600160a01b038616858585614a7b565b613ecc818361370a565b6040516370a0823160e01b81526001600160a01b0385811660048301528716906370a0823190602401602060405180830381865afa158015613f12573d6000803e3d6000fd5b505050506040513d601f19601f82011682018060405250810190613f36919061596d565b1015613f845760405162461bcd60e51b815260206004820152601a60248201527f5472616e7366657220616d6f756e7420697320746f6f206c6f770000000000006044820152606401610bd1565b5050505050565b6000806000808451604114613fa65760009350505050610abf565b50505060208201516040830151604184015160ff16601b811015613fd257613fcf601b82615d09565b90505b8060ff16601b14158015613fea57508060ff16601c14155b15613ffb5760009350505050610abf565b60408051600081526020810180835288905260ff831691810191909152606081018490526080810183905260019060a0016020604051602081039080840390855afa15801561404e573d6000803e3d6000fd5b5050604051601f190151979650505050505050565b604051636eb1769f60e11b81523060048201526001600160a01b038381166024830152600091839186169063dd62ed3e90604401602060405180830381865afa1580156140b4573d6000803e3d6000fd5b505050506040513d601f19601f820116820180604052508101906140d8919061596d565b6140e291906157f2565b6040516001600160a01b0385166024820152604481018290529091506130b190859063095ea7b360e01b906064015b60408051601f198184030181529190526020810180516001600160e01b03166001600160e01b031990931692909217909152614ab3565b6001600160a01b03811615610f87576001600160a01b03811660009081526005602052604090208054610100900460ff16156141d15760405162461bcd60e51b815260206004820152602260248201527f4552433230526f6c65733a2020414c5245414459204120464545204d414e414760448201526122a960f11b6064820152608401610bd1565b805461ff0019166101001781556141e782614773565b6040805142815243602082015233916001600160a01b038516917fb17da2e9910b4ba5754e8872385ba315a238bafb5ae221fc85093c33432c40a79101613019565b6000808460008151811061423f5761423f6158f1565b6020026020010151905060008560018151811061425e5761425e6158f1565b6020026020010151905060006001600160a01b0316826001600160a01b031614156142e05760405162461bcd60e51b815260206004820152602c60248201527f455243323054656d706c6174653a20496e76616c6964206d696e7465722c202060448201526b7a65726f206164647265737360a01b6064820152608401610bd1565b6001600160a01b03811661435c5760405162461bcd60e51b815260206004820152603c60248201527f455243323054656d706c6174653a20496e76616c696420636f6d6d756e69747960448201527f2066656520636f6c6c6563746f722c207a65726f2061646472657373000000006064820152608401610bd1565b8460008151811061436f5761436f6158f1565b6020026020010151600014156143d35760405162461bcd60e51b8152602060048201526024808201527f44617461746f6b656e54656d706c6174653a20496e76616c6964206361702076604482015263616c756560e01b6064820152608401610bd1565b846000815181106143e6576143e66158f1565b6020026020010151600a8190555087600081518110614407576144076158f1565b602002602001015160089080519060200190614424929190614d06565b5087600181518110614438576144386158f1565b602002602001015160099080519060200190614455929190614d06565b50600c80546001600160a01b0319166001600160a01b038416179055855186906002908110614486576144866158f1565b6020908102919091010151601380546001600160a01b039283166001600160a01b0319909116179055600b80546001600160a81b03191691831691909117600160a01b17905586516144e3908890600090613dfc57613dfc6158f1565b60006001600160a01b031687600181518110614501576145016158f1565b60200260200101516001600160a01b0316146145ab5761453a8760018151811061452d5761452d6158f1565b6020026020010151613e1b565b8660018151811061454d5761454d6158f1565b60200260200101516001600160a01b0316336001600160a01b03167f4d7694d695c57cc54947177c8e8a0e61aae664e9223492a798c32fadfc6419cc42436040516145a2929190918252602082015260400190565b60405180910390a35b866002815181106145be576145be6158f1565b6020026020010151600e60006101000a8154816001600160a01b0302191690836001600160a01b03160217905550866003815181106145ff576145ff6158f1565b6020026020010151600f60006101000a8154816001600160a01b0302191690836001600160a01b0316021790555084600181518110614640576146406158f1565b6020908102919091018101516010819055600e54600f54604080513381526001600160a01b039384169581019590955291169083015260608201527f02ab4b3fc023109c2d0da394bda239166c833f63c42b71b67ed4b836dca0ddfe9060800160405180910390a160405146907f8b73c3c69bb8fe3d512ecc4cf759cc79239f7b179b0ffacaa9a75d522b39400f906146db90600890615d2e565b60408051918290038220828201825260018352603160f81b6020938401528151928301939093528101919091527fc89efdaa54c0f20c7adf612882df0950f5a951637e0307cdcb4c672f298b8bc66060820152608081018290523060a082015260c00160408051808303601f1901815291905280516020909101206011555050600b54600160a01b900460ff16979650505050505050565b60005b6006548110156147cf57816001600160a01b03166006828154811061479d5761479d6158f1565b6000918252602090912001546001600160a01b031614156147bd576147cf565b806147c781615bf5565b915050614776565b6006548114156110ec57600680546001810182556000919091527ff652222313e28459528d920b65115c16c04f3efc82aaedc97be59f3f377c0d3f0180546001600160a01b0384166001600160a01b03199091161790555050565b6001600160a01b0381166000908152600560205260409020805460ff1615801561485b57508054610100900460ff16155b156110ec5760005b6006548110156148bc57826001600160a01b03166006828154811061488a5761488a6158f1565b6000918252602090912001546001600160a01b031614156148aa576148bc565b806148b481615bf5565b915050614863565b60065481101561393b57600680546148d690600190615cf2565b815481106148e6576148e66158f1565b600091825260209091200154600680546001600160a01b039092169183908110614912576149126158f1565b9060005260206000200160006101000a8154816001600160a01b0302191690836001600160a01b03160217905550600680548061495157614951615dca565b600082815260209020810160001990810180546001600160a01b0319169055019055505050565b6000610e6b8284615de0565b6000610e6b8284615dff565b6000610e6b8284615cf2565b6040516001600160a01b03831660248201526044810182905261393b90849063a9059cbb60e01b90606401614111565b60005b600654811015614a3257600060056000600684815481106149f2576149f26158f1565b60009182526020808320909101546001600160a01b031683528201929092526040019020805461ffff191690555080614a2a81615bf5565b9150506149cf565b50614a3f60066000614d8a565b6040805142815243602082015233917f712bc71db81927a76b8bf1ea346247bb0ad58f18e4e5c1bd4aa0ec6573e02a2b910160405180910390a2565b6040516001600160a01b03808516602483015283166044820152606481018290526130b19085906323b872dd60e01b90608401614111565b6000614b08826040518060400160405280602081526020017f5361666545524332303a206c6f772d6c6576656c2063616c6c206661696c6564815250856001600160a01b0316614b859092919063ffffffff16565b80519091501561393b5780806020019051810190614b269190615e21565b61393b5760405162461bcd60e51b815260206004820152602a60248201527f5361666545524332303a204552433230206f7065726174696f6e20646964206e6044820152691bdd081cdd58d8d9595960b21b6064820152608401610bd1565b6060614b948484600085614b9c565b949350505050565b606082471015614bfd5760405162461bcd60e51b815260206004820152602660248201527f416464726573733a20696e73756666696369656e742062616c616e636520666f6044820152651c8818d85b1b60d21b6064820152608401610bd1565b6001600160a01b0385163b614c545760405162461bcd60e51b815260206004820152601d60248201527f416464726573733a2063616c6c20746f206e6f6e2d636f6e74726163740000006044820152606401610bd1565b600080866001600160a01b03168587604051614c709190615e3e565b60006040518083038185875af1925050503d8060008114614cad576040519150601f19603f3d011682016040523d82523d6000602084013e614cb2565b606091505b5091509150614cc2828286614ccd565b979650505050505050565b60608315614cdc575081610e6b565b825115614cec5782518084602001fd5b8160405162461bcd60e51b8152600401610bd19190614e27565b828054614d129061567a565b90600052602060002090601f016020900481019282614d345760008555614d7a565b82601f10614d4d57805160ff1916838001178555614d7a565b82800160010185558215614d7a579182015b82811115614d7a578251825591602001919060010190614d5f565b50614d86929150614da4565b5090565b5080546000825590600052602060002090810190610f8791905b5b80821115614d865760008155600101614da5565b6001600160a01b0381168114610f8757600080fd5b8035614dd981614db9565b919050565b600060208284031215614df057600080fd5b8135610e6b81614db9565b60005b83811015614e16578181015183820152602001614dfe565b838111156130b15750506000910152565b6020815260008251806020840152614e46816040850160208701614dfb565b601f01601f19169190910160400192915050565b60008060408385031215614e6d57600080fd5b8235614e7881614db9565b946020939093013593505050565b8015158114610f8757600080fd5b600080600080600060a08688031215614eac57600080fd5b8535614eb781614db9565b945060208601359350604086013592506060860135614ed581614e86565b91506080860135614ee581614db9565b809150509295509295909350565b600060c08284031215614f0557600080fd5b50919050565b60008060408385031215614f1e57600080fd5b82356001600160401b03811115614f3457600080fd5b614f4085828601614ef3565b9250506020830135614f5181614db9565b809150509250929050565b600080600060608486031215614f7157600080fd5b8335614f7c81614db9565b92506020840135614f8c81614db9565b929592945050506040919091013590565b60006101008284031215614f0557600080fd5b60008060408385031215614fc357600080fd5b8235915060208301356001600160401b03811115614fe057600080fd5b614fec85828601614f9d565b9150509250929050565b60006020828403121561500857600080fd5b5035919050565b600081518084526020808501945080840160005b838110156150485781516001600160a01b031687529582019590820190600101615023565b509495945050505050565b602081526000610e6b602083018461500f565b60008060008084860360c081121561507d57600080fd5b853561508881614db9565b94506020860135935060408601356001600160401b038111156150aa57600080fd5b6150b688828901614f9d565b9350506060605f19820112156150cb57600080fd5b509295919450926060019150565b602080825282518282018190526000919060409081850190868401855b8281101561512457815180516001600160a01b031685528601518685015292840192908501906001016150f6565b5091979650505050505050565b60008083601f84011261514357600080fd5b5081356001600160401b0381111561515a57600080fd5b60208301915083602082850101111561517257600080fd5b9250929050565b60008060008060008060008060008060c08b8d03121561519857600080fd5b8a35995060208b01356001600160401b03808211156151b657600080fd5b6151c28e838f01615131565b909b50995060408d01359150808211156151db57600080fd5b6151e78e838f01615131565b909950975060608d013591508082111561520057600080fd5b61520c8e838f01615131565b909750955060808d013591508082111561522557600080fd5b506152328d828e01615131565b9094509250615245905060a08c01614dce565b90509295989b9194979a5092959850565b634e487b7160e01b600052604160045260246000fd5b604051601f8201601f191681016001600160401b038111828210171561529457615294615256565b604052919050565b60006001600160401b038211156152b5576152b5615256565b5060051b60200190565b600082601f8301126152d057600080fd5b813560206152e56152e08361529c565b61526c565b82815260059290921b8401810191818101908684111561530457600080fd5b8286015b8481101561531f5780358352918301918301615308565b509695505050505050565b60008060006060848603121561533f57600080fd5b833561534a81614db9565b92506020848101356001600160401b038082111561536757600080fd5b818701915087601f83011261537b57600080fd5b81356153896152e08261529c565b81815260059190911b8301840190848101908a8311156153a857600080fd5b938501935b828510156153cf5784356153c081614db9565b825293850193908501906153ad565b9650505060408701359250808311156153e757600080fd5b50506153f5868287016152bf565b9150509250925092565b60008082840360c081121561541357600080fd5b83356001600160401b0381111561542957600080fd5b61543586828701614ef3565b93505060a0601f198201121561544a57600080fd5b506020830190509250929050565b6000806020838503121561546b57600080fd5b82356001600160401b0381111561548157600080fd5b61548d85828601615131565b90969095509350505050565b60008083601f8401126154ab57600080fd5b5081356001600160401b038111156154c257600080fd5b6020830191508360208260051b850101111561517257600080fd5b60008060008060008060008060008060a08b8d0312156154fc57600080fd5b8a356001600160401b038082111561551357600080fd5b61551f8e838f01615499565b909c509a5060208d013591508082111561553857600080fd5b6155448e838f01615499565b909a50985060408d013591508082111561555d57600080fd5b6155698e838f01615499565b909850965060608d013591508082111561558257600080fd5b61558e8e838f01615499565b909650945060808d01359150808211156155a757600080fd5b506155b48d828e01615499565b915080935050809150509295989b9194979a5092959850565b803560ff81168114614dd957600080fd5b600080600080600080600060e0888a0312156155f957600080fd5b873561560481614db9565b9650602088013561561481614db9565b95506040880135945060608801359350615630608089016155cd565b925060a0880135915060c0880135905092959891949750929550565b6000806040838503121561565f57600080fd5b823561566a81614db9565b91506020830135614f5181614db9565b600181811c9082168061568e57607f821691505b60208210811415614f0557634e487b7160e01b600052602260045260246000fd5b6000608082840312156156c157600080fd5b604051608081018181106001600160401b03821117156156e3576156e3615256565b60405282516156f181614e86565b8152602083015161570181614e86565b6020820152604083015161571481614e86565b6040820152606083015161572781614e86565b60608201529392505050565b60006020828403121561574557600080fd5b8151610e6b81614db9565b6020808252818101527f455243323054656d706c6174653a204e4f54204445504c4f59455220524f4c45604082015260600190565b6020808252601f908201527f5265656e7472616e637947756172643a207265656e7472616e742063616c6c00604082015260600190565b6000823560fe198336030181126157d257600080fd5b9190910192915050565b634e487b7160e01b600052601160045260246000fd5b60008219821115615805576158056157dc565b500190565b838152818360208301376000910160200190815292915050565b60008351615836818460208801614dfb565b9190910191825250602001919050565b8183823760009101908152919050565b81835281816020850137506000828201602090810191909152601f909101601f19169091010190565b8b815260e06020820152600061589960e083018c8e615856565b82810360408401526158ac818b8d615856565b905082810360608401526158c181898b615856565b905082810360808401526158d6818789615856565b60a0840195909552505060c001529998505050505050505050565b634e487b7160e01b600052603260045260246000fd5b6001600160a01b03841681526060602080830182905260009161592c9084018661500f565b838103604085015284518082528286019183019060005b8181101561595f57835183529284019291840191600101615943565b509098975050505050505050565b60006020828403121561597f57600080fd5b5051919050565b6000806000806000806000806000806000806101808d8f0312156159a957600080fd5b8c516159b481614db9565b60208e0151909c506159c581614db9565b60408e015160608f0151919c509a506159dd81614db9565b8099505060808d0151975060a08d0151965060c08d01516159fd81614e86565b8096505060e08d015194506101008d015193506101208d015192506101408d015191506101608d0151615a2f81614e86565b809150509295989b509295989b509295989b565b60008060008060808587031215615a5957600080fd5b505082516020840151604085015160609095015191969095509092509050565b838152604060208201526000615a93604083018486615856565b95945050505050565b60006001600160401b03831115615ab557615ab5615256565b615ac8601f8401601f191660200161526c565b9050828152838383011115615adc57600080fd5b828260208301376000602084830101529392505050565b6000615b016152e08461529c565b80848252602080830192508560051b850136811115615b1f57600080fd5b855b81811015615b6e5780356001600160401b03811115615b405760008081fd5b870136601f820112615b525760008081fd5b615b60368235868401615a9c565b865250938201938201615b21565b50919695505050505050565b6000615b886152e08461529c565b80848252602080830192508560051b850136811115615ba657600080fd5b855b81811015615b6e5780356001600160401b03811115615bc75760008081fd5b870136601f820112615bd95760008081fd5b615be7368235868401615a9c565b865250938201938201615ba8565b6000600019821415615c0957615c096157dc565b5060010190565b6000808335601e19843603018112615c2757600080fd5b8301803591506001600160401b03821115615c4157600080fd5b60200191503681900382131561517257600080fd5b858782376bffffffffffffffffffffffff19606095861b8116969091019586529290931b909116601484015260288301526048820152606801919050565b600060208284031215615ca657600080fd5b610e6b826155cd565b87815260c060208201526000615cc960c08301888a615856565b905060ff861660408301528460608301528360808301528260a083015298975050505050505050565b600082821015615d0457615d046157dc565b500390565b600060ff821660ff84168060ff03821115615d2657615d266157dc565b019392505050565b600080835481600182811c915080831680615d4a57607f831692505b6020808410821415615d6a57634e487b7160e01b86526022600452602486fd5b818015615d7e5760018114615d8f57615dbc565b60ff19861689528489019650615dbc565b60008a81526020902060005b86811015615db45781548b820152908501908301615d9b565b505084890196505b509498975050505050505050565b634e487b7160e01b600052603160045260246000fd5b6000816000190483118215151615615dfa57615dfa6157dc565b500290565b600082615e1c57634e487b7160e01b600052601260045260246000fd5b500490565b600060208284031215615e3357600080fd5b8151610e6b81614e86565b600082516157d2818460208701614dfb56fea26469706673582212207e39f650eadc6d0b57c4ef36b9e5314b69246f9c3a65e134efbcc2730b921d1064736f6c634300080c0033",
  "linkReferences": {},
  "deployedLinkReferences": {}
}