{
  "_format": "hh-sol-artifact-1",
  "contractName": "ERC20TemplateEnterprise",
  "sourceName": "contracts/templates/ERC20TemplateEnterprise.sol",
  "abi": [
    {
      "anonymous": false,
      "inputs": [
        {
          "indexed": true,
          "internalType": "address",
          "name": "user",
          "type": "address"
        },
        {
          "indexed": true,
          "internalType": "address",
          "name": "signer",
          "type": "address"
        },
        {
          "indexed": false,
          "internalType": "uint256",
          "name": "timestamp",
          "type": "uint256"
        },
        {
          "indexed": false,
          "internalType": "uint256",
          "name": "blockNumber",
          "type": "uint256"
        }
      ],
      "name": "AddedMinter",
      "type": "event"
    },
    {
      "anonymous": false,
      "inputs": [
        {
          "indexed": true,
          "internalType": "address",
          "name": "user",
          "type": "address"
        },
        {
          "indexed": true,
          "internalType": "address",
          "name": "signer",
          "type": "address"
        },
        {
          "indexed": false,
          "internalType": "uint256",
          "name": "timestamp",
          "type": "uint256"
        },
        {
          "indexed": false,
          "internalType": "uint256",
          "name": "blockNumber",
          "type": "uint256"
        }
      ],
      "name": "AddedPaymentManager",
      "type": "event"
    },
    {
      "anonymous": false,
      "inputs": [
        {
          "indexed": true,
          "internalType": "address",
          "name": "owner",
          "type": "address"
        },
        {
          "indexed": true,
          "internalType": "address",
          "name": "spender",
          "type": "address"
        },
        {
          "indexed": false,
          "internalType": "uint256",
          "name": "value",
          "type": "uint256"
        }
      ],
      "name": "Approval",
      "type": "event"
    },
    {
      "anonymous": false,
      "inputs": [
        {
          "indexed": false,
          "internalType": "address",
          "name": "buyer",
          "type": "address"
        },
        {
          "indexed": false,
          "internalType": "uint256",
          "name": "baseTokenAmount",
          "type": "uint256"
        },
        {
          "indexed": false,
          "internalType": "uint256",
          "name": "marketFeeAmount",
          "type": "uint256"
        }
      ],
      "name": "BuyAndOrder",
      "type": "event"
    },
    {
      "anonymous": false,
      "inputs": [
        {
          "indexed": true,
          "internalType": "address",
          "name": "signer",
          "type": "address"
        },
        {
          "indexed": false,
          "internalType": "uint256",
          "name": "timestamp",
          "type": "uint256"
        },
        {
          "indexed": false,
          "internalType": "uint256",
          "name": "blockNumber",
          "type": "uint256"
        }
      ],
      "name": "CleanedPermissions",
      "type": "event"
    },
    {
      "anonymous": false,
      "inputs": [
        {
          "indexed": false,
          "internalType": "address",
          "name": "currentMinter",
          "type": "address"
        },
        {
          "indexed": false,
          "internalType": "address",
          "name": "newMinter",
          "type": "address"
        }
      ],
      "name": "MinterApproved",
      "type": "event"
    },
    {
      "anonymous": false,
      "inputs": [
        {
          "indexed": false,
          "internalType": "address",
          "name": "currentMinter",
          "type": "address"
        },
        {
          "indexed": false,
          "internalType": "address",
          "name": "newMinter",
          "type": "address"
        }
      ],
      "name": "MinterProposed",
      "type": "event"
    },
    {
      "anonymous": false,
      "inputs": [
        {
          "indexed": false,
          "internalType": "address",
          "name": "dispenserContract",
          "type": "address"
        }
      ],
      "name": "NewDispenser",
      "type": "event"
    },
    {
      "anonymous": false,
      "inputs": [
        {
          "indexed": false,
          "internalType": "bytes32",
          "name": "exchangeId",
          "type": "bytes32"
        },
        {
          "indexed": true,
          "internalType": "address",
          "name": "owner",
          "type": "address"
        },
        {
          "indexed": false,
          "internalType": "address",
          "name": "exchangeContract",
          "type": "address"
        },
        {
          "indexed": true,
          "internalType": "address",
          "name": "baseToken",
          "type": "address"
        }
      ],
      "name": "NewFixedRate",
      "type": "event"
    },
    {
      "anonymous": false,
      "inputs": [
        {
          "indexed": true,
          "internalType": "address",
          "name": "caller",
          "type": "address"
        },
        {
          "indexed": true,
          "internalType": "address",
          "name": "_newPaymentCollector",
          "type": "address"
        },
        {
          "indexed": false,
          "internalType": "uint256",
          "name": "timestamp",
          "type": "uint256"
        },
        {
          "indexed": false,
          "internalType": "uint256",
          "name": "blockNumber",
          "type": "uint256"
        }
      ],
      "name": "NewPaymentCollector",
      "type": "event"
    },
    {
      "anonymous": false,
      "inputs": [
        {
          "indexed": false,
          "internalType": "bytes32",
          "name": "orderTxId",
          "type": "bytes32"
        },
        {
          "indexed": false,
          "internalType": "address",
          "name": "caller",
          "type": "address"
        },
        {
          "indexed": false,
          "internalType": "uint256",
          "name": "timestamp",
          "type": "uint256"
        },
        {
          "indexed": false,
          "internalType": "uint256",
          "name": "number",
          "type": "uint256"
        }
      ],
      "name": "OrderReused",
      "type": "event"
    },
    {
      "anonymous": false,
      "inputs": [
        {
          "indexed": true,
          "internalType": "address",
          "name": "consumer",
          "type": "address"
        },
        {
          "indexed": false,
          "internalType": "address",
          "name": "payer",
          "type": "address"
        },
        {
          "indexed": false,
          "internalType": "uint256",
          "name": "amount",
          "type": "uint256"
        },
        {
          "indexed": false,
          "internalType": "uint256",
          "name": "serviceIndex",
          "type": "uint256"
        },
        {
          "indexed": false,
          "internalType": "uint256",
          "name": "timestamp",
          "type": "uint256"
        },
        {
          "indexed": true,
          "internalType": "address",
          "name": "publishMarketAddress",
          "type": "address"
        },
        {
          "indexed": false,
          "internalType": "uint256",
          "name": "blockNumber",
          "type": "uint256"
        }
      ],
      "name": "OrderStarted",
      "type": "event"
    },
    {
      "anonymous": false,
      "inputs": [
        {
          "indexed": true,
          "internalType": "address",
          "name": "providerFeeAddress",
          "type": "address"
        },
        {
          "indexed": true,
          "internalType": "address",
          "name": "providerFeeToken",
          "type": "address"
        },
        {
          "indexed": false,
          "internalType": "uint256",
          "name": "providerFeeAmount",
          "type": "uint256"
        },
        {
          "indexed": false,
          "internalType": "bytes",
          "name": "providerData",
          "type": "bytes"
        },
        {
          "indexed": false,
          "internalType": "uint8",
          "name": "v",
          "type": "uint8"
        },
        {
          "indexed": false,
          "internalType": "bytes32",
          "name": "r",
          "type": "bytes32"
        },
        {
          "indexed": false,
          "internalType": "bytes32",
          "name": "s",
          "type": "bytes32"
        },
        {
          "indexed": false,
          "internalType": "uint256",
          "name": "validUntil",
          "type": "uint256"
        }
      ],
      "name": "ProviderFees",
      "type": "event"
    },
    {
      "anonymous": false,
      "inputs": [
        {
          "indexed": true,
          "internalType": "address",
          "name": "PublishMarketFeeAddress",
          "type": "address"
        },
        {
          "indexed": true,
          "internalType": "address",
          "name": "PublishMarketFeeToken",
          "type": "address"
        },
        {
          "indexed": false,
          "internalType": "uint256",
          "name": "PublishMarketFeeAmount",
          "type": "uint256"
        }
      ],
      "name": "PublishMarketFees",
      "type": "event"
    },
    {
      "anonymous": false,
      "inputs": [
        {
          "indexed": false,
          "internalType": "address",
          "name": "caller",
          "type": "address"
        },
        {
          "indexed": false,
          "internalType": "address",
          "name": "PublishMarketFeeAddress",
          "type": "address"
        },
        {
          "indexed": false,
          "internalType": "address",
          "name": "PublishMarketFeeToken",
          "type": "address"
        },
        {
          "indexed": false,
          "internalType": "uint256",
          "name": "PublishMarketFeeAmount",
          "type": "uint256"
        }
      ],
      "name": "PublishMarketFeesChanged",
      "type": "event"
    },
    {
      "anonymous": false,
      "inputs": [
        {
          "indexed": true,
          "internalType": "address",
          "name": "user",
          "type": "address"
        },
        {
          "indexed": true,
          "internalType": "address",
          "name": "signer",
          "type": "address"
        },
        {
          "indexed": false,
          "internalType": "uint256",
          "name": "timestamp",
          "type": "uint256"
        },
        {
          "indexed": false,
          "internalType": "uint256",
          "name": "blockNumber",
          "type": "uint256"
        }
      ],
      "name": "RemovedMinter",
      "type": "event"
    },
    {
      "anonymous": false,
      "inputs": [
        {
          "indexed": true,
          "internalType": "address",
          "name": "user",
          "type": "address"
        },
        {
          "indexed": true,
          "internalType": "address",
          "name": "signer",
          "type": "address"
        },
        {
          "indexed": false,
          "internalType": "uint256",
          "name": "timestamp",
          "type": "uint256"
        },
        {
          "indexed": false,
          "internalType": "uint256",
          "name": "blockNumber",
          "type": "uint256"
        }
      ],
      "name": "RemovedPaymentManager",
      "type": "event"
    },
    {
      "anonymous": false,
      "inputs": [
        {
          "indexed": true,
          "internalType": "address",
          "name": "from",
          "type": "address"
        },
        {
          "indexed": true,
          "internalType": "address",
          "name": "to",
          "type": "address"
        },
        {
          "indexed": false,
          "internalType": "uint256",
          "name": "value",
          "type": "uint256"
        }
      ],
      "name": "Transfer",
      "type": "event"
    },
    {
      "stateMutability": "payable",
      "type": "fallback"
    },
    {
      "inputs": [],
      "name": "BASE",
      "outputs": [
        {
          "internalType": "uint256",
          "name": "",
          "type": "uint256"
        }
      ],
      "stateMutability": "view",
      "type": "function"
    },
    {
      "inputs": [],
      "name": "DOMAIN_SEPARATOR",
      "outputs": [
        {
          "internalType": "bytes32",
          "name": "",
          "type": "bytes32"
        }
      ],
      "stateMutability": "view",
      "type": "function"
    },
    {
      "inputs": [],
      "name": "PERMIT_TYPEHASH",
      "outputs": [
        {
          "internalType": "bytes32",
          "name": "",
          "type": "bytes32"
        }
      ],
      "stateMutability": "view",
      "type": "function"
    },
    {
      "inputs": [
        {
          "internalType": "address",
          "name": "_minter",
          "type": "address"
        }
      ],
      "name": "addMinter",
      "outputs": [],
      "stateMutability": "nonpayable",
      "type": "function"
    },
    {
      "inputs": [
        {
          "internalType": "address",
          "name": "_paymentManager",
          "type": "address"
        }
      ],
      "name": "addPaymentManager",
      "outputs": [],
      "stateMutability": "nonpayable",
      "type": "function"
    },
    {
      "inputs": [
        {
          "internalType": "address",
          "name": "owner",
          "type": "address"
        },
        {
          "internalType": "address",
          "name": "spender",
          "type": "address"
        }
      ],
      "name": "allowance",
      "outputs": [
        {
          "internalType": "uint256",
          "name": "",
          "type": "uint256"
        }
      ],
      "stateMutability": "view",
      "type": "function"
    },
    {
      "inputs": [
        {
          "internalType": "address",
          "name": "spender",
          "type": "address"
        },
        {
          "internalType": "uint256",
          "name": "amount",
          "type": "uint256"
        }
      ],
      "name": "approve",
      "outputs": [
        {
          "internalType": "bool",
          "name": "",
          "type": "bool"
        }
      ],
      "stateMutability": "nonpayable",
      "type": "function"
    },
    {
      "inputs": [
        {
          "internalType": "uint256",
          "name": "",
          "type": "uint256"
        }
      ],
      "name": "authERC20",
      "outputs": [
        {
          "internalType": "address",
          "name": "",
          "type": "address"
        }
      ],
      "stateMutability": "view",
      "type": "function"
    },
    {
      "inputs": [
        {
          "internalType": "address",
          "name": "account",
          "type": "address"
        }
      ],
      "name": "balanceOf",
      "outputs": [
        {
          "internalType": "uint256",
          "name": "",
          "type": "uint256"
        }
      ],
      "stateMutability": "view",
      "type": "function"
    },
    {
      "inputs": [
        {
          "internalType": "uint256",
          "name": "amount",
          "type": "uint256"
        }
      ],
      "name": "burn",
      "outputs": [],
      "stateMutability": "nonpayable",
      "type": "function"
    },
    {
      "inputs": [
        {
          "internalType": "address",
          "name": "account",
          "type": "address"
        },
        {
          "internalType": "uint256",
          "name": "amount",
          "type": "uint256"
        }
      ],
      "name": "burnFrom",
      "outputs": [],
      "stateMutability": "nonpayable",
      "type": "function"
    },
    {
      "inputs": [
        {
          "components": [
            {
              "internalType": "address",
              "name": "consumer",
              "type": "address"
            },
            {
              "internalType": "uint256",
              "name": "serviceIndex",
              "type": "uint256"
            },
            {
              "components": [
                {
                  "internalType": "address",
                  "name": "providerFeeAddress",
                  "type": "address"
                },
                {
                  "internalType": "address",
                  "name": "providerFeeToken",
                  "type": "address"
                },
                {
                  "internalType": "uint256",
                  "name": "providerFeeAmount",
                  "type": "uint256"
                },
                {
                  "internalType": "uint8",
                  "name": "v",
                  "type": "uint8"
                },
                {
                  "internalType": "bytes32",
                  "name": "r",
                  "type": "bytes32"
                },
                {
                  "internalType": "bytes32",
                  "name": "s",
                  "type": "bytes32"
                },
                {
                  "internalType": "uint256",
                  "name": "validUntil",
                  "type": "uint256"
                },
                {
                  "internalType": "bytes",
                  "name": "providerData",
                  "type": "bytes"
                }
              ],
              "internalType": "struct ERC20TemplateEnterprise.providerFees",
              "name": "_providerFees",
              "type": "tuple"
            }
          ],
          "internalType": "struct ERC20TemplateEnterprise.OrderParams",
          "name": "_orderParams",
          "type": "tuple"
        },
        {
          "internalType": "address",
          "name": "dispenserContract",
          "type": "address"
        }
      ],
      "name": "buyFromDispenserAndOrder",
      "outputs": [],
      "stateMutability": "nonpayable",
      "type": "function"
    },
    {
      "inputs": [
        {
          "components": [
            {
              "internalType": "address",
              "name": "consumer",
              "type": "address"
            },
            {
              "internalType": "uint256",
              "name": "serviceIndex",
              "type": "uint256"
            },
            {
              "components": [
                {
                  "internalType": "address",
                  "name": "providerFeeAddress",
                  "type": "address"
                },
                {
                  "internalType": "address",
                  "name": "providerFeeToken",
                  "type": "address"
                },
                {
                  "internalType": "uint256",
                  "name": "providerFeeAmount",
                  "type": "uint256"
                },
                {
                  "internalType": "uint8",
                  "name": "v",
                  "type": "uint8"
                },
                {
                  "internalType": "bytes32",
                  "name": "r",
                  "type": "bytes32"
                },
                {
                  "internalType": "bytes32",
                  "name": "s",
                  "type": "bytes32"
                },
                {
                  "internalType": "uint256",
                  "name": "validUntil",
                  "type": "uint256"
                },
                {
                  "internalType": "bytes",
                  "name": "providerData",
                  "type": "bytes"
                }
              ],
              "internalType": "struct ERC20TemplateEnterprise.providerFees",
              "name": "_providerFees",
              "type": "tuple"
            }
          ],
          "internalType": "struct ERC20TemplateEnterprise.OrderParams",
          "name": "_orderParams",
          "type": "tuple"
        },
        {
          "components": [
            {
              "internalType": "address",
              "name": "exchangeContract",
              "type": "address"
            },
            {
              "internalType": "bytes32",
              "name": "exchangeId",
              "type": "bytes32"
            },
            {
              "internalType": "uint256",
              "name": "maxBaseTokenAmount",
              "type": "uint256"
            },
            {
              "internalType": "uint256",
              "name": "swapMarketFee",
              "type": "uint256"
            },
            {
              "internalType": "address",
              "name": "marketFeeAddress",
              "type": "address"
            }
          ],
          "internalType": "struct ERC20TemplateEnterprise.FreParams",
          "name": "_freParams",
          "type": "tuple"
        }
      ],
      "name": "buyFromFreAndOrder",
      "outputs": [],
      "stateMutability": "nonpayable",
      "type": "function"
    },
    {
      "inputs": [],
      "name": "cap",
      "outputs": [
        {
          "internalType": "uint256",
          "name": "",
          "type": "uint256"
        }
      ],
      "stateMutability": "view",
      "type": "function"
    },
    {
      "inputs": [],
      "name": "cleanFrom721",
      "outputs": [],
      "stateMutability": "nonpayable",
      "type": "function"
    },
    {
      "inputs": [],
      "name": "cleanPermissions",
      "outputs": [],
      "stateMutability": "nonpayable",
      "type": "function"
    },
    {
      "inputs": [
        {
          "internalType": "address",
          "name": "_dispenser",
          "type": "address"
        },
        {
          "internalType": "uint256",
          "name": "maxTokens",
          "type": "uint256"
        },
        {
          "internalType": "uint256",
          "name": "maxBalance",
          "type": "uint256"
        },
        {
          "internalType": "bool",
          "name": "withMint",
          "type": "bool"
        },
        {
          "internalType": "address",
          "name": "allowedSwapper",
          "type": "address"
        }
      ],
      "name": "createDispenser",
      "outputs": [],
      "stateMutability": "nonpayable",
      "type": "function"
    },
    {
      "inputs": [
        {
          "internalType": "address",
          "name": "fixedPriceAddress",
          "type": "address"
        },
        {
          "internalType": "address[]",
          "name": "addresses",
          "type": "address[]"
        },
        {
          "internalType": "uint256[]",
          "name": "uints",
          "type": "uint256[]"
        }
      ],
      "name": "createFixedRate",
      "outputs": [
        {
          "internalType": "bytes32",
          "name": "exchangeId",
          "type": "bytes32"
        }
      ],
      "stateMutability": "nonpayable",
      "type": "function"
    },
    {
      "inputs": [],
      "name": "decimals",
      "outputs": [
        {
          "internalType": "uint8",
          "name": "",
          "type": "uint8"
        }
      ],
      "stateMutability": "pure",
      "type": "function"
    },
    {
      "inputs": [
        {
          "internalType": "address",
          "name": "spender",
          "type": "address"
        },
        {
          "internalType": "uint256",
          "name": "subtractedValue",
          "type": "uint256"
        }
      ],
      "name": "decreaseAllowance",
      "outputs": [
        {
          "internalType": "bool",
          "name": "",
          "type": "bool"
        }
      ],
      "stateMutability": "nonpayable",
      "type": "function"
    },
    {
      "inputs": [],
      "name": "getDispensers",
      "outputs": [
        {
          "internalType": "address[]",
          "name": "",
          "type": "address[]"
        }
      ],
      "stateMutability": "view",
      "type": "function"
    },
    {
      "inputs": [],
      "name": "getERC721Address",
      "outputs": [
        {
          "internalType": "address",
          "name": "",
          "type": "address"
        }
      ],
      "stateMutability": "view",
      "type": "function"
    },
    {
      "inputs": [],
      "name": "getFixedRates",
      "outputs": [
        {
          "components": [
            {
              "internalType": "address",
              "name": "contractAddress",
              "type": "address"
            },
            {
              "internalType": "bytes32",
              "name": "id",
              "type": "bytes32"
            }
          ],
          "internalType": "struct ERC20TemplateEnterprise.fixedRate[]",
          "name": "",
          "type": "tuple[]"
        }
      ],
      "stateMutability": "view",
      "type": "function"
    },
    {
      "inputs": [],
      "name": "getId",
      "outputs": [
        {
          "internalType": "uint8",
          "name": "",
          "type": "uint8"
        }
      ],
      "stateMutability": "pure",
      "type": "function"
    },
    {
      "inputs": [],
      "name": "getPaymentCollector",
      "outputs": [
        {
          "internalType": "address",
          "name": "",
          "type": "address"
        }
      ],
      "stateMutability": "view",
      "type": "function"
    },
    {
      "inputs": [
        {
          "internalType": "address",
          "name": "user",
          "type": "address"
        }
      ],
      "name": "getPermissions",
      "outputs": [
        {
          "components": [
            {
              "internalType": "bool",
              "name": "minter",
              "type": "bool"
            },
            {
              "internalType": "bool",
              "name": "paymentManager",
              "type": "bool"
            }
          ],
          "internalType": "struct ERC20Roles.RolesERC20",
          "name": "",
          "type": "tuple"
        }
      ],
      "stateMutability": "view",
      "type": "function"
    },
    {
      "inputs": [],
      "name": "getPublishingMarketFee",
      "outputs": [
        {
          "internalType": "address",
          "name": "",
          "type": "address"
        },
        {
          "internalType": "address",
          "name": "",
          "type": "address"
        },
        {
          "internalType": "uint256",
          "name": "",
          "type": "uint256"
        }
      ],
      "stateMutability": "view",
      "type": "function"
    },
    {
      "inputs": [
        {
          "internalType": "address",
          "name": "spender",
          "type": "address"
        },
        {
          "internalType": "uint256",
          "name": "addedValue",
          "type": "uint256"
        }
      ],
      "name": "increaseAllowance",
      "outputs": [
        {
          "internalType": "bool",
          "name": "",
          "type": "bool"
        }
      ],
      "stateMutability": "nonpayable",
      "type": "function"
    },
    {
      "inputs": [
        {
          "internalType": "string[]",
          "name": "strings_",
          "type": "string[]"
        },
        {
          "internalType": "address[]",
          "name": "addresses_",
          "type": "address[]"
        },
        {
          "internalType": "address[]",
          "name": "factoryAddresses_",
          "type": "address[]"
        },
        {
          "internalType": "uint256[]",
          "name": "uints_",
          "type": "uint256[]"
        },
        {
          "internalType": "bytes[]",
          "name": "bytes_",
          "type": "bytes[]"
        }
      ],
      "name": "initialize",
      "outputs": [
        {
          "internalType": "bool",
          "name": "",
          "type": "bool"
        }
      ],
      "stateMutability": "nonpayable",
      "type": "function"
    },
    {
      "inputs": [
        {
          "internalType": "address",
          "name": "user",
          "type": "address"
        }
      ],
      "name": "isERC20Deployer",
      "outputs": [
        {
          "internalType": "bool",
          "name": "deployer",
          "type": "bool"
        }
      ],
      "stateMutability": "nonpayable",
      "type": "function"
    },
    {
      "inputs": [],
      "name": "isInitialized",
      "outputs": [
        {
          "internalType": "bool",
          "name": "",
          "type": "bool"
        }
      ],
      "stateMutability": "view",
      "type": "function"
    },
    {
      "inputs": [
        {
          "internalType": "address",
          "name": "account",
          "type": "address"
        }
      ],
      "name": "isMinter",
      "outputs": [
        {
          "internalType": "bool",
          "name": "",
          "type": "bool"
        }
      ],
      "stateMutability": "view",
      "type": "function"
    },
    {
      "inputs": [
        {
          "internalType": "address",
          "name": "account",
          "type": "address"
        },
        {
          "internalType": "uint256",
          "name": "value",
          "type": "uint256"
        }
      ],
      "name": "mint",
      "outputs": [],
      "stateMutability": "nonpayable",
      "type": "function"
    },
    {
      "inputs": [],
      "name": "name",
      "outputs": [
        {
          "internalType": "string",
          "name": "",
          "type": "string"
        }
      ],
      "stateMutability": "view",
      "type": "function"
    },
    {
      "inputs": [
        {
          "internalType": "address",
          "name": "",
          "type": "address"
        }
      ],
      "name": "nonces",
      "outputs": [
        {
          "internalType": "uint256",
          "name": "",
          "type": "uint256"
        }
      ],
      "stateMutability": "view",
      "type": "function"
    },
    {
      "inputs": [
        {
          "internalType": "address",
          "name": "",
          "type": "address"
        }
      ],
      "name": "permissions",
      "outputs": [
        {
          "internalType": "bool",
          "name": "minter",
          "type": "bool"
        },
        {
          "internalType": "bool",
          "name": "paymentManager",
          "type": "bool"
        }
      ],
      "stateMutability": "view",
      "type": "function"
    },
    {
      "inputs": [
        {
          "internalType": "address",
          "name": "owner",
          "type": "address"
        },
        {
          "internalType": "address",
          "name": "spender",
          "type": "address"
        },
        {
          "internalType": "uint256",
          "name": "value",
          "type": "uint256"
        },
        {
          "internalType": "uint256",
          "name": "deadline",
          "type": "uint256"
        },
        {
          "internalType": "uint8",
          "name": "v",
          "type": "uint8"
        },
        {
          "internalType": "bytes32",
          "name": "r",
          "type": "bytes32"
        },
        {
          "internalType": "bytes32",
          "name": "s",
          "type": "bytes32"
        }
      ],
      "name": "permit",
      "outputs": [],
      "stateMutability": "nonpayable",
      "type": "function"
    },
    {
      "inputs": [
        {
          "internalType": "address",
          "name": "_minter",
          "type": "address"
        }
      ],
      "name": "removeMinter",
      "outputs": [],
      "stateMutability": "nonpayable",
      "type": "function"
    },
    {
      "inputs": [
        {
          "internalType": "address",
          "name": "_paymentManager",
          "type": "address"
        }
      ],
      "name": "removePaymentManager",
      "outputs": [],
      "stateMutability": "nonpayable",
      "type": "function"
    },
    {
      "inputs": [
        {
          "internalType": "bytes32",
          "name": "orderTxId",
          "type": "bytes32"
        },
        {
          "components": [
            {
              "internalType": "address",
              "name": "providerFeeAddress",
              "type": "address"
            },
            {
              "internalType": "address",
              "name": "providerFeeToken",
              "type": "address"
            },
            {
              "internalType": "uint256",
              "name": "providerFeeAmount",
              "type": "uint256"
            },
            {
              "internalType": "uint8",
              "name": "v",
              "type": "uint8"
            },
            {
              "internalType": "bytes32",
              "name": "r",
              "type": "bytes32"
            },
            {
              "internalType": "bytes32",
              "name": "s",
              "type": "bytes32"
            },
            {
              "internalType": "uint256",
              "name": "validUntil",
              "type": "uint256"
            },
            {
              "internalType": "bytes",
              "name": "providerData",
              "type": "bytes"
            }
          ],
          "internalType": "struct ERC20TemplateEnterprise.providerFees",
          "name": "_providerFees",
          "type": "tuple"
        }
      ],
      "name": "reuseOrder",
      "outputs": [],
      "stateMutability": "nonpayable",
      "type": "function"
    },
    {
      "inputs": [],
      "name": "router",
      "outputs": [
        {
          "internalType": "address",
          "name": "",
          "type": "address"
        }
      ],
      "stateMutability": "view",
      "type": "function"
    },
    {
      "inputs": [
        {
          "internalType": "bytes",
          "name": "_value",
          "type": "bytes"
        }
      ],
      "name": "setData",
      "outputs": [],
      "stateMutability": "nonpayable",
      "type": "function"
    },
    {
      "inputs": [
        {
          "internalType": "address",
          "name": "_newPaymentCollector",
          "type": "address"
        }
      ],
      "name": "setPaymentCollector",
      "outputs": [],
      "stateMutability": "nonpayable",
      "type": "function"
    },
    {
      "inputs": [
        {
          "internalType": "address",
          "name": "_publishMarketFeeAddress",
          "type": "address"
        },
        {
          "internalType": "address",
          "name": "_publishMarketFeeToken",
          "type": "address"
        },
        {
          "internalType": "uint256",
          "name": "_publishMarketFeeAmount",
          "type": "uint256"
        }
      ],
      "name": "setPublishingMarketFee",
      "outputs": [],
      "stateMutability": "nonpayable",
      "type": "function"
    },
    {
      "inputs": [
        {
          "internalType": "address",
          "name": "consumer",
          "type": "address"
        },
        {
          "internalType": "uint256",
          "name": "serviceIndex",
          "type": "uint256"
        },
        {
          "components": [
            {
              "internalType": "address",
              "name": "providerFeeAddress",
              "type": "address"
            },
            {
              "internalType": "address",
              "name": "providerFeeToken",
              "type": "address"
            },
            {
              "internalType": "uint256",
              "name": "providerFeeAmount",
              "type": "uint256"
            },
            {
              "internalType": "uint8",
              "name": "v",
              "type": "uint8"
            },
            {
              "internalType": "bytes32",
              "name": "r",
              "type": "bytes32"
            },
            {
              "internalType": "bytes32",
              "name": "s",
              "type": "bytes32"
            },
            {
              "internalType": "uint256",
              "name": "validUntil",
              "type": "uint256"
            },
            {
              "internalType": "bytes",
              "name": "providerData",
              "type": "bytes"
            }
          ],
          "internalType": "struct ERC20TemplateEnterprise.providerFees",
          "name": "_providerFees",
          "type": "tuple"
        }
      ],
      "name": "startOrder",
      "outputs": [],
      "stateMutability": "nonpayable",
      "type": "function"
    },
    {
      "inputs": [],
      "name": "symbol",
      "outputs": [
        {
          "internalType": "string",
          "name": "",
          "type": "string"
        }
      ],
      "stateMutability": "view",
      "type": "function"
    },
    {
      "inputs": [],
      "name": "totalSupply",
      "outputs": [
        {
          "internalType": "uint256",
          "name": "",
          "type": "uint256"
        }
      ],
      "stateMutability": "view",
      "type": "function"
    },
    {
      "inputs": [
        {
          "internalType": "address",
          "name": "recipient",
          "type": "address"
        },
        {
          "internalType": "uint256",
          "name": "amount",
          "type": "uint256"
        }
      ],
      "name": "transfer",
      "outputs": [
        {
          "internalType": "bool",
          "name": "",
          "type": "bool"
        }
      ],
      "stateMutability": "nonpayable",
      "type": "function"
    },
    {
      "inputs": [
        {
          "internalType": "address",
          "name": "sender",
          "type": "address"
        },
        {
          "internalType": "address",
          "name": "recipient",
          "type": "address"
        },
        {
          "internalType": "uint256",
          "name": "amount",
          "type": "uint256"
        }
      ],
      "name": "transferFrom",
      "outputs": [
        {
          "internalType": "bool",
          "name": "",
          "type": "bool"
        }
      ],
      "stateMutability": "nonpayable",
      "type": "function"
    },
    {
      "inputs": [],
      "name": "withdrawETH",
      "outputs": [],
      "stateMutability": "payable",
      "type": "function"
    }
  ],
  "bytecode": "0x6080604052600b805460ff60a01b191690553480156200001e57600080fd5b5060408051808201825260048152631d195cdd60e21b60208083019182528351808501909452600a8452691d195cdd14de5b589bdb60b21b9084015281519192916200006d9160039162000091565b5080516200008390600490602084019062000091565b505060016007555062000174565b8280546200009f9062000137565b90600052602060002090601f016020900481019282620000c357600085556200010e565b82601f10620000de57805160ff19168380011785556200010e565b828001600101855582156200010e579182015b828111156200010e578251825591602001919060010190620000f1565b506200011c92915062000120565b5090565b5b808211156200011c576000815560010162000121565b600181811c908216806200014c57607f821691505b602082108114156200016e57634e487b7160e01b600052602260045260246000fd5b50919050565b614fbc80620001846000396000f3fe6080604052600436106102ad5760003560e01c806357ad5ff611610166578063a9059cbb116100d3578063dd62ed3e1161008f578063e89b86651161006c578063e89b866514610965578063ec342ad014610985578063ef867ff4146109a1578063f887ea40146109c157005b8063dd62ed3e14610902578063e086e5ec14610948578063e487c2e81461095057005b8063a9059cbb14610829578063aa271e1a14610849578063aa492ef914610882578063ab62f0e1146108a2578063b3998be0146108c2578063d505accf146108e257005b806382c03da51161012257806382c03da51461077f5780638b96412b1461079457806395d89b41146107b457806396fb3eaf146107c9578063983b2d56146107e9578063a457c2d71461080957005b806357ad5ff6146106a65780635d1ca631146106c657806370a08231146106da57806379cc6790146107105780637dda231e146107305780637ecebe001461075257005b8063313ce5671161021c57806339509351116101d857806342966c68116101b557806342966c681461062f57806347ac7d551461064f5780634f189cb21461067157806357a3a31b1461068657005b806339509351146105b3578063397b3743146105d357806340c10f191461060f57005b8063313ce56714610507578063355274ea14610529578063361fef491461053e578063363bdb461461055e5780633644e5151461057e578063392e53cd1461059457005b806318160ddd1161026b57806318160ddd14610434578063191c918a1461045357806323b872dd1461047357806325b00243146104935780633092afd5146104b357806330adf81f146104d357005b80627ffb78146102af57806301e88208146102e65780630269ae111461033657806306fdde0314610356578063095ea7b314610378578063160a7925146103a8575b005b3480156102bb57600080fd5b50600c546001600160a01b03165b6040516001600160a01b0390911681526020015b60405180910390f35b3480156102f257600080fd5b5061031f6103013660046140c2565b60056020526000908152604090205460ff8082169161010090041682565b6040805192151583529015156020830152016102dd565b34801561034257600080fd5b506102ad6103513660046140f7565b6109e1565b34801561036257600080fd5b5061036b610f03565b6040516102dd919061417c565b34801561038457600080fd5b506103986103933660046141af565b610f95565b60405190151581526020016102dd565b3480156103b457600080fd5b506104156103c33660046140c2565b6040805180820190915260008082526020820152506001600160a01b031660009081526005602090815260409182902082518084019093525460ff808216151584526101009091041615159082015290565b60408051825115158152602092830151151592810192909252016102dd565b34801561044057600080fd5b506002545b6040519081526020016102dd565b34801561045f57600080fd5b506102ad61046e3660046141e9565b610fab565b34801561047f57600080fd5b5061039861048e366004614248565b61117d565b34801561049f57600080fd5b506102ad6104ae3660046140c2565b611229565b3480156104bf57600080fd5b506102ad6104ce3660046140c2565b6112c3565b3480156104df57600080fd5b506104457f6e71edae12b1b97f4d1f60370fef10105fa2faae0126114a169c64845d6126c981565b34801561051357600080fd5b5060125b60405160ff90911681526020016102dd565b34801561053557600080fd5b50600a54610445565b34801561054a57600080fd5b506102ad61055936600461429c565b61135a565b34801561056a57600080fd5b506102ad6105793660046142e2565b6113ab565b34801561058a57600080fd5b5061044560115481565b3480156105a057600080fd5b50600b54600160a01b900460ff16610398565b3480156105bf57600080fd5b506103986105ce3660046141af565b61178b565b3480156105df57600080fd5b50600e54600f54601054604080516001600160a01b039485168152939092166020840152908201526060016102dd565b34801561061b57600080fd5b506102ad61062a3660046141af565b6117c7565b34801561063b57600080fd5b506102ad61064a36600461433a565b611894565b34801561065b57600080fd5b5061066461189e565b6040516102dd9190614397565b34801561067d57600080fd5b506102ad6118ff565b34801561069257600080fd5b506102ad6106a13660046140c2565b6119e6565b3480156106b257600080fd5b506102ad6106c1366004614248565b611b28565b3480156106d257600080fd5b506002610517565b3480156106e657600080fd5b506104456106f53660046140c2565b6001600160a01b031660009081526020819052604090205490565b34801561071c57600080fd5b506102ad61072b3660046141af565b611c7c565b34801561073c57600080fd5b50610745611d02565b6040516102dd91906143aa565b34801561075e57600080fd5b5061044561076d3660046140c2565b60126020526000908152604090205481565b34801561078b57600080fd5b506102ad611d77565b3480156107a057600080fd5b506104456107af3660046144d6565b611dd1565b3480156107c057600080fd5b5061036b612085565b3480156107d557600080fd5b506103986107e43660046140c2565b612094565b3480156107f557600080fd5b506102ad6108043660046140c2565b61210f565b34801561081557600080fd5b506103986108243660046141af565b6121a6565b34801561083557600080fd5b506103986108443660046141af565b61223f565b34801561085557600080fd5b506103986108643660046140c2565b6001600160a01b031660009081526005602052604090205460ff1690565b34801561088e57600080fd5b506102ad61089d3660046140c2565b61224c565b3480156108ae57600080fd5b506102ad6108bd3660046145a1565b6122e3565b3480156108ce57600080fd5b506103986108dd36600461465d565b612414565b3480156108ee57600080fd5b506102ad6108fd366004614763565b61254e565b34801561090e57600080fd5b5061044561091d3660046147d1565b6001600160a01b03918216600090815260016020908152604080832093909416825291909152205490565b6102ad612760565b34801561095c57600080fd5b506102c96127a0565b34801561097157600080fd5b506102ad61098036600461480a565b612835565b34801561099157600080fd5b50610445670de0b6b3a764000081565b3480156109ad57600080fd5b506102c96109bc36600461433a565b61295a565b3480156109cd57600080fd5b506013546102c9906001600160a01b031681565b60026007541415610a0d5760405162461bcd60e51b8152600401610a0490614850565b60405180910390fd5b6002600755600080610a2260208401846140c2565b604051634c87087d60e01b8152602085013560048201526001600160a01b039190911690634c87087d9060240161018060405180830381865afa158015610a6d573d6000803e3d6000fd5b505050506040513d601f19601f82011682018060405250810190610a919190614887565b5050505050505050935050925050306001600160a01b0316826001600160a01b031614610b105760405162461bcd60e51b815260206004820152602760248201527f5468697320466978656452617465206973206e6f742070726f766964696e67206044820152661d1a1a5cc8111560ca1b6064820152608401610a04565b600080610b2060208601866140c2565b60405163c99733a760e01b815260208701356004820152670de0b6b3a764000060248201526001600160a01b03919091169063c99733a790604401608060405180830381865afa158015610b78573d6000803e3d6000fd5b505050506040513d601f19601f82011682018060405250810190610b9c9190614944565b5050915091508460400135821115610c065760405162461bcd60e51b815260206004820152602760248201527f46697865645261746545786368616e67653a20546f6f206d616e79206261736560448201526620746f6b656e7360c81b6064820152608401610a04565b6000670de0b6b3a7640000610c1f606088013584614990565b610c2991906149af565b9050610c3581846149d1565b6040516370a0823160e01b81523060048201529093506000906001600160a01b038616906370a0823190602401602060405180830381865afa158015610c7f573d6000803e3d6000fd5b505050506040513d601f19601f82011682018060405250810190610ca391906149e9565b9050610cba6001600160a01b038616333087612984565b610cc481856129f5565b6040516370a0823160e01b81523060048201526001600160a01b038716906370a0823190602401602060405180830381865afa158015610d08573d6000803e3d6000fd5b505050506040513d601f19601f82011682018060405250810190610d2c91906149e9565b14610d495760405162461bcd60e51b8152600401610a0490614a02565b610d6a610d5960208901896140c2565b6001600160a01b0387169086612a01565b610d7760208801886140c2565b60405163412dae6b60e11b815260208901356004820152670de0b6b3a76400006024820152604481018690526001600160a01b03919091169063825b5cd690606401600060405180830381600087803b158015610dd357600080fd5b505af1158015610de7573d6000803e3d6000fd5b505030600090815260208190526040902054670de0b6b3a7640000925090501015610e545760405162461bcd60e51b815260206004820152601f60248201527f556e61626c6520746f206275792044542066726f6d20466978656452617465006044820152606401610a04565b610e673033670de0b6b3a7640000612ab3565b610e89610e7760208a018a6140c2565b60208a013561057960408c018c614a39565b8115610eb357610eb3610ea260a0890160808a016140c2565b6001600160a01b0387169084612c81565b60408051338152602081018690529081018390527fe89458a7527f4bf466ab18794ab8b1ca208b478483a1a87bcf0d976d421b4aff9060600160405180910390a150506001600755505050505050565b606060088054610f1290614a59565b80601f0160208091040260200160405190810160405280929190818152602001828054610f3e90614a59565b8015610f8b5780601f10610f6057610100808354040283529160200191610f8b565b820191906000526020600020905b815481529060010190602001808311610f6e57829003601f168201915b5050505050905090565b6000610fa2338484612cb1565b50600192915050565b600c5460405163160a792560e01b81523360048201526001600160a01b039091169063160a7925906024016080604051808303816000875af1158015610ff5573d6000803e3d6000fd5b505050506040513d601f19601f820116820180604052508101906110199190614a8e565b602001516110395760405162461bcd60e51b8152600401610a0490614b12565b6002600754141561105c5760405162461bcd60e51b8152600401610a0490614850565b6002600755601354604051636b14d00560e11b81526001600160a01b0387811660048301523060248301819052604483018890526064830187905233608484015260a48301529091169063d629a00a9060c401600060405180830381600087803b1580156110c957600080fd5b505af11580156110dd573d6000803e3d6000fd5b5050505081156110f0576110f085612dd5565b601580546001810182556000919091527f55f448fdea98c4d29eb340757ef0a66cd03dbb9538908a6a81d96026b71ec4750180546001600160a01b0319166001600160a01b0387169081179091556040519081527fa31ffd41531537eb31bfd827a3f5372b5f62bf4dd8579e5354b280dc58490e709060200160405180910390a150506001600755505050565b600061118a848484612ab3565b6001600160a01b03841660009081526001602090815260408083203384529091529020548281101561120f5760405162461bcd60e51b815260206004820152602860248201527f45524332303a207472616e7366657220616d6f756e74206578636565647320616044820152676c6c6f77616e636560c01b6064820152608401610a04565b61121c8533858403612cb1565b60019150505b9392505050565b600c5460405163160a792560e01b81523360048201526001600160a01b039091169063160a7925906024016080604051808303816000875af1158015611273573d6000803e3d6000fd5b505050506040513d601f19601f820116820180604052508101906112979190614a8e565b602001516112b75760405162461bcd60e51b8152600401610a0490614b12565b6112c081612ed7565b50565b600c5460405163160a792560e01b81523360048201526001600160a01b039091169063160a7925906024016080604051808303816000875af115801561130d573d6000803e3d6000fd5b505050506040513d601f19601f820116820180604052508101906113319190614a8e565b602001516113515760405162461bcd60e51b8152600401610a0490614b12565b6112c081612f38565b60408051838152336020820152428183015243606082015290517f526e31449ea46e2aecf9b480c8d7dfa191348ef74ffdf75b445a6ab726daa6ff9181900360800190a16113a781612f98565b5050565b33600090815260208190526040812054670de0b6b3a764000091908211156114215760405162461bcd60e51b8152602060048201526024808201527f4e6f7420656e6f7567682064617461746f6b656e7320746f207374617274204f604482015263393232b960e11b6064820152608401610a04565b600e5460408051338152602081018590529081018690524260608201524360808201526001600160a01b03918216918716907fe1c4fa794edfa8f619b8257a077398950357b9c6398528f94480307352f9afcc9060a00160405180910390a3600060105411801561149c5750600f546001600160a01b031615155b80156114b25750600e546001600160a01b031615155b1561177257600f546040516370a0823160e01b81523060048201526000916001600160a01b0316906370a0823190602401602060405180830381865afa158015611500573d6000803e3d6000fd5b505050506040513d601f19601f8201168201806040525081019061152491906149e9565b601054600f54919250611544916001600160a01b03169033903090612984565b6010546115529082906129f5565b600f546040516370a0823160e01b81523060048201526001600160a01b03909116906370a0823190602401602060405180830381865afa15801561159a573d6000803e3d6000fd5b505050506040513d601f19601f820116820180604052508101906115be91906149e9565b146115db5760405162461bcd60e51b8152600401610a0490614a02565b60135460408051637d28354d60e01b815290516000926001600160a01b031691637d28354d9160048083019260209291908290030181865afa158015611625573d6000803e3d6000fd5b505050506040513d601f19601f8201168201806040525081019061164991906149e9565b9050801561167b57611678670de0b6b3a76400006116728360105461347d90919063ffffffff16565b90613489565b92505b600e546010546116ac916001600160a01b0316906116999086613495565b600f546001600160a01b03169190612c81565b600f54600e546010546001600160a01b0392831692909116907ff666b31c81334b6085802ba4149907fa724689d43bc31df6de1a51291ddc55b4906116f19087613495565b60405190815260200160405180910390a3821561176f57600b54600f54611725916001600160a01b03918216911685612c81565b600f54600b546040518581526001600160a01b0392831692909116907ff666b31c81334b6085802ba4149907fa724689d43bc31df6de1a51291ddc55b49060200160405180910390a35b50505b61177b83612f98565b61178482611894565b5050505050565b3360008181526001602090815260408083206001600160a01b03871684529091528120549091610fa29185906117c29086906149d1565b612cb1565b3360009081526005602052604090205460ff166118265760405162461bcd60e51b815260206004820152601960248201527f455243323054656d706c6174653a204e4f54204d494e544552000000000000006044820152606401610a04565b600a5461183c8261183660025490565b906129f5565b111561188a5760405162461bcd60e51b815260206004820152601f60248201527f44617461746f6b656e54656d706c6174653a20636170206578636565646564006044820152606401610a04565b6113a782826134a1565b6112c03382613580565b60606015805480602002602001604051908101604052809291908181526020018280548015610f8b57602002820191906000526020600020905b81546001600160a01b031681526001909101906020018083116118d8575050505050905090565b600c546040516331a9108f60e11b8152600160048201526001600160a01b0390911690636352211e90602401602060405180830381865afa158015611948573d6000803e3d6000fd5b505050506040513d601f19601f8201168201806040525081019061196c9190614b47565b6001600160a01b0316336001600160a01b0316146119cc5760405162461bcd60e51b815260206004820152601b60248201527f455243323054656d706c6174653a206e6f74204e46544f776e657200000000006044820152606401610a04565b6119d46136ce565b600d80546001600160a01b0319169055565b33600090815260056020526040902054610100900460ff1680611a775750600c5460405163160a792560e01b81523360048201526001600160a01b039091169063160a7925906024016080604051808303816000875af1158015611a4e573d6000803e3d6000fd5b505050506040513d601f19601f82011682018060405250810190611a729190614a8e565b602001515b611ad75760405162461bcd60e51b815260206004820152602b60248201527f455243323054656d706c6174653a204e4f54205041594d454e54204d414e414760448201526a22a91037b91027aba722a960a91b6064820152608401610a04565b611ae08161377d565b604080514281524360208201526001600160a01b0383169133917f4d7694d695c57cc54947177c8e8a0e61aae664e9223492a798c32fadfc6419cc910160405180910390a350565b600e546001600160a01b03163314611b955760405162461bcd60e51b815260206004820152602a60248201527f455243323054656d706c6174653a206e6f74207075626c6973684d61726b65746044820152694665654164647265737360b01b6064820152608401610a04565b6001600160a01b038316611bfc5760405162461bcd60e51b815260206004820152602860248201527f496e76616c6964205f7075626c6973684d61726b657446656541646472657373604482015267206164647265737360c01b6064820152608401610a04565b600e80546001600160a01b038581166001600160a01b03199283168117909355600f80549186169190921681179091556010839055604080513381526020810193909352820152606081018290527fe0b85b6f04fa914cf57f6401c5672a83a32b1c388d194c3d78e17f2897d46f439060800160405180910390a1505050565b6000611c88833361091d565b905081811015611ce65760405162461bcd60e51b8152602060048201526024808201527f45524332303a206275726e20616d6f756e74206578636565647320616c6c6f77604482015263616e636560e01b6064820152608401610a04565b611cf38333848403612cb1565b611cfd8383613580565b505050565b60606014805480602002602001604051908101604052809291908181526020016000905b82821015611d6e576000848152602090819020604080518082019091526002850290910180546001600160a01b03168252600190810154828401529083529092019101611d26565b50505050905090565b600c546001600160a01b031633146119cc5760405162461bcd60e51b815260206004820152601f60248201527f455243323054656d706c6174653a204e4f542037323120436f6e7472616374006044820152606401610a04565b600c5460405163160a792560e01b81523360048201526000916001600160a01b03169063160a7925906024016080604051808303816000875af1158015611e1c573d6000803e3d6000fd5b505050506040513d601f19601f82011682018060405250810190611e409190614a8e565b60200151611e605760405162461bcd60e51b8152600401610a0490614b12565b60026007541415611e835760405162461bcd60e51b8152600401610a0490614850565b60026007819055503083600381518110611e9f57611e9f614b64565b6001600160a01b039283166020918202929092010152601354604051638244937560e01b8152911690638244937590611ee090879087908790600401614b7a565b6020604051808303816000875af1158015611eff573d6000803e3d6000fd5b505050506040513d601f19601f82011682018060405250810190611f2391906149e9565b9050600082600481518110611f3a57611f3a614b64565b60200260200101511115611f5157611f5184612dd5565b82600081518110611f6457611f64614b64565b60200260200101516001600160a01b031683600181518110611f8857611f88614b64565b60200260200101516001600160a01b03167fb3fac3ae95956dbac74e63ba8dac94081832395c8788e3049c900a7732f348058387604051611fdc9291909182526001600160a01b0316602082015260400190565b60405180910390a3604080518082019091526001600160a01b03948516815260208101828152601480546001808201835560009290925292517fce6d7b5282bd9a3661ae061feed1dbda4e52ab073b1f9285be6e155d9c38d4ec600290940293840180546001600160a01b0319169190981617909655517fce6d7b5282bd9a3661ae061feed1dbda4e52ab073b1f9285be6e155d9c38d4ed909101556007939093555090919050565b606060098054610f1290614a59565b600c5460405163160a792560e01b81526001600160a01b038381166004830152600092169063160a7925906024016080604051808303816000875af11580156120e1573d6000803e3d6000fd5b505050506040513d601f19601f820116820180604052508101906121059190614a8e565b6020015192915050565b600c5460405163160a792560e01b81523360048201526001600160a01b039091169063160a7925906024016080604051808303816000875af1158015612159573d6000803e3d6000fd5b505050506040513d601f19601f8201168201806040525081019061217d9190614a8e565b6020015161219d5760405162461bcd60e51b8152600401610a0490614b12565b6112c081612dd5565b3360009081526001602090815260408083206001600160a01b0386168452909152812054828110156122285760405162461bcd60e51b815260206004820152602560248201527f45524332303a2064656372656173656420616c6c6f77616e63652062656c6f77604482015264207a65726f60d81b6064820152608401610a04565b6122353385858403612cb1565b5060019392505050565b6000610fa2338484612ab3565b600c5460405163160a792560e01b81523360048201526001600160a01b039091169063160a7925906024016080604051808303816000875af1158015612296573d6000803e3d6000fd5b505050506040513d601f19601f820116820180604052508101906122ba9190614a8e565b602001516122da5760405162461bcd60e51b8152600401610a0490614b12565b6112c08161379f565b600c5460405163160a792560e01b81523360048201526001600160a01b039091169063160a7925906024016080604051808303816000875af115801561232d573d6000803e3d6000fd5b505050506040513d601f19601f820116820180604052508101906123519190614a8e565b602001516123715760405162461bcd60e51b8152600401610a0490614b12565b6040516bffffffffffffffffffffffff193060601b16602082015260009060340160408051601f19818403018152908290528051602090910120600c546301caf8fd60e31b83529092506001600160a01b031690630e57c7e8906123dd90849087908790600401614c09565b600060405180830381600087803b1580156123f757600080fd5b505af115801561240b573d6000803e3d6000fd5b50505050505050565b600b54600090600160a01b900460ff161561248b5760405162461bcd60e51b815260206004820152603160248201527f455243323054656d706c6174653a20746f6b656e20696e7374616e636520616c6044820152701c9958591e481a5b9a5d1a585b1a5e9959607a1b6064820152608401610a04565b61253f6124988b8d614c83565b8a8a8080602002602001604051908101604052809392919081815260200183836020028082843760009201919091525050604080516020808e0282810182019093528d82529093508d92508c91829185019084908082843760009201919091525050604080516020808d0282810182019093528c82529093508c92508b91829185019084908082843760009201919091525061253a92508991508a9050614d0a565b6138ad565b9b9a5050505050505050505050565b438410156125915760405162461bcd60e51b815260206004820152601060248201526f115490cc8c11150e881156141254915160821b6044820152606401610a04565b6011546001600160a01b038816600090815260126020526040812080549192917f6e71edae12b1b97f4d1f60370fef10105fa2faae0126114a169c64845d6126c9918b918b918b9190876125e483614d85565b909155506040805160208101969096526001600160a01b0394851690860152929091166060840152608083015260a082015260c0810187905260e0016040516020818303038152906040528051906020012060405160200161265d92919061190160f01b81526002810192909252602282015260420190565b60408051601f198184030181528282528051602091820120600080855291840180845281905260ff88169284019290925260608301869052608083018590529092509060019060a0016020604051602081039080840390855afa1580156126c8573d6000803e3d6000fd5b5050604051601f1901519150506001600160a01b038116158015906126fe5750886001600160a01b0316816001600160a01b0316145b61274a5760405162461bcd60e51b815260206004820152601a60248201527f455243323044543a20494e56414c49445f5349474e41545552450000000000006044820152606401610a04565b612755898989612cb1565b505050505050505050565b6127686127a0565b6001600160a01b03166108fc479081150290604051600060405180830381858888f193505050501580156112c0573d6000803e3d6000fd5b600d546000906001600160a01b031661282557600c546040516331a9108f60e11b8152600160048201526001600160a01b0390911690636352211e90602401602060405180830381865afa1580156127fc573d6000803e3d6000fd5b505050506040513d601f19601f820116820180604052508101906128209190614b47565b905090565b50600d546001600160a01b031690565b600260075414156128585760405162461bcd60e51b8152600401610a0490614850565b6002600755604051631d746d8360e01b8152306004820152670de0b6b3a764000060248201819052336044830152906001600160a01b03831690631d746d8390606401600060405180830381600087803b1580156128b557600080fd5b505af11580156128c9573d6000803e3d6000fd5b5050336000908152602081905260409020548392509050101561292e5760405162461bcd60e51b815260206004820152601f60248201527f556e61626c6520746f206765742044542066726f6d2044697370656e736572006044820152606401610a04565b61295061293e60208501856140c2565b60208501356105796040870187614a39565b5050600160075550565b6006818154811061296a57600080fd5b6000918252602090912001546001600160a01b0316905081565b6040516001600160a01b03808516602483015283166044820152606481018290526129ef9085906323b872dd60e01b906084015b60408051601f198184030181529190526020810180516001600160e01b03166001600160e01b031990931692909217909152613dac565b50505050565b600061122282846149d1565b604051636eb1769f60e11b81523060048201526001600160a01b038381166024830152600091839186169063dd62ed3e90604401602060405180830381865afa158015612a52573d6000803e3d6000fd5b505050506040513d601f19601f82011682018060405250810190612a7691906149e9565b612a8091906149d1565b6040516001600160a01b0385166024820152604481018290529091506129ef90859063095ea7b360e01b906064016129b8565b6001600160a01b038316612b175760405162461bcd60e51b815260206004820152602560248201527f45524332303a207472616e736665722066726f6d20746865207a65726f206164604482015264647265737360d81b6064820152608401610a04565b6001600160a01b038216612b795760405162461bcd60e51b815260206004820152602360248201527f45524332303a207472616e7366657220746f20746865207a65726f206164647260448201526265737360e81b6064820152608401610a04565b6001600160a01b03831660009081526020819052604090205481811015612bf15760405162461bcd60e51b815260206004820152602660248201527f45524332303a207472616e7366657220616d6f756e7420657863656564732062604482015265616c616e636560d01b6064820152608401610a04565b6001600160a01b03808516600090815260208190526040808220858503905591851681529081208054849290612c289084906149d1565b92505081905550826001600160a01b0316846001600160a01b03167fddf252ad1be2c89b69c2b068fc378daa952ba7f163c4a11628f55a4df523b3ef84604051612c7491815260200190565b60405180910390a36129ef565b6040516001600160a01b038316602482015260448101829052611cfd90849063a9059cbb60e01b906064016129b8565b6001600160a01b038316612d135760405162461bcd60e51b8152602060048201526024808201527f45524332303a20617070726f76652066726f6d20746865207a65726f206164646044820152637265737360e01b6064820152608401610a04565b6001600160a01b038216612d745760405162461bcd60e51b815260206004820152602260248201527f45524332303a20617070726f766520746f20746865207a65726f206164647265604482015261737360f01b6064820152608401610a04565b6001600160a01b0383811660008181526001602090815260408083209487168084529482529182902085905590518481527f8c5be1e5ebec7d5bd14f71427d1e84f3dd0314c0f7b2291e5b200ac8c7c3b925910160405180910390a3505050565b6001600160a01b0381166000908152600560205260409020805460ff1615612e3f5760405162461bcd60e51b815260206004820152601d60248201527f4552433230526f6c65733a2020414c52454144592041204d494e5445520000006044820152606401610a04565b8054600160ff19909116811782556006805491820181556000527ff652222313e28459528d920b65115c16c04f3efc82aaedc97be59f3f377c0d3f0180546001600160a01b0319166001600160a01b038416908117909155604080514281524360208201523392917f4f7e100eb1ee13e903798bd0d6aa854152e07eb05544f392b9409c12935c809591015b60405180910390a35050565b6001600160a01b03811660008181526005602052604090819020805461ff00191681559051909133917faee911eec8b2df8f3ae0464841541b1e5f339519bd5cf51889fe8b07fecff65890612ecb9042904390918252602082015260400190565b6001600160a01b03811660008181526005602052604090819020805460ff191681559051909133917fefa2735987005aaa89c050c0ff8cc9ae7d9079d19382081c429130f98c52d48090612ecb9042904390918252602082015260400190565b60408051808201909152601c81527f19457468657265756d205369676e6564204d6573736167653a0a3332000000006020820152600081612fdc60e0850185614da0565b612fe960208701876140c2565b612ff960408801602089016140c2565b87604001358860c0013560405160200161301896959493929190614de6565b6040516020818303038152906040528051906020012060405160200161303f929190614e24565b60408051601f1981840301815291905280516020909101209050600060018261306e6080870160608801614e46565b6040805160008152602081018083529390935260ff90911690820152608080870135606083015260a08088013591830191909152016020604051602081039080840390855afa1580156130c5573d6000803e3d6000fd5b5050604051601f19015191506130e0905060208501856140c2565b6001600160a01b0316816001600160a01b0316146131375760405162461bcd60e51b8152602060048201526014602482015273496e76616c69642070726f76696465722066656560601b6044820152606401610a04565b61314760408501602086016140c2565b6001600160a01b031661315d60208601866140c2565b6001600160a01b03167f22bdc88918efde2160206f0b5314bae23de0ae7fd1e9e7853d53178e32355a87604087013561319960e0890189614da0565b6131a960808b0160608c01614e46565b8a608001358b60a001358c60c001356040516131cb9796959493929190614e61565b60405180910390a360008460400135118015613200575060006131f460408601602087016140c2565b6001600160a01b031614155b80156132225750600061321660208601866140c2565b6001600160a01b031614155b156129ef5760135460408051636c45e88160e01b815290516000926001600160a01b031691636c45e8819160048083019260209291908290030181865afa158015613271573d6000803e3d6000fd5b505050506040513d601f19601f8201168201806040525081019061329591906149e9565b9050600081156132bc576132b9670de0b6b3a764000061167260408901358561347d565b90505b60006132cc604088013583613495565b905060006132e06040890160208a016140c2565b6040516370a0823160e01b81523060048201526001600160a01b0391909116906370a0823190602401602060405180830381865afa158015613326573d6000803e3d6000fd5b505050506040513d601f19601f8201168201806040525081019061334a91906149e9565b9050613376333060408b018035906133659060208e016140c2565b6001600160a01b0316929190612984565b6133848160408a01356129f5565b61339460408a0160208b016140c2565b6040516370a0823160e01b81523060048201526001600160a01b0391909116906370a0823190602401602060405180830381865afa1580156133da573d6000803e3d6000fd5b505050506040513d601f19601f820116820180604052508101906133fe91906149e9565b1461341b5760405162461bcd60e51b8152600401610a0490614a02565b61344c61342b60208a018a6140c2565b8361343c60408c0160208d016140c2565b6001600160a01b03169190612c81565b821561347357600b54613473906001600160a01b03168461343c60408c0160208d016140c2565b5050505050505050565b60006112228284614990565b600061122282846149af565b60006112228284614ea4565b6001600160a01b0382166134f75760405162461bcd60e51b815260206004820152601f60248201527f45524332303a206d696e7420746f20746865207a65726f2061646472657373006044820152606401610a04565b806002600082825461350991906149d1565b90915550506001600160a01b038216600090815260208190526040812080548392906135369084906149d1565b90915550506040518181526001600160a01b038316906000907fddf252ad1be2c89b69c2b068fc378daa952ba7f163c4a11628f55a4df523b3ef9060200160405180910390a35050565b6001600160a01b0382166135e05760405162461bcd60e51b815260206004820152602160248201527f45524332303a206275726e2066726f6d20746865207a65726f206164647265736044820152607360f81b6064820152608401610a04565b6001600160a01b038216600090815260208190526040902054818110156136545760405162461bcd60e51b815260206004820152602260248201527f45524332303a206275726e20616d6f756e7420657863656564732062616c616e604482015261636560f01b6064820152608401610a04565b6001600160a01b0383166000908152602081905260408120838303905560028054849290613683908490614ea4565b90915550506040518281526000906001600160a01b038516907fddf252ad1be2c89b69c2b068fc378daa952ba7f163c4a11628f55a4df523b3ef9060200160405180910390a3505050565b60005b60065481101561373457600060056000600684815481106136f4576136f4614b64565b60009182526020808320909101546001600160a01b031683528201929092526040019020805461ffff19169055508061372c81614d85565b9150506136d1565b5061374160066000613ff6565b6040805142815243602082015233917f712bc71db81927a76b8bf1ea346247bb0ad58f18e4e5c1bd4aa0ec6573e02a2b910160405180910390a2565b600d80546001600160a01b0319166001600160a01b0392909216919091179055565b6001600160a01b03811660009081526005602052604090208054610100900460ff16156138195760405162461bcd60e51b815260206004820152602260248201527f4552433230526f6c65733a2020414c5245414459204120464545204d414e414760448201526122a960f11b6064820152608401610a04565b805461ff001916610100178155600680546001810182556000919091527ff652222313e28459528d920b65115c16c04f3efc82aaedc97be59f3f377c0d3f0180546001600160a01b0384166001600160a01b03199091168117909155604080514281524360208201523392917fb17da2e9910b4ba5754e8872385ba315a238bafb5ae221fc85093c33432c40a79101612ecb565b600080846000815181106138c3576138c3614b64565b602002602001015190506000856001815181106138e2576138e2614b64565b6020026020010151905060006001600160a01b0316826001600160a01b031614156139645760405162461bcd60e51b815260206004820152602c60248201527f455243323054656d706c6174653a20496e76616c6964206d696e7465722c202060448201526b7a65726f206164647265737360a01b6064820152608401610a04565b6001600160a01b0381166139e05760405162461bcd60e51b815260206004820152603c60248201527f455243323054656d706c6174653a20496e76616c696420636f6d6d756e69747960448201527f2066656520636f6c6c6563746f722c207a65726f2061646472657373000000006064820152608401610a04565b846000815181106139f3576139f3614b64565b602002602001015160001415613a575760405162461bcd60e51b8152602060048201526024808201527f44617461746f6b656e54656d706c6174653a20496e76616c6964206361702076604482015263616c756560e01b6064820152608401610a04565b84600081518110613a6a57613a6a614b64565b6020026020010151600a8190555087600081518110613a8b57613a8b614b64565b602002602001015160089080519060200190613aa8929190614014565b5087600181518110613abc57613abc614b64565b602002602001015160099080519060200190613ad9929190614014565b50600c80546001600160a01b0319166001600160a01b038416179055855186906002908110613b0a57613b0a614b64565b6020908102919091010151601380546001600160a01b039283166001600160a01b0319909116179055600b80546001600160a81b03191691831691909117600160a01b1790558651613b74908890600090613b6757613b67614b64565b6020026020010151612dd5565b60006001600160a01b031687600181518110613b9257613b92614b64565b60200260200101516001600160a01b031614613c3c57613bcb87600181518110613bbe57613bbe614b64565b602002602001015161377d565b86600181518110613bde57613bde614b64565b60200260200101516001600160a01b0316336001600160a01b03167f4d7694d695c57cc54947177c8e8a0e61aae664e9223492a798c32fadfc6419cc4243604051613c33929190918252602082015260400190565b60405180910390a35b86600281518110613c4f57613c4f614b64565b6020026020010151600e60006101000a8154816001600160a01b0302191690836001600160a01b0316021790555086600381518110613c9057613c90614b64565b6020026020010151600f60006101000a8154816001600160a01b0302191690836001600160a01b0316021790555084600181518110613cd157613cd1614b64565b602002602001015160108190555060004690507f8b73c3c69bb8fe3d512ecc4cf759cc79239f7b179b0ffacaa9a75d522b39400f6008604051613d149190614ebb565b60408051918290038220828201825260018352603160f81b6020938401528151928301939093528101919091527fc89efdaa54c0f20c7adf612882df0950f5a951637e0307cdcb4c672f298b8bc66060820152608081018290523060a082015260c00160408051808303601f1901815291905280516020909101206011555050600b54600160a01b900460ff16979650505050505050565b6000613e01826040518060400160405280602081526020017f5361666545524332303a206c6f772d6c6576656c2063616c6c206661696c6564815250856001600160a01b0316613e7e9092919063ffffffff16565b805190915015611cfd5780806020019051810190613e1f9190614f57565b611cfd5760405162461bcd60e51b815260206004820152602a60248201527f5361666545524332303a204552433230206f7065726174696f6e20646964206e6044820152691bdd081cdd58d8d9595960b21b6064820152608401610a04565b6060613e8d8484600085613e95565b949350505050565b606082471015613ef65760405162461bcd60e51b815260206004820152602660248201527f416464726573733a20696e73756666696369656e742062616c616e636520666f6044820152651c8818d85b1b60d21b6064820152608401610a04565b843b613f445760405162461bcd60e51b815260206004820152601d60248201527f416464726573733a2063616c6c20746f206e6f6e2d636f6e74726163740000006044820152606401610a04565b600080866001600160a01b03168587604051613f609190614f74565b60006040518083038185875af1925050503d8060008114613f9d576040519150601f19603f3d011682016040523d82523d6000602084013e613fa2565b606091505b5091509150613fb2828286613fbd565b979650505050505050565b60608315613fcc575081611222565b825115613fdc5782518084602001fd5b8160405162461bcd60e51b8152600401610a04919061417c565b50805460008255906000526020600020908101906112c09190614098565b82805461402090614a59565b90600052602060002090601f0160209004810192826140425760008555614088565b82601f1061405b57805160ff1916838001178555614088565b82800160010185558215614088579182015b8281111561408857825182559160200191906001019061406d565b50614094929150614098565b5090565b5b808211156140945760008155600101614099565b6001600160a01b03811681146112c057600080fd5b6000602082840312156140d457600080fd5b8135611222816140ad565b6000606082840312156140f157600080fd5b50919050565b60008082840360c081121561410b57600080fd5b83356001600160401b0381111561412157600080fd5b61412d868287016140df565b93505060a0601f198201121561414257600080fd5b506020830190509250929050565b60005b8381101561416b578181015183820152602001614153565b838111156129ef5750506000910152565b602081526000825180602084015261419b816040850160208701614150565b601f01601f19169190910160400192915050565b600080604083850312156141c257600080fd5b82356141cd816140ad565b946020939093013593505050565b80151581146112c057600080fd5b600080600080600060a0868803121561420157600080fd5b853561420c816140ad565b94506020860135935060408601359250606086013561422a816141db565b9150608086013561423a816140ad565b809150509295509295909350565b60008060006060848603121561425d57600080fd5b8335614268816140ad565b92506020840135614278816140ad565b929592945050506040919091013590565b600061010082840312156140f157600080fd5b600080604083850312156142af57600080fd5b8235915060208301356001600160401b038111156142cc57600080fd5b6142d885828601614289565b9150509250929050565b6000806000606084860312156142f757600080fd5b8335614302816140ad565b92506020840135915060408401356001600160401b0381111561432457600080fd5b61433086828701614289565b9150509250925092565b60006020828403121561434c57600080fd5b5035919050565b600081518084526020808501945080840160005b8381101561438c5781516001600160a01b031687529582019590820190600101614367565b509495945050505050565b6020815260006112226020830184614353565b602080825282518282018190526000919060409081850190868401855b828110156143f557815180516001600160a01b031685528601518685015292840192908501906001016143c7565b5091979650505050505050565b634e487b7160e01b600052604160045260246000fd5b604051601f8201601f191681016001600160401b038111828210171561444057614440614402565b604052919050565b60006001600160401b0382111561446157614461614402565b5060051b60200190565b600082601f83011261447c57600080fd5b8135602061449161448c83614448565b614418565b82815260059290921b840181019181810190868411156144b057600080fd5b8286015b848110156144cb57803583529183019183016144b4565b509695505050505050565b6000806000606084860312156144eb57600080fd5b83356144f6816140ad565b92506020848101356001600160401b038082111561451357600080fd5b818701915087601f83011261452757600080fd5b813561453561448c82614448565b81815260059190911b8301840190848101908a83111561455457600080fd5b938501935b8285101561457b57843561456c816140ad565b82529385019390850190614559565b96505050604087013592508083111561459357600080fd5b50506143308682870161446b565b600080602083850312156145b457600080fd5b82356001600160401b03808211156145cb57600080fd5b818501915085601f8301126145df57600080fd5b8135818111156145ee57600080fd5b86602082850101111561460057600080fd5b60209290920196919550909350505050565b60008083601f84011261462457600080fd5b5081356001600160401b0381111561463b57600080fd5b6020830191508360208260051b850101111561465657600080fd5b9250929050565b60008060008060008060008060008060a08b8d03121561467c57600080fd5b8a356001600160401b038082111561469357600080fd5b61469f8e838f01614612565b909c509a5060208d01359150808211156146b857600080fd5b6146c48e838f01614612565b909a50985060408d01359150808211156146dd57600080fd5b6146e98e838f01614612565b909850965060608d013591508082111561470257600080fd5b61470e8e838f01614612565b909650945060808d013591508082111561472757600080fd5b506147348d828e01614612565b915080935050809150509295989b9194979a5092959850565b803560ff8116811461475e57600080fd5b919050565b600080600080600080600060e0888a03121561477e57600080fd5b8735614789816140ad565b96506020880135614799816140ad565b955060408801359450606088013593506147b56080890161474d565b925060a0880135915060c0880135905092959891949750929550565b600080604083850312156147e457600080fd5b82356147ef816140ad565b915060208301356147ff816140ad565b809150509250929050565b6000806040838503121561481d57600080fd5b82356001600160401b0381111561483357600080fd5b61483f858286016140df565b92505060208301356147ff816140ad565b6020808252601f908201527f5265656e7472616e637947756172643a207265656e7472616e742063616c6c00604082015260600190565b6000806000806000806000806000806000806101808d8f0312156148aa57600080fd5b8c516148b5816140ad565b60208e0151909c506148c6816140ad565b60408e015160608f0151919c509a506148de816140ad565b8099505060808d0151975060a08d0151965060c08d01516148fe816141db565b8096505060e08d015194506101008d015193506101208d015192506101408d015191506101608d0151614930816141db565b809150509295989b509295989b509295989b565b6000806000806080858703121561495a57600080fd5b505082516020840151604085015160609095015191969095509092509050565b634e487b7160e01b600052601160045260246000fd5b60008160001904831182151516156149aa576149aa61497a565b500290565b6000826149cc57634e487b7160e01b600052601260045260246000fd5b500490565b600082198211156149e4576149e461497a565b500190565b6000602082840312156149fb57600080fd5b5051919050565b6020808252601d908201527f5472616e7366657220616d6f756e7420776173206e6f74206578616374000000604082015260600190565b6000823560fe19833603018112614a4f57600080fd5b9190910192915050565b600181811c90821680614a6d57607f821691505b602082108114156140f157634e487b7160e01b600052602260045260246000fd5b600060808284031215614aa057600080fd5b604051608081018181106001600160401b0382111715614ac257614ac2614402565b6040528251614ad0816141db565b81526020830151614ae0816141db565b60208201526040830151614af3816141db565b60408201526060830151614b06816141db565b60608201529392505050565b6020808252818101527f455243323054656d706c6174653a204e4f54204445504c4f59455220524f4c45604082015260600190565b600060208284031215614b5957600080fd5b8151611222816140ad565b634e487b7160e01b600052603260045260246000fd5b6001600160a01b038416815260606020808301829052600091614b9f90840186614353565b838103604085015284518082528286019183019060005b81811015614bd257835183529284019291840191600101614bb6565b509098975050505050505050565b81835281816020850137506000828201602090810191909152601f909101601f19169091010190565b838152604060208201526000614c23604083018486614be0565b95945050505050565b60006001600160401b03831115614c4557614c45614402565b614c58601f8401601f1916602001614418565b9050828152838383011115614c6c57600080fd5b828260208301376000602084830101529392505050565b6000614c9161448c84614448565b80848252602080830192508560051b850136811115614caf57600080fd5b855b81811015614cfe5780356001600160401b03811115614cd05760008081fd5b870136601f820112614ce25760008081fd5b614cf0368235868401614c2c565b865250938201938201614cb1565b50919695505050505050565b6000614d1861448c84614448565b80848252602080830192508560051b850136811115614d3657600080fd5b855b81811015614cfe5780356001600160401b03811115614d575760008081fd5b870136601f820112614d695760008081fd5b614d77368235868401614c2c565b865250938201938201614d38565b6000600019821415614d9957614d9961497a565b5060010190565b6000808335601e19843603018112614db757600080fd5b8301803591506001600160401b03821115614dd157600080fd5b60200191503681900382131561465657600080fd5b858782376bffffffffffffffffffffffff19606095861b8116969091019586529290931b909116601484015260288301526048820152606801919050565b60008351614e36818460208801614150565b9190910191825250602001919050565b600060208284031215614e5857600080fd5b6112228261474d565b87815260c060208201526000614e7b60c08301888a614be0565b905060ff861660408301528460608301528360808301528260a083015298975050505050505050565b600082821015614eb657614eb661497a565b500390565b600080835481600182811c915080831680614ed757607f831692505b6020808410821415614ef757634e487b7160e01b86526022600452602486fd5b818015614f0b5760018114614f1c57614f49565b60ff19861689528489019650614f49565b60008a81526020902060005b86811015614f415781548b820152908501908301614f28565b505084890196505b509498975050505050505050565b600060208284031215614f6957600080fd5b8151611222816141db565b60008251614a4f81846020870161415056fea2646970667358221220125d5ec8805012ba7dbbf68036c6f016758acca81f8a680bd657d3ce2596be5764736f6c634300080a0033",
  "linkReferences": {},
  "deployedLinkReferences": {}
}