{
  "_format": "hh-sol-artifact-1",
  "contractName": "ERC721",
  "sourceName": "contracts/utils/ERC721/ERC721.sol",
  "abi": [
    {
      "inputs": [
        {
          "internalType": "string",
          "name": "name_",
          "type": "string"
        },
        {
          "internalType": "string",
          "name": "symbol_",
          "type": "string"
        }
      ],
      "stateMutability": "nonpayable",
      "type": "constructor"
    },
    {
      "anonymous": false,
      "inputs": [
        {
          "indexed": true,
          "internalType": "address",
          "name": "owner",
          "type": "address"
        },
        {
          "indexed": true,
          "internalType": "address",
          "name": "approved",
          "type": "address"
        },
        {
          "indexed": true,
          "internalType": "uint256",
          "name": "tokenId",
          "type": "uint256"
        }
      ],
      "name": "Approval",
      "type": "event"
    },
    {
      "anonymous": false,
      "inputs": [
        {
          "indexed": true,
          "internalType": "address",
          "name": "owner",
          "type": "address"
        },
        {
          "indexed": true,
          "internalType": "address",
          "name": "operator",
          "type": "address"
        },
        {
          "indexed": false,
          "internalType": "bool",
          "name": "approved",
          "type": "bool"
        }
      ],
      "name": "ApprovalForAll",
      "type": "event"
    },
    {
      "anonymous": false,
      "inputs": [
        {
          "indexed": true,
          "internalType": "address",
          "name": "from",
          "type": "address"
        },
        {
          "indexed": true,
          "internalType": "address",
          "name": "to",
          "type": "address"
        },
        {
          "indexed": true,
          "internalType": "uint256",
          "name": "tokenId",
          "type": "uint256"
        }
      ],
      "name": "Transfer",
      "type": "event"
    },
    {
      "inputs": [
        {
          "internalType": "address",
          "name": "to",
          "type": "address"
        },
        {
          "internalType": "uint256",
          "name": "tokenId",
          "type": "uint256"
        }
      ],
      "name": "approve",
      "outputs": [],
      "stateMutability": "nonpayable",
      "type": "function"
    },
    {
      "inputs": [
        {
          "internalType": "address",
          "name": "owner",
          "type": "address"
        }
      ],
      "name": "balanceOf",
      "outputs": [
        {
          "internalType": "uint256",
          "name": "",
          "type": "uint256"
        }
      ],
      "stateMutability": "view",
      "type": "function"
    },
    {
      "inputs": [
        {
          "internalType": "bytes32",
          "name": "c__0xce1a1efe",
          "type": "bytes32"
        }
      ],
      "name": "c_0xce1a1efe",
      "outputs": [],
      "stateMutability": "pure",
      "type": "function"
    },
    {
      "inputs": [
        {
          "internalType": "uint256",
          "name": "tokenId",
          "type": "uint256"
        }
      ],
      "name": "getApproved",
      "outputs": [
        {
          "internalType": "address",
          "name": "",
          "type": "address"
        }
      ],
      "stateMutability": "view",
      "type": "function"
    },
    {
      "inputs": [
        {
          "internalType": "address",
          "name": "owner",
          "type": "address"
        },
        {
          "internalType": "address",
          "name": "operator",
          "type": "address"
        }
      ],
      "name": "isApprovedForAll",
      "outputs": [
        {
          "internalType": "bool",
          "name": "",
          "type": "bool"
        }
      ],
      "stateMutability": "view",
      "type": "function"
    },
    {
      "inputs": [],
      "name": "name",
      "outputs": [
        {
          "internalType": "string",
          "name": "",
          "type": "string"
        }
      ],
      "stateMutability": "view",
      "type": "function"
    },
    {
      "inputs": [
        {
          "internalType": "uint256",
          "name": "tokenId",
          "type": "uint256"
        }
      ],
      "name": "ownerOf",
      "outputs": [
        {
          "internalType": "address",
          "name": "",
          "type": "address"
        }
      ],
      "stateMutability": "view",
      "type": "function"
    },
    {
      "inputs": [
        {
          "internalType": "address",
          "name": "operator",
          "type": "address"
        },
        {
          "internalType": "bool",
          "name": "approved",
          "type": "bool"
        }
      ],
      "name": "setApprovalForAll",
      "outputs": [],
      "stateMutability": "nonpayable",
      "type": "function"
    },
    {
      "inputs": [],
      "name": "symbol",
      "outputs": [
        {
          "internalType": "string",
          "name": "",
          "type": "string"
        }
      ],
      "stateMutability": "view",
      "type": "function"
    },
    {
      "inputs": [
        {
          "internalType": "uint256",
          "name": "tokenId",
          "type": "uint256"
        }
      ],
      "name": "tokenURI",
      "outputs": [
        {
          "internalType": "string",
          "name": "",
          "type": "string"
        }
      ],
      "stateMutability": "view",
      "type": "function"
    }
  ],
  "bytecode": "0x60806040523480156200001157600080fd5b5060405162002b5138038062002b5183398181016040528101906200003791906200029a565b6200006b7f0b3e0742e9487d4c37e9cf2200397f3847ac5975ac39830d4e943c0c352f15c560001b6200017560201b60201c565b6200009f7f2a9bd605ffd93f49cbe044460ab034fe2d4fc5566db6a45e26d477ad385b639b60001b6200017560201b60201c565b620000d37fd2cdadcfb83e34c269756fd9693f325f2fe03067b6e8329ac09c3717d701102960001b6200017560201b60201c565b8160009080519060200190620000eb92919062000178565b50620001207f3ff59510062844e0c0a48594a5d9b99f914c06868b6f64d899d4c86f1debe0e860001b6200017560201b60201c565b620001547f3d52d27e06d0483e79cda06d959303550bb1b1bb741336576313fa3e297d462a60001b6200017560201b60201c565b80600190805190602001906200016c92919062000178565b5050506200043e565b50565b8280546200018690620003aa565b90600052602060002090601f016020900481019282620001aa5760008555620001f6565b82601f10620001c557805160ff1916838001178555620001f6565b82800160010185558215620001f6579182015b82811115620001f5578251825591602001919060010190620001d8565b5b50905062000205919062000209565b5090565b5b80821115620002245760008160009055506001016200020a565b5090565b60006200023f620002398462000341565b6200030d565b9050828152602081018484840111156200025857600080fd5b6200026584828562000374565b509392505050565b600082601f8301126200027f57600080fd5b81516200029184826020860162000228565b91505092915050565b60008060408385031215620002ae57600080fd5b600083015167ffffffffffffffff811115620002c957600080fd5b620002d7858286016200026d565b925050602083015167ffffffffffffffff811115620002f557600080fd5b62000303858286016200026d565b9150509250929050565b6000604051905081810181811067ffffffffffffffff821117156200033757620003366200040f565b5b8060405250919050565b600067ffffffffffffffff8211156200035f576200035e6200040f565b5b601f19601f8301169050602081019050919050565b60005b838110156200039457808201518184015260208101905062000377565b83811115620003a4576000848401525b50505050565b60006002820490506001821680620003c357607f821691505b60208210811415620003da57620003d9620003e0565b5b50919050565b7f4e487b7100000000000000000000000000000000000000000000000000000000600052602260045260246000fd5b7f4e487b7100000000000000000000000000000000000000000000000000000000600052604160045260246000fd5b612703806200044e6000396000f3fe608060405234801561001057600080fd5b506004361061009e5760003560e01c806395d89b411161006657806395d89b411461016d578063a22cb4651461018b578063c87b56dd146101a7578063d93fc7c8146101d7578063e985e9c5146101f35761009e565b806306fdde03146100a3578063081812fc146100c1578063095ea7b3146100f15780636352211e1461010d57806370a082311461013d575b600080fd5b6100ab610223565b6040516100b891906122a3565b60405180910390f35b6100db60048036038101906100d69190611ee5565b610339565b6040516100e8919061226d565b60405180910390f35b61010b60048036038101906101069190611e80565b6104f2565b005b61012760048036038101906101229190611ee5565b610846565b604051610134919061226d565b60405180910390f35b61015760048036038101906101529190611ddf565b610a85565b60405161016491906123a5565b60405180910390f35b610175610c72565b60405161018291906122a3565b60405180910390f35b6101a560048036038101906101a09190611e44565b610d88565b005b6101c160048036038101906101bc9190611ee5565b611094565b6040516101ce91906122a3565b60405180910390f35b6101f160048036038101906101ec9190611ebc565b6112c7565b005b61020d60048036038101906102089190611e08565b6112ca565b60405161021a9190612288565b60405180910390f35b60606102517fd8733f7c851ad50304bb8f16a33f0eaf018e4dcf3242379cd58587557b84c7d260001b6112c7565b61027d7fb2d447a8cf5426bc26d723c9b1869b71b2c94a1614d4465abab195a9e704f37460001b6112c7565b6102a97ffea63f5f07f61a944ce0bd87f71246ab19a0b007cea3d294901a8049ee9e88af60001b6112c7565b600080546102b690612527565b80601f01602080910402602001604051908101604052809291908181526020018280546102e290612527565b801561032f5780601f106103045761010080835404028352916020019161032f565b820191906000526020600020905b81548152906001019060200180831161031257829003601f168201915b5050505050905090565b60006103677f07d01ae8969be6a96abc9dabd7793e5a0e2701651df25de4417580cda7cf35e460001b6112c7565b6103937fc46a123e46d2e2f5a317450c8ba877aae763f7ac33d723bbd15cc75da28de99c60001b6112c7565b6103bf7f9148eeb245c4125ef61224c750d1b46e661571b1aa7f413342c464c68ef38bf660001b6112c7565b6103eb7fc13c90e3be8f188178ad711071af19a12ab2ab7080c55e75b4820fb1e5220fd760001b6112c7565b6103f4826113e2565b610433576040517f08c379a000000000000000000000000000000000000000000000000000000000815260040161042a90612345565b60405180910390fd5b61045f7f4ac933e8481f567a747b6e181b56521405d01599fa4ec46f1c1c1e51e2544b3660001b6112c7565b61048b7f8b1213438a2b3e735ba5ec77d01490b64062e1378a9fabbb4735afc505dc335760001b6112c7565b6104b77f7ca0d74e93b0fc5a9950dde79e97ff6be9dcec591bb46d4567fc93eba90d4a0b60001b6112c7565b6004600083815260200190815260200160002060009054906101000a900473ffffffffffffffffffffffffffffffffffffffff169050919050565b61051e7fded5f23f7ae66971e18b23a49e9c8e6b3521a6ac0f3d3fea4c09e3f6724bd63d60001b6112c7565b61054a7fdcb3fe48db66270008ab07015f993d8e2d31c80211cc8a49daedae647bb7354260001b6112c7565b6105767fb227aae3e91e724b6e2314084fa73a7629948ee6f88640fbada400c11c2add1d60001b6112c7565b600061058182610846565b90506105af7f92207e37564a898646fa6c6725dd213c3a59b92b28e37ff364d781e8b472b18860001b6112c7565b6105db7f58ccaebaa5a845ab5d275dd2f804c9b02583b6471510fe544ba8935982a4f24b60001b6112c7565b6106077f410e4a1d0b09de215f46e3998f17d127928bf198428e791e2cc992d9928edcbb60001b6112c7565b8073ffffffffffffffffffffffffffffffffffffffff168373ffffffffffffffffffffffffffffffffffffffff161415610676576040517f08c379a000000000000000000000000000000000000000000000000000000000815260040161066d90612385565b60405180910390fd5b6106a27f80d4bf9a59ba17559a0e25050b4190285e57099c7088d479d8df44d4c1110b5060001b6112c7565b6106ce7fa0c6195bd827f95fec90dc33a55d96aab9e78a7aedc8997d840020cda5f5c50960001b6112c7565b6106fa7f272fb205db42ef9c1d76c5eba8e57d7dcea2da98a1cace0d6a56740d501f83fc60001b6112c7565b6107267f8a8902ee5e47e4a9bf0d0483e60edde8c5dc730f37c525296ae710d291b3ac3260001b6112c7565b8073ffffffffffffffffffffffffffffffffffffffff166107456114d3565b73ffffffffffffffffffffffffffffffffffffffff16148061077457506107738161076e6114d3565b6112ca565b5b6107b3576040517f08c379a00000000000000000000000000000000000000000000000000000000081526004016107aa906122e5565b60405180910390fd5b6107df7f578ed35bacb67d853770c779d025a78fe70d7e3b6821a57fa99a6ebfb82cdb6860001b6112c7565b61080b7f646debc50d38937682b1d42cc987be8bc5d31fe30e9308aac5c610fe07382b6e60001b6112c7565b6108377fd6cf9db475cd64745f8504517f4fbfa8bb8f1a81ccaa80727de8dfae81214e7260001b6112c7565b61084183836114db565b505050565b60006108747f830b0f9630e4ea49f8af88cd6d67d7d45df37629ef04d1584553e5a07677eb3260001b6112c7565b6108a07f816c182c7b0b4f95ff89cd924838586f7bb349b02e13c3076b7c126db3ee10b160001b6112c7565b6108cc7fd09e36c4d01eb3c11b35f5407c4a54e82fa3ede07f86d3216bc13af4589ac2a760001b6112c7565b60006002600084815260200190815260200160002060009054906101000a900473ffffffffffffffffffffffffffffffffffffffff1690506109307f7bb36db0c7c0168708111a426e8c159a610b29e906013e4e2cb33b101e58208f60001b6112c7565b61095c7f2baf7c114f8263006a0a3195538b80a8e5b44caa5cf0be1417e1ba62d17128af60001b6112c7565b6109887f07cce5b0b1655fe77d5d190b5c81faefb80d08bb5f9f99a34607aaefd91bfea460001b6112c7565b600073ffffffffffffffffffffffffffffffffffffffff168173ffffffffffffffffffffffffffffffffffffffff1614156109f8576040517f08c379a00000000000000000000000000000000000000000000000000000000081526004016109ef90612325565b60405180910390fd5b610a247f4d3544df8a92ae648b8a6a2ca5ab557821bfe16d524ebdf1406410afeadd545f60001b6112c7565b610a507f581ae9a66695b9f8cf3cd77d4686f74abc8150f7b23cf79cf8f8efa7450a1b3860001b6112c7565b610a7c7fa1086b119c4e2b01c97cb1ab26c9b0ed18e2eaf5099514eb4780c5e4d9ba9d6260001b6112c7565b80915050919050565b6000610ab37fd7112a0028d6523178a52e77724753662f5a41420604c7e63175e51b285985d260001b6112c7565b610adf7f91f9b46edbeaac17c6ba7e9f35d3c9d1d9d93cfad63daf9b32937fbfec1e1f9e60001b6112c7565b610b0b7f19826c937488309186bb9786e9ca7c7765f902acc475618f4ab2fec4de44736760001b6112c7565b610b377f5f87e49821a2f7131de293a5c881b264916217f96ec93a80a5534e56d11c8faf60001b6112c7565b600073ffffffffffffffffffffffffffffffffffffffff168273ffffffffffffffffffffffffffffffffffffffff161415610ba7576040517f08c379a0000000000000000000000000000000000000000000000000000000008152600401610b9e90612305565b60405180910390fd5b610bd37fc39d49893414921e29871d1c4757640e80776dcbea303949ad19cf579ce47d6e60001b6112c7565b610bff7f7bcb302001f5fd5001b4ceb6445c73ba6c154f7135b5ef4bf2ce51f6c836198960001b6112c7565b610c2b7fa15f47e2a6b6a2c36a7d3621df96a1a602d6c276a534714ec8e5463e522f402a60001b6112c7565b600360008373ffffffffffffffffffffffffffffffffffffffff1673ffffffffffffffffffffffffffffffffffffffff168152602001908152602001600020549050919050565b6060610ca07fedc0c0fdb9f8aa85c9f21e418618b4f7470c213408f066e9c9bb53d71d7fe34e60001b6112c7565b610ccc7f3b34e5307d43040444430e59e7ac8d62c7988a97212e6d9dee274c0e987a0ab360001b6112c7565b610cf87f5e80b6cafc9a32554c75c04bb3cfffa8d560e742c7aa804e2247bcbfbe8c9d1960001b6112c7565b60018054610d0590612527565b80601f0160208091040260200160405190810160405280929190818152602001828054610d3190612527565b8015610d7e5780601f10610d5357610100808354040283529160200191610d7e565b820191906000526020600020905b815481529060010190602001808311610d6157829003601f168201915b5050505050905090565b610db47f0cd28ef66caab9ae5e2e88e638b415e5af740cd745e6f82c20468f3f046bb28a60001b6112c7565b610de07fa051b1ae7e1840f2dd50944f6be2146a496d6a5920225a643d8b82aebf16abc860001b6112c7565b610e0c7f5494433f1f7d50c679cb586dabf2ce4e62476172583f7a60b34d3fd6e3d445ac60001b6112c7565b610e387fd722eede0135375645f8a8f4c682e00e5364927a8a910f32185142d89d0b813f60001b6112c7565b610e406114d3565b73ffffffffffffffffffffffffffffffffffffffff168273ffffffffffffffffffffffffffffffffffffffff161415610eae576040517f08c379a0000000000000000000000000000000000000000000000000000000008152600401610ea5906122c5565b60405180910390fd5b610ed97e9d81a914777c4a2590da886a22867a68295fa09e47666adbbcb62c90623efd60001b6112c7565b610f057f2123d5dc62529ffff906efaefe7fddb0ab6d612366d69257cf5603c928df3df860001b6112c7565b610f317f207cb55a554e9d03de0d77af06662e58708c037e7bd972f943be41f7a237c2ed60001b6112c7565b8060056000610f3e6114d3565b73ffffffffffffffffffffffffffffffffffffffff1673ffffffffffffffffffffffffffffffffffffffff16815260200190815260200160002060008473ffffffffffffffffffffffffffffffffffffffff1673ffffffffffffffffffffffffffffffffffffffff16815260200190815260200160002060006101000a81548160ff021916908315150217905550610ff87fbe992af212154136095701b431318badd0d6ced3f8d1ada807e74d72bce527a560001b6112c7565b6110247f083a4284079a4c99153994ef8b6a3b2026a1c2d3a0b558e85a4e8a65a4c4e6f760001b6112c7565b8173ffffffffffffffffffffffffffffffffffffffff166110436114d3565b73ffffffffffffffffffffffffffffffffffffffff167f17307eab39ab6107e8899845ad3d59bd9653f200f220920489ca2b5937696c31836040516110889190612288565b60405180910390a35050565b60606110c27f40bece8f3c14bcf8bac2b77b5bc7de9db91f8d42c4062aa791712b708088009860001b6112c7565b6110ee7ff258d5636d79ed80247d753175ac91277082606e57d272d21a6b5c2c26a67af760001b6112c7565b61111a7f679b1054e1ccb72a29c9e4e57a99fd815222878254a9e6bfd254c9d6f5b1a89d60001b6112c7565b6111467f4e5b6c25f3986bf43499f18ceadc58e706eaf50f3786398525e44d9d4c98c0f760001b6112c7565b61114f826113e2565b61118e576040517f08c379a000000000000000000000000000000000000000000000000000000000815260040161118590612365565b60405180910390fd5b6111ba7fc8f11fad7a528f89e46b9ea8bd67c231500f183c0970525b0e91c9c38f05494b60001b6112c7565b6111e67fa7a285a21a5cb44b133ced09f16f9a398bda37d4a2648b126bf346a68bed449960001b6112c7565b6112127fcc4635635aa654446bdd9bee89043cd0b36e3752c56a55f4f7fc1a6fb8faa75660001b6112c7565b600061121c611670565b905061124a7f373fd9a46a3f0f0b8b9a7552f1f4c614842dc38c6cb380fbb9f0669a1abf6a4a60001b6112c7565b6112767fe1b337a462e3d2f653dbd9d103742928ca0ebdf9778298da6a25cc0f8294c75660001b6112c7565b600081511161129457604051806020016040528060008152506112bf565b8061129e8461170b565b6040516020016112af929190612249565b6040516020818303038152906040525b915050919050565b50565b60006112f87fa8c3a2e4fd712e11a0997071119aaebc83f0061a6a9efc15192383fa5817007960001b6112c7565b6113247fa678ff82239fb36f361c9b19c9282e4157e330c66152c16485346415fd98105660001b6112c7565b6113507fabbbffcf68e3f3828d03b05a2defb0f3ec91e86ed19ee08db01e5683829c7fb960001b6112c7565b600560008473ffffffffffffffffffffffffffffffffffffffff1673ffffffffffffffffffffffffffffffffffffffff16815260200190815260200160002060008373ffffffffffffffffffffffffffffffffffffffff1673ffffffffffffffffffffffffffffffffffffffff16815260200190815260200160002060009054906101000a900460ff16905092915050565b60006114107fb46f49820a743f7adb46ef8de7ed6854fd41a4166ce05b83d7b278fe47f0ecec60001b6112c7565b61143c7fff36d0d5d55de9416cd315ca2f8de2677869d4b334a2cf371c36619368bab38660001b6112c7565b6114687f3750f8473dd9338048d05ee5f655c6772b8e29ad8e5bfc0f62292525ebba30a060001b6112c7565b600073ffffffffffffffffffffffffffffffffffffffff166002600084815260200190815260200160002060009054906101000a900473ffffffffffffffffffffffffffffffffffffffff1673ffffffffffffffffffffffffffffffffffffffff1614159050919050565b600033905090565b6115077f2a3be4ebfbce0057583dc85fd190dfbb0bc91a9bf3c2aa1212774982f3c425cb60001b6112c7565b6115337f0b0222db512509d096f182c1ab9345e966b7364a7d077a1704df31f3e013bb4560001b6112c7565b61155f7fd46e64f08bf1baff360464ecc153079c5e0fc6c4fd46957ba47c817a3df73e4760001b6112c7565b816004600083815260200190815260200160002060006101000a81548173ffffffffffffffffffffffffffffffffffffffff021916908373ffffffffffffffffffffffffffffffffffffffff1602179055506115dd7faea5980c0f448df5e75b96e5b623029c7e4099e920a24033afa8f404d45c54e460001b6112c7565b6116097f04149980b7406ccb9b412bb4c952dc07c331fd52ee1bd755c32f29c14ec94fff60001b6112c7565b808273ffffffffffffffffffffffffffffffffffffffff1661162a83610846565b73ffffffffffffffffffffffffffffffffffffffff167f8c5be1e5ebec7d5bd14f71427d1e84f3dd0314c0f7b2291e5b200ac8c7c3b92560405160405180910390a45050565b606061169e7f2adfb31b904f041b0d78acc33dc132b915ed93b6375bf3148b5343fe6df43c8160001b6112c7565b6116ca7f5b59c792b3a68109c307c569e95f3c564ca5877d97c6aec87191c9001599632c60001b6112c7565b6116f67f62a0b251907a190dc67ccd8d8e4fba72f8ffce3ee9f4ba468c1bda4df7b1079860001b6112c7565b60405180602001604052806000815250905090565b60606117397f9a2a05562c64660483ad9cb5e73880731ad09e14eeed0b0660e0ecc123ed33f560001b611d88565b6117657f4f78b7bd63afe42b731eb9c5cce14e7a895c1632e1af5f76e37a3fe9eca8cea960001b611d88565b6117917fde44c8435aacf22674814f3a77f5e9b802cab5d4258441c2b3028c5c4f5405cc60001b611d88565b600082141561185b576117c67f24bec8c938b2ee0617122b8bda6a412dc6bdcf362db6c344f2c12844b7620c7d60001b611d88565b6117f27f9409c1d0d705d0dc56b4503271ecedce98375cd6362ff8e8a5616cb6fdc67a5960001b611d88565b61181e7fae1e5b7e83bfc1864b2ac231ea11b2bcbe1012f158f72592196777b8c7cbf00560001b611d88565b6040518060400160405280600181526020017f30000000000000000000000000000000000000000000000000000000000000008152509050611d83565b6118877f1e5f7add9577df6a8822d4cd0a0318afd567aedbd089b4b535d1387176c85c0660001b611d88565b6118b37f775ee977b911d991fedeab6a13ec4a2c15f0bc2b552e12c3349f60f6525351ca60001b611d88565b6118df7f55528c6ec26d498b08a4d0a6b5d8dcb6ae2bea2d3867a467120280658354f14260001b611d88565b60008290506119107f35e3b8abee4385b2c1304ef71afb777c7a6ad4e48dacf21316acb443bd8bcdac60001b611d88565b61193c7f427ac9209b438b7061788f4081e09db1c06c5ddc6037f09fbff9eb7a5404fe9b60001b611d88565b600061196a7fe7af6179690ef9707f71185b123750fe58cfc637a807aeb3e9708c4fc86d2e6b60001b611d88565b6119967fd1491ade964879bd60a5cbec6a99148715a60d3e9d9df213a6bc13ad09b2862260001b611d88565b5b60008214611a45576119cb7fd441db6b5bac67840cbb26ec390749483f01a4e2637c0b95b7bc6a0f5046c09160001b611d88565b80806119d690612559565b915050611a057fe6f87e0f3f33d880debfc87218f3dea2a4cb11179c8f8b99a5da714747f95ce660001b611d88565b611a317f2d3420ba15998fd435c59a8c2c393da80a1930c6fd24d149528c18bb1194a43a60001b611d88565b600a82611a3e919061243d565b9150611997565b611a717f02d541b5d47be85800b8eef410eb15968ed089f88e2ba148f23ee253c0bb424360001b611d88565b611a9d7ff624bf92ddba41b067ccccf946ae444d9df8db44bddc0a08937692cdd0d467aa60001b611d88565b60008167ffffffffffffffff811115611adf577f4e487b7100000000000000000000000000000000000000000000000000000000600052604160045260246000fd5b6040519080825280601f01601f191660200182016040528015611b115781602001600182028036833780820191505090505b509050611b407fd0fa9ba3888a1fa2998a440dd606f430cfdc824780de3e8948258b5ffe88e48860001b611d88565b611b6c7feb9866b9c141a61ee2e19bd4276d9f4b4bcaf1bc9aa637d2abf82f3b559ce82960001b611d88565b5b60008514611d2457611ba17f427623c68d09986f2b634ed37874a5a47e146208647b5304c09a6eccbffd306560001b611d88565b611bcd7f22b0e15ff96b63dfecb59a7b787451e6a5cccae0c3dde1b170d363d2a37bf73c60001b611d88565b600182611bda919061246e565b9150611c087fa7dd476f0a2aa1b2edfc9d917e2e6748602a5fab96c2808c9fd7e3656f4da5ad60001b611d88565b611c347f900e5c2ef7eb4be02931763ad0c96020a00a82810188b88ced78510fa59ef91e60001b611d88565b600a85611c4191906125a2565b6030611c4d91906123e7565b60f81b818381518110611c89577f4e487b7100000000000000000000000000000000000000000000000000000000600052603260045260246000fd5b60200101907effffffffffffffffffffffffffffffffffffffffffffffffffffffffffffff1916908160001a905350611ce47f35488a664d79e43cf6df5990793a02e2eb1931b984a22dfafeef544baaf96bd660001b611d88565b611d107fd2d7f0ee2a96068ada320d968062a2a8c9fc7758cbb57dffd071a6ad194483ae60001b611d88565b600a85611d1d919061243d565b9450611b6d565b611d507fcae00ea3de4936a2e44b3dc6827b92af9a8c98ffe091f52401bddc90c46d545f60001b611d88565b611d7c7f604b8c76f6fa76acb506b4170a9dc486b7a3793e62c9294a228c221c8572195f60001b611d88565b8093505050505b919050565b50565b600081359050611d9a81612671565b92915050565b600081359050611daf81612688565b92915050565b600081359050611dc48161269f565b92915050565b600081359050611dd9816126b6565b92915050565b600060208284031215611df157600080fd5b6000611dff84828501611d8b565b91505092915050565b60008060408385031215611e1b57600080fd5b6000611e2985828601611d8b565b9250506020611e3a85828601611d8b565b9150509250929050565b60008060408385031215611e5757600080fd5b6000611e6585828601611d8b565b9250506020611e7685828601611da0565b9150509250929050565b60008060408385031215611e9357600080fd5b6000611ea185828601611d8b565b9250506020611eb285828601611dca565b9150509250929050565b600060208284031215611ece57600080fd5b6000611edc84828501611db5565b91505092915050565b600060208284031215611ef757600080fd5b6000611f0584828501611dca565b91505092915050565b611f17816124a2565b82525050565b611f26816124b4565b82525050565b6000611f37826123c0565b611f4181856123cb565b9350611f518185602086016124f4565b611f5a81612660565b840191505092915050565b6000611f70826123c0565b611f7a81856123dc565b9350611f8a8185602086016124f4565b80840191505092915050565b6000611fa36019836123cb565b91507f4552433732313a20617070726f766520746f2063616c6c6572000000000000006000830152602082019050919050565b6000611fe36038836123cb565b91507f4552433732313a20617070726f76652063616c6c6572206973206e6f74206f7760008301527f6e6572206e6f7220617070726f76656420666f7220616c6c00000000000000006020830152604082019050919050565b6000612049602a836123cb565b91507f4552433732313a2062616c616e636520717565727920666f7220746865207a6560008301527f726f2061646472657373000000000000000000000000000000000000000000006020830152604082019050919050565b60006120af6029836123cb565b91507f4552433732313a206f776e657220717565727920666f72206e6f6e657869737460008301527f656e7420746f6b656e00000000000000000000000000000000000000000000006020830152604082019050919050565b6000612115602c836123cb565b91507f4552433732313a20617070726f76656420717565727920666f72206e6f6e657860008301527f697374656e7420746f6b656e00000000000000000000000000000000000000006020830152604082019050919050565b600061217b602f836123cb565b91507f4552433732314d657461646174613a2055524920717565727920666f72206e6f60008301527f6e6578697374656e7420746f6b656e00000000000000000000000000000000006020830152604082019050919050565b60006121e16021836123cb565b91507f4552433732313a20617070726f76616c20746f2063757272656e74206f776e6560008301527f72000000000000000000000000000000000000000000000000000000000000006020830152604082019050919050565b612243816124ea565b82525050565b60006122558285611f65565b91506122618284611f65565b91508190509392505050565b60006020820190506122826000830184611f0e565b92915050565b600060208201905061229d6000830184611f1d565b92915050565b600060208201905081810360008301526122bd8184611f2c565b905092915050565b600060208201905081810360008301526122de81611f96565b9050919050565b600060208201905081810360008301526122fe81611fd6565b9050919050565b6000602082019050818103600083015261231e8161203c565b9050919050565b6000602082019050818103600083015261233e816120a2565b9050919050565b6000602082019050818103600083015261235e81612108565b9050919050565b6000602082019050818103600083015261237e8161216e565b9050919050565b6000602082019050818103600083015261239e816121d4565b9050919050565b60006020820190506123ba600083018461223a565b92915050565b600081519050919050565b600082825260208201905092915050565b600081905092915050565b60006123f2826124ea565b91506123fd836124ea565b9250827fffffffffffffffffffffffffffffffffffffffffffffffffffffffffffffffff03821115612432576124316125d3565b5b828201905092915050565b6000612448826124ea565b9150612453836124ea565b92508261246357612462612602565b5b828204905092915050565b6000612479826124ea565b9150612484836124ea565b925082821015612497576124966125d3565b5b828203905092915050565b60006124ad826124ca565b9050919050565b60008115159050919050565b6000819050919050565b600073ffffffffffffffffffffffffffffffffffffffff82169050919050565b6000819050919050565b60005b838110156125125780820151818401526020810190506124f7565b83811115612521576000848401525b50505050565b6000600282049050600182168061253f57607f821691505b6020821081141561255357612552612631565b5b50919050565b6000612564826124ea565b91507fffffffffffffffffffffffffffffffffffffffffffffffffffffffffffffffff821415612597576125966125d3565b5b600182019050919050565b60006125ad826124ea565b91506125b8836124ea565b9250826125c8576125c7612602565b5b828206905092915050565b7f4e487b7100000000000000000000000000000000000000000000000000000000600052601160045260246000fd5b7f4e487b7100000000000000000000000000000000000000000000000000000000600052601260045260246000fd5b7f4e487b7100000000000000000000000000000000000000000000000000000000600052602260045260246000fd5b6000601f19601f8301169050919050565b61267a816124a2565b811461268557600080fd5b50565b612691816124b4565b811461269c57600080fd5b50565b6126a8816124c0565b81146126b357600080fd5b50565b6126bf816124ea565b81146126ca57600080fd5b5056fea26469706673582212209e71a836d2bab068c53d8036f8dbf859cbb1443f48d7dde490c3a069702eb59b64736f6c63430008000033",
  "linkReferences": {},
  "deployedLinkReferences": {}
}