{
  "_format": "hh-sol-artifact-1",
  "contractName": "BFactory",
  "sourceName": "contracts/v3/balancer/BFactory.sol",
  "abi": [
    {
      "constant": true,
      "inputs": [],
      "name": "getCreationCode",
      "outputs": [
        {
          "name": "",
          "type": "bytes"
        }
      ],
      "payable": false,
      "stateMutability": "view",
      "type": "function"
    },
    {
      "constant": true,
      "inputs": [],
      "name": "MAX_TOTAL_WEIGHT",
      "outputs": [
        {
          "name": "",
          "type": "uint256"
        }
      ],
      "payable": false,
      "stateMutability": "view",
      "type": "function"
    },
    {
      "constant": true,
      "inputs": [],
      "name": "getCreationCodeContracts",
      "outputs": [
        {
          "name": "contractA",
          "type": "address"
        },
        {
          "name": "contractB",
          "type": "address"
        }
      ],
      "payable": false,
      "stateMutability": "view",
      "type": "function"
    },
    {
      "constant": true,
      "inputs": [],
      "name": "BPOW_PRECISION",
      "outputs": [
        {
          "name": "",
          "type": "uint256"
        }
      ],
      "payable": false,
      "stateMutability": "view",
      "type": "function"
    },
    {
      "constant": true,
      "inputs": [],
      "name": "MIN_WEIGHT",
      "outputs": [
        {
          "name": "",
          "type": "uint256"
        }
      ],
      "payable": false,
      "stateMutability": "view",
      "type": "function"
    },
    {
      "constant": true,
      "inputs": [],
      "name": "MIN_FEE",
      "outputs": [
        {
          "name": "",
          "type": "uint256"
        }
      ],
      "payable": false,
      "stateMutability": "view",
      "type": "function"
    },
    {
      "constant": true,
      "inputs": [],
      "name": "MIN_BALANCE",
      "outputs": [
        {
          "name": "",
          "type": "uint256"
        }
      ],
      "payable": false,
      "stateMutability": "view",
      "type": "function"
    },
    {
      "constant": true,
      "inputs": [],
      "name": "INIT_POOL_SUPPLY",
      "outputs": [
        {
          "name": "",
          "type": "uint256"
        }
      ],
      "payable": false,
      "stateMutability": "view",
      "type": "function"
    },
    {
      "constant": true,
      "inputs": [],
      "name": "MAX_OUT_RATIO",
      "outputs": [
        {
          "name": "",
          "type": "uint256"
        }
      ],
      "payable": false,
      "stateMutability": "view",
      "type": "function"
    },
    {
      "constant": true,
      "inputs": [],
      "name": "opfCollector",
      "outputs": [
        {
          "name": "",
          "type": "address"
        }
      ],
      "payable": false,
      "stateMutability": "view",
      "type": "function"
    },
    {
      "constant": true,
      "inputs": [],
      "name": "MAX_BOUND_TOKENS",
      "outputs": [
        {
          "name": "",
          "type": "uint256"
        }
      ],
      "payable": false,
      "stateMutability": "view",
      "type": "function"
    },
    {
      "constant": true,
      "inputs": [],
      "name": "MIN_BOUND_TOKENS",
      "outputs": [
        {
          "name": "",
          "type": "uint256"
        }
      ],
      "payable": false,
      "stateMutability": "view",
      "type": "function"
    },
    {
      "constant": true,
      "inputs": [],
      "name": "MIN_BPOW_BASE",
      "outputs": [
        {
          "name": "",
          "type": "uint256"
        }
      ],
      "payable": false,
      "stateMutability": "view",
      "type": "function"
    },
    {
      "constant": true,
      "inputs": [],
      "name": "bpoolTemplate",
      "outputs": [
        {
          "name": "",
          "type": "address"
        }
      ],
      "payable": false,
      "stateMutability": "view",
      "type": "function"
    },
    {
      "constant": true,
      "inputs": [],
      "name": "MAX_FEE",
      "outputs": [
        {
          "name": "",
          "type": "uint256"
        }
      ],
      "payable": false,
      "stateMutability": "view",
      "type": "function"
    },
    {
      "constant": true,
      "inputs": [],
      "name": "MAX_BPOW_BASE",
      "outputs": [
        {
          "name": "",
          "type": "uint256"
        }
      ],
      "payable": false,
      "stateMutability": "view",
      "type": "function"
    },
    {
      "constant": true,
      "inputs": [],
      "name": "BONE",
      "outputs": [
        {
          "name": "",
          "type": "uint256"
        }
      ],
      "payable": false,
      "stateMutability": "view",
      "type": "function"
    },
    {
      "constant": true,
      "inputs": [],
      "name": "EXIT_FEE",
      "outputs": [
        {
          "name": "",
          "type": "uint256"
        }
      ],
      "payable": false,
      "stateMutability": "view",
      "type": "function"
    },
    {
      "constant": true,
      "inputs": [],
      "name": "MAX_WEIGHT",
      "outputs": [
        {
          "name": "",
          "type": "uint256"
        }
      ],
      "payable": false,
      "stateMutability": "view",
      "type": "function"
    },
    {
      "constant": true,
      "inputs": [],
      "name": "MAX_IN_RATIO",
      "outputs": [
        {
          "name": "",
          "type": "uint256"
        }
      ],
      "payable": false,
      "stateMutability": "view",
      "type": "function"
    },
    {
      "inputs": [
        {
          "name": "_bpoolTemplate",
          "type": "address"
        },
        {
          "name": "_opfCollector",
          "type": "address"
        },
        {
          "name": "_preCreatedPools",
          "type": "address[]"
        }
      ],
      "payable": false,
      "stateMutability": "nonpayable",
      "type": "constructor"
    },
    {
      "anonymous": false,
      "inputs": [
        {
          "indexed": true,
          "name": "newBPoolAddress",
          "type": "address"
        },
        {
          "indexed": true,
          "name": "registeredBy",
          "type": "address"
        },
        {
          "indexed": true,
          "name": "datatokenAddress",
          "type": "address"
        },
        {
          "indexed": false,
          "name": "basetokenAddress",
          "type": "address"
        },
        {
          "indexed": false,
          "name": "bpoolTemplateAddress",
          "type": "address"
        },
        {
          "indexed": false,
          "name": "ssAddress",
          "type": "address"
        }
      ],
      "name": "BPoolCreated",
      "type": "event"
    },
    {
      "anonymous": false,
      "inputs": [
        {
          "indexed": false,
          "name": "instance",
          "type": "address"
        }
      ],
      "name": "InstanceDeployed",
      "type": "event"
    }
  ],
  "bytecode": "0x608060405234801561001057600080fd5b50604051616a0e380380616a0e8339810180604052606081101561003357600080fd5b815160208301516040840180519294919382019264010000000081111561005957600080fd5b8201602081018481111561006c57600080fd5b815185602082028301116401000000008211171561008957600080fd5b5050929190505050604051806020016100a190610393565b601f1982820381018352601f90910116604052805160006002820460018190558083036003819055818552909150836100e4816102e3602090811b61043817901c565b600080546001600160a01b0319166001600160a01b03929092169190911790558285018051838252610120826102e3602090811b61043817901c565b600280546001600160a01b0319166001600160a01b039283161790559590925252505084161515905061019e576040517f08c379a000000000000000000000000000000000000000000000000000000000815260040180806020018281038252602d8152602001806169e1602d913960400191505060405180910390fd5b6001600160a01b03821661021357604080517f08c379a000000000000000000000000000000000000000000000000000000000815260206004820152601660248201527f42466163746f72793a207a65726f206164647265737300000000000000000000604482015290519081900360640190fd5b600480546001600160a01b038086166001600160a01b03199283161790925560058054928516929091169190911790558051156102db5760005b81518110156102d95760006001600160a01b0316336001600160a01b031683838151811061027757fe5b60209081029190910181015160408051600080825293810184905280820193909352516001600160a01b03909116917fbb6121447d29a04cc37bfd93cdf6a9dd08229f2d941116c1528f04698c4e790e919081900360600190a460010161024d565b505b5050506103a0565b80517f602038038060206000396000f3fefefefefefefefefefefefefefefefefefefe808352600091602081018484f090845291506001600160a01b03821661038d57604080517f08c379a000000000000000000000000000000000000000000000000000000000815260206004820152601660248201527f434f44455f4445504c4f594d454e545f4641494c454400000000000000000000604482015290519081900360640190fd5b50919050565b616135806108ac83390190565b6104fd806103af6000396000f3fe608060405234801561001057600080fd5b506004361061012b5760003560e01c8063b0e0d136116100ad578063bc694ea211610071578063bc694ea214610271578063c36596a6146101fd578063c6580d1214610279578063e4a28a52146101ad578063ec093021146102815761012b565b8063b0e0d13614610249578063b7b800a414610251578063ba019dab14610259578063bae6ae1214610261578063bc063e1a146102695761012b565b806376c7a3c7116100f457806376c7a3c714610205578063867378c51461020d5780639381cd2b14610215578063992e2a921461021d578063a28f78f1146102255761012b565b8062c194db1461013057806309a3bbe4146101ad578063174481fa146101c7578063189d00ca146101f5578063218b5382146101fd575b600080fd5b610138610289565b6040805160208082528351818301528351919283929083019185019080838360005b8381101561017257818101518382015260200161015a565b50505050905090810190601f16801561019f5780820380516001836020036101000a031916815260200191505b509250505060405180910390f35b6101b56102a8565b60408051918252519081900360200190f35b6101cf6102b5565b604080516001600160a01b03938416815291909216602082015281519081900390910190f35b6101b56102cc565b6101b56102e0565b6101b56102ec565b6101b56102fe565b6101b5610312565b6101b561031f565b61022d61032b565b604080516001600160a01b039092168252519081900360200190f35b6101b561033a565b6101b561033f565b6101b5610344565b61022d610349565b6101b5610358565b6101b5610368565b6101b5610374565b6101b5610379565b60606102a360405180602001604052806000815250610389565b905090565b6802b5e3af16b188000081565b6000546002546001600160a01b0391821691169091565b6402540be400670de0b6b3a76400005b0481565b670de0b6b3a764000081565b620f4240670de0b6b3a76400006102dc565b64e8d4a51000670de0b6b3a76400006102dc565b68056bc75e2d6310000081565b6704a03ce68d21555681565b6005546001600160a01b031681565b600881565b600281565b600181565b6004546001600160a01b031681565b600a670de0b6b3a76400006102dc565b671bc16d674ec7ffff81565b600081565b6002670de0b6b3a76400006102dc565b60008054600154600254600354855160408051838601838101828101602090810190945280835291986001600160a01b039889169896909616959093928901908790828a3c846000888301883c50602089810190898501016103ec8183866103fa565b505050505050505050919050565b5b6020811061041a578151835260209283019290910190601f19016103fb565b905182516020929092036101000a6000190180199091169116179052565b80517f602038038060206000396000f3fefefefefefefefefefefefefefefefefefefe808352600091602081018484f090845291506001600160a01b0382166104cb5760408051600160e51b62461bcd02815260206004820152601660248201527f434f44455f4445504c4f594d454e545f4641494c454400000000000000000000604482015290519081900360640190fd5b5091905056fea165627a7a723058209654a87b7b6c4687606b438e4f9939634d8674bae1683495c2bd884c14894d94002960c0604052601360808190527f42616c616e63657220506f6f6c20546f6b656e0000000000000000000000000060a09081526200004091600a9190620000a9565b506040805180820190915260038082527f425054000000000000000000000000000000000000000000000000000000000060209092019182526200008791600b91620000a9565b50600c805460ff19166012179055348015620000a257600080fd5b506200014e565b828054600181600116156101000203166002900490600052602060002090601f016020900481019282601f10620000ec57805160ff19168380011785556200011c565b828001600101855582156200011c579182015b828111156200011c578251825591602001919060010190620000ff565b506200012a9291506200012e565b5090565b6200014b91905b808211156200012a576000815560010162000135565b90565b615fd7806200015e6000396000f3fe608060405234801561001057600080fd5b50600436106103db5760003560e01c80638d4e40831161020a578063be3bbd2e11610125578063dd62ed3e116100b8578063f1b8a9b711610087578063f1b8a9b714610bc3578063f542f6cf14610be9578063f8b2cb4f14610c0f578063fbb9dd5014610c35578063fde924f714610c5b576103db565b8063dd62ed3e14610b85578063e4a28a5214610505578063ec09302114610bb3578063f0f13f0b14610bbb576103db565b8063cc77828d116100f4578063cc77828d14610b41578063cd2ed8fb14610b49578063d4cadf6814610b51578063d73dd62314610b59576103db565b8063be3bbd2e14610a43578063c070a6d814610a9b578063c36596a614610595578063c6580d1214610b39576103db565b8063a9059cbb1161019d578063b80483b01161016c578063b80483b014610a23578063ba019dab14610a2b578063bc063e1a14610a33578063bc694ea214610a3b576103db565b8063a9059cbb14610970578063b02f0b731461099c578063b0e0d13614610a13578063b7b800a414610a1b576103db565b8063948d8ce6116101d9578063948d8ce61461093257806395d89b4114610958578063992e2a9214610960578063a562ddf014610968576103db565b80638d4e4083146108f457806391f2a496146108fc578063936c3477146109225780639381cd2b1461092a576103db565b806334e19907116102fa5780636d06dfa01161028d5780637c5e9ea41161025c5780637c5e9ea41461082d5780637c6e92c2146108865780638201aa3f146108ac578063867378c5146108ec576103db565b80636d06dfa0146107a757806370330518146107d957806370a08231146107ff57806376c7a3c714610825576103db565b80634df947d0116102c95780634df947d0146106ca5780634f69c0d4146106d25780635db3427714610749578063661884631461077b576103db565b806334e199071461066b578063392e53cd1461068857806346ab38f11461069057806349e9350f146106c2576103db565b8063189d00ca11610372578063300621921161034157806330062192146105f95780633018205f1461061f578063313ce5671461062757806331e2761b14610645576103db565b8063189d00ca1461058d578063218b53821461059557806323b872dd1461059d5780632f37b624146105d3576103db565b806309a3bbe4116103ae57806309a3bbe41461050557806309ef3f5b1461050d57806315e84af91461055757806318160ddd14610585576103db565b806302c96748146103e057806304ad79541461042457806306fdde0314610448578063095ea7b3146104c5575b600080fd5b610412600480360360608110156103f657600080fd5b506001600160a01b038135169060208101359060400135610c63565b60408051918252519081900360200190f35b61042c6111ce565b604080516001600160a01b039092168252519081900360200190f35b6104506111dd565b6040805160208082528351818301528351919283929083019185019080838360005b8381101561048a578181015183820152602001610472565b50505050905090810190601f1680156104b75780820380516001836020036101000a031916815260200191505b509250505060405180910390f35b6104f1600480360360408110156104db57600080fd5b506001600160a01b038135169060200135611273565b604080519115158252519081900360200190f35b6104126112c8565b610555600480360360c081101561052357600080fd5b506001600160a01b03813581169160208101359160408201359160608101359091169060808101359060a001356112d5565b005b6104126004803603604081101561056d57600080fd5b506001600160a01b0381358116916020013516611491565b6104126115ea565b6104126115f0565b610412611604565b6104f1600480360360608110156105b357600080fd5b506001600160a01b03813581169160208101359091169060400135611610565b6104f1600480360360208110156105e957600080fd5b50356001600160a01b0316611775565b6104126004803603602081101561060f57600080fd5b50356001600160a01b0316611793565b61042c6117a5565b61062f6117b4565b6040805160ff9092168252519081900360200190f35b6104126004803603602081101561065b57600080fd5b50356001600160a01b03166117bd565b6105556004803603602081101561068157600080fd5b50356117cf565b6104f1611925565b610412600480360360608110156106a657600080fd5b506001600160a01b038135169060208101359060400135611935565b610412611e53565b61042c611e59565b610555600480360360408110156106e857600080fd5b8135919081019060408101602082013564010000000081111561070a57600080fd5b82018360208201111561071c57600080fd5b8035906020019184602083028401116401000000008311171561073e57600080fd5b509092509050611e68565b6104126004803603606081101561075f57600080fd5b506001600160a01b0381351690602081013590604001356121ee565b6104f16004803603604081101561079157600080fd5b506001600160a01b0381351690602001356126b8565b610412600480360360608110156107bd57600080fd5b506001600160a01b038135169060208101359060400135612790565b610555600480360360208110156107ef57600080fd5b50356001600160a01b0316612c79565b6104126004803603602081101561081557600080fd5b50356001600160a01b0316612cfd565b610412612d18565b61086d600480360360a081101561084357600080fd5b506001600160a01b0381358116916020810135916040820135169060608101359060800135612d2a565b6040805192835260208301919091528051918290030190f35b6104126004803603602081101561089c57600080fd5b50356001600160a01b03166131db565b61086d600480360360a08110156108c257600080fd5b506001600160a01b03813581169160208101359160408201351690606081013590608001356131ed565b610412613670565b6104f1613684565b6105556004803603602081101561091257600080fd5b50356001600160a01b0316613694565b610412613897565b6104126138f2565b6104126004803603602081101561094857600080fd5b50356001600160a01b03166138ff565b6104506139d0565b610412613a31565b61042c613a3d565b6104f16004803603604081101561098657600080fd5b506001600160a01b038135169060200135613a4c565b610555600480360360408110156109b257600080fd5b813591908101906040810160208201356401000000008111156109d457600080fd5b8201836020820111156109e657600080fd5b80359060200191846020830284011164010000000083111715610a0857600080fd5b509092509050613a62565b610412613e03565b610412613e08565b610412613e0d565b610412613e13565b610412613e18565b610412613e28565b610a4b613e34565b60408051602080825283518183015283519192839290830191858101910280838360005b83811015610a87578181015183820152602001610a6f565b505050509050019250505060405180910390f35b6104f16004803603610120811015610ab257600080fd5b6001600160a01b038235811692602081013590911691810190606081016040820135640100000000811115610ae657600080fd5b820183602082011115610af857600080fd5b80359060200191846020830284011164010000000083111715610b1a57600080fd5b9193509150803515159060208101351515906040810190608001613f36565b6104126141ab565b610a4b6141b0565b610412614204565b61041261420a565b6104f160048036036040811015610b6f57600080fd5b506001600160a01b038135169060200135614210565b61041260048036036040811015610b9b57600080fd5b506001600160a01b0381358116916020013516614291565b6104126142bc565b61042c6142cc565b61041260048036036020811015610bd957600080fd5b50356001600160a01b03166142db565b61041260048036036020811015610bff57600080fd5b50356001600160a01b03166143be565b61041260048036036020811015610c2557600080fd5b50356001600160a01b03166143d0565b61055560048036036020811015610c4b57600080fd5b50356001600160a01b03166144a1565b6104f16146b1565b600c54600090610100900460ff1615610cb75760408051600160e51b62461bcd02815260206004820152600b6024820152600160a81b6a4552525f5245454e54525902604482015290519081900360640190fd5b600c805461ff001916610100179055601154600160a01b900460ff16610d155760408051600160e51b62461bcd0281526020600482015260116024820152600080516020615ecc833981519152604482015290519081900360640190fd5b6001600160a01b03841660009081526013602052604090205460ff16610d735760408051600160e51b62461bcd02815260206004820152600d6024820152600080516020615f4c833981519152604482015290519081900360640190fd5b6001600160a01b0384166000908152601360205260409020600390810154610da891670de0b6b3a76400005b046001016146c1565b831115610df65760408051600160e51b62461bcd0281526020600482015260116024820152600160781b704552525f4d41585f4f55545f524154494f02604482015290519081900360640190fd5b600e546001600160a01b039081166000818152601360205260408120909283929088161415610e3257600f546001600160a01b03169150610e57565b5050600e54600f546001600160a01b0390811660009081526013602052604090209116905b6001600160a01b038716600090815260136020526040902060038101546002820154600954601454610e8c939291908b614796565b945084610ed15760408051600160e51b62461bcd02815260206004820152600f6024820152600080516020615f8c833981519152604482015290519081900360640190fd5b85851115610f1b5760408051600160e51b62461bcd02815260206004820152600c6024820152600160a11b6b22a9292fa624a6a4aa2fa4a702604482015290519081900360640190fd5b610f2981600301548861485a565b60038201556000610f3a86826146c1565b604080518a815242602082015281519293506001600160a01b038c16923392600080516020615eec833981519152928290030190a3604080518781529051600080516020615f0c8339815191529181900360200190a1610f9a33876148cb565b610fac610fa7878361485a565b6148d9565b600c54610fc8906201000090046001600160a01b0316826148e5565b610fd389338a6148ef565b6000610fee846003015485600201546009546014548b6149ce565b601554600e5460408051600160e01b63efd481030281526001600160a01b039283166004820152898316602482015260448101859052905193945091169163efd4810391606480820192602092909190829003018186803b15801561105257600080fd5b505afa158015611066573d6000803e3d6000fd5b505050506040513d602081101561107c57600080fd5b50511515600114156111b65761109684600301548261485a565b60038501556110a68760006146c1565b600d546040805184815242602082015281519395506001600160a01b03808a1694931692600080516020615eec833981519152929181900390910190a3600d546110f9906001600160a01b0316886148cb565b611106610fa7888461485a565b600c54611122906201000090046001600160a01b0316836148e5565b600d5461113a9086906001600160a01b0316836148ef565b601554600e5460408051600160e11b63679346f50281526001600160a01b0392831660048201528883166024820152604481018590529051919092169163cf268dea91606480830192600092919082900301818387803b15801561119d57600080fd5b505af11580156111b1573d6000803e3d6000fd5b505050505b505050505050600c805461ff00191690559392505050565b600e546001600160a01b031690565b600a8054604080516020601f60026000196101006001881615020190951694909404938401819004810282018101909252828152606093909290918301828280156112695780601f1061123e57610100808354040283529160200191611269565b820191906000526020600020905b81548152906001019060200180831161124c57829003601f168201915b5050505050905090565b3360008181526008602090815260408083206001600160a01b03871680855290835281842086905581518681529151939490939092600080516020615f6c833981519152928290030190a35060015b92915050565b6802b5e3af16b188000081565b600d546001600160a01b031633146113375760408051600160e51b62461bcd02815260206004820152601660248201527f4552525f494e56414c49445f434f4e54524f4c4c455200000000000000000000604482015290519081900360640190fd5b600e546001600160a01b0387811691161461139c5760408051600160e51b62461bcd02815260206004820152601d60248201527f4552525f494e56414c49445f44415441544f4b454e5f41444452455353000000604482015290519081900360640190fd5b600f546001600160a01b038481169116146114015760408051600160e51b62461bcd02815260206004820152601d60248201527f4552525f494e56414c49445f42415345544f4b454e5f41444452455353000000604482015290519081900360640190fd5b61140c868686614a9d565b6040805186815242602082015281516001600160a01b038916923392600080516020615f2c833981519152929081900390910190a361144c838383614a9d565b6040805183815242602082015281516001600160a01b038616923392600080516020615f2c833981519152929081900390910190a3611489614cc7565b505050505050565b600c54600090610100900460ff16156114e55760408051600160e51b62461bcd02815260206004820152600b6024820152600160a81b6a4552525f5245454e54525902604482015290519081900360640190fd5b6001600160a01b03831660009081526013602052604090205460ff166115435760408051600160e51b62461bcd02815260206004820152600d6024820152600080516020615f4c833981519152604482015290519081900360640190fd5b6001600160a01b03821660009081526013602052604090205460ff166115a15760408051600160e51b62461bcd02815260206004820152600d6024820152600080516020615f4c833981519152604482015290519081900360640190fd5b6001600160a01b038084166000908152601360205260408082209285168252902060038083015460028085015492840154908401546115e1939190614d14565b95945050505050565b60095490565b6402540be400670de0b6b3a76400005b0481565b670de0b6b3a764000081565b6000336001600160a01b038516148061164c57506001600160a01b03841660009081526008602090815260408083203384529091529020548211155b6116a05760408051600160e51b62461bcd02815260206004820152601560248201527f4552525f42544f4b454e5f4241445f43414c4c45520000000000000000000000604482015290519081900360640190fd5b6116ab848484614d87565b336001600160a01b038516148015906116e957506001600160a01b038416600090815260086020908152604080832033845290915290205460001914155b1561176b576001600160a01b038416600090815260086020908152604080832033845290915290205461171c908361485a565b6001600160a01b0385811660009081526008602090815260408083203380855290835292819020859055805194855251928716939192600080516020615f6c8339815191529281900390910190a35b5060019392505050565b6001600160a01b031660009081526013602052604090205460ff1690565b60036020526000908152604090205481565b600d546001600160a01b031690565b600c5460ff1690565b60056020526000908152604090205481565b601154600160a01b900460ff16156118275760408051600160e51b62461bcd0281526020600482015260106024820152600160821b6f11549497d254d7d1925390531256915102604482015290519081900360640190fd5b600d546001600160a01b031633146118815760408051600160e51b62461bcd0281526020600482015260126024820152600160711b7122a9292fa727aa2fa1a7a72a2927a62622a902604482015290519081900360640190fd5b64e8d4a510008110156118cf5760408051600160e51b62461bcd02815260206004820152600b6024820152600160a81b6a4552525f4d494e5f46454502604482015290519081900360640190fd5b67016345785d8a00008111156119205760408051600160e51b62461bcd02815260206004820152600b6024820152600160a81b6a4552525f4d41585f46454502604482015290519081900360640190fd5b600255565b601554600160a01b900460ff1690565b600c54600090610100900460ff16156119895760408051600160e51b62461bcd02815260206004820152600b6024820152600160a81b6a4552525f5245454e54525902604482015290519081900360640190fd5b600c805461ff001916610100179055601154600160a01b900460ff166119e75760408051600160e51b62461bcd0281526020600482015260116024820152600080516020615ecc833981519152604482015290519081900360640190fd5b6001600160a01b03841660009081526013602052604090205460ff16611a455760408051600160e51b62461bcd02815260206004820152600d6024820152600080516020615f4c833981519152604482015290519081900360640190fd5b6001600160a01b038416600090815260136020526040902060038101546002820154600954601454611a7a93929190886149ce565b915082821015611ac75760408051600160e51b62461bcd02815260206004820152600d60248201526001609a1b6c11549497d31253525517d3d55502604482015290519081900360640190fd5b6001600160a01b0385166000908152601360205260409020600390810154611af791670de0b6b3a7640000610d9f565b821115611b455760408051600160e51b62461bcd0281526020600482015260116024820152600160781b704552525f4d41585f4f55545f524154494f02604482015290519081900360640190fd5b600e546001600160a01b039081166000818152601360205260408120909290919088161415611b8157600f546001600160a01b03169150611ba6565b5050600e54600f546001600160a01b0390811660009081526013602052604090209116905b611bb483600301548561485a565b60038401556000611bc587826146c1565b6040805187815242602082015281519293506001600160a01b038b16923392600080516020615eec833981519152928290030190a3604080518881529051600080516020615f0c8339815191529181900360200190a1611c2533886148cb565b611c32610fa7888361485a565b600c54611c4e906201000090046001600160a01b0316826148e5565b611c598833876148ef565b6000611c74836003015484600201546009546014548c6149ce565b601554600e5460408051600160e01b63efd481030281526001600160a01b039283166004820152888316602482015260448101859052905193945091169163efd4810391606480820192602092909190829003018186803b158015611cd857600080fd5b505afa158015611cec573d6000803e3d6000fd5b505050506040513d6020811015611d0257600080fd5b5051151560011415611e3c57611d1c83600301548261485a565b6003840155611d2c8860006146c1565b600d546040805184815242602082015281519395506001600160a01b0380891694931692600080516020615eec833981519152929181900390910190a3600d54611d7f906001600160a01b0316896148cb565b611d8c610fa7898461485a565b600c54611da8906201000090046001600160a01b0316836148e5565b600d54611dc09085906001600160a01b0316836148ef565b601554600e5460408051600160e11b63679346f50281526001600160a01b0392831660048201528783166024820152604481018590529051919092169163cf268dea91606480830192600092919082900301818387803b158015611e2357600080fd5b505af1158015611e37573d6000803e3d6000fd5b505050505b5050505050600c805461ff00191690559392505050565b60015481565b600f546001600160a01b031690565b600c54610100900460ff1615611eb95760408051600160e51b62461bcd02815260206004820152600b6024820152600160a81b6a4552525f5245454e54525902604482015290519081900360640190fd5b600c805461ff001916610100179055601154600160a01b900460ff16611f175760408051600160e51b62461bcd0281526020600482015260116024820152600080516020615ecc833981519152604482015290519081900360640190fd5b600080805b601254811015611fca57600e54601280546001600160a01b039092169183908110611f4357fe5b6000918252602090912001546001600160a01b03161415611f7457848482818110611f6a57fe5b9050602002013592505b600f54601280546001600160a01b039092169183908110611f9157fe5b6000918252602090912001546001600160a01b03161415611fc257848482818110611fb857fe5b9050602002013591505b600101611f1c565b506000611fd56115ea565b90506000611fe38783614ea5565b9050806120285760408051600160e51b62461bcd02815260206004820152600f6024820152600080516020615f8c833981519152604482015290519081900360640190fd5b60005b6012548110156121a55760006012828154811061204457fe5b60009182526020808320909101546001600160a01b0316808352601390915260408220600301549092509061207985836146c1565b9050806120be5760408051600160e51b62461bcd02815260206004820152600f6024820152600080516020615f8c833981519152604482015290519081900360640190fd5b8989858181106120ca57fe5b9050602002013581111561211a5760408051600160e51b62461bcd02815260206004820152600c6024820152600160a11b6b22a9292fa624a6a4aa2fa4a702604482015290519081900360640190fd5b6001600160a01b0383166000908152601360205260409020600301546121409082614fcd565b6001600160a01b0384166000818152601360209081526040918290206003019390935580518481524293810193909352805191923392600080516020615f2c833981519152929181900390910190a361219a83338361502a565b50505060010161202b565b506121af87615086565b6121b933886148e5565b604080518881529051600080516020615f0c8339815191529181900360200190a15050600c805461ff00191690555050505050565b600c54600090610100900460ff16156122425760408051600160e51b62461bcd02815260206004820152600b6024820152600160a81b6a4552525f5245454e54525902604482015290519081900360640190fd5b600c805461ff001916610100179055601154600160a01b900460ff166122a05760408051600160e51b62461bcd0281526020600482015260116024820152600080516020615ecc833981519152604482015290519081900360640190fd5b6001600160a01b03841660009081526013602052604090205460ff166122fe5760408051600160e51b62461bcd02815260206004820152600d6024820152600080516020615f4c833981519152604482015290519081900360640190fd5b6001600160a01b038416600090815260136020526040902060030154612330906002670de0b6b3a76400005b046146c1565b83111561237d5760408051600160e51b62461bcd0281526020600482015260106024820152600160801b6f4552525f4d41585f494e5f524154494f02604482015290519081900360640190fd5b600e546001600160a01b039081166000818152601360205260408120909290918391881614156123b95750600f546001600160a01b03166123de565b5050600f546001600160a01b039081166000908152601360205260409020600e549091165b6001600160a01b038716600090815260136020526040902060038101546002820154600954601454612413939291908b61508f565b9450858510156124605760408051600160e51b62461bcd02815260206004820152600d60248201526001609a1b6c11549497d31253525517d3d55502604482015290519081900360640190fd5b61246e816003015488614fcd565b60038201556040805188815242602082015281516001600160a01b038b16923392600080516020615f2c833981519152929081900390910190a3604080518681529051600080516020615f0c8339815191529181900360200190a16124d285615086565b6124dc33866148e5565b6124e788338961502a565b6000612502846003015485600201546009546014548a615124565b601554600e5460408051600160e01b6326b1f01f0281526001600160a01b03928316600482015287831660248201526044810185905290519394509116916326b1f01f91606480820192602092909190829003018186803b15801561256657600080fd5b505afa15801561257a573d6000803e3d6000fd5b505050506040513d602081101561259057600080fd5b5051151560011415611e3c57601554600e5460408051600160e01b6399039fcf0281526001600160a01b039283166004820152868316602482015260448101859052905191909216916399039fcf91606480830192600092919082900301818387803b1580156125ff57600080fd5b505af1158015612613573d6000803e3d6000fd5b50505050612625846003015482614fcd565b6003850155600d546040805183815242602082015281516001600160a01b03808816941692600080516020615f2c833981519152928290030190a3604080518781529051600080516020615f0c8339815191529181900360200190a161268a86615086565b600d546126a0906001600160a01b0316876148e5565b600d54611e3c9084906001600160a01b03168361502a565b3360009081526008602090815260408083206001600160a01b03861684529091528120548083111561270d573360009081526008602090815260408083206001600160a01b038816845290915281205561273c565b612717818461485a565b3360009081526008602090815260408083206001600160a01b03891684529091529020555b3360008181526008602090815260408083206001600160a01b038916808552908352928190205481519081529051929392600080516020615f6c833981519152929181900390910190a35060019392505050565b600c54600090610100900460ff16156127e45760408051600160e51b62461bcd02815260206004820152600b6024820152600160a81b6a4552525f5245454e54525902604482015290519081900360640190fd5b600c805461ff001916610100179055601154600160a01b900460ff166128425760408051600160e51b62461bcd0281526020600482015260116024820152600080516020615ecc833981519152604482015290519081900360640190fd5b6001600160a01b03841660009081526013602052604090205460ff166128a05760408051600160e51b62461bcd02815260206004820152600d6024820152600080516020615f4c833981519152604482015290519081900360640190fd5b6001600160a01b0384166000908152601360205260409020600381015460028201546009546014546128d59392919088615124565b600e546001600160a01b0390811660008181526013602052604081209395509291839190891614156129135750600f546001600160a01b0316612938565b5050600f546001600160a01b039081166000908152601360205260409020600e549091165b8461297b5760408051600160e51b62461bcd02815260206004820152600f6024820152600080516020615f8c833981519152604482015290519081900360640190fd5b858511156129c55760408051600160e51b62461bcd02815260206004820152600c6024820152600160a11b6b22a9292fa624a6a4aa2fa4a702604482015290519081900360640190fd5b6001600160a01b0388166000908152601360205260409020600301546129f5906002670de0b6b3a764000061232a565b851115612a425760408051600160e51b62461bcd0281526020600482015260106024820152600160801b6f4552525f4d41585f494e5f524154494f02604482015290519081900360640190fd5b612a50846003015486614fcd565b60038501556040805186815242602082015281516001600160a01b038b16923392600080516020615f2c833981519152929081900390910190a3604080518881529051600080516020615f0c8339815191529181900360200190a1612ab487615086565b612abe33886148e5565b612ac988338761502a565b6000612ae4836003015484600201546009546014548c615124565b601554600e5460408051600160e01b6326b1f01f0281526001600160a01b03928316600482015286831660248201526044810185905290519394509116916326b1f01f91606480820192602092909190829003018186803b158015612b4857600080fd5b505afa158015612b5c573d6000803e3d6000fd5b505050506040513d6020811015612b7257600080fd5b5051151560011415611e3c57601554600e5460408051600160e01b6399039fcf0281526001600160a01b039283166004820152858316602482015260448101859052905191909216916399039fcf91606480830192600092919082900301818387803b158015612be157600080fd5b505af1158015612bf5573d6000803e3d6000fd5b50505050612c07836003015482614fcd565b6003840155600d546040805183815242602082015281516001600160a01b03808716941692600080516020615f2c833981519152928290030190a3612c4b88615086565b600d54612c61906001600160a01b0316896148e5565b600d54611e3c9083906001600160a01b03168361502a565b6010546001600160a01b03163314612cdb5760408051600160e51b62461bcd02815260206004820152601560248201527f4f4e4c59204d41524b455420434f4c4c4543544f520000000000000000000000604482015290519081900360640190fd5b601080546001600160a01b0319166001600160a01b0392909216919091179055565b6001600160a01b031660009081526007602052604090205490565b620f4240670de0b6b3a7640000611600565b600c546000908190610100900460ff1615612d805760408051600160e51b62461bcd02815260206004820152600b6024820152600160a81b6a4552525f5245454e54525902604482015290519081900360640190fd5b600c805461ff001916610100179055601154600160a01b900460ff16612dde5760408051600160e51b62461bcd0281526020600482015260116024820152600080516020615ecc833981519152604482015290519081900360640190fd5b6001600160a01b03871660009081526013602052604090205460ff16612e3c5760408051600160e51b62461bcd02815260206004820152600d6024820152600080516020615f4c833981519152604482015290519081900360640190fd5b6001600160a01b03851660009081526013602052604090205460ff16612e9a5760408051600160e51b62461bcd02815260206004820152600d6024820152600080516020615f4c833981519152604482015290519081900360640190fd5b6001600160a01b0380881660009081526013602052604080822092881682529020600380820154612ed391670de0b6b3a7640000610d9f565b861115612f215760408051600160e51b62461bcd0281526020600482015260116024820152600160781b704552525f4d41585f4f55545f524154494f02604482015290519081900360640190fd5b6000612f3f8360030154846002015484600301548560020154614d14565b905085811115612f995760408051600160e51b62461bcd02815260206004820152601360248201527f4552525f4241445f4c494d49545f505249434500000000000000000000000000604482015290519081900360640190fd5b6000612fa3615ead565b604051806080016040528086600301548152602001866002015481526020018560030154815260200185600201548152509050612fe1818a8e6151be565b90975091508a8711156130305760408051600160e51b62461bcd02815260206004820152600c6024820152600160a11b6b22a9292fa624a6a4aa2fa4a702604482015290519081900360640190fd5b61303e856003015483614fcd565b856003018190555061305484600301548a61485a565b6003808601829055860154600280880154908701546130739390614d14565b9550828610156130bb5760408051600160e51b62461bcd02815260206004820152600f6024820152600080516020615f8c833981519152604482015290519081900360640190fd5b878611156131085760408051600160e51b62461bcd02815260206004820152600f6024820152600160881b6e4552525f4c494d49545f505249434502604482015290519081900360640190fd5b613112878a614ea5565b8311156131575760408051600160e51b62461bcd02815260206004820152600f6024820152600080516020615f8c833981519152604482015290519081900360640190fd5b60408051888152602081018b9052428183015290516001600160a01b03808d1692908f169133917f50ef2fc267012b5c84b56835f16ffd5331ac5a151a3760d74908721ba78b0efe919081900360600190a46131b48c338961502a565b6131bf8a338b6148ef565b5050505050600c805461ff001916905590969095509350505050565b60046020526000908152604090205481565b600c546000908190610100900460ff16156132435760408051600160e51b62461bcd02815260206004820152600b6024820152600160a81b6a4552525f5245454e54525902604482015290519081900360640190fd5b600c805461ff001916610100179055601154600160a01b900460ff166132a15760408051600160e51b62461bcd0281526020600482015260116024820152600080516020615ecc833981519152604482015290519081900360640190fd5b6001600160a01b03871660009081526013602052604090205460ff166132ff5760408051600160e51b62461bcd02815260206004820152600d6024820152600080516020615f4c833981519152604482015290519081900360640190fd5b6001600160a01b03851660009081526013602052604090205460ff1661335d5760408051600160e51b62461bcd02815260206004820152600d6024820152600080516020615f4c833981519152604482015290519081900360640190fd5b6001600160a01b03808816600090815260136020526040808220928816825290206003820154613397906002670de0b6b3a764000061232a565b8811156133e45760408051600160e51b62461bcd0281526020600482015260106024820152600160801b6f4552525f4d41585f494e5f524154494f02604482015290519081900360640190fd5b60006134028360030154846002015484600301548560020154614d14565b90508581111561345c5760408051600160e51b62461bcd02815260206004820152601360248201527f4552525f4241445f4c494d49545f505249434500000000000000000000000000604482015290519081900360640190fd5b61347a83600301548460020154846003015485600201548d8f6153d7565b9450868510156134c75760408051600160e51b62461bcd02815260206004820152600d60248201526001609a1b6c11549497d31253525517d3d55502604482015290519081900360640190fd5b6134d583600301548a614fcd565b83600301819055506134eb82600301548661485a565b60038084018290558401546002808601549085015461350a9390614d14565b9350808410156135525760408051600160e51b62461bcd02815260206004820152600f6024820152600080516020615f8c833981519152604482015290519081900360640190fd5b8584111561359f5760408051600160e51b62461bcd02815260206004820152600f6024820152600160881b6e4552525f4c494d49545f505249434502604482015290519081900360640190fd5b6135a98986614ea5565b8111156135ee5760408051600160e51b62461bcd02815260206004820152600f6024820152600080516020615f8c833981519152604482015290519081900360640190fd5b604080518a815260208101879052428183015290516001600160a01b03808b1692908d169133917f50ef2fc267012b5c84b56835f16ffd5331ac5a151a3760d74908721ba78b0efe919081900360600190a461364b8a338b61502a565b6136568833876148ef565b505050600c805461ff001916905590969095509350505050565b64e8d4a51000670de0b6b3a7640000611600565b601154600160a01b900460ff1690565b6011546001600160a01b031633146136e45760408051600160e51b62461bcd0281526020600482015260086024820152600160c11b6727a7262c9027a82302604482015290519081900360640190fd5b60606136ee613e34565b905060005b81518110156138925760006004600084848151811061370e57fe5b60200260200101516001600160a01b03166001600160a01b03168152602001908152602001600020546003600085858151811061374757fe5b60200260200101516001600160a01b03166001600160a01b0316815260200190815260200160002054039050806004600085858151811061378457fe5b60200260200101516001600160a01b03166001600160a01b031681526020019081526020016000205401600460008585815181106137be57fe5b60200260200101516001600160a01b03166001600160a01b03168152602001908152602001600020819055508282815181106137f657fe5b60200260200101516001600160a01b031663a9059cbb85836040518363ffffffff1660e01b815260040180836001600160a01b03166001600160a01b0316815260200182815260200192505050602060405180830381600087803b15801561385d57600080fd5b505af1158015613871573d6000803e3d6000fd5b505050506040513d602081101561388757600080fd5b5050506001016136f3565b505050565b600c54600090610100900460ff16156138eb5760408051600160e51b62461bcd02815260206004820152600b6024820152600160a81b6a4552525f5245454e54525902604482015290519081900360640190fd5b5060145490565b68056bc75e2d6310000081565b600c54600090610100900460ff16156139535760408051600160e51b62461bcd02815260206004820152600b6024820152600160a81b6a4552525f5245454e54525902604482015290519081900360640190fd5b6001600160a01b03821660009081526013602052604090205460ff166139b15760408051600160e51b62461bcd02815260206004820152600d6024820152600080516020615f4c833981519152604482015290519081900360640190fd5b506001600160a01b031660009081526013602052604090206002015490565b600b8054604080516020601f60026000196101006001881615020190951694909404938401819004810282018101909252828152606093909290918301828280156112695780601f1061123e57610100808354040283529160200191611269565b6704a03ce68d21555681565b6010546001600160a01b031681565b6000613a59338484614d87565b50600192915050565b600c54610100900460ff1615613ab35760408051600160e51b62461bcd02815260206004820152600b6024820152600160a81b6a4552525f5245454e54525902604482015290519081900360640190fd5b600c805461ff001916610100179055601154600160a01b900460ff16613b115760408051600160e51b62461bcd0281526020600482015260116024820152600080516020615ecc833981519152604482015290519081900360640190fd5b600080805b601254811015613bc457600e54601280546001600160a01b039092169183908110613b3d57fe5b6000918252602090912001546001600160a01b03161415613b6e57848482818110613b6457fe5b9050602002013592505b600f54601280546001600160a01b039092169183908110613b8b57fe5b6000918252602090912001546001600160a01b03161415613bbc57848482818110613bb257fe5b9050602002013591505b600101613b16565b506000613bcf6115ea565b90506000613bde8760006146c1565b90506000613bec888361485a565b90506000613bfa8285614ea5565b905080613c3f5760408051600160e51b62461bcd02815260206004820152600f6024820152600080516020615f8c833981519152604482015290519081900360640190fd5b613c49338a6148cb565b600c54613c65906201000090046001600160a01b0316846148e5565b613c6e826148d9565b60005b601254811015613dec57600060128281548110613c8a57fe5b60009182526020808320909101546001600160a01b03168083526013909152604082206003015490925090613cbf85836146c1565b905080613d045760408051600160e51b62461bcd02815260206004820152600f6024820152600080516020615f8c833981519152604482015290519081900360640190fd5b8b8b85818110613d1057fe5b90506020020135811015613d615760408051600160e51b62461bcd02815260206004820152600d60248201526001609a1b6c11549497d31253525517d3d55502604482015290519081900360640190fd5b6001600160a01b038316600090815260136020526040902060030154613d87908261485a565b6001600160a01b0384166000818152601360209081526040918290206003019390935580518481524293810193909352805191923392600080516020615eec833981519152929181900390910190a3613de18333836148ef565b505050600101613c71565b5050600c805461ff00191690555050505050505050565b600881565b600281565b60005481565b600181565b600a670de0b6b3a7640000611600565b671bc16d674ec7ffff81565b600c54606090610100900460ff1615613e885760408051600160e51b62461bcd02815260206004820152600b6024820152600160a81b6a4552525f5245454e54525902604482015290519081900360640190fd5b601154600160a01b900460ff16613ed75760408051600160e51b62461bcd0281526020600482015260116024820152600080516020615ecc833981519152604482015290519081900360640190fd5b601280548060200260200160405190810160405280929190818152602001828054801561126957602002820191906000526020600020905b81546001600160a01b03168152600190910190602001808311613f0f575050505050905090565b601554600090600160a01b900460ff1615613f9b5760408051600160e51b62461bcd02815260206004820152601760248201527f4552525f414c52454144595f494e495449414c495a4544000000000000000000604482015290519081900360640190fd5b6001600160a01b038916613ff95760408051600160e51b62461bcd02815260206004820152601e60248201527f4552525f494e56414c49445f434f4e54524f4c4c45525f414444524553530000604482015290519081900360640190fd5b6001600160a01b0388166140575760408051600160e51b62461bcd02815260206004820152601b60248201527f4552525f494e56414c49445f464143544f52595f414444524553530000000000604482015290519081900360640190fd5b64e8d4a51000878760008161406857fe5b9050602002013510156140b65760408051600160e51b62461bcd02815260206004820152600b6024820152600160a81b6a4552525f4d494e5f46454502604482015290519081900360640190fd5b67016345785d8a000087876000816140ca57fe5b9050602002013511156141185760408051600160e51b62461bcd02815260206004820152600b6024820152600160a81b6a4552525f4d41585f46454502604482015290519081900360640190fd5b61419e8989898980806020026020016040519081016040528093929190818152602001838360200280828437600092019190915250506040805180820182528c93508b9250908a9060029083908390808284376000920191909152505060408051808201825291508a906002908390839080828437600092019190915250615589915050565b9998505050505050505050565b600081565b600c54606090610100900460ff1615613ed75760408051600160e51b62461bcd02815260206004820152600b6024820152600160a81b6a4552525f5245454e54525902604482015290519081900360640190fd5b60125490565b60025490565b3360009081526008602090815260408083206001600160a01b038616845290915281205461423e9083614fcd565b3360008181526008602090815260408083206001600160a01b038916808552908352928190208590558051948552519193600080516020615f6c833981519152929081900390910190a350600192915050565b6001600160a01b03918216600090815260086020908152604080832093909416825291909152205490565b6002670de0b6b3a7640000611600565b6011546001600160a01b031681565b600c54600090610100900460ff161561432f5760408051600160e51b62461bcd02815260206004820152600b6024820152600160a81b6a4552525f5245454e54525902604482015290519081900360640190fd5b6001600160a01b03821660009081526013602052604090205460ff1661438d5760408051600160e51b62461bcd02815260206004820152600d6024820152600080516020615f4c833981519152604482015290519081900360640190fd5b6001600160a01b0382166000908152601360205260409020600201546014546143b7908290614ea5565b9392505050565b60066020526000908152604090205481565b600c54600090610100900460ff16156144245760408051600160e51b62461bcd02815260206004820152600b6024820152600160a81b6a4552525f5245454e54525902604482015290519081900360640190fd5b6001600160a01b03821660009081526013602052604090205460ff166144825760408051600160e51b62461bcd02815260206004820152600d6024820152600080516020615f4c833981519152604482015290519081900360640190fd5b506001600160a01b031660009081526013602052604090206003015490565b6010546001600160a01b031633146145035760408051600160e51b62461bcd02815260206004820152601560248201527f4f4e4c59204d41524b455420434f4c4c4543544f520000000000000000000000604482015290519081900360640190fd5b606061450d613e34565b905060005b81518110156138925760006006600084848151811061452d57fe5b60200260200101516001600160a01b03166001600160a01b03168152602001908152602001600020546005600085858151811061456657fe5b60200260200101516001600160a01b03166001600160a01b031681526020019081526020016000205403905080600660008585815181106145a357fe5b60200260200101516001600160a01b03166001600160a01b031681526020019081526020016000205401600660008585815181106145dd57fe5b60200260200101516001600160a01b03166001600160a01b031681526020019081526020016000208190555082828151811061461557fe5b60200260200101516001600160a01b031663a9059cbb85836040518363ffffffff1660e01b815260040180836001600160a01b03166001600160a01b0316815260200182815260200192505050602060405180830381600087803b15801561467c57600080fd5b505af1158015614690573d6000803e3d6000fd5b505050506040513d60208110156146a657600080fd5b505050600101614512565b600d54600160a01b900460ff1690565b60008282028315806146db5750828482816146d857fe5b04145b6147255760408051600160e51b62461bcd0281526020600482015260106024820152600160801b6f4552525f4d554c5f4f564552464c4f5702604482015290519081900360640190fd5b6706f05b59d3b2000081018181101561477e5760408051600160e51b62461bcd0281526020600482015260106024820152600160801b6f4552525f4d554c5f4f564552464c4f5702604482015290519081900360640190fd5b6000670de0b6b3a7640000825b049695505050505050565b6000806147a38685614ea5565b905060006147b9670de0b6b3a76400008361485a565b905060006147c9826002546146c1565b905060006147e8866147e3670de0b6b3a76400008561485a565b614ea5565b905060006147f68b8361485a565b90506000614804828d614ea5565b905060006148128288615730565b90506000614820828d6146c1565b9050600061482e8d8361485a565b9050614847816147e3670de0b6b3a7640000600061485a565b9f9e505050505050505050505050505050565b60008060006148698585615853565b9150915080156148c35760408051600160e51b62461bcd02815260206004820152601160248201527f4552525f5355425f554e444552464c4f57000000000000000000000000000000604482015290519081900360640190fd5b509392505050565b6148d58282615878565b5050565b6148e281615883565b50565b6148d5828261595f565b60408051600160e01b63a9059cbb0281526001600160a01b03848116600483015260248201849052915160009286169163a9059cbb91604480830192602092919082900301818787803b15801561494557600080fd5b505af1158015614959573d6000803e3d6000fd5b505050506040513d602081101561496f57600080fd5b50519050806149c85760408051600160e51b62461bcd02815260206004820152600f60248201527f4552525f45524332305f46414c53450000000000000000000000000000000000604482015290519081900360640190fd5b50505050565b6000806149db8685614ea5565b905060006149fb846149f6670de0b6b3a7640000600061485a565b6146c1565b90506000614a09878361485a565b90506000614a178289614ea5565b90506000614a3682614a31670de0b6b3a764000088614ea5565b615730565b90506000614a44828d6146c1565b90506000614a528d8361485a565b90506000614a73614a6b670de0b6b3a76400008a61485a565b6002546146c1565b9050614a8b826149f6670de0b6b3a76400008461485a565b9e9d5050505050505050505050505050565b600d546001600160a01b03163314614af75760408051600160e51b62461bcd0281526020600482015260126024820152600160711b7122a9292fa727aa2fa1a7a72a2927a62622a902604482015290519081900360640190fd5b6001600160a01b03831660009081526013602052604090205460ff1615614b685760408051600160e51b62461bcd02815260206004820152600c60248201527f4552525f49535f424f554e440000000000000000000000000000000000000000604482015290519081900360640190fd5b601154600160a01b900460ff1615614bc05760408051600160e51b62461bcd0281526020600482015260106024820152600160821b6f11549497d254d7d1925390531256915102604482015290519081900360640190fd5b601254600811614c1a5760408051600160e51b62461bcd02815260206004820152600e60248201527f4552525f4d41585f544f4b454e53000000000000000000000000000000000000604482015290519081900360640190fd5b6040805160808101825260018082526012805460208085019182526000858701818152606087018281526001600160a01b038c1680845260139094529782209651875460ff1916901515178755925186860155915160028601559451600390940193909355805491820181559091527fbb8a6a4669ba250d26cd7a459eca9d215f8307e33aebe50379bc5a3617ec34440180546001600160a01b031916909117905561389283838361596a565b60118054600160a01b600160a01b60ff02199182168117909255600d80549091169091179055614cff68056bc75e2d63100000615086565b614d123368056bc75e2d631000006148e5565b565b600080614d218686614ea5565b90506000614d2f8585614ea5565b90506000614d3d8383614ea5565b905060008054600154600254010190506000614d6d670de0b6b3a76400006147e3670de0b6b3a76400008561485a565b9050614d7983826146c1565b9a9950505050505050505050565b6001600160a01b038316600090815260076020526040902054811115614df75760408051600160e51b62461bcd02815260206004820152601460248201527f4552525f494e53554646494349454e545f42414c000000000000000000000000604482015290519081900360640190fd5b6001600160a01b038316600090815260076020526040902054614e1a908261485a565b6001600160a01b038085166000908152600760205260408082209390935590841681522054614e499082614fcd565b6001600160a01b0380841660008181526007602090815260409182902094909455805185815290519193928716927fddf252ad1be2c89b69c2b068fc378daa952ba7f163c4a11628f55a4df523b3ef92918290030190a3505050565b600081614efc5760408051600160e51b62461bcd02815260206004820152600c60248201527f4552525f4449565f5a45524f0000000000000000000000000000000000000000604482015290519081900360640190fd5b670de0b6b3a76400008302831580614f245750670de0b6b3a7640000848281614f2157fe5b04145b614f6e5760408051600160e51b62461bcd0281526020600482015260106024820152600160821b6f11549497d1125597d25395115493905302604482015290519081900360640190fd5b60028304810181811015614fc25760408051600160e51b62461bcd0281526020600482015260106024820152600160821b6f11549497d1125597d25395115493905302604482015290519081900360640190fd5b600084828161478b57fe5b6000828201838110156143b75760408051600160e51b62461bcd02815260206004820152601060248201527f4552525f4144445f4f564552464c4f5700000000000000000000000000000000604482015290519081900360640190fd5b60408051600160e01b6323b872dd0281526001600160a01b0384811660048301523060248301526044820184905291516000928616916323b872dd91606480830192602092919082900301818787803b15801561494557600080fd5b6148e281615bef565b60008061509c8685614ea5565b905060006150b5614a6b670de0b6b3a76400008461485a565b905060006150cf856149f6670de0b6b3a76400008561485a565b905060006150dd8a83614fcd565b905060006150eb828c614ea5565b905060006150f98287615730565b90506000615107828c6146c1565b9050615113818c61485a565b9d9c50505050505050505050505050565b6000806151318685614ea5565b9050600061513f8685614fcd565b9050600061514d8288614ea5565b90506000615163670de0b6b3a764000085614ea5565b905060006151718383615730565b9050600061517f828d6146c1565b9050600061518d828e61485a565b905060006151a6614a6b670de0b6b3a76400008a61485a565b9050614a8b826147e3670de0b6b3a76400008461485a565b600080806151da86600360200201518760016020020151614ea5565b905060006151ef87600260200201518761485a565b90506000615204886002602002015183614ea5565b905060006152128285615730565b905061522681670de0b6b3a764000061485a565b90506000600154600054600254010190506152676152558b60006004811061524a57fe5b6020020151846146c1565b6147e3670de0b6b3a76400008461485a565b9650600061528c886152878a6149f6670de0b6b3a764000060005461485a565b61485a565b6001600160a01b038a166000908152600360205260409020549091506152b29082614fcd565b600360008b6001600160a01b03166001600160a01b031681526020019081526020016000208190555060006152f9896152878b6149f6670de0b6b3a764000060015461485a565b6001600160a01b038b1660009081526005602052604090205490915061531f9082614fcd565b6001600160a01b038b166000908152600560205260409020558b5161535c9061534890866146c1565b6147e3670de0b6b3a764000060025461485a565b97507f90d9f1d0641138b6407ac37bea3a905d63a371c2d91a484f68d59924634d4ef361539b8a6152878c6149f6670de0b6b3a764000060025461485a565b60408051918252602082018590528181018490526001600160a01b038d166060830152519081900360800190a150505050505050935093915050565b6000806153e48786614ea5565b9050600061540485615287876149f6670de0b6b3a764000060005461485a565b6001600160a01b03851660009081526003602052604090205490915061542a9082614fcd565b60036000866001600160a01b03166001600160a01b0316815260200190815260200160002081905550600061547186615287886149f6670de0b6b3a764000060015461485a565b6001600160a01b0386166000908152600560205260409020549091506154979082614fcd565b6001600160a01b0386166000908152600560205260409020556002548083018201907f90d9f1d0641138b6407ac37bea3a905d63a371c2d91a484f68d59924634d4ef3906154fa9089906152879082906149f690670de0b6b3a76400009061485a565b60408051918252602082018690528181018590526001600160a01b0389166060830152519081900360800190a1600061553b670de0b6b3a76400008361485a565b905061554788826146c1565b905060006155598d6147e38f85614fcd565b905060006155678288615730565b9050600061557d670de0b6b3a76400008361485a565b90506148478d826146c1565b600d80546001600160a01b0319166001600160a01b0389811691909117909155600c805462010000600160b01b03191662010000928916929092029190911790558451600090869082906155d957fe5b6020026020010151600281905550615652866000815181106155f757fe5b60200260200101518760018151811061560c57fe5b60200260200101518860028151811061562157fe5b6020026020010151604051806040016040528060088152602001600160c01b67737761704665657302815250615c64565b8560018151811061565f57fe5b60200260200101516000819055508560028151811061567a57fe5b602090810291909101810151600155600d8054961515600160a01b908102600160a01b60ff02199889161791829055601180548751600e80546001600160a01b03199081166001600160a01b039384161790915598860151600f80548b169183169190911790558751601080548b169183169190911790559690940151861697151582029389169390931786169690961790915560158054909616851790931691909216179283905550900460ff169392505050565b6000600183101561578b5760408051600160e51b62461bcd02815260206004820152601560248201527f4552525f42504f575f424153455f544f4f5f4c4f570000000000000000000000604482015290519081900360640190fd5b671bc16d674ec7ffff8311156157eb5760408051600160e51b62461bcd02815260206004820152601660248201527f4552525f42504f575f424153455f544f4f5f4849474800000000000000000000604482015290519081900360640190fd5b60006157f683615d25565b90506000615804848361485a565b9050600061581a8661581585615d40565b615d4e565b90508161582b5792506112c2915050565b600061583c87846305f5e100615dae565b905061584882826146c1565b979650505050505050565b6000808284106158695750508082036000615871565b505081810360015b9250929050565b6148d5823083614d87565b306000908152600760205260409020548111156158ea5760408051600160e51b62461bcd02815260206004820152601460248201527f4552525f494e53554646494349454e545f42414c000000000000000000000000604482015290519081900360640190fd5b30600090815260076020526040902054615904908261485a565b30600090815260076020526040902055600954615921908261485a565b60095560408051828152905160009130917fddf252ad1be2c89b69c2b068fc378daa952ba7f163c4a11628f55a4df523b3ef9181900360200190a350565b6148d5308383614d87565b670de0b6b3a76400008110156159ca5760408051600160e51b62461bcd02815260206004820152600e60248201527f4552525f4d494e5f574549474854000000000000000000000000000000000000604482015290519081900360640190fd5b6802b5e3af16b1880000811115615a2b5760408051600160e51b62461bcd02815260206004820152600e60248201527f4552525f4d41585f574549474854000000000000000000000000000000000000604482015290519081900360640190fd5b620f4240821015615a865760408051600160e51b62461bcd02815260206004820152600f60248201527f4552525f4d494e5f42414c414e43450000000000000000000000000000000000604482015290519081900360640190fd5b6001600160a01b03831660009081526013602052604090206002015480821115615b2957615abf601454615aba848461485a565b614fcd565b60148190556802b5e3af16b18800001015615b245760408051600160e51b62461bcd02815260206004820152601460248201527f4552525f4d41585f544f54414c5f574549474854000000000000000000000000604482015290519081900360640190fd5b615b45565b80821015615b4557615b41601454615287838561485a565b6014555b6001600160a01b03841660009081526013602052604090206002810183905560030180549084905580841115615b8e57615b898533615b84878561485a565b61502a565b615be8565b80841015615be8576000615ba2828661485a565b90506000615bb18260006146c1565b9050615bc78733615bc2858561485a565b6148ef565b600c54615be59088906201000090046001600160a01b0316836148ef565b50505b5050505050565b30600090815260076020526040902054615c099082614fcd565b30600090815260076020526040902055600954615c269082614fcd565b60095560408051828152905130916000917fddf252ad1be2c89b69c2b068fc378daa952ba7f163c4a11628f55a4df523b3ef9181900360200190a350565b6149c8848484846040516024018085815260200184815260200183815260200180602001828103825283818151815260200191508051906020019080838360005b83811015615cbd578181015183820152602001615ca5565b50505050905090810190601f168015615cea5780820380516001836020036101000a031916815260200191505b5060408051601f198184030181529190526020810180516001600160e01b0316600160e21b631e2b5e83021790529550615e8c945050505050565b6000670de0b6b3a7640000615d3983615d40565b0292915050565b670de0b6b3a7640000900490565b6000828160028406615d6857670de0b6b3a7640000615d6a565b815b90506002840493505b8315615da657615d8382836146c1565b91506002840615615d9b57615d9881836146c1565b90505b600284049350615d73565b949350505050565b6000828180615dc587670de0b6b3a7640000615853565b9092509050670de0b6b3a764000080600060015b888410615e7d576000670de0b6b3a764000082029050600080615e0d8a615e0885670de0b6b3a764000061485a565b615853565b91509150615e1f876149f6848c6146c1565b9650615e2b8784614ea5565b965086615e3a57505050615e7d565b8715615e44579315935b8015615e4e579315935b8415615e6557615e5e868861485a565b9550615e72565b615e6f8688614fcd565b95505b505050600101615dd9565b50909998505050505050505050565b80516a636f6e736f6c652e6c6f67602083016000808483855afa5050505050565b6040518060800160405280600490602082028038833950919291505056fe4552525f4e4f545f46494e414c495a45440000000000000000000000000000009d9058fd2f25ccc389fec7720abef0ca83472f5abfafd5f10d37f51e6a0493f3fcda32798d5a9d032f49b37fea876d422f18f6e386e0f07db6029b693624b2c215a8ca63e37b2cff1677df2b6b82d36fcf8a524228bd7a4b4d02d107c28c1e8a4552525f4e4f545f424f554e44000000000000000000000000000000000000008c5be1e5ebec7d5bd14f71427d1e84f3dd0314c0f7b2291e5b200ac8c7c3b9254552525f4d4154485f415050524f580000000000000000000000000000000000a165627a7a72305820bc88d99d59e1c653a98636cf59874d0f80a884fe7468b4932e67755cba8c67c4002942466163746f72793a20696e76616c69642062706f6f6c2074656d706c617465207a65726f2061646472657373",
  "linkReferences": {},
  "deployedLinkReferences": {}
}