{
  "_format": "hh-sol-artifact-1",
  "contractName": "BFactory",
  "sourceName": "contracts/v3/balancer/BFactory.sol",
  "abi": [
    {
      "constant": true,
      "inputs": [],
      "name": "getCreationCode",
      "outputs": [
        {
          "name": "",
          "type": "bytes"
        }
      ],
      "payable": false,
      "stateMutability": "view",
      "type": "function"
    },
    {
      "constant": true,
      "inputs": [],
      "name": "MAX_TOTAL_WEIGHT",
      "outputs": [
        {
          "name": "",
          "type": "uint256"
        }
      ],
      "payable": false,
      "stateMutability": "view",
      "type": "function"
    },
    {
      "constant": true,
      "inputs": [],
      "name": "getCreationCodeContracts",
      "outputs": [
        {
          "name": "contractA",
          "type": "address"
        },
        {
          "name": "contractB",
          "type": "address"
        }
      ],
      "payable": false,
      "stateMutability": "view",
      "type": "function"
    },
    {
      "constant": true,
      "inputs": [],
      "name": "BPOW_PRECISION",
      "outputs": [
        {
          "name": "",
          "type": "uint256"
        }
      ],
      "payable": false,
      "stateMutability": "view",
      "type": "function"
    },
    {
      "constant": true,
      "inputs": [],
      "name": "MIN_WEIGHT",
      "outputs": [
        {
          "name": "",
          "type": "uint256"
        }
      ],
      "payable": false,
      "stateMutability": "view",
      "type": "function"
    },
    {
      "constant": true,
      "inputs": [],
      "name": "MIN_FEE",
      "outputs": [
        {
          "name": "",
          "type": "uint256"
        }
      ],
      "payable": false,
      "stateMutability": "view",
      "type": "function"
    },
    {
      "constant": true,
      "inputs": [],
      "name": "MIN_BALANCE",
      "outputs": [
        {
          "name": "",
          "type": "uint256"
        }
      ],
      "payable": false,
      "stateMutability": "view",
      "type": "function"
    },
    {
      "constant": true,
      "inputs": [],
      "name": "INIT_POOL_SUPPLY",
      "outputs": [
        {
          "name": "",
          "type": "uint256"
        }
      ],
      "payable": false,
      "stateMutability": "view",
      "type": "function"
    },
    {
      "constant": true,
      "inputs": [],
      "name": "MAX_OUT_RATIO",
      "outputs": [
        {
          "name": "",
          "type": "uint256"
        }
      ],
      "payable": false,
      "stateMutability": "view",
      "type": "function"
    },
    {
      "constant": true,
      "inputs": [],
      "name": "opfCollector",
      "outputs": [
        {
          "name": "",
          "type": "address"
        }
      ],
      "payable": false,
      "stateMutability": "view",
      "type": "function"
    },
    {
      "constant": true,
      "inputs": [],
      "name": "MAX_BOUND_TOKENS",
      "outputs": [
        {
          "name": "",
          "type": "uint256"
        }
      ],
      "payable": false,
      "stateMutability": "view",
      "type": "function"
    },
    {
      "constant": true,
      "inputs": [],
      "name": "MIN_BOUND_TOKENS",
      "outputs": [
        {
          "name": "",
          "type": "uint256"
        }
      ],
      "payable": false,
      "stateMutability": "view",
      "type": "function"
    },
    {
      "constant": true,
      "inputs": [],
      "name": "MIN_BPOW_BASE",
      "outputs": [
        {
          "name": "",
          "type": "uint256"
        }
      ],
      "payable": false,
      "stateMutability": "view",
      "type": "function"
    },
    {
      "constant": true,
      "inputs": [],
      "name": "bpoolTemplate",
      "outputs": [
        {
          "name": "",
          "type": "address"
        }
      ],
      "payable": false,
      "stateMutability": "view",
      "type": "function"
    },
    {
      "constant": true,
      "inputs": [],
      "name": "MAX_FEE",
      "outputs": [
        {
          "name": "",
          "type": "uint256"
        }
      ],
      "payable": false,
      "stateMutability": "view",
      "type": "function"
    },
    {
      "constant": true,
      "inputs": [],
      "name": "MAX_BPOW_BASE",
      "outputs": [
        {
          "name": "",
          "type": "uint256"
        }
      ],
      "payable": false,
      "stateMutability": "view",
      "type": "function"
    },
    {
      "constant": true,
      "inputs": [],
      "name": "BONE",
      "outputs": [
        {
          "name": "",
          "type": "uint256"
        }
      ],
      "payable": false,
      "stateMutability": "view",
      "type": "function"
    },
    {
      "constant": true,
      "inputs": [],
      "name": "EXIT_FEE",
      "outputs": [
        {
          "name": "",
          "type": "uint256"
        }
      ],
      "payable": false,
      "stateMutability": "view",
      "type": "function"
    },
    {
      "constant": true,
      "inputs": [],
      "name": "MAX_WEIGHT",
      "outputs": [
        {
          "name": "",
          "type": "uint256"
        }
      ],
      "payable": false,
      "stateMutability": "view",
      "type": "function"
    },
    {
      "constant": true,
      "inputs": [],
      "name": "MAX_IN_RATIO",
      "outputs": [
        {
          "name": "",
          "type": "uint256"
        }
      ],
      "payable": false,
      "stateMutability": "view",
      "type": "function"
    },
    {
      "inputs": [
        {
          "name": "_bpoolTemplate",
          "type": "address"
        },
        {
          "name": "_opfCollector",
          "type": "address"
        },
        {
          "name": "_preCreatedPools",
          "type": "address[]"
        }
      ],
      "payable": false,
      "stateMutability": "nonpayable",
      "type": "constructor"
    },
    {
      "anonymous": false,
      "inputs": [
        {
          "indexed": true,
          "name": "newBPoolAddress",
          "type": "address"
        },
        {
          "indexed": true,
          "name": "registeredBy",
          "type": "address"
        },
        {
          "indexed": true,
          "name": "datatokenAddress",
          "type": "address"
        },
        {
          "indexed": false,
          "name": "basetokenAddress",
          "type": "address"
        },
        {
          "indexed": false,
          "name": "bpoolTemplateAddress",
          "type": "address"
        },
        {
          "indexed": false,
          "name": "ssAddress",
          "type": "address"
        }
      ],
      "name": "BPoolCreated",
      "type": "event"
    },
    {
      "anonymous": false,
      "inputs": [
        {
          "indexed": false,
          "name": "instance",
          "type": "address"
        }
      ],
      "name": "InstanceDeployed",
      "type": "event"
    }
  ],
  "bytecode": "0x608060405234801561001057600080fd5b50604051616ca1380380616ca18339810180604052606081101561003357600080fd5b815160208301516040840180519294919382019264010000000081111561005957600080fd5b8201602081018481111561006c57600080fd5b815185602082028301116401000000008211171561008957600080fd5b5050929190505050604051806020016100a190610393565b601f1982820381018352601f90910116604052805160006002820460018190558083036003819055818552909150836100e4816102e3602090811b61043817901c565b600080546001600160a01b0319166001600160a01b03929092169190911790558285018051838252610120826102e3602090811b61043817901c565b600280546001600160a01b0319166001600160a01b039283161790559590925252505084161515905061019e576040517f08c379a000000000000000000000000000000000000000000000000000000000815260040180806020018281038252602d815260200180616c74602d913960400191505060405180910390fd5b6001600160a01b03821661021357604080517f08c379a000000000000000000000000000000000000000000000000000000000815260206004820152601660248201527f42466163746f72793a207a65726f206164647265737300000000000000000000604482015290519081900360640190fd5b600480546001600160a01b038086166001600160a01b03199283161790925560058054928516929091169190911790558051156102db5760005b81518110156102d95760006001600160a01b0316336001600160a01b031683838151811061027757fe5b60209081029190910181015160408051600080825293810184905280820193909352516001600160a01b03909116917fbb6121447d29a04cc37bfd93cdf6a9dd08229f2d941116c1528f04698c4e790e919081900360600190a460010161024d565b505b5050506103a0565b80517f602038038060206000396000f3fefefefefefefefefefefefefefefefefefefe808352600091602081018484f090845291506001600160a01b03821661038d57604080517f08c379a000000000000000000000000000000000000000000000000000000000815260206004820152601660248201527f434f44455f4445504c4f594d454e545f4641494c454400000000000000000000604482015290519081900360640190fd5b50919050565b6163c8806108ac83390190565b6104fd806103af6000396000f3fe608060405234801561001057600080fd5b506004361061012b5760003560e01c8063b0e0d136116100ad578063bc694ea211610071578063bc694ea214610271578063c36596a6146101fd578063c6580d1214610279578063e4a28a52146101ad578063ec093021146102815761012b565b8063b0e0d13614610249578063b7b800a414610251578063ba019dab14610259578063bae6ae1214610261578063bc063e1a146102695761012b565b806376c7a3c7116100f457806376c7a3c714610205578063867378c51461020d5780639381cd2b14610215578063992e2a921461021d578063a28f78f1146102255761012b565b8062c194db1461013057806309a3bbe4146101ad578063174481fa146101c7578063189d00ca146101f5578063218b5382146101fd575b600080fd5b610138610289565b6040805160208082528351818301528351919283929083019185019080838360005b8381101561017257818101518382015260200161015a565b50505050905090810190601f16801561019f5780820380516001836020036101000a031916815260200191505b509250505060405180910390f35b6101b56102a8565b60408051918252519081900360200190f35b6101cf6102b5565b604080516001600160a01b03938416815291909216602082015281519081900390910190f35b6101b56102cc565b6101b56102e0565b6101b56102ec565b6101b56102fe565b6101b5610312565b6101b561031f565b61022d61032b565b604080516001600160a01b039092168252519081900360200190f35b6101b561033a565b6101b561033f565b6101b5610344565b61022d610349565b6101b5610358565b6101b5610368565b6101b5610374565b6101b5610379565b60606102a360405180602001604052806000815250610389565b905090565b6802b5e3af16b188000081565b6000546002546001600160a01b0391821691169091565b6402540be400670de0b6b3a76400005b0481565b670de0b6b3a764000081565b620f4240670de0b6b3a76400006102dc565b64e8d4a51000670de0b6b3a76400006102dc565b68056bc75e2d6310000081565b6704a03ce68d21555681565b6005546001600160a01b031681565b600881565b600281565b600181565b6004546001600160a01b031681565b600a670de0b6b3a76400006102dc565b671bc16d674ec7ffff81565b600081565b6002670de0b6b3a76400006102dc565b60008054600154600254600354855160408051838601838101828101602090810190945280835291986001600160a01b039889169896909616959093928901908790828a3c846000888301883c50602089810190898501016103ec8183866103fa565b505050505050505050919050565b5b6020811061041a578151835260209283019290910190601f19016103fb565b905182516020929092036101000a6000190180199091169116179052565b80517f602038038060206000396000f3fefefefefefefefefefefefefefefefefefefe808352600091602081018484f090845291506001600160a01b0382166104cb5760408051600160e51b62461bcd02815260206004820152601660248201527f434f44455f4445504c4f594d454e545f4641494c454400000000000000000000604482015290519081900360640190fd5b5091905056fea165627a7a72305820fdabb0360be60364b794393d5f1aef555e992b0358d0bfa410937a39b0232857002960c0604052601360808190527f42616c616e63657220506f6f6c20546f6b656e0000000000000000000000000060a09081526200004091600a9190620000a9565b506040805180820190915260038082527f425054000000000000000000000000000000000000000000000000000000000060209092019182526200008791600b91620000a9565b50600c805460ff19166012179055348015620000a257600080fd5b506200014e565b828054600181600116156101000203166002900490600052602060002090601f016020900481019282601f10620000ec57805160ff19168380011785556200011c565b828001600101855582156200011c579182015b828111156200011c578251825591602001919060010190620000ff565b506200012a9291506200012e565b5090565b6200014b91905b808211156200012a576000815560010162000135565b90565b61626a806200015e6000396000f3fe608060405234801561001057600080fd5b50600436106103db5760003560e01c80638d4e40831161020a578063be3bbd2e11610125578063dd62ed3e116100b8578063f1b8a9b711610087578063f1b8a9b714610bc3578063f542f6cf14610be9578063f8b2cb4f14610c0f578063fbb9dd5014610c35578063fde924f714610c5b576103db565b8063dd62ed3e14610b85578063e4a28a5214610505578063ec09302114610bb3578063f0f13f0b14610bbb576103db565b8063cc77828d116100f4578063cc77828d14610b41578063cd2ed8fb14610b49578063d4cadf6814610b51578063d73dd62314610b59576103db565b8063be3bbd2e14610a43578063c070a6d814610a9b578063c36596a614610595578063c6580d1214610b39576103db565b8063a9059cbb1161019d578063b80483b01161016c578063b80483b014610a23578063ba019dab14610a2b578063bc063e1a14610a33578063bc694ea214610a3b576103db565b8063a9059cbb14610970578063b02f0b731461099c578063b0e0d13614610a13578063b7b800a414610a1b576103db565b8063948d8ce6116101d9578063948d8ce61461093257806395d89b4114610958578063992e2a9214610960578063a562ddf014610968576103db565b80638d4e4083146108f457806391f2a496146108fc578063936c3477146109225780639381cd2b1461092a576103db565b806334e19907116102fa5780636d06dfa01161028d5780637c5e9ea41161025c5780637c5e9ea41461082d5780637c6e92c2146108865780638201aa3f146108ac578063867378c5146108ec576103db565b80636d06dfa0146107a757806370330518146107d957806370a08231146107ff57806376c7a3c714610825576103db565b80634df947d0116102c95780634df947d0146106ca5780634f69c0d4146106d25780635db3427714610749578063661884631461077b576103db565b806334e199071461066b578063392e53cd1461068857806346ab38f11461069057806349e9350f146106c2576103db565b8063189d00ca11610372578063300621921161034157806330062192146105f95780633018205f1461061f578063313ce5671461062757806331e2761b14610645576103db565b8063189d00ca1461058d578063218b53821461059557806323b872dd1461059d5780632f37b624146105d3576103db565b806309a3bbe4116103ae57806309a3bbe41461050557806309ef3f5b1461050d57806315e84af91461055757806318160ddd14610585576103db565b806302c96748146103e057806304ad79541461042457806306fdde0314610448578063095ea7b3146104c5575b600080fd5b610412600480360360608110156103f657600080fd5b506001600160a01b038135169060208101359060400135610c63565b60408051918252519081900360200190f35b61042c6111ce565b604080516001600160a01b039092168252519081900360200190f35b6104506111dd565b6040805160208082528351818301528351919283929083019185019080838360005b8381101561048a578181015183820152602001610472565b50505050905090810190601f1680156104b75780820380516001836020036101000a031916815260200191505b509250505060405180910390f35b6104f1600480360360408110156104db57600080fd5b506001600160a01b038135169060200135611273565b604080519115158252519081900360200190f35b6104126112c8565b610555600480360360c081101561052357600080fd5b506001600160a01b03813581169160208101359160408201359160608101359091169060808101359060a001356112d5565b005b6104126004803603604081101561056d57600080fd5b506001600160a01b0381358116916020013516611491565b6104126115ea565b6104126115f0565b610412611604565b6104f1600480360360608110156105b357600080fd5b506001600160a01b03813581169160208101359091169060400135611610565b6104f1600480360360208110156105e957600080fd5b50356001600160a01b0316611775565b6104126004803603602081101561060f57600080fd5b50356001600160a01b0316611793565b61042c6117a5565b61062f6117b4565b6040805160ff9092168252519081900360200190f35b6104126004803603602081101561065b57600080fd5b50356001600160a01b03166117bd565b6105556004803603602081101561068157600080fd5b50356117cf565b6104f1611925565b610412600480360360608110156106a657600080fd5b506001600160a01b038135169060208101359060400135611935565b610412611e7b565b61042c611e81565b610555600480360360408110156106e857600080fd5b8135919081019060408101602082013564010000000081111561070a57600080fd5b82018360208201111561071c57600080fd5b8035906020019184602083028401116401000000008311171561073e57600080fd5b509092509050611e90565b6104126004803603606081101561075f57600080fd5b506001600160a01b038135169060208101359060400135612216565b6104f16004803603604081101561079157600080fd5b506001600160a01b0381351690602001356126e0565b610412600480360360608110156107bd57600080fd5b506001600160a01b0381351690602081013590604001356127b8565b610555600480360360208110156107ef57600080fd5b50356001600160a01b0316612ca1565b6104126004803603602081101561081557600080fd5b50356001600160a01b0316612d25565b610412612d40565b61086d600480360360a081101561084357600080fd5b506001600160a01b0381358116916020810135916040820135169060608101359060800135612d52565b6040805192835260208301919091528051918290030190f35b6104126004803603602081101561089c57600080fd5b50356001600160a01b0316613203565b61086d600480360360a08110156108c257600080fd5b506001600160a01b0381358116916020810135916040820135169060608101359060800135613215565b610412613736565b6104f161374a565b6105556004803603602081101561091257600080fd5b50356001600160a01b031661375a565b61041261395d565b6104126139b8565b6104126004803603602081101561094857600080fd5b50356001600160a01b03166139c5565b610450613a96565b610412613af7565b61042c613b03565b6104f16004803603604081101561098657600080fd5b506001600160a01b038135169060200135613b12565b610555600480360360408110156109b257600080fd5b813591908101906040810160208201356401000000008111156109d457600080fd5b8201836020820111156109e657600080fd5b80359060200191846020830284011164010000000083111715610a0857600080fd5b509092509050613b28565b610412613ec9565b610412613ece565b610412613ed3565b610412613ed9565b610412613ede565b610412613eee565b610a4b613efa565b60408051602080825283518183015283519192839290830191858101910280838360005b83811015610a87578181015183820152602001610a6f565b505050509050019250505060405180910390f35b6104f16004803603610120811015610ab257600080fd5b6001600160a01b038235811692602081013590911691810190606081016040820135640100000000811115610ae657600080fd5b820183602082011115610af857600080fd5b80359060200191846020830284011164010000000083111715610b1a57600080fd5b9193509150803515159060208101351515906040810190608001613ffc565b610412614271565b610a4b614276565b6104126142ca565b6104126142d0565b6104f160048036036040811015610b6f57600080fd5b506001600160a01b0381351690602001356142d6565b61041260048036036040811015610b9b57600080fd5b506001600160a01b0381358116916020013516614357565b610412614382565b61042c614392565b61041260048036036020811015610bd957600080fd5b50356001600160a01b03166143a1565b61041260048036036020811015610bff57600080fd5b50356001600160a01b0316614484565b61041260048036036020811015610c2557600080fd5b50356001600160a01b0316614496565b61055560048036036020811015610c4b57600080fd5b50356001600160a01b0316614567565b6104f16147b5565b600c54600090610100900460ff1615610cb75760408051600160e51b62461bcd02815260206004820152600b6024820152600160a81b6a4552525f5245454e54525902604482015290519081900360640190fd5b600c805461ff001916610100179055601154600160a01b900460ff16610d155760408051600160e51b62461bcd028152602060048201526011602482015260008051602061615f833981519152604482015290519081900360640190fd5b6001600160a01b03841660009081526013602052604090205460ff16610d735760408051600160e51b62461bcd02815260206004820152600d60248201526000805160206161df833981519152604482015290519081900360640190fd5b6001600160a01b0384166000908152601360205260409020600390810154610da891670de0b6b3a76400005b046001016147c5565b831115610df65760408051600160e51b62461bcd0281526020600482015260116024820152600160781b704552525f4d41585f4f55545f524154494f02604482015290519081900360640190fd5b600e546001600160a01b039081166000818152601360205260408120909283929088161415610e3257600f546001600160a01b03169150610e57565b5050600e54600f546001600160a01b0390811660009081526013602052604090209116905b6001600160a01b038716600090815260136020526040902060038101546002820154600954601454610e8c939291908b61489a565b945084610ed15760408051600160e51b62461bcd02815260206004820152600f602482015260008051602061621f833981519152604482015290519081900360640190fd5b85851115610f1b5760408051600160e51b62461bcd02815260206004820152600c6024820152600160a11b6b22a9292fa624a6a4aa2fa4a702604482015290519081900360640190fd5b610f2981600301548861495e565b60038201556000610f3a86826147c5565b604080518a815242602082015281519293506001600160a01b038c1692339260008051602061617f833981519152928290030190a360408051878152905160008051602061619f8339815191529181900360200190a1610f9a33876149cf565b610fac610fa7878361495e565b6149dd565b600c54610fc8906201000090046001600160a01b0316826149e9565b610fd389338a6149f3565b6000610fee846003015485600201546009546014548b614ad2565b601554600e5460408051600160e01b63efd481030281526001600160a01b039283166004820152898316602482015260448101859052905193945091169163efd4810391606480820192602092909190829003018186803b15801561105257600080fd5b505afa158015611066573d6000803e3d6000fd5b505050506040513d602081101561107c57600080fd5b50511515600114156111b65761109684600301548261495e565b60038501556110a68760006147c5565b600d546040805184815242602082015281519395506001600160a01b03808a169493169260008051602061617f833981519152929181900390910190a3600d546110f9906001600160a01b0316886149cf565b611106610fa7888461495e565b600c54611122906201000090046001600160a01b0316836149e9565b600d5461113a9086906001600160a01b0316836149f3565b601554600e5460408051600160e11b63679346f50281526001600160a01b0392831660048201528883166024820152604481018590529051919092169163cf268dea91606480830192600092919082900301818387803b15801561119d57600080fd5b505af11580156111b1573d6000803e3d6000fd5b505050505b505050505050600c805461ff00191690559392505050565b600e546001600160a01b031690565b600a8054604080516020601f60026000196101006001881615020190951694909404938401819004810282018101909252828152606093909290918301828280156112695780601f1061123e57610100808354040283529160200191611269565b820191906000526020600020905b81548152906001019060200180831161124c57829003601f168201915b5050505050905090565b3360008181526008602090815260408083206001600160a01b038716808552908352818420869055815186815291519394909390926000805160206161ff833981519152928290030190a35060015b92915050565b6802b5e3af16b188000081565b600d546001600160a01b031633146113375760408051600160e51b62461bcd02815260206004820152601660248201527f4552525f494e56414c49445f434f4e54524f4c4c455200000000000000000000604482015290519081900360640190fd5b600e546001600160a01b0387811691161461139c5760408051600160e51b62461bcd02815260206004820152601d60248201527f4552525f494e56414c49445f44415441544f4b454e5f41444452455353000000604482015290519081900360640190fd5b600f546001600160a01b038481169116146114015760408051600160e51b62461bcd02815260206004820152601d60248201527f4552525f494e56414c49445f42415345544f4b454e5f41444452455353000000604482015290519081900360640190fd5b61140c868686614ba1565b6040805186815242602082015281516001600160a01b0389169233926000805160206161bf833981519152929081900390910190a361144c838383614ba1565b6040805183815242602082015281516001600160a01b0386169233926000805160206161bf833981519152929081900390910190a3611489614dcb565b505050505050565b600c54600090610100900460ff16156114e55760408051600160e51b62461bcd02815260206004820152600b6024820152600160a81b6a4552525f5245454e54525902604482015290519081900360640190fd5b6001600160a01b03831660009081526013602052604090205460ff166115435760408051600160e51b62461bcd02815260206004820152600d60248201526000805160206161df833981519152604482015290519081900360640190fd5b6001600160a01b03821660009081526013602052604090205460ff166115a15760408051600160e51b62461bcd02815260206004820152600d60248201526000805160206161df833981519152604482015290519081900360640190fd5b6001600160a01b038084166000908152601360205260408082209285168252902060038083015460028085015492840154908401546115e1939190614e18565b95945050505050565b60095490565b6402540be400670de0b6b3a76400005b0481565b670de0b6b3a764000081565b6000336001600160a01b038516148061164c57506001600160a01b03841660009081526008602090815260408083203384529091529020548211155b6116a05760408051600160e51b62461bcd02815260206004820152601560248201527f4552525f42544f4b454e5f4241445f43414c4c45520000000000000000000000604482015290519081900360640190fd5b6116ab848484614efe565b336001600160a01b038516148015906116e957506001600160a01b038416600090815260086020908152604080832033845290915290205460001914155b1561176b576001600160a01b038416600090815260086020908152604080832033845290915290205461171c908361495e565b6001600160a01b03858116600090815260086020908152604080832033808552908352928190208590558051948552519287169391926000805160206161ff8339815191529281900390910190a35b5060019392505050565b6001600160a01b031660009081526013602052604090205460ff1690565b60036020526000908152604090205481565b600d546001600160a01b031690565b600c5460ff1690565b60056020526000908152604090205481565b601154600160a01b900460ff16156118275760408051600160e51b62461bcd0281526020600482015260106024820152600160821b6f11549497d254d7d1925390531256915102604482015290519081900360640190fd5b600d546001600160a01b031633146118815760408051600160e51b62461bcd0281526020600482015260126024820152600160711b7122a9292fa727aa2fa1a7a72a2927a62622a902604482015290519081900360640190fd5b64e8d4a510008110156118cf5760408051600160e51b62461bcd02815260206004820152600b6024820152600160a81b6a4552525f4d494e5f46454502604482015290519081900360640190fd5b67016345785d8a00008111156119205760408051600160e51b62461bcd02815260206004820152600b6024820152600160a81b6a4552525f4d41585f46454502604482015290519081900360640190fd5b600255565b601554600160a01b900460ff1690565b600c54600090610100900460ff16156119895760408051600160e51b62461bcd02815260206004820152600b6024820152600160a81b6a4552525f5245454e54525902604482015290519081900360640190fd5b600c805461ff001916610100179055601154600160a01b900460ff166119e75760408051600160e51b62461bcd028152602060048201526011602482015260008051602061615f833981519152604482015290519081900360640190fd5b6001600160a01b03841660009081526013602052604090205460ff16611a455760408051600160e51b62461bcd02815260206004820152600d60248201526000805160206161df833981519152604482015290519081900360640190fd5b6001600160a01b038416600090815260136020526040902060038101546002820154600954601454611a7a9392919088614ad2565b915082821015611ac75760408051600160e51b62461bcd02815260206004820152600d60248201526001609a1b6c11549497d31253525517d3d55502604482015290519081900360640190fd5b6001600160a01b0385166000908152601360205260409020600390810154611af791670de0b6b3a7640000610d9f565b821115611b455760408051600160e51b62461bcd0281526020600482015260116024820152600160781b704552525f4d41585f4f55545f524154494f02604482015290519081900360640190fd5b600e546001600160a01b039081166000818152601360205260408120909290919088161415611b8157600f546001600160a01b03169150611ba6565b5050600e54600f546001600160a01b0390811660009081526013602052604090209116905b611bb483600301548561495e565b60038401556000611bc587826147c5565b6040805187815242602082015281519293506001600160a01b038b1692339260008051602061617f833981519152928290030190a360408051888152905160008051602061619f8339815191529181900360200190a1611c43604051806040016040528060048152602001600160e01b63686572650281525061501c565b611c4d33886149cf565b611c5a610fa7888361495e565b600c54611c76906201000090046001600160a01b0316826149e9565b611c818833876149f3565b6000611c9c836003015484600201546009546014548c614ad2565b601554600e5460408051600160e01b63efd481030281526001600160a01b039283166004820152888316602482015260448101859052905193945091169163efd4810391606480820192602092909190829003018186803b158015611d0057600080fd5b505afa158015611d14573d6000803e3d6000fd5b505050506040513d6020811015611d2a57600080fd5b5051151560011415611e6457611d4483600301548261495e565b6003840155611d548860006147c5565b600d546040805184815242602082015281519395506001600160a01b038089169493169260008051602061617f833981519152929181900390910190a3600d54611da7906001600160a01b0316896149cf565b611db4610fa7898461495e565b600c54611dd0906201000090046001600160a01b0316836149e9565b600d54611de89085906001600160a01b0316836149f3565b601554600e5460408051600160e11b63679346f50281526001600160a01b0392831660048201528783166024820152604481018590529051919092169163cf268dea91606480830192600092919082900301818387803b158015611e4b57600080fd5b505af1158015611e5f573d6000803e3d6000fd5b505050505b5050505050600c805461ff00191690559392505050565b60015481565b600f546001600160a01b031690565b600c54610100900460ff1615611ee15760408051600160e51b62461bcd02815260206004820152600b6024820152600160a81b6a4552525f5245454e54525902604482015290519081900360640190fd5b600c805461ff001916610100179055601154600160a01b900460ff16611f3f5760408051600160e51b62461bcd028152602060048201526011602482015260008051602061615f833981519152604482015290519081900360640190fd5b600080805b601254811015611ff257600e54601280546001600160a01b039092169183908110611f6b57fe5b6000918252602090912001546001600160a01b03161415611f9c57848482818110611f9257fe5b9050602002013592505b600f54601280546001600160a01b039092169183908110611fb957fe5b6000918252602090912001546001600160a01b03161415611fea57848482818110611fe057fe5b9050602002013591505b600101611f44565b506000611ffd6115ea565b9050600061200b87836150c5565b9050806120505760408051600160e51b62461bcd02815260206004820152600f602482015260008051602061621f833981519152604482015290519081900360640190fd5b60005b6012548110156121cd5760006012828154811061206c57fe5b60009182526020808320909101546001600160a01b031680835260139091526040822060030154909250906120a185836147c5565b9050806120e65760408051600160e51b62461bcd02815260206004820152600f602482015260008051602061621f833981519152604482015290519081900360640190fd5b8989858181106120f257fe5b905060200201358111156121425760408051600160e51b62461bcd02815260206004820152600c6024820152600160a11b6b22a9292fa624a6a4aa2fa4a702604482015290519081900360640190fd5b6001600160a01b03831660009081526013602052604090206003015461216890826151ed565b6001600160a01b03841660008181526013602090815260409182902060030193909355805184815242938101939093528051919233926000805160206161bf833981519152929181900390910190a36121c283338361524a565b505050600101612053565b506121d7876152a6565b6121e133886149e9565b60408051888152905160008051602061619f8339815191529181900360200190a15050600c805461ff00191690555050505050565b600c54600090610100900460ff161561226a5760408051600160e51b62461bcd02815260206004820152600b6024820152600160a81b6a4552525f5245454e54525902604482015290519081900360640190fd5b600c805461ff001916610100179055601154600160a01b900460ff166122c85760408051600160e51b62461bcd028152602060048201526011602482015260008051602061615f833981519152604482015290519081900360640190fd5b6001600160a01b03841660009081526013602052604090205460ff166123265760408051600160e51b62461bcd02815260206004820152600d60248201526000805160206161df833981519152604482015290519081900360640190fd5b6001600160a01b038416600090815260136020526040902060030154612358906002670de0b6b3a76400005b046147c5565b8311156123a55760408051600160e51b62461bcd0281526020600482015260106024820152600160801b6f4552525f4d41585f494e5f524154494f02604482015290519081900360640190fd5b600e546001600160a01b039081166000818152601360205260408120909290918391881614156123e15750600f546001600160a01b0316612406565b5050600f546001600160a01b039081166000908152601360205260409020600e549091165b6001600160a01b03871660009081526013602052604090206003810154600282015460095460145461243b939291908b6152af565b9450858510156124885760408051600160e51b62461bcd02815260206004820152600d60248201526001609a1b6c11549497d31253525517d3d55502604482015290519081900360640190fd5b6124968160030154886151ed565b60038201556040805188815242602082015281516001600160a01b038b169233926000805160206161bf833981519152929081900390910190a360408051868152905160008051602061619f8339815191529181900360200190a16124fa856152a6565b61250433866149e9565b61250f88338961524a565b600061252a846003015485600201546009546014548a615344565b601554600e5460408051600160e01b6326b1f01f0281526001600160a01b03928316600482015287831660248201526044810185905290519394509116916326b1f01f91606480820192602092909190829003018186803b15801561258e57600080fd5b505afa1580156125a2573d6000803e3d6000fd5b505050506040513d60208110156125b857600080fd5b5051151560011415611e6457601554600e5460408051600160e01b6399039fcf0281526001600160a01b039283166004820152868316602482015260448101859052905191909216916399039fcf91606480830192600092919082900301818387803b15801561262757600080fd5b505af115801561263b573d6000803e3d6000fd5b5050505061264d8460030154826151ed565b6003850155600d546040805183815242602082015281516001600160a01b038088169416926000805160206161bf833981519152928290030190a360408051878152905160008051602061619f8339815191529181900360200190a16126b2866152a6565b600d546126c8906001600160a01b0316876149e9565b600d54611e649084906001600160a01b03168361524a565b3360009081526008602090815260408083206001600160a01b038616845290915281205480831115612735573360009081526008602090815260408083206001600160a01b0388168452909152812055612764565b61273f818461495e565b3360009081526008602090815260408083206001600160a01b03891684529091529020555b3360008181526008602090815260408083206001600160a01b0389168085529083529281902054815190815290519293926000805160206161ff833981519152929181900390910190a35060019392505050565b600c54600090610100900460ff161561280c5760408051600160e51b62461bcd02815260206004820152600b6024820152600160a81b6a4552525f5245454e54525902604482015290519081900360640190fd5b600c805461ff001916610100179055601154600160a01b900460ff1661286a5760408051600160e51b62461bcd028152602060048201526011602482015260008051602061615f833981519152604482015290519081900360640190fd5b6001600160a01b03841660009081526013602052604090205460ff166128c85760408051600160e51b62461bcd02815260206004820152600d60248201526000805160206161df833981519152604482015290519081900360640190fd5b6001600160a01b0384166000908152601360205260409020600381015460028201546009546014546128fd9392919088615344565b600e546001600160a01b03908116600081815260136020526040812093955092918391908916141561293b5750600f546001600160a01b0316612960565b5050600f546001600160a01b039081166000908152601360205260409020600e549091165b846129a35760408051600160e51b62461bcd02815260206004820152600f602482015260008051602061621f833981519152604482015290519081900360640190fd5b858511156129ed5760408051600160e51b62461bcd02815260206004820152600c6024820152600160a11b6b22a9292fa624a6a4aa2fa4a702604482015290519081900360640190fd5b6001600160a01b038816600090815260136020526040902060030154612a1d906002670de0b6b3a7640000612352565b851115612a6a5760408051600160e51b62461bcd0281526020600482015260106024820152600160801b6f4552525f4d41585f494e5f524154494f02604482015290519081900360640190fd5b612a788460030154866151ed565b60038501556040805186815242602082015281516001600160a01b038b169233926000805160206161bf833981519152929081900390910190a360408051888152905160008051602061619f8339815191529181900360200190a1612adc876152a6565b612ae633886149e9565b612af188338761524a565b6000612b0c836003015484600201546009546014548c615344565b601554600e5460408051600160e01b6326b1f01f0281526001600160a01b03928316600482015286831660248201526044810185905290519394509116916326b1f01f91606480820192602092909190829003018186803b158015612b7057600080fd5b505afa158015612b84573d6000803e3d6000fd5b505050506040513d6020811015612b9a57600080fd5b5051151560011415611e6457601554600e5460408051600160e01b6399039fcf0281526001600160a01b039283166004820152858316602482015260448101859052905191909216916399039fcf91606480830192600092919082900301818387803b158015612c0957600080fd5b505af1158015612c1d573d6000803e3d6000fd5b50505050612c2f8360030154826151ed565b6003840155600d546040805183815242602082015281516001600160a01b038087169416926000805160206161bf833981519152928290030190a3612c73886152a6565b600d54612c89906001600160a01b0316896149e9565b600d54611e649083906001600160a01b03168361524a565b6010546001600160a01b03163314612d035760408051600160e51b62461bcd02815260206004820152601560248201527f4f4e4c59204d41524b455420434f4c4c4543544f520000000000000000000000604482015290519081900360640190fd5b601080546001600160a01b0319166001600160a01b0392909216919091179055565b6001600160a01b031660009081526007602052604090205490565b620f4240670de0b6b3a7640000611600565b600c546000908190610100900460ff1615612da85760408051600160e51b62461bcd02815260206004820152600b6024820152600160a81b6a4552525f5245454e54525902604482015290519081900360640190fd5b600c805461ff001916610100179055601154600160a01b900460ff16612e065760408051600160e51b62461bcd028152602060048201526011602482015260008051602061615f833981519152604482015290519081900360640190fd5b6001600160a01b03871660009081526013602052604090205460ff16612e645760408051600160e51b62461bcd02815260206004820152600d60248201526000805160206161df833981519152604482015290519081900360640190fd5b6001600160a01b03851660009081526013602052604090205460ff16612ec25760408051600160e51b62461bcd02815260206004820152600d60248201526000805160206161df833981519152604482015290519081900360640190fd5b6001600160a01b0380881660009081526013602052604080822092881682529020600380820154612efb91670de0b6b3a7640000610d9f565b861115612f495760408051600160e51b62461bcd0281526020600482015260116024820152600160781b704552525f4d41585f4f55545f524154494f02604482015290519081900360640190fd5b6000612f678360030154846002015484600301548560020154614e18565b905085811115612fc15760408051600160e51b62461bcd02815260206004820152601360248201527f4552525f4241445f4c494d49545f505249434500000000000000000000000000604482015290519081900360640190fd5b6000612fcb616140565b604051806080016040528086600301548152602001866002015481526020018560030154815260200185600201548152509050613009818a8e6153de565b90975091508a8711156130585760408051600160e51b62461bcd02815260206004820152600c6024820152600160a11b6b22a9292fa624a6a4aa2fa4a702604482015290519081900360640190fd5b6130668560030154836151ed565b856003018190555061307c84600301548a61495e565b60038086018290558601546002808801549087015461309b9390614e18565b9550828610156130e35760408051600160e51b62461bcd02815260206004820152600f602482015260008051602061621f833981519152604482015290519081900360640190fd5b878611156131305760408051600160e51b62461bcd02815260206004820152600f6024820152600160881b6e4552525f4c494d49545f505249434502604482015290519081900360640190fd5b61313a878a6150c5565b83111561317f5760408051600160e51b62461bcd02815260206004820152600f602482015260008051602061621f833981519152604482015290519081900360640190fd5b60408051888152602081018b9052428183015290516001600160a01b03808d1692908f169133917f50ef2fc267012b5c84b56835f16ffd5331ac5a151a3760d74908721ba78b0efe919081900360600190a46131dc8c338961524a565b6131e78a338b6149f3565b5050505050600c805461ff001916905590969095509350505050565b60046020526000908152604090205481565b600c546000908190610100900460ff161561326b5760408051600160e51b62461bcd02815260206004820152600b6024820152600160a81b6a4552525f5245454e54525902604482015290519081900360640190fd5b600c805461ff001916610100179055601154600160a01b900460ff166132c95760408051600160e51b62461bcd028152602060048201526011602482015260008051602061615f833981519152604482015290519081900360640190fd5b6001600160a01b03871660009081526013602052604090205460ff166133275760408051600160e51b62461bcd02815260206004820152600d60248201526000805160206161df833981519152604482015290519081900360640190fd5b6001600160a01b03851660009081526013602052604090205460ff166133855760408051600160e51b62461bcd02815260206004820152600d60248201526000805160206161df833981519152604482015290519081900360640190fd5b6001600160a01b038088166000908152601360205260408082209288168252902060038201546133bf906002670de0b6b3a7640000612352565b88111561340c5760408051600160e51b62461bcd0281526020600482015260106024820152600160801b6f4552525f4d41585f494e5f524154494f02604482015290519081900360640190fd5b600061342a8360030154846002015484600301548560020154614e18565b9050858111156134845760408051600160e51b62461bcd02815260206004820152601360248201527f4552525f4241445f4c494d49545f505249434500000000000000000000000000604482015290519081900360640190fd5b600061348e616140565b6040518060800160405280866003015481526020018660020154815260200185600301548152602001856002015481525090506134cc818c8e6155f8565b90975091508887101561351c5760408051600160e51b62461bcd02815260206004820152600d60248201526001609a1b6c11549497d31253525517d3d55502604482015290519081900360640190fd5b61352a8560030154836151ed565b856003018190555061354084600301548861495e565b60038086018290558601546002808801549087015461355f9390614e18565b95506135906040518060400160405280600a8152602001600160b01b6973706f7450726963657302815250876157e6565b6135bf6040518060400160405280600a8152602001600160b01b6973706f7450726963657302815250846157e6565b6135ec604051806040016040528060088152602001600160c01b676d6178507269636502815250896157e6565b828610156136325760408051600160e51b62461bcd02815260206004820152600f602482015260008051602061621f833981519152604482015290519081900360640190fd5b8786111561367f5760408051600160e51b62461bcd02815260206004820152600f6024820152600160881b6e4552525f4c494d49545f505249434502604482015290519081900360640190fd5b61368982886150c5565b8311156136ce5760408051600160e51b62461bcd02815260206004820152600f602482015260008051602061621f833981519152604482015290519081900360640190fd5b604080518c815260208101899052428183015290516001600160a01b03808d1692908f169133917f50ef2fc267012b5c84b56835f16ffd5331ac5a151a3760d74908721ba78b0efe919081900360600190a461372b8c338d61524a565b6131e78a33896149f3565b64e8d4a51000670de0b6b3a7640000611600565b601154600160a01b900460ff1690565b6011546001600160a01b031633146137aa5760408051600160e51b62461bcd0281526020600482015260086024820152600160c11b6727a7262c9027a82302604482015290519081900360640190fd5b60606137b4613efa565b905060005b8151811015613958576000600460008484815181106137d457fe5b60200260200101516001600160a01b03166001600160a01b03168152602001908152602001600020546003600085858151811061380d57fe5b60200260200101516001600160a01b03166001600160a01b0316815260200190815260200160002054039050806004600085858151811061384a57fe5b60200260200101516001600160a01b03166001600160a01b0316815260200190815260200160002054016004600085858151811061388457fe5b60200260200101516001600160a01b03166001600160a01b03168152602001908152602001600020819055508282815181106138bc57fe5b60200260200101516001600160a01b031663a9059cbb85836040518363ffffffff1660e01b815260040180836001600160a01b03166001600160a01b0316815260200182815260200192505050602060405180830381600087803b15801561392357600080fd5b505af1158015613937573d6000803e3d6000fd5b505050506040513d602081101561394d57600080fd5b5050506001016137b9565b505050565b600c54600090610100900460ff16156139b15760408051600160e51b62461bcd02815260206004820152600b6024820152600160a81b6a4552525f5245454e54525902604482015290519081900360640190fd5b5060145490565b68056bc75e2d6310000081565b600c54600090610100900460ff1615613a195760408051600160e51b62461bcd02815260206004820152600b6024820152600160a81b6a4552525f5245454e54525902604482015290519081900360640190fd5b6001600160a01b03821660009081526013602052604090205460ff16613a775760408051600160e51b62461bcd02815260206004820152600d60248201526000805160206161df833981519152604482015290519081900360640190fd5b506001600160a01b031660009081526013602052604090206002015490565b600b8054604080516020601f60026000196101006001881615020190951694909404938401819004810282018101909252828152606093909290918301828280156112695780601f1061123e57610100808354040283529160200191611269565b6704a03ce68d21555681565b6010546001600160a01b031681565b6000613b1f338484614efe565b50600192915050565b600c54610100900460ff1615613b795760408051600160e51b62461bcd02815260206004820152600b6024820152600160a81b6a4552525f5245454e54525902604482015290519081900360640190fd5b600c805461ff001916610100179055601154600160a01b900460ff16613bd75760408051600160e51b62461bcd028152602060048201526011602482015260008051602061615f833981519152604482015290519081900360640190fd5b600080805b601254811015613c8a57600e54601280546001600160a01b039092169183908110613c0357fe5b6000918252602090912001546001600160a01b03161415613c3457848482818110613c2a57fe5b9050602002013592505b600f54601280546001600160a01b039092169183908110613c5157fe5b6000918252602090912001546001600160a01b03161415613c8257848482818110613c7857fe5b9050602002013591505b600101613bdc565b506000613c956115ea565b90506000613ca48760006147c5565b90506000613cb2888361495e565b90506000613cc082856150c5565b905080613d055760408051600160e51b62461bcd02815260206004820152600f602482015260008051602061621f833981519152604482015290519081900360640190fd5b613d0f338a6149cf565b600c54613d2b906201000090046001600160a01b0316846149e9565b613d34826149dd565b60005b601254811015613eb257600060128281548110613d5057fe5b60009182526020808320909101546001600160a01b03168083526013909152604082206003015490925090613d8585836147c5565b905080613dca5760408051600160e51b62461bcd02815260206004820152600f602482015260008051602061621f833981519152604482015290519081900360640190fd5b8b8b85818110613dd657fe5b90506020020135811015613e275760408051600160e51b62461bcd02815260206004820152600d60248201526001609a1b6c11549497d31253525517d3d55502604482015290519081900360640190fd5b6001600160a01b038316600090815260136020526040902060030154613e4d908261495e565b6001600160a01b038416600081815260136020908152604091829020600301939093558051848152429381019390935280519192339260008051602061617f833981519152929181900390910190a3613ea78333836149f3565b505050600101613d37565b5050600c805461ff00191690555050505050505050565b600881565b600281565b60005481565b600181565b600a670de0b6b3a7640000611600565b671bc16d674ec7ffff81565b600c54606090610100900460ff1615613f4e5760408051600160e51b62461bcd02815260206004820152600b6024820152600160a81b6a4552525f5245454e54525902604482015290519081900360640190fd5b601154600160a01b900460ff16613f9d5760408051600160e51b62461bcd028152602060048201526011602482015260008051602061615f833981519152604482015290519081900360640190fd5b601280548060200260200160405190810160405280929190818152602001828054801561126957602002820191906000526020600020905b81546001600160a01b03168152600190910190602001808311613fd5575050505050905090565b601554600090600160a01b900460ff16156140615760408051600160e51b62461bcd02815260206004820152601760248201527f4552525f414c52454144595f494e495449414c495a4544000000000000000000604482015290519081900360640190fd5b6001600160a01b0389166140bf5760408051600160e51b62461bcd02815260206004820152601e60248201527f4552525f494e56414c49445f434f4e54524f4c4c45525f414444524553530000604482015290519081900360640190fd5b6001600160a01b03881661411d5760408051600160e51b62461bcd02815260206004820152601b60248201527f4552525f494e56414c49445f464143544f52595f414444524553530000000000604482015290519081900360640190fd5b64e8d4a51000878760008161412e57fe5b90506020020135101561417c5760408051600160e51b62461bcd02815260206004820152600b6024820152600160a81b6a4552525f4d494e5f46454502604482015290519081900360640190fd5b67016345785d8a0000878760008161419057fe5b9050602002013511156141de5760408051600160e51b62461bcd02815260206004820152600b6024820152600160a81b6a4552525f4d41585f46454502604482015290519081900360640190fd5b6142648989898980806020026020016040519081016040528093929190818152602001838360200280828437600092019190915250506040805180820182528c93508b9250908a9060029083908390808284376000920191909152505060408051808201825291508a906002908390839080828437600092019190915250615897915050565b9998505050505050505050565b600081565b600c54606090610100900460ff1615613f9d5760408051600160e51b62461bcd02815260206004820152600b6024820152600160a81b6a4552525f5245454e54525902604482015290519081900360640190fd5b60125490565b60025490565b3360009081526008602090815260408083206001600160a01b038616845290915281205461430490836151ed565b3360008181526008602090815260408083206001600160a01b0389168085529083529281902085905580519485525191936000805160206161ff833981519152929081900390910190a350600192915050565b6001600160a01b03918216600090815260086020908152604080832093909416825291909152205490565b6002670de0b6b3a7640000611600565b6011546001600160a01b031681565b600c54600090610100900460ff16156143f55760408051600160e51b62461bcd02815260206004820152600b6024820152600160a81b6a4552525f5245454e54525902604482015290519081900360640190fd5b6001600160a01b03821660009081526013602052604090205460ff166144535760408051600160e51b62461bcd02815260206004820152600d60248201526000805160206161df833981519152604482015290519081900360640190fd5b6001600160a01b03821660009081526013602052604090206002015460145461447d9082906150c5565b9392505050565b60066020526000908152604090205481565b600c54600090610100900460ff16156144ea5760408051600160e51b62461bcd02815260206004820152600b6024820152600160a81b6a4552525f5245454e54525902604482015290519081900360640190fd5b6001600160a01b03821660009081526013602052604090205460ff166145485760408051600160e51b62461bcd02815260206004820152600d60248201526000805160206161df833981519152604482015290519081900360640190fd5b506001600160a01b031660009081526013602052604090206003015490565b6145a56040518060400160405280600d81526020017f636f6c6c6563744d61726b74650000000000000000000000000000000000000081525061501c565b6010546001600160a01b031633146146075760408051600160e51b62461bcd02815260206004820152601560248201527f4f4e4c59204d41524b455420434f4c4c4543544f520000000000000000000000604482015290519081900360640190fd5b6060614611613efa565b905060005b81518110156139585760006006600084848151811061463157fe5b60200260200101516001600160a01b03166001600160a01b03168152602001908152602001600020546005600085858151811061466a57fe5b60200260200101516001600160a01b03166001600160a01b031681526020019081526020016000205403905080600660008585815181106146a757fe5b60200260200101516001600160a01b03166001600160a01b031681526020019081526020016000205401600660008585815181106146e157fe5b60200260200101516001600160a01b03166001600160a01b031681526020019081526020016000208190555082828151811061471957fe5b60200260200101516001600160a01b031663a9059cbb85836040518363ffffffff1660e01b815260040180836001600160a01b03166001600160a01b0316815260200182815260200192505050602060405180830381600087803b15801561478057600080fd5b505af1158015614794573d6000803e3d6000fd5b505050506040513d60208110156147aa57600080fd5b505050600101614616565b600d54600160a01b900460ff1690565b60008282028315806147df5750828482816147dc57fe5b04145b6148295760408051600160e51b62461bcd0281526020600482015260106024820152600160801b6f4552525f4d554c5f4f564552464c4f5702604482015290519081900360640190fd5b6706f05b59d3b200008101818110156148825760408051600160e51b62461bcd0281526020600482015260106024820152600160801b6f4552525f4d554c5f4f564552464c4f5702604482015290519081900360640190fd5b6000670de0b6b3a7640000825b049695505050505050565b6000806148a786856150c5565b905060006148bd670de0b6b3a76400008361495e565b905060006148cd826002546147c5565b905060006148ec866148e7670de0b6b3a76400008561495e565b6150c5565b905060006148fa8b8361495e565b90506000614908828d6150c5565b9050600061491682886159d3565b90506000614924828d6147c5565b905060006149328d8361495e565b905061494b816148e7670de0b6b3a7640000600061495e565b9f9e505050505050505050505050505050565b600080600061496d8585615af6565b9150915080156149c75760408051600160e51b62461bcd02815260206004820152601160248201527f4552525f5355425f554e444552464c4f57000000000000000000000000000000604482015290519081900360640190fd5b509392505050565b6149d98282615b1b565b5050565b6149e681615b26565b50565b6149d98282615c02565b60408051600160e01b63a9059cbb0281526001600160a01b03848116600483015260248201849052915160009286169163a9059cbb91604480830192602092919082900301818787803b158015614a4957600080fd5b505af1158015614a5d573d6000803e3d6000fd5b505050506040513d6020811015614a7357600080fd5b5051905080614acc5760408051600160e51b62461bcd02815260206004820152600f60248201527f4552525f45524332305f46414c53450000000000000000000000000000000000604482015290519081900360640190fd5b50505050565b600080614adf86856150c5565b90506000614aff84614afa670de0b6b3a7640000600061495e565b6147c5565b90506000614b0d878361495e565b90506000614b1b82896150c5565b90506000614b3a82614b35670de0b6b3a7640000886150c5565b6159d3565b90506000614b48828d6147c5565b90506000614b568d8361495e565b90506000614b77614b6f670de0b6b3a76400008a61495e565b6002546147c5565b9050614b8f82614afa670de0b6b3a76400008461495e565b9e9d5050505050505050505050505050565b600d546001600160a01b03163314614bfb5760408051600160e51b62461bcd0281526020600482015260126024820152600160711b7122a9292fa727aa2fa1a7a72a2927a62622a902604482015290519081900360640190fd5b6001600160a01b03831660009081526013602052604090205460ff1615614c6c5760408051600160e51b62461bcd02815260206004820152600c60248201527f4552525f49535f424f554e440000000000000000000000000000000000000000604482015290519081900360640190fd5b601154600160a01b900460ff1615614cc45760408051600160e51b62461bcd0281526020600482015260106024820152600160821b6f11549497d254d7d1925390531256915102604482015290519081900360640190fd5b601254600811614d1e5760408051600160e51b62461bcd02815260206004820152600e60248201527f4552525f4d41585f544f4b454e53000000000000000000000000000000000000604482015290519081900360640190fd5b6040805160808101825260018082526012805460208085019182526000858701818152606087018281526001600160a01b038c1680845260139094529782209651875460ff1916901515178755925186860155915160028601559451600390940193909355805491820181559091527fbb8a6a4669ba250d26cd7a459eca9d215f8307e33aebe50379bc5a3617ec34440180546001600160a01b0319169091179055613958838383615c0d565b60118054600160a01b600160a01b60ff02199182168117909255600d80549091169091179055614e0368056bc75e2d631000006152a6565b614e163368056bc75e2d631000006149e9565b565b600080614e2586866150c5565b90506000614e3385856150c5565b90506000614e4183836150c5565b9050614e6d81604051806040016040528060058152602001600160d81b64726174696f02815250615e92565b614e9783604051806040016040528060058152602001600160d91b64373ab6b2b902815250615e92565b614ec182604051806040016040528060058152602001600160d81b6464656e6f6d02815250615e92565b60008054600154600254010190614ee4670de0b6b3a76400006148e7818561495e565b9050614ef083826147c5565b9a9950505050505050505050565b6001600160a01b038316600090815260076020526040902054811115614f6e5760408051600160e51b62461bcd02815260206004820152601460248201527f4552525f494e53554646494349454e545f42414c000000000000000000000000604482015290519081900360640190fd5b6001600160a01b038316600090815260076020526040902054614f91908261495e565b6001600160a01b038085166000908152600760205260408082209390935590841681522054614fc090826151ed565b6001600160a01b0380841660008181526007602090815260409182902094909455805185815290519193928716927fddf252ad1be2c89b69c2b068fc378daa952ba7f163c4a11628f55a4df523b3ef92918290030190a3505050565b6149e6816040516024018080602001828103825283818151815260200191508051906020019080838360005b83811015615060578181015183820152602001615048565b50505050905090810190601f16801561508d5780820380516001836020036101000a031916815260200191505b5060408051601f198184030181529190526020810180516001600160e01b0316600160e21b63104c13eb021790529250615f43915050565b60008161511c5760408051600160e51b62461bcd02815260206004820152600c60248201527f4552525f4449565f5a45524f0000000000000000000000000000000000000000604482015290519081900360640190fd5b670de0b6b3a764000083028315806151445750670de0b6b3a764000084828161514157fe5b04145b61518e5760408051600160e51b62461bcd0281526020600482015260106024820152600160821b6f11549497d1125597d25395115493905302604482015290519081900360640190fd5b600283048101818110156151e25760408051600160e51b62461bcd0281526020600482015260106024820152600160821b6f11549497d1125597d25395115493905302604482015290519081900360640190fd5b600084828161488f57fe5b60008282018381101561447d5760408051600160e51b62461bcd02815260206004820152601060248201527f4552525f4144445f4f564552464c4f5700000000000000000000000000000000604482015290519081900360640190fd5b60408051600160e01b6323b872dd0281526001600160a01b0384811660048301523060248301526044820184905291516000928616916323b872dd91606480830192602092919082900301818787803b158015614a4957600080fd5b6149e681615f64565b6000806152bc86856150c5565b905060006152d5614b6f670de0b6b3a76400008461495e565b905060006152ef85614afa670de0b6b3a76400008561495e565b905060006152fd8a836151ed565b9050600061530b828c6150c5565b9050600061531982876159d3565b90506000615327828c6147c5565b9050615333818c61495e565b9d9c50505050505050505050505050565b60008061535186856150c5565b9050600061535f86856151ed565b9050600061536d82886150c5565b90506000615383670de0b6b3a7640000856150c5565b9050600061539183836159d3565b9050600061539f828d6147c5565b905060006153ad828e61495e565b905060006153c6614b6f670de0b6b3a76400008a61495e565b9050614b8f826148e7670de0b6b3a76400008461495e565b600080806153fb86600360200201518760015b60200201516150c5565b9050600061541087600260200201518761495e565b905060006154258860026020020151836150c5565b9050600061543382856159d3565b905061544781670de0b6b3a764000061495e565b90506000600154600054600254010190506154886154768b60006004811061546b57fe5b6020020151846147c5565b6148e7670de0b6b3a76400008461495e565b965060006154ad886154a88a614afa670de0b6b3a764000060005461495e565b61495e565b6001600160a01b038a166000908152600360205260409020549091506154d390826151ed565b600360008b6001600160a01b03166001600160a01b0316815260200190815260200160002081905550600061551a896154a88b614afa670de0b6b3a764000060015461495e565b6001600160a01b038b1660009081526005602052604090205490915061554090826151ed565b6001600160a01b038b166000908152600560205260409020558b5161557d9061556990866147c5565b6148e7670de0b6b3a764000060025461495e565b97507f90d9f1d0641138b6407ac37bea3a905d63a371c2d91a484f68d59924634d4ef36155bc8a6154a88c614afa670de0b6b3a764000060025461495e565b60408051918252602082018590528181018490526001600160a01b038d166060830152519081900360800190a150505050505050935093915050565b6000808061560f86600160200201518760036153f1565b9050600061562f866154a888614afa670de0b6b3a764000060005461495e565b6001600160a01b03861660009081526003602052604090205490915061565590826151ed565b60036000876001600160a01b03166001600160a01b0316815260200190815260200160002081905550600061569c876154a889614afa670de0b6b3a764000060015461495e565b6001600160a01b0387166000908152600560205260409020549091506156c290826151ed565b6001600160a01b0387166000908152600560205260409020556002548083018201907f90d9f1d0641138b6407ac37bea3a905d63a371c2d91a484f68d59924634d4ef390615725908a906154a8908290614afa90670de0b6b3a76400009061495e565b60408051918252602082018690528181018590526001600160a01b038a166060830152519081900360800190a16000615766670de0b6b3a76400008361495e565b905061577289826147c5565b8a51909150600090615788906148e781856151ed565b9050600061579682886159d3565b905060006157ac670de0b6b3a76400008361495e565b90506157bf8d60026020020151826147c5565b8d51909a508a906157d29089890161495e565b995099505050505050505050935093915050565b6149d982826040516024018080602001838152602001828103825284818151815260200191508051906020019080838360005b83811015615831578181015183820152602001615819565b50505050905090810190601f16801561585e5780820380516001836020036101000a031916815260200191505b5060408051601f198184030181529190526020810180516001600160e01b0316600160e41b6309710a9d021790529350615f4392505050565b600d80546001600160a01b0319166001600160a01b0389811691909117909155600c805462010000600160b01b03191662010000928916929092029190911790558451600090869082906158e757fe5b60200260200101516002819055508560018151811061590257fe5b60200260200101516000819055508560028151811061591d57fe5b602090810291909101810151600155600d8054961515600160a01b908102600160a01b60ff02199889161791829055601180548751600e80546001600160a01b03199081166001600160a01b039384161790915598860151600f80548b169183169190911790558751601080548b169183169190911790559690940151861697151582029389169390931786169690961790915560158054909616851790931691909216179283905550900460ff169392505050565b60006001831015615a2e5760408051600160e51b62461bcd02815260206004820152601560248201527f4552525f42504f575f424153455f544f4f5f4c4f570000000000000000000000604482015290519081900360640190fd5b671bc16d674ec7ffff831115615a8e5760408051600160e51b62461bcd02815260206004820152601660248201527f4552525f42504f575f424153455f544f4f5f4849474800000000000000000000604482015290519081900360640190fd5b6000615a9983615fd9565b90506000615aa7848361495e565b90506000615abd86615ab885615ff4565b616002565b905081615ace5792506112c2915050565b6000615adf87846305f5e100616062565b9050615aeb82826147c5565b979650505050505050565b600080828410615b0c5750508082036000615b14565b505081810360015b9250929050565b6149d9823083614efe565b30600090815260076020526040902054811115615b8d5760408051600160e51b62461bcd02815260206004820152601460248201527f4552525f494e53554646494349454e545f42414c000000000000000000000000604482015290519081900360640190fd5b30600090815260076020526040902054615ba7908261495e565b30600090815260076020526040902055600954615bc4908261495e565b60095560408051828152905160009130917fddf252ad1be2c89b69c2b068fc378daa952ba7f163c4a11628f55a4df523b3ef9181900360200190a350565b6149d9308383614efe565b670de0b6b3a7640000811015615c6d5760408051600160e51b62461bcd02815260206004820152600e60248201527f4552525f4d494e5f574549474854000000000000000000000000000000000000604482015290519081900360640190fd5b6802b5e3af16b1880000811115615cce5760408051600160e51b62461bcd02815260206004820152600e60248201527f4552525f4d41585f574549474854000000000000000000000000000000000000604482015290519081900360640190fd5b620f4240821015615d295760408051600160e51b62461bcd02815260206004820152600f60248201527f4552525f4d494e5f42414c414e43450000000000000000000000000000000000604482015290519081900360640190fd5b6001600160a01b03831660009081526013602052604090206002015480821115615dcc57615d62601454615d5d848461495e565b6151ed565b60148190556802b5e3af16b18800001015615dc75760408051600160e51b62461bcd02815260206004820152601460248201527f4552525f4d41585f544f54414c5f574549474854000000000000000000000000604482015290519081900360640190fd5b615de8565b80821015615de857615de46014546154a8838561495e565b6014555b6001600160a01b03841660009081526013602052604090206002810183905560030180549084905580841115615e3157615e2c8533615e27878561495e565b61524a565b615e8b565b80841015615e8b576000615e45828661495e565b90506000615e548260006147c5565b9050615e6a8733615e65858561495e565b6149f3565b600c54615e889088906201000090046001600160a01b0316836149f3565b50505b5050505050565b6149d982826040516024018083815260200180602001828103825283818151815260200191508051906020019080838360005b83811015615edd578181015183820152602001615ec5565b50505050905090810190601f168015615f0a5780820380516001836020036101000a031916815260200191505b5060408051601f198184030181529190526020810180516001600160e01b0316600160e01b630fa3f345021790529350615f4392505050565b80516a636f6e736f6c652e6c6f67602083016000808483855afa5050505050565b30600090815260076020526040902054615f7e90826151ed565b30600090815260076020526040902055600954615f9b90826151ed565b60095560408051828152905130916000917fddf252ad1be2c89b69c2b068fc378daa952ba7f163c4a11628f55a4df523b3ef9181900360200190a350565b6000670de0b6b3a7640000615fed83615ff4565b0292915050565b670de0b6b3a7640000900490565b600082816002840661601c57670de0b6b3a764000061601e565b815b90506002840493505b831561605a5761603782836147c5565b9150600284061561604f5761604c81836147c5565b90505b600284049350616027565b949350505050565b600082818061607987670de0b6b3a7640000615af6565b9092509050670de0b6b3a764000080600060015b888410616131576000670de0b6b3a7640000820290506000806160c18a6160bc85670de0b6b3a764000061495e565b615af6565b915091506160d387614afa848c6147c5565b96506160df87846150c5565b9650866160ee57505050616131565b87156160f8579315935b8015616102579315935b841561611957616112868861495e565b9550616126565b61612386886151ed565b95505b50505060010161608d565b50909998505050505050505050565b6040518060800160405280600490602082028038833950919291505056fe4552525f4e4f545f46494e414c495a45440000000000000000000000000000009d9058fd2f25ccc389fec7720abef0ca83472f5abfafd5f10d37f51e6a0493f3fcda32798d5a9d032f49b37fea876d422f18f6e386e0f07db6029b693624b2c215a8ca63e37b2cff1677df2b6b82d36fcf8a524228bd7a4b4d02d107c28c1e8a4552525f4e4f545f424f554e44000000000000000000000000000000000000008c5be1e5ebec7d5bd14f71427d1e84f3dd0314c0f7b2291e5b200ac8c7c3b9254552525f4d4154485f415050524f580000000000000000000000000000000000a165627a7a72305820fbfaf18530137b39e847c5b4f1fd57557166505fea30017d3136e813f7658a12002942466163746f72793a20696e76616c69642062706f6f6c2074656d706c617465207a65726f2061646472657373",
  "linkReferences": {},
  "deployedLinkReferences": {}
}