{
  "_format": "hh-sol-artifact-1",
  "contractName": "BFactory",
  "sourceName": "contracts/v3/balancer/BFactory.sol",
  "abi": [
    {
      "constant": true,
      "inputs": [],
      "name": "getCreationCode",
      "outputs": [
        {
          "name": "",
          "type": "bytes"
        }
      ],
      "payable": false,
      "stateMutability": "view",
      "type": "function"
    },
    {
      "constant": true,
      "inputs": [],
      "name": "MAX_TOTAL_WEIGHT",
      "outputs": [
        {
          "name": "",
          "type": "uint256"
        }
      ],
      "payable": false,
      "stateMutability": "view",
      "type": "function"
    },
    {
      "constant": true,
      "inputs": [],
      "name": "getCreationCodeContracts",
      "outputs": [
        {
          "name": "contractA",
          "type": "address"
        },
        {
          "name": "contractB",
          "type": "address"
        }
      ],
      "payable": false,
      "stateMutability": "view",
      "type": "function"
    },
    {
      "constant": true,
      "inputs": [],
      "name": "BPOW_PRECISION",
      "outputs": [
        {
          "name": "",
          "type": "uint256"
        }
      ],
      "payable": false,
      "stateMutability": "view",
      "type": "function"
    },
    {
      "constant": true,
      "inputs": [],
      "name": "MIN_WEIGHT",
      "outputs": [
        {
          "name": "",
          "type": "uint256"
        }
      ],
      "payable": false,
      "stateMutability": "view",
      "type": "function"
    },
    {
      "constant": true,
      "inputs": [],
      "name": "MIN_FEE",
      "outputs": [
        {
          "name": "",
          "type": "uint256"
        }
      ],
      "payable": false,
      "stateMutability": "view",
      "type": "function"
    },
    {
      "constant": true,
      "inputs": [],
      "name": "MIN_BALANCE",
      "outputs": [
        {
          "name": "",
          "type": "uint256"
        }
      ],
      "payable": false,
      "stateMutability": "view",
      "type": "function"
    },
    {
      "constant": true,
      "inputs": [],
      "name": "INIT_POOL_SUPPLY",
      "outputs": [
        {
          "name": "",
          "type": "uint256"
        }
      ],
      "payable": false,
      "stateMutability": "view",
      "type": "function"
    },
    {
      "constant": true,
      "inputs": [],
      "name": "MAX_OUT_RATIO",
      "outputs": [
        {
          "name": "",
          "type": "uint256"
        }
      ],
      "payable": false,
      "stateMutability": "view",
      "type": "function"
    },
    {
      "constant": true,
      "inputs": [],
      "name": "opfCollector",
      "outputs": [
        {
          "name": "",
          "type": "address"
        }
      ],
      "payable": false,
      "stateMutability": "view",
      "type": "function"
    },
    {
      "constant": true,
      "inputs": [],
      "name": "MAX_BOUND_TOKENS",
      "outputs": [
        {
          "name": "",
          "type": "uint256"
        }
      ],
      "payable": false,
      "stateMutability": "view",
      "type": "function"
    },
    {
      "constant": true,
      "inputs": [],
      "name": "MIN_BOUND_TOKENS",
      "outputs": [
        {
          "name": "",
          "type": "uint256"
        }
      ],
      "payable": false,
      "stateMutability": "view",
      "type": "function"
    },
    {
      "constant": true,
      "inputs": [],
      "name": "MIN_BPOW_BASE",
      "outputs": [
        {
          "name": "",
          "type": "uint256"
        }
      ],
      "payable": false,
      "stateMutability": "view",
      "type": "function"
    },
    {
      "constant": true,
      "inputs": [],
      "name": "bpoolTemplate",
      "outputs": [
        {
          "name": "",
          "type": "address"
        }
      ],
      "payable": false,
      "stateMutability": "view",
      "type": "function"
    },
    {
      "constant": true,
      "inputs": [],
      "name": "MAX_FEE",
      "outputs": [
        {
          "name": "",
          "type": "uint256"
        }
      ],
      "payable": false,
      "stateMutability": "view",
      "type": "function"
    },
    {
      "constant": true,
      "inputs": [],
      "name": "MAX_BPOW_BASE",
      "outputs": [
        {
          "name": "",
          "type": "uint256"
        }
      ],
      "payable": false,
      "stateMutability": "view",
      "type": "function"
    },
    {
      "constant": true,
      "inputs": [],
      "name": "BONE",
      "outputs": [
        {
          "name": "",
          "type": "uint256"
        }
      ],
      "payable": false,
      "stateMutability": "view",
      "type": "function"
    },
    {
      "constant": true,
      "inputs": [],
      "name": "EXIT_FEE",
      "outputs": [
        {
          "name": "",
          "type": "uint256"
        }
      ],
      "payable": false,
      "stateMutability": "view",
      "type": "function"
    },
    {
      "constant": true,
      "inputs": [],
      "name": "MAX_WEIGHT",
      "outputs": [
        {
          "name": "",
          "type": "uint256"
        }
      ],
      "payable": false,
      "stateMutability": "view",
      "type": "function"
    },
    {
      "constant": true,
      "inputs": [],
      "name": "MAX_IN_RATIO",
      "outputs": [
        {
          "name": "",
          "type": "uint256"
        }
      ],
      "payable": false,
      "stateMutability": "view",
      "type": "function"
    },
    {
      "inputs": [
        {
          "name": "_bpoolTemplate",
          "type": "address"
        },
        {
          "name": "_opfCollector",
          "type": "address"
        },
        {
          "name": "_preCreatedPools",
          "type": "address[]"
        }
      ],
      "payable": false,
      "stateMutability": "nonpayable",
      "type": "constructor"
    },
    {
      "anonymous": false,
      "inputs": [
        {
          "indexed": true,
          "name": "newBPoolAddress",
          "type": "address"
        },
        {
          "indexed": true,
          "name": "registeredBy",
          "type": "address"
        },
        {
          "indexed": true,
          "name": "datatokenAddress",
          "type": "address"
        },
        {
          "indexed": false,
          "name": "basetokenAddress",
          "type": "address"
        },
        {
          "indexed": false,
          "name": "bpoolTemplateAddress",
          "type": "address"
        },
        {
          "indexed": false,
          "name": "ssAddress",
          "type": "address"
        }
      ],
      "name": "BPoolCreated",
      "type": "event"
    },
    {
      "anonymous": false,
      "inputs": [
        {
          "indexed": false,
          "name": "instance",
          "type": "address"
        }
      ],
      "name": "InstanceDeployed",
      "type": "event"
    }
  ],
  "bytecode": "0x608060405234801561001057600080fd5b50604051616a83380380616a838339810180604052606081101561003357600080fd5b815160208301516040840180519294919382019264010000000081111561005957600080fd5b8201602081018481111561006c57600080fd5b815185602082028301116401000000008211171561008957600080fd5b5050929190505050604051806020016100a190610393565b601f1982820381018352601f90910116604052805160006002820460018190558083036003819055818552909150836100e4816102e3602090811b61043817901c565b600080546001600160a01b0319166001600160a01b03929092169190911790558285018051838252610120826102e3602090811b61043817901c565b600280546001600160a01b0319166001600160a01b039283161790559590925252505084161515905061019e576040517f08c379a000000000000000000000000000000000000000000000000000000000815260040180806020018281038252602d815260200180616a56602d913960400191505060405180910390fd5b6001600160a01b03821661021357604080517f08c379a000000000000000000000000000000000000000000000000000000000815260206004820152601660248201527f42466163746f72793a207a65726f206164647265737300000000000000000000604482015290519081900360640190fd5b600480546001600160a01b038086166001600160a01b03199283161790925560058054928516929091169190911790558051156102db5760005b81518110156102d95760006001600160a01b0316336001600160a01b031683838151811061027757fe5b60209081029190910181015160408051600080825293810184905280820193909352516001600160a01b03909116917fbb6121447d29a04cc37bfd93cdf6a9dd08229f2d941116c1528f04698c4e790e919081900360600190a460010161024d565b505b5050506103a0565b80517f602038038060206000396000f3fefefefefefefefefefefefefefefefefefefe808352600091602081018484f090845291506001600160a01b03821661038d57604080517f08c379a000000000000000000000000000000000000000000000000000000000815260206004820152601660248201527f434f44455f4445504c4f594d454e545f4641494c454400000000000000000000604482015290519081900360640190fd5b50919050565b6161aa806108ac83390190565b6104fd806103af6000396000f3fe608060405234801561001057600080fd5b506004361061012b5760003560e01c8063b0e0d136116100ad578063bc694ea211610071578063bc694ea214610271578063c36596a6146101fd578063c6580d1214610279578063e4a28a52146101ad578063ec093021146102815761012b565b8063b0e0d13614610249578063b7b800a414610251578063ba019dab14610259578063bae6ae1214610261578063bc063e1a146102695761012b565b806376c7a3c7116100f457806376c7a3c714610205578063867378c51461020d5780639381cd2b14610215578063992e2a921461021d578063a28f78f1146102255761012b565b8062c194db1461013057806309a3bbe4146101ad578063174481fa146101c7578063189d00ca146101f5578063218b5382146101fd575b600080fd5b610138610289565b6040805160208082528351818301528351919283929083019185019080838360005b8381101561017257818101518382015260200161015a565b50505050905090810190601f16801561019f5780820380516001836020036101000a031916815260200191505b509250505060405180910390f35b6101b56102a8565b60408051918252519081900360200190f35b6101cf6102b5565b604080516001600160a01b03938416815291909216602082015281519081900390910190f35b6101b56102cc565b6101b56102e0565b6101b56102ec565b6101b56102fe565b6101b5610312565b6101b561031f565b61022d61032b565b604080516001600160a01b039092168252519081900360200190f35b6101b561033a565b6101b561033f565b6101b5610344565b61022d610349565b6101b5610358565b6101b5610368565b6101b5610374565b6101b5610379565b60606102a360405180602001604052806000815250610389565b905090565b6802b5e3af16b188000081565b6000546002546001600160a01b0391821691169091565b6402540be400670de0b6b3a76400005b0481565b670de0b6b3a764000081565b620f4240670de0b6b3a76400006102dc565b64e8d4a51000670de0b6b3a76400006102dc565b68056bc75e2d6310000081565b6704a03ce68d21555681565b6005546001600160a01b031681565b600881565b600281565b600181565b6004546001600160a01b031681565b600a670de0b6b3a76400006102dc565b671bc16d674ec7ffff81565b600081565b6002670de0b6b3a76400006102dc565b60008054600154600254600354855160408051838601838101828101602090810190945280835291986001600160a01b039889169896909616959093928901908790828a3c846000888301883c50602089810190898501016103ec8183866103fa565b505050505050505050919050565b5b6020811061041a578151835260209283019290910190601f19016103fb565b905182516020929092036101000a6000190180199091169116179052565b80517f602038038060206000396000f3fefefefefefefefefefefefefefefefefefefe808352600091602081018484f090845291506001600160a01b0382166104cb5760408051600160e51b62461bcd02815260206004820152601660248201527f434f44455f4445504c4f594d454e545f4641494c454400000000000000000000604482015290519081900360640190fd5b5091905056fea165627a7a72305820c16465573bca722a396c43f5386725d877c2500241e5e6020139b67c46fba827002960c0604052601360808190527f42616c616e63657220506f6f6c20546f6b656e0000000000000000000000000060a09081526200004091600a9190620000a9565b506040805180820190915260038082527f425054000000000000000000000000000000000000000000000000000000000060209092019182526200008791600b91620000a9565b50600c805460ff19166012179055348015620000a257600080fd5b506200014e565b828054600181600116156101000203166002900490600052602060002090601f016020900481019282601f10620000ec57805160ff19168380011785556200011c565b828001600101855582156200011c579182015b828111156200011c578251825591602001919060010190620000ff565b506200012a9291506200012e565b5090565b6200014b91905b808211156200012a576000815560010162000135565b90565b61604c806200015e6000396000f3fe608060405234801561001057600080fd5b50600436106103db5760003560e01c80638d4e40831161020a578063be3bbd2e11610125578063dd62ed3e116100b8578063f1b8a9b711610087578063f1b8a9b714610bc3578063f542f6cf14610be9578063f8b2cb4f14610c0f578063fbb9dd5014610c35578063fde924f714610c5b576103db565b8063dd62ed3e14610b85578063e4a28a5214610505578063ec09302114610bb3578063f0f13f0b14610bbb576103db565b8063cc77828d116100f4578063cc77828d14610b41578063cd2ed8fb14610b49578063d4cadf6814610b51578063d73dd62314610b59576103db565b8063be3bbd2e14610a43578063c070a6d814610a9b578063c36596a614610595578063c6580d1214610b39576103db565b8063a9059cbb1161019d578063b80483b01161016c578063b80483b014610a23578063ba019dab14610a2b578063bc063e1a14610a33578063bc694ea214610a3b576103db565b8063a9059cbb14610970578063b02f0b731461099c578063b0e0d13614610a13578063b7b800a414610a1b576103db565b8063948d8ce6116101d9578063948d8ce61461093257806395d89b4114610958578063992e2a9214610960578063a562ddf014610968576103db565b80638d4e4083146108f457806391f2a496146108fc578063936c3477146109225780639381cd2b1461092a576103db565b806334e19907116102fa5780636d06dfa01161028d5780637c5e9ea41161025c5780637c5e9ea41461082d5780637c6e92c2146108865780638201aa3f146108ac578063867378c5146108ec576103db565b80636d06dfa0146107a757806370330518146107d957806370a08231146107ff57806376c7a3c714610825576103db565b80634df947d0116102c95780634df947d0146106ca5780634f69c0d4146106d25780635db3427714610749578063661884631461077b576103db565b806334e199071461066b578063392e53cd1461068857806346ab38f11461069057806349e9350f146106c2576103db565b8063189d00ca11610372578063300621921161034157806330062192146105f95780633018205f1461061f578063313ce5671461062757806331e2761b14610645576103db565b8063189d00ca1461058d578063218b53821461059557806323b872dd1461059d5780632f37b624146105d3576103db565b806309a3bbe4116103ae57806309a3bbe41461050557806309ef3f5b1461050d57806315e84af91461055757806318160ddd14610585576103db565b806302c96748146103e057806304ad79541461042457806306fdde0314610448578063095ea7b3146104c5575b600080fd5b610412600480360360608110156103f657600080fd5b506001600160a01b038135169060208101359060400135610c63565b60408051918252519081900360200190f35b61042c6111ce565b604080516001600160a01b039092168252519081900360200190f35b6104506111dd565b6040805160208082528351818301528351919283929083019185019080838360005b8381101561048a578181015183820152602001610472565b50505050905090810190601f1680156104b75780820380516001836020036101000a031916815260200191505b509250505060405180910390f35b6104f1600480360360408110156104db57600080fd5b506001600160a01b038135169060200135611273565b604080519115158252519081900360200190f35b6104126112c8565b610555600480360360c081101561052357600080fd5b506001600160a01b03813581169160208101359160408201359160608101359091169060808101359060a001356112d5565b005b6104126004803603604081101561056d57600080fd5b506001600160a01b0381358116916020013516611491565b6104126115ea565b6104126115f0565b610412611604565b6104f1600480360360608110156105b357600080fd5b506001600160a01b03813581169160208101359091169060400135611610565b6104f1600480360360208110156105e957600080fd5b50356001600160a01b0316611775565b6104126004803603602081101561060f57600080fd5b50356001600160a01b0316611793565b61042c6117a5565b61062f6117b4565b6040805160ff9092168252519081900360200190f35b6104126004803603602081101561065b57600080fd5b50356001600160a01b03166117bd565b6105556004803603602081101561068157600080fd5b50356117cf565b6104f1611925565b610412600480360360608110156106a657600080fd5b506001600160a01b038135169060208101359060400135611935565b610412611e53565b61042c611e59565b610555600480360360408110156106e857600080fd5b8135919081019060408101602082013564010000000081111561070a57600080fd5b82018360208201111561071c57600080fd5b8035906020019184602083028401116401000000008311171561073e57600080fd5b509092509050611e68565b6104126004803603606081101561075f57600080fd5b506001600160a01b0381351690602081013590604001356121ee565b6104f16004803603604081101561079157600080fd5b506001600160a01b038135169060200135612772565b610412600480360360608110156107bd57600080fd5b506001600160a01b03813516906020810135906040013561284a565b610555600480360360208110156107ef57600080fd5b50356001600160a01b0316612d33565b6104126004803603602081101561081557600080fd5b50356001600160a01b0316612db7565b610412612dd2565b61086d600480360360a081101561084357600080fd5b506001600160a01b0381358116916020810135916040820135169060608101359060800135612de4565b6040805192835260208301919091528051918290030190f35b6104126004803603602081101561089c57600080fd5b50356001600160a01b0316613295565b61086d600480360360a08110156108c257600080fd5b506001600160a01b03813581169160208101359160408201351690606081013590608001356132a7565b61041261373d565b6104f1613751565b6105556004803603602081101561091257600080fd5b50356001600160a01b0316613761565b610412613964565b6104126139bf565b6104126004803603602081101561094857600080fd5b50356001600160a01b03166139cc565b610450613a9d565b610412613afe565b61042c613b0a565b6104f16004803603604081101561098657600080fd5b506001600160a01b038135169060200135613b19565b610555600480360360408110156109b257600080fd5b813591908101906040810160208201356401000000008111156109d457600080fd5b8201836020820111156109e657600080fd5b80359060200191846020830284011164010000000083111715610a0857600080fd5b509092509050613b2f565b610412613ed0565b610412613ed5565b610412613eda565b610412613ee0565b610412613ee5565b610412613ef5565b610a4b613f01565b60408051602080825283518183015283519192839290830191858101910280838360005b83811015610a87578181015183820152602001610a6f565b505050509050019250505060405180910390f35b6104f16004803603610120811015610ab257600080fd5b6001600160a01b038235811692602081013590911691810190606081016040820135640100000000811115610ae657600080fd5b820183602082011115610af857600080fd5b80359060200191846020830284011164010000000083111715610b1a57600080fd5b9193509150803515159060208101351515906040810190608001614003565b610412614278565b610a4b61427d565b6104126142d1565b6104126142d7565b6104f160048036036040811015610b6f57600080fd5b506001600160a01b0381351690602001356142dd565b61041260048036036040811015610b9b57600080fd5b506001600160a01b038135811691602001351661435e565b610412614389565b61042c614399565b61041260048036036020811015610bd957600080fd5b50356001600160a01b03166143a8565b61041260048036036020811015610bff57600080fd5b50356001600160a01b031661448b565b61041260048036036020811015610c2557600080fd5b50356001600160a01b031661449d565b61055560048036036020811015610c4b57600080fd5b50356001600160a01b031661456e565b6104f161477e565b600c54600090610100900460ff1615610cb75760408051600160e51b62461bcd02815260206004820152600b6024820152600160a81b6a4552525f5245454e54525902604482015290519081900360640190fd5b600c805461ff001916610100179055601154600160a01b900460ff16610d155760408051600160e51b62461bcd0281526020600482015260116024820152600080516020615f41833981519152604482015290519081900360640190fd5b6001600160a01b03841660009081526013602052604090205460ff16610d735760408051600160e51b62461bcd02815260206004820152600d6024820152600080516020615fc1833981519152604482015290519081900360640190fd5b6001600160a01b0384166000908152601360205260409020600390810154610da891670de0b6b3a76400005b0460010161478e565b831115610df65760408051600160e51b62461bcd0281526020600482015260116024820152600160781b704552525f4d41585f4f55545f524154494f02604482015290519081900360640190fd5b600e546001600160a01b039081166000818152601360205260408120909283929088161415610e3257600f546001600160a01b03169150610e57565b5050600e54600f546001600160a01b0390811660009081526013602052604090209116905b6001600160a01b038716600090815260136020526040902060038101546002820154600954601454610e8c939291908b614863565b945084610ed15760408051600160e51b62461bcd02815260206004820152600f6024820152600080516020616001833981519152604482015290519081900360640190fd5b85851115610f1b5760408051600160e51b62461bcd02815260206004820152600c6024820152600160a11b6b22a9292fa624a6a4aa2fa4a702604482015290519081900360640190fd5b610f29816003015488614927565b60038201556000610f3a868261478e565b604080518a815242602082015281519293506001600160a01b038c16923392600080516020615f61833981519152928290030190a3604080518781529051600080516020615f818339815191529181900360200190a1610f9a3387614998565b610fac610fa78783614927565b6149a6565b600c54610fc8906201000090046001600160a01b0316826149b2565b610fd389338a6149bc565b6000610fee846003015485600201546009546014548b614a9b565b601554600e5460408051600160e01b63efd481030281526001600160a01b039283166004820152898316602482015260448101859052905193945091169163efd4810391606480820192602092909190829003018186803b15801561105257600080fd5b505afa158015611066573d6000803e3d6000fd5b505050506040513d602081101561107c57600080fd5b50511515600114156111b657611096846003015482614927565b60038501556110a687600061478e565b600d546040805184815242602082015281519395506001600160a01b03808a1694931692600080516020615f61833981519152929181900390910190a3600d546110f9906001600160a01b031688614998565b611106610fa78884614927565b600c54611122906201000090046001600160a01b0316836149b2565b600d5461113a9086906001600160a01b0316836149bc565b601554600e5460408051600160e11b63679346f50281526001600160a01b0392831660048201528883166024820152604481018590529051919092169163cf268dea91606480830192600092919082900301818387803b15801561119d57600080fd5b505af11580156111b1573d6000803e3d6000fd5b505050505b505050505050600c805461ff00191690559392505050565b600e546001600160a01b031690565b600a8054604080516020601f60026000196101006001881615020190951694909404938401819004810282018101909252828152606093909290918301828280156112695780601f1061123e57610100808354040283529160200191611269565b820191906000526020600020905b81548152906001019060200180831161124c57829003601f168201915b5050505050905090565b3360008181526008602090815260408083206001600160a01b03871680855290835281842086905581518681529151939490939092600080516020615fe1833981519152928290030190a35060015b92915050565b6802b5e3af16b188000081565b600d546001600160a01b031633146113375760408051600160e51b62461bcd02815260206004820152601660248201527f4552525f494e56414c49445f434f4e54524f4c4c455200000000000000000000604482015290519081900360640190fd5b600e546001600160a01b0387811691161461139c5760408051600160e51b62461bcd02815260206004820152601d60248201527f4552525f494e56414c49445f44415441544f4b454e5f41444452455353000000604482015290519081900360640190fd5b600f546001600160a01b038481169116146114015760408051600160e51b62461bcd02815260206004820152601d60248201527f4552525f494e56414c49445f42415345544f4b454e5f41444452455353000000604482015290519081900360640190fd5b61140c868686614b6a565b6040805186815242602082015281516001600160a01b038916923392600080516020615fa1833981519152929081900390910190a361144c838383614b6a565b6040805183815242602082015281516001600160a01b038616923392600080516020615fa1833981519152929081900390910190a3611489614d94565b505050505050565b600c54600090610100900460ff16156114e55760408051600160e51b62461bcd02815260206004820152600b6024820152600160a81b6a4552525f5245454e54525902604482015290519081900360640190fd5b6001600160a01b03831660009081526013602052604090205460ff166115435760408051600160e51b62461bcd02815260206004820152600d6024820152600080516020615fc1833981519152604482015290519081900360640190fd5b6001600160a01b03821660009081526013602052604090205460ff166115a15760408051600160e51b62461bcd02815260206004820152600d6024820152600080516020615fc1833981519152604482015290519081900360640190fd5b6001600160a01b038084166000908152601360205260408082209285168252902060038083015460028085015492840154908401546115e1939190614de1565b95945050505050565b60095490565b6402540be400670de0b6b3a76400005b0481565b670de0b6b3a764000081565b6000336001600160a01b038516148061164c57506001600160a01b03841660009081526008602090815260408083203384529091529020548211155b6116a05760408051600160e51b62461bcd02815260206004820152601560248201527f4552525f42544f4b454e5f4241445f43414c4c45520000000000000000000000604482015290519081900360640190fd5b6116ab848484614e3a565b336001600160a01b038516148015906116e957506001600160a01b038416600090815260086020908152604080832033845290915290205460001914155b1561176b576001600160a01b038416600090815260086020908152604080832033845290915290205461171c9083614927565b6001600160a01b0385811660009081526008602090815260408083203380855290835292819020859055805194855251928716939192600080516020615fe18339815191529281900390910190a35b5060019392505050565b6001600160a01b031660009081526013602052604090205460ff1690565b60036020526000908152604090205481565b600d546001600160a01b031690565b600c5460ff1690565b60056020526000908152604090205481565b601154600160a01b900460ff16156118275760408051600160e51b62461bcd0281526020600482015260106024820152600160821b6f11549497d254d7d1925390531256915102604482015290519081900360640190fd5b600d546001600160a01b031633146118815760408051600160e51b62461bcd0281526020600482015260126024820152600160711b7122a9292fa727aa2fa1a7a72a2927a62622a902604482015290519081900360640190fd5b64e8d4a510008110156118cf5760408051600160e51b62461bcd02815260206004820152600b6024820152600160a81b6a4552525f4d494e5f46454502604482015290519081900360640190fd5b67016345785d8a00008111156119205760408051600160e51b62461bcd02815260206004820152600b6024820152600160a81b6a4552525f4d41585f46454502604482015290519081900360640190fd5b600255565b601554600160a01b900460ff1690565b600c54600090610100900460ff16156119895760408051600160e51b62461bcd02815260206004820152600b6024820152600160a81b6a4552525f5245454e54525902604482015290519081900360640190fd5b600c805461ff001916610100179055601154600160a01b900460ff166119e75760408051600160e51b62461bcd0281526020600482015260116024820152600080516020615f41833981519152604482015290519081900360640190fd5b6001600160a01b03841660009081526013602052604090205460ff16611a455760408051600160e51b62461bcd02815260206004820152600d6024820152600080516020615fc1833981519152604482015290519081900360640190fd5b6001600160a01b038416600090815260136020526040902060038101546002820154600954601454611a7a9392919088614a9b565b915082821015611ac75760408051600160e51b62461bcd02815260206004820152600d60248201526001609a1b6c11549497d31253525517d3d55502604482015290519081900360640190fd5b6001600160a01b0385166000908152601360205260409020600390810154611af791670de0b6b3a7640000610d9f565b821115611b455760408051600160e51b62461bcd0281526020600482015260116024820152600160781b704552525f4d41585f4f55545f524154494f02604482015290519081900360640190fd5b600e546001600160a01b039081166000818152601360205260408120909290919088161415611b8157600f546001600160a01b03169150611ba6565b5050600e54600f546001600160a01b0390811660009081526013602052604090209116905b611bb4836003015485614927565b60038401556000611bc5878261478e565b6040805187815242602082015281519293506001600160a01b038b16923392600080516020615f61833981519152928290030190a3604080518881529051600080516020615f818339815191529181900360200190a1611c253388614998565b611c32610fa78883614927565b600c54611c4e906201000090046001600160a01b0316826149b2565b611c598833876149bc565b6000611c74836003015484600201546009546014548c614a9b565b601554600e5460408051600160e01b63efd481030281526001600160a01b039283166004820152888316602482015260448101859052905193945091169163efd4810391606480820192602092909190829003018186803b158015611cd857600080fd5b505afa158015611cec573d6000803e3d6000fd5b505050506040513d6020811015611d0257600080fd5b5051151560011415611e3c57611d1c836003015482614927565b6003840155611d2c88600061478e565b600d546040805184815242602082015281519395506001600160a01b0380891694931692600080516020615f61833981519152929181900390910190a3600d54611d7f906001600160a01b031689614998565b611d8c610fa78984614927565b600c54611da8906201000090046001600160a01b0316836149b2565b600d54611dc09085906001600160a01b0316836149bc565b601554600e5460408051600160e11b63679346f50281526001600160a01b0392831660048201528783166024820152604481018590529051919092169163cf268dea91606480830192600092919082900301818387803b158015611e2357600080fd5b505af1158015611e37573d6000803e3d6000fd5b505050505b5050505050600c805461ff00191690559392505050565b60015481565b600f546001600160a01b031690565b600c54610100900460ff1615611eb95760408051600160e51b62461bcd02815260206004820152600b6024820152600160a81b6a4552525f5245454e54525902604482015290519081900360640190fd5b600c805461ff001916610100179055601154600160a01b900460ff16611f175760408051600160e51b62461bcd0281526020600482015260116024820152600080516020615f41833981519152604482015290519081900360640190fd5b600080805b601254811015611fca57600e54601280546001600160a01b039092169183908110611f4357fe5b6000918252602090912001546001600160a01b03161415611f7457848482818110611f6a57fe5b9050602002013592505b600f54601280546001600160a01b039092169183908110611f9157fe5b6000918252602090912001546001600160a01b03161415611fc257848482818110611fb857fe5b9050602002013591505b600101611f1c565b506000611fd56115ea565b90506000611fe38783614f58565b9050806120285760408051600160e51b62461bcd02815260206004820152600f6024820152600080516020616001833981519152604482015290519081900360640190fd5b60005b6012548110156121a55760006012828154811061204457fe5b60009182526020808320909101546001600160a01b03168083526013909152604082206003015490925090612079858361478e565b9050806120be5760408051600160e51b62461bcd02815260206004820152600f6024820152600080516020616001833981519152604482015290519081900360640190fd5b8989858181106120ca57fe5b9050602002013581111561211a5760408051600160e51b62461bcd02815260206004820152600c6024820152600160a11b6b22a9292fa624a6a4aa2fa4a702604482015290519081900360640190fd5b6001600160a01b0383166000908152601360205260409020600301546121409082615080565b6001600160a01b0384166000818152601360209081526040918290206003019390935580518481524293810193909352805191923392600080516020615fa1833981519152929181900390910190a361219a8333836150dd565b50505060010161202b565b506121af87615139565b6121b933886149b2565b604080518881529051600080516020615f818339815191529181900360200190a15050600c805461ff00191690555050505050565b600c54600090610100900460ff16156122425760408051600160e51b62461bcd02815260206004820152600b6024820152600160a81b6a4552525f5245454e54525902604482015290519081900360640190fd5b600c805461ff001916610100179055601154600160a01b900460ff166122a05760408051600160e51b62461bcd0281526020600482015260116024820152600080516020615f41833981519152604482015290519081900360640190fd5b6001600160a01b03841660009081526013602052604090205460ff166122fe5760408051600160e51b62461bcd02815260206004820152600d6024820152600080516020615fc1833981519152604482015290519081900360640190fd5b6001600160a01b038416600090815260136020526040902060030154612330906002670de0b6b3a76400005b0461478e565b83111561237d5760408051600160e51b62461bcd0281526020600482015260106024820152600160801b6f4552525f4d41585f494e5f524154494f02604482015290519081900360640190fd5b600e546001600160a01b039081166000818152601360205260408120909290918391881614156123b95750600f546001600160a01b03166123de565b5050600f546001600160a01b039081166000908152601360205260409020600e549091165b6001600160a01b038716600090815260136020526040902060038101546002820154600954601454612413939291908b615142565b9450858510156124605760408051600160e51b62461bcd02815260206004820152600d60248201526001609a1b6c11549497d31253525517d3d55502604482015290519081900360640190fd5b61246e816003015488615080565b60038201556040805188815242602082015281516001600160a01b038b16923392600080516020615fa1833981519152929081900390910190a3604080518681529051600080516020615f818339815191529181900360200190a16124d285615139565b6124dc33866149b2565b6124e78833896150dd565b6000612502846003015485600201546009546014548a6151d7565b601554600e5460408051600160e01b6326b1f01f0281526001600160a01b03928316600482015287831660248201526044810185905290519394506125be9391909216916326b1f01f916064808301926020929190829003018186803b15801561256b57600080fd5b505afa15801561257f573d6000803e3d6000fd5b505050506040513d602081101561259557600080fd5b50516040805180820190915260088152600160c01b6763616e7374616b65026020820152615271565b601554600e5460408051600160e01b6326b1f01f0281526001600160a01b039283166004820152868316602482015260448101859052905191909216916326b1f01f916064808301926020929190829003018186803b15801561262057600080fd5b505afa158015612634573d6000803e3d6000fd5b505050506040513d602081101561264a57600080fd5b5051151560011415611e3c57601554600e5460408051600160e01b6399039fcf0281526001600160a01b039283166004820152868316602482015260448101859052905191909216916399039fcf91606480830192600092919082900301818387803b1580156126b957600080fd5b505af11580156126cd573d6000803e3d6000fd5b505050506126df846003015482615080565b6003850155600d546040805183815242602082015281516001600160a01b03808816941692600080516020615fa1833981519152928290030190a3604080518781529051600080516020615f818339815191529181900360200190a161274486615139565b600d5461275a906001600160a01b0316876149b2565b600d54611e3c9084906001600160a01b0316836150dd565b3360009081526008602090815260408083206001600160a01b0386168452909152812054808311156127c7573360009081526008602090815260408083206001600160a01b03881684529091528120556127f6565b6127d18184614927565b3360009081526008602090815260408083206001600160a01b03891684529091529020555b3360008181526008602090815260408083206001600160a01b038916808552908352928190205481519081529051929392600080516020615fe1833981519152929181900390910190a35060019392505050565b600c54600090610100900460ff161561289e5760408051600160e51b62461bcd02815260206004820152600b6024820152600160a81b6a4552525f5245454e54525902604482015290519081900360640190fd5b600c805461ff001916610100179055601154600160a01b900460ff166128fc5760408051600160e51b62461bcd0281526020600482015260116024820152600080516020615f41833981519152604482015290519081900360640190fd5b6001600160a01b03841660009081526013602052604090205460ff1661295a5760408051600160e51b62461bcd02815260206004820152600d6024820152600080516020615fc1833981519152604482015290519081900360640190fd5b6001600160a01b03841660009081526013602052604090206003810154600282015460095460145461298f93929190886151d7565b600e546001600160a01b0390811660008181526013602052604081209395509291839190891614156129cd5750600f546001600160a01b03166129f2565b5050600f546001600160a01b039081166000908152601360205260409020600e549091165b84612a355760408051600160e51b62461bcd02815260206004820152600f6024820152600080516020616001833981519152604482015290519081900360640190fd5b85851115612a7f5760408051600160e51b62461bcd02815260206004820152600c6024820152600160a11b6b22a9292fa624a6a4aa2fa4a702604482015290519081900360640190fd5b6001600160a01b038816600090815260136020526040902060030154612aaf906002670de0b6b3a764000061232a565b851115612afc5760408051600160e51b62461bcd0281526020600482015260106024820152600160801b6f4552525f4d41585f494e5f524154494f02604482015290519081900360640190fd5b612b0a846003015486615080565b60038501556040805186815242602082015281516001600160a01b038b16923392600080516020615fa1833981519152929081900390910190a3604080518881529051600080516020615f818339815191529181900360200190a1612b6e87615139565b612b7833886149b2565b612b838833876150dd565b6000612b9e836003015484600201546009546014548c6151d7565b601554600e5460408051600160e01b6326b1f01f0281526001600160a01b03928316600482015286831660248201526044810185905290519394509116916326b1f01f91606480820192602092909190829003018186803b158015612c0257600080fd5b505afa158015612c16573d6000803e3d6000fd5b505050506040513d6020811015612c2c57600080fd5b5051151560011415611e3c57601554600e5460408051600160e01b6399039fcf0281526001600160a01b039283166004820152858316602482015260448101859052905191909216916399039fcf91606480830192600092919082900301818387803b158015612c9b57600080fd5b505af1158015612caf573d6000803e3d6000fd5b50505050612cc1836003015482615080565b6003840155600d546040805183815242602082015281516001600160a01b03808716941692600080516020615fa1833981519152928290030190a3612d0588615139565b600d54612d1b906001600160a01b0316896149b2565b600d54611e3c9083906001600160a01b0316836150dd565b6010546001600160a01b03163314612d955760408051600160e51b62461bcd02815260206004820152601560248201527f4f4e4c59204d41524b455420434f4c4c4543544f520000000000000000000000604482015290519081900360640190fd5b601080546001600160a01b0319166001600160a01b0392909216919091179055565b6001600160a01b031660009081526007602052604090205490565b620f4240670de0b6b3a7640000611600565b600c546000908190610100900460ff1615612e3a5760408051600160e51b62461bcd02815260206004820152600b6024820152600160a81b6a4552525f5245454e54525902604482015290519081900360640190fd5b600c805461ff001916610100179055601154600160a01b900460ff16612e985760408051600160e51b62461bcd0281526020600482015260116024820152600080516020615f41833981519152604482015290519081900360640190fd5b6001600160a01b03871660009081526013602052604090205460ff16612ef65760408051600160e51b62461bcd02815260206004820152600d6024820152600080516020615fc1833981519152604482015290519081900360640190fd5b6001600160a01b03851660009081526013602052604090205460ff16612f545760408051600160e51b62461bcd02815260206004820152600d6024820152600080516020615fc1833981519152604482015290519081900360640190fd5b6001600160a01b0380881660009081526013602052604080822092881682529020600380820154612f8d91670de0b6b3a7640000610d9f565b861115612fdb5760408051600160e51b62461bcd0281526020600482015260116024820152600160781b704552525f4d41585f4f55545f524154494f02604482015290519081900360640190fd5b6000612ff98360030154846002015484600301548560020154614de1565b9050858111156130535760408051600160e51b62461bcd02815260206004820152601360248201527f4552525f4241445f4c494d49545f505249434500000000000000000000000000604482015290519081900360640190fd5b600061305d615f22565b60405180608001604052808660030154815260200186600201548152602001856003015481526020018560020154815250905061309b818a8e615326565b90975091508a8711156130ea5760408051600160e51b62461bcd02815260206004820152600c6024820152600160a11b6b22a9292fa624a6a4aa2fa4a702604482015290519081900360640190fd5b6130f8856003015483615080565b856003018190555061310e84600301548a614927565b60038086018290558601546002808801549087015461312d9390614de1565b9550828610156131755760408051600160e51b62461bcd02815260206004820152600f6024820152600080516020616001833981519152604482015290519081900360640190fd5b878611156131c25760408051600160e51b62461bcd02815260206004820152600f6024820152600160881b6e4552525f4c494d49545f505249434502604482015290519081900360640190fd5b6131cc878a614f58565b8311156132115760408051600160e51b62461bcd02815260206004820152600f6024820152600080516020616001833981519152604482015290519081900360640190fd5b60408051888152602081018b9052428183015290516001600160a01b03808d1692908f169133917f50ef2fc267012b5c84b56835f16ffd5331ac5a151a3760d74908721ba78b0efe919081900360600190a461326e8c33896150dd565b6132798a338b6149bc565b5050505050600c805461ff001916905590969095509350505050565b60046020526000908152604090205481565b600c546000908190610100900460ff16156132fd5760408051600160e51b62461bcd02815260206004820152600b6024820152600160a81b6a4552525f5245454e54525902604482015290519081900360640190fd5b600c805461ff001916610100179055601154600160a01b900460ff1661335b5760408051600160e51b62461bcd0281526020600482015260116024820152600080516020615f41833981519152604482015290519081900360640190fd5b6001600160a01b03871660009081526013602052604090205460ff166133b95760408051600160e51b62461bcd02815260206004820152600d6024820152600080516020615fc1833981519152604482015290519081900360640190fd5b6001600160a01b03851660009081526013602052604090205460ff166134175760408051600160e51b62461bcd02815260206004820152600d6024820152600080516020615fc1833981519152604482015290519081900360640190fd5b6001600160a01b03808816600090815260136020526040808220928816825290206003820154613451906002670de0b6b3a764000061232a565b88111561349e5760408051600160e51b62461bcd0281526020600482015260106024820152600160801b6f4552525f4d41585f494e5f524154494f02604482015290519081900360640190fd5b60006134bc8360030154846002015484600301548560020154614de1565b9050858111156135165760408051600160e51b62461bcd02815260206004820152601360248201527f4552525f4241445f4c494d49545f505249434500000000000000000000000000604482015290519081900360640190fd5b6000613520615f22565b60405180608001604052808660030154815260200186600201548152602001856003015481526020018560020154815250905061355e818c8e615540565b9097509150888710156135ae5760408051600160e51b62461bcd02815260206004820152600d60248201526001609a1b6c11549497d31253525517d3d55502604482015290519081900360640190fd5b6135bc856003015483615080565b85600301819055506135d2846003015488614927565b6003808601829055860154600280880154908701546135f19390614de1565b9550828610156136395760408051600160e51b62461bcd02815260206004820152600f6024820152600080516020616001833981519152604482015290519081900360640190fd5b878611156136865760408051600160e51b62461bcd02815260206004820152600f6024820152600160881b6e4552525f4c494d49545f505249434502604482015290519081900360640190fd5b6136908b88614f58565b8311156136d55760408051600160e51b62461bcd02815260206004820152600f6024820152600080516020616001833981519152604482015290519081900360640190fd5b604080518c815260208101899052428183015290516001600160a01b03808d1692908f169133917f50ef2fc267012b5c84b56835f16ffd5331ac5a151a3760d74908721ba78b0efe919081900360600190a46137328c338d6150dd565b6132798a33896149bc565b64e8d4a51000670de0b6b3a7640000611600565b601154600160a01b900460ff1690565b6011546001600160a01b031633146137b15760408051600160e51b62461bcd0281526020600482015260086024820152600160c11b6727a7262c9027a82302604482015290519081900360640190fd5b60606137bb613f01565b905060005b815181101561395f576000600460008484815181106137db57fe5b60200260200101516001600160a01b03166001600160a01b03168152602001908152602001600020546003600085858151811061381457fe5b60200260200101516001600160a01b03166001600160a01b0316815260200190815260200160002054039050806004600085858151811061385157fe5b60200260200101516001600160a01b03166001600160a01b0316815260200190815260200160002054016004600085858151811061388b57fe5b60200260200101516001600160a01b03166001600160a01b03168152602001908152602001600020819055508282815181106138c357fe5b60200260200101516001600160a01b031663a9059cbb85836040518363ffffffff1660e01b815260040180836001600160a01b03166001600160a01b0316815260200182815260200192505050602060405180830381600087803b15801561392a57600080fd5b505af115801561393e573d6000803e3d6000fd5b505050506040513d602081101561395457600080fd5b5050506001016137c0565b505050565b600c54600090610100900460ff16156139b85760408051600160e51b62461bcd02815260206004820152600b6024820152600160a81b6a4552525f5245454e54525902604482015290519081900360640190fd5b5060145490565b68056bc75e2d6310000081565b600c54600090610100900460ff1615613a205760408051600160e51b62461bcd02815260206004820152600b6024820152600160a81b6a4552525f5245454e54525902604482015290519081900360640190fd5b6001600160a01b03821660009081526013602052604090205460ff16613a7e5760408051600160e51b62461bcd02815260206004820152600d6024820152600080516020615fc1833981519152604482015290519081900360640190fd5b506001600160a01b031660009081526013602052604090206002015490565b600b8054604080516020601f60026000196101006001881615020190951694909404938401819004810282018101909252828152606093909290918301828280156112695780601f1061123e57610100808354040283529160200191611269565b6704a03ce68d21555681565b6010546001600160a01b031681565b6000613b26338484614e3a565b50600192915050565b600c54610100900460ff1615613b805760408051600160e51b62461bcd02815260206004820152600b6024820152600160a81b6a4552525f5245454e54525902604482015290519081900360640190fd5b600c805461ff001916610100179055601154600160a01b900460ff16613bde5760408051600160e51b62461bcd0281526020600482015260116024820152600080516020615f41833981519152604482015290519081900360640190fd5b600080805b601254811015613c9157600e54601280546001600160a01b039092169183908110613c0a57fe5b6000918252602090912001546001600160a01b03161415613c3b57848482818110613c3157fe5b9050602002013592505b600f54601280546001600160a01b039092169183908110613c5857fe5b6000918252602090912001546001600160a01b03161415613c8957848482818110613c7f57fe5b9050602002013591505b600101613be3565b506000613c9c6115ea565b90506000613cab87600061478e565b90506000613cb98883614927565b90506000613cc78285614f58565b905080613d0c5760408051600160e51b62461bcd02815260206004820152600f6024820152600080516020616001833981519152604482015290519081900360640190fd5b613d16338a614998565b600c54613d32906201000090046001600160a01b0316846149b2565b613d3b826149a6565b60005b601254811015613eb957600060128281548110613d5757fe5b60009182526020808320909101546001600160a01b03168083526013909152604082206003015490925090613d8c858361478e565b905080613dd15760408051600160e51b62461bcd02815260206004820152600f6024820152600080516020616001833981519152604482015290519081900360640190fd5b8b8b85818110613ddd57fe5b90506020020135811015613e2e5760408051600160e51b62461bcd02815260206004820152600d60248201526001609a1b6c11549497d31253525517d3d55502604482015290519081900360640190fd5b6001600160a01b038316600090815260136020526040902060030154613e549082614927565b6001600160a01b0384166000818152601360209081526040918290206003019390935580518481524293810193909352805191923392600080516020615f61833981519152929181900390910190a3613eae8333836149bc565b505050600101613d3e565b5050600c805461ff00191690555050505050505050565b600881565b600281565b60005481565b600181565b600a670de0b6b3a7640000611600565b671bc16d674ec7ffff81565b600c54606090610100900460ff1615613f555760408051600160e51b62461bcd02815260206004820152600b6024820152600160a81b6a4552525f5245454e54525902604482015290519081900360640190fd5b601154600160a01b900460ff16613fa45760408051600160e51b62461bcd0281526020600482015260116024820152600080516020615f41833981519152604482015290519081900360640190fd5b601280548060200260200160405190810160405280929190818152602001828054801561126957602002820191906000526020600020905b81546001600160a01b03168152600190910190602001808311613fdc575050505050905090565b601554600090600160a01b900460ff16156140685760408051600160e51b62461bcd02815260206004820152601760248201527f4552525f414c52454144595f494e495449414c495a4544000000000000000000604482015290519081900360640190fd5b6001600160a01b0389166140c65760408051600160e51b62461bcd02815260206004820152601e60248201527f4552525f494e56414c49445f434f4e54524f4c4c45525f414444524553530000604482015290519081900360640190fd5b6001600160a01b0388166141245760408051600160e51b62461bcd02815260206004820152601b60248201527f4552525f494e56414c49445f464143544f52595f414444524553530000000000604482015290519081900360640190fd5b64e8d4a51000878760008161413557fe5b9050602002013510156141835760408051600160e51b62461bcd02815260206004820152600b6024820152600160a81b6a4552525f4d494e5f46454502604482015290519081900360640190fd5b67016345785d8a0000878760008161419757fe5b9050602002013511156141e55760408051600160e51b62461bcd02815260206004820152600b6024820152600160a81b6a4552525f4d41585f46454502604482015290519081900360640190fd5b61426b8989898980806020026020016040519081016040528093929190818152602001838360200280828437600092019190915250506040805180820182528c93508b9250908a9060029083908390808284376000920191909152505060408051808201825291508a90600290839083908082843760009201919091525061572a915050565b9998505050505050505050565b600081565b600c54606090610100900460ff1615613fa45760408051600160e51b62461bcd02815260206004820152600b6024820152600160a81b6a4552525f5245454e54525902604482015290519081900360640190fd5b60125490565b60025490565b3360009081526008602090815260408083206001600160a01b038616845290915281205461430b9083615080565b3360008181526008602090815260408083206001600160a01b038916808552908352928190208590558051948552519193600080516020615fe1833981519152929081900390910190a350600192915050565b6001600160a01b03918216600090815260086020908152604080832093909416825291909152205490565b6002670de0b6b3a7640000611600565b6011546001600160a01b031681565b600c54600090610100900460ff16156143fc5760408051600160e51b62461bcd02815260206004820152600b6024820152600160a81b6a4552525f5245454e54525902604482015290519081900360640190fd5b6001600160a01b03821660009081526013602052604090205460ff1661445a5760408051600160e51b62461bcd02815260206004820152600d6024820152600080516020615fc1833981519152604482015290519081900360640190fd5b6001600160a01b038216600090815260136020526040902060020154601454614484908290614f58565b9392505050565b60066020526000908152604090205481565b600c54600090610100900460ff16156144f15760408051600160e51b62461bcd02815260206004820152600b6024820152600160a81b6a4552525f5245454e54525902604482015290519081900360640190fd5b6001600160a01b03821660009081526013602052604090205460ff1661454f5760408051600160e51b62461bcd02815260206004820152600d6024820152600080516020615fc1833981519152604482015290519081900360640190fd5b506001600160a01b031660009081526013602052604090206003015490565b6010546001600160a01b031633146145d05760408051600160e51b62461bcd02815260206004820152601560248201527f4f4e4c59204d41524b455420434f4c4c4543544f520000000000000000000000604482015290519081900360640190fd5b60606145da613f01565b905060005b815181101561395f576000600660008484815181106145fa57fe5b60200260200101516001600160a01b03166001600160a01b03168152602001908152602001600020546005600085858151811061463357fe5b60200260200101516001600160a01b03166001600160a01b0316815260200190815260200160002054039050806006600085858151811061467057fe5b60200260200101516001600160a01b03166001600160a01b031681526020019081526020016000205401600660008585815181106146aa57fe5b60200260200101516001600160a01b03166001600160a01b03168152602001908152602001600020819055508282815181106146e257fe5b60200260200101516001600160a01b031663a9059cbb85836040518363ffffffff1660e01b815260040180836001600160a01b03166001600160a01b0316815260200182815260200192505050602060405180830381600087803b15801561474957600080fd5b505af115801561475d573d6000803e3d6000fd5b505050506040513d602081101561477357600080fd5b5050506001016145df565b600d54600160a01b900460ff1690565b60008282028315806147a85750828482816147a557fe5b04145b6147f25760408051600160e51b62461bcd0281526020600482015260106024820152600160801b6f4552525f4d554c5f4f564552464c4f5702604482015290519081900360640190fd5b6706f05b59d3b2000081018181101561484b5760408051600160e51b62461bcd0281526020600482015260106024820152600160801b6f4552525f4d554c5f4f564552464c4f5702604482015290519081900360640190fd5b6000670de0b6b3a7640000825b049695505050505050565b6000806148708685614f58565b90506000614886670de0b6b3a764000083614927565b905060006148968260025461478e565b905060006148b5866148b0670de0b6b3a764000085614927565b614f58565b905060006148c38b83614927565b905060006148d1828d614f58565b905060006148df8288615866565b905060006148ed828d61478e565b905060006148fb8d83614927565b9050614914816148b0670de0b6b3a76400006000614927565b9f9e505050505050505050505050505050565b60008060006149368585615989565b9150915080156149905760408051600160e51b62461bcd02815260206004820152601160248201527f4552525f5355425f554e444552464c4f57000000000000000000000000000000604482015290519081900360640190fd5b509392505050565b6149a282826159ae565b5050565b6149af816159b9565b50565b6149a28282615a95565b60408051600160e01b63a9059cbb0281526001600160a01b03848116600483015260248201849052915160009286169163a9059cbb91604480830192602092919082900301818787803b158015614a1257600080fd5b505af1158015614a26573d6000803e3d6000fd5b505050506040513d6020811015614a3c57600080fd5b5051905080614a955760408051600160e51b62461bcd02815260206004820152600f60248201527f4552525f45524332305f46414c53450000000000000000000000000000000000604482015290519081900360640190fd5b50505050565b600080614aa88685614f58565b90506000614ac884614ac3670de0b6b3a76400006000614927565b61478e565b90506000614ad68783614927565b90506000614ae48289614f58565b90506000614b0382614afe670de0b6b3a764000088614f58565b615866565b90506000614b11828d61478e565b90506000614b1f8d83614927565b90506000614b40614b38670de0b6b3a76400008a614927565b60025461478e565b9050614b5882614ac3670de0b6b3a764000084614927565b9e9d5050505050505050505050505050565b600d546001600160a01b03163314614bc45760408051600160e51b62461bcd0281526020600482015260126024820152600160711b7122a9292fa727aa2fa1a7a72a2927a62622a902604482015290519081900360640190fd5b6001600160a01b03831660009081526013602052604090205460ff1615614c355760408051600160e51b62461bcd02815260206004820152600c60248201527f4552525f49535f424f554e440000000000000000000000000000000000000000604482015290519081900360640190fd5b601154600160a01b900460ff1615614c8d5760408051600160e51b62461bcd0281526020600482015260106024820152600160821b6f11549497d254d7d1925390531256915102604482015290519081900360640190fd5b601254600811614ce75760408051600160e51b62461bcd02815260206004820152600e60248201527f4552525f4d41585f544f4b454e53000000000000000000000000000000000000604482015290519081900360640190fd5b6040805160808101825260018082526012805460208085019182526000858701818152606087018281526001600160a01b038c1680845260139094529782209651875460ff1916901515178755925186860155915160028601559451600390940193909355805491820181559091527fbb8a6a4669ba250d26cd7a459eca9d215f8307e33aebe50379bc5a3617ec34440180546001600160a01b031916909117905561395f838383615aa0565b60118054600160a01b600160a01b60ff02199182168117909255600d80549091169091179055614dcc68056bc75e2d63100000615139565b614ddf3368056bc75e2d631000006149b2565b565b600080614dee8686614f58565b90506000614dfc8585614f58565b90506000614e0a8383614f58565b90506000614e2e670de0b6b3a76400006148b0670de0b6b3a7640000600254614927565b905061426b828261478e565b6001600160a01b038316600090815260076020526040902054811115614eaa5760408051600160e51b62461bcd02815260206004820152601460248201527f4552525f494e53554646494349454e545f42414c000000000000000000000000604482015290519081900360640190fd5b6001600160a01b038316600090815260076020526040902054614ecd9082614927565b6001600160a01b038085166000908152600760205260408082209390935590841681522054614efc9082615080565b6001600160a01b0380841660008181526007602090815260409182902094909455805185815290519193928716927fddf252ad1be2c89b69c2b068fc378daa952ba7f163c4a11628f55a4df523b3ef92918290030190a3505050565b600081614faf5760408051600160e51b62461bcd02815260206004820152600c60248201527f4552525f4449565f5a45524f0000000000000000000000000000000000000000604482015290519081900360640190fd5b670de0b6b3a76400008302831580614fd75750670de0b6b3a7640000848281614fd457fe5b04145b6150215760408051600160e51b62461bcd0281526020600482015260106024820152600160821b6f11549497d1125597d25395115493905302604482015290519081900360640190fd5b600283048101818110156150755760408051600160e51b62461bcd0281526020600482015260106024820152600160821b6f11549497d1125597d25395115493905302604482015290519081900360640190fd5b600084828161485857fe5b6000828201838110156144845760408051600160e51b62461bcd02815260206004820152601060248201527f4552525f4144445f4f564552464c4f5700000000000000000000000000000000604482015290519081900360640190fd5b60408051600160e01b6323b872dd0281526001600160a01b0384811660048301523060248301526044820184905291516000928616916323b872dd91606480830192602092919082900301818787803b158015614a1257600080fd5b6149af81615d25565b60008061514f8685614f58565b90506000615168614b38670de0b6b3a764000084614927565b9050600061518285614ac3670de0b6b3a764000085614927565b905060006151908a83615080565b9050600061519e828c614f58565b905060006151ac8287615866565b905060006151ba828c61478e565b90506151c6818c614927565b9d9c50505050505050505050505050565b6000806151e48685614f58565b905060006151f28685615080565b905060006152008288614f58565b90506000615216670de0b6b3a764000085614f58565b905060006152248383615866565b90506000615232828d61478e565b90506000615240828e614927565b90506000615259614b38670de0b6b3a76400008a614927565b9050614b58826148b0670de0b6b3a764000084614927565b6149a28282604051602401808315151515815260200180602001828103825283818151815260200191508051906020019080838360005b838110156152c05781810151838201526020016152a8565b50505050905090810190601f1680156152ed5780820380516001836020036101000a031916815260200191505b5060408051601f198184030181529190526020810180516001600160e01b0316600160e01b638feac525021790529350615d9a92505050565b6000808061534386600360200201518760015b6020020151614f58565b90506000615358876002602002015187614927565b9050600061536d886002602002015183614f58565b9050600061537b8285615866565b905061538f81670de0b6b3a7640000614927565b90506000600154600054600254010190506153d06153be8b6000600481106153b357fe5b60200201518461478e565b6148b0670de0b6b3a764000084614927565b965060006153f5886153f08a614ac3670de0b6b3a7640000600054614927565b614927565b6001600160a01b038a1660009081526003602052604090205490915061541b9082615080565b600360008b6001600160a01b03166001600160a01b03168152602001908152602001600020819055506000615462896153f08b614ac3670de0b6b3a7640000600154614927565b6001600160a01b038b166000908152600560205260409020549091506154889082615080565b6001600160a01b038b166000908152600560205260409020558b516154c5906154b1908661478e565b6148b0670de0b6b3a7640000600254614927565b97507f90d9f1d0641138b6407ac37bea3a905d63a371c2d91a484f68d59924634d4ef36155048a6153f08c614ac3670de0b6b3a7640000600254614927565b60408051918252602082018590528181018490526001600160a01b038d166060830152519081900360800190a150505050505050935093915050565b600080806155578660016020020151876003615339565b90506000615577866153f088614ac3670de0b6b3a7640000600054614927565b6001600160a01b03861660009081526003602052604090205490915061559d9082615080565b60036000876001600160a01b03166001600160a01b031681526020019081526020016000208190555060006155e4876153f089614ac3670de0b6b3a7640000600154614927565b6001600160a01b03871660009081526005602052604090205490915061560a9082615080565b6001600160a01b0387166000908152600560205260409020556002548083018201907f90d9f1d0641138b6407ac37bea3a905d63a371c2d91a484f68d59924634d4ef39061566d908a906153f0908290614ac390670de0b6b3a764000090614927565b60408051918252602082018690528181018590526001600160a01b038a166060830152519081900360800190a160006156ae670de0b6b3a764000083614927565b90506156ba898261478e565b8a519091506000906156d0906148b08185615080565b905060006156de8288615866565b905060006156f4670de0b6b3a764000083614927565b90506157078d600260200201518261478e565b9950896157168d888a01614927565b995099505050505050505050935093915050565b600d80546001600160a01b0319166001600160a01b0389811691909117909155600c805462010000600160b01b031916620100009289169290920291909117905584516000908690829061577a57fe5b60200260200101516002819055508560018151811061579557fe5b6020026020010151600081905550856002815181106157b057fe5b602090810291909101810151600155600d8054961515600160a01b908102600160a01b60ff02199889161791829055601180548751600e80546001600160a01b03199081166001600160a01b039384161790915598860151600f80548b169183169190911790558751601080548b169183169190911790559690940151861697151582029389169390931786169690961790915560158054909616851790931691909216179283905550900460ff169392505050565b600060018310156158c15760408051600160e51b62461bcd02815260206004820152601560248201527f4552525f42504f575f424153455f544f4f5f4c4f570000000000000000000000604482015290519081900360640190fd5b671bc16d674ec7ffff8311156159215760408051600160e51b62461bcd02815260206004820152601660248201527f4552525f42504f575f424153455f544f4f5f4849474800000000000000000000604482015290519081900360640190fd5b600061592c83615dbb565b9050600061593a8483614927565b905060006159508661594b85615dd6565b615de4565b9050816159615792506112c2915050565b600061597287846305f5e100615e44565b905061597e828261478e565b979650505050505050565b60008082841061599f57505080820360006159a7565b505081810360015b9250929050565b6149a2823083614e3a565b30600090815260076020526040902054811115615a205760408051600160e51b62461bcd02815260206004820152601460248201527f4552525f494e53554646494349454e545f42414c000000000000000000000000604482015290519081900360640190fd5b30600090815260076020526040902054615a3a9082614927565b30600090815260076020526040902055600954615a579082614927565b60095560408051828152905160009130917fddf252ad1be2c89b69c2b068fc378daa952ba7f163c4a11628f55a4df523b3ef9181900360200190a350565b6149a2308383614e3a565b670de0b6b3a7640000811015615b005760408051600160e51b62461bcd02815260206004820152600e60248201527f4552525f4d494e5f574549474854000000000000000000000000000000000000604482015290519081900360640190fd5b6802b5e3af16b1880000811115615b615760408051600160e51b62461bcd02815260206004820152600e60248201527f4552525f4d41585f574549474854000000000000000000000000000000000000604482015290519081900360640190fd5b620f4240821015615bbc5760408051600160e51b62461bcd02815260206004820152600f60248201527f4552525f4d494e5f42414c414e43450000000000000000000000000000000000604482015290519081900360640190fd5b6001600160a01b03831660009081526013602052604090206002015480821115615c5f57615bf5601454615bf08484614927565b615080565b60148190556802b5e3af16b18800001015615c5a5760408051600160e51b62461bcd02815260206004820152601460248201527f4552525f4d41585f544f54414c5f574549474854000000000000000000000000604482015290519081900360640190fd5b615c7b565b80821015615c7b57615c776014546153f08385614927565b6014555b6001600160a01b03841660009081526013602052604090206002810183905560030180549084905580841115615cc457615cbf8533615cba8785614927565b6150dd565b615d1e565b80841015615d1e576000615cd88286614927565b90506000615ce782600061478e565b9050615cfd8733615cf88585614927565b6149bc565b600c54615d1b9088906201000090046001600160a01b0316836149bc565b50505b5050505050565b30600090815260076020526040902054615d3f9082615080565b30600090815260076020526040902055600954615d5c9082615080565b60095560408051828152905130916000917fddf252ad1be2c89b69c2b068fc378daa952ba7f163c4a11628f55a4df523b3ef9181900360200190a350565b80516a636f6e736f6c652e6c6f67602083016000808483855afa5050505050565b6000670de0b6b3a7640000615dcf83615dd6565b0292915050565b670de0b6b3a7640000900490565b6000828160028406615dfe57670de0b6b3a7640000615e00565b815b90506002840493505b8315615e3c57615e19828361478e565b91506002840615615e3157615e2e818361478e565b90505b600284049350615e09565b949350505050565b6000828180615e5b87670de0b6b3a7640000615989565b9092509050670de0b6b3a764000080600060015b888410615f13576000670de0b6b3a764000082029050600080615ea38a615e9e85670de0b6b3a7640000614927565b615989565b91509150615eb587614ac3848c61478e565b9650615ec18784614f58565b965086615ed057505050615f13565b8715615eda579315935b8015615ee4579315935b8415615efb57615ef48688614927565b9550615f08565b615f058688615080565b95505b505050600101615e6f565b50909998505050505050505050565b6040518060800160405280600490602082028038833950919291505056fe4552525f4e4f545f46494e414c495a45440000000000000000000000000000009d9058fd2f25ccc389fec7720abef0ca83472f5abfafd5f10d37f51e6a0493f3fcda32798d5a9d032f49b37fea876d422f18f6e386e0f07db6029b693624b2c215a8ca63e37b2cff1677df2b6b82d36fcf8a524228bd7a4b4d02d107c28c1e8a4552525f4e4f545f424f554e44000000000000000000000000000000000000008c5be1e5ebec7d5bd14f71427d1e84f3dd0314c0f7b2291e5b200ac8c7c3b9254552525f4d4154485f415050524f580000000000000000000000000000000000a165627a7a72305820f9bfff427e7a64cb6da17a96b71387756953ef46d77c88be06e990c53646dbd9002942466163746f72793a20696e76616c69642062706f6f6c2074656d706c617465207a65726f2061646472657373",
  "linkReferences": {},
  "deployedLinkReferences": {}
}