{
  "_format": "hh-sol-artifact-1",
  "contractName": "FactoryRouter",
  "sourceName": "contracts/pools/FactoryRouter.sol",
  "abi": [
    {
      "inputs": [
        {
          "internalType": "address",
          "name": "_routerOwner",
          "type": "address"
        },
        {
          "internalType": "address",
          "name": "_oceanToken",
          "type": "address"
        },
        {
          "internalType": "address",
          "name": "_bpoolTemplate",
          "type": "address"
        },
        {
          "internalType": "address",
          "name": "_opfCollector",
          "type": "address"
        },
        {
          "internalType": "address[]",
          "name": "_preCreatedPools",
          "type": "address[]"
        }
      ],
      "stateMutability": "nonpayable",
      "type": "constructor"
    },
    {
      "anonymous": false,
      "inputs": [
        {
          "indexed": true,
          "internalType": "address",
          "name": "newBPoolAddress",
          "type": "address"
        },
        {
          "indexed": true,
          "internalType": "address",
          "name": "registeredBy",
          "type": "address"
        },
        {
          "indexed": true,
          "internalType": "address",
          "name": "datatokenAddress",
          "type": "address"
        },
        {
          "indexed": false,
          "internalType": "address",
          "name": "basetokenAddress",
          "type": "address"
        },
        {
          "indexed": false,
          "internalType": "address",
          "name": "bpoolTemplateAddress",
          "type": "address"
        },
        {
          "indexed": false,
          "internalType": "address",
          "name": "ssAddress",
          "type": "address"
        }
      ],
      "name": "BPoolCreated",
      "type": "event"
    },
    {
      "anonymous": false,
      "inputs": [
        {
          "indexed": true,
          "internalType": "address",
          "name": "caller",
          "type": "address"
        },
        {
          "indexed": true,
          "internalType": "address",
          "name": "contractAddress",
          "type": "address"
        }
      ],
      "name": "DispenserContractAdded",
      "type": "event"
    },
    {
      "anonymous": false,
      "inputs": [
        {
          "indexed": true,
          "internalType": "address",
          "name": "caller",
          "type": "address"
        },
        {
          "indexed": true,
          "internalType": "address",
          "name": "contractAddress",
          "type": "address"
        }
      ],
      "name": "DispenserContractRemoved",
      "type": "event"
    },
    {
      "anonymous": false,
      "inputs": [
        {
          "indexed": true,
          "internalType": "address",
          "name": "caller",
          "type": "address"
        },
        {
          "indexed": true,
          "internalType": "address",
          "name": "contractAddress",
          "type": "address"
        }
      ],
      "name": "FactoryContractChanged",
      "type": "event"
    },
    {
      "anonymous": false,
      "inputs": [
        {
          "indexed": true,
          "internalType": "address",
          "name": "caller",
          "type": "address"
        },
        {
          "indexed": true,
          "internalType": "address",
          "name": "contractAddress",
          "type": "address"
        }
      ],
      "name": "FixedRateContractAdded",
      "type": "event"
    },
    {
      "anonymous": false,
      "inputs": [
        {
          "indexed": true,
          "internalType": "address",
          "name": "caller",
          "type": "address"
        },
        {
          "indexed": true,
          "internalType": "address",
          "name": "contractAddress",
          "type": "address"
        }
      ],
      "name": "FixedRateContractRemoved",
      "type": "event"
    },
    {
      "anonymous": false,
      "inputs": [
        {
          "indexed": false,
          "internalType": "address",
          "name": "instance",
          "type": "address"
        }
      ],
      "name": "InstanceDeployed",
      "type": "event"
    },
    {
      "anonymous": false,
      "inputs": [
        {
          "indexed": true,
          "internalType": "address",
          "name": "poolAddress",
          "type": "address"
        },
        {
          "indexed": false,
          "internalType": "bool",
          "name": "isOcean",
          "type": "bool"
        }
      ],
      "name": "NewPool",
      "type": "event"
    },
    {
      "anonymous": false,
      "inputs": [
        {
          "indexed": true,
          "internalType": "address",
          "name": "caller",
          "type": "address"
        },
        {
          "indexed": false,
          "internalType": "uint256",
          "name": "newFee",
          "type": "uint256"
        }
      ],
      "name": "OPFFeeChanged",
      "type": "event"
    },
    {
      "anonymous": false,
      "inputs": [
        {
          "indexed": true,
          "internalType": "address",
          "name": "caller",
          "type": "address"
        },
        {
          "indexed": true,
          "internalType": "address",
          "name": "contractAddress",
          "type": "address"
        }
      ],
      "name": "PoolTemplateAdded",
      "type": "event"
    },
    {
      "anonymous": false,
      "inputs": [
        {
          "indexed": true,
          "internalType": "address",
          "name": "caller",
          "type": "address"
        },
        {
          "indexed": true,
          "internalType": "address",
          "name": "contractAddress",
          "type": "address"
        }
      ],
      "name": "PoolTemplateRemoved",
      "type": "event"
    },
    {
      "anonymous": false,
      "inputs": [
        {
          "indexed": true,
          "internalType": "address",
          "name": "caller",
          "type": "address"
        },
        {
          "indexed": true,
          "internalType": "address",
          "name": "newRouter",
          "type": "address"
        }
      ],
      "name": "RouterChanged",
      "type": "event"
    },
    {
      "anonymous": false,
      "inputs": [
        {
          "indexed": true,
          "internalType": "address",
          "name": "caller",
          "type": "address"
        },
        {
          "indexed": true,
          "internalType": "address",
          "name": "contractAddress",
          "type": "address"
        }
      ],
      "name": "SSContractAdded",
      "type": "event"
    },
    {
      "anonymous": false,
      "inputs": [
        {
          "indexed": true,
          "internalType": "address",
          "name": "caller",
          "type": "address"
        },
        {
          "indexed": true,
          "internalType": "address",
          "name": "contractAddress",
          "type": "address"
        }
      ],
      "name": "SSContractRemoved",
      "type": "event"
    },
    {
      "anonymous": false,
      "inputs": [
        {
          "indexed": true,
          "internalType": "address",
          "name": "caller",
          "type": "address"
        },
        {
          "indexed": true,
          "internalType": "address",
          "name": "token",
          "type": "address"
        }
      ],
      "name": "TokenAdded",
      "type": "event"
    },
    {
      "anonymous": false,
      "inputs": [
        {
          "indexed": true,
          "internalType": "address",
          "name": "caller",
          "type": "address"
        },
        {
          "indexed": true,
          "internalType": "address",
          "name": "token",
          "type": "address"
        }
      ],
      "name": "TokenRemoved",
      "type": "event"
    },
    {
      "inputs": [],
      "name": "BONE",
      "outputs": [
        {
          "internalType": "uint256",
          "name": "",
          "type": "uint256"
        }
      ],
      "stateMutability": "view",
      "type": "function"
    },
    {
      "inputs": [],
      "name": "BPOW_PRECISION",
      "outputs": [
        {
          "internalType": "uint256",
          "name": "",
          "type": "uint256"
        }
      ],
      "stateMutability": "view",
      "type": "function"
    },
    {
      "inputs": [],
      "name": "EXIT_FEE",
      "outputs": [
        {
          "internalType": "uint256",
          "name": "",
          "type": "uint256"
        }
      ],
      "stateMutability": "view",
      "type": "function"
    },
    {
      "inputs": [],
      "name": "INIT_POOL_SUPPLY",
      "outputs": [
        {
          "internalType": "uint256",
          "name": "",
          "type": "uint256"
        }
      ],
      "stateMutability": "view",
      "type": "function"
    },
    {
      "inputs": [],
      "name": "MAX_BOUND_TOKENS",
      "outputs": [
        {
          "internalType": "uint256",
          "name": "",
          "type": "uint256"
        }
      ],
      "stateMutability": "view",
      "type": "function"
    },
    {
      "inputs": [],
      "name": "MAX_BPOW_BASE",
      "outputs": [
        {
          "internalType": "uint256",
          "name": "",
          "type": "uint256"
        }
      ],
      "stateMutability": "view",
      "type": "function"
    },
    {
      "inputs": [],
      "name": "MAX_FEE",
      "outputs": [
        {
          "internalType": "uint256",
          "name": "",
          "type": "uint256"
        }
      ],
      "stateMutability": "view",
      "type": "function"
    },
    {
      "inputs": [],
      "name": "MAX_IN_RATIO",
      "outputs": [
        {
          "internalType": "uint256",
          "name": "",
          "type": "uint256"
        }
      ],
      "stateMutability": "view",
      "type": "function"
    },
    {
      "inputs": [],
      "name": "MAX_OUT_RATIO",
      "outputs": [
        {
          "internalType": "uint256",
          "name": "",
          "type": "uint256"
        }
      ],
      "stateMutability": "view",
      "type": "function"
    },
    {
      "inputs": [],
      "name": "MAX_TOTAL_WEIGHT",
      "outputs": [
        {
          "internalType": "uint256",
          "name": "",
          "type": "uint256"
        }
      ],
      "stateMutability": "view",
      "type": "function"
    },
    {
      "inputs": [],
      "name": "MAX_WEIGHT",
      "outputs": [
        {
          "internalType": "uint256",
          "name": "",
          "type": "uint256"
        }
      ],
      "stateMutability": "view",
      "type": "function"
    },
    {
      "inputs": [],
      "name": "MIN_BALANCE",
      "outputs": [
        {
          "internalType": "uint256",
          "name": "",
          "type": "uint256"
        }
      ],
      "stateMutability": "view",
      "type": "function"
    },
    {
      "inputs": [],
      "name": "MIN_BOUND_TOKENS",
      "outputs": [
        {
          "internalType": "uint256",
          "name": "",
          "type": "uint256"
        }
      ],
      "stateMutability": "view",
      "type": "function"
    },
    {
      "inputs": [],
      "name": "MIN_BPOW_BASE",
      "outputs": [
        {
          "internalType": "uint256",
          "name": "",
          "type": "uint256"
        }
      ],
      "stateMutability": "view",
      "type": "function"
    },
    {
      "inputs": [],
      "name": "MIN_FEE",
      "outputs": [
        {
          "internalType": "uint256",
          "name": "",
          "type": "uint256"
        }
      ],
      "stateMutability": "view",
      "type": "function"
    },
    {
      "inputs": [],
      "name": "MIN_WEIGHT",
      "outputs": [
        {
          "internalType": "uint256",
          "name": "",
          "type": "uint256"
        }
      ],
      "stateMutability": "view",
      "type": "function"
    },
    {
      "inputs": [
        {
          "internalType": "address",
          "name": "_dispenser",
          "type": "address"
        }
      ],
      "name": "addDispenserContract",
      "outputs": [],
      "stateMutability": "nonpayable",
      "type": "function"
    },
    {
      "inputs": [
        {
          "internalType": "address",
          "name": "_factory",
          "type": "address"
        }
      ],
      "name": "addFactory",
      "outputs": [],
      "stateMutability": "nonpayable",
      "type": "function"
    },
    {
      "inputs": [
        {
          "internalType": "address",
          "name": "_fixedRate",
          "type": "address"
        }
      ],
      "name": "addFixedRateContract",
      "outputs": [],
      "stateMutability": "nonpayable",
      "type": "function"
    },
    {
      "inputs": [
        {
          "internalType": "address",
          "name": "oceanTokenAddress",
          "type": "address"
        }
      ],
      "name": "addOceanToken",
      "outputs": [],
      "stateMutability": "nonpayable",
      "type": "function"
    },
    {
      "inputs": [
        {
          "internalType": "address",
          "name": "poolTemplate",
          "type": "address"
        }
      ],
      "name": "addPoolTemplate",
      "outputs": [],
      "stateMutability": "nonpayable",
      "type": "function"
    },
    {
      "inputs": [
        {
          "internalType": "address",
          "name": "_ssContract",
          "type": "address"
        }
      ],
      "name": "addSSContract",
      "outputs": [],
      "stateMutability": "nonpayable",
      "type": "function"
    },
    {
      "inputs": [
        {
          "components": [
            {
              "internalType": "bytes32",
              "name": "exchangeIds",
              "type": "bytes32"
            },
            {
              "internalType": "address",
              "name": "source",
              "type": "address"
            },
            {
              "internalType": "enum FactoryRouter.operationType",
              "name": "operation",
              "type": "uint8"
            },
            {
              "internalType": "address",
              "name": "tokenIn",
              "type": "address"
            },
            {
              "internalType": "uint256",
              "name": "amountsIn",
              "type": "uint256"
            },
            {
              "internalType": "address",
              "name": "tokenOut",
              "type": "address"
            },
            {
              "internalType": "uint256",
              "name": "amountsOut",
              "type": "uint256"
            },
            {
              "internalType": "uint256",
              "name": "maxPrice",
              "type": "uint256"
            }
          ],
          "internalType": "struct FactoryRouter.Operations[]",
          "name": "_operations",
          "type": "tuple[]"
        }
      ],
      "name": "buyDTBatch",
      "outputs": [],
      "stateMutability": "nonpayable",
      "type": "function"
    },
    {
      "inputs": [
        {
          "internalType": "address",
          "name": "_routerOwner",
          "type": "address"
        }
      ],
      "name": "changeRouterOwner",
      "outputs": [],
      "stateMutability": "nonpayable",
      "type": "function"
    },
    {
      "inputs": [
        {
          "internalType": "address",
          "name": "_dispenser",
          "type": "address"
        },
        {
          "internalType": "address",
          "name": "datatoken",
          "type": "address"
        },
        {
          "internalType": "uint256",
          "name": "maxTokens",
          "type": "uint256"
        },
        {
          "internalType": "uint256",
          "name": "maxBalance",
          "type": "uint256"
        },
        {
          "internalType": "address",
          "name": "owner",
          "type": "address"
        },
        {
          "internalType": "address",
          "name": "allowedSwapper",
          "type": "address"
        }
      ],
      "name": "deployDispenser",
      "outputs": [],
      "stateMutability": "nonpayable",
      "type": "function"
    },
    {
      "inputs": [
        {
          "internalType": "address",
          "name": "fixedPriceAddress",
          "type": "address"
        },
        {
          "internalType": "address[]",
          "name": "addresses",
          "type": "address[]"
        },
        {
          "internalType": "uint256[]",
          "name": "uints",
          "type": "uint256[]"
        }
      ],
      "name": "deployFixedRate",
      "outputs": [
        {
          "internalType": "bytes32",
          "name": "exchangeId",
          "type": "bytes32"
        }
      ],
      "stateMutability": "nonpayable",
      "type": "function"
    },
    {
      "inputs": [
        {
          "internalType": "address[2]",
          "name": "tokens",
          "type": "address[2]"
        },
        {
          "internalType": "uint256[]",
          "name": "ssParams",
          "type": "uint256[]"
        },
        {
          "internalType": "uint256[]",
          "name": "swapFees",
          "type": "uint256[]"
        },
        {
          "internalType": "address[]",
          "name": "addresses",
          "type": "address[]"
        }
      ],
      "name": "deployPool",
      "outputs": [
        {
          "internalType": "address",
          "name": "",
          "type": "address"
        }
      ],
      "stateMutability": "nonpayable",
      "type": "function"
    },
    {
      "inputs": [
        {
          "internalType": "address",
          "name": "",
          "type": "address"
        }
      ],
      "name": "dispenser",
      "outputs": [
        {
          "internalType": "bool",
          "name": "",
          "type": "bool"
        }
      ],
      "stateMutability": "view",
      "type": "function"
    },
    {
      "inputs": [],
      "name": "factory",
      "outputs": [
        {
          "internalType": "address",
          "name": "",
          "type": "address"
        }
      ],
      "stateMutability": "view",
      "type": "function"
    },
    {
      "inputs": [
        {
          "internalType": "address",
          "name": "",
          "type": "address"
        }
      ],
      "name": "fixedPrice",
      "outputs": [
        {
          "internalType": "bool",
          "name": "",
          "type": "bool"
        }
      ],
      "stateMutability": "view",
      "type": "function"
    },
    {
      "inputs": [],
      "name": "fixedRate",
      "outputs": [
        {
          "internalType": "address",
          "name": "",
          "type": "address"
        }
      ],
      "stateMutability": "view",
      "type": "function"
    },
    {
      "inputs": [
        {
          "internalType": "address",
          "name": "baseToken",
          "type": "address"
        }
      ],
      "name": "getOPFFee",
      "outputs": [
        {
          "internalType": "uint256",
          "name": "",
          "type": "uint256"
        }
      ],
      "stateMutability": "view",
      "type": "function"
    },
    {
      "inputs": [
        {
          "internalType": "address",
          "name": "poolTemplate",
          "type": "address"
        }
      ],
      "name": "isPoolTemplate",
      "outputs": [
        {
          "internalType": "bool",
          "name": "",
          "type": "bool"
        }
      ],
      "stateMutability": "view",
      "type": "function"
    },
    {
      "inputs": [
        {
          "internalType": "address",
          "name": "",
          "type": "address"
        }
      ],
      "name": "oceanTokens",
      "outputs": [
        {
          "internalType": "bool",
          "name": "",
          "type": "bool"
        }
      ],
      "stateMutability": "view",
      "type": "function"
    },
    {
      "inputs": [],
      "name": "opfCollector",
      "outputs": [
        {
          "internalType": "address",
          "name": "",
          "type": "address"
        }
      ],
      "stateMutability": "view",
      "type": "function"
    },
    {
      "inputs": [
        {
          "internalType": "address",
          "name": "_dispenser",
          "type": "address"
        }
      ],
      "name": "removeDispenserContract",
      "outputs": [],
      "stateMutability": "nonpayable",
      "type": "function"
    },
    {
      "inputs": [
        {
          "internalType": "address",
          "name": "_fixedRate",
          "type": "address"
        }
      ],
      "name": "removeFixedRateContract",
      "outputs": [],
      "stateMutability": "nonpayable",
      "type": "function"
    },
    {
      "inputs": [
        {
          "internalType": "address",
          "name": "oceanTokenAddress",
          "type": "address"
        }
      ],
      "name": "removeOceanToken",
      "outputs": [],
      "stateMutability": "nonpayable",
      "type": "function"
    },
    {
      "inputs": [
        {
          "internalType": "address",
          "name": "poolTemplate",
          "type": "address"
        }
      ],
      "name": "removePoolTemplate",
      "outputs": [],
      "stateMutability": "nonpayable",
      "type": "function"
    },
    {
      "inputs": [
        {
          "internalType": "address",
          "name": "_ssContract",
          "type": "address"
        }
      ],
      "name": "removeSSContract",
      "outputs": [],
      "stateMutability": "nonpayable",
      "type": "function"
    },
    {
      "inputs": [],
      "name": "routerOwner",
      "outputs": [
        {
          "internalType": "address",
          "name": "",
          "type": "address"
        }
      ],
      "stateMutability": "view",
      "type": "function"
    },
    {
      "inputs": [
        {
          "internalType": "address",
          "name": "",
          "type": "address"
        }
      ],
      "name": "ssContracts",
      "outputs": [
        {
          "internalType": "bool",
          "name": "",
          "type": "bool"
        }
      ],
      "stateMutability": "view",
      "type": "function"
    },
    {
      "inputs": [],
      "name": "swapOceanFee",
      "outputs": [
        {
          "internalType": "uint256",
          "name": "",
          "type": "uint256"
        }
      ],
      "stateMutability": "view",
      "type": "function"
    },
    {
      "inputs": [
        {
          "internalType": "uint256",
          "name": "_newSwapOceanFee",
          "type": "uint256"
        }
      ],
      "name": "updateOPFFee",
      "outputs": [],
      "stateMutability": "nonpayable",
      "type": "function"
    }
  ],
  "bytecode": "0x608060405266038d7ea4c680006005553480156200001c57600080fd5b506040516200363e3803806200363e8339810160408190526200003f91620003bc565b8282826001600160a01b038316620000b45760405162461bcd60e51b815260206004820152602d60248201527f42466163746f72793a20696e76616c69642062706f6f6c2074656d706c61746560448201526c207a65726f206164647265737360981b60648201526084015b60405180910390fd5b6001600160a01b0382166200010c5760405162461bcd60e51b815260206004820152601660248201527f42466163746f72793a207a65726f2061646472657373000000000000000000006044820152606401620000ab565b600080546001600160a01b0319166001600160a01b03841617905562000153836001600160a01b03166000908152600160208190526040909120805460ff19169091179055565b805115620002025760005b8151811015620002005760006001600160a01b0316336001600160a01b0316838381518110620001925762000192620004dc565b602090810291909101810151604080516000808252938101849052908101929092526001600160a01b0316907fbb6121447d29a04cc37bfd93cdf6a9dd08229f2d941116c1528f04698c4e790e9060600160405180910390a480620001f781620004f2565b9150506200015e565b505b5050506001600160a01b038516620002695760405162461bcd60e51b815260206004820152602360248201527f466163746f7279526f757465723a20496e76616c696420726f75746572206f776044820152623732b960e91b6064820152608401620000ab565b6001600160a01b038216620002cd5760405162461bcd60e51b815260206004820152602360248201527f466163746f7279526f757465723a20496e76616c6964206f7066436f6c6c65636044820152623a37b960e91b6064820152608401620000ab565b6001600160a01b038416620003385760405162461bcd60e51b815260206004820152602a60248201527f466163746f7279526f757465723a20496e76616c6964204f6365616e20546f6b604482015269656e206164647265737360b01b6064820152608401620000ab565b50600280546001600160a01b03199081166001600160a01b039687161790915560008054909116918516919091178155919092168152600660205260409020805460ff19166001179055506200051c565b80516001600160a01b0381168114620003a157600080fd5b919050565b634e487b7160e01b600052604160045260246000fd5b600080600080600060a08688031215620003d557600080fd5b620003e08662000389565b94506020620003f181880162000389565b9450620004016040880162000389565b9350620004116060880162000389565b60808801519093506001600160401b03808211156200042f57600080fd5b818901915089601f8301126200044457600080fd5b815181811115620004595762000459620003a6565b8060051b604051601f19603f83011681018181108582111715620004815762000481620003a6565b60405291825284820192508381018501918c831115620004a057600080fd5b938501935b82851015620004c957620004b98562000389565b84529385019392850192620004a5565b8096505050505050509295509295909350565b634e487b7160e01b600052603260045260246000fd5b60006000198214156200051557634e487b7160e01b600052601160045260246000fd5b5060010190565b613112806200052c6000396000f3fe608060405234801561001057600080fd5b50600436106102745760003560e01c8063b19aaac611610151578063d86850cc116100c3578063e525f99c11610087578063e525f99c14610511578063ec09302114610524578063ee3bc6351461052c578063ee661f671461053f578063f4d9e1e414610562578063f8154aee1461057557600080fd5b8063d86850cc146104bf578063de9a95a7146104e2578063e183fb3f146104f5578063e193faad146104fe578063e4a28a521461028e57600080fd5b8063c07c00fe11610115578063c07c00fe14610452578063c1c436a51461047e578063c36596a6146102d7578063c45a015514610491578063c6580d12146104a4578063d629a00a146104ac57600080fd5b8063b19aaac614610427578063b7b800a41461041f578063ba019dab1461043a578063bc063e1a14610442578063bc694ea21461044a57600080fd5b8063802d1422116101ea578063992e2a92116101ae578063992e2a92146103bb5780639cdfa6ad146103c35780639f2c010a146103d65780639f587d4d146103e9578063a28f78f11461040c578063b0e0d1361461041f57600080fd5b8063802d14221461035a57806382449375146103855780638552730a14610398578063867378c5146103ab5780639381cd2b146103b357600080fd5b8063218b53821161023c578063218b5382146102d757806329ce1ec5146102e657806347e14094146102f95780636c9fb6121461030c57806376c7a3c71461031f57806379463a0e1461032757600080fd5b80630318ad661461027957806309a3bbe41461028e57806316592614146102a957806316d9cb3d146102bc578063189d00ca146102cf575b600080fd5b61028c61028736600461284e565b610588565b005b61029661062e565b6040519081526020015b60405180910390f35b61028c6102b736600461284e565b610644565b61028c6102ca36600461284e565b6106de565b61029661077b565b610296670de0b6b3a764000081565b61028c6102f436600461284e565b610792565b61028c61030736600461284e565b6108bd565b61028c61031a36600461284e565b610957565b6102966109f4565b61034a61033536600461284e565b60066020526000908152604090205460ff1681565b60405190151581526020016102a0565b60045461036d906001600160a01b031681565b6040516001600160a01b0390911681526020016102a0565b6102966103933660046128b7565b610a09565b60025461036d906001600160a01b031681565b610296610b98565b610296610baf565b610296610bc2565b61028c6103d136600461284e565b610be0565b61028c6103e436600461284e565b610c7a565b61034a6103f736600461284e565b60086020526000908152604090205460ff1681565b60005461036d906001600160a01b031681565b610296600281565b61028c61043536600461284e565b610d14565b610296600181565b610296610da2565b610296610db5565b61034a61046036600461284e565b6001600160a01b031660009081526001602052604090205460ff1690565b61028c61048c36600461293a565b610dd4565b60035461036d906001600160a01b031681565b610296600081565b61028c6104ba366004612953565b610e3b565b61034a6104cd36600461284e565b60096020526000908152604090205460ff1681565b61028c6104f036600461284e565b610fc8565b61029660055481565b61028c61050c36600461284e565b611065565b61028c61051f36600461284e565b6110ed565b6102966111b9565b61036d61053a3660046129c3565b6111cc565b61034a61054d36600461284e565b60076020526000908152604090205460ff1681565b61028c610570366004612a73565b61159a565b61029661058336600461284e565b6120bc565b6002546001600160a01b031633146105bb5760405162461bcd60e51b81526004016105b290612ae8565b60405180910390fd5b6001600160a01b0381166105e15760405162461bcd60e51b81526004016105b290612b18565b6001600160a01b038116600081815260066020526040808220805460ff191660011790555133917fdffbd9ded1c09446f09377de547142dcce7dc541c8b0b028142b1eba7026b9e791a350565b610641670de0b6b3a76400006032612b78565b81565b6002546001600160a01b0316331461066e5760405162461bcd60e51b81526004016105b290612ae8565b6001600160a01b0381166106945760405162461bcd60e51b81526004016105b290612b97565b6001600160a01b038116600081815260096020526040808220805460ff191690555133917f63fe522dcdc5f006279afe8840a87398bb3d0dbb906b848866195859621908b391a350565b6002546001600160a01b031633146107085760405162461bcd60e51b81526004016105b290612ae8565b6001600160a01b03811661072e5760405162461bcd60e51b81526004016105b290612be0565b6001600160a01b038116600081815260086020526040808220805460ff191660011790555133917f45ccb9b9d6b112eb7a38daf6a23bda8b4c8449d5cf64a034975a5beb8cdd37b391a350565b6106416402540be400670de0b6b3a7640000612c29565b6002546001600160a01b031633146107bc5760405162461bcd60e51b81526004016105b290612ae8565b6001600160a01b0381166108225760405162461bcd60e51b815260206004820152602760248201527f466163746f7279526f757465723a20496e76616c6964205f666163746f7279206044820152666164647265737360c81b60648201526084016105b2565b6003546001600160a01b0316156108715760405162461bcd60e51b8152602060048201526013602482015272119050d513d49648105314915051164814d155606a1b60448201526064016105b2565b600380546001600160a01b0319166001600160a01b03831690811790915560405133907f1f869f1ddaa0e2e3652252b3394c05c805f54a0d5f7fb6975f785ae4f91e587190600090a350565b6002546001600160a01b031633146108e75760405162461bcd60e51b81526004016105b290612ae8565b6001600160a01b03811661090d5760405162461bcd60e51b81526004016105b290612c4b565b6001600160a01b038116600081815260076020526040808220805460ff191690555133917f7df5d17d768be6563796784637c80bc9204e2af0bc4ba8630f5aa2fed96ea48791a350565b6002546001600160a01b031633146109815760405162461bcd60e51b81526004016105b290612ae8565b6001600160a01b0381166109a75760405162461bcd60e51b81526004016105b290612c4b565b6001600160a01b038116600081815260076020526040808220805460ff191660011790555133917fcef3ce01f85c030161b431114e41e463297b68f169c1013c526b1cbc5747e54491a350565b610641620f4240670de0b6b3a7640000612c29565b60035460405163226e761560e01b81523360048201526000916001600160a01b03169063226e761590602401602060405180830381865afa158015610a52573d6000803e3d6000fd5b505050506040513d601f19601f82011682018060405250810190610a769190612ca5565b1515600114610a975760405162461bcd60e51b81526004016105b290612cc0565b6001600160a01b03861660009081526008602052604090205460ff161515600114610b175760405162461bcd60e51b815260206004820152602a60248201527f464143544f525920524f555445523a20496e76616c696420466978656450726960448201526918d950dbdb9d1c9858dd60b21b60648201526084016105b2565b60405163012c327560e01b81526001600160a01b0387169063012c327590610b4b9033908990899089908990600401612d0b565b6020604051808303816000875af1158015610b6a573d6000803e3d6000fd5b505050506040513d601f19601f82011682018060405250810190610b8e9190612d9a565b9695505050505050565b61064164e8d4a51000670de0b6b3a7640000612c29565b610641670de0b6b3a76400006064612b78565b610bd56003670de0b6b3a7640000612c29565b610641906001612db3565b6002546001600160a01b03163314610c0a5760405162461bcd60e51b81526004016105b290612ae8565b6001600160a01b038116610c305760405162461bcd60e51b81526004016105b290612b18565b6001600160a01b038116600081815260066020526040808220805460ff191690555133917fbbe55b1ff108e23e5ff1a6f5d36946eec15ec0ca0ded2bfed4cdcf697ca9046091a350565b6002546001600160a01b03163314610ca45760405162461bcd60e51b81526004016105b290612ae8565b6001600160a01b038116610cca5760405162461bcd60e51b81526004016105b290612be0565b6001600160a01b038116600081815260086020526040808220805460ff191690555133917ff1ec0697329a2e8de8cf055335547acc40fbace8712fc77aeea1ea2afbcf7e3b91a350565b6002546001600160a01b03163314610d3e5760405162461bcd60e51b81526004016105b290612ae8565b610d69816001600160a01b03166000908152600160208190526040909120805460ff19169091179055565b6040516001600160a01b0382169033907fc3674c32cbec94fe266aab7ef71f65b9bf77e1ed501d4f2bece8752f5352e9ac90600090a350565b610641600a670de0b6b3a7640000612c29565b6001610dca670de0b6b3a76400006002612b78565b6106419190612dcb565b6002546001600160a01b03163314610dfe5760405162461bcd60e51b81526004016105b290612ae8565b600581905560405181815233907faacba7241fc949e401522d9591e2686bc54ecd5c340c571e85c45fdb57dc87389060200160405180910390a250565b60035460405163226e761560e01b81523360048201526001600160a01b039091169063226e761590602401602060405180830381865afa158015610e83573d6000803e3d6000fd5b505050506040513d601f19601f82011682018060405250810190610ea79190612ca5565b1515600114610ec85760405162461bcd60e51b81526004016105b290612cc0565b6001600160a01b03861660009081526009602052604090205460ff161515600114610f475760405162461bcd60e51b815260206004820152602960248201527f464143544f525920524f555445523a20496e76616c69642044697370656e73656044820152681c90dbdb9d1c9858dd60ba1b60648201526084016105b2565b6040516324ce291760e01b81526001600160a01b0386811660048301526024820186905260448201859052838116606483015282811660848301528716906324ce29179060a401600060405180830381600087803b158015610fa857600080fd5b505af1158015610fbc573d6000803e3d6000fd5b50505050505050505050565b6002546001600160a01b03163314610ff25760405162461bcd60e51b81526004016105b290612ae8565b6001600160a01b0381166110185760405162461bcd60e51b81526004016105b290612b97565b6001600160a01b038116600081815260096020526040808220805460ff191660011790555133917f78be9d87a7b2c8707b044dbf5b04c3f747b692c55ec34dcd1d7357736478789c91a350565b6002546001600160a01b0316331461108f5760405162461bcd60e51b81526004016105b290612ae8565b6110b4816001600160a01b03166000908152600160205260409020805460ff19169055565b6040516001600160a01b0382169033907fc73fd5d40669565e257cbcd153784617ef26acfcc9fead31e68c0dce3ce82fb290600090a350565b6002546001600160a01b031633146111175760405162461bcd60e51b81526004016105b290612ae8565b6001600160a01b03811661116d5760405162461bcd60e51b815260206004820152601860248201527f496e76616c6964206e657720726f75746572206f776e6572000000000000000060448201526064016105b2565b600280546001600160a01b0319166001600160a01b03831690811790915560405133907fc736654a613824c69968e0ec25ac1a428ccd49e15c28e97b5dfd2c6059757e2a90600090a350565b6106416002670de0b6b3a7640000612c29565b60035460405163226e761560e01b81523360048201526000916001600160a01b03169063226e761590602401602060405180830381865afa158015611215573d6000803e3d6000fd5b505050506040513d601f19601f820116820180604052508101906112399190612ca5565b151560011461125a5760405162461bcd60e51b81526004016105b290612cc0565b600760008484600081811061127157611271612de2565b9050602002016020810190611286919061284e565b6001600160a01b0316815260208101919091526040016000205460ff1615156001146112ff5760405162461bcd60e51b815260206004820152602260248201527f464143544f525920524f555445523a20696e76616c6964207373436f6e74726160448201526118dd60f21b60648201526084016105b2565b60008787600181811061131457611314612de2565b90506020020135116113595760405162461bcd60e51b815260206004820152600e60248201526d57726f6e6720646563696d616c7360901b60448201526064016105b2565b600060068161136e60408c0160208d0161284e565b6001600160a01b0316815260208101919091526040016000205460ff16151560011415611399575060015b60006113ab60408b0160208c0161284e565b9050611434858560028181106113c3576113c3612de2565b90506020020160208101906113d8919061284e565b868660008181106113eb576113eb612de2565b9050602002016020810190611400919061284e565b8b8b600481811061141357611413612de2565b90506020020135846001600160a01b03166120f7909392919063ffffffff16565b6040805180820182526000916114f791908d90600290839083908082843760009201919091525050604080516020808f0282810182019093528e82529092508e918e9182919085019084908082843760009201919091525050604080516020808f0282810182019093528e82529093508e92508d91829185019084908082843760009201919091525050604080516020808e0282810182019093528d82529093508d92508c91829185019084908082843760009201919091525061216892505050565b90506001600160a01b0381166115475760405162461bcd60e51b8152602060048201526015602482015274119052531151081513c81111541313d6481413d3d3605a1b60448201526064016105b2565b806001600160a01b03167f90279d7790471e260411db76079630dfaa838fc987d29ae7aa7dc1bcd773ef2e84604051611584911515815260200190565b60405180910390a29a9950505050505050505050565b60328111156115f65760405162461bcd60e51b815260206004820152602260248201527f466163746f7279526f757465723a20546f6f204d616e79204f7065726174696f6044820152616e7360f01b60648201526084016105b2565b60005b818110156120b757600083838381811061161557611615612de2565b90506101000201604001602081019061162e9190612e0e565b600381111561163f5761163f612df8565b14156118e2576116a3333085858581811061165c5761165c612de2565b905061010002016080013586868681811061167957611679612de2565b905061010002016060016020810190611692919061284e565b6001600160a01b03169291906120f7565b6117298383838181106116b8576116b8612de2565b9050610100020160200160208101906116d1919061284e565b8484848181106116e3576116e3612de2565b905061010002016080013585858581811061170057611700612de2565b905061010002016060016020810190611719919061284e565b6001600160a01b03169190612478565b600083838381811061173d5761173d612de2565b905061010002016020016020810190611756919061284e565b6001600160a01b0316638201aa3f85858581811061177657611776612de2565b90506101000201606001602081019061178f919061284e565b8686868181106117a1576117a1612de2565b90506101000201608001358787878181106117be576117be612de2565b9050610100020160a00160208101906117d7919061284e565b8888888181106117e9576117e9612de2565b9050610100020160c0013589898981811061180657611806612de2565b60405160e089811b6001600160e01b03191682526001600160a01b03988916600483015260248201979097529490961660448501525060648301919091526101009093029092010135608482015260a40160408051808303816000875af1158015611875573d6000803e3d6000fd5b505050506040513d601f19601f820116820180604052508101906118999190612e2f565b5090506118dc33828686868181106118b3576118b3612de2565b9050610100020160a00160208101906118cc919061284e565b6001600160a01b0316919061252a565b506120a5565b60018383838181106118f6576118f6612de2565b90506101000201604001602081019061190f9190612e0e565b600381111561192057611920612df8565b1415611c4957600083838381811061193a5761193a612de2565b905061010002016020016020810190611953919061284e565b6001600160a01b0316632ea07d8a85858581811061197357611973612de2565b90506101000201606001602081019061198c919061284e565b86868681811061199e5761199e612de2565b9050610100020160a00160208101906119b7919061284e565b8787878181106119c9576119c9612de2565b6040516001600160e01b031960e088901b1681526001600160a01b0395861660048201529490931660248501525060c06101009092020101356044820152606401602060405180830381865afa158015611a27573d6000803e3d6000fd5b505050506040513d601f19601f82011682018060405250810190611a4b9190612d9a565b9050611a6533308387878781811061167957611679612de2565b611aa6848484818110611a7a57611a7a612de2565b905061010002016020016020810190611a93919061284e565b8286868681811061170057611700612de2565b838383818110611ab857611ab8612de2565b905061010002016020016020810190611ad1919061284e565b6001600160a01b0316637c5e9ea4858585818110611af157611af1612de2565b905061010002016060016020810190611b0a919061284e565b868686818110611b1c57611b1c612de2565b9050610100020160800135878787818110611b3957611b39612de2565b9050610100020160a0016020810190611b52919061284e565b888888818110611b6457611b64612de2565b9050610100020160c00135898989818110611b8157611b81612de2565b60405160e089811b6001600160e01b03191682526001600160a01b03988916600483015260248201979097529490961660448501525060648301919091526101009093029092010135608482015260a40160408051808303816000875af1158015611bf0573d6000803e3d6000fd5b505050506040513d601f19601f82011682018060405250810190611c149190612e2f565b50506118dc33858585818110611c2c57611c2c612de2565b9050610100020160c001358686868181106118b3576118b3612de2565b6002838383818110611c5d57611c5d612de2565b905061010002016040016020810190611c769190612e0e565b6003811115611c8757611c87612df8565b1415611fbc576000838383818110611ca157611ca1612de2565b905061010002016020016020810190611cba919061284e565b6001600160a01b0316634c87087d858585818110611cda57611cda612de2565b90506101000201600001356040518263ffffffff1660e01b8152600401611d0391815260200190565b61018060405180830381865afa158015611d21573d6000803e3d6000fd5b505050506040513d601f19601f82011682018060405250810190611d459190612e53565b505050505050505050509150506000848484818110611d6657611d66612de2565b905061010002016020016020810190611d7f919061284e565b6001600160a01b031663c99733a7868686818110611d9f57611d9f612de2565b9050610100020160000135878787818110611dbc57611dbc612de2565b9050610100020160c001356040518363ffffffff1660e01b8152600401611ded929190918252602082015260400190565b608060405180830381865afa158015611e0a573d6000803e3d6000fd5b505050506040513d601f19601f82011682018060405250810190611e2e9190612f07565b5050509050611e4b33308388888881811061167957611679612de2565b611e8c858585818110611e6057611e60612de2565b905061010002016020016020810190611e79919061284e565b8287878781811061170057611700612de2565b848484818110611e9e57611e9e612de2565b905061010002016020016020810190611eb7919061284e565b6001600160a01b031663825b5cd6868686818110611ed757611ed7612de2565b9050610100020160000135878787818110611ef457611ef4612de2565b9050610100020160c00135888888818110611f1157611f11612de2565b6040516001600160e01b031960e088901b168152600481019590955260248501939093525060806101009092020101356044820152606401600060405180830381600087803b158015611f6357600080fd5b505af1158015611f77573d6000803e3d6000fd5b50505050611fb533868686818110611f9157611f91612de2565b9050610100020160c00135846001600160a01b031661252a9092919063ffffffff16565b50506120a5565b828282818110611fce57611fce612de2565b905061010002016020016020810190611fe7919061284e565b6001600160a01b0316631d746d8384848481811061200757612007612de2565b9050610100020160a0016020810190612020919061284e565b85858581811061203257612032612de2565b60405160e086901b6001600160e01b03191681526001600160a01b03949094166004850152610100029190910160c00135602483015250336044820152606401600060405180830381600087803b15801561208c57600080fd5b505af11580156120a0573d6000803e3d6000fd5b505050505b806120af81612f3d565b9150506115f9565b505050565b6001600160a01b03811660009081526006602052604081205460ff161515600114156120ea57506000919050565b505060055490565b919050565b6040516001600160a01b03808516602483015283166044820152606481018290526121629085906323b872dd60e01b906084015b60408051601f198184030181529190526020810180516001600160e01b03166001600160e01b03199093169290921790915261255a565b50505050565b6000600160008360058151811061218157612181612de2565b6020908102919091018101516001600160a01b031682528101919091526040016000205460ff1615156001146121f95760405162461bcd60e51b815260206004820152601d60248201527f42466163746f72793a2057726f6e6720506f6f6c2054656d706c61746500000060448201526064016105b2565b600060405180604001604052808460048151811061221957612219612de2565b6020908102919091018101516001600160a01b039081168352600054169101528351909150612262908490600590811061225557612255612de2565b602002602001015161262c565b91506001600160a01b0382166122c65760405162461bcd60e51b8152602060048201526024808201527f42466163746f72793a20696e76616c69642062706f6f6c207a65726f206164646044820152637265737360e01b60648201526084016105b2565b6000829050806001600160a01b031663c070a6d8856000815181106122ed576122ed612de2565b602002602001015130886000808d896040518863ffffffff1660e01b815260040161231e9796959493929190612fbf565b6020604051808303816000875af115801561233d573d6000803e3d6000fd5b505050506040513d601f19601f820116820180604052508101906123619190612ca5565b6123a45760405162461bcd60e51b815260206004820152601460248201527311549497d253925512505312569157d09413d3d360621b60448201526064016105b2565b836000815181106123b7576123b7612de2565b60200260200101516001600160a01b03166353f0c3b4886000600281106123e0576123e0612de2565b60200201518960016020020151868860038151811061240157612401612de2565b60200260200101518b6040518663ffffffff1660e01b815260040161242a959493929190613025565b6020604051808303816000875af1158015612449573d6000803e3d6000fd5b505050506040513d601f19601f8201168201806040525081019061246d9190612ca5565b505050949350505050565b604051636eb1769f60e11b81523060048201526001600160a01b038381166024830152600091839186169063dd62ed3e90604401602060405180830381865afa1580156124c9573d6000803e3d6000fd5b505050506040513d601f19601f820116820180604052508101906124ed9190612d9a565b6124f79190612db3565b6040516001600160a01b03851660248201526044810182905290915061216290859063095ea7b360e01b9060640161212b565b6040516001600160a01b0383166024820152604481018290526120b790849063a9059cbb60e01b9060640161212b565b60006125af826040518060400160405280602081526020017f5361666545524332303a206c6f772d6c6576656c2063616c6c206661696c6564815250856001600160a01b03166126bc9092919063ffffffff16565b8051909150156120b757808060200190518101906125cd9190612ca5565b6120b75760405162461bcd60e51b815260206004820152602a60248201527f5361666545524332303a204552433230206f7065726174696f6e20646964206e6044820152691bdd081cdd58d8d9595960b21b60648201526084016105b2565b6000808260601b9050604051733d602d80600a3d3981f3363d3d373d3d3d363d7360601b81528160148201526e5af43d82803e903d91602b57fd5bf360881b60288201526037816000f06040516001600160a01b03821681529093507f117c72e6c25f0a072e36e148df71468ce2f3dbe7defec5b2c257a6e3eb65278c915060200160405180910390a150919050565b60606126cb84846000856126d5565b90505b9392505050565b6060824710156127365760405162461bcd60e51b815260206004820152602660248201527f416464726573733a20696e73756666696369656e742062616c616e636520666f6044820152651c8818d85b1b60d21b60648201526084016105b2565b843b6127845760405162461bcd60e51b815260206004820152601d60248201527f416464726573733a2063616c6c20746f206e6f6e2d636f6e747261637400000060448201526064016105b2565b600080866001600160a01b031685876040516127a0919061308d565b60006040518083038185875af1925050503d80600081146127dd576040519150601f19603f3d011682016040523d82523d6000602084013e6127e2565b606091505b50915091506127f28282866127fd565b979650505050505050565b6060831561280c5750816126ce565b82511561281c5782518084602001fd5b8160405162461bcd60e51b81526004016105b291906130a9565b6001600160a01b038116811461284b57600080fd5b50565b60006020828403121561286057600080fd5b81356126ce81612836565b60008083601f84011261287d57600080fd5b50813567ffffffffffffffff81111561289557600080fd5b6020830191508360208260051b85010111156128b057600080fd5b9250929050565b6000806000806000606086880312156128cf57600080fd5b85356128da81612836565b9450602086013567ffffffffffffffff808211156128f757600080fd5b61290389838a0161286b565b9096509450604088013591508082111561291c57600080fd5b506129298882890161286b565b969995985093965092949392505050565b60006020828403121561294c57600080fd5b5035919050565b60008060008060008060c0878903121561296c57600080fd5b863561297781612836565b9550602087013561298781612836565b9450604087013593506060870135925060808701356129a581612836565b915060a08701356129b581612836565b809150509295509295509295565b600080600080600080600060a0888a0312156129de57600080fd5b60408801898111156129ef57600080fd5b8897503567ffffffffffffffff80821115612a0957600080fd5b612a158b838c0161286b565b909850965060608a0135915080821115612a2e57600080fd5b612a3a8b838c0161286b565b909650945060808a0135915080821115612a5357600080fd5b50612a608a828b0161286b565b989b979a50959850939692959293505050565b60008060208385031215612a8657600080fd5b823567ffffffffffffffff80821115612a9e57600080fd5b818501915085601f830112612ab257600080fd5b813581811115612ac157600080fd5b8660208260081b8501011115612ad657600080fd5b60209290920196919550909350505050565b60208082526016908201527527b1b2b0b72937baba32b91d102727aa1027aba722a960511b604082015260600190565b6020808252602a908201527f466163746f7279526f757465723a20496e76616c6964204f6365616e20546f6b604082015269656e206164647265737360b01b606082015260800190565b634e487b7160e01b600052601160045260246000fd5b6000816000190483118215151615612b9257612b92612b62565b500290565b60208082526029908201527f466163746f7279526f757465723a20496e76616c6964205f64697370656e736560408201526872206164647265737360b81b606082015260800190565b60208082526029908201527f466163746f7279526f757465723a20496e76616c6964205f666978656452617460408201526865206164647265737360b81b606082015260800190565b600082612c4657634e487b7160e01b600052601260045260246000fd5b500490565b6020808252602a908201527f466163746f7279526f757465723a20496e76616c6964205f7373436f6e7472616040820152696374206164647265737360b01b606082015260800190565b805180151581146120f257600080fd5b600060208284031215612cb757600080fd5b6126ce82612c95565b6020808252602b908201527f464143544f525920524f555445523a204e4f54204f524947494e414c2045524360408201526a32302054454d504c41544560a81b606082015260800190565b6001600160a01b03868116825260606020808401829052908301869052600091879160808501845b89811015612d5a578435612d4681612836565b841682529382019390820190600101612d33565b5085810360408701528681526001600160fb1b03871115612d7a57600080fd5b8660051b9350838883830137600093010191825250979650505050505050565b600060208284031215612dac57600080fd5b5051919050565b60008219821115612dc657612dc6612b62565b500190565b600082821015612ddd57612ddd612b62565b500390565b634e487b7160e01b600052603260045260246000fd5b634e487b7160e01b600052602160045260246000fd5b600060208284031215612e2057600080fd5b8135600481106126ce57600080fd5b60008060408385031215612e4257600080fd5b505080516020909101519092909150565b6000806000806000806000806000806000806101808d8f031215612e7657600080fd5b8c51612e8181612836565b60208e0151909c50612e9281612836565b60408e015160608f0151919c509a50612eaa81612836565b60808e015160a08f0151919a5098509650612ec760c08e01612c95565b955060e08d015194506101008d015193506101208d015192506101408d01519150612ef56101608e01612c95565b90509295989b509295989b509295989b565b60008060008060808587031215612f1d57600080fd5b505082516020840151604085015160609095015191969095509092509050565b6000600019821415612f5157612f51612b62565b5060010190565b600081518084526020808501945080840160005b83811015612f8857815187529582019590820190600101612f6c565b509495945050505050565b8060005b60028110156121625781516001600160a01b0316845260209384019390910190600101612f97565b6001600160a01b0388811682528716602082015261012060408201819052600090612fec83820189612f58565b9150508515156060830152841515608083015261300c60a0830185612f93565b61301960e0830184612f93565b98975050505050505050565b6001600160a01b038681168252858116602083015284811660408301528316606082015260a0608082018190526000906127f290830184612f58565b60005b8381101561307c578181015183820152602001613064565b838111156121625750506000910152565b6000825161309f818460208701613061565b9190910192915050565b60208152600082518060208401526130c8816040850160208701613061565b601f01601f1916919091016040019291505056fea264697066735822122042e7427454f8822b4aaab5617540544a7ac34ef68de6556c88e551aeb05d567d64736f6c634300080a0033",
  "linkReferences": {},
  "deployedLinkReferences": {}
}