{
  "_format": "hh-sol-artifact-1",
  "contractName": "FactoryRouter",
  "sourceName": "contracts/pools/FactoryRouter.sol",
  "abi": [
    {
      "inputs": [
        {
          "internalType": "address",
          "name": "_routerOwner",
          "type": "address"
        },
        {
          "internalType": "address",
          "name": "_oceanToken",
          "type": "address"
        },
        {
          "internalType": "address",
          "name": "_bpoolTemplate",
          "type": "address"
        },
        {
          "internalType": "address",
          "name": "_opfCollector",
          "type": "address"
        },
        {
          "internalType": "address[]",
          "name": "_preCreatedPools",
          "type": "address[]"
        }
      ],
      "stateMutability": "nonpayable",
      "type": "constructor"
    },
    {
      "anonymous": false,
      "inputs": [
        {
          "indexed": true,
          "internalType": "address",
          "name": "newBPoolAddress",
          "type": "address"
        },
        {
          "indexed": true,
          "internalType": "address",
          "name": "registeredBy",
          "type": "address"
        },
        {
          "indexed": true,
          "internalType": "address",
          "name": "datatokenAddress",
          "type": "address"
        },
        {
          "indexed": false,
          "internalType": "address",
          "name": "basetokenAddress",
          "type": "address"
        },
        {
          "indexed": false,
          "internalType": "address",
          "name": "bpoolTemplateAddress",
          "type": "address"
        },
        {
          "indexed": false,
          "internalType": "address",
          "name": "ssAddress",
          "type": "address"
        }
      ],
      "name": "BPoolCreated",
      "type": "event"
    },
    {
      "anonymous": false,
      "inputs": [
        {
          "indexed": false,
          "internalType": "address",
          "name": "instance",
          "type": "address"
        }
      ],
      "name": "InstanceDeployed",
      "type": "event"
    },
    {
      "anonymous": false,
      "inputs": [
        {
          "indexed": true,
          "internalType": "address",
          "name": "poolAddress",
          "type": "address"
        },
        {
          "indexed": false,
          "internalType": "bool",
          "name": "isOcean",
          "type": "bool"
        }
      ],
      "name": "NewPool",
      "type": "event"
    },
    {
      "inputs": [],
      "name": "BONE",
      "outputs": [
        {
          "internalType": "uint256",
          "name": "",
          "type": "uint256"
        }
      ],
      "stateMutability": "view",
      "type": "function"
    },
    {
      "inputs": [],
      "name": "BPOW_PRECISION",
      "outputs": [
        {
          "internalType": "uint256",
          "name": "",
          "type": "uint256"
        }
      ],
      "stateMutability": "view",
      "type": "function"
    },
    {
      "inputs": [],
      "name": "EXIT_FEE",
      "outputs": [
        {
          "internalType": "uint256",
          "name": "",
          "type": "uint256"
        }
      ],
      "stateMutability": "view",
      "type": "function"
    },
    {
      "inputs": [],
      "name": "INIT_POOL_SUPPLY",
      "outputs": [
        {
          "internalType": "uint256",
          "name": "",
          "type": "uint256"
        }
      ],
      "stateMutability": "view",
      "type": "function"
    },
    {
      "inputs": [],
      "name": "MAX_BOUND_TOKENS",
      "outputs": [
        {
          "internalType": "uint256",
          "name": "",
          "type": "uint256"
        }
      ],
      "stateMutability": "view",
      "type": "function"
    },
    {
      "inputs": [],
      "name": "MAX_BPOW_BASE",
      "outputs": [
        {
          "internalType": "uint256",
          "name": "",
          "type": "uint256"
        }
      ],
      "stateMutability": "view",
      "type": "function"
    },
    {
      "inputs": [],
      "name": "MAX_FEE",
      "outputs": [
        {
          "internalType": "uint256",
          "name": "",
          "type": "uint256"
        }
      ],
      "stateMutability": "view",
      "type": "function"
    },
    {
      "inputs": [],
      "name": "MAX_IN_RATIO",
      "outputs": [
        {
          "internalType": "uint256",
          "name": "",
          "type": "uint256"
        }
      ],
      "stateMutability": "view",
      "type": "function"
    },
    {
      "inputs": [],
      "name": "MAX_OUT_RATIO",
      "outputs": [
        {
          "internalType": "uint256",
          "name": "",
          "type": "uint256"
        }
      ],
      "stateMutability": "view",
      "type": "function"
    },
    {
      "inputs": [],
      "name": "MAX_TOTAL_WEIGHT",
      "outputs": [
        {
          "internalType": "uint256",
          "name": "",
          "type": "uint256"
        }
      ],
      "stateMutability": "view",
      "type": "function"
    },
    {
      "inputs": [],
      "name": "MAX_WEIGHT",
      "outputs": [
        {
          "internalType": "uint256",
          "name": "",
          "type": "uint256"
        }
      ],
      "stateMutability": "view",
      "type": "function"
    },
    {
      "inputs": [],
      "name": "MIN_BALANCE",
      "outputs": [
        {
          "internalType": "uint256",
          "name": "",
          "type": "uint256"
        }
      ],
      "stateMutability": "view",
      "type": "function"
    },
    {
      "inputs": [],
      "name": "MIN_BOUND_TOKENS",
      "outputs": [
        {
          "internalType": "uint256",
          "name": "",
          "type": "uint256"
        }
      ],
      "stateMutability": "view",
      "type": "function"
    },
    {
      "inputs": [],
      "name": "MIN_BPOW_BASE",
      "outputs": [
        {
          "internalType": "uint256",
          "name": "",
          "type": "uint256"
        }
      ],
      "stateMutability": "view",
      "type": "function"
    },
    {
      "inputs": [],
      "name": "MIN_FEE",
      "outputs": [
        {
          "internalType": "uint256",
          "name": "",
          "type": "uint256"
        }
      ],
      "stateMutability": "view",
      "type": "function"
    },
    {
      "inputs": [],
      "name": "MIN_WEIGHT",
      "outputs": [
        {
          "internalType": "uint256",
          "name": "",
          "type": "uint256"
        }
      ],
      "stateMutability": "view",
      "type": "function"
    },
    {
      "inputs": [
        {
          "internalType": "address",
          "name": "_dispenser",
          "type": "address"
        }
      ],
      "name": "addDispenserContract",
      "outputs": [],
      "stateMutability": "nonpayable",
      "type": "function"
    },
    {
      "inputs": [
        {
          "internalType": "address",
          "name": "_factory",
          "type": "address"
        }
      ],
      "name": "addFactory",
      "outputs": [],
      "stateMutability": "nonpayable",
      "type": "function"
    },
    {
      "inputs": [
        {
          "internalType": "address",
          "name": "_fixedRate",
          "type": "address"
        }
      ],
      "name": "addFixedRateContract",
      "outputs": [],
      "stateMutability": "nonpayable",
      "type": "function"
    },
    {
      "inputs": [
        {
          "internalType": "address",
          "name": "oceanTokenAddress",
          "type": "address"
        }
      ],
      "name": "addOceanToken",
      "outputs": [],
      "stateMutability": "nonpayable",
      "type": "function"
    },
    {
      "inputs": [
        {
          "internalType": "address",
          "name": "poolTemplate",
          "type": "address"
        }
      ],
      "name": "addPoolTemplate",
      "outputs": [],
      "stateMutability": "nonpayable",
      "type": "function"
    },
    {
      "inputs": [
        {
          "internalType": "address",
          "name": "_ssContract",
          "type": "address"
        }
      ],
      "name": "addSSContract",
      "outputs": [],
      "stateMutability": "nonpayable",
      "type": "function"
    },
    {
      "inputs": [
        {
          "components": [
            {
              "internalType": "bytes32",
              "name": "exchangeIds",
              "type": "bytes32"
            },
            {
              "internalType": "address",
              "name": "source",
              "type": "address"
            },
            {
              "internalType": "enum FactoryRouter.operationType",
              "name": "operation",
              "type": "uint8"
            },
            {
              "internalType": "address",
              "name": "tokenIn",
              "type": "address"
            },
            {
              "internalType": "uint256",
              "name": "amountsIn",
              "type": "uint256"
            },
            {
              "internalType": "address",
              "name": "tokenOut",
              "type": "address"
            },
            {
              "internalType": "uint256",
              "name": "amountsOut",
              "type": "uint256"
            },
            {
              "internalType": "uint256",
              "name": "maxPrice",
              "type": "uint256"
            }
          ],
          "internalType": "struct FactoryRouter.Operations[]",
          "name": "_operations",
          "type": "tuple[]"
        }
      ],
      "name": "buyDTBatch",
      "outputs": [],
      "stateMutability": "nonpayable",
      "type": "function"
    },
    {
      "inputs": [
        {
          "internalType": "address",
          "name": "_routerOwner",
          "type": "address"
        }
      ],
      "name": "changeRouterOwner",
      "outputs": [],
      "stateMutability": "nonpayable",
      "type": "function"
    },
    {
      "inputs": [
        {
          "internalType": "address",
          "name": "_dispenser",
          "type": "address"
        },
        {
          "internalType": "address",
          "name": "datatoken",
          "type": "address"
        },
        {
          "internalType": "uint256",
          "name": "maxTokens",
          "type": "uint256"
        },
        {
          "internalType": "uint256",
          "name": "maxBalance",
          "type": "uint256"
        },
        {
          "internalType": "address",
          "name": "owner",
          "type": "address"
        },
        {
          "internalType": "address",
          "name": "allowedSwapper",
          "type": "address"
        }
      ],
      "name": "deployDispenser",
      "outputs": [],
      "stateMutability": "nonpayable",
      "type": "function"
    },
    {
      "inputs": [
        {
          "internalType": "address",
          "name": "fixedPriceAddress",
          "type": "address"
        },
        {
          "internalType": "address[]",
          "name": "addresses",
          "type": "address[]"
        },
        {
          "internalType": "uint256[]",
          "name": "uints",
          "type": "uint256[]"
        }
      ],
      "name": "deployFixedRate",
      "outputs": [
        {
          "internalType": "bytes32",
          "name": "exchangeId",
          "type": "bytes32"
        }
      ],
      "stateMutability": "nonpayable",
      "type": "function"
    },
    {
      "inputs": [
        {
          "internalType": "address[2]",
          "name": "tokens",
          "type": "address[2]"
        },
        {
          "internalType": "uint256[]",
          "name": "ssParams",
          "type": "uint256[]"
        },
        {
          "internalType": "uint256[]",
          "name": "swapFees",
          "type": "uint256[]"
        },
        {
          "internalType": "address[]",
          "name": "addresses",
          "type": "address[]"
        }
      ],
      "name": "deployPool",
      "outputs": [
        {
          "internalType": "address",
          "name": "",
          "type": "address"
        }
      ],
      "stateMutability": "nonpayable",
      "type": "function"
    },
    {
      "inputs": [
        {
          "internalType": "address",
          "name": "",
          "type": "address"
        }
      ],
      "name": "dispenser",
      "outputs": [
        {
          "internalType": "bool",
          "name": "",
          "type": "bool"
        }
      ],
      "stateMutability": "view",
      "type": "function"
    },
    {
      "inputs": [],
      "name": "factory",
      "outputs": [
        {
          "internalType": "address",
          "name": "",
          "type": "address"
        }
      ],
      "stateMutability": "view",
      "type": "function"
    },
    {
      "inputs": [
        {
          "internalType": "address",
          "name": "",
          "type": "address"
        }
      ],
      "name": "fixedPrice",
      "outputs": [
        {
          "internalType": "bool",
          "name": "",
          "type": "bool"
        }
      ],
      "stateMutability": "view",
      "type": "function"
    },
    {
      "inputs": [],
      "name": "fixedRate",
      "outputs": [
        {
          "internalType": "address",
          "name": "",
          "type": "address"
        }
      ],
      "stateMutability": "view",
      "type": "function"
    },
    {
      "inputs": [
        {
          "internalType": "address",
          "name": "baseToken",
          "type": "address"
        }
      ],
      "name": "getOPFFee",
      "outputs": [
        {
          "internalType": "uint256",
          "name": "",
          "type": "uint256"
        }
      ],
      "stateMutability": "view",
      "type": "function"
    },
    {
      "inputs": [
        {
          "internalType": "address",
          "name": "poolTemplate",
          "type": "address"
        }
      ],
      "name": "isPoolTemplate",
      "outputs": [
        {
          "internalType": "bool",
          "name": "",
          "type": "bool"
        }
      ],
      "stateMutability": "view",
      "type": "function"
    },
    {
      "inputs": [
        {
          "internalType": "address",
          "name": "",
          "type": "address"
        }
      ],
      "name": "oceanTokens",
      "outputs": [
        {
          "internalType": "bool",
          "name": "",
          "type": "bool"
        }
      ],
      "stateMutability": "view",
      "type": "function"
    },
    {
      "inputs": [],
      "name": "opfCollector",
      "outputs": [
        {
          "internalType": "address",
          "name": "",
          "type": "address"
        }
      ],
      "stateMutability": "view",
      "type": "function"
    },
    {
      "inputs": [
        {
          "internalType": "address",
          "name": "oceanTokenAddress",
          "type": "address"
        }
      ],
      "name": "removeOceanToken",
      "outputs": [],
      "stateMutability": "nonpayable",
      "type": "function"
    },
    {
      "inputs": [
        {
          "internalType": "address",
          "name": "poolTemplate",
          "type": "address"
        }
      ],
      "name": "removePoolTemplate",
      "outputs": [],
      "stateMutability": "nonpayable",
      "type": "function"
    },
    {
      "inputs": [],
      "name": "routerOwner",
      "outputs": [
        {
          "internalType": "address",
          "name": "",
          "type": "address"
        }
      ],
      "stateMutability": "view",
      "type": "function"
    },
    {
      "inputs": [
        {
          "internalType": "address",
          "name": "",
          "type": "address"
        }
      ],
      "name": "ssContracts",
      "outputs": [
        {
          "internalType": "bool",
          "name": "",
          "type": "bool"
        }
      ],
      "stateMutability": "view",
      "type": "function"
    },
    {
      "inputs": [],
      "name": "swapOceanFee",
      "outputs": [
        {
          "internalType": "uint256",
          "name": "",
          "type": "uint256"
        }
      ],
      "stateMutability": "view",
      "type": "function"
    },
    {
      "inputs": [
        {
          "internalType": "uint256",
          "name": "_newSwapOceanFee",
          "type": "uint256"
        }
      ],
      "name": "updateOPFFee",
      "outputs": [],
      "stateMutability": "nonpayable",
      "type": "function"
    }
  ],
  "bytecode": "0x608060405266038d7ea4c680006005553480156200001c57600080fd5b5060405162003120380380620031208339810160408190526200003f9162000273565b8282826001600160a01b038316620000b45760405162461bcd60e51b815260206004820152602d60248201527f42466163746f72793a20696e76616c69642062706f6f6c2074656d706c61746560448201526c207a65726f206164647265737360981b60648201526084015b60405180910390fd5b6001600160a01b0382166200010c5760405162461bcd60e51b815260206004820152601660248201527f42466163746f72793a207a65726f2061646472657373000000000000000000006044820152606401620000ab565b600080546001600160a01b0319166001600160a01b03841617905562000153836001600160a01b03166000908152600160208190526040909120805460ff19169091179055565b805115620002025760005b8151811015620002005760006001600160a01b0316336001600160a01b0316838381518110620001925762000192620003c4565b602090810291909101810151604080516000808252938101849052908101929092526001600160a01b0316907fbb6121447d29a04cc37bfd93cdf6a9dd08229f2d941116c1528f04698c4e790e9060600160405180910390a480620001f7816200039a565b9150506200015e565b505b5050600280546001600160a01b03199081166001600160a01b0398891617909155600080549091169387169390931783555050919092168152600660205260409020805460ff1916600117905550620003f0565b80516001600160a01b03811681146200026e57600080fd5b919050565b600080600080600060a086880312156200028c57600080fd5b620002978662000256565b94506020620002a881880162000256565b9450620002b86040880162000256565b9350620002c86060880162000256565b60808801519093506001600160401b0380821115620002e657600080fd5b818901915089601f830112620002fb57600080fd5b815181811115620003105762000310620003da565b8060051b604051601f19603f83011681018181108582111715620003385762000338620003da565b604052828152858101935084860182860187018e10156200035857600080fd5b600095505b838610156200038657620003718162000256565b8552600195909501949386019386016200035d565b508096505050505050509295509295909350565b6000600019821415620003bd57634e487b7160e01b600052601160045260246000fd5b5060010190565b634e487b7160e01b600052603260045260246000fd5b634e487b7160e01b600052604160045260246000fd5b612d2080620004006000396000f3fe608060405234801561001057600080fd5b50600436106102535760003560e01c8063b7b800a411610146578063d86850cc116100c3578063e525f99c11610087578063e525f99c146104b7578063ec093021146104ca578063ee3bc635146104d2578063ee661f67146104e5578063f4d9e1e414610508578063f8154aee1461051b57600080fd5b8063d86850cc14610465578063de9a95a714610488578063e183fb3f1461049b578063e193faad146104a4578063e4a28a521461026d57600080fd5b8063c1c436a51161010a578063c1c436a514610424578063c36596a6146102a3578063c45a015514610437578063c6580d121461044a578063d629a00a1461045257600080fd5b8063b7b800a4146103c5578063ba019dab146103e0578063bc063e1a146103e8578063bc694ea2146103f0578063c07c00fe146103f857600080fd5b806382449375116101d45780639cdfa6ad116101985780639cdfa6ad1461037c5780639f587d4d1461038f578063a28f78f1146103b2578063b0e0d136146103c5578063b19aaac6146103cd57600080fd5b8063824493751461033e5780638552730a14610351578063867378c5146103645780639381cd2b1461036c578063992e2a921461037457600080fd5b806329ce1ec51161021b57806329ce1ec5146102b25780636c9fb612146102c557806376c7a3c7146102d857806379463a0e146102e0578063802d14221461031357600080fd5b80630318ad661461025857806309a3bbe41461026d57806316d9cb3d14610288578063189d00ca1461029b578063218b5382146102a3575b600080fd5b61026b610266366004612608565b61052e565b005b610275610585565b6040519081526020015b60405180910390f35b61026b610296366004612608565b61059b565b6102756105e9565b610275670de0b6b3a764000081565b61026b6102c0366004612608565b610600565b61026b6102d3366004612608565b61069b565b6102756106e9565b6103036102ee366004612608565b60066020526000908152604090205460ff1681565b604051901515815260200161027f565b600454610326906001600160a01b031681565b6040516001600160a01b03909116815260200161027f565b61027561034c366004612750565b6106fe565b600254610326906001600160a01b031681565b6102756108ab565b6102756108c2565b6102756108d5565b61026b61038a366004612608565b6108f3565b61030361039d366004612608565b60086020526000908152604090205460ff1681565b600054610326906001600160a01b031681565b610275600281565b61026b6103db366004612608565b61093e565b610275600181565b610275610996565b6102756109a9565b610303610406366004612608565b6001600160a01b031660009081526001602052604090205460ff1690565b61026b61043236600461294d565b6109c8565b600354610326906001600160a01b031681565b610275600081565b61026b6104603660046126e0565b6109f7565b610303610473366004612608565b60096020526000908152604090205460ff1681565b61026b610496366004612608565b610b93565b61027560055481565b61026b6104b2366004612608565b610be1565b61026b6104c5366004612608565b610c30565b610275610cd2565b6103266104e03660046127d3565b610ce5565b6103036104f3366004612608565b60076020526000908152604090205460ff1681565b61026b610516366004612883565b611189565b610275610529366004612608565b6121b3565b6002546001600160a01b031633146105615760405162461bcd60e51b815260040161055890612bd8565b60405180910390fd5b6001600160a01b03166000908152600660205260409020805460ff19166001179055565b610598670de0b6b3a76400006032612c42565b81565b6002546001600160a01b031633146105c55760405162461bcd60e51b815260040161055890612bd8565b6001600160a01b03166000908152600860205260409020805460ff19166001179055565b6105986402540be400670de0b6b3a7640000612c20565b6002546001600160a01b0316331461062a5760405162461bcd60e51b815260040161055890612bd8565b6003546001600160a01b0316156106795760405162461bcd60e51b8152602060048201526013602482015272119050d513d49648105314915051164814d155606a1b6044820152606401610558565b600380546001600160a01b0319166001600160a01b0392909216919091179055565b6002546001600160a01b031633146106c55760405162461bcd60e51b815260040161055890612bd8565b6001600160a01b03166000908152600760205260409020805460ff19166001179055565b610598620f4240670de0b6b3a7640000612c20565b60035460405163226e761560e01b81523360048201526000916001600160a01b03169063226e76159060240160206040518083038186803b15801561074257600080fd5b505afa158015610756573d6000803e3d6000fd5b505050506040513d601f19601f8201168201806040525081019061077a91906128f8565b151560011461079b5760405162461bcd60e51b815260040161055890612b8d565b6001600160a01b03861660009081526008602052604090205460ff16151560011461081b5760405162461bcd60e51b815260206004820152602a60248201527f464143544f525920524f555445523a20496e76616c696420466978656450726960448201526918d950dbdb9d1c9858dd60b21b6064820152608401610558565b60405163012c327560e01b81526001600160a01b0387169063012c32759061084f9033908990899089908990600401612afe565b602060405180830381600087803b15801561086957600080fd5b505af115801561087d573d6000803e3d6000fd5b505050506040513d601f19601f820116820180604052508101906108a19190612913565b9695505050505050565b61059864e8d4a51000670de0b6b3a7640000612c20565b610598670de0b6b3a76400006064612c42565b6108e86003670de0b6b3a7640000612c20565b610598906001612c08565b6002546001600160a01b0316331461091d5760405162461bcd60e51b815260040161055890612bd8565b6001600160a01b03166000908152600660205260409020805460ff19169055565b6002546001600160a01b031633146109685760405162461bcd60e51b815260040161055890612bd8565b610993816001600160a01b03166000908152600160208190526040909120805460ff19169091179055565b50565b610598600a670de0b6b3a7640000612c20565b60016109be670de0b6b3a76400006002612c42565b6105989190612c61565b6002546001600160a01b031633146109f25760405162461bcd60e51b815260040161055890612bd8565b600555565b60035460405163226e761560e01b81523360048201526001600160a01b039091169063226e76159060240160206040518083038186803b158015610a3a57600080fd5b505afa158015610a4e573d6000803e3d6000fd5b505050506040513d601f19601f82011682018060405250810190610a7291906128f8565b1515600114610a935760405162461bcd60e51b815260040161055890612b8d565b6001600160a01b03861660009081526009602052604090205460ff161515600114610b125760405162461bcd60e51b815260206004820152602960248201527f464143544f525920524f555445523a20496e76616c69642044697370656e73656044820152681c90dbdb9d1c9858dd60ba1b6064820152608401610558565b6040516324ce291760e01b81526001600160a01b0386811660048301526024820186905260448201859052838116606483015282811660848301528716906324ce29179060a401600060405180830381600087803b158015610b7357600080fd5b505af1158015610b87573d6000803e3d6000fd5b50505050505050505050565b6002546001600160a01b03163314610bbd5760405162461bcd60e51b815260040161055890612bd8565b6001600160a01b03166000908152600960205260409020805460ff19166001179055565b6002546001600160a01b03163314610c0b5760405162461bcd60e51b815260040161055890612bd8565b610993816001600160a01b03166000908152600160205260409020805460ff19169055565b6002546001600160a01b03163314610c5a5760405162461bcd60e51b815260040161055890612bd8565b6001600160a01b038116610cb05760405162461bcd60e51b815260206004820152601860248201527f496e76616c6964206e657720726f75746572206f776e657200000000000000006044820152606401610558565b600280546001600160a01b0319166001600160a01b0392909216919091179055565b6105986002670de0b6b3a7640000612c20565b60035460405163226e761560e01b81523360048201526000916001600160a01b03169063226e76159060240160206040518083038186803b158015610d2957600080fd5b505afa158015610d3d573d6000803e3d6000fd5b505050506040513d601f19601f82011682018060405250810190610d6191906128f8565b1515600114610d825760405162461bcd60e51b815260040161055890612b8d565b6007600084846000818110610d9957610d99612cbf565b9050602002016020810190610dae9190612608565b6001600160a01b0316815260208101919091526040016000205460ff161515600114610e275760405162461bcd60e51b815260206004820152602260248201527f464143544f525920524f555445523a20696e76616c6964207373436f6e74726160448201526118dd60f21b6064820152608401610558565b600087876001818110610e3c57610e3c612cbf565b9050602002013511610e815760405162461bcd60e51b815260206004820152600e60248201526d57726f6e6720646563696d616c7360901b6044820152606401610558565b6000600681610e9660408c0160208d01612608565b6001600160a01b0316815260208101919091526040016000205460ff16151560011415610ec1575060015b6000610ed360408b0160208c01612608565b9050806001600160a01b03166323b872dd86866002818110610ef757610ef7612cbf565b9050602002016020810190610f0c9190612608565b87876000818110610f1f57610f1f612cbf565b9050602002016020810190610f349190612608565b8c8c6004818110610f4757610f47612cbf565b905060200201356040518463ffffffff1660e01b8152600401610f6c93929190612ada565b602060405180830381600087803b158015610f8657600080fd5b505af1158015610f9a573d6000803e3d6000fd5b505050506040513d601f19601f82011682018060405250810190610fbe91906128f8565b6110235760405162461bcd60e51b815260206004820152603060248201527f4465706c6f79506f6f6c3a204661696c656420746f207472616e73666572206960448201526f6e697469616c206c697175696469747960801b6064820152608401610558565b6040805180820182526000916110e691908d90600290839083908082843760009201919091525050604080516020808f0282810182019093528e82529092508e918e9182919085019084908082843760009201919091525050604080516020808f0282810182019093528e82529093508e92508d91829185019084908082843760009201919091525050604080516020808e0282810182019093528d82529093508d92508c9182918501908490808284376000920191909152506121ee92505050565b90506001600160a01b0381166111365760405162461bcd60e51b8152602060048201526015602482015274119052531151081513c81111541313d6481413d3d3605a1b6044820152606401610558565b806001600160a01b03167f90279d7790471e260411db76079630dfaa838fc987d29ae7aa7dc1bcd773ef2e84604051611173911515815260200190565b60405180910390a29a9950505050505050505050565b60328111156111e55760405162461bcd60e51b815260206004820152602260248201527f466163746f7279526f757465723a20546f6f204d616e79204f7065726174696f6044820152616e7360f01b6064820152608401610558565b60005b818110156121ae57600083838381811061120457611204612cbf565b90506101000201604001602081019061121d919061292c565b600381111561122e5761122e612ca9565b14156116775782828281811061124657611246612cbf565b90506101000201606001602081019061125f9190612608565b6001600160a01b03166323b872dd333086868681811061128157611281612cbf565b90506101000201608001356040518463ffffffff1660e01b81526004016112aa93929190612ada565b602060405180830381600087803b1580156112c457600080fd5b505af11580156112d8573d6000803e3d6000fd5b505050506040513d601f19601f820116820180604052508101906112fc91906128f8565b5082828281811061130f5761130f612cbf565b9050610100020160600160208101906113289190612608565b6001600160a01b031663095ea7b384848481811061134857611348612cbf565b9050610100020160200160208101906113619190612608565b85858581811061137357611373612cbf565b90506101000201608001356040518363ffffffff1660e01b81526004016113af9291906001600160a01b03929092168252602082015260400190565b602060405180830381600087803b1580156113c957600080fd5b505af11580156113dd573d6000803e3d6000fd5b505050506040513d601f19601f8201168201806040525081019061140191906128f8565b50600083838381811061141657611416612cbf565b90506101000201602001602081019061142f9190612608565b6001600160a01b0316638201aa3f85858581811061144f5761144f612cbf565b9050610100020160600160208101906114689190612608565b86868681811061147a5761147a612cbf565b905061010002016080013587878781811061149757611497612cbf565b9050610100020160a00160208101906114b09190612608565b8888888181106114c2576114c2612cbf565b9050610100020160c001358989898181106114df576114df612cbf565b60405160e089811b6001600160e01b03191682526001600160a01b03988916600483015260248201979097529490961660448501525060648301919091526101009093029092010135608482015260a4016040805180830381600087803b15801561154957600080fd5b505af115801561155d573d6000803e3d6000fd5b505050506040513d601f19601f820116820180604052508101906115819190612966565b50905083838381811061159657611596612cbf565b9050610100020160a00160208101906115af9190612608565b60405163a9059cbb60e01b8152336004820152602481018390526001600160a01b03919091169063a9059cbb906044015b602060405180830381600087803b1580156115fa57600080fd5b505af115801561160e573d6000803e3d6000fd5b505050506040513d601f19601f8201168201806040525081019061163291906128f8565b6116715760405162461bcd60e51b815260206004820152601060248201526f04661696c6564204d756c7469537761760841b6044820152606401610558565b5061219c565b600183838381811061168b5761168b612cbf565b9050610100020160400160208101906116a4919061292c565b60038111156116b5576116b5612ca9565b1415611b725760008383838181106116cf576116cf612cbf565b9050610100020160200160208101906116e89190612608565b6001600160a01b0316632ea07d8a85858581811061170857611708612cbf565b9050610100020160600160208101906117219190612608565b86868681811061173357611733612cbf565b9050610100020160a001602081019061174c9190612608565b87878781811061175e5761175e612cbf565b9050610100020160c001356040518463ffffffff1660e01b815260040161178793929190612ada565b60206040518083038186803b15801561179f57600080fd5b505afa1580156117b3573d6000803e3d6000fd5b505050506040513d601f19601f820116820180604052508101906117d79190612913565b90508383838181106117eb576117eb612cbf565b9050610100020160600160208101906118049190612608565b6001600160a01b03166323b872dd3330846040518463ffffffff1660e01b815260040161183393929190612ada565b602060405180830381600087803b15801561184d57600080fd5b505af1158015611861573d6000803e3d6000fd5b505050506040513d601f19601f8201168201806040525081019061188591906128f8565b5083838381811061189857611898612cbf565b9050610100020160600160208101906118b19190612608565b6001600160a01b031663095ea7b38585858181106118d1576118d1612cbf565b9050610100020160200160208101906118ea9190612608565b6040516001600160e01b031960e084901b1681526001600160a01b03909116600482015260248101849052604401602060405180830381600087803b15801561193257600080fd5b505af1158015611946573d6000803e3d6000fd5b505050506040513d601f19601f8201168201806040525081019061196a91906128f8565b5083838381811061197d5761197d612cbf565b9050610100020160200160208101906119969190612608565b6001600160a01b0316637c5e9ea48585858181106119b6576119b6612cbf565b9050610100020160600160208101906119cf9190612608565b8686868181106119e1576119e1612cbf565b90506101000201608001358787878181106119fe576119fe612cbf565b9050610100020160a0016020810190611a179190612608565b888888818110611a2957611a29612cbf565b9050610100020160c00135898989818110611a4657611a46612cbf565b60405160e089811b6001600160e01b03191682526001600160a01b03988916600483015260248201979097529490961660448501525060648301919091526101009093029092010135608482015260a4016040805180830381600087803b158015611ab057600080fd5b505af1158015611ac4573d6000803e3d6000fd5b505050506040513d601f19601f82011682018060405250810190611ae89190612966565b5050838383818110611afc57611afc612cbf565b9050610100020160a0016020810190611b159190612608565b6001600160a01b031663a9059cbb33868686818110611b3657611b36612cbf565b9050610100020160c001356040518363ffffffff1660e01b81526004016115e09291906001600160a01b03929092168252602082015260400190565b6002838383818110611b8657611b86612cbf565b905061010002016040016020810190611b9f919061292c565b6003811115611bb057611bb0612ca9565b14156120b3576000838383818110611bca57611bca612cbf565b905061010002016020016020810190611be39190612608565b6001600160a01b0316634c87087d858585818110611c0357611c03612cbf565b90506101000201600001356040518263ffffffff1660e01b8152600401611c2c91815260200190565b6101806040518083038186803b158015611c4557600080fd5b505afa158015611c59573d6000803e3d6000fd5b505050506040513d601f19601f82011682018060405250810190611c7d919061262c565b505050505050505050509150506000848484818110611c9e57611c9e612cbf565b905061010002016020016020810190611cb79190612608565b6001600160a01b031663c99733a7868686818110611cd757611cd7612cbf565b9050610100020160000135878787818110611cf457611cf4612cbf565b9050610100020160c001356040518363ffffffff1660e01b8152600401611d25929190918252602082015260400190565b60806040518083038186803b158015611d3d57600080fd5b505afa158015611d51573d6000803e3d6000fd5b505050506040513d601f19601f82011682018060405250810190611d75919061298a565b5050509050848484818110611d8c57611d8c612cbf565b905061010002016060016020810190611da59190612608565b6001600160a01b03166323b872dd3330846040518463ffffffff1660e01b8152600401611dd493929190612ada565b602060405180830381600087803b158015611dee57600080fd5b505af1158015611e02573d6000803e3d6000fd5b505050506040513d601f19601f82011682018060405250810190611e2691906128f8565b50848484818110611e3957611e39612cbf565b905061010002016060016020810190611e529190612608565b6001600160a01b031663095ea7b3868686818110611e7257611e72612cbf565b905061010002016020016020810190611e8b9190612608565b6040516001600160e01b031960e084901b1681526001600160a01b03909116600482015260248101849052604401602060405180830381600087803b158015611ed357600080fd5b505af1158015611ee7573d6000803e3d6000fd5b505050506040513d601f19601f82011682018060405250810190611f0b91906128f8565b50848484818110611f1e57611f1e612cbf565b905061010002016020016020810190611f379190612608565b6001600160a01b031663825b5cd6868686818110611f5757611f57612cbf565b9050610100020160000135878787818110611f7457611f74612cbf565b9050610100020160c00135888888818110611f9157611f91612cbf565b6040516001600160e01b031960e088901b168152600481019590955260248501939093525060806101009092020101356044820152606401600060405180830381600087803b158015611fe357600080fd5b505af1158015611ff7573d6000803e3d6000fd5b50505050816001600160a01b031663a9059cbb3387878781811061201d5761201d612cbf565b9050610100020160c001356040518363ffffffff1660e01b81526004016120599291906001600160a01b03929092168252602082015260400190565b602060405180830381600087803b15801561207357600080fd5b505af1158015612087573d6000803e3d6000fd5b505050506040513d601f19601f820116820180604052508101906120ab91906128f8565b50505061219c565b8282828181106120c5576120c5612cbf565b9050610100020160200160208101906120de9190612608565b6001600160a01b0316631d746d838484848181106120fe576120fe612cbf565b9050610100020160a00160208101906121179190612608565b85858581811061212957612129612cbf565b60405160e086901b6001600160e01b03191681526001600160a01b03949094166004850152610100029190910160c00135602483015250336044820152606401600060405180830381600087803b15801561218357600080fd5b505af1158015612197573d6000803e3d6000fd5b505050505b806121a681612c78565b9150506111e8565b505050565b6001600160a01b03811660009081526006602052604081205460ff161515600114156121e157506000919050565b505060055490565b919050565b6000600160008360058151811061220757612207612cbf565b6020908102919091018101516001600160a01b031682528101919091526040016000205460ff16151560011461227f5760405162461bcd60e51b815260206004820152601d60248201527f42466163746f72793a2057726f6e6720506f6f6c2054656d706c6174650000006044820152606401610558565b600060405180604001604052808460048151811061229f5761229f612cbf565b6020908102919091018101516001600160a01b0390811683526000541691015283519091506122e890849060059081106122db576122db612cbf565b602002602001015161251c565b91506001600160a01b03821661234c5760405162461bcd60e51b8152602060048201526024808201527f42466163746f72793a20696e76616c69642062706f6f6c207a65726f206164646044820152637265737360e01b6064820152608401610558565b6000829050806001600160a01b031663c070a6d88560008151811061237357612373612cbf565b602002602001015130886000808d896040518863ffffffff1660e01b81526004016123a49796959493929190612a74565b602060405180830381600087803b1580156123be57600080fd5b505af11580156123d2573d6000803e3d6000fd5b505050506040513d601f19601f820116820180604052508101906123f691906128f8565b6124395760405162461bcd60e51b815260206004820152601460248201527311549497d253925512505312569157d09413d3d360621b6044820152606401610558565b8360008151811061244c5761244c612cbf565b60200260200101516001600160a01b03166353f0c3b48860006002811061247557612475612cbf565b60200201518960016020020151868860038151811061249657612496612cbf565b60200260200101518b6040518663ffffffff1660e01b81526004016124bf959493929190612a2d565b602060405180830381600087803b1580156124d957600080fd5b505af11580156124ed573d6000803e3d6000fd5b505050506040513d601f19601f8201168201806040525081019061251191906128f8565b505050949350505050565b6000808260601b9050604051733d602d80600a3d3981f3363d3d373d3d3d363d7360601b81528160148201526e5af43d82803e903d91602b57fd5bf360881b60288201526037816000f06040516001600160a01b03821681529093507f117c72e6c25f0a072e36e148df71468ce2f3dbe7defec5b2c257a6e3eb65278c915060200160405180910390a150919050565b60008083601f8401126125be57600080fd5b50813567ffffffffffffffff8111156125d657600080fd5b6020830191508360208260051b85010111156125f157600080fd5b9250929050565b805180151581146121e957600080fd5b60006020828403121561261a57600080fd5b813561262581612cd5565b9392505050565b6000806000806000806000806000806000806101808d8f03121561264f57600080fd5b8c5161265a81612cd5565b60208e0151909c5061266b81612cd5565b60408e015160608f0151919c509a5061268381612cd5565b60808e015160a08f0151919a50985096506126a060c08e016125f8565b955060e08d015194506101008d015193506101208d015192506101408d015191506126ce6101608e016125f8565b90509295989b509295989b509295989b565b60008060008060008060c087890312156126f957600080fd5b863561270481612cd5565b9550602087013561271481612cd5565b94506040870135935060608701359250608087013561273281612cd5565b915060a087013561274281612cd5565b809150509295509295509295565b60008060008060006060868803121561276857600080fd5b853561277381612cd5565b9450602086013567ffffffffffffffff8082111561279057600080fd5b61279c89838a016125ac565b909650945060408801359150808211156127b557600080fd5b506127c2888289016125ac565b969995985093965092949392505050565b600080600080600080600060a0888a0312156127ee57600080fd5b60408801898111156127ff57600080fd5b8897503567ffffffffffffffff8082111561281957600080fd5b6128258b838c016125ac565b909850965060608a013591508082111561283e57600080fd5b61284a8b838c016125ac565b909650945060808a013591508082111561286357600080fd5b506128708a828b016125ac565b989b979a50959850939692959293505050565b6000806020838503121561289657600080fd5b823567ffffffffffffffff808211156128ae57600080fd5b818501915085601f8301126128c257600080fd5b8135818111156128d157600080fd5b8660208260081b85010111156128e657600080fd5b60209290920196919550909350505050565b60006020828403121561290a57600080fd5b612625826125f8565b60006020828403121561292557600080fd5b5051919050565b60006020828403121561293e57600080fd5b81356004811061262557600080fd5b60006020828403121561295f57600080fd5b5035919050565b6000806040838503121561297957600080fd5b505080516020909101519092909150565b600080600080608085870312156129a057600080fd5b505082516020840151604085015160609095015191969095509092509050565b8060005b60028110156129ec5781516001600160a01b03168452602093840193909101906001016129c4565b50505050565b600081518084526020808501945080840160005b83811015612a2257815187529582019590820190600101612a06565b509495945050505050565b6001600160a01b038681168252858116602083015284811660408301528316606082015260a060808201819052600090612a69908301846129f2565b979650505050505050565b6001600160a01b0388811682528716602082015261012060408201819052600090612aa1838201896129f2565b91505085151560608301528415156080830152612ac160a08301856129c0565b612ace60e08301846129c0565b98975050505050505050565b6001600160a01b039384168152919092166020820152604081019190915260600190565b6001600160a01b03868116825260606020808401829052908301869052600091879160808501845b89811015612b4d578435612b3981612cd5565b841682529382019390820190600101612b26565b5085810360408701528681526001600160fb1b03871115612b6d57600080fd5b8660051b9350838883830137600093010191825250979650505050505050565b6020808252602b908201527f464143544f525920524f555445523a204e4f54204f524947494e414c2045524360408201526a32302054454d504c41544560a81b606082015260800190565b60208082526016908201527527b1b2b0b72937baba32b91d102727aa1027aba722a960511b604082015260600190565b60008219821115612c1b57612c1b612c93565b500190565b600082612c3d57634e487b7160e01b600052601260045260246000fd5b500490565b6000816000190483118215151615612c5c57612c5c612c93565b500290565b600082821015612c7357612c73612c93565b500390565b6000600019821415612c8c57612c8c612c93565b5060010190565b634e487b7160e01b600052601160045260246000fd5b634e487b7160e01b600052602160045260246000fd5b634e487b7160e01b600052603260045260246000fd5b6001600160a01b038116811461099357600080fdfea26469706673582212204d41c6fc74808f0a7f786e7855af9d615a1395f4689507a57f09224a01727c1764736f6c63430008070033",
  "linkReferences": {},
  "deployedLinkReferences": {}
}