{
  "_format": "hh-sol-artifact-1",
  "contractName": "FactoryRouter",
  "sourceName": "contracts/pools/FactoryRouter.sol",
  "abi": [
    {
      "inputs": [
        {
          "internalType": "address",
          "name": "_routerOwner",
          "type": "address"
        },
        {
          "internalType": "address",
          "name": "_oceanToken",
          "type": "address"
        },
        {
          "internalType": "address",
          "name": "_bpoolTemplate",
          "type": "address"
        },
        {
          "internalType": "address",
          "name": "_opcCollector",
          "type": "address"
        },
        {
          "internalType": "address[]",
          "name": "_preCreatedPools",
          "type": "address[]"
        }
      ],
      "stateMutability": "nonpayable",
      "type": "constructor"
    },
    {
      "anonymous": false,
      "inputs": [
        {
          "indexed": true,
          "internalType": "address",
          "name": "newBPoolAddress",
          "type": "address"
        },
        {
          "indexed": true,
          "internalType": "address",
          "name": "registeredBy",
          "type": "address"
        },
        {
          "indexed": true,
          "internalType": "address",
          "name": "datatokenAddress",
          "type": "address"
        },
        {
          "indexed": false,
          "internalType": "address",
          "name": "baseTokenAddress",
          "type": "address"
        },
        {
          "indexed": false,
          "internalType": "address",
          "name": "bpoolTemplateAddress",
          "type": "address"
        },
        {
          "indexed": false,
          "internalType": "address",
          "name": "ssAddress",
          "type": "address"
        }
      ],
      "name": "BPoolCreated",
      "type": "event"
    },
    {
      "anonymous": false,
      "inputs": [
        {
          "indexed": true,
          "internalType": "address",
          "name": "caller",
          "type": "address"
        },
        {
          "indexed": true,
          "internalType": "address",
          "name": "contractAddress",
          "type": "address"
        }
      ],
      "name": "DispenserContractAdded",
      "type": "event"
    },
    {
      "anonymous": false,
      "inputs": [
        {
          "indexed": true,
          "internalType": "address",
          "name": "caller",
          "type": "address"
        },
        {
          "indexed": true,
          "internalType": "address",
          "name": "contractAddress",
          "type": "address"
        }
      ],
      "name": "DispenserContractRemoved",
      "type": "event"
    },
    {
      "anonymous": false,
      "inputs": [
        {
          "indexed": true,
          "internalType": "address",
          "name": "caller",
          "type": "address"
        },
        {
          "indexed": true,
          "internalType": "address",
          "name": "contractAddress",
          "type": "address"
        }
      ],
      "name": "FactoryContractChanged",
      "type": "event"
    },
    {
      "anonymous": false,
      "inputs": [
        {
          "indexed": true,
          "internalType": "address",
          "name": "caller",
          "type": "address"
        },
        {
          "indexed": true,
          "internalType": "address",
          "name": "contractAddress",
          "type": "address"
        }
      ],
      "name": "FixedRateContractAdded",
      "type": "event"
    },
    {
      "anonymous": false,
      "inputs": [
        {
          "indexed": true,
          "internalType": "address",
          "name": "caller",
          "type": "address"
        },
        {
          "indexed": true,
          "internalType": "address",
          "name": "contractAddress",
          "type": "address"
        }
      ],
      "name": "FixedRateContractRemoved",
      "type": "event"
    },
    {
      "anonymous": false,
      "inputs": [
        {
          "indexed": false,
          "internalType": "address",
          "name": "instance",
          "type": "address"
        }
      ],
      "name": "InstanceDeployed",
      "type": "event"
    },
    {
      "anonymous": false,
      "inputs": [
        {
          "indexed": true,
          "internalType": "address",
          "name": "poolAddress",
          "type": "address"
        },
        {
          "indexed": false,
          "internalType": "bool",
          "name": "isOcean",
          "type": "bool"
        }
      ],
      "name": "NewPool",
      "type": "event"
    },
    {
      "anonymous": false,
      "inputs": [
        {
          "indexed": true,
          "internalType": "address",
          "name": "caller",
          "type": "address"
        },
        {
          "indexed": false,
          "internalType": "uint256",
          "name": "newSwapOceanFee",
          "type": "uint256"
        },
        {
          "indexed": false,
          "internalType": "uint256",
          "name": "newSwapNonOceanFee",
          "type": "uint256"
        },
        {
          "indexed": false,
          "internalType": "uint256",
          "name": "newConsumeFee",
          "type": "uint256"
        },
        {
          "indexed": false,
          "internalType": "uint256",
          "name": "newProviderFee",
          "type": "uint256"
        }
      ],
      "name": "OPCFeeChanged",
      "type": "event"
    },
    {
      "anonymous": false,
      "inputs": [
        {
          "indexed": true,
          "internalType": "address",
          "name": "caller",
          "type": "address"
        },
        {
          "indexed": true,
          "internalType": "address",
          "name": "contractAddress",
          "type": "address"
        }
      ],
      "name": "PoolTemplateAdded",
      "type": "event"
    },
    {
      "anonymous": false,
      "inputs": [
        {
          "indexed": true,
          "internalType": "address",
          "name": "caller",
          "type": "address"
        },
        {
          "indexed": true,
          "internalType": "address",
          "name": "contractAddress",
          "type": "address"
        }
      ],
      "name": "PoolTemplateRemoved",
      "type": "event"
    },
    {
      "anonymous": false,
      "inputs": [
        {
          "indexed": true,
          "internalType": "address",
          "name": "caller",
          "type": "address"
        },
        {
          "indexed": true,
          "internalType": "address",
          "name": "newRouter",
          "type": "address"
        }
      ],
      "name": "RouterChanged",
      "type": "event"
    },
    {
      "anonymous": false,
      "inputs": [
        {
          "indexed": true,
          "internalType": "address",
          "name": "caller",
          "type": "address"
        },
        {
          "indexed": true,
          "internalType": "address",
          "name": "contractAddress",
          "type": "address"
        }
      ],
      "name": "SSContractAdded",
      "type": "event"
    },
    {
      "anonymous": false,
      "inputs": [
        {
          "indexed": true,
          "internalType": "address",
          "name": "caller",
          "type": "address"
        },
        {
          "indexed": true,
          "internalType": "address",
          "name": "contractAddress",
          "type": "address"
        }
      ],
      "name": "SSContractRemoved",
      "type": "event"
    },
    {
      "anonymous": false,
      "inputs": [
        {
          "indexed": true,
          "internalType": "address",
          "name": "caller",
          "type": "address"
        },
        {
          "indexed": true,
          "internalType": "address",
          "name": "token",
          "type": "address"
        }
      ],
      "name": "TokenAdded",
      "type": "event"
    },
    {
      "anonymous": false,
      "inputs": [
        {
          "indexed": true,
          "internalType": "address",
          "name": "caller",
          "type": "address"
        },
        {
          "indexed": true,
          "internalType": "address",
          "name": "token",
          "type": "address"
        }
      ],
      "name": "TokenRemoved",
      "type": "event"
    },
    {
      "anonymous": false,
      "inputs": [
        {
          "indexed": true,
          "internalType": "address",
          "name": "caller",
          "type": "address"
        },
        {
          "indexed": false,
          "internalType": "uint256",
          "name": "minVestingPeriodInBlocks",
          "type": "uint256"
        }
      ],
      "name": "VestingPeriodChanges",
      "type": "event"
    },
    {
      "inputs": [],
      "name": "BONE",
      "outputs": [
        {
          "internalType": "uint256",
          "name": "",
          "type": "uint256"
        }
      ],
      "stateMutability": "view",
      "type": "function"
    },
    {
      "inputs": [],
      "name": "BPOW_PRECISION",
      "outputs": [
        {
          "internalType": "uint256",
          "name": "",
          "type": "uint256"
        }
      ],
      "stateMutability": "view",
      "type": "function"
    },
    {
      "inputs": [],
      "name": "EXIT_FEE",
      "outputs": [
        {
          "internalType": "uint256",
          "name": "",
          "type": "uint256"
        }
      ],
      "stateMutability": "view",
      "type": "function"
    },
    {
      "inputs": [],
      "name": "INIT_POOL_SUPPLY",
      "outputs": [
        {
          "internalType": "uint256",
          "name": "",
          "type": "uint256"
        }
      ],
      "stateMutability": "view",
      "type": "function"
    },
    {
      "inputs": [],
      "name": "MAX_BOUND_TOKENS",
      "outputs": [
        {
          "internalType": "uint256",
          "name": "",
          "type": "uint256"
        }
      ],
      "stateMutability": "view",
      "type": "function"
    },
    {
      "inputs": [],
      "name": "MAX_BPOW_BASE",
      "outputs": [
        {
          "internalType": "uint256",
          "name": "",
          "type": "uint256"
        }
      ],
      "stateMutability": "view",
      "type": "function"
    },
    {
      "inputs": [],
      "name": "MAX_FEE",
      "outputs": [
        {
          "internalType": "uint256",
          "name": "",
          "type": "uint256"
        }
      ],
      "stateMutability": "view",
      "type": "function"
    },
    {
      "inputs": [],
      "name": "MAX_IN_RATIO",
      "outputs": [
        {
          "internalType": "uint256",
          "name": "",
          "type": "uint256"
        }
      ],
      "stateMutability": "view",
      "type": "function"
    },
    {
      "inputs": [],
      "name": "MAX_OUT_RATIO",
      "outputs": [
        {
          "internalType": "uint256",
          "name": "",
          "type": "uint256"
        }
      ],
      "stateMutability": "view",
      "type": "function"
    },
    {
      "inputs": [],
      "name": "MAX_TOTAL_WEIGHT",
      "outputs": [
        {
          "internalType": "uint256",
          "name": "",
          "type": "uint256"
        }
      ],
      "stateMutability": "view",
      "type": "function"
    },
    {
      "inputs": [],
      "name": "MAX_WEIGHT",
      "outputs": [
        {
          "internalType": "uint256",
          "name": "",
          "type": "uint256"
        }
      ],
      "stateMutability": "view",
      "type": "function"
    },
    {
      "inputs": [],
      "name": "MIN_BALANCE",
      "outputs": [
        {
          "internalType": "uint256",
          "name": "",
          "type": "uint256"
        }
      ],
      "stateMutability": "view",
      "type": "function"
    },
    {
      "inputs": [],
      "name": "MIN_BOUND_TOKENS",
      "outputs": [
        {
          "internalType": "uint256",
          "name": "",
          "type": "uint256"
        }
      ],
      "stateMutability": "view",
      "type": "function"
    },
    {
      "inputs": [],
      "name": "MIN_BPOW_BASE",
      "outputs": [
        {
          "internalType": "uint256",
          "name": "",
          "type": "uint256"
        }
      ],
      "stateMutability": "view",
      "type": "function"
    },
    {
      "inputs": [],
      "name": "MIN_FEE",
      "outputs": [
        {
          "internalType": "uint256",
          "name": "",
          "type": "uint256"
        }
      ],
      "stateMutability": "view",
      "type": "function"
    },
    {
      "inputs": [],
      "name": "MIN_WEIGHT",
      "outputs": [
        {
          "internalType": "uint256",
          "name": "",
          "type": "uint256"
        }
      ],
      "stateMutability": "view",
      "type": "function"
    },
    {
      "inputs": [
        {
          "internalType": "address",
          "name": "_dispenser",
          "type": "address"
        }
      ],
      "name": "addDispenserContract",
      "outputs": [],
      "stateMutability": "nonpayable",
      "type": "function"
    },
    {
      "inputs": [
        {
          "internalType": "address",
          "name": "_factory",
          "type": "address"
        }
      ],
      "name": "addFactory",
      "outputs": [],
      "stateMutability": "nonpayable",
      "type": "function"
    },
    {
      "inputs": [
        {
          "internalType": "address",
          "name": "_fixedRate",
          "type": "address"
        }
      ],
      "name": "addFixedRateContract",
      "outputs": [],
      "stateMutability": "nonpayable",
      "type": "function"
    },
    {
      "inputs": [
        {
          "internalType": "address",
          "name": "oceanTokenAddress",
          "type": "address"
        }
      ],
      "name": "addOceanToken",
      "outputs": [],
      "stateMutability": "nonpayable",
      "type": "function"
    },
    {
      "inputs": [
        {
          "internalType": "address",
          "name": "poolTemplate",
          "type": "address"
        }
      ],
      "name": "addPoolTemplate",
      "outputs": [],
      "stateMutability": "nonpayable",
      "type": "function"
    },
    {
      "inputs": [
        {
          "internalType": "address",
          "name": "_ssContract",
          "type": "address"
        }
      ],
      "name": "addSSContract",
      "outputs": [],
      "stateMutability": "nonpayable",
      "type": "function"
    },
    {
      "inputs": [
        {
          "components": [
            {
              "internalType": "bytes32",
              "name": "exchangeIds",
              "type": "bytes32"
            },
            {
              "internalType": "address",
              "name": "source",
              "type": "address"
            },
            {
              "internalType": "enum FactoryRouter.operationType",
              "name": "operation",
              "type": "uint8"
            },
            {
              "internalType": "address",
              "name": "tokenIn",
              "type": "address"
            },
            {
              "internalType": "uint256",
              "name": "amountsIn",
              "type": "uint256"
            },
            {
              "internalType": "address",
              "name": "tokenOut",
              "type": "address"
            },
            {
              "internalType": "uint256",
              "name": "amountsOut",
              "type": "uint256"
            },
            {
              "internalType": "uint256",
              "name": "maxPrice",
              "type": "uint256"
            },
            {
              "internalType": "uint256",
              "name": "swapMarketFee",
              "type": "uint256"
            },
            {
              "internalType": "address",
              "name": "marketFeeAddress",
              "type": "address"
            }
          ],
          "internalType": "struct FactoryRouter.Operations[]",
          "name": "_operations",
          "type": "tuple[]"
        }
      ],
      "name": "buyDTBatch",
      "outputs": [],
      "stateMutability": "nonpayable",
      "type": "function"
    },
    {
      "inputs": [
        {
          "internalType": "address",
          "name": "_routerOwner",
          "type": "address"
        }
      ],
      "name": "changeRouterOwner",
      "outputs": [],
      "stateMutability": "nonpayable",
      "type": "function"
    },
    {
      "inputs": [],
      "name": "consumeFee",
      "outputs": [
        {
          "internalType": "uint256",
          "name": "",
          "type": "uint256"
        }
      ],
      "stateMutability": "view",
      "type": "function"
    },
    {
      "inputs": [
        {
          "internalType": "address",
          "name": "_dispenser",
          "type": "address"
        },
        {
          "internalType": "address",
          "name": "datatoken",
          "type": "address"
        },
        {
          "internalType": "uint256",
          "name": "maxTokens",
          "type": "uint256"
        },
        {
          "internalType": "uint256",
          "name": "maxBalance",
          "type": "uint256"
        },
        {
          "internalType": "address",
          "name": "owner",
          "type": "address"
        },
        {
          "internalType": "address",
          "name": "allowedSwapper",
          "type": "address"
        }
      ],
      "name": "deployDispenser",
      "outputs": [],
      "stateMutability": "nonpayable",
      "type": "function"
    },
    {
      "inputs": [
        {
          "internalType": "address",
          "name": "fixedPriceAddress",
          "type": "address"
        },
        {
          "internalType": "address[]",
          "name": "addresses",
          "type": "address[]"
        },
        {
          "internalType": "uint256[]",
          "name": "uints",
          "type": "uint256[]"
        }
      ],
      "name": "deployFixedRate",
      "outputs": [
        {
          "internalType": "bytes32",
          "name": "exchangeId",
          "type": "bytes32"
        }
      ],
      "stateMutability": "nonpayable",
      "type": "function"
    },
    {
      "inputs": [
        {
          "internalType": "address[2]",
          "name": "tokens",
          "type": "address[2]"
        },
        {
          "internalType": "uint256[]",
          "name": "ssParams",
          "type": "uint256[]"
        },
        {
          "internalType": "uint256[]",
          "name": "swapFees",
          "type": "uint256[]"
        },
        {
          "internalType": "address[]",
          "name": "addresses",
          "type": "address[]"
        }
      ],
      "name": "deployPool",
      "outputs": [
        {
          "internalType": "address",
          "name": "",
          "type": "address"
        }
      ],
      "stateMutability": "nonpayable",
      "type": "function"
    },
    {
      "inputs": [
        {
          "internalType": "uint256",
          "name": "",
          "type": "uint256"
        }
      ],
      "name": "dispensers",
      "outputs": [
        {
          "internalType": "address",
          "name": "",
          "type": "address"
        }
      ],
      "stateMutability": "view",
      "type": "function"
    },
    {
      "inputs": [],
      "name": "factory",
      "outputs": [
        {
          "internalType": "address",
          "name": "",
          "type": "address"
        }
      ],
      "stateMutability": "view",
      "type": "function"
    },
    {
      "inputs": [],
      "name": "fixedRate",
      "outputs": [
        {
          "internalType": "address",
          "name": "",
          "type": "address"
        }
      ],
      "stateMutability": "view",
      "type": "function"
    },
    {
      "inputs": [
        {
          "internalType": "uint256",
          "name": "",
          "type": "uint256"
        }
      ],
      "name": "fixedrates",
      "outputs": [
        {
          "internalType": "address",
          "name": "",
          "type": "address"
        }
      ],
      "stateMutability": "view",
      "type": "function"
    },
    {
      "inputs": [],
      "name": "getDispensersContracts",
      "outputs": [
        {
          "internalType": "address[]",
          "name": "",
          "type": "address[]"
        }
      ],
      "stateMutability": "view",
      "type": "function"
    },
    {
      "inputs": [],
      "name": "getFixedRatesContracts",
      "outputs": [
        {
          "internalType": "address[]",
          "name": "",
          "type": "address[]"
        }
      ],
      "stateMutability": "view",
      "type": "function"
    },
    {
      "inputs": [],
      "name": "getMinVestingPeriod",
      "outputs": [
        {
          "internalType": "uint256",
          "name": "",
          "type": "uint256"
        }
      ],
      "stateMutability": "view",
      "type": "function"
    },
    {
      "inputs": [],
      "name": "getOPCConsumeFee",
      "outputs": [
        {
          "internalType": "uint256",
          "name": "",
          "type": "uint256"
        }
      ],
      "stateMutability": "view",
      "type": "function"
    },
    {
      "inputs": [
        {
          "internalType": "address",
          "name": "baseToken",
          "type": "address"
        }
      ],
      "name": "getOPCFee",
      "outputs": [
        {
          "internalType": "uint256",
          "name": "",
          "type": "uint256"
        }
      ],
      "stateMutability": "view",
      "type": "function"
    },
    {
      "inputs": [],
      "name": "getOPCFees",
      "outputs": [
        {
          "internalType": "uint256",
          "name": "",
          "type": "uint256"
        },
        {
          "internalType": "uint256",
          "name": "",
          "type": "uint256"
        }
      ],
      "stateMutability": "view",
      "type": "function"
    },
    {
      "inputs": [],
      "name": "getOPCProviderFee",
      "outputs": [
        {
          "internalType": "uint256",
          "name": "",
          "type": "uint256"
        }
      ],
      "stateMutability": "view",
      "type": "function"
    },
    {
      "inputs": [],
      "name": "getOceanTokens",
      "outputs": [
        {
          "internalType": "address[]",
          "name": "",
          "type": "address[]"
        }
      ],
      "stateMutability": "view",
      "type": "function"
    },
    {
      "inputs": [],
      "name": "getPoolTemplates",
      "outputs": [
        {
          "internalType": "address[]",
          "name": "",
          "type": "address[]"
        }
      ],
      "stateMutability": "view",
      "type": "function"
    },
    {
      "inputs": [],
      "name": "getSSContracts",
      "outputs": [
        {
          "internalType": "address[]",
          "name": "",
          "type": "address[]"
        }
      ],
      "stateMutability": "view",
      "type": "function"
    },
    {
      "inputs": [
        {
          "internalType": "address",
          "name": "_dispenser",
          "type": "address"
        }
      ],
      "name": "isDispenserContract",
      "outputs": [
        {
          "internalType": "bool",
          "name": "",
          "type": "bool"
        }
      ],
      "stateMutability": "view",
      "type": "function"
    },
    {
      "inputs": [
        {
          "internalType": "address",
          "name": "_fixedRate",
          "type": "address"
        }
      ],
      "name": "isFixedRateContract",
      "outputs": [
        {
          "internalType": "bool",
          "name": "",
          "type": "bool"
        }
      ],
      "stateMutability": "view",
      "type": "function"
    },
    {
      "inputs": [
        {
          "internalType": "address",
          "name": "oceanTokenAddress",
          "type": "address"
        }
      ],
      "name": "isOceanToken",
      "outputs": [
        {
          "internalType": "bool",
          "name": "",
          "type": "bool"
        }
      ],
      "stateMutability": "view",
      "type": "function"
    },
    {
      "inputs": [
        {
          "internalType": "address",
          "name": "poolTemplate",
          "type": "address"
        }
      ],
      "name": "isPoolTemplate",
      "outputs": [
        {
          "internalType": "bool",
          "name": "",
          "type": "bool"
        }
      ],
      "stateMutability": "view",
      "type": "function"
    },
    {
      "inputs": [
        {
          "internalType": "address",
          "name": "_ssContract",
          "type": "address"
        }
      ],
      "name": "isSSContract",
      "outputs": [
        {
          "internalType": "bool",
          "name": "",
          "type": "bool"
        }
      ],
      "stateMutability": "view",
      "type": "function"
    },
    {
      "inputs": [],
      "name": "minVestingPeriodInBlocks",
      "outputs": [
        {
          "internalType": "uint256",
          "name": "",
          "type": "uint256"
        }
      ],
      "stateMutability": "view",
      "type": "function"
    },
    {
      "inputs": [
        {
          "internalType": "uint256",
          "name": "",
          "type": "uint256"
        }
      ],
      "name": "oceanTokens",
      "outputs": [
        {
          "internalType": "address",
          "name": "",
          "type": "address"
        }
      ],
      "stateMutability": "view",
      "type": "function"
    },
    {
      "inputs": [],
      "name": "opcCollector",
      "outputs": [
        {
          "internalType": "address",
          "name": "",
          "type": "address"
        }
      ],
      "stateMutability": "view",
      "type": "function"
    },
    {
      "inputs": [
        {
          "internalType": "uint256",
          "name": "",
          "type": "uint256"
        }
      ],
      "name": "poolTemplates",
      "outputs": [
        {
          "internalType": "address",
          "name": "",
          "type": "address"
        }
      ],
      "stateMutability": "view",
      "type": "function"
    },
    {
      "inputs": [],
      "name": "providerFee",
      "outputs": [
        {
          "internalType": "uint256",
          "name": "",
          "type": "uint256"
        }
      ],
      "stateMutability": "view",
      "type": "function"
    },
    {
      "inputs": [
        {
          "internalType": "address",
          "name": "_dispenser",
          "type": "address"
        }
      ],
      "name": "removeDispenserContract",
      "outputs": [],
      "stateMutability": "nonpayable",
      "type": "function"
    },
    {
      "inputs": [
        {
          "internalType": "address",
          "name": "_fixedRate",
          "type": "address"
        }
      ],
      "name": "removeFixedRateContract",
      "outputs": [],
      "stateMutability": "nonpayable",
      "type": "function"
    },
    {
      "inputs": [
        {
          "internalType": "address",
          "name": "oceanTokenAddress",
          "type": "address"
        }
      ],
      "name": "removeOceanToken",
      "outputs": [],
      "stateMutability": "nonpayable",
      "type": "function"
    },
    {
      "inputs": [
        {
          "internalType": "address",
          "name": "poolTemplate",
          "type": "address"
        }
      ],
      "name": "removePoolTemplate",
      "outputs": [],
      "stateMutability": "nonpayable",
      "type": "function"
    },
    {
      "inputs": [
        {
          "internalType": "address",
          "name": "_ssContract",
          "type": "address"
        }
      ],
      "name": "removeSSContract",
      "outputs": [],
      "stateMutability": "nonpayable",
      "type": "function"
    },
    {
      "inputs": [],
      "name": "routerOwner",
      "outputs": [
        {
          "internalType": "address",
          "name": "",
          "type": "address"
        }
      ],
      "stateMutability": "view",
      "type": "function"
    },
    {
      "inputs": [
        {
          "internalType": "uint256",
          "name": "",
          "type": "uint256"
        }
      ],
      "name": "ssContracts",
      "outputs": [
        {
          "internalType": "address",
          "name": "",
          "type": "address"
        }
      ],
      "stateMutability": "view",
      "type": "function"
    },
    {
      "inputs": [
        {
          "components": [
            {
              "internalType": "address",
              "name": "poolAddress",
              "type": "address"
            },
            {
              "internalType": "uint256",
              "name": "tokenAmountIn",
              "type": "uint256"
            },
            {
              "internalType": "uint256",
              "name": "minPoolAmountOut",
              "type": "uint256"
            }
          ],
          "internalType": "struct FactoryRouter.Stakes[]",
          "name": "_stakes",
          "type": "tuple[]"
        }
      ],
      "name": "stakeBatch",
      "outputs": [],
      "stateMutability": "nonpayable",
      "type": "function"
    },
    {
      "inputs": [],
      "name": "swapNonOceanFee",
      "outputs": [
        {
          "internalType": "uint256",
          "name": "",
          "type": "uint256"
        }
      ],
      "stateMutability": "view",
      "type": "function"
    },
    {
      "inputs": [],
      "name": "swapOceanFee",
      "outputs": [
        {
          "internalType": "uint256",
          "name": "",
          "type": "uint256"
        }
      ],
      "stateMutability": "view",
      "type": "function"
    },
    {
      "inputs": [
        {
          "internalType": "uint256",
          "name": "_newPeriod",
          "type": "uint256"
        }
      ],
      "name": "updateMinVestingPeriod",
      "outputs": [],
      "stateMutability": "nonpayable",
      "type": "function"
    },
    {
      "inputs": [
        {
          "internalType": "uint256",
          "name": "_newSwapOceanFee",
          "type": "uint256"
        },
        {
          "internalType": "uint256",
          "name": "_newSwapNonOceanFee",
          "type": "uint256"
        },
        {
          "internalType": "uint256",
          "name": "_newConsumeFee",
          "type": "uint256"
        },
        {
          "internalType": "uint256",
          "name": "_newProviderFee",
          "type": "uint256"
        }
      ],
      "name": "updateOPCFee",
      "outputs": [],
      "stateMutability": "nonpayable",
      "type": "function"
    }
  ],
  "bytecode": "0x608060405262250490600555600060065566038d7ea4c68000600755662386f26fc1000060085560006009553480156200003857600080fd5b5060405162004e2338038062004e238339810160408190526200005b9162000609565b8282826001600160a01b038316620000d05760405162461bcd60e51b815260206004820152602d60248201527f42466163746f72793a20696e76616c69642062706f6f6c2074656d706c61746560448201526c207a65726f206164647265737360981b60648201526084015b60405180910390fd5b6001600160a01b038216620001285760405162461bcd60e51b815260206004820152601660248201527f42466163746f72793a207a65726f2061646472657373000000000000000000006044820152606401620000c7565b600080546001600160a01b0319166001600160a01b0384161790556200014e8362000379565b805115620001fd5760005b8151811015620001fb5760006001600160a01b0316336001600160a01b03168383815181106200018d576200018d62000729565b602090810291909101810151604080516000808252938101849052908101929092526001600160a01b0316907fbb6121447d29a04cc37bfd93cdf6a9dd08229f2d941116c1528f04698c4e790e9060600160405180910390a480620001f2816200073f565b91505062000159565b505b5050506001600160a01b038516620002645760405162461bcd60e51b815260206004820152602360248201527f466163746f7279526f757465723a20496e76616c696420726f75746572206f776044820152623732b960e91b6064820152608401620000c7565b6001600160a01b038216620002c85760405162461bcd60e51b815260206004820152602360248201527f466163746f7279526f757465723a20496e76616c6964206f7063436f6c6c65636044820152623a37b960e91b6064820152608401620000c7565b6001600160a01b038416620003335760405162461bcd60e51b815260206004820152602a60248201527f466163746f7279526f757465723a20496e76616c6964204f6365616e20546f6b604482015269656e206164647265737360b01b6064820152608401620000c7565b600280546001600160a01b038088166001600160a01b03199283161790925560008054928516929091169190911790556200036e8462000470565b505050505062000769565b6001600160a01b038116620003e55760405162461bcd60e51b815260206004820152602b60248201527f466163746f7279526f757465723a20496e76616c696420706f6f6c54656d706c60448201526a617465206164647265737360a81b6064820152608401620000c7565b620003f081620004fb565b6200046d5760018054808201825560009182527fb10e2d527612073b26eecdfd717e6a320cf44b4afac2b0732d9fcbe2b7fa0cf60180546001600160a01b0319166001600160a01b038416908117909155604051909133917fc3674c32cbec94fe266aab7ef71f65b9bf77e1ed501d4f2bece8752f5352e9ac9190a35b50565b6200047b816200056d565b6200046d57600a805460018101825560009182527fc65a7bb8d6351c1cf70c95a316cc6a92839c986682d98bc35f958f4883f9d2a80180546001600160a01b0319166001600160a01b038416908117909155604051909133917fdffbd9ded1c09446f09377de547142dcce7dc541c8b0b028142b1eba7026b9e79190a350565b6000805b6001548110156200056457826001600160a01b0316600182815481106200052a576200052a62000729565b6000918252602090912001546001600160a01b031614156200054f5750600192915050565b806200055b816200073f565b915050620004ff565b50600092915050565b6000805b600a548110156200056457826001600160a01b0316600a82815481106200059c576200059c62000729565b6000918252602090912001546001600160a01b03161415620005c15750600192915050565b80620005cd816200073f565b91505062000571565b80516001600160a01b0381168114620005ee57600080fd5b919050565b634e487b7160e01b600052604160045260246000fd5b600080600080600060a086880312156200062257600080fd5b6200062d86620005d6565b945060206200063e818801620005d6565b94506200064e60408801620005d6565b93506200065e60608801620005d6565b60808801519093506001600160401b03808211156200067c57600080fd5b818901915089601f8301126200069157600080fd5b815181811115620006a657620006a6620005f3565b8060051b604051601f19603f83011681018181108582111715620006ce57620006ce620005f3565b60405291825284820192508381018501918c831115620006ed57600080fd5b938501935b8285101562000716576200070685620005d6565b84529385019392850192620006f2565b8096505050505050509295509295909350565b634e487b7160e01b600052603260045260246000fd5b60006000198214156200076257634e487b7160e01b600052601160045260246000fd5b5060010190565b6146aa80620007796000396000f3fe608060405234801561001057600080fd5b50600436106103d05760003560e01c8063992e2a92116101ff578063c6580d121161011a578063e2bdeefa116100ad578063ecdda5881161007c578063ecdda58814610750578063ee3bc63514610763578063fca24bc614610776578063fdaa59bf1461078957600080fd5b8063e2bdeefa1461072c578063e4a28a521461041a578063e525f99c14610735578063ec0930211461074857600080fd5b8063dce2d0df116100e9578063dce2d0df146106e2578063de9a95a7146106fd578063e183fb3f14610710578063e193faad1461071957600080fd5b8063c6580d12146106b5578063c6e983d9146106bd578063cb870cbf146106c6578063d629a00a146106cf57600080fd5b8063b8421e2b11610192578063bfa04b8511610161578063bfa04b851461067c578063c07c00fe1461068f578063c36596a6146104a9578063c45a0155146106a257600080fd5b8063b8421e2b14610651578063ba019dab14610664578063bc063e1a1461066c578063bc694ea21461067457600080fd5b8063b0e0d136116101ce578063b0e0d13614610623578063b19aaac61461062b578063b66806fb1461063e578063b7b800a41461062357600080fd5b8063992e2a92146105ed5780639bc01b3c146105f55780639cdfa6ad146105fd5780639f2c010a1461061057600080fd5b806350cbbe76116102ef5780637cbf85bf116102825780638552730a116102515780638552730a146105b7578063858ab596146105ca578063867378c5146105dd5780639381cd2b146105e557600080fd5b80637cbf85bf146105765780637d28354d14610589578063802d14221461059157806382449375146105a457600080fd5b80636cdf90a1116102be5780636cdf90a114610540578063737e5ca0146105535780637521aff91461055b57806376c7a3c71461056e57600080fd5b806350cbbe761461050a578063510f34651461051d5780636c45e881146105255780636c9fb6121461052d57600080fd5b8063189d00ca11610367578063335b7fa211610336578063335b7fa2146104d357806346104ea8146104e6578063475030c0146104ee57806347e14094146104f757600080fd5b8063189d00ca146104a1578063218b5382146104a9578063241c7a6d146104b857806329ce1ec5146104c057600080fd5b806315c25dd5116103a357806315c25dd51461045357806315d4c9eb14610466578063165926141461047b57806316d9cb3d1461048e57600080fd5b80630318ad66146103d557806303814238146103ea57806309a3bbe41461041a5780631184e8d914610430575b600080fd5b6103e86103e3366004613bf9565b61079c565b005b6000546103fd906001600160a01b031681565b6040516001600160a01b0390911681526020015b60405180910390f35b6104226107db565b604051908152602001610411565b61044361043e366004613bf9565b6107f1565b6040519015158152602001610411565b610443610461366004613bf9565b61085b565b61046e6108bc565b6040516104119190613c16565b6103e8610489366004613bf9565b61091e565b6103e861049c366004613bf9565b610ae0565b610422610bb8565b610422670de0b6b3a764000081565b61046e610bcf565b6103e86104ce366004613bf9565b610c2f565b6103fd6104e1366004613c63565b610d5a565b61046e610d84565b61042260055481565b6103e8610505366004613bf9565b610de4565b6103fd610518366004613c63565b610fa5565b600554610422565b600954610422565b6103e861053b366004613bf9565b610fb5565b61044361054e366004613bf9565b61108d565b61046e6110ee565b6103e8610569366004613c63565b61114e565b6104226111b5565b6103fd610584366004613c63565b6111ca565b600854610422565b6004546103fd906001600160a01b031681565b6104226105b2366004613cc8565b6111da565b6002546103fd906001600160a01b031681565b6103e86105d8366004613d4b565b61134c565b610422611796565b6104226117ad565b6104226117c0565b61046e6117de565b6103e861060b366004613bf9565b61183e565b6103e861061e366004613bf9565b611a42565b610422600281565b6103e8610639366004613bf9565b611c03565b6103fd61064c366004613c63565b611c36565b61042261065f366004613bf9565b611c46565b610422600181565b610422611c6b565b610422611c7e565b6103e861068a366004613dc0565b611c9d565b61044361069d366004613bf9565b611d2b565b6003546103fd906001600160a01b031681565b610422600081565b61042260095481565b61042260075481565b6103e86106dd366004613df2565b611d8c565b60065460075460408051928352602083019190915201610411565b6103e861070b366004613bf9565b611efc565b61042260065481565b6103e8610727366004613bf9565b611fd4565b61042260085481565b6103e8610743366004613bf9565b612007565b6104226120d3565b6103e861075e366004613e62565b6120e6565b6103fd610771366004613ec6565b612bb1565b610443610784366004613bf9565b612f53565b6103fd610797366004613c63565b612fb4565b6002546001600160a01b031633146107cf5760405162461bcd60e51b81526004016107c690613f76565b60405180910390fd5b6107d881612fc4565b50565b6107ee670de0b6b3a76400006032613fbc565b81565b6000805b600a5481101561085257826001600160a01b0316600a828154811061081c5761081c613fdb565b6000918252602090912001546001600160a01b031614156108405750600192915050565b8061084a81613ff1565b9150506107f5565b50600092915050565b6000805b600b5481101561085257826001600160a01b0316600b828154811061088657610886613fdb565b6000918252602090912001546001600160a01b031614156108aa5750600192915050565b806108b481613ff1565b91505061085f565b6060600d80548060200260200160405190810160405280929190818152602001828054801561091457602002820191906000526020600020905b81546001600160a01b031681526001909101906020018083116108f6575b5050505050905090565b6002546001600160a01b031633146109485760405162461bcd60e51b81526004016107c690613f76565b6001600160a01b03811661096e5760405162461bcd60e51b81526004016107c69061400c565b60005b600d548110156109ca57816001600160a01b0316600d828154811061099857610998613fdb565b6000918252602090912001546001600160a01b031614156109b8576109ca565b806109c281613ff1565b915050610971565b600d54811015610adc57805b600d546109e590600190614055565b811015610a7057600d6109f982600161406c565b81548110610a0957610a09613fdb565b600091825260209091200154600d80546001600160a01b039092169183908110610a3557610a35613fdb565b600091825260209091200180546001600160a01b0319166001600160a01b039290921691909117905580610a6881613ff1565b9150506109d6565b50600d805480610a8257610a82614084565b600082815260208120820160001990810180546001600160a01b03191690559091019091556040516001600160a01b0384169133917f63fe522dcdc5f006279afe8840a87398bb3d0dbb906b848866195859621908b39190a35b5050565b6002546001600160a01b03163314610b0a5760405162461bcd60e51b81526004016107c690613f76565b6001600160a01b038116610b305760405162461bcd60e51b81526004016107c69061409a565b610b398161108d565b6107d857600c805460018101825560009182527fdf6966c971051c3d54ec59162606531493a51404a002842f56009d7e5cf4a8c70180546001600160a01b0319166001600160a01b038416908117909155604051909133917f45ccb9b9d6b112eb7a38daf6a23bda8b4c8449d5cf64a034975a5beb8cdd37b39190a350565b6107ee6402540be400670de0b6b3a76400006140e3565b60606001805480602002602001604051908101604052809291908181526020018280548015610914576020028201919060005260206000209081546001600160a01b031681526001909101906020018083116108f6575050505050905090565b6002546001600160a01b03163314610c595760405162461bcd60e51b81526004016107c690613f76565b6001600160a01b038116610cbf5760405162461bcd60e51b815260206004820152602760248201527f466163746f7279526f757465723a20496e76616c6964205f666163746f7279206044820152666164647265737360c81b60648201526084016107c6565b6003546001600160a01b031615610d0e5760405162461bcd60e51b8152602060048201526013602482015272119050d513d49648105314915051164814d155606a1b60448201526064016107c6565b600380546001600160a01b0319166001600160a01b03831690811790915560405133907f1f869f1ddaa0e2e3652252b3394c05c805f54a0d5f7fb6975f785ae4f91e587190600090a350565b600d8181548110610d6a57600080fd5b6000918252602090912001546001600160a01b0316905081565b6060600c805480602002602001604051908101604052809291908181526020018280548015610914576020028201919060005260206000209081546001600160a01b031681526001909101906020018083116108f6575050505050905090565b6002546001600160a01b03163314610e0e5760405162461bcd60e51b81526004016107c690613f76565b6001600160a01b038116610e345760405162461bcd60e51b81526004016107c690614105565b60005b600b54811015610e9057816001600160a01b0316600b8281548110610e5e57610e5e613fdb565b6000918252602090912001546001600160a01b03161415610e7e57610e90565b80610e8881613ff1565b915050610e37565b600b54811015610adc57805b600b54610eab90600190614055565b811015610f3657600b610ebf82600161406c565b81548110610ecf57610ecf613fdb565b600091825260209091200154600b80546001600160a01b039092169183908110610efb57610efb613fdb565b600091825260209091200180546001600160a01b0319166001600160a01b039290921691909117905580610f2e81613ff1565b915050610e9c565b50600b805480610f4857610f48614084565b600082815260208120820160001990810180546001600160a01b03191690559091019091556040516001600160a01b0384169133917f7df5d17d768be6563796784637c80bc9204e2af0bc4ba8630f5aa2fed96ea4879190a35050565b60018181548110610d6a57600080fd5b6002546001600160a01b03163314610fdf5760405162461bcd60e51b81526004016107c690613f76565b6001600160a01b0381166110055760405162461bcd60e51b81526004016107c690614105565b61100e8161085b565b6107d857600b805460018101825560009182527f0175b7a638427703f0dbe7bb9bbf987a2551717b34e79f33b5b1008d1fa01db90180546001600160a01b0319166001600160a01b038416908117909155604051909133917fcef3ce01f85c030161b431114e41e463297b68f169c1013c526b1cbc5747e5449190a350565b6000805b600c5481101561085257826001600160a01b0316600c82815481106110b8576110b8613fdb565b6000918252602090912001546001600160a01b031614156110dc5750600192915050565b806110e681613ff1565b915050611091565b6060600b805480602002602001604051908101604052809291908181526020018280548015610914576020028201919060005260206000209081546001600160a01b031681526001909101906020018083116108f6575050505050905090565b6002546001600160a01b031633146111785760405162461bcd60e51b81526004016107c690613f76565b600581905560405181815233907f5ee73342e684c0b848562c301fa2dc6b0146b266cfa12d4219fb04b316f7a4759060200160405180910390a250565b6107ee620f4240670de0b6b3a76400006140e3565b600b8181548110610d6a57600080fd5b60035460405163226e761560e01b81523360048201526000916001600160a01b03169063226e761590602401602060405180830381865afa158015611223573d6000803e3d6000fd5b505050506040513d601f19601f82011682018060405250810190611247919061415f565b6112635760405162461bcd60e51b81526004016107c69061417a565b61126c8661108d565b6112cb5760405162461bcd60e51b815260206004820152602a60248201527f464143544f525920524f555445523a20496e76616c696420466978656450726960448201526918d950dbdb9d1c9858dd60b21b60648201526084016107c6565b60405163012c327560e01b81526001600160a01b0387169063012c3275906112ff90339089908990899089906004016141c5565b6020604051808303816000875af115801561131e573d6000803e3d6000fd5b505050506040513d601f19601f820116820180604052508101906113429190614254565b9695505050505050565b603281111561136d5760405162461bcd60e51b81526004016107c69061426d565b60005b8181101561179157600083838381811061138c5761138c613fdb565b6113a29260206060909202019081019150613bf9565b6001600160a01b0316634df947d06040518163ffffffff1660e01b8152600401602060405180830381865afa1580156113df573d6000803e3d6000fd5b505050506040513d601f19601f8201168201806040525081019061140391906142af565b905061142f60405180604001604052806008815260200167537461727420257360c01b8152508361304c565b61145681333087878781811061144757611447613fdb565b90506060020160200135613091565b6114846040518060400160405280600c81526020016b676f742066756e647320257360a01b8152508361304c565b600084848481811061149857611498613fdb565b6114ae9260206060909202019081019150613bf9565b6040516370a0823160e01b81523060048201526001600160a01b0391909116906370a0823190602401602060405180830381865afa1580156114f4573d6000803e3d6000fd5b505050506040513d601f19601f820116820180604052508101906115189190614254565b905061157a85858581811061152f5761152f613fdb565b6115459260206060909202019081019150613bf9565b86868681811061155757611557613fdb565b90506060020160200135846001600160a01b03166131de9092919063ffffffff16565b84848481811061158c5761158c613fdb565b6115a29260206060909202019081019150613bf9565b6001600160a01b0316638329ab338686868181106115c2576115c2613fdb565b905060600201602001358787878181106115de576115de613fdb565b905060600201604001356040518363ffffffff1660e01b815260040161160e929190918252602082015260400190565b6020604051808303816000875af115801561162d573d6000803e3d6000fd5b505050506040513d601f19601f820116820180604052508101906116519190614254565b50600085858581811061166657611666613fdb565b61167c9260206060909202019081019150613bf9565b6040516370a0823160e01b81523060048201526001600160a01b0391909116906370a0823190602401602060405180830381865afa1580156116c2573d6000803e3d6000fd5b505050506040513d601f19601f820116820180604052508101906116e69190614254565b905061170c60405180606001604052806029815260200161464c602991398583856132c9565b6117523361171a8385613312565b88888881811061172c5761172c613fdb565b6117429260206060909202019081019150613bf9565b6001600160a01b03169190613325565b61177b60405180604001604052806007815260200166446f6e6520257360c81b8152508561304c565b505050808061178990613ff1565b915050611370565b505050565b6107ee64e8d4a51000670de0b6b3a76400006140e3565b6107ee670de0b6b3a76400006064613fbc565b6117d36003670de0b6b3a76400006140e3565b6107ee90600161406c565b6060600a805480602002602001604051908101604052809291908181526020018280548015610914576020028201919060005260206000209081546001600160a01b031681526001909101906020018083116108f6575050505050905090565b6002546001600160a01b031633146118685760405162461bcd60e51b81526004016107c690613f76565b6001600160a01b0381166118d15760405162461bcd60e51b815260206004820152602a60248201527f466163746f7279526f757465723a20496e76616c6964204f6365616e20546f6b604482015269656e206164647265737360b01b60648201526084016107c6565b60005b600a5481101561192d57816001600160a01b0316600a82815481106118fb576118fb613fdb565b6000918252602090912001546001600160a01b0316141561191b5761192d565b8061192581613ff1565b9150506118d4565b600a54811015610adc57805b600a5461194890600190614055565b8110156119d357600a61195c82600161406c565b8154811061196c5761196c613fdb565b600091825260209091200154600a80546001600160a01b03909216918390811061199857611998613fdb565b600091825260209091200180546001600160a01b0319166001600160a01b0392909216919091179055806119cb81613ff1565b915050611939565b50600a8054806119e5576119e5614084565b600082815260208120820160001990810180546001600160a01b03191690559091019091556040516001600160a01b0384169133917fbbe55b1ff108e23e5ff1a6f5d36946eec15ec0ca0ded2bfed4cdcf697ca904609190a35050565b6002546001600160a01b03163314611a6c5760405162461bcd60e51b81526004016107c690613f76565b6001600160a01b038116611a925760405162461bcd60e51b81526004016107c69061409a565b60005b600c54811015611aee57816001600160a01b0316600c8281548110611abc57611abc613fdb565b6000918252602090912001546001600160a01b03161415611adc57611aee565b80611ae681613ff1565b915050611a95565b600c54811015610adc57805b600c54611b0990600190614055565b811015611b9457600c611b1d82600161406c565b81548110611b2d57611b2d613fdb565b600091825260209091200154600c80546001600160a01b039092169183908110611b5957611b59613fdb565b600091825260209091200180546001600160a01b0319166001600160a01b039290921691909117905580611b8c81613ff1565b915050611afa565b50600c805480611ba657611ba6614084565b600082815260208120820160001990810180546001600160a01b03191690559091019091556040516001600160a01b0384169133917ff1ec0697329a2e8de8cf055335547acc40fbace8712fc77aeea1ea2afbcf7e3b9190a35050565b6002546001600160a01b03163314611c2d5760405162461bcd60e51b81526004016107c690613f76565b6107d881613355565b600c8181548110610d6a57600080fd5b6000611c51826107f1565b15611c5e57505060065490565b505060075490565b919050565b6107ee600a670de0b6b3a76400006140e3565b6001611c93670de0b6b3a76400006002613fbc565b6107ee9190614055565b6002546001600160a01b03163314611cc75760405162461bcd60e51b81526004016107c690613f76565b600684905560078390556008829055600981905560408051858152602081018590529081018390526060810182905233907fe6171cf0506862c0a0185f8c21dca979859d4eb63186eff63f1b3dd14926be7b9060800160405180910390a250505050565b6000805b60015481101561085257826001600160a01b031660018281548110611d5657611d56613fdb565b6000918252602090912001546001600160a01b03161415611d7a5750600192915050565b80611d8481613ff1565b915050611d2f565b60035460405163226e761560e01b81523360048201526001600160a01b039091169063226e761590602401602060405180830381865afa158015611dd4573d6000803e3d6000fd5b505050506040513d601f19601f82011682018060405250810190611df8919061415f565b611e145760405162461bcd60e51b81526004016107c69061417a565b611e1d86612f53565b611e7b5760405162461bcd60e51b815260206004820152602960248201527f464143544f525920524f555445523a20496e76616c69642044697370656e73656044820152681c90dbdb9d1c9858dd60ba1b60648201526084016107c6565b6040516324ce291760e01b81526001600160a01b0386811660048301526024820186905260448201859052838116606483015282811660848301528716906324ce29179060a401600060405180830381600087803b158015611edc57600080fd5b505af1158015611ef0573d6000803e3d6000fd5b50505050505050505050565b6002546001600160a01b03163314611f265760405162461bcd60e51b81526004016107c690613f76565b6001600160a01b038116611f4c5760405162461bcd60e51b81526004016107c69061400c565b611f5581612f53565b6107d857600d805460018101825560009182527fd7b6990105719101dabeb77144f2a3385c8033acd3af97e9423a695e81ad1eb50180546001600160a01b0319166001600160a01b038416908117909155604051909133917f78be9d87a7b2c8707b044dbf5b04c3f747b692c55ec34dcd1d7357736478789c9190a350565b6002546001600160a01b03163314611ffe5760405162461bcd60e51b81526004016107c690613f76565b6107d881613446565b6002546001600160a01b031633146120315760405162461bcd60e51b81526004016107c690613f76565b6001600160a01b0381166120875760405162461bcd60e51b815260206004820152601860248201527f496e76616c6964206e657720726f75746572206f776e6572000000000000000060448201526064016107c6565b600280546001600160a01b0319166001600160a01b03831690811790915560405133907fc736654a613824c69968e0ec25ac1a428ccd49e15c28e97b5dfd2c6059757e2a90600090a350565b6107ee6002670de0b6b3a76400006140e3565b60328111156121075760405162461bcd60e51b81526004016107c69061426d565b60005b81811015611791576000604051806060016040528085858581811061213157612131613fdb565b90506101400201606001602081019061214a9190613bf9565b6001600160a01b0316815260200185858581811061216a5761216a613fdb565b9050610140020160a00160208101906121839190613bf9565b6001600160a01b031681526020018585858181106121a3576121a3613fdb565b905061014002016101200160208101906121bd9190613bf9565b6001600160a01b03166001600160a01b03168152509050600060405180608001604052808686868181106121f3576121f3613fdb565b9050610140020160800135815260200186868681811061221557612215613fdb565b9050610140020160c00135815260200186868681811061223757612237613fdb565b9050610140020160e00135815260200186868681811061225957612259613fdb565b90506101400201610100013581525090506000600381111561227d5761227d6142cc565b85858581811061228f5761228f613fdb565b9050610140020160400160208101906122a891906142e2565b60038111156122b9576122b96142cc565b141561246c576123118585858181106122d4576122d4613fdb565b9050610140020160600160208101906122ed9190613bf9565b333088888881811061230157612301613fdb565b9050610140020160800135613091565b61239785858581811061232657612326613fdb565b90506101400201602001602081019061233f9190613bf9565b86868681811061235157612351613fdb565b905061014002016080013587878781811061236e5761236e613fdb565b9050610140020160600160208101906123879190613bf9565b6001600160a01b031691906131de565b60008585858181106123ab576123ab613fdb565b9050610140020160200160208101906123c49190613bf9565b6001600160a01b031663c421a3fc84846040518363ffffffff1660e01b81526004016123f1929190614303565b60408051808303816000875af115801561240f573d6000803e3d6000fd5b505050506040513d601f19601f820116820180604052508101906124339190614368565b509050612466338288888881811061244d5761244d613fdb565b9050610140020160a00160208101906117429190613bf9565b50612b9c565b600185858581811061248057612480613fdb565b90506101400201604001602081019061249991906142e2565b60038111156124aa576124aa6142cc565b14156127435760008585858181106124c4576124c4613fdb565b9050610140020160200160208101906124dd9190613bf9565b6001600160a01b031663caa011488787878181106124fd576124fd613fdb565b9050610140020160600160208101906125169190613bf9565b88888881811061252857612528613fdb565b9050610140020160a00160208101906125419190613bf9565b89898981811061255357612553613fdb565b9050610140020160c001358a8a8a81811061257057612570613fdb565b6040516001600160e01b031960e089901b1681526001600160a01b0396871660048201529590941660248601525060448401919091526101006101409092020101356064820152608401602060405180830381865afa1580156125d7573d6000803e3d6000fd5b505050506040513d601f19601f820116820180604052508101906125fb9190614254565b905061263386868681811061261257612612613fdb565b90506101400201606001602081019061262b9190613bf9565b333084613091565b61267486868681811061264857612648613fdb565b9050610140020160200160208101906126619190613bf9565b8288888881811061236e5761236e613fdb565b85858581811061268657612686613fdb565b90506101400201602001602081019061269f9190613bf9565b6001600160a01b031663c98a59cf84846040518363ffffffff1660e01b81526004016126cc929190614303565b60408051808303816000875af11580156126ea573d6000803e3d6000fd5b505050506040513d601f19601f8201168201806040525081019061270e9190614368565b50506124663387878781811061272657612726613fdb565b9050610140020160c0013588888881811061244d5761244d613fdb565b600285858581811061275757612757613fdb565b90506101400201604001602081019061277091906142e2565b6003811115612781576127816142cc565b1415612ab357600085858581811061279b5761279b613fdb565b9050610140020160200160208101906127b49190613bf9565b6001600160a01b0316634c87087d8787878181106127d4576127d4613fdb565b90506101400201600001356040518263ffffffff1660e01b81526004016127fd91815260200190565b61018060405180830381865afa15801561281b573d6000803e3d6000fd5b505050506040513d601f19601f8201168201806040525081019061283f919061438c565b50505050505050505050915050600086868681811061286057612860613fdb565b9050610140020160200160208101906128799190613bf9565b6001600160a01b031663c99733a788888881811061289957612899613fdb565b90506101400201600001358989898181106128b6576128b6613fdb565b9050610140020160c001356040518363ffffffff1660e01b81526004016128e7929190918252602082015260400190565b608060405180830381865afa158015612904573d6000803e3d6000fd5b505050506040513d601f19601f820116820180604052508101906129289190614440565b505050905061294287878781811061261257612612613fdb565b61298387878781811061295757612957613fdb565b9050610140020160200160208101906129709190613bf9565b8289898981811061236e5761236e613fdb565b86868681811061299557612995613fdb565b9050610140020160200160208101906129ae9190613bf9565b6001600160a01b031663825b5cd68888888181106129ce576129ce613fdb565b90506101400201600001358989898181106129eb576129eb613fdb565b9050610140020160c001358a8a8a818110612a0857612a08613fdb565b6040516001600160e01b031960e088901b168152600481019590955260248501939093525060806101409092020101356044820152606401600060405180830381600087803b158015612a5a57600080fd5b505af1158015612a6e573d6000803e3d6000fd5b50505050612aac33888888818110612a8857612a88613fdb565b9050610140020160c00135846001600160a01b03166133259092919063ffffffff16565b5050612b9c565b848484818110612ac557612ac5613fdb565b905061014002016020016020810190612ade9190613bf9565b6001600160a01b0316631d746d83868686818110612afe57612afe613fdb565b9050610140020160a0016020810190612b179190613bf9565b878787818110612b2957612b29613fdb565b60405160e086901b6001600160e01b03191681526001600160a01b03949094166004850152610140029190910160c00135602483015250336044820152606401600060405180830381600087803b158015612b8357600080fd5b505af1158015612b97573d6000803e3d6000fd5b505050505b50508080612ba990613ff1565b91505061210a565b60035460405163226e761560e01b81523360048201526000916001600160a01b03169063226e761590602401602060405180830381865afa158015612bfa573d6000803e3d6000fd5b505050506040513d601f19601f82011682018060405250810190612c1e919061415f565b612c3a5760405162461bcd60e51b81526004016107c69061417a565b612c6583836000818110612c5057612c50613fdb565b90506020020160208101906104619190613bf9565b612cbc5760405162461bcd60e51b815260206004820152602260248201527f464143544f525920524f555445523a20696e76616c6964207373436f6e74726160448201526118dd60f21b60648201526084016107c6565b600087876001818110612cd157612cd1613fdb565b9050602002013511612d165760405162461bcd60e51b815260206004820152600e60248201526d57726f6e6720646563696d616c7360901b60448201526064016107c6565b612d98612d2960408a0160208b01613bf9565b84846002818110612d3c57612d3c613fdb565b9050602002016020810190612d519190613bf9565b85856000818110612d6457612d64613fdb565b9050602002016020810190612d799190613bf9565b8a8a6004818110612d8c57612d8c613fdb565b90506020020135613091565b604080518082018252600091612e5b91908b90600290839083908082843760009201919091525050604080516020808d0282810182019093528c82529092508c918c9182919085019084908082843760009201919091525050604080516020808d0282810182019093528c82529093508c92508b91829185019084908082843760009201919091525050604080516020808c0282810182019093528b82529093508b92508a9182918501908490808284376000920191909152506135b592505050565b90506001600160a01b038116612eab5760405162461bcd60e51b8152602060048201526015602482015274119052531151081513c81111541313d6481413d3d3605a1b60448201526064016107c6565b612ebe61043e60408b0160208c01613bf9565b15612f0757604051600181526001600160a01b038216907f90279d7790471e260411db76079630dfaa838fc987d29ae7aa7dc1bcd773ef2e9060200160405180910390a2612f47565b604051600081526001600160a01b038216907f90279d7790471e260411db76079630dfaa838fc987d29ae7aa7dc1bcd773ef2e9060200160405180910390a25b98975050505050505050565b6000805b600d5481101561085257826001600160a01b0316600d8281548110612f7e57612f7e613fdb565b6000918252602090912001546001600160a01b03161415612fa25750600192915050565b80612fac81613ff1565b915050612f57565b600a8181548110610d6a57600080fd5b612fcd816107f1565b6107d857600a805460018101825560009182527fc65a7bb8d6351c1cf70c95a316cc6a92839c986682d98bc35f958f4883f9d2a80180546001600160a01b0319166001600160a01b038416908117909155604051909133917fdffbd9ded1c09446f09377de547142dcce7dc541c8b0b028142b1eba7026b9e79190a350565b610adc82826040516024016130629291906144ce565b60408051601f198184030181529190526020810180516001600160e01b03166309710a9d60e41b1790526138a5565b6040516370a0823160e01b81526001600160a01b038381166004830152600091908616906370a0823190602401602060405180830381865afa1580156130db573d6000803e3d6000fd5b505050506040513d601f19601f820116820180604052508101906130ff9190614254565b90506131166001600160a01b0386168585856138c6565b61312081836138fe565b6040516370a0823160e01b81526001600160a01b0385811660048301528716906370a0823190602401602060405180830381865afa158015613166573d6000803e3d6000fd5b505050506040513d601f19601f8201168201806040525081019061318a9190614254565b146131d75760405162461bcd60e51b815260206004820152601d60248201527f5472616e7366657220616d6f756e7420776173206e6f7420657861637400000060448201526064016107c6565b5050505050565b604051636eb1769f60e11b81523060048201526001600160a01b038381166024830152600091839186169063dd62ed3e90604401602060405180830381865afa15801561322f573d6000803e3d6000fd5b505050506040513d601f19601f820116820180604052508101906132539190614254565b61325d919061406c565b6040516001600160a01b0385166024820152604481018290529091506132c390859063095ea7b360e01b906064015b60408051601f198184030181529190526020810180516001600160e01b03166001600160e01b03199093169290921790915261390a565b50505050565b6132c3848484846040516024016132e394939291906144f0565b60408051601f198184030181529190526020810180516001600160e01b03166304772b3360e11b1790526138a5565b600061331e8284614055565b9392505050565b6040516001600160a01b03831660248201526044810182905261179190849063a9059cbb60e01b9060640161328c565b6001600160a01b0381166133bf5760405162461bcd60e51b815260206004820152602b60248201527f466163746f7279526f757465723a20496e76616c696420706f6f6c54656d706c60448201526a617465206164647265737360a81b60648201526084016107c6565b6133c881611d2b565b6107d85760018054808201825560009182527fb10e2d527612073b26eecdfd717e6a320cf44b4afac2b0732d9fcbe2b7fa0cf60180546001600160a01b0319166001600160a01b038416908117909155604051909133917fc3674c32cbec94fe266aab7ef71f65b9bf77e1ed501d4f2bece8752f5352e9ac9190a350565b60005b6001548110156134a257816001600160a01b03166001828154811061347057613470613fdb565b6000918252602090912001546001600160a01b03161415613490576134a2565b8061349a81613ff1565b915050613449565b600154811015610adc57805b600180546134bc9190614055565b8110156135465760016134cf828261406c565b815481106134df576134df613fdb565b600091825260209091200154600180546001600160a01b03909216918390811061350b5761350b613fdb565b600091825260209091200180546001600160a01b0319166001600160a01b03929092169190911790558061353e81613ff1565b9150506134ae565b50600180548061355857613558614084565b600082815260208120820160001990810180546001600160a01b03191690559091019091556040516001600160a01b0384169133917fc73fd5d40669565e257cbcd153784617ef26acfcc9fead31e68c0dce3ce82fb29190a35050565b60006135da826005815181106135cd576135cd613fdb565b6020026020010151611d2b565b6136265760405162461bcd60e51b815260206004820152601d60248201527f42466163746f72793a2057726f6e6720506f6f6c2054656d706c61746500000060448201526064016107c6565b600060405180604001604052808460048151811061364657613646613fdb565b6020908102919091018101516001600160a01b03908116835260005416910152835190915061368f908490600590811061368257613682613fdb565b60200260200101516139dc565b91506001600160a01b0382166136f35760405162461bcd60e51b8152602060048201526024808201527f42466163746f72793a20696e76616c69642062706f6f6c207a65726f206164646044820152637265737360e01b60648201526084016107c6565b6000829050806001600160a01b031663c070a6d88560008151811061371a5761371a613fdb565b602002602001015130886000808d896040518863ffffffff1660e01b815260040161374b9796959493929190614586565b6020604051808303816000875af115801561376a573d6000803e3d6000fd5b505050506040513d601f19601f8201168201806040525081019061378e919061415f565b6137d15760405162461bcd60e51b815260206004820152601460248201527311549497d253925512505312569157d09413d3d360621b60448201526064016107c6565b836000815181106137e4576137e4613fdb565b60200260200101516001600160a01b03166383b87e5a8860006002811061380d5761380d613fdb565b60200201518960016020020151868860038151811061382e5761382e613fdb565b60200260200101518b6040518663ffffffff1660e01b81526004016138579594939291906145e0565b6020604051808303816000875af1158015613876573d6000803e3d6000fd5b505050506040513d601f19601f8201168201806040525081019061389a919061415f565b505050949350505050565b80516a636f6e736f6c652e6c6f67602083016000808483855afa5050505050565b6040516001600160a01b03808516602483015283166044820152606481018290526132c39085906323b872dd60e01b9060840161328c565b600061331e828461406c565b600061395f826040518060400160405280602081526020017f5361666545524332303a206c6f772d6c6576656c2063616c6c206661696c6564815250856001600160a01b0316613a6c9092919063ffffffff16565b805190915015611791578080602001905181019061397d919061415f565b6117915760405162461bcd60e51b815260206004820152602a60248201527f5361666545524332303a204552433230206f7065726174696f6e20646964206e6044820152691bdd081cdd58d8d9595960b21b60648201526084016107c6565b6000808260601b9050604051733d602d80600a3d3981f3363d3d373d3d3d363d7360601b81528160148201526e5af43d82803e903d91602b57fd5bf360881b60288201526037816000f06040516001600160a01b03821681529093507f117c72e6c25f0a072e36e148df71468ce2f3dbe7defec5b2c257a6e3eb65278c915060200160405180910390a150919050565b6060613a7b8484600085613a83565b949350505050565b606082471015613ae45760405162461bcd60e51b815260206004820152602660248201527f416464726573733a20696e73756666696369656e742062616c616e636520666f6044820152651c8818d85b1b60d21b60648201526084016107c6565b843b613b325760405162461bcd60e51b815260206004820152601d60248201527f416464726573733a2063616c6c20746f206e6f6e2d636f6e747261637400000060448201526064016107c6565b600080866001600160a01b03168587604051613b4e919061461c565b60006040518083038185875af1925050503d8060008114613b8b576040519150601f19603f3d011682016040523d82523d6000602084013e613b90565b606091505b5091509150613ba0828286613bab565b979650505050505050565b60608315613bba57508161331e565b825115613bca5782518084602001fd5b8160405162461bcd60e51b81526004016107c69190614638565b6001600160a01b03811681146107d857600080fd5b600060208284031215613c0b57600080fd5b813561331e81613be4565b6020808252825182820181905260009190848201906040850190845b81811015613c575783516001600160a01b031683529284019291840191600101613c32565b50909695505050505050565b600060208284031215613c7557600080fd5b5035919050565b60008083601f840112613c8e57600080fd5b50813567ffffffffffffffff811115613ca657600080fd5b6020830191508360208260051b8501011115613cc157600080fd5b9250929050565b600080600080600060608688031215613ce057600080fd5b8535613ceb81613be4565b9450602086013567ffffffffffffffff80821115613d0857600080fd5b613d1489838a01613c7c565b90965094506040880135915080821115613d2d57600080fd5b50613d3a88828901613c7c565b969995985093965092949392505050565b60008060208385031215613d5e57600080fd5b823567ffffffffffffffff80821115613d7657600080fd5b818501915085601f830112613d8a57600080fd5b813581811115613d9957600080fd5b866020606083028501011115613dae57600080fd5b60209290920196919550909350505050565b60008060008060808587031215613dd657600080fd5b5050823594602084013594506040840135936060013592509050565b60008060008060008060c08789031215613e0b57600080fd5b8635613e1681613be4565b95506020870135613e2681613be4565b945060408701359350606087013592506080870135613e4481613be4565b915060a0870135613e5481613be4565b809150509295509295509295565b60008060208385031215613e7557600080fd5b823567ffffffffffffffff80821115613e8d57600080fd5b818501915085601f830112613ea157600080fd5b813581811115613eb057600080fd5b86602061014083028501011115613dae57600080fd5b600080600080600080600060a0888a031215613ee157600080fd5b6040880189811115613ef257600080fd5b8897503567ffffffffffffffff80821115613f0c57600080fd5b613f188b838c01613c7c565b909850965060608a0135915080821115613f3157600080fd5b613f3d8b838c01613c7c565b909650945060808a0135915080821115613f5657600080fd5b50613f638a828b01613c7c565b989b979a50959850939692959293505050565b60208082526016908201527527b1b2b0b72937baba32b91d102727aa1027aba722a960511b604082015260600190565b634e487b7160e01b600052601160045260246000fd5b6000816000190483118215151615613fd657613fd6613fa6565b500290565b634e487b7160e01b600052603260045260246000fd5b600060001982141561400557614005613fa6565b5060010190565b60208082526029908201527f466163746f7279526f757465723a20496e76616c6964205f64697370656e736560408201526872206164647265737360b81b606082015260800190565b60008282101561406757614067613fa6565b500390565b6000821982111561407f5761407f613fa6565b500190565b634e487b7160e01b600052603160045260246000fd5b60208082526029908201527f466163746f7279526f757465723a20496e76616c6964205f666978656452617460408201526865206164647265737360b81b606082015260800190565b60008261410057634e487b7160e01b600052601260045260246000fd5b500490565b6020808252602a908201527f466163746f7279526f757465723a20496e76616c6964205f7373436f6e7472616040820152696374206164647265737360b01b606082015260800190565b80518015158114611c6657600080fd5b60006020828403121561417157600080fd5b61331e8261414f565b6020808252602b908201527f464143544f525920524f555445523a204e4f54204f524947494e414c2045524360408201526a32302054454d504c41544560a81b606082015260800190565b6001600160a01b03868116825260606020808401829052908301869052600091879160808501845b8981101561421457843561420081613be4565b8416825293820193908201906001016141ed565b5085810360408701528681526001600160fb1b0387111561423457600080fd5b8660051b9350838883830137600093010191825250979650505050505050565b60006020828403121561426657600080fd5b5051919050565b60208082526022908201527f466163746f7279526f757465723a20546f6f204d616e79204f7065726174696f6040820152616e7360f01b606082015260800190565b6000602082840312156142c157600080fd5b815161331e81613be4565b634e487b7160e01b600052602160045260246000fd5b6000602082840312156142f457600080fd5b81356004811061331e57600080fd5b60e08101818460005b60038110156143345781516001600160a01b031683526020928301929091019060010161430c565b505050606082018360005b600481101561435e57815183526020928301929091019060010161433f565b5050509392505050565b6000806040838503121561437b57600080fd5b505080516020909101519092909150565b6000806000806000806000806000806000806101808d8f0312156143af57600080fd5b8c516143ba81613be4565b60208e0151909c506143cb81613be4565b60408e015160608f0151919c509a506143e381613be4565b60808e015160a08f0151919a509850965061440060c08e0161414f565b955060e08d015194506101008d015193506101208d015192506101408d0151915061442e6101608e0161414f565b90509295989b509295989b509295989b565b6000806000806080858703121561445657600080fd5b505082516020840151604085015160609095015191969095509092509050565b60005b83811015614491578181015183820152602001614479565b838111156132c35750506000910152565b600081518084526144ba816020860160208601614476565b601f01601f19169290920160200192915050565b6040815260006144e160408301856144a2565b90508260208301529392505050565b60808152600061450360808301876144a2565b6020830195909552506040810192909252606090910152919050565b600081518084526020808501945080840160005b8381101561454f57815187529582019590820190600101614533565b509495945050505050565b8060005b60028110156132c35781516001600160a01b031684526020938401939091019060010161455e565b6001600160a01b03888116825287166020820152610120604082018190526000906145b38382018961451f565b915050851515606083015284151560808301526145d360a083018561455a565b612f4760e083018461455a565b6001600160a01b038681168252858116602083015284811660408301528316606082015260a060808201819052600090613ba09083018461451f565b6000825161462e818460208701614476565b9190910192915050565b60208152600061331e60208301846144a256fe693a2025732c2062616c616e636541667465723a2025732c2062616c616e63654265666f7265202573a26469706673582212200105270417a97b4ccc530f63a9372a88ee46a56580c87b89a3e6037070c6465e64736f6c634300080a0033",
  "linkReferences": {},
  "deployedLinkReferences": {}
}