{
  "_format": "hh-sol-artifact-1",
  "contractName": "FactoryRouter",
  "sourceName": "contracts/pools/FactoryRouter.sol",
  "abi": [
    {
      "inputs": [
        {
          "internalType": "address",
          "name": "_routerOwner",
          "type": "address"
        },
        {
          "internalType": "address",
          "name": "_oceanToken",
          "type": "address"
        },
        {
          "internalType": "address",
          "name": "_bpoolTemplate",
          "type": "address"
        },
        {
          "internalType": "address",
          "name": "_opcCollector",
          "type": "address"
        },
        {
          "internalType": "address[]",
          "name": "_preCreatedPools",
          "type": "address[]"
        }
      ],
      "stateMutability": "nonpayable",
      "type": "constructor"
    },
    {
      "anonymous": false,
      "inputs": [
        {
          "indexed": true,
          "internalType": "address",
          "name": "newBPoolAddress",
          "type": "address"
        },
        {
          "indexed": true,
          "internalType": "address",
          "name": "registeredBy",
          "type": "address"
        },
        {
          "indexed": true,
          "internalType": "address",
          "name": "datatokenAddress",
          "type": "address"
        },
        {
          "indexed": false,
          "internalType": "address",
          "name": "baseTokenAddress",
          "type": "address"
        },
        {
          "indexed": false,
          "internalType": "address",
          "name": "bpoolTemplateAddress",
          "type": "address"
        },
        {
          "indexed": false,
          "internalType": "address",
          "name": "ssAddress",
          "type": "address"
        }
      ],
      "name": "BPoolCreated",
      "type": "event"
    },
    {
      "anonymous": false,
      "inputs": [
        {
          "indexed": true,
          "internalType": "address",
          "name": "caller",
          "type": "address"
        },
        {
          "indexed": true,
          "internalType": "address",
          "name": "contractAddress",
          "type": "address"
        }
      ],
      "name": "DispenserContractAdded",
      "type": "event"
    },
    {
      "anonymous": false,
      "inputs": [
        {
          "indexed": true,
          "internalType": "address",
          "name": "caller",
          "type": "address"
        },
        {
          "indexed": true,
          "internalType": "address",
          "name": "contractAddress",
          "type": "address"
        }
      ],
      "name": "DispenserContractRemoved",
      "type": "event"
    },
    {
      "anonymous": false,
      "inputs": [
        {
          "indexed": true,
          "internalType": "address",
          "name": "caller",
          "type": "address"
        },
        {
          "indexed": true,
          "internalType": "address",
          "name": "contractAddress",
          "type": "address"
        }
      ],
      "name": "FactoryContractChanged",
      "type": "event"
    },
    {
      "anonymous": false,
      "inputs": [
        {
          "indexed": true,
          "internalType": "address",
          "name": "caller",
          "type": "address"
        },
        {
          "indexed": true,
          "internalType": "address",
          "name": "contractAddress",
          "type": "address"
        }
      ],
      "name": "FixedRateContractAdded",
      "type": "event"
    },
    {
      "anonymous": false,
      "inputs": [
        {
          "indexed": true,
          "internalType": "address",
          "name": "caller",
          "type": "address"
        },
        {
          "indexed": true,
          "internalType": "address",
          "name": "contractAddress",
          "type": "address"
        }
      ],
      "name": "FixedRateContractRemoved",
      "type": "event"
    },
    {
      "anonymous": false,
      "inputs": [
        {
          "indexed": false,
          "internalType": "address",
          "name": "instance",
          "type": "address"
        }
      ],
      "name": "InstanceDeployed",
      "type": "event"
    },
    {
      "anonymous": false,
      "inputs": [
        {
          "indexed": true,
          "internalType": "address",
          "name": "poolAddress",
          "type": "address"
        },
        {
          "indexed": false,
          "internalType": "bool",
          "name": "isOcean",
          "type": "bool"
        }
      ],
      "name": "NewPool",
      "type": "event"
    },
    {
      "anonymous": false,
      "inputs": [
        {
          "indexed": true,
          "internalType": "address",
          "name": "caller",
          "type": "address"
        },
        {
          "indexed": true,
          "internalType": "address",
          "name": "_newOpcCollector",
          "type": "address"
        }
      ],
      "name": "OPCCollectorChanged",
      "type": "event"
    },
    {
      "anonymous": false,
      "inputs": [
        {
          "indexed": true,
          "internalType": "address",
          "name": "caller",
          "type": "address"
        },
        {
          "indexed": false,
          "internalType": "uint256",
          "name": "newSwapOceanFee",
          "type": "uint256"
        },
        {
          "indexed": false,
          "internalType": "uint256",
          "name": "newSwapNonOceanFee",
          "type": "uint256"
        },
        {
          "indexed": false,
          "internalType": "uint256",
          "name": "newConsumeFee",
          "type": "uint256"
        },
        {
          "indexed": false,
          "internalType": "uint256",
          "name": "newProviderFee",
          "type": "uint256"
        }
      ],
      "name": "OPCFeeChanged",
      "type": "event"
    },
    {
      "anonymous": false,
      "inputs": [
        {
          "indexed": true,
          "internalType": "address",
          "name": "caller",
          "type": "address"
        },
        {
          "indexed": true,
          "internalType": "address",
          "name": "contractAddress",
          "type": "address"
        }
      ],
      "name": "PoolTemplateAdded",
      "type": "event"
    },
    {
      "anonymous": false,
      "inputs": [
        {
          "indexed": true,
          "internalType": "address",
          "name": "caller",
          "type": "address"
        },
        {
          "indexed": true,
          "internalType": "address",
          "name": "contractAddress",
          "type": "address"
        }
      ],
      "name": "PoolTemplateRemoved",
      "type": "event"
    },
    {
      "anonymous": false,
      "inputs": [
        {
          "indexed": true,
          "internalType": "address",
          "name": "caller",
          "type": "address"
        },
        {
          "indexed": true,
          "internalType": "address",
          "name": "newRouter",
          "type": "address"
        }
      ],
      "name": "RouterChanged",
      "type": "event"
    },
    {
      "anonymous": false,
      "inputs": [
        {
          "indexed": true,
          "internalType": "address",
          "name": "caller",
          "type": "address"
        },
        {
          "indexed": true,
          "internalType": "address",
          "name": "contractAddress",
          "type": "address"
        }
      ],
      "name": "SSContractAdded",
      "type": "event"
    },
    {
      "anonymous": false,
      "inputs": [
        {
          "indexed": true,
          "internalType": "address",
          "name": "caller",
          "type": "address"
        },
        {
          "indexed": true,
          "internalType": "address",
          "name": "contractAddress",
          "type": "address"
        }
      ],
      "name": "SSContractRemoved",
      "type": "event"
    },
    {
      "anonymous": false,
      "inputs": [
        {
          "indexed": true,
          "internalType": "address",
          "name": "caller",
          "type": "address"
        },
        {
          "indexed": true,
          "internalType": "address",
          "name": "token",
          "type": "address"
        }
      ],
      "name": "TokenAdded",
      "type": "event"
    },
    {
      "anonymous": false,
      "inputs": [
        {
          "indexed": true,
          "internalType": "address",
          "name": "caller",
          "type": "address"
        },
        {
          "indexed": true,
          "internalType": "address",
          "name": "token",
          "type": "address"
        }
      ],
      "name": "TokenRemoved",
      "type": "event"
    },
    {
      "anonymous": false,
      "inputs": [
        {
          "indexed": true,
          "internalType": "address",
          "name": "caller",
          "type": "address"
        },
        {
          "indexed": false,
          "internalType": "uint256",
          "name": "minVestingPeriodInBlocks",
          "type": "uint256"
        }
      ],
      "name": "VestingPeriodChanges",
      "type": "event"
    },
    {
      "inputs": [],
      "name": "BONE",
      "outputs": [
        {
          "internalType": "uint256",
          "name": "",
          "type": "uint256"
        }
      ],
      "stateMutability": "view",
      "type": "function"
    },
    {
      "inputs": [],
      "name": "BPOW_PRECISION",
      "outputs": [
        {
          "internalType": "uint256",
          "name": "",
          "type": "uint256"
        }
      ],
      "stateMutability": "view",
      "type": "function"
    },
    {
      "inputs": [],
      "name": "EXIT_FEE",
      "outputs": [
        {
          "internalType": "uint256",
          "name": "",
          "type": "uint256"
        }
      ],
      "stateMutability": "view",
      "type": "function"
    },
    {
      "inputs": [],
      "name": "INIT_POOL_SUPPLY",
      "outputs": [
        {
          "internalType": "uint256",
          "name": "",
          "type": "uint256"
        }
      ],
      "stateMutability": "view",
      "type": "function"
    },
    {
      "inputs": [],
      "name": "MAX_BOUND_TOKENS",
      "outputs": [
        {
          "internalType": "uint256",
          "name": "",
          "type": "uint256"
        }
      ],
      "stateMutability": "view",
      "type": "function"
    },
    {
      "inputs": [],
      "name": "MAX_BPOW_BASE",
      "outputs": [
        {
          "internalType": "uint256",
          "name": "",
          "type": "uint256"
        }
      ],
      "stateMutability": "view",
      "type": "function"
    },
    {
      "inputs": [],
      "name": "MAX_FEE",
      "outputs": [
        {
          "internalType": "uint256",
          "name": "",
          "type": "uint256"
        }
      ],
      "stateMutability": "view",
      "type": "function"
    },
    {
      "inputs": [],
      "name": "MAX_IN_RATIO",
      "outputs": [
        {
          "internalType": "uint256",
          "name": "",
          "type": "uint256"
        }
      ],
      "stateMutability": "view",
      "type": "function"
    },
    {
      "inputs": [],
      "name": "MAX_OUT_RATIO",
      "outputs": [
        {
          "internalType": "uint256",
          "name": "",
          "type": "uint256"
        }
      ],
      "stateMutability": "view",
      "type": "function"
    },
    {
      "inputs": [],
      "name": "MAX_TOTAL_WEIGHT",
      "outputs": [
        {
          "internalType": "uint256",
          "name": "",
          "type": "uint256"
        }
      ],
      "stateMutability": "view",
      "type": "function"
    },
    {
      "inputs": [],
      "name": "MAX_WEIGHT",
      "outputs": [
        {
          "internalType": "uint256",
          "name": "",
          "type": "uint256"
        }
      ],
      "stateMutability": "view",
      "type": "function"
    },
    {
      "inputs": [],
      "name": "MIN_BALANCE",
      "outputs": [
        {
          "internalType": "uint256",
          "name": "",
          "type": "uint256"
        }
      ],
      "stateMutability": "view",
      "type": "function"
    },
    {
      "inputs": [],
      "name": "MIN_BOUND_TOKENS",
      "outputs": [
        {
          "internalType": "uint256",
          "name": "",
          "type": "uint256"
        }
      ],
      "stateMutability": "view",
      "type": "function"
    },
    {
      "inputs": [],
      "name": "MIN_BPOW_BASE",
      "outputs": [
        {
          "internalType": "uint256",
          "name": "",
          "type": "uint256"
        }
      ],
      "stateMutability": "view",
      "type": "function"
    },
    {
      "inputs": [],
      "name": "MIN_FEE",
      "outputs": [
        {
          "internalType": "uint256",
          "name": "",
          "type": "uint256"
        }
      ],
      "stateMutability": "view",
      "type": "function"
    },
    {
      "inputs": [],
      "name": "MIN_WEIGHT",
      "outputs": [
        {
          "internalType": "uint256",
          "name": "",
          "type": "uint256"
        }
      ],
      "stateMutability": "view",
      "type": "function"
    },
    {
      "inputs": [
        {
          "internalType": "address",
          "name": "tokenAddress",
          "type": "address"
        }
      ],
      "name": "addApprovedToken",
      "outputs": [],
      "stateMutability": "nonpayable",
      "type": "function"
    },
    {
      "inputs": [
        {
          "internalType": "address",
          "name": "_dispenser",
          "type": "address"
        }
      ],
      "name": "addDispenserContract",
      "outputs": [],
      "stateMutability": "nonpayable",
      "type": "function"
    },
    {
      "inputs": [
        {
          "internalType": "address",
          "name": "_factory",
          "type": "address"
        }
      ],
      "name": "addFactory",
      "outputs": [],
      "stateMutability": "nonpayable",
      "type": "function"
    },
    {
      "inputs": [
        {
          "internalType": "address",
          "name": "_fixedRate",
          "type": "address"
        }
      ],
      "name": "addFixedRateContract",
      "outputs": [],
      "stateMutability": "nonpayable",
      "type": "function"
    },
    {
      "inputs": [
        {
          "internalType": "address",
          "name": "poolTemplate",
          "type": "address"
        }
      ],
      "name": "addPoolTemplate",
      "outputs": [],
      "stateMutability": "nonpayable",
      "type": "function"
    },
    {
      "inputs": [
        {
          "internalType": "address",
          "name": "_ssContract",
          "type": "address"
        }
      ],
      "name": "addSSContract",
      "outputs": [],
      "stateMutability": "nonpayable",
      "type": "function"
    },
    {
      "inputs": [
        {
          "internalType": "uint256",
          "name": "",
          "type": "uint256"
        }
      ],
      "name": "approvedTokens",
      "outputs": [
        {
          "internalType": "address",
          "name": "",
          "type": "address"
        }
      ],
      "stateMutability": "view",
      "type": "function"
    },
    {
      "inputs": [
        {
          "components": [
            {
              "internalType": "bytes32",
              "name": "exchangeIds",
              "type": "bytes32"
            },
            {
              "internalType": "address",
              "name": "source",
              "type": "address"
            },
            {
              "internalType": "enum IFactoryRouter.operationType",
              "name": "operation",
              "type": "uint8"
            },
            {
              "internalType": "address",
              "name": "tokenIn",
              "type": "address"
            },
            {
              "internalType": "uint256",
              "name": "amountsIn",
              "type": "uint256"
            },
            {
              "internalType": "address",
              "name": "tokenOut",
              "type": "address"
            },
            {
              "internalType": "uint256",
              "name": "amountsOut",
              "type": "uint256"
            },
            {
              "internalType": "uint256",
              "name": "maxPrice",
              "type": "uint256"
            },
            {
              "internalType": "uint256",
              "name": "swapMarketFee",
              "type": "uint256"
            },
            {
              "internalType": "address",
              "name": "marketFeeAddress",
              "type": "address"
            }
          ],
          "internalType": "struct IFactoryRouter.Operations[]",
          "name": "_operations",
          "type": "tuple[]"
        }
      ],
      "name": "buyDTBatch",
      "outputs": [],
      "stateMutability": "nonpayable",
      "type": "function"
    },
    {
      "inputs": [
        {
          "internalType": "address",
          "name": "_routerOwner",
          "type": "address"
        }
      ],
      "name": "changeRouterOwner",
      "outputs": [],
      "stateMutability": "nonpayable",
      "type": "function"
    },
    {
      "inputs": [],
      "name": "consumeFee",
      "outputs": [
        {
          "internalType": "uint256",
          "name": "",
          "type": "uint256"
        }
      ],
      "stateMutability": "view",
      "type": "function"
    },
    {
      "inputs": [
        {
          "internalType": "address",
          "name": "_dispenser",
          "type": "address"
        },
        {
          "internalType": "address",
          "name": "datatoken",
          "type": "address"
        },
        {
          "internalType": "uint256",
          "name": "maxTokens",
          "type": "uint256"
        },
        {
          "internalType": "uint256",
          "name": "maxBalance",
          "type": "uint256"
        },
        {
          "internalType": "address",
          "name": "owner",
          "type": "address"
        },
        {
          "internalType": "address",
          "name": "allowedSwapper",
          "type": "address"
        }
      ],
      "name": "deployDispenser",
      "outputs": [],
      "stateMutability": "nonpayable",
      "type": "function"
    },
    {
      "inputs": [
        {
          "internalType": "address",
          "name": "fixedPriceAddress",
          "type": "address"
        },
        {
          "internalType": "address[]",
          "name": "addresses",
          "type": "address[]"
        },
        {
          "internalType": "uint256[]",
          "name": "uints",
          "type": "uint256[]"
        }
      ],
      "name": "deployFixedRate",
      "outputs": [
        {
          "internalType": "bytes32",
          "name": "exchangeId",
          "type": "bytes32"
        }
      ],
      "stateMutability": "nonpayable",
      "type": "function"
    },
    {
      "inputs": [
        {
          "internalType": "address[2]",
          "name": "tokens",
          "type": "address[2]"
        },
        {
          "internalType": "uint256[]",
          "name": "ssParams",
          "type": "uint256[]"
        },
        {
          "internalType": "uint256[]",
          "name": "swapFees",
          "type": "uint256[]"
        },
        {
          "internalType": "address[]",
          "name": "addresses",
          "type": "address[]"
        }
      ],
      "name": "deployPool",
      "outputs": [
        {
          "internalType": "address",
          "name": "",
          "type": "address"
        }
      ],
      "stateMutability": "nonpayable",
      "type": "function"
    },
    {
      "inputs": [
        {
          "internalType": "uint256",
          "name": "",
          "type": "uint256"
        }
      ],
      "name": "dispensers",
      "outputs": [
        {
          "internalType": "address",
          "name": "",
          "type": "address"
        }
      ],
      "stateMutability": "view",
      "type": "function"
    },
    {
      "inputs": [],
      "name": "factory",
      "outputs": [
        {
          "internalType": "address",
          "name": "",
          "type": "address"
        }
      ],
      "stateMutability": "view",
      "type": "function"
    },
    {
      "inputs": [],
      "name": "fixedRate",
      "outputs": [
        {
          "internalType": "address",
          "name": "",
          "type": "address"
        }
      ],
      "stateMutability": "view",
      "type": "function"
    },
    {
      "inputs": [
        {
          "internalType": "uint256",
          "name": "",
          "type": "uint256"
        }
      ],
      "name": "fixedrates",
      "outputs": [
        {
          "internalType": "address",
          "name": "",
          "type": "address"
        }
      ],
      "stateMutability": "view",
      "type": "function"
    },
    {
      "inputs": [],
      "name": "getApprovedTokens",
      "outputs": [
        {
          "internalType": "address[]",
          "name": "",
          "type": "address[]"
        }
      ],
      "stateMutability": "view",
      "type": "function"
    },
    {
      "inputs": [],
      "name": "getDispensersContracts",
      "outputs": [
        {
          "internalType": "address[]",
          "name": "",
          "type": "address[]"
        }
      ],
      "stateMutability": "view",
      "type": "function"
    },
    {
      "inputs": [],
      "name": "getFixedRatesContracts",
      "outputs": [
        {
          "internalType": "address[]",
          "name": "",
          "type": "address[]"
        }
      ],
      "stateMutability": "view",
      "type": "function"
    },
    {
      "inputs": [],
      "name": "getMinVestingPeriod",
      "outputs": [
        {
          "internalType": "uint256",
          "name": "",
          "type": "uint256"
        }
      ],
      "stateMutability": "view",
      "type": "function"
    },
    {
      "inputs": [],
      "name": "getOPCCollector",
      "outputs": [
        {
          "internalType": "address",
          "name": "",
          "type": "address"
        }
      ],
      "stateMutability": "view",
      "type": "function"
    },
    {
      "inputs": [],
      "name": "getOPCConsumeFee",
      "outputs": [
        {
          "internalType": "uint256",
          "name": "",
          "type": "uint256"
        }
      ],
      "stateMutability": "view",
      "type": "function"
    },
    {
      "inputs": [
        {
          "internalType": "address",
          "name": "baseToken",
          "type": "address"
        }
      ],
      "name": "getOPCFee",
      "outputs": [
        {
          "internalType": "uint256",
          "name": "",
          "type": "uint256"
        }
      ],
      "stateMutability": "view",
      "type": "function"
    },
    {
      "inputs": [],
      "name": "getOPCFees",
      "outputs": [
        {
          "internalType": "uint256",
          "name": "",
          "type": "uint256"
        },
        {
          "internalType": "uint256",
          "name": "",
          "type": "uint256"
        }
      ],
      "stateMutability": "view",
      "type": "function"
    },
    {
      "inputs": [],
      "name": "getOPCProviderFee",
      "outputs": [
        {
          "internalType": "uint256",
          "name": "",
          "type": "uint256"
        }
      ],
      "stateMutability": "view",
      "type": "function"
    },
    {
      "inputs": [],
      "name": "getPoolTemplates",
      "outputs": [
        {
          "internalType": "address[]",
          "name": "",
          "type": "address[]"
        }
      ],
      "stateMutability": "view",
      "type": "function"
    },
    {
      "inputs": [],
      "name": "getSSContracts",
      "outputs": [
        {
          "internalType": "address[]",
          "name": "",
          "type": "address[]"
        }
      ],
      "stateMutability": "view",
      "type": "function"
    },
    {
      "inputs": [
        {
          "internalType": "address",
          "name": "tokenAddress",
          "type": "address"
        }
      ],
      "name": "isApprovedToken",
      "outputs": [
        {
          "internalType": "bool",
          "name": "",
          "type": "bool"
        }
      ],
      "stateMutability": "view",
      "type": "function"
    },
    {
      "inputs": [
        {
          "internalType": "address",
          "name": "_dispenser",
          "type": "address"
        }
      ],
      "name": "isDispenserContract",
      "outputs": [
        {
          "internalType": "bool",
          "name": "",
          "type": "bool"
        }
      ],
      "stateMutability": "view",
      "type": "function"
    },
    {
      "inputs": [
        {
          "internalType": "address",
          "name": "_fixedRate",
          "type": "address"
        }
      ],
      "name": "isFixedRateContract",
      "outputs": [
        {
          "internalType": "bool",
          "name": "",
          "type": "bool"
        }
      ],
      "stateMutability": "view",
      "type": "function"
    },
    {
      "inputs": [
        {
          "internalType": "address",
          "name": "poolTemplate",
          "type": "address"
        }
      ],
      "name": "isPoolTemplate",
      "outputs": [
        {
          "internalType": "bool",
          "name": "",
          "type": "bool"
        }
      ],
      "stateMutability": "view",
      "type": "function"
    },
    {
      "inputs": [
        {
          "internalType": "address",
          "name": "_ssContract",
          "type": "address"
        }
      ],
      "name": "isSSContract",
      "outputs": [
        {
          "internalType": "bool",
          "name": "",
          "type": "bool"
        }
      ],
      "stateMutability": "view",
      "type": "function"
    },
    {
      "inputs": [],
      "name": "minVestingPeriodInBlocks",
      "outputs": [
        {
          "internalType": "uint256",
          "name": "",
          "type": "uint256"
        }
      ],
      "stateMutability": "view",
      "type": "function"
    },
    {
      "inputs": [],
      "name": "opcCollector",
      "outputs": [
        {
          "internalType": "address",
          "name": "",
          "type": "address"
        }
      ],
      "stateMutability": "view",
      "type": "function"
    },
    {
      "inputs": [
        {
          "internalType": "uint256",
          "name": "",
          "type": "uint256"
        }
      ],
      "name": "poolTemplates",
      "outputs": [
        {
          "internalType": "address",
          "name": "",
          "type": "address"
        }
      ],
      "stateMutability": "view",
      "type": "function"
    },
    {
      "inputs": [],
      "name": "providerFee",
      "outputs": [
        {
          "internalType": "uint256",
          "name": "",
          "type": "uint256"
        }
      ],
      "stateMutability": "view",
      "type": "function"
    },
    {
      "inputs": [
        {
          "internalType": "address",
          "name": "tokenAddress",
          "type": "address"
        }
      ],
      "name": "removeApprovedToken",
      "outputs": [],
      "stateMutability": "nonpayable",
      "type": "function"
    },
    {
      "inputs": [
        {
          "internalType": "address",
          "name": "_dispenser",
          "type": "address"
        }
      ],
      "name": "removeDispenserContract",
      "outputs": [],
      "stateMutability": "nonpayable",
      "type": "function"
    },
    {
      "inputs": [
        {
          "internalType": "address",
          "name": "_fixedRate",
          "type": "address"
        }
      ],
      "name": "removeFixedRateContract",
      "outputs": [],
      "stateMutability": "nonpayable",
      "type": "function"
    },
    {
      "inputs": [
        {
          "internalType": "address",
          "name": "poolTemplate",
          "type": "address"
        }
      ],
      "name": "removePoolTemplate",
      "outputs": [],
      "stateMutability": "nonpayable",
      "type": "function"
    },
    {
      "inputs": [
        {
          "internalType": "address",
          "name": "_ssContract",
          "type": "address"
        }
      ],
      "name": "removeSSContract",
      "outputs": [],
      "stateMutability": "nonpayable",
      "type": "function"
    },
    {
      "inputs": [],
      "name": "routerOwner",
      "outputs": [
        {
          "internalType": "address",
          "name": "",
          "type": "address"
        }
      ],
      "stateMutability": "view",
      "type": "function"
    },
    {
      "inputs": [
        {
          "internalType": "uint256",
          "name": "",
          "type": "uint256"
        }
      ],
      "name": "ssContracts",
      "outputs": [
        {
          "internalType": "address",
          "name": "",
          "type": "address"
        }
      ],
      "stateMutability": "view",
      "type": "function"
    },
    {
      "inputs": [
        {
          "components": [
            {
              "internalType": "address",
              "name": "poolAddress",
              "type": "address"
            },
            {
              "internalType": "uint256",
              "name": "tokenAmountIn",
              "type": "uint256"
            },
            {
              "internalType": "uint256",
              "name": "minPoolAmountOut",
              "type": "uint256"
            }
          ],
          "internalType": "struct IFactoryRouter.Stakes[]",
          "name": "_stakes",
          "type": "tuple[]"
        }
      ],
      "name": "stakeBatch",
      "outputs": [],
      "stateMutability": "nonpayable",
      "type": "function"
    },
    {
      "inputs": [],
      "name": "swapNonOceanFee",
      "outputs": [
        {
          "internalType": "uint256",
          "name": "",
          "type": "uint256"
        }
      ],
      "stateMutability": "view",
      "type": "function"
    },
    {
      "inputs": [],
      "name": "swapOceanFee",
      "outputs": [
        {
          "internalType": "uint256",
          "name": "",
          "type": "uint256"
        }
      ],
      "stateMutability": "view",
      "type": "function"
    },
    {
      "inputs": [
        {
          "internalType": "uint256",
          "name": "_newPeriod",
          "type": "uint256"
        }
      ],
      "name": "updateMinVestingPeriod",
      "outputs": [],
      "stateMutability": "nonpayable",
      "type": "function"
    },
    {
      "inputs": [
        {
          "internalType": "address",
          "name": "_opcCollector",
          "type": "address"
        }
      ],
      "name": "updateOPCCollector",
      "outputs": [],
      "stateMutability": "nonpayable",
      "type": "function"
    },
    {
      "inputs": [
        {
          "internalType": "uint256",
          "name": "_newSwapOceanFee",
          "type": "uint256"
        },
        {
          "internalType": "uint256",
          "name": "_newSwapNonOceanFee",
          "type": "uint256"
        },
        {
          "internalType": "uint256",
          "name": "_newConsumeFee",
          "type": "uint256"
        },
        {
          "internalType": "uint256",
          "name": "_newProviderFee",
          "type": "uint256"
        }
      ],
      "name": "updateOPCFee",
      "outputs": [],
      "stateMutability": "nonpayable",
      "type": "function"
    }
  ],
  "bytecode": "0x60806040526225049060055566038d7ea4c6800060065566071afd498d0000600755666a94d74f43000060085560006009553480156200003e57600080fd5b5060405162004ee938038062004ee983398101604081905262000061916200062d565b8282826001600160a01b038316620000d65760405162461bcd60e51b815260206004820152602d60248201527f42466163746f72793a20696e76616c69642062706f6f6c2074656d706c61746560448201526c207a65726f206164647265737360981b60648201526084015b60405180910390fd5b6001600160a01b0382166200012e5760405162461bcd60e51b815260206004820152601660248201527f42466163746f72793a207a65726f2061646472657373000000000000000000006044820152606401620000cd565b600080546001600160a01b0319166001600160a01b03841617905562000154836200037f565b805115620002035760005b8151811015620002015760006001600160a01b0316336001600160a01b03168383815181106200019357620001936200074d565b602090810291909101810151604080516000808252938101849052908101929092526001600160a01b0316907fbb6121447d29a04cc37bfd93cdf6a9dd08229f2d941116c1528f04698c4e790e9060600160405180910390a480620001f88162000763565b9150506200015f565b505b5050506001600160a01b0385166200026a5760405162461bcd60e51b815260206004820152602360248201527f466163746f7279526f757465723a20496e76616c696420726f75746572206f776044820152623732b960e91b6064820152608401620000cd565b6001600160a01b038216620002ce5760405162461bcd60e51b815260206004820152602360248201527f466163746f7279526f757465723a20496e76616c6964206f7063436f6c6c65636044820152623a37b960e91b6064820152608401620000cd565b6001600160a01b038416620003395760405162461bcd60e51b815260206004820152602a60248201527f466163746f7279526f757465723a20496e76616c6964204f6365616e20546f6b604482015269656e206164647265737360b01b6064820152608401620000cd565b600280546001600160a01b038088166001600160a01b0319928316179092556000805492851692909116919091179055620003748462000476565b50505050506200078d565b6001600160a01b038116620003eb5760405162461bcd60e51b815260206004820152602b60248201527f466163746f7279526f757465723a20496e76616c696420706f6f6c54656d706c60448201526a617465206164647265737360a81b6064820152608401620000cd565b620003f68162000501565b620004735760018054808201825560009182527fb10e2d527612073b26eecdfd717e6a320cf44b4afac2b0732d9fcbe2b7fa0cf60180546001600160a01b0319166001600160a01b038416908117909155604051909133917fc3674c32cbec94fe266aab7ef71f65b9bf77e1ed501d4f2bece8752f5352e9ac9190a35b50565b62000481816200051f565b6200047357600a805460018101825560009182527fc65a7bb8d6351c1cf70c95a316cc6a92839c986682d98bc35f958f4883f9d2a80180546001600160a01b0319166001600160a01b038416908117909155604051909133917fdffbd9ded1c09446f09377de547142dcce7dc541c8b0b028142b1eba7026b9e79190a350565b600062000519826200059160201b620030361760201c565b92915050565b6000805b600a548110156200058857826001600160a01b0316600a82815481106200054e576200054e6200074d565b6000918252602090912001546001600160a01b03161415620005735750600192915050565b806200057f8162000763565b91505062000523565b50600092915050565b6000805b6001548110156200058857826001600160a01b031660018281548110620005c057620005c06200074d565b6000918252602090912001546001600160a01b03161415620005e55750600192915050565b80620005f18162000763565b91505062000595565b80516001600160a01b03811681146200061257600080fd5b919050565b634e487b7160e01b600052604160045260246000fd5b600080600080600060a086880312156200064657600080fd5b6200065186620005fa565b9450602062000662818801620005fa565b94506200067260408801620005fa565b93506200068260608801620005fa565b60808801519093506001600160401b0380821115620006a057600080fd5b818901915089601f830112620006b557600080fd5b815181811115620006ca57620006ca62000617565b8060051b604051601f19603f83011681018181108582111715620006f257620006f262000617565b60405291825284820192508381018501918c8311156200071157600080fd5b938501935b828510156200073a576200072a85620005fa565b8452938501939285019262000716565b8096505050505050509295509295909350565b634e487b7160e01b600052603260045260246000fd5b60006000198214156200078657634e487b7160e01b600052601160045260246000fd5b5060010190565b61474c806200079d6000396000f3fe608060405234801561001057600080fd5b50600436106103e65760003560e01c8063858ab5961161020a578063c45a015511610125578063e183fb3f116100b8578063e525f99c11610087578063e525f99c14610782578063ec09302114610795578063ecdda5881461079d578063ee3bc635146107b0578063fca24bc6146107c357600080fd5b8063e183fb3f1461075d578063e193faad14610766578063e2bdeefa14610779578063e4a28a521461041b57600080fd5b8063cd10534b116100f4578063cd10534b14610709578063d629a00a1461071c578063dce2d0df1461072f578063de9a95a71461074a57600080fd5b8063c45a0155146106dc578063c6580d12146106ef578063c6e983d9146106f7578063cb870cbf1461070057600080fd5b8063b7b800a41161019d578063bc694ea21161016c578063bc694ea2146106ae578063bfa04b85146106b6578063c07c00fe146106c9578063c36596a6146104bd57600080fd5b8063b7b800a41461065d578063b8421e2b1461068b578063ba019dab1461069e578063bc063e1a146106a657600080fd5b80639f2c010a116101d95780639f2c010a1461064a578063b0e0d1361461065d578063b19aaac614610665578063b66806fb1461067857600080fd5b8063858ab5961461061f578063867378c5146106325780639381cd2b1461063a578063992e2a921461064257600080fd5b8063475030c0116103055780636cdf90a1116102985780637cbf85bf116102675780637cbf85bf146105cb5780637d28354d146105de578063802d1422146105e657806382449375146105f95780638552730a1461060c57600080fd5b80636cdf90a114610595578063737e5ca0146105a85780637521aff9146105b057806376c7a3c7146105c357600080fd5b80635705987a116102d45780635705987a1461055f5780636afc0c5f146105725780636c45e8811461057a5780636c9fb6121461058257600080fd5b8063475030c01461052857806347e140941461053157806350cbbe7614610544578063510f34651461055757600080fd5b80631dafede01161037d5780632d5ad3d51161034c5780632d5ad3d5146104e7578063335b7fa2146104fa578063415792081461050d57806346104ea81461052057600080fd5b80631dafede0146104aa578063218b5382146104bd578063241c7a6d146104cc57806329ce1ec5146104d457600080fd5b806316592614116103b9578063165926141461046957806316d9cb3d1461047e578063189d00ca146104915780631a81876d1461049957600080fd5b806303814238146103eb57806309a3bbe41461041b57806315c25dd51461043157806315d4c9eb14610454575b600080fd5b6000546103fe906001600160a01b031681565b6040516001600160a01b0390911681526020015b60405180910390f35b6104236107d6565b604051908152602001610412565b61044461043f366004613cc2565b6107ec565b6040519015158152602001610412565b61045c610856565b6040516104129190613cdf565b61047c610477366004613cc2565b6108b8565b005b61047c61048c366004613cc2565b610a60565b610423610b39565b6000546001600160a01b03166103fe565b6103fe6104b8366004613d2c565b610b50565b610423670de0b6b3a764000081565b61045c610b7a565b61047c6104e2366004613cc2565b610b89565b6104446104f5366004613cc2565b610cb4565b6103fe610508366004613d2c565b610d15565b61047c61051b366004613cc2565b610d25565b61045c610dfc565b61042360055481565b61047c61053f366004613cc2565b610e5c565b6103fe610552366004613d2c565b610ffa565b600554610423565b61047c61056d366004613cc2565b61100a565b61045c6111eb565b600954610423565b61047c610590366004613cc2565b61124b565b6104446105a3366004613cc2565b611323565b61045c611384565b61047c6105be366004613d2c565b6113e4565b61042361144b565b6103fe6105d9366004613d2c565b61145f565b600854610423565b6004546103fe906001600160a01b031681565b610423610607366004613d91565b61146f565b6002546103fe906001600160a01b031681565b61047c61062d366004613e14565b6115e1565b6104236119e5565b6104236119fc565b610423611a0f565b61047c610658366004613cc2565b611a2d565b610423600281565b61047c610673366004613cc2565b611bcb565b6103fe610686366004613d2c565b611bfe565b610423610699366004613cc2565b611c0e565b610423600181565b610423611c33565b610423611c46565b61047c6106c4366004613e89565b611c65565b6104446106d7366004613cc2565b611cf3565b6003546103fe906001600160a01b031681565b610423600081565b61042360095481565b61042360075481565b61047c610717366004613cc2565b611d04565b61047c61072a366004613ebb565b611d37565b60065460075460408051928352602083019190915201610412565b61047c610758366004613cc2565b611ea7565b61042360065481565b61047c610774366004613cc2565b611f7f565b61042360085481565b61047c610790366004613cc2565b611fb2565b61042361207e565b61047c6107ab366004613f2b565b612091565b6103fe6107be366004613f8f565b612c33565b6104446107d1366004613cc2565b612fd5565b6107e9670de0b6b3a76400006032614055565b81565b6000805b600b5481101561084d57826001600160a01b0316600b828154811061081757610817614074565b6000918252602090912001546001600160a01b0316141561083b5750600192915050565b806108458161408a565b9150506107f0565b50600092915050565b6060600d8054806020026020016040519081016040528092919081815260200182805480156108ae57602002820191906000526020600020905b81546001600160a01b03168152600190910190602001808311610890575b5050505050905090565b6002546001600160a01b031633146108eb5760405162461bcd60e51b81526004016108e2906140a5565b60405180910390fd5b6001600160a01b0381166109115760405162461bcd60e51b81526004016108e2906140d5565b60005b600d5481101561096d57816001600160a01b0316600d828154811061093b5761093b614074565b6000918252602090912001546001600160a01b0316141561095b5761096d565b806109658161408a565b915050610914565b600d54811015610a5c57600d80546109879060019061411e565b8154811061099757610997614074565b600091825260209091200154600d80546001600160a01b0390921691839081106109c3576109c3614074565b9060005260206000200160006101000a8154816001600160a01b0302191690836001600160a01b03160217905550600d805480610a0257610a02614135565b600082815260208120820160001990810180546001600160a01b03191690559091019091556040516001600160a01b0384169133917f63fe522dcdc5f006279afe8840a87398bb3d0dbb906b848866195859621908b39190a35b5050565b6002546001600160a01b03163314610a8a5760405162461bcd60e51b81526004016108e2906140a5565b6001600160a01b038116610ab05760405162461bcd60e51b81526004016108e29061414b565b610ab981611323565b610b3657600c805460018101825560009182527fdf6966c971051c3d54ec59162606531493a51404a002842f56009d7e5cf4a8c70180546001600160a01b0319166001600160a01b038416908117909155604051909133917f45ccb9b9d6b112eb7a38daf6a23bda8b4c8449d5cf64a034975a5beb8cdd37b39190a35b50565b6107e96402540be400670de0b6b3a7640000614194565b600a8181548110610b6057600080fd5b6000918252602090912001546001600160a01b0316905081565b6060610b84613097565b905090565b6002546001600160a01b03163314610bb35760405162461bcd60e51b81526004016108e2906140a5565b6001600160a01b038116610c195760405162461bcd60e51b815260206004820152602760248201527f466163746f7279526f757465723a20496e76616c6964205f666163746f7279206044820152666164647265737360c81b60648201526084016108e2565b6003546001600160a01b031615610c685760405162461bcd60e51b8152602060048201526013602482015272119050d513d49648105314915051164814d155606a1b60448201526064016108e2565b600380546001600160a01b0319166001600160a01b03831690811790915560405133907f1f869f1ddaa0e2e3652252b3394c05c805f54a0d5f7fb6975f785ae4f91e587190600090a350565b6000805b600a5481101561084d57826001600160a01b0316600a8281548110610cdf57610cdf614074565b6000918252602090912001546001600160a01b03161415610d035750600192915050565b80610d0d8161408a565b915050610cb8565b600d8181548110610b6057600080fd5b6002546001600160a01b03163314610d4f5760405162461bcd60e51b81526004016108e2906140a5565b6001600160a01b038116610db15760405162461bcd60e51b8152602060048201526024808201527f4e6577206f7063436f6c6c6563746f722063616e6e6f74206265205a45524f5f60448201526320a2222960e11b60648201526084016108e2565b600080546001600160a01b0319166001600160a01b0383169081178255604051909133917fbadc0056fc46a437b2d0a4e9ae17a4f964e18972b5f2455b98b7331c1401a80f9190a350565b6060600c8054806020026020016040519081016040528092919081815260200182805480156108ae576020028201919060005260206000209081546001600160a01b03168152600190910190602001808311610890575050505050905090565b6002546001600160a01b03163314610e865760405162461bcd60e51b81526004016108e2906140a5565b6001600160a01b038116610eac5760405162461bcd60e51b81526004016108e2906141b6565b60005b600b54811015610f0857816001600160a01b0316600b8281548110610ed657610ed6614074565b6000918252602090912001546001600160a01b03161415610ef657610f08565b80610f008161408a565b915050610eaf565b600b54811015610a5c57600b8054610f229060019061411e565b81548110610f3257610f32614074565b600091825260209091200154600b80546001600160a01b039092169183908110610f5e57610f5e614074565b9060005260206000200160006101000a8154816001600160a01b0302191690836001600160a01b03160217905550600b805480610f9d57610f9d614135565b600082815260208120820160001990810180546001600160a01b03191690559091019091556040516001600160a01b0384169133917f7df5d17d768be6563796784637c80bc9204e2af0bc4ba8630f5aa2fed96ea4879190a35050565b60018181548110610b6057600080fd5b6002546001600160a01b031633146110345760405162461bcd60e51b81526004016108e2906140a5565b6001600160a01b03811661109d5760405162461bcd60e51b815260206004820152602a60248201527f466163746f7279526f757465723a20496e76616c6964204f6365616e20546f6b604482015269656e206164647265737360b01b60648201526084016108e2565b60005b600a548110156110f957816001600160a01b0316600a82815481106110c7576110c7614074565b6000918252602090912001546001600160a01b031614156110e7576110f9565b806110f18161408a565b9150506110a0565b600a54811015610a5c57600a80546111139060019061411e565b8154811061112357611123614074565b600091825260209091200154600a80546001600160a01b03909216918390811061114f5761114f614074565b9060005260206000200160006101000a8154816001600160a01b0302191690836001600160a01b03160217905550600a80548061118e5761118e614135565b600082815260208120820160001990810180546001600160a01b03191690559091019091556040516001600160a01b0384169133917fbbe55b1ff108e23e5ff1a6f5d36946eec15ec0ca0ded2bfed4cdcf697ca904609190a35050565b6060600a8054806020026020016040519081016040528092919081815260200182805480156108ae576020028201919060005260206000209081546001600160a01b03168152600190910190602001808311610890575050505050905090565b6002546001600160a01b031633146112755760405162461bcd60e51b81526004016108e2906140a5565b6001600160a01b03811661129b5760405162461bcd60e51b81526004016108e2906141b6565b6112a4816107ec565b610b3657600b805460018101825560009182527f0175b7a638427703f0dbe7bb9bbf987a2551717b34e79f33b5b1008d1fa01db90180546001600160a01b0319166001600160a01b038416908117909155604051909133917fcef3ce01f85c030161b431114e41e463297b68f169c1013c526b1cbc5747e5449190a350565b6000805b600c5481101561084d57826001600160a01b0316600c828154811061134e5761134e614074565b6000918252602090912001546001600160a01b031614156113725750600192915050565b8061137c8161408a565b915050611327565b6060600b8054806020026020016040519081016040528092919081815260200182805480156108ae576020028201919060005260206000209081546001600160a01b03168152600190910190602001808311610890575050505050905090565b6002546001600160a01b0316331461140e5760405162461bcd60e51b81526004016108e2906140a5565b600581905560405181815233907f5ee73342e684c0b848562c301fa2dc6b0146b266cfa12d4219fb04b316f7a4759060200160405180910390a250565b6107e9612710670de0b6b3a7640000614194565b600b8181548110610b6057600080fd5b60035460405163226e761560e01b81523360048201526000916001600160a01b03169063226e761590602401602060405180830381865afa1580156114b8573d6000803e3d6000fd5b505050506040513d601f19601f820116820180604052508101906114dc9190614210565b6114f85760405162461bcd60e51b81526004016108e29061422b565b61150186611323565b6115605760405162461bcd60e51b815260206004820152602a60248201527f464143544f525920524f555445523a20496e76616c696420466978656450726960448201526918d950dbdb9d1c9858dd60b21b60648201526084016108e2565b60405163012c327560e01b81526001600160a01b0387169063012c3275906115949033908990899089908990600401614276565b6020604051808303816000875af11580156115b3573d6000803e3d6000fd5b505050506040513d601f19601f820116820180604052508101906115d79190614305565b9695505050505050565b60328111156116025760405162461bcd60e51b81526004016108e29061431e565b60005b818110156119e057600083838381811061162157611621614074565b6116379260206060909202019081019150613cc2565b6001600160a01b0316634df947d06040518163ffffffff1660e01b8152600401602060405180830381865afa158015611674573d6000803e3d6000fd5b505050506040513d601f19601f820116820180604052508101906116989190614360565b90506116c18133308787878181106116b2576116b2614074565b905060600201602001356130f7565b60008484848181106116d5576116d5614074565b6116eb9260206060909202019081019150613cc2565b6040516370a0823160e01b81523060048201526001600160a01b0391909116906370a0823190602401602060405180830381865afa158015611731573d6000803e3d6000fd5b505050506040513d601f19601f820116820180604052508101906117559190614305565b90506117b785858581811061176c5761176c614074565b6117829260206060909202019081019150613cc2565b86868681811061179457611794614074565b90506060020160200135846001600160a01b03166132459092919063ffffffff16565b60008585858181106117cb576117cb614074565b6117e19260206060909202019081019150613cc2565b6001600160a01b0316638329ab3387878781811061180157611801614074565b9050606002016020013588888881811061181d5761181d614074565b905060600201604001356040518363ffffffff1660e01b815260040161184d929190918252602082015260400190565b6020604051808303816000875af115801561186c573d6000803e3d6000fd5b505050506040513d601f19601f820116820180604052508101906118909190614305565b90508585858181106118a4576118a4614074565b905060600201604001358110156118ed5760405162461bcd60e51b815260206004820152600d60248201526c04e4f5420454e4f554748204c5609c1b60448201526064016108e2565b600086868681811061190157611901614074565b6119179260206060909202019081019150613cc2565b6040516370a0823160e01b81523060048201526001600160a01b0391909116906370a0823190602401602060405180830381865afa15801561195d573d6000803e3d6000fd5b505050506040513d601f19601f820116820180604052508101906119819190614305565b90506119c9336119918386613330565b8989898181106119a3576119a3614074565b6119b99260206060909202019081019150613cc2565b6001600160a01b03169190613343565b5050505080806119d89061408a565b915050611605565b505050565b6107e964e8d4a51000670de0b6b3a7640000614194565b6107e9670de0b6b3a76400006064614055565b611a226002670de0b6b3a7640000614194565b6107e990600161437d565b6002546001600160a01b03163314611a575760405162461bcd60e51b81526004016108e2906140a5565b6001600160a01b038116611a7d5760405162461bcd60e51b81526004016108e29061414b565b60005b600c54811015611ad957816001600160a01b0316600c8281548110611aa757611aa7614074565b6000918252602090912001546001600160a01b03161415611ac757611ad9565b80611ad18161408a565b915050611a80565b600c54811015610a5c57600c8054611af39060019061411e565b81548110611b0357611b03614074565b600091825260209091200154600c80546001600160a01b039092169183908110611b2f57611b2f614074565b9060005260206000200160006101000a8154816001600160a01b0302191690836001600160a01b03160217905550600c805480611b6e57611b6e614135565b600082815260208120820160001990810180546001600160a01b03191690559091019091556040516001600160a01b0384169133917ff1ec0697329a2e8de8cf055335547acc40fbace8712fc77aeea1ea2afbcf7e3b9190a35050565b6002546001600160a01b03163314611bf55760405162461bcd60e51b81526004016108e2906140a5565b610b3681613373565b600c8181548110610b6057600080fd5b6000611c1982610cb4565b15611c2657505060065490565b505060075490565b919050565b6107e9600a670de0b6b3a7640000614194565b6001611c5b670de0b6b3a76400006002614055565b6107e9919061411e565b6002546001600160a01b03163314611c8f5760405162461bcd60e51b81526004016108e2906140a5565b600684905560078390556008829055600981905560408051858152602081018590529081018390526060810182905233907fe6171cf0506862c0a0185f8c21dca979859d4eb63186eff63f1b3dd14926be7b9060800160405180910390a250505050565b6000611cfe82613036565b92915050565b6002546001600160a01b03163314611d2e5760405162461bcd60e51b81526004016108e2906140a5565b610b3681613464565b60035460405163226e761560e01b81523360048201526001600160a01b039091169063226e761590602401602060405180830381865afa158015611d7f573d6000803e3d6000fd5b505050506040513d601f19601f82011682018060405250810190611da39190614210565b611dbf5760405162461bcd60e51b81526004016108e29061422b565b611dc886612fd5565b611e265760405162461bcd60e51b815260206004820152602960248201527f464143544f525920524f555445523a20496e76616c69642044697370656e73656044820152681c90dbdb9d1c9858dd60ba1b60648201526084016108e2565b6040516324ce291760e01b81526001600160a01b0386811660048301526024820186905260448201859052838116606483015282811660848301528716906324ce29179060a401600060405180830381600087803b158015611e8757600080fd5b505af1158015611e9b573d6000803e3d6000fd5b50505050505050505050565b6002546001600160a01b03163314611ed15760405162461bcd60e51b81526004016108e2906140a5565b6001600160a01b038116611ef75760405162461bcd60e51b81526004016108e2906140d5565b611f0081612fd5565b610b3657600d805460018101825560009182527fd7b6990105719101dabeb77144f2a3385c8033acd3af97e9423a695e81ad1eb50180546001600160a01b0319166001600160a01b038416908117909155604051909133917f78be9d87a7b2c8707b044dbf5b04c3f747b692c55ec34dcd1d7357736478789c9190a350565b6002546001600160a01b03163314611fa95760405162461bcd60e51b81526004016108e2906140a5565b610b36816134ec565b6002546001600160a01b03163314611fdc5760405162461bcd60e51b81526004016108e2906140a5565b6001600160a01b0381166120325760405162461bcd60e51b815260206004820152601860248201527f496e76616c6964206e657720726f75746572206f776e6572000000000000000060448201526064016108e2565b600280546001600160a01b0319166001600160a01b03831690811790915560405133907fc736654a613824c69968e0ec25ac1a428ccd49e15c28e97b5dfd2c6059757e2a90600090a350565b6107e96002670de0b6b3a7640000614194565b60328111156120b25760405162461bcd60e51b81526004016108e29061431e565b60005b818110156119e057600060405180606001604052808585858181106120dc576120dc614074565b9050610140020160600160208101906120f59190613cc2565b6001600160a01b0316815260200185858581811061211557612115614074565b9050610140020160a001602081019061212e9190613cc2565b6001600160a01b0316815260200185858581811061214e5761214e614074565b905061014002016101200160208101906121689190613cc2565b6001600160a01b03166001600160a01b031681525090506000604051806080016040528086868681811061219e5761219e614074565b905061014002016080013581526020018686868181106121c0576121c0614074565b9050610140020160c0013581526020018686868181106121e2576121e2614074565b9050610140020160e00135815260200186868681811061220457612204614074565b90506101400201610100013581525090506000600381111561222857612228614395565b85858581811061223a5761223a614074565b90506101400201604001602081019061225391906143ab565b600381111561226457612264614395565b1415612417576122bc85858581811061227f5761227f614074565b9050610140020160600160208101906122989190613cc2565b33308888888181106122ac576122ac614074565b90506101400201608001356130f7565b6123428585858181106122d1576122d1614074565b9050610140020160200160208101906122ea9190613cc2565b8686868181106122fc576122fc614074565b905061014002016080013587878781811061231957612319614074565b9050610140020160600160208101906123329190613cc2565b6001600160a01b03169190613245565b600085858581811061235657612356614074565b90506101400201602001602081019061236f9190613cc2565b6001600160a01b031663c421a3fc84846040518363ffffffff1660e01b815260040161239c9291906143cc565b60408051808303816000875af11580156123ba573d6000803e3d6000fd5b505050506040513d601f19601f820116820180604052508101906123de9190614431565b50905061241133828888888181106123f8576123f8614074565b9050610140020160a00160208101906119b99190613cc2565b50612c1e565b600185858581811061242b5761242b614074565b90506101400201604001602081019061244491906143ab565b600381111561245557612455614395565b141561274757600085858581811061246f5761246f614074565b9050610140020160200160208101906124889190613cc2565b6001600160a01b031663caa011488787878181106124a8576124a8614074565b9050610140020160600160208101906124c19190613cc2565b8888888181106124d3576124d3614074565b9050610140020160a00160208101906124ec9190613cc2565b8989898181106124fe576124fe614074565b9050610140020160c001358a8a8a81811061251b5761251b614074565b6040516001600160e01b031960e089901b1681526001600160a01b039687166004820152959094166024860152506044840191909152610100610140909202010135606482015260840160a060405180830381865afa158015612582573d6000803e3d6000fd5b505050506040513d601f19601f820116820180604052508101906125a69190614455565b509293506125e69250889150879050868181106125c5576125c5614074565b9050610140020160600160208101906125de9190613cc2565b3330846130f7565b6126278686868181106125fb576125fb614074565b9050610140020160200160208101906126149190613cc2565b8288888881811061231957612319614074565b600086868681811061263b5761263b614074565b9050610140020160200160208101906126549190613cc2565b6001600160a01b031663c98a59cf85856040518363ffffffff1660e01b81526004016126819291906143cc565b60408051808303816000875af115801561269f573d6000803e3d6000fd5b505050506040513d601f19601f820116820180604052508101906126c39190614431565b50835190915081111561270d5760405162461bcd60e51b81526020600482015260126024820152712a27a79026a0a72c902a27a5a2a7299024a760711b60448201526064016108e2565b6127403388888881811061272357612723614074565b9050610140020160c001358989898181106123f8576123f8614074565b5050612c1e565b600285858581811061275b5761275b614074565b90506101400201604001602081019061277491906143ab565b600381111561278557612785614395565b1415612b3557600085858581811061279f5761279f614074565b9050610140020160200160208101906127b89190613cc2565b6001600160a01b0316634c87087d8787878181106127d8576127d8614074565b90506101400201600001356040518263ffffffff1660e01b815260040161280191815260200190565b61018060405180830381865afa15801561281f573d6000803e3d6000fd5b505050506040513d601f19601f820116820180604052508101906128439190614495565b50505050505050505050915050600086868681811061286457612864614074565b90506101400201602001602081019061287d9190613cc2565b6001600160a01b031663dd1bc96a88888881811061289d5761289d614074565b90506101400201600001358989898181106128ba576128ba614074565b9050610140020160c001358a8a8a8181106128d7576128d7614074565b6040516001600160e01b031960e088901b16815260048101959095526024850193909352506101006101409092020101356044820152606401608060405180830381865afa15801561292d573d6000803e3d6000fd5b505050506040513d601f19601f820116820180604052508101906129519190614549565b505050905061296b8787878181106125c5576125c5614074565b6129ac87878781811061298057612980614074565b9050610140020160200160208101906129999190613cc2565b8289898981811061231957612319614074565b8686868181106129be576129be614074565b9050610140020160200160208101906129d79190613cc2565b6001600160a01b03166368c4b7e98888888181106129f7576129f7614074565b9050610140020160000135898989818110612a1457612a14614074565b9050610140020160c001358a8a8a818110612a3157612a31614074565b90506101400201608001358b8b8b818110612a4e57612a4e614074565b90506101400201610120016020810190612a689190613cc2565b8c8c8c818110612a7a57612a7a614074565b6040516001600160e01b031960e08a901b168152600481019790975260248701959095525060448501929092526001600160a01b03166064840152610100610140909202010135608482015260a401600060405180830381600087803b158015612ae357600080fd5b505af1158015612af7573d6000803e3d6000fd5b5050505061274033888888818110612b1157612b11614074565b9050610140020160c00135846001600160a01b03166133439092919063ffffffff16565b848484818110612b4757612b47614074565b905061014002016020016020810190612b609190613cc2565b6001600160a01b0316631d746d83868686818110612b8057612b80614074565b9050610140020160a0016020810190612b999190613cc2565b878787818110612bab57612bab614074565b60405160e086901b6001600160e01b03191681526001600160a01b03949094166004850152610140029190910160c00135602483015250336044820152606401600060405180830381600087803b158015612c0557600080fd5b505af1158015612c19573d6000803e3d6000fd5b505050505b50508080612c2b9061408a565b9150506120b5565b60035460405163226e761560e01b81523360048201526000916001600160a01b03169063226e761590602401602060405180830381865afa158015612c7c573d6000803e3d6000fd5b505050506040513d601f19601f82011682018060405250810190612ca09190614210565b612cbc5760405162461bcd60e51b81526004016108e29061422b565b612ce783836000818110612cd257612cd2614074565b905060200201602081019061043f9190613cc2565b612d3e5760405162461bcd60e51b815260206004820152602260248201527f464143544f525920524f555445523a20696e76616c6964207373436f6e74726160448201526118dd60f21b60648201526084016108e2565b600087876001818110612d5357612d53614074565b9050602002013511612d985760405162461bcd60e51b815260206004820152600e60248201526d57726f6e6720646563696d616c7360901b60448201526064016108e2565b612e1a612dab60408a0160208b01613cc2565b84846002818110612dbe57612dbe614074565b9050602002016020810190612dd39190613cc2565b85856000818110612de657612de6614074565b9050602002016020810190612dfb9190613cc2565b8a8a6004818110612e0e57612e0e614074565b905060200201356130f7565b604080518082018252600091612edd91908b90600290839083908082843760009201919091525050604080516020808d0282810182019093528c82529092508c918c9182919085019084908082843760009201919091525050604080516020808d0282810182019093528c82529093508c92508b91829185019084908082843760009201919091525050604080516020808c0282810182019093528b82529093508b92508a91829185019084908082843760009201919091525061365b92505050565b90506001600160a01b038116612f2d5760405162461bcd60e51b8152602060048201526015602482015274119052531151081513c81111541313d6481413d3d3605a1b60448201526064016108e2565b612f406104f560408b0160208c01613cc2565b15612f8957604051600181526001600160a01b038216907f90279d7790471e260411db76079630dfaa838fc987d29ae7aa7dc1bcd773ef2e9060200160405180910390a2612fc9565b604051600081526001600160a01b038216907f90279d7790471e260411db76079630dfaa838fc987d29ae7aa7dc1bcd773ef2e9060200160405180910390a25b98975050505050505050565b6000805b600d5481101561084d57826001600160a01b0316600d828154811061300057613000614074565b6000918252602090912001546001600160a01b031614156130245750600192915050565b8061302e8161408a565b915050612fd9565b6000805b60015481101561084d57826001600160a01b03166001828154811061306157613061614074565b6000918252602090912001546001600160a01b031614156130855750600192915050565b8061308f8161408a565b91505061303a565b606060018054806020026020016040519081016040528092919081815260200182805480156108ae576020028201919060005260206000209081546001600160a01b03168152600190910190602001808311610890575050505050905090565b6040516370a0823160e01b81526001600160a01b038381166004830152600091908616906370a0823190602401602060405180830381865afa158015613141573d6000803e3d6000fd5b505050506040513d601f19601f820116820180604052508101906131659190614305565b905061317c6001600160a01b03861685858561398f565b61318681836139c7565b6040516370a0823160e01b81526001600160a01b0385811660048301528716906370a0823190602401602060405180830381865afa1580156131cc573d6000803e3d6000fd5b505050506040513d601f19601f820116820180604052508101906131f09190614305565b101561323e5760405162461bcd60e51b815260206004820152601a60248201527f5472616e7366657220616d6f756e7420697320746f6f206c6f7700000000000060448201526064016108e2565b5050505050565b604051636eb1769f60e11b81523060048201526001600160a01b038381166024830152600091839186169063dd62ed3e90604401602060405180830381865afa158015613296573d6000803e3d6000fd5b505050506040513d601f19601f820116820180604052508101906132ba9190614305565b6132c4919061437d565b6040516001600160a01b03851660248201526044810182905290915061332a90859063095ea7b360e01b906064015b60408051601f198184030181529190526020810180516001600160e01b03166001600160e01b0319909316929092179091526139d3565b50505050565b600061333c828461411e565b9392505050565b6040516001600160a01b0383166024820152604481018290526119e090849063a9059cbb60e01b906064016132f3565b6001600160a01b0381166133dd5760405162461bcd60e51b815260206004820152602b60248201527f466163746f7279526f757465723a20496e76616c696420706f6f6c54656d706c60448201526a617465206164647265737360a81b60648201526084016108e2565b6133e681611cf3565b610b365760018054808201825560009182527fb10e2d527612073b26eecdfd717e6a320cf44b4afac2b0732d9fcbe2b7fa0cf60180546001600160a01b0319166001600160a01b038416908117909155604051909133917fc3674c32cbec94fe266aab7ef71f65b9bf77e1ed501d4f2bece8752f5352e9ac9190a350565b61346d81610cb4565b610b3657600a805460018101825560009182527fc65a7bb8d6351c1cf70c95a316cc6a92839c986682d98bc35f958f4883f9d2a80180546001600160a01b0319166001600160a01b038416908117909155604051909133917fdffbd9ded1c09446f09377de547142dcce7dc541c8b0b028142b1eba7026b9e79190a350565b60005b60015481101561354857816001600160a01b03166001828154811061351657613516614074565b6000918252602090912001546001600160a01b0316141561353657613548565b806135408161408a565b9150506134ef565b600154811015610a5c57805b60018054613562919061411e565b8110156135ec576001613575828261437d565b8154811061358557613585614074565b600091825260209091200154600180546001600160a01b0390921691839081106135b1576135b1614074565b600091825260209091200180546001600160a01b0319166001600160a01b0392909216919091179055806135e48161408a565b915050613554565b5060018054806135fe576135fe614135565b600082815260208120820160001990810180546001600160a01b03191690559091019091556040516001600160a01b0384169133917fc73fd5d40669565e257cbcd153784617ef26acfcc9fead31e68c0dce3ce82fb29190a35050565b60006136808260058151811061367357613673614074565b6020026020010151611cf3565b6136cc5760405162461bcd60e51b815260206004820152601d60248201527f42466163746f72793a2057726f6e6720506f6f6c2054656d706c61746500000060448201526064016108e2565b60006040518060200160405280846004815181106136ec576136ec614074565b60200260200101516001600160a01b03166001600160a01b0316815250905061372e8360058151811061372157613721614074565b6020026020010151613aa5565b91506001600160a01b0382166137925760405162461bcd60e51b8152602060048201526024808201527f42466163746f72793a20696e76616c69642062706f6f6c207a65726f206164646044820152637265737360e01b60648201526084016108e2565b6000829050806001600160a01b031663284e97a9856000815181106137b9576137b9614074565b602002602001015130886000808d896040518863ffffffff1660e01b81526004016137ea97969594939291906145e6565b6020604051808303816000875af1158015613809573d6000803e3d6000fd5b505050506040513d601f19601f8201168201806040525081019061382d9190614210565b6138705760405162461bcd60e51b815260206004820152601460248201527311549497d253925512505312569157d09413d3d360621b60448201526064016108e2565b8360008151811061388357613883614074565b60200260200101516001600160a01b03166383b87e5a886000600281106138ac576138ac614074565b6020020151896001602002015186886003815181106138cd576138cd614074565b60200260200101518b6040518663ffffffff1660e01b81526004016138f695949392919061465f565b6020604051808303816000875af1158015613915573d6000803e3d6000fd5b505050506040513d601f19601f820116820180604052508101906139399190614210565b6139855760405162461bcd60e51b815260206004820152601a60248201527f4552525f494e495449414c495a455f534944455354414b494e4700000000000060448201526064016108e2565b5050949350505050565b6040516001600160a01b038085166024830152831660448201526064810182905261332a9085906323b872dd60e01b906084016132f3565b600061333c828461437d565b6000613a28826040518060400160405280602081526020017f5361666545524332303a206c6f772d6c6576656c2063616c6c206661696c6564815250856001600160a01b0316613b359092919063ffffffff16565b8051909150156119e05780806020019051810190613a469190614210565b6119e05760405162461bcd60e51b815260206004820152602a60248201527f5361666545524332303a204552433230206f7065726174696f6e20646964206e6044820152691bdd081cdd58d8d9595960b21b60648201526084016108e2565b6000808260601b9050604051733d602d80600a3d3981f3363d3d373d3d3d363d7360601b81528160148201526e5af43d82803e903d91602b57fd5bf360881b60288201526037816000f06040516001600160a01b03821681529093507f117c72e6c25f0a072e36e148df71468ce2f3dbe7defec5b2c257a6e3eb65278c915060200160405180910390a150919050565b6060613b448484600085613b4c565b949350505050565b606082471015613bad5760405162461bcd60e51b815260206004820152602660248201527f416464726573733a20696e73756666696369656e742062616c616e636520666f6044820152651c8818d85b1b60d21b60648201526084016108e2565b843b613bfb5760405162461bcd60e51b815260206004820152601d60248201527f416464726573733a2063616c6c20746f206e6f6e2d636f6e747261637400000060448201526064016108e2565b600080866001600160a01b03168587604051613c1791906146c7565b60006040518083038185875af1925050503d8060008114613c54576040519150601f19603f3d011682016040523d82523d6000602084013e613c59565b606091505b5091509150613c69828286613c74565b979650505050505050565b60608315613c8357508161333c565b825115613c935782518084602001fd5b8160405162461bcd60e51b81526004016108e291906146e3565b6001600160a01b0381168114610b3657600080fd5b600060208284031215613cd457600080fd5b813561333c81613cad565b6020808252825182820181905260009190848201906040850190845b81811015613d205783516001600160a01b031683529284019291840191600101613cfb565b50909695505050505050565b600060208284031215613d3e57600080fd5b5035919050565b60008083601f840112613d5757600080fd5b50813567ffffffffffffffff811115613d6f57600080fd5b6020830191508360208260051b8501011115613d8a57600080fd5b9250929050565b600080600080600060608688031215613da957600080fd5b8535613db481613cad565b9450602086013567ffffffffffffffff80821115613dd157600080fd5b613ddd89838a01613d45565b90965094506040880135915080821115613df657600080fd5b50613e0388828901613d45565b969995985093965092949392505050565b60008060208385031215613e2757600080fd5b823567ffffffffffffffff80821115613e3f57600080fd5b818501915085601f830112613e5357600080fd5b813581811115613e6257600080fd5b866020606083028501011115613e7757600080fd5b60209290920196919550909350505050565b60008060008060808587031215613e9f57600080fd5b5050823594602084013594506040840135936060013592509050565b60008060008060008060c08789031215613ed457600080fd5b8635613edf81613cad565b95506020870135613eef81613cad565b945060408701359350606087013592506080870135613f0d81613cad565b915060a0870135613f1d81613cad565b809150509295509295509295565b60008060208385031215613f3e57600080fd5b823567ffffffffffffffff80821115613f5657600080fd5b818501915085601f830112613f6a57600080fd5b813581811115613f7957600080fd5b86602061014083028501011115613e7757600080fd5b600080600080600080600060a0888a031215613faa57600080fd5b6040880189811115613fbb57600080fd5b8897503567ffffffffffffffff80821115613fd557600080fd5b613fe18b838c01613d45565b909850965060608a0135915080821115613ffa57600080fd5b6140068b838c01613d45565b909650945060808a013591508082111561401f57600080fd5b5061402c8a828b01613d45565b989b979a50959850939692959293505050565b634e487b7160e01b600052601160045260246000fd5b600081600019048311821515161561406f5761406f61403f565b500290565b634e487b7160e01b600052603260045260246000fd5b600060001982141561409e5761409e61403f565b5060010190565b60208082526016908201527527b1b2b0b72937baba32b91d102727aa1027aba722a960511b604082015260600190565b60208082526029908201527f466163746f7279526f757465723a20496e76616c6964205f64697370656e736560408201526872206164647265737360b81b606082015260800190565b6000828210156141305761413061403f565b500390565b634e487b7160e01b600052603160045260246000fd5b60208082526029908201527f466163746f7279526f757465723a20496e76616c6964205f666978656452617460408201526865206164647265737360b81b606082015260800190565b6000826141b157634e487b7160e01b600052601260045260246000fd5b500490565b6020808252602a908201527f466163746f7279526f757465723a20496e76616c6964205f7373436f6e7472616040820152696374206164647265737360b01b606082015260800190565b80518015158114611c2e57600080fd5b60006020828403121561422257600080fd5b61333c82614200565b6020808252602b908201527f464143544f525920524f555445523a204e4f54204f524947494e414c2045524360408201526a32302054454d504c41544560a81b606082015260800190565b6001600160a01b03868116825260606020808401829052908301869052600091879160808501845b898110156142c55784356142b181613cad565b84168252938201939082019060010161429e565b5085810360408701528681526001600160fb1b038711156142e557600080fd5b8660051b9350838883830137600093010191825250979650505050505050565b60006020828403121561431757600080fd5b5051919050565b60208082526022908201527f466163746f7279526f757465723a20546f6f204d616e79204f7065726174696f6040820152616e7360f01b606082015260800190565b60006020828403121561437257600080fd5b815161333c81613cad565b600082198211156143905761439061403f565b500190565b634e487b7160e01b600052602160045260246000fd5b6000602082840312156143bd57600080fd5b81356004811061333c57600080fd5b60e08101818460005b60038110156143fd5781516001600160a01b03168352602092830192909101906001016143d5565b505050606082018360005b6004811015614427578151835260209283019290910190600101614408565b5050509392505050565b6000806040838503121561444457600080fd5b505080516020909101519092909150565b600080600080600060a0868803121561446d57600080fd5b5050835160208501516040860151606087015160809097015192989197509594509092509050565b6000806000806000806000806000806000806101808d8f0312156144b857600080fd5b8c516144c381613cad565b60208e0151909c506144d481613cad565b60408e015160608f0151919c509a506144ec81613cad565b60808e015160a08f0151919a509850965061450960c08e01614200565b955060e08d015194506101008d015193506101208d015192506101408d015191506145376101608e01614200565b90509295989b509295989b509295989b565b6000806000806080858703121561455f57600080fd5b505082516020840151604085015160609095015191969095509092509050565b600081518084526020808501945080840160005b838110156145af57815187529582019590820190600101614593565b509495945050505050565b8060005b600181101561332a5781516001600160a01b03168452602093840193909101906001016145be565b600061010060018060a01b03808b1684526020818b16818601528260408601526146128386018b61457f565b93508815156060860152871515608086015260a0850192508660005b600281101561464d57815184168552938201939082019060010161462e565b5050505050612fc960e08301846145ba565b6001600160a01b038681168252858116602083015284811660408301528316606082015260a060808201819052600090613c699083018461457f565b60005b838110156146b657818101518382015260200161469e565b8381111561332a5750506000910152565b600082516146d981846020870161469b565b9190910192915050565b602081526000825180602084015261470281604085016020870161469b565b601f01601f1916919091016040019291505056fea2646970667358221220a55f00c99642f9dcdbff0481b7b0ffb60f2e3790001567f15d8aeaf17fb5529e64736f6c634300080c0033",
  "linkReferences": {},
  "deployedLinkReferences": {}
}