{
  "_format": "hh-sol-artifact-1",
  "contractName": "FactoryRouter",
  "sourceName": "contracts/pools/FactoryRouter.sol",
  "abi": [
    {
      "inputs": [
        {
          "internalType": "address",
          "name": "_routerOwner",
          "type": "address"
        },
        {
          "internalType": "address",
          "name": "_oceanToken",
          "type": "address"
        },
        {
          "internalType": "address",
          "name": "_bpoolTemplate",
          "type": "address"
        },
        {
          "internalType": "address",
          "name": "_opcCollector",
          "type": "address"
        },
        {
          "internalType": "address[]",
          "name": "_preCreatedPools",
          "type": "address[]"
        }
      ],
      "stateMutability": "nonpayable",
      "type": "constructor"
    },
    {
      "anonymous": false,
      "inputs": [
        {
          "indexed": true,
          "internalType": "address",
          "name": "newBPoolAddress",
          "type": "address"
        },
        {
          "indexed": true,
          "internalType": "address",
          "name": "registeredBy",
          "type": "address"
        },
        {
          "indexed": true,
          "internalType": "address",
          "name": "datatokenAddress",
          "type": "address"
        },
        {
          "indexed": false,
          "internalType": "address",
          "name": "baseTokenAddress",
          "type": "address"
        },
        {
          "indexed": false,
          "internalType": "address",
          "name": "bpoolTemplateAddress",
          "type": "address"
        },
        {
          "indexed": false,
          "internalType": "address",
          "name": "ssAddress",
          "type": "address"
        }
      ],
      "name": "BPoolCreated",
      "type": "event"
    },
    {
      "anonymous": false,
      "inputs": [
        {
          "indexed": true,
          "internalType": "address",
          "name": "caller",
          "type": "address"
        },
        {
          "indexed": true,
          "internalType": "address",
          "name": "contractAddress",
          "type": "address"
        }
      ],
      "name": "DispenserContractAdded",
      "type": "event"
    },
    {
      "anonymous": false,
      "inputs": [
        {
          "indexed": true,
          "internalType": "address",
          "name": "caller",
          "type": "address"
        },
        {
          "indexed": true,
          "internalType": "address",
          "name": "contractAddress",
          "type": "address"
        }
      ],
      "name": "DispenserContractRemoved",
      "type": "event"
    },
    {
      "anonymous": false,
      "inputs": [
        {
          "indexed": true,
          "internalType": "address",
          "name": "caller",
          "type": "address"
        },
        {
          "indexed": true,
          "internalType": "address",
          "name": "contractAddress",
          "type": "address"
        }
      ],
      "name": "FactoryContractChanged",
      "type": "event"
    },
    {
      "anonymous": false,
      "inputs": [
        {
          "indexed": true,
          "internalType": "address",
          "name": "caller",
          "type": "address"
        },
        {
          "indexed": true,
          "internalType": "address",
          "name": "contractAddress",
          "type": "address"
        }
      ],
      "name": "FixedRateContractAdded",
      "type": "event"
    },
    {
      "anonymous": false,
      "inputs": [
        {
          "indexed": true,
          "internalType": "address",
          "name": "caller",
          "type": "address"
        },
        {
          "indexed": true,
          "internalType": "address",
          "name": "contractAddress",
          "type": "address"
        }
      ],
      "name": "FixedRateContractRemoved",
      "type": "event"
    },
    {
      "anonymous": false,
      "inputs": [
        {
          "indexed": false,
          "internalType": "address",
          "name": "instance",
          "type": "address"
        }
      ],
      "name": "InstanceDeployed",
      "type": "event"
    },
    {
      "anonymous": false,
      "inputs": [
        {
          "indexed": true,
          "internalType": "address",
          "name": "poolAddress",
          "type": "address"
        },
        {
          "indexed": false,
          "internalType": "bool",
          "name": "isOcean",
          "type": "bool"
        }
      ],
      "name": "NewPool",
      "type": "event"
    },
    {
      "anonymous": false,
      "inputs": [
        {
          "indexed": true,
          "internalType": "address",
          "name": "caller",
          "type": "address"
        },
        {
          "indexed": false,
          "internalType": "uint256",
          "name": "newSwapOceanFee",
          "type": "uint256"
        },
        {
          "indexed": false,
          "internalType": "uint256",
          "name": "newSwapNonOceanFee",
          "type": "uint256"
        },
        {
          "indexed": false,
          "internalType": "uint256",
          "name": "newConsumeFee",
          "type": "uint256"
        },
        {
          "indexed": false,
          "internalType": "uint256",
          "name": "newProviderFee",
          "type": "uint256"
        }
      ],
      "name": "OPCFeeChanged",
      "type": "event"
    },
    {
      "anonymous": false,
      "inputs": [
        {
          "indexed": true,
          "internalType": "address",
          "name": "caller",
          "type": "address"
        },
        {
          "indexed": true,
          "internalType": "address",
          "name": "contractAddress",
          "type": "address"
        }
      ],
      "name": "PoolTemplateAdded",
      "type": "event"
    },
    {
      "anonymous": false,
      "inputs": [
        {
          "indexed": true,
          "internalType": "address",
          "name": "caller",
          "type": "address"
        },
        {
          "indexed": true,
          "internalType": "address",
          "name": "contractAddress",
          "type": "address"
        }
      ],
      "name": "PoolTemplateRemoved",
      "type": "event"
    },
    {
      "anonymous": false,
      "inputs": [
        {
          "indexed": true,
          "internalType": "address",
          "name": "caller",
          "type": "address"
        },
        {
          "indexed": true,
          "internalType": "address",
          "name": "newRouter",
          "type": "address"
        }
      ],
      "name": "RouterChanged",
      "type": "event"
    },
    {
      "anonymous": false,
      "inputs": [
        {
          "indexed": true,
          "internalType": "address",
          "name": "caller",
          "type": "address"
        },
        {
          "indexed": true,
          "internalType": "address",
          "name": "contractAddress",
          "type": "address"
        }
      ],
      "name": "SSContractAdded",
      "type": "event"
    },
    {
      "anonymous": false,
      "inputs": [
        {
          "indexed": true,
          "internalType": "address",
          "name": "caller",
          "type": "address"
        },
        {
          "indexed": true,
          "internalType": "address",
          "name": "contractAddress",
          "type": "address"
        }
      ],
      "name": "SSContractRemoved",
      "type": "event"
    },
    {
      "anonymous": false,
      "inputs": [
        {
          "indexed": true,
          "internalType": "address",
          "name": "caller",
          "type": "address"
        },
        {
          "indexed": true,
          "internalType": "address",
          "name": "token",
          "type": "address"
        }
      ],
      "name": "TokenAdded",
      "type": "event"
    },
    {
      "anonymous": false,
      "inputs": [
        {
          "indexed": true,
          "internalType": "address",
          "name": "caller",
          "type": "address"
        },
        {
          "indexed": true,
          "internalType": "address",
          "name": "token",
          "type": "address"
        }
      ],
      "name": "TokenRemoved",
      "type": "event"
    },
    {
      "anonymous": false,
      "inputs": [
        {
          "indexed": true,
          "internalType": "address",
          "name": "caller",
          "type": "address"
        },
        {
          "indexed": false,
          "internalType": "uint256",
          "name": "minVestingPeriodInBlocks",
          "type": "uint256"
        }
      ],
      "name": "VestingPeriodChanges",
      "type": "event"
    },
    {
      "inputs": [],
      "name": "BONE",
      "outputs": [
        {
          "internalType": "uint256",
          "name": "",
          "type": "uint256"
        }
      ],
      "stateMutability": "view",
      "type": "function"
    },
    {
      "inputs": [],
      "name": "BPOW_PRECISION",
      "outputs": [
        {
          "internalType": "uint256",
          "name": "",
          "type": "uint256"
        }
      ],
      "stateMutability": "view",
      "type": "function"
    },
    {
      "inputs": [],
      "name": "EXIT_FEE",
      "outputs": [
        {
          "internalType": "uint256",
          "name": "",
          "type": "uint256"
        }
      ],
      "stateMutability": "view",
      "type": "function"
    },
    {
      "inputs": [],
      "name": "INIT_POOL_SUPPLY",
      "outputs": [
        {
          "internalType": "uint256",
          "name": "",
          "type": "uint256"
        }
      ],
      "stateMutability": "view",
      "type": "function"
    },
    {
      "inputs": [],
      "name": "MAX_BOUND_TOKENS",
      "outputs": [
        {
          "internalType": "uint256",
          "name": "",
          "type": "uint256"
        }
      ],
      "stateMutability": "view",
      "type": "function"
    },
    {
      "inputs": [],
      "name": "MAX_BPOW_BASE",
      "outputs": [
        {
          "internalType": "uint256",
          "name": "",
          "type": "uint256"
        }
      ],
      "stateMutability": "view",
      "type": "function"
    },
    {
      "inputs": [],
      "name": "MAX_FEE",
      "outputs": [
        {
          "internalType": "uint256",
          "name": "",
          "type": "uint256"
        }
      ],
      "stateMutability": "view",
      "type": "function"
    },
    {
      "inputs": [],
      "name": "MAX_IN_RATIO",
      "outputs": [
        {
          "internalType": "uint256",
          "name": "",
          "type": "uint256"
        }
      ],
      "stateMutability": "view",
      "type": "function"
    },
    {
      "inputs": [],
      "name": "MAX_OUT_RATIO",
      "outputs": [
        {
          "internalType": "uint256",
          "name": "",
          "type": "uint256"
        }
      ],
      "stateMutability": "view",
      "type": "function"
    },
    {
      "inputs": [],
      "name": "MAX_TOTAL_WEIGHT",
      "outputs": [
        {
          "internalType": "uint256",
          "name": "",
          "type": "uint256"
        }
      ],
      "stateMutability": "view",
      "type": "function"
    },
    {
      "inputs": [],
      "name": "MAX_WEIGHT",
      "outputs": [
        {
          "internalType": "uint256",
          "name": "",
          "type": "uint256"
        }
      ],
      "stateMutability": "view",
      "type": "function"
    },
    {
      "inputs": [],
      "name": "MIN_BALANCE",
      "outputs": [
        {
          "internalType": "uint256",
          "name": "",
          "type": "uint256"
        }
      ],
      "stateMutability": "view",
      "type": "function"
    },
    {
      "inputs": [],
      "name": "MIN_BOUND_TOKENS",
      "outputs": [
        {
          "internalType": "uint256",
          "name": "",
          "type": "uint256"
        }
      ],
      "stateMutability": "view",
      "type": "function"
    },
    {
      "inputs": [],
      "name": "MIN_BPOW_BASE",
      "outputs": [
        {
          "internalType": "uint256",
          "name": "",
          "type": "uint256"
        }
      ],
      "stateMutability": "view",
      "type": "function"
    },
    {
      "inputs": [],
      "name": "MIN_FEE",
      "outputs": [
        {
          "internalType": "uint256",
          "name": "",
          "type": "uint256"
        }
      ],
      "stateMutability": "view",
      "type": "function"
    },
    {
      "inputs": [],
      "name": "MIN_WEIGHT",
      "outputs": [
        {
          "internalType": "uint256",
          "name": "",
          "type": "uint256"
        }
      ],
      "stateMutability": "view",
      "type": "function"
    },
    {
      "inputs": [
        {
          "internalType": "address",
          "name": "_dispenser",
          "type": "address"
        }
      ],
      "name": "addDispenserContract",
      "outputs": [],
      "stateMutability": "nonpayable",
      "type": "function"
    },
    {
      "inputs": [
        {
          "internalType": "address",
          "name": "_factory",
          "type": "address"
        }
      ],
      "name": "addFactory",
      "outputs": [],
      "stateMutability": "nonpayable",
      "type": "function"
    },
    {
      "inputs": [
        {
          "internalType": "address",
          "name": "_fixedRate",
          "type": "address"
        }
      ],
      "name": "addFixedRateContract",
      "outputs": [],
      "stateMutability": "nonpayable",
      "type": "function"
    },
    {
      "inputs": [
        {
          "internalType": "address",
          "name": "oceanTokenAddress",
          "type": "address"
        }
      ],
      "name": "addOceanToken",
      "outputs": [],
      "stateMutability": "nonpayable",
      "type": "function"
    },
    {
      "inputs": [
        {
          "internalType": "address",
          "name": "poolTemplate",
          "type": "address"
        }
      ],
      "name": "addPoolTemplate",
      "outputs": [],
      "stateMutability": "nonpayable",
      "type": "function"
    },
    {
      "inputs": [
        {
          "internalType": "address",
          "name": "_ssContract",
          "type": "address"
        }
      ],
      "name": "addSSContract",
      "outputs": [],
      "stateMutability": "nonpayable",
      "type": "function"
    },
    {
      "inputs": [
        {
          "components": [
            {
              "internalType": "bytes32",
              "name": "exchangeIds",
              "type": "bytes32"
            },
            {
              "internalType": "address",
              "name": "source",
              "type": "address"
            },
            {
              "internalType": "enum FactoryRouter.operationType",
              "name": "operation",
              "type": "uint8"
            },
            {
              "internalType": "address",
              "name": "tokenIn",
              "type": "address"
            },
            {
              "internalType": "uint256",
              "name": "amountsIn",
              "type": "uint256"
            },
            {
              "internalType": "address",
              "name": "tokenOut",
              "type": "address"
            },
            {
              "internalType": "uint256",
              "name": "amountsOut",
              "type": "uint256"
            },
            {
              "internalType": "uint256",
              "name": "maxPrice",
              "type": "uint256"
            },
            {
              "internalType": "uint256",
              "name": "swapMarketFee",
              "type": "uint256"
            },
            {
              "internalType": "address",
              "name": "marketFeeAddress",
              "type": "address"
            }
          ],
          "internalType": "struct FactoryRouter.Operations[]",
          "name": "_operations",
          "type": "tuple[]"
        }
      ],
      "name": "buyDTBatch",
      "outputs": [],
      "stateMutability": "nonpayable",
      "type": "function"
    },
    {
      "inputs": [
        {
          "internalType": "address",
          "name": "_routerOwner",
          "type": "address"
        }
      ],
      "name": "changeRouterOwner",
      "outputs": [],
      "stateMutability": "nonpayable",
      "type": "function"
    },
    {
      "inputs": [],
      "name": "consumeFee",
      "outputs": [
        {
          "internalType": "uint256",
          "name": "",
          "type": "uint256"
        }
      ],
      "stateMutability": "view",
      "type": "function"
    },
    {
      "inputs": [
        {
          "internalType": "address",
          "name": "_dispenser",
          "type": "address"
        },
        {
          "internalType": "address",
          "name": "datatoken",
          "type": "address"
        },
        {
          "internalType": "uint256",
          "name": "maxTokens",
          "type": "uint256"
        },
        {
          "internalType": "uint256",
          "name": "maxBalance",
          "type": "uint256"
        },
        {
          "internalType": "address",
          "name": "owner",
          "type": "address"
        },
        {
          "internalType": "address",
          "name": "allowedSwapper",
          "type": "address"
        }
      ],
      "name": "deployDispenser",
      "outputs": [],
      "stateMutability": "nonpayable",
      "type": "function"
    },
    {
      "inputs": [
        {
          "internalType": "address",
          "name": "fixedPriceAddress",
          "type": "address"
        },
        {
          "internalType": "address[]",
          "name": "addresses",
          "type": "address[]"
        },
        {
          "internalType": "uint256[]",
          "name": "uints",
          "type": "uint256[]"
        }
      ],
      "name": "deployFixedRate",
      "outputs": [
        {
          "internalType": "bytes32",
          "name": "exchangeId",
          "type": "bytes32"
        }
      ],
      "stateMutability": "nonpayable",
      "type": "function"
    },
    {
      "inputs": [
        {
          "internalType": "address[2]",
          "name": "tokens",
          "type": "address[2]"
        },
        {
          "internalType": "uint256[]",
          "name": "ssParams",
          "type": "uint256[]"
        },
        {
          "internalType": "uint256[]",
          "name": "swapFees",
          "type": "uint256[]"
        },
        {
          "internalType": "address[]",
          "name": "addresses",
          "type": "address[]"
        }
      ],
      "name": "deployPool",
      "outputs": [
        {
          "internalType": "address",
          "name": "",
          "type": "address"
        }
      ],
      "stateMutability": "nonpayable",
      "type": "function"
    },
    {
      "inputs": [
        {
          "internalType": "uint256",
          "name": "",
          "type": "uint256"
        }
      ],
      "name": "dispensers",
      "outputs": [
        {
          "internalType": "address",
          "name": "",
          "type": "address"
        }
      ],
      "stateMutability": "view",
      "type": "function"
    },
    {
      "inputs": [],
      "name": "factory",
      "outputs": [
        {
          "internalType": "address",
          "name": "",
          "type": "address"
        }
      ],
      "stateMutability": "view",
      "type": "function"
    },
    {
      "inputs": [],
      "name": "fixedRate",
      "outputs": [
        {
          "internalType": "address",
          "name": "",
          "type": "address"
        }
      ],
      "stateMutability": "view",
      "type": "function"
    },
    {
      "inputs": [
        {
          "internalType": "uint256",
          "name": "",
          "type": "uint256"
        }
      ],
      "name": "fixedrates",
      "outputs": [
        {
          "internalType": "address",
          "name": "",
          "type": "address"
        }
      ],
      "stateMutability": "view",
      "type": "function"
    },
    {
      "inputs": [],
      "name": "getDispensersContracts",
      "outputs": [
        {
          "internalType": "address[]",
          "name": "",
          "type": "address[]"
        }
      ],
      "stateMutability": "view",
      "type": "function"
    },
    {
      "inputs": [],
      "name": "getFixedRatesContracts",
      "outputs": [
        {
          "internalType": "address[]",
          "name": "",
          "type": "address[]"
        }
      ],
      "stateMutability": "view",
      "type": "function"
    },
    {
      "inputs": [],
      "name": "getMinVestingPeriod",
      "outputs": [
        {
          "internalType": "uint256",
          "name": "",
          "type": "uint256"
        }
      ],
      "stateMutability": "view",
      "type": "function"
    },
    {
      "inputs": [],
      "name": "getOPCConsumeFee",
      "outputs": [
        {
          "internalType": "uint256",
          "name": "",
          "type": "uint256"
        }
      ],
      "stateMutability": "view",
      "type": "function"
    },
    {
      "inputs": [
        {
          "internalType": "address",
          "name": "baseToken",
          "type": "address"
        }
      ],
      "name": "getOPCFee",
      "outputs": [
        {
          "internalType": "uint256",
          "name": "",
          "type": "uint256"
        }
      ],
      "stateMutability": "view",
      "type": "function"
    },
    {
      "inputs": [],
      "name": "getOPCFees",
      "outputs": [
        {
          "internalType": "uint256",
          "name": "",
          "type": "uint256"
        },
        {
          "internalType": "uint256",
          "name": "",
          "type": "uint256"
        }
      ],
      "stateMutability": "view",
      "type": "function"
    },
    {
      "inputs": [],
      "name": "getOPCProviderFee",
      "outputs": [
        {
          "internalType": "uint256",
          "name": "",
          "type": "uint256"
        }
      ],
      "stateMutability": "view",
      "type": "function"
    },
    {
      "inputs": [],
      "name": "getOceanTokens",
      "outputs": [
        {
          "internalType": "address[]",
          "name": "",
          "type": "address[]"
        }
      ],
      "stateMutability": "view",
      "type": "function"
    },
    {
      "inputs": [],
      "name": "getPoolTemplates",
      "outputs": [
        {
          "internalType": "address[]",
          "name": "",
          "type": "address[]"
        }
      ],
      "stateMutability": "view",
      "type": "function"
    },
    {
      "inputs": [],
      "name": "getSSContracts",
      "outputs": [
        {
          "internalType": "address[]",
          "name": "",
          "type": "address[]"
        }
      ],
      "stateMutability": "view",
      "type": "function"
    },
    {
      "inputs": [
        {
          "internalType": "address",
          "name": "_dispenser",
          "type": "address"
        }
      ],
      "name": "isDispenserContract",
      "outputs": [
        {
          "internalType": "bool",
          "name": "",
          "type": "bool"
        }
      ],
      "stateMutability": "view",
      "type": "function"
    },
    {
      "inputs": [
        {
          "internalType": "address",
          "name": "_fixedRate",
          "type": "address"
        }
      ],
      "name": "isFixedRateContract",
      "outputs": [
        {
          "internalType": "bool",
          "name": "",
          "type": "bool"
        }
      ],
      "stateMutability": "view",
      "type": "function"
    },
    {
      "inputs": [
        {
          "internalType": "address",
          "name": "oceanTokenAddress",
          "type": "address"
        }
      ],
      "name": "isOceanToken",
      "outputs": [
        {
          "internalType": "bool",
          "name": "",
          "type": "bool"
        }
      ],
      "stateMutability": "view",
      "type": "function"
    },
    {
      "inputs": [
        {
          "internalType": "address",
          "name": "poolTemplate",
          "type": "address"
        }
      ],
      "name": "isPoolTemplate",
      "outputs": [
        {
          "internalType": "bool",
          "name": "",
          "type": "bool"
        }
      ],
      "stateMutability": "view",
      "type": "function"
    },
    {
      "inputs": [
        {
          "internalType": "address",
          "name": "_ssContract",
          "type": "address"
        }
      ],
      "name": "isSSContract",
      "outputs": [
        {
          "internalType": "bool",
          "name": "",
          "type": "bool"
        }
      ],
      "stateMutability": "view",
      "type": "function"
    },
    {
      "inputs": [],
      "name": "minVestingPeriodInBlocks",
      "outputs": [
        {
          "internalType": "uint256",
          "name": "",
          "type": "uint256"
        }
      ],
      "stateMutability": "view",
      "type": "function"
    },
    {
      "inputs": [
        {
          "internalType": "uint256",
          "name": "",
          "type": "uint256"
        }
      ],
      "name": "oceanTokens",
      "outputs": [
        {
          "internalType": "address",
          "name": "",
          "type": "address"
        }
      ],
      "stateMutability": "view",
      "type": "function"
    },
    {
      "inputs": [],
      "name": "opcCollector",
      "outputs": [
        {
          "internalType": "address",
          "name": "",
          "type": "address"
        }
      ],
      "stateMutability": "view",
      "type": "function"
    },
    {
      "inputs": [
        {
          "internalType": "uint256",
          "name": "",
          "type": "uint256"
        }
      ],
      "name": "poolTemplates",
      "outputs": [
        {
          "internalType": "address",
          "name": "",
          "type": "address"
        }
      ],
      "stateMutability": "view",
      "type": "function"
    },
    {
      "inputs": [],
      "name": "providerFee",
      "outputs": [
        {
          "internalType": "uint256",
          "name": "",
          "type": "uint256"
        }
      ],
      "stateMutability": "view",
      "type": "function"
    },
    {
      "inputs": [
        {
          "internalType": "address",
          "name": "_dispenser",
          "type": "address"
        }
      ],
      "name": "removeDispenserContract",
      "outputs": [],
      "stateMutability": "nonpayable",
      "type": "function"
    },
    {
      "inputs": [
        {
          "internalType": "address",
          "name": "_fixedRate",
          "type": "address"
        }
      ],
      "name": "removeFixedRateContract",
      "outputs": [],
      "stateMutability": "nonpayable",
      "type": "function"
    },
    {
      "inputs": [
        {
          "internalType": "address",
          "name": "oceanTokenAddress",
          "type": "address"
        }
      ],
      "name": "removeOceanToken",
      "outputs": [],
      "stateMutability": "nonpayable",
      "type": "function"
    },
    {
      "inputs": [
        {
          "internalType": "address",
          "name": "poolTemplate",
          "type": "address"
        }
      ],
      "name": "removePoolTemplate",
      "outputs": [],
      "stateMutability": "nonpayable",
      "type": "function"
    },
    {
      "inputs": [
        {
          "internalType": "address",
          "name": "_ssContract",
          "type": "address"
        }
      ],
      "name": "removeSSContract",
      "outputs": [],
      "stateMutability": "nonpayable",
      "type": "function"
    },
    {
      "inputs": [],
      "name": "routerOwner",
      "outputs": [
        {
          "internalType": "address",
          "name": "",
          "type": "address"
        }
      ],
      "stateMutability": "view",
      "type": "function"
    },
    {
      "inputs": [
        {
          "internalType": "uint256",
          "name": "",
          "type": "uint256"
        }
      ],
      "name": "ssContracts",
      "outputs": [
        {
          "internalType": "address",
          "name": "",
          "type": "address"
        }
      ],
      "stateMutability": "view",
      "type": "function"
    },
    {
      "inputs": [
        {
          "components": [
            {
              "internalType": "address",
              "name": "poolAddress",
              "type": "address"
            },
            {
              "internalType": "uint256",
              "name": "tokenAmountIn",
              "type": "uint256"
            },
            {
              "internalType": "uint256",
              "name": "minPoolAmountOut",
              "type": "uint256"
            }
          ],
          "internalType": "struct FactoryRouter.Stakes[]",
          "name": "_stakes",
          "type": "tuple[]"
        }
      ],
      "name": "stakeBatch",
      "outputs": [],
      "stateMutability": "nonpayable",
      "type": "function"
    },
    {
      "inputs": [],
      "name": "swapNonOceanFee",
      "outputs": [
        {
          "internalType": "uint256",
          "name": "",
          "type": "uint256"
        }
      ],
      "stateMutability": "view",
      "type": "function"
    },
    {
      "inputs": [],
      "name": "swapOceanFee",
      "outputs": [
        {
          "internalType": "uint256",
          "name": "",
          "type": "uint256"
        }
      ],
      "stateMutability": "view",
      "type": "function"
    },
    {
      "inputs": [
        {
          "internalType": "uint256",
          "name": "_newPeriod",
          "type": "uint256"
        }
      ],
      "name": "updateMinVestingPeriod",
      "outputs": [],
      "stateMutability": "nonpayable",
      "type": "function"
    },
    {
      "inputs": [
        {
          "internalType": "uint256",
          "name": "_newSwapOceanFee",
          "type": "uint256"
        },
        {
          "internalType": "uint256",
          "name": "_newSwapNonOceanFee",
          "type": "uint256"
        },
        {
          "internalType": "uint256",
          "name": "_newConsumeFee",
          "type": "uint256"
        },
        {
          "internalType": "uint256",
          "name": "_newProviderFee",
          "type": "uint256"
        }
      ],
      "name": "updateOPCFee",
      "outputs": [],
      "stateMutability": "nonpayable",
      "type": "function"
    }
  ],
  "bytecode": "0x60806040526225049060055566038d7ea4c6800060065566071afd498d0000600755666a94d74f43000060085560006009553480156200003e57600080fd5b5060405162004fea38038062004fea83398101604081905262000061916200060f565b8282826001600160a01b038316620000d65760405162461bcd60e51b815260206004820152602d60248201527f42466163746f72793a20696e76616c69642062706f6f6c2074656d706c61746560448201526c207a65726f206164647265737360981b60648201526084015b60405180910390fd5b6001600160a01b0382166200012e5760405162461bcd60e51b815260206004820152601660248201527f42466163746f72793a207a65726f2061646472657373000000000000000000006044820152606401620000cd565b600080546001600160a01b0319166001600160a01b03841617905562000154836200037f565b805115620002035760005b8151811015620002015760006001600160a01b0316336001600160a01b03168383815181106200019357620001936200072f565b602090810291909101810151604080516000808252938101849052908101929092526001600160a01b0316907fbb6121447d29a04cc37bfd93cdf6a9dd08229f2d941116c1528f04698c4e790e9060600160405180910390a480620001f88162000745565b9150506200015f565b505b5050506001600160a01b0385166200026a5760405162461bcd60e51b815260206004820152602360248201527f466163746f7279526f757465723a20496e76616c696420726f75746572206f776044820152623732b960e91b6064820152608401620000cd565b6001600160a01b038216620002ce5760405162461bcd60e51b815260206004820152602360248201527f466163746f7279526f757465723a20496e76616c6964206f7063436f6c6c65636044820152623a37b960e91b6064820152608401620000cd565b6001600160a01b038416620003395760405162461bcd60e51b815260206004820152602a60248201527f466163746f7279526f757465723a20496e76616c6964204f6365616e20546f6b604482015269656e206164647265737360b01b6064820152608401620000cd565b600280546001600160a01b038088166001600160a01b0319928316179092556000805492851692909116919091179055620003748462000476565b50505050506200076f565b6001600160a01b038116620003eb5760405162461bcd60e51b815260206004820152602b60248201527f466163746f7279526f757465723a20496e76616c696420706f6f6c54656d706c60448201526a617465206164647265737360a81b6064820152608401620000cd565b620003f68162000501565b620004735760018054808201825560009182527fb10e2d527612073b26eecdfd717e6a320cf44b4afac2b0732d9fcbe2b7fa0cf60180546001600160a01b0319166001600160a01b038416908117909155604051909133917fc3674c32cbec94fe266aab7ef71f65b9bf77e1ed501d4f2bece8752f5352e9ac9190a35b50565b620004818162000573565b6200047357600a805460018101825560009182527fc65a7bb8d6351c1cf70c95a316cc6a92839c986682d98bc35f958f4883f9d2a80180546001600160a01b0319166001600160a01b038416908117909155604051909133917fdffbd9ded1c09446f09377de547142dcce7dc541c8b0b028142b1eba7026b9e79190a350565b6000805b6001548110156200056a57826001600160a01b0316600182815481106200053057620005306200072f565b6000918252602090912001546001600160a01b03161415620005555750600192915050565b80620005618162000745565b91505062000505565b50600092915050565b6000805b600a548110156200056a57826001600160a01b0316600a8281548110620005a257620005a26200072f565b6000918252602090912001546001600160a01b03161415620005c75750600192915050565b80620005d38162000745565b91505062000577565b80516001600160a01b0381168114620005f457600080fd5b919050565b634e487b7160e01b600052604160045260246000fd5b600080600080600060a086880312156200062857600080fd5b6200063386620005dc565b9450602062000644818801620005dc565b94506200065460408801620005dc565b93506200066460608801620005dc565b60808801519093506001600160401b03808211156200068257600080fd5b818901915089601f8301126200069757600080fd5b815181811115620006ac57620006ac620005f9565b8060051b604051601f19603f83011681018181108582111715620006d457620006d4620005f9565b60405291825284820192508381018501918c831115620006f357600080fd5b938501935b828510156200071c576200070c85620005dc565b84529385019392850192620006f8565b8096505050505050509295509295909350565b634e487b7160e01b600052603260045260246000fd5b60006000198214156200076857634e487b7160e01b600052601160045260246000fd5b5060010190565b61486b806200077f6000396000f3fe608060405234801561001057600080fd5b50600436106103d05760003560e01c8063992e2a92116101ff578063c6580d121161011a578063e2bdeefa116100ad578063ecdda5881161007c578063ecdda58814610750578063ee3bc63514610763578063fca24bc614610776578063fdaa59bf1461078957600080fd5b8063e2bdeefa1461072c578063e4a28a521461041a578063e525f99c14610735578063ec0930211461074857600080fd5b8063dce2d0df116100e9578063dce2d0df146106e2578063de9a95a7146106fd578063e183fb3f14610710578063e193faad1461071957600080fd5b8063c6580d12146106b5578063c6e983d9146106bd578063cb870cbf146106c6578063d629a00a146106cf57600080fd5b8063b8421e2b11610192578063bfa04b8511610161578063bfa04b851461067c578063c07c00fe1461068f578063c36596a6146104a9578063c45a0155146106a257600080fd5b8063b8421e2b14610651578063ba019dab14610664578063bc063e1a1461066c578063bc694ea21461067457600080fd5b8063b0e0d136116101ce578063b0e0d13614610623578063b19aaac61461062b578063b66806fb1461063e578063b7b800a41461062357600080fd5b8063992e2a92146105ed5780639bc01b3c146105f55780639cdfa6ad146105fd5780639f2c010a1461061057600080fd5b806350cbbe76116102ef5780637cbf85bf116102825780638552730a116102515780638552730a146105b7578063858ab596146105ca578063867378c5146105dd5780639381cd2b146105e557600080fd5b80637cbf85bf146105765780637d28354d14610589578063802d14221461059157806382449375146105a457600080fd5b80636cdf90a1116102be5780636cdf90a114610540578063737e5ca0146105535780637521aff91461055b57806376c7a3c71461056e57600080fd5b806350cbbe761461050a578063510f34651461051d5780636c45e881146105255780636c9fb6121461052d57600080fd5b8063189d00ca11610367578063335b7fa211610336578063335b7fa2146104d357806346104ea8146104e6578063475030c0146104ee57806347e14094146104f757600080fd5b8063189d00ca146104a1578063218b5382146104a9578063241c7a6d146104b857806329ce1ec5146104c057600080fd5b806315c25dd5116103a357806315c25dd51461045357806315d4c9eb14610466578063165926141461047b57806316d9cb3d1461048e57600080fd5b80630318ad66146103d557806303814238146103ea57806309a3bbe41461041a5780631184e8d914610430575b600080fd5b6103e86103e3366004613d7a565b61079c565b005b6000546103fd906001600160a01b031681565b6040516001600160a01b0390911681526020015b60405180910390f35b6104226107db565b604051908152602001610411565b61044361043e366004613d7a565b6107f1565b6040519015158152602001610411565b610443610461366004613d7a565b61085b565b61046e6108bc565b6040516104119190613d97565b6103e8610489366004613d7a565b61091e565b6103e861049c366004613d7a565b610ae0565b610422610bb8565b610422670de0b6b3a764000081565b61046e610bcf565b6103e86104ce366004613d7a565b610c2f565b6103fd6104e1366004613de4565b610d5a565b61046e610d84565b61042260055481565b6103e8610505366004613d7a565b610de4565b6103fd610518366004613de4565b610fa5565b600554610422565b600954610422565b6103e861053b366004613d7a565b610fb5565b61044361054e366004613d7a565b61108d565b61046e6110ee565b6103e8610569366004613de4565b61114e565b6104226111b5565b6103fd610584366004613de4565b6111c9565b600854610422565b6004546103fd906001600160a01b031681565b6104226105b2366004613e49565b6111d9565b6002546103fd906001600160a01b031681565b6103e86105d8366004613ecc565b61134b565b6104226117f4565b61042261180b565b61042261181e565b61046e61183c565b6103e861060b366004613d7a565b61189c565b6103e861061e366004613d7a565b611aa0565b610422600281565b6103e8610639366004613d7a565b611c61565b6103fd61064c366004613de4565b611c94565b61042261065f366004613d7a565b611ca4565b610422600181565b610422611cc9565b610422611cdc565b6103e861068a366004613f41565b611cfb565b61044361069d366004613d7a565b611d89565b6003546103fd906001600160a01b031681565b610422600081565b61042260095481565b61042260075481565b6103e86106dd366004613f73565b611dea565b60065460075460408051928352602083019190915201610411565b6103e861070b366004613d7a565b611f5a565b61042260065481565b6103e8610727366004613d7a565b612032565b61042260085481565b6103e8610743366004613d7a565b612065565b610422612131565b6103e861075e366004613fe3565b612144565b6103fd610771366004614047565b612ce6565b610443610784366004613d7a565b613088565b6103fd610797366004613de4565b6130e9565b6002546001600160a01b031633146107cf5760405162461bcd60e51b81526004016107c6906140f7565b60405180910390fd5b6107d8816130f9565b50565b6107ee670de0b6b3a7640000603261413d565b81565b6000805b600a5481101561085257826001600160a01b0316600a828154811061081c5761081c61415c565b6000918252602090912001546001600160a01b031614156108405750600192915050565b8061084a81614172565b9150506107f5565b50600092915050565b6000805b600b5481101561085257826001600160a01b0316600b82815481106108865761088661415c565b6000918252602090912001546001600160a01b031614156108aa5750600192915050565b806108b481614172565b91505061085f565b6060600d80548060200260200160405190810160405280929190818152602001828054801561091457602002820191906000526020600020905b81546001600160a01b031681526001909101906020018083116108f6575b5050505050905090565b6002546001600160a01b031633146109485760405162461bcd60e51b81526004016107c6906140f7565b6001600160a01b03811661096e5760405162461bcd60e51b81526004016107c69061418d565b60005b600d548110156109ca57816001600160a01b0316600d82815481106109985761099861415c565b6000918252602090912001546001600160a01b031614156109b8576109ca565b806109c281614172565b915050610971565b600d54811015610adc57805b600d546109e5906001906141d6565b811015610a7057600d6109f98260016141ed565b81548110610a0957610a0961415c565b600091825260209091200154600d80546001600160a01b039092169183908110610a3557610a3561415c565b600091825260209091200180546001600160a01b0319166001600160a01b039290921691909117905580610a6881614172565b9150506109d6565b50600d805480610a8257610a82614205565b600082815260208120820160001990810180546001600160a01b03191690559091019091556040516001600160a01b0384169133917f63fe522dcdc5f006279afe8840a87398bb3d0dbb906b848866195859621908b39190a35b5050565b6002546001600160a01b03163314610b0a5760405162461bcd60e51b81526004016107c6906140f7565b6001600160a01b038116610b305760405162461bcd60e51b81526004016107c69061421b565b610b398161108d565b6107d857600c805460018101825560009182527fdf6966c971051c3d54ec59162606531493a51404a002842f56009d7e5cf4a8c70180546001600160a01b0319166001600160a01b038416908117909155604051909133917f45ccb9b9d6b112eb7a38daf6a23bda8b4c8449d5cf64a034975a5beb8cdd37b39190a350565b6107ee6402540be400670de0b6b3a7640000614264565b60606001805480602002602001604051908101604052809291908181526020018280548015610914576020028201919060005260206000209081546001600160a01b031681526001909101906020018083116108f6575050505050905090565b6002546001600160a01b03163314610c595760405162461bcd60e51b81526004016107c6906140f7565b6001600160a01b038116610cbf5760405162461bcd60e51b815260206004820152602760248201527f466163746f7279526f757465723a20496e76616c6964205f666163746f7279206044820152666164647265737360c81b60648201526084016107c6565b6003546001600160a01b031615610d0e5760405162461bcd60e51b8152602060048201526013602482015272119050d513d49648105314915051164814d155606a1b60448201526064016107c6565b600380546001600160a01b0319166001600160a01b03831690811790915560405133907f1f869f1ddaa0e2e3652252b3394c05c805f54a0d5f7fb6975f785ae4f91e587190600090a350565b600d8181548110610d6a57600080fd5b6000918252602090912001546001600160a01b0316905081565b6060600c805480602002602001604051908101604052809291908181526020018280548015610914576020028201919060005260206000209081546001600160a01b031681526001909101906020018083116108f6575050505050905090565b6002546001600160a01b03163314610e0e5760405162461bcd60e51b81526004016107c6906140f7565b6001600160a01b038116610e345760405162461bcd60e51b81526004016107c690614286565b60005b600b54811015610e9057816001600160a01b0316600b8281548110610e5e57610e5e61415c565b6000918252602090912001546001600160a01b03161415610e7e57610e90565b80610e8881614172565b915050610e37565b600b54811015610adc57805b600b54610eab906001906141d6565b811015610f3657600b610ebf8260016141ed565b81548110610ecf57610ecf61415c565b600091825260209091200154600b80546001600160a01b039092169183908110610efb57610efb61415c565b600091825260209091200180546001600160a01b0319166001600160a01b039290921691909117905580610f2e81614172565b915050610e9c565b50600b805480610f4857610f48614205565b600082815260208120820160001990810180546001600160a01b03191690559091019091556040516001600160a01b0384169133917f7df5d17d768be6563796784637c80bc9204e2af0bc4ba8630f5aa2fed96ea4879190a35050565b60018181548110610d6a57600080fd5b6002546001600160a01b03163314610fdf5760405162461bcd60e51b81526004016107c6906140f7565b6001600160a01b0381166110055760405162461bcd60e51b81526004016107c690614286565b61100e8161085b565b6107d857600b805460018101825560009182527f0175b7a638427703f0dbe7bb9bbf987a2551717b34e79f33b5b1008d1fa01db90180546001600160a01b0319166001600160a01b038416908117909155604051909133917fcef3ce01f85c030161b431114e41e463297b68f169c1013c526b1cbc5747e5449190a350565b6000805b600c5481101561085257826001600160a01b0316600c82815481106110b8576110b861415c565b6000918252602090912001546001600160a01b031614156110dc5750600192915050565b806110e681614172565b915050611091565b6060600b805480602002602001604051908101604052809291908181526020018280548015610914576020028201919060005260206000209081546001600160a01b031681526001909101906020018083116108f6575050505050905090565b6002546001600160a01b031633146111785760405162461bcd60e51b81526004016107c6906140f7565b600581905560405181815233907f5ee73342e684c0b848562c301fa2dc6b0146b266cfa12d4219fb04b316f7a4759060200160405180910390a250565b6107ee612710670de0b6b3a7640000614264565b600b8181548110610d6a57600080fd5b60035460405163226e761560e01b81523360048201526000916001600160a01b03169063226e761590602401602060405180830381865afa158015611222573d6000803e3d6000fd5b505050506040513d601f19601f8201168201806040525081019061124691906142e0565b6112625760405162461bcd60e51b81526004016107c6906142fb565b61126b8661108d565b6112ca5760405162461bcd60e51b815260206004820152602a60248201527f464143544f525920524f555445523a20496e76616c696420466978656450726960448201526918d950dbdb9d1c9858dd60b21b60648201526084016107c6565b60405163012c327560e01b81526001600160a01b0387169063012c3275906112fe9033908990899089908990600401614346565b6020604051808303816000875af115801561131d573d6000803e3d6000fd5b505050506040513d601f19601f8201168201806040525081019061134191906143d5565b9695505050505050565b603281111561136c5760405162461bcd60e51b81526004016107c6906143ee565b60005b818110156117ef57600083838381811061138b5761138b61415c565b6113a19260206060909202019081019150613d7a565b6001600160a01b0316634df947d06040518163ffffffff1660e01b8152600401602060405180830381865afa1580156113de573d6000803e3d6000fd5b505050506040513d601f19601f820116820180604052508101906114029190614430565b905061142e60405180604001604052806008815260200167537461727420257360c01b81525083613181565b6114558133308787878181106114465761144661415c565b905060600201602001356131c6565b6114836040518060400160405280600c81526020016b676f742066756e647320257360a01b81525083613181565b60008484848181106114975761149761415c565b6114ad9260206060909202019081019150613d7a565b6040516370a0823160e01b81523060048201526001600160a01b0391909116906370a0823190602401602060405180830381865afa1580156114f3573d6000803e3d6000fd5b505050506040513d601f19601f8201168201806040525081019061151791906143d5565b905061157985858581811061152e5761152e61415c565b6115449260206060909202019081019150613d7a565b8686868181106115565761155661415c565b90506060020160200135846001600160a01b03166133149092919063ffffffff16565b600085858581811061158d5761158d61415c565b6115a39260206060909202019081019150613d7a565b6001600160a01b0316638329ab338787878181106115c3576115c361415c565b905060600201602001358888888181106115df576115df61415c565b905060600201604001356040518363ffffffff1660e01b815260040161160f929190918252602082015260400190565b6020604051808303816000875af115801561162e573d6000803e3d6000fd5b505050506040513d601f19601f8201168201806040525081019061165291906143d5565b90508585858181106116665761166661415c565b905060600201604001358110156116af5760405162461bcd60e51b815260206004820152600d60248201526c04e4f5420454e4f554748204c5609c1b60448201526064016107c6565b60008686868181106116c3576116c361415c565b6116d99260206060909202019081019150613d7a565b6040516370a0823160e01b81523060048201526001600160a01b0391909116906370a0823190602401602060405180830381865afa15801561171f573d6000803e3d6000fd5b505050506040513d601f19601f8201168201806040525081019061174391906143d5565b905061176960405180606001604052806029815260200161480d602991398683866133ff565b6117af336117778386613448565b8989898181106117895761178961415c565b61179f9260206060909202019081019150613d7a565b6001600160a01b0316919061345b565b6117d860405180604001604052806007815260200166446f6e6520257360c81b81525086613181565b5050505080806117e790614172565b91505061136f565b505050565b6107ee64e8d4a51000670de0b6b3a7640000614264565b6107ee670de0b6b3a7640000606461413d565b6118316003670de0b6b3a7640000614264565b6107ee9060016141ed565b6060600a805480602002602001604051908101604052809291908181526020018280548015610914576020028201919060005260206000209081546001600160a01b031681526001909101906020018083116108f6575050505050905090565b6002546001600160a01b031633146118c65760405162461bcd60e51b81526004016107c6906140f7565b6001600160a01b03811661192f5760405162461bcd60e51b815260206004820152602a60248201527f466163746f7279526f757465723a20496e76616c6964204f6365616e20546f6b604482015269656e206164647265737360b01b60648201526084016107c6565b60005b600a5481101561198b57816001600160a01b0316600a82815481106119595761195961415c565b6000918252602090912001546001600160a01b031614156119795761198b565b8061198381614172565b915050611932565b600a54811015610adc57805b600a546119a6906001906141d6565b811015611a3157600a6119ba8260016141ed565b815481106119ca576119ca61415c565b600091825260209091200154600a80546001600160a01b0390921691839081106119f6576119f661415c565b600091825260209091200180546001600160a01b0319166001600160a01b039290921691909117905580611a2981614172565b915050611997565b50600a805480611a4357611a43614205565b600082815260208120820160001990810180546001600160a01b03191690559091019091556040516001600160a01b0384169133917fbbe55b1ff108e23e5ff1a6f5d36946eec15ec0ca0ded2bfed4cdcf697ca904609190a35050565b6002546001600160a01b03163314611aca5760405162461bcd60e51b81526004016107c6906140f7565b6001600160a01b038116611af05760405162461bcd60e51b81526004016107c69061421b565b60005b600c54811015611b4c57816001600160a01b0316600c8281548110611b1a57611b1a61415c565b6000918252602090912001546001600160a01b03161415611b3a57611b4c565b80611b4481614172565b915050611af3565b600c54811015610adc57805b600c54611b67906001906141d6565b811015611bf257600c611b7b8260016141ed565b81548110611b8b57611b8b61415c565b600091825260209091200154600c80546001600160a01b039092169183908110611bb757611bb761415c565b600091825260209091200180546001600160a01b0319166001600160a01b039290921691909117905580611bea81614172565b915050611b58565b50600c805480611c0457611c04614205565b600082815260208120820160001990810180546001600160a01b03191690559091019091556040516001600160a01b0384169133917ff1ec0697329a2e8de8cf055335547acc40fbace8712fc77aeea1ea2afbcf7e3b9190a35050565b6002546001600160a01b03163314611c8b5760405162461bcd60e51b81526004016107c6906140f7565b6107d88161348b565b600c8181548110610d6a57600080fd5b6000611caf826107f1565b15611cbc57505060065490565b505060075490565b919050565b6107ee600a670de0b6b3a7640000614264565b6001611cf1670de0b6b3a7640000600261413d565b6107ee91906141d6565b6002546001600160a01b03163314611d255760405162461bcd60e51b81526004016107c6906140f7565b600684905560078390556008829055600981905560408051858152602081018590529081018390526060810182905233907fe6171cf0506862c0a0185f8c21dca979859d4eb63186eff63f1b3dd14926be7b9060800160405180910390a250505050565b6000805b60015481101561085257826001600160a01b031660018281548110611db457611db461415c565b6000918252602090912001546001600160a01b03161415611dd85750600192915050565b80611de281614172565b915050611d8d565b60035460405163226e761560e01b81523360048201526001600160a01b039091169063226e761590602401602060405180830381865afa158015611e32573d6000803e3d6000fd5b505050506040513d601f19601f82011682018060405250810190611e5691906142e0565b611e725760405162461bcd60e51b81526004016107c6906142fb565b611e7b86613088565b611ed95760405162461bcd60e51b815260206004820152602960248201527f464143544f525920524f555445523a20496e76616c69642044697370656e73656044820152681c90dbdb9d1c9858dd60ba1b60648201526084016107c6565b6040516324ce291760e01b81526001600160a01b0386811660048301526024820186905260448201859052838116606483015282811660848301528716906324ce29179060a401600060405180830381600087803b158015611f3a57600080fd5b505af1158015611f4e573d6000803e3d6000fd5b50505050505050505050565b6002546001600160a01b03163314611f845760405162461bcd60e51b81526004016107c6906140f7565b6001600160a01b038116611faa5760405162461bcd60e51b81526004016107c69061418d565b611fb381613088565b6107d857600d805460018101825560009182527fd7b6990105719101dabeb77144f2a3385c8033acd3af97e9423a695e81ad1eb50180546001600160a01b0319166001600160a01b038416908117909155604051909133917f78be9d87a7b2c8707b044dbf5b04c3f747b692c55ec34dcd1d7357736478789c9190a350565b6002546001600160a01b0316331461205c5760405162461bcd60e51b81526004016107c6906140f7565b6107d88161357c565b6002546001600160a01b0316331461208f5760405162461bcd60e51b81526004016107c6906140f7565b6001600160a01b0381166120e55760405162461bcd60e51b815260206004820152601860248201527f496e76616c6964206e657720726f75746572206f776e6572000000000000000060448201526064016107c6565b600280546001600160a01b0319166001600160a01b03831690811790915560405133907fc736654a613824c69968e0ec25ac1a428ccd49e15c28e97b5dfd2c6059757e2a90600090a350565b6107ee6002670de0b6b3a7640000614264565b60328111156121655760405162461bcd60e51b81526004016107c6906143ee565b60005b818110156117ef576000604051806060016040528085858581811061218f5761218f61415c565b9050610140020160600160208101906121a89190613d7a565b6001600160a01b031681526020018585858181106121c8576121c861415c565b9050610140020160a00160208101906121e19190613d7a565b6001600160a01b031681526020018585858181106122015761220161415c565b9050610140020161012001602081019061221b9190613d7a565b6001600160a01b03166001600160a01b03168152509050600060405180608001604052808686868181106122515761225161415c565b905061014002016080013581526020018686868181106122735761227361415c565b9050610140020160c0013581526020018686868181106122955761229561415c565b9050610140020160e0013581526020018686868181106122b7576122b761415c565b9050610140020161010001358152509050600060038111156122db576122db61444d565b8585858181106122ed576122ed61415c565b9050610140020160400160208101906123069190614463565b60038111156123175761231761444d565b14156124ca5761236f8585858181106123325761233261415c565b90506101400201606001602081019061234b9190613d7a565b333088888881811061235f5761235f61415c565b90506101400201608001356131c6565b6123f58585858181106123845761238461415c565b90506101400201602001602081019061239d9190613d7a565b8686868181106123af576123af61415c565b90506101400201608001358787878181106123cc576123cc61415c565b9050610140020160600160208101906123e59190613d7a565b6001600160a01b03169190613314565b60008585858181106124095761240961415c565b9050610140020160200160208101906124229190613d7a565b6001600160a01b031663c421a3fc84846040518363ffffffff1660e01b815260040161244f929190614484565b60408051808303816000875af115801561246d573d6000803e3d6000fd5b505050506040513d601f19601f8201168201806040525081019061249191906144e9565b5090506124c433828888888181106124ab576124ab61415c565b9050610140020160a001602081019061179f9190613d7a565b50612cd1565b60018585858181106124de576124de61415c565b9050610140020160400160208101906124f79190614463565b60038111156125085761250861444d565b14156127fa5760008585858181106125225761252261415c565b90506101400201602001602081019061253b9190613d7a565b6001600160a01b031663caa0114887878781811061255b5761255b61415c565b9050610140020160600160208101906125749190613d7a565b8888888181106125865761258661415c565b9050610140020160a001602081019061259f9190613d7a565b8989898181106125b1576125b161415c565b9050610140020160c001358a8a8a8181106125ce576125ce61415c565b6040516001600160e01b031960e089901b1681526001600160a01b039687166004820152959094166024860152506044840191909152610100610140909202010135606482015260840160a060405180830381865afa158015612635573d6000803e3d6000fd5b505050506040513d601f19601f82011682018060405250810190612659919061450d565b509293506126999250889150879050868181106126785761267861415c565b9050610140020160600160208101906126919190613d7a565b3330846131c6565b6126da8686868181106126ae576126ae61415c565b9050610140020160200160208101906126c79190613d7a565b828888888181106123cc576123cc61415c565b60008686868181106126ee576126ee61415c565b9050610140020160200160208101906127079190613d7a565b6001600160a01b031663c98a59cf85856040518363ffffffff1660e01b8152600401612734929190614484565b60408051808303816000875af1158015612752573d6000803e3d6000fd5b505050506040513d601f19601f8201168201806040525081019061277691906144e9565b5083519091508111156127c05760405162461bcd60e51b81526020600482015260126024820152712a27a79026a0a72c902a27a5a2a7299024a760711b60448201526064016107c6565b6127f3338888888181106127d6576127d661415c565b9050610140020160c001358989898181106124ab576124ab61415c565b5050612cd1565b600285858581811061280e5761280e61415c565b9050610140020160400160208101906128279190614463565b60038111156128385761283861444d565b1415612be85760008585858181106128525761285261415c565b90506101400201602001602081019061286b9190613d7a565b6001600160a01b0316634c87087d87878781811061288b5761288b61415c565b90506101400201600001356040518263ffffffff1660e01b81526004016128b491815260200190565b61018060405180830381865afa1580156128d2573d6000803e3d6000fd5b505050506040513d601f19601f820116820180604052508101906128f6919061454d565b5050505050505050505091505060008686868181106129175761291761415c565b9050610140020160200160208101906129309190613d7a565b6001600160a01b031663dd1bc96a8888888181106129505761295061415c565b905061014002016000013589898981811061296d5761296d61415c565b9050610140020160c001358a8a8a81811061298a5761298a61415c565b6040516001600160e01b031960e088901b16815260048101959095526024850193909352506101006101409092020101356044820152606401608060405180830381865afa1580156129e0573d6000803e3d6000fd5b505050506040513d601f19601f82011682018060405250810190612a049190614601565b5050509050612a1e8787878181106126785761267861415c565b612a5f878787818110612a3357612a3361415c565b905061014002016020016020810190612a4c9190613d7a565b828989898181106123cc576123cc61415c565b868686818110612a7157612a7161415c565b905061014002016020016020810190612a8a9190613d7a565b6001600160a01b03166368c4b7e9888888818110612aaa57612aaa61415c565b9050610140020160000135898989818110612ac757612ac761415c565b9050610140020160c001358a8a8a818110612ae457612ae461415c565b90506101400201608001358b8b8b818110612b0157612b0161415c565b90506101400201610120016020810190612b1b9190613d7a565b8c8c8c818110612b2d57612b2d61415c565b6040516001600160e01b031960e08a901b168152600481019790975260248701959095525060448501929092526001600160a01b03166064840152610100610140909202010135608482015260a401600060405180830381600087803b158015612b9657600080fd5b505af1158015612baa573d6000803e3d6000fd5b505050506127f333888888818110612bc457612bc461415c565b9050610140020160c00135846001600160a01b031661345b9092919063ffffffff16565b848484818110612bfa57612bfa61415c565b905061014002016020016020810190612c139190613d7a565b6001600160a01b0316631d746d83868686818110612c3357612c3361415c565b9050610140020160a0016020810190612c4c9190613d7a565b878787818110612c5e57612c5e61415c565b60405160e086901b6001600160e01b03191681526001600160a01b03949094166004850152610140029190910160c00135602483015250336044820152606401600060405180830381600087803b158015612cb857600080fd5b505af1158015612ccc573d6000803e3d6000fd5b505050505b50508080612cde90614172565b915050612168565b60035460405163226e761560e01b81523360048201526000916001600160a01b03169063226e761590602401602060405180830381865afa158015612d2f573d6000803e3d6000fd5b505050506040513d601f19601f82011682018060405250810190612d5391906142e0565b612d6f5760405162461bcd60e51b81526004016107c6906142fb565b612d9a83836000818110612d8557612d8561415c565b90506020020160208101906104619190613d7a565b612df15760405162461bcd60e51b815260206004820152602260248201527f464143544f525920524f555445523a20696e76616c6964207373436f6e74726160448201526118dd60f21b60648201526084016107c6565b600087876001818110612e0657612e0661415c565b9050602002013511612e4b5760405162461bcd60e51b815260206004820152600e60248201526d57726f6e6720646563696d616c7360901b60448201526064016107c6565b612ecd612e5e60408a0160208b01613d7a565b84846002818110612e7157612e7161415c565b9050602002016020810190612e869190613d7a565b85856000818110612e9957612e9961415c565b9050602002016020810190612eae9190613d7a565b8a8a6004818110612ec157612ec161415c565b905060200201356131c6565b604080518082018252600091612f9091908b90600290839083908082843760009201919091525050604080516020808d0282810182019093528c82529092508c918c9182919085019084908082843760009201919091525050604080516020808d0282810182019093528c82529093508c92508b91829185019084908082843760009201919091525050604080516020808c0282810182019093528b82529093508b92508a9182918501908490808284376000920191909152506136eb92505050565b90506001600160a01b038116612fe05760405162461bcd60e51b8152602060048201526015602482015274119052531151081513c81111541313d6481413d3d3605a1b60448201526064016107c6565b612ff361043e60408b0160208c01613d7a565b1561303c57604051600181526001600160a01b038216907f90279d7790471e260411db76079630dfaa838fc987d29ae7aa7dc1bcd773ef2e9060200160405180910390a261307c565b604051600081526001600160a01b038216907f90279d7790471e260411db76079630dfaa838fc987d29ae7aa7dc1bcd773ef2e9060200160405180910390a25b98975050505050505050565b6000805b600d5481101561085257826001600160a01b0316600d82815481106130b3576130b361415c565b6000918252602090912001546001600160a01b031614156130d75750600192915050565b806130e181614172565b91505061308c565b600a8181548110610d6a57600080fd5b613102816107f1565b6107d857600a805460018101825560009182527fc65a7bb8d6351c1cf70c95a316cc6a92839c986682d98bc35f958f4883f9d2a80180546001600160a01b0319166001600160a01b038416908117909155604051909133917fdffbd9ded1c09446f09377de547142dcce7dc541c8b0b028142b1eba7026b9e79190a350565b610adc828260405160240161319792919061468f565b60408051601f198184030181529190526020810180516001600160e01b03166309710a9d60e41b179052613a26565b6040516370a0823160e01b81526001600160a01b038381166004830152600091908616906370a0823190602401602060405180830381865afa158015613210573d6000803e3d6000fd5b505050506040513d601f19601f8201168201806040525081019061323491906143d5565b905061324b6001600160a01b038616858585613a47565b6132558183613a7f565b6040516370a0823160e01b81526001600160a01b0385811660048301528716906370a0823190602401602060405180830381865afa15801561329b573d6000803e3d6000fd5b505050506040513d601f19601f820116820180604052508101906132bf91906143d5565b101561330d5760405162461bcd60e51b815260206004820152601a60248201527f5472616e7366657220616d6f756e7420697320746f6f206c6f7700000000000060448201526064016107c6565b5050505050565b604051636eb1769f60e11b81523060048201526001600160a01b038381166024830152600091839186169063dd62ed3e90604401602060405180830381865afa158015613365573d6000803e3d6000fd5b505050506040513d601f19601f8201168201806040525081019061338991906143d5565b61339391906141ed565b6040516001600160a01b0385166024820152604481018290529091506133f990859063095ea7b360e01b906064015b60408051601f198184030181529190526020810180516001600160e01b03166001600160e01b031990931692909217909152613a8b565b50505050565b6133f98484848460405160240161341994939291906146b1565b60408051601f198184030181529190526020810180516001600160e01b03166304772b3360e11b179052613a26565b600061345482846141d6565b9392505050565b6040516001600160a01b0383166024820152604481018290526117ef90849063a9059cbb60e01b906064016133c2565b6001600160a01b0381166134f55760405162461bcd60e51b815260206004820152602b60248201527f466163746f7279526f757465723a20496e76616c696420706f6f6c54656d706c60448201526a617465206164647265737360a81b60648201526084016107c6565b6134fe81611d89565b6107d85760018054808201825560009182527fb10e2d527612073b26eecdfd717e6a320cf44b4afac2b0732d9fcbe2b7fa0cf60180546001600160a01b0319166001600160a01b038416908117909155604051909133917fc3674c32cbec94fe266aab7ef71f65b9bf77e1ed501d4f2bece8752f5352e9ac9190a350565b60005b6001548110156135d857816001600160a01b0316600182815481106135a6576135a661415c565b6000918252602090912001546001600160a01b031614156135c6576135d8565b806135d081614172565b91505061357f565b600154811015610adc57805b600180546135f291906141d6565b81101561367c57600161360582826141ed565b815481106136155761361561415c565b600091825260209091200154600180546001600160a01b0390921691839081106136415761364161415c565b600091825260209091200180546001600160a01b0319166001600160a01b03929092169190911790558061367481614172565b9150506135e4565b50600180548061368e5761368e614205565b600082815260208120820160001990810180546001600160a01b03191690559091019091556040516001600160a01b0384169133917fc73fd5d40669565e257cbcd153784617ef26acfcc9fead31e68c0dce3ce82fb29190a35050565b6000613710826005815181106137035761370361415c565b6020026020010151611d89565b61375c5760405162461bcd60e51b815260206004820152601d60248201527f42466163746f72793a2057726f6e6720506f6f6c2054656d706c61746500000060448201526064016107c6565b600060405180604001604052808460048151811061377c5761377c61415c565b6020908102919091018101516001600160a01b0390811683526000541691015283519091506137c590849060059081106137b8576137b861415c565b6020026020010151613b5d565b91506001600160a01b0382166138295760405162461bcd60e51b8152602060048201526024808201527f42466163746f72793a20696e76616c69642062706f6f6c207a65726f206164646044820152637265737360e01b60648201526084016107c6565b6000829050806001600160a01b031663c070a6d8856000815181106138505761385061415c565b602002602001015130886000808d896040518863ffffffff1660e01b81526004016138819796959493929190614747565b6020604051808303816000875af11580156138a0573d6000803e3d6000fd5b505050506040513d601f19601f820116820180604052508101906138c491906142e0565b6139075760405162461bcd60e51b815260206004820152601460248201527311549497d253925512505312569157d09413d3d360621b60448201526064016107c6565b8360008151811061391a5761391a61415c565b60200260200101516001600160a01b03166383b87e5a886000600281106139435761394361415c565b6020020151896001602002015186886003815181106139645761396461415c565b60200260200101518b6040518663ffffffff1660e01b815260040161398d9594939291906147a1565b6020604051808303816000875af11580156139ac573d6000803e3d6000fd5b505050506040513d601f19601f820116820180604052508101906139d091906142e0565b613a1c5760405162461bcd60e51b815260206004820152601a60248201527f4552525f494e495449414c495a455f534944455354414b494e4700000000000060448201526064016107c6565b5050949350505050565b80516a636f6e736f6c652e6c6f67602083016000808483855afa5050505050565b6040516001600160a01b03808516602483015283166044820152606481018290526133f99085906323b872dd60e01b906084016133c2565b600061345482846141ed565b6000613ae0826040518060400160405280602081526020017f5361666545524332303a206c6f772d6c6576656c2063616c6c206661696c6564815250856001600160a01b0316613bed9092919063ffffffff16565b8051909150156117ef5780806020019051810190613afe91906142e0565b6117ef5760405162461bcd60e51b815260206004820152602a60248201527f5361666545524332303a204552433230206f7065726174696f6e20646964206e6044820152691bdd081cdd58d8d9595960b21b60648201526084016107c6565b6000808260601b9050604051733d602d80600a3d3981f3363d3d373d3d3d363d7360601b81528160148201526e5af43d82803e903d91602b57fd5bf360881b60288201526037816000f06040516001600160a01b03821681529093507f117c72e6c25f0a072e36e148df71468ce2f3dbe7defec5b2c257a6e3eb65278c915060200160405180910390a150919050565b6060613bfc8484600085613c04565b949350505050565b606082471015613c655760405162461bcd60e51b815260206004820152602660248201527f416464726573733a20696e73756666696369656e742062616c616e636520666f6044820152651c8818d85b1b60d21b60648201526084016107c6565b843b613cb35760405162461bcd60e51b815260206004820152601d60248201527f416464726573733a2063616c6c20746f206e6f6e2d636f6e747261637400000060448201526064016107c6565b600080866001600160a01b03168587604051613ccf91906147dd565b60006040518083038185875af1925050503d8060008114613d0c576040519150601f19603f3d011682016040523d82523d6000602084013e613d11565b606091505b5091509150613d21828286613d2c565b979650505050505050565b60608315613d3b575081613454565b825115613d4b5782518084602001fd5b8160405162461bcd60e51b81526004016107c691906147f9565b6001600160a01b03811681146107d857600080fd5b600060208284031215613d8c57600080fd5b813561345481613d65565b6020808252825182820181905260009190848201906040850190845b81811015613dd85783516001600160a01b031683529284019291840191600101613db3565b50909695505050505050565b600060208284031215613df657600080fd5b5035919050565b60008083601f840112613e0f57600080fd5b50813567ffffffffffffffff811115613e2757600080fd5b6020830191508360208260051b8501011115613e4257600080fd5b9250929050565b600080600080600060608688031215613e6157600080fd5b8535613e6c81613d65565b9450602086013567ffffffffffffffff80821115613e8957600080fd5b613e9589838a01613dfd565b90965094506040880135915080821115613eae57600080fd5b50613ebb88828901613dfd565b969995985093965092949392505050565b60008060208385031215613edf57600080fd5b823567ffffffffffffffff80821115613ef757600080fd5b818501915085601f830112613f0b57600080fd5b813581811115613f1a57600080fd5b866020606083028501011115613f2f57600080fd5b60209290920196919550909350505050565b60008060008060808587031215613f5757600080fd5b5050823594602084013594506040840135936060013592509050565b60008060008060008060c08789031215613f8c57600080fd5b8635613f9781613d65565b95506020870135613fa781613d65565b945060408701359350606087013592506080870135613fc581613d65565b915060a0870135613fd581613d65565b809150509295509295509295565b60008060208385031215613ff657600080fd5b823567ffffffffffffffff8082111561400e57600080fd5b818501915085601f83011261402257600080fd5b81358181111561403157600080fd5b86602061014083028501011115613f2f57600080fd5b600080600080600080600060a0888a03121561406257600080fd5b604088018981111561407357600080fd5b8897503567ffffffffffffffff8082111561408d57600080fd5b6140998b838c01613dfd565b909850965060608a01359150808211156140b257600080fd5b6140be8b838c01613dfd565b909650945060808a01359150808211156140d757600080fd5b506140e48a828b01613dfd565b989b979a50959850939692959293505050565b60208082526016908201527527b1b2b0b72937baba32b91d102727aa1027aba722a960511b604082015260600190565b634e487b7160e01b600052601160045260246000fd5b600081600019048311821515161561415757614157614127565b500290565b634e487b7160e01b600052603260045260246000fd5b600060001982141561418657614186614127565b5060010190565b60208082526029908201527f466163746f7279526f757465723a20496e76616c6964205f64697370656e736560408201526872206164647265737360b81b606082015260800190565b6000828210156141e8576141e8614127565b500390565b6000821982111561420057614200614127565b500190565b634e487b7160e01b600052603160045260246000fd5b60208082526029908201527f466163746f7279526f757465723a20496e76616c6964205f666978656452617460408201526865206164647265737360b81b606082015260800190565b60008261428157634e487b7160e01b600052601260045260246000fd5b500490565b6020808252602a908201527f466163746f7279526f757465723a20496e76616c6964205f7373436f6e7472616040820152696374206164647265737360b01b606082015260800190565b80518015158114611cc457600080fd5b6000602082840312156142f257600080fd5b613454826142d0565b6020808252602b908201527f464143544f525920524f555445523a204e4f54204f524947494e414c2045524360408201526a32302054454d504c41544560a81b606082015260800190565b6001600160a01b03868116825260606020808401829052908301869052600091879160808501845b8981101561439557843561438181613d65565b84168252938201939082019060010161436e565b5085810360408701528681526001600160fb1b038711156143b557600080fd5b8660051b9350838883830137600093010191825250979650505050505050565b6000602082840312156143e757600080fd5b5051919050565b60208082526022908201527f466163746f7279526f757465723a20546f6f204d616e79204f7065726174696f6040820152616e7360f01b606082015260800190565b60006020828403121561444257600080fd5b815161345481613d65565b634e487b7160e01b600052602160045260246000fd5b60006020828403121561447557600080fd5b81356004811061345457600080fd5b60e08101818460005b60038110156144b55781516001600160a01b031683526020928301929091019060010161448d565b505050606082018360005b60048110156144df5781518352602092830192909101906001016144c0565b5050509392505050565b600080604083850312156144fc57600080fd5b505080516020909101519092909150565b600080600080600060a0868803121561452557600080fd5b5050835160208501516040860151606087015160809097015192989197509594509092509050565b6000806000806000806000806000806000806101808d8f03121561457057600080fd5b8c5161457b81613d65565b60208e0151909c5061458c81613d65565b60408e015160608f0151919c509a506145a481613d65565b60808e015160a08f0151919a50985096506145c160c08e016142d0565b955060e08d015194506101008d015193506101208d015192506101408d015191506145ef6101608e016142d0565b90509295989b509295989b509295989b565b6000806000806080858703121561461757600080fd5b505082516020840151604085015160609095015191969095509092509050565b60005b8381101561465257818101518382015260200161463a565b838111156133f95750506000910152565b6000815180845261467b816020860160208601614637565b601f01601f19169290920160200192915050565b6040815260006146a26040830185614663565b90508260208301529392505050565b6080815260006146c46080830187614663565b6020830195909552506040810192909252606090910152919050565b600081518084526020808501945080840160005b83811015614710578151875295820195908201906001016146f4565b509495945050505050565b8060005b60028110156133f95781516001600160a01b031684526020938401939091019060010161471f565b6001600160a01b0388811682528716602082015261012060408201819052600090614774838201896146e0565b9150508515156060830152841515608083015261479460a083018561471b565b61307c60e083018461471b565b6001600160a01b038681168252858116602083015284811660408301528316606082015260a060808201819052600090613d21908301846146e0565b600082516147ef818460208701614637565b9190910192915050565b602081526000613454602083018461466356fe693a2025732c2062616c616e636541667465723a2025732c2062616c616e63654265666f7265202573a2646970667358221220d28a03e26e4f2b7ff8893a52ae2d4f9443330b379ed3bd2d679ce250b5e1558464736f6c634300080a0033",
  "linkReferences": {},
  "deployedLinkReferences": {}
}