{
  "_format": "hh-sol-artifact-1",
  "contractName": "FactoryRouter",
  "sourceName": "contracts/pools/FactoryRouter.sol",
  "abi": [
    {
      "inputs": [
        {
          "internalType": "address",
          "name": "_routerOwner",
          "type": "address"
        },
        {
          "internalType": "address",
          "name": "_oceanToken",
          "type": "address"
        },
        {
          "internalType": "address",
          "name": "_bpoolTemplate",
          "type": "address"
        },
        {
          "internalType": "address",
          "name": "_opcCollector",
          "type": "address"
        },
        {
          "internalType": "address[]",
          "name": "_preCreatedPools",
          "type": "address[]"
        }
      ],
      "stateMutability": "nonpayable",
      "type": "constructor"
    },
    {
      "anonymous": false,
      "inputs": [
        {
          "indexed": true,
          "internalType": "address",
          "name": "newBPoolAddress",
          "type": "address"
        },
        {
          "indexed": true,
          "internalType": "address",
          "name": "registeredBy",
          "type": "address"
        },
        {
          "indexed": true,
          "internalType": "address",
          "name": "datatokenAddress",
          "type": "address"
        },
        {
          "indexed": false,
          "internalType": "address",
          "name": "baseTokenAddress",
          "type": "address"
        },
        {
          "indexed": false,
          "internalType": "address",
          "name": "bpoolTemplateAddress",
          "type": "address"
        },
        {
          "indexed": false,
          "internalType": "address",
          "name": "ssAddress",
          "type": "address"
        }
      ],
      "name": "BPoolCreated",
      "type": "event"
    },
    {
      "anonymous": false,
      "inputs": [
        {
          "indexed": true,
          "internalType": "address",
          "name": "caller",
          "type": "address"
        },
        {
          "indexed": true,
          "internalType": "address",
          "name": "contractAddress",
          "type": "address"
        }
      ],
      "name": "DispenserContractAdded",
      "type": "event"
    },
    {
      "anonymous": false,
      "inputs": [
        {
          "indexed": true,
          "internalType": "address",
          "name": "caller",
          "type": "address"
        },
        {
          "indexed": true,
          "internalType": "address",
          "name": "contractAddress",
          "type": "address"
        }
      ],
      "name": "DispenserContractRemoved",
      "type": "event"
    },
    {
      "anonymous": false,
      "inputs": [
        {
          "indexed": true,
          "internalType": "address",
          "name": "caller",
          "type": "address"
        },
        {
          "indexed": true,
          "internalType": "address",
          "name": "contractAddress",
          "type": "address"
        }
      ],
      "name": "FactoryContractChanged",
      "type": "event"
    },
    {
      "anonymous": false,
      "inputs": [
        {
          "indexed": true,
          "internalType": "address",
          "name": "caller",
          "type": "address"
        },
        {
          "indexed": true,
          "internalType": "address",
          "name": "contractAddress",
          "type": "address"
        }
      ],
      "name": "FixedRateContractAdded",
      "type": "event"
    },
    {
      "anonymous": false,
      "inputs": [
        {
          "indexed": true,
          "internalType": "address",
          "name": "caller",
          "type": "address"
        },
        {
          "indexed": true,
          "internalType": "address",
          "name": "contractAddress",
          "type": "address"
        }
      ],
      "name": "FixedRateContractRemoved",
      "type": "event"
    },
    {
      "anonymous": false,
      "inputs": [
        {
          "indexed": false,
          "internalType": "address",
          "name": "instance",
          "type": "address"
        }
      ],
      "name": "InstanceDeployed",
      "type": "event"
    },
    {
      "anonymous": false,
      "inputs": [
        {
          "indexed": true,
          "internalType": "address",
          "name": "poolAddress",
          "type": "address"
        },
        {
          "indexed": false,
          "internalType": "bool",
          "name": "isOcean",
          "type": "bool"
        }
      ],
      "name": "NewPool",
      "type": "event"
    },
    {
      "anonymous": false,
      "inputs": [
        {
          "indexed": true,
          "internalType": "address",
          "name": "caller",
          "type": "address"
        },
        {
          "indexed": false,
          "internalType": "uint256",
          "name": "newSwapOceanFee",
          "type": "uint256"
        },
        {
          "indexed": false,
          "internalType": "uint256",
          "name": "newSwapNonOceanFee",
          "type": "uint256"
        },
        {
          "indexed": false,
          "internalType": "uint256",
          "name": "newConsumeFee",
          "type": "uint256"
        },
        {
          "indexed": false,
          "internalType": "uint256",
          "name": "newProviderFee",
          "type": "uint256"
        }
      ],
      "name": "OPCFeeChanged",
      "type": "event"
    },
    {
      "anonymous": false,
      "inputs": [
        {
          "indexed": true,
          "internalType": "address",
          "name": "caller",
          "type": "address"
        },
        {
          "indexed": true,
          "internalType": "address",
          "name": "contractAddress",
          "type": "address"
        }
      ],
      "name": "PoolTemplateAdded",
      "type": "event"
    },
    {
      "anonymous": false,
      "inputs": [
        {
          "indexed": true,
          "internalType": "address",
          "name": "caller",
          "type": "address"
        },
        {
          "indexed": true,
          "internalType": "address",
          "name": "contractAddress",
          "type": "address"
        }
      ],
      "name": "PoolTemplateRemoved",
      "type": "event"
    },
    {
      "anonymous": false,
      "inputs": [
        {
          "indexed": true,
          "internalType": "address",
          "name": "caller",
          "type": "address"
        },
        {
          "indexed": true,
          "internalType": "address",
          "name": "newRouter",
          "type": "address"
        }
      ],
      "name": "RouterChanged",
      "type": "event"
    },
    {
      "anonymous": false,
      "inputs": [
        {
          "indexed": true,
          "internalType": "address",
          "name": "caller",
          "type": "address"
        },
        {
          "indexed": true,
          "internalType": "address",
          "name": "contractAddress",
          "type": "address"
        }
      ],
      "name": "SSContractAdded",
      "type": "event"
    },
    {
      "anonymous": false,
      "inputs": [
        {
          "indexed": true,
          "internalType": "address",
          "name": "caller",
          "type": "address"
        },
        {
          "indexed": true,
          "internalType": "address",
          "name": "contractAddress",
          "type": "address"
        }
      ],
      "name": "SSContractRemoved",
      "type": "event"
    },
    {
      "anonymous": false,
      "inputs": [
        {
          "indexed": true,
          "internalType": "address",
          "name": "caller",
          "type": "address"
        },
        {
          "indexed": true,
          "internalType": "address",
          "name": "token",
          "type": "address"
        }
      ],
      "name": "TokenAdded",
      "type": "event"
    },
    {
      "anonymous": false,
      "inputs": [
        {
          "indexed": true,
          "internalType": "address",
          "name": "caller",
          "type": "address"
        },
        {
          "indexed": true,
          "internalType": "address",
          "name": "token",
          "type": "address"
        }
      ],
      "name": "TokenRemoved",
      "type": "event"
    },
    {
      "anonymous": false,
      "inputs": [
        {
          "indexed": true,
          "internalType": "address",
          "name": "caller",
          "type": "address"
        },
        {
          "indexed": false,
          "internalType": "uint256",
          "name": "minVestingPeriodInBlocks",
          "type": "uint256"
        }
      ],
      "name": "VestingPeriodChanges",
      "type": "event"
    },
    {
      "inputs": [],
      "name": "BONE",
      "outputs": [
        {
          "internalType": "uint256",
          "name": "",
          "type": "uint256"
        }
      ],
      "stateMutability": "view",
      "type": "function"
    },
    {
      "inputs": [],
      "name": "BPOW_PRECISION",
      "outputs": [
        {
          "internalType": "uint256",
          "name": "",
          "type": "uint256"
        }
      ],
      "stateMutability": "view",
      "type": "function"
    },
    {
      "inputs": [],
      "name": "EXIT_FEE",
      "outputs": [
        {
          "internalType": "uint256",
          "name": "",
          "type": "uint256"
        }
      ],
      "stateMutability": "view",
      "type": "function"
    },
    {
      "inputs": [],
      "name": "INIT_POOL_SUPPLY",
      "outputs": [
        {
          "internalType": "uint256",
          "name": "",
          "type": "uint256"
        }
      ],
      "stateMutability": "view",
      "type": "function"
    },
    {
      "inputs": [],
      "name": "MAX_BOUND_TOKENS",
      "outputs": [
        {
          "internalType": "uint256",
          "name": "",
          "type": "uint256"
        }
      ],
      "stateMutability": "view",
      "type": "function"
    },
    {
      "inputs": [],
      "name": "MAX_BPOW_BASE",
      "outputs": [
        {
          "internalType": "uint256",
          "name": "",
          "type": "uint256"
        }
      ],
      "stateMutability": "view",
      "type": "function"
    },
    {
      "inputs": [],
      "name": "MAX_FEE",
      "outputs": [
        {
          "internalType": "uint256",
          "name": "",
          "type": "uint256"
        }
      ],
      "stateMutability": "view",
      "type": "function"
    },
    {
      "inputs": [],
      "name": "MAX_IN_RATIO",
      "outputs": [
        {
          "internalType": "uint256",
          "name": "",
          "type": "uint256"
        }
      ],
      "stateMutability": "view",
      "type": "function"
    },
    {
      "inputs": [],
      "name": "MAX_OUT_RATIO",
      "outputs": [
        {
          "internalType": "uint256",
          "name": "",
          "type": "uint256"
        }
      ],
      "stateMutability": "view",
      "type": "function"
    },
    {
      "inputs": [],
      "name": "MAX_TOTAL_WEIGHT",
      "outputs": [
        {
          "internalType": "uint256",
          "name": "",
          "type": "uint256"
        }
      ],
      "stateMutability": "view",
      "type": "function"
    },
    {
      "inputs": [],
      "name": "MAX_WEIGHT",
      "outputs": [
        {
          "internalType": "uint256",
          "name": "",
          "type": "uint256"
        }
      ],
      "stateMutability": "view",
      "type": "function"
    },
    {
      "inputs": [],
      "name": "MIN_BALANCE",
      "outputs": [
        {
          "internalType": "uint256",
          "name": "",
          "type": "uint256"
        }
      ],
      "stateMutability": "view",
      "type": "function"
    },
    {
      "inputs": [],
      "name": "MIN_BOUND_TOKENS",
      "outputs": [
        {
          "internalType": "uint256",
          "name": "",
          "type": "uint256"
        }
      ],
      "stateMutability": "view",
      "type": "function"
    },
    {
      "inputs": [],
      "name": "MIN_BPOW_BASE",
      "outputs": [
        {
          "internalType": "uint256",
          "name": "",
          "type": "uint256"
        }
      ],
      "stateMutability": "view",
      "type": "function"
    },
    {
      "inputs": [],
      "name": "MIN_FEE",
      "outputs": [
        {
          "internalType": "uint256",
          "name": "",
          "type": "uint256"
        }
      ],
      "stateMutability": "view",
      "type": "function"
    },
    {
      "inputs": [],
      "name": "MIN_WEIGHT",
      "outputs": [
        {
          "internalType": "uint256",
          "name": "",
          "type": "uint256"
        }
      ],
      "stateMutability": "view",
      "type": "function"
    },
    {
      "inputs": [
        {
          "internalType": "address",
          "name": "tokenAddress",
          "type": "address"
        }
      ],
      "name": "addApprovedToken",
      "outputs": [],
      "stateMutability": "nonpayable",
      "type": "function"
    },
    {
      "inputs": [
        {
          "internalType": "address",
          "name": "_dispenser",
          "type": "address"
        }
      ],
      "name": "addDispenserContract",
      "outputs": [],
      "stateMutability": "nonpayable",
      "type": "function"
    },
    {
      "inputs": [
        {
          "internalType": "address",
          "name": "_factory",
          "type": "address"
        }
      ],
      "name": "addFactory",
      "outputs": [],
      "stateMutability": "nonpayable",
      "type": "function"
    },
    {
      "inputs": [
        {
          "internalType": "address",
          "name": "_fixedRate",
          "type": "address"
        }
      ],
      "name": "addFixedRateContract",
      "outputs": [],
      "stateMutability": "nonpayable",
      "type": "function"
    },
    {
      "inputs": [
        {
          "internalType": "address",
          "name": "poolTemplate",
          "type": "address"
        }
      ],
      "name": "addPoolTemplate",
      "outputs": [],
      "stateMutability": "nonpayable",
      "type": "function"
    },
    {
      "inputs": [
        {
          "internalType": "address",
          "name": "_ssContract",
          "type": "address"
        }
      ],
      "name": "addSSContract",
      "outputs": [],
      "stateMutability": "nonpayable",
      "type": "function"
    },
    {
      "inputs": [
        {
          "internalType": "uint256",
          "name": "",
          "type": "uint256"
        }
      ],
      "name": "approvedTokens",
      "outputs": [
        {
          "internalType": "address",
          "name": "",
          "type": "address"
        }
      ],
      "stateMutability": "view",
      "type": "function"
    },
    {
      "inputs": [
        {
          "components": [
            {
              "internalType": "bytes32",
              "name": "exchangeIds",
              "type": "bytes32"
            },
            {
              "internalType": "address",
              "name": "source",
              "type": "address"
            },
            {
              "internalType": "enum IFactoryRouter.operationType",
              "name": "operation",
              "type": "uint8"
            },
            {
              "internalType": "address",
              "name": "tokenIn",
              "type": "address"
            },
            {
              "internalType": "uint256",
              "name": "amountsIn",
              "type": "uint256"
            },
            {
              "internalType": "address",
              "name": "tokenOut",
              "type": "address"
            },
            {
              "internalType": "uint256",
              "name": "amountsOut",
              "type": "uint256"
            },
            {
              "internalType": "uint256",
              "name": "maxPrice",
              "type": "uint256"
            },
            {
              "internalType": "uint256",
              "name": "swapMarketFee",
              "type": "uint256"
            },
            {
              "internalType": "address",
              "name": "marketFeeAddress",
              "type": "address"
            }
          ],
          "internalType": "struct IFactoryRouter.Operations[]",
          "name": "_operations",
          "type": "tuple[]"
        }
      ],
      "name": "buyDTBatch",
      "outputs": [],
      "stateMutability": "nonpayable",
      "type": "function"
    },
    {
      "inputs": [
        {
          "internalType": "address",
          "name": "_routerOwner",
          "type": "address"
        }
      ],
      "name": "changeRouterOwner",
      "outputs": [],
      "stateMutability": "nonpayable",
      "type": "function"
    },
    {
      "inputs": [],
      "name": "consumeFee",
      "outputs": [
        {
          "internalType": "uint256",
          "name": "",
          "type": "uint256"
        }
      ],
      "stateMutability": "view",
      "type": "function"
    },
    {
      "inputs": [
        {
          "internalType": "address",
          "name": "_dispenser",
          "type": "address"
        },
        {
          "internalType": "address",
          "name": "datatoken",
          "type": "address"
        },
        {
          "internalType": "uint256",
          "name": "maxTokens",
          "type": "uint256"
        },
        {
          "internalType": "uint256",
          "name": "maxBalance",
          "type": "uint256"
        },
        {
          "internalType": "address",
          "name": "owner",
          "type": "address"
        },
        {
          "internalType": "address",
          "name": "allowedSwapper",
          "type": "address"
        }
      ],
      "name": "deployDispenser",
      "outputs": [],
      "stateMutability": "nonpayable",
      "type": "function"
    },
    {
      "inputs": [
        {
          "internalType": "address",
          "name": "fixedPriceAddress",
          "type": "address"
        },
        {
          "internalType": "address[]",
          "name": "addresses",
          "type": "address[]"
        },
        {
          "internalType": "uint256[]",
          "name": "uints",
          "type": "uint256[]"
        }
      ],
      "name": "deployFixedRate",
      "outputs": [
        {
          "internalType": "bytes32",
          "name": "exchangeId",
          "type": "bytes32"
        }
      ],
      "stateMutability": "nonpayable",
      "type": "function"
    },
    {
      "inputs": [
        {
          "internalType": "address[2]",
          "name": "tokens",
          "type": "address[2]"
        },
        {
          "internalType": "uint256[]",
          "name": "ssParams",
          "type": "uint256[]"
        },
        {
          "internalType": "uint256[]",
          "name": "swapFees",
          "type": "uint256[]"
        },
        {
          "internalType": "address[]",
          "name": "addresses",
          "type": "address[]"
        }
      ],
      "name": "deployPool",
      "outputs": [
        {
          "internalType": "address",
          "name": "",
          "type": "address"
        }
      ],
      "stateMutability": "nonpayable",
      "type": "function"
    },
    {
      "inputs": [
        {
          "internalType": "uint256",
          "name": "",
          "type": "uint256"
        }
      ],
      "name": "dispensers",
      "outputs": [
        {
          "internalType": "address",
          "name": "",
          "type": "address"
        }
      ],
      "stateMutability": "view",
      "type": "function"
    },
    {
      "inputs": [],
      "name": "factory",
      "outputs": [
        {
          "internalType": "address",
          "name": "",
          "type": "address"
        }
      ],
      "stateMutability": "view",
      "type": "function"
    },
    {
      "inputs": [],
      "name": "fixedRate",
      "outputs": [
        {
          "internalType": "address",
          "name": "",
          "type": "address"
        }
      ],
      "stateMutability": "view",
      "type": "function"
    },
    {
      "inputs": [
        {
          "internalType": "uint256",
          "name": "",
          "type": "uint256"
        }
      ],
      "name": "fixedrates",
      "outputs": [
        {
          "internalType": "address",
          "name": "",
          "type": "address"
        }
      ],
      "stateMutability": "view",
      "type": "function"
    },
    {
      "inputs": [],
      "name": "getApprovedTokens",
      "outputs": [
        {
          "internalType": "address[]",
          "name": "",
          "type": "address[]"
        }
      ],
      "stateMutability": "view",
      "type": "function"
    },
    {
      "inputs": [],
      "name": "getDispensersContracts",
      "outputs": [
        {
          "internalType": "address[]",
          "name": "",
          "type": "address[]"
        }
      ],
      "stateMutability": "view",
      "type": "function"
    },
    {
      "inputs": [],
      "name": "getFixedRatesContracts",
      "outputs": [
        {
          "internalType": "address[]",
          "name": "",
          "type": "address[]"
        }
      ],
      "stateMutability": "view",
      "type": "function"
    },
    {
      "inputs": [],
      "name": "getMinVestingPeriod",
      "outputs": [
        {
          "internalType": "uint256",
          "name": "",
          "type": "uint256"
        }
      ],
      "stateMutability": "view",
      "type": "function"
    },
    {
      "inputs": [],
      "name": "getOPCConsumeFee",
      "outputs": [
        {
          "internalType": "uint256",
          "name": "",
          "type": "uint256"
        }
      ],
      "stateMutability": "view",
      "type": "function"
    },
    {
      "inputs": [
        {
          "internalType": "address",
          "name": "baseToken",
          "type": "address"
        }
      ],
      "name": "getOPCFee",
      "outputs": [
        {
          "internalType": "uint256",
          "name": "",
          "type": "uint256"
        }
      ],
      "stateMutability": "view",
      "type": "function"
    },
    {
      "inputs": [],
      "name": "getOPCFees",
      "outputs": [
        {
          "internalType": "uint256",
          "name": "",
          "type": "uint256"
        },
        {
          "internalType": "uint256",
          "name": "",
          "type": "uint256"
        }
      ],
      "stateMutability": "view",
      "type": "function"
    },
    {
      "inputs": [],
      "name": "getOPCProviderFee",
      "outputs": [
        {
          "internalType": "uint256",
          "name": "",
          "type": "uint256"
        }
      ],
      "stateMutability": "view",
      "type": "function"
    },
    {
      "inputs": [],
      "name": "getPoolTemplates",
      "outputs": [
        {
          "internalType": "address[]",
          "name": "",
          "type": "address[]"
        }
      ],
      "stateMutability": "view",
      "type": "function"
    },
    {
      "inputs": [],
      "name": "getSSContracts",
      "outputs": [
        {
          "internalType": "address[]",
          "name": "",
          "type": "address[]"
        }
      ],
      "stateMutability": "view",
      "type": "function"
    },
    {
      "inputs": [
        {
          "internalType": "address",
          "name": "tokenAddress",
          "type": "address"
        }
      ],
      "name": "isApprovedToken",
      "outputs": [
        {
          "internalType": "bool",
          "name": "",
          "type": "bool"
        }
      ],
      "stateMutability": "view",
      "type": "function"
    },
    {
      "inputs": [
        {
          "internalType": "address",
          "name": "_dispenser",
          "type": "address"
        }
      ],
      "name": "isDispenserContract",
      "outputs": [
        {
          "internalType": "bool",
          "name": "",
          "type": "bool"
        }
      ],
      "stateMutability": "view",
      "type": "function"
    },
    {
      "inputs": [
        {
          "internalType": "address",
          "name": "_fixedRate",
          "type": "address"
        }
      ],
      "name": "isFixedRateContract",
      "outputs": [
        {
          "internalType": "bool",
          "name": "",
          "type": "bool"
        }
      ],
      "stateMutability": "view",
      "type": "function"
    },
    {
      "inputs": [
        {
          "internalType": "address",
          "name": "poolTemplate",
          "type": "address"
        }
      ],
      "name": "isPoolTemplate",
      "outputs": [
        {
          "internalType": "bool",
          "name": "",
          "type": "bool"
        }
      ],
      "stateMutability": "view",
      "type": "function"
    },
    {
      "inputs": [
        {
          "internalType": "address",
          "name": "_ssContract",
          "type": "address"
        }
      ],
      "name": "isSSContract",
      "outputs": [
        {
          "internalType": "bool",
          "name": "",
          "type": "bool"
        }
      ],
      "stateMutability": "view",
      "type": "function"
    },
    {
      "inputs": [],
      "name": "minVestingPeriodInBlocks",
      "outputs": [
        {
          "internalType": "uint256",
          "name": "",
          "type": "uint256"
        }
      ],
      "stateMutability": "view",
      "type": "function"
    },
    {
      "inputs": [],
      "name": "opcCollector",
      "outputs": [
        {
          "internalType": "address",
          "name": "",
          "type": "address"
        }
      ],
      "stateMutability": "view",
      "type": "function"
    },
    {
      "inputs": [
        {
          "internalType": "uint256",
          "name": "",
          "type": "uint256"
        }
      ],
      "name": "poolTemplates",
      "outputs": [
        {
          "internalType": "address",
          "name": "",
          "type": "address"
        }
      ],
      "stateMutability": "view",
      "type": "function"
    },
    {
      "inputs": [],
      "name": "providerFee",
      "outputs": [
        {
          "internalType": "uint256",
          "name": "",
          "type": "uint256"
        }
      ],
      "stateMutability": "view",
      "type": "function"
    },
    {
      "inputs": [
        {
          "internalType": "address",
          "name": "tokenAddress",
          "type": "address"
        }
      ],
      "name": "removeApprovedToken",
      "outputs": [],
      "stateMutability": "nonpayable",
      "type": "function"
    },
    {
      "inputs": [
        {
          "internalType": "address",
          "name": "_dispenser",
          "type": "address"
        }
      ],
      "name": "removeDispenserContract",
      "outputs": [],
      "stateMutability": "nonpayable",
      "type": "function"
    },
    {
      "inputs": [
        {
          "internalType": "address",
          "name": "_fixedRate",
          "type": "address"
        }
      ],
      "name": "removeFixedRateContract",
      "outputs": [],
      "stateMutability": "nonpayable",
      "type": "function"
    },
    {
      "inputs": [
        {
          "internalType": "address",
          "name": "poolTemplate",
          "type": "address"
        }
      ],
      "name": "removePoolTemplate",
      "outputs": [],
      "stateMutability": "nonpayable",
      "type": "function"
    },
    {
      "inputs": [
        {
          "internalType": "address",
          "name": "_ssContract",
          "type": "address"
        }
      ],
      "name": "removeSSContract",
      "outputs": [],
      "stateMutability": "nonpayable",
      "type": "function"
    },
    {
      "inputs": [],
      "name": "routerOwner",
      "outputs": [
        {
          "internalType": "address",
          "name": "",
          "type": "address"
        }
      ],
      "stateMutability": "view",
      "type": "function"
    },
    {
      "inputs": [
        {
          "internalType": "uint256",
          "name": "",
          "type": "uint256"
        }
      ],
      "name": "ssContracts",
      "outputs": [
        {
          "internalType": "address",
          "name": "",
          "type": "address"
        }
      ],
      "stateMutability": "view",
      "type": "function"
    },
    {
      "inputs": [
        {
          "components": [
            {
              "internalType": "address",
              "name": "poolAddress",
              "type": "address"
            },
            {
              "internalType": "uint256",
              "name": "tokenAmountIn",
              "type": "uint256"
            },
            {
              "internalType": "uint256",
              "name": "minPoolAmountOut",
              "type": "uint256"
            }
          ],
          "internalType": "struct IFactoryRouter.Stakes[]",
          "name": "_stakes",
          "type": "tuple[]"
        }
      ],
      "name": "stakeBatch",
      "outputs": [],
      "stateMutability": "nonpayable",
      "type": "function"
    },
    {
      "inputs": [],
      "name": "swapNonOceanFee",
      "outputs": [
        {
          "internalType": "uint256",
          "name": "",
          "type": "uint256"
        }
      ],
      "stateMutability": "view",
      "type": "function"
    },
    {
      "inputs": [],
      "name": "swapOceanFee",
      "outputs": [
        {
          "internalType": "uint256",
          "name": "",
          "type": "uint256"
        }
      ],
      "stateMutability": "view",
      "type": "function"
    },
    {
      "inputs": [
        {
          "internalType": "uint256",
          "name": "_newPeriod",
          "type": "uint256"
        }
      ],
      "name": "updateMinVestingPeriod",
      "outputs": [],
      "stateMutability": "nonpayable",
      "type": "function"
    },
    {
      "inputs": [
        {
          "internalType": "uint256",
          "name": "_newSwapOceanFee",
          "type": "uint256"
        },
        {
          "internalType": "uint256",
          "name": "_newSwapNonOceanFee",
          "type": "uint256"
        },
        {
          "internalType": "uint256",
          "name": "_newConsumeFee",
          "type": "uint256"
        },
        {
          "internalType": "uint256",
          "name": "_newProviderFee",
          "type": "uint256"
        }
      ],
      "name": "updateOPCFee",
      "outputs": [],
      "stateMutability": "nonpayable",
      "type": "function"
    }
  ],
  "bytecode": "0x60806040526225049060055566038d7ea4c6800060065566071afd498d0000600755666a94d74f43000060085560006009553480156200003e57600080fd5b5060405162004dc038038062004dc083398101604081905262000061916200062d565b8282826001600160a01b038316620000d65760405162461bcd60e51b815260206004820152602d60248201527f42466163746f72793a20696e76616c69642062706f6f6c2074656d706c61746560448201526c207a65726f206164647265737360981b60648201526084015b60405180910390fd5b6001600160a01b0382166200012e5760405162461bcd60e51b815260206004820152601660248201527f42466163746f72793a207a65726f2061646472657373000000000000000000006044820152606401620000cd565b600080546001600160a01b0319166001600160a01b03841617905562000154836200037f565b805115620002035760005b8151811015620002015760006001600160a01b0316336001600160a01b03168383815181106200019357620001936200074d565b602090810291909101810151604080516000808252938101849052908101929092526001600160a01b0316907fbb6121447d29a04cc37bfd93cdf6a9dd08229f2d941116c1528f04698c4e790e9060600160405180910390a480620001f88162000763565b9150506200015f565b505b5050506001600160a01b0385166200026a5760405162461bcd60e51b815260206004820152602360248201527f466163746f7279526f757465723a20496e76616c696420726f75746572206f776044820152623732b960e91b6064820152608401620000cd565b6001600160a01b038216620002ce5760405162461bcd60e51b815260206004820152602360248201527f466163746f7279526f757465723a20496e76616c6964206f7063436f6c6c65636044820152623a37b960e91b6064820152608401620000cd565b6001600160a01b038416620003395760405162461bcd60e51b815260206004820152602a60248201527f466163746f7279526f757465723a20496e76616c6964204f6365616e20546f6b604482015269656e206164647265737360b01b6064820152608401620000cd565b600280546001600160a01b038088166001600160a01b0319928316179092556000805492851692909116919091179055620003748462000476565b50505050506200078d565b6001600160a01b038116620003eb5760405162461bcd60e51b815260206004820152602b60248201527f466163746f7279526f757465723a20496e76616c696420706f6f6c54656d706c60448201526a617465206164647265737360a81b6064820152608401620000cd565b620003f68162000501565b620004735760018054808201825560009182527fb10e2d527612073b26eecdfd717e6a320cf44b4afac2b0732d9fcbe2b7fa0cf60180546001600160a01b0319166001600160a01b038416908117909155604051909133917fc3674c32cbec94fe266aab7ef71f65b9bf77e1ed501d4f2bece8752f5352e9ac9190a35b50565b62000481816200051f565b6200047357600a805460018101825560009182527fc65a7bb8d6351c1cf70c95a316cc6a92839c986682d98bc35f958f4883f9d2a80180546001600160a01b0319166001600160a01b038416908117909155604051909133917fdffbd9ded1c09446f09377de547142dcce7dc541c8b0b028142b1eba7026b9e79190a350565b600062000519826200059160201b62002f251760201c565b92915050565b6000805b600a548110156200058857826001600160a01b0316600a82815481106200054e576200054e6200074d565b6000918252602090912001546001600160a01b03161415620005735750600192915050565b806200057f8162000763565b91505062000523565b50600092915050565b6000805b6001548110156200058857826001600160a01b031660018281548110620005c057620005c06200074d565b6000918252602090912001546001600160a01b03161415620005e55750600192915050565b80620005f18162000763565b91505062000595565b80516001600160a01b03811681146200061257600080fd5b919050565b634e487b7160e01b600052604160045260246000fd5b600080600080600060a086880312156200064657600080fd5b6200065186620005fa565b9450602062000662818801620005fa565b94506200067260408801620005fa565b93506200068260608801620005fa565b60808801519093506001600160401b0380821115620006a057600080fd5b818901915089601f830112620006b557600080fd5b815181811115620006ca57620006ca62000617565b8060051b604051601f19603f83011681018181108582111715620006f257620006f262000617565b60405291825284820192508381018501918c8311156200071157600080fd5b938501935b828510156200073a576200072a85620005fa565b8452938501939285019262000716565b8096505050505050509295509295909350565b634e487b7160e01b600052603260045260246000fd5b60006000198214156200078657634e487b7160e01b600052601160045260246000fd5b5060010190565b614623806200079d6000396000f3fe608060405234801561001057600080fd5b50600436106103d05760003560e01c8063867378c5116101ff578063c6580d121161011a578063e193faad116100ad578063ec0930211161007c578063ec0930211461075b578063ecdda58814610763578063ee3bc63514610776578063fca24bc61461078957600080fd5b8063e193faad1461072c578063e2bdeefa1461073f578063e4a28a5214610405578063e525f99c1461074857600080fd5b8063d629a00a116100e9578063d629a00a146106e2578063dce2d0df146106f5578063de9a95a714610710578063e183fb3f1461072357600080fd5b8063c6580d12146106b5578063c6e983d9146106bd578063cb870cbf146106c6578063cd10534b146106cf57600080fd5b8063b8421e2b11610192578063bfa04b8511610161578063bfa04b851461067c578063c07c00fe1461068f578063c36596a614610496578063c45a0155146106a257600080fd5b8063b8421e2b14610651578063ba019dab14610664578063bc063e1a1461066c578063bc694ea21461067457600080fd5b8063b0e0d136116101ce578063b0e0d13614610623578063b19aaac61461062b578063b66806fb1461063e578063b7b800a41461062357600080fd5b8063867378c5146105f85780639381cd2b14610600578063992e2a92146106085780639f2c010a1461061057600080fd5b806350cbbe76116102ef5780637521aff911610282578063802d142211610251578063802d1422146105ac57806382449375146105bf5780638552730a146105d2578063858ab596146105e557600080fd5b80637521aff91461057657806376c7a3c7146105895780637cbf85bf146105915780637d28354d146105a457600080fd5b80636c45e881116102be5780636c45e881146105405780636c9fb612146105485780636cdf90a11461055b578063737e5ca01461056e57600080fd5b806350cbbe761461050a578063510f34651461051d5780635705987a146105255780636afc0c5f1461053857600080fd5b8063218b538211610367578063335b7fa211610336578063335b7fa2146104d357806346104ea8146104e6578063475030c0146104ee57806347e14094146104f757600080fd5b8063218b538214610496578063241c7a6d146104a557806329ce1ec5146104ad5780632d5ad3d5146104c057600080fd5b806316592614116103a3578063165926141461045357806316d9cb3d14610468578063189d00ca1461047b5780631dafede01461048357600080fd5b806303814238146103d557806309a3bbe41461040557806315c25dd51461041b57806315d4c9eb1461043e575b600080fd5b6000546103e8906001600160a01b031681565b6040516001600160a01b0390911681526020015b60405180910390f35b61040d61079c565b6040519081526020016103fc565b61042e610429366004613bb8565b6107b2565b60405190151581526020016103fc565b61044661081c565b6040516103fc9190613bd5565b610466610461366004613bb8565b61087e565b005b610466610476366004613bb8565b610a26565b61040d610aff565b6103e8610491366004613c22565b610b16565b61040d670de0b6b3a764000081565b610446610b40565b6104666104bb366004613bb8565b610b4f565b61042e6104ce366004613bb8565b610c7a565b6103e86104e1366004613c22565b610cdb565b610446610ceb565b61040d60055481565b610466610505366004613bb8565b610d4b565b6103e8610518366004613c22565b610ee9565b60055461040d565b610466610533366004613bb8565b610ef9565b6104466110da565b60095461040d565b610466610556366004613bb8565b61113a565b61042e610569366004613bb8565b611212565b610446611273565b610466610584366004613c22565b6112d3565b61040d61133a565b6103e861059f366004613c22565b61134e565b60085461040d565b6004546103e8906001600160a01b031681565b61040d6105cd366004613c87565b61135e565b6002546103e8906001600160a01b031681565b6104666105f3366004613d0a565b6114d0565b61040d6118d4565b61040d6118eb565b61040d6118fe565b61046661061e366004613bb8565b61191c565b61040d600281565b610466610639366004613bb8565b611aba565b6103e861064c366004613c22565b611aed565b61040d61065f366004613bb8565b611afd565b61040d600181565b61040d611b22565b61040d611b35565b61046661068a366004613d7f565b611b54565b61042e61069d366004613bb8565b611be2565b6003546103e8906001600160a01b031681565b61040d600081565b61040d60095481565b61040d60075481565b6104666106dd366004613bb8565b611bf3565b6104666106f0366004613db1565b611c26565b600654600754604080519283526020830191909152016103fc565b61046661071e366004613bb8565b611d96565b61040d60065481565b61046661073a366004613bb8565b611e6e565b61040d60085481565b610466610756366004613bb8565b611ea1565b61040d611f6d565b610466610771366004613e21565b611f80565b6103e8610784366004613e85565b612b22565b61042e610797366004613bb8565b612ec4565b6107af670de0b6b3a76400006032613f4b565b81565b6000805b600b5481101561081357826001600160a01b0316600b82815481106107dd576107dd613f6a565b6000918252602090912001546001600160a01b031614156108015750600192915050565b8061080b81613f80565b9150506107b6565b50600092915050565b6060600d80548060200260200160405190810160405280929190818152602001828054801561087457602002820191906000526020600020905b81546001600160a01b03168152600190910190602001808311610856575b5050505050905090565b6002546001600160a01b031633146108b15760405162461bcd60e51b81526004016108a890613f9b565b60405180910390fd5b6001600160a01b0381166108d75760405162461bcd60e51b81526004016108a890613fcb565b60005b600d5481101561093357816001600160a01b0316600d828154811061090157610901613f6a565b6000918252602090912001546001600160a01b0316141561092157610933565b8061092b81613f80565b9150506108da565b600d54811015610a2257600d805461094d90600190614014565b8154811061095d5761095d613f6a565b600091825260209091200154600d80546001600160a01b03909216918390811061098957610989613f6a565b9060005260206000200160006101000a8154816001600160a01b0302191690836001600160a01b03160217905550600d8054806109c8576109c861402b565b600082815260208120820160001990810180546001600160a01b03191690559091019091556040516001600160a01b0384169133917f63fe522dcdc5f006279afe8840a87398bb3d0dbb906b848866195859621908b39190a35b5050565b6002546001600160a01b03163314610a505760405162461bcd60e51b81526004016108a890613f9b565b6001600160a01b038116610a765760405162461bcd60e51b81526004016108a890614041565b610a7f81611212565b610afc57600c805460018101825560009182527fdf6966c971051c3d54ec59162606531493a51404a002842f56009d7e5cf4a8c70180546001600160a01b0319166001600160a01b038416908117909155604051909133917f45ccb9b9d6b112eb7a38daf6a23bda8b4c8449d5cf64a034975a5beb8cdd37b39190a35b50565b6107af6402540be400670de0b6b3a764000061408a565b600a8181548110610b2657600080fd5b6000918252602090912001546001600160a01b0316905081565b6060610b4a612f86565b905090565b6002546001600160a01b03163314610b795760405162461bcd60e51b81526004016108a890613f9b565b6001600160a01b038116610bdf5760405162461bcd60e51b815260206004820152602760248201527f466163746f7279526f757465723a20496e76616c6964205f666163746f7279206044820152666164647265737360c81b60648201526084016108a8565b6003546001600160a01b031615610c2e5760405162461bcd60e51b8152602060048201526013602482015272119050d513d49648105314915051164814d155606a1b60448201526064016108a8565b600380546001600160a01b0319166001600160a01b03831690811790915560405133907f1f869f1ddaa0e2e3652252b3394c05c805f54a0d5f7fb6975f785ae4f91e587190600090a350565b6000805b600a5481101561081357826001600160a01b0316600a8281548110610ca557610ca5613f6a565b6000918252602090912001546001600160a01b03161415610cc95750600192915050565b80610cd381613f80565b915050610c7e565b600d8181548110610b2657600080fd5b6060600c805480602002602001604051908101604052809291908181526020018280548015610874576020028201919060005260206000209081546001600160a01b03168152600190910190602001808311610856575050505050905090565b6002546001600160a01b03163314610d755760405162461bcd60e51b81526004016108a890613f9b565b6001600160a01b038116610d9b5760405162461bcd60e51b81526004016108a8906140ac565b60005b600b54811015610df757816001600160a01b0316600b8281548110610dc557610dc5613f6a565b6000918252602090912001546001600160a01b03161415610de557610df7565b80610def81613f80565b915050610d9e565b600b54811015610a2257600b8054610e1190600190614014565b81548110610e2157610e21613f6a565b600091825260209091200154600b80546001600160a01b039092169183908110610e4d57610e4d613f6a565b9060005260206000200160006101000a8154816001600160a01b0302191690836001600160a01b03160217905550600b805480610e8c57610e8c61402b565b600082815260208120820160001990810180546001600160a01b03191690559091019091556040516001600160a01b0384169133917f7df5d17d768be6563796784637c80bc9204e2af0bc4ba8630f5aa2fed96ea4879190a35050565b60018181548110610b2657600080fd5b6002546001600160a01b03163314610f235760405162461bcd60e51b81526004016108a890613f9b565b6001600160a01b038116610f8c5760405162461bcd60e51b815260206004820152602a60248201527f466163746f7279526f757465723a20496e76616c6964204f6365616e20546f6b604482015269656e206164647265737360b01b60648201526084016108a8565b60005b600a54811015610fe857816001600160a01b0316600a8281548110610fb657610fb6613f6a565b6000918252602090912001546001600160a01b03161415610fd657610fe8565b80610fe081613f80565b915050610f8f565b600a54811015610a2257600a805461100290600190614014565b8154811061101257611012613f6a565b600091825260209091200154600a80546001600160a01b03909216918390811061103e5761103e613f6a565b9060005260206000200160006101000a8154816001600160a01b0302191690836001600160a01b03160217905550600a80548061107d5761107d61402b565b600082815260208120820160001990810180546001600160a01b03191690559091019091556040516001600160a01b0384169133917fbbe55b1ff108e23e5ff1a6f5d36946eec15ec0ca0ded2bfed4cdcf697ca904609190a35050565b6060600a805480602002602001604051908101604052809291908181526020018280548015610874576020028201919060005260206000209081546001600160a01b03168152600190910190602001808311610856575050505050905090565b6002546001600160a01b031633146111645760405162461bcd60e51b81526004016108a890613f9b565b6001600160a01b03811661118a5760405162461bcd60e51b81526004016108a8906140ac565b611193816107b2565b610afc57600b805460018101825560009182527f0175b7a638427703f0dbe7bb9bbf987a2551717b34e79f33b5b1008d1fa01db90180546001600160a01b0319166001600160a01b038416908117909155604051909133917fcef3ce01f85c030161b431114e41e463297b68f169c1013c526b1cbc5747e5449190a350565b6000805b600c5481101561081357826001600160a01b0316600c828154811061123d5761123d613f6a565b6000918252602090912001546001600160a01b031614156112615750600192915050565b8061126b81613f80565b915050611216565b6060600b805480602002602001604051908101604052809291908181526020018280548015610874576020028201919060005260206000209081546001600160a01b03168152600190910190602001808311610856575050505050905090565b6002546001600160a01b031633146112fd5760405162461bcd60e51b81526004016108a890613f9b565b600581905560405181815233907f5ee73342e684c0b848562c301fa2dc6b0146b266cfa12d4219fb04b316f7a4759060200160405180910390a250565b6107af612710670de0b6b3a764000061408a565b600b8181548110610b2657600080fd5b60035460405163226e761560e01b81523360048201526000916001600160a01b03169063226e761590602401602060405180830381865afa1580156113a7573d6000803e3d6000fd5b505050506040513d601f19601f820116820180604052508101906113cb9190614106565b6113e75760405162461bcd60e51b81526004016108a890614121565b6113f086611212565b61144f5760405162461bcd60e51b815260206004820152602a60248201527f464143544f525920524f555445523a20496e76616c696420466978656450726960448201526918d950dbdb9d1c9858dd60b21b60648201526084016108a8565b60405163012c327560e01b81526001600160a01b0387169063012c327590611483903390899089908990899060040161416c565b6020604051808303816000875af11580156114a2573d6000803e3d6000fd5b505050506040513d601f19601f820116820180604052508101906114c691906141fb565b9695505050505050565b60328111156114f15760405162461bcd60e51b81526004016108a890614214565b60005b818110156118cf57600083838381811061151057611510613f6a565b6115269260206060909202019081019150613bb8565b6001600160a01b0316634df947d06040518163ffffffff1660e01b8152600401602060405180830381865afa158015611563573d6000803e3d6000fd5b505050506040513d601f19601f820116820180604052508101906115879190614256565b90506115b08133308787878181106115a1576115a1613f6a565b90506060020160200135612fe6565b60008484848181106115c4576115c4613f6a565b6115da9260206060909202019081019150613bb8565b6040516370a0823160e01b81523060048201526001600160a01b0391909116906370a0823190602401602060405180830381865afa158015611620573d6000803e3d6000fd5b505050506040513d601f19601f8201168201806040525081019061164491906141fb565b90506116a685858581811061165b5761165b613f6a565b6116719260206060909202019081019150613bb8565b86868681811061168357611683613f6a565b90506060020160200135846001600160a01b03166131349092919063ffffffff16565b60008585858181106116ba576116ba613f6a565b6116d09260206060909202019081019150613bb8565b6001600160a01b0316638329ab338787878181106116f0576116f0613f6a565b9050606002016020013588888881811061170c5761170c613f6a565b905060600201604001356040518363ffffffff1660e01b815260040161173c929190918252602082015260400190565b6020604051808303816000875af115801561175b573d6000803e3d6000fd5b505050506040513d601f19601f8201168201806040525081019061177f91906141fb565b905085858581811061179357611793613f6a565b905060600201604001358110156117dc5760405162461bcd60e51b815260206004820152600d60248201526c04e4f5420454e4f554748204c5609c1b60448201526064016108a8565b60008686868181106117f0576117f0613f6a565b6118069260206060909202019081019150613bb8565b6040516370a0823160e01b81523060048201526001600160a01b0391909116906370a0823190602401602060405180830381865afa15801561184c573d6000803e3d6000fd5b505050506040513d601f19601f8201168201806040525081019061187091906141fb565b90506118b833611880838661321f565b89898981811061189257611892613f6a565b6118a89260206060909202019081019150613bb8565b6001600160a01b03169190613232565b5050505080806118c790613f80565b9150506114f4565b505050565b6107af64e8d4a51000670de0b6b3a764000061408a565b6107af670de0b6b3a76400006064613f4b565b6119116003670de0b6b3a764000061408a565b6107af906001614273565b6002546001600160a01b031633146119465760405162461bcd60e51b81526004016108a890613f9b565b6001600160a01b03811661196c5760405162461bcd60e51b81526004016108a890614041565b60005b600c548110156119c857816001600160a01b0316600c828154811061199657611996613f6a565b6000918252602090912001546001600160a01b031614156119b6576119c8565b806119c081613f80565b91505061196f565b600c54811015610a2257600c80546119e290600190614014565b815481106119f2576119f2613f6a565b600091825260209091200154600c80546001600160a01b039092169183908110611a1e57611a1e613f6a565b9060005260206000200160006101000a8154816001600160a01b0302191690836001600160a01b03160217905550600c805480611a5d57611a5d61402b565b600082815260208120820160001990810180546001600160a01b03191690559091019091556040516001600160a01b0384169133917ff1ec0697329a2e8de8cf055335547acc40fbace8712fc77aeea1ea2afbcf7e3b9190a35050565b6002546001600160a01b03163314611ae45760405162461bcd60e51b81526004016108a890613f9b565b610afc81613262565b600c8181548110610b2657600080fd5b6000611b0882610c7a565b15611b1557505060065490565b505060075490565b919050565b6107af600a670de0b6b3a764000061408a565b6001611b4a670de0b6b3a76400006002613f4b565b6107af9190614014565b6002546001600160a01b03163314611b7e5760405162461bcd60e51b81526004016108a890613f9b565b600684905560078390556008829055600981905560408051858152602081018590529081018390526060810182905233907fe6171cf0506862c0a0185f8c21dca979859d4eb63186eff63f1b3dd14926be7b9060800160405180910390a250505050565b6000611bed82612f25565b92915050565b6002546001600160a01b03163314611c1d5760405162461bcd60e51b81526004016108a890613f9b565b610afc81613353565b60035460405163226e761560e01b81523360048201526001600160a01b039091169063226e761590602401602060405180830381865afa158015611c6e573d6000803e3d6000fd5b505050506040513d601f19601f82011682018060405250810190611c929190614106565b611cae5760405162461bcd60e51b81526004016108a890614121565b611cb786612ec4565b611d155760405162461bcd60e51b815260206004820152602960248201527f464143544f525920524f555445523a20496e76616c69642044697370656e73656044820152681c90dbdb9d1c9858dd60ba1b60648201526084016108a8565b6040516324ce291760e01b81526001600160a01b0386811660048301526024820186905260448201859052838116606483015282811660848301528716906324ce29179060a401600060405180830381600087803b158015611d7657600080fd5b505af1158015611d8a573d6000803e3d6000fd5b50505050505050505050565b6002546001600160a01b03163314611dc05760405162461bcd60e51b81526004016108a890613f9b565b6001600160a01b038116611de65760405162461bcd60e51b81526004016108a890613fcb565b611def81612ec4565b610afc57600d805460018101825560009182527fd7b6990105719101dabeb77144f2a3385c8033acd3af97e9423a695e81ad1eb50180546001600160a01b0319166001600160a01b038416908117909155604051909133917f78be9d87a7b2c8707b044dbf5b04c3f747b692c55ec34dcd1d7357736478789c9190a350565b6002546001600160a01b03163314611e985760405162461bcd60e51b81526004016108a890613f9b565b610afc816133db565b6002546001600160a01b03163314611ecb5760405162461bcd60e51b81526004016108a890613f9b565b6001600160a01b038116611f215760405162461bcd60e51b815260206004820152601860248201527f496e76616c6964206e657720726f75746572206f776e6572000000000000000060448201526064016108a8565b600280546001600160a01b0319166001600160a01b03831690811790915560405133907fc736654a613824c69968e0ec25ac1a428ccd49e15c28e97b5dfd2c6059757e2a90600090a350565b6107af6002670de0b6b3a764000061408a565b6032811115611fa15760405162461bcd60e51b81526004016108a890614214565b60005b818110156118cf5760006040518060600160405280858585818110611fcb57611fcb613f6a565b905061014002016060016020810190611fe49190613bb8565b6001600160a01b0316815260200185858581811061200457612004613f6a565b9050610140020160a001602081019061201d9190613bb8565b6001600160a01b0316815260200185858581811061203d5761203d613f6a565b905061014002016101200160208101906120579190613bb8565b6001600160a01b03166001600160a01b031681525090506000604051806080016040528086868681811061208d5761208d613f6a565b905061014002016080013581526020018686868181106120af576120af613f6a565b9050610140020160c0013581526020018686868181106120d1576120d1613f6a565b9050610140020160e0013581526020018686868181106120f3576120f3613f6a565b9050610140020161010001358152509050600060038111156121175761211761428b565b85858581811061212957612129613f6a565b90506101400201604001602081019061214291906142a1565b60038111156121535761215361428b565b1415612306576121ab85858581811061216e5761216e613f6a565b9050610140020160600160208101906121879190613bb8565b333088888881811061219b5761219b613f6a565b9050610140020160800135612fe6565b6122318585858181106121c0576121c0613f6a565b9050610140020160200160208101906121d99190613bb8565b8686868181106121eb576121eb613f6a565b905061014002016080013587878781811061220857612208613f6a565b9050610140020160600160208101906122219190613bb8565b6001600160a01b03169190613134565b600085858581811061224557612245613f6a565b90506101400201602001602081019061225e9190613bb8565b6001600160a01b031663c421a3fc84846040518363ffffffff1660e01b815260040161228b9291906142c2565b60408051808303816000875af11580156122a9573d6000803e3d6000fd5b505050506040513d601f19601f820116820180604052508101906122cd9190614327565b50905061230033828888888181106122e7576122e7613f6a565b9050610140020160a00160208101906118a89190613bb8565b50612b0d565b600185858581811061231a5761231a613f6a565b90506101400201604001602081019061233391906142a1565b60038111156123445761234461428b565b141561263657600085858581811061235e5761235e613f6a565b9050610140020160200160208101906123779190613bb8565b6001600160a01b031663caa0114887878781811061239757612397613f6a565b9050610140020160600160208101906123b09190613bb8565b8888888181106123c2576123c2613f6a565b9050610140020160a00160208101906123db9190613bb8565b8989898181106123ed576123ed613f6a565b9050610140020160c001358a8a8a81811061240a5761240a613f6a565b6040516001600160e01b031960e089901b1681526001600160a01b039687166004820152959094166024860152506044840191909152610100610140909202010135606482015260840160a060405180830381865afa158015612471573d6000803e3d6000fd5b505050506040513d601f19601f82011682018060405250810190612495919061434b565b509293506124d59250889150879050868181106124b4576124b4613f6a565b9050610140020160600160208101906124cd9190613bb8565b333084612fe6565b6125168686868181106124ea576124ea613f6a565b9050610140020160200160208101906125039190613bb8565b8288888881811061220857612208613f6a565b600086868681811061252a5761252a613f6a565b9050610140020160200160208101906125439190613bb8565b6001600160a01b031663c98a59cf85856040518363ffffffff1660e01b81526004016125709291906142c2565b60408051808303816000875af115801561258e573d6000803e3d6000fd5b505050506040513d601f19601f820116820180604052508101906125b29190614327565b5083519091508111156125fc5760405162461bcd60e51b81526020600482015260126024820152712a27a79026a0a72c902a27a5a2a7299024a760711b60448201526064016108a8565b61262f3388888881811061261257612612613f6a565b9050610140020160c001358989898181106122e7576122e7613f6a565b5050612b0d565b600285858581811061264a5761264a613f6a565b90506101400201604001602081019061266391906142a1565b60038111156126745761267461428b565b1415612a2457600085858581811061268e5761268e613f6a565b9050610140020160200160208101906126a79190613bb8565b6001600160a01b0316634c87087d8787878181106126c7576126c7613f6a565b90506101400201600001356040518263ffffffff1660e01b81526004016126f091815260200190565b61018060405180830381865afa15801561270e573d6000803e3d6000fd5b505050506040513d601f19601f82011682018060405250810190612732919061438b565b50505050505050505050915050600086868681811061275357612753613f6a565b90506101400201602001602081019061276c9190613bb8565b6001600160a01b031663dd1bc96a88888881811061278c5761278c613f6a565b90506101400201600001358989898181106127a9576127a9613f6a565b9050610140020160c001358a8a8a8181106127c6576127c6613f6a565b6040516001600160e01b031960e088901b16815260048101959095526024850193909352506101006101409092020101356044820152606401608060405180830381865afa15801561281c573d6000803e3d6000fd5b505050506040513d601f19601f82011682018060405250810190612840919061443f565b505050905061285a8787878181106124b4576124b4613f6a565b61289b87878781811061286f5761286f613f6a565b9050610140020160200160208101906128889190613bb8565b8289898981811061220857612208613f6a565b8686868181106128ad576128ad613f6a565b9050610140020160200160208101906128c69190613bb8565b6001600160a01b03166368c4b7e98888888181106128e6576128e6613f6a565b905061014002016000013589898981811061290357612903613f6a565b9050610140020160c001358a8a8a81811061292057612920613f6a565b90506101400201608001358b8b8b81811061293d5761293d613f6a565b905061014002016101200160208101906129579190613bb8565b8c8c8c81811061296957612969613f6a565b6040516001600160e01b031960e08a901b168152600481019790975260248701959095525060448501929092526001600160a01b03166064840152610100610140909202010135608482015260a401600060405180830381600087803b1580156129d257600080fd5b505af11580156129e6573d6000803e3d6000fd5b5050505061262f33888888818110612a0057612a00613f6a565b9050610140020160c00135846001600160a01b03166132329092919063ffffffff16565b848484818110612a3657612a36613f6a565b905061014002016020016020810190612a4f9190613bb8565b6001600160a01b0316631d746d83868686818110612a6f57612a6f613f6a565b9050610140020160a0016020810190612a889190613bb8565b878787818110612a9a57612a9a613f6a565b60405160e086901b6001600160e01b03191681526001600160a01b03949094166004850152610140029190910160c00135602483015250336044820152606401600060405180830381600087803b158015612af457600080fd5b505af1158015612b08573d6000803e3d6000fd5b505050505b50508080612b1a90613f80565b915050611fa4565b60035460405163226e761560e01b81523360048201526000916001600160a01b03169063226e761590602401602060405180830381865afa158015612b6b573d6000803e3d6000fd5b505050506040513d601f19601f82011682018060405250810190612b8f9190614106565b612bab5760405162461bcd60e51b81526004016108a890614121565b612bd683836000818110612bc157612bc1613f6a565b90506020020160208101906104299190613bb8565b612c2d5760405162461bcd60e51b815260206004820152602260248201527f464143544f525920524f555445523a20696e76616c6964207373436f6e74726160448201526118dd60f21b60648201526084016108a8565b600087876001818110612c4257612c42613f6a565b9050602002013511612c875760405162461bcd60e51b815260206004820152600e60248201526d57726f6e6720646563696d616c7360901b60448201526064016108a8565b612d09612c9a60408a0160208b01613bb8565b84846002818110612cad57612cad613f6a565b9050602002016020810190612cc29190613bb8565b85856000818110612cd557612cd5613f6a565b9050602002016020810190612cea9190613bb8565b8a8a6004818110612cfd57612cfd613f6a565b90506020020135612fe6565b604080518082018252600091612dcc91908b90600290839083908082843760009201919091525050604080516020808d0282810182019093528c82529092508c918c9182919085019084908082843760009201919091525050604080516020808d0282810182019093528c82529093508c92508b91829185019084908082843760009201919091525050604080516020808c0282810182019093528b82529093508b92508a91829185019084908082843760009201919091525061354a92505050565b90506001600160a01b038116612e1c5760405162461bcd60e51b8152602060048201526015602482015274119052531151081513c81111541313d6481413d3d3605a1b60448201526064016108a8565b612e2f6104ce60408b0160208c01613bb8565b15612e7857604051600181526001600160a01b038216907f90279d7790471e260411db76079630dfaa838fc987d29ae7aa7dc1bcd773ef2e9060200160405180910390a2612eb8565b604051600081526001600160a01b038216907f90279d7790471e260411db76079630dfaa838fc987d29ae7aa7dc1bcd773ef2e9060200160405180910390a25b98975050505050505050565b6000805b600d5481101561081357826001600160a01b0316600d8281548110612eef57612eef613f6a565b6000918252602090912001546001600160a01b03161415612f135750600192915050565b80612f1d81613f80565b915050612ec8565b6000805b60015481101561081357826001600160a01b031660018281548110612f5057612f50613f6a565b6000918252602090912001546001600160a01b03161415612f745750600192915050565b80612f7e81613f80565b915050612f29565b60606001805480602002602001604051908101604052809291908181526020018280548015610874576020028201919060005260206000209081546001600160a01b03168152600190910190602001808311610856575050505050905090565b6040516370a0823160e01b81526001600160a01b038381166004830152600091908616906370a0823190602401602060405180830381865afa158015613030573d6000803e3d6000fd5b505050506040513d601f19601f8201168201806040525081019061305491906141fb565b905061306b6001600160a01b038616858585613885565b61307581836138bd565b6040516370a0823160e01b81526001600160a01b0385811660048301528716906370a0823190602401602060405180830381865afa1580156130bb573d6000803e3d6000fd5b505050506040513d601f19601f820116820180604052508101906130df91906141fb565b101561312d5760405162461bcd60e51b815260206004820152601a60248201527f5472616e7366657220616d6f756e7420697320746f6f206c6f7700000000000060448201526064016108a8565b5050505050565b604051636eb1769f60e11b81523060048201526001600160a01b038381166024830152600091839186169063dd62ed3e90604401602060405180830381865afa158015613185573d6000803e3d6000fd5b505050506040513d601f19601f820116820180604052508101906131a991906141fb565b6131b39190614273565b6040516001600160a01b03851660248201526044810182905290915061321990859063095ea7b360e01b906064015b60408051601f198184030181529190526020810180516001600160e01b03166001600160e01b0319909316929092179091526138c9565b50505050565b600061322b8284614014565b9392505050565b6040516001600160a01b0383166024820152604481018290526118cf90849063a9059cbb60e01b906064016131e2565b6001600160a01b0381166132cc5760405162461bcd60e51b815260206004820152602b60248201527f466163746f7279526f757465723a20496e76616c696420706f6f6c54656d706c60448201526a617465206164647265737360a81b60648201526084016108a8565b6132d581611be2565b610afc5760018054808201825560009182527fb10e2d527612073b26eecdfd717e6a320cf44b4afac2b0732d9fcbe2b7fa0cf60180546001600160a01b0319166001600160a01b038416908117909155604051909133917fc3674c32cbec94fe266aab7ef71f65b9bf77e1ed501d4f2bece8752f5352e9ac9190a350565b61335c81610c7a565b610afc57600a805460018101825560009182527fc65a7bb8d6351c1cf70c95a316cc6a92839c986682d98bc35f958f4883f9d2a80180546001600160a01b0319166001600160a01b038416908117909155604051909133917fdffbd9ded1c09446f09377de547142dcce7dc541c8b0b028142b1eba7026b9e79190a350565b60005b60015481101561343757816001600160a01b03166001828154811061340557613405613f6a565b6000918252602090912001546001600160a01b0316141561342557613437565b8061342f81613f80565b9150506133de565b600154811015610a2257805b600180546134519190614014565b8110156134db5760016134648282614273565b8154811061347457613474613f6a565b600091825260209091200154600180546001600160a01b0390921691839081106134a0576134a0613f6a565b600091825260209091200180546001600160a01b0319166001600160a01b0392909216919091179055806134d381613f80565b915050613443565b5060018054806134ed576134ed61402b565b600082815260208120820160001990810180546001600160a01b03191690559091019091556040516001600160a01b0384169133917fc73fd5d40669565e257cbcd153784617ef26acfcc9fead31e68c0dce3ce82fb29190a35050565b600061356f8260058151811061356257613562613f6a565b6020026020010151611be2565b6135bb5760405162461bcd60e51b815260206004820152601d60248201527f42466163746f72793a2057726f6e6720506f6f6c2054656d706c61746500000060448201526064016108a8565b60006040518060400160405280846004815181106135db576135db613f6a565b6020908102919091018101516001600160a01b039081168352600054169101528351909150613624908490600590811061361757613617613f6a565b602002602001015161399b565b91506001600160a01b0382166136885760405162461bcd60e51b8152602060048201526024808201527f42466163746f72793a20696e76616c69642062706f6f6c207a65726f206164646044820152637265737360e01b60648201526084016108a8565b6000829050806001600160a01b031663c070a6d8856000815181106136af576136af613f6a565b602002602001015130886000808d896040518863ffffffff1660e01b81526004016136e097969594939291906144dc565b6020604051808303816000875af11580156136ff573d6000803e3d6000fd5b505050506040513d601f19601f820116820180604052508101906137239190614106565b6137665760405162461bcd60e51b815260206004820152601460248201527311549497d253925512505312569157d09413d3d360621b60448201526064016108a8565b8360008151811061377957613779613f6a565b60200260200101516001600160a01b03166383b87e5a886000600281106137a2576137a2613f6a565b6020020151896001602002015186886003815181106137c3576137c3613f6a565b60200260200101518b6040518663ffffffff1660e01b81526004016137ec959493929190614536565b6020604051808303816000875af115801561380b573d6000803e3d6000fd5b505050506040513d601f19601f8201168201806040525081019061382f9190614106565b61387b5760405162461bcd60e51b815260206004820152601a60248201527f4552525f494e495449414c495a455f534944455354414b494e4700000000000060448201526064016108a8565b5050949350505050565b6040516001600160a01b03808516602483015283166044820152606481018290526132199085906323b872dd60e01b906084016131e2565b600061322b8284614273565b600061391e826040518060400160405280602081526020017f5361666545524332303a206c6f772d6c6576656c2063616c6c206661696c6564815250856001600160a01b0316613a2b9092919063ffffffff16565b8051909150156118cf578080602001905181019061393c9190614106565b6118cf5760405162461bcd60e51b815260206004820152602a60248201527f5361666545524332303a204552433230206f7065726174696f6e20646964206e6044820152691bdd081cdd58d8d9595960b21b60648201526084016108a8565b6000808260601b9050604051733d602d80600a3d3981f3363d3d373d3d3d363d7360601b81528160148201526e5af43d82803e903d91602b57fd5bf360881b60288201526037816000f06040516001600160a01b03821681529093507f117c72e6c25f0a072e36e148df71468ce2f3dbe7defec5b2c257a6e3eb65278c915060200160405180910390a150919050565b6060613a3a8484600085613a42565b949350505050565b606082471015613aa35760405162461bcd60e51b815260206004820152602660248201527f416464726573733a20696e73756666696369656e742062616c616e636520666f6044820152651c8818d85b1b60d21b60648201526084016108a8565b843b613af15760405162461bcd60e51b815260206004820152601d60248201527f416464726573733a2063616c6c20746f206e6f6e2d636f6e747261637400000060448201526064016108a8565b600080866001600160a01b03168587604051613b0d919061459e565b60006040518083038185875af1925050503d8060008114613b4a576040519150601f19603f3d011682016040523d82523d6000602084013e613b4f565b606091505b5091509150613b5f828286613b6a565b979650505050505050565b60608315613b7957508161322b565b825115613b895782518084602001fd5b8160405162461bcd60e51b81526004016108a891906145ba565b6001600160a01b0381168114610afc57600080fd5b600060208284031215613bca57600080fd5b813561322b81613ba3565b6020808252825182820181905260009190848201906040850190845b81811015613c165783516001600160a01b031683529284019291840191600101613bf1565b50909695505050505050565b600060208284031215613c3457600080fd5b5035919050565b60008083601f840112613c4d57600080fd5b50813567ffffffffffffffff811115613c6557600080fd5b6020830191508360208260051b8501011115613c8057600080fd5b9250929050565b600080600080600060608688031215613c9f57600080fd5b8535613caa81613ba3565b9450602086013567ffffffffffffffff80821115613cc757600080fd5b613cd389838a01613c3b565b90965094506040880135915080821115613cec57600080fd5b50613cf988828901613c3b565b969995985093965092949392505050565b60008060208385031215613d1d57600080fd5b823567ffffffffffffffff80821115613d3557600080fd5b818501915085601f830112613d4957600080fd5b813581811115613d5857600080fd5b866020606083028501011115613d6d57600080fd5b60209290920196919550909350505050565b60008060008060808587031215613d9557600080fd5b5050823594602084013594506040840135936060013592509050565b60008060008060008060c08789031215613dca57600080fd5b8635613dd581613ba3565b95506020870135613de581613ba3565b945060408701359350606087013592506080870135613e0381613ba3565b915060a0870135613e1381613ba3565b809150509295509295509295565b60008060208385031215613e3457600080fd5b823567ffffffffffffffff80821115613e4c57600080fd5b818501915085601f830112613e6057600080fd5b813581811115613e6f57600080fd5b86602061014083028501011115613d6d57600080fd5b600080600080600080600060a0888a031215613ea057600080fd5b6040880189811115613eb157600080fd5b8897503567ffffffffffffffff80821115613ecb57600080fd5b613ed78b838c01613c3b565b909850965060608a0135915080821115613ef057600080fd5b613efc8b838c01613c3b565b909650945060808a0135915080821115613f1557600080fd5b50613f228a828b01613c3b565b989b979a50959850939692959293505050565b634e487b7160e01b600052601160045260246000fd5b6000816000190483118215151615613f6557613f65613f35565b500290565b634e487b7160e01b600052603260045260246000fd5b6000600019821415613f9457613f94613f35565b5060010190565b60208082526016908201527527b1b2b0b72937baba32b91d102727aa1027aba722a960511b604082015260600190565b60208082526029908201527f466163746f7279526f757465723a20496e76616c6964205f64697370656e736560408201526872206164647265737360b81b606082015260800190565b60008282101561402657614026613f35565b500390565b634e487b7160e01b600052603160045260246000fd5b60208082526029908201527f466163746f7279526f757465723a20496e76616c6964205f666978656452617460408201526865206164647265737360b81b606082015260800190565b6000826140a757634e487b7160e01b600052601260045260246000fd5b500490565b6020808252602a908201527f466163746f7279526f757465723a20496e76616c6964205f7373436f6e7472616040820152696374206164647265737360b01b606082015260800190565b80518015158114611b1d57600080fd5b60006020828403121561411857600080fd5b61322b826140f6565b6020808252602b908201527f464143544f525920524f555445523a204e4f54204f524947494e414c2045524360408201526a32302054454d504c41544560a81b606082015260800190565b6001600160a01b03868116825260606020808401829052908301869052600091879160808501845b898110156141bb5784356141a781613ba3565b841682529382019390820190600101614194565b5085810360408701528681526001600160fb1b038711156141db57600080fd5b8660051b9350838883830137600093010191825250979650505050505050565b60006020828403121561420d57600080fd5b5051919050565b60208082526022908201527f466163746f7279526f757465723a20546f6f204d616e79204f7065726174696f6040820152616e7360f01b606082015260800190565b60006020828403121561426857600080fd5b815161322b81613ba3565b6000821982111561428657614286613f35565b500190565b634e487b7160e01b600052602160045260246000fd5b6000602082840312156142b357600080fd5b81356004811061322b57600080fd5b60e08101818460005b60038110156142f35781516001600160a01b03168352602092830192909101906001016142cb565b505050606082018360005b600481101561431d5781518352602092830192909101906001016142fe565b5050509392505050565b6000806040838503121561433a57600080fd5b505080516020909101519092909150565b600080600080600060a0868803121561436357600080fd5b5050835160208501516040860151606087015160809097015192989197509594509092509050565b6000806000806000806000806000806000806101808d8f0312156143ae57600080fd5b8c516143b981613ba3565b60208e0151909c506143ca81613ba3565b60408e015160608f0151919c509a506143e281613ba3565b60808e015160a08f0151919a50985096506143ff60c08e016140f6565b955060e08d015194506101008d015193506101208d015192506101408d0151915061442d6101608e016140f6565b90509295989b509295989b509295989b565b6000806000806080858703121561445557600080fd5b505082516020840151604085015160609095015191969095509092509050565b600081518084526020808501945080840160005b838110156144a557815187529582019590820190600101614489565b509495945050505050565b8060005b60028110156132195781516001600160a01b03168452602093840193909101906001016144b4565b6001600160a01b038881168252871660208201526101206040820181905260009061450983820189614475565b9150508515156060830152841515608083015261452960a08301856144b0565b612eb860e08301846144b0565b6001600160a01b038681168252858116602083015284811660408301528316606082015260a060808201819052600090613b5f90830184614475565b60005b8381101561458d578181015183820152602001614575565b838111156132195750506000910152565b600082516145b0818460208701614572565b9190910192915050565b60208152600082518060208401526145d9816040850160208701614572565b601f01601f1916919091016040019291505056fea264697066735822122054fda7b3ed76973e55468a3ed1cff416b79b8299c45573010ef8b38f4fcde8c164736f6c634300080c0033",
  "linkReferences": {},
  "deployedLinkReferences": {}
}