{
  "_format": "hh-sol-artifact-1",
  "contractName": "FactoryRouter",
  "sourceName": "contracts/pools/FactoryRouter.sol",
  "abi": [
    {
      "inputs": [
        {
          "internalType": "address",
          "name": "_routerOwner",
          "type": "address"
        },
        {
          "internalType": "address",
          "name": "_oceanToken",
          "type": "address"
        },
        {
          "internalType": "address",
          "name": "_bpoolTemplate",
          "type": "address"
        },
        {
          "internalType": "address",
          "name": "_opfCollector",
          "type": "address"
        },
        {
          "internalType": "address[]",
          "name": "_preCreatedPools",
          "type": "address[]"
        }
      ],
      "stateMutability": "nonpayable",
      "type": "constructor"
    },
    {
      "anonymous": false,
      "inputs": [
        {
          "indexed": true,
          "internalType": "address",
          "name": "newBPoolAddress",
          "type": "address"
        },
        {
          "indexed": true,
          "internalType": "address",
          "name": "registeredBy",
          "type": "address"
        },
        {
          "indexed": true,
          "internalType": "address",
          "name": "datatokenAddress",
          "type": "address"
        },
        {
          "indexed": false,
          "internalType": "address",
          "name": "basetokenAddress",
          "type": "address"
        },
        {
          "indexed": false,
          "internalType": "address",
          "name": "bpoolTemplateAddress",
          "type": "address"
        },
        {
          "indexed": false,
          "internalType": "address",
          "name": "ssAddress",
          "type": "address"
        }
      ],
      "name": "BPoolCreated",
      "type": "event"
    },
    {
      "anonymous": false,
      "inputs": [
        {
          "indexed": false,
          "internalType": "address",
          "name": "instance",
          "type": "address"
        }
      ],
      "name": "InstanceDeployed",
      "type": "event"
    },
    {
      "anonymous": false,
      "inputs": [
        {
          "indexed": true,
          "internalType": "address",
          "name": "poolAddress",
          "type": "address"
        },
        {
          "indexed": false,
          "internalType": "bool",
          "name": "isOcean",
          "type": "bool"
        }
      ],
      "name": "NewPool",
      "type": "event"
    },
    {
      "inputs": [],
      "name": "BONE",
      "outputs": [
        {
          "internalType": "uint256",
          "name": "",
          "type": "uint256"
        }
      ],
      "stateMutability": "view",
      "type": "function"
    },
    {
      "inputs": [],
      "name": "BPOW_PRECISION",
      "outputs": [
        {
          "internalType": "uint256",
          "name": "",
          "type": "uint256"
        }
      ],
      "stateMutability": "view",
      "type": "function"
    },
    {
      "inputs": [],
      "name": "EXIT_FEE",
      "outputs": [
        {
          "internalType": "uint256",
          "name": "",
          "type": "uint256"
        }
      ],
      "stateMutability": "view",
      "type": "function"
    },
    {
      "inputs": [],
      "name": "INIT_POOL_SUPPLY",
      "outputs": [
        {
          "internalType": "uint256",
          "name": "",
          "type": "uint256"
        }
      ],
      "stateMutability": "view",
      "type": "function"
    },
    {
      "inputs": [],
      "name": "MAX_BOUND_TOKENS",
      "outputs": [
        {
          "internalType": "uint256",
          "name": "",
          "type": "uint256"
        }
      ],
      "stateMutability": "view",
      "type": "function"
    },
    {
      "inputs": [],
      "name": "MAX_BPOW_BASE",
      "outputs": [
        {
          "internalType": "uint256",
          "name": "",
          "type": "uint256"
        }
      ],
      "stateMutability": "view",
      "type": "function"
    },
    {
      "inputs": [],
      "name": "MAX_FEE",
      "outputs": [
        {
          "internalType": "uint256",
          "name": "",
          "type": "uint256"
        }
      ],
      "stateMutability": "view",
      "type": "function"
    },
    {
      "inputs": [],
      "name": "MAX_IN_RATIO",
      "outputs": [
        {
          "internalType": "uint256",
          "name": "",
          "type": "uint256"
        }
      ],
      "stateMutability": "view",
      "type": "function"
    },
    {
      "inputs": [],
      "name": "MAX_OUT_RATIO",
      "outputs": [
        {
          "internalType": "uint256",
          "name": "",
          "type": "uint256"
        }
      ],
      "stateMutability": "view",
      "type": "function"
    },
    {
      "inputs": [],
      "name": "MAX_TOTAL_WEIGHT",
      "outputs": [
        {
          "internalType": "uint256",
          "name": "",
          "type": "uint256"
        }
      ],
      "stateMutability": "view",
      "type": "function"
    },
    {
      "inputs": [],
      "name": "MAX_WEIGHT",
      "outputs": [
        {
          "internalType": "uint256",
          "name": "",
          "type": "uint256"
        }
      ],
      "stateMutability": "view",
      "type": "function"
    },
    {
      "inputs": [],
      "name": "MIN_BALANCE",
      "outputs": [
        {
          "internalType": "uint256",
          "name": "",
          "type": "uint256"
        }
      ],
      "stateMutability": "view",
      "type": "function"
    },
    {
      "inputs": [],
      "name": "MIN_BOUND_TOKENS",
      "outputs": [
        {
          "internalType": "uint256",
          "name": "",
          "type": "uint256"
        }
      ],
      "stateMutability": "view",
      "type": "function"
    },
    {
      "inputs": [],
      "name": "MIN_BPOW_BASE",
      "outputs": [
        {
          "internalType": "uint256",
          "name": "",
          "type": "uint256"
        }
      ],
      "stateMutability": "view",
      "type": "function"
    },
    {
      "inputs": [],
      "name": "MIN_FEE",
      "outputs": [
        {
          "internalType": "uint256",
          "name": "",
          "type": "uint256"
        }
      ],
      "stateMutability": "view",
      "type": "function"
    },
    {
      "inputs": [],
      "name": "MIN_WEIGHT",
      "outputs": [
        {
          "internalType": "uint256",
          "name": "",
          "type": "uint256"
        }
      ],
      "stateMutability": "view",
      "type": "function"
    },
    {
      "inputs": [
        {
          "internalType": "address",
          "name": "_dispenser",
          "type": "address"
        }
      ],
      "name": "addDispenserContract",
      "outputs": [],
      "stateMutability": "nonpayable",
      "type": "function"
    },
    {
      "inputs": [
        {
          "internalType": "address",
          "name": "_factory",
          "type": "address"
        }
      ],
      "name": "addFactory",
      "outputs": [],
      "stateMutability": "nonpayable",
      "type": "function"
    },
    {
      "inputs": [
        {
          "internalType": "address",
          "name": "_fixedRate",
          "type": "address"
        }
      ],
      "name": "addFixedRateContract",
      "outputs": [],
      "stateMutability": "nonpayable",
      "type": "function"
    },
    {
      "inputs": [
        {
          "internalType": "address",
          "name": "oceanTokenAddress",
          "type": "address"
        }
      ],
      "name": "addOceanToken",
      "outputs": [],
      "stateMutability": "nonpayable",
      "type": "function"
    },
    {
      "inputs": [
        {
          "internalType": "address",
          "name": "poolTemplate",
          "type": "address"
        }
      ],
      "name": "addPoolTemplate",
      "outputs": [],
      "stateMutability": "nonpayable",
      "type": "function"
    },
    {
      "inputs": [
        {
          "internalType": "address",
          "name": "_ssContract",
          "type": "address"
        }
      ],
      "name": "addSSContract",
      "outputs": [],
      "stateMutability": "nonpayable",
      "type": "function"
    },
    {
      "inputs": [
        {
          "components": [
            {
              "internalType": "bytes32",
              "name": "exchangeIds",
              "type": "bytes32"
            },
            {
              "internalType": "address",
              "name": "source",
              "type": "address"
            },
            {
              "internalType": "enum FactoryRouter.operationType",
              "name": "operation",
              "type": "uint8"
            },
            {
              "internalType": "address",
              "name": "tokenIn",
              "type": "address"
            },
            {
              "internalType": "uint256",
              "name": "amountsIn",
              "type": "uint256"
            },
            {
              "internalType": "address",
              "name": "tokenOut",
              "type": "address"
            },
            {
              "internalType": "uint256",
              "name": "amountsOut",
              "type": "uint256"
            },
            {
              "internalType": "uint256",
              "name": "maxPrice",
              "type": "uint256"
            }
          ],
          "internalType": "struct FactoryRouter.Operations[]",
          "name": "_operations",
          "type": "tuple[]"
        }
      ],
      "name": "buyDTBatch",
      "outputs": [],
      "stateMutability": "nonpayable",
      "type": "function"
    },
    {
      "inputs": [
        {
          "internalType": "address",
          "name": "_routerOwner",
          "type": "address"
        }
      ],
      "name": "changeRouterOwner",
      "outputs": [],
      "stateMutability": "nonpayable",
      "type": "function"
    },
    {
      "inputs": [
        {
          "internalType": "address",
          "name": "_dispenser",
          "type": "address"
        },
        {
          "internalType": "address",
          "name": "datatoken",
          "type": "address"
        },
        {
          "internalType": "uint256",
          "name": "maxTokens",
          "type": "uint256"
        },
        {
          "internalType": "uint256",
          "name": "maxBalance",
          "type": "uint256"
        },
        {
          "internalType": "address",
          "name": "owner",
          "type": "address"
        },
        {
          "internalType": "address",
          "name": "allowedSwapper",
          "type": "address"
        }
      ],
      "name": "deployDispenser",
      "outputs": [],
      "stateMutability": "nonpayable",
      "type": "function"
    },
    {
      "inputs": [
        {
          "internalType": "address",
          "name": "fixedPriceAddress",
          "type": "address"
        },
        {
          "internalType": "address[]",
          "name": "addresses",
          "type": "address[]"
        },
        {
          "internalType": "uint256[]",
          "name": "uints",
          "type": "uint256[]"
        }
      ],
      "name": "deployFixedRate",
      "outputs": [
        {
          "internalType": "bytes32",
          "name": "exchangeId",
          "type": "bytes32"
        }
      ],
      "stateMutability": "nonpayable",
      "type": "function"
    },
    {
      "inputs": [
        {
          "internalType": "address[2]",
          "name": "tokens",
          "type": "address[2]"
        },
        {
          "internalType": "uint256[]",
          "name": "ssParams",
          "type": "uint256[]"
        },
        {
          "internalType": "uint256[]",
          "name": "swapFees",
          "type": "uint256[]"
        },
        {
          "internalType": "address[]",
          "name": "addresses",
          "type": "address[]"
        }
      ],
      "name": "deployPool",
      "outputs": [
        {
          "internalType": "address",
          "name": "",
          "type": "address"
        }
      ],
      "stateMutability": "nonpayable",
      "type": "function"
    },
    {
      "inputs": [
        {
          "internalType": "address",
          "name": "",
          "type": "address"
        }
      ],
      "name": "dispenser",
      "outputs": [
        {
          "internalType": "bool",
          "name": "",
          "type": "bool"
        }
      ],
      "stateMutability": "view",
      "type": "function"
    },
    {
      "inputs": [],
      "name": "factory",
      "outputs": [
        {
          "internalType": "address",
          "name": "",
          "type": "address"
        }
      ],
      "stateMutability": "view",
      "type": "function"
    },
    {
      "inputs": [
        {
          "internalType": "address",
          "name": "",
          "type": "address"
        }
      ],
      "name": "fixedPrice",
      "outputs": [
        {
          "internalType": "bool",
          "name": "",
          "type": "bool"
        }
      ],
      "stateMutability": "view",
      "type": "function"
    },
    {
      "inputs": [],
      "name": "fixedRate",
      "outputs": [
        {
          "internalType": "address",
          "name": "",
          "type": "address"
        }
      ],
      "stateMutability": "view",
      "type": "function"
    },
    {
      "inputs": [
        {
          "internalType": "address",
          "name": "baseToken",
          "type": "address"
        }
      ],
      "name": "getOPFFee",
      "outputs": [
        {
          "internalType": "uint256",
          "name": "",
          "type": "uint256"
        }
      ],
      "stateMutability": "view",
      "type": "function"
    },
    {
      "inputs": [
        {
          "internalType": "address",
          "name": "poolTemplate",
          "type": "address"
        }
      ],
      "name": "isPoolTemplate",
      "outputs": [
        {
          "internalType": "bool",
          "name": "",
          "type": "bool"
        }
      ],
      "stateMutability": "view",
      "type": "function"
    },
    {
      "inputs": [
        {
          "internalType": "address",
          "name": "",
          "type": "address"
        }
      ],
      "name": "oceanTokens",
      "outputs": [
        {
          "internalType": "bool",
          "name": "",
          "type": "bool"
        }
      ],
      "stateMutability": "view",
      "type": "function"
    },
    {
      "inputs": [],
      "name": "opfCollector",
      "outputs": [
        {
          "internalType": "address",
          "name": "",
          "type": "address"
        }
      ],
      "stateMutability": "view",
      "type": "function"
    },
    {
      "inputs": [
        {
          "internalType": "address",
          "name": "oceanTokenAddress",
          "type": "address"
        }
      ],
      "name": "removeOceanToken",
      "outputs": [],
      "stateMutability": "nonpayable",
      "type": "function"
    },
    {
      "inputs": [
        {
          "internalType": "address",
          "name": "poolTemplate",
          "type": "address"
        }
      ],
      "name": "removePoolTemplate",
      "outputs": [],
      "stateMutability": "nonpayable",
      "type": "function"
    },
    {
      "inputs": [],
      "name": "routerOwner",
      "outputs": [
        {
          "internalType": "address",
          "name": "",
          "type": "address"
        }
      ],
      "stateMutability": "view",
      "type": "function"
    },
    {
      "inputs": [
        {
          "internalType": "address",
          "name": "",
          "type": "address"
        }
      ],
      "name": "ssContracts",
      "outputs": [
        {
          "internalType": "bool",
          "name": "",
          "type": "bool"
        }
      ],
      "stateMutability": "view",
      "type": "function"
    },
    {
      "inputs": [],
      "name": "swapOceanFee",
      "outputs": [
        {
          "internalType": "uint256",
          "name": "",
          "type": "uint256"
        }
      ],
      "stateMutability": "view",
      "type": "function"
    },
    {
      "inputs": [
        {
          "internalType": "uint256",
          "name": "_newSwapOceanFee",
          "type": "uint256"
        }
      ],
      "name": "updateOPFFee",
      "outputs": [],
      "stateMutability": "nonpayable",
      "type": "function"
    }
  ],
  "bytecode": "0x608060405266038d7ea4c680006005553480156200001c57600080fd5b5060405162003295380380620032958339810160408190526200003f91620003a6565b8282826001600160a01b038316620000b45760405162461bcd60e51b815260206004820152602d60248201527f42466163746f72793a20696e76616c69642062706f6f6c2074656d706c61746560448201526c207a65726f206164647265737360981b60648201526084015b60405180910390fd5b6001600160a01b0382166200010c5760405162461bcd60e51b815260206004820152601660248201527f42466163746f72793a207a65726f2061646472657373000000000000000000006044820152606401620000ab565b600080546001600160a01b0319166001600160a01b03841617905562000153836001600160a01b03166000908152600160208190526040909120805460ff19169091179055565b805115620002025760005b8151811015620002005760006001600160a01b0316336001600160a01b0316838381518110620001925762000192620004f7565b602090810291909101810151604080516000808252938101849052908101929092526001600160a01b0316907fbb6121447d29a04cc37bfd93cdf6a9dd08229f2d941116c1528f04698c4e790e9060600160405180910390a480620001f781620004cd565b9150506200015e565b505b5050506001600160a01b038516620002695760405162461bcd60e51b815260206004820152602360248201527f466163746f7279526f757465723a20496e76616c696420726f75746572206f776044820152623732b960e91b6064820152608401620000ab565b6001600160a01b038216620002cd5760405162461bcd60e51b815260206004820152602360248201527f466163746f7279526f757465723a20496e76616c6964206f7066436f6c6c65636044820152623a37b960e91b6064820152608401620000ab565b6001600160a01b038416620003385760405162461bcd60e51b815260206004820152602a60248201527f466163746f7279526f757465723a20496e76616c6964204f6365616e20546f6b604482015269656e206164647265737360b01b6064820152608401620000ab565b50600280546001600160a01b03199081166001600160a01b039687161790915560008054909116918516919091178155919092168152600660205260409020805460ff191660011790555062000523565b80516001600160a01b0381168114620003a157600080fd5b919050565b600080600080600060a08688031215620003bf57600080fd5b620003ca8662000389565b94506020620003db81880162000389565b9450620003eb6040880162000389565b9350620003fb6060880162000389565b60808801519093506001600160401b03808211156200041957600080fd5b818901915089601f8301126200042e57600080fd5b8151818111156200044357620004436200050d565b8060051b604051601f19603f830116810181811085821117156200046b576200046b6200050d565b604052828152858101935084860182860187018e10156200048b57600080fd5b600095505b83861015620004b957620004a48162000389565b85526001959095019493860193860162000490565b508096505050505050509295509295909350565b6000600019821415620004f057634e487b7160e01b600052601160045260246000fd5b5060010190565b634e487b7160e01b600052603260045260246000fd5b634e487b7160e01b600052604160045260246000fd5b612d6280620005336000396000f3fe608060405234801561001057600080fd5b50600436106102535760003560e01c8063b7b800a411610146578063d86850cc116100c3578063e525f99c11610087578063e525f99c146104b7578063ec093021146104ca578063ee3bc635146104d2578063ee661f67146104e5578063f4d9e1e414610508578063f8154aee1461051b57600080fd5b8063d86850cc14610465578063de9a95a714610488578063e183fb3f1461049b578063e193faad146104a4578063e4a28a521461026d57600080fd5b8063c1c436a51161010a578063c1c436a514610424578063c36596a6146102a3578063c45a015514610437578063c6580d121461044a578063d629a00a1461045257600080fd5b8063b7b800a4146103c5578063ba019dab146103e0578063bc063e1a146103e8578063bc694ea2146103f0578063c07c00fe146103f857600080fd5b806382449375116101d45780639cdfa6ad116101985780639cdfa6ad1461037c5780639f587d4d1461038f578063a28f78f1146103b2578063b0e0d136146103c5578063b19aaac6146103cd57600080fd5b8063824493751461033e5780638552730a14610351578063867378c5146103645780639381cd2b1461036c578063992e2a921461037457600080fd5b806329ce1ec51161021b57806329ce1ec5146102b25780636c9fb612146102c557806376c7a3c7146102d857806379463a0e146102e0578063802d14221461031357600080fd5b80630318ad661461025857806309a3bbe41461026d57806316d9cb3d14610288578063189d00ca1461029b578063218b5382146102a3575b600080fd5b61026b6102663660046125c1565b61052e565b005b6102756105ab565b6040519081526020015b60405180910390f35b61026b6102963660046125c1565b6105c1565b610275610677565b610275670de0b6b3a764000081565b61026b6102c03660046125c1565b61068e565b61026b6102d33660046125c1565b61078f565b610275610846565b6103036102ee3660046125c1565b60066020526000908152604090205460ff1681565b604051901515815260200161027f565b600454610326906001600160a01b031681565b6040516001600160a01b03909116815260200161027f565b61027561034c366004612702565b61085b565b600254610326906001600160a01b031681565b610275610a08565b610275610a1f565b610275610a32565b61026b61038a3660046125c1565b610a50565b61030361039d3660046125c1565b60086020526000908152604090205460ff1681565b600054610326906001600160a01b031681565b610275600281565b61026b6103db3660046125c1565b610ac1565b610275600181565b610275610b19565b610275610b2c565b6103036104063660046125c1565b6001600160a01b031660009081526001602052604090205460ff1690565b61026b6104323660046128ff565b610b4b565b600354610326906001600160a01b031681565b610275600081565b61026b610460366004612692565b610b7a565b6103036104733660046125c1565b60096020526000908152604090205460ff1681565b61026b6104963660046125c1565b610d16565b61027560055481565b61026b6104b23660046125c1565b610dcc565b61026b6104c53660046125c1565b610e1b565b610275610ebd565b6103266104e0366004612785565b610ed0565b6103036104f33660046125c1565b60076020526000908152604090205460ff1681565b61026b610516366004612835565b6112ad565b6102756105293660046125c1565b611dbe565b6002546001600160a01b031633146105615760405162461bcd60e51b815260040161055890612bee565b60405180910390fd5b6001600160a01b0381166105875760405162461bcd60e51b815260040161055890612ba4565b6001600160a01b03166000908152600660205260409020805460ff19166001179055565b6105be670de0b6b3a76400006032612c58565b81565b6002546001600160a01b031633146105eb5760405162461bcd60e51b815260040161055890612bee565b6001600160a01b0381166106535760405162461bcd60e51b815260206004820152602960248201527f466163746f7279526f757465723a20496e76616c6964205f666978656452617460448201526865206164647265737360b81b6064820152608401610558565b6001600160a01b03166000908152600860205260409020805460ff19166001179055565b6105be6402540be400670de0b6b3a7640000612c36565b6002546001600160a01b031633146106b85760405162461bcd60e51b815260040161055890612bee565b6001600160a01b03811661071e5760405162461bcd60e51b815260206004820152602760248201527f466163746f7279526f757465723a20496e76616c6964205f666163746f7279206044820152666164647265737360c81b6064820152608401610558565b6003546001600160a01b03161561076d5760405162461bcd60e51b8152602060048201526013602482015272119050d513d49648105314915051164814d155606a1b6044820152606401610558565b600380546001600160a01b0319166001600160a01b0392909216919091179055565b6002546001600160a01b031633146107b95760405162461bcd60e51b815260040161055890612bee565b6001600160a01b0381166108225760405162461bcd60e51b815260206004820152602a60248201527f466163746f7279526f757465723a20496e76616c6964205f7373436f6e7472616044820152696374206164647265737360b01b6064820152608401610558565b6001600160a01b03166000908152600760205260409020805460ff19166001179055565b6105be620f4240670de0b6b3a7640000612c36565b60035460405163226e761560e01b81523360048201526000916001600160a01b03169063226e76159060240160206040518083038186803b15801561089f57600080fd5b505afa1580156108b3573d6000803e3d6000fd5b505050506040513d601f19601f820116820180604052508101906108d791906128aa565b15156001146108f85760405162461bcd60e51b815260040161055890612b59565b6001600160a01b03861660009081526008602052604090205460ff1615156001146109785760405162461bcd60e51b815260206004820152602a60248201527f464143544f525920524f555445523a20496e76616c696420466978656450726960448201526918d950dbdb9d1c9858dd60b21b6064820152608401610558565b60405163012c327560e01b81526001600160a01b0387169063012c3275906109ac9033908990899089908990600401612a97565b602060405180830381600087803b1580156109c657600080fd5b505af11580156109da573d6000803e3d6000fd5b505050506040513d601f19601f820116820180604052508101906109fe91906128c5565b9695505050505050565b6105be64e8d4a51000670de0b6b3a7640000612c36565b6105be670de0b6b3a76400006064612c58565b610a456003670de0b6b3a7640000612c36565b6105be906001612c1e565b6002546001600160a01b03163314610a7a5760405162461bcd60e51b815260040161055890612bee565b6001600160a01b038116610aa05760405162461bcd60e51b815260040161055890612ba4565b6001600160a01b03166000908152600660205260409020805460ff19169055565b6002546001600160a01b03163314610aeb5760405162461bcd60e51b815260040161055890612bee565b610b16816001600160a01b03166000908152600160208190526040909120805460ff19169091179055565b50565b6105be600a670de0b6b3a7640000612c36565b6001610b41670de0b6b3a76400006002612c58565b6105be9190612c77565b6002546001600160a01b03163314610b755760405162461bcd60e51b815260040161055890612bee565b600555565b60035460405163226e761560e01b81523360048201526001600160a01b039091169063226e76159060240160206040518083038186803b158015610bbd57600080fd5b505afa158015610bd1573d6000803e3d6000fd5b505050506040513d601f19601f82011682018060405250810190610bf591906128aa565b1515600114610c165760405162461bcd60e51b815260040161055890612b59565b6001600160a01b03861660009081526009602052604090205460ff161515600114610c955760405162461bcd60e51b815260206004820152602960248201527f464143544f525920524f555445523a20496e76616c69642044697370656e73656044820152681c90dbdb9d1c9858dd60ba1b6064820152608401610558565b6040516324ce291760e01b81526001600160a01b0386811660048301526024820186905260448201859052838116606483015282811660848301528716906324ce29179060a401600060405180830381600087803b158015610cf657600080fd5b505af1158015610d0a573d6000803e3d6000fd5b50505050505050505050565b6002546001600160a01b03163314610d405760405162461bcd60e51b815260040161055890612bee565b6001600160a01b038116610da85760405162461bcd60e51b815260206004820152602960248201527f466163746f7279526f757465723a20496e76616c6964205f64697370656e736560448201526872206164647265737360b81b6064820152608401610558565b6001600160a01b03166000908152600960205260409020805460ff19166001179055565b6002546001600160a01b03163314610df65760405162461bcd60e51b815260040161055890612bee565b610b16816001600160a01b03166000908152600160205260409020805460ff19169055565b6002546001600160a01b03163314610e455760405162461bcd60e51b815260040161055890612bee565b6001600160a01b038116610e9b5760405162461bcd60e51b815260206004820152601860248201527f496e76616c6964206e657720726f75746572206f776e657200000000000000006044820152606401610558565b600280546001600160a01b0319166001600160a01b0392909216919091179055565b6105be6002670de0b6b3a7640000612c36565b60035460405163226e761560e01b81523360048201526000916001600160a01b03169063226e76159060240160206040518083038186803b158015610f1457600080fd5b505afa158015610f28573d6000803e3d6000fd5b505050506040513d601f19601f82011682018060405250810190610f4c91906128aa565b1515600114610f6d5760405162461bcd60e51b815260040161055890612b59565b6007600084846000818110610f8457610f84612d01565b9050602002016020810190610f9991906125c1565b6001600160a01b0316815260208101919091526040016000205460ff1615156001146110125760405162461bcd60e51b815260206004820152602260248201527f464143544f525920524f555445523a20696e76616c6964207373436f6e74726160448201526118dd60f21b6064820152608401610558565b60008787600181811061102757611027612d01565b905060200201351161106c5760405162461bcd60e51b815260206004820152600e60248201526d57726f6e6720646563696d616c7360901b6044820152606401610558565b600060068161108160408c0160208d016125c1565b6001600160a01b0316815260208101919091526040016000205460ff161515600114156110ac575060015b60006110be60408b0160208c016125c1565b9050611147858560028181106110d6576110d6612d01565b90506020020160208101906110eb91906125c1565b868660008181106110fe576110fe612d01565b905060200201602081019061111391906125c1565b8b8b600481811061112657611126612d01565b90506020020135846001600160a01b0316611df9909392919063ffffffff16565b60408051808201825260009161120a91908d90600290839083908082843760009201919091525050604080516020808f0282810182019093528e82529092508e918e9182919085019084908082843760009201919091525050604080516020808f0282810182019093528e82529093508e92508d91829185019084908082843760009201919091525050604080516020808e0282810182019093528d82529093508d92508c918291850190849080828437600092019190915250611e6a92505050565b90506001600160a01b03811661125a5760405162461bcd60e51b8152602060048201526015602482015274119052531151081513c81111541313d6481413d3d3605a1b6044820152606401610558565b806001600160a01b03167f90279d7790471e260411db76079630dfaa838fc987d29ae7aa7dc1bcd773ef2e84604051611297911515815260200190565b60405180910390a29a9950505050505050505050565b60005b81811015611db95760008383838181106112cc576112cc612d01565b9050610100020160400160208101906112e591906128de565b60038111156112f6576112f6612ceb565b14156115a85761135a333085858581811061131357611313612d01565b905061010002016080013586868681811061133057611330612d01565b90506101000201606001602081019061134991906125c1565b6001600160a01b0316929190611df9565b6113e083838381811061136f5761136f612d01565b90506101000201602001602081019061138891906125c1565b84848481811061139a5761139a612d01565b90506101000201608001358585858181106113b7576113b7612d01565b9050610100020160600160208101906113d091906125c1565b6001600160a01b03169190612198565b60008383838181106113f4576113f4612d01565b90506101000201602001602081019061140d91906125c1565b6001600160a01b0316638201aa3f85858581811061142d5761142d612d01565b90506101000201606001602081019061144691906125c1565b86868681811061145857611458612d01565b905061010002016080013587878781811061147557611475612d01565b9050610100020160a001602081019061148e91906125c1565b8888888181106114a0576114a0612d01565b9050610100020160c001358989898181106114bd576114bd612d01565b60405160e089811b6001600160e01b03191682526001600160a01b03988916600483015260248201979097529490961660448501525060648301919091526101009093029092010135608482015260a4016040805180830381600087803b15801561152757600080fd5b505af115801561153b573d6000803e3d6000fd5b505050506040513d601f19601f8201168201806040525081019061155f9190612918565b5090506115a2338286868681811061157957611579612d01565b9050610100020160a001602081019061159291906125c1565b6001600160a01b03169190612259565b50611da7565b60018383838181106115bc576115bc612d01565b9050610100020160400160208101906115d591906128de565b60038111156115e6576115e6612ceb565b141561192d57600083838381811061160057611600612d01565b90506101000201602001602081019061161991906125c1565b6001600160a01b0316632ea07d8a85858581811061163957611639612d01565b90506101000201606001602081019061165291906125c1565b86868681811061166457611664612d01565b9050610100020160a001602081019061167d91906125c1565b87878781811061168f5761168f612d01565b6040516001600160e01b031960e088901b1681526001600160a01b0395861660048201529490931660248501525060c0610100909202010135604482015260640160206040518083038186803b1580156116e857600080fd5b505afa1580156116fc573d6000803e3d6000fd5b505050506040513d601f19601f8201168201806040525081019061172091906128c5565b905061173a33308387878781811061133057611330612d01565b61177b84848481811061174f5761174f612d01565b90506101000201602001602081019061176891906125c1565b828686868181106113b7576113b7612d01565b83838381811061178d5761178d612d01565b9050610100020160200160208101906117a691906125c1565b6001600160a01b0316637c5e9ea48585858181106117c6576117c6612d01565b9050610100020160600160208101906117df91906125c1565b8686868181106117f1576117f1612d01565b905061010002016080013587878781811061180e5761180e612d01565b9050610100020160a001602081019061182791906125c1565b88888881811061183957611839612d01565b9050610100020160c0013589898981811061185657611856612d01565b60405160e089811b6001600160e01b03191682526001600160a01b03988916600483015260248201979097529490961660448501525060648301919091526101009093029092010135608482015260a4016040805180830381600087803b1580156118c057600080fd5b505af11580156118d4573d6000803e3d6000fd5b505050506040513d601f19601f820116820180604052508101906118f89190612918565b50506115a23385858581811061191057611910612d01565b9050610100020160c0013586868681811061157957611579612d01565b600283838381811061194157611941612d01565b90506101000201604001602081019061195a91906128de565b600381111561196b5761196b612ceb565b1415611cbe57600083838381811061198557611985612d01565b90506101000201602001602081019061199e91906125c1565b6001600160a01b0316634c87087d8585858181106119be576119be612d01565b90506101000201600001356040518263ffffffff1660e01b81526004016119e791815260200190565b6101806040518083038186803b158015611a0057600080fd5b505afa158015611a14573d6000803e3d6000fd5b505050506040513d601f19601f82011682018060405250810190611a3891906125de565b505050505050505050509150506000848484818110611a5957611a59612d01565b905061010002016020016020810190611a7291906125c1565b6001600160a01b031663c99733a7868686818110611a9257611a92612d01565b9050610100020160000135878787818110611aaf57611aaf612d01565b9050610100020160c001356040518363ffffffff1660e01b8152600401611ae0929190918252602082015260400190565b60806040518083038186803b158015611af857600080fd5b505afa158015611b0c573d6000803e3d6000fd5b505050506040513d601f19601f82011682018060405250810190611b30919061293c565b5050509050611b4d33308388888881811061133057611330612d01565b611b8e858585818110611b6257611b62612d01565b905061010002016020016020810190611b7b91906125c1565b828787878181106113b7576113b7612d01565b848484818110611ba057611ba0612d01565b905061010002016020016020810190611bb991906125c1565b6001600160a01b031663825b5cd6868686818110611bd957611bd9612d01565b9050610100020160000135878787818110611bf657611bf6612d01565b9050610100020160c00135888888818110611c1357611c13612d01565b6040516001600160e01b031960e088901b168152600481019590955260248501939093525060806101009092020101356044820152606401600060405180830381600087803b158015611c6557600080fd5b505af1158015611c79573d6000803e3d6000fd5b50505050611cb733868686818110611c9357611c93612d01565b9050610100020160c00135846001600160a01b03166122599092919063ffffffff16565b5050611da7565b828282818110611cd057611cd0612d01565b905061010002016020016020810190611ce991906125c1565b6001600160a01b0316631d746d83848484818110611d0957611d09612d01565b9050610100020160a0016020810190611d2291906125c1565b858585818110611d3457611d34612d01565b60405160e086901b6001600160e01b03191681526001600160a01b03949094166004850152610100029190910160c00135602483015250336044820152606401600060405180830381600087803b158015611d8e57600080fd5b505af1158015611da2573d6000803e3d6000fd5b505050505b80611db181612cba565b9150506112b0565b505050565b6001600160a01b03811660009081526006602052604081205460ff16151560011415611dec57506000919050565b505060055490565b919050565b6040516001600160a01b0380851660248301528316604482015260648101829052611e649085906323b872dd60e01b906084015b60408051601f198184030181529190526020810180516001600160e01b03166001600160e01b031990931692909217909152612289565b50505050565b60006001600083600581518110611e8357611e83612d01565b6020908102919091018101516001600160a01b031682528101919091526040016000205460ff161515600114611efb5760405162461bcd60e51b815260206004820152601d60248201527f42466163746f72793a2057726f6e6720506f6f6c2054656d706c6174650000006044820152606401610558565b6000604051806040016040528084600481518110611f1b57611f1b612d01565b6020908102919091018101516001600160a01b039081168352600054169101528351909150611f649084906005908110611f5757611f57612d01565b602002602001015161235b565b91506001600160a01b038216611fc85760405162461bcd60e51b8152602060048201526024808201527f42466163746f72793a20696e76616c69642062706f6f6c207a65726f206164646044820152637265737360e01b6064820152608401610558565b6000829050806001600160a01b031663c070a6d885600081518110611fef57611fef612d01565b602002602001015130886000808d896040518863ffffffff1660e01b81526004016120209796959493929190612a31565b602060405180830381600087803b15801561203a57600080fd5b505af115801561204e573d6000803e3d6000fd5b505050506040513d601f19601f8201168201806040525081019061207291906128aa565b6120b55760405162461bcd60e51b815260206004820152601460248201527311549497d253925512505312569157d09413d3d360621b6044820152606401610558565b836000815181106120c8576120c8612d01565b60200260200101516001600160a01b03166353f0c3b4886000600281106120f1576120f1612d01565b60200201518960016020020151868860038151811061211257612112612d01565b60200260200101518b6040518663ffffffff1660e01b815260040161213b9594939291906129f5565b602060405180830381600087803b15801561215557600080fd5b505af1158015612169573d6000803e3d6000fd5b505050506040513d601f19601f8201168201806040525081019061218d91906128aa565b505050949350505050565b604051636eb1769f60e11b81523060048201526001600160a01b038381166024830152600091839186169063dd62ed3e9060440160206040518083038186803b1580156121e457600080fd5b505afa1580156121f8573d6000803e3d6000fd5b505050506040513d601f19601f8201168201806040525081019061221c91906128c5565b6122269190612c1e565b6040516001600160a01b038516602482015260448101829052909150611e6490859063095ea7b360e01b90606401611e2d565b6040516001600160a01b038316602482015260448101829052611db990849063a9059cbb60e01b90606401611e2d565b60006122de826040518060400160405280602081526020017f5361666545524332303a206c6f772d6c6576656c2063616c6c206661696c6564815250856001600160a01b03166123eb9092919063ffffffff16565b805190915015611db957808060200190518101906122fc91906128aa565b611db95760405162461bcd60e51b815260206004820152602a60248201527f5361666545524332303a204552433230206f7065726174696f6e20646964206e6044820152691bdd081cdd58d8d9595960b21b6064820152608401610558565b6000808260601b9050604051733d602d80600a3d3981f3363d3d373d3d3d363d7360601b81528160148201526e5af43d82803e903d91602b57fd5bf360881b60288201526037816000f06040516001600160a01b03821681529093507f117c72e6c25f0a072e36e148df71468ce2f3dbe7defec5b2c257a6e3eb65278c915060200160405180910390a150919050565b60606123fa8484600085612404565b90505b9392505050565b6060824710156124655760405162461bcd60e51b815260206004820152602660248201527f416464726573733a20696e73756666696369656e742062616c616e636520666f6044820152651c8818d85b1b60d21b6064820152608401610558565b843b6124b35760405162461bcd60e51b815260206004820152601d60248201527f416464726573733a2063616c6c20746f206e6f6e2d636f6e74726163740000006044820152606401610558565b600080866001600160a01b031685876040516124cf91906129d9565b60006040518083038185875af1925050503d806000811461250c576040519150601f19603f3d011682016040523d82523d6000602084013e612511565b606091505b509150915061252182828661252c565b979650505050505050565b6060831561253b5750816123fd565b82511561254b5782518084602001fd5b8160405162461bcd60e51b81526004016105589190612b26565b60008083601f84011261257757600080fd5b50813567ffffffffffffffff81111561258f57600080fd5b6020830191508360208260051b85010111156125aa57600080fd5b9250929050565b80518015158114611df457600080fd5b6000602082840312156125d357600080fd5b81356123fd81612d17565b6000806000806000806000806000806000806101808d8f03121561260157600080fd5b8c5161260c81612d17565b60208e0151909c5061261d81612d17565b60408e015160608f0151919c509a5061263581612d17565b60808e015160a08f0151919a509850965061265260c08e016125b1565b955060e08d015194506101008d015193506101208d015192506101408d015191506126806101608e016125b1565b90509295989b509295989b509295989b565b60008060008060008060c087890312156126ab57600080fd5b86356126b681612d17565b955060208701356126c681612d17565b9450604087013593506060870135925060808701356126e481612d17565b915060a08701356126f481612d17565b809150509295509295509295565b60008060008060006060868803121561271a57600080fd5b853561272581612d17565b9450602086013567ffffffffffffffff8082111561274257600080fd5b61274e89838a01612565565b9096509450604088013591508082111561276757600080fd5b5061277488828901612565565b969995985093965092949392505050565b600080600080600080600060a0888a0312156127a057600080fd5b60408801898111156127b157600080fd5b8897503567ffffffffffffffff808211156127cb57600080fd5b6127d78b838c01612565565b909850965060608a01359150808211156127f057600080fd5b6127fc8b838c01612565565b909650945060808a013591508082111561281557600080fd5b506128228a828b01612565565b989b979a50959850939692959293505050565b6000806020838503121561284857600080fd5b823567ffffffffffffffff8082111561286057600080fd5b818501915085601f83011261287457600080fd5b81358181111561288357600080fd5b8660208260081b850101111561289857600080fd5b60209290920196919550909350505050565b6000602082840312156128bc57600080fd5b6123fd826125b1565b6000602082840312156128d757600080fd5b5051919050565b6000602082840312156128f057600080fd5b8135600481106123fd57600080fd5b60006020828403121561291157600080fd5b5035919050565b6000806040838503121561292b57600080fd5b505080516020909101519092909150565b6000806000806080858703121561295257600080fd5b505082516020840151604085015160609095015191969095509092509050565b8060005b6002811015611e645781516001600160a01b0316845260209384019390910190600101612976565b600081518084526020808501945080840160005b838110156129ce578151875295820195908201906001016129b2565b509495945050505050565b600082516129eb818460208701612c8e565b9190910192915050565b6001600160a01b038681168252858116602083015284811660408301528316606082015260a0608082018190526000906125219083018461299e565b6001600160a01b0388811682528716602082015261012060408201819052600090612a5e8382018961299e565b91505085151560608301528415156080830152612a7e60a0830185612972565b612a8b60e0830184612972565b98975050505050505050565b6001600160a01b03868116825260606020808401829052908301869052600091879160808501845b89811015612ae6578435612ad281612d17565b841682529382019390820190600101612abf565b5085810360408701528681526001600160fb1b03871115612b0657600080fd5b8660051b9350838883830137600093010191825250979650505050505050565b6020815260008251806020840152612b45816040850160208701612c8e565b601f01601f19169190910160400192915050565b6020808252602b908201527f464143544f525920524f555445523a204e4f54204f524947494e414c2045524360408201526a32302054454d504c41544560a81b606082015260800190565b6020808252602a908201527f466163746f7279526f757465723a20496e76616c6964204f6365616e20546f6b604082015269656e206164647265737360b01b606082015260800190565b60208082526016908201527527b1b2b0b72937baba32b91d102727aa1027aba722a960511b604082015260600190565b60008219821115612c3157612c31612cd5565b500190565b600082612c5357634e487b7160e01b600052601260045260246000fd5b500490565b6000816000190483118215151615612c7257612c72612cd5565b500290565b600082821015612c8957612c89612cd5565b500390565b60005b83811015612ca9578181015183820152602001612c91565b83811115611e645750506000910152565b6000600019821415612cce57612cce612cd5565b5060010190565b634e487b7160e01b600052601160045260246000fd5b634e487b7160e01b600052602160045260246000fd5b634e487b7160e01b600052603260045260246000fd5b6001600160a01b0381168114610b1657600080fdfea26469706673582212201f04a8f75b5fac36dd2d6a97ed542d783ab91ac7c1e81ee8f2169dd2d02e4ae564736f6c63430008070033",
  "linkReferences": {},
  "deployedLinkReferences": {}
}