{
  "_format": "hh-sol-artifact-1",
  "contractName": "ERC721RolesAddress",
  "sourceName": "contracts/utils/ERC721RolesAddress.sol",
  "abi": [
    {
      "inputs": [
        {
          "internalType": "address",
          "name": "_allowedAddress",
          "type": "address"
        }
      ],
      "name": "addTo725StoreList",
      "outputs": [],
      "stateMutability": "nonpayable",
      "type": "function"
    },
    {
      "inputs": [
        {
          "internalType": "address",
          "name": "_allowedAddress",
          "type": "address"
        }
      ],
      "name": "addToCreateERC20List",
      "outputs": [],
      "stateMutability": "nonpayable",
      "type": "function"
    },
    {
      "inputs": [
        {
          "internalType": "address",
          "name": "_allowedAddress",
          "type": "address"
        }
      ],
      "name": "addToMetadataList",
      "outputs": [],
      "stateMutability": "nonpayable",
      "type": "function"
    },
    {
      "inputs": [
        {
          "internalType": "uint256",
          "name": "",
          "type": "uint256"
        }
      ],
      "name": "auth",
      "outputs": [
        {
          "internalType": "address",
          "name": "",
          "type": "address"
        }
      ],
      "stateMutability": "view",
      "type": "function"
    },
    {
      "inputs": [
        {
          "internalType": "address",
          "name": "user",
          "type": "address"
        }
      ],
      "name": "getPermissions",
      "outputs": [
        {
          "components": [
            {
              "internalType": "bool",
              "name": "manager",
              "type": "bool"
            },
            {
              "internalType": "bool",
              "name": "deployERC20",
              "type": "bool"
            },
            {
              "internalType": "bool",
              "name": "updateMetadata",
              "type": "bool"
            },
            {
              "internalType": "bool",
              "name": "store",
              "type": "bool"
            },
            {
              "internalType": "bool",
              "name": "v3Minter",
              "type": "bool"
            }
          ],
          "internalType": "struct ERC721RolesAddress.Roles",
          "name": "",
          "type": "tuple"
        }
      ],
      "stateMutability": "view",
      "type": "function"
    },
    {
      "inputs": [
        {
          "internalType": "address",
          "name": "_allowedAddress",
          "type": "address"
        }
      ],
      "name": "removeFrom725StoreList",
      "outputs": [],
      "stateMutability": "nonpayable",
      "type": "function"
    },
    {
      "inputs": [
        {
          "internalType": "address",
          "name": "_allowedAddress",
          "type": "address"
        }
      ],
      "name": "removeFromCreateERC20List",
      "outputs": [],
      "stateMutability": "nonpayable",
      "type": "function"
    },
    {
      "inputs": [
        {
          "internalType": "address",
          "name": "_allowedAddress",
          "type": "address"
        }
      ],
      "name": "removeFromMetadataList",
      "outputs": [],
      "stateMutability": "nonpayable",
      "type": "function"
    }
  ],
  "bytecode": "0x608060405234801561001057600080fd5b50610603806100206000396000f3fe608060405234801561001057600080fd5b50600436106100885760003560e01c8063431053ac1161005b578063431053ac146100f15780634a63740a14610104578063b0c41ead14610117578063fe1ec8801461013757610088565b806310c558bf1461008d578063160a7925146100a257806319c186e5146100cb578063273e06b3146100de575b600080fd5b6100a061009b3660046104f8565b61014a565b005b6100b56100b03660046104f8565b6101ed565b6040516100c29190610589565b60405180910390f35b6100a06100d93660046104f8565b610267565b6100a06100ec3660046104f8565b610303565b6100a06100ff3660046104f8565b61035b565b6100a06101123660046104f8565b6103b2565b61012a610125366004610526565b61044a565b6040516100c2919061053e565b6100a06101453660046104f8565b610474565b3360009081526020819052604090205460ff1615156001146101875760405162461bcd60e51b815260040161017e90610552565b60405180910390fd5b6001600160a01b03166000818152602081905260408120805462ff000019166201000017905560018054808201825591527fb10e2d527612073b26eecdfd717e6a320cf44b4afac2b0732d9fcbe2b7fa0cf60180546001600160a01b0319169091179055565b6101f56104ca565b506001600160a01b031660009081526020818152604091829020825160a081018452905460ff8082161515835261010082048116151593830193909352620100008104831615159382019390935263010000008304821615156060820152640100000000909204161515608082015290565b3360009081526020819052604090205460ff16151560011461029b5760405162461bcd60e51b815260040161017e90610552565b6001600160a01b03166000818152602081905260408120805463ff0000001916630100000017905560018054808201825591527fb10e2d527612073b26eecdfd717e6a320cf44b4afac2b0732d9fcbe2b7fa0cf60180546001600160a01b0319169091179055565b3360009081526020819052604090205460ff1615156001146103375760405162461bcd60e51b815260040161017e90610552565b6001600160a01b03166000908152602081905260409020805463ff00000019169055565b3360009081526020819052604090205460ff16151560011461038f5760405162461bcd60e51b815260040161017e90610552565b6001600160a01b03166000908152602081905260409020805462ff000019169055565b3360009081526020819052604090205460ff1615156001146103e65760405162461bcd60e51b815260040161017e90610552565b6001600160a01b03166000818152602081905260408120805461ff00191661010017905560018054808201825591527fb10e2d527612073b26eecdfd717e6a320cf44b4afac2b0732d9fcbe2b7fa0cf60180546001600160a01b0319169091179055565b6001818154811061045a57600080fd5b6000918252602090912001546001600160a01b0316905081565b3360009081526020819052604090205460ff1615156001146104a85760405162461bcd60e51b815260040161017e90610552565b6001600160a01b03166000908152602081905260409020805461ff0019169055565b6040805160a08101825260008082526020820181905291810182905260608101829052608081019190915290565b600060208284031215610509578081fd5b81356001600160a01b038116811461051f578182fd5b9392505050565b600060208284031215610537578081fd5b5035919050565b6001600160a01b0391909116815260200190565b6020808252601f908201527f455243373231526f6c6573416464726573733a204e4f54204d414e4147455200604082015260600190565b600060a0820190508251151582526020830151151560208301526040830151151560408301526060830151151560608301526080830151151560808301529291505056fea2646970667358221220f9e4c52594bf3d4879ee86af236a24f70ce70494c57e900d70527922cc9302d364736f6c63430008000033",
  "linkReferences": {},
  "deployedLinkReferences": {}
}