{
  "_format": "hh-sol-artifact-1",
  "contractName": "ERC721Factory",
  "sourceName": "contracts/ERC721Factory.sol",
  "abi": [
    {
      "inputs": [
        {
          "internalType": "address",
          "name": "_template721",
          "type": "address"
        },
        {
          "internalType": "address",
          "name": "_template",
          "type": "address"
        },
        {
          "internalType": "address",
          "name": "_collector",
          "type": "address"
        },
        {
          "internalType": "address",
          "name": "_router",
          "type": "address"
        }
      ],
      "stateMutability": "nonpayable",
      "type": "constructor"
    },
    {
      "anonymous": false,
      "inputs": [
        {
          "indexed": true,
          "internalType": "address",
          "name": "datatokenAddress",
          "type": "address"
        },
        {
          "indexed": true,
          "internalType": "address",
          "name": "owner",
          "type": "address"
        },
        {
          "indexed": false,
          "internalType": "uint256",
          "name": "maxTokens",
          "type": "uint256"
        },
        {
          "indexed": false,
          "internalType": "uint256",
          "name": "maxBalance",
          "type": "uint256"
        },
        {
          "indexed": false,
          "internalType": "address",
          "name": "allowedSwapper",
          "type": "address"
        }
      ],
      "name": "DispenserCreated",
      "type": "event"
    },
    {
      "anonymous": false,
      "inputs": [
        {
          "indexed": false,
          "internalType": "address",
          "name": "instance",
          "type": "address"
        }
      ],
      "name": "InstanceDeployed",
      "type": "event"
    },
    {
      "anonymous": false,
      "inputs": [
        {
          "indexed": true,
          "internalType": "address",
          "name": "newTokenAddress",
          "type": "address"
        },
        {
          "indexed": true,
          "internalType": "address",
          "name": "templateAddress",
          "type": "address"
        },
        {
          "indexed": false,
          "internalType": "string",
          "name": "tokenName",
          "type": "string"
        },
        {
          "indexed": false,
          "internalType": "address",
          "name": "admin",
          "type": "address"
        },
        {
          "indexed": false,
          "internalType": "string",
          "name": "symbol",
          "type": "string"
        },
        {
          "indexed": false,
          "internalType": "string",
          "name": "tokenURI",
          "type": "string"
        }
      ],
      "name": "NFTCreated",
      "type": "event"
    },
    {
      "anonymous": false,
      "inputs": [
        {
          "indexed": false,
          "internalType": "bytes32",
          "name": "exchangeId",
          "type": "bytes32"
        },
        {
          "indexed": false,
          "internalType": "address",
          "name": "owner",
          "type": "address"
        }
      ],
      "name": "NewFixedRate",
      "type": "event"
    },
    {
      "anonymous": false,
      "inputs": [
        {
          "indexed": false,
          "internalType": "address",
          "name": "poolAddress",
          "type": "address"
        },
        {
          "indexed": false,
          "internalType": "address",
          "name": "ssContract",
          "type": "address"
        },
        {
          "indexed": false,
          "internalType": "address",
          "name": "basetokenAddress",
          "type": "address"
        }
      ],
      "name": "NewPool",
      "type": "event"
    },
    {
      "anonymous": false,
      "inputs": [
        {
          "indexed": true,
          "internalType": "address",
          "name": "previousOwner",
          "type": "address"
        },
        {
          "indexed": true,
          "internalType": "address",
          "name": "newOwner",
          "type": "address"
        }
      ],
      "name": "OwnershipTransferred",
      "type": "event"
    },
    {
      "anonymous": false,
      "inputs": [
        {
          "indexed": true,
          "internalType": "address",
          "name": "_templateAddress",
          "type": "address"
        },
        {
          "indexed": true,
          "internalType": "uint256",
          "name": "nftTemplateCount",
          "type": "uint256"
        }
      ],
      "name": "Template20Added",
      "type": "event"
    },
    {
      "anonymous": false,
      "inputs": [
        {
          "indexed": true,
          "internalType": "address",
          "name": "_templateAddress",
          "type": "address"
        },
        {
          "indexed": true,
          "internalType": "uint256",
          "name": "nftTemplateCount",
          "type": "uint256"
        }
      ],
      "name": "Template721Added",
      "type": "event"
    },
    {
      "anonymous": false,
      "inputs": [
        {
          "indexed": true,
          "internalType": "address",
          "name": "newTokenAddress",
          "type": "address"
        },
        {
          "indexed": true,
          "internalType": "address",
          "name": "templateAddress",
          "type": "address"
        },
        {
          "indexed": false,
          "internalType": "string",
          "name": "name",
          "type": "string"
        },
        {
          "indexed": false,
          "internalType": "string",
          "name": "symbol",
          "type": "string"
        },
        {
          "indexed": false,
          "internalType": "uint256",
          "name": "cap",
          "type": "uint256"
        },
        {
          "indexed": false,
          "internalType": "address",
          "name": "creator",
          "type": "address"
        }
      ],
      "name": "TokenCreated",
      "type": "event"
    },
    {
      "inputs": [
        {
          "internalType": "address",
          "name": "_templateAddress",
          "type": "address"
        }
      ],
      "name": "add721TokenTemplate",
      "outputs": [
        {
          "internalType": "uint256",
          "name": "",
          "type": "uint256"
        }
      ],
      "stateMutability": "nonpayable",
      "type": "function"
    },
    {
      "inputs": [
        {
          "internalType": "address",
          "name": "_templateAddress",
          "type": "address"
        }
      ],
      "name": "addTokenTemplate",
      "outputs": [
        {
          "internalType": "uint256",
          "name": "",
          "type": "uint256"
        }
      ],
      "stateMutability": "nonpayable",
      "type": "function"
    },
    {
      "inputs": [
        {
          "components": [
            {
              "internalType": "string",
              "name": "name",
              "type": "string"
            },
            {
              "internalType": "string",
              "name": "symbol",
              "type": "string"
            },
            {
              "internalType": "uint256",
              "name": "templateIndex",
              "type": "uint256"
            },
            {
              "internalType": "string",
              "name": "tokenURI",
              "type": "string"
            }
          ],
          "internalType": "struct ERC721Factory.NftCreateData",
          "name": "_NftCreateData",
          "type": "tuple"
        },
        {
          "components": [
            {
              "internalType": "uint256",
              "name": "templateIndex",
              "type": "uint256"
            },
            {
              "internalType": "string[]",
              "name": "strings",
              "type": "string[]"
            },
            {
              "internalType": "address[]",
              "name": "addresses",
              "type": "address[]"
            },
            {
              "internalType": "uint256[]",
              "name": "uints",
              "type": "uint256[]"
            },
            {
              "internalType": "bytes[]",
              "name": "bytess",
              "type": "bytes[]"
            }
          ],
          "internalType": "struct ERC721Factory.ErcCreateData",
          "name": "_ErcCreateData",
          "type": "tuple"
        },
        {
          "components": [
            {
              "internalType": "address",
              "name": "dispenserAddress",
              "type": "address"
            },
            {
              "internalType": "uint256",
              "name": "maxTokens",
              "type": "uint256"
            },
            {
              "internalType": "uint256",
              "name": "maxBalance",
              "type": "uint256"
            },
            {
              "internalType": "bool",
              "name": "withMint",
              "type": "bool"
            },
            {
              "internalType": "address",
              "name": "allowedSwapper",
              "type": "address"
            }
          ],
          "internalType": "struct ERC721Factory.DispenserData",
          "name": "_DispenserData",
          "type": "tuple"
        }
      ],
      "name": "createNftErcWithDispenser",
      "outputs": [
        {
          "internalType": "address",
          "name": "erc721Address",
          "type": "address"
        },
        {
          "internalType": "address",
          "name": "erc20Address",
          "type": "address"
        }
      ],
      "stateMutability": "nonpayable",
      "type": "function"
    },
    {
      "inputs": [
        {
          "components": [
            {
              "internalType": "string",
              "name": "name",
              "type": "string"
            },
            {
              "internalType": "string",
              "name": "symbol",
              "type": "string"
            },
            {
              "internalType": "uint256",
              "name": "templateIndex",
              "type": "uint256"
            },
            {
              "internalType": "string",
              "name": "tokenURI",
              "type": "string"
            }
          ],
          "internalType": "struct ERC721Factory.NftCreateData",
          "name": "_NftCreateData",
          "type": "tuple"
        },
        {
          "components": [
            {
              "internalType": "uint256",
              "name": "templateIndex",
              "type": "uint256"
            },
            {
              "internalType": "string[]",
              "name": "strings",
              "type": "string[]"
            },
            {
              "internalType": "address[]",
              "name": "addresses",
              "type": "address[]"
            },
            {
              "internalType": "uint256[]",
              "name": "uints",
              "type": "uint256[]"
            },
            {
              "internalType": "bytes[]",
              "name": "bytess",
              "type": "bytes[]"
            }
          ],
          "internalType": "struct ERC721Factory.ErcCreateData",
          "name": "_ErcCreateData",
          "type": "tuple"
        },
        {
          "components": [
            {
              "internalType": "address",
              "name": "fixedPriceAddress",
              "type": "address"
            },
            {
              "internalType": "address[]",
              "name": "addresses",
              "type": "address[]"
            },
            {
              "internalType": "uint256[]",
              "name": "uints",
              "type": "uint256[]"
            }
          ],
          "internalType": "struct ERC721Factory.FixedData",
          "name": "_FixedData",
          "type": "tuple"
        }
      ],
      "name": "createNftErcWithFixedRate",
      "outputs": [
        {
          "internalType": "address",
          "name": "erc721Address",
          "type": "address"
        },
        {
          "internalType": "address",
          "name": "erc20Address",
          "type": "address"
        },
        {
          "internalType": "bytes32",
          "name": "exchangeId",
          "type": "bytes32"
        }
      ],
      "stateMutability": "nonpayable",
      "type": "function"
    },
    {
      "inputs": [
        {
          "components": [
            {
              "internalType": "string",
              "name": "name",
              "type": "string"
            },
            {
              "internalType": "string",
              "name": "symbol",
              "type": "string"
            },
            {
              "internalType": "uint256",
              "name": "templateIndex",
              "type": "uint256"
            },
            {
              "internalType": "string",
              "name": "tokenURI",
              "type": "string"
            }
          ],
          "internalType": "struct ERC721Factory.NftCreateData",
          "name": "_NftCreateData",
          "type": "tuple"
        },
        {
          "components": [
            {
              "internalType": "uint256",
              "name": "templateIndex",
              "type": "uint256"
            },
            {
              "internalType": "string[]",
              "name": "strings",
              "type": "string[]"
            },
            {
              "internalType": "address[]",
              "name": "addresses",
              "type": "address[]"
            },
            {
              "internalType": "uint256[]",
              "name": "uints",
              "type": "uint256[]"
            },
            {
              "internalType": "bytes[]",
              "name": "bytess",
              "type": "bytes[]"
            }
          ],
          "internalType": "struct ERC721Factory.ErcCreateData",
          "name": "_ErcCreateData",
          "type": "tuple"
        },
        {
          "components": [
            {
              "internalType": "address[]",
              "name": "addresses",
              "type": "address[]"
            },
            {
              "internalType": "uint256[]",
              "name": "ssParams",
              "type": "uint256[]"
            },
            {
              "internalType": "uint256[]",
              "name": "swapFees",
              "type": "uint256[]"
            }
          ],
          "internalType": "struct ERC721Factory.PoolData",
          "name": "_PoolData",
          "type": "tuple"
        }
      ],
      "name": "createNftErcWithPool",
      "outputs": [
        {
          "internalType": "address",
          "name": "erc721Address",
          "type": "address"
        },
        {
          "internalType": "address",
          "name": "erc20Address",
          "type": "address"
        },
        {
          "internalType": "address",
          "name": "poolAddress",
          "type": "address"
        }
      ],
      "stateMutability": "nonpayable",
      "type": "function"
    },
    {
      "inputs": [
        {
          "components": [
            {
              "internalType": "string",
              "name": "name",
              "type": "string"
            },
            {
              "internalType": "string",
              "name": "symbol",
              "type": "string"
            },
            {
              "internalType": "uint256",
              "name": "templateIndex",
              "type": "uint256"
            },
            {
              "internalType": "string",
              "name": "tokenURI",
              "type": "string"
            }
          ],
          "internalType": "struct ERC721Factory.NftCreateData",
          "name": "_NftCreateData",
          "type": "tuple"
        },
        {
          "components": [
            {
              "internalType": "uint256",
              "name": "templateIndex",
              "type": "uint256"
            },
            {
              "internalType": "string[]",
              "name": "strings",
              "type": "string[]"
            },
            {
              "internalType": "address[]",
              "name": "addresses",
              "type": "address[]"
            },
            {
              "internalType": "uint256[]",
              "name": "uints",
              "type": "uint256[]"
            },
            {
              "internalType": "bytes[]",
              "name": "bytess",
              "type": "bytes[]"
            }
          ],
          "internalType": "struct ERC721Factory.ErcCreateData",
          "name": "_ErcCreateData",
          "type": "tuple"
        }
      ],
      "name": "createNftWithErc",
      "outputs": [
        {
          "internalType": "address",
          "name": "erc721Address",
          "type": "address"
        },
        {
          "internalType": "address",
          "name": "erc20Address",
          "type": "address"
        }
      ],
      "stateMutability": "nonpayable",
      "type": "function"
    },
    {
      "inputs": [
        {
          "internalType": "uint256",
          "name": "_templateIndex",
          "type": "uint256"
        },
        {
          "internalType": "string[]",
          "name": "strings",
          "type": "string[]"
        },
        {
          "internalType": "address[]",
          "name": "addresses",
          "type": "address[]"
        },
        {
          "internalType": "uint256[]",
          "name": "uints",
          "type": "uint256[]"
        },
        {
          "internalType": "bytes[]",
          "name": "bytess",
          "type": "bytes[]"
        }
      ],
      "name": "createToken",
      "outputs": [
        {
          "internalType": "address",
          "name": "token",
          "type": "address"
        }
      ],
      "stateMutability": "nonpayable",
      "type": "function"
    },
    {
      "inputs": [
        {
          "internalType": "string",
          "name": "name",
          "type": "string"
        },
        {
          "internalType": "string",
          "name": "symbol",
          "type": "string"
        },
        {
          "internalType": "uint256",
          "name": "_templateIndex",
          "type": "uint256"
        },
        {
          "internalType": "address",
          "name": "additionalERC20Deployer",
          "type": "address"
        },
        {
          "internalType": "string",
          "name": "tokenURI",
          "type": "string"
        }
      ],
      "name": "deployERC721Contract",
      "outputs": [
        {
          "internalType": "address",
          "name": "token",
          "type": "address"
        }
      ],
      "stateMutability": "nonpayable",
      "type": "function"
    },
    {
      "inputs": [
        {
          "internalType": "uint256",
          "name": "_index",
          "type": "uint256"
        }
      ],
      "name": "disable721TokenTemplate",
      "outputs": [],
      "stateMutability": "nonpayable",
      "type": "function"
    },
    {
      "inputs": [
        {
          "internalType": "uint256",
          "name": "_index",
          "type": "uint256"
        }
      ],
      "name": "disableTokenTemplate",
      "outputs": [],
      "stateMutability": "nonpayable",
      "type": "function"
    },
    {
      "inputs": [
        {
          "internalType": "address",
          "name": "",
          "type": "address"
        }
      ],
      "name": "erc20List",
      "outputs": [
        {
          "internalType": "bool",
          "name": "",
          "type": "bool"
        }
      ],
      "stateMutability": "view",
      "type": "function"
    },
    {
      "inputs": [
        {
          "internalType": "address",
          "name": "",
          "type": "address"
        }
      ],
      "name": "erc721List",
      "outputs": [
        {
          "internalType": "address",
          "name": "",
          "type": "address"
        }
      ],
      "stateMutability": "view",
      "type": "function"
    },
    {
      "inputs": [],
      "name": "getCurrentNFTCount",
      "outputs": [
        {
          "internalType": "uint256",
          "name": "",
          "type": "uint256"
        }
      ],
      "stateMutability": "view",
      "type": "function"
    },
    {
      "inputs": [],
      "name": "getCurrentNFTTemplateCount",
      "outputs": [
        {
          "internalType": "uint256",
          "name": "",
          "type": "uint256"
        }
      ],
      "stateMutability": "view",
      "type": "function"
    },
    {
      "inputs": [],
      "name": "getCurrentTemplateCount",
      "outputs": [
        {
          "internalType": "uint256",
          "name": "",
          "type": "uint256"
        }
      ],
      "stateMutability": "view",
      "type": "function"
    },
    {
      "inputs": [],
      "name": "getCurrentTokenCount",
      "outputs": [
        {
          "internalType": "uint256",
          "name": "",
          "type": "uint256"
        }
      ],
      "stateMutability": "view",
      "type": "function"
    },
    {
      "inputs": [
        {
          "internalType": "uint256",
          "name": "_index",
          "type": "uint256"
        }
      ],
      "name": "getNFTTemplate",
      "outputs": [
        {
          "components": [
            {
              "internalType": "address",
              "name": "templateAddress",
              "type": "address"
            },
            {
              "internalType": "bool",
              "name": "isActive",
              "type": "bool"
            }
          ],
          "internalType": "struct ERC721Factory.Template",
          "name": "",
          "type": "tuple"
        }
      ],
      "stateMutability": "view",
      "type": "function"
    },
    {
      "inputs": [
        {
          "internalType": "uint256",
          "name": "_index",
          "type": "uint256"
        }
      ],
      "name": "getTokenTemplate",
      "outputs": [
        {
          "components": [
            {
              "internalType": "address",
              "name": "templateAddress",
              "type": "address"
            },
            {
              "internalType": "bool",
              "name": "isActive",
              "type": "bool"
            }
          ],
          "internalType": "struct ERC721Factory.Template",
          "name": "",
          "type": "tuple"
        }
      ],
      "stateMutability": "view",
      "type": "function"
    },
    {
      "inputs": [
        {
          "internalType": "uint256",
          "name": "",
          "type": "uint256"
        }
      ],
      "name": "nftTemplateList",
      "outputs": [
        {
          "internalType": "address",
          "name": "templateAddress",
          "type": "address"
        },
        {
          "internalType": "bool",
          "name": "isActive",
          "type": "bool"
        }
      ],
      "stateMutability": "view",
      "type": "function"
    },
    {
      "inputs": [],
      "name": "owner",
      "outputs": [
        {
          "internalType": "address",
          "name": "",
          "type": "address"
        }
      ],
      "stateMutability": "view",
      "type": "function"
    },
    {
      "inputs": [
        {
          "internalType": "uint256",
          "name": "_index",
          "type": "uint256"
        }
      ],
      "name": "reactivate721TokenTemplate",
      "outputs": [],
      "stateMutability": "nonpayable",
      "type": "function"
    },
    {
      "inputs": [
        {
          "internalType": "uint256",
          "name": "_index",
          "type": "uint256"
        }
      ],
      "name": "reactivateTokenTemplate",
      "outputs": [],
      "stateMutability": "nonpayable",
      "type": "function"
    },
    {
      "inputs": [],
      "name": "renounceOwnership",
      "outputs": [],
      "stateMutability": "nonpayable",
      "type": "function"
    },
    {
      "inputs": [],
      "name": "router",
      "outputs": [
        {
          "internalType": "address",
          "name": "",
          "type": "address"
        }
      ],
      "stateMutability": "view",
      "type": "function"
    },
    {
      "inputs": [
        {
          "components": [
            {
              "internalType": "address",
              "name": "tokenAddress",
              "type": "address"
            },
            {
              "internalType": "address",
              "name": "consumer",
              "type": "address"
            },
            {
              "internalType": "uint256",
              "name": "amount",
              "type": "uint256"
            },
            {
              "internalType": "uint256",
              "name": "serviceIndex",
              "type": "uint256"
            }
          ],
          "internalType": "struct ERC721Factory.tokenOrder[]",
          "name": "orders",
          "type": "tuple[]"
        }
      ],
      "name": "startMultipleTokenOrder",
      "outputs": [],
      "stateMutability": "nonpayable",
      "type": "function"
    },
    {
      "inputs": [],
      "name": "templateCount",
      "outputs": [
        {
          "internalType": "uint256",
          "name": "",
          "type": "uint256"
        }
      ],
      "stateMutability": "view",
      "type": "function"
    },
    {
      "inputs": [
        {
          "internalType": "uint256",
          "name": "",
          "type": "uint256"
        }
      ],
      "name": "templateList",
      "outputs": [
        {
          "internalType": "address",
          "name": "templateAddress",
          "type": "address"
        },
        {
          "internalType": "bool",
          "name": "isActive",
          "type": "bool"
        }
      ],
      "stateMutability": "view",
      "type": "function"
    },
    {
      "inputs": [
        {
          "internalType": "address",
          "name": "newOwner",
          "type": "address"
        }
      ],
      "name": "transferOwnership",
      "outputs": [],
      "stateMutability": "nonpayable",
      "type": "function"
    }
  ],
  "bytecode": "0x60806040526000600a553480156200001657600080fd5b506040516200373c3803806200373c8339810160408190526200003991620005ab565b6200004433620001be565b600180556001600160a01b038316158015906200006957506001600160a01b03821615155b80156200007e57506001600160a01b03841615155b620001065760405162461bcd60e51b815260206004820152604760248201527f4552433732314454466163746f72793a20496e76616c69642074656d706c617460448201527f6520746f6b656e2f636f6d6d756e6974792066656520636f6c6c6563746f72206064820152666164647265737360c81b608482015260a4015b60405180910390fd5b6001600160a01b0381166200016e5760405162461bcd60e51b815260206004820152602760248201527f4552433732314454466163746f72793a20496e76616c696420726f75746572206044820152666164647265737360c81b6064820152608401620000fd565b62000179846200020e565b506200018583620003d1565b50600c80546001600160a01b039283166001600160a01b03199182161790915560028054939092169216919091179055506200062f9050565b600080546001600160a01b038381166001600160a01b0319831681178455604051919092169283917f8be0079c531659141344cd1fd0a4f28419497f9722a3daafe3b4186f6b6457e09190a35050565b600080546001600160a01b031633146200025a5760405162461bcd60e51b815260206004820181905260248201526000805160206200371c8339815191526044820152606401620000fd565b6001600160a01b038216620002d85760405162461bcd60e51b815260206004820152603760248201527f4552433732314454466163746f72793a204552433732312074656d706c61746560448201527f2061646472657373283029204e4f5420414c4c4f5745440000000000000000006064820152608401620000fd565b813b620003285760405162461bcd60e51b815260206004820152601b60248201527f455243373231466163746f72793a204e4f5420434f4e545241435400000000006044820152606401620000fd565b6001600560008282546200033d919062000608565b90915550506040805180820182526001600160a01b038085168083526001602080850191825260058054600090815260069092528682208651815494511515600160a01b026001600160a81b03199095169616959095179290921790935554935192939290917fc0167b92c8eb4a2bad2c05e0134f076fba5d3cd54671a3e8edf13d2e61443bd991a350506005545b919050565b600080546001600160a01b031633146200041d5760405162461bcd60e51b815260206004820181905260248201526000805160206200371c8339815191526044820152606401620000fd565b6001600160a01b0382166200049b5760405162461bcd60e51b815260206004820152603460248201527f4552433230466163746f72793a204552433732312074656d706c61746520616460448201527f6472657373283029204e4f5420414c4c4f5745440000000000000000000000006064820152608401620000fd565b813b620004eb5760405162461bcd60e51b815260206004820152601a60248201527f4552433230466163746f72793a204e4f5420434f4e54524143540000000000006044820152606401620000fd565b6001600b600082825462000500919062000608565b90915550506040805180820182526001600160a01b0380851680835260016020808501918252600b8054600090815260079092528682208651815494511515600160a01b026001600160a81b03199095169616959095179290921790935554935192939290917fdcd16da87b60cea6dbd55a83f73b8a4bf9a54655db58ae0f35b82a2373fc150d91a35050600b54919050565b80516001600160a01b0381168114620003cc57600080fd5b60008060008060808587031215620005c257600080fd5b620005cd8562000593565b9350620005dd6020860162000593565b9250620005ed6040860162000593565b9150620005fd6060860162000593565b905092959194509250565b600082198211156200062a57634e487b7160e01b600052601160045260246000fd5b500190565b6130dd806200063f6000396000f3fe608060405234801561001057600080fd5b50600436106101c45760003560e01c80638da5cb5b116100f9578063c6cf868a11610097578063e5fc01f011610071578063e5fc01f0146104ff578063f2fde38b14610507578063f887ea401461051a578063fd024d6a1461052d57600080fd5b8063c6cf868a14610487578063ca4abc691461048f578063e3491099146104cc57600080fd5b806395c60305116100d357806395c6030514610420578063a33ef2a614610428578063b9cd22641461043b578063bbf8d71f1461047457600080fd5b80638da5cb5b146103c75780638f6051af146103d857806394051699146103eb57600080fd5b80635c705982116101665780637b20bccf116101405780637b20bccf1461033a578063809d81051461034d57806382c442041461036057806389898869146103b457600080fd5b80635c70598214610301578063715018a61461030957806372f670f01461031157600080fd5b8063226e7615116101a2578063226e76151461022f57806326705c3c146102625780633315efd114610279578063557fcfb0146102d657600080fd5b8063042ab9b3146101c95780630ffda887146102075780631347020e1461021c575b600080fd5b6101dc6101d73660046122e6565b610540565b6040805182516001600160a01b03168152602092830151151592810192909252015b60405180910390f35b61021a6102153660046122e6565b6105c7565b005b61021a61022a3660046123a5565b61060c565b61025261023d36600461247a565b60096020526000908152604090205460ff1681565b60405190151581526020016101fe565b61026b600b5481565b6040519081526020016101fe565b6101dc6102873660046122e6565b6040805180820190915260008082526020820152506000908152600660209081526040918290208251808401909352546001600160a01b0381168352600160a01b900460ff1615159082015290565b6102e96102e43660046126e7565b6108fd565b6040516001600160a01b0390911681526020016101fe565b60035461026b565b61021a61099e565b6102e961031f36600461247a565b6008602052600090815260409020546001600160a01b031681565b61026b61034836600461247a565b6109d4565b61021a61035b3660046122e6565b610b66565b61039561036e3660046122e6565b6006602052600090815260409020546001600160a01b03811690600160a01b900460ff1682565b604080516001600160a01b0390931683529015156020830152016101fe565b6102e96103c23660046127b4565b610bd8565b6000546001600160a01b03166102e9565b61026b6103e636600461247a565b610ea9565b6103956103f93660046122e6565b6007602052600090815260409020546001600160a01b03811690600160a01b900460ff1682565b600b5461026b565b61021a6104363660046122e6565b611044565b61044e610449366004612889565b6110bc565b604080516001600160a01b039485168152939092166020840152908201526060016101fe565b61021a6104823660046122e6565b61131c565b600a5461026b565b6104a261049d366004612889565b6113d8565b604080516001600160a01b03948516815292841660208401529216918101919091526060016101fe565b6104df6104da366004612910565b6115a6565b604080516001600160a01b039384168152929091166020830152016101fe565b60055461026b565b61021a61051536600461247a565b61172e565b600c546102e9906001600160a01b031681565b6104df61053b366004612973565b6117c9565b60408051808201909152600080825260208201526000828152600760209081526040918290208251808401909352546001600160a01b0381168352600160a01b900460ff16151590820152600b54831180159061059c57508215155b6105c15760405162461bcd60e51b81526004016105b8906129e7565b60405180910390fd5b92915050565b6000546001600160a01b031633146105f15760405162461bcd60e51b81526004016105b890612a30565b6000908152600760205260409020805460ff60a01b19169055565b6002600154141561062f5760405162461bcd60e51b81526004016105b890612a65565b60026001558051603210156106865760405162461bcd60e51b815260206004820152601e60248201527f455243373231466163746f72793a20546f6f204d616e79204f7264657273000060448201526064016105b8565b805160005b818110156108f45760008060008584815181106106aa576106aa612a9c565b6020026020010151600001516001600160a01b031663397b37436040518163ffffffff1660e01b8152600401606060405180830381865afa1580156106f3573d6000803e3d6000fd5b505050506040513d601f19601f820116820180604052508101906107179190612ab2565b92509250925060008111801561073557506001600160a01b03821615155b801561074957506001600160a01b03831615155b15610795576107636001600160a01b038316333084611a00565b61079586858151811061077857610778612a9c565b6020908102919091010151516001600160a01b0384169083611a71565b6107ef33308887815181106107ac576107ac612a9c565b6020026020010151604001518988815181106107ca576107ca612a9c565b6020026020010151600001516001600160a01b0316611a00909392919063ffffffff16565b85848151811061080157610801612a9c565b6020026020010151600001516001600160a01b031663cab60c5d87868151811061082d5761082d612a9c565b60200260200101516020015188878151811061084b5761084b612a9c565b60200260200101516040015189888151811061086957610869612a9c565b6020908102919091010151606001516040516001600160e01b031960e086901b1681526001600160a01b03909316600484015260248301919091526044820152606401600060405180830381600087803b1580156108c657600080fd5b505af11580156108da573d6000803e3d6000fd5b5050505050505080806108ec90612b0b565b91505061068b565b50506001805550565b3360008181526008602052604081205490916001600160a01b03909116146109865760405162461bcd60e51b815260206004820152603660248201527f455243373231466163746f72793a204f4e4c592045524337323120494e5354416044820152754e43452046524f4d20455243373231464143544f525960501b60648201526084016105b8565b610994868686868633611b23565b9695505050505050565b6000546001600160a01b031633146109c85760405162461bcd60e51b81526004016105b890612a30565b6109d26000611e08565b565b600080546001600160a01b031633146109ff5760405162461bcd60e51b81526004016105b890612a30565b6001600160a01b038216610a725760405162461bcd60e51b815260206004820152603460248201527f4552433230466163746f72793a204552433732312074656d706c617465206164604482015273191c995cdcca0c0a481393d50810531313d5d15160621b60648201526084016105b8565b813b610ac05760405162461bcd60e51b815260206004820152601a60248201527f4552433230466163746f72793a204e4f5420434f4e545241435400000000000060448201526064016105b8565b6001600b6000828254610ad39190612b26565b90915550506040805180820182526001600160a01b0380851680835260016020808501918252600b8054600090815260079092528682208651815494511515600160a01b026001600160a81b03199095169616959095179290921790935554935192939290917fdcd16da87b60cea6dbd55a83f73b8a4bf9a54655db58ae0f35b82a2373fc150d91a35050600b54919050565b6000546001600160a01b03163314610b905760405162461bcd60e51b81526004016105b890612a30565b6005548111158015610ba157508015155b610bbd5760405162461bcd60e51b81526004016105b890612b3e565b6000908152600660205260409020805460ff60a01b19169055565b60006005548411158015610beb57508315155b610c075760405162461bcd60e51b81526004016105b890612b3e565b6000848152600660209081526040918290208251808401909352546001600160a01b0381168352600160a01b900460ff161515908201819052610ca35760405162461bcd60e51b815260206004820152602e60248201527f4552433732314454466163746f72793a20455243373231546f6b656e2054656d60448201526d1c1b185d1948191a5cd8589b195960921b60648201526084016105b8565b8051610cae90611e58565b91506001600160a01b038216610d2e576040805162461bcd60e51b81526020600482015260248101919091527f4552433732314454466163746f72793a204661696c656420746f20706572666f60448201527f726d206d696e696d616c206465706c6f79206f662061206e657720746f6b656e60648201526084016105b8565b6001600160a01b0382166000818152600860205260409081902080546001600160a01b03191683179055516370c166d760e01b81528391906370c166d790610d849033908c908c9030908c908c90600401612be2565b6020604051808303816000875af1158015610da3573d6000803e3d6000fd5b505050506040513d601f19601f82011682018060405250810190610dc79190612c56565b610e305760405162461bcd60e51b815260206004820152603460248201527f4552433732314454466163746f72793a20556e61626c6520746f20696e697469604482015273616c697a6520746f6b656e20696e7374616e636560601b60648201526084016105b8565b81600001516001600160a01b0316836001600160a01b03167f46f5e3cee761854fc3892024ae7aa2c832007dff583603ce093f177ebd9c4c968a338b89604051610e7d9493929190612c73565b60405180910390a3600160036000828254610e989190612b26565b909155509298975050505050505050565b600080546001600160a01b03163314610ed45760405162461bcd60e51b81526004016105b890612a30565b6001600160a01b038216610f505760405162461bcd60e51b815260206004820152603760248201527f4552433732314454466163746f72793a204552433732312074656d706c61746560448201527f2061646472657373283029204e4f5420414c4c4f57454400000000000000000060648201526084016105b8565b813b610f9e5760405162461bcd60e51b815260206004820152601b60248201527f455243373231466163746f72793a204e4f5420434f4e5452414354000000000060448201526064016105b8565b600160056000828254610fb19190612b26565b90915550506040805180820182526001600160a01b038085168083526001602080850191825260058054600090815260069092528682208651815494511515600160a01b026001600160a81b03199095169616959095179290921790935554935192939290917fc0167b92c8eb4a2bad2c05e0134f076fba5d3cd54671a3e8edf13d2e61443bd991a35050600554919050565b6000546001600160a01b0316331461106e5760405162461bcd60e51b81526004016105b890612a30565b600554811115801561107f57508015155b61109b5760405162461bcd60e51b81526004016105b890612b3e565b6000908152600660205260409020805460ff60a01b1916600160a01b179055565b6000806000600260015414156110e45760405162461bcd60e51b81526004016105b890612a65565b60026001556111b96110f68780612cbb565b8080601f016020809104026020016040519081016040528093929190818152602001838380828437600092019190915250611138925050506020890189612cbb565b8080601f01602080910402602001604051908101604052809392919081815260200183838082843760009201919091525050505060408901353061117f60608c018c612cbb565b8080601f016020809104026020016040519081016040528093929190818152602001838380828437600092019190915250610bd892505050565b925061127085356111cd6020880188612d08565b6111d691612d51565b6111e36040890189612d08565b808060200260200160405190810160405280939291908181526020018383602002808284376000920191909152506112229250505060608a018a612d08565b808060200260200160405190810160405280939291908181526020018383602002808284376000920191909152506112619250505060808b018b612d08565b61126a91612d5e565b88611b23565b91506001600160a01b038216638b96412b61128e602087018761247a565b61129b6020880188612d08565b6112a860408a018a612d08565b6040518663ffffffff1660e01b81526004016112c8959493929190612dea565b6020604051808303816000875af11580156112e7573d6000803e3d6000fd5b505050506040513d601f19601f8201168201806040525081019061130b9190612e2e565b600180559296919550919350915050565b6000546001600160a01b031633146113465760405162461bcd60e51b81526004016105b890612a30565b600b54811115801561135757508015155b6113b75760405162461bcd60e51b815260206004820152602b60248201527f45524332304454466163746f72793a2054656d706c61746520696e646578206460448201526a1bd95cdb9d08195e1a5cdd60aa1b60648201526084016105b8565b6000908152600760205260409020805460ff60a01b1916600160a01b179055565b6000806000600260015414156114005760405162461bcd60e51b81526004016105b890612a65565b600260015561147333306114176020880188612d08565b600481811061142857611428612a9c565b6020029190910135905061143c8880612d08565b600181811061144d5761144d612a9c565b9050602002016020810190611462919061247a565b6001600160a01b0316929190611a00565b6114806110f68780612cbb565b925061149485356111cd6020880188612d08565b600c5490925061150f906001600160a01b03166114b46020870187612d08565b60048181106114c5576114c5612a9c565b602002919091013590506114d98780612d08565b60018181106114ea576114ea612a9c565b90506020020160208101906114ff919061247a565b6001600160a01b03169190611a71565b6001600160a01b038216635bfe4da061152b6020870187612d08565b6115386040890189612d08565b6115428a80612d08565b6040518763ffffffff1660e01b815260040161156396959493929190612e47565b6020604051808303816000875af1158015611582573d6000803e3d6000fd5b505050506040513d601f19601f8201168201806040525081019061130b9190612e90565b600080600260015414156115cc5760405162461bcd60e51b81526004016105b890612a65565b60026001556116686115de8580612cbb565b8080601f016020809104026020016040519081016040528093929190818152602001838380828437600092019190915250611620925050506020870187612cbb565b8080601f016020809104026020016040519081016040528093929190818152602001838380828437600092018290525060408b01359350915061117f905060608a018a612cbb565b915061171f833561167c6020860186612d08565b61168591612d51565b6116926040870187612d08565b808060200260200160405190810160405280939291908181526020018383602002808284376000920191909152506116d1925050506060880188612d08565b80806020026020016040519081016040528093929190818152602001838360200280828437600092019190915250611710925050506080890189612d08565b61171991612d5e565b87611b23565b60018055919491935090915050565b6000546001600160a01b031633146117585760405162461bcd60e51b81526004016105b890612a30565b6001600160a01b0381166117bd5760405162461bcd60e51b815260206004820152602660248201527f4f776e61626c653a206e6577206f776e657220697320746865207a65726f206160448201526564647265737360d01b60648201526084016105b8565b6117c681611e08565b50565b600080600260015414156117ef5760405162461bcd60e51b81526004016105b890612a65565b600260015561188a6118018680612cbb565b8080601f016020809104026020016040519081016040528093929190818152602001838380828437600092019190915250611843925050506020880188612cbb565b8080601f01602080910402602001604051908101604052809392919081815260200183838082843760009201919091525050505060408801353061117f60608b018b612cbb565b9150611932843561189e6020870187612d08565b6118a791612d51565b6118b46040880188612d08565b808060200260200160405190810160405280939291908181526020018383602002808284376000920191909152506118f3925050506060890189612d08565b808060200260200160405190810160405280939291908181526020018383602002808284376000920191909152506117109250505060808a018a612d08565b90506001600160a01b03811663191c918a611950602086018661247a565b6020860135604087013561196a6080890160608a01612ead565b61197a60a08a0160808b0161247a565b60405160e087901b6001600160e01b03191681526001600160a01b0395861660048201526024810194909452604484019290925215156064830152909116608482015260a401600060405180830381600087803b1580156119da57600080fd5b505af11580156119ee573d6000803e3d6000fd5b50506001805550919590945092505050565b6040516001600160a01b0380851660248301528316604482015260648101829052611a6b9085906323b872dd60e01b906084015b60408051601f198184030181529190526020810180516001600160e01b03166001600160e01b031990931692909217909152611ee8565b50505050565b604051636eb1769f60e11b81523060048201526001600160a01b038381166024830152600091839186169063dd62ed3e90604401602060405180830381865afa158015611ac2573d6000803e3d6000fd5b505050506040513d601f19601f82011682018060405250810190611ae69190612e2e565b611af09190612b26565b6040516001600160a01b038516602482015260448101829052909150611a6b90859063095ea7b360e01b90606401611a34565b600083600081518110611b3857611b38612a9c565b602002602001015160001415611b9e5760405162461bcd60e51b815260206004820152602560248201527f4552433230466163746f72793a207a65726f20636170206973206e6f7420616c6044820152641b1bddd95960da1b60648201526084016105b8565b600b548711158015611baf57508615155b611bcb5760405162461bcd60e51b81526004016105b8906129e7565b6000878152600760209081526040918290208251808401909352546001600160a01b0381168352600160a01b900460ff161515908201819052611c645760405162461bcd60e51b815260206004820152602b60248201527f4552433230466163746f72793a20455243373231546f6b656e2054656d706c6160448201526a1d1948191a5cd8589b195960aa1b60648201526084016105b8565b8051611c6f90611e58565b6001600160a01b0381166000818152600960205260409020805460ff19166001179055909250611d075760405162461bcd60e51b815260206004820152603e60248201527f455243373231466163746f72793a204661696c656420746f20706572666f726d60448201527f206d696e696d616c206465706c6f79206f662061206e657720746f6b656e000060648201526084016105b8565b80600001516001600160a01b0316826001600160a01b03167f567699dbf7c5f63a51a42fd451f5e065bca0dfc723adf2cc498bbb7cfb780b9089600081518110611d5357611d53612a9c565b60200260200101518a600181518110611d6e57611d6e612a9c565b602002602001015189600081518110611d8957611d89612a9c565b602002602001015188604051611da29493929190612eca565b60405180910390a36001600a6000828254611dbd9190612b26565b90915550506040805160a081018252888152602081018890529081018690526001600160a01b038416608082015260608101859052611dfc8382611fbf565b50509695505050505050565b600080546001600160a01b038381166001600160a01b0319831681178455604051919092169283917f8be0079c531659141344cd1fd0a4f28419497f9722a3daafe3b4186f6b6457e09190a35050565b6000808260601b9050604051733d602d80600a3d3981f3363d3d373d3d3d363d7360601b81528160148201526e5af43d82803e903d91602b57fd5bf360881b60288201526037816000f06040516001600160a01b03821681529093507f117c72e6c25f0a072e36e148df71468ce2f3dbe7defec5b2c257a6e3eb65278c915060200160405180910390a150919050565b6000611f3d826040518060400160405280602081526020017f5361666545524332303a206c6f772d6c6576656c2063616c6c206661696c6564815250856001600160a01b031661216c9092919063ffffffff16565b805190915015611fba5780806020019051810190611f5b9190612c56565b611fba5760405162461bcd60e51b815260206004820152602a60248201527f5361666545524332303a204552433230206f7065726174696f6e20646964206e6044820152691bdd081cdd58d8d9595960b21b60648201526084016105b8565b505050565b6040805160038082526080820190925283916000919060208201606080368337019050509050826080015181600081518110611ffd57611ffd612a9c565b6001600160a01b03928316602091820292909201015260025482519116908290600190811061202e5761202e612a9c565b6001600160a01b039283166020918202929092010152600c5482519116908290600290811061205f5761205f612a9c565b60200260200101906001600160a01b031690816001600160a01b031681525050816001600160a01b031663b3998be08460000151856020015184876040015188606001516040518663ffffffff1660e01b81526004016120c3959493929190612fcf565b6020604051808303816000875af11580156120e2573d6000803e3d6000fd5b505050506040513d601f19601f820116820180604052508101906121069190612c56565b611a6b5760405162461bcd60e51b815260206004820152603160248201527f4552433230466163746f72793a20556e61626c6520746f20696e697469616c696044820152707a6520746f6b656e20696e7374616e636560781b60648201526084016105b8565b606061217b8484600085612185565b90505b9392505050565b6060824710156121e65760405162461bcd60e51b815260206004820152602660248201527f416464726573733a20696e73756666696369656e742062616c616e636520666f6044820152651c8818d85b1b60d21b60648201526084016105b8565b843b6122345760405162461bcd60e51b815260206004820152601d60248201527f416464726573733a2063616c6c20746f206e6f6e2d636f6e747261637400000060448201526064016105b8565b600080866001600160a01b031685876040516122509190613078565b60006040518083038185875af1925050503d806000811461228d576040519150601f19603f3d011682016040523d82523d6000602084013e612292565b606091505b50915091506122a28282866122ad565b979650505050505050565b606083156122bc57508161217e565b8251156122cc5782518084602001fd5b8160405162461bcd60e51b81526004016105b89190613094565b6000602082840312156122f857600080fd5b5035919050565b634e487b7160e01b600052604160045260246000fd5b604051608081016001600160401b0381118282101715612337576123376122ff565b60405290565b604051601f8201601f191681016001600160401b0381118282101715612365576123656122ff565b604052919050565b60006001600160401b03821115612386576123866122ff565b5060051b60200190565b6001600160a01b03811681146117c657600080fd5b600060208083850312156123b857600080fd5b82356001600160401b038111156123ce57600080fd5b8301601f810185136123df57600080fd5b80356123f26123ed8261236d565b61233d565b81815260079190911b8201830190838101908783111561241157600080fd5b928401925b828410156122a2576080848903121561242f5760008081fd5b612437612315565b843561244281612390565b81528486013561245181612390565b818701526040858101359082015260608086013590820152825260809093019290840190612416565b60006020828403121561248c57600080fd5b813561217e81612390565b60006001600160401b038311156124b0576124b06122ff565b6124c3601f8401601f191660200161233d565b90508281528383830111156124d757600080fd5b828260208301376000602084830101529392505050565b600082601f8301126124ff57600080fd5b61217e83833560208501612497565b600061251c6123ed8461236d565b8381529050602080820190600585901b84018681111561253b57600080fd5b845b818110156125765780356001600160401b0381111561255c5760008081fd5b612568898289016124ee565b85525092820192820161253d565b505050509392505050565b600082601f83011261259257600080fd5b813560206125a26123ed8361236d565b82815260059290921b840181019181810190868411156125c157600080fd5b8286015b848110156125e55780356125d881612390565b83529183019183016125c5565b509695505050505050565b600082601f83011261260157600080fd5b813560206126116123ed8361236d565b82815260059290921b8401810191818101908684111561263057600080fd5b8286015b848110156125e55780358352918301918301612634565b60006126596123ed8461236d565b8381529050602080820190600585901b84018681111561267857600080fd5b845b818110156125765780356001600160401b038111156126995760008081fd5b8601601f810189136126ab5760008081fd5b6126b9898235868401612497565b85525092820192820161267a565b600082601f8301126126d857600080fd5b61217e8383356020850161264b565b600080600080600060a086880312156126ff57600080fd5b8535945060208601356001600160401b038082111561271d57600080fd5b818801915088601f83011261273157600080fd5b6127408983356020850161250e565b9550604088013591508082111561275657600080fd5b61276289838a01612581565b9450606088013591508082111561277857600080fd5b61278489838a016125f0565b9350608088013591508082111561279a57600080fd5b506127a7888289016126c7565b9150509295509295909350565b600080600080600060a086880312156127cc57600080fd5b85356001600160401b03808211156127e357600080fd5b6127ef89838a016124ee565b9650602088013591508082111561280557600080fd5b61281189838a016124ee565b9550604088013594506060880135915061282a82612390565b9092506080870135908082111561284057600080fd5b506127a7888289016124ee565b60006080828403121561285f57600080fd5b50919050565b600060a0828403121561285f57600080fd5b60006060828403121561285f57600080fd5b60008060006060848603121561289e57600080fd5b83356001600160401b03808211156128b557600080fd5b6128c18783880161284d565b945060208601359150808211156128d757600080fd5b6128e387838801612865565b935060408601359150808211156128f957600080fd5b5061290686828701612877565b9150509250925092565b6000806040838503121561292357600080fd5b82356001600160401b038082111561293a57600080fd5b6129468683870161284d565b9350602085013591508082111561295c57600080fd5b5061296985828601612865565b9150509250929050565b600080600060e0848603121561298857600080fd5b83356001600160401b038082111561299f57600080fd5b6129ab8783880161284d565b945060208601359150808211156129c157600080fd5b506129ce86828701612865565b9250506129de8560408601612865565b90509250925092565b60208082526029908201527f4552433230466163746f72793a2054656d706c61746520696e64657820646f656040820152681cdb9d08195e1a5cdd60ba1b606082015260800190565b6020808252818101527f4f776e61626c653a2063616c6c6572206973206e6f7420746865206f776e6572604082015260600190565b6020808252601f908201527f5265656e7472616e637947756172643a207265656e7472616e742063616c6c00604082015260600190565b634e487b7160e01b600052603260045260246000fd5b600080600060608486031215612ac757600080fd5b8351612ad281612390565b6020850151909350612ae381612390565b80925050604084015190509250925092565b634e487b7160e01b600052601160045260246000fd5b6000600019821415612b1f57612b1f612af5565b5060010190565b60008219821115612b3957612b39612af5565b500190565b6020808252602c908201527f4552433732314454466163746f72793a2054656d706c61746520696e6465782060408201526b191bd95cdb9d08195e1a5cdd60a21b606082015260800190565b60005b83811015612ba5578181015183820152602001612b8d565b83811115611a6b5750506000910152565b60008151808452612bce816020860160208601612b8a565b601f01601f19169290920160200192915050565b600060018060a01b03808916835260c06020840152612c0460c0840189612bb6565b8381036040850152612c168189612bb6565b90508187166060850152818616608085015283810360a0850152612c3a8186612bb6565b9a9950505050505050505050565b80151581146117c657600080fd5b600060208284031215612c6857600080fd5b815161217e81612c48565b608081526000612c866080830187612bb6565b6001600160a01b03861660208401528281036040840152612ca78186612bb6565b905082810360608401526122a28185612bb6565b6000808335601e19843603018112612cd257600080fd5b8301803591506001600160401b03821115612cec57600080fd5b602001915036819003821315612d0157600080fd5b9250929050565b6000808335601e19843603018112612d1f57600080fd5b8301803591506001600160401b03821115612d3957600080fd5b6020019150600581901b3603821315612d0157600080fd5b600061217e36848461250e565b600061217e36848461264b565b8183526000602080850194508260005b85811015612da9578135612d8e81612390565b6001600160a01b031687529582019590820190600101612d7b565b509495945050505050565b81835260006001600160fb1b03831115612dcd57600080fd5b8260051b8083602087013760009401602001938452509192915050565b6001600160a01b0386168152606060208201819052600090612e0f9083018688612d6b565b8281036040840152612e22818587612db4565b98975050505050505050565b600060208284031215612e4057600080fd5b5051919050565b606081526000612e5b60608301888a612db4565b8281036020840152612e6e818789612db4565b90508281036040840152612e83818587612d6b565b9998505050505050505050565b600060208284031215612ea257600080fd5b815161217e81612390565b600060208284031215612ebf57600080fd5b813561217e81612c48565b608081526000612edd6080830187612bb6565b8281036020840152612eef8187612bb6565b604084019590955250506001600160a01b039190911660609091015292915050565b600081518084526020808501945080840160005b83811015612da95781516001600160a01b031687529582019590820190600101612f25565b600081518084526020808501945080840160005b83811015612da957815187529582019590820190600101612f5e565b600081518084526020808501808196508360051b8101915082860160005b85811015612fc2578284038952612fb0848351612bb6565b98850198935090840190600101612f98565b5091979650505050505050565b600060a0820160a0835280885180835260c08501915060c08160051b86010192506020808b0160005b838110156130265760bf19888703018552613014868351612bb6565b95509382019390820190600101612ff8565b50508584038187015250505061303c8188612f11565b905082810360408401526130508187612f11565b905082810360608401526130648186612f4a565b90508281036080840152612e228185612f7a565b6000825161308a818460208701612b8a565b9190910192915050565b60208152600061217e6020830184612bb656fea2646970667358221220247a9c6a32e8f974d46b56bd24ca7196dba099d1ecf74e9e492505a66d43290864736f6c634300080a00334f776e61626c653a2063616c6c6572206973206e6f7420746865206f776e6572",
  "linkReferences": {},
  "deployedLinkReferences": {}
}