{
  "_format": "hh-sol-artifact-1",
  "contractName": "ERC721Factory",
  "sourceName": "contracts/ERC721Factory.sol",
  "abi": [
    {
      "inputs": [
        {
          "internalType": "address",
          "name": "_template721",
          "type": "address"
        },
        {
          "internalType": "address",
          "name": "_template",
          "type": "address"
        },
        {
          "internalType": "address",
          "name": "_collector",
          "type": "address"
        },
        {
          "internalType": "address",
          "name": "_router",
          "type": "address"
        }
      ],
      "stateMutability": "nonpayable",
      "type": "constructor"
    },
    {
      "anonymous": false,
      "inputs": [
        {
          "indexed": true,
          "internalType": "address",
          "name": "datatokenAddress",
          "type": "address"
        },
        {
          "indexed": true,
          "internalType": "address",
          "name": "owner",
          "type": "address"
        },
        {
          "indexed": false,
          "internalType": "uint256",
          "name": "maxTokens",
          "type": "uint256"
        },
        {
          "indexed": false,
          "internalType": "uint256",
          "name": "maxBalance",
          "type": "uint256"
        },
        {
          "indexed": false,
          "internalType": "address",
          "name": "allowedSwapper",
          "type": "address"
        }
      ],
      "name": "DispenserCreated",
      "type": "event"
    },
    {
      "anonymous": false,
      "inputs": [
        {
          "indexed": false,
          "internalType": "address",
          "name": "instance",
          "type": "address"
        }
      ],
      "name": "InstanceDeployed",
      "type": "event"
    },
    {
      "anonymous": false,
      "inputs": [
        {
          "indexed": true,
          "internalType": "address",
          "name": "newTokenAddress",
          "type": "address"
        },
        {
          "indexed": true,
          "internalType": "address",
          "name": "templateAddress",
          "type": "address"
        },
        {
          "indexed": false,
          "internalType": "string",
          "name": "tokenName",
          "type": "string"
        },
        {
          "indexed": false,
          "internalType": "address",
          "name": "admin",
          "type": "address"
        },
        {
          "indexed": false,
          "internalType": "string",
          "name": "symbol",
          "type": "string"
        },
        {
          "indexed": false,
          "internalType": "string",
          "name": "tokenURI",
          "type": "string"
        }
      ],
      "name": "NFTCreated",
      "type": "event"
    },
    {
      "anonymous": false,
      "inputs": [
        {
          "indexed": false,
          "internalType": "bytes32",
          "name": "exchangeId",
          "type": "bytes32"
        },
        {
          "indexed": false,
          "internalType": "address",
          "name": "owner",
          "type": "address"
        }
      ],
      "name": "NewFixedRate",
      "type": "event"
    },
    {
      "anonymous": false,
      "inputs": [
        {
          "indexed": false,
          "internalType": "address",
          "name": "poolAddress",
          "type": "address"
        },
        {
          "indexed": false,
          "internalType": "address",
          "name": "ssContract",
          "type": "address"
        },
        {
          "indexed": false,
          "internalType": "address",
          "name": "basetokenAddress",
          "type": "address"
        }
      ],
      "name": "NewPool",
      "type": "event"
    },
    {
      "anonymous": false,
      "inputs": [
        {
          "indexed": true,
          "internalType": "address",
          "name": "previousOwner",
          "type": "address"
        },
        {
          "indexed": true,
          "internalType": "address",
          "name": "newOwner",
          "type": "address"
        }
      ],
      "name": "OwnershipTransferred",
      "type": "event"
    },
    {
      "anonymous": false,
      "inputs": [
        {
          "indexed": true,
          "internalType": "address",
          "name": "_templateAddress",
          "type": "address"
        },
        {
          "indexed": true,
          "internalType": "uint256",
          "name": "nftTemplateCount",
          "type": "uint256"
        }
      ],
      "name": "Template20Added",
      "type": "event"
    },
    {
      "anonymous": false,
      "inputs": [
        {
          "indexed": true,
          "internalType": "address",
          "name": "_templateAddress",
          "type": "address"
        },
        {
          "indexed": true,
          "internalType": "uint256",
          "name": "nftTemplateCount",
          "type": "uint256"
        }
      ],
      "name": "Template721Added",
      "type": "event"
    },
    {
      "anonymous": false,
      "inputs": [
        {
          "indexed": true,
          "internalType": "address",
          "name": "newTokenAddress",
          "type": "address"
        },
        {
          "indexed": true,
          "internalType": "address",
          "name": "templateAddress",
          "type": "address"
        },
        {
          "indexed": false,
          "internalType": "string",
          "name": "name",
          "type": "string"
        },
        {
          "indexed": false,
          "internalType": "string",
          "name": "symbol",
          "type": "string"
        },
        {
          "indexed": false,
          "internalType": "uint256",
          "name": "cap",
          "type": "uint256"
        },
        {
          "indexed": false,
          "internalType": "address",
          "name": "creator",
          "type": "address"
        }
      ],
      "name": "TokenCreated",
      "type": "event"
    },
    {
      "inputs": [
        {
          "internalType": "address",
          "name": "_templateAddress",
          "type": "address"
        }
      ],
      "name": "add721TokenTemplate",
      "outputs": [
        {
          "internalType": "uint256",
          "name": "",
          "type": "uint256"
        }
      ],
      "stateMutability": "nonpayable",
      "type": "function"
    },
    {
      "inputs": [
        {
          "internalType": "address",
          "name": "_templateAddress",
          "type": "address"
        }
      ],
      "name": "addTokenTemplate",
      "outputs": [
        {
          "internalType": "uint256",
          "name": "",
          "type": "uint256"
        }
      ],
      "stateMutability": "nonpayable",
      "type": "function"
    },
    {
      "inputs": [
        {
          "components": [
            {
              "internalType": "string",
              "name": "name",
              "type": "string"
            },
            {
              "internalType": "string",
              "name": "symbol",
              "type": "string"
            },
            {
              "internalType": "uint256",
              "name": "templateIndex",
              "type": "uint256"
            },
            {
              "internalType": "string",
              "name": "tokenURI",
              "type": "string"
            }
          ],
          "internalType": "struct ERC721Factory.NftCreateData",
          "name": "_NftCreateData",
          "type": "tuple"
        },
        {
          "components": [
            {
              "internalType": "uint256",
              "name": "templateIndex",
              "type": "uint256"
            },
            {
              "internalType": "string[]",
              "name": "strings",
              "type": "string[]"
            },
            {
              "internalType": "address[]",
              "name": "addresses",
              "type": "address[]"
            },
            {
              "internalType": "uint256[]",
              "name": "uints",
              "type": "uint256[]"
            },
            {
              "internalType": "bytes[]",
              "name": "bytess",
              "type": "bytes[]"
            }
          ],
          "internalType": "struct ERC721Factory.ErcCreateData",
          "name": "_ErcCreateData",
          "type": "tuple"
        },
        {
          "components": [
            {
              "internalType": "address",
              "name": "dispenserAddress",
              "type": "address"
            },
            {
              "internalType": "uint256",
              "name": "maxTokens",
              "type": "uint256"
            },
            {
              "internalType": "uint256",
              "name": "maxBalance",
              "type": "uint256"
            },
            {
              "internalType": "bool",
              "name": "withMint",
              "type": "bool"
            },
            {
              "internalType": "address",
              "name": "allowedSwapper",
              "type": "address"
            }
          ],
          "internalType": "struct ERC721Factory.DispenserData",
          "name": "_DispenserData",
          "type": "tuple"
        }
      ],
      "name": "createNftErcWithDispenser",
      "outputs": [
        {
          "internalType": "address",
          "name": "erc721Address",
          "type": "address"
        },
        {
          "internalType": "address",
          "name": "erc20Address",
          "type": "address"
        }
      ],
      "stateMutability": "nonpayable",
      "type": "function"
    },
    {
      "inputs": [
        {
          "components": [
            {
              "internalType": "string",
              "name": "name",
              "type": "string"
            },
            {
              "internalType": "string",
              "name": "symbol",
              "type": "string"
            },
            {
              "internalType": "uint256",
              "name": "templateIndex",
              "type": "uint256"
            },
            {
              "internalType": "string",
              "name": "tokenURI",
              "type": "string"
            }
          ],
          "internalType": "struct ERC721Factory.NftCreateData",
          "name": "_NftCreateData",
          "type": "tuple"
        },
        {
          "components": [
            {
              "internalType": "uint256",
              "name": "templateIndex",
              "type": "uint256"
            },
            {
              "internalType": "string[]",
              "name": "strings",
              "type": "string[]"
            },
            {
              "internalType": "address[]",
              "name": "addresses",
              "type": "address[]"
            },
            {
              "internalType": "uint256[]",
              "name": "uints",
              "type": "uint256[]"
            },
            {
              "internalType": "bytes[]",
              "name": "bytess",
              "type": "bytes[]"
            }
          ],
          "internalType": "struct ERC721Factory.ErcCreateData",
          "name": "_ErcCreateData",
          "type": "tuple"
        },
        {
          "components": [
            {
              "internalType": "address",
              "name": "fixedPriceAddress",
              "type": "address"
            },
            {
              "internalType": "address[]",
              "name": "addresses",
              "type": "address[]"
            },
            {
              "internalType": "uint256[]",
              "name": "uints",
              "type": "uint256[]"
            }
          ],
          "internalType": "struct ERC721Factory.FixedData",
          "name": "_FixedData",
          "type": "tuple"
        }
      ],
      "name": "createNftErcWithFixedRate",
      "outputs": [
        {
          "internalType": "address",
          "name": "erc721Address",
          "type": "address"
        },
        {
          "internalType": "address",
          "name": "erc20Address",
          "type": "address"
        },
        {
          "internalType": "bytes32",
          "name": "exchangeId",
          "type": "bytes32"
        }
      ],
      "stateMutability": "nonpayable",
      "type": "function"
    },
    {
      "inputs": [
        {
          "components": [
            {
              "internalType": "string",
              "name": "name",
              "type": "string"
            },
            {
              "internalType": "string",
              "name": "symbol",
              "type": "string"
            },
            {
              "internalType": "uint256",
              "name": "templateIndex",
              "type": "uint256"
            },
            {
              "internalType": "string",
              "name": "tokenURI",
              "type": "string"
            }
          ],
          "internalType": "struct ERC721Factory.NftCreateData",
          "name": "_NftCreateData",
          "type": "tuple"
        },
        {
          "components": [
            {
              "internalType": "uint256",
              "name": "templateIndex",
              "type": "uint256"
            },
            {
              "internalType": "string[]",
              "name": "strings",
              "type": "string[]"
            },
            {
              "internalType": "address[]",
              "name": "addresses",
              "type": "address[]"
            },
            {
              "internalType": "uint256[]",
              "name": "uints",
              "type": "uint256[]"
            },
            {
              "internalType": "bytes[]",
              "name": "bytess",
              "type": "bytes[]"
            }
          ],
          "internalType": "struct ERC721Factory.ErcCreateData",
          "name": "_ErcCreateData",
          "type": "tuple"
        },
        {
          "components": [
            {
              "internalType": "address[]",
              "name": "addresses",
              "type": "address[]"
            },
            {
              "internalType": "uint256[]",
              "name": "ssParams",
              "type": "uint256[]"
            },
            {
              "internalType": "uint256[]",
              "name": "swapFees",
              "type": "uint256[]"
            }
          ],
          "internalType": "struct ERC721Factory.PoolData",
          "name": "_PoolData",
          "type": "tuple"
        }
      ],
      "name": "createNftErcWithPool",
      "outputs": [
        {
          "internalType": "address",
          "name": "erc721Address",
          "type": "address"
        },
        {
          "internalType": "address",
          "name": "erc20Address",
          "type": "address"
        },
        {
          "internalType": "address",
          "name": "poolAddress",
          "type": "address"
        }
      ],
      "stateMutability": "nonpayable",
      "type": "function"
    },
    {
      "inputs": [
        {
          "components": [
            {
              "internalType": "string",
              "name": "name",
              "type": "string"
            },
            {
              "internalType": "string",
              "name": "symbol",
              "type": "string"
            },
            {
              "internalType": "uint256",
              "name": "templateIndex",
              "type": "uint256"
            },
            {
              "internalType": "string",
              "name": "tokenURI",
              "type": "string"
            }
          ],
          "internalType": "struct ERC721Factory.NftCreateData",
          "name": "_NftCreateData",
          "type": "tuple"
        },
        {
          "components": [
            {
              "internalType": "uint256",
              "name": "templateIndex",
              "type": "uint256"
            },
            {
              "internalType": "string[]",
              "name": "strings",
              "type": "string[]"
            },
            {
              "internalType": "address[]",
              "name": "addresses",
              "type": "address[]"
            },
            {
              "internalType": "uint256[]",
              "name": "uints",
              "type": "uint256[]"
            },
            {
              "internalType": "bytes[]",
              "name": "bytess",
              "type": "bytes[]"
            }
          ],
          "internalType": "struct ERC721Factory.ErcCreateData",
          "name": "_ErcCreateData",
          "type": "tuple"
        }
      ],
      "name": "createNftWithErc",
      "outputs": [
        {
          "internalType": "address",
          "name": "erc721Address",
          "type": "address"
        },
        {
          "internalType": "address",
          "name": "erc20Address",
          "type": "address"
        }
      ],
      "stateMutability": "nonpayable",
      "type": "function"
    },
    {
      "inputs": [
        {
          "internalType": "uint256",
          "name": "_templateIndex",
          "type": "uint256"
        },
        {
          "internalType": "string[]",
          "name": "strings",
          "type": "string[]"
        },
        {
          "internalType": "address[]",
          "name": "addresses",
          "type": "address[]"
        },
        {
          "internalType": "uint256[]",
          "name": "uints",
          "type": "uint256[]"
        },
        {
          "internalType": "bytes[]",
          "name": "bytess",
          "type": "bytes[]"
        }
      ],
      "name": "createToken",
      "outputs": [
        {
          "internalType": "address",
          "name": "token",
          "type": "address"
        }
      ],
      "stateMutability": "nonpayable",
      "type": "function"
    },
    {
      "inputs": [
        {
          "internalType": "string",
          "name": "name",
          "type": "string"
        },
        {
          "internalType": "string",
          "name": "symbol",
          "type": "string"
        },
        {
          "internalType": "uint256",
          "name": "_templateIndex",
          "type": "uint256"
        },
        {
          "internalType": "address",
          "name": "additionalERC20Deployer",
          "type": "address"
        },
        {
          "internalType": "string",
          "name": "tokenURI",
          "type": "string"
        }
      ],
      "name": "deployERC721Contract",
      "outputs": [
        {
          "internalType": "address",
          "name": "token",
          "type": "address"
        }
      ],
      "stateMutability": "nonpayable",
      "type": "function"
    },
    {
      "inputs": [
        {
          "internalType": "uint256",
          "name": "_index",
          "type": "uint256"
        }
      ],
      "name": "disable721TokenTemplate",
      "outputs": [],
      "stateMutability": "nonpayable",
      "type": "function"
    },
    {
      "inputs": [
        {
          "internalType": "uint256",
          "name": "_index",
          "type": "uint256"
        }
      ],
      "name": "disableTokenTemplate",
      "outputs": [],
      "stateMutability": "nonpayable",
      "type": "function"
    },
    {
      "inputs": [
        {
          "internalType": "address",
          "name": "",
          "type": "address"
        }
      ],
      "name": "erc20List",
      "outputs": [
        {
          "internalType": "bool",
          "name": "",
          "type": "bool"
        }
      ],
      "stateMutability": "view",
      "type": "function"
    },
    {
      "inputs": [
        {
          "internalType": "address",
          "name": "",
          "type": "address"
        }
      ],
      "name": "erc721List",
      "outputs": [
        {
          "internalType": "address",
          "name": "",
          "type": "address"
        }
      ],
      "stateMutability": "view",
      "type": "function"
    },
    {
      "inputs": [],
      "name": "getCurrentNFTCount",
      "outputs": [
        {
          "internalType": "uint256",
          "name": "",
          "type": "uint256"
        }
      ],
      "stateMutability": "view",
      "type": "function"
    },
    {
      "inputs": [],
      "name": "getCurrentNFTTemplateCount",
      "outputs": [
        {
          "internalType": "uint256",
          "name": "",
          "type": "uint256"
        }
      ],
      "stateMutability": "view",
      "type": "function"
    },
    {
      "inputs": [],
      "name": "getCurrentTemplateCount",
      "outputs": [
        {
          "internalType": "uint256",
          "name": "",
          "type": "uint256"
        }
      ],
      "stateMutability": "view",
      "type": "function"
    },
    {
      "inputs": [],
      "name": "getCurrentTokenCount",
      "outputs": [
        {
          "internalType": "uint256",
          "name": "",
          "type": "uint256"
        }
      ],
      "stateMutability": "view",
      "type": "function"
    },
    {
      "inputs": [
        {
          "internalType": "uint256",
          "name": "_index",
          "type": "uint256"
        }
      ],
      "name": "getNFTTemplate",
      "outputs": [
        {
          "components": [
            {
              "internalType": "address",
              "name": "templateAddress",
              "type": "address"
            },
            {
              "internalType": "bool",
              "name": "isActive",
              "type": "bool"
            }
          ],
          "internalType": "struct ERC721Factory.Template",
          "name": "",
          "type": "tuple"
        }
      ],
      "stateMutability": "view",
      "type": "function"
    },
    {
      "inputs": [
        {
          "internalType": "uint256",
          "name": "_index",
          "type": "uint256"
        }
      ],
      "name": "getTokenTemplate",
      "outputs": [
        {
          "components": [
            {
              "internalType": "address",
              "name": "templateAddress",
              "type": "address"
            },
            {
              "internalType": "bool",
              "name": "isActive",
              "type": "bool"
            }
          ],
          "internalType": "struct ERC721Factory.Template",
          "name": "",
          "type": "tuple"
        }
      ],
      "stateMutability": "view",
      "type": "function"
    },
    {
      "inputs": [
        {
          "internalType": "uint256",
          "name": "",
          "type": "uint256"
        }
      ],
      "name": "nftTemplateList",
      "outputs": [
        {
          "internalType": "address",
          "name": "templateAddress",
          "type": "address"
        },
        {
          "internalType": "bool",
          "name": "isActive",
          "type": "bool"
        }
      ],
      "stateMutability": "view",
      "type": "function"
    },
    {
      "inputs": [],
      "name": "owner",
      "outputs": [
        {
          "internalType": "address",
          "name": "",
          "type": "address"
        }
      ],
      "stateMutability": "view",
      "type": "function"
    },
    {
      "inputs": [
        {
          "internalType": "uint256",
          "name": "_index",
          "type": "uint256"
        }
      ],
      "name": "reactivate721TokenTemplate",
      "outputs": [],
      "stateMutability": "nonpayable",
      "type": "function"
    },
    {
      "inputs": [
        {
          "internalType": "uint256",
          "name": "_index",
          "type": "uint256"
        }
      ],
      "name": "reactivateTokenTemplate",
      "outputs": [],
      "stateMutability": "nonpayable",
      "type": "function"
    },
    {
      "inputs": [],
      "name": "renounceOwnership",
      "outputs": [],
      "stateMutability": "nonpayable",
      "type": "function"
    },
    {
      "inputs": [],
      "name": "router",
      "outputs": [
        {
          "internalType": "address",
          "name": "",
          "type": "address"
        }
      ],
      "stateMutability": "view",
      "type": "function"
    },
    {
      "inputs": [
        {
          "components": [
            {
              "internalType": "address",
              "name": "tokenAddress",
              "type": "address"
            },
            {
              "internalType": "address",
              "name": "consumer",
              "type": "address"
            },
            {
              "internalType": "uint256",
              "name": "amount",
              "type": "uint256"
            },
            {
              "internalType": "uint256",
              "name": "serviceId",
              "type": "uint256"
            },
            {
              "internalType": "address",
              "name": "consumeFeeAddress",
              "type": "address"
            },
            {
              "internalType": "address",
              "name": "consumeFeeToken",
              "type": "address"
            },
            {
              "internalType": "uint256",
              "name": "consumeFeeAmount",
              "type": "uint256"
            }
          ],
          "internalType": "struct ERC721Factory.tokenOrder[]",
          "name": "orders",
          "type": "tuple[]"
        }
      ],
      "name": "startMultipleTokenOrder",
      "outputs": [],
      "stateMutability": "nonpayable",
      "type": "function"
    },
    {
      "inputs": [],
      "name": "templateCount",
      "outputs": [
        {
          "internalType": "uint256",
          "name": "",
          "type": "uint256"
        }
      ],
      "stateMutability": "view",
      "type": "function"
    },
    {
      "inputs": [
        {
          "internalType": "uint256",
          "name": "",
          "type": "uint256"
        }
      ],
      "name": "templateList",
      "outputs": [
        {
          "internalType": "address",
          "name": "templateAddress",
          "type": "address"
        },
        {
          "internalType": "bool",
          "name": "isActive",
          "type": "bool"
        }
      ],
      "stateMutability": "view",
      "type": "function"
    },
    {
      "inputs": [
        {
          "internalType": "address",
          "name": "newOwner",
          "type": "address"
        }
      ],
      "name": "transferOwnership",
      "outputs": [],
      "stateMutability": "nonpayable",
      "type": "function"
    }
  ],
  "bytecode": "0x608060405260006009553480156200001657600080fd5b50604051620038043803806200380483398101604081905262000039916200053f565b620000443362000152565b6001600160a01b038316158015906200006557506001600160a01b03821615155b80156200007a57506001600160a01b03841615155b620001025760405162461bcd60e51b815260206004820152604760248201527f4552433732314454466163746f72793a20496e76616c69642074656d706c617460448201527f6520746f6b656e2f636f6d6d756e6974792066656520636f6c6c6563746f72206064820152666164647265737360c81b608482015260a4015b60405180910390fd5b6200010d84620001a2565b50620001198362000365565b50600b80546001600160a01b039283166001600160a01b0319918216179091556001805493909216921691909117905550620005c39050565b600080546001600160a01b038381166001600160a01b0319831681178455604051919092169283917f8be0079c531659141344cd1fd0a4f28419497f9722a3daafe3b4186f6b6457e09190a35050565b600080546001600160a01b03163314620001ee5760405162461bcd60e51b81526020600482018190526024820152600080516020620037e48339815191526044820152606401620000f9565b6001600160a01b0382166200026c5760405162461bcd60e51b815260206004820152603760248201527f4552433732314454466163746f72793a204552433732312074656d706c61746560448201527f2061646472657373283029204e4f5420414c4c4f5745440000000000000000006064820152608401620000f9565b813b620002bc5760405162461bcd60e51b815260206004820152601b60248201527f455243373231466163746f72793a204e4f5420434f4e545241435400000000006044820152606401620000f9565b600160046000828254620002d191906200059c565b90915550506040805180820182526001600160a01b038085168083526001602080850191825260048054600090815260059092528682208651815494511515600160a01b026001600160a81b03199095169616959095179290921790935554935192939290917fc0167b92c8eb4a2bad2c05e0134f076fba5d3cd54671a3e8edf13d2e61443bd991a350506004545b919050565b600080546001600160a01b03163314620003b15760405162461bcd60e51b81526020600482018190526024820152600080516020620037e48339815191526044820152606401620000f9565b6001600160a01b0382166200042f5760405162461bcd60e51b815260206004820152603460248201527f4552433230466163746f72793a204552433732312074656d706c61746520616460448201527f6472657373283029204e4f5420414c4c4f5745440000000000000000000000006064820152608401620000f9565b813b6200047f5760405162461bcd60e51b815260206004820152601a60248201527f4552433230466163746f72793a204e4f5420434f4e54524143540000000000006044820152606401620000f9565b6001600a60008282546200049491906200059c565b90915550506040805180820182526001600160a01b0380851680835260016020808501918252600a8054600090815260069092528682208651815494511515600160a01b026001600160a81b03199095169616959095179290921790935554935192939290917fdcd16da87b60cea6dbd55a83f73b8a4bf9a54655db58ae0f35b82a2373fc150d91a35050600a54919050565b80516001600160a01b03811681146200036057600080fd5b600080600080608085870312156200055657600080fd5b620005618562000527565b9350620005716020860162000527565b9250620005816040860162000527565b9150620005916060860162000527565b905092959194509250565b60008219821115620005be57634e487b7160e01b600052601160045260246000fd5b500190565b61321180620005d36000396000f3fe608060405234801561001057600080fd5b50600436106101c45760003560e01c80638da5cb5b116100f9578063c6cf868a11610097578063e5fc01f011610071578063e5fc01f0146104ff578063f2fde38b14610507578063f887ea401461051a578063fd024d6a1461052d57600080fd5b8063c6cf868a14610487578063ca4abc691461048f578063e3491099146104cc57600080fd5b806395c60305116100d357806395c6030514610420578063a33ef2a614610428578063b9cd22641461043b578063bbf8d71f1461047457600080fd5b80638da5cb5b146103c75780638f6051af146103d857806394051699146103eb57600080fd5b80636bbd2f3f116101665780637b20bccf116101405780637b20bccf1461033a578063809d81051461034d57806382c442041461036057806389898869146103b457600080fd5b80636bbd2f3f146102f6578063715018a61461030957806372f670f01461031157600080fd5b806326705c3c116101a257806326705c3c1461024f5780633315efd114610266578063557fcfb0146102c35780635c705982146102ee57600080fd5b8063042ab9b3146101c95780630ffda88714610207578063226e76151461021c575b600080fd5b6101dc6101d7366004612a86565b610540565b6040805182516001600160a01b03168152602092830151151592810192909252015b60405180910390f35b61021a610215366004612a86565b6105c7565b005b61023f61022a3660046126a4565b60086020526000908152604090205460ff1681565b60405190151581526020016101fe565b610258600a5481565b6040519081526020016101fe565b6101dc610274366004612a86565b6040805180820190915260008082526020820152506000908152600560209081526040918290208251808401909352546001600160a01b0381168352600160a01b900460ff1615159082015290565b6102d66102d1366004612a9f565b61060c565b6040516001600160a01b0390911681526020016101fe565b600254610258565b61021a610304366004612721565b6106ad565b61021a610b11565b6102d661031f3660046126a4565b6007602052600090815260409020546001600160a01b031681565b6102586103483660046126a4565b610b47565b61021a61035b366004612a86565b610cd9565b61039561036e366004612a86565b6005602052600090815260409020546001600160a01b03811690600160a01b900460ff1682565b604080516001600160a01b0390931683529015156020830152016101fe565b6102d66103c2366004612882565b610d4b565b6000546001600160a01b03166102d6565b6102586103e63660046126a4565b61102e565b6103956103f9366004612a86565b6006602052600090815260409020546001600160a01b03811690600160a01b900460ff1682565b600a54610258565b61021a610436366004612a86565b6111c9565b61044e6104493660046129ff565b611241565b604080516001600160a01b039485168152939092166020840152908201526060016101fe565b61021a610482366004612a86565b611481565b600954610258565b6104a261049d3660046129ff565b61153d565b604080516001600160a01b03948516815292841660208401529216918101919091526060016101fe565b6104df6104da366004612928565b6116f1565b604080516001600160a01b039384168152929091166020830152016101fe565b600454610258565b61021a6105153660046126a4565b61184b565b600b546102d6906001600160a01b031681565b6104df61053b36600461298b565b6118e6565b60408051808201909152600080825260208201526000828152600660209081526040918290208251808401909352546001600160a01b0381168352600160a01b900460ff16151590820152600a54831180159061059c57508215155b6105c15760405162461bcd60e51b81526004016105b890612f22565b60405180910390fd5b92915050565b6000546001600160a01b031633146105f15760405162461bcd60e51b81526004016105b890612fb7565b6000908152600660205260409020805460ff60a01b19169055565b3360008181526007602052604081205490916001600160a01b03909116146106955760405162461bcd60e51b815260206004820152603660248201527f455243373231466163746f72793a204f4e4c592045524337323120494e5354416044820152754e43452046524f4d20455243373231464143544f525960501b60648201526084016105b8565b6106a3868686868633611aef565b9695505050505050565b805160005b81811015610b0c5760008060008584815181106106d1576106d161318c565b6020026020010151600001516001600160a01b031663397b37436040518163ffffffff1660e01b815260040160606040518083038186803b15801561071557600080fd5b505afa158015610729573d6000803e3d6000fd5b505050506040513d601f19601f8201168201806040525081019061074d91906126de565b92509250925060008111801561076b57506001600160a01b03821615155b801561077f57506001600160a01b03831615155b156107cb576107996001600160a01b038316333084611dd7565b6107cb8685815181106107ae576107ae61318c565b6020908102919091010151516001600160a01b0384169083611e48565b60008685815181106107df576107df61318c565b602002602001015160c00151118015610828575060006001600160a01b03168685815181106108105761081061318c565b602002602001015160a001516001600160a01b031614155b8015610864575060006001600160a01b031686858151811061084c5761084c61318c565b6020026020010151608001516001600160a01b031614155b15610938576108c333308887815181106108805761088061318c565b602002602001015160c0015189888151811061089e5761089e61318c565b602002602001015160a001516001600160a01b0316611dd7909392919063ffffffff16565b6109388685815181106108d8576108d861318c565b6020026020010151600001518786815181106108f6576108f661318c565b602002602001015160c001518887815181106109145761091461318c565b602002602001015160a001516001600160a01b0316611e489092919063ffffffff16565b610992333088878151811061094f5761094f61318c565b60200260200101516040015189888151811061096d5761096d61318c565b6020026020010151600001516001600160a01b0316611dd7909392919063ffffffff16565b8584815181106109a4576109a461318c565b6020026020010151600001516001600160a01b031663fda9dae78786815181106109d0576109d061318c565b6020026020010151602001518887815181106109ee576109ee61318c565b602002602001015160400151898881518110610a0c57610a0c61318c565b6020026020010151606001518a8981518110610a2a57610a2a61318c565b6020026020010151608001518b8a81518110610a4857610a4861318c565b602002602001015160a001518c8b81518110610a6657610a6661318c565b602090810291909101015160c0015160405160e088901b6001600160e01b03191681526001600160a01b039687166004820152602481019590955260448501939093529084166064840152909216608482015260a481019190915260c401600060405180830381600087803b158015610ade57600080fd5b505af1158015610af2573d6000803e3d6000fd5b505050505050508080610b049061315b565b9150506106b2565b505050565b6000546001600160a01b03163314610b3b5760405162461bcd60e51b81526004016105b890612fb7565b610b456000611f09565b565b600080546001600160a01b03163314610b725760405162461bcd60e51b81526004016105b890612fb7565b6001600160a01b038216610be55760405162461bcd60e51b815260206004820152603460248201527f4552433230466163746f72793a204552433732312074656d706c617465206164604482015273191c995cdcca0c0a481393d50810531313d5d15160621b60648201526084016105b8565b813b610c335760405162461bcd60e51b815260206004820152601a60248201527f4552433230466163746f72793a204e4f5420434f4e545241435400000000000060448201526064016105b8565b6001600a6000828254610c4691906130fd565b90915550506040805180820182526001600160a01b0380851680835260016020808501918252600a8054600090815260069092528682208651815494511515600160a01b026001600160a81b03199095169616959095179290921790935554935192939290917fdcd16da87b60cea6dbd55a83f73b8a4bf9a54655db58ae0f35b82a2373fc150d91a35050600a54919050565b6000546001600160a01b03163314610d035760405162461bcd60e51b81526004016105b890612fb7565b6004548111158015610d1457508015155b610d305760405162461bcd60e51b81526004016105b890612f6b565b6000908152600560205260409020805460ff60a01b19169055565b60006004548411158015610d5e57508315155b610d7a5760405162461bcd60e51b81526004016105b890612f6b565b6000848152600560209081526040918290208251808401909352546001600160a01b0381168352600160a01b900460ff161515908201819052600114610e195760405162461bcd60e51b815260206004820152602e60248201527f4552433732314454466163746f72793a20455243373231546f6b656e2054656d60448201526d1c1b185d1948191a5cd8589b195960921b60648201526084016105b8565b8051610e2490611f59565b91506001600160a01b038216610ea4576040805162461bcd60e51b81526020600482015260248101919091527f4552433732314454466163746f72793a204661696c656420746f20706572666f60448201527f726d206d696e696d616c206465706c6f79206f662061206e657720746f6b656e60648201526084016105b8565b6001600160a01b0382166000818152600760205260409081902080546001600160a01b03191683179055516370c166d760e01b81528391906370c166d790610efa9033908c908c9030908c908c90600401612d28565b602060405180830381600087803b158015610f1457600080fd5b505af1158015610f28573d6000803e3d6000fd5b505050506040513d601f19601f82011682018060405250810190610f4c919061284c565b610fb55760405162461bcd60e51b815260206004820152603460248201527f4552433732314454466163746f72793a20556e61626c6520746f20696e697469604482015273616c697a6520746f6b656e20696e7374616e636560601b60648201526084016105b8565b81600001516001600160a01b0316836001600160a01b03167f46f5e3cee761854fc3892024ae7aa2c832007dff583603ce093f177ebd9c4c968a338b896040516110029493929190612e93565b60405180910390a360016002600082825461101d91906130fd565b909155509298975050505050505050565b600080546001600160a01b031633146110595760405162461bcd60e51b81526004016105b890612fb7565b6001600160a01b0382166110d55760405162461bcd60e51b815260206004820152603760248201527f4552433732314454466163746f72793a204552433732312074656d706c61746560448201527f2061646472657373283029204e4f5420414c4c4f57454400000000000000000060648201526084016105b8565b813b6111235760405162461bcd60e51b815260206004820152601b60248201527f455243373231466163746f72793a204e4f5420434f4e5452414354000000000060448201526064016105b8565b60016004600082825461113691906130fd565b90915550506040805180820182526001600160a01b038085168083526001602080850191825260048054600090815260059092528682208651815494511515600160a01b026001600160a81b03199095169616959095179290921790935554935192939290917fc0167b92c8eb4a2bad2c05e0134f076fba5d3cd54671a3e8edf13d2e61443bd991a35050600454919050565b6000546001600160a01b031633146111f35760405162461bcd60e51b81526004016105b890612fb7565b600454811115801561120457508015155b6112205760405162461bcd60e51b81526004016105b890612f6b565b6000908152600560205260409020805460ff60a01b1916600160a01b179055565b60008080611315611252878061303c565b8080601f01602080910402602001604051908101604052809392919081815260200183838082843760009201919091525061129492505050602089018961303c565b8080601f0160208091040260200160405190810160405280939291908181526020018383808284376000920191909152505050506040890135306112db60608c018c61303c565b8080601f016020809104026020016040519081016040528093929190818152602001838380828437600092019190915250610d4b92505050565b92506113cc85356113296020880188612fec565b61133291613122565b61133f6040890189612fec565b8080602002602001604051908101604052809392919081815260200183836020028082843760009201919091525061137e9250505060608a018a612fec565b808060200260200160405190810160405280939291908181526020018383602002808284376000920191909152506113bd9250505060808b018b612fec565b6113c691613115565b88611aef565b91506001600160a01b038216638b96412b6113ea60208701876126a4565b6113f76020880188612fec565b61140460408a018a612fec565b6040518663ffffffff1660e01b8152600401611424959493929190612ce4565b602060405180830381600087803b15801561143e57600080fd5b505af1158015611452573d6000803e3d6000fd5b505050506040513d601f19601f820116820180604052508101906114769190612869565b905093509350939050565b6000546001600160a01b031633146114ab5760405162461bcd60e51b81526004016105b890612fb7565b600a5481111580156114bc57508015155b61151c5760405162461bcd60e51b815260206004820152602b60248201527f45524332304454466163746f72793a2054656d706c61746520696e646578206460448201526a1bd95cdb9d08195e1a5cdd60aa1b60648201526084016105b8565b6000908152600660205260409020805460ff60a01b1916600160a01b179055565b600080806115af33306115536020880188612fec565b60048181106115645761156461318c565b602002919091013590506115788880612fec565b60018181106115895761158961318c565b905060200201602081019061159e91906126a4565b6001600160a01b0316929190611dd7565b6115bc611252878061303c565b92506115d085356113296020880188612fec565b600b5490925061164b906001600160a01b03166115f06020870187612fec565b60048181106116015761160161318c565b602002919091013590506116158780612fec565b60018181106116265761162661318c565b905060200201602081019061163b91906126a4565b6001600160a01b03169190611e48565b6001600160a01b038216635bfe4da06116676020870187612fec565b6116746040890189612fec565b61167e8a80612fec565b6040518763ffffffff1660e01b815260040161169f96959493929190612e37565b602060405180830381600087803b1580156116b957600080fd5b505af11580156116cd573d6000803e3d6000fd5b505050506040513d601f19601f8201168201806040525081019061147691906126c1565b60008061178b611701858061303c565b8080601f01602080910402602001604051908101604052809392919081815260200183838082843760009201919091525061174392505050602087018761303c565b8080601f016020809104026020016040519081016040528093929190818152602001838380828437600092018290525060408b0135935091506112db905060608a018a61303c565b9150611842833561179f6020860186612fec565b6117a891613122565b6117b56040870187612fec565b808060200260200160405190810160405280939291908181526020018383602002808284376000920191909152506117f4925050506060880188612fec565b80806020026020016040519081016040528093929190818152602001838360200280828437600092019190915250611833925050506080890189612fec565b61183c91613115565b87611aef565b90509250929050565b6000546001600160a01b031633146118755760405162461bcd60e51b81526004016105b890612fb7565b6001600160a01b0381166118da5760405162461bcd60e51b815260206004820152602660248201527f4f776e61626c653a206e6577206f776e657220697320746865207a65726f206160448201526564647265737360d01b60648201526084016105b8565b6118e381611f09565b50565b60008061197f6118f6868061303c565b8080601f01602080910402602001604051908101604052809392919081815260200183838082843760009201919091525061193892505050602088018861303c565b8080601f0160208091040260200160405190810160405280939291908181526020018383808284376000920191909152505050506040880135306112db60608b018b61303c565b9150611a2784356119936020870187612fec565b61199c91613122565b6119a96040880188612fec565b808060200260200160405190810160405280939291908181526020018383602002808284376000920191909152506119e8925050506060890189612fec565b808060200260200160405190810160405280939291908181526020018383602002808284376000920191909152506118339250505060808a018a612fec565b90506001600160a01b03811663191c918a611a4560208601866126a4565b60208601356040870135611a5f6080890160608a0161282f565b611a6f60a08a0160808b016126a4565b60405160e087901b6001600160e01b03191681526001600160a01b0395861660048201526024810194909452604484019290925215156064830152909116608482015260a401600060405180830381600087803b158015611acf57600080fd5b505af1158015611ae3573d6000803e3d6000fd5b50505050935093915050565b600083600081518110611b0457611b0461318c565b602002602001015160001415611b6a5760405162461bcd60e51b815260206004820152602560248201527f4552433230466163746f72793a207a65726f20636170206973206e6f7420616c6044820152641b1bddd95960da1b60648201526084016105b8565b600a548711158015611b7b57508615155b611b975760405162461bcd60e51b81526004016105b890612f22565b6000878152600660209081526040918290208251808401909352546001600160a01b0381168352600160a01b900460ff161515908201819052600114611c335760405162461bcd60e51b815260206004820152602b60248201527f4552433230466163746f72793a20455243373231546f6b656e2054656d706c6160448201526a1d1948191a5cd8589b195960aa1b60648201526084016105b8565b8051611c3e90611f59565b6001600160a01b0381166000818152600860205260409020805460ff19166001179055909250611cd65760405162461bcd60e51b815260206004820152603e60248201527f455243373231466163746f72793a204661696c656420746f20706572666f726d60448201527f206d696e696d616c206465706c6f79206f662061206e657720746f6b656e000060648201526084016105b8565b80600001516001600160a01b0316826001600160a01b03167f567699dbf7c5f63a51a42fd451f5e065bca0dfc723adf2cc498bbb7cfb780b9089600081518110611d2257611d2261318c565b60200260200101518a600181518110611d3d57611d3d61318c565b602002602001015189600081518110611d5857611d5861318c565b602002602001015188604051611d719493929190612edb565b60405180910390a3600160096000828254611d8c91906130fd565b90915550506040805160a081018252888152602081018890529081018690526001600160a01b038416608082015260608101859052611dcb8382611fe9565b50509695505050505050565b6040516001600160a01b0380851660248301528316604482015260648101829052611e429085906323b872dd60e01b906084015b60408051601f198184030181529190526020810180516001600160e01b03166001600160e01b0319909316929092179091526121a4565b50505050565b604051636eb1769f60e11b81523060048201526001600160a01b038381166024830152600091839186169063dd62ed3e9060440160206040518083038186803b158015611e9457600080fd5b505afa158015611ea8573d6000803e3d6000fd5b505050506040513d601f19601f82011682018060405250810190611ecc9190612869565b611ed691906130fd565b6040516001600160a01b038516602482015260448101829052909150611e4290859063095ea7b360e01b90606401611e0b565b600080546001600160a01b038381166001600160a01b0319831681178455604051919092169283917f8be0079c531659141344cd1fd0a4f28419497f9722a3daafe3b4186f6b6457e09190a35050565b6000808260601b9050604051733d602d80600a3d3981f3363d3d373d3d3d363d7360601b81528160148201526e5af43d82803e903d91602b57fd5bf360881b60288201526037816000f06040516001600160a01b03821681529093507f117c72e6c25f0a072e36e148df71468ce2f3dbe7defec5b2c257a6e3eb65278c915060200160405180910390a150919050565b60408051600380825260808201909252839160009190602082016060803683370190505090508260800151816000815181106120275761202761318c565b6001600160a01b03928316602091820292909201015260018054835192169183919081106120575761205761318c565b6001600160a01b039283166020918202929092010152600b548251911690829060029081106120885761208861318c565b60200260200101906001600160a01b031690816001600160a01b031681525050816001600160a01b031663b3998be08460000151856020015184876040015188606001516040518663ffffffff1660e01b81526004016120ec959493929190612d8e565b602060405180830381600087803b15801561210657600080fd5b505af115801561211a573d6000803e3d6000fd5b505050506040513d601f19601f8201168201806040525081019061213e919061284c565b611e425760405162461bcd60e51b815260206004820152603160248201527f4552433230466163746f72793a20556e61626c6520746f20696e697469616c696044820152707a6520746f6b656e20696e7374616e636560781b60648201526084016105b8565b60006121f9826040518060400160405280602081526020017f5361666545524332303a206c6f772d6c6576656c2063616c6c206661696c6564815250856001600160a01b03166122769092919063ffffffff16565b805190915015610b0c5780806020019051810190612217919061284c565b610b0c5760405162461bcd60e51b815260206004820152602a60248201527f5361666545524332303a204552433230206f7065726174696f6e20646964206e6044820152691bdd081cdd58d8d9595960b21b60648201526084016105b8565b6060612285848460008561228f565b90505b9392505050565b6060824710156122f05760405162461bcd60e51b815260206004820152602660248201527f416464726573733a20696e73756666696369656e742062616c616e636520666f6044820152651c8818d85b1b60d21b60648201526084016105b8565b843b61233e5760405162461bcd60e51b815260206004820152601d60248201527f416464726573733a2063616c6c20746f206e6f6e2d636f6e747261637400000060448201526064016105b8565b600080866001600160a01b0316858760405161235a9190612cc8565b60006040518083038185875af1925050503d8060008114612397576040519150601f19603f3d011682016040523d82523d6000602084013e61239c565b606091505b50915091506123ac8282866123b7565b979650505050505050565b606083156123c6575081612288565b8251156123d65782518084602001fd5b8160405162461bcd60e51b81526004016105b89190612e80565b60006124036123fe846130da565b6130aa565b9050808382526020808301915083868660051b8601111561242357600080fd5b60005b868110156124765781356001600160401b0381111561244457600080fd5b8601601f8101891361245557600080fd5b6124638982358684016124fb565b8552509282019290820190600101612426565b505050509392505050565b600061248f6123fe846130da565b9050808382526020808301915083868660051b860111156124af57600080fd5b6000805b878110156124ef5782356001600160401b038111156124d0578283fd5b6124dc8a828a01612648565b86525093830193918301916001016124b3565b50505050509392505050565b60006001600160401b03831115612514576125146131a2565b612527601f8401601f19166020016130aa565b905082815283838301111561253b57600080fd5b828260208301376000602084830101529392505050565b600082601f83011261256357600080fd5b813560206125736123fe836130da565b80838252828201915082860187848660051b890101111561259357600080fd5b60005b858110156125bb5781356125a9816131b8565b84529284019290840190600101612596565b5090979650505050505050565b600082601f8301126125d957600080fd5b612288838335602085016123f0565b600082601f8301126125f957600080fd5b813560206126096123fe836130da565b80838252828201915082860187848660051b890101111561262957600080fd5b60005b858110156125bb5781358452928401929084019060010161262c565b600082601f83011261265957600080fd5b612288838335602085016124fb565b600060a0828403121561267a57600080fd5b50919050565b60006060828403121561267a57600080fd5b60006080828403121561267a57600080fd5b6000602082840312156126b657600080fd5b8135612288816131b8565b6000602082840312156126d357600080fd5b8151612288816131b8565b6000806000606084860312156126f357600080fd5b83516126fe816131b8565b602085015190935061270f816131b8565b80925050604084015190509250925092565b6000602080838503121561273457600080fd5b82356001600160401b0381111561274a57600080fd5b8301601f8101851361275b57600080fd5b80356127696123fe826130da565b8181528381019083850160e0808502860187018a101561278857600080fd5b60009550855b858110156128205781838c0312156127a4578687fd5b6127ac613082565b83356127b7816131b8565b8152838901356127c6816131b8565b818a015260408481013590820152606080850135908201526080808501356127ed816131b8565b9082015260a084810135612800816131b8565b9082015260c084810135908201528552938701939181019160010161278e565b50919998505050505050505050565b60006020828403121561284157600080fd5b8135612288816131cd565b60006020828403121561285e57600080fd5b8151612288816131cd565b60006020828403121561287b57600080fd5b5051919050565b600080600080600060a0868803121561289a57600080fd5b85356001600160401b03808211156128b157600080fd5b6128bd89838a01612648565b965060208801359150808211156128d357600080fd5b6128df89838a01612648565b955060408801359450606088013591506128f8826131b8565b9092506080870135908082111561290e57600080fd5b5061291b88828901612648565b9150509295509295909350565b6000806040838503121561293b57600080fd5b82356001600160401b038082111561295257600080fd5b61295e86838701612692565b9350602085013591508082111561297457600080fd5b5061298185828601612668565b9150509250929050565b600080600060e084860312156129a057600080fd5b83356001600160401b03808211156129b757600080fd5b6129c387838801612692565b945060208601359150808211156129d957600080fd5b506129e686828701612668565b9250506129f68560408601612668565b90509250925092565b600080600060608486031215612a1457600080fd5b83356001600160401b0380821115612a2b57600080fd5b612a3787838801612692565b94506020860135915080821115612a4d57600080fd5b612a5987838801612668565b93506040860135915080821115612a6f57600080fd5b50612a7c86828701612680565b9150509250925092565b600060208284031215612a9857600080fd5b5035919050565b600080600080600060a08688031215612ab757600080fd5b8535945060208601356001600160401b0380821115612ad557600080fd5b818801915088601f830112612ae957600080fd5b612af889833560208501612481565b95506040880135915080821115612b0e57600080fd5b612b1a89838a01612552565b94506060880135915080821115612b3057600080fd5b612b3c89838a016125e8565b93506080880135915080821115612b5257600080fd5b5061291b888289016125c8565b8183526000602080850194508260005b85811015612b9d578135612b82816131b8565b6001600160a01b031687529582019590820190600101612b6f565b509495945050505050565b600081518084526020808501945080840160005b83811015612b9d5781516001600160a01b031687529582019590820190600101612bbc565b600081518084526020808501808196508360051b8101915082860160005b85811015612c29578284038952612c17848351612c9c565b98850198935090840190600101612bff565b5091979650505050505050565b81835260006001600160fb1b03831115612c4f57600080fd5b8260051b8083602087013760009401602001938452509192915050565b600081518084526020808501945080840160005b83811015612b9d57815187529582019590820190600101612c80565b60008151808452612cb481602086016020860161312f565b601f01601f19169290920160200192915050565b60008251612cda81846020870161312f565b9190910192915050565b6001600160a01b0386168152606060208201819052600090612d099083018688612b5f565b8281036040840152612d1c818587612c36565b98975050505050505050565b600060018060a01b03808916835260c06020840152612d4a60c0840189612c9c565b8381036040850152612d5c8189612c9c565b90508187166060850152818616608085015283810360a0850152612d808186612c9c565b9a9950505050505050505050565b600060a0820160a0835280885180835260c08501915060c08160051b86010192506020808b0160005b83811015612de55760bf19888703018552612dd3868351612c9c565b95509382019390820190600101612db7565b505085840381870152505050612dfb8188612ba8565b90508281036040840152612e0f8187612ba8565b90508281036060840152612e238186612c6c565b90508281036080840152612d1c8185612be1565b606081526000612e4b60608301888a612c36565b8281036020840152612e5e818789612c36565b90508281036040840152612e73818587612b5f565b9998505050505050505050565b6020815260006122886020830184612c9c565b608081526000612ea66080830187612c9c565b6001600160a01b03861660208401528281036040840152612ec78186612c9c565b905082810360608401526123ac8185612c9c565b608081526000612eee6080830187612c9c565b8281036020840152612f008187612c9c565b604084019590955250506001600160a01b039190911660609091015292915050565b60208082526029908201527f4552433230466163746f72793a2054656d706c61746520696e64657820646f656040820152681cdb9d08195e1a5cdd60ba1b606082015260800190565b6020808252602c908201527f4552433732314454466163746f72793a2054656d706c61746520696e6465782060408201526b191bd95cdb9d08195e1a5cdd60a21b606082015260800190565b6020808252818101527f4f776e61626c653a2063616c6c6572206973206e6f7420746865206f776e6572604082015260600190565b6000808335601e1984360301811261300357600080fd5b8301803591506001600160401b0382111561301d57600080fd5b6020019150600581901b360382131561303557600080fd5b9250929050565b6000808335601e1984360301811261305357600080fd5b8301803591506001600160401b0382111561306d57600080fd5b60200191503681900382131561303557600080fd5b60405160e081016001600160401b03811182821017156130a4576130a46131a2565b60405290565b604051601f8201601f191681016001600160401b03811182821017156130d2576130d26131a2565b604052919050565b60006001600160401b038211156130f3576130f36131a2565b5060051b60200190565b6000821982111561311057613110613176565b500190565b60006122883684846123f0565b6000612288368484612481565b60005b8381101561314a578181015183820152602001613132565b83811115611e425750506000910152565b600060001982141561316f5761316f613176565b5060010190565b634e487b7160e01b600052601160045260246000fd5b634e487b7160e01b600052603260045260246000fd5b634e487b7160e01b600052604160045260246000fd5b6001600160a01b03811681146118e357600080fd5b80151581146118e357600080fdfea264697066735822122002d88d43692acdb142eb94fb1a0009b605e230e1be7da70cd30937a9e3a2538e64736f6c634300080700334f776e61626c653a2063616c6c6572206973206e6f7420746865206f776e6572",
  "linkReferences": {},
  "deployedLinkReferences": {}
}