{
  "_format": "hh-sol-artifact-1",
  "contractName": "ERC721Factory",
  "sourceName": "contracts/ERC721Factory.sol",
  "abi": [
    {
      "inputs": [
        {
          "internalType": "address",
          "name": "_template721",
          "type": "address"
        },
        {
          "internalType": "address",
          "name": "_template",
          "type": "address"
        },
        {
          "internalType": "address",
          "name": "_collector",
          "type": "address"
        },
        {
          "internalType": "address",
          "name": "_router",
          "type": "address"
        },
        {
          "internalType": "address",
          "name": "_metadata",
          "type": "address"
        }
      ],
      "stateMutability": "nonpayable",
      "type": "constructor"
    },
    {
      "anonymous": false,
      "inputs": [
        {
          "indexed": false,
          "internalType": "address",
          "name": "instance",
          "type": "address"
        }
      ],
      "name": "InstanceDeployed",
      "type": "event"
    },
    {
      "anonymous": false,
      "inputs": [
        {
          "indexed": true,
          "internalType": "address",
          "name": "newTokenAddress",
          "type": "address"
        },
        {
          "indexed": true,
          "internalType": "address",
          "name": "templateAddress",
          "type": "address"
        },
        {
          "indexed": true,
          "internalType": "string",
          "name": "tokenName",
          "type": "string"
        },
        {
          "indexed": false,
          "internalType": "address",
          "name": "admin",
          "type": "address"
        }
      ],
      "name": "NFTCreated",
      "type": "event"
    },
    {
      "anonymous": false,
      "inputs": [
        {
          "indexed": true,
          "internalType": "address",
          "name": "previousOwner",
          "type": "address"
        },
        {
          "indexed": true,
          "internalType": "address",
          "name": "newOwner",
          "type": "address"
        }
      ],
      "name": "OwnershipTransferred",
      "type": "event"
    },
    {
      "anonymous": false,
      "inputs": [
        {
          "indexed": true,
          "internalType": "address",
          "name": "newTokenAddress",
          "type": "address"
        },
        {
          "indexed": true,
          "internalType": "address",
          "name": "templateAddress",
          "type": "address"
        },
        {
          "indexed": true,
          "internalType": "string",
          "name": "tokenName",
          "type": "string"
        }
      ],
      "name": "TokenCreated",
      "type": "event"
    },
    {
      "anonymous": false,
      "inputs": [
        {
          "indexed": true,
          "internalType": "address",
          "name": "tokenAddress",
          "type": "address"
        },
        {
          "indexed": false,
          "internalType": "string",
          "name": "tokenName",
          "type": "string"
        },
        {
          "indexed": false,
          "internalType": "string",
          "name": "tokenSymbol",
          "type": "string"
        },
        {
          "indexed": false,
          "internalType": "uint256",
          "name": "tokenCap",
          "type": "uint256"
        },
        {
          "indexed": true,
          "internalType": "address",
          "name": "registeredBy",
          "type": "address"
        }
      ],
      "name": "TokenRegistered",
      "type": "event"
    },
    {
      "inputs": [
        {
          "internalType": "address",
          "name": "_templateAddress",
          "type": "address"
        }
      ],
      "name": "add721TokenTemplate",
      "outputs": [
        {
          "internalType": "uint256",
          "name": "",
          "type": "uint256"
        }
      ],
      "stateMutability": "nonpayable",
      "type": "function"
    },
    {
      "inputs": [
        {
          "internalType": "address",
          "name": "_templateAddress",
          "type": "address"
        }
      ],
      "name": "addTokenTemplate",
      "outputs": [
        {
          "internalType": "uint256",
          "name": "",
          "type": "uint256"
        }
      ],
      "stateMutability": "nonpayable",
      "type": "function"
    },
    {
      "inputs": [
        {
          "internalType": "string",
          "name": "name",
          "type": "string"
        },
        {
          "internalType": "string",
          "name": "symbol",
          "type": "string"
        },
        {
          "internalType": "uint256",
          "name": "cap",
          "type": "uint256"
        },
        {
          "internalType": "uint256",
          "name": "_templateIndex",
          "type": "uint256"
        },
        {
          "internalType": "address",
          "name": "minter",
          "type": "address"
        },
        {
          "internalType": "address",
          "name": "feeManager",
          "type": "address"
        }
      ],
      "name": "createToken",
      "outputs": [
        {
          "internalType": "address",
          "name": "token",
          "type": "address"
        }
      ],
      "stateMutability": "nonpayable",
      "type": "function"
    },
    {
      "inputs": [
        {
          "internalType": "string",
          "name": "name",
          "type": "string"
        },
        {
          "internalType": "string",
          "name": "symbol",
          "type": "string"
        },
        {
          "internalType": "bytes",
          "name": "_data",
          "type": "bytes"
        },
        {
          "internalType": "bytes",
          "name": "_flags",
          "type": "bytes"
        },
        {
          "internalType": "uint256",
          "name": "_templateIndex",
          "type": "uint256"
        }
      ],
      "name": "deployERC721Contract",
      "outputs": [
        {
          "internalType": "address",
          "name": "token",
          "type": "address"
        }
      ],
      "stateMutability": "nonpayable",
      "type": "function"
    },
    {
      "inputs": [
        {
          "internalType": "uint256",
          "name": "_index",
          "type": "uint256"
        }
      ],
      "name": "disable721TokenTemplate",
      "outputs": [],
      "stateMutability": "nonpayable",
      "type": "function"
    },
    {
      "inputs": [
        {
          "internalType": "uint256",
          "name": "_index",
          "type": "uint256"
        }
      ],
      "name": "disableTokenTemplate",
      "outputs": [],
      "stateMutability": "nonpayable",
      "type": "function"
    },
    {
      "inputs": [
        {
          "internalType": "address",
          "name": "",
          "type": "address"
        }
      ],
      "name": "erc20List",
      "outputs": [
        {
          "internalType": "bool",
          "name": "",
          "type": "bool"
        }
      ],
      "stateMutability": "view",
      "type": "function"
    },
    {
      "inputs": [],
      "name": "erc721Factory",
      "outputs": [
        {
          "internalType": "address",
          "name": "",
          "type": "address"
        }
      ],
      "stateMutability": "view",
      "type": "function"
    },
    {
      "inputs": [
        {
          "internalType": "address",
          "name": "",
          "type": "address"
        }
      ],
      "name": "erc721List",
      "outputs": [
        {
          "internalType": "address",
          "name": "",
          "type": "address"
        }
      ],
      "stateMutability": "view",
      "type": "function"
    },
    {
      "inputs": [],
      "name": "getCurrentNFTCount",
      "outputs": [
        {
          "internalType": "uint256",
          "name": "",
          "type": "uint256"
        }
      ],
      "stateMutability": "view",
      "type": "function"
    },
    {
      "inputs": [],
      "name": "getCurrentNFTTemplateCount",
      "outputs": [
        {
          "internalType": "uint256",
          "name": "",
          "type": "uint256"
        }
      ],
      "stateMutability": "view",
      "type": "function"
    },
    {
      "inputs": [],
      "name": "getCurrentTemplateCount",
      "outputs": [
        {
          "internalType": "uint256",
          "name": "",
          "type": "uint256"
        }
      ],
      "stateMutability": "view",
      "type": "function"
    },
    {
      "inputs": [],
      "name": "getCurrentTokenCount",
      "outputs": [
        {
          "internalType": "uint256",
          "name": "",
          "type": "uint256"
        }
      ],
      "stateMutability": "view",
      "type": "function"
    },
    {
      "inputs": [
        {
          "internalType": "uint256",
          "name": "_index",
          "type": "uint256"
        }
      ],
      "name": "getNFTTemplate",
      "outputs": [
        {
          "components": [
            {
              "internalType": "address",
              "name": "templateAddress",
              "type": "address"
            },
            {
              "internalType": "bool",
              "name": "isActive",
              "type": "bool"
            }
          ],
          "internalType": "struct ERC721Factory.Template",
          "name": "",
          "type": "tuple"
        }
      ],
      "stateMutability": "view",
      "type": "function"
    },
    {
      "inputs": [
        {
          "internalType": "uint256",
          "name": "_index",
          "type": "uint256"
        }
      ],
      "name": "getTokenTemplate",
      "outputs": [
        {
          "components": [
            {
              "internalType": "address",
              "name": "templateAddress",
              "type": "address"
            },
            {
              "internalType": "bool",
              "name": "isActive",
              "type": "bool"
            }
          ],
          "internalType": "struct ERC721Factory.Template",
          "name": "",
          "type": "tuple"
        }
      ],
      "stateMutability": "view",
      "type": "function"
    },
    {
      "inputs": [
        {
          "internalType": "uint256",
          "name": "",
          "type": "uint256"
        }
      ],
      "name": "nftTemplateList",
      "outputs": [
        {
          "internalType": "address",
          "name": "templateAddress",
          "type": "address"
        },
        {
          "internalType": "bool",
          "name": "isActive",
          "type": "bool"
        }
      ],
      "stateMutability": "view",
      "type": "function"
    },
    {
      "inputs": [],
      "name": "owner",
      "outputs": [
        {
          "internalType": "address",
          "name": "",
          "type": "address"
        }
      ],
      "stateMutability": "view",
      "type": "function"
    },
    {
      "inputs": [
        {
          "internalType": "uint256",
          "name": "_index",
          "type": "uint256"
        }
      ],
      "name": "reactivate721TokenTemplate",
      "outputs": [],
      "stateMutability": "nonpayable",
      "type": "function"
    },
    {
      "inputs": [
        {
          "internalType": "uint256",
          "name": "_index",
          "type": "uint256"
        }
      ],
      "name": "reactivateTokenTemplate",
      "outputs": [],
      "stateMutability": "nonpayable",
      "type": "function"
    },
    {
      "inputs": [],
      "name": "renounceOwnership",
      "outputs": [],
      "stateMutability": "nonpayable",
      "type": "function"
    },
    {
      "inputs": [],
      "name": "router",
      "outputs": [
        {
          "internalType": "address",
          "name": "",
          "type": "address"
        }
      ],
      "stateMutability": "view",
      "type": "function"
    },
    {
      "inputs": [],
      "name": "templateCount",
      "outputs": [
        {
          "internalType": "uint256",
          "name": "",
          "type": "uint256"
        }
      ],
      "stateMutability": "view",
      "type": "function"
    },
    {
      "inputs": [
        {
          "internalType": "uint256",
          "name": "",
          "type": "uint256"
        }
      ],
      "name": "templateList",
      "outputs": [
        {
          "internalType": "address",
          "name": "templateAddress",
          "type": "address"
        },
        {
          "internalType": "bool",
          "name": "isActive",
          "type": "bool"
        }
      ],
      "stateMutability": "view",
      "type": "function"
    },
    {
      "inputs": [
        {
          "internalType": "address",
          "name": "newOwner",
          "type": "address"
        }
      ],
      "name": "transferOwnership",
      "outputs": [],
      "stateMutability": "nonpayable",
      "type": "function"
    }
  ],
  "bytecode": "0x60806040526000600b553480156200001657600080fd5b5060405162001f4338038062001f438339810160408190526200003991620003c4565b6000620000456200015e565b600080546001600160a01b0319166001600160a01b0383169081178255604051929350917f8be0079c531659141344cd1fd0a4f28419497f9722a3daafe3b4186f6b6457e0908290a3506001600160a01b03841615801590620000b057506001600160a01b03831615155b8015620000c557506001600160a01b03851615155b8015620000da57506001600160a01b03811615155b620001025760405162461bcd60e51b8152600401620000f99062000433565b60405180910390fd5b6200010d8562000162565b5062000119846200027d565b50600e80546001600160a01b03199081166001600160a01b03948516179091556001805482169484169490941790935560048054909316911617905550620006229050565b3390565b60006200016e6200015e565b6001600160a01b03166200018162000397565b6001600160a01b031614620001aa5760405162461bcd60e51b8152600401620000f9906200050e565b6001600160a01b038216620001d35760405162461bcd60e51b8152600401620000f990620005a0565b620001de82620003a6565b620001fd5760405162461bcd60e51b8152600401620000f990620004d7565b600160056000828254620002129190620005fd565b90915550506040805180820182526001600160a01b0380851682526001602080840191825260058054600090815260069092529490209251835491511515600160a01b0260ff60a01b19919093166001600160a01b031990921691909117161790555490505b919050565b6000620002896200015e565b6001600160a01b03166200029c62000397565b6001600160a01b031614620002c55760405162461bcd60e51b8152600401620000f9906200050e565b6001600160a01b038216620002ee5760405162461bcd60e51b8152600401620000f99062000543565b620002f982620003a6565b620003185760405162461bcd60e51b8152600401620000f990620004a0565b6001600d60008282546200032d9190620005fd565b90915550506040805180820182526001600160a01b03808516825260016020808401918252600d8054600090815260079092529490209251835491511515600160a01b0260ff60a01b19919093166001600160a01b03199092169190911716179055549050919050565b6000546001600160a01b031690565b3b151590565b80516001600160a01b03811681146200027857600080fd5b600080600080600060a08688031215620003dc578081fd5b620003e786620003ac565b9450620003f760208701620003ac565b93506200040760408701620003ac565b92506200041760608701620003ac565b91506200042760808701620003ac565b90509295509295909350565b60208082526047908201527f4552433732314454466163746f72793a20496e76616c69642074656d706c617460408201527f6520746f6b656e2f636f6d6d756e6974792066656520636f6c6c6563746f72206060820152666164647265737360c81b608082015260a00190565b6020808252601a908201527f4552433230466163746f72793a204e4f5420434f4e5452414354000000000000604082015260600190565b6020808252601b908201527f455243373231466163746f72793a204e4f5420434f4e54524143540000000000604082015260600190565b6020808252818101527f4f776e61626c653a2063616c6c6572206973206e6f7420746865206f776e6572604082015260600190565b60208082526034908201527f4552433230466163746f72793a204552433732312074656d706c61746520616460408201527f6472657373283029204e4f5420414c4c4f574544000000000000000000000000606082015260800190565b60208082526037908201527f4552433732314454466163746f72793a204552433732312074656d706c61746560408201527f2061646472657373283029204e4f5420414c4c4f574544000000000000000000606082015260800190565b600082198211156200061d57634e487b7160e01b81526011600452602481fd5b500190565b61191180620006326000396000f3fe608060405234801561001057600080fd5b50600436106101585760003560e01c806382c44204116100c3578063b43ced0f1161007c578063b43ced0f146102c9578063bbf8d71f146102d1578063c6cf868a146102e4578063e5fc01f0146102ec578063f2fde38b146102f4578063f887ea401461030757610158565b806382c442041461025f5780638da5cb5b146102805780638f6051af14610288578063940516991461029b57806395c60305146102ae578063a33ef2a6146102b657610158565b80635c705982116101155780635c70598214610203578063715018a61461020b57806372f670f01461021357806373ecb347146102265780637b20bccf14610239578063809d81051461024c57610158565b8063042ab9b31461015d5780630ffda88714610186578063226e76151461019b57806326705c3c146101bb57806327819e06146101d05780633315efd1146101f0575b600080fd5b61017061016b366004611183565b61030f565b60405161017d9190611846565b60405180910390f35b610199610194366004611183565b61038c565b005b6101ae6101a9366004610ffe565b6103e6565b60405161017d919061128d565b6101c36103fb565b60405161017d9190611868565b6101e36101de36600461103f565b610401565b60405161017d91906111e3565b6101706101fe366004611183565b61060d565b6101c3610650565b610199610656565b6101e3610221366004610ffe565b6106df565b6101e36102343660046110ef565b6106fa565b6101c3610247366004610ffe565b6109bb565b61019961025a366004611183565b610ac4565b61027261026d366004611183565b610b4b565b60405161017d9291906111f7565b6101e3610b72565b6101c3610296366004610ffe565b610b81565b6102726102a9366004611183565b610c8a565b6101c3610cb1565b6101996102c4366004611183565b610cb7565b6101e3610d44565b6101996102df366004611183565b610d53565b6101c3610de0565b6101c3610de6565b610199610302366004610ffe565b610dec565b6101e3610eac565b610317610f4f565b6000828152600760209081526040918290208251808401909352546001600160a01b0381168352600160a01b900460ff16151590820152600d54831180159061035f57508215155b6103845760405162461bcd60e51b815260040161037b90611339565b60405180910390fd5b90505b919050565b610394610ebb565b6001600160a01b03166103a5610b72565b6001600160a01b0316146103cb5760405162461bcd60e51b815260040161037b906116b5565b6000908152600760205260409020805460ff60a01b19169055565b60096020526000908152604090205460ff1681565b600d5481565b6000600554821115801561041457508115155b6104305760405162461bcd60e51b815260040161037b90611458565b6000828152600660209081526040918290208251808401909352546001600160a01b0381168352600160a01b900460ff1615159082018190526001146104885760405162461bcd60e51b815260040161037b906117f8565b805161049390610ebf565b91506001600160a01b0382166104bb5760405162461bcd60e51b815260040161037b9061157a565b6001600160a01b038083166000818152600860205260409081902080546001600160a01b03191683179055600480549151637db0f56d60e01b81528694637db0f56d936105169333938f938f93169130918f918f9101611212565b602060405180830381600087803b15801561053057600080fd5b505af1158015610544573d6000803e3d6000fd5b505050506040513d601f19601f82011682018060405250810190610568919061101f565b6105845760405162461bcd60e51b815260040161037b90611382565b8760405161059291906111c7565b604051809103902082600001516001600160a01b0316846001600160a01b03167fab79f3a133194dac43d8f36c89aabc54656acb3d2a780060ac9006812e465565336040516105e191906111e3565b60405180910390a46001600260008282546105fc9190611871565b909155509298975050505050505050565b610615610f4f565b506000908152600660209081526040918290208251808401909352546001600160a01b0381168352600160a01b900460ff1615159082015290565b60025490565b61065e610ebb565b6001600160a01b031661066f610b72565b6001600160a01b0316146106955760405162461bcd60e51b815260040161037b906116b5565b600080546040516001600160a01b03909116907f8be0079c531659141344cd1fd0a4f28419497f9722a3daafe3b4186f6b6457e0908390a3600080546001600160a01b0319169055565b6008602052600090815260409020546001600160a01b031681565b6000846107195760405162461bcd60e51b815260040161037b906114ea565b600d54841115801561072a57508315155b6107465760405162461bcd60e51b815260040161037b90611339565b6000848152600760209081526040918290208251808401909352546001600160a01b0381168352600160a01b900460ff16151590820181905260011461079e5760405162461bcd60e51b815260040161037b9061152f565b80516107a990610ebf565b6001600160a01b0381166000818152600960205260409020805460ff191660011790559092506107eb5760405162461bcd60e51b815260040161037b9061173e565b3360008181526008602052604090205483916001600160a01b03909116146108255760405162461bcd60e51b815260040161037b90611660565b806001600160a01b0316631ac570898a8a338b600160009054906101000a90046001600160a01b03168b600e60009054906101000a90046001600160a01b03168c6040518963ffffffff1660e01b8152600401610889989796959493929190611298565b602060405180830381600087803b1580156108a357600080fd5b505af11580156108b7573d6000803e3d6000fd5b505050506040513d601f19601f820116820180604052508101906108db919061101f565b6108f75760405162461bcd60e51b815260040161037b9061160f565b8860405161090591906111c7565b604051908190038120835190916001600160a01b03918216918616907fb51c8cbe199ffe8b0d1d39b62d473569750653cb18b165f77ae423b3900180ad90600090a4336001600160a01b0316836001600160a01b03167f54d11595f5fae5f45b1d7cc667adaf93951cf3757995b2c20dcd7b0fa81e91d08b8b8b60405161098e93929190611303565b60405180910390a36001600b60008282546109a99190611871565b90915550929998505050505050505050565b60006109c5610ebb565b6001600160a01b03166109d6610b72565b6001600160a01b0316146109fc5760405162461bcd60e51b815260040161037b906116b5565b6001600160a01b038216610a225760405162461bcd60e51b815260040161037b906116ea565b610a2b82610f49565b610a475760405162461bcd60e51b815260040161037b90611421565b6001600d6000828254610a5a9190611871565b90915550506040805180820182526001600160a01b03808516825260016020808401918252600d8054600090815260079092529490209251835491511515600160a01b0260ff60a01b19919093166001600160a01b03199092169190911716179055549050919050565b610acc610ebb565b6001600160a01b0316610add610b72565b6001600160a01b031614610b035760405162461bcd60e51b815260040161037b906116b5565b6005548111158015610b1457508015155b610b305760405162461bcd60e51b815260040161037b90611458565b6000908152600660205260409020805460ff60a01b19169055565b6006602052600090815260409020546001600160a01b03811690600160a01b900460ff1682565b6000546001600160a01b031690565b6000610b8b610ebb565b6001600160a01b0316610b9c610b72565b6001600160a01b031614610bc25760405162461bcd60e51b815260040161037b906116b5565b6001600160a01b038216610be85760405162461bcd60e51b815260040161037b9061179b565b610bf182610f49565b610c0d5760405162461bcd60e51b815260040161037b906115d8565b600160056000828254610c209190611871565b90915550506040805180820182526001600160a01b0380851682526001602080840191825260058054600090815260069092529490209251835491511515600160a01b0260ff60a01b19919093166001600160a01b03199092169190911716179055549050919050565b6007602052600090815260409020546001600160a01b03811690600160a01b900460ff1682565b600d5490565b610cbf610ebb565b6001600160a01b0316610cd0610b72565b6001600160a01b031614610cf65760405162461bcd60e51b815260040161037b906116b5565b6005548111158015610d0757508015155b610d235760405162461bcd60e51b815260040161037b90611458565b6000908152600660205260409020805460ff60a01b1916600160a01b179055565b600c546001600160a01b031681565b610d5b610ebb565b6001600160a01b0316610d6c610b72565b6001600160a01b031614610d925760405162461bcd60e51b815260040161037b906116b5565b600d548111158015610da357508015155b610dbf5760405162461bcd60e51b815260040161037b906113d6565b6000908152600760205260409020805460ff60a01b1916600160a01b179055565b600b5490565b60055490565b610df4610ebb565b6001600160a01b0316610e05610b72565b6001600160a01b031614610e2b5760405162461bcd60e51b815260040161037b906116b5565b6001600160a01b038116610e515760405162461bcd60e51b815260040161037b906114a4565b600080546040516001600160a01b03808516939216917f8be0079c531659141344cd1fd0a4f28419497f9722a3daafe3b4186f6b6457e091a3600080546001600160a01b0319166001600160a01b0392909216919091179055565b600e546001600160a01b031681565b3390565b6000808260601b9050604051733d602d80600a3d3981f3363d3d373d3d3d363d7360601b81528160148201526e5af43d82803e903d91602b57fd5bf360881b60288201526037816000f09250507f117c72e6c25f0a072e36e148df71468ce2f3dbe7defec5b2c257a6e3eb65278c82604051610f3b91906111e3565b60405180910390a150919050565b3b151590565b604080518082019091526000808252602082015290565b80356001600160a01b038116811461038757600080fd5b600082601f830112610f8d578081fd5b813567ffffffffffffffff80821115610fa857610fa86118c5565b604051601f8301601f191681016020018281118282101715610fcc57610fcc6118c5565b604052828152848301602001861015610fe3578384fd5b82602086016020830137918201602001929092529392505050565b60006020828403121561100f578081fd5b61101882610f66565b9392505050565b600060208284031215611030578081fd5b81518015158114611018578182fd5b600080600080600060a08688031215611056578081fd5b853567ffffffffffffffff8082111561106d578283fd5b61107989838a01610f7d565b9650602088013591508082111561108e578283fd5b61109a89838a01610f7d565b955060408801359150808211156110af578283fd5b6110bb89838a01610f7d565b945060608801359150808211156110d0578283fd5b506110dd88828901610f7d565b95989497509295608001359392505050565b60008060008060008060c08789031215611107578081fd5b863567ffffffffffffffff8082111561111e578283fd5b61112a8a838b01610f7d565b9750602089013591508082111561113f578283fd5b5061114c89828a01610f7d565b955050604087013593506060870135925061116960808801610f66565b915061117760a08801610f66565b90509295509295509295565b600060208284031215611194578081fd5b5035919050565b600081518084526111b3816020860160208601611895565b601f01601f19169290920160200192915050565b600082516111d9818460208701611895565b9190910192915050565b6001600160a01b0391909116815260200190565b6001600160a01b039290921682521515602082015260400190565b600060018060a01b03808a16835260e0602084015261123460e084018a61119b565b8381036040850152611246818a61119b565b90508188166060850152818716608085015283810360a085015261126a818761119b565b91505082810360c084015261127f818561119b565b9a9950505050505050505050565b901515815260200190565b60006101008083526112ac8184018c61119b565b905082810360208401526112c0818b61119b565b6001600160a01b03998a16604085015260608401989098525050938616608085015291851660a0840152841660c083015290921660e09092019190915292915050565b600060608252611316606083018661119b565b8281036020840152611328818661119b565b915050826040830152949350505050565b60208082526029908201527f4552433230466163746f72793a2054656d706c61746520696e64657820646f656040820152681cdb9d08195e1a5cdd60ba1b606082015260800190565b60208082526034908201527f4552433732314454466163746f72793a20556e61626c6520746f20696e697469604082015273616c697a6520746f6b656e20696e7374616e636560601b606082015260800190565b6020808252602b908201527f45524332304454466163746f72793a2054656d706c61746520696e646578206460408201526a1bd95cdb9d08195e1a5cdd60aa1b606082015260800190565b6020808252601a908201527f4552433230466163746f72793a204e4f5420434f4e5452414354000000000000604082015260600190565b6020808252602c908201527f4552433732314454466163746f72793a2054656d706c61746520696e6465782060408201526b191bd95cdb9d08195e1a5cdd60a21b606082015260800190565b60208082526026908201527f4f776e61626c653a206e6577206f776e657220697320746865207a65726f206160408201526564647265737360d01b606082015260800190565b60208082526025908201527f4552433230466163746f72793a207a65726f20636170206973206e6f7420616c6040820152641b1bddd95960da1b606082015260800190565b6020808252602b908201527f4552433230466163746f72793a20455243373231546f6b656e2054656d706c6160408201526a1d1948191a5cd8589b195960aa1b606082015260800190565b602080825260409082018190527f4552433732314454466163746f72793a204661696c656420746f20706572666f908201527f726d206d696e696d616c206465706c6f79206f662061206e657720746f6b656e606082015260800190565b6020808252601b908201527f455243373231466163746f72793a204e4f5420434f4e54524143540000000000604082015260600190565b60208082526031908201527f4552433230466163746f72793a20556e61626c6520746f20696e697469616c696040820152707a6520746f6b656e20696e7374616e636560781b606082015260800190565b60208082526035908201527f4552433230466163746f72793a204f4e4c592045524337323120494e5354414e60408201527443452046524f4d20455243373231464143544f525960581b606082015260800190565b6020808252818101527f4f776e61626c653a2063616c6c6572206973206e6f7420746865206f776e6572604082015260600190565b60208082526034908201527f4552433230466163746f72793a204552433732312074656d706c617465206164604082015273191c995cdcca0c0a481393d50810531313d5d15160621b606082015260800190565b6020808252603d908201527f4552433230466163746f72793a204661696c656420746f20706572666f726d2060408201527f6d696e696d616c206465706c6f79206f662061206e657720746f6b656e000000606082015260800190565b60208082526037908201527f4552433732314454466163746f72793a204552433732312074656d706c61746560408201527f2061646472657373283029204e4f5420414c4c4f574544000000000000000000606082015260800190565b6020808252602e908201527f4552433732314454466163746f72793a20455243373231546f6b656e2054656d60408201526d1c1b185d1948191a5cd8589b195960921b606082015260800190565b81516001600160a01b0316815260209182015115159181019190915260400190565b90815260200190565b6000821982111561189057634e487b7160e01b81526011600452602481fd5b500190565b60005b838110156118b0578181015183820152602001611898565b838111156118bf576000848401525b50505050565b634e487b7160e01b600052604160045260246000fdfea2646970667358221220d4ad41bea3a85d427577acbee40bc2cd145e3a18610e3b850b3e24c6eda086fa64736f6c63430008000033",
  "linkReferences": {},
  "deployedLinkReferences": {}
}