{
  "_format": "hh-sol-artifact-1",
  "contractName": "ERC721Factory",
  "sourceName": "contracts/ERC721Factory.sol",
  "abi": [
    {
      "inputs": [
        {
          "internalType": "address",
          "name": "_template721",
          "type": "address"
        },
        {
          "internalType": "address",
          "name": "_template",
          "type": "address"
        },
        {
          "internalType": "address",
          "name": "_collector",
          "type": "address"
        },
        {
          "internalType": "address",
          "name": "_router",
          "type": "address"
        }
      ],
      "stateMutability": "nonpayable",
      "type": "constructor"
    },
    {
      "anonymous": false,
      "inputs": [
        {
          "indexed": true,
          "internalType": "address",
          "name": "datatokenAddress",
          "type": "address"
        },
        {
          "indexed": true,
          "internalType": "address",
          "name": "owner",
          "type": "address"
        },
        {
          "indexed": false,
          "internalType": "uint256",
          "name": "maxTokens",
          "type": "uint256"
        },
        {
          "indexed": false,
          "internalType": "uint256",
          "name": "maxBalance",
          "type": "uint256"
        },
        {
          "indexed": false,
          "internalType": "address",
          "name": "allowedSwapper",
          "type": "address"
        }
      ],
      "name": "DispenserCreated",
      "type": "event"
    },
    {
      "anonymous": false,
      "inputs": [
        {
          "indexed": false,
          "internalType": "address",
          "name": "instance",
          "type": "address"
        }
      ],
      "name": "InstanceDeployed",
      "type": "event"
    },
    {
      "anonymous": false,
      "inputs": [
        {
          "indexed": true,
          "internalType": "address",
          "name": "newTokenAddress",
          "type": "address"
        },
        {
          "indexed": true,
          "internalType": "address",
          "name": "templateAddress",
          "type": "address"
        },
        {
          "indexed": false,
          "internalType": "string",
          "name": "tokenName",
          "type": "string"
        },
        {
          "indexed": false,
          "internalType": "address",
          "name": "admin",
          "type": "address"
        },
        {
          "indexed": false,
          "internalType": "string",
          "name": "symbol",
          "type": "string"
        },
        {
          "indexed": false,
          "internalType": "string",
          "name": "tokenURI",
          "type": "string"
        }
      ],
      "name": "NFTCreated",
      "type": "event"
    },
    {
      "anonymous": false,
      "inputs": [
        {
          "indexed": false,
          "internalType": "address",
          "name": "dispenserContract",
          "type": "address"
        }
      ],
      "name": "NewDispenser",
      "type": "event"
    },
    {
      "anonymous": false,
      "inputs": [
        {
          "indexed": false,
          "internalType": "bytes32",
          "name": "exchangeId",
          "type": "bytes32"
        },
        {
          "indexed": true,
          "internalType": "address",
          "name": "owner",
          "type": "address"
        },
        {
          "indexed": false,
          "internalType": "address",
          "name": "exchangeContract",
          "type": "address"
        },
        {
          "indexed": true,
          "internalType": "address",
          "name": "baseToken",
          "type": "address"
        }
      ],
      "name": "NewFixedRate",
      "type": "event"
    },
    {
      "anonymous": false,
      "inputs": [
        {
          "indexed": false,
          "internalType": "address",
          "name": "poolAddress",
          "type": "address"
        },
        {
          "indexed": false,
          "internalType": "address",
          "name": "ssContract",
          "type": "address"
        },
        {
          "indexed": false,
          "internalType": "address",
          "name": "baseTokenAddress",
          "type": "address"
        }
      ],
      "name": "NewPool",
      "type": "event"
    },
    {
      "anonymous": false,
      "inputs": [
        {
          "indexed": true,
          "internalType": "address",
          "name": "previousOwner",
          "type": "address"
        },
        {
          "indexed": true,
          "internalType": "address",
          "name": "newOwner",
          "type": "address"
        }
      ],
      "name": "OwnershipTransferred",
      "type": "event"
    },
    {
      "anonymous": false,
      "inputs": [
        {
          "indexed": true,
          "internalType": "address",
          "name": "_templateAddress",
          "type": "address"
        },
        {
          "indexed": true,
          "internalType": "uint256",
          "name": "nftTemplateCount",
          "type": "uint256"
        }
      ],
      "name": "Template20Added",
      "type": "event"
    },
    {
      "anonymous": false,
      "inputs": [
        {
          "indexed": true,
          "internalType": "address",
          "name": "_templateAddress",
          "type": "address"
        },
        {
          "indexed": true,
          "internalType": "uint256",
          "name": "nftTemplateCount",
          "type": "uint256"
        }
      ],
      "name": "Template721Added",
      "type": "event"
    },
    {
      "anonymous": false,
      "inputs": [
        {
          "indexed": true,
          "internalType": "address",
          "name": "newTokenAddress",
          "type": "address"
        },
        {
          "indexed": true,
          "internalType": "address",
          "name": "templateAddress",
          "type": "address"
        },
        {
          "indexed": false,
          "internalType": "string",
          "name": "name",
          "type": "string"
        },
        {
          "indexed": false,
          "internalType": "string",
          "name": "symbol",
          "type": "string"
        },
        {
          "indexed": false,
          "internalType": "uint256",
          "name": "cap",
          "type": "uint256"
        },
        {
          "indexed": false,
          "internalType": "address",
          "name": "creator",
          "type": "address"
        }
      ],
      "name": "TokenCreated",
      "type": "event"
    },
    {
      "anonymous": false,
      "inputs": [
        {
          "indexed": true,
          "internalType": "address",
          "name": "from",
          "type": "address"
        },
        {
          "indexed": true,
          "internalType": "address",
          "name": "to",
          "type": "address"
        },
        {
          "indexed": true,
          "internalType": "uint256",
          "name": "tokenId",
          "type": "uint256"
        }
      ],
      "name": "Transfer",
      "type": "event"
    },
    {
      "inputs": [
        {
          "internalType": "address",
          "name": "_templateAddress",
          "type": "address"
        }
      ],
      "name": "add721TokenTemplate",
      "outputs": [
        {
          "internalType": "uint256",
          "name": "",
          "type": "uint256"
        }
      ],
      "stateMutability": "nonpayable",
      "type": "function"
    },
    {
      "inputs": [
        {
          "internalType": "address",
          "name": "_templateAddress",
          "type": "address"
        }
      ],
      "name": "addTokenTemplate",
      "outputs": [
        {
          "internalType": "uint256",
          "name": "",
          "type": "uint256"
        }
      ],
      "stateMutability": "nonpayable",
      "type": "function"
    },
    {
      "inputs": [
        {
          "components": [
            {
              "internalType": "string",
              "name": "name",
              "type": "string"
            },
            {
              "internalType": "string",
              "name": "symbol",
              "type": "string"
            },
            {
              "internalType": "uint256",
              "name": "templateIndex",
              "type": "uint256"
            },
            {
              "internalType": "string",
              "name": "tokenURI",
              "type": "string"
            }
          ],
          "internalType": "struct ERC721Factory.NftCreateData",
          "name": "_NftCreateData",
          "type": "tuple"
        },
        {
          "components": [
            {
              "internalType": "uint256",
              "name": "templateIndex",
              "type": "uint256"
            },
            {
              "internalType": "string[]",
              "name": "strings",
              "type": "string[]"
            },
            {
              "internalType": "address[]",
              "name": "addresses",
              "type": "address[]"
            },
            {
              "internalType": "uint256[]",
              "name": "uints",
              "type": "uint256[]"
            },
            {
              "internalType": "bytes[]",
              "name": "bytess",
              "type": "bytes[]"
            }
          ],
          "internalType": "struct ERC721Factory.ErcCreateData",
          "name": "_ErcCreateData",
          "type": "tuple"
        }
      ],
      "name": "createNftWithErc20",
      "outputs": [
        {
          "internalType": "address",
          "name": "erc721Address",
          "type": "address"
        },
        {
          "internalType": "address",
          "name": "erc20Address",
          "type": "address"
        }
      ],
      "stateMutability": "nonpayable",
      "type": "function"
    },
    {
      "inputs": [
        {
          "components": [
            {
              "internalType": "string",
              "name": "name",
              "type": "string"
            },
            {
              "internalType": "string",
              "name": "symbol",
              "type": "string"
            },
            {
              "internalType": "uint256",
              "name": "templateIndex",
              "type": "uint256"
            },
            {
              "internalType": "string",
              "name": "tokenURI",
              "type": "string"
            }
          ],
          "internalType": "struct ERC721Factory.NftCreateData",
          "name": "_NftCreateData",
          "type": "tuple"
        },
        {
          "components": [
            {
              "internalType": "uint256",
              "name": "templateIndex",
              "type": "uint256"
            },
            {
              "internalType": "string[]",
              "name": "strings",
              "type": "string[]"
            },
            {
              "internalType": "address[]",
              "name": "addresses",
              "type": "address[]"
            },
            {
              "internalType": "uint256[]",
              "name": "uints",
              "type": "uint256[]"
            },
            {
              "internalType": "bytes[]",
              "name": "bytess",
              "type": "bytes[]"
            }
          ],
          "internalType": "struct ERC721Factory.ErcCreateData",
          "name": "_ErcCreateData",
          "type": "tuple"
        },
        {
          "components": [
            {
              "internalType": "address",
              "name": "dispenserAddress",
              "type": "address"
            },
            {
              "internalType": "uint256",
              "name": "maxTokens",
              "type": "uint256"
            },
            {
              "internalType": "uint256",
              "name": "maxBalance",
              "type": "uint256"
            },
            {
              "internalType": "bool",
              "name": "withMint",
              "type": "bool"
            },
            {
              "internalType": "address",
              "name": "allowedSwapper",
              "type": "address"
            }
          ],
          "internalType": "struct ERC721Factory.DispenserData",
          "name": "_DispenserData",
          "type": "tuple"
        }
      ],
      "name": "createNftWithErc20WithDispenser",
      "outputs": [
        {
          "internalType": "address",
          "name": "erc721Address",
          "type": "address"
        },
        {
          "internalType": "address",
          "name": "erc20Address",
          "type": "address"
        }
      ],
      "stateMutability": "nonpayable",
      "type": "function"
    },
    {
      "inputs": [
        {
          "components": [
            {
              "internalType": "string",
              "name": "name",
              "type": "string"
            },
            {
              "internalType": "string",
              "name": "symbol",
              "type": "string"
            },
            {
              "internalType": "uint256",
              "name": "templateIndex",
              "type": "uint256"
            },
            {
              "internalType": "string",
              "name": "tokenURI",
              "type": "string"
            }
          ],
          "internalType": "struct ERC721Factory.NftCreateData",
          "name": "_NftCreateData",
          "type": "tuple"
        },
        {
          "components": [
            {
              "internalType": "uint256",
              "name": "templateIndex",
              "type": "uint256"
            },
            {
              "internalType": "string[]",
              "name": "strings",
              "type": "string[]"
            },
            {
              "internalType": "address[]",
              "name": "addresses",
              "type": "address[]"
            },
            {
              "internalType": "uint256[]",
              "name": "uints",
              "type": "uint256[]"
            },
            {
              "internalType": "bytes[]",
              "name": "bytess",
              "type": "bytes[]"
            }
          ],
          "internalType": "struct ERC721Factory.ErcCreateData",
          "name": "_ErcCreateData",
          "type": "tuple"
        },
        {
          "components": [
            {
              "internalType": "address",
              "name": "fixedPriceAddress",
              "type": "address"
            },
            {
              "internalType": "address[]",
              "name": "addresses",
              "type": "address[]"
            },
            {
              "internalType": "uint256[]",
              "name": "uints",
              "type": "uint256[]"
            }
          ],
          "internalType": "struct ERC721Factory.FixedData",
          "name": "_FixedData",
          "type": "tuple"
        }
      ],
      "name": "createNftWithErc20WithFixedRate",
      "outputs": [
        {
          "internalType": "address",
          "name": "erc721Address",
          "type": "address"
        },
        {
          "internalType": "address",
          "name": "erc20Address",
          "type": "address"
        },
        {
          "internalType": "bytes32",
          "name": "exchangeId",
          "type": "bytes32"
        }
      ],
      "stateMutability": "nonpayable",
      "type": "function"
    },
    {
      "inputs": [
        {
          "components": [
            {
              "internalType": "string",
              "name": "name",
              "type": "string"
            },
            {
              "internalType": "string",
              "name": "symbol",
              "type": "string"
            },
            {
              "internalType": "uint256",
              "name": "templateIndex",
              "type": "uint256"
            },
            {
              "internalType": "string",
              "name": "tokenURI",
              "type": "string"
            }
          ],
          "internalType": "struct ERC721Factory.NftCreateData",
          "name": "_NftCreateData",
          "type": "tuple"
        },
        {
          "components": [
            {
              "internalType": "uint256",
              "name": "templateIndex",
              "type": "uint256"
            },
            {
              "internalType": "string[]",
              "name": "strings",
              "type": "string[]"
            },
            {
              "internalType": "address[]",
              "name": "addresses",
              "type": "address[]"
            },
            {
              "internalType": "uint256[]",
              "name": "uints",
              "type": "uint256[]"
            },
            {
              "internalType": "bytes[]",
              "name": "bytess",
              "type": "bytes[]"
            }
          ],
          "internalType": "struct ERC721Factory.ErcCreateData",
          "name": "_ErcCreateData",
          "type": "tuple"
        },
        {
          "components": [
            {
              "internalType": "uint256[]",
              "name": "ssParams",
              "type": "uint256[]"
            },
            {
              "internalType": "uint256[]",
              "name": "swapFees",
              "type": "uint256[]"
            },
            {
              "internalType": "address[]",
              "name": "addresses",
              "type": "address[]"
            }
          ],
          "internalType": "struct ERC721Factory.PoolData",
          "name": "_PoolData",
          "type": "tuple"
        }
      ],
      "name": "createNftWithErc20WithPool",
      "outputs": [
        {
          "internalType": "address",
          "name": "erc721Address",
          "type": "address"
        },
        {
          "internalType": "address",
          "name": "erc20Address",
          "type": "address"
        },
        {
          "internalType": "address",
          "name": "poolAddress",
          "type": "address"
        }
      ],
      "stateMutability": "nonpayable",
      "type": "function"
    },
    {
      "inputs": [
        {
          "components": [
            {
              "internalType": "string",
              "name": "name",
              "type": "string"
            },
            {
              "internalType": "string",
              "name": "symbol",
              "type": "string"
            },
            {
              "internalType": "uint256",
              "name": "templateIndex",
              "type": "uint256"
            },
            {
              "internalType": "string",
              "name": "tokenURI",
              "type": "string"
            }
          ],
          "internalType": "struct ERC721Factory.NftCreateData",
          "name": "_NftCreateData",
          "type": "tuple"
        },
        {
          "components": [
            {
              "internalType": "uint8",
              "name": "_metaDataState",
              "type": "uint8"
            },
            {
              "internalType": "string",
              "name": "_metaDataDecryptorUrl",
              "type": "string"
            },
            {
              "internalType": "string",
              "name": "_metaDataDecryptorAddress",
              "type": "string"
            },
            {
              "internalType": "bytes",
              "name": "flags",
              "type": "bytes"
            },
            {
              "internalType": "bytes",
              "name": "data",
              "type": "bytes"
            },
            {
              "internalType": "bytes32",
              "name": "_metaDataHash",
              "type": "bytes32"
            },
            {
              "components": [
                {
                  "internalType": "address",
                  "name": "validatorAddress",
                  "type": "address"
                },
                {
                  "internalType": "uint8",
                  "name": "v",
                  "type": "uint8"
                },
                {
                  "internalType": "bytes32",
                  "name": "r",
                  "type": "bytes32"
                },
                {
                  "internalType": "bytes32",
                  "name": "s",
                  "type": "bytes32"
                }
              ],
              "internalType": "struct IERC721Template.metaDataProof[]",
              "name": "_metadataProofs",
              "type": "tuple[]"
            }
          ],
          "internalType": "struct ERC721Factory.MetaData",
          "name": "_MetaData",
          "type": "tuple"
        }
      ],
      "name": "createNftWithMetaData",
      "outputs": [
        {
          "internalType": "address",
          "name": "erc721Address",
          "type": "address"
        }
      ],
      "stateMutability": "nonpayable",
      "type": "function"
    },
    {
      "inputs": [
        {
          "internalType": "uint256",
          "name": "_templateIndex",
          "type": "uint256"
        },
        {
          "internalType": "string[]",
          "name": "strings",
          "type": "string[]"
        },
        {
          "internalType": "address[]",
          "name": "addresses",
          "type": "address[]"
        },
        {
          "internalType": "uint256[]",
          "name": "uints",
          "type": "uint256[]"
        },
        {
          "internalType": "bytes[]",
          "name": "bytess",
          "type": "bytes[]"
        }
      ],
      "name": "createToken",
      "outputs": [
        {
          "internalType": "address",
          "name": "token",
          "type": "address"
        }
      ],
      "stateMutability": "nonpayable",
      "type": "function"
    },
    {
      "inputs": [
        {
          "internalType": "string",
          "name": "name",
          "type": "string"
        },
        {
          "internalType": "string",
          "name": "symbol",
          "type": "string"
        },
        {
          "internalType": "uint256",
          "name": "_templateIndex",
          "type": "uint256"
        },
        {
          "internalType": "address",
          "name": "additionalERC20Deployer",
          "type": "address"
        },
        {
          "internalType": "address",
          "name": "additionalMetaDataUpdater",
          "type": "address"
        },
        {
          "internalType": "string",
          "name": "tokenURI",
          "type": "string"
        }
      ],
      "name": "deployERC721Contract",
      "outputs": [
        {
          "internalType": "address",
          "name": "token",
          "type": "address"
        }
      ],
      "stateMutability": "nonpayable",
      "type": "function"
    },
    {
      "inputs": [
        {
          "internalType": "uint256",
          "name": "_index",
          "type": "uint256"
        }
      ],
      "name": "disable721TokenTemplate",
      "outputs": [],
      "stateMutability": "nonpayable",
      "type": "function"
    },
    {
      "inputs": [
        {
          "internalType": "uint256",
          "name": "_index",
          "type": "uint256"
        }
      ],
      "name": "disableTokenTemplate",
      "outputs": [],
      "stateMutability": "nonpayable",
      "type": "function"
    },
    {
      "inputs": [
        {
          "internalType": "address",
          "name": "",
          "type": "address"
        }
      ],
      "name": "erc20List",
      "outputs": [
        {
          "internalType": "bool",
          "name": "",
          "type": "bool"
        }
      ],
      "stateMutability": "view",
      "type": "function"
    },
    {
      "inputs": [
        {
          "internalType": "address",
          "name": "",
          "type": "address"
        }
      ],
      "name": "erc721List",
      "outputs": [
        {
          "internalType": "address",
          "name": "",
          "type": "address"
        }
      ],
      "stateMutability": "view",
      "type": "function"
    },
    {
      "inputs": [],
      "name": "getCurrentNFTCount",
      "outputs": [
        {
          "internalType": "uint256",
          "name": "",
          "type": "uint256"
        }
      ],
      "stateMutability": "view",
      "type": "function"
    },
    {
      "inputs": [],
      "name": "getCurrentNFTTemplateCount",
      "outputs": [
        {
          "internalType": "uint256",
          "name": "",
          "type": "uint256"
        }
      ],
      "stateMutability": "view",
      "type": "function"
    },
    {
      "inputs": [],
      "name": "getCurrentTemplateCount",
      "outputs": [
        {
          "internalType": "uint256",
          "name": "",
          "type": "uint256"
        }
      ],
      "stateMutability": "view",
      "type": "function"
    },
    {
      "inputs": [],
      "name": "getCurrentTokenCount",
      "outputs": [
        {
          "internalType": "uint256",
          "name": "",
          "type": "uint256"
        }
      ],
      "stateMutability": "view",
      "type": "function"
    },
    {
      "inputs": [
        {
          "internalType": "uint256",
          "name": "_index",
          "type": "uint256"
        }
      ],
      "name": "getNFTTemplate",
      "outputs": [
        {
          "components": [
            {
              "internalType": "address",
              "name": "templateAddress",
              "type": "address"
            },
            {
              "internalType": "bool",
              "name": "isActive",
              "type": "bool"
            }
          ],
          "internalType": "struct ERC721Factory.Template",
          "name": "",
          "type": "tuple"
        }
      ],
      "stateMutability": "view",
      "type": "function"
    },
    {
      "inputs": [
        {
          "internalType": "uint256",
          "name": "_index",
          "type": "uint256"
        }
      ],
      "name": "getTokenTemplate",
      "outputs": [
        {
          "components": [
            {
              "internalType": "address",
              "name": "templateAddress",
              "type": "address"
            },
            {
              "internalType": "bool",
              "name": "isActive",
              "type": "bool"
            }
          ],
          "internalType": "struct ERC721Factory.Template",
          "name": "",
          "type": "tuple"
        }
      ],
      "stateMutability": "view",
      "type": "function"
    },
    {
      "inputs": [
        {
          "internalType": "uint256",
          "name": "",
          "type": "uint256"
        }
      ],
      "name": "nftTemplateList",
      "outputs": [
        {
          "internalType": "address",
          "name": "templateAddress",
          "type": "address"
        },
        {
          "internalType": "bool",
          "name": "isActive",
          "type": "bool"
        }
      ],
      "stateMutability": "view",
      "type": "function"
    },
    {
      "inputs": [],
      "name": "owner",
      "outputs": [
        {
          "internalType": "address",
          "name": "",
          "type": "address"
        }
      ],
      "stateMutability": "view",
      "type": "function"
    },
    {
      "inputs": [
        {
          "internalType": "uint256",
          "name": "_index",
          "type": "uint256"
        }
      ],
      "name": "reactivate721TokenTemplate",
      "outputs": [],
      "stateMutability": "nonpayable",
      "type": "function"
    },
    {
      "inputs": [
        {
          "internalType": "uint256",
          "name": "_index",
          "type": "uint256"
        }
      ],
      "name": "reactivateTokenTemplate",
      "outputs": [],
      "stateMutability": "nonpayable",
      "type": "function"
    },
    {
      "inputs": [],
      "name": "renounceOwnership",
      "outputs": [],
      "stateMutability": "nonpayable",
      "type": "function"
    },
    {
      "inputs": [
        {
          "components": [
            {
              "internalType": "address",
              "name": "tokenAddress",
              "type": "address"
            },
            {
              "internalType": "bytes32",
              "name": "orderTxId",
              "type": "bytes32"
            },
            {
              "components": [
                {
                  "internalType": "address",
                  "name": "providerFeeAddress",
                  "type": "address"
                },
                {
                  "internalType": "address",
                  "name": "providerFeeToken",
                  "type": "address"
                },
                {
                  "internalType": "uint256",
                  "name": "providerFeeAmount",
                  "type": "uint256"
                },
                {
                  "internalType": "uint8",
                  "name": "v",
                  "type": "uint8"
                },
                {
                  "internalType": "bytes32",
                  "name": "r",
                  "type": "bytes32"
                },
                {
                  "internalType": "bytes32",
                  "name": "s",
                  "type": "bytes32"
                },
                {
                  "internalType": "uint256",
                  "name": "validUntil",
                  "type": "uint256"
                },
                {
                  "internalType": "bytes",
                  "name": "providerData",
                  "type": "bytes"
                }
              ],
              "internalType": "struct IERC20Template.providerFee",
              "name": "_providerFee",
              "type": "tuple"
            }
          ],
          "internalType": "struct ERC721Factory.reuseTokenOrder[]",
          "name": "orders",
          "type": "tuple[]"
        }
      ],
      "name": "reuseMultipleTokenOrder",
      "outputs": [],
      "stateMutability": "nonpayable",
      "type": "function"
    },
    {
      "inputs": [],
      "name": "router",
      "outputs": [
        {
          "internalType": "address",
          "name": "",
          "type": "address"
        }
      ],
      "stateMutability": "view",
      "type": "function"
    },
    {
      "inputs": [
        {
          "components": [
            {
              "internalType": "address",
              "name": "tokenAddress",
              "type": "address"
            },
            {
              "internalType": "address",
              "name": "consumer",
              "type": "address"
            },
            {
              "internalType": "uint256",
              "name": "serviceIndex",
              "type": "uint256"
            },
            {
              "components": [
                {
                  "internalType": "address",
                  "name": "providerFeeAddress",
                  "type": "address"
                },
                {
                  "internalType": "address",
                  "name": "providerFeeToken",
                  "type": "address"
                },
                {
                  "internalType": "uint256",
                  "name": "providerFeeAmount",
                  "type": "uint256"
                },
                {
                  "internalType": "uint8",
                  "name": "v",
                  "type": "uint8"
                },
                {
                  "internalType": "bytes32",
                  "name": "r",
                  "type": "bytes32"
                },
                {
                  "internalType": "bytes32",
                  "name": "s",
                  "type": "bytes32"
                },
                {
                  "internalType": "uint256",
                  "name": "validUntil",
                  "type": "uint256"
                },
                {
                  "internalType": "bytes",
                  "name": "providerData",
                  "type": "bytes"
                }
              ],
              "internalType": "struct IERC20Template.providerFee",
              "name": "_providerFee",
              "type": "tuple"
            },
            {
              "components": [
                {
                  "internalType": "address",
                  "name": "consumeMarketFeeAddress",
                  "type": "address"
                },
                {
                  "internalType": "address",
                  "name": "consumeMarketFeeToken",
                  "type": "address"
                },
                {
                  "internalType": "uint256",
                  "name": "consumeMarketFeeAmount",
                  "type": "uint256"
                }
              ],
              "internalType": "struct IERC20Template.consumeMarketFee",
              "name": "_consumeMarketFee",
              "type": "tuple"
            }
          ],
          "internalType": "struct ERC721Factory.tokenOrder[]",
          "name": "orders",
          "type": "tuple[]"
        }
      ],
      "name": "startMultipleTokenOrder",
      "outputs": [],
      "stateMutability": "nonpayable",
      "type": "function"
    },
    {
      "inputs": [],
      "name": "templateCount",
      "outputs": [
        {
          "internalType": "uint256",
          "name": "",
          "type": "uint256"
        }
      ],
      "stateMutability": "view",
      "type": "function"
    },
    {
      "inputs": [
        {
          "internalType": "uint256",
          "name": "",
          "type": "uint256"
        }
      ],
      "name": "templateList",
      "outputs": [
        {
          "internalType": "address",
          "name": "templateAddress",
          "type": "address"
        },
        {
          "internalType": "bool",
          "name": "isActive",
          "type": "bool"
        }
      ],
      "stateMutability": "view",
      "type": "function"
    },
    {
      "inputs": [
        {
          "internalType": "address",
          "name": "newOwner",
          "type": "address"
        }
      ],
      "name": "transferOwnership",
      "outputs": [],
      "stateMutability": "nonpayable",
      "type": "function"
    }
  ],
  "bytecode": "0x60806040526000600a553480156200001657600080fd5b506040516200493a3803806200493a8339810160408190526200003991620005ab565b6200004433620001be565b600180556001600160a01b038316158015906200006957506001600160a01b03821615155b80156200007e57506001600160a01b03841615155b620001065760405162461bcd60e51b815260206004820152604760248201527f4552433732314454466163746f72793a20496e76616c69642074656d706c617460448201527f6520746f6b656e2f636f6d6d756e6974792066656520636f6c6c6563746f72206064820152666164647265737360c81b608482015260a4015b60405180910390fd5b6001600160a01b0381166200016e5760405162461bcd60e51b815260206004820152602760248201527f4552433732314454466163746f72793a20496e76616c696420726f75746572206044820152666164647265737360c81b6064820152608401620000fd565b62000179846200020e565b506200018583620003d1565b50600c80546001600160a01b039283166001600160a01b03199182161790915560028054939092169216919091179055506200062f9050565b600080546001600160a01b038381166001600160a01b0319831681178455604051919092169283917f8be0079c531659141344cd1fd0a4f28419497f9722a3daafe3b4186f6b6457e09190a35050565b600080546001600160a01b031633146200025a5760405162461bcd60e51b815260206004820181905260248201526000805160206200491a8339815191526044820152606401620000fd565b6001600160a01b038216620002d85760405162461bcd60e51b815260206004820152603760248201527f4552433732314454466163746f72793a204552433732312074656d706c61746560448201527f2061646472657373283029204e4f5420414c4c4f5745440000000000000000006064820152608401620000fd565b813b620003285760405162461bcd60e51b815260206004820152601b60248201527f455243373231466163746f72793a204e4f5420434f4e545241435400000000006044820152606401620000fd565b6001600560008282546200033d919062000608565b90915550506040805180820182526001600160a01b038085168083526001602080850191825260058054600090815260069092528682208651815494511515600160a01b026001600160a81b03199095169616959095179290921790935554935192939290917fc0167b92c8eb4a2bad2c05e0134f076fba5d3cd54671a3e8edf13d2e61443bd991a350506005545b919050565b600080546001600160a01b031633146200041d5760405162461bcd60e51b815260206004820181905260248201526000805160206200491a8339815191526044820152606401620000fd565b6001600160a01b0382166200049b5760405162461bcd60e51b815260206004820152603460248201527f4552433230466163746f72793a204552433732312074656d706c61746520616460448201527f6472657373283029204e4f5420414c4c4f5745440000000000000000000000006064820152608401620000fd565b813b620004eb5760405162461bcd60e51b815260206004820152601a60248201527f4552433230466163746f72793a204e4f5420434f4e54524143540000000000006044820152606401620000fd565b6001600b600082825462000500919062000608565b90915550506040805180820182526001600160a01b0380851680835260016020808501918252600b8054600090815260079092528682208651815494511515600160a01b026001600160a81b03199095169616959095179290921790935554935192939290917fdcd16da87b60cea6dbd55a83f73b8a4bf9a54655db58ae0f35b82a2373fc150d91a35050600b54919050565b80516001600160a01b0381168114620003cc57600080fd5b60008060008060808587031215620005c257600080fd5b620005cd8562000593565b9350620005dd6020860162000593565b9250620005ed6040860162000593565b9150620005fd6060860162000593565b905092959194509250565b600082198211156200062a57634e487b7160e01b600052601160045260246000fd5b500190565b6142db806200063f6000396000f3fe608060405234801561001057600080fd5b50600436106101da5760003560e01c8063825808b7116101045780639a744104116100a2578063e5fc01f011610071578063e5fc01f01461053b578063f2fde38b14610543578063f887ea4014610556578063fec4c7251461056957600080fd5b80639a744104146104d4578063a33ef2a61461050d578063bbf8d71f14610520578063c6cf868a1461053357600080fd5b80638f6051af116100de5780638f6051af14610471578063940516991461048457806394be0e88146104b957806395c60305146104cc57600080fd5b8063825808b7146103d957806382c442041461040c5780638da5cb5b1461046057600080fd5b80633315efd11161017c578063715018a61161014b578063715018a61461038257806372f670f01461038a5780637b20bccf146103b3578063809d8105146103c657600080fd5b80633315efd1146102f7578063557fcfb0146103545780635c705982146103675780636e26fa9a1461036f57600080fd5b80631b434bc7116101b85780631b434bc71461025d578063226e76151461029a5780632515422e146102cd57806326705c3c146102e057600080fd5b8063042ab9b3146101df5780630dacfabb1461021d5780630ffda88714610248575b600080fd5b6101f26101ed366004612ee1565b61057c565b6040805182516001600160a01b03168152602092830151151592810192909252015b60405180910390f35b61023061022b366004612f12565b610603565b6040516001600160a01b039091168152602001610214565b61025b610256366004612ee1565b610820565b005b61027061026b366004612fa0565b610865565b604080516001600160a01b0394851681529284166020840152921691810191909152606001610214565b6102bd6102a8366004613047565b60096020526000908152604090205460ff1681565b6040519015158152602001610214565b61025b6102db36600461325d565b610cb0565b6102e9600b5481565b604051908152602001610214565b6101f2610305366004612ee1565b6040805180820190915260008082526020820152506000908152600660209081526040918290208251808401909352546001600160a01b0381168352600160a01b900460ff1615159082015290565b6102306103623660046134c0565b610f7d565b6003546102e9565b61023061037d36600461358d565b61101e565b61025b6112f2565b610230610398366004613047565b6008602052600090815260409020546001600160a01b031681565b6102e96103c1366004613047565b611328565b61025b6103d4366004612ee1565b6114bb565b6103ec6103e7366004613646565b61152d565b604080516001600160a01b03938416815292909116602083015201610214565b61044161041a366004612ee1565b6006602052600090815260409020546001600160a01b03811690600160a01b900460ff1682565b604080516001600160a01b039093168352901515602083015201610214565b6000546001600160a01b0316610230565b6102e961047f366004613047565b611707565b610441610492366004612ee1565b6007602052600090815260409020546001600160a01b03811690600160a01b900460ff1682565b61025b6104c73660046136a9565b6118a2565b600b546102e9565b6104e76104e2366004612fa0565b611e47565b604080516001600160a01b03948516815293909216602084015290820152606001610214565b61025b61051b366004612ee1565b612035565b61025b61052e366004612ee1565b6120ad565b600a546102e9565b6005546102e9565b61025b610551366004613047565b612169565b600c54610230906001600160a01b031681565b6103ec6105773660046137fb565b612204565b60408051808201909152600080825260208201526000828152600760209081526040918290208251808401909352546001600160a01b0381168352600160a01b900460ff16151590820152600b5483118015906105d857508215155b6105fd5760405162461bcd60e51b81526004016105f49061386f565b60405180910390fd5b92915050565b6000600260015414156106285760405162461bcd60e51b81526004016105f4906138b8565b60026001556106ff61063a84806138ef565b8080601f01602080910402602001604051908101604052809392919081815260200183838082843760009201919091525061067c9250505060208601866138ef565b8080601f016020809104026020016040519081016040528093929190818152602001838380828437600092018290525060408a0135935091503090506106c560608a018a6138ef565b8080601f01602080910402602001604051908101604052809392919081815260200183838082843760009201919091525061101e92505050565b90506001600160a01b038116631aa3adf961071d602085018561393c565b61072a60208601866138ef565b61073760408801886138ef565b61074460608a018a6138ef565b61075160808c018c6138ef565b60a08d013561076360c08f018f613957565b6040518d63ffffffff1660e01b815260040161078a9c9b9a999897969594939291906139c9565b600060405180830381600087803b1580156107a457600080fd5b505af11580156107b8573d6000803e3d6000fd5b50506040516310c414eb60e21b81523060048201526001600160a01b038416925063431053ac9150602401600060405180830381600087803b1580156107fd57600080fd5b505af1158015610811573d6000803e3d6000fd5b50506001805550909392505050565b6000546001600160a01b0316331461084a5760405162461bcd60e51b81526004016105f490613aad565b6000908152600760205260409020805460ff60a01b19169055565b60008060006002600154141561088d5760405162461bcd60e51b81526004016105f4906138b8565b60026001556108f16108a26040860186613ae2565b60018181106108b3576108b3613b2b565b90506020020160208101906108c89190613047565b33306108d48880613ae2565b60048181106108e5576108e5613b2b565b9050602002013561249c565b6109896108fe87806138ef565b8080601f0160208091040260200160405190810160405280939291908181526020018383808284376000920191909152506109409250505060208901896138ef565b8080601f016020809104026020016040519081016040528093929190818152602001838380828437600092018290525060408d0135935030925090506106c560608d018d6138ef565b92506109bd6040518060a0016040528060008152602001606081526020016060815260200160608152602001606081525090565b853581526109ce6020870187613ae2565b6109d791613b41565b60208201526109e96040870187613ae2565b808060200260200160405190810160405280939291908181526020018383602002808284376000920191909152505050506040820152610a2c6060870187613ae2565b808060200260200160405190810160405280939291908181526020018383602002808284376000920191909152505050506060820152610a6f6080870187613ae2565b610a7891613b41565b81608001819052506000198160600151600081518110610a9a57610a9a613b2b565b602002602001018181525050836001600160a01b031663e38d7cad826000015183602001518460400151856060015186608001516040518663ffffffff1660e01b8152600401610aee959493929190613c6f565b6020604051808303816000875af1158015610b0d573d6000803e3d6000fd5b505050506040513d601f19601f82011682018060405250810190610b319190613cce565b600c54909350610bac906001600160a01b0316610b4e8780613ae2565b6004818110610b5f57610b5f613b2b565b90506020020135878060400190610b769190613ae2565b6001818110610b8757610b87613b2b565b9050602002016020810190610b9c9190613047565b6001600160a01b031691906125ea565b6001600160a01b038316635bfe4da0610bc58780613ae2565b610bd260208a018a613ae2565b610bdf60408c018c613ae2565b6040518763ffffffff1660e01b8152600401610c0096959493929190613d5f565b6020604051808303816000875af1158015610c1f573d6000803e3d6000fd5b505050506040513d601f19601f82011682018060405250810190610c439190613cce565b6040516301fc3d9160e71b81523060048201529092506001600160a01b0385169063fe1ec88090602401600060405180830381600087803b158015610c8757600080fd5b505af1158015610c9b573d6000803e3d6000fd5b50505050506001808190555093509350939050565b60026001541415610cd35760405162461bcd60e51b81526004016105f4906138b8565b6002600155805160321015610d2a5760405162461bcd60e51b815260206004820152601e60248201527f455243373231466163746f72793a20546f6f204d616e79204f7264657273000060448201526064016105f4565b60005b8151811015610f75576000828281518110610d4a57610d4a613b2b565b60200260200101516040015160400151118015610d9b575060006001600160a01b0316828281518110610d7f57610d7f613b2b565b602002602001015160400151602001516001600160a01b031614155b8015610ddb575060006001600160a01b0316828281518110610dbf57610dbf613b2b565b602002602001015160400151600001516001600160a01b031614155b15610eab57610e2e828281518110610df557610df5613b2b565b602002602001015160400151602001513330858581518110610e1957610e19613b2b565b6020026020010151604001516040015161249c565b610eab828281518110610e4357610e43613b2b565b602002602001015160000151838381518110610e6157610e61613b2b565b60200260200101516040015160400151848481518110610e8357610e83613b2b565b602002602001015160400151602001516001600160a01b03166125ea9092919063ffffffff16565b818181518110610ebd57610ebd613b2b565b6020026020010151600001516001600160a01b031663361fef49838381518110610ee957610ee9613b2b565b602002602001015160200151848481518110610f0757610f07613b2b565b6020026020010151604001516040518363ffffffff1660e01b8152600401610f30929190613e1c565b600060405180830381600087803b158015610f4a57600080fd5b505af1158015610f5e573d6000803e3d6000fd5b505050508080610f6d90613e4b565b915050610d2d565b505060018055565b3360008181526008602052604081205490916001600160a01b03909116146110065760405162461bcd60e51b815260206004820152603660248201527f455243373231466163746f72793a204f4e4c592045524337323120494e5354416044820152754e43452046524f4d20455243373231464143544f525960501b60648201526084016105f4565b6110148686868686336126d5565b9695505050505050565b6000600554851115801561103157508415155b61104d5760405162461bcd60e51b81526004016105f490613e66565b6000858152600660209081526040918290208251808401909352546001600160a01b0381168352600160a01b900460ff1615159082018190526110e95760405162461bcd60e51b815260206004820152602e60248201527f4552433732314454466163746f72793a20455243373231546f6b656e2054656d60448201526d1c1b185d1948191a5cd8589b195960921b60648201526084016105f4565b80516110f4906129ba565b91506001600160a01b038216611174576040805162461bcd60e51b81526020600482015260248101919091527f4552433732314454466163746f72793a204661696c656420746f20706572666f60448201527f726d206d696e696d616c206465706c6f79206f662061206e657720746f6b656e60648201526084016105f4565b6001600160a01b0382166000818152600860205260409081902080546001600160a01b031916831790555163947fcb8360e01b815283919063947fcb83906111cc9033908d908d9030908d908d908d90600401613eb2565b6020604051808303816000875af11580156111eb573d6000803e3d6000fd5b505050506040513d601f19601f8201168201806040525081019061120f9190613f2f565b6112785760405162461bcd60e51b815260206004820152603460248201527f4552433732314454466163746f72793a20556e61626c6520746f20696e697469604482015273616c697a6520746f6b656e20696e7374616e636560601b60648201526084016105f4565b81600001516001600160a01b0316836001600160a01b03167f46f5e3cee761854fc3892024ae7aa2c832007dff583603ce093f177ebd9c4c968b338c896040516112c59493929190613f4c565b60405180910390a36001600360008282546112e09190613f94565b90915550929998505050505050505050565b6000546001600160a01b0316331461131c5760405162461bcd60e51b81526004016105f490613aad565b6113266000612a4a565b565b600080546001600160a01b031633146113535760405162461bcd60e51b81526004016105f490613aad565b6001600160a01b0382166113c65760405162461bcd60e51b815260206004820152603460248201527f4552433230466163746f72793a204552433732312074656d706c617465206164604482015273191c995cdcca0c0a481393d50810531313d5d15160621b60648201526084016105f4565b813b6114145760405162461bcd60e51b815260206004820152601a60248201527f4552433230466163746f72793a204e4f5420434f4e545241435400000000000060448201526064016105f4565b6001600b60008282546114279190613f94565b90915550506040805180820182526001600160a01b0380851680835260016020808501918252600b8054600090815260079092528682208651815494511515600160a01b026001600160a81b03199095169616959095179290921790935554935192939290917fdcd16da87b60cea6dbd55a83f73b8a4bf9a54655db58ae0f35b82a2373fc150d91a35050600b545b919050565b6000546001600160a01b031633146114e55760405162461bcd60e51b81526004016105f490613aad565b60055481111580156114f657508015155b6115125760405162461bcd60e51b81526004016105f490613e66565b6000908152600660205260409020805460ff60a01b19169055565b600080600260015414156115535760405162461bcd60e51b81526004016105f4906138b8565b60026001556115f061156585806138ef565b8080601f0160208091040260200160405190810160405280939291908181526020018383808284376000920191909152506115a79250505060208701876138ef565b8080601f016020809104026020016040519081016040528093929190818152602001838380828437600092018290525060408b0135935030925090506106c560608b018b6138ef565b91506001600160a01b03821663e38d7cad84356116106020870187613ae2565b61161d6040890189613ae2565b61162a60608b018b613ae2565b61163760808d018d613ae2565b6040518a63ffffffff1660e01b815260040161165b99989796959493929190614041565b6020604051808303816000875af115801561167a573d6000803e3d6000fd5b505050506040513d601f19601f8201168201806040525081019061169e9190613cce565b6040516301fc3d9160e71b81523060048201529091506001600160a01b0383169063fe1ec88090602401600060405180830381600087803b1580156116e257600080fd5b505af11580156116f6573d6000803e3d6000fd5b505060018055509194909350915050565b600080546001600160a01b031633146117325760405162461bcd60e51b81526004016105f490613aad565b6001600160a01b0382166117ae5760405162461bcd60e51b815260206004820152603760248201527f4552433732314454466163746f72793a204552433732312074656d706c61746560448201527f2061646472657373283029204e4f5420414c4c4f57454400000000000000000060648201526084016105f4565b813b6117fc5760405162461bcd60e51b815260206004820152601b60248201527f455243373231466163746f72793a204e4f5420434f4e5452414354000000000060448201526064016105f4565b60016005600082825461180f9190613f94565b90915550506040805180820182526001600160a01b038085168083526001602080850191825260058054600090815260069092528682208651815494511515600160a01b026001600160a81b03199095169616959095179290921790935554935192939290917fc0167b92c8eb4a2bad2c05e0134f076fba5d3cd54671a3e8edf13d2e61443bd991a35050600554919050565b600260015414156118c55760405162461bcd60e51b81526004016105f4906138b8565b600260015580516032101561191c5760405162461bcd60e51b815260206004820152601e60248201527f455243373231466163746f72793a20546f6f204d616e79204f7264657273000060448201526064016105f4565b60005b8151811015610f7557600080600084848151811061193f5761193f613b2b565b6020026020010151600001516001600160a01b031663397b37436040518163ffffffff1660e01b8152600401606060405180830381865afa158015611988573d6000803e3d6000fd5b505050506040513d601f19601f820116820180604052508101906119ac91906140f2565b9250925092506000811180156119ca57506001600160a01b03821615155b80156119de57506001600160a01b03831615155b15611a21576119ef8233308461249c565b611a21858581518110611a0457611a04613b2b565b6020908102919091010151516001600160a01b03841690836125ea565b6000858581518110611a3557611a35613b2b565b60200260200101516080015160400151118015611a86575060006001600160a01b0316858581518110611a6a57611a6a613b2b565b602002602001015160800151600001516001600160a01b031614155b8015611ac6575060006001600160a01b0316858581518110611aaa57611aaa613b2b565b602002602001015160800151602001516001600160a01b031614155b15611b9657611b19858581518110611ae057611ae0613b2b565b602002602001015160800151602001513330888881518110611b0457611b04613b2b565b6020026020010151608001516040015161249c565b611b96858581518110611b2e57611b2e613b2b565b602002602001015160000151868681518110611b4c57611b4c613b2b565b60200260200101516080015160400151878781518110611b6e57611b6e613b2b565b602002602001015160800151602001516001600160a01b03166125ea9092919063ffffffff16565b6000858581518110611baa57611baa613b2b565b60200260200101516060015160400151118015611bfb575060006001600160a01b0316858581518110611bdf57611bdf613b2b565b602002602001015160600151602001516001600160a01b031614155b8015611c3b575060006001600160a01b0316858581518110611c1f57611c1f613b2b565b602002602001015160600151600001516001600160a01b031614155b15611d0b57611c8e858581518110611c5557611c55613b2b565b602002602001015160600151602001513330888881518110611c7957611c79613b2b565b6020026020010151606001516040015161249c565b611d0b858581518110611ca357611ca3613b2b565b602002602001015160000151868681518110611cc157611cc1613b2b565b60200260200101516060015160400151878781518110611ce357611ce3613b2b565b602002602001015160600151602001516001600160a01b03166125ea9092919063ffffffff16565b611d3c858581518110611d2057611d20613b2b565b6020026020010151600001513330670de0b6b3a764000061249c565b848481518110611d4e57611d4e613b2b565b6020026020010151600001516001600160a01b03166379d9d7f3868681518110611d7a57611d7a613b2b565b602002602001015160200151878781518110611d9857611d98613b2b565b602002602001015160400151888881518110611db657611db6613b2b565b602002602001015160600151898981518110611dd457611dd4613b2b565b6020026020010151608001516040518563ffffffff1660e01b8152600401611dff9493929190614135565b600060405180830381600087803b158015611e1957600080fd5b505af1158015611e2d573d6000803e3d6000fd5b505050505050508080611e3f90613e4b565b91505061191f565b600080600060026001541415611e6f5760405162461bcd60e51b81526004016105f4906138b8565b6002600155611e816108fe87806138ef565b92506001600160a01b03831663e38d7cad8635611ea16020890189613ae2565b611eae60408b018b613ae2565b611ebb60608d018d613ae2565b611ec860808f018f613ae2565b6040518a63ffffffff1660e01b8152600401611eec99989796959493929190614041565b6020604051808303816000875af1158015611f0b573d6000803e3d6000fd5b505050506040513d601f19601f82011682018060405250810190611f2f9190613cce565b91506001600160a01b038216638b96412b611f4d6020870187613047565b611f5a6020880188613ae2565b611f6760408a018a613ae2565b6040518663ffffffff1660e01b8152600401611f87959493929190614188565b6020604051808303816000875af1158015611fa6573d6000803e3d6000fd5b505050506040513d601f19601f82011682018060405250810190611fca91906141c0565b6040516301fc3d9160e71b81523060048201529091506001600160a01b0384169063fe1ec88090602401600060405180830381600087803b15801561200e57600080fd5b505af1158015612022573d6000803e3d6000fd5b5050600180555092969195509350915050565b6000546001600160a01b0316331461205f5760405162461bcd60e51b81526004016105f490613aad565b600554811115801561207057508015155b61208c5760405162461bcd60e51b81526004016105f490613e66565b6000908152600660205260409020805460ff60a01b1916600160a01b179055565b6000546001600160a01b031633146120d75760405162461bcd60e51b81526004016105f490613aad565b600b5481111580156120e857508015155b6121485760405162461bcd60e51b815260206004820152602b60248201527f45524332304454466163746f72793a2054656d706c61746520696e646578206460448201526a1bd95cdb9d08195e1a5cdd60aa1b60648201526084016105f4565b6000908152600760205260409020805460ff60a01b1916600160a01b179055565b6000546001600160a01b031633146121935760405162461bcd60e51b81526004016105f490613aad565b6001600160a01b0381166121f85760405162461bcd60e51b815260206004820152602660248201527f4f776e61626c653a206e6577206f776e657220697320746865207a65726f206160448201526564647265737360d01b60648201526084016105f4565b61220181612a4a565b50565b6000806002600154141561222a5760405162461bcd60e51b81526004016105f4906138b8565b60026001556122c761223c86806138ef565b8080601f01602080910402602001604051908101604052809392919081815260200183838082843760009201919091525061227e9250505060208801886138ef565b8080601f016020809104026020016040519081016040528093929190818152602001838380828437600092018290525060408c0135935030925090506106c560608c018c6138ef565b91506001600160a01b03821663e38d7cad85356122e76020880188613ae2565b6122f460408a018a613ae2565b61230160608c018c613ae2565b61230e60808e018e613ae2565b6040518a63ffffffff1660e01b815260040161233299989796959493929190614041565b6020604051808303816000875af1158015612351573d6000803e3d6000fd5b505050506040513d601f19601f820116820180604052508101906123759190613cce565b90506001600160a01b03811663191c918a6123936020860186613047565b602086013560408701356123ad6080890160608a016141d9565b6123bd60a08a0160808b01613047565b60405160e087901b6001600160e01b03191681526001600160a01b0395861660048201526024810194909452604484019290925215156064830152909116608482015260a401600060405180830381600087803b15801561241d57600080fd5b505af1158015612431573d6000803e3d6000fd5b50506040516301fc3d9160e71b81523060048201526001600160a01b038516925063fe1ec8809150602401600060405180830381600087803b15801561247657600080fd5b505af115801561248a573d6000803e3d6000fd5b50506001805550919590945092505050565b6040516370a0823160e01b81526001600160a01b038381166004830152600091908616906370a0823190602401602060405180830381865afa1580156124e6573d6000803e3d6000fd5b505050506040513d601f19601f8201168201806040525081019061250a91906141c0565b90506125216001600160a01b038616858585612a9a565b61252b8183612ad2565b6040516370a0823160e01b81526001600160a01b0385811660048301528716906370a0823190602401602060405180830381865afa158015612571573d6000803e3d6000fd5b505050506040513d601f19601f8201168201806040525081019061259591906141c0565b10156125e35760405162461bcd60e51b815260206004820152601a60248201527f5472616e7366657220616d6f756e7420697320746f6f206c6f7700000000000060448201526064016105f4565b5050505050565b604051636eb1769f60e11b81523060048201526001600160a01b038381166024830152600091839186169063dd62ed3e90604401602060405180830381865afa15801561263b573d6000803e3d6000fd5b505050506040513d601f19601f8201168201806040525081019061265f91906141c0565b6126699190613f94565b6040516001600160a01b0385166024820152604481018290529091506126cf90859063095ea7b360e01b906064015b60408051601f198184030181529190526020810180516001600160e01b03166001600160e01b031990931692909217909152612ae5565b50505050565b6000836000815181106126ea576126ea613b2b565b6020026020010151600014156127505760405162461bcd60e51b815260206004820152602560248201527f4552433230466163746f72793a207a65726f20636170206973206e6f7420616c6044820152641b1bddd95960da1b60648201526084016105f4565b600b54871115801561276157508615155b61277d5760405162461bcd60e51b81526004016105f49061386f565b6000878152600760209081526040918290208251808401909352546001600160a01b0381168352600160a01b900460ff1615159082018190526128165760405162461bcd60e51b815260206004820152602b60248201527f4552433230466163746f72793a20455243373231546f6b656e2054656d706c6160448201526a1d1948191a5cd8589b195960aa1b60648201526084016105f4565b8051612821906129ba565b6001600160a01b0381166000818152600960205260409020805460ff191660011790559092506128b95760405162461bcd60e51b815260206004820152603e60248201527f455243373231466163746f72793a204661696c656420746f20706572666f726d60448201527f206d696e696d616c206465706c6f79206f662061206e657720746f6b656e000060648201526084016105f4565b80600001516001600160a01b0316826001600160a01b03167f567699dbf7c5f63a51a42fd451f5e065bca0dfc723adf2cc498bbb7cfb780b908960008151811061290557612905613b2b565b60200260200101518a60018151811061292057612920613b2b565b60200260200101518960008151811061293b5761293b613b2b565b60200260200101518860405161295494939291906141f6565b60405180910390a36001600a600082825461296f9190613f94565b90915550506040805160a08101825288815260208101889052908101869052606081018590526001600160a01b03841660808201526129ae8382612bbc565b50509695505050505050565b6000808260601b9050604051733d602d80600a3d3981f3363d3d373d3d3d363d7360601b81528160148201526e5af43d82803e903d91602b57fd5bf360881b60288201526037816000f06040516001600160a01b03821681529093507f117c72e6c25f0a072e36e148df71468ce2f3dbe7defec5b2c257a6e3eb65278c915060200160405180910390a150919050565b600080546001600160a01b038381166001600160a01b0319831681178455604051919092169283917f8be0079c531659141344cd1fd0a4f28419497f9722a3daafe3b4186f6b6457e09190a35050565b6040516001600160a01b03808516602483015283166044820152606481018290526126cf9085906323b872dd60e01b90608401612698565b6000612ade8284613f94565b9392505050565b6000612b3a826040518060400160405280602081526020017f5361666545524332303a206c6f772d6c6576656c2063616c6c206661696c6564815250856001600160a01b0316612d699092919063ffffffff16565b805190915015612bb75780806020019051810190612b589190613f2f565b612bb75760405162461bcd60e51b815260206004820152602a60248201527f5361666545524332303a204552433230206f7065726174696f6e20646964206e6044820152691bdd081cdd58d8d9595960b21b60648201526084016105f4565b505050565b6040805160038082526080820190925283916000919060208201606080368337019050509050826080015181600081518110612bfa57612bfa613b2b565b6001600160a01b039283166020918202929092010152600254825191169082906001908110612c2b57612c2b613b2b565b6001600160a01b039283166020918202929092010152600c54825191169082906002908110612c5c57612c5c613b2b565b60200260200101906001600160a01b031690816001600160a01b031681525050816001600160a01b031663b3998be08460000151856020015184876040015188606001516040518663ffffffff1660e01b8152600401612cc095949392919061423d565b6020604051808303816000875af1158015612cdf573d6000803e3d6000fd5b505050506040513d601f19601f82011682018060405250810190612d039190613f2f565b6126cf5760405162461bcd60e51b815260206004820152603160248201527f4552433230466163746f72793a20556e61626c6520746f20696e697469616c696044820152707a6520746f6b656e20696e7374616e636560781b60648201526084016105f4565b6060612d788484600085612d80565b949350505050565b606082471015612de15760405162461bcd60e51b815260206004820152602660248201527f416464726573733a20696e73756666696369656e742062616c616e636520666f6044820152651c8818d85b1b60d21b60648201526084016105f4565b843b612e2f5760405162461bcd60e51b815260206004820152601d60248201527f416464726573733a2063616c6c20746f206e6f6e2d636f6e747261637400000060448201526064016105f4565b600080866001600160a01b03168587604051612e4b9190614276565b60006040518083038185875af1925050503d8060008114612e88576040519150601f19603f3d011682016040523d82523d6000602084013e612e8d565b606091505b5091509150612e9d828286612ea8565b979650505050505050565b60608315612eb7575081612ade565b825115612ec75782518084602001fd5b8160405162461bcd60e51b81526004016105f49190614292565b600060208284031215612ef357600080fd5b5035919050565b600060808284031215612f0c57600080fd5b50919050565b60008060408385031215612f2557600080fd5b82356001600160401b0380821115612f3c57600080fd5b612f4886838701612efa565b93506020850135915080821115612f5e57600080fd5b50830160e08186031215612f7157600080fd5b809150509250929050565b600060a08284031215612f0c57600080fd5b600060608284031215612f0c57600080fd5b600080600060608486031215612fb557600080fd5b83356001600160401b0380821115612fcc57600080fd5b612fd887838801612efa565b94506020860135915080821115612fee57600080fd5b612ffa87838801612f7c565b9350604086013591508082111561301057600080fd5b5061301d86828701612f8e565b9150509250925092565b6001600160a01b038116811461220157600080fd5b80356114b681613027565b60006020828403121561305957600080fd5b8135612ade81613027565b634e487b7160e01b600052604160045260246000fd5b60405161010081016001600160401b038111828210171561309d5761309d613064565b60405290565b604051606081016001600160401b038111828210171561309d5761309d613064565b60405160a081016001600160401b038111828210171561309d5761309d613064565b604051601f8201601f191681016001600160401b038111828210171561310f5761310f613064565b604052919050565b60006001600160401b0382111561313057613130613064565b5060051b60200190565b803560ff811681146114b657600080fd5b600082601f83011261315c57600080fd5b81356001600160401b0381111561317557613175613064565b613188601f8201601f19166020016130e7565b81815284602083860101111561319d57600080fd5b816020850160208301376000918101602001919091529392505050565b600061010082840312156131cd57600080fd5b6131d561307a565b90506131e08261303c565b81526131ee6020830161303c565b6020820152604082013560408201526132096060830161313a565b60608201526080820135608082015260a082013560a082015260c082013560c082015260e08201356001600160401b0381111561324557600080fd5b6132518482850161314b565b60e08301525092915050565b6000602080838503121561327057600080fd5b82356001600160401b038082111561328757600080fd5b818501915085601f83011261329b57600080fd5b81356132ae6132a982613117565b6130e7565b81815260059190911b830184019084810190888311156132cd57600080fd5b8585015b83811015613356578035858111156132e95760008081fd5b86016060818c03601f19018113156133015760008081fd5b6133096130a3565b8983013561331681613027565b81526040838101358b8301529183013591888311156133355760008081fd5b6133438e8c858701016131ba565b90820152855250509186019186016132d1565b5098975050505050505050565b60006133716132a984613117565b8381529050602080820190600585901b84018681111561339057600080fd5b845b818110156133cb5780356001600160401b038111156133b15760008081fd5b6133bd8982890161314b565b855250928201928201613392565b505050509392505050565b600082601f8301126133e757600080fd5b813560206133f76132a983613117565b82815260059290921b8401810191818101908684111561341657600080fd5b8286015b8481101561343a57803561342d81613027565b835291830191830161341a565b509695505050505050565b600082601f83011261345657600080fd5b813560206134666132a983613117565b82815260059290921b8401810191818101908684111561348557600080fd5b8286015b8481101561343a5780358352918301918301613489565b600082601f8301126134b157600080fd5b612ade83833560208501613363565b600080600080600060a086880312156134d857600080fd5b8535945060208601356001600160401b03808211156134f657600080fd5b818801915088601f83011261350a57600080fd5b61351989833560208501613363565b9550604088013591508082111561352f57600080fd5b61353b89838a016133d6565b9450606088013591508082111561355157600080fd5b61355d89838a01613445565b9350608088013591508082111561357357600080fd5b50613580888289016134a0565b9150509295509295909350565b60008060008060008060c087890312156135a657600080fd5b86356001600160401b03808211156135bd57600080fd5b6135c98a838b0161314b565b975060208901359150808211156135df57600080fd5b6135eb8a838b0161314b565b9650604089013595506060890135915061360482613027565b90935060808801359061361682613027565b90925060a0880135908082111561362c57600080fd5b5061363989828a0161314b565b9150509295509295509295565b6000806040838503121561365957600080fd5b82356001600160401b038082111561367057600080fd5b61367c86838701612efa565b9350602085013591508082111561369257600080fd5b5061369f85828601612f7c565b9150509250929050565b600060208083850312156136bc57600080fd5b82356001600160401b03808211156136d357600080fd5b818501915085601f8301126136e757600080fd5b81356136f56132a982613117565b81815260059190911b8301840190848101908883111561371457600080fd5b8585015b838110156133565780358581111561372f57600080fd5b8601808b0360e0601f198201121561374657600080fd5b61374e6130c5565b8983013561375b81613027565b8152604083013561376b81613027565b818b0152606083810135604083015260808401358981111561378c57600080fd5b61379a8f8d838801016131ba565b828401525080609f19840112156137b057600080fd5b506137b96130a3565b915060a08301356137c981613027565b825260c08301356137d981613027565b828b015260e09290920135604082015260808201528352918601918601613718565b600080600060e0848603121561381057600080fd5b83356001600160401b038082111561382757600080fd5b61383387838801612efa565b9450602086013591508082111561384957600080fd5b5061385686828701612f7c565b9250506138668560408601612f7c565b90509250925092565b60208082526029908201527f4552433230466163746f72793a2054656d706c61746520696e64657820646f656040820152681cdb9d08195e1a5cdd60ba1b606082015260800190565b6020808252601f908201527f5265656e7472616e637947756172643a207265656e7472616e742063616c6c00604082015260600190565b6000808335601e1984360301811261390657600080fd5b8301803591506001600160401b0382111561392057600080fd5b60200191503681900382131561393557600080fd5b9250929050565b60006020828403121561394e57600080fd5b612ade8261313a565b6000808335601e1984360301811261396e57600080fd5b8301803591506001600160401b0382111561398857600080fd5b6020019150600781901b360382131561393557600080fd5b81835281816020850137506000828201602090810191909152601f909101601f19169091010190565b60ff8d16815260e0602082015260006139e660e083018d8f6139a0565b6040838203818501526139fa828d8f6139a0565b9150606084830381860152613a10838c8e6139a0565b9250608085840381870152613a26848b8d6139a0565b60a087018a905286810360c088015287815288945060200160005b88811015613a93578535613a5481613027565b6001600160a01b0316825260ff613a6d6020880161313a565b166020830152858501358583015283860135848301529482019490820190600101613a41565b5080955050505050509d9c50505050505050505050505050565b6020808252818101527f4f776e61626c653a2063616c6c6572206973206e6f7420746865206f776e6572604082015260600190565b6000808335601e19843603018112613af957600080fd5b8301803591506001600160401b03821115613b1357600080fd5b6020019150600581901b360382131561393557600080fd5b634e487b7160e01b600052603260045260246000fd5b6000612ade368484613363565b60005b83811015613b69578181015183820152602001613b51565b838111156126cf5750506000910152565b60008151808452613b92816020860160208601613b4e565b601f01601f19169290920160200192915050565b600081518084526020808501808196508360051b8101915082860160005b85811015613bee578284038952613bdc848351613b7a565b98850198935090840190600101613bc4565b5091979650505050505050565b600081518084526020808501945080840160005b83811015613c345781516001600160a01b031687529582019590820190600101613c0f565b509495945050505050565b600081518084526020808501945080840160005b83811015613c3457815187529582019590820190600101613c53565b85815260a060208201526000613c8860a0830187613ba6565b8281036040840152613c9a8187613bfb565b90508281036060840152613cae8186613c3f565b90508281036080840152613cc28185613ba6565b98975050505050505050565b600060208284031215613ce057600080fd5b8151612ade81613027565b81835260006001600160fb1b03831115613d0457600080fd5b8260051b8083602087013760009401602001938452509192915050565b8183526000602080850194508260005b85811015613c34578135613d4481613027565b6001600160a01b031687529582019590820190600101613d31565b606081526000613d7360608301888a613ceb565b8281036020840152613d86818789613ceb565b90508281036040840152613d9b818587613d21565b9998505050505050505050565b600061010060018060a01b03808451168552806020850151166020860152506040830151604085015260ff60608401511660608501526080830151608085015260a083015160a085015260c083015160c085015260e08301518160e0860152613e1382860182613b7a565b95945050505050565b828152604060208201526000612d786040830184613da8565b634e487b7160e01b600052601160045260246000fd5b6000600019821415613e5f57613e5f613e35565b5060010190565b6020808252602c908201527f4552433732314454466163746f72793a2054656d706c61746520696e6465782060408201526b191bd95cdb9d08195e1a5cdd60a21b606082015260800190565b600060018060a01b03808a16835260e06020840152613ed460e084018a613b7a565b8381036040850152613ee6818a613b7a565b90508188166060850152818716608085015281861660a085015283810360c0850152613f128186613b7a565b9b9a5050505050505050505050565b801515811461220157600080fd5b600060208284031215613f4157600080fd5b8151612ade81613f21565b608081526000613f5f6080830187613b7a565b6001600160a01b03861660208401528281036040840152613f808186613b7a565b90508281036060840152612e9d8185613b7a565b60008219821115613fa757613fa7613e35565b500190565b6000808335601e19843603018112613fc357600080fd5b83016020810192503590506001600160401b03811115613fe257600080fd5b80360383131561393557600080fd5b81835260006020808501808196508560051b810191508460005b87811015613bee5782840389526140228288613fac565b61402d8682846139a0565b9a87019a955050509084019060010161400b565b89815260a0602082018190528101889052600060c060058a901b830181019083018b835b8c8110156140a25785840360bf19018352614080828f613fac565b61408b8682846139a0565b955050506020928301929190910190600101614065565b50505082810360408401526140b881898b613d21565b905082810360608401526140cd818789613ceb565b905082810360808401526140e2818587613ff1565b9c9b505050505050505050505050565b60008060006060848603121561410757600080fd5b835161411281613027565b602085015190935061412381613027565b80925050604084015190509250925092565b600060018060a01b03808716835285602084015260c0604084015261415d60c0840186613da8565b915080845116606084015280602085015116608084015250604083015160a083015295945050505050565b6001600160a01b03861681526060602082018190526000906141ad9083018688613d21565b8281036040840152613cc2818587613ceb565b6000602082840312156141d257600080fd5b5051919050565b6000602082840312156141eb57600080fd5b8135612ade81613f21565b6080815260006142096080830187613b7a565b828103602084015261421b8187613b7a565b604084019590955250506001600160a01b039190911660609091015292915050565b60a08152600061425060a0830188613ba6565b82810360208401526142628188613bfb565b90508281036040840152613c9a8187613bfb565b60008251614288818460208701613b4e565b9190910192915050565b602081526000612ade6020830184613b7a56fea2646970667358221220f3d4bef2a2474edb77b0ee1903f2ccba7d765ee7365daae7d0ad8005f659820064736f6c634300080c00334f776e61626c653a2063616c6c6572206973206e6f7420746865206f776e6572",
  "linkReferences": {},
  "deployedLinkReferences": {}
}