{
  "_format": "hh-sol-artifact-1",
  "contractName": "ERC721Factory",
  "sourceName": "contracts/ERC721Factory.sol",
  "abi": [
    {
      "inputs": [
        {
          "internalType": "address",
          "name": "_template721",
          "type": "address"
        },
        {
          "internalType": "address",
          "name": "_template",
          "type": "address"
        },
        {
          "internalType": "address",
          "name": "_collector",
          "type": "address"
        },
        {
          "internalType": "address",
          "name": "_router",
          "type": "address"
        }
      ],
      "stateMutability": "nonpayable",
      "type": "constructor"
    },
    {
      "anonymous": false,
      "inputs": [
        {
          "indexed": false,
          "internalType": "address",
          "name": "instance",
          "type": "address"
        }
      ],
      "name": "InstanceDeployed",
      "type": "event"
    },
    {
      "anonymous": false,
      "inputs": [
        {
          "indexed": true,
          "internalType": "address",
          "name": "newTokenAddress",
          "type": "address"
        },
        {
          "indexed": true,
          "internalType": "address",
          "name": "templateAddress",
          "type": "address"
        },
        {
          "indexed": true,
          "internalType": "string",
          "name": "tokenName",
          "type": "string"
        },
        {
          "indexed": false,
          "internalType": "address",
          "name": "admin",
          "type": "address"
        }
      ],
      "name": "NFTCreated",
      "type": "event"
    },
    {
      "anonymous": false,
      "inputs": [
        {
          "indexed": false,
          "internalType": "bytes32",
          "name": "exchangeId",
          "type": "bytes32"
        },
        {
          "indexed": false,
          "internalType": "address",
          "name": "owner",
          "type": "address"
        },
        {
          "indexed": false,
          "internalType": "address",
          "name": "basetoken",
          "type": "address"
        }
      ],
      "name": "NewFixedRate",
      "type": "event"
    },
    {
      "anonymous": false,
      "inputs": [
        {
          "indexed": false,
          "internalType": "address",
          "name": "poolAddress",
          "type": "address"
        },
        {
          "indexed": false,
          "internalType": "address",
          "name": "ssContract",
          "type": "address"
        },
        {
          "indexed": false,
          "internalType": "address",
          "name": "basetokenAddress",
          "type": "address"
        }
      ],
      "name": "NewPool",
      "type": "event"
    },
    {
      "anonymous": false,
      "inputs": [
        {
          "indexed": true,
          "internalType": "address",
          "name": "previousOwner",
          "type": "address"
        },
        {
          "indexed": true,
          "internalType": "address",
          "name": "newOwner",
          "type": "address"
        }
      ],
      "name": "OwnershipTransferred",
      "type": "event"
    },
    {
      "anonymous": false,
      "inputs": [
        {
          "indexed": true,
          "internalType": "address",
          "name": "newTokenAddress",
          "type": "address"
        },
        {
          "indexed": true,
          "internalType": "address",
          "name": "templateAddress",
          "type": "address"
        },
        {
          "indexed": true,
          "internalType": "string",
          "name": "tokenName",
          "type": "string"
        }
      ],
      "name": "TokenCreated",
      "type": "event"
    },
    {
      "inputs": [
        {
          "internalType": "address",
          "name": "_templateAddress",
          "type": "address"
        }
      ],
      "name": "add721TokenTemplate",
      "outputs": [
        {
          "internalType": "uint256",
          "name": "",
          "type": "uint256"
        }
      ],
      "stateMutability": "nonpayable",
      "type": "function"
    },
    {
      "inputs": [
        {
          "internalType": "address",
          "name": "_templateAddress",
          "type": "address"
        }
      ],
      "name": "addTokenTemplate",
      "outputs": [
        {
          "internalType": "uint256",
          "name": "",
          "type": "uint256"
        }
      ],
      "stateMutability": "nonpayable",
      "type": "function"
    },
    {
      "inputs": [
        {
          "components": [
            {
              "internalType": "string",
              "name": "name",
              "type": "string"
            },
            {
              "internalType": "string",
              "name": "symbol",
              "type": "string"
            },
            {
              "internalType": "uint256",
              "name": "templateIndex",
              "type": "uint256"
            }
          ],
          "internalType": "struct ERC721Factory.NftCreateData",
          "name": "_NftCreateData",
          "type": "tuple"
        },
        {
          "components": [
            {
              "internalType": "uint256",
              "name": "templateIndex",
              "type": "uint256"
            },
            {
              "internalType": "string[]",
              "name": "strings",
              "type": "string[]"
            },
            {
              "internalType": "address[]",
              "name": "addresses",
              "type": "address[]"
            },
            {
              "internalType": "uint256[]",
              "name": "uints",
              "type": "uint256[]"
            },
            {
              "internalType": "bytes[]",
              "name": "bytess",
              "type": "bytes[]"
            }
          ],
          "internalType": "struct ERC721Factory.ErcCreateData",
          "name": "_ErcCreateData",
          "type": "tuple"
        },
        {
          "components": [
            {
              "internalType": "address",
              "name": "fixedPriceAddress",
              "type": "address"
            },
            {
              "internalType": "address",
              "name": "basetokenAddress",
              "type": "address"
            },
            {
              "internalType": "uint8",
              "name": "basetokenDecimals",
              "type": "uint8"
            },
            {
              "internalType": "uint256",
              "name": "fixedRate",
              "type": "uint256"
            },
            {
              "internalType": "address",
              "name": "owner",
              "type": "address"
            },
            {
              "internalType": "uint256",
              "name": "marketFee",
              "type": "uint256"
            },
            {
              "internalType": "address",
              "name": "marketFeeCollector",
              "type": "address"
            }
          ],
          "internalType": "struct ERC721Factory.FixedData",
          "name": "_FixedData",
          "type": "tuple"
        }
      ],
      "name": "createNftErcWithFixedRate",
      "outputs": [
        {
          "internalType": "address",
          "name": "erc721Address",
          "type": "address"
        },
        {
          "internalType": "address",
          "name": "erc20Address",
          "type": "address"
        },
        {
          "internalType": "bytes32",
          "name": "exchangeId",
          "type": "bytes32"
        }
      ],
      "stateMutability": "nonpayable",
      "type": "function"
    },
    {
      "inputs": [
        {
          "components": [
            {
              "internalType": "string",
              "name": "name",
              "type": "string"
            },
            {
              "internalType": "string",
              "name": "symbol",
              "type": "string"
            },
            {
              "internalType": "uint256",
              "name": "templateIndex",
              "type": "uint256"
            }
          ],
          "internalType": "struct ERC721Factory.NftCreateData",
          "name": "_NftCreateData",
          "type": "tuple"
        },
        {
          "components": [
            {
              "internalType": "uint256",
              "name": "templateIndex",
              "type": "uint256"
            },
            {
              "internalType": "string[]",
              "name": "strings",
              "type": "string[]"
            },
            {
              "internalType": "address[]",
              "name": "addresses",
              "type": "address[]"
            },
            {
              "internalType": "uint256[]",
              "name": "uints",
              "type": "uint256[]"
            },
            {
              "internalType": "bytes[]",
              "name": "bytess",
              "type": "bytes[]"
            }
          ],
          "internalType": "struct ERC721Factory.ErcCreateData",
          "name": "_ErcCreateData",
          "type": "tuple"
        },
        {
          "components": [
            {
              "internalType": "address[]",
              "name": "addresses",
              "type": "address[]"
            },
            {
              "internalType": "uint256[]",
              "name": "ssParams",
              "type": "uint256[]"
            },
            {
              "internalType": "uint256[]",
              "name": "swapFees",
              "type": "uint256[]"
            }
          ],
          "internalType": "struct ERC721Factory.PoolData",
          "name": "_PoolData",
          "type": "tuple"
        }
      ],
      "name": "createNftErcWithPool",
      "outputs": [
        {
          "internalType": "address",
          "name": "erc721Address",
          "type": "address"
        },
        {
          "internalType": "address",
          "name": "erc20Address",
          "type": "address"
        },
        {
          "internalType": "address",
          "name": "poolAddress",
          "type": "address"
        }
      ],
      "stateMutability": "nonpayable",
      "type": "function"
    },
    {
      "inputs": [
        {
          "components": [
            {
              "internalType": "string",
              "name": "name",
              "type": "string"
            },
            {
              "internalType": "string",
              "name": "symbol",
              "type": "string"
            },
            {
              "internalType": "uint256",
              "name": "templateIndex",
              "type": "uint256"
            }
          ],
          "internalType": "struct ERC721Factory.NftCreateData",
          "name": "_NftCreateData",
          "type": "tuple"
        },
        {
          "components": [
            {
              "internalType": "uint256",
              "name": "templateIndex",
              "type": "uint256"
            },
            {
              "internalType": "string[]",
              "name": "strings",
              "type": "string[]"
            },
            {
              "internalType": "address[]",
              "name": "addresses",
              "type": "address[]"
            },
            {
              "internalType": "uint256[]",
              "name": "uints",
              "type": "uint256[]"
            },
            {
              "internalType": "bytes[]",
              "name": "bytess",
              "type": "bytes[]"
            }
          ],
          "internalType": "struct ERC721Factory.ErcCreateData",
          "name": "_ErcCreateData",
          "type": "tuple"
        }
      ],
      "name": "createNftWithErc",
      "outputs": [
        {
          "internalType": "address",
          "name": "erc721Address",
          "type": "address"
        },
        {
          "internalType": "address",
          "name": "erc20Address",
          "type": "address"
        }
      ],
      "stateMutability": "nonpayable",
      "type": "function"
    },
    {
      "inputs": [
        {
          "internalType": "uint256",
          "name": "_templateIndex",
          "type": "uint256"
        },
        {
          "internalType": "string[]",
          "name": "strings",
          "type": "string[]"
        },
        {
          "internalType": "address[]",
          "name": "addresses",
          "type": "address[]"
        },
        {
          "internalType": "uint256[]",
          "name": "uints",
          "type": "uint256[]"
        },
        {
          "internalType": "bytes[]",
          "name": "bytess",
          "type": "bytes[]"
        }
      ],
      "name": "createToken",
      "outputs": [
        {
          "internalType": "address",
          "name": "token",
          "type": "address"
        }
      ],
      "stateMutability": "nonpayable",
      "type": "function"
    },
    {
      "inputs": [
        {
          "internalType": "string",
          "name": "name",
          "type": "string"
        },
        {
          "internalType": "string",
          "name": "symbol",
          "type": "string"
        },
        {
          "internalType": "uint256",
          "name": "_templateIndex",
          "type": "uint256"
        },
        {
          "internalType": "address",
          "name": "additionalERC20Deployer",
          "type": "address"
        }
      ],
      "name": "deployERC721Contract",
      "outputs": [
        {
          "internalType": "address",
          "name": "token",
          "type": "address"
        }
      ],
      "stateMutability": "nonpayable",
      "type": "function"
    },
    {
      "inputs": [
        {
          "internalType": "uint256",
          "name": "_index",
          "type": "uint256"
        }
      ],
      "name": "disable721TokenTemplate",
      "outputs": [],
      "stateMutability": "nonpayable",
      "type": "function"
    },
    {
      "inputs": [
        {
          "internalType": "uint256",
          "name": "_index",
          "type": "uint256"
        }
      ],
      "name": "disableTokenTemplate",
      "outputs": [],
      "stateMutability": "nonpayable",
      "type": "function"
    },
    {
      "inputs": [
        {
          "internalType": "address",
          "name": "",
          "type": "address"
        }
      ],
      "name": "erc20List",
      "outputs": [
        {
          "internalType": "bool",
          "name": "",
          "type": "bool"
        }
      ],
      "stateMutability": "view",
      "type": "function"
    },
    {
      "inputs": [
        {
          "internalType": "address",
          "name": "",
          "type": "address"
        }
      ],
      "name": "erc721List",
      "outputs": [
        {
          "internalType": "address",
          "name": "",
          "type": "address"
        }
      ],
      "stateMutability": "view",
      "type": "function"
    },
    {
      "inputs": [],
      "name": "getCurrentNFTCount",
      "outputs": [
        {
          "internalType": "uint256",
          "name": "",
          "type": "uint256"
        }
      ],
      "stateMutability": "view",
      "type": "function"
    },
    {
      "inputs": [],
      "name": "getCurrentNFTTemplateCount",
      "outputs": [
        {
          "internalType": "uint256",
          "name": "",
          "type": "uint256"
        }
      ],
      "stateMutability": "view",
      "type": "function"
    },
    {
      "inputs": [],
      "name": "getCurrentTemplateCount",
      "outputs": [
        {
          "internalType": "uint256",
          "name": "",
          "type": "uint256"
        }
      ],
      "stateMutability": "view",
      "type": "function"
    },
    {
      "inputs": [],
      "name": "getCurrentTokenCount",
      "outputs": [
        {
          "internalType": "uint256",
          "name": "",
          "type": "uint256"
        }
      ],
      "stateMutability": "view",
      "type": "function"
    },
    {
      "inputs": [
        {
          "internalType": "uint256",
          "name": "_index",
          "type": "uint256"
        }
      ],
      "name": "getNFTTemplate",
      "outputs": [
        {
          "components": [
            {
              "internalType": "address",
              "name": "templateAddress",
              "type": "address"
            },
            {
              "internalType": "bool",
              "name": "isActive",
              "type": "bool"
            }
          ],
          "internalType": "struct ERC721Factory.Template",
          "name": "",
          "type": "tuple"
        }
      ],
      "stateMutability": "view",
      "type": "function"
    },
    {
      "inputs": [
        {
          "internalType": "uint256",
          "name": "_index",
          "type": "uint256"
        }
      ],
      "name": "getTokenTemplate",
      "outputs": [
        {
          "components": [
            {
              "internalType": "address",
              "name": "templateAddress",
              "type": "address"
            },
            {
              "internalType": "bool",
              "name": "isActive",
              "type": "bool"
            }
          ],
          "internalType": "struct ERC721Factory.Template",
          "name": "",
          "type": "tuple"
        }
      ],
      "stateMutability": "view",
      "type": "function"
    },
    {
      "inputs": [
        {
          "internalType": "uint256",
          "name": "",
          "type": "uint256"
        }
      ],
      "name": "nftTemplateList",
      "outputs": [
        {
          "internalType": "address",
          "name": "templateAddress",
          "type": "address"
        },
        {
          "internalType": "bool",
          "name": "isActive",
          "type": "bool"
        }
      ],
      "stateMutability": "view",
      "type": "function"
    },
    {
      "inputs": [],
      "name": "owner",
      "outputs": [
        {
          "internalType": "address",
          "name": "",
          "type": "address"
        }
      ],
      "stateMutability": "view",
      "type": "function"
    },
    {
      "inputs": [
        {
          "internalType": "uint256",
          "name": "_index",
          "type": "uint256"
        }
      ],
      "name": "reactivate721TokenTemplate",
      "outputs": [],
      "stateMutability": "nonpayable",
      "type": "function"
    },
    {
      "inputs": [
        {
          "internalType": "uint256",
          "name": "_index",
          "type": "uint256"
        }
      ],
      "name": "reactivateTokenTemplate",
      "outputs": [],
      "stateMutability": "nonpayable",
      "type": "function"
    },
    {
      "inputs": [],
      "name": "renounceOwnership",
      "outputs": [],
      "stateMutability": "nonpayable",
      "type": "function"
    },
    {
      "inputs": [],
      "name": "router",
      "outputs": [
        {
          "internalType": "address",
          "name": "",
          "type": "address"
        }
      ],
      "stateMutability": "view",
      "type": "function"
    },
    {
      "inputs": [
        {
          "components": [
            {
              "internalType": "address",
              "name": "tokenAddress",
              "type": "address"
            },
            {
              "internalType": "address",
              "name": "consumer",
              "type": "address"
            },
            {
              "internalType": "uint256",
              "name": "amount",
              "type": "uint256"
            },
            {
              "internalType": "uint256",
              "name": "serviceId",
              "type": "uint256"
            },
            {
              "internalType": "address",
              "name": "consumeFeeAddress",
              "type": "address"
            },
            {
              "internalType": "address",
              "name": "consumeFeeToken",
              "type": "address"
            },
            {
              "internalType": "uint256",
              "name": "consumeFeeAmount",
              "type": "uint256"
            }
          ],
          "internalType": "struct ERC721Factory.tokenOrder[]",
          "name": "orders",
          "type": "tuple[]"
        }
      ],
      "name": "startMultipleTokenOrder",
      "outputs": [],
      "stateMutability": "nonpayable",
      "type": "function"
    },
    {
      "inputs": [],
      "name": "templateCount",
      "outputs": [
        {
          "internalType": "uint256",
          "name": "",
          "type": "uint256"
        }
      ],
      "stateMutability": "view",
      "type": "function"
    },
    {
      "inputs": [
        {
          "internalType": "uint256",
          "name": "",
          "type": "uint256"
        }
      ],
      "name": "templateList",
      "outputs": [
        {
          "internalType": "address",
          "name": "templateAddress",
          "type": "address"
        },
        {
          "internalType": "bool",
          "name": "isActive",
          "type": "bool"
        }
      ],
      "stateMutability": "view",
      "type": "function"
    },
    {
      "inputs": [
        {
          "internalType": "address",
          "name": "newOwner",
          "type": "address"
        }
      ],
      "name": "transferOwnership",
      "outputs": [],
      "stateMutability": "nonpayable",
      "type": "function"
    }
  ],
  "bytecode": "0x608060405260006009553480156200001657600080fd5b50604051620034af380380620034af8339810160408190526200003991620004db565b620000443362000152565b6001600160a01b038316158015906200006557506001600160a01b03821615155b80156200007a57506001600160a01b03841615155b620001025760405162461bcd60e51b815260206004820152604760248201527f4552433732314454466163746f72793a20496e76616c69642074656d706c617460448201527f6520746f6b656e2f636f6d6d756e6974792066656520636f6c6c6563746f72206064820152666164647265737360c81b608482015260a4015b60405180910390fd5b6200010d84620001a2565b50620001198362000333565b50600b80546001600160a01b039283166001600160a01b03199182161790915560018054939092169216919091179055506200055f9050565b600080546001600160a01b038381166001600160a01b0319831681178455604051919092169283917f8be0079c531659141344cd1fd0a4f28419497f9722a3daafe3b4186f6b6457e09190a35050565b600080546001600160a01b03163314620001ee5760405162461bcd60e51b815260206004820181905260248201526000805160206200348f8339815191526044820152606401620000f9565b6001600160a01b0382166200026c5760405162461bcd60e51b815260206004820152603760248201527f4552433732314454466163746f72793a204552433732312074656d706c61746560448201527f2061646472657373283029204e4f5420414c4c4f5745440000000000000000006064820152608401620000f9565b813b620002bc5760405162461bcd60e51b815260206004820152601b60248201527f455243373231466163746f72793a204e4f5420434f4e545241435400000000006044820152606401620000f9565b600160046000828254620002d1919062000538565b90915550506040805180820182526001600160a01b0380851682526001602080840191825260048054600090815260059092529490209251835491511515600160a01b026001600160a81b03199092169216919091171790555490505b919050565b600080546001600160a01b031633146200037f5760405162461bcd60e51b815260206004820181905260248201526000805160206200348f8339815191526044820152606401620000f9565b6001600160a01b038216620003fd5760405162461bcd60e51b815260206004820152603460248201527f4552433230466163746f72793a204552433732312074656d706c61746520616460448201527f6472657373283029204e4f5420414c4c4f5745440000000000000000000000006064820152608401620000f9565b813b6200044d5760405162461bcd60e51b815260206004820152601a60248201527f4552433230466163746f72793a204e4f5420434f4e54524143540000000000006044820152606401620000f9565b6001600a600082825462000462919062000538565b90915550506040805180820182526001600160a01b03808516825260016020808401918252600a8054600090815260069092529490209251835491511515600160a01b026001600160a81b0319909216921691909117179055549050919050565b80516001600160a01b03811681146200032e57600080fd5b60008060008060808587031215620004f257600080fd5b620004fd85620004c3565b93506200050d60208601620004c3565b92506200051d60408601620004c3565b91506200052d60608601620004c3565b905092959194509250565b600082198211156200055a57634e487b7160e01b600052601160045260246000fd5b500190565b612f20806200056f6000396000f3fe608060405234801561001057600080fd5b50600436106101a95760003560e01c806382c44204116100f9578063bbf8d71f11610097578063e5fc01f011610071578063e5fc01f014610490578063ec66e4b214610498578063f2fde38b146104d5578063f887ea40146104e857600080fd5b8063bbf8d71f14610462578063c3e26ce814610475578063c6cf868a1461048857600080fd5b806394051699116100d357806394051699146103f057806395c6030514610425578063a256efe21461042d578063a33ef2a61461044f57600080fd5b806382c44204146103785780638da5cb5b146103cc5780638f6051af146103dd57600080fd5b8063557fcfb011610166578063715018a611610140578063715018a61461032157806372f670f0146103295780637b20bccf14610352578063809d81051461036557600080fd5b8063557fcfb0146102db5780635c705982146103065780636bbd2f3f1461030e57600080fd5b8063042ab9b3146101ae5780630ffda887146101ec578063226e76151461020157806326705c3c146102345780633315efd11461024b57806344079b4c146102a8575b600080fd5b6101c16101bc36600461284f565b6104fb565b6040805182516001600160a01b03168152602092830151151592810192909252015b60405180910390f35b6101ff6101fa36600461284f565b610582565b005b61022461020f3660046124a0565b60086020526000908152604090205460ff1681565b60405190151581526020016101e3565b61023d600a5481565b6040519081526020016101e3565b6101c161025936600461284f565b6040805180820190915260008082526020820152506000908152600560209081526040918290208251808401909352546001600160a01b0381168352600160a01b900460ff1615159082015290565b6102bb6102b63660046126e5565b6105c7565b604080516001600160a01b039384168152929091166020830152016101e3565b6102ee6102e9366004612868565b610719565b6040516001600160a01b0390911681526020016101e3565b60025461023d565b6101ff61031c36600461251d565b6107ba565b6101ff610f28565b6102ee6103373660046124a0565b6007602052600090815260409020546001600160a01b031681565b61023d6103603660046124a0565b610f5e565b6101ff61037336600461284f565b6110be565b6103ad61038636600461284f565b6005602052600090815260409020546001600160a01b03811690600160a01b900460ff1682565b604080516001600160a01b0390931683529015156020830152016101e3565b6000546001600160a01b03166102ee565b61023d6103eb3660046124a0565b611130565b6103ad6103fe36600461284f565b6006602052600090815260409020546001600160a01b03811690600160a01b900460ff1682565b600a5461023d565b61044061043b366004612748565b611299565b6040516101e393929190612a9f565b6101ff61045d36600461284f565b6114fd565b6101ff61047036600461284f565b611575565b6102ee610483366004612666565b611631565b60095461023d565b60045461023d565b6104ab6104a63660046127c8565b611916565b604080516001600160a01b03948516815292841660208401529216918101919091526060016101e3565b6101ff6104e33660046124a0565b611c0c565b600b546102ee906001600160a01b031681565b60408051808201909152600080825260208201526000828152600660209081526040918290208251808401909352546001600160a01b0381168352600160a01b900460ff16151590820152600a54831180159061055757508215155b61057c5760405162461bcd60e51b815260040161057390612c3f565b60405180910390fd5b92915050565b6000546001600160a01b031633146105ac5760405162461bcd60e51b815260040161057390612cd4565b6000908152600660205260409020805460ff60a01b19169055565b6000806106596105d78580612d59565b8080601f016020809104026020016040519081016040528093929190818152602001838380828437600092019190915250610619925050506020870187612d59565b8080601f016020809104026020016040519081016040528093929190818152602001838380828437600092018290525060408b0135935091506116319050565b9150610710833561066d6020860186612d09565b61067691612e3f565b6106836040870187612d09565b808060200260200160405190810160405280939291908181526020018383602002808284376000920191909152506106c2925050506060880188612d09565b80806020026020016040519081016040528093929190818152602001838360200280828437600092019190915250610701925050506080890189612d09565b61070a91612e32565b87611ca7565b90509250929050565b3360008181526007602052604081205490916001600160a01b03909116146107a25760405162461bcd60e51b815260206004820152603660248201527f455243373231466163746f72793a204f4e4c592045524337323120494e5354416044820152754e43452046524f4d20455243373231464143544f525960501b6064820152608401610573565b6107b0868686868633611ca7565b9695505050505050565b805160005b81811015610f235760008060008584815181106107de576107de612ea9565b6020026020010151600001516001600160a01b031663397b37436040518163ffffffff1660e01b815260040160606040518083038186803b15801561082257600080fd5b505afa158015610836573d6000803e3d6000fd5b505050506040513d601f19601f8201168201806040525081019061085a91906124da565b92509250925060008111801561087857506001600160a01b03821615155b801561088c57506001600160a01b03831615155b15610a0e576040516323b872dd60e01b81526001600160a01b038316906323b872dd906108c190339030908690600401612a9f565b602060405180830381600087803b1580156108db57600080fd5b505af11580156108ef573d6000803e3d6000fd5b505050506040513d601f19601f82011682018060405250810190610913919061262b565b61095f5760405162461bcd60e51b815260206004820152601d60248201527f4661696c656420746f207472616e73666572207075626c6973684665650000006044820152606401610573565b816001600160a01b031663095ea7b387868151811061098057610980612ea9565b6020908102919091010151516040516001600160e01b031960e084901b1681526001600160a01b03909116600482015260248101849052604401602060405180830381600087803b1580156109d457600080fd5b505af11580156109e8573d6000803e3d6000fd5b505050506040513d601f19601f82011682018060405250810190610a0c919061262b565b505b6000868581518110610a2257610a22612ea9565b602002602001015160c00151118015610a6b575060006001600160a01b0316868581518110610a5357610a53612ea9565b602002602001015160a001516001600160a01b031614155b8015610aa7575060006001600160a01b0316868581518110610a8f57610a8f612ea9565b6020026020010151608001516001600160a01b031614155b15610ca157858481518110610abe57610abe612ea9565b602002602001015160a001516001600160a01b03166323b872dd3330898881518110610aec57610aec612ea9565b602002602001015160c001516040518463ffffffff1660e01b8152600401610b1693929190612a9f565b602060405180830381600087803b158015610b3057600080fd5b505af1158015610b44573d6000803e3d6000fd5b505050506040513d601f19601f82011682018060405250810190610b68919061262b565b610bb45760405162461bcd60e51b815260206004820152601d60248201527f4661696c656420746f207472616e7366657220636f6e73756d654665650000006044820152606401610573565b858481518110610bc657610bc6612ea9565b602002602001015160a001516001600160a01b031663095ea7b3878681518110610bf257610bf2612ea9565b602002602001015160000151888781518110610c1057610c10612ea9565b602002602001015160c001516040518363ffffffff1660e01b8152600401610c4d9291906001600160a01b03929092168252602082015260400190565b602060405180830381600087803b158015610c6757600080fd5b505af1158015610c7b573d6000803e3d6000fd5b505050506040513d601f19601f82011682018060405250810190610c9f919061262b565b505b858481518110610cb357610cb3612ea9565b6020026020010151600001516001600160a01b03166323b872dd3330898881518110610ce157610ce1612ea9565b6020026020010151604001516040518463ffffffff1660e01b8152600401610d0b93929190612a9f565b602060405180830381600087803b158015610d2557600080fd5b505af1158015610d39573d6000803e3d6000fd5b505050506040513d601f19601f82011682018060405250810190610d5d919061262b565b610da95760405162461bcd60e51b815260206004820152601c60248201527f4661696c656420746f207472616e736665722064617461746f6b656e000000006044820152606401610573565b858481518110610dbb57610dbb612ea9565b6020026020010151600001516001600160a01b031663fda9dae7878681518110610de757610de7612ea9565b602002602001015160200151888781518110610e0557610e05612ea9565b602002602001015160400151898881518110610e2357610e23612ea9565b6020026020010151606001518a8981518110610e4157610e41612ea9565b6020026020010151608001518b8a81518110610e5f57610e5f612ea9565b602002602001015160a001518c8b81518110610e7d57610e7d612ea9565b602090810291909101015160c0015160405160e088901b6001600160e01b03191681526001600160a01b039687166004820152602481019590955260448501939093529084166064840152909216608482015260a481019190915260c401600060405180830381600087803b158015610ef557600080fd5b505af1158015610f09573d6000803e3d6000fd5b505050505050508080610f1b90612e78565b9150506107bf565b505050565b6000546001600160a01b03163314610f525760405162461bcd60e51b815260040161057390612cd4565b610f5c6000611f56565b565b600080546001600160a01b03163314610f895760405162461bcd60e51b815260040161057390612cd4565b6001600160a01b038216610ffc5760405162461bcd60e51b815260206004820152603460248201527f4552433230466163746f72793a204552433732312074656d706c617465206164604482015273191c995cdcca0c0a481393d50810531313d5d15160621b6064820152608401610573565b813b61104a5760405162461bcd60e51b815260206004820152601a60248201527f4552433230466163746f72793a204e4f5420434f4e54524143540000000000006044820152606401610573565b6001600a600082825461105d9190612e1a565b90915550506040805180820182526001600160a01b03808516825260016020808401918252600a8054600090815260069092529490209251835491511515600160a01b026001600160a81b0319909216921691909117179055549050919050565b6000546001600160a01b031633146110e85760405162461bcd60e51b815260040161057390612cd4565b60045481111580156110f957508015155b6111155760405162461bcd60e51b815260040161057390612c88565b6000908152600560205260409020805460ff60a01b19169055565b600080546001600160a01b0316331461115b5760405162461bcd60e51b815260040161057390612cd4565b6001600160a01b0382166111d75760405162461bcd60e51b815260206004820152603760248201527f4552433732314454466163746f72793a204552433732312074656d706c61746560448201527f2061646472657373283029204e4f5420414c4c4f5745440000000000000000006064820152608401610573565b813b6112255760405162461bcd60e51b815260206004820152601b60248201527f455243373231466163746f72793a204e4f5420434f4e545241435400000000006044820152606401610573565b6001600460008282546112389190612e1a565b90915550506040805180820182526001600160a01b0380851682526001602080840191825260048054600090815260059092529490209251835491511515600160a01b026001600160a81b0319909216921691909117179055549050919050565b6000808061132b6112aa8780612d59565b8080601f0160208091040260200160405190810160405280939291908181526020018383808284376000920191909152506112ec925050506020890189612d59565b8080601f016020809104026020016040519081016040528093929190818152602001838380828437600092019190915250505050604089013530611631565b92506113e2853561133f6020880188612d09565b61134891612e3f565b6113556040890189612d09565b808060200260200160405190810160405280939291908181526020018383602002808284376000920191909152506113949250505060608a018a612d09565b808060200260200160405190810160405280939291908181526020018383602002808284376000920191909152506113d39250505060808b018b612d09565b6113dc91612e32565b88611ca7565b91506001600160a01b038216637a5db5b161140060208701876124a0565b61141060408801602089016124a0565b6114206060890160408a01612935565b606089013561143560a08b0160808c016124a0565b60a08b013561144a60e08d0160c08e016124a0565b6040516001600160e01b031960e08a901b1681526001600160a01b039788166004820152958716602487015260ff909416604486015260648501929092528416608484015260a48301529190911660c482015260e401602060405180830381600087803b1580156114ba57600080fd5b505af11580156114ce573d6000803e3d6000fd5b505050506040513d601f19601f820116820180604052508101906114f2919061264d565b905093509350939050565b6000546001600160a01b031633146115275760405162461bcd60e51b815260040161057390612cd4565b600454811115801561153857508015155b6115545760405162461bcd60e51b815260040161057390612c88565b6000908152600560205260409020805460ff60a01b1916600160a01b179055565b6000546001600160a01b0316331461159f5760405162461bcd60e51b815260040161057390612cd4565b600a5481111580156115b057508015155b6116105760405162461bcd60e51b815260206004820152602b60248201527f45524332304454466163746f72793a2054656d706c61746520696e646578206460448201526a1bd95cdb9d08195e1a5cdd60aa1b6064820152608401610573565b6000908152600660205260409020805460ff60a01b1916600160a01b179055565b6000600454831115801561164457508215155b6116605760405162461bcd60e51b815260040161057390612c88565b6000838152600560209081526040918290208251808401909352546001600160a01b0381168352600160a01b900460ff1615159082018190526001146116ff5760405162461bcd60e51b815260206004820152602e60248201527f4552433732314454466163746f72793a20455243373231546f6b656e2054656d60448201526d1c1b185d1948191a5cd8589b195960921b6064820152608401610573565b805161170a90611fa6565b91506001600160a01b03821661178a576040805162461bcd60e51b81526020600482015260248101919091527f4552433732314454466163746f72793a204661696c656420746f20706572666f60448201527f726d206d696e696d616c206465706c6f79206f662061206e657720746f6b656e6064820152608401610573565b6001600160a01b0382166000818152600760205260409081902080546001600160a01b0319168317905551636cf1dbed60e01b8152839190636cf1dbed906117de9033908b908b9030908b90600401612ac3565b602060405180830381600087803b1580156117f857600080fd5b505af115801561180c573d6000803e3d6000fd5b505050506040513d601f19601f82011682018060405250810190611830919061262b565b6118995760405162461bcd60e51b815260206004820152603460248201527f4552433732314454466163746f72793a20556e61626c6520746f20696e697469604482015273616c697a6520746f6b656e20696e7374616e636560601b6064820152608401610573565b866040516118a79190612a83565b604051908190038120835133835290916001600160a01b03918216918616907fab79f3a133194dac43d8f36c89aabc54656acb3d2a780060ac9006812e4655659060200160405180910390a46001600260008282546119069190612e1a565b9091555092979650505050505050565b600080806119248480612d09565b600181811061193557611935612ea9565b905060200201602081019061194a91906124a0565b6001600160a01b03166323b872dd33306119676020890189612d09565b600481811061197857611978612ea9565b905060200201356040518463ffffffff1660e01b815260040161199d93929190612a9f565b602060405180830381600087803b1580156119b757600080fd5b505af11580156119cb573d6000803e3d6000fd5b505050506040513d601f19601f820116820180604052508101906119ef919061262b565b611a575760405162461bcd60e51b815260206004820152603360248201527f4661696c656420746f207472616e7366657220696e697469616c20706f6f6c2060448201527262617365746f6b656e206c697175696469747960681b6064820152608401610573565b611a646112aa8780612d59565b9250611a78853561133f6020880188612d09565b9150611a848480612d09565b6001818110611a9557611a95612ea9565b9050602002016020810190611aaa91906124a0565b600b546001600160a01b039182169163095ea7b39116611acd6020880188612d09565b6004818110611ade57611ade612ea9565b6040516001600160e01b031960e087901b1681526001600160a01b0390941660048501526020029190910135602483015250604401602060405180830381600087803b158015611b2d57600080fd5b505af1158015611b41573d6000803e3d6000fd5b505050506040513d601f19601f82011682018060405250810190611b65919061262b565b506001600160a01b038216635bfe4da0611b826020870187612d09565b611b8f6040890189612d09565b611b998a80612d09565b6040518763ffffffff1660e01b8152600401611bba96959493929190612bc7565b602060405180830381600087803b158015611bd457600080fd5b505af1158015611be8573d6000803e3d6000fd5b505050506040513d601f19601f820116820180604052508101906114f291906124bd565b6000546001600160a01b03163314611c365760405162461bcd60e51b815260040161057390612cd4565b6001600160a01b038116611c9b5760405162461bcd60e51b815260206004820152602660248201527f4f776e61626c653a206e6577206f776e657220697320746865207a65726f206160448201526564647265737360d01b6064820152608401610573565b611ca481611f56565b50565b600083600081518110611cbc57611cbc612ea9565b602002602001015160001415611d225760405162461bcd60e51b815260206004820152602560248201527f4552433230466163746f72793a207a65726f20636170206973206e6f7420616c6044820152641b1bddd95960da1b6064820152608401610573565b600a548711158015611d3357508615155b611d4f5760405162461bcd60e51b815260040161057390612c3f565b6000878152600660209081526040918290208251808401909352546001600160a01b0381168352600160a01b900460ff161515908201819052600114611deb5760405162461bcd60e51b815260206004820152602b60248201527f4552433230466163746f72793a20455243373231546f6b656e2054656d706c6160448201526a1d1948191a5cd8589b195960aa1b6064820152608401610573565b8051611df690611fa6565b6001600160a01b0381166000818152600860205260409020805460ff19166001179055909250611e8e5760405162461bcd60e51b815260206004820152603e60248201527f455243373231466163746f72793a204661696c656420746f20706572666f726d60448201527f206d696e696d616c206465706c6f79206f662061206e657720746f6b656e00006064820152608401610573565b86600081518110611ea157611ea1612ea9565b6020026020010151604051611eb69190612a83565b604051908190038120825190916001600160a01b03918216918516907fb51c8cbe199ffe8b0d1d39b62d473569750653cb18b165f77ae423b3900180ad90600090a4600160096000828254611f0b9190612e1a565b90915550506040805160a081018252888152602081018890529081018690526001600160a01b038416608082015260608101859052611f4a8382612036565b50509695505050505050565b600080546001600160a01b038381166001600160a01b0319831681178455604051919092169283917f8be0079c531659141344cd1fd0a4f28419497f9722a3daafe3b4186f6b6457e09190a35050565b6000808260601b9050604051733d602d80600a3d3981f3363d3d373d3d3d363d7360601b81528160148201526e5af43d82803e903d91602b57fd5bf360881b60288201526037816000f06040516001600160a01b03821681529093507f117c72e6c25f0a072e36e148df71468ce2f3dbe7defec5b2c257a6e3eb65278c915060200160405180910390a150919050565b604080516003808252608082019092528391600091906020820160608036833701905050905082608001518160008151811061207457612074612ea9565b6001600160a01b03928316602091820292909201015260018054835192169183919081106120a4576120a4612ea9565b6001600160a01b039283166020918202929092010152600b548251911690829060029081106120d5576120d5612ea9565b60200260200101906001600160a01b031690816001600160a01b031681525050816001600160a01b031663b3998be08460000151856020015184876040015188606001516040518663ffffffff1660e01b8152600401612139959493929190612b12565b602060405180830381600087803b15801561215357600080fd5b505af1158015612167573d6000803e3d6000fd5b505050506040513d601f19601f8201168201806040525081019061218b919061262b565b6121f15760405162461bcd60e51b815260206004820152603160248201527f4552433230466163746f72793a20556e61626c6520746f20696e697469616c696044820152707a6520746f6b656e20696e7374616e636560781b6064820152608401610573565b50505050565b600061220a61220584612df7565b612dc7565b9050808382526020808301915083868660051b8601111561222a57600080fd5b60005b8681101561227d5781356001600160401b0381111561224b57600080fd5b8601601f8101891361225c57600080fd5b61226a898235868401612302565b855250928201929082019060010161222d565b505050509392505050565b600061229661220584612df7565b9050808382526020808301915083868660051b860111156122b657600080fd5b6000805b878110156122f65782356001600160401b038111156122d7578283fd5b6122e38a828a01612456565b86525093830193918301916001016122ba565b50505050509392505050565b60006001600160401b0383111561231b5761231b612ebf565b61232e601f8401601f1916602001612dc7565b905082815283838301111561234257600080fd5b828260208301376000602084830101529392505050565b600082601f83011261236a57600080fd5b8135602061237a61220583612df7565b80838252828201915082860187848660051b890101111561239a57600080fd5b60005b858110156123c25781356123b081612ed5565b8452928401929084019060010161239d565b5090979650505050505050565b600082601f8301126123e057600080fd5b6123ef838335602085016121f7565b9392505050565b600082601f83011261240757600080fd5b8135602061241761220583612df7565b80838252828201915082860187848660051b890101111561243757600080fd5b60005b858110156123c25781358452928401929084019060010161243a565b600082601f83011261246757600080fd5b6123ef83833560208501612302565b600060a0828403121561248857600080fd5b50919050565b60006060828403121561248857600080fd5b6000602082840312156124b257600080fd5b81356123ef81612ed5565b6000602082840312156124cf57600080fd5b81516123ef81612ed5565b6000806000606084860312156124ef57600080fd5b83516124fa81612ed5565b602085015190935061250b81612ed5565b80925050604084015190509250925092565b6000602080838503121561253057600080fd5b82356001600160401b0381111561254657600080fd5b8301601f8101851361255757600080fd5b803561256561220582612df7565b8181528381019083850160e0808502860187018a101561258457600080fd5b60009550855b8581101561261c5781838c0312156125a0578687fd5b6125a8612d9f565b83356125b381612ed5565b8152838901356125c281612ed5565b818a015260408481013590820152606080850135908201526080808501356125e981612ed5565b9082015260a0848101356125fc81612ed5565b9082015260c084810135908201528552938701939181019160010161258a565b50919998505050505050505050565b60006020828403121561263d57600080fd5b815180151581146123ef57600080fd5b60006020828403121561265f57600080fd5b5051919050565b6000806000806080858703121561267c57600080fd5b84356001600160401b038082111561269357600080fd5b61269f88838901612456565b955060208701359150808211156126b557600080fd5b506126c287828801612456565b9350506040850135915060608501356126da81612ed5565b939692955090935050565b600080604083850312156126f857600080fd5b82356001600160401b038082111561270f57600080fd5b61271b8683870161248e565b9350602085013591508082111561273157600080fd5b5061273e85828601612476565b9150509250929050565b600080600083850361012081121561275f57600080fd5b84356001600160401b038082111561277657600080fd5b6127828883890161248e565b9550602087013591508082111561279857600080fd5b506127a587828801612476565b93505060e0603f19820112156127ba57600080fd5b506040840190509250925092565b6000806000606084860312156127dd57600080fd5b83356001600160401b03808211156127f457600080fd5b6128008783880161248e565b9450602086013591508082111561281657600080fd5b61282287838801612476565b9350604086013591508082111561283857600080fd5b506128458682870161248e565b9150509250925092565b60006020828403121561286157600080fd5b5035919050565b600080600080600060a0868803121561288057600080fd5b8535945060208601356001600160401b038082111561289e57600080fd5b818801915088601f8301126128b257600080fd5b6128c189833560208501612288565b955060408801359150808211156128d757600080fd5b6128e389838a01612359565b945060608801359150808211156128f957600080fd5b61290589838a016123f6565b9350608088013591508082111561291b57600080fd5b50612928888289016123cf565b9150509295509295909350565b60006020828403121561294757600080fd5b813560ff811681146123ef57600080fd5b600081518084526020808501945080840160005b838110156129915781516001600160a01b03168752958201959082019060010161296c565b509495945050505050565b600081518084526020808501808196508360051b8101915082860160005b858110156129e45782840389526129d2848351612a57565b988501989350908401906001016129ba565b5091979650505050505050565b81835260006001600160fb1b03831115612a0a57600080fd5b8260051b8083602087013760009401602001938452509192915050565b600081518084526020808501945080840160005b8381101561299157815187529582019590820190600101612a3b565b60008151808452612a6f816020860160208601612e4c565b601f01601f19169290920160200192915050565b60008251612a95818460208701612e4c565b9190910192915050565b6001600160a01b039384168152919092166020820152604081019190915260600190565b600060018060a01b03808816835260a06020840152612ae560a0840188612a57565b8381036040850152612af78188612a57565b95821660608501525092909216608090910152509392505050565b600060a0820160a0835280885180835260c08501915060c08160051b86010192506020808b0160005b83811015612b695760bf19888703018552612b57868351612a57565b95509382019390820190600101612b3b565b505085840381870152505050612b7f8188612958565b90508281036040840152612b938187612958565b90508281036060840152612ba78186612a27565b90508281036080840152612bbb818561299c565b98975050505050505050565b606081526000612bdb60608301888a6129f1565b602083820381850152612bef82888a6129f1565b8481036040860152858152869250810160005b86811015612c30578335612c1581612ed5565b6001600160a01b031682529282019290820190600101612c02565b509a9950505050505050505050565b60208082526029908201527f4552433230466163746f72793a2054656d706c61746520696e64657820646f656040820152681cdb9d08195e1a5cdd60ba1b606082015260800190565b6020808252602c908201527f4552433732314454466163746f72793a2054656d706c61746520696e6465782060408201526b191bd95cdb9d08195e1a5cdd60a21b606082015260800190565b6020808252818101527f4f776e61626c653a2063616c6c6572206973206e6f7420746865206f776e6572604082015260600190565b6000808335601e19843603018112612d2057600080fd5b8301803591506001600160401b03821115612d3a57600080fd5b6020019150600581901b3603821315612d5257600080fd5b9250929050565b6000808335601e19843603018112612d7057600080fd5b8301803591506001600160401b03821115612d8a57600080fd5b602001915036819003821315612d5257600080fd5b60405160e081016001600160401b0381118282101715612dc157612dc1612ebf565b60405290565b604051601f8201601f191681016001600160401b0381118282101715612def57612def612ebf565b604052919050565b60006001600160401b03821115612e1057612e10612ebf565b5060051b60200190565b60008219821115612e2d57612e2d612e93565b500190565b60006123ef3684846121f7565b60006123ef368484612288565b60005b83811015612e67578181015183820152602001612e4f565b838111156121f15750506000910152565b6000600019821415612e8c57612e8c612e93565b5060010190565b634e487b7160e01b600052601160045260246000fd5b634e487b7160e01b600052603260045260246000fd5b634e487b7160e01b600052604160045260246000fd5b6001600160a01b0381168114611ca457600080fdfea2646970667358221220f9ae769fbf804e128bfd3dc462609fbd8fe3181cd48f459ae2cfd39c54f7b9be64736f6c634300080700334f776e61626c653a2063616c6c6572206973206e6f7420746865206f776e6572",
  "linkReferences": {},
  "deployedLinkReferences": {}
}