{
  "_format": "hh-sol-artifact-1",
  "contractName": "ERC721Factory",
  "sourceName": "contracts/ERC721Factory.sol",
  "abi": [
    {
      "inputs": [
        {
          "internalType": "address",
          "name": "_template721",
          "type": "address"
        },
        {
          "internalType": "address",
          "name": "_template",
          "type": "address"
        },
        {
          "internalType": "address",
          "name": "_collector",
          "type": "address"
        },
        {
          "internalType": "address",
          "name": "_router",
          "type": "address"
        },
        {
          "internalType": "address",
          "name": "_metadata",
          "type": "address"
        }
      ],
      "stateMutability": "nonpayable",
      "type": "constructor"
    },
    {
      "anonymous": false,
      "inputs": [
        {
          "indexed": false,
          "internalType": "address",
          "name": "instance",
          "type": "address"
        }
      ],
      "name": "InstanceDeployed",
      "type": "event"
    },
    {
      "anonymous": false,
      "inputs": [
        {
          "indexed": true,
          "internalType": "address",
          "name": "newTokenAddress",
          "type": "address"
        },
        {
          "indexed": true,
          "internalType": "address",
          "name": "templateAddress",
          "type": "address"
        },
        {
          "indexed": true,
          "internalType": "string",
          "name": "tokenName",
          "type": "string"
        },
        {
          "indexed": false,
          "internalType": "address",
          "name": "admin",
          "type": "address"
        }
      ],
      "name": "NFTCreated",
      "type": "event"
    },
    {
      "anonymous": false,
      "inputs": [
        {
          "indexed": true,
          "internalType": "address",
          "name": "previousOwner",
          "type": "address"
        },
        {
          "indexed": true,
          "internalType": "address",
          "name": "newOwner",
          "type": "address"
        }
      ],
      "name": "OwnershipTransferred",
      "type": "event"
    },
    {
      "anonymous": false,
      "inputs": [
        {
          "indexed": true,
          "internalType": "address",
          "name": "newTokenAddress",
          "type": "address"
        },
        {
          "indexed": true,
          "internalType": "address",
          "name": "templateAddress",
          "type": "address"
        },
        {
          "indexed": true,
          "internalType": "string",
          "name": "tokenName",
          "type": "string"
        }
      ],
      "name": "TokenCreated",
      "type": "event"
    },
    {
      "anonymous": false,
      "inputs": [
        {
          "indexed": true,
          "internalType": "address",
          "name": "tokenAddress",
          "type": "address"
        },
        {
          "indexed": false,
          "internalType": "string",
          "name": "tokenName",
          "type": "string"
        },
        {
          "indexed": false,
          "internalType": "string",
          "name": "tokenSymbol",
          "type": "string"
        },
        {
          "indexed": false,
          "internalType": "uint256",
          "name": "tokenCap",
          "type": "uint256"
        },
        {
          "indexed": true,
          "internalType": "address",
          "name": "registeredBy",
          "type": "address"
        }
      ],
      "name": "TokenRegistered",
      "type": "event"
    },
    {
      "inputs": [
        {
          "internalType": "address",
          "name": "_templateAddress",
          "type": "address"
        }
      ],
      "name": "add721TokenTemplate",
      "outputs": [
        {
          "internalType": "uint256",
          "name": "",
          "type": "uint256"
        }
      ],
      "stateMutability": "nonpayable",
      "type": "function"
    },
    {
      "inputs": [
        {
          "internalType": "address",
          "name": "_templateAddress",
          "type": "address"
        }
      ],
      "name": "addTokenTemplate",
      "outputs": [
        {
          "internalType": "uint256",
          "name": "",
          "type": "uint256"
        }
      ],
      "stateMutability": "nonpayable",
      "type": "function"
    },
    {
      "inputs": [
        {
          "internalType": "string",
          "name": "name",
          "type": "string"
        },
        {
          "internalType": "string",
          "name": "symbol",
          "type": "string"
        },
        {
          "internalType": "uint256",
          "name": "cap",
          "type": "uint256"
        },
        {
          "internalType": "uint256",
          "name": "_templateIndex",
          "type": "uint256"
        },
        {
          "internalType": "address",
          "name": "minter",
          "type": "address"
        },
        {
          "internalType": "address",
          "name": "feeManager",
          "type": "address"
        }
      ],
      "name": "createToken",
      "outputs": [
        {
          "internalType": "address",
          "name": "token",
          "type": "address"
        }
      ],
      "stateMutability": "nonpayable",
      "type": "function"
    },
    {
      "inputs": [
        {
          "internalType": "string",
          "name": "name",
          "type": "string"
        },
        {
          "internalType": "string",
          "name": "symbol",
          "type": "string"
        },
        {
          "internalType": "bytes",
          "name": "_data",
          "type": "bytes"
        },
        {
          "internalType": "bytes",
          "name": "_flags",
          "type": "bytes"
        },
        {
          "internalType": "uint256",
          "name": "_templateIndex",
          "type": "uint256"
        }
      ],
      "name": "deployERC721Contract",
      "outputs": [
        {
          "internalType": "address",
          "name": "token",
          "type": "address"
        }
      ],
      "stateMutability": "nonpayable",
      "type": "function"
    },
    {
      "inputs": [
        {
          "internalType": "uint256",
          "name": "_index",
          "type": "uint256"
        }
      ],
      "name": "disable721TokenTemplate",
      "outputs": [],
      "stateMutability": "nonpayable",
      "type": "function"
    },
    {
      "inputs": [
        {
          "internalType": "uint256",
          "name": "_index",
          "type": "uint256"
        }
      ],
      "name": "disableTokenTemplate",
      "outputs": [],
      "stateMutability": "nonpayable",
      "type": "function"
    },
    {
      "inputs": [
        {
          "internalType": "address",
          "name": "",
          "type": "address"
        }
      ],
      "name": "erc20List",
      "outputs": [
        {
          "internalType": "bool",
          "name": "",
          "type": "bool"
        }
      ],
      "stateMutability": "view",
      "type": "function"
    },
    {
      "inputs": [
        {
          "internalType": "address",
          "name": "",
          "type": "address"
        }
      ],
      "name": "erc721List",
      "outputs": [
        {
          "internalType": "address",
          "name": "",
          "type": "address"
        }
      ],
      "stateMutability": "view",
      "type": "function"
    },
    {
      "inputs": [],
      "name": "getCurrentNFTCount",
      "outputs": [
        {
          "internalType": "uint256",
          "name": "",
          "type": "uint256"
        }
      ],
      "stateMutability": "view",
      "type": "function"
    },
    {
      "inputs": [],
      "name": "getCurrentNFTTemplateCount",
      "outputs": [
        {
          "internalType": "uint256",
          "name": "",
          "type": "uint256"
        }
      ],
      "stateMutability": "view",
      "type": "function"
    },
    {
      "inputs": [],
      "name": "getCurrentTemplateCount",
      "outputs": [
        {
          "internalType": "uint256",
          "name": "",
          "type": "uint256"
        }
      ],
      "stateMutability": "view",
      "type": "function"
    },
    {
      "inputs": [],
      "name": "getCurrentTokenCount",
      "outputs": [
        {
          "internalType": "uint256",
          "name": "",
          "type": "uint256"
        }
      ],
      "stateMutability": "view",
      "type": "function"
    },
    {
      "inputs": [
        {
          "internalType": "uint256",
          "name": "_index",
          "type": "uint256"
        }
      ],
      "name": "getNFTTemplate",
      "outputs": [
        {
          "components": [
            {
              "internalType": "address",
              "name": "templateAddress",
              "type": "address"
            },
            {
              "internalType": "bool",
              "name": "isActive",
              "type": "bool"
            }
          ],
          "internalType": "struct ERC721Factory.Template",
          "name": "",
          "type": "tuple"
        }
      ],
      "stateMutability": "view",
      "type": "function"
    },
    {
      "inputs": [
        {
          "internalType": "uint256",
          "name": "_index",
          "type": "uint256"
        }
      ],
      "name": "getTokenTemplate",
      "outputs": [
        {
          "components": [
            {
              "internalType": "address",
              "name": "templateAddress",
              "type": "address"
            },
            {
              "internalType": "bool",
              "name": "isActive",
              "type": "bool"
            }
          ],
          "internalType": "struct ERC721Factory.Template",
          "name": "",
          "type": "tuple"
        }
      ],
      "stateMutability": "view",
      "type": "function"
    },
    {
      "inputs": [
        {
          "internalType": "uint256",
          "name": "",
          "type": "uint256"
        }
      ],
      "name": "nftTemplateList",
      "outputs": [
        {
          "internalType": "address",
          "name": "templateAddress",
          "type": "address"
        },
        {
          "internalType": "bool",
          "name": "isActive",
          "type": "bool"
        }
      ],
      "stateMutability": "view",
      "type": "function"
    },
    {
      "inputs": [],
      "name": "owner",
      "outputs": [
        {
          "internalType": "address",
          "name": "",
          "type": "address"
        }
      ],
      "stateMutability": "view",
      "type": "function"
    },
    {
      "inputs": [
        {
          "internalType": "uint256",
          "name": "_index",
          "type": "uint256"
        }
      ],
      "name": "reactivate721TokenTemplate",
      "outputs": [],
      "stateMutability": "nonpayable",
      "type": "function"
    },
    {
      "inputs": [
        {
          "internalType": "uint256",
          "name": "_index",
          "type": "uint256"
        }
      ],
      "name": "reactivateTokenTemplate",
      "outputs": [],
      "stateMutability": "nonpayable",
      "type": "function"
    },
    {
      "inputs": [],
      "name": "renounceOwnership",
      "outputs": [],
      "stateMutability": "nonpayable",
      "type": "function"
    },
    {
      "inputs": [],
      "name": "router",
      "outputs": [
        {
          "internalType": "address",
          "name": "",
          "type": "address"
        }
      ],
      "stateMutability": "view",
      "type": "function"
    },
    {
      "inputs": [],
      "name": "templateCount",
      "outputs": [
        {
          "internalType": "uint256",
          "name": "",
          "type": "uint256"
        }
      ],
      "stateMutability": "view",
      "type": "function"
    },
    {
      "inputs": [
        {
          "internalType": "uint256",
          "name": "",
          "type": "uint256"
        }
      ],
      "name": "templateList",
      "outputs": [
        {
          "internalType": "address",
          "name": "templateAddress",
          "type": "address"
        },
        {
          "internalType": "bool",
          "name": "isActive",
          "type": "bool"
        }
      ],
      "stateMutability": "view",
      "type": "function"
    },
    {
      "inputs": [
        {
          "internalType": "address",
          "name": "newOwner",
          "type": "address"
        }
      ],
      "name": "transferOwnership",
      "outputs": [],
      "stateMutability": "nonpayable",
      "type": "function"
    }
  ],
  "bytecode": "0x60806040526000600a553480156200001657600080fd5b5060405162001ef638038062001ef68339810160408190526200003991620003d2565b6200004d620000476200011c565b62000120565b6001600160a01b038416158015906200006e57506001600160a01b03831615155b80156200008357506001600160a01b03851615155b80156200009857506001600160a01b03811615155b620000c05760405162461bcd60e51b8152600401620000b79062000441565b60405180910390fd5b620000cb8562000170565b50620000d7846200028b565b50600c80546001600160a01b03199081166001600160a01b03948516179091556001805482169484169490941790935560048054909316911617905550620006309050565b3390565b600080546001600160a01b038381166001600160a01b0319831681178455604051919092169283917f8be0079c531659141344cd1fd0a4f28419497f9722a3daafe3b4186f6b6457e09190a35050565b60006200017c6200011c565b6001600160a01b03166200018f620003a5565b6001600160a01b031614620001b85760405162461bcd60e51b8152600401620000b7906200051c565b6001600160a01b038216620001e15760405162461bcd60e51b8152600401620000b790620005ae565b620001ec82620003b4565b6200020b5760405162461bcd60e51b8152600401620000b790620004e5565b6001600560008282546200022091906200060b565b90915550506040805180820182526001600160a01b0380851682526001602080840191825260058054600090815260069092529490209251835491511515600160a01b0260ff60a01b19919093166001600160a01b031990921691909117161790555490505b919050565b6000620002976200011c565b6001600160a01b0316620002aa620003a5565b6001600160a01b031614620002d35760405162461bcd60e51b8152600401620000b7906200051c565b6001600160a01b038216620002fc5760405162461bcd60e51b8152600401620000b79062000551565b6200030782620003b4565b620003265760405162461bcd60e51b8152600401620000b790620004ae565b6001600b60008282546200033b91906200060b565b90915550506040805180820182526001600160a01b03808516825260016020808401918252600b8054600090815260079092529490209251835491511515600160a01b0260ff60a01b19919093166001600160a01b03199092169190911716179055549050919050565b6000546001600160a01b031690565b3b151590565b80516001600160a01b03811681146200028657600080fd5b600080600080600060a08688031215620003ea578081fd5b620003f586620003ba565b94506200040560208701620003ba565b93506200041560408701620003ba565b92506200042560608701620003ba565b91506200043560808701620003ba565b90509295509295909350565b60208082526047908201527f4552433732314454466163746f72793a20496e76616c69642074656d706c617460408201527f6520746f6b656e2f636f6d6d756e6974792066656520636f6c6c6563746f72206060820152666164647265737360c81b608082015260a00190565b6020808252601a908201527f4552433230466163746f72793a204e4f5420434f4e5452414354000000000000604082015260600190565b6020808252601b908201527f455243373231466163746f72793a204e4f5420434f4e54524143540000000000604082015260600190565b6020808252818101527f4f776e61626c653a2063616c6c6572206973206e6f7420746865206f776e6572604082015260600190565b60208082526034908201527f4552433230466163746f72793a204552433732312074656d706c61746520616460408201527f6472657373283029204e4f5420414c4c4f574544000000000000000000000000606082015260800190565b60208082526037908201527f4552433732314454466163746f72793a204552433732312074656d706c61746560408201527f2061646472657373283029204e4f5420414c4c4f574544000000000000000000606082015260800190565b600082198211156200062b57634e487b7160e01b81526011600452602481fd5b500190565b6118b680620006406000396000f3fe608060405234801561001057600080fd5b506004361061014d5760003560e01c8063809d8105116100c3578063a33ef2a61161007c578063a33ef2a6146102ab578063bbf8d71f146102be578063c6cf868a146102d1578063e5fc01f0146102d9578063f2fde38b146102e1578063f887ea40146102f45761014d565b8063809d81051461024157806382c44204146102545780638da5cb5b146102755780638f6051af1461027d578063940516991461029057806395c60305146102a35761014d565b80633315efd1116101155780633315efd1146101e55780635c705982146101f8578063715018a61461020057806372f670f01461020857806373ecb3471461021b5780637b20bccf1461022e5761014d565b8063042ab9b3146101525780630ffda8871461017b578063226e76151461019057806326705c3c146101b057806327819e06146101c5575b600080fd5b610165610160366004611127565b6102fc565b60405161017291906117eb565b60405180910390f35b61018e610189366004611127565b610379565b005b6101a361019e366004610fa2565b6103d3565b6040516101729190611231565b6101b86103e8565b604051610172919061180d565b6101d86101d3366004610fe3565b6103ee565b6040516101729190611187565b6101656101f3366004611127565b6105fa565b6101b861063d565b61018e610643565b6101d8610216366004610fa2565b61068e565b6101d8610229366004611093565b6106a9565b6101b861023c366004610fa2565b61096d565b61018e61024f366004611127565b610a76565b610267610262366004611127565b610afd565b60405161017292919061119b565b6101d8610b24565b6101b861028b366004610fa2565b610b33565b61026761029e366004611127565b610c3c565b6101b8610c63565b61018e6102b9366004611127565b610c69565b61018e6102cc366004611127565b610cf6565b6101b8610d83565b6101b8610d89565b61018e6102ef366004610fa2565b610d8f565b6101d8610e00565b610304610ef3565b6000828152600760209081526040918290208251808401909352546001600160a01b0381168352600160a01b900460ff16151590820152600b54831180159061034c57508215155b6103715760405162461bcd60e51b8152600401610368906112dd565b60405180910390fd5b90505b919050565b610381610e0f565b6001600160a01b0316610392610b24565b6001600160a01b0316146103b85760405162461bcd60e51b815260040161036890611604565b6000908152600760205260409020805460ff60a01b19169055565b60096020526000908152604090205460ff1681565b600b5481565b6000600554821115801561040157508115155b61041d5760405162461bcd60e51b8152600401610368906113fc565b6000828152600660209081526040918290208251808401909352546001600160a01b0381168352600160a01b900460ff1615159082018190526001146104755760405162461bcd60e51b81526004016103689061179d565b805161048090610e13565b91506001600160a01b0382166104a85760405162461bcd60e51b81526004016103689061151e565b6001600160a01b038083166000818152600860205260409081902080546001600160a01b03191683179055600480549151637db0f56d60e01b81528694637db0f56d936105039333938f938f93169130918f918f91016111b6565b602060405180830381600087803b15801561051d57600080fd5b505af1158015610531573d6000803e3d6000fd5b505050506040513d601f19601f820116820180604052508101906105559190610fc3565b6105715760405162461bcd60e51b815260040161036890611326565b8760405161057f919061116b565b604051809103902082600001516001600160a01b0316846001600160a01b03167fab79f3a133194dac43d8f36c89aabc54656acb3d2a780060ac9006812e465565336040516105ce9190611187565b60405180910390a46001600260008282546105e99190611816565b909155509298975050505050505050565b610602610ef3565b506000908152600660209081526040918290208251808401909352546001600160a01b0381168352600160a01b900460ff1615159082015290565b60025490565b61064b610e0f565b6001600160a01b031661065c610b24565b6001600160a01b0316146106825760405162461bcd60e51b815260040161036890611604565b61068c6000610e9d565b565b6008602052600090815260409020546001600160a01b031681565b3360008181526008602052604081205490916001600160a01b03909116146106e35760405162461bcd60e51b8152600401610368906116ea565b846107005760405162461bcd60e51b81526004016103689061148e565b600b54841115801561071157508315155b61072d5760405162461bcd60e51b8152600401610368906112dd565b6000848152600760209081526040918290208251808401909352546001600160a01b0381168352600160a01b900460ff1615159082018190526001146107855760405162461bcd60e51b8152600401610368906114d3565b805161079090610e13565b6001600160a01b0381166000818152600960205260409020805460ff191660011790559092506107d25760405162461bcd60e51b81526004016103689061168d565b6000829050806001600160a01b0316631ac570898a8a338b600160009054906101000a90046001600160a01b03168b600c60009054906101000a90046001600160a01b03168c6040518963ffffffff1660e01b815260040161083b98979695949392919061123c565b602060405180830381600087803b15801561085557600080fd5b505af1158015610869573d6000803e3d6000fd5b505050506040513d601f19601f8201168201806040525081019061088d9190610fc3565b6108a95760405162461bcd60e51b8152600401610368906115b3565b886040516108b7919061116b565b604051908190038120835190916001600160a01b03918216918616907fb51c8cbe199ffe8b0d1d39b62d473569750653cb18b165f77ae423b3900180ad90600090a4336001600160a01b0316836001600160a01b03167f54d11595f5fae5f45b1d7cc667adaf93951cf3757995b2c20dcd7b0fa81e91d08b8b8b604051610940939291906112a7565b60405180910390a36001600a600082825461095b9190611816565b90915550929998505050505050505050565b6000610977610e0f565b6001600160a01b0316610988610b24565b6001600160a01b0316146109ae5760405162461bcd60e51b815260040161036890611604565b6001600160a01b0382166109d45760405162461bcd60e51b815260040161036890611639565b6109dd82610eed565b6109f95760405162461bcd60e51b8152600401610368906113c5565b6001600b6000828254610a0c9190611816565b90915550506040805180820182526001600160a01b03808516825260016020808401918252600b8054600090815260079092529490209251835491511515600160a01b0260ff60a01b19919093166001600160a01b03199092169190911716179055549050919050565b610a7e610e0f565b6001600160a01b0316610a8f610b24565b6001600160a01b031614610ab55760405162461bcd60e51b815260040161036890611604565b6005548111158015610ac657508015155b610ae25760405162461bcd60e51b8152600401610368906113fc565b6000908152600660205260409020805460ff60a01b19169055565b6006602052600090815260409020546001600160a01b03811690600160a01b900460ff1682565b6000546001600160a01b031690565b6000610b3d610e0f565b6001600160a01b0316610b4e610b24565b6001600160a01b031614610b745760405162461bcd60e51b815260040161036890611604565b6001600160a01b038216610b9a5760405162461bcd60e51b815260040161036890611740565b610ba382610eed565b610bbf5760405162461bcd60e51b81526004016103689061157c565b600160056000828254610bd29190611816565b90915550506040805180820182526001600160a01b0380851682526001602080840191825260058054600090815260069092529490209251835491511515600160a01b0260ff60a01b19919093166001600160a01b03199092169190911716179055549050919050565b6007602052600090815260409020546001600160a01b03811690600160a01b900460ff1682565b600b5490565b610c71610e0f565b6001600160a01b0316610c82610b24565b6001600160a01b031614610ca85760405162461bcd60e51b815260040161036890611604565b6005548111158015610cb957508015155b610cd55760405162461bcd60e51b8152600401610368906113fc565b6000908152600660205260409020805460ff60a01b1916600160a01b179055565b610cfe610e0f565b6001600160a01b0316610d0f610b24565b6001600160a01b031614610d355760405162461bcd60e51b815260040161036890611604565b600b548111158015610d4657508015155b610d625760405162461bcd60e51b81526004016103689061137a565b6000908152600760205260409020805460ff60a01b1916600160a01b179055565b600a5490565b60055490565b610d97610e0f565b6001600160a01b0316610da8610b24565b6001600160a01b031614610dce5760405162461bcd60e51b815260040161036890611604565b6001600160a01b038116610df45760405162461bcd60e51b815260040161036890611448565b610dfd81610e9d565b50565b600c546001600160a01b031681565b3390565b6000808260601b9050604051733d602d80600a3d3981f3363d3d373d3d3d363d7360601b81528160148201526e5af43d82803e903d91602b57fd5bf360881b60288201526037816000f09250507f117c72e6c25f0a072e36e148df71468ce2f3dbe7defec5b2c257a6e3eb65278c82604051610e8f9190611187565b60405180910390a150919050565b600080546001600160a01b038381166001600160a01b0319831681178455604051919092169283917f8be0079c531659141344cd1fd0a4f28419497f9722a3daafe3b4186f6b6457e09190a35050565b3b151590565b604080518082019091526000808252602082015290565b80356001600160a01b038116811461037457600080fd5b600082601f830112610f31578081fd5b813567ffffffffffffffff80821115610f4c57610f4c61186a565b604051601f8301601f191681016020018281118282101715610f7057610f7061186a565b604052828152848301602001861015610f87578384fd5b82602086016020830137918201602001929092529392505050565b600060208284031215610fb3578081fd5b610fbc82610f0a565b9392505050565b600060208284031215610fd4578081fd5b81518015158114610fbc578182fd5b600080600080600060a08688031215610ffa578081fd5b853567ffffffffffffffff80821115611011578283fd5b61101d89838a01610f21565b96506020880135915080821115611032578283fd5b61103e89838a01610f21565b95506040880135915080821115611053578283fd5b61105f89838a01610f21565b94506060880135915080821115611074578283fd5b5061108188828901610f21565b95989497509295608001359392505050565b60008060008060008060c087890312156110ab578081fd5b863567ffffffffffffffff808211156110c2578283fd5b6110ce8a838b01610f21565b975060208901359150808211156110e3578283fd5b506110f089828a01610f21565b955050604087013593506060870135925061110d60808801610f0a565b915061111b60a08801610f0a565b90509295509295509295565b600060208284031215611138578081fd5b5035919050565b6000815180845261115781602086016020860161183a565b601f01601f19169290920160200192915050565b6000825161117d81846020870161183a565b9190910192915050565b6001600160a01b0391909116815260200190565b6001600160a01b039290921682521515602082015260400190565b600060018060a01b03808a16835260e060208401526111d860e084018a61113f565b83810360408501526111ea818a61113f565b90508188166060850152818716608085015283810360a085015261120e818761113f565b91505082810360c0840152611223818561113f565b9a9950505050505050505050565b901515815260200190565b60006101008083526112508184018c61113f565b90508281036020840152611264818b61113f565b6001600160a01b03998a16604085015260608401989098525050938616608085015291851660a0840152841660c083015290921660e09092019190915292915050565b6000606082526112ba606083018661113f565b82810360208401526112cc818661113f565b915050826040830152949350505050565b60208082526029908201527f4552433230466163746f72793a2054656d706c61746520696e64657820646f656040820152681cdb9d08195e1a5cdd60ba1b606082015260800190565b60208082526034908201527f4552433732314454466163746f72793a20556e61626c6520746f20696e697469604082015273616c697a6520746f6b656e20696e7374616e636560601b606082015260800190565b6020808252602b908201527f45524332304454466163746f72793a2054656d706c61746520696e646578206460408201526a1bd95cdb9d08195e1a5cdd60aa1b606082015260800190565b6020808252601a908201527f4552433230466163746f72793a204e4f5420434f4e5452414354000000000000604082015260600190565b6020808252602c908201527f4552433732314454466163746f72793a2054656d706c61746520696e6465782060408201526b191bd95cdb9d08195e1a5cdd60a21b606082015260800190565b60208082526026908201527f4f776e61626c653a206e6577206f776e657220697320746865207a65726f206160408201526564647265737360d01b606082015260800190565b60208082526025908201527f4552433230466163746f72793a207a65726f20636170206973206e6f7420616c6040820152641b1bddd95960da1b606082015260800190565b6020808252602b908201527f4552433230466163746f72793a20455243373231546f6b656e2054656d706c6160408201526a1d1948191a5cd8589b195960aa1b606082015260800190565b602080825260409082018190527f4552433732314454466163746f72793a204661696c656420746f20706572666f908201527f726d206d696e696d616c206465706c6f79206f662061206e657720746f6b656e606082015260800190565b6020808252601b908201527f455243373231466163746f72793a204e4f5420434f4e54524143540000000000604082015260600190565b60208082526031908201527f4552433230466163746f72793a20556e61626c6520746f20696e697469616c696040820152707a6520746f6b656e20696e7374616e636560781b606082015260800190565b6020808252818101527f4f776e61626c653a2063616c6c6572206973206e6f7420746865206f776e6572604082015260600190565b60208082526034908201527f4552433230466163746f72793a204552433732312074656d706c617465206164604082015273191c995cdcca0c0a481393d50810531313d5d15160621b606082015260800190565b6020808252603e908201527f455243373231466163746f72793a204661696c656420746f20706572666f726d60408201527f206d696e696d616c206465706c6f79206f662061206e657720746f6b656e0000606082015260800190565b60208082526036908201527f455243373231466163746f72793a204f4e4c592045524337323120494e5354416040820152754e43452046524f4d20455243373231464143544f525960501b606082015260800190565b60208082526037908201527f4552433732314454466163746f72793a204552433732312074656d706c61746560408201527f2061646472657373283029204e4f5420414c4c4f574544000000000000000000606082015260800190565b6020808252602e908201527f4552433732314454466163746f72793a20455243373231546f6b656e2054656d60408201526d1c1b185d1948191a5cd8589b195960921b606082015260800190565b81516001600160a01b0316815260209182015115159181019190915260400190565b90815260200190565b6000821982111561183557634e487b7160e01b81526011600452602481fd5b500190565b60005b8381101561185557818101518382015260200161183d565b83811115611864576000848401525b50505050565b634e487b7160e01b600052604160045260246000fdfea264697066735822122050bdc18ff0f4108877d7fbff33f6103ef97ad26be9c7b424842d794d72fd797064736f6c63430008000033",
  "linkReferences": {},
  "deployedLinkReferences": {}
}