{
  "_format": "hh-sol-artifact-1",
  "contractName": "ERC721Factory",
  "sourceName": "contracts/ERC721Factory.sol",
  "abi": [
    {
      "inputs": [
        {
          "internalType": "address",
          "name": "_template721",
          "type": "address"
        },
        {
          "internalType": "address",
          "name": "_template",
          "type": "address"
        },
        {
          "internalType": "address",
          "name": "_router",
          "type": "address"
        }
      ],
      "stateMutability": "nonpayable",
      "type": "constructor"
    },
    {
      "anonymous": false,
      "inputs": [
        {
          "indexed": true,
          "internalType": "address",
          "name": "datatokenAddress",
          "type": "address"
        },
        {
          "indexed": true,
          "internalType": "address",
          "name": "owner",
          "type": "address"
        },
        {
          "indexed": false,
          "internalType": "uint256",
          "name": "maxTokens",
          "type": "uint256"
        },
        {
          "indexed": false,
          "internalType": "uint256",
          "name": "maxBalance",
          "type": "uint256"
        },
        {
          "indexed": false,
          "internalType": "address",
          "name": "allowedSwapper",
          "type": "address"
        }
      ],
      "name": "DispenserCreated",
      "type": "event"
    },
    {
      "anonymous": false,
      "inputs": [
        {
          "indexed": false,
          "internalType": "address",
          "name": "instance",
          "type": "address"
        }
      ],
      "name": "InstanceDeployed",
      "type": "event"
    },
    {
      "anonymous": false,
      "inputs": [
        {
          "indexed": false,
          "internalType": "address",
          "name": "newTokenAddress",
          "type": "address"
        },
        {
          "indexed": true,
          "internalType": "address",
          "name": "templateAddress",
          "type": "address"
        },
        {
          "indexed": false,
          "internalType": "string",
          "name": "tokenName",
          "type": "string"
        },
        {
          "indexed": true,
          "internalType": "address",
          "name": "admin",
          "type": "address"
        },
        {
          "indexed": false,
          "internalType": "string",
          "name": "symbol",
          "type": "string"
        },
        {
          "indexed": false,
          "internalType": "string",
          "name": "tokenURI",
          "type": "string"
        },
        {
          "indexed": false,
          "internalType": "bool",
          "name": "transferable",
          "type": "bool"
        },
        {
          "indexed": true,
          "internalType": "address",
          "name": "creator",
          "type": "address"
        }
      ],
      "name": "NFTCreated",
      "type": "event"
    },
    {
      "anonymous": false,
      "inputs": [
        {
          "indexed": false,
          "internalType": "address",
          "name": "dispenserContract",
          "type": "address"
        }
      ],
      "name": "NewDispenser",
      "type": "event"
    },
    {
      "anonymous": false,
      "inputs": [
        {
          "indexed": false,
          "internalType": "bytes32",
          "name": "exchangeId",
          "type": "bytes32"
        },
        {
          "indexed": true,
          "internalType": "address",
          "name": "owner",
          "type": "address"
        },
        {
          "indexed": false,
          "internalType": "address",
          "name": "exchangeContract",
          "type": "address"
        },
        {
          "indexed": true,
          "internalType": "address",
          "name": "baseToken",
          "type": "address"
        }
      ],
      "name": "NewFixedRate",
      "type": "event"
    },
    {
      "anonymous": false,
      "inputs": [
        {
          "indexed": false,
          "internalType": "address",
          "name": "poolAddress",
          "type": "address"
        },
        {
          "indexed": false,
          "internalType": "address",
          "name": "ssContract",
          "type": "address"
        },
        {
          "indexed": false,
          "internalType": "address",
          "name": "baseTokenAddress",
          "type": "address"
        }
      ],
      "name": "NewPool",
      "type": "event"
    },
    {
      "anonymous": false,
      "inputs": [
        {
          "indexed": true,
          "internalType": "address",
          "name": "previousOwner",
          "type": "address"
        },
        {
          "indexed": true,
          "internalType": "address",
          "name": "newOwner",
          "type": "address"
        }
      ],
      "name": "OwnershipTransferred",
      "type": "event"
    },
    {
      "anonymous": false,
      "inputs": [
        {
          "indexed": true,
          "internalType": "address",
          "name": "_templateAddress",
          "type": "address"
        },
        {
          "indexed": true,
          "internalType": "uint256",
          "name": "nftTemplateCount",
          "type": "uint256"
        }
      ],
      "name": "Template20Added",
      "type": "event"
    },
    {
      "anonymous": false,
      "inputs": [
        {
          "indexed": true,
          "internalType": "address",
          "name": "_templateAddress",
          "type": "address"
        },
        {
          "indexed": true,
          "internalType": "uint256",
          "name": "nftTemplateCount",
          "type": "uint256"
        }
      ],
      "name": "Template721Added",
      "type": "event"
    },
    {
      "anonymous": false,
      "inputs": [
        {
          "indexed": true,
          "internalType": "address",
          "name": "newTokenAddress",
          "type": "address"
        },
        {
          "indexed": true,
          "internalType": "address",
          "name": "templateAddress",
          "type": "address"
        },
        {
          "indexed": false,
          "internalType": "string",
          "name": "name",
          "type": "string"
        },
        {
          "indexed": false,
          "internalType": "string",
          "name": "symbol",
          "type": "string"
        },
        {
          "indexed": false,
          "internalType": "uint256",
          "name": "cap",
          "type": "uint256"
        },
        {
          "indexed": false,
          "internalType": "address",
          "name": "creator",
          "type": "address"
        }
      ],
      "name": "TokenCreated",
      "type": "event"
    },
    {
      "anonymous": false,
      "inputs": [
        {
          "indexed": true,
          "internalType": "address",
          "name": "from",
          "type": "address"
        },
        {
          "indexed": true,
          "internalType": "address",
          "name": "to",
          "type": "address"
        },
        {
          "indexed": true,
          "internalType": "uint256",
          "name": "tokenId",
          "type": "uint256"
        }
      ],
      "name": "Transfer",
      "type": "event"
    },
    {
      "inputs": [
        {
          "internalType": "address",
          "name": "_templateAddress",
          "type": "address"
        }
      ],
      "name": "add721TokenTemplate",
      "outputs": [
        {
          "internalType": "uint256",
          "name": "",
          "type": "uint256"
        }
      ],
      "stateMutability": "nonpayable",
      "type": "function"
    },
    {
      "inputs": [
        {
          "internalType": "address",
          "name": "_templateAddress",
          "type": "address"
        }
      ],
      "name": "addTokenTemplate",
      "outputs": [
        {
          "internalType": "uint256",
          "name": "",
          "type": "uint256"
        }
      ],
      "stateMutability": "nonpayable",
      "type": "function"
    },
    {
      "inputs": [
        {
          "components": [
            {
              "internalType": "string",
              "name": "name",
              "type": "string"
            },
            {
              "internalType": "string",
              "name": "symbol",
              "type": "string"
            },
            {
              "internalType": "uint256",
              "name": "templateIndex",
              "type": "uint256"
            },
            {
              "internalType": "string",
              "name": "tokenURI",
              "type": "string"
            },
            {
              "internalType": "bool",
              "name": "transferable",
              "type": "bool"
            },
            {
              "internalType": "address",
              "name": "owner",
              "type": "address"
            }
          ],
          "internalType": "struct IFactory.NftCreateData",
          "name": "_NftCreateData",
          "type": "tuple"
        },
        {
          "components": [
            {
              "internalType": "uint256",
              "name": "templateIndex",
              "type": "uint256"
            },
            {
              "internalType": "string[]",
              "name": "strings",
              "type": "string[]"
            },
            {
              "internalType": "address[]",
              "name": "addresses",
              "type": "address[]"
            },
            {
              "internalType": "uint256[]",
              "name": "uints",
              "type": "uint256[]"
            },
            {
              "internalType": "bytes[]",
              "name": "bytess",
              "type": "bytes[]"
            }
          ],
          "internalType": "struct IFactory.ErcCreateData",
          "name": "_ErcCreateData",
          "type": "tuple"
        }
      ],
      "name": "createNftWithErc20",
      "outputs": [
        {
          "internalType": "address",
          "name": "erc721Address",
          "type": "address"
        },
        {
          "internalType": "address",
          "name": "erc20Address",
          "type": "address"
        }
      ],
      "stateMutability": "nonpayable",
      "type": "function"
    },
    {
      "inputs": [
        {
          "components": [
            {
              "internalType": "string",
              "name": "name",
              "type": "string"
            },
            {
              "internalType": "string",
              "name": "symbol",
              "type": "string"
            },
            {
              "internalType": "uint256",
              "name": "templateIndex",
              "type": "uint256"
            },
            {
              "internalType": "string",
              "name": "tokenURI",
              "type": "string"
            },
            {
              "internalType": "bool",
              "name": "transferable",
              "type": "bool"
            },
            {
              "internalType": "address",
              "name": "owner",
              "type": "address"
            }
          ],
          "internalType": "struct IFactory.NftCreateData",
          "name": "_NftCreateData",
          "type": "tuple"
        },
        {
          "components": [
            {
              "internalType": "uint256",
              "name": "templateIndex",
              "type": "uint256"
            },
            {
              "internalType": "string[]",
              "name": "strings",
              "type": "string[]"
            },
            {
              "internalType": "address[]",
              "name": "addresses",
              "type": "address[]"
            },
            {
              "internalType": "uint256[]",
              "name": "uints",
              "type": "uint256[]"
            },
            {
              "internalType": "bytes[]",
              "name": "bytess",
              "type": "bytes[]"
            }
          ],
          "internalType": "struct IFactory.ErcCreateData",
          "name": "_ErcCreateData",
          "type": "tuple"
        },
        {
          "components": [
            {
              "internalType": "address",
              "name": "dispenserAddress",
              "type": "address"
            },
            {
              "internalType": "uint256",
              "name": "maxTokens",
              "type": "uint256"
            },
            {
              "internalType": "uint256",
              "name": "maxBalance",
              "type": "uint256"
            },
            {
              "internalType": "bool",
              "name": "withMint",
              "type": "bool"
            },
            {
              "internalType": "address",
              "name": "allowedSwapper",
              "type": "address"
            }
          ],
          "internalType": "struct IFactory.DispenserData",
          "name": "_DispenserData",
          "type": "tuple"
        }
      ],
      "name": "createNftWithErc20WithDispenser",
      "outputs": [
        {
          "internalType": "address",
          "name": "erc721Address",
          "type": "address"
        },
        {
          "internalType": "address",
          "name": "erc20Address",
          "type": "address"
        }
      ],
      "stateMutability": "nonpayable",
      "type": "function"
    },
    {
      "inputs": [
        {
          "components": [
            {
              "internalType": "string",
              "name": "name",
              "type": "string"
            },
            {
              "internalType": "string",
              "name": "symbol",
              "type": "string"
            },
            {
              "internalType": "uint256",
              "name": "templateIndex",
              "type": "uint256"
            },
            {
              "internalType": "string",
              "name": "tokenURI",
              "type": "string"
            },
            {
              "internalType": "bool",
              "name": "transferable",
              "type": "bool"
            },
            {
              "internalType": "address",
              "name": "owner",
              "type": "address"
            }
          ],
          "internalType": "struct IFactory.NftCreateData",
          "name": "_NftCreateData",
          "type": "tuple"
        },
        {
          "components": [
            {
              "internalType": "uint256",
              "name": "templateIndex",
              "type": "uint256"
            },
            {
              "internalType": "string[]",
              "name": "strings",
              "type": "string[]"
            },
            {
              "internalType": "address[]",
              "name": "addresses",
              "type": "address[]"
            },
            {
              "internalType": "uint256[]",
              "name": "uints",
              "type": "uint256[]"
            },
            {
              "internalType": "bytes[]",
              "name": "bytess",
              "type": "bytes[]"
            }
          ],
          "internalType": "struct IFactory.ErcCreateData",
          "name": "_ErcCreateData",
          "type": "tuple"
        },
        {
          "components": [
            {
              "internalType": "address",
              "name": "fixedPriceAddress",
              "type": "address"
            },
            {
              "internalType": "address[]",
              "name": "addresses",
              "type": "address[]"
            },
            {
              "internalType": "uint256[]",
              "name": "uints",
              "type": "uint256[]"
            }
          ],
          "internalType": "struct IFactory.FixedData",
          "name": "_FixedData",
          "type": "tuple"
        }
      ],
      "name": "createNftWithErc20WithFixedRate",
      "outputs": [
        {
          "internalType": "address",
          "name": "erc721Address",
          "type": "address"
        },
        {
          "internalType": "address",
          "name": "erc20Address",
          "type": "address"
        },
        {
          "internalType": "bytes32",
          "name": "exchangeId",
          "type": "bytes32"
        }
      ],
      "stateMutability": "nonpayable",
      "type": "function"
    },
    {
      "inputs": [
        {
          "components": [
            {
              "internalType": "string",
              "name": "name",
              "type": "string"
            },
            {
              "internalType": "string",
              "name": "symbol",
              "type": "string"
            },
            {
              "internalType": "uint256",
              "name": "templateIndex",
              "type": "uint256"
            },
            {
              "internalType": "string",
              "name": "tokenURI",
              "type": "string"
            },
            {
              "internalType": "bool",
              "name": "transferable",
              "type": "bool"
            },
            {
              "internalType": "address",
              "name": "owner",
              "type": "address"
            }
          ],
          "internalType": "struct IFactory.NftCreateData",
          "name": "_NftCreateData",
          "type": "tuple"
        },
        {
          "components": [
            {
              "internalType": "uint256",
              "name": "templateIndex",
              "type": "uint256"
            },
            {
              "internalType": "string[]",
              "name": "strings",
              "type": "string[]"
            },
            {
              "internalType": "address[]",
              "name": "addresses",
              "type": "address[]"
            },
            {
              "internalType": "uint256[]",
              "name": "uints",
              "type": "uint256[]"
            },
            {
              "internalType": "bytes[]",
              "name": "bytess",
              "type": "bytes[]"
            }
          ],
          "internalType": "struct IFactory.ErcCreateData",
          "name": "_ErcCreateData",
          "type": "tuple"
        },
        {
          "components": [
            {
              "internalType": "uint256[]",
              "name": "ssParams",
              "type": "uint256[]"
            },
            {
              "internalType": "uint256[]",
              "name": "swapFees",
              "type": "uint256[]"
            },
            {
              "internalType": "address[]",
              "name": "addresses",
              "type": "address[]"
            }
          ],
          "internalType": "struct IFactory.PoolData",
          "name": "_PoolData",
          "type": "tuple"
        }
      ],
      "name": "createNftWithErc20WithPool",
      "outputs": [
        {
          "internalType": "address",
          "name": "erc721Address",
          "type": "address"
        },
        {
          "internalType": "address",
          "name": "erc20Address",
          "type": "address"
        },
        {
          "internalType": "address",
          "name": "poolAddress",
          "type": "address"
        }
      ],
      "stateMutability": "nonpayable",
      "type": "function"
    },
    {
      "inputs": [
        {
          "components": [
            {
              "internalType": "string",
              "name": "name",
              "type": "string"
            },
            {
              "internalType": "string",
              "name": "symbol",
              "type": "string"
            },
            {
              "internalType": "uint256",
              "name": "templateIndex",
              "type": "uint256"
            },
            {
              "internalType": "string",
              "name": "tokenURI",
              "type": "string"
            },
            {
              "internalType": "bool",
              "name": "transferable",
              "type": "bool"
            },
            {
              "internalType": "address",
              "name": "owner",
              "type": "address"
            }
          ],
          "internalType": "struct IFactory.NftCreateData",
          "name": "_NftCreateData",
          "type": "tuple"
        },
        {
          "components": [
            {
              "internalType": "uint8",
              "name": "_metaDataState",
              "type": "uint8"
            },
            {
              "internalType": "string",
              "name": "_metaDataDecryptorUrl",
              "type": "string"
            },
            {
              "internalType": "string",
              "name": "_metaDataDecryptorAddress",
              "type": "string"
            },
            {
              "internalType": "bytes",
              "name": "flags",
              "type": "bytes"
            },
            {
              "internalType": "bytes",
              "name": "data",
              "type": "bytes"
            },
            {
              "internalType": "bytes32",
              "name": "_metaDataHash",
              "type": "bytes32"
            },
            {
              "components": [
                {
                  "internalType": "address",
                  "name": "validatorAddress",
                  "type": "address"
                },
                {
                  "internalType": "uint8",
                  "name": "v",
                  "type": "uint8"
                },
                {
                  "internalType": "bytes32",
                  "name": "r",
                  "type": "bytes32"
                },
                {
                  "internalType": "bytes32",
                  "name": "s",
                  "type": "bytes32"
                }
              ],
              "internalType": "struct IERC721Template.metaDataProof[]",
              "name": "_metadataProofs",
              "type": "tuple[]"
            }
          ],
          "internalType": "struct ERC721Factory.MetaData",
          "name": "_MetaData",
          "type": "tuple"
        }
      ],
      "name": "createNftWithMetaData",
      "outputs": [
        {
          "internalType": "address",
          "name": "erc721Address",
          "type": "address"
        }
      ],
      "stateMutability": "nonpayable",
      "type": "function"
    },
    {
      "inputs": [
        {
          "internalType": "uint256",
          "name": "_templateIndex",
          "type": "uint256"
        },
        {
          "internalType": "string[]",
          "name": "strings",
          "type": "string[]"
        },
        {
          "internalType": "address[]",
          "name": "addresses",
          "type": "address[]"
        },
        {
          "internalType": "uint256[]",
          "name": "uints",
          "type": "uint256[]"
        },
        {
          "internalType": "bytes[]",
          "name": "bytess",
          "type": "bytes[]"
        }
      ],
      "name": "createToken",
      "outputs": [
        {
          "internalType": "address",
          "name": "token",
          "type": "address"
        }
      ],
      "stateMutability": "nonpayable",
      "type": "function"
    },
    {
      "inputs": [
        {
          "internalType": "string",
          "name": "name",
          "type": "string"
        },
        {
          "internalType": "string",
          "name": "symbol",
          "type": "string"
        },
        {
          "internalType": "uint256",
          "name": "_templateIndex",
          "type": "uint256"
        },
        {
          "internalType": "address",
          "name": "additionalERC20Deployer",
          "type": "address"
        },
        {
          "internalType": "address",
          "name": "additionalMetaDataUpdater",
          "type": "address"
        },
        {
          "internalType": "string",
          "name": "tokenURI",
          "type": "string"
        },
        {
          "internalType": "bool",
          "name": "transferable",
          "type": "bool"
        },
        {
          "internalType": "address",
          "name": "owner",
          "type": "address"
        }
      ],
      "name": "deployERC721Contract",
      "outputs": [
        {
          "internalType": "address",
          "name": "token",
          "type": "address"
        }
      ],
      "stateMutability": "nonpayable",
      "type": "function"
    },
    {
      "inputs": [
        {
          "internalType": "uint256",
          "name": "_index",
          "type": "uint256"
        }
      ],
      "name": "disable721TokenTemplate",
      "outputs": [],
      "stateMutability": "nonpayable",
      "type": "function"
    },
    {
      "inputs": [
        {
          "internalType": "uint256",
          "name": "_index",
          "type": "uint256"
        }
      ],
      "name": "disableTokenTemplate",
      "outputs": [],
      "stateMutability": "nonpayable",
      "type": "function"
    },
    {
      "inputs": [
        {
          "internalType": "address",
          "name": "",
          "type": "address"
        }
      ],
      "name": "erc20List",
      "outputs": [
        {
          "internalType": "bool",
          "name": "",
          "type": "bool"
        }
      ],
      "stateMutability": "view",
      "type": "function"
    },
    {
      "inputs": [
        {
          "internalType": "address",
          "name": "",
          "type": "address"
        }
      ],
      "name": "erc721List",
      "outputs": [
        {
          "internalType": "address",
          "name": "",
          "type": "address"
        }
      ],
      "stateMutability": "view",
      "type": "function"
    },
    {
      "inputs": [],
      "name": "getCurrentNFTCount",
      "outputs": [
        {
          "internalType": "uint256",
          "name": "",
          "type": "uint256"
        }
      ],
      "stateMutability": "view",
      "type": "function"
    },
    {
      "inputs": [],
      "name": "getCurrentNFTTemplateCount",
      "outputs": [
        {
          "internalType": "uint256",
          "name": "",
          "type": "uint256"
        }
      ],
      "stateMutability": "view",
      "type": "function"
    },
    {
      "inputs": [],
      "name": "getCurrentTemplateCount",
      "outputs": [
        {
          "internalType": "uint256",
          "name": "",
          "type": "uint256"
        }
      ],
      "stateMutability": "view",
      "type": "function"
    },
    {
      "inputs": [],
      "name": "getCurrentTokenCount",
      "outputs": [
        {
          "internalType": "uint256",
          "name": "",
          "type": "uint256"
        }
      ],
      "stateMutability": "view",
      "type": "function"
    },
    {
      "inputs": [
        {
          "internalType": "uint256",
          "name": "_index",
          "type": "uint256"
        }
      ],
      "name": "getNFTTemplate",
      "outputs": [
        {
          "components": [
            {
              "internalType": "address",
              "name": "templateAddress",
              "type": "address"
            },
            {
              "internalType": "bool",
              "name": "isActive",
              "type": "bool"
            }
          ],
          "internalType": "struct ERC721Factory.Template",
          "name": "",
          "type": "tuple"
        }
      ],
      "stateMutability": "view",
      "type": "function"
    },
    {
      "inputs": [
        {
          "internalType": "uint256",
          "name": "_index",
          "type": "uint256"
        }
      ],
      "name": "getTokenTemplate",
      "outputs": [
        {
          "components": [
            {
              "internalType": "address",
              "name": "templateAddress",
              "type": "address"
            },
            {
              "internalType": "bool",
              "name": "isActive",
              "type": "bool"
            }
          ],
          "internalType": "struct ERC721Factory.Template",
          "name": "",
          "type": "tuple"
        }
      ],
      "stateMutability": "view",
      "type": "function"
    },
    {
      "inputs": [
        {
          "internalType": "uint256",
          "name": "",
          "type": "uint256"
        }
      ],
      "name": "nftTemplateList",
      "outputs": [
        {
          "internalType": "address",
          "name": "templateAddress",
          "type": "address"
        },
        {
          "internalType": "bool",
          "name": "isActive",
          "type": "bool"
        }
      ],
      "stateMutability": "view",
      "type": "function"
    },
    {
      "inputs": [],
      "name": "owner",
      "outputs": [
        {
          "internalType": "address",
          "name": "",
          "type": "address"
        }
      ],
      "stateMutability": "view",
      "type": "function"
    },
    {
      "inputs": [
        {
          "internalType": "uint256",
          "name": "_index",
          "type": "uint256"
        }
      ],
      "name": "reactivate721TokenTemplate",
      "outputs": [],
      "stateMutability": "nonpayable",
      "type": "function"
    },
    {
      "inputs": [
        {
          "internalType": "uint256",
          "name": "_index",
          "type": "uint256"
        }
      ],
      "name": "reactivateTokenTemplate",
      "outputs": [],
      "stateMutability": "nonpayable",
      "type": "function"
    },
    {
      "inputs": [],
      "name": "renounceOwnership",
      "outputs": [],
      "stateMutability": "nonpayable",
      "type": "function"
    },
    {
      "inputs": [
        {
          "components": [
            {
              "internalType": "address",
              "name": "tokenAddress",
              "type": "address"
            },
            {
              "internalType": "bytes32",
              "name": "orderTxId",
              "type": "bytes32"
            },
            {
              "components": [
                {
                  "internalType": "address",
                  "name": "providerFeeAddress",
                  "type": "address"
                },
                {
                  "internalType": "address",
                  "name": "providerFeeToken",
                  "type": "address"
                },
                {
                  "internalType": "uint256",
                  "name": "providerFeeAmount",
                  "type": "uint256"
                },
                {
                  "internalType": "uint8",
                  "name": "v",
                  "type": "uint8"
                },
                {
                  "internalType": "bytes32",
                  "name": "r",
                  "type": "bytes32"
                },
                {
                  "internalType": "bytes32",
                  "name": "s",
                  "type": "bytes32"
                },
                {
                  "internalType": "uint256",
                  "name": "validUntil",
                  "type": "uint256"
                },
                {
                  "internalType": "bytes",
                  "name": "providerData",
                  "type": "bytes"
                }
              ],
              "internalType": "struct IERC20Template.providerFee",
              "name": "_providerFee",
              "type": "tuple"
            }
          ],
          "internalType": "struct ERC721Factory.reuseTokenOrder[]",
          "name": "orders",
          "type": "tuple[]"
        }
      ],
      "name": "reuseMultipleTokenOrder",
      "outputs": [],
      "stateMutability": "nonpayable",
      "type": "function"
    },
    {
      "inputs": [],
      "name": "router",
      "outputs": [
        {
          "internalType": "address",
          "name": "",
          "type": "address"
        }
      ],
      "stateMutability": "view",
      "type": "function"
    },
    {
      "inputs": [
        {
          "components": [
            {
              "internalType": "address",
              "name": "tokenAddress",
              "type": "address"
            },
            {
              "internalType": "address",
              "name": "consumer",
              "type": "address"
            },
            {
              "internalType": "uint256",
              "name": "serviceIndex",
              "type": "uint256"
            },
            {
              "components": [
                {
                  "internalType": "address",
                  "name": "providerFeeAddress",
                  "type": "address"
                },
                {
                  "internalType": "address",
                  "name": "providerFeeToken",
                  "type": "address"
                },
                {
                  "internalType": "uint256",
                  "name": "providerFeeAmount",
                  "type": "uint256"
                },
                {
                  "internalType": "uint8",
                  "name": "v",
                  "type": "uint8"
                },
                {
                  "internalType": "bytes32",
                  "name": "r",
                  "type": "bytes32"
                },
                {
                  "internalType": "bytes32",
                  "name": "s",
                  "type": "bytes32"
                },
                {
                  "internalType": "uint256",
                  "name": "validUntil",
                  "type": "uint256"
                },
                {
                  "internalType": "bytes",
                  "name": "providerData",
                  "type": "bytes"
                }
              ],
              "internalType": "struct IERC20Template.providerFee",
              "name": "_providerFee",
              "type": "tuple"
            },
            {
              "components": [
                {
                  "internalType": "address",
                  "name": "consumeMarketFeeAddress",
                  "type": "address"
                },
                {
                  "internalType": "address",
                  "name": "consumeMarketFeeToken",
                  "type": "address"
                },
                {
                  "internalType": "uint256",
                  "name": "consumeMarketFeeAmount",
                  "type": "uint256"
                }
              ],
              "internalType": "struct IERC20Template.consumeMarketFee",
              "name": "_consumeMarketFee",
              "type": "tuple"
            }
          ],
          "internalType": "struct ERC721Factory.tokenOrder[]",
          "name": "orders",
          "type": "tuple[]"
        }
      ],
      "name": "startMultipleTokenOrder",
      "outputs": [],
      "stateMutability": "nonpayable",
      "type": "function"
    },
    {
      "inputs": [],
      "name": "templateCount",
      "outputs": [
        {
          "internalType": "uint256",
          "name": "",
          "type": "uint256"
        }
      ],
      "stateMutability": "view",
      "type": "function"
    },
    {
      "inputs": [
        {
          "internalType": "uint256",
          "name": "",
          "type": "uint256"
        }
      ],
      "name": "templateList",
      "outputs": [
        {
          "internalType": "address",
          "name": "templateAddress",
          "type": "address"
        },
        {
          "internalType": "bool",
          "name": "isActive",
          "type": "bool"
        }
      ],
      "stateMutability": "view",
      "type": "function"
    },
    {
      "inputs": [
        {
          "internalType": "address",
          "name": "newOwner",
          "type": "address"
        }
      ],
      "name": "transferOwnership",
      "outputs": [],
      "stateMutability": "nonpayable",
      "type": "function"
    }
  ],
  "bytecode": "0x608060405260006009553480156200001657600080fd5b506040516200477a3803806200477a8339810160408190526200003991620004f5565b62000044336200012a565b600180556001600160a01b038216158015906200006957506001600160a01b03811615155b80156200007e57506001600160a01b03831615155b620000e95760405162461bcd60e51b815260206004820152603060248201527f4552433732314454466163746f72793a20496e76616c69642074656d706c617460448201526f652f726f75746572206164647265737360801b60648201526084015b60405180910390fd5b620000f4836200017a565b506200010082620002fd565b50600b80546001600160a01b0319166001600160a01b039290921691909117905550620005669050565b600080546001600160a01b038381166001600160a01b0319831681178455604051919092169283917f8be0079c531659141344cd1fd0a4f28419497f9722a3daafe3b4186f6b6457e09190a35050565b6000620001866200047f565b6001600160a01b038216620002045760405162461bcd60e51b815260206004820152603760248201527f4552433732314454466163746f72793a204552433732312074656d706c61746560448201527f2061646472657373283029204e4f5420414c4c4f5745440000000000000000006064820152608401620000e0565b813b620002545760405162461bcd60e51b815260206004820152601b60248201527f455243373231466163746f72793a204e4f5420434f4e545241435400000000006044820152606401620000e0565b6001600460008282546200026991906200053f565b90915550506040805180820182526001600160a01b038085168083526001602080850191825260048054600090815260059092528682208651815494511515600160a01b026001600160a81b03199095169616959095179290921790935554935192939290917fc0167b92c8eb4a2bad2c05e0134f076fba5d3cd54671a3e8edf13d2e61443bd991a350506004545b919050565b6000620003096200047f565b6001600160a01b038216620003875760405162461bcd60e51b815260206004820152603460248201527f4552433230466163746f72793a204552433732312074656d706c61746520616460448201527f6472657373283029204e4f5420414c4c4f5745440000000000000000000000006064820152608401620000e0565b813b620003d75760405162461bcd60e51b815260206004820152601a60248201527f4552433230466163746f72793a204e4f5420434f4e54524143540000000000006044820152606401620000e0565b6001600a6000828254620003ec91906200053f565b90915550506040805180820182526001600160a01b0380851680835260016020808501918252600a8054600090815260069092528682208651815494511515600160a01b026001600160a81b03199095169616959095179290921790935554935192939290917fdcd16da87b60cea6dbd55a83f73b8a4bf9a54655db58ae0f35b82a2373fc150d91a35050600a54919050565b6000546001600160a01b03163314620004db5760405162461bcd60e51b815260206004820181905260248201527f4f776e61626c653a2063616c6c6572206973206e6f7420746865206f776e65726044820152606401620000e0565b565b80516001600160a01b0381168114620002f857600080fd5b6000806000606084860312156200050b57600080fd5b6200051684620004dd565b92506200052660208501620004dd565b91506200053660408501620004dd565b90509250925092565b600082198211156200056157634e487b7160e01b600052601160045260246000fd5b500190565b61420480620005766000396000f3fe608060405234801561001057600080fd5b50600436106101da5760003560e01c806382c4420411610104578063aa897ddc116100a2578063e5fc01f011610071578063e5fc01f01461053b578063f2fde38b14610543578063f86b2bcf14610556578063f887ea401461056957600080fd5b8063aa897ddc146104b4578063bbf8d71f146104e7578063c6cf868a146104fa578063d282aa861461050257600080fd5b806394051699116100de578063940516991461045157806394be0e881461048657806395c6030514610499578063a33ef2a6146104a157600080fd5b806382c44204146103d95780638da5cb5b1461042d5780638f6051af1461043e57600080fd5b80633315efd11161017c578063715018a61161014b578063715018a61461038257806372f670f01461038a5780637b20bccf146103b3578063809d8105146103c657600080fd5b80633315efd1146102cd57806350447fd51461032a578063557fcfb0146103675780635c7059821461037a57600080fd5b80632515422e116101b85780632515422e1461026557806326705c3c1461027857806326f200661461028f5780633147c798146102ba57600080fd5b8063042ab9b3146101df5780630ffda8871461021d578063226e761514610232575b600080fd5b6101f26101ed366004612dda565b61057c565b6040805182516001600160a01b03168152602092830151151592810192909252015b60405180910390f35b61023061022b366004612dda565b610603565b005b610255610240366004612e13565b60086020526000908152604090205460ff1681565b6040519015158152602001610214565b610230610273366004613029565b610626565b610281600a5481565b604051908152602001610214565b6102a261029d366004613147565b6108d8565b6040516001600160a01b039091168152602001610214565b6102a26102c83660046131ca565b610aee565b6101f26102db366004612dda565b6040805180820190915260008082526020820152506000908152600560209081526040918290208251808401909352546001600160a01b0381168352600160a01b900460ff1615159082015290565b61033d6103383660046132c2565b610e67565b604080516001600160a01b0394851681529284166020840152921691810191909152606001610214565b6102a2610375366004613492565b6111f1565b600254610281565b610230611292565b6102a2610398366004612e13565b6007602052600090815260409020546001600160a01b031681565b6102816103c1366004612e13565b6112a6565b6102306103d4366004612dda565b611418565b61040e6103e7366004612dda565b6005602052600090815260409020546001600160a01b03811690600160a01b900460ff1682565b604080516001600160a01b039093168352901515602083015201610214565b6000546001600160a01b03166102a2565b61028161044c366004612e13565b611468565b61040e61045f366004612dda565b6006602052600090815260409020546001600160a01b03811690600160a01b900460ff1682565b6102306104943660046135ba565b6115e2565b600a54610281565b6102306104af366004612dda565b611b67565b6104c76104c236600461370c565b611bbd565b604080516001600160a01b03938416815292909116602083015201610214565b6102306104f5366004612dda565b611e8d565b600954610281565b6105156105103660046132c2565b611f27565b604080516001600160a01b03948516815293909216602084015290820152606001610214565b600454610281565b610230610551366004612e13565b61208a565b6104c7610564366004613780565b612100565b600b546102a2906001600160a01b031681565b60408051808201909152600080825260208201526000828152600660209081526040918290208251808401909352546001600160a01b0381168352600160a01b900460ff16151590820152600a5483118015906105d857508215155b6105fd5760405162461bcd60e51b81526004016105f4906137e3565b60405180910390fd5b92915050565b61060b612312565b6000908152600660205260409020805460ff60a01b19169055565b61062e61236c565b6032815111156106805760405162461bcd60e51b815260206004820152601e60248201527f455243373231466163746f72793a20546f6f204d616e79204f7264657273000060448201526064016105f4565b60005b81518110156108cb5760008282815181106106a0576106a061382c565b602002602001015160400151604001511180156106f1575060006001600160a01b03168282815181106106d5576106d561382c565b602002602001015160400151602001516001600160a01b031614155b8015610731575060006001600160a01b03168282815181106107155761071561382c565b602002602001015160400151600001516001600160a01b031614155b156108015761078482828151811061074b5761074b61382c565b60200260200101516040015160200151333085858151811061076f5761076f61382c565b602002602001015160400151604001516123c6565b6108018282815181106107995761079961382c565b6020026020010151600001518383815181106107b7576107b761382c565b602002602001015160400151604001518484815181106107d9576107d961382c565b602002602001015160400151602001516001600160a01b03166125149092919063ffffffff16565b8181815181106108135761081361382c565b6020026020010151600001516001600160a01b031663361fef4983838151811061083f5761083f61382c565b60200260200101516020015184848151811061085d5761085d61382c565b6020026020010151604001516040518363ffffffff1660e01b815260040161088692919061390e565b600060405180830381600087803b1580156108a057600080fd5b505af11580156108b4573d6000803e3d6000fd5b5050505080806108c39061393d565b915050610683565b506108d560018055565b50565b60006108e261236c565b6109cf6108ef8480613958565b8080601f016020809104026020016040519081016040528093929190818152602001838380828437600092019190915250610931925050506020860186613958565b8080601f016020809104026020016040519081016040528093929190818152602001838380828437600092018290525060408a01359350915030905061097a60608a018a613958565b8080601f0160208091040260200160405190810160405280939291908181526020018383808284376000920191909152506109bf9250505060a08b0160808c0161399e565b6102c860c08c0160a08d01612e13565b90506001600160a01b038116631aa3adf96109ed60208501856139bb565b6109fa6020860186613958565b610a076040880188613958565b610a1460608a018a613958565b610a2160808c018c613958565b60a08d0135610a3360c08f018f6139d6565b6040518d63ffffffff1660e01b8152600401610a5a9c9b9a99989796959493929190613a48565b600060405180830381600087803b158015610a7457600080fd5b505af1158015610a88573d6000803e3d6000fd5b50506040516310c414eb60e21b81523060048201526001600160a01b038416925063431053ac9150602401600060405180830381600087803b158015610acd57600080fd5b505af1158015610ae1573d6000803e3d6000fd5b505050506105fd60018055565b60006004548711158015610b0157508615155b610b1d5760405162461bcd60e51b81526004016105f490613b2c565b6000878152600560209081526040918290208251808401909352546001600160a01b0381168352600160a01b900460ff161515908201819052610bb95760405162461bcd60e51b815260206004820152602e60248201527f4552433732314454466163746f72793a20455243373231546f6b656e2054656d60448201526d1c1b185d1948191a5cd8589b195960921b60648201526084016105f4565b6001600160a01b038316610c235760405162461bcd60e51b815260206004820152602b60248201527f4552433732314454466163746f72793a20616464726573732830292063616e6e60448201526a37ba1031329037bbb732b960a91b60648201526084016105f4565b8051610c2e906125ff565b91506001600160a01b038216610cae576040805162461bcd60e51b81526020600482015260248101919091527f4552433732314454466163746f72793a204661696c656420746f20706572666f60448201527f726d206d696e696d616c206465706c6f79206f662061206e657720746f6b656e60648201526084016105f4565b8160076000846001600160a01b03166001600160a01b0316815260200190815260200160002060006101000a8154816001600160a01b0302191690836001600160a01b03160217905550336001600160a01b0316836001600160a01b031682600001516001600160a01b03167f8125264ec1d174cb383ea0646ea1e6921ca3b0aba20370c8e18389e7c2d6a571858e8e8b8b604051610d51959493929190613b78565b60405180910390a4600160026000828254610d6c9190613bd7565b9091555050604051630343aa3d60e31b815282906001600160a01b03821690631a1d51e890610dad9087908f908f9030908f908f908f908f90600401613bef565b6020604051808303816000875af1158015610dcc573d6000803e3d6000fd5b505050506040513d601f19601f82011682018060405250810190610df09190613c6d565b610e595760405162461bcd60e51b815260206004820152603460248201527f4552433732314454466163746f72793a20556e61626c6520746f20696e697469604482015273616c697a6520746f6b656e20696e7374616e636560601b60648201526084016105f4565b505098975050505050505050565b6000806000610e7461236c565b610ed3610e846040860186613c8a565b6001818110610e9557610e9561382c565b9050602002016020810190610eaa9190612e13565b3330610eb68880613c8a565b6004818110610ec757610ec761382c565b905060200201356123c6565b610fc3610ee08780613958565b8080601f016020809104026020016040519081016040528093929190818152602001838380828437600092019190915250610f22925050506020890189613958565b8080601f016020809104026020016040519081016040528093929190818152602001838380828437600092018290525060408d013593503092509050610f6b60608d018d613958565b8080601f016020809104026020016040519081016040528093929190818152602001838380828437600092019190915250610fb09250505060a08e0160808f0161399e565b8d60a00160208101906102c89190612e13565b92506001600160a01b03831663e38d7cad8635610fe36020890189613c8a565b610ff060408b018b613c8a565b610ffd60608d018d613c8a565b61100a60808f018f613c8a565b6040518a63ffffffff1660e01b815260040161102e99989796959493929190613df4565b6020604051808303816000875af115801561104d573d6000803e3d6000fd5b505050506040513d601f19601f820116820180604052508101906110719190613ea5565b600b549092506110ec906001600160a01b031661108e8680613c8a565b600481811061109f5761109f61382c565b905060200201358680604001906110b69190613c8a565b60018181106110c7576110c761382c565b90506020020160208101906110dc9190612e13565b6001600160a01b03169190612514565b6001600160a01b038216635bfe4da06111058680613c8a565b6111126020890189613c8a565b61111f60408b018b613c8a565b6040518763ffffffff1660e01b815260040161114096959493929190613ec2565b6020604051808303816000875af115801561115f573d6000803e3d6000fd5b505050506040513d601f19601f820116820180604052508101906111839190613ea5565b6040516301fc3d9160e71b81523060048201529091506001600160a01b0384169063fe1ec88090602401600060405180830381600087803b1580156111c757600080fd5b505af11580156111db573d6000803e3d6000fd5b505050506111e860018055565b93509350939050565b3360008181526007602052604081205490916001600160a01b039091161461127a5760405162461bcd60e51b815260206004820152603660248201527f455243373231466163746f72793a204f4e4c592045524337323120494e5354416044820152754e43452046524f4d20455243373231464143544f525960501b60648201526084016105f4565b61128886868686863361268f565b9695505050505050565b61129a612312565b6112a46000612974565b565b60006112b0612312565b6001600160a01b0382166113235760405162461bcd60e51b815260206004820152603460248201527f4552433230466163746f72793a204552433732312074656d706c617465206164604482015273191c995cdcca0c0a481393d50810531313d5d15160621b60648201526084016105f4565b813b6113715760405162461bcd60e51b815260206004820152601a60248201527f4552433230466163746f72793a204e4f5420434f4e545241435400000000000060448201526064016105f4565b6001600a60008282546113849190613bd7565b90915550506040805180820182526001600160a01b0380851680835260016020808501918252600a8054600090815260069092528682208651815494511515600160a01b026001600160a81b03199095169616959095179290921790935554935192939290917fdcd16da87b60cea6dbd55a83f73b8a4bf9a54655db58ae0f35b82a2373fc150d91a35050600a545b919050565b611420612312565b600454811115801561143157508015155b61144d5760405162461bcd60e51b81526004016105f490613b2c565b6000908152600560205260409020805460ff60a01b19169055565b6000611472612312565b6001600160a01b0382166114ee5760405162461bcd60e51b815260206004820152603760248201527f4552433732314454466163746f72793a204552433732312074656d706c61746560448201527f2061646472657373283029204e4f5420414c4c4f57454400000000000000000060648201526084016105f4565b813b61153c5760405162461bcd60e51b815260206004820152601b60248201527f455243373231466163746f72793a204e4f5420434f4e5452414354000000000060448201526064016105f4565b60016004600082825461154f9190613bd7565b90915550506040805180820182526001600160a01b038085168083526001602080850191825260048054600090815260059092528682208651815494511515600160a01b026001600160a81b03199095169616959095179290921790935554935192939290917fc0167b92c8eb4a2bad2c05e0134f076fba5d3cd54671a3e8edf13d2e61443bd991a35050600454919050565b6115ea61236c565b60328151111561163c5760405162461bcd60e51b815260206004820152601e60248201527f455243373231466163746f72793a20546f6f204d616e79204f7264657273000060448201526064016105f4565b60005b81518110156108cb57600080600084848151811061165f5761165f61382c565b6020026020010151600001516001600160a01b031663397b37436040518163ffffffff1660e01b8152600401606060405180830381865afa1580156116a8573d6000803e3d6000fd5b505050506040513d601f19601f820116820180604052508101906116cc9190613f0b565b9250925092506000811180156116ea57506001600160a01b03821615155b80156116fe57506001600160a01b03831615155b156117415761170f823330846123c6565b6117418585815181106117245761172461382c565b6020908102919091010151516001600160a01b0384169083612514565b60008585815181106117555761175561382c565b602002602001015160800151604001511180156117a6575060006001600160a01b031685858151811061178a5761178a61382c565b602002602001015160800151600001516001600160a01b031614155b80156117e6575060006001600160a01b03168585815181106117ca576117ca61382c565b602002602001015160800151602001516001600160a01b031614155b156118b6576118398585815181106118005761180061382c565b6020026020010151608001516020015133308888815181106118245761182461382c565b602002602001015160800151604001516123c6565b6118b685858151811061184e5761184e61382c565b60200260200101516000015186868151811061186c5761186c61382c565b6020026020010151608001516040015187878151811061188e5761188e61382c565b602002602001015160800151602001516001600160a01b03166125149092919063ffffffff16565b60008585815181106118ca576118ca61382c565b6020026020010151606001516040015111801561191b575060006001600160a01b03168585815181106118ff576118ff61382c565b602002602001015160600151602001516001600160a01b031614155b801561195b575060006001600160a01b031685858151811061193f5761193f61382c565b602002602001015160600151600001516001600160a01b031614155b15611a2b576119ae8585815181106119755761197561382c565b6020026020010151606001516020015133308888815181106119995761199961382c565b602002602001015160600151604001516123c6565b611a2b8585815181106119c3576119c361382c565b6020026020010151600001518686815181106119e1576119e161382c565b60200260200101516060015160400151878781518110611a0357611a0361382c565b602002602001015160600151602001516001600160a01b03166125149092919063ffffffff16565b611a5c858581518110611a4057611a4061382c565b6020026020010151600001513330670de0b6b3a76400006123c6565b848481518110611a6e57611a6e61382c565b6020026020010151600001516001600160a01b03166379d9d7f3868681518110611a9a57611a9a61382c565b602002602001015160200151878781518110611ab857611ab861382c565b602002602001015160400151888881518110611ad657611ad661382c565b602002602001015160600151898981518110611af457611af461382c565b6020026020010151608001516040518563ffffffff1660e01b8152600401611b1f9493929190613f4e565b600060405180830381600087803b158015611b3957600080fd5b505af1158015611b4d573d6000803e3d6000fd5b505050505050508080611b5f9061393d565b91505061163f565b611b6f612312565b6004548111158015611b8057508015155b611b9c5760405162461bcd60e51b81526004016105f490613b2c565b6000908152600560205260409020805460ff60a01b1916600160a01b179055565b600080611bc861236c565b611cb5611bd58680613958565b8080601f016020809104026020016040519081016040528093929190818152602001838380828437600092019190915250611c17925050506020880188613958565b8080601f016020809104026020016040519081016040528093929190818152602001838380828437600092018290525060408c013593503092509050611c6060608c018c613958565b8080601f016020809104026020016040519081016040528093929190818152602001838380828437600092019190915250611ca59250505060a08d0160808e0161399e565b6102c860c08e0160a08f01612e13565b91506001600160a01b03821663e38d7cad8535611cd56020880188613c8a565b611ce260408a018a613c8a565b611cef60608c018c613c8a565b611cfc60808e018e613c8a565b6040518a63ffffffff1660e01b8152600401611d2099989796959493929190613df4565b6020604051808303816000875af1158015611d3f573d6000803e3d6000fd5b505050506040513d601f19601f82011682018060405250810190611d639190613ea5565b90506001600160a01b03811663191c918a611d816020860186612e13565b60208601356040870135611d9b6080890160608a0161399e565b611dab60a08a0160808b01612e13565b60405160e087901b6001600160e01b03191681526001600160a01b0395861660048201526024810194909452604484019290925215156064830152909116608482015260a401600060405180830381600087803b158015611e0b57600080fd5b505af1158015611e1f573d6000803e3d6000fd5b50506040516301fc3d9160e71b81523060048201526001600160a01b038516925063fe1ec8809150602401600060405180830381600087803b158015611e6457600080fd5b505af1158015611e78573d6000803e3d6000fd5b50505050611e8560018055565b935093915050565b611e95612312565b600a548111158015611ea657508015155b611f065760405162461bcd60e51b815260206004820152602b60248201527f45524332304454466163746f72793a2054656d706c61746520696e646578206460448201526a1bd95cdb9d08195e1a5cdd60aa1b60648201526084016105f4565b6000908152600660205260409020805460ff60a01b1916600160a01b179055565b6000806000611f3461236c565b611f41610ee08780613958565b92506001600160a01b03831663e38d7cad8635611f616020890189613c8a565b611f6e60408b018b613c8a565b611f7b60608d018d613c8a565b611f8860808f018f613c8a565b6040518a63ffffffff1660e01b8152600401611fac99989796959493929190613df4565b6020604051808303816000875af1158015611fcb573d6000803e3d6000fd5b505050506040513d601f19601f82011682018060405250810190611fef9190613ea5565b91506001600160a01b038216638b96412b61200d6020870187612e13565b61201a6020880188613c8a565b61202760408a018a613c8a565b6040518663ffffffff1660e01b8152600401612047959493929190613fa1565b6020604051808303816000875af1158015612066573d6000803e3d6000fd5b505050506040513d601f19601f820116820180604052508101906111839190613fe5565b612092612312565b6001600160a01b0381166120f75760405162461bcd60e51b815260206004820152602660248201527f4f776e61626c653a206e6577206f776e657220697320746865207a65726f206160448201526564647265737360d01b60648201526084016105f4565b6108d581612974565b60008061210b61236c565b6121f86121188580613958565b8080601f01602080910402602001604051908101604052809392919081815260200183838082843760009201919091525061215a925050506020870187613958565b8080601f016020809104026020016040519081016040528093929190818152602001838380828437600092018290525060408b0135935030925090506121a360608b018b613958565b8080601f0160208091040260200160405190810160405280939291908181526020018383808284376000920191909152506121e89250505060a08c0160808d0161399e565b6102c860c08d0160a08e01612e13565b91506001600160a01b03821663e38d7cad84356122186020870187613c8a565b6122256040890189613c8a565b61223260608b018b613c8a565b61223f60808d018d613c8a565b6040518a63ffffffff1660e01b815260040161226399989796959493929190613df4565b6020604051808303816000875af1158015612282573d6000803e3d6000fd5b505050506040513d601f19601f820116820180604052508101906122a69190613ea5565b6040516301fc3d9160e71b81523060048201529091506001600160a01b0383169063fe1ec88090602401600060405180830381600087803b1580156122ea57600080fd5b505af11580156122fe573d6000803e3d6000fd5b5050505061230b60018055565b9250929050565b6000546001600160a01b031633146112a45760405162461bcd60e51b815260206004820181905260248201527f4f776e61626c653a2063616c6c6572206973206e6f7420746865206f776e657260448201526064016105f4565b600260015414156123bf5760405162461bcd60e51b815260206004820152601f60248201527f5265656e7472616e637947756172643a207265656e7472616e742063616c6c0060448201526064016105f4565b6002600155565b6040516370a0823160e01b81526001600160a01b038381166004830152600091908616906370a0823190602401602060405180830381865afa158015612410573d6000803e3d6000fd5b505050506040513d601f19601f820116820180604052508101906124349190613fe5565b905061244b6001600160a01b0386168585856129c4565b61245581836129fc565b6040516370a0823160e01b81526001600160a01b0385811660048301528716906370a0823190602401602060405180830381865afa15801561249b573d6000803e3d6000fd5b505050506040513d601f19601f820116820180604052508101906124bf9190613fe5565b101561250d5760405162461bcd60e51b815260206004820152601a60248201527f5472616e7366657220616d6f756e7420697320746f6f206c6f7700000000000060448201526064016105f4565b5050505050565b604051636eb1769f60e11b81523060048201526001600160a01b038381166024830152600091839186169063dd62ed3e90604401602060405180830381865afa158015612565573d6000803e3d6000fd5b505050506040513d601f19601f820116820180604052508101906125899190613fe5565b6125939190613bd7565b6040516001600160a01b0385166024820152604481018290529091506125f990859063095ea7b360e01b906064015b60408051601f198184030181529190526020810180516001600160e01b03166001600160e01b031990931692909217909152612a0f565b50505050565b6000808260601b9050604051733d602d80600a3d3981f3363d3d373d3d3d363d7360601b81528160148201526e5af43d82803e903d91602b57fd5bf360881b60288201526037816000f06040516001600160a01b03821681529093507f117c72e6c25f0a072e36e148df71468ce2f3dbe7defec5b2c257a6e3eb65278c915060200160405180910390a150919050565b6000836000815181106126a4576126a461382c565b60200260200101516000141561270a5760405162461bcd60e51b815260206004820152602560248201527f4552433230466163746f72793a207a65726f20636170206973206e6f7420616c6044820152641b1bddd95960da1b60648201526084016105f4565b600a54871115801561271b57508615155b6127375760405162461bcd60e51b81526004016105f4906137e3565b6000878152600660209081526040918290208251808401909352546001600160a01b0381168352600160a01b900460ff1615159082018190526127d05760405162461bcd60e51b815260206004820152602b60248201527f4552433230466163746f72793a20455243373231546f6b656e2054656d706c6160448201526a1d1948191a5cd8589b195960aa1b60648201526084016105f4565b80516127db906125ff565b6001600160a01b0381166000818152600860205260409020805460ff191660011790559092506128735760405162461bcd60e51b815260206004820152603e60248201527f455243373231466163746f72793a204661696c656420746f20706572666f726d60448201527f206d696e696d616c206465706c6f79206f662061206e657720746f6b656e000060648201526084016105f4565b80600001516001600160a01b0316826001600160a01b03167f567699dbf7c5f63a51a42fd451f5e065bca0dfc723adf2cc498bbb7cfb780b90896000815181106128bf576128bf61382c565b60200260200101518a6001815181106128da576128da61382c565b6020026020010151896000815181106128f5576128f561382c565b60200260200101518860405161290e9493929190613ffe565b60405180910390a36001600960008282546129299190613bd7565b90915550506040805160a08101825288815260208101889052908101869052606081018590526001600160a01b03841660808201526129688382612ae6565b50509695505050505050565b600080546001600160a01b038381166001600160a01b0319831681178455604051919092169283917f8be0079c531659141344cd1fd0a4f28419497f9722a3daafe3b4186f6b6457e09190a35050565b6040516001600160a01b03808516602483015283166044820152606481018290526125f99085906323b872dd60e01b906084016125c2565b6000612a088284613bd7565b9392505050565b6000612a64826040518060400160405280602081526020017f5361666545524332303a206c6f772d6c6576656c2063616c6c206661696c6564815250856001600160a01b0316612c629092919063ffffffff16565b805190915015612ae15780806020019051810190612a829190613c6d565b612ae15760405162461bcd60e51b815260206004820152602a60248201527f5361666545524332303a204552433230206f7065726174696f6e20646964206e6044820152691bdd081cdd58d8d9595960b21b60648201526084016105f4565b505050565b6040805160038082526080820190925283916000919060208201606080368337019050509050826080015181600081518110612b2457612b2461382c565b6001600160a01b039283166020918202929092010152600b54825191169082906001908110612b5557612b5561382c565b60200260200101906001600160a01b031690816001600160a01b031681525050816001600160a01b031663b3998be08460000151856020015184876040015188606001516040518663ffffffff1660e01b8152600401612bb99594939291906140f6565b6020604051808303816000875af1158015612bd8573d6000803e3d6000fd5b505050506040513d601f19601f82011682018060405250810190612bfc9190613c6d565b6125f95760405162461bcd60e51b815260206004820152603160248201527f4552433230466163746f72793a20556e61626c6520746f20696e697469616c696044820152707a6520746f6b656e20696e7374616e636560781b60648201526084016105f4565b6060612c718484600085612c79565b949350505050565b606082471015612cda5760405162461bcd60e51b815260206004820152602660248201527f416464726573733a20696e73756666696369656e742062616c616e636520666f6044820152651c8818d85b1b60d21b60648201526084016105f4565b843b612d285760405162461bcd60e51b815260206004820152601d60248201527f416464726573733a2063616c6c20746f206e6f6e2d636f6e747261637400000060448201526064016105f4565b600080866001600160a01b03168587604051612d44919061419f565b60006040518083038185875af1925050503d8060008114612d81576040519150601f19603f3d011682016040523d82523d6000602084013e612d86565b606091505b5091509150612d96828286612da1565b979650505050505050565b60608315612db0575081612a08565b825115612dc05782518084602001fd5b8160405162461bcd60e51b81526004016105f491906141bb565b600060208284031215612dec57600080fd5b5035919050565b6001600160a01b03811681146108d557600080fd5b803561141381612df3565b600060208284031215612e2557600080fd5b8135612a0881612df3565b634e487b7160e01b600052604160045260246000fd5b60405161010081016001600160401b0381118282101715612e6957612e69612e30565b60405290565b604051606081016001600160401b0381118282101715612e6957612e69612e30565b60405160a081016001600160401b0381118282101715612e6957612e69612e30565b604051601f8201601f191681016001600160401b0381118282101715612edb57612edb612e30565b604052919050565b60006001600160401b03821115612efc57612efc612e30565b5060051b60200190565b803560ff8116811461141357600080fd5b600082601f830112612f2857600080fd5b81356001600160401b03811115612f4157612f41612e30565b612f54601f8201601f1916602001612eb3565b818152846020838601011115612f6957600080fd5b816020850160208301376000918101602001919091529392505050565b60006101008284031215612f9957600080fd5b612fa1612e46565b9050612fac82612e08565b8152612fba60208301612e08565b602082015260408201356040820152612fd560608301612f06565b60608201526080820135608082015260a082013560a082015260c082013560c082015260e08201356001600160401b0381111561301157600080fd5b61301d84828501612f17565b60e08301525092915050565b6000602080838503121561303c57600080fd5b82356001600160401b038082111561305357600080fd5b818501915085601f83011261306757600080fd5b813561307a61307582612ee3565b612eb3565b81815260059190911b8301840190848101908883111561309957600080fd5b8585015b83811015613122578035858111156130b55760008081fd5b86016060818c03601f19018113156130cd5760008081fd5b6130d5612e6f565b898301356130e281612df3565b81526040838101358b8301529183013591888311156131015760008081fd5b61310f8e8c85870101612f86565b908201528552505091860191860161309d565b5098975050505050505050565b600060c0828403121561314157600080fd5b50919050565b6000806040838503121561315a57600080fd5b82356001600160401b038082111561317157600080fd5b61317d8683870161312f565b9350602085013591508082111561319357600080fd5b50830160e081860312156131a657600080fd5b809150509250929050565b80151581146108d557600080fd5b8035611413816131b1565b600080600080600080600080610100898b0312156131e757600080fd5b88356001600160401b03808211156131fe57600080fd5b61320a8c838d01612f17565b995060208b013591508082111561322057600080fd5b61322c8c838d01612f17565b985060408b0135975061324160608c01612e08565b965061324f60808c01612e08565b955060a08b013591508082111561326557600080fd5b506132728b828c01612f17565b93505061328160c08a016131bf565b915061328f60e08a01612e08565b90509295985092959890939650565b600060a0828403121561314157600080fd5b60006060828403121561314157600080fd5b6000806000606084860312156132d757600080fd5b83356001600160401b03808211156132ee57600080fd5b6132fa8783880161312f565b9450602086013591508082111561331057600080fd5b61331c8783880161329e565b9350604086013591508082111561333257600080fd5b5061333f868287016132b0565b9150509250925092565b600082601f83011261335a57600080fd5b8135602061336a61307583612ee3565b82815260059290921b8401810191818101908684111561338957600080fd5b8286015b848110156133ad5780356133a081612df3565b835291830191830161338d565b509695505050505050565b600082601f8301126133c957600080fd5b813560206133d961307583612ee3565b82815260059290921b840181019181810190868411156133f857600080fd5b8286015b848110156133ad57803583529183019183016133fc565b600082601f83011261342457600080fd5b8135602061343461307583612ee3565b82815260059290921b8401810191818101908684111561345357600080fd5b8286015b848110156133ad5780356001600160401b038111156134765760008081fd5b6134848986838b0101612f17565b845250918301918301613457565b600080600080600060a086880312156134aa57600080fd5b853594506020808701356001600160401b03808211156134c957600080fd5b818901915089601f8301126134dd57600080fd5b81356134eb61307582612ee3565b81815260059190911b8301840190848101908c83111561350a57600080fd5b8585015b83811015613542578035858111156135265760008081fd5b6135348f89838a0101612f17565b84525091860191860161350e565b5098505050604089013592508083111561355b57600080fd5b6135678a848b01613349565b9550606089013592508083111561357d57600080fd5b6135898a848b016133b8565b9450608089013592508083111561359f57600080fd5b50506135ad88828901613413565b9150509295509295909350565b600060208083850312156135cd57600080fd5b82356001600160401b03808211156135e457600080fd5b818501915085601f8301126135f857600080fd5b813561360661307582612ee3565b81815260059190911b8301840190848101908883111561362557600080fd5b8585015b838110156131225780358581111561364057600080fd5b8601808b0360e0601f198201121561365757600080fd5b61365f612e91565b8983013561366c81612df3565b8152604083013561367c81612df3565b818b0152606083810135604083015260808401358981111561369d57600080fd5b6136ab8f8d83880101612f86565b828401525080609f19840112156136c157600080fd5b506136ca612e6f565b915060a08301356136da81612df3565b825260c08301356136ea81612df3565b828b015260e09290920135604082015260808201528352918601918601613629565b600080600060e0848603121561372157600080fd5b83356001600160401b038082111561373857600080fd5b6137448783880161312f565b9450602086013591508082111561375a57600080fd5b506137678682870161329e565b925050613777856040860161329e565b90509250925092565b6000806040838503121561379357600080fd5b82356001600160401b03808211156137aa57600080fd5b6137b68683870161312f565b935060208501359150808211156137cc57600080fd5b506137d98582860161329e565b9150509250929050565b60208082526029908201527f4552433230466163746f72793a2054656d706c61746520696e64657820646f656040820152681cdb9d08195e1a5cdd60ba1b606082015260800190565b634e487b7160e01b600052603260045260246000fd5b60005b8381101561385d578181015183820152602001613845565b838111156125f95750506000910152565b60008151808452613886816020860160208601613842565b601f01601f19169290920160200192915050565b600061010060018060a01b03808451168552806020850151166020860152506040830151604085015260ff60608401511660608501526080830151608085015260a083015160a085015260c083015160c085015260e08301518160e08601526139058286018261386e565b95945050505050565b828152604060208201526000612c71604083018461389a565b634e487b7160e01b600052601160045260246000fd5b600060001982141561395157613951613927565b5060010190565b6000808335601e1984360301811261396f57600080fd5b8301803591506001600160401b0382111561398957600080fd5b60200191503681900382131561230b57600080fd5b6000602082840312156139b057600080fd5b8135612a08816131b1565b6000602082840312156139cd57600080fd5b612a0882612f06565b6000808335601e198436030181126139ed57600080fd5b8301803591506001600160401b03821115613a0757600080fd5b6020019150600781901b360382131561230b57600080fd5b81835281816020850137506000828201602090810191909152601f909101601f19169091010190565b60ff8d16815260e060208201526000613a6560e083018d8f613a1f565b604083820381850152613a79828d8f613a1f565b9150606084830381860152613a8f838c8e613a1f565b9250608085840381870152613aa5848b8d613a1f565b60a087018a905286810360c088015287815288945060200160005b88811015613b12578535613ad381612df3565b6001600160a01b0316825260ff613aec60208801612f06565b166020830152858501358583015283860135848301529482019490820190600101613ac0565b5080955050505050509d9c50505050505050505050505050565b6020808252602c908201527f4552433732314454466163746f72793a2054656d706c61746520696e6465782060408201526b191bd95cdb9d08195e1a5cdd60a21b606082015260800190565b6001600160a01b038616815260a060208201819052600090613b9c9083018761386e565b8281036040840152613bae818761386e565b90508281036060840152613bc2818661386e565b91505082151560808301529695505050505050565b60008219821115613bea57613bea613927565b500190565b6001600160a01b03898116825261010060208301819052600091613c158483018c61386e565b91508382036040850152613c29828b61386e565b8982166060860152888216608086015290871660a085015283810360c08501529050613c55818661386e565b91505082151560e08301529998505050505050505050565b600060208284031215613c7f57600080fd5b8151612a08816131b1565b6000808335601e19843603018112613ca157600080fd5b8301803591506001600160401b03821115613cbb57600080fd5b6020019150600581901b360382131561230b57600080fd5b6000808335601e19843603018112613cea57600080fd5b83016020810192503590506001600160401b03811115613d0957600080fd5b80360383131561230b57600080fd5b8183526000602080850194508260005b85811015613d56578135613d3b81612df3565b6001600160a01b031687529582019590820190600101613d28565b509495945050505050565b81835260006001600160fb1b03831115613d7a57600080fd5b8260051b8083602087013760009401602001938452509192915050565b81835260006020808501808196508560051b810191508460005b87811015613de7578284038952613dc88288613cd3565b613dd3868284613a1f565b9a87019a9550505090840190600101613db1565b5091979650505050505050565b89815260a0602082018190528101889052600060c060058a901b830181019083018b835b8c811015613e555785840360bf19018352613e33828f613cd3565b613e3e868284613a1f565b955050506020928301929190910190600101613e18565b5050508281036040840152613e6b81898b613d18565b90508281036060840152613e80818789613d61565b90508281036080840152613e95818587613d97565b9c9b505050505050505050505050565b600060208284031215613eb757600080fd5b8151612a0881612df3565b606081526000613ed660608301888a613d61565b8281036020840152613ee9818789613d61565b90508281036040840152613efe818587613d18565b9998505050505050505050565b600080600060608486031215613f2057600080fd5b8351613f2b81612df3565b6020850151909350613f3c81612df3565b80925050604084015190509250925092565b600060018060a01b03808716835285602084015260c06040840152613f7660c084018661389a565b915080845116606084015280602085015116608084015250604083015160a083015295945050505050565b6001600160a01b0386168152606060208201819052600090613fc69083018688613d18565b8281036040840152613fd9818587613d61565b98975050505050505050565b600060208284031215613ff757600080fd5b5051919050565b608081526000614011608083018761386e565b8281036020840152614023818761386e565b604084019590955250506001600160a01b039190911660609091015292915050565b600081518084526020808501945080840160005b83811015613d565781516001600160a01b031687529582019590820190600101614059565b600081518084526020808501945080840160005b83811015613d5657815187529582019590820190600101614092565b600081518084526020808501808196508360051b8101915082860160005b85811015613de75782840389526140e484835161386e565b988501989350908401906001016140cc565b600060a0820160a0835280885180835260c08501915060c08160051b86010192506020808b0160005b8381101561414d5760bf1988870301855261413b86835161386e565b9550938201939082019060010161411f565b5050858403818701525050506141638188614045565b905082810360408401526141778187614045565b9050828103606084015261418b818661407e565b90508281036080840152613fd981856140ae565b600082516141b1818460208701613842565b9190910192915050565b602081526000612a08602083018461386e56fea264697066735822122066fe1665de9cd80d5ca30e0e6d2cdd371134aa6e71c5e40891af42cd064f511464736f6c634300080c0033",
  "linkReferences": {},
  "deployedLinkReferences": {}
}