{
  "_format": "hh-sol-artifact-1",
  "contractName": "ERC721Factory",
  "sourceName": "contracts/ERC721Factory.sol",
  "abi": [
    {
      "inputs": [
        {
          "internalType": "address",
          "name": "_template721",
          "type": "address"
        },
        {
          "internalType": "address",
          "name": "_template",
          "type": "address"
        },
        {
          "internalType": "address",
          "name": "_collector",
          "type": "address"
        },
        {
          "internalType": "address",
          "name": "_router",
          "type": "address"
        },
        {
          "internalType": "address",
          "name": "_metadata",
          "type": "address"
        }
      ],
      "stateMutability": "nonpayable",
      "type": "constructor"
    },
    {
      "anonymous": false,
      "inputs": [
        {
          "indexed": false,
          "internalType": "address",
          "name": "instance",
          "type": "address"
        }
      ],
      "name": "InstanceDeployed",
      "type": "event"
    },
    {
      "anonymous": false,
      "inputs": [
        {
          "indexed": true,
          "internalType": "address",
          "name": "newTokenAddress",
          "type": "address"
        },
        {
          "indexed": true,
          "internalType": "address",
          "name": "templateAddress",
          "type": "address"
        },
        {
          "indexed": true,
          "internalType": "string",
          "name": "tokenName",
          "type": "string"
        },
        {
          "indexed": false,
          "internalType": "address",
          "name": "admin",
          "type": "address"
        }
      ],
      "name": "NFTCreated",
      "type": "event"
    },
    {
      "anonymous": false,
      "inputs": [
        {
          "indexed": true,
          "internalType": "address",
          "name": "previousOwner",
          "type": "address"
        },
        {
          "indexed": true,
          "internalType": "address",
          "name": "newOwner",
          "type": "address"
        }
      ],
      "name": "OwnershipTransferred",
      "type": "event"
    },
    {
      "anonymous": false,
      "inputs": [
        {
          "indexed": true,
          "internalType": "address",
          "name": "newTokenAddress",
          "type": "address"
        },
        {
          "indexed": true,
          "internalType": "address",
          "name": "templateAddress",
          "type": "address"
        },
        {
          "indexed": true,
          "internalType": "string",
          "name": "tokenName",
          "type": "string"
        }
      ],
      "name": "TokenCreated",
      "type": "event"
    },
    {
      "anonymous": false,
      "inputs": [
        {
          "indexed": true,
          "internalType": "address",
          "name": "tokenAddress",
          "type": "address"
        },
        {
          "indexed": false,
          "internalType": "string",
          "name": "tokenName",
          "type": "string"
        },
        {
          "indexed": false,
          "internalType": "string",
          "name": "tokenSymbol",
          "type": "string"
        },
        {
          "indexed": false,
          "internalType": "uint256",
          "name": "tokenCap",
          "type": "uint256"
        },
        {
          "indexed": true,
          "internalType": "address",
          "name": "registeredBy",
          "type": "address"
        }
      ],
      "name": "TokenRegistered",
      "type": "event"
    },
    {
      "inputs": [
        {
          "internalType": "address",
          "name": "_templateAddress",
          "type": "address"
        }
      ],
      "name": "add721TokenTemplate",
      "outputs": [
        {
          "internalType": "uint256",
          "name": "",
          "type": "uint256"
        }
      ],
      "stateMutability": "nonpayable",
      "type": "function"
    },
    {
      "inputs": [
        {
          "internalType": "address",
          "name": "_templateAddress",
          "type": "address"
        }
      ],
      "name": "addTokenTemplate",
      "outputs": [
        {
          "internalType": "uint256",
          "name": "",
          "type": "uint256"
        }
      ],
      "stateMutability": "nonpayable",
      "type": "function"
    },
    {
      "inputs": [
        {
          "internalType": "string",
          "name": "name",
          "type": "string"
        },
        {
          "internalType": "string",
          "name": "symbol",
          "type": "string"
        },
        {
          "internalType": "uint256",
          "name": "cap",
          "type": "uint256"
        },
        {
          "internalType": "uint256",
          "name": "_templateIndex",
          "type": "uint256"
        },
        {
          "internalType": "address",
          "name": "minter",
          "type": "address"
        },
        {
          "internalType": "address",
          "name": "feeManager",
          "type": "address"
        }
      ],
      "name": "createToken",
      "outputs": [
        {
          "internalType": "address",
          "name": "token",
          "type": "address"
        }
      ],
      "stateMutability": "nonpayable",
      "type": "function"
    },
    {
      "inputs": [
        {
          "internalType": "string",
          "name": "name",
          "type": "string"
        },
        {
          "internalType": "string",
          "name": "symbol",
          "type": "string"
        },
        {
          "internalType": "bytes",
          "name": "_data",
          "type": "bytes"
        },
        {
          "internalType": "bytes",
          "name": "_flags",
          "type": "bytes"
        },
        {
          "internalType": "uint256",
          "name": "_templateIndex",
          "type": "uint256"
        }
      ],
      "name": "deployERC721Contract",
      "outputs": [
        {
          "internalType": "address",
          "name": "token",
          "type": "address"
        }
      ],
      "stateMutability": "nonpayable",
      "type": "function"
    },
    {
      "inputs": [
        {
          "internalType": "uint256",
          "name": "_index",
          "type": "uint256"
        }
      ],
      "name": "disable721TokenTemplate",
      "outputs": [],
      "stateMutability": "nonpayable",
      "type": "function"
    },
    {
      "inputs": [
        {
          "internalType": "uint256",
          "name": "_index",
          "type": "uint256"
        }
      ],
      "name": "disableTokenTemplate",
      "outputs": [],
      "stateMutability": "nonpayable",
      "type": "function"
    },
    {
      "inputs": [
        {
          "internalType": "address",
          "name": "",
          "type": "address"
        }
      ],
      "name": "erc20List",
      "outputs": [
        {
          "internalType": "bool",
          "name": "",
          "type": "bool"
        }
      ],
      "stateMutability": "view",
      "type": "function"
    },
    {
      "inputs": [
        {
          "internalType": "address",
          "name": "",
          "type": "address"
        }
      ],
      "name": "erc721List",
      "outputs": [
        {
          "internalType": "address",
          "name": "",
          "type": "address"
        }
      ],
      "stateMutability": "view",
      "type": "function"
    },
    {
      "inputs": [],
      "name": "getCurrentNFTCount",
      "outputs": [
        {
          "internalType": "uint256",
          "name": "",
          "type": "uint256"
        }
      ],
      "stateMutability": "view",
      "type": "function"
    },
    {
      "inputs": [],
      "name": "getCurrentNFTTemplateCount",
      "outputs": [
        {
          "internalType": "uint256",
          "name": "",
          "type": "uint256"
        }
      ],
      "stateMutability": "view",
      "type": "function"
    },
    {
      "inputs": [],
      "name": "getCurrentTemplateCount",
      "outputs": [
        {
          "internalType": "uint256",
          "name": "",
          "type": "uint256"
        }
      ],
      "stateMutability": "view",
      "type": "function"
    },
    {
      "inputs": [],
      "name": "getCurrentTokenCount",
      "outputs": [
        {
          "internalType": "uint256",
          "name": "",
          "type": "uint256"
        }
      ],
      "stateMutability": "view",
      "type": "function"
    },
    {
      "inputs": [
        {
          "internalType": "uint256",
          "name": "_index",
          "type": "uint256"
        }
      ],
      "name": "getNFTTemplate",
      "outputs": [
        {
          "components": [
            {
              "internalType": "address",
              "name": "templateAddress",
              "type": "address"
            },
            {
              "internalType": "bool",
              "name": "isActive",
              "type": "bool"
            }
          ],
          "internalType": "struct ERC721Factory.Template",
          "name": "",
          "type": "tuple"
        }
      ],
      "stateMutability": "view",
      "type": "function"
    },
    {
      "inputs": [
        {
          "internalType": "uint256",
          "name": "_index",
          "type": "uint256"
        }
      ],
      "name": "getTokenTemplate",
      "outputs": [
        {
          "components": [
            {
              "internalType": "address",
              "name": "templateAddress",
              "type": "address"
            },
            {
              "internalType": "bool",
              "name": "isActive",
              "type": "bool"
            }
          ],
          "internalType": "struct ERC721Factory.Template",
          "name": "",
          "type": "tuple"
        }
      ],
      "stateMutability": "view",
      "type": "function"
    },
    {
      "inputs": [
        {
          "internalType": "uint256",
          "name": "",
          "type": "uint256"
        }
      ],
      "name": "nftTemplateList",
      "outputs": [
        {
          "internalType": "address",
          "name": "templateAddress",
          "type": "address"
        },
        {
          "internalType": "bool",
          "name": "isActive",
          "type": "bool"
        }
      ],
      "stateMutability": "view",
      "type": "function"
    },
    {
      "inputs": [],
      "name": "owner",
      "outputs": [
        {
          "internalType": "address",
          "name": "",
          "type": "address"
        }
      ],
      "stateMutability": "view",
      "type": "function"
    },
    {
      "inputs": [
        {
          "internalType": "uint256",
          "name": "_index",
          "type": "uint256"
        }
      ],
      "name": "reactivate721TokenTemplate",
      "outputs": [],
      "stateMutability": "nonpayable",
      "type": "function"
    },
    {
      "inputs": [
        {
          "internalType": "uint256",
          "name": "_index",
          "type": "uint256"
        }
      ],
      "name": "reactivateTokenTemplate",
      "outputs": [],
      "stateMutability": "nonpayable",
      "type": "function"
    },
    {
      "inputs": [],
      "name": "renounceOwnership",
      "outputs": [],
      "stateMutability": "nonpayable",
      "type": "function"
    },
    {
      "inputs": [],
      "name": "router",
      "outputs": [
        {
          "internalType": "address",
          "name": "",
          "type": "address"
        }
      ],
      "stateMutability": "view",
      "type": "function"
    },
    {
      "inputs": [],
      "name": "templateCount",
      "outputs": [
        {
          "internalType": "uint256",
          "name": "",
          "type": "uint256"
        }
      ],
      "stateMutability": "view",
      "type": "function"
    },
    {
      "inputs": [
        {
          "internalType": "uint256",
          "name": "",
          "type": "uint256"
        }
      ],
      "name": "templateList",
      "outputs": [
        {
          "internalType": "address",
          "name": "templateAddress",
          "type": "address"
        },
        {
          "internalType": "bool",
          "name": "isActive",
          "type": "bool"
        }
      ],
      "stateMutability": "view",
      "type": "function"
    },
    {
      "inputs": [
        {
          "internalType": "address",
          "name": "newOwner",
          "type": "address"
        }
      ],
      "name": "transferOwnership",
      "outputs": [],
      "stateMutability": "nonpayable",
      "type": "function"
    }
  ],
  "bytecode": "0x60806040526000600b553480156200001657600080fd5b5060405162001f2238038062001f228339810160408190526200003991620003c4565b6000620000456200015e565b600080546001600160a01b0319166001600160a01b0383169081178255604051929350917f8be0079c531659141344cd1fd0a4f28419497f9722a3daafe3b4186f6b6457e0908290a3506001600160a01b03841615801590620000b057506001600160a01b03831615155b8015620000c557506001600160a01b03851615155b8015620000da57506001600160a01b03811615155b620001025760405162461bcd60e51b8152600401620000f99062000433565b60405180910390fd5b6200010d8562000162565b5062000119846200027d565b50600d80546001600160a01b03199081166001600160a01b03948516179091556001805482169484169490941790935560048054909316911617905550620006229050565b3390565b60006200016e6200015e565b6001600160a01b03166200018162000397565b6001600160a01b031614620001aa5760405162461bcd60e51b8152600401620000f9906200050e565b6001600160a01b038216620001d35760405162461bcd60e51b8152600401620000f990620005a0565b620001de82620003a6565b620001fd5760405162461bcd60e51b8152600401620000f990620004d7565b600160056000828254620002129190620005fd565b90915550506040805180820182526001600160a01b0380851682526001602080840191825260058054600090815260069092529490209251835491511515600160a01b0260ff60a01b19919093166001600160a01b031990921691909117161790555490505b919050565b6000620002896200015e565b6001600160a01b03166200029c62000397565b6001600160a01b031614620002c55760405162461bcd60e51b8152600401620000f9906200050e565b6001600160a01b038216620002ee5760405162461bcd60e51b8152600401620000f99062000543565b620002f982620003a6565b620003185760405162461bcd60e51b8152600401620000f990620004a0565b6001600c60008282546200032d9190620005fd565b90915550506040805180820182526001600160a01b03808516825260016020808401918252600c8054600090815260079092529490209251835491511515600160a01b0260ff60a01b19919093166001600160a01b03199092169190911716179055549050919050565b6000546001600160a01b031690565b3b151590565b80516001600160a01b03811681146200027857600080fd5b600080600080600060a08688031215620003dc578081fd5b620003e786620003ac565b9450620003f760208701620003ac565b93506200040760408701620003ac565b92506200041760608701620003ac565b91506200042760808701620003ac565b90509295509295909350565b60208082526047908201527f4552433732314454466163746f72793a20496e76616c69642074656d706c617460408201527f6520746f6b656e2f636f6d6d756e6974792066656520636f6c6c6563746f72206060820152666164647265737360c81b608082015260a00190565b6020808252601a908201527f4552433230466163746f72793a204e4f5420434f4e5452414354000000000000604082015260600190565b6020808252601b908201527f455243373231466163746f72793a204e4f5420434f4e54524143540000000000604082015260600190565b6020808252818101527f4f776e61626c653a2063616c6c6572206973206e6f7420746865206f776e6572604082015260600190565b60208082526034908201527f4552433230466163746f72793a204552433732312074656d706c61746520616460408201527f6472657373283029204e4f5420414c4c4f574544000000000000000000000000606082015260800190565b60208082526037908201527f4552433732314454466163746f72793a204552433732312074656d706c61746560408201527f2061646472657373283029204e4f5420414c4c4f574544000000000000000000606082015260800190565b600082198211156200061d57634e487b7160e01b81526011600452602481fd5b500190565b6118f080620006326000396000f3fe608060405234801561001057600080fd5b506004361061014d5760003560e01c8063809d8105116100c3578063a33ef2a61161007c578063a33ef2a6146102ab578063bbf8d71f146102be578063c6cf868a146102d1578063e5fc01f0146102d9578063f2fde38b146102e1578063f887ea40146102f45761014d565b8063809d81051461024157806382c44204146102545780638da5cb5b146102755780638f6051af1461027d578063940516991461029057806395c60305146102a35761014d565b80633315efd1116101155780633315efd1146101e55780635c705982146101f8578063715018a61461020057806372f670f01461020857806373ecb3471461021b5780637b20bccf1461022e5761014d565b8063042ab9b3146101525780630ffda8871461017b578063226e76151461019057806326705c3c146101b057806327819e06146101c5575b600080fd5b610165610160366004611161565b6102fc565b6040516101729190611825565b60405180910390f35b61018e610189366004611161565b610379565b005b6101a361019e366004610fdc565b6103d3565b604051610172919061126b565b6101b86103e8565b6040516101729190611847565b6101d86101d336600461101d565b6103ee565b60405161017291906111c1565b6101656101f3366004611161565b6105fa565b6101b861063d565b61018e610643565b6101d8610216366004610fdc565b6106cc565b6101d86102293660046110cd565b6106e7565b6101b861023c366004610fdc565b6109a8565b61018e61024f366004611161565b610ab1565b610267610262366004611161565b610b38565b6040516101729291906111d5565b6101d8610b5f565b6101b861028b366004610fdc565b610b6e565b61026761029e366004611161565b610c77565b6101b8610c9e565b61018e6102b9366004611161565b610ca4565b61018e6102cc366004611161565b610d31565b6101b8610dbe565b6101b8610dc4565b61018e6102ef366004610fdc565b610dca565b6101d8610e8a565b610304610f2d565b6000828152600760209081526040918290208251808401909352546001600160a01b0381168352600160a01b900460ff16151590820152600c54831180159061034c57508215155b6103715760405162461bcd60e51b815260040161036890611317565b60405180910390fd5b90505b919050565b610381610e99565b6001600160a01b0316610392610b5f565b6001600160a01b0316146103b85760405162461bcd60e51b81526004016103689061163e565b6000908152600760205260409020805460ff60a01b19169055565b60096020526000908152604090205460ff1681565b600c5481565b6000600554821115801561040157508115155b61041d5760405162461bcd60e51b815260040161036890611436565b6000828152600660209081526040918290208251808401909352546001600160a01b0381168352600160a01b900460ff1615159082018190526001146104755760405162461bcd60e51b8152600401610368906117d7565b805161048090610e9d565b91506001600160a01b0382166104a85760405162461bcd60e51b815260040161036890611558565b6001600160a01b038083166000818152600860205260409081902080546001600160a01b03191683179055600480549151637db0f56d60e01b81528694637db0f56d936105039333938f938f93169130918f918f91016111f0565b602060405180830381600087803b15801561051d57600080fd5b505af1158015610531573d6000803e3d6000fd5b505050506040513d601f19601f820116820180604052508101906105559190610ffd565b6105715760405162461bcd60e51b815260040161036890611360565b8760405161057f91906111a5565b604051809103902082600001516001600160a01b0316846001600160a01b03167fab79f3a133194dac43d8f36c89aabc54656acb3d2a780060ac9006812e465565336040516105ce91906111c1565b60405180910390a46001600260008282546105e99190611850565b909155509298975050505050505050565b610602610f2d565b506000908152600660209081526040918290208251808401909352546001600160a01b0381168352600160a01b900460ff1615159082015290565b60025490565b61064b610e99565b6001600160a01b031661065c610b5f565b6001600160a01b0316146106825760405162461bcd60e51b81526004016103689061163e565b600080546040516001600160a01b03909116907f8be0079c531659141344cd1fd0a4f28419497f9722a3daafe3b4186f6b6457e0908390a3600080546001600160a01b0319169055565b6008602052600090815260409020546001600160a01b031681565b6000846107065760405162461bcd60e51b8152600401610368906114c8565b600c54841115801561071757508315155b6107335760405162461bcd60e51b815260040161036890611317565b6000848152600760209081526040918290208251808401909352546001600160a01b0381168352600160a01b900460ff16151590820181905260011461078b5760405162461bcd60e51b81526004016103689061150d565b805161079690610e9d565b6001600160a01b0381166000818152600960205260409020805460ff191660011790559092506107d85760405162461bcd60e51b8152600401610368906116c7565b3360008181526008602052604090205483916001600160a01b03909116146108125760405162461bcd60e51b815260040161036890611724565b806001600160a01b0316631ac570898a8a338b600160009054906101000a90046001600160a01b03168b600d60009054906101000a90046001600160a01b03168c6040518963ffffffff1660e01b8152600401610876989796959493929190611276565b602060405180830381600087803b15801561089057600080fd5b505af11580156108a4573d6000803e3d6000fd5b505050506040513d601f19601f820116820180604052508101906108c89190610ffd565b6108e45760405162461bcd60e51b8152600401610368906115ed565b886040516108f291906111a5565b604051908190038120835190916001600160a01b03918216918616907fb51c8cbe199ffe8b0d1d39b62d473569750653cb18b165f77ae423b3900180ad90600090a4336001600160a01b0316836001600160a01b03167f54d11595f5fae5f45b1d7cc667adaf93951cf3757995b2c20dcd7b0fa81e91d08b8b8b60405161097b939291906112e1565b60405180910390a36001600b60008282546109969190611850565b90915550929998505050505050505050565b60006109b2610e99565b6001600160a01b03166109c3610b5f565b6001600160a01b0316146109e95760405162461bcd60e51b81526004016103689061163e565b6001600160a01b038216610a0f5760405162461bcd60e51b815260040161036890611673565b610a1882610f27565b610a345760405162461bcd60e51b8152600401610368906113ff565b6001600c6000828254610a479190611850565b90915550506040805180820182526001600160a01b03808516825260016020808401918252600c8054600090815260079092529490209251835491511515600160a01b0260ff60a01b19919093166001600160a01b03199092169190911716179055549050919050565b610ab9610e99565b6001600160a01b0316610aca610b5f565b6001600160a01b031614610af05760405162461bcd60e51b81526004016103689061163e565b6005548111158015610b0157508015155b610b1d5760405162461bcd60e51b815260040161036890611436565b6000908152600660205260409020805460ff60a01b19169055565b6006602052600090815260409020546001600160a01b03811690600160a01b900460ff1682565b6000546001600160a01b031690565b6000610b78610e99565b6001600160a01b0316610b89610b5f565b6001600160a01b031614610baf5760405162461bcd60e51b81526004016103689061163e565b6001600160a01b038216610bd55760405162461bcd60e51b81526004016103689061177a565b610bde82610f27565b610bfa5760405162461bcd60e51b8152600401610368906115b6565b600160056000828254610c0d9190611850565b90915550506040805180820182526001600160a01b0380851682526001602080840191825260058054600090815260069092529490209251835491511515600160a01b0260ff60a01b19919093166001600160a01b03199092169190911716179055549050919050565b6007602052600090815260409020546001600160a01b03811690600160a01b900460ff1682565b600c5490565b610cac610e99565b6001600160a01b0316610cbd610b5f565b6001600160a01b031614610ce35760405162461bcd60e51b81526004016103689061163e565b6005548111158015610cf457508015155b610d105760405162461bcd60e51b815260040161036890611436565b6000908152600660205260409020805460ff60a01b1916600160a01b179055565b610d39610e99565b6001600160a01b0316610d4a610b5f565b6001600160a01b031614610d705760405162461bcd60e51b81526004016103689061163e565b600c548111158015610d8157508015155b610d9d5760405162461bcd60e51b8152600401610368906113b4565b6000908152600760205260409020805460ff60a01b1916600160a01b179055565b600b5490565b60055490565b610dd2610e99565b6001600160a01b0316610de3610b5f565b6001600160a01b031614610e095760405162461bcd60e51b81526004016103689061163e565b6001600160a01b038116610e2f5760405162461bcd60e51b815260040161036890611482565b600080546040516001600160a01b03808516939216917f8be0079c531659141344cd1fd0a4f28419497f9722a3daafe3b4186f6b6457e091a3600080546001600160a01b0319166001600160a01b0392909216919091179055565b600d546001600160a01b031681565b3390565b6000808260601b9050604051733d602d80600a3d3981f3363d3d373d3d3d363d7360601b81528160148201526e5af43d82803e903d91602b57fd5bf360881b60288201526037816000f09250507f117c72e6c25f0a072e36e148df71468ce2f3dbe7defec5b2c257a6e3eb65278c82604051610f1991906111c1565b60405180910390a150919050565b3b151590565b604080518082019091526000808252602082015290565b80356001600160a01b038116811461037457600080fd5b600082601f830112610f6b578081fd5b813567ffffffffffffffff80821115610f8657610f866118a4565b604051601f8301601f191681016020018281118282101715610faa57610faa6118a4565b604052828152848301602001861015610fc1578384fd5b82602086016020830137918201602001929092529392505050565b600060208284031215610fed578081fd5b610ff682610f44565b9392505050565b60006020828403121561100e578081fd5b81518015158114610ff6578182fd5b600080600080600060a08688031215611034578081fd5b853567ffffffffffffffff8082111561104b578283fd5b61105789838a01610f5b565b9650602088013591508082111561106c578283fd5b61107889838a01610f5b565b9550604088013591508082111561108d578283fd5b61109989838a01610f5b565b945060608801359150808211156110ae578283fd5b506110bb88828901610f5b565b95989497509295608001359392505050565b60008060008060008060c087890312156110e5578081fd5b863567ffffffffffffffff808211156110fc578283fd5b6111088a838b01610f5b565b9750602089013591508082111561111d578283fd5b5061112a89828a01610f5b565b955050604087013593506060870135925061114760808801610f44565b915061115560a08801610f44565b90509295509295509295565b600060208284031215611172578081fd5b5035919050565b60008151808452611191816020860160208601611874565b601f01601f19169290920160200192915050565b600082516111b7818460208701611874565b9190910192915050565b6001600160a01b0391909116815260200190565b6001600160a01b039290921682521515602082015260400190565b600060018060a01b03808a16835260e0602084015261121260e084018a611179565b8381036040850152611224818a611179565b90508188166060850152818716608085015283810360a08501526112488187611179565b91505082810360c084015261125d8185611179565b9a9950505050505050505050565b901515815260200190565b600061010080835261128a8184018c611179565b9050828103602084015261129e818b611179565b6001600160a01b03998a16604085015260608401989098525050938616608085015291851660a0840152841660c083015290921660e09092019190915292915050565b6000606082526112f46060830186611179565b82810360208401526113068186611179565b915050826040830152949350505050565b60208082526029908201527f4552433230466163746f72793a2054656d706c61746520696e64657820646f656040820152681cdb9d08195e1a5cdd60ba1b606082015260800190565b60208082526034908201527f4552433732314454466163746f72793a20556e61626c6520746f20696e697469604082015273616c697a6520746f6b656e20696e7374616e636560601b606082015260800190565b6020808252602b908201527f45524332304454466163746f72793a2054656d706c61746520696e646578206460408201526a1bd95cdb9d08195e1a5cdd60aa1b606082015260800190565b6020808252601a908201527f4552433230466163746f72793a204e4f5420434f4e5452414354000000000000604082015260600190565b6020808252602c908201527f4552433732314454466163746f72793a2054656d706c61746520696e6465782060408201526b191bd95cdb9d08195e1a5cdd60a21b606082015260800190565b60208082526026908201527f4f776e61626c653a206e6577206f776e657220697320746865207a65726f206160408201526564647265737360d01b606082015260800190565b60208082526025908201527f4552433230466163746f72793a207a65726f20636170206973206e6f7420616c6040820152641b1bddd95960da1b606082015260800190565b6020808252602b908201527f4552433230466163746f72793a20455243373231546f6b656e2054656d706c6160408201526a1d1948191a5cd8589b195960aa1b606082015260800190565b602080825260409082018190527f4552433732314454466163746f72793a204661696c656420746f20706572666f908201527f726d206d696e696d616c206465706c6f79206f662061206e657720746f6b656e606082015260800190565b6020808252601b908201527f455243373231466163746f72793a204e4f5420434f4e54524143540000000000604082015260600190565b60208082526031908201527f4552433230466163746f72793a20556e61626c6520746f20696e697469616c696040820152707a6520746f6b656e20696e7374616e636560781b606082015260800190565b6020808252818101527f4f776e61626c653a2063616c6c6572206973206e6f7420746865206f776e6572604082015260600190565b60208082526034908201527f4552433230466163746f72793a204552433732312074656d706c617465206164604082015273191c995cdcca0c0a481393d50810531313d5d15160621b606082015260800190565b6020808252603e908201527f455243373231466163746f72793a204661696c656420746f20706572666f726d60408201527f206d696e696d616c206465706c6f79206f662061206e657720746f6b656e0000606082015260800190565b60208082526036908201527f455243373231466163746f72793a204f4e4c592045524337323120494e5354416040820152754e43452046524f4d20455243373231464143544f525960501b606082015260800190565b60208082526037908201527f4552433732314454466163746f72793a204552433732312074656d706c61746560408201527f2061646472657373283029204e4f5420414c4c4f574544000000000000000000606082015260800190565b6020808252602e908201527f4552433732314454466163746f72793a20455243373231546f6b656e2054656d60408201526d1c1b185d1948191a5cd8589b195960921b606082015260800190565b81516001600160a01b0316815260209182015115159181019190915260400190565b90815260200190565b6000821982111561186f57634e487b7160e01b81526011600452602481fd5b500190565b60005b8381101561188f578181015183820152602001611877565b8381111561189e576000848401525b50505050565b634e487b7160e01b600052604160045260246000fdfea2646970667358221220c6b1eafbb27b430057eb80a51dd0d7d327b5097cf9b371171596e0aae081999164736f6c63430008000033",
  "linkReferences": {},
  "deployedLinkReferences": {}
}