{
  "_format": "hh-sol-artifact-1",
  "contractName": "ERC721Factory",
  "sourceName": "contracts/ERC721Factory.sol",
  "abi": [
    {
      "inputs": [
        {
          "internalType": "address",
          "name": "_template721",
          "type": "address"
        },
        {
          "internalType": "address",
          "name": "_template",
          "type": "address"
        },
        {
          "internalType": "address",
          "name": "_collector",
          "type": "address"
        },
        {
          "internalType": "address",
          "name": "_router",
          "type": "address"
        }
      ],
      "stateMutability": "nonpayable",
      "type": "constructor"
    },
    {
      "anonymous": false,
      "inputs": [
        {
          "indexed": true,
          "internalType": "address",
          "name": "datatokenAddress",
          "type": "address"
        },
        {
          "indexed": true,
          "internalType": "address",
          "name": "owner",
          "type": "address"
        },
        {
          "indexed": false,
          "internalType": "uint256",
          "name": "maxTokens",
          "type": "uint256"
        },
        {
          "indexed": false,
          "internalType": "uint256",
          "name": "maxBalance",
          "type": "uint256"
        },
        {
          "indexed": false,
          "internalType": "address",
          "name": "allowedSwapper",
          "type": "address"
        }
      ],
      "name": "DispenserCreated",
      "type": "event"
    },
    {
      "anonymous": false,
      "inputs": [
        {
          "indexed": false,
          "internalType": "address",
          "name": "instance",
          "type": "address"
        }
      ],
      "name": "InstanceDeployed",
      "type": "event"
    },
    {
      "anonymous": false,
      "inputs": [
        {
          "indexed": false,
          "internalType": "address",
          "name": "newTokenAddress",
          "type": "address"
        },
        {
          "indexed": true,
          "internalType": "address",
          "name": "templateAddress",
          "type": "address"
        },
        {
          "indexed": false,
          "internalType": "string",
          "name": "tokenName",
          "type": "string"
        },
        {
          "indexed": true,
          "internalType": "address",
          "name": "admin",
          "type": "address"
        },
        {
          "indexed": false,
          "internalType": "string",
          "name": "symbol",
          "type": "string"
        },
        {
          "indexed": false,
          "internalType": "string",
          "name": "tokenURI",
          "type": "string"
        },
        {
          "indexed": false,
          "internalType": "bool",
          "name": "transferable",
          "type": "bool"
        },
        {
          "indexed": true,
          "internalType": "address",
          "name": "creator",
          "type": "address"
        }
      ],
      "name": "NFTCreated",
      "type": "event"
    },
    {
      "anonymous": false,
      "inputs": [
        {
          "indexed": false,
          "internalType": "address",
          "name": "dispenserContract",
          "type": "address"
        }
      ],
      "name": "NewDispenser",
      "type": "event"
    },
    {
      "anonymous": false,
      "inputs": [
        {
          "indexed": false,
          "internalType": "bytes32",
          "name": "exchangeId",
          "type": "bytes32"
        },
        {
          "indexed": true,
          "internalType": "address",
          "name": "owner",
          "type": "address"
        },
        {
          "indexed": false,
          "internalType": "address",
          "name": "exchangeContract",
          "type": "address"
        },
        {
          "indexed": true,
          "internalType": "address",
          "name": "baseToken",
          "type": "address"
        }
      ],
      "name": "NewFixedRate",
      "type": "event"
    },
    {
      "anonymous": false,
      "inputs": [
        {
          "indexed": false,
          "internalType": "address",
          "name": "poolAddress",
          "type": "address"
        },
        {
          "indexed": false,
          "internalType": "address",
          "name": "ssContract",
          "type": "address"
        },
        {
          "indexed": false,
          "internalType": "address",
          "name": "baseTokenAddress",
          "type": "address"
        }
      ],
      "name": "NewPool",
      "type": "event"
    },
    {
      "anonymous": false,
      "inputs": [
        {
          "indexed": true,
          "internalType": "address",
          "name": "previousOwner",
          "type": "address"
        },
        {
          "indexed": true,
          "internalType": "address",
          "name": "newOwner",
          "type": "address"
        }
      ],
      "name": "OwnershipTransferred",
      "type": "event"
    },
    {
      "anonymous": false,
      "inputs": [
        {
          "indexed": true,
          "internalType": "address",
          "name": "_templateAddress",
          "type": "address"
        },
        {
          "indexed": true,
          "internalType": "uint256",
          "name": "nftTemplateCount",
          "type": "uint256"
        }
      ],
      "name": "Template20Added",
      "type": "event"
    },
    {
      "anonymous": false,
      "inputs": [
        {
          "indexed": true,
          "internalType": "address",
          "name": "_templateAddress",
          "type": "address"
        },
        {
          "indexed": true,
          "internalType": "uint256",
          "name": "nftTemplateCount",
          "type": "uint256"
        }
      ],
      "name": "Template721Added",
      "type": "event"
    },
    {
      "anonymous": false,
      "inputs": [
        {
          "indexed": true,
          "internalType": "address",
          "name": "newTokenAddress",
          "type": "address"
        },
        {
          "indexed": true,
          "internalType": "address",
          "name": "templateAddress",
          "type": "address"
        },
        {
          "indexed": false,
          "internalType": "string",
          "name": "name",
          "type": "string"
        },
        {
          "indexed": false,
          "internalType": "string",
          "name": "symbol",
          "type": "string"
        },
        {
          "indexed": false,
          "internalType": "uint256",
          "name": "cap",
          "type": "uint256"
        },
        {
          "indexed": false,
          "internalType": "address",
          "name": "creator",
          "type": "address"
        }
      ],
      "name": "TokenCreated",
      "type": "event"
    },
    {
      "anonymous": false,
      "inputs": [
        {
          "indexed": true,
          "internalType": "address",
          "name": "from",
          "type": "address"
        },
        {
          "indexed": true,
          "internalType": "address",
          "name": "to",
          "type": "address"
        },
        {
          "indexed": true,
          "internalType": "uint256",
          "name": "tokenId",
          "type": "uint256"
        }
      ],
      "name": "Transfer",
      "type": "event"
    },
    {
      "inputs": [
        {
          "internalType": "address",
          "name": "_templateAddress",
          "type": "address"
        }
      ],
      "name": "add721TokenTemplate",
      "outputs": [
        {
          "internalType": "uint256",
          "name": "",
          "type": "uint256"
        }
      ],
      "stateMutability": "nonpayable",
      "type": "function"
    },
    {
      "inputs": [
        {
          "internalType": "address",
          "name": "_templateAddress",
          "type": "address"
        }
      ],
      "name": "addTokenTemplate",
      "outputs": [
        {
          "internalType": "uint256",
          "name": "",
          "type": "uint256"
        }
      ],
      "stateMutability": "nonpayable",
      "type": "function"
    },
    {
      "inputs": [
        {
          "components": [
            {
              "internalType": "string",
              "name": "name",
              "type": "string"
            },
            {
              "internalType": "string",
              "name": "symbol",
              "type": "string"
            },
            {
              "internalType": "uint256",
              "name": "templateIndex",
              "type": "uint256"
            },
            {
              "internalType": "string",
              "name": "tokenURI",
              "type": "string"
            },
            {
              "internalType": "bool",
              "name": "transferable",
              "type": "bool"
            },
            {
              "internalType": "address",
              "name": "owner",
              "type": "address"
            }
          ],
          "internalType": "struct IFactory.NftCreateData",
          "name": "_NftCreateData",
          "type": "tuple"
        },
        {
          "components": [
            {
              "internalType": "uint256",
              "name": "templateIndex",
              "type": "uint256"
            },
            {
              "internalType": "string[]",
              "name": "strings",
              "type": "string[]"
            },
            {
              "internalType": "address[]",
              "name": "addresses",
              "type": "address[]"
            },
            {
              "internalType": "uint256[]",
              "name": "uints",
              "type": "uint256[]"
            },
            {
              "internalType": "bytes[]",
              "name": "bytess",
              "type": "bytes[]"
            }
          ],
          "internalType": "struct IFactory.ErcCreateData",
          "name": "_ErcCreateData",
          "type": "tuple"
        }
      ],
      "name": "createNftWithErc20",
      "outputs": [
        {
          "internalType": "address",
          "name": "erc721Address",
          "type": "address"
        },
        {
          "internalType": "address",
          "name": "erc20Address",
          "type": "address"
        }
      ],
      "stateMutability": "nonpayable",
      "type": "function"
    },
    {
      "inputs": [
        {
          "components": [
            {
              "internalType": "string",
              "name": "name",
              "type": "string"
            },
            {
              "internalType": "string",
              "name": "symbol",
              "type": "string"
            },
            {
              "internalType": "uint256",
              "name": "templateIndex",
              "type": "uint256"
            },
            {
              "internalType": "string",
              "name": "tokenURI",
              "type": "string"
            },
            {
              "internalType": "bool",
              "name": "transferable",
              "type": "bool"
            },
            {
              "internalType": "address",
              "name": "owner",
              "type": "address"
            }
          ],
          "internalType": "struct IFactory.NftCreateData",
          "name": "_NftCreateData",
          "type": "tuple"
        },
        {
          "components": [
            {
              "internalType": "uint256",
              "name": "templateIndex",
              "type": "uint256"
            },
            {
              "internalType": "string[]",
              "name": "strings",
              "type": "string[]"
            },
            {
              "internalType": "address[]",
              "name": "addresses",
              "type": "address[]"
            },
            {
              "internalType": "uint256[]",
              "name": "uints",
              "type": "uint256[]"
            },
            {
              "internalType": "bytes[]",
              "name": "bytess",
              "type": "bytes[]"
            }
          ],
          "internalType": "struct IFactory.ErcCreateData",
          "name": "_ErcCreateData",
          "type": "tuple"
        },
        {
          "components": [
            {
              "internalType": "address",
              "name": "dispenserAddress",
              "type": "address"
            },
            {
              "internalType": "uint256",
              "name": "maxTokens",
              "type": "uint256"
            },
            {
              "internalType": "uint256",
              "name": "maxBalance",
              "type": "uint256"
            },
            {
              "internalType": "bool",
              "name": "withMint",
              "type": "bool"
            },
            {
              "internalType": "address",
              "name": "allowedSwapper",
              "type": "address"
            }
          ],
          "internalType": "struct IFactory.DispenserData",
          "name": "_DispenserData",
          "type": "tuple"
        }
      ],
      "name": "createNftWithErc20WithDispenser",
      "outputs": [
        {
          "internalType": "address",
          "name": "erc721Address",
          "type": "address"
        },
        {
          "internalType": "address",
          "name": "erc20Address",
          "type": "address"
        }
      ],
      "stateMutability": "nonpayable",
      "type": "function"
    },
    {
      "inputs": [
        {
          "components": [
            {
              "internalType": "string",
              "name": "name",
              "type": "string"
            },
            {
              "internalType": "string",
              "name": "symbol",
              "type": "string"
            },
            {
              "internalType": "uint256",
              "name": "templateIndex",
              "type": "uint256"
            },
            {
              "internalType": "string",
              "name": "tokenURI",
              "type": "string"
            },
            {
              "internalType": "bool",
              "name": "transferable",
              "type": "bool"
            },
            {
              "internalType": "address",
              "name": "owner",
              "type": "address"
            }
          ],
          "internalType": "struct IFactory.NftCreateData",
          "name": "_NftCreateData",
          "type": "tuple"
        },
        {
          "components": [
            {
              "internalType": "uint256",
              "name": "templateIndex",
              "type": "uint256"
            },
            {
              "internalType": "string[]",
              "name": "strings",
              "type": "string[]"
            },
            {
              "internalType": "address[]",
              "name": "addresses",
              "type": "address[]"
            },
            {
              "internalType": "uint256[]",
              "name": "uints",
              "type": "uint256[]"
            },
            {
              "internalType": "bytes[]",
              "name": "bytess",
              "type": "bytes[]"
            }
          ],
          "internalType": "struct IFactory.ErcCreateData",
          "name": "_ErcCreateData",
          "type": "tuple"
        },
        {
          "components": [
            {
              "internalType": "address",
              "name": "fixedPriceAddress",
              "type": "address"
            },
            {
              "internalType": "address[]",
              "name": "addresses",
              "type": "address[]"
            },
            {
              "internalType": "uint256[]",
              "name": "uints",
              "type": "uint256[]"
            }
          ],
          "internalType": "struct IFactory.FixedData",
          "name": "_FixedData",
          "type": "tuple"
        }
      ],
      "name": "createNftWithErc20WithFixedRate",
      "outputs": [
        {
          "internalType": "address",
          "name": "erc721Address",
          "type": "address"
        },
        {
          "internalType": "address",
          "name": "erc20Address",
          "type": "address"
        },
        {
          "internalType": "bytes32",
          "name": "exchangeId",
          "type": "bytes32"
        }
      ],
      "stateMutability": "nonpayable",
      "type": "function"
    },
    {
      "inputs": [
        {
          "components": [
            {
              "internalType": "string",
              "name": "name",
              "type": "string"
            },
            {
              "internalType": "string",
              "name": "symbol",
              "type": "string"
            },
            {
              "internalType": "uint256",
              "name": "templateIndex",
              "type": "uint256"
            },
            {
              "internalType": "string",
              "name": "tokenURI",
              "type": "string"
            },
            {
              "internalType": "bool",
              "name": "transferable",
              "type": "bool"
            },
            {
              "internalType": "address",
              "name": "owner",
              "type": "address"
            }
          ],
          "internalType": "struct IFactory.NftCreateData",
          "name": "_NftCreateData",
          "type": "tuple"
        },
        {
          "components": [
            {
              "internalType": "uint256",
              "name": "templateIndex",
              "type": "uint256"
            },
            {
              "internalType": "string[]",
              "name": "strings",
              "type": "string[]"
            },
            {
              "internalType": "address[]",
              "name": "addresses",
              "type": "address[]"
            },
            {
              "internalType": "uint256[]",
              "name": "uints",
              "type": "uint256[]"
            },
            {
              "internalType": "bytes[]",
              "name": "bytess",
              "type": "bytes[]"
            }
          ],
          "internalType": "struct IFactory.ErcCreateData",
          "name": "_ErcCreateData",
          "type": "tuple"
        },
        {
          "components": [
            {
              "internalType": "uint256[]",
              "name": "ssParams",
              "type": "uint256[]"
            },
            {
              "internalType": "uint256[]",
              "name": "swapFees",
              "type": "uint256[]"
            },
            {
              "internalType": "address[]",
              "name": "addresses",
              "type": "address[]"
            }
          ],
          "internalType": "struct IFactory.PoolData",
          "name": "_PoolData",
          "type": "tuple"
        }
      ],
      "name": "createNftWithErc20WithPool",
      "outputs": [
        {
          "internalType": "address",
          "name": "erc721Address",
          "type": "address"
        },
        {
          "internalType": "address",
          "name": "erc20Address",
          "type": "address"
        },
        {
          "internalType": "address",
          "name": "poolAddress",
          "type": "address"
        }
      ],
      "stateMutability": "nonpayable",
      "type": "function"
    },
    {
      "inputs": [
        {
          "components": [
            {
              "internalType": "string",
              "name": "name",
              "type": "string"
            },
            {
              "internalType": "string",
              "name": "symbol",
              "type": "string"
            },
            {
              "internalType": "uint256",
              "name": "templateIndex",
              "type": "uint256"
            },
            {
              "internalType": "string",
              "name": "tokenURI",
              "type": "string"
            },
            {
              "internalType": "bool",
              "name": "transferable",
              "type": "bool"
            },
            {
              "internalType": "address",
              "name": "owner",
              "type": "address"
            }
          ],
          "internalType": "struct IFactory.NftCreateData",
          "name": "_NftCreateData",
          "type": "tuple"
        },
        {
          "components": [
            {
              "internalType": "uint8",
              "name": "_metaDataState",
              "type": "uint8"
            },
            {
              "internalType": "string",
              "name": "_metaDataDecryptorUrl",
              "type": "string"
            },
            {
              "internalType": "string",
              "name": "_metaDataDecryptorAddress",
              "type": "string"
            },
            {
              "internalType": "bytes",
              "name": "flags",
              "type": "bytes"
            },
            {
              "internalType": "bytes",
              "name": "data",
              "type": "bytes"
            },
            {
              "internalType": "bytes32",
              "name": "_metaDataHash",
              "type": "bytes32"
            },
            {
              "components": [
                {
                  "internalType": "address",
                  "name": "validatorAddress",
                  "type": "address"
                },
                {
                  "internalType": "uint8",
                  "name": "v",
                  "type": "uint8"
                },
                {
                  "internalType": "bytes32",
                  "name": "r",
                  "type": "bytes32"
                },
                {
                  "internalType": "bytes32",
                  "name": "s",
                  "type": "bytes32"
                }
              ],
              "internalType": "struct IERC721Template.metaDataProof[]",
              "name": "_metadataProofs",
              "type": "tuple[]"
            }
          ],
          "internalType": "struct ERC721Factory.MetaData",
          "name": "_MetaData",
          "type": "tuple"
        }
      ],
      "name": "createNftWithMetaData",
      "outputs": [
        {
          "internalType": "address",
          "name": "erc721Address",
          "type": "address"
        }
      ],
      "stateMutability": "nonpayable",
      "type": "function"
    },
    {
      "inputs": [
        {
          "internalType": "uint256",
          "name": "_templateIndex",
          "type": "uint256"
        },
        {
          "internalType": "string[]",
          "name": "strings",
          "type": "string[]"
        },
        {
          "internalType": "address[]",
          "name": "addresses",
          "type": "address[]"
        },
        {
          "internalType": "uint256[]",
          "name": "uints",
          "type": "uint256[]"
        },
        {
          "internalType": "bytes[]",
          "name": "bytess",
          "type": "bytes[]"
        }
      ],
      "name": "createToken",
      "outputs": [
        {
          "internalType": "address",
          "name": "token",
          "type": "address"
        }
      ],
      "stateMutability": "nonpayable",
      "type": "function"
    },
    {
      "inputs": [
        {
          "internalType": "string",
          "name": "name",
          "type": "string"
        },
        {
          "internalType": "string",
          "name": "symbol",
          "type": "string"
        },
        {
          "internalType": "uint256",
          "name": "_templateIndex",
          "type": "uint256"
        },
        {
          "internalType": "address",
          "name": "additionalERC20Deployer",
          "type": "address"
        },
        {
          "internalType": "address",
          "name": "additionalMetaDataUpdater",
          "type": "address"
        },
        {
          "internalType": "string",
          "name": "tokenURI",
          "type": "string"
        },
        {
          "internalType": "bool",
          "name": "transferable",
          "type": "bool"
        },
        {
          "internalType": "address",
          "name": "owner",
          "type": "address"
        }
      ],
      "name": "deployERC721Contract",
      "outputs": [
        {
          "internalType": "address",
          "name": "token",
          "type": "address"
        }
      ],
      "stateMutability": "nonpayable",
      "type": "function"
    },
    {
      "inputs": [
        {
          "internalType": "uint256",
          "name": "_index",
          "type": "uint256"
        }
      ],
      "name": "disable721TokenTemplate",
      "outputs": [],
      "stateMutability": "nonpayable",
      "type": "function"
    },
    {
      "inputs": [
        {
          "internalType": "uint256",
          "name": "_index",
          "type": "uint256"
        }
      ],
      "name": "disableTokenTemplate",
      "outputs": [],
      "stateMutability": "nonpayable",
      "type": "function"
    },
    {
      "inputs": [
        {
          "internalType": "address",
          "name": "",
          "type": "address"
        }
      ],
      "name": "erc20List",
      "outputs": [
        {
          "internalType": "bool",
          "name": "",
          "type": "bool"
        }
      ],
      "stateMutability": "view",
      "type": "function"
    },
    {
      "inputs": [
        {
          "internalType": "address",
          "name": "",
          "type": "address"
        }
      ],
      "name": "erc721List",
      "outputs": [
        {
          "internalType": "address",
          "name": "",
          "type": "address"
        }
      ],
      "stateMutability": "view",
      "type": "function"
    },
    {
      "inputs": [],
      "name": "getCurrentNFTCount",
      "outputs": [
        {
          "internalType": "uint256",
          "name": "",
          "type": "uint256"
        }
      ],
      "stateMutability": "view",
      "type": "function"
    },
    {
      "inputs": [],
      "name": "getCurrentNFTTemplateCount",
      "outputs": [
        {
          "internalType": "uint256",
          "name": "",
          "type": "uint256"
        }
      ],
      "stateMutability": "view",
      "type": "function"
    },
    {
      "inputs": [],
      "name": "getCurrentTemplateCount",
      "outputs": [
        {
          "internalType": "uint256",
          "name": "",
          "type": "uint256"
        }
      ],
      "stateMutability": "view",
      "type": "function"
    },
    {
      "inputs": [],
      "name": "getCurrentTokenCount",
      "outputs": [
        {
          "internalType": "uint256",
          "name": "",
          "type": "uint256"
        }
      ],
      "stateMutability": "view",
      "type": "function"
    },
    {
      "inputs": [
        {
          "internalType": "uint256",
          "name": "_index",
          "type": "uint256"
        }
      ],
      "name": "getNFTTemplate",
      "outputs": [
        {
          "components": [
            {
              "internalType": "address",
              "name": "templateAddress",
              "type": "address"
            },
            {
              "internalType": "bool",
              "name": "isActive",
              "type": "bool"
            }
          ],
          "internalType": "struct ERC721Factory.Template",
          "name": "",
          "type": "tuple"
        }
      ],
      "stateMutability": "view",
      "type": "function"
    },
    {
      "inputs": [
        {
          "internalType": "uint256",
          "name": "_index",
          "type": "uint256"
        }
      ],
      "name": "getTokenTemplate",
      "outputs": [
        {
          "components": [
            {
              "internalType": "address",
              "name": "templateAddress",
              "type": "address"
            },
            {
              "internalType": "bool",
              "name": "isActive",
              "type": "bool"
            }
          ],
          "internalType": "struct ERC721Factory.Template",
          "name": "",
          "type": "tuple"
        }
      ],
      "stateMutability": "view",
      "type": "function"
    },
    {
      "inputs": [
        {
          "internalType": "uint256",
          "name": "",
          "type": "uint256"
        }
      ],
      "name": "nftTemplateList",
      "outputs": [
        {
          "internalType": "address",
          "name": "templateAddress",
          "type": "address"
        },
        {
          "internalType": "bool",
          "name": "isActive",
          "type": "bool"
        }
      ],
      "stateMutability": "view",
      "type": "function"
    },
    {
      "inputs": [],
      "name": "owner",
      "outputs": [
        {
          "internalType": "address",
          "name": "",
          "type": "address"
        }
      ],
      "stateMutability": "view",
      "type": "function"
    },
    {
      "inputs": [
        {
          "internalType": "uint256",
          "name": "_index",
          "type": "uint256"
        }
      ],
      "name": "reactivate721TokenTemplate",
      "outputs": [],
      "stateMutability": "nonpayable",
      "type": "function"
    },
    {
      "inputs": [
        {
          "internalType": "uint256",
          "name": "_index",
          "type": "uint256"
        }
      ],
      "name": "reactivateTokenTemplate",
      "outputs": [],
      "stateMutability": "nonpayable",
      "type": "function"
    },
    {
      "inputs": [],
      "name": "renounceOwnership",
      "outputs": [],
      "stateMutability": "nonpayable",
      "type": "function"
    },
    {
      "inputs": [
        {
          "components": [
            {
              "internalType": "address",
              "name": "tokenAddress",
              "type": "address"
            },
            {
              "internalType": "bytes32",
              "name": "orderTxId",
              "type": "bytes32"
            },
            {
              "components": [
                {
                  "internalType": "address",
                  "name": "providerFeeAddress",
                  "type": "address"
                },
                {
                  "internalType": "address",
                  "name": "providerFeeToken",
                  "type": "address"
                },
                {
                  "internalType": "uint256",
                  "name": "providerFeeAmount",
                  "type": "uint256"
                },
                {
                  "internalType": "uint8",
                  "name": "v",
                  "type": "uint8"
                },
                {
                  "internalType": "bytes32",
                  "name": "r",
                  "type": "bytes32"
                },
                {
                  "internalType": "bytes32",
                  "name": "s",
                  "type": "bytes32"
                },
                {
                  "internalType": "uint256",
                  "name": "validUntil",
                  "type": "uint256"
                },
                {
                  "internalType": "bytes",
                  "name": "providerData",
                  "type": "bytes"
                }
              ],
              "internalType": "struct IERC20Template.providerFee",
              "name": "_providerFee",
              "type": "tuple"
            }
          ],
          "internalType": "struct ERC721Factory.reuseTokenOrder[]",
          "name": "orders",
          "type": "tuple[]"
        }
      ],
      "name": "reuseMultipleTokenOrder",
      "outputs": [],
      "stateMutability": "nonpayable",
      "type": "function"
    },
    {
      "inputs": [],
      "name": "router",
      "outputs": [
        {
          "internalType": "address",
          "name": "",
          "type": "address"
        }
      ],
      "stateMutability": "view",
      "type": "function"
    },
    {
      "inputs": [
        {
          "components": [
            {
              "internalType": "address",
              "name": "tokenAddress",
              "type": "address"
            },
            {
              "internalType": "address",
              "name": "consumer",
              "type": "address"
            },
            {
              "internalType": "uint256",
              "name": "serviceIndex",
              "type": "uint256"
            },
            {
              "components": [
                {
                  "internalType": "address",
                  "name": "providerFeeAddress",
                  "type": "address"
                },
                {
                  "internalType": "address",
                  "name": "providerFeeToken",
                  "type": "address"
                },
                {
                  "internalType": "uint256",
                  "name": "providerFeeAmount",
                  "type": "uint256"
                },
                {
                  "internalType": "uint8",
                  "name": "v",
                  "type": "uint8"
                },
                {
                  "internalType": "bytes32",
                  "name": "r",
                  "type": "bytes32"
                },
                {
                  "internalType": "bytes32",
                  "name": "s",
                  "type": "bytes32"
                },
                {
                  "internalType": "uint256",
                  "name": "validUntil",
                  "type": "uint256"
                },
                {
                  "internalType": "bytes",
                  "name": "providerData",
                  "type": "bytes"
                }
              ],
              "internalType": "struct IERC20Template.providerFee",
              "name": "_providerFee",
              "type": "tuple"
            },
            {
              "components": [
                {
                  "internalType": "address",
                  "name": "consumeMarketFeeAddress",
                  "type": "address"
                },
                {
                  "internalType": "address",
                  "name": "consumeMarketFeeToken",
                  "type": "address"
                },
                {
                  "internalType": "uint256",
                  "name": "consumeMarketFeeAmount",
                  "type": "uint256"
                }
              ],
              "internalType": "struct IERC20Template.consumeMarketFee",
              "name": "_consumeMarketFee",
              "type": "tuple"
            }
          ],
          "internalType": "struct ERC721Factory.tokenOrder[]",
          "name": "orders",
          "type": "tuple[]"
        }
      ],
      "name": "startMultipleTokenOrder",
      "outputs": [],
      "stateMutability": "nonpayable",
      "type": "function"
    },
    {
      "inputs": [],
      "name": "templateCount",
      "outputs": [
        {
          "internalType": "uint256",
          "name": "",
          "type": "uint256"
        }
      ],
      "stateMutability": "view",
      "type": "function"
    },
    {
      "inputs": [
        {
          "internalType": "uint256",
          "name": "",
          "type": "uint256"
        }
      ],
      "name": "templateList",
      "outputs": [
        {
          "internalType": "address",
          "name": "templateAddress",
          "type": "address"
        },
        {
          "internalType": "bool",
          "name": "isActive",
          "type": "bool"
        }
      ],
      "stateMutability": "view",
      "type": "function"
    },
    {
      "inputs": [
        {
          "internalType": "address",
          "name": "newOwner",
          "type": "address"
        }
      ],
      "name": "transferOwnership",
      "outputs": [],
      "stateMutability": "nonpayable",
      "type": "function"
    }
  ],
  "bytecode": "0x60806040526000600a553480156200001657600080fd5b5060405162004a3838038062004a388339810160408190526200003991620005ab565b6200004433620001be565b600180556001600160a01b038316158015906200006957506001600160a01b03821615155b80156200007e57506001600160a01b03841615155b620001065760405162461bcd60e51b815260206004820152604760248201527f4552433732314454466163746f72793a20496e76616c69642074656d706c617460448201527f6520746f6b656e2f636f6d6d756e6974792066656520636f6c6c6563746f72206064820152666164647265737360c81b608482015260a4015b60405180910390fd5b6001600160a01b0381166200016e5760405162461bcd60e51b815260206004820152602760248201527f4552433732314454466163746f72793a20496e76616c696420726f75746572206044820152666164647265737360c81b6064820152608401620000fd565b62000179846200020e565b506200018583620003d1565b50600c80546001600160a01b039283166001600160a01b03199182161790915560028054939092169216919091179055506200062f9050565b600080546001600160a01b038381166001600160a01b0319831681178455604051919092169283917f8be0079c531659141344cd1fd0a4f28419497f9722a3daafe3b4186f6b6457e09190a35050565b600080546001600160a01b031633146200025a5760405162461bcd60e51b8152602060048201819052602482015260008051602062004a188339815191526044820152606401620000fd565b6001600160a01b038216620002d85760405162461bcd60e51b815260206004820152603760248201527f4552433732314454466163746f72793a204552433732312074656d706c61746560448201527f2061646472657373283029204e4f5420414c4c4f5745440000000000000000006064820152608401620000fd565b813b620003285760405162461bcd60e51b815260206004820152601b60248201527f455243373231466163746f72793a204e4f5420434f4e545241435400000000006044820152606401620000fd565b6001600560008282546200033d919062000608565b90915550506040805180820182526001600160a01b038085168083526001602080850191825260058054600090815260069092528682208651815494511515600160a01b026001600160a81b03199095169616959095179290921790935554935192939290917fc0167b92c8eb4a2bad2c05e0134f076fba5d3cd54671a3e8edf13d2e61443bd991a350506005545b919050565b600080546001600160a01b031633146200041d5760405162461bcd60e51b8152602060048201819052602482015260008051602062004a188339815191526044820152606401620000fd565b6001600160a01b0382166200049b5760405162461bcd60e51b815260206004820152603460248201527f4552433230466163746f72793a204552433732312074656d706c61746520616460448201527f6472657373283029204e4f5420414c4c4f5745440000000000000000000000006064820152608401620000fd565b813b620004eb5760405162461bcd60e51b815260206004820152601a60248201527f4552433230466163746f72793a204e4f5420434f4e54524143540000000000006044820152606401620000fd565b6001600b600082825462000500919062000608565b90915550506040805180820182526001600160a01b0380851680835260016020808501918252600b8054600090815260079092528682208651815494511515600160a01b026001600160a81b03199095169616959095179290921790935554935192939290917fdcd16da87b60cea6dbd55a83f73b8a4bf9a54655db58ae0f35b82a2373fc150d91a35050600b54919050565b80516001600160a01b0381168114620003cc57600080fd5b60008060008060808587031215620005c257600080fd5b620005cd8562000593565b9350620005dd6020860162000593565b9250620005ed6040860162000593565b9150620005fd6060860162000593565b905092959194509250565b600082198211156200062a57634e487b7160e01b600052601160045260246000fd5b500190565b6143d9806200063f6000396000f3fe608060405234801561001057600080fd5b50600436106101da5760003560e01c806382c4420411610104578063aa897ddc116100a2578063e5fc01f011610071578063e5fc01f01461053b578063f2fde38b14610543578063f86b2bcf14610556578063f887ea401461056957600080fd5b8063aa897ddc146104b4578063bbf8d71f146104e7578063c6cf868a146104fa578063d282aa861461050257600080fd5b806394051699116100de578063940516991461045157806394be0e881461048657806395c6030514610499578063a33ef2a6146104a157600080fd5b806382c44204146103d95780638da5cb5b1461042d5780638f6051af1461043e57600080fd5b80633315efd11161017c578063715018a61161014b578063715018a61461038257806372f670f01461038a5780637b20bccf146103b3578063809d8105146103c657600080fd5b80633315efd1146102cd57806350447fd51461032a578063557fcfb0146103675780635c7059821461037a57600080fd5b80632515422e116101b85780632515422e1461026557806326705c3c1461027857806326f200661461028f5780633147c798146102ba57600080fd5b8063042ab9b3146101df5780630ffda8871461021d578063226e761514610232575b600080fd5b6101f26101ed366004612f3c565b61057c565b6040805182516001600160a01b03168152602092830151151592810192909252015b60405180910390f35b61023061022b366004612f3c565b610603565b005b610255610240366004612f75565b60096020526000908152604090205460ff1681565b6040519015158152602001610214565b61023061027336600461318b565b610648565b610281600b5481565b604051908152602001610214565b6102a261029d3660046132a9565b610915565b6040516001600160a01b039091168152602001610214565b6102a26102c836600461332c565b610b4d565b6101f26102db366004612f3c565b6040805180820190915260008082526020820152506000908152600660209081526040918290208251808401909352546001600160a01b0381168352600160a01b900460ff1615159082015290565b61033d610338366004613424565b610ec6565b604080516001600160a01b0394851681529284166020840152921691810191909152606001610214565b6102a26103753660046135f4565b61126d565b600354610281565b61023061130e565b6102a2610398366004612f75565b6008602052600090815260409020546001600160a01b031681565b6102816103c1366004612f75565b611344565b6102306103d4366004612f3c565b6114d7565b61040e6103e7366004612f3c565b6006602052600090815260409020546001600160a01b03811690600160a01b900460ff1682565b604080516001600160a01b039093168352901515602083015201610214565b6000546001600160a01b03166102a2565b61028161044c366004612f75565b611549565b61040e61045f366004612f3c565b6007602052600090815260409020546001600160a01b03811690600160a01b900460ff1682565b61023061049436600461371c565b6116e4565b600b54610281565b6102306104af366004612f3c565b611c89565b6104c76104c236600461386e565b611d01565b604080516001600160a01b03938416815292909116602083015201610214565b6102306104f5366004612f3c565b611fee565b600a54610281565b610515610510366004613424565b6120aa565b604080516001600160a01b03948516815293909216602084015290820152606001610214565b600554610281565b610230610551366004612f75565b61222d565b6104c76105643660046138e2565b6122c8565b600c546102a2906001600160a01b031681565b60408051808201909152600080825260208201526000828152600760209081526040918290208251808401909352546001600160a01b0381168352600160a01b900460ff16151590820152600b5483118015906105d857508215155b6105fd5760405162461bcd60e51b81526004016105f490613945565b60405180910390fd5b92915050565b6000546001600160a01b0316331461062d5760405162461bcd60e51b81526004016105f49061398e565b6000908152600760205260409020805460ff60a01b19169055565b6002600154141561066b5760405162461bcd60e51b81526004016105f4906139c3565b60026001558051603210156106c25760405162461bcd60e51b815260206004820152601e60248201527f455243373231466163746f72793a20546f6f204d616e79204f7264657273000060448201526064016105f4565b60005b815181101561090d5760008282815181106106e2576106e26139fa565b60200260200101516040015160400151118015610733575060006001600160a01b0316828281518110610717576107176139fa565b602002602001015160400151602001516001600160a01b031614155b8015610773575060006001600160a01b0316828281518110610757576107576139fa565b602002602001015160400151600001516001600160a01b031614155b15610843576107c682828151811061078d5761078d6139fa565b6020026020010151604001516020015133308585815181106107b1576107b16139fa565b602002602001015160400151604001516124f7565b6108438282815181106107db576107db6139fa565b6020026020010151600001518383815181106107f9576107f96139fa565b6020026020010151604001516040015184848151811061081b5761081b6139fa565b602002602001015160400151602001516001600160a01b03166126459092919063ffffffff16565b818181518110610855576108556139fa565b6020026020010151600001516001600160a01b031663361fef49838381518110610881576108816139fa565b60200260200101516020015184848151811061089f5761089f6139fa565b6020026020010151604001516040518363ffffffff1660e01b81526004016108c8929190613adc565b600060405180830381600087803b1580156108e257600080fd5b505af11580156108f6573d6000803e3d6000fd5b50505050808061090590613b0b565b9150506106c5565b505060018055565b60006002600154141561093a5760405162461bcd60e51b81526004016105f4906139c3565b6002600155610a2c61094c8480613b26565b8080601f01602080910402602001604051908101604052809392919081815260200183838082843760009201919091525061098e925050506020860186613b26565b8080601f016020809104026020016040519081016040528093929190818152602001838380828437600092018290525060408a0135935091503090506109d760608a018a613b26565b8080601f016020809104026020016040519081016040528093929190818152602001838380828437600092019190915250610a1c9250505060a08b0160808c01613b73565b6102c860c08c0160a08d01612f75565b90506001600160a01b038116631aa3adf9610a4a6020850185613b90565b610a576020860186613b26565b610a646040880188613b26565b610a7160608a018a613b26565b610a7e60808c018c613b26565b60a08d0135610a9060c08f018f613bab565b6040518d63ffffffff1660e01b8152600401610ab79c9b9a99989796959493929190613c1d565b600060405180830381600087803b158015610ad157600080fd5b505af1158015610ae5573d6000803e3d6000fd5b50506040516310c414eb60e21b81523060048201526001600160a01b038416925063431053ac9150602401600060405180830381600087803b158015610b2a57600080fd5b505af1158015610b3e573d6000803e3d6000fd5b50506001805550909392505050565b60006005548711158015610b6057508615155b610b7c5760405162461bcd60e51b81526004016105f490613d01565b6000878152600660209081526040918290208251808401909352546001600160a01b0381168352600160a01b900460ff161515908201819052610c185760405162461bcd60e51b815260206004820152602e60248201527f4552433732314454466163746f72793a20455243373231546f6b656e2054656d60448201526d1c1b185d1948191a5cd8589b195960921b60648201526084016105f4565b6001600160a01b038316610c825760405162461bcd60e51b815260206004820152602b60248201527f4552433732314454466163746f72793a20616464726573732830292063616e6e60448201526a37ba1031329037bbb732b960a91b60648201526084016105f4565b8051610c8d90612730565b91506001600160a01b038216610d0d576040805162461bcd60e51b81526020600482015260248101919091527f4552433732314454466163746f72793a204661696c656420746f20706572666f60448201527f726d206d696e696d616c206465706c6f79206f662061206e657720746f6b656e60648201526084016105f4565b8160086000846001600160a01b03166001600160a01b0316815260200190815260200160002060006101000a8154816001600160a01b0302191690836001600160a01b03160217905550336001600160a01b0316836001600160a01b031682600001516001600160a01b03167f8125264ec1d174cb383ea0646ea1e6921ca3b0aba20370c8e18389e7c2d6a571858e8e8b8b604051610db0959493929190613d4d565b60405180910390a4600160036000828254610dcb9190613dac565b9091555050604051630343aa3d60e31b815282906001600160a01b03821690631a1d51e890610e0c9087908f908f9030908f908f908f908f90600401613dc4565b6020604051808303816000875af1158015610e2b573d6000803e3d6000fd5b505050506040513d601f19601f82011682018060405250810190610e4f9190613e42565b610eb85760405162461bcd60e51b815260206004820152603460248201527f4552433732314454466163746f72793a20556e61626c6520746f20696e697469604482015273616c697a6520746f6b656e20696e7374616e636560601b60648201526084016105f4565b505098975050505050505050565b600080600060026001541415610eee5760405162461bcd60e51b81526004016105f4906139c3565b6002600155610f52610f036040860186613e5f565b6001818110610f1457610f146139fa565b9050602002016020810190610f299190612f75565b3330610f358880613e5f565b6004818110610f4657610f466139fa565b905060200201356124f7565b611042610f5f8780613b26565b8080601f016020809104026020016040519081016040528093929190818152602001838380828437600092019190915250610fa1925050506020890189613b26565b8080601f016020809104026020016040519081016040528093929190818152602001838380828437600092018290525060408d013593503092509050610fea60608d018d613b26565b8080601f01602080910402602001604051908101604052809392919081815260200183838082843760009201919091525061102f9250505060a08e0160808f01613b73565b8d60a00160208101906102c89190612f75565b92506001600160a01b03831663e38d7cad86356110626020890189613e5f565b61106f60408b018b613e5f565b61107c60608d018d613e5f565b61108960808f018f613e5f565b6040518a63ffffffff1660e01b81526004016110ad99989796959493929190613fc9565b6020604051808303816000875af11580156110cc573d6000803e3d6000fd5b505050506040513d601f19601f820116820180604052508101906110f0919061407a565b600c5490925061116b906001600160a01b031661110d8680613e5f565b600481811061111e5761111e6139fa565b905060200201358680604001906111359190613e5f565b6001818110611146576111466139fa565b905060200201602081019061115b9190612f75565b6001600160a01b03169190612645565b6001600160a01b038216635bfe4da06111848680613e5f565b6111916020890189613e5f565b61119e60408b018b613e5f565b6040518763ffffffff1660e01b81526004016111bf96959493929190614097565b6020604051808303816000875af11580156111de573d6000803e3d6000fd5b505050506040513d601f19601f82011682018060405250810190611202919061407a565b6040516301fc3d9160e71b81523060048201529091506001600160a01b0384169063fe1ec88090602401600060405180830381600087803b15801561124657600080fd5b505af115801561125a573d6000803e3d6000fd5b5050600180555092969195509350915050565b3360008181526008602052604081205490916001600160a01b03909116146112f65760405162461bcd60e51b815260206004820152603660248201527f455243373231466163746f72793a204f4e4c592045524337323120494e5354416044820152754e43452046524f4d20455243373231464143544f525960501b60648201526084016105f4565b6113048686868686336127c0565b9695505050505050565b6000546001600160a01b031633146113385760405162461bcd60e51b81526004016105f49061398e565b6113426000612aa5565b565b600080546001600160a01b0316331461136f5760405162461bcd60e51b81526004016105f49061398e565b6001600160a01b0382166113e25760405162461bcd60e51b815260206004820152603460248201527f4552433230466163746f72793a204552433732312074656d706c617465206164604482015273191c995cdcca0c0a481393d50810531313d5d15160621b60648201526084016105f4565b813b6114305760405162461bcd60e51b815260206004820152601a60248201527f4552433230466163746f72793a204e4f5420434f4e545241435400000000000060448201526064016105f4565b6001600b60008282546114439190613dac565b90915550506040805180820182526001600160a01b0380851680835260016020808501918252600b8054600090815260079092528682208651815494511515600160a01b026001600160a81b03199095169616959095179290921790935554935192939290917fdcd16da87b60cea6dbd55a83f73b8a4bf9a54655db58ae0f35b82a2373fc150d91a35050600b545b919050565b6000546001600160a01b031633146115015760405162461bcd60e51b81526004016105f49061398e565b600554811115801561151257508015155b61152e5760405162461bcd60e51b81526004016105f490613d01565b6000908152600660205260409020805460ff60a01b19169055565b600080546001600160a01b031633146115745760405162461bcd60e51b81526004016105f49061398e565b6001600160a01b0382166115f05760405162461bcd60e51b815260206004820152603760248201527f4552433732314454466163746f72793a204552433732312074656d706c61746560448201527f2061646472657373283029204e4f5420414c4c4f57454400000000000000000060648201526084016105f4565b813b61163e5760405162461bcd60e51b815260206004820152601b60248201527f455243373231466163746f72793a204e4f5420434f4e5452414354000000000060448201526064016105f4565b6001600560008282546116519190613dac565b90915550506040805180820182526001600160a01b038085168083526001602080850191825260058054600090815260069092528682208651815494511515600160a01b026001600160a81b03199095169616959095179290921790935554935192939290917fc0167b92c8eb4a2bad2c05e0134f076fba5d3cd54671a3e8edf13d2e61443bd991a35050600554919050565b600260015414156117075760405162461bcd60e51b81526004016105f4906139c3565b600260015580516032101561175e5760405162461bcd60e51b815260206004820152601e60248201527f455243373231466163746f72793a20546f6f204d616e79204f7264657273000060448201526064016105f4565b60005b815181101561090d576000806000848481518110611781576117816139fa565b6020026020010151600001516001600160a01b031663397b37436040518163ffffffff1660e01b8152600401606060405180830381865afa1580156117ca573d6000803e3d6000fd5b505050506040513d601f19601f820116820180604052508101906117ee91906140e0565b92509250925060008111801561180c57506001600160a01b03821615155b801561182057506001600160a01b03831615155b1561186357611831823330846124f7565b611863858581518110611846576118466139fa565b6020908102919091010151516001600160a01b0384169083612645565b6000858581518110611877576118776139fa565b602002602001015160800151604001511180156118c8575060006001600160a01b03168585815181106118ac576118ac6139fa565b602002602001015160800151600001516001600160a01b031614155b8015611908575060006001600160a01b03168585815181106118ec576118ec6139fa565b602002602001015160800151602001516001600160a01b031614155b156119d85761195b858581518110611922576119226139fa565b602002602001015160800151602001513330888881518110611946576119466139fa565b602002602001015160800151604001516124f7565b6119d8858581518110611970576119706139fa565b60200260200101516000015186868151811061198e5761198e6139fa565b602002602001015160800151604001518787815181106119b0576119b06139fa565b602002602001015160800151602001516001600160a01b03166126459092919063ffffffff16565b60008585815181106119ec576119ec6139fa565b60200260200101516060015160400151118015611a3d575060006001600160a01b0316858581518110611a2157611a216139fa565b602002602001015160600151602001516001600160a01b031614155b8015611a7d575060006001600160a01b0316858581518110611a6157611a616139fa565b602002602001015160600151600001516001600160a01b031614155b15611b4d57611ad0858581518110611a9757611a976139fa565b602002602001015160600151602001513330888881518110611abb57611abb6139fa565b602002602001015160600151604001516124f7565b611b4d858581518110611ae557611ae56139fa565b602002602001015160000151868681518110611b0357611b036139fa565b60200260200101516060015160400151878781518110611b2557611b256139fa565b602002602001015160600151602001516001600160a01b03166126459092919063ffffffff16565b611b7e858581518110611b6257611b626139fa565b6020026020010151600001513330670de0b6b3a76400006124f7565b848481518110611b9057611b906139fa565b6020026020010151600001516001600160a01b03166379d9d7f3868681518110611bbc57611bbc6139fa565b602002602001015160200151878781518110611bda57611bda6139fa565b602002602001015160400151888881518110611bf857611bf86139fa565b602002602001015160600151898981518110611c1657611c166139fa565b6020026020010151608001516040518563ffffffff1660e01b8152600401611c419493929190614123565b600060405180830381600087803b158015611c5b57600080fd5b505af1158015611c6f573d6000803e3d6000fd5b505050505050508080611c8190613b0b565b915050611761565b6000546001600160a01b03163314611cb35760405162461bcd60e51b81526004016105f49061398e565b6005548111158015611cc457508015155b611ce05760405162461bcd60e51b81526004016105f490613d01565b6000908152600660205260409020805460ff60a01b1916600160a01b179055565b60008060026001541415611d275760405162461bcd60e51b81526004016105f4906139c3565b6002600155611e19611d398680613b26565b8080601f016020809104026020016040519081016040528093929190818152602001838380828437600092019190915250611d7b925050506020880188613b26565b8080601f016020809104026020016040519081016040528093929190818152602001838380828437600092018290525060408c013593503092509050611dc460608c018c613b26565b8080601f016020809104026020016040519081016040528093929190818152602001838380828437600092019190915250611e099250505060a08d0160808e01613b73565b6102c860c08e0160a08f01612f75565b91506001600160a01b03821663e38d7cad8535611e396020880188613e5f565b611e4660408a018a613e5f565b611e5360608c018c613e5f565b611e6060808e018e613e5f565b6040518a63ffffffff1660e01b8152600401611e8499989796959493929190613fc9565b6020604051808303816000875af1158015611ea3573d6000803e3d6000fd5b505050506040513d601f19601f82011682018060405250810190611ec7919061407a565b90506001600160a01b03811663191c918a611ee56020860186612f75565b60208601356040870135611eff6080890160608a01613b73565b611f0f60a08a0160808b01612f75565b60405160e087901b6001600160e01b03191681526001600160a01b0395861660048201526024810194909452604484019290925215156064830152909116608482015260a401600060405180830381600087803b158015611f6f57600080fd5b505af1158015611f83573d6000803e3d6000fd5b50506040516301fc3d9160e71b81523060048201526001600160a01b038516925063fe1ec8809150602401600060405180830381600087803b158015611fc857600080fd5b505af1158015611fdc573d6000803e3d6000fd5b50506001805550919590945092505050565b6000546001600160a01b031633146120185760405162461bcd60e51b81526004016105f49061398e565b600b54811115801561202957508015155b6120895760405162461bcd60e51b815260206004820152602b60248201527f45524332304454466163746f72793a2054656d706c61746520696e646578206460448201526a1bd95cdb9d08195e1a5cdd60aa1b60648201526084016105f4565b6000908152600760205260409020805460ff60a01b1916600160a01b179055565b6000806000600260015414156120d25760405162461bcd60e51b81526004016105f4906139c3565b60026001556120e4610f5f8780613b26565b92506001600160a01b03831663e38d7cad86356121046020890189613e5f565b61211160408b018b613e5f565b61211e60608d018d613e5f565b61212b60808f018f613e5f565b6040518a63ffffffff1660e01b815260040161214f99989796959493929190613fc9565b6020604051808303816000875af115801561216e573d6000803e3d6000fd5b505050506040513d601f19601f82011682018060405250810190612192919061407a565b91506001600160a01b038216638b96412b6121b06020870187612f75565b6121bd6020880188613e5f565b6121ca60408a018a613e5f565b6040518663ffffffff1660e01b81526004016121ea959493929190614176565b6020604051808303816000875af1158015612209573d6000803e3d6000fd5b505050506040513d601f19601f8201168201806040525081019061120291906141ba565b6000546001600160a01b031633146122575760405162461bcd60e51b81526004016105f49061398e565b6001600160a01b0381166122bc5760405162461bcd60e51b815260206004820152602660248201527f4f776e61626c653a206e6577206f776e657220697320746865207a65726f206160448201526564647265737360d01b60648201526084016105f4565b6122c581612aa5565b50565b600080600260015414156122ee5760405162461bcd60e51b81526004016105f4906139c3565b60026001556123e06123008580613b26565b8080601f016020809104026020016040519081016040528093929190818152602001838380828437600092019190915250612342925050506020870187613b26565b8080601f016020809104026020016040519081016040528093929190818152602001838380828437600092018290525060408b01359350309250905061238b60608b018b613b26565b8080601f0160208091040260200160405190810160405280939291908181526020018383808284376000920191909152506123d09250505060a08c0160808d01613b73565b6102c860c08d0160a08e01612f75565b91506001600160a01b03821663e38d7cad84356124006020870187613e5f565b61240d6040890189613e5f565b61241a60608b018b613e5f565b61242760808d018d613e5f565b6040518a63ffffffff1660e01b815260040161244b99989796959493929190613fc9565b6020604051808303816000875af115801561246a573d6000803e3d6000fd5b505050506040513d601f19601f8201168201806040525081019061248e919061407a565b6040516301fc3d9160e71b81523060048201529091506001600160a01b0383169063fe1ec88090602401600060405180830381600087803b1580156124d257600080fd5b505af11580156124e6573d6000803e3d6000fd5b505060018055509194909350915050565b6040516370a0823160e01b81526001600160a01b038381166004830152600091908616906370a0823190602401602060405180830381865afa158015612541573d6000803e3d6000fd5b505050506040513d601f19601f8201168201806040525081019061256591906141ba565b905061257c6001600160a01b038616858585612af5565b6125868183612b2d565b6040516370a0823160e01b81526001600160a01b0385811660048301528716906370a0823190602401602060405180830381865afa1580156125cc573d6000803e3d6000fd5b505050506040513d601f19601f820116820180604052508101906125f091906141ba565b101561263e5760405162461bcd60e51b815260206004820152601a60248201527f5472616e7366657220616d6f756e7420697320746f6f206c6f7700000000000060448201526064016105f4565b5050505050565b604051636eb1769f60e11b81523060048201526001600160a01b038381166024830152600091839186169063dd62ed3e90604401602060405180830381865afa158015612696573d6000803e3d6000fd5b505050506040513d601f19601f820116820180604052508101906126ba91906141ba565b6126c49190613dac565b6040516001600160a01b03851660248201526044810182905290915061272a90859063095ea7b360e01b906064015b60408051601f198184030181529190526020810180516001600160e01b03166001600160e01b031990931692909217909152612b40565b50505050565b6000808260601b9050604051733d602d80600a3d3981f3363d3d373d3d3d363d7360601b81528160148201526e5af43d82803e903d91602b57fd5bf360881b60288201526037816000f06040516001600160a01b03821681529093507f117c72e6c25f0a072e36e148df71468ce2f3dbe7defec5b2c257a6e3eb65278c915060200160405180910390a150919050565b6000836000815181106127d5576127d56139fa565b60200260200101516000141561283b5760405162461bcd60e51b815260206004820152602560248201527f4552433230466163746f72793a207a65726f20636170206973206e6f7420616c6044820152641b1bddd95960da1b60648201526084016105f4565b600b54871115801561284c57508615155b6128685760405162461bcd60e51b81526004016105f490613945565b6000878152600760209081526040918290208251808401909352546001600160a01b0381168352600160a01b900460ff1615159082018190526129015760405162461bcd60e51b815260206004820152602b60248201527f4552433230466163746f72793a20455243373231546f6b656e2054656d706c6160448201526a1d1948191a5cd8589b195960aa1b60648201526084016105f4565b805161290c90612730565b6001600160a01b0381166000818152600960205260409020805460ff191660011790559092506129a45760405162461bcd60e51b815260206004820152603e60248201527f455243373231466163746f72793a204661696c656420746f20706572666f726d60448201527f206d696e696d616c206465706c6f79206f662061206e657720746f6b656e000060648201526084016105f4565b80600001516001600160a01b0316826001600160a01b03167f567699dbf7c5f63a51a42fd451f5e065bca0dfc723adf2cc498bbb7cfb780b90896000815181106129f0576129f06139fa565b60200260200101518a600181518110612a0b57612a0b6139fa565b602002602001015189600081518110612a2657612a266139fa565b602002602001015188604051612a3f94939291906141d3565b60405180910390a36001600a6000828254612a5a9190613dac565b90915550506040805160a08101825288815260208101889052908101869052606081018590526001600160a01b0384166080820152612a998382612c17565b50509695505050505050565b600080546001600160a01b038381166001600160a01b0319831681178455604051919092169283917f8be0079c531659141344cd1fd0a4f28419497f9722a3daafe3b4186f6b6457e09190a35050565b6040516001600160a01b038085166024830152831660448201526064810182905261272a9085906323b872dd60e01b906084016126f3565b6000612b398284613dac565b9392505050565b6000612b95826040518060400160405280602081526020017f5361666545524332303a206c6f772d6c6576656c2063616c6c206661696c6564815250856001600160a01b0316612dc49092919063ffffffff16565b805190915015612c125780806020019051810190612bb39190613e42565b612c125760405162461bcd60e51b815260206004820152602a60248201527f5361666545524332303a204552433230206f7065726174696f6e20646964206e6044820152691bdd081cdd58d8d9595960b21b60648201526084016105f4565b505050565b6040805160038082526080820190925283916000919060208201606080368337019050509050826080015181600081518110612c5557612c556139fa565b6001600160a01b039283166020918202929092010152600254825191169082906001908110612c8657612c866139fa565b6001600160a01b039283166020918202929092010152600c54825191169082906002908110612cb757612cb76139fa565b60200260200101906001600160a01b031690816001600160a01b031681525050816001600160a01b031663b3998be08460000151856020015184876040015188606001516040518663ffffffff1660e01b8152600401612d1b9594939291906142cb565b6020604051808303816000875af1158015612d3a573d6000803e3d6000fd5b505050506040513d601f19601f82011682018060405250810190612d5e9190613e42565b61272a5760405162461bcd60e51b815260206004820152603160248201527f4552433230466163746f72793a20556e61626c6520746f20696e697469616c696044820152707a6520746f6b656e20696e7374616e636560781b60648201526084016105f4565b6060612dd38484600085612ddb565b949350505050565b606082471015612e3c5760405162461bcd60e51b815260206004820152602660248201527f416464726573733a20696e73756666696369656e742062616c616e636520666f6044820152651c8818d85b1b60d21b60648201526084016105f4565b843b612e8a5760405162461bcd60e51b815260206004820152601d60248201527f416464726573733a2063616c6c20746f206e6f6e2d636f6e747261637400000060448201526064016105f4565b600080866001600160a01b03168587604051612ea69190614374565b60006040518083038185875af1925050503d8060008114612ee3576040519150601f19603f3d011682016040523d82523d6000602084013e612ee8565b606091505b5091509150612ef8828286612f03565b979650505050505050565b60608315612f12575081612b39565b825115612f225782518084602001fd5b8160405162461bcd60e51b81526004016105f49190614390565b600060208284031215612f4e57600080fd5b5035919050565b6001600160a01b03811681146122c557600080fd5b80356114d281612f55565b600060208284031215612f8757600080fd5b8135612b3981612f55565b634e487b7160e01b600052604160045260246000fd5b60405161010081016001600160401b0381118282101715612fcb57612fcb612f92565b60405290565b604051606081016001600160401b0381118282101715612fcb57612fcb612f92565b60405160a081016001600160401b0381118282101715612fcb57612fcb612f92565b604051601f8201601f191681016001600160401b038111828210171561303d5761303d612f92565b604052919050565b60006001600160401b0382111561305e5761305e612f92565b5060051b60200190565b803560ff811681146114d257600080fd5b600082601f83011261308a57600080fd5b81356001600160401b038111156130a3576130a3612f92565b6130b6601f8201601f1916602001613015565b8181528460208386010111156130cb57600080fd5b816020850160208301376000918101602001919091529392505050565b600061010082840312156130fb57600080fd5b613103612fa8565b905061310e82612f6a565b815261311c60208301612f6a565b60208201526040820135604082015261313760608301613068565b60608201526080820135608082015260a082013560a082015260c082013560c082015260e08201356001600160401b0381111561317357600080fd5b61317f84828501613079565b60e08301525092915050565b6000602080838503121561319e57600080fd5b82356001600160401b03808211156131b557600080fd5b818501915085601f8301126131c957600080fd5b81356131dc6131d782613045565b613015565b81815260059190911b830184019084810190888311156131fb57600080fd5b8585015b83811015613284578035858111156132175760008081fd5b86016060818c03601f190181131561322f5760008081fd5b613237612fd1565b8983013561324481612f55565b81526040838101358b8301529183013591888311156132635760008081fd5b6132718e8c858701016130e8565b90820152855250509186019186016131ff565b5098975050505050505050565b600060c082840312156132a357600080fd5b50919050565b600080604083850312156132bc57600080fd5b82356001600160401b03808211156132d357600080fd5b6132df86838701613291565b935060208501359150808211156132f557600080fd5b50830160e0818603121561330857600080fd5b809150509250929050565b80151581146122c557600080fd5b80356114d281613313565b600080600080600080600080610100898b03121561334957600080fd5b88356001600160401b038082111561336057600080fd5b61336c8c838d01613079565b995060208b013591508082111561338257600080fd5b61338e8c838d01613079565b985060408b013597506133a360608c01612f6a565b96506133b160808c01612f6a565b955060a08b01359150808211156133c757600080fd5b506133d48b828c01613079565b9350506133e360c08a01613321565b91506133f160e08a01612f6a565b90509295985092959890939650565b600060a082840312156132a357600080fd5b6000606082840312156132a357600080fd5b60008060006060848603121561343957600080fd5b83356001600160401b038082111561345057600080fd5b61345c87838801613291565b9450602086013591508082111561347257600080fd5b61347e87838801613400565b9350604086013591508082111561349457600080fd5b506134a186828701613412565b9150509250925092565b600082601f8301126134bc57600080fd5b813560206134cc6131d783613045565b82815260059290921b840181019181810190868411156134eb57600080fd5b8286015b8481101561350f57803561350281612f55565b83529183019183016134ef565b509695505050505050565b600082601f83011261352b57600080fd5b8135602061353b6131d783613045565b82815260059290921b8401810191818101908684111561355a57600080fd5b8286015b8481101561350f578035835291830191830161355e565b600082601f83011261358657600080fd5b813560206135966131d783613045565b82815260059290921b840181019181810190868411156135b557600080fd5b8286015b8481101561350f5780356001600160401b038111156135d85760008081fd5b6135e68986838b0101613079565b8452509183019183016135b9565b600080600080600060a0868803121561360c57600080fd5b853594506020808701356001600160401b038082111561362b57600080fd5b818901915089601f83011261363f57600080fd5b813561364d6131d782613045565b81815260059190911b8301840190848101908c83111561366c57600080fd5b8585015b838110156136a4578035858111156136885760008081fd5b6136968f89838a0101613079565b845250918601918601613670565b509850505060408901359250808311156136bd57600080fd5b6136c98a848b016134ab565b955060608901359250808311156136df57600080fd5b6136eb8a848b0161351a565b9450608089013592508083111561370157600080fd5b505061370f88828901613575565b9150509295509295909350565b6000602080838503121561372f57600080fd5b82356001600160401b038082111561374657600080fd5b818501915085601f83011261375a57600080fd5b81356137686131d782613045565b81815260059190911b8301840190848101908883111561378757600080fd5b8585015b83811015613284578035858111156137a257600080fd5b8601808b0360e0601f19820112156137b957600080fd5b6137c1612ff3565b898301356137ce81612f55565b815260408301356137de81612f55565b818b015260608381013560408301526080840135898111156137ff57600080fd5b61380d8f8d838801016130e8565b828401525080609f198401121561382357600080fd5b5061382c612fd1565b915060a083013561383c81612f55565b825260c083013561384c81612f55565b828b015260e0929092013560408201526080820152835291860191860161378b565b600080600060e0848603121561388357600080fd5b83356001600160401b038082111561389a57600080fd5b6138a687838801613291565b945060208601359150808211156138bc57600080fd5b506138c986828701613400565b9250506138d98560408601613400565b90509250925092565b600080604083850312156138f557600080fd5b82356001600160401b038082111561390c57600080fd5b61391886838701613291565b9350602085013591508082111561392e57600080fd5b5061393b85828601613400565b9150509250929050565b60208082526029908201527f4552433230466163746f72793a2054656d706c61746520696e64657820646f656040820152681cdb9d08195e1a5cdd60ba1b606082015260800190565b6020808252818101527f4f776e61626c653a2063616c6c6572206973206e6f7420746865206f776e6572604082015260600190565b6020808252601f908201527f5265656e7472616e637947756172643a207265656e7472616e742063616c6c00604082015260600190565b634e487b7160e01b600052603260045260246000fd5b60005b83811015613a2b578181015183820152602001613a13565b8381111561272a5750506000910152565b60008151808452613a54816020860160208601613a10565b601f01601f19169290920160200192915050565b600061010060018060a01b03808451168552806020850151166020860152506040830151604085015260ff60608401511660608501526080830151608085015260a083015160a085015260c083015160c085015260e08301518160e0860152613ad382860182613a3c565b95945050505050565b828152604060208201526000612dd36040830184613a68565b634e487b7160e01b600052601160045260246000fd5b6000600019821415613b1f57613b1f613af5565b5060010190565b6000808335601e19843603018112613b3d57600080fd5b8301803591506001600160401b03821115613b5757600080fd5b602001915036819003821315613b6c57600080fd5b9250929050565b600060208284031215613b8557600080fd5b8135612b3981613313565b600060208284031215613ba257600080fd5b612b3982613068565b6000808335601e19843603018112613bc257600080fd5b8301803591506001600160401b03821115613bdc57600080fd5b6020019150600781901b3603821315613b6c57600080fd5b81835281816020850137506000828201602090810191909152601f909101601f19169091010190565b60ff8d16815260e060208201526000613c3a60e083018d8f613bf4565b604083820381850152613c4e828d8f613bf4565b9150606084830381860152613c64838c8e613bf4565b9250608085840381870152613c7a848b8d613bf4565b60a087018a905286810360c088015287815288945060200160005b88811015613ce7578535613ca881612f55565b6001600160a01b0316825260ff613cc160208801613068565b166020830152858501358583015283860135848301529482019490820190600101613c95565b5080955050505050509d9c50505050505050505050505050565b6020808252602c908201527f4552433732314454466163746f72793a2054656d706c61746520696e6465782060408201526b191bd95cdb9d08195e1a5cdd60a21b606082015260800190565b6001600160a01b038616815260a060208201819052600090613d7190830187613a3c565b8281036040840152613d838187613a3c565b90508281036060840152613d978186613a3c565b91505082151560808301529695505050505050565b60008219821115613dbf57613dbf613af5565b500190565b6001600160a01b03898116825261010060208301819052600091613dea8483018c613a3c565b91508382036040850152613dfe828b613a3c565b8982166060860152888216608086015290871660a085015283810360c08501529050613e2a8186613a3c565b91505082151560e08301529998505050505050505050565b600060208284031215613e5457600080fd5b8151612b3981613313565b6000808335601e19843603018112613e7657600080fd5b8301803591506001600160401b03821115613e9057600080fd5b6020019150600581901b3603821315613b6c57600080fd5b6000808335601e19843603018112613ebf57600080fd5b83016020810192503590506001600160401b03811115613ede57600080fd5b803603831315613b6c57600080fd5b8183526000602080850194508260005b85811015613f2b578135613f1081612f55565b6001600160a01b031687529582019590820190600101613efd565b509495945050505050565b81835260006001600160fb1b03831115613f4f57600080fd5b8260051b8083602087013760009401602001938452509192915050565b81835260006020808501808196508560051b810191508460005b87811015613fbc578284038952613f9d8288613ea8565b613fa8868284613bf4565b9a87019a9550505090840190600101613f86565b5091979650505050505050565b89815260a0602082018190528101889052600060c060058a901b830181019083018b835b8c81101561402a5785840360bf19018352614008828f613ea8565b614013868284613bf4565b955050506020928301929190910190600101613fed565b505050828103604084015261404081898b613eed565b90508281036060840152614055818789613f36565b9050828103608084015261406a818587613f6c565b9c9b505050505050505050505050565b60006020828403121561408c57600080fd5b8151612b3981612f55565b6060815260006140ab60608301888a613f36565b82810360208401526140be818789613f36565b905082810360408401526140d3818587613eed565b9998505050505050505050565b6000806000606084860312156140f557600080fd5b835161410081612f55565b602085015190935061411181612f55565b80925050604084015190509250925092565b600060018060a01b03808716835285602084015260c0604084015261414b60c0840186613a68565b915080845116606084015280602085015116608084015250604083015160a083015295945050505050565b6001600160a01b038616815260606020820181905260009061419b9083018688613eed565b82810360408401526141ae818587613f36565b98975050505050505050565b6000602082840312156141cc57600080fd5b5051919050565b6080815260006141e66080830187613a3c565b82810360208401526141f88187613a3c565b604084019590955250506001600160a01b039190911660609091015292915050565b600081518084526020808501945080840160005b83811015613f2b5781516001600160a01b03168752958201959082019060010161422e565b600081518084526020808501945080840160005b83811015613f2b57815187529582019590820190600101614267565b600081518084526020808501808196508360051b8101915082860160005b85811015613fbc5782840389526142b9848351613a3c565b988501989350908401906001016142a1565b600060a0820160a0835280885180835260c08501915060c08160051b86010192506020808b0160005b838110156143225760bf19888703018552614310868351613a3c565b955093820193908201906001016142f4565b505085840381870152505050614338818861421a565b9050828103604084015261434c818761421a565b905082810360608401526143608186614253565b905082810360808401526141ae8185614283565b60008251614386818460208701613a10565b9190910192915050565b602081526000612b396020830184613a3c56fea2646970667358221220fd1cde02dc85d36300601095c92c85d5465d0f140f11b376e6e6f9bb04b28c7b64736f6c634300080c00334f776e61626c653a2063616c6c6572206973206e6f7420746865206f776e6572",
  "linkReferences": {},
  "deployedLinkReferences": {}
}