{
  "_format": "hh-sol-artifact-1",
  "contractName": "ERC721Factory",
  "sourceName": "contracts/ERC721Factory.sol",
  "abi": [
    {
      "inputs": [
        {
          "internalType": "address",
          "name": "_template721",
          "type": "address"
        },
        {
          "internalType": "address",
          "name": "_template",
          "type": "address"
        },
        {
          "internalType": "address",
          "name": "_collector",
          "type": "address"
        },
        {
          "internalType": "address",
          "name": "_router",
          "type": "address"
        }
      ],
      "stateMutability": "nonpayable",
      "type": "constructor"
    },
    {
      "anonymous": false,
      "inputs": [
        {
          "indexed": true,
          "internalType": "address",
          "name": "datatokenAddress",
          "type": "address"
        },
        {
          "indexed": true,
          "internalType": "address",
          "name": "owner",
          "type": "address"
        },
        {
          "indexed": false,
          "internalType": "uint256",
          "name": "maxTokens",
          "type": "uint256"
        },
        {
          "indexed": false,
          "internalType": "uint256",
          "name": "maxBalance",
          "type": "uint256"
        },
        {
          "indexed": false,
          "internalType": "address",
          "name": "allowedSwapper",
          "type": "address"
        }
      ],
      "name": "DispenserCreated",
      "type": "event"
    },
    {
      "anonymous": false,
      "inputs": [
        {
          "indexed": false,
          "internalType": "address",
          "name": "instance",
          "type": "address"
        }
      ],
      "name": "InstanceDeployed",
      "type": "event"
    },
    {
      "anonymous": false,
      "inputs": [
        {
          "indexed": true,
          "internalType": "address",
          "name": "newTokenAddress",
          "type": "address"
        },
        {
          "indexed": true,
          "internalType": "address",
          "name": "templateAddress",
          "type": "address"
        },
        {
          "indexed": false,
          "internalType": "string",
          "name": "tokenName",
          "type": "string"
        },
        {
          "indexed": false,
          "internalType": "address",
          "name": "admin",
          "type": "address"
        },
        {
          "indexed": false,
          "internalType": "string",
          "name": "symbol",
          "type": "string"
        },
        {
          "indexed": false,
          "internalType": "string",
          "name": "tokenURI",
          "type": "string"
        }
      ],
      "name": "NFTCreated",
      "type": "event"
    },
    {
      "anonymous": false,
      "inputs": [
        {
          "indexed": false,
          "internalType": "address",
          "name": "dispenserContract",
          "type": "address"
        }
      ],
      "name": "NewDispenser",
      "type": "event"
    },
    {
      "anonymous": false,
      "inputs": [
        {
          "indexed": false,
          "internalType": "bytes32",
          "name": "exchangeId",
          "type": "bytes32"
        },
        {
          "indexed": true,
          "internalType": "address",
          "name": "owner",
          "type": "address"
        },
        {
          "indexed": false,
          "internalType": "address",
          "name": "exchangeContract",
          "type": "address"
        },
        {
          "indexed": true,
          "internalType": "address",
          "name": "baseToken",
          "type": "address"
        }
      ],
      "name": "NewFixedRate",
      "type": "event"
    },
    {
      "anonymous": false,
      "inputs": [
        {
          "indexed": false,
          "internalType": "address",
          "name": "poolAddress",
          "type": "address"
        },
        {
          "indexed": false,
          "internalType": "address",
          "name": "ssContract",
          "type": "address"
        },
        {
          "indexed": false,
          "internalType": "address",
          "name": "baseTokenAddress",
          "type": "address"
        }
      ],
      "name": "NewPool",
      "type": "event"
    },
    {
      "anonymous": false,
      "inputs": [
        {
          "indexed": true,
          "internalType": "address",
          "name": "previousOwner",
          "type": "address"
        },
        {
          "indexed": true,
          "internalType": "address",
          "name": "newOwner",
          "type": "address"
        }
      ],
      "name": "OwnershipTransferred",
      "type": "event"
    },
    {
      "anonymous": false,
      "inputs": [
        {
          "indexed": true,
          "internalType": "address",
          "name": "_templateAddress",
          "type": "address"
        },
        {
          "indexed": true,
          "internalType": "uint256",
          "name": "nftTemplateCount",
          "type": "uint256"
        }
      ],
      "name": "Template20Added",
      "type": "event"
    },
    {
      "anonymous": false,
      "inputs": [
        {
          "indexed": true,
          "internalType": "address",
          "name": "_templateAddress",
          "type": "address"
        },
        {
          "indexed": true,
          "internalType": "uint256",
          "name": "nftTemplateCount",
          "type": "uint256"
        }
      ],
      "name": "Template721Added",
      "type": "event"
    },
    {
      "anonymous": false,
      "inputs": [
        {
          "indexed": true,
          "internalType": "address",
          "name": "newTokenAddress",
          "type": "address"
        },
        {
          "indexed": true,
          "internalType": "address",
          "name": "templateAddress",
          "type": "address"
        },
        {
          "indexed": false,
          "internalType": "string",
          "name": "name",
          "type": "string"
        },
        {
          "indexed": false,
          "internalType": "string",
          "name": "symbol",
          "type": "string"
        },
        {
          "indexed": false,
          "internalType": "uint256",
          "name": "cap",
          "type": "uint256"
        },
        {
          "indexed": false,
          "internalType": "address",
          "name": "creator",
          "type": "address"
        }
      ],
      "name": "TokenCreated",
      "type": "event"
    },
    {
      "inputs": [
        {
          "internalType": "address",
          "name": "_templateAddress",
          "type": "address"
        }
      ],
      "name": "add721TokenTemplate",
      "outputs": [
        {
          "internalType": "uint256",
          "name": "",
          "type": "uint256"
        }
      ],
      "stateMutability": "nonpayable",
      "type": "function"
    },
    {
      "inputs": [
        {
          "internalType": "address",
          "name": "_templateAddress",
          "type": "address"
        }
      ],
      "name": "addTokenTemplate",
      "outputs": [
        {
          "internalType": "uint256",
          "name": "",
          "type": "uint256"
        }
      ],
      "stateMutability": "nonpayable",
      "type": "function"
    },
    {
      "inputs": [
        {
          "components": [
            {
              "internalType": "string",
              "name": "name",
              "type": "string"
            },
            {
              "internalType": "string",
              "name": "symbol",
              "type": "string"
            },
            {
              "internalType": "uint256",
              "name": "templateIndex",
              "type": "uint256"
            },
            {
              "internalType": "string",
              "name": "tokenURI",
              "type": "string"
            }
          ],
          "internalType": "struct ERC721Factory.NftCreateData",
          "name": "_NftCreateData",
          "type": "tuple"
        },
        {
          "components": [
            {
              "internalType": "uint256",
              "name": "templateIndex",
              "type": "uint256"
            },
            {
              "internalType": "string[]",
              "name": "strings",
              "type": "string[]"
            },
            {
              "internalType": "address[]",
              "name": "addresses",
              "type": "address[]"
            },
            {
              "internalType": "uint256[]",
              "name": "uints",
              "type": "uint256[]"
            },
            {
              "internalType": "bytes[]",
              "name": "bytess",
              "type": "bytes[]"
            }
          ],
          "internalType": "struct ERC721Factory.ErcCreateData",
          "name": "_ErcCreateData",
          "type": "tuple"
        }
      ],
      "name": "createNftWithErc20",
      "outputs": [
        {
          "internalType": "address",
          "name": "erc721Address",
          "type": "address"
        },
        {
          "internalType": "address",
          "name": "erc20Address",
          "type": "address"
        }
      ],
      "stateMutability": "nonpayable",
      "type": "function"
    },
    {
      "inputs": [
        {
          "components": [
            {
              "internalType": "string",
              "name": "name",
              "type": "string"
            },
            {
              "internalType": "string",
              "name": "symbol",
              "type": "string"
            },
            {
              "internalType": "uint256",
              "name": "templateIndex",
              "type": "uint256"
            },
            {
              "internalType": "string",
              "name": "tokenURI",
              "type": "string"
            }
          ],
          "internalType": "struct ERC721Factory.NftCreateData",
          "name": "_NftCreateData",
          "type": "tuple"
        },
        {
          "components": [
            {
              "internalType": "uint256",
              "name": "templateIndex",
              "type": "uint256"
            },
            {
              "internalType": "string[]",
              "name": "strings",
              "type": "string[]"
            },
            {
              "internalType": "address[]",
              "name": "addresses",
              "type": "address[]"
            },
            {
              "internalType": "uint256[]",
              "name": "uints",
              "type": "uint256[]"
            },
            {
              "internalType": "bytes[]",
              "name": "bytess",
              "type": "bytes[]"
            }
          ],
          "internalType": "struct ERC721Factory.ErcCreateData",
          "name": "_ErcCreateData",
          "type": "tuple"
        },
        {
          "components": [
            {
              "internalType": "address",
              "name": "dispenserAddress",
              "type": "address"
            },
            {
              "internalType": "uint256",
              "name": "maxTokens",
              "type": "uint256"
            },
            {
              "internalType": "uint256",
              "name": "maxBalance",
              "type": "uint256"
            },
            {
              "internalType": "bool",
              "name": "withMint",
              "type": "bool"
            },
            {
              "internalType": "address",
              "name": "allowedSwapper",
              "type": "address"
            }
          ],
          "internalType": "struct ERC721Factory.DispenserData",
          "name": "_DispenserData",
          "type": "tuple"
        }
      ],
      "name": "createNftWithErc20WithDispenser",
      "outputs": [
        {
          "internalType": "address",
          "name": "erc721Address",
          "type": "address"
        },
        {
          "internalType": "address",
          "name": "erc20Address",
          "type": "address"
        }
      ],
      "stateMutability": "nonpayable",
      "type": "function"
    },
    {
      "inputs": [
        {
          "components": [
            {
              "internalType": "string",
              "name": "name",
              "type": "string"
            },
            {
              "internalType": "string",
              "name": "symbol",
              "type": "string"
            },
            {
              "internalType": "uint256",
              "name": "templateIndex",
              "type": "uint256"
            },
            {
              "internalType": "string",
              "name": "tokenURI",
              "type": "string"
            }
          ],
          "internalType": "struct ERC721Factory.NftCreateData",
          "name": "_NftCreateData",
          "type": "tuple"
        },
        {
          "components": [
            {
              "internalType": "uint256",
              "name": "templateIndex",
              "type": "uint256"
            },
            {
              "internalType": "string[]",
              "name": "strings",
              "type": "string[]"
            },
            {
              "internalType": "address[]",
              "name": "addresses",
              "type": "address[]"
            },
            {
              "internalType": "uint256[]",
              "name": "uints",
              "type": "uint256[]"
            },
            {
              "internalType": "bytes[]",
              "name": "bytess",
              "type": "bytes[]"
            }
          ],
          "internalType": "struct ERC721Factory.ErcCreateData",
          "name": "_ErcCreateData",
          "type": "tuple"
        },
        {
          "components": [
            {
              "internalType": "address",
              "name": "fixedPriceAddress",
              "type": "address"
            },
            {
              "internalType": "address[]",
              "name": "addresses",
              "type": "address[]"
            },
            {
              "internalType": "uint256[]",
              "name": "uints",
              "type": "uint256[]"
            }
          ],
          "internalType": "struct ERC721Factory.FixedData",
          "name": "_FixedData",
          "type": "tuple"
        }
      ],
      "name": "createNftWithErc20WithFixedRate",
      "outputs": [
        {
          "internalType": "address",
          "name": "erc721Address",
          "type": "address"
        },
        {
          "internalType": "address",
          "name": "erc20Address",
          "type": "address"
        },
        {
          "internalType": "bytes32",
          "name": "exchangeId",
          "type": "bytes32"
        }
      ],
      "stateMutability": "nonpayable",
      "type": "function"
    },
    {
      "inputs": [
        {
          "components": [
            {
              "internalType": "string",
              "name": "name",
              "type": "string"
            },
            {
              "internalType": "string",
              "name": "symbol",
              "type": "string"
            },
            {
              "internalType": "uint256",
              "name": "templateIndex",
              "type": "uint256"
            },
            {
              "internalType": "string",
              "name": "tokenURI",
              "type": "string"
            }
          ],
          "internalType": "struct ERC721Factory.NftCreateData",
          "name": "_NftCreateData",
          "type": "tuple"
        },
        {
          "components": [
            {
              "internalType": "uint256",
              "name": "templateIndex",
              "type": "uint256"
            },
            {
              "internalType": "string[]",
              "name": "strings",
              "type": "string[]"
            },
            {
              "internalType": "address[]",
              "name": "addresses",
              "type": "address[]"
            },
            {
              "internalType": "uint256[]",
              "name": "uints",
              "type": "uint256[]"
            },
            {
              "internalType": "bytes[]",
              "name": "bytess",
              "type": "bytes[]"
            }
          ],
          "internalType": "struct ERC721Factory.ErcCreateData",
          "name": "_ErcCreateData",
          "type": "tuple"
        },
        {
          "components": [
            {
              "internalType": "uint256[]",
              "name": "ssParams",
              "type": "uint256[]"
            },
            {
              "internalType": "uint256[]",
              "name": "swapFees",
              "type": "uint256[]"
            },
            {
              "internalType": "address[]",
              "name": "addresses",
              "type": "address[]"
            }
          ],
          "internalType": "struct ERC721Factory.PoolData",
          "name": "_PoolData",
          "type": "tuple"
        }
      ],
      "name": "createNftWithErc20WithPool",
      "outputs": [
        {
          "internalType": "address",
          "name": "erc721Address",
          "type": "address"
        },
        {
          "internalType": "address",
          "name": "erc20Address",
          "type": "address"
        },
        {
          "internalType": "address",
          "name": "poolAddress",
          "type": "address"
        }
      ],
      "stateMutability": "nonpayable",
      "type": "function"
    },
    {
      "inputs": [
        {
          "internalType": "uint256",
          "name": "_templateIndex",
          "type": "uint256"
        },
        {
          "internalType": "string[]",
          "name": "strings",
          "type": "string[]"
        },
        {
          "internalType": "address[]",
          "name": "addresses",
          "type": "address[]"
        },
        {
          "internalType": "uint256[]",
          "name": "uints",
          "type": "uint256[]"
        },
        {
          "internalType": "bytes[]",
          "name": "bytess",
          "type": "bytes[]"
        }
      ],
      "name": "createToken",
      "outputs": [
        {
          "internalType": "address",
          "name": "token",
          "type": "address"
        }
      ],
      "stateMutability": "nonpayable",
      "type": "function"
    },
    {
      "inputs": [
        {
          "internalType": "string",
          "name": "name",
          "type": "string"
        },
        {
          "internalType": "string",
          "name": "symbol",
          "type": "string"
        },
        {
          "internalType": "uint256",
          "name": "_templateIndex",
          "type": "uint256"
        },
        {
          "internalType": "address",
          "name": "additionalERC20Deployer",
          "type": "address"
        },
        {
          "internalType": "string",
          "name": "tokenURI",
          "type": "string"
        }
      ],
      "name": "deployERC721Contract",
      "outputs": [
        {
          "internalType": "address",
          "name": "token",
          "type": "address"
        }
      ],
      "stateMutability": "nonpayable",
      "type": "function"
    },
    {
      "inputs": [
        {
          "internalType": "uint256",
          "name": "_index",
          "type": "uint256"
        }
      ],
      "name": "disable721TokenTemplate",
      "outputs": [],
      "stateMutability": "nonpayable",
      "type": "function"
    },
    {
      "inputs": [
        {
          "internalType": "uint256",
          "name": "_index",
          "type": "uint256"
        }
      ],
      "name": "disableTokenTemplate",
      "outputs": [],
      "stateMutability": "nonpayable",
      "type": "function"
    },
    {
      "inputs": [
        {
          "internalType": "address",
          "name": "",
          "type": "address"
        }
      ],
      "name": "erc20List",
      "outputs": [
        {
          "internalType": "bool",
          "name": "",
          "type": "bool"
        }
      ],
      "stateMutability": "view",
      "type": "function"
    },
    {
      "inputs": [
        {
          "internalType": "address",
          "name": "",
          "type": "address"
        }
      ],
      "name": "erc721List",
      "outputs": [
        {
          "internalType": "address",
          "name": "",
          "type": "address"
        }
      ],
      "stateMutability": "view",
      "type": "function"
    },
    {
      "inputs": [],
      "name": "getCurrentNFTCount",
      "outputs": [
        {
          "internalType": "uint256",
          "name": "",
          "type": "uint256"
        }
      ],
      "stateMutability": "view",
      "type": "function"
    },
    {
      "inputs": [],
      "name": "getCurrentNFTTemplateCount",
      "outputs": [
        {
          "internalType": "uint256",
          "name": "",
          "type": "uint256"
        }
      ],
      "stateMutability": "view",
      "type": "function"
    },
    {
      "inputs": [],
      "name": "getCurrentTemplateCount",
      "outputs": [
        {
          "internalType": "uint256",
          "name": "",
          "type": "uint256"
        }
      ],
      "stateMutability": "view",
      "type": "function"
    },
    {
      "inputs": [],
      "name": "getCurrentTokenCount",
      "outputs": [
        {
          "internalType": "uint256",
          "name": "",
          "type": "uint256"
        }
      ],
      "stateMutability": "view",
      "type": "function"
    },
    {
      "inputs": [
        {
          "internalType": "uint256",
          "name": "_index",
          "type": "uint256"
        }
      ],
      "name": "getNFTTemplate",
      "outputs": [
        {
          "components": [
            {
              "internalType": "address",
              "name": "templateAddress",
              "type": "address"
            },
            {
              "internalType": "bool",
              "name": "isActive",
              "type": "bool"
            }
          ],
          "internalType": "struct ERC721Factory.Template",
          "name": "",
          "type": "tuple"
        }
      ],
      "stateMutability": "view",
      "type": "function"
    },
    {
      "inputs": [
        {
          "internalType": "uint256",
          "name": "_index",
          "type": "uint256"
        }
      ],
      "name": "getTokenTemplate",
      "outputs": [
        {
          "components": [
            {
              "internalType": "address",
              "name": "templateAddress",
              "type": "address"
            },
            {
              "internalType": "bool",
              "name": "isActive",
              "type": "bool"
            }
          ],
          "internalType": "struct ERC721Factory.Template",
          "name": "",
          "type": "tuple"
        }
      ],
      "stateMutability": "view",
      "type": "function"
    },
    {
      "inputs": [
        {
          "internalType": "uint256",
          "name": "",
          "type": "uint256"
        }
      ],
      "name": "nftTemplateList",
      "outputs": [
        {
          "internalType": "address",
          "name": "templateAddress",
          "type": "address"
        },
        {
          "internalType": "bool",
          "name": "isActive",
          "type": "bool"
        }
      ],
      "stateMutability": "view",
      "type": "function"
    },
    {
      "inputs": [],
      "name": "owner",
      "outputs": [
        {
          "internalType": "address",
          "name": "",
          "type": "address"
        }
      ],
      "stateMutability": "view",
      "type": "function"
    },
    {
      "inputs": [
        {
          "internalType": "uint256",
          "name": "_index",
          "type": "uint256"
        }
      ],
      "name": "reactivate721TokenTemplate",
      "outputs": [],
      "stateMutability": "nonpayable",
      "type": "function"
    },
    {
      "inputs": [
        {
          "internalType": "uint256",
          "name": "_index",
          "type": "uint256"
        }
      ],
      "name": "reactivateTokenTemplate",
      "outputs": [],
      "stateMutability": "nonpayable",
      "type": "function"
    },
    {
      "inputs": [],
      "name": "renounceOwnership",
      "outputs": [],
      "stateMutability": "nonpayable",
      "type": "function"
    },
    {
      "inputs": [
        {
          "components": [
            {
              "internalType": "address",
              "name": "tokenAddress",
              "type": "address"
            },
            {
              "internalType": "bytes32",
              "name": "orderTxId",
              "type": "bytes32"
            },
            {
              "components": [
                {
                  "internalType": "address",
                  "name": "providerFeeAddress",
                  "type": "address"
                },
                {
                  "internalType": "address",
                  "name": "providerFeeToken",
                  "type": "address"
                },
                {
                  "internalType": "uint256",
                  "name": "providerFeeAmount",
                  "type": "uint256"
                },
                {
                  "internalType": "uint8",
                  "name": "v",
                  "type": "uint8"
                },
                {
                  "internalType": "bytes32",
                  "name": "r",
                  "type": "bytes32"
                },
                {
                  "internalType": "bytes32",
                  "name": "s",
                  "type": "bytes32"
                },
                {
                  "internalType": "uint256",
                  "name": "validUntil",
                  "type": "uint256"
                },
                {
                  "internalType": "bytes",
                  "name": "providerData",
                  "type": "bytes"
                }
              ],
              "internalType": "struct IERC20Template.providerFee",
              "name": "_providerFee",
              "type": "tuple"
            }
          ],
          "internalType": "struct ERC721Factory.reuseTokenOrder[]",
          "name": "orders",
          "type": "tuple[]"
        }
      ],
      "name": "reuseMultipleTokenOrder",
      "outputs": [],
      "stateMutability": "nonpayable",
      "type": "function"
    },
    {
      "inputs": [],
      "name": "router",
      "outputs": [
        {
          "internalType": "address",
          "name": "",
          "type": "address"
        }
      ],
      "stateMutability": "view",
      "type": "function"
    },
    {
      "inputs": [
        {
          "components": [
            {
              "internalType": "address",
              "name": "tokenAddress",
              "type": "address"
            },
            {
              "internalType": "address",
              "name": "consumer",
              "type": "address"
            },
            {
              "internalType": "uint256",
              "name": "serviceIndex",
              "type": "uint256"
            },
            {
              "components": [
                {
                  "internalType": "address",
                  "name": "providerFeeAddress",
                  "type": "address"
                },
                {
                  "internalType": "address",
                  "name": "providerFeeToken",
                  "type": "address"
                },
                {
                  "internalType": "uint256",
                  "name": "providerFeeAmount",
                  "type": "uint256"
                },
                {
                  "internalType": "uint8",
                  "name": "v",
                  "type": "uint8"
                },
                {
                  "internalType": "bytes32",
                  "name": "r",
                  "type": "bytes32"
                },
                {
                  "internalType": "bytes32",
                  "name": "s",
                  "type": "bytes32"
                },
                {
                  "internalType": "uint256",
                  "name": "validUntil",
                  "type": "uint256"
                },
                {
                  "internalType": "bytes",
                  "name": "providerData",
                  "type": "bytes"
                }
              ],
              "internalType": "struct IERC20Template.providerFee",
              "name": "_providerFee",
              "type": "tuple"
            },
            {
              "components": [
                {
                  "internalType": "address",
                  "name": "consumeMarketFeeAddress",
                  "type": "address"
                },
                {
                  "internalType": "address",
                  "name": "consumeMarketFeeToken",
                  "type": "address"
                },
                {
                  "internalType": "uint256",
                  "name": "consumeMarketFeeAmount",
                  "type": "uint256"
                }
              ],
              "internalType": "struct IERC20Template.consumeMarketFee",
              "name": "_consumeMarketFee",
              "type": "tuple"
            }
          ],
          "internalType": "struct ERC721Factory.tokenOrder[]",
          "name": "orders",
          "type": "tuple[]"
        }
      ],
      "name": "startMultipleTokenOrder",
      "outputs": [],
      "stateMutability": "nonpayable",
      "type": "function"
    },
    {
      "inputs": [],
      "name": "templateCount",
      "outputs": [
        {
          "internalType": "uint256",
          "name": "",
          "type": "uint256"
        }
      ],
      "stateMutability": "view",
      "type": "function"
    },
    {
      "inputs": [
        {
          "internalType": "uint256",
          "name": "",
          "type": "uint256"
        }
      ],
      "name": "templateList",
      "outputs": [
        {
          "internalType": "address",
          "name": "templateAddress",
          "type": "address"
        },
        {
          "internalType": "bool",
          "name": "isActive",
          "type": "bool"
        }
      ],
      "stateMutability": "view",
      "type": "function"
    },
    {
      "inputs": [
        {
          "internalType": "address",
          "name": "newOwner",
          "type": "address"
        }
      ],
      "name": "transferOwnership",
      "outputs": [],
      "stateMutability": "nonpayable",
      "type": "function"
    }
  ],
  "bytecode": "0x60806040526000600a553480156200001657600080fd5b506040516200443e3803806200443e8339810160408190526200003991620005ab565b6200004433620001be565b600180556001600160a01b038316158015906200006957506001600160a01b03821615155b80156200007e57506001600160a01b03841615155b620001065760405162461bcd60e51b815260206004820152604760248201527f4552433732314454466163746f72793a20496e76616c69642074656d706c617460448201527f6520746f6b656e2f636f6d6d756e6974792066656520636f6c6c6563746f72206064820152666164647265737360c81b608482015260a4015b60405180910390fd5b6001600160a01b0381166200016e5760405162461bcd60e51b815260206004820152602760248201527f4552433732314454466163746f72793a20496e76616c696420726f75746572206044820152666164647265737360c81b6064820152608401620000fd565b62000179846200020e565b506200018583620003d1565b50600c80546001600160a01b039283166001600160a01b03199182161790915560028054939092169216919091179055506200062f9050565b600080546001600160a01b038381166001600160a01b0319831681178455604051919092169283917f8be0079c531659141344cd1fd0a4f28419497f9722a3daafe3b4186f6b6457e09190a35050565b600080546001600160a01b031633146200025a5760405162461bcd60e51b815260206004820181905260248201526000805160206200441e8339815191526044820152606401620000fd565b6001600160a01b038216620002d85760405162461bcd60e51b815260206004820152603760248201527f4552433732314454466163746f72793a204552433732312074656d706c61746560448201527f2061646472657373283029204e4f5420414c4c4f5745440000000000000000006064820152608401620000fd565b813b620003285760405162461bcd60e51b815260206004820152601b60248201527f455243373231466163746f72793a204e4f5420434f4e545241435400000000006044820152606401620000fd565b6001600560008282546200033d919062000608565b90915550506040805180820182526001600160a01b038085168083526001602080850191825260058054600090815260069092528682208651815494511515600160a01b026001600160a81b03199095169616959095179290921790935554935192939290917fc0167b92c8eb4a2bad2c05e0134f076fba5d3cd54671a3e8edf13d2e61443bd991a350506005545b919050565b600080546001600160a01b031633146200041d5760405162461bcd60e51b815260206004820181905260248201526000805160206200441e8339815191526044820152606401620000fd565b6001600160a01b0382166200049b5760405162461bcd60e51b815260206004820152603460248201527f4552433230466163746f72793a204552433732312074656d706c61746520616460448201527f6472657373283029204e4f5420414c4c4f5745440000000000000000000000006064820152608401620000fd565b813b620004eb5760405162461bcd60e51b815260206004820152601a60248201527f4552433230466163746f72793a204e4f5420434f4e54524143540000000000006044820152606401620000fd565b6001600b600082825462000500919062000608565b90915550506040805180820182526001600160a01b0380851680835260016020808501918252600b8054600090815260079092528682208651815494511515600160a01b026001600160a81b03199095169616959095179290921790935554935192939290917fdcd16da87b60cea6dbd55a83f73b8a4bf9a54655db58ae0f35b82a2373fc150d91a35050600b54919050565b80516001600160a01b0381168114620003cc57600080fd5b60008060008060808587031215620005c257600080fd5b620005cd8562000593565b9350620005dd6020860162000593565b9250620005ed6040860162000593565b9150620005fd6060860162000593565b905092959194509250565b600082198211156200062a57634e487b7160e01b600052601160045260246000fd5b500190565b613ddf806200063f6000396000f3fe608060405234801561001057600080fd5b50600436106101cf5760003560e01c806382c44204116101045780639a744104116100a2578063e5fc01f011610071578063e5fc01f01461051d578063f2fde38b14610525578063f887ea4014610538578063fec4c7251461054b57600080fd5b80639a744104146104b6578063a33ef2a6146104ef578063bbf8d71f14610502578063c6cf868a1461051557600080fd5b80638f6051af116100de5780638f6051af14610453578063940516991461046657806394be0e881461049b57806395c60305146104ae57600080fd5b806382c44204146103db578063898988691461042f5780638da5cb5b1461044257600080fd5b8063557fcfb01161017157806372f670f01161014b57806372f670f0146103595780637b20bccf14610382578063809d810514610395578063825808b7146103a857600080fd5b8063557fcfb01461031e5780635c70598214610349578063715018a61461035157600080fd5b8063226e7615116101ad578063226e7615146102645780632515422e1461029757806326705c3c146102aa5780633315efd1146102c157600080fd5b8063042ab9b3146101d45780630ffda887146102125780631b434bc714610227575b600080fd5b6101e76101e2366004612b6f565b61055e565b6040805182516001600160a01b03168152602092830151151592810192909252015b60405180910390f35b610225610220366004612b6f565b6105e5565b005b61023a610235366004612bc4565b61062a565b604080516001600160a01b0394851681529284166020840152921691810191909152606001610209565b610287610272366004612c6b565b60096020526000908152604090205460ff1681565b6040519015158152602001610209565b6102256102a5366004612e81565b6109b1565b6102b3600b5481565b604051908152602001610209565b6101e76102cf366004612b6f565b6040805180820190915260008082526020820152506000908152600660209081526040918290208251808401909352546001600160a01b0381168352600160a01b900460ff1615159082015290565b61033161032c3660046130d0565b610c7e565b6040516001600160a01b039091168152602001610209565b6003546102b3565b610225610d1f565b610331610367366004612c6b565b6008602052600090815260409020546001600160a01b031681565b6102b3610390366004612c6b565b610d55565b6102256103a3366004612b6f565b610ee8565b6103bb6103b63660046131f8565b610f5a565b604080516001600160a01b03938416815292909116602083015201610209565b6104106103e9366004612b6f565b6006602052600090815260409020546001600160a01b03811690600160a01b900460ff1682565b604080516001600160a01b039093168352901515602083015201610209565b61033161043d36600461325b565b611132565b6000546001600160a01b0316610331565b6102b3610461366004612c6b565b611403565b610410610474366004612b6f565b6007602052600090815260409020546001600160a01b03811690600160a01b900460ff1682565b6102256104a93660046132f4565b61159e565b600b546102b3565b6104c96104c4366004612bc4565b611b43565b604080516001600160a01b03948516815293909216602084015290820152606001610209565b6102256104fd366004612b6f565b611cc6565b610225610510366004612b6f565b611d3e565b600a546102b3565b6005546102b3565b610225610533366004612c6b565b611dfa565b600c54610331906001600160a01b031681565b6103bb610559366004613446565b611e95565b60408051808201909152600080825260208201526000828152600760209081526040918290208251808401909352546001600160a01b0381168352600160a01b900460ff16151590820152600b5483118015906105ba57508215155b6105df5760405162461bcd60e51b81526004016105d6906134ba565b60405180910390fd5b92915050565b6000546001600160a01b0316331461060f5760405162461bcd60e51b81526004016105d690613503565b6000908152600760205260409020805460ff60a01b19169055565b6000806000600260015414156106525760405162461bcd60e51b81526004016105d690613538565b60026001556106b6610667604086018661356f565b6001818110610678576106786135bf565b905060200201602081019061068d9190612c6b565b3330610699888061356f565b60048181106106aa576106aa6135bf565b9050602002013561212b565b6107866106c387806135d5565b8080601f0160208091040260200160405190810160405280939291908181526020018383808284376000920191909152506107059250505060208901896135d5565b8080601f01602080910402602001604051908101604052809392919081815260200183838082843760009201919091525050505060408901353061074c60608c018c6135d5565b8080601f01602080910402602001604051908101604052809392919081815260200183838082843760009201919091525061113292505050565b92506001600160a01b03831663e38d7cad86356107a6602089018961356f565b6107b360408b018b61356f565b6107c060608d018d61356f565b6107cd60808f018f61356f565b6040518a63ffffffff1660e01b81526004016107f199989796959493929190613762565b6020604051808303816000875af1158015610810573d6000803e3d6000fd5b505050506040513d601f19601f820116820180604052508101906108349190613813565b600c549092506108af906001600160a01b0316610851868061356f565b6004818110610862576108626135bf565b90506020020135868060400190610879919061356f565b600181811061088a5761088a6135bf565b905060200201602081019061089f9190612c6b565b6001600160a01b03169190612278565b6001600160a01b038216635bfe4da06108c8868061356f565b6108d5602089018961356f565b6108e260408b018b61356f565b6040518763ffffffff1660e01b815260040161090396959493929190613830565b6020604051808303816000875af1158015610922573d6000803e3d6000fd5b505050506040513d601f19601f820116820180604052508101906109469190613813565b6040516301fc3d9160e71b81523060048201529091506001600160a01b0384169063fe1ec88090602401600060405180830381600087803b15801561098a57600080fd5b505af115801561099e573d6000803e3d6000fd5b5050600180555092969195509350915050565b600260015414156109d45760405162461bcd60e51b81526004016105d690613538565b6002600155805160321015610a2b5760405162461bcd60e51b815260206004820152601e60248201527f455243373231466163746f72793a20546f6f204d616e79204f7264657273000060448201526064016105d6565b60005b8151811015610c76576000828281518110610a4b57610a4b6135bf565b60200260200101516040015160400151118015610a9c575060006001600160a01b0316828281518110610a8057610a806135bf565b602002602001015160400151602001516001600160a01b031614155b8015610adc575060006001600160a01b0316828281518110610ac057610ac06135bf565b602002602001015160400151600001516001600160a01b031614155b15610bac57610b2f828281518110610af657610af66135bf565b602002602001015160400151602001513330858581518110610b1a57610b1a6135bf565b6020026020010151604001516040015161212b565b610bac828281518110610b4457610b446135bf565b602002602001015160000151838381518110610b6257610b626135bf565b60200260200101516040015160400151848481518110610b8457610b846135bf565b602002602001015160400151602001516001600160a01b03166122789092919063ffffffff16565b818181518110610bbe57610bbe6135bf565b6020026020010151600001516001600160a01b031663361fef49838381518110610bea57610bea6135bf565b602002602001015160200151848481518110610c0857610c086135bf565b6020026020010151604001516040518363ffffffff1660e01b8152600401610c31929190613945565b600060405180830381600087803b158015610c4b57600080fd5b505af1158015610c5f573d6000803e3d6000fd5b505050508080610c6e90613974565b915050610a2e565b505060018055565b3360008181526008602052604081205490916001600160a01b0390911614610d075760405162461bcd60e51b815260206004820152603660248201527f455243373231466163746f72793a204f4e4c592045524337323120494e5354416044820152754e43452046524f4d20455243373231464143544f525960501b60648201526084016105d6565b610d15868686868633612363565b9695505050505050565b6000546001600160a01b03163314610d495760405162461bcd60e51b81526004016105d690613503565b610d536000612648565b565b600080546001600160a01b03163314610d805760405162461bcd60e51b81526004016105d690613503565b6001600160a01b038216610df35760405162461bcd60e51b815260206004820152603460248201527f4552433230466163746f72793a204552433732312074656d706c617465206164604482015273191c995cdcca0c0a481393d50810531313d5d15160621b60648201526084016105d6565b813b610e415760405162461bcd60e51b815260206004820152601a60248201527f4552433230466163746f72793a204e4f5420434f4e545241435400000000000060448201526064016105d6565b6001600b6000828254610e54919061398f565b90915550506040805180820182526001600160a01b0380851680835260016020808501918252600b8054600090815260079092528682208651815494511515600160a01b026001600160a81b03199095169616959095179290921790935554935192939290917fdcd16da87b60cea6dbd55a83f73b8a4bf9a54655db58ae0f35b82a2373fc150d91a35050600b545b919050565b6000546001600160a01b03163314610f125760405162461bcd60e51b81526004016105d690613503565b6005548111158015610f2357508015155b610f3f5760405162461bcd60e51b81526004016105d6906139a7565b6000908152600660205260409020805460ff60a01b19169055565b60008060026001541415610f805760405162461bcd60e51b81526004016105d690613538565b600260015561101b610f9285806135d5565b8080601f016020809104026020016040519081016040528093929190818152602001838380828437600092019190915250610fd49250505060208701876135d5565b8080601f01602080910402602001604051908101604052809392919081815260200183838082843760009201919091525050505060408701353061074c60608a018a6135d5565b91506001600160a01b03821663e38d7cad843561103b602087018761356f565b611048604089018961356f565b61105560608b018b61356f565b61106260808d018d61356f565b6040518a63ffffffff1660e01b815260040161108699989796959493929190613762565b6020604051808303816000875af11580156110a5573d6000803e3d6000fd5b505050506040513d601f19601f820116820180604052508101906110c99190613813565b6040516301fc3d9160e71b81523060048201529091506001600160a01b0383169063fe1ec88090602401600060405180830381600087803b15801561110d57600080fd5b505af1158015611121573d6000803e3d6000fd5b505060018055509194909350915050565b6000600554841115801561114557508315155b6111615760405162461bcd60e51b81526004016105d6906139a7565b6000848152600660209081526040918290208251808401909352546001600160a01b0381168352600160a01b900460ff1615159082018190526111fd5760405162461bcd60e51b815260206004820152602e60248201527f4552433732314454466163746f72793a20455243373231546f6b656e2054656d60448201526d1c1b185d1948191a5cd8589b195960921b60648201526084016105d6565b805161120890612698565b91506001600160a01b038216611288576040805162461bcd60e51b81526020600482015260248101919091527f4552433732314454466163746f72793a204661696c656420746f20706572666f60448201527f726d206d696e696d616c206465706c6f79206f662061206e657720746f6b656e60648201526084016105d6565b6001600160a01b0382166000818152600860205260409081902080546001600160a01b03191683179055516370c166d760e01b81528391906370c166d7906112de9033908c908c9030908c908c906004016139f3565b6020604051808303816000875af11580156112fd573d6000803e3d6000fd5b505050506040513d601f19601f820116820180604052508101906113219190613a67565b61138a5760405162461bcd60e51b815260206004820152603460248201527f4552433732314454466163746f72793a20556e61626c6520746f20696e697469604482015273616c697a6520746f6b656e20696e7374616e636560601b60648201526084016105d6565b81600001516001600160a01b0316836001600160a01b03167f46f5e3cee761854fc3892024ae7aa2c832007dff583603ce093f177ebd9c4c968a338b896040516113d79493929190613a84565b60405180910390a36001600360008282546113f2919061398f565b909155509298975050505050505050565b600080546001600160a01b0316331461142e5760405162461bcd60e51b81526004016105d690613503565b6001600160a01b0382166114aa5760405162461bcd60e51b815260206004820152603760248201527f4552433732314454466163746f72793a204552433732312074656d706c61746560448201527f2061646472657373283029204e4f5420414c4c4f57454400000000000000000060648201526084016105d6565b813b6114f85760405162461bcd60e51b815260206004820152601b60248201527f455243373231466163746f72793a204e4f5420434f4e5452414354000000000060448201526064016105d6565b60016005600082825461150b919061398f565b90915550506040805180820182526001600160a01b038085168083526001602080850191825260058054600090815260069092528682208651815494511515600160a01b026001600160a81b03199095169616959095179290921790935554935192939290917fc0167b92c8eb4a2bad2c05e0134f076fba5d3cd54671a3e8edf13d2e61443bd991a35050600554919050565b600260015414156115c15760405162461bcd60e51b81526004016105d690613538565b60026001558051603210156116185760405162461bcd60e51b815260206004820152601e60248201527f455243373231466163746f72793a20546f6f204d616e79204f7264657273000060448201526064016105d6565b60005b8151811015610c7657600080600084848151811061163b5761163b6135bf565b6020026020010151600001516001600160a01b031663397b37436040518163ffffffff1660e01b8152600401606060405180830381865afa158015611684573d6000803e3d6000fd5b505050506040513d601f19601f820116820180604052508101906116a89190613acc565b9250925092506000811180156116c657506001600160a01b03821615155b80156116da57506001600160a01b03831615155b1561171d576116eb8233308461212b565b61171d858581518110611700576117006135bf565b6020908102919091010151516001600160a01b0384169083612278565b6000858581518110611731576117316135bf565b60200260200101516080015160400151118015611782575060006001600160a01b0316858581518110611766576117666135bf565b602002602001015160800151600001516001600160a01b031614155b80156117c2575060006001600160a01b03168585815181106117a6576117a66135bf565b602002602001015160800151602001516001600160a01b031614155b15611892576118158585815181106117dc576117dc6135bf565b602002602001015160800151602001513330888881518110611800576118006135bf565b6020026020010151608001516040015161212b565b61189285858151811061182a5761182a6135bf565b602002602001015160000151868681518110611848576118486135bf565b6020026020010151608001516040015187878151811061186a5761186a6135bf565b602002602001015160800151602001516001600160a01b03166122789092919063ffffffff16565b60008585815181106118a6576118a66135bf565b602002602001015160600151604001511180156118f7575060006001600160a01b03168585815181106118db576118db6135bf565b602002602001015160600151602001516001600160a01b031614155b8015611937575060006001600160a01b031685858151811061191b5761191b6135bf565b602002602001015160600151600001516001600160a01b031614155b15611a075761198a858581518110611951576119516135bf565b602002602001015160600151602001513330888881518110611975576119756135bf565b6020026020010151606001516040015161212b565b611a0785858151811061199f5761199f6135bf565b6020026020010151600001518686815181106119bd576119bd6135bf565b602002602001015160600151604001518787815181106119df576119df6135bf565b602002602001015160600151602001516001600160a01b03166122789092919063ffffffff16565b611a38858581518110611a1c57611a1c6135bf565b6020026020010151600001513330670de0b6b3a764000061212b565b848481518110611a4a57611a4a6135bf565b6020026020010151600001516001600160a01b03166379d9d7f3868681518110611a7657611a766135bf565b602002602001015160200151878781518110611a9457611a946135bf565b602002602001015160400151888881518110611ab257611ab26135bf565b602002602001015160600151898981518110611ad057611ad06135bf565b6020026020010151608001516040518563ffffffff1660e01b8152600401611afb9493929190613b0f565b600060405180830381600087803b158015611b1557600080fd5b505af1158015611b29573d6000803e3d6000fd5b505050505050508080611b3b90613974565b91505061161b565b600080600060026001541415611b6b5760405162461bcd60e51b81526004016105d690613538565b6002600155611b7d6106c387806135d5565b92506001600160a01b03831663e38d7cad8635611b9d602089018961356f565b611baa60408b018b61356f565b611bb760608d018d61356f565b611bc460808f018f61356f565b6040518a63ffffffff1660e01b8152600401611be899989796959493929190613762565b6020604051808303816000875af1158015611c07573d6000803e3d6000fd5b505050506040513d601f19601f82011682018060405250810190611c2b9190613813565b91506001600160a01b038216638b96412b611c496020870187612c6b565b611c56602088018861356f565b611c6360408a018a61356f565b6040518663ffffffff1660e01b8152600401611c83959493929190613b62565b6020604051808303816000875af1158015611ca2573d6000803e3d6000fd5b505050506040513d601f19601f820116820180604052508101906109469190613ba6565b6000546001600160a01b03163314611cf05760405162461bcd60e51b81526004016105d690613503565b6005548111158015611d0157508015155b611d1d5760405162461bcd60e51b81526004016105d6906139a7565b6000908152600660205260409020805460ff60a01b1916600160a01b179055565b6000546001600160a01b03163314611d685760405162461bcd60e51b81526004016105d690613503565b600b548111158015611d7957508015155b611dd95760405162461bcd60e51b815260206004820152602b60248201527f45524332304454466163746f72793a2054656d706c61746520696e646578206460448201526a1bd95cdb9d08195e1a5cdd60aa1b60648201526084016105d6565b6000908152600760205260409020805460ff60a01b1916600160a01b179055565b6000546001600160a01b03163314611e245760405162461bcd60e51b81526004016105d690613503565b6001600160a01b038116611e895760405162461bcd60e51b815260206004820152602660248201527f4f776e61626c653a206e6577206f776e657220697320746865207a65726f206160448201526564647265737360d01b60648201526084016105d6565b611e9281612648565b50565b60008060026001541415611ebb5760405162461bcd60e51b81526004016105d690613538565b6002600155611f56611ecd86806135d5565b8080601f016020809104026020016040519081016040528093929190818152602001838380828437600092019190915250611f0f9250505060208801886135d5565b8080601f01602080910402602001604051908101604052809392919081815260200183838082843760009201919091525050505060408801353061074c60608b018b6135d5565b91506001600160a01b03821663e38d7cad8535611f76602088018861356f565b611f8360408a018a61356f565b611f9060608c018c61356f565b611f9d60808e018e61356f565b6040518a63ffffffff1660e01b8152600401611fc199989796959493929190613762565b6020604051808303816000875af1158015611fe0573d6000803e3d6000fd5b505050506040513d601f19601f820116820180604052508101906120049190613813565b90506001600160a01b03811663191c918a6120226020860186612c6b565b6020860135604087013561203c6080890160608a01613bbf565b61204c60a08a0160808b01612c6b565b60405160e087901b6001600160e01b03191681526001600160a01b0395861660048201526024810194909452604484019290925215156064830152909116608482015260a401600060405180830381600087803b1580156120ac57600080fd5b505af11580156120c0573d6000803e3d6000fd5b50506040516301fc3d9160e71b81523060048201526001600160a01b038516925063fe1ec8809150602401600060405180830381600087803b15801561210557600080fd5b505af1158015612119573d6000803e3d6000fd5b50506001805550919590945092505050565b6040516370a0823160e01b81526001600160a01b038381166004830152600091908616906370a0823190602401602060405180830381865afa158015612175573d6000803e3d6000fd5b505050506040513d601f19601f820116820180604052508101906121999190613ba6565b90506121b06001600160a01b038616858585612728565b6121ba8183612760565b6040516370a0823160e01b81526001600160a01b0385811660048301528716906370a0823190602401602060405180830381865afa158015612200573d6000803e3d6000fd5b505050506040513d601f19601f820116820180604052508101906122249190613ba6565b146122715760405162461bcd60e51b815260206004820152601d60248201527f5472616e7366657220616d6f756e7420776173206e6f7420657861637400000060448201526064016105d6565b5050505050565b604051636eb1769f60e11b81523060048201526001600160a01b038381166024830152600091839186169063dd62ed3e90604401602060405180830381865afa1580156122c9573d6000803e3d6000fd5b505050506040513d601f19601f820116820180604052508101906122ed9190613ba6565b6122f7919061398f565b6040516001600160a01b03851660248201526044810182905290915061235d90859063095ea7b360e01b906064015b60408051601f198184030181529190526020810180516001600160e01b03166001600160e01b031990931692909217909152612773565b50505050565b600083600081518110612378576123786135bf565b6020026020010151600014156123de5760405162461bcd60e51b815260206004820152602560248201527f4552433230466163746f72793a207a65726f20636170206973206e6f7420616c6044820152641b1bddd95960da1b60648201526084016105d6565b600b5487111580156123ef57508615155b61240b5760405162461bcd60e51b81526004016105d6906134ba565b6000878152600760209081526040918290208251808401909352546001600160a01b0381168352600160a01b900460ff1615159082018190526124a45760405162461bcd60e51b815260206004820152602b60248201527f4552433230466163746f72793a20455243373231546f6b656e2054656d706c6160448201526a1d1948191a5cd8589b195960aa1b60648201526084016105d6565b80516124af90612698565b6001600160a01b0381166000818152600960205260409020805460ff191660011790559092506125475760405162461bcd60e51b815260206004820152603e60248201527f455243373231466163746f72793a204661696c656420746f20706572666f726d60448201527f206d696e696d616c206465706c6f79206f662061206e657720746f6b656e000060648201526084016105d6565b80600001516001600160a01b0316826001600160a01b03167f567699dbf7c5f63a51a42fd451f5e065bca0dfc723adf2cc498bbb7cfb780b9089600081518110612593576125936135bf565b60200260200101518a6001815181106125ae576125ae6135bf565b6020026020010151896000815181106125c9576125c96135bf565b6020026020010151886040516125e29493929190613bdc565b60405180910390a36001600a60008282546125fd919061398f565b90915550506040805160a081018252888152602081018890529081018690526001600160a01b03841660808201526060810185905261263c838261284a565b50509695505050505050565b600080546001600160a01b038381166001600160a01b0319831681178455604051919092169283917f8be0079c531659141344cd1fd0a4f28419497f9722a3daafe3b4186f6b6457e09190a35050565b6000808260601b9050604051733d602d80600a3d3981f3363d3d373d3d3d363d7360601b81528160148201526e5af43d82803e903d91602b57fd5bf360881b60288201526037816000f06040516001600160a01b03821681529093507f117c72e6c25f0a072e36e148df71468ce2f3dbe7defec5b2c257a6e3eb65278c915060200160405180910390a150919050565b6040516001600160a01b038085166024830152831660448201526064810182905261235d9085906323b872dd60e01b90608401612326565b600061276c828461398f565b9392505050565b60006127c8826040518060400160405280602081526020017f5361666545524332303a206c6f772d6c6576656c2063616c6c206661696c6564815250856001600160a01b03166129f79092919063ffffffff16565b80519091501561284557808060200190518101906127e69190613a67565b6128455760405162461bcd60e51b815260206004820152602a60248201527f5361666545524332303a204552433230206f7065726174696f6e20646964206e6044820152691bdd081cdd58d8d9595960b21b60648201526084016105d6565b505050565b6040805160038082526080820190925283916000919060208201606080368337019050509050826080015181600081518110612888576128886135bf565b6001600160a01b0392831660209182029290920101526002548251911690829060019081106128b9576128b96135bf565b6001600160a01b039283166020918202929092010152600c548251911690829060029081106128ea576128ea6135bf565b60200260200101906001600160a01b031690816001600160a01b031681525050816001600160a01b031663b3998be08460000151856020015184876040015188606001516040518663ffffffff1660e01b815260040161294e959493929190613cd1565b6020604051808303816000875af115801561296d573d6000803e3d6000fd5b505050506040513d601f19601f820116820180604052508101906129919190613a67565b61235d5760405162461bcd60e51b815260206004820152603160248201527f4552433230466163746f72793a20556e61626c6520746f20696e697469616c696044820152707a6520746f6b656e20696e7374616e636560781b60648201526084016105d6565b6060612a068484600085612a0e565b949350505050565b606082471015612a6f5760405162461bcd60e51b815260206004820152602660248201527f416464726573733a20696e73756666696369656e742062616c616e636520666f6044820152651c8818d85b1b60d21b60648201526084016105d6565b843b612abd5760405162461bcd60e51b815260206004820152601d60248201527f416464726573733a2063616c6c20746f206e6f6e2d636f6e747261637400000060448201526064016105d6565b600080866001600160a01b03168587604051612ad99190613d7a565b60006040518083038185875af1925050503d8060008114612b16576040519150601f19603f3d011682016040523d82523d6000602084013e612b1b565b606091505b5091509150612b2b828286612b36565b979650505050505050565b60608315612b4557508161276c565b825115612b555782518084602001fd5b8160405162461bcd60e51b81526004016105d69190613d96565b600060208284031215612b8157600080fd5b5035919050565b600060808284031215612b9a57600080fd5b50919050565b600060a08284031215612b9a57600080fd5b600060608284031215612b9a57600080fd5b600080600060608486031215612bd957600080fd5b83356001600160401b0380821115612bf057600080fd5b612bfc87838801612b88565b94506020860135915080821115612c1257600080fd5b612c1e87838801612ba0565b93506040860135915080821115612c3457600080fd5b50612c4186828701612bb2565b9150509250925092565b6001600160a01b0381168114611e9257600080fd5b8035610ee381612c4b565b600060208284031215612c7d57600080fd5b813561276c81612c4b565b634e487b7160e01b600052604160045260246000fd5b60405161010081016001600160401b0381118282101715612cc157612cc1612c88565b60405290565b604051606081016001600160401b0381118282101715612cc157612cc1612c88565b60405160a081016001600160401b0381118282101715612cc157612cc1612c88565b604051601f8201601f191681016001600160401b0381118282101715612d3357612d33612c88565b604052919050565b60006001600160401b03821115612d5457612d54612c88565b5060051b60200190565b803560ff81168114610ee357600080fd5b600082601f830112612d8057600080fd5b81356001600160401b03811115612d9957612d99612c88565b612dac601f8201601f1916602001612d0b565b818152846020838601011115612dc157600080fd5b816020850160208301376000918101602001919091529392505050565b60006101008284031215612df157600080fd5b612df9612c9e565b9050612e0482612c60565b8152612e1260208301612c60565b602082015260408201356040820152612e2d60608301612d5e565b60608201526080820135608082015260a082013560a082015260c082013560c082015260e08201356001600160401b03811115612e6957600080fd5b612e7584828501612d6f565b60e08301525092915050565b60006020808385031215612e9457600080fd5b82356001600160401b0380821115612eab57600080fd5b818501915085601f830112612ebf57600080fd5b8135612ed2612ecd82612d3b565b612d0b565b81815260059190911b83018401908481019088831115612ef157600080fd5b8585015b83811015612f7a57803585811115612f0d5760008081fd5b86016060818c03601f1901811315612f255760008081fd5b612f2d612cc7565b89830135612f3a81612c4b565b81526040838101358b830152918301359188831115612f595760008081fd5b612f678e8c85870101612dde565b9082015285525050918601918601612ef5565b5098975050505050505050565b600082601f830112612f9857600080fd5b81356020612fa8612ecd83612d3b565b82815260059290921b84018101918181019086841115612fc757600080fd5b8286015b84811015612feb578035612fde81612c4b565b8352918301918301612fcb565b509695505050505050565b600082601f83011261300757600080fd5b81356020613017612ecd83612d3b565b82815260059290921b8401810191818101908684111561303657600080fd5b8286015b84811015612feb578035835291830191830161303a565b600082601f83011261306257600080fd5b81356020613072612ecd83612d3b565b82815260059290921b8401810191818101908684111561309157600080fd5b8286015b84811015612feb5780356001600160401b038111156130b45760008081fd5b6130c28986838b0101612d6f565b845250918301918301613095565b600080600080600060a086880312156130e857600080fd5b853594506020808701356001600160401b038082111561310757600080fd5b818901915089601f83011261311b57600080fd5b8135613129612ecd82612d3b565b81815260059190911b8301840190848101908c83111561314857600080fd5b8585015b83811015613180578035858111156131645760008081fd5b6131728f89838a0101612d6f565b84525091860191860161314c565b5098505050604089013592508083111561319957600080fd5b6131a58a848b01612f87565b955060608901359250808311156131bb57600080fd5b6131c78a848b01612ff6565b945060808901359250808311156131dd57600080fd5b50506131eb88828901613051565b9150509295509295909350565b6000806040838503121561320b57600080fd5b82356001600160401b038082111561322257600080fd5b61322e86838701612b88565b9350602085013591508082111561324457600080fd5b5061325185828601612ba0565b9150509250929050565b600080600080600060a0868803121561327357600080fd5b85356001600160401b038082111561328a57600080fd5b61329689838a01612d6f565b965060208801359150808211156132ac57600080fd5b6132b889838a01612d6f565b955060408801359450606088013591506132d182612c4b565b909250608087013590808211156132e757600080fd5b506131eb88828901612d6f565b6000602080838503121561330757600080fd5b82356001600160401b038082111561331e57600080fd5b818501915085601f83011261333257600080fd5b8135613340612ecd82612d3b565b81815260059190911b8301840190848101908883111561335f57600080fd5b8585015b83811015612f7a5780358581111561337a57600080fd5b8601808b0360e0601f198201121561339157600080fd5b613399612ce9565b898301356133a681612c4b565b815260408301356133b681612c4b565b818b015260608381013560408301526080840135898111156133d757600080fd5b6133e58f8d83880101612dde565b828401525080609f19840112156133fb57600080fd5b50613404612cc7565b915060a083013561341481612c4b565b825260c083013561342481612c4b565b828b015260e09290920135604082015260808201528352918601918601613363565b600080600060e0848603121561345b57600080fd5b83356001600160401b038082111561347257600080fd5b61347e87838801612b88565b9450602086013591508082111561349457600080fd5b506134a186828701612ba0565b9250506134b18560408601612ba0565b90509250925092565b60208082526029908201527f4552433230466163746f72793a2054656d706c61746520696e64657820646f656040820152681cdb9d08195e1a5cdd60ba1b606082015260800190565b6020808252818101527f4f776e61626c653a2063616c6c6572206973206e6f7420746865206f776e6572604082015260600190565b6020808252601f908201527f5265656e7472616e637947756172643a207265656e7472616e742063616c6c00604082015260600190565b6000808335601e1984360301811261358657600080fd5b8301803591506001600160401b038211156135a057600080fd5b6020019150600581901b36038213156135b857600080fd5b9250929050565b634e487b7160e01b600052603260045260246000fd5b6000808335601e198436030181126135ec57600080fd5b8301803591506001600160401b0382111561360657600080fd5b6020019150368190038213156135b857600080fd5b81835281816020850137506000828201602090810191909152601f909101601f19169091010190565b6000808335601e1984360301811261365b57600080fd5b83016020810192503590506001600160401b0381111561367a57600080fd5b8036038313156135b857600080fd5b8183526000602080850194508260005b858110156136c75781356136ac81612c4b565b6001600160a01b031687529582019590820190600101613699565b509495945050505050565b81835260006001600160fb1b038311156136eb57600080fd5b8260051b8083602087013760009401602001938452509192915050565b818352600060208085019450848460051b86018460005b878110156137555783830389526137368288613644565b61374185828461361b565b9a87019a945050509084019060010161371f565b5090979650505050505050565b89815260a0602082018190528101889052600060c060058a901b830181019083018b835b8c8110156137c35785840360bf190183526137a1828f613644565b6137ac86828461361b565b955050506020928301929190910190600101613786565b50505082810360408401526137d981898b613689565b905082810360608401526137ee8187896136d2565b90508281036080840152613803818587613708565b9c9b505050505050505050505050565b60006020828403121561382557600080fd5b815161276c81612c4b565b60608152600061384460608301888a6136d2565b82810360208401526138578187896136d2565b9050828103604084015261386c818587613689565b9998505050505050505050565b60005b8381101561389457818101518382015260200161387c565b8381111561235d5750506000910152565b600081518084526138bd816020860160208601613879565b601f01601f19169290920160200192915050565b600061010060018060a01b03808451168552806020850151166020860152506040830151604085015260ff60608401511660608501526080830151608085015260a083015160a085015260c083015160c085015260e08301518160e086015261393c828601826138a5565b95945050505050565b828152604060208201526000612a0660408301846138d1565b634e487b7160e01b600052601160045260246000fd5b60006000198214156139885761398861395e565b5060010190565b600082198211156139a2576139a261395e565b500190565b6020808252602c908201527f4552433732314454466163746f72793a2054656d706c61746520696e6465782060408201526b191bd95cdb9d08195e1a5cdd60a21b606082015260800190565b600060018060a01b03808916835260c06020840152613a1560c08401896138a5565b8381036040850152613a2781896138a5565b90508187166060850152818616608085015283810360a0850152613a4b81866138a5565b9a9950505050505050505050565b8015158114611e9257600080fd5b600060208284031215613a7957600080fd5b815161276c81613a59565b608081526000613a9760808301876138a5565b6001600160a01b03861660208401528281036040840152613ab881866138a5565b90508281036060840152612b2b81856138a5565b600080600060608486031215613ae157600080fd5b8351613aec81612c4b565b6020850151909350613afd81612c4b565b80925050604084015190509250925092565b600060018060a01b03808716835285602084015260c06040840152613b3760c08401866138d1565b915080845116606084015280602085015116608084015250604083015160a083015295945050505050565b6001600160a01b0386168152606060208201819052600090613b879083018688613689565b8281036040840152613b9a8185876136d2565b98975050505050505050565b600060208284031215613bb857600080fd5b5051919050565b600060208284031215613bd157600080fd5b813561276c81613a59565b608081526000613bef60808301876138a5565b8281036020840152613c0181876138a5565b604084019590955250506001600160a01b039190911660609091015292915050565b600081518084526020808501945080840160005b838110156136c75781516001600160a01b031687529582019590820190600101613c37565b600081518084526020808501945080840160005b838110156136c757815187529582019590820190600101613c70565b6000815180845260208085019450848260051b860182860160005b85811015613755578383038952613cbf8383516138a5565b98850198925090840190600101613ca7565b600060a0820160a0835280885180835260c08501915060c08160051b86010192506020808b0160005b83811015613d285760bf19888703018552613d168683516138a5565b95509382019390820190600101613cfa565b505085840381870152505050613d3e8188613c23565b90508281036040840152613d528187613c23565b90508281036060840152613d668186613c5c565b90508281036080840152613b9a8185613c8c565b60008251613d8c818460208701613879565b9190910192915050565b60208152600061276c60208301846138a556fea2646970667358221220e4d745662a7f35d16fb1f7d5b1fd50ba726af8f2ffdc51a6e87476bd1a42bc7564736f6c634300080a00334f776e61626c653a2063616c6c6572206973206e6f7420746865206f776e6572",
  "linkReferences": {},
  "deployedLinkReferences": {}
}