{
  "_format": "hh-sol-artifact-1",
  "contractName": "ERC721Factory",
  "sourceName": "contracts/ERC721Factory.sol",
  "abi": [
    {
      "inputs": [
        {
          "internalType": "address",
          "name": "_template721",
          "type": "address"
        },
        {
          "internalType": "address",
          "name": "_template",
          "type": "address"
        },
        {
          "internalType": "address",
          "name": "_collector",
          "type": "address"
        },
        {
          "internalType": "address",
          "name": "_router",
          "type": "address"
        },
        {
          "internalType": "address",
          "name": "_metadata",
          "type": "address"
        }
      ],
      "stateMutability": "nonpayable",
      "type": "constructor"
    },
    {
      "anonymous": false,
      "inputs": [
        {
          "indexed": false,
          "internalType": "address",
          "name": "instance",
          "type": "address"
        }
      ],
      "name": "InstanceDeployed",
      "type": "event"
    },
    {
      "anonymous": false,
      "inputs": [
        {
          "indexed": true,
          "internalType": "address",
          "name": "newTokenAddress",
          "type": "address"
        },
        {
          "indexed": true,
          "internalType": "address",
          "name": "templateAddress",
          "type": "address"
        },
        {
          "indexed": true,
          "internalType": "string",
          "name": "tokenName",
          "type": "string"
        },
        {
          "indexed": false,
          "internalType": "address",
          "name": "admin",
          "type": "address"
        }
      ],
      "name": "NFTCreated",
      "type": "event"
    },
    {
      "anonymous": false,
      "inputs": [
        {
          "indexed": true,
          "internalType": "address",
          "name": "previousOwner",
          "type": "address"
        },
        {
          "indexed": true,
          "internalType": "address",
          "name": "newOwner",
          "type": "address"
        }
      ],
      "name": "OwnershipTransferred",
      "type": "event"
    },
    {
      "anonymous": false,
      "inputs": [
        {
          "indexed": true,
          "internalType": "address",
          "name": "newTokenAddress",
          "type": "address"
        },
        {
          "indexed": true,
          "internalType": "address",
          "name": "templateAddress",
          "type": "address"
        },
        {
          "indexed": true,
          "internalType": "string",
          "name": "tokenName",
          "type": "string"
        }
      ],
      "name": "TokenCreated",
      "type": "event"
    },
    {
      "anonymous": false,
      "inputs": [
        {
          "indexed": true,
          "internalType": "address",
          "name": "tokenAddress",
          "type": "address"
        },
        {
          "indexed": false,
          "internalType": "string",
          "name": "tokenName",
          "type": "string"
        },
        {
          "indexed": false,
          "internalType": "string",
          "name": "tokenSymbol",
          "type": "string"
        },
        {
          "indexed": false,
          "internalType": "uint256",
          "name": "tokenCap",
          "type": "uint256"
        },
        {
          "indexed": true,
          "internalType": "address",
          "name": "registeredBy",
          "type": "address"
        }
      ],
      "name": "TokenRegistered",
      "type": "event"
    },
    {
      "inputs": [
        {
          "internalType": "address",
          "name": "_templateAddress",
          "type": "address"
        }
      ],
      "name": "add721TokenTemplate",
      "outputs": [
        {
          "internalType": "uint256",
          "name": "",
          "type": "uint256"
        }
      ],
      "stateMutability": "nonpayable",
      "type": "function"
    },
    {
      "inputs": [
        {
          "internalType": "address",
          "name": "_templateAddress",
          "type": "address"
        }
      ],
      "name": "addTokenTemplate",
      "outputs": [
        {
          "internalType": "uint256",
          "name": "",
          "type": "uint256"
        }
      ],
      "stateMutability": "nonpayable",
      "type": "function"
    },
    {
      "inputs": [
        {
          "internalType": "string",
          "name": "name",
          "type": "string"
        },
        {
          "internalType": "string",
          "name": "symbol",
          "type": "string"
        },
        {
          "internalType": "uint256",
          "name": "cap",
          "type": "uint256"
        },
        {
          "internalType": "uint256",
          "name": "_templateIndex",
          "type": "uint256"
        },
        {
          "internalType": "address",
          "name": "minter",
          "type": "address"
        },
        {
          "internalType": "address",
          "name": "feeManager",
          "type": "address"
        }
      ],
      "name": "createToken",
      "outputs": [
        {
          "internalType": "address",
          "name": "token",
          "type": "address"
        }
      ],
      "stateMutability": "nonpayable",
      "type": "function"
    },
    {
      "inputs": [
        {
          "internalType": "string",
          "name": "name",
          "type": "string"
        },
        {
          "internalType": "string",
          "name": "symbol",
          "type": "string"
        },
        {
          "internalType": "bytes",
          "name": "_data",
          "type": "bytes"
        },
        {
          "internalType": "bytes",
          "name": "_flags",
          "type": "bytes"
        },
        {
          "internalType": "uint256",
          "name": "_templateIndex",
          "type": "uint256"
        }
      ],
      "name": "deployERC721Contract",
      "outputs": [
        {
          "internalType": "address",
          "name": "token",
          "type": "address"
        }
      ],
      "stateMutability": "nonpayable",
      "type": "function"
    },
    {
      "inputs": [
        {
          "internalType": "uint256",
          "name": "_index",
          "type": "uint256"
        }
      ],
      "name": "disable721TokenTemplate",
      "outputs": [],
      "stateMutability": "nonpayable",
      "type": "function"
    },
    {
      "inputs": [
        {
          "internalType": "uint256",
          "name": "_index",
          "type": "uint256"
        }
      ],
      "name": "disableTokenTemplate",
      "outputs": [],
      "stateMutability": "nonpayable",
      "type": "function"
    },
    {
      "inputs": [
        {
          "internalType": "address",
          "name": "",
          "type": "address"
        }
      ],
      "name": "erc20List",
      "outputs": [
        {
          "internalType": "bool",
          "name": "",
          "type": "bool"
        }
      ],
      "stateMutability": "view",
      "type": "function"
    },
    {
      "inputs": [
        {
          "internalType": "address",
          "name": "",
          "type": "address"
        }
      ],
      "name": "erc721List",
      "outputs": [
        {
          "internalType": "address",
          "name": "",
          "type": "address"
        }
      ],
      "stateMutability": "view",
      "type": "function"
    },
    {
      "inputs": [],
      "name": "getCurrentNFTCount",
      "outputs": [
        {
          "internalType": "uint256",
          "name": "",
          "type": "uint256"
        }
      ],
      "stateMutability": "view",
      "type": "function"
    },
    {
      "inputs": [],
      "name": "getCurrentNFTTemplateCount",
      "outputs": [
        {
          "internalType": "uint256",
          "name": "",
          "type": "uint256"
        }
      ],
      "stateMutability": "view",
      "type": "function"
    },
    {
      "inputs": [],
      "name": "getCurrentTemplateCount",
      "outputs": [
        {
          "internalType": "uint256",
          "name": "",
          "type": "uint256"
        }
      ],
      "stateMutability": "view",
      "type": "function"
    },
    {
      "inputs": [],
      "name": "getCurrentTokenCount",
      "outputs": [
        {
          "internalType": "uint256",
          "name": "",
          "type": "uint256"
        }
      ],
      "stateMutability": "view",
      "type": "function"
    },
    {
      "inputs": [
        {
          "internalType": "uint256",
          "name": "_index",
          "type": "uint256"
        }
      ],
      "name": "getNFTTemplate",
      "outputs": [
        {
          "components": [
            {
              "internalType": "address",
              "name": "templateAddress",
              "type": "address"
            },
            {
              "internalType": "bool",
              "name": "isActive",
              "type": "bool"
            }
          ],
          "internalType": "struct ERC721Factory.Template",
          "name": "",
          "type": "tuple"
        }
      ],
      "stateMutability": "view",
      "type": "function"
    },
    {
      "inputs": [],
      "name": "getOPFFee",
      "outputs": [
        {
          "internalType": "uint256",
          "name": "",
          "type": "uint256"
        }
      ],
      "stateMutability": "view",
      "type": "function"
    },
    {
      "inputs": [
        {
          "internalType": "uint256",
          "name": "_index",
          "type": "uint256"
        }
      ],
      "name": "getTokenTemplate",
      "outputs": [
        {
          "components": [
            {
              "internalType": "address",
              "name": "templateAddress",
              "type": "address"
            },
            {
              "internalType": "bool",
              "name": "isActive",
              "type": "bool"
            }
          ],
          "internalType": "struct ERC721Factory.Template",
          "name": "",
          "type": "tuple"
        }
      ],
      "stateMutability": "view",
      "type": "function"
    },
    {
      "inputs": [
        {
          "internalType": "uint256",
          "name": "",
          "type": "uint256"
        }
      ],
      "name": "nftTemplateList",
      "outputs": [
        {
          "internalType": "address",
          "name": "templateAddress",
          "type": "address"
        },
        {
          "internalType": "bool",
          "name": "isActive",
          "type": "bool"
        }
      ],
      "stateMutability": "view",
      "type": "function"
    },
    {
      "inputs": [],
      "name": "owner",
      "outputs": [
        {
          "internalType": "address",
          "name": "",
          "type": "address"
        }
      ],
      "stateMutability": "view",
      "type": "function"
    },
    {
      "inputs": [
        {
          "internalType": "uint256",
          "name": "_index",
          "type": "uint256"
        }
      ],
      "name": "reactivate721TokenTemplate",
      "outputs": [],
      "stateMutability": "nonpayable",
      "type": "function"
    },
    {
      "inputs": [
        {
          "internalType": "uint256",
          "name": "_index",
          "type": "uint256"
        }
      ],
      "name": "reactivateTokenTemplate",
      "outputs": [],
      "stateMutability": "nonpayable",
      "type": "function"
    },
    {
      "inputs": [],
      "name": "renounceOwnership",
      "outputs": [],
      "stateMutability": "nonpayable",
      "type": "function"
    },
    {
      "inputs": [],
      "name": "router",
      "outputs": [
        {
          "internalType": "address",
          "name": "",
          "type": "address"
        }
      ],
      "stateMutability": "view",
      "type": "function"
    },
    {
      "inputs": [],
      "name": "templateCount",
      "outputs": [
        {
          "internalType": "uint256",
          "name": "",
          "type": "uint256"
        }
      ],
      "stateMutability": "view",
      "type": "function"
    },
    {
      "inputs": [
        {
          "internalType": "uint256",
          "name": "",
          "type": "uint256"
        }
      ],
      "name": "templateList",
      "outputs": [
        {
          "internalType": "address",
          "name": "templateAddress",
          "type": "address"
        },
        {
          "internalType": "bool",
          "name": "isActive",
          "type": "bool"
        }
      ],
      "stateMutability": "view",
      "type": "function"
    },
    {
      "inputs": [
        {
          "internalType": "address",
          "name": "newOwner",
          "type": "address"
        }
      ],
      "name": "transferOwnership",
      "outputs": [],
      "stateMutability": "nonpayable",
      "type": "function"
    }
  ],
  "bytecode": "0x60806040526000600c553480156200001657600080fd5b5060405162001f0f38038062001f0f8339810160408190526200003991620003d2565b6200004d620000476200011c565b62000120565b6001600160a01b038416158015906200006e57506001600160a01b03831615155b80156200008357506001600160a01b03851615155b80156200009857506001600160a01b03811615155b620000c05760405162461bcd60e51b8152600401620000b79062000441565b60405180910390fd5b620000cb8562000170565b50620000d7846200028b565b50600e80546001600160a01b03199081166001600160a01b03948516179091556001805482169484169490941790935560048054909316911617905550620006309050565b3390565b600080546001600160a01b038381166001600160a01b0319831681178455604051919092169283917f8be0079c531659141344cd1fd0a4f28419497f9722a3daafe3b4186f6b6457e09190a35050565b60006200017c6200011c565b6001600160a01b03166200018f620003a5565b6001600160a01b031614620001b85760405162461bcd60e51b8152600401620000b7906200051c565b6001600160a01b038216620001e15760405162461bcd60e51b8152600401620000b790620005ae565b620001ec82620003b4565b6200020b5760405162461bcd60e51b8152600401620000b790620004e5565b6001600560008282546200022091906200060b565b90915550506040805180820182526001600160a01b0380851682526001602080840191825260058054600090815260079092529490209251835491511515600160a01b0260ff60a01b19919093166001600160a01b031990921691909117161790555490505b919050565b6000620002976200011c565b6001600160a01b0316620002aa620003a5565b6001600160a01b031614620002d35760405162461bcd60e51b8152600401620000b7906200051c565b6001600160a01b038216620002fc5760405162461bcd60e51b8152600401620000b79062000551565b6200030782620003b4565b620003265760405162461bcd60e51b8152600401620000b790620004ae565b6001600d60008282546200033b91906200060b565b90915550506040805180820182526001600160a01b03808516825260016020808401918252600d8054600090815260089092529490209251835491511515600160a01b0260ff60a01b19919093166001600160a01b03199092169190911716179055549050919050565b6000546001600160a01b031690565b3b151590565b80516001600160a01b03811681146200028657600080fd5b600080600080600060a08688031215620003ea578081fd5b620003f586620003ba565b94506200040560208701620003ba565b93506200041560408701620003ba565b92506200042560608701620003ba565b91506200043560808701620003ba565b90509295509295909350565b60208082526047908201527f4552433732314454466163746f72793a20496e76616c69642074656d706c617460408201527f6520746f6b656e2f636f6d6d756e6974792066656520636f6c6c6563746f72206060820152666164647265737360c81b608082015260a00190565b6020808252601a908201527f4552433230466163746f72793a204e4f5420434f4e5452414354000000000000604082015260600190565b6020808252601b908201527f455243373231466163746f72793a204e4f5420434f4e54524143540000000000604082015260600190565b6020808252818101527f4f776e61626c653a2063616c6c6572206973206e6f7420746865206f776e6572604082015260600190565b60208082526034908201527f4552433230466163746f72793a204552433732312074656d706c61746520616460408201527f6472657373283029204e4f5420414c4c4f574544000000000000000000000000606082015260800190565b60208082526037908201527f4552433732314454466163746f72793a204552433732312074656d706c61746560408201527f2061646472657373283029204e4f5420414c4c4f574544000000000000000000606082015260800190565b600082198211156200062b57634e487b7160e01b81526011600452602481fd5b500190565b6118cf80620006406000396000f3fe608060405234801561001057600080fd5b50600436106101585760003560e01c8063809d8105116100c3578063a33ef2a61161007c578063a33ef2a6146102be578063bbf8d71f146102d1578063c6cf868a146102e4578063e5fc01f0146102ec578063f2fde38b146102f4578063f887ea401461030757610158565b8063809d81051461025457806382c44204146102675780638da5cb5b146102885780638f6051af1461029057806394051699146102a357806395c60305146102b657610158565b80635c705982116101155780635c70598214610203578063700dd7e81461020b578063715018a61461021357806372f670f01461021b57806373ecb3471461022e5780637b20bccf1461024157610158565b8063042ab9b31461015d5780630ffda88714610186578063226e76151461019b57806326705c3c146101bb57806327819e06146101d05780633315efd1146101f0575b600080fd5b61017061016b366004611140565b61030f565b60405161017d9190611804565b60405180910390f35b610199610194366004611140565b61038c565b005b6101ae6101a9366004610fbb565b6103e6565b60405161017d919061124a565b6101c36103fb565b60405161017d9190611826565b6101e36101de366004610ffc565b610401565b60405161017d91906111a0565b6101706101fe366004611140565b61060d565b6101c3610650565b6101c3610656565b61019961065c565b6101e3610229366004610fbb565b6106a7565b6101e361023c3660046110ac565b6106c2565b6101c361024f366004610fbb565b610986565b610199610262366004611140565b610a8f565b61027a610275366004611140565b610b16565b60405161017d9291906111b4565b6101e3610b3d565b6101c361029e366004610fbb565b610b4c565b61027a6102b1366004611140565b610c55565b6101c3610c7c565b6101996102cc366004611140565b610c82565b6101996102df366004611140565b610d0f565b6101c3610d9c565b6101c3610da2565b610199610302366004610fbb565b610da8565b6101e3610e19565b610317610f0c565b6000828152600860209081526040918290208251808401909352546001600160a01b0381168352600160a01b900460ff16151590820152600d54831180159061035f57508215155b6103845760405162461bcd60e51b815260040161037b906112f6565b60405180910390fd5b90505b919050565b610394610e28565b6001600160a01b03166103a5610b3d565b6001600160a01b0316146103cb5760405162461bcd60e51b815260040161037b9061161d565b6000908152600860205260409020805460ff60a01b19169055565b600a6020526000908152604090205460ff1681565b600d5481565b6000600554821115801561041457508115155b6104305760405162461bcd60e51b815260040161037b90611415565b6000828152600760209081526040918290208251808401909352546001600160a01b0381168352600160a01b900460ff1615159082018190526001146104885760405162461bcd60e51b815260040161037b906117b6565b805161049390610e2c565b91506001600160a01b0382166104bb5760405162461bcd60e51b815260040161037b90611537565b6001600160a01b038083166000818152600960205260409081902080546001600160a01b03191683179055600480549151637db0f56d60e01b81528694637db0f56d936105169333938f938f93169130918f918f91016111cf565b602060405180830381600087803b15801561053057600080fd5b505af1158015610544573d6000803e3d6000fd5b505050506040513d601f19601f820116820180604052508101906105689190610fdc565b6105845760405162461bcd60e51b815260040161037b9061133f565b876040516105929190611184565b604051809103902082600001516001600160a01b0316846001600160a01b03167fab79f3a133194dac43d8f36c89aabc54656acb3d2a780060ac9006812e465565336040516105e191906111a0565b60405180910390a46001600260008282546105fc919061182f565b909155509298975050505050505050565b610615610f0c565b506000908152600760209081526040918290208251808401909352546001600160a01b0381168352600160a01b900460ff1615159082015290565b60025490565b60065490565b610664610e28565b6001600160a01b0316610675610b3d565b6001600160a01b03161461069b5760405162461bcd60e51b815260040161037b9061161d565b6106a56000610eb6565b565b6009602052600090815260409020546001600160a01b031681565b3360008181526009602052604081205490916001600160a01b03909116146106fc5760405162461bcd60e51b815260040161037b90611703565b846107195760405162461bcd60e51b815260040161037b906114a7565b600d54841115801561072a57508315155b6107465760405162461bcd60e51b815260040161037b906112f6565b6000848152600860209081526040918290208251808401909352546001600160a01b0381168352600160a01b900460ff16151590820181905260011461079e5760405162461bcd60e51b815260040161037b906114ec565b80516107a990610e2c565b6001600160a01b0381166000818152600a60205260409020805460ff191660011790559092506107eb5760405162461bcd60e51b815260040161037b906116a6565b6000829050806001600160a01b0316631ac570898a8a338b600160009054906101000a90046001600160a01b03168b600e60009054906101000a90046001600160a01b03168c6040518963ffffffff1660e01b8152600401610854989796959493929190611255565b602060405180830381600087803b15801561086e57600080fd5b505af1158015610882573d6000803e3d6000fd5b505050506040513d601f19601f820116820180604052508101906108a69190610fdc565b6108c25760405162461bcd60e51b815260040161037b906115cc565b886040516108d09190611184565b604051908190038120835190916001600160a01b03918216918616907fb51c8cbe199ffe8b0d1d39b62d473569750653cb18b165f77ae423b3900180ad90600090a4336001600160a01b0316836001600160a01b03167f54d11595f5fae5f45b1d7cc667adaf93951cf3757995b2c20dcd7b0fa81e91d08b8b8b604051610959939291906112c0565b60405180910390a36001600c6000828254610974919061182f565b90915550929998505050505050505050565b6000610990610e28565b6001600160a01b03166109a1610b3d565b6001600160a01b0316146109c75760405162461bcd60e51b815260040161037b9061161d565b6001600160a01b0382166109ed5760405162461bcd60e51b815260040161037b90611652565b6109f682610f06565b610a125760405162461bcd60e51b815260040161037b906113de565b6001600d6000828254610a25919061182f565b90915550506040805180820182526001600160a01b03808516825260016020808401918252600d8054600090815260089092529490209251835491511515600160a01b0260ff60a01b19919093166001600160a01b03199092169190911716179055549050919050565b610a97610e28565b6001600160a01b0316610aa8610b3d565b6001600160a01b031614610ace5760405162461bcd60e51b815260040161037b9061161d565b6005548111158015610adf57508015155b610afb5760405162461bcd60e51b815260040161037b90611415565b6000908152600760205260409020805460ff60a01b19169055565b6007602052600090815260409020546001600160a01b03811690600160a01b900460ff1682565b6000546001600160a01b031690565b6000610b56610e28565b6001600160a01b0316610b67610b3d565b6001600160a01b031614610b8d5760405162461bcd60e51b815260040161037b9061161d565b6001600160a01b038216610bb35760405162461bcd60e51b815260040161037b90611759565b610bbc82610f06565b610bd85760405162461bcd60e51b815260040161037b90611595565b600160056000828254610beb919061182f565b90915550506040805180820182526001600160a01b0380851682526001602080840191825260058054600090815260079092529490209251835491511515600160a01b0260ff60a01b19919093166001600160a01b03199092169190911716179055549050919050565b6008602052600090815260409020546001600160a01b03811690600160a01b900460ff1682565b600d5490565b610c8a610e28565b6001600160a01b0316610c9b610b3d565b6001600160a01b031614610cc15760405162461bcd60e51b815260040161037b9061161d565b6005548111158015610cd257508015155b610cee5760405162461bcd60e51b815260040161037b90611415565b6000908152600760205260409020805460ff60a01b1916600160a01b179055565b610d17610e28565b6001600160a01b0316610d28610b3d565b6001600160a01b031614610d4e5760405162461bcd60e51b815260040161037b9061161d565b600d548111158015610d5f57508015155b610d7b5760405162461bcd60e51b815260040161037b90611393565b6000908152600860205260409020805460ff60a01b1916600160a01b179055565b600c5490565b60055490565b610db0610e28565b6001600160a01b0316610dc1610b3d565b6001600160a01b031614610de75760405162461bcd60e51b815260040161037b9061161d565b6001600160a01b038116610e0d5760405162461bcd60e51b815260040161037b90611461565b610e1681610eb6565b50565b600e546001600160a01b031681565b3390565b6000808260601b9050604051733d602d80600a3d3981f3363d3d373d3d3d363d7360601b81528160148201526e5af43d82803e903d91602b57fd5bf360881b60288201526037816000f09250507f117c72e6c25f0a072e36e148df71468ce2f3dbe7defec5b2c257a6e3eb65278c82604051610ea891906111a0565b60405180910390a150919050565b600080546001600160a01b038381166001600160a01b0319831681178455604051919092169283917f8be0079c531659141344cd1fd0a4f28419497f9722a3daafe3b4186f6b6457e09190a35050565b3b151590565b604080518082019091526000808252602082015290565b80356001600160a01b038116811461038757600080fd5b600082601f830112610f4a578081fd5b813567ffffffffffffffff80821115610f6557610f65611883565b604051601f8301601f191681016020018281118282101715610f8957610f89611883565b604052828152848301602001861015610fa0578384fd5b82602086016020830137918201602001929092529392505050565b600060208284031215610fcc578081fd5b610fd582610f23565b9392505050565b600060208284031215610fed578081fd5b81518015158114610fd5578182fd5b600080600080600060a08688031215611013578081fd5b853567ffffffffffffffff8082111561102a578283fd5b61103689838a01610f3a565b9650602088013591508082111561104b578283fd5b61105789838a01610f3a565b9550604088013591508082111561106c578283fd5b61107889838a01610f3a565b9450606088013591508082111561108d578283fd5b5061109a88828901610f3a565b95989497509295608001359392505050565b60008060008060008060c087890312156110c4578081fd5b863567ffffffffffffffff808211156110db578283fd5b6110e78a838b01610f3a565b975060208901359150808211156110fc578283fd5b5061110989828a01610f3a565b955050604087013593506060870135925061112660808801610f23565b915061113460a08801610f23565b90509295509295509295565b600060208284031215611151578081fd5b5035919050565b60008151808452611170816020860160208601611853565b601f01601f19169290920160200192915050565b60008251611196818460208701611853565b9190910192915050565b6001600160a01b0391909116815260200190565b6001600160a01b039290921682521515602082015260400190565b600060018060a01b03808a16835260e060208401526111f160e084018a611158565b8381036040850152611203818a611158565b90508188166060850152818716608085015283810360a08501526112278187611158565b91505082810360c084015261123c8185611158565b9a9950505050505050505050565b901515815260200190565b60006101008083526112698184018c611158565b9050828103602084015261127d818b611158565b6001600160a01b03998a16604085015260608401989098525050938616608085015291851660a0840152841660c083015290921660e09092019190915292915050565b6000606082526112d36060830186611158565b82810360208401526112e58186611158565b915050826040830152949350505050565b60208082526029908201527f4552433230466163746f72793a2054656d706c61746520696e64657820646f656040820152681cdb9d08195e1a5cdd60ba1b606082015260800190565b60208082526034908201527f4552433732314454466163746f72793a20556e61626c6520746f20696e697469604082015273616c697a6520746f6b656e20696e7374616e636560601b606082015260800190565b6020808252602b908201527f45524332304454466163746f72793a2054656d706c61746520696e646578206460408201526a1bd95cdb9d08195e1a5cdd60aa1b606082015260800190565b6020808252601a908201527f4552433230466163746f72793a204e4f5420434f4e5452414354000000000000604082015260600190565b6020808252602c908201527f4552433732314454466163746f72793a2054656d706c61746520696e6465782060408201526b191bd95cdb9d08195e1a5cdd60a21b606082015260800190565b60208082526026908201527f4f776e61626c653a206e6577206f776e657220697320746865207a65726f206160408201526564647265737360d01b606082015260800190565b60208082526025908201527f4552433230466163746f72793a207a65726f20636170206973206e6f7420616c6040820152641b1bddd95960da1b606082015260800190565b6020808252602b908201527f4552433230466163746f72793a20455243373231546f6b656e2054656d706c6160408201526a1d1948191a5cd8589b195960aa1b606082015260800190565b602080825260409082018190527f4552433732314454466163746f72793a204661696c656420746f20706572666f908201527f726d206d696e696d616c206465706c6f79206f662061206e657720746f6b656e606082015260800190565b6020808252601b908201527f455243373231466163746f72793a204e4f5420434f4e54524143540000000000604082015260600190565b60208082526031908201527f4552433230466163746f72793a20556e61626c6520746f20696e697469616c696040820152707a6520746f6b656e20696e7374616e636560781b606082015260800190565b6020808252818101527f4f776e61626c653a2063616c6c6572206973206e6f7420746865206f776e6572604082015260600190565b60208082526034908201527f4552433230466163746f72793a204552433732312074656d706c617465206164604082015273191c995cdcca0c0a481393d50810531313d5d15160621b606082015260800190565b6020808252603e908201527f455243373231466163746f72793a204661696c656420746f20706572666f726d60408201527f206d696e696d616c206465706c6f79206f662061206e657720746f6b656e0000606082015260800190565b60208082526036908201527f455243373231466163746f72793a204f4e4c592045524337323120494e5354416040820152754e43452046524f4d20455243373231464143544f525960501b606082015260800190565b60208082526037908201527f4552433732314454466163746f72793a204552433732312074656d706c61746560408201527f2061646472657373283029204e4f5420414c4c4f574544000000000000000000606082015260800190565b6020808252602e908201527f4552433732314454466163746f72793a20455243373231546f6b656e2054656d60408201526d1c1b185d1948191a5cd8589b195960921b606082015260800190565b81516001600160a01b0316815260209182015115159181019190915260400190565b90815260200190565b6000821982111561184e57634e487b7160e01b81526011600452602481fd5b500190565b60005b8381101561186e578181015183820152602001611856565b8381111561187d576000848401525b50505050565b634e487b7160e01b600052604160045260246000fdfea26469706673582212208ef6f3f92207992e3a803fdbeb8023b4cecb83e8e511b420c97822a3336072f064736f6c63430008000033",
  "linkReferences": {},
  "deployedLinkReferences": {}
}