{
  "_format": "hh-sol-artifact-1",
  "contractName": "ERC721Factory",
  "sourceName": "contracts/ERC721Factory.sol",
  "abi": [
    {
      "inputs": [
        {
          "internalType": "address",
          "name": "_template721",
          "type": "address"
        },
        {
          "internalType": "address",
          "name": "_template",
          "type": "address"
        },
        {
          "internalType": "address",
          "name": "_collector",
          "type": "address"
        },
        {
          "internalType": "address",
          "name": "_router",
          "type": "address"
        }
      ],
      "stateMutability": "nonpayable",
      "type": "constructor"
    },
    {
      "anonymous": false,
      "inputs": [
        {
          "indexed": true,
          "internalType": "address",
          "name": "datatokenAddress",
          "type": "address"
        },
        {
          "indexed": true,
          "internalType": "address",
          "name": "owner",
          "type": "address"
        },
        {
          "indexed": false,
          "internalType": "uint256",
          "name": "maxTokens",
          "type": "uint256"
        },
        {
          "indexed": false,
          "internalType": "uint256",
          "name": "maxBalance",
          "type": "uint256"
        },
        {
          "indexed": false,
          "internalType": "address",
          "name": "allowedSwapper",
          "type": "address"
        }
      ],
      "name": "DispenserCreated",
      "type": "event"
    },
    {
      "anonymous": false,
      "inputs": [
        {
          "indexed": false,
          "internalType": "address",
          "name": "instance",
          "type": "address"
        }
      ],
      "name": "InstanceDeployed",
      "type": "event"
    },
    {
      "anonymous": false,
      "inputs": [
        {
          "indexed": true,
          "internalType": "address",
          "name": "newTokenAddress",
          "type": "address"
        },
        {
          "indexed": true,
          "internalType": "address",
          "name": "templateAddress",
          "type": "address"
        },
        {
          "indexed": false,
          "internalType": "string",
          "name": "tokenName",
          "type": "string"
        },
        {
          "indexed": false,
          "internalType": "address",
          "name": "admin",
          "type": "address"
        },
        {
          "indexed": false,
          "internalType": "string",
          "name": "symbol",
          "type": "string"
        },
        {
          "indexed": false,
          "internalType": "string",
          "name": "tokenURI",
          "type": "string"
        }
      ],
      "name": "NFTCreated",
      "type": "event"
    },
    {
      "anonymous": false,
      "inputs": [
        {
          "indexed": false,
          "internalType": "address",
          "name": "dispenserContract",
          "type": "address"
        }
      ],
      "name": "NewDispenser",
      "type": "event"
    },
    {
      "anonymous": false,
      "inputs": [
        {
          "indexed": false,
          "internalType": "bytes32",
          "name": "exchangeId",
          "type": "bytes32"
        },
        {
          "indexed": true,
          "internalType": "address",
          "name": "owner",
          "type": "address"
        },
        {
          "indexed": false,
          "internalType": "address",
          "name": "exchangeContract",
          "type": "address"
        },
        {
          "indexed": true,
          "internalType": "address",
          "name": "baseToken",
          "type": "address"
        }
      ],
      "name": "NewFixedRate",
      "type": "event"
    },
    {
      "anonymous": false,
      "inputs": [
        {
          "indexed": false,
          "internalType": "address",
          "name": "poolAddress",
          "type": "address"
        },
        {
          "indexed": false,
          "internalType": "address",
          "name": "ssContract",
          "type": "address"
        },
        {
          "indexed": false,
          "internalType": "address",
          "name": "baseTokenAddress",
          "type": "address"
        }
      ],
      "name": "NewPool",
      "type": "event"
    },
    {
      "anonymous": false,
      "inputs": [
        {
          "indexed": true,
          "internalType": "address",
          "name": "previousOwner",
          "type": "address"
        },
        {
          "indexed": true,
          "internalType": "address",
          "name": "newOwner",
          "type": "address"
        }
      ],
      "name": "OwnershipTransferred",
      "type": "event"
    },
    {
      "anonymous": false,
      "inputs": [
        {
          "indexed": true,
          "internalType": "address",
          "name": "_templateAddress",
          "type": "address"
        },
        {
          "indexed": true,
          "internalType": "uint256",
          "name": "nftTemplateCount",
          "type": "uint256"
        }
      ],
      "name": "Template20Added",
      "type": "event"
    },
    {
      "anonymous": false,
      "inputs": [
        {
          "indexed": true,
          "internalType": "address",
          "name": "_templateAddress",
          "type": "address"
        },
        {
          "indexed": true,
          "internalType": "uint256",
          "name": "nftTemplateCount",
          "type": "uint256"
        }
      ],
      "name": "Template721Added",
      "type": "event"
    },
    {
      "anonymous": false,
      "inputs": [
        {
          "indexed": true,
          "internalType": "address",
          "name": "newTokenAddress",
          "type": "address"
        },
        {
          "indexed": true,
          "internalType": "address",
          "name": "templateAddress",
          "type": "address"
        },
        {
          "indexed": false,
          "internalType": "string",
          "name": "name",
          "type": "string"
        },
        {
          "indexed": false,
          "internalType": "string",
          "name": "symbol",
          "type": "string"
        },
        {
          "indexed": false,
          "internalType": "uint256",
          "name": "cap",
          "type": "uint256"
        },
        {
          "indexed": false,
          "internalType": "address",
          "name": "creator",
          "type": "address"
        }
      ],
      "name": "TokenCreated",
      "type": "event"
    },
    {
      "anonymous": false,
      "inputs": [
        {
          "indexed": true,
          "internalType": "address",
          "name": "from",
          "type": "address"
        },
        {
          "indexed": true,
          "internalType": "address",
          "name": "to",
          "type": "address"
        },
        {
          "indexed": true,
          "internalType": "uint256",
          "name": "tokenId",
          "type": "uint256"
        }
      ],
      "name": "Transfer",
      "type": "event"
    },
    {
      "inputs": [
        {
          "internalType": "address",
          "name": "_templateAddress",
          "type": "address"
        }
      ],
      "name": "add721TokenTemplate",
      "outputs": [
        {
          "internalType": "uint256",
          "name": "",
          "type": "uint256"
        }
      ],
      "stateMutability": "nonpayable",
      "type": "function"
    },
    {
      "inputs": [
        {
          "internalType": "address",
          "name": "_templateAddress",
          "type": "address"
        }
      ],
      "name": "addTokenTemplate",
      "outputs": [
        {
          "internalType": "uint256",
          "name": "",
          "type": "uint256"
        }
      ],
      "stateMutability": "nonpayable",
      "type": "function"
    },
    {
      "inputs": [
        {
          "components": [
            {
              "internalType": "string",
              "name": "name",
              "type": "string"
            },
            {
              "internalType": "string",
              "name": "symbol",
              "type": "string"
            },
            {
              "internalType": "uint256",
              "name": "templateIndex",
              "type": "uint256"
            },
            {
              "internalType": "string",
              "name": "tokenURI",
              "type": "string"
            },
            {
              "internalType": "bool",
              "name": "transferable",
              "type": "bool"
            }
          ],
          "internalType": "struct ERC721Factory.NftCreateData",
          "name": "_NftCreateData",
          "type": "tuple"
        },
        {
          "components": [
            {
              "internalType": "uint256",
              "name": "templateIndex",
              "type": "uint256"
            },
            {
              "internalType": "string[]",
              "name": "strings",
              "type": "string[]"
            },
            {
              "internalType": "address[]",
              "name": "addresses",
              "type": "address[]"
            },
            {
              "internalType": "uint256[]",
              "name": "uints",
              "type": "uint256[]"
            },
            {
              "internalType": "bytes[]",
              "name": "bytess",
              "type": "bytes[]"
            }
          ],
          "internalType": "struct ERC721Factory.ErcCreateData",
          "name": "_ErcCreateData",
          "type": "tuple"
        }
      ],
      "name": "createNftWithErc20",
      "outputs": [
        {
          "internalType": "address",
          "name": "erc721Address",
          "type": "address"
        },
        {
          "internalType": "address",
          "name": "erc20Address",
          "type": "address"
        }
      ],
      "stateMutability": "nonpayable",
      "type": "function"
    },
    {
      "inputs": [
        {
          "components": [
            {
              "internalType": "string",
              "name": "name",
              "type": "string"
            },
            {
              "internalType": "string",
              "name": "symbol",
              "type": "string"
            },
            {
              "internalType": "uint256",
              "name": "templateIndex",
              "type": "uint256"
            },
            {
              "internalType": "string",
              "name": "tokenURI",
              "type": "string"
            },
            {
              "internalType": "bool",
              "name": "transferable",
              "type": "bool"
            }
          ],
          "internalType": "struct ERC721Factory.NftCreateData",
          "name": "_NftCreateData",
          "type": "tuple"
        },
        {
          "components": [
            {
              "internalType": "uint256",
              "name": "templateIndex",
              "type": "uint256"
            },
            {
              "internalType": "string[]",
              "name": "strings",
              "type": "string[]"
            },
            {
              "internalType": "address[]",
              "name": "addresses",
              "type": "address[]"
            },
            {
              "internalType": "uint256[]",
              "name": "uints",
              "type": "uint256[]"
            },
            {
              "internalType": "bytes[]",
              "name": "bytess",
              "type": "bytes[]"
            }
          ],
          "internalType": "struct ERC721Factory.ErcCreateData",
          "name": "_ErcCreateData",
          "type": "tuple"
        },
        {
          "components": [
            {
              "internalType": "address",
              "name": "dispenserAddress",
              "type": "address"
            },
            {
              "internalType": "uint256",
              "name": "maxTokens",
              "type": "uint256"
            },
            {
              "internalType": "uint256",
              "name": "maxBalance",
              "type": "uint256"
            },
            {
              "internalType": "bool",
              "name": "withMint",
              "type": "bool"
            },
            {
              "internalType": "address",
              "name": "allowedSwapper",
              "type": "address"
            }
          ],
          "internalType": "struct ERC721Factory.DispenserData",
          "name": "_DispenserData",
          "type": "tuple"
        }
      ],
      "name": "createNftWithErc20WithDispenser",
      "outputs": [
        {
          "internalType": "address",
          "name": "erc721Address",
          "type": "address"
        },
        {
          "internalType": "address",
          "name": "erc20Address",
          "type": "address"
        }
      ],
      "stateMutability": "nonpayable",
      "type": "function"
    },
    {
      "inputs": [
        {
          "components": [
            {
              "internalType": "string",
              "name": "name",
              "type": "string"
            },
            {
              "internalType": "string",
              "name": "symbol",
              "type": "string"
            },
            {
              "internalType": "uint256",
              "name": "templateIndex",
              "type": "uint256"
            },
            {
              "internalType": "string",
              "name": "tokenURI",
              "type": "string"
            },
            {
              "internalType": "bool",
              "name": "transferable",
              "type": "bool"
            }
          ],
          "internalType": "struct ERC721Factory.NftCreateData",
          "name": "_NftCreateData",
          "type": "tuple"
        },
        {
          "components": [
            {
              "internalType": "uint256",
              "name": "templateIndex",
              "type": "uint256"
            },
            {
              "internalType": "string[]",
              "name": "strings",
              "type": "string[]"
            },
            {
              "internalType": "address[]",
              "name": "addresses",
              "type": "address[]"
            },
            {
              "internalType": "uint256[]",
              "name": "uints",
              "type": "uint256[]"
            },
            {
              "internalType": "bytes[]",
              "name": "bytess",
              "type": "bytes[]"
            }
          ],
          "internalType": "struct ERC721Factory.ErcCreateData",
          "name": "_ErcCreateData",
          "type": "tuple"
        },
        {
          "components": [
            {
              "internalType": "address",
              "name": "fixedPriceAddress",
              "type": "address"
            },
            {
              "internalType": "address[]",
              "name": "addresses",
              "type": "address[]"
            },
            {
              "internalType": "uint256[]",
              "name": "uints",
              "type": "uint256[]"
            }
          ],
          "internalType": "struct ERC721Factory.FixedData",
          "name": "_FixedData",
          "type": "tuple"
        }
      ],
      "name": "createNftWithErc20WithFixedRate",
      "outputs": [
        {
          "internalType": "address",
          "name": "erc721Address",
          "type": "address"
        },
        {
          "internalType": "address",
          "name": "erc20Address",
          "type": "address"
        },
        {
          "internalType": "bytes32",
          "name": "exchangeId",
          "type": "bytes32"
        }
      ],
      "stateMutability": "nonpayable",
      "type": "function"
    },
    {
      "inputs": [
        {
          "components": [
            {
              "internalType": "string",
              "name": "name",
              "type": "string"
            },
            {
              "internalType": "string",
              "name": "symbol",
              "type": "string"
            },
            {
              "internalType": "uint256",
              "name": "templateIndex",
              "type": "uint256"
            },
            {
              "internalType": "string",
              "name": "tokenURI",
              "type": "string"
            },
            {
              "internalType": "bool",
              "name": "transferable",
              "type": "bool"
            }
          ],
          "internalType": "struct ERC721Factory.NftCreateData",
          "name": "_NftCreateData",
          "type": "tuple"
        },
        {
          "components": [
            {
              "internalType": "uint256",
              "name": "templateIndex",
              "type": "uint256"
            },
            {
              "internalType": "string[]",
              "name": "strings",
              "type": "string[]"
            },
            {
              "internalType": "address[]",
              "name": "addresses",
              "type": "address[]"
            },
            {
              "internalType": "uint256[]",
              "name": "uints",
              "type": "uint256[]"
            },
            {
              "internalType": "bytes[]",
              "name": "bytess",
              "type": "bytes[]"
            }
          ],
          "internalType": "struct ERC721Factory.ErcCreateData",
          "name": "_ErcCreateData",
          "type": "tuple"
        },
        {
          "components": [
            {
              "internalType": "uint256[]",
              "name": "ssParams",
              "type": "uint256[]"
            },
            {
              "internalType": "uint256[]",
              "name": "swapFees",
              "type": "uint256[]"
            },
            {
              "internalType": "address[]",
              "name": "addresses",
              "type": "address[]"
            }
          ],
          "internalType": "struct ERC721Factory.PoolData",
          "name": "_PoolData",
          "type": "tuple"
        }
      ],
      "name": "createNftWithErc20WithPool",
      "outputs": [
        {
          "internalType": "address",
          "name": "erc721Address",
          "type": "address"
        },
        {
          "internalType": "address",
          "name": "erc20Address",
          "type": "address"
        },
        {
          "internalType": "address",
          "name": "poolAddress",
          "type": "address"
        }
      ],
      "stateMutability": "nonpayable",
      "type": "function"
    },
    {
      "inputs": [
        {
          "components": [
            {
              "internalType": "string",
              "name": "name",
              "type": "string"
            },
            {
              "internalType": "string",
              "name": "symbol",
              "type": "string"
            },
            {
              "internalType": "uint256",
              "name": "templateIndex",
              "type": "uint256"
            },
            {
              "internalType": "string",
              "name": "tokenURI",
              "type": "string"
            },
            {
              "internalType": "bool",
              "name": "transferable",
              "type": "bool"
            }
          ],
          "internalType": "struct ERC721Factory.NftCreateData",
          "name": "_NftCreateData",
          "type": "tuple"
        },
        {
          "components": [
            {
              "internalType": "uint8",
              "name": "_metaDataState",
              "type": "uint8"
            },
            {
              "internalType": "string",
              "name": "_metaDataDecryptorUrl",
              "type": "string"
            },
            {
              "internalType": "string",
              "name": "_metaDataDecryptorAddress",
              "type": "string"
            },
            {
              "internalType": "bytes",
              "name": "flags",
              "type": "bytes"
            },
            {
              "internalType": "bytes",
              "name": "data",
              "type": "bytes"
            },
            {
              "internalType": "bytes32",
              "name": "_metaDataHash",
              "type": "bytes32"
            },
            {
              "components": [
                {
                  "internalType": "address",
                  "name": "validatorAddress",
                  "type": "address"
                },
                {
                  "internalType": "uint8",
                  "name": "v",
                  "type": "uint8"
                },
                {
                  "internalType": "bytes32",
                  "name": "r",
                  "type": "bytes32"
                },
                {
                  "internalType": "bytes32",
                  "name": "s",
                  "type": "bytes32"
                }
              ],
              "internalType": "struct IERC721Template.metaDataProof[]",
              "name": "_metadataProofs",
              "type": "tuple[]"
            }
          ],
          "internalType": "struct ERC721Factory.MetaData",
          "name": "_MetaData",
          "type": "tuple"
        }
      ],
      "name": "createNftWithMetaData",
      "outputs": [
        {
          "internalType": "address",
          "name": "erc721Address",
          "type": "address"
        }
      ],
      "stateMutability": "nonpayable",
      "type": "function"
    },
    {
      "inputs": [
        {
          "internalType": "uint256",
          "name": "_templateIndex",
          "type": "uint256"
        },
        {
          "internalType": "string[]",
          "name": "strings",
          "type": "string[]"
        },
        {
          "internalType": "address[]",
          "name": "addresses",
          "type": "address[]"
        },
        {
          "internalType": "uint256[]",
          "name": "uints",
          "type": "uint256[]"
        },
        {
          "internalType": "bytes[]",
          "name": "bytess",
          "type": "bytes[]"
        }
      ],
      "name": "createToken",
      "outputs": [
        {
          "internalType": "address",
          "name": "token",
          "type": "address"
        }
      ],
      "stateMutability": "nonpayable",
      "type": "function"
    },
    {
      "inputs": [
        {
          "internalType": "string",
          "name": "name",
          "type": "string"
        },
        {
          "internalType": "string",
          "name": "symbol",
          "type": "string"
        },
        {
          "internalType": "uint256",
          "name": "_templateIndex",
          "type": "uint256"
        },
        {
          "internalType": "address",
          "name": "additionalERC20Deployer",
          "type": "address"
        },
        {
          "internalType": "address",
          "name": "additionalMetaDataUpdater",
          "type": "address"
        },
        {
          "internalType": "string",
          "name": "tokenURI",
          "type": "string"
        },
        {
          "internalType": "bool",
          "name": "transferable",
          "type": "bool"
        }
      ],
      "name": "deployERC721Contract",
      "outputs": [
        {
          "internalType": "address",
          "name": "token",
          "type": "address"
        }
      ],
      "stateMutability": "nonpayable",
      "type": "function"
    },
    {
      "inputs": [
        {
          "internalType": "uint256",
          "name": "_index",
          "type": "uint256"
        }
      ],
      "name": "disable721TokenTemplate",
      "outputs": [],
      "stateMutability": "nonpayable",
      "type": "function"
    },
    {
      "inputs": [
        {
          "internalType": "uint256",
          "name": "_index",
          "type": "uint256"
        }
      ],
      "name": "disableTokenTemplate",
      "outputs": [],
      "stateMutability": "nonpayable",
      "type": "function"
    },
    {
      "inputs": [
        {
          "internalType": "address",
          "name": "",
          "type": "address"
        }
      ],
      "name": "erc20List",
      "outputs": [
        {
          "internalType": "bool",
          "name": "",
          "type": "bool"
        }
      ],
      "stateMutability": "view",
      "type": "function"
    },
    {
      "inputs": [
        {
          "internalType": "address",
          "name": "",
          "type": "address"
        }
      ],
      "name": "erc721List",
      "outputs": [
        {
          "internalType": "address",
          "name": "",
          "type": "address"
        }
      ],
      "stateMutability": "view",
      "type": "function"
    },
    {
      "inputs": [],
      "name": "getCurrentNFTCount",
      "outputs": [
        {
          "internalType": "uint256",
          "name": "",
          "type": "uint256"
        }
      ],
      "stateMutability": "view",
      "type": "function"
    },
    {
      "inputs": [],
      "name": "getCurrentNFTTemplateCount",
      "outputs": [
        {
          "internalType": "uint256",
          "name": "",
          "type": "uint256"
        }
      ],
      "stateMutability": "view",
      "type": "function"
    },
    {
      "inputs": [],
      "name": "getCurrentTemplateCount",
      "outputs": [
        {
          "internalType": "uint256",
          "name": "",
          "type": "uint256"
        }
      ],
      "stateMutability": "view",
      "type": "function"
    },
    {
      "inputs": [],
      "name": "getCurrentTokenCount",
      "outputs": [
        {
          "internalType": "uint256",
          "name": "",
          "type": "uint256"
        }
      ],
      "stateMutability": "view",
      "type": "function"
    },
    {
      "inputs": [
        {
          "internalType": "uint256",
          "name": "_index",
          "type": "uint256"
        }
      ],
      "name": "getNFTTemplate",
      "outputs": [
        {
          "components": [
            {
              "internalType": "address",
              "name": "templateAddress",
              "type": "address"
            },
            {
              "internalType": "bool",
              "name": "isActive",
              "type": "bool"
            }
          ],
          "internalType": "struct ERC721Factory.Template",
          "name": "",
          "type": "tuple"
        }
      ],
      "stateMutability": "view",
      "type": "function"
    },
    {
      "inputs": [
        {
          "internalType": "uint256",
          "name": "_index",
          "type": "uint256"
        }
      ],
      "name": "getTokenTemplate",
      "outputs": [
        {
          "components": [
            {
              "internalType": "address",
              "name": "templateAddress",
              "type": "address"
            },
            {
              "internalType": "bool",
              "name": "isActive",
              "type": "bool"
            }
          ],
          "internalType": "struct ERC721Factory.Template",
          "name": "",
          "type": "tuple"
        }
      ],
      "stateMutability": "view",
      "type": "function"
    },
    {
      "inputs": [
        {
          "internalType": "uint256",
          "name": "",
          "type": "uint256"
        }
      ],
      "name": "nftTemplateList",
      "outputs": [
        {
          "internalType": "address",
          "name": "templateAddress",
          "type": "address"
        },
        {
          "internalType": "bool",
          "name": "isActive",
          "type": "bool"
        }
      ],
      "stateMutability": "view",
      "type": "function"
    },
    {
      "inputs": [],
      "name": "owner",
      "outputs": [
        {
          "internalType": "address",
          "name": "",
          "type": "address"
        }
      ],
      "stateMutability": "view",
      "type": "function"
    },
    {
      "inputs": [
        {
          "internalType": "uint256",
          "name": "_index",
          "type": "uint256"
        }
      ],
      "name": "reactivate721TokenTemplate",
      "outputs": [],
      "stateMutability": "nonpayable",
      "type": "function"
    },
    {
      "inputs": [
        {
          "internalType": "uint256",
          "name": "_index",
          "type": "uint256"
        }
      ],
      "name": "reactivateTokenTemplate",
      "outputs": [],
      "stateMutability": "nonpayable",
      "type": "function"
    },
    {
      "inputs": [],
      "name": "renounceOwnership",
      "outputs": [],
      "stateMutability": "nonpayable",
      "type": "function"
    },
    {
      "inputs": [
        {
          "components": [
            {
              "internalType": "address",
              "name": "tokenAddress",
              "type": "address"
            },
            {
              "internalType": "bytes32",
              "name": "orderTxId",
              "type": "bytes32"
            },
            {
              "components": [
                {
                  "internalType": "address",
                  "name": "providerFeeAddress",
                  "type": "address"
                },
                {
                  "internalType": "address",
                  "name": "providerFeeToken",
                  "type": "address"
                },
                {
                  "internalType": "uint256",
                  "name": "providerFeeAmount",
                  "type": "uint256"
                },
                {
                  "internalType": "uint8",
                  "name": "v",
                  "type": "uint8"
                },
                {
                  "internalType": "bytes32",
                  "name": "r",
                  "type": "bytes32"
                },
                {
                  "internalType": "bytes32",
                  "name": "s",
                  "type": "bytes32"
                },
                {
                  "internalType": "uint256",
                  "name": "validUntil",
                  "type": "uint256"
                },
                {
                  "internalType": "bytes",
                  "name": "providerData",
                  "type": "bytes"
                }
              ],
              "internalType": "struct IERC20Template.providerFee",
              "name": "_providerFee",
              "type": "tuple"
            }
          ],
          "internalType": "struct ERC721Factory.reuseTokenOrder[]",
          "name": "orders",
          "type": "tuple[]"
        }
      ],
      "name": "reuseMultipleTokenOrder",
      "outputs": [],
      "stateMutability": "nonpayable",
      "type": "function"
    },
    {
      "inputs": [],
      "name": "router",
      "outputs": [
        {
          "internalType": "address",
          "name": "",
          "type": "address"
        }
      ],
      "stateMutability": "view",
      "type": "function"
    },
    {
      "inputs": [
        {
          "components": [
            {
              "internalType": "address",
              "name": "tokenAddress",
              "type": "address"
            },
            {
              "internalType": "address",
              "name": "consumer",
              "type": "address"
            },
            {
              "internalType": "uint256",
              "name": "serviceIndex",
              "type": "uint256"
            },
            {
              "components": [
                {
                  "internalType": "address",
                  "name": "providerFeeAddress",
                  "type": "address"
                },
                {
                  "internalType": "address",
                  "name": "providerFeeToken",
                  "type": "address"
                },
                {
                  "internalType": "uint256",
                  "name": "providerFeeAmount",
                  "type": "uint256"
                },
                {
                  "internalType": "uint8",
                  "name": "v",
                  "type": "uint8"
                },
                {
                  "internalType": "bytes32",
                  "name": "r",
                  "type": "bytes32"
                },
                {
                  "internalType": "bytes32",
                  "name": "s",
                  "type": "bytes32"
                },
                {
                  "internalType": "uint256",
                  "name": "validUntil",
                  "type": "uint256"
                },
                {
                  "internalType": "bytes",
                  "name": "providerData",
                  "type": "bytes"
                }
              ],
              "internalType": "struct IERC20Template.providerFee",
              "name": "_providerFee",
              "type": "tuple"
            },
            {
              "components": [
                {
                  "internalType": "address",
                  "name": "consumeMarketFeeAddress",
                  "type": "address"
                },
                {
                  "internalType": "address",
                  "name": "consumeMarketFeeToken",
                  "type": "address"
                },
                {
                  "internalType": "uint256",
                  "name": "consumeMarketFeeAmount",
                  "type": "uint256"
                }
              ],
              "internalType": "struct IERC20Template.consumeMarketFee",
              "name": "_consumeMarketFee",
              "type": "tuple"
            }
          ],
          "internalType": "struct ERC721Factory.tokenOrder[]",
          "name": "orders",
          "type": "tuple[]"
        }
      ],
      "name": "startMultipleTokenOrder",
      "outputs": [],
      "stateMutability": "nonpayable",
      "type": "function"
    },
    {
      "inputs": [],
      "name": "templateCount",
      "outputs": [
        {
          "internalType": "uint256",
          "name": "",
          "type": "uint256"
        }
      ],
      "stateMutability": "view",
      "type": "function"
    },
    {
      "inputs": [
        {
          "internalType": "uint256",
          "name": "",
          "type": "uint256"
        }
      ],
      "name": "templateList",
      "outputs": [
        {
          "internalType": "address",
          "name": "templateAddress",
          "type": "address"
        },
        {
          "internalType": "bool",
          "name": "isActive",
          "type": "bool"
        }
      ],
      "stateMutability": "view",
      "type": "function"
    },
    {
      "inputs": [
        {
          "internalType": "address",
          "name": "newOwner",
          "type": "address"
        }
      ],
      "name": "transferOwnership",
      "outputs": [],
      "stateMutability": "nonpayable",
      "type": "function"
    }
  ],
  "bytecode": "0x60806040526000600a553480156200001657600080fd5b5060405162004921380380620049218339810160408190526200003991620005ab565b6200004433620001be565b600180556001600160a01b038316158015906200006957506001600160a01b03821615155b80156200007e57506001600160a01b03841615155b620001065760405162461bcd60e51b815260206004820152604760248201527f4552433732314454466163746f72793a20496e76616c69642074656d706c617460448201527f6520746f6b656e2f636f6d6d756e6974792066656520636f6c6c6563746f72206064820152666164647265737360c81b608482015260a4015b60405180910390fd5b6001600160a01b0381166200016e5760405162461bcd60e51b815260206004820152602760248201527f4552433732314454466163746f72793a20496e76616c696420726f75746572206044820152666164647265737360c81b6064820152608401620000fd565b62000179846200020e565b506200018583620003d1565b50600c80546001600160a01b039283166001600160a01b03199182161790915560028054939092169216919091179055506200062f9050565b600080546001600160a01b038381166001600160a01b0319831681178455604051919092169283917f8be0079c531659141344cd1fd0a4f28419497f9722a3daafe3b4186f6b6457e09190a35050565b600080546001600160a01b031633146200025a5760405162461bcd60e51b81526020600482018190526024820152600080516020620049018339815191526044820152606401620000fd565b6001600160a01b038216620002d85760405162461bcd60e51b815260206004820152603760248201527f4552433732314454466163746f72793a204552433732312074656d706c61746560448201527f2061646472657373283029204e4f5420414c4c4f5745440000000000000000006064820152608401620000fd565b813b620003285760405162461bcd60e51b815260206004820152601b60248201527f455243373231466163746f72793a204e4f5420434f4e545241435400000000006044820152606401620000fd565b6001600560008282546200033d919062000608565b90915550506040805180820182526001600160a01b038085168083526001602080850191825260058054600090815260069092528682208651815494511515600160a01b026001600160a81b03199095169616959095179290921790935554935192939290917fc0167b92c8eb4a2bad2c05e0134f076fba5d3cd54671a3e8edf13d2e61443bd991a350506005545b919050565b600080546001600160a01b031633146200041d5760405162461bcd60e51b81526020600482018190526024820152600080516020620049018339815191526044820152606401620000fd565b6001600160a01b0382166200049b5760405162461bcd60e51b815260206004820152603460248201527f4552433230466163746f72793a204552433732312074656d706c61746520616460448201527f6472657373283029204e4f5420414c4c4f5745440000000000000000000000006064820152608401620000fd565b813b620004eb5760405162461bcd60e51b815260206004820152601a60248201527f4552433230466163746f72793a204e4f5420434f4e54524143540000000000006044820152606401620000fd565b6001600b600082825462000500919062000608565b90915550506040805180820182526001600160a01b0380851680835260016020808501918252600b8054600090815260079092528682208651815494511515600160a01b026001600160a81b03199095169616959095179290921790935554935192939290917fdcd16da87b60cea6dbd55a83f73b8a4bf9a54655db58ae0f35b82a2373fc150d91a35050600b54919050565b80516001600160a01b0381168114620003cc57600080fd5b60008060008060808587031215620005c257600080fd5b620005cd8562000593565b9350620005dd6020860162000593565b9250620005ed6040860162000593565b9150620005fd6060860162000593565b905092959194509250565b600082198211156200062a57634e487b7160e01b600052601160045260246000fd5b500190565b6142c2806200063f6000396000f3fe608060405234801561001057600080fd5b50600436106101da5760003560e01c806382c4420411610104578063a33ef2a6116100a2578063df1f202311610071578063df1f20231461053b578063e5fc01f01461054e578063f2fde38b14610556578063f887ea401461056957600080fd5b8063a33ef2a6146104da578063b918b0bb146104ed578063bbf8d71f14610520578063c6cf868a1461053357600080fd5b806394051699116100de578063940516991461047757806394be0e88146104ac57806395c60305146104bf5780639e7f8cfa146104c757600080fd5b806382c44204146103ff5780638da5cb5b146104535780638f6051af1461046457600080fd5b80633315efd11161017c57806372f670f01161014b57806372f670f0146103735780637b20bccf1461039c5780637eb3b8c1146103af578063809d8105146103ec57600080fd5b80633315efd1146102f3578063557fcfb0146103505780635c70598214610363578063715018a61461036b57600080fd5b80632515422e116101b85780632515422e1461026557806326705c3c14610278578063314c833f1461028f57806332fbf0bc146102c857600080fd5b8063042ab9b3146101df5780630ffda8871461021d578063226e761514610232575b600080fd5b6101f26101ed366004612e57565b61057c565b6040805182516001600160a01b03168152602092830151151592810192909252015b60405180910390f35b61023061022b366004612e57565b610603565b005b610255610240366004612e90565b60096020526000908152604090205460ff1681565b6040519015158152602001610214565b6102306102733660046130a6565b610648565b610281600b5481565b604051908152602001610214565b6102a261029d3660046131d6565b610915565b604080516001600160a01b03948516815293909216602084015290820152606001610214565b6102db6102d636600461325d565b610bd3565b6040516001600160a01b039091168152602001610214565b6101f2610301366004612e57565b6040805180820190915260008082526020820152506000908152600660209081526040918290208251808401909352546001600160a01b0381168352600160a01b900460ff1615159082015290565b6102db61035e366004613410565b610dfb565b600354610281565b610230610e9c565b6102db610381366004612e90565b6008602052600090815260409020546001600160a01b031681565b6102816103aa366004612e90565b610ed2565b6103c26103bd3660046131d6565b611065565b604080516001600160a01b0394851681529284166020840152921691810191909152606001610214565b6102306103fa366004612e57565b6112be565b61043461040d366004612e57565b6006602052600090815260409020546001600160a01b03811690600160a01b900460ff1682565b604080516001600160a01b039093168352901515602083015201610214565b6000546001600160a01b03166102db565b610281610472366004612e90565b611330565b610434610485366004612e57565b6007602052600090815260409020546001600160a01b03811690600160a01b900460ff1682565b6102306104ba366004613538565b6114cb565b600b54610281565b6102db6104d53660046136a3565b611a70565b6102306104e8366004612e57565b611d47565b6105006104fb36600461376e565b611dbf565b604080516001600160a01b03938416815292909116602083015201610214565b61023061052e366004612e57565b61209c565b600a54610281565b6105006105493660046137e2565b612158565b600554610281565b610230610564366004612e90565b612377565b600c546102db906001600160a01b031681565b60408051808201909152600080825260208201526000828152600760209081526040918290208251808401909352546001600160a01b0381168352600160a01b900460ff16151590820152600b5483118015906105d857508215155b6105fd5760405162461bcd60e51b81526004016105f490613845565b60405180910390fd5b92915050565b6000546001600160a01b0316331461062d5760405162461bcd60e51b81526004016105f49061388e565b6000908152600760205260409020805460ff60a01b19169055565b6002600154141561066b5760405162461bcd60e51b81526004016105f4906138c3565b60026001558051603210156106c25760405162461bcd60e51b815260206004820152601e60248201527f455243373231466163746f72793a20546f6f204d616e79204f7264657273000060448201526064016105f4565b60005b815181101561090d5760008282815181106106e2576106e26138fa565b60200260200101516040015160400151118015610733575060006001600160a01b0316828281518110610717576107176138fa565b602002602001015160400151602001516001600160a01b031614155b8015610773575060006001600160a01b0316828281518110610757576107576138fa565b602002602001015160400151600001516001600160a01b031614155b15610843576107c682828151811061078d5761078d6138fa565b6020026020010151604001516020015133308585815181106107b1576107b16138fa565b60200260200101516040015160400151612412565b6108438282815181106107db576107db6138fa565b6020026020010151600001518383815181106107f9576107f96138fa565b6020026020010151604001516040015184848151811061081b5761081b6138fa565b602002602001015160400151602001516001600160a01b03166125609092919063ffffffff16565b818181518110610855576108556138fa565b6020026020010151600001516001600160a01b031663361fef49838381518110610881576108816138fa565b60200260200101516020015184848151811061089f5761089f6138fa565b6020026020010151604001516040518363ffffffff1660e01b81526004016108c89291906139dc565b600060405180830381600087803b1580156108e257600080fd5b505af11580156108f6573d6000803e3d6000fd5b50505050808061090590613a0b565b9150506106c5565b505060018055565b60008060006002600154141561093d5760405162461bcd60e51b81526004016105f4906138c3565b6002600155610a1f61094f8780613a26565b8080601f016020809104026020016040519081016040528093929190818152602001838380828437600092019190915250610991925050506020890189613a26565b8080601f016020809104026020016040519081016040528093929190818152602001838380828437600092018290525060408d0135935030925090506109da60608d018d613a26565b8080601f0160208091040260200160405190810160405280939291908181526020018383808284376000920191909152506104d59250505060a08e0160808f01613a73565b92506001600160a01b03831663e38d7cad8635610a3f6020890189613a90565b610a4c60408b018b613a90565b610a5960608d018d613a90565b610a6660808f018f613a90565b6040518a63ffffffff1660e01b8152600401610a8a99989796959493929190613c23565b6020604051808303816000875af1158015610aa9573d6000803e3d6000fd5b505050506040513d601f19601f82011682018060405250810190610acd9190613cd4565b91506001600160a01b038216638b96412b610aeb6020870187612e90565b610af86020880188613a90565b610b0560408a018a613a90565b6040518663ffffffff1660e01b8152600401610b25959493929190613cf1565b6020604051808303816000875af1158015610b44573d6000803e3d6000fd5b505050506040513d601f19601f82011682018060405250810190610b689190613d35565b6040516301fc3d9160e71b81523060048201529091506001600160a01b0384169063fe1ec88090602401600060405180830381600087803b158015610bac57600080fd5b505af1158015610bc0573d6000803e3d6000fd5b5050600180555092969195509350915050565b600060026001541415610bf85760405162461bcd60e51b81526004016105f4906138c3565b6002600155610cda610c0a8480613a26565b8080601f016020809104026020016040519081016040528093929190818152602001838380828437600092019190915250610c4c925050506020860186613a26565b8080601f016020809104026020016040519081016040528093929190818152602001838380828437600092018290525060408a013593509150309050610c9560608a018a613a26565b8080601f0160208091040260200160405190810160405280939291908181526020018383808284376000920191909152506104d59250505060a08b0160808c01613a73565b90506001600160a01b038116631aa3adf9610cf86020850185613d4e565b610d056020860186613a26565b610d126040880188613a26565b610d1f60608a018a613a26565b610d2c60808c018c613a26565b60a08d0135610d3e60c08f018f613d69565b6040518d63ffffffff1660e01b8152600401610d659c9b9a99989796959493929190613db2565b600060405180830381600087803b158015610d7f57600080fd5b505af1158015610d93573d6000803e3d6000fd5b50506040516310c414eb60e21b81523060048201526001600160a01b038416925063431053ac9150602401600060405180830381600087803b158015610dd857600080fd5b505af1158015610dec573d6000803e3d6000fd5b50506001805550909392505050565b3360008181526008602052604081205490916001600160a01b0390911614610e845760405162461bcd60e51b815260206004820152603660248201527f455243373231466163746f72793a204f4e4c592045524337323120494e5354416044820152754e43452046524f4d20455243373231464143544f525960501b60648201526084016105f4565b610e9286868686863361264b565b9695505050505050565b6000546001600160a01b03163314610ec65760405162461bcd60e51b81526004016105f49061388e565b610ed06000612930565b565b600080546001600160a01b03163314610efd5760405162461bcd60e51b81526004016105f49061388e565b6001600160a01b038216610f705760405162461bcd60e51b815260206004820152603460248201527f4552433230466163746f72793a204552433732312074656d706c617465206164604482015273191c995cdcca0c0a481393d50810531313d5d15160621b60648201526084016105f4565b813b610fbe5760405162461bcd60e51b815260206004820152601a60248201527f4552433230466163746f72793a204e4f5420434f4e545241435400000000000060448201526064016105f4565b6001600b6000828254610fd19190613e96565b90915550506040805180820182526001600160a01b0380851680835260016020808501918252600b8054600090815260079092528682208651815494511515600160a01b026001600160a81b03199095169616959095179290921790935554935192939290917fdcd16da87b60cea6dbd55a83f73b8a4bf9a54655db58ae0f35b82a2373fc150d91a35050600b545b919050565b60008060006002600154141561108d5760405162461bcd60e51b81526004016105f4906138c3565b60026001556110f16110a26040860186613a90565b60018181106110b3576110b36138fa565b90506020020160208101906110c89190612e90565b33306110d48880613a90565b60048181106110e5576110e56138fa565b90506020020135612412565b6110fe61094f8780613a26565b92506001600160a01b03831663e38d7cad863561111e6020890189613a90565b61112b60408b018b613a90565b61113860608d018d613a90565b61114560808f018f613a90565b6040518a63ffffffff1660e01b815260040161116999989796959493929190613c23565b6020604051808303816000875af1158015611188573d6000803e3d6000fd5b505050506040513d601f19601f820116820180604052508101906111ac9190613cd4565b600c54909250611227906001600160a01b03166111c98680613a90565b60048181106111da576111da6138fa565b905060200201358680604001906111f19190613a90565b6001818110611202576112026138fa565b90506020020160208101906112179190612e90565b6001600160a01b03169190612560565b6001600160a01b038216635bfe4da06112408680613a90565b61124d6020890189613a90565b61125a60408b018b613a90565b6040518763ffffffff1660e01b815260040161127b96959493929190613eae565b6020604051808303816000875af115801561129a573d6000803e3d6000fd5b505050506040513d601f19601f82011682018060405250810190610b689190613cd4565b6000546001600160a01b031633146112e85760405162461bcd60e51b81526004016105f49061388e565b60055481111580156112f957508015155b6113155760405162461bcd60e51b81526004016105f490613ef7565b6000908152600660205260409020805460ff60a01b19169055565b600080546001600160a01b0316331461135b5760405162461bcd60e51b81526004016105f49061388e565b6001600160a01b0382166113d75760405162461bcd60e51b815260206004820152603760248201527f4552433732314454466163746f72793a204552433732312074656d706c61746560448201527f2061646472657373283029204e4f5420414c4c4f57454400000000000000000060648201526084016105f4565b813b6114255760405162461bcd60e51b815260206004820152601b60248201527f455243373231466163746f72793a204e4f5420434f4e5452414354000000000060448201526064016105f4565b6001600560008282546114389190613e96565b90915550506040805180820182526001600160a01b038085168083526001602080850191825260058054600090815260069092528682208651815494511515600160a01b026001600160a81b03199095169616959095179290921790935554935192939290917fc0167b92c8eb4a2bad2c05e0134f076fba5d3cd54671a3e8edf13d2e61443bd991a35050600554919050565b600260015414156114ee5760405162461bcd60e51b81526004016105f4906138c3565b60026001558051603210156115455760405162461bcd60e51b815260206004820152601e60248201527f455243373231466163746f72793a20546f6f204d616e79204f7264657273000060448201526064016105f4565b60005b815181101561090d576000806000848481518110611568576115686138fa565b6020026020010151600001516001600160a01b031663397b37436040518163ffffffff1660e01b8152600401606060405180830381865afa1580156115b1573d6000803e3d6000fd5b505050506040513d601f19601f820116820180604052508101906115d59190613f43565b9250925092506000811180156115f357506001600160a01b03821615155b801561160757506001600160a01b03831615155b1561164a5761161882333084612412565b61164a85858151811061162d5761162d6138fa565b6020908102919091010151516001600160a01b0384169083612560565b600085858151811061165e5761165e6138fa565b602002602001015160800151604001511180156116af575060006001600160a01b0316858581518110611693576116936138fa565b602002602001015160800151600001516001600160a01b031614155b80156116ef575060006001600160a01b03168585815181106116d3576116d36138fa565b602002602001015160800151602001516001600160a01b031614155b156117bf57611742858581518110611709576117096138fa565b60200260200101516080015160200151333088888151811061172d5761172d6138fa565b60200260200101516080015160400151612412565b6117bf858581518110611757576117576138fa565b602002602001015160000151868681518110611775576117756138fa565b60200260200101516080015160400151878781518110611797576117976138fa565b602002602001015160800151602001516001600160a01b03166125609092919063ffffffff16565b60008585815181106117d3576117d36138fa565b60200260200101516060015160400151118015611824575060006001600160a01b0316858581518110611808576118086138fa565b602002602001015160600151602001516001600160a01b031614155b8015611864575060006001600160a01b0316858581518110611848576118486138fa565b602002602001015160600151600001516001600160a01b031614155b15611934576118b785858151811061187e5761187e6138fa565b6020026020010151606001516020015133308888815181106118a2576118a26138fa565b60200260200101516060015160400151612412565b6119348585815181106118cc576118cc6138fa565b6020026020010151600001518686815181106118ea576118ea6138fa565b6020026020010151606001516040015187878151811061190c5761190c6138fa565b602002602001015160600151602001516001600160a01b03166125609092919063ffffffff16565b611965858581518110611949576119496138fa565b6020026020010151600001513330670de0b6b3a7640000612412565b848481518110611977576119776138fa565b6020026020010151600001516001600160a01b03166379d9d7f38686815181106119a3576119a36138fa565b6020026020010151602001518787815181106119c1576119c16138fa565b6020026020010151604001518888815181106119df576119df6138fa565b6020026020010151606001518989815181106119fd576119fd6138fa565b6020026020010151608001516040518563ffffffff1660e01b8152600401611a289493929190613f86565b600060405180830381600087803b158015611a4257600080fd5b505af1158015611a56573d6000803e3d6000fd5b505050505050508080611a6890613a0b565b915050611548565b60006005548611158015611a8357508515155b611a9f5760405162461bcd60e51b81526004016105f490613ef7565b6000868152600660209081526040918290208251808401909352546001600160a01b0381168352600160a01b900460ff161515908201819052611b3b5760405162461bcd60e51b815260206004820152602e60248201527f4552433732314454466163746f72793a20455243373231546f6b656e2054656d60448201526d1c1b185d1948191a5cd8589b195960921b60648201526084016105f4565b8051611b4690612980565b91506001600160a01b038216611bc6576040805162461bcd60e51b81526020600482015260248101919091527f4552433732314454466163746f72793a204661696c656420746f20706572666f60448201527f726d206d696e696d616c206465706c6f79206f662061206e657720746f6b656e60648201526084016105f4565b6001600160a01b0382166000818152600860205260409081902080546001600160a01b0319168317905551630343aa3d60e31b8152839190631a1d51e890611c209033908e908e9030908e908e908e908e90600401613fd9565b6020604051808303816000875af1158015611c3f573d6000803e3d6000fd5b505050506040513d601f19601f82011682018060405250810190611c639190614057565b611ccc5760405162461bcd60e51b815260206004820152603460248201527f4552433732314454466163746f72793a20556e61626c6520746f20696e697469604482015273616c697a6520746f6b656e20696e7374616e636560601b60648201526084016105f4565b81600001516001600160a01b0316836001600160a01b03167f46f5e3cee761854fc3892024ae7aa2c832007dff583603ce093f177ebd9c4c968c338d8a604051611d199493929190614074565b60405180910390a3600160036000828254611d349190613e96565b90915550929a9950505050505050505050565b6000546001600160a01b03163314611d715760405162461bcd60e51b81526004016105f49061388e565b6005548111158015611d8257508015155b611d9e5760405162461bcd60e51b81526004016105f490613ef7565b6000908152600660205260409020805460ff60a01b1916600160a01b179055565b60008060026001541415611de55760405162461bcd60e51b81526004016105f4906138c3565b6002600155611ec7611df78680613a26565b8080601f016020809104026020016040519081016040528093929190818152602001838380828437600092019190915250611e39925050506020880188613a26565b8080601f016020809104026020016040519081016040528093929190818152602001838380828437600092018290525060408c013593503092509050611e8260608c018c613a26565b8080601f0160208091040260200160405190810160405280939291908181526020018383808284376000920191909152506104d59250505060a08d0160808e01613a73565b91506001600160a01b03821663e38d7cad8535611ee76020880188613a90565b611ef460408a018a613a90565b611f0160608c018c613a90565b611f0e60808e018e613a90565b6040518a63ffffffff1660e01b8152600401611f3299989796959493929190613c23565b6020604051808303816000875af1158015611f51573d6000803e3d6000fd5b505050506040513d601f19601f82011682018060405250810190611f759190613cd4565b90506001600160a01b03811663191c918a611f936020860186612e90565b60208601356040870135611fad6080890160608a01613a73565b611fbd60a08a0160808b01612e90565b60405160e087901b6001600160e01b03191681526001600160a01b0395861660048201526024810194909452604484019290925215156064830152909116608482015260a401600060405180830381600087803b15801561201d57600080fd5b505af1158015612031573d6000803e3d6000fd5b50506040516301fc3d9160e71b81523060048201526001600160a01b038516925063fe1ec8809150602401600060405180830381600087803b15801561207657600080fd5b505af115801561208a573d6000803e3d6000fd5b50506001805550919590945092505050565b6000546001600160a01b031633146120c65760405162461bcd60e51b81526004016105f49061388e565b600b5481111580156120d757508015155b6121375760405162461bcd60e51b815260206004820152602b60248201527f45524332304454466163746f72793a2054656d706c61746520696e646578206460448201526a1bd95cdb9d08195e1a5cdd60aa1b60648201526084016105f4565b6000908152600760205260409020805460ff60a01b1916600160a01b179055565b6000806002600154141561217e5760405162461bcd60e51b81526004016105f4906138c3565b60026001556122606121908580613a26565b8080601f0160208091040260200160405190810160405280939291908181526020018383808284376000920191909152506121d2925050506020870187613a26565b8080601f016020809104026020016040519081016040528093929190818152602001838380828437600092018290525060408b01359350309250905061221b60608b018b613a26565b8080601f0160208091040260200160405190810160405280939291908181526020018383808284376000920191909152506104d59250505060a08c0160808d01613a73565b91506001600160a01b03821663e38d7cad84356122806020870187613a90565b61228d6040890189613a90565b61229a60608b018b613a90565b6122a760808d018d613a90565b6040518a63ffffffff1660e01b81526004016122cb99989796959493929190613c23565b6020604051808303816000875af11580156122ea573d6000803e3d6000fd5b505050506040513d601f19601f8201168201806040525081019061230e9190613cd4565b6040516301fc3d9160e71b81523060048201529091506001600160a01b0383169063fe1ec88090602401600060405180830381600087803b15801561235257600080fd5b505af1158015612366573d6000803e3d6000fd5b505060018055509194909350915050565b6000546001600160a01b031633146123a15760405162461bcd60e51b81526004016105f49061388e565b6001600160a01b0381166124065760405162461bcd60e51b815260206004820152602660248201527f4f776e61626c653a206e6577206f776e657220697320746865207a65726f206160448201526564647265737360d01b60648201526084016105f4565b61240f81612930565b50565b6040516370a0823160e01b81526001600160a01b038381166004830152600091908616906370a0823190602401602060405180830381865afa15801561245c573d6000803e3d6000fd5b505050506040513d601f19601f820116820180604052508101906124809190613d35565b90506124976001600160a01b038616858585612a10565b6124a18183612a48565b6040516370a0823160e01b81526001600160a01b0385811660048301528716906370a0823190602401602060405180830381865afa1580156124e7573d6000803e3d6000fd5b505050506040513d601f19601f8201168201806040525081019061250b9190613d35565b10156125595760405162461bcd60e51b815260206004820152601a60248201527f5472616e7366657220616d6f756e7420697320746f6f206c6f7700000000000060448201526064016105f4565b5050505050565b604051636eb1769f60e11b81523060048201526001600160a01b038381166024830152600091839186169063dd62ed3e90604401602060405180830381865afa1580156125b1573d6000803e3d6000fd5b505050506040513d601f19601f820116820180604052508101906125d59190613d35565b6125df9190613e96565b6040516001600160a01b03851660248201526044810182905290915061264590859063095ea7b360e01b906064015b60408051601f198184030181529190526020810180516001600160e01b03166001600160e01b031990931692909217909152612a5b565b50505050565b600083600081518110612660576126606138fa565b6020026020010151600014156126c65760405162461bcd60e51b815260206004820152602560248201527f4552433230466163746f72793a207a65726f20636170206973206e6f7420616c6044820152641b1bddd95960da1b60648201526084016105f4565b600b5487111580156126d757508615155b6126f35760405162461bcd60e51b81526004016105f490613845565b6000878152600760209081526040918290208251808401909352546001600160a01b0381168352600160a01b900460ff16151590820181905261278c5760405162461bcd60e51b815260206004820152602b60248201527f4552433230466163746f72793a20455243373231546f6b656e2054656d706c6160448201526a1d1948191a5cd8589b195960aa1b60648201526084016105f4565b805161279790612980565b6001600160a01b0381166000818152600960205260409020805460ff1916600117905590925061282f5760405162461bcd60e51b815260206004820152603e60248201527f455243373231466163746f72793a204661696c656420746f20706572666f726d60448201527f206d696e696d616c206465706c6f79206f662061206e657720746f6b656e000060648201526084016105f4565b80600001516001600160a01b0316826001600160a01b03167f567699dbf7c5f63a51a42fd451f5e065bca0dfc723adf2cc498bbb7cfb780b908960008151811061287b5761287b6138fa565b60200260200101518a600181518110612896576128966138fa565b6020026020010151896000815181106128b1576128b16138fa565b6020026020010151886040516128ca94939291906140bc565b60405180910390a36001600a60008282546128e59190613e96565b90915550506040805160a08101825288815260208101889052908101869052606081018590526001600160a01b03841660808201526129248382612b32565b50509695505050505050565b600080546001600160a01b038381166001600160a01b0319831681178455604051919092169283917f8be0079c531659141344cd1fd0a4f28419497f9722a3daafe3b4186f6b6457e09190a35050565b6000808260601b9050604051733d602d80600a3d3981f3363d3d373d3d3d363d7360601b81528160148201526e5af43d82803e903d91602b57fd5bf360881b60288201526037816000f06040516001600160a01b03821681529093507f117c72e6c25f0a072e36e148df71468ce2f3dbe7defec5b2c257a6e3eb65278c915060200160405180910390a150919050565b6040516001600160a01b03808516602483015283166044820152606481018290526126459085906323b872dd60e01b9060840161260e565b6000612a548284613e96565b9392505050565b6000612ab0826040518060400160405280602081526020017f5361666545524332303a206c6f772d6c6576656c2063616c6c206661696c6564815250856001600160a01b0316612cdf9092919063ffffffff16565b805190915015612b2d5780806020019051810190612ace9190614057565b612b2d5760405162461bcd60e51b815260206004820152602a60248201527f5361666545524332303a204552433230206f7065726174696f6e20646964206e6044820152691bdd081cdd58d8d9595960b21b60648201526084016105f4565b505050565b6040805160038082526080820190925283916000919060208201606080368337019050509050826080015181600081518110612b7057612b706138fa565b6001600160a01b039283166020918202929092010152600254825191169082906001908110612ba157612ba16138fa565b6001600160a01b039283166020918202929092010152600c54825191169082906002908110612bd257612bd26138fa565b60200260200101906001600160a01b031690816001600160a01b031681525050816001600160a01b031663b3998be08460000151856020015184876040015188606001516040518663ffffffff1660e01b8152600401612c369594939291906141b4565b6020604051808303816000875af1158015612c55573d6000803e3d6000fd5b505050506040513d601f19601f82011682018060405250810190612c799190614057565b6126455760405162461bcd60e51b815260206004820152603160248201527f4552433230466163746f72793a20556e61626c6520746f20696e697469616c696044820152707a6520746f6b656e20696e7374616e636560781b60648201526084016105f4565b6060612cee8484600085612cf6565b949350505050565b606082471015612d575760405162461bcd60e51b815260206004820152602660248201527f416464726573733a20696e73756666696369656e742062616c616e636520666f6044820152651c8818d85b1b60d21b60648201526084016105f4565b843b612da55760405162461bcd60e51b815260206004820152601d60248201527f416464726573733a2063616c6c20746f206e6f6e2d636f6e747261637400000060448201526064016105f4565b600080866001600160a01b03168587604051612dc1919061425d565b60006040518083038185875af1925050503d8060008114612dfe576040519150601f19603f3d011682016040523d82523d6000602084013e612e03565b606091505b5091509150612e13828286612e1e565b979650505050505050565b60608315612e2d575081612a54565b825115612e3d5782518084602001fd5b8160405162461bcd60e51b81526004016105f49190614279565b600060208284031215612e6957600080fd5b5035919050565b6001600160a01b038116811461240f57600080fd5b803561106081612e70565b600060208284031215612ea257600080fd5b8135612a5481612e70565b634e487b7160e01b600052604160045260246000fd5b60405161010081016001600160401b0381118282101715612ee657612ee6612ead565b60405290565b604051606081016001600160401b0381118282101715612ee657612ee6612ead565b60405160a081016001600160401b0381118282101715612ee657612ee6612ead565b604051601f8201601f191681016001600160401b0381118282101715612f5857612f58612ead565b604052919050565b60006001600160401b03821115612f7957612f79612ead565b5060051b60200190565b803560ff8116811461106057600080fd5b600082601f830112612fa557600080fd5b81356001600160401b03811115612fbe57612fbe612ead565b612fd1601f8201601f1916602001612f30565b818152846020838601011115612fe657600080fd5b816020850160208301376000918101602001919091529392505050565b6000610100828403121561301657600080fd5b61301e612ec3565b905061302982612e85565b815261303760208301612e85565b60208201526040820135604082015261305260608301612f83565b60608201526080820135608082015260a082013560a082015260c082013560c082015260e08201356001600160401b0381111561308e57600080fd5b61309a84828501612f94565b60e08301525092915050565b600060208083850312156130b957600080fd5b82356001600160401b03808211156130d057600080fd5b818501915085601f8301126130e457600080fd5b81356130f76130f282612f60565b612f30565b81815260059190911b8301840190848101908883111561311657600080fd5b8585015b8381101561319f578035858111156131325760008081fd5b86016060818c03601f190181131561314a5760008081fd5b613152612eec565b8983013561315f81612e70565b81526040838101358b83015291830135918883111561317e5760008081fd5b61318c8e8c85870101613003565b908201528552505091860191860161311a565b5098975050505050505050565b600060a082840312156131be57600080fd5b50919050565b6000606082840312156131be57600080fd5b6000806000606084860312156131eb57600080fd5b83356001600160401b038082111561320257600080fd5b61320e878388016131ac565b9450602086013591508082111561322457600080fd5b613230878388016131ac565b9350604086013591508082111561324657600080fd5b50613253868287016131c4565b9150509250925092565b6000806040838503121561327057600080fd5b82356001600160401b038082111561328757600080fd5b613293868387016131ac565b935060208501359150808211156132a957600080fd5b50830160e081860312156132bc57600080fd5b809150509250929050565b600082601f8301126132d857600080fd5b813560206132e86130f283612f60565b82815260059290921b8401810191818101908684111561330757600080fd5b8286015b8481101561332b57803561331e81612e70565b835291830191830161330b565b509695505050505050565b600082601f83011261334757600080fd5b813560206133576130f283612f60565b82815260059290921b8401810191818101908684111561337657600080fd5b8286015b8481101561332b578035835291830191830161337a565b600082601f8301126133a257600080fd5b813560206133b26130f283612f60565b82815260059290921b840181019181810190868411156133d157600080fd5b8286015b8481101561332b5780356001600160401b038111156133f45760008081fd5b6134028986838b0101612f94565b8452509183019183016133d5565b600080600080600060a0868803121561342857600080fd5b853594506020808701356001600160401b038082111561344757600080fd5b818901915089601f83011261345b57600080fd5b81356134696130f282612f60565b81815260059190911b8301840190848101908c83111561348857600080fd5b8585015b838110156134c0578035858111156134a45760008081fd5b6134b28f89838a0101612f94565b84525091860191860161348c565b509850505060408901359250808311156134d957600080fd5b6134e58a848b016132c7565b955060608901359250808311156134fb57600080fd5b6135078a848b01613336565b9450608089013592508083111561351d57600080fd5b505061352b88828901613391565b9150509295509295909350565b6000602080838503121561354b57600080fd5b82356001600160401b038082111561356257600080fd5b818501915085601f83011261357657600080fd5b81356135846130f282612f60565b81815260059190911b830184019084810190888311156135a357600080fd5b8585015b8381101561319f578035858111156135be57600080fd5b8601808b0360e0601f19820112156135d557600080fd5b6135dd612f0e565b898301356135ea81612e70565b815260408301356135fa81612e70565b818b0152606083810135604083015260808401358981111561361b57600080fd5b6136298f8d83880101613003565b828401525080609f198401121561363f57600080fd5b50613648612eec565b915060a083013561365881612e70565b825260c083013561366881612e70565b828b015260e092909201356040820152608082015283529186019186016135a7565b801515811461240f57600080fd5b80356110608161368a565b600080600080600080600060e0888a0312156136be57600080fd5b87356001600160401b03808211156136d557600080fd5b6136e18b838c01612f94565b985060208a01359150808211156136f757600080fd5b6137038b838c01612f94565b975060408a0135965060608a0135915061371c82612e70565b90945060808901359061372e82612e70565b90935060a0890135908082111561374457600080fd5b506137518a828b01612f94565b92505061376060c08901613698565b905092959891949750929550565b600080600060e0848603121561378357600080fd5b83356001600160401b038082111561379a57600080fd5b6137a6878388016131ac565b945060208601359150808211156137bc57600080fd5b506137c9868287016131ac565b9250506137d985604086016131ac565b90509250925092565b600080604083850312156137f557600080fd5b82356001600160401b038082111561380c57600080fd5b613818868387016131ac565b9350602085013591508082111561382e57600080fd5b5061383b858286016131ac565b9150509250929050565b60208082526029908201527f4552433230466163746f72793a2054656d706c61746520696e64657820646f656040820152681cdb9d08195e1a5cdd60ba1b606082015260800190565b6020808252818101527f4f776e61626c653a2063616c6c6572206973206e6f7420746865206f776e6572604082015260600190565b6020808252601f908201527f5265656e7472616e637947756172643a207265656e7472616e742063616c6c00604082015260600190565b634e487b7160e01b600052603260045260246000fd5b60005b8381101561392b578181015183820152602001613913565b838111156126455750506000910152565b60008151808452613954816020860160208601613910565b601f01601f19169290920160200192915050565b600061010060018060a01b03808451168552806020850151166020860152506040830151604085015260ff60608401511660608501526080830151608085015260a083015160a085015260c083015160c085015260e08301518160e08601526139d38286018261393c565b95945050505050565b828152604060208201526000612cee6040830184613968565b634e487b7160e01b600052601160045260246000fd5b6000600019821415613a1f57613a1f6139f5565b5060010190565b6000808335601e19843603018112613a3d57600080fd5b8301803591506001600160401b03821115613a5757600080fd5b602001915036819003821315613a6c57600080fd5b9250929050565b600060208284031215613a8557600080fd5b8135612a548161368a565b6000808335601e19843603018112613aa757600080fd5b8301803591506001600160401b03821115613ac157600080fd5b6020019150600581901b3603821315613a6c57600080fd5b81835281816020850137506000828201602090810191909152601f909101601f19169091010190565b6000808335601e19843603018112613b1957600080fd5b83016020810192503590506001600160401b03811115613b3857600080fd5b803603831315613a6c57600080fd5b8183526000602080850194508260005b85811015613b85578135613b6a81612e70565b6001600160a01b031687529582019590820190600101613b57565b509495945050505050565b81835260006001600160fb1b03831115613ba957600080fd5b8260051b8083602087013760009401602001938452509192915050565b81835260006020808501808196508560051b810191508460005b87811015613c16578284038952613bf78288613b02565b613c02868284613ad9565b9a87019a9550505090840190600101613be0565b5091979650505050505050565b89815260a0602082018190528101889052600060c060058a901b830181019083018b835b8c811015613c845785840360bf19018352613c62828f613b02565b613c6d868284613ad9565b955050506020928301929190910190600101613c47565b5050508281036040840152613c9a81898b613b47565b90508281036060840152613caf818789613b90565b90508281036080840152613cc4818587613bc6565b9c9b505050505050505050505050565b600060208284031215613ce657600080fd5b8151612a5481612e70565b6001600160a01b0386168152606060208201819052600090613d169083018688613b47565b8281036040840152613d29818587613b90565b98975050505050505050565b600060208284031215613d4757600080fd5b5051919050565b600060208284031215613d6057600080fd5b612a5482612f83565b6000808335601e19843603018112613d8057600080fd5b8301803591506001600160401b03821115613d9a57600080fd5b6020019150600781901b3603821315613a6c57600080fd5b60ff8d16815260e060208201526000613dcf60e083018d8f613ad9565b604083820381850152613de3828d8f613ad9565b9150606084830381860152613df9838c8e613ad9565b9250608085840381870152613e0f848b8d613ad9565b60a087018a905286810360c088015287815288945060200160005b88811015613e7c578535613e3d81612e70565b6001600160a01b0316825260ff613e5660208801612f83565b166020830152858501358583015283860135848301529482019490820190600101613e2a565b5080955050505050509d9c50505050505050505050505050565b60008219821115613ea957613ea96139f5565b500190565b606081526000613ec260608301888a613b90565b8281036020840152613ed5818789613b90565b90508281036040840152613eea818587613b47565b9998505050505050505050565b6020808252602c908201527f4552433732314454466163746f72793a2054656d706c61746520696e6465782060408201526b191bd95cdb9d08195e1a5cdd60a21b606082015260800190565b600080600060608486031215613f5857600080fd5b8351613f6381612e70565b6020850151909350613f7481612e70565b80925050604084015190509250925092565b600060018060a01b03808716835285602084015260c06040840152613fae60c0840186613968565b915080845116606084015280602085015116608084015250604083015160a083015295945050505050565b6001600160a01b03898116825261010060208301819052600091613fff8483018c61393c565b91508382036040850152614013828b61393c565b8982166060860152888216608086015290871660a085015283810360c0850152905061403f818661393c565b91505082151560e08301529998505050505050505050565b60006020828403121561406957600080fd5b8151612a548161368a565b608081526000614087608083018761393c565b6001600160a01b038616602084015282810360408401526140a8818661393c565b90508281036060840152612e13818561393c565b6080815260006140cf608083018761393c565b82810360208401526140e1818761393c565b604084019590955250506001600160a01b039190911660609091015292915050565b600081518084526020808501945080840160005b83811015613b855781516001600160a01b031687529582019590820190600101614117565b600081518084526020808501945080840160005b83811015613b8557815187529582019590820190600101614150565b600081518084526020808501808196508360051b8101915082860160005b85811015613c165782840389526141a284835161393c565b9885019893509084019060010161418a565b600060a0820160a0835280885180835260c08501915060c08160051b86010192506020808b0160005b8381101561420b5760bf198887030185526141f986835161393c565b955093820193908201906001016141dd565b5050858403818701525050506142218188614103565b905082810360408401526142358187614103565b90508281036060840152614249818661413c565b90508281036080840152613d29818561416c565b6000825161426f818460208701613910565b9190910192915050565b602081526000612a54602083018461393c56fea2646970667358221220c097266886f6f3fa0bbca0883f28ae7138995d6e66787270d12b6d7bb90832d964736f6c634300080c00334f776e61626c653a2063616c6c6572206973206e6f7420746865206f776e6572",
  "linkReferences": {},
  "deployedLinkReferences": {}
}