{
  "_format": "hh-sol-artifact-1",
  "contractName": "ERC721Factory",
  "sourceName": "contracts/ERC721Factory.sol",
  "abi": [
    {
      "inputs": [
        {
          "internalType": "address",
          "name": "_template",
          "type": "address"
        },
        {
          "internalType": "address",
          "name": "_collector",
          "type": "address"
        },
        {
          "internalType": "address",
          "name": "_erc20Factory",
          "type": "address"
        },
        {
          "internalType": "address",
          "name": "_metadata",
          "type": "address"
        }
      ],
      "stateMutability": "nonpayable",
      "type": "constructor"
    },
    {
      "anonymous": false,
      "inputs": [
        {
          "indexed": false,
          "internalType": "address",
          "name": "instance",
          "type": "address"
        }
      ],
      "name": "InstanceDeployed",
      "type": "event"
    },
    {
      "anonymous": false,
      "inputs": [
        {
          "indexed": true,
          "internalType": "address",
          "name": "previousOwner",
          "type": "address"
        },
        {
          "indexed": true,
          "internalType": "address",
          "name": "newOwner",
          "type": "address"
        }
      ],
      "name": "OwnershipTransferred",
      "type": "event"
    },
    {
      "anonymous": false,
      "inputs": [
        {
          "indexed": true,
          "internalType": "address",
          "name": "newTokenAddress",
          "type": "address"
        },
        {
          "indexed": true,
          "internalType": "address",
          "name": "templateAddress",
          "type": "address"
        },
        {
          "indexed": true,
          "internalType": "string",
          "name": "tokenName",
          "type": "string"
        },
        {
          "indexed": false,
          "internalType": "address",
          "name": "admin",
          "type": "address"
        }
      ],
      "name": "TokenCreated",
      "type": "event"
    },
    {
      "inputs": [
        {
          "internalType": "address",
          "name": "_templateAddress",
          "type": "address"
        }
      ],
      "name": "addTokenTemplate",
      "outputs": [
        {
          "internalType": "uint256",
          "name": "",
          "type": "uint256"
        }
      ],
      "stateMutability": "nonpayable",
      "type": "function"
    },
    {
      "inputs": [
        {
          "internalType": "string",
          "name": "name",
          "type": "string"
        },
        {
          "internalType": "string",
          "name": "symbol",
          "type": "string"
        },
        {
          "internalType": "bytes",
          "name": "_data",
          "type": "bytes"
        },
        {
          "internalType": "bytes",
          "name": "_flags",
          "type": "bytes"
        },
        {
          "internalType": "uint256",
          "name": "_templateIndex",
          "type": "uint256"
        }
      ],
      "name": "deployERC721Contract",
      "outputs": [
        {
          "internalType": "address",
          "name": "token",
          "type": "address"
        }
      ],
      "stateMutability": "nonpayable",
      "type": "function"
    },
    {
      "inputs": [
        {
          "internalType": "uint256",
          "name": "_index",
          "type": "uint256"
        }
      ],
      "name": "disableTokenTemplate",
      "outputs": [],
      "stateMutability": "nonpayable",
      "type": "function"
    },
    {
      "inputs": [],
      "name": "getCurrentTemplateCount",
      "outputs": [
        {
          "internalType": "uint256",
          "name": "",
          "type": "uint256"
        }
      ],
      "stateMutability": "view",
      "type": "function"
    },
    {
      "inputs": [],
      "name": "getCurrentTokenCount",
      "outputs": [
        {
          "internalType": "uint256",
          "name": "",
          "type": "uint256"
        }
      ],
      "stateMutability": "view",
      "type": "function"
    },
    {
      "inputs": [
        {
          "internalType": "uint256",
          "name": "_index",
          "type": "uint256"
        }
      ],
      "name": "getTokenTemplate",
      "outputs": [
        {
          "components": [
            {
              "internalType": "address",
              "name": "templateAddress",
              "type": "address"
            },
            {
              "internalType": "bool",
              "name": "isActive",
              "type": "bool"
            }
          ],
          "internalType": "struct ERC721Factory.Template",
          "name": "",
          "type": "tuple"
        }
      ],
      "stateMutability": "view",
      "type": "function"
    },
    {
      "inputs": [],
      "name": "owner",
      "outputs": [
        {
          "internalType": "address",
          "name": "",
          "type": "address"
        }
      ],
      "stateMutability": "view",
      "type": "function"
    },
    {
      "inputs": [
        {
          "internalType": "uint256",
          "name": "_index",
          "type": "uint256"
        }
      ],
      "name": "reactivateTokenTemplate",
      "outputs": [],
      "stateMutability": "nonpayable",
      "type": "function"
    },
    {
      "inputs": [],
      "name": "renounceOwnership",
      "outputs": [],
      "stateMutability": "nonpayable",
      "type": "function"
    },
    {
      "inputs": [
        {
          "internalType": "uint256",
          "name": "",
          "type": "uint256"
        }
      ],
      "name": "templateList",
      "outputs": [
        {
          "internalType": "address",
          "name": "templateAddress",
          "type": "address"
        },
        {
          "internalType": "bool",
          "name": "isActive",
          "type": "bool"
        }
      ],
      "stateMutability": "view",
      "type": "function"
    },
    {
      "inputs": [
        {
          "internalType": "address",
          "name": "newOwner",
          "type": "address"
        }
      ],
      "name": "transferOwnership",
      "outputs": [],
      "stateMutability": "nonpayable",
      "type": "function"
    }
  ],
  "bytecode": "0x608060405260016002553480156200001657600080fd5b50604051620012c0380380620012c083398101604081905262000039916200029e565b60006200004562000152565b600080546001600160a01b0319166001600160a01b0383169081178255604051929350917f8be0079c531659141344cd1fd0a4f28419497f9722a3daafe3b4186f6b6457e0908290a3506001600160a01b03841615801590620000b057506001600160a01b03831615155b8015620000c557506001600160a01b03821615155b8015620000da57506001600160a01b03811615155b620001025760405162461bcd60e51b8152600401620000f990620002fa565b60405180910390fd5b6200010d8462000156565b50600180546001600160a01b039485166001600160a01b0319918216179091556003805493851693821693909317909255600480549190931691161790555062000455565b3390565b60006200016262000152565b6001600160a01b03166200017562000271565b6001600160a01b0316146200019e5760405162461bcd60e51b8152600401620000f9906200039e565b6001600160a01b038216620001c75760405162461bcd60e51b8152600401620000f990620003d3565b620001d28262000280565b620001f15760405162461bcd60e51b8152600401620000f99062000367565b60016005600082825462000206919062000430565b90915550506040805180820182526001600160a01b0380851682526001602080840191825260058054600090815260069092529490209251835491511515600160a01b0260ff60a01b19919093166001600160a01b031990921691909117161790555490505b919050565b6000546001600160a01b031690565b3b151590565b80516001600160a01b03811681146200026c57600080fd5b60008060008060808587031215620002b4578384fd5b620002bf8562000286565b9350620002cf6020860162000286565b9250620002df6040860162000286565b9150620002ef6060860162000286565b905092959194509250565b60208082526047908201527f4552433732314454466163746f72793a20496e76616c69642074656d706c617460408201527f6520746f6b656e2f636f6d6d756e6974792066656520636f6c6c6563746f72206060820152666164647265737360c81b608082015260a00190565b6020808252601b908201527f455243373231466163746f72793a204e4f5420434f4e54524143540000000000604082015260600190565b6020808252818101527f4f776e61626c653a2063616c6c6572206973206e6f7420746865206f776e6572604082015260600190565b60208082526037908201527f4552433732314454466163746f72793a204552433732312074656d706c61746560408201527f2061646472657373283029204e4f5420414c4c4f574544000000000000000000606082015260800190565b600082198211156200045057634e487b7160e01b81526011600452602481fd5b500190565b610e5b80620004656000396000f3fe608060405234801561001057600080fd5b50600436106100a95760003560e01c80638da5cb5b116100715780638da5cb5b14610134578063940516991461013c57806395c603051461015d578063bbf8d71f14610165578063c6cf868a14610178578063f2fde38b14610180576100a9565b8063042ab9b3146100ae5780630ffda887146100d757806327819e06146100ec578063715018a61461010c5780637b20bccf14610114575b600080fd5b6100c16100bc366004610a2b565b610193565b6040516100ce9190610d90565b60405180910390f35b6100ea6100e5366004610a2b565b6101d6565b005b6100ff6100fa36600461097b565b610266565b6040516100ce9190610a8b565b6100ea6104e0565b61012761012236600461092d565b610569565b6040516100ce9190610db2565b6100ff610672565b61014f61014a366004610a2b565b610681565b6040516100ce929190610a9f565b6101276106a8565b6100ea610173366004610a2b565b6106ae565b61012761073b565b6100ea61018e36600461092d565b610741565b61019b610895565b506000908152600660209081526040918290208251808401909352546001600160a01b0381168352600160a01b900460ff1615159082015290565b6101de610801565b6001600160a01b03166101ef610672565b6001600160a01b03161461021e5760405162461bcd60e51b815260040161021590610cb0565b60405180910390fd5b600554811115801561022f57508015155b61024b5760405162461bcd60e51b815260040161021590610b89565b6000908152600660205260409020805460ff60a01b19169055565b6000600554821115801561027957508115155b6102955760405162461bcd60e51b815260040161021590610b89565b6000828152600660209081526040918290208251808401909352546001600160a01b0381168352600160a01b900460ff1615159082018190526001146102ed5760405162461bcd60e51b815260040161021590610d42565b80516102f890610805565b91506001600160a01b0382166103205760405162461bcd60e51b815260040161021590610c1b565b6003546040516396cd513960e01b81526001600160a01b03909116906396cd513990610350908590600401610a8b565b600060405180830381600087803b15801561036a57600080fd5b505af115801561037e573d6000803e3d6000fd5b505050506000829050806001600160a01b0316637db0f56d338a8a600460009054906101000a90046001600160a01b0316600360009054906101000a90046001600160a01b03168c8c6040518863ffffffff1660e01b81526004016103e99796959493929190610aba565b602060405180830381600087803b15801561040357600080fd5b505af1158015610417573d6000803e3d6000fd5b505050506040513d601f19601f8201168201806040525081019061043b919061095b565b6104575760405162461bcd60e51b815260040161021590610b35565b876040516104659190610a6f565b604051809103902082600001516001600160a01b0316846001600160a01b03167f4489342c6a0fb1764158e856bdba2fc74b022f4ea0096f36218be0d8f4ca592a336040516104b49190610a8b565b60405180910390a46001600260008282546104cf9190610dbb565b909155509298975050505050505050565b6104e8610801565b6001600160a01b03166104f9610672565b6001600160a01b03161461051f5760405162461bcd60e51b815260040161021590610cb0565b600080546040516001600160a01b03909116907f8be0079c531659141344cd1fd0a4f28419497f9722a3daafe3b4186f6b6457e0908390a3600080546001600160a01b0319169055565b6000610573610801565b6001600160a01b0316610584610672565b6001600160a01b0316146105aa5760405162461bcd60e51b815260040161021590610cb0565b6001600160a01b0382166105d05760405162461bcd60e51b815260040161021590610ce5565b6105d98261088f565b6105f55760405162461bcd60e51b815260040161021590610c79565b6001600560008282546106089190610dbb565b90915550506040805180820182526001600160a01b0380851682526001602080840191825260058054600090815260069092529490209251835491511515600160a01b0260ff60a01b19919093166001600160a01b03199092169190911716179055549050919050565b6000546001600160a01b031690565b6006602052600090815260409020546001600160a01b03811690600160a01b900460ff1682565b60055490565b6106b6610801565b6001600160a01b03166106c7610672565b6001600160a01b0316146106ed5760405162461bcd60e51b815260040161021590610cb0565b60055481111580156106fe57508015155b61071a5760405162461bcd60e51b815260040161021590610b89565b6000908152600660205260409020805460ff60a01b1916600160a01b179055565b60025490565b610749610801565b6001600160a01b031661075a610672565b6001600160a01b0316146107805760405162461bcd60e51b815260040161021590610cb0565b6001600160a01b0381166107a65760405162461bcd60e51b815260040161021590610bd5565b600080546040516001600160a01b03808516939216917f8be0079c531659141344cd1fd0a4f28419497f9722a3daafe3b4186f6b6457e091a3600080546001600160a01b0319166001600160a01b0392909216919091179055565b3390565b6000808260601b9050604051733d602d80600a3d3981f3363d3d373d3d3d363d7360601b81528160148201526e5af43d82803e903d91602b57fd5bf360881b60288201526037816000f09250507f117c72e6c25f0a072e36e148df71468ce2f3dbe7defec5b2c257a6e3eb65278c826040516108819190610a8b565b60405180910390a150919050565b3b151590565b604080518082019091526000808252602082015290565b600082601f8301126108bc578081fd5b813567ffffffffffffffff808211156108d7576108d7610e0f565b604051601f8301601f1916810160200182811182821017156108fb576108fb610e0f565b604052828152848301602001861015610912578384fd5b82602086016020830137918201602001929092529392505050565b60006020828403121561093e578081fd5b81356001600160a01b0381168114610954578182fd5b9392505050565b60006020828403121561096c578081fd5b81518015158114610954578182fd5b600080600080600060a08688031215610992578081fd5b853567ffffffffffffffff808211156109a9578283fd5b6109b589838a016108ac565b965060208801359150808211156109ca578283fd5b6109d689838a016108ac565b955060408801359150808211156109eb578283fd5b6109f789838a016108ac565b94506060880135915080821115610a0c578283fd5b50610a19888289016108ac565b95989497509295608001359392505050565b600060208284031215610a3c578081fd5b5035919050565b60008151808452610a5b816020860160208601610ddf565b601f01601f19169290920160200192915050565b60008251610a81818460208701610ddf565b9190910192915050565b6001600160a01b0391909116815260200190565b6001600160a01b039290921682521515602082015260400190565b600060018060a01b03808a16835260e06020840152610adc60e084018a610a43565b8381036040850152610aee818a610a43565b90508188166060850152818716608085015283810360a0850152610b128187610a43565b91505082810360c0840152610b278185610a43565b9a9950505050505050505050565b60208082526034908201527f4552433732314454466163746f72793a20556e61626c6520746f20696e697469604082015273616c697a6520746f6b656e20696e7374616e636560601b606082015260800190565b6020808252602c908201527f4552433732314454466163746f72793a2054656d706c61746520696e6465782060408201526b191bd95cdb9d08195e1a5cdd60a21b606082015260800190565b60208082526026908201527f4f776e61626c653a206e6577206f776e657220697320746865207a65726f206160408201526564647265737360d01b606082015260800190565b602080825260409082018190527f4552433732314454466163746f72793a204661696c656420746f20706572666f908201527f726d206d696e696d616c206465706c6f79206f662061206e657720746f6b656e606082015260800190565b6020808252601b908201527f455243373231466163746f72793a204e4f5420434f4e54524143540000000000604082015260600190565b6020808252818101527f4f776e61626c653a2063616c6c6572206973206e6f7420746865206f776e6572604082015260600190565b60208082526037908201527f4552433732314454466163746f72793a204552433732312074656d706c61746560408201527f2061646472657373283029204e4f5420414c4c4f574544000000000000000000606082015260800190565b6020808252602e908201527f4552433732314454466163746f72793a20455243373231546f6b656e2054656d60408201526d1c1b185d1948191a5cd8589b195960921b606082015260800190565b81516001600160a01b0316815260209182015115159181019190915260400190565b90815260200190565b60008219821115610dda57634e487b7160e01b81526011600452602481fd5b500190565b60005b83811015610dfa578181015183820152602001610de2565b83811115610e09576000848401525b50505050565b634e487b7160e01b600052604160045260246000fdfea2646970667358221220627f04db6578920d372e1fa82c1be82391f53eca0614831f184e295d3244487864736f6c63430008000033",
  "linkReferences": {},
  "deployedLinkReferences": {}
}