{
  "_format": "hh-sol-artifact-1",
  "contractName": "ERC721Factory",
  "sourceName": "contracts/ERC721Factory.sol",
  "abi": [
    {
      "inputs": [
        {
          "internalType": "address",
          "name": "_template721",
          "type": "address"
        },
        {
          "internalType": "address",
          "name": "_template",
          "type": "address"
        },
        {
          "internalType": "address",
          "name": "_router",
          "type": "address"
        }
      ],
      "stateMutability": "nonpayable",
      "type": "constructor"
    },
    {
      "anonymous": false,
      "inputs": [
        {
          "indexed": true,
          "internalType": "address",
          "name": "datatokenAddress",
          "type": "address"
        },
        {
          "indexed": true,
          "internalType": "address",
          "name": "owner",
          "type": "address"
        },
        {
          "indexed": false,
          "internalType": "uint256",
          "name": "maxTokens",
          "type": "uint256"
        },
        {
          "indexed": false,
          "internalType": "uint256",
          "name": "maxBalance",
          "type": "uint256"
        },
        {
          "indexed": false,
          "internalType": "address",
          "name": "allowedSwapper",
          "type": "address"
        }
      ],
      "name": "DispenserCreated",
      "type": "event"
    },
    {
      "anonymous": false,
      "inputs": [
        {
          "indexed": false,
          "internalType": "address",
          "name": "instance",
          "type": "address"
        }
      ],
      "name": "InstanceDeployed",
      "type": "event"
    },
    {
      "anonymous": false,
      "inputs": [
        {
          "indexed": false,
          "internalType": "address",
          "name": "newTokenAddress",
          "type": "address"
        },
        {
          "indexed": true,
          "internalType": "address",
          "name": "templateAddress",
          "type": "address"
        },
        {
          "indexed": false,
          "internalType": "string",
          "name": "tokenName",
          "type": "string"
        },
        {
          "indexed": true,
          "internalType": "address",
          "name": "admin",
          "type": "address"
        },
        {
          "indexed": false,
          "internalType": "string",
          "name": "symbol",
          "type": "string"
        },
        {
          "indexed": false,
          "internalType": "string",
          "name": "tokenURI",
          "type": "string"
        },
        {
          "indexed": false,
          "internalType": "bool",
          "name": "transferable",
          "type": "bool"
        },
        {
          "indexed": true,
          "internalType": "address",
          "name": "creator",
          "type": "address"
        }
      ],
      "name": "NFTCreated",
      "type": "event"
    },
    {
      "anonymous": false,
      "inputs": [
        {
          "indexed": false,
          "internalType": "address",
          "name": "dispenserContract",
          "type": "address"
        }
      ],
      "name": "NewDispenser",
      "type": "event"
    },
    {
      "anonymous": false,
      "inputs": [
        {
          "indexed": false,
          "internalType": "bytes32",
          "name": "exchangeId",
          "type": "bytes32"
        },
        {
          "indexed": true,
          "internalType": "address",
          "name": "owner",
          "type": "address"
        },
        {
          "indexed": false,
          "internalType": "address",
          "name": "exchangeContract",
          "type": "address"
        },
        {
          "indexed": true,
          "internalType": "address",
          "name": "baseToken",
          "type": "address"
        }
      ],
      "name": "NewFixedRate",
      "type": "event"
    },
    {
      "anonymous": false,
      "inputs": [
        {
          "indexed": false,
          "internalType": "address",
          "name": "poolAddress",
          "type": "address"
        },
        {
          "indexed": false,
          "internalType": "address",
          "name": "ssContract",
          "type": "address"
        },
        {
          "indexed": false,
          "internalType": "address",
          "name": "baseTokenAddress",
          "type": "address"
        }
      ],
      "name": "NewPool",
      "type": "event"
    },
    {
      "anonymous": false,
      "inputs": [
        {
          "indexed": true,
          "internalType": "address",
          "name": "previousOwner",
          "type": "address"
        },
        {
          "indexed": true,
          "internalType": "address",
          "name": "newOwner",
          "type": "address"
        }
      ],
      "name": "OwnershipTransferred",
      "type": "event"
    },
    {
      "anonymous": false,
      "inputs": [
        {
          "indexed": true,
          "internalType": "address",
          "name": "_templateAddress",
          "type": "address"
        },
        {
          "indexed": true,
          "internalType": "uint256",
          "name": "nftTemplateCount",
          "type": "uint256"
        }
      ],
      "name": "Template20Added",
      "type": "event"
    },
    {
      "anonymous": false,
      "inputs": [
        {
          "indexed": true,
          "internalType": "address",
          "name": "_templateAddress",
          "type": "address"
        },
        {
          "indexed": true,
          "internalType": "uint256",
          "name": "nftTemplateCount",
          "type": "uint256"
        }
      ],
      "name": "Template721Added",
      "type": "event"
    },
    {
      "anonymous": false,
      "inputs": [
        {
          "indexed": true,
          "internalType": "address",
          "name": "newTokenAddress",
          "type": "address"
        },
        {
          "indexed": true,
          "internalType": "address",
          "name": "templateAddress",
          "type": "address"
        },
        {
          "indexed": false,
          "internalType": "string",
          "name": "name",
          "type": "string"
        },
        {
          "indexed": false,
          "internalType": "string",
          "name": "symbol",
          "type": "string"
        },
        {
          "indexed": false,
          "internalType": "uint256",
          "name": "cap",
          "type": "uint256"
        },
        {
          "indexed": false,
          "internalType": "address",
          "name": "creator",
          "type": "address"
        }
      ],
      "name": "TokenCreated",
      "type": "event"
    },
    {
      "anonymous": false,
      "inputs": [
        {
          "indexed": true,
          "internalType": "address",
          "name": "from",
          "type": "address"
        },
        {
          "indexed": true,
          "internalType": "address",
          "name": "to",
          "type": "address"
        },
        {
          "indexed": true,
          "internalType": "uint256",
          "name": "tokenId",
          "type": "uint256"
        }
      ],
      "name": "Transfer",
      "type": "event"
    },
    {
      "inputs": [
        {
          "internalType": "address",
          "name": "_templateAddress",
          "type": "address"
        }
      ],
      "name": "add721TokenTemplate",
      "outputs": [
        {
          "internalType": "uint256",
          "name": "",
          "type": "uint256"
        }
      ],
      "stateMutability": "nonpayable",
      "type": "function"
    },
    {
      "inputs": [
        {
          "internalType": "address",
          "name": "_templateAddress",
          "type": "address"
        }
      ],
      "name": "addTokenTemplate",
      "outputs": [
        {
          "internalType": "uint256",
          "name": "",
          "type": "uint256"
        }
      ],
      "stateMutability": "nonpayable",
      "type": "function"
    },
    {
      "inputs": [
        {
          "components": [
            {
              "internalType": "string",
              "name": "name",
              "type": "string"
            },
            {
              "internalType": "string",
              "name": "symbol",
              "type": "string"
            },
            {
              "internalType": "uint256",
              "name": "templateIndex",
              "type": "uint256"
            },
            {
              "internalType": "string",
              "name": "tokenURI",
              "type": "string"
            },
            {
              "internalType": "bool",
              "name": "transferable",
              "type": "bool"
            },
            {
              "internalType": "address",
              "name": "owner",
              "type": "address"
            }
          ],
          "internalType": "struct IFactory.NftCreateData",
          "name": "_NftCreateData",
          "type": "tuple"
        },
        {
          "components": [
            {
              "internalType": "uint256",
              "name": "templateIndex",
              "type": "uint256"
            },
            {
              "internalType": "string[]",
              "name": "strings",
              "type": "string[]"
            },
            {
              "internalType": "address[]",
              "name": "addresses",
              "type": "address[]"
            },
            {
              "internalType": "uint256[]",
              "name": "uints",
              "type": "uint256[]"
            },
            {
              "internalType": "bytes[]",
              "name": "bytess",
              "type": "bytes[]"
            }
          ],
          "internalType": "struct IFactory.ErcCreateData",
          "name": "_ErcCreateData",
          "type": "tuple"
        }
      ],
      "name": "createNftWithErc20",
      "outputs": [
        {
          "internalType": "address",
          "name": "erc721Address",
          "type": "address"
        },
        {
          "internalType": "address",
          "name": "erc20Address",
          "type": "address"
        }
      ],
      "stateMutability": "nonpayable",
      "type": "function"
    },
    {
      "inputs": [
        {
          "components": [
            {
              "internalType": "string",
              "name": "name",
              "type": "string"
            },
            {
              "internalType": "string",
              "name": "symbol",
              "type": "string"
            },
            {
              "internalType": "uint256",
              "name": "templateIndex",
              "type": "uint256"
            },
            {
              "internalType": "string",
              "name": "tokenURI",
              "type": "string"
            },
            {
              "internalType": "bool",
              "name": "transferable",
              "type": "bool"
            },
            {
              "internalType": "address",
              "name": "owner",
              "type": "address"
            }
          ],
          "internalType": "struct IFactory.NftCreateData",
          "name": "_NftCreateData",
          "type": "tuple"
        },
        {
          "components": [
            {
              "internalType": "uint256",
              "name": "templateIndex",
              "type": "uint256"
            },
            {
              "internalType": "string[]",
              "name": "strings",
              "type": "string[]"
            },
            {
              "internalType": "address[]",
              "name": "addresses",
              "type": "address[]"
            },
            {
              "internalType": "uint256[]",
              "name": "uints",
              "type": "uint256[]"
            },
            {
              "internalType": "bytes[]",
              "name": "bytess",
              "type": "bytes[]"
            }
          ],
          "internalType": "struct IFactory.ErcCreateData",
          "name": "_ErcCreateData",
          "type": "tuple"
        },
        {
          "components": [
            {
              "internalType": "address",
              "name": "dispenserAddress",
              "type": "address"
            },
            {
              "internalType": "uint256",
              "name": "maxTokens",
              "type": "uint256"
            },
            {
              "internalType": "uint256",
              "name": "maxBalance",
              "type": "uint256"
            },
            {
              "internalType": "bool",
              "name": "withMint",
              "type": "bool"
            },
            {
              "internalType": "address",
              "name": "allowedSwapper",
              "type": "address"
            }
          ],
          "internalType": "struct IFactory.DispenserData",
          "name": "_DispenserData",
          "type": "tuple"
        }
      ],
      "name": "createNftWithErc20WithDispenser",
      "outputs": [
        {
          "internalType": "address",
          "name": "erc721Address",
          "type": "address"
        },
        {
          "internalType": "address",
          "name": "erc20Address",
          "type": "address"
        }
      ],
      "stateMutability": "nonpayable",
      "type": "function"
    },
    {
      "inputs": [
        {
          "components": [
            {
              "internalType": "string",
              "name": "name",
              "type": "string"
            },
            {
              "internalType": "string",
              "name": "symbol",
              "type": "string"
            },
            {
              "internalType": "uint256",
              "name": "templateIndex",
              "type": "uint256"
            },
            {
              "internalType": "string",
              "name": "tokenURI",
              "type": "string"
            },
            {
              "internalType": "bool",
              "name": "transferable",
              "type": "bool"
            },
            {
              "internalType": "address",
              "name": "owner",
              "type": "address"
            }
          ],
          "internalType": "struct IFactory.NftCreateData",
          "name": "_NftCreateData",
          "type": "tuple"
        },
        {
          "components": [
            {
              "internalType": "uint256",
              "name": "templateIndex",
              "type": "uint256"
            },
            {
              "internalType": "string[]",
              "name": "strings",
              "type": "string[]"
            },
            {
              "internalType": "address[]",
              "name": "addresses",
              "type": "address[]"
            },
            {
              "internalType": "uint256[]",
              "name": "uints",
              "type": "uint256[]"
            },
            {
              "internalType": "bytes[]",
              "name": "bytess",
              "type": "bytes[]"
            }
          ],
          "internalType": "struct IFactory.ErcCreateData",
          "name": "_ErcCreateData",
          "type": "tuple"
        },
        {
          "components": [
            {
              "internalType": "address",
              "name": "fixedPriceAddress",
              "type": "address"
            },
            {
              "internalType": "address[]",
              "name": "addresses",
              "type": "address[]"
            },
            {
              "internalType": "uint256[]",
              "name": "uints",
              "type": "uint256[]"
            }
          ],
          "internalType": "struct IFactory.FixedData",
          "name": "_FixedData",
          "type": "tuple"
        }
      ],
      "name": "createNftWithErc20WithFixedRate",
      "outputs": [
        {
          "internalType": "address",
          "name": "erc721Address",
          "type": "address"
        },
        {
          "internalType": "address",
          "name": "erc20Address",
          "type": "address"
        },
        {
          "internalType": "bytes32",
          "name": "exchangeId",
          "type": "bytes32"
        }
      ],
      "stateMutability": "nonpayable",
      "type": "function"
    },
    {
      "inputs": [
        {
          "components": [
            {
              "internalType": "string",
              "name": "name",
              "type": "string"
            },
            {
              "internalType": "string",
              "name": "symbol",
              "type": "string"
            },
            {
              "internalType": "uint256",
              "name": "templateIndex",
              "type": "uint256"
            },
            {
              "internalType": "string",
              "name": "tokenURI",
              "type": "string"
            },
            {
              "internalType": "bool",
              "name": "transferable",
              "type": "bool"
            },
            {
              "internalType": "address",
              "name": "owner",
              "type": "address"
            }
          ],
          "internalType": "struct IFactory.NftCreateData",
          "name": "_NftCreateData",
          "type": "tuple"
        },
        {
          "components": [
            {
              "internalType": "uint256",
              "name": "templateIndex",
              "type": "uint256"
            },
            {
              "internalType": "string[]",
              "name": "strings",
              "type": "string[]"
            },
            {
              "internalType": "address[]",
              "name": "addresses",
              "type": "address[]"
            },
            {
              "internalType": "uint256[]",
              "name": "uints",
              "type": "uint256[]"
            },
            {
              "internalType": "bytes[]",
              "name": "bytess",
              "type": "bytes[]"
            }
          ],
          "internalType": "struct IFactory.ErcCreateData",
          "name": "_ErcCreateData",
          "type": "tuple"
        },
        {
          "components": [
            {
              "internalType": "uint256[]",
              "name": "ssParams",
              "type": "uint256[]"
            },
            {
              "internalType": "uint256[]",
              "name": "swapFees",
              "type": "uint256[]"
            },
            {
              "internalType": "address[]",
              "name": "addresses",
              "type": "address[]"
            }
          ],
          "internalType": "struct IFactory.PoolData",
          "name": "_PoolData",
          "type": "tuple"
        }
      ],
      "name": "createNftWithErc20WithPool",
      "outputs": [
        {
          "internalType": "address",
          "name": "erc721Address",
          "type": "address"
        },
        {
          "internalType": "address",
          "name": "erc20Address",
          "type": "address"
        },
        {
          "internalType": "address",
          "name": "poolAddress",
          "type": "address"
        }
      ],
      "stateMutability": "nonpayable",
      "type": "function"
    },
    {
      "inputs": [
        {
          "components": [
            {
              "internalType": "string",
              "name": "name",
              "type": "string"
            },
            {
              "internalType": "string",
              "name": "symbol",
              "type": "string"
            },
            {
              "internalType": "uint256",
              "name": "templateIndex",
              "type": "uint256"
            },
            {
              "internalType": "string",
              "name": "tokenURI",
              "type": "string"
            },
            {
              "internalType": "bool",
              "name": "transferable",
              "type": "bool"
            },
            {
              "internalType": "address",
              "name": "owner",
              "type": "address"
            }
          ],
          "internalType": "struct IFactory.NftCreateData",
          "name": "_NftCreateData",
          "type": "tuple"
        },
        {
          "components": [
            {
              "internalType": "uint8",
              "name": "_metaDataState",
              "type": "uint8"
            },
            {
              "internalType": "string",
              "name": "_metaDataDecryptorUrl",
              "type": "string"
            },
            {
              "internalType": "string",
              "name": "_metaDataDecryptorAddress",
              "type": "string"
            },
            {
              "internalType": "bytes",
              "name": "flags",
              "type": "bytes"
            },
            {
              "internalType": "bytes",
              "name": "data",
              "type": "bytes"
            },
            {
              "internalType": "bytes32",
              "name": "_metaDataHash",
              "type": "bytes32"
            },
            {
              "components": [
                {
                  "internalType": "address",
                  "name": "validatorAddress",
                  "type": "address"
                },
                {
                  "internalType": "uint8",
                  "name": "v",
                  "type": "uint8"
                },
                {
                  "internalType": "bytes32",
                  "name": "r",
                  "type": "bytes32"
                },
                {
                  "internalType": "bytes32",
                  "name": "s",
                  "type": "bytes32"
                }
              ],
              "internalType": "struct IERC721Template.metaDataProof[]",
              "name": "_metadataProofs",
              "type": "tuple[]"
            }
          ],
          "internalType": "struct ERC721Factory.MetaData",
          "name": "_MetaData",
          "type": "tuple"
        }
      ],
      "name": "createNftWithMetaData",
      "outputs": [
        {
          "internalType": "address",
          "name": "erc721Address",
          "type": "address"
        }
      ],
      "stateMutability": "nonpayable",
      "type": "function"
    },
    {
      "inputs": [
        {
          "internalType": "uint256",
          "name": "_templateIndex",
          "type": "uint256"
        },
        {
          "internalType": "string[]",
          "name": "strings",
          "type": "string[]"
        },
        {
          "internalType": "address[]",
          "name": "addresses",
          "type": "address[]"
        },
        {
          "internalType": "uint256[]",
          "name": "uints",
          "type": "uint256[]"
        },
        {
          "internalType": "bytes[]",
          "name": "bytess",
          "type": "bytes[]"
        }
      ],
      "name": "createToken",
      "outputs": [
        {
          "internalType": "address",
          "name": "token",
          "type": "address"
        }
      ],
      "stateMutability": "nonpayable",
      "type": "function"
    },
    {
      "inputs": [
        {
          "internalType": "string",
          "name": "name",
          "type": "string"
        },
        {
          "internalType": "string",
          "name": "symbol",
          "type": "string"
        },
        {
          "internalType": "uint256",
          "name": "_templateIndex",
          "type": "uint256"
        },
        {
          "internalType": "address",
          "name": "additionalERC20Deployer",
          "type": "address"
        },
        {
          "internalType": "address",
          "name": "additionalMetaDataUpdater",
          "type": "address"
        },
        {
          "internalType": "string",
          "name": "tokenURI",
          "type": "string"
        },
        {
          "internalType": "bool",
          "name": "transferable",
          "type": "bool"
        },
        {
          "internalType": "address",
          "name": "owner",
          "type": "address"
        }
      ],
      "name": "deployERC721Contract",
      "outputs": [
        {
          "internalType": "address",
          "name": "token",
          "type": "address"
        }
      ],
      "stateMutability": "nonpayable",
      "type": "function"
    },
    {
      "inputs": [
        {
          "internalType": "uint256",
          "name": "_index",
          "type": "uint256"
        }
      ],
      "name": "disable721TokenTemplate",
      "outputs": [],
      "stateMutability": "nonpayable",
      "type": "function"
    },
    {
      "inputs": [
        {
          "internalType": "uint256",
          "name": "_index",
          "type": "uint256"
        }
      ],
      "name": "disableTokenTemplate",
      "outputs": [],
      "stateMutability": "nonpayable",
      "type": "function"
    },
    {
      "inputs": [
        {
          "internalType": "address",
          "name": "",
          "type": "address"
        }
      ],
      "name": "erc20List",
      "outputs": [
        {
          "internalType": "bool",
          "name": "",
          "type": "bool"
        }
      ],
      "stateMutability": "view",
      "type": "function"
    },
    {
      "inputs": [
        {
          "internalType": "address",
          "name": "",
          "type": "address"
        }
      ],
      "name": "erc721List",
      "outputs": [
        {
          "internalType": "address",
          "name": "",
          "type": "address"
        }
      ],
      "stateMutability": "view",
      "type": "function"
    },
    {
      "inputs": [],
      "name": "getCurrentNFTCount",
      "outputs": [
        {
          "internalType": "uint256",
          "name": "",
          "type": "uint256"
        }
      ],
      "stateMutability": "view",
      "type": "function"
    },
    {
      "inputs": [],
      "name": "getCurrentNFTTemplateCount",
      "outputs": [
        {
          "internalType": "uint256",
          "name": "",
          "type": "uint256"
        }
      ],
      "stateMutability": "view",
      "type": "function"
    },
    {
      "inputs": [],
      "name": "getCurrentTemplateCount",
      "outputs": [
        {
          "internalType": "uint256",
          "name": "",
          "type": "uint256"
        }
      ],
      "stateMutability": "view",
      "type": "function"
    },
    {
      "inputs": [],
      "name": "getCurrentTokenCount",
      "outputs": [
        {
          "internalType": "uint256",
          "name": "",
          "type": "uint256"
        }
      ],
      "stateMutability": "view",
      "type": "function"
    },
    {
      "inputs": [
        {
          "internalType": "uint256",
          "name": "_index",
          "type": "uint256"
        }
      ],
      "name": "getNFTTemplate",
      "outputs": [
        {
          "components": [
            {
              "internalType": "address",
              "name": "templateAddress",
              "type": "address"
            },
            {
              "internalType": "bool",
              "name": "isActive",
              "type": "bool"
            }
          ],
          "internalType": "struct ERC721Factory.Template",
          "name": "",
          "type": "tuple"
        }
      ],
      "stateMutability": "view",
      "type": "function"
    },
    {
      "inputs": [
        {
          "internalType": "uint256",
          "name": "_index",
          "type": "uint256"
        }
      ],
      "name": "getTokenTemplate",
      "outputs": [
        {
          "components": [
            {
              "internalType": "address",
              "name": "templateAddress",
              "type": "address"
            },
            {
              "internalType": "bool",
              "name": "isActive",
              "type": "bool"
            }
          ],
          "internalType": "struct ERC721Factory.Template",
          "name": "",
          "type": "tuple"
        }
      ],
      "stateMutability": "view",
      "type": "function"
    },
    {
      "inputs": [
        {
          "internalType": "uint256",
          "name": "",
          "type": "uint256"
        }
      ],
      "name": "nftTemplateList",
      "outputs": [
        {
          "internalType": "address",
          "name": "templateAddress",
          "type": "address"
        },
        {
          "internalType": "bool",
          "name": "isActive",
          "type": "bool"
        }
      ],
      "stateMutability": "view",
      "type": "function"
    },
    {
      "inputs": [],
      "name": "owner",
      "outputs": [
        {
          "internalType": "address",
          "name": "",
          "type": "address"
        }
      ],
      "stateMutability": "view",
      "type": "function"
    },
    {
      "inputs": [
        {
          "internalType": "uint256",
          "name": "_index",
          "type": "uint256"
        }
      ],
      "name": "reactivate721TokenTemplate",
      "outputs": [],
      "stateMutability": "nonpayable",
      "type": "function"
    },
    {
      "inputs": [
        {
          "internalType": "uint256",
          "name": "_index",
          "type": "uint256"
        }
      ],
      "name": "reactivateTokenTemplate",
      "outputs": [],
      "stateMutability": "nonpayable",
      "type": "function"
    },
    {
      "inputs": [],
      "name": "renounceOwnership",
      "outputs": [],
      "stateMutability": "nonpayable",
      "type": "function"
    },
    {
      "inputs": [
        {
          "components": [
            {
              "internalType": "address",
              "name": "tokenAddress",
              "type": "address"
            },
            {
              "internalType": "bytes32",
              "name": "orderTxId",
              "type": "bytes32"
            },
            {
              "components": [
                {
                  "internalType": "address",
                  "name": "providerFeeAddress",
                  "type": "address"
                },
                {
                  "internalType": "address",
                  "name": "providerFeeToken",
                  "type": "address"
                },
                {
                  "internalType": "uint256",
                  "name": "providerFeeAmount",
                  "type": "uint256"
                },
                {
                  "internalType": "uint8",
                  "name": "v",
                  "type": "uint8"
                },
                {
                  "internalType": "bytes32",
                  "name": "r",
                  "type": "bytes32"
                },
                {
                  "internalType": "bytes32",
                  "name": "s",
                  "type": "bytes32"
                },
                {
                  "internalType": "uint256",
                  "name": "validUntil",
                  "type": "uint256"
                },
                {
                  "internalType": "bytes",
                  "name": "providerData",
                  "type": "bytes"
                }
              ],
              "internalType": "struct IERC20Template.providerFee",
              "name": "_providerFee",
              "type": "tuple"
            }
          ],
          "internalType": "struct ERC721Factory.reuseTokenOrder[]",
          "name": "orders",
          "type": "tuple[]"
        }
      ],
      "name": "reuseMultipleTokenOrder",
      "outputs": [],
      "stateMutability": "nonpayable",
      "type": "function"
    },
    {
      "inputs": [],
      "name": "router",
      "outputs": [
        {
          "internalType": "address",
          "name": "",
          "type": "address"
        }
      ],
      "stateMutability": "view",
      "type": "function"
    },
    {
      "inputs": [
        {
          "components": [
            {
              "internalType": "address",
              "name": "tokenAddress",
              "type": "address"
            },
            {
              "internalType": "address",
              "name": "consumer",
              "type": "address"
            },
            {
              "internalType": "uint256",
              "name": "serviceIndex",
              "type": "uint256"
            },
            {
              "components": [
                {
                  "internalType": "address",
                  "name": "providerFeeAddress",
                  "type": "address"
                },
                {
                  "internalType": "address",
                  "name": "providerFeeToken",
                  "type": "address"
                },
                {
                  "internalType": "uint256",
                  "name": "providerFeeAmount",
                  "type": "uint256"
                },
                {
                  "internalType": "uint8",
                  "name": "v",
                  "type": "uint8"
                },
                {
                  "internalType": "bytes32",
                  "name": "r",
                  "type": "bytes32"
                },
                {
                  "internalType": "bytes32",
                  "name": "s",
                  "type": "bytes32"
                },
                {
                  "internalType": "uint256",
                  "name": "validUntil",
                  "type": "uint256"
                },
                {
                  "internalType": "bytes",
                  "name": "providerData",
                  "type": "bytes"
                }
              ],
              "internalType": "struct IERC20Template.providerFee",
              "name": "_providerFee",
              "type": "tuple"
            },
            {
              "components": [
                {
                  "internalType": "address",
                  "name": "consumeMarketFeeAddress",
                  "type": "address"
                },
                {
                  "internalType": "address",
                  "name": "consumeMarketFeeToken",
                  "type": "address"
                },
                {
                  "internalType": "uint256",
                  "name": "consumeMarketFeeAmount",
                  "type": "uint256"
                }
              ],
              "internalType": "struct IERC20Template.consumeMarketFee",
              "name": "_consumeMarketFee",
              "type": "tuple"
            }
          ],
          "internalType": "struct ERC721Factory.tokenOrder[]",
          "name": "orders",
          "type": "tuple[]"
        }
      ],
      "name": "startMultipleTokenOrder",
      "outputs": [],
      "stateMutability": "nonpayable",
      "type": "function"
    },
    {
      "inputs": [],
      "name": "templateCount",
      "outputs": [
        {
          "internalType": "uint256",
          "name": "",
          "type": "uint256"
        }
      ],
      "stateMutability": "view",
      "type": "function"
    },
    {
      "inputs": [
        {
          "internalType": "uint256",
          "name": "",
          "type": "uint256"
        }
      ],
      "name": "templateList",
      "outputs": [
        {
          "internalType": "address",
          "name": "templateAddress",
          "type": "address"
        },
        {
          "internalType": "bool",
          "name": "isActive",
          "type": "bool"
        }
      ],
      "stateMutability": "view",
      "type": "function"
    },
    {
      "inputs": [
        {
          "internalType": "address",
          "name": "newOwner",
          "type": "address"
        }
      ],
      "name": "transferOwnership",
      "outputs": [],
      "stateMutability": "nonpayable",
      "type": "function"
    }
  ],
  "bytecode": "0x608060405260006009553480156200001657600080fd5b506040516200496038038062004960833981016040819052620000399162000517565b62000044336200012a565b600180556001600160a01b038216158015906200006957506001600160a01b03811615155b80156200007e57506001600160a01b03831615155b620000e95760405162461bcd60e51b815260206004820152603060248201527f4552433732314454466163746f72793a20496e76616c69642074656d706c617460448201526f652f726f75746572206164647265737360801b60648201526084015b60405180910390fd5b620000f4836200017a565b5062000100826200033d565b50600b80546001600160a01b0319166001600160a01b039290921691909117905550620005889050565b600080546001600160a01b038381166001600160a01b0319831681178455604051919092169283917f8be0079c531659141344cd1fd0a4f28419497f9722a3daafe3b4186f6b6457e09190a35050565b600080546001600160a01b03163314620001c65760405162461bcd60e51b81526020600482018190526024820152600080516020620049408339815191526044820152606401620000e0565b6001600160a01b038216620002445760405162461bcd60e51b815260206004820152603760248201527f4552433732314454466163746f72793a204552433732312074656d706c61746560448201527f2061646472657373283029204e4f5420414c4c4f5745440000000000000000006064820152608401620000e0565b813b620002945760405162461bcd60e51b815260206004820152601b60248201527f455243373231466163746f72793a204e4f5420434f4e545241435400000000006044820152606401620000e0565b600160046000828254620002a9919062000561565b90915550506040805180820182526001600160a01b038085168083526001602080850191825260048054600090815260059092528682208651815494511515600160a01b026001600160a81b03199095169616959095179290921790935554935192939290917fc0167b92c8eb4a2bad2c05e0134f076fba5d3cd54671a3e8edf13d2e61443bd991a350506004545b919050565b600080546001600160a01b03163314620003895760405162461bcd60e51b81526020600482018190526024820152600080516020620049408339815191526044820152606401620000e0565b6001600160a01b038216620004075760405162461bcd60e51b815260206004820152603460248201527f4552433230466163746f72793a204552433732312074656d706c61746520616460448201527f6472657373283029204e4f5420414c4c4f5745440000000000000000000000006064820152608401620000e0565b813b620004575760405162461bcd60e51b815260206004820152601a60248201527f4552433230466163746f72793a204e4f5420434f4e54524143540000000000006044820152606401620000e0565b6001600a60008282546200046c919062000561565b90915550506040805180820182526001600160a01b0380851680835260016020808501918252600a8054600090815260069092528682208651815494511515600160a01b026001600160a81b03199095169616959095179290921790935554935192939290917fdcd16da87b60cea6dbd55a83f73b8a4bf9a54655db58ae0f35b82a2373fc150d91a35050600a54919050565b80516001600160a01b03811681146200033857600080fd5b6000806000606084860312156200052d57600080fd5b6200053884620004ff565b92506200054860208501620004ff565b91506200055860408501620004ff565b90509250925092565b600082198211156200058357634e487b7160e01b600052601160045260246000fd5b500190565b6143a880620005986000396000f3fe608060405234801561001057600080fd5b50600436106101da5760003560e01c806382c4420411610104578063aa897ddc116100a2578063e5fc01f011610071578063e5fc01f01461053b578063f2fde38b14610543578063f86b2bcf14610556578063f887ea401461056957600080fd5b8063aa897ddc146104b4578063bbf8d71f146104e7578063c6cf868a146104fa578063d282aa861461050257600080fd5b806394051699116100de578063940516991461045157806394be0e881461048657806395c6030514610499578063a33ef2a6146104a157600080fd5b806382c44204146103d95780638da5cb5b1461042d5780638f6051af1461043e57600080fd5b80633315efd11161017c578063715018a61161014b578063715018a61461038257806372f670f01461038a5780637b20bccf146103b3578063809d8105146103c657600080fd5b80633315efd1146102cd57806350447fd51461032a578063557fcfb0146103675780635c7059821461037a57600080fd5b80632515422e116101b85780632515422e1461026557806326705c3c1461027857806326f200661461028f5780633147c798146102ba57600080fd5b8063042ab9b3146101df5780630ffda8871461021d578063226e761514610232575b600080fd5b6101f26101ed366004612f0b565b61057c565b6040805182516001600160a01b03168152602092830151151592810192909252015b60405180910390f35b61023061022b366004612f0b565b610603565b005b610255610240366004612f44565b60086020526000908152604090205460ff1681565b6040519015158152602001610214565b61023061027336600461315a565b610648565b610281600a5481565b604051908152602001610214565b6102a261029d366004613278565b610915565b6040516001600160a01b039091168152602001610214565b6102a26102c83660046132fb565b610b4d565b6101f26102db366004612f0b565b6040805180820190915260008082526020820152506000908152600560209081526040918290208251808401909352546001600160a01b0381168352600160a01b900460ff1615159082015290565b61033d6103383660046133f3565b610ec6565b604080516001600160a01b0394851681529284166020840152921691810191909152606001610214565b6102a26103753660046135c3565b61126d565b600254610281565b61023061130e565b6102a2610398366004612f44565b6007602052600090815260409020546001600160a01b031681565b6102816103c1366004612f44565b611344565b6102306103d4366004612f0b565b6114d7565b61040e6103e7366004612f0b565b6005602052600090815260409020546001600160a01b03811690600160a01b900460ff1682565b604080516001600160a01b039093168352901515602083015201610214565b6000546001600160a01b03166102a2565b61028161044c366004612f44565b611549565b61040e61045f366004612f0b565b6006602052600090815260409020546001600160a01b03811690600160a01b900460ff1682565b6102306104943660046136eb565b6116e4565b600a54610281565b6102306104af366004612f0b565b611c89565b6104c76104c236600461383d565b611d01565b604080516001600160a01b03938416815292909116602083015201610214565b6102306104f5366004612f0b565b611fee565b600954610281565b6105156105103660046133f3565b6120aa565b604080516001600160a01b03948516815293909216602084015290820152606001610214565b600454610281565b610230610551366004612f44565b61222d565b6104c76105643660046138b1565b6122c8565b600b546102a2906001600160a01b031681565b60408051808201909152600080825260208201526000828152600660209081526040918290208251808401909352546001600160a01b0381168352600160a01b900460ff16151590820152600a5483118015906105d857508215155b6105fd5760405162461bcd60e51b81526004016105f490613914565b60405180910390fd5b92915050565b6000546001600160a01b0316331461062d5760405162461bcd60e51b81526004016105f49061395d565b6000908152600660205260409020805460ff60a01b19169055565b6002600154141561066b5760405162461bcd60e51b81526004016105f490613992565b60026001558051603210156106c25760405162461bcd60e51b815260206004820152601e60248201527f455243373231466163746f72793a20546f6f204d616e79204f7264657273000060448201526064016105f4565b60005b815181101561090d5760008282815181106106e2576106e26139c9565b60200260200101516040015160400151118015610733575060006001600160a01b0316828281518110610717576107176139c9565b602002602001015160400151602001516001600160a01b031614155b8015610773575060006001600160a01b0316828281518110610757576107576139c9565b602002602001015160400151600001516001600160a01b031614155b15610843576107c682828151811061078d5761078d6139c9565b6020026020010151604001516020015133308585815181106107b1576107b16139c9565b602002602001015160400151604001516124f7565b6108438282815181106107db576107db6139c9565b6020026020010151600001518383815181106107f9576107f96139c9565b6020026020010151604001516040015184848151811061081b5761081b6139c9565b602002602001015160400151602001516001600160a01b03166126459092919063ffffffff16565b818181518110610855576108556139c9565b6020026020010151600001516001600160a01b031663361fef49838381518110610881576108816139c9565b60200260200101516020015184848151811061089f5761089f6139c9565b6020026020010151604001516040518363ffffffff1660e01b81526004016108c8929190613aab565b600060405180830381600087803b1580156108e257600080fd5b505af11580156108f6573d6000803e3d6000fd5b50505050808061090590613ada565b9150506106c5565b505060018055565b60006002600154141561093a5760405162461bcd60e51b81526004016105f490613992565b6002600155610a2c61094c8480613af5565b8080601f01602080910402602001604051908101604052809392919081815260200183838082843760009201919091525061098e925050506020860186613af5565b8080601f016020809104026020016040519081016040528093929190818152602001838380828437600092018290525060408a0135935091503090506109d760608a018a613af5565b8080601f016020809104026020016040519081016040528093929190818152602001838380828437600092019190915250610a1c9250505060a08b0160808c01613b42565b6102c860c08c0160a08d01612f44565b90506001600160a01b038116631aa3adf9610a4a6020850185613b5f565b610a576020860186613af5565b610a646040880188613af5565b610a7160608a018a613af5565b610a7e60808c018c613af5565b60a08d0135610a9060c08f018f613b7a565b6040518d63ffffffff1660e01b8152600401610ab79c9b9a99989796959493929190613bec565b600060405180830381600087803b158015610ad157600080fd5b505af1158015610ae5573d6000803e3d6000fd5b50506040516310c414eb60e21b81523060048201526001600160a01b038416925063431053ac9150602401600060405180830381600087803b158015610b2a57600080fd5b505af1158015610b3e573d6000803e3d6000fd5b50506001805550909392505050565b60006004548711158015610b6057508615155b610b7c5760405162461bcd60e51b81526004016105f490613cd0565b6000878152600560209081526040918290208251808401909352546001600160a01b0381168352600160a01b900460ff161515908201819052610c185760405162461bcd60e51b815260206004820152602e60248201527f4552433732314454466163746f72793a20455243373231546f6b656e2054656d60448201526d1c1b185d1948191a5cd8589b195960921b60648201526084016105f4565b6001600160a01b038316610c825760405162461bcd60e51b815260206004820152602b60248201527f4552433732314454466163746f72793a20616464726573732830292063616e6e60448201526a37ba1031329037bbb732b960a91b60648201526084016105f4565b8051610c8d90612730565b91506001600160a01b038216610d0d576040805162461bcd60e51b81526020600482015260248101919091527f4552433732314454466163746f72793a204661696c656420746f20706572666f60448201527f726d206d696e696d616c206465706c6f79206f662061206e657720746f6b656e60648201526084016105f4565b8160076000846001600160a01b03166001600160a01b0316815260200190815260200160002060006101000a8154816001600160a01b0302191690836001600160a01b03160217905550336001600160a01b0316836001600160a01b031682600001516001600160a01b03167f8125264ec1d174cb383ea0646ea1e6921ca3b0aba20370c8e18389e7c2d6a571858e8e8b8b604051610db0959493929190613d1c565b60405180910390a4600160026000828254610dcb9190613d7b565b9091555050604051630343aa3d60e31b815282906001600160a01b03821690631a1d51e890610e0c9087908f908f9030908f908f908f908f90600401613d93565b6020604051808303816000875af1158015610e2b573d6000803e3d6000fd5b505050506040513d601f19601f82011682018060405250810190610e4f9190613e11565b610eb85760405162461bcd60e51b815260206004820152603460248201527f4552433732314454466163746f72793a20556e61626c6520746f20696e697469604482015273616c697a6520746f6b656e20696e7374616e636560601b60648201526084016105f4565b505098975050505050505050565b600080600060026001541415610eee5760405162461bcd60e51b81526004016105f490613992565b6002600155610f52610f036040860186613e2e565b6001818110610f1457610f146139c9565b9050602002016020810190610f299190612f44565b3330610f358880613e2e565b6004818110610f4657610f466139c9565b905060200201356124f7565b611042610f5f8780613af5565b8080601f016020809104026020016040519081016040528093929190818152602001838380828437600092019190915250610fa1925050506020890189613af5565b8080601f016020809104026020016040519081016040528093929190818152602001838380828437600092018290525060408d013593503092509050610fea60608d018d613af5565b8080601f01602080910402602001604051908101604052809392919081815260200183838082843760009201919091525061102f9250505060a08e0160808f01613b42565b8d60a00160208101906102c89190612f44565b92506001600160a01b03831663e38d7cad86356110626020890189613e2e565b61106f60408b018b613e2e565b61107c60608d018d613e2e565b61108960808f018f613e2e565b6040518a63ffffffff1660e01b81526004016110ad99989796959493929190613f98565b6020604051808303816000875af11580156110cc573d6000803e3d6000fd5b505050506040513d601f19601f820116820180604052508101906110f09190614049565b600b5490925061116b906001600160a01b031661110d8680613e2e565b600481811061111e5761111e6139c9565b905060200201358680604001906111359190613e2e565b6001818110611146576111466139c9565b905060200201602081019061115b9190612f44565b6001600160a01b03169190612645565b6001600160a01b038216635bfe4da06111848680613e2e565b6111916020890189613e2e565b61119e60408b018b613e2e565b6040518763ffffffff1660e01b81526004016111bf96959493929190614066565b6020604051808303816000875af11580156111de573d6000803e3d6000fd5b505050506040513d601f19601f820116820180604052508101906112029190614049565b6040516301fc3d9160e71b81523060048201529091506001600160a01b0384169063fe1ec88090602401600060405180830381600087803b15801561124657600080fd5b505af115801561125a573d6000803e3d6000fd5b5050600180555092969195509350915050565b3360008181526007602052604081205490916001600160a01b03909116146112f65760405162461bcd60e51b815260206004820152603660248201527f455243373231466163746f72793a204f4e4c592045524337323120494e5354416044820152754e43452046524f4d20455243373231464143544f525960501b60648201526084016105f4565b6113048686868686336127c0565b9695505050505050565b6000546001600160a01b031633146113385760405162461bcd60e51b81526004016105f49061395d565b6113426000612aa5565b565b600080546001600160a01b0316331461136f5760405162461bcd60e51b81526004016105f49061395d565b6001600160a01b0382166113e25760405162461bcd60e51b815260206004820152603460248201527f4552433230466163746f72793a204552433732312074656d706c617465206164604482015273191c995cdcca0c0a481393d50810531313d5d15160621b60648201526084016105f4565b813b6114305760405162461bcd60e51b815260206004820152601a60248201527f4552433230466163746f72793a204e4f5420434f4e545241435400000000000060448201526064016105f4565b6001600a60008282546114439190613d7b565b90915550506040805180820182526001600160a01b0380851680835260016020808501918252600a8054600090815260069092528682208651815494511515600160a01b026001600160a81b03199095169616959095179290921790935554935192939290917fdcd16da87b60cea6dbd55a83f73b8a4bf9a54655db58ae0f35b82a2373fc150d91a35050600a545b919050565b6000546001600160a01b031633146115015760405162461bcd60e51b81526004016105f49061395d565b600454811115801561151257508015155b61152e5760405162461bcd60e51b81526004016105f490613cd0565b6000908152600560205260409020805460ff60a01b19169055565b600080546001600160a01b031633146115745760405162461bcd60e51b81526004016105f49061395d565b6001600160a01b0382166115f05760405162461bcd60e51b815260206004820152603760248201527f4552433732314454466163746f72793a204552433732312074656d706c61746560448201527f2061646472657373283029204e4f5420414c4c4f57454400000000000000000060648201526084016105f4565b813b61163e5760405162461bcd60e51b815260206004820152601b60248201527f455243373231466163746f72793a204e4f5420434f4e5452414354000000000060448201526064016105f4565b6001600460008282546116519190613d7b565b90915550506040805180820182526001600160a01b038085168083526001602080850191825260048054600090815260059092528682208651815494511515600160a01b026001600160a81b03199095169616959095179290921790935554935192939290917fc0167b92c8eb4a2bad2c05e0134f076fba5d3cd54671a3e8edf13d2e61443bd991a35050600454919050565b600260015414156117075760405162461bcd60e51b81526004016105f490613992565b600260015580516032101561175e5760405162461bcd60e51b815260206004820152601e60248201527f455243373231466163746f72793a20546f6f204d616e79204f7264657273000060448201526064016105f4565b60005b815181101561090d576000806000848481518110611781576117816139c9565b6020026020010151600001516001600160a01b031663397b37436040518163ffffffff1660e01b8152600401606060405180830381865afa1580156117ca573d6000803e3d6000fd5b505050506040513d601f19601f820116820180604052508101906117ee91906140af565b92509250925060008111801561180c57506001600160a01b03821615155b801561182057506001600160a01b03831615155b1561186357611831823330846124f7565b611863858581518110611846576118466139c9565b6020908102919091010151516001600160a01b0384169083612645565b6000858581518110611877576118776139c9565b602002602001015160800151604001511180156118c8575060006001600160a01b03168585815181106118ac576118ac6139c9565b602002602001015160800151600001516001600160a01b031614155b8015611908575060006001600160a01b03168585815181106118ec576118ec6139c9565b602002602001015160800151602001516001600160a01b031614155b156119d85761195b858581518110611922576119226139c9565b602002602001015160800151602001513330888881518110611946576119466139c9565b602002602001015160800151604001516124f7565b6119d8858581518110611970576119706139c9565b60200260200101516000015186868151811061198e5761198e6139c9565b602002602001015160800151604001518787815181106119b0576119b06139c9565b602002602001015160800151602001516001600160a01b03166126459092919063ffffffff16565b60008585815181106119ec576119ec6139c9565b60200260200101516060015160400151118015611a3d575060006001600160a01b0316858581518110611a2157611a216139c9565b602002602001015160600151602001516001600160a01b031614155b8015611a7d575060006001600160a01b0316858581518110611a6157611a616139c9565b602002602001015160600151600001516001600160a01b031614155b15611b4d57611ad0858581518110611a9757611a976139c9565b602002602001015160600151602001513330888881518110611abb57611abb6139c9565b602002602001015160600151604001516124f7565b611b4d858581518110611ae557611ae56139c9565b602002602001015160000151868681518110611b0357611b036139c9565b60200260200101516060015160400151878781518110611b2557611b256139c9565b602002602001015160600151602001516001600160a01b03166126459092919063ffffffff16565b611b7e858581518110611b6257611b626139c9565b6020026020010151600001513330670de0b6b3a76400006124f7565b848481518110611b9057611b906139c9565b6020026020010151600001516001600160a01b03166379d9d7f3868681518110611bbc57611bbc6139c9565b602002602001015160200151878781518110611bda57611bda6139c9565b602002602001015160400151888881518110611bf857611bf86139c9565b602002602001015160600151898981518110611c1657611c166139c9565b6020026020010151608001516040518563ffffffff1660e01b8152600401611c4194939291906140f2565b600060405180830381600087803b158015611c5b57600080fd5b505af1158015611c6f573d6000803e3d6000fd5b505050505050508080611c8190613ada565b915050611761565b6000546001600160a01b03163314611cb35760405162461bcd60e51b81526004016105f49061395d565b6004548111158015611cc457508015155b611ce05760405162461bcd60e51b81526004016105f490613cd0565b6000908152600560205260409020805460ff60a01b1916600160a01b179055565b60008060026001541415611d275760405162461bcd60e51b81526004016105f490613992565b6002600155611e19611d398680613af5565b8080601f016020809104026020016040519081016040528093929190818152602001838380828437600092019190915250611d7b925050506020880188613af5565b8080601f016020809104026020016040519081016040528093929190818152602001838380828437600092018290525060408c013593503092509050611dc460608c018c613af5565b8080601f016020809104026020016040519081016040528093929190818152602001838380828437600092019190915250611e099250505060a08d0160808e01613b42565b6102c860c08e0160a08f01612f44565b91506001600160a01b03821663e38d7cad8535611e396020880188613e2e565b611e4660408a018a613e2e565b611e5360608c018c613e2e565b611e6060808e018e613e2e565b6040518a63ffffffff1660e01b8152600401611e8499989796959493929190613f98565b6020604051808303816000875af1158015611ea3573d6000803e3d6000fd5b505050506040513d601f19601f82011682018060405250810190611ec79190614049565b90506001600160a01b03811663191c918a611ee56020860186612f44565b60208601356040870135611eff6080890160608a01613b42565b611f0f60a08a0160808b01612f44565b60405160e087901b6001600160e01b03191681526001600160a01b0395861660048201526024810194909452604484019290925215156064830152909116608482015260a401600060405180830381600087803b158015611f6f57600080fd5b505af1158015611f83573d6000803e3d6000fd5b50506040516301fc3d9160e71b81523060048201526001600160a01b038516925063fe1ec8809150602401600060405180830381600087803b158015611fc857600080fd5b505af1158015611fdc573d6000803e3d6000fd5b50506001805550919590945092505050565b6000546001600160a01b031633146120185760405162461bcd60e51b81526004016105f49061395d565b600a54811115801561202957508015155b6120895760405162461bcd60e51b815260206004820152602b60248201527f45524332304454466163746f72793a2054656d706c61746520696e646578206460448201526a1bd95cdb9d08195e1a5cdd60aa1b60648201526084016105f4565b6000908152600660205260409020805460ff60a01b1916600160a01b179055565b6000806000600260015414156120d25760405162461bcd60e51b81526004016105f490613992565b60026001556120e4610f5f8780613af5565b92506001600160a01b03831663e38d7cad86356121046020890189613e2e565b61211160408b018b613e2e565b61211e60608d018d613e2e565b61212b60808f018f613e2e565b6040518a63ffffffff1660e01b815260040161214f99989796959493929190613f98565b6020604051808303816000875af115801561216e573d6000803e3d6000fd5b505050506040513d601f19601f820116820180604052508101906121929190614049565b91506001600160a01b038216638b96412b6121b06020870187612f44565b6121bd6020880188613e2e565b6121ca60408a018a613e2e565b6040518663ffffffff1660e01b81526004016121ea959493929190614145565b6020604051808303816000875af1158015612209573d6000803e3d6000fd5b505050506040513d601f19601f820116820180604052508101906112029190614189565b6000546001600160a01b031633146122575760405162461bcd60e51b81526004016105f49061395d565b6001600160a01b0381166122bc5760405162461bcd60e51b815260206004820152602660248201527f4f776e61626c653a206e6577206f776e657220697320746865207a65726f206160448201526564647265737360d01b60648201526084016105f4565b6122c581612aa5565b50565b600080600260015414156122ee5760405162461bcd60e51b81526004016105f490613992565b60026001556123e06123008580613af5565b8080601f016020809104026020016040519081016040528093929190818152602001838380828437600092019190915250612342925050506020870187613af5565b8080601f016020809104026020016040519081016040528093929190818152602001838380828437600092018290525060408b01359350309250905061238b60608b018b613af5565b8080601f0160208091040260200160405190810160405280939291908181526020018383808284376000920191909152506123d09250505060a08c0160808d01613b42565b6102c860c08d0160a08e01612f44565b91506001600160a01b03821663e38d7cad84356124006020870187613e2e565b61240d6040890189613e2e565b61241a60608b018b613e2e565b61242760808d018d613e2e565b6040518a63ffffffff1660e01b815260040161244b99989796959493929190613f98565b6020604051808303816000875af115801561246a573d6000803e3d6000fd5b505050506040513d601f19601f8201168201806040525081019061248e9190614049565b6040516301fc3d9160e71b81523060048201529091506001600160a01b0383169063fe1ec88090602401600060405180830381600087803b1580156124d257600080fd5b505af11580156124e6573d6000803e3d6000fd5b505060018055509194909350915050565b6040516370a0823160e01b81526001600160a01b038381166004830152600091908616906370a0823190602401602060405180830381865afa158015612541573d6000803e3d6000fd5b505050506040513d601f19601f820116820180604052508101906125659190614189565b905061257c6001600160a01b038616858585612af5565b6125868183612b2d565b6040516370a0823160e01b81526001600160a01b0385811660048301528716906370a0823190602401602060405180830381865afa1580156125cc573d6000803e3d6000fd5b505050506040513d601f19601f820116820180604052508101906125f09190614189565b101561263e5760405162461bcd60e51b815260206004820152601a60248201527f5472616e7366657220616d6f756e7420697320746f6f206c6f7700000000000060448201526064016105f4565b5050505050565b604051636eb1769f60e11b81523060048201526001600160a01b038381166024830152600091839186169063dd62ed3e90604401602060405180830381865afa158015612696573d6000803e3d6000fd5b505050506040513d601f19601f820116820180604052508101906126ba9190614189565b6126c49190613d7b565b6040516001600160a01b03851660248201526044810182905290915061272a90859063095ea7b360e01b906064015b60408051601f198184030181529190526020810180516001600160e01b03166001600160e01b031990931692909217909152612b40565b50505050565b6000808260601b9050604051733d602d80600a3d3981f3363d3d373d3d3d363d7360601b81528160148201526e5af43d82803e903d91602b57fd5bf360881b60288201526037816000f06040516001600160a01b03821681529093507f117c72e6c25f0a072e36e148df71468ce2f3dbe7defec5b2c257a6e3eb65278c915060200160405180910390a150919050565b6000836000815181106127d5576127d56139c9565b60200260200101516000141561283b5760405162461bcd60e51b815260206004820152602560248201527f4552433230466163746f72793a207a65726f20636170206973206e6f7420616c6044820152641b1bddd95960da1b60648201526084016105f4565b600a54871115801561284c57508615155b6128685760405162461bcd60e51b81526004016105f490613914565b6000878152600660209081526040918290208251808401909352546001600160a01b0381168352600160a01b900460ff1615159082018190526129015760405162461bcd60e51b815260206004820152602b60248201527f4552433230466163746f72793a20455243373231546f6b656e2054656d706c6160448201526a1d1948191a5cd8589b195960aa1b60648201526084016105f4565b805161290c90612730565b6001600160a01b0381166000818152600860205260409020805460ff191660011790559092506129a45760405162461bcd60e51b815260206004820152603e60248201527f455243373231466163746f72793a204661696c656420746f20706572666f726d60448201527f206d696e696d616c206465706c6f79206f662061206e657720746f6b656e000060648201526084016105f4565b80600001516001600160a01b0316826001600160a01b03167f567699dbf7c5f63a51a42fd451f5e065bca0dfc723adf2cc498bbb7cfb780b90896000815181106129f0576129f06139c9565b60200260200101518a600181518110612a0b57612a0b6139c9565b602002602001015189600081518110612a2657612a266139c9565b602002602001015188604051612a3f94939291906141a2565b60405180910390a3600160096000828254612a5a9190613d7b565b90915550506040805160a08101825288815260208101889052908101869052606081018590526001600160a01b0384166080820152612a998382612c17565b50509695505050505050565b600080546001600160a01b038381166001600160a01b0319831681178455604051919092169283917f8be0079c531659141344cd1fd0a4f28419497f9722a3daafe3b4186f6b6457e09190a35050565b6040516001600160a01b038085166024830152831660448201526064810182905261272a9085906323b872dd60e01b906084016126f3565b6000612b398284613d7b565b9392505050565b6000612b95826040518060400160405280602081526020017f5361666545524332303a206c6f772d6c6576656c2063616c6c206661696c6564815250856001600160a01b0316612d939092919063ffffffff16565b805190915015612c125780806020019051810190612bb39190613e11565b612c125760405162461bcd60e51b815260206004820152602a60248201527f5361666545524332303a204552433230206f7065726174696f6e20646964206e6044820152691bdd081cdd58d8d9595960b21b60648201526084016105f4565b505050565b6040805160038082526080820190925283916000919060208201606080368337019050509050826080015181600081518110612c5557612c556139c9565b6001600160a01b039283166020918202929092010152600b54825191169082906001908110612c8657612c866139c9565b60200260200101906001600160a01b031690816001600160a01b031681525050816001600160a01b031663b3998be08460000151856020015184876040015188606001516040518663ffffffff1660e01b8152600401612cea95949392919061429a565b6020604051808303816000875af1158015612d09573d6000803e3d6000fd5b505050506040513d601f19601f82011682018060405250810190612d2d9190613e11565b61272a5760405162461bcd60e51b815260206004820152603160248201527f4552433230466163746f72793a20556e61626c6520746f20696e697469616c696044820152707a6520746f6b656e20696e7374616e636560781b60648201526084016105f4565b6060612da28484600085612daa565b949350505050565b606082471015612e0b5760405162461bcd60e51b815260206004820152602660248201527f416464726573733a20696e73756666696369656e742062616c616e636520666f6044820152651c8818d85b1b60d21b60648201526084016105f4565b843b612e595760405162461bcd60e51b815260206004820152601d60248201527f416464726573733a2063616c6c20746f206e6f6e2d636f6e747261637400000060448201526064016105f4565b600080866001600160a01b03168587604051612e759190614343565b60006040518083038185875af1925050503d8060008114612eb2576040519150601f19603f3d011682016040523d82523d6000602084013e612eb7565b606091505b5091509150612ec7828286612ed2565b979650505050505050565b60608315612ee1575081612b39565b825115612ef15782518084602001fd5b8160405162461bcd60e51b81526004016105f4919061435f565b600060208284031215612f1d57600080fd5b5035919050565b6001600160a01b03811681146122c557600080fd5b80356114d281612f24565b600060208284031215612f5657600080fd5b8135612b3981612f24565b634e487b7160e01b600052604160045260246000fd5b60405161010081016001600160401b0381118282101715612f9a57612f9a612f61565b60405290565b604051606081016001600160401b0381118282101715612f9a57612f9a612f61565b60405160a081016001600160401b0381118282101715612f9a57612f9a612f61565b604051601f8201601f191681016001600160401b038111828210171561300c5761300c612f61565b604052919050565b60006001600160401b0382111561302d5761302d612f61565b5060051b60200190565b803560ff811681146114d257600080fd5b600082601f83011261305957600080fd5b81356001600160401b0381111561307257613072612f61565b613085601f8201601f1916602001612fe4565b81815284602083860101111561309a57600080fd5b816020850160208301376000918101602001919091529392505050565b600061010082840312156130ca57600080fd5b6130d2612f77565b90506130dd82612f39565b81526130eb60208301612f39565b60208201526040820135604082015261310660608301613037565b60608201526080820135608082015260a082013560a082015260c082013560c082015260e08201356001600160401b0381111561314257600080fd5b61314e84828501613048565b60e08301525092915050565b6000602080838503121561316d57600080fd5b82356001600160401b038082111561318457600080fd5b818501915085601f83011261319857600080fd5b81356131ab6131a682613014565b612fe4565b81815260059190911b830184019084810190888311156131ca57600080fd5b8585015b83811015613253578035858111156131e65760008081fd5b86016060818c03601f19018113156131fe5760008081fd5b613206612fa0565b8983013561321381612f24565b81526040838101358b8301529183013591888311156132325760008081fd5b6132408e8c858701016130b7565b90820152855250509186019186016131ce565b5098975050505050505050565b600060c0828403121561327257600080fd5b50919050565b6000806040838503121561328b57600080fd5b82356001600160401b03808211156132a257600080fd5b6132ae86838701613260565b935060208501359150808211156132c457600080fd5b50830160e081860312156132d757600080fd5b809150509250929050565b80151581146122c557600080fd5b80356114d2816132e2565b600080600080600080600080610100898b03121561331857600080fd5b88356001600160401b038082111561332f57600080fd5b61333b8c838d01613048565b995060208b013591508082111561335157600080fd5b61335d8c838d01613048565b985060408b0135975061337260608c01612f39565b965061338060808c01612f39565b955060a08b013591508082111561339657600080fd5b506133a38b828c01613048565b9350506133b260c08a016132f0565b91506133c060e08a01612f39565b90509295985092959890939650565b600060a0828403121561327257600080fd5b60006060828403121561327257600080fd5b60008060006060848603121561340857600080fd5b83356001600160401b038082111561341f57600080fd5b61342b87838801613260565b9450602086013591508082111561344157600080fd5b61344d878388016133cf565b9350604086013591508082111561346357600080fd5b50613470868287016133e1565b9150509250925092565b600082601f83011261348b57600080fd5b8135602061349b6131a683613014565b82815260059290921b840181019181810190868411156134ba57600080fd5b8286015b848110156134de5780356134d181612f24565b83529183019183016134be565b509695505050505050565b600082601f8301126134fa57600080fd5b8135602061350a6131a683613014565b82815260059290921b8401810191818101908684111561352957600080fd5b8286015b848110156134de578035835291830191830161352d565b600082601f83011261355557600080fd5b813560206135656131a683613014565b82815260059290921b8401810191818101908684111561358457600080fd5b8286015b848110156134de5780356001600160401b038111156135a75760008081fd5b6135b58986838b0101613048565b845250918301918301613588565b600080600080600060a086880312156135db57600080fd5b853594506020808701356001600160401b03808211156135fa57600080fd5b818901915089601f83011261360e57600080fd5b813561361c6131a682613014565b81815260059190911b8301840190848101908c83111561363b57600080fd5b8585015b83811015613673578035858111156136575760008081fd5b6136658f89838a0101613048565b84525091860191860161363f565b5098505050604089013592508083111561368c57600080fd5b6136988a848b0161347a565b955060608901359250808311156136ae57600080fd5b6136ba8a848b016134e9565b945060808901359250808311156136d057600080fd5b50506136de88828901613544565b9150509295509295909350565b600060208083850312156136fe57600080fd5b82356001600160401b038082111561371557600080fd5b818501915085601f83011261372957600080fd5b81356137376131a682613014565b81815260059190911b8301840190848101908883111561375657600080fd5b8585015b838110156132535780358581111561377157600080fd5b8601808b0360e0601f198201121561378857600080fd5b613790612fc2565b8983013561379d81612f24565b815260408301356137ad81612f24565b818b015260608381013560408301526080840135898111156137ce57600080fd5b6137dc8f8d838801016130b7565b828401525080609f19840112156137f257600080fd5b506137fb612fa0565b915060a083013561380b81612f24565b825260c083013561381b81612f24565b828b015260e0929092013560408201526080820152835291860191860161375a565b600080600060e0848603121561385257600080fd5b83356001600160401b038082111561386957600080fd5b61387587838801613260565b9450602086013591508082111561388b57600080fd5b50613898868287016133cf565b9250506138a885604086016133cf565b90509250925092565b600080604083850312156138c457600080fd5b82356001600160401b03808211156138db57600080fd5b6138e786838701613260565b935060208501359150808211156138fd57600080fd5b5061390a858286016133cf565b9150509250929050565b60208082526029908201527f4552433230466163746f72793a2054656d706c61746520696e64657820646f656040820152681cdb9d08195e1a5cdd60ba1b606082015260800190565b6020808252818101527f4f776e61626c653a2063616c6c6572206973206e6f7420746865206f776e6572604082015260600190565b6020808252601f908201527f5265656e7472616e637947756172643a207265656e7472616e742063616c6c00604082015260600190565b634e487b7160e01b600052603260045260246000fd5b60005b838110156139fa5781810151838201526020016139e2565b8381111561272a5750506000910152565b60008151808452613a238160208601602086016139df565b601f01601f19169290920160200192915050565b600061010060018060a01b03808451168552806020850151166020860152506040830151604085015260ff60608401511660608501526080830151608085015260a083015160a085015260c083015160c085015260e08301518160e0860152613aa282860182613a0b565b95945050505050565b828152604060208201526000612da26040830184613a37565b634e487b7160e01b600052601160045260246000fd5b6000600019821415613aee57613aee613ac4565b5060010190565b6000808335601e19843603018112613b0c57600080fd5b8301803591506001600160401b03821115613b2657600080fd5b602001915036819003821315613b3b57600080fd5b9250929050565b600060208284031215613b5457600080fd5b8135612b39816132e2565b600060208284031215613b7157600080fd5b612b3982613037565b6000808335601e19843603018112613b9157600080fd5b8301803591506001600160401b03821115613bab57600080fd5b6020019150600781901b3603821315613b3b57600080fd5b81835281816020850137506000828201602090810191909152601f909101601f19169091010190565b60ff8d16815260e060208201526000613c0960e083018d8f613bc3565b604083820381850152613c1d828d8f613bc3565b9150606084830381860152613c33838c8e613bc3565b9250608085840381870152613c49848b8d613bc3565b60a087018a905286810360c088015287815288945060200160005b88811015613cb6578535613c7781612f24565b6001600160a01b0316825260ff613c9060208801613037565b166020830152858501358583015283860135848301529482019490820190600101613c64565b5080955050505050509d9c50505050505050505050505050565b6020808252602c908201527f4552433732314454466163746f72793a2054656d706c61746520696e6465782060408201526b191bd95cdb9d08195e1a5cdd60a21b606082015260800190565b6001600160a01b038616815260a060208201819052600090613d4090830187613a0b565b8281036040840152613d528187613a0b565b90508281036060840152613d668186613a0b565b91505082151560808301529695505050505050565b60008219821115613d8e57613d8e613ac4565b500190565b6001600160a01b03898116825261010060208301819052600091613db98483018c613a0b565b91508382036040850152613dcd828b613a0b565b8982166060860152888216608086015290871660a085015283810360c08501529050613df98186613a0b565b91505082151560e08301529998505050505050505050565b600060208284031215613e2357600080fd5b8151612b39816132e2565b6000808335601e19843603018112613e4557600080fd5b8301803591506001600160401b03821115613e5f57600080fd5b6020019150600581901b3603821315613b3b57600080fd5b6000808335601e19843603018112613e8e57600080fd5b83016020810192503590506001600160401b03811115613ead57600080fd5b803603831315613b3b57600080fd5b8183526000602080850194508260005b85811015613efa578135613edf81612f24565b6001600160a01b031687529582019590820190600101613ecc565b509495945050505050565b81835260006001600160fb1b03831115613f1e57600080fd5b8260051b8083602087013760009401602001938452509192915050565b81835260006020808501808196508560051b810191508460005b87811015613f8b578284038952613f6c8288613e77565b613f77868284613bc3565b9a87019a9550505090840190600101613f55565b5091979650505050505050565b89815260a0602082018190528101889052600060c060058a901b830181019083018b835b8c811015613ff95785840360bf19018352613fd7828f613e77565b613fe2868284613bc3565b955050506020928301929190910190600101613fbc565b505050828103604084015261400f81898b613ebc565b90508281036060840152614024818789613f05565b90508281036080840152614039818587613f3b565b9c9b505050505050505050505050565b60006020828403121561405b57600080fd5b8151612b3981612f24565b60608152600061407a60608301888a613f05565b828103602084015261408d818789613f05565b905082810360408401526140a2818587613ebc565b9998505050505050505050565b6000806000606084860312156140c457600080fd5b83516140cf81612f24565b60208501519093506140e081612f24565b80925050604084015190509250925092565b600060018060a01b03808716835285602084015260c0604084015261411a60c0840186613a37565b915080845116606084015280602085015116608084015250604083015160a083015295945050505050565b6001600160a01b038616815260606020820181905260009061416a9083018688613ebc565b828103604084015261417d818587613f05565b98975050505050505050565b60006020828403121561419b57600080fd5b5051919050565b6080815260006141b56080830187613a0b565b82810360208401526141c78187613a0b565b604084019590955250506001600160a01b039190911660609091015292915050565b600081518084526020808501945080840160005b83811015613efa5781516001600160a01b0316875295820195908201906001016141fd565b600081518084526020808501945080840160005b83811015613efa57815187529582019590820190600101614236565b600081518084526020808501808196508360051b8101915082860160005b85811015613f8b578284038952614288848351613a0b565b98850198935090840190600101614270565b600060a0820160a0835280885180835260c08501915060c08160051b86010192506020808b0160005b838110156142f15760bf198887030185526142df868351613a0b565b955093820193908201906001016142c3565b50508584038187015250505061430781886141e9565b9050828103604084015261431b81876141e9565b9050828103606084015261432f8186614222565b9050828103608084015261417d8185614252565b600082516143558184602087016139df565b9190910192915050565b602081526000612b396020830184613a0b56fea26469706673582212202957871c723299c02a9ce56af52c92be4847af3e7ebe64299dd09cec227d2dec64736f6c634300080c00334f776e61626c653a2063616c6c6572206973206e6f7420746865206f776e6572",
  "linkReferences": {},
  "deployedLinkReferences": {}
}