{
  "_format": "hh-sol-artifact-1",
  "contractName": "ERC721Factory",
  "sourceName": "contracts/ERC721Factory.sol",
  "abi": [
    {
      "inputs": [
        {
          "internalType": "address",
          "name": "_template721",
          "type": "address"
        },
        {
          "internalType": "address",
          "name": "_template",
          "type": "address"
        },
        {
          "internalType": "address",
          "name": "_collector",
          "type": "address"
        },
        {
          "internalType": "address",
          "name": "_router",
          "type": "address"
        }
      ],
      "stateMutability": "nonpayable",
      "type": "constructor"
    },
    {
      "anonymous": false,
      "inputs": [
        {
          "indexed": false,
          "internalType": "address",
          "name": "instance",
          "type": "address"
        }
      ],
      "name": "InstanceDeployed",
      "type": "event"
    },
    {
      "anonymous": false,
      "inputs": [
        {
          "indexed": true,
          "internalType": "address",
          "name": "newTokenAddress",
          "type": "address"
        },
        {
          "indexed": true,
          "internalType": "address",
          "name": "templateAddress",
          "type": "address"
        },
        {
          "indexed": true,
          "internalType": "string",
          "name": "tokenName",
          "type": "string"
        },
        {
          "indexed": false,
          "internalType": "address",
          "name": "admin",
          "type": "address"
        }
      ],
      "name": "NFTCreated",
      "type": "event"
    },
    {
      "anonymous": false,
      "inputs": [
        {
          "indexed": false,
          "internalType": "bytes32",
          "name": "exchangeId",
          "type": "bytes32"
        },
        {
          "indexed": false,
          "internalType": "address",
          "name": "owner",
          "type": "address"
        },
        {
          "indexed": false,
          "internalType": "address",
          "name": "basetoken",
          "type": "address"
        }
      ],
      "name": "NewFixedRate",
      "type": "event"
    },
    {
      "anonymous": false,
      "inputs": [
        {
          "indexed": false,
          "internalType": "address",
          "name": "poolAddress",
          "type": "address"
        },
        {
          "indexed": false,
          "internalType": "address",
          "name": "ssContract",
          "type": "address"
        },
        {
          "indexed": false,
          "internalType": "address",
          "name": "basetokenAddress",
          "type": "address"
        }
      ],
      "name": "NewPool",
      "type": "event"
    },
    {
      "anonymous": false,
      "inputs": [
        {
          "indexed": true,
          "internalType": "address",
          "name": "previousOwner",
          "type": "address"
        },
        {
          "indexed": true,
          "internalType": "address",
          "name": "newOwner",
          "type": "address"
        }
      ],
      "name": "OwnershipTransferred",
      "type": "event"
    },
    {
      "anonymous": false,
      "inputs": [
        {
          "indexed": true,
          "internalType": "address",
          "name": "newTokenAddress",
          "type": "address"
        },
        {
          "indexed": true,
          "internalType": "address",
          "name": "templateAddress",
          "type": "address"
        },
        {
          "indexed": true,
          "internalType": "string",
          "name": "tokenName",
          "type": "string"
        }
      ],
      "name": "TokenCreated",
      "type": "event"
    },
    {
      "inputs": [
        {
          "internalType": "address",
          "name": "_templateAddress",
          "type": "address"
        }
      ],
      "name": "add721TokenTemplate",
      "outputs": [
        {
          "internalType": "uint256",
          "name": "",
          "type": "uint256"
        }
      ],
      "stateMutability": "nonpayable",
      "type": "function"
    },
    {
      "inputs": [
        {
          "internalType": "address",
          "name": "_templateAddress",
          "type": "address"
        }
      ],
      "name": "addTokenTemplate",
      "outputs": [
        {
          "internalType": "uint256",
          "name": "",
          "type": "uint256"
        }
      ],
      "stateMutability": "nonpayable",
      "type": "function"
    },
    {
      "inputs": [
        {
          "components": [
            {
              "internalType": "string",
              "name": "name",
              "type": "string"
            },
            {
              "internalType": "string",
              "name": "symbol",
              "type": "string"
            },
            {
              "internalType": "uint256",
              "name": "templateIndex",
              "type": "uint256"
            }
          ],
          "internalType": "struct ERC721Factory.NftCreateData",
          "name": "_NftCreateData",
          "type": "tuple"
        },
        {
          "components": [
            {
              "internalType": "uint256",
              "name": "templateIndex",
              "type": "uint256"
            },
            {
              "internalType": "string[]",
              "name": "strings",
              "type": "string[]"
            },
            {
              "internalType": "address[]",
              "name": "addresses",
              "type": "address[]"
            },
            {
              "internalType": "uint256[]",
              "name": "uints",
              "type": "uint256[]"
            },
            {
              "internalType": "bytes[]",
              "name": "bytess",
              "type": "bytes[]"
            }
          ],
          "internalType": "struct ERC721Factory.ErcCreateData",
          "name": "_ErcCreateData",
          "type": "tuple"
        },
        {
          "components": [
            {
              "internalType": "address",
              "name": "fixedPriceAddress",
              "type": "address"
            },
            {
              "internalType": "address",
              "name": "basetokenAddress",
              "type": "address"
            },
            {
              "internalType": "uint8",
              "name": "basetokenDecimals",
              "type": "uint8"
            },
            {
              "internalType": "uint256",
              "name": "fixedRate",
              "type": "uint256"
            },
            {
              "internalType": "address",
              "name": "owner",
              "type": "address"
            },
            {
              "internalType": "uint256",
              "name": "marketFee",
              "type": "uint256"
            },
            {
              "internalType": "address",
              "name": "marketFeeCollector",
              "type": "address"
            }
          ],
          "internalType": "struct ERC721Factory.FixedData",
          "name": "_FixedData",
          "type": "tuple"
        }
      ],
      "name": "createNftErcWithFixedRate",
      "outputs": [
        {
          "internalType": "address",
          "name": "erc721Address",
          "type": "address"
        },
        {
          "internalType": "address",
          "name": "erc20Address",
          "type": "address"
        },
        {
          "internalType": "bytes32",
          "name": "exchangeId",
          "type": "bytes32"
        }
      ],
      "stateMutability": "nonpayable",
      "type": "function"
    },
    {
      "inputs": [
        {
          "components": [
            {
              "internalType": "string",
              "name": "name",
              "type": "string"
            },
            {
              "internalType": "string",
              "name": "symbol",
              "type": "string"
            },
            {
              "internalType": "uint256",
              "name": "templateIndex",
              "type": "uint256"
            }
          ],
          "internalType": "struct ERC721Factory.NftCreateData",
          "name": "_NftCreateData",
          "type": "tuple"
        },
        {
          "components": [
            {
              "internalType": "uint256",
              "name": "templateIndex",
              "type": "uint256"
            },
            {
              "internalType": "string[]",
              "name": "strings",
              "type": "string[]"
            },
            {
              "internalType": "address[]",
              "name": "addresses",
              "type": "address[]"
            },
            {
              "internalType": "uint256[]",
              "name": "uints",
              "type": "uint256[]"
            },
            {
              "internalType": "bytes[]",
              "name": "bytess",
              "type": "bytes[]"
            }
          ],
          "internalType": "struct ERC721Factory.ErcCreateData",
          "name": "_ErcCreateData",
          "type": "tuple"
        },
        {
          "components": [
            {
              "internalType": "address",
              "name": "controller",
              "type": "address"
            },
            {
              "internalType": "address",
              "name": "basetokenAddress",
              "type": "address"
            },
            {
              "internalType": "uint256[]",
              "name": "ssParams",
              "type": "uint256[]"
            },
            {
              "internalType": "address",
              "name": "basetokenSender",
              "type": "address"
            },
            {
              "internalType": "uint256[2]",
              "name": "swapFees",
              "type": "uint256[2]"
            },
            {
              "internalType": "address",
              "name": "marketFeeCollector",
              "type": "address"
            },
            {
              "internalType": "address",
              "name": "publisherAddress",
              "type": "address"
            }
          ],
          "internalType": "struct ERC721Factory.PoolData",
          "name": "_PoolData",
          "type": "tuple"
        }
      ],
      "name": "createNftErcWithPool",
      "outputs": [
        {
          "internalType": "address",
          "name": "erc721Address",
          "type": "address"
        },
        {
          "internalType": "address",
          "name": "erc20Address",
          "type": "address"
        },
        {
          "internalType": "address",
          "name": "poolAddress",
          "type": "address"
        }
      ],
      "stateMutability": "nonpayable",
      "type": "function"
    },
    {
      "inputs": [
        {
          "components": [
            {
              "internalType": "string",
              "name": "name",
              "type": "string"
            },
            {
              "internalType": "string",
              "name": "symbol",
              "type": "string"
            },
            {
              "internalType": "uint256",
              "name": "templateIndex",
              "type": "uint256"
            }
          ],
          "internalType": "struct ERC721Factory.NftCreateData",
          "name": "_NftCreateData",
          "type": "tuple"
        },
        {
          "components": [
            {
              "internalType": "uint256",
              "name": "templateIndex",
              "type": "uint256"
            },
            {
              "internalType": "string[]",
              "name": "strings",
              "type": "string[]"
            },
            {
              "internalType": "address[]",
              "name": "addresses",
              "type": "address[]"
            },
            {
              "internalType": "uint256[]",
              "name": "uints",
              "type": "uint256[]"
            },
            {
              "internalType": "bytes[]",
              "name": "bytess",
              "type": "bytes[]"
            }
          ],
          "internalType": "struct ERC721Factory.ErcCreateData",
          "name": "_ErcCreateData",
          "type": "tuple"
        }
      ],
      "name": "createNftWithErc",
      "outputs": [
        {
          "internalType": "address",
          "name": "erc721Address",
          "type": "address"
        },
        {
          "internalType": "address",
          "name": "erc20Address",
          "type": "address"
        }
      ],
      "stateMutability": "nonpayable",
      "type": "function"
    },
    {
      "inputs": [
        {
          "internalType": "uint256",
          "name": "_templateIndex",
          "type": "uint256"
        },
        {
          "internalType": "string[]",
          "name": "strings",
          "type": "string[]"
        },
        {
          "internalType": "address[]",
          "name": "addresses",
          "type": "address[]"
        },
        {
          "internalType": "uint256[]",
          "name": "uints",
          "type": "uint256[]"
        },
        {
          "internalType": "bytes[]",
          "name": "bytess",
          "type": "bytes[]"
        }
      ],
      "name": "createToken",
      "outputs": [
        {
          "internalType": "address",
          "name": "token",
          "type": "address"
        }
      ],
      "stateMutability": "nonpayable",
      "type": "function"
    },
    {
      "inputs": [
        {
          "internalType": "string",
          "name": "name",
          "type": "string"
        },
        {
          "internalType": "string",
          "name": "symbol",
          "type": "string"
        },
        {
          "internalType": "uint256",
          "name": "_templateIndex",
          "type": "uint256"
        },
        {
          "internalType": "address",
          "name": "additionalERC20Deployer",
          "type": "address"
        }
      ],
      "name": "deployERC721Contract",
      "outputs": [
        {
          "internalType": "address",
          "name": "token",
          "type": "address"
        }
      ],
      "stateMutability": "nonpayable",
      "type": "function"
    },
    {
      "inputs": [
        {
          "internalType": "uint256",
          "name": "_index",
          "type": "uint256"
        }
      ],
      "name": "disable721TokenTemplate",
      "outputs": [],
      "stateMutability": "nonpayable",
      "type": "function"
    },
    {
      "inputs": [
        {
          "internalType": "uint256",
          "name": "_index",
          "type": "uint256"
        }
      ],
      "name": "disableTokenTemplate",
      "outputs": [],
      "stateMutability": "nonpayable",
      "type": "function"
    },
    {
      "inputs": [
        {
          "internalType": "address",
          "name": "",
          "type": "address"
        }
      ],
      "name": "erc20List",
      "outputs": [
        {
          "internalType": "bool",
          "name": "",
          "type": "bool"
        }
      ],
      "stateMutability": "view",
      "type": "function"
    },
    {
      "inputs": [
        {
          "internalType": "address",
          "name": "",
          "type": "address"
        }
      ],
      "name": "erc721List",
      "outputs": [
        {
          "internalType": "address",
          "name": "",
          "type": "address"
        }
      ],
      "stateMutability": "view",
      "type": "function"
    },
    {
      "inputs": [],
      "name": "getCurrentNFTCount",
      "outputs": [
        {
          "internalType": "uint256",
          "name": "",
          "type": "uint256"
        }
      ],
      "stateMutability": "view",
      "type": "function"
    },
    {
      "inputs": [],
      "name": "getCurrentNFTTemplateCount",
      "outputs": [
        {
          "internalType": "uint256",
          "name": "",
          "type": "uint256"
        }
      ],
      "stateMutability": "view",
      "type": "function"
    },
    {
      "inputs": [],
      "name": "getCurrentTemplateCount",
      "outputs": [
        {
          "internalType": "uint256",
          "name": "",
          "type": "uint256"
        }
      ],
      "stateMutability": "view",
      "type": "function"
    },
    {
      "inputs": [],
      "name": "getCurrentTokenCount",
      "outputs": [
        {
          "internalType": "uint256",
          "name": "",
          "type": "uint256"
        }
      ],
      "stateMutability": "view",
      "type": "function"
    },
    {
      "inputs": [
        {
          "internalType": "uint256",
          "name": "_index",
          "type": "uint256"
        }
      ],
      "name": "getNFTTemplate",
      "outputs": [
        {
          "components": [
            {
              "internalType": "address",
              "name": "templateAddress",
              "type": "address"
            },
            {
              "internalType": "bool",
              "name": "isActive",
              "type": "bool"
            }
          ],
          "internalType": "struct ERC721Factory.Template",
          "name": "",
          "type": "tuple"
        }
      ],
      "stateMutability": "view",
      "type": "function"
    },
    {
      "inputs": [
        {
          "internalType": "uint256",
          "name": "_index",
          "type": "uint256"
        }
      ],
      "name": "getTokenTemplate",
      "outputs": [
        {
          "components": [
            {
              "internalType": "address",
              "name": "templateAddress",
              "type": "address"
            },
            {
              "internalType": "bool",
              "name": "isActive",
              "type": "bool"
            }
          ],
          "internalType": "struct ERC721Factory.Template",
          "name": "",
          "type": "tuple"
        }
      ],
      "stateMutability": "view",
      "type": "function"
    },
    {
      "inputs": [
        {
          "internalType": "uint256",
          "name": "",
          "type": "uint256"
        }
      ],
      "name": "nftTemplateList",
      "outputs": [
        {
          "internalType": "address",
          "name": "templateAddress",
          "type": "address"
        },
        {
          "internalType": "bool",
          "name": "isActive",
          "type": "bool"
        }
      ],
      "stateMutability": "view",
      "type": "function"
    },
    {
      "inputs": [],
      "name": "owner",
      "outputs": [
        {
          "internalType": "address",
          "name": "",
          "type": "address"
        }
      ],
      "stateMutability": "view",
      "type": "function"
    },
    {
      "inputs": [
        {
          "internalType": "uint256",
          "name": "_index",
          "type": "uint256"
        }
      ],
      "name": "reactivate721TokenTemplate",
      "outputs": [],
      "stateMutability": "nonpayable",
      "type": "function"
    },
    {
      "inputs": [
        {
          "internalType": "uint256",
          "name": "_index",
          "type": "uint256"
        }
      ],
      "name": "reactivateTokenTemplate",
      "outputs": [],
      "stateMutability": "nonpayable",
      "type": "function"
    },
    {
      "inputs": [],
      "name": "renounceOwnership",
      "outputs": [],
      "stateMutability": "nonpayable",
      "type": "function"
    },
    {
      "inputs": [],
      "name": "router",
      "outputs": [
        {
          "internalType": "address",
          "name": "",
          "type": "address"
        }
      ],
      "stateMutability": "view",
      "type": "function"
    },
    {
      "inputs": [
        {
          "components": [
            {
              "internalType": "address",
              "name": "tokenAddress",
              "type": "address"
            },
            {
              "internalType": "address",
              "name": "consumer",
              "type": "address"
            },
            {
              "internalType": "uint256",
              "name": "amount",
              "type": "uint256"
            },
            {
              "internalType": "uint256",
              "name": "serviceId",
              "type": "uint256"
            },
            {
              "internalType": "address",
              "name": "consumeFeeAddress",
              "type": "address"
            },
            {
              "internalType": "address",
              "name": "consumeFeeToken",
              "type": "address"
            },
            {
              "internalType": "uint256",
              "name": "consumeFeeAmount",
              "type": "uint256"
            }
          ],
          "internalType": "struct ERC721Factory.tokenOrder[]",
          "name": "orders",
          "type": "tuple[]"
        }
      ],
      "name": "startMultipleTokenOrder",
      "outputs": [],
      "stateMutability": "nonpayable",
      "type": "function"
    },
    {
      "inputs": [],
      "name": "templateCount",
      "outputs": [
        {
          "internalType": "uint256",
          "name": "",
          "type": "uint256"
        }
      ],
      "stateMutability": "view",
      "type": "function"
    },
    {
      "inputs": [
        {
          "internalType": "uint256",
          "name": "",
          "type": "uint256"
        }
      ],
      "name": "templateList",
      "outputs": [
        {
          "internalType": "address",
          "name": "templateAddress",
          "type": "address"
        },
        {
          "internalType": "bool",
          "name": "isActive",
          "type": "bool"
        }
      ],
      "stateMutability": "view",
      "type": "function"
    },
    {
      "inputs": [
        {
          "internalType": "address",
          "name": "newOwner",
          "type": "address"
        }
      ],
      "name": "transferOwnership",
      "outputs": [],
      "stateMutability": "nonpayable",
      "type": "function"
    }
  ],
  "bytecode": "0x608060405260006009553480156200001657600080fd5b506040516200347f3803806200347f8339810160408190526200003991620004db565b620000443362000152565b6001600160a01b038316158015906200006557506001600160a01b03821615155b80156200007a57506001600160a01b03841615155b620001025760405162461bcd60e51b815260206004820152604760248201527f4552433732314454466163746f72793a20496e76616c69642074656d706c617460448201527f6520746f6b656e2f636f6d6d756e6974792066656520636f6c6c6563746f72206064820152666164647265737360c81b608482015260a4015b60405180910390fd5b6200010d84620001a2565b50620001198362000333565b50600b80546001600160a01b039283166001600160a01b03199182161790915560018054939092169216919091179055506200055f9050565b600080546001600160a01b038381166001600160a01b0319831681178455604051919092169283917f8be0079c531659141344cd1fd0a4f28419497f9722a3daafe3b4186f6b6457e09190a35050565b600080546001600160a01b03163314620001ee5760405162461bcd60e51b815260206004820181905260248201526000805160206200345f8339815191526044820152606401620000f9565b6001600160a01b0382166200026c5760405162461bcd60e51b815260206004820152603760248201527f4552433732314454466163746f72793a204552433732312074656d706c61746560448201527f2061646472657373283029204e4f5420414c4c4f5745440000000000000000006064820152608401620000f9565b813b620002bc5760405162461bcd60e51b815260206004820152601b60248201527f455243373231466163746f72793a204e4f5420434f4e545241435400000000006044820152606401620000f9565b600160046000828254620002d1919062000538565b90915550506040805180820182526001600160a01b0380851682526001602080840191825260048054600090815260059092529490209251835491511515600160a01b026001600160a81b03199092169216919091171790555490505b919050565b600080546001600160a01b031633146200037f5760405162461bcd60e51b815260206004820181905260248201526000805160206200345f8339815191526044820152606401620000f9565b6001600160a01b038216620003fd5760405162461bcd60e51b815260206004820152603460248201527f4552433230466163746f72793a204552433732312074656d706c61746520616460448201527f6472657373283029204e4f5420414c4c4f5745440000000000000000000000006064820152608401620000f9565b813b6200044d5760405162461bcd60e51b815260206004820152601a60248201527f4552433230466163746f72793a204e4f5420434f4e54524143540000000000006044820152606401620000f9565b6001600a600082825462000462919062000538565b90915550506040805180820182526001600160a01b03808516825260016020808401918252600a8054600090815260069092529490209251835491511515600160a01b026001600160a81b0319909216921691909117179055549050919050565b80516001600160a01b03811681146200032e57600080fd5b60008060008060808587031215620004f257600080fd5b620004fd85620004c3565b93506200050d60208601620004c3565b92506200051d60408601620004c3565b91506200052d60608601620004c3565b905092959194509250565b600082198211156200055a57634e487b7160e01b600052601160045260246000fd5b500190565b612ef0806200056f6000396000f3fe608060405234801561001057600080fd5b50600436106101a95760003560e01c806382c44204116100f9578063ad57bc5211610097578063c6cf868a11610071578063c6cf868a146104c5578063e5fc01f0146104cd578063f2fde38b146104d5578063f887ea40146104e857600080fd5b8063ad57bc5214610462578063bbf8d71f1461049f578063c3e26ce8146104b257600080fd5b806394051699116100d357806394051699146103f057806395c6030514610425578063a256efe21461042d578063a33ef2a61461044f57600080fd5b806382c44204146103785780638da5cb5b146103cc5780638f6051af146103dd57600080fd5b8063557fcfb011610166578063715018a611610140578063715018a61461032157806372f670f0146103295780637b20bccf14610352578063809d81051461036557600080fd5b8063557fcfb0146102db5780635c705982146103065780636bbd2f3f1461030e57600080fd5b8063042ab9b3146101ae5780630ffda887146101ec578063226e76151461020157806326705c3c146102345780633315efd11461024b57806344079b4c146102a8575b600080fd5b6101c16101bc366004612845565b6104fb565b6040805182516001600160a01b03168152602092830151151592810192909252015b60405180910390f35b6101ff6101fa366004612845565b610582565b005b61022461020f36600461248e565b60086020526000908152604090205460ff1681565b60405190151581526020016101e3565b61023d600a5481565b6040519081526020016101e3565b6101c1610259366004612845565b6040805180820190915260008082526020820152506000908152600560209081526040918290208251808401909352546001600160a01b0381168352600160a01b900460ff1615159082015290565b6102bb6102b63660046126d3565b6105c7565b604080516001600160a01b039384168152929091166020830152016101e3565b6102ee6102e936600461285e565b610719565b6040516001600160a01b0390911681526020016101e3565b60025461023d565b6101ff61031c36600461250b565b6107ba565b6101ff610f28565b6102ee61033736600461248e565b6007602052600090815260409020546001600160a01b031681565b61023d61036036600461248e565b610f5e565b6101ff610373366004612845565b6110be565b6103ad610386366004612845565b6005602052600090815260409020546001600160a01b03811690600160a01b900460ff1682565b604080516001600160a01b0390931683529015156020830152016101e3565b6000546001600160a01b03166102ee565b61023d6103eb36600461248e565b611130565b6103ad6103fe366004612845565b6006602052600090815260409020546001600160a01b03811690600160a01b900460ff1682565b600a5461023d565b61044061043b366004612736565b611299565b6040516101e393929190612ae7565b6101ff61045d366004612845565b6114fd565b6104756104703660046127b6565b611575565b604080516001600160a01b03948516815292841660208401529216918101919091526060016101e3565b6101ff6104ad366004612845565b611859565b6102ee6104c0366004612654565b611915565b60095461023d565b60045461023d565b6101ff6104e336600461248e565b611bfa565b600b546102ee906001600160a01b031681565b60408051808201909152600080825260208201526000828152600660209081526040918290208251808401909352546001600160a01b0381168352600160a01b900460ff16151590820152600a54831180159061055757508215155b61057c5760405162461bcd60e51b815260040161057390612c0f565b60405180910390fd5b92915050565b6000546001600160a01b031633146105ac5760405162461bcd60e51b815260040161057390612ca4565b6000908152600660205260409020805460ff60a01b19169055565b6000806106596105d78580612d29565b8080601f016020809104026020016040519081016040528093929190818152602001838380828437600092019190915250610619925050506020870187612d29565b8080601f016020809104026020016040519081016040528093929190818152602001838380828437600092018290525060408b0135935091506119159050565b9150610710833561066d6020860186612cd9565b61067691612e0f565b6106836040870187612cd9565b808060200260200160405190810160405280939291908181526020018383602002808284376000920191909152506106c2925050506060880188612cd9565b80806020026020016040519081016040528093929190818152602001838360200280828437600092019190915250610701925050506080890189612cd9565b61070a91612e02565b87611c95565b90509250929050565b3360008181526007602052604081205490916001600160a01b03909116146107a25760405162461bcd60e51b815260206004820152603660248201527f455243373231466163746f72793a204f4e4c592045524337323120494e5354416044820152754e43452046524f4d20455243373231464143544f525960501b6064820152608401610573565b6107b0868686868633611c95565b9695505050505050565b805160005b81811015610f235760008060008584815181106107de576107de612e79565b6020026020010151600001516001600160a01b031663397b37436040518163ffffffff1660e01b815260040160606040518083038186803b15801561082257600080fd5b505afa158015610836573d6000803e3d6000fd5b505050506040513d601f19601f8201168201806040525081019061085a91906124c8565b92509250925060008111801561087857506001600160a01b03821615155b801561088c57506001600160a01b03831615155b15610a0e576040516323b872dd60e01b81526001600160a01b038316906323b872dd906108c190339030908690600401612ae7565b602060405180830381600087803b1580156108db57600080fd5b505af11580156108ef573d6000803e3d6000fd5b505050506040513d601f19601f820116820180604052508101906109139190612619565b61095f5760405162461bcd60e51b815260206004820152601d60248201527f4661696c656420746f207472616e73666572207075626c6973684665650000006044820152606401610573565b816001600160a01b031663095ea7b387868151811061098057610980612e79565b6020908102919091010151516040516001600160e01b031960e084901b1681526001600160a01b03909116600482015260248101849052604401602060405180830381600087803b1580156109d457600080fd5b505af11580156109e8573d6000803e3d6000fd5b505050506040513d601f19601f82011682018060405250810190610a0c9190612619565b505b6000868581518110610a2257610a22612e79565b602002602001015160c00151118015610a6b575060006001600160a01b0316868581518110610a5357610a53612e79565b602002602001015160a001516001600160a01b031614155b8015610aa7575060006001600160a01b0316868581518110610a8f57610a8f612e79565b6020026020010151608001516001600160a01b031614155b15610ca157858481518110610abe57610abe612e79565b602002602001015160a001516001600160a01b03166323b872dd3330898881518110610aec57610aec612e79565b602002602001015160c001516040518463ffffffff1660e01b8152600401610b1693929190612ae7565b602060405180830381600087803b158015610b3057600080fd5b505af1158015610b44573d6000803e3d6000fd5b505050506040513d601f19601f82011682018060405250810190610b689190612619565b610bb45760405162461bcd60e51b815260206004820152601d60248201527f4661696c656420746f207472616e7366657220636f6e73756d654665650000006044820152606401610573565b858481518110610bc657610bc6612e79565b602002602001015160a001516001600160a01b031663095ea7b3878681518110610bf257610bf2612e79565b602002602001015160000151888781518110610c1057610c10612e79565b602002602001015160c001516040518363ffffffff1660e01b8152600401610c4d9291906001600160a01b03929092168252602082015260400190565b602060405180830381600087803b158015610c6757600080fd5b505af1158015610c7b573d6000803e3d6000fd5b505050506040513d601f19601f82011682018060405250810190610c9f9190612619565b505b858481518110610cb357610cb3612e79565b6020026020010151600001516001600160a01b03166323b872dd3330898881518110610ce157610ce1612e79565b6020026020010151604001516040518463ffffffff1660e01b8152600401610d0b93929190612ae7565b602060405180830381600087803b158015610d2557600080fd5b505af1158015610d39573d6000803e3d6000fd5b505050506040513d601f19601f82011682018060405250810190610d5d9190612619565b610da95760405162461bcd60e51b815260206004820152601c60248201527f4661696c656420746f207472616e736665722064617461746f6b656e000000006044820152606401610573565b858481518110610dbb57610dbb612e79565b6020026020010151600001516001600160a01b031663fda9dae7878681518110610de757610de7612e79565b602002602001015160200151888781518110610e0557610e05612e79565b602002602001015160400151898881518110610e2357610e23612e79565b6020026020010151606001518a8981518110610e4157610e41612e79565b6020026020010151608001518b8a81518110610e5f57610e5f612e79565b602002602001015160a001518c8b81518110610e7d57610e7d612e79565b602090810291909101015160c0015160405160e088901b6001600160e01b03191681526001600160a01b039687166004820152602481019590955260448501939093529084166064840152909216608482015260a481019190915260c401600060405180830381600087803b158015610ef557600080fd5b505af1158015610f09573d6000803e3d6000fd5b505050505050508080610f1b90612e48565b9150506107bf565b505050565b6000546001600160a01b03163314610f525760405162461bcd60e51b815260040161057390612ca4565b610f5c6000611f44565b565b600080546001600160a01b03163314610f895760405162461bcd60e51b815260040161057390612ca4565b6001600160a01b038216610ffc5760405162461bcd60e51b815260206004820152603460248201527f4552433230466163746f72793a204552433732312074656d706c617465206164604482015273191c995cdcca0c0a481393d50810531313d5d15160621b6064820152608401610573565b813b61104a5760405162461bcd60e51b815260206004820152601a60248201527f4552433230466163746f72793a204e4f5420434f4e54524143540000000000006044820152606401610573565b6001600a600082825461105d9190612dea565b90915550506040805180820182526001600160a01b03808516825260016020808401918252600a8054600090815260069092529490209251835491511515600160a01b026001600160a81b0319909216921691909117179055549050919050565b6000546001600160a01b031633146110e85760405162461bcd60e51b815260040161057390612ca4565b60045481111580156110f957508015155b6111155760405162461bcd60e51b815260040161057390612c58565b6000908152600560205260409020805460ff60a01b19169055565b600080546001600160a01b0316331461115b5760405162461bcd60e51b815260040161057390612ca4565b6001600160a01b0382166111d75760405162461bcd60e51b815260206004820152603760248201527f4552433732314454466163746f72793a204552433732312074656d706c61746560448201527f2061646472657373283029204e4f5420414c4c4f5745440000000000000000006064820152608401610573565b813b6112255760405162461bcd60e51b815260206004820152601b60248201527f455243373231466163746f72793a204e4f5420434f4e545241435400000000006044820152606401610573565b6001600460008282546112389190612dea565b90915550506040805180820182526001600160a01b0380851682526001602080840191825260048054600090815260059092529490209251835491511515600160a01b026001600160a81b0319909216921691909117179055549050919050565b6000808061132b6112aa8780612d29565b8080601f0160208091040260200160405190810160405280939291908181526020018383808284376000920191909152506112ec925050506020890189612d29565b8080601f016020809104026020016040519081016040528093929190818152602001838380828437600092019190915250505050604089013530611915565b92506113e2853561133f6020880188612cd9565b61134891612e0f565b6113556040890189612cd9565b808060200260200160405190810160405280939291908181526020018383602002808284376000920191909152506113949250505060608a018a612cd9565b808060200260200160405190810160405280939291908181526020018383602002808284376000920191909152506113d39250505060808b018b612cd9565b6113dc91612e02565b88611c95565b91506001600160a01b038216637a5db5b1611400602087018761248e565b611410604088016020890161248e565b6114206060890160408a0161292b565b606089013561143560a08b0160808c0161248e565b60a08b013561144a60e08d0160c08e0161248e565b6040516001600160e01b031960e08a901b1681526001600160a01b039788166004820152958716602487015260ff909416604486015260648501929092528416608484015260a48301529190911660c482015260e401602060405180830381600087803b1580156114ba57600080fd5b505af11580156114ce573d6000803e3d6000fd5b505050506040513d601f19601f820116820180604052508101906114f2919061263b565b905093509350939050565b6000546001600160a01b031633146115275760405162461bcd60e51b815260040161057390612ca4565b600454811115801561153857508015155b6115545760405162461bcd60e51b815260040161057390612c58565b6000908152600560205260409020805460ff60a01b1916600160a01b179055565b60008080611589604085016020860161248e565b6001600160a01b03166323b872dd33306115a66040890189612cd9565b60048181106115b7576115b7612e79565b905060200201356040518463ffffffff1660e01b81526004016115dc93929190612ae7565b602060405180830381600087803b1580156115f657600080fd5b505af115801561160a573d6000803e3d6000fd5b505050506040513d601f19601f8201168201806040525081019061162e9190612619565b6116965760405162461bcd60e51b815260206004820152603360248201527f4661696c656420746f207472616e7366657220696e697469616c20706f6f6c2060448201527262617365746f6b656e206c697175696469747960681b6064820152608401610573565b6116a36112aa8780612d29565b92506116b7853561133f6020880188612cd9565b91506116c9604085016020860161248e565b600b546001600160a01b039182169163095ea7b391166116ec6040880188612cd9565b60048181106116fd576116fd612e79565b6040516001600160e01b031960e087901b1681526001600160a01b0390941660048501526020029190910135602483015250604401602060405180830381600087803b15801561174c57600080fd5b505af1158015611760573d6000803e3d6000fd5b505050506040513d601f19601f820116820180604052508101906117849190612619565b506001600160a01b03821663641222bc6117a1602087018761248e565b6117b1604088016020890161248e565b6117be6040890189612cd9565b3060808b016117d360e08d0160c08e0161248e565b6117e46101008e0160e08f0161248e565b6040518963ffffffff1660e01b8152600401611807989796959493929190612a5f565b602060405180830381600087803b15801561182157600080fd5b505af1158015611835573d6000803e3d6000fd5b505050506040513d601f19601f820116820180604052508101906114f291906124ab565b6000546001600160a01b031633146118835760405162461bcd60e51b815260040161057390612ca4565b600a54811115801561189457508015155b6118f45760405162461bcd60e51b815260206004820152602b60248201527f45524332304454466163746f72793a2054656d706c61746520696e646578206460448201526a1bd95cdb9d08195e1a5cdd60aa1b6064820152608401610573565b6000908152600660205260409020805460ff60a01b1916600160a01b179055565b6000600454831115801561192857508215155b6119445760405162461bcd60e51b815260040161057390612c58565b6000838152600560209081526040918290208251808401909352546001600160a01b0381168352600160a01b900460ff1615159082018190526001146119e35760405162461bcd60e51b815260206004820152602e60248201527f4552433732314454466163746f72793a20455243373231546f6b656e2054656d60448201526d1c1b185d1948191a5cd8589b195960921b6064820152608401610573565b80516119ee90611f94565b91506001600160a01b038216611a6e576040805162461bcd60e51b81526020600482015260248101919091527f4552433732314454466163746f72793a204661696c656420746f20706572666f60448201527f726d206d696e696d616c206465706c6f79206f662061206e657720746f6b656e6064820152608401610573565b6001600160a01b0382166000818152600760205260409081902080546001600160a01b0319168317905551636cf1dbed60e01b8152839190636cf1dbed90611ac29033908b908b9030908b90600401612b0b565b602060405180830381600087803b158015611adc57600080fd5b505af1158015611af0573d6000803e3d6000fd5b505050506040513d601f19601f82011682018060405250810190611b149190612619565b611b7d5760405162461bcd60e51b815260206004820152603460248201527f4552433732314454466163746f72793a20556e61626c6520746f20696e697469604482015273616c697a6520746f6b656e20696e7374616e636560601b6064820152608401610573565b86604051611b8b9190612a43565b604051908190038120835133835290916001600160a01b03918216918616907fab79f3a133194dac43d8f36c89aabc54656acb3d2a780060ac9006812e4655659060200160405180910390a4600160026000828254611bea9190612dea565b9091555092979650505050505050565b6000546001600160a01b03163314611c245760405162461bcd60e51b815260040161057390612ca4565b6001600160a01b038116611c895760405162461bcd60e51b815260206004820152602660248201527f4f776e61626c653a206e6577206f776e657220697320746865207a65726f206160448201526564647265737360d01b6064820152608401610573565b611c9281611f44565b50565b600083600081518110611caa57611caa612e79565b602002602001015160001415611d105760405162461bcd60e51b815260206004820152602560248201527f4552433230466163746f72793a207a65726f20636170206973206e6f7420616c6044820152641b1bddd95960da1b6064820152608401610573565b600a548711158015611d2157508615155b611d3d5760405162461bcd60e51b815260040161057390612c0f565b6000878152600660209081526040918290208251808401909352546001600160a01b0381168352600160a01b900460ff161515908201819052600114611dd95760405162461bcd60e51b815260206004820152602b60248201527f4552433230466163746f72793a20455243373231546f6b656e2054656d706c6160448201526a1d1948191a5cd8589b195960aa1b6064820152608401610573565b8051611de490611f94565b6001600160a01b0381166000818152600860205260409020805460ff19166001179055909250611e7c5760405162461bcd60e51b815260206004820152603e60248201527f455243373231466163746f72793a204661696c656420746f20706572666f726d60448201527f206d696e696d616c206465706c6f79206f662061206e657720746f6b656e00006064820152608401610573565b86600081518110611e8f57611e8f612e79565b6020026020010151604051611ea49190612a43565b604051908190038120825190916001600160a01b03918216918516907fb51c8cbe199ffe8b0d1d39b62d473569750653cb18b165f77ae423b3900180ad90600090a4600160096000828254611ef99190612dea565b90915550506040805160a081018252888152602081018890529081018690526001600160a01b038416608082015260608101859052611f388382612024565b50509695505050505050565b600080546001600160a01b038381166001600160a01b0319831681178455604051919092169283917f8be0079c531659141344cd1fd0a4f28419497f9722a3daafe3b4186f6b6457e09190a35050565b6000808260601b9050604051733d602d80600a3d3981f3363d3d373d3d3d363d7360601b81528160148201526e5af43d82803e903d91602b57fd5bf360881b60288201526037816000f06040516001600160a01b03821681529093507f117c72e6c25f0a072e36e148df71468ce2f3dbe7defec5b2c257a6e3eb65278c915060200160405180910390a150919050565b604080516003808252608082019092528391600091906020820160608036833701905050905082608001518160008151811061206257612062612e79565b6001600160a01b039283166020918202929092010152600180548351921691839190811061209257612092612e79565b6001600160a01b039283166020918202929092010152600b548251911690829060029081106120c3576120c3612e79565b60200260200101906001600160a01b031690816001600160a01b031681525050816001600160a01b031663b3998be08460000151856020015184876040015188606001516040518663ffffffff1660e01b8152600401612127959493929190612b5a565b602060405180830381600087803b15801561214157600080fd5b505af1158015612155573d6000803e3d6000fd5b505050506040513d601f19601f820116820180604052508101906121799190612619565b6121df5760405162461bcd60e51b815260206004820152603160248201527f4552433230466163746f72793a20556e61626c6520746f20696e697469616c696044820152707a6520746f6b656e20696e7374616e636560781b6064820152608401610573565b50505050565b60006121f86121f384612dc7565b612d97565b9050808382526020808301915083868660051b8601111561221857600080fd5b60005b8681101561226b5781356001600160401b0381111561223957600080fd5b8601601f8101891361224a57600080fd5b6122588982358684016122f0565b855250928201929082019060010161221b565b505050509392505050565b60006122846121f384612dc7565b9050808382526020808301915083868660051b860111156122a457600080fd5b6000805b878110156122e45782356001600160401b038111156122c5578283fd5b6122d18a828a01612444565b86525093830193918301916001016122a8565b50505050509392505050565b60006001600160401b0383111561230957612309612e8f565b61231c601f8401601f1916602001612d97565b905082815283838301111561233057600080fd5b828260208301376000602084830101529392505050565b600082601f83011261235857600080fd5b813560206123686121f383612dc7565b80838252828201915082860187848660051b890101111561238857600080fd5b60005b858110156123b057813561239e81612ea5565b8452928401929084019060010161238b565b5090979650505050505050565b600082601f8301126123ce57600080fd5b6123dd838335602085016121e5565b9392505050565b600082601f8301126123f557600080fd5b813560206124056121f383612dc7565b80838252828201915082860187848660051b890101111561242557600080fd5b60005b858110156123b057813584529284019290840190600101612428565b600082601f83011261245557600080fd5b6123dd838335602085016122f0565b600060a0828403121561247657600080fd5b50919050565b60006060828403121561247657600080fd5b6000602082840312156124a057600080fd5b81356123dd81612ea5565b6000602082840312156124bd57600080fd5b81516123dd81612ea5565b6000806000606084860312156124dd57600080fd5b83516124e881612ea5565b60208501519093506124f981612ea5565b80925050604084015190509250925092565b6000602080838503121561251e57600080fd5b82356001600160401b0381111561253457600080fd5b8301601f8101851361254557600080fd5b80356125536121f382612dc7565b8181528381019083850160e0808502860187018a101561257257600080fd5b60009550855b8581101561260a5781838c03121561258e578687fd5b612596612d6f565b83356125a181612ea5565b8152838901356125b081612ea5565b818a015260408481013590820152606080850135908201526080808501356125d781612ea5565b9082015260a0848101356125ea81612ea5565b9082015260c0848101359082015285529387019391810191600101612578565b50919998505050505050505050565b60006020828403121561262b57600080fd5b815180151581146123dd57600080fd5b60006020828403121561264d57600080fd5b5051919050565b6000806000806080858703121561266a57600080fd5b84356001600160401b038082111561268157600080fd5b61268d88838901612444565b955060208701359150808211156126a357600080fd5b506126b087828801612444565b9350506040850135915060608501356126c881612ea5565b939692955090935050565b600080604083850312156126e657600080fd5b82356001600160401b03808211156126fd57600080fd5b6127098683870161247c565b9350602085013591508082111561271f57600080fd5b5061272c85828601612464565b9150509250929050565b600080600083850361012081121561274d57600080fd5b84356001600160401b038082111561276457600080fd5b6127708883890161247c565b9550602087013591508082111561278657600080fd5b5061279387828801612464565b93505060e0603f19820112156127a857600080fd5b506040840190509250925092565b6000806000606084860312156127cb57600080fd5b83356001600160401b03808211156127e257600080fd5b6127ee8783880161247c565b9450602086013591508082111561280457600080fd5b61281087838801612464565b9350604086013591508082111561282657600080fd5b508401610100818703121561283a57600080fd5b809150509250925092565b60006020828403121561285757600080fd5b5035919050565b600080600080600060a0868803121561287657600080fd5b8535945060208601356001600160401b038082111561289457600080fd5b818801915088601f8301126128a857600080fd5b6128b789833560208501612276565b955060408801359150808211156128cd57600080fd5b6128d989838a01612347565b945060608801359150808211156128ef57600080fd5b6128fb89838a016123e4565b9350608088013591508082111561291157600080fd5b5061291e888289016123bd565b9150509295509295909350565b60006020828403121561293d57600080fd5b813560ff811681146123dd57600080fd5b600081518084526020808501945080840160005b838110156129875781516001600160a01b031687529582019590820190600101612962565b509495945050505050565b600081518084526020808501808196508360051b8101915082860160005b858110156129da5782840389526129c8848351612a17565b988501989350908401906001016129b0565b5091979650505050505050565b600081518084526020808501945080840160005b83811015612987578151875295820195908201906001016129fb565b60008151808452612a2f816020860160208601612e1c565b601f01601f19169290920160200192915050565b60008251612a55818460208701612e1c565b9190910192915050565b6001600160a01b0389811682528881166020830152610100604083018190528201879052600090610120906001600160fb1b03891115612a9e57600080fd5b8860051b808b848701378281860101925050600082528192508088166060850152604087608086013794851660c0840152509190921660e0909201919091529695505050505050565b6001600160a01b039384168152919092166020820152604081019190915260600190565b600060018060a01b03808816835260a06020840152612b2d60a0840188612a17565b8381036040850152612b3f8188612a17565b95821660608501525092909216608090910152509392505050565b600060a0820160a0835280885180835260c08501915060c08160051b86010192506020808b0160005b83811015612bb15760bf19888703018552612b9f868351612a17565b95509382019390820190600101612b83565b505085840381870152505050612bc7818861294e565b90508281036040840152612bdb818761294e565b90508281036060840152612bef81866129e7565b90508281036080840152612c038185612992565b98975050505050505050565b60208082526029908201527f4552433230466163746f72793a2054656d706c61746520696e64657820646f656040820152681cdb9d08195e1a5cdd60ba1b606082015260800190565b6020808252602c908201527f4552433732314454466163746f72793a2054656d706c61746520696e6465782060408201526b191bd95cdb9d08195e1a5cdd60a21b606082015260800190565b6020808252818101527f4f776e61626c653a2063616c6c6572206973206e6f7420746865206f776e6572604082015260600190565b6000808335601e19843603018112612cf057600080fd5b8301803591506001600160401b03821115612d0a57600080fd5b6020019150600581901b3603821315612d2257600080fd5b9250929050565b6000808335601e19843603018112612d4057600080fd5b8301803591506001600160401b03821115612d5a57600080fd5b602001915036819003821315612d2257600080fd5b60405160e081016001600160401b0381118282101715612d9157612d91612e8f565b60405290565b604051601f8201601f191681016001600160401b0381118282101715612dbf57612dbf612e8f565b604052919050565b60006001600160401b03821115612de057612de0612e8f565b5060051b60200190565b60008219821115612dfd57612dfd612e63565b500190565b60006123dd3684846121e5565b60006123dd368484612276565b60005b83811015612e37578181015183820152602001612e1f565b838111156121df5750506000910152565b6000600019821415612e5c57612e5c612e63565b5060010190565b634e487b7160e01b600052601160045260246000fd5b634e487b7160e01b600052603260045260246000fd5b634e487b7160e01b600052604160045260246000fd5b6001600160a01b0381168114611c9257600080fdfea264697066735822122004320c60043e298a8f43cbd96af9e4c31ac6da2006b18641d65c3a8f65d33fce64736f6c634300080700334f776e61626c653a2063616c6c6572206973206e6f7420746865206f776e6572",
  "linkReferences": {},
  "deployedLinkReferences": {}
}