{
  "_format": "hh-sol-artifact-1",
  "contractName": "ERC721Factory",
  "sourceName": "contracts/ERC721Factory.sol",
  "abi": [
    {
      "inputs": [
        {
          "internalType": "address",
          "name": "_template721",
          "type": "address"
        },
        {
          "internalType": "address",
          "name": "_template",
          "type": "address"
        },
        {
          "internalType": "address",
          "name": "_collector",
          "type": "address"
        },
        {
          "internalType": "address",
          "name": "_router",
          "type": "address"
        }
      ],
      "stateMutability": "nonpayable",
      "type": "constructor"
    },
    {
      "anonymous": false,
      "inputs": [
        {
          "indexed": true,
          "internalType": "address",
          "name": "datatokenAddress",
          "type": "address"
        },
        {
          "indexed": true,
          "internalType": "address",
          "name": "owner",
          "type": "address"
        },
        {
          "indexed": false,
          "internalType": "uint256",
          "name": "maxTokens",
          "type": "uint256"
        },
        {
          "indexed": false,
          "internalType": "uint256",
          "name": "maxBalance",
          "type": "uint256"
        },
        {
          "indexed": false,
          "internalType": "address",
          "name": "allowedSwapper",
          "type": "address"
        }
      ],
      "name": "DispenserCreated",
      "type": "event"
    },
    {
      "anonymous": false,
      "inputs": [
        {
          "indexed": false,
          "internalType": "address",
          "name": "instance",
          "type": "address"
        }
      ],
      "name": "InstanceDeployed",
      "type": "event"
    },
    {
      "anonymous": false,
      "inputs": [
        {
          "indexed": true,
          "internalType": "address",
          "name": "newTokenAddress",
          "type": "address"
        },
        {
          "indexed": true,
          "internalType": "address",
          "name": "templateAddress",
          "type": "address"
        },
        {
          "indexed": false,
          "internalType": "string",
          "name": "tokenName",
          "type": "string"
        },
        {
          "indexed": false,
          "internalType": "address",
          "name": "admin",
          "type": "address"
        },
        {
          "indexed": false,
          "internalType": "string",
          "name": "symbol",
          "type": "string"
        },
        {
          "indexed": false,
          "internalType": "string",
          "name": "tokenURI",
          "type": "string"
        }
      ],
      "name": "NFTCreated",
      "type": "event"
    },
    {
      "anonymous": false,
      "inputs": [
        {
          "indexed": false,
          "internalType": "address",
          "name": "dispenserContract",
          "type": "address"
        }
      ],
      "name": "NewDispenser",
      "type": "event"
    },
    {
      "anonymous": false,
      "inputs": [
        {
          "indexed": false,
          "internalType": "bytes32",
          "name": "exchangeId",
          "type": "bytes32"
        },
        {
          "indexed": true,
          "internalType": "address",
          "name": "owner",
          "type": "address"
        },
        {
          "indexed": false,
          "internalType": "address",
          "name": "exchangeContract",
          "type": "address"
        },
        {
          "indexed": true,
          "internalType": "address",
          "name": "baseToken",
          "type": "address"
        }
      ],
      "name": "NewFixedRate",
      "type": "event"
    },
    {
      "anonymous": false,
      "inputs": [
        {
          "indexed": false,
          "internalType": "address",
          "name": "poolAddress",
          "type": "address"
        },
        {
          "indexed": false,
          "internalType": "address",
          "name": "ssContract",
          "type": "address"
        },
        {
          "indexed": false,
          "internalType": "address",
          "name": "baseTokenAddress",
          "type": "address"
        }
      ],
      "name": "NewPool",
      "type": "event"
    },
    {
      "anonymous": false,
      "inputs": [
        {
          "indexed": true,
          "internalType": "address",
          "name": "previousOwner",
          "type": "address"
        },
        {
          "indexed": true,
          "internalType": "address",
          "name": "newOwner",
          "type": "address"
        }
      ],
      "name": "OwnershipTransferred",
      "type": "event"
    },
    {
      "anonymous": false,
      "inputs": [
        {
          "indexed": true,
          "internalType": "address",
          "name": "_templateAddress",
          "type": "address"
        },
        {
          "indexed": true,
          "internalType": "uint256",
          "name": "nftTemplateCount",
          "type": "uint256"
        }
      ],
      "name": "Template20Added",
      "type": "event"
    },
    {
      "anonymous": false,
      "inputs": [
        {
          "indexed": true,
          "internalType": "address",
          "name": "_templateAddress",
          "type": "address"
        },
        {
          "indexed": true,
          "internalType": "uint256",
          "name": "nftTemplateCount",
          "type": "uint256"
        }
      ],
      "name": "Template721Added",
      "type": "event"
    },
    {
      "anonymous": false,
      "inputs": [
        {
          "indexed": true,
          "internalType": "address",
          "name": "newTokenAddress",
          "type": "address"
        },
        {
          "indexed": true,
          "internalType": "address",
          "name": "templateAddress",
          "type": "address"
        },
        {
          "indexed": false,
          "internalType": "string",
          "name": "name",
          "type": "string"
        },
        {
          "indexed": false,
          "internalType": "string",
          "name": "symbol",
          "type": "string"
        },
        {
          "indexed": false,
          "internalType": "uint256",
          "name": "cap",
          "type": "uint256"
        },
        {
          "indexed": false,
          "internalType": "address",
          "name": "creator",
          "type": "address"
        }
      ],
      "name": "TokenCreated",
      "type": "event"
    },
    {
      "inputs": [
        {
          "internalType": "address",
          "name": "_templateAddress",
          "type": "address"
        }
      ],
      "name": "add721TokenTemplate",
      "outputs": [
        {
          "internalType": "uint256",
          "name": "",
          "type": "uint256"
        }
      ],
      "stateMutability": "nonpayable",
      "type": "function"
    },
    {
      "inputs": [
        {
          "internalType": "address",
          "name": "_templateAddress",
          "type": "address"
        }
      ],
      "name": "addTokenTemplate",
      "outputs": [
        {
          "internalType": "uint256",
          "name": "",
          "type": "uint256"
        }
      ],
      "stateMutability": "nonpayable",
      "type": "function"
    },
    {
      "inputs": [
        {
          "components": [
            {
              "internalType": "string",
              "name": "name",
              "type": "string"
            },
            {
              "internalType": "string",
              "name": "symbol",
              "type": "string"
            },
            {
              "internalType": "uint256",
              "name": "templateIndex",
              "type": "uint256"
            },
            {
              "internalType": "string",
              "name": "tokenURI",
              "type": "string"
            }
          ],
          "internalType": "struct ERC721Factory.NftCreateData",
          "name": "_NftCreateData",
          "type": "tuple"
        },
        {
          "components": [
            {
              "internalType": "uint256",
              "name": "templateIndex",
              "type": "uint256"
            },
            {
              "internalType": "string[]",
              "name": "strings",
              "type": "string[]"
            },
            {
              "internalType": "address[]",
              "name": "addresses",
              "type": "address[]"
            },
            {
              "internalType": "uint256[]",
              "name": "uints",
              "type": "uint256[]"
            },
            {
              "internalType": "bytes[]",
              "name": "bytess",
              "type": "bytes[]"
            }
          ],
          "internalType": "struct ERC721Factory.ErcCreateData",
          "name": "_ErcCreateData",
          "type": "tuple"
        }
      ],
      "name": "createNftWithErc20",
      "outputs": [
        {
          "internalType": "address",
          "name": "erc721Address",
          "type": "address"
        },
        {
          "internalType": "address",
          "name": "erc20Address",
          "type": "address"
        }
      ],
      "stateMutability": "nonpayable",
      "type": "function"
    },
    {
      "inputs": [
        {
          "components": [
            {
              "internalType": "string",
              "name": "name",
              "type": "string"
            },
            {
              "internalType": "string",
              "name": "symbol",
              "type": "string"
            },
            {
              "internalType": "uint256",
              "name": "templateIndex",
              "type": "uint256"
            },
            {
              "internalType": "string",
              "name": "tokenURI",
              "type": "string"
            }
          ],
          "internalType": "struct ERC721Factory.NftCreateData",
          "name": "_NftCreateData",
          "type": "tuple"
        },
        {
          "components": [
            {
              "internalType": "uint256",
              "name": "templateIndex",
              "type": "uint256"
            },
            {
              "internalType": "string[]",
              "name": "strings",
              "type": "string[]"
            },
            {
              "internalType": "address[]",
              "name": "addresses",
              "type": "address[]"
            },
            {
              "internalType": "uint256[]",
              "name": "uints",
              "type": "uint256[]"
            },
            {
              "internalType": "bytes[]",
              "name": "bytess",
              "type": "bytes[]"
            }
          ],
          "internalType": "struct ERC721Factory.ErcCreateData",
          "name": "_ErcCreateData",
          "type": "tuple"
        },
        {
          "components": [
            {
              "internalType": "address",
              "name": "dispenserAddress",
              "type": "address"
            },
            {
              "internalType": "uint256",
              "name": "maxTokens",
              "type": "uint256"
            },
            {
              "internalType": "uint256",
              "name": "maxBalance",
              "type": "uint256"
            },
            {
              "internalType": "bool",
              "name": "withMint",
              "type": "bool"
            },
            {
              "internalType": "address",
              "name": "allowedSwapper",
              "type": "address"
            }
          ],
          "internalType": "struct ERC721Factory.DispenserData",
          "name": "_DispenserData",
          "type": "tuple"
        }
      ],
      "name": "createNftWithErc20WithDispenser",
      "outputs": [
        {
          "internalType": "address",
          "name": "erc721Address",
          "type": "address"
        },
        {
          "internalType": "address",
          "name": "erc20Address",
          "type": "address"
        }
      ],
      "stateMutability": "nonpayable",
      "type": "function"
    },
    {
      "inputs": [
        {
          "components": [
            {
              "internalType": "string",
              "name": "name",
              "type": "string"
            },
            {
              "internalType": "string",
              "name": "symbol",
              "type": "string"
            },
            {
              "internalType": "uint256",
              "name": "templateIndex",
              "type": "uint256"
            },
            {
              "internalType": "string",
              "name": "tokenURI",
              "type": "string"
            }
          ],
          "internalType": "struct ERC721Factory.NftCreateData",
          "name": "_NftCreateData",
          "type": "tuple"
        },
        {
          "components": [
            {
              "internalType": "uint256",
              "name": "templateIndex",
              "type": "uint256"
            },
            {
              "internalType": "string[]",
              "name": "strings",
              "type": "string[]"
            },
            {
              "internalType": "address[]",
              "name": "addresses",
              "type": "address[]"
            },
            {
              "internalType": "uint256[]",
              "name": "uints",
              "type": "uint256[]"
            },
            {
              "internalType": "bytes[]",
              "name": "bytess",
              "type": "bytes[]"
            }
          ],
          "internalType": "struct ERC721Factory.ErcCreateData",
          "name": "_ErcCreateData",
          "type": "tuple"
        },
        {
          "components": [
            {
              "internalType": "address",
              "name": "fixedPriceAddress",
              "type": "address"
            },
            {
              "internalType": "address[]",
              "name": "addresses",
              "type": "address[]"
            },
            {
              "internalType": "uint256[]",
              "name": "uints",
              "type": "uint256[]"
            }
          ],
          "internalType": "struct ERC721Factory.FixedData",
          "name": "_FixedData",
          "type": "tuple"
        }
      ],
      "name": "createNftWithErc20WithFixedRate",
      "outputs": [
        {
          "internalType": "address",
          "name": "erc721Address",
          "type": "address"
        },
        {
          "internalType": "address",
          "name": "erc20Address",
          "type": "address"
        },
        {
          "internalType": "bytes32",
          "name": "exchangeId",
          "type": "bytes32"
        }
      ],
      "stateMutability": "nonpayable",
      "type": "function"
    },
    {
      "inputs": [
        {
          "components": [
            {
              "internalType": "string",
              "name": "name",
              "type": "string"
            },
            {
              "internalType": "string",
              "name": "symbol",
              "type": "string"
            },
            {
              "internalType": "uint256",
              "name": "templateIndex",
              "type": "uint256"
            },
            {
              "internalType": "string",
              "name": "tokenURI",
              "type": "string"
            }
          ],
          "internalType": "struct ERC721Factory.NftCreateData",
          "name": "_NftCreateData",
          "type": "tuple"
        },
        {
          "components": [
            {
              "internalType": "uint256",
              "name": "templateIndex",
              "type": "uint256"
            },
            {
              "internalType": "string[]",
              "name": "strings",
              "type": "string[]"
            },
            {
              "internalType": "address[]",
              "name": "addresses",
              "type": "address[]"
            },
            {
              "internalType": "uint256[]",
              "name": "uints",
              "type": "uint256[]"
            },
            {
              "internalType": "bytes[]",
              "name": "bytess",
              "type": "bytes[]"
            }
          ],
          "internalType": "struct ERC721Factory.ErcCreateData",
          "name": "_ErcCreateData",
          "type": "tuple"
        },
        {
          "components": [
            {
              "internalType": "uint256[]",
              "name": "ssParams",
              "type": "uint256[]"
            },
            {
              "internalType": "uint256[]",
              "name": "swapFees",
              "type": "uint256[]"
            },
            {
              "internalType": "address[]",
              "name": "addresses",
              "type": "address[]"
            }
          ],
          "internalType": "struct ERC721Factory.PoolData",
          "name": "_PoolData",
          "type": "tuple"
        }
      ],
      "name": "createNftWithErc20WithPool",
      "outputs": [
        {
          "internalType": "address",
          "name": "erc721Address",
          "type": "address"
        },
        {
          "internalType": "address",
          "name": "erc20Address",
          "type": "address"
        },
        {
          "internalType": "address",
          "name": "poolAddress",
          "type": "address"
        }
      ],
      "stateMutability": "nonpayable",
      "type": "function"
    },
    {
      "inputs": [
        {
          "components": [
            {
              "internalType": "string",
              "name": "name",
              "type": "string"
            },
            {
              "internalType": "string",
              "name": "symbol",
              "type": "string"
            },
            {
              "internalType": "uint256",
              "name": "templateIndex",
              "type": "uint256"
            },
            {
              "internalType": "string",
              "name": "tokenURI",
              "type": "string"
            }
          ],
          "internalType": "struct ERC721Factory.NftCreateData",
          "name": "_NftCreateData",
          "type": "tuple"
        },
        {
          "components": [
            {
              "internalType": "uint8",
              "name": "_metaDataState",
              "type": "uint8"
            },
            {
              "internalType": "string",
              "name": "_metaDataDecryptorUrl",
              "type": "string"
            },
            {
              "internalType": "string",
              "name": "_metaDataDecryptorAddress",
              "type": "string"
            },
            {
              "internalType": "bytes",
              "name": "flags",
              "type": "bytes"
            },
            {
              "internalType": "bytes",
              "name": "data",
              "type": "bytes"
            },
            {
              "internalType": "bytes32",
              "name": "_metaDataHash",
              "type": "bytes32"
            },
            {
              "components": [
                {
                  "internalType": "address",
                  "name": "validatorAddress",
                  "type": "address"
                },
                {
                  "internalType": "uint8",
                  "name": "v",
                  "type": "uint8"
                },
                {
                  "internalType": "bytes32",
                  "name": "r",
                  "type": "bytes32"
                },
                {
                  "internalType": "bytes32",
                  "name": "s",
                  "type": "bytes32"
                }
              ],
              "internalType": "struct IERC721Template.metaDataProof[]",
              "name": "_metadataProofs",
              "type": "tuple[]"
            }
          ],
          "internalType": "struct ERC721Factory.MetaData",
          "name": "_MetaData",
          "type": "tuple"
        }
      ],
      "name": "createNftWithMetaData",
      "outputs": [
        {
          "internalType": "address",
          "name": "erc721Address",
          "type": "address"
        }
      ],
      "stateMutability": "nonpayable",
      "type": "function"
    },
    {
      "inputs": [
        {
          "internalType": "uint256",
          "name": "_templateIndex",
          "type": "uint256"
        },
        {
          "internalType": "string[]",
          "name": "strings",
          "type": "string[]"
        },
        {
          "internalType": "address[]",
          "name": "addresses",
          "type": "address[]"
        },
        {
          "internalType": "uint256[]",
          "name": "uints",
          "type": "uint256[]"
        },
        {
          "internalType": "bytes[]",
          "name": "bytess",
          "type": "bytes[]"
        }
      ],
      "name": "createToken",
      "outputs": [
        {
          "internalType": "address",
          "name": "token",
          "type": "address"
        }
      ],
      "stateMutability": "nonpayable",
      "type": "function"
    },
    {
      "inputs": [
        {
          "internalType": "string",
          "name": "name",
          "type": "string"
        },
        {
          "internalType": "string",
          "name": "symbol",
          "type": "string"
        },
        {
          "internalType": "uint256",
          "name": "_templateIndex",
          "type": "uint256"
        },
        {
          "internalType": "address",
          "name": "additionalERC20Deployer",
          "type": "address"
        },
        {
          "internalType": "address",
          "name": "additionalMetaDataUpdater",
          "type": "address"
        },
        {
          "internalType": "string",
          "name": "tokenURI",
          "type": "string"
        }
      ],
      "name": "deployERC721Contract",
      "outputs": [
        {
          "internalType": "address",
          "name": "token",
          "type": "address"
        }
      ],
      "stateMutability": "nonpayable",
      "type": "function"
    },
    {
      "inputs": [
        {
          "internalType": "uint256",
          "name": "_index",
          "type": "uint256"
        }
      ],
      "name": "disable721TokenTemplate",
      "outputs": [],
      "stateMutability": "nonpayable",
      "type": "function"
    },
    {
      "inputs": [
        {
          "internalType": "uint256",
          "name": "_index",
          "type": "uint256"
        }
      ],
      "name": "disableTokenTemplate",
      "outputs": [],
      "stateMutability": "nonpayable",
      "type": "function"
    },
    {
      "inputs": [
        {
          "internalType": "address",
          "name": "",
          "type": "address"
        }
      ],
      "name": "erc20List",
      "outputs": [
        {
          "internalType": "bool",
          "name": "",
          "type": "bool"
        }
      ],
      "stateMutability": "view",
      "type": "function"
    },
    {
      "inputs": [
        {
          "internalType": "address",
          "name": "",
          "type": "address"
        }
      ],
      "name": "erc721List",
      "outputs": [
        {
          "internalType": "address",
          "name": "",
          "type": "address"
        }
      ],
      "stateMutability": "view",
      "type": "function"
    },
    {
      "inputs": [],
      "name": "getCurrentNFTCount",
      "outputs": [
        {
          "internalType": "uint256",
          "name": "",
          "type": "uint256"
        }
      ],
      "stateMutability": "view",
      "type": "function"
    },
    {
      "inputs": [],
      "name": "getCurrentNFTTemplateCount",
      "outputs": [
        {
          "internalType": "uint256",
          "name": "",
          "type": "uint256"
        }
      ],
      "stateMutability": "view",
      "type": "function"
    },
    {
      "inputs": [],
      "name": "getCurrentTemplateCount",
      "outputs": [
        {
          "internalType": "uint256",
          "name": "",
          "type": "uint256"
        }
      ],
      "stateMutability": "view",
      "type": "function"
    },
    {
      "inputs": [],
      "name": "getCurrentTokenCount",
      "outputs": [
        {
          "internalType": "uint256",
          "name": "",
          "type": "uint256"
        }
      ],
      "stateMutability": "view",
      "type": "function"
    },
    {
      "inputs": [
        {
          "internalType": "uint256",
          "name": "_index",
          "type": "uint256"
        }
      ],
      "name": "getNFTTemplate",
      "outputs": [
        {
          "components": [
            {
              "internalType": "address",
              "name": "templateAddress",
              "type": "address"
            },
            {
              "internalType": "bool",
              "name": "isActive",
              "type": "bool"
            }
          ],
          "internalType": "struct ERC721Factory.Template",
          "name": "",
          "type": "tuple"
        }
      ],
      "stateMutability": "view",
      "type": "function"
    },
    {
      "inputs": [
        {
          "internalType": "uint256",
          "name": "_index",
          "type": "uint256"
        }
      ],
      "name": "getTokenTemplate",
      "outputs": [
        {
          "components": [
            {
              "internalType": "address",
              "name": "templateAddress",
              "type": "address"
            },
            {
              "internalType": "bool",
              "name": "isActive",
              "type": "bool"
            }
          ],
          "internalType": "struct ERC721Factory.Template",
          "name": "",
          "type": "tuple"
        }
      ],
      "stateMutability": "view",
      "type": "function"
    },
    {
      "inputs": [
        {
          "internalType": "uint256",
          "name": "",
          "type": "uint256"
        }
      ],
      "name": "nftTemplateList",
      "outputs": [
        {
          "internalType": "address",
          "name": "templateAddress",
          "type": "address"
        },
        {
          "internalType": "bool",
          "name": "isActive",
          "type": "bool"
        }
      ],
      "stateMutability": "view",
      "type": "function"
    },
    {
      "inputs": [],
      "name": "owner",
      "outputs": [
        {
          "internalType": "address",
          "name": "",
          "type": "address"
        }
      ],
      "stateMutability": "view",
      "type": "function"
    },
    {
      "inputs": [
        {
          "internalType": "uint256",
          "name": "_index",
          "type": "uint256"
        }
      ],
      "name": "reactivate721TokenTemplate",
      "outputs": [],
      "stateMutability": "nonpayable",
      "type": "function"
    },
    {
      "inputs": [
        {
          "internalType": "uint256",
          "name": "_index",
          "type": "uint256"
        }
      ],
      "name": "reactivateTokenTemplate",
      "outputs": [],
      "stateMutability": "nonpayable",
      "type": "function"
    },
    {
      "inputs": [],
      "name": "renounceOwnership",
      "outputs": [],
      "stateMutability": "nonpayable",
      "type": "function"
    },
    {
      "inputs": [
        {
          "components": [
            {
              "internalType": "address",
              "name": "tokenAddress",
              "type": "address"
            },
            {
              "internalType": "bytes32",
              "name": "orderTxId",
              "type": "bytes32"
            },
            {
              "components": [
                {
                  "internalType": "address",
                  "name": "providerFeeAddress",
                  "type": "address"
                },
                {
                  "internalType": "address",
                  "name": "providerFeeToken",
                  "type": "address"
                },
                {
                  "internalType": "uint256",
                  "name": "providerFeeAmount",
                  "type": "uint256"
                },
                {
                  "internalType": "uint8",
                  "name": "v",
                  "type": "uint8"
                },
                {
                  "internalType": "bytes32",
                  "name": "r",
                  "type": "bytes32"
                },
                {
                  "internalType": "bytes32",
                  "name": "s",
                  "type": "bytes32"
                },
                {
                  "internalType": "uint256",
                  "name": "validUntil",
                  "type": "uint256"
                },
                {
                  "internalType": "bytes",
                  "name": "providerData",
                  "type": "bytes"
                }
              ],
              "internalType": "struct IERC20Template.providerFee",
              "name": "_providerFee",
              "type": "tuple"
            }
          ],
          "internalType": "struct ERC721Factory.reuseTokenOrder[]",
          "name": "orders",
          "type": "tuple[]"
        }
      ],
      "name": "reuseMultipleTokenOrder",
      "outputs": [],
      "stateMutability": "nonpayable",
      "type": "function"
    },
    {
      "inputs": [],
      "name": "router",
      "outputs": [
        {
          "internalType": "address",
          "name": "",
          "type": "address"
        }
      ],
      "stateMutability": "view",
      "type": "function"
    },
    {
      "inputs": [
        {
          "components": [
            {
              "internalType": "address",
              "name": "tokenAddress",
              "type": "address"
            },
            {
              "internalType": "address",
              "name": "consumer",
              "type": "address"
            },
            {
              "internalType": "uint256",
              "name": "serviceIndex",
              "type": "uint256"
            },
            {
              "components": [
                {
                  "internalType": "address",
                  "name": "providerFeeAddress",
                  "type": "address"
                },
                {
                  "internalType": "address",
                  "name": "providerFeeToken",
                  "type": "address"
                },
                {
                  "internalType": "uint256",
                  "name": "providerFeeAmount",
                  "type": "uint256"
                },
                {
                  "internalType": "uint8",
                  "name": "v",
                  "type": "uint8"
                },
                {
                  "internalType": "bytes32",
                  "name": "r",
                  "type": "bytes32"
                },
                {
                  "internalType": "bytes32",
                  "name": "s",
                  "type": "bytes32"
                },
                {
                  "internalType": "uint256",
                  "name": "validUntil",
                  "type": "uint256"
                },
                {
                  "internalType": "bytes",
                  "name": "providerData",
                  "type": "bytes"
                }
              ],
              "internalType": "struct IERC20Template.providerFee",
              "name": "_providerFee",
              "type": "tuple"
            },
            {
              "components": [
                {
                  "internalType": "address",
                  "name": "consumeMarketFeeAddress",
                  "type": "address"
                },
                {
                  "internalType": "address",
                  "name": "consumeMarketFeeToken",
                  "type": "address"
                },
                {
                  "internalType": "uint256",
                  "name": "consumeMarketFeeAmount",
                  "type": "uint256"
                }
              ],
              "internalType": "struct IERC20Template.consumeMarketFee",
              "name": "_consumeMarketFee",
              "type": "tuple"
            }
          ],
          "internalType": "struct ERC721Factory.tokenOrder[]",
          "name": "orders",
          "type": "tuple[]"
        }
      ],
      "name": "startMultipleTokenOrder",
      "outputs": [],
      "stateMutability": "nonpayable",
      "type": "function"
    },
    {
      "inputs": [],
      "name": "templateCount",
      "outputs": [
        {
          "internalType": "uint256",
          "name": "",
          "type": "uint256"
        }
      ],
      "stateMutability": "view",
      "type": "function"
    },
    {
      "inputs": [
        {
          "internalType": "uint256",
          "name": "",
          "type": "uint256"
        }
      ],
      "name": "templateList",
      "outputs": [
        {
          "internalType": "address",
          "name": "templateAddress",
          "type": "address"
        },
        {
          "internalType": "bool",
          "name": "isActive",
          "type": "bool"
        }
      ],
      "stateMutability": "view",
      "type": "function"
    },
    {
      "inputs": [
        {
          "internalType": "address",
          "name": "newOwner",
          "type": "address"
        }
      ],
      "name": "transferOwnership",
      "outputs": [],
      "stateMutability": "nonpayable",
      "type": "function"
    }
  ],
  "bytecode": "0x60806040526000600a553480156200001657600080fd5b5060405162004829380380620048298339810160408190526200003991620005ab565b6200004433620001be565b600180556001600160a01b038316158015906200006957506001600160a01b03821615155b80156200007e57506001600160a01b03841615155b620001065760405162461bcd60e51b815260206004820152604760248201527f4552433732314454466163746f72793a20496e76616c69642074656d706c617460448201527f6520746f6b656e2f636f6d6d756e6974792066656520636f6c6c6563746f72206064820152666164647265737360c81b608482015260a4015b60405180910390fd5b6001600160a01b0381166200016e5760405162461bcd60e51b815260206004820152602760248201527f4552433732314454466163746f72793a20496e76616c696420726f75746572206044820152666164647265737360c81b6064820152608401620000fd565b62000179846200020e565b506200018583620003d1565b50600c80546001600160a01b039283166001600160a01b03199182161790915560028054939092169216919091179055506200062f9050565b600080546001600160a01b038381166001600160a01b0319831681178455604051919092169283917f8be0079c531659141344cd1fd0a4f28419497f9722a3daafe3b4186f6b6457e09190a35050565b600080546001600160a01b031633146200025a5760405162461bcd60e51b81526020600482018190526024820152600080516020620048098339815191526044820152606401620000fd565b6001600160a01b038216620002d85760405162461bcd60e51b815260206004820152603760248201527f4552433732314454466163746f72793a204552433732312074656d706c61746560448201527f2061646472657373283029204e4f5420414c4c4f5745440000000000000000006064820152608401620000fd565b813b620003285760405162461bcd60e51b815260206004820152601b60248201527f455243373231466163746f72793a204e4f5420434f4e545241435400000000006044820152606401620000fd565b6001600560008282546200033d919062000608565b90915550506040805180820182526001600160a01b038085168083526001602080850191825260058054600090815260069092528682208651815494511515600160a01b026001600160a81b03199095169616959095179290921790935554935192939290917fc0167b92c8eb4a2bad2c05e0134f076fba5d3cd54671a3e8edf13d2e61443bd991a350506005545b919050565b600080546001600160a01b031633146200041d5760405162461bcd60e51b81526020600482018190526024820152600080516020620048098339815191526044820152606401620000fd565b6001600160a01b0382166200049b5760405162461bcd60e51b815260206004820152603460248201527f4552433230466163746f72793a204552433732312074656d706c61746520616460448201527f6472657373283029204e4f5420414c4c4f5745440000000000000000000000006064820152608401620000fd565b813b620004eb5760405162461bcd60e51b815260206004820152601a60248201527f4552433230466163746f72793a204e4f5420434f4e54524143540000000000006044820152606401620000fd565b6001600b600082825462000500919062000608565b90915550506040805180820182526001600160a01b0380851680835260016020808501918252600b8054600090815260079092528682208651815494511515600160a01b026001600160a81b03199095169616959095179290921790935554935192939290917fdcd16da87b60cea6dbd55a83f73b8a4bf9a54655db58ae0f35b82a2373fc150d91a35050600b54919050565b80516001600160a01b0381168114620003cc57600080fd5b60008060008060808587031215620005c257600080fd5b620005cd8562000593565b9350620005dd6020860162000593565b9250620005ed6040860162000593565b9150620005fd6060860162000593565b905092959194509250565b600082198211156200062a57634e487b7160e01b600052601160045260246000fd5b500190565b6141ca806200063f6000396000f3fe608060405234801561001057600080fd5b50600436106101da5760003560e01c8063825808b7116101045780639a744104116100a2578063e5fc01f011610071578063e5fc01f01461053b578063f2fde38b14610543578063f887ea4014610556578063fec4c7251461056957600080fd5b80639a744104146104d4578063a33ef2a61461050d578063bbf8d71f14610520578063c6cf868a1461053357600080fd5b80638f6051af116100de5780638f6051af14610471578063940516991461048457806394be0e88146104b957806395c60305146104cc57600080fd5b8063825808b7146103d957806382c442041461040c5780638da5cb5b1461046057600080fd5b80633315efd11161017c578063715018a61161014b578063715018a61461038257806372f670f01461038a5780637b20bccf146103b3578063809d8105146103c657600080fd5b80633315efd1146102f7578063557fcfb0146103545780635c705982146103675780636e26fa9a1461036f57600080fd5b80631b434bc7116101b85780631b434bc71461025d578063226e76151461029a5780632515422e146102cd57806326705c3c146102e057600080fd5b8063042ab9b3146101df5780630dacfabb1461021d5780630ffda88714610248575b600080fd5b6101f26101ed366004612d79565b61057c565b6040805182516001600160a01b03168152602092830151151592810192909252015b60405180910390f35b61023061022b366004612daa565b610603565b6040516001600160a01b039091168152602001610214565b61025b610256366004612d79565b610820565b005b61027061026b366004612e38565b610865565b604080516001600160a01b0394851681529284166020840152921691810191909152606001610214565b6102bd6102a8366004612edf565b60096020526000908152604090205460ff1681565b6040519015158152602001610214565b61025b6102db3660046130f5565b610bb4565b6102e9600b5481565b604051908152602001610214565b6101f2610305366004612d79565b6040805180820190915260008082526020820152506000908152600660209081526040918290208251808401909352546001600160a01b0381168352600160a01b900460ff1615159082015290565b610230610362366004613344565b610e81565b6003546102e9565b61023061037d36600461346c565b610f22565b61025b6111f6565b610230610398366004612edf565b6008602052600090815260409020546001600160a01b031681565b6102e96103c1366004612edf565b61122c565b61025b6103d4366004612d79565b6113bf565b6103ec6103e7366004613525565b611431565b604080516001600160a01b03938416815292909116602083015201610214565b61044161041a366004612d79565b6006602052600090815260409020546001600160a01b03811690600160a01b900460ff1682565b604080516001600160a01b039093168352901515602083015201610214565b6000546001600160a01b0316610230565b6102e961047f366004612edf565b61160b565b610441610492366004612d79565b6007602052600090815260409020546001600160a01b03811690600160a01b900460ff1682565b61025b6104c7366004613588565b6117a6565b600b546102e9565b6104e76104e2366004612e38565b611d4b565b604080516001600160a01b03948516815293909216602084015290820152606001610214565b61025b61051b366004612d79565b611ece565b61025b61052e366004612d79565b611f46565b600a546102e9565b6005546102e9565b61025b610551366004612edf565b612002565b600c54610230906001600160a01b031681565b6103ec6105773660046136da565b61209d565b60408051808201909152600080825260208201526000828152600760209081526040918290208251808401909352546001600160a01b0381168352600160a01b900460ff16151590820152600b5483118015906105d857508215155b6105fd5760405162461bcd60e51b81526004016105f49061374e565b60405180910390fd5b92915050565b6000600260015414156106285760405162461bcd60e51b81526004016105f490613797565b60026001556106ff61063a84806137ce565b8080601f01602080910402602001604051908101604052809392919081815260200183838082843760009201919091525061067c9250505060208601866137ce565b8080601f016020809104026020016040519081016040528093929190818152602001838380828437600092018290525060408a0135935091503090506106c560608a018a6137ce565b8080601f016020809104026020016040519081016040528093929190818152602001838380828437600092019190915250610f2292505050565b90506001600160a01b038116631aa3adf961071d602085018561381b565b61072a60208601866137ce565b61073760408801886137ce565b61074460608a018a6137ce565b61075160808c018c6137ce565b60a08d013561076360c08f018f613836565b6040518d63ffffffff1660e01b815260040161078a9c9b9a999897969594939291906138a8565b600060405180830381600087803b1580156107a457600080fd5b505af11580156107b8573d6000803e3d6000fd5b50506040516310c414eb60e21b81523060048201526001600160a01b038416925063431053ac9150602401600060405180830381600087803b1580156107fd57600080fd5b505af1158015610811573d6000803e3d6000fd5b50506001805550909392505050565b6000546001600160a01b0316331461084a5760405162461bcd60e51b81526004016105f49061398c565b6000908152600760205260409020805460ff60a01b19169055565b60008060006002600154141561088d5760405162461bcd60e51b81526004016105f490613797565b60026001556108f16108a260408601866139c1565b60018181106108b3576108b3613a0a565b90506020020160208101906108c89190612edf565b33306108d488806139c1565b60048181106108e5576108e5613a0a565b90506020020135612335565b6109896108fe87806137ce565b8080601f0160208091040260200160405190810160405280939291908181526020018383808284376000920191909152506109409250505060208901896137ce565b8080601f016020809104026020016040519081016040528093929190818152602001838380828437600092018290525060408d0135935030925090506106c560608d018d6137ce565b92506001600160a01b03831663e38d7cad86356109a960208901896139c1565b6109b660408b018b6139c1565b6109c360608d018d6139c1565b6109d060808f018f6139c1565b6040518a63ffffffff1660e01b81526004016109f499989796959493929190613b41565b6020604051808303816000875af1158015610a13573d6000803e3d6000fd5b505050506040513d601f19601f82011682018060405250810190610a379190613bf2565b600c54909250610ab2906001600160a01b0316610a5486806139c1565b6004818110610a6557610a65613a0a565b90506020020135868060400190610a7c91906139c1565b6001818110610a8d57610a8d613a0a565b9050602002016020810190610aa29190612edf565b6001600160a01b03169190612482565b6001600160a01b038216635bfe4da0610acb86806139c1565b610ad860208901896139c1565b610ae560408b018b6139c1565b6040518763ffffffff1660e01b8152600401610b0696959493929190613c0f565b6020604051808303816000875af1158015610b25573d6000803e3d6000fd5b505050506040513d601f19601f82011682018060405250810190610b499190613bf2565b6040516301fc3d9160e71b81523060048201529091506001600160a01b0384169063fe1ec88090602401600060405180830381600087803b158015610b8d57600080fd5b505af1158015610ba1573d6000803e3d6000fd5b5050600180555092969195509350915050565b60026001541415610bd75760405162461bcd60e51b81526004016105f490613797565b6002600155805160321015610c2e5760405162461bcd60e51b815260206004820152601e60248201527f455243373231466163746f72793a20546f6f204d616e79204f7264657273000060448201526064016105f4565b60005b8151811015610e79576000828281518110610c4e57610c4e613a0a565b60200260200101516040015160400151118015610c9f575060006001600160a01b0316828281518110610c8357610c83613a0a565b602002602001015160400151602001516001600160a01b031614155b8015610cdf575060006001600160a01b0316828281518110610cc357610cc3613a0a565b602002602001015160400151600001516001600160a01b031614155b15610daf57610d32828281518110610cf957610cf9613a0a565b602002602001015160400151602001513330858581518110610d1d57610d1d613a0a565b60200260200101516040015160400151612335565b610daf828281518110610d4757610d47613a0a565b602002602001015160000151838381518110610d6557610d65613a0a565b60200260200101516040015160400151848481518110610d8757610d87613a0a565b602002602001015160400151602001516001600160a01b03166124829092919063ffffffff16565b818181518110610dc157610dc1613a0a565b6020026020010151600001516001600160a01b031663361fef49838381518110610ded57610ded613a0a565b602002602001015160200151848481518110610e0b57610e0b613a0a565b6020026020010151604001516040518363ffffffff1660e01b8152600401610e34929190613d24565b600060405180830381600087803b158015610e4e57600080fd5b505af1158015610e62573d6000803e3d6000fd5b505050508080610e7190613d53565b915050610c31565b505060018055565b3360008181526008602052604081205490916001600160a01b0390911614610f0a5760405162461bcd60e51b815260206004820152603660248201527f455243373231466163746f72793a204f4e4c592045524337323120494e5354416044820152754e43452046524f4d20455243373231464143544f525960501b60648201526084016105f4565b610f1886868686863361256d565b9695505050505050565b60006005548511158015610f3557508415155b610f515760405162461bcd60e51b81526004016105f490613d6e565b6000858152600660209081526040918290208251808401909352546001600160a01b0381168352600160a01b900460ff161515908201819052610fed5760405162461bcd60e51b815260206004820152602e60248201527f4552433732314454466163746f72793a20455243373231546f6b656e2054656d60448201526d1c1b185d1948191a5cd8589b195960921b60648201526084016105f4565b8051610ff890612852565b91506001600160a01b038216611078576040805162461bcd60e51b81526020600482015260248101919091527f4552433732314454466163746f72793a204661696c656420746f20706572666f60448201527f726d206d696e696d616c206465706c6f79206f662061206e657720746f6b656e60648201526084016105f4565b6001600160a01b0382166000818152600860205260409081902080546001600160a01b031916831790555163947fcb8360e01b815283919063947fcb83906110d09033908d908d9030908d908d908d90600401613dba565b6020604051808303816000875af11580156110ef573d6000803e3d6000fd5b505050506040513d601f19601f820116820180604052508101906111139190613e37565b61117c5760405162461bcd60e51b815260206004820152603460248201527f4552433732314454466163746f72793a20556e61626c6520746f20696e697469604482015273616c697a6520746f6b656e20696e7374616e636560601b60648201526084016105f4565b81600001516001600160a01b0316836001600160a01b03167f46f5e3cee761854fc3892024ae7aa2c832007dff583603ce093f177ebd9c4c968b338c896040516111c99493929190613e54565b60405180910390a36001600360008282546111e49190613e9c565b90915550929998505050505050505050565b6000546001600160a01b031633146112205760405162461bcd60e51b81526004016105f49061398c565b61122a60006128e2565b565b600080546001600160a01b031633146112575760405162461bcd60e51b81526004016105f49061398c565b6001600160a01b0382166112ca5760405162461bcd60e51b815260206004820152603460248201527f4552433230466163746f72793a204552433732312074656d706c617465206164604482015273191c995cdcca0c0a481393d50810531313d5d15160621b60648201526084016105f4565b813b6113185760405162461bcd60e51b815260206004820152601a60248201527f4552433230466163746f72793a204e4f5420434f4e545241435400000000000060448201526064016105f4565b6001600b600082825461132b9190613e9c565b90915550506040805180820182526001600160a01b0380851680835260016020808501918252600b8054600090815260079092528682208651815494511515600160a01b026001600160a81b03199095169616959095179290921790935554935192939290917fdcd16da87b60cea6dbd55a83f73b8a4bf9a54655db58ae0f35b82a2373fc150d91a35050600b545b919050565b6000546001600160a01b031633146113e95760405162461bcd60e51b81526004016105f49061398c565b60055481111580156113fa57508015155b6114165760405162461bcd60e51b81526004016105f490613d6e565b6000908152600660205260409020805460ff60a01b19169055565b600080600260015414156114575760405162461bcd60e51b81526004016105f490613797565b60026001556114f461146985806137ce565b8080601f0160208091040260200160405190810160405280939291908181526020018383808284376000920191909152506114ab9250505060208701876137ce565b8080601f016020809104026020016040519081016040528093929190818152602001838380828437600092018290525060408b0135935030925090506106c560608b018b6137ce565b91506001600160a01b03821663e38d7cad843561151460208701876139c1565b61152160408901896139c1565b61152e60608b018b6139c1565b61153b60808d018d6139c1565b6040518a63ffffffff1660e01b815260040161155f99989796959493929190613b41565b6020604051808303816000875af115801561157e573d6000803e3d6000fd5b505050506040513d601f19601f820116820180604052508101906115a29190613bf2565b6040516301fc3d9160e71b81523060048201529091506001600160a01b0383169063fe1ec88090602401600060405180830381600087803b1580156115e657600080fd5b505af11580156115fa573d6000803e3d6000fd5b505060018055509194909350915050565b600080546001600160a01b031633146116365760405162461bcd60e51b81526004016105f49061398c565b6001600160a01b0382166116b25760405162461bcd60e51b815260206004820152603760248201527f4552433732314454466163746f72793a204552433732312074656d706c61746560448201527f2061646472657373283029204e4f5420414c4c4f57454400000000000000000060648201526084016105f4565b813b6117005760405162461bcd60e51b815260206004820152601b60248201527f455243373231466163746f72793a204e4f5420434f4e5452414354000000000060448201526064016105f4565b6001600560008282546117139190613e9c565b90915550506040805180820182526001600160a01b038085168083526001602080850191825260058054600090815260069092528682208651815494511515600160a01b026001600160a81b03199095169616959095179290921790935554935192939290917fc0167b92c8eb4a2bad2c05e0134f076fba5d3cd54671a3e8edf13d2e61443bd991a35050600554919050565b600260015414156117c95760405162461bcd60e51b81526004016105f490613797565b60026001558051603210156118205760405162461bcd60e51b815260206004820152601e60248201527f455243373231466163746f72793a20546f6f204d616e79204f7264657273000060448201526064016105f4565b60005b8151811015610e7957600080600084848151811061184357611843613a0a565b6020026020010151600001516001600160a01b031663397b37436040518163ffffffff1660e01b8152600401606060405180830381865afa15801561188c573d6000803e3d6000fd5b505050506040513d601f19601f820116820180604052508101906118b09190613eb4565b9250925092506000811180156118ce57506001600160a01b03821615155b80156118e257506001600160a01b03831615155b15611925576118f382333084612335565b61192585858151811061190857611908613a0a565b6020908102919091010151516001600160a01b0384169083612482565b600085858151811061193957611939613a0a565b6020026020010151608001516040015111801561198a575060006001600160a01b031685858151811061196e5761196e613a0a565b602002602001015160800151600001516001600160a01b031614155b80156119ca575060006001600160a01b03168585815181106119ae576119ae613a0a565b602002602001015160800151602001516001600160a01b031614155b15611a9a57611a1d8585815181106119e4576119e4613a0a565b602002602001015160800151602001513330888881518110611a0857611a08613a0a565b60200260200101516080015160400151612335565b611a9a858581518110611a3257611a32613a0a565b602002602001015160000151868681518110611a5057611a50613a0a565b60200260200101516080015160400151878781518110611a7257611a72613a0a565b602002602001015160800151602001516001600160a01b03166124829092919063ffffffff16565b6000858581518110611aae57611aae613a0a565b60200260200101516060015160400151118015611aff575060006001600160a01b0316858581518110611ae357611ae3613a0a565b602002602001015160600151602001516001600160a01b031614155b8015611b3f575060006001600160a01b0316858581518110611b2357611b23613a0a565b602002602001015160600151600001516001600160a01b031614155b15611c0f57611b92858581518110611b5957611b59613a0a565b602002602001015160600151602001513330888881518110611b7d57611b7d613a0a565b60200260200101516060015160400151612335565b611c0f858581518110611ba757611ba7613a0a565b602002602001015160000151868681518110611bc557611bc5613a0a565b60200260200101516060015160400151878781518110611be757611be7613a0a565b602002602001015160600151602001516001600160a01b03166124829092919063ffffffff16565b611c40858581518110611c2457611c24613a0a565b6020026020010151600001513330670de0b6b3a7640000612335565b848481518110611c5257611c52613a0a565b6020026020010151600001516001600160a01b03166379d9d7f3868681518110611c7e57611c7e613a0a565b602002602001015160200151878781518110611c9c57611c9c613a0a565b602002602001015160400151888881518110611cba57611cba613a0a565b602002602001015160600151898981518110611cd857611cd8613a0a565b6020026020010151608001516040518563ffffffff1660e01b8152600401611d039493929190613ef7565b600060405180830381600087803b158015611d1d57600080fd5b505af1158015611d31573d6000803e3d6000fd5b505050505050508080611d4390613d53565b915050611823565b600080600060026001541415611d735760405162461bcd60e51b81526004016105f490613797565b6002600155611d856108fe87806137ce565b92506001600160a01b03831663e38d7cad8635611da560208901896139c1565b611db260408b018b6139c1565b611dbf60608d018d6139c1565b611dcc60808f018f6139c1565b6040518a63ffffffff1660e01b8152600401611df099989796959493929190613b41565b6020604051808303816000875af1158015611e0f573d6000803e3d6000fd5b505050506040513d601f19601f82011682018060405250810190611e339190613bf2565b91506001600160a01b038216638b96412b611e516020870187612edf565b611e5e60208801886139c1565b611e6b60408a018a6139c1565b6040518663ffffffff1660e01b8152600401611e8b959493929190613f4a565b6020604051808303816000875af1158015611eaa573d6000803e3d6000fd5b505050506040513d601f19601f82011682018060405250810190610b499190613f8e565b6000546001600160a01b03163314611ef85760405162461bcd60e51b81526004016105f49061398c565b6005548111158015611f0957508015155b611f255760405162461bcd60e51b81526004016105f490613d6e565b6000908152600660205260409020805460ff60a01b1916600160a01b179055565b6000546001600160a01b03163314611f705760405162461bcd60e51b81526004016105f49061398c565b600b548111158015611f8157508015155b611fe15760405162461bcd60e51b815260206004820152602b60248201527f45524332304454466163746f72793a2054656d706c61746520696e646578206460448201526a1bd95cdb9d08195e1a5cdd60aa1b60648201526084016105f4565b6000908152600760205260409020805460ff60a01b1916600160a01b179055565b6000546001600160a01b0316331461202c5760405162461bcd60e51b81526004016105f49061398c565b6001600160a01b0381166120915760405162461bcd60e51b815260206004820152602660248201527f4f776e61626c653a206e6577206f776e657220697320746865207a65726f206160448201526564647265737360d01b60648201526084016105f4565b61209a816128e2565b50565b600080600260015414156120c35760405162461bcd60e51b81526004016105f490613797565b60026001556121606120d586806137ce565b8080601f0160208091040260200160405190810160405280939291908181526020018383808284376000920191909152506121179250505060208801886137ce565b8080601f016020809104026020016040519081016040528093929190818152602001838380828437600092018290525060408c0135935030925090506106c560608c018c6137ce565b91506001600160a01b03821663e38d7cad853561218060208801886139c1565b61218d60408a018a6139c1565b61219a60608c018c6139c1565b6121a760808e018e6139c1565b6040518a63ffffffff1660e01b81526004016121cb99989796959493929190613b41565b6020604051808303816000875af11580156121ea573d6000803e3d6000fd5b505050506040513d601f19601f8201168201806040525081019061220e9190613bf2565b90506001600160a01b03811663191c918a61222c6020860186612edf565b602086013560408701356122466080890160608a01613fa7565b61225660a08a0160808b01612edf565b60405160e087901b6001600160e01b03191681526001600160a01b0395861660048201526024810194909452604484019290925215156064830152909116608482015260a401600060405180830381600087803b1580156122b657600080fd5b505af11580156122ca573d6000803e3d6000fd5b50506040516301fc3d9160e71b81523060048201526001600160a01b038516925063fe1ec8809150602401600060405180830381600087803b15801561230f57600080fd5b505af1158015612323573d6000803e3d6000fd5b50506001805550919590945092505050565b6040516370a0823160e01b81526001600160a01b038381166004830152600091908616906370a0823190602401602060405180830381865afa15801561237f573d6000803e3d6000fd5b505050506040513d601f19601f820116820180604052508101906123a39190613f8e565b90506123ba6001600160a01b038616858585612932565b6123c4818361296a565b6040516370a0823160e01b81526001600160a01b0385811660048301528716906370a0823190602401602060405180830381865afa15801561240a573d6000803e3d6000fd5b505050506040513d601f19601f8201168201806040525081019061242e9190613f8e565b1461247b5760405162461bcd60e51b815260206004820152601d60248201527f5472616e7366657220616d6f756e7420776173206e6f7420657861637400000060448201526064016105f4565b5050505050565b604051636eb1769f60e11b81523060048201526001600160a01b038381166024830152600091839186169063dd62ed3e90604401602060405180830381865afa1580156124d3573d6000803e3d6000fd5b505050506040513d601f19601f820116820180604052508101906124f79190613f8e565b6125019190613e9c565b6040516001600160a01b03851660248201526044810182905290915061256790859063095ea7b360e01b906064015b60408051601f198184030181529190526020810180516001600160e01b03166001600160e01b03199093169290921790915261297d565b50505050565b60008360008151811061258257612582613a0a565b6020026020010151600014156125e85760405162461bcd60e51b815260206004820152602560248201527f4552433230466163746f72793a207a65726f20636170206973206e6f7420616c6044820152641b1bddd95960da1b60648201526084016105f4565b600b5487111580156125f957508615155b6126155760405162461bcd60e51b81526004016105f49061374e565b6000878152600760209081526040918290208251808401909352546001600160a01b0381168352600160a01b900460ff1615159082018190526126ae5760405162461bcd60e51b815260206004820152602b60248201527f4552433230466163746f72793a20455243373231546f6b656e2054656d706c6160448201526a1d1948191a5cd8589b195960aa1b60648201526084016105f4565b80516126b990612852565b6001600160a01b0381166000818152600960205260409020805460ff191660011790559092506127515760405162461bcd60e51b815260206004820152603e60248201527f455243373231466163746f72793a204661696c656420746f20706572666f726d60448201527f206d696e696d616c206465706c6f79206f662061206e657720746f6b656e000060648201526084016105f4565b80600001516001600160a01b0316826001600160a01b03167f567699dbf7c5f63a51a42fd451f5e065bca0dfc723adf2cc498bbb7cfb780b908960008151811061279d5761279d613a0a565b60200260200101518a6001815181106127b8576127b8613a0a565b6020026020010151896000815181106127d3576127d3613a0a565b6020026020010151886040516127ec9493929190613fc4565b60405180910390a36001600a60008282546128079190613e9c565b90915550506040805160a081018252888152602081018890529081018690526001600160a01b0384166080820152606081018590526128468382612a54565b50509695505050505050565b6000808260601b9050604051733d602d80600a3d3981f3363d3d373d3d3d363d7360601b81528160148201526e5af43d82803e903d91602b57fd5bf360881b60288201526037816000f06040516001600160a01b03821681529093507f117c72e6c25f0a072e36e148df71468ce2f3dbe7defec5b2c257a6e3eb65278c915060200160405180910390a150919050565b600080546001600160a01b038381166001600160a01b0319831681178455604051919092169283917f8be0079c531659141344cd1fd0a4f28419497f9722a3daafe3b4186f6b6457e09190a35050565b6040516001600160a01b03808516602483015283166044820152606481018290526125679085906323b872dd60e01b90608401612530565b60006129768284613e9c565b9392505050565b60006129d2826040518060400160405280602081526020017f5361666545524332303a206c6f772d6c6576656c2063616c6c206661696c6564815250856001600160a01b0316612c019092919063ffffffff16565b805190915015612a4f57808060200190518101906129f09190613e37565b612a4f5760405162461bcd60e51b815260206004820152602a60248201527f5361666545524332303a204552433230206f7065726174696f6e20646964206e6044820152691bdd081cdd58d8d9595960b21b60648201526084016105f4565b505050565b6040805160038082526080820190925283916000919060208201606080368337019050509050826080015181600081518110612a9257612a92613a0a565b6001600160a01b039283166020918202929092010152600254825191169082906001908110612ac357612ac3613a0a565b6001600160a01b039283166020918202929092010152600c54825191169082906002908110612af457612af4613a0a565b60200260200101906001600160a01b031690816001600160a01b031681525050816001600160a01b031663b3998be08460000151856020015184876040015188606001516040518663ffffffff1660e01b8152600401612b589594939291906140bc565b6020604051808303816000875af1158015612b77573d6000803e3d6000fd5b505050506040513d601f19601f82011682018060405250810190612b9b9190613e37565b6125675760405162461bcd60e51b815260206004820152603160248201527f4552433230466163746f72793a20556e61626c6520746f20696e697469616c696044820152707a6520746f6b656e20696e7374616e636560781b60648201526084016105f4565b6060612c108484600085612c18565b949350505050565b606082471015612c795760405162461bcd60e51b815260206004820152602660248201527f416464726573733a20696e73756666696369656e742062616c616e636520666f6044820152651c8818d85b1b60d21b60648201526084016105f4565b843b612cc75760405162461bcd60e51b815260206004820152601d60248201527f416464726573733a2063616c6c20746f206e6f6e2d636f6e747261637400000060448201526064016105f4565b600080866001600160a01b03168587604051612ce39190614165565b60006040518083038185875af1925050503d8060008114612d20576040519150601f19603f3d011682016040523d82523d6000602084013e612d25565b606091505b5091509150612d35828286612d40565b979650505050505050565b60608315612d4f575081612976565b825115612d5f5782518084602001fd5b8160405162461bcd60e51b81526004016105f49190614181565b600060208284031215612d8b57600080fd5b5035919050565b600060808284031215612da457600080fd5b50919050565b60008060408385031215612dbd57600080fd5b82356001600160401b0380821115612dd457600080fd5b612de086838701612d92565b93506020850135915080821115612df657600080fd5b50830160e08186031215612e0957600080fd5b809150509250929050565b600060a08284031215612da457600080fd5b600060608284031215612da457600080fd5b600080600060608486031215612e4d57600080fd5b83356001600160401b0380821115612e6457600080fd5b612e7087838801612d92565b94506020860135915080821115612e8657600080fd5b612e9287838801612e14565b93506040860135915080821115612ea857600080fd5b50612eb586828701612e26565b9150509250925092565b6001600160a01b038116811461209a57600080fd5b80356113ba81612ebf565b600060208284031215612ef157600080fd5b813561297681612ebf565b634e487b7160e01b600052604160045260246000fd5b60405161010081016001600160401b0381118282101715612f3557612f35612efc565b60405290565b604051606081016001600160401b0381118282101715612f3557612f35612efc565b60405160a081016001600160401b0381118282101715612f3557612f35612efc565b604051601f8201601f191681016001600160401b0381118282101715612fa757612fa7612efc565b604052919050565b60006001600160401b03821115612fc857612fc8612efc565b5060051b60200190565b803560ff811681146113ba57600080fd5b600082601f830112612ff457600080fd5b81356001600160401b0381111561300d5761300d612efc565b613020601f8201601f1916602001612f7f565b81815284602083860101111561303557600080fd5b816020850160208301376000918101602001919091529392505050565b6000610100828403121561306557600080fd5b61306d612f12565b905061307882612ed4565b815261308660208301612ed4565b6020820152604082013560408201526130a160608301612fd2565b60608201526080820135608082015260a082013560a082015260c082013560c082015260e08201356001600160401b038111156130dd57600080fd5b6130e984828501612fe3565b60e08301525092915050565b6000602080838503121561310857600080fd5b82356001600160401b038082111561311f57600080fd5b818501915085601f83011261313357600080fd5b813561314661314182612faf565b612f7f565b81815260059190911b8301840190848101908883111561316557600080fd5b8585015b838110156131ee578035858111156131815760008081fd5b86016060818c03601f19018113156131995760008081fd5b6131a1612f3b565b898301356131ae81612ebf565b81526040838101358b8301529183013591888311156131cd5760008081fd5b6131db8e8c85870101613052565b9082015285525050918601918601613169565b5098975050505050505050565b600082601f83011261320c57600080fd5b8135602061321c61314183612faf565b82815260059290921b8401810191818101908684111561323b57600080fd5b8286015b8481101561325f57803561325281612ebf565b835291830191830161323f565b509695505050505050565b600082601f83011261327b57600080fd5b8135602061328b61314183612faf565b82815260059290921b840181019181810190868411156132aa57600080fd5b8286015b8481101561325f57803583529183019183016132ae565b600082601f8301126132d657600080fd5b813560206132e661314183612faf565b82815260059290921b8401810191818101908684111561330557600080fd5b8286015b8481101561325f5780356001600160401b038111156133285760008081fd5b6133368986838b0101612fe3565b845250918301918301613309565b600080600080600060a0868803121561335c57600080fd5b853594506020808701356001600160401b038082111561337b57600080fd5b818901915089601f83011261338f57600080fd5b813561339d61314182612faf565b81815260059190911b8301840190848101908c8311156133bc57600080fd5b8585015b838110156133f4578035858111156133d85760008081fd5b6133e68f89838a0101612fe3565b8452509186019186016133c0565b5098505050604089013592508083111561340d57600080fd5b6134198a848b016131fb565b9550606089013592508083111561342f57600080fd5b61343b8a848b0161326a565b9450608089013592508083111561345157600080fd5b505061345f888289016132c5565b9150509295509295909350565b60008060008060008060c0878903121561348557600080fd5b86356001600160401b038082111561349c57600080fd5b6134a88a838b01612fe3565b975060208901359150808211156134be57600080fd5b6134ca8a838b01612fe3565b965060408901359550606089013591506134e382612ebf565b9093506080880135906134f582612ebf565b90925060a0880135908082111561350b57600080fd5b5061351889828a01612fe3565b9150509295509295509295565b6000806040838503121561353857600080fd5b82356001600160401b038082111561354f57600080fd5b61355b86838701612d92565b9350602085013591508082111561357157600080fd5b5061357e85828601612e14565b9150509250929050565b6000602080838503121561359b57600080fd5b82356001600160401b03808211156135b257600080fd5b818501915085601f8301126135c657600080fd5b81356135d461314182612faf565b81815260059190911b830184019084810190888311156135f357600080fd5b8585015b838110156131ee5780358581111561360e57600080fd5b8601808b0360e0601f198201121561362557600080fd5b61362d612f5d565b8983013561363a81612ebf565b8152604083013561364a81612ebf565b818b0152606083810135604083015260808401358981111561366b57600080fd5b6136798f8d83880101613052565b828401525080609f198401121561368f57600080fd5b50613698612f3b565b915060a08301356136a881612ebf565b825260c08301356136b881612ebf565b828b015260e092909201356040820152608082015283529186019186016135f7565b600080600060e084860312156136ef57600080fd5b83356001600160401b038082111561370657600080fd5b61371287838801612d92565b9450602086013591508082111561372857600080fd5b5061373586828701612e14565b9250506137458560408601612e14565b90509250925092565b60208082526029908201527f4552433230466163746f72793a2054656d706c61746520696e64657820646f656040820152681cdb9d08195e1a5cdd60ba1b606082015260800190565b6020808252601f908201527f5265656e7472616e637947756172643a207265656e7472616e742063616c6c00604082015260600190565b6000808335601e198436030181126137e557600080fd5b8301803591506001600160401b038211156137ff57600080fd5b60200191503681900382131561381457600080fd5b9250929050565b60006020828403121561382d57600080fd5b61297682612fd2565b6000808335601e1984360301811261384d57600080fd5b8301803591506001600160401b0382111561386757600080fd5b6020019150600781901b360382131561381457600080fd5b81835281816020850137506000828201602090810191909152601f909101601f19169091010190565b60ff8d16815260e0602082015260006138c560e083018d8f61387f565b6040838203818501526138d9828d8f61387f565b91506060848303818601526138ef838c8e61387f565b9250608085840381870152613905848b8d61387f565b60a087018a905286810360c088015287815288945060200160005b8881101561397257853561393381612ebf565b6001600160a01b0316825260ff61394c60208801612fd2565b166020830152858501358583015283860135848301529482019490820190600101613920565b5080955050505050509d9c50505050505050505050505050565b6020808252818101527f4f776e61626c653a2063616c6c6572206973206e6f7420746865206f776e6572604082015260600190565b6000808335601e198436030181126139d857600080fd5b8301803591506001600160401b038211156139f257600080fd5b6020019150600581901b360382131561381457600080fd5b634e487b7160e01b600052603260045260246000fd5b6000808335601e19843603018112613a3757600080fd5b83016020810192503590506001600160401b03811115613a5657600080fd5b80360383131561381457600080fd5b8183526000602080850194508260005b85811015613aa3578135613a8881612ebf565b6001600160a01b031687529582019590820190600101613a75565b509495945050505050565b81835260006001600160fb1b03831115613ac757600080fd5b8260051b8083602087013760009401602001938452509192915050565b81835260006020808501808196508560051b810191508460005b87811015613b34578284038952613b158288613a20565b613b2086828461387f565b9a87019a9550505090840190600101613afe565b5091979650505050505050565b89815260a0602082018190528101889052600060c060058a901b830181019083018b835b8c811015613ba25785840360bf19018352613b80828f613a20565b613b8b86828461387f565b955050506020928301929190910190600101613b65565b5050508281036040840152613bb881898b613a65565b90508281036060840152613bcd818789613aae565b90508281036080840152613be2818587613ae4565b9c9b505050505050505050505050565b600060208284031215613c0457600080fd5b815161297681612ebf565b606081526000613c2360608301888a613aae565b8281036020840152613c36818789613aae565b90508281036040840152613c4b818587613a65565b9998505050505050505050565b60005b83811015613c73578181015183820152602001613c5b565b838111156125675750506000910152565b60008151808452613c9c816020860160208601613c58565b601f01601f19169290920160200192915050565b600061010060018060a01b03808451168552806020850151166020860152506040830151604085015260ff60608401511660608501526080830151608085015260a083015160a085015260c083015160c085015260e08301518160e0860152613d1b82860182613c84565b95945050505050565b828152604060208201526000612c106040830184613cb0565b634e487b7160e01b600052601160045260246000fd5b6000600019821415613d6757613d67613d3d565b5060010190565b6020808252602c908201527f4552433732314454466163746f72793a2054656d706c61746520696e6465782060408201526b191bd95cdb9d08195e1a5cdd60a21b606082015260800190565b600060018060a01b03808a16835260e06020840152613ddc60e084018a613c84565b8381036040850152613dee818a613c84565b90508188166060850152818716608085015281861660a085015283810360c0850152613e1a8186613c84565b9b9a5050505050505050505050565b801515811461209a57600080fd5b600060208284031215613e4957600080fd5b815161297681613e29565b608081526000613e676080830187613c84565b6001600160a01b03861660208401528281036040840152613e888186613c84565b90508281036060840152612d358185613c84565b60008219821115613eaf57613eaf613d3d565b500190565b600080600060608486031215613ec957600080fd5b8351613ed481612ebf565b6020850151909350613ee581612ebf565b80925050604084015190509250925092565b600060018060a01b03808716835285602084015260c06040840152613f1f60c0840186613cb0565b915080845116606084015280602085015116608084015250604083015160a083015295945050505050565b6001600160a01b0386168152606060208201819052600090613f6f9083018688613a65565b8281036040840152613f82818587613aae565b98975050505050505050565b600060208284031215613fa057600080fd5b5051919050565b600060208284031215613fb957600080fd5b813561297681613e29565b608081526000613fd76080830187613c84565b8281036020840152613fe98187613c84565b604084019590955250506001600160a01b039190911660609091015292915050565b600081518084526020808501945080840160005b83811015613aa35781516001600160a01b03168752958201959082019060010161401f565b600081518084526020808501945080840160005b83811015613aa357815187529582019590820190600101614058565b600081518084526020808501808196508360051b8101915082860160005b85811015613b345782840389526140aa848351613c84565b98850198935090840190600101614092565b600060a0820160a0835280885180835260c08501915060c08160051b86010192506020808b0160005b838110156141135760bf19888703018552614101868351613c84565b955093820193908201906001016140e5565b505085840381870152505050614129818861400b565b9050828103604084015261413d818761400b565b905082810360608401526141518186614044565b90508281036080840152613f828185614074565b60008251614177818460208701613c58565b9190910192915050565b6020815260006129766020830184613c8456fea2646970667358221220d072acc552c800591523193f1e22f81ef6580ef034ffc2d6490b5b4f5e174cf164736f6c634300080a00334f776e61626c653a2063616c6c6572206973206e6f7420746865206f776e6572",
  "linkReferences": {},
  "deployedLinkReferences": {}
}