{
  "_format": "hh-sol-artifact-1",
  "contractName": "Deployer",
  "sourceName": "contracts/utils/Deployer.sol",
  "abi": [
    {
      "anonymous": false,
      "inputs": [
        {
          "indexed": false,
          "internalType": "address",
          "name": "instance",
          "type": "address"
        }
      ],
      "name": "InstanceDeployed",
      "type": "event"
    },
    {
      "inputs": [
        {
          "internalType": "bytes32",
          "name": "c__0x0033c005",
          "type": "bytes32"
        }
      ],
      "name": "c_0x0033c005",
      "outputs": [],
      "stateMutability": "pure",
      "type": "function"
    }
  ],
  "bytecode": "0x608060405234801561001057600080fd5b5060d58061001f6000396000f3fe6080604052348015600f57600080fd5b506004361060285760003560e01c806390c7845914602d575b600080fd5b60436004803603810190603f9190605b565b6045565b005b50565b600081359050605581608b565b92915050565b600060208284031215606c57600080fd5b60006078848285016048565b91505092915050565b6000819050919050565b6092816081565b8114609c57600080fd5b5056fea264697066735822122095c2450ef2ac5216dba8fb51c94882f5c6a2a71f73f3682abc2338c3c85946d164736f6c63430008000033",
  "linkReferences": {},
  "deployedLinkReferences": {}
}