{
  "_format": "hh-sol-artifact-1",
  "contractName": "Dispenser",
  "sourceName": "contracts/v3/Dispenser.sol",
  "abi": [
    {
      "constant": false,
      "inputs": [
        {
          "name": "datatoken",
          "type": "address"
        }
      ],
      "name": "removeMinter",
      "outputs": [],
      "payable": false,
      "stateMutability": "nonpayable",
      "type": "function"
    },
    {
      "constant": true,
      "inputs": [
        {
          "name": "",
          "type": "uint256"
        }
      ],
      "name": "datatokensList",
      "outputs": [
        {
          "name": "",
          "type": "address"
        }
      ],
      "payable": false,
      "stateMutability": "view",
      "type": "function"
    },
    {
      "constant": false,
      "inputs": [
        {
          "name": "datatoken",
          "type": "address"
        }
      ],
      "name": "deactivate",
      "outputs": [],
      "payable": false,
      "stateMutability": "nonpayable",
      "type": "function"
    },
    {
      "constant": true,
      "inputs": [
        {
          "name": "datatoken",
          "type": "address"
        }
      ],
      "name": "status",
      "outputs": [
        {
          "name": "active",
          "type": "bool"
        },
        {
          "name": "owner",
          "type": "address"
        },
        {
          "name": "minterApproved",
          "type": "bool"
        },
        {
          "name": "isTrueMinter",
          "type": "bool"
        },
        {
          "name": "maxTokens",
          "type": "uint256"
        },
        {
          "name": "maxBalance",
          "type": "uint256"
        },
        {
          "name": "balance",
          "type": "uint256"
        }
      ],
      "payable": false,
      "stateMutability": "view",
      "type": "function"
    },
    {
      "constant": false,
      "inputs": [
        {
          "name": "datatoken",
          "type": "address"
        },
        {
          "name": "maxTokens",
          "type": "uint256"
        },
        {
          "name": "maxBalance",
          "type": "uint256"
        }
      ],
      "name": "activate",
      "outputs": [],
      "payable": false,
      "stateMutability": "nonpayable",
      "type": "function"
    },
    {
      "constant": false,
      "inputs": [
        {
          "name": "datatoken",
          "type": "address"
        },
        {
          "name": "amount",
          "type": "uint256"
        }
      ],
      "name": "dispense",
      "outputs": [],
      "payable": true,
      "stateMutability": "payable",
      "type": "function"
    },
    {
      "constant": false,
      "inputs": [
        {
          "name": "datatoken",
          "type": "address"
        }
      ],
      "name": "acceptMinter",
      "outputs": [],
      "payable": false,
      "stateMutability": "nonpayable",
      "type": "function"
    },
    {
      "constant": false,
      "inputs": [
        {
          "name": "datatoken",
          "type": "address"
        }
      ],
      "name": "ownerWithdraw",
      "outputs": [],
      "payable": false,
      "stateMutability": "nonpayable",
      "type": "function"
    },
    {
      "inputs": [],
      "payable": false,
      "stateMutability": "nonpayable",
      "type": "constructor"
    },
    {
      "payable": true,
      "stateMutability": "payable",
      "type": "fallback"
    },
    {
      "anonymous": false,
      "inputs": [
        {
          "indexed": true,
          "name": "datatokenAddress",
          "type": "address"
        }
      ],
      "name": "Activated",
      "type": "event"
    },
    {
      "anonymous": false,
      "inputs": [
        {
          "indexed": true,
          "name": "datatokenAddress",
          "type": "address"
        }
      ],
      "name": "Deactivated",
      "type": "event"
    },
    {
      "anonymous": false,
      "inputs": [
        {
          "indexed": true,
          "name": "datatokenAddress",
          "type": "address"
        }
      ],
      "name": "AcceptedMinter",
      "type": "event"
    },
    {
      "anonymous": false,
      "inputs": [
        {
          "indexed": true,
          "name": "datatokenAddress",
          "type": "address"
        }
      ],
      "name": "RemovedMinter",
      "type": "event"
    },
    {
      "anonymous": false,
      "inputs": [
        {
          "indexed": true,
          "name": "datatokenAddress",
          "type": "address"
        },
        {
          "indexed": true,
          "name": "userAddress",
          "type": "address"
        },
        {
          "indexed": false,
          "name": "amount",
          "type": "uint256"
        }
      ],
      "name": "TokensDispensed",
      "type": "event"
    },
    {
      "anonymous": false,
      "inputs": [
        {
          "indexed": true,
          "name": "datatoken",
          "type": "address"
        },
        {
          "indexed": true,
          "name": "owner",
          "type": "address"
        },
        {
          "indexed": false,
          "name": "amount",
          "type": "uint256"
        }
      ],
      "name": "OwnerWithdrawed",
      "type": "event"
    }
  ],
  "bytecode": "0x608060405234801561001057600080fd5b50611395806100206000396000f3fe60806040526004361061007b5760003560e01c8063938d71d01161004e578063938d71d01461019e578063bef54a5e146101dd578063efa0ac4314610209578063f9bfaa7d1461023c5761007b565b80633092afd51461007d5780633398086a146100b05780633ea053eb146100f6578063645b8b1b14610129575b005b34801561008957600080fd5b5061007b600480360360208110156100a057600080fd5b50356001600160a01b031661026f565b3480156100bc57600080fd5b506100da600480360360208110156100d357600080fd5b50356104c6565b604080516001600160a01b039092168252519081900360200190f35b34801561010257600080fd5b5061007b6004803603602081101561011957600080fd5b50356001600160a01b03166104ed565b34801561013557600080fd5b5061015c6004803603602081101561014c57600080fd5b50356001600160a01b03166105f8565b6040805197151588526001600160a01b039096166020880152931515868601529115156060860152608085015260a084015260c0830152519081900360e00190f35b3480156101aa57600080fd5b5061007b600480360360608110156101c157600080fd5b506001600160a01b038135169060208101359060400135610789565b61007b600480360360408110156101f357600080fd5b506001600160a01b0381351690602001356109e0565b34801561021557600080fd5b5061007b6004803603602081101561022c57600080fd5b50356001600160a01b0316610f5a565b34801561024857600080fd5b5061007b6004803603602081101561025f57600080fd5b50356001600160a01b031661111d565b6001600160a01b0381166102bb5760408051600160e51b62461bcd02815260206004820152601e602482015260008051602061134a833981519152604482015290519081900360640190fd5b6001600160a01b0381811660009081526020819052604090205461010090041633146103315760408051600160e51b62461bcd02815260206004820152601b60248201527f44617461546f6b656e20616c7265616479206163746976617465640000000000604482015290519081900360640190fd5b60408051600160e11b6355138f0d028152306004820152905182916001600160a01b0383169163aa271e1a91602480820192602092909190829003018186803b15801561037d57600080fd5b505afa158015610391573d6000803e3d6000fd5b505050506040513d60208110156103a757600080fd5b50516103fd5760408051600160e51b62461bcd02815260206004820152601e60248201527f4552523a2043616e6e6f7420616363657074206d696e74657220726f6c650000604482015290519081900360640190fd5b6001600160a01b03828116600090815260208190526040808220548151600160e21b631434bf31028152610100909104841660048201529051928416926350d2fcc49260248084019391929182900301818387803b15801561045e57600080fd5b505af1158015610472573d6000803e3d6000fd5b505050506001600160a01b0382166000818152602081905260408082208054600160a81b60ff0219169055517fc93cfdd5d8f442c448a02ed11ccff64355643272c9f2be94b723f2181af1a8969190a25050565b600181815481106104d357fe5b6000918252602090912001546001600160a01b0316905081565b6001600160a01b0381166105395760408051600160e51b62461bcd02815260206004820152601e602482015260008051602061134a833981519152604482015290519081900360640190fd5b6001600160a01b0381811660009081526020819052604090205461010090041633146105af5760408051600160e51b62461bcd02815260206004820152601b60248201527f44617461546f6b656e20616c7265616479206163746976617465640000000000604482015290519081900360640190fd5b6001600160a01b038116600081815260208190526040808220805460ff19169055517f749cb6b4c510bc468cf6b9c2086d6f0a54d6b18e25d37bf3200e68eab0880c009190a250565b60008080808080806001600160a01b03881661064c5760408051600160e51b62461bcd02815260206004820152601e602482015260008051602061134a833981519152604482015290519081900360640190fd5b6001600160a01b0380891660008181526020818152604091829020805460018201546002909201548451600160e01b6370a08231028152306004820152945160ff8084169f5061010084049098169d50600160a81b9092049096169a509097509395508b936370a08231926024808201939291829003018186803b1580156106d357600080fd5b505afa1580156106e7573d6000803e3d6000fd5b505050506040513d60208110156106fd57600080fd5b505160408051600160e11b6355138f0d02815230600482015290519193506001600160a01b0383169163aa271e1a91602480820192602092909190829003018186803b15801561074c57600080fd5b505afa158015610760573d6000803e3d6000fd5b505050506040513d602081101561077657600080fd5b5051979996985094969592945090925090565b6001600160a01b0383166107d55760408051600160e51b62461bcd02815260206004820152601e602482015260008051602061134a833981519152604482015290519081900360640190fd5b6001600160a01b03838116600090815260208190526040902054610100900416158061081f57506001600160a01b0383811660009081526020819052604090205461010090041633145b6108735760408051600160e51b62461bcd02815260206004820152601b60248201527f44617461546f6b656e20616c7265616479206163746976617465640000000000604482015290519081900360640190fd5b60408051600160e11b6355138f0d028152336004820152905184916001600160a01b0383169163aa271e1a91602480820192602092909190829003018186803b1580156108bf57600080fd5b505afa1580156108d3573d6000803e3d6000fd5b505050506040513d60208110156108e957600080fd5b505161092957604051600160e51b62461bcd0281526004018080602001828103825260248152602001806113266024913960400191505060405180910390fd5b6001600160a01b038416600081815260208190526040808220805460018083018990556002830188905560ff199091168117610100600160a81b031916610100330217600160a81b60ff021916909155805480820182559083527fb10e2d527612073b26eecdfd717e6a320cf44b4afac2b0732d9fcbe2b7fa0cf60180546001600160a01b03191684179055517f0cc43938d137e7efade6a531f663e78c1fc75257b0d65ffda2fdaf70cb49cdf99190a250505050565b6001600160a01b038216610a2c5760408051600160e51b62461bcd02815260206004820152601e602482015260008051602061134a833981519152604482015290519081900360640190fd5b6001600160a01b03821660009081526020819052604090205460ff161515600114610aa15760408051600160e51b62461bcd02815260206004820152601460248201527f44697370656e736572206e6f7420616374697665000000000000000000000000604482015290519081900360640190fd5b60008111610af95760408051600160e51b62461bcd02815260206004820152601360248201527f496e76616c6964207a65726f20616d6f756e7400000000000000000000000000604482015290519081900360640190fd5b6001600160a01b038216600090815260208190526040902060010154811115610b6c5760408051600160e51b62461bcd02815260206004820152600f60248201527f416d6f756e7420746f6f20686967680000000000000000000000000000000000604482015290519081900360640190fd5b60408051600160e01b6370a08231028152336004820152905183916000916001600160a01b038416916370a08231916024808301926020929190829003018186803b158015610bba57600080fd5b505afa158015610bce573d6000803e3d6000fd5b505050506040513d6020811015610be457600080fd5b50516001600160a01b0385166000908152602081905260409020600201549091508110610c5b5760408051600160e51b62461bcd02815260206004820152601760248201527f43616c6c65722062616c616e636520746f6f2068696768000000000000000000604482015290519081900360640190fd5b60408051600160e01b6370a0823102815230600482015290516000916001600160a01b038516916370a0823191602480820192602092909190829003018186803b158015610ca857600080fd5b505afa158015610cbc573d6000803e3d6000fd5b505050506040513d6020811015610cd257600080fd5b505190508381108015610d56575060408051600160e11b6355138f0d02815230600482015290516001600160a01b0385169163aa271e1a916024808301926020929190829003018186803b158015610d2957600080fd5b505afa158015610d3d573d6000803e3d6000fd5b505050506040513d6020811015610d5357600080fd5b50515b15610e3d5760408051600160e01b6340c10f19028152306004820152828603602482015290516001600160a01b038516916340c10f1991604480830192600092919082900301818387803b158015610dad57600080fd5b505af1158015610dc1573d6000803e3d6000fd5b505060408051600160e01b6370a0823102815230600482015290516001600160a01b03871693506370a0823192506024808301926020929190829003018186803b158015610e0e57600080fd5b505afa158015610e22573d6000803e3d6000fd5b505050506040513d6020811015610e3857600080fd5b505190505b83811015610e955760408051600160e51b62461bcd02815260206004820152601360248201527f4e6f7420656e6f75676820726573657276657300000000000000000000000000604482015290519081900360640190fd5b60408051600160e01b63a9059cbb0281523360048201526024810186905290516001600160a01b0385169163a9059cbb9160448083019260209291908290030181600087803b158015610ee757600080fd5b505af1158015610efb573d6000803e3d6000fd5b505050506040513d6020811015610f1157600080fd5b505060408051858152905133916001600160a01b038816917f63e223ff524bd93d4cbff98ef34405b39f63ded87f5a8d85e39ccda966f135439181900360200190a35050505050565b6001600160a01b038116610fa65760408051600160e51b62461bcd02815260206004820152601e602482015260008051602061134a833981519152604482015290519081900360640190fd5b6000819050806001600160a01b031663eb40024b6040518163ffffffff1660e01b8152600401600060405180830381600087803b158015610fe657600080fd5b505af1158015610ffa573d6000803e3d6000fd5b505060408051600160e11b6355138f0d02815230600482015290516001600160a01b038516935063aa271e1a92506024808301926020929190829003018186803b15801561104757600080fd5b505afa15801561105b573d6000803e3d6000fd5b505050506040513d602081101561107157600080fd5b50516110c75760408051600160e51b62461bcd02815260206004820152601e60248201527f4552523a2043616e6e6f7420616363657074206d696e74657220726f6c650000604482015290519081900360640190fd5b6001600160a01b0382166000818152602081905260408082208054600160a81b60ff021916600160a81b179055517ffef43e73eccfaf6e7c8c743baaa69fc51e375d972142bee1ffa6ee98f28339e99190a25050565b6001600160a01b0381166111695760408051600160e51b62461bcd02815260206004820152601e602482015260008051602061134a833981519152604482015290519081900360640190fd5b6001600160a01b0381811660009081526020819052604090205461010090041633146111df5760408051600160e51b62461bcd02815260206004820152600d60248201527f496e76616c6964206f776e657200000000000000000000000000000000000000604482015290519081900360640190fd5b60408051600160e01b6370a08231028152306004820152905182916000916001600160a01b038416916370a08231916024808301926020929190829003018186803b15801561122d57600080fd5b505afa158015611241573d6000803e3d6000fd5b505050506040513d602081101561125757600080fd5b5051905080156113205760408051600160e01b63a9059cbb0281523360048201526024810183905290516001600160a01b0384169163a9059cbb9160448083019260209291908290030181600087803b1580156112b357600080fd5b505af11580156112c7573d6000803e3d6000fd5b505050506040513d60208110156112dd57600080fd5b505060408051828152905133916001600160a01b038616917f03185212530fcdce6b38fbf62ed27ab29b1b047f59b76b17401388a70a95f41b9181900360200190a35b50505056fe53656e64657220646f6573206e6f74206861766520746865206d696e74657220726f6c65496e76616c696420746f6b656e20636f6e747261637420616464726573730000a165627a7a72305820988451565714aadb13ca539df304587cb31d16de2cc45663e6b12ff1170460ed0029",
  "linkReferences": {},
  "deployedLinkReferences": {}
}