{
  "_format": "hh-sol-artifact-1",
  "contractName": "Dispenser",
  "sourceName": "contracts/v3/Dispenser.sol",
  "abi": [
    {
      "constant": false,
      "inputs": [
        {
          "name": "datatoken",
          "type": "address"
        }
      ],
      "name": "removeMinter",
      "outputs": [],
      "payable": false,
      "stateMutability": "nonpayable",
      "type": "function"
    },
    {
      "constant": true,
      "inputs": [
        {
          "name": "",
          "type": "uint256"
        }
      ],
      "name": "datatokensList",
      "outputs": [
        {
          "name": "",
          "type": "address"
        }
      ],
      "payable": false,
      "stateMutability": "view",
      "type": "function"
    },
    {
      "constant": false,
      "inputs": [
        {
          "name": "datatoken",
          "type": "address"
        }
      ],
      "name": "deactivate",
      "outputs": [],
      "payable": false,
      "stateMutability": "nonpayable",
      "type": "function"
    },
    {
      "constant": true,
      "inputs": [
        {
          "name": "c__0x05200f29",
          "type": "bytes32"
        }
      ],
      "name": "c_0x05200f29",
      "outputs": [],
      "payable": false,
      "stateMutability": "pure",
      "type": "function"
    },
    {
      "constant": true,
      "inputs": [
        {
          "name": "datatoken",
          "type": "address"
        }
      ],
      "name": "status",
      "outputs": [
        {
          "name": "active",
          "type": "bool"
        },
        {
          "name": "owner",
          "type": "address"
        },
        {
          "name": "minterApproved",
          "type": "bool"
        },
        {
          "name": "isTrueMinter",
          "type": "bool"
        },
        {
          "name": "maxTokens",
          "type": "uint256"
        },
        {
          "name": "maxBalance",
          "type": "uint256"
        },
        {
          "name": "balance",
          "type": "uint256"
        }
      ],
      "payable": false,
      "stateMutability": "view",
      "type": "function"
    },
    {
      "constant": false,
      "inputs": [
        {
          "name": "datatoken",
          "type": "address"
        },
        {
          "name": "maxTokens",
          "type": "uint256"
        },
        {
          "name": "maxBalance",
          "type": "uint256"
        }
      ],
      "name": "activate",
      "outputs": [],
      "payable": false,
      "stateMutability": "nonpayable",
      "type": "function"
    },
    {
      "constant": false,
      "inputs": [
        {
          "name": "datatoken",
          "type": "address"
        },
        {
          "name": "amount",
          "type": "uint256"
        }
      ],
      "name": "dispense",
      "outputs": [],
      "payable": true,
      "stateMutability": "payable",
      "type": "function"
    },
    {
      "constant": false,
      "inputs": [
        {
          "name": "datatoken",
          "type": "address"
        }
      ],
      "name": "acceptMinter",
      "outputs": [],
      "payable": false,
      "stateMutability": "nonpayable",
      "type": "function"
    },
    {
      "constant": false,
      "inputs": [
        {
          "name": "datatoken",
          "type": "address"
        }
      ],
      "name": "ownerWithdraw",
      "outputs": [],
      "payable": false,
      "stateMutability": "nonpayable",
      "type": "function"
    },
    {
      "inputs": [],
      "payable": false,
      "stateMutability": "nonpayable",
      "type": "constructor"
    },
    {
      "payable": true,
      "stateMutability": "payable",
      "type": "fallback"
    },
    {
      "anonymous": false,
      "inputs": [
        {
          "indexed": true,
          "name": "datatokenAddress",
          "type": "address"
        }
      ],
      "name": "Activated",
      "type": "event"
    },
    {
      "anonymous": false,
      "inputs": [
        {
          "indexed": true,
          "name": "datatokenAddress",
          "type": "address"
        }
      ],
      "name": "Deactivated",
      "type": "event"
    },
    {
      "anonymous": false,
      "inputs": [
        {
          "indexed": true,
          "name": "datatokenAddress",
          "type": "address"
        }
      ],
      "name": "AcceptedMinter",
      "type": "event"
    },
    {
      "anonymous": false,
      "inputs": [
        {
          "indexed": true,
          "name": "datatokenAddress",
          "type": "address"
        }
      ],
      "name": "RemovedMinter",
      "type": "event"
    },
    {
      "anonymous": false,
      "inputs": [
        {
          "indexed": true,
          "name": "datatokenAddress",
          "type": "address"
        },
        {
          "indexed": true,
          "name": "userAddress",
          "type": "address"
        },
        {
          "indexed": false,
          "name": "amount",
          "type": "uint256"
        }
      ],
      "name": "TokensDispensed",
      "type": "event"
    },
    {
      "anonymous": false,
      "inputs": [
        {
          "indexed": true,
          "name": "datatoken",
          "type": "address"
        },
        {
          "indexed": true,
          "name": "owner",
          "type": "address"
        },
        {
          "indexed": false,
          "name": "amount",
          "type": "uint256"
        }
      ],
      "name": "OwnerWithdrawed",
      "type": "event"
    }
  ],
  "bytecode": "0x60806040523480156200001157600080fd5b50620000467f16ba9d7ed41e6aa5da53082c51b9052caff13ede1fe3806782924dc95686e60f60001b6200004c60201b60201c565b6200004f565b50565b614051806200005f6000396000f3fe6080604052600436106100865760003560e01c8063645b8b1b11610059578063645b8b1b1461020c578063938d71d0146102d3578063bef54a5e14610338578063efa0ac4314610386578063f9bfaa7d146103d757610086565b80633092afd5146100b45780633398086a146101055780633ea053eb146101805780635382042b146101d1575b6100b27fd9ccac3c9091b30d35753167df7aa517d47f576ce108702729e5f7c4bf99d85b60001b610428565b005b3480156100c057600080fd5b50610103600480360360208110156100d757600080fd5b81019080803573ffffffffffffffffffffffffffffffffffffffff16906020019092919050505061042b565b005b34801561011157600080fd5b5061013e6004803603602081101561012857600080fd5b8101908080359060200190929190505050610c34565b604051808273ffffffffffffffffffffffffffffffffffffffff1673ffffffffffffffffffffffffffffffffffffffff16815260200191505060405180910390f35b34801561018c57600080fd5b506101cf600480360360208110156101a357600080fd5b81019080803573ffffffffffffffffffffffffffffffffffffffff169060200190929190505050610c70565b005b3480156101dd57600080fd5b5061020a600480360360208110156101f457600080fd5b8101908080359060200190929190505050610428565b005b34801561021857600080fd5b5061025b6004803603602081101561022f57600080fd5b81019080803573ffffffffffffffffffffffffffffffffffffffff1690602001909291905050506110f1565b60405180881515151581526020018773ffffffffffffffffffffffffffffffffffffffff1673ffffffffffffffffffffffffffffffffffffffff168152602001861515151581526020018515151515815260200184815260200183815260200182815260200197505050505050505060405180910390f35b3480156102df57600080fd5b50610336600480360360608110156102f657600080fd5b81019080803573ffffffffffffffffffffffffffffffffffffffff169060200190929190803590602001909291908035906020019092919050505061184e565b005b6103846004803603604081101561034e57600080fd5b81019080803573ffffffffffffffffffffffffffffffffffffffff16906020019092919080359060200190929190505050612308565b005b34801561039257600080fd5b506103d5600480360360208110156103a957600080fd5b81019080803573ffffffffffffffffffffffffffffffffffffffff169060200190929190505050613304565b005b3480156103e357600080fd5b50610426600480360360208110156103fa57600080fd5b81019080803573ffffffffffffffffffffffffffffffffffffffff1690602001909291905050506138c3565b005b50565b6104577f4be6fe2602051ffdd580d4ee81ffa9fc90b049d69edc898c983eeb78e37de07060001b610428565b6104837f553e01cc5c4fb0c7f10ab77317e169a99273aa4b00cb7c354c2a0c2ab410ccf660001b610428565b6104af7fd73c0a9671307db89abc7de0e32800fdd67e48cc2bf85a71cb89368b6c2d7edc60001b610428565b6104db7fa640c805c6791c4beca846a3d89962a8a42aeafca39e0da96b1d9d7a539a58a960001b610428565b600073ffffffffffffffffffffffffffffffffffffffff168173ffffffffffffffffffffffffffffffffffffffff16141561057e576040517f08c379a000000000000000000000000000000000000000000000000000000000815260040180806020018281038252601e8152602001807f496e76616c696420746f6b656e20636f6e74726163742061646472657373000081525060200191505060405180910390fd5b6105aa7f64c9075d7e2c9e30b887f583e79c830a577ff6634fa5504328ae45b73be889cf60001b610428565b6105d67f34796467edd76d74e25672755665046ec479853e610f413900e713db905892d260001b610428565b6106027f9b1e017a442349dc3bd318aa2929f3ff3c40d73e76cfe493d75c13c885e73ab160001b610428565b61062e7f20bda0507c366702c775588f0e2bed4fb0134e103497bc068d74e340d62b4c2660001b610428565b3373ffffffffffffffffffffffffffffffffffffffff166000808373ffffffffffffffffffffffffffffffffffffffff1673ffffffffffffffffffffffffffffffffffffffff16815260200190815260200160002060000160019054906101000a900473ffffffffffffffffffffffffffffffffffffffff1673ffffffffffffffffffffffffffffffffffffffff1614610730576040517f08c379a000000000000000000000000000000000000000000000000000000000815260040180806020018281038252601b8152602001807f44617461546f6b656e20616c726561647920616374697661746564000000000081525060200191505060405180910390fd5b61075c7fc394e48ed095e2fcb0f308ac4ff54fefa6bbcba7768bb06d0ecf8defd1a6449160001b610428565b6107887f19ef626c17b35a867bd47132891bd742e6f66ffdbd6aaa2632a330473aee904260001b610428565b6107b47f5bfde33af25d03acb81025e7dd1e83189221db9445090cdfd770b47766196c2a60001b610428565b60008190506107e57f58ff7e2e02a936dc7b5ab9613b7f3c2bb686a6797b62bc93d446fa377d15348e60001b610428565b6108117f9bc9bfa5f7a2172f4ac8d5b6c06d8d6086cb0299d52337eebf2fbf361f55594360001b610428565b61083d7f6427566c82c09f0bfe219f1cd2545500828f94eba64c2f8ccb3e9f1292f6124c60001b610428565b8073ffffffffffffffffffffffffffffffffffffffff1663aa271e1a306040518263ffffffff1660e01b8152600401808273ffffffffffffffffffffffffffffffffffffffff1673ffffffffffffffffffffffffffffffffffffffff16815260200191505060206040518083038186803b1580156108ba57600080fd5b505afa1580156108ce573d6000803e3d6000fd5b505050506040513d60208110156108e457600080fd5b8101908080519060200190929190505050610967576040517f08c379a000000000000000000000000000000000000000000000000000000000815260040180806020018281038252601e8152602001807f4552523a2043616e6e6f7420616363657074206d696e74657220726f6c65000081525060200191505060405180910390fd5b6109937fdfb538fe388f1e55a3256f1bf9eef0898fe2fe0f4be82f0dca42960ceaa32f9a60001b610428565b6109bf7f144fee518b79d16792eb38dc6bd11875b45c9977cda186cd3318d876a286b37760001b610428565b6109eb7f0b0698201660efec95df6bee8a272737ea6004ee4ffc9d0478262c7ca0eb88f560001b610428565b8073ffffffffffffffffffffffffffffffffffffffff166350d2fcc46000808573ffffffffffffffffffffffffffffffffffffffff1673ffffffffffffffffffffffffffffffffffffffff16815260200190815260200160002060000160019054906101000a900473ffffffffffffffffffffffffffffffffffffffff166040518263ffffffff1660e01b8152600401808273ffffffffffffffffffffffffffffffffffffffff1673ffffffffffffffffffffffffffffffffffffffff168152602001915050600060405180830381600087803b158015610acb57600080fd5b505af1158015610adf573d6000803e3d6000fd5b50505050610b0f7fb6bdbeda8f78a9f4cbd5d3fb4fdfa2c06ce57168b14335ea845eb03f551d7bc060001b610428565b610b3b7f78d4355653d335ce7779b9698e9229919d8c3b3af7b7ee5a215bd10e3832b6b460001b610428565b60008060008473ffffffffffffffffffffffffffffffffffffffff1673ffffffffffffffffffffffffffffffffffffffff16815260200190815260200160002060000160156101000a81548160ff021916908315150217905550610bc17f02598ea5ee9aef5805671c9644bc53f782a927c884d3b8988f7d08747967029260001b610428565b610bed7f0ebdd792585e1cbd3f41c2314cc8fcb338093a40b9838e79f185c177115a3cd760001b610428565b8173ffffffffffffffffffffffffffffffffffffffff167fc93cfdd5d8f442c448a02ed11ccff64355643272c9f2be94b723f2181af1a89660405160405180910390a25050565b60018181548110610c4157fe5b906000526020600020016000915054906101000a900473ffffffffffffffffffffffffffffffffffffffff1681565b610c9c7fadde33625e49da060713b1ca1796137779e20723fb1b35f610c6d8d4610fbc4a60001b610428565b610cc87fda004ae3dca07fcc1e4005cba01664ac72291a9bc4589485f1f5041528363f2f60001b610428565b610cf47f365c649751fb497b767dcc0ffbf91f995d50434c4946a28f8a7579193df2f48460001b610428565b610d207fd5abad0c18e049273bf66dd2c068d763a8161a4868afd6bdf146548a17a14a6660001b610428565b600073ffffffffffffffffffffffffffffffffffffffff168173ffffffffffffffffffffffffffffffffffffffff161415610dc3576040517f08c379a000000000000000000000000000000000000000000000000000000000815260040180806020018281038252601e8152602001807f496e76616c696420746f6b656e20636f6e74726163742061646472657373000081525060200191505060405180910390fd5b610def7f6f1d0cda8b07cdaf74ada3b071725a40e0e13b1fafcafa811e169ad86af9ffcc60001b610428565b610e1b7ffcaa4504e2578e5d1ec8e4e7f1ab90bcaa100c1e832eef889d5bdaf07af7aecb60001b610428565b610e477fe46b77809f26b854a479303011cc8d446ba6f2efb90ed8a4d17fd457d19f985660001b610428565b610e737f4f5683433ec369be7aa291d2cc8eb34e7b861cc66f3cbe8425bb05f589ede69060001b610428565b3373ffffffffffffffffffffffffffffffffffffffff166000808373ffffffffffffffffffffffffffffffffffffffff1673ffffffffffffffffffffffffffffffffffffffff16815260200190815260200160002060000160019054906101000a900473ffffffffffffffffffffffffffffffffffffffff1673ffffffffffffffffffffffffffffffffffffffff1614610f75576040517f08c379a000000000000000000000000000000000000000000000000000000000815260040180806020018281038252601b8152602001807f44617461546f6b656e20616c726561647920616374697661746564000000000081525060200191505060405180910390fd5b610fa17f331bb77506e513d07e646e7b46e1f307e4370a4c25c7f04778e0cfdb2e6705f560001b610428565b610fcd7f013606d0611ff0b96705fbe9cc4f5278068708d0f91684c693eb264b7f60ee2160001b610428565b610ff97f2ecb842e1e4e148f4d5af62f1da07d8a44d70e60aea45ab6bfc4b032e7338a9960001b610428565b60008060008373ffffffffffffffffffffffffffffffffffffffff1673ffffffffffffffffffffffffffffffffffffffff16815260200190815260200160002060000160006101000a81548160ff02191690831515021790555061107f7f92c5a4a943358bfead1f214f0ddf4cf9e810d5fa75701969b2715f13e408ae1c60001b610428565b6110ab7fc99fbf275a81a8ea4cceddb9eef91b84e6fd168d8f8d879c44be2667cc8cc61e60001b610428565b8073ffffffffffffffffffffffffffffffffffffffff167f749cb6b4c510bc468cf6b9c2086d6f0a54d6b18e25d37bf3200e68eab0880c0060405160405180910390a250565b60008060008060008060006111287f88161fdf468cbef94e4eb50495cfac8c9b245244a66ecf1483f5b3766f554f4560001b610428565b6111547f853869b6f11c75b6ef6e6eb76a2c29c48d5b4414a932637aba14ab217dbfadfd60001b610428565b6111807fe13749d21e45620af10a893c314f1d9f321c8585db3863264b3a9df6b8e37e3260001b610428565b6111ac7fbb8ca5059f970a975c24f502dd35d27a016d7a66f97c7f9efdcb5710a68c801360001b610428565b600073ffffffffffffffffffffffffffffffffffffffff168873ffffffffffffffffffffffffffffffffffffffff16141561124f576040517f08c379a000000000000000000000000000000000000000000000000000000000815260040180806020018281038252601e8152602001807f496e76616c696420746f6b656e20636f6e74726163742061646472657373000081525060200191505060405180910390fd5b61127b7ff12e56ff4a85ae701a7d2340ace206b3661180ecf434ca89cba7c1ce64e243ef60001b610428565b6112a77f3624440b2cdaec76c89e15e3a85c7a3e54258209f547078c7ff9dcc6532f4b9260001b610428565b6112d37f6b51e5409a11f59a4b09f7b49695fddc96286f992ca966445bf95c79a287b41d60001b610428565b6000808973ffffffffffffffffffffffffffffffffffffffff1673ffffffffffffffffffffffffffffffffffffffff16815260200190815260200160002060000160009054906101000a900460ff1696506113507f4769115ec0d4fa6038b8b58f22053aea5e1ee685e51b50f39ec3658715deface60001b610428565b61137c7fb4401ca9e05b85eebe6b2b3715548347dcb0eb2c583295622a77ea2a1331874e60001b610428565b6000808973ffffffffffffffffffffffffffffffffffffffff1673ffffffffffffffffffffffffffffffffffffffff16815260200190815260200160002060000160019054906101000a900473ffffffffffffffffffffffffffffffffffffffff16955061140c7ff2fa5b66ea885df08800b756a2b5af78899a8cc899f9ccec0be6899c56f4908c60001b610428565b6114387fb29e5f4387716736500c76c57630aae3ec86caf53af69a1e6243630b4cf4f8a860001b610428565b6000808973ffffffffffffffffffffffffffffffffffffffff1673ffffffffffffffffffffffffffffffffffffffff16815260200190815260200160002060000160159054906101000a900460ff1694506114b57f34d1e549e779811b7069ff8967c517d1f6d841ff1e4d3a7e10ac21705ced57ce60001b610428565b6114e17fa80768805f987a87cb4b5954db49ff12b2da2a67be5130a5d874e20f2d252f0860001b610428565b6000808973ffffffffffffffffffffffffffffffffffffffff1673ffffffffffffffffffffffffffffffffffffffff1681526020019081526020016000206001015492506115517f5e12109fb3523da3d3133be12ed3a7d0beb29f8cbd59c1261d2547396286eff460001b610428565b61157d7f64470bcb90bab0e5327b35c4355e6d3327fba1ed9f011da1c17f689e18f6af8760001b610428565b6000808973ffffffffffffffffffffffffffffffffffffffff1673ffffffffffffffffffffffffffffffffffffffff1681526020019081526020016000206002015491506115ed7f5b465095421bc58a9b5520e79673e00257aa5bf5f70147670c94f1415f76ce2860001b610428565b6116197f0c59ed484df3e2a1b5e74dc939ffa504a6566909fe4f90266fdab0a05c78a66660001b610428565b600088905061164a7f8f14e2e3051f9160b9359d107178473ada48615b04ee75bb3ab20837e929ba8e60001b610428565b6116767f66e015866506fd782276401c2f51359107e7804e6e27b6e3a843ca6e91b648b160001b610428565b8073ffffffffffffffffffffffffffffffffffffffff166370a08231306040518263ffffffff1660e01b8152600401808273ffffffffffffffffffffffffffffffffffffffff1673ffffffffffffffffffffffffffffffffffffffff16815260200191505060206040518083038186803b1580156116f357600080fd5b505afa158015611707573d6000803e3d6000fd5b505050506040513d602081101561171d57600080fd5b8101908080519060200190929190505050915061175c7f8f3a10e095b7d3d27c2ecc5edc23750d27567df8b2788b607961bee5df3bf6d060001b610428565b6117887fa305d0597cf51c65338bc09c1eacbd19955b5856e768431e3ade8d8d1aa9882260001b610428565b8073ffffffffffffffffffffffffffffffffffffffff1663aa271e1a306040518263ffffffff1660e01b8152600401808273ffffffffffffffffffffffffffffffffffffffff1673ffffffffffffffffffffffffffffffffffffffff16815260200191505060206040518083038186803b15801561180557600080fd5b505afa158015611819573d6000803e3d6000fd5b505050506040513d602081101561182f57600080fd5b8101908080519060200190929190505050945050919395979092949650565b61187a7f9a6f879707128bb1922ded53f503a7e4defa40a001dfce549247ba9a48d42ed060001b610428565b6118a67fc8ea754bbb1e9f0e6dfe913403a34301e383a2f3c733380d273b197be737ecbf60001b610428565b6118d27fd2991cc2467ffdac4e1c18444f6d965e3be711f2d373a3c9c2fbb95018e1260160001b610428565b6118fe7fd04aee018acbe5202d136ed4894c1e514eb7ef7a3592f3564a40dbcdd37a89bf60001b610428565b600073ffffffffffffffffffffffffffffffffffffffff168373ffffffffffffffffffffffffffffffffffffffff1614156119a1576040517f08c379a000000000000000000000000000000000000000000000000000000000815260040180806020018281038252601e8152602001807f496e76616c696420746f6b656e20636f6e74726163742061646472657373000081525060200191505060405180910390fd5b6119cd7fc1cf2bd5d6d47e691396379dc64e892939275132ad28ebf7d16cb75bccd95dec60001b610428565b6119f97fac9938c01f8cd20117df5e40b7228d4936e350582e93ef98416d7d61e036067760001b610428565b611a257f730627fc24c2170ff772499af5bb07e5dcfa3ee7c4c19c2e7a609454631880d160001b610428565b611a517fa1a09f815d5312aa06413f308148535bbbb450d0f24af138f57629e34e7133f460001b610428565b600073ffffffffffffffffffffffffffffffffffffffff166000808573ffffffffffffffffffffffffffffffffffffffff1673ffffffffffffffffffffffffffffffffffffffff16815260200190815260200160002060000160019054906101000a900473ffffffffffffffffffffffffffffffffffffffff1673ffffffffffffffffffffffffffffffffffffffff161480611b7957503373ffffffffffffffffffffffffffffffffffffffff166000808573ffffffffffffffffffffffffffffffffffffffff1673ffffffffffffffffffffffffffffffffffffffff16815260200190815260200160002060000160019054906101000a900473ffffffffffffffffffffffffffffffffffffffff1673ffffffffffffffffffffffffffffffffffffffff16145b611beb576040517f08c379a000000000000000000000000000000000000000000000000000000000815260040180806020018281038252601b8152602001807f44617461546f6b656e20616c726561647920616374697661746564000000000081525060200191505060405180910390fd5b611c177f998b5d4a8ad02e29528eb1f7f0e8375b9a22d99426073c9015793965cf6ef71460001b610428565b611c437f1720e0f4cecd4346cfa5c053b7fede75e7776cbc6124869bd7ba5f011a9aee5860001b610428565b611c6f7fd6f30b2b08c7ced2c8fd27d9db6a7a503aeae529210ca8b2029a7a9bf21c333f60001b610428565b6000839050611ca07f48434454064b96bc1e5989d3e0bf9dc693e849767bf13b087822640205ce099e60001b610428565b611ccc7f38b39fc6ca5edcf6c3fe1af3f88d2d6619e7099c33647c6c8c17bfc916534b8860001b610428565b611cf87f6f39a547f1337bf87cda2e532e4182ab2c4a140d0c615fedd6b0afc583530dd060001b610428565b8073ffffffffffffffffffffffffffffffffffffffff1663aa271e1a336040518263ffffffff1660e01b8152600401808273ffffffffffffffffffffffffffffffffffffffff1673ffffffffffffffffffffffffffffffffffffffff16815260200191505060206040518083038186803b158015611d7557600080fd5b505afa158015611d89573d6000803e3d6000fd5b505050506040513d6020811015611d9f57600080fd5b8101908080519060200190929190505050611e05576040517f08c379a00000000000000000000000000000000000000000000000000000000081526004018080602001828103825260248152602001806140026024913960400191505060405180910390fd5b611e317fda59574cc4647354742ddd366c18a474e30be555f1af06b1dc29ddfcfc3711f860001b610428565b611e5d7f30c3334d9c031408435617e921639a85d77858e57987f08677ccb12838c2b17b60001b610428565b611e897f7fec309f464f4303bfd09740dc58d1b7e1c6328fe261ac07e920daff19239ea560001b610428565b60016000808673ffffffffffffffffffffffffffffffffffffffff1673ffffffffffffffffffffffffffffffffffffffff16815260200190815260200160002060000160006101000a81548160ff021916908315150217905550611f0f7f3636a94f4a1f76e3f35895cae5018ee0d956686b899b420bc61f6b1ba47c929260001b610428565b611f3b7f054a2f7c347be3821e80c79e5a3654577ece75430e74c5aa714175f1dea4597660001b610428565b336000808673ffffffffffffffffffffffffffffffffffffffff1673ffffffffffffffffffffffffffffffffffffffff16815260200190815260200160002060000160016101000a81548173ffffffffffffffffffffffffffffffffffffffff021916908373ffffffffffffffffffffffffffffffffffffffff160217905550611fe77f78b68212d86964c15e8b8d313387794dbd634c6e69a0c7eb6eec9c352e64c4e160001b610428565b6120137fc3c5e7a67fff60b01a726ce461aea5be5ae886bd97d78bc93b7852a605cf01ba60001b610428565b826000808673ffffffffffffffffffffffffffffffffffffffff1673ffffffffffffffffffffffffffffffffffffffff168152602001908152602001600020600101819055506120857f0a75c6725aa040e8a2a1389baaadfb2f87fd0c01f91483de5dcb1dd7786d147060001b610428565b6120b17f851b8929a37d5043a62254c4ee8f26cd60ee71c7a111b39cf448991a21c3e0a360001b610428565b816000808673ffffffffffffffffffffffffffffffffffffffff1673ffffffffffffffffffffffffffffffffffffffff168152602001908152602001600020600201819055506121237f10aca66a3e436fed4aa116aa599d3affff64c9ebd98206a3e593365dcc581eb060001b610428565b61214f7f0bc813228b93bf08a78d83a2f594934a605318932e2c3e59509f49482c6a452160001b610428565b60008060008673ffffffffffffffffffffffffffffffffffffffff1673ffffffffffffffffffffffffffffffffffffffff16815260200190815260200160002060000160156101000a81548160ff0219169083151502179055506121d57f0fe87ace059138b3e689332acbb11f98cfca64716ebd94abb4ef40c653325d0f60001b610428565b6122017f6f3c4e4e1d5de72d4d46a7b134bd0ad14bc8806279ab6ccaa372146606bc4bfc60001b610428565b60018490806001815401808255809150509060018203906000526020600020016000909192909190916101000a81548173ffffffffffffffffffffffffffffffffffffffff021916908373ffffffffffffffffffffffffffffffffffffffff160217905550506122937f73aedab5e9b187243e8c93521bbfd0a8757c0830a97ca2cf0563619b946f3d7360001b610428565b6122bf7fa9aa9507cdc0672a550c46ca681fc553cd7b5a4026343f28b1d50017382aa72860001b610428565b8373ffffffffffffffffffffffffffffffffffffffff167f0cc43938d137e7efade6a531f663e78c1fc75257b0d65ffda2fdaf70cb49cdf960405160405180910390a250505050565b6123347fd783a02835a8d6c2b4b3d888718cce16eaa4863aaf4c72d37ddec91f615431d460001b610428565b6123607f2d796ae31085423d75590ea974c707639ce26c99873f3f2c0c07bd26657204e960001b610428565b61238c7f09374ece5e57dbf9fe7b0ca7857a0f7a102b32b9c27b69a3b566675688fea2dd60001b610428565b6123b87f27a418a3a453632d6e95cf5272526ae4146527c7b66ff9e89ecb16bc6735dc0e60001b610428565b600073ffffffffffffffffffffffffffffffffffffffff168273ffffffffffffffffffffffffffffffffffffffff16141561245b576040517f08c379a000000000000000000000000000000000000000000000000000000000815260040180806020018281038252601e8152602001807f496e76616c696420746f6b656e20636f6e74726163742061646472657373000081525060200191505060405180910390fd5b6124867e59934c28c4608d0398433dfd710956df9c052314808e544fb35caaf3ae8fe960001b610428565b6124b27fd78cecc3ec070697b75b44dc364892319b259e2131b6ed2d18efb1a5f84b675360001b610428565b6124de7fb275675097319c96053a9b58e8559fed15280d90155cec48fa59377b96e0c3a560001b610428565b61250a7f279f228be9aa89f4e35910800be243339e236d4b6059997ed3b8daf126b9e3f360001b610428565b600115156000808473ffffffffffffffffffffffffffffffffffffffff1673ffffffffffffffffffffffffffffffffffffffff16815260200190815260200160002060000160009054906101000a900460ff161515146125d2576040517f08c379a00000000000000000000000000000000000000000000000000000000081526004018080602001828103825260148152602001807f44697370656e736572206e6f742061637469766500000000000000000000000081525060200191505060405180910390fd5b6125fe7f4a5e95f6fa4c8b5981d3a478f16a0cc96d736b6d9166d7589abc69271acd1eff60001b610428565b61262a7fa9c90fb6d48da1c8c4d752377022de7e9057fce3fd34f952ec52845e6631e67e60001b610428565b6126567fc56fa239d6ee984f27bc622be7460d6fd9c38ce2606ce318705c375f123eb8d660001b610428565b6126827f3c95e6b379311a1ce580645ef0cf0b6eb5b83c59270eeca4c626e7e56f71df3660001b610428565b600081116126f8576040517f08c379a00000000000000000000000000000000000000000000000000000000081526004018080602001828103825260138152602001807f496e76616c6964207a65726f20616d6f756e740000000000000000000000000081525060200191505060405180910390fd5b6127247f272b3ddbb4be1a89385bad4632f1ed4cfbf8ccd55fc97d8ce23edb76edcfe57b60001b610428565b6127507f108abdf2186c2639f4309d1051879db7a00ff27c5d31e246accbf9d0d57a17d160001b610428565b61277c7fb994f18c97a95269f59a0672d2c4a7daf68a8dd3c3f3f316b391801ea7aa8d5960001b610428565b6127a87f1dd3bbff2e70597fdfc53e00a6bff2b0bb7152bf280171bd72e1bc4165d8e2c160001b610428565b806000808473ffffffffffffffffffffffffffffffffffffffff1673ffffffffffffffffffffffffffffffffffffffff16815260200190815260200160002060010154101561285f576040517f08c379a000000000000000000000000000000000000000000000000000000000815260040180806020018281038252600f8152602001807f416d6f756e7420746f6f2068696768000000000000000000000000000000000081525060200191505060405180910390fd5b61288b7f426d0f738c34bc9779fb63034c47d4921ebb97a84767642451384ed44f4e8a1860001b610428565b6128b77fa2447505ce26acbaef8b68adec341b2059baef9bd44c42247fff96584957d29060001b610428565b6128e37ffe08da69256bf3edf0b8159e024b9d98cba9dbe65bd6fe1cf4affea37d17526f60001b610428565b60008290506129147fba6b4ec365bc05319ef63d06908693926d7b69a31ec9d43bced89302e3d85b6e60001b610428565b6129407feed0844cba174aa1ccab85b61d28b900c51349d03a90b238306a99d095205aa660001b610428565b60008173ffffffffffffffffffffffffffffffffffffffff166370a08231336040518263ffffffff1660e01b8152600401808273ffffffffffffffffffffffffffffffffffffffff1673ffffffffffffffffffffffffffffffffffffffff16815260200191505060206040518083038186803b1580156129bf57600080fd5b505afa1580156129d3573d6000803e3d6000fd5b505050506040513d60208110156129e957600080fd5b81019080805190602001909291905050509050612a287f278c9723810752d20cf798eab03a1931cb3a5dc937a7612c50b2bcbe613578d060001b610428565b612a547f0c9cd5743bfb6892bc17cdc0152bb319c0d65148cd21ff91c37c6f4bd11102e360001b610428565b612a807fd58bfdd77f8fb9cdf8f2a061e8b6ddb6a4066b3bc5344b519b48144336f4582960001b610428565b6000808573ffffffffffffffffffffffffffffffffffffffff1673ffffffffffffffffffffffffffffffffffffffff168152602001908152602001600020600201548110612b36576040517f08c379a00000000000000000000000000000000000000000000000000000000081526004018080602001828103825260178152602001807f43616c6c65722062616c616e636520746f6f206869676800000000000000000081525060200191505060405180910390fd5b612b627f8bce2f167032b6b9659e8df6b5ba5a9b174de051a75cb98c3c6620714233bd9260001b610428565b612b8e7f78b531a43f467f212f5ca836292c6480d45a3965f1e642a3c031141a786c011f60001b610428565b612bba7f2d1634150103e6d77c39310163faecbc0fca8afcacb96eb2c1f33301efacbef360001b610428565b60008273ffffffffffffffffffffffffffffffffffffffff166370a08231306040518263ffffffff1660e01b8152600401808273ffffffffffffffffffffffffffffffffffffffff1673ffffffffffffffffffffffffffffffffffffffff16815260200191505060206040518083038186803b158015612c3957600080fd5b505afa158015612c4d573d6000803e3d6000fd5b505050506040513d6020811015612c6357600080fd5b81019080805190602001909291905050509050612ca27fa7eac08b1e4eda5f2a5851aee5ee72340cd4874f1c8fc6bccd427550c8a8cbf960001b610428565b612cce7fd1280e309282afe43a1ba9610cbb38dd24fc98bf6325e482ea3599b79e17749060001b610428565b8381108015612d9157508273ffffffffffffffffffffffffffffffffffffffff1663aa271e1a306040518263ffffffff1660e01b8152600401808273ffffffffffffffffffffffffffffffffffffffff1673ffffffffffffffffffffffffffffffffffffffff16815260200191505060206040518083038186803b158015612d5557600080fd5b505afa158015612d69573d6000803e3d6000fd5b505050506040513d6020811015612d7f57600080fd5b81019080805190602001909291905050505b15612fd257612dc27fed7bfa78932e1f040b4ca505a741c53c926e5ed5bdc2f039dc8adf9b5d3cb6bb60001b610428565b612dee7ff138fef71748dd2d9afe542da604acbee3cdb9e62180c01f03ee099fd3f84e3260001b610428565b612e1a7f6d8152c09c96d60eb7270143f68485e39c5d99f94c04587ba9e0c758ad6c8da360001b610428565b8273ffffffffffffffffffffffffffffffffffffffff166340c10f19308387036040518363ffffffff1660e01b8152600401808373ffffffffffffffffffffffffffffffffffffffff1673ffffffffffffffffffffffffffffffffffffffff16815260200182815260200192505050600060405180830381600087803b158015612ea357600080fd5b505af1158015612eb7573d6000803e3d6000fd5b50505050612ee77fcf36f917b6a9227546c3bbd956d4e0cd1a913b58693a560a521f25f4264aac0c60001b610428565b612f137f5485765ace2657438374a9e32e365f443323ba9f637ecaf50c4238012aabd55260001b610428565b8273ffffffffffffffffffffffffffffffffffffffff166370a08231306040518263ffffffff1660e01b8152600401808273ffffffffffffffffffffffffffffffffffffffff1673ffffffffffffffffffffffffffffffffffffffff16815260200191505060206040518083038186803b158015612f9057600080fd5b505afa158015612fa4573d6000803e3d6000fd5b505050506040513d6020811015612fba57600080fd5b81019080805190602001909291905050509050612fff565b612ffe7fc5cf2a7e43de02ce264e94f774707557ea3927f2c22375c9e55eff399cba599860001b610428565b5b61302b7fc916f4918d5d38521c9c303fc26d5495ce4bd5da698ab6438c36bb689a67453c60001b610428565b6130577fee9164c9c4238a7b1f38c46f1814f6ed9dcbbc2b0ee8809f5a72c909a464572b60001b610428565b6130837fb727c3d88f62ef97ac67f927340a0099678fc6bf0ec25774133b037f0aad583760001b610428565b838110156130f9576040517f08c379a00000000000000000000000000000000000000000000000000000000081526004018080602001828103825260138152602001807f4e6f7420656e6f7567682072657365727665730000000000000000000000000081525060200191505060405180910390fd5b6131257f1a47d30d4d329cd36c435c93ad719da3b6bbdd26fbbd8c59d8876009193cf67e60001b610428565b6131517f16079f534e6ea42a8775558b5c7001e341e413570535445651c3c732168ce44660001b610428565b61317d7fc6d1d7c75194a1de7cba59d70511fbb8fcdb12f02543eb81854ebf939a4d95c360001b610428565b8273ffffffffffffffffffffffffffffffffffffffff1663a9059cbb33866040518363ffffffff1660e01b8152600401808373ffffffffffffffffffffffffffffffffffffffff1673ffffffffffffffffffffffffffffffffffffffff16815260200182815260200192505050602060405180830381600087803b15801561320457600080fd5b505af1158015613218573d6000803e3d6000fd5b505050506040513d602081101561322e57600080fd5b81019080805190602001909291905050505061326c7f2a2b5a29409ca2cd6c88308b89f3bca34f125429dd6c5cf591a6b543af567d9360001b610428565b6132987fa1a26e564e872078e4a4beb7172da37f170769c224a7c83506ad07339e76611e60001b610428565b3373ffffffffffffffffffffffffffffffffffffffff168573ffffffffffffffffffffffffffffffffffffffff167f63e223ff524bd93d4cbff98ef34405b39f63ded87f5a8d85e39ccda966f13543866040518082815260200191505060405180910390a35050505050565b6133307f6f2611550dfeaa3e8927ac95e90f2f31ddd054b2a7e6ae954b1fd4425e92b82560001b610428565b61335c7f163c078ac62642c6f0a968521a7d8e923a66a384a5154e4096668de344b28e4960001b610428565b6133887f227077db3d318c701904ab247b1c8d4f0b4010ddb016007efef7db11b4c392bd60001b610428565b6133b47fe88bec1d87341ec0d6e18ba2ce09d92a654151c1b23091955123b8955e0beb8960001b610428565b600073ffffffffffffffffffffffffffffffffffffffff168173ffffffffffffffffffffffffffffffffffffffff161415613457576040517f08c379a000000000000000000000000000000000000000000000000000000000815260040180806020018281038252601e8152602001807f496e76616c696420746f6b656e20636f6e74726163742061646472657373000081525060200191505060405180910390fd5b6134837f0f3056aae51fb3991cfe95882ac347d434a70299de5bee18050edf56b4fdcb6360001b610428565b6134af7fab6181841efecb1a489bd1b8b30bf28457fd6aab51155579d48e14a2792ef59960001b610428565b6134db7f040f745836e478fe7ab66323e1fbf08a0726f8bab9e9d71c0903ef46bd6e8b2460001b610428565b600081905061350c7f432eb7c9f11df3f9f3f6f03415a6b261b8505e041a9bdb6045e6e5541750334760001b610428565b6135387f99ce4921b91d5c7fccd08ee011a4bef0d7f18f5e3ced3ddc746903e0cd5b4e7060001b610428565b8073ffffffffffffffffffffffffffffffffffffffff1663eb40024b6040518163ffffffff1660e01b8152600401600060405180830381600087803b15801561358057600080fd5b505af1158015613594573d6000803e3d6000fd5b505050506135c47f1b0788ce4166682bd796e93fcd20a19b53f351741715d0500a3871a323b4b6ea60001b610428565b6135f07ff389831bf179e705398864a4003bfff825b7ad9bff7ca38cca74eda627a79f6960001b610428565b61361c7f17f33ea015388182b6485f3842f660859bb85278f9896ead64427deff7ffa63060001b610428565b8073ffffffffffffffffffffffffffffffffffffffff1663aa271e1a306040518263ffffffff1660e01b8152600401808273ffffffffffffffffffffffffffffffffffffffff1673ffffffffffffffffffffffffffffffffffffffff16815260200191505060206040518083038186803b15801561369957600080fd5b505afa1580156136ad573d6000803e3d6000fd5b505050506040513d60208110156136c357600080fd5b8101908080519060200190929190505050613746576040517f08c379a000000000000000000000000000000000000000000000000000000000815260040180806020018281038252601e8152602001807f4552523a2043616e6e6f7420616363657074206d696e74657220726f6c65000081525060200191505060405180910390fd5b6137727fc1e7394a90f48a7018c8a6eb6ba8da3bb7466ab0193e0b22b95f9e3dc9ba6ad060001b610428565b61379e7fc45c15ec55d356cba035f2e761ad68d2a5a305ad1d5faf8c99cd15560d6ba70d60001b610428565b6137ca7f1a195696b2fd364405df32336ba47b99c195fca9f5e4ea4502ffa2956043402c60001b610428565b60016000808473ffffffffffffffffffffffffffffffffffffffff1673ffffffffffffffffffffffffffffffffffffffff16815260200190815260200160002060000160156101000a81548160ff0219169083151502179055506138507f176dc7c3f9be27df159248caf4a833f359087cea3ba4198fedf8242b8b4b90aa60001b610428565b61387c7fc2e73a732c4675916e2c74a210e69d03dd349cbfe39178cfdf3fb25f6d8ff9d860001b610428565b8173ffffffffffffffffffffffffffffffffffffffff167ffef43e73eccfaf6e7c8c743baaa69fc51e375d972142bee1ffa6ee98f28339e960405160405180910390a25050565b6138ef7fdd0a3a642647cb1e0534f98e8437744b8e82122f99bcbcc8c7bee4ba2dfc091b60001b610428565b61391b7f2c85fc0ea2b6bd71e7c8c5dfb6f8231fbf4ea43c78379feb7c0f43cfb74926d760001b610428565b6139477fc923dbdd47495fb375cd2fbd27d6000dd6966303a8cb928be98cf357ce62186460001b610428565b6139737fcf58b792380d7a2ce6ef3eb36f55dedfacdbf3a346ef3f616022c4b151a957fe60001b610428565b600073ffffffffffffffffffffffffffffffffffffffff168173ffffffffffffffffffffffffffffffffffffffff161415613a16576040517f08c379a000000000000000000000000000000000000000000000000000000000815260040180806020018281038252601e8152602001807f496e76616c696420746f6b656e20636f6e74726163742061646472657373000081525060200191505060405180910390fd5b613a427f14bf9f26e32a8ad43d00ffbd00927b89410e29674c32d2236be309f6c947a58760001b610428565b613a6e7ffe69d33dbce69a9fd1085aa15bc0bc06a572f316cc8b37e3b14308c5870a942860001b610428565b613a9a7fabc8c68bf1fdc8bfdd5311546701d4d86f48e1ece7f0449539680463ba17371f60001b610428565b613ac67ff9c378ed6f304d067bd698a60cb3bec6dafb9a2f4af8c3e11d8ddebf3488038360001b610428565b3373ffffffffffffffffffffffffffffffffffffffff166000808373ffffffffffffffffffffffffffffffffffffffff1673ffffffffffffffffffffffffffffffffffffffff16815260200190815260200160002060000160019054906101000a900473ffffffffffffffffffffffffffffffffffffffff1673ffffffffffffffffffffffffffffffffffffffff1614613bc8576040517f08c379a000000000000000000000000000000000000000000000000000000000815260040180806020018281038252600d8152602001807f496e76616c6964206f776e65720000000000000000000000000000000000000081525060200191505060405180910390fd5b613bf47f2df8b919f1f8af428e06f98812b5bb2e97209597e2ae2aec640074c71e49395860001b610428565b613c207ff6b2e3a9a85b4c6fd59cb7fa8b245e89f87d03d0dee619be0a58842c3db8aac060001b610428565b613c4c7f92446f1fcc2220febce695175e3cf1bb00262b3fbdb67911aece918fb7351cba60001b610428565b6000819050613c7d7f3651cb5b969c63c8962834d1b938a4e532016e81a8d137e582c8e2bc7373416660001b610428565b613ca97fc87a6b60711ba8de78f1222023e83db757b870892c865754f719fccae695bd1d60001b610428565b60008173ffffffffffffffffffffffffffffffffffffffff166370a08231306040518263ffffffff1660e01b8152600401808273ffffffffffffffffffffffffffffffffffffffff1673ffffffffffffffffffffffffffffffffffffffff16815260200191505060206040518083038186803b158015613d2857600080fd5b505afa158015613d3c573d6000803e3d6000fd5b505050506040513d6020811015613d5257600080fd5b81019080805190602001909291905050509050613d917f1d2b7acdca3cefa4a7b9f1c93c368a91eaf5be97a7e4c56cb6153ced889612d860001b610428565b613dbd7f527e7555850f3cc5147c7d92ca22f43bda6cf1cc614a38e4d2fe89adc9c6686260001b610428565b6000811115613fcf57613df27fd213cebadf8d6ca088626fad82120439d33969cd2f6a1383654099246c6ce0fe60001b610428565b613e1e7fea2efa62e0a7070c8e59f69d4fe40a3a13033f9ac0137cbb4403aaf81f51b35d60001b610428565b613e4a7fcb51ee80d2dba313f654d626a78a3bf0dd0d6fdee766ac61f54fdbb377a5afd060001b610428565b8173ffffffffffffffffffffffffffffffffffffffff1663a9059cbb33836040518363ffffffff1660e01b8152600401808373ffffffffffffffffffffffffffffffffffffffff1673ffffffffffffffffffffffffffffffffffffffff16815260200182815260200192505050602060405180830381600087803b158015613ed157600080fd5b505af1158015613ee5573d6000803e3d6000fd5b505050506040513d6020811015613efb57600080fd5b810190808051906020019092919050505050613f397f5632ffec2a0184131609cf75f149a44cd7dad63085ca62fc05154606dd9df75360001b610428565b613f657f0ca24da42084e8089ba6409fe7570a472fe638336af9d4d9a2f1299f0ad6089460001b610428565b3373ffffffffffffffffffffffffffffffffffffffff168373ffffffffffffffffffffffffffffffffffffffff167f03185212530fcdce6b38fbf62ed27ab29b1b047f59b76b17401388a70a95f41b836040518082815260200191505060405180910390a3613ffc565b613ffb7fe0175ebb2782043c9c7b27c20aa1ba326398598ea971b2e0c0fce6bd679fb36e60001b610428565b5b50505056fe53656e64657220646f6573206e6f74206861766520746865206d696e74657220726f6c65a165627a7a72305820606c2ad8ab6de97b364de4a897e79cd796b6e8be1b7f4defa543fd548901955f0029",
  "linkReferences": {},
  "deployedLinkReferences": {}
}