{
  "contractName": "FeeCalculator",
  "abi": [
    {
      "constant": true,
      "inputs": [
        {
          "name": "number",
          "type": "uint256"
        }
      ],
      "name": "calculateRange",
      "outputs": [
        {
          "name": "",
          "type": "uint256"
        }
      ],
      "payable": false,
      "stateMutability": "pure",
      "type": "function"
    },
    {
      "constant": true,
      "inputs": [
        {
          "name": "tokens",
          "type": "uint256"
        },
        {
          "name": "cap",
          "type": "uint256"
        }
      ],
      "name": "calculateFee",
      "outputs": [
        {
          "name": "",
          "type": "uint256"
        }
      ],
      "payable": false,
      "stateMutability": "pure",
      "type": "function"
    }
  ],
  "bytecode": "0x608060405234801561001057600080fd5b506103ec806100206000396000f3fe608060405234801561001057600080fd5b5060043610610053576000357c01000000000000000000000000000000000000000000000000000000009004806334e731221461005857806390d3d862146100a4575b600080fd5b61008e6004803603604081101561006e57600080fd5b8101908080359060200190929190803590602001909291905050506100e6565b6040518082815260200191505060405180910390f35b6100d0600480360360208110156100ba57600080fd5b81019080803590602001909291905050506101bc565b6040518082815260200191505060405180910390f35b60008282101561015e576040517f08c379a000000000000000000000000000000000000000000000000000000000815260040180806020018281038252601a8152602001807f46656543616c63756c61746f723a20496e76616c69642063617000000000000081525060200191505060405180910390fd5b6000610169846101bc565b9050600061018261abe08361020990919063ffffffff16565b90506101b2600a6101a4610195876101bc565b8461028f90919063ffffffff16565b61028f90919063ffffffff16565b9250505092915050565b600080829050600080905060008090505b600a83106101fe576101e9600a8461028f90919063ffffffff16565b925060018201915080806001019150506101cd565b508092505050919050565b60008083141561021c5760009050610289565b600082840290508284828161022d57fe5b0414610284576040517f08c379a00000000000000000000000000000000000000000000000000000000081526004018080602001828103825260218152602001806103a06021913960400191505060405180910390fd5b809150505b92915050565b60006102d183836040518060400160405280601a81526020017f536166654d6174683a206469766973696f6e206279207a65726f0000000000008152506102d9565b905092915050565b60008083118290610385576040517f08c379a00000000000000000000000000000000000000000000000000000000081526004018080602001828103825283818151815260200191508051906020019080838360005b8381101561034a57808201518184015260208101905061032f565b50505050905090810190601f1680156103775780820380516001836020036101000a031916815260200191505b509250505060405180910390fd5b50600083858161039157fe5b04905080915050939250505056fe536166654d6174683a206d756c7469706c69636174696f6e206f766572666c6f77a165627a7a72305820bafee3ce3625dbfa81b4aaac6421a26f74972a9788dfdc6325dcb1735bc1f45e0029",
  "source": "pragma solidity ^0.5.7;\n// Copyright BigchainDB GmbH and Ocean Protocol contributors\n// SPDX-License-Identifier: (Apache-2.0 AND CC-BY-4.0)\n// Code is Apache-2.0 and docs are CC-BY-4.0\n\nimport 'openzeppelin-solidity/contracts/math/SafeMath.sol';\n\n/**\n* @title Fee Calculator Contract\n* @author Ocean Protocol Team\n*\n* @dev Implementation of Fee Calculator\n*      Fee calculator provides some helper functions\n*/\ncontract FeeCalculator {\n\n    using SafeMath for uint256;\n    uint256 constant private BASE_TX_COST = 44000;\n    uint256 constant private BASE = 10;\n    \n    /**\n     * @dev calculateRange\n     *      For a given number, calculates number of zeros.\n     * @param number input number value.\n     * @return number of zeros.\n     */\n    function calculateRange(\n        uint256 number\n    ) \n        public\n        pure\n        returns(uint256)\n    {\n        uint256 remainder = number;\n        uint256 zeros = 0;\n        for(uint256 i = 0 ; remainder >= BASE; i++){\n            remainder = remainder.div(BASE);\n            zeros += 1;\n        }\n        return zeros;\n    }\n    \n    /**\n     * @dev calculateFee\n     *      calculates the fee based on the number of minted tokens compared to\n     *      the capital\n     * @param tokens the amount of minted tokens.\n     * @param cap the capital\n     * @return fee.\n     */\n    function calculateFee(\n        uint256 tokens,\n        uint256 cap\n    )\n        public\n        pure\n        returns(uint256)\n    {\n        require(\n            cap >= tokens,\n            'FeeCalculator: Invalid cap'\n        );\n        \n        uint256 tokensRange = calculateRange(tokens);\n        uint256 tokensRangeToll = tokensRange.mul(BASE_TX_COST);\n        return tokensRangeToll.div(\n                calculateRange(cap)\n            ).div(BASE);\n    }\n}",
  "sourcePath": "/Users/ahmedali/Desktop/work/Ocean/contracts/contracts/fee/FeeCalculator.sol",
  "compiler": {
    "name": "solc",
    "version": "0.5.7+commit.6da8b019.Emscripten.clang"
  },
  "schemaVersion": "3.1.0",
  "updatedAt": "2020-06-04T10:54:53.854Z",
  "devdoc": {
    "author": "Ocean Protocol Team",
    "details": "Implementation of Fee Calculator     Fee calculator provides some helper functions",
    "methods": {
      "calculateFee(uint256,uint256)": {
        "details": "calculateFee     calculates the fee based on the number of minted tokens compared to     the capital",
        "params": {
          "cap": "the capital",
          "tokens": "the amount of minted tokens."
        },
        "return": "fee."
      },
      "calculateRange(uint256)": {
        "details": "calculateRange     For a given number, calculates number of zeros.",
        "params": {
          "number": "input number value."
        },
        "return": "number of zeros."
      }
    },
    "title": "Fee Calculator Contract"
  },
  "userdoc": {
    "methods": {}
  }
}