{
  "contractName": "FeeManager",
  "abi": [
    {
      "constant": true,
      "inputs": [
        {
          "name": "tokens",
          "type": "uint256"
        },
        {
          "name": "cap",
          "type": "uint256"
        }
      ],
      "name": "calculateFee",
      "outputs": [
        {
          "name": "",
          "type": "uint256"
        }
      ],
      "payable": false,
      "stateMutability": "pure",
      "type": "function"
    },
    {
      "constant": false,
      "inputs": [],
      "name": "renounceOwnership",
      "outputs": [],
      "payable": false,
      "stateMutability": "nonpayable",
      "type": "function"
    },
    {
      "constant": true,
      "inputs": [],
      "name": "owner",
      "outputs": [
        {
          "name": "",
          "type": "address"
        }
      ],
      "payable": false,
      "stateMutability": "view",
      "type": "function"
    },
    {
      "constant": true,
      "inputs": [],
      "name": "isOwner",
      "outputs": [
        {
          "name": "",
          "type": "bool"
        }
      ],
      "payable": false,
      "stateMutability": "view",
      "type": "function"
    },
    {
      "constant": true,
      "inputs": [
        {
          "name": "number",
          "type": "uint256"
        }
      ],
      "name": "calculateRange",
      "outputs": [
        {
          "name": "",
          "type": "uint256"
        }
      ],
      "payable": false,
      "stateMutability": "pure",
      "type": "function"
    },
    {
      "constant": false,
      "inputs": [
        {
          "name": "newOwner",
          "type": "address"
        }
      ],
      "name": "transferOwnership",
      "outputs": [],
      "payable": false,
      "stateMutability": "nonpayable",
      "type": "function"
    },
    {
      "inputs": [],
      "payable": false,
      "stateMutability": "nonpayable",
      "type": "constructor"
    },
    {
      "payable": true,
      "stateMutability": "payable",
      "type": "fallback"
    },
    {
      "anonymous": false,
      "inputs": [
        {
          "indexed": true,
          "name": "previousOwner",
          "type": "address"
        },
        {
          "indexed": true,
          "name": "newOwner",
          "type": "address"
        }
      ],
      "name": "OwnershipTransferred",
      "type": "event"
    },
    {
      "constant": false,
      "inputs": [],
      "name": "withdraw",
      "outputs": [],
      "payable": false,
      "stateMutability": "nonpayable",
      "type": "function"
    }
  ],
  "bytecode": "0x608060405234801561001057600080fd5b50600061002a6100cd640100000000026401000000009004565b9050806000806101000a81548173ffffffffffffffffffffffffffffffffffffffff021916908373ffffffffffffffffffffffffffffffffffffffff1602179055508073ffffffffffffffffffffffffffffffffffffffff16600073ffffffffffffffffffffffffffffffffffffffff167f8be0079c531659141344cd1fd0a4f28419497f9722a3daafe3b4186f6b6457e060405160405180910390a3506100d5565b600033905090565b610a61806100e46000396000f3fe60806040526004361061008d576000357c0100000000000000000000000000000000000000000000000000000000900480638da5cb5b1161006b5780638da5cb5b146101165780638f32d59b1461016d57806390d3d8621461019c578063f2fde38b146101eb5761008d565b806334e731221461008f5780633ccfd60b146100e8578063715018a6146100ff575b005b34801561009b57600080fd5b506100d2600480360360408110156100b257600080fd5b81019080803590602001909291908035906020019092919050505061023c565b6040518082815260200191505060405180910390f35b3480156100f457600080fd5b506100fd610312565b005b34801561010b57600080fd5b50610114610479565b005b34801561012257600080fd5b5061012b6105b2565b604051808273ffffffffffffffffffffffffffffffffffffffff1673ffffffffffffffffffffffffffffffffffffffff16815260200191505060405180910390f35b34801561017957600080fd5b506101826105db565b604051808215151515815260200191505060405180910390f35b3480156101a857600080fd5b506101d5600480360360208110156101bf57600080fd5b8101908080359060200190929190505050610639565b6040518082815260200191505060405180910390f35b3480156101f757600080fd5b5061023a6004803603602081101561020e57600080fd5b81019080803573ffffffffffffffffffffffffffffffffffffffff169060200190929190505050610686565b005b6000828210156102b4576040517f08c379a000000000000000000000000000000000000000000000000000000000815260040180806020018281038252601a8152602001807f46656543616c63756c61746f723a20496e76616c69642063617000000000000081525060200191505060405180910390fd5b60006102bf84610639565b905060006102d861abe08361070c90919063ffffffff16565b9050610308600a6102fa6102eb87610639565b8461079290919063ffffffff16565b61079290919063ffffffff16565b9250505092915050565b61031a6105db565b61038c576040517f08c379a00000000000000000000000000000000000000000000000000000000081526004018080602001828103825260208152602001807f4f776e61626c653a2063616c6c6572206973206e6f7420746865206f776e657281525060200191505060405180910390fd5b60003073ffffffffffffffffffffffffffffffffffffffff163111610419576040517f08c379a00000000000000000000000000000000000000000000000000000000081526004018080602001828103825260188152602001807f4665654d616e616765723a205a65726f2062616c616e6365000000000000000081525060200191505060405180910390fd5b3373ffffffffffffffffffffffffffffffffffffffff166108fc3073ffffffffffffffffffffffffffffffffffffffff16319081150290604051600060405180830381858888f19350505050158015610476573d6000803e3d6000fd5b50565b6104816105db565b6104f3576040517f08c379a00000000000000000000000000000000000000000000000000000000081526004018080602001828103825260208152602001807f4f776e61626c653a2063616c6c6572206973206e6f7420746865206f776e657281525060200191505060405180910390fd5b600073ffffffffffffffffffffffffffffffffffffffff166000809054906101000a900473ffffffffffffffffffffffffffffffffffffffff1673ffffffffffffffffffffffffffffffffffffffff167f8be0079c531659141344cd1fd0a4f28419497f9722a3daafe3b4186f6b6457e060405160405180910390a360008060006101000a81548173ffffffffffffffffffffffffffffffffffffffff021916908373ffffffffffffffffffffffffffffffffffffffff160217905550565b60008060009054906101000a900473ffffffffffffffffffffffffffffffffffffffff16905090565b60008060009054906101000a900473ffffffffffffffffffffffffffffffffffffffff1673ffffffffffffffffffffffffffffffffffffffff1661061d6107dc565b73ffffffffffffffffffffffffffffffffffffffff1614905090565b600080829050600080905060008090505b600a831061067b57610666600a8461079290919063ffffffff16565b9250600182019150808060010191505061064a565b508092505050919050565b61068e6105db565b610700576040517f08c379a00000000000000000000000000000000000000000000000000000000081526004018080602001828103825260208152602001807f4f776e61626c653a2063616c6c6572206973206e6f7420746865206f776e657281525060200191505060405180910390fd5b610709816107e4565b50565b60008083141561071f576000905061078c565b600082840290508284828161073057fe5b0414610787576040517f08c379a0000000000000000000000000000000000000000000000000000000008152600401808060200182810382526021815260200180610a156021913960400191505060405180910390fd5b809150505b92915050565b60006107d483836040518060400160405280601a81526020017f536166654d6174683a206469766973696f6e206279207a65726f000000000000815250610928565b905092915050565b600033905090565b600073ffffffffffffffffffffffffffffffffffffffff168173ffffffffffffffffffffffffffffffffffffffff16141561086a576040517f08c379a00000000000000000000000000000000000000000000000000000000081526004018080602001828103825260268152602001806109ef6026913960400191505060405180910390fd5b8073ffffffffffffffffffffffffffffffffffffffff166000809054906101000a900473ffffffffffffffffffffffffffffffffffffffff1673ffffffffffffffffffffffffffffffffffffffff167f8be0079c531659141344cd1fd0a4f28419497f9722a3daafe3b4186f6b6457e060405160405180910390a3806000806101000a81548173ffffffffffffffffffffffffffffffffffffffff021916908373ffffffffffffffffffffffffffffffffffffffff16021790555050565b600080831182906109d4576040517f08c379a00000000000000000000000000000000000000000000000000000000081526004018080602001828103825283818151815260200191508051906020019080838360005b8381101561099957808201518184015260208101905061097e565b50505050905090810190601f1680156109c65780820380516001836020036101000a031916815260200191505b509250505060405180910390fd5b5060008385816109e057fe5b04905080915050939250505056fe4f776e61626c653a206e6577206f776e657220697320746865207a65726f2061646472657373536166654d6174683a206d756c7469706c69636174696f6e206f766572666c6f77a165627a7a723058204ec902503ee15c8b4b68e869a5abdb25309c6886fb10715c352ff6d06a9a49fa0029",
  "source": "pragma solidity ^0.5.7;\n// Copyright BigchainDB GmbH and Ocean Protocol contributors\n// SPDX-License-Identifier: (Apache-2.0 AND CC-BY-4.0)\n// Code is Apache-2.0 and docs are CC-BY-4.0\n\nimport './FeeCalculator.sol';\nimport './FeeCollector.sol';\nimport 'openzeppelin-solidity/contracts/ownership/Ownable.sol';\n\n/**\n* @title Fee Manager Contract\n* @author Ocean Protocol Team\n*\n* @dev Implementation of Fee Manager\n*      manages the life cycle of the ocean service fee\n*      It inherits the fee collector and fee calcualtor\n*      in which allows charging fee, accumlating fee, and\n*      withdraw accumalted fee (only by contract owner)\n*/\ncontract FeeManager is FeeCalculator, FeeCollector, Ownable {\n    \n    constructor()\n        public\n        Ownable()\n    {\n    }\n\n    /**\n     * @dev withdraw\n     *      allows contract owner to withdraw accumlated service fee.\n     */\n    function withdraw() \n        public\n        onlyOwner\n    {\n        require(\n            address(this).balance > 0,\n            'FeeManager: Zero balance'\n        );\n        msg.sender.transfer(address(this).balance);\n    }\n}",
  "sourcePath": "/Users/ahmedali/Desktop/work/Ocean/contracts/contracts/fee/FeeManager.sol",
  "compiler": {
    "name": "solc",
    "version": "0.5.7+commit.6da8b019.Emscripten.clang"
  },
  "schemaVersion": "3.1.0",
  "updatedAt": "2020-06-04T10:57:03.976Z",
  "networkType": "ethereum",
  "devdoc": {
    "author": "Ocean Protocol Team",
    "details": "Implementation of Fee Manager     manages the life cycle of the ocean service fee     It inherits the fee collector and fee calcualtor     in which allows charging fee, accumlating fee, and     withdraw accumalted fee (only by contract owner)",
    "methods": {
      "calculateFee(uint256,uint256)": {
        "details": "calculateFee     calculates the fee based on the number of minted tokens compared to     the capital",
        "params": {
          "cap": "the capital",
          "tokens": "the amount of minted tokens."
        },
        "return": "fee."
      },
      "calculateRange(uint256)": {
        "details": "calculateRange     For a given number, calculates number of zeros.",
        "params": {
          "number": "input number value."
        },
        "return": "number of zeros."
      },
      "isOwner()": {
        "details": "Returns true if the caller is the current owner."
      },
      "owner()": {
        "details": "Returns the address of the current owner."
      },
      "renounceOwnership()": {
        "details": "Leaves the contract without owner. It will not be possible to call `onlyOwner` functions anymore. Can only be called by the current owner.     * NOTE: Renouncing ownership will leave the contract without an owner, thereby removing any functionality that is only available to the owner."
      },
      "transferOwnership(address)": {
        "details": "Transfers ownership of the contract to a new account (`newOwner`). Can only be called by the current owner."
      },
      "withdraw()": {
        "details": "withdraw     allows contract owner to withdraw accumlated service fee."
      }
    },
    "title": "Fee Manager Contract"
  },
  "userdoc": {
    "methods": {}
  }
}