{
  "_format": "hh-sol-artifact-1",
  "contractName": "ERC20Template",
  "sourceName": "contracts/templates/ERC20Template.sol",
  "abi": [
    {
      "anonymous": false,
      "inputs": [
        {
          "indexed": true,
          "internalType": "address",
          "name": "user",
          "type": "address"
        },
        {
          "indexed": true,
          "internalType": "address",
          "name": "signer",
          "type": "address"
        },
        {
          "indexed": false,
          "internalType": "uint256",
          "name": "timestamp",
          "type": "uint256"
        },
        {
          "indexed": false,
          "internalType": "uint256",
          "name": "blockNumber",
          "type": "uint256"
        }
      ],
      "name": "AddedMinter",
      "type": "event"
    },
    {
      "anonymous": false,
      "inputs": [
        {
          "indexed": true,
          "internalType": "address",
          "name": "user",
          "type": "address"
        },
        {
          "indexed": true,
          "internalType": "address",
          "name": "signer",
          "type": "address"
        },
        {
          "indexed": false,
          "internalType": "uint256",
          "name": "timestamp",
          "type": "uint256"
        },
        {
          "indexed": false,
          "internalType": "uint256",
          "name": "blockNumber",
          "type": "uint256"
        }
      ],
      "name": "AddedPaymentManager",
      "type": "event"
    },
    {
      "anonymous": false,
      "inputs": [
        {
          "indexed": true,
          "internalType": "address",
          "name": "owner",
          "type": "address"
        },
        {
          "indexed": true,
          "internalType": "address",
          "name": "spender",
          "type": "address"
        },
        {
          "indexed": false,
          "internalType": "uint256",
          "name": "value",
          "type": "uint256"
        }
      ],
      "name": "Approval",
      "type": "event"
    },
    {
      "anonymous": false,
      "inputs": [
        {
          "indexed": true,
          "internalType": "address",
          "name": "signer",
          "type": "address"
        },
        {
          "indexed": false,
          "internalType": "uint256",
          "name": "timestamp",
          "type": "uint256"
        },
        {
          "indexed": false,
          "internalType": "uint256",
          "name": "blockNumber",
          "type": "uint256"
        }
      ],
      "name": "CleanedPermissions",
      "type": "event"
    },
    {
      "anonymous": false,
      "inputs": [
        {
          "indexed": true,
          "internalType": "address",
          "name": "consumeMarketFeeAddress",
          "type": "address"
        },
        {
          "indexed": true,
          "internalType": "address",
          "name": "consumeMarketFeeToken",
          "type": "address"
        },
        {
          "indexed": false,
          "internalType": "uint256",
          "name": "consumeMarketFeeAmount",
          "type": "uint256"
        }
      ],
      "name": "ConsumeMarketFee",
      "type": "event"
    },
    {
      "anonymous": false,
      "inputs": [
        {
          "indexed": false,
          "internalType": "address",
          "name": "currentMinter",
          "type": "address"
        },
        {
          "indexed": false,
          "internalType": "address",
          "name": "newMinter",
          "type": "address"
        }
      ],
      "name": "MinterApproved",
      "type": "event"
    },
    {
      "anonymous": false,
      "inputs": [
        {
          "indexed": false,
          "internalType": "address",
          "name": "currentMinter",
          "type": "address"
        },
        {
          "indexed": false,
          "internalType": "address",
          "name": "newMinter",
          "type": "address"
        }
      ],
      "name": "MinterProposed",
      "type": "event"
    },
    {
      "anonymous": false,
      "inputs": [
        {
          "indexed": false,
          "internalType": "address",
          "name": "dispenserContract",
          "type": "address"
        }
      ],
      "name": "NewDispenser",
      "type": "event"
    },
    {
      "anonymous": false,
      "inputs": [
        {
          "indexed": false,
          "internalType": "bytes32",
          "name": "exchangeId",
          "type": "bytes32"
        },
        {
          "indexed": true,
          "internalType": "address",
          "name": "owner",
          "type": "address"
        },
        {
          "indexed": false,
          "internalType": "address",
          "name": "exchangeContract",
          "type": "address"
        },
        {
          "indexed": true,
          "internalType": "address",
          "name": "baseToken",
          "type": "address"
        }
      ],
      "name": "NewFixedRate",
      "type": "event"
    },
    {
      "anonymous": false,
      "inputs": [
        {
          "indexed": true,
          "internalType": "address",
          "name": "caller",
          "type": "address"
        },
        {
          "indexed": true,
          "internalType": "address",
          "name": "_newPaymentCollector",
          "type": "address"
        },
        {
          "indexed": false,
          "internalType": "uint256",
          "name": "timestamp",
          "type": "uint256"
        },
        {
          "indexed": false,
          "internalType": "uint256",
          "name": "blockNumber",
          "type": "uint256"
        }
      ],
      "name": "NewPaymentCollector",
      "type": "event"
    },
    {
      "anonymous": false,
      "inputs": [
        {
          "indexed": false,
          "internalType": "address",
          "name": "poolAddress",
          "type": "address"
        },
        {
          "indexed": false,
          "internalType": "address",
          "name": "ssContract",
          "type": "address"
        },
        {
          "indexed": false,
          "internalType": "address",
          "name": "baseTokenAddress",
          "type": "address"
        }
      ],
      "name": "NewPool",
      "type": "event"
    },
    {
      "anonymous": false,
      "inputs": [
        {
          "indexed": true,
          "internalType": "address",
          "name": "providerAddress",
          "type": "address"
        },
        {
          "indexed": true,
          "internalType": "address",
          "name": "consumerAddress",
          "type": "address"
        },
        {
          "indexed": false,
          "internalType": "bytes32",
          "name": "orderTxId",
          "type": "bytes32"
        },
        {
          "indexed": false,
          "internalType": "bytes",
          "name": "providerData",
          "type": "bytes"
        },
        {
          "indexed": false,
          "internalType": "bytes",
          "name": "providerSignature",
          "type": "bytes"
        },
        {
          "indexed": false,
          "internalType": "bytes",
          "name": "consumerData",
          "type": "bytes"
        },
        {
          "indexed": false,
          "internalType": "bytes",
          "name": "consumerSignature",
          "type": "bytes"
        },
        {
          "indexed": false,
          "internalType": "uint256",
          "name": "timestamp",
          "type": "uint256"
        },
        {
          "indexed": false,
          "internalType": "uint256",
          "name": "blockNumber",
          "type": "uint256"
        }
      ],
      "name": "OrderExecuted",
      "type": "event"
    },
    {
      "anonymous": false,
      "inputs": [
        {
          "indexed": false,
          "internalType": "bytes32",
          "name": "orderTxId",
          "type": "bytes32"
        },
        {
          "indexed": false,
          "internalType": "address",
          "name": "caller",
          "type": "address"
        },
        {
          "indexed": false,
          "internalType": "uint256",
          "name": "timestamp",
          "type": "uint256"
        },
        {
          "indexed": false,
          "internalType": "uint256",
          "name": "number",
          "type": "uint256"
        }
      ],
      "name": "OrderReused",
      "type": "event"
    },
    {
      "anonymous": false,
      "inputs": [
        {
          "indexed": true,
          "internalType": "address",
          "name": "consumer",
          "type": "address"
        },
        {
          "indexed": false,
          "internalType": "address",
          "name": "payer",
          "type": "address"
        },
        {
          "indexed": false,
          "internalType": "uint256",
          "name": "amount",
          "type": "uint256"
        },
        {
          "indexed": false,
          "internalType": "uint256",
          "name": "serviceIndex",
          "type": "uint256"
        },
        {
          "indexed": false,
          "internalType": "uint256",
          "name": "timestamp",
          "type": "uint256"
        },
        {
          "indexed": true,
          "internalType": "address",
          "name": "publishMarketAddress",
          "type": "address"
        },
        {
          "indexed": false,
          "internalType": "uint256",
          "name": "blockNumber",
          "type": "uint256"
        }
      ],
      "name": "OrderStarted",
      "type": "event"
    },
    {
      "anonymous": false,
      "inputs": [
        {
          "indexed": true,
          "internalType": "address",
          "name": "providerFeeAddress",
          "type": "address"
        },
        {
          "indexed": true,
          "internalType": "address",
          "name": "providerFeeToken",
          "type": "address"
        },
        {
          "indexed": false,
          "internalType": "uint256",
          "name": "providerFeeAmount",
          "type": "uint256"
        },
        {
          "indexed": false,
          "internalType": "bytes",
          "name": "providerData",
          "type": "bytes"
        },
        {
          "indexed": false,
          "internalType": "uint8",
          "name": "v",
          "type": "uint8"
        },
        {
          "indexed": false,
          "internalType": "bytes32",
          "name": "r",
          "type": "bytes32"
        },
        {
          "indexed": false,
          "internalType": "bytes32",
          "name": "s",
          "type": "bytes32"
        },
        {
          "indexed": false,
          "internalType": "uint256",
          "name": "validUntil",
          "type": "uint256"
        }
      ],
      "name": "ProviderFee",
      "type": "event"
    },
    {
      "anonymous": false,
      "inputs": [
        {
          "indexed": true,
          "internalType": "address",
          "name": "PublishMarketFeeAddress",
          "type": "address"
        },
        {
          "indexed": true,
          "internalType": "address",
          "name": "PublishMarketFeeToken",
          "type": "address"
        },
        {
          "indexed": false,
          "internalType": "uint256",
          "name": "PublishMarketFeeAmount",
          "type": "uint256"
        }
      ],
      "name": "PublishMarketFee",
      "type": "event"
    },
    {
      "anonymous": false,
      "inputs": [
        {
          "indexed": false,
          "internalType": "address",
          "name": "caller",
          "type": "address"
        },
        {
          "indexed": false,
          "internalType": "address",
          "name": "PublishMarketFeeAddress",
          "type": "address"
        },
        {
          "indexed": false,
          "internalType": "address",
          "name": "PublishMarketFeeToken",
          "type": "address"
        },
        {
          "indexed": false,
          "internalType": "uint256",
          "name": "PublishMarketFeeAmount",
          "type": "uint256"
        }
      ],
      "name": "PublishMarketFeeChanged",
      "type": "event"
    },
    {
      "anonymous": false,
      "inputs": [
        {
          "indexed": true,
          "internalType": "address",
          "name": "user",
          "type": "address"
        },
        {
          "indexed": true,
          "internalType": "address",
          "name": "signer",
          "type": "address"
        },
        {
          "indexed": false,
          "internalType": "uint256",
          "name": "timestamp",
          "type": "uint256"
        },
        {
          "indexed": false,
          "internalType": "uint256",
          "name": "blockNumber",
          "type": "uint256"
        }
      ],
      "name": "RemovedMinter",
      "type": "event"
    },
    {
      "anonymous": false,
      "inputs": [
        {
          "indexed": true,
          "internalType": "address",
          "name": "user",
          "type": "address"
        },
        {
          "indexed": true,
          "internalType": "address",
          "name": "signer",
          "type": "address"
        },
        {
          "indexed": false,
          "internalType": "uint256",
          "name": "timestamp",
          "type": "uint256"
        },
        {
          "indexed": false,
          "internalType": "uint256",
          "name": "blockNumber",
          "type": "uint256"
        }
      ],
      "name": "RemovedPaymentManager",
      "type": "event"
    },
    {
      "anonymous": false,
      "inputs": [
        {
          "indexed": true,
          "internalType": "address",
          "name": "from",
          "type": "address"
        },
        {
          "indexed": true,
          "internalType": "address",
          "name": "to",
          "type": "address"
        },
        {
          "indexed": false,
          "internalType": "uint256",
          "name": "value",
          "type": "uint256"
        }
      ],
      "name": "Transfer",
      "type": "event"
    },
    {
      "anonymous": false,
      "inputs": [
        {
          "indexed": true,
          "internalType": "address",
          "name": "datatokenAddress",
          "type": "address"
        },
        {
          "indexed": true,
          "internalType": "address",
          "name": "publisherAddress",
          "type": "address"
        },
        {
          "indexed": false,
          "internalType": "uint256",
          "name": "vestingEndBlock",
          "type": "uint256"
        },
        {
          "indexed": false,
          "internalType": "uint256",
          "name": "totalVestingAmount",
          "type": "uint256"
        }
      ],
      "name": "VestingCreated",
      "type": "event"
    },
    {
      "stateMutability": "payable",
      "type": "fallback"
    },
    {
      "inputs": [],
      "name": "BASE",
      "outputs": [
        {
          "internalType": "uint256",
          "name": "",
          "type": "uint256"
        }
      ],
      "stateMutability": "view",
      "type": "function"
    },
    {
      "inputs": [],
      "name": "DOMAIN_SEPARATOR",
      "outputs": [
        {
          "internalType": "bytes32",
          "name": "",
          "type": "bytes32"
        }
      ],
      "stateMutability": "view",
      "type": "function"
    },
    {
      "inputs": [],
      "name": "PERMIT_TYPEHASH",
      "outputs": [
        {
          "internalType": "bytes32",
          "name": "",
          "type": "bytes32"
        }
      ],
      "stateMutability": "view",
      "type": "function"
    },
    {
      "inputs": [
        {
          "internalType": "address",
          "name": "_minter",
          "type": "address"
        }
      ],
      "name": "addMinter",
      "outputs": [],
      "stateMutability": "nonpayable",
      "type": "function"
    },
    {
      "inputs": [
        {
          "internalType": "address",
          "name": "_paymentManager",
          "type": "address"
        }
      ],
      "name": "addPaymentManager",
      "outputs": [],
      "stateMutability": "nonpayable",
      "type": "function"
    },
    {
      "inputs": [
        {
          "internalType": "address",
          "name": "owner",
          "type": "address"
        },
        {
          "internalType": "address",
          "name": "spender",
          "type": "address"
        }
      ],
      "name": "allowance",
      "outputs": [
        {
          "internalType": "uint256",
          "name": "",
          "type": "uint256"
        }
      ],
      "stateMutability": "view",
      "type": "function"
    },
    {
      "inputs": [
        {
          "internalType": "address",
          "name": "spender",
          "type": "address"
        },
        {
          "internalType": "uint256",
          "name": "amount",
          "type": "uint256"
        }
      ],
      "name": "approve",
      "outputs": [
        {
          "internalType": "bool",
          "name": "",
          "type": "bool"
        }
      ],
      "stateMutability": "nonpayable",
      "type": "function"
    },
    {
      "inputs": [
        {
          "internalType": "uint256",
          "name": "",
          "type": "uint256"
        }
      ],
      "name": "authERC20",
      "outputs": [
        {
          "internalType": "address",
          "name": "",
          "type": "address"
        }
      ],
      "stateMutability": "view",
      "type": "function"
    },
    {
      "inputs": [
        {
          "internalType": "address",
          "name": "account",
          "type": "address"
        }
      ],
      "name": "balanceOf",
      "outputs": [
        {
          "internalType": "uint256",
          "name": "",
          "type": "uint256"
        }
      ],
      "stateMutability": "view",
      "type": "function"
    },
    {
      "inputs": [
        {
          "internalType": "uint256",
          "name": "amount",
          "type": "uint256"
        }
      ],
      "name": "burn",
      "outputs": [],
      "stateMutability": "nonpayable",
      "type": "function"
    },
    {
      "inputs": [
        {
          "internalType": "address",
          "name": "account",
          "type": "address"
        },
        {
          "internalType": "uint256",
          "name": "amount",
          "type": "uint256"
        }
      ],
      "name": "burnFrom",
      "outputs": [],
      "stateMutability": "nonpayable",
      "type": "function"
    },
    {
      "inputs": [],
      "name": "cap",
      "outputs": [
        {
          "internalType": "uint256",
          "name": "",
          "type": "uint256"
        }
      ],
      "stateMutability": "view",
      "type": "function"
    },
    {
      "inputs": [],
      "name": "cleanFrom721",
      "outputs": [],
      "stateMutability": "nonpayable",
      "type": "function"
    },
    {
      "inputs": [],
      "name": "cleanPermissions",
      "outputs": [],
      "stateMutability": "nonpayable",
      "type": "function"
    },
    {
      "inputs": [
        {
          "internalType": "address",
          "name": "_dispenser",
          "type": "address"
        },
        {
          "internalType": "uint256",
          "name": "maxTokens",
          "type": "uint256"
        },
        {
          "internalType": "uint256",
          "name": "maxBalance",
          "type": "uint256"
        },
        {
          "internalType": "bool",
          "name": "withMint",
          "type": "bool"
        },
        {
          "internalType": "address",
          "name": "allowedSwapper",
          "type": "address"
        }
      ],
      "name": "createDispenser",
      "outputs": [],
      "stateMutability": "nonpayable",
      "type": "function"
    },
    {
      "inputs": [
        {
          "internalType": "address",
          "name": "fixedPriceAddress",
          "type": "address"
        },
        {
          "internalType": "address[]",
          "name": "addresses",
          "type": "address[]"
        },
        {
          "internalType": "uint256[]",
          "name": "uints",
          "type": "uint256[]"
        }
      ],
      "name": "createFixedRate",
      "outputs": [
        {
          "internalType": "bytes32",
          "name": "exchangeId",
          "type": "bytes32"
        }
      ],
      "stateMutability": "nonpayable",
      "type": "function"
    },
    {
      "inputs": [],
      "name": "decimals",
      "outputs": [
        {
          "internalType": "uint8",
          "name": "",
          "type": "uint8"
        }
      ],
      "stateMutability": "pure",
      "type": "function"
    },
    {
      "inputs": [
        {
          "internalType": "address",
          "name": "spender",
          "type": "address"
        },
        {
          "internalType": "uint256",
          "name": "subtractedValue",
          "type": "uint256"
        }
      ],
      "name": "decreaseAllowance",
      "outputs": [
        {
          "internalType": "bool",
          "name": "",
          "type": "bool"
        }
      ],
      "stateMutability": "nonpayable",
      "type": "function"
    },
    {
      "inputs": [
        {
          "internalType": "uint256[]",
          "name": "ssParams",
          "type": "uint256[]"
        },
        {
          "internalType": "uint256[]",
          "name": "swapFees",
          "type": "uint256[]"
        },
        {
          "internalType": "address[]",
          "name": "addresses",
          "type": "address[]"
        }
      ],
      "name": "deployPool",
      "outputs": [
        {
          "internalType": "address",
          "name": "pool",
          "type": "address"
        }
      ],
      "stateMutability": "nonpayable",
      "type": "function"
    },
    {
      "inputs": [],
      "name": "getDispensers",
      "outputs": [
        {
          "internalType": "address[]",
          "name": "",
          "type": "address[]"
        }
      ],
      "stateMutability": "view",
      "type": "function"
    },
    {
      "inputs": [],
      "name": "getERC721Address",
      "outputs": [
        {
          "internalType": "address",
          "name": "",
          "type": "address"
        }
      ],
      "stateMutability": "view",
      "type": "function"
    },
    {
      "inputs": [],
      "name": "getFixedRates",
      "outputs": [
        {
          "components": [
            {
              "internalType": "address",
              "name": "contractAddress",
              "type": "address"
            },
            {
              "internalType": "bytes32",
              "name": "id",
              "type": "bytes32"
            }
          ],
          "internalType": "struct ERC20Template.fixedRate[]",
          "name": "",
          "type": "tuple[]"
        }
      ],
      "stateMutability": "view",
      "type": "function"
    },
    {
      "inputs": [],
      "name": "getId",
      "outputs": [
        {
          "internalType": "uint8",
          "name": "",
          "type": "uint8"
        }
      ],
      "stateMutability": "pure",
      "type": "function"
    },
    {
      "inputs": [],
      "name": "getPaymentCollector",
      "outputs": [
        {
          "internalType": "address",
          "name": "",
          "type": "address"
        }
      ],
      "stateMutability": "view",
      "type": "function"
    },
    {
      "inputs": [
        {
          "internalType": "address",
          "name": "user",
          "type": "address"
        }
      ],
      "name": "getPermissions",
      "outputs": [
        {
          "components": [
            {
              "internalType": "bool",
              "name": "minter",
              "type": "bool"
            },
            {
              "internalType": "bool",
              "name": "paymentManager",
              "type": "bool"
            }
          ],
          "internalType": "struct ERC20Roles.RolesERC20",
          "name": "",
          "type": "tuple"
        }
      ],
      "stateMutability": "view",
      "type": "function"
    },
    {
      "inputs": [],
      "name": "getPools",
      "outputs": [
        {
          "internalType": "address[]",
          "name": "",
          "type": "address[]"
        }
      ],
      "stateMutability": "view",
      "type": "function"
    },
    {
      "inputs": [],
      "name": "getPublishingMarketFee",
      "outputs": [
        {
          "internalType": "address",
          "name": "",
          "type": "address"
        },
        {
          "internalType": "address",
          "name": "",
          "type": "address"
        },
        {
          "internalType": "uint256",
          "name": "",
          "type": "uint256"
        }
      ],
      "stateMutability": "view",
      "type": "function"
    },
    {
      "inputs": [
        {
          "internalType": "address",
          "name": "spender",
          "type": "address"
        },
        {
          "internalType": "uint256",
          "name": "addedValue",
          "type": "uint256"
        }
      ],
      "name": "increaseAllowance",
      "outputs": [
        {
          "internalType": "bool",
          "name": "",
          "type": "bool"
        }
      ],
      "stateMutability": "nonpayable",
      "type": "function"
    },
    {
      "inputs": [
        {
          "internalType": "string[]",
          "name": "strings_",
          "type": "string[]"
        },
        {
          "internalType": "address[]",
          "name": "addresses_",
          "type": "address[]"
        },
        {
          "internalType": "address[]",
          "name": "factoryAddresses_",
          "type": "address[]"
        },
        {
          "internalType": "uint256[]",
          "name": "uints_",
          "type": "uint256[]"
        },
        {
          "internalType": "bytes[]",
          "name": "bytes_",
          "type": "bytes[]"
        }
      ],
      "name": "initialize",
      "outputs": [
        {
          "internalType": "bool",
          "name": "",
          "type": "bool"
        }
      ],
      "stateMutability": "nonpayable",
      "type": "function"
    },
    {
      "inputs": [
        {
          "internalType": "address",
          "name": "user",
          "type": "address"
        }
      ],
      "name": "isERC20Deployer",
      "outputs": [
        {
          "internalType": "bool",
          "name": "deployer",
          "type": "bool"
        }
      ],
      "stateMutability": "nonpayable",
      "type": "function"
    },
    {
      "inputs": [],
      "name": "isInitialized",
      "outputs": [
        {
          "internalType": "bool",
          "name": "",
          "type": "bool"
        }
      ],
      "stateMutability": "view",
      "type": "function"
    },
    {
      "inputs": [
        {
          "internalType": "address",
          "name": "account",
          "type": "address"
        }
      ],
      "name": "isMinter",
      "outputs": [
        {
          "internalType": "bool",
          "name": "",
          "type": "bool"
        }
      ],
      "stateMutability": "view",
      "type": "function"
    },
    {
      "inputs": [
        {
          "internalType": "address",
          "name": "account",
          "type": "address"
        },
        {
          "internalType": "uint256",
          "name": "value",
          "type": "uint256"
        }
      ],
      "name": "mint",
      "outputs": [],
      "stateMutability": "nonpayable",
      "type": "function"
    },
    {
      "inputs": [],
      "name": "name",
      "outputs": [
        {
          "internalType": "string",
          "name": "",
          "type": "string"
        }
      ],
      "stateMutability": "view",
      "type": "function"
    },
    {
      "inputs": [
        {
          "internalType": "address",
          "name": "",
          "type": "address"
        }
      ],
      "name": "nonces",
      "outputs": [
        {
          "internalType": "uint256",
          "name": "",
          "type": "uint256"
        }
      ],
      "stateMutability": "view",
      "type": "function"
    },
    {
      "inputs": [
        {
          "internalType": "bytes32",
          "name": "orderTxId",
          "type": "bytes32"
        },
        {
          "internalType": "bytes",
          "name": "providerData",
          "type": "bytes"
        },
        {
          "internalType": "bytes",
          "name": "providerSignature",
          "type": "bytes"
        },
        {
          "internalType": "bytes",
          "name": "consumerData",
          "type": "bytes"
        },
        {
          "internalType": "bytes",
          "name": "consumerSignature",
          "type": "bytes"
        },
        {
          "internalType": "address",
          "name": "consumerAddress",
          "type": "address"
        }
      ],
      "name": "orderExecuted",
      "outputs": [],
      "stateMutability": "nonpayable",
      "type": "function"
    },
    {
      "inputs": [
        {
          "internalType": "address",
          "name": "",
          "type": "address"
        }
      ],
      "name": "permissions",
      "outputs": [
        {
          "internalType": "bool",
          "name": "minter",
          "type": "bool"
        },
        {
          "internalType": "bool",
          "name": "paymentManager",
          "type": "bool"
        }
      ],
      "stateMutability": "view",
      "type": "function"
    },
    {
      "inputs": [
        {
          "internalType": "address",
          "name": "owner",
          "type": "address"
        },
        {
          "internalType": "address",
          "name": "spender",
          "type": "address"
        },
        {
          "internalType": "uint256",
          "name": "value",
          "type": "uint256"
        },
        {
          "internalType": "uint256",
          "name": "deadline",
          "type": "uint256"
        },
        {
          "internalType": "uint8",
          "name": "v",
          "type": "uint8"
        },
        {
          "internalType": "bytes32",
          "name": "r",
          "type": "bytes32"
        },
        {
          "internalType": "bytes32",
          "name": "s",
          "type": "bytes32"
        }
      ],
      "name": "permit",
      "outputs": [],
      "stateMutability": "nonpayable",
      "type": "function"
    },
    {
      "inputs": [
        {
          "internalType": "address",
          "name": "_minter",
          "type": "address"
        }
      ],
      "name": "removeMinter",
      "outputs": [],
      "stateMutability": "nonpayable",
      "type": "function"
    },
    {
      "inputs": [
        {
          "internalType": "address",
          "name": "_paymentManager",
          "type": "address"
        }
      ],
      "name": "removePaymentManager",
      "outputs": [],
      "stateMutability": "nonpayable",
      "type": "function"
    },
    {
      "inputs": [
        {
          "internalType": "bytes32",
          "name": "orderTxId",
          "type": "bytes32"
        },
        {
          "components": [
            {
              "internalType": "address",
              "name": "providerFeeAddress",
              "type": "address"
            },
            {
              "internalType": "address",
              "name": "providerFeeToken",
              "type": "address"
            },
            {
              "internalType": "uint256",
              "name": "providerFeeAmount",
              "type": "uint256"
            },
            {
              "internalType": "uint8",
              "name": "v",
              "type": "uint8"
            },
            {
              "internalType": "bytes32",
              "name": "r",
              "type": "bytes32"
            },
            {
              "internalType": "bytes32",
              "name": "s",
              "type": "bytes32"
            },
            {
              "internalType": "uint256",
              "name": "validUntil",
              "type": "uint256"
            },
            {
              "internalType": "bytes",
              "name": "providerData",
              "type": "bytes"
            }
          ],
          "internalType": "struct ERC20Template.providerFee",
          "name": "_providerFee",
          "type": "tuple"
        }
      ],
      "name": "reuseOrder",
      "outputs": [],
      "stateMutability": "nonpayable",
      "type": "function"
    },
    {
      "inputs": [],
      "name": "router",
      "outputs": [
        {
          "internalType": "address",
          "name": "",
          "type": "address"
        }
      ],
      "stateMutability": "view",
      "type": "function"
    },
    {
      "inputs": [
        {
          "internalType": "bytes",
          "name": "_value",
          "type": "bytes"
        }
      ],
      "name": "setData",
      "outputs": [],
      "stateMutability": "nonpayable",
      "type": "function"
    },
    {
      "inputs": [
        {
          "internalType": "address",
          "name": "_newPaymentCollector",
          "type": "address"
        }
      ],
      "name": "setPaymentCollector",
      "outputs": [],
      "stateMutability": "nonpayable",
      "type": "function"
    },
    {
      "inputs": [
        {
          "internalType": "address",
          "name": "_publishMarketFeeAddress",
          "type": "address"
        },
        {
          "internalType": "address",
          "name": "_publishMarketFeeToken",
          "type": "address"
        },
        {
          "internalType": "uint256",
          "name": "_publishMarketFeeAmount",
          "type": "uint256"
        }
      ],
      "name": "setPublishingMarketFee",
      "outputs": [],
      "stateMutability": "nonpayable",
      "type": "function"
    },
    {
      "inputs": [
        {
          "internalType": "address",
          "name": "consumer",
          "type": "address"
        },
        {
          "internalType": "uint256",
          "name": "serviceIndex",
          "type": "uint256"
        },
        {
          "components": [
            {
              "internalType": "address",
              "name": "providerFeeAddress",
              "type": "address"
            },
            {
              "internalType": "address",
              "name": "providerFeeToken",
              "type": "address"
            },
            {
              "internalType": "uint256",
              "name": "providerFeeAmount",
              "type": "uint256"
            },
            {
              "internalType": "uint8",
              "name": "v",
              "type": "uint8"
            },
            {
              "internalType": "bytes32",
              "name": "r",
              "type": "bytes32"
            },
            {
              "internalType": "bytes32",
              "name": "s",
              "type": "bytes32"
            },
            {
              "internalType": "uint256",
              "name": "validUntil",
              "type": "uint256"
            },
            {
              "internalType": "bytes",
              "name": "providerData",
              "type": "bytes"
            }
          ],
          "internalType": "struct ERC20Template.providerFee",
          "name": "_providerFee",
          "type": "tuple"
        },
        {
          "components": [
            {
              "internalType": "address",
              "name": "consumeMarketFeeAddress",
              "type": "address"
            },
            {
              "internalType": "address",
              "name": "consumeMarketFeeToken",
              "type": "address"
            },
            {
              "internalType": "uint256",
              "name": "consumeMarketFeeAmount",
              "type": "uint256"
            }
          ],
          "internalType": "struct ERC20Template.consumeMarketFee",
          "name": "_consumeMarketFee",
          "type": "tuple"
        }
      ],
      "name": "startOrder",
      "outputs": [],
      "stateMutability": "nonpayable",
      "type": "function"
    },
    {
      "inputs": [],
      "name": "symbol",
      "outputs": [
        {
          "internalType": "string",
          "name": "",
          "type": "string"
        }
      ],
      "stateMutability": "view",
      "type": "function"
    },
    {
      "inputs": [],
      "name": "totalSupply",
      "outputs": [
        {
          "internalType": "uint256",
          "name": "",
          "type": "uint256"
        }
      ],
      "stateMutability": "view",
      "type": "function"
    },
    {
      "inputs": [
        {
          "internalType": "address",
          "name": "recipient",
          "type": "address"
        },
        {
          "internalType": "uint256",
          "name": "amount",
          "type": "uint256"
        }
      ],
      "name": "transfer",
      "outputs": [
        {
          "internalType": "bool",
          "name": "",
          "type": "bool"
        }
      ],
      "stateMutability": "nonpayable",
      "type": "function"
    },
    {
      "inputs": [
        {
          "internalType": "address",
          "name": "sender",
          "type": "address"
        },
        {
          "internalType": "address",
          "name": "recipient",
          "type": "address"
        },
        {
          "internalType": "uint256",
          "name": "amount",
          "type": "uint256"
        }
      ],
      "name": "transferFrom",
      "outputs": [
        {
          "internalType": "bool",
          "name": "",
          "type": "bool"
        }
      ],
      "stateMutability": "nonpayable",
      "type": "function"
    },
    {
      "inputs": [],
      "name": "withdrawETH",
      "outputs": [],
      "stateMutability": "payable",
      "type": "function"
    }
  ],
  "bytecode": "0x6080604052600b805460ff60a01b191690553480156200001e57600080fd5b5060408051808201825260048152631d195cdd60e21b60208083019182528351808501909452600a8452691d195cdd14de5b589bdb60b21b9084015281519192916200006d9160039162000091565b5080516200008390600490602084019062000091565b505060016007555062000174565b8280546200009f9062000137565b90600052602060002090601f016020900481019282620000c357600085556200010e565b82601f10620000de57805160ff19168380011785556200010e565b828001600101855582156200010e579182015b828111156200010e578251825591602001919060010190620000f1565b506200011c92915062000120565b5090565b5b808211156200011c576000815560010162000121565b600181811c908216806200014c57607f821691505b602082108114156200016e57634e487b7160e01b600052602260045260246000fd5b50919050565b61591a80620001846000396000f3fe6080604052600436106102c55760003560e01c80635d1ca6311161017e578063a457c2d7116100d3578063d505accf1161008f578063e487c2e81161006c578063e487c2e81461099d578063ec342ad0146109b2578063ef867ff4146109ce578063f887ea40146109ee57005b8063d505accf1461092f578063dd62ed3e1461094f578063e086e5ec1461099557005b8063a457c2d714610856578063a9059cbb14610876578063aa271e1a14610896578063aa492ef9146108cf578063ab62f0e1146108ef578063b3998be01461090f57005b80637ecebe001161013a5780638b96412b116101175780638b96412b146107e157806395d89b411461080157806396fb3eaf14610816578063983b2d561461083657005b80637ecebe001461077f57806382c03da5146107ac57806389208f0f146107c157005b80635d1ca631146106be578063673a2a1f146106d257806370a08231146106e757806379cc67901461071d57806379d9d7f31461073d5780637dda231e1461075d57005b8063355274ea1161023457806340c10f19116101f05780634f189cb2116101cd5780634f189cb21461064957806357a3a31b1461065e57806357ad5ff61461067e5780635bfe4da01461069e57005b806340c10f19146105e757806342966c681461060757806347ac7d551461062757005b8063355274ea14610521578063361fef49146105365780633644e51514610556578063392e53cd1461056c578063395093511461058b578063397b3743146105ab57005b8063191c918a11610283578063191c918a1461044b57806323b872dd1461046b57806325b002431461048b5780633092afd5146104ab57806330adf81f146104cb578063313ce567146104ff57005b80627ffb78146102c757806301e88208146102fe57806306fdde031461034e578063095ea7b314610370578063160a7925146103a057806318160ddd1461042c575b005b3480156102d357600080fd5b50600c546001600160a01b03165b6040516001600160a01b0390911681526020015b60405180910390f35b34801561030a57600080fd5b50610337610319366004614936565b60056020526000908152604090205460ff8082169161010090041682565b6040805192151583529015156020830152016102f5565b34801561035a57600080fd5b50610363610a0e565b6040516102f5919061497f565b34801561037c57600080fd5b5061039061038b3660046149b2565b610aa0565b60405190151581526020016102f5565b3480156103ac57600080fd5b5061040d6103bb366004614936565b6040805180820190915260008082526020820152506001600160a01b031660009081526005602090815260409182902082518084019093525460ff808216151584526101009091041615159082015290565b60408051825115158152602092830151151592810192909252016102f5565b34801561043857600080fd5b506002545b6040519081526020016102f5565b34801561045757600080fd5b506102c56104663660046149ec565b610ab7565b34801561047757600080fd5b50610390610486366004614a4b565b610d11565b34801561049757600080fd5b506102c56104a6366004614936565b610dbd565b3480156104b757600080fd5b506102c56104c6366004614936565b610ed5565b3480156104d757600080fd5b5061043d7f6e71edae12b1b97f4d1f60370fef10105fa2faae0126114a169c64845d6126c981565b34801561050b57600080fd5b5060125b60405160ff90911681526020016102f5565b34801561052d57600080fd5b50600a5461043d565b34801561054257600080fd5b506102c5610551366004614aa5565b610fea565b34801561056257600080fd5b5061043d60115481565b34801561057857600080fd5b50600b54600160a01b900460ff16610390565b34801561059757600080fd5b506103906105a63660046149b2565b611068565b3480156105b757600080fd5b50600e54600f54601054604080516001600160a01b039485168152939092166020840152908201526060016102f5565b3480156105f357600080fd5b506102c56106023660046149b2565b6110a4565b34801561061357600080fd5b506102c5610622366004614aeb565b611175565b34801561063357600080fd5b5061063c61117f565b6040516102f59190614b48565b34801561065557600080fd5b506102c56111e0565b34801561066a57600080fd5b506102c5610679366004614936565b6112c7565b34801561068a57600080fd5b506102c5610699366004614a4b565b611487565b3480156106aa57600080fd5b506102e16106b9366004614c93565b611640565b3480156106ca57600080fd5b50600161050f565b3480156106de57600080fd5b5061063c611ac3565b3480156106f357600080fd5b5061043d610702366004614936565b6001600160a01b031660009081526020819052604090205490565b34801561072957600080fd5b506102c56107383660046149b2565b611b23565b34801561074957600080fd5b506102c5610758366004614d1a565b611ba9565b34801561076957600080fd5b50610772611f83565b6040516102f59190614d8d565b34801561078b57600080fd5b5061043d61079a366004614936565b60126020526000908152604090205481565b3480156107b857600080fd5b506102c5611ff8565b3480156107cd57600080fd5b506102c56107dc366004614e2d565b612052565b3480156107ed57600080fd5b5061043d6107fc366004614f0a565b61233f565b34801561080d57600080fd5b5061036361264d565b34801561082257600080fd5b50610390610831366004614936565b61265c565b34801561084257600080fd5b506102c5610851366004614936565b6126d7565b34801561086257600080fd5b506103906108713660046149b2565b6127ec565b34801561088257600080fd5b506103906108913660046149b2565b612885565b3480156108a257600080fd5b506103906108b1366004614936565b6001600160a01b031660009081526005602052604090205460ff1690565b3480156108db57600080fd5b506102c56108ea366004614936565b612892565b3480156108fb57600080fd5b506102c561090a366004614f75565b6129a7565b34801561091b57600080fd5b5061039061092a366004614ffa565b612b56565b34801561093b57600080fd5b506102c561094a3660046150fb565b612c90565b34801561095b57600080fd5b5061043d61096a366004615169565b6001600160a01b03918216600090815260016020908152604080832093909416825291909152205490565b6102c5612ea2565b3480156109a957600080fd5b506102e1612ee2565b3480156109be57600080fd5b5061043d670de0b6b3a764000081565b3480156109da57600080fd5b506102e16109e9366004614aeb565b612f77565b3480156109fa57600080fd5b506013546102e1906001600160a01b031681565b606060088054610a1d906151a2565b80601f0160208091040260200160405190810160405280929190818152602001828054610a49906151a2565b8015610a965780601f10610a6b57610100808354040283529160200191610a96565b820191906000526020600020905b815481529060010190602001808311610a7957829003601f168201915b5050505050905090565b6000610aad338484612fa1565b5060015b92915050565b600c5460405163160a792560e01b81523360048201526001600160a01b039091169063160a7925906024016080604051808303816000875af1158015610b01573d6000803e3d6000fd5b505050506040513d601f19601f82011682018060405250810190610b2591906151d7565b6020015180610ba75750600c546040516331a9108f60e11b81526001600482015233916001600160a01b031690636352211e90602401602060405180830381865afa158015610b78573d6000803e3d6000fd5b505050506040513d601f19601f82011682018060405250810190610b9c919061525b565b6001600160a01b0316145b610bcc5760405162461bcd60e51b8152600401610bc390615278565b60405180910390fd5b60026007541415610bef5760405162461bcd60e51b8152600401610bc3906152ad565b6002600755601354604051636b14d00560e11b81526001600160a01b038781166004830152306024830152604482018790526064820186905233608483015283811660a48301529091169063d629a00a9060c401600060405180830381600087803b158015610c5d57600080fd5b505af1158015610c71573d6000803e3d6000fd5b505050508115610c8457610c84856130c5565b601680546001810182556000919091527fd833147d7dc355ba459fc788f669e58cfaf9dc25ddcd0702e87d69c7b51242890180546001600160a01b0319166001600160a01b0387169081179091556040519081527fa31ffd41531537eb31bfd827a3f5372b5f62bf4dd8579e5354b280dc58490e709060200160405180910390a150506001600755505050565b6000610d1e84848461319c565b6001600160a01b038416600090815260016020908152604080832033845290915290205482811015610da35760405162461bcd60e51b815260206004820152602860248201527f45524332303a207472616e7366657220616d6f756e74206578636565647320616044820152676c6c6f77616e636560c01b6064820152608401610bc3565b610db08533858403612fa1565b60019150505b9392505050565b600c5460405163160a792560e01b81523360048201526001600160a01b039091169063160a7925906024016080604051808303816000875af1158015610e07573d6000803e3d6000fd5b505050506040513d601f19601f82011682018060405250810190610e2b91906151d7565b6020015180610ead5750600c546040516331a9108f60e11b81526001600482015233916001600160a01b031690636352211e90602401602060405180830381865afa158015610e7e573d6000803e3d6000fd5b505050506040513d601f19601f82011682018060405250810190610ea2919061525b565b6001600160a01b0316145b610ec95760405162461bcd60e51b8152600401610bc390615278565b610ed28161336c565b50565b600c5460405163160a792560e01b81523360048201526001600160a01b039091169063160a7925906024016080604051808303816000875af1158015610f1f573d6000803e3d6000fd5b505050506040513d601f19601f82011682018060405250810190610f4391906151d7565b6020015180610fc55750600c546040516331a9108f60e11b81526001600482015233916001600160a01b031690636352211e90602401602060405180830381865afa158015610f96573d6000803e3d6000fd5b505050506040513d601f19601f82011682018060405250810190610fba919061525b565b6001600160a01b0316145b610fe15760405162461bcd60e51b8152600401610bc390615278565b610ed2816133de565b6002600754141561100d5760405162461bcd60e51b8152600401610bc3906152ad565b600260075560408051838152336020820152428183015243606082015290517f526e31449ea46e2aecf9b480c8d7dfa191348ef74ffdf75b445a6ab726daa6ff9181900360800190a161105f8161343e565b50506001600755565b3360008181526001602090815260408083206001600160a01b03871684529091528120549091610aad91859061109f9086906152fa565b612fa1565b3360009081526005602052604090205460ff166111035760405162461bcd60e51b815260206004820152601960248201527f455243323054656d706c6174653a204e4f54204d494e544552000000000000006044820152606401610bc3565b600a546111198261111360025490565b906137f1565b11156111675760405162461bcd60e51b815260206004820152601f60248201527f44617461746f6b656e54656d706c6174653a20636170206578636565646564006044820152606401610bc3565b61117182826137fd565b5050565b610ed233826138dc565b60606016805480602002602001604051908101604052809291908181526020018280548015610a9657602002820191906000526020600020905b81546001600160a01b031681526001909101906020018083116111b9575050505050905090565b600c546040516331a9108f60e11b8152600160048201526001600160a01b0390911690636352211e90602401602060405180830381865afa158015611229573d6000803e3d6000fd5b505050506040513d601f19601f8201168201806040525081019061124d919061525b565b6001600160a01b0316336001600160a01b0316146112ad5760405162461bcd60e51b815260206004820152601b60248201527f455243323054656d706c6174653a206e6f74204e46544f776e657200000000006044820152606401610bc3565b6112b5613a2a565b600d80546001600160a01b0319169055565b33600090815260056020526040902054610100900460ff16806113585750600c5460405163160a792560e01b81523360048201526001600160a01b039091169063160a7925906024016080604051808303816000875af115801561132f573d6000803e3d6000fd5b505050506040513d601f19601f8201168201806040525081019061135391906151d7565b602001515b806113d65750600c546040516331a9108f60e11b81526001600482015233916001600160a01b031690636352211e90602401602060405180830381865afa1580156113a7573d6000803e3d6000fd5b505050506040513d601f19601f820116820180604052508101906113cb919061525b565b6001600160a01b0316145b6114365760405162461bcd60e51b815260206004820152602b60248201527f455243323054656d706c6174653a204e4f54205041594d454e54204d414e414760448201526a22a91037b91027aba722a960a91b6064820152608401610bc3565b61143f81613ad9565b604080514281524360208201526001600160a01b0383169133917f4d7694d695c57cc54947177c8e8a0e61aae664e9223492a798c32fadfc6419cc910160405180910390a350565b600e546001600160a01b031633146114f45760405162461bcd60e51b815260206004820152602a60248201527f455243323054656d706c6174653a206e6f74207075626c6973684d61726b65746044820152694665654164647265737360b01b6064820152608401610bc3565b6001600160a01b03831661155b5760405162461bcd60e51b815260206004820152602860248201527f496e76616c6964205f7075626c6973684d61726b657446656541646472657373604482015267206164647265737360c01b6064820152608401610bc3565b6001600160a01b0382166115c05760405162461bcd60e51b815260206004820152602660248201527f496e76616c6964205f7075626c6973684d61726b6574466565546f6b656e206160448201526564647265737360d01b6064820152608401610bc3565b600e80546001600160a01b038581166001600160a01b03199283168117909355600f80549186169190921681179091556010839055604080513381526020810193909352820152606081018290527f02ab4b3fc023109c2d0da394bda239166c833f63c42b71b67ed4b836dca0ddfe9060800160405180910390a1505050565b600c5460405163160a792560e01b81523360048201526000916001600160a01b03169063160a7925906024016080604051808303816000875af115801561168b573d6000803e3d6000fd5b505050506040513d601f19601f820116820180604052508101906116af91906151d7565b60200151806117315750600c546040516331a9108f60e11b81526001600482015233916001600160a01b031690636352211e90602401602060405180830381865afa158015611702573d6000803e3d6000fd5b505050506040513d601f19601f82011682018060405250810190611726919061525b565b6001600160a01b0316145b61174d5760405162461bcd60e51b8152600401610bc390615278565b600260075414156117705760405162461bcd60e51b8152600401610bc3906152ad565b600260075561177e60025490565b156117d75760405162461bcd60e51b8152602060048201526024808201527f455243323054656d706c6174653a20746f6b656e7320616c7265616479206d696044820152631b9d195960e21b6064820152608401610bc3565b6117fa826000815181106117ed576117ed615312565b60200260200101516130c5565b601360009054906101000a90046001600160a01b03166001600160a01b031663510f34656040518163ffffffff1660e01b8152600401602060405180830381865afa15801561184d573d6000803e3d6000fd5b505050506040513d601f19601f820116820180604052508101906118719190615328565b8460038151811061188457611884615312565b6020026020010151101561191a5760405162461bcd60e51b815260206004820152605160248201527f455243323054656d706c6174653a2056657374696e6720706572696f6420746f60448201527f6f206c6f772e2053656520466163746f7279526f757465722e6d696e56657374606482015270696e67506572696f64496e426c6f636b7360781b608482015260a401610bc3565b60006040518060400160405280306001600160a01b03166001600160a01b031681526020018460018151811061195257611952615312565b60209081029190910101516001600160a01b0390811690915260135460405163ee3bc63560e01b8152929350169063ee3bc6359061199a908490899089908990600401615371565b6020604051808303816000875af11580156119b9573d6000803e3d6000fd5b505050506040513d601f19601f820116820180604052508101906119dd919061525b565b6014805460018101825560009182527fce6d7b5282bd9a3661ae061feed1dbda4e52ab073b1f9285be6e155d9c38d4ec0180546001600160a01b0319166001600160a01b03841617905584519193507fd02da1bec30f7f750aa0a131745dfb9ce96767c45a192dc26409f5d690e0b9679184918691611a5e57611a5e615312565b602002602001015185600181518110611a7957611a79615312565b6020026020010151604051611aae939291906001600160a01b0393841681529183166020830152909116604082015260600190565b60405180910390a15060016007559392505050565b60606014805480602002602001604051908101604052809291908181526020018280548015610a96576020028201919060005260206000209081546001600160a01b031681526001909101906020018083116111b9575050505050905090565b6000611b2f833361096a565b905081811015611b8d5760405162461bcd60e51b8152602060048201526024808201527f45524332303a206275726e20616d6f756e74206578636565647320616c6c6f77604482015263616e636560e01b6064820152608401610bc3565b611b9a8333848403612fa1565b611ba483836138dc565b505050565b60026007541415611bcc5760405162461bcd60e51b8152600401610bc3906152ad565b600260075533600090815260208190526040812054670de0b6b3a76400009190821115611c475760405162461bcd60e51b8152602060048201526024808201527f4e6f7420656e6f7567682064617461746f6b656e7320746f207374617274204f604482015263393232b960e11b6064820152608401610bc3565b600e5460408051338152602081018590529081018790524260608201524360808201526001600160a01b03918216918816907fe1c4fa794edfa8f619b8257a077398950357b9c6398528f94480307352f9afcc9060a00160405180910390a36000601054118015611cc25750600f546001600160a01b031615155b8015611cd85750600e546001600160a01b031615155b15611d4d57600f54600e54601054611d00926001600160a01b03908116923392911690613afb565b600f54600e546010546040519081526001600160a01b0392831692909116907f4049a448ac6f0284a98d2cb9199e73605944ea5bec901a037f88c84703de82b29060200160405180910390a35b60008360400135118015611d7a57506000611d6e6040850160208601614936565b6001600160a01b031614155b8015611d9c57506000611d906020850185614936565b6001600160a01b031614155b15611e3957611dcc611db46040850160208601614936565b33611dc26020870187614936565b8660400135613afb565b611ddc6040840160208501614936565b6001600160a01b0316611df26020850185614936565b6001600160a01b03167f6d11837f46cc09b011cf4aae09fcade046c020aac088090ae4f77ff67b7079728560400135604051611e3091815260200190565b60405180910390a35b611e428461343e565b60135460408051637d28354d60e01b815290516000926001600160a01b031691637d28354d9160048083019260209291908290030181865afa158015611e8c573d6000803e3d6000fd5b505050506040513d601f19601f82011682018060405250810190611eb09190615328565b9050611ec7611ebd612ee2565b6108918584613c49565b611f135760405162461bcd60e51b815260206004820152601e60248201527f4661696c656420746f2073656e6420445420746f207075626c697368657200006044820152606401610bc3565b600b54611f29906001600160a01b031682612885565b611f755760405162461bcd60e51b815260206004820152601860248201527f4661696c656420746f2073656e6420445420746f204f504300000000000000006044820152606401610bc3565b505060016007555050505050565b60606015805480602002602001604051908101604052809291908181526020016000905b82821015611fef576000848152602090819020604080518082019091526002850290910180546001600160a01b03168252600190810154828401529083529092019101611fa7565b50505050905090565b600c546001600160a01b031633146112ad5760405162461bcd60e51b815260206004820152601f60248201527f455243323054656d706c6174653a204e4f542037323120436f6e7472616374006044820152606401610bc3565b336001600160a01b03821614156120ab5760405162461bcd60e51b815260206004820152601f60248201527f50726f76696465722063616e6e6f742062652074686520636f6e73756d6572006044820152606401610bc3565b60006040518060400160405280601c81526020017f19457468657265756d205369676e6564204d6573736167653a0a33320000000081525090506000818c8c8c6040516020016120fd939291906153dc565b604051602081830303815290604052805190602001206040516020016121249291906153f6565b604051602081830303815290604052805190602001209050336001600160a01b0316612186828b8b8080601f016020809104026020016040519081016040528093929190818152602001838380828437600092019190915250613c5592505050565b6001600160a01b0316146121dc5760405162461bcd60e51b815260206004820152601f60248201527f50726f7669646572207369676e617475726520636865636b206661696c6564006044820152606401610bc3565b60008288886040516020016121f2929190615418565b604051602081830303815290604052805190602001206040516020016122199291906153f6565b604051602081830303815290604052805190602001209050836001600160a01b031661227b8288888080601f016020809104026020016040519081016040528093929190818152602001838380828437600092019190915250613c5592505050565b6001600160a01b0316146122d15760405162461bcd60e51b815260206004820152601f60248201527f436f6e73756d6572207369676e617475726520636865636b206661696c6564006044820152606401610bc3565b836001600160a01b0316336001600160a01b03167fc9a10280e9c735c63092fa5431e6acb3ed342e08b69a083e5e676994eb7070f98f8f8f8f8f8f8f8f8f42436040516123289b9a99989796959493929190615451565b60405180910390a350505050505050505050505050565b600c5460405163160a792560e01b81523360048201526000916001600160a01b03169063160a7925906024016080604051808303816000875af115801561238a573d6000803e3d6000fd5b505050506040513d601f19601f820116820180604052508101906123ae91906151d7565b60200151806124305750600c546040516331a9108f60e11b81526001600482015233916001600160a01b031690636352211e90602401602060405180830381865afa158015612401573d6000803e3d6000fd5b505050506040513d601f19601f82011682018060405250810190612425919061525b565b6001600160a01b0316145b61244c5760405162461bcd60e51b8152600401610bc390615278565b6002600754141561246f5760405162461bcd60e51b8152600401610bc3906152ad565b6002600755601354604051638244937560e01b81526001600160a01b03909116906382449375906124a8908790879087906004016154c3565b6020604051808303816000875af11580156124c7573d6000803e3d6000fd5b505050506040513d601f19601f820116820180604052508101906124eb9190615328565b905060008260048151811061250257612502615312565b6020026020010151111561251957612519846130c5565b8260008151811061252c5761252c615312565b60200260200101516001600160a01b03168360018151811061255057612550615312565b60200260200101516001600160a01b03167fb3fac3ae95956dbac74e63ba8dac94081832395c8788e3049c900a7732f3480583876040516125a49291909182526001600160a01b0316602082015260400190565b60405180910390a3604080518082019091526001600160a01b03948516815260208101828152601580546001808201835560009290925292517f55f448fdea98c4d29eb340757ef0a66cd03dbb9538908a6a81d96026b71ec475600290940293840180546001600160a01b0319169190981617909655517f55f448fdea98c4d29eb340757ef0a66cd03dbb9538908a6a81d96026b71ec476909101556007939093555090919050565b606060098054610a1d906151a2565b600c5460405163160a792560e01b81526001600160a01b038381166004830152600092169063160a7925906024016080604051808303816000875af11580156126a9573d6000803e3d6000fd5b505050506040513d601f19601f820116820180604052508101906126cd91906151d7565b6020015192915050565b600c5460405163160a792560e01b81523360048201526001600160a01b039091169063160a7925906024016080604051808303816000875af1158015612721573d6000803e3d6000fd5b505050506040513d601f19601f8201168201806040525081019061274591906151d7565b60200151806127c75750600c546040516331a9108f60e11b81526001600482015233916001600160a01b031690636352211e90602401602060405180830381865afa158015612798573d6000803e3d6000fd5b505050506040513d601f19601f820116820180604052508101906127bc919061525b565b6001600160a01b0316145b6127e35760405162461bcd60e51b8152600401610bc390615278565b610ed2816130c5565b3360009081526001602090815260408083206001600160a01b03861684529091528120548281101561286e5760405162461bcd60e51b815260206004820152602560248201527f45524332303a2064656372656173656420616c6c6f77616e63652062656c6f77604482015264207a65726f60d81b6064820152608401610bc3565b61287b3385858403612fa1565b5060019392505050565b6000610aad33848461319c565b600c5460405163160a792560e01b81523360048201526001600160a01b039091169063160a7925906024016080604051808303816000875af11580156128dc573d6000803e3d6000fd5b505050506040513d601f19601f8201168201806040525081019061290091906151d7565b60200151806129825750600c546040516331a9108f60e11b81526001600482015233916001600160a01b031690636352211e90602401602060405180830381865afa158015612953573d6000803e3d6000fd5b505050506040513d601f19601f82011682018060405250810190612977919061525b565b6001600160a01b0316145b61299e5760405162461bcd60e51b8152600401610bc390615278565b610ed281613d2d565b600c5460405163160a792560e01b81523360048201526001600160a01b039091169063160a7925906024016080604051808303816000875af11580156129f1573d6000803e3d6000fd5b505050506040513d601f19601f82011682018060405250810190612a1591906151d7565b6020015180612a975750600c546040516331a9108f60e11b81526001600482015233916001600160a01b031690636352211e90602401602060405180830381865afa158015612a68573d6000803e3d6000fd5b505050506040513d601f19601f82011682018060405250810190612a8c919061525b565b6001600160a01b0316145b612ab35760405162461bcd60e51b8152600401610bc390615278565b6040516bffffffffffffffffffffffff193060601b16602082015260009060340160408051601f19818403018152908290528051602090910120600c546301caf8fd60e31b83529092506001600160a01b031690630e57c7e890612b1f90849087908790600401615503565b600060405180830381600087803b158015612b3957600080fd5b505af1158015612b4d573d6000803e3d6000fd5b50505050505050565b600b54600090600160a01b900460ff1615612bcd5760405162461bcd60e51b815260206004820152603160248201527f455243323054656d706c6174653a20746f6b656e20696e7374616e636520616c6044820152701c9958591e481a5b9a5d1a585b1a5e9959607a1b6064820152608401610bc3565b612c81612bda8b8d61557d565b8a8a8080602002602001604051908101604052809392919081815260200183836020028082843760009201919091525050604080516020808e0282810182019093528d82529093508d92508c91829185019084908082843760009201919091525050604080516020808d0282810182019093528c82529093508c92508b918291850190849080828437600092019190915250612c7c92508991508a9050615604565b613e0e565b9b9a5050505050505050505050565b43841015612cd35760405162461bcd60e51b815260206004820152601060248201526f115490cc8c11150e881156141254915160821b6044820152606401610bc3565b6011546001600160a01b038816600090815260126020526040812080549192917f6e71edae12b1b97f4d1f60370fef10105fa2faae0126114a169c64845d6126c9918b918b918b919087612d268361567f565b909155506040805160208101969096526001600160a01b0394851690860152929091166060840152608083015260a082015260c0810187905260e00160405160208183030381529060405280519060200120604051602001612d9f92919061190160f01b81526002810192909252602282015260420190565b60408051601f198184030181528282528051602091820120600080855291840180845281905260ff88169284019290925260608301869052608083018590529092509060019060a0016020604051602081039080840390855afa158015612e0a573d6000803e3d6000fd5b5050604051601f1901519150506001600160a01b03811615801590612e405750886001600160a01b0316816001600160a01b0316145b612e8c5760405162461bcd60e51b815260206004820152601a60248201527f455243323044543a20494e56414c49445f5349474e41545552450000000000006044820152606401610bc3565b612e97898989612fa1565b505050505050505050565b612eaa612ee2565b6001600160a01b03166108fc479081150290604051600060405180830381858888f19350505050158015610ed2573d6000803e3d6000fd5b600d546000906001600160a01b0316612f6757600c546040516331a9108f60e11b8152600160048201526001600160a01b0390911690636352211e90602401602060405180830381865afa158015612f3e573d6000803e3d6000fd5b505050506040513d601f19601f82011682018060405250810190612f62919061525b565b905090565b50600d546001600160a01b031690565b60068181548110612f8757600080fd5b6000918252602090912001546001600160a01b0316905081565b6001600160a01b0383166130035760405162461bcd60e51b8152602060048201526024808201527f45524332303a20617070726f76652066726f6d20746865207a65726f206164646044820152637265737360e01b6064820152608401610bc3565b6001600160a01b0382166130645760405162461bcd60e51b815260206004820152602260248201527f45524332303a20617070726f766520746f20746865207a65726f206164647265604482015261737360f01b6064820152608401610bc3565b6001600160a01b0383811660008181526001602090815260408083209487168084529482529182902085905590518481527f8c5be1e5ebec7d5bd14f71427d1e84f3dd0314c0f7b2291e5b200ac8c7c3b925910160405180910390a3505050565b6001600160a01b03811615610ed2576001600160a01b0381166000908152600560205260409020805460ff161561313e5760405162461bcd60e51b815260206004820152601d60248201527f4552433230526f6c65733a2020414c52454144592041204d494e5445520000006044820152606401610bc3565b805460ff1916600117815561315282614358565b6040805142815243602082015233916001600160a01b038516917f4f7e100eb1ee13e903798bd0d6aa854152e07eb05544f392b9409c12935c809591015b60405180910390a35050565b6001600160a01b0383166132005760405162461bcd60e51b815260206004820152602560248201527f45524332303a207472616e736665722066726f6d20746865207a65726f206164604482015264647265737360d81b6064820152608401610bc3565b6001600160a01b0382166132625760405162461bcd60e51b815260206004820152602360248201527f45524332303a207472616e7366657220746f20746865207a65726f206164647260448201526265737360e81b6064820152608401610bc3565b6001600160a01b038316600090815260208190526040902054818110156132da5760405162461bcd60e51b815260206004820152602660248201527f45524332303a207472616e7366657220616d6f756e7420657863656564732062604482015265616c616e636560d01b6064820152608401610bc3565b6001600160a01b038085166000908152602081905260408082208585039055918516815290812080548492906133119084906152fa565b92505081905550826001600160a01b0316846001600160a01b03167fddf252ad1be2c89b69c2b068fc378daa952ba7f163c4a11628f55a4df523b3ef8460405161335d91815260200190565b60405180910390a35b50505050565b6001600160a01b03811660008181526005602052604090819020805461ff00191681559051909133917faee911eec8b2df8f3ae0464841541b1e5f339519bd5cf51889fe8b07fecff658906133cd9042904390918252602082015260400190565b60405180910390a36111718261440f565b6001600160a01b03811660008181526005602052604090819020805460ff191681559051909133917fefa2735987005aaa89c050c0ff8cc9ae7d9079d19382081c429130f98c52d480906133cd9042904390918252602082015260400190565b60408051808201909152601c81527f19457468657265756d205369676e6564204d6573736167653a0a333200000000602082015260008161348260e085018561569a565b61348f6020870187614936565b61349f6040880160208901614936565b87604001358860c001356040516020016134be969594939291906156e0565b604051602081830303815290604052805190602001206040516020016134e59291906153f6565b60408051601f19818403018152919052805160209091012090506000600182613514608087016060880161571e565b6040805160008152602081018083529390935260ff90911690820152608080870135606083015260a08088013591830191909152016020604051602081039080840390855afa15801561356b573d6000803e3d6000fd5b5050604051601f190151915061358690506020850185614936565b6001600160a01b0316816001600160a01b0316146135dd5760405162461bcd60e51b8152602060048201526014602482015273496e76616c69642070726f76696465722066656560601b6044820152606401610bc3565b6135ed6040850160208601614936565b6001600160a01b03166136036020860186614936565b6001600160a01b03167ff8ed11cdaaf10eca2b6c941fb802cb8682afe86cac1eb93f70d0780fa062c544604087013561363f60e089018961569a565b61364f60808b0160608c0161571e565b8a608001358b60a001358c60c001356040516136719796959493929190615739565b60405180910390a3600084604001351180156136a65750600061369a6040860160208701614936565b6001600160a01b031614155b80156136c8575060006136bc6020860186614936565b6001600160a01b031614155b156133665760135460408051636c45e88160e01b815290516000926001600160a01b031691636c45e8819160048083019260209291908290030181865afa158015613717573d6000803e3d6000fd5b505050506040513d601f19601f8201168201806040525081019061373b9190615328565b90506000811561376857613765670de0b6b3a764000061375f60408901358561455d565b90614569565b90505b6000613778604088013583613c49565b905061379961378d6040890160208a01614936565b33308a60400135613afb565b6137ca6137a96020890189614936565b826137ba60408b0160208c01614936565b6001600160a01b03169190614575565b8115612b4d57600b54612b4d906001600160a01b0316836137ba60408b0160208c01614936565b6000610db682846152fa565b6001600160a01b0382166138535760405162461bcd60e51b815260206004820152601f60248201527f45524332303a206d696e7420746f20746865207a65726f2061646472657373006044820152606401610bc3565b806002600082825461386591906152fa565b90915550506001600160a01b038216600090815260208190526040812080548392906138929084906152fa565b90915550506040518181526001600160a01b038316906000907fddf252ad1be2c89b69c2b068fc378daa952ba7f163c4a11628f55a4df523b3ef9060200160405180910390a35050565b6001600160a01b03821661393c5760405162461bcd60e51b815260206004820152602160248201527f45524332303a206275726e2066726f6d20746865207a65726f206164647265736044820152607360f81b6064820152608401610bc3565b6001600160a01b038216600090815260208190526040902054818110156139b05760405162461bcd60e51b815260206004820152602260248201527f45524332303a206275726e20616d6f756e7420657863656564732062616c616e604482015261636560f01b6064820152608401610bc3565b6001600160a01b03831660009081526020819052604081208383039055600280548492906139df90849061577c565b90915550506040518281526000906001600160a01b038516907fddf252ad1be2c89b69c2b068fc378daa952ba7f163c4a11628f55a4df523b3ef9060200160405180910390a3505050565b60005b600654811015613a905760006005600060068481548110613a5057613a50615312565b60009182526020808320909101546001600160a01b031683528201929092526040019020805461ffff191690555080613a888161567f565b915050613a2d565b50613a9d6006600061485a565b6040805142815243602082015233917f712bc71db81927a76b8bf1ea346247bb0ad58f18e4e5c1bd4aa0ec6573e02a2b910160405180910390a2565b600d80546001600160a01b0319166001600160a01b0392909216919091179055565b6040516370a0823160e01b81526001600160a01b038381166004830152600091908616906370a0823190602401602060405180830381865afa158015613b45573d6000803e3d6000fd5b505050506040513d601f19601f82011682018060405250810190613b699190615328565b9050613b806001600160a01b0386168585856145d8565b613b8a81836137f1565b6040516370a0823160e01b81526001600160a01b0385811660048301528716906370a0823190602401602060405180830381865afa158015613bd0573d6000803e3d6000fd5b505050506040513d601f19601f82011682018060405250810190613bf49190615328565b1015613c425760405162461bcd60e51b815260206004820152601a60248201527f5472616e7366657220616d6f756e7420697320746f6f206c6f770000000000006044820152606401610bc3565b5050505050565b6000610db6828461577c565b6000806000808451604114613c705760009350505050610ab1565b50505060208201516040830151604184015160ff16601b811015613c9c57613c99601b82615793565b90505b8060ff16601b14158015613cb457508060ff16601c14155b15613cc55760009350505050610ab1565b60408051600081526020810180835288905260ff831691810191909152606081018490526080810183905260019060a0016020604051602081039080840390855afa158015613d18573d6000803e3d6000fd5b5050604051601f190151979650505050505050565b6001600160a01b03811615610ed2576001600160a01b03811660009081526005602052604090208054610100900460ff1615613db65760405162461bcd60e51b815260206004820152602260248201527f4552433230526f6c65733a2020414c5245414459204120464545204d414e414760448201526122a960f11b6064820152608401610bc3565b805461ff001916610100178155613dcc82614358565b6040805142815243602082015233916001600160a01b038516917fb17da2e9910b4ba5754e8872385ba315a238bafb5ae221fc85093c33432c40a79101613190565b60008084600081518110613e2457613e24615312565b60200260200101519050600085600181518110613e4357613e43615312565b6020026020010151905060006001600160a01b0316826001600160a01b03161415613ec55760405162461bcd60e51b815260206004820152602c60248201527f455243323054656d706c6174653a20496e76616c6964206d696e7465722c202060448201526b7a65726f206164647265737360a01b6064820152608401610bc3565b6001600160a01b038116613f415760405162461bcd60e51b815260206004820152603c60248201527f455243323054656d706c6174653a20496e76616c696420636f6d6d756e69747960448201527f2066656520636f6c6c6563746f722c207a65726f2061646472657373000000006064820152608401610bc3565b84600081518110613f5457613f54615312565b602002602001015160001415613fb85760405162461bcd60e51b8152602060048201526024808201527f44617461746f6b656e54656d706c6174653a20496e76616c6964206361702076604482015263616c756560e01b6064820152608401610bc3565b84600081518110613fcb57613fcb615312565b6020026020010151600a8190555087600081518110613fec57613fec615312565b602002602001015160089080519060200190614009929190614878565b508760018151811061401d5761401d615312565b60200260200101516009908051906020019061403a929190614878565b50600c80546001600160a01b0319166001600160a01b03841617905585518690600290811061406b5761406b615312565b6020908102919091010151601380546001600160a01b039283166001600160a01b0319909116179055600b80546001600160a81b03191691831691909117600160a01b17905586516140c89088906000906117ed576117ed615312565b60006001600160a01b0316876001815181106140e6576140e6615312565b60200260200101516001600160a01b0316146141905761411f8760018151811061411257614112615312565b6020026020010151613ad9565b8660018151811061413257614132615312565b60200260200101516001600160a01b0316336001600160a01b03167f4d7694d695c57cc54947177c8e8a0e61aae664e9223492a798c32fadfc6419cc4243604051614187929190918252602082015260400190565b60405180910390a35b866002815181106141a3576141a3615312565b6020026020010151600e60006101000a8154816001600160a01b0302191690836001600160a01b03160217905550866003815181106141e4576141e4615312565b6020026020010151600f60006101000a8154816001600160a01b0302191690836001600160a01b031602179055508460018151811061422557614225615312565b6020908102919091018101516010819055600e54600f54604080513381526001600160a01b039384169581019590955291169083015260608201527f02ab4b3fc023109c2d0da394bda239166c833f63c42b71b67ed4b836dca0ddfe9060800160405180910390a160405146907f8b73c3c69bb8fe3d512ecc4cf759cc79239f7b179b0ffacaa9a75d522b39400f906142c0906008906157b8565b60408051918290038220828201825260018352603160f81b6020938401528151928301939093528101919091527fc89efdaa54c0f20c7adf612882df0950f5a951637e0307cdcb4c672f298b8bc66060820152608081018290523060a082015260c00160408051808303601f1901815291905280516020909101206011555050600b54600160a01b900460ff16979650505050505050565b60005b6006548110156143b457816001600160a01b03166006828154811061438257614382615312565b6000918252602090912001546001600160a01b031614156143a2576143b4565b806143ac8161567f565b91505061435b565b60065481141561117157600680546001810182556000919091527ff652222313e28459528d920b65115c16c04f3efc82aaedc97be59f3f377c0d3f0180546001600160a01b0384166001600160a01b03199091161790555050565b6001600160a01b0381166000908152600560205260409020805460ff1615801561444057508054610100900460ff16155b156111715760005b6006548110156144a157826001600160a01b03166006828154811061446f5761446f615312565b6000918252602090912001546001600160a01b0316141561448f576144a1565b806144998161567f565b915050614448565b600654811015611ba457600680546144bb9060019061577c565b815481106144cb576144cb615312565b600091825260209091200154600680546001600160a01b0390921691839081106144f7576144f7615312565b9060005260206000200160006101000a8154816001600160a01b0302191690836001600160a01b03160217905550600680548061453657614536615854565b600082815260209020810160001990810180546001600160a01b0319169055019055505050565b6000610db6828461586a565b6000610db68284615889565b6040516001600160a01b038316602482015260448101829052611ba490849063a9059cbb60e01b906064015b60408051601f198184030181529190526020810180516001600160e01b03166001600160e01b031990931692909217909152614610565b6040516001600160a01b03808516602483015283166044820152606481018290526133669085906323b872dd60e01b906084016145a1565b6000614665826040518060400160405280602081526020017f5361666545524332303a206c6f772d6c6576656c2063616c6c206661696c6564815250856001600160a01b03166146e29092919063ffffffff16565b805190915015611ba4578080602001905181019061468391906158ab565b611ba45760405162461bcd60e51b815260206004820152602a60248201527f5361666545524332303a204552433230206f7065726174696f6e20646964206e6044820152691bdd081cdd58d8d9595960b21b6064820152608401610bc3565b60606146f184846000856146f9565b949350505050565b60608247101561475a5760405162461bcd60e51b815260206004820152602660248201527f416464726573733a20696e73756666696369656e742062616c616e636520666f6044820152651c8818d85b1b60d21b6064820152608401610bc3565b843b6147a85760405162461bcd60e51b815260206004820152601d60248201527f416464726573733a2063616c6c20746f206e6f6e2d636f6e74726163740000006044820152606401610bc3565b600080866001600160a01b031685876040516147c491906158c8565b60006040518083038185875af1925050503d8060008114614801576040519150601f19603f3d011682016040523d82523d6000602084013e614806565b606091505b5091509150614816828286614821565b979650505050505050565b60608315614830575081610db6565b8251156148405782518084602001fd5b8160405162461bcd60e51b8152600401610bc3919061497f565b5080546000825590600052602060002090810190610ed291906148fc565b828054614884906151a2565b90600052602060002090601f0160209004810192826148a657600085556148ec565b82601f106148bf57805160ff19168380011785556148ec565b828001600101855582156148ec579182015b828111156148ec5782518255916020019190600101906148d1565b506148f89291506148fc565b5090565b5b808211156148f857600081556001016148fd565b6001600160a01b0381168114610ed257600080fd5b803561493181614911565b919050565b60006020828403121561494857600080fd5b8135610db681614911565b60005b8381101561496e578181015183820152602001614956565b838111156133665750506000910152565b602081526000825180602084015261499e816040850160208701614953565b601f01601f19169190910160400192915050565b600080604083850312156149c557600080fd5b82356149d081614911565b946020939093013593505050565b8015158114610ed257600080fd5b600080600080600060a08688031215614a0457600080fd5b8535614a0f81614911565b945060208601359350604086013592506060860135614a2d816149de565b91506080860135614a3d81614911565b809150509295509295909350565b600080600060608486031215614a6057600080fd5b8335614a6b81614911565b92506020840135614a7b81614911565b929592945050506040919091013590565b60006101008284031215614a9f57600080fd5b50919050565b60008060408385031215614ab857600080fd5b8235915060208301356001600160401b03811115614ad557600080fd5b614ae185828601614a8c565b9150509250929050565b600060208284031215614afd57600080fd5b5035919050565b600081518084526020808501945080840160005b83811015614b3d5781516001600160a01b031687529582019590820190600101614b18565b509495945050505050565b602081526000610db66020830184614b04565b634e487b7160e01b600052604160045260246000fd5b604051601f8201601f191681016001600160401b0381118282101715614b9957614b99614b5b565b604052919050565b60006001600160401b03821115614bba57614bba614b5b565b5060051b60200190565b600082601f830112614bd557600080fd5b81356020614bea614be583614ba1565b614b71565b82815260059290921b84018101918181019086841115614c0957600080fd5b8286015b84811015614c245780358352918301918301614c0d565b509695505050505050565b600082601f830112614c4057600080fd5b81356020614c50614be583614ba1565b82815260059290921b84018101918181019086841115614c6f57600080fd5b8286015b84811015614c24578035614c8681614911565b8352918301918301614c73565b600080600060608486031215614ca857600080fd5b83356001600160401b0380821115614cbf57600080fd5b614ccb87838801614bc4565b94506020860135915080821115614ce157600080fd5b614ced87838801614bc4565b93506040860135915080821115614d0357600080fd5b50614d1086828701614c2f565b9150509250925092565b60008060008084860360c0811215614d3157600080fd5b8535614d3c81614911565b94506020860135935060408601356001600160401b03811115614d5e57600080fd5b614d6a88828901614a8c565b9350506060605f1982011215614d7f57600080fd5b509295919450926060019150565b602080825282518282018190526000919060409081850190868401855b82811015614dd857815180516001600160a01b03168552860151868501529284019290850190600101614daa565b5091979650505050505050565b60008083601f840112614df757600080fd5b5081356001600160401b03811115614e0e57600080fd5b602083019150836020828501011115614e2657600080fd5b9250929050565b60008060008060008060008060008060c08b8d031215614e4c57600080fd5b8a35995060208b01356001600160401b0380821115614e6a57600080fd5b614e768e838f01614de5565b909b50995060408d0135915080821115614e8f57600080fd5b614e9b8e838f01614de5565b909950975060608d0135915080821115614eb457600080fd5b614ec08e838f01614de5565b909750955060808d0135915080821115614ed957600080fd5b50614ee68d828e01614de5565b9094509250614ef9905060a08c01614926565b90509295989b9194979a5092959850565b600080600060608486031215614f1f57600080fd5b8335614f2a81614911565b925060208401356001600160401b0380821115614f4657600080fd5b614f5287838801614c2f565b93506040860135915080821115614f6857600080fd5b50614d1086828701614bc4565b60008060208385031215614f8857600080fd5b82356001600160401b03811115614f9e57600080fd5b614faa85828601614de5565b90969095509350505050565b60008083601f840112614fc857600080fd5b5081356001600160401b03811115614fdf57600080fd5b6020830191508360208260051b8501011115614e2657600080fd5b60008060008060008060008060008060a08b8d03121561501957600080fd5b8a356001600160401b038082111561503057600080fd5b61503c8e838f01614fb6565b909c509a5060208d013591508082111561505557600080fd5b6150618e838f01614fb6565b909a50985060408d013591508082111561507a57600080fd5b6150868e838f01614fb6565b909850965060608d013591508082111561509f57600080fd5b6150ab8e838f01614fb6565b909650945060808d01359150808211156150c457600080fd5b506150d18d828e01614fb6565b915080935050809150509295989b9194979a5092959850565b803560ff8116811461493157600080fd5b600080600080600080600060e0888a03121561511657600080fd5b873561512181614911565b9650602088013561513181614911565b9550604088013594506060880135935061514d608089016150ea565b925060a0880135915060c0880135905092959891949750929550565b6000806040838503121561517c57600080fd5b823561518781614911565b9150602083013561519781614911565b809150509250929050565b600181811c908216806151b657607f821691505b60208210811415614a9f57634e487b7160e01b600052602260045260246000fd5b6000608082840312156151e957600080fd5b604051608081018181106001600160401b038211171561520b5761520b614b5b565b6040528251615219816149de565b81526020830151615229816149de565b6020820152604083015161523c816149de565b6040820152606083015161524f816149de565b60608201529392505050565b60006020828403121561526d57600080fd5b8151610db681614911565b6020808252818101527f455243323054656d706c6174653a204e4f54204445504c4f59455220524f4c45604082015260600190565b6020808252601f908201527f5265656e7472616e637947756172643a207265656e7472616e742063616c6c00604082015260600190565b634e487b7160e01b600052601160045260246000fd5b6000821982111561530d5761530d6152e4565b500190565b634e487b7160e01b600052603260045260246000fd5b60006020828403121561533a57600080fd5b5051919050565b600081518084526020808501945080840160005b83811015614b3d57815187529582019590820190600101615355565b60008186825b600281101561539f5781516001600160a01b0316835260209283019290910190600101615377565b50505060a060408301526153b660a0830186615341565b82810360608401526153c88186615341565b905082810360808401526148168185614b04565b838152818360208301376000910160200190815292915050565b60008351615408818460208801614953565b9190910191825250602001919050565b8183823760009101908152919050565b81835281816020850137506000828201602090810191909152601f909101601f19169091010190565b8b815260e06020820152600061546b60e083018c8e615428565b828103604084015261547e818b8d615428565b9050828103606084015261549381898b615428565b905082810360808401526154a8818789615428565b60a0840195909552505060c001529998505050505050505050565b6001600160a01b03841681526060602082018190526000906154e790830185614b04565b82810360408401526154f98185615341565b9695505050505050565b83815260406020820152600061551d604083018486615428565b95945050505050565b60006001600160401b0383111561553f5761553f614b5b565b615552601f8401601f1916602001614b71565b905082815283838301111561556657600080fd5b828260208301376000602084830101529392505050565b600061558b614be584614ba1565b80848252602080830192508560051b8501368111156155a957600080fd5b855b818110156155f85780356001600160401b038111156155ca5760008081fd5b870136601f8201126155dc5760008081fd5b6155ea368235868401615526565b8652509382019382016155ab565b50919695505050505050565b6000615612614be584614ba1565b80848252602080830192508560051b85013681111561563057600080fd5b855b818110156155f85780356001600160401b038111156156515760008081fd5b870136601f8201126156635760008081fd5b615671368235868401615526565b865250938201938201615632565b6000600019821415615693576156936152e4565b5060010190565b6000808335601e198436030181126156b157600080fd5b8301803591506001600160401b038211156156cb57600080fd5b602001915036819003821315614e2657600080fd5b858782376bffffffffffffffffffffffff19606095861b8116969091019586529290931b909116601484015260288301526048820152606801919050565b60006020828403121561573057600080fd5b610db6826150ea565b87815260c06020820152600061575360c08301888a615428565b905060ff861660408301528460608301528360808301528260a083015298975050505050505050565b60008282101561578e5761578e6152e4565b500390565b600060ff821660ff84168060ff038211156157b0576157b06152e4565b019392505050565b600080835481600182811c9150808316806157d457607f831692505b60208084108214156157f457634e487b7160e01b86526022600452602486fd5b818015615808576001811461581957615846565b60ff19861689528489019650615846565b60008a81526020902060005b8681101561583e5781548b820152908501908301615825565b505084890196505b509498975050505050505050565b634e487b7160e01b600052603160045260246000fd5b6000816000190483118215151615615884576158846152e4565b500290565b6000826158a657634e487b7160e01b600052601260045260246000fd5b500490565b6000602082840312156158bd57600080fd5b8151610db6816149de565b600082516158da818460208701614953565b919091019291505056fea2646970667358221220f67991af3f0c93313674fa6f34245c0b5d392d255507fc50c03477f674c388ed64736f6c634300080c0033",
  "linkReferences": {},
  "deployedLinkReferences": {}
}