{
  "_format": "hh-sol-artifact-1",
  "contractName": "ERC20Template",
  "sourceName": "contracts/templates/ERC20Template.sol",
  "abi": [
    {
      "anonymous": false,
      "inputs": [
        {
          "indexed": true,
          "internalType": "address",
          "name": "owner",
          "type": "address"
        },
        {
          "indexed": true,
          "internalType": "address",
          "name": "spender",
          "type": "address"
        },
        {
          "indexed": false,
          "internalType": "uint256",
          "name": "value",
          "type": "uint256"
        }
      ],
      "name": "Approval",
      "type": "event"
    },
    {
      "anonymous": false,
      "inputs": [
        {
          "indexed": false,
          "internalType": "address",
          "name": "currentMinter",
          "type": "address"
        },
        {
          "indexed": false,
          "internalType": "address",
          "name": "newMinter",
          "type": "address"
        }
      ],
      "name": "MinterApproved",
      "type": "event"
    },
    {
      "anonymous": false,
      "inputs": [
        {
          "indexed": false,
          "internalType": "address",
          "name": "currentMinter",
          "type": "address"
        },
        {
          "indexed": false,
          "internalType": "address",
          "name": "newMinter",
          "type": "address"
        }
      ],
      "name": "MinterProposed",
      "type": "event"
    },
    {
      "anonymous": false,
      "inputs": [
        {
          "indexed": false,
          "internalType": "bytes32",
          "name": "exchangeId",
          "type": "bytes32"
        },
        {
          "indexed": false,
          "internalType": "address",
          "name": "owner",
          "type": "address"
        },
        {
          "indexed": false,
          "internalType": "address",
          "name": "basetoken",
          "type": "address"
        }
      ],
      "name": "NewFixedRate",
      "type": "event"
    },
    {
      "anonymous": false,
      "inputs": [
        {
          "indexed": false,
          "internalType": "address",
          "name": "poolAddress",
          "type": "address"
        },
        {
          "indexed": false,
          "internalType": "address",
          "name": "ssContract",
          "type": "address"
        },
        {
          "indexed": false,
          "internalType": "address",
          "name": "basetokenAddress",
          "type": "address"
        }
      ],
      "name": "NewPool",
      "type": "event"
    },
    {
      "anonymous": false,
      "inputs": [
        {
          "indexed": false,
          "internalType": "bytes32",
          "name": "orderTxId",
          "type": "bytes32"
        },
        {
          "indexed": true,
          "internalType": "address",
          "name": "consumer",
          "type": "address"
        },
        {
          "indexed": false,
          "internalType": "uint256",
          "name": "amount",
          "type": "uint256"
        },
        {
          "indexed": false,
          "internalType": "uint256",
          "name": "serviceId",
          "type": "uint256"
        },
        {
          "indexed": true,
          "internalType": "address",
          "name": "provider",
          "type": "address"
        },
        {
          "indexed": false,
          "internalType": "uint256",
          "name": "timestamp",
          "type": "uint256"
        }
      ],
      "name": "OrderFinished",
      "type": "event"
    },
    {
      "anonymous": false,
      "inputs": [
        {
          "indexed": true,
          "internalType": "address",
          "name": "consumer",
          "type": "address"
        },
        {
          "indexed": true,
          "internalType": "address",
          "name": "payer",
          "type": "address"
        },
        {
          "indexed": false,
          "internalType": "uint256",
          "name": "amount",
          "type": "uint256"
        },
        {
          "indexed": false,
          "internalType": "uint256",
          "name": "serviceId",
          "type": "uint256"
        },
        {
          "indexed": false,
          "internalType": "uint256",
          "name": "timestamp",
          "type": "uint256"
        },
        {
          "indexed": true,
          "internalType": "address",
          "name": "mrktFeeCollector",
          "type": "address"
        },
        {
          "indexed": false,
          "internalType": "uint256",
          "name": "marketFee",
          "type": "uint256"
        }
      ],
      "name": "OrderStarted",
      "type": "event"
    },
    {
      "anonymous": false,
      "inputs": [
        {
          "indexed": true,
          "internalType": "address",
          "name": "from",
          "type": "address"
        },
        {
          "indexed": true,
          "internalType": "address",
          "name": "to",
          "type": "address"
        },
        {
          "indexed": false,
          "internalType": "uint256",
          "name": "value",
          "type": "uint256"
        }
      ],
      "name": "Transfer",
      "type": "event"
    },
    {
      "inputs": [],
      "name": "BASE",
      "outputs": [
        {
          "internalType": "uint256",
          "name": "",
          "type": "uint256"
        }
      ],
      "stateMutability": "view",
      "type": "function"
    },
    {
      "inputs": [],
      "name": "BASE_COMMUNITY_FEE_PERCENTAGE",
      "outputs": [
        {
          "internalType": "uint256",
          "name": "",
          "type": "uint256"
        }
      ],
      "stateMutability": "view",
      "type": "function"
    },
    {
      "inputs": [],
      "name": "BASE_MARKET_FEE_PERCENTAGE",
      "outputs": [
        {
          "internalType": "uint256",
          "name": "",
          "type": "uint256"
        }
      ],
      "stateMutability": "view",
      "type": "function"
    },
    {
      "inputs": [],
      "name": "DOMAIN_SEPARATOR",
      "outputs": [
        {
          "internalType": "bytes32",
          "name": "",
          "type": "bytes32"
        }
      ],
      "stateMutability": "view",
      "type": "function"
    },
    {
      "inputs": [],
      "name": "PERMIT_TYPEHASH",
      "outputs": [
        {
          "internalType": "bytes32",
          "name": "",
          "type": "bytes32"
        }
      ],
      "stateMutability": "view",
      "type": "function"
    },
    {
      "inputs": [
        {
          "internalType": "address",
          "name": "_feeManager",
          "type": "address"
        }
      ],
      "name": "addFeeManager",
      "outputs": [],
      "stateMutability": "nonpayable",
      "type": "function"
    },
    {
      "inputs": [
        {
          "internalType": "address",
          "name": "_minter",
          "type": "address"
        }
      ],
      "name": "addMinter",
      "outputs": [],
      "stateMutability": "nonpayable",
      "type": "function"
    },
    {
      "inputs": [
        {
          "internalType": "address",
          "name": "owner",
          "type": "address"
        },
        {
          "internalType": "address",
          "name": "spender",
          "type": "address"
        }
      ],
      "name": "allowance",
      "outputs": [
        {
          "internalType": "uint256",
          "name": "",
          "type": "uint256"
        }
      ],
      "stateMutability": "view",
      "type": "function"
    },
    {
      "inputs": [
        {
          "internalType": "address",
          "name": "spender",
          "type": "address"
        },
        {
          "internalType": "uint256",
          "name": "amount",
          "type": "uint256"
        }
      ],
      "name": "approve",
      "outputs": [
        {
          "internalType": "bool",
          "name": "",
          "type": "bool"
        }
      ],
      "stateMutability": "nonpayable",
      "type": "function"
    },
    {
      "inputs": [
        {
          "internalType": "uint256",
          "name": "",
          "type": "uint256"
        }
      ],
      "name": "authERC20",
      "outputs": [
        {
          "internalType": "address",
          "name": "",
          "type": "address"
        }
      ],
      "stateMutability": "view",
      "type": "function"
    },
    {
      "inputs": [
        {
          "internalType": "address",
          "name": "account",
          "type": "address"
        }
      ],
      "name": "balanceOf",
      "outputs": [
        {
          "internalType": "uint256",
          "name": "",
          "type": "uint256"
        }
      ],
      "stateMutability": "view",
      "type": "function"
    },
    {
      "inputs": [],
      "name": "cap",
      "outputs": [
        {
          "internalType": "uint256",
          "name": "",
          "type": "uint256"
        }
      ],
      "stateMutability": "view",
      "type": "function"
    },
    {
      "inputs": [],
      "name": "cleanFrom721",
      "outputs": [],
      "stateMutability": "nonpayable",
      "type": "function"
    },
    {
      "inputs": [],
      "name": "cleanPermissions",
      "outputs": [],
      "stateMutability": "nonpayable",
      "type": "function"
    },
    {
      "inputs": [
        {
          "internalType": "address",
          "name": "basetokenAddress",
          "type": "address"
        },
        {
          "internalType": "uint8",
          "name": "basetokenDecimals",
          "type": "uint8"
        },
        {
          "internalType": "uint256",
          "name": "fixedRate",
          "type": "uint256"
        },
        {
          "internalType": "address",
          "name": "owner",
          "type": "address"
        },
        {
          "internalType": "uint256",
          "name": "marketFee",
          "type": "uint256"
        },
        {
          "internalType": "address",
          "name": "marketFeeCollector",
          "type": "address"
        }
      ],
      "name": "createFixedRate",
      "outputs": [
        {
          "internalType": "bytes32",
          "name": "exchangeId",
          "type": "bytes32"
        }
      ],
      "stateMutability": "nonpayable",
      "type": "function"
    },
    {
      "inputs": [],
      "name": "decimals",
      "outputs": [
        {
          "internalType": "uint8",
          "name": "",
          "type": "uint8"
        }
      ],
      "stateMutability": "pure",
      "type": "function"
    },
    {
      "inputs": [
        {
          "internalType": "address",
          "name": "spender",
          "type": "address"
        },
        {
          "internalType": "uint256",
          "name": "subtractedValue",
          "type": "uint256"
        }
      ],
      "name": "decreaseAllowance",
      "outputs": [
        {
          "internalType": "bool",
          "name": "",
          "type": "bool"
        }
      ],
      "stateMutability": "nonpayable",
      "type": "function"
    },
    {
      "inputs": [
        {
          "internalType": "address",
          "name": "controller",
          "type": "address"
        },
        {
          "internalType": "address",
          "name": "basetokenAddress",
          "type": "address"
        },
        {
          "internalType": "uint256[]",
          "name": "ssParams",
          "type": "uint256[]"
        },
        {
          "internalType": "address",
          "name": "basetokenSender",
          "type": "address"
        },
        {
          "internalType": "uint256[]",
          "name": "swapFees",
          "type": "uint256[]"
        },
        {
          "internalType": "address",
          "name": "marketFeeCollector",
          "type": "address"
        }
      ],
      "name": "deployPool",
      "outputs": [],
      "stateMutability": "nonpayable",
      "type": "function"
    },
    {
      "inputs": [
        {
          "internalType": "bytes32[]",
          "name": "orderTxIds",
          "type": "bytes32[]"
        },
        {
          "internalType": "address[]",
          "name": "consumers",
          "type": "address[]"
        },
        {
          "internalType": "uint256[]",
          "name": "amounts",
          "type": "uint256[]"
        },
        {
          "internalType": "uint256[]",
          "name": "serviceIds",
          "type": "uint256[]"
        }
      ],
      "name": "finishMultipleOrder",
      "outputs": [],
      "stateMutability": "nonpayable",
      "type": "function"
    },
    {
      "inputs": [
        {
          "internalType": "bytes32",
          "name": "orderTxId",
          "type": "bytes32"
        },
        {
          "internalType": "address",
          "name": "consumer",
          "type": "address"
        },
        {
          "internalType": "uint256",
          "name": "amount",
          "type": "uint256"
        },
        {
          "internalType": "uint256",
          "name": "serviceId",
          "type": "uint256"
        }
      ],
      "name": "finishOrder",
      "outputs": [],
      "stateMutability": "nonpayable",
      "type": "function"
    },
    {
      "inputs": [],
      "name": "getFeeCollector",
      "outputs": [
        {
          "internalType": "address",
          "name": "",
          "type": "address"
        }
      ],
      "stateMutability": "view",
      "type": "function"
    },
    {
      "inputs": [],
      "name": "getId",
      "outputs": [
        {
          "internalType": "uint8",
          "name": "",
          "type": "uint8"
        }
      ],
      "stateMutability": "pure",
      "type": "function"
    },
    {
      "inputs": [
        {
          "internalType": "address",
          "name": "spender",
          "type": "address"
        },
        {
          "internalType": "uint256",
          "name": "addedValue",
          "type": "uint256"
        }
      ],
      "name": "increaseAllowance",
      "outputs": [
        {
          "internalType": "bool",
          "name": "",
          "type": "bool"
        }
      ],
      "stateMutability": "nonpayable",
      "type": "function"
    },
    {
      "inputs": [
        {
          "internalType": "string",
          "name": "name_",
          "type": "string"
        },
        {
          "internalType": "string",
          "name": "symbol_",
          "type": "string"
        },
        {
          "internalType": "address",
          "name": "erc721Address",
          "type": "address"
        },
        {
          "internalType": "uint256",
          "name": "cap_",
          "type": "uint256"
        },
        {
          "internalType": "address",
          "name": "communityFeeCollector",
          "type": "address"
        },
        {
          "internalType": "address",
          "name": "minter",
          "type": "address"
        },
        {
          "internalType": "address",
          "name": "router_",
          "type": "address"
        },
        {
          "internalType": "address",
          "name": "feeManager",
          "type": "address"
        }
      ],
      "name": "initialize",
      "outputs": [
        {
          "internalType": "bool",
          "name": "",
          "type": "bool"
        }
      ],
      "stateMutability": "nonpayable",
      "type": "function"
    },
    {
      "inputs": [],
      "name": "isInitialized",
      "outputs": [
        {
          "internalType": "bool",
          "name": "",
          "type": "bool"
        }
      ],
      "stateMutability": "view",
      "type": "function"
    },
    {
      "inputs": [
        {
          "internalType": "address",
          "name": "account",
          "type": "address"
        },
        {
          "internalType": "uint256",
          "name": "value",
          "type": "uint256"
        }
      ],
      "name": "mint",
      "outputs": [],
      "stateMutability": "nonpayable",
      "type": "function"
    },
    {
      "inputs": [],
      "name": "name",
      "outputs": [
        {
          "internalType": "string",
          "name": "",
          "type": "string"
        }
      ],
      "stateMutability": "view",
      "type": "function"
    },
    {
      "inputs": [
        {
          "internalType": "address",
          "name": "",
          "type": "address"
        }
      ],
      "name": "nonces",
      "outputs": [
        {
          "internalType": "uint256",
          "name": "",
          "type": "uint256"
        }
      ],
      "stateMutability": "view",
      "type": "function"
    },
    {
      "inputs": [
        {
          "internalType": "address",
          "name": "",
          "type": "address"
        }
      ],
      "name": "permissions",
      "outputs": [
        {
          "internalType": "bool",
          "name": "minter",
          "type": "bool"
        },
        {
          "internalType": "bool",
          "name": "feeManager",
          "type": "bool"
        }
      ],
      "stateMutability": "view",
      "type": "function"
    },
    {
      "inputs": [
        {
          "internalType": "address",
          "name": "owner",
          "type": "address"
        },
        {
          "internalType": "address",
          "name": "spender",
          "type": "address"
        },
        {
          "internalType": "uint256",
          "name": "value",
          "type": "uint256"
        },
        {
          "internalType": "uint256",
          "name": "deadline",
          "type": "uint256"
        },
        {
          "internalType": "uint8",
          "name": "v",
          "type": "uint8"
        },
        {
          "internalType": "bytes32",
          "name": "r",
          "type": "bytes32"
        },
        {
          "internalType": "bytes32",
          "name": "s",
          "type": "bytes32"
        }
      ],
      "name": "permit",
      "outputs": [],
      "stateMutability": "nonpayable",
      "type": "function"
    },
    {
      "inputs": [
        {
          "internalType": "address",
          "name": "_feeManager",
          "type": "address"
        }
      ],
      "name": "removeFeeManager",
      "outputs": [],
      "stateMutability": "nonpayable",
      "type": "function"
    },
    {
      "inputs": [
        {
          "internalType": "address",
          "name": "_minter",
          "type": "address"
        }
      ],
      "name": "removeMinter",
      "outputs": [],
      "stateMutability": "nonpayable",
      "type": "function"
    },
    {
      "inputs": [],
      "name": "router",
      "outputs": [
        {
          "internalType": "address",
          "name": "",
          "type": "address"
        }
      ],
      "stateMutability": "view",
      "type": "function"
    },
    {
      "inputs": [
        {
          "internalType": "bytes",
          "name": "_value",
          "type": "bytes"
        }
      ],
      "name": "setData",
      "outputs": [],
      "stateMutability": "nonpayable",
      "type": "function"
    },
    {
      "inputs": [
        {
          "internalType": "address",
          "name": "_newFeeCollector",
          "type": "address"
        }
      ],
      "name": "setFeeCollector",
      "outputs": [],
      "stateMutability": "nonpayable",
      "type": "function"
    },
    {
      "inputs": [
        {
          "internalType": "address[]",
          "name": "consumers",
          "type": "address[]"
        },
        {
          "internalType": "uint256[]",
          "name": "amounts",
          "type": "uint256[]"
        },
        {
          "internalType": "uint256[]",
          "name": "serviceIds",
          "type": "uint256[]"
        },
        {
          "internalType": "address[]",
          "name": "mrktFeeCollectors",
          "type": "address[]"
        },
        {
          "internalType": "address[]",
          "name": "feeTokens",
          "type": "address[]"
        },
        {
          "internalType": "uint256[]",
          "name": "feeAmounts",
          "type": "uint256[]"
        }
      ],
      "name": "startMultipleOrder",
      "outputs": [],
      "stateMutability": "nonpayable",
      "type": "function"
    },
    {
      "inputs": [
        {
          "internalType": "address",
          "name": "consumer",
          "type": "address"
        },
        {
          "internalType": "uint256",
          "name": "amount",
          "type": "uint256"
        },
        {
          "internalType": "uint256",
          "name": "serviceId",
          "type": "uint256"
        },
        {
          "internalType": "address",
          "name": "mrktFeeCollector",
          "type": "address"
        },
        {
          "internalType": "address",
          "name": "feeToken",
          "type": "address"
        },
        {
          "internalType": "uint256",
          "name": "feeAmount",
          "type": "uint256"
        }
      ],
      "name": "startOrder",
      "outputs": [],
      "stateMutability": "nonpayable",
      "type": "function"
    },
    {
      "inputs": [],
      "name": "symbol",
      "outputs": [
        {
          "internalType": "string",
          "name": "",
          "type": "string"
        }
      ],
      "stateMutability": "view",
      "type": "function"
    },
    {
      "inputs": [],
      "name": "totalSupply",
      "outputs": [
        {
          "internalType": "uint256",
          "name": "",
          "type": "uint256"
        }
      ],
      "stateMutability": "view",
      "type": "function"
    },
    {
      "inputs": [
        {
          "internalType": "address",
          "name": "recipient",
          "type": "address"
        },
        {
          "internalType": "uint256",
          "name": "amount",
          "type": "uint256"
        }
      ],
      "name": "transfer",
      "outputs": [
        {
          "internalType": "bool",
          "name": "",
          "type": "bool"
        }
      ],
      "stateMutability": "nonpayable",
      "type": "function"
    },
    {
      "inputs": [
        {
          "internalType": "address",
          "name": "sender",
          "type": "address"
        },
        {
          "internalType": "address",
          "name": "recipient",
          "type": "address"
        },
        {
          "internalType": "uint256",
          "name": "amount",
          "type": "uint256"
        }
      ],
      "name": "transferFrom",
      "outputs": [
        {
          "internalType": "bool",
          "name": "",
          "type": "bool"
        }
      ],
      "stateMutability": "nonpayable",
      "type": "function"
    }
  ],
  "bytecode": "0x6080604052600a805460ff60a01b191690553480156200001e57600080fd5b5060408051808201825260048152631d195cdd60e21b60208083019182528351808501909452600a8452691d195cdd14de5b589bdb60b21b9084015281519192916200006d916003916200008c565b508051620000839060049060208401906200008c565b5050506200016f565b8280546200009a9062000132565b90600052602060002090601f016020900481019282620000be576000855562000109565b82601f10620000d957805160ff191683800117855562000109565b8280016001018555821562000109579182015b8281111562000109578251825591602001919060010190620000ec565b50620001179291506200011b565b5090565b5b808211156200011757600081556001016200011c565b6002810460018216806200014757607f821691505b602082108114156200016957634e487b7160e01b600052602260045260246000fd5b50919050565b61389a806200017f6000396000f3fe608060405234801561001057600080fd5b50600436106102535760003560e01c80634f189cb211610146578063a42dce80116100c3578063d505accf11610087578063d505accf146104a9578063dd62ed3e146104bc578063ec342ad0146104cf578063ef867ff4146104d7578063f887ea40146104ea578063fda9dae7146104f257610253565b8063a42dce801461045d578063a457c2d714610470578063a9059cbb14610483578063ab62f0e114610496578063b2263a5d1461032f57610253565b80638115c9cc1161010a5780638115c9cc1461041457806382c03da5146104275780638ca0c0591461042f57806395d89b4114610442578063983b2d561461044a57610253565b80634f189cb2146103cb5780635d1ca631146103d357806370a08231146103db5780637134a260146103ee5780637ecebe001461040157610253565b80633092afd5116101d4578063392e53cd11610198578063392e53cd14610377578063395093511461037f5780633ed42b6d1461039257806340c10f19146103a55780634dea05fe146103b857610253565b80633092afd51461033757806330adf81f1461034a578063313ce56714610352578063355274ea146103675780633644e5151461036f57610253565b806318160ddd1161021b57806318160ddd146102e15780631ac57089146102f65780631f2d32c31461030957806323b872dd1461031c578063294541c71461032f57610253565b806301e882081461025857806306fdde0314610282578063095ea7b3146102975780630e744e2e146102b757806312fde4b7146102cc575b600080fd5b61026b6102663660046126af565b610505565b604051610279929190612f69565b60405180910390f35b61028a610523565b6040516102799190613072565b6102aa6102a536600461287a565b6105b6565b6040516102799190612f5e565b6102ca6102c5366004612a58565b6105d4565b005b6102d46108b2565b6040516102799190612e3b565b6102e961095f565b6040516102799190612f7b565b6102aa610304366004612bc5565b610965565b6102ca6103173660046126af565b610a1c565b6102aa61032a3660046127cd565b610ad6565b6102e9610b6d565b6102ca6103453660046126af565b610b84565b6102e9610c3a565b61035a610c5e565b60405161027991906136f7565b6102e9610c63565b6102e9610c69565b6102aa610c6f565b6102aa61038d36600461287a565b610c7f565b6102ca6103a036600461296a565b610cce565b6102ca6103b336600461287a565b61112e565b6102ca6103c636600461271f565b6111c5565b6102ca611392565b61035a61145d565b6102e96103e93660046126af565b611462565b6102e96103fc36600461290b565b611481565b6102e961040f3660046126af565b611606565b6102ca6104223660046126af565b611618565b6102ca6116ce565b6102ca61043d366004612b49565b6116f8565b61028a61177b565b6102ca6104583660046126af565b61178a565b6102ca61046b3660046126af565b611840565b6102aa61047e36600461287a565b61189c565b6102aa61049136600461287a565b611917565b6102ca6104a4366004612b85565b61192b565b6102ca6104b736600461280d565b611a64565b6102e96104ca3660046126e7565b611bdf565b6102e9611c0a565b6102d46104e5366004612d16565b611c16565b6102d4611c40565b6102ca6105003660046128a5565b611c4f565b60056020526000908152604090205460ff8082169161010090041682565b606060078054610532906137cd565b80601f016020809104026020016040519081016040528092919081815260200182805461055e906137cd565b80156105ab5780601f10610580576101008083540402835291602001916105ab565b820191906000526020600020905b81548152906001019060200180831161058e57829003601f168201915b505050505090505b90565b60006105ca6105c3611dcd565b8484611dd1565b5060015b92915050565b6040805160208088028281018201909352878252839283926106139290918b918b918291850190849080828437600092019190915250611e8592505050565b146106395760405162461bcd60e51b81526004016106309061320f565b60405180910390fd5b80610676868680806020026020016040519081016040528093929190818152602001838360200280828437600092019190915250611e8592505050565b146106935760405162461bcd60e51b81526004016106309061320f565b806106d08a8a80806020026020016040519081016040528093929190818152602001838360200280828437600092019190915250611e8592505050565b146106ed5760405162461bcd60e51b81526004016106309061320f565b60005b818110156108a65785858281811061071857634e487b7160e01b600052603260045260246000fd5b905060200201356000146107a65761078a88888381811061074957634e487b7160e01b600052603260045260246000fd5b905060200201602081019061075e91906126af565b87878481811061077e57634e487b7160e01b600052603260045260246000fd5b90506020020135611917565b6107a65760405162461bcd60e51b8152600401610630906132f0565b338888838181106107c757634e487b7160e01b600052603260045260246000fd5b90506020020160208101906107dc91906126af565b6001600160a01b03167f46872661d5d7765097d3a97ca99b7cbfa68b54b6d51904168974901ee607a26d8c8c8581811061082657634e487b7160e01b600052603260045260246000fd5b9050602002013589898681811061084d57634e487b7160e01b600052603260045260246000fd5b9050602002013588888781811061087457634e487b7160e01b600052603260045260246000fd5b905060200201354260405161088c9493929190613039565b60405180910390a38061089e81613808565b9150506106f0565b50505050505050505050565b600c546000906001600160a01b031661094d57600b546040516331a9108f60e11b81526001600160a01b0390911690636352211e906108f690600190600401612f7b565b60206040518083038186803b15801561090e57600080fd5b505afa158015610922573d6000803e3d6000fd5b505050506040513d601f19601f8201168201806040525081019061094691906126cb565b90506105b3565b50600c546001600160a01b03166105b3565b60025490565b600a54600090600160a01b900460ff16156109925760405162461bcd60e51b815260040161063090613339565b610a0d8b8b8080601f01602080910402602001604051908101604052809392919081815260200183838082843760009201919091525050604080516020601f8f018190048102820181019092528d815292508d91508c90819084018382808284376000920191909152508c92508b91508a9050898989611e89565b9b9a5050505050505050505050565b600b54604051639e26811960e01b81526000916001600160a01b031690639e26811990610a4d903390600401612e3b565b608060405180830381600087803b158015610a6757600080fd5b505af1158015610a7b573d6000803e3d6000fd5b505050506040513d601f19601f82011682018060405250810190610a9f9190612c9a565b9050806020015115156001151514610ac95760405162461bcd60e51b81526004016106309061338a565b610ad282612037565b5050565b6000610ae38484846120d6565b6001600160a01b038416600090815260016020526040812081610b04611dcd565b6001600160a01b03166001600160a01b0316815260200190815260200160002054905082811015610b475760405162461bcd60e51b815260040161063090613403565b610b6285610b53611dcd565b610b5d86856137b6565b611dd1565b506001949350505050565b610b816103e8670de0b6b3a7640000613777565b81565b600b54604051639e26811960e01b81526000916001600160a01b031690639e26811990610bb5903390600401612e3b565b608060405180830381600087803b158015610bcf57600080fd5b505af1158015610be3573d6000803e3d6000fd5b505050506040513d601f19601f82011682018060405250810190610c079190612c9a565b9050806020015115156001151514610c315760405162461bcd60e51b81526004016106309061338a565b610ad2826121f0565b7f6e71edae12b1b97f4d1f60370fef10105fa2faae0126114a169c64845d6126c981565b601290565b60095490565b600d5481565b600a54600160a01b900460ff1690565b60006105ca610c8c611dcd565b848460016000610c9a611dcd565b6001600160a01b03908116825260208083019390935260409182016000908120918b1681529252902054610b5d919061375f565b835180610cda88611e85565b14610cf75760405162461bcd60e51b81526004016106309061320f565b80610d0187611e85565b14610d1e5760405162461bcd60e51b81526004016106309061320f565b80610d2885611e85565b14610d455760405162461bcd60e51b81526004016106309061320f565b80610d4f83611e85565b14610d6c5760405162461bcd60e51b81526004016106309061320f565b80610d7684611e85565b14610d935760405162461bcd60e51b81526004016106309061320f565b60005b81811015611124576000838281518110610dc057634e487b7160e01b600052603260045260246000fd5b60200260200101511115610ec757838181518110610dee57634e487b7160e01b600052603260045260246000fd5b60200260200101516001600160a01b03166323b872dd33878481518110610e2557634e487b7160e01b600052603260045260246000fd5b6020026020010151868581518110610e4d57634e487b7160e01b600052603260045260246000fd5b60200260200101516040518463ffffffff1660e01b8152600401610e7393929190612e72565b602060405180830381600087803b158015610e8d57600080fd5b505af1158015610ea1573d6000803e3d6000fd5b505050506040513d601f19601f82011682018060405250810190610ec59190612b17565b505b600080610f10898481518110610eed57634e487b7160e01b600052603260045260246000fd5b60200260200101516103e8670de0b6b3a7640000610f0b9190613777565b612211565b600a54909150610f29906001600160a01b031682611917565b5060006001600160a01b0316878481518110610f5557634e487b7160e01b600052603260045260246000fd5b60200260200101516001600160a01b031614610fc357610f8e898481518110610eed57634e487b7160e01b600052603260045260246000fd5b9150610fc1878481518110610fb357634e487b7160e01b600052603260045260246000fd5b602002602001015183611917565b505b6000610fcf8284612250565b9050611016610fdc6108b2565b610491838d888151811061100057634e487b7160e01b600052603260045260246000fd5b602002602001015161225c90919063ffffffff16565b5087848151811061103757634e487b7160e01b600052603260045260246000fd5b60200260200101516001600160a01b0316336001600160a01b03168c868151811061107257634e487b7160e01b600052603260045260246000fd5b60200260200101516001600160a01b03167fe1c4fa794edfa8f619b8257a077398950357b9c6398528f94480307352f9afcc8d88815181106110c457634e487b7160e01b600052603260045260246000fd5b60200260200101518d89815181106110ec57634e487b7160e01b600052603260045260246000fd5b602002602001015142896040516111069493929190613039565b60405180910390a4505050808061111c90613808565b915050610d96565b5050505050505050565b3360009081526005602090815260409182902082518084019093525460ff8082161515808552610100909204161515918301919091526001146111835760405162461bcd60e51b815260040161063090613475565b6009546111988361119261095f565b90612250565b11156111b65760405162461bcd60e51b81526004016106309061356c565b6111c08383612268565b505050565b600b54604051639e26811960e01b81526000916001600160a01b031690639e268119906111f6903390600401612e3b565b608060405180830381600087803b15801561121057600080fd5b505af1158015611224573d6000803e3d6000fd5b505050506040513d601f19601f820116820180604052508101906112489190612c9a565b90508060200151151560011515146112725760405162461bcd60e51b81526004016106309061338a565b61127a61095f565b156112975760405162461bcd60e51b8152600401610630906135a3565b6112a087612328565b6040805180820182523081526001600160a01b038881166020830152600f54600b54935163ac5717ed60e01b815292936000939183169263ac5717ed926112f8928e9288929116908d908d908d908d90600401612e96565b602060405180830381600087803b15801561131257600080fd5b505af1158015611326573d6000803e3d6000fd5b505050506040513d601f19601f8201168201806040525081019061134a91906126cb565b90507fd02da1bec30f7f750aa0a131745dfb9ce96767c45a192dc26409f5d690e0b967818a8a60405161137f93929190612e4f565b60405180910390a1505050505050505050565b600b546040516331a9108f60e11b81526001600160a01b0390911690636352211e906113c390600190600401612f7b565b60206040518083038186803b1580156113db57600080fd5b505afa1580156113ef573d6000803e3d6000fd5b505050506040513d601f19601f8201168201806040525081019061141391906126cb565b6001600160a01b0316336001600160a01b0316146114435760405162461bcd60e51b8152600401610630906134f1565b61144b6123bf565b600c80546001600160a01b0319169055565b600190565b6001600160a01b0381166000908152602081905260409020545b919050565b600b54604051639e26811960e01b815260009182916001600160a01b0390911690639e268119906114b6903390600401612e3b565b608060405180830381600087803b1580156114d057600080fd5b505af11580156114e4573d6000803e3d6000fd5b505050506040513d601f19601f820116820180604052508101906115089190612c9a565b90508060200151151560011515146115325760405162461bcd60e51b81526004016106309061338a565b600f546040516314ac4c2360e11b81526001600160a01b039091169063295898469061156c908b908b908b908b908b908b90600401612f23565b602060405180830381600087803b15801561158657600080fd5b505af115801561159a573d6000803e3d6000fd5b505050506040513d601f19601f820116820180604052508101906115be9190612b31565b91507f7ebefcdd4e9a446510a0409e4c05db735400bb711392dff4546ff90349454d8582868a6040516115f393929190612f84565b60405180910390a1509695505050505050565b600e6020526000908152604090205481565b600b54604051639e26811960e01b81526000916001600160a01b031690639e26811990611649903390600401612e3b565b608060405180830381600087803b15801561166357600080fd5b505af1158015611677573d6000803e3d6000fd5b505050506040513d601f19601f8201168201806040525081019061169b9190612c9a565b90508060200151151560011515146116c55760405162461bcd60e51b81526004016106309061338a565b610ad282612442565b600b546001600160a01b031633146114435760405162461bcd60e51b8152600401610630906132b9565b8115611724576117088383611917565b6117245760405162461bcd60e51b8152600401610630906132f0565b336001600160a01b0316836001600160a01b03167f46872661d5d7765097d3a97ca99b7cbfa68b54b6d51904168974901ee607a26d8685854260405161176d9493929190613039565b60405180910390a350505050565b606060088054610532906137cd565b600b54604051639e26811960e01b81526000916001600160a01b031690639e268119906117bb903390600401612e3b565b608060405180830381600087803b1580156117d557600080fd5b505af11580156117e9573d6000803e3d6000fd5b505050506040513d601f19601f8201168201806040525081019061180d9190612c9a565b90508060200151151560011515146118375760405162461bcd60e51b81526004016106309061338a565b610ad282612328565b3360009081526005602052604090205460ff61010090910416151560011461187a5760405162461bcd60e51b8152600401610630906130c5565b600c80546001600160a01b0319166001600160a01b0392909216919091179055565b600080600160006118ab611dcd565b6001600160a01b03908116825260208083019390935260409182016000908120918816815292529020549050828110156118f75760405162461bcd60e51b81526004016106309061367b565b61190d611902611dcd565b85610b5d86856137b6565b5060019392505050565b60006105ca611924611dcd565b84846120d6565b600b54604051639e26811960e01b81526000916001600160a01b031690639e2681199061195c903390600401612e3b565b608060405180830381600087803b15801561197657600080fd5b505af115801561198a573d6000803e3d6000fd5b505050506040513d601f19601f820116820180604052508101906119ae9190612c9a565b90508060200151151560011515146119d85760405162461bcd60e51b81526004016106309061338a565b6000306040516020016119eb9190612d68565b60408051601f19818403018152908290528051602090910120600b546301caf8fd60e31b83529092506001600160a01b031690630e57c7e890611a3690849088908890600401613003565b600060405180830381600087803b158015611a5057600080fd5b505af1158015611124573d6000803e3d6000fd5b42841015611a845760405162461bcd60e51b81526004016106309061344b565b600d546001600160a01b0388166000908152600e6020526040812080549192917f6e71edae12b1b97f4d1f60370fef10105fa2faae0126114a169c64845d6126c9918b918b918b919087611ad783613808565b919050558a604051602001611af196959493929190612fa3565b60405160208183030381529060405280519060200120604051602001611b18929190612e20565b604051602081830303815290604052805190602001209050600060018286868660405160008152602001604052604051611b559493929190613054565b6020604051602081039080840390855afa158015611b77573d6000803e3d6000fd5b5050604051601f1901519150506001600160a01b03811615801590611bad5750886001600160a01b0316816001600160a01b0316145b611bc95760405162461bcd60e51b815260040161063090613644565b611bd4898989611dd1565b505050505050505050565b6001600160a01b03918216600090815260016020908152604080832093909416825291909152205490565b670de0b6b3a764000081565b60068181548110611c2657600080fd5b6000918252602090912001546001600160a01b0316905081565b600f546001600160a01b031681565b8015611cd9576040516323b872dd60e01b81526001600160a01b038316906323b872dd90611c8590339087908690600401612e72565b602060405180830381600087803b158015611c9f57600080fd5b505af1158015611cb3573d6000803e3d6000fd5b505050506040513d601f19601f82011682018060405250810190611cd79190612b17565b505b600080611cf487610f0b6103e8670de0b6b3a7640000613777565b600a54909150611d0d906001600160a01b031682611917565b506001600160a01b03851615611d4357611d3587610f0b6103e8670de0b6b3a7640000613777565b9150611d418583611917565b505b6000611d4f8284612250565b9050611d66611d5c6108b2565b6104918a8461225c565b50856001600160a01b0316336001600160a01b03168a6001600160a01b03167fe1c4fa794edfa8f619b8257a077398950357b9c6398528f94480307352f9afcc8b8b4289604051611dba9493929190613039565b60405180910390a4505050505050505050565b3390565b6001600160a01b038316611df75760405162461bcd60e51b815260040161063090613528565b6001600160a01b038216611e1d5760405162461bcd60e51b8152600401610630906131cd565b6001600160a01b0380841660008181526001602090815260408083209487168084529490915290819020849055517f8c5be1e5ebec7d5bd14f71427d1e84f3dd0314c0f7b2291e5b200ac8c7c3b92590611e78908590612f7b565b60405180910390a3505050565b5190565b60006001600160a01b038716611eb15760405162461bcd60e51b81526004016106309061313f565b6001600160a01b038516611ed75760405162461bcd60e51b8152600401610630906135e7565b85611ef45760405162461bcd60e51b8152600401610630906133bf565b60098690558851611f0c9060079060208c019061247c565b508751611f209060089060208b019061247c565b50600b80546001600160a01b03199081166001600160a01b038a811691909117909255600f80548216868416179055600a8054600160a01b92169288169290921760ff60a01b1916179055611f7484612328565b611f7d82612037565b60405146907f8b73c3c69bb8fe3d512ecc4cf759cc79239f7b179b0ffacaa9a75d522b39400f90611fb090600790612d85565b60408051918290038220828201825260018352603160f81b602093840152905161200193927fc89efdaa54c0f20c7adf612882df0950f5a951637e0307cdcb4c672f298b8bc6918691309101612fd7565b60408051808303601f190181529190528051602090910120600d555050600a54600160a01b900460ff1698975050505050505050565b6001600160a01b03811660009081526005602052604090208054610100900460ff16156120765760405162461bcd60e51b81526004016106309061318b565b805461ff001916610100179055600680546001810182556000919091527ff652222313e28459528d920b65115c16c04f3efc82aaedc97be59f3f377c0d3f0180546001600160a01b039092166001600160a01b0319909216919091179055565b6001600160a01b0383166120fc5760405162461bcd60e51b8152600401610630906134ac565b6001600160a01b0382166121225760405162461bcd60e51b8152600401610630906130fc565b61212d8383836111c0565b6001600160a01b038316600090815260208190526040902054818110156121665760405162461bcd60e51b815260040161063090613273565b61217082826137b6565b6001600160a01b0380861660009081526020819052604080822093909355908516815290812080548492906121a690849061375f565b92505081905550826001600160a01b0316846001600160a01b03167fddf252ad1be2c89b69c2b068fc378daa952ba7f163c4a11628f55a4df523b3ef8460405161176d9190612f7b565b6001600160a01b03166000908152600560205260409020805460ff19169055565b600082612220575060006105ce565b8161222d575060006105ce565b612249670de0b6b3a76400006122438585612464565b90612470565b9392505050565b6000612249828461375f565b600061224982846137b6565b6001600160a01b03821661228e5760405162461bcd60e51b8152600401610630906136c0565b61229a600083836111c0565b80600260008282546122ac919061375f565b90915550506001600160a01b038216600090815260208190526040812080548392906122d990849061375f565b90915550506040516001600160a01b038316906000907fddf252ad1be2c89b69c2b068fc378daa952ba7f163c4a11628f55a4df523b3ef9061231c908590612f7b565b60405180910390a35050565b6001600160a01b0381166000908152600560205260409020805460ff16156123625760405162461bcd60e51b81526004016106309061323c565b805460ff191660019081179091556006805491820181556000527ff652222313e28459528d920b65115c16c04f3efc82aaedc97be59f3f377c0d3f0180546001600160a01b039092166001600160a01b0319909216919091179055565b60005b60065481101561243357600060056000600684815481106123f357634e487b7160e01b600052603260045260246000fd5b60009182526020808320909101546001600160a01b031683528201929092526040019020805461ffff19169055508061242b81613808565b9150506123c2565b5061244060066000612500565b565b6001600160a01b03166000908152600560205260409020805461ff0019169055565b60006122498284613797565b60006122498284613777565b828054612488906137cd565b90600052602060002090601f0160209004810192826124aa57600085556124f0565b82601f106124c357805160ff19168380011785556124f0565b828001600101855582156124f0579182015b828111156124f05782518255916020019190600101906124d5565b506124fc929150612521565b5090565b508054600082559060005260206000209081019061251e9190612521565b50565b5b808211156124fc5760008155600101612522565b60008083601f840112612547578182fd5b50813567ffffffffffffffff81111561255e578182fd5b602083019150836020808302850101111561257857600080fd5b9250929050565b600082601f83011261258f578081fd5b813560206125a461259f8361372f565b613705565b82815281810190858301838502870184018810156125c0578586fd5b855b858110156125e75781356125d58161384f565b845292840192908401906001016125c2565b5090979650505050505050565b600082601f830112612604578081fd5b8135602061261461259f8361372f565b8281528181019085830183850287018401881015612630578586fd5b855b858110156125e757813584529284019290840190600101612632565b8051801515811461147c57600080fd5b60008083601f84011261266f578182fd5b50813567ffffffffffffffff811115612686578182fd5b60208301915083602082850101111561257857600080fd5b803560ff8116811461147c57600080fd5b6000602082840312156126c0578081fd5b81356122498161384f565b6000602082840312156126dc578081fd5b81516122498161384f565b600080604083850312156126f9578081fd5b82356127048161384f565b915060208301356127148161384f565b809150509250929050565b60008060008060008060c08789031215612737578182fd5b86356127428161384f565b955060208701356127528161384f565b9450604087013567ffffffffffffffff8082111561276e578384fd5b61277a8a838b016125f4565b95506060890135915061278c8261384f565b909350608088013590808211156127a1578384fd5b506127ae89828a016125f4565b92505060a08701356127bf8161384f565b809150509295509295509295565b6000806000606084860312156127e1578283fd5b83356127ec8161384f565b925060208401356127fc8161384f565b929592945050506040919091013590565b600080600080600080600060e0888a031215612827578081fd5b87356128328161384f565b965060208801356128428161384f565b9550604088013594506060880135935061285e6080890161269e565b925060a0880135915060c0880135905092959891949750929550565b6000806040838503121561288c578182fd5b82356128978161384f565b946020939093013593505050565b60008060008060008060c087890312156128bd578384fd5b86356128c88161384f565b9550602087013594506040870135935060608701356128e68161384f565b925060808701356128f68161384f565b8092505060a087013590509295509295509295565b60008060008060008060c08789031215612923578384fd5b863561292e8161384f565b955061293c6020880161269e565b94506040870135935060608701356129538161384f565b92506080870135915060a08701356127bf8161384f565b60008060008060008060c08789031215612982578384fd5b863567ffffffffffffffff80821115612999578586fd5b6129a58a838b0161257f565b975060208901359150808211156129ba578586fd5b6129c68a838b016125f4565b965060408901359150808211156129db578586fd5b6129e78a838b016125f4565b955060608901359150808211156129fc578384fd5b612a088a838b0161257f565b94506080890135915080821115612a1d578384fd5b612a298a838b0161257f565b935060a0890135915080821115612a3e578283fd5b50612a4b89828a016125f4565b9150509295509295509295565b6000806000806000806000806080898b031215612a73578182fd5b883567ffffffffffffffff80821115612a8a578384fd5b612a968c838d01612536565b909a50985060208b0135915080821115612aae578384fd5b612aba8c838d01612536565b909850965060408b0135915080821115612ad2578384fd5b612ade8c838d01612536565b909650945060608b0135915080821115612af6578384fd5b50612b038b828c01612536565b999c989b5096995094979396929594505050565b600060208284031215612b28578081fd5b6122498261264e565b600060208284031215612b42578081fd5b5051919050565b60008060008060808587031215612b5e578182fd5b843593506020850135612b708161384f565b93969395505050506040820135916060013590565b60008060208385031215612b97578182fd5b823567ffffffffffffffff811115612bad578283fd5b612bb98582860161265e565b90969095509350505050565b6000806000806000806000806000806101008b8d031215612be4578384fd5b8a3567ffffffffffffffff80821115612bfb578586fd5b612c078e838f0161265e565b909c509a5060208d0135915080821115612c1f578586fd5b50612c2c8d828e0161265e565b90995097505060408b0135612c408161384f565b955060608b0135945060808b0135612c578161384f565b935060a08b0135612c678161384f565b925060c08b0135612c778161384f565b915060e08b0135612c878161384f565b809150509295989b9194979a5092959850565b600060808284031215612cab578081fd5b6040516080810181811067ffffffffffffffff82111715612cce57612cce613839565b604052612cda8361264e565b8152612ce86020840161264e565b6020820152612cf96040840161264e565b6040820152612d0a6060840161264e565b60608201529392505050565b600060208284031215612d27578081fd5b5035919050565b6000815180845260208085019450808401835b83811015612d5d57815187529582019590820190600101612d41565b509495945050505050565b60609190911b6bffffffffffffffffffffffff1916815260140190565b8154600090819060028104600180831680612da157607f831692505b6020808410821415612dc157634e487b7160e01b87526022600452602487fd5b818015612dd55760018114612de657612e12565b60ff19861689528489019650612e12565b612def8a613753565b885b86811015612e0a5781548b820152908501908301612df1565b505084890196505b509498975050505050505050565b61190160f01b81526002810192909252602282015260420190565b6001600160a01b0391909116815260200190565b6001600160a01b0393841681529183166020830152909116604082015260600190565b6001600160a01b039384168152919092166020820152604081019190915260600190565b6001600160a01b0388811682526000906101009060208085018b855b6002811015612ed1578151851683529183019190830190600101612eb2565b505050508089166060850152816080850152612eef82850189612d2e565b915080871660a085015283820360c0850152612f0b8287612d2e565b925080851660e0850152505098975050505050505050565b6001600160a01b03968716815260ff95909516602086015260408501939093529084166060840152608083015290911660a082015260c00190565b901515815260200190565b91151582521515602082015260400190565b90815260200190565b9283526001600160a01b03918216602084015216604082015260600190565b9586526001600160a01b0394851660208701529290931660408501526060840152608083019190915260a082015260c00190565b9485526020850193909352604084019190915260608301526001600160a01b0316608082015260a00190565b60008482526040602083015282604083015282846060840137818301606090810191909152601f909201601f1916010192915050565b93845260208401929092526040830152606082015260800190565b93845260ff9290921660208401526040830152606082015260800190565b6000602080835283518082850152825b8181101561309e57858101830151858201604001528201613082565b818111156130af5783604083870101525b50601f01601f1916929092016040019392505050565b6020808252601e908201527f455243323054656d706c6174653a204e4f5420464545204d414e414745520000604082015260600190565b60208082526023908201527f45524332303a207472616e7366657220746f20746865207a65726f206164647260408201526265737360e81b606082015260800190565b6020808252602c908201527f455243323054656d706c6174653a20496e76616c6964206d696e7465722c202060408201526b7a65726f206164647265737360a01b606082015260800190565b60208082526022908201527f4552433230526f6c65733a2020414c5245414459204120464545204d414e414760408201526122a960f11b606082015260800190565b60208082526022908201527f45524332303a20617070726f766520746f20746865207a65726f206164647265604082015261737360f01b606082015260800190565b60208082526013908201527215d493d391c8105494905654c81193d4935055606a1b604082015260600190565b6020808252601d908201527f4552433230526f6c65733a2020414c52454144592041204d494e544552000000604082015260600190565b60208082526026908201527f45524332303a207472616e7366657220616d6f756e7420657863656564732062604082015265616c616e636560d01b606082015260800190565b6020808252601f908201527f455243323054656d706c6174653a204e4f542037323120436f6e747261637400604082015260600190565b60208082526029908201527f44617461546f6b656e54656d706c6174653a206661696c656420746f2066696e60408201526834b9b41037b93232b960b91b606082015260800190565b60208082526031908201527f455243323054656d706c6174653a20746f6b656e20696e7374616e636520616c6040820152701c9958591e481a5b9a5d1a585b1a5e9959607a1b606082015260800190565b6020808252818101527f455243323054656d706c6174653a204e4f54204445504c4f59455220524f4c45604082015260600190565b60208082526024908201527f44617461546f6b656e54656d706c6174653a20496e76616c6964206361702076604082015263616c756560e01b606082015260800190565b60208082526028908201527f45524332303a207472616e7366657220616d6f756e74206578636565647320616040820152676c6c6f77616e636560c01b606082015260800190565b60208082526010908201526f115490cc8c11150e881156141254915160821b604082015260600190565b60208082526019908201527f455243323054656d706c6174653a204e4f54204d494e54455200000000000000604082015260600190565b60208082526025908201527f45524332303a207472616e736665722066726f6d20746865207a65726f206164604082015264647265737360d81b606082015260800190565b6020808252601b908201527f455243323054656d706c6174653a206e6f74204e46544f776e65720000000000604082015260600190565b60208082526024908201527f45524332303a20617070726f76652066726f6d20746865207a65726f206164646040820152637265737360e01b606082015260800190565b6020808252601f908201527f44617461546f6b656e54656d706c6174653a2063617020657863656564656400604082015260600190565b60208082526024908201527f455243323054656d706c6174653a20746f6b656e7320616c7265616479206d696040820152631b9d195960e21b606082015260800190565b6020808252603c908201527f455243323054656d706c6174653a20496e76616c696420636f6d6d756e69747960408201527f2066656520636f6c6c6563746f722c207a65726f206164647265737300000000606082015260800190565b6020808252601a908201527f455243323044543a20494e56414c49445f5349474e4154555245000000000000604082015260600190565b60208082526025908201527f45524332303a2064656372656173656420616c6c6f77616e63652062656c6f77604082015264207a65726f60d81b606082015260800190565b6020808252601f908201527f45524332303a206d696e7420746f20746865207a65726f206164647265737300604082015260600190565b60ff91909116815260200190565b60405181810167ffffffffffffffff8111828210171561372757613727613839565b604052919050565b600067ffffffffffffffff82111561374957613749613839565b5060209081020190565b60009081526020902090565b6000821982111561377257613772613823565b500190565b60008261379257634e487b7160e01b81526012600452602481fd5b500490565b60008160001904831182151516156137b1576137b1613823565b500290565b6000828210156137c8576137c8613823565b500390565b6002810460018216806137e157607f821691505b6020821081141561380257634e487b7160e01b600052602260045260246000fd5b50919050565b600060001982141561381c5761381c613823565b5060010190565b634e487b7160e01b600052601160045260246000fd5b634e487b7160e01b600052604160045260246000fd5b6001600160a01b038116811461251e57600080fdfea26469706673582212203ac5f445276eb8e7310b25996f19c9267c888172474ee1dd20e6184dd815111564736f6c63430008000033",
  "linkReferences": {},
  "deployedLinkReferences": {}
}