{
  "_format": "hh-sol-artifact-1",
  "contractName": "ERC20Template",
  "sourceName": "contracts/templates/ERC20Template.sol",
  "abi": [
    {
      "anonymous": false,
      "inputs": [
        {
          "indexed": true,
          "internalType": "address",
          "name": "owner",
          "type": "address"
        },
        {
          "indexed": true,
          "internalType": "address",
          "name": "spender",
          "type": "address"
        },
        {
          "indexed": false,
          "internalType": "uint256",
          "name": "value",
          "type": "uint256"
        }
      ],
      "name": "Approval",
      "type": "event"
    },
    {
      "anonymous": false,
      "inputs": [
        {
          "indexed": false,
          "internalType": "address",
          "name": "currentMinter",
          "type": "address"
        },
        {
          "indexed": false,
          "internalType": "address",
          "name": "newMinter",
          "type": "address"
        }
      ],
      "name": "MinterApproved",
      "type": "event"
    },
    {
      "anonymous": false,
      "inputs": [
        {
          "indexed": false,
          "internalType": "address",
          "name": "currentMinter",
          "type": "address"
        },
        {
          "indexed": false,
          "internalType": "address",
          "name": "newMinter",
          "type": "address"
        }
      ],
      "name": "MinterProposed",
      "type": "event"
    },
    {
      "anonymous": false,
      "inputs": [
        {
          "indexed": false,
          "internalType": "address",
          "name": "poolAddress",
          "type": "address"
        },
        {
          "indexed": false,
          "internalType": "address",
          "name": "ssContract",
          "type": "address"
        },
        {
          "indexed": false,
          "internalType": "address",
          "name": "basetokenAddress",
          "type": "address"
        }
      ],
      "name": "NewPool",
      "type": "event"
    },
    {
      "anonymous": false,
      "inputs": [
        {
          "indexed": false,
          "internalType": "bytes32",
          "name": "orderTxId",
          "type": "bytes32"
        },
        {
          "indexed": true,
          "internalType": "address",
          "name": "consumer",
          "type": "address"
        },
        {
          "indexed": false,
          "internalType": "uint256",
          "name": "amount",
          "type": "uint256"
        },
        {
          "indexed": false,
          "internalType": "uint256",
          "name": "serviceId",
          "type": "uint256"
        },
        {
          "indexed": true,
          "internalType": "address",
          "name": "provider",
          "type": "address"
        },
        {
          "indexed": false,
          "internalType": "uint256",
          "name": "timestamp",
          "type": "uint256"
        }
      ],
      "name": "OrderFinished",
      "type": "event"
    },
    {
      "anonymous": false,
      "inputs": [
        {
          "indexed": true,
          "internalType": "address",
          "name": "consumer",
          "type": "address"
        },
        {
          "indexed": true,
          "internalType": "address",
          "name": "payer",
          "type": "address"
        },
        {
          "indexed": false,
          "internalType": "uint256",
          "name": "amount",
          "type": "uint256"
        },
        {
          "indexed": false,
          "internalType": "uint256",
          "name": "serviceId",
          "type": "uint256"
        },
        {
          "indexed": false,
          "internalType": "uint256",
          "name": "timestamp",
          "type": "uint256"
        },
        {
          "indexed": true,
          "internalType": "address",
          "name": "mrktFeeCollector",
          "type": "address"
        },
        {
          "indexed": false,
          "internalType": "uint256",
          "name": "marketFee",
          "type": "uint256"
        }
      ],
      "name": "OrderStarted",
      "type": "event"
    },
    {
      "anonymous": false,
      "inputs": [
        {
          "indexed": true,
          "internalType": "address",
          "name": "from",
          "type": "address"
        },
        {
          "indexed": true,
          "internalType": "address",
          "name": "to",
          "type": "address"
        },
        {
          "indexed": false,
          "internalType": "uint256",
          "name": "value",
          "type": "uint256"
        }
      ],
      "name": "Transfer",
      "type": "event"
    },
    {
      "inputs": [],
      "name": "BASE",
      "outputs": [
        {
          "internalType": "uint256",
          "name": "",
          "type": "uint256"
        }
      ],
      "stateMutability": "view",
      "type": "function"
    },
    {
      "inputs": [],
      "name": "BASE_COMMUNITY_FEE_PERCENTAGE",
      "outputs": [
        {
          "internalType": "uint256",
          "name": "",
          "type": "uint256"
        }
      ],
      "stateMutability": "view",
      "type": "function"
    },
    {
      "inputs": [],
      "name": "BASE_MARKET_FEE_PERCENTAGE",
      "outputs": [
        {
          "internalType": "uint256",
          "name": "",
          "type": "uint256"
        }
      ],
      "stateMutability": "view",
      "type": "function"
    },
    {
      "inputs": [],
      "name": "DOMAIN_SEPARATOR",
      "outputs": [
        {
          "internalType": "bytes32",
          "name": "",
          "type": "bytes32"
        }
      ],
      "stateMutability": "view",
      "type": "function"
    },
    {
      "inputs": [],
      "name": "PERMIT_TYPEHASH",
      "outputs": [
        {
          "internalType": "bytes32",
          "name": "",
          "type": "bytes32"
        }
      ],
      "stateMutability": "view",
      "type": "function"
    },
    {
      "inputs": [
        {
          "internalType": "address",
          "name": "_feeManager",
          "type": "address"
        }
      ],
      "name": "addFeeManager",
      "outputs": [],
      "stateMutability": "nonpayable",
      "type": "function"
    },
    {
      "inputs": [
        {
          "internalType": "address",
          "name": "_minter",
          "type": "address"
        }
      ],
      "name": "addMinter",
      "outputs": [],
      "stateMutability": "nonpayable",
      "type": "function"
    },
    {
      "inputs": [
        {
          "internalType": "address",
          "name": "owner",
          "type": "address"
        },
        {
          "internalType": "address",
          "name": "spender",
          "type": "address"
        }
      ],
      "name": "allowance",
      "outputs": [
        {
          "internalType": "uint256",
          "name": "",
          "type": "uint256"
        }
      ],
      "stateMutability": "view",
      "type": "function"
    },
    {
      "inputs": [
        {
          "internalType": "address",
          "name": "spender",
          "type": "address"
        },
        {
          "internalType": "uint256",
          "name": "amount",
          "type": "uint256"
        }
      ],
      "name": "approve",
      "outputs": [
        {
          "internalType": "bool",
          "name": "",
          "type": "bool"
        }
      ],
      "stateMutability": "nonpayable",
      "type": "function"
    },
    {
      "inputs": [
        {
          "internalType": "uint256",
          "name": "",
          "type": "uint256"
        }
      ],
      "name": "authERC20",
      "outputs": [
        {
          "internalType": "address",
          "name": "",
          "type": "address"
        }
      ],
      "stateMutability": "view",
      "type": "function"
    },
    {
      "inputs": [
        {
          "internalType": "address",
          "name": "account",
          "type": "address"
        }
      ],
      "name": "balanceOf",
      "outputs": [
        {
          "internalType": "uint256",
          "name": "",
          "type": "uint256"
        }
      ],
      "stateMutability": "view",
      "type": "function"
    },
    {
      "inputs": [],
      "name": "cap",
      "outputs": [
        {
          "internalType": "uint256",
          "name": "",
          "type": "uint256"
        }
      ],
      "stateMutability": "view",
      "type": "function"
    },
    {
      "inputs": [],
      "name": "cleanFrom721",
      "outputs": [],
      "stateMutability": "nonpayable",
      "type": "function"
    },
    {
      "inputs": [],
      "name": "cleanPermissions",
      "outputs": [],
      "stateMutability": "nonpayable",
      "type": "function"
    },
    {
      "inputs": [],
      "name": "decimals",
      "outputs": [
        {
          "internalType": "uint8",
          "name": "",
          "type": "uint8"
        }
      ],
      "stateMutability": "pure",
      "type": "function"
    },
    {
      "inputs": [
        {
          "internalType": "address",
          "name": "spender",
          "type": "address"
        },
        {
          "internalType": "uint256",
          "name": "subtractedValue",
          "type": "uint256"
        }
      ],
      "name": "decreaseAllowance",
      "outputs": [
        {
          "internalType": "bool",
          "name": "",
          "type": "bool"
        }
      ],
      "stateMutability": "nonpayable",
      "type": "function"
    },
    {
      "inputs": [
        {
          "internalType": "address",
          "name": "controller",
          "type": "address"
        },
        {
          "internalType": "address",
          "name": "basetokenAddress",
          "type": "address"
        },
        {
          "internalType": "uint256[]",
          "name": "ssParams",
          "type": "uint256[]"
        },
        {
          "internalType": "address",
          "name": "basetokenSender",
          "type": "address"
        },
        {
          "internalType": "uint256[]",
          "name": "swapFees",
          "type": "uint256[]"
        }
      ],
      "name": "deployPool",
      "outputs": [],
      "stateMutability": "nonpayable",
      "type": "function"
    },
    {
      "inputs": [
        {
          "internalType": "bytes32[]",
          "name": "orderTxIds",
          "type": "bytes32[]"
        },
        {
          "internalType": "address[]",
          "name": "consumers",
          "type": "address[]"
        },
        {
          "internalType": "uint256[]",
          "name": "amounts",
          "type": "uint256[]"
        },
        {
          "internalType": "uint256[]",
          "name": "serviceIds",
          "type": "uint256[]"
        }
      ],
      "name": "finishMultipleOrder",
      "outputs": [],
      "stateMutability": "nonpayable",
      "type": "function"
    },
    {
      "inputs": [
        {
          "internalType": "bytes32",
          "name": "orderTxId",
          "type": "bytes32"
        },
        {
          "internalType": "address",
          "name": "consumer",
          "type": "address"
        },
        {
          "internalType": "uint256",
          "name": "amount",
          "type": "uint256"
        },
        {
          "internalType": "uint256",
          "name": "serviceId",
          "type": "uint256"
        }
      ],
      "name": "finishOrder",
      "outputs": [],
      "stateMutability": "nonpayable",
      "type": "function"
    },
    {
      "inputs": [],
      "name": "getFeeCollector",
      "outputs": [
        {
          "internalType": "address",
          "name": "",
          "type": "address"
        }
      ],
      "stateMutability": "view",
      "type": "function"
    },
    {
      "inputs": [],
      "name": "getId",
      "outputs": [
        {
          "internalType": "uint8",
          "name": "",
          "type": "uint8"
        }
      ],
      "stateMutability": "pure",
      "type": "function"
    },
    {
      "inputs": [
        {
          "internalType": "address",
          "name": "spender",
          "type": "address"
        },
        {
          "internalType": "uint256",
          "name": "addedValue",
          "type": "uint256"
        }
      ],
      "name": "increaseAllowance",
      "outputs": [
        {
          "internalType": "bool",
          "name": "",
          "type": "bool"
        }
      ],
      "stateMutability": "nonpayable",
      "type": "function"
    },
    {
      "inputs": [
        {
          "internalType": "string",
          "name": "name_",
          "type": "string"
        },
        {
          "internalType": "string",
          "name": "symbol_",
          "type": "string"
        },
        {
          "internalType": "address",
          "name": "erc721Address",
          "type": "address"
        },
        {
          "internalType": "uint256",
          "name": "cap_",
          "type": "uint256"
        },
        {
          "internalType": "address",
          "name": "communityFeeCollector",
          "type": "address"
        },
        {
          "internalType": "address",
          "name": "minter",
          "type": "address"
        },
        {
          "internalType": "address",
          "name": "router_",
          "type": "address"
        },
        {
          "internalType": "address",
          "name": "feeManager",
          "type": "address"
        }
      ],
      "name": "initialize",
      "outputs": [
        {
          "internalType": "bool",
          "name": "",
          "type": "bool"
        }
      ],
      "stateMutability": "nonpayable",
      "type": "function"
    },
    {
      "inputs": [],
      "name": "isInitialized",
      "outputs": [
        {
          "internalType": "bool",
          "name": "",
          "type": "bool"
        }
      ],
      "stateMutability": "view",
      "type": "function"
    },
    {
      "inputs": [
        {
          "internalType": "address",
          "name": "account",
          "type": "address"
        },
        {
          "internalType": "uint256",
          "name": "value",
          "type": "uint256"
        }
      ],
      "name": "mint",
      "outputs": [],
      "stateMutability": "nonpayable",
      "type": "function"
    },
    {
      "inputs": [],
      "name": "name",
      "outputs": [
        {
          "internalType": "string",
          "name": "",
          "type": "string"
        }
      ],
      "stateMutability": "view",
      "type": "function"
    },
    {
      "inputs": [
        {
          "internalType": "address",
          "name": "",
          "type": "address"
        }
      ],
      "name": "nonces",
      "outputs": [
        {
          "internalType": "uint256",
          "name": "",
          "type": "uint256"
        }
      ],
      "stateMutability": "view",
      "type": "function"
    },
    {
      "inputs": [
        {
          "internalType": "address",
          "name": "",
          "type": "address"
        }
      ],
      "name": "permissions",
      "outputs": [
        {
          "internalType": "bool",
          "name": "minter",
          "type": "bool"
        },
        {
          "internalType": "bool",
          "name": "feeManager",
          "type": "bool"
        }
      ],
      "stateMutability": "view",
      "type": "function"
    },
    {
      "inputs": [
        {
          "internalType": "address",
          "name": "owner",
          "type": "address"
        },
        {
          "internalType": "address",
          "name": "spender",
          "type": "address"
        },
        {
          "internalType": "uint256",
          "name": "value",
          "type": "uint256"
        },
        {
          "internalType": "uint256",
          "name": "deadline",
          "type": "uint256"
        },
        {
          "internalType": "uint8",
          "name": "v",
          "type": "uint8"
        },
        {
          "internalType": "bytes32",
          "name": "r",
          "type": "bytes32"
        },
        {
          "internalType": "bytes32",
          "name": "s",
          "type": "bytes32"
        }
      ],
      "name": "permit",
      "outputs": [],
      "stateMutability": "nonpayable",
      "type": "function"
    },
    {
      "inputs": [
        {
          "internalType": "address",
          "name": "_feeManager",
          "type": "address"
        }
      ],
      "name": "removeFeeManager",
      "outputs": [],
      "stateMutability": "nonpayable",
      "type": "function"
    },
    {
      "inputs": [
        {
          "internalType": "address",
          "name": "_minter",
          "type": "address"
        }
      ],
      "name": "removeMinter",
      "outputs": [],
      "stateMutability": "nonpayable",
      "type": "function"
    },
    {
      "inputs": [],
      "name": "router",
      "outputs": [
        {
          "internalType": "address",
          "name": "",
          "type": "address"
        }
      ],
      "stateMutability": "view",
      "type": "function"
    },
    {
      "inputs": [
        {
          "internalType": "bytes",
          "name": "_value",
          "type": "bytes"
        }
      ],
      "name": "setData",
      "outputs": [],
      "stateMutability": "nonpayable",
      "type": "function"
    },
    {
      "inputs": [
        {
          "internalType": "address",
          "name": "_newFeeCollector",
          "type": "address"
        }
      ],
      "name": "setFeeCollector",
      "outputs": [],
      "stateMutability": "nonpayable",
      "type": "function"
    },
    {
      "inputs": [
        {
          "internalType": "address[]",
          "name": "consumers",
          "type": "address[]"
        },
        {
          "internalType": "uint256[]",
          "name": "amounts",
          "type": "uint256[]"
        },
        {
          "internalType": "uint256[]",
          "name": "serviceIds",
          "type": "uint256[]"
        },
        {
          "internalType": "address[]",
          "name": "mrktFeeCollectors",
          "type": "address[]"
        },
        {
          "internalType": "address[]",
          "name": "feeTokens",
          "type": "address[]"
        },
        {
          "internalType": "uint256[]",
          "name": "feeAmounts",
          "type": "uint256[]"
        }
      ],
      "name": "startMultipleOrder",
      "outputs": [],
      "stateMutability": "nonpayable",
      "type": "function"
    },
    {
      "inputs": [
        {
          "internalType": "address",
          "name": "consumer",
          "type": "address"
        },
        {
          "internalType": "uint256",
          "name": "amount",
          "type": "uint256"
        },
        {
          "internalType": "uint256",
          "name": "serviceId",
          "type": "uint256"
        },
        {
          "internalType": "address",
          "name": "mrktFeeCollector",
          "type": "address"
        },
        {
          "internalType": "address",
          "name": "feeToken",
          "type": "address"
        },
        {
          "internalType": "uint256",
          "name": "feeAmount",
          "type": "uint256"
        }
      ],
      "name": "startOrder",
      "outputs": [],
      "stateMutability": "nonpayable",
      "type": "function"
    },
    {
      "inputs": [],
      "name": "symbol",
      "outputs": [
        {
          "internalType": "string",
          "name": "",
          "type": "string"
        }
      ],
      "stateMutability": "view",
      "type": "function"
    },
    {
      "inputs": [],
      "name": "totalSupply",
      "outputs": [
        {
          "internalType": "uint256",
          "name": "",
          "type": "uint256"
        }
      ],
      "stateMutability": "view",
      "type": "function"
    },
    {
      "inputs": [
        {
          "internalType": "address",
          "name": "recipient",
          "type": "address"
        },
        {
          "internalType": "uint256",
          "name": "amount",
          "type": "uint256"
        }
      ],
      "name": "transfer",
      "outputs": [
        {
          "internalType": "bool",
          "name": "",
          "type": "bool"
        }
      ],
      "stateMutability": "nonpayable",
      "type": "function"
    },
    {
      "inputs": [
        {
          "internalType": "address",
          "name": "sender",
          "type": "address"
        },
        {
          "internalType": "address",
          "name": "recipient",
          "type": "address"
        },
        {
          "internalType": "uint256",
          "name": "amount",
          "type": "uint256"
        }
      ],
      "name": "transferFrom",
      "outputs": [
        {
          "internalType": "bool",
          "name": "",
          "type": "bool"
        }
      ],
      "stateMutability": "nonpayable",
      "type": "function"
    }
  ],
  "bytecode": "0x6080604052600a805460ff60a01b191690553480156200001e57600080fd5b5060408051808201825260048152631d195cdd60e21b60208083019182528351808501909452600a8452691d195cdd14de5b589bdb60b21b9084015281519192916200006d916003916200008c565b508051620000839060049060208401906200008c565b5050506200016f565b8280546200009a9062000132565b90600052602060002090601f016020900481019282620000be576000855562000109565b82601f10620000d957805160ff191683800117855562000109565b8280016001018555821562000109579182015b8281111562000109578251825591602001919060010190620000ec565b50620001179291506200011b565b5090565b5b808211156200011757600081556001016200011c565b6002810460018216806200014757607f821691505b602082108114156200016957634e487b7160e01b600052602260045260246000fd5b50919050565b61369a806200017f6000396000f3fe608060405234801561001057600080fd5b50600436106102485760003560e01c80635d1ca6311161013b578063a457c2d7116100b8578063dd62ed3e1161007c578063dd62ed3e1461049e578063ec342ad0146104b1578063ef867ff4146104b9578063f887ea40146104cc578063fda9dae7146104d457610248565b8063a457c2d714610452578063a9059cbb14610465578063ab62f0e114610478578063b2263a5d14610324578063d505accf1461048b57610248565b80638ca0c059116100ff5780638ca0c059146103fe57806395d89b4114610411578063983b2d56146104195780639a253e651461042c578063a42dce801461043f57610248565b80635d1ca631146103b557806370a08231146103bd5780637ecebe00146103d05780638115c9cc146103e357806382c03da5146103f657610248565b80633092afd5116101c9578063392e53cd1161018d578063392e53cd1461036c57806339509351146103745780633ed42b6d1461038757806340c10f191461039a5780634f189cb2146103ad57610248565b80633092afd51461032c57806330adf81f1461033f578063313ce56714610347578063355274ea1461035c5780633644e5151461036457610248565b806318160ddd1161021057806318160ddd146102d65780631ac57089146102eb5780631f2d32c3146102fe57806323b872dd14610311578063294541c71461032457610248565b806301e882081461024d57806306fdde0314610277578063095ea7b31461028c5780630e744e2e146102ac57806312fde4b7146102c1575b600080fd5b61026061025b366004612591565b6104e7565b60405161026e929190612dc8565b60405180910390f35b61027f610505565b60405161026e9190612eb2565b61029f61029a366004612751565b610598565b60405161026e9190612dbd565b6102bf6102ba3660046128d0565b6105b6565b005b6102c9610894565b60405161026e9190612ce2565b6102de610941565b60405161026e9190612dda565b61029f6102f9366004612a25565b610947565b6102bf61030c366004612591565b6109fe565b61029f61031f36600461269c565b610ab8565b6102de610b4f565b6102bf61033a366004612591565b610b66565b6102de610c1c565b61034f610c40565b60405161026e91906134f7565b6102de610c45565b6102de610c4b565b61029f610c51565b61029f610382366004612751565b610c61565b6102bf6103953660046127e2565b610cb0565b6102bf6103a8366004612751565b611110565b6102bf6111a7565b61034f611272565b6102de6103cb366004612591565b611277565b6102de6103de366004612591565b611296565b6102bf6103f1366004612591565b6112a8565b6102bf61135e565b6102bf61040c3660046129a9565b611388565b61027f61140b565b6102bf610427366004612591565b61141a565b6102bf61043a366004612601565b6114d0565b6102bf61044d366004612591565b6116c2565b61029f610460366004612751565b61171e565b61029f610473366004612751565b611799565b6102bf6104863660046129e5565b6117ad565b6102bf6104993660046126dc565b6118e6565b6102de6104ac3660046125c9565b611a61565b6102de611a8c565b6102c96104c7366004612b72565b611a98565b6102c9611ac2565b6102bf6104e236600461277c565b611ad1565b60056020526000908152604090205460ff8082169161010090041682565b606060078054610514906135cd565b80601f0160208091040260200160405190810160405280929190818152602001828054610540906135cd565b801561058d5780601f106105625761010080835404028352916020019161058d565b820191906000526020600020905b81548152906001019060200180831161057057829003601f168201915b505050505090505b90565b60006105ac6105a5611c4f565b8484611c53565b5060015b92915050565b6040805160208088028281018201909352878252839283926105f59290918b918b918291850190849080828437600092019190915250611d0792505050565b1461061b5760405162461bcd60e51b81526004016106129061300f565b60405180910390fd5b80610658868680806020026020016040519081016040528093929190818152602001838360200280828437600092019190915250611d0792505050565b146106755760405162461bcd60e51b81526004016106129061300f565b806106b28a8a80806020026020016040519081016040528093929190818152602001838360200280828437600092019190915250611d0792505050565b146106cf5760405162461bcd60e51b81526004016106129061300f565b60005b81811015610888578585828181106106fa57634e487b7160e01b600052603260045260246000fd5b905060200201356000146107885761076c88888381811061072b57634e487b7160e01b600052603260045260246000fd5b90506020020160208101906107409190612591565b87878481811061076057634e487b7160e01b600052603260045260246000fd5b90506020020135611799565b6107885760405162461bcd60e51b8152600401610612906130f0565b338888838181106107a957634e487b7160e01b600052603260045260246000fd5b90506020020160208101906107be9190612591565b6001600160a01b03167f46872661d5d7765097d3a97ca99b7cbfa68b54b6d51904168974901ee607a26d8c8c8581811061080857634e487b7160e01b600052603260045260246000fd5b9050602002013589898681811061082f57634e487b7160e01b600052603260045260246000fd5b9050602002013588888781811061085657634e487b7160e01b600052603260045260246000fd5b905060200201354260405161086e9493929190612e79565b60405180910390a38061088081613608565b9150506106d2565b50505050505050505050565b600c546000906001600160a01b031661092f57600b546040516331a9108f60e11b81526001600160a01b0390911690636352211e906108d890600190600401612dda565b60206040518083038186803b1580156108f057600080fd5b505afa158015610904573d6000803e3d6000fd5b505050506040513d601f19601f8201168201806040525081019061092891906125ad565b9050610595565b50600c546001600160a01b0316610595565b60025490565b600a54600090600160a01b900460ff16156109745760405162461bcd60e51b815260040161061290613139565b6109ef8b8b8080601f01602080910402602001604051908101604052809392919081815260200183838082843760009201919091525050604080516020601f8f018190048102820181019092528d815292508d91508c90819084018382808284376000920191909152508c92508b91508a9050898989611d0b565b9b9a5050505050505050505050565b600b54604051639e26811960e01b81526000916001600160a01b031690639e26811990610a2f903390600401612ce2565b608060405180830381600087803b158015610a4957600080fd5b505af1158015610a5d573d6000803e3d6000fd5b505050506040513d601f19601f82011682018060405250810190610a819190612af6565b9050806020015115156001151514610aab5760405162461bcd60e51b81526004016106129061318a565b610ab482611eb9565b5050565b6000610ac5848484611f58565b6001600160a01b038416600090815260016020526040812081610ae6611c4f565b6001600160a01b03166001600160a01b0316815260200190815260200160002054905082811015610b295760405162461bcd60e51b815260040161061290613203565b610b4485610b35611c4f565b610b3f86856135b6565b611c53565b506001949350505050565b610b636103e8670de0b6b3a7640000613577565b81565b600b54604051639e26811960e01b81526000916001600160a01b031690639e26811990610b97903390600401612ce2565b608060405180830381600087803b158015610bb157600080fd5b505af1158015610bc5573d6000803e3d6000fd5b505050506040513d601f19601f82011682018060405250810190610be99190612af6565b9050806020015115156001151514610c135760405162461bcd60e51b81526004016106129061318a565b610ab482612072565b7f6e71edae12b1b97f4d1f60370fef10105fa2faae0126114a169c64845d6126c981565b601290565b60095490565b600d5481565b600a54600160a01b900460ff1690565b60006105ac610c6e611c4f565b848460016000610c7c611c4f565b6001600160a01b03908116825260208083019390935260409182016000908120918b1681529252902054610b3f919061355f565b835180610cbc88611d07565b14610cd95760405162461bcd60e51b81526004016106129061300f565b80610ce387611d07565b14610d005760405162461bcd60e51b81526004016106129061300f565b80610d0a85611d07565b14610d275760405162461bcd60e51b81526004016106129061300f565b80610d3183611d07565b14610d4e5760405162461bcd60e51b81526004016106129061300f565b80610d5884611d07565b14610d755760405162461bcd60e51b81526004016106129061300f565b60005b81811015611106576000838281518110610da257634e487b7160e01b600052603260045260246000fd5b60200260200101511115610ea957838181518110610dd057634e487b7160e01b600052603260045260246000fd5b60200260200101516001600160a01b03166323b872dd33878481518110610e0757634e487b7160e01b600052603260045260246000fd5b6020026020010151868581518110610e2f57634e487b7160e01b600052603260045260246000fd5b60200260200101516040518463ffffffff1660e01b8152600401610e5593929190612d6d565b602060405180830381600087803b158015610e6f57600080fd5b505af1158015610e83573d6000803e3d6000fd5b505050506040513d601f19601f82011682018060405250810190610ea7919061298f565b505b600080610ef2898481518110610ecf57634e487b7160e01b600052603260045260246000fd5b60200260200101516103e8670de0b6b3a7640000610eed9190613577565b612093565b600a54909150610f0b906001600160a01b031682611799565b5060006001600160a01b0316878481518110610f3757634e487b7160e01b600052603260045260246000fd5b60200260200101516001600160a01b031614610fa557610f70898481518110610ecf57634e487b7160e01b600052603260045260246000fd5b9150610fa3878481518110610f9557634e487b7160e01b600052603260045260246000fd5b602002602001015183611799565b505b6000610fb182846120d2565b9050610ff8610fbe610894565b610473838d8881518110610fe257634e487b7160e01b600052603260045260246000fd5b60200260200101516120de90919063ffffffff16565b5087848151811061101957634e487b7160e01b600052603260045260246000fd5b60200260200101516001600160a01b0316336001600160a01b03168c868151811061105457634e487b7160e01b600052603260045260246000fd5b60200260200101516001600160a01b03167fe1c4fa794edfa8f619b8257a077398950357b9c6398528f94480307352f9afcc8d88815181106110a657634e487b7160e01b600052603260045260246000fd5b60200260200101518d89815181106110ce57634e487b7160e01b600052603260045260246000fd5b602002602001015142896040516110e89493929190612e79565b60405180910390a450505080806110fe90613608565b915050610d78565b5050505050505050565b3360009081526005602090815260409182902082518084019093525460ff8082161515808552610100909204161515918301919091526001146111655760405162461bcd60e51b815260040161061290613275565b60095461117a83611174610941565b906120d2565b11156111985760405162461bcd60e51b81526004016106129061336c565b6111a283836120ea565b505050565b600b546040516331a9108f60e11b81526001600160a01b0390911690636352211e906111d890600190600401612dda565b60206040518083038186803b1580156111f057600080fd5b505afa158015611204573d6000803e3d6000fd5b505050506040513d601f19601f8201168201806040525081019061122891906125ad565b6001600160a01b0316336001600160a01b0316146112585760405162461bcd60e51b8152600401610612906132f1565b6112606121aa565b600c80546001600160a01b0319169055565b600190565b6001600160a01b0381166000908152602081905260409020545b919050565b600e6020526000908152604090205481565b600b54604051639e26811960e01b81526000916001600160a01b031690639e268119906112d9903390600401612ce2565b608060405180830381600087803b1580156112f357600080fd5b505af1158015611307573d6000803e3d6000fd5b505050506040513d601f19601f8201168201806040525081019061132b9190612af6565b90508060200151151560011515146113555760405162461bcd60e51b81526004016106129061318a565b610ab48261222d565b600b546001600160a01b031633146112585760405162461bcd60e51b8152600401610612906130b9565b81156113b4576113988383611799565b6113b45760405162461bcd60e51b8152600401610612906130f0565b336001600160a01b0316836001600160a01b03167f46872661d5d7765097d3a97ca99b7cbfa68b54b6d51904168974901ee607a26d868585426040516113fd9493929190612e79565b60405180910390a350505050565b606060088054610514906135cd565b600b54604051639e26811960e01b81526000916001600160a01b031690639e2681199061144b903390600401612ce2565b608060405180830381600087803b15801561146557600080fd5b505af1158015611479573d6000803e3d6000fd5b505050506040513d601f19601f8201168201806040525081019061149d9190612af6565b90508060200151151560011515146114c75760405162461bcd60e51b81526004016106129061318a565b610ab48261224f565b600b54604051639e26811960e01b81526000916001600160a01b031690639e26811990611501903390600401612ce2565b608060405180830381600087803b15801561151b57600080fd5b505af115801561152f573d6000803e3d6000fd5b505050506040513d601f19601f820116820180604052508101906115539190612af6565b905080602001511515600115151461157d5760405162461bcd60e51b81526004016106129061318a565b611585610941565b156115a25760405162461bcd60e51b8152600401610612906133a3565b6115ab8661224f565b600f5460408051808201909152600e81526d726f75746572206164647265737360901b60208201526115e6916001600160a01b0316906122e6565b600f54600b5460405163baa94a5960e01b81526000926001600160a01b039081169263baa94a599261162a928c9230928d92909116908c908c908c90600401612d19565b602060405180830381600087803b15801561164457600080fd5b505af1158015611658573d6000803e3d6000fd5b505050506040513d601f19601f8201168201806040525081019061167c91906125ad565b90507fd02da1bec30f7f750aa0a131745dfb9ce96767c45a192dc26409f5d690e0b9678188886040516116b193929190612cf6565b60405180910390a150505050505050565b3360009081526005602052604090205460ff6101009091041615156001146116fc5760405162461bcd60e51b815260040161061290612ec5565b600c80546001600160a01b0319166001600160a01b0392909216919091179055565b6000806001600061172d611c4f565b6001600160a01b03908116825260208083019390935260409182016000908120918816815292529020549050828110156117795760405162461bcd60e51b81526004016106129061347b565b61178f611784611c4f565b85610b3f86856135b6565b5060019392505050565b60006105ac6117a6611c4f565b8484611f58565b600b54604051639e26811960e01b81526000916001600160a01b031690639e268119906117de903390600401612ce2565b608060405180830381600087803b1580156117f857600080fd5b505af115801561180c573d6000803e3d6000fd5b505050506040513d601f19601f820116820180604052508101906118309190612af6565b905080602001511515600115151461185a5760405162461bcd60e51b81526004016106129061318a565b60003060405160200161186d9190612c0f565b60408051601f19818403018152908290528051602090910120600b546301caf8fd60e31b83529092506001600160a01b031690630e57c7e8906118b890849088908890600401612e43565b600060405180830381600087803b1580156118d257600080fd5b505af1158015611106573d6000803e3d6000fd5b428410156119065760405162461bcd60e51b81526004016106129061324b565b600d546001600160a01b0388166000908152600e6020526040812080549192917f6e71edae12b1b97f4d1f60370fef10105fa2faae0126114a169c64845d6126c9918b918b918b91908761195983613608565b919050558a60405160200161197396959493929190612de3565b6040516020818303038152906040528051906020012060405160200161199a929190612cc7565b6040516020818303038152906040528051906020012090506000600182868686604051600081526020016040526040516119d79493929190612e94565b6020604051602081039080840390855afa1580156119f9573d6000803e3d6000fd5b5050604051601f1901519150506001600160a01b03811615801590611a2f5750886001600160a01b0316816001600160a01b0316145b611a4b5760405162461bcd60e51b815260040161061290613444565b611a56898989611c53565b505050505050505050565b6001600160a01b03918216600090815260016020908152604080832093909416825291909152205490565b670de0b6b3a764000081565b60068181548110611aa857600080fd5b6000918252602090912001546001600160a01b0316905081565b600f546001600160a01b031681565b8015611b5b576040516323b872dd60e01b81526001600160a01b038316906323b872dd90611b0790339087908690600401612d6d565b602060405180830381600087803b158015611b2157600080fd5b505af1158015611b35573d6000803e3d6000fd5b505050506040513d601f19601f82011682018060405250810190611b59919061298f565b505b600080611b7687610eed6103e8670de0b6b3a7640000613577565b600a54909150611b8f906001600160a01b031682611799565b506001600160a01b03851615611bc557611bb787610eed6103e8670de0b6b3a7640000613577565b9150611bc38583611799565b505b6000611bd182846120d2565b9050611be8611bde610894565b6104738a846120de565b50856001600160a01b0316336001600160a01b03168a6001600160a01b03167fe1c4fa794edfa8f619b8257a077398950357b9c6398528f94480307352f9afcc8b8b4289604051611c3c9493929190612e79565b60405180910390a4505050505050505050565b3390565b6001600160a01b038316611c795760405162461bcd60e51b815260040161061290613328565b6001600160a01b038216611c9f5760405162461bcd60e51b815260040161061290612fcd565b6001600160a01b0380841660008181526001602090815260408083209487168084529490915290819020849055517f8c5be1e5ebec7d5bd14f71427d1e84f3dd0314c0f7b2291e5b200ac8c7c3b92590611cfa908590612dda565b60405180910390a3505050565b5190565b60006001600160a01b038716611d335760405162461bcd60e51b815260040161061290612f3f565b6001600160a01b038516611d595760405162461bcd60e51b8152600401610612906133e7565b85611d765760405162461bcd60e51b8152600401610612906131bf565b60098690558851611d8e9060079060208c0190612364565b508751611da29060089060208b0190612364565b50600b80546001600160a01b03199081166001600160a01b038a811691909117909255600f80548216868416179055600a8054600160a01b92169288169290921760ff60a01b1916179055611df68461224f565b611dff82611eb9565b60405146907f8b73c3c69bb8fe3d512ecc4cf759cc79239f7b179b0ffacaa9a75d522b39400f90611e3290600790612c2c565b60408051918290038220828201825260018352603160f81b6020938401529051611e8393927fc89efdaa54c0f20c7adf612882df0950f5a951637e0307cdcb4c672f298b8bc6918691309101612e17565b60408051808303601f190181529190528051602090910120600d555050600a54600160a01b900460ff1698975050505050505050565b6001600160a01b03811660009081526005602052604090208054610100900460ff1615611ef85760405162461bcd60e51b815260040161061290612f8b565b805461ff001916610100179055600680546001810182556000919091527ff652222313e28459528d920b65115c16c04f3efc82aaedc97be59f3f377c0d3f0180546001600160a01b039092166001600160a01b0319909216919091179055565b6001600160a01b038316611f7e5760405162461bcd60e51b8152600401610612906132ac565b6001600160a01b038216611fa45760405162461bcd60e51b815260040161061290612efc565b611faf8383836111a2565b6001600160a01b03831660009081526020819052604090205481811015611fe85760405162461bcd60e51b815260040161061290613073565b611ff282826135b6565b6001600160a01b03808616600090815260208190526040808220939093559085168152908120805484929061202890849061355f565b92505081905550826001600160a01b0316846001600160a01b03167fddf252ad1be2c89b69c2b068fc378daa952ba7f163c4a11628f55a4df523b3ef846040516113fd9190612dda565b6001600160a01b03166000908152600560205260409020805460ff19169055565b6000826120a2575060006105b0565b816120af575060006105b0565b6120cb670de0b6b3a76400006120c5858561232b565b90612337565b9392505050565b60006120cb828461355f565b60006120cb82846135b6565b6001600160a01b0382166121105760405162461bcd60e51b8152600401610612906134c0565b61211c600083836111a2565b806002600082825461212e919061355f565b90915550506001600160a01b0382166000908152602081905260408120805483929061215b90849061355f565b90915550506040516001600160a01b038316906000907fddf252ad1be2c89b69c2b068fc378daa952ba7f163c4a11628f55a4df523b3ef9061219e908590612dda565b60405180910390a35050565b60005b60065481101561221e57600060056000600684815481106121de57634e487b7160e01b600052603260045260246000fd5b60009182526020808320909101546001600160a01b031683528201929092526040019020805461ffff19169055508061221681613608565b9150506121ad565b5061222b600660006123e8565b565b6001600160a01b03166000908152600560205260409020805461ff0019169055565b6001600160a01b0381166000908152600560205260409020805460ff16156122895760405162461bcd60e51b81526004016106129061303c565b805460ff191660019081179091556006805491820181556000527ff652222313e28459528d920b65115c16c04f3efc82aaedc97be59f3f377c0d3f0180546001600160a01b039092166001600160a01b0319909216919091179055565b610ab482826040516024016122fc929190612d91565b60408051601f198184030181529190526020810180516001600160e01b031663759f86bb60e01b179052612343565b60006120cb8284613597565b60006120cb8284613577565b80516a636f6e736f6c652e6c6f67602083016000808483855afa5050505050565b828054612370906135cd565b90600052602060002090601f01602090048101928261239257600085556123d8565b82601f106123ab57805160ff19168380011785556123d8565b828001600101855582156123d8579182015b828111156123d85782518255916020019190600101906123bd565b506123e4929150612409565b5090565b50805460008255906000526020600020908101906124069190612409565b50565b5b808211156123e4576000815560010161240a565b80356112918161364f565b60008083601f84011261243a578182fd5b50813567ffffffffffffffff811115612451578182fd5b602083019150836020808302850101111561246b57600080fd5b9250929050565b600082601f830112612482578081fd5b813560206124976124928361352f565b613505565b82815281810190858301838502870184018810156124b3578586fd5b855b858110156124da5781356124c88161364f565b845292840192908401906001016124b5565b5090979650505050505050565b600082601f8301126124f7578081fd5b813560206125076124928361352f565b8281528181019085830183850287018401881015612523578586fd5b855b858110156124da57813584529284019290840190600101612525565b8051801515811461129157600080fd5b60008083601f840112612562578182fd5b50813567ffffffffffffffff811115612579578182fd5b60208301915083602082850101111561246b57600080fd5b6000602082840312156125a2578081fd5b81356120cb8161364f565b6000602082840312156125be578081fd5b81516120cb8161364f565b600080604083850312156125db578081fd5b82356125e68161364f565b915060208301356125f68161364f565b809150509250929050565b600080600080600060a08688031215612618578081fd5b85356126238161364f565b945060208601356126338161364f565b9350604086013567ffffffffffffffff8082111561264f578283fd5b61265b89838a016124e7565b94506060880135915061266d8261364f565b90925060808701359080821115612682578283fd5b5061268f888289016124e7565b9150509295509295909350565b6000806000606084860312156126b0578283fd5b83356126bb8161364f565b925060208401356126cb8161364f565b929592945050506040919091013590565b600080600080600080600060e0888a0312156126f6578182fd5b87356127018161364f565b965060208801356127118161364f565b95506040880135945060608801359350608088013560ff81168114612734578283fd5b9699959850939692959460a0840135945060c09093013592915050565b60008060408385031215612763578182fd5b823561276e8161364f565b946020939093013593505050565b60008060008060008060c08789031215612794578384fd5b863561279f8161364f565b9550602087013594506040870135935060608701356127bd8161364f565b925060808701356127cd8161364f565b8092505060a087013590509295509295509295565b60008060008060008060c087890312156127fa578384fd5b863567ffffffffffffffff80821115612811578586fd5b61281d8a838b01612472565b97506020890135915080821115612832578586fd5b61283e8a838b016124e7565b96506040890135915080821115612853578586fd5b61285f8a838b016124e7565b95506060890135915080821115612874578384fd5b6128808a838b01612472565b94506080890135915080821115612895578384fd5b6128a18a838b01612472565b935060a08901359150808211156128b6578283fd5b506128c389828a016124e7565b9150509295509295509295565b6000806000806000806000806080898b0312156128eb578182fd5b883567ffffffffffffffff80821115612902578384fd5b61290e8c838d01612429565b909a50985060208b0135915080821115612926578384fd5b6129328c838d01612429565b909850965060408b013591508082111561294a578384fd5b6129568c838d01612429565b909650945060608b013591508082111561296e578384fd5b5061297b8b828c01612429565b999c989b5096995094979396929594505050565b6000602082840312156129a0578081fd5b6120cb82612541565b600080600080608085870312156129be578182fd5b8435935060208501356129d08161364f565b93969395505050506040820135916060013590565b600080602083850312156129f7578182fd5b823567ffffffffffffffff811115612a0d578283fd5b612a1985828601612551565b90969095509350505050565b6000806000806000806000806000806101008b8d031215612a44578384fd5b8a3567ffffffffffffffff80821115612a5b578586fd5b612a678e838f01612551565b909c509a5060208d0135915080821115612a7f578586fd5b50612a8c8d828e01612551565b90995097505060408b0135612aa08161364f565b955060608b0135945060808b0135612ab78161364f565b935060a08b0135612ac78161364f565b925060c08b0135612ad78161364f565b9150612ae560e08c0161241e565b90509295989b9194979a5092959850565b600060808284031215612b07578081fd5b6040516080810181811067ffffffffffffffff82111715612b2a57612b2a613639565b604052612b3683612541565b8152612b4460208401612541565b6020820152612b5560408401612541565b6040820152612b6660608401612541565b60608201529392505050565b600060208284031215612b83578081fd5b5035919050565b6000815180845260208085019450808401835b83811015612bb957815187529582019590820190600101612b9d565b509495945050505050565b60008151808452815b81811015612be957602081850181015186830182015201612bcd565b81811115612bfa5782602083870101525b50601f01601f19169290920160200192915050565b60609190911b6bffffffffffffffffffffffff1916815260140190565b8154600090819060028104600180831680612c4857607f831692505b6020808410821415612c6857634e487b7160e01b87526022600452602487fd5b818015612c7c5760018114612c8d57612cb9565b60ff19861689528489019650612cb9565b612c968a613553565b885b86811015612cb15781548b820152908501908301612c98565b505084890196505b509498975050505050505050565b61190160f01b81526002810192909252602282015260420190565b6001600160a01b0391909116815260200190565b6001600160a01b0393841681529183166020830152909116604082015260600190565b600060018060a01b03808a16835280891660208401528088166040840152808716606084015260e06080840152612d5360e0840187612b8a565b81861660a085015283810360c08501526109ef8186612b8a565b6001600160a01b039384168152919092166020820152604081019190915260600190565b6001600160a01b0383168152604060208201819052600090612db590830184612bc4565b949350505050565b901515815260200190565b91151582521515602082015260400190565b90815260200190565b9586526001600160a01b0394851660208701529290931660408501526060840152608083019190915260a082015260c00190565b9485526020850193909352604084019190915260608301526001600160a01b0316608082015260a00190565b60008482526040602083015282604083015282846060840137818301606090810191909152601f909201601f1916010192915050565b93845260208401929092526040830152606082015260800190565b93845260ff9290921660208401526040830152606082015260800190565b6000602082526120cb6020830184612bc4565b6020808252601e908201527f455243323054656d706c6174653a204e4f5420464545204d414e414745520000604082015260600190565b60208082526023908201527f45524332303a207472616e7366657220746f20746865207a65726f206164647260408201526265737360e81b606082015260800190565b6020808252602c908201527f455243323054656d706c6174653a20496e76616c6964206d696e7465722c202060408201526b7a65726f206164647265737360a01b606082015260800190565b60208082526022908201527f4552433230526f6c65733a2020414c5245414459204120464545204d414e414760408201526122a960f11b606082015260800190565b60208082526022908201527f45524332303a20617070726f766520746f20746865207a65726f206164647265604082015261737360f01b606082015260800190565b60208082526013908201527215d493d391c8105494905654c81193d4935055606a1b604082015260600190565b6020808252601d908201527f4552433230526f6c65733a2020414c52454144592041204d494e544552000000604082015260600190565b60208082526026908201527f45524332303a207472616e7366657220616d6f756e7420657863656564732062604082015265616c616e636560d01b606082015260800190565b6020808252601f908201527f455243323054656d706c6174653a204e4f542037323120436f6e747261637400604082015260600190565b60208082526029908201527f44617461546f6b656e54656d706c6174653a206661696c656420746f2066696e60408201526834b9b41037b93232b960b91b606082015260800190565b60208082526031908201527f455243323054656d706c6174653a20746f6b656e20696e7374616e636520616c6040820152701c9958591e481a5b9a5d1a585b1a5e9959607a1b606082015260800190565b6020808252818101527f455243323054656d706c6174653a204e4f54204445504c4f59455220524f4c45604082015260600190565b60208082526024908201527f44617461546f6b656e54656d706c6174653a20496e76616c6964206361702076604082015263616c756560e01b606082015260800190565b60208082526028908201527f45524332303a207472616e7366657220616d6f756e74206578636565647320616040820152676c6c6f77616e636560c01b606082015260800190565b60208082526010908201526f115490cc8c11150e881156141254915160821b604082015260600190565b60208082526019908201527f455243323054656d706c6174653a204e4f54204d494e54455200000000000000604082015260600190565b60208082526025908201527f45524332303a207472616e736665722066726f6d20746865207a65726f206164604082015264647265737360d81b606082015260800190565b6020808252601b908201527f455243323054656d706c6174653a206e6f74204e46544f776e65720000000000604082015260600190565b60208082526024908201527f45524332303a20617070726f76652066726f6d20746865207a65726f206164646040820152637265737360e01b606082015260800190565b6020808252601f908201527f44617461546f6b656e54656d706c6174653a2063617020657863656564656400604082015260600190565b60208082526024908201527f455243323054656d706c6174653a20746f6b656e7320616c7265616479206d696040820152631b9d195960e21b606082015260800190565b6020808252603c908201527f455243323054656d706c6174653a20496e76616c696420636f6d6d756e69747960408201527f2066656520636f6c6c6563746f722c207a65726f206164647265737300000000606082015260800190565b6020808252601a908201527f455243323044543a20494e56414c49445f5349474e4154555245000000000000604082015260600190565b60208082526025908201527f45524332303a2064656372656173656420616c6c6f77616e63652062656c6f77604082015264207a65726f60d81b606082015260800190565b6020808252601f908201527f45524332303a206d696e7420746f20746865207a65726f206164647265737300604082015260600190565b60ff91909116815260200190565b60405181810167ffffffffffffffff8111828210171561352757613527613639565b604052919050565b600067ffffffffffffffff82111561354957613549613639565b5060209081020190565b60009081526020902090565b6000821982111561357257613572613623565b500190565b60008261359257634e487b7160e01b81526012600452602481fd5b500490565b60008160001904831182151516156135b1576135b1613623565b500290565b6000828210156135c8576135c8613623565b500390565b6002810460018216806135e157607f821691505b6020821081141561360257634e487b7160e01b600052602260045260246000fd5b50919050565b600060001982141561361c5761361c613623565b5060010190565b634e487b7160e01b600052601160045260246000fd5b634e487b7160e01b600052604160045260246000fd5b6001600160a01b038116811461240657600080fdfea2646970667358221220c2f0e28f0d8029fbb6f3b94af00b0398b79ab509486e2475a96ee5d56bc6dc2e64736f6c63430008000033",
  "linkReferences": {},
  "deployedLinkReferences": {}
}