{
  "_format": "hh-sol-artifact-1",
  "contractName": "ERC20Template",
  "sourceName": "contracts/templates/ERC20Template.sol",
  "abi": [
    {
      "inputs": [
        {
          "internalType": "address",
          "name": "_router",
          "type": "address"
        }
      ],
      "stateMutability": "nonpayable",
      "type": "constructor"
    },
    {
      "anonymous": false,
      "inputs": [
        {
          "indexed": true,
          "internalType": "address",
          "name": "owner",
          "type": "address"
        },
        {
          "indexed": true,
          "internalType": "address",
          "name": "spender",
          "type": "address"
        },
        {
          "indexed": false,
          "internalType": "uint256",
          "name": "value",
          "type": "uint256"
        }
      ],
      "name": "Approval",
      "type": "event"
    },
    {
      "anonymous": false,
      "inputs": [
        {
          "indexed": false,
          "internalType": "address",
          "name": "currentMinter",
          "type": "address"
        },
        {
          "indexed": false,
          "internalType": "address",
          "name": "newMinter",
          "type": "address"
        }
      ],
      "name": "MinterApproved",
      "type": "event"
    },
    {
      "anonymous": false,
      "inputs": [
        {
          "indexed": false,
          "internalType": "address",
          "name": "currentMinter",
          "type": "address"
        },
        {
          "indexed": false,
          "internalType": "address",
          "name": "newMinter",
          "type": "address"
        }
      ],
      "name": "MinterProposed",
      "type": "event"
    },
    {
      "anonymous": false,
      "inputs": [
        {
          "indexed": false,
          "internalType": "bytes32",
          "name": "orderTxId",
          "type": "bytes32"
        },
        {
          "indexed": true,
          "internalType": "address",
          "name": "consumer",
          "type": "address"
        },
        {
          "indexed": false,
          "internalType": "uint256",
          "name": "amount",
          "type": "uint256"
        },
        {
          "indexed": false,
          "internalType": "uint256",
          "name": "serviceId",
          "type": "uint256"
        },
        {
          "indexed": true,
          "internalType": "address",
          "name": "provider",
          "type": "address"
        },
        {
          "indexed": false,
          "internalType": "uint256",
          "name": "timestamp",
          "type": "uint256"
        }
      ],
      "name": "OrderFinished",
      "type": "event"
    },
    {
      "anonymous": false,
      "inputs": [
        {
          "indexed": true,
          "internalType": "address",
          "name": "consumer",
          "type": "address"
        },
        {
          "indexed": true,
          "internalType": "address",
          "name": "payer",
          "type": "address"
        },
        {
          "indexed": false,
          "internalType": "uint256",
          "name": "amount",
          "type": "uint256"
        },
        {
          "indexed": false,
          "internalType": "uint256",
          "name": "serviceId",
          "type": "uint256"
        },
        {
          "indexed": false,
          "internalType": "uint256",
          "name": "timestamp",
          "type": "uint256"
        },
        {
          "indexed": true,
          "internalType": "address",
          "name": "mrktFeeCollector",
          "type": "address"
        },
        {
          "indexed": false,
          "internalType": "uint256",
          "name": "marketFee",
          "type": "uint256"
        }
      ],
      "name": "OrderStarted",
      "type": "event"
    },
    {
      "anonymous": false,
      "inputs": [
        {
          "indexed": true,
          "internalType": "address",
          "name": "from",
          "type": "address"
        },
        {
          "indexed": true,
          "internalType": "address",
          "name": "to",
          "type": "address"
        },
        {
          "indexed": false,
          "internalType": "uint256",
          "name": "value",
          "type": "uint256"
        }
      ],
      "name": "Transfer",
      "type": "event"
    },
    {
      "inputs": [],
      "name": "BASE",
      "outputs": [
        {
          "internalType": "uint256",
          "name": "",
          "type": "uint256"
        }
      ],
      "stateMutability": "view",
      "type": "function"
    },
    {
      "inputs": [],
      "name": "BASE_COMMUNITY_FEE_PERCENTAGE",
      "outputs": [
        {
          "internalType": "uint256",
          "name": "",
          "type": "uint256"
        }
      ],
      "stateMutability": "view",
      "type": "function"
    },
    {
      "inputs": [],
      "name": "BASE_MARKET_FEE_PERCENTAGE",
      "outputs": [
        {
          "internalType": "uint256",
          "name": "",
          "type": "uint256"
        }
      ],
      "stateMutability": "view",
      "type": "function"
    },
    {
      "inputs": [],
      "name": "DOMAIN_SEPARATOR",
      "outputs": [
        {
          "internalType": "bytes32",
          "name": "",
          "type": "bytes32"
        }
      ],
      "stateMutability": "view",
      "type": "function"
    },
    {
      "inputs": [],
      "name": "PERMIT_TYPEHASH",
      "outputs": [
        {
          "internalType": "bytes32",
          "name": "",
          "type": "bytes32"
        }
      ],
      "stateMutability": "view",
      "type": "function"
    },
    {
      "inputs": [
        {
          "internalType": "address",
          "name": "_feeManager",
          "type": "address"
        }
      ],
      "name": "addFeeManager",
      "outputs": [],
      "stateMutability": "nonpayable",
      "type": "function"
    },
    {
      "inputs": [
        {
          "internalType": "address",
          "name": "owner",
          "type": "address"
        },
        {
          "internalType": "address",
          "name": "spender",
          "type": "address"
        }
      ],
      "name": "allowance",
      "outputs": [
        {
          "internalType": "uint256",
          "name": "",
          "type": "uint256"
        }
      ],
      "stateMutability": "view",
      "type": "function"
    },
    {
      "inputs": [
        {
          "internalType": "address",
          "name": "spender",
          "type": "address"
        },
        {
          "internalType": "uint256",
          "name": "amount",
          "type": "uint256"
        }
      ],
      "name": "approve",
      "outputs": [
        {
          "internalType": "bool",
          "name": "",
          "type": "bool"
        }
      ],
      "stateMutability": "nonpayable",
      "type": "function"
    },
    {
      "inputs": [
        {
          "internalType": "uint256",
          "name": "",
          "type": "uint256"
        }
      ],
      "name": "authERC20",
      "outputs": [
        {
          "internalType": "address",
          "name": "",
          "type": "address"
        }
      ],
      "stateMutability": "view",
      "type": "function"
    },
    {
      "inputs": [
        {
          "internalType": "address",
          "name": "account",
          "type": "address"
        }
      ],
      "name": "balanceOf",
      "outputs": [
        {
          "internalType": "uint256",
          "name": "",
          "type": "uint256"
        }
      ],
      "stateMutability": "view",
      "type": "function"
    },
    {
      "inputs": [],
      "name": "cap",
      "outputs": [
        {
          "internalType": "uint256",
          "name": "",
          "type": "uint256"
        }
      ],
      "stateMutability": "view",
      "type": "function"
    },
    {
      "inputs": [],
      "name": "cleanFrom721",
      "outputs": [],
      "stateMutability": "nonpayable",
      "type": "function"
    },
    {
      "inputs": [],
      "name": "cleanPermissions",
      "outputs": [],
      "stateMutability": "nonpayable",
      "type": "function"
    },
    {
      "inputs": [],
      "name": "decimals",
      "outputs": [
        {
          "internalType": "uint8",
          "name": "",
          "type": "uint8"
        }
      ],
      "stateMutability": "pure",
      "type": "function"
    },
    {
      "inputs": [
        {
          "internalType": "address",
          "name": "spender",
          "type": "address"
        },
        {
          "internalType": "uint256",
          "name": "subtractedValue",
          "type": "uint256"
        }
      ],
      "name": "decreaseAllowance",
      "outputs": [
        {
          "internalType": "bool",
          "name": "",
          "type": "bool"
        }
      ],
      "stateMutability": "nonpayable",
      "type": "function"
    },
    {
      "inputs": [
        {
          "internalType": "bytes32[]",
          "name": "orderTxIds",
          "type": "bytes32[]"
        },
        {
          "internalType": "address[]",
          "name": "consumers",
          "type": "address[]"
        },
        {
          "internalType": "uint256[]",
          "name": "amounts",
          "type": "uint256[]"
        },
        {
          "internalType": "uint256[]",
          "name": "serviceIds",
          "type": "uint256[]"
        }
      ],
      "name": "finishMultipleOrder",
      "outputs": [],
      "stateMutability": "nonpayable",
      "type": "function"
    },
    {
      "inputs": [
        {
          "internalType": "bytes32",
          "name": "orderTxId",
          "type": "bytes32"
        },
        {
          "internalType": "address",
          "name": "consumer",
          "type": "address"
        },
        {
          "internalType": "uint256",
          "name": "amount",
          "type": "uint256"
        },
        {
          "internalType": "uint256",
          "name": "serviceId",
          "type": "uint256"
        }
      ],
      "name": "finishOrder",
      "outputs": [],
      "stateMutability": "nonpayable",
      "type": "function"
    },
    {
      "inputs": [],
      "name": "getFeeCollector",
      "outputs": [
        {
          "internalType": "address",
          "name": "",
          "type": "address"
        }
      ],
      "stateMutability": "view",
      "type": "function"
    },
    {
      "inputs": [],
      "name": "getId",
      "outputs": [
        {
          "internalType": "uint8",
          "name": "",
          "type": "uint8"
        }
      ],
      "stateMutability": "pure",
      "type": "function"
    },
    {
      "inputs": [
        {
          "internalType": "address",
          "name": "spender",
          "type": "address"
        },
        {
          "internalType": "uint256",
          "name": "addedValue",
          "type": "uint256"
        }
      ],
      "name": "increaseAllowance",
      "outputs": [
        {
          "internalType": "bool",
          "name": "",
          "type": "bool"
        }
      ],
      "stateMutability": "nonpayable",
      "type": "function"
    },
    {
      "inputs": [
        {
          "internalType": "string",
          "name": "name_",
          "type": "string"
        },
        {
          "internalType": "string",
          "name": "symbol_",
          "type": "string"
        },
        {
          "internalType": "address",
          "name": "erc721Address",
          "type": "address"
        },
        {
          "internalType": "uint256",
          "name": "cap_",
          "type": "uint256"
        },
        {
          "internalType": "address",
          "name": "communityFeeCollector",
          "type": "address"
        },
        {
          "internalType": "address",
          "name": "minter",
          "type": "address"
        },
        {
          "internalType": "address",
          "name": "basetokenAddress",
          "type": "address"
        },
        {
          "internalType": "uint256",
          "name": "burnInEndBlock",
          "type": "uint256"
        },
        {
          "internalType": "uint256[]",
          "name": "ssParams",
          "type": "uint256[]"
        }
      ],
      "name": "initialize",
      "outputs": [
        {
          "internalType": "bool",
          "name": "",
          "type": "bool"
        }
      ],
      "stateMutability": "nonpayable",
      "type": "function"
    },
    {
      "inputs": [],
      "name": "isInitialized",
      "outputs": [
        {
          "internalType": "bool",
          "name": "",
          "type": "bool"
        }
      ],
      "stateMutability": "view",
      "type": "function"
    },
    {
      "inputs": [
        {
          "internalType": "address",
          "name": "account",
          "type": "address"
        },
        {
          "internalType": "uint256",
          "name": "value",
          "type": "uint256"
        }
      ],
      "name": "mint",
      "outputs": [],
      "stateMutability": "nonpayable",
      "type": "function"
    },
    {
      "inputs": [],
      "name": "name",
      "outputs": [
        {
          "internalType": "string",
          "name": "",
          "type": "string"
        }
      ],
      "stateMutability": "view",
      "type": "function"
    },
    {
      "inputs": [
        {
          "internalType": "address",
          "name": "",
          "type": "address"
        }
      ],
      "name": "nonces",
      "outputs": [
        {
          "internalType": "uint256",
          "name": "",
          "type": "uint256"
        }
      ],
      "stateMutability": "view",
      "type": "function"
    },
    {
      "inputs": [
        {
          "internalType": "address",
          "name": "",
          "type": "address"
        }
      ],
      "name": "permissions",
      "outputs": [
        {
          "internalType": "bool",
          "name": "minter",
          "type": "bool"
        },
        {
          "internalType": "bool",
          "name": "feeManager",
          "type": "bool"
        }
      ],
      "stateMutability": "view",
      "type": "function"
    },
    {
      "inputs": [
        {
          "internalType": "address",
          "name": "owner",
          "type": "address"
        },
        {
          "internalType": "address",
          "name": "spender",
          "type": "address"
        },
        {
          "internalType": "uint256",
          "name": "value",
          "type": "uint256"
        },
        {
          "internalType": "uint256",
          "name": "deadline",
          "type": "uint256"
        },
        {
          "internalType": "uint8",
          "name": "v",
          "type": "uint8"
        },
        {
          "internalType": "bytes32",
          "name": "r",
          "type": "bytes32"
        },
        {
          "internalType": "bytes32",
          "name": "s",
          "type": "bytes32"
        }
      ],
      "name": "permit",
      "outputs": [],
      "stateMutability": "nonpayable",
      "type": "function"
    },
    {
      "inputs": [
        {
          "internalType": "address",
          "name": "_feeManager",
          "type": "address"
        }
      ],
      "name": "removeFeeManager",
      "outputs": [],
      "stateMutability": "nonpayable",
      "type": "function"
    },
    {
      "inputs": [],
      "name": "router",
      "outputs": [
        {
          "internalType": "address",
          "name": "",
          "type": "address"
        }
      ],
      "stateMutability": "view",
      "type": "function"
    },
    {
      "inputs": [
        {
          "internalType": "bytes",
          "name": "_value",
          "type": "bytes"
        }
      ],
      "name": "setData",
      "outputs": [],
      "stateMutability": "nonpayable",
      "type": "function"
    },
    {
      "inputs": [
        {
          "internalType": "address",
          "name": "_newFeeCollector",
          "type": "address"
        }
      ],
      "name": "setFeeCollector",
      "outputs": [],
      "stateMutability": "nonpayable",
      "type": "function"
    },
    {
      "inputs": [
        {
          "internalType": "address[]",
          "name": "consumers",
          "type": "address[]"
        },
        {
          "internalType": "uint256[]",
          "name": "amounts",
          "type": "uint256[]"
        },
        {
          "internalType": "uint256[]",
          "name": "serviceIds",
          "type": "uint256[]"
        },
        {
          "internalType": "address[]",
          "name": "mrktFeeCollectors",
          "type": "address[]"
        },
        {
          "internalType": "address[]",
          "name": "feeTokens",
          "type": "address[]"
        },
        {
          "internalType": "uint256[]",
          "name": "feeAmounts",
          "type": "uint256[]"
        }
      ],
      "name": "startMultipleOrder",
      "outputs": [],
      "stateMutability": "nonpayable",
      "type": "function"
    },
    {
      "inputs": [
        {
          "internalType": "address",
          "name": "consumer",
          "type": "address"
        },
        {
          "internalType": "uint256",
          "name": "amount",
          "type": "uint256"
        },
        {
          "internalType": "uint256",
          "name": "serviceId",
          "type": "uint256"
        },
        {
          "internalType": "address",
          "name": "mrktFeeCollector",
          "type": "address"
        },
        {
          "internalType": "address",
          "name": "feeToken",
          "type": "address"
        },
        {
          "internalType": "uint256",
          "name": "feeAmount",
          "type": "uint256"
        }
      ],
      "name": "startOrder",
      "outputs": [],
      "stateMutability": "nonpayable",
      "type": "function"
    },
    {
      "inputs": [],
      "name": "symbol",
      "outputs": [
        {
          "internalType": "string",
          "name": "",
          "type": "string"
        }
      ],
      "stateMutability": "view",
      "type": "function"
    },
    {
      "inputs": [],
      "name": "totalSupply",
      "outputs": [
        {
          "internalType": "uint256",
          "name": "",
          "type": "uint256"
        }
      ],
      "stateMutability": "view",
      "type": "function"
    },
    {
      "inputs": [
        {
          "internalType": "address",
          "name": "recipient",
          "type": "address"
        },
        {
          "internalType": "uint256",
          "name": "amount",
          "type": "uint256"
        }
      ],
      "name": "transfer",
      "outputs": [
        {
          "internalType": "bool",
          "name": "",
          "type": "bool"
        }
      ],
      "stateMutability": "nonpayable",
      "type": "function"
    },
    {
      "inputs": [
        {
          "internalType": "address",
          "name": "sender",
          "type": "address"
        },
        {
          "internalType": "address",
          "name": "recipient",
          "type": "address"
        },
        {
          "internalType": "uint256",
          "name": "amount",
          "type": "uint256"
        }
      ],
      "name": "transferFrom",
      "outputs": [
        {
          "internalType": "bool",
          "name": "",
          "type": "bool"
        }
      ],
      "stateMutability": "nonpayable",
      "type": "function"
    }
  ],
  "bytecode": "0x6080604052600a805460ff60a01b191690553480156200001e57600080fd5b50604051620033c2380380620033c2833981016040819052620000419162000175565b60408051808201825260048152631d195cdd60e21b60208083019182528351808501909452600a8452691d195cdd14de5b589bdb60b21b9084015281519192916200008f91600391620000cf565b508051620000a5906004906020840190620000cf565b5050600f80546001600160a01b0319166001600160a01b03939093169290921790915550620001e2565b828054620000dd90620001a5565b90600052602060002090601f0160209004810192826200010157600085556200014c565b82601f106200011c57805160ff19168380011785556200014c565b828001600101855582156200014c579182015b828111156200014c5782518255916020019190600101906200012f565b506200015a9291506200015e565b5090565b5b808211156200015a57600081556001016200015f565b60006020828403121562000187578081fd5b81516001600160a01b03811681146200019e578182fd5b9392505050565b600281046001821680620001ba57607f821691505b60208210811415620001dc57634e487b7160e01b600052602260045260246000fd5b50919050565b6131d080620001f26000396000f3fe608060405234801561001057600080fd5b50600436106102275760003560e01c80635d1ca63111610130578063a9059cbb116100b8578063dd62ed3e1161007c578063dd62ed3e14610444578063ec342ad014610457578063ef867ff41461045f578063f887ea4014610472578063fda9dae71461047a57610227565b8063a9059cbb146103f8578063ab62f0e11461040b578063b2263a5d146102f0578063b5f09ba11461041e578063d505accf1461043157610227565b806382c03da5116100ff57806382c03da5146103af5780638ca0c059146103b757806395d89b41146103ca578063a42dce80146103d2578063a457c2d7146103e557610227565b80635d1ca6311461036e57806370a08231146103765780637ecebe00146103895780638115c9cc1461039c57610227565b806330adf81f116101b3578063392e53cd11610182578063392e53cd14610325578063395093511461032d5780633ed42b6d1461034057806340c10f19146103535780634f189cb21461036657610227565b806330adf81f146102f8578063313ce56714610300578063355274ea146103155780633644e5151461031d57610227565b806312fde4b7116101fa57806312fde4b7146102a057806318160ddd146102b55780631f2d32c3146102ca57806323b872dd146102dd578063294541c7146102f057610227565b806301e882081461022c57806306fdde0314610256578063095ea7b31461026b5780630e744e2e1461028b575b600080fd5b61023f61023a3660046121f9565b61048d565b60405161024d929190612902565b60405180910390f35b61025e6104ab565b60405161024d91906129ec565b61027e61027936600461231e565b61053e565b60405161024d91906128f7565b61029e61029936600461249d565b61055c565b005b6102a861083a565b60405161024d9190612842565b6102bd6108e7565b60405161024d9190612914565b61029e6102d83660046121f9565b6108ed565b61027e6102eb366004612269565b6109a7565b6102bd610a3e565b6102bd610a55565b610308610a79565b60405161024d919061302d565b6102bd610a7e565b6102bd610a84565b61027e610a8a565b61027e61033b36600461231e565b610a9a565b61029e61034e3660046123af565b610ae9565b61029e61036136600461231e565b610f49565b61029e610fe0565b6103086110ab565b6102bd6103843660046121f9565b6110b0565b6102bd6103973660046121f9565b6110cf565b61029e6103aa3660046121f9565b6110e1565b61029e611197565b61029e6103c5366004612576565b6111c1565b61025e611244565b61029e6103e03660046121f9565b611253565b61027e6103f336600461231e565b6112c9565b61027e61040636600461231e565b611344565b61029e6104193660046125b2565b611358565b61027e61042c3660046125f2565b611491565b61029e61043f3660046122a9565b61155b565b6102bd610452366004612231565b6116d6565b6102bd611701565b6102a861046d366004612757565b61170d565b6102a8611737565b61029e610488366004612349565b611746565b60056020526000908152604090205460ff8082169161010090041682565b6060600780546104ba90613103565b80601f01602080910402602001604051908101604052809291908181526020018280546104e690613103565b80156105335780601f1061050857610100808354040283529160200191610533565b820191906000526020600020905b81548152906001019060200180831161051657829003601f168201915b505050505090505b90565b600061055261054b6118c4565b84846118c8565b5060015b92915050565b60408051602080880282810182019093528782528392839261059b9290918b918b91829185019084908082843760009201919091525061197c92505050565b146105c15760405162461bcd60e51b81526004016105b890612b89565b60405180910390fd5b806105fe86868080602002602001604051908101604052809392919081815260200183836020028082843760009201919091525061197c92505050565b1461061b5760405162461bcd60e51b81526004016105b890612b89565b806106588a8a8080602002602001604051908101604052809392919081815260200183836020028082843760009201919091525061197c92505050565b146106755760405162461bcd60e51b81526004016105b890612b89565b60005b8181101561082e578585828181106106a057634e487b7160e01b600052603260045260246000fd5b9050602002013560001461072e576107128888838181106106d157634e487b7160e01b600052603260045260246000fd5b90506020020160208101906106e691906121f9565b87878481811061070657634e487b7160e01b600052603260045260246000fd5b90506020020135611344565b61072e5760405162461bcd60e51b81526004016105b890612c6a565b3388888381811061074f57634e487b7160e01b600052603260045260246000fd5b905060200201602081019061076491906121f9565b6001600160a01b03167f46872661d5d7765097d3a97ca99b7cbfa68b54b6d51904168974901ee607a26d8c8c858181106107ae57634e487b7160e01b600052603260045260246000fd5b905060200201358989868181106107d557634e487b7160e01b600052603260045260246000fd5b905060200201358888878181106107fc57634e487b7160e01b600052603260045260246000fd5b905060200201354260405161081494939291906129b3565b60405180910390a3806108268161313e565b915050610678565b50505050505050505050565b600c546000906001600160a01b03166108d557600b546040516331a9108f60e11b81526001600160a01b0390911690636352211e9061087e90600190600401612914565b60206040518083038186803b15801561089657600080fd5b505afa1580156108aa573d6000803e3d6000fd5b505050506040513d601f19601f820116820180604052508101906108ce9190612215565b905061053b565b50600c546001600160a01b031661053b565b60025490565b600b54604051639e26811960e01b81526000916001600160a01b031690639e2681199061091e903390600401612842565b608060405180830381600087803b15801561093857600080fd5b505af115801561094c573d6000803e3d6000fd5b505050506040513d601f19601f8201168201806040525081019061097091906126db565b905080602001511515600115151461099a5760405162461bcd60e51b81526004016105b890612d04565b6109a382611980565b5050565b60006109b4848484611a1f565b6001600160a01b0384166000908152600160205260408120816109d56118c4565b6001600160a01b03166001600160a01b0316815260200190815260200160002054905082811015610a185760405162461bcd60e51b81526004016105b890612d7d565b610a3385610a246118c4565b610a2e86856130ec565b6118c8565b506001949350505050565b610a526103e8670de0b6b3a76400006130ad565b81565b7f6e71edae12b1b97f4d1f60370fef10105fa2faae0126114a169c64845d6126c981565b601290565b60095490565b600d5481565b600a54600160a01b900460ff1690565b6000610552610aa76118c4565b848460016000610ab56118c4565b6001600160a01b03908116825260208083019390935260409182016000908120918b1681529252902054610a2e9190613095565b835180610af58861197c565b14610b125760405162461bcd60e51b81526004016105b890612b89565b80610b1c8761197c565b14610b395760405162461bcd60e51b81526004016105b890612b89565b80610b438561197c565b14610b605760405162461bcd60e51b81526004016105b890612b89565b80610b6a8361197c565b14610b875760405162461bcd60e51b81526004016105b890612b89565b80610b918461197c565b14610bae5760405162461bcd60e51b81526004016105b890612b89565b60005b81811015610f3f576000838281518110610bdb57634e487b7160e01b600052603260045260246000fd5b60200260200101511115610ce257838181518110610c0957634e487b7160e01b600052603260045260246000fd5b60200260200101516001600160a01b03166323b872dd33878481518110610c4057634e487b7160e01b600052603260045260246000fd5b6020026020010151868581518110610c6857634e487b7160e01b600052603260045260246000fd5b60200260200101516040518463ffffffff1660e01b8152600401610c8e939291906128d3565b602060405180830381600087803b158015610ca857600080fd5b505af1158015610cbc573d6000803e3d6000fd5b505050506040513d601f19601f82011682018060405250810190610ce0919061255c565b505b600080610d2b898481518110610d0857634e487b7160e01b600052603260045260246000fd5b60200260200101516103e8670de0b6b3a7640000610d2691906130ad565b611b39565b600a54909150610d44906001600160a01b031682611344565b5060006001600160a01b0316878481518110610d7057634e487b7160e01b600052603260045260246000fd5b60200260200101516001600160a01b031614610dde57610da9898481518110610d0857634e487b7160e01b600052603260045260246000fd5b9150610ddc878481518110610dce57634e487b7160e01b600052603260045260246000fd5b602002602001015183611344565b505b6000610dea8284611b78565b9050610e31610df761083a565b610406838d8881518110610e1b57634e487b7160e01b600052603260045260246000fd5b6020026020010151611b8490919063ffffffff16565b50878481518110610e5257634e487b7160e01b600052603260045260246000fd5b60200260200101516001600160a01b0316336001600160a01b03168c8681518110610e8d57634e487b7160e01b600052603260045260246000fd5b60200260200101516001600160a01b03167fe1c4fa794edfa8f619b8257a077398950357b9c6398528f94480307352f9afcc8d8881518110610edf57634e487b7160e01b600052603260045260246000fd5b60200260200101518d8981518110610f0757634e487b7160e01b600052603260045260246000fd5b60200260200101514289604051610f2194939291906129b3565b60405180910390a45050508080610f379061313e565b915050610bb1565b5050505050505050565b3360009081526005602090815260409182902082518084019093525460ff808216151580855261010090920416151591830191909152600114610f9e5760405162461bcd60e51b81526004016105b890612def565b600954610fb383610fad6108e7565b90611b78565b1115610fd15760405162461bcd60e51b81526004016105b890612ee6565b610fdb8383611b90565b505050565b600b546040516331a9108f60e11b81526001600160a01b0390911690636352211e9061101190600190600401612914565b60206040518083038186803b15801561102957600080fd5b505afa15801561103d573d6000803e3d6000fd5b505050506040513d601f19601f820116820180604052508101906110619190612215565b6001600160a01b0316336001600160a01b0316146110915760405162461bcd60e51b81526004016105b890612e6b565b611099611c50565b600c80546001600160a01b0319169055565b600190565b6001600160a01b0381166000908152602081905260409020545b919050565b600e6020526000908152604090205481565b600b54604051639e26811960e01b81526000916001600160a01b031690639e26811990611112903390600401612842565b608060405180830381600087803b15801561112c57600080fd5b505af1158015611140573d6000803e3d6000fd5b505050506040513d601f19601f8201168201806040525081019061116491906126db565b905080602001511515600115151461118e5760405162461bcd60e51b81526004016105b890612d04565b6109a382611cd3565b600b546001600160a01b031633146110915760405162461bcd60e51b81526004016105b890612c33565b81156111ed576111d18383611344565b6111ed5760405162461bcd60e51b81526004016105b890612c6a565b336001600160a01b0316836001600160a01b03167f46872661d5d7765097d3a97ca99b7cbfa68b54b6d51904168974901ee607a26d8685854260405161123694939291906129b3565b60405180910390a350505050565b6060600880546104ba90613103565b3360009081526005602090815260409182902082518084019093525460ff808216151584526101009091041615159082018190526001146112a65760405162461bcd60e51b81526004016105b890612a3f565b50600c80546001600160a01b0319166001600160a01b0392909216919091179055565b600080600160006112d86118c4565b6001600160a01b03908116825260208083019390935260409182016000908120918816815292529020549050828110156113245760405162461bcd60e51b81526004016105b890612fb1565b61133a61132f6118c4565b85610a2e86856130ec565b5060019392505050565b60006105526113516118c4565b8484611a1f565b600b54604051639e26811960e01b81526000916001600160a01b031690639e26811990611389903390600401612842565b608060405180830381600087803b1580156113a357600080fd5b505af11580156113b7573d6000803e3d6000fd5b505050506040513d601f19601f820116820180604052508101906113db91906126db565b90508060200151151560011515146114055760405162461bcd60e51b81526004016105b890612d04565b600030604051602001611418919061276f565b60408051601f19818403018152908290528051602090910120600b546301caf8fd60e31b83529092506001600160a01b031690630e57c7e8906114639084908890889060040161297d565b600060405180830381600087803b15801561147d57600080fd5b505af1158015610f3f573d6000803e3d6000fd5b600a54600090600160a01b900460ff16156114be5760405162461bcd60e51b81526004016105b890612cb3565b61154b8c8c8080601f016020809104026020016040519081016040528093929190818152602001838380828437600081840152601f19601f820116905080830192505050505050508b8b8080601f0160208091040260200160405190810160405280939291908181526020018383808284376000920191909152508d92508c91508b90508a8a8a8a611cf5565b9c9b505050505050505050505050565b4284101561157b5760405162461bcd60e51b81526004016105b890612dc5565b600d546001600160a01b0388166000908152600e6020526040812080549192917f6e71edae12b1b97f4d1f60370fef10105fa2faae0126114a169c64845d6126c9918b918b918b9190876115ce8361313e565b919050558a6040516020016115e89695949392919061291d565b6040516020818303038152906040528051906020012060405160200161160f929190612827565b60405160208183030381529060405280519060200120905060006001828686866040516000815260200160405260405161164c94939291906129ce565b6020604051602081039080840390855afa15801561166e573d6000803e3d6000fd5b5050604051601f1901519150506001600160a01b038116158015906116a45750886001600160a01b0316816001600160a01b0316145b6116c05760405162461bcd60e51b81526004016105b890612f7a565b6116cb8989896118c8565b505050505050505050565b6001600160a01b03918216600090815260016020908152604080832093909416825291909152205490565b670de0b6b3a764000081565b6006818154811061171d57600080fd5b6000918252602090912001546001600160a01b0316905081565b600f546001600160a01b031681565b80156117d0576040516323b872dd60e01b81526001600160a01b038316906323b872dd9061177c903390879086906004016128d3565b602060405180830381600087803b15801561179657600080fd5b505af11580156117aa573d6000803e3d6000fd5b505050506040513d601f19601f820116820180604052508101906117ce919061255c565b505b6000806117eb87610d266103e8670de0b6b3a76400006130ad565b600a54909150611804906001600160a01b031682611344565b506001600160a01b0385161561183a5761182c87610d266103e8670de0b6b3a76400006130ad565b91506118388583611344565b505b60006118468284611b78565b905061185d61185361083a565b6104068a84611b84565b50856001600160a01b0316336001600160a01b03168a6001600160a01b03167fe1c4fa794edfa8f619b8257a077398950357b9c6398528f94480307352f9afcc8b8b42896040516118b194939291906129b3565b60405180910390a4505050505050505050565b3390565b6001600160a01b0383166118ee5760405162461bcd60e51b81526004016105b890612ea2565b6001600160a01b0382166119145760405162461bcd60e51b81526004016105b890612b47565b6001600160a01b0380841660008181526001602090815260408083209487168084529490915290819020849055517f8c5be1e5ebec7d5bd14f71427d1e84f3dd0314c0f7b2291e5b200ac8c7c3b9259061196f908590612914565b60405180910390a3505050565b5190565b6001600160a01b03811660009081526005602052604090208054610100900460ff16156119bf5760405162461bcd60e51b81526004016105b890612b05565b805461ff001916610100179055600680546001810182556000919091527ff652222313e28459528d920b65115c16c04f3efc82aaedc97be59f3f377c0d3f0180546001600160a01b039092166001600160a01b0319909216919091179055565b6001600160a01b038316611a455760405162461bcd60e51b81526004016105b890612e26565b6001600160a01b038216611a6b5760405162461bcd60e51b81526004016105b890612a76565b611a76838383610fdb565b6001600160a01b03831660009081526020819052604090205481811015611aaf5760405162461bcd60e51b81526004016105b890612bed565b611ab982826130ec565b6001600160a01b038086166000908152602081905260408082209390935590851681529081208054849290611aef908490613095565b92505081905550826001600160a01b0316846001600160a01b03167fddf252ad1be2c89b69c2b068fc378daa952ba7f163c4a11628f55a4df523b3ef846040516112369190612914565b600082611b4857506000610556565b81611b5557506000610556565b611b71670de0b6b3a7640000611b6b8585611f1d565b90611f29565b9392505050565b6000611b718284613095565b6000611b7182846130ec565b6001600160a01b038216611bb65760405162461bcd60e51b81526004016105b890612ff6565b611bc260008383610fdb565b8060026000828254611bd49190613095565b90915550506001600160a01b03821660009081526020819052604081208054839290611c01908490613095565b90915550506040516001600160a01b038316906000907fddf252ad1be2c89b69c2b068fc378daa952ba7f163c4a11628f55a4df523b3ef90611c44908590612914565b60405180910390a35050565b60005b600654811015611cc45760006005600060068481548110611c8457634e487b7160e01b600052603260045260246000fd5b60009182526020808320909101546001600160a01b031683528201929092526040019020805461ffff191690555080611cbc8161313e565b915050611c53565b50611cd160066000611fcc565b565b6001600160a01b03166000908152600560205260409020805461ff0019169055565b60006001600160a01b038816611d1d5760405162461bcd60e51b81526004016105b890612ab9565b6001600160a01b038616611d435760405162461bcd60e51b81526004016105b890612f1d565b86611d605760405162461bcd60e51b81526004016105b890612d39565b60098790558951611d789060079060208d0190611fed565b508851611d8c9060089060208c0190611fed565b50600b80546001600160a01b03808b166001600160a01b031992831617909255600a805460ff60a01b19938a1692169190911791909116600160a01b179055611dd485611f35565b60405146907f8b73c3c69bb8fe3d512ecc4cf759cc79239f7b179b0ffacaa9a75d522b39400f90611e079060079061278c565b60408051918290038220828201825260018352603160f81b6020938401529051611e5893927fc89efdaa54c0f20c7adf612882df0950f5a951637e0307cdcb4c672f298b8bc6918691309101612951565b60408051601f19818403018152908290528051602090910120600d55600f54600b546361d48a9760e11b83526001600160a01b039182169263c3a9152e92611eae928b9230928c9216908b908b90600401612856565b602060405180830381600087803b158015611ec857600080fd5b505af1158015611edc573d6000803e3d6000fd5b505050506040513d601f19601f82011682018060405250810190611f009190612215565b5050600a54600160a01b900460ff169a9950505050505050505050565b6000611b7182846130cd565b6000611b7182846130ad565b6001600160a01b0381166000908152600560205260409020805460ff1615611f6f5760405162461bcd60e51b81526004016105b890612bb6565b805460ff191660019081179091556006805491820181556000527ff652222313e28459528d920b65115c16c04f3efc82aaedc97be59f3f377c0d3f0180546001600160a01b039092166001600160a01b0319909216919091179055565b5080546000825590600052602060002090810190611fea9190612071565b50565b828054611ff990613103565b90600052602060002090601f01602090048101928261201b5760008555612061565b82601f1061203457805160ff1916838001178555612061565b82800160010185558215612061579182015b82811115612061578251825591602001919060010190612046565b5061206d929150612071565b5090565b5b8082111561206d5760008155600101612072565b80356110ca81613185565b60008083601f8401126120a2578182fd5b50813567ffffffffffffffff8111156120b9578182fd5b60208301915083602080830285010111156120d357600080fd5b9250929050565b600082601f8301126120ea578081fd5b813560206120ff6120fa83613065565b61303b565b828152818101908583018385028701840188101561211b578586fd5b855b8581101561214257813561213081613185565b8452928401929084019060010161211d565b5090979650505050505050565b600082601f83011261215f578081fd5b8135602061216f6120fa83613065565b828152818101908583018385028701840188101561218b578586fd5b855b858110156121425781358452928401929084019060010161218d565b805180151581146110ca57600080fd5b60008083601f8401126121ca578182fd5b50813567ffffffffffffffff8111156121e1578182fd5b6020830191508360208285010111156120d357600080fd5b60006020828403121561220a578081fd5b8135611b7181613185565b600060208284031215612226578081fd5b8151611b7181613185565b60008060408385031215612243578081fd5b823561224e81613185565b9150602083013561225e81613185565b809150509250929050565b60008060006060848603121561227d578081fd5b833561228881613185565b9250602084013561229881613185565b929592945050506040919091013590565b600080600080600080600060e0888a0312156122c3578283fd5b87356122ce81613185565b965060208801356122de81613185565b95506040880135945060608801359350608088013560ff81168114612301578384fd5b9699959850939692959460a0840135945060c09093013592915050565b60008060408385031215612330578182fd5b823561233b81613185565b946020939093013593505050565b60008060008060008060c08789031215612361578182fd5b863561236c81613185565b95506020870135945060408701359350606087013561238a81613185565b9250608087013561239a81613185565b8092505060a087013590509295509295509295565b60008060008060008060c087890312156123c7578384fd5b863567ffffffffffffffff808211156123de578586fd5b6123ea8a838b016120da565b975060208901359150808211156123ff578586fd5b61240b8a838b0161214f565b96506040890135915080821115612420578586fd5b61242c8a838b0161214f565b95506060890135915080821115612441578384fd5b61244d8a838b016120da565b94506080890135915080821115612462578384fd5b61246e8a838b016120da565b935060a0890135915080821115612483578283fd5b5061249089828a0161214f565b9150509295509295509295565b6000806000806000806000806080898b0312156124b8578182fd5b883567ffffffffffffffff808211156124cf578384fd5b6124db8c838d01612091565b909a50985060208b01359150808211156124f3578384fd5b6124ff8c838d01612091565b909850965060408b0135915080821115612517578384fd5b6125238c838d01612091565b909650945060608b013591508082111561253b578384fd5b506125488b828c01612091565b999c989b5096995094979396929594505050565b60006020828403121561256d578081fd5b611b71826121a9565b6000806000806080858703121561258b578182fd5b84359350602085013561259d81613185565b93969395505050506040820135916060013590565b600080602083850312156125c4578182fd5b823567ffffffffffffffff8111156125da578283fd5b6125e6858286016121b9565b90969095509350505050565b60008060008060008060008060008060006101208c8e031215612613578485fd5b67ffffffffffffffff808d351115612629578586fd5b6126368e8e358f016121b9565b909c509a5060208d013581101561264b578586fd5b61265b8e60208f01358f016121b9565b909a50985061266c60408e01612086565b975060608d0135965061268160808e01612086565b955061268f60a08e01612086565b945061269d60c08e01612086565b935060e08d01359250806101008e013511156126b7578182fd5b506126c98d6101008e01358e0161214f565b90509295989b509295989b9093969950565b6000608082840312156126ec578081fd5b6040516080810181811067ffffffffffffffff8211171561270f5761270f61316f565b60405261271b836121a9565b8152612729602084016121a9565b602082015261273a604084016121a9565b604082015261274b606084016121a9565b60608201529392505050565b600060208284031215612768578081fd5b5035919050565b60609190911b6bffffffffffffffffffffffff1916815260140190565b81546000908190600281046001808316806127a857607f831692505b60208084108214156127c857634e487b7160e01b87526022600452602487fd5b8180156127dc57600181146127ed57612819565b60ff19861689528489019650612819565b6127f68a613089565b885b868110156128115781548b8201529085019083016127f8565b505084890196505b509498975050505050505050565b61190160f01b81526002810192909252602282015260420190565b6001600160a01b0391909116815260200190565b6001600160a01b038781168252868116602080840191909152868216604084015290851660608301526080820184905260c060a0830181905283519083018190526000918481019160e085019190845b818110156128c2578451845293820193928201926001016128a6565b50919b9a5050505050505050505050565b6001600160a01b039384168152919092166020820152604081019190915260600190565b901515815260200190565b91151582521515602082015260400190565b90815260200190565b9586526001600160a01b0394851660208701529290931660408501526060840152608083019190915260a082015260c00190565b9485526020850193909352604084019190915260608301526001600160a01b0316608082015260a00190565b60008482526040602083015282604083015282846060840137818301606090810191909152601f909201601f1916010192915050565b93845260208401929092526040830152606082015260800190565b93845260ff9290921660208401526040830152606082015260800190565b6000602080835283518082850152825b81811015612a18578581018301518582016040015282016129fc565b81811115612a295783604083870101525b50601f01601f1916929092016040019392505050565b6020808252601e908201527f455243323054656d706c6174653a204e4f5420464545204d414e414745520000604082015260600190565b60208082526023908201527f45524332303a207472616e7366657220746f20746865207a65726f206164647260408201526265737360e81b606082015260800190565b6020808252602c908201527f455243323054656d706c6174653a20496e76616c6964206d696e7465722c202060408201526b7a65726f206164647265737360a01b606082015260800190565b60208082526022908201527f4552433230526f6c65733a2020414c5245414459204120464545204d414e414760408201526122a960f11b606082015260800190565b60208082526022908201527f45524332303a20617070726f766520746f20746865207a65726f206164647265604082015261737360f01b606082015260800190565b60208082526013908201527215d493d391c8105494905654c81193d4935055606a1b604082015260600190565b6020808252601d908201527f4552433230526f6c65733a2020414c52454144592041204d494e544552000000604082015260600190565b60208082526026908201527f45524332303a207472616e7366657220616d6f756e7420657863656564732062604082015265616c616e636560d01b606082015260800190565b6020808252601f908201527f455243323054656d706c6174653a204e4f542037323120436f6e747261637400604082015260600190565b60208082526029908201527f44617461546f6b656e54656d706c6174653a206661696c656420746f2066696e60408201526834b9b41037b93232b960b91b606082015260800190565b60208082526031908201527f455243323054656d706c6174653a20746f6b656e20696e7374616e636520616c6040820152701c9958591e481a5b9a5d1a585b1a5e9959607a1b606082015260800190565b6020808252818101527f455243323054656d706c6174653a204e4f54204445504c4f59455220524f4c45604082015260600190565b60208082526024908201527f44617461546f6b656e54656d706c6174653a20496e76616c6964206361702076604082015263616c756560e01b606082015260800190565b60208082526028908201527f45524332303a207472616e7366657220616d6f756e74206578636565647320616040820152676c6c6f77616e636560c01b606082015260800190565b60208082526010908201526f115490cc8c11150e881156141254915160821b604082015260600190565b60208082526019908201527f455243323054656d706c6174653a204e4f54204d494e54455200000000000000604082015260600190565b60208082526025908201527f45524332303a207472616e736665722066726f6d20746865207a65726f206164604082015264647265737360d81b606082015260800190565b6020808252601b908201527f455243323054656d706c6174653a206e6f74204e46544f776e65720000000000604082015260600190565b60208082526024908201527f45524332303a20617070726f76652066726f6d20746865207a65726f206164646040820152637265737360e01b606082015260800190565b6020808252601f908201527f44617461546f6b656e54656d706c6174653a2063617020657863656564656400604082015260600190565b6020808252603c908201527f455243323054656d706c6174653a20496e76616c696420636f6d6d756e69747960408201527f2066656520636f6c6c6563746f722c207a65726f206164647265737300000000606082015260800190565b6020808252601a908201527f455243323044543a20494e56414c49445f5349474e4154555245000000000000604082015260600190565b60208082526025908201527f45524332303a2064656372656173656420616c6c6f77616e63652062656c6f77604082015264207a65726f60d81b606082015260800190565b6020808252601f908201527f45524332303a206d696e7420746f20746865207a65726f206164647265737300604082015260600190565b60ff91909116815260200190565b60405181810167ffffffffffffffff8111828210171561305d5761305d61316f565b604052919050565b600067ffffffffffffffff82111561307f5761307f61316f565b5060209081020190565b60009081526020902090565b600082198211156130a8576130a8613159565b500190565b6000826130c857634e487b7160e01b81526012600452602481fd5b500490565b60008160001904831182151516156130e7576130e7613159565b500290565b6000828210156130fe576130fe613159565b500390565b60028104600182168061311757607f821691505b6020821081141561313857634e487b7160e01b600052602260045260246000fd5b50919050565b600060001982141561315257613152613159565b5060010190565b634e487b7160e01b600052601160045260246000fd5b634e487b7160e01b600052604160045260246000fd5b6001600160a01b0381168114611fea57600080fdfea264697066735822122046fac8ecf76842752b3ca034e616bd6149db7adcfb175d47955aff1a72320b6e64736f6c63430008000033",
  "linkReferences": {},
  "deployedLinkReferences": {}
}