{
  "_format": "hh-sol-artifact-1",
  "contractName": "ERC20Template",
  "sourceName": "contracts/templates/ERC20Template.sol",
  "abi": [
    {
      "anonymous": false,
      "inputs": [
        {
          "indexed": true,
          "internalType": "address",
          "name": "user",
          "type": "address"
        },
        {
          "indexed": true,
          "internalType": "address",
          "name": "signer",
          "type": "address"
        },
        {
          "indexed": false,
          "internalType": "uint256",
          "name": "timestamp",
          "type": "uint256"
        },
        {
          "indexed": false,
          "internalType": "uint256",
          "name": "blockNumber",
          "type": "uint256"
        }
      ],
      "name": "AddedMinter",
      "type": "event"
    },
    {
      "anonymous": false,
      "inputs": [
        {
          "indexed": true,
          "internalType": "address",
          "name": "user",
          "type": "address"
        },
        {
          "indexed": true,
          "internalType": "address",
          "name": "signer",
          "type": "address"
        },
        {
          "indexed": false,
          "internalType": "uint256",
          "name": "timestamp",
          "type": "uint256"
        },
        {
          "indexed": false,
          "internalType": "uint256",
          "name": "blockNumber",
          "type": "uint256"
        }
      ],
      "name": "AddedPaymentManager",
      "type": "event"
    },
    {
      "anonymous": false,
      "inputs": [
        {
          "indexed": true,
          "internalType": "address",
          "name": "owner",
          "type": "address"
        },
        {
          "indexed": true,
          "internalType": "address",
          "name": "spender",
          "type": "address"
        },
        {
          "indexed": false,
          "internalType": "uint256",
          "name": "value",
          "type": "uint256"
        }
      ],
      "name": "Approval",
      "type": "event"
    },
    {
      "anonymous": false,
      "inputs": [
        {
          "indexed": true,
          "internalType": "address",
          "name": "signer",
          "type": "address"
        },
        {
          "indexed": false,
          "internalType": "uint256",
          "name": "timestamp",
          "type": "uint256"
        },
        {
          "indexed": false,
          "internalType": "uint256",
          "name": "blockNumber",
          "type": "uint256"
        }
      ],
      "name": "CleanedPermissions",
      "type": "event"
    },
    {
      "anonymous": false,
      "inputs": [
        {
          "indexed": true,
          "internalType": "address",
          "name": "consumeFeeAddress",
          "type": "address"
        },
        {
          "indexed": true,
          "internalType": "address",
          "name": "consumeFeeToken",
          "type": "address"
        },
        {
          "indexed": false,
          "internalType": "uint256",
          "name": "consumeFeeAmount",
          "type": "uint256"
        }
      ],
      "name": "ConsumeMarketFees",
      "type": "event"
    },
    {
      "anonymous": false,
      "inputs": [
        {
          "indexed": false,
          "internalType": "address",
          "name": "currentMinter",
          "type": "address"
        },
        {
          "indexed": false,
          "internalType": "address",
          "name": "newMinter",
          "type": "address"
        }
      ],
      "name": "MinterApproved",
      "type": "event"
    },
    {
      "anonymous": false,
      "inputs": [
        {
          "indexed": false,
          "internalType": "address",
          "name": "currentMinter",
          "type": "address"
        },
        {
          "indexed": false,
          "internalType": "address",
          "name": "newMinter",
          "type": "address"
        }
      ],
      "name": "MinterProposed",
      "type": "event"
    },
    {
      "anonymous": false,
      "inputs": [
        {
          "indexed": false,
          "internalType": "bytes32",
          "name": "exchangeId",
          "type": "bytes32"
        },
        {
          "indexed": false,
          "internalType": "address",
          "name": "owner",
          "type": "address"
        }
      ],
      "name": "NewFixedRate",
      "type": "event"
    },
    {
      "anonymous": false,
      "inputs": [
        {
          "indexed": true,
          "internalType": "address",
          "name": "caller",
          "type": "address"
        },
        {
          "indexed": true,
          "internalType": "address",
          "name": "_newPaymentCollector",
          "type": "address"
        },
        {
          "indexed": false,
          "internalType": "uint256",
          "name": "timestamp",
          "type": "uint256"
        },
        {
          "indexed": false,
          "internalType": "uint256",
          "name": "blockNumber",
          "type": "uint256"
        }
      ],
      "name": "NewPaymentCollector",
      "type": "event"
    },
    {
      "anonymous": false,
      "inputs": [
        {
          "indexed": false,
          "internalType": "address",
          "name": "poolAddress",
          "type": "address"
        },
        {
          "indexed": false,
          "internalType": "address",
          "name": "ssContract",
          "type": "address"
        },
        {
          "indexed": false,
          "internalType": "address",
          "name": "basetokenAddress",
          "type": "address"
        }
      ],
      "name": "NewPool",
      "type": "event"
    },
    {
      "anonymous": false,
      "inputs": [
        {
          "indexed": true,
          "internalType": "address",
          "name": "consumer",
          "type": "address"
        },
        {
          "indexed": false,
          "internalType": "address",
          "name": "payer",
          "type": "address"
        },
        {
          "indexed": false,
          "internalType": "uint256",
          "name": "amount",
          "type": "uint256"
        },
        {
          "indexed": false,
          "internalType": "uint256",
          "name": "serviceIndex",
          "type": "uint256"
        },
        {
          "indexed": false,
          "internalType": "uint256",
          "name": "timestamp",
          "type": "uint256"
        },
        {
          "indexed": true,
          "internalType": "address",
          "name": "publishMarketAddress",
          "type": "address"
        },
        {
          "indexed": true,
          "internalType": "address",
          "name": "consumeFeeMarketAddress",
          "type": "address"
        },
        {
          "indexed": false,
          "internalType": "uint256",
          "name": "blockNumber",
          "type": "uint256"
        }
      ],
      "name": "OrderStarted",
      "type": "event"
    },
    {
      "anonymous": false,
      "inputs": [
        {
          "indexed": true,
          "internalType": "address",
          "name": "providerFeeAddress",
          "type": "address"
        },
        {
          "indexed": true,
          "internalType": "address",
          "name": "providerFeeToken",
          "type": "address"
        },
        {
          "indexed": false,
          "internalType": "uint256",
          "name": "providerFeeAmount",
          "type": "uint256"
        }
      ],
      "name": "ProviderFees",
      "type": "event"
    },
    {
      "anonymous": false,
      "inputs": [
        {
          "indexed": true,
          "internalType": "address",
          "name": "PublishMarketFeeAddress",
          "type": "address"
        },
        {
          "indexed": true,
          "internalType": "address",
          "name": "PublishMarketFeeToken",
          "type": "address"
        },
        {
          "indexed": false,
          "internalType": "uint256",
          "name": "PublishMarketFeeAmount",
          "type": "uint256"
        }
      ],
      "name": "PublishMarketFees",
      "type": "event"
    },
    {
      "anonymous": false,
      "inputs": [
        {
          "indexed": false,
          "internalType": "address",
          "name": "caller",
          "type": "address"
        },
        {
          "indexed": false,
          "internalType": "address",
          "name": "PublishMarketFeeAddress",
          "type": "address"
        },
        {
          "indexed": false,
          "internalType": "address",
          "name": "PublishMarketFeeToken",
          "type": "address"
        },
        {
          "indexed": false,
          "internalType": "uint256",
          "name": "PublishMarketFeeAmount",
          "type": "uint256"
        }
      ],
      "name": "PublishMarketFeesChanged",
      "type": "event"
    },
    {
      "anonymous": false,
      "inputs": [
        {
          "indexed": true,
          "internalType": "address",
          "name": "user",
          "type": "address"
        },
        {
          "indexed": true,
          "internalType": "address",
          "name": "signer",
          "type": "address"
        },
        {
          "indexed": false,
          "internalType": "uint256",
          "name": "timestamp",
          "type": "uint256"
        },
        {
          "indexed": false,
          "internalType": "uint256",
          "name": "blockNumber",
          "type": "uint256"
        }
      ],
      "name": "RemovedMinter",
      "type": "event"
    },
    {
      "anonymous": false,
      "inputs": [
        {
          "indexed": true,
          "internalType": "address",
          "name": "user",
          "type": "address"
        },
        {
          "indexed": true,
          "internalType": "address",
          "name": "signer",
          "type": "address"
        },
        {
          "indexed": false,
          "internalType": "uint256",
          "name": "timestamp",
          "type": "uint256"
        },
        {
          "indexed": false,
          "internalType": "uint256",
          "name": "blockNumber",
          "type": "uint256"
        }
      ],
      "name": "RemovedPaymentManager",
      "type": "event"
    },
    {
      "anonymous": false,
      "inputs": [
        {
          "indexed": true,
          "internalType": "address",
          "name": "from",
          "type": "address"
        },
        {
          "indexed": true,
          "internalType": "address",
          "name": "to",
          "type": "address"
        },
        {
          "indexed": false,
          "internalType": "uint256",
          "name": "value",
          "type": "uint256"
        }
      ],
      "name": "Transfer",
      "type": "event"
    },
    {
      "stateMutability": "payable",
      "type": "fallback"
    },
    {
      "inputs": [],
      "name": "BASE",
      "outputs": [
        {
          "internalType": "uint256",
          "name": "",
          "type": "uint256"
        }
      ],
      "stateMutability": "view",
      "type": "function"
    },
    {
      "inputs": [],
      "name": "BASE_COMMUNITY_FEE_PERCENTAGE",
      "outputs": [
        {
          "internalType": "uint256",
          "name": "",
          "type": "uint256"
        }
      ],
      "stateMutability": "view",
      "type": "function"
    },
    {
      "inputs": [],
      "name": "DOMAIN_SEPARATOR",
      "outputs": [
        {
          "internalType": "bytes32",
          "name": "",
          "type": "bytes32"
        }
      ],
      "stateMutability": "view",
      "type": "function"
    },
    {
      "inputs": [],
      "name": "PERMIT_TYPEHASH",
      "outputs": [
        {
          "internalType": "bytes32",
          "name": "",
          "type": "bytes32"
        }
      ],
      "stateMutability": "view",
      "type": "function"
    },
    {
      "inputs": [
        {
          "internalType": "address",
          "name": "_minter",
          "type": "address"
        }
      ],
      "name": "addMinter",
      "outputs": [],
      "stateMutability": "nonpayable",
      "type": "function"
    },
    {
      "inputs": [
        {
          "internalType": "address",
          "name": "_paymentManager",
          "type": "address"
        }
      ],
      "name": "addPaymentManager",
      "outputs": [],
      "stateMutability": "nonpayable",
      "type": "function"
    },
    {
      "inputs": [
        {
          "internalType": "address",
          "name": "owner",
          "type": "address"
        },
        {
          "internalType": "address",
          "name": "spender",
          "type": "address"
        }
      ],
      "name": "allowance",
      "outputs": [
        {
          "internalType": "uint256",
          "name": "",
          "type": "uint256"
        }
      ],
      "stateMutability": "view",
      "type": "function"
    },
    {
      "inputs": [
        {
          "internalType": "address",
          "name": "spender",
          "type": "address"
        },
        {
          "internalType": "uint256",
          "name": "amount",
          "type": "uint256"
        }
      ],
      "name": "approve",
      "outputs": [
        {
          "internalType": "bool",
          "name": "",
          "type": "bool"
        }
      ],
      "stateMutability": "nonpayable",
      "type": "function"
    },
    {
      "inputs": [
        {
          "internalType": "uint256",
          "name": "",
          "type": "uint256"
        }
      ],
      "name": "authERC20",
      "outputs": [
        {
          "internalType": "address",
          "name": "",
          "type": "address"
        }
      ],
      "stateMutability": "view",
      "type": "function"
    },
    {
      "inputs": [
        {
          "internalType": "address",
          "name": "account",
          "type": "address"
        }
      ],
      "name": "balanceOf",
      "outputs": [
        {
          "internalType": "uint256",
          "name": "",
          "type": "uint256"
        }
      ],
      "stateMutability": "view",
      "type": "function"
    },
    {
      "inputs": [
        {
          "internalType": "uint256",
          "name": "amount",
          "type": "uint256"
        }
      ],
      "name": "burn",
      "outputs": [],
      "stateMutability": "nonpayable",
      "type": "function"
    },
    {
      "inputs": [
        {
          "internalType": "address",
          "name": "account",
          "type": "address"
        },
        {
          "internalType": "uint256",
          "name": "amount",
          "type": "uint256"
        }
      ],
      "name": "burnFrom",
      "outputs": [],
      "stateMutability": "nonpayable",
      "type": "function"
    },
    {
      "inputs": [],
      "name": "cap",
      "outputs": [
        {
          "internalType": "uint256",
          "name": "",
          "type": "uint256"
        }
      ],
      "stateMutability": "view",
      "type": "function"
    },
    {
      "inputs": [],
      "name": "cleanFrom721",
      "outputs": [],
      "stateMutability": "nonpayable",
      "type": "function"
    },
    {
      "inputs": [],
      "name": "cleanPermissions",
      "outputs": [],
      "stateMutability": "nonpayable",
      "type": "function"
    },
    {
      "inputs": [
        {
          "internalType": "address",
          "name": "_dispenser",
          "type": "address"
        },
        {
          "internalType": "uint256",
          "name": "maxTokens",
          "type": "uint256"
        },
        {
          "internalType": "uint256",
          "name": "maxBalance",
          "type": "uint256"
        },
        {
          "internalType": "bool",
          "name": "withMint",
          "type": "bool"
        },
        {
          "internalType": "address",
          "name": "allowedSwapper",
          "type": "address"
        }
      ],
      "name": "createDispenser",
      "outputs": [],
      "stateMutability": "nonpayable",
      "type": "function"
    },
    {
      "inputs": [
        {
          "internalType": "address",
          "name": "fixedPriceAddress",
          "type": "address"
        },
        {
          "internalType": "address[]",
          "name": "addresses",
          "type": "address[]"
        },
        {
          "internalType": "uint256[]",
          "name": "uints",
          "type": "uint256[]"
        }
      ],
      "name": "createFixedRate",
      "outputs": [
        {
          "internalType": "bytes32",
          "name": "exchangeId",
          "type": "bytes32"
        }
      ],
      "stateMutability": "nonpayable",
      "type": "function"
    },
    {
      "inputs": [],
      "name": "decimals",
      "outputs": [
        {
          "internalType": "uint8",
          "name": "",
          "type": "uint8"
        }
      ],
      "stateMutability": "pure",
      "type": "function"
    },
    {
      "inputs": [
        {
          "internalType": "address",
          "name": "spender",
          "type": "address"
        },
        {
          "internalType": "uint256",
          "name": "subtractedValue",
          "type": "uint256"
        }
      ],
      "name": "decreaseAllowance",
      "outputs": [
        {
          "internalType": "bool",
          "name": "",
          "type": "bool"
        }
      ],
      "stateMutability": "nonpayable",
      "type": "function"
    },
    {
      "inputs": [
        {
          "internalType": "uint256[]",
          "name": "ssParams",
          "type": "uint256[]"
        },
        {
          "internalType": "uint256[]",
          "name": "swapFees",
          "type": "uint256[]"
        },
        {
          "internalType": "address[]",
          "name": "addresses",
          "type": "address[]"
        }
      ],
      "name": "deployPool",
      "outputs": [
        {
          "internalType": "address",
          "name": "pool",
          "type": "address"
        }
      ],
      "stateMutability": "nonpayable",
      "type": "function"
    },
    {
      "inputs": [],
      "name": "getERC721Address",
      "outputs": [
        {
          "internalType": "address",
          "name": "",
          "type": "address"
        }
      ],
      "stateMutability": "view",
      "type": "function"
    },
    {
      "inputs": [],
      "name": "getId",
      "outputs": [
        {
          "internalType": "uint8",
          "name": "",
          "type": "uint8"
        }
      ],
      "stateMutability": "pure",
      "type": "function"
    },
    {
      "inputs": [],
      "name": "getPaymentCollector",
      "outputs": [
        {
          "internalType": "address",
          "name": "",
          "type": "address"
        }
      ],
      "stateMutability": "view",
      "type": "function"
    },
    {
      "inputs": [],
      "name": "getPublishingMarketFee",
      "outputs": [
        {
          "internalType": "address",
          "name": "",
          "type": "address"
        },
        {
          "internalType": "address",
          "name": "",
          "type": "address"
        },
        {
          "internalType": "uint256",
          "name": "",
          "type": "uint256"
        }
      ],
      "stateMutability": "view",
      "type": "function"
    },
    {
      "inputs": [
        {
          "internalType": "address",
          "name": "spender",
          "type": "address"
        },
        {
          "internalType": "uint256",
          "name": "addedValue",
          "type": "uint256"
        }
      ],
      "name": "increaseAllowance",
      "outputs": [
        {
          "internalType": "bool",
          "name": "",
          "type": "bool"
        }
      ],
      "stateMutability": "nonpayable",
      "type": "function"
    },
    {
      "inputs": [
        {
          "internalType": "string[]",
          "name": "strings_",
          "type": "string[]"
        },
        {
          "internalType": "address[]",
          "name": "addresses_",
          "type": "address[]"
        },
        {
          "internalType": "address[]",
          "name": "factoryAddresses_",
          "type": "address[]"
        },
        {
          "internalType": "uint256[]",
          "name": "uints_",
          "type": "uint256[]"
        },
        {
          "internalType": "bytes[]",
          "name": "bytes_",
          "type": "bytes[]"
        }
      ],
      "name": "initialize",
      "outputs": [
        {
          "internalType": "bool",
          "name": "",
          "type": "bool"
        }
      ],
      "stateMutability": "nonpayable",
      "type": "function"
    },
    {
      "inputs": [],
      "name": "isInitialized",
      "outputs": [
        {
          "internalType": "bool",
          "name": "",
          "type": "bool"
        }
      ],
      "stateMutability": "view",
      "type": "function"
    },
    {
      "inputs": [
        {
          "internalType": "address",
          "name": "account",
          "type": "address"
        }
      ],
      "name": "isMinter",
      "outputs": [
        {
          "internalType": "bool",
          "name": "",
          "type": "bool"
        }
      ],
      "stateMutability": "view",
      "type": "function"
    },
    {
      "inputs": [
        {
          "internalType": "address",
          "name": "account",
          "type": "address"
        },
        {
          "internalType": "uint256",
          "name": "value",
          "type": "uint256"
        }
      ],
      "name": "mint",
      "outputs": [],
      "stateMutability": "nonpayable",
      "type": "function"
    },
    {
      "inputs": [],
      "name": "name",
      "outputs": [
        {
          "internalType": "string",
          "name": "",
          "type": "string"
        }
      ],
      "stateMutability": "view",
      "type": "function"
    },
    {
      "inputs": [
        {
          "internalType": "address",
          "name": "",
          "type": "address"
        }
      ],
      "name": "nonces",
      "outputs": [
        {
          "internalType": "uint256",
          "name": "",
          "type": "uint256"
        }
      ],
      "stateMutability": "view",
      "type": "function"
    },
    {
      "inputs": [
        {
          "internalType": "address",
          "name": "",
          "type": "address"
        }
      ],
      "name": "permissions",
      "outputs": [
        {
          "internalType": "bool",
          "name": "minter",
          "type": "bool"
        },
        {
          "internalType": "bool",
          "name": "paymentManager",
          "type": "bool"
        }
      ],
      "stateMutability": "view",
      "type": "function"
    },
    {
      "inputs": [
        {
          "internalType": "address",
          "name": "owner",
          "type": "address"
        },
        {
          "internalType": "address",
          "name": "spender",
          "type": "address"
        },
        {
          "internalType": "uint256",
          "name": "value",
          "type": "uint256"
        },
        {
          "internalType": "uint256",
          "name": "deadline",
          "type": "uint256"
        },
        {
          "internalType": "uint8",
          "name": "v",
          "type": "uint8"
        },
        {
          "internalType": "bytes32",
          "name": "r",
          "type": "bytes32"
        },
        {
          "internalType": "bytes32",
          "name": "s",
          "type": "bytes32"
        }
      ],
      "name": "permit",
      "outputs": [],
      "stateMutability": "nonpayable",
      "type": "function"
    },
    {
      "inputs": [
        {
          "internalType": "address",
          "name": "_minter",
          "type": "address"
        }
      ],
      "name": "removeMinter",
      "outputs": [],
      "stateMutability": "nonpayable",
      "type": "function"
    },
    {
      "inputs": [
        {
          "internalType": "address",
          "name": "_paymentManager",
          "type": "address"
        }
      ],
      "name": "removePaymentManager",
      "outputs": [],
      "stateMutability": "nonpayable",
      "type": "function"
    },
    {
      "inputs": [],
      "name": "router",
      "outputs": [
        {
          "internalType": "address",
          "name": "",
          "type": "address"
        }
      ],
      "stateMutability": "view",
      "type": "function"
    },
    {
      "inputs": [
        {
          "internalType": "bytes",
          "name": "_value",
          "type": "bytes"
        }
      ],
      "name": "setData",
      "outputs": [],
      "stateMutability": "nonpayable",
      "type": "function"
    },
    {
      "inputs": [
        {
          "internalType": "address",
          "name": "_newPaymentCollector",
          "type": "address"
        }
      ],
      "name": "setPaymentCollector",
      "outputs": [],
      "stateMutability": "nonpayable",
      "type": "function"
    },
    {
      "inputs": [
        {
          "internalType": "address",
          "name": "_publishMarketFeeAddress",
          "type": "address"
        },
        {
          "internalType": "address",
          "name": "_publishMarketFeeToken",
          "type": "address"
        },
        {
          "internalType": "uint256",
          "name": "_publishMarketFeeAmount",
          "type": "uint256"
        }
      ],
      "name": "setPublishingMarketFee",
      "outputs": [],
      "stateMutability": "nonpayable",
      "type": "function"
    },
    {
      "inputs": [
        {
          "internalType": "address",
          "name": "consumer",
          "type": "address"
        },
        {
          "internalType": "uint256",
          "name": "amount",
          "type": "uint256"
        },
        {
          "internalType": "uint256",
          "name": "serviceIndex",
          "type": "uint256"
        },
        {
          "internalType": "address",
          "name": "consumeFeeAddress",
          "type": "address"
        },
        {
          "internalType": "address",
          "name": "consumeFeeToken",
          "type": "address"
        },
        {
          "internalType": "uint256",
          "name": "consumeFeeAmount",
          "type": "uint256"
        },
        {
          "internalType": "address",
          "name": "providerFeeAddress",
          "type": "address"
        },
        {
          "internalType": "address",
          "name": "providerFeeToken",
          "type": "address"
        },
        {
          "internalType": "uint256",
          "name": "providerFeeAmount",
          "type": "uint256"
        }
      ],
      "name": "startOrder",
      "outputs": [],
      "stateMutability": "nonpayable",
      "type": "function"
    },
    {
      "inputs": [],
      "name": "symbol",
      "outputs": [
        {
          "internalType": "string",
          "name": "",
          "type": "string"
        }
      ],
      "stateMutability": "view",
      "type": "function"
    },
    {
      "inputs": [],
      "name": "totalSupply",
      "outputs": [
        {
          "internalType": "uint256",
          "name": "",
          "type": "uint256"
        }
      ],
      "stateMutability": "view",
      "type": "function"
    },
    {
      "inputs": [
        {
          "internalType": "address",
          "name": "recipient",
          "type": "address"
        },
        {
          "internalType": "uint256",
          "name": "amount",
          "type": "uint256"
        }
      ],
      "name": "transfer",
      "outputs": [
        {
          "internalType": "bool",
          "name": "",
          "type": "bool"
        }
      ],
      "stateMutability": "nonpayable",
      "type": "function"
    },
    {
      "inputs": [
        {
          "internalType": "address",
          "name": "sender",
          "type": "address"
        },
        {
          "internalType": "address",
          "name": "recipient",
          "type": "address"
        },
        {
          "internalType": "uint256",
          "name": "amount",
          "type": "uint256"
        }
      ],
      "name": "transferFrom",
      "outputs": [
        {
          "internalType": "bool",
          "name": "",
          "type": "bool"
        }
      ],
      "stateMutability": "nonpayable",
      "type": "function"
    },
    {
      "inputs": [],
      "name": "withdrawETH",
      "outputs": [],
      "stateMutability": "payable",
      "type": "function"
    }
  ],
  "bytecode": "0x6080604052600b805460ff60a01b191690553480156200001e57600080fd5b5060408051808201825260048152631d195cdd60e21b60208083019182528351808501909452600a8452691d195cdd14de5b589bdb60b21b9084015281519192916200006d9160039162000091565b5080516200008390600490602084019062000091565b505060016007555062000174565b8280546200009f9062000137565b90600052602060002090601f016020900481019282620000c357600085556200010e565b82601f10620000de57805160ff19168380011785556200010e565b828001600101855582156200010e579182015b828111156200010e578251825591602001919060010190620000f1565b506200011c92915062000120565b5090565b5b808211156200011c576000815560010162000121565b600181811c908216806200014c57607f821691505b602082108114156200016e57634e487b7160e01b600052602260045260246000fd5b50919050565b61416f80620001846000396000f3fe60806040526004361061025c5760003560e01c80635bfe4da011610143578063aa271e1a116100bb578063dd62ed3e11610077578063dd62ed3e146107b6578063e086e5ec146107fc578063e487c2e814610804578063ec342ad014610819578063ef867ff414610835578063f887ea401461085557005b8063aa271e1a146106e8578063aa492ef914610721578063ab62f0e114610741578063b2263a5d14610761578063b3998be014610776578063d505accf1461079657005b806382c03da51161010a57806382c03da51461063e5780638b96412b1461065357806395d89b4114610673578063983b2d5614610688578063a457c2d7146106a8578063a9059cbb146106c857005b80635bfe4da0146105875780635d1ca631146105a757806370a08231146105bb57806379cc6790146105f15780637ecebe001461061157005b8063355274ea116101d657806340c10f191161019d57806340c10f19146104d257806342966c68146104f257806347a0c358146105125780634f189cb21461053257806357a3a31b1461054757806357ad5ff61461056757005b8063355274ea1461042c5780633644e51514610441578063392e53cd146104575780633950935114610476578063397b37431461049657005b8063191c918a11610225578063191c918a1461035657806323b872dd1461037657806325b00243146103965780633092afd5146103b657806330adf81f146103d6578063313ce5671461040a57005b80627ffb781461025e57806301e882081461029557806306fdde03146102e5578063095ea7b31461030757806318160ddd14610337575b005b34801561026a57600080fd5b50600c546001600160a01b03165b6040516001600160a01b0390911681526020015b60405180910390f35b3480156102a157600080fd5b506102ce6102b0366004613525565b60056020526000908152604090205460ff8082169161010090041682565b60408051921515835290151560208301520161028c565b3480156102f157600080fd5b506102fa610875565b60405161028c919061356e565b34801561031357600080fd5b506103276103223660046135a1565b610907565b604051901515815260200161028c565b34801561034357600080fd5b506002545b60405190815260200161028c565b34801561036257600080fd5b5061025c6103713660046135db565b61091d565b34801561038257600080fd5b5061032761039136600461363a565b610a78565b3480156103a257600080fd5b5061025c6103b1366004613525565b610b24565b3480156103c257600080fd5b5061025c6103d1366004613525565b610bbe565b3480156103e257600080fd5b506103487f6e71edae12b1b97f4d1f60370fef10105fa2faae0126114a169c64845d6126c981565b34801561041657600080fd5b5060125b60405160ff909116815260200161028c565b34801561043857600080fd5b50600a54610348565b34801561044d57600080fd5b5061034860115481565b34801561046357600080fd5b50600b54600160a01b900460ff16610327565b34801561048257600080fd5b506103276104913660046135a1565b610c55565b3480156104a257600080fd5b50600e54600f54601054604080516001600160a01b0394851681529390921660208401529082015260600161028c565b3480156104de57600080fd5b5061025c6104ed3660046135a1565b610c91565b3480156104fe57600080fd5b5061025c61050d36600461367b565b610d62565b34801561051e57600080fd5b5061025c61052d366004613694565b610d6c565b34801561053e57600080fd5b5061025c611316565b34801561055357600080fd5b5061025c610562366004613525565b6113fd565b34801561057357600080fd5b5061025c61058236600461363a565b61153f565b34801561059357600080fd5b506102786105a2366004613866565b611693565b3480156105b357600080fd5b50600161041a565b3480156105c757600080fd5b506103486105d6366004613525565b6001600160a01b031660009081526020819052604090205490565b3480156105fd57600080fd5b5061025c61060c3660046135a1565b611979565b34801561061d57600080fd5b5061034861062c366004613525565b60126020526000908152604090205481565b34801561064a57600080fd5b5061025c6119ff565b34801561065f57600080fd5b5061034861066e3660046138ee565b611a59565b34801561067f57600080fd5b506102fa611c26565b34801561069457600080fd5b5061025c6106a3366004613525565b611c35565b3480156106b457600080fd5b506103276106c33660046135a1565b611ccc565b3480156106d457600080fd5b506103276106e33660046135a1565b611d65565b3480156106f457600080fd5b50610327610703366004613525565b6001600160a01b031660009081526005602052604090205460ff1690565b34801561072d57600080fd5b5061025c61073c366004613525565b611d72565b34801561074d57600080fd5b5061025c61075c36600461395a565b611e09565b34801561076d57600080fd5b50610348611f3a565b34801561078257600080fd5b50610327610791366004613a18565b611f50565b3480156107a257600080fd5b5061025c6107b1366004613b09565b61208a565b3480156107c257600080fd5b506103486107d1366004613b80565b6001600160a01b03918216600090815260016020908152604080832093909416825291909152205490565b61025c61229c565b34801561081057600080fd5b506102786122dc565b34801561082557600080fd5b50610348670de0b6b3a764000081565b34801561084157600080fd5b5061027861085036600461367b565b612371565b34801561086157600080fd5b50601354610278906001600160a01b031681565b60606008805461088490613bb9565b80601f01602080910402602001604051908101604052809291908181526020018280546108b090613bb9565b80156108fd5780601f106108d2576101008083540402835291602001916108fd565b820191906000526020600020905b8154815290600101906020018083116108e057829003601f168201915b5050505050905090565b600061091433848461239b565b50600192915050565b600c5460405163160a792560e01b81523360048201526001600160a01b039091169063160a7925906024016080604051808303816000875af1158015610967573d6000803e3d6000fd5b505050506040513d601f19601f8201168201806040525081019061098b9190613bf4565b602001516109b45760405162461bcd60e51b81526004016109ab90613c79565b60405180910390fd5b600260075414156109d75760405162461bcd60e51b81526004016109ab90613cae565b6002600755601354604051636b14d00560e11b81526001600160a01b038781166004830152306024830152604482018790526064820186905233608483015283811660a48301529091169063d629a00a9060c401600060405180830381600087803b158015610a4557600080fd5b505af1158015610a59573d6000803e3d6000fd5b505050508115610a6c57610a6c856124bf565b50506001600755505050565b6000610a858484846125c1565b6001600160a01b038416600090815260016020908152604080832033845290915290205482811015610b0a5760405162461bcd60e51b815260206004820152602860248201527f45524332303a207472616e7366657220616d6f756e74206578636565647320616044820152676c6c6f77616e636560c01b60648201526084016109ab565b610b17853385840361239b565b60019150505b9392505050565b600c5460405163160a792560e01b81523360048201526001600160a01b039091169063160a7925906024016080604051808303816000875af1158015610b6e573d6000803e3d6000fd5b505050506040513d601f19601f82011682018060405250810190610b929190613bf4565b60200151610bb25760405162461bcd60e51b81526004016109ab90613c79565b610bbb81612791565b50565b600c5460405163160a792560e01b81523360048201526001600160a01b039091169063160a7925906024016080604051808303816000875af1158015610c08573d6000803e3d6000fd5b505050506040513d601f19601f82011682018060405250810190610c2c9190613bf4565b60200151610c4c5760405162461bcd60e51b81526004016109ab90613c79565b610bbb816127f2565b3360008181526001602090815260408083206001600160a01b03871684529091528120549091610914918590610c8c908690613cfb565b61239b565b3360009081526005602052604090205460ff16610cf05760405162461bcd60e51b815260206004820152601960248201527f455243323054656d706c6174653a204e4f54204d494e5445520000000000000060448201526064016109ab565b600a54610d0682610d0060025490565b90612852565b1115610d545760405162461bcd60e51b815260206004820152601f60248201527f44617461546f6b656e54656d706c6174653a206361702065786365656465640060448201526064016109ab565b610d5e828261285e565b5050565b610bbb338261293d565b60026007541415610d8f5760405162461bcd60e51b81526004016109ab90613cae565b60026007553360009081526020819052604081205481908a1115610e035760405162461bcd60e51b815260206004820152602560248201527f4e6f7420656e6f756768204461746120546f6b656e7320746f2073746172742060448201526427b93232b960d91b60648201526084016109ab565b600e5460408051338152602081018d90529081018b90524260608201524360808201526001600160a01b03808b1692811691908e16907fb07adb6a34680ecbbc7935971c45a07b9baf67ce5dc57332d51e3a5745c9e9639060a00160405180910390a46000601054118015610e825750600f546001600160a01b031615155b8015610e985750600e546001600160a01b031615155b15610f5757601054600f54610ebc916001600160a01b039091169033903090612a8b565b601054610eca906064612af6565b600e54601054919250610f00916001600160a01b0390911690610eed9084612b02565b600f546001600160a01b03169190612b0e565b600f54600e546010546001600160a01b0392831692909116907ff666b31c81334b6085802ba4149907fa724689d43bc31df6de1a51291ddc55b490610f459085612b02565b60405190815260200160405180910390a35b600086118015610f6f57506001600160a01b03871615155b8015610f8357506001600160a01b03881615155b1561101457610f9d6001600160a01b038816333089612a8b565b610fa8866064612af6565b9150610fc988610fb88885612b02565b6001600160a01b038a169190612b0e565b6001600160a01b038088169089167f504f65f39bc14c176feeffb7a6f6f46cf702ca4dcc8e6197b5a4c741dd94f3d16110028986612b02565b60405190815260200160405180910390a35b6000811180156110245750600082115b801561103d5750600f546001600160a01b038881169116145b801561105157506001600160a01b03871615155b156110fd57600b54611070906001600160a01b0316610fb88385612852565b600b546040518281526001600160a01b038981169216907ff666b31c81334b6085802ba4149907fa724689d43bc31df6de1a51291ddc55b49060200160405180910390a3600b546040518381526001600160a01b038981169216907f504f65f39bc14c176feeffb7a6f6f46cf702ca4dcc8e6197b5a4c741dd94f3d19060200160405180910390a36111ff565b6000811180156111175750600f546001600160a01b031615155b1561118357600b54600f54611139916001600160a01b03918216911683612b0e565b600f54600b546040518381526001600160a01b0392831692909116907ff666b31c81334b6085802ba4149907fa724689d43bc31df6de1a51291ddc55b49060200160405180910390a35b60008211801561119b57506001600160a01b03871615155b156111ff57600b546111ba906001600160a01b03898116911684612b0e565b600b546040518381526001600160a01b038981169216907f504f65f39bc14c176feeffb7a6f6f46cf702ca4dcc8e6197b5a4c741dd94f3d19060200160405180910390a35b60008311801561121757506001600160a01b03841615155b801561122b57506001600160a01b03851615155b156112a7576112456001600160a01b038516333086612a8b565b6112596001600160a01b0385168685612b0e565b836001600160a01b0316856001600160a01b03167f1c540397cffcfd0fa041ec7e0d246506db42327dc3346fe1951185dc734569e48560405161129e91815260200190565b60405180910390a35b6112b86112b26122dc565b8b611d65565b6113045760405162461bcd60e51b815260206004820152601e60248201527f4661696c656420746f2073656e6420445420746f207075626c6973686572000060448201526064016109ab565b50506001600755505050505050505050565b600c546040516331a9108f60e11b8152600160048201526001600160a01b0390911690636352211e90602401602060405180830381865afa15801561135f573d6000803e3d6000fd5b505050506040513d601f19601f820116820180604052508101906113839190613d13565b6001600160a01b0316336001600160a01b0316146113e35760405162461bcd60e51b815260206004820152601b60248201527f455243323054656d706c6174653a206e6f74204e46544f776e6572000000000060448201526064016109ab565b6113eb612b3e565b600d80546001600160a01b0319169055565b33600090815260056020526040902054610100900460ff168061148e5750600c5460405163160a792560e01b81523360048201526001600160a01b039091169063160a7925906024016080604051808303816000875af1158015611465573d6000803e3d6000fd5b505050506040513d601f19601f820116820180604052508101906114899190613bf4565b602001515b6114ee5760405162461bcd60e51b815260206004820152602b60248201527f455243323054656d706c6174653a204e4f54205041594d454e54204d414e414760448201526a22a91037b91027aba722a960a91b60648201526084016109ab565b6114f781612bed565b604080514281524360208201526001600160a01b0383169133917f4d7694d695c57cc54947177c8e8a0e61aae664e9223492a798c32fadfc6419cc910160405180910390a350565b600e546001600160a01b031633146115ac5760405162461bcd60e51b815260206004820152602a60248201527f455243323054656d706c6174653a206e6f74207075626c6973684d61726b65746044820152694665654164647265737360b01b60648201526084016109ab565b6001600160a01b0383166116135760405162461bcd60e51b815260206004820152602860248201527f496e76616c6964205f7075626c6973684d61726b657446656541646472657373604482015267206164647265737360c01b60648201526084016109ab565b600e80546001600160a01b038581166001600160a01b03199283168117909355600f80549186169190921681179091556010839055604080513381526020810193909352820152606081018290527fe0b85b6f04fa914cf57f6401c5672a83a32b1c388d194c3d78e17f2897d46f439060800160405180910390a1505050565b600c5460405163160a792560e01b81523360048201526000916001600160a01b03169063160a7925906024016080604051808303816000875af11580156116de573d6000803e3d6000fd5b505050506040513d601f19601f820116820180604052508101906117029190613bf4565b602001516117225760405162461bcd60e51b81526004016109ab90613c79565b6002541561177e5760405162461bcd60e51b8152602060048201526024808201527f455243323054656d706c6174653a20746f6b656e7320616c7265616479206d696044820152631b9d195960e21b60648201526084016109ab565b6117a18260008151811061179457611794613d30565b60200260200101516124bf565b62250490846003815181106117b8576117b8613d30565b60200260200101511161181f5760405162461bcd60e51b815260206004820152602960248201527f455243323054656d706c6174653a206d696e696d756d20626c6f636b73206e6f6044820152681d081c995858da195960ba1b60648201526084016109ab565b60006040518060400160405280306001600160a01b03166001600160a01b031681526020018460018151811061185757611857613d30565b60209081029190910101516001600160a01b0390811690915260135460405163ee3bc63560e01b8152929350169063ee3bc6359061189f908490899089908990600401613dba565b6020604051808303816000875af11580156118be573d6000803e3d6000fd5b505050506040513d601f19601f820116820180604052508101906118e29190613d13565b91507fd02da1bec30f7f750aa0a131745dfb9ce96767c45a192dc26409f5d690e0b967828460008151811061191957611919613d30565b60200260200101518560018151811061193457611934613d30565b6020026020010151604051611969939291906001600160a01b0393841681529183166020830152909116604082015260600190565b60405180910390a1509392505050565b600061198583336107d1565b9050818110156119e35760405162461bcd60e51b8152602060048201526024808201527f45524332303a206275726e20616d6f756e74206578636565647320616c6c6f77604482015263616e636560e01b60648201526084016109ab565b6119f0833384840361239b565b6119fa838361293d565b505050565b600c546001600160a01b031633146113e35760405162461bcd60e51b815260206004820152601f60248201527f455243323054656d706c6174653a204e4f542037323120436f6e74726163740060448201526064016109ab565b600c5460405163160a792560e01b81523360048201526000916001600160a01b03169063160a7925906024016080604051808303816000875af1158015611aa4573d6000803e3d6000fd5b505050506040513d601f19601f82011682018060405250810190611ac89190613bf4565b60200151611ae85760405162461bcd60e51b81526004016109ab90613c79565b60026007541415611b0b5760405162461bcd60e51b81526004016109ab90613cae565b6002600755601354604051638244937560e01b81526001600160a01b0390911690638244937590611b4490879087908790600401613e25565b6020604051808303816000875af1158015611b63573d6000803e3d6000fd5b505050506040513d601f19601f82011682018060405250810190611b879190613e65565b9050600082600481518110611b9e57611b9e613d30565b60200260200101511115611bb557611bb5846124bf565b7f195d202f33578769e120c3041341554af3193e67ee004175095bc9c06e6e61658184600081518110611bea57611bea613d30565b6020026020010151604051611c129291909182526001600160a01b0316602082015260400190565b60405180910390a160016007559392505050565b60606009805461088490613bb9565b600c5460405163160a792560e01b81523360048201526001600160a01b039091169063160a7925906024016080604051808303816000875af1158015611c7f573d6000803e3d6000fd5b505050506040513d601f19601f82011682018060405250810190611ca39190613bf4565b60200151611cc35760405162461bcd60e51b81526004016109ab90613c79565b610bbb816124bf565b3360009081526001602090815260408083206001600160a01b038616845290915281205482811015611d4e5760405162461bcd60e51b815260206004820152602560248201527f45524332303a2064656372656173656420616c6c6f77616e63652062656c6f77604482015264207a65726f60d81b60648201526084016109ab565b611d5b338585840361239b565b5060019392505050565b60006109143384846125c1565b600c5460405163160a792560e01b81523360048201526001600160a01b039091169063160a7925906024016080604051808303816000875af1158015611dbc573d6000803e3d6000fd5b505050506040513d601f19601f82011682018060405250810190611de09190613bf4565b60200151611e005760405162461bcd60e51b81526004016109ab90613c79565b610bbb81612c0f565b600c5460405163160a792560e01b81523360048201526001600160a01b039091169063160a7925906024016080604051808303816000875af1158015611e53573d6000803e3d6000fd5b505050506040513d601f19601f82011682018060405250810190611e779190613bf4565b60200151611e975760405162461bcd60e51b81526004016109ab90613c79565b6040516bffffffffffffffffffffffff193060601b16602082015260009060340160408051601f19818403018152908290528051602090910120600c546301caf8fd60e31b83529092506001600160a01b031690630e57c7e890611f0390849087908790600401613e7e565b600060405180830381600087803b158015611f1d57600080fd5b505af1158015611f31573d6000803e3d6000fd5b50505050505050565b611f4d6064670de0b6b3a7640000613eb4565b81565b600b54600090600160a01b900460ff1615611fc75760405162461bcd60e51b815260206004820152603160248201527f455243323054656d706c6174653a20746f6b656e20696e7374616e636520616c6044820152701c9958591e481a5b9a5d1a585b1a5e9959607a1b60648201526084016109ab565b61207b611fd48b8d613f2e565b8a8a8080602002602001604051908101604052809392919081815260200183836020028082843760009201919091525050604080516020808e0282810182019093528d82529093508d92508c91829185019084908082843760009201919091525050604080516020808d0282810182019093528c82529093508c92508b91829185019084908082843760009201919091525061207692508991508a9050613fb6565b612d1d565b9b9a5050505050505050505050565b438410156120cd5760405162461bcd60e51b815260206004820152601060248201526f115490cc8c11150e881156141254915160821b60448201526064016109ab565b6011546001600160a01b038816600090815260126020526040812080549192917f6e71edae12b1b97f4d1f60370fef10105fa2faae0126114a169c64845d6126c9918b918b918b91908761212083614032565b909155506040805160208101969096526001600160a01b0394851690860152929091166060840152608083015260a082015260c0810187905260e0016040516020818303038152906040528051906020012060405160200161219992919061190160f01b81526002810192909252602282015260420190565b60408051601f198184030181528282528051602091820120600080855291840180845281905260ff88169284019290925260608301869052608083018590529092509060019060a0016020604051602081039080840390855afa158015612204573d6000803e3d6000fd5b5050604051601f1901519150506001600160a01b0381161580159061223a5750886001600160a01b0316816001600160a01b0316145b6122865760405162461bcd60e51b815260206004820152601a60248201527f455243323044543a20494e56414c49445f5349474e415455524500000000000060448201526064016109ab565b61229189898961239b565b505050505050505050565b6122a46122dc565b6001600160a01b03166108fc479081150290604051600060405180830381858888f19350505050158015610bbb573d6000803e3d6000fd5b600d546000906001600160a01b031661236157600c546040516331a9108f60e11b8152600160048201526001600160a01b0390911690636352211e90602401602060405180830381865afa158015612338573d6000803e3d6000fd5b505050506040513d601f19601f8201168201806040525081019061235c9190613d13565b905090565b50600d546001600160a01b031690565b6006818154811061238157600080fd5b6000918252602090912001546001600160a01b0316905081565b6001600160a01b0383166123fd5760405162461bcd60e51b8152602060048201526024808201527f45524332303a20617070726f76652066726f6d20746865207a65726f206164646044820152637265737360e01b60648201526084016109ab565b6001600160a01b03821661245e5760405162461bcd60e51b815260206004820152602260248201527f45524332303a20617070726f766520746f20746865207a65726f206164647265604482015261737360f01b60648201526084016109ab565b6001600160a01b0383811660008181526001602090815260408083209487168084529482529182902085905590518481527f8c5be1e5ebec7d5bd14f71427d1e84f3dd0314c0f7b2291e5b200ac8c7c3b925910160405180910390a3505050565b6001600160a01b0381166000908152600560205260409020805460ff16156125295760405162461bcd60e51b815260206004820152601d60248201527f4552433230526f6c65733a2020414c52454144592041204d494e54455200000060448201526064016109ab565b8054600160ff19909116811782556006805491820181556000527ff652222313e28459528d920b65115c16c04f3efc82aaedc97be59f3f377c0d3f0180546001600160a01b0319166001600160a01b038416908117909155604080514281524360208201523392917f4f7e100eb1ee13e903798bd0d6aa854152e07eb05544f392b9409c12935c809591015b60405180910390a35050565b6001600160a01b0383166126255760405162461bcd60e51b815260206004820152602560248201527f45524332303a207472616e736665722066726f6d20746865207a65726f206164604482015264647265737360d81b60648201526084016109ab565b6001600160a01b0382166126875760405162461bcd60e51b815260206004820152602360248201527f45524332303a207472616e7366657220746f20746865207a65726f206164647260448201526265737360e81b60648201526084016109ab565b6001600160a01b038316600090815260208190526040902054818110156126ff5760405162461bcd60e51b815260206004820152602660248201527f45524332303a207472616e7366657220616d6f756e7420657863656564732062604482015265616c616e636560d01b60648201526084016109ab565b6001600160a01b03808516600090815260208190526040808220858503905591851681529081208054849290612736908490613cfb565b92505081905550826001600160a01b0316846001600160a01b03167fddf252ad1be2c89b69c2b068fc378daa952ba7f163c4a11628f55a4df523b3ef8460405161278291815260200190565b60405180910390a35b50505050565b6001600160a01b03811660008181526005602052604090819020805461ff00191681559051909133917faee911eec8b2df8f3ae0464841541b1e5f339519bd5cf51889fe8b07fecff658906125b59042904390918252602082015260400190565b6001600160a01b03811660008181526005602052604090819020805460ff191681559051909133917fefa2735987005aaa89c050c0ff8cc9ae7d9079d19382081c429130f98c52d480906125b59042904390918252602082015260400190565b6000610b1d8284613cfb565b6001600160a01b0382166128b45760405162461bcd60e51b815260206004820152601f60248201527f45524332303a206d696e7420746f20746865207a65726f20616464726573730060448201526064016109ab565b80600260008282546128c69190613cfb565b90915550506001600160a01b038216600090815260208190526040812080548392906128f3908490613cfb565b90915550506040518181526001600160a01b038316906000907fddf252ad1be2c89b69c2b068fc378daa952ba7f163c4a11628f55a4df523b3ef9060200160405180910390a35050565b6001600160a01b03821661299d5760405162461bcd60e51b815260206004820152602160248201527f45524332303a206275726e2066726f6d20746865207a65726f206164647265736044820152607360f81b60648201526084016109ab565b6001600160a01b03821660009081526020819052604090205481811015612a115760405162461bcd60e51b815260206004820152602260248201527f45524332303a206275726e20616d6f756e7420657863656564732062616c616e604482015261636560f01b60648201526084016109ab565b6001600160a01b0383166000908152602081905260408120838303905560028054849290612a4090849061404d565b90915550506040518281526000906001600160a01b038516907fddf252ad1be2c89b69c2b068fc378daa952ba7f163c4a11628f55a4df523b3ef9060200160405180910390a3505050565b6040516001600160a01b038085166024830152831660448201526064810182905261278b9085906323b872dd60e01b906084015b60408051601f198184030181529190526020810180516001600160e01b03166001600160e01b03199093169290921790915261320f565b6000610b1d8284613eb4565b6000610b1d828461404d565b6040516001600160a01b0383166024820152604481018290526119fa90849063a9059cbb60e01b90606401612abf565b60005b600654811015612ba45760006005600060068481548110612b6457612b64613d30565b60009182526020808320909101546001600160a01b031683528201929092526040019020805461ffff191690555080612b9c81614032565b915050612b41565b50612bb160066000613459565b6040805142815243602082015233917f712bc71db81927a76b8bf1ea346247bb0ad58f18e4e5c1bd4aa0ec6573e02a2b910160405180910390a2565b600d80546001600160a01b0319166001600160a01b0392909216919091179055565b6001600160a01b03811660009081526005602052604090208054610100900460ff1615612c895760405162461bcd60e51b815260206004820152602260248201527f4552433230526f6c65733a2020414c5245414459204120464545204d414e414760448201526122a960f11b60648201526084016109ab565b805461ff001916610100178155600680546001810182556000919091527ff652222313e28459528d920b65115c16c04f3efc82aaedc97be59f3f377c0d3f0180546001600160a01b0384166001600160a01b03199091168117909155604080514281524360208201523392917fb17da2e9910b4ba5754e8872385ba315a238bafb5ae221fc85093c33432c40a791016125b5565b60008084600081518110612d3357612d33613d30565b60200260200101519050600085600181518110612d5257612d52613d30565b6020026020010151905060006001600160a01b0316826001600160a01b03161415612dd45760405162461bcd60e51b815260206004820152602c60248201527f455243323054656d706c6174653a20496e76616c6964206d696e7465722c202060448201526b7a65726f206164647265737360a01b60648201526084016109ab565b6001600160a01b038116612e505760405162461bcd60e51b815260206004820152603c60248201527f455243323054656d706c6174653a20496e76616c696420636f6d6d756e69747960448201527f2066656520636f6c6c6563746f722c207a65726f20616464726573730000000060648201526084016109ab565b84600081518110612e6357612e63613d30565b602002602001015160001415612ec75760405162461bcd60e51b8152602060048201526024808201527f44617461546f6b656e54656d706c6174653a20496e76616c6964206361702076604482015263616c756560e01b60648201526084016109ab565b84600081518110612eda57612eda613d30565b6020026020010151600a8190555087600081518110612efb57612efb613d30565b602002602001015160089080519060200190612f18929190613477565b5087600181518110612f2c57612f2c613d30565b602002602001015160099080519060200190612f49929190613477565b50600c80546001600160a01b0319166001600160a01b038416179055855186906002908110612f7a57612f7a613d30565b6020908102919091010151601380546001600160a01b039283166001600160a01b0319909116179055600b80546001600160a81b03191691831691909117600160a01b1790558651612fd790889060009061179457611794613d30565b60006001600160a01b031687600181518110612ff557612ff5613d30565b60200260200101516001600160a01b03161461309f5761302e8760018151811061302157613021613d30565b6020026020010151612bed565b8660018151811061304157613041613d30565b60200260200101516001600160a01b0316336001600160a01b03167f4d7694d695c57cc54947177c8e8a0e61aae664e9223492a798c32fadfc6419cc4243604051613096929190918252602082015260400190565b60405180910390a35b866002815181106130b2576130b2613d30565b6020026020010151600e60006101000a8154816001600160a01b0302191690836001600160a01b03160217905550866003815181106130f3576130f3613d30565b6020026020010151600f60006101000a8154816001600160a01b0302191690836001600160a01b031602179055508460018151811061313457613134613d30565b602002602001015160108190555060004690507f8b73c3c69bb8fe3d512ecc4cf759cc79239f7b179b0ffacaa9a75d522b39400f60086040516131779190614064565b60408051918290038220828201825260018352603160f81b6020938401528151928301939093528101919091527fc89efdaa54c0f20c7adf612882df0950f5a951637e0307cdcb4c672f298b8bc66060820152608081018290523060a082015260c00160408051808303601f1901815291905280516020909101206011555050600b54600160a01b900460ff16979650505050505050565b6000613264826040518060400160405280602081526020017f5361666545524332303a206c6f772d6c6576656c2063616c6c206661696c6564815250856001600160a01b03166132e19092919063ffffffff16565b8051909150156119fa57808060200190518101906132829190614100565b6119fa5760405162461bcd60e51b815260206004820152602a60248201527f5361666545524332303a204552433230206f7065726174696f6e20646964206e6044820152691bdd081cdd58d8d9595960b21b60648201526084016109ab565b60606132f084846000856132f8565b949350505050565b6060824710156133595760405162461bcd60e51b815260206004820152602660248201527f416464726573733a20696e73756666696369656e742062616c616e636520666f6044820152651c8818d85b1b60d21b60648201526084016109ab565b843b6133a75760405162461bcd60e51b815260206004820152601d60248201527f416464726573733a2063616c6c20746f206e6f6e2d636f6e747261637400000060448201526064016109ab565b600080866001600160a01b031685876040516133c3919061411d565b60006040518083038185875af1925050503d8060008114613400576040519150601f19603f3d011682016040523d82523d6000602084013e613405565b606091505b5091509150613415828286613420565b979650505050505050565b6060831561342f575081610b1d565b82511561343f5782518084602001fd5b8160405162461bcd60e51b81526004016109ab919061356e565b5080546000825590600052602060002090810190610bbb91906134fb565b82805461348390613bb9565b90600052602060002090601f0160209004810192826134a557600085556134eb565b82601f106134be57805160ff19168380011785556134eb565b828001600101855582156134eb579182015b828111156134eb5782518255916020019190600101906134d0565b506134f79291506134fb565b5090565b5b808211156134f757600081556001016134fc565b6001600160a01b0381168114610bbb57600080fd5b60006020828403121561353757600080fd5b8135610b1d81613510565b60005b8381101561355d578181015183820152602001613545565b8381111561278b5750506000910152565b602081526000825180602084015261358d816040850160208701613542565b601f01601f19169190910160400192915050565b600080604083850312156135b457600080fd5b82356135bf81613510565b946020939093013593505050565b8015158114610bbb57600080fd5b600080600080600060a086880312156135f357600080fd5b85356135fe81613510565b94506020860135935060408601359250606086013561361c816135cd565b9150608086013561362c81613510565b809150509295509295909350565b60008060006060848603121561364f57600080fd5b833561365a81613510565b9250602084013561366a81613510565b929592945050506040919091013590565b60006020828403121561368d57600080fd5b5035919050565b60008060008060008060008060006101208a8c0312156136b357600080fd5b89356136be81613510565b985060208a0135975060408a0135965060608a01356136dc81613510565b955060808a01356136ec81613510565b945060a08a0135935060c08a013561370381613510565b925060e08a013561371381613510565b809250506101008a013590509295985092959850929598565b634e487b7160e01b600052604160045260246000fd5b604051601f8201601f1916810167ffffffffffffffff8111828210171561376b5761376b61372c565b604052919050565b600067ffffffffffffffff82111561378d5761378d61372c565b5060051b60200190565b600082601f8301126137a857600080fd5b813560206137bd6137b883613773565b613742565b82815260059290921b840181019181810190868411156137dc57600080fd5b8286015b848110156137f757803583529183019183016137e0565b509695505050505050565b600082601f83011261381357600080fd5b813560206138236137b883613773565b82815260059290921b8401810191818101908684111561384257600080fd5b8286015b848110156137f757803561385981613510565b8352918301918301613846565b60008060006060848603121561387b57600080fd5b833567ffffffffffffffff8082111561389357600080fd5b61389f87838801613797565b945060208601359150808211156138b557600080fd5b6138c187838801613797565b935060408601359150808211156138d757600080fd5b506138e486828701613802565b9150509250925092565b60008060006060848603121561390357600080fd5b833561390e81613510565b9250602084013567ffffffffffffffff8082111561392b57600080fd5b61393787838801613802565b9350604086013591508082111561394d57600080fd5b506138e486828701613797565b6000806020838503121561396d57600080fd5b823567ffffffffffffffff8082111561398557600080fd5b818501915085601f83011261399957600080fd5b8135818111156139a857600080fd5b8660208285010111156139ba57600080fd5b60209290920196919550909350505050565b60008083601f8401126139de57600080fd5b50813567ffffffffffffffff8111156139f657600080fd5b6020830191508360208260051b8501011115613a1157600080fd5b9250929050565b60008060008060008060008060008060a08b8d031215613a3757600080fd5b8a3567ffffffffffffffff80821115613a4f57600080fd5b613a5b8e838f016139cc565b909c509a5060208d0135915080821115613a7457600080fd5b613a808e838f016139cc565b909a50985060408d0135915080821115613a9957600080fd5b613aa58e838f016139cc565b909850965060608d0135915080821115613abe57600080fd5b613aca8e838f016139cc565b909650945060808d0135915080821115613ae357600080fd5b50613af08d828e016139cc565b915080935050809150509295989b9194979a5092959850565b600080600080600080600060e0888a031215613b2457600080fd5b8735613b2f81613510565b96506020880135613b3f81613510565b95506040880135945060608801359350608088013560ff81168114613b6357600080fd5b9699959850939692959460a0840135945060c09093013592915050565b60008060408385031215613b9357600080fd5b8235613b9e81613510565b91506020830135613bae81613510565b809150509250929050565b600181811c90821680613bcd57607f821691505b60208210811415613bee57634e487b7160e01b600052602260045260246000fd5b50919050565b600060808284031215613c0657600080fd5b6040516080810181811067ffffffffffffffff82111715613c2957613c2961372c565b6040528251613c37816135cd565b81526020830151613c47816135cd565b60208201526040830151613c5a816135cd565b60408201526060830151613c6d816135cd565b60608201529392505050565b6020808252818101527f455243323054656d706c6174653a204e4f54204445504c4f59455220524f4c45604082015260600190565b6020808252601f908201527f5265656e7472616e637947756172643a207265656e7472616e742063616c6c00604082015260600190565b634e487b7160e01b600052601160045260246000fd5b60008219821115613d0e57613d0e613ce5565b500190565b600060208284031215613d2557600080fd5b8151610b1d81613510565b634e487b7160e01b600052603260045260246000fd5b600081518084526020808501945080840160005b83811015613d7657815187529582019590820190600101613d5a565b509495945050505050565b600081518084526020808501945080840160005b83811015613d765781516001600160a01b031687529582019590820190600101613d95565b60008186825b6002811015613de85781516001600160a01b0316835260209283019290910190600101613dc0565b50505060a06040830152613dff60a0830186613d46565b8281036060840152613e118186613d46565b905082810360808401526134158185613d81565b6001600160a01b0384168152606060208201819052600090613e4990830185613d81565b8281036040840152613e5b8185613d46565b9695505050505050565b600060208284031215613e7757600080fd5b5051919050565b83815260406020820152816040820152818360608301376000818301606090810191909152601f909201601f1916010192915050565b600082613ed157634e487b7160e01b600052601260045260246000fd5b500490565b600067ffffffffffffffff831115613ef057613ef061372c565b613f03601f8401601f1916602001613742565b9050828152838383011115613f1757600080fd5b828260208301376000602084830101529392505050565b6000613f3c6137b884613773565b80848252602080830192508560051b850136811115613f5a57600080fd5b855b81811015613faa57803567ffffffffffffffff811115613f7c5760008081fd5b870136601f820112613f8e5760008081fd5b613f9c368235868401613ed6565b865250938201938201613f5c565b50919695505050505050565b6000613fc46137b884613773565b80848252602080830192508560051b850136811115613fe257600080fd5b855b81811015613faa57803567ffffffffffffffff8111156140045760008081fd5b870136601f8201126140165760008081fd5b614024368235868401613ed6565b865250938201938201613fe4565b600060001982141561404657614046613ce5565b5060010190565b60008282101561405f5761405f613ce5565b500390565b600080835481600182811c91508083168061408057607f831692505b60208084108214156140a057634e487b7160e01b86526022600452602486fd5b8180156140b457600181146140c5576140f2565b60ff198616895284890196506140f2565b60008a81526020902060005b868110156140ea5781548b8201529085019083016140d1565b505084890196505b509498975050505050505050565b60006020828403121561411257600080fd5b8151610b1d816135cd565b6000825161412f818460208701613542565b919091019291505056fea2646970667358221220a0c2c91cfc3a7104eb9c5008b6154122ad45793ebab13b24da90ff3992a8476564736f6c634300080a0033",
  "linkReferences": {},
  "deployedLinkReferences": {}
}