{
  "_format": "hh-sol-artifact-1",
  "contractName": "ERC20Template",
  "sourceName": "contracts/templates/ERC20Template.sol",
  "abi": [
    {
      "anonymous": false,
      "inputs": [
        {
          "indexed": true,
          "internalType": "address",
          "name": "user",
          "type": "address"
        },
        {
          "indexed": true,
          "internalType": "address",
          "name": "signer",
          "type": "address"
        },
        {
          "indexed": false,
          "internalType": "uint256",
          "name": "timestamp",
          "type": "uint256"
        },
        {
          "indexed": false,
          "internalType": "uint256",
          "name": "blockNumber",
          "type": "uint256"
        }
      ],
      "name": "AddedFeeManager",
      "type": "event"
    },
    {
      "anonymous": false,
      "inputs": [
        {
          "indexed": true,
          "internalType": "address",
          "name": "user",
          "type": "address"
        },
        {
          "indexed": true,
          "internalType": "address",
          "name": "signer",
          "type": "address"
        },
        {
          "indexed": false,
          "internalType": "uint256",
          "name": "timestamp",
          "type": "uint256"
        },
        {
          "indexed": false,
          "internalType": "uint256",
          "name": "blockNumber",
          "type": "uint256"
        }
      ],
      "name": "AddedMinter",
      "type": "event"
    },
    {
      "anonymous": false,
      "inputs": [
        {
          "indexed": true,
          "internalType": "address",
          "name": "owner",
          "type": "address"
        },
        {
          "indexed": true,
          "internalType": "address",
          "name": "spender",
          "type": "address"
        },
        {
          "indexed": false,
          "internalType": "uint256",
          "name": "value",
          "type": "uint256"
        }
      ],
      "name": "Approval",
      "type": "event"
    },
    {
      "anonymous": false,
      "inputs": [
        {
          "indexed": true,
          "internalType": "address",
          "name": "signer",
          "type": "address"
        },
        {
          "indexed": false,
          "internalType": "uint256",
          "name": "timestamp",
          "type": "uint256"
        },
        {
          "indexed": false,
          "internalType": "uint256",
          "name": "blockNumber",
          "type": "uint256"
        }
      ],
      "name": "CleanedPermissions",
      "type": "event"
    },
    {
      "anonymous": false,
      "inputs": [
        {
          "indexed": false,
          "internalType": "address",
          "name": "currentMinter",
          "type": "address"
        },
        {
          "indexed": false,
          "internalType": "address",
          "name": "newMinter",
          "type": "address"
        }
      ],
      "name": "MinterApproved",
      "type": "event"
    },
    {
      "anonymous": false,
      "inputs": [
        {
          "indexed": false,
          "internalType": "address",
          "name": "currentMinter",
          "type": "address"
        },
        {
          "indexed": false,
          "internalType": "address",
          "name": "newMinter",
          "type": "address"
        }
      ],
      "name": "MinterProposed",
      "type": "event"
    },
    {
      "anonymous": false,
      "inputs": [
        {
          "indexed": false,
          "internalType": "bytes32",
          "name": "exchangeId",
          "type": "bytes32"
        },
        {
          "indexed": false,
          "internalType": "address",
          "name": "owner",
          "type": "address"
        }
      ],
      "name": "NewFixedRate",
      "type": "event"
    },
    {
      "anonymous": false,
      "inputs": [
        {
          "indexed": false,
          "internalType": "address",
          "name": "poolAddress",
          "type": "address"
        },
        {
          "indexed": false,
          "internalType": "address",
          "name": "ssContract",
          "type": "address"
        },
        {
          "indexed": false,
          "internalType": "address",
          "name": "basetokenAddress",
          "type": "address"
        }
      ],
      "name": "NewPool",
      "type": "event"
    },
    {
      "anonymous": false,
      "inputs": [
        {
          "indexed": true,
          "internalType": "address",
          "name": "consumer",
          "type": "address"
        },
        {
          "indexed": false,
          "internalType": "address",
          "name": "payer",
          "type": "address"
        },
        {
          "indexed": false,
          "internalType": "uint256",
          "name": "amount",
          "type": "uint256"
        },
        {
          "indexed": false,
          "internalType": "uint256",
          "name": "serviceId",
          "type": "uint256"
        },
        {
          "indexed": false,
          "internalType": "uint256",
          "name": "timestamp",
          "type": "uint256"
        },
        {
          "indexed": true,
          "internalType": "address",
          "name": "publishMarketAddress",
          "type": "address"
        },
        {
          "indexed": true,
          "internalType": "address",
          "name": "consumeFeeMarketAddress",
          "type": "address"
        },
        {
          "indexed": false,
          "internalType": "uint256",
          "name": "blockNumber",
          "type": "uint256"
        }
      ],
      "name": "OrderStarted",
      "type": "event"
    },
    {
      "anonymous": false,
      "inputs": [
        {
          "indexed": true,
          "internalType": "address",
          "name": "user",
          "type": "address"
        },
        {
          "indexed": true,
          "internalType": "address",
          "name": "signer",
          "type": "address"
        },
        {
          "indexed": false,
          "internalType": "uint256",
          "name": "timestamp",
          "type": "uint256"
        },
        {
          "indexed": false,
          "internalType": "uint256",
          "name": "blockNumber",
          "type": "uint256"
        }
      ],
      "name": "RemovedFeeManager",
      "type": "event"
    },
    {
      "anonymous": false,
      "inputs": [
        {
          "indexed": true,
          "internalType": "address",
          "name": "user",
          "type": "address"
        },
        {
          "indexed": true,
          "internalType": "address",
          "name": "signer",
          "type": "address"
        },
        {
          "indexed": false,
          "internalType": "uint256",
          "name": "timestamp",
          "type": "uint256"
        },
        {
          "indexed": false,
          "internalType": "uint256",
          "name": "blockNumber",
          "type": "uint256"
        }
      ],
      "name": "RemovedMinter",
      "type": "event"
    },
    {
      "anonymous": false,
      "inputs": [
        {
          "indexed": true,
          "internalType": "address",
          "name": "from",
          "type": "address"
        },
        {
          "indexed": true,
          "internalType": "address",
          "name": "to",
          "type": "address"
        },
        {
          "indexed": false,
          "internalType": "uint256",
          "name": "value",
          "type": "uint256"
        }
      ],
      "name": "Transfer",
      "type": "event"
    },
    {
      "stateMutability": "payable",
      "type": "fallback"
    },
    {
      "inputs": [],
      "name": "BASE",
      "outputs": [
        {
          "internalType": "uint256",
          "name": "",
          "type": "uint256"
        }
      ],
      "stateMutability": "view",
      "type": "function"
    },
    {
      "inputs": [],
      "name": "BASE_COMMUNITY_FEE_PERCENTAGE",
      "outputs": [
        {
          "internalType": "uint256",
          "name": "",
          "type": "uint256"
        }
      ],
      "stateMutability": "view",
      "type": "function"
    },
    {
      "inputs": [],
      "name": "DOMAIN_SEPARATOR",
      "outputs": [
        {
          "internalType": "bytes32",
          "name": "",
          "type": "bytes32"
        }
      ],
      "stateMutability": "view",
      "type": "function"
    },
    {
      "inputs": [],
      "name": "PERMIT_TYPEHASH",
      "outputs": [
        {
          "internalType": "bytes32",
          "name": "",
          "type": "bytes32"
        }
      ],
      "stateMutability": "view",
      "type": "function"
    },
    {
      "inputs": [
        {
          "internalType": "address",
          "name": "_feeManager",
          "type": "address"
        }
      ],
      "name": "addFeeManager",
      "outputs": [],
      "stateMutability": "nonpayable",
      "type": "function"
    },
    {
      "inputs": [
        {
          "internalType": "address",
          "name": "_minter",
          "type": "address"
        }
      ],
      "name": "addMinter",
      "outputs": [],
      "stateMutability": "nonpayable",
      "type": "function"
    },
    {
      "inputs": [
        {
          "internalType": "address",
          "name": "owner",
          "type": "address"
        },
        {
          "internalType": "address",
          "name": "spender",
          "type": "address"
        }
      ],
      "name": "allowance",
      "outputs": [
        {
          "internalType": "uint256",
          "name": "",
          "type": "uint256"
        }
      ],
      "stateMutability": "view",
      "type": "function"
    },
    {
      "inputs": [
        {
          "internalType": "address",
          "name": "spender",
          "type": "address"
        },
        {
          "internalType": "uint256",
          "name": "amount",
          "type": "uint256"
        }
      ],
      "name": "approve",
      "outputs": [
        {
          "internalType": "bool",
          "name": "",
          "type": "bool"
        }
      ],
      "stateMutability": "nonpayable",
      "type": "function"
    },
    {
      "inputs": [
        {
          "internalType": "uint256",
          "name": "",
          "type": "uint256"
        }
      ],
      "name": "authERC20",
      "outputs": [
        {
          "internalType": "address",
          "name": "",
          "type": "address"
        }
      ],
      "stateMutability": "view",
      "type": "function"
    },
    {
      "inputs": [
        {
          "internalType": "address",
          "name": "account",
          "type": "address"
        }
      ],
      "name": "balanceOf",
      "outputs": [
        {
          "internalType": "uint256",
          "name": "",
          "type": "uint256"
        }
      ],
      "stateMutability": "view",
      "type": "function"
    },
    {
      "inputs": [
        {
          "internalType": "uint256",
          "name": "amount",
          "type": "uint256"
        }
      ],
      "name": "burn",
      "outputs": [],
      "stateMutability": "nonpayable",
      "type": "function"
    },
    {
      "inputs": [
        {
          "internalType": "address",
          "name": "account",
          "type": "address"
        },
        {
          "internalType": "uint256",
          "name": "amount",
          "type": "uint256"
        }
      ],
      "name": "burnFrom",
      "outputs": [],
      "stateMutability": "nonpayable",
      "type": "function"
    },
    {
      "inputs": [],
      "name": "cap",
      "outputs": [
        {
          "internalType": "uint256",
          "name": "",
          "type": "uint256"
        }
      ],
      "stateMutability": "view",
      "type": "function"
    },
    {
      "inputs": [],
      "name": "cleanFrom721",
      "outputs": [],
      "stateMutability": "nonpayable",
      "type": "function"
    },
    {
      "inputs": [],
      "name": "cleanPermissions",
      "outputs": [],
      "stateMutability": "nonpayable",
      "type": "function"
    },
    {
      "inputs": [
        {
          "internalType": "address",
          "name": "_dispenser",
          "type": "address"
        },
        {
          "internalType": "uint256",
          "name": "maxTokens",
          "type": "uint256"
        },
        {
          "internalType": "uint256",
          "name": "maxBalance",
          "type": "uint256"
        },
        {
          "internalType": "bool",
          "name": "withMint",
          "type": "bool"
        },
        {
          "internalType": "address",
          "name": "allowedSwapper",
          "type": "address"
        }
      ],
      "name": "createDispenser",
      "outputs": [],
      "stateMutability": "nonpayable",
      "type": "function"
    },
    {
      "inputs": [
        {
          "internalType": "address",
          "name": "fixedPriceAddress",
          "type": "address"
        },
        {
          "internalType": "address[]",
          "name": "addresses",
          "type": "address[]"
        },
        {
          "internalType": "uint256[]",
          "name": "uints",
          "type": "uint256[]"
        }
      ],
      "name": "createFixedRate",
      "outputs": [
        {
          "internalType": "bytes32",
          "name": "exchangeId",
          "type": "bytes32"
        }
      ],
      "stateMutability": "nonpayable",
      "type": "function"
    },
    {
      "inputs": [],
      "name": "decimals",
      "outputs": [
        {
          "internalType": "uint8",
          "name": "",
          "type": "uint8"
        }
      ],
      "stateMutability": "pure",
      "type": "function"
    },
    {
      "inputs": [
        {
          "internalType": "address",
          "name": "spender",
          "type": "address"
        },
        {
          "internalType": "uint256",
          "name": "subtractedValue",
          "type": "uint256"
        }
      ],
      "name": "decreaseAllowance",
      "outputs": [
        {
          "internalType": "bool",
          "name": "",
          "type": "bool"
        }
      ],
      "stateMutability": "nonpayable",
      "type": "function"
    },
    {
      "inputs": [
        {
          "internalType": "uint256[]",
          "name": "ssParams",
          "type": "uint256[]"
        },
        {
          "internalType": "uint256[]",
          "name": "swapFees",
          "type": "uint256[]"
        },
        {
          "internalType": "address[]",
          "name": "addresses",
          "type": "address[]"
        }
      ],
      "name": "deployPool",
      "outputs": [
        {
          "internalType": "address",
          "name": "pool",
          "type": "address"
        }
      ],
      "stateMutability": "nonpayable",
      "type": "function"
    },
    {
      "inputs": [],
      "name": "getERC721Address",
      "outputs": [
        {
          "internalType": "address",
          "name": "",
          "type": "address"
        }
      ],
      "stateMutability": "view",
      "type": "function"
    },
    {
      "inputs": [],
      "name": "getFeeCollector",
      "outputs": [
        {
          "internalType": "address",
          "name": "",
          "type": "address"
        }
      ],
      "stateMutability": "view",
      "type": "function"
    },
    {
      "inputs": [],
      "name": "getId",
      "outputs": [
        {
          "internalType": "uint8",
          "name": "",
          "type": "uint8"
        }
      ],
      "stateMutability": "pure",
      "type": "function"
    },
    {
      "inputs": [],
      "name": "getPublishingMarketFee",
      "outputs": [
        {
          "internalType": "address",
          "name": "",
          "type": "address"
        },
        {
          "internalType": "address",
          "name": "",
          "type": "address"
        },
        {
          "internalType": "uint256",
          "name": "",
          "type": "uint256"
        }
      ],
      "stateMutability": "view",
      "type": "function"
    },
    {
      "inputs": [
        {
          "internalType": "address",
          "name": "spender",
          "type": "address"
        },
        {
          "internalType": "uint256",
          "name": "addedValue",
          "type": "uint256"
        }
      ],
      "name": "increaseAllowance",
      "outputs": [
        {
          "internalType": "bool",
          "name": "",
          "type": "bool"
        }
      ],
      "stateMutability": "nonpayable",
      "type": "function"
    },
    {
      "inputs": [
        {
          "internalType": "string[]",
          "name": "strings_",
          "type": "string[]"
        },
        {
          "internalType": "address[]",
          "name": "addresses_",
          "type": "address[]"
        },
        {
          "internalType": "address[]",
          "name": "factoryAddresses_",
          "type": "address[]"
        },
        {
          "internalType": "uint256[]",
          "name": "uints_",
          "type": "uint256[]"
        },
        {
          "internalType": "bytes[]",
          "name": "bytes_",
          "type": "bytes[]"
        }
      ],
      "name": "initialize",
      "outputs": [
        {
          "internalType": "bool",
          "name": "",
          "type": "bool"
        }
      ],
      "stateMutability": "nonpayable",
      "type": "function"
    },
    {
      "inputs": [],
      "name": "isInitialized",
      "outputs": [
        {
          "internalType": "bool",
          "name": "",
          "type": "bool"
        }
      ],
      "stateMutability": "view",
      "type": "function"
    },
    {
      "inputs": [
        {
          "internalType": "address",
          "name": "account",
          "type": "address"
        }
      ],
      "name": "isMinter",
      "outputs": [
        {
          "internalType": "bool",
          "name": "",
          "type": "bool"
        }
      ],
      "stateMutability": "view",
      "type": "function"
    },
    {
      "inputs": [
        {
          "internalType": "address",
          "name": "account",
          "type": "address"
        },
        {
          "internalType": "uint256",
          "name": "value",
          "type": "uint256"
        }
      ],
      "name": "mint",
      "outputs": [],
      "stateMutability": "nonpayable",
      "type": "function"
    },
    {
      "inputs": [],
      "name": "name",
      "outputs": [
        {
          "internalType": "string",
          "name": "",
          "type": "string"
        }
      ],
      "stateMutability": "view",
      "type": "function"
    },
    {
      "inputs": [
        {
          "internalType": "address",
          "name": "",
          "type": "address"
        }
      ],
      "name": "nonces",
      "outputs": [
        {
          "internalType": "uint256",
          "name": "",
          "type": "uint256"
        }
      ],
      "stateMutability": "view",
      "type": "function"
    },
    {
      "inputs": [
        {
          "internalType": "address",
          "name": "",
          "type": "address"
        }
      ],
      "name": "permissions",
      "outputs": [
        {
          "internalType": "bool",
          "name": "minter",
          "type": "bool"
        },
        {
          "internalType": "bool",
          "name": "feeManager",
          "type": "bool"
        }
      ],
      "stateMutability": "view",
      "type": "function"
    },
    {
      "inputs": [
        {
          "internalType": "address",
          "name": "owner",
          "type": "address"
        },
        {
          "internalType": "address",
          "name": "spender",
          "type": "address"
        },
        {
          "internalType": "uint256",
          "name": "value",
          "type": "uint256"
        },
        {
          "internalType": "uint256",
          "name": "deadline",
          "type": "uint256"
        },
        {
          "internalType": "uint8",
          "name": "v",
          "type": "uint8"
        },
        {
          "internalType": "bytes32",
          "name": "r",
          "type": "bytes32"
        },
        {
          "internalType": "bytes32",
          "name": "s",
          "type": "bytes32"
        }
      ],
      "name": "permit",
      "outputs": [],
      "stateMutability": "nonpayable",
      "type": "function"
    },
    {
      "inputs": [
        {
          "internalType": "address",
          "name": "_feeManager",
          "type": "address"
        }
      ],
      "name": "removeFeeManager",
      "outputs": [],
      "stateMutability": "nonpayable",
      "type": "function"
    },
    {
      "inputs": [
        {
          "internalType": "address",
          "name": "_minter",
          "type": "address"
        }
      ],
      "name": "removeMinter",
      "outputs": [],
      "stateMutability": "nonpayable",
      "type": "function"
    },
    {
      "inputs": [],
      "name": "router",
      "outputs": [
        {
          "internalType": "address",
          "name": "",
          "type": "address"
        }
      ],
      "stateMutability": "view",
      "type": "function"
    },
    {
      "inputs": [
        {
          "internalType": "bytes",
          "name": "_value",
          "type": "bytes"
        }
      ],
      "name": "setData",
      "outputs": [],
      "stateMutability": "nonpayable",
      "type": "function"
    },
    {
      "inputs": [
        {
          "internalType": "address",
          "name": "_newFeeCollector",
          "type": "address"
        }
      ],
      "name": "setFeeCollector",
      "outputs": [],
      "stateMutability": "nonpayable",
      "type": "function"
    },
    {
      "inputs": [
        {
          "internalType": "address",
          "name": "_publishMarketFeeAddress",
          "type": "address"
        },
        {
          "internalType": "address",
          "name": "_publishMarketFeeToken",
          "type": "address"
        },
        {
          "internalType": "uint256",
          "name": "_publishMarketFeeAmount",
          "type": "uint256"
        }
      ],
      "name": "setPublishingMarketFee",
      "outputs": [],
      "stateMutability": "nonpayable",
      "type": "function"
    },
    {
      "inputs": [
        {
          "internalType": "address",
          "name": "consumer",
          "type": "address"
        },
        {
          "internalType": "uint256",
          "name": "amount",
          "type": "uint256"
        },
        {
          "internalType": "uint256",
          "name": "serviceId",
          "type": "uint256"
        },
        {
          "internalType": "address",
          "name": "consumeFeeAddress",
          "type": "address"
        },
        {
          "internalType": "address",
          "name": "consumeFeeToken",
          "type": "address"
        },
        {
          "internalType": "uint256",
          "name": "consumeFeeAmount",
          "type": "uint256"
        }
      ],
      "name": "startOrder",
      "outputs": [],
      "stateMutability": "nonpayable",
      "type": "function"
    },
    {
      "inputs": [],
      "name": "symbol",
      "outputs": [
        {
          "internalType": "string",
          "name": "",
          "type": "string"
        }
      ],
      "stateMutability": "view",
      "type": "function"
    },
    {
      "inputs": [],
      "name": "totalSupply",
      "outputs": [
        {
          "internalType": "uint256",
          "name": "",
          "type": "uint256"
        }
      ],
      "stateMutability": "view",
      "type": "function"
    },
    {
      "inputs": [
        {
          "internalType": "address",
          "name": "recipient",
          "type": "address"
        },
        {
          "internalType": "uint256",
          "name": "amount",
          "type": "uint256"
        }
      ],
      "name": "transfer",
      "outputs": [
        {
          "internalType": "bool",
          "name": "",
          "type": "bool"
        }
      ],
      "stateMutability": "nonpayable",
      "type": "function"
    },
    {
      "inputs": [
        {
          "internalType": "address",
          "name": "sender",
          "type": "address"
        },
        {
          "internalType": "address",
          "name": "recipient",
          "type": "address"
        },
        {
          "internalType": "uint256",
          "name": "amount",
          "type": "uint256"
        }
      ],
      "name": "transferFrom",
      "outputs": [
        {
          "internalType": "bool",
          "name": "",
          "type": "bool"
        }
      ],
      "stateMutability": "nonpayable",
      "type": "function"
    },
    {
      "inputs": [],
      "name": "withdrawETH",
      "outputs": [],
      "stateMutability": "payable",
      "type": "function"
    }
  ],
  "bytecode": "0x6080604052600b805460ff60a01b191690553480156200001e57600080fd5b5060408051808201825260048152631d195cdd60e21b60208083019182528351808501909452600a8452691d195cdd14de5b589bdb60b21b9084015281519192916200006d9160039162000091565b5080516200008390600490602084019062000091565b505060016007555062000174565b8280546200009f9062000137565b90600052602060002090601f016020900481019282620000c357600085556200010e565b82601f10620000de57805160ff19168380011785556200010e565b828001600101855582156200010e579182015b828111156200010e578251825591602001919060010190620000f1565b506200011c92915062000120565b5090565b5b808211156200011c576000815560010162000121565b600181811c908216806200014c57607f821691505b602082108114156200016e57634e487b7160e01b600052602260045260246000fd5b50919050565b613fe980620001846000396000f3fe60806040526004361061025c5760003560e01c80635d1ca63111610143578063a9059cbb116100bb578063dd62ed3e11610077578063dd62ed3e146107ab578063e086e5ec146107f1578063ec342ad0146107f9578063ef867ff414610815578063f887ea4014610835578063fda9dae71461085557005b8063a9059cbb146106dd578063aa271e1a146106fd578063ab62f0e114610736578063b2263a5d14610756578063b3998be01461076b578063d505accf1461078b57005b806382c03da51161010a57806382c03da5146106335780638b96412b1461064857806395d89b4114610668578063983b2d561461067d578063a42dce801461069d578063a457c2d7146106bd57005b80635d1ca6311461057c57806370a082311461059057806379cc6790146105c65780637ecebe00146105e65780638115c9cc1461061357005b8063313ce567116101d6578063397b37431161019d578063397b3743146104ab57806340c10f19146104e757806342966c68146105075780634f189cb21461052757806357ad5ff61461053c5780635bfe4da01461055c57005b8063313ce5671461041f578063355274ea146104415780633644e51514610456578063392e53cd1461046c578063395093511461048b57005b806318160ddd1161022557806318160ddd1461034c578063191c918a1461036b5780631f2d32c31461038b57806323b872dd146103ab5780633092afd5146103cb57806330adf81f146103eb57005b80627ffb781461025e57806301e882081461029557806306fdde03146102e5578063095ea7b31461030757806312fde4b714610337575b005b34801561026a57600080fd5b50600c546001600160a01b03165b6040516001600160a01b0390911681526020015b60405180910390f35b3480156102a157600080fd5b506102ce6102b0366004613541565b60056020526000908152604090205460ff8082169161010090041682565b60408051921515835290151560208301520161028c565b3480156102f157600080fd5b506102fa610875565b60405161028c9190613c85565b34801561031357600080fd5b506103276103223660046136e2565b610907565b604051901515815260200161028c565b34801561034357600080fd5b5061027861091d565b34801561035857600080fd5b506002545b60405190815260200161028c565b34801561037757600080fd5b5061025c610386366004613775565b6109c1565b34801561039757600080fd5b5061025c6103a6366004613541565b610b35565b3480156103b757600080fd5b506103276103c63660046135b4565b610be3565b3480156103d757600080fd5b5061025c6103e6366004613541565b610c8d565b3480156103f757600080fd5b5061035d7f6e71edae12b1b97f4d1f60370fef10105fa2faae0126114a169c64845d6126c981565b34801561042b57600080fd5b5060125b60405160ff909116815260200161028c565b34801561044d57600080fd5b50600a5461035d565b34801561046257600080fd5b5061035d60115481565b34801561047857600080fd5b50600b54600160a01b900460ff16610327565b34801561049757600080fd5b506103276104a63660046136e2565b610d38565b3480156104b757600080fd5b50600e54600f54601054604080516001600160a01b0394851681529390921660208401529082015260600161028c565b3480156104f357600080fd5b5061025c6105023660046136e2565b610d74565b34801561051357600080fd5b5061025c610522366004613a70565b610e4a565b34801561053357600080fd5b5061025c610e54565b34801561054857600080fd5b5061025c6105573660046135b4565b610f4a565b34801561056857600080fd5b506102786105773660046138c5565b610fec565b34801561058857600080fd5b50600161042f565b34801561059c57600080fd5b5061035d6105ab366004613541565b6001600160a01b031660009081526020819052604090205490565b3480156105d257600080fd5b5061025c6105e13660046136e2565b6112f5565b3480156105f257600080fd5b5061035d610601366004613541565b60126020526000908152604090205481565b34801561061f57600080fd5b5061025c61062e366004613541565b61137b565b34801561063f57600080fd5b5061025c611426565b34801561065457600080fd5b5061035d61066336600461366c565b611480565b34801561067457600080fd5b506102fa611670565b34801561068957600080fd5b5061025c610698366004613541565b61167f565b3480156106a957600080fd5b5061025c6106b8366004613541565b61172a565b3480156106c957600080fd5b506103276106d83660046136e2565b6117b6565b3480156106e957600080fd5b506103276106f83660046136e2565b61184f565b34801561070957600080fd5b50610327610718366004613541565b6001600160a01b031660009081526005602052604090205460ff1690565b34801561074257600080fd5b5061025c610751366004613979565b61185c565b34801561076257600080fd5b5061035d6119a1565b34801561077757600080fd5b506103276107863660046137d4565b6119b7565b34801561079757600080fd5b5061025c6107a63660046135f5565b611af1565b3480156107b757600080fd5b5061035d6107c636600461357b565b6001600160a01b03918216600090815260016020908152604080832093909416825291909152205490565b61025c611d03565b34801561080557600080fd5b5061035d670de0b6b3a764000081565b34801561082157600080fd5b50610278610830366004613a70565b611d43565b34801561084157600080fd5b50601354610278906001600160a01b031681565b34801561086157600080fd5b5061025c61087036600461370e565b611d6d565b60606008805461088490613ef8565b80601f01602080910402602001604051908101604052809291908181526020018280546108b090613ef8565b80156108fd5780601f106108d2576101008083540402835291602001916108fd565b820191906000526020600020905b8154815290600101906020018083116108e057829003601f168201915b5050505050905090565b60006109143384846125f3565b50600192915050565b600d546000906001600160a01b03166109b157600c546040516331a9108f60e11b8152600160048201526001600160a01b0390911690636352211e9060240160206040518083038186803b15801561097457600080fd5b505afa158015610988573d6000803e3d6000fd5b505050506040513d601f19601f820116820180604052508101906109ac919061355e565b905090565b50600d546001600160a01b031690565b600c5460405163160a792560e01b81523360048201526001600160a01b039091169063160a792590602401608060405180830381600087803b158015610a0657600080fd5b505af1158015610a1a573d6000803e3d6000fd5b505050506040513d601f19601f82011682018060405250810190610a3e91906139eb565b602001511515600114610a6c5760405162461bcd60e51b8152600401610a6390613cda565b60405180910390fd5b60026007541415610a8f5760405162461bcd60e51b8152600401610a6390613d0f565b6002600755601354604051636b14d00560e11b81526001600160a01b038781166004830152306024830152604482018790526064820186905233608483015283811660a48301529091169063d629a00a9060c401600060405180830381600087803b158015610afd57600080fd5b505af1158015610b11573d6000803e3d6000fd5b5050505081151560011415610b2957610b2985612717565b50506001600755505050565b600c5460405163160a792560e01b81523360048201526001600160a01b039091169063160a792590602401608060405180830381600087803b158015610b7a57600080fd5b505af1158015610b8e573d6000803e3d6000fd5b505050506040513d601f19601f82011682018060405250810190610bb291906139eb565b602001511515600114610bd75760405162461bcd60e51b8152600401610a6390613cda565b610be081612819565b50565b6000610bf0848484612927565b6001600160a01b038416600090815260016020908152604080832033845290915290205482811015610c755760405162461bcd60e51b815260206004820152602860248201527f45524332303a207472616e7366657220616d6f756e74206578636565647320616044820152676c6c6f77616e636560c01b6064820152608401610a63565b610c8285338584036125f3565b506001949350505050565b600c5460405163160a792560e01b81523360048201526001600160a01b039091169063160a792590602401608060405180830381600087803b158015610cd257600080fd5b505af1158015610ce6573d6000803e3d6000fd5b505050506040513d601f19601f82011682018060405250810190610d0a91906139eb565b602001511515600114610d2f5760405162461bcd60e51b8152600401610a6390613cda565b610be081612af6565b3360008181526001602090815260408083206001600160a01b03871684529091528120549091610914918590610d6f908690613d9b565b6125f3565b3360009081526005602052604090205460ff161515600114610dd85760405162461bcd60e51b815260206004820152601960248201527f455243323054656d706c6174653a204e4f54204d494e544552000000000000006044820152606401610a63565b600a54610dee82610de860025490565b90612b56565b1115610e3c5760405162461bcd60e51b815260206004820152601f60248201527f44617461546f6b656e54656d706c6174653a20636170206578636565646564006044820152606401610a63565b610e468282612b69565b5050565b610be03382612c48565b600c546040516331a9108f60e11b8152600160048201526001600160a01b0390911690636352211e9060240160206040518083038186803b158015610e9857600080fd5b505afa158015610eac573d6000803e3d6000fd5b505050506040513d601f19601f82011682018060405250810190610ed0919061355e565b6001600160a01b0316336001600160a01b031614610f305760405162461bcd60e51b815260206004820152601b60248201527f455243323054656d706c6174653a206e6f74204e46544f776e657200000000006044820152606401610a63565b610f38612d96565b600d80546001600160a01b0319169055565b600e546001600160a01b03163314610fb75760405162461bcd60e51b815260206004820152602a60248201527f455243323054656d706c6174653a206e6f74207075626c6973684d61726b65746044820152694665654164647265737360b01b6064820152608401610a63565b600e80546001600160a01b039485166001600160a01b031991821617909155600f805493909416921691909117909155601055565b600c5460405163160a792560e01b81523360048201526000916001600160a01b03169063160a792590602401608060405180830381600087803b15801561103257600080fd5b505af1158015611046573d6000803e3d6000fd5b505050506040513d601f19601f8201168201806040525081019061106a91906139eb565b60200151151560011461108f5760405162461bcd60e51b8152600401610a6390613cda565b600254156110eb5760405162461bcd60e51b8152602060048201526024808201527f455243323054656d706c6174653a20746f6b656e7320616c7265616479206d696044820152631b9d195960e21b6064820152608401610a63565b61110e8260008151811061110157611101613f64565b6020026020010151612717565b622504908460038151811061112557611125613f64565b60200260200101511161118c5760405162461bcd60e51b815260206004820152602960248201527f455243323054656d706c6174653a206d696e696d756d20626c6f636b73206e6f6044820152681d081c995858da195960ba1b6064820152608401610a63565b60006040518060400160405280306001600160a01b03166001600160a01b03168152602001846001815181106111c4576111c4613f64565b60209081029190910101516001600160a01b0390811690915260135460405163ee3bc63560e01b8152929350169063ee3bc6359061120c908490899089908990600401613bd9565b602060405180830381600087803b15801561122657600080fd5b505af115801561123a573d6000803e3d6000fd5b505050506040513d601f19601f8201168201806040525081019061125e919061355e565b91507fd02da1bec30f7f750aa0a131745dfb9ce96767c45a192dc26409f5d690e0b967828460008151811061129557611295613f64565b6020026020010151856001815181106112b0576112b0613f64565b60200260200101516040516112e5939291906001600160a01b0393841681529183166020830152909116604082015260600190565b60405180910390a1509392505050565b600061130183336107c6565b90508181101561135f5760405162461bcd60e51b8152602060048201526024808201527f45524332303a206275726e20616d6f756e74206578636565647320616c6c6f77604482015263616e636560e01b6064820152608401610a63565b61136c83338484036125f3565b6113768383612c48565b505050565b600c5460405163160a792560e01b81523360048201526001600160a01b039091169063160a792590602401608060405180830381600087803b1580156113c057600080fd5b505af11580156113d4573d6000803e3d6000fd5b505050506040513d601f19601f820116820180604052508101906113f891906139eb565b60200151151560011461141d5760405162461bcd60e51b8152600401610a6390613cda565b610be081612e45565b600c546001600160a01b03163314610f305760405162461bcd60e51b815260206004820152601f60248201527f455243323054656d706c6174653a204e4f542037323120436f6e7472616374006044820152606401610a63565b600c5460405163160a792560e01b81523360048201526000916001600160a01b03169063160a792590602401608060405180830381600087803b1580156114c657600080fd5b505af11580156114da573d6000803e3d6000fd5b505050506040513d601f19601f820116820180604052508101906114fe91906139eb565b6020015115156001146115235760405162461bcd60e51b8152600401610a6390613cda565b600260075414156115465760405162461bcd60e51b8152600401610a6390613d0f565b6002600755601354604051638244937560e01b81526001600160a01b039091169063824493759061157f90879087908790600401613b99565b602060405180830381600087803b15801561159957600080fd5b505af11580156115ad573d6000803e3d6000fd5b505050506040513d601f19601f820116820180604052508101906115d19190613960565b90506000826004815181106115e8576115e8613f64565b602002602001015111156115ff576115ff84612717565b7f195d202f33578769e120c3041341554af3193e67ee004175095bc9c06e6e6165818460008151811061163457611634613f64565b602002602001015160405161165c9291909182526001600160a01b0316602082015260400190565b60405180910390a160016007559392505050565b60606009805461088490613ef8565b600c5460405163160a792560e01b81523360048201526001600160a01b039091169063160a792590602401608060405180830381600087803b1580156116c457600080fd5b505af11580156116d8573d6000803e3d6000fd5b505050506040513d601f19601f820116820180604052508101906116fc91906139eb565b6020015115156001146117215760405162461bcd60e51b8152600401610a6390613cda565b610be081612717565b3360009081526005602052604090205460ff6101009091041615156001146117945760405162461bcd60e51b815260206004820152601e60248201527f455243323054656d706c6174653a204e4f5420464545204d414e4147455200006044820152606401610a63565b600d80546001600160a01b0319166001600160a01b0392909216919091179055565b3360009081526001602090815260408083206001600160a01b0386168452909152812054828110156118385760405162461bcd60e51b815260206004820152602560248201527f45524332303a2064656372656173656420616c6c6f77616e63652062656c6f77604482015264207a65726f60d81b6064820152608401610a63565b61184533858584036125f3565b5060019392505050565b6000610914338484612927565b600c5460405163160a792560e01b81523360048201526001600160a01b039091169063160a792590602401608060405180830381600087803b1580156118a157600080fd5b505af11580156118b5573d6000803e3d6000fd5b505050506040513d601f19601f820116820180604052508101906118d991906139eb565b6020015115156001146118fe5760405162461bcd60e51b8152600401610a6390613cda565b6040516bffffffffffffffffffffffff193060601b16602082015260009060340160408051601f19818403018152908290528051602090910120600c546301caf8fd60e31b83529092506001600160a01b031690630e57c7e89061196a90849087908790600401613c4f565b600060405180830381600087803b15801561198457600080fd5b505af1158015611998573d6000803e3d6000fd5b50505050505050565b6119b46064670de0b6b3a7640000613db3565b81565b600b54600090600160a01b900460ff1615611a2e5760405162461bcd60e51b815260206004820152603160248201527f455243323054656d706c6174653a20746f6b656e20696e7374616e636520616c6044820152701c9958591e481a5b9a5d1a585b1a5e9959607a1b6064820152608401610a63565b611ae2611a3b8b8d613e78565b8a8a8080602002602001604051908101604052809392919081815260200183836020028082843760009201919091525050604080516020808e0282810182019093528d82529093508d92508c91829185019084908082843760009201919091525050604080516020808d0282810182019093528c82529093508c92508b918291850190849080828437600092019190915250611add92508991508a9050613dec565b612ea6565b9b9a5050505050505050505050565b43841015611b345760405162461bcd60e51b815260206004820152601060248201526f115490cc8c11150e881156141254915160821b6044820152606401610a63565b6011546001600160a01b038816600090815260126020526040812080549192917f6e71edae12b1b97f4d1f60370fef10105fa2faae0126114a169c64845d6126c9918b918b918b919087611b8783613f33565b909155506040805160208101969096526001600160a01b0394851690860152929091166060840152608083015260a082015260c0810187905260e00160405160208183030381529060405280519060200120604051602001611c0092919061190160f01b81526002810192909252602282015260420190565b60408051601f198184030181528282528051602091820120600080855291840180845281905260ff88169284019290925260608301869052608083018590529092509060019060a0016020604051602081039080840390855afa158015611c6b573d6000803e3d6000fd5b5050604051601f1901519150506001600160a01b03811615801590611ca15750886001600160a01b0316816001600160a01b0316145b611ced5760405162461bcd60e51b815260206004820152601a60248201527f455243323044543a20494e56414c49445f5349474e41545552450000000000006044820152606401610a63565b611cf88989896125f3565b505050505050505050565b611d0b61091d565b6001600160a01b03166108fc479081150290604051600060405180830381858888f19350505050158015610be0573d6000803e3d6000fd5b60068181548110611d5357600080fd5b6000918252602090912001546001600160a01b0316905081565b60026007541415611d905760405162461bcd60e51b8152600401610a6390613d0f565b6002600755336000908152602081905260408120548190871115611e045760405162461bcd60e51b815260206004820152602560248201527f4e6f7420656e6f756768204461746120546f6b656e7320746f2073746172742060448201526427b93232b960d91b6064820152608401610a63565b6000601054118015611e205750600f546001600160a01b031615155b8015611e365750600e546001600160a01b031615155b1561203f57600f546010546040516323b872dd60e01b815233600482015230602482015260448101919091526001600160a01b03909116906323b872dd90606401602060405180830381600087803b158015611e9157600080fd5b505af1158015611ea5573d6000803e3d6000fd5b505050506040513d601f19601f82011682018060405250810190611ec99190613943565b611f215760405162461bcd60e51b815260206004820152602360248201527f4661696c656420746f207472616e73666572207075626c6973684d61726b657460448201526246656560e81b6064820152608401610a63565b601054611f2f9060646132f3565b600f54600e546010549293506001600160a01b039182169263a9059cbb9290911690611f5b90856132ff565b6040516001600160e01b031960e085901b1681526001600160a01b0390921660048301526024820152604401602060405180830381600087803b158015611fa157600080fd5b505af1158015611fb5573d6000803e3d6000fd5b505050506040513d601f19601f82011682018060405250810190611fd99190613943565b61203f5760405162461bcd60e51b815260206004820152603160248201527f4661696c656420746f207472616e736665722066656520746f207075626c6973604482015270684d61726b65744665654164647265737360781b6064820152608401610a63565b60008311801561205757506001600160a01b03841615155b801561206b57506001600160a01b03851615155b15612247576040516323b872dd60e01b8152336004820152306024820152604481018490526001600160a01b038516906323b872dd90606401602060405180830381600087803b1580156120be57600080fd5b505af11580156120d2573d6000803e3d6000fd5b505050506040513d601f19601f820116820180604052508101906120f69190613943565b6121425760405162461bcd60e51b815260206004820152601d60248201527f4661696c656420746f207472616e7366657220636f6e73756d654665650000006044820152606401610a63565b61214d8360646132f3565b91506001600160a01b03841663a9059cbb8661216986866132ff565b6040516001600160e01b031960e085901b1681526001600160a01b0390921660048301526024820152604401602060405180830381600087803b1580156121af57600080fd5b505af11580156121c3573d6000803e3d6000fd5b505050506040513d601f19601f820116820180604052508101906121e79190613943565b6122475760405162461bcd60e51b815260206004820152602b60248201527f4661696c656420746f207472616e736665722066656520746f20636f6e73756d60448201526a654665654164647265737360a81b6064820152608401610a63565b6000811180156122575750600082115b80156122705750600f546001600160a01b038581169116145b1561237057600b546001600160a01b038086169163a9059cbb91166122958486612b56565b6040516001600160e01b031960e085901b1681526001600160a01b0390921660048301526024820152604401602060405180830381600087803b1580156122db57600080fd5b505af11580156122ef573d6000803e3d6000fd5b505050506040513d601f19601f820116820180604052508101906123139190613943565b61236b5760405162461bcd60e51b815260206004820152602360248201527f4661696c656420746f207472616e7366657220626f7468206665657320746f2060448201526227a82360e91b6064820152608401610a63565b61256f565b60008111801561238a5750600f546001600160a01b031615155b1561247257600f54600b5460405163a9059cbb60e01b81526001600160a01b0391821660048201526024810184905291169063a9059cbb90604401602060405180830381600087803b1580156123df57600080fd5b505af11580156123f3573d6000803e3d6000fd5b505050506040513d601f19601f820116820180604052508101906124179190613943565b6124725760405162461bcd60e51b815260206004820152602660248201527f4661696c656420746f207472616e73666572207075626c6973682066656573206044820152653a379027a82360d11b6064820152608401610a63565b60008211801561248a57506001600160a01b03841615155b1561256f57600b5460405163a9059cbb60e01b81526001600160a01b039182166004820152602481018490529085169063a9059cbb90604401602060405180830381600087803b1580156124dd57600080fd5b505af11580156124f1573d6000803e3d6000fd5b505050506040513d601f19601f820116820180604052508101906125159190613943565b61256f5760405162461bcd60e51b815260206004820152602560248201527f4661696c656420746f207472616e7366657220636f6e73756d65206665652074604482015264379027a82360d91b6064820152608401610a63565b61258061257a61091d565b8861184f565b50600e5460408051338152602081018a90529081018890524260608201524360808201526001600160a01b0387811692811691908b16907fb07adb6a34680ecbbc7935971c45a07b9baf67ce5dc57332d51e3a5745c9e9639060a00160405180910390a450506001600755505050505050565b6001600160a01b0383166126555760405162461bcd60e51b8152602060048201526024808201527f45524332303a20617070726f76652066726f6d20746865207a65726f206164646044820152637265737360e01b6064820152608401610a63565b6001600160a01b0382166126b65760405162461bcd60e51b815260206004820152602260248201527f45524332303a20617070726f766520746f20746865207a65726f206164647265604482015261737360f01b6064820152608401610a63565b6001600160a01b0383811660008181526001602090815260408083209487168084529482529182902085905590518481527f8c5be1e5ebec7d5bd14f71427d1e84f3dd0314c0f7b2291e5b200ac8c7c3b925910160405180910390a3505050565b6001600160a01b0381166000908152600560205260409020805460ff16156127815760405162461bcd60e51b815260206004820152601d60248201527f4552433230526f6c65733a2020414c52454144592041204d494e5445520000006044820152606401610a63565b8054600160ff19909116811782556006805491820181556000527ff652222313e28459528d920b65115c16c04f3efc82aaedc97be59f3f377c0d3f0180546001600160a01b0319166001600160a01b038416908117909155604080514281524360208201523392917f4f7e100eb1ee13e903798bd0d6aa854152e07eb05544f392b9409c12935c809591015b60405180910390a35050565b6001600160a01b03811660009081526005602052604090208054610100900460ff16156128935760405162461bcd60e51b815260206004820152602260248201527f4552433230526f6c65733a2020414c5245414459204120464545204d414e414760448201526122a960f11b6064820152608401610a63565b805461ff001916610100178155600680546001810182556000919091527ff652222313e28459528d920b65115c16c04f3efc82aaedc97be59f3f377c0d3f0180546001600160a01b0384166001600160a01b03199091168117909155604080514281524360208201523392917f5b0831b6bc7ca878cadad8a6b96869b9db121df456a859f03261d13f4d08204b910161280d565b6001600160a01b03831661298b5760405162461bcd60e51b815260206004820152602560248201527f45524332303a207472616e736665722066726f6d20746865207a65726f206164604482015264647265737360d81b6064820152608401610a63565b6001600160a01b0382166129ed5760405162461bcd60e51b815260206004820152602360248201527f45524332303a207472616e7366657220746f20746865207a65726f206164647260448201526265737360e81b6064820152608401610a63565b6001600160a01b03831660009081526020819052604090205481811015612a655760405162461bcd60e51b815260206004820152602660248201527f45524332303a207472616e7366657220616d6f756e7420657863656564732062604482015265616c616e636560d01b6064820152608401610a63565b6001600160a01b03808516600090815260208190526040808220858503905591851681529081208054849290612a9c908490613d9b565b92505081905550826001600160a01b0316846001600160a01b03167fddf252ad1be2c89b69c2b068fc378daa952ba7f163c4a11628f55a4df523b3ef84604051612ae891815260200190565b60405180910390a350505050565b6001600160a01b03811660008181526005602052604090819020805460ff191681559051909133917fefa2735987005aaa89c050c0ff8cc9ae7d9079d19382081c429130f98c52d4809061280d9042904390918252602082015260400190565b6000612b628284613d9b565b9392505050565b6001600160a01b038216612bbf5760405162461bcd60e51b815260206004820152601f60248201527f45524332303a206d696e7420746f20746865207a65726f2061646472657373006044820152606401610a63565b8060026000828254612bd19190613d9b565b90915550506001600160a01b03821660009081526020819052604081208054839290612bfe908490613d9b565b90915550506040518181526001600160a01b038316906000907fddf252ad1be2c89b69c2b068fc378daa952ba7f163c4a11628f55a4df523b3ef9060200160405180910390a35050565b6001600160a01b038216612ca85760405162461bcd60e51b815260206004820152602160248201527f45524332303a206275726e2066726f6d20746865207a65726f206164647265736044820152607360f81b6064820152608401610a63565b6001600160a01b03821660009081526020819052604090205481811015612d1c5760405162461bcd60e51b815260206004820152602260248201527f45524332303a206275726e20616d6f756e7420657863656564732062616c616e604482015261636560f01b6064820152608401610a63565b6001600160a01b0383166000908152602081905260408120838303905560028054849290612d4b908490613dd5565b90915550506040518281526000906001600160a01b038516907fddf252ad1be2c89b69c2b068fc378daa952ba7f163c4a11628f55a4df523b3ef9060200160405180910390a3505050565b60005b600654811015612dfc5760006005600060068481548110612dbc57612dbc613f64565b60009182526020808320909101546001600160a01b031683528201929092526040019020805461ffff191690555080612df481613f33565b915050612d99565b50612e096006600061330b565b6040805142815243602082015233917f712bc71db81927a76b8bf1ea346247bb0ad58f18e4e5c1bd4aa0ec6573e02a2b910160405180910390a2565b6001600160a01b03811660008181526005602052604090819020805461ff00191681559051909133917fc6148ac08e050e2098c5d953dffbbf54d7eae1a56b8d894015268bfc2dff5b6a9061280d9042904390918252602082015260400190565b60008084600081518110612ebc57612ebc613f64565b60200260200101519050600085600181518110612edb57612edb613f64565b6020026020010151905060006001600160a01b0316826001600160a01b03161415612f5d5760405162461bcd60e51b815260206004820152602c60248201527f455243323054656d706c6174653a20496e76616c6964206d696e7465722c202060448201526b7a65726f206164647265737360a01b6064820152608401610a63565b6001600160a01b038116612fd95760405162461bcd60e51b815260206004820152603c60248201527f455243323054656d706c6174653a20496e76616c696420636f6d6d756e69747960448201527f2066656520636f6c6c6563746f722c207a65726f2061646472657373000000006064820152608401610a63565b84600081518110612fec57612fec613f64565b6020026020010151600014156130505760405162461bcd60e51b8152602060048201526024808201527f44617461546f6b656e54656d706c6174653a20496e76616c6964206361702076604482015263616c756560e01b6064820152608401610a63565b8460008151811061306357613063613f64565b6020026020010151600a819055508760008151811061308457613084613f64565b6020026020010151600890805190602001906130a1929190613329565b50876001815181106130b5576130b5613f64565b6020026020010151600990805190602001906130d2929190613329565b50600c80546001600160a01b0319166001600160a01b03841617905585518690600290811061310357613103613f64565b6020908102919091010151601380546001600160a01b039283166001600160a01b0319909116179055600b80546001600160a81b03191691831691909117600160a01b179055865161316090889060009061110157611101613f64565b6131838760018151811061317657613176613f64565b6020026020010151612819565b8660028151811061319657613196613f64565b6020026020010151600e60006101000a8154816001600160a01b0302191690836001600160a01b03160217905550866003815181106131d7576131d7613f64565b6020026020010151600f60006101000a8154816001600160a01b0302191690836001600160a01b031602179055508460018151811061321857613218613f64565b602002602001015160108190555060004690507f8b73c3c69bb8fe3d512ecc4cf759cc79239f7b179b0ffacaa9a75d522b39400f600860405161325b9190613afd565b60408051918290038220828201825260018352603160f81b6020938401528151928301939093528101919091527fc89efdaa54c0f20c7adf612882df0950f5a951637e0307cdcb4c672f298b8bc66060820152608081018290523060a082015260c00160408051808303601f1901815291905280516020909101206011555050600b54600160a01b900460ff16979650505050505050565b6000612b628284613db3565b6000612b628284613dd5565b5080546000825590600052602060002090810190610be091906133ad565b82805461333590613ef8565b90600052602060002090601f016020900481019282613357576000855561339d565b82601f1061337057805160ff191683800117855561339d565b8280016001018555821561339d579182015b8281111561339d578251825591602001919060010190613382565b506133a99291506133ad565b5090565b5b808211156133a957600081556001016133ae565b600067ffffffffffffffff8311156133dc576133dc613f7a565b6133ef601f8401601f1916602001613d46565b905082815283838301111561340357600080fd5b828260208301376000602084830101529392505050565b60008083601f84011261342c57600080fd5b50813567ffffffffffffffff81111561344457600080fd5b6020830191508360208260051b850101111561345f57600080fd5b9250929050565b600082601f83011261347757600080fd5b8135602061348c61348783613d77565b613d46565b80838252828201915082860187848660051b89010111156134ac57600080fd5b60005b858110156134d45781356134c281613f90565b845292840192908401906001016134af565b5090979650505050505050565b600082601f8301126134f257600080fd5b8135602061350261348783613d77565b80838252828201915082860187848660051b890101111561352257600080fd5b60005b858110156134d457813584529284019290840190600101613525565b60006020828403121561355357600080fd5b8135612b6281613f90565b60006020828403121561357057600080fd5b8151612b6281613f90565b6000806040838503121561358e57600080fd5b823561359981613f90565b915060208301356135a981613f90565b809150509250929050565b6000806000606084860312156135c957600080fd5b83356135d481613f90565b925060208401356135e481613f90565b929592945050506040919091013590565b600080600080600080600060e0888a03121561361057600080fd5b873561361b81613f90565b9650602088013561362b81613f90565b95506040880135945060608801359350608088013560ff8116811461364f57600080fd5b9699959850939692959460a0840135945060c09093013592915050565b60008060006060848603121561368157600080fd5b833561368c81613f90565b9250602084013567ffffffffffffffff808211156136a957600080fd5b6136b587838801613466565b935060408601359150808211156136cb57600080fd5b506136d8868287016134e1565b9150509250925092565b600080604083850312156136f557600080fd5b823561370081613f90565b946020939093013593505050565b60008060008060008060c0878903121561372757600080fd5b863561373281613f90565b95506020870135945060408701359350606087013561375081613f90565b9250608087013561376081613f90565b8092505060a087013590509295509295509295565b600080600080600060a0868803121561378d57600080fd5b853561379881613f90565b9450602086013593506040860135925060608601356137b681613fa5565b915060808601356137c681613f90565b809150509295509295909350565b60008060008060008060008060008060a08b8d0312156137f357600080fd5b8a3567ffffffffffffffff8082111561380b57600080fd5b6138178e838f0161341a565b909c509a5060208d013591508082111561383057600080fd5b61383c8e838f0161341a565b909a50985060408d013591508082111561385557600080fd5b6138618e838f0161341a565b909850965060608d013591508082111561387a57600080fd5b6138868e838f0161341a565b909650945060808d013591508082111561389f57600080fd5b506138ac8d828e0161341a565b915080935050809150509295989b9194979a5092959850565b6000806000606084860312156138da57600080fd5b833567ffffffffffffffff808211156138f257600080fd5b6138fe878388016134e1565b9450602086013591508082111561391457600080fd5b613920878388016134e1565b9350604086013591508082111561393657600080fd5b506136d886828701613466565b60006020828403121561395557600080fd5b8151612b6281613fa5565b60006020828403121561397257600080fd5b5051919050565b6000806020838503121561398c57600080fd5b823567ffffffffffffffff808211156139a457600080fd5b818501915085601f8301126139b857600080fd5b8135818111156139c757600080fd5b8660208285010111156139d957600080fd5b60209290920196919550909350505050565b6000608082840312156139fd57600080fd5b6040516080810181811067ffffffffffffffff82111715613a2057613a20613f7a565b6040528251613a2e81613fa5565b81526020830151613a3e81613fa5565b60208201526040830151613a5181613fa5565b60408201526060830151613a6481613fa5565b60608201529392505050565b600060208284031215613a8257600080fd5b5035919050565b600081518084526020808501945080840160005b83811015613ac25781516001600160a01b031687529582019590820190600101613a9d565b509495945050505050565b600081518084526020808501945080840160005b83811015613ac257815187529582019590820190600101613ae1565b600080835481600182811c915080831680613b1957607f831692505b6020808410821415613b3957634e487b7160e01b86526022600452602486fd5b818015613b4d5760018114613b5e57613b8b565b60ff19861689528489019650613b8b565b60008a81526020902060005b86811015613b835781548b820152908501908301613b6a565b505084890196505b509498975050505050505050565b6001600160a01b0384168152606060208201819052600090613bbd90830185613a89565b8281036040840152613bcf8185613acd565b9695505050505050565b60008186825b6002811015613c075781516001600160a01b0316835260209283019290910190600101613bdf565b50505060a06040830152613c1e60a0830186613acd565b8281036060840152613c308186613acd565b90508281036080840152613c448185613a89565b979650505050505050565b83815260406020820152816040820152818360608301376000818301606090810191909152601f909201601f1916010192915050565b600060208083528351808285015260005b81811015613cb257858101830151858201604001528201613c96565b81811115613cc4576000604083870101525b50601f01601f1916929092016040019392505050565b6020808252818101527f455243323054656d706c6174653a204e4f54204445504c4f59455220524f4c45604082015260600190565b6020808252601f908201527f5265656e7472616e637947756172643a207265656e7472616e742063616c6c00604082015260600190565b604051601f8201601f1916810167ffffffffffffffff81118282101715613d6f57613d6f613f7a565b604052919050565b600067ffffffffffffffff821115613d9157613d91613f7a565b5060051b60200190565b60008219821115613dae57613dae613f4e565b500190565b600082613dd057634e487b7160e01b600052601260045260246000fd5b500490565b600082821015613de757613de7613f4e565b500390565b6000613dfa61348784613d77565b808482526020808301925084368760051b87011115613e1857600080fd5b60005b87811015613e6c57813567ffffffffffffffff811115613e3a57600080fd5b870136601f820112613e4b57600080fd5b613e593682358684016133c2565b8652509382019390820190600101613e1b565b50919695505050505050565b6000613e8661348784613d77565b808482526020808301925084368760051b87011115613ea457600080fd5b60005b87811015613e6c57813567ffffffffffffffff811115613ec657600080fd5b870136601f820112613ed757600080fd5b613ee53682358684016133c2565b8652509382019390820190600101613ea7565b600181811c90821680613f0c57607f821691505b60208210811415613f2d57634e487b7160e01b600052602260045260246000fd5b50919050565b6000600019821415613f4757613f47613f4e565b5060010190565b634e487b7160e01b600052601160045260246000fd5b634e487b7160e01b600052603260045260246000fd5b634e487b7160e01b600052604160045260246000fd5b6001600160a01b0381168114610be057600080fd5b8015158114610be057600080fdfea2646970667358221220e504aee90cb6c8d9692fef2f1bf998d72c52fed1dc5668b5db28edee98f51c4764736f6c63430008070033",
  "linkReferences": {},
  "deployedLinkReferences": {}
}