{
  "_format": "hh-sol-artifact-1",
  "contractName": "ERC20Template",
  "sourceName": "contracts/templates/ERC20Template.sol",
  "abi": [
    {
      "anonymous": false,
      "inputs": [
        {
          "indexed": true,
          "internalType": "address",
          "name": "owner",
          "type": "address"
        },
        {
          "indexed": true,
          "internalType": "address",
          "name": "spender",
          "type": "address"
        },
        {
          "indexed": false,
          "internalType": "uint256",
          "name": "value",
          "type": "uint256"
        }
      ],
      "name": "Approval",
      "type": "event"
    },
    {
      "anonymous": false,
      "inputs": [
        {
          "indexed": false,
          "internalType": "address",
          "name": "currentMinter",
          "type": "address"
        },
        {
          "indexed": false,
          "internalType": "address",
          "name": "newMinter",
          "type": "address"
        }
      ],
      "name": "MinterApproved",
      "type": "event"
    },
    {
      "anonymous": false,
      "inputs": [
        {
          "indexed": false,
          "internalType": "address",
          "name": "currentMinter",
          "type": "address"
        },
        {
          "indexed": false,
          "internalType": "address",
          "name": "newMinter",
          "type": "address"
        }
      ],
      "name": "MinterProposed",
      "type": "event"
    },
    {
      "anonymous": false,
      "inputs": [
        {
          "indexed": false,
          "internalType": "bytes32",
          "name": "exchangeId",
          "type": "bytes32"
        },
        {
          "indexed": false,
          "internalType": "address",
          "name": "owner",
          "type": "address"
        },
        {
          "indexed": false,
          "internalType": "address",
          "name": "basetoken",
          "type": "address"
        }
      ],
      "name": "NewFixedRate",
      "type": "event"
    },
    {
      "anonymous": false,
      "inputs": [
        {
          "indexed": false,
          "internalType": "address",
          "name": "poolAddress",
          "type": "address"
        },
        {
          "indexed": false,
          "internalType": "address",
          "name": "ssContract",
          "type": "address"
        },
        {
          "indexed": false,
          "internalType": "address",
          "name": "basetokenAddress",
          "type": "address"
        }
      ],
      "name": "NewPool",
      "type": "event"
    },
    {
      "anonymous": false,
      "inputs": [
        {
          "indexed": true,
          "internalType": "address",
          "name": "consumer",
          "type": "address"
        },
        {
          "indexed": false,
          "internalType": "address",
          "name": "payer",
          "type": "address"
        },
        {
          "indexed": false,
          "internalType": "uint256",
          "name": "amount",
          "type": "uint256"
        },
        {
          "indexed": false,
          "internalType": "uint256",
          "name": "serviceId",
          "type": "uint256"
        },
        {
          "indexed": false,
          "internalType": "uint256",
          "name": "timestamp",
          "type": "uint256"
        },
        {
          "indexed": true,
          "internalType": "address",
          "name": "publishMarketAddress",
          "type": "address"
        },
        {
          "indexed": true,
          "internalType": "address",
          "name": "consumeFeeMarketAddress",
          "type": "address"
        },
        {
          "indexed": false,
          "internalType": "uint256",
          "name": "blockNumber",
          "type": "uint256"
        }
      ],
      "name": "OrderStarted",
      "type": "event"
    },
    {
      "anonymous": false,
      "inputs": [
        {
          "indexed": true,
          "internalType": "address",
          "name": "from",
          "type": "address"
        },
        {
          "indexed": true,
          "internalType": "address",
          "name": "to",
          "type": "address"
        },
        {
          "indexed": false,
          "internalType": "uint256",
          "name": "value",
          "type": "uint256"
        }
      ],
      "name": "Transfer",
      "type": "event"
    },
    {
      "stateMutability": "payable",
      "type": "fallback"
    },
    {
      "inputs": [],
      "name": "BASE",
      "outputs": [
        {
          "internalType": "uint256",
          "name": "",
          "type": "uint256"
        }
      ],
      "stateMutability": "view",
      "type": "function"
    },
    {
      "inputs": [],
      "name": "BASE_COMMUNITY_FEE_PERCENTAGE",
      "outputs": [
        {
          "internalType": "uint256",
          "name": "",
          "type": "uint256"
        }
      ],
      "stateMutability": "view",
      "type": "function"
    },
    {
      "inputs": [],
      "name": "DOMAIN_SEPARATOR",
      "outputs": [
        {
          "internalType": "bytes32",
          "name": "",
          "type": "bytes32"
        }
      ],
      "stateMutability": "view",
      "type": "function"
    },
    {
      "inputs": [],
      "name": "PERMIT_TYPEHASH",
      "outputs": [
        {
          "internalType": "bytes32",
          "name": "",
          "type": "bytes32"
        }
      ],
      "stateMutability": "view",
      "type": "function"
    },
    {
      "inputs": [
        {
          "internalType": "address",
          "name": "_feeManager",
          "type": "address"
        }
      ],
      "name": "addFeeManager",
      "outputs": [],
      "stateMutability": "nonpayable",
      "type": "function"
    },
    {
      "inputs": [
        {
          "internalType": "address",
          "name": "_minter",
          "type": "address"
        }
      ],
      "name": "addMinter",
      "outputs": [],
      "stateMutability": "nonpayable",
      "type": "function"
    },
    {
      "inputs": [
        {
          "internalType": "address",
          "name": "owner",
          "type": "address"
        },
        {
          "internalType": "address",
          "name": "spender",
          "type": "address"
        }
      ],
      "name": "allowance",
      "outputs": [
        {
          "internalType": "uint256",
          "name": "",
          "type": "uint256"
        }
      ],
      "stateMutability": "view",
      "type": "function"
    },
    {
      "inputs": [
        {
          "internalType": "address",
          "name": "spender",
          "type": "address"
        },
        {
          "internalType": "uint256",
          "name": "amount",
          "type": "uint256"
        }
      ],
      "name": "approve",
      "outputs": [
        {
          "internalType": "bool",
          "name": "",
          "type": "bool"
        }
      ],
      "stateMutability": "nonpayable",
      "type": "function"
    },
    {
      "inputs": [
        {
          "internalType": "uint256",
          "name": "",
          "type": "uint256"
        }
      ],
      "name": "authERC20",
      "outputs": [
        {
          "internalType": "address",
          "name": "",
          "type": "address"
        }
      ],
      "stateMutability": "view",
      "type": "function"
    },
    {
      "inputs": [
        {
          "internalType": "address",
          "name": "account",
          "type": "address"
        }
      ],
      "name": "balanceOf",
      "outputs": [
        {
          "internalType": "uint256",
          "name": "",
          "type": "uint256"
        }
      ],
      "stateMutability": "view",
      "type": "function"
    },
    {
      "inputs": [],
      "name": "cap",
      "outputs": [
        {
          "internalType": "uint256",
          "name": "",
          "type": "uint256"
        }
      ],
      "stateMutability": "view",
      "type": "function"
    },
    {
      "inputs": [],
      "name": "cleanFrom721",
      "outputs": [],
      "stateMutability": "nonpayable",
      "type": "function"
    },
    {
      "inputs": [],
      "name": "cleanPermissions",
      "outputs": [],
      "stateMutability": "nonpayable",
      "type": "function"
    },
    {
      "inputs": [
        {
          "internalType": "address",
          "name": "fixedPriceAddress",
          "type": "address"
        },
        {
          "internalType": "address",
          "name": "basetokenAddress",
          "type": "address"
        },
        {
          "internalType": "uint8",
          "name": "basetokenDecimals",
          "type": "uint8"
        },
        {
          "internalType": "uint256",
          "name": "fixedRate",
          "type": "uint256"
        },
        {
          "internalType": "address",
          "name": "owner",
          "type": "address"
        },
        {
          "internalType": "uint256",
          "name": "marketFee",
          "type": "uint256"
        },
        {
          "internalType": "address",
          "name": "marketFeeCollector",
          "type": "address"
        }
      ],
      "name": "createFixedRate",
      "outputs": [
        {
          "internalType": "bytes32",
          "name": "exchangeId",
          "type": "bytes32"
        }
      ],
      "stateMutability": "nonpayable",
      "type": "function"
    },
    {
      "inputs": [],
      "name": "decimals",
      "outputs": [
        {
          "internalType": "uint8",
          "name": "",
          "type": "uint8"
        }
      ],
      "stateMutability": "pure",
      "type": "function"
    },
    {
      "inputs": [
        {
          "internalType": "address",
          "name": "spender",
          "type": "address"
        },
        {
          "internalType": "uint256",
          "name": "subtractedValue",
          "type": "uint256"
        }
      ],
      "name": "decreaseAllowance",
      "outputs": [
        {
          "internalType": "bool",
          "name": "",
          "type": "bool"
        }
      ],
      "stateMutability": "nonpayable",
      "type": "function"
    },
    {
      "inputs": [
        {
          "internalType": "uint256[]",
          "name": "ssParams",
          "type": "uint256[]"
        },
        {
          "internalType": "uint256[]",
          "name": "swapFees",
          "type": "uint256[]"
        },
        {
          "internalType": "address[]",
          "name": "addresses",
          "type": "address[]"
        }
      ],
      "name": "deployPool",
      "outputs": [
        {
          "internalType": "address",
          "name": "pool",
          "type": "address"
        }
      ],
      "stateMutability": "nonpayable",
      "type": "function"
    },
    {
      "inputs": [],
      "name": "getFeeCollector",
      "outputs": [
        {
          "internalType": "address",
          "name": "",
          "type": "address"
        }
      ],
      "stateMutability": "view",
      "type": "function"
    },
    {
      "inputs": [],
      "name": "getId",
      "outputs": [
        {
          "internalType": "uint8",
          "name": "",
          "type": "uint8"
        }
      ],
      "stateMutability": "pure",
      "type": "function"
    },
    {
      "inputs": [],
      "name": "getPublishingMarketFee",
      "outputs": [
        {
          "internalType": "address",
          "name": "",
          "type": "address"
        },
        {
          "internalType": "address",
          "name": "",
          "type": "address"
        },
        {
          "internalType": "uint256",
          "name": "",
          "type": "uint256"
        }
      ],
      "stateMutability": "view",
      "type": "function"
    },
    {
      "inputs": [
        {
          "internalType": "address",
          "name": "spender",
          "type": "address"
        },
        {
          "internalType": "uint256",
          "name": "addedValue",
          "type": "uint256"
        }
      ],
      "name": "increaseAllowance",
      "outputs": [
        {
          "internalType": "bool",
          "name": "",
          "type": "bool"
        }
      ],
      "stateMutability": "nonpayable",
      "type": "function"
    },
    {
      "inputs": [
        {
          "internalType": "string[]",
          "name": "strings_",
          "type": "string[]"
        },
        {
          "internalType": "address[]",
          "name": "addresses_",
          "type": "address[]"
        },
        {
          "internalType": "address[]",
          "name": "factoryAddresses_",
          "type": "address[]"
        },
        {
          "internalType": "uint256[]",
          "name": "uints_",
          "type": "uint256[]"
        },
        {
          "internalType": "bytes[]",
          "name": "bytes_",
          "type": "bytes[]"
        }
      ],
      "name": "initialize",
      "outputs": [
        {
          "internalType": "bool",
          "name": "",
          "type": "bool"
        }
      ],
      "stateMutability": "nonpayable",
      "type": "function"
    },
    {
      "inputs": [],
      "name": "isInitialized",
      "outputs": [
        {
          "internalType": "bool",
          "name": "",
          "type": "bool"
        }
      ],
      "stateMutability": "view",
      "type": "function"
    },
    {
      "inputs": [
        {
          "internalType": "address",
          "name": "account",
          "type": "address"
        },
        {
          "internalType": "uint256",
          "name": "value",
          "type": "uint256"
        }
      ],
      "name": "mint",
      "outputs": [],
      "stateMutability": "nonpayable",
      "type": "function"
    },
    {
      "inputs": [],
      "name": "name",
      "outputs": [
        {
          "internalType": "string",
          "name": "",
          "type": "string"
        }
      ],
      "stateMutability": "view",
      "type": "function"
    },
    {
      "inputs": [
        {
          "internalType": "address",
          "name": "",
          "type": "address"
        }
      ],
      "name": "nonces",
      "outputs": [
        {
          "internalType": "uint256",
          "name": "",
          "type": "uint256"
        }
      ],
      "stateMutability": "view",
      "type": "function"
    },
    {
      "inputs": [
        {
          "internalType": "address",
          "name": "",
          "type": "address"
        }
      ],
      "name": "permissions",
      "outputs": [
        {
          "internalType": "bool",
          "name": "minter",
          "type": "bool"
        },
        {
          "internalType": "bool",
          "name": "feeManager",
          "type": "bool"
        }
      ],
      "stateMutability": "view",
      "type": "function"
    },
    {
      "inputs": [
        {
          "internalType": "address",
          "name": "owner",
          "type": "address"
        },
        {
          "internalType": "address",
          "name": "spender",
          "type": "address"
        },
        {
          "internalType": "uint256",
          "name": "value",
          "type": "uint256"
        },
        {
          "internalType": "uint256",
          "name": "deadline",
          "type": "uint256"
        },
        {
          "internalType": "uint8",
          "name": "v",
          "type": "uint8"
        },
        {
          "internalType": "bytes32",
          "name": "r",
          "type": "bytes32"
        },
        {
          "internalType": "bytes32",
          "name": "s",
          "type": "bytes32"
        }
      ],
      "name": "permit",
      "outputs": [],
      "stateMutability": "nonpayable",
      "type": "function"
    },
    {
      "inputs": [
        {
          "internalType": "address",
          "name": "_feeManager",
          "type": "address"
        }
      ],
      "name": "removeFeeManager",
      "outputs": [],
      "stateMutability": "nonpayable",
      "type": "function"
    },
    {
      "inputs": [
        {
          "internalType": "address",
          "name": "_minter",
          "type": "address"
        }
      ],
      "name": "removeMinter",
      "outputs": [],
      "stateMutability": "nonpayable",
      "type": "function"
    },
    {
      "inputs": [],
      "name": "router",
      "outputs": [
        {
          "internalType": "address",
          "name": "",
          "type": "address"
        }
      ],
      "stateMutability": "view",
      "type": "function"
    },
    {
      "inputs": [
        {
          "internalType": "bytes",
          "name": "_value",
          "type": "bytes"
        }
      ],
      "name": "setData",
      "outputs": [],
      "stateMutability": "nonpayable",
      "type": "function"
    },
    {
      "inputs": [
        {
          "internalType": "address",
          "name": "_newFeeCollector",
          "type": "address"
        }
      ],
      "name": "setFeeCollector",
      "outputs": [],
      "stateMutability": "nonpayable",
      "type": "function"
    },
    {
      "inputs": [
        {
          "internalType": "address",
          "name": "_publishMarketFeeAddress",
          "type": "address"
        },
        {
          "internalType": "address",
          "name": "_publishMarketFeeToken",
          "type": "address"
        },
        {
          "internalType": "uint256",
          "name": "_publishMarketFeeAmount",
          "type": "uint256"
        }
      ],
      "name": "setPublishingMarketFee",
      "outputs": [],
      "stateMutability": "nonpayable",
      "type": "function"
    },
    {
      "inputs": [
        {
          "internalType": "address",
          "name": "consumer",
          "type": "address"
        },
        {
          "internalType": "uint256",
          "name": "amount",
          "type": "uint256"
        },
        {
          "internalType": "uint256",
          "name": "serviceId",
          "type": "uint256"
        },
        {
          "internalType": "address",
          "name": "consumeFeeAddress",
          "type": "address"
        },
        {
          "internalType": "address",
          "name": "consumeFeeToken",
          "type": "address"
        },
        {
          "internalType": "uint256",
          "name": "consumeFeeAmount",
          "type": "uint256"
        }
      ],
      "name": "startOrder",
      "outputs": [],
      "stateMutability": "nonpayable",
      "type": "function"
    },
    {
      "inputs": [],
      "name": "symbol",
      "outputs": [
        {
          "internalType": "string",
          "name": "",
          "type": "string"
        }
      ],
      "stateMutability": "view",
      "type": "function"
    },
    {
      "inputs": [],
      "name": "totalSupply",
      "outputs": [
        {
          "internalType": "uint256",
          "name": "",
          "type": "uint256"
        }
      ],
      "stateMutability": "view",
      "type": "function"
    },
    {
      "inputs": [
        {
          "internalType": "address",
          "name": "recipient",
          "type": "address"
        },
        {
          "internalType": "uint256",
          "name": "amount",
          "type": "uint256"
        }
      ],
      "name": "transfer",
      "outputs": [
        {
          "internalType": "bool",
          "name": "",
          "type": "bool"
        }
      ],
      "stateMutability": "nonpayable",
      "type": "function"
    },
    {
      "inputs": [
        {
          "internalType": "address",
          "name": "sender",
          "type": "address"
        },
        {
          "internalType": "address",
          "name": "recipient",
          "type": "address"
        },
        {
          "internalType": "uint256",
          "name": "amount",
          "type": "uint256"
        }
      ],
      "name": "transferFrom",
      "outputs": [
        {
          "internalType": "bool",
          "name": "",
          "type": "bool"
        }
      ],
      "stateMutability": "nonpayable",
      "type": "function"
    },
    {
      "inputs": [],
      "name": "withdrawETH",
      "outputs": [],
      "stateMutability": "payable",
      "type": "function"
    }
  ],
  "bytecode": "0x6080604052600a805460ff60a01b191690553480156200001e57600080fd5b5060408051808201825260048152631d195cdd60e21b60208083019182528351808501909452600a8452691d195cdd14de5b589bdb60b21b9084015281519192916200006d916003916200008c565b508051620000839060049060208401906200008c565b5050506200016f565b8280546200009a9062000132565b90600052602060002090601f016020900481019282620000be576000855562000109565b82601f10620000d957805160ff191683800117855562000109565b8280016001018555821562000109579182015b8281111562000109578251825591602001919060010190620000ec565b50620001179291506200011b565b5090565b5b808211156200011757600081556001016200011c565b600181811c908216806200014757607f821691505b602082108114156200016957634e487b7160e01b600052602260045260246000fd5b50919050565b6138df806200017f6000396000f3fe6080604052600436106102265760003560e01c806370a0823111610122578063ab62f0e1116100a5578063e086e5ec1161006c578063e086e5ec14610708578063ec342ad014610710578063ef867ff41461072c578063f887ea401461074c578063fda9dae71461076c57005b8063ab62f0e11461064d578063b2263a5d1461066d578063b3998be014610682578063d505accf146106a2578063dd62ed3e146106c257005b806395d89b41116100e957806395d89b41146105b8578063983b2d56146105cd578063a42dce80146105ed578063a457c2d71461060d578063a9059cbb1461062d57005b806370a08231146105005780637a5db5b1146105365780637ecebe00146105565780638115c9cc1461058357806382c03da5146105a357005b8063355274ea116101aa57806340c10f191161017157806340c10f19146104775780634f189cb21461049757806357ad5ff6146104ac5780635bfe4da0146104cc5780635d1ca631146104ec57005b8063355274ea146103d15780633644e515146103e6578063392e53cd146103fc578063395093511461041b578063397b37431461043b57005b80631f2d32c3116101ee5780631f2d32c31461031b57806323b872dd1461033b5780633092afd51461035b57806330adf81f1461037b578063313ce567146103af57005b806301e882081461022857806306fdde031461027d578063095ea7b31461029f57806312fde4b7146102cf57806318160ddd146102fc575b005b34801561023457600080fd5b50610261610243366004612ebb565b60056020526000908152604090205460ff8082169161010090041682565b6040805192151583529015156020830152015b60405180910390f35b34801561028957600080fd5b5061029261078c565b60405161027491906135c0565b3480156102ab57600080fd5b506102bf6102ba36600461305f565b61081e565b6040519015158152602001610274565b3480156102db57600080fd5b506102e4610834565b6040516001600160a01b039091168152602001610274565b34801561030857600080fd5b506002545b604051908152602001610274565b34801561032757600080fd5b50610226610336366004612ebb565b6108d8565b34801561034757600080fd5b506102bf610356366004612f2e565b61098f565b34801561036757600080fd5b50610226610376366004612ebb565b610a39565b34801561038757600080fd5b5061030d7f6e71edae12b1b97f4d1f60370fef10105fa2faae0126114a169c64845d6126c981565b3480156103bb57600080fd5b5060125b60405160ff9091168152602001610274565b3480156103dd57600080fd5b5060095461030d565b3480156103f257600080fd5b5061030d60105481565b34801561040857600080fd5b50600a54600160a01b900460ff166102bf565b34801561042757600080fd5b506102bf61043636600461305f565b610b00565b34801561044757600080fd5b50600d54600e54600f54604080516001600160a01b03948516815293909216602084015290820152606001610274565b34801561048357600080fd5b5061022661049236600461305f565b610b3c565b3480156104a357600080fd5b50610226610c12565b3480156104b857600080fd5b506102266104c7366004612f2e565b610d08565b3480156104d857600080fd5b506102e46104e73660046131e3565b610daa565b3480156104f857600080fd5b5060016103bf565b34801561050c57600080fd5b5061030d61051b366004612ebb565b6001600160a01b031660009081526020819052604090205490565b34801561054257600080fd5b5061030d610551366004612fdd565b6110b3565b34801561056257600080fd5b5061030d610571366004612ebb565b60116020526000908152604090205481565b34801561058f57600080fd5b5061022661059e366004612ebb565b61125c565b3480156105af57600080fd5b50610226611324565b3480156105c457600080fd5b5061029261137e565b3480156105d957600080fd5b506102266105e8366004612ebb565b61138d565b3480156105f957600080fd5b50610226610608366004612ebb565b611438565b34801561061957600080fd5b506102bf61062836600461305f565b6114c4565b34801561063957600080fd5b506102bf61064836600461305f565b61155d565b34801561065957600080fd5b50610226610668366004613305565b61156a565b34801561067957600080fd5b5061030d6116af565b34801561068e57600080fd5b506102bf61069d3660046130f2565b6116c5565b3480156106ae57600080fd5b506102266106bd366004612f6f565b6117ff565b3480156106ce57600080fd5b5061030d6106dd366004612ef5565b6001600160a01b03918216600090815260016020908152604080832093909416825291909152205490565b610226611a11565b34801561071c57600080fd5b5061030d670de0b6b3a764000081565b34801561073857600080fd5b506102e46107473660046133f4565b611a51565b34801561075857600080fd5b506012546102e4906001600160a01b031681565b34801561077857600080fd5b5061022661078736600461308b565b611a7b565b60606007805461079b906137fc565b80601f01602080910402602001604051908101604052809291908181526020018280546107c7906137fc565b80156108145780601f106107e957610100808354040283529160200191610814565b820191906000526020600020905b8154815290600101906020018083116107f757829003601f168201915b5050505050905090565b600061082b338484612268565b50600192915050565b600c546000906001600160a01b03166108c857600b546040516331a9108f60e11b8152600160048201526001600160a01b0390911690636352211e9060240160206040518083038186803b15801561088b57600080fd5b505afa15801561089f573d6000803e3d6000fd5b505050506040513d601f19601f820116820180604052508101906108c39190612ed8565b905090565b50600c546001600160a01b031690565b600b5460405163160a792560e01b81523360048201526001600160a01b039091169063160a792590602401608060405180830381600087803b15801561091d57600080fd5b505af1158015610931573d6000803e3d6000fd5b505050506040513d601f19601f820116820180604052508101906109559190613377565b6020015115156001146109835760405162461bcd60e51b815260040161097a90613615565b60405180910390fd5b61098c8161238c565b50565b600061099c848484612466565b6001600160a01b038416600090815260016020908152604080832033845290915290205482811015610a215760405162461bcd60e51b815260206004820152602860248201527f45524332303a207472616e7366657220616d6f756e74206578636565647320616044820152676c6c6f77616e636560c01b606482015260840161097a565b610a2e8533858403612268565b506001949350505050565b600b5460405163160a792560e01b81523360048201526001600160a01b039091169063160a792590602401608060405180830381600087803b158015610a7e57600080fd5b505af1158015610a92573d6000803e3d6000fd5b505050506040513d601f19601f82011682018060405250810190610ab69190613377565b602001511515600114610adb5760405162461bcd60e51b815260040161097a90613615565b61098c816001600160a01b03166000908152600560205260409020805460ff19169055565b3360008181526001602090815260408083206001600160a01b0387168452909152812054909161082b918590610b3790869061369f565b612268565b3360009081526005602052604090205460ff161515600114610ba05760405162461bcd60e51b815260206004820152601960248201527f455243323054656d706c6174653a204e4f54204d494e54455200000000000000604482015260640161097a565b600954610bb682610bb060025490565b90612635565b1115610c045760405162461bcd60e51b815260206004820152601f60248201527f44617461546f6b656e54656d706c6174653a2063617020657863656564656400604482015260640161097a565b610c0e8282612648565b5050565b600b546040516331a9108f60e11b8152600160048201526001600160a01b0390911690636352211e9060240160206040518083038186803b158015610c5657600080fd5b505afa158015610c6a573d6000803e3d6000fd5b505050506040513d601f19601f82011682018060405250810190610c8e9190612ed8565b6001600160a01b0316336001600160a01b031614610cee5760405162461bcd60e51b815260206004820152601b60248201527f455243323054656d706c6174653a206e6f74204e46544f776e65720000000000604482015260640161097a565b610cf6612727565b600c80546001600160a01b0319169055565b600d546001600160a01b03163314610d755760405162461bcd60e51b815260206004820152602a60248201527f455243323054656d706c6174653a206e6f74207075626c6973684d61726b65746044820152694665654164647265737360b01b606482015260840161097a565b600d80546001600160a01b039485166001600160a01b031991821617909155600e805493909416921691909117909155600f55565b600b5460405163160a792560e01b81523360048201526000916001600160a01b03169063160a792590602401608060405180830381600087803b158015610df057600080fd5b505af1158015610e04573d6000803e3d6000fd5b505050506040513d601f19601f82011682018060405250810190610e289190613377565b602001511515600114610e4d5760405162461bcd60e51b815260040161097a90613615565b60025415610ea95760405162461bcd60e51b8152602060048201526024808201527f455243323054656d706c6174653a20746f6b656e7320616c7265616479206d696044820152631b9d195960e21b606482015260840161097a565b610ecc82600081518110610ebf57610ebf613868565b602002602001015161279c565b6225049084600381518110610ee357610ee3613868565b602002602001015111610f4a5760405162461bcd60e51b815260206004820152602960248201527f455243323054656d706c6174653a206d696e696d756d20626c6f636b73206e6f6044820152681d081c995858da195960ba1b606482015260840161097a565b60006040518060400160405280306001600160a01b03166001600160a01b0316815260200184600181518110610f8257610f82613868565b60209081029190910101516001600160a01b0390811690915260125460405163ee3bc63560e01b8152929350169063ee3bc63590610fca9084908990899089906004016134e4565b602060405180830381600087803b158015610fe457600080fd5b505af1158015610ff8573d6000803e3d6000fd5b505050506040513d601f19601f8201168201806040525081019061101c9190612ed8565b91507fd02da1bec30f7f750aa0a131745dfb9ce96767c45a192dc26409f5d690e0b967828460008151811061105357611053613868565b60200260200101518560018151811061106e5761106e613868565b60200260200101516040516110a3939291906001600160a01b0393841681529183166020830152909116604082015260600190565b60405180910390a1509392505050565b600b5460405163160a792560e01b81523360048201526000916001600160a01b03169063160a792590602401608060405180830381600087803b1580156110f957600080fd5b505af115801561110d573d6000803e3d6000fd5b505050506040513d601f19601f820116820180604052508101906111319190613377565b6020015115156001146111565760405162461bcd60e51b815260040161097a90613615565b601254604051630111038960e61b81526001600160a01b038a81166004830152898116602483015260ff8916604483015260648201889052868116608483015260a4820186905284811660c483015290911690634440e2409060e401602060405180830381600087803b1580156111cc57600080fd5b505af11580156111e0573d6000803e3d6000fd5b505050506040513d601f19601f8201168201806040525081019061120491906132ec565b604080518281526001600160a01b0387811660208301528a168183015290519192507f7ebefcdd4e9a446510a0409e4c05db735400bb711392dff4546ff90349454d85919081900360600190a1979650505050505050565b600b5460405163160a792560e01b81523360048201526001600160a01b039091169063160a792590602401608060405180830381600087803b1580156112a157600080fd5b505af11580156112b5573d6000803e3d6000fd5b505050506040513d601f19601f820116820180604052508101906112d99190613377565b6020015115156001146112fe5760405162461bcd60e51b815260040161097a90613615565b61098c816001600160a01b03166000908152600560205260409020805461ff0019169055565b600b546001600160a01b03163314610cee5760405162461bcd60e51b815260206004820152601f60248201527f455243323054656d706c6174653a204e4f542037323120436f6e747261637400604482015260640161097a565b60606008805461079b906137fc565b600b5460405163160a792560e01b81523360048201526001600160a01b039091169063160a792590602401608060405180830381600087803b1580156113d257600080fd5b505af11580156113e6573d6000803e3d6000fd5b505050506040513d601f19601f8201168201806040525081019061140a9190613377565b60200151151560011461142f5760405162461bcd60e51b815260040161097a90613615565b61098c8161279c565b3360009081526005602052604090205460ff6101009091041615156001146114a25760405162461bcd60e51b815260206004820152601e60248201527f455243323054656d706c6174653a204e4f5420464545204d414e414745520000604482015260640161097a565b600c80546001600160a01b0319166001600160a01b0392909216919091179055565b3360009081526001602090815260408083206001600160a01b0386168452909152812054828110156115465760405162461bcd60e51b815260206004820152602560248201527f45524332303a2064656372656173656420616c6c6f77616e63652062656c6f77604482015264207a65726f60d81b606482015260840161097a565b6115533385858403612268565b5060019392505050565b600061082b338484612466565b600b5460405163160a792560e01b81523360048201526001600160a01b039091169063160a792590602401608060405180830381600087803b1580156115af57600080fd5b505af11580156115c3573d6000803e3d6000fd5b505050506040513d601f19601f820116820180604052508101906115e79190613377565b60200151151560011461160c5760405162461bcd60e51b815260040161097a90613615565b6040516bffffffffffffffffffffffff193060601b16602082015260009060340160408051601f19818403018152908290528051602090910120600b546301caf8fd60e31b83529092506001600160a01b031690630e57c7e8906116789084908790879060040161358a565b600060405180830381600087803b15801561169257600080fd5b505af11580156116a6573d6000803e3d6000fd5b50505050505050565b6116c26064670de0b6b3a76400006136b7565b81565b600a54600090600160a01b900460ff161561173c5760405162461bcd60e51b815260206004820152603160248201527f455243323054656d706c6174653a20746f6b656e20696e7374616e636520616c6044820152701c9958591e481a5b9a5d1a585b1a5e9959607a1b606482015260840161097a565b6117f06117498b8d61377c565b8a8a8080602002602001604051908101604052809392919081815260200183836020028082843760009201919091525050604080516020808e0282810182019093528d82529093508d92508c91829185019084908082843760009201919091525050604080516020808d0282810182019093528c82529093508c92508b9182918501908490808284376000920191909152506117eb92508991508a90506136f0565b612863565b9b9a5050505050505050505050565b428410156118425760405162461bcd60e51b815260206004820152601060248201526f115490cc8c11150e881156141254915160821b604482015260640161097a565b6010546001600160a01b038816600090815260116020526040812080549192917f6e71edae12b1b97f4d1f60370fef10105fa2faae0126114a169c64845d6126c9918b918b918b91908761189583613837565b909155506040805160208101969096526001600160a01b0394851690860152929091166060840152608083015260a082015260c0810187905260e0016040516020818303038152906040528051906020012060405160200161190e92919061190160f01b81526002810192909252602282015260420190565b60408051601f198184030181528282528051602091820120600080855291840180845281905260ff88169284019290925260608301869052608083018590529092509060019060a0016020604051602081039080840390855afa158015611979573d6000803e3d6000fd5b5050604051601f1901519150506001600160a01b038116158015906119af5750886001600160a01b0316816001600160a01b0316145b6119fb5760405162461bcd60e51b815260206004820152601a60248201527f455243323044543a20494e56414c49445f5349474e4154555245000000000000604482015260640161097a565b611a06898989612268565b505050505050505050565b611a19610834565b6001600160a01b03166108fc479081150290604051600060405180830381858888f1935050505015801561098c573d6000803e3d6000fd5b60068181548110611a6157600080fd5b6000918252602090912001546001600160a01b0316905081565b6000806000600f54118015611a9a5750600e546001600160a01b031615155b8015611ab05750600d546001600160a01b031615155b15611cb957600e54600f546040516323b872dd60e01b815233600482015230602482015260448101919091526001600160a01b03909116906323b872dd90606401602060405180830381600087803b158015611b0b57600080fd5b505af1158015611b1f573d6000803e3d6000fd5b505050506040513d601f19601f82011682018060405250810190611b4391906132d1565b611b9b5760405162461bcd60e51b815260206004820152602360248201527f4661696c656420746f207472616e73666572207075626c6973684d61726b657460448201526246656560e81b606482015260840161097a565b600f54611ba9906064612cb0565b600e54600d54600f549293506001600160a01b039182169263a9059cbb9290911690611bd59085612cbc565b6040516001600160e01b031960e085901b1681526001600160a01b0390921660048301526024820152604401602060405180830381600087803b158015611c1b57600080fd5b505af1158015611c2f573d6000803e3d6000fd5b505050506040513d601f19601f82011682018060405250810190611c5391906132d1565b611cb95760405162461bcd60e51b815260206004820152603160248201527f4661696c656420746f207472616e736665722066656520746f207075626c6973604482015270684d61726b65744665654164647265737360781b606482015260840161097a565b600083118015611cd157506001600160a01b03841615155b8015611ce557506001600160a01b03851615155b15611ec1576040516323b872dd60e01b8152336004820152306024820152604481018490526001600160a01b038516906323b872dd90606401602060405180830381600087803b158015611d3857600080fd5b505af1158015611d4c573d6000803e3d6000fd5b505050506040513d601f19601f82011682018060405250810190611d7091906132d1565b611dbc5760405162461bcd60e51b815260206004820152601d60248201527f4661696c656420746f207472616e7366657220636f6e73756d65466565000000604482015260640161097a565b611dc7836064612cb0565b91506001600160a01b03841663a9059cbb86611de38686612cbc565b6040516001600160e01b031960e085901b1681526001600160a01b0390921660048301526024820152604401602060405180830381600087803b158015611e2957600080fd5b505af1158015611e3d573d6000803e3d6000fd5b505050506040513d601f19601f82011682018060405250810190611e6191906132d1565b611ec15760405162461bcd60e51b815260206004820152602b60248201527f4661696c656420746f207472616e736665722066656520746f20636f6e73756d60448201526a654665654164647265737360a81b606482015260840161097a565b600081118015611ed15750600082115b8015611eea5750600e546001600160a01b038581169116145b15611fea57600a546001600160a01b038086169163a9059cbb9116611f0f8486612cbc565b6040516001600160e01b031960e085901b1681526001600160a01b0390921660048301526024820152604401602060405180830381600087803b158015611f5557600080fd5b505af1158015611f69573d6000803e3d6000fd5b505050506040513d601f19601f82011682018060405250810190611f8d91906132d1565b611fe55760405162461bcd60e51b815260206004820152602360248201527f4661696c656420746f207472616e7366657220626f7468206665657320746f2060448201526227a82360e91b606482015260840161097a565b6121e9565b6000811180156120045750600e546001600160a01b031615155b156120ec57600e54600a5460405163a9059cbb60e01b81526001600160a01b0391821660048201526024810184905291169063a9059cbb90604401602060405180830381600087803b15801561205957600080fd5b505af115801561206d573d6000803e3d6000fd5b505050506040513d601f19601f8201168201806040525081019061209191906132d1565b6120ec5760405162461bcd60e51b815260206004820152602660248201527f4661696c656420746f207472616e73666572207075626c6973682066656573206044820152653a379027a82360d11b606482015260840161097a565b60008211801561210457506001600160a01b03841615155b156121e957600a5460405163a9059cbb60e01b81526001600160a01b039182166004820152602481018490529085169063a9059cbb90604401602060405180830381600087803b15801561215757600080fd5b505af115801561216b573d6000803e3d6000fd5b505050506040513d601f19601f8201168201806040525081019061218f91906132d1565b6121e95760405162461bcd60e51b815260206004820152602560248201527f4661696c656420746f207472616e7366657220636f6e73756d65206665652074604482015264379027a82360d91b606482015260840161097a565b6121fa6121f4610834565b8861155d565b50600d5460408051338152602081018a90529081018890524260608201524360808201526001600160a01b0387811692811691908b16907fb07adb6a34680ecbbc7935971c45a07b9baf67ce5dc57332d51e3a5745c9e9639060a00160405180910390a45050505050505050565b6001600160a01b0383166122ca5760405162461bcd60e51b8152602060048201526024808201527f45524332303a20617070726f76652066726f6d20746865207a65726f206164646044820152637265737360e01b606482015260840161097a565b6001600160a01b03821661232b5760405162461bcd60e51b815260206004820152602260248201527f45524332303a20617070726f766520746f20746865207a65726f206164647265604482015261737360f01b606482015260840161097a565b6001600160a01b0383811660008181526001602090815260408083209487168084529482529182902085905590518481527f8c5be1e5ebec7d5bd14f71427d1e84f3dd0314c0f7b2291e5b200ac8c7c3b925910160405180910390a3505050565b6001600160a01b03811660009081526005602052604090208054610100900460ff16156124065760405162461bcd60e51b815260206004820152602260248201527f4552433230526f6c65733a2020414c5245414459204120464545204d414e414760448201526122a960f11b606482015260840161097a565b805461ff001916610100179055600680546001810182556000919091527ff652222313e28459528d920b65115c16c04f3efc82aaedc97be59f3f377c0d3f0180546001600160a01b039092166001600160a01b0319909216919091179055565b6001600160a01b0383166124ca5760405162461bcd60e51b815260206004820152602560248201527f45524332303a207472616e736665722066726f6d20746865207a65726f206164604482015264647265737360d81b606482015260840161097a565b6001600160a01b03821661252c5760405162461bcd60e51b815260206004820152602360248201527f45524332303a207472616e7366657220746f20746865207a65726f206164647260448201526265737360e81b606482015260840161097a565b6001600160a01b038316600090815260208190526040902054818110156125a45760405162461bcd60e51b815260206004820152602660248201527f45524332303a207472616e7366657220616d6f756e7420657863656564732062604482015265616c616e636560d01b606482015260840161097a565b6001600160a01b038085166000908152602081905260408082208585039055918516815290812080548492906125db90849061369f565b92505081905550826001600160a01b0316846001600160a01b03167fddf252ad1be2c89b69c2b068fc378daa952ba7f163c4a11628f55a4df523b3ef8460405161262791815260200190565b60405180910390a350505050565b6000612641828461369f565b9392505050565b6001600160a01b03821661269e5760405162461bcd60e51b815260206004820152601f60248201527f45524332303a206d696e7420746f20746865207a65726f206164647265737300604482015260640161097a565b80600260008282546126b0919061369f565b90915550506001600160a01b038216600090815260208190526040812080548392906126dd90849061369f565b90915550506040518181526001600160a01b038316906000907fddf252ad1be2c89b69c2b068fc378daa952ba7f163c4a11628f55a4df523b3ef9060200160405180910390a35050565b60005b60065481101561278d576000600560006006848154811061274d5761274d613868565b60009182526020808320909101546001600160a01b031683528201929092526040019020805461ffff19169055508061278581613837565b91505061272a565b5061279a60066000612cc8565b565b6001600160a01b0381166000908152600560205260409020805460ff16156128065760405162461bcd60e51b815260206004820152601d60248201527f4552433230526f6c65733a2020414c52454144592041204d494e544552000000604482015260640161097a565b805460ff191660019081179091556006805491820181556000527ff652222313e28459528d920b65115c16c04f3efc82aaedc97be59f3f377c0d3f0180546001600160a01b039092166001600160a01b0319909216919091179055565b6000808460008151811061287957612879613868565b6020026020010151905060008560018151811061289857612898613868565b6020026020010151905060006001600160a01b0316826001600160a01b0316141561291a5760405162461bcd60e51b815260206004820152602c60248201527f455243323054656d706c6174653a20496e76616c6964206d696e7465722c202060448201526b7a65726f206164647265737360a01b606482015260840161097a565b6001600160a01b0381166129965760405162461bcd60e51b815260206004820152603c60248201527f455243323054656d706c6174653a20496e76616c696420636f6d6d756e69747960448201527f2066656520636f6c6c6563746f722c207a65726f206164647265737300000000606482015260840161097a565b846000815181106129a9576129a9613868565b602002602001015160001415612a0d5760405162461bcd60e51b8152602060048201526024808201527f44617461546f6b656e54656d706c6174653a20496e76616c6964206361702076604482015263616c756560e01b606482015260840161097a565b84600081518110612a2057612a20613868565b602002602001015160098190555087600081518110612a4157612a41613868565b602002602001015160079080519060200190612a5e929190612ce6565b5087600181518110612a7257612a72613868565b602002602001015160089080519060200190612a8f929190612ce6565b50600b80546001600160a01b0319166001600160a01b038416179055855186906002908110612ac057612ac0613868565b6020908102919091010151601280546001600160a01b039283166001600160a01b0319909116179055600a80546001600160a81b03191691831691909117600160a01b1790558651612b1d908890600090610ebf57610ebf613868565b612b4087600181518110612b3357612b33613868565b602002602001015161238c565b86600281518110612b5357612b53613868565b6020026020010151600d60006101000a8154816001600160a01b0302191690836001600160a01b0316021790555086600381518110612b9457612b94613868565b6020026020010151600e60006101000a8154816001600160a01b0302191690836001600160a01b0316021790555084600181518110612bd557612bd5613868565b6020026020010151600f8190555060004690507f8b73c3c69bb8fe3d512ecc4cf759cc79239f7b179b0ffacaa9a75d522b39400f6007604051612c189190613448565b60408051918290038220828201825260018352603160f81b6020938401528151928301939093528101919091527fc89efdaa54c0f20c7adf612882df0950f5a951637e0307cdcb4c672f298b8bc66060820152608081018290523060a082015260c00160408051808303601f1901815291905280516020909101206010555050600a54600160a01b900460ff16979650505050505050565b600061264182846136b7565b600061264182846136d9565b508054600082559060005260206000209081019061098c9190612d6a565b828054612cf2906137fc565b90600052602060002090601f016020900481019282612d145760008555612d5a565b82601f10612d2d57805160ff1916838001178555612d5a565b82800160010185558215612d5a579182015b82811115612d5a578251825591602001919060010190612d3f565b50612d66929150612d6a565b5090565b5b80821115612d665760008155600101612d6b565b600067ffffffffffffffff831115612d9957612d9961387e565b612dac601f8401601f191660200161364a565b9050828152838383011115612dc057600080fd5b828260208301376000602084830101529392505050565b60008083601f840112612de957600080fd5b50813567ffffffffffffffff811115612e0157600080fd5b6020830191508360208260051b8501011115612e1c57600080fd5b9250929050565b600082601f830112612e3457600080fd5b81356020612e49612e448361367b565b61364a565b80838252828201915082860187848660051b8901011115612e6957600080fd5b60005b85811015612e8857813584529284019290840190600101612e6c565b5090979650505050505050565b80518015158114612ea557600080fd5b919050565b803560ff81168114612ea557600080fd5b600060208284031215612ecd57600080fd5b813561264181613894565b600060208284031215612eea57600080fd5b815161264181613894565b60008060408385031215612f0857600080fd5b8235612f1381613894565b91506020830135612f2381613894565b809150509250929050565b600080600060608486031215612f4357600080fd5b8335612f4e81613894565b92506020840135612f5e81613894565b929592945050506040919091013590565b600080600080600080600060e0888a031215612f8a57600080fd5b8735612f9581613894565b96506020880135612fa581613894565b95506040880135945060608801359350612fc160808901612eaa565b925060a0880135915060c0880135905092959891949750929550565b600080600080600080600060e0888a031215612ff857600080fd5b873561300381613894565b9650602088013561301381613894565b955061302160408901612eaa565b945060608801359350608088013561303881613894565b925060a0880135915060c088013561304f81613894565b8091505092959891949750929550565b6000806040838503121561307257600080fd5b823561307d81613894565b946020939093013593505050565b60008060008060008060c087890312156130a457600080fd5b86356130af81613894565b9550602087013594506040870135935060608701356130cd81613894565b925060808701356130dd81613894565b8092505060a087013590509295509295509295565b60008060008060008060008060008060a08b8d03121561311157600080fd5b8a3567ffffffffffffffff8082111561312957600080fd5b6131358e838f01612dd7565b909c509a5060208d013591508082111561314e57600080fd5b61315a8e838f01612dd7565b909a50985060408d013591508082111561317357600080fd5b61317f8e838f01612dd7565b909850965060608d013591508082111561319857600080fd5b6131a48e838f01612dd7565b909650945060808d01359150808211156131bd57600080fd5b506131ca8d828e01612dd7565b915080935050809150509295989b9194979a5092959850565b6000806000606084860312156131f857600080fd5b833567ffffffffffffffff8082111561321057600080fd5b61321c87838801612e23565b945060209150818601358181111561323357600080fd5b61323f88828901612e23565b94505060408601358181111561325457600080fd5b86019050601f8101871361326757600080fd5b8035613275612e448261367b565b8082825284820191508484018a868560051b870101111561329557600080fd5b600094505b838510156132c15780356132ad81613894565b83526001949094019391850191850161329a565b5080955050505050509250925092565b6000602082840312156132e357600080fd5b61264182612e95565b6000602082840312156132fe57600080fd5b5051919050565b6000806020838503121561331857600080fd5b823567ffffffffffffffff8082111561333057600080fd5b818501915085601f83011261334457600080fd5b81358181111561335357600080fd5b86602082850101111561336557600080fd5b60209290920196919550909350505050565b60006080828403121561338957600080fd5b6040516080810181811067ffffffffffffffff821117156133ac576133ac61387e565b6040526133b883612e95565b81526133c660208401612e95565b60208201526133d760408401612e95565b60408201526133e860608401612e95565b60608201529392505050565b60006020828403121561340657600080fd5b5035919050565b600081518084526020808501945080840160005b8381101561343d57815187529582019590820190600101613421565b509495945050505050565b600080835481600182811c91508083168061346457607f831692505b602080841082141561348457634e487b7160e01b86526022600452602486fd5b81801561349857600181146134a9576134d6565b60ff198616895284890196506134d6565b60008a81526020902060005b868110156134ce5781548b8201529085019083016134b5565b505084890196505b509498975050505050505050565b60008186825b60028110156135125781516001600160a01b03168352602092830192909101906001016134ea565b50505060a0604083015261352960a083018661340d565b828103606084015261353b818661340d565b83810360808501528451808252602080870193509182019160005b8281101561357b5784516001600160a01b031684529381019392810192600101613556565b50919998505050505050505050565b83815260406020820152816040820152818360608301376000818301606090810191909152601f909201601f1916010192915050565b600060208083528351808285015260005b818110156135ed578581018301518582016040015282016135d1565b818111156135ff576000604083870101525b50601f01601f1916929092016040019392505050565b6020808252818101527f455243323054656d706c6174653a204e4f54204445504c4f59455220524f4c45604082015260600190565b604051601f8201601f1916810167ffffffffffffffff811182821017156136735761367361387e565b604052919050565b600067ffffffffffffffff8211156136955761369561387e565b5060051b60200190565b600082198211156136b2576136b2613852565b500190565b6000826136d457634e487b7160e01b600052601260045260246000fd5b500490565b6000828210156136eb576136eb613852565b500390565b60006136fe612e448461367b565b808482526020808301925084368760051b8701111561371c57600080fd5b60005b8781101561377057813567ffffffffffffffff81111561373e57600080fd5b870136601f82011261374f57600080fd5b61375d368235868401612d7f565b865250938201939082019060010161371f565b50919695505050505050565b600061378a612e448461367b565b808482526020808301925084368760051b870111156137a857600080fd5b60005b8781101561377057813567ffffffffffffffff8111156137ca57600080fd5b870136601f8201126137db57600080fd5b6137e9368235868401612d7f565b86525093820193908201906001016137ab565b600181811c9082168061381057607f821691505b6020821081141561383157634e487b7160e01b600052602260045260246000fd5b50919050565b600060001982141561384b5761384b613852565b5060010190565b634e487b7160e01b600052601160045260246000fd5b634e487b7160e01b600052603260045260246000fd5b634e487b7160e01b600052604160045260246000fd5b6001600160a01b038116811461098c57600080fdfea264697066735822122051ec18697e7f1fc7f53c73986fa9bc4196c09267b9986e85dd3453de98d2fc0364736f6c63430008070033",
  "linkReferences": {},
  "deployedLinkReferences": {}
}