{
  "_format": "hh-sol-artifact-1",
  "contractName": "ERC20Template",
  "sourceName": "contracts/templates/ERC20Template.sol",
  "abi": [
    {
      "anonymous": false,
      "inputs": [
        {
          "indexed": true,
          "internalType": "address",
          "name": "owner",
          "type": "address"
        },
        {
          "indexed": true,
          "internalType": "address",
          "name": "spender",
          "type": "address"
        },
        {
          "indexed": false,
          "internalType": "uint256",
          "name": "value",
          "type": "uint256"
        }
      ],
      "name": "Approval",
      "type": "event"
    },
    {
      "anonymous": false,
      "inputs": [
        {
          "indexed": false,
          "internalType": "address",
          "name": "currentMinter",
          "type": "address"
        },
        {
          "indexed": false,
          "internalType": "address",
          "name": "newMinter",
          "type": "address"
        }
      ],
      "name": "MinterApproved",
      "type": "event"
    },
    {
      "anonymous": false,
      "inputs": [
        {
          "indexed": false,
          "internalType": "address",
          "name": "currentMinter",
          "type": "address"
        },
        {
          "indexed": false,
          "internalType": "address",
          "name": "newMinter",
          "type": "address"
        }
      ],
      "name": "MinterProposed",
      "type": "event"
    },
    {
      "anonymous": false,
      "inputs": [
        {
          "indexed": false,
          "internalType": "bytes32",
          "name": "exchangeId",
          "type": "bytes32"
        },
        {
          "indexed": false,
          "internalType": "address",
          "name": "owner",
          "type": "address"
        },
        {
          "indexed": false,
          "internalType": "address",
          "name": "basetoken",
          "type": "address"
        }
      ],
      "name": "NewFixedRate",
      "type": "event"
    },
    {
      "anonymous": false,
      "inputs": [
        {
          "indexed": false,
          "internalType": "address",
          "name": "poolAddress",
          "type": "address"
        },
        {
          "indexed": false,
          "internalType": "address",
          "name": "ssContract",
          "type": "address"
        },
        {
          "indexed": false,
          "internalType": "address",
          "name": "basetokenAddress",
          "type": "address"
        }
      ],
      "name": "NewPool",
      "type": "event"
    },
    {
      "anonymous": false,
      "inputs": [
        {
          "indexed": false,
          "internalType": "bytes32",
          "name": "orderTxId",
          "type": "bytes32"
        },
        {
          "indexed": true,
          "internalType": "address",
          "name": "consumer",
          "type": "address"
        },
        {
          "indexed": false,
          "internalType": "uint256",
          "name": "amount",
          "type": "uint256"
        },
        {
          "indexed": false,
          "internalType": "uint256",
          "name": "serviceId",
          "type": "uint256"
        },
        {
          "indexed": true,
          "internalType": "address",
          "name": "provider",
          "type": "address"
        },
        {
          "indexed": false,
          "internalType": "uint256",
          "name": "timestamp",
          "type": "uint256"
        }
      ],
      "name": "OrderFinished",
      "type": "event"
    },
    {
      "anonymous": false,
      "inputs": [
        {
          "indexed": true,
          "internalType": "address",
          "name": "consumer",
          "type": "address"
        },
        {
          "indexed": true,
          "internalType": "address",
          "name": "payer",
          "type": "address"
        },
        {
          "indexed": false,
          "internalType": "uint256",
          "name": "amount",
          "type": "uint256"
        },
        {
          "indexed": false,
          "internalType": "uint256",
          "name": "serviceId",
          "type": "uint256"
        },
        {
          "indexed": false,
          "internalType": "uint256",
          "name": "timestamp",
          "type": "uint256"
        },
        {
          "indexed": true,
          "internalType": "address",
          "name": "mrktFeeCollector",
          "type": "address"
        },
        {
          "indexed": false,
          "internalType": "uint256",
          "name": "marketFee",
          "type": "uint256"
        }
      ],
      "name": "OrderStarted",
      "type": "event"
    },
    {
      "anonymous": false,
      "inputs": [
        {
          "indexed": true,
          "internalType": "address",
          "name": "from",
          "type": "address"
        },
        {
          "indexed": true,
          "internalType": "address",
          "name": "to",
          "type": "address"
        },
        {
          "indexed": false,
          "internalType": "uint256",
          "name": "value",
          "type": "uint256"
        }
      ],
      "name": "Transfer",
      "type": "event"
    },
    {
      "inputs": [],
      "name": "BASE",
      "outputs": [
        {
          "internalType": "uint256",
          "name": "",
          "type": "uint256"
        }
      ],
      "stateMutability": "view",
      "type": "function"
    },
    {
      "inputs": [],
      "name": "BASE_COMMUNITY_FEE_PERCENTAGE",
      "outputs": [
        {
          "internalType": "uint256",
          "name": "",
          "type": "uint256"
        }
      ],
      "stateMutability": "view",
      "type": "function"
    },
    {
      "inputs": [],
      "name": "BASE_MARKET_FEE_PERCENTAGE",
      "outputs": [
        {
          "internalType": "uint256",
          "name": "",
          "type": "uint256"
        }
      ],
      "stateMutability": "view",
      "type": "function"
    },
    {
      "inputs": [],
      "name": "DOMAIN_SEPARATOR",
      "outputs": [
        {
          "internalType": "bytes32",
          "name": "",
          "type": "bytes32"
        }
      ],
      "stateMutability": "view",
      "type": "function"
    },
    {
      "inputs": [],
      "name": "PERMIT_TYPEHASH",
      "outputs": [
        {
          "internalType": "bytes32",
          "name": "",
          "type": "bytes32"
        }
      ],
      "stateMutability": "view",
      "type": "function"
    },
    {
      "inputs": [
        {
          "internalType": "address",
          "name": "_feeManager",
          "type": "address"
        }
      ],
      "name": "addFeeManager",
      "outputs": [],
      "stateMutability": "nonpayable",
      "type": "function"
    },
    {
      "inputs": [
        {
          "internalType": "address",
          "name": "_minter",
          "type": "address"
        }
      ],
      "name": "addMinter",
      "outputs": [],
      "stateMutability": "nonpayable",
      "type": "function"
    },
    {
      "inputs": [
        {
          "internalType": "address",
          "name": "owner",
          "type": "address"
        },
        {
          "internalType": "address",
          "name": "spender",
          "type": "address"
        }
      ],
      "name": "allowance",
      "outputs": [
        {
          "internalType": "uint256",
          "name": "",
          "type": "uint256"
        }
      ],
      "stateMutability": "view",
      "type": "function"
    },
    {
      "inputs": [
        {
          "internalType": "address",
          "name": "spender",
          "type": "address"
        },
        {
          "internalType": "uint256",
          "name": "amount",
          "type": "uint256"
        }
      ],
      "name": "approve",
      "outputs": [
        {
          "internalType": "bool",
          "name": "",
          "type": "bool"
        }
      ],
      "stateMutability": "nonpayable",
      "type": "function"
    },
    {
      "inputs": [
        {
          "internalType": "uint256",
          "name": "",
          "type": "uint256"
        }
      ],
      "name": "authERC20",
      "outputs": [
        {
          "internalType": "address",
          "name": "",
          "type": "address"
        }
      ],
      "stateMutability": "view",
      "type": "function"
    },
    {
      "inputs": [
        {
          "internalType": "address",
          "name": "account",
          "type": "address"
        }
      ],
      "name": "balanceOf",
      "outputs": [
        {
          "internalType": "uint256",
          "name": "",
          "type": "uint256"
        }
      ],
      "stateMutability": "view",
      "type": "function"
    },
    {
      "inputs": [],
      "name": "cap",
      "outputs": [
        {
          "internalType": "uint256",
          "name": "",
          "type": "uint256"
        }
      ],
      "stateMutability": "view",
      "type": "function"
    },
    {
      "inputs": [],
      "name": "cleanFrom721",
      "outputs": [],
      "stateMutability": "nonpayable",
      "type": "function"
    },
    {
      "inputs": [],
      "name": "cleanPermissions",
      "outputs": [],
      "stateMutability": "nonpayable",
      "type": "function"
    },
    {
      "inputs": [
        {
          "internalType": "address",
          "name": "basetokenAddress",
          "type": "address"
        },
        {
          "internalType": "uint8",
          "name": "basetokenDecimals",
          "type": "uint8"
        },
        {
          "internalType": "uint256",
          "name": "fixedRate",
          "type": "uint256"
        },
        {
          "internalType": "address",
          "name": "owner",
          "type": "address"
        },
        {
          "internalType": "uint256",
          "name": "marketFee",
          "type": "uint256"
        },
        {
          "internalType": "address",
          "name": "marketFeeCollector",
          "type": "address"
        }
      ],
      "name": "createFixedRate",
      "outputs": [
        {
          "internalType": "bytes32",
          "name": "exchangeId",
          "type": "bytes32"
        }
      ],
      "stateMutability": "nonpayable",
      "type": "function"
    },
    {
      "inputs": [],
      "name": "decimals",
      "outputs": [
        {
          "internalType": "uint8",
          "name": "",
          "type": "uint8"
        }
      ],
      "stateMutability": "pure",
      "type": "function"
    },
    {
      "inputs": [
        {
          "internalType": "address",
          "name": "spender",
          "type": "address"
        },
        {
          "internalType": "uint256",
          "name": "subtractedValue",
          "type": "uint256"
        }
      ],
      "name": "decreaseAllowance",
      "outputs": [
        {
          "internalType": "bool",
          "name": "",
          "type": "bool"
        }
      ],
      "stateMutability": "nonpayable",
      "type": "function"
    },
    {
      "inputs": [
        {
          "internalType": "address",
          "name": "controller",
          "type": "address"
        },
        {
          "internalType": "address",
          "name": "basetokenAddress",
          "type": "address"
        },
        {
          "internalType": "uint256[]",
          "name": "ssParams",
          "type": "uint256[]"
        },
        {
          "internalType": "address",
          "name": "basetokenSender",
          "type": "address"
        },
        {
          "internalType": "uint256[]",
          "name": "swapFees",
          "type": "uint256[]"
        },
        {
          "internalType": "address",
          "name": "marketFeeCollector",
          "type": "address"
        }
      ],
      "name": "deployPool",
      "outputs": [],
      "stateMutability": "nonpayable",
      "type": "function"
    },
    {
      "inputs": [
        {
          "internalType": "bytes32[]",
          "name": "orderTxIds",
          "type": "bytes32[]"
        },
        {
          "internalType": "address[]",
          "name": "consumers",
          "type": "address[]"
        },
        {
          "internalType": "uint256[]",
          "name": "amounts",
          "type": "uint256[]"
        },
        {
          "internalType": "uint256[]",
          "name": "serviceIds",
          "type": "uint256[]"
        }
      ],
      "name": "finishMultipleOrder",
      "outputs": [],
      "stateMutability": "nonpayable",
      "type": "function"
    },
    {
      "inputs": [
        {
          "internalType": "bytes32",
          "name": "orderTxId",
          "type": "bytes32"
        },
        {
          "internalType": "address",
          "name": "consumer",
          "type": "address"
        },
        {
          "internalType": "uint256",
          "name": "amount",
          "type": "uint256"
        },
        {
          "internalType": "uint256",
          "name": "serviceId",
          "type": "uint256"
        }
      ],
      "name": "finishOrder",
      "outputs": [],
      "stateMutability": "nonpayable",
      "type": "function"
    },
    {
      "inputs": [],
      "name": "getFeeCollector",
      "outputs": [
        {
          "internalType": "address",
          "name": "",
          "type": "address"
        }
      ],
      "stateMutability": "view",
      "type": "function"
    },
    {
      "inputs": [],
      "name": "getId",
      "outputs": [
        {
          "internalType": "uint8",
          "name": "",
          "type": "uint8"
        }
      ],
      "stateMutability": "pure",
      "type": "function"
    },
    {
      "inputs": [
        {
          "internalType": "address",
          "name": "spender",
          "type": "address"
        },
        {
          "internalType": "uint256",
          "name": "addedValue",
          "type": "uint256"
        }
      ],
      "name": "increaseAllowance",
      "outputs": [
        {
          "internalType": "bool",
          "name": "",
          "type": "bool"
        }
      ],
      "stateMutability": "nonpayable",
      "type": "function"
    },
    {
      "inputs": [
        {
          "internalType": "string",
          "name": "name_",
          "type": "string"
        },
        {
          "internalType": "string",
          "name": "symbol_",
          "type": "string"
        },
        {
          "internalType": "address",
          "name": "erc721Address",
          "type": "address"
        },
        {
          "internalType": "uint256",
          "name": "cap_",
          "type": "uint256"
        },
        {
          "internalType": "address",
          "name": "communityFeeCollector",
          "type": "address"
        },
        {
          "internalType": "address",
          "name": "minter",
          "type": "address"
        },
        {
          "internalType": "address",
          "name": "router_",
          "type": "address"
        },
        {
          "internalType": "address",
          "name": "feeManager",
          "type": "address"
        }
      ],
      "name": "initialize",
      "outputs": [
        {
          "internalType": "bool",
          "name": "",
          "type": "bool"
        }
      ],
      "stateMutability": "nonpayable",
      "type": "function"
    },
    {
      "inputs": [],
      "name": "isInitialized",
      "outputs": [
        {
          "internalType": "bool",
          "name": "",
          "type": "bool"
        }
      ],
      "stateMutability": "view",
      "type": "function"
    },
    {
      "inputs": [
        {
          "internalType": "address",
          "name": "account",
          "type": "address"
        },
        {
          "internalType": "uint256",
          "name": "value",
          "type": "uint256"
        }
      ],
      "name": "mint",
      "outputs": [],
      "stateMutability": "nonpayable",
      "type": "function"
    },
    {
      "inputs": [],
      "name": "name",
      "outputs": [
        {
          "internalType": "string",
          "name": "",
          "type": "string"
        }
      ],
      "stateMutability": "view",
      "type": "function"
    },
    {
      "inputs": [
        {
          "internalType": "address",
          "name": "",
          "type": "address"
        }
      ],
      "name": "nonces",
      "outputs": [
        {
          "internalType": "uint256",
          "name": "",
          "type": "uint256"
        }
      ],
      "stateMutability": "view",
      "type": "function"
    },
    {
      "inputs": [
        {
          "internalType": "address",
          "name": "",
          "type": "address"
        }
      ],
      "name": "permissions",
      "outputs": [
        {
          "internalType": "bool",
          "name": "minter",
          "type": "bool"
        },
        {
          "internalType": "bool",
          "name": "feeManager",
          "type": "bool"
        }
      ],
      "stateMutability": "view",
      "type": "function"
    },
    {
      "inputs": [
        {
          "internalType": "address",
          "name": "owner",
          "type": "address"
        },
        {
          "internalType": "address",
          "name": "spender",
          "type": "address"
        },
        {
          "internalType": "uint256",
          "name": "value",
          "type": "uint256"
        },
        {
          "internalType": "uint256",
          "name": "deadline",
          "type": "uint256"
        },
        {
          "internalType": "uint8",
          "name": "v",
          "type": "uint8"
        },
        {
          "internalType": "bytes32",
          "name": "r",
          "type": "bytes32"
        },
        {
          "internalType": "bytes32",
          "name": "s",
          "type": "bytes32"
        }
      ],
      "name": "permit",
      "outputs": [],
      "stateMutability": "nonpayable",
      "type": "function"
    },
    {
      "inputs": [
        {
          "internalType": "address",
          "name": "_feeManager",
          "type": "address"
        }
      ],
      "name": "removeFeeManager",
      "outputs": [],
      "stateMutability": "nonpayable",
      "type": "function"
    },
    {
      "inputs": [
        {
          "internalType": "address",
          "name": "_minter",
          "type": "address"
        }
      ],
      "name": "removeMinter",
      "outputs": [],
      "stateMutability": "nonpayable",
      "type": "function"
    },
    {
      "inputs": [],
      "name": "router",
      "outputs": [
        {
          "internalType": "address",
          "name": "",
          "type": "address"
        }
      ],
      "stateMutability": "view",
      "type": "function"
    },
    {
      "inputs": [
        {
          "internalType": "bytes",
          "name": "_value",
          "type": "bytes"
        }
      ],
      "name": "setData",
      "outputs": [],
      "stateMutability": "nonpayable",
      "type": "function"
    },
    {
      "inputs": [
        {
          "internalType": "address",
          "name": "_newFeeCollector",
          "type": "address"
        }
      ],
      "name": "setFeeCollector",
      "outputs": [],
      "stateMutability": "nonpayable",
      "type": "function"
    },
    {
      "inputs": [
        {
          "internalType": "address[]",
          "name": "consumers",
          "type": "address[]"
        },
        {
          "internalType": "uint256[]",
          "name": "amounts",
          "type": "uint256[]"
        },
        {
          "internalType": "uint256[]",
          "name": "serviceIds",
          "type": "uint256[]"
        },
        {
          "internalType": "address[]",
          "name": "mrktFeeCollectors",
          "type": "address[]"
        },
        {
          "internalType": "address[]",
          "name": "feeTokens",
          "type": "address[]"
        },
        {
          "internalType": "uint256[]",
          "name": "feeAmounts",
          "type": "uint256[]"
        }
      ],
      "name": "startMultipleOrder",
      "outputs": [],
      "stateMutability": "nonpayable",
      "type": "function"
    },
    {
      "inputs": [
        {
          "internalType": "address",
          "name": "consumer",
          "type": "address"
        },
        {
          "internalType": "uint256",
          "name": "amount",
          "type": "uint256"
        },
        {
          "internalType": "uint256",
          "name": "serviceId",
          "type": "uint256"
        },
        {
          "internalType": "address",
          "name": "mrktFeeCollector",
          "type": "address"
        },
        {
          "internalType": "address",
          "name": "feeToken",
          "type": "address"
        },
        {
          "internalType": "uint256",
          "name": "feeAmount",
          "type": "uint256"
        }
      ],
      "name": "startOrder",
      "outputs": [],
      "stateMutability": "nonpayable",
      "type": "function"
    },
    {
      "inputs": [],
      "name": "symbol",
      "outputs": [
        {
          "internalType": "string",
          "name": "",
          "type": "string"
        }
      ],
      "stateMutability": "view",
      "type": "function"
    },
    {
      "inputs": [],
      "name": "totalSupply",
      "outputs": [
        {
          "internalType": "uint256",
          "name": "",
          "type": "uint256"
        }
      ],
      "stateMutability": "view",
      "type": "function"
    },
    {
      "inputs": [
        {
          "internalType": "address",
          "name": "recipient",
          "type": "address"
        },
        {
          "internalType": "uint256",
          "name": "amount",
          "type": "uint256"
        }
      ],
      "name": "transfer",
      "outputs": [
        {
          "internalType": "bool",
          "name": "",
          "type": "bool"
        }
      ],
      "stateMutability": "nonpayable",
      "type": "function"
    },
    {
      "inputs": [
        {
          "internalType": "address",
          "name": "sender",
          "type": "address"
        },
        {
          "internalType": "address",
          "name": "recipient",
          "type": "address"
        },
        {
          "internalType": "uint256",
          "name": "amount",
          "type": "uint256"
        }
      ],
      "name": "transferFrom",
      "outputs": [
        {
          "internalType": "bool",
          "name": "",
          "type": "bool"
        }
      ],
      "stateMutability": "nonpayable",
      "type": "function"
    }
  ],
  "bytecode": "0x6080604052600a805460ff60a01b191690553480156200001e57600080fd5b5060408051808201825260048152631d195cdd60e21b60208083019182528351808501909452600a8452691d195cdd14de5b589bdb60b21b9084015281519192916200006d916003916200008c565b508051620000839060049060208401906200008c565b5050506200016f565b8280546200009a9062000132565b90600052602060002090601f016020900481019282620000be576000855562000109565b82601f10620000d957805160ff191683800117855562000109565b8280016001018555821562000109579182015b8281111562000109578251825591602001919060010190620000ec565b50620001179291506200011b565b5090565b5b808211156200011757600081556001016200011c565b6002810460018216806200014757607f821691505b602082108114156200016957634e487b7160e01b600052602260045260246000fd5b50919050565b61384f806200017f6000396000f3fe608060405234801561001057600080fd5b50600436106102535760003560e01c80634f189cb211610146578063a42dce80116100c3578063d505accf11610087578063d505accf146104a9578063dd62ed3e146104bc578063ec342ad0146104cf578063ef867ff4146104d7578063f887ea40146104ea578063fda9dae7146104f257610253565b8063a42dce801461045d578063a457c2d714610470578063a9059cbb14610483578063ab62f0e114610496578063b2263a5d1461032f57610253565b80638115c9cc1161010a5780638115c9cc1461041457806382c03da5146104275780638ca0c0591461042f57806395d89b4114610442578063983b2d561461044a57610253565b80634f189cb2146103cb5780635d1ca631146103d357806370a08231146103db5780637134a260146103ee5780637ecebe001461040157610253565b80633092afd5116101d4578063392e53cd11610198578063392e53cd14610377578063395093511461037f5780633ed42b6d1461039257806340c10f19146103a55780634dea05fe146103b857610253565b80633092afd51461033757806330adf81f1461034a578063313ce56714610352578063355274ea146103675780633644e5151461036f57610253565b806318160ddd1161021b57806318160ddd146102e15780631ac57089146102f65780631f2d32c31461030957806323b872dd1461031c578063294541c71461032f57610253565b806301e882081461025857806306fdde0314610282578063095ea7b3146102975780630e744e2e146102b757806312fde4b7146102cc575b600080fd5b61026b610266366004612664565b610505565b604051610279929190612f1e565b60405180910390f35b61028a610523565b6040516102799190613027565b6102aa6102a536600461282f565b6105b6565b6040516102799190612f13565b6102ca6102c5366004612a0d565b6105d4565b005b6102d46108b2565b6040516102799190612df0565b6102e961095f565b6040516102799190612f30565b6102aa610304366004612b7a565b610965565b6102ca610317366004612664565b610a1c565b6102aa61032a366004612782565b610acf565b6102e9610b66565b6102ca610345366004612664565b610b7d565b6102e9610c2d565b61035a610c51565b60405161027991906136ac565b6102e9610c56565b6102e9610c5c565b6102aa610c62565b6102aa61038d36600461282f565b610c72565b6102ca6103a036600461291f565b610cc1565b6102ca6103b336600461282f565b611121565b6102ca6103c63660046126d4565b611196565b6102ca61135c565b61035a611427565b6102e96103e9366004612664565b61142c565b6102e96103fc3660046128c0565b61144b565b6102e961040f366004612664565b6115c6565b6102ca610422366004612664565b6115d8565b6102ca611688565b6102ca61043d366004612afe565b6116b2565b61028a611735565b6102ca610458366004612664565b611744565b6102ca61046b366004612664565b6117f4565b6102aa61047e36600461282f565b611850565b6102aa61049136600461282f565b6118cb565b6102ca6104a4366004612b3a565b6118df565b6102ca6104b73660046127c2565b611a1b565b6102e96104ca36600461269c565b611b96565b6102e9611bc1565b6102d46104e5366004612ccb565b611bcd565b6102d4611bf7565b6102ca61050036600461285a565b611c06565b60056020526000908152604090205460ff8082169161010090041682565b60606007805461053290613782565b80601f016020809104026020016040519081016040528092919081815260200182805461055e90613782565b80156105ab5780601f10610580576101008083540402835291602001916105ab565b820191906000526020600020905b81548152906001019060200180831161058e57829003601f168201915b505050505090505b90565b60006105ca6105c3611d84565b8484611d88565b5060015b92915050565b6040805160208088028281018201909352878252839283926106139290918b918b918291850190849080828437600092019190915250611e3c92505050565b146106395760405162461bcd60e51b8152600401610630906131c4565b60405180910390fd5b80610676868680806020026020016040519081016040528093929190818152602001838360200280828437600092019190915250611e3c92505050565b146106935760405162461bcd60e51b8152600401610630906131c4565b806106d08a8a80806020026020016040519081016040528093929190818152602001838360200280828437600092019190915250611e3c92505050565b146106ed5760405162461bcd60e51b8152600401610630906131c4565b60005b818110156108a65785858281811061071857634e487b7160e01b600052603260045260246000fd5b905060200201356000146107a65761078a88888381811061074957634e487b7160e01b600052603260045260246000fd5b905060200201602081019061075e9190612664565b87878481811061077e57634e487b7160e01b600052603260045260246000fd5b905060200201356118cb565b6107a65760405162461bcd60e51b8152600401610630906132a5565b338888838181106107c757634e487b7160e01b600052603260045260246000fd5b90506020020160208101906107dc9190612664565b6001600160a01b03167f46872661d5d7765097d3a97ca99b7cbfa68b54b6d51904168974901ee607a26d8c8c8581811061082657634e487b7160e01b600052603260045260246000fd5b9050602002013589898681811061084d57634e487b7160e01b600052603260045260246000fd5b9050602002013588888781811061087457634e487b7160e01b600052603260045260246000fd5b905060200201354260405161088c9493929190612fee565b60405180910390a38061089e816137bd565b9150506106f0565b50505050505050505050565b600c546000906001600160a01b031661094d57600b546040516331a9108f60e11b81526001600160a01b0390911690636352211e906108f690600190600401612f30565b60206040518083038186803b15801561090e57600080fd5b505afa158015610922573d6000803e3d6000fd5b505050506040513d601f19601f820116820180604052508101906109469190612680565b90506105b3565b50600c546001600160a01b03166105b3565b60025490565b600a54600090600160a01b900460ff16156109925760405162461bcd60e51b8152600401610630906132ee565b610a0d8b8b8080601f01602080910402602001604051908101604052809392919081815260200183838082843760009201919091525050604080516020601f8f018190048102820181019092528d815292508d91508c90819084018382808284376000920191909152508c92508b91508a9050898989611e40565b9b9a5050505050505050505050565b600b5460405163160a792560e01b81526001600160a01b039091169063160a792590610a4c903390600401612df0565b608060405180830381600087803b158015610a6657600080fd5b505af1158015610a7a573d6000803e3d6000fd5b505050506040513d601f19601f82011682018060405250810190610a9e9190612c4f565b602001511515600114610ac35760405162461bcd60e51b81526004016106309061333f565b610acc81611fee565b50565b6000610adc84848461208d565b6001600160a01b038416600090815260016020526040812081610afd611d84565b6001600160a01b03166001600160a01b0316815260200190815260200160002054905082811015610b405760405162461bcd60e51b8152600401610630906133b8565b610b5b85610b4c611d84565b610b56868561376b565b611d88565b506001949350505050565b610b7a6103e8670de0b6b3a764000061372c565b81565b600b5460405163160a792560e01b81526001600160a01b039091169063160a792590610bad903390600401612df0565b608060405180830381600087803b158015610bc757600080fd5b505af1158015610bdb573d6000803e3d6000fd5b505050506040513d601f19601f82011682018060405250810190610bff9190612c4f565b602001511515600114610c245760405162461bcd60e51b81526004016106309061333f565b610acc816121a7565b7f6e71edae12b1b97f4d1f60370fef10105fa2faae0126114a169c64845d6126c981565b601290565b60095490565b600d5481565b600a54600160a01b900460ff1690565b60006105ca610c7f611d84565b848460016000610c8d611d84565b6001600160a01b03908116825260208083019390935260409182016000908120918b1681529252902054610b569190613714565b835180610ccd88611e3c565b14610cea5760405162461bcd60e51b8152600401610630906131c4565b80610cf487611e3c565b14610d115760405162461bcd60e51b8152600401610630906131c4565b80610d1b85611e3c565b14610d385760405162461bcd60e51b8152600401610630906131c4565b80610d4283611e3c565b14610d5f5760405162461bcd60e51b8152600401610630906131c4565b80610d6984611e3c565b14610d865760405162461bcd60e51b8152600401610630906131c4565b60005b81811015611117576000838281518110610db357634e487b7160e01b600052603260045260246000fd5b60200260200101511115610eba57838181518110610de157634e487b7160e01b600052603260045260246000fd5b60200260200101516001600160a01b03166323b872dd33878481518110610e1857634e487b7160e01b600052603260045260246000fd5b6020026020010151868581518110610e4057634e487b7160e01b600052603260045260246000fd5b60200260200101516040518463ffffffff1660e01b8152600401610e6693929190612e27565b602060405180830381600087803b158015610e8057600080fd5b505af1158015610e94573d6000803e3d6000fd5b505050506040513d601f19601f82011682018060405250810190610eb89190612acc565b505b600080610f03898481518110610ee057634e487b7160e01b600052603260045260246000fd5b60200260200101516103e8670de0b6b3a7640000610efe919061372c565b6121c8565b600a54909150610f1c906001600160a01b0316826118cb565b5060006001600160a01b0316878481518110610f4857634e487b7160e01b600052603260045260246000fd5b60200260200101516001600160a01b031614610fb657610f81898481518110610ee057634e487b7160e01b600052603260045260246000fd5b9150610fb4878481518110610fa657634e487b7160e01b600052603260045260246000fd5b6020026020010151836118cb565b505b6000610fc28284612207565b9050611009610fcf6108b2565b610491838d8881518110610ff357634e487b7160e01b600052603260045260246000fd5b602002602001015161221390919063ffffffff16565b5087848151811061102a57634e487b7160e01b600052603260045260246000fd5b60200260200101516001600160a01b0316336001600160a01b03168c868151811061106557634e487b7160e01b600052603260045260246000fd5b60200260200101516001600160a01b03167fe1c4fa794edfa8f619b8257a077398950357b9c6398528f94480307352f9afcc8d88815181106110b757634e487b7160e01b600052603260045260246000fd5b60200260200101518d89815181106110df57634e487b7160e01b600052603260045260246000fd5b602002602001015142896040516110f99493929190612fee565b60405180910390a4505050808061110f906137bd565b915050610d89565b5050505050505050565b3360009081526005602052604090205460ff1615156001146111555760405162461bcd60e51b81526004016106309061342a565b60095461116a8261116461095f565b90612207565b11156111885760405162461bcd60e51b815260040161063090613521565b611192828261221f565b5050565b600b5460405163160a792560e01b81526001600160a01b039091169063160a7925906111c6903390600401612df0565b608060405180830381600087803b1580156111e057600080fd5b505af11580156111f4573d6000803e3d6000fd5b505050506040513d601f19601f820116820180604052508101906112189190612c4f565b60200151151560011461123d5760405162461bcd60e51b81526004016106309061333f565b61124561095f565b156112625760405162461bcd60e51b815260040161063090613558565b61126b866122df565b6040805180820182523081526001600160a01b038781166020830152600f54600b54935163ac5717ed60e01b815292936000939183169263ac5717ed926112c3928d9288929116908c908c908c908c90600401612e4b565b602060405180830381600087803b1580156112dd57600080fd5b505af11580156112f1573d6000803e3d6000fd5b505050506040513d601f19601f820116820180604052508101906113159190612680565b90507fd02da1bec30f7f750aa0a131745dfb9ce96767c45a192dc26409f5d690e0b96781898960405161134a93929190612e04565b60405180910390a15050505050505050565b600b546040516331a9108f60e11b81526001600160a01b0390911690636352211e9061138d90600190600401612f30565b60206040518083038186803b1580156113a557600080fd5b505afa1580156113b9573d6000803e3d6000fd5b505050506040513d601f19601f820116820180604052508101906113dd9190612680565b6001600160a01b0316336001600160a01b03161461140d5760405162461bcd60e51b8152600401610630906134a6565b611415612376565b600c80546001600160a01b0319169055565b600190565b6001600160a01b0381166000908152602081905260409020545b919050565b600b5460405163160a792560e01b81526000916001600160a01b03169063160a79259061147c903390600401612df0565b608060405180830381600087803b15801561149657600080fd5b505af11580156114aa573d6000803e3d6000fd5b505050506040513d601f19601f820116820180604052508101906114ce9190612c4f565b6020015115156001146114f35760405162461bcd60e51b81526004016106309061333f565b600f546040516314ac4c2360e11b81526001600160a01b039091169063295898469061152d908a908a908a908a908a908a90600401612ed8565b602060405180830381600087803b15801561154757600080fd5b505af115801561155b573d6000803e3d6000fd5b505050506040513d601f19601f8201168201806040525081019061157f9190612ae6565b90507f7ebefcdd4e9a446510a0409e4c05db735400bb711392dff4546ff90349454d858185896040516115b493929190612f39565b60405180910390a19695505050505050565b600e6020526000908152604090205481565b600b5460405163160a792560e01b81526001600160a01b039091169063160a792590611608903390600401612df0565b608060405180830381600087803b15801561162257600080fd5b505af1158015611636573d6000803e3d6000fd5b505050506040513d601f19601f8201168201806040525081019061165a9190612c4f565b60200151151560011461167f5760405162461bcd60e51b81526004016106309061333f565b610acc816123f9565b600b546001600160a01b0316331461140d5760405162461bcd60e51b81526004016106309061326e565b81156116de576116c283836118cb565b6116de5760405162461bcd60e51b8152600401610630906132a5565b336001600160a01b0316836001600160a01b03167f46872661d5d7765097d3a97ca99b7cbfa68b54b6d51904168974901ee607a26d868585426040516117279493929190612fee565b60405180910390a350505050565b60606008805461053290613782565b600b5460405163160a792560e01b81526001600160a01b039091169063160a792590611774903390600401612df0565b608060405180830381600087803b15801561178e57600080fd5b505af11580156117a2573d6000803e3d6000fd5b505050506040513d601f19601f820116820180604052508101906117c69190612c4f565b6020015115156001146117eb5760405162461bcd60e51b81526004016106309061333f565b610acc816122df565b3360009081526005602052604090205460ff61010090910416151560011461182e5760405162461bcd60e51b81526004016106309061307a565b600c80546001600160a01b0319166001600160a01b0392909216919091179055565b6000806001600061185f611d84565b6001600160a01b03908116825260208083019390935260409182016000908120918816815292529020549050828110156118ab5760405162461bcd60e51b815260040161063090613630565b6118c16118b6611d84565b85610b56868561376b565b5060019392505050565b60006105ca6118d8611d84565b848461208d565b600b5460405163160a792560e01b81526001600160a01b039091169063160a79259061190f903390600401612df0565b608060405180830381600087803b15801561192957600080fd5b505af115801561193d573d6000803e3d6000fd5b505050506040513d601f19601f820116820180604052508101906119619190612c4f565b6020015115156001146119865760405162461bcd60e51b81526004016106309061333f565b6000306040516020016119999190612d1d565b60408051601f19818403018152908290528051602090910120600b546301caf8fd60e31b83529092506001600160a01b031690630e57c7e8906119e490849087908790600401612fb8565b600060405180830381600087803b1580156119fe57600080fd5b505af1158015611a12573d6000803e3d6000fd5b50505050505050565b42841015611a3b5760405162461bcd60e51b815260040161063090613400565b600d546001600160a01b0388166000908152600e6020526040812080549192917f6e71edae12b1b97f4d1f60370fef10105fa2faae0126114a169c64845d6126c9918b918b918b919087611a8e836137bd565b919050558a604051602001611aa896959493929190612f58565b60405160208183030381529060405280519060200120604051602001611acf929190612dd5565b604051602081830303815290604052805190602001209050600060018286868660405160008152602001604052604051611b0c9493929190613009565b6020604051602081039080840390855afa158015611b2e573d6000803e3d6000fd5b5050604051601f1901519150506001600160a01b03811615801590611b645750886001600160a01b0316816001600160a01b0316145b611b805760405162461bcd60e51b8152600401610630906135f9565b611b8b898989611d88565b505050505050505050565b6001600160a01b03918216600090815260016020908152604080832093909416825291909152205490565b670de0b6b3a764000081565b60068181548110611bdd57600080fd5b6000918252602090912001546001600160a01b0316905081565b600f546001600160a01b031681565b8015611c90576040516323b872dd60e01b81526001600160a01b038316906323b872dd90611c3c90339087908690600401612e27565b602060405180830381600087803b158015611c5657600080fd5b505af1158015611c6a573d6000803e3d6000fd5b505050506040513d601f19601f82011682018060405250810190611c8e9190612acc565b505b600080611cab87610efe6103e8670de0b6b3a764000061372c565b600a54909150611cc4906001600160a01b0316826118cb565b506001600160a01b03851615611cfa57611cec87610efe6103e8670de0b6b3a764000061372c565b9150611cf885836118cb565b505b6000611d068284612207565b9050611d1d611d136108b2565b6104918a84612213565b50856001600160a01b0316336001600160a01b03168a6001600160a01b03167fe1c4fa794edfa8f619b8257a077398950357b9c6398528f94480307352f9afcc8b8b4289604051611d719493929190612fee565b60405180910390a4505050505050505050565b3390565b6001600160a01b038316611dae5760405162461bcd60e51b8152600401610630906134dd565b6001600160a01b038216611dd45760405162461bcd60e51b815260040161063090613182565b6001600160a01b0380841660008181526001602090815260408083209487168084529490915290819020849055517f8c5be1e5ebec7d5bd14f71427d1e84f3dd0314c0f7b2291e5b200ac8c7c3b92590611e2f908590612f30565b60405180910390a3505050565b5190565b60006001600160a01b038716611e685760405162461bcd60e51b8152600401610630906130f4565b6001600160a01b038516611e8e5760405162461bcd60e51b81526004016106309061359c565b85611eab5760405162461bcd60e51b815260040161063090613374565b60098690558851611ec39060079060208c0190612438565b508751611ed79060089060208b0190612438565b50600b80546001600160a01b03199081166001600160a01b038a811691909117909255600f80548216868416179055600a8054600160a01b92169288169290921760ff60a01b1916179055611f2b846122df565b611f3482611fee565b60405146907f8b73c3c69bb8fe3d512ecc4cf759cc79239f7b179b0ffacaa9a75d522b39400f90611f6790600790612d3a565b60408051918290038220828201825260018352603160f81b6020938401529051611fb893927fc89efdaa54c0f20c7adf612882df0950f5a951637e0307cdcb4c672f298b8bc6918691309101612f8c565b60408051808303601f190181529190528051602090910120600d555050600a54600160a01b900460ff1698975050505050505050565b6001600160a01b03811660009081526005602052604090208054610100900460ff161561202d5760405162461bcd60e51b815260040161063090613140565b805461ff001916610100179055600680546001810182556000919091527ff652222313e28459528d920b65115c16c04f3efc82aaedc97be59f3f377c0d3f0180546001600160a01b039092166001600160a01b0319909216919091179055565b6001600160a01b0383166120b35760405162461bcd60e51b815260040161063090613461565b6001600160a01b0382166120d95760405162461bcd60e51b8152600401610630906130b1565b6120e483838361241b565b6001600160a01b0383166000908152602081905260409020548181101561211d5760405162461bcd60e51b815260040161063090613228565b612127828261376b565b6001600160a01b03808616600090815260208190526040808220939093559085168152908120805484929061215d908490613714565b92505081905550826001600160a01b0316846001600160a01b03167fddf252ad1be2c89b69c2b068fc378daa952ba7f163c4a11628f55a4df523b3ef846040516117279190612f30565b6001600160a01b03166000908152600560205260409020805460ff19169055565b6000826121d7575060006105ce565b816121e4575060006105ce565b612200670de0b6b3a76400006121fa8585612420565b9061242c565b9392505050565b60006122008284613714565b6000612200828461376b565b6001600160a01b0382166122455760405162461bcd60e51b815260040161063090613675565b6122516000838361241b565b80600260008282546122639190613714565b90915550506001600160a01b03821660009081526020819052604081208054839290612290908490613714565b90915550506040516001600160a01b038316906000907fddf252ad1be2c89b69c2b068fc378daa952ba7f163c4a11628f55a4df523b3ef906122d3908590612f30565b60405180910390a35050565b6001600160a01b0381166000908152600560205260409020805460ff16156123195760405162461bcd60e51b8152600401610630906131f1565b805460ff191660019081179091556006805491820181556000527ff652222313e28459528d920b65115c16c04f3efc82aaedc97be59f3f377c0d3f0180546001600160a01b039092166001600160a01b0319909216919091179055565b60005b6006548110156123ea57600060056000600684815481106123aa57634e487b7160e01b600052603260045260246000fd5b60009182526020808320909101546001600160a01b031683528201929092526040019020805461ffff1916905550806123e2816137bd565b915050612379565b506123f7600660006124bc565b565b6001600160a01b03166000908152600560205260409020805461ff0019169055565b505050565b6000612200828461374c565b6000612200828461372c565b82805461244490613782565b90600052602060002090601f01602090048101928261246657600085556124ac565b82601f1061247f57805160ff19168380011785556124ac565b828001600101855582156124ac579182015b828111156124ac578251825591602001919060010190612491565b506124b89291506124d6565b5090565b5080546000825590600052602060002090810190610acc91905b5b808211156124b857600081556001016124d7565b60008083601f8401126124fc578182fd5b50813567ffffffffffffffff811115612513578182fd5b602083019150836020808302850101111561252d57600080fd5b9250929050565b600082601f830112612544578081fd5b81356020612559612554836136e4565b6136ba565b8281528181019085830183850287018401881015612575578586fd5b855b8581101561259c57813561258a81613804565b84529284019290840190600101612577565b5090979650505050505050565b600082601f8301126125b9578081fd5b813560206125c9612554836136e4565b82815281810190858301838502870184018810156125e5578586fd5b855b8581101561259c578135845292840192908401906001016125e7565b8051801515811461144657600080fd5b60008083601f840112612624578182fd5b50813567ffffffffffffffff81111561263b578182fd5b60208301915083602082850101111561252d57600080fd5b803560ff8116811461144657600080fd5b600060208284031215612675578081fd5b813561220081613804565b600060208284031215612691578081fd5b815161220081613804565b600080604083850312156126ae578081fd5b82356126b981613804565b915060208301356126c981613804565b809150509250929050565b60008060008060008060c087890312156126ec578182fd5b86356126f781613804565b9550602087013561270781613804565b9450604087013567ffffffffffffffff80821115612723578384fd5b61272f8a838b016125a9565b95506060890135915061274182613804565b90935060808801359080821115612756578384fd5b5061276389828a016125a9565b92505060a087013561277481613804565b809150509295509295509295565b600080600060608486031215612796578283fd5b83356127a181613804565b925060208401356127b181613804565b929592945050506040919091013590565b600080600080600080600060e0888a0312156127dc578081fd5b87356127e781613804565b965060208801356127f781613804565b9550604088013594506060880135935061281360808901612653565b925060a0880135915060c0880135905092959891949750929550565b60008060408385031215612841578182fd5b823561284c81613804565b946020939093013593505050565b60008060008060008060c08789031215612872578384fd5b863561287d81613804565b95506020870135945060408701359350606087013561289b81613804565b925060808701356128ab81613804565b8092505060a087013590509295509295509295565b60008060008060008060c087890312156128d8578384fd5b86356128e381613804565b95506128f160208801612653565b945060408701359350606087013561290881613804565b92506080870135915060a087013561277481613804565b60008060008060008060c08789031215612937578384fd5b863567ffffffffffffffff8082111561294e578586fd5b61295a8a838b01612534565b9750602089013591508082111561296f578586fd5b61297b8a838b016125a9565b96506040890135915080821115612990578586fd5b61299c8a838b016125a9565b955060608901359150808211156129b1578384fd5b6129bd8a838b01612534565b945060808901359150808211156129d2578384fd5b6129de8a838b01612534565b935060a08901359150808211156129f3578283fd5b50612a0089828a016125a9565b9150509295509295509295565b6000806000806000806000806080898b031215612a28578182fd5b883567ffffffffffffffff80821115612a3f578384fd5b612a4b8c838d016124eb565b909a50985060208b0135915080821115612a63578384fd5b612a6f8c838d016124eb565b909850965060408b0135915080821115612a87578384fd5b612a938c838d016124eb565b909650945060608b0135915080821115612aab578384fd5b50612ab88b828c016124eb565b999c989b5096995094979396929594505050565b600060208284031215612add578081fd5b61220082612603565b600060208284031215612af7578081fd5b5051919050565b60008060008060808587031215612b13578182fd5b843593506020850135612b2581613804565b93969395505050506040820135916060013590565b60008060208385031215612b4c578182fd5b823567ffffffffffffffff811115612b62578283fd5b612b6e85828601612613565b90969095509350505050565b6000806000806000806000806000806101008b8d031215612b99578384fd5b8a3567ffffffffffffffff80821115612bb0578586fd5b612bbc8e838f01612613565b909c509a5060208d0135915080821115612bd4578586fd5b50612be18d828e01612613565b90995097505060408b0135612bf581613804565b955060608b0135945060808b0135612c0c81613804565b935060a08b0135612c1c81613804565b925060c08b0135612c2c81613804565b915060e08b0135612c3c81613804565b809150509295989b9194979a5092959850565b600060808284031215612c60578081fd5b6040516080810181811067ffffffffffffffff82111715612c8357612c836137ee565b604052612c8f83612603565b8152612c9d60208401612603565b6020820152612cae60408401612603565b6040820152612cbf60608401612603565b60608201529392505050565b600060208284031215612cdc578081fd5b5035919050565b6000815180845260208085019450808401835b83811015612d1257815187529582019590820190600101612cf6565b509495945050505050565b60609190911b6bffffffffffffffffffffffff1916815260140190565b8154600090819060028104600180831680612d5657607f831692505b6020808410821415612d7657634e487b7160e01b87526022600452602487fd5b818015612d8a5760018114612d9b57612dc7565b60ff19861689528489019650612dc7565b612da48a613708565b885b86811015612dbf5781548b820152908501908301612da6565b505084890196505b509498975050505050505050565b61190160f01b81526002810192909252602282015260420190565b6001600160a01b0391909116815260200190565b6001600160a01b0393841681529183166020830152909116604082015260600190565b6001600160a01b039384168152919092166020820152604081019190915260600190565b6001600160a01b0388811682526000906101009060208085018b855b6002811015612e86578151851683529183019190830190600101612e67565b505050508089166060850152816080850152612ea482850189612ce3565b915080871660a085015283820360c0850152612ec08287612ce3565b925080851660e0850152505098975050505050505050565b6001600160a01b03968716815260ff95909516602086015260408501939093529084166060840152608083015290911660a082015260c00190565b901515815260200190565b91151582521515602082015260400190565b90815260200190565b9283526001600160a01b03918216602084015216604082015260600190565b9586526001600160a01b0394851660208701529290931660408501526060840152608083019190915260a082015260c00190565b9485526020850193909352604084019190915260608301526001600160a01b0316608082015260a00190565b60008482526040602083015282604083015282846060840137818301606090810191909152601f909201601f1916010192915050565b93845260208401929092526040830152606082015260800190565b93845260ff9290921660208401526040830152606082015260800190565b6000602080835283518082850152825b8181101561305357858101830151858201604001528201613037565b818111156130645783604083870101525b50601f01601f1916929092016040019392505050565b6020808252601e908201527f455243323054656d706c6174653a204e4f5420464545204d414e414745520000604082015260600190565b60208082526023908201527f45524332303a207472616e7366657220746f20746865207a65726f206164647260408201526265737360e81b606082015260800190565b6020808252602c908201527f455243323054656d706c6174653a20496e76616c6964206d696e7465722c202060408201526b7a65726f206164647265737360a01b606082015260800190565b60208082526022908201527f4552433230526f6c65733a2020414c5245414459204120464545204d414e414760408201526122a960f11b606082015260800190565b60208082526022908201527f45524332303a20617070726f766520746f20746865207a65726f206164647265604082015261737360f01b606082015260800190565b60208082526013908201527215d493d391c8105494905654c81193d4935055606a1b604082015260600190565b6020808252601d908201527f4552433230526f6c65733a2020414c52454144592041204d494e544552000000604082015260600190565b60208082526026908201527f45524332303a207472616e7366657220616d6f756e7420657863656564732062604082015265616c616e636560d01b606082015260800190565b6020808252601f908201527f455243323054656d706c6174653a204e4f542037323120436f6e747261637400604082015260600190565b60208082526029908201527f44617461546f6b656e54656d706c6174653a206661696c656420746f2066696e60408201526834b9b41037b93232b960b91b606082015260800190565b60208082526031908201527f455243323054656d706c6174653a20746f6b656e20696e7374616e636520616c6040820152701c9958591e481a5b9a5d1a585b1a5e9959607a1b606082015260800190565b6020808252818101527f455243323054656d706c6174653a204e4f54204445504c4f59455220524f4c45604082015260600190565b60208082526024908201527f44617461546f6b656e54656d706c6174653a20496e76616c6964206361702076604082015263616c756560e01b606082015260800190565b60208082526028908201527f45524332303a207472616e7366657220616d6f756e74206578636565647320616040820152676c6c6f77616e636560c01b606082015260800190565b60208082526010908201526f115490cc8c11150e881156141254915160821b604082015260600190565b60208082526019908201527f455243323054656d706c6174653a204e4f54204d494e54455200000000000000604082015260600190565b60208082526025908201527f45524332303a207472616e736665722066726f6d20746865207a65726f206164604082015264647265737360d81b606082015260800190565b6020808252601b908201527f455243323054656d706c6174653a206e6f74204e46544f776e65720000000000604082015260600190565b60208082526024908201527f45524332303a20617070726f76652066726f6d20746865207a65726f206164646040820152637265737360e01b606082015260800190565b6020808252601f908201527f44617461546f6b656e54656d706c6174653a2063617020657863656564656400604082015260600190565b60208082526024908201527f455243323054656d706c6174653a20746f6b656e7320616c7265616479206d696040820152631b9d195960e21b606082015260800190565b6020808252603c908201527f455243323054656d706c6174653a20496e76616c696420636f6d6d756e69747960408201527f2066656520636f6c6c6563746f722c207a65726f206164647265737300000000606082015260800190565b6020808252601a908201527f455243323044543a20494e56414c49445f5349474e4154555245000000000000604082015260600190565b60208082526025908201527f45524332303a2064656372656173656420616c6c6f77616e63652062656c6f77604082015264207a65726f60d81b606082015260800190565b6020808252601f908201527f45524332303a206d696e7420746f20746865207a65726f206164647265737300604082015260600190565b60ff91909116815260200190565b60405181810167ffffffffffffffff811182821017156136dc576136dc6137ee565b604052919050565b600067ffffffffffffffff8211156136fe576136fe6137ee565b5060209081020190565b60009081526020902090565b60008219821115613727576137276137d8565b500190565b60008261374757634e487b7160e01b81526012600452602481fd5b500490565b6000816000190483118215151615613766576137666137d8565b500290565b60008282101561377d5761377d6137d8565b500390565b60028104600182168061379657607f821691505b602082108114156137b757634e487b7160e01b600052602260045260246000fd5b50919050565b60006000198214156137d1576137d16137d8565b5060010190565b634e487b7160e01b600052601160045260246000fd5b634e487b7160e01b600052604160045260246000fd5b6001600160a01b0381168114610acc57600080fdfea26469706673582212207c1f0f41bfe50bf88e7f743fbc291f1bbcfeabc2763eb352da21e3569fe1b5be64736f6c63430008000033",
  "linkReferences": {},
  "deployedLinkReferences": {}
}