{
  "_format": "hh-sol-artifact-1",
  "contractName": "ERC20Template",
  "sourceName": "contracts/templates/ERC20Template.sol",
  "abi": [
    {
      "anonymous": false,
      "inputs": [
        {
          "indexed": true,
          "internalType": "address",
          "name": "owner",
          "type": "address"
        },
        {
          "indexed": true,
          "internalType": "address",
          "name": "spender",
          "type": "address"
        },
        {
          "indexed": false,
          "internalType": "uint256",
          "name": "value",
          "type": "uint256"
        }
      ],
      "name": "Approval",
      "type": "event"
    },
    {
      "anonymous": false,
      "inputs": [
        {
          "indexed": false,
          "internalType": "address",
          "name": "currentMinter",
          "type": "address"
        },
        {
          "indexed": false,
          "internalType": "address",
          "name": "newMinter",
          "type": "address"
        }
      ],
      "name": "MinterApproved",
      "type": "event"
    },
    {
      "anonymous": false,
      "inputs": [
        {
          "indexed": false,
          "internalType": "address",
          "name": "currentMinter",
          "type": "address"
        },
        {
          "indexed": false,
          "internalType": "address",
          "name": "newMinter",
          "type": "address"
        }
      ],
      "name": "MinterProposed",
      "type": "event"
    },
    {
      "anonymous": false,
      "inputs": [
        {
          "indexed": false,
          "internalType": "bytes32",
          "name": "orderTxId",
          "type": "bytes32"
        },
        {
          "indexed": true,
          "internalType": "address",
          "name": "consumer",
          "type": "address"
        },
        {
          "indexed": false,
          "internalType": "uint256",
          "name": "amount",
          "type": "uint256"
        },
        {
          "indexed": false,
          "internalType": "uint256",
          "name": "serviceId",
          "type": "uint256"
        },
        {
          "indexed": true,
          "internalType": "address",
          "name": "provider",
          "type": "address"
        },
        {
          "indexed": false,
          "internalType": "uint256",
          "name": "timestamp",
          "type": "uint256"
        }
      ],
      "name": "OrderFinished",
      "type": "event"
    },
    {
      "anonymous": false,
      "inputs": [
        {
          "indexed": true,
          "internalType": "address",
          "name": "consumer",
          "type": "address"
        },
        {
          "indexed": true,
          "internalType": "address",
          "name": "payer",
          "type": "address"
        },
        {
          "indexed": false,
          "internalType": "uint256",
          "name": "amount",
          "type": "uint256"
        },
        {
          "indexed": false,
          "internalType": "uint256",
          "name": "serviceId",
          "type": "uint256"
        },
        {
          "indexed": false,
          "internalType": "uint256",
          "name": "timestamp",
          "type": "uint256"
        },
        {
          "indexed": true,
          "internalType": "address",
          "name": "mrktFeeCollector",
          "type": "address"
        },
        {
          "indexed": false,
          "internalType": "uint256",
          "name": "marketFee",
          "type": "uint256"
        }
      ],
      "name": "OrderStarted",
      "type": "event"
    },
    {
      "anonymous": false,
      "inputs": [
        {
          "indexed": true,
          "internalType": "address",
          "name": "from",
          "type": "address"
        },
        {
          "indexed": true,
          "internalType": "address",
          "name": "to",
          "type": "address"
        },
        {
          "indexed": false,
          "internalType": "uint256",
          "name": "value",
          "type": "uint256"
        }
      ],
      "name": "Transfer",
      "type": "event"
    },
    {
      "inputs": [],
      "name": "BASE",
      "outputs": [
        {
          "internalType": "uint256",
          "name": "",
          "type": "uint256"
        }
      ],
      "stateMutability": "view",
      "type": "function"
    },
    {
      "inputs": [],
      "name": "BASE_COMMUNITY_FEE_PERCENTAGE",
      "outputs": [
        {
          "internalType": "uint256",
          "name": "",
          "type": "uint256"
        }
      ],
      "stateMutability": "view",
      "type": "function"
    },
    {
      "inputs": [],
      "name": "BASE_MARKET_FEE_PERCENTAGE",
      "outputs": [
        {
          "internalType": "uint256",
          "name": "",
          "type": "uint256"
        }
      ],
      "stateMutability": "view",
      "type": "function"
    },
    {
      "inputs": [],
      "name": "DOMAIN_SEPARATOR",
      "outputs": [
        {
          "internalType": "bytes32",
          "name": "",
          "type": "bytes32"
        }
      ],
      "stateMutability": "view",
      "type": "function"
    },
    {
      "inputs": [],
      "name": "PERMIT_TYPEHASH",
      "outputs": [
        {
          "internalType": "bytes32",
          "name": "",
          "type": "bytes32"
        }
      ],
      "stateMutability": "view",
      "type": "function"
    },
    {
      "inputs": [
        {
          "internalType": "address",
          "name": "_feeManager",
          "type": "address"
        }
      ],
      "name": "addFeeManager",
      "outputs": [],
      "stateMutability": "nonpayable",
      "type": "function"
    },
    {
      "inputs": [
        {
          "internalType": "address",
          "name": "owner",
          "type": "address"
        },
        {
          "internalType": "address",
          "name": "spender",
          "type": "address"
        }
      ],
      "name": "allowance",
      "outputs": [
        {
          "internalType": "uint256",
          "name": "",
          "type": "uint256"
        }
      ],
      "stateMutability": "view",
      "type": "function"
    },
    {
      "inputs": [
        {
          "internalType": "address",
          "name": "spender",
          "type": "address"
        },
        {
          "internalType": "uint256",
          "name": "amount",
          "type": "uint256"
        }
      ],
      "name": "approve",
      "outputs": [
        {
          "internalType": "bool",
          "name": "",
          "type": "bool"
        }
      ],
      "stateMutability": "nonpayable",
      "type": "function"
    },
    {
      "inputs": [
        {
          "internalType": "uint256",
          "name": "",
          "type": "uint256"
        }
      ],
      "name": "authERC20",
      "outputs": [
        {
          "internalType": "address",
          "name": "",
          "type": "address"
        }
      ],
      "stateMutability": "view",
      "type": "function"
    },
    {
      "inputs": [
        {
          "internalType": "address",
          "name": "account",
          "type": "address"
        }
      ],
      "name": "balanceOf",
      "outputs": [
        {
          "internalType": "uint256",
          "name": "",
          "type": "uint256"
        }
      ],
      "stateMutability": "view",
      "type": "function"
    },
    {
      "inputs": [],
      "name": "cap",
      "outputs": [
        {
          "internalType": "uint256",
          "name": "",
          "type": "uint256"
        }
      ],
      "stateMutability": "view",
      "type": "function"
    },
    {
      "inputs": [],
      "name": "cleanFrom721",
      "outputs": [],
      "stateMutability": "nonpayable",
      "type": "function"
    },
    {
      "inputs": [],
      "name": "cleanPermissions",
      "outputs": [],
      "stateMutability": "nonpayable",
      "type": "function"
    },
    {
      "inputs": [],
      "name": "decimals",
      "outputs": [
        {
          "internalType": "uint8",
          "name": "",
          "type": "uint8"
        }
      ],
      "stateMutability": "pure",
      "type": "function"
    },
    {
      "inputs": [
        {
          "internalType": "address",
          "name": "spender",
          "type": "address"
        },
        {
          "internalType": "uint256",
          "name": "subtractedValue",
          "type": "uint256"
        }
      ],
      "name": "decreaseAllowance",
      "outputs": [
        {
          "internalType": "bool",
          "name": "",
          "type": "bool"
        }
      ],
      "stateMutability": "nonpayable",
      "type": "function"
    },
    {
      "inputs": [
        {
          "internalType": "address",
          "name": "controller",
          "type": "address"
        },
        {
          "internalType": "address",
          "name": "basetokenAddress",
          "type": "address"
        },
        {
          "internalType": "uint256",
          "name": "burnInEndBlock",
          "type": "uint256"
        },
        {
          "internalType": "uint256[]",
          "name": "ssParams",
          "type": "uint256[]"
        }
      ],
      "name": "deployPool",
      "outputs": [],
      "stateMutability": "nonpayable",
      "type": "function"
    },
    {
      "inputs": [
        {
          "internalType": "bytes32[]",
          "name": "orderTxIds",
          "type": "bytes32[]"
        },
        {
          "internalType": "address[]",
          "name": "consumers",
          "type": "address[]"
        },
        {
          "internalType": "uint256[]",
          "name": "amounts",
          "type": "uint256[]"
        },
        {
          "internalType": "uint256[]",
          "name": "serviceIds",
          "type": "uint256[]"
        }
      ],
      "name": "finishMultipleOrder",
      "outputs": [],
      "stateMutability": "nonpayable",
      "type": "function"
    },
    {
      "inputs": [
        {
          "internalType": "bytes32",
          "name": "orderTxId",
          "type": "bytes32"
        },
        {
          "internalType": "address",
          "name": "consumer",
          "type": "address"
        },
        {
          "internalType": "uint256",
          "name": "amount",
          "type": "uint256"
        },
        {
          "internalType": "uint256",
          "name": "serviceId",
          "type": "uint256"
        }
      ],
      "name": "finishOrder",
      "outputs": [],
      "stateMutability": "nonpayable",
      "type": "function"
    },
    {
      "inputs": [],
      "name": "getFeeCollector",
      "outputs": [
        {
          "internalType": "address",
          "name": "",
          "type": "address"
        }
      ],
      "stateMutability": "view",
      "type": "function"
    },
    {
      "inputs": [],
      "name": "getId",
      "outputs": [
        {
          "internalType": "uint8",
          "name": "",
          "type": "uint8"
        }
      ],
      "stateMutability": "pure",
      "type": "function"
    },
    {
      "inputs": [
        {
          "internalType": "address",
          "name": "spender",
          "type": "address"
        },
        {
          "internalType": "uint256",
          "name": "addedValue",
          "type": "uint256"
        }
      ],
      "name": "increaseAllowance",
      "outputs": [
        {
          "internalType": "bool",
          "name": "",
          "type": "bool"
        }
      ],
      "stateMutability": "nonpayable",
      "type": "function"
    },
    {
      "inputs": [
        {
          "internalType": "string",
          "name": "name_",
          "type": "string"
        },
        {
          "internalType": "string",
          "name": "symbol_",
          "type": "string"
        },
        {
          "internalType": "address",
          "name": "erc721Address",
          "type": "address"
        },
        {
          "internalType": "uint256",
          "name": "cap_",
          "type": "uint256"
        },
        {
          "internalType": "address",
          "name": "communityFeeCollector",
          "type": "address"
        },
        {
          "internalType": "address",
          "name": "minter",
          "type": "address"
        },
        {
          "internalType": "address",
          "name": "router_",
          "type": "address"
        }
      ],
      "name": "initialize",
      "outputs": [
        {
          "internalType": "bool",
          "name": "",
          "type": "bool"
        }
      ],
      "stateMutability": "nonpayable",
      "type": "function"
    },
    {
      "inputs": [],
      "name": "isInitialized",
      "outputs": [
        {
          "internalType": "bool",
          "name": "",
          "type": "bool"
        }
      ],
      "stateMutability": "view",
      "type": "function"
    },
    {
      "inputs": [
        {
          "internalType": "address",
          "name": "account",
          "type": "address"
        },
        {
          "internalType": "uint256",
          "name": "value",
          "type": "uint256"
        }
      ],
      "name": "mint",
      "outputs": [],
      "stateMutability": "nonpayable",
      "type": "function"
    },
    {
      "inputs": [],
      "name": "name",
      "outputs": [
        {
          "internalType": "string",
          "name": "",
          "type": "string"
        }
      ],
      "stateMutability": "view",
      "type": "function"
    },
    {
      "inputs": [
        {
          "internalType": "address",
          "name": "",
          "type": "address"
        }
      ],
      "name": "nonces",
      "outputs": [
        {
          "internalType": "uint256",
          "name": "",
          "type": "uint256"
        }
      ],
      "stateMutability": "view",
      "type": "function"
    },
    {
      "inputs": [
        {
          "internalType": "address",
          "name": "",
          "type": "address"
        }
      ],
      "name": "permissions",
      "outputs": [
        {
          "internalType": "bool",
          "name": "minter",
          "type": "bool"
        },
        {
          "internalType": "bool",
          "name": "feeManager",
          "type": "bool"
        }
      ],
      "stateMutability": "view",
      "type": "function"
    },
    {
      "inputs": [
        {
          "internalType": "address",
          "name": "owner",
          "type": "address"
        },
        {
          "internalType": "address",
          "name": "spender",
          "type": "address"
        },
        {
          "internalType": "uint256",
          "name": "value",
          "type": "uint256"
        },
        {
          "internalType": "uint256",
          "name": "deadline",
          "type": "uint256"
        },
        {
          "internalType": "uint8",
          "name": "v",
          "type": "uint8"
        },
        {
          "internalType": "bytes32",
          "name": "r",
          "type": "bytes32"
        },
        {
          "internalType": "bytes32",
          "name": "s",
          "type": "bytes32"
        }
      ],
      "name": "permit",
      "outputs": [],
      "stateMutability": "nonpayable",
      "type": "function"
    },
    {
      "inputs": [
        {
          "internalType": "address",
          "name": "_feeManager",
          "type": "address"
        }
      ],
      "name": "removeFeeManager",
      "outputs": [],
      "stateMutability": "nonpayable",
      "type": "function"
    },
    {
      "inputs": [],
      "name": "router",
      "outputs": [
        {
          "internalType": "address",
          "name": "",
          "type": "address"
        }
      ],
      "stateMutability": "view",
      "type": "function"
    },
    {
      "inputs": [
        {
          "internalType": "bytes",
          "name": "_value",
          "type": "bytes"
        }
      ],
      "name": "setData",
      "outputs": [],
      "stateMutability": "nonpayable",
      "type": "function"
    },
    {
      "inputs": [
        {
          "internalType": "address",
          "name": "_newFeeCollector",
          "type": "address"
        }
      ],
      "name": "setFeeCollector",
      "outputs": [],
      "stateMutability": "nonpayable",
      "type": "function"
    },
    {
      "inputs": [
        {
          "internalType": "address[]",
          "name": "consumers",
          "type": "address[]"
        },
        {
          "internalType": "uint256[]",
          "name": "amounts",
          "type": "uint256[]"
        },
        {
          "internalType": "uint256[]",
          "name": "serviceIds",
          "type": "uint256[]"
        },
        {
          "internalType": "address[]",
          "name": "mrktFeeCollectors",
          "type": "address[]"
        },
        {
          "internalType": "address[]",
          "name": "feeTokens",
          "type": "address[]"
        },
        {
          "internalType": "uint256[]",
          "name": "feeAmounts",
          "type": "uint256[]"
        }
      ],
      "name": "startMultipleOrder",
      "outputs": [],
      "stateMutability": "nonpayable",
      "type": "function"
    },
    {
      "inputs": [
        {
          "internalType": "address",
          "name": "consumer",
          "type": "address"
        },
        {
          "internalType": "uint256",
          "name": "amount",
          "type": "uint256"
        },
        {
          "internalType": "uint256",
          "name": "serviceId",
          "type": "uint256"
        },
        {
          "internalType": "address",
          "name": "mrktFeeCollector",
          "type": "address"
        },
        {
          "internalType": "address",
          "name": "feeToken",
          "type": "address"
        },
        {
          "internalType": "uint256",
          "name": "feeAmount",
          "type": "uint256"
        }
      ],
      "name": "startOrder",
      "outputs": [],
      "stateMutability": "nonpayable",
      "type": "function"
    },
    {
      "inputs": [],
      "name": "symbol",
      "outputs": [
        {
          "internalType": "string",
          "name": "",
          "type": "string"
        }
      ],
      "stateMutability": "view",
      "type": "function"
    },
    {
      "inputs": [],
      "name": "totalSupply",
      "outputs": [
        {
          "internalType": "uint256",
          "name": "",
          "type": "uint256"
        }
      ],
      "stateMutability": "view",
      "type": "function"
    },
    {
      "inputs": [
        {
          "internalType": "address",
          "name": "recipient",
          "type": "address"
        },
        {
          "internalType": "uint256",
          "name": "amount",
          "type": "uint256"
        }
      ],
      "name": "transfer",
      "outputs": [
        {
          "internalType": "bool",
          "name": "",
          "type": "bool"
        }
      ],
      "stateMutability": "nonpayable",
      "type": "function"
    },
    {
      "inputs": [
        {
          "internalType": "address",
          "name": "sender",
          "type": "address"
        },
        {
          "internalType": "address",
          "name": "recipient",
          "type": "address"
        },
        {
          "internalType": "uint256",
          "name": "amount",
          "type": "uint256"
        }
      ],
      "name": "transferFrom",
      "outputs": [
        {
          "internalType": "bool",
          "name": "",
          "type": "bool"
        }
      ],
      "stateMutability": "nonpayable",
      "type": "function"
    }
  ],
  "bytecode": "0x6080604052600a805460ff60a01b191690553480156200001e57600080fd5b5060408051808201825260048152631d195cdd60e21b60208083019182528351808501909452600a8452691d195cdd14de5b589bdb60b21b9084015281519192916200006d916003916200008c565b508051620000839060049060208401906200008c565b5050506200016f565b8280546200009a9062000132565b90600052602060002090601f016020900481019282620000be576000855562000109565b82601f10620000d957805160ff191683800117855562000109565b8280016001018555821562000109579182015b8281111562000109578251825591602001919060010190620000ec565b50620001179291506200011b565b5090565b5b808211156200011757600081556001016200011c565b6002810460018216806200014757607f821691505b602082108114156200016957634e487b7160e01b600052602260045260246000fd5b50919050565b61341b806200017f6000396000f3fe608060405234801561001057600080fd5b50600436106102325760003560e01c80635d1ca63111610130578063a9059cbb116100b8578063e995e7351161007c578063e995e73514610462578063ec342ad014610475578063ef867ff41461047d578063f887ea4014610490578063fda9dae71461049857610232565b8063a9059cbb14610416578063ab62f0e114610429578063b2263a5d1461030e578063d505accf1461043c578063dd62ed3e1461044f57610232565b806382c03da5116100ff57806382c03da5146103cd5780638ca0c059146103d557806395d89b41146103e8578063a42dce80146103f0578063a457c2d71461040357610232565b80635d1ca6311461038c57806370a08231146103945780637ecebe00146103a75780638115c9cc146103ba57610232565b8063294541c7116101be578063392e53cd11610182578063392e53cd14610343578063395093511461034b5780633ed42b6d1461035e57806340c10f19146103715780634f189cb21461038457610232565b8063294541c71461030e57806330adf81f14610316578063313ce5671461031e578063355274ea146103335780633644e5151461033b57610232565b80630e744e2e116102055780630e744e2e146102ab57806312fde4b7146102be57806318160ddd146102d35780631f2d32c3146102e857806323b872dd146102fb57610232565b806301e882081461023757806306fdde0314610261578063095ea7b3146102765780630dd9adbc14610296575b600080fd5b61024a610245366004612387565b6104ab565b604051610258929190612b49565b60405180910390f35b6102696104c9565b6040516102589190612c33565b610289610284366004612516565b61055c565b6040516102589190612b3e565b6102a96102a4366004612437565b61057a565b005b6102a96102b9366004612695565b610731565b6102c6610a06565b6040516102589190612a5d565b6102db610ab3565b6040516102589190612b5b565b6102a96102f6366004612387565b610ab9565b6102896103093660046123f7565b610b73565b6102db610c0a565b6102db610c21565b610326610c45565b6040516102589190613278565b6102db610c4a565b6102db610c50565b610289610c56565b610289610359366004612516565b610c66565b6102a961036c3660046125a7565b610cb5565b6102a961037f366004612516565b611115565b6102a96111ac565b610326611277565b6102db6103a2366004612387565b61127c565b6102db6103b5366004612387565b61129b565b6102a96103c8366004612387565b6112ad565b6102a9611363565b6102a96103e336600461276e565b61138d565b610269611410565b6102a96103fe366004612387565b61141f565b610289610411366004612516565b611495565b610289610424366004612516565b611510565b6102a96104373660046127aa565b611524565b6102a961044a3660046124a1565b61165d565b6102db61045d3660046123bf565b6117d8565b6102896104703660046127ea565b611803565b6102db6118b8565b6102c661048b366004612927565b6118c4565b6102c66118ee565b6102a96104a6366004612541565b6118fd565b60056020526000908152604090205460ff8082169161010090041682565b6060600780546104d89061334e565b80601f01602080910402602001604051908101604052809291908181526020018280546105049061334e565b80156105515780601f1061052657610100808354040283529160200191610551565b820191906000526020600020905b81548152906001019060200180831161053457829003601f168201915b505050505090505b90565b6000610570610569611a7b565b8484611a7f565b5060015b92915050565b600b54604051639e26811960e01b81526000916001600160a01b031690639e268119906105ab903390600401612a5d565b608060405180830381600087803b1580156105c557600080fd5b505af11580156105d9573d6000803e3d6000fd5b505050506040513d601f19601f820116820180604052508101906105fd91906128ab565b90508060200151151560011515146106305760405162461bcd60e51b815260040161062790612f0b565b60405180910390fd5b610638610ab3565b156106555760405162461bcd60e51b815260040161062790613124565b61065e85611b33565b600f5460408051808201909152600e81526d726f75746572206164647265737360901b6020820152610699916001600160a01b031690611bca565b600f54600b546040516361d48a9760e11b81526001600160a01b039283169263c3a9152e926106d7928a9230928b929116908a908a90600401612a71565b602060405180830381600087803b1580156106f157600080fd5b505af1158015610705573d6000803e3d6000fd5b505050506040513d601f19601f8201168201806040525081019061072991906123a3565b505050505050565b6040805160208088028281018201909352878252839283926107709290918b918b918291850190849080828437600092019190915250611c0f92505050565b1461078d5760405162461bcd60e51b815260040161062790612d90565b806107ca868680806020026020016040519081016040528093929190818152602001838360200280828437600092019190915250611c0f92505050565b146107e75760405162461bcd60e51b815260040161062790612d90565b806108248a8a80806020026020016040519081016040528093929190818152602001838360200280828437600092019190915250611c0f92505050565b146108415760405162461bcd60e51b815260040161062790612d90565b60005b818110156109fa5785858281811061086c57634e487b7160e01b600052603260045260246000fd5b905060200201356000146108fa576108de88888381811061089d57634e487b7160e01b600052603260045260246000fd5b90506020020160208101906108b29190612387565b8787848181106108d257634e487b7160e01b600052603260045260246000fd5b90506020020135611510565b6108fa5760405162461bcd60e51b815260040161062790612e71565b3388888381811061091b57634e487b7160e01b600052603260045260246000fd5b90506020020160208101906109309190612387565b6001600160a01b03167f46872661d5d7765097d3a97ca99b7cbfa68b54b6d51904168974901ee607a26d8c8c8581811061097a57634e487b7160e01b600052603260045260246000fd5b905060200201358989868181106109a157634e487b7160e01b600052603260045260246000fd5b905060200201358888878181106109c857634e487b7160e01b600052603260045260246000fd5b90506020020135426040516109e09493929190612bfa565b60405180910390a3806109f281613389565b915050610844565b50505050505050505050565b600c546000906001600160a01b0316610aa157600b546040516331a9108f60e11b81526001600160a01b0390911690636352211e90610a4a90600190600401612b5b565b60206040518083038186803b158015610a6257600080fd5b505afa158015610a76573d6000803e3d6000fd5b505050506040513d601f19601f82011682018060405250810190610a9a91906123a3565b9050610559565b50600c546001600160a01b0316610559565b60025490565b600b54604051639e26811960e01b81526000916001600160a01b031690639e26811990610aea903390600401612a5d565b608060405180830381600087803b158015610b0457600080fd5b505af1158015610b18573d6000803e3d6000fd5b505050506040513d601f19601f82011682018060405250810190610b3c91906128ab565b9050806020015115156001151514610b665760405162461bcd60e51b815260040161062790612f0b565b610b6f82611c13565b5050565b6000610b80848484611cb2565b6001600160a01b038416600090815260016020526040812081610ba1611a7b565b6001600160a01b03166001600160a01b0316815260200190815260200160002054905082811015610be45760405162461bcd60e51b815260040161062790612f84565b610bff85610bf0611a7b565b610bfa8685613337565b611a7f565b506001949350505050565b610c1e6103e8670de0b6b3a76400006132f8565b81565b7f6e71edae12b1b97f4d1f60370fef10105fa2faae0126114a169c64845d6126c981565b601290565b60095490565b600d5481565b600a54600160a01b900460ff1690565b6000610570610c73611a7b565b848460016000610c81611a7b565b6001600160a01b03908116825260208083019390935260409182016000908120918b1681529252902054610bfa91906132e0565b835180610cc188611c0f565b14610cde5760405162461bcd60e51b815260040161062790612d90565b80610ce887611c0f565b14610d055760405162461bcd60e51b815260040161062790612d90565b80610d0f85611c0f565b14610d2c5760405162461bcd60e51b815260040161062790612d90565b80610d3683611c0f565b14610d535760405162461bcd60e51b815260040161062790612d90565b80610d5d84611c0f565b14610d7a5760405162461bcd60e51b815260040161062790612d90565b60005b8181101561110b576000838281518110610da757634e487b7160e01b600052603260045260246000fd5b60200260200101511115610eae57838181518110610dd557634e487b7160e01b600052603260045260246000fd5b60200260200101516001600160a01b03166323b872dd33878481518110610e0c57634e487b7160e01b600052603260045260246000fd5b6020026020010151868581518110610e3457634e487b7160e01b600052603260045260246000fd5b60200260200101516040518463ffffffff1660e01b8152600401610e5a93929190612aee565b602060405180830381600087803b158015610e7457600080fd5b505af1158015610e88573d6000803e3d6000fd5b505050506040513d601f19601f82011682018060405250810190610eac9190612754565b505b600080610ef7898481518110610ed457634e487b7160e01b600052603260045260246000fd5b60200260200101516103e8670de0b6b3a7640000610ef291906132f8565b611dcc565b600a54909150610f10906001600160a01b031682611510565b5060006001600160a01b0316878481518110610f3c57634e487b7160e01b600052603260045260246000fd5b60200260200101516001600160a01b031614610faa57610f75898481518110610ed457634e487b7160e01b600052603260045260246000fd5b9150610fa8878481518110610f9a57634e487b7160e01b600052603260045260246000fd5b602002602001015183611510565b505b6000610fb68284611e0b565b9050610ffd610fc3610a06565b610424838d8881518110610fe757634e487b7160e01b600052603260045260246000fd5b6020026020010151611e1790919063ffffffff16565b5087848151811061101e57634e487b7160e01b600052603260045260246000fd5b60200260200101516001600160a01b0316336001600160a01b03168c868151811061105957634e487b7160e01b600052603260045260246000fd5b60200260200101516001600160a01b03167fe1c4fa794edfa8f619b8257a077398950357b9c6398528f94480307352f9afcc8d88815181106110ab57634e487b7160e01b600052603260045260246000fd5b60200260200101518d89815181106110d357634e487b7160e01b600052603260045260246000fd5b602002602001015142896040516110ed9493929190612bfa565b60405180910390a4505050808061110390613389565b915050610d7d565b5050505050505050565b3360009081526005602090815260409182902082518084019093525460ff80821615158085526101009092041615159183019190915260011461116a5760405162461bcd60e51b815260040161062790612ff6565b60095461117f83611179610ab3565b90611e0b565b111561119d5760405162461bcd60e51b8152600401610627906130ed565b6111a78383611e23565b505050565b600b546040516331a9108f60e11b81526001600160a01b0390911690636352211e906111dd90600190600401612b5b565b60206040518083038186803b1580156111f557600080fd5b505afa158015611209573d6000803e3d6000fd5b505050506040513d601f19601f8201168201806040525081019061122d91906123a3565b6001600160a01b0316336001600160a01b03161461125d5760405162461bcd60e51b815260040161062790613072565b611265611ee3565b600c80546001600160a01b0319169055565b600190565b6001600160a01b0381166000908152602081905260409020545b919050565b600e6020526000908152604090205481565b600b54604051639e26811960e01b81526000916001600160a01b031690639e268119906112de903390600401612a5d565b608060405180830381600087803b1580156112f857600080fd5b505af115801561130c573d6000803e3d6000fd5b505050506040513d601f19601f8201168201806040525081019061133091906128ab565b905080602001511515600115151461135a5760405162461bcd60e51b815260040161062790612f0b565b610b6f82611f66565b600b546001600160a01b0316331461125d5760405162461bcd60e51b815260040161062790612e3a565b81156113b95761139d8383611510565b6113b95760405162461bcd60e51b815260040161062790612e71565b336001600160a01b0316836001600160a01b03167f46872661d5d7765097d3a97ca99b7cbfa68b54b6d51904168974901ee607a26d868585426040516114029493929190612bfa565b60405180910390a350505050565b6060600880546104d89061334e565b3360009081526005602090815260409182902082518084019093525460ff808216151584526101009091041615159082018190526001146114725760405162461bcd60e51b815260040161062790612c46565b50600c80546001600160a01b0319166001600160a01b0392909216919091179055565b600080600160006114a4611a7b565b6001600160a01b03908116825260208083019390935260409182016000908120918816815292529020549050828110156114f05760405162461bcd60e51b8152600401610627906131fc565b6115066114fb611a7b565b85610bfa8685613337565b5060019392505050565b600061057061151d611a7b565b8484611cb2565b600b54604051639e26811960e01b81526000916001600160a01b031690639e26811990611555903390600401612a5d565b608060405180830381600087803b15801561156f57600080fd5b505af1158015611583573d6000803e3d6000fd5b505050506040513d601f19601f820116820180604052508101906115a791906128ab565b90508060200151151560011515146115d15760405162461bcd60e51b815260040161062790612f0b565b6000306040516020016115e4919061298a565b60408051601f19818403018152908290528051602090910120600b546301caf8fd60e31b83529092506001600160a01b031690630e57c7e89061162f90849088908890600401612bc4565b600060405180830381600087803b15801561164957600080fd5b505af115801561110b573d6000803e3d6000fd5b4284101561167d5760405162461bcd60e51b815260040161062790612fcc565b600d546001600160a01b0388166000908152600e6020526040812080549192917f6e71edae12b1b97f4d1f60370fef10105fa2faae0126114a169c64845d6126c9918b918b918b9190876116d083613389565b919050558a6040516020016116ea96959493929190612b64565b60405160208183030381529060405280519060200120604051602001611711929190612a42565b60405160208183030381529060405280519060200120905060006001828686866040516000815260200160405260405161174e9493929190612c15565b6020604051602081039080840390855afa158015611770573d6000803e3d6000fd5b5050604051601f1901519150506001600160a01b038116158015906117a65750886001600160a01b0316816001600160a01b0316145b6117c25760405162461bcd60e51b8152600401610627906131c5565b6117cd898989611a7f565b505050505050505050565b6001600160a01b03918216600090815260016020908152604080832093909416825291909152205490565b600a54600090600160a01b900460ff16156118305760405162461bcd60e51b815260040161062790612eba565b6118aa8a8a8080601f01602080910402602001604051908101604052809392919081815260200183838082843760009201919091525050604080516020601f8e018190048102820181019092528c815292508c91508b90819084018382808284376000920191909152508b92508a91508990508888611f88565b9a9950505050505050505050565b670de0b6b3a764000081565b600681815481106118d457600080fd5b6000918252602090912001546001600160a01b0316905081565b600f546001600160a01b031681565b8015611987576040516323b872dd60e01b81526001600160a01b038316906323b872dd9061193390339087908690600401612aee565b602060405180830381600087803b15801561194d57600080fd5b505af1158015611961573d6000803e3d6000fd5b505050506040513d601f19601f820116820180604052508101906119859190612754565b505b6000806119a287610ef26103e8670de0b6b3a76400006132f8565b600a549091506119bb906001600160a01b031682611510565b506001600160a01b038516156119f1576119e387610ef26103e8670de0b6b3a76400006132f8565b91506119ef8583611510565b505b60006119fd8284611e0b565b9050611a14611a0a610a06565b6104248a84611e17565b50856001600160a01b0316336001600160a01b03168a6001600160a01b03167fe1c4fa794edfa8f619b8257a077398950357b9c6398528f94480307352f9afcc8b8b4289604051611a689493929190612bfa565b60405180910390a4505050505050505050565b3390565b6001600160a01b038316611aa55760405162461bcd60e51b8152600401610627906130a9565b6001600160a01b038216611acb5760405162461bcd60e51b815260040161062790612d4e565b6001600160a01b0380841660008181526001602090815260408083209487168084529490915290819020849055517f8c5be1e5ebec7d5bd14f71427d1e84f3dd0314c0f7b2291e5b200ac8c7c3b92590611b26908590612b5b565b60405180910390a3505050565b6001600160a01b0381166000908152600560205260409020805460ff1615611b6d5760405162461bcd60e51b815260040161062790612dbd565b805460ff191660019081179091556006805491820181556000527ff652222313e28459528d920b65115c16c04f3efc82aaedc97be59f3f377c0d3f0180546001600160a01b039092166001600160a01b0319909216919091179055565b610b6f8282604051602401611be0929190612b12565b60408051601f198184030181529190526020810180516001600160e01b031663759f86bb60e01b17905261212c565b5190565b6001600160a01b03811660009081526005602052604090208054610100900460ff1615611c525760405162461bcd60e51b815260040161062790612d0c565b805461ff001916610100179055600680546001810182556000919091527ff652222313e28459528d920b65115c16c04f3efc82aaedc97be59f3f377c0d3f0180546001600160a01b039092166001600160a01b0319909216919091179055565b6001600160a01b038316611cd85760405162461bcd60e51b81526004016106279061302d565b6001600160a01b038216611cfe5760405162461bcd60e51b815260040161062790612c7d565b611d098383836111a7565b6001600160a01b03831660009081526020819052604090205481811015611d425760405162461bcd60e51b815260040161062790612df4565b611d4c8282613337565b6001600160a01b038086166000908152602081905260408082209390935590851681529081208054849290611d829084906132e0565b92505081905550826001600160a01b0316846001600160a01b03167fddf252ad1be2c89b69c2b068fc378daa952ba7f163c4a11628f55a4df523b3ef846040516114029190612b5b565b600082611ddb57506000610574565b81611de857506000610574565b611e04670de0b6b3a7640000611dfe858561214d565b90612159565b9392505050565b6000611e0482846132e0565b6000611e048284613337565b6001600160a01b038216611e495760405162461bcd60e51b815260040161062790613241565b611e55600083836111a7565b8060026000828254611e6791906132e0565b90915550506001600160a01b03821660009081526020819052604081208054839290611e949084906132e0565b90915550506040516001600160a01b038316906000907fddf252ad1be2c89b69c2b068fc378daa952ba7f163c4a11628f55a4df523b3ef90611ed7908590612b5b565b60405180910390a35050565b60005b600654811015611f575760006005600060068481548110611f1757634e487b7160e01b600052603260045260246000fd5b60009182526020808320909101546001600160a01b031683528201929092526040019020805461ffff191690555080611f4f81613389565b915050611ee6565b50611f6460066000612165565b565b6001600160a01b03166000908152600560205260409020805461ff0019169055565b60006001600160a01b038616611fb05760405162461bcd60e51b815260040161062790612cc0565b6001600160a01b038416611fd65760405162461bcd60e51b815260040161062790613168565b84611ff35760405162461bcd60e51b815260040161062790612f40565b6009859055875161200b9060079060208b0190612186565b50865161201f9060089060208a0190612186565b50600b80546001600160a01b03199081166001600160a01b0389811691909117909255600f80548216858416179055600a8054600160a01b92169287169290921760ff60a01b191617905561207383611b33565b60405146907f8b73c3c69bb8fe3d512ecc4cf759cc79239f7b179b0ffacaa9a75d522b39400f906120a6906007906129a7565b60408051918290038220828201825260018352603160f81b60209384015290516120f793927fc89efdaa54c0f20c7adf612882df0950f5a951637e0307cdcb4c672f298b8bc6918691309101612b98565b60408051808303601f190181529190528051602090910120600d555050600a54600160a01b900460ff16979650505050505050565b80516a636f6e736f6c652e6c6f67602083016000808483855afa5050505050565b6000611e048284613318565b6000611e0482846132f8565b5080546000825590600052602060002090810190612183919061220a565b50565b8280546121929061334e565b90600052602060002090601f0160209004810192826121b457600085556121fa565b82601f106121cd57805160ff19168380011785556121fa565b828001600101855582156121fa579182015b828111156121fa5782518255916020019190600101906121df565b5061220692915061220a565b5090565b5b80821115612206576000815560010161220b565b60008083601f840112612230578182fd5b50813567ffffffffffffffff811115612247578182fd5b602083019150836020808302850101111561226157600080fd5b9250929050565b600082601f830112612278578081fd5b8135602061228d612288836132b0565b613286565b82815281810190858301838502870184018810156122a9578586fd5b855b858110156122d05781356122be816133d0565b845292840192908401906001016122ab565b5090979650505050505050565b600082601f8301126122ed578081fd5b813560206122fd612288836132b0565b8281528181019085830183850287018401881015612319578586fd5b855b858110156122d05781358452928401929084019060010161231b565b8051801515811461129657600080fd5b60008083601f840112612358578182fd5b50813567ffffffffffffffff81111561236f578182fd5b60208301915083602082850101111561226157600080fd5b600060208284031215612398578081fd5b8135611e04816133d0565b6000602082840312156123b4578081fd5b8151611e04816133d0565b600080604083850312156123d1578081fd5b82356123dc816133d0565b915060208301356123ec816133d0565b809150509250929050565b60008060006060848603121561240b578081fd5b8335612416816133d0565b92506020840135612426816133d0565b929592945050506040919091013590565b6000806000806080858703121561244c578081fd5b8435612457816133d0565b93506020850135612467816133d0565b925060408501359150606085013567ffffffffffffffff811115612489578182fd5b612495878288016122dd565b91505092959194509250565b600080600080600080600060e0888a0312156124bb578283fd5b87356124c6816133d0565b965060208801356124d6816133d0565b95506040880135945060608801359350608088013560ff811681146124f9578384fd5b9699959850939692959460a0840135945060c09093013592915050565b60008060408385031215612528578182fd5b8235612533816133d0565b946020939093013593505050565b60008060008060008060c08789031215612559578384fd5b8635612564816133d0565b955060208701359450604087013593506060870135612582816133d0565b92506080870135612592816133d0565b8092505060a087013590509295509295509295565b60008060008060008060c087890312156125bf578384fd5b863567ffffffffffffffff808211156125d6578586fd5b6125e28a838b01612268565b975060208901359150808211156125f7578586fd5b6126038a838b016122dd565b96506040890135915080821115612618578586fd5b6126248a838b016122dd565b95506060890135915080821115612639578384fd5b6126458a838b01612268565b9450608089013591508082111561265a578384fd5b6126668a838b01612268565b935060a089013591508082111561267b578283fd5b5061268889828a016122dd565b9150509295509295509295565b6000806000806000806000806080898b0312156126b0578182fd5b883567ffffffffffffffff808211156126c7578384fd5b6126d38c838d0161221f565b909a50985060208b01359150808211156126eb578384fd5b6126f78c838d0161221f565b909850965060408b013591508082111561270f578384fd5b61271b8c838d0161221f565b909650945060608b0135915080821115612733578384fd5b506127408b828c0161221f565b999c989b5096995094979396929594505050565b600060208284031215612765578081fd5b611e0482612337565b60008060008060808587031215612783578182fd5b843593506020850135612795816133d0565b93969395505050506040820135916060013590565b600080602083850312156127bc578182fd5b823567ffffffffffffffff8111156127d2578283fd5b6127de85828601612347565b90969095509350505050565b600080600080600080600080600060e08a8c031215612807578283fd5b893567ffffffffffffffff8082111561281e578485fd5b61282a8d838e01612347565b909b50995060208c0135915080821115612842578485fd5b5061284f8c828d01612347565b90985096505060408a0135612863816133d0565b945060608a0135935060808a013561287a816133d0565b925060a08a013561288a816133d0565b915060c08a013561289a816133d0565b809150509295985092959850929598565b6000608082840312156128bc578081fd5b6040516080810181811067ffffffffffffffff821117156128df576128df6133ba565b6040526128eb83612337565b81526128f960208401612337565b602082015261290a60408401612337565b604082015261291b60608401612337565b60608201529392505050565b600060208284031215612938578081fd5b5035919050565b60008151808452815b8181101561296457602081850181015186830182015201612948565b818111156129755782602083870101525b50601f01601f19169290920160200192915050565b60609190911b6bffffffffffffffffffffffff1916815260140190565b81546000908190600281046001808316806129c357607f831692505b60208084108214156129e357634e487b7160e01b87526022600452602487fd5b8180156129f75760018114612a0857612a34565b60ff19861689528489019650612a34565b612a118a6132d4565b885b86811015612a2c5781548b820152908501908301612a13565b505084890196505b509498975050505050505050565b61190160f01b81526002810192909252602282015260420190565b6001600160a01b0391909116815260200190565b6001600160a01b038781168252868116602080840191909152868216604084015290851660608301526080820184905260c060a0830181905283519083018190526000918481019160e085019190845b81811015612add57845184529382019392820192600101612ac1565b50919b9a5050505050505050505050565b6001600160a01b039384168152919092166020820152604081019190915260600190565b6001600160a01b0383168152604060208201819052600090612b369083018461293f565b949350505050565b901515815260200190565b91151582521515602082015260400190565b90815260200190565b9586526001600160a01b0394851660208701529290931660408501526060840152608083019190915260a082015260c00190565b9485526020850193909352604084019190915260608301526001600160a01b0316608082015260a00190565b60008482526040602083015282604083015282846060840137818301606090810191909152601f909201601f1916010192915050565b93845260208401929092526040830152606082015260800190565b93845260ff9290921660208401526040830152606082015260800190565b600060208252611e04602083018461293f565b6020808252601e908201527f455243323054656d706c6174653a204e4f5420464545204d414e414745520000604082015260600190565b60208082526023908201527f45524332303a207472616e7366657220746f20746865207a65726f206164647260408201526265737360e81b606082015260800190565b6020808252602c908201527f455243323054656d706c6174653a20496e76616c6964206d696e7465722c202060408201526b7a65726f206164647265737360a01b606082015260800190565b60208082526022908201527f4552433230526f6c65733a2020414c5245414459204120464545204d414e414760408201526122a960f11b606082015260800190565b60208082526022908201527f45524332303a20617070726f766520746f20746865207a65726f206164647265604082015261737360f01b606082015260800190565b60208082526013908201527215d493d391c8105494905654c81193d4935055606a1b604082015260600190565b6020808252601d908201527f4552433230526f6c65733a2020414c52454144592041204d494e544552000000604082015260600190565b60208082526026908201527f45524332303a207472616e7366657220616d6f756e7420657863656564732062604082015265616c616e636560d01b606082015260800190565b6020808252601f908201527f455243323054656d706c6174653a204e4f542037323120436f6e747261637400604082015260600190565b60208082526029908201527f44617461546f6b656e54656d706c6174653a206661696c656420746f2066696e60408201526834b9b41037b93232b960b91b606082015260800190565b60208082526031908201527f455243323054656d706c6174653a20746f6b656e20696e7374616e636520616c6040820152701c9958591e481a5b9a5d1a585b1a5e9959607a1b606082015260800190565b6020808252818101527f455243323054656d706c6174653a204e4f54204445504c4f59455220524f4c45604082015260600190565b60208082526024908201527f44617461546f6b656e54656d706c6174653a20496e76616c6964206361702076604082015263616c756560e01b606082015260800190565b60208082526028908201527f45524332303a207472616e7366657220616d6f756e74206578636565647320616040820152676c6c6f77616e636560c01b606082015260800190565b60208082526010908201526f115490cc8c11150e881156141254915160821b604082015260600190565b60208082526019908201527f455243323054656d706c6174653a204e4f54204d494e54455200000000000000604082015260600190565b60208082526025908201527f45524332303a207472616e736665722066726f6d20746865207a65726f206164604082015264647265737360d81b606082015260800190565b6020808252601b908201527f455243323054656d706c6174653a206e6f74204e46544f776e65720000000000604082015260600190565b60208082526024908201527f45524332303a20617070726f76652066726f6d20746865207a65726f206164646040820152637265737360e01b606082015260800190565b6020808252601f908201527f44617461546f6b656e54656d706c6174653a2063617020657863656564656400604082015260600190565b60208082526024908201527f455243323054656d706c6174653a20746f6b656e7320616c7265616479206d696040820152631b9d195960e21b606082015260800190565b6020808252603c908201527f455243323054656d706c6174653a20496e76616c696420636f6d6d756e69747960408201527f2066656520636f6c6c6563746f722c207a65726f206164647265737300000000606082015260800190565b6020808252601a908201527f455243323044543a20494e56414c49445f5349474e4154555245000000000000604082015260600190565b60208082526025908201527f45524332303a2064656372656173656420616c6c6f77616e63652062656c6f77604082015264207a65726f60d81b606082015260800190565b6020808252601f908201527f45524332303a206d696e7420746f20746865207a65726f206164647265737300604082015260600190565b60ff91909116815260200190565b60405181810167ffffffffffffffff811182821017156132a8576132a86133ba565b604052919050565b600067ffffffffffffffff8211156132ca576132ca6133ba565b5060209081020190565b60009081526020902090565b600082198211156132f3576132f36133a4565b500190565b60008261331357634e487b7160e01b81526012600452602481fd5b500490565b6000816000190483118215151615613332576133326133a4565b500290565b600082821015613349576133496133a4565b500390565b60028104600182168061336257607f821691505b6020821081141561338357634e487b7160e01b600052602260045260246000fd5b50919050565b600060001982141561339d5761339d6133a4565b5060010190565b634e487b7160e01b600052601160045260246000fd5b634e487b7160e01b600052604160045260246000fd5b6001600160a01b038116811461218357600080fdfea26469706673582212203d636de760eac0f100346a80946b7fabe03168401ffcb2197c7adc131ef603d464736f6c63430008000033",
  "linkReferences": {},
  "deployedLinkReferences": {}
}