{
  "_format": "hh-sol-artifact-1",
  "contractName": "ERC20Template",
  "sourceName": "contracts/templates/ERC20Template.sol",
  "abi": [
    {
      "anonymous": false,
      "inputs": [
        {
          "indexed": true,
          "internalType": "address",
          "name": "user",
          "type": "address"
        },
        {
          "indexed": true,
          "internalType": "address",
          "name": "signer",
          "type": "address"
        },
        {
          "indexed": false,
          "internalType": "uint256",
          "name": "timestamp",
          "type": "uint256"
        },
        {
          "indexed": false,
          "internalType": "uint256",
          "name": "blockNumber",
          "type": "uint256"
        }
      ],
      "name": "AddedMinter",
      "type": "event"
    },
    {
      "anonymous": false,
      "inputs": [
        {
          "indexed": true,
          "internalType": "address",
          "name": "user",
          "type": "address"
        },
        {
          "indexed": true,
          "internalType": "address",
          "name": "signer",
          "type": "address"
        },
        {
          "indexed": false,
          "internalType": "uint256",
          "name": "timestamp",
          "type": "uint256"
        },
        {
          "indexed": false,
          "internalType": "uint256",
          "name": "blockNumber",
          "type": "uint256"
        }
      ],
      "name": "AddedPaymentManager",
      "type": "event"
    },
    {
      "anonymous": false,
      "inputs": [
        {
          "indexed": true,
          "internalType": "address",
          "name": "owner",
          "type": "address"
        },
        {
          "indexed": true,
          "internalType": "address",
          "name": "spender",
          "type": "address"
        },
        {
          "indexed": false,
          "internalType": "uint256",
          "name": "value",
          "type": "uint256"
        }
      ],
      "name": "Approval",
      "type": "event"
    },
    {
      "anonymous": false,
      "inputs": [
        {
          "indexed": true,
          "internalType": "address",
          "name": "signer",
          "type": "address"
        },
        {
          "indexed": false,
          "internalType": "uint256",
          "name": "timestamp",
          "type": "uint256"
        },
        {
          "indexed": false,
          "internalType": "uint256",
          "name": "blockNumber",
          "type": "uint256"
        }
      ],
      "name": "CleanedPermissions",
      "type": "event"
    },
    {
      "anonymous": false,
      "inputs": [
        {
          "indexed": false,
          "internalType": "address",
          "name": "currentMinter",
          "type": "address"
        },
        {
          "indexed": false,
          "internalType": "address",
          "name": "newMinter",
          "type": "address"
        }
      ],
      "name": "MinterApproved",
      "type": "event"
    },
    {
      "anonymous": false,
      "inputs": [
        {
          "indexed": false,
          "internalType": "address",
          "name": "currentMinter",
          "type": "address"
        },
        {
          "indexed": false,
          "internalType": "address",
          "name": "newMinter",
          "type": "address"
        }
      ],
      "name": "MinterProposed",
      "type": "event"
    },
    {
      "anonymous": false,
      "inputs": [
        {
          "indexed": false,
          "internalType": "bytes32",
          "name": "exchangeId",
          "type": "bytes32"
        },
        {
          "indexed": false,
          "internalType": "address",
          "name": "owner",
          "type": "address"
        }
      ],
      "name": "NewFixedRate",
      "type": "event"
    },
    {
      "anonymous": false,
      "inputs": [
        {
          "indexed": true,
          "internalType": "address",
          "name": "caller",
          "type": "address"
        },
        {
          "indexed": true,
          "internalType": "address",
          "name": "_newPaymentCollector",
          "type": "address"
        },
        {
          "indexed": false,
          "internalType": "uint256",
          "name": "timestamp",
          "type": "uint256"
        },
        {
          "indexed": false,
          "internalType": "uint256",
          "name": "blockNumber",
          "type": "uint256"
        }
      ],
      "name": "NewPaymentCollector",
      "type": "event"
    },
    {
      "anonymous": false,
      "inputs": [
        {
          "indexed": false,
          "internalType": "address",
          "name": "poolAddress",
          "type": "address"
        },
        {
          "indexed": false,
          "internalType": "address",
          "name": "ssContract",
          "type": "address"
        },
        {
          "indexed": false,
          "internalType": "address",
          "name": "basetokenAddress",
          "type": "address"
        }
      ],
      "name": "NewPool",
      "type": "event"
    },
    {
      "anonymous": false,
      "inputs": [
        {
          "indexed": true,
          "internalType": "address",
          "name": "consumer",
          "type": "address"
        },
        {
          "indexed": false,
          "internalType": "address",
          "name": "payer",
          "type": "address"
        },
        {
          "indexed": false,
          "internalType": "uint256",
          "name": "amount",
          "type": "uint256"
        },
        {
          "indexed": false,
          "internalType": "uint256",
          "name": "serviceIndex",
          "type": "uint256"
        },
        {
          "indexed": false,
          "internalType": "uint256",
          "name": "timestamp",
          "type": "uint256"
        },
        {
          "indexed": true,
          "internalType": "address",
          "name": "publishMarketAddress",
          "type": "address"
        },
        {
          "indexed": false,
          "internalType": "uint256",
          "name": "blockNumber",
          "type": "uint256"
        }
      ],
      "name": "OrderStarted",
      "type": "event"
    },
    {
      "anonymous": false,
      "inputs": [
        {
          "indexed": true,
          "internalType": "address",
          "name": "providerFeeAddress",
          "type": "address"
        },
        {
          "indexed": true,
          "internalType": "address",
          "name": "providerFeeToken",
          "type": "address"
        },
        {
          "indexed": false,
          "internalType": "uint256",
          "name": "providerFeeAmount",
          "type": "uint256"
        },
        {
          "indexed": false,
          "internalType": "bytes",
          "name": "providerData",
          "type": "bytes"
        }
      ],
      "name": "ProviderFees",
      "type": "event"
    },
    {
      "anonymous": false,
      "inputs": [
        {
          "indexed": true,
          "internalType": "address",
          "name": "PublishMarketFeeAddress",
          "type": "address"
        },
        {
          "indexed": true,
          "internalType": "address",
          "name": "PublishMarketFeeToken",
          "type": "address"
        },
        {
          "indexed": false,
          "internalType": "uint256",
          "name": "PublishMarketFeeAmount",
          "type": "uint256"
        }
      ],
      "name": "PublishMarketFees",
      "type": "event"
    },
    {
      "anonymous": false,
      "inputs": [
        {
          "indexed": false,
          "internalType": "address",
          "name": "caller",
          "type": "address"
        },
        {
          "indexed": false,
          "internalType": "address",
          "name": "PublishMarketFeeAddress",
          "type": "address"
        },
        {
          "indexed": false,
          "internalType": "address",
          "name": "PublishMarketFeeToken",
          "type": "address"
        },
        {
          "indexed": false,
          "internalType": "uint256",
          "name": "PublishMarketFeeAmount",
          "type": "uint256"
        }
      ],
      "name": "PublishMarketFeesChanged",
      "type": "event"
    },
    {
      "anonymous": false,
      "inputs": [
        {
          "indexed": true,
          "internalType": "address",
          "name": "user",
          "type": "address"
        },
        {
          "indexed": true,
          "internalType": "address",
          "name": "signer",
          "type": "address"
        },
        {
          "indexed": false,
          "internalType": "uint256",
          "name": "timestamp",
          "type": "uint256"
        },
        {
          "indexed": false,
          "internalType": "uint256",
          "name": "blockNumber",
          "type": "uint256"
        }
      ],
      "name": "RemovedMinter",
      "type": "event"
    },
    {
      "anonymous": false,
      "inputs": [
        {
          "indexed": true,
          "internalType": "address",
          "name": "user",
          "type": "address"
        },
        {
          "indexed": true,
          "internalType": "address",
          "name": "signer",
          "type": "address"
        },
        {
          "indexed": false,
          "internalType": "uint256",
          "name": "timestamp",
          "type": "uint256"
        },
        {
          "indexed": false,
          "internalType": "uint256",
          "name": "blockNumber",
          "type": "uint256"
        }
      ],
      "name": "RemovedPaymentManager",
      "type": "event"
    },
    {
      "anonymous": false,
      "inputs": [
        {
          "indexed": true,
          "internalType": "address",
          "name": "from",
          "type": "address"
        },
        {
          "indexed": true,
          "internalType": "address",
          "name": "to",
          "type": "address"
        },
        {
          "indexed": false,
          "internalType": "uint256",
          "name": "value",
          "type": "uint256"
        }
      ],
      "name": "Transfer",
      "type": "event"
    },
    {
      "stateMutability": "payable",
      "type": "fallback"
    },
    {
      "inputs": [],
      "name": "BASE",
      "outputs": [
        {
          "internalType": "uint256",
          "name": "",
          "type": "uint256"
        }
      ],
      "stateMutability": "view",
      "type": "function"
    },
    {
      "inputs": [],
      "name": "BASE_COMMUNITY_FEE_PERCENTAGE",
      "outputs": [
        {
          "internalType": "uint256",
          "name": "",
          "type": "uint256"
        }
      ],
      "stateMutability": "view",
      "type": "function"
    },
    {
      "inputs": [],
      "name": "DOMAIN_SEPARATOR",
      "outputs": [
        {
          "internalType": "bytes32",
          "name": "",
          "type": "bytes32"
        }
      ],
      "stateMutability": "view",
      "type": "function"
    },
    {
      "inputs": [],
      "name": "PERMIT_TYPEHASH",
      "outputs": [
        {
          "internalType": "bytes32",
          "name": "",
          "type": "bytes32"
        }
      ],
      "stateMutability": "view",
      "type": "function"
    },
    {
      "inputs": [
        {
          "internalType": "address",
          "name": "_minter",
          "type": "address"
        }
      ],
      "name": "addMinter",
      "outputs": [],
      "stateMutability": "nonpayable",
      "type": "function"
    },
    {
      "inputs": [
        {
          "internalType": "address",
          "name": "_paymentManager",
          "type": "address"
        }
      ],
      "name": "addPaymentManager",
      "outputs": [],
      "stateMutability": "nonpayable",
      "type": "function"
    },
    {
      "inputs": [
        {
          "internalType": "address",
          "name": "owner",
          "type": "address"
        },
        {
          "internalType": "address",
          "name": "spender",
          "type": "address"
        }
      ],
      "name": "allowance",
      "outputs": [
        {
          "internalType": "uint256",
          "name": "",
          "type": "uint256"
        }
      ],
      "stateMutability": "view",
      "type": "function"
    },
    {
      "inputs": [
        {
          "internalType": "address",
          "name": "spender",
          "type": "address"
        },
        {
          "internalType": "uint256",
          "name": "amount",
          "type": "uint256"
        }
      ],
      "name": "approve",
      "outputs": [
        {
          "internalType": "bool",
          "name": "",
          "type": "bool"
        }
      ],
      "stateMutability": "nonpayable",
      "type": "function"
    },
    {
      "inputs": [
        {
          "internalType": "uint256",
          "name": "",
          "type": "uint256"
        }
      ],
      "name": "authERC20",
      "outputs": [
        {
          "internalType": "address",
          "name": "",
          "type": "address"
        }
      ],
      "stateMutability": "view",
      "type": "function"
    },
    {
      "inputs": [
        {
          "internalType": "address",
          "name": "account",
          "type": "address"
        }
      ],
      "name": "balanceOf",
      "outputs": [
        {
          "internalType": "uint256",
          "name": "",
          "type": "uint256"
        }
      ],
      "stateMutability": "view",
      "type": "function"
    },
    {
      "inputs": [
        {
          "internalType": "uint256",
          "name": "amount",
          "type": "uint256"
        }
      ],
      "name": "burn",
      "outputs": [],
      "stateMutability": "nonpayable",
      "type": "function"
    },
    {
      "inputs": [
        {
          "internalType": "address",
          "name": "account",
          "type": "address"
        },
        {
          "internalType": "uint256",
          "name": "amount",
          "type": "uint256"
        }
      ],
      "name": "burnFrom",
      "outputs": [],
      "stateMutability": "nonpayable",
      "type": "function"
    },
    {
      "inputs": [],
      "name": "cap",
      "outputs": [
        {
          "internalType": "uint256",
          "name": "",
          "type": "uint256"
        }
      ],
      "stateMutability": "view",
      "type": "function"
    },
    {
      "inputs": [],
      "name": "cleanFrom721",
      "outputs": [],
      "stateMutability": "nonpayable",
      "type": "function"
    },
    {
      "inputs": [],
      "name": "cleanPermissions",
      "outputs": [],
      "stateMutability": "nonpayable",
      "type": "function"
    },
    {
      "inputs": [
        {
          "internalType": "address",
          "name": "_dispenser",
          "type": "address"
        },
        {
          "internalType": "uint256",
          "name": "maxTokens",
          "type": "uint256"
        },
        {
          "internalType": "uint256",
          "name": "maxBalance",
          "type": "uint256"
        },
        {
          "internalType": "bool",
          "name": "withMint",
          "type": "bool"
        },
        {
          "internalType": "address",
          "name": "allowedSwapper",
          "type": "address"
        }
      ],
      "name": "createDispenser",
      "outputs": [],
      "stateMutability": "nonpayable",
      "type": "function"
    },
    {
      "inputs": [
        {
          "internalType": "address",
          "name": "fixedPriceAddress",
          "type": "address"
        },
        {
          "internalType": "address[]",
          "name": "addresses",
          "type": "address[]"
        },
        {
          "internalType": "uint256[]",
          "name": "uints",
          "type": "uint256[]"
        }
      ],
      "name": "createFixedRate",
      "outputs": [
        {
          "internalType": "bytes32",
          "name": "exchangeId",
          "type": "bytes32"
        }
      ],
      "stateMutability": "nonpayable",
      "type": "function"
    },
    {
      "inputs": [],
      "name": "decimals",
      "outputs": [
        {
          "internalType": "uint8",
          "name": "",
          "type": "uint8"
        }
      ],
      "stateMutability": "pure",
      "type": "function"
    },
    {
      "inputs": [
        {
          "internalType": "address",
          "name": "spender",
          "type": "address"
        },
        {
          "internalType": "uint256",
          "name": "subtractedValue",
          "type": "uint256"
        }
      ],
      "name": "decreaseAllowance",
      "outputs": [
        {
          "internalType": "bool",
          "name": "",
          "type": "bool"
        }
      ],
      "stateMutability": "nonpayable",
      "type": "function"
    },
    {
      "inputs": [
        {
          "internalType": "uint256[]",
          "name": "ssParams",
          "type": "uint256[]"
        },
        {
          "internalType": "uint256[]",
          "name": "swapFees",
          "type": "uint256[]"
        },
        {
          "internalType": "address[]",
          "name": "addresses",
          "type": "address[]"
        }
      ],
      "name": "deployPool",
      "outputs": [
        {
          "internalType": "address",
          "name": "pool",
          "type": "address"
        }
      ],
      "stateMutability": "nonpayable",
      "type": "function"
    },
    {
      "inputs": [],
      "name": "getERC721Address",
      "outputs": [
        {
          "internalType": "address",
          "name": "",
          "type": "address"
        }
      ],
      "stateMutability": "view",
      "type": "function"
    },
    {
      "inputs": [],
      "name": "getId",
      "outputs": [
        {
          "internalType": "uint8",
          "name": "",
          "type": "uint8"
        }
      ],
      "stateMutability": "pure",
      "type": "function"
    },
    {
      "inputs": [],
      "name": "getPaymentCollector",
      "outputs": [
        {
          "internalType": "address",
          "name": "",
          "type": "address"
        }
      ],
      "stateMutability": "view",
      "type": "function"
    },
    {
      "inputs": [
        {
          "internalType": "address",
          "name": "user",
          "type": "address"
        }
      ],
      "name": "getPermissions",
      "outputs": [
        {
          "components": [
            {
              "internalType": "bool",
              "name": "minter",
              "type": "bool"
            },
            {
              "internalType": "bool",
              "name": "paymentManager",
              "type": "bool"
            }
          ],
          "internalType": "struct ERC20Roles.RolesERC20",
          "name": "",
          "type": "tuple"
        }
      ],
      "stateMutability": "view",
      "type": "function"
    },
    {
      "inputs": [],
      "name": "getPublishingMarketFee",
      "outputs": [
        {
          "internalType": "address",
          "name": "",
          "type": "address"
        },
        {
          "internalType": "address",
          "name": "",
          "type": "address"
        },
        {
          "internalType": "uint256",
          "name": "",
          "type": "uint256"
        }
      ],
      "stateMutability": "view",
      "type": "function"
    },
    {
      "inputs": [
        {
          "internalType": "address",
          "name": "spender",
          "type": "address"
        },
        {
          "internalType": "uint256",
          "name": "addedValue",
          "type": "uint256"
        }
      ],
      "name": "increaseAllowance",
      "outputs": [
        {
          "internalType": "bool",
          "name": "",
          "type": "bool"
        }
      ],
      "stateMutability": "nonpayable",
      "type": "function"
    },
    {
      "inputs": [
        {
          "internalType": "string[]",
          "name": "strings_",
          "type": "string[]"
        },
        {
          "internalType": "address[]",
          "name": "addresses_",
          "type": "address[]"
        },
        {
          "internalType": "address[]",
          "name": "factoryAddresses_",
          "type": "address[]"
        },
        {
          "internalType": "uint256[]",
          "name": "uints_",
          "type": "uint256[]"
        },
        {
          "internalType": "bytes[]",
          "name": "bytes_",
          "type": "bytes[]"
        }
      ],
      "name": "initialize",
      "outputs": [
        {
          "internalType": "bool",
          "name": "",
          "type": "bool"
        }
      ],
      "stateMutability": "nonpayable",
      "type": "function"
    },
    {
      "inputs": [
        {
          "internalType": "address",
          "name": "user",
          "type": "address"
        }
      ],
      "name": "isERC20Deployer",
      "outputs": [
        {
          "internalType": "bool",
          "name": "deployer",
          "type": "bool"
        }
      ],
      "stateMutability": "nonpayable",
      "type": "function"
    },
    {
      "inputs": [],
      "name": "isInitialized",
      "outputs": [
        {
          "internalType": "bool",
          "name": "",
          "type": "bool"
        }
      ],
      "stateMutability": "view",
      "type": "function"
    },
    {
      "inputs": [
        {
          "internalType": "address",
          "name": "account",
          "type": "address"
        }
      ],
      "name": "isMinter",
      "outputs": [
        {
          "internalType": "bool",
          "name": "",
          "type": "bool"
        }
      ],
      "stateMutability": "view",
      "type": "function"
    },
    {
      "inputs": [
        {
          "internalType": "address",
          "name": "account",
          "type": "address"
        },
        {
          "internalType": "uint256",
          "name": "value",
          "type": "uint256"
        }
      ],
      "name": "mint",
      "outputs": [],
      "stateMutability": "nonpayable",
      "type": "function"
    },
    {
      "inputs": [],
      "name": "name",
      "outputs": [
        {
          "internalType": "string",
          "name": "",
          "type": "string"
        }
      ],
      "stateMutability": "view",
      "type": "function"
    },
    {
      "inputs": [
        {
          "internalType": "address",
          "name": "",
          "type": "address"
        }
      ],
      "name": "nonces",
      "outputs": [
        {
          "internalType": "uint256",
          "name": "",
          "type": "uint256"
        }
      ],
      "stateMutability": "view",
      "type": "function"
    },
    {
      "inputs": [
        {
          "internalType": "address",
          "name": "",
          "type": "address"
        }
      ],
      "name": "permissions",
      "outputs": [
        {
          "internalType": "bool",
          "name": "minter",
          "type": "bool"
        },
        {
          "internalType": "bool",
          "name": "paymentManager",
          "type": "bool"
        }
      ],
      "stateMutability": "view",
      "type": "function"
    },
    {
      "inputs": [
        {
          "internalType": "address",
          "name": "owner",
          "type": "address"
        },
        {
          "internalType": "address",
          "name": "spender",
          "type": "address"
        },
        {
          "internalType": "uint256",
          "name": "value",
          "type": "uint256"
        },
        {
          "internalType": "uint256",
          "name": "deadline",
          "type": "uint256"
        },
        {
          "internalType": "uint8",
          "name": "v",
          "type": "uint8"
        },
        {
          "internalType": "bytes32",
          "name": "r",
          "type": "bytes32"
        },
        {
          "internalType": "bytes32",
          "name": "s",
          "type": "bytes32"
        }
      ],
      "name": "permit",
      "outputs": [],
      "stateMutability": "nonpayable",
      "type": "function"
    },
    {
      "inputs": [
        {
          "internalType": "address",
          "name": "_minter",
          "type": "address"
        }
      ],
      "name": "removeMinter",
      "outputs": [],
      "stateMutability": "nonpayable",
      "type": "function"
    },
    {
      "inputs": [
        {
          "internalType": "address",
          "name": "_paymentManager",
          "type": "address"
        }
      ],
      "name": "removePaymentManager",
      "outputs": [],
      "stateMutability": "nonpayable",
      "type": "function"
    },
    {
      "inputs": [],
      "name": "router",
      "outputs": [
        {
          "internalType": "address",
          "name": "",
          "type": "address"
        }
      ],
      "stateMutability": "view",
      "type": "function"
    },
    {
      "inputs": [
        {
          "internalType": "bytes",
          "name": "_value",
          "type": "bytes"
        }
      ],
      "name": "setData",
      "outputs": [],
      "stateMutability": "nonpayable",
      "type": "function"
    },
    {
      "inputs": [
        {
          "internalType": "address",
          "name": "_newPaymentCollector",
          "type": "address"
        }
      ],
      "name": "setPaymentCollector",
      "outputs": [],
      "stateMutability": "nonpayable",
      "type": "function"
    },
    {
      "inputs": [
        {
          "internalType": "address",
          "name": "_publishMarketFeeAddress",
          "type": "address"
        },
        {
          "internalType": "address",
          "name": "_publishMarketFeeToken",
          "type": "address"
        },
        {
          "internalType": "uint256",
          "name": "_publishMarketFeeAmount",
          "type": "uint256"
        }
      ],
      "name": "setPublishingMarketFee",
      "outputs": [],
      "stateMutability": "nonpayable",
      "type": "function"
    },
    {
      "inputs": [
        {
          "internalType": "address",
          "name": "consumer",
          "type": "address"
        },
        {
          "internalType": "uint256",
          "name": "serviceIndex",
          "type": "uint256"
        },
        {
          "internalType": "address",
          "name": "providerFeeAddress",
          "type": "address"
        },
        {
          "internalType": "address",
          "name": "providerFeeToken",
          "type": "address"
        },
        {
          "internalType": "uint256",
          "name": "providerFeeAmount",
          "type": "uint256"
        },
        {
          "internalType": "uint8",
          "name": "v",
          "type": "uint8"
        },
        {
          "internalType": "bytes32",
          "name": "r",
          "type": "bytes32"
        },
        {
          "internalType": "bytes32",
          "name": "s",
          "type": "bytes32"
        },
        {
          "internalType": "bytes",
          "name": "providerData",
          "type": "bytes"
        }
      ],
      "name": "startOrder",
      "outputs": [],
      "stateMutability": "nonpayable",
      "type": "function"
    },
    {
      "inputs": [],
      "name": "symbol",
      "outputs": [
        {
          "internalType": "string",
          "name": "",
          "type": "string"
        }
      ],
      "stateMutability": "view",
      "type": "function"
    },
    {
      "inputs": [],
      "name": "totalSupply",
      "outputs": [
        {
          "internalType": "uint256",
          "name": "",
          "type": "uint256"
        }
      ],
      "stateMutability": "view",
      "type": "function"
    },
    {
      "inputs": [
        {
          "internalType": "address",
          "name": "recipient",
          "type": "address"
        },
        {
          "internalType": "uint256",
          "name": "amount",
          "type": "uint256"
        }
      ],
      "name": "transfer",
      "outputs": [
        {
          "internalType": "bool",
          "name": "",
          "type": "bool"
        }
      ],
      "stateMutability": "nonpayable",
      "type": "function"
    },
    {
      "inputs": [
        {
          "internalType": "address",
          "name": "sender",
          "type": "address"
        },
        {
          "internalType": "address",
          "name": "recipient",
          "type": "address"
        },
        {
          "internalType": "uint256",
          "name": "amount",
          "type": "uint256"
        }
      ],
      "name": "transferFrom",
      "outputs": [
        {
          "internalType": "bool",
          "name": "",
          "type": "bool"
        }
      ],
      "stateMutability": "nonpayable",
      "type": "function"
    },
    {
      "inputs": [],
      "name": "withdrawETH",
      "outputs": [],
      "stateMutability": "payable",
      "type": "function"
    }
  ],
  "bytecode": "0x6080604052600b805460ff60a01b191690553480156200001e57600080fd5b5060408051808201825260048152631d195cdd60e21b60208083019182528351808501909452600a8452691d195cdd14de5b589bdb60b21b9084015281519192916200006d9160039162000091565b5080516200008390600490602084019062000091565b505060016007555062000174565b8280546200009f9062000137565b90600052602060002090601f016020900481019282620000c357600085556200010e565b82601f10620000de57805160ff19168380011785556200010e565b828001600101855582156200010e579182015b828111156200010e578251825591602001919060010190620000f1565b506200011c92915062000120565b5090565b5b808211156200011c576000815560010162000121565b600181811c908216806200014c57607f821691505b602082108114156200016e57634e487b7160e01b600052602260045260246000fd5b50919050565b6141f880620001846000396000f3fe6080604052600436106102725760003560e01c80635d1ca6311161014e578063aa271e1a116100bb578063dd62ed3e11610077578063dd62ed3e14610878578063e086e5ec146108be578063e487c2e8146108c6578063ec342ad0146108db578063ef867ff4146108f7578063f887ea401461091757005b8063aa271e1a146107aa578063aa492ef9146107e3578063ab62f0e114610803578063b2263a5d14610823578063b3998be014610838578063d505accf1461085857005b806395d89b411161010a57806395d89b41146106f557806396fb3eaf1461070a578063983b2d561461072a5780639b4f44b61461074a578063a457c2d71461076a578063a9059cbb1461078a57005b80635d1ca6311461062957806370a082311461063d57806379cc6790146106735780637ecebe001461069357806382c03da5146106c05780638b96412b146106d557005b8063313ce567116101ec57806340c10f19116101a857806340c10f191461057457806342966c68146105945780634f189cb2146105b457806357a3a31b146105c957806357ad5ff6146105e95780635bfe4da01461060957005b8063313ce567146104ac578063355274ea146104ce5780633644e515146104e3578063392e53cd146104f95780633950935114610518578063397b37431461053857005b806318160ddd1161023b57806318160ddd146103d9578063191c918a146103f857806323b872dd1461041857806325b00243146104385780633092afd51461045857806330adf81f1461047857005b80627ffb781461027457806301e88208146102ab57806306fdde03146102fb578063095ea7b31461031d578063160a79251461034d575b005b34801561028057600080fd5b50600c546001600160a01b03165b6040516001600160a01b0390911681526020015b60405180910390f35b3480156102b757600080fd5b506102e46102c6366004613515565b60056020526000908152604090205460ff8082169161010090041682565b6040805192151583529015156020830152016102a2565b34801561030757600080fd5b50610310610937565b6040516102a2919061358a565b34801561032957600080fd5b5061033d61033836600461359d565b6109c9565b60405190151581526020016102a2565b34801561035957600080fd5b506103ba610368366004613515565b6040805180820190915260008082526020820152506001600160a01b031660009081526005602090815260409182902082518084019093525460ff808216151584526101009091041615159082015290565b60408051825115158152602092830151151592810192909252016102a2565b3480156103e557600080fd5b506002545b6040519081526020016102a2565b34801561040457600080fd5b506102726104133660046135d7565b6109df565b34801561042457600080fd5b5061033d610433366004613636565b610b3a565b34801561044457600080fd5b50610272610453366004613515565b610be6565b34801561046457600080fd5b50610272610473366004613515565b610c80565b34801561048457600080fd5b506103ea7f6e71edae12b1b97f4d1f60370fef10105fa2faae0126114a169c64845d6126c981565b3480156104b857600080fd5b5060125b60405160ff90911681526020016102a2565b3480156104da57600080fd5b50600a546103ea565b3480156104ef57600080fd5b506103ea60115481565b34801561050557600080fd5b50600b54600160a01b900460ff1661033d565b34801561052457600080fd5b5061033d61053336600461359d565b610d17565b34801561054457600080fd5b50600e54600f54601054604080516001600160a01b039485168152939092166020840152908201526060016102a2565b34801561058057600080fd5b5061027261058f36600461359d565b610d53565b3480156105a057600080fd5b506102726105af366004613677565b610e24565b3480156105c057600080fd5b50610272610e2e565b3480156105d557600080fd5b506102726105e4366004613515565b610f15565b3480156105f557600080fd5b50610272610604366004613636565b611057565b34801561061557600080fd5b5061028e6106243660046137ca565b6111ab565b34801561063557600080fd5b5060016104bc565b34801561064957600080fd5b506103ea610658366004613515565b6001600160a01b031660009081526020819052604090205490565b34801561067f57600080fd5b5061027261068e36600461359d565b611491565b34801561069f57600080fd5b506103ea6106ae366004613515565b60126020526000908152604090205481565b3480156106cc57600080fd5b50610272611517565b3480156106e157600080fd5b506103ea6106f0366004613852565b611571565b34801561070157600080fd5b5061031061173e565b34801561071657600080fd5b5061033d610725366004613515565b61174d565b34801561073657600080fd5b50610272610745366004613515565b6117c8565b34801561075657600080fd5b5061027261076536600461394c565b61185f565b34801561077657600080fd5b5061033d61078536600461359d565b611cbc565b34801561079657600080fd5b5061033d6107a536600461359d565b611d55565b3480156107b657600080fd5b5061033d6107c5366004613515565b6001600160a01b031660009081526005602052604090205460ff1690565b3480156107ef57600080fd5b506102726107fe366004613515565b611d62565b34801561080f57600080fd5b5061027261081e3660046139f9565b611df9565b34801561082f57600080fd5b506103ea611f2a565b34801561084457600080fd5b5061033d610853366004613ab7565b611f40565b34801561086457600080fd5b50610272610873366004613ba8565b61207a565b34801561088457600080fd5b506103ea610893366004613c16565b6001600160a01b03918216600090815260016020908152604080832093909416825291909152205490565b61027261228c565b3480156108d257600080fd5b5061028e6122cc565b3480156108e757600080fd5b506103ea670de0b6b3a764000081565b34801561090357600080fd5b5061028e610912366004613677565b612361565b34801561092357600080fd5b5060135461028e906001600160a01b031681565b60606008805461094690613c4f565b80601f016020809104026020016040519081016040528092919081815260200182805461097290613c4f565b80156109bf5780601f10610994576101008083540402835291602001916109bf565b820191906000526020600020905b8154815290600101906020018083116109a257829003601f168201915b5050505050905090565b60006109d633848461238b565b50600192915050565b600c5460405163160a792560e01b81523360048201526001600160a01b039091169063160a7925906024016080604051808303816000875af1158015610a29573d6000803e3d6000fd5b505050506040513d601f19601f82011682018060405250810190610a4d9190613c8a565b60200151610a765760405162461bcd60e51b8152600401610a6d90613d0f565b60405180910390fd5b60026007541415610a995760405162461bcd60e51b8152600401610a6d90613d44565b6002600755601354604051636b14d00560e11b81526001600160a01b038781166004830152306024830152604482018790526064820186905233608483015283811660a48301529091169063d629a00a9060c401600060405180830381600087803b158015610b0757600080fd5b505af1158015610b1b573d6000803e3d6000fd5b505050508115610b2e57610b2e856124af565b50506001600755505050565b6000610b478484846125b1565b6001600160a01b038416600090815260016020908152604080832033845290915290205482811015610bcc5760405162461bcd60e51b815260206004820152602860248201527f45524332303a207472616e7366657220616d6f756e74206578636565647320616044820152676c6c6f77616e636560c01b6064820152608401610a6d565b610bd9853385840361238b565b60019150505b9392505050565b600c5460405163160a792560e01b81523360048201526001600160a01b039091169063160a7925906024016080604051808303816000875af1158015610c30573d6000803e3d6000fd5b505050506040513d601f19601f82011682018060405250810190610c549190613c8a565b60200151610c745760405162461bcd60e51b8152600401610a6d90613d0f565b610c7d81612781565b50565b600c5460405163160a792560e01b81523360048201526001600160a01b039091169063160a7925906024016080604051808303816000875af1158015610cca573d6000803e3d6000fd5b505050506040513d601f19601f82011682018060405250810190610cee9190613c8a565b60200151610d0e5760405162461bcd60e51b8152600401610a6d90613d0f565b610c7d816127e2565b3360008181526001602090815260408083206001600160a01b038716845290915281205490916109d6918590610d4e908690613d91565b61238b565b3360009081526005602052604090205460ff16610db25760405162461bcd60e51b815260206004820152601960248201527f455243323054656d706c6174653a204e4f54204d494e544552000000000000006044820152606401610a6d565b600a54610dc882610dc260025490565b90612842565b1115610e165760405162461bcd60e51b815260206004820152601f60248201527f44617461546f6b656e54656d706c6174653a20636170206578636565646564006044820152606401610a6d565b610e20828261284e565b5050565b610c7d338261292d565b600c546040516331a9108f60e11b8152600160048201526001600160a01b0390911690636352211e90602401602060405180830381865afa158015610e77573d6000803e3d6000fd5b505050506040513d601f19601f82011682018060405250810190610e9b9190613da9565b6001600160a01b0316336001600160a01b031614610efb5760405162461bcd60e51b815260206004820152601b60248201527f455243323054656d706c6174653a206e6f74204e46544f776e657200000000006044820152606401610a6d565b610f03612a7b565b600d80546001600160a01b0319169055565b33600090815260056020526040902054610100900460ff1680610fa65750600c5460405163160a792560e01b81523360048201526001600160a01b039091169063160a7925906024016080604051808303816000875af1158015610f7d573d6000803e3d6000fd5b505050506040513d601f19601f82011682018060405250810190610fa19190613c8a565b602001515b6110065760405162461bcd60e51b815260206004820152602b60248201527f455243323054656d706c6174653a204e4f54205041594d454e54204d414e414760448201526a22a91037b91027aba722a960a91b6064820152608401610a6d565b61100f81612b2a565b604080514281524360208201526001600160a01b0383169133917f4d7694d695c57cc54947177c8e8a0e61aae664e9223492a798c32fadfc6419cc910160405180910390a350565b600e546001600160a01b031633146110c45760405162461bcd60e51b815260206004820152602a60248201527f455243323054656d706c6174653a206e6f74207075626c6973684d61726b65746044820152694665654164647265737360b01b6064820152608401610a6d565b6001600160a01b03831661112b5760405162461bcd60e51b815260206004820152602860248201527f496e76616c6964205f7075626c6973684d61726b657446656541646472657373604482015267206164647265737360c01b6064820152608401610a6d565b600e80546001600160a01b038581166001600160a01b03199283168117909355600f80549186169190921681179091556010839055604080513381526020810193909352820152606081018290527fe0b85b6f04fa914cf57f6401c5672a83a32b1c388d194c3d78e17f2897d46f439060800160405180910390a1505050565b600c5460405163160a792560e01b81523360048201526000916001600160a01b03169063160a7925906024016080604051808303816000875af11580156111f6573d6000803e3d6000fd5b505050506040513d601f19601f8201168201806040525081019061121a9190613c8a565b6020015161123a5760405162461bcd60e51b8152600401610a6d90613d0f565b600254156112965760405162461bcd60e51b8152602060048201526024808201527f455243323054656d706c6174653a20746f6b656e7320616c7265616479206d696044820152631b9d195960e21b6064820152608401610a6d565b6112b9826000815181106112ac576112ac613dc6565b60200260200101516124af565b62250490846003815181106112d0576112d0613dc6565b6020026020010151116113375760405162461bcd60e51b815260206004820152602960248201527f455243323054656d706c6174653a206d696e696d756d20626c6f636b73206e6f6044820152681d081c995858da195960ba1b6064820152608401610a6d565b60006040518060400160405280306001600160a01b03166001600160a01b031681526020018460018151811061136f5761136f613dc6565b60209081029190910101516001600160a01b0390811690915260135460405163ee3bc63560e01b8152929350169063ee3bc635906113b7908490899089908990600401613e50565b6020604051808303816000875af11580156113d6573d6000803e3d6000fd5b505050506040513d601f19601f820116820180604052508101906113fa9190613da9565b91507fd02da1bec30f7f750aa0a131745dfb9ce96767c45a192dc26409f5d690e0b967828460008151811061143157611431613dc6565b60200260200101518560018151811061144c5761144c613dc6565b6020026020010151604051611481939291906001600160a01b0393841681529183166020830152909116604082015260600190565b60405180910390a1509392505050565b600061149d8333610893565b9050818110156114fb5760405162461bcd60e51b8152602060048201526024808201527f45524332303a206275726e20616d6f756e74206578636565647320616c6c6f77604482015263616e636560e01b6064820152608401610a6d565b611508833384840361238b565b611512838361292d565b505050565b600c546001600160a01b03163314610efb5760405162461bcd60e51b815260206004820152601f60248201527f455243323054656d706c6174653a204e4f542037323120436f6e7472616374006044820152606401610a6d565b600c5460405163160a792560e01b81523360048201526000916001600160a01b03169063160a7925906024016080604051808303816000875af11580156115bc573d6000803e3d6000fd5b505050506040513d601f19601f820116820180604052508101906115e09190613c8a565b602001516116005760405162461bcd60e51b8152600401610a6d90613d0f565b600260075414156116235760405162461bcd60e51b8152600401610a6d90613d44565b6002600755601354604051638244937560e01b81526001600160a01b039091169063824493759061165c90879087908790600401613ebb565b6020604051808303816000875af115801561167b573d6000803e3d6000fd5b505050506040513d601f19601f8201168201806040525081019061169f9190613efb565b90506000826004815181106116b6576116b6613dc6565b602002602001015111156116cd576116cd846124af565b7f195d202f33578769e120c3041341554af3193e67ee004175095bc9c06e6e6165818460008151811061170257611702613dc6565b602002602001015160405161172a9291909182526001600160a01b0316602082015260400190565b60405180910390a160016007559392505050565b60606009805461094690613c4f565b600c5460405163160a792560e01b81526001600160a01b038381166004830152600092169063160a7925906024016080604051808303816000875af115801561179a573d6000803e3d6000fd5b505050506040513d601f19601f820116820180604052508101906117be9190613c8a565b6020015192915050565b600c5460405163160a792560e01b81523360048201526001600160a01b039091169063160a7925906024016080604051808303816000875af1158015611812573d6000803e3d6000fd5b505050506040513d601f19601f820116820180604052508101906118369190613c8a565b602001516118565760405162461bcd60e51b8152600401610a6d90613d0f565b610c7d816124af565b600260075414156118825760405162461bcd60e51b8152600401610a6d90613d44565b600260075533600090815260208190526040812054670de0b6b3a764000091908211156118ff5760405162461bcd60e51b815260206004820152602560248201527f4e6f7420656e6f756768204461746120546f6b656e7320746f2073746172742060448201526427b93232b960d91b6064820152608401610a6d565b600e5460408051338152602081018590529081018c90524260608201524360808201526001600160a01b03918216918d16907fe1c4fa794edfa8f619b8257a077398950357b9c6398528f94480307352f9afcc9060a00160405180910390a3600060105411801561197a5750600f546001600160a01b031615155b80156119905750600e546001600160a01b031615155b15611abb57601054600f546119b4916001600160a01b039091169033903090612b4c565b6010546119c2906064612bb7565b600e546010549192506119f8916001600160a01b03909116906119e59084612bc3565b600f546001600160a01b03169190612bcf565b600f54600e546010546001600160a01b0392831692909116907ff666b31c81334b6085802ba4149907fa724689d43bc31df6de1a51291ddc55b490611a3d9085612bc3565b60405190815260200160405180910390a38015611abb57600b54600f54611a71916001600160a01b03918216911683612bcf565b600f54600b546040518381526001600160a01b0392831692909116907ff666b31c81334b6085802ba4149907fa724689d43bc31df6de1a51291ddc55b49060200160405180910390a35b600087118015611ad357506001600160a01b03881615155b8015611ae757506001600160a01b03891615155b15611c4d576000838a8a8a604051602001611b059493929190613f14565b60408051601f198184030181528282528051602091820120600080855291840180845281905260ff8b169284019290925260608301899052608083018890529092509060019060a0016020604051602081039080840390855afa158015611b70573d6000803e3d6000fd5b5050506020604051035190508a6001600160a01b0316816001600160a01b031614611bd45760405162461bcd60e51b8152602060048201526014602482015273496e76616c69642070726f76696465722066656560601b6044820152606401610a6d565b611be96001600160a01b038b1633308c612b4c565b611bfd6001600160a01b038b168c8b612bcf565b896001600160a01b03168b6001600160a01b03167fe4e24a09140bfbf82d11018b622437236baf0eb96132352bb516ed0e897ba8058b88604051611c42929190613f5a565b60405180910390a350505b611c5e611c586122cc565b83611d55565b611caa5760405162461bcd60e51b815260206004820152601e60248201527f4661696c656420746f2073656e6420445420746f207075626c697368657200006044820152606401610a6d565b50506001600755505050505050505050565b3360009081526001602090815260408083206001600160a01b038616845290915281205482811015611d3e5760405162461bcd60e51b815260206004820152602560248201527f45524332303a2064656372656173656420616c6c6f77616e63652062656c6f77604482015264207a65726f60d81b6064820152608401610a6d565b611d4b338585840361238b565b5060019392505050565b60006109d63384846125b1565b600c5460405163160a792560e01b81523360048201526001600160a01b039091169063160a7925906024016080604051808303816000875af1158015611dac573d6000803e3d6000fd5b505050506040513d601f19601f82011682018060405250810190611dd09190613c8a565b60200151611df05760405162461bcd60e51b8152600401610a6d90613d0f565b610c7d81612bff565b600c5460405163160a792560e01b81523360048201526001600160a01b039091169063160a7925906024016080604051808303816000875af1158015611e43573d6000803e3d6000fd5b505050506040513d601f19601f82011682018060405250810190611e679190613c8a565b60200151611e875760405162461bcd60e51b8152600401610a6d90613d0f565b6040516bffffffffffffffffffffffff193060601b16602082015260009060340160408051601f19818403018152908290528051602090910120600c546301caf8fd60e31b83529092506001600160a01b031690630e57c7e890611ef390849087908790600401613f73565b600060405180830381600087803b158015611f0d57600080fd5b505af1158015611f21573d6000803e3d6000fd5b50505050505050565b611f3d6064670de0b6b3a7640000613fa9565b81565b600b54600090600160a01b900460ff1615611fb75760405162461bcd60e51b815260206004820152603160248201527f455243323054656d706c6174653a20746f6b656e20696e7374616e636520616c6044820152701c9958591e481a5b9a5d1a585b1a5e9959607a1b6064820152608401610a6d565b61206b611fc48b8d613fcb565b8a8a8080602002602001604051908101604052809392919081815260200183836020028082843760009201919091525050604080516020808e0282810182019093528d82529093508d92508c91829185019084908082843760009201919091525050604080516020808d0282810182019093528c82529093508c92508b91829185019084908082843760009201919091525061206692508991508a9050614053565b612d0d565b9b9a5050505050505050505050565b438410156120bd5760405162461bcd60e51b815260206004820152601060248201526f115490cc8c11150e881156141254915160821b6044820152606401610a6d565b6011546001600160a01b038816600090815260126020526040812080549192917f6e71edae12b1b97f4d1f60370fef10105fa2faae0126114a169c64845d6126c9918b918b918b919087612110836140bb565b909155506040805160208101969096526001600160a01b0394851690860152929091166060840152608083015260a082015260c0810187905260e0016040516020818303038152906040528051906020012060405160200161218992919061190160f01b81526002810192909252602282015260420190565b60408051601f198184030181528282528051602091820120600080855291840180845281905260ff88169284019290925260608301869052608083018590529092509060019060a0016020604051602081039080840390855afa1580156121f4573d6000803e3d6000fd5b5050604051601f1901519150506001600160a01b0381161580159061222a5750886001600160a01b0316816001600160a01b0316145b6122765760405162461bcd60e51b815260206004820152601a60248201527f455243323044543a20494e56414c49445f5349474e41545552450000000000006044820152606401610a6d565b61228189898961238b565b505050505050505050565b6122946122cc565b6001600160a01b03166108fc479081150290604051600060405180830381858888f19350505050158015610c7d573d6000803e3d6000fd5b600d546000906001600160a01b031661235157600c546040516331a9108f60e11b8152600160048201526001600160a01b0390911690636352211e90602401602060405180830381865afa158015612328573d6000803e3d6000fd5b505050506040513d601f19601f8201168201806040525081019061234c9190613da9565b905090565b50600d546001600160a01b031690565b6006818154811061237157600080fd5b6000918252602090912001546001600160a01b0316905081565b6001600160a01b0383166123ed5760405162461bcd60e51b8152602060048201526024808201527f45524332303a20617070726f76652066726f6d20746865207a65726f206164646044820152637265737360e01b6064820152608401610a6d565b6001600160a01b03821661244e5760405162461bcd60e51b815260206004820152602260248201527f45524332303a20617070726f766520746f20746865207a65726f206164647265604482015261737360f01b6064820152608401610a6d565b6001600160a01b0383811660008181526001602090815260408083209487168084529482529182902085905590518481527f8c5be1e5ebec7d5bd14f71427d1e84f3dd0314c0f7b2291e5b200ac8c7c3b925910160405180910390a3505050565b6001600160a01b0381166000908152600560205260409020805460ff16156125195760405162461bcd60e51b815260206004820152601d60248201527f4552433230526f6c65733a2020414c52454144592041204d494e5445520000006044820152606401610a6d565b8054600160ff19909116811782556006805491820181556000527ff652222313e28459528d920b65115c16c04f3efc82aaedc97be59f3f377c0d3f0180546001600160a01b0319166001600160a01b038416908117909155604080514281524360208201523392917f4f7e100eb1ee13e903798bd0d6aa854152e07eb05544f392b9409c12935c809591015b60405180910390a35050565b6001600160a01b0383166126155760405162461bcd60e51b815260206004820152602560248201527f45524332303a207472616e736665722066726f6d20746865207a65726f206164604482015264647265737360d81b6064820152608401610a6d565b6001600160a01b0382166126775760405162461bcd60e51b815260206004820152602360248201527f45524332303a207472616e7366657220746f20746865207a65726f206164647260448201526265737360e81b6064820152608401610a6d565b6001600160a01b038316600090815260208190526040902054818110156126ef5760405162461bcd60e51b815260206004820152602660248201527f45524332303a207472616e7366657220616d6f756e7420657863656564732062604482015265616c616e636560d01b6064820152608401610a6d565b6001600160a01b03808516600090815260208190526040808220858503905591851681529081208054849290612726908490613d91565b92505081905550826001600160a01b0316846001600160a01b03167fddf252ad1be2c89b69c2b068fc378daa952ba7f163c4a11628f55a4df523b3ef8460405161277291815260200190565b60405180910390a35b50505050565b6001600160a01b03811660008181526005602052604090819020805461ff00191681559051909133917faee911eec8b2df8f3ae0464841541b1e5f339519bd5cf51889fe8b07fecff658906125a59042904390918252602082015260400190565b6001600160a01b03811660008181526005602052604090819020805460ff191681559051909133917fefa2735987005aaa89c050c0ff8cc9ae7d9079d19382081c429130f98c52d480906125a59042904390918252602082015260400190565b6000610bdf8284613d91565b6001600160a01b0382166128a45760405162461bcd60e51b815260206004820152601f60248201527f45524332303a206d696e7420746f20746865207a65726f2061646472657373006044820152606401610a6d565b80600260008282546128b69190613d91565b90915550506001600160a01b038216600090815260208190526040812080548392906128e3908490613d91565b90915550506040518181526001600160a01b038316906000907fddf252ad1be2c89b69c2b068fc378daa952ba7f163c4a11628f55a4df523b3ef9060200160405180910390a35050565b6001600160a01b03821661298d5760405162461bcd60e51b815260206004820152602160248201527f45524332303a206275726e2066726f6d20746865207a65726f206164647265736044820152607360f81b6064820152608401610a6d565b6001600160a01b03821660009081526020819052604090205481811015612a015760405162461bcd60e51b815260206004820152602260248201527f45524332303a206275726e20616d6f756e7420657863656564732062616c616e604482015261636560f01b6064820152608401610a6d565b6001600160a01b0383166000908152602081905260408120838303905560028054849290612a309084906140d6565b90915550506040518281526000906001600160a01b038516907fddf252ad1be2c89b69c2b068fc378daa952ba7f163c4a11628f55a4df523b3ef9060200160405180910390a3505050565b60005b600654811015612ae15760006005600060068481548110612aa157612aa1613dc6565b60009182526020808320909101546001600160a01b031683528201929092526040019020805461ffff191690555080612ad9816140bb565b915050612a7e565b50612aee60066000613449565b6040805142815243602082015233917f712bc71db81927a76b8bf1ea346247bb0ad58f18e4e5c1bd4aa0ec6573e02a2b910160405180910390a2565b600d80546001600160a01b0319166001600160a01b0392909216919091179055565b6040516001600160a01b038085166024830152831660448201526064810182905261277b9085906323b872dd60e01b906084015b60408051601f198184030181529190526020810180516001600160e01b03166001600160e01b0319909316929092179091526131ff565b6000610bdf8284613fa9565b6000610bdf82846140d6565b6040516001600160a01b03831660248201526044810182905261151290849063a9059cbb60e01b90606401612b80565b6001600160a01b03811660009081526005602052604090208054610100900460ff1615612c795760405162461bcd60e51b815260206004820152602260248201527f4552433230526f6c65733a2020414c5245414459204120464545204d414e414760448201526122a960f11b6064820152608401610a6d565b805461ff001916610100178155600680546001810182556000919091527ff652222313e28459528d920b65115c16c04f3efc82aaedc97be59f3f377c0d3f0180546001600160a01b0384166001600160a01b03199091168117909155604080514281524360208201523392917fb17da2e9910b4ba5754e8872385ba315a238bafb5ae221fc85093c33432c40a791016125a5565b60008084600081518110612d2357612d23613dc6565b60200260200101519050600085600181518110612d4257612d42613dc6565b6020026020010151905060006001600160a01b0316826001600160a01b03161415612dc45760405162461bcd60e51b815260206004820152602c60248201527f455243323054656d706c6174653a20496e76616c6964206d696e7465722c202060448201526b7a65726f206164647265737360a01b6064820152608401610a6d565b6001600160a01b038116612e405760405162461bcd60e51b815260206004820152603c60248201527f455243323054656d706c6174653a20496e76616c696420636f6d6d756e69747960448201527f2066656520636f6c6c6563746f722c207a65726f2061646472657373000000006064820152608401610a6d565b84600081518110612e5357612e53613dc6565b602002602001015160001415612eb75760405162461bcd60e51b8152602060048201526024808201527f44617461546f6b656e54656d706c6174653a20496e76616c6964206361702076604482015263616c756560e01b6064820152608401610a6d565b84600081518110612eca57612eca613dc6565b6020026020010151600a8190555087600081518110612eeb57612eeb613dc6565b602002602001015160089080519060200190612f08929190613467565b5087600181518110612f1c57612f1c613dc6565b602002602001015160099080519060200190612f39929190613467565b50600c80546001600160a01b0319166001600160a01b038416179055855186906002908110612f6a57612f6a613dc6565b6020908102919091010151601380546001600160a01b039283166001600160a01b0319909116179055600b80546001600160a81b03191691831691909117600160a01b1790558651612fc79088906000906112ac576112ac613dc6565b60006001600160a01b031687600181518110612fe557612fe5613dc6565b60200260200101516001600160a01b03161461308f5761301e8760018151811061301157613011613dc6565b6020026020010151612b2a565b8660018151811061303157613031613dc6565b60200260200101516001600160a01b0316336001600160a01b03167f4d7694d695c57cc54947177c8e8a0e61aae664e9223492a798c32fadfc6419cc4243604051613086929190918252602082015260400190565b60405180910390a35b866002815181106130a2576130a2613dc6565b6020026020010151600e60006101000a8154816001600160a01b0302191690836001600160a01b03160217905550866003815181106130e3576130e3613dc6565b6020026020010151600f60006101000a8154816001600160a01b0302191690836001600160a01b031602179055508460018151811061312457613124613dc6565b602002602001015160108190555060004690507f8b73c3c69bb8fe3d512ecc4cf759cc79239f7b179b0ffacaa9a75d522b39400f600860405161316791906140ed565b60408051918290038220828201825260018352603160f81b6020938401528151928301939093528101919091527fc89efdaa54c0f20c7adf612882df0950f5a951637e0307cdcb4c672f298b8bc66060820152608081018290523060a082015260c00160408051808303601f1901815291905280516020909101206011555050600b54600160a01b900460ff16979650505050505050565b6000613254826040518060400160405280602081526020017f5361666545524332303a206c6f772d6c6576656c2063616c6c206661696c6564815250856001600160a01b03166132d19092919063ffffffff16565b80519091501561151257808060200190518101906132729190614189565b6115125760405162461bcd60e51b815260206004820152602a60248201527f5361666545524332303a204552433230206f7065726174696f6e20646964206e6044820152691bdd081cdd58d8d9595960b21b6064820152608401610a6d565b60606132e084846000856132e8565b949350505050565b6060824710156133495760405162461bcd60e51b815260206004820152602660248201527f416464726573733a20696e73756666696369656e742062616c616e636520666f6044820152651c8818d85b1b60d21b6064820152608401610a6d565b843b6133975760405162461bcd60e51b815260206004820152601d60248201527f416464726573733a2063616c6c20746f206e6f6e2d636f6e74726163740000006044820152606401610a6d565b600080866001600160a01b031685876040516133b391906141a6565b60006040518083038185875af1925050503d80600081146133f0576040519150601f19603f3d011682016040523d82523d6000602084013e6133f5565b606091505b5091509150613405828286613410565b979650505050505050565b6060831561341f575081610bdf565b82511561342f5782518084602001fd5b8160405162461bcd60e51b8152600401610a6d919061358a565b5080546000825590600052602060002090810190610c7d91906134eb565b82805461347390613c4f565b90600052602060002090601f01602090048101928261349557600085556134db565b82601f106134ae57805160ff19168380011785556134db565b828001600101855582156134db579182015b828111156134db5782518255916020019190600101906134c0565b506134e79291506134eb565b5090565b5b808211156134e757600081556001016134ec565b6001600160a01b0381168114610c7d57600080fd5b60006020828403121561352757600080fd5b8135610bdf81613500565b60005b8381101561354d578181015183820152602001613535565b8381111561277b5750506000910152565b60008151808452613576816020860160208601613532565b601f01601f19169290920160200192915050565b602081526000610bdf602083018461355e565b600080604083850312156135b057600080fd5b82356135bb81613500565b946020939093013593505050565b8015158114610c7d57600080fd5b600080600080600060a086880312156135ef57600080fd5b85356135fa81613500565b945060208601359350604086013592506060860135613618816135c9565b9150608086013561362881613500565b809150509295509295909350565b60008060006060848603121561364b57600080fd5b833561365681613500565b9250602084013561366681613500565b929592945050506040919091013590565b60006020828403121561368957600080fd5b5035919050565b634e487b7160e01b600052604160045260246000fd5b604051601f8201601f1916810167ffffffffffffffff811182821017156136cf576136cf613690565b604052919050565b600067ffffffffffffffff8211156136f1576136f1613690565b5060051b60200190565b600082601f83011261370c57600080fd5b8135602061372161371c836136d7565b6136a6565b82815260059290921b8401810191818101908684111561374057600080fd5b8286015b8481101561375b5780358352918301918301613744565b509695505050505050565b600082601f83011261377757600080fd5b8135602061378761371c836136d7565b82815260059290921b840181019181810190868411156137a657600080fd5b8286015b8481101561375b5780356137bd81613500565b83529183019183016137aa565b6000806000606084860312156137df57600080fd5b833567ffffffffffffffff808211156137f757600080fd5b613803878388016136fb565b9450602086013591508082111561381957600080fd5b613825878388016136fb565b9350604086013591508082111561383b57600080fd5b5061384886828701613766565b9150509250925092565b60008060006060848603121561386757600080fd5b833561387281613500565b9250602084013567ffffffffffffffff8082111561388f57600080fd5b61389b87838801613766565b935060408601359150808211156138b157600080fd5b50613848868287016136fb565b803560ff811681146138cf57600080fd5b919050565b600067ffffffffffffffff8311156138ee576138ee613690565b613901601f8401601f19166020016136a6565b905082815283838301111561391557600080fd5b828260208301376000602084830101529392505050565b600082601f83011261393d57600080fd5b610bdf838335602085016138d4565b60008060008060008060008060006101208a8c03121561396b57600080fd5b893561397681613500565b985060208a0135975060408a013561398d81613500565b965060608a013561399d81613500565b955060808a013594506139b260a08b016138be565b935060c08a0135925060e08a013591506101008a013567ffffffffffffffff8111156139dd57600080fd5b6139e98c828d0161392c565b9150509295985092959850929598565b60008060208385031215613a0c57600080fd5b823567ffffffffffffffff80821115613a2457600080fd5b818501915085601f830112613a3857600080fd5b813581811115613a4757600080fd5b866020828501011115613a5957600080fd5b60209290920196919550909350505050565b60008083601f840112613a7d57600080fd5b50813567ffffffffffffffff811115613a9557600080fd5b6020830191508360208260051b8501011115613ab057600080fd5b9250929050565b60008060008060008060008060008060a08b8d031215613ad657600080fd5b8a3567ffffffffffffffff80821115613aee57600080fd5b613afa8e838f01613a6b565b909c509a5060208d0135915080821115613b1357600080fd5b613b1f8e838f01613a6b565b909a50985060408d0135915080821115613b3857600080fd5b613b448e838f01613a6b565b909850965060608d0135915080821115613b5d57600080fd5b613b698e838f01613a6b565b909650945060808d0135915080821115613b8257600080fd5b50613b8f8d828e01613a6b565b915080935050809150509295989b9194979a5092959850565b600080600080600080600060e0888a031215613bc357600080fd5b8735613bce81613500565b96506020880135613bde81613500565b95506040880135945060608801359350613bfa608089016138be565b925060a0880135915060c0880135905092959891949750929550565b60008060408385031215613c2957600080fd5b8235613c3481613500565b91506020830135613c4481613500565b809150509250929050565b600181811c90821680613c6357607f821691505b60208210811415613c8457634e487b7160e01b600052602260045260246000fd5b50919050565b600060808284031215613c9c57600080fd5b6040516080810181811067ffffffffffffffff82111715613cbf57613cbf613690565b6040528251613ccd816135c9565b81526020830151613cdd816135c9565b60208201526040830151613cf0816135c9565b60408201526060830151613d03816135c9565b60608201529392505050565b6020808252818101527f455243323054656d706c6174653a204e4f54204445504c4f59455220524f4c45604082015260600190565b6020808252601f908201527f5265656e7472616e637947756172643a207265656e7472616e742063616c6c00604082015260600190565b634e487b7160e01b600052601160045260246000fd5b60008219821115613da457613da4613d7b565b500190565b600060208284031215613dbb57600080fd5b8151610bdf81613500565b634e487b7160e01b600052603260045260246000fd5b600081518084526020808501945080840160005b83811015613e0c57815187529582019590820190600101613df0565b509495945050505050565b600081518084526020808501945080840160005b83811015613e0c5781516001600160a01b031687529582019590820190600101613e2b565b60008186825b6002811015613e7e5781516001600160a01b0316835260209283019290910190600101613e56565b50505060a06040830152613e9560a0830186613ddc565b8281036060840152613ea78186613ddc565b905082810360808401526134058185613e17565b6001600160a01b0384168152606060208201819052600090613edf90830185613e17565b8281036040840152613ef18185613ddc565b9695505050505050565b600060208284031215613f0d57600080fd5b5051919050565b60008551613f26818460208a01613532565b6bffffffffffffffffffffffff19606096871b8116919093019081529390941b166014830152602882015260480192915050565b8281526040602082015260006132e0604083018461355e565b83815260406020820152816040820152818360608301376000818301606090810191909152601f909201601f1916010192915050565b600082613fc657634e487b7160e01b600052601260045260246000fd5b500490565b6000613fd961371c846136d7565b80848252602080830192508560051b850136811115613ff757600080fd5b855b8181101561404757803567ffffffffffffffff8111156140195760008081fd5b870136601f82011261402b5760008081fd5b6140393682358684016138d4565b865250938201938201613ff9565b50919695505050505050565b600061406161371c846136d7565b80848252602080830192508560051b85013681111561407f57600080fd5b855b8181101561404757803567ffffffffffffffff8111156140a15760008081fd5b6140ad36828a0161392c565b865250938201938201614081565b60006000198214156140cf576140cf613d7b565b5060010190565b6000828210156140e8576140e8613d7b565b500390565b600080835481600182811c91508083168061410957607f831692505b602080841082141561412957634e487b7160e01b86526022600452602486fd5b81801561413d576001811461414e5761417b565b60ff1986168952848901965061417b565b60008a81526020902060005b868110156141735781548b82015290850190830161415a565b505084890196505b509498975050505050505050565b60006020828403121561419b57600080fd5b8151610bdf816135c9565b600082516141b8818460208701613532565b919091019291505056fea2646970667358221220c1202f342833f546f09ce846a0a187dd9703a1ed7ea0018558eee6398004ec7564736f6c634300080a0033",
  "linkReferences": {},
  "deployedLinkReferences": {}
}