{
  "_format": "hh-sol-artifact-1",
  "contractName": "ERC20Template",
  "sourceName": "contracts/templates/ERC20Template.sol",
  "abi": [
    {
      "anonymous": false,
      "inputs": [
        {
          "indexed": true,
          "internalType": "address",
          "name": "owner",
          "type": "address"
        },
        {
          "indexed": true,
          "internalType": "address",
          "name": "spender",
          "type": "address"
        },
        {
          "indexed": false,
          "internalType": "uint256",
          "name": "value",
          "type": "uint256"
        }
      ],
      "name": "Approval",
      "type": "event"
    },
    {
      "anonymous": false,
      "inputs": [
        {
          "indexed": false,
          "internalType": "address",
          "name": "currentMinter",
          "type": "address"
        },
        {
          "indexed": false,
          "internalType": "address",
          "name": "newMinter",
          "type": "address"
        }
      ],
      "name": "MinterApproved",
      "type": "event"
    },
    {
      "anonymous": false,
      "inputs": [
        {
          "indexed": false,
          "internalType": "address",
          "name": "currentMinter",
          "type": "address"
        },
        {
          "indexed": false,
          "internalType": "address",
          "name": "newMinter",
          "type": "address"
        }
      ],
      "name": "MinterProposed",
      "type": "event"
    },
    {
      "anonymous": false,
      "inputs": [
        {
          "indexed": false,
          "internalType": "address",
          "name": "poolAddress",
          "type": "address"
        },
        {
          "indexed": false,
          "internalType": "address",
          "name": "ssContract",
          "type": "address"
        },
        {
          "indexed": false,
          "internalType": "address",
          "name": "basetokenAddress",
          "type": "address"
        }
      ],
      "name": "NewPool",
      "type": "event"
    },
    {
      "anonymous": false,
      "inputs": [
        {
          "indexed": false,
          "internalType": "bytes32",
          "name": "orderTxId",
          "type": "bytes32"
        },
        {
          "indexed": true,
          "internalType": "address",
          "name": "consumer",
          "type": "address"
        },
        {
          "indexed": false,
          "internalType": "uint256",
          "name": "amount",
          "type": "uint256"
        },
        {
          "indexed": false,
          "internalType": "uint256",
          "name": "serviceId",
          "type": "uint256"
        },
        {
          "indexed": true,
          "internalType": "address",
          "name": "provider",
          "type": "address"
        },
        {
          "indexed": false,
          "internalType": "uint256",
          "name": "timestamp",
          "type": "uint256"
        }
      ],
      "name": "OrderFinished",
      "type": "event"
    },
    {
      "anonymous": false,
      "inputs": [
        {
          "indexed": true,
          "internalType": "address",
          "name": "consumer",
          "type": "address"
        },
        {
          "indexed": true,
          "internalType": "address",
          "name": "payer",
          "type": "address"
        },
        {
          "indexed": false,
          "internalType": "uint256",
          "name": "amount",
          "type": "uint256"
        },
        {
          "indexed": false,
          "internalType": "uint256",
          "name": "serviceId",
          "type": "uint256"
        },
        {
          "indexed": false,
          "internalType": "uint256",
          "name": "timestamp",
          "type": "uint256"
        },
        {
          "indexed": true,
          "internalType": "address",
          "name": "mrktFeeCollector",
          "type": "address"
        },
        {
          "indexed": false,
          "internalType": "uint256",
          "name": "marketFee",
          "type": "uint256"
        }
      ],
      "name": "OrderStarted",
      "type": "event"
    },
    {
      "anonymous": false,
      "inputs": [
        {
          "indexed": true,
          "internalType": "address",
          "name": "from",
          "type": "address"
        },
        {
          "indexed": true,
          "internalType": "address",
          "name": "to",
          "type": "address"
        },
        {
          "indexed": false,
          "internalType": "uint256",
          "name": "value",
          "type": "uint256"
        }
      ],
      "name": "Transfer",
      "type": "event"
    },
    {
      "inputs": [],
      "name": "BASE",
      "outputs": [
        {
          "internalType": "uint256",
          "name": "",
          "type": "uint256"
        }
      ],
      "stateMutability": "view",
      "type": "function"
    },
    {
      "inputs": [],
      "name": "BASE_COMMUNITY_FEE_PERCENTAGE",
      "outputs": [
        {
          "internalType": "uint256",
          "name": "",
          "type": "uint256"
        }
      ],
      "stateMutability": "view",
      "type": "function"
    },
    {
      "inputs": [],
      "name": "BASE_MARKET_FEE_PERCENTAGE",
      "outputs": [
        {
          "internalType": "uint256",
          "name": "",
          "type": "uint256"
        }
      ],
      "stateMutability": "view",
      "type": "function"
    },
    {
      "inputs": [],
      "name": "DOMAIN_SEPARATOR",
      "outputs": [
        {
          "internalType": "bytes32",
          "name": "",
          "type": "bytes32"
        }
      ],
      "stateMutability": "view",
      "type": "function"
    },
    {
      "inputs": [],
      "name": "PERMIT_TYPEHASH",
      "outputs": [
        {
          "internalType": "bytes32",
          "name": "",
          "type": "bytes32"
        }
      ],
      "stateMutability": "view",
      "type": "function"
    },
    {
      "inputs": [
        {
          "internalType": "address",
          "name": "_feeManager",
          "type": "address"
        }
      ],
      "name": "addFeeManager",
      "outputs": [],
      "stateMutability": "nonpayable",
      "type": "function"
    },
    {
      "inputs": [
        {
          "internalType": "address",
          "name": "owner",
          "type": "address"
        },
        {
          "internalType": "address",
          "name": "spender",
          "type": "address"
        }
      ],
      "name": "allowance",
      "outputs": [
        {
          "internalType": "uint256",
          "name": "",
          "type": "uint256"
        }
      ],
      "stateMutability": "view",
      "type": "function"
    },
    {
      "inputs": [
        {
          "internalType": "address",
          "name": "spender",
          "type": "address"
        },
        {
          "internalType": "uint256",
          "name": "amount",
          "type": "uint256"
        }
      ],
      "name": "approve",
      "outputs": [
        {
          "internalType": "bool",
          "name": "",
          "type": "bool"
        }
      ],
      "stateMutability": "nonpayable",
      "type": "function"
    },
    {
      "inputs": [
        {
          "internalType": "uint256",
          "name": "",
          "type": "uint256"
        }
      ],
      "name": "authERC20",
      "outputs": [
        {
          "internalType": "address",
          "name": "",
          "type": "address"
        }
      ],
      "stateMutability": "view",
      "type": "function"
    },
    {
      "inputs": [
        {
          "internalType": "address",
          "name": "account",
          "type": "address"
        }
      ],
      "name": "balanceOf",
      "outputs": [
        {
          "internalType": "uint256",
          "name": "",
          "type": "uint256"
        }
      ],
      "stateMutability": "view",
      "type": "function"
    },
    {
      "inputs": [],
      "name": "cap",
      "outputs": [
        {
          "internalType": "uint256",
          "name": "",
          "type": "uint256"
        }
      ],
      "stateMutability": "view",
      "type": "function"
    },
    {
      "inputs": [],
      "name": "cleanFrom721",
      "outputs": [],
      "stateMutability": "nonpayable",
      "type": "function"
    },
    {
      "inputs": [],
      "name": "cleanPermissions",
      "outputs": [],
      "stateMutability": "nonpayable",
      "type": "function"
    },
    {
      "inputs": [],
      "name": "decimals",
      "outputs": [
        {
          "internalType": "uint8",
          "name": "",
          "type": "uint8"
        }
      ],
      "stateMutability": "pure",
      "type": "function"
    },
    {
      "inputs": [
        {
          "internalType": "address",
          "name": "spender",
          "type": "address"
        },
        {
          "internalType": "uint256",
          "name": "subtractedValue",
          "type": "uint256"
        }
      ],
      "name": "decreaseAllowance",
      "outputs": [
        {
          "internalType": "bool",
          "name": "",
          "type": "bool"
        }
      ],
      "stateMutability": "nonpayable",
      "type": "function"
    },
    {
      "inputs": [
        {
          "internalType": "address",
          "name": "controller",
          "type": "address"
        },
        {
          "internalType": "address",
          "name": "basetokenAddress",
          "type": "address"
        },
        {
          "internalType": "uint256",
          "name": "burnInEndBlock",
          "type": "uint256"
        },
        {
          "internalType": "uint256[]",
          "name": "ssParams",
          "type": "uint256[]"
        },
        {
          "internalType": "address",
          "name": "basetokenSender",
          "type": "address"
        }
      ],
      "name": "deployPool",
      "outputs": [],
      "stateMutability": "nonpayable",
      "type": "function"
    },
    {
      "inputs": [
        {
          "internalType": "bytes32[]",
          "name": "orderTxIds",
          "type": "bytes32[]"
        },
        {
          "internalType": "address[]",
          "name": "consumers",
          "type": "address[]"
        },
        {
          "internalType": "uint256[]",
          "name": "amounts",
          "type": "uint256[]"
        },
        {
          "internalType": "uint256[]",
          "name": "serviceIds",
          "type": "uint256[]"
        }
      ],
      "name": "finishMultipleOrder",
      "outputs": [],
      "stateMutability": "nonpayable",
      "type": "function"
    },
    {
      "inputs": [
        {
          "internalType": "bytes32",
          "name": "orderTxId",
          "type": "bytes32"
        },
        {
          "internalType": "address",
          "name": "consumer",
          "type": "address"
        },
        {
          "internalType": "uint256",
          "name": "amount",
          "type": "uint256"
        },
        {
          "internalType": "uint256",
          "name": "serviceId",
          "type": "uint256"
        }
      ],
      "name": "finishOrder",
      "outputs": [],
      "stateMutability": "nonpayable",
      "type": "function"
    },
    {
      "inputs": [],
      "name": "getFeeCollector",
      "outputs": [
        {
          "internalType": "address",
          "name": "",
          "type": "address"
        }
      ],
      "stateMutability": "view",
      "type": "function"
    },
    {
      "inputs": [],
      "name": "getId",
      "outputs": [
        {
          "internalType": "uint8",
          "name": "",
          "type": "uint8"
        }
      ],
      "stateMutability": "pure",
      "type": "function"
    },
    {
      "inputs": [
        {
          "internalType": "address",
          "name": "spender",
          "type": "address"
        },
        {
          "internalType": "uint256",
          "name": "addedValue",
          "type": "uint256"
        }
      ],
      "name": "increaseAllowance",
      "outputs": [
        {
          "internalType": "bool",
          "name": "",
          "type": "bool"
        }
      ],
      "stateMutability": "nonpayable",
      "type": "function"
    },
    {
      "inputs": [
        {
          "internalType": "string",
          "name": "name_",
          "type": "string"
        },
        {
          "internalType": "string",
          "name": "symbol_",
          "type": "string"
        },
        {
          "internalType": "address",
          "name": "erc721Address",
          "type": "address"
        },
        {
          "internalType": "uint256",
          "name": "cap_",
          "type": "uint256"
        },
        {
          "internalType": "address",
          "name": "communityFeeCollector",
          "type": "address"
        },
        {
          "internalType": "address",
          "name": "minter",
          "type": "address"
        },
        {
          "internalType": "address",
          "name": "router_",
          "type": "address"
        }
      ],
      "name": "initialize",
      "outputs": [
        {
          "internalType": "bool",
          "name": "",
          "type": "bool"
        }
      ],
      "stateMutability": "nonpayable",
      "type": "function"
    },
    {
      "inputs": [],
      "name": "isInitialized",
      "outputs": [
        {
          "internalType": "bool",
          "name": "",
          "type": "bool"
        }
      ],
      "stateMutability": "view",
      "type": "function"
    },
    {
      "inputs": [
        {
          "internalType": "address",
          "name": "account",
          "type": "address"
        },
        {
          "internalType": "uint256",
          "name": "value",
          "type": "uint256"
        }
      ],
      "name": "mint",
      "outputs": [],
      "stateMutability": "nonpayable",
      "type": "function"
    },
    {
      "inputs": [],
      "name": "name",
      "outputs": [
        {
          "internalType": "string",
          "name": "",
          "type": "string"
        }
      ],
      "stateMutability": "view",
      "type": "function"
    },
    {
      "inputs": [
        {
          "internalType": "address",
          "name": "",
          "type": "address"
        }
      ],
      "name": "nonces",
      "outputs": [
        {
          "internalType": "uint256",
          "name": "",
          "type": "uint256"
        }
      ],
      "stateMutability": "view",
      "type": "function"
    },
    {
      "inputs": [
        {
          "internalType": "address",
          "name": "",
          "type": "address"
        }
      ],
      "name": "permissions",
      "outputs": [
        {
          "internalType": "bool",
          "name": "minter",
          "type": "bool"
        },
        {
          "internalType": "bool",
          "name": "feeManager",
          "type": "bool"
        }
      ],
      "stateMutability": "view",
      "type": "function"
    },
    {
      "inputs": [
        {
          "internalType": "address",
          "name": "owner",
          "type": "address"
        },
        {
          "internalType": "address",
          "name": "spender",
          "type": "address"
        },
        {
          "internalType": "uint256",
          "name": "value",
          "type": "uint256"
        },
        {
          "internalType": "uint256",
          "name": "deadline",
          "type": "uint256"
        },
        {
          "internalType": "uint8",
          "name": "v",
          "type": "uint8"
        },
        {
          "internalType": "bytes32",
          "name": "r",
          "type": "bytes32"
        },
        {
          "internalType": "bytes32",
          "name": "s",
          "type": "bytes32"
        }
      ],
      "name": "permit",
      "outputs": [],
      "stateMutability": "nonpayable",
      "type": "function"
    },
    {
      "inputs": [
        {
          "internalType": "address",
          "name": "_feeManager",
          "type": "address"
        }
      ],
      "name": "removeFeeManager",
      "outputs": [],
      "stateMutability": "nonpayable",
      "type": "function"
    },
    {
      "inputs": [],
      "name": "router",
      "outputs": [
        {
          "internalType": "address",
          "name": "",
          "type": "address"
        }
      ],
      "stateMutability": "view",
      "type": "function"
    },
    {
      "inputs": [
        {
          "internalType": "bytes",
          "name": "_value",
          "type": "bytes"
        }
      ],
      "name": "setData",
      "outputs": [],
      "stateMutability": "nonpayable",
      "type": "function"
    },
    {
      "inputs": [
        {
          "internalType": "address",
          "name": "_newFeeCollector",
          "type": "address"
        }
      ],
      "name": "setFeeCollector",
      "outputs": [],
      "stateMutability": "nonpayable",
      "type": "function"
    },
    {
      "inputs": [
        {
          "internalType": "address[]",
          "name": "consumers",
          "type": "address[]"
        },
        {
          "internalType": "uint256[]",
          "name": "amounts",
          "type": "uint256[]"
        },
        {
          "internalType": "uint256[]",
          "name": "serviceIds",
          "type": "uint256[]"
        },
        {
          "internalType": "address[]",
          "name": "mrktFeeCollectors",
          "type": "address[]"
        },
        {
          "internalType": "address[]",
          "name": "feeTokens",
          "type": "address[]"
        },
        {
          "internalType": "uint256[]",
          "name": "feeAmounts",
          "type": "uint256[]"
        }
      ],
      "name": "startMultipleOrder",
      "outputs": [],
      "stateMutability": "nonpayable",
      "type": "function"
    },
    {
      "inputs": [
        {
          "internalType": "address",
          "name": "consumer",
          "type": "address"
        },
        {
          "internalType": "uint256",
          "name": "amount",
          "type": "uint256"
        },
        {
          "internalType": "uint256",
          "name": "serviceId",
          "type": "uint256"
        },
        {
          "internalType": "address",
          "name": "mrktFeeCollector",
          "type": "address"
        },
        {
          "internalType": "address",
          "name": "feeToken",
          "type": "address"
        },
        {
          "internalType": "uint256",
          "name": "feeAmount",
          "type": "uint256"
        }
      ],
      "name": "startOrder",
      "outputs": [],
      "stateMutability": "nonpayable",
      "type": "function"
    },
    {
      "inputs": [],
      "name": "symbol",
      "outputs": [
        {
          "internalType": "string",
          "name": "",
          "type": "string"
        }
      ],
      "stateMutability": "view",
      "type": "function"
    },
    {
      "inputs": [],
      "name": "totalSupply",
      "outputs": [
        {
          "internalType": "uint256",
          "name": "",
          "type": "uint256"
        }
      ],
      "stateMutability": "view",
      "type": "function"
    },
    {
      "inputs": [
        {
          "internalType": "address",
          "name": "recipient",
          "type": "address"
        },
        {
          "internalType": "uint256",
          "name": "amount",
          "type": "uint256"
        }
      ],
      "name": "transfer",
      "outputs": [
        {
          "internalType": "bool",
          "name": "",
          "type": "bool"
        }
      ],
      "stateMutability": "nonpayable",
      "type": "function"
    },
    {
      "inputs": [
        {
          "internalType": "address",
          "name": "sender",
          "type": "address"
        },
        {
          "internalType": "address",
          "name": "recipient",
          "type": "address"
        },
        {
          "internalType": "uint256",
          "name": "amount",
          "type": "uint256"
        }
      ],
      "name": "transferFrom",
      "outputs": [
        {
          "internalType": "bool",
          "name": "",
          "type": "bool"
        }
      ],
      "stateMutability": "nonpayable",
      "type": "function"
    }
  ],
  "bytecode": "0x6080604052600a805460ff60a01b191690553480156200001e57600080fd5b5060408051808201825260048152631d195cdd60e21b60208083019182528351808501909452600a8452691d195cdd14de5b589bdb60b21b9084015281519192916200006d916003916200008c565b508051620000839060049060208401906200008c565b5050506200016f565b8280546200009a9062000132565b90600052602060002090601f016020900481019282620000be576000855562000109565b82601f10620000d957805160ff191683800117855562000109565b8280016001018555821562000109579182015b8281111562000109578251825591602001919060010190620000ec565b50620001179291506200011b565b5090565b5b808211156200011757600081556001016200011c565b6002810460018216806200014757607f821691505b602082108114156200016957634e487b7160e01b600052602260045260246000fd5b50919050565b6134b5806200017f6000396000f3fe608060405234801561001057600080fd5b50600436106102325760003560e01c80635d1ca63111610130578063a9059cbb116100b8578063e995e7351161007c578063e995e73514610462578063ec342ad014610475578063ef867ff41461047d578063f887ea4014610490578063fda9dae71461049857610232565b8063a9059cbb14610416578063ab62f0e114610429578063b2263a5d1461030e578063d505accf1461043c578063dd62ed3e1461044f57610232565b806382c03da5116100ff57806382c03da5146103cd5780638ca0c059146103d557806395d89b41146103e8578063a42dce80146103f0578063a457c2d71461040357610232565b80635d1ca6311461038c57806370a08231146103945780637ecebe00146103a75780638115c9cc146103ba57610232565b8063294541c7116101be578063392e53cd11610182578063392e53cd14610343578063395093511461034b5780633ed42b6d1461035e57806340c10f19146103715780634f189cb21461038457610232565b8063294541c71461030e57806330adf81f14610316578063313ce5671461031e578063355274ea146103335780633644e5151461033b57610232565b806312fde4b71161020557806312fde4b7146102ab57806318160ddd146102c05780631f07c181146102d55780631f2d32c3146102e857806323b872dd146102fb57610232565b806301e882081461023757806306fdde0314610261578063095ea7b3146102765780630e744e2e14610296575b600080fd5b61024a6102453660046123cb565b6104ab565b604051610258929190612be3565b60405180910390f35b6102696104c9565b6040516102589190612ccd565b61028961028436600461256f565b61055c565b6040516102589190612bd8565b6102a96102a43660046126ee565b61057a565b005b6102b3610858565b6040516102589190612ac3565b6102c8610905565b6040516102589190612bf5565b6102a96102e336600461247b565b61090b565b6102a96102f63660046123cb565b610afd565b61028961030936600461243b565b610bb7565b6102c8610c4e565b6102c8610c65565b610326610c89565b6040516102589190613312565b6102c8610c8e565b6102c8610c94565b610289610c9a565b61028961035936600461256f565b610caa565b6102a961036c366004612600565b610cf9565b6102a961037f36600461256f565b611159565b6102a96111f0565b6103266112bb565b6102c86103a23660046123cb565b6112c0565b6102c86103b53660046123cb565b6112df565b6102a96103c83660046123cb565b6112f1565b6102a96113a7565b6102a96103e33660046127c7565b6113d1565b610269611454565b6102a96103fe3660046123cb565b611463565b61028961041136600461256f565b6114d9565b61028961042436600461256f565b611554565b6102a9610437366004612803565b611568565b6102a961044a3660046124fa565b6116a1565b6102c861045d366004612403565b61181c565b610289610470366004612843565b611847565b6102c86118fc565b6102b361048b366004612980565b611908565b6102b3611932565b6102a96104a636600461259a565b611941565b60056020526000908152604090205460ff8082169161010090041682565b6060600780546104d8906133e8565b80601f0160208091040260200160405190810160405280929190818152602001828054610504906133e8565b80156105515780601f1061052657610100808354040283529160200191610551565b820191906000526020600020905b81548152906001019060200180831161053457829003601f168201915b505050505090505b90565b6000610570610569611abf565b8484611ac3565b5060015b92915050565b6040805160208088028281018201909352878252839283926105b99290918b918b918291850190849080828437600092019190915250611b7792505050565b146105df5760405162461bcd60e51b81526004016105d690612e2a565b60405180910390fd5b8061061c868680806020026020016040519081016040528093929190818152602001838360200280828437600092019190915250611b7792505050565b146106395760405162461bcd60e51b81526004016105d690612e2a565b806106768a8a80806020026020016040519081016040528093929190818152602001838360200280828437600092019190915250611b7792505050565b146106935760405162461bcd60e51b81526004016105d690612e2a565b60005b8181101561084c578585828181106106be57634e487b7160e01b600052603260045260246000fd5b9050602002013560001461074c576107308888838181106106ef57634e487b7160e01b600052603260045260246000fd5b905060200201602081019061070491906123cb565b87878481811061072457634e487b7160e01b600052603260045260246000fd5b90506020020135611554565b61074c5760405162461bcd60e51b81526004016105d690612f0b565b3388888381811061076d57634e487b7160e01b600052603260045260246000fd5b905060200201602081019061078291906123cb565b6001600160a01b03167f46872661d5d7765097d3a97ca99b7cbfa68b54b6d51904168974901ee607a26d8c8c858181106107cc57634e487b7160e01b600052603260045260246000fd5b905060200201358989868181106107f357634e487b7160e01b600052603260045260246000fd5b9050602002013588888781811061081a57634e487b7160e01b600052603260045260246000fd5b90506020020135426040516108329493929190612c94565b60405180910390a38061084481613423565b915050610696565b50505050505050505050565b600c546000906001600160a01b03166108f357600b546040516331a9108f60e11b81526001600160a01b0390911690636352211e9061089c90600190600401612bf5565b60206040518083038186803b1580156108b457600080fd5b505afa1580156108c8573d6000803e3d6000fd5b505050506040513d601f19601f820116820180604052508101906108ec91906123e7565b9050610559565b50600c546001600160a01b0316610559565b60025490565b600b54604051639e26811960e01b81526000916001600160a01b031690639e2681199061093c903390600401612ac3565b608060405180830381600087803b15801561095657600080fd5b505af115801561096a573d6000803e3d6000fd5b505050506040513d601f19601f8201168201806040525081019061098e9190612904565b90508060200151151560011515146109b85760405162461bcd60e51b81526004016105d690612fa5565b6109c0610905565b156109dd5760405162461bcd60e51b81526004016105d6906131be565b6109e686611b7b565b600f5460408051808201909152600e81526d726f75746572206164647265737360901b6020820152610a21916001600160a01b031690611c12565b600f54600b5460405163db7a971760e01b81526000926001600160a01b039081169263db7a971792610a65928c9230928d92909116908c908c908c90600401612afa565b602060405180830381600087803b158015610a7f57600080fd5b505af1158015610a93573d6000803e3d6000fd5b505050506040513d601f19601f82011682018060405250810190610ab791906123e7565b90507fd02da1bec30f7f750aa0a131745dfb9ce96767c45a192dc26409f5d690e0b967818888604051610aec93929190612ad7565b60405180910390a150505050505050565b600b54604051639e26811960e01b81526000916001600160a01b031690639e26811990610b2e903390600401612ac3565b608060405180830381600087803b158015610b4857600080fd5b505af1158015610b5c573d6000803e3d6000fd5b505050506040513d601f19601f82011682018060405250810190610b809190612904565b9050806020015115156001151514610baa5760405162461bcd60e51b81526004016105d690612fa5565b610bb382611c57565b5050565b6000610bc4848484611cf6565b6001600160a01b038416600090815260016020526040812081610be5611abf565b6001600160a01b03166001600160a01b0316815260200190815260200160002054905082811015610c285760405162461bcd60e51b81526004016105d69061301e565b610c4385610c34611abf565b610c3e86856133d1565b611ac3565b506001949350505050565b610c626103e8670de0b6b3a7640000613392565b81565b7f6e71edae12b1b97f4d1f60370fef10105fa2faae0126114a169c64845d6126c981565b601290565b60095490565b600d5481565b600a54600160a01b900460ff1690565b6000610570610cb7611abf565b848460016000610cc5611abf565b6001600160a01b03908116825260208083019390935260409182016000908120918b1681529252902054610c3e919061337a565b835180610d0588611b77565b14610d225760405162461bcd60e51b81526004016105d690612e2a565b80610d2c87611b77565b14610d495760405162461bcd60e51b81526004016105d690612e2a565b80610d5385611b77565b14610d705760405162461bcd60e51b81526004016105d690612e2a565b80610d7a83611b77565b14610d975760405162461bcd60e51b81526004016105d690612e2a565b80610da184611b77565b14610dbe5760405162461bcd60e51b81526004016105d690612e2a565b60005b8181101561114f576000838281518110610deb57634e487b7160e01b600052603260045260246000fd5b60200260200101511115610ef257838181518110610e1957634e487b7160e01b600052603260045260246000fd5b60200260200101516001600160a01b03166323b872dd33878481518110610e5057634e487b7160e01b600052603260045260246000fd5b6020026020010151868581518110610e7857634e487b7160e01b600052603260045260246000fd5b60200260200101516040518463ffffffff1660e01b8152600401610e9e93929190612b88565b602060405180830381600087803b158015610eb857600080fd5b505af1158015610ecc573d6000803e3d6000fd5b505050506040513d601f19601f82011682018060405250810190610ef091906127ad565b505b600080610f3b898481518110610f1857634e487b7160e01b600052603260045260246000fd5b60200260200101516103e8670de0b6b3a7640000610f369190613392565b611e10565b600a54909150610f54906001600160a01b031682611554565b5060006001600160a01b0316878481518110610f8057634e487b7160e01b600052603260045260246000fd5b60200260200101516001600160a01b031614610fee57610fb9898481518110610f1857634e487b7160e01b600052603260045260246000fd5b9150610fec878481518110610fde57634e487b7160e01b600052603260045260246000fd5b602002602001015183611554565b505b6000610ffa8284611e4f565b9050611041611007610858565b610424838d888151811061102b57634e487b7160e01b600052603260045260246000fd5b6020026020010151611e5b90919063ffffffff16565b5087848151811061106257634e487b7160e01b600052603260045260246000fd5b60200260200101516001600160a01b0316336001600160a01b03168c868151811061109d57634e487b7160e01b600052603260045260246000fd5b60200260200101516001600160a01b03167fe1c4fa794edfa8f619b8257a077398950357b9c6398528f94480307352f9afcc8d88815181106110ef57634e487b7160e01b600052603260045260246000fd5b60200260200101518d898151811061111757634e487b7160e01b600052603260045260246000fd5b602002602001015142896040516111319493929190612c94565b60405180910390a4505050808061114790613423565b915050610dc1565b5050505050505050565b3360009081526005602090815260409182902082518084019093525460ff8082161515808552610100909204161515918301919091526001146111ae5760405162461bcd60e51b81526004016105d690613090565b6009546111c3836111bd610905565b90611e4f565b11156111e15760405162461bcd60e51b81526004016105d690613187565b6111eb8383611e67565b505050565b600b546040516331a9108f60e11b81526001600160a01b0390911690636352211e9061122190600190600401612bf5565b60206040518083038186803b15801561123957600080fd5b505afa15801561124d573d6000803e3d6000fd5b505050506040513d601f19601f8201168201806040525081019061127191906123e7565b6001600160a01b0316336001600160a01b0316146112a15760405162461bcd60e51b81526004016105d69061310c565b6112a9611f27565b600c80546001600160a01b0319169055565b600190565b6001600160a01b0381166000908152602081905260409020545b919050565b600e6020526000908152604090205481565b600b54604051639e26811960e01b81526000916001600160a01b031690639e26811990611322903390600401612ac3565b608060405180830381600087803b15801561133c57600080fd5b505af1158015611350573d6000803e3d6000fd5b505050506040513d601f19601f820116820180604052508101906113749190612904565b905080602001511515600115151461139e5760405162461bcd60e51b81526004016105d690612fa5565b610bb382611faa565b600b546001600160a01b031633146112a15760405162461bcd60e51b81526004016105d690612ed4565b81156113fd576113e18383611554565b6113fd5760405162461bcd60e51b81526004016105d690612f0b565b336001600160a01b0316836001600160a01b03167f46872661d5d7765097d3a97ca99b7cbfa68b54b6d51904168974901ee607a26d868585426040516114469493929190612c94565b60405180910390a350505050565b6060600880546104d8906133e8565b3360009081526005602090815260409182902082518084019093525460ff808216151584526101009091041615159082018190526001146114b65760405162461bcd60e51b81526004016105d690612ce0565b50600c80546001600160a01b0319166001600160a01b0392909216919091179055565b600080600160006114e8611abf565b6001600160a01b03908116825260208083019390935260409182016000908120918816815292529020549050828110156115345760405162461bcd60e51b81526004016105d690613296565b61154a61153f611abf565b85610c3e86856133d1565b5060019392505050565b6000610570611561611abf565b8484611cf6565b600b54604051639e26811960e01b81526000916001600160a01b031690639e26811990611599903390600401612ac3565b608060405180830381600087803b1580156115b357600080fd5b505af11580156115c7573d6000803e3d6000fd5b505050506040513d601f19601f820116820180604052508101906115eb9190612904565b90508060200151151560011515146116155760405162461bcd60e51b81526004016105d690612fa5565b60003060405160200161162891906129f0565b60408051601f19818403018152908290528051602090910120600b546301caf8fd60e31b83529092506001600160a01b031690630e57c7e89061167390849088908890600401612c5e565b600060405180830381600087803b15801561168d57600080fd5b505af115801561114f573d6000803e3d6000fd5b428410156116c15760405162461bcd60e51b81526004016105d690613066565b600d546001600160a01b0388166000908152600e6020526040812080549192917f6e71edae12b1b97f4d1f60370fef10105fa2faae0126114a169c64845d6126c9918b918b918b91908761171483613423565b919050558a60405160200161172e96959493929190612bfe565b60405160208183030381529060405280519060200120604051602001611755929190612aa8565b6040516020818303038152906040528051906020012090506000600182868686604051600081526020016040526040516117929493929190612caf565b6020604051602081039080840390855afa1580156117b4573d6000803e3d6000fd5b5050604051601f1901519150506001600160a01b038116158015906117ea5750886001600160a01b0316816001600160a01b0316145b6118065760405162461bcd60e51b81526004016105d69061325f565b611811898989611ac3565b505050505050505050565b6001600160a01b03918216600090815260016020908152604080832093909416825291909152205490565b600a54600090600160a01b900460ff16156118745760405162461bcd60e51b81526004016105d690612f54565b6118ee8a8a8080601f01602080910402602001604051908101604052809392919081815260200183838082843760009201919091525050604080516020601f8e018190048102820181019092528c815292508c91508b90819084018382808284376000920191909152508b92508a91508990508888611fcc565b9a9950505050505050505050565b670de0b6b3a764000081565b6006818154811061191857600080fd5b6000918252602090912001546001600160a01b0316905081565b600f546001600160a01b031681565b80156119cb576040516323b872dd60e01b81526001600160a01b038316906323b872dd9061197790339087908690600401612b88565b602060405180830381600087803b15801561199157600080fd5b505af11580156119a5573d6000803e3d6000fd5b505050506040513d601f19601f820116820180604052508101906119c991906127ad565b505b6000806119e687610f366103e8670de0b6b3a7640000613392565b600a549091506119ff906001600160a01b031682611554565b506001600160a01b03851615611a3557611a2787610f366103e8670de0b6b3a7640000613392565b9150611a338583611554565b505b6000611a418284611e4f565b9050611a58611a4e610858565b6104248a84611e5b565b50856001600160a01b0316336001600160a01b03168a6001600160a01b03167fe1c4fa794edfa8f619b8257a077398950357b9c6398528f94480307352f9afcc8b8b4289604051611aac9493929190612c94565b60405180910390a4505050505050505050565b3390565b6001600160a01b038316611ae95760405162461bcd60e51b81526004016105d690613143565b6001600160a01b038216611b0f5760405162461bcd60e51b81526004016105d690612de8565b6001600160a01b0380841660008181526001602090815260408083209487168084529490915290819020849055517f8c5be1e5ebec7d5bd14f71427d1e84f3dd0314c0f7b2291e5b200ac8c7c3b92590611b6a908590612bf5565b60405180910390a3505050565b5190565b6001600160a01b0381166000908152600560205260409020805460ff1615611bb55760405162461bcd60e51b81526004016105d690612e57565b805460ff191660019081179091556006805491820181556000527ff652222313e28459528d920b65115c16c04f3efc82aaedc97be59f3f377c0d3f0180546001600160a01b039092166001600160a01b0319909216919091179055565b610bb38282604051602401611c28929190612bac565b60408051601f198184030181529190526020810180516001600160e01b031663759f86bb60e01b179052612170565b6001600160a01b03811660009081526005602052604090208054610100900460ff1615611c965760405162461bcd60e51b81526004016105d690612da6565b805461ff001916610100179055600680546001810182556000919091527ff652222313e28459528d920b65115c16c04f3efc82aaedc97be59f3f377c0d3f0180546001600160a01b039092166001600160a01b0319909216919091179055565b6001600160a01b038316611d1c5760405162461bcd60e51b81526004016105d6906130c7565b6001600160a01b038216611d425760405162461bcd60e51b81526004016105d690612d17565b611d4d8383836111eb565b6001600160a01b03831660009081526020819052604090205481811015611d865760405162461bcd60e51b81526004016105d690612e8e565b611d9082826133d1565b6001600160a01b038086166000908152602081905260408082209390935590851681529081208054849290611dc690849061337a565b92505081905550826001600160a01b0316846001600160a01b03167fddf252ad1be2c89b69c2b068fc378daa952ba7f163c4a11628f55a4df523b3ef846040516114469190612bf5565b600082611e1f57506000610574565b81611e2c57506000610574565b611e48670de0b6b3a7640000611e428585612191565b9061219d565b9392505050565b6000611e48828461337a565b6000611e4882846133d1565b6001600160a01b038216611e8d5760405162461bcd60e51b81526004016105d6906132db565b611e99600083836111eb565b8060026000828254611eab919061337a565b90915550506001600160a01b03821660009081526020819052604081208054839290611ed890849061337a565b90915550506040516001600160a01b038316906000907fddf252ad1be2c89b69c2b068fc378daa952ba7f163c4a11628f55a4df523b3ef90611f1b908590612bf5565b60405180910390a35050565b60005b600654811015611f9b5760006005600060068481548110611f5b57634e487b7160e01b600052603260045260246000fd5b60009182526020808320909101546001600160a01b031683528201929092526040019020805461ffff191690555080611f9381613423565b915050611f2a565b50611fa8600660006121a9565b565b6001600160a01b03166000908152600560205260409020805461ff0019169055565b60006001600160a01b038616611ff45760405162461bcd60e51b81526004016105d690612d5a565b6001600160a01b03841661201a5760405162461bcd60e51b81526004016105d690613202565b846120375760405162461bcd60e51b81526004016105d690612fda565b6009859055875161204f9060079060208b01906121ca565b5086516120639060089060208a01906121ca565b50600b80546001600160a01b03199081166001600160a01b0389811691909117909255600f80548216858416179055600a8054600160a01b92169287169290921760ff60a01b19161790556120b783611b7b565b60405146907f8b73c3c69bb8fe3d512ecc4cf759cc79239f7b179b0ffacaa9a75d522b39400f906120ea90600790612a0d565b60408051918290038220828201825260018352603160f81b602093840152905161213b93927fc89efdaa54c0f20c7adf612882df0950f5a951637e0307cdcb4c672f298b8bc6918691309101612c32565b60408051808303601f190181529190528051602090910120600d555050600a54600160a01b900460ff16979650505050505050565b80516a636f6e736f6c652e6c6f67602083016000808483855afa5050505050565b6000611e4882846133b2565b6000611e488284613392565b50805460008255906000526020600020908101906121c7919061224e565b50565b8280546121d6906133e8565b90600052602060002090601f0160209004810192826121f8576000855561223e565b82601f1061221157805160ff191683800117855561223e565b8280016001018555821561223e579182015b8281111561223e578251825591602001919060010190612223565b5061224a92915061224e565b5090565b5b8082111561224a576000815560010161224f565b60008083601f840112612274578182fd5b50813567ffffffffffffffff81111561228b578182fd5b60208301915083602080830285010111156122a557600080fd5b9250929050565b600082601f8301126122bc578081fd5b813560206122d16122cc8361334a565b613320565b82815281810190858301838502870184018810156122ed578586fd5b855b858110156123145781356123028161346a565b845292840192908401906001016122ef565b5090979650505050505050565b600082601f830112612331578081fd5b813560206123416122cc8361334a565b828152818101908583018385028701840188101561235d578586fd5b855b858110156123145781358452928401929084019060010161235f565b805180151581146112da57600080fd5b60008083601f84011261239c578182fd5b50813567ffffffffffffffff8111156123b3578182fd5b6020830191508360208285010111156122a557600080fd5b6000602082840312156123dc578081fd5b8135611e488161346a565b6000602082840312156123f8578081fd5b8151611e488161346a565b60008060408385031215612415578081fd5b82356124208161346a565b915060208301356124308161346a565b809150509250929050565b60008060006060848603121561244f578081fd5b833561245a8161346a565b9250602084013561246a8161346a565b929592945050506040919091013590565b600080600080600060a08688031215612492578081fd5b853561249d8161346a565b945060208601356124ad8161346a565b935060408601359250606086013567ffffffffffffffff8111156124cf578182fd5b6124db88828901612321565b92505060808601356124ec8161346a565b809150509295509295909350565b600080600080600080600060e0888a031215612514578182fd5b873561251f8161346a565b9650602088013561252f8161346a565b95506040880135945060608801359350608088013560ff81168114612552578283fd5b9699959850939692959460a0840135945060c09093013592915050565b60008060408385031215612581578182fd5b823561258c8161346a565b946020939093013593505050565b60008060008060008060c087890312156125b2578384fd5b86356125bd8161346a565b9550602087013594506040870135935060608701356125db8161346a565b925060808701356125eb8161346a565b8092505060a087013590509295509295509295565b60008060008060008060c08789031215612618578384fd5b863567ffffffffffffffff8082111561262f578586fd5b61263b8a838b016122ac565b97506020890135915080821115612650578586fd5b61265c8a838b01612321565b96506040890135915080821115612671578586fd5b61267d8a838b01612321565b95506060890135915080821115612692578384fd5b61269e8a838b016122ac565b945060808901359150808211156126b3578384fd5b6126bf8a838b016122ac565b935060a08901359150808211156126d4578283fd5b506126e189828a01612321565b9150509295509295509295565b6000806000806000806000806080898b031215612709578182fd5b883567ffffffffffffffff80821115612720578384fd5b61272c8c838d01612263565b909a50985060208b0135915080821115612744578384fd5b6127508c838d01612263565b909850965060408b0135915080821115612768578384fd5b6127748c838d01612263565b909650945060608b013591508082111561278c578384fd5b506127998b828c01612263565b999c989b5096995094979396929594505050565b6000602082840312156127be578081fd5b611e488261237b565b600080600080608085870312156127dc578182fd5b8435935060208501356127ee8161346a565b93969395505050506040820135916060013590565b60008060208385031215612815578182fd5b823567ffffffffffffffff81111561282b578283fd5b6128378582860161238b565b90969095509350505050565b600080600080600080600080600060e08a8c031215612860578283fd5b893567ffffffffffffffff80821115612877578485fd5b6128838d838e0161238b565b909b50995060208c013591508082111561289b578485fd5b506128a88c828d0161238b565b90985096505060408a01356128bc8161346a565b945060608a0135935060808a01356128d38161346a565b925060a08a01356128e38161346a565b915060c08a01356128f38161346a565b809150509295985092959850929598565b600060808284031215612915578081fd5b6040516080810181811067ffffffffffffffff8211171561293857612938613454565b6040526129448361237b565b81526129526020840161237b565b60208201526129636040840161237b565b60408201526129746060840161237b565b60608201529392505050565b600060208284031215612991578081fd5b5035919050565b6001600160a01b03169052565b60008151808452815b818110156129ca576020818501810151868301820152016129ae565b818111156129db5782602083870101525b50601f01601f19169290920160200192915050565b60609190911b6bffffffffffffffffffffffff1916815260140190565b8154600090819060028104600180831680612a2957607f831692505b6020808410821415612a4957634e487b7160e01b87526022600452602487fd5b818015612a5d5760018114612a6e57612a9a565b60ff19861689528489019650612a9a565b612a778a61336e565b885b86811015612a925781548b820152908501908301612a79565b505084890196505b509498975050505050505050565b61190160f01b81526002810192909252602282015260420190565b6001600160a01b0391909116815260200190565b6001600160a01b0393841681529183166020830152909116604082015260600190565b6001600160a01b038881168252878116602080840191909152878216604084015290861660608301526080820185905260e060a0830181905284519083018190526000918581019161010085019190845b81811015612b6757845184529382019392820192600101612b4b565b5050508092505050612b7c60c0830184612998565b98975050505050505050565b6001600160a01b039384168152919092166020820152604081019190915260600190565b6001600160a01b0383168152604060208201819052600090612bd0908301846129a5565b949350505050565b901515815260200190565b91151582521515602082015260400190565b90815260200190565b9586526001600160a01b0394851660208701529290931660408501526060840152608083019190915260a082015260c00190565b9485526020850193909352604084019190915260608301526001600160a01b0316608082015260a00190565b60008482526040602083015282604083015282846060840137818301606090810191909152601f909201601f1916010192915050565b93845260208401929092526040830152606082015260800190565b93845260ff9290921660208401526040830152606082015260800190565b600060208252611e4860208301846129a5565b6020808252601e908201527f455243323054656d706c6174653a204e4f5420464545204d414e414745520000604082015260600190565b60208082526023908201527f45524332303a207472616e7366657220746f20746865207a65726f206164647260408201526265737360e81b606082015260800190565b6020808252602c908201527f455243323054656d706c6174653a20496e76616c6964206d696e7465722c202060408201526b7a65726f206164647265737360a01b606082015260800190565b60208082526022908201527f4552433230526f6c65733a2020414c5245414459204120464545204d414e414760408201526122a960f11b606082015260800190565b60208082526022908201527f45524332303a20617070726f766520746f20746865207a65726f206164647265604082015261737360f01b606082015260800190565b60208082526013908201527215d493d391c8105494905654c81193d4935055606a1b604082015260600190565b6020808252601d908201527f4552433230526f6c65733a2020414c52454144592041204d494e544552000000604082015260600190565b60208082526026908201527f45524332303a207472616e7366657220616d6f756e7420657863656564732062604082015265616c616e636560d01b606082015260800190565b6020808252601f908201527f455243323054656d706c6174653a204e4f542037323120436f6e747261637400604082015260600190565b60208082526029908201527f44617461546f6b656e54656d706c6174653a206661696c656420746f2066696e60408201526834b9b41037b93232b960b91b606082015260800190565b60208082526031908201527f455243323054656d706c6174653a20746f6b656e20696e7374616e636520616c6040820152701c9958591e481a5b9a5d1a585b1a5e9959607a1b606082015260800190565b6020808252818101527f455243323054656d706c6174653a204e4f54204445504c4f59455220524f4c45604082015260600190565b60208082526024908201527f44617461546f6b656e54656d706c6174653a20496e76616c6964206361702076604082015263616c756560e01b606082015260800190565b60208082526028908201527f45524332303a207472616e7366657220616d6f756e74206578636565647320616040820152676c6c6f77616e636560c01b606082015260800190565b60208082526010908201526f115490cc8c11150e881156141254915160821b604082015260600190565b60208082526019908201527f455243323054656d706c6174653a204e4f54204d494e54455200000000000000604082015260600190565b60208082526025908201527f45524332303a207472616e736665722066726f6d20746865207a65726f206164604082015264647265737360d81b606082015260800190565b6020808252601b908201527f455243323054656d706c6174653a206e6f74204e46544f776e65720000000000604082015260600190565b60208082526024908201527f45524332303a20617070726f76652066726f6d20746865207a65726f206164646040820152637265737360e01b606082015260800190565b6020808252601f908201527f44617461546f6b656e54656d706c6174653a2063617020657863656564656400604082015260600190565b60208082526024908201527f455243323054656d706c6174653a20746f6b656e7320616c7265616479206d696040820152631b9d195960e21b606082015260800190565b6020808252603c908201527f455243323054656d706c6174653a20496e76616c696420636f6d6d756e69747960408201527f2066656520636f6c6c6563746f722c207a65726f206164647265737300000000606082015260800190565b6020808252601a908201527f455243323044543a20494e56414c49445f5349474e4154555245000000000000604082015260600190565b60208082526025908201527f45524332303a2064656372656173656420616c6c6f77616e63652062656c6f77604082015264207a65726f60d81b606082015260800190565b6020808252601f908201527f45524332303a206d696e7420746f20746865207a65726f206164647265737300604082015260600190565b60ff91909116815260200190565b60405181810167ffffffffffffffff8111828210171561334257613342613454565b604052919050565b600067ffffffffffffffff82111561336457613364613454565b5060209081020190565b60009081526020902090565b6000821982111561338d5761338d61343e565b500190565b6000826133ad57634e487b7160e01b81526012600452602481fd5b500490565b60008160001904831182151516156133cc576133cc61343e565b500290565b6000828210156133e3576133e361343e565b500390565b6002810460018216806133fc57607f821691505b6020821081141561341d57634e487b7160e01b600052602260045260246000fd5b50919050565b60006000198214156134375761343761343e565b5060010190565b634e487b7160e01b600052601160045260246000fd5b634e487b7160e01b600052604160045260246000fd5b6001600160a01b03811681146121c757600080fdfea26469706673582212206971ca8662eef9be69e2120452659dd4e3472dcb867674a1df8de2a7034ccb0264736f6c63430008000033",
  "linkReferences": {},
  "deployedLinkReferences": {}
}