{
  "_format": "hh-sol-artifact-1",
  "contractName": "ERC20Template",
  "sourceName": "contracts/templates/ERC20Template.sol",
  "abi": [
    {
      "anonymous": false,
      "inputs": [
        {
          "indexed": true,
          "internalType": "address",
          "name": "owner",
          "type": "address"
        },
        {
          "indexed": true,
          "internalType": "address",
          "name": "spender",
          "type": "address"
        },
        {
          "indexed": false,
          "internalType": "uint256",
          "name": "value",
          "type": "uint256"
        }
      ],
      "name": "Approval",
      "type": "event"
    },
    {
      "anonymous": false,
      "inputs": [
        {
          "indexed": false,
          "internalType": "address",
          "name": "currentMinter",
          "type": "address"
        },
        {
          "indexed": false,
          "internalType": "address",
          "name": "newMinter",
          "type": "address"
        }
      ],
      "name": "MinterApproved",
      "type": "event"
    },
    {
      "anonymous": false,
      "inputs": [
        {
          "indexed": false,
          "internalType": "address",
          "name": "currentMinter",
          "type": "address"
        },
        {
          "indexed": false,
          "internalType": "address",
          "name": "newMinter",
          "type": "address"
        }
      ],
      "name": "MinterProposed",
      "type": "event"
    },
    {
      "anonymous": false,
      "inputs": [
        {
          "indexed": false,
          "internalType": "bytes32",
          "name": "exchangeId",
          "type": "bytes32"
        },
        {
          "indexed": false,
          "internalType": "address",
          "name": "owner",
          "type": "address"
        },
        {
          "indexed": false,
          "internalType": "address",
          "name": "basetoken",
          "type": "address"
        }
      ],
      "name": "NewFixedRate",
      "type": "event"
    },
    {
      "anonymous": false,
      "inputs": [
        {
          "indexed": false,
          "internalType": "address",
          "name": "poolAddress",
          "type": "address"
        },
        {
          "indexed": false,
          "internalType": "address",
          "name": "ssContract",
          "type": "address"
        },
        {
          "indexed": false,
          "internalType": "address",
          "name": "basetokenAddress",
          "type": "address"
        }
      ],
      "name": "NewPool",
      "type": "event"
    },
    {
      "anonymous": false,
      "inputs": [
        {
          "indexed": false,
          "internalType": "bytes32",
          "name": "orderTxId",
          "type": "bytes32"
        },
        {
          "indexed": true,
          "internalType": "address",
          "name": "consumer",
          "type": "address"
        },
        {
          "indexed": false,
          "internalType": "uint256",
          "name": "amount",
          "type": "uint256"
        },
        {
          "indexed": false,
          "internalType": "uint256",
          "name": "serviceId",
          "type": "uint256"
        },
        {
          "indexed": true,
          "internalType": "address",
          "name": "provider",
          "type": "address"
        },
        {
          "indexed": false,
          "internalType": "uint256",
          "name": "timestamp",
          "type": "uint256"
        }
      ],
      "name": "OrderFinished",
      "type": "event"
    },
    {
      "anonymous": false,
      "inputs": [
        {
          "indexed": true,
          "internalType": "address",
          "name": "consumer",
          "type": "address"
        },
        {
          "indexed": true,
          "internalType": "address",
          "name": "payer",
          "type": "address"
        },
        {
          "indexed": false,
          "internalType": "uint256",
          "name": "amount",
          "type": "uint256"
        },
        {
          "indexed": false,
          "internalType": "uint256",
          "name": "serviceId",
          "type": "uint256"
        },
        {
          "indexed": false,
          "internalType": "uint256",
          "name": "timestamp",
          "type": "uint256"
        },
        {
          "indexed": true,
          "internalType": "address",
          "name": "mrktFeeCollector",
          "type": "address"
        },
        {
          "indexed": false,
          "internalType": "uint256",
          "name": "marketFee",
          "type": "uint256"
        }
      ],
      "name": "OrderStarted",
      "type": "event"
    },
    {
      "anonymous": false,
      "inputs": [
        {
          "indexed": true,
          "internalType": "address",
          "name": "from",
          "type": "address"
        },
        {
          "indexed": true,
          "internalType": "address",
          "name": "to",
          "type": "address"
        },
        {
          "indexed": false,
          "internalType": "uint256",
          "name": "value",
          "type": "uint256"
        }
      ],
      "name": "Transfer",
      "type": "event"
    },
    {
      "inputs": [],
      "name": "BASE",
      "outputs": [
        {
          "internalType": "uint256",
          "name": "",
          "type": "uint256"
        }
      ],
      "stateMutability": "view",
      "type": "function"
    },
    {
      "inputs": [],
      "name": "BASE_COMMUNITY_FEE_PERCENTAGE",
      "outputs": [
        {
          "internalType": "uint256",
          "name": "",
          "type": "uint256"
        }
      ],
      "stateMutability": "view",
      "type": "function"
    },
    {
      "inputs": [],
      "name": "BASE_MARKET_FEE_PERCENTAGE",
      "outputs": [
        {
          "internalType": "uint256",
          "name": "",
          "type": "uint256"
        }
      ],
      "stateMutability": "view",
      "type": "function"
    },
    {
      "inputs": [],
      "name": "DOMAIN_SEPARATOR",
      "outputs": [
        {
          "internalType": "bytes32",
          "name": "",
          "type": "bytes32"
        }
      ],
      "stateMutability": "view",
      "type": "function"
    },
    {
      "inputs": [],
      "name": "PERMIT_TYPEHASH",
      "outputs": [
        {
          "internalType": "bytes32",
          "name": "",
          "type": "bytes32"
        }
      ],
      "stateMutability": "view",
      "type": "function"
    },
    {
      "inputs": [
        {
          "internalType": "address",
          "name": "_feeManager",
          "type": "address"
        }
      ],
      "name": "addFeeManager",
      "outputs": [],
      "stateMutability": "nonpayable",
      "type": "function"
    },
    {
      "inputs": [
        {
          "internalType": "address",
          "name": "_minter",
          "type": "address"
        }
      ],
      "name": "addMinter",
      "outputs": [],
      "stateMutability": "nonpayable",
      "type": "function"
    },
    {
      "inputs": [
        {
          "internalType": "address",
          "name": "owner",
          "type": "address"
        },
        {
          "internalType": "address",
          "name": "spender",
          "type": "address"
        }
      ],
      "name": "allowance",
      "outputs": [
        {
          "internalType": "uint256",
          "name": "",
          "type": "uint256"
        }
      ],
      "stateMutability": "view",
      "type": "function"
    },
    {
      "inputs": [
        {
          "internalType": "address",
          "name": "spender",
          "type": "address"
        },
        {
          "internalType": "uint256",
          "name": "amount",
          "type": "uint256"
        }
      ],
      "name": "approve",
      "outputs": [
        {
          "internalType": "bool",
          "name": "",
          "type": "bool"
        }
      ],
      "stateMutability": "nonpayable",
      "type": "function"
    },
    {
      "inputs": [
        {
          "internalType": "uint256",
          "name": "",
          "type": "uint256"
        }
      ],
      "name": "authERC20",
      "outputs": [
        {
          "internalType": "address",
          "name": "",
          "type": "address"
        }
      ],
      "stateMutability": "view",
      "type": "function"
    },
    {
      "inputs": [
        {
          "internalType": "address",
          "name": "account",
          "type": "address"
        }
      ],
      "name": "balanceOf",
      "outputs": [
        {
          "internalType": "uint256",
          "name": "",
          "type": "uint256"
        }
      ],
      "stateMutability": "view",
      "type": "function"
    },
    {
      "inputs": [],
      "name": "cap",
      "outputs": [
        {
          "internalType": "uint256",
          "name": "",
          "type": "uint256"
        }
      ],
      "stateMutability": "view",
      "type": "function"
    },
    {
      "inputs": [],
      "name": "cleanFrom721",
      "outputs": [],
      "stateMutability": "nonpayable",
      "type": "function"
    },
    {
      "inputs": [],
      "name": "cleanPermissions",
      "outputs": [],
      "stateMutability": "nonpayable",
      "type": "function"
    },
    {
      "inputs": [
        {
          "internalType": "address",
          "name": "basetokenAddress",
          "type": "address"
        },
        {
          "internalType": "uint8",
          "name": "basetokenDecimals",
          "type": "uint8"
        },
        {
          "internalType": "uint256",
          "name": "fixedRate",
          "type": "uint256"
        },
        {
          "internalType": "address",
          "name": "owner",
          "type": "address"
        },
        {
          "internalType": "uint256",
          "name": "marketFee",
          "type": "uint256"
        },
        {
          "internalType": "address",
          "name": "marketFeeCollector",
          "type": "address"
        }
      ],
      "name": "createFixedRate",
      "outputs": [
        {
          "internalType": "bytes32",
          "name": "exchangeId",
          "type": "bytes32"
        }
      ],
      "stateMutability": "nonpayable",
      "type": "function"
    },
    {
      "inputs": [],
      "name": "decimals",
      "outputs": [
        {
          "internalType": "uint8",
          "name": "",
          "type": "uint8"
        }
      ],
      "stateMutability": "pure",
      "type": "function"
    },
    {
      "inputs": [
        {
          "internalType": "address",
          "name": "spender",
          "type": "address"
        },
        {
          "internalType": "uint256",
          "name": "subtractedValue",
          "type": "uint256"
        }
      ],
      "name": "decreaseAllowance",
      "outputs": [
        {
          "internalType": "bool",
          "name": "",
          "type": "bool"
        }
      ],
      "stateMutability": "nonpayable",
      "type": "function"
    },
    {
      "inputs": [
        {
          "internalType": "address",
          "name": "controller",
          "type": "address"
        },
        {
          "internalType": "address",
          "name": "basetokenAddress",
          "type": "address"
        },
        {
          "internalType": "uint256[]",
          "name": "ssParams",
          "type": "uint256[]"
        },
        {
          "internalType": "address",
          "name": "basetokenSender",
          "type": "address"
        },
        {
          "internalType": "uint256[2]",
          "name": "swapFees",
          "type": "uint256[2]"
        },
        {
          "internalType": "address",
          "name": "marketFeeCollector",
          "type": "address"
        },
        {
          "internalType": "address",
          "name": "publisherAddress",
          "type": "address"
        }
      ],
      "name": "deployPool",
      "outputs": [],
      "stateMutability": "nonpayable",
      "type": "function"
    },
    {
      "inputs": [
        {
          "internalType": "bytes32[]",
          "name": "orderTxIds",
          "type": "bytes32[]"
        },
        {
          "internalType": "address[]",
          "name": "consumers",
          "type": "address[]"
        },
        {
          "internalType": "uint256[]",
          "name": "amounts",
          "type": "uint256[]"
        },
        {
          "internalType": "uint256[]",
          "name": "serviceIds",
          "type": "uint256[]"
        }
      ],
      "name": "finishMultipleOrder",
      "outputs": [],
      "stateMutability": "nonpayable",
      "type": "function"
    },
    {
      "inputs": [
        {
          "internalType": "bytes32",
          "name": "orderTxId",
          "type": "bytes32"
        },
        {
          "internalType": "address",
          "name": "consumer",
          "type": "address"
        },
        {
          "internalType": "uint256",
          "name": "amount",
          "type": "uint256"
        },
        {
          "internalType": "uint256",
          "name": "serviceId",
          "type": "uint256"
        }
      ],
      "name": "finishOrder",
      "outputs": [],
      "stateMutability": "nonpayable",
      "type": "function"
    },
    {
      "inputs": [],
      "name": "getFeeCollector",
      "outputs": [
        {
          "internalType": "address",
          "name": "",
          "type": "address"
        }
      ],
      "stateMutability": "view",
      "type": "function"
    },
    {
      "inputs": [],
      "name": "getId",
      "outputs": [
        {
          "internalType": "uint8",
          "name": "",
          "type": "uint8"
        }
      ],
      "stateMutability": "pure",
      "type": "function"
    },
    {
      "inputs": [
        {
          "internalType": "address",
          "name": "spender",
          "type": "address"
        },
        {
          "internalType": "uint256",
          "name": "addedValue",
          "type": "uint256"
        }
      ],
      "name": "increaseAllowance",
      "outputs": [
        {
          "internalType": "bool",
          "name": "",
          "type": "bool"
        }
      ],
      "stateMutability": "nonpayable",
      "type": "function"
    },
    {
      "inputs": [
        {
          "internalType": "string",
          "name": "name_",
          "type": "string"
        },
        {
          "internalType": "string",
          "name": "symbol_",
          "type": "string"
        },
        {
          "internalType": "address",
          "name": "erc721Address",
          "type": "address"
        },
        {
          "internalType": "uint256",
          "name": "cap_",
          "type": "uint256"
        },
        {
          "internalType": "address",
          "name": "communityFeeCollector",
          "type": "address"
        },
        {
          "internalType": "address",
          "name": "minter",
          "type": "address"
        },
        {
          "internalType": "address",
          "name": "router_",
          "type": "address"
        },
        {
          "internalType": "address",
          "name": "feeManager",
          "type": "address"
        }
      ],
      "name": "initialize",
      "outputs": [
        {
          "internalType": "bool",
          "name": "",
          "type": "bool"
        }
      ],
      "stateMutability": "nonpayable",
      "type": "function"
    },
    {
      "inputs": [],
      "name": "isInitialized",
      "outputs": [
        {
          "internalType": "bool",
          "name": "",
          "type": "bool"
        }
      ],
      "stateMutability": "view",
      "type": "function"
    },
    {
      "inputs": [
        {
          "internalType": "address",
          "name": "account",
          "type": "address"
        },
        {
          "internalType": "uint256",
          "name": "value",
          "type": "uint256"
        }
      ],
      "name": "mint",
      "outputs": [],
      "stateMutability": "nonpayable",
      "type": "function"
    },
    {
      "inputs": [],
      "name": "name",
      "outputs": [
        {
          "internalType": "string",
          "name": "",
          "type": "string"
        }
      ],
      "stateMutability": "view",
      "type": "function"
    },
    {
      "inputs": [
        {
          "internalType": "address",
          "name": "",
          "type": "address"
        }
      ],
      "name": "nonces",
      "outputs": [
        {
          "internalType": "uint256",
          "name": "",
          "type": "uint256"
        }
      ],
      "stateMutability": "view",
      "type": "function"
    },
    {
      "inputs": [
        {
          "internalType": "address",
          "name": "",
          "type": "address"
        }
      ],
      "name": "permissions",
      "outputs": [
        {
          "internalType": "bool",
          "name": "minter",
          "type": "bool"
        },
        {
          "internalType": "bool",
          "name": "feeManager",
          "type": "bool"
        }
      ],
      "stateMutability": "view",
      "type": "function"
    },
    {
      "inputs": [
        {
          "internalType": "address",
          "name": "owner",
          "type": "address"
        },
        {
          "internalType": "address",
          "name": "spender",
          "type": "address"
        },
        {
          "internalType": "uint256",
          "name": "value",
          "type": "uint256"
        },
        {
          "internalType": "uint256",
          "name": "deadline",
          "type": "uint256"
        },
        {
          "internalType": "uint8",
          "name": "v",
          "type": "uint8"
        },
        {
          "internalType": "bytes32",
          "name": "r",
          "type": "bytes32"
        },
        {
          "internalType": "bytes32",
          "name": "s",
          "type": "bytes32"
        }
      ],
      "name": "permit",
      "outputs": [],
      "stateMutability": "nonpayable",
      "type": "function"
    },
    {
      "inputs": [
        {
          "internalType": "address",
          "name": "_feeManager",
          "type": "address"
        }
      ],
      "name": "removeFeeManager",
      "outputs": [],
      "stateMutability": "nonpayable",
      "type": "function"
    },
    {
      "inputs": [
        {
          "internalType": "address",
          "name": "_minter",
          "type": "address"
        }
      ],
      "name": "removeMinter",
      "outputs": [],
      "stateMutability": "nonpayable",
      "type": "function"
    },
    {
      "inputs": [],
      "name": "router",
      "outputs": [
        {
          "internalType": "address",
          "name": "",
          "type": "address"
        }
      ],
      "stateMutability": "view",
      "type": "function"
    },
    {
      "inputs": [
        {
          "internalType": "bytes",
          "name": "_value",
          "type": "bytes"
        }
      ],
      "name": "setData",
      "outputs": [],
      "stateMutability": "nonpayable",
      "type": "function"
    },
    {
      "inputs": [
        {
          "internalType": "address",
          "name": "_newFeeCollector",
          "type": "address"
        }
      ],
      "name": "setFeeCollector",
      "outputs": [],
      "stateMutability": "nonpayable",
      "type": "function"
    },
    {
      "inputs": [
        {
          "internalType": "address[]",
          "name": "consumers",
          "type": "address[]"
        },
        {
          "internalType": "uint256[]",
          "name": "amounts",
          "type": "uint256[]"
        },
        {
          "internalType": "uint256[]",
          "name": "serviceIds",
          "type": "uint256[]"
        },
        {
          "internalType": "address[]",
          "name": "mrktFeeCollectors",
          "type": "address[]"
        },
        {
          "internalType": "address[]",
          "name": "feeTokens",
          "type": "address[]"
        },
        {
          "internalType": "uint256[]",
          "name": "feeAmounts",
          "type": "uint256[]"
        }
      ],
      "name": "startMultipleOrder",
      "outputs": [],
      "stateMutability": "nonpayable",
      "type": "function"
    },
    {
      "inputs": [
        {
          "internalType": "address",
          "name": "consumer",
          "type": "address"
        },
        {
          "internalType": "uint256",
          "name": "amount",
          "type": "uint256"
        },
        {
          "internalType": "uint256",
          "name": "serviceId",
          "type": "uint256"
        },
        {
          "internalType": "address",
          "name": "marketFeeCollector",
          "type": "address"
        },
        {
          "internalType": "address",
          "name": "feeToken",
          "type": "address"
        },
        {
          "internalType": "uint256",
          "name": "feeAmount",
          "type": "uint256"
        }
      ],
      "name": "startOrder",
      "outputs": [],
      "stateMutability": "nonpayable",
      "type": "function"
    },
    {
      "inputs": [],
      "name": "symbol",
      "outputs": [
        {
          "internalType": "string",
          "name": "",
          "type": "string"
        }
      ],
      "stateMutability": "view",
      "type": "function"
    },
    {
      "inputs": [],
      "name": "totalSupply",
      "outputs": [
        {
          "internalType": "uint256",
          "name": "",
          "type": "uint256"
        }
      ],
      "stateMutability": "view",
      "type": "function"
    },
    {
      "inputs": [
        {
          "internalType": "address",
          "name": "recipient",
          "type": "address"
        },
        {
          "internalType": "uint256",
          "name": "amount",
          "type": "uint256"
        }
      ],
      "name": "transfer",
      "outputs": [
        {
          "internalType": "bool",
          "name": "",
          "type": "bool"
        }
      ],
      "stateMutability": "nonpayable",
      "type": "function"
    },
    {
      "inputs": [
        {
          "internalType": "address",
          "name": "sender",
          "type": "address"
        },
        {
          "internalType": "address",
          "name": "recipient",
          "type": "address"
        },
        {
          "internalType": "uint256",
          "name": "amount",
          "type": "uint256"
        }
      ],
      "name": "transferFrom",
      "outputs": [
        {
          "internalType": "bool",
          "name": "",
          "type": "bool"
        }
      ],
      "stateMutability": "nonpayable",
      "type": "function"
    }
  ],
  "bytecode": "0x6080604052600a805460ff60a01b191690553480156200001e57600080fd5b5060408051808201825260048152631d195cdd60e21b60208083019182528351808501909452600a8452691d195cdd14de5b589bdb60b21b9084015281519192916200006d916003916200008c565b508051620000839060049060208401906200008c565b5050506200016f565b8280546200009a9062000132565b90600052602060002090601f016020900481019282620000be576000855562000109565b82601f10620000d957805160ff191683800117855562000109565b8280016001018555821562000109579182015b8281111562000109578251825591602001919060010190620000ec565b50620001179291506200011b565b5090565b5b808211156200011757600081556001016200011c565b6002810460018216806200014757607f821691505b602082108114156200016957634e487b7160e01b600052602260045260246000fd5b50919050565b6138d0806200017f6000396000f3fe608060405234801561001057600080fd5b50600436106102535760003560e01c80635d1ca63111610146578063a42dce80116100c3578063d505accf11610087578063d505accf146104a9578063dd62ed3e146104bc578063ec342ad0146104cf578063ef867ff4146104d7578063f887ea40146104ea578063fda9dae7146104f257610253565b8063a42dce801461045d578063a457c2d714610470578063a9059cbb14610483578063ab62f0e114610496578063b2263a5d1461032f57610253565b80638115c9cc1161010a5780638115c9cc1461041457806382c03da5146104275780638ca0c0591461042f57806395d89b4114610442578063983b2d561461044a57610253565b80635d1ca631146103c0578063641222bc146103c857806370a08231146103db5780637134a260146103ee5780637ecebe001461040157610253565b80633092afd5116101d4578063392e53cd11610198578063392e53cd14610377578063395093511461037f5780633ed42b6d1461039257806340c10f19146103a55780634f189cb2146103b857610253565b80633092afd51461033757806330adf81f1461034a578063313ce56714610352578063355274ea146103675780633644e5151461036f57610253565b806318160ddd1161021b57806318160ddd146102e15780631ac57089146102f65780631f2d32c31461030957806323b872dd1461031c578063294541c71461032f57610253565b806301e882081461025857806306fdde0314610282578063095ea7b3146102975780630e744e2e146102b757806312fde4b7146102cc575b600080fd5b61026b610266366004612680565b610505565b604051610279929190612f9f565b60405180910390f35b61028a610523565b60405161027991906130a8565b6102aa6102a5366004612888565b6105b6565b6040516102799190612f94565b6102ca6102c5366004612a74565b6105d4565b005b6102d46108b2565b6040516102799190612e4d565b6102e961095f565b6040516102799190612fb1565b6102aa610304366004612be1565b610965565b6102ca610317366004612680565b610a1c565b6102aa61032a3660046127db565b610acf565b6102e9610b5f565b6102ca610345366004612680565b610b76565b6102e9610c26565b61035a610c4a565b604051610279919061372d565b6102e9610c4f565b6102e9610c55565b6102aa610c5b565b6102aa61038d366004612888565b610c6b565b6102ca6103a0366004612986565b610cbf565b6102ca6103b3366004612888565b61111f565b6102ca611194565b61035a61125f565b6102ca6103d63660046126f0565b611264565b6102e96103e9366004612680565b611426565b6102e96103fc366004612919565b611445565b6102e961040f366004612680565b6115c0565b6102ca610422366004612680565b6115d2565b6102ca611682565b6102ca61043d366004612b65565b6116ac565b61028a61172f565b6102ca610458366004612680565b61173e565b6102ca61046b366004612680565b6117ee565b6102aa61047e366004612888565b61184a565b6102aa610491366004612888565b6118c3565b6102ca6104a4366004612ba1565b6118d7565b6102ca6104b736600461281b565b611a13565b6102e96104ca3660046126b8565b611b8e565b6102e9611bb9565b6102d46104e5366004612d32565b611bc5565b6102d4611bef565b6102ca6105003660046128b3565b611bfe565b60056020526000908152604090205460ff8082169161010090041682565b60606007805461053290613803565b80601f016020809104026020016040519081016040528092919081815260200182805461055e90613803565b80156105ab5780601f10610580576101008083540402835291602001916105ab565b820191906000526020600020905b81548152906001019060200180831161058e57829003601f168201915b505050505090505b90565b60006105ca6105c3611d7c565b8484611d80565b5060015b92915050565b6040805160208088028281018201909352878252839283926106139290918b918b918291850190849080828437600092019190915250611e3492505050565b146106395760405162461bcd60e51b815260040161063090613245565b60405180910390fd5b80610676868680806020026020016040519081016040528093929190818152602001838360200280828437600092019190915250611e3492505050565b146106935760405162461bcd60e51b815260040161063090613245565b806106d08a8a80806020026020016040519081016040528093929190818152602001838360200280828437600092019190915250611e3492505050565b146106ed5760405162461bcd60e51b815260040161063090613245565b60005b818110156108a65785858281811061071857634e487b7160e01b600052603260045260246000fd5b905060200201356000146107a65761078a88888381811061074957634e487b7160e01b600052603260045260246000fd5b905060200201602081019061075e9190612680565b87878481811061077e57634e487b7160e01b600052603260045260246000fd5b905060200201356118c3565b6107a65760405162461bcd60e51b815260040161063090613326565b338888838181106107c757634e487b7160e01b600052603260045260246000fd5b90506020020160208101906107dc9190612680565b6001600160a01b03167f46872661d5d7765097d3a97ca99b7cbfa68b54b6d51904168974901ee607a26d8c8c8581811061082657634e487b7160e01b600052603260045260246000fd5b9050602002013589898681811061084d57634e487b7160e01b600052603260045260246000fd5b9050602002013588888781811061087457634e487b7160e01b600052603260045260246000fd5b905060200201354260405161088c949392919061306f565b60405180910390a38061089e8161383e565b9150506106f0565b50505050505050505050565b600c546000906001600160a01b031661094d57600b546040516331a9108f60e11b81526001600160a01b0390911690636352211e906108f690600190600401612fb1565b60206040518083038186803b15801561090e57600080fd5b505afa158015610922573d6000803e3d6000fd5b505050506040513d601f19601f82011682018060405250810190610946919061269c565b90506105b3565b50600c546001600160a01b03166105b3565b60025490565b600a54600090600160a01b900460ff16156109925760405162461bcd60e51b81526004016106309061336f565b610a0d8b8b8080601f01602080910402602001604051908101604052809392919081815260200183838082843760009201919091525050604080516020601f8f018190048102820181019092528d815292508d91508c90819084018382808284376000920191909152508c92508b91508a9050898989611e38565b9b9a5050505050505050505050565b600b5460405163160a792560e01b81526001600160a01b039091169063160a792590610a4c903390600401612e4d565b608060405180830381600087803b158015610a6657600080fd5b505af1158015610a7a573d6000803e3d6000fd5b505050506040513d601f19601f82011682018060405250810190610a9e9190612cb6565b602001511515600114610ac35760405162461bcd60e51b8152600401610630906133c0565b610acc81611fe7565b50565b6000610adc848484612086565b6001600160a01b038416600090815260016020526040812081610afd611d7c565b6001600160a01b03166001600160a01b0316815260200190815260200160002054905082811015610b405760405162461bcd60e51b815260040161063090613439565b610b5485610b4c611d7c565b858403611d80565b506001949350505050565b610b736103e8670de0b6b3a76400006137ad565b81565b600b5460405163160a792560e01b81526001600160a01b039091169063160a792590610ba6903390600401612e4d565b608060405180830381600087803b158015610bc057600080fd5b505af1158015610bd4573d6000803e3d6000fd5b505050506040513d601f19601f82011682018060405250810190610bf89190612cb6565b602001511515600114610c1d5760405162461bcd60e51b8152600401610630906133c0565b610acc816121b0565b7f6e71edae12b1b97f4d1f60370fef10105fa2faae0126114a169c64845d6126c981565b601290565b60095490565b600d5481565b600a54600160a01b900460ff1690565b60006105ca610c78611d7c565b848460016000610c86611d7c565b6001600160a01b03908116825260208083019390935260409182016000908120918b1681529252902054610cba9190613795565b611d80565b835180610ccb88611e34565b14610ce85760405162461bcd60e51b815260040161063090613245565b80610cf287611e34565b14610d0f5760405162461bcd60e51b815260040161063090613245565b80610d1985611e34565b14610d365760405162461bcd60e51b815260040161063090613245565b80610d4083611e34565b14610d5d5760405162461bcd60e51b815260040161063090613245565b80610d6784611e34565b14610d845760405162461bcd60e51b815260040161063090613245565b60005b81811015611115576000838281518110610db157634e487b7160e01b600052603260045260246000fd5b60200260200101511115610eb857838181518110610ddf57634e487b7160e01b600052603260045260246000fd5b60200260200101516001600160a01b03166323b872dd33878481518110610e1657634e487b7160e01b600052603260045260246000fd5b6020026020010151868581518110610e3e57634e487b7160e01b600052603260045260246000fd5b60200260200101516040518463ffffffff1660e01b8152600401610e6493929190612e84565b602060405180830381600087803b158015610e7e57600080fd5b505af1158015610e92573d6000803e3d6000fd5b505050506040513d601f19601f82011682018060405250810190610eb69190612b33565b505b600080610f01898481518110610ede57634e487b7160e01b600052603260045260246000fd5b60200260200101516103e8670de0b6b3a7640000610efc91906137ad565b6121d1565b600a54909150610f1a906001600160a01b0316826118c3565b5060006001600160a01b0316878481518110610f4657634e487b7160e01b600052603260045260246000fd5b60200260200101516001600160a01b031614610fb457610f7f898481518110610ede57634e487b7160e01b600052603260045260246000fd5b9150610fb2878481518110610fa457634e487b7160e01b600052603260045260246000fd5b6020026020010151836118c3565b505b6000610fc08284612210565b9050611007610fcd6108b2565b610491838d8881518110610ff157634e487b7160e01b600052603260045260246000fd5b602002602001015161221c90919063ffffffff16565b5087848151811061102857634e487b7160e01b600052603260045260246000fd5b60200260200101516001600160a01b0316336001600160a01b03168c868151811061106357634e487b7160e01b600052603260045260246000fd5b60200260200101516001600160a01b03167fe1c4fa794edfa8f619b8257a077398950357b9c6398528f94480307352f9afcc8d88815181106110b557634e487b7160e01b600052603260045260246000fd5b60200260200101518d89815181106110dd57634e487b7160e01b600052603260045260246000fd5b602002602001015142896040516110f7949392919061306f565b60405180910390a4505050808061110d9061383e565b915050610d87565b5050505050505050565b3360009081526005602052604090205460ff1615156001146111535760405162461bcd60e51b8152600401610630906134ab565b6009546111688261116261095f565b90612210565b11156111865760405162461bcd60e51b8152600401610630906135a2565b6111908282612228565b5050565b600b546040516331a9108f60e11b81526001600160a01b0390911690636352211e906111c590600190600401612fb1565b60206040518083038186803b1580156111dd57600080fd5b505afa1580156111f1573d6000803e3d6000fd5b505050506040513d601f19601f82011682018060405250810190611215919061269c565b6001600160a01b0316336001600160a01b0316146112455760405162461bcd60e51b815260040161063090613527565b61124d6122f0565b600c80546001600160a01b0319169055565b600190565b600b5460405163160a792560e01b81526001600160a01b039091169063160a792590611294903390600401612e4d565b608060405180830381600087803b1580156112ae57600080fd5b505af11580156112c2573d6000803e3d6000fd5b505050506040513d601f19601f820116820180604052508101906112e69190612cb6565b60200151151560011461130b5760405162461bcd60e51b8152600401610630906133c0565b61131361095f565b156113305760405162461bcd60e51b8152600401610630906135d9565b61133987612373565b6040805180820182523081526001600160a01b038881166020830152600f549251637edcab0960e01b81529192600092911690637edcab099061138c908c90869088908d908d908d908d90600401612ea8565b602060405180830381600087803b1580156113a657600080fd5b505af11580156113ba573d6000803e3d6000fd5b505050506040513d601f19601f820116820180604052508101906113de919061269c565b90507fd02da1bec30f7f750aa0a131745dfb9ce96767c45a192dc26409f5d690e0b967818a8a60405161141393929190612e61565b60405180910390a1505050505050505050565b6001600160a01b0381166000908152602081905260409020545b919050565b600b5460405163160a792560e01b81526000916001600160a01b03169063160a792590611476903390600401612e4d565b608060405180830381600087803b15801561149057600080fd5b505af11580156114a4573d6000803e3d6000fd5b505050506040513d601f19601f820116820180604052508101906114c89190612cb6565b6020015115156001146114ed5760405162461bcd60e51b8152600401610630906133c0565b600f546040516314ac4c2360e11b81526001600160a01b0390911690632958984690611527908a908a908a908a908a908a90600401612f59565b602060405180830381600087803b15801561154157600080fd5b505af1158015611555573d6000803e3d6000fd5b505050506040513d601f19601f820116820180604052508101906115799190612b4d565b90507f7ebefcdd4e9a446510a0409e4c05db735400bb711392dff4546ff90349454d858185896040516115ae93929190612fba565b60405180910390a19695505050505050565b600e6020526000908152604090205481565b600b5460405163160a792560e01b81526001600160a01b039091169063160a792590611602903390600401612e4d565b608060405180830381600087803b15801561161c57600080fd5b505af1158015611630573d6000803e3d6000fd5b505050506040513d601f19601f820116820180604052508101906116549190612cb6565b6020015115156001146116795760405162461bcd60e51b8152600401610630906133c0565b610acc8161240a565b600b546001600160a01b031633146112455760405162461bcd60e51b8152600401610630906132ef565b81156116d8576116bc83836118c3565b6116d85760405162461bcd60e51b815260040161063090613326565b336001600160a01b0316836001600160a01b03167f46872661d5d7765097d3a97ca99b7cbfa68b54b6d51904168974901ee607a26d86858542604051611721949392919061306f565b60405180910390a350505050565b60606008805461053290613803565b600b5460405163160a792560e01b81526001600160a01b039091169063160a79259061176e903390600401612e4d565b608060405180830381600087803b15801561178857600080fd5b505af115801561179c573d6000803e3d6000fd5b505050506040513d601f19601f820116820180604052508101906117c09190612cb6565b6020015115156001146117e55760405162461bcd60e51b8152600401610630906133c0565b610acc81612373565b3360009081526005602052604090205460ff6101009091041615156001146118285760405162461bcd60e51b8152600401610630906130fb565b600c80546001600160a01b0319166001600160a01b0392909216919091179055565b60008060016000611859611d7c565b6001600160a01b03908116825260208083019390935260409182016000908120918816815292529020549050828110156118a55760405162461bcd60e51b8152600401610630906136b1565b6118b96118b0611d7c565b85858403611d80565b5060019392505050565b60006105ca6118d0611d7c565b8484612086565b600b5460405163160a792560e01b81526001600160a01b039091169063160a792590611907903390600401612e4d565b608060405180830381600087803b15801561192157600080fd5b505af1158015611935573d6000803e3d6000fd5b505050506040513d601f19601f820116820180604052508101906119599190612cb6565b60200151151560011461197e5760405162461bcd60e51b8152600401610630906133c0565b6000306040516020016119919190612d7a565b60408051601f19818403018152908290528051602090910120600b546301caf8fd60e31b83529092506001600160a01b031690630e57c7e8906119dc90849087908790600401613039565b600060405180830381600087803b1580156119f657600080fd5b505af1158015611a0a573d6000803e3d6000fd5b50505050505050565b42841015611a335760405162461bcd60e51b815260040161063090613481565b600d546001600160a01b0388166000908152600e6020526040812080549192917f6e71edae12b1b97f4d1f60370fef10105fa2faae0126114a169c64845d6126c9918b918b918b919087611a868361383e565b919050558a604051602001611aa096959493929190612fd9565b60405160208183030381529060405280519060200120604051602001611ac7929190612e32565b604051602081830303815290604052805190602001209050600060018286868660405160008152602001604052604051611b04949392919061308a565b6020604051602081039080840390855afa158015611b26573d6000803e3d6000fd5b5050604051601f1901519150506001600160a01b03811615801590611b5c5750886001600160a01b0316816001600160a01b0316145b611b785760405162461bcd60e51b81526004016106309061367a565b611b83898989611d80565b505050505050505050565b6001600160a01b03918216600090815260016020908152604080832093909416825291909152205490565b670de0b6b3a764000081565b60068181548110611bd557600080fd5b6000918252602090912001546001600160a01b0316905081565b600f546001600160a01b031681565b8015611c88576040516323b872dd60e01b81526001600160a01b038316906323b872dd90611c3490339087908690600401612e84565b602060405180830381600087803b158015611c4e57600080fd5b505af1158015611c62573d6000803e3d6000fd5b505050506040513d601f19601f82011682018060405250810190611c869190612b33565b505b600080611ca387610efc6103e8670de0b6b3a76400006137ad565b600a54909150611cbc906001600160a01b0316826118c3565b506001600160a01b03851615611cf257611ce487610efc6103e8670de0b6b3a76400006137ad565b9150611cf085836118c3565b505b6000611cfe8284612210565b9050611d15611d0b6108b2565b6104918a8461221c565b50856001600160a01b0316336001600160a01b03168a6001600160a01b03167fe1c4fa794edfa8f619b8257a077398950357b9c6398528f94480307352f9afcc8b8b4289604051611d69949392919061306f565b60405180910390a4505050505050505050565b3390565b6001600160a01b038316611da65760405162461bcd60e51b81526004016106309061355e565b6001600160a01b038216611dcc5760405162461bcd60e51b815260040161063090613203565b6001600160a01b0380841660008181526001602090815260408083209487168084529490915290819020849055517f8c5be1e5ebec7d5bd14f71427d1e84f3dd0314c0f7b2291e5b200ac8c7c3b92590611e27908590612fb1565b60405180910390a3505050565b5190565b60006001600160a01b038716611e605760405162461bcd60e51b815260040161063090613175565b6001600160a01b038516611e865760405162461bcd60e51b81526004016106309061361d565b85611ea35760405162461bcd60e51b8152600401610630906133f5565b60098690558851611ebb9060079060208c0190612449565b508751611ecf9060089060208b0190612449565b50600b80546001600160a01b03199081166001600160a01b038a811691909117909255600f80548216868416179055600a8054600160a01b92169288169290921760ff60a01b1916179055611f2384612373565b611f2c82611fe7565b60405146907f8b73c3c69bb8fe3d512ecc4cf759cc79239f7b179b0ffacaa9a75d522b39400f90611f5f90600790612d97565b60408051918290038220828201825260018352603160f81b6020938401529051611fb093927fc89efdaa54c0f20c7adf612882df0950f5a951637e0307cdcb4c672f298b8bc691869130910161300d565b60408051808303601f190181529190528051602090910120600d555050600a54600160a01b900460ff165b98975050505050505050565b6001600160a01b03811660009081526005602052604090208054610100900460ff16156120265760405162461bcd60e51b8152600401610630906131c1565b805461ff001916610100179055600680546001810182556000919091527ff652222313e28459528d920b65115c16c04f3efc82aaedc97be59f3f377c0d3f0180546001600160a01b039092166001600160a01b0319909216919091179055565b6001600160a01b0383166120ac5760405162461bcd60e51b8152600401610630906134e2565b6001600160a01b0382166120d25760405162461bcd60e51b815260040161063090613132565b6120dd83838361242c565b6001600160a01b038316600090815260208190526040902054818110156121165760405162461bcd60e51b8152600401610630906132a9565b6001600160a01b0380851660009081526020819052604080822085850390559185168152908120805484929061214d908490613795565b92505081905550826001600160a01b0316846001600160a01b03167fddf252ad1be2c89b69c2b068fc378daa952ba7f163c4a11628f55a4df523b3ef846040516121979190612fb1565b60405180910390a36121aa84848461242c565b50505050565b6001600160a01b03166000908152600560205260409020805460ff19169055565b6000826121e0575060006105ce565b816121ed575060006105ce565b612209670de0b6b3a76400006122038585612431565b9061243d565b9392505050565b60006122098284613795565b600061220982846137ec565b6001600160a01b03821661224e5760405162461bcd60e51b8152600401610630906136f6565b61225a6000838361242c565b806002600082825461226c9190613795565b90915550506001600160a01b03821660009081526020819052604081208054839290612299908490613795565b90915550506040516001600160a01b038316906000907fddf252ad1be2c89b69c2b068fc378daa952ba7f163c4a11628f55a4df523b3ef906122dc908590612fb1565b60405180910390a36111906000838361242c565b60005b600654811015612364576000600560006006848154811061232457634e487b7160e01b600052603260045260246000fd5b60009182526020808320909101546001600160a01b031683528201929092526040019020805461ffff19169055508061235c8161383e565b9150506122f3565b50612371600660006124cd565b565b6001600160a01b0381166000908152600560205260409020805460ff16156123ad5760405162461bcd60e51b815260040161063090613272565b805460ff191660019081179091556006805491820181556000527ff652222313e28459528d920b65115c16c04f3efc82aaedc97be59f3f377c0d3f0180546001600160a01b039092166001600160a01b0319909216919091179055565b6001600160a01b03166000908152600560205260409020805461ff0019169055565b505050565b600061220982846137cd565b600061220982846137ad565b82805461245590613803565b90600052602060002090601f01602090048101928261247757600085556124bd565b82601f1061249057805160ff19168380011785556124bd565b828001600101855582156124bd579182015b828111156124bd5782518255916020019190600101906124a2565b506124c99291506124e7565b5090565b5080546000825590600052602060002090810190610acc91905b5b808211156124c957600081556001016124e8565b803561144081613885565b60008083601f840112612518578182fd5b50813567ffffffffffffffff81111561252f578182fd5b602083019150836020808302850101111561254957600080fd5b9250929050565b600082601f830112612560578081fd5b8135602061257561257083613765565b61373b565b8281528181019085830183850287018401881015612591578586fd5b855b858110156125b85781356125a681613885565b84529284019290840190600101612593565b5090979650505050505050565b600082601f8301126125d5578081fd5b813560206125e561257083613765565b8281528181019085830183850287018401881015612601578586fd5b855b858110156125b857813584529284019290840190600101612603565b8051801515811461144057600080fd5b60008083601f840112612640578182fd5b50813567ffffffffffffffff811115612657578182fd5b60208301915083602082850101111561254957600080fd5b803560ff8116811461144057600080fd5b600060208284031215612691578081fd5b813561220981613885565b6000602082840312156126ad578081fd5b815161220981613885565b600080604083850312156126ca578081fd5b82356126d581613885565b915060208301356126e581613885565b809150509250929050565b6000806000806000806000610100888a03121561270b578283fd5b873561271681613885565b965060208881013561272781613885565b9650604089013567ffffffffffffffff811115612742578485fd5b61274e8b828c016125c5565b965050606089013561275f81613885565b9450609f89018a1361276f578384fd5b612779604061373b565b8060808b0160c08c018d81111561278e578788fd5b875b60028110156127ad57823585529385019391850191600101612790565b508297506127ba816124fc565b965050505050506127cd60e089016124fc565b905092959891949750929550565b6000806000606084860312156127ef578081fd5b83356127fa81613885565b9250602084013561280a81613885565b929592945050506040919091013590565b600080600080600080600060e0888a031215612835578081fd5b873561284081613885565b9650602088013561285081613885565b9550604088013594506060880135935061286c6080890161266f565b925060a0880135915060c0880135905092959891949750929550565b6000806040838503121561289a578182fd5b82356128a581613885565b946020939093013593505050565b60008060008060008060c087890312156128cb578384fd5b86356128d681613885565b9550602087013594506040870135935060608701356128f481613885565b9250608087013561290481613885565b8092505060a087013590509295509295509295565b60008060008060008060c08789031215612931578384fd5b863561293c81613885565b955061294a6020880161266f565b945060408701359350606087013561296181613885565b92506080870135915060a087013561297881613885565b809150509295509295509295565b60008060008060008060c0878903121561299e578384fd5b863567ffffffffffffffff808211156129b5578586fd5b6129c18a838b01612550565b975060208901359150808211156129d6578586fd5b6129e28a838b016125c5565b965060408901359150808211156129f7578586fd5b612a038a838b016125c5565b95506060890135915080821115612a18578384fd5b612a248a838b01612550565b94506080890135915080821115612a39578384fd5b612a458a838b01612550565b935060a0890135915080821115612a5a578283fd5b50612a6789828a016125c5565b9150509295509295509295565b6000806000806000806000806080898b031215612a8f578182fd5b883567ffffffffffffffff80821115612aa6578384fd5b612ab28c838d01612507565b909a50985060208b0135915080821115612aca578384fd5b612ad68c838d01612507565b909850965060408b0135915080821115612aee578384fd5b612afa8c838d01612507565b909650945060608b0135915080821115612b12578384fd5b50612b1f8b828c01612507565b999c989b5096995094979396929594505050565b600060208284031215612b44578081fd5b6122098261261f565b600060208284031215612b5e578081fd5b5051919050565b60008060008060808587031215612b7a578182fd5b843593506020850135612b8c81613885565b93969395505050506040820135916060013590565b60008060208385031215612bb3578182fd5b823567ffffffffffffffff811115612bc9578283fd5b612bd58582860161262f565b90969095509350505050565b6000806000806000806000806000806101008b8d031215612c00578384fd5b8a3567ffffffffffffffff80821115612c17578586fd5b612c238e838f0161262f565b909c509a5060208d0135915080821115612c3b578586fd5b50612c488d828e0161262f565b90995097505060408b0135612c5c81613885565b955060608b0135945060808b0135612c7381613885565b935060a08b0135612c8381613885565b925060c08b0135612c9381613885565b915060e08b0135612ca381613885565b809150509295989b9194979a5092959850565b600060808284031215612cc7578081fd5b6040516080810181811067ffffffffffffffff82111715612cea57612cea61386f565b604052612cf68361261f565b8152612d046020840161261f565b6020820152612d156040840161261f565b6040820152612d266060840161261f565b60608201529392505050565b600060208284031215612d43578081fd5b5035919050565b6001600160a01b03169052565b8060005b60028110156121aa578151845260209384019390910190600101612d5b565b60609190911b6bffffffffffffffffffffffff1916815260140190565b8154600090819060028104600180831680612db357607f831692505b6020808410821415612dd357634e487b7160e01b87526022600452602487fd5b818015612de75760018114612df857612e24565b60ff19861689528489019650612e24565b612e018a613789565b885b86811015612e1c5781548b820152908501908301612e03565b505084890196505b509498975050505050505050565b61190160f01b81526002810192909252602282015260420190565b6001600160a01b0391909116815260200190565b6001600160a01b0393841681529183166020830152909116604082015260600190565b6001600160a01b039384168152919092166020820152604081019190915260600190565b6001600160a01b038881168252600090610120908382019060208086018c865b6002811015612ee7578151851683529183019190830190600101612ec8565b505050908a16606086015260808501929092528751908190526101408401918089019190845b82811015612f2957835185529381019392810192600101612f0d565b5050505080915050612f3e60a0830186612d4a565b612f4b60c0830185612d57565b611fdb610100830184612d4a565b6001600160a01b03968716815260ff95909516602086015260408501939093529084166060840152608083015290911660a082015260c00190565b901515815260200190565b91151582521515602082015260400190565b90815260200190565b9283526001600160a01b03918216602084015216604082015260600190565b9586526001600160a01b0394851660208701529290931660408501526060840152608083019190915260a082015260c00190565b9485526020850193909352604084019190915260608301526001600160a01b0316608082015260a00190565b60008482526040602083015282604083015282846060840137818301606090810191909152601f909201601f1916010192915050565b93845260208401929092526040830152606082015260800190565b93845260ff9290921660208401526040830152606082015260800190565b6000602080835283518082850152825b818110156130d4578581018301518582016040015282016130b8565b818111156130e55783604083870101525b50601f01601f1916929092016040019392505050565b6020808252601e908201527f455243323054656d706c6174653a204e4f5420464545204d414e414745520000604082015260600190565b60208082526023908201527f45524332303a207472616e7366657220746f20746865207a65726f206164647260408201526265737360e81b606082015260800190565b6020808252602c908201527f455243323054656d706c6174653a20496e76616c6964206d696e7465722c202060408201526b7a65726f206164647265737360a01b606082015260800190565b60208082526022908201527f4552433230526f6c65733a2020414c5245414459204120464545204d414e414760408201526122a960f11b606082015260800190565b60208082526022908201527f45524332303a20617070726f766520746f20746865207a65726f206164647265604082015261737360f01b606082015260800190565b60208082526013908201527215d493d391c8105494905654c81193d4935055606a1b604082015260600190565b6020808252601d908201527f4552433230526f6c65733a2020414c52454144592041204d494e544552000000604082015260600190565b60208082526026908201527f45524332303a207472616e7366657220616d6f756e7420657863656564732062604082015265616c616e636560d01b606082015260800190565b6020808252601f908201527f455243323054656d706c6174653a204e4f542037323120436f6e747261637400604082015260600190565b60208082526029908201527f44617461546f6b656e54656d706c6174653a206661696c656420746f2066696e60408201526834b9b41037b93232b960b91b606082015260800190565b60208082526031908201527f455243323054656d706c6174653a20746f6b656e20696e7374616e636520616c6040820152701c9958591e481a5b9a5d1a585b1a5e9959607a1b606082015260800190565b6020808252818101527f455243323054656d706c6174653a204e4f54204445504c4f59455220524f4c45604082015260600190565b60208082526024908201527f44617461546f6b656e54656d706c6174653a20496e76616c6964206361702076604082015263616c756560e01b606082015260800190565b60208082526028908201527f45524332303a207472616e7366657220616d6f756e74206578636565647320616040820152676c6c6f77616e636560c01b606082015260800190565b60208082526010908201526f115490cc8c11150e881156141254915160821b604082015260600190565b60208082526019908201527f455243323054656d706c6174653a204e4f54204d494e54455200000000000000604082015260600190565b60208082526025908201527f45524332303a207472616e736665722066726f6d20746865207a65726f206164604082015264647265737360d81b606082015260800190565b6020808252601b908201527f455243323054656d706c6174653a206e6f74204e46544f776e65720000000000604082015260600190565b60208082526024908201527f45524332303a20617070726f76652066726f6d20746865207a65726f206164646040820152637265737360e01b606082015260800190565b6020808252601f908201527f44617461546f6b656e54656d706c6174653a2063617020657863656564656400604082015260600190565b60208082526024908201527f455243323054656d706c6174653a20746f6b656e7320616c7265616479206d696040820152631b9d195960e21b606082015260800190565b6020808252603c908201527f455243323054656d706c6174653a20496e76616c696420636f6d6d756e69747960408201527f2066656520636f6c6c6563746f722c207a65726f206164647265737300000000606082015260800190565b6020808252601a908201527f455243323044543a20494e56414c49445f5349474e4154555245000000000000604082015260600190565b60208082526025908201527f45524332303a2064656372656173656420616c6c6f77616e63652062656c6f77604082015264207a65726f60d81b606082015260800190565b6020808252601f908201527f45524332303a206d696e7420746f20746865207a65726f206164647265737300604082015260600190565b60ff91909116815260200190565b60405181810167ffffffffffffffff8111828210171561375d5761375d61386f565b604052919050565b600067ffffffffffffffff82111561377f5761377f61386f565b5060209081020190565b60009081526020902090565b600082198211156137a8576137a8613859565b500190565b6000826137c857634e487b7160e01b81526012600452602481fd5b500490565b60008160001904831182151516156137e7576137e7613859565b500290565b6000828210156137fe576137fe613859565b500390565b60028104600182168061381757607f821691505b6020821081141561383857634e487b7160e01b600052602260045260246000fd5b50919050565b600060001982141561385257613852613859565b5060010190565b634e487b7160e01b600052601160045260246000fd5b634e487b7160e01b600052604160045260246000fd5b6001600160a01b0381168114610acc57600080fdfea2646970667358221220bb9418bceb102d7f498ca0c7a2c6d96967fecbe45b51ccf0e872cd7e03e06ccd64736f6c63430008000033",
  "linkReferences": {},
  "deployedLinkReferences": {}
}