{
  "_format": "hh-sol-artifact-1",
  "contractName": "ERC20Template",
  "sourceName": "contracts/templates/ERC20Template.sol",
  "abi": [
    {
      "anonymous": false,
      "inputs": [
        {
          "indexed": true,
          "internalType": "address",
          "name": "owner",
          "type": "address"
        },
        {
          "indexed": true,
          "internalType": "address",
          "name": "spender",
          "type": "address"
        },
        {
          "indexed": false,
          "internalType": "uint256",
          "name": "value",
          "type": "uint256"
        }
      ],
      "name": "Approval",
      "type": "event"
    },
    {
      "anonymous": false,
      "inputs": [
        {
          "indexed": false,
          "internalType": "address",
          "name": "currentMinter",
          "type": "address"
        },
        {
          "indexed": false,
          "internalType": "address",
          "name": "newMinter",
          "type": "address"
        }
      ],
      "name": "MinterApproved",
      "type": "event"
    },
    {
      "anonymous": false,
      "inputs": [
        {
          "indexed": false,
          "internalType": "address",
          "name": "currentMinter",
          "type": "address"
        },
        {
          "indexed": false,
          "internalType": "address",
          "name": "newMinter",
          "type": "address"
        }
      ],
      "name": "MinterProposed",
      "type": "event"
    },
    {
      "anonymous": false,
      "inputs": [
        {
          "indexed": false,
          "internalType": "bytes32",
          "name": "orderTxId",
          "type": "bytes32"
        },
        {
          "indexed": true,
          "internalType": "address",
          "name": "consumer",
          "type": "address"
        },
        {
          "indexed": false,
          "internalType": "uint256",
          "name": "amount",
          "type": "uint256"
        },
        {
          "indexed": false,
          "internalType": "uint256",
          "name": "serviceId",
          "type": "uint256"
        },
        {
          "indexed": true,
          "internalType": "address",
          "name": "provider",
          "type": "address"
        },
        {
          "indexed": false,
          "internalType": "uint256",
          "name": "timestamp",
          "type": "uint256"
        }
      ],
      "name": "OrderFinished",
      "type": "event"
    },
    {
      "anonymous": false,
      "inputs": [
        {
          "indexed": true,
          "internalType": "address",
          "name": "consumer",
          "type": "address"
        },
        {
          "indexed": true,
          "internalType": "address",
          "name": "payer",
          "type": "address"
        },
        {
          "indexed": false,
          "internalType": "uint256",
          "name": "amount",
          "type": "uint256"
        },
        {
          "indexed": false,
          "internalType": "uint256",
          "name": "serviceId",
          "type": "uint256"
        },
        {
          "indexed": false,
          "internalType": "uint256",
          "name": "timestamp",
          "type": "uint256"
        },
        {
          "indexed": true,
          "internalType": "address",
          "name": "mrktFeeCollector",
          "type": "address"
        },
        {
          "indexed": false,
          "internalType": "uint256",
          "name": "marketFee",
          "type": "uint256"
        }
      ],
      "name": "OrderStarted",
      "type": "event"
    },
    {
      "anonymous": false,
      "inputs": [
        {
          "indexed": true,
          "internalType": "address",
          "name": "from",
          "type": "address"
        },
        {
          "indexed": true,
          "internalType": "address",
          "name": "to",
          "type": "address"
        },
        {
          "indexed": false,
          "internalType": "uint256",
          "name": "value",
          "type": "uint256"
        }
      ],
      "name": "Transfer",
      "type": "event"
    },
    {
      "inputs": [],
      "name": "BASE",
      "outputs": [
        {
          "internalType": "uint256",
          "name": "",
          "type": "uint256"
        }
      ],
      "stateMutability": "view",
      "type": "function"
    },
    {
      "inputs": [],
      "name": "BASE_COMMUNITY_FEE_PERCENTAGE",
      "outputs": [
        {
          "internalType": "uint256",
          "name": "",
          "type": "uint256"
        }
      ],
      "stateMutability": "view",
      "type": "function"
    },
    {
      "inputs": [],
      "name": "BASE_MARKET_FEE_PERCENTAGE",
      "outputs": [
        {
          "internalType": "uint256",
          "name": "",
          "type": "uint256"
        }
      ],
      "stateMutability": "view",
      "type": "function"
    },
    {
      "inputs": [],
      "name": "DOMAIN_SEPARATOR",
      "outputs": [
        {
          "internalType": "bytes32",
          "name": "",
          "type": "bytes32"
        }
      ],
      "stateMutability": "view",
      "type": "function"
    },
    {
      "inputs": [],
      "name": "PERMIT_TYPEHASH",
      "outputs": [
        {
          "internalType": "bytes32",
          "name": "",
          "type": "bytes32"
        }
      ],
      "stateMutability": "view",
      "type": "function"
    },
    {
      "inputs": [
        {
          "internalType": "address",
          "name": "_feeManager",
          "type": "address"
        }
      ],
      "name": "addFeeManager",
      "outputs": [],
      "stateMutability": "nonpayable",
      "type": "function"
    },
    {
      "inputs": [
        {
          "internalType": "address",
          "name": "_minter",
          "type": "address"
        }
      ],
      "name": "addMinter",
      "outputs": [],
      "stateMutability": "nonpayable",
      "type": "function"
    },
    {
      "inputs": [
        {
          "internalType": "address",
          "name": "owner",
          "type": "address"
        },
        {
          "internalType": "address",
          "name": "spender",
          "type": "address"
        }
      ],
      "name": "allowance",
      "outputs": [
        {
          "internalType": "uint256",
          "name": "",
          "type": "uint256"
        }
      ],
      "stateMutability": "view",
      "type": "function"
    },
    {
      "inputs": [
        {
          "internalType": "address",
          "name": "spender",
          "type": "address"
        },
        {
          "internalType": "uint256",
          "name": "amount",
          "type": "uint256"
        }
      ],
      "name": "approve",
      "outputs": [
        {
          "internalType": "bool",
          "name": "",
          "type": "bool"
        }
      ],
      "stateMutability": "nonpayable",
      "type": "function"
    },
    {
      "inputs": [
        {
          "internalType": "uint256",
          "name": "",
          "type": "uint256"
        }
      ],
      "name": "authERC20",
      "outputs": [
        {
          "internalType": "address",
          "name": "",
          "type": "address"
        }
      ],
      "stateMutability": "view",
      "type": "function"
    },
    {
      "inputs": [
        {
          "internalType": "address",
          "name": "account",
          "type": "address"
        }
      ],
      "name": "balanceOf",
      "outputs": [
        {
          "internalType": "uint256",
          "name": "",
          "type": "uint256"
        }
      ],
      "stateMutability": "view",
      "type": "function"
    },
    {
      "inputs": [],
      "name": "cap",
      "outputs": [
        {
          "internalType": "uint256",
          "name": "",
          "type": "uint256"
        }
      ],
      "stateMutability": "view",
      "type": "function"
    },
    {
      "inputs": [],
      "name": "cleanFrom721",
      "outputs": [],
      "stateMutability": "nonpayable",
      "type": "function"
    },
    {
      "inputs": [],
      "name": "cleanPermissions",
      "outputs": [],
      "stateMutability": "nonpayable",
      "type": "function"
    },
    {
      "inputs": [],
      "name": "decimals",
      "outputs": [
        {
          "internalType": "uint8",
          "name": "",
          "type": "uint8"
        }
      ],
      "stateMutability": "pure",
      "type": "function"
    },
    {
      "inputs": [
        {
          "internalType": "address",
          "name": "spender",
          "type": "address"
        },
        {
          "internalType": "uint256",
          "name": "subtractedValue",
          "type": "uint256"
        }
      ],
      "name": "decreaseAllowance",
      "outputs": [
        {
          "internalType": "bool",
          "name": "",
          "type": "bool"
        }
      ],
      "stateMutability": "nonpayable",
      "type": "function"
    },
    {
      "inputs": [
        {
          "internalType": "bytes32[]",
          "name": "orderTxIds",
          "type": "bytes32[]"
        },
        {
          "internalType": "address[]",
          "name": "consumers",
          "type": "address[]"
        },
        {
          "internalType": "uint256[]",
          "name": "amounts",
          "type": "uint256[]"
        },
        {
          "internalType": "uint256[]",
          "name": "serviceIds",
          "type": "uint256[]"
        }
      ],
      "name": "finishMultipleOrder",
      "outputs": [],
      "stateMutability": "nonpayable",
      "type": "function"
    },
    {
      "inputs": [
        {
          "internalType": "bytes32",
          "name": "orderTxId",
          "type": "bytes32"
        },
        {
          "internalType": "address",
          "name": "consumer",
          "type": "address"
        },
        {
          "internalType": "uint256",
          "name": "amount",
          "type": "uint256"
        },
        {
          "internalType": "uint256",
          "name": "serviceId",
          "type": "uint256"
        }
      ],
      "name": "finishOrder",
      "outputs": [],
      "stateMutability": "nonpayable",
      "type": "function"
    },
    {
      "inputs": [],
      "name": "getFeeCollector",
      "outputs": [
        {
          "internalType": "address",
          "name": "",
          "type": "address"
        }
      ],
      "stateMutability": "view",
      "type": "function"
    },
    {
      "inputs": [],
      "name": "getId",
      "outputs": [
        {
          "internalType": "uint8",
          "name": "",
          "type": "uint8"
        }
      ],
      "stateMutability": "pure",
      "type": "function"
    },
    {
      "inputs": [
        {
          "internalType": "address",
          "name": "spender",
          "type": "address"
        },
        {
          "internalType": "uint256",
          "name": "addedValue",
          "type": "uint256"
        }
      ],
      "name": "increaseAllowance",
      "outputs": [
        {
          "internalType": "bool",
          "name": "",
          "type": "bool"
        }
      ],
      "stateMutability": "nonpayable",
      "type": "function"
    },
    {
      "inputs": [
        {
          "internalType": "string",
          "name": "name_",
          "type": "string"
        },
        {
          "internalType": "string",
          "name": "symbol_",
          "type": "string"
        },
        {
          "internalType": "address",
          "name": "erc721Address",
          "type": "address"
        },
        {
          "internalType": "uint256",
          "name": "cap_",
          "type": "uint256"
        },
        {
          "internalType": "address",
          "name": "communityFeeCollector",
          "type": "address"
        },
        {
          "internalType": "address",
          "name": "minter",
          "type": "address"
        }
      ],
      "name": "initialize",
      "outputs": [
        {
          "internalType": "bool",
          "name": "",
          "type": "bool"
        }
      ],
      "stateMutability": "nonpayable",
      "type": "function"
    },
    {
      "inputs": [],
      "name": "isInitialized",
      "outputs": [
        {
          "internalType": "bool",
          "name": "",
          "type": "bool"
        }
      ],
      "stateMutability": "view",
      "type": "function"
    },
    {
      "inputs": [
        {
          "internalType": "address",
          "name": "account",
          "type": "address"
        },
        {
          "internalType": "uint256",
          "name": "value",
          "type": "uint256"
        }
      ],
      "name": "mint",
      "outputs": [],
      "stateMutability": "nonpayable",
      "type": "function"
    },
    {
      "inputs": [],
      "name": "name",
      "outputs": [
        {
          "internalType": "string",
          "name": "",
          "type": "string"
        }
      ],
      "stateMutability": "view",
      "type": "function"
    },
    {
      "inputs": [
        {
          "internalType": "address",
          "name": "",
          "type": "address"
        }
      ],
      "name": "nonces",
      "outputs": [
        {
          "internalType": "uint256",
          "name": "",
          "type": "uint256"
        }
      ],
      "stateMutability": "view",
      "type": "function"
    },
    {
      "inputs": [
        {
          "internalType": "address",
          "name": "",
          "type": "address"
        }
      ],
      "name": "permissions",
      "outputs": [
        {
          "internalType": "bool",
          "name": "minter",
          "type": "bool"
        },
        {
          "internalType": "bool",
          "name": "feeManager",
          "type": "bool"
        }
      ],
      "stateMutability": "view",
      "type": "function"
    },
    {
      "inputs": [
        {
          "internalType": "address",
          "name": "owner",
          "type": "address"
        },
        {
          "internalType": "address",
          "name": "spender",
          "type": "address"
        },
        {
          "internalType": "uint256",
          "name": "value",
          "type": "uint256"
        },
        {
          "internalType": "uint256",
          "name": "deadline",
          "type": "uint256"
        },
        {
          "internalType": "uint8",
          "name": "v",
          "type": "uint8"
        },
        {
          "internalType": "bytes32",
          "name": "r",
          "type": "bytes32"
        },
        {
          "internalType": "bytes32",
          "name": "s",
          "type": "bytes32"
        }
      ],
      "name": "permit",
      "outputs": [],
      "stateMutability": "nonpayable",
      "type": "function"
    },
    {
      "inputs": [
        {
          "internalType": "address",
          "name": "_feeManager",
          "type": "address"
        }
      ],
      "name": "removeFeeManager",
      "outputs": [],
      "stateMutability": "nonpayable",
      "type": "function"
    },
    {
      "inputs": [
        {
          "internalType": "address",
          "name": "_minter",
          "type": "address"
        }
      ],
      "name": "removeMinter",
      "outputs": [],
      "stateMutability": "nonpayable",
      "type": "function"
    },
    {
      "inputs": [
        {
          "internalType": "bytes",
          "name": "_value",
          "type": "bytes"
        }
      ],
      "name": "setData",
      "outputs": [],
      "stateMutability": "nonpayable",
      "type": "function"
    },
    {
      "inputs": [
        {
          "internalType": "address",
          "name": "_newFeeCollector",
          "type": "address"
        }
      ],
      "name": "setFeeCollector",
      "outputs": [],
      "stateMutability": "nonpayable",
      "type": "function"
    },
    {
      "inputs": [
        {
          "internalType": "address[]",
          "name": "consumers",
          "type": "address[]"
        },
        {
          "internalType": "uint256[]",
          "name": "amounts",
          "type": "uint256[]"
        },
        {
          "internalType": "uint256[]",
          "name": "serviceIds",
          "type": "uint256[]"
        },
        {
          "internalType": "address[]",
          "name": "mrktFeeCollectors",
          "type": "address[]"
        },
        {
          "internalType": "address[]",
          "name": "feeTokens",
          "type": "address[]"
        },
        {
          "internalType": "uint256[]",
          "name": "feeAmounts",
          "type": "uint256[]"
        }
      ],
      "name": "startMultipleOrder",
      "outputs": [],
      "stateMutability": "nonpayable",
      "type": "function"
    },
    {
      "inputs": [
        {
          "internalType": "address",
          "name": "consumer",
          "type": "address"
        },
        {
          "internalType": "uint256",
          "name": "amount",
          "type": "uint256"
        },
        {
          "internalType": "uint256",
          "name": "serviceId",
          "type": "uint256"
        },
        {
          "internalType": "address",
          "name": "mrktFeeCollector",
          "type": "address"
        },
        {
          "internalType": "address",
          "name": "feeToken",
          "type": "address"
        },
        {
          "internalType": "uint256",
          "name": "feeAmount",
          "type": "uint256"
        }
      ],
      "name": "startOrder",
      "outputs": [],
      "stateMutability": "nonpayable",
      "type": "function"
    },
    {
      "inputs": [],
      "name": "symbol",
      "outputs": [
        {
          "internalType": "string",
          "name": "",
          "type": "string"
        }
      ],
      "stateMutability": "view",
      "type": "function"
    },
    {
      "inputs": [],
      "name": "totalSupply",
      "outputs": [
        {
          "internalType": "uint256",
          "name": "",
          "type": "uint256"
        }
      ],
      "stateMutability": "view",
      "type": "function"
    },
    {
      "inputs": [
        {
          "internalType": "address",
          "name": "recipient",
          "type": "address"
        },
        {
          "internalType": "uint256",
          "name": "amount",
          "type": "uint256"
        }
      ],
      "name": "transfer",
      "outputs": [
        {
          "internalType": "bool",
          "name": "",
          "type": "bool"
        }
      ],
      "stateMutability": "nonpayable",
      "type": "function"
    },
    {
      "inputs": [
        {
          "internalType": "address",
          "name": "sender",
          "type": "address"
        },
        {
          "internalType": "address",
          "name": "recipient",
          "type": "address"
        },
        {
          "internalType": "uint256",
          "name": "amount",
          "type": "uint256"
        }
      ],
      "name": "transferFrom",
      "outputs": [
        {
          "internalType": "bool",
          "name": "",
          "type": "bool"
        }
      ],
      "stateMutability": "nonpayable",
      "type": "function"
    }
  ],
  "bytecode": "0x6080604052600a805460ff60a01b191690553480156200001e57600080fd5b5060408051808201825260048152631d195cdd60e21b60208083019182528351808501909452600a8452691d195cdd14de5b589bdb60b21b9084015281519192916200006d916003916200008c565b508051620000839060049060208401906200008c565b5050506200016f565b8280546200009a9062000132565b90600052602060002090601f016020900481019282620000be576000855562000109565b82601f10620000d957805160ff191683800117855562000109565b8280016001018555821562000109579182015b8281111562000109578251825591602001919060010190620000ec565b50620001179291506200011b565b5090565b5b808211156200011757600081556001016200011c565b6002810460018216806200014757607f821691505b602082108114156200016957634e487b7160e01b600052602260045260246000fd5b50919050565b61320d806200017f6000396000f3fe608060405234801561001057600080fd5b50600436106102325760003560e01c80635d1ca63111610130578063a457c2d7116100b8578063d505accf1161007c578063d505accf14610462578063dd62ed3e14610475578063ec342ad014610488578063ef867ff414610490578063fda9dae7146104a357610232565b8063a457c2d714610416578063a9059cbb14610429578063ab62f0e11461043c578063b2263a5d146102fb578063b3ddda2a1461044f57610232565b806382c03da5116100ff57806382c03da5146103cd5780638ca0c059146103d557806395d89b41146103e8578063983b2d56146103f0578063a42dce801461040357610232565b80635d1ca6311461038c57806370a08231146103945780637ecebe00146103a75780638115c9cc146103ba57610232565b80633092afd5116101be578063392e53cd11610182578063392e53cd14610343578063395093511461034b5780633ed42b6d1461035e57806340c10f19146103715780634f189cb21461038457610232565b80633092afd51461030357806330adf81f14610316578063313ce5671461031e578063355274ea146103335780633644e5151461033b57610232565b806312fde4b71161020557806312fde4b7146102ab57806318160ddd146102c05780631f2d32c3146102d557806323b872dd146102e8578063294541c7146102fb57610232565b806301e882081461023757806306fdde0314610261578063095ea7b3146102765780630e744e2e14610296575b600080fd5b61024a6102453660046122ed565b6104b6565b60405161025892919061293f565b60405180910390f35b6102696104d4565b6040516102589190612a29565b610289610284366004612412565b610567565b6040516102589190612934565b6102a96102a4366004612591565b610585565b005b6102b3610863565b60405161025891906128fc565b6102c8610910565b6040516102589190612951565b6102a96102e33660046122ed565b610916565b6102896102f636600461235d565b6109d0565b6102c8610a67565b6102a96103113660046122ed565b610a7e565b6102c8610b34565b610326610b58565b604051610258919061306a565b6102c8610b5d565b6102c8610b63565b610289610b69565b610289610359366004612412565b610b79565b6102a961036c3660046124a3565b610bc8565b6102a961037f366004612412565b611028565b6102a96110bf565b61032661118a565b6102c86103a23660046122ed565b61118f565b6102c86103b53660046122ed565b6111ae565b6102a96103c83660046122ed565b6111c0565b6102a9611276565b6102a96103e336600461266a565b6112a0565b610269611323565b6102a96103fe3660046122ed565b611332565b6102a96104113660046122ed565b6113e8565b610289610424366004612412565b61145e565b610289610437366004612412565b6114d9565b6102a961044a3660046126a6565b6114ed565b61028961045d3660046126e6565b611626565b6102a961047036600461239d565b6116d9565b6102c8610483366004612325565b611854565b6102c861187f565b6102b361049e366004612811565b61188b565b6102a96104b136600461243d565b6118b5565b60056020526000908152604090205460ff8082169161010090041682565b6060600780546104e390613140565b80601f016020809104026020016040519081016040528092919081815260200182805461050f90613140565b801561055c5780601f106105315761010080835404028352916020019161055c565b820191906000526020600020905b81548152906001019060200180831161053f57829003601f168201915b505050505090505b90565b600061057b610574611a33565b8484611a37565b5060015b92915050565b6040805160208088028281018201909352878252839283926105c49290918b918b918291850190849080828437600092019190915250611aeb92505050565b146105ea5760405162461bcd60e51b81526004016105e190612bc6565b60405180910390fd5b80610627868680806020026020016040519081016040528093929190818152602001838360200280828437600092019190915250611aeb92505050565b146106445760405162461bcd60e51b81526004016105e190612bc6565b806106818a8a80806020026020016040519081016040528093929190818152602001838360200280828437600092019190915250611aeb92505050565b1461069e5760405162461bcd60e51b81526004016105e190612bc6565b60005b81811015610857578585828181106106c957634e487b7160e01b600052603260045260246000fd5b905060200201356000146107575761073b8888838181106106fa57634e487b7160e01b600052603260045260246000fd5b905060200201602081019061070f91906122ed565b87878481811061072f57634e487b7160e01b600052603260045260246000fd5b905060200201356114d9565b6107575760405162461bcd60e51b81526004016105e190612ca7565b3388888381811061077857634e487b7160e01b600052603260045260246000fd5b905060200201602081019061078d91906122ed565b6001600160a01b03167f46872661d5d7765097d3a97ca99b7cbfa68b54b6d51904168974901ee607a26d8c8c858181106107d757634e487b7160e01b600052603260045260246000fd5b905060200201358989868181106107fe57634e487b7160e01b600052603260045260246000fd5b9050602002013588888781811061082557634e487b7160e01b600052603260045260246000fd5b905060200201354260405161083d94939291906129f0565b60405180910390a38061084f8161317b565b9150506106a1565b50505050505050505050565b600c546000906001600160a01b03166108fe57600b546040516331a9108f60e11b81526001600160a01b0390911690636352211e906108a790600190600401612951565b60206040518083038186803b1580156108bf57600080fd5b505afa1580156108d3573d6000803e3d6000fd5b505050506040513d601f19601f820116820180604052508101906108f79190612309565b9050610564565b50600c546001600160a01b0316610564565b60025490565b600b54604051639e26811960e01b81526000916001600160a01b031690639e268119906109479033906004016128fc565b608060405180830381600087803b15801561096157600080fd5b505af1158015610975573d6000803e3d6000fd5b505050506040513d601f19601f820116820180604052508101906109999190612795565b90508060200151151560011515146109c35760405162461bcd60e51b81526004016105e190612d41565b6109cc82611aef565b5050565b60006109dd848484611b8e565b6001600160a01b0384166000908152600160205260408120816109fe611a33565b6001600160a01b03166001600160a01b0316815260200190815260200160002054905082811015610a415760405162461bcd60e51b81526004016105e190612dba565b610a5c85610a4d611a33565b610a578685613129565b611a37565b506001949350505050565b610a7b6103e8670de0b6b3a76400006130ea565b81565b600b54604051639e26811960e01b81526000916001600160a01b031690639e26811990610aaf9033906004016128fc565b608060405180830381600087803b158015610ac957600080fd5b505af1158015610add573d6000803e3d6000fd5b505050506040513d601f19601f82011682018060405250810190610b019190612795565b9050806020015115156001151514610b2b5760405162461bcd60e51b81526004016105e190612d41565b6109cc82611ca8565b7f6e71edae12b1b97f4d1f60370fef10105fa2faae0126114a169c64845d6126c981565b601290565b60095490565b600d5481565b600a54600160a01b900460ff1690565b600061057b610b86611a33565b848460016000610b94611a33565b6001600160a01b03908116825260208083019390935260409182016000908120918b1681529252902054610a5791906130d2565b835180610bd488611aeb565b14610bf15760405162461bcd60e51b81526004016105e190612bc6565b80610bfb87611aeb565b14610c185760405162461bcd60e51b81526004016105e190612bc6565b80610c2285611aeb565b14610c3f5760405162461bcd60e51b81526004016105e190612bc6565b80610c4983611aeb565b14610c665760405162461bcd60e51b81526004016105e190612bc6565b80610c7084611aeb565b14610c8d5760405162461bcd60e51b81526004016105e190612bc6565b60005b8181101561101e576000838281518110610cba57634e487b7160e01b600052603260045260246000fd5b60200260200101511115610dc157838181518110610ce857634e487b7160e01b600052603260045260246000fd5b60200260200101516001600160a01b03166323b872dd33878481518110610d1f57634e487b7160e01b600052603260045260246000fd5b6020026020010151868581518110610d4757634e487b7160e01b600052603260045260246000fd5b60200260200101516040518463ffffffff1660e01b8152600401610d6d93929190612910565b602060405180830381600087803b158015610d8757600080fd5b505af1158015610d9b573d6000803e3d6000fd5b505050506040513d601f19601f82011682018060405250810190610dbf9190612650565b505b600080610e0a898481518110610de757634e487b7160e01b600052603260045260246000fd5b60200260200101516103e8670de0b6b3a7640000610e0591906130ea565b611cc9565b600a54909150610e23906001600160a01b0316826114d9565b5060006001600160a01b0316878481518110610e4f57634e487b7160e01b600052603260045260246000fd5b60200260200101516001600160a01b031614610ebd57610e88898481518110610de757634e487b7160e01b600052603260045260246000fd5b9150610ebb878481518110610ead57634e487b7160e01b600052603260045260246000fd5b6020026020010151836114d9565b505b6000610ec98284611d08565b9050610f10610ed6610863565b610437838d8881518110610efa57634e487b7160e01b600052603260045260246000fd5b6020026020010151611d1490919063ffffffff16565b50878481518110610f3157634e487b7160e01b600052603260045260246000fd5b60200260200101516001600160a01b0316336001600160a01b03168c8681518110610f6c57634e487b7160e01b600052603260045260246000fd5b60200260200101516001600160a01b03167fe1c4fa794edfa8f619b8257a077398950357b9c6398528f94480307352f9afcc8d8881518110610fbe57634e487b7160e01b600052603260045260246000fd5b60200260200101518d8981518110610fe657634e487b7160e01b600052603260045260246000fd5b6020026020010151428960405161100094939291906129f0565b60405180910390a450505080806110169061317b565b915050610c90565b5050505050505050565b3360009081526005602090815260409182902082518084019093525460ff80821615158085526101009092041615159183019190915260011461107d5760405162461bcd60e51b81526004016105e190612e2c565b6009546110928361108c610910565b90611d08565b11156110b05760405162461bcd60e51b81526004016105e190612f23565b6110ba8383611d20565b505050565b600b546040516331a9108f60e11b81526001600160a01b0390911690636352211e906110f090600190600401612951565b60206040518083038186803b15801561110857600080fd5b505afa15801561111c573d6000803e3d6000fd5b505050506040513d601f19601f820116820180604052508101906111409190612309565b6001600160a01b0316336001600160a01b0316146111705760405162461bcd60e51b81526004016105e190612ea8565b611178611de0565b600c80546001600160a01b0319169055565b600190565b6001600160a01b0381166000908152602081905260409020545b919050565b600e6020526000908152604090205481565b600b54604051639e26811960e01b81526000916001600160a01b031690639e268119906111f19033906004016128fc565b608060405180830381600087803b15801561120b57600080fd5b505af115801561121f573d6000803e3d6000fd5b505050506040513d601f19601f820116820180604052508101906112439190612795565b905080602001511515600115151461126d5760405162461bcd60e51b81526004016105e190612d41565b6109cc82611e63565b600b546001600160a01b031633146111705760405162461bcd60e51b81526004016105e190612c70565b81156112cc576112b083836114d9565b6112cc5760405162461bcd60e51b81526004016105e190612ca7565b336001600160a01b0316836001600160a01b03167f46872661d5d7765097d3a97ca99b7cbfa68b54b6d51904168974901ee607a26d8685854260405161131594939291906129f0565b60405180910390a350505050565b6060600880546104e390613140565b600b54604051639e26811960e01b81526000916001600160a01b031690639e268119906113639033906004016128fc565b608060405180830381600087803b15801561137d57600080fd5b505af1158015611391573d6000803e3d6000fd5b505050506040513d601f19601f820116820180604052508101906113b59190612795565b90508060200151151560011515146113df5760405162461bcd60e51b81526004016105e190612d41565b6109cc82611e85565b3360009081526005602090815260409182902082518084019093525460ff8082161515845261010090910416151590820181905260011461143b5760405162461bcd60e51b81526004016105e190612a7c565b50600c80546001600160a01b0319166001600160a01b0392909216919091179055565b6000806001600061146d611a33565b6001600160a01b03908116825260208083019390935260409182016000908120918816815292529020549050828110156114b95760405162461bcd60e51b81526004016105e190612fee565b6114cf6114c4611a33565b85610a578685613129565b5060019392505050565b600061057b6114e6611a33565b8484611b8e565b600b54604051639e26811960e01b81526000916001600160a01b031690639e2681199061151e9033906004016128fc565b608060405180830381600087803b15801561153857600080fd5b505af115801561154c573d6000803e3d6000fd5b505050506040513d601f19601f820116820180604052508101906115709190612795565b905080602001511515600115151461159a5760405162461bcd60e51b81526004016105e190612d41565b6000306040516020016115ad9190612829565b60408051601f19818403018152908290528051602090910120600b546301caf8fd60e31b83529092506001600160a01b031690630e57c7e8906115f8908490889088906004016129ba565b600060405180830381600087803b15801561161257600080fd5b505af115801561101e573d6000803e3d6000fd5b600a54600090600160a01b900460ff16156116535760405162461bcd60e51b81526004016105e190612cf0565b6116cc89898080601f01602080910402602001604051908101604052809392919081815260200183838082843760009201919091525050604080516020601f8d018190048102820181019092528b815292508b91508a90819084018382808284376000920191909152508a925089915088905087611f1c565b9998505050505050505050565b428410156116f95760405162461bcd60e51b81526004016105e190612e02565b600d546001600160a01b0388166000908152600e6020526040812080549192917f6e71edae12b1b97f4d1f60370fef10105fa2faae0126114a169c64845d6126c9918b918b918b91908761174c8361317b565b919050558a6040516020016117669695949392919061295a565b6040516020818303038152906040528051906020012060405160200161178d9291906128e1565b6040516020818303038152906040528051906020012090506000600182868686604051600081526020016040526040516117ca9493929190612a0b565b6020604051602081039080840390855afa1580156117ec573d6000803e3d6000fd5b5050604051601f1901519150506001600160a01b038116158015906118225750886001600160a01b0316816001600160a01b0316145b61183e5760405162461bcd60e51b81526004016105e190612fb7565b611849898989611a37565b505050505050505050565b6001600160a01b03918216600090815260016020908152604080832093909416825291909152205490565b670de0b6b3a764000081565b6006818154811061189b57600080fd5b6000918252602090912001546001600160a01b0316905081565b801561193f576040516323b872dd60e01b81526001600160a01b038316906323b872dd906118eb90339087908690600401612910565b602060405180830381600087803b15801561190557600080fd5b505af1158015611919573d6000803e3d6000fd5b505050506040513d601f19601f8201168201806040525081019061193d9190612650565b505b60008061195a87610e056103e8670de0b6b3a76400006130ea565b600a54909150611973906001600160a01b0316826114d9565b506001600160a01b038516156119a95761199b87610e056103e8670de0b6b3a76400006130ea565b91506119a785836114d9565b505b60006119b58284611d08565b90506119cc6119c2610863565b6104378a84611d14565b50856001600160a01b0316336001600160a01b03168a6001600160a01b03167fe1c4fa794edfa8f619b8257a077398950357b9c6398528f94480307352f9afcc8b8b4289604051611a2094939291906129f0565b60405180910390a4505050505050505050565b3390565b6001600160a01b038316611a5d5760405162461bcd60e51b81526004016105e190612edf565b6001600160a01b038216611a835760405162461bcd60e51b81526004016105e190612b84565b6001600160a01b0380841660008181526001602090815260408083209487168084529490915290819020849055517f8c5be1e5ebec7d5bd14f71427d1e84f3dd0314c0f7b2291e5b200ac8c7c3b92590611ade908590612951565b60405180910390a3505050565b5190565b6001600160a01b03811660009081526005602052604090208054610100900460ff1615611b2e5760405162461bcd60e51b81526004016105e190612b42565b805461ff001916610100179055600680546001810182556000919091527ff652222313e28459528d920b65115c16c04f3efc82aaedc97be59f3f377c0d3f0180546001600160a01b039092166001600160a01b0319909216919091179055565b6001600160a01b038316611bb45760405162461bcd60e51b81526004016105e190612e63565b6001600160a01b038216611bda5760405162461bcd60e51b81526004016105e190612ab3565b611be58383836110ba565b6001600160a01b03831660009081526020819052604090205481811015611c1e5760405162461bcd60e51b81526004016105e190612c2a565b611c288282613129565b6001600160a01b038086166000908152602081905260408082209390935590851681529081208054849290611c5e9084906130d2565b92505081905550826001600160a01b0316846001600160a01b03167fddf252ad1be2c89b69c2b068fc378daa952ba7f163c4a11628f55a4df523b3ef846040516113159190612951565b6001600160a01b03166000908152600560205260409020805460ff19169055565b600082611cd85750600061057f565b81611ce55750600061057f565b611d01670de0b6b3a7640000611cfb85856120b3565b906120bf565b9392505050565b6000611d0182846130d2565b6000611d018284613129565b6001600160a01b038216611d465760405162461bcd60e51b81526004016105e190613033565b611d52600083836110ba565b8060026000828254611d6491906130d2565b90915550506001600160a01b03821660009081526020819052604081208054839290611d919084906130d2565b90915550506040516001600160a01b038316906000907fddf252ad1be2c89b69c2b068fc378daa952ba7f163c4a11628f55a4df523b3ef90611dd4908590612951565b60405180910390a35050565b60005b600654811015611e545760006005600060068481548110611e1457634e487b7160e01b600052603260045260246000fd5b60009182526020808320909101546001600160a01b031683528201929092526040019020805461ffff191690555080611e4c8161317b565b915050611de3565b50611e61600660006120cb565b565b6001600160a01b03166000908152600560205260409020805461ff0019169055565b6001600160a01b0381166000908152600560205260409020805460ff1615611ebf5760405162461bcd60e51b81526004016105e190612bf3565b805460ff191660019081179091556006805491820181556000527ff652222313e28459528d920b65115c16c04f3efc82aaedc97be59f3f377c0d3f0180546001600160a01b039092166001600160a01b0319909216919091179055565b60006001600160a01b038516611f445760405162461bcd60e51b81526004016105e190612af6565b6001600160a01b038316611f6a5760405162461bcd60e51b81526004016105e190612f5a565b83611f875760405162461bcd60e51b81526004016105e190612d76565b60098490558651611f9f9060079060208a01906120ec565b508551611fb39060089060208901906120ec565b50600b80546001600160a01b038088166001600160a01b031992831617909255600a805460ff60a01b1993871692169190911791909116600160a01b179055611ffb82611e85565b60405146907f8b73c3c69bb8fe3d512ecc4cf759cc79239f7b179b0ffacaa9a75d522b39400f9061202e90600790612846565b60408051918290038220828201825260018352603160f81b602093840152905161207f93927fc89efdaa54c0f20c7adf612882df0950f5a951637e0307cdcb4c672f298b8bc691869130910161298e565b60408051808303601f190181529190528051602090910120600d555050600a54600160a01b900460ff169695505050505050565b6000611d01828461310a565b6000611d0182846130ea565b50805460008255906000526020600020908101906120e99190612170565b50565b8280546120f890613140565b90600052602060002090601f01602090048101928261211a5760008555612160565b82601f1061213357805160ff1916838001178555612160565b82800160010185558215612160579182015b82811115612160578251825591602001919060010190612145565b5061216c929150612170565b5090565b5b8082111561216c5760008155600101612171565b60008083601f840112612196578182fd5b50813567ffffffffffffffff8111156121ad578182fd5b60208301915083602080830285010111156121c757600080fd5b9250929050565b600082601f8301126121de578081fd5b813560206121f36121ee836130a2565b613078565b828152818101908583018385028701840188101561220f578586fd5b855b85811015612236578135612224816131c2565b84529284019290840190600101612211565b5090979650505050505050565b600082601f830112612253578081fd5b813560206122636121ee836130a2565b828152818101908583018385028701840188101561227f578586fd5b855b8581101561223657813584529284019290840190600101612281565b805180151581146111a957600080fd5b60008083601f8401126122be578182fd5b50813567ffffffffffffffff8111156122d5578182fd5b6020830191508360208285010111156121c757600080fd5b6000602082840312156122fe578081fd5b8135611d01816131c2565b60006020828403121561231a578081fd5b8151611d01816131c2565b60008060408385031215612337578081fd5b8235612342816131c2565b91506020830135612352816131c2565b809150509250929050565b600080600060608486031215612371578081fd5b833561237c816131c2565b9250602084013561238c816131c2565b929592945050506040919091013590565b600080600080600080600060e0888a0312156123b7578283fd5b87356123c2816131c2565b965060208801356123d2816131c2565b95506040880135945060608801359350608088013560ff811681146123f5578384fd5b9699959850939692959460a0840135945060c09093013592915050565b60008060408385031215612424578182fd5b823561242f816131c2565b946020939093013593505050565b60008060008060008060c08789031215612455578182fd5b8635612460816131c2565b95506020870135945060408701359350606087013561247e816131c2565b9250608087013561248e816131c2565b8092505060a087013590509295509295509295565b60008060008060008060c087890312156124bb578384fd5b863567ffffffffffffffff808211156124d2578586fd5b6124de8a838b016121ce565b975060208901359150808211156124f3578586fd5b6124ff8a838b01612243565b96506040890135915080821115612514578586fd5b6125208a838b01612243565b95506060890135915080821115612535578384fd5b6125418a838b016121ce565b94506080890135915080821115612556578384fd5b6125628a838b016121ce565b935060a0890135915080821115612577578283fd5b5061258489828a01612243565b9150509295509295509295565b6000806000806000806000806080898b0312156125ac578182fd5b883567ffffffffffffffff808211156125c3578384fd5b6125cf8c838d01612185565b909a50985060208b01359150808211156125e7578384fd5b6125f38c838d01612185565b909850965060408b013591508082111561260b578384fd5b6126178c838d01612185565b909650945060608b013591508082111561262f578384fd5b5061263c8b828c01612185565b999c989b5096995094979396929594505050565b600060208284031215612661578081fd5b611d018261229d565b6000806000806080858703121561267f578182fd5b843593506020850135612691816131c2565b93969395505050506040820135916060013590565b600080602083850312156126b8578182fd5b823567ffffffffffffffff8111156126ce578283fd5b6126da858286016122ad565b90969095509350505050565b60008060008060008060008060c0898b031215612701578182fd5b883567ffffffffffffffff80821115612718578384fd5b6127248c838d016122ad565b909a50985060208b013591508082111561273c578384fd5b506127498b828c016122ad565b909750955050604089013561275d816131c2565b9350606089013592506080890135612774816131c2565b915060a0890135612784816131c2565b809150509295985092959890939650565b6000608082840312156127a6578081fd5b6040516080810181811067ffffffffffffffff821117156127c9576127c96131ac565b6040526127d58361229d565b81526127e36020840161229d565b60208201526127f46040840161229d565b60408201526128056060840161229d565b60608201529392505050565b600060208284031215612822578081fd5b5035919050565b60609190911b6bffffffffffffffffffffffff1916815260140190565b815460009081906002810460018083168061286257607f831692505b602080841082141561288257634e487b7160e01b87526022600452602487fd5b81801561289657600181146128a7576128d3565b60ff198616895284890196506128d3565b6128b08a6130c6565b885b868110156128cb5781548b8201529085019083016128b2565b505084890196505b509498975050505050505050565b61190160f01b81526002810192909252602282015260420190565b6001600160a01b0391909116815260200190565b6001600160a01b039384168152919092166020820152604081019190915260600190565b901515815260200190565b91151582521515602082015260400190565b90815260200190565b9586526001600160a01b0394851660208701529290931660408501526060840152608083019190915260a082015260c00190565b9485526020850193909352604084019190915260608301526001600160a01b0316608082015260a00190565b60008482526040602083015282604083015282846060840137818301606090810191909152601f909201601f1916010192915050565b93845260208401929092526040830152606082015260800190565b93845260ff9290921660208401526040830152606082015260800190565b6000602080835283518082850152825b81811015612a5557858101830151858201604001528201612a39565b81811115612a665783604083870101525b50601f01601f1916929092016040019392505050565b6020808252601e908201527f455243323054656d706c6174653a204e4f5420464545204d414e414745520000604082015260600190565b60208082526023908201527f45524332303a207472616e7366657220746f20746865207a65726f206164647260408201526265737360e81b606082015260800190565b6020808252602c908201527f455243323054656d706c6174653a20496e76616c6964206d696e7465722c202060408201526b7a65726f206164647265737360a01b606082015260800190565b60208082526022908201527f4552433230526f6c65733a2020414c5245414459204120464545204d414e414760408201526122a960f11b606082015260800190565b60208082526022908201527f45524332303a20617070726f766520746f20746865207a65726f206164647265604082015261737360f01b606082015260800190565b60208082526013908201527215d493d391c8105494905654c81193d4935055606a1b604082015260600190565b6020808252601d908201527f4552433230526f6c65733a2020414c52454144592041204d494e544552000000604082015260600190565b60208082526026908201527f45524332303a207472616e7366657220616d6f756e7420657863656564732062604082015265616c616e636560d01b606082015260800190565b6020808252601f908201527f455243323054656d706c6174653a204e4f542037323120436f6e747261637400604082015260600190565b60208082526029908201527f44617461546f6b656e54656d706c6174653a206661696c656420746f2066696e60408201526834b9b41037b93232b960b91b606082015260800190565b60208082526031908201527f455243323054656d706c6174653a20746f6b656e20696e7374616e636520616c6040820152701c9958591e481a5b9a5d1a585b1a5e9959607a1b606082015260800190565b6020808252818101527f455243323054656d706c6174653a204e4f54204445504c4f59455220524f4c45604082015260600190565b60208082526024908201527f44617461546f6b656e54656d706c6174653a20496e76616c6964206361702076604082015263616c756560e01b606082015260800190565b60208082526028908201527f45524332303a207472616e7366657220616d6f756e74206578636565647320616040820152676c6c6f77616e636560c01b606082015260800190565b60208082526010908201526f115490cc8c11150e881156141254915160821b604082015260600190565b60208082526019908201527f455243323054656d706c6174653a204e4f54204d494e54455200000000000000604082015260600190565b60208082526025908201527f45524332303a207472616e736665722066726f6d20746865207a65726f206164604082015264647265737360d81b606082015260800190565b6020808252601b908201527f455243323054656d706c6174653a206e6f74204e46544f776e65720000000000604082015260600190565b60208082526024908201527f45524332303a20617070726f76652066726f6d20746865207a65726f206164646040820152637265737360e01b606082015260800190565b6020808252601f908201527f44617461546f6b656e54656d706c6174653a2063617020657863656564656400604082015260600190565b6020808252603c908201527f455243323054656d706c6174653a20496e76616c696420636f6d6d756e69747960408201527f2066656520636f6c6c6563746f722c207a65726f206164647265737300000000606082015260800190565b6020808252601a908201527f455243323044543a20494e56414c49445f5349474e4154555245000000000000604082015260600190565b60208082526025908201527f45524332303a2064656372656173656420616c6c6f77616e63652062656c6f77604082015264207a65726f60d81b606082015260800190565b6020808252601f908201527f45524332303a206d696e7420746f20746865207a65726f206164647265737300604082015260600190565b60ff91909116815260200190565b60405181810167ffffffffffffffff8111828210171561309a5761309a6131ac565b604052919050565b600067ffffffffffffffff8211156130bc576130bc6131ac565b5060209081020190565b60009081526020902090565b600082198211156130e5576130e5613196565b500190565b60008261310557634e487b7160e01b81526012600452602481fd5b500490565b600081600019048311821515161561312457613124613196565b500290565b60008282101561313b5761313b613196565b500390565b60028104600182168061315457607f821691505b6020821081141561317557634e487b7160e01b600052602260045260246000fd5b50919050565b600060001982141561318f5761318f613196565b5060010190565b634e487b7160e01b600052601160045260246000fd5b634e487b7160e01b600052604160045260246000fd5b6001600160a01b03811681146120e957600080fdfea26469706673582212208d41c6d2c1f6987abe8004cf05d18f0eb65876c7e9da76f2c0aeb8b18bd8b8e464736f6c63430008000033",
  "linkReferences": {},
  "deployedLinkReferences": {}
}