{
  "_format": "hh-sol-artifact-1",
  "contractName": "ERC20Template",
  "sourceName": "contracts/templates/ERC20Template.sol",
  "abi": [
    {
      "anonymous": false,
      "inputs": [
        {
          "indexed": true,
          "internalType": "address",
          "name": "owner",
          "type": "address"
        },
        {
          "indexed": true,
          "internalType": "address",
          "name": "spender",
          "type": "address"
        },
        {
          "indexed": false,
          "internalType": "uint256",
          "name": "value",
          "type": "uint256"
        }
      ],
      "name": "Approval",
      "type": "event"
    },
    {
      "anonymous": false,
      "inputs": [
        {
          "indexed": false,
          "internalType": "address",
          "name": "currentMinter",
          "type": "address"
        },
        {
          "indexed": false,
          "internalType": "address",
          "name": "newMinter",
          "type": "address"
        }
      ],
      "name": "MinterApproved",
      "type": "event"
    },
    {
      "anonymous": false,
      "inputs": [
        {
          "indexed": false,
          "internalType": "address",
          "name": "currentMinter",
          "type": "address"
        },
        {
          "indexed": false,
          "internalType": "address",
          "name": "newMinter",
          "type": "address"
        }
      ],
      "name": "MinterProposed",
      "type": "event"
    },
    {
      "anonymous": false,
      "inputs": [
        {
          "indexed": false,
          "internalType": "bytes32",
          "name": "orderTxId",
          "type": "bytes32"
        },
        {
          "indexed": true,
          "internalType": "address",
          "name": "consumer",
          "type": "address"
        },
        {
          "indexed": false,
          "internalType": "uint256",
          "name": "amount",
          "type": "uint256"
        },
        {
          "indexed": false,
          "internalType": "uint256",
          "name": "serviceId",
          "type": "uint256"
        },
        {
          "indexed": true,
          "internalType": "address",
          "name": "provider",
          "type": "address"
        },
        {
          "indexed": false,
          "internalType": "uint256",
          "name": "timestamp",
          "type": "uint256"
        }
      ],
      "name": "OrderFinished",
      "type": "event"
    },
    {
      "anonymous": false,
      "inputs": [
        {
          "indexed": true,
          "internalType": "address",
          "name": "consumer",
          "type": "address"
        },
        {
          "indexed": true,
          "internalType": "address",
          "name": "payer",
          "type": "address"
        },
        {
          "indexed": false,
          "internalType": "uint256",
          "name": "amount",
          "type": "uint256"
        },
        {
          "indexed": false,
          "internalType": "uint256",
          "name": "serviceId",
          "type": "uint256"
        },
        {
          "indexed": false,
          "internalType": "uint256",
          "name": "timestamp",
          "type": "uint256"
        },
        {
          "indexed": true,
          "internalType": "address",
          "name": "mrktFeeCollector",
          "type": "address"
        },
        {
          "indexed": false,
          "internalType": "uint256",
          "name": "marketFee",
          "type": "uint256"
        }
      ],
      "name": "OrderStarted",
      "type": "event"
    },
    {
      "anonymous": false,
      "inputs": [
        {
          "indexed": true,
          "internalType": "address",
          "name": "from",
          "type": "address"
        },
        {
          "indexed": true,
          "internalType": "address",
          "name": "to",
          "type": "address"
        },
        {
          "indexed": false,
          "internalType": "uint256",
          "name": "value",
          "type": "uint256"
        }
      ],
      "name": "Transfer",
      "type": "event"
    },
    {
      "inputs": [],
      "name": "BASE",
      "outputs": [
        {
          "internalType": "uint256",
          "name": "",
          "type": "uint256"
        }
      ],
      "stateMutability": "view",
      "type": "function"
    },
    {
      "inputs": [],
      "name": "BASE_COMMUNITY_FEE_PERCENTAGE",
      "outputs": [
        {
          "internalType": "uint256",
          "name": "",
          "type": "uint256"
        }
      ],
      "stateMutability": "view",
      "type": "function"
    },
    {
      "inputs": [],
      "name": "BASE_MARKET_FEE_PERCENTAGE",
      "outputs": [
        {
          "internalType": "uint256",
          "name": "",
          "type": "uint256"
        }
      ],
      "stateMutability": "view",
      "type": "function"
    },
    {
      "inputs": [],
      "name": "DOMAIN_SEPARATOR",
      "outputs": [
        {
          "internalType": "bytes32",
          "name": "",
          "type": "bytes32"
        }
      ],
      "stateMutability": "view",
      "type": "function"
    },
    {
      "inputs": [],
      "name": "PERMIT_TYPEHASH",
      "outputs": [
        {
          "internalType": "bytes32",
          "name": "",
          "type": "bytes32"
        }
      ],
      "stateMutability": "view",
      "type": "function"
    },
    {
      "inputs": [
        {
          "internalType": "address",
          "name": "_feeManager",
          "type": "address"
        }
      ],
      "name": "addFeeManager",
      "outputs": [],
      "stateMutability": "nonpayable",
      "type": "function"
    },
    {
      "inputs": [
        {
          "internalType": "address",
          "name": "_minter",
          "type": "address"
        }
      ],
      "name": "addMinter",
      "outputs": [],
      "stateMutability": "nonpayable",
      "type": "function"
    },
    {
      "inputs": [
        {
          "internalType": "address",
          "name": "owner",
          "type": "address"
        },
        {
          "internalType": "address",
          "name": "spender",
          "type": "address"
        }
      ],
      "name": "allowance",
      "outputs": [
        {
          "internalType": "uint256",
          "name": "",
          "type": "uint256"
        }
      ],
      "stateMutability": "view",
      "type": "function"
    },
    {
      "inputs": [
        {
          "internalType": "address",
          "name": "spender",
          "type": "address"
        },
        {
          "internalType": "uint256",
          "name": "amount",
          "type": "uint256"
        }
      ],
      "name": "approve",
      "outputs": [
        {
          "internalType": "bool",
          "name": "",
          "type": "bool"
        }
      ],
      "stateMutability": "nonpayable",
      "type": "function"
    },
    {
      "inputs": [
        {
          "internalType": "uint256",
          "name": "",
          "type": "uint256"
        }
      ],
      "name": "authERC20",
      "outputs": [
        {
          "internalType": "address",
          "name": "",
          "type": "address"
        }
      ],
      "stateMutability": "view",
      "type": "function"
    },
    {
      "inputs": [
        {
          "internalType": "address",
          "name": "account",
          "type": "address"
        }
      ],
      "name": "balanceOf",
      "outputs": [
        {
          "internalType": "uint256",
          "name": "",
          "type": "uint256"
        }
      ],
      "stateMutability": "view",
      "type": "function"
    },
    {
      "inputs": [],
      "name": "cap",
      "outputs": [
        {
          "internalType": "uint256",
          "name": "",
          "type": "uint256"
        }
      ],
      "stateMutability": "view",
      "type": "function"
    },
    {
      "inputs": [],
      "name": "cleanFrom721",
      "outputs": [],
      "stateMutability": "nonpayable",
      "type": "function"
    },
    {
      "inputs": [],
      "name": "cleanPermissions",
      "outputs": [],
      "stateMutability": "nonpayable",
      "type": "function"
    },
    {
      "inputs": [],
      "name": "decimals",
      "outputs": [
        {
          "internalType": "uint8",
          "name": "",
          "type": "uint8"
        }
      ],
      "stateMutability": "view",
      "type": "function"
    },
    {
      "inputs": [
        {
          "internalType": "address",
          "name": "spender",
          "type": "address"
        },
        {
          "internalType": "uint256",
          "name": "subtractedValue",
          "type": "uint256"
        }
      ],
      "name": "decreaseAllowance",
      "outputs": [
        {
          "internalType": "bool",
          "name": "",
          "type": "bool"
        }
      ],
      "stateMutability": "nonpayable",
      "type": "function"
    },
    {
      "inputs": [
        {
          "internalType": "bytes32[]",
          "name": "orderTxIds",
          "type": "bytes32[]"
        },
        {
          "internalType": "address[]",
          "name": "consumers",
          "type": "address[]"
        },
        {
          "internalType": "uint256[]",
          "name": "amounts",
          "type": "uint256[]"
        },
        {
          "internalType": "uint256[]",
          "name": "serviceIds",
          "type": "uint256[]"
        }
      ],
      "name": "finishMultipleOrder",
      "outputs": [],
      "stateMutability": "nonpayable",
      "type": "function"
    },
    {
      "inputs": [
        {
          "internalType": "bytes32",
          "name": "orderTxId",
          "type": "bytes32"
        },
        {
          "internalType": "address",
          "name": "consumer",
          "type": "address"
        },
        {
          "internalType": "uint256",
          "name": "amount",
          "type": "uint256"
        },
        {
          "internalType": "uint256",
          "name": "serviceId",
          "type": "uint256"
        }
      ],
      "name": "finishOrder",
      "outputs": [],
      "stateMutability": "nonpayable",
      "type": "function"
    },
    {
      "inputs": [],
      "name": "getFeeCollector",
      "outputs": [
        {
          "internalType": "address",
          "name": "",
          "type": "address"
        }
      ],
      "stateMutability": "view",
      "type": "function"
    },
    {
      "inputs": [
        {
          "internalType": "address",
          "name": "spender",
          "type": "address"
        },
        {
          "internalType": "uint256",
          "name": "addedValue",
          "type": "uint256"
        }
      ],
      "name": "increaseAllowance",
      "outputs": [
        {
          "internalType": "bool",
          "name": "",
          "type": "bool"
        }
      ],
      "stateMutability": "nonpayable",
      "type": "function"
    },
    {
      "inputs": [
        {
          "internalType": "string",
          "name": "name",
          "type": "string"
        },
        {
          "internalType": "string",
          "name": "symbol",
          "type": "string"
        },
        {
          "internalType": "address",
          "name": "erc721Address",
          "type": "address"
        },
        {
          "internalType": "uint256",
          "name": "cap",
          "type": "uint256"
        },
        {
          "internalType": "address",
          "name": "communityFeeCollector",
          "type": "address"
        },
        {
          "internalType": "address",
          "name": "minter",
          "type": "address"
        }
      ],
      "name": "initialize",
      "outputs": [
        {
          "internalType": "bool",
          "name": "",
          "type": "bool"
        }
      ],
      "stateMutability": "nonpayable",
      "type": "function"
    },
    {
      "inputs": [],
      "name": "isInitialized",
      "outputs": [
        {
          "internalType": "bool",
          "name": "",
          "type": "bool"
        }
      ],
      "stateMutability": "view",
      "type": "function"
    },
    {
      "inputs": [
        {
          "internalType": "address",
          "name": "account",
          "type": "address"
        },
        {
          "internalType": "uint256",
          "name": "value",
          "type": "uint256"
        }
      ],
      "name": "mint",
      "outputs": [],
      "stateMutability": "nonpayable",
      "type": "function"
    },
    {
      "inputs": [],
      "name": "name",
      "outputs": [
        {
          "internalType": "string",
          "name": "",
          "type": "string"
        }
      ],
      "stateMutability": "view",
      "type": "function"
    },
    {
      "inputs": [
        {
          "internalType": "address",
          "name": "",
          "type": "address"
        }
      ],
      "name": "nonces",
      "outputs": [
        {
          "internalType": "uint256",
          "name": "",
          "type": "uint256"
        }
      ],
      "stateMutability": "view",
      "type": "function"
    },
    {
      "inputs": [
        {
          "internalType": "address",
          "name": "",
          "type": "address"
        }
      ],
      "name": "permissions",
      "outputs": [
        {
          "internalType": "bool",
          "name": "minter",
          "type": "bool"
        },
        {
          "internalType": "bool",
          "name": "feeManager",
          "type": "bool"
        }
      ],
      "stateMutability": "view",
      "type": "function"
    },
    {
      "inputs": [
        {
          "internalType": "address",
          "name": "owner",
          "type": "address"
        },
        {
          "internalType": "address",
          "name": "spender",
          "type": "address"
        },
        {
          "internalType": "uint256",
          "name": "value",
          "type": "uint256"
        },
        {
          "internalType": "uint256",
          "name": "deadline",
          "type": "uint256"
        },
        {
          "internalType": "uint8",
          "name": "v",
          "type": "uint8"
        },
        {
          "internalType": "bytes32",
          "name": "r",
          "type": "bytes32"
        },
        {
          "internalType": "bytes32",
          "name": "s",
          "type": "bytes32"
        }
      ],
      "name": "permit",
      "outputs": [],
      "stateMutability": "nonpayable",
      "type": "function"
    },
    {
      "inputs": [
        {
          "internalType": "address",
          "name": "_feeManager",
          "type": "address"
        }
      ],
      "name": "removeFeeManager",
      "outputs": [],
      "stateMutability": "nonpayable",
      "type": "function"
    },
    {
      "inputs": [
        {
          "internalType": "address",
          "name": "_minter",
          "type": "address"
        }
      ],
      "name": "removeMinter",
      "outputs": [],
      "stateMutability": "nonpayable",
      "type": "function"
    },
    {
      "inputs": [
        {
          "internalType": "bytes",
          "name": "_value",
          "type": "bytes"
        }
      ],
      "name": "setData",
      "outputs": [],
      "stateMutability": "nonpayable",
      "type": "function"
    },
    {
      "inputs": [
        {
          "internalType": "address",
          "name": "_newFeeCollector",
          "type": "address"
        }
      ],
      "name": "setFeeCollector",
      "outputs": [],
      "stateMutability": "nonpayable",
      "type": "function"
    },
    {
      "inputs": [
        {
          "internalType": "address[]",
          "name": "consumers",
          "type": "address[]"
        },
        {
          "internalType": "uint256[]",
          "name": "amounts",
          "type": "uint256[]"
        },
        {
          "internalType": "uint256[]",
          "name": "serviceIds",
          "type": "uint256[]"
        },
        {
          "internalType": "address[]",
          "name": "mrktFeeCollectors",
          "type": "address[]"
        },
        {
          "internalType": "address[]",
          "name": "feeTokens",
          "type": "address[]"
        },
        {
          "internalType": "uint256[]",
          "name": "feeAmounts",
          "type": "uint256[]"
        }
      ],
      "name": "startMultipleOrder",
      "outputs": [],
      "stateMutability": "nonpayable",
      "type": "function"
    },
    {
      "inputs": [
        {
          "internalType": "address",
          "name": "consumer",
          "type": "address"
        },
        {
          "internalType": "uint256",
          "name": "amount",
          "type": "uint256"
        },
        {
          "internalType": "uint256",
          "name": "serviceId",
          "type": "uint256"
        },
        {
          "internalType": "address",
          "name": "mrktFeeCollector",
          "type": "address"
        },
        {
          "internalType": "address",
          "name": "feeToken",
          "type": "address"
        },
        {
          "internalType": "uint256",
          "name": "feeAmount",
          "type": "uint256"
        }
      ],
      "name": "startOrder",
      "outputs": [],
      "stateMutability": "nonpayable",
      "type": "function"
    },
    {
      "inputs": [],
      "name": "symbol",
      "outputs": [
        {
          "internalType": "string",
          "name": "",
          "type": "string"
        }
      ],
      "stateMutability": "view",
      "type": "function"
    },
    {
      "inputs": [],
      "name": "totalSupply",
      "outputs": [
        {
          "internalType": "uint256",
          "name": "",
          "type": "uint256"
        }
      ],
      "stateMutability": "view",
      "type": "function"
    },
    {
      "inputs": [
        {
          "internalType": "address",
          "name": "recipient",
          "type": "address"
        },
        {
          "internalType": "uint256",
          "name": "amount",
          "type": "uint256"
        }
      ],
      "name": "transfer",
      "outputs": [
        {
          "internalType": "bool",
          "name": "",
          "type": "bool"
        }
      ],
      "stateMutability": "nonpayable",
      "type": "function"
    },
    {
      "inputs": [
        {
          "internalType": "address",
          "name": "sender",
          "type": "address"
        },
        {
          "internalType": "address",
          "name": "recipient",
          "type": "address"
        },
        {
          "internalType": "uint256",
          "name": "amount",
          "type": "uint256"
        }
      ],
      "name": "transferFrom",
      "outputs": [
        {
          "internalType": "bool",
          "name": "",
          "type": "bool"
        }
      ],
      "stateMutability": "nonpayable",
      "type": "function"
    }
  ],
  "bytecode": "0x6080604052600a805460ff60a01b191690553480156200001e57600080fd5b5060408051808201825260048152631d195cdd60e21b60208083019182528351808501909452600a8452691d195cdd14de5b589bdb60b21b9084015281519192916200006d916003916200008c565b508051620000839060049060208401906200008c565b5050506200016f565b8280546200009a9062000132565b90600052602060002090601f016020900481019282620000be576000855562000109565b82601f10620000d957805160ff191683800117855562000109565b8280016001018555821562000109579182015b8281111562000109578251825591602001919060010190620000ec565b50620001179291506200011b565b5090565b5b808211156200011757600081556001016200011c565b6002810460018216806200014757607f821691505b602082108114156200016957634e487b7160e01b600052602260045260246000fd5b50919050565b6131f4806200017f6000396000f3fe608060405234801561001057600080fd5b50600436106102275760003560e01c80634f189cb211610130578063a457c2d7116100b8578063d505accf1161007c578063d505accf1461044f578063dd62ed3e14610462578063ec342ad014610475578063ef867ff41461047d578063fda9dae71461049057610227565b8063a457c2d714610403578063a9059cbb14610416578063ab62f0e114610429578063b2263a5d146102f0578063b3ddda2a1461043c57610227565b806382c03da5116100ff57806382c03da5146103ba5780638ca0c059146103c257806395d89b41146103d5578063983b2d56146103dd578063a42dce80146103f057610227565b80634f189cb21461037957806370a08231146103815780637ecebe00146103945780638115c9cc146103a757610227565b80633092afd5116101b35780633644e515116101825780633644e51514610330578063392e53cd1461033857806339509351146103405780633ed42b6d1461035357806340c10f191461036657610227565b80633092afd5146102f857806330adf81f1461030b578063313ce56714610313578063355274ea1461032857610227565b806312fde4b7116101fa57806312fde4b7146102a057806318160ddd146102b55780631f2d32c3146102ca57806323b872dd146102dd578063294541c7146102f057610227565b806301e882081461022c57806306fdde0314610256578063095ea7b31461026b5780630e744e2e1461028b575b600080fd5b61023f61023a3660046122d4565b6104a3565b60405161024d929190612926565b60405180910390f35b61025e6104c1565b60405161024d9190612a10565b61027e6102793660046123f9565b610554565b60405161024d919061291b565b61029e610299366004612578565b610572565b005b6102a8610850565b60405161024d91906128e3565b6102bd6108fd565b60405161024d9190612938565b61029e6102d83660046122d4565b610903565b61027e6102eb366004612344565b6109bd565b6102bd610a54565b61029e6103063660046122d4565b610a6b565b6102bd610b21565b61031b610b45565b60405161024d9190613051565b6102bd610b4a565b6102bd610b50565b61027e610b56565b61027e61034e3660046123f9565b610b66565b61029e61036136600461248a565b610bb5565b61029e6103743660046123f9565b611015565b61029e6110ac565b6102bd61038f3660046122d4565b611177565b6102bd6103a23660046122d4565b611196565b61029e6103b53660046122d4565b6111a8565b61029e61125e565b61029e6103d0366004612651565b611288565b61025e61130b565b61029e6103eb3660046122d4565b61131a565b61029e6103fe3660046122d4565b6113d0565b61027e6104113660046123f9565b611446565b61027e6104243660046123f9565b6114c1565b61029e61043736600461268d565b6114d5565b61027e61044a3660046126cd565b61160e565b61029e61045d366004612384565b6116c1565b6102bd61047036600461230c565b61183c565b6102bd611867565b6102a861048b3660046127f8565b611873565b61029e61049e366004612424565b61189d565b60056020526000908152604090205460ff8082169161010090041682565b6060600780546104d090613127565b80601f01602080910402602001604051908101604052809291908181526020018280546104fc90613127565b80156105495780601f1061051e57610100808354040283529160200191610549565b820191906000526020600020905b81548152906001019060200180831161052c57829003601f168201915b505050505090505b90565b6000610568610561611a1b565b8484611a1f565b5060015b92915050565b6040805160208088028281018201909352878252839283926105b19290918b918b918291850190849080828437600092019190915250611ad392505050565b146105d75760405162461bcd60e51b81526004016105ce90612bad565b60405180910390fd5b80610614868680806020026020016040519081016040528093929190818152602001838360200280828437600092019190915250611ad392505050565b146106315760405162461bcd60e51b81526004016105ce90612bad565b8061066e8a8a80806020026020016040519081016040528093929190818152602001838360200280828437600092019190915250611ad392505050565b1461068b5760405162461bcd60e51b81526004016105ce90612bad565b60005b81811015610844578585828181106106b657634e487b7160e01b600052603260045260246000fd5b90506020020135600014610744576107288888838181106106e757634e487b7160e01b600052603260045260246000fd5b90506020020160208101906106fc91906122d4565b87878481811061071c57634e487b7160e01b600052603260045260246000fd5b905060200201356114c1565b6107445760405162461bcd60e51b81526004016105ce90612c8e565b3388888381811061076557634e487b7160e01b600052603260045260246000fd5b905060200201602081019061077a91906122d4565b6001600160a01b03167f46872661d5d7765097d3a97ca99b7cbfa68b54b6d51904168974901ee607a26d8c8c858181106107c457634e487b7160e01b600052603260045260246000fd5b905060200201358989868181106107eb57634e487b7160e01b600052603260045260246000fd5b9050602002013588888781811061081257634e487b7160e01b600052603260045260246000fd5b905060200201354260405161082a94939291906129d7565b60405180910390a38061083c81613162565b91505061068e565b50505050505050505050565b600c546000906001600160a01b03166108eb57600b546040516331a9108f60e11b81526001600160a01b0390911690636352211e9061089490600190600401612938565b60206040518083038186803b1580156108ac57600080fd5b505afa1580156108c0573d6000803e3d6000fd5b505050506040513d601f19601f820116820180604052508101906108e491906122f0565b9050610551565b50600c546001600160a01b0316610551565b60025490565b600b54604051639e26811960e01b81526000916001600160a01b031690639e268119906109349033906004016128e3565b608060405180830381600087803b15801561094e57600080fd5b505af1158015610962573d6000803e3d6000fd5b505050506040513d601f19601f82011682018060405250810190610986919061277c565b90508060200151151560011515146109b05760405162461bcd60e51b81526004016105ce90612d28565b6109b982611ad7565b5050565b60006109ca848484611b76565b6001600160a01b0384166000908152600160205260408120816109eb611a1b565b6001600160a01b03166001600160a01b0316815260200190815260200160002054905082811015610a2e5760405162461bcd60e51b81526004016105ce90612da1565b610a4985610a3a611a1b565b610a448685613110565b611a1f565b506001949350505050565b610a686103e8670de0b6b3a76400006130d1565b81565b600b54604051639e26811960e01b81526000916001600160a01b031690639e26811990610a9c9033906004016128e3565b608060405180830381600087803b158015610ab657600080fd5b505af1158015610aca573d6000803e3d6000fd5b505050506040513d601f19601f82011682018060405250810190610aee919061277c565b9050806020015115156001151514610b185760405162461bcd60e51b81526004016105ce90612d28565b6109b982611c90565b7f6e71edae12b1b97f4d1f60370fef10105fa2faae0126114a169c64845d6126c981565b601290565b60095490565b600d5481565b600a54600160a01b900460ff1690565b6000610568610b73611a1b565b848460016000610b81611a1b565b6001600160a01b03908116825260208083019390935260409182016000908120918b1681529252902054610a4491906130b9565b835180610bc188611ad3565b14610bde5760405162461bcd60e51b81526004016105ce90612bad565b80610be887611ad3565b14610c055760405162461bcd60e51b81526004016105ce90612bad565b80610c0f85611ad3565b14610c2c5760405162461bcd60e51b81526004016105ce90612bad565b80610c3683611ad3565b14610c535760405162461bcd60e51b81526004016105ce90612bad565b80610c5d84611ad3565b14610c7a5760405162461bcd60e51b81526004016105ce90612bad565b60005b8181101561100b576000838281518110610ca757634e487b7160e01b600052603260045260246000fd5b60200260200101511115610dae57838181518110610cd557634e487b7160e01b600052603260045260246000fd5b60200260200101516001600160a01b03166323b872dd33878481518110610d0c57634e487b7160e01b600052603260045260246000fd5b6020026020010151868581518110610d3457634e487b7160e01b600052603260045260246000fd5b60200260200101516040518463ffffffff1660e01b8152600401610d5a939291906128f7565b602060405180830381600087803b158015610d7457600080fd5b505af1158015610d88573d6000803e3d6000fd5b505050506040513d601f19601f82011682018060405250810190610dac9190612637565b505b600080610df7898481518110610dd457634e487b7160e01b600052603260045260246000fd5b60200260200101516103e8670de0b6b3a7640000610df291906130d1565b611cb1565b600a54909150610e10906001600160a01b0316826114c1565b5060006001600160a01b0316878481518110610e3c57634e487b7160e01b600052603260045260246000fd5b60200260200101516001600160a01b031614610eaa57610e75898481518110610dd457634e487b7160e01b600052603260045260246000fd5b9150610ea8878481518110610e9a57634e487b7160e01b600052603260045260246000fd5b6020026020010151836114c1565b505b6000610eb68284611cf0565b9050610efd610ec3610850565b610424838d8881518110610ee757634e487b7160e01b600052603260045260246000fd5b6020026020010151611cfc90919063ffffffff16565b50878481518110610f1e57634e487b7160e01b600052603260045260246000fd5b60200260200101516001600160a01b0316336001600160a01b03168c8681518110610f5957634e487b7160e01b600052603260045260246000fd5b60200260200101516001600160a01b03167fe1c4fa794edfa8f619b8257a077398950357b9c6398528f94480307352f9afcc8d8881518110610fab57634e487b7160e01b600052603260045260246000fd5b60200260200101518d8981518110610fd357634e487b7160e01b600052603260045260246000fd5b60200260200101514289604051610fed94939291906129d7565b60405180910390a4505050808061100390613162565b915050610c7d565b5050505050505050565b3360009081526005602090815260409182902082518084019093525460ff80821615158085526101009092041615159183019190915260011461106a5760405162461bcd60e51b81526004016105ce90612e13565b60095461107f836110796108fd565b90611cf0565b111561109d5760405162461bcd60e51b81526004016105ce90612f0a565b6110a78383611d08565b505050565b600b546040516331a9108f60e11b81526001600160a01b0390911690636352211e906110dd90600190600401612938565b60206040518083038186803b1580156110f557600080fd5b505afa158015611109573d6000803e3d6000fd5b505050506040513d601f19601f8201168201806040525081019061112d91906122f0565b6001600160a01b0316336001600160a01b03161461115d5760405162461bcd60e51b81526004016105ce90612e8f565b611165611dc8565b600c80546001600160a01b0319169055565b6001600160a01b0381166000908152602081905260409020545b919050565b600e6020526000908152604090205481565b600b54604051639e26811960e01b81526000916001600160a01b031690639e268119906111d99033906004016128e3565b608060405180830381600087803b1580156111f357600080fd5b505af1158015611207573d6000803e3d6000fd5b505050506040513d601f19601f8201168201806040525081019061122b919061277c565b90508060200151151560011515146112555760405162461bcd60e51b81526004016105ce90612d28565b6109b982611e4a565b600b546001600160a01b0316331461115d5760405162461bcd60e51b81526004016105ce90612c57565b81156112b45761129883836114c1565b6112b45760405162461bcd60e51b81526004016105ce90612c8e565b336001600160a01b0316836001600160a01b03167f46872661d5d7765097d3a97ca99b7cbfa68b54b6d51904168974901ee607a26d868585426040516112fd94939291906129d7565b60405180910390a350505050565b6060600880546104d090613127565b600b54604051639e26811960e01b81526000916001600160a01b031690639e2681199061134b9033906004016128e3565b608060405180830381600087803b15801561136557600080fd5b505af1158015611379573d6000803e3d6000fd5b505050506040513d601f19601f8201168201806040525081019061139d919061277c565b90508060200151151560011515146113c75760405162461bcd60e51b81526004016105ce90612d28565b6109b982611e6c565b3360009081526005602090815260409182902082518084019093525460ff808216151584526101009091041615159082018190526001146114235760405162461bcd60e51b81526004016105ce90612a63565b50600c80546001600160a01b0319166001600160a01b0392909216919091179055565b60008060016000611455611a1b565b6001600160a01b03908116825260208083019390935260409182016000908120918816815292529020549050828110156114a15760405162461bcd60e51b81526004016105ce90612fd5565b6114b76114ac611a1b565b85610a448685613110565b5060019392505050565b60006105686114ce611a1b565b8484611b76565b600b54604051639e26811960e01b81526000916001600160a01b031690639e268119906115069033906004016128e3565b608060405180830381600087803b15801561152057600080fd5b505af1158015611534573d6000803e3d6000fd5b505050506040513d601f19601f82011682018060405250810190611558919061277c565b90508060200151151560011515146115825760405162461bcd60e51b81526004016105ce90612d28565b6000306040516020016115959190612810565b60408051601f19818403018152908290528051602090910120600b546301caf8fd60e31b83529092506001600160a01b031690630e57c7e8906115e0908490889088906004016129a1565b600060405180830381600087803b1580156115fa57600080fd5b505af115801561100b573d6000803e3d6000fd5b600a54600090600160a01b900460ff161561163b5760405162461bcd60e51b81526004016105ce90612cd7565b6116b489898080601f01602080910402602001604051908101604052809392919081815260200183838082843760009201919091525050604080516020601f8d018190048102820181019092528b815292508b91508a90819084018382808284376000920191909152508a925089915088905087611f03565b9998505050505050505050565b428410156116e15760405162461bcd60e51b81526004016105ce90612de9565b600d546001600160a01b0388166000908152600e6020526040812080549192917f6e71edae12b1b97f4d1f60370fef10105fa2faae0126114a169c64845d6126c9918b918b918b91908761173483613162565b919050558a60405160200161174e96959493929190612941565b604051602081830303815290604052805190602001206040516020016117759291906128c8565b6040516020818303038152906040528051906020012090506000600182868686604051600081526020016040526040516117b294939291906129f2565b6020604051602081039080840390855afa1580156117d4573d6000803e3d6000fd5b5050604051601f1901519150506001600160a01b0381161580159061180a5750886001600160a01b0316816001600160a01b0316145b6118265760405162461bcd60e51b81526004016105ce90612f9e565b611831898989611a1f565b505050505050505050565b6001600160a01b03918216600090815260016020908152604080832093909416825291909152205490565b670de0b6b3a764000081565b6006818154811061188357600080fd5b6000918252602090912001546001600160a01b0316905081565b8015611927576040516323b872dd60e01b81526001600160a01b038316906323b872dd906118d3903390879086906004016128f7565b602060405180830381600087803b1580156118ed57600080fd5b505af1158015611901573d6000803e3d6000fd5b505050506040513d601f19601f820116820180604052508101906119259190612637565b505b60008061194287610df26103e8670de0b6b3a76400006130d1565b600a5490915061195b906001600160a01b0316826114c1565b506001600160a01b038516156119915761198387610df26103e8670de0b6b3a76400006130d1565b915061198f85836114c1565b505b600061199d8284611cf0565b90506119b46119aa610850565b6104248a84611cfc565b50856001600160a01b0316336001600160a01b03168a6001600160a01b03167fe1c4fa794edfa8f619b8257a077398950357b9c6398528f94480307352f9afcc8b8b4289604051611a0894939291906129d7565b60405180910390a4505050505050505050565b3390565b6001600160a01b038316611a455760405162461bcd60e51b81526004016105ce90612ec6565b6001600160a01b038216611a6b5760405162461bcd60e51b81526004016105ce90612b6b565b6001600160a01b0380841660008181526001602090815260408083209487168084529490915290819020849055517f8c5be1e5ebec7d5bd14f71427d1e84f3dd0314c0f7b2291e5b200ac8c7c3b92590611ac6908590612938565b60405180910390a3505050565b5190565b6001600160a01b03811660009081526005602052604090208054610100900460ff1615611b165760405162461bcd60e51b81526004016105ce90612b29565b805461ff001916610100179055600680546001810182556000919091527ff652222313e28459528d920b65115c16c04f3efc82aaedc97be59f3f377c0d3f0180546001600160a01b039092166001600160a01b0319909216919091179055565b6001600160a01b038316611b9c5760405162461bcd60e51b81526004016105ce90612e4a565b6001600160a01b038216611bc25760405162461bcd60e51b81526004016105ce90612a9a565b611bcd8383836110a7565b6001600160a01b03831660009081526020819052604090205481811015611c065760405162461bcd60e51b81526004016105ce90612c11565b611c108282613110565b6001600160a01b038086166000908152602081905260408082209390935590851681529081208054849290611c469084906130b9565b92505081905550826001600160a01b0316846001600160a01b03167fddf252ad1be2c89b69c2b068fc378daa952ba7f163c4a11628f55a4df523b3ef846040516112fd9190612938565b6001600160a01b03166000908152600560205260409020805460ff19169055565b600082611cc05750600061056c565b81611ccd5750600061056c565b611ce9670de0b6b3a7640000611ce3858561209a565b906120a6565b9392505050565b6000611ce982846130b9565b6000611ce98284613110565b6001600160a01b038216611d2e5760405162461bcd60e51b81526004016105ce9061301a565b611d3a600083836110a7565b8060026000828254611d4c91906130b9565b90915550506001600160a01b03821660009081526020819052604081208054839290611d799084906130b9565b90915550506040516001600160a01b038316906000907fddf252ad1be2c89b69c2b068fc378daa952ba7f163c4a11628f55a4df523b3ef90611dbc908590612938565b60405180910390a35050565b60005b600654811015611e3b5760006005600060068481548110611dfc57634e487b7160e01b600052603260045260246000fd5b60009182526020808320909101546001600160a01b031683528201929092526040019020805460ff191690555080611e3381613162565b915050611dcb565b50611e48600660006120b2565b565b6001600160a01b03166000908152600560205260409020805461ff0019169055565b6001600160a01b0381166000908152600560205260409020805460ff1615611ea65760405162461bcd60e51b81526004016105ce90612bda565b805460ff191660019081179091556006805491820181556000527ff652222313e28459528d920b65115c16c04f3efc82aaedc97be59f3f377c0d3f0180546001600160a01b039092166001600160a01b0319909216919091179055565b60006001600160a01b038516611f2b5760405162461bcd60e51b81526004016105ce90612add565b6001600160a01b038316611f515760405162461bcd60e51b81526004016105ce90612f41565b83611f6e5760405162461bcd60e51b81526004016105ce90612d5d565b60098490558651611f869060079060208a01906120d3565b508551611f9a9060089060208901906120d3565b50600b80546001600160a01b038088166001600160a01b031992831617909255600a805460ff60a01b1993871692169190911791909116600160a01b179055611fe282611e6c565b60405146907f8b73c3c69bb8fe3d512ecc4cf759cc79239f7b179b0ffacaa9a75d522b39400f906120159060079061282d565b60408051918290038220828201825260018352603160f81b602093840152905161206693927fc89efdaa54c0f20c7adf612882df0950f5a951637e0307cdcb4c672f298b8bc6918691309101612975565b60408051808303601f190181529190528051602090910120600d555050600a54600160a01b900460ff169695505050505050565b6000611ce982846130f1565b6000611ce982846130d1565b50805460008255906000526020600020908101906120d09190612157565b50565b8280546120df90613127565b90600052602060002090601f0160209004810192826121015760008555612147565b82601f1061211a57805160ff1916838001178555612147565b82800160010185558215612147579182015b8281111561214757825182559160200191906001019061212c565b50612153929150612157565b5090565b5b808211156121535760008155600101612158565b60008083601f84011261217d578182fd5b50813567ffffffffffffffff811115612194578182fd5b60208301915083602080830285010111156121ae57600080fd5b9250929050565b600082601f8301126121c5578081fd5b813560206121da6121d583613089565b61305f565b82815281810190858301838502870184018810156121f6578586fd5b855b8581101561221d57813561220b816131a9565b845292840192908401906001016121f8565b5090979650505050505050565b600082601f83011261223a578081fd5b8135602061224a6121d583613089565b8281528181019085830183850287018401881015612266578586fd5b855b8581101561221d57813584529284019290840190600101612268565b8051801515811461119157600080fd5b60008083601f8401126122a5578182fd5b50813567ffffffffffffffff8111156122bc578182fd5b6020830191508360208285010111156121ae57600080fd5b6000602082840312156122e5578081fd5b8135611ce9816131a9565b600060208284031215612301578081fd5b8151611ce9816131a9565b6000806040838503121561231e578081fd5b8235612329816131a9565b91506020830135612339816131a9565b809150509250929050565b600080600060608486031215612358578081fd5b8335612363816131a9565b92506020840135612373816131a9565b929592945050506040919091013590565b600080600080600080600060e0888a03121561239e578283fd5b87356123a9816131a9565b965060208801356123b9816131a9565b95506040880135945060608801359350608088013560ff811681146123dc578384fd5b9699959850939692959460a0840135945060c09093013592915050565b6000806040838503121561240b578182fd5b8235612416816131a9565b946020939093013593505050565b60008060008060008060c0878903121561243c578182fd5b8635612447816131a9565b955060208701359450604087013593506060870135612465816131a9565b92506080870135612475816131a9565b8092505060a087013590509295509295509295565b60008060008060008060c087890312156124a2578384fd5b863567ffffffffffffffff808211156124b9578586fd5b6124c58a838b016121b5565b975060208901359150808211156124da578586fd5b6124e68a838b0161222a565b965060408901359150808211156124fb578586fd5b6125078a838b0161222a565b9550606089013591508082111561251c578384fd5b6125288a838b016121b5565b9450608089013591508082111561253d578384fd5b6125498a838b016121b5565b935060a089013591508082111561255e578283fd5b5061256b89828a0161222a565b9150509295509295509295565b6000806000806000806000806080898b031215612593578182fd5b883567ffffffffffffffff808211156125aa578384fd5b6125b68c838d0161216c565b909a50985060208b01359150808211156125ce578384fd5b6125da8c838d0161216c565b909850965060408b01359150808211156125f2578384fd5b6125fe8c838d0161216c565b909650945060608b0135915080821115612616578384fd5b506126238b828c0161216c565b999c989b5096995094979396929594505050565b600060208284031215612648578081fd5b611ce982612284565b60008060008060808587031215612666578182fd5b843593506020850135612678816131a9565b93969395505050506040820135916060013590565b6000806020838503121561269f578182fd5b823567ffffffffffffffff8111156126b5578283fd5b6126c185828601612294565b90969095509350505050565b60008060008060008060008060c0898b0312156126e8578182fd5b883567ffffffffffffffff808211156126ff578384fd5b61270b8c838d01612294565b909a50985060208b0135915080821115612723578384fd5b506127308b828c01612294565b9097509550506040890135612744816131a9565b935060608901359250608089013561275b816131a9565b915060a089013561276b816131a9565b809150509295985092959890939650565b60006080828403121561278d578081fd5b6040516080810181811067ffffffffffffffff821117156127b0576127b0613193565b6040526127bc83612284565b81526127ca60208401612284565b60208201526127db60408401612284565b60408201526127ec60608401612284565b60608201529392505050565b600060208284031215612809578081fd5b5035919050565b60609190911b6bffffffffffffffffffffffff1916815260140190565b815460009081906002810460018083168061284957607f831692505b602080841082141561286957634e487b7160e01b87526022600452602487fd5b81801561287d576001811461288e576128ba565b60ff198616895284890196506128ba565b6128978a6130ad565b885b868110156128b25781548b820152908501908301612899565b505084890196505b509498975050505050505050565b61190160f01b81526002810192909252602282015260420190565b6001600160a01b0391909116815260200190565b6001600160a01b039384168152919092166020820152604081019190915260600190565b901515815260200190565b91151582521515602082015260400190565b90815260200190565b9586526001600160a01b0394851660208701529290931660408501526060840152608083019190915260a082015260c00190565b9485526020850193909352604084019190915260608301526001600160a01b0316608082015260a00190565b60008482526040602083015282604083015282846060840137818301606090810191909152601f909201601f1916010192915050565b93845260208401929092526040830152606082015260800190565b93845260ff9290921660208401526040830152606082015260800190565b6000602080835283518082850152825b81811015612a3c57858101830151858201604001528201612a20565b81811115612a4d5783604083870101525b50601f01601f1916929092016040019392505050565b6020808252601e908201527f455243323054656d706c6174653a204e4f5420464545204d414e414745520000604082015260600190565b60208082526023908201527f45524332303a207472616e7366657220746f20746865207a65726f206164647260408201526265737360e81b606082015260800190565b6020808252602c908201527f455243323054656d706c6174653a20496e76616c6964206d696e7465722c202060408201526b7a65726f206164647265737360a01b606082015260800190565b60208082526022908201527f4552433230526f6c65733a2020414c5245414459204120464545204d414e414760408201526122a960f11b606082015260800190565b60208082526022908201527f45524332303a20617070726f766520746f20746865207a65726f206164647265604082015261737360f01b606082015260800190565b60208082526013908201527215d493d391c8105494905654c81193d4935055606a1b604082015260600190565b6020808252601d908201527f4552433230526f6c65733a2020414c52454144592041204d494e544552000000604082015260600190565b60208082526026908201527f45524332303a207472616e7366657220616d6f756e7420657863656564732062604082015265616c616e636560d01b606082015260800190565b6020808252601f908201527f455243323054656d706c6174653a204e4f542037323120436f6e747261637400604082015260600190565b60208082526029908201527f44617461546f6b656e54656d706c6174653a206661696c656420746f2066696e60408201526834b9b41037b93232b960b91b606082015260800190565b60208082526031908201527f455243323054656d706c6174653a20746f6b656e20696e7374616e636520616c6040820152701c9958591e481a5b9a5d1a585b1a5e9959607a1b606082015260800190565b6020808252818101527f455243323054656d706c6174653a204e4f54204445504c4f59455220524f4c45604082015260600190565b60208082526024908201527f44617461546f6b656e54656d706c6174653a20496e76616c6964206361702076604082015263616c756560e01b606082015260800190565b60208082526028908201527f45524332303a207472616e7366657220616d6f756e74206578636565647320616040820152676c6c6f77616e636560c01b606082015260800190565b60208082526010908201526f115490cc8c11150e881156141254915160821b604082015260600190565b60208082526019908201527f455243323054656d706c6174653a204e4f54204d494e54455200000000000000604082015260600190565b60208082526025908201527f45524332303a207472616e736665722066726f6d20746865207a65726f206164604082015264647265737360d81b606082015260800190565b6020808252601b908201527f455243323054656d706c6174653a206e6f74204e46544f776e65720000000000604082015260600190565b60208082526024908201527f45524332303a20617070726f76652066726f6d20746865207a65726f206164646040820152637265737360e01b606082015260800190565b6020808252601f908201527f44617461546f6b656e54656d706c6174653a2063617020657863656564656400604082015260600190565b6020808252603c908201527f455243323054656d706c6174653a20496e76616c696420636f6d6d756e69747960408201527f2066656520636f6c6c6563746f722c207a65726f206164647265737300000000606082015260800190565b6020808252601a908201527f455243323044543a20494e56414c49445f5349474e4154555245000000000000604082015260600190565b60208082526025908201527f45524332303a2064656372656173656420616c6c6f77616e63652062656c6f77604082015264207a65726f60d81b606082015260800190565b6020808252601f908201527f45524332303a206d696e7420746f20746865207a65726f206164647265737300604082015260600190565b60ff91909116815260200190565b60405181810167ffffffffffffffff8111828210171561308157613081613193565b604052919050565b600067ffffffffffffffff8211156130a3576130a3613193565b5060209081020190565b60009081526020902090565b600082198211156130cc576130cc61317d565b500190565b6000826130ec57634e487b7160e01b81526012600452602481fd5b500490565b600081600019048311821515161561310b5761310b61317d565b500290565b6000828210156131225761312261317d565b500390565b60028104600182168061313b57607f821691505b6020821081141561315c57634e487b7160e01b600052602260045260246000fd5b50919050565b60006000198214156131765761317661317d565b5060010190565b634e487b7160e01b600052601160045260246000fd5b634e487b7160e01b600052604160045260246000fd5b6001600160a01b03811681146120d057600080fdfea2646970667358221220043d4cf13e0c650a15c5be847db1b8eb65c66e0263a6663fced35b9bb2d9c5ec64736f6c63430008000033",
  "linkReferences": {},
  "deployedLinkReferences": {}
}