{
  "_format": "hh-sol-artifact-1",
  "contractName": "ERC20Template",
  "sourceName": "contracts/templates/ERC20Template.sol",
  "abi": [
    {
      "anonymous": false,
      "inputs": [
        {
          "indexed": true,
          "internalType": "address",
          "name": "user",
          "type": "address"
        },
        {
          "indexed": true,
          "internalType": "address",
          "name": "signer",
          "type": "address"
        },
        {
          "indexed": false,
          "internalType": "uint256",
          "name": "timestamp",
          "type": "uint256"
        },
        {
          "indexed": false,
          "internalType": "uint256",
          "name": "blockNumber",
          "type": "uint256"
        }
      ],
      "name": "AddedMinter",
      "type": "event"
    },
    {
      "anonymous": false,
      "inputs": [
        {
          "indexed": true,
          "internalType": "address",
          "name": "user",
          "type": "address"
        },
        {
          "indexed": true,
          "internalType": "address",
          "name": "signer",
          "type": "address"
        },
        {
          "indexed": false,
          "internalType": "uint256",
          "name": "timestamp",
          "type": "uint256"
        },
        {
          "indexed": false,
          "internalType": "uint256",
          "name": "blockNumber",
          "type": "uint256"
        }
      ],
      "name": "AddedPaymentManager",
      "type": "event"
    },
    {
      "anonymous": false,
      "inputs": [
        {
          "indexed": true,
          "internalType": "address",
          "name": "owner",
          "type": "address"
        },
        {
          "indexed": true,
          "internalType": "address",
          "name": "spender",
          "type": "address"
        },
        {
          "indexed": false,
          "internalType": "uint256",
          "name": "value",
          "type": "uint256"
        }
      ],
      "name": "Approval",
      "type": "event"
    },
    {
      "anonymous": false,
      "inputs": [
        {
          "indexed": true,
          "internalType": "address",
          "name": "signer",
          "type": "address"
        },
        {
          "indexed": false,
          "internalType": "uint256",
          "name": "timestamp",
          "type": "uint256"
        },
        {
          "indexed": false,
          "internalType": "uint256",
          "name": "blockNumber",
          "type": "uint256"
        }
      ],
      "name": "CleanedPermissions",
      "type": "event"
    },
    {
      "anonymous": false,
      "inputs": [
        {
          "indexed": false,
          "internalType": "address",
          "name": "currentMinter",
          "type": "address"
        },
        {
          "indexed": false,
          "internalType": "address",
          "name": "newMinter",
          "type": "address"
        }
      ],
      "name": "MinterApproved",
      "type": "event"
    },
    {
      "anonymous": false,
      "inputs": [
        {
          "indexed": false,
          "internalType": "address",
          "name": "currentMinter",
          "type": "address"
        },
        {
          "indexed": false,
          "internalType": "address",
          "name": "newMinter",
          "type": "address"
        }
      ],
      "name": "MinterProposed",
      "type": "event"
    },
    {
      "anonymous": false,
      "inputs": [
        {
          "indexed": false,
          "internalType": "bytes32",
          "name": "exchangeId",
          "type": "bytes32"
        },
        {
          "indexed": false,
          "internalType": "address",
          "name": "owner",
          "type": "address"
        }
      ],
      "name": "NewFixedRate",
      "type": "event"
    },
    {
      "anonymous": false,
      "inputs": [
        {
          "indexed": true,
          "internalType": "address",
          "name": "caller",
          "type": "address"
        },
        {
          "indexed": true,
          "internalType": "address",
          "name": "_newPaymentCollector",
          "type": "address"
        },
        {
          "indexed": false,
          "internalType": "uint256",
          "name": "timestamp",
          "type": "uint256"
        },
        {
          "indexed": false,
          "internalType": "uint256",
          "name": "blockNumber",
          "type": "uint256"
        }
      ],
      "name": "NewPaymentCollector",
      "type": "event"
    },
    {
      "anonymous": false,
      "inputs": [
        {
          "indexed": false,
          "internalType": "address",
          "name": "poolAddress",
          "type": "address"
        },
        {
          "indexed": false,
          "internalType": "address",
          "name": "ssContract",
          "type": "address"
        },
        {
          "indexed": false,
          "internalType": "address",
          "name": "basetokenAddress",
          "type": "address"
        }
      ],
      "name": "NewPool",
      "type": "event"
    },
    {
      "anonymous": false,
      "inputs": [
        {
          "indexed": true,
          "internalType": "address",
          "name": "consumeFeeAddress",
          "type": "address"
        },
        {
          "indexed": true,
          "internalType": "address",
          "name": "consumeFeeToken",
          "type": "address"
        },
        {
          "indexed": false,
          "internalType": "uint256",
          "name": "consumeFeeAmount",
          "type": "uint256"
        }
      ],
      "name": "OrderMarketFees",
      "type": "event"
    },
    {
      "anonymous": false,
      "inputs": [
        {
          "indexed": true,
          "internalType": "address",
          "name": "consumer",
          "type": "address"
        },
        {
          "indexed": false,
          "internalType": "address",
          "name": "payer",
          "type": "address"
        },
        {
          "indexed": false,
          "internalType": "uint256",
          "name": "amount",
          "type": "uint256"
        },
        {
          "indexed": false,
          "internalType": "uint256",
          "name": "serviceId",
          "type": "uint256"
        },
        {
          "indexed": false,
          "internalType": "uint256",
          "name": "timestamp",
          "type": "uint256"
        },
        {
          "indexed": true,
          "internalType": "address",
          "name": "publishMarketAddress",
          "type": "address"
        },
        {
          "indexed": true,
          "internalType": "address",
          "name": "consumeFeeMarketAddress",
          "type": "address"
        },
        {
          "indexed": false,
          "internalType": "uint256",
          "name": "blockNumber",
          "type": "uint256"
        }
      ],
      "name": "OrderStarted",
      "type": "event"
    },
    {
      "anonymous": false,
      "inputs": [
        {
          "indexed": true,
          "internalType": "address",
          "name": "user",
          "type": "address"
        },
        {
          "indexed": true,
          "internalType": "address",
          "name": "signer",
          "type": "address"
        },
        {
          "indexed": false,
          "internalType": "uint256",
          "name": "timestamp",
          "type": "uint256"
        },
        {
          "indexed": false,
          "internalType": "uint256",
          "name": "blockNumber",
          "type": "uint256"
        }
      ],
      "name": "RemovedMinter",
      "type": "event"
    },
    {
      "anonymous": false,
      "inputs": [
        {
          "indexed": true,
          "internalType": "address",
          "name": "user",
          "type": "address"
        },
        {
          "indexed": true,
          "internalType": "address",
          "name": "signer",
          "type": "address"
        },
        {
          "indexed": false,
          "internalType": "uint256",
          "name": "timestamp",
          "type": "uint256"
        },
        {
          "indexed": false,
          "internalType": "uint256",
          "name": "blockNumber",
          "type": "uint256"
        }
      ],
      "name": "RemovedPaymentManager",
      "type": "event"
    },
    {
      "anonymous": false,
      "inputs": [
        {
          "indexed": true,
          "internalType": "address",
          "name": "from",
          "type": "address"
        },
        {
          "indexed": true,
          "internalType": "address",
          "name": "to",
          "type": "address"
        },
        {
          "indexed": false,
          "internalType": "uint256",
          "name": "value",
          "type": "uint256"
        }
      ],
      "name": "Transfer",
      "type": "event"
    },
    {
      "stateMutability": "payable",
      "type": "fallback"
    },
    {
      "inputs": [],
      "name": "BASE",
      "outputs": [
        {
          "internalType": "uint256",
          "name": "",
          "type": "uint256"
        }
      ],
      "stateMutability": "view",
      "type": "function"
    },
    {
      "inputs": [],
      "name": "BASE_COMMUNITY_FEE_PERCENTAGE",
      "outputs": [
        {
          "internalType": "uint256",
          "name": "",
          "type": "uint256"
        }
      ],
      "stateMutability": "view",
      "type": "function"
    },
    {
      "inputs": [],
      "name": "DOMAIN_SEPARATOR",
      "outputs": [
        {
          "internalType": "bytes32",
          "name": "",
          "type": "bytes32"
        }
      ],
      "stateMutability": "view",
      "type": "function"
    },
    {
      "inputs": [],
      "name": "PERMIT_TYPEHASH",
      "outputs": [
        {
          "internalType": "bytes32",
          "name": "",
          "type": "bytes32"
        }
      ],
      "stateMutability": "view",
      "type": "function"
    },
    {
      "inputs": [
        {
          "internalType": "address",
          "name": "_minter",
          "type": "address"
        }
      ],
      "name": "addMinter",
      "outputs": [],
      "stateMutability": "nonpayable",
      "type": "function"
    },
    {
      "inputs": [
        {
          "internalType": "address",
          "name": "_paymentManager",
          "type": "address"
        }
      ],
      "name": "addPaymentManager",
      "outputs": [],
      "stateMutability": "nonpayable",
      "type": "function"
    },
    {
      "inputs": [
        {
          "internalType": "address",
          "name": "owner",
          "type": "address"
        },
        {
          "internalType": "address",
          "name": "spender",
          "type": "address"
        }
      ],
      "name": "allowance",
      "outputs": [
        {
          "internalType": "uint256",
          "name": "",
          "type": "uint256"
        }
      ],
      "stateMutability": "view",
      "type": "function"
    },
    {
      "inputs": [
        {
          "internalType": "address",
          "name": "spender",
          "type": "address"
        },
        {
          "internalType": "uint256",
          "name": "amount",
          "type": "uint256"
        }
      ],
      "name": "approve",
      "outputs": [
        {
          "internalType": "bool",
          "name": "",
          "type": "bool"
        }
      ],
      "stateMutability": "nonpayable",
      "type": "function"
    },
    {
      "inputs": [
        {
          "internalType": "uint256",
          "name": "",
          "type": "uint256"
        }
      ],
      "name": "authERC20",
      "outputs": [
        {
          "internalType": "address",
          "name": "",
          "type": "address"
        }
      ],
      "stateMutability": "view",
      "type": "function"
    },
    {
      "inputs": [
        {
          "internalType": "address",
          "name": "account",
          "type": "address"
        }
      ],
      "name": "balanceOf",
      "outputs": [
        {
          "internalType": "uint256",
          "name": "",
          "type": "uint256"
        }
      ],
      "stateMutability": "view",
      "type": "function"
    },
    {
      "inputs": [
        {
          "internalType": "uint256",
          "name": "amount",
          "type": "uint256"
        }
      ],
      "name": "burn",
      "outputs": [],
      "stateMutability": "nonpayable",
      "type": "function"
    },
    {
      "inputs": [
        {
          "internalType": "address",
          "name": "account",
          "type": "address"
        },
        {
          "internalType": "uint256",
          "name": "amount",
          "type": "uint256"
        }
      ],
      "name": "burnFrom",
      "outputs": [],
      "stateMutability": "nonpayable",
      "type": "function"
    },
    {
      "inputs": [],
      "name": "cap",
      "outputs": [
        {
          "internalType": "uint256",
          "name": "",
          "type": "uint256"
        }
      ],
      "stateMutability": "view",
      "type": "function"
    },
    {
      "inputs": [],
      "name": "cleanFrom721",
      "outputs": [],
      "stateMutability": "nonpayable",
      "type": "function"
    },
    {
      "inputs": [],
      "name": "cleanPermissions",
      "outputs": [],
      "stateMutability": "nonpayable",
      "type": "function"
    },
    {
      "inputs": [
        {
          "internalType": "address",
          "name": "_dispenser",
          "type": "address"
        },
        {
          "internalType": "uint256",
          "name": "maxTokens",
          "type": "uint256"
        },
        {
          "internalType": "uint256",
          "name": "maxBalance",
          "type": "uint256"
        },
        {
          "internalType": "bool",
          "name": "withMint",
          "type": "bool"
        },
        {
          "internalType": "address",
          "name": "allowedSwapper",
          "type": "address"
        }
      ],
      "name": "createDispenser",
      "outputs": [],
      "stateMutability": "nonpayable",
      "type": "function"
    },
    {
      "inputs": [
        {
          "internalType": "address",
          "name": "fixedPriceAddress",
          "type": "address"
        },
        {
          "internalType": "address[]",
          "name": "addresses",
          "type": "address[]"
        },
        {
          "internalType": "uint256[]",
          "name": "uints",
          "type": "uint256[]"
        }
      ],
      "name": "createFixedRate",
      "outputs": [
        {
          "internalType": "bytes32",
          "name": "exchangeId",
          "type": "bytes32"
        }
      ],
      "stateMutability": "nonpayable",
      "type": "function"
    },
    {
      "inputs": [],
      "name": "decimals",
      "outputs": [
        {
          "internalType": "uint8",
          "name": "",
          "type": "uint8"
        }
      ],
      "stateMutability": "pure",
      "type": "function"
    },
    {
      "inputs": [
        {
          "internalType": "address",
          "name": "spender",
          "type": "address"
        },
        {
          "internalType": "uint256",
          "name": "subtractedValue",
          "type": "uint256"
        }
      ],
      "name": "decreaseAllowance",
      "outputs": [
        {
          "internalType": "bool",
          "name": "",
          "type": "bool"
        }
      ],
      "stateMutability": "nonpayable",
      "type": "function"
    },
    {
      "inputs": [
        {
          "internalType": "uint256[]",
          "name": "ssParams",
          "type": "uint256[]"
        },
        {
          "internalType": "uint256[]",
          "name": "swapFees",
          "type": "uint256[]"
        },
        {
          "internalType": "address[]",
          "name": "addresses",
          "type": "address[]"
        }
      ],
      "name": "deployPool",
      "outputs": [
        {
          "internalType": "address",
          "name": "pool",
          "type": "address"
        }
      ],
      "stateMutability": "nonpayable",
      "type": "function"
    },
    {
      "inputs": [],
      "name": "getERC721Address",
      "outputs": [
        {
          "internalType": "address",
          "name": "",
          "type": "address"
        }
      ],
      "stateMutability": "view",
      "type": "function"
    },
    {
      "inputs": [],
      "name": "getId",
      "outputs": [
        {
          "internalType": "uint8",
          "name": "",
          "type": "uint8"
        }
      ],
      "stateMutability": "pure",
      "type": "function"
    },
    {
      "inputs": [],
      "name": "getPaymentCollector",
      "outputs": [
        {
          "internalType": "address",
          "name": "",
          "type": "address"
        }
      ],
      "stateMutability": "view",
      "type": "function"
    },
    {
      "inputs": [],
      "name": "getPublishingMarketFee",
      "outputs": [
        {
          "internalType": "address",
          "name": "",
          "type": "address"
        },
        {
          "internalType": "address",
          "name": "",
          "type": "address"
        },
        {
          "internalType": "uint256",
          "name": "",
          "type": "uint256"
        }
      ],
      "stateMutability": "view",
      "type": "function"
    },
    {
      "inputs": [
        {
          "internalType": "address",
          "name": "spender",
          "type": "address"
        },
        {
          "internalType": "uint256",
          "name": "addedValue",
          "type": "uint256"
        }
      ],
      "name": "increaseAllowance",
      "outputs": [
        {
          "internalType": "bool",
          "name": "",
          "type": "bool"
        }
      ],
      "stateMutability": "nonpayable",
      "type": "function"
    },
    {
      "inputs": [
        {
          "internalType": "string[]",
          "name": "strings_",
          "type": "string[]"
        },
        {
          "internalType": "address[]",
          "name": "addresses_",
          "type": "address[]"
        },
        {
          "internalType": "address[]",
          "name": "factoryAddresses_",
          "type": "address[]"
        },
        {
          "internalType": "uint256[]",
          "name": "uints_",
          "type": "uint256[]"
        },
        {
          "internalType": "bytes[]",
          "name": "bytes_",
          "type": "bytes[]"
        }
      ],
      "name": "initialize",
      "outputs": [
        {
          "internalType": "bool",
          "name": "",
          "type": "bool"
        }
      ],
      "stateMutability": "nonpayable",
      "type": "function"
    },
    {
      "inputs": [],
      "name": "isInitialized",
      "outputs": [
        {
          "internalType": "bool",
          "name": "",
          "type": "bool"
        }
      ],
      "stateMutability": "view",
      "type": "function"
    },
    {
      "inputs": [
        {
          "internalType": "address",
          "name": "account",
          "type": "address"
        }
      ],
      "name": "isMinter",
      "outputs": [
        {
          "internalType": "bool",
          "name": "",
          "type": "bool"
        }
      ],
      "stateMutability": "view",
      "type": "function"
    },
    {
      "inputs": [
        {
          "internalType": "address",
          "name": "account",
          "type": "address"
        },
        {
          "internalType": "uint256",
          "name": "value",
          "type": "uint256"
        }
      ],
      "name": "mint",
      "outputs": [],
      "stateMutability": "nonpayable",
      "type": "function"
    },
    {
      "inputs": [],
      "name": "name",
      "outputs": [
        {
          "internalType": "string",
          "name": "",
          "type": "string"
        }
      ],
      "stateMutability": "view",
      "type": "function"
    },
    {
      "inputs": [
        {
          "internalType": "address",
          "name": "",
          "type": "address"
        }
      ],
      "name": "nonces",
      "outputs": [
        {
          "internalType": "uint256",
          "name": "",
          "type": "uint256"
        }
      ],
      "stateMutability": "view",
      "type": "function"
    },
    {
      "inputs": [
        {
          "internalType": "address",
          "name": "",
          "type": "address"
        }
      ],
      "name": "permissions",
      "outputs": [
        {
          "internalType": "bool",
          "name": "minter",
          "type": "bool"
        },
        {
          "internalType": "bool",
          "name": "paymentManager",
          "type": "bool"
        }
      ],
      "stateMutability": "view",
      "type": "function"
    },
    {
      "inputs": [
        {
          "internalType": "address",
          "name": "owner",
          "type": "address"
        },
        {
          "internalType": "address",
          "name": "spender",
          "type": "address"
        },
        {
          "internalType": "uint256",
          "name": "value",
          "type": "uint256"
        },
        {
          "internalType": "uint256",
          "name": "deadline",
          "type": "uint256"
        },
        {
          "internalType": "uint8",
          "name": "v",
          "type": "uint8"
        },
        {
          "internalType": "bytes32",
          "name": "r",
          "type": "bytes32"
        },
        {
          "internalType": "bytes32",
          "name": "s",
          "type": "bytes32"
        }
      ],
      "name": "permit",
      "outputs": [],
      "stateMutability": "nonpayable",
      "type": "function"
    },
    {
      "inputs": [
        {
          "internalType": "address",
          "name": "_minter",
          "type": "address"
        }
      ],
      "name": "removeMinter",
      "outputs": [],
      "stateMutability": "nonpayable",
      "type": "function"
    },
    {
      "inputs": [
        {
          "internalType": "address",
          "name": "_paymentManager",
          "type": "address"
        }
      ],
      "name": "removePaymentManager",
      "outputs": [],
      "stateMutability": "nonpayable",
      "type": "function"
    },
    {
      "inputs": [],
      "name": "router",
      "outputs": [
        {
          "internalType": "address",
          "name": "",
          "type": "address"
        }
      ],
      "stateMutability": "view",
      "type": "function"
    },
    {
      "inputs": [
        {
          "internalType": "bytes",
          "name": "_value",
          "type": "bytes"
        }
      ],
      "name": "setData",
      "outputs": [],
      "stateMutability": "nonpayable",
      "type": "function"
    },
    {
      "inputs": [
        {
          "internalType": "address",
          "name": "_newPaymentCollector",
          "type": "address"
        }
      ],
      "name": "setPaymentCollector",
      "outputs": [],
      "stateMutability": "nonpayable",
      "type": "function"
    },
    {
      "inputs": [
        {
          "internalType": "address",
          "name": "_publishMarketFeeAddress",
          "type": "address"
        },
        {
          "internalType": "address",
          "name": "_publishMarketFeeToken",
          "type": "address"
        },
        {
          "internalType": "uint256",
          "name": "_publishMarketFeeAmount",
          "type": "uint256"
        }
      ],
      "name": "setPublishingMarketFee",
      "outputs": [],
      "stateMutability": "nonpayable",
      "type": "function"
    },
    {
      "inputs": [
        {
          "internalType": "address",
          "name": "consumer",
          "type": "address"
        },
        {
          "internalType": "uint256",
          "name": "amount",
          "type": "uint256"
        },
        {
          "internalType": "uint256",
          "name": "serviceId",
          "type": "uint256"
        },
        {
          "internalType": "address",
          "name": "consumeFeeAddress",
          "type": "address"
        },
        {
          "internalType": "address",
          "name": "consumeFeeToken",
          "type": "address"
        },
        {
          "internalType": "uint256",
          "name": "consumeFeeAmount",
          "type": "uint256"
        }
      ],
      "name": "startOrder",
      "outputs": [],
      "stateMutability": "nonpayable",
      "type": "function"
    },
    {
      "inputs": [],
      "name": "symbol",
      "outputs": [
        {
          "internalType": "string",
          "name": "",
          "type": "string"
        }
      ],
      "stateMutability": "view",
      "type": "function"
    },
    {
      "inputs": [],
      "name": "totalSupply",
      "outputs": [
        {
          "internalType": "uint256",
          "name": "",
          "type": "uint256"
        }
      ],
      "stateMutability": "view",
      "type": "function"
    },
    {
      "inputs": [
        {
          "internalType": "address",
          "name": "recipient",
          "type": "address"
        },
        {
          "internalType": "uint256",
          "name": "amount",
          "type": "uint256"
        }
      ],
      "name": "transfer",
      "outputs": [
        {
          "internalType": "bool",
          "name": "",
          "type": "bool"
        }
      ],
      "stateMutability": "nonpayable",
      "type": "function"
    },
    {
      "inputs": [
        {
          "internalType": "address",
          "name": "sender",
          "type": "address"
        },
        {
          "internalType": "address",
          "name": "recipient",
          "type": "address"
        },
        {
          "internalType": "uint256",
          "name": "amount",
          "type": "uint256"
        }
      ],
      "name": "transferFrom",
      "outputs": [
        {
          "internalType": "bool",
          "name": "",
          "type": "bool"
        }
      ],
      "stateMutability": "nonpayable",
      "type": "function"
    },
    {
      "inputs": [],
      "name": "withdrawETH",
      "outputs": [],
      "stateMutability": "payable",
      "type": "function"
    }
  ],
  "bytecode": "0x6080604052600a805460ff60a01b191690553480156200001e57600080fd5b5060408051808201825260048152631d195cdd60e21b60208083019182528351808501909452600a8452691d195cdd14de5b589bdb60b21b9084015281519192916200006d916003916200008c565b508051620000839060049060208401906200008c565b5050506200016f565b8280546200009a9062000132565b90600052602060002090601f016020900481019282620000be576000855562000109565b82601f10620000d957805160ff191683800117855562000109565b8280016001018555821562000109579182015b8281111562000109578251825591602001919060010190620000ec565b50620001179291506200011b565b5090565b5b808211156200011757600081556001016200011c565b600181811c908216806200014757607f821691505b602082108114156200016957634e487b7160e01b600052602260045260246000fd5b50919050565b61410f806200017f6000396000f3fe60806040526004361061025c5760003560e01c80635d1ca63111610143578063aa492ef9116100bb578063e086e5ec11610077578063e086e5ec146107dc578063e487c2e8146107e4578063ec342ad0146107f9578063ef867ff414610815578063f887ea4014610835578063fda9dae71461085557005b8063aa492ef914610701578063ab62f0e114610721578063b2263a5d14610741578063b3998be014610756578063d505accf14610776578063dd62ed3e1461079657005b80638b96412b1161010a5780638b96412b1461063357806395d89b4114610653578063983b2d5614610668578063a457c2d714610688578063a9059cbb146106a8578063aa271e1a146106c857005b80635d1ca6311461058757806370a082311461059b57806379cc6790146105d15780637ecebe00146105f157806382c03da51461061e57005b8063355274ea116101d657806340c10f191161019d57806340c10f19146104d257806342966c68146104f25780634f189cb21461051257806357a3a31b1461052757806357ad5ff6146105475780635bfe4da01461056757005b8063355274ea1461042c5780633644e51514610441578063392e53cd146104575780633950935114610476578063397b37431461049657005b8063191c918a11610225578063191c918a1461035657806323b872dd1461037657806325b00243146103965780633092afd5146103b657806330adf81f146103d6578063313ce5671461040a57005b80627ffb781461025e57806301e882081461029557806306fdde03146102e5578063095ea7b31461030757806318160ddd14610337575b005b34801561026a57600080fd5b50600b546001600160a01b03165b6040516001600160a01b0390911681526020015b60405180910390f35b3480156102a157600080fd5b506102ce6102b036600461369e565b60056020526000908152604090205460ff8082169161010090041682565b60408051921515835290151560208301520161028c565b3480156102f157600080fd5b506102fa610875565b60405161028c9190613de2565b34801561031357600080fd5b5061032761032236600461383f565b610907565b604051901515815260200161028c565b34801561034357600080fd5b506002545b60405190815260200161028c565b34801561036257600080fd5b5061025c6103713660046138d2565b61091d565b34801561038257600080fd5b50610327610391366004613711565b610a64565b3480156103a257600080fd5b5061025c6103b136600461369e565b610b0e565b3480156103c257600080fd5b5061025c6103d136600461369e565b610bbc565b3480156103e257600080fd5b506103487f6e71edae12b1b97f4d1f60370fef10105fa2faae0126114a169c64845d6126c981565b34801561041657600080fd5b5060125b60405160ff909116815260200161028c565b34801561043857600080fd5b50600954610348565b34801561044d57600080fd5b5061034860105481565b34801561046357600080fd5b50600a54600160a01b900460ff16610327565b34801561048257600080fd5b5061032761049136600461383f565b610c67565b3480156104a257600080fd5b50600d54600e54600f54604080516001600160a01b0394851681529390921660208401529082015260600161028c565b3480156104de57600080fd5b5061025c6104ed36600461383f565b610ca3565b3480156104fe57600080fd5b5061025c61050d366004613bcd565b610d79565b34801561051e57600080fd5b5061025c610d83565b34801561053357600080fd5b5061025c61054236600461369e565b610e79565b34801561055357600080fd5b5061025c610562366004613711565b610fd5565b34801561057357600080fd5b50610278610582366004613a22565b611077565b34801561059357600080fd5b50600161041a565b3480156105a757600080fd5b506103486105b636600461369e565b6001600160a01b031660009081526020819052604090205490565b3480156105dd57600080fd5b5061025c6105ec36600461383f565b611380565b3480156105fd57600080fd5b5061034861060c36600461369e565b60116020526000908152604090205481565b34801561062a57600080fd5b5061025c611406565b34801561063f57600080fd5b5061034861064e3660046137c9565b611460565b34801561065f57600080fd5b506102fa611623565b34801561067457600080fd5b5061025c61068336600461369e565b611632565b34801561069457600080fd5b506103276106a336600461383f565b6116dd565b3480156106b457600080fd5b506103276106c336600461383f565b611776565b3480156106d457600080fd5b506103276106e336600461369e565b6001600160a01b031660009081526005602052604090205460ff1690565b34801561070d57600080fd5b5061025c61071c36600461369e565b611783565b34801561072d57600080fd5b5061025c61073c366004613ad6565b61182e565b34801561074d57600080fd5b50610348611973565b34801561076257600080fd5b50610327610771366004613931565b611989565b34801561078257600080fd5b5061025c610791366004613752565b611ac3565b3480156107a257600080fd5b506103486107b13660046136d8565b6001600160a01b03918216600090815260016020908152604080832093909416825291909152205490565b61025c611cd5565b3480156107f057600080fd5b50610278611d15565b34801561080557600080fd5b50610348670de0b6b3a764000081565b34801561082157600080fd5b50610278610830366004613bcd565b611db9565b34801561084157600080fd5b50601254610278906001600160a01b031681565b34801561086157600080fd5b5061025c61087036600461386b565b611de3565b6060600780546108849061401e565b80601f01602080910402602001604051908101604052809291908181526020018280546108b09061401e565b80156108fd5780601f106108d2576101008083540402835291602001916108fd565b820191906000526020600020905b8154815290600101906020018083116108e057829003601f168201915b5050505050905090565b6000610914338484612689565b50600192915050565b600b5460405163160a792560e01b81523360048201526001600160a01b039091169063160a792590602401608060405180830381600087803b15801561096257600080fd5b505af1158015610976573d6000803e3d6000fd5b505050506040513d601f19601f8201168201806040525081019061099a9190613b48565b6020015115156001146109c85760405162461bcd60e51b81526004016109bf90613e37565b60405180910390fd5b601254604051636b14d00560e11b81526001600160a01b038781166004830152306024830152604482018790526064820186905233608483015283811660a48301529091169063d629a00a9060c401600060405180830381600087803b158015610a3157600080fd5b505af1158015610a45573d6000803e3d6000fd5b5050505081151560011415610a5d57610a5d856127ad565b5050505050565b6000610a718484846128af565b6001600160a01b038416600090815260016020908152604080832033845290915290205482811015610af65760405162461bcd60e51b815260206004820152602860248201527f45524332303a207472616e7366657220616d6f756e74206578636565647320616044820152676c6c6f77616e636560c01b60648201526084016109bf565b610b038533858403612689565b506001949350505050565b600b5460405163160a792560e01b81523360048201526001600160a01b039091169063160a792590602401608060405180830381600087803b158015610b5357600080fd5b505af1158015610b67573d6000803e3d6000fd5b505050506040513d601f19601f82011682018060405250810190610b8b9190613b48565b602001511515600114610bb05760405162461bcd60e51b81526004016109bf90613e37565b610bb981612a7e565b50565b600b5460405163160a792560e01b81523360048201526001600160a01b039091169063160a792590602401608060405180830381600087803b158015610c0157600080fd5b505af1158015610c15573d6000803e3d6000fd5b505050506040513d601f19601f82011682018060405250810190610c399190613b48565b602001511515600114610c5e5760405162461bcd60e51b81526004016109bf90613e37565b610bb981612adf565b3360008181526001602090815260408083206001600160a01b03871684529091528120549091610914918590610c9e908690613ec1565b612689565b3360009081526005602052604090205460ff161515600114610d075760405162461bcd60e51b815260206004820152601960248201527f455243323054656d706c6174653a204e4f54204d494e5445520000000000000060448201526064016109bf565b600954610d1d82610d1760025490565b90612b3f565b1115610d6b5760405162461bcd60e51b815260206004820152601f60248201527f44617461546f6b656e54656d706c6174653a206361702065786365656465640060448201526064016109bf565b610d758282612b52565b5050565b610bb93382612c31565b600b546040516331a9108f60e11b8152600160048201526001600160a01b0390911690636352211e9060240160206040518083038186803b158015610dc757600080fd5b505afa158015610ddb573d6000803e3d6000fd5b505050506040513d601f19601f82011682018060405250810190610dff91906136bb565b6001600160a01b0316336001600160a01b031614610e5f5760405162461bcd60e51b815260206004820152601b60248201527f455243323054656d706c6174653a206e6f74204e46544f776e6572000000000060448201526064016109bf565b610e67612d7f565b600c80546001600160a01b0319169055565b3360009081526005602052604090205460ff61010090910416151560011480610f245750600b5460405163160a792560e01b81523360048201526001600160a01b039091169063160a792590602401608060405180830381600087803b158015610ee257600080fd5b505af1158015610ef6573d6000803e3d6000fd5b505050506040513d601f19601f82011682018060405250810190610f1a9190613b48565b6020015115156001145b610f845760405162461bcd60e51b815260206004820152602b60248201527f455243323054656d706c6174653a204e4f54205041594d454e54204d414e414760448201526a22a91037b91027aba722a960a91b60648201526084016109bf565b610f8d81612e2e565b604080514281524360208201526001600160a01b0383169133917f4d7694d695c57cc54947177c8e8a0e61aae664e9223492a798c32fadfc6419cc910160405180910390a350565b600d546001600160a01b031633146110425760405162461bcd60e51b815260206004820152602a60248201527f455243323054656d706c6174653a206e6f74207075626c6973684d61726b65746044820152694665654164647265737360b01b60648201526084016109bf565b600d80546001600160a01b039485166001600160a01b031991821617909155600e805493909416921691909117909155600f55565b600b5460405163160a792560e01b81523360048201526000916001600160a01b03169063160a792590602401608060405180830381600087803b1580156110bd57600080fd5b505af11580156110d1573d6000803e3d6000fd5b505050506040513d601f19601f820116820180604052508101906110f59190613b48565b60200151151560011461111a5760405162461bcd60e51b81526004016109bf90613e37565b600254156111765760405162461bcd60e51b8152602060048201526024808201527f455243323054656d706c6174653a20746f6b656e7320616c7265616479206d696044820152631b9d195960e21b60648201526084016109bf565b6111998260008151811061118c5761118c61408a565b60200260200101516127ad565b62250490846003815181106111b0576111b061408a565b6020026020010151116112175760405162461bcd60e51b815260206004820152602960248201527f455243323054656d706c6174653a206d696e696d756d20626c6f636b73206e6f6044820152681d081c995858da195960ba1b60648201526084016109bf565b60006040518060400160405280306001600160a01b03166001600160a01b031681526020018460018151811061124f5761124f61408a565b60209081029190910101516001600160a01b0390811690915260125460405163ee3bc63560e01b8152929350169063ee3bc63590611297908490899089908990600401613d36565b602060405180830381600087803b1580156112b157600080fd5b505af11580156112c5573d6000803e3d6000fd5b505050506040513d601f19601f820116820180604052508101906112e991906136bb565b91507fd02da1bec30f7f750aa0a131745dfb9ce96767c45a192dc26409f5d690e0b96782846000815181106113205761132061408a565b60200260200101518560018151811061133b5761133b61408a565b6020026020010151604051611370939291906001600160a01b0393841681529183166020830152909116604082015260600190565b60405180910390a1509392505050565b600061138c83336107b1565b9050818110156113ea5760405162461bcd60e51b8152602060048201526024808201527f45524332303a206275726e20616d6f756e74206578636565647320616c6c6f77604482015263616e636560e01b60648201526084016109bf565b6113f78333848403612689565b6114018383612c31565b505050565b600b546001600160a01b03163314610e5f5760405162461bcd60e51b815260206004820152601f60248201527f455243323054656d706c6174653a204e4f542037323120436f6e74726163740060448201526064016109bf565b600b5460405163160a792560e01b81523360048201526000916001600160a01b03169063160a792590602401608060405180830381600087803b1580156114a657600080fd5b505af11580156114ba573d6000803e3d6000fd5b505050506040513d601f19601f820116820180604052508101906114de9190613b48565b6020015115156001146115035760405162461bcd60e51b81526004016109bf90613e37565b601254604051638244937560e01b81526001600160a01b039091169063824493759061153790879087908790600401613cf6565b602060405180830381600087803b15801561155157600080fd5b505af1158015611565573d6000803e3d6000fd5b505050506040513d601f19601f820116820180604052508101906115899190613abd565b90506000826004815181106115a0576115a061408a565b602002602001015111156115b7576115b7846127ad565b7f195d202f33578769e120c3041341554af3193e67ee004175095bc9c06e6e616581846000815181106115ec576115ec61408a565b60200260200101516040516116149291909182526001600160a01b0316602082015260400190565b60405180910390a19392505050565b6060600880546108849061401e565b600b5460405163160a792560e01b81523360048201526001600160a01b039091169063160a792590602401608060405180830381600087803b15801561167757600080fd5b505af115801561168b573d6000803e3d6000fd5b505050506040513d601f19601f820116820180604052508101906116af9190613b48565b6020015115156001146116d45760405162461bcd60e51b81526004016109bf90613e37565b610bb9816127ad565b3360009081526001602090815260408083206001600160a01b03861684529091528120548281101561175f5760405162461bcd60e51b815260206004820152602560248201527f45524332303a2064656372656173656420616c6c6f77616e63652062656c6f77604482015264207a65726f60d81b60648201526084016109bf565b61176c3385858403612689565b5060019392505050565b60006109143384846128af565b600b5460405163160a792560e01b81523360048201526001600160a01b039091169063160a792590602401608060405180830381600087803b1580156117c857600080fd5b505af11580156117dc573d6000803e3d6000fd5b505050506040513d601f19601f820116820180604052508101906118009190613b48565b6020015115156001146118255760405162461bcd60e51b81526004016109bf90613e37565b610bb981612e50565b600b5460405163160a792560e01b81523360048201526001600160a01b039091169063160a792590602401608060405180830381600087803b15801561187357600080fd5b505af1158015611887573d6000803e3d6000fd5b505050506040513d601f19601f820116820180604052508101906118ab9190613b48565b6020015115156001146118d05760405162461bcd60e51b81526004016109bf90613e37565b6040516bffffffffffffffffffffffff193060601b16602082015260009060340160408051601f19818403018152908290528051602090910120600b546301caf8fd60e31b83529092506001600160a01b031690630e57c7e89061193c90849087908790600401613dac565b600060405180830381600087803b15801561195657600080fd5b505af115801561196a573d6000803e3d6000fd5b50505050505050565b6119866064670de0b6b3a7640000613ed9565b81565b600a54600090600160a01b900460ff1615611a005760405162461bcd60e51b815260206004820152603160248201527f455243323054656d706c6174653a20746f6b656e20696e7374616e636520616c6044820152701c9958591e481a5b9a5d1a585b1a5e9959607a1b60648201526084016109bf565b611ab4611a0d8b8d613f9e565b8a8a8080602002602001604051908101604052809392919081815260200183836020028082843760009201919091525050604080516020808e0282810182019093528d82529093508d92508c91829185019084908082843760009201919091525050604080516020808d0282810182019093528c82529093508c92508b918291850190849080828437600092019190915250611aaf92508991508a9050613f12565b612f5e565b9b9a5050505050505050505050565b42841015611b065760405162461bcd60e51b815260206004820152601060248201526f115490cc8c11150e881156141254915160821b60448201526064016109bf565b6010546001600160a01b038816600090815260116020526040812080549192917f6e71edae12b1b97f4d1f60370fef10105fa2faae0126114a169c64845d6126c9918b918b918b919087611b5983614059565b909155506040805160208101969096526001600160a01b0394851690860152929091166060840152608083015260a082015260c0810187905260e00160405160208183030381529060405280519060200120604051602001611bd292919061190160f01b81526002810192909252602282015260420190565b60408051601f198184030181528282528051602091820120600080855291840180845281905260ff88169284019290925260608301869052608083018590529092509060019060a0016020604051602081039080840390855afa158015611c3d573d6000803e3d6000fd5b5050604051601f1901519150506001600160a01b03811615801590611c735750886001600160a01b0316816001600160a01b0316145b611cbf5760405162461bcd60e51b815260206004820152601a60248201527f455243323044543a20494e56414c49445f5349474e415455524500000000000060448201526064016109bf565b611cca898989612689565b505050505050505050565b611cdd611d15565b6001600160a01b03166108fc479081150290604051600060405180830381858888f19350505050158015610bb9573d6000803e3d6000fd5b600c546000906001600160a01b0316611da957600b546040516331a9108f60e11b8152600160048201526001600160a01b0390911690636352211e9060240160206040518083038186803b158015611d6c57600080fd5b505afa158015611d80573d6000803e3d6000fd5b505050506040513d601f19601f82011682018060405250810190611da491906136bb565b905090565b50600c546001600160a01b031690565b60068181548110611dc957600080fd5b6000918252602090912001546001600160a01b0316905081565b336000908152602081905260408120548190871115611e525760405162461bcd60e51b815260206004820152602560248201527f4e6f7420656e6f756768204461746120546f6b656e7320746f2073746172742060448201526427b93232b960d91b60648201526084016109bf565b6000600f54118015611e6e5750600e546001600160a01b031615155b8015611e845750600d546001600160a01b031615155b1561208d57600e54600f546040516323b872dd60e01b815233600482015230602482015260448101919091526001600160a01b03909116906323b872dd90606401602060405180830381600087803b158015611edf57600080fd5b505af1158015611ef3573d6000803e3d6000fd5b505050506040513d601f19601f82011682018060405250810190611f179190613aa0565b611f6f5760405162461bcd60e51b815260206004820152602360248201527f4661696c656420746f207472616e73666572207075626c6973684d61726b657460448201526246656560e81b60648201526084016109bf565b600f54611f7d906064613450565b600e54600d54600f549293506001600160a01b039182169263a9059cbb9290911690611fa9908561345c565b6040516001600160e01b031960e085901b1681526001600160a01b0390921660048301526024820152604401602060405180830381600087803b158015611fef57600080fd5b505af1158015612003573d6000803e3d6000fd5b505050506040513d601f19601f820116820180604052508101906120279190613aa0565b61208d5760405162461bcd60e51b815260206004820152603160248201527f4661696c656420746f207472616e736665722066656520746f207075626c6973604482015270684d61726b65744665654164647265737360781b60648201526084016109bf565b6000831180156120a557506001600160a01b03841615155b80156120b957506001600160a01b03851615155b15612295576040516323b872dd60e01b8152336004820152306024820152604481018490526001600160a01b038516906323b872dd90606401602060405180830381600087803b15801561210c57600080fd5b505af1158015612120573d6000803e3d6000fd5b505050506040513d601f19601f820116820180604052508101906121449190613aa0565b6121905760405162461bcd60e51b815260206004820152601d60248201527f4661696c656420746f207472616e7366657220636f6e73756d6546656500000060448201526064016109bf565b61219b836064613450565b91506001600160a01b03841663a9059cbb866121b7868661345c565b6040516001600160e01b031960e085901b1681526001600160a01b0390921660048301526024820152604401602060405180830381600087803b1580156121fd57600080fd5b505af1158015612211573d6000803e3d6000fd5b505050506040513d601f19601f820116820180604052508101906122359190613aa0565b6122955760405162461bcd60e51b815260206004820152602b60248201527f4661696c656420746f207472616e736665722066656520746f20636f6e73756d60448201526a654665654164647265737360a81b60648201526084016109bf565b6000811180156122a55750600082115b80156122be5750600e546001600160a01b038581169116145b156123be57600a546001600160a01b038086169163a9059cbb91166122e38486612b3f565b6040516001600160e01b031960e085901b1681526001600160a01b0390921660048301526024820152604401602060405180830381600087803b15801561232957600080fd5b505af115801561233d573d6000803e3d6000fd5b505050506040513d601f19601f820116820180604052508101906123619190613aa0565b6123b95760405162461bcd60e51b815260206004820152602360248201527f4661696c656420746f207472616e7366657220626f7468206665657320746f2060448201526227a82360e91b60648201526084016109bf565b6125bd565b6000811180156123d85750600e546001600160a01b031615155b156124c057600e54600a5460405163a9059cbb60e01b81526001600160a01b0391821660048201526024810184905291169063a9059cbb90604401602060405180830381600087803b15801561242d57600080fd5b505af1158015612441573d6000803e3d6000fd5b505050506040513d601f19601f820116820180604052508101906124659190613aa0565b6124c05760405162461bcd60e51b815260206004820152602660248201527f4661696c656420746f207472616e73666572207075626c6973682066656573206044820152653a379027a82360d11b60648201526084016109bf565b6000821180156124d857506001600160a01b03841615155b156125bd57600a5460405163a9059cbb60e01b81526001600160a01b039182166004820152602481018490529085169063a9059cbb90604401602060405180830381600087803b15801561252b57600080fd5b505af115801561253f573d6000803e3d6000fd5b505050506040513d601f19601f820116820180604052508101906125639190613aa0565b6125bd5760405162461bcd60e51b815260206004820152602560248201527f4661696c656420746f207472616e7366657220636f6e73756d65206665652074604482015264379027a82360d91b60648201526084016109bf565b6125ce6125c8611d15565b88611776565b50600d5460408051338152602081018a90529081018890524260608201524360808201526001600160a01b0387811692811691908b16907fb07adb6a34680ecbbc7935971c45a07b9baf67ce5dc57332d51e3a5745c9e9639060a00160405180910390a4836001600160a01b0316856001600160a01b03167fcc9877307cd6845dfd092292e4719f293ac5d1039527d98ca0ae9fd76791236b8560405161267791815260200190565b60405180910390a35050505050505050565b6001600160a01b0383166126eb5760405162461bcd60e51b8152602060048201526024808201527f45524332303a20617070726f76652066726f6d20746865207a65726f206164646044820152637265737360e01b60648201526084016109bf565b6001600160a01b03821661274c5760405162461bcd60e51b815260206004820152602260248201527f45524332303a20617070726f766520746f20746865207a65726f206164647265604482015261737360f01b60648201526084016109bf565b6001600160a01b0383811660008181526001602090815260408083209487168084529482529182902085905590518481527f8c5be1e5ebec7d5bd14f71427d1e84f3dd0314c0f7b2291e5b200ac8c7c3b925910160405180910390a3505050565b6001600160a01b0381166000908152600560205260409020805460ff16156128175760405162461bcd60e51b815260206004820152601d60248201527f4552433230526f6c65733a2020414c52454144592041204d494e54455200000060448201526064016109bf565b8054600160ff19909116811782556006805491820181556000527ff652222313e28459528d920b65115c16c04f3efc82aaedc97be59f3f377c0d3f0180546001600160a01b0319166001600160a01b038416908117909155604080514281524360208201523392917f4f7e100eb1ee13e903798bd0d6aa854152e07eb05544f392b9409c12935c809591015b60405180910390a35050565b6001600160a01b0383166129135760405162461bcd60e51b815260206004820152602560248201527f45524332303a207472616e736665722066726f6d20746865207a65726f206164604482015264647265737360d81b60648201526084016109bf565b6001600160a01b0382166129755760405162461bcd60e51b815260206004820152602360248201527f45524332303a207472616e7366657220746f20746865207a65726f206164647260448201526265737360e81b60648201526084016109bf565b6001600160a01b038316600090815260208190526040902054818110156129ed5760405162461bcd60e51b815260206004820152602660248201527f45524332303a207472616e7366657220616d6f756e7420657863656564732062604482015265616c616e636560d01b60648201526084016109bf565b6001600160a01b03808516600090815260208190526040808220858503905591851681529081208054849290612a24908490613ec1565b92505081905550826001600160a01b0316846001600160a01b03167fddf252ad1be2c89b69c2b068fc378daa952ba7f163c4a11628f55a4df523b3ef84604051612a7091815260200190565b60405180910390a350505050565b6001600160a01b03811660008181526005602052604090819020805461ff00191681559051909133917faee911eec8b2df8f3ae0464841541b1e5f339519bd5cf51889fe8b07fecff658906128a39042904390918252602082015260400190565b6001600160a01b03811660008181526005602052604090819020805460ff191681559051909133917fefa2735987005aaa89c050c0ff8cc9ae7d9079d19382081c429130f98c52d480906128a39042904390918252602082015260400190565b6000612b4b8284613ec1565b9392505050565b6001600160a01b038216612ba85760405162461bcd60e51b815260206004820152601f60248201527f45524332303a206d696e7420746f20746865207a65726f20616464726573730060448201526064016109bf565b8060026000828254612bba9190613ec1565b90915550506001600160a01b03821660009081526020819052604081208054839290612be7908490613ec1565b90915550506040518181526001600160a01b038316906000907fddf252ad1be2c89b69c2b068fc378daa952ba7f163c4a11628f55a4df523b3ef9060200160405180910390a35050565b6001600160a01b038216612c915760405162461bcd60e51b815260206004820152602160248201527f45524332303a206275726e2066726f6d20746865207a65726f206164647265736044820152607360f81b60648201526084016109bf565b6001600160a01b03821660009081526020819052604090205481811015612d055760405162461bcd60e51b815260206004820152602260248201527f45524332303a206275726e20616d6f756e7420657863656564732062616c616e604482015261636560f01b60648201526084016109bf565b6001600160a01b0383166000908152602081905260408120838303905560028054849290612d34908490613efb565b90915550506040518281526000906001600160a01b038516907fddf252ad1be2c89b69c2b068fc378daa952ba7f163c4a11628f55a4df523b3ef9060200160405180910390a3505050565b60005b600654811015612de55760006005600060068481548110612da557612da561408a565b60009182526020808320909101546001600160a01b031683528201929092526040019020805461ffff191690555080612ddd81614059565b915050612d82565b50612df260066000613468565b6040805142815243602082015233917f712bc71db81927a76b8bf1ea346247bb0ad58f18e4e5c1bd4aa0ec6573e02a2b910160405180910390a2565b600c80546001600160a01b0319166001600160a01b0392909216919091179055565b6001600160a01b03811660009081526005602052604090208054610100900460ff1615612eca5760405162461bcd60e51b815260206004820152602260248201527f4552433230526f6c65733a2020414c5245414459204120464545204d414e414760448201526122a960f11b60648201526084016109bf565b805461ff001916610100178155600680546001810182556000919091527ff652222313e28459528d920b65115c16c04f3efc82aaedc97be59f3f377c0d3f0180546001600160a01b0384166001600160a01b03199091168117909155604080514281524360208201523392917fb17da2e9910b4ba5754e8872385ba315a238bafb5ae221fc85093c33432c40a791016128a3565b60008084600081518110612f7457612f7461408a565b60200260200101519050600085600181518110612f9357612f9361408a565b6020026020010151905060006001600160a01b0316826001600160a01b031614156130155760405162461bcd60e51b815260206004820152602c60248201527f455243323054656d706c6174653a20496e76616c6964206d696e7465722c202060448201526b7a65726f206164647265737360a01b60648201526084016109bf565b6001600160a01b0381166130915760405162461bcd60e51b815260206004820152603c60248201527f455243323054656d706c6174653a20496e76616c696420636f6d6d756e69747960448201527f2066656520636f6c6c6563746f722c207a65726f20616464726573730000000060648201526084016109bf565b846000815181106130a4576130a461408a565b6020026020010151600014156131085760405162461bcd60e51b8152602060048201526024808201527f44617461546f6b656e54656d706c6174653a20496e76616c6964206361702076604482015263616c756560e01b60648201526084016109bf565b8460008151811061311b5761311b61408a565b60200260200101516009819055508760008151811061313c5761313c61408a565b602002602001015160079080519060200190613159929190613486565b508760018151811061316d5761316d61408a565b60200260200101516008908051906020019061318a929190613486565b50600b80546001600160a01b0319166001600160a01b0384161790558551869060029081106131bb576131bb61408a565b6020908102919091010151601280546001600160a01b039283166001600160a01b0319909116179055600a80546001600160a81b03191691831691909117600160a01b179055865161321890889060009061118c5761118c61408a565b60006001600160a01b0316876001815181106132365761323661408a565b60200260200101516001600160a01b0316146132e05761326f876001815181106132625761326261408a565b6020026020010151612e2e565b866001815181106132825761328261408a565b60200260200101516001600160a01b0316336001600160a01b03167f4d7694d695c57cc54947177c8e8a0e61aae664e9223492a798c32fadfc6419cc42436040516132d7929190918252602082015260400190565b60405180910390a35b866002815181106132f3576132f361408a565b6020026020010151600d60006101000a8154816001600160a01b0302191690836001600160a01b03160217905550866003815181106133345761333461408a565b6020026020010151600e60006101000a8154816001600160a01b0302191690836001600160a01b03160217905550846001815181106133755761337561408a565b6020026020010151600f8190555060004690507f8b73c3c69bb8fe3d512ecc4cf759cc79239f7b179b0ffacaa9a75d522b39400f60076040516133b89190613c5a565b60408051918290038220828201825260018352603160f81b6020938401528151928301939093528101919091527fc89efdaa54c0f20c7adf612882df0950f5a951637e0307cdcb4c672f298b8bc66060820152608081018290523060a082015260c00160408051808303601f1901815291905280516020909101206010555050600a54600160a01b900460ff16979650505050505050565b6000612b4b8284613ed9565b6000612b4b8284613efb565b5080546000825590600052602060002090810190610bb9919061350a565b8280546134929061401e565b90600052602060002090601f0160209004810192826134b457600085556134fa565b82601f106134cd57805160ff19168380011785556134fa565b828001600101855582156134fa579182015b828111156134fa5782518255916020019190600101906134df565b5061350692915061350a565b5090565b5b80821115613506576000815560010161350b565b600067ffffffffffffffff831115613539576135396140a0565b61354c601f8401601f1916602001613e6c565b905082815283838301111561356057600080fd5b828260208301376000602084830101529392505050565b60008083601f84011261358957600080fd5b50813567ffffffffffffffff8111156135a157600080fd5b6020830191508360208260051b85010111156135bc57600080fd5b9250929050565b600082601f8301126135d457600080fd5b813560206135e96135e483613e9d565b613e6c565b80838252828201915082860187848660051b890101111561360957600080fd5b60005b8581101561363157813561361f816140b6565b8452928401929084019060010161360c565b5090979650505050505050565b600082601f83011261364f57600080fd5b8135602061365f6135e483613e9d565b80838252828201915082860187848660051b890101111561367f57600080fd5b60005b8581101561363157813584529284019290840190600101613682565b6000602082840312156136b057600080fd5b8135612b4b816140b6565b6000602082840312156136cd57600080fd5b8151612b4b816140b6565b600080604083850312156136eb57600080fd5b82356136f6816140b6565b91506020830135613706816140b6565b809150509250929050565b60008060006060848603121561372657600080fd5b8335613731816140b6565b92506020840135613741816140b6565b929592945050506040919091013590565b600080600080600080600060e0888a03121561376d57600080fd5b8735613778816140b6565b96506020880135613788816140b6565b95506040880135945060608801359350608088013560ff811681146137ac57600080fd5b9699959850939692959460a0840135945060c09093013592915050565b6000806000606084860312156137de57600080fd5b83356137e9816140b6565b9250602084013567ffffffffffffffff8082111561380657600080fd5b613812878388016135c3565b9350604086013591508082111561382857600080fd5b506138358682870161363e565b9150509250925092565b6000806040838503121561385257600080fd5b823561385d816140b6565b946020939093013593505050565b60008060008060008060c0878903121561388457600080fd5b863561388f816140b6565b9550602087013594506040870135935060608701356138ad816140b6565b925060808701356138bd816140b6565b8092505060a087013590509295509295509295565b600080600080600060a086880312156138ea57600080fd5b85356138f5816140b6565b945060208601359350604086013592506060860135613913816140cb565b91506080860135613923816140b6565b809150509295509295909350565b60008060008060008060008060008060a08b8d03121561395057600080fd5b8a3567ffffffffffffffff8082111561396857600080fd5b6139748e838f01613577565b909c509a5060208d013591508082111561398d57600080fd5b6139998e838f01613577565b909a50985060408d01359150808211156139b257600080fd5b6139be8e838f01613577565b909850965060608d01359150808211156139d757600080fd5b6139e38e838f01613577565b909650945060808d01359150808211156139fc57600080fd5b50613a098d828e01613577565b915080935050809150509295989b9194979a5092959850565b600080600060608486031215613a3757600080fd5b833567ffffffffffffffff80821115613a4f57600080fd5b613a5b8783880161363e565b94506020860135915080821115613a7157600080fd5b613a7d8783880161363e565b93506040860135915080821115613a9357600080fd5b50613835868287016135c3565b600060208284031215613ab257600080fd5b8151612b4b816140cb565b600060208284031215613acf57600080fd5b5051919050565b60008060208385031215613ae957600080fd5b823567ffffffffffffffff80821115613b0157600080fd5b818501915085601f830112613b1557600080fd5b813581811115613b2457600080fd5b866020828501011115613b3657600080fd5b60209290920196919550909350505050565b600060808284031215613b5a57600080fd5b6040516080810181811067ffffffffffffffff82111715613b7d57613b7d6140a0565b6040528251613b8b816140cb565b81526020830151613b9b816140cb565b60208201526040830151613bae816140cb565b60408201526060830151613bc1816140cb565b60608201529392505050565b600060208284031215613bdf57600080fd5b5035919050565b600081518084526020808501945080840160005b83811015613c1f5781516001600160a01b031687529582019590820190600101613bfa565b509495945050505050565b600081518084526020808501945080840160005b83811015613c1f57815187529582019590820190600101613c3e565b600080835481600182811c915080831680613c7657607f831692505b6020808410821415613c9657634e487b7160e01b86526022600452602486fd5b818015613caa5760018114613cbb57613ce8565b60ff19861689528489019650613ce8565b60008a81526020902060005b86811015613ce05781548b820152908501908301613cc7565b505084890196505b509498975050505050505050565b6001600160a01b0384168152606060208201819052600090613d1a90830185613be6565b8281036040840152613d2c8185613c2a565b9695505050505050565b60008186825b6002811015613d645781516001600160a01b0316835260209283019290910190600101613d3c565b50505060a06040830152613d7b60a0830186613c2a565b8281036060840152613d8d8186613c2a565b90508281036080840152613da18185613be6565b979650505050505050565b83815260406020820152816040820152818360608301376000818301606090810191909152601f909201601f1916010192915050565b600060208083528351808285015260005b81811015613e0f57858101830151858201604001528201613df3565b81811115613e21576000604083870101525b50601f01601f1916929092016040019392505050565b6020808252818101527f455243323054656d706c6174653a204e4f54204445504c4f59455220524f4c45604082015260600190565b604051601f8201601f1916810167ffffffffffffffff81118282101715613e9557613e956140a0565b604052919050565b600067ffffffffffffffff821115613eb757613eb76140a0565b5060051b60200190565b60008219821115613ed457613ed4614074565b500190565b600082613ef657634e487b7160e01b600052601260045260246000fd5b500490565b600082821015613f0d57613f0d614074565b500390565b6000613f206135e484613e9d565b808482526020808301925084368760051b87011115613f3e57600080fd5b60005b87811015613f9257813567ffffffffffffffff811115613f6057600080fd5b870136601f820112613f7157600080fd5b613f7f36823586840161351f565b8652509382019390820190600101613f41565b50919695505050505050565b6000613fac6135e484613e9d565b808482526020808301925084368760051b87011115613fca57600080fd5b60005b87811015613f9257813567ffffffffffffffff811115613fec57600080fd5b870136601f820112613ffd57600080fd5b61400b36823586840161351f565b8652509382019390820190600101613fcd565b600181811c9082168061403257607f821691505b6020821081141561405357634e487b7160e01b600052602260045260246000fd5b50919050565b600060001982141561406d5761406d614074565b5060010190565b634e487b7160e01b600052601160045260246000fd5b634e487b7160e01b600052603260045260246000fd5b634e487b7160e01b600052604160045260246000fd5b6001600160a01b0381168114610bb957600080fd5b8015158114610bb957600080fdfea264697066735822122038e80733697a8b6fee40b6bffcc7b9a64e18064240c8751cb1c5b429c6f89b6364736f6c63430008070033",
  "linkReferences": {},
  "deployedLinkReferences": {}
}