{
  "_format": "hh-sol-artifact-1",
  "contractName": "MockExchange",
  "sourceName": "contracts/utils/mock/MockExchange.sol",
  "abi": [
    {
      "inputs": [
        {
          "internalType": "bytes32",
          "name": "c__0xaeaa2673",
          "type": "bytes32"
        }
      ],
      "name": "c_0xaeaa2673",
      "outputs": [],
      "stateMutability": "pure",
      "type": "function"
    },
    {
      "inputs": [
        {
          "internalType": "address",
          "name": "_token",
          "type": "address"
        },
        {
          "internalType": "uint256",
          "name": "_amount",
          "type": "uint256"
        }
      ],
      "name": "deposit",
      "outputs": [],
      "stateMutability": "nonpayable",
      "type": "function"
    },
    {
      "inputs": [
        {
          "internalType": "address",
          "name": "_token",
          "type": "address"
        },
        {
          "internalType": "uint256",
          "name": "_amount",
          "type": "uint256"
        },
        {
          "internalType": "uint256",
          "name": "_deadline",
          "type": "uint256"
        },
        {
          "internalType": "uint8",
          "name": "v",
          "type": "uint8"
        },
        {
          "internalType": "bytes32",
          "name": "r",
          "type": "bytes32"
        },
        {
          "internalType": "bytes32",
          "name": "s",
          "type": "bytes32"
        }
      ],
      "name": "depositWithPermit",
      "outputs": [],
      "stateMutability": "nonpayable",
      "type": "function"
    }
  ],
  "bytecode": "0x608060405234801561001057600080fd5b50610540806100206000396000f3fe608060405234801561001057600080fd5b50600436106100415760003560e01c806312a62cff1461004657806347e7ef24146100bf57806373bfdf881461010d575b600080fd5b6100bd600480360360c081101561005c57600080fd5b81019080803573ffffffffffffffffffffffffffffffffffffffff1690602001909291908035906020019092919080359060200190929190803560ff169060200190929190803590602001909291908035906020019092919050505061013b565b005b61010b600480360360408110156100d557600080fd5b81019080803573ffffffffffffffffffffffffffffffffffffffff169060200190929190803590602001909291905050506103b4565b005b6101396004803603602081101561012357600080fd5b8101908080359060200190929190505050610507565b005b6101677f89250731b35d2708c50188ef09651dc3cea96caa3d6283616318693b1789cfc260001b610507565b6101937fc116fd62f5b8bb0291fe3c98a9669e8547d07eb243c1aa8aa820736ea03521c660001b610507565b6101bf7f7b2a1101b840ae78f864b50db29fcd7cc7245ccb4e607b5ea5b88e293490841260001b610507565b8573ffffffffffffffffffffffffffffffffffffffff1663d505accf333088888888886040518863ffffffff1660e01b8152600401808873ffffffffffffffffffffffffffffffffffffffff1681526020018773ffffffffffffffffffffffffffffffffffffffff1681526020018681526020018581526020018460ff168152602001838152602001828152602001975050505050505050600060405180830381600087803b15801561027157600080fd5b505af1158015610285573d6000803e3d6000fd5b505050506102b57f631409322a3648a68486c2ff5a233c6712d101e3443d971b3104c0f85dbbf9f760001b610507565b6102e17f36dbd1ceaf74f0a231208a7bd23a4a64b172bb991ad860fa42a10562b95d9e7360001b610507565b8573ffffffffffffffffffffffffffffffffffffffff166323b872dd3330886040518463ffffffff1660e01b8152600401808473ffffffffffffffffffffffffffffffffffffffff1681526020018373ffffffffffffffffffffffffffffffffffffffff1681526020018281526020019350505050602060405180830381600087803b15801561037057600080fd5b505af1158015610384573d6000803e3d6000fd5b505050506040513d602081101561039a57600080fd5b810190808051906020019092919050505050505050505050565b6103e07f845e6f00ddfff15214f1ee84f9ba26196f8181a8c29004c4042e30fbe1a1f15660001b610507565b61040c7f5fc978b885ab476f07b5e2117a501ffcfb54307adab3e35f9aabc22450bb014060001b610507565b6104387f63892dbd4ec3e57d4308c969af9d8b283b76768dbbb01a31fa6fc3331bee82bd60001b610507565b8173ffffffffffffffffffffffffffffffffffffffff166323b872dd3330846040518463ffffffff1660e01b8152600401808473ffffffffffffffffffffffffffffffffffffffff1681526020018373ffffffffffffffffffffffffffffffffffffffff1681526020018281526020019350505050602060405180830381600087803b1580156104c757600080fd5b505af11580156104db573d6000803e3d6000fd5b505050506040513d60208110156104f157600080fd5b8101908080519060200190929190505050505050565b5056fea2646970667358221220644f951616954e240285abb10b2c755403c5dd22255584190b30e0e870af783364736f6c63430007010033",
  "linkReferences": {},
  "deployedLinkReferences": {}
}