{
  "_format": "hh-sol-artifact-1",
  "contractName": "DFRewards",
  "sourceName": "contracts/df/DFRewards.sol",
  "abi": [
    {
      "anonymous": false,
      "inputs": [
        {
          "indexed": false,
          "internalType": "address[]",
          "name": "tos",
          "type": "address[]"
        },
        {
          "indexed": false,
          "internalType": "uint256[]",
          "name": "values",
          "type": "uint256[]"
        },
        {
          "indexed": false,
          "internalType": "address",
          "name": "tokenAddress",
          "type": "address"
        }
      ],
      "name": "Allocated",
      "type": "event"
    },
    {
      "anonymous": false,
      "inputs": [
        {
          "indexed": false,
          "internalType": "address",
          "name": "to",
          "type": "address"
        },
        {
          "indexed": false,
          "internalType": "uint256",
          "name": "value",
          "type": "uint256"
        },
        {
          "indexed": false,
          "internalType": "address",
          "name": "tokenAddress",
          "type": "address"
        }
      ],
      "name": "Claimed",
      "type": "event"
    },
    {
      "anonymous": false,
      "inputs": [
        {
          "indexed": true,
          "internalType": "address",
          "name": "previousOwner",
          "type": "address"
        },
        {
          "indexed": true,
          "internalType": "address",
          "name": "newOwner",
          "type": "address"
        }
      ],
      "name": "OwnershipTransferred",
      "type": "event"
    },
    {
      "anonymous": false,
      "inputs": [
        {
          "indexed": false,
          "internalType": "address",
          "name": "strategy",
          "type": "address"
        }
      ],
      "name": "StrategyAdded",
      "type": "event"
    },
    {
      "anonymous": false,
      "inputs": [
        {
          "indexed": false,
          "internalType": "address",
          "name": "strategy",
          "type": "address"
        }
      ],
      "name": "StrategyRetired",
      "type": "event"
    },
    {
      "stateMutability": "nonpayable",
      "type": "fallback"
    },
    {
      "inputs": [
        {
          "internalType": "address",
          "name": "_strategy",
          "type": "address"
        }
      ],
      "name": "addStrategy",
      "outputs": [],
      "stateMutability": "nonpayable",
      "type": "function"
    },
    {
      "inputs": [
        {
          "internalType": "address[]",
          "name": "_tos",
          "type": "address[]"
        },
        {
          "internalType": "uint256[]",
          "name": "_values",
          "type": "uint256[]"
        },
        {
          "internalType": "address",
          "name": "tokenAddress",
          "type": "address"
        }
      ],
      "name": "allocate",
      "outputs": [
        {
          "internalType": "bool",
          "name": "",
          "type": "bool"
        }
      ],
      "stateMutability": "nonpayable",
      "type": "function"
    },
    {
      "inputs": [
        {
          "internalType": "address",
          "name": "_to",
          "type": "address"
        },
        {
          "internalType": "address",
          "name": "tokenAddress",
          "type": "address"
        }
      ],
      "name": "claimFor",
      "outputs": [
        {
          "internalType": "uint256",
          "name": "",
          "type": "uint256"
        }
      ],
      "stateMutability": "nonpayable",
      "type": "function"
    },
    {
      "inputs": [
        {
          "internalType": "address",
          "name": "_to",
          "type": "address"
        },
        {
          "internalType": "address",
          "name": "tokenAddress",
          "type": "address"
        }
      ],
      "name": "claimForStrat",
      "outputs": [
        {
          "internalType": "uint256",
          "name": "",
          "type": "uint256"
        }
      ],
      "stateMutability": "nonpayable",
      "type": "function"
    },
    {
      "inputs": [
        {
          "internalType": "address",
          "name": "_to",
          "type": "address"
        },
        {
          "internalType": "address",
          "name": "tokenAddress",
          "type": "address"
        }
      ],
      "name": "claimable",
      "outputs": [
        {
          "internalType": "uint256",
          "name": "",
          "type": "uint256"
        }
      ],
      "stateMutability": "view",
      "type": "function"
    },
    {
      "inputs": [
        {
          "internalType": "address",
          "name": "_strategy",
          "type": "address"
        }
      ],
      "name": "isStrategy",
      "outputs": [
        {
          "internalType": "bool",
          "name": "",
          "type": "bool"
        }
      ],
      "stateMutability": "view",
      "type": "function"
    },
    {
      "inputs": [
        {
          "internalType": "uint256",
          "name": "",
          "type": "uint256"
        }
      ],
      "name": "live_strategies",
      "outputs": [
        {
          "internalType": "address",
          "name": "",
          "type": "address"
        }
      ],
      "stateMutability": "view",
      "type": "function"
    },
    {
      "inputs": [],
      "name": "owner",
      "outputs": [
        {
          "internalType": "address",
          "name": "",
          "type": "address"
        }
      ],
      "stateMutability": "view",
      "type": "function"
    },
    {
      "inputs": [],
      "name": "renounceOwnership",
      "outputs": [],
      "stateMutability": "nonpayable",
      "type": "function"
    },
    {
      "inputs": [
        {
          "internalType": "address",
          "name": "_strategy",
          "type": "address"
        }
      ],
      "name": "retireStrategy",
      "outputs": [],
      "stateMutability": "nonpayable",
      "type": "function"
    },
    {
      "inputs": [
        {
          "internalType": "address",
          "name": "newOwner",
          "type": "address"
        }
      ],
      "name": "transferOwnership",
      "outputs": [],
      "stateMutability": "nonpayable",
      "type": "function"
    },
    {
      "inputs": [
        {
          "internalType": "uint256",
          "name": "amount",
          "type": "uint256"
        },
        {
          "internalType": "address",
          "name": "_token",
          "type": "address"
        }
      ],
      "name": "withdrawERCToken",
      "outputs": [],
      "stateMutability": "nonpayable",
      "type": "function"
    }
  ],
  "bytecode": "0x608060405234801561001057600080fd5b5061001a33610023565b60018055610073565b600080546001600160a01b038381166001600160a01b0319831681178455604051919092169283917f8be0079c531659141344cd1fd0a4f28419497f9722a3daafe3b4186f6b6457e09190a35050565b611408806100826000396000f3fe608060405234801561001057600080fd5b50600436106100b45760003560e01c80638da5cb5b116100715780638da5cb5b14610186578063b4ba9e11146101ab578063b94b7a97146101be578063d4570c1c146101d1578063d731060c1461020b578063f2fde38b1461021e576100b4565b8063223e5479146100fa5780632c71df621461010f5780632e8ebaae1461013557806344469f9814610158578063691083631461016b578063715018a61461017e575b60405162461bcd60e51b815260206004820152601660248201527524b73b30b634b21032ba3432b9103a3930b739b332b960511b60448201526064015b60405180910390fd5b61010d6101083660046110a2565b610231565b005b61012261011d3660046110bd565b6102cb565b6040519081526020015b60405180910390f35b6101486101433660046110a2565b610395565b604051901515815260200161012c565b61014861016636600461113c565b6103ff565b61010d6101793660046110a2565b6107ba565b61010d61096f565b6000546001600160a01b03165b6040516001600160a01b03909116815260200161012c565b6101226101b93660046110bd565b610983565b61010d6101cc3660046111bd565b610998565b6101226101df3660046110bd565b6001600160a01b0380821660009081526002602090815260408083209386168352929052205492915050565b6101936102193660046111e0565b610ae9565b61010d61022c3660046110a2565b610b13565b610239610b89565b61024281610395565b6102c857600480546001810182556000919091527f8a35acfbc15ff81a39ae7d344fd709f28e8600b4aa8c65c6b64bfe7fe36bd19b0180546001600160a01b0319166001600160a01b0383169081179091556040519081527f3f008fd510eae7a9e7bee13513d7b83bef8003d488b5a3d0b0da4de71d6846f19060200160405180910390a15b50565b60006102d5610be3565b326001600160a01b038416146103245760405162461bcd60e51b8152602060048201526014602482015273086c2d8d8cae440c8decae6dc4ee840dac2e8c6d60631b60448201526064016100f1565b61032d33610395565b6103795760405162461bcd60e51b815260206004820152601960248201527f43616c6c6572206d75737420626520612073747261746567790000000000000060448201526064016100f1565b610384838333610c3d565b905061038f60018055565b92915050565b6000805b6004548110156103f657826001600160a01b0316600482815481106103c0576103c06111f9565b6000918252602090912001546001600160a01b031614156103e45750600192915050565b806103ee81611225565b915050610399565b50600092915050565b60008483146104455760405162461bcd60e51b8152602060048201526012602482015271098cadccee8d0e640daeae6e840dac2e8c6d60731b60448201526064016100f1565b6000805b848110156105ef576000888883818110610465576104656111f9565b905060200201602081019061047a91906110a2565b6001600160a01b031614156104c35760405162461bcd60e51b815260206004820152600f60248201526e1059191c995cdcc81a5b9d985b1a59608a1b60448201526064016100f1565b60008686838181106104d7576104d76111f9565b905060200201351161051b5760405162461bcd60e51b815260206004820152600d60248201526c15985b1d59481a5b9d985b1a59609a1b60448201526064016100f1565b85858281811061052d5761052d6111f9565b9050602002013560026000866001600160a01b03166001600160a01b0316815260200190815260200160002060008a8a8581811061056d5761056d6111f9565b905060200201602081019061058291906110a2565b6001600160a01b03166001600160a01b0316815260200190815260200160002060008282546105b19190611240565b9091555086905085828181106105c9576105c96111f9565b90506020020135826105db9190611240565b91506105e8600182611240565b9050610449565b506040516370a0823160e01b81523060048201526000906001600160a01b038516906370a0823190602401602060405180830381865afa158015610637573d6000803e3d6000fd5b505050506040513d601f19601f8201168201806040525081019061065b9190611258565b90506106726001600160a01b038516333085610d36565b6040516370a0823160e01b81523060048201526000906001600160a01b038616906370a0823190602401602060405180830381865afa1580156106b9573d6000803e3d6000fd5b505050506040513d601f19601f820116820180604052508101906106dd9190611258565b9050826106ea8383611271565b1461072b5760405162461bcd60e51b81526020600482015260116024820152704e6f7420656e6f75676820746f6b656e7360781b60448201526064016100f1565b6001600160a01b03851660009081526003602052604090205461074f908490611240565b6001600160a01b0386166000908152600360205260409081902091909155517fa6c91e0714fa5cea1a48a7903a4cb4fdfc6a5409b04c2f5e5f01140140846f74906107a3908b908b908b908b908b90611288565b60405180910390a150600198975050505050505050565b6107c2610b89565b6001600160a01b0381166108185760405162461bcd60e51b815260206004820152601860248201527f496e76616c69642073747261746567792061646472657373000000000000000060448201526064016100f1565b60005b60045481101561087457816001600160a01b031660048281548110610842576108426111f9565b6000918252602090912001546001600160a01b0316141561086257610874565b8061086c81611225565b91505061081b565b60045481101561096b576004805461088e90600190611271565b8154811061089e5761089e6111f9565b600091825260209091200154600480546001600160a01b0390921691839081106108ca576108ca6111f9565b9060005260206000200160006101000a8154816001600160a01b0302191690836001600160a01b0316021790555060048054806109095761090961131f565b6000828152602090819020600019908301810180546001600160a01b03191690559091019091556040516001600160a01b03841681527f43328b6eb7f0f6711a295cfc22368af8227bf60b67a6f6a5454f6168726d3e25910160405180910390a15b5050565b610977610b89565b6109816000610da7565b565b600061098d610be3565b610384838385610c3d565b6109a0610b89565b6001600160a01b038116600081815260036020526040908190205490516370a0823160e01b8152306004820152909184916370a0823190602401602060405180830381865afa1580156109f7573d6000803e3d6000fd5b505050506040513d601f19601f82011682018060405250810190610a1b9190611258565b610a259190611271565b1015610a735760405162461bcd60e51b815260206004820152601f60248201527f43616e6e6f7420776974686472617720616c6c6f636174656420746f6b656e0060448201526064016100f1565b60405163a9059cbb60e01b8152336004820152602481018390526001600160a01b0382169063a9059cbb906044016020604051808303816000875af1158015610ac0573d6000803e3d6000fd5b505050506040513d601f19601f82011682018060405250810190610ae49190611335565b505050565b60048181548110610af957600080fd5b6000918252602090912001546001600160a01b0316905081565b610b1b610b89565b6001600160a01b038116610b805760405162461bcd60e51b815260206004820152602660248201527f4f776e61626c653a206e6577206f776e657220697320746865207a65726f206160448201526564647265737360d01b60648201526084016100f1565b6102c881610da7565b6000546001600160a01b031633146109815760405162461bcd60e51b815260206004820181905260248201527f4f776e61626c653a2063616c6c6572206973206e6f7420746865206f776e657260448201526064016100f1565b60026001541415610c365760405162461bcd60e51b815260206004820152601f60248201527f5265656e7472616e637947756172643a207265656e7472616e742063616c6c0060448201526064016100f1565b6002600155565b6001600160a01b03808316600090815260026020908152604080832093871683529290529081205480610c74576000915050610d2f565b6001600160a01b038085166000818152600260209081526040808320948a16835293905291822091909155610caa908483610df7565b6001600160a01b038416600090815260036020526040902054610cce908290611271565b6001600160a01b0385811660008181526003602090815260409182902094909455805192891683529282018490528183015290517f7e6632ca16a0ac6cf28448500b1a17d96c8b8163ad4c4a9b44ef5386cc02779e9181900360600190a190505b9392505050565b6040516001600160a01b0380851660248301528316604482015260648101829052610da19085906323b872dd60e01b906084015b60408051601f198184030181529190526020810180516001600160e01b03166001600160e01b031990931692909217909152610e27565b50505050565b600080546001600160a01b038381166001600160a01b0319831681178455604051919092169283917f8be0079c531659141344cd1fd0a4f28419497f9722a3daafe3b4186f6b6457e09190a35050565b6040516001600160a01b038316602482015260448101829052610ae490849063a9059cbb60e01b90606401610d6a565b6000610e7c826040518060400160405280602081526020017f5361666545524332303a206c6f772d6c6576656c2063616c6c206661696c6564815250856001600160a01b0316610ef99092919063ffffffff16565b805190915015610ae45780806020019051810190610e9a9190611335565b610ae45760405162461bcd60e51b815260206004820152602a60248201527f5361666545524332303a204552433230206f7065726174696f6e20646964206e6044820152691bdd081cdd58d8d9595960b21b60648201526084016100f1565b6060610f088484600085610f10565b949350505050565b606082471015610f715760405162461bcd60e51b815260206004820152602660248201527f416464726573733a20696e73756666696369656e742062616c616e636520666f6044820152651c8818d85b1b60d21b60648201526084016100f1565b600080866001600160a01b03168587604051610f8d9190611383565b60006040518083038185875af1925050503d8060008114610fca576040519150601f19603f3d011682016040523d82523d6000602084013e610fcf565b606091505b5091509150610fe087838387610feb565b979650505050505050565b60608315611057578251611050576001600160a01b0385163b6110505760405162461bcd60e51b815260206004820152601d60248201527f416464726573733a2063616c6c20746f206e6f6e2d636f6e747261637400000060448201526064016100f1565b5081610f08565b610f08838381511561106c5781518083602001fd5b8060405162461bcd60e51b81526004016100f1919061139f565b80356001600160a01b038116811461109d57600080fd5b919050565b6000602082840312156110b457600080fd5b610d2f82611086565b600080604083850312156110d057600080fd5b6110d983611086565b91506110e760208401611086565b90509250929050565b60008083601f84011261110257600080fd5b50813567ffffffffffffffff81111561111a57600080fd5b6020830191508360208260051b850101111561113557600080fd5b9250929050565b60008060008060006060868803121561115457600080fd5b853567ffffffffffffffff8082111561116c57600080fd5b61117889838a016110f0565b9097509550602088013591508082111561119157600080fd5b5061119e888289016110f0565b90945092506111b1905060408701611086565b90509295509295909350565b600080604083850312156111d057600080fd5b823591506110e760208401611086565b6000602082840312156111f257600080fd5b5035919050565b634e487b7160e01b600052603260045260246000fd5b634e487b7160e01b600052601160045260246000fd5b60006000198214156112395761123961120f565b5060010190565b600082198211156112535761125361120f565b500190565b60006020828403121561126a57600080fd5b5051919050565b6000828210156112835761128361120f565b500390565b6060808252810185905260008660808301825b888110156112c9576001600160a01b036112b484611086565b1682526020928301929091019060010161129b565b5083810360208501528581526001600160fb1b038611156112e957600080fd5b8560051b915081876020830137600091016020019081526001600160a01b03939093166040929092019190915250949350505050565b634e487b7160e01b600052603160045260246000fd5b60006020828403121561134757600080fd5b81518015158114610d2f57600080fd5b60005b8381101561137257818101518382015260200161135a565b83811115610da15750506000910152565b60008251611395818460208701611357565b9190910192915050565b60208152600082518060208401526113be816040850160208701611357565b601f01601f1916919091016040019291505056fea2646970667358221220d4b043489fcef4cb327481a50a0af085905d6f9439630e64c52e0f759976614864736f6c634300080c0033",
  "linkReferences": {},
  "deployedLinkReferences": {}
}