{
  "_format": "hh-sol-artifact-1",
  "contractName": "BMath",
  "sourceName": "contracts/pools/balancer/BMath.sol",
  "abi": [
    {
      "inputs": [],
      "name": "BONE",
      "outputs": [
        {
          "internalType": "uint256",
          "name": "",
          "type": "uint256"
        }
      ],
      "stateMutability": "view",
      "type": "function"
    },
    {
      "inputs": [],
      "name": "BPOW_PRECISION",
      "outputs": [
        {
          "internalType": "uint256",
          "name": "",
          "type": "uint256"
        }
      ],
      "stateMutability": "view",
      "type": "function"
    },
    {
      "inputs": [],
      "name": "EXIT_FEE",
      "outputs": [
        {
          "internalType": "uint256",
          "name": "",
          "type": "uint256"
        }
      ],
      "stateMutability": "view",
      "type": "function"
    },
    {
      "inputs": [],
      "name": "INIT_POOL_SUPPLY",
      "outputs": [
        {
          "internalType": "uint256",
          "name": "",
          "type": "uint256"
        }
      ],
      "stateMutability": "view",
      "type": "function"
    },
    {
      "inputs": [],
      "name": "MAX_BOUND_TOKENS",
      "outputs": [
        {
          "internalType": "uint256",
          "name": "",
          "type": "uint256"
        }
      ],
      "stateMutability": "view",
      "type": "function"
    },
    {
      "inputs": [],
      "name": "MAX_BPOW_BASE",
      "outputs": [
        {
          "internalType": "uint256",
          "name": "",
          "type": "uint256"
        }
      ],
      "stateMutability": "view",
      "type": "function"
    },
    {
      "inputs": [],
      "name": "MAX_FEE",
      "outputs": [
        {
          "internalType": "uint256",
          "name": "",
          "type": "uint256"
        }
      ],
      "stateMutability": "view",
      "type": "function"
    },
    {
      "inputs": [],
      "name": "MAX_IN_RATIO",
      "outputs": [
        {
          "internalType": "uint256",
          "name": "",
          "type": "uint256"
        }
      ],
      "stateMutability": "view",
      "type": "function"
    },
    {
      "inputs": [],
      "name": "MAX_OUT_RATIO",
      "outputs": [
        {
          "internalType": "uint256",
          "name": "",
          "type": "uint256"
        }
      ],
      "stateMutability": "view",
      "type": "function"
    },
    {
      "inputs": [],
      "name": "MAX_TOTAL_WEIGHT",
      "outputs": [
        {
          "internalType": "uint256",
          "name": "",
          "type": "uint256"
        }
      ],
      "stateMutability": "view",
      "type": "function"
    },
    {
      "inputs": [],
      "name": "MAX_WEIGHT",
      "outputs": [
        {
          "internalType": "uint256",
          "name": "",
          "type": "uint256"
        }
      ],
      "stateMutability": "view",
      "type": "function"
    },
    {
      "inputs": [],
      "name": "MIN_BALANCE",
      "outputs": [
        {
          "internalType": "uint256",
          "name": "",
          "type": "uint256"
        }
      ],
      "stateMutability": "view",
      "type": "function"
    },
    {
      "inputs": [],
      "name": "MIN_BOUND_TOKENS",
      "outputs": [
        {
          "internalType": "uint256",
          "name": "",
          "type": "uint256"
        }
      ],
      "stateMutability": "view",
      "type": "function"
    },
    {
      "inputs": [],
      "name": "MIN_BPOW_BASE",
      "outputs": [
        {
          "internalType": "uint256",
          "name": "",
          "type": "uint256"
        }
      ],
      "stateMutability": "view",
      "type": "function"
    },
    {
      "inputs": [],
      "name": "MIN_FEE",
      "outputs": [
        {
          "internalType": "uint256",
          "name": "",
          "type": "uint256"
        }
      ],
      "stateMutability": "view",
      "type": "function"
    },
    {
      "inputs": [],
      "name": "MIN_WEIGHT",
      "outputs": [
        {
          "internalType": "uint256",
          "name": "",
          "type": "uint256"
        }
      ],
      "stateMutability": "view",
      "type": "function"
    },
    {
      "inputs": [],
      "name": "_swapPublishMarketFee",
      "outputs": [
        {
          "internalType": "uint256",
          "name": "",
          "type": "uint256"
        }
      ],
      "stateMutability": "view",
      "type": "function"
    },
    {
      "inputs": [
        {
          "internalType": "uint256[4]",
          "name": "data",
          "type": "uint256[4]"
        },
        {
          "internalType": "uint256",
          "name": "tokenAmountOut",
          "type": "uint256"
        },
        {
          "internalType": "uint256",
          "name": "_consumeMarketSwapFee",
          "type": "uint256"
        }
      ],
      "name": "calcInGivenOut",
      "outputs": [
        {
          "internalType": "uint256",
          "name": "tokenAmountIn",
          "type": "uint256"
        },
        {
          "internalType": "uint256",
          "name": "tokenAmountInBalance",
          "type": "uint256"
        },
        {
          "components": [
            {
              "internalType": "uint256",
              "name": "LPFee",
              "type": "uint256"
            },
            {
              "internalType": "uint256",
              "name": "oceanFeeAmount",
              "type": "uint256"
            },
            {
              "internalType": "uint256",
              "name": "publishMarketFeeAmount",
              "type": "uint256"
            },
            {
              "internalType": "uint256",
              "name": "consumeMarketFee",
              "type": "uint256"
            }
          ],
          "internalType": "struct BMath.swapfees",
          "name": "_swapfees",
          "type": "tuple"
        }
      ],
      "stateMutability": "view",
      "type": "function"
    },
    {
      "inputs": [
        {
          "internalType": "uint256[4]",
          "name": "data",
          "type": "uint256[4]"
        },
        {
          "internalType": "uint256",
          "name": "tokenAmountIn",
          "type": "uint256"
        },
        {
          "internalType": "uint256",
          "name": "_consumeMarketSwapFee",
          "type": "uint256"
        }
      ],
      "name": "calcOutGivenIn",
      "outputs": [
        {
          "internalType": "uint256",
          "name": "tokenAmountOut",
          "type": "uint256"
        },
        {
          "internalType": "uint256",
          "name": "balanceInToAdd",
          "type": "uint256"
        },
        {
          "components": [
            {
              "internalType": "uint256",
              "name": "LPFee",
              "type": "uint256"
            },
            {
              "internalType": "uint256",
              "name": "oceanFeeAmount",
              "type": "uint256"
            },
            {
              "internalType": "uint256",
              "name": "publishMarketFeeAmount",
              "type": "uint256"
            },
            {
              "internalType": "uint256",
              "name": "consumeMarketFee",
              "type": "uint256"
            }
          ],
          "internalType": "struct BMath.swapfees",
          "name": "_swapfees",
          "type": "tuple"
        }
      ],
      "stateMutability": "view",
      "type": "function"
    },
    {
      "inputs": [
        {
          "internalType": "address",
          "name": "",
          "type": "address"
        }
      ],
      "name": "communityFees",
      "outputs": [
        {
          "internalType": "uint256",
          "name": "",
          "type": "uint256"
        }
      ],
      "stateMutability": "view",
      "type": "function"
    },
    {
      "inputs": [],
      "name": "getOPCFee",
      "outputs": [
        {
          "internalType": "uint256",
          "name": "",
          "type": "uint256"
        }
      ],
      "stateMutability": "view",
      "type": "function"
    },
    {
      "inputs": [
        {
          "internalType": "address",
          "name": "",
          "type": "address"
        }
      ],
      "name": "publishMarketFees",
      "outputs": [
        {
          "internalType": "uint256",
          "name": "",
          "type": "uint256"
        }
      ],
      "stateMutability": "view",
      "type": "function"
    },
    {
      "inputs": [],
      "name": "router",
      "outputs": [
        {
          "internalType": "address",
          "name": "",
          "type": "address"
        }
      ],
      "stateMutability": "view",
      "type": "function"
    }
  ],
  "bytecode": "0x608060405234801561001057600080fd5b50610eea806100206000396000f3fe608060405234801561001057600080fd5b506004361061014d5760003560e01c80639381cd2b116100c3578063bc694ea21161007c578063bc694ea21461026e578063c36596a614610175578063c6580d1214610276578063e4a28a5214610152578063ec0930211461027e578063f887ea401461028657600080fd5b80639381cd2b14610246578063992e2a921461024e578063b0e0d13614610256578063b7b800a414610256578063ba019dab1461025e578063bc063e1a1461026657600080fd5b806351705cd01161011557806351705cd0146101ac57806376c7a3c7146101fa5780637a284be4146102025780637c5918b31461020b578063867378c51461022b578063892cdf9e1461023357600080fd5b806309a3bbe414610152578063189d00ca1461016d578063218b53821461017557806329b88a6a14610184578063300621921461018c575b600080fd5b61015a6102b1565b6040519081526020015b60405180910390f35b61015a6102c7565b61015a670de0b6b3a764000081565b61015a6102de565b61015a61019a366004610d13565b60056020526000908152604090205481565b6101bf6101ba366004610d52565b610358565b6040805193845260208085019390935281518482015291810151606080850191909152918101516080840152015160a082015260c001610164565b61015a610510565b61015a60005481565b61015a610219366004610d13565b60066020526000908152604090205481565b61015a610524565b6101bf610241366004610d52565b61053b565b61015a6106e2565b61015a6106f5565b61015a600281565b61015a600181565b61015a610713565b61015a610726565b61015a600081565b61015a610745565b600254610299906001600160a01b031681565b6040516001600160a01b039091168152602001610164565b6102c4670de0b6b3a76400006032610df4565b81565b6102c46402540be400670de0b6b3a7640000610e29565b6002546004805460405163b8421e2b60e01b81526001600160a01b0391821692810192909252600092169063b8421e2b90602401602060405180830381865afa15801561032f573d6000803e3d6000fd5b505050506040513d601f19601f820116820180604052508101906103539190610e3d565b905090565b6000806103866040518060800160405280600081526020016000815260200160008152602001600081525090565b60006103a187600360200201518860015b6020020151610758565b905060006103b6886002602002015188610881565b905060006103cb896002602002015183610758565b905060006103d982856108de565b90506103ed81670de0b6b3a7640000610881565b905060008054896103fc6102de565b6001546104099190610e56565b6104139190610e56565b61041d9190610e56565b905061044b6104348c60005b602002015184610a0a565b610446670de0b6b3a764000084610881565b610758565b9750610473886104698a61046e670de0b6b3a76400006104696102de565b610881565b610a0a565b866020018181525050610498886104698a61046e670de0b6b3a7640000600054610881565b8660400181815250506104bd886104698a61046e670de0b6b3a7640000600154610881565b86526104d9886104698161046e670de0b6b3a76400008e610881565b60608701526105006104ec8c6000610429565b610446670de0b6b3a7640000600154610881565b9650505050505093509350939050565b6102c4612710670de0b6b3a7640000610e29565b6102c464e8d4a51000670de0b6b3a7640000610e29565b6000806105696040518060800160405280600081526020016000815260200160008152602001600081525090565b600061057e8760016020020151886003610397565b905061059c866104698861046e670de0b6b3a76400006104696102de565b8260200181815250506105c1866104698861046e670de0b6b3a7640000600054610881565b8260400181815250506105e6866104698861046e670de0b6b3a7640000600154610881565b8252610602866104698161046e670de0b6b3a76400008a610881565b60608301526000805486906106156102de565b6001546106229190610e56565b61062c9190610e56565b6106369190610e56565b9050600061064c670de0b6b3a764000083610881565b90506106588882610a0a565b895190915060009061066e906104468185610ae5565b9050600061067c82866108de565b90506000610692670de0b6b3a764000083610881565b90506106a58c6002602002015182610a0a565b9850886106cf8c89606001518a604001518b602001516106c59190610e56565b6104699190610e56565b9850985050505050505093509350939050565b6102c4670de0b6b3a76400006064610df4565b6107086002670de0b6b3a7640000610e29565b6102c4906001610e56565b6102c4600a670de0b6b3a7640000610e29565b600161073b670de0b6b3a76400006002610df4565b6102c49190610e6e565b6102c46002670de0b6b3a7640000610e29565b60008161079b5760405162461bcd60e51b815260206004820152600c60248201526b4552525f4449565f5a45524f60a01b60448201526064015b60405180910390fd5b60006107af670de0b6b3a764000085610df4565b90508315806107ce5750670de0b6b3a76400006107cc8583610e29565b145b61080d5760405162461bcd60e51b815260206004820152601060248201526f11549497d1125597d25395115493905360821b6044820152606401610792565b600061081a600285610e29565b6108249083610e56565b9050818110156108695760405162461bcd60e51b815260206004820152601060248201526f11549497d1125597d25395115493905360821b6044820152606401610792565b60006108758583610e29565b93505050505b92915050565b60008060006108908585610b3e565b9150915080156108d65760405162461bcd60e51b81526020600482015260116024820152704552525f5355425f554e444552464c4f5760781b6044820152606401610792565b509392505050565b600060018310156109295760405162461bcd60e51b81526020600482015260156024820152744552525f42504f575f424153455f544f4f5f4c4f5760581b6044820152606401610792565b600161093e670de0b6b3a76400006002610df4565b6109489190610e6e565b8311156109905760405162461bcd60e51b815260206004820152601660248201527508aa4a4be84a09eaebe8482a68abea89e9ebe90928e960531b6044820152606401610792565b600061099b83610b75565b905060006109a98483610881565b905060006109bf866109ba85610b93565b610ba7565b9050816109d057925061087b915050565b60006109f387846109ee6402540be400670de0b6b3a7640000610e29565b610c23565b90506109ff8282610a0a565b979650505050505050565b600080610a178385610df4565b9050831580610a2e575082610a2c8583610e29565b145b610a6d5760405162461bcd60e51b815260206004820152601060248201526f4552525f4d554c5f4f564552464c4f5760801b6044820152606401610792565b6000610a826002670de0b6b3a7640000610e29565b610a8c9083610e56565b905081811015610ad15760405162461bcd60e51b815260206004820152601060248201526f4552525f4d554c5f4f564552464c4f5760801b6044820152606401610792565b6000610875670de0b6b3a764000083610e29565b600080610af28385610e56565b905083811015610b375760405162461bcd60e51b815260206004820152601060248201526f4552525f4144445f4f564552464c4f5760801b6044820152606401610792565b9392505050565b600080828410610b5d57610b528385610e6e565b600091509150610b6e565b610b678484610e6e565b6001915091505b9250929050565b6000670de0b6b3a7640000610b8983610b93565b61087b9190610df4565b600061087b670de0b6b3a764000083610e29565b60008281610bb6600285610e85565b610bc857670de0b6b3a7640000610bca565b815b9050610bd7600285610e29565b93505b8315610c1b57610bea8283610a0a565b9150610bf7600285610e85565b15610c0957610c068183610a0a565b90505b610c14600285610e29565b9350610bda565b949350505050565b6000828180610c3a87670de0b6b3a7640000610b3e565b9092509050670de0b6b3a764000080600060015b888410610d04576000610c69670de0b6b3a764000083610df4565b9050600080610c898a610c8485670de0b6b3a7640000610881565b610b3e565b91509150610c9b8761046e848c610a0a565b9650610ca78784610758565b965086610cb657505050610d04565b8715610cc0579315935b8015610cca579315935b8415610ce157610cda8688610881565b9550610cee565b610ceb8688610ae5565b95505b5050508080610cfc90610e99565b915050610c4e565b50909998505050505050505050565b600060208284031215610d2557600080fd5b81356001600160a01b0381168114610b3757600080fd5b634e487b7160e01b600052604160045260246000fd5b600080600060c08486031215610d6757600080fd5b84601f850112610d7657600080fd5b6040516080810181811067ffffffffffffffff82111715610d9957610d99610d3c565b604052806080860187811115610dae57600080fd5b865b81811015610dc8578035835260209283019201610db0565b509197913596505060a094909401359392505050565b634e487b7160e01b600052601160045260246000fd5b6000816000190483118215151615610e0e57610e0e610dde565b500290565b634e487b7160e01b600052601260045260246000fd5b600082610e3857610e38610e13565b500490565b600060208284031215610e4f57600080fd5b5051919050565b60008219821115610e6957610e69610dde565b500190565b600082821015610e8057610e80610dde565b500390565b600082610e9457610e94610e13565b500690565b6000600019821415610ead57610ead610dde565b506001019056fea2646970667358221220963671fdab63dddcb3aab1d5ca36fd91a3d2a5cf6f1ca5aee31e3ddee1e5340964736f6c634300080c0033",
  "linkReferences": {},
  "deployedLinkReferences": {}
}