{
  "_format": "hh-sol-artifact-1",
  "contractName": "BMath",
  "sourceName": "contracts/pools/balancer/BMath.sol",
  "abi": [
    {
      "anonymous": false,
      "inputs": [
        {
          "indexed": false,
          "internalType": "uint256",
          "name": "swapFeeAmount",
          "type": "uint256"
        },
        {
          "indexed": false,
          "internalType": "uint256",
          "name": "oceanFeeAmount",
          "type": "uint256"
        },
        {
          "indexed": false,
          "internalType": "uint256",
          "name": "marketFeeAmount",
          "type": "uint256"
        },
        {
          "indexed": false,
          "internalType": "address",
          "name": "tokenFees",
          "type": "address"
        }
      ],
      "name": "SWAP_FEES",
      "type": "event"
    },
    {
      "inputs": [],
      "name": "BONE",
      "outputs": [
        {
          "internalType": "uint256",
          "name": "",
          "type": "uint256"
        }
      ],
      "stateMutability": "view",
      "type": "function"
    },
    {
      "inputs": [],
      "name": "BPOW_PRECISION",
      "outputs": [
        {
          "internalType": "uint256",
          "name": "",
          "type": "uint256"
        }
      ],
      "stateMutability": "view",
      "type": "function"
    },
    {
      "inputs": [],
      "name": "EXIT_FEE",
      "outputs": [
        {
          "internalType": "uint256",
          "name": "",
          "type": "uint256"
        }
      ],
      "stateMutability": "view",
      "type": "function"
    },
    {
      "inputs": [],
      "name": "INIT_POOL_SUPPLY",
      "outputs": [
        {
          "internalType": "uint256",
          "name": "",
          "type": "uint256"
        }
      ],
      "stateMutability": "view",
      "type": "function"
    },
    {
      "inputs": [],
      "name": "MAX_BOUND_TOKENS",
      "outputs": [
        {
          "internalType": "uint256",
          "name": "",
          "type": "uint256"
        }
      ],
      "stateMutability": "view",
      "type": "function"
    },
    {
      "inputs": [],
      "name": "MAX_BPOW_BASE",
      "outputs": [
        {
          "internalType": "uint256",
          "name": "",
          "type": "uint256"
        }
      ],
      "stateMutability": "view",
      "type": "function"
    },
    {
      "inputs": [],
      "name": "MAX_FEE",
      "outputs": [
        {
          "internalType": "uint256",
          "name": "",
          "type": "uint256"
        }
      ],
      "stateMutability": "view",
      "type": "function"
    },
    {
      "inputs": [],
      "name": "MAX_IN_RATIO",
      "outputs": [
        {
          "internalType": "uint256",
          "name": "",
          "type": "uint256"
        }
      ],
      "stateMutability": "view",
      "type": "function"
    },
    {
      "inputs": [],
      "name": "MAX_OUT_RATIO",
      "outputs": [
        {
          "internalType": "uint256",
          "name": "",
          "type": "uint256"
        }
      ],
      "stateMutability": "view",
      "type": "function"
    },
    {
      "inputs": [],
      "name": "MAX_TOTAL_WEIGHT",
      "outputs": [
        {
          "internalType": "uint256",
          "name": "",
          "type": "uint256"
        }
      ],
      "stateMutability": "view",
      "type": "function"
    },
    {
      "inputs": [],
      "name": "MAX_WEIGHT",
      "outputs": [
        {
          "internalType": "uint256",
          "name": "",
          "type": "uint256"
        }
      ],
      "stateMutability": "view",
      "type": "function"
    },
    {
      "inputs": [],
      "name": "MIN_BALANCE",
      "outputs": [
        {
          "internalType": "uint256",
          "name": "",
          "type": "uint256"
        }
      ],
      "stateMutability": "view",
      "type": "function"
    },
    {
      "inputs": [],
      "name": "MIN_BOUND_TOKENS",
      "outputs": [
        {
          "internalType": "uint256",
          "name": "",
          "type": "uint256"
        }
      ],
      "stateMutability": "view",
      "type": "function"
    },
    {
      "inputs": [],
      "name": "MIN_BPOW_BASE",
      "outputs": [
        {
          "internalType": "uint256",
          "name": "",
          "type": "uint256"
        }
      ],
      "stateMutability": "view",
      "type": "function"
    },
    {
      "inputs": [],
      "name": "MIN_FEE",
      "outputs": [
        {
          "internalType": "uint256",
          "name": "",
          "type": "uint256"
        }
      ],
      "stateMutability": "view",
      "type": "function"
    },
    {
      "inputs": [],
      "name": "MIN_WEIGHT",
      "outputs": [
        {
          "internalType": "uint256",
          "name": "",
          "type": "uint256"
        }
      ],
      "stateMutability": "view",
      "type": "function"
    },
    {
      "inputs": [
        {
          "internalType": "address",
          "name": "",
          "type": "address"
        }
      ],
      "name": "communityFees",
      "outputs": [
        {
          "internalType": "uint256",
          "name": "",
          "type": "uint256"
        }
      ],
      "stateMutability": "view",
      "type": "function"
    },
    {
      "inputs": [],
      "name": "getOPFFee",
      "outputs": [
        {
          "internalType": "uint256",
          "name": "",
          "type": "uint256"
        }
      ],
      "stateMutability": "view",
      "type": "function"
    },
    {
      "inputs": [
        {
          "internalType": "address",
          "name": "",
          "type": "address"
        },
        {
          "internalType": "address",
          "name": "",
          "type": "address"
        }
      ],
      "name": "marketFees",
      "outputs": [
        {
          "internalType": "uint256",
          "name": "",
          "type": "uint256"
        }
      ],
      "stateMutability": "view",
      "type": "function"
    },
    {
      "inputs": [
        {
          "internalType": "address",
          "name": "",
          "type": "address"
        }
      ],
      "name": "publishMarketFees",
      "outputs": [
        {
          "internalType": "uint256",
          "name": "",
          "type": "uint256"
        }
      ],
      "stateMutability": "view",
      "type": "function"
    }
  ],
  "bytecode": "0x608060405234801561001057600080fd5b506104b4806100206000396000f3fe608060405234801561001057600080fd5b506004361061012c5760003560e01c8063992e2a92116100ad578063bc694ea211610071578063bc694ea21461020d578063c36596a614610153578063c6580d1214610215578063e4a28a5214610131578063ec0930211461021d57600080fd5b8063992e2a92146101ed578063b0e0d136146101f5578063b7b800a4146101f5578063ba019dab146101fd578063bc063e1a1461020557600080fd5b8063700dd7e8116100f4578063700dd7e8146101ad57806376c7a3c7146101b55780637c5918b3146101bd578063867378c5146101dd5780639381cd2b146101e557600080fd5b806309a3bbe414610131578063189d00ca1461014b578063218b53821461015357806330062192146101625780634a0d3dfa14610182575b600080fd5b610139610225565b60405190815260200160405180910390f35b61013961023b565b610139670de0b6b3a764000081565b61013961017036600461038a565b60066020526000908152604090205481565b6101396101903660046103ac565b600860209081526000928352604080842090915290825290205481565b610139610252565b6101396102cc565b6101396101cb36600461038a565b60076020526000908152604090205481565b6101396102e1565b6101396102f8565b61013961030b565b610139600281565b610139600181565b610139610329565b61013961033c565b610139600081565b61013961035b565b610238670de0b6b3a764000060326103f5565b81565b6102386402540be400670de0b6b3a7640000610414565b600354600554604051637c0aa57760e11b81526001600160a01b039182166004820152600092919091169063f8154aee90602401602060405180830381865afa1580156102a3573d6000803e3d6000fd5b505050506040513d601f19601f820116820180604052508101906102c79190610436565b905090565b610238620f4240670de0b6b3a7640000610414565b61023864e8d4a51000670de0b6b3a7640000610414565b610238670de0b6b3a764000060646103f5565b61031e6003670de0b6b3a7640000610414565b61023890600161044f565b610238600a670de0b6b3a7640000610414565b6001610351670de0b6b3a764000060026103f5565b6102389190610467565b6102386002670de0b6b3a7640000610414565b80356001600160a01b038116811461038557600080fd5b919050565b60006020828403121561039c57600080fd5b6103a58261036e565b9392505050565b600080604083850312156103bf57600080fd5b6103c88361036e565b91506103d66020840161036e565b90509250929050565b634e487b7160e01b600052601160045260246000fd5b600081600019048311821515161561040f5761040f6103df565b500290565b60008261043157634e487b7160e01b600052601260045260246000fd5b500490565b60006020828403121561044857600080fd5b5051919050565b60008219821115610462576104626103df565b500190565b600082821015610479576104796103df565b50039056fea2646970667358221220ce18e5bb8359b4f996f554a24fad49e404ca69057d4698fe3ae7f7f3eeffa7be64736f6c634300080a0033",
  "linkReferences": {},
  "deployedLinkReferences": {}
}