{
  "_format": "hh-sol-artifact-1",
  "contractName": "BMath",
  "sourceName": "contracts/pools/balancer/BMath.sol",
  "abi": [
    {
      "inputs": [],
      "name": "BONE",
      "outputs": [
        {
          "internalType": "uint256",
          "name": "",
          "type": "uint256"
        }
      ],
      "stateMutability": "view",
      "type": "function"
    },
    {
      "inputs": [],
      "name": "BPOW_PRECISION",
      "outputs": [
        {
          "internalType": "uint256",
          "name": "",
          "type": "uint256"
        }
      ],
      "stateMutability": "view",
      "type": "function"
    },
    {
      "inputs": [],
      "name": "EXIT_FEE",
      "outputs": [
        {
          "internalType": "uint256",
          "name": "",
          "type": "uint256"
        }
      ],
      "stateMutability": "view",
      "type": "function"
    },
    {
      "inputs": [],
      "name": "INIT_POOL_SUPPLY",
      "outputs": [
        {
          "internalType": "uint256",
          "name": "",
          "type": "uint256"
        }
      ],
      "stateMutability": "view",
      "type": "function"
    },
    {
      "inputs": [],
      "name": "MAX_BOUND_TOKENS",
      "outputs": [
        {
          "internalType": "uint256",
          "name": "",
          "type": "uint256"
        }
      ],
      "stateMutability": "view",
      "type": "function"
    },
    {
      "inputs": [],
      "name": "MAX_BPOW_BASE",
      "outputs": [
        {
          "internalType": "uint256",
          "name": "",
          "type": "uint256"
        }
      ],
      "stateMutability": "view",
      "type": "function"
    },
    {
      "inputs": [],
      "name": "MAX_FEE",
      "outputs": [
        {
          "internalType": "uint256",
          "name": "",
          "type": "uint256"
        }
      ],
      "stateMutability": "view",
      "type": "function"
    },
    {
      "inputs": [],
      "name": "MAX_IN_RATIO",
      "outputs": [
        {
          "internalType": "uint256",
          "name": "",
          "type": "uint256"
        }
      ],
      "stateMutability": "view",
      "type": "function"
    },
    {
      "inputs": [],
      "name": "MAX_OUT_RATIO",
      "outputs": [
        {
          "internalType": "uint256",
          "name": "",
          "type": "uint256"
        }
      ],
      "stateMutability": "view",
      "type": "function"
    },
    {
      "inputs": [],
      "name": "MAX_TOTAL_WEIGHT",
      "outputs": [
        {
          "internalType": "uint256",
          "name": "",
          "type": "uint256"
        }
      ],
      "stateMutability": "view",
      "type": "function"
    },
    {
      "inputs": [],
      "name": "MAX_WEIGHT",
      "outputs": [
        {
          "internalType": "uint256",
          "name": "",
          "type": "uint256"
        }
      ],
      "stateMutability": "view",
      "type": "function"
    },
    {
      "inputs": [],
      "name": "MIN_BALANCE",
      "outputs": [
        {
          "internalType": "uint256",
          "name": "",
          "type": "uint256"
        }
      ],
      "stateMutability": "view",
      "type": "function"
    },
    {
      "inputs": [],
      "name": "MIN_BOUND_TOKENS",
      "outputs": [
        {
          "internalType": "uint256",
          "name": "",
          "type": "uint256"
        }
      ],
      "stateMutability": "view",
      "type": "function"
    },
    {
      "inputs": [],
      "name": "MIN_BPOW_BASE",
      "outputs": [
        {
          "internalType": "uint256",
          "name": "",
          "type": "uint256"
        }
      ],
      "stateMutability": "view",
      "type": "function"
    },
    {
      "inputs": [],
      "name": "MIN_FEE",
      "outputs": [
        {
          "internalType": "uint256",
          "name": "",
          "type": "uint256"
        }
      ],
      "stateMutability": "view",
      "type": "function"
    },
    {
      "inputs": [],
      "name": "MIN_WEIGHT",
      "outputs": [
        {
          "internalType": "uint256",
          "name": "",
          "type": "uint256"
        }
      ],
      "stateMutability": "view",
      "type": "function"
    },
    {
      "inputs": [],
      "name": "_swapPublishMarketFee",
      "outputs": [
        {
          "internalType": "uint256",
          "name": "",
          "type": "uint256"
        }
      ],
      "stateMutability": "view",
      "type": "function"
    },
    {
      "inputs": [
        {
          "internalType": "uint256[4]",
          "name": "data",
          "type": "uint256[4]"
        },
        {
          "internalType": "uint256",
          "name": "tokenAmountOut",
          "type": "uint256"
        },
        {
          "internalType": "address",
          "name": "tokenInAddress",
          "type": "address"
        },
        {
          "internalType": "uint256",
          "name": "_consumeMarketSwapFee",
          "type": "uint256"
        }
      ],
      "name": "calcInGivenOut",
      "outputs": [
        {
          "internalType": "uint256",
          "name": "tokenAmountIn",
          "type": "uint256"
        },
        {
          "internalType": "uint256",
          "name": "tokenAmountInBalance",
          "type": "uint256"
        },
        {
          "components": [
            {
              "internalType": "uint256",
              "name": "LPFee",
              "type": "uint256"
            },
            {
              "internalType": "uint256",
              "name": "oceanFeeAmount",
              "type": "uint256"
            },
            {
              "internalType": "uint256",
              "name": "publishMarketFeeAmount",
              "type": "uint256"
            },
            {
              "internalType": "uint256",
              "name": "consumeMarketFee",
              "type": "uint256"
            }
          ],
          "internalType": "struct BMath.swapfees",
          "name": "_swapfees",
          "type": "tuple"
        }
      ],
      "stateMutability": "view",
      "type": "function"
    },
    {
      "inputs": [
        {
          "internalType": "uint256[4]",
          "name": "data",
          "type": "uint256[4]"
        },
        {
          "internalType": "uint256",
          "name": "tokenAmountIn",
          "type": "uint256"
        },
        {
          "internalType": "address",
          "name": "tokenInAddress",
          "type": "address"
        },
        {
          "internalType": "uint256",
          "name": "_consumeMarketSwapFee",
          "type": "uint256"
        }
      ],
      "name": "calcOutGivenIn",
      "outputs": [
        {
          "internalType": "uint256",
          "name": "tokenAmountOut",
          "type": "uint256"
        },
        {
          "internalType": "uint256",
          "name": "balanceInToAdd",
          "type": "uint256"
        },
        {
          "components": [
            {
              "internalType": "uint256",
              "name": "LPFee",
              "type": "uint256"
            },
            {
              "internalType": "uint256",
              "name": "oceanFeeAmount",
              "type": "uint256"
            },
            {
              "internalType": "uint256",
              "name": "publishMarketFeeAmount",
              "type": "uint256"
            },
            {
              "internalType": "uint256",
              "name": "consumeMarketFee",
              "type": "uint256"
            }
          ],
          "internalType": "struct BMath.swapfees",
          "name": "_swapfees",
          "type": "tuple"
        }
      ],
      "stateMutability": "view",
      "type": "function"
    },
    {
      "inputs": [
        {
          "internalType": "address",
          "name": "",
          "type": "address"
        }
      ],
      "name": "communityFees",
      "outputs": [
        {
          "internalType": "uint256",
          "name": "",
          "type": "uint256"
        }
      ],
      "stateMutability": "view",
      "type": "function"
    },
    {
      "inputs": [],
      "name": "getOPCFee",
      "outputs": [
        {
          "internalType": "uint256",
          "name": "",
          "type": "uint256"
        }
      ],
      "stateMutability": "view",
      "type": "function"
    },
    {
      "inputs": [
        {
          "internalType": "address",
          "name": "",
          "type": "address"
        }
      ],
      "name": "publishMarketFees",
      "outputs": [
        {
          "internalType": "uint256",
          "name": "",
          "type": "uint256"
        }
      ],
      "stateMutability": "view",
      "type": "function"
    }
  ],
  "bytecode": "0x608060405234801561001057600080fd5b50610ec5806100206000396000f3fe608060405234801561001057600080fd5b50600436106101425760003560e01c8063992e2a92116100b8578063bc694ea21161007c578063bc694ea214610250578063c36596a61461016a578063c6580d1214610258578063ca6ce9e814610260578063e4a28a5214610147578063ec0930211461027357600080fd5b8063992e2a9214610230578063b0e0d13614610238578063b7b800a414610238578063ba019dab14610240578063bc063e1a1461024857600080fd5b806376c7a3c71161010a57806376c7a3c7146101a15780637a284be4146101a95780637c5918b3146101b2578063867378c5146101d25780639381cd2b146101da57806395a1f2d0146101e257600080fd5b806309a3bbe414610147578063189d00ca14610162578063218b53821461016a57806329b88a6a146101795780633006219214610181575b600080fd5b61014f61027b565b6040519081526020015b60405180910390f35b61014f610291565b61014f670de0b6b3a764000081565b61014f6102a8565b61014f61018f366004610ced565b60056020526000908152604090205481565b61014f610322565b61014f60005481565b61014f6101c0366004610ced565b60066020526000908152604090205481565b61014f610337565b61014f61034e565b6101f56101f0366004610d1e565b610361565b6040805193845260208085019390935281518482015291810151606080850191909152918101516080840152015160a082015260c001610159565b61014f61050f565b61014f600281565b61014f600181565b61014f61052d565b61014f610540565b61014f600081565b6101f561026e366004610d1e565b61055f565b61014f610703565b61028e670de0b6b3a76400006032610dcf565b81565b61028e6402540be400670de0b6b3a7640000610e04565b6002546004805460405163b8421e2b60e01b81526001600160a01b0391821692810192909252600092169063b8421e2b90602401602060405180830381865afa1580156102f9573d6000803e3d6000fd5b505050506040513d601f19601f8201168201806040525081019061031d9190610e18565b905090565b61028e620f4240670de0b6b3a7640000610e04565b61028e64e8d4a51000670de0b6b3a7640000610e04565b61028e670de0b6b3a76400006064610dcf565b60008061038f6040518060800160405280600081526020016000815260200160008152602001600081525090565b60006103aa88600160200201518960035b6020020151610716565b90506103d2876103c8896103cd670de0b6b3a76400006103c86102a8565b61083f565b61089c565b8260200181815250506103f7876103c8896103cd670de0b6b3a764000060005461083f565b82604001818152505061041c876103c8896103cd670de0b6b3a764000060015461083f565b8252610438876103c8816103cd670de0b6b3a76400008a61083f565b606083015260008054869061044b6102a8565b6001546104589190610e31565b6104629190610e31565b61046c9190610e31565b90506000610482670de0b6b3a76400008361083f565b905061048e898261089c565b8a519091506000906104a9906104a48185610977565b610716565b905060006104b782866109d0565b905060006104cd670de0b6b3a76400008361083f565b90506104e08d600260200201518261089c565b9850886104fb8d89604001518a602001516103c89190610e31565b985098505050505050509450945094915050565b6105226003670de0b6b3a7640000610e04565b61028e906001610e31565b61028e600a670de0b6b3a7640000610e04565b6001610555670de0b6b3a76400006002610dcf565b61028e9190610e49565b60008061058d6040518060800160405280600081526020016000815260200160008152602001600081525090565b60006105a288600360200201518960016103a0565b905060006105b789600260200201518961083f565b905060006105cc8a6002602002015183610716565b905060006105da82856109d0565b90506105ee81670de0b6b3a764000061083f565b905060008054896105fd6102a8565b60015461060a9190610e31565b6106149190610e31565b61061e9190610e31565b90506106476106358d60005b60200201518461089c565b6104a4670de0b6b3a76400008461083f565b9750610665886103c88a6103cd670de0b6b3a76400006103c86102a8565b86602001818152505061068a886103c88a6103cd670de0b6b3a764000060005461083f565b8660400181815250506106af886103c88a6103cd670de0b6b3a764000060015461083f565b86526106cb886103c8816103cd670de0b6b3a76400008e61083f565b60608701526106f26106de8d600061062a565b6104a4670de0b6b3a764000060015461083f565b965050505050509450945094915050565b61028e6002670de0b6b3a7640000610e04565b6000816107595760405162461bcd60e51b815260206004820152600c60248201526b4552525f4449565f5a45524f60a01b60448201526064015b60405180910390fd5b600061076d670de0b6b3a764000085610dcf565b905083158061078c5750670de0b6b3a764000061078a8583610e04565b145b6107cb5760405162461bcd60e51b815260206004820152601060248201526f11549497d1125597d25395115493905360821b6044820152606401610750565b60006107d8600285610e04565b6107e29083610e31565b9050818110156108275760405162461bcd60e51b815260206004820152601060248201526f11549497d1125597d25395115493905360821b6044820152606401610750565b60006108338583610e04565b93505050505b92915050565b600080600061084e8585610afc565b9150915080156108945760405162461bcd60e51b81526020600482015260116024820152704552525f5355425f554e444552464c4f5760781b6044820152606401610750565b509392505050565b6000806108a98385610dcf565b90508315806108c05750826108be8583610e04565b145b6108ff5760405162461bcd60e51b815260206004820152601060248201526f4552525f4d554c5f4f564552464c4f5760801b6044820152606401610750565b60006109146002670de0b6b3a7640000610e04565b61091e9083610e31565b9050818110156109635760405162461bcd60e51b815260206004820152601060248201526f4552525f4d554c5f4f564552464c4f5760801b6044820152606401610750565b6000610833670de0b6b3a764000083610e04565b6000806109848385610e31565b9050838110156109c95760405162461bcd60e51b815260206004820152601060248201526f4552525f4144445f4f564552464c4f5760801b6044820152606401610750565b9392505050565b60006001831015610a1b5760405162461bcd60e51b81526020600482015260156024820152744552525f42504f575f424153455f544f4f5f4c4f5760581b6044820152606401610750565b6001610a30670de0b6b3a76400006002610dcf565b610a3a9190610e49565b831115610a825760405162461bcd60e51b815260206004820152601660248201527508aa4a4be84a09eaebe8482a68abea89e9ebe90928e960531b6044820152606401610750565b6000610a8d83610b33565b90506000610a9b848361083f565b90506000610ab186610aac85610b51565b610b65565b905081610ac2579250610839915050565b6000610ae58784610ae06402540be400670de0b6b3a7640000610e04565b610be1565b9050610af1828261089c565b979650505050505050565b600080828410610b1b57610b108385610e49565b600091509150610b2c565b610b258484610e49565b6001915091505b9250929050565b6000670de0b6b3a7640000610b4783610b51565b6108399190610dcf565b6000610839670de0b6b3a764000083610e04565b60008281610b74600285610e60565b610b8657670de0b6b3a7640000610b88565b815b9050610b95600285610e04565b93505b8315610bd957610ba8828361089c565b9150610bb5600285610e60565b15610bc757610bc4818361089c565b90505b610bd2600285610e04565b9350610b98565b949350505050565b6000828180610bf887670de0b6b3a7640000610afc565b9092509050670de0b6b3a764000080600060015b888410610cc2576000610c27670de0b6b3a764000083610dcf565b9050600080610c478a610c4285670de0b6b3a764000061083f565b610afc565b91509150610c59876103cd848c61089c565b9650610c658784610716565b965086610c7457505050610cc2565b8715610c7e579315935b8015610c88579315935b8415610c9f57610c98868861083f565b9550610cac565b610ca98688610977565b95505b5050508080610cba90610e74565b915050610c0c565b50909998505050505050505050565b80356001600160a01b0381168114610ce857600080fd5b919050565b600060208284031215610cff57600080fd5b6109c982610cd1565b634e487b7160e01b600052604160045260246000fd5b60008060008060e08587031215610d3457600080fd5b85601f860112610d4357600080fd5b6040516080810181811067ffffffffffffffff82111715610d6657610d66610d08565b604052806080870188811115610d7b57600080fd5b875b81811015610d95578035835260209283019201610d7d565b5091955050359250610da960a08601610cd1565b9396929550929360c00135925050565b634e487b7160e01b600052601160045260246000fd5b6000816000190483118215151615610de957610de9610db9565b500290565b634e487b7160e01b600052601260045260246000fd5b600082610e1357610e13610dee565b500490565b600060208284031215610e2a57600080fd5b5051919050565b60008219821115610e4457610e44610db9565b500190565b600082821015610e5b57610e5b610db9565b500390565b600082610e6f57610e6f610dee565b500690565b6000600019821415610e8857610e88610db9565b506001019056fea26469706673582212202453e18c6b725511e005d2e065dc90ca658c378eb5c76b71ef41131f3d2c005564736f6c634300080a0033",
  "linkReferences": {},
  "deployedLinkReferences": {}
}