{
  "_format": "hh-sol-artifact-1",
  "contractName": "Metadata",
  "sourceName": "contracts/metadata/Metadata.sol",
  "abi": [
    {
      "anonymous": false,
      "inputs": [
        {
          "indexed": true,
          "internalType": "address",
          "name": "dataToken",
          "type": "address"
        },
        {
          "indexed": true,
          "internalType": "address",
          "name": "createdBy",
          "type": "address"
        },
        {
          "indexed": false,
          "internalType": "bytes",
          "name": "flags",
          "type": "bytes"
        },
        {
          "indexed": false,
          "internalType": "bytes",
          "name": "data",
          "type": "bytes"
        }
      ],
      "name": "MetadataCreated",
      "type": "event"
    },
    {
      "anonymous": false,
      "inputs": [
        {
          "indexed": true,
          "internalType": "address",
          "name": "dataToken",
          "type": "address"
        },
        {
          "indexed": true,
          "internalType": "address",
          "name": "updatedBy",
          "type": "address"
        },
        {
          "indexed": false,
          "internalType": "bytes",
          "name": "flags",
          "type": "bytes"
        },
        {
          "indexed": false,
          "internalType": "bytes",
          "name": "data",
          "type": "bytes"
        }
      ],
      "name": "MetadataUpdated",
      "type": "event"
    },
    {
      "inputs": [
        {
          "internalType": "address",
          "name": "_tokenFactory",
          "type": "address"
        }
      ],
      "name": "addTokenFactory",
      "outputs": [],
      "stateMutability": "nonpayable",
      "type": "function"
    },
    {
      "inputs": [
        {
          "internalType": "address",
          "name": "dataToken",
          "type": "address"
        },
        {
          "internalType": "bytes",
          "name": "flags",
          "type": "bytes"
        },
        {
          "internalType": "bytes",
          "name": "data",
          "type": "bytes"
        }
      ],
      "name": "create",
      "outputs": [],
      "stateMutability": "nonpayable",
      "type": "function"
    },
    {
      "inputs": [],
      "name": "tokenFactory",
      "outputs": [
        {
          "internalType": "address",
          "name": "",
          "type": "address"
        }
      ],
      "stateMutability": "view",
      "type": "function"
    },
    {
      "inputs": [
        {
          "internalType": "address",
          "name": "dataToken",
          "type": "address"
        },
        {
          "internalType": "bytes",
          "name": "flags",
          "type": "bytes"
        },
        {
          "internalType": "bytes",
          "name": "data",
          "type": "bytes"
        }
      ],
      "name": "update",
      "outputs": [],
      "stateMutability": "nonpayable",
      "type": "function"
    }
  ],
  "bytecode": "0x608060405234801561001057600080fd5b506104d8806100206000396000f3fe608060405234801561001057600080fd5b506004361061004c5760003560e01c806382743814146100515780639ce1936514610066578063e77772fe14610079578063f89b1f3614610097575b600080fd5b61006461005f366004610363565b6100aa565b005b610064610074366004610324565b6101b7565b6100816101d9565b60405161008e919061040d565b60405180910390f35b6100646100a5366004610363565b6101e8565b60005460405163072f670f60e41b8152869133916001600160a01b03909116906372f670f0906100de90849060040161040d565b602060405180830381600087803b1580156100f857600080fd5b505af115801561010c573d6000803e3d6000fd5b505050506040513d601f19601f820116820180604052508101906101309190610347565b6001600160a01b03161461015f5760405162461bcd60e51b815260040161015690610453565b60405180910390fd5b336001600160a01b0316866001600160a01b03167ee7283fcf5726344ed567dc39b1822ff824bc90f96c137b622781d3570b81ef878787876040516101a79493929190610421565b60405180910390a3505050505050565b600080546001600160a01b0319166001600160a01b0392909216919091179055565b6000546001600160a01b031681565b60005460405163072f670f60e41b8152869133916001600160a01b03909116906372f670f09061021c90849060040161040d565b602060405180830381600087803b15801561023657600080fd5b505af115801561024a573d6000803e3d6000fd5b505050506040513d601f19601f8201168201806040525081019061026e9190610347565b6001600160a01b0316146102945760405162461bcd60e51b815260040161015690610453565b336001600160a01b0316866001600160a01b03167fb8c028de5d50845d8e50bbc36728f4e9d523e16a1a431a299e8b216c7b2f5584878787876040516101a79493929190610421565b60008083601f8401126102ee578182fd5b50813567ffffffffffffffff811115610305578182fd5b60208301915083602082850101111561031d57600080fd5b9250929050565b600060208284031215610335578081fd5b81356103408161048a565b9392505050565b600060208284031215610358578081fd5b81516103408161048a565b60008060008060006060868803121561037a578081fd5b85356103858161048a565b9450602086013567ffffffffffffffff808211156103a1578283fd5b6103ad89838a016102dd565b909650945060408801359150808211156103c5578283fd5b506103d2888289016102dd565b969995985093965092949392505050565b60008284528282602086013780602084860101526020601f19601f85011685010190509392505050565b6001600160a01b0391909116815260200190565b6000604082526104356040830186886103e3565b82810360208401526104488185876103e3565b979650505050505050565b6020808252601e908201527f4d657461646174613a4e4f54204f524947494e414c2054454d504c4154450000604082015260600190565b6001600160a01b038116811461049f57600080fd5b5056fea2646970667358221220be06ca6a16f1085230f8fab4b0051edb73bf7a3afc02c08fdbb9e84134111c8464736f6c63430008000033",
  "linkReferences": {},
  "deployedLinkReferences": {}
}