{
  "_format": "hh-sol-artifact-1",
  "contractName": "Metadata",
  "sourceName": "contracts/metadata/Metadata.sol",
  "abi": [
    {
      "inputs": [
        {
          "internalType": "address",
          "name": "_erc20Factory",
          "type": "address"
        }
      ],
      "stateMutability": "nonpayable",
      "type": "constructor"
    },
    {
      "anonymous": false,
      "inputs": [
        {
          "indexed": true,
          "internalType": "address",
          "name": "dataToken",
          "type": "address"
        },
        {
          "indexed": true,
          "internalType": "address",
          "name": "createdBy",
          "type": "address"
        },
        {
          "indexed": false,
          "internalType": "bytes",
          "name": "flags",
          "type": "bytes"
        },
        {
          "indexed": false,
          "internalType": "bytes",
          "name": "data",
          "type": "bytes"
        }
      ],
      "name": "MetadataCreated",
      "type": "event"
    },
    {
      "anonymous": false,
      "inputs": [
        {
          "indexed": true,
          "internalType": "address",
          "name": "dataToken",
          "type": "address"
        },
        {
          "indexed": true,
          "internalType": "address",
          "name": "updatedBy",
          "type": "address"
        },
        {
          "indexed": false,
          "internalType": "bytes",
          "name": "flags",
          "type": "bytes"
        },
        {
          "indexed": false,
          "internalType": "bytes",
          "name": "data",
          "type": "bytes"
        }
      ],
      "name": "MetadataUpdated",
      "type": "event"
    },
    {
      "inputs": [
        {
          "internalType": "address",
          "name": "dataToken",
          "type": "address"
        },
        {
          "internalType": "bytes",
          "name": "flags",
          "type": "bytes"
        },
        {
          "internalType": "bytes",
          "name": "data",
          "type": "bytes"
        }
      ],
      "name": "create",
      "outputs": [],
      "stateMutability": "nonpayable",
      "type": "function"
    },
    {
      "inputs": [],
      "name": "erc20Factory",
      "outputs": [
        {
          "internalType": "address",
          "name": "",
          "type": "address"
        }
      ],
      "stateMutability": "view",
      "type": "function"
    },
    {
      "inputs": [
        {
          "internalType": "address",
          "name": "dataToken",
          "type": "address"
        },
        {
          "internalType": "bytes",
          "name": "flags",
          "type": "bytes"
        },
        {
          "internalType": "bytes",
          "name": "data",
          "type": "bytes"
        }
      ],
      "name": "update",
      "outputs": [],
      "stateMutability": "nonpayable",
      "type": "function"
    }
  ],
  "bytecode": "0x608060405234801561001057600080fd5b5060405161050d38038061050d83398101604081905261002f91610054565b600080546001600160a01b0319166001600160a01b0392909216919091179055610082565b600060208284031215610065578081fd5b81516001600160a01b038116811461007b578182fd5b9392505050565b61047c806100916000396000f3fe608060405234801561001057600080fd5b50600436106100415760003560e01c80638274381414610046578063f4c3066f1461005b578063f89b1f3614610079575b600080fd5b610059610054366004610307565b61008c565b005b610063610199565b60405161007091906103b1565b60405180910390f35b610059610087366004610307565b6101a8565b60005460405163072f670f60e41b8152869133916001600160a01b03909116906372f670f0906100c09084906004016103b1565b602060405180830381600087803b1580156100da57600080fd5b505af11580156100ee573d6000803e3d6000fd5b505050506040513d601f19601f8201168201806040525081019061011291906102e4565b6001600160a01b0316146101415760405162461bcd60e51b8152600401610138906103f7565b60405180910390fd5b336001600160a01b0316866001600160a01b03167ee7283fcf5726344ed567dc39b1822ff824bc90f96c137b622781d3570b81ef8787878760405161018994939291906103c5565b60405180910390a3505050505050565b6000546001600160a01b031681565b60005460405163072f670f60e41b8152869133916001600160a01b03909116906372f670f0906101dc9084906004016103b1565b602060405180830381600087803b1580156101f657600080fd5b505af115801561020a573d6000803e3d6000fd5b505050506040513d601f19601f8201168201806040525081019061022e91906102e4565b6001600160a01b0316146102545760405162461bcd60e51b8152600401610138906103f7565b336001600160a01b0316866001600160a01b03167fb8c028de5d50845d8e50bbc36728f4e9d523e16a1a431a299e8b216c7b2f55848787878760405161018994939291906103c5565b60008083601f8401126102ae578182fd5b50813567ffffffffffffffff8111156102c5578182fd5b6020830191508360208285010111156102dd57600080fd5b9250929050565b6000602082840312156102f5578081fd5b81516103008161042e565b9392505050565b60008060008060006060868803121561031e578081fd5b85356103298161042e565b9450602086013567ffffffffffffffff80821115610345578283fd5b61035189838a0161029d565b90965094506040880135915080821115610369578283fd5b506103768882890161029d565b969995985093965092949392505050565b60008284528282602086013780602084860101526020601f19601f85011685010190509392505050565b6001600160a01b0391909116815260200190565b6000604082526103d9604083018688610387565b82810360208401526103ec818587610387565b979650505050505050565b6020808252601e908201527f4d657461646174613a4e4f54204f524947494e414c2054454d504c4154450000604082015260600190565b6001600160a01b038116811461044357600080fd5b5056fea26469706673582212204fc218ee0755dbf04f6446eb9145fb696a2da6f0bbcd30f22614d5c003ee912964736f6c63430008000033",
  "linkReferences": {},
  "deployedLinkReferences": {}
}