{
  "_format": "hh-sol-artifact-1",
  "contractName": "BMath",
  "sourceName": "contracts/v3/balancer/BMath.sol",
  "abi": [
    {
      "anonymous": false,
      "inputs": [
        {
          "indexed": false,
          "internalType": "uint256",
          "name": "swapFeeAmount",
          "type": "uint256"
        },
        {
          "indexed": false,
          "internalType": "uint256",
          "name": "oceanFeeAmount",
          "type": "uint256"
        },
        {
          "indexed": false,
          "internalType": "uint256",
          "name": "marketFeeAmount",
          "type": "uint256"
        },
        {
          "indexed": false,
          "internalType": "address",
          "name": "tokenFees",
          "type": "address"
        }
      ],
      "name": "SWAP_FEES",
      "type": "event"
    },
    {
      "inputs": [],
      "name": "BONE",
      "outputs": [
        {
          "internalType": "uint256",
          "name": "",
          "type": "uint256"
        }
      ],
      "stateMutability": "view",
      "type": "function"
    },
    {
      "inputs": [],
      "name": "BPOW_PRECISION",
      "outputs": [
        {
          "internalType": "uint256",
          "name": "",
          "type": "uint256"
        }
      ],
      "stateMutability": "view",
      "type": "function"
    },
    {
      "inputs": [],
      "name": "EXIT_FEE",
      "outputs": [
        {
          "internalType": "uint256",
          "name": "",
          "type": "uint256"
        }
      ],
      "stateMutability": "view",
      "type": "function"
    },
    {
      "inputs": [],
      "name": "INIT_POOL_SUPPLY",
      "outputs": [
        {
          "internalType": "uint256",
          "name": "",
          "type": "uint256"
        }
      ],
      "stateMutability": "view",
      "type": "function"
    },
    {
      "inputs": [],
      "name": "MAX_BOUND_TOKENS",
      "outputs": [
        {
          "internalType": "uint256",
          "name": "",
          "type": "uint256"
        }
      ],
      "stateMutability": "view",
      "type": "function"
    },
    {
      "inputs": [],
      "name": "MAX_BPOW_BASE",
      "outputs": [
        {
          "internalType": "uint256",
          "name": "",
          "type": "uint256"
        }
      ],
      "stateMutability": "view",
      "type": "function"
    },
    {
      "inputs": [],
      "name": "MAX_FEE",
      "outputs": [
        {
          "internalType": "uint256",
          "name": "",
          "type": "uint256"
        }
      ],
      "stateMutability": "view",
      "type": "function"
    },
    {
      "inputs": [],
      "name": "MAX_IN_RATIO",
      "outputs": [
        {
          "internalType": "uint256",
          "name": "",
          "type": "uint256"
        }
      ],
      "stateMutability": "view",
      "type": "function"
    },
    {
      "inputs": [],
      "name": "MAX_OUT_RATIO",
      "outputs": [
        {
          "internalType": "uint256",
          "name": "",
          "type": "uint256"
        }
      ],
      "stateMutability": "view",
      "type": "function"
    },
    {
      "inputs": [],
      "name": "MAX_TOTAL_WEIGHT",
      "outputs": [
        {
          "internalType": "uint256",
          "name": "",
          "type": "uint256"
        }
      ],
      "stateMutability": "view",
      "type": "function"
    },
    {
      "inputs": [],
      "name": "MAX_WEIGHT",
      "outputs": [
        {
          "internalType": "uint256",
          "name": "",
          "type": "uint256"
        }
      ],
      "stateMutability": "view",
      "type": "function"
    },
    {
      "inputs": [],
      "name": "MIN_BALANCE",
      "outputs": [
        {
          "internalType": "uint256",
          "name": "",
          "type": "uint256"
        }
      ],
      "stateMutability": "view",
      "type": "function"
    },
    {
      "inputs": [],
      "name": "MIN_BOUND_TOKENS",
      "outputs": [
        {
          "internalType": "uint256",
          "name": "",
          "type": "uint256"
        }
      ],
      "stateMutability": "view",
      "type": "function"
    },
    {
      "inputs": [],
      "name": "MIN_BPOW_BASE",
      "outputs": [
        {
          "internalType": "uint256",
          "name": "",
          "type": "uint256"
        }
      ],
      "stateMutability": "view",
      "type": "function"
    },
    {
      "inputs": [],
      "name": "MIN_FEE",
      "outputs": [
        {
          "internalType": "uint256",
          "name": "",
          "type": "uint256"
        }
      ],
      "stateMutability": "view",
      "type": "function"
    },
    {
      "inputs": [],
      "name": "MIN_WEIGHT",
      "outputs": [
        {
          "internalType": "uint256",
          "name": "",
          "type": "uint256"
        }
      ],
      "stateMutability": "view",
      "type": "function"
    },
    {
      "inputs": [],
      "name": "_swapMarketFee",
      "outputs": [
        {
          "internalType": "uint256",
          "name": "",
          "type": "uint256"
        }
      ],
      "stateMutability": "view",
      "type": "function"
    },
    {
      "inputs": [],
      "name": "_swapOceanFee",
      "outputs": [
        {
          "internalType": "uint256",
          "name": "",
          "type": "uint256"
        }
      ],
      "stateMutability": "view",
      "type": "function"
    },
    {
      "inputs": [
        {
          "internalType": "address",
          "name": "",
          "type": "address"
        }
      ],
      "name": "communityFees",
      "outputs": [
        {
          "internalType": "uint256",
          "name": "",
          "type": "uint256"
        }
      ],
      "stateMutability": "view",
      "type": "function"
    },
    {
      "inputs": [
        {
          "internalType": "address",
          "name": "",
          "type": "address"
        }
      ],
      "name": "feesCollectedMarket",
      "outputs": [
        {
          "internalType": "uint256",
          "name": "",
          "type": "uint256"
        }
      ],
      "stateMutability": "view",
      "type": "function"
    },
    {
      "inputs": [
        {
          "internalType": "address",
          "name": "",
          "type": "address"
        }
      ],
      "name": "feesCollectedOPF",
      "outputs": [
        {
          "internalType": "uint256",
          "name": "",
          "type": "uint256"
        }
      ],
      "stateMutability": "view",
      "type": "function"
    },
    {
      "inputs": [
        {
          "internalType": "address",
          "name": "",
          "type": "address"
        }
      ],
      "name": "marketFees",
      "outputs": [
        {
          "internalType": "uint256",
          "name": "",
          "type": "uint256"
        }
      ],
      "stateMutability": "view",
      "type": "function"
    }
  ],
  "bytecode": "0x608060405234801561001057600080fd5b5061045d806100206000396000f3fe608060405234801561001057600080fd5b50600436106101425760003560e01c8063b0e0d136116100b8578063bc694ea21161007c578063bc694ea2146101fe578063c36596a61461016d578063c6580d1214610206578063e4a28a5214610147578063ec0930211461020e578063f542f6cf1461021657610142565b8063b0e0d136146101d6578063b7b800a4146101de578063b80483b0146101e6578063ba019dab146101ee578063bc063e1a146101f657610142565b806349e9350f1161010a57806349e9350f1461019b57806376c7a3c7146101a35780637c6e92c2146101ab578063867378c5146101be5780639381cd2b146101c6578063992e2a92146101ce57610142565b806309a3bbe414610147578063189d00ca14610165578063218b53821461016d578063300621921461017557806331e2761b14610188575b600080fd5b61014f610229565b60405161015c919061039a565b60405180910390f35b61014f61023f565b61014f610256565b61014f61018336600461036c565b610262565b61014f61019636600461036c565b610274565b61014f610286565b61014f61028c565b61014f6101b936600461036c565b6102a1565b61014f6102b3565b61014f6102ca565b61014f6102dd565b61014f6102fb565b61014f610300565b61014f610305565b61014f61030b565b61014f610310565b61014f610323565b61014f610342565b61014f610347565b61014f61022436600461036c565b61035a565b61023c670de0b6b3a764000060326103db565b81565b61023c6402540be400670de0b6b3a76400006103bb565b670de0b6b3a764000081565b60036020526000908152604090205481565b60056020526000908152604090205481565b60015481565b61023c620f4240670de0b6b3a76400006103bb565b60046020526000908152604090205481565b61023c64e8d4a51000670de0b6b3a76400006103bb565b61023c670de0b6b3a764000060646103db565b6102f06003670de0b6b3a76400006103bb565b61023c9060016103a3565b600881565b600281565b60005481565b600181565b61023c600a670de0b6b3a76400006103bb565b6001610338670de0b6b3a764000060026103db565b61023c91906103fa565b600081565b61023c6002670de0b6b3a76400006103bb565b60066020526000908152604090205481565b60006020828403121561037d578081fd5b81356001600160a01b0381168114610393578182fd5b9392505050565b90815260200190565b600082198211156103b6576103b6610411565b500190565b6000826103d657634e487b7160e01b81526012600452602481fd5b500490565b60008160001904831182151516156103f5576103f5610411565b500290565b60008282101561040c5761040c610411565b500390565b634e487b7160e01b600052601160045260246000fdfea2646970667358221220ff608f9ec8fc242f0c2e43bb3184fbed6c07bef6b4d8c90fec00e08c943bbf9464736f6c63430008000033",
  "linkReferences": {},
  "deployedLinkReferences": {}
}