{
  "_format": "hh-sol-artifact-1",
  "contractName": "BMath",
  "sourceName": "contracts/v3/balancer/BMath.sol",
  "abi": [
    {
      "inputs": [],
      "name": "BONE",
      "outputs": [
        {
          "internalType": "uint256",
          "name": "",
          "type": "uint256"
        }
      ],
      "stateMutability": "view",
      "type": "function"
    },
    {
      "inputs": [],
      "name": "BPOW_PRECISION",
      "outputs": [
        {
          "internalType": "uint256",
          "name": "",
          "type": "uint256"
        }
      ],
      "stateMutability": "view",
      "type": "function"
    },
    {
      "inputs": [],
      "name": "EXIT_FEE",
      "outputs": [
        {
          "internalType": "uint256",
          "name": "",
          "type": "uint256"
        }
      ],
      "stateMutability": "view",
      "type": "function"
    },
    {
      "inputs": [],
      "name": "INIT_POOL_SUPPLY",
      "outputs": [
        {
          "internalType": "uint256",
          "name": "",
          "type": "uint256"
        }
      ],
      "stateMutability": "view",
      "type": "function"
    },
    {
      "inputs": [],
      "name": "MAX_BOUND_TOKENS",
      "outputs": [
        {
          "internalType": "uint256",
          "name": "",
          "type": "uint256"
        }
      ],
      "stateMutability": "view",
      "type": "function"
    },
    {
      "inputs": [],
      "name": "MAX_BPOW_BASE",
      "outputs": [
        {
          "internalType": "uint256",
          "name": "",
          "type": "uint256"
        }
      ],
      "stateMutability": "view",
      "type": "function"
    },
    {
      "inputs": [],
      "name": "MAX_FEE",
      "outputs": [
        {
          "internalType": "uint256",
          "name": "",
          "type": "uint256"
        }
      ],
      "stateMutability": "view",
      "type": "function"
    },
    {
      "inputs": [],
      "name": "MAX_IN_RATIO",
      "outputs": [
        {
          "internalType": "uint256",
          "name": "",
          "type": "uint256"
        }
      ],
      "stateMutability": "view",
      "type": "function"
    },
    {
      "inputs": [],
      "name": "MAX_OUT_RATIO",
      "outputs": [
        {
          "internalType": "uint256",
          "name": "",
          "type": "uint256"
        }
      ],
      "stateMutability": "view",
      "type": "function"
    },
    {
      "inputs": [],
      "name": "MAX_TOTAL_WEIGHT",
      "outputs": [
        {
          "internalType": "uint256",
          "name": "",
          "type": "uint256"
        }
      ],
      "stateMutability": "view",
      "type": "function"
    },
    {
      "inputs": [],
      "name": "MAX_WEIGHT",
      "outputs": [
        {
          "internalType": "uint256",
          "name": "",
          "type": "uint256"
        }
      ],
      "stateMutability": "view",
      "type": "function"
    },
    {
      "inputs": [],
      "name": "MIN_BALANCE",
      "outputs": [
        {
          "internalType": "uint256",
          "name": "",
          "type": "uint256"
        }
      ],
      "stateMutability": "view",
      "type": "function"
    },
    {
      "inputs": [],
      "name": "MIN_BOUND_TOKENS",
      "outputs": [
        {
          "internalType": "uint256",
          "name": "",
          "type": "uint256"
        }
      ],
      "stateMutability": "view",
      "type": "function"
    },
    {
      "inputs": [],
      "name": "MIN_BPOW_BASE",
      "outputs": [
        {
          "internalType": "uint256",
          "name": "",
          "type": "uint256"
        }
      ],
      "stateMutability": "view",
      "type": "function"
    },
    {
      "inputs": [],
      "name": "MIN_FEE",
      "outputs": [
        {
          "internalType": "uint256",
          "name": "",
          "type": "uint256"
        }
      ],
      "stateMutability": "view",
      "type": "function"
    },
    {
      "inputs": [],
      "name": "MIN_WEIGHT",
      "outputs": [
        {
          "internalType": "uint256",
          "name": "",
          "type": "uint256"
        }
      ],
      "stateMutability": "view",
      "type": "function"
    },
    {
      "inputs": [],
      "name": "_swapMarketFee",
      "outputs": [
        {
          "internalType": "uint256",
          "name": "",
          "type": "uint256"
        }
      ],
      "stateMutability": "view",
      "type": "function"
    },
    {
      "inputs": [],
      "name": "_swapOceanFee",
      "outputs": [
        {
          "internalType": "uint256",
          "name": "",
          "type": "uint256"
        }
      ],
      "stateMutability": "view",
      "type": "function"
    },
    {
      "inputs": [
        {
          "internalType": "uint256",
          "name": "tokenBalanceIn",
          "type": "uint256"
        },
        {
          "internalType": "uint256",
          "name": "tokenWeightIn",
          "type": "uint256"
        },
        {
          "internalType": "uint256",
          "name": "tokenBalanceOut",
          "type": "uint256"
        },
        {
          "internalType": "uint256",
          "name": "tokenWeightOut",
          "type": "uint256"
        },
        {
          "internalType": "uint256",
          "name": "tokenAmountOut",
          "type": "uint256"
        }
      ],
      "name": "calcInGivenOut",
      "outputs": [
        {
          "internalType": "uint256",
          "name": "tokenAmountIn",
          "type": "uint256"
        }
      ],
      "stateMutability": "view",
      "type": "function"
    },
    {
      "inputs": [
        {
          "internalType": "uint256",
          "name": "tokenBalanceIn",
          "type": "uint256"
        },
        {
          "internalType": "uint256",
          "name": "tokenWeightIn",
          "type": "uint256"
        },
        {
          "internalType": "uint256",
          "name": "tokenBalanceOut",
          "type": "uint256"
        },
        {
          "internalType": "uint256",
          "name": "tokenWeightOut",
          "type": "uint256"
        },
        {
          "internalType": "uint256",
          "name": "tokenAmountOut",
          "type": "uint256"
        }
      ],
      "name": "calcInGivenOutSwap",
      "outputs": [
        {
          "internalType": "uint256",
          "name": "tokenAmountIn",
          "type": "uint256"
        }
      ],
      "stateMutability": "view",
      "type": "function"
    },
    {
      "inputs": [
        {
          "internalType": "uint256",
          "name": "tokenBalanceIn",
          "type": "uint256"
        },
        {
          "internalType": "uint256",
          "name": "tokenWeightIn",
          "type": "uint256"
        },
        {
          "internalType": "uint256",
          "name": "tokenBalanceOut",
          "type": "uint256"
        },
        {
          "internalType": "uint256",
          "name": "tokenWeightOut",
          "type": "uint256"
        },
        {
          "internalType": "uint256",
          "name": "tokenAmountIn",
          "type": "uint256"
        }
      ],
      "name": "calcOutGivenIn",
      "outputs": [
        {
          "internalType": "uint256",
          "name": "tokenAmountOut",
          "type": "uint256"
        }
      ],
      "stateMutability": "view",
      "type": "function"
    },
    {
      "inputs": [
        {
          "internalType": "uint256",
          "name": "tokenBalanceOut",
          "type": "uint256"
        },
        {
          "internalType": "uint256",
          "name": "tokenWeightOut",
          "type": "uint256"
        },
        {
          "internalType": "uint256",
          "name": "poolSupply",
          "type": "uint256"
        },
        {
          "internalType": "uint256",
          "name": "totalWeight",
          "type": "uint256"
        },
        {
          "internalType": "uint256",
          "name": "tokenAmountOut",
          "type": "uint256"
        }
      ],
      "name": "calcPoolInGivenSingleOut",
      "outputs": [
        {
          "internalType": "uint256",
          "name": "poolAmountIn",
          "type": "uint256"
        }
      ],
      "stateMutability": "view",
      "type": "function"
    },
    {
      "inputs": [
        {
          "internalType": "uint256",
          "name": "tokenBalanceIn",
          "type": "uint256"
        },
        {
          "internalType": "uint256",
          "name": "tokenWeightIn",
          "type": "uint256"
        },
        {
          "internalType": "uint256",
          "name": "poolSupply",
          "type": "uint256"
        },
        {
          "internalType": "uint256",
          "name": "totalWeight",
          "type": "uint256"
        },
        {
          "internalType": "uint256",
          "name": "tokenAmountIn",
          "type": "uint256"
        }
      ],
      "name": "calcPoolOutGivenSingleIn",
      "outputs": [
        {
          "internalType": "uint256",
          "name": "poolAmountOut",
          "type": "uint256"
        }
      ],
      "stateMutability": "view",
      "type": "function"
    },
    {
      "inputs": [
        {
          "internalType": "uint256",
          "name": "tokenBalanceIn",
          "type": "uint256"
        },
        {
          "internalType": "uint256",
          "name": "tokenWeightIn",
          "type": "uint256"
        },
        {
          "internalType": "uint256",
          "name": "poolSupply",
          "type": "uint256"
        },
        {
          "internalType": "uint256",
          "name": "totalWeight",
          "type": "uint256"
        },
        {
          "internalType": "uint256",
          "name": "poolAmountOut",
          "type": "uint256"
        }
      ],
      "name": "calcSingleInGivenPoolOut",
      "outputs": [
        {
          "internalType": "uint256",
          "name": "tokenAmountIn",
          "type": "uint256"
        }
      ],
      "stateMutability": "view",
      "type": "function"
    },
    {
      "inputs": [
        {
          "internalType": "uint256",
          "name": "tokenBalanceOut",
          "type": "uint256"
        },
        {
          "internalType": "uint256",
          "name": "tokenWeightOut",
          "type": "uint256"
        },
        {
          "internalType": "uint256",
          "name": "poolSupply",
          "type": "uint256"
        },
        {
          "internalType": "uint256",
          "name": "totalWeight",
          "type": "uint256"
        },
        {
          "internalType": "uint256",
          "name": "poolAmountIn",
          "type": "uint256"
        }
      ],
      "name": "calcSingleOutGivenPoolIn",
      "outputs": [
        {
          "internalType": "uint256",
          "name": "tokenAmountOut",
          "type": "uint256"
        }
      ],
      "stateMutability": "view",
      "type": "function"
    },
    {
      "inputs": [
        {
          "internalType": "uint256",
          "name": "tokenBalanceIn",
          "type": "uint256"
        },
        {
          "internalType": "uint256",
          "name": "tokenWeightIn",
          "type": "uint256"
        },
        {
          "internalType": "uint256",
          "name": "tokenBalanceOut",
          "type": "uint256"
        },
        {
          "internalType": "uint256",
          "name": "tokenWeightOut",
          "type": "uint256"
        }
      ],
      "name": "calcSpotPrice",
      "outputs": [
        {
          "internalType": "uint256",
          "name": "spotPrice",
          "type": "uint256"
        }
      ],
      "stateMutability": "view",
      "type": "function"
    },
    {
      "inputs": [
        {
          "internalType": "address",
          "name": "",
          "type": "address"
        }
      ],
      "name": "communityFees",
      "outputs": [
        {
          "internalType": "uint256",
          "name": "",
          "type": "uint256"
        }
      ],
      "stateMutability": "view",
      "type": "function"
    },
    {
      "inputs": [
        {
          "internalType": "address",
          "name": "",
          "type": "address"
        }
      ],
      "name": "feesCollectedMarket",
      "outputs": [
        {
          "internalType": "uint256",
          "name": "",
          "type": "uint256"
        }
      ],
      "stateMutability": "view",
      "type": "function"
    },
    {
      "inputs": [
        {
          "internalType": "address",
          "name": "",
          "type": "address"
        }
      ],
      "name": "feesCollectedOPF",
      "outputs": [
        {
          "internalType": "uint256",
          "name": "",
          "type": "uint256"
        }
      ],
      "stateMutability": "view",
      "type": "function"
    },
    {
      "inputs": [
        {
          "internalType": "address",
          "name": "",
          "type": "address"
        }
      ],
      "name": "marketFees",
      "outputs": [
        {
          "internalType": "uint256",
          "name": "",
          "type": "uint256"
        }
      ],
      "stateMutability": "view",
      "type": "function"
    }
  ],
  "bytecode": "0x608060405234801561001057600080fd5b5061112c806100206000396000f3fe608060405234801561001057600080fd5b50600436106101da5760003560e01c8063a33adccb11610104578063bc694ea2116100a2578063e4a28a5211610071578063e4a28a52146101df578063ec0930211461032b578063ee53a6cd14610333578063f542f6cf14610346576101da565b8063bc694ea214610308578063c36596a614610218578063c6580d1214610310578063d590510014610318576101da565b8063b7b800a4116100de578063b7b800a4146102e8578063b80483b0146102f0578063ba019dab146102f8578063bc063e1a14610300576101da565b8063a33adccb146102ba578063b0e0d136146102cd578063b4ddf251146102d5576101da565b80635678976b1161017c5780637c6e92c21161014b5780637c6e92c21461028f578063867378c5146102a25780639381cd2b146102aa578063992e2a92146102b2576101da565b80635678976b1461024e5780635d14552a146102615780636c2749c71461027457806376c7a3c714610287576101da565b8063218b5382116101b8578063218b538214610218578063300621921461022057806331e2761b1461023357806349e9350f14610246576101da565b806309a3bbe4146101df5780630c78bb4e146101fd578063189d00ca14610210575b600080fd5b6101e7610359565b6040516101f49190611030565b60405180910390f35b6101e761020b366004610ec8565b61036f565b6101e761044f565b6101e7610466565b6101e761022e366004610e70565b610472565b6101e7610241366004610e70565b610484565b6101e7610496565b6101e761025c366004610ec8565b61049c565b6101e761026f366004610e97565b610545565b6101e7610282366004610ec8565b6105ca565b6101e761066c565b6101e761029d366004610e70565b610681565b6101e7610693565b6101e76106aa565b6101e76106bd565b6101e76102c8366004610ec8565b6106db565b6101e761079a565b6101e76102e3366004610ec8565b61079f565b6101e7610834565b6101e7610839565b6101e761083f565b6101e7610844565b6101e7610857565b6101e7610876565b6101e7610326366004610ec8565b61087b565b6101e761091f565b6101e7610341366004610ec8565b610932565b6101e7610354366004610e70565b6109e2565b61036c670de0b6b3a76400006032611065565b81565b60008061037c86856109f4565b90506000610394670de0b6b3a7640000600254610abc565b90506103a08482610af5565b905060006103c1856103bc670de0b6b3a7640000600054610abc565b610af5565b905060006103dd866103bc670de0b6b3a7640000600154610abc565b90506000816103ec8486611039565b6103f69190611039565b9050600061040d8c6104088e85610b8a565b6109f4565b9050600061041b8288610bc0565b90506000610431670de0b6b3a764000083610abc565b905061043d8c82610af5565b9e9d5050505050505050505050505050565b61036c6402540be400670de0b6b3a7640000611051565b670de0b6b3a764000081565b60036020526000908152604090205481565b60056020526000908152604090205481565b60015481565b6000806104a984876109f4565b905060006104b78685610abc565b905060006104c587836109f4565b905060006104d38285610bc0565b90506104e781670de0b6b3a7640000610abc565b905060006001546000546002546104fe9190611039565b6105089190611039565b90506000610520670de0b6b3a7640000600254610abc565b905061053561052f8d85610af5565b826109f4565b9c9b505050505050505050505050565b60008061055286866109f4565b9050600061056085856109f4565b9050600061056e83836109f4565b9050600080546001546002546105849190611039565b61058e9190611039565b905060006105b0670de0b6b3a7640000610408670de0b6b3a764000085610abc565b90506105bc8382610af5565b9a9950505050505050505050565b6000806105d786856109f4565b905060006105e58685610b8a565b905060006105f382886109f4565b90506000610609670de0b6b3a7640000856109f4565b905060006106178383610bc0565b90506000610625828d610af5565b90506000610633828e610abc565b9050600061065461064c670de0b6b3a76400008a610abc565b600254610af5565b905061043d82610408670de0b6b3a764000084610abc565b61036c620f4240670de0b6b3a7640000611051565b60046020526000908152604090205481565b61036c64e8d4a51000670de0b6b3a7640000611051565b61036c670de0b6b3a76400006064611065565b6106d06003670de0b6b3a7640000611051565b61036c906001611039565b6000806106e886856109f4565b905060006106fe670de0b6b3a764000083610abc565b9050600061070e82600254610af5565b9050600061072886610408670de0b6b3a764000085610abc565b905060006107368b83610abc565b90506000610744828d6109f4565b905060006107528288610bc0565b90506000610760828d610af5565b9050600061076e8d83610abc565b905061078781610408670de0b6b3a76400006000610abc565b9f9e505050505050505050505050505050565b600881565b6000806107ac86856109f4565b905060006107c561064c670de0b6b3a764000084610abc565b905060006107df856103bc670de0b6b3a764000085610abc565b905060006107ed8a83610b8a565b905060006107fb828c6109f4565b905060006108098287610bc0565b90506000610817828c610af5565b9050610823818c610abc565b9d9c50505050505050505050505050565b600281565b60005481565b600181565b61036c600a670de0b6b3a7640000611051565b600161086c670de0b6b3a76400006002611065565b61036c9190611084565b600081565b60008061088884876109f4565b905060006108968685610abc565b905060006108a487836109f4565b905060006108b28285610bc0565b90506108c681670de0b6b3a7640000610abc565b905060006001546000546002546108dd9190611039565b6108e79190611039565b90506108fb670de0b6b3a764000082610abc565b955061091061090a8c84610af5565b876109f4565b9b9a5050505050505050505050565b61036c6002670de0b6b3a7640000611051565b60008061093f86856109f4565b9050600061095a846103bc670de0b6b3a76400006000610abc565b905060006109688783610abc565b9050600061097682896109f4565b9050600061099582610990670de0b6b3a7640000886109f4565b610bc0565b905060006109a3828d610af5565b905060006109b18d83610abc565b905060006109ca61064c670de0b6b3a76400008a610abc565b905061043d826103bc670de0b6b3a764000084610abc565b60066020526000908152604090205481565b600081610a1c5760405162461bcd60e51b8152600401610a1390610f56565b60405180910390fd5b6000610a30670de0b6b3a764000085611065565b9050831580610a4f5750670de0b6b3a7640000610a4d8583611051565b145b610a6b5760405162461bcd60e51b8152600401610a1390610f02565b6000610a78600285611051565b610a829083611039565b905081811015610aa45760405162461bcd60e51b8152600401610a1390610f02565b6000610ab08583611051565b93505050505b92915050565b6000806000610acb8585610c9b565b915091508015610aed5760405162461bcd60e51b8152600401610a1390610fab565b509392505050565b600080610b028385611065565b9050831580610b19575082610b178583611051565b145b610b355760405162461bcd60e51b8152600401610a1390610f2c565b6000610b4a6002670de0b6b3a7640000611051565b610b549083611039565b905081811015610b765760405162461bcd60e51b8152600401610a1390610f2c565b6000610ab0670de0b6b3a764000083611051565b600080610b978385611039565b905083811015610bb95760405162461bcd60e51b8152600401610a1390610fd6565b9392505050565b60006001831015610be35760405162461bcd60e51b8152600401610a1390610f7c565b6001610bf8670de0b6b3a76400006002611065565b610c029190611084565b831115610c215760405162461bcd60e51b8152600401610a1390611000565b6000610c2c83610cd2565b90506000610c3a8483610abc565b90506000610c5086610c4b85610cf0565b610d04565b905081610c61579250610ab6915050565b6000610c848784610c7f6402540be400670de0b6b3a7640000611051565b610d80565b9050610c908282610af5565b979650505050505050565b600080828410610cba57610caf8385611084565b600091509150610ccb565b610cc48484611084565b6001915091505b9250929050565b6000670de0b6b3a7640000610ce683610cf0565b610ab69190611065565b6000610ab6670de0b6b3a764000083611051565b60008281610d136002856110b6565b610d2557670de0b6b3a7640000610d27565b815b9050610d34600285611051565b93505b8315610d7857610d478283610af5565b9150610d546002856110b6565b15610d6657610d638183610af5565b90505b610d71600285611051565b9350610d37565b949350505050565b6000828180610d9787670de0b6b3a7640000610c9b565b9092509050670de0b6b3a764000080600060015b888410610e61576000610dc6670de0b6b3a764000083611065565b9050600080610de68a610de185670de0b6b3a7640000610abc565b610c9b565b91509150610df8876103bc848c610af5565b9650610e0487846109f4565b965086610e1357505050610e61565b8715610e1d579315935b8015610e27579315935b8415610e3e57610e378688610abc565b9550610e4b565b610e488688610b8a565b95505b5050508080610e599061109b565b915050610dab565b50909998505050505050505050565b600060208284031215610e81578081fd5b81356001600160a01b0381168114610bb9578182fd5b60008060008060808587031215610eac578283fd5b5050823594602084013594506040840135936060013592509050565b600080600080600060a08688031215610edf578081fd5b505083359560208501359550604085013594606081013594506080013592509050565b60208082526010908201526f11549497d1125597d25395115493905360821b604082015260600190565b60208082526010908201526f4552525f4d554c5f4f564552464c4f5760801b604082015260600190565b6020808252600c908201526b4552525f4449565f5a45524f60a01b604082015260600190565b6020808252601590820152744552525f42504f575f424153455f544f4f5f4c4f5760581b604082015260600190565b6020808252601190820152704552525f5355425f554e444552464c4f5760781b604082015260600190565b60208082526010908201526f4552525f4144445f4f564552464c4f5760801b604082015260600190565b60208082526016908201527508aa4a4be84a09eaebe8482a68abea89e9ebe90928e960531b604082015260600190565b90815260200190565b6000821982111561104c5761104c6110ca565b500190565b600082611060576110606110e0565b500490565b600081600019048311821515161561107f5761107f6110ca565b500290565b600082821015611096576110966110ca565b500390565b60006000198214156110af576110af6110ca565b5060010190565b6000826110c5576110c56110e0565b500690565b634e487b7160e01b600052601160045260246000fd5b634e487b7160e01b600052601260045260246000fdfea2646970667358221220952e27ca4138cc27201987815c230dbc0fc6b07e79f0261de391f6da6e357a7564736f6c63430008000033",
  "linkReferences": {},
  "deployedLinkReferences": {}
}