{
  "_format": "hh-sol-artifact-1",
  "contractName": "BMath",
  "sourceName": "contracts/v3/balancer/BMath.sol",
  "abi": [
    {
      "constant": true,
      "inputs": [],
      "name": "MAX_TOTAL_WEIGHT",
      "outputs": [
        {
          "name": "",
          "type": "uint256"
        }
      ],
      "payable": false,
      "stateMutability": "view",
      "type": "function"
    },
    {
      "constant": true,
      "inputs": [
        {
          "name": "tokenBalanceIn",
          "type": "uint256"
        },
        {
          "name": "tokenWeightIn",
          "type": "uint256"
        },
        {
          "name": "tokenBalanceOut",
          "type": "uint256"
        },
        {
          "name": "tokenWeightOut",
          "type": "uint256"
        },
        {
          "name": "tokenAmountIn",
          "type": "uint256"
        }
      ],
      "name": "calcOutGivenIn",
      "outputs": [
        {
          "name": "tokenAmountOut",
          "type": "uint256"
        }
      ],
      "payable": false,
      "stateMutability": "view",
      "type": "function"
    },
    {
      "constant": true,
      "inputs": [],
      "name": "BPOW_PRECISION",
      "outputs": [
        {
          "name": "",
          "type": "uint256"
        }
      ],
      "payable": false,
      "stateMutability": "view",
      "type": "function"
    },
    {
      "constant": true,
      "inputs": [],
      "name": "MIN_WEIGHT",
      "outputs": [
        {
          "name": "",
          "type": "uint256"
        }
      ],
      "payable": false,
      "stateMutability": "view",
      "type": "function"
    },
    {
      "constant": true,
      "inputs": [
        {
          "name": "",
          "type": "address"
        }
      ],
      "name": "communityFees",
      "outputs": [
        {
          "name": "",
          "type": "uint256"
        }
      ],
      "payable": false,
      "stateMutability": "view",
      "type": "function"
    },
    {
      "constant": true,
      "inputs": [
        {
          "name": "",
          "type": "address"
        }
      ],
      "name": "marketFees",
      "outputs": [
        {
          "name": "",
          "type": "uint256"
        }
      ],
      "payable": false,
      "stateMutability": "view",
      "type": "function"
    },
    {
      "constant": true,
      "inputs": [],
      "name": "_swapMarketFee",
      "outputs": [
        {
          "name": "",
          "type": "uint256"
        }
      ],
      "payable": false,
      "stateMutability": "view",
      "type": "function"
    },
    {
      "constant": true,
      "inputs": [
        {
          "name": "tokenBalanceIn",
          "type": "uint256"
        },
        {
          "name": "tokenWeightIn",
          "type": "uint256"
        },
        {
          "name": "tokenBalanceOut",
          "type": "uint256"
        },
        {
          "name": "tokenWeightOut",
          "type": "uint256"
        }
      ],
      "name": "calcSpotPrice",
      "outputs": [
        {
          "name": "spotPrice",
          "type": "uint256"
        }
      ],
      "payable": false,
      "stateMutability": "view",
      "type": "function"
    },
    {
      "constant": true,
      "inputs": [
        {
          "name": "tokenBalanceIn",
          "type": "uint256"
        },
        {
          "name": "tokenWeightIn",
          "type": "uint256"
        },
        {
          "name": "poolSupply",
          "type": "uint256"
        },
        {
          "name": "totalWeight",
          "type": "uint256"
        },
        {
          "name": "poolAmountOut",
          "type": "uint256"
        }
      ],
      "name": "calcSingleInGivenPoolOut",
      "outputs": [
        {
          "name": "tokenAmountIn",
          "type": "uint256"
        }
      ],
      "payable": false,
      "stateMutability": "view",
      "type": "function"
    },
    {
      "constant": true,
      "inputs": [],
      "name": "MIN_FEE",
      "outputs": [
        {
          "name": "",
          "type": "uint256"
        }
      ],
      "payable": false,
      "stateMutability": "view",
      "type": "function"
    },
    {
      "constant": true,
      "inputs": [
        {
          "name": "",
          "type": "address"
        }
      ],
      "name": "feesCollectedOPF",
      "outputs": [
        {
          "name": "",
          "type": "uint256"
        }
      ],
      "payable": false,
      "stateMutability": "view",
      "type": "function"
    },
    {
      "constant": true,
      "inputs": [],
      "name": "MIN_BALANCE",
      "outputs": [
        {
          "name": "",
          "type": "uint256"
        }
      ],
      "payable": false,
      "stateMutability": "view",
      "type": "function"
    },
    {
      "constant": true,
      "inputs": [],
      "name": "INIT_POOL_SUPPLY",
      "outputs": [
        {
          "name": "",
          "type": "uint256"
        }
      ],
      "payable": false,
      "stateMutability": "view",
      "type": "function"
    },
    {
      "constant": true,
      "inputs": [],
      "name": "MAX_OUT_RATIO",
      "outputs": [
        {
          "name": "",
          "type": "uint256"
        }
      ],
      "payable": false,
      "stateMutability": "view",
      "type": "function"
    },
    {
      "constant": true,
      "inputs": [
        {
          "name": "tokenBalanceOut",
          "type": "uint256"
        },
        {
          "name": "tokenWeightOut",
          "type": "uint256"
        },
        {
          "name": "poolSupply",
          "type": "uint256"
        },
        {
          "name": "totalWeight",
          "type": "uint256"
        },
        {
          "name": "tokenAmountOut",
          "type": "uint256"
        }
      ],
      "name": "calcPoolInGivenSingleOut",
      "outputs": [
        {
          "name": "poolAmountIn",
          "type": "uint256"
        }
      ],
      "payable": false,
      "stateMutability": "view",
      "type": "function"
    },
    {
      "constant": true,
      "inputs": [],
      "name": "MAX_BOUND_TOKENS",
      "outputs": [
        {
          "name": "",
          "type": "uint256"
        }
      ],
      "payable": false,
      "stateMutability": "view",
      "type": "function"
    },
    {
      "constant": true,
      "inputs": [
        {
          "name": "tokenBalanceIn",
          "type": "uint256"
        },
        {
          "name": "tokenWeightIn",
          "type": "uint256"
        },
        {
          "name": "poolSupply",
          "type": "uint256"
        },
        {
          "name": "totalWeight",
          "type": "uint256"
        },
        {
          "name": "tokenAmountIn",
          "type": "uint256"
        }
      ],
      "name": "calcPoolOutGivenSingleIn",
      "outputs": [
        {
          "name": "poolAmountOut",
          "type": "uint256"
        }
      ],
      "payable": false,
      "stateMutability": "view",
      "type": "function"
    },
    {
      "constant": true,
      "inputs": [],
      "name": "MIN_BOUND_TOKENS",
      "outputs": [
        {
          "name": "",
          "type": "uint256"
        }
      ],
      "payable": false,
      "stateMutability": "view",
      "type": "function"
    },
    {
      "constant": true,
      "inputs": [],
      "name": "_swapOceanFee",
      "outputs": [
        {
          "name": "",
          "type": "uint256"
        }
      ],
      "payable": false,
      "stateMutability": "view",
      "type": "function"
    },
    {
      "constant": true,
      "inputs": [],
      "name": "MIN_BPOW_BASE",
      "outputs": [
        {
          "name": "",
          "type": "uint256"
        }
      ],
      "payable": false,
      "stateMutability": "view",
      "type": "function"
    },
    {
      "constant": true,
      "inputs": [],
      "name": "MAX_FEE",
      "outputs": [
        {
          "name": "",
          "type": "uint256"
        }
      ],
      "payable": false,
      "stateMutability": "view",
      "type": "function"
    },
    {
      "constant": true,
      "inputs": [],
      "name": "MAX_BPOW_BASE",
      "outputs": [
        {
          "name": "",
          "type": "uint256"
        }
      ],
      "payable": false,
      "stateMutability": "view",
      "type": "function"
    },
    {
      "constant": true,
      "inputs": [],
      "name": "BONE",
      "outputs": [
        {
          "name": "",
          "type": "uint256"
        }
      ],
      "payable": false,
      "stateMutability": "view",
      "type": "function"
    },
    {
      "constant": true,
      "inputs": [],
      "name": "EXIT_FEE",
      "outputs": [
        {
          "name": "",
          "type": "uint256"
        }
      ],
      "payable": false,
      "stateMutability": "view",
      "type": "function"
    },
    {
      "constant": true,
      "inputs": [
        {
          "name": "tokenBalanceIn",
          "type": "uint256"
        },
        {
          "name": "tokenWeightIn",
          "type": "uint256"
        },
        {
          "name": "tokenBalanceOut",
          "type": "uint256"
        },
        {
          "name": "tokenWeightOut",
          "type": "uint256"
        },
        {
          "name": "tokenAmountOut",
          "type": "uint256"
        }
      ],
      "name": "calcInGivenOut",
      "outputs": [
        {
          "name": "tokenAmountIn",
          "type": "uint256"
        }
      ],
      "payable": false,
      "stateMutability": "view",
      "type": "function"
    },
    {
      "constant": true,
      "inputs": [],
      "name": "MAX_WEIGHT",
      "outputs": [
        {
          "name": "",
          "type": "uint256"
        }
      ],
      "payable": false,
      "stateMutability": "view",
      "type": "function"
    },
    {
      "constant": true,
      "inputs": [],
      "name": "MAX_IN_RATIO",
      "outputs": [
        {
          "name": "",
          "type": "uint256"
        }
      ],
      "payable": false,
      "stateMutability": "view",
      "type": "function"
    },
    {
      "constant": true,
      "inputs": [
        {
          "name": "tokenBalanceOut",
          "type": "uint256"
        },
        {
          "name": "tokenWeightOut",
          "type": "uint256"
        },
        {
          "name": "poolSupply",
          "type": "uint256"
        },
        {
          "name": "totalWeight",
          "type": "uint256"
        },
        {
          "name": "poolAmountIn",
          "type": "uint256"
        }
      ],
      "name": "calcSingleOutGivenPoolIn",
      "outputs": [
        {
          "name": "tokenAmountOut",
          "type": "uint256"
        }
      ],
      "payable": false,
      "stateMutability": "view",
      "type": "function"
    },
    {
      "constant": true,
      "inputs": [
        {
          "name": "",
          "type": "address"
        }
      ],
      "name": "feesCollectedMarket",
      "outputs": [
        {
          "name": "",
          "type": "uint256"
        }
      ],
      "payable": false,
      "stateMutability": "view",
      "type": "function"
    }
  ],
  "bytecode": "0x608060405234801561001057600080fd5b50610f79806100206000396000f3fe608060405234801561001057600080fd5b50600436106101cf5760003560e01c8063a33adccb11610104578063bc694ea2116100a2578063e4a28a5211610071578063e4a28a52146101d4578063ec09302114610408578063ee53a6cd14610410578063f542f6cf14610445576101cf565b8063bc694ea2146103c3578063c36596a61461022b578063c6580d12146103cb578063d5905100146103d3576101cf565b8063b7b800a4116100de578063b7b800a4146103a3578063b80483b0146103ab578063ba019dab146103b3578063bc063e1a146103bb576101cf565b8063a33adccb14610331578063b0e0d13614610366578063b4ddf2511461036e576101cf565b80635d14552a116101715780637c6e92c21161014b5780637c6e92c2146102f3578063867378c5146103195780639381cd2b14610321578063992e2a9214610329576101cf565b80635d14552a146102875780636c2749c7146102b657806376c7a3c7146102eb576101cf565b8063218b5382116101ad578063218b53821461022b578063300621921461023357806331e2761b1461025957806349e9350f1461027f576101cf565b806309a3bbe4146101d45780630c78bb4e146101ee578063189d00ca14610223575b600080fd5b6101dc61046b565b60408051918252519081900360200190f35b6101dc600480360360a081101561020457600080fd5b5080359060208101359060408101359060608101359060800135610478565b6101dc610544565b6101dc610558565b6101dc6004803603602081101561024957600080fd5b50356001600160a01b0316610564565b6101dc6004803603602081101561026f57600080fd5b50356001600160a01b0316610576565b6101dc610588565b6101dc6004803603608081101561029d57600080fd5b508035906020810135906040810135906060013561058e565b6101dc600480360360a08110156102cc57600080fd5b5080359060208101359060408101359060608101359060800135610601565b6101dc6106a3565b6101dc6004803603602081101561030957600080fd5b50356001600160a01b03166106b5565b6101dc6106c7565b6101dc6106db565b6101dc6106e8565b6101dc600480360360a081101561034757600080fd5b50803590602081013590604081013590606081013590608001356106f4565b6101dc6107b3565b6101dc600480360360a081101561038457600080fd5b50803590602081013590604081013590606081013590608001356107b8565b6101dc61084d565b6101dc610852565b6101dc610858565b6101dc61085d565b6101dc61086d565b6101dc610879565b6101dc600480360360a08110156103e957600080fd5b508035906020810135906040810135906060810135906080013561087e565b6101dc6108f4565b6101dc600480360360a081101561042657600080fd5b5080359060208101359060408101359060608101359060800135610904565b6101dc6004803603602081101561045b57600080fd5b50356001600160a01b03166109b4565b6802b5e3af16b188000081565b60008061048586856109c6565b9050600061049d670de0b6b3a7640000600254610afb565b90506104a98482610b6c565b905060006104ca856104c5670de0b6b3a7640000600054610afb565b610b6c565b905060006104e6866104c5670de0b6b3a7640000600154610afb565b9050828201810160006105028c6104fd8185610c3a565b6109c6565b905060006105108288610c9e565b90506000610526670de0b6b3a764000083610afb565b90506105328c82610b6c565b9e9d5050505050505050505050505050565b6402540be400670de0b6b3a76400005b0481565b670de0b6b3a764000081565b60036020526000908152604090205481565b60056020526000908152604090205481565b60015481565b60008061059b86866109c6565b905060006105a985856109c6565b905060006105b783836109c6565b9050600080546001546002540101905060006105e7670de0b6b3a76400006104fd670de0b6b3a764000085610afb565b90506105f38382610b6c565b9a9950505050505050505050565b60008061060e86856109c6565b9050600061061c8685610c3a565b9050600061062a82886109c6565b90506000610640670de0b6b3a7640000856109c6565b9050600061064e8383610c9e565b9050600061065c828d610b6c565b9050600061066a828e610afb565b9050600061068b610683670de0b6b3a76400008a610afb565b600254610b6c565b9050610532826104fd670de0b6b3a764000084610afb565b620f4240670de0b6b3a7640000610554565b60046020526000908152604090205481565b64e8d4a51000670de0b6b3a7640000610554565b68056bc75e2d6310000081565b6704a03ce68d21555681565b60008061070186856109c6565b90506000610717670de0b6b3a764000083610afb565b9050600061072782600254610b6c565b90506000610741866104fd670de0b6b3a764000085610afb565b9050600061074f8b83610afb565b9050600061075d828d6109c6565b9050600061076b8288610c9e565b90506000610779828d610b6c565b905060006107878d83610afb565b90506107a0816104fd670de0b6b3a76400006000610afb565b9f9e505050505050505050505050505050565b600881565b6000806107c586856109c6565b905060006107de610683670de0b6b3a764000084610afb565b905060006107f8856104c5670de0b6b3a764000085610afb565b905060006108068a83610c3a565b90506000610814828c6109c6565b905060006108228287610c9e565b90506000610830828c610b6c565b905061083c818c610afb565b9d9c50505050505050505050505050565b600281565b60005481565b600181565b600a670de0b6b3a7640000610554565b671bc16d674ec7ffff81565b600081565b60008061088b84876109c6565b905060006108998685610afb565b905060006108a787836109c6565b905060006108b58285610c9e565b90506108c981670de0b6b3a7640000610afb565b90506108df670de0b6b3a7640000600254610afb565b94506105f36108ee8b83610b6c565b866109c6565b6002670de0b6b3a7640000610554565b60008061091186856109c6565b9050600061092c846104c5670de0b6b3a76400006000610afb565b9050600061093a8783610afb565b9050600061094882896109c6565b9050600061096782610962670de0b6b3a7640000886109c6565b610c9e565b90506000610975828d610b6c565b905060006109838d83610afb565b9050600061099c610683670de0b6b3a76400008a610afb565b9050610532826104c5670de0b6b3a764000084610afb565b60066020526000908152604090205481565b600081610a1d5760408051600160e51b62461bcd02815260206004820152600c60248201527f4552525f4449565f5a45524f0000000000000000000000000000000000000000604482015290519081900360640190fd5b670de0b6b3a76400008302831580610a455750670de0b6b3a7640000848281610a4257fe5b04145b610a8f5760408051600160e51b62461bcd0281526020600482015260106024820152600160821b6f11549497d1125597d25395115493905302604482015290519081900360640190fd5b60028304810181811015610ae35760408051600160e51b62461bcd0281526020600482015260106024820152600160821b6f11549497d1125597d25395115493905302604482015290519081900360640190fd5b6000848281610aee57fe5b0493505050505b92915050565b6000806000610b0a8585610dc1565b915091508015610b645760408051600160e51b62461bcd02815260206004820152601160248201527f4552525f5355425f554e444552464c4f57000000000000000000000000000000604482015290519081900360640190fd5b509392505050565b6000828202831580610b86575082848281610b8357fe5b04145b610bd05760408051600160e51b62461bcd0281526020600482015260106024820152600160801b6f4552525f4d554c5f4f564552464c4f5702604482015290519081900360640190fd5b6706f05b59d3b20000810181811015610c295760408051600160e51b62461bcd0281526020600482015260106024820152600160801b6f4552525f4d554c5f4f564552464c4f5702604482015290519081900360640190fd5b6000670de0b6b3a764000082610aee565b600082820183811015610c975760408051600160e51b62461bcd02815260206004820152601060248201527f4552525f4144445f4f564552464c4f5700000000000000000000000000000000604482015290519081900360640190fd5b9392505050565b60006001831015610cf95760408051600160e51b62461bcd02815260206004820152601560248201527f4552525f42504f575f424153455f544f4f5f4c4f570000000000000000000000604482015290519081900360640190fd5b671bc16d674ec7ffff831115610d595760408051600160e51b62461bcd02815260206004820152601660248201527f4552525f42504f575f424153455f544f4f5f4849474800000000000000000000604482015290519081900360640190fd5b6000610d6483610de6565b90506000610d728483610afb565b90506000610d8886610d8385610e01565b610e0f565b905081610d99579250610af5915050565b6000610daa87846305f5e100610e6f565b9050610db68282610b6c565b979650505050505050565b600080828410610dd75750508082036000610ddf565b505081810360015b9250929050565b6000670de0b6b3a7640000610dfa83610e01565b0292915050565b670de0b6b3a7640000900490565b6000828160028406610e2957670de0b6b3a7640000610e2b565b815b90506002840493505b8315610e6757610e448283610b6c565b91506002840615610e5c57610e598183610b6c565b90505b600284049350610e34565b949350505050565b6000828180610e8687670de0b6b3a7640000610dc1565b9092509050670de0b6b3a764000080600060015b888410610f3e576000670de0b6b3a764000082029050600080610ece8a610ec985670de0b6b3a7640000610afb565b610dc1565b91509150610ee0876104c5848c610b6c565b9650610eec87846109c6565b965086610efb57505050610f3e565b8715610f05579315935b8015610f0f579315935b8415610f2657610f1f8688610afb565b9550610f33565b610f308688610c3a565b95505b505050600101610e9a565b5090999850505050505050505056fea165627a7a72305820dc6f141760920132f7c794bdece2004e7ed8496376fd90e0572b7a2c80017e470029",
  "linkReferences": {},
  "deployedLinkReferences": {}
}