{
  "_format": "hh-sol-artifact-1",
  "contractName": "ssFixedRateV2",
  "sourceName": "contracts/ssContracts/ssFixedRateV2.sol",
  "abi": [
    {
      "inputs": [],
      "stateMutability": "nonpayable",
      "type": "constructor"
    },
    {
      "inputs": [
        {
          "internalType": "address",
          "name": "datatokenAddress",
          "type": "address"
        },
        {
          "internalType": "address",
          "name": "stakeToken",
          "type": "address"
        },
        {
          "internalType": "uint256",
          "name": "amount",
          "type": "uint256"
        }
      ],
      "name": "Stake",
      "outputs": [],
      "stateMutability": "nonpayable",
      "type": "function"
    },
    {
      "inputs": [
        {
          "internalType": "address",
          "name": "datatokenAddress",
          "type": "address"
        },
        {
          "internalType": "address",
          "name": "stakeToken",
          "type": "address"
        },
        {
          "internalType": "uint256",
          "name": "amount",
          "type": "uint256"
        }
      ],
      "name": "UnStake",
      "outputs": [],
      "stateMutability": "nonpayable",
      "type": "function"
    },
    {
      "inputs": [
        {
          "internalType": "address",
          "name": "datatokenAddress",
          "type": "address"
        },
        {
          "internalType": "address",
          "name": "basetoken",
          "type": "address"
        },
        {
          "internalType": "uint256",
          "name": "datatokenAmount",
          "type": "uint256"
        },
        {
          "internalType": "uint256",
          "name": "basetokenAmount",
          "type": "uint256"
        },
        {
          "internalType": "address",
          "name": "userAddress",
          "type": "address"
        }
      ],
      "name": "allowStake",
      "outputs": [
        {
          "internalType": "bool",
          "name": "",
          "type": "bool"
        }
      ],
      "stateMutability": "view",
      "type": "function"
    },
    {
      "inputs": [
        {
          "internalType": "address",
          "name": "datatokenAddress",
          "type": "address"
        },
        {
          "internalType": "address",
          "name": "basetoken",
          "type": "address"
        },
        {
          "internalType": "uint256",
          "name": "datatokenAmount",
          "type": "uint256"
        },
        {
          "internalType": "uint256",
          "name": "basetokenAmount",
          "type": "uint256"
        },
        {
          "internalType": "address",
          "name": "userAddress",
          "type": "address"
        }
      ],
      "name": "allowUnStake",
      "outputs": [
        {
          "internalType": "bool",
          "name": "",
          "type": "bool"
        }
      ],
      "stateMutability": "view",
      "type": "function"
    },
    {
      "inputs": [
        {
          "internalType": "address",
          "name": "datatokenAddress",
          "type": "address"
        },
        {
          "internalType": "address",
          "name": "tokenIn",
          "type": "address"
        },
        {
          "internalType": "address",
          "name": "tokenOut",
          "type": "address"
        },
        {
          "internalType": "uint256",
          "name": "tokenAmountOut",
          "type": "uint256"
        }
      ],
      "name": "calcInGivenOut",
      "outputs": [
        {
          "internalType": "uint256",
          "name": "",
          "type": "uint256"
        }
      ],
      "stateMutability": "view",
      "type": "function"
    },
    {
      "inputs": [
        {
          "internalType": "address",
          "name": "datatokenAddress",
          "type": "address"
        },
        {
          "internalType": "address",
          "name": "tokenIn",
          "type": "address"
        },
        {
          "internalType": "address",
          "name": "tokenOut",
          "type": "address"
        },
        {
          "internalType": "uint256",
          "name": "tokenAmountIn",
          "type": "uint256"
        }
      ],
      "name": "calcOutGivenIn",
      "outputs": [
        {
          "internalType": "uint256",
          "name": "",
          "type": "uint256"
        }
      ],
      "stateMutability": "view",
      "type": "function"
    },
    {
      "inputs": [
        {
          "internalType": "address",
          "name": "datatokenAddress",
          "type": "address"
        },
        {
          "internalType": "address",
          "name": "stakeToken",
          "type": "address"
        },
        {
          "internalType": "uint256",
          "name": "amount",
          "type": "uint256"
        }
      ],
      "name": "canStake",
      "outputs": [
        {
          "internalType": "bool",
          "name": "",
          "type": "bool"
        }
      ],
      "stateMutability": "view",
      "type": "function"
    },
    {
      "inputs": [
        {
          "internalType": "address",
          "name": "datatokenAddress",
          "type": "address"
        },
        {
          "internalType": "address",
          "name": "stakeToken",
          "type": "address"
        },
        {
          "internalType": "uint256",
          "name": "amount",
          "type": "uint256"
        }
      ],
      "name": "canUnStake",
      "outputs": [
        {
          "internalType": "bool",
          "name": "",
          "type": "bool"
        }
      ],
      "stateMutability": "view",
      "type": "function"
    },
    {
      "inputs": [
        {
          "internalType": "address",
          "name": "datatokenAddress",
          "type": "address"
        }
      ],
      "name": "getBaseTokenAddress",
      "outputs": [
        {
          "internalType": "address",
          "name": "",
          "type": "address"
        }
      ],
      "stateMutability": "view",
      "type": "function"
    },
    {
      "inputs": [
        {
          "internalType": "address",
          "name": "datatokenAddress",
          "type": "address"
        }
      ],
      "name": "getBaseTokenBalance",
      "outputs": [
        {
          "internalType": "uint256",
          "name": "",
          "type": "uint256"
        }
      ],
      "stateMutability": "view",
      "type": "function"
    },
    {
      "inputs": [
        {
          "internalType": "address",
          "name": "poolAddress",
          "type": "address"
        }
      ],
      "name": "getDTAddress",
      "outputs": [
        {
          "internalType": "address",
          "name": "",
          "type": "address"
        }
      ],
      "stateMutability": "view",
      "type": "function"
    },
    {
      "inputs": [
        {
          "internalType": "address",
          "name": "datatokenAddress",
          "type": "address"
        }
      ],
      "name": "getDataTokenBalance",
      "outputs": [
        {
          "internalType": "uint256",
          "name": "",
          "type": "uint256"
        }
      ],
      "stateMutability": "view",
      "type": "function"
    },
    {
      "inputs": [
        {
          "internalType": "address",
          "name": "datatokenAddress",
          "type": "address"
        }
      ],
      "name": "getDataTokenCirculatingSupply",
      "outputs": [
        {
          "internalType": "uint256",
          "name": "",
          "type": "uint256"
        }
      ],
      "stateMutability": "view",
      "type": "function"
    },
    {
      "inputs": [
        {
          "internalType": "address",
          "name": "datatokenAddress",
          "type": "address"
        }
      ],
      "name": "getPoolAddress",
      "outputs": [
        {
          "internalType": "address",
          "name": "",
          "type": "address"
        }
      ],
      "stateMutability": "view",
      "type": "function"
    },
    {
      "inputs": [
        {
          "internalType": "address",
          "name": "datatokenAddress",
          "type": "address"
        }
      ],
      "name": "getPublisherAddress",
      "outputs": [
        {
          "internalType": "address",
          "name": "",
          "type": "address"
        }
      ],
      "stateMutability": "view",
      "type": "function"
    },
    {
      "inputs": [
        {
          "internalType": "address",
          "name": "datatokenAddress",
          "type": "address"
        }
      ],
      "name": "getVesting",
      "outputs": [],
      "stateMutability": "nonpayable",
      "type": "function"
    },
    {
      "inputs": [
        {
          "internalType": "address",
          "name": "datatokenAddress",
          "type": "address"
        }
      ],
      "name": "getburnInEndBlock",
      "outputs": [
        {
          "internalType": "uint256",
          "name": "",
          "type": "uint256"
        }
      ],
      "stateMutability": "view",
      "type": "function"
    },
    {
      "inputs": [
        {
          "internalType": "address",
          "name": "datatokenAddress",
          "type": "address"
        }
      ],
      "name": "getvestingAmount",
      "outputs": [
        {
          "internalType": "uint256",
          "name": "",
          "type": "uint256"
        }
      ],
      "stateMutability": "view",
      "type": "function"
    },
    {
      "inputs": [
        {
          "internalType": "address",
          "name": "datatokenAddress",
          "type": "address"
        }
      ],
      "name": "getvestingAmountSoFar",
      "outputs": [
        {
          "internalType": "uint256",
          "name": "",
          "type": "uint256"
        }
      ],
      "stateMutability": "view",
      "type": "function"
    },
    {
      "inputs": [
        {
          "internalType": "address",
          "name": "datatokenAddress",
          "type": "address"
        }
      ],
      "name": "getvestingEndBlock",
      "outputs": [
        {
          "internalType": "uint256",
          "name": "",
          "type": "uint256"
        }
      ],
      "stateMutability": "view",
      "type": "function"
    },
    {
      "inputs": [
        {
          "internalType": "address",
          "name": "datatokenAddress",
          "type": "address"
        }
      ],
      "name": "getvestingLastBlock",
      "outputs": [
        {
          "internalType": "uint256",
          "name": "",
          "type": "uint256"
        }
      ],
      "stateMutability": "view",
      "type": "function"
    },
    {
      "inputs": [
        {
          "internalType": "address",
          "name": "datatokenAddress",
          "type": "address"
        }
      ],
      "name": "isInBurnIn",
      "outputs": [
        {
          "internalType": "bool",
          "name": "",
          "type": "bool"
        }
      ],
      "stateMutability": "view",
      "type": "function"
    },
    {
      "inputs": [
        {
          "internalType": "address",
          "name": "datatokenAddress",
          "type": "address"
        },
        {
          "internalType": "address",
          "name": "basetokenAddress",
          "type": "address"
        },
        {
          "internalType": "address",
          "name": "poolAddress",
          "type": "address"
        },
        {
          "internalType": "address",
          "name": "publisherAddress",
          "type": "address"
        },
        {
          "internalType": "uint256",
          "name": "burnInEndBlock",
          "type": "uint256"
        },
        {
          "internalType": "uint256[]",
          "name": "ssParams",
          "type": "uint256[]"
        }
      ],
      "name": "newDataTokenCreated",
      "outputs": [
        {
          "internalType": "bool",
          "name": "",
          "type": "bool"
        }
      ],
      "stateMutability": "nonpayable",
      "type": "function"
    },
    {
      "inputs": [
        {
          "internalType": "address",
          "name": "datatokenAddress",
          "type": "address"
        }
      ],
      "name": "notifyFinalize",
      "outputs": [],
      "stateMutability": "nonpayable",
      "type": "function"
    },
    {
      "inputs": [
        {
          "internalType": "bytes32",
          "name": "poolId",
          "type": "bytes32"
        },
        {
          "internalType": "contract IERC20[]",
          "name": "tokens",
          "type": "address[]"
        },
        {
          "internalType": "uint256[]",
          "name": "maxAmountsIn",
          "type": "uint256[]"
        },
        {
          "internalType": "bytes",
          "name": "userDataStake",
          "type": "bytes"
        },
        {
          "internalType": "uint256",
          "name": "amountInDT",
          "type": "uint256"
        }
      ],
      "name": "stake",
      "outputs": [
        {
          "internalType": "bool",
          "name": "",
          "type": "bool"
        }
      ],
      "stateMutability": "nonpayable",
      "type": "function"
    },
    {
      "inputs": [
        {
          "internalType": "address",
          "name": "datatokenAddress",
          "type": "address"
        },
        {
          "internalType": "address",
          "name": "userAddress",
          "type": "address"
        },
        {
          "internalType": "address",
          "name": "tokenIn",
          "type": "address"
        },
        {
          "internalType": "uint256",
          "name": "tokenAmountIn",
          "type": "uint256"
        },
        {
          "internalType": "address",
          "name": "tokenOut",
          "type": "address"
        },
        {
          "internalType": "uint256",
          "name": "minAmountOut",
          "type": "uint256"
        }
      ],
      "name": "swapExactAmountIn",
      "outputs": [
        {
          "internalType": "uint256",
          "name": "tokenAmountOut",
          "type": "uint256"
        }
      ],
      "stateMutability": "nonpayable",
      "type": "function"
    },
    {
      "inputs": [
        {
          "internalType": "address",
          "name": "datatokenAddress",
          "type": "address"
        },
        {
          "internalType": "address",
          "name": "userAddress",
          "type": "address"
        },
        {
          "internalType": "address",
          "name": "tokenIn",
          "type": "address"
        },
        {
          "internalType": "uint256",
          "name": "maxTokenAmountIn",
          "type": "uint256"
        },
        {
          "internalType": "address",
          "name": "tokenOut",
          "type": "address"
        },
        {
          "internalType": "uint256",
          "name": "amountOut",
          "type": "uint256"
        }
      ],
      "name": "swapExactAmountOut",
      "outputs": [
        {
          "internalType": "uint256",
          "name": "tokenAmountIn",
          "type": "uint256"
        }
      ],
      "stateMutability": "nonpayable",
      "type": "function"
    }
  ],
  "bytecode": "0x6080604052600280546001600160a01b03191673ba12222222228d8ba445958a75a0704d566bf2c817905534801561003657600080fd5b50612f13806100466000396000f3fe608060405234801561001057600080fd5b50600436106101a95760003560e01c806399039fcf116100f9578063cf268dea11610097578063f03cd39611610071578063f03cd39614610382578063f09a9c0514610395578063fa93fd6d146103a8578063fc943920146103bb576101a9565b8063cf268dea14610349578063e0b663c81461035c578063efd481031461036f576101a9565b8063c1b4904d116100d3578063c1b4904d146102fd578063c4be249014610310578063cc49ede714610323578063ccda98c714610336576101a9565b806399039fcf146102c2578063bccf74fe146102d7578063bee3913d146102ea576101a9565b806330c1570111610166578063799ece8511610140578063799ece85146102895780637eaf89011461020a57806388afadce1461029c57806392f6cb67146102af576101a9565b806330c15701146102505780633e6d363f146102635780634f3e66dc14610276576101a9565b80630734b5b1146101ae5780631228cbee146101d75780631f16cde6146101f757806324571dd71461020a5780632686375b1461021d57806326b1f01f1461023d575b600080fd5b6101c16101bc36600461263e565b6103ce565b6040516101ce9190612aa6565b60405180910390f35b6101ea6101e536600461263e565b61042f565b6040516101ce9190612a1b565b6101ea61020536600461263e565b61047f565b6101c1610218366004612803565b6104d3565b61023061022b36600461263e565b61056e565b6040516101ce9190612dbc565b6101c161024b3660046127c3565b6105ba565b61023061025e366004612754565b610751565b610230610271366004612754565b610a32565b6101c1610284366004612676565b610cb4565b61023061029736600461263e565b61156e565b6102306102aa36600461263e565b6115ba565b6102306102bd366004612704565b61161a565b6102d56102d03660046127c3565b61165d565b005b6102306102e536600461263e565b6117b3565b6102306102f8366004612704565b6117ff565b61023061030b36600461263e565b611837565b61023061031e36600461263e565b611883565b6102d561033136600461263e565b6118cf565b6101c1610344366004612881565b611b21565b6102d56103573660046127c3565b611d57565b6101ea61036a36600461263e565b611e14565b6101c161037d3660046127c3565b611e32565b61023061039036600461263e565b611ed8565b6102306103a336600461263e565b611f24565b6101ea6103b636600461263e565b611f70565b6102d56103c936600461263e565b611fc1565b6001600160a01b038116600090815260016020819052604082205460ff161515146103fb5750600061042a565b6001600160a01b0382166000908152600160205260409020600601544311156104265750600061042a565b5060015b919050565b6001600160a01b038116600090815260016020819052604082205460ff1615151461045c5750600061042a565b506001600160a01b03908116600090815260016020819052604090912001541690565b6001600160a01b038116600090815260016020819052604082205460ff161515146104ac5750600061042a565b506001600160a01b0390811660009081526001602052604090206008015461010090041690565b6001600160a01b038516600090815260016020819052604082205460ff1615151461050057506000610565565b6001600160a01b03868116600090815260016020819052604090912001541633146105465760405162461bcd60e51b815260040161053d90612c9f565b60405180910390fd5b61054f866103ce565b15156001141561056157506000610565565b5060015b95945050505050565b6001600160a01b038116600090815260016020819052604082205460ff1615151461059b5750600061042a565b506001600160a01b03166000908152600160205260409020600b015490565b6001600160a01b038316600090815260016020819052604082205460ff161515146105e75750600061074a565b6001600160a01b03848116600090815260016020819052604090912001541633146106245760405162461bcd60e51b815260040161053d90612c9f565b6001600160a01b03841660009081526001602081905260409091205460ff161515146106525750600061074a565b6001600160a01b038481166000908152600160205260409020546101009004811690841614156106845750600061074a565b6040516370a0823160e01b815284906000906001600160a01b038316906370a08231906106b5903090600401612a1b565b60206040518083038186803b1580156106cd57600080fd5b505afa1580156106e1573d6000803e3d6000fd5b505050506040513d601f19601f820116820180604052508101906107059190612978565b6001600160a01b03871660009081526001602052604090206002015490915084118015906107335750838110155b156107435760019250505061074a565b6000925050505b9392505050565b6001600160a01b038616600090815260016020819052604082205460ff1615151461078e5760405162461bcd60e51b815260040161053d90612b79565b6001600160a01b03878116600090815260016020819052604090912001541633146107cb5760405162461bcd60e51b815260040161053d90612c9f565b6107d4876103ce565b15156001146107f55760405162461bcd60e51b815260040161053d90612c68565b610801878685856117ff565b9050838111156108235760405162461bcd60e51b815260040161053d90612bcd565b6001600160a01b03878116600090815260016020819052604091829020015490516323b872dd60e01b81528792808416926323b872dd9261086f92919091169030908790600401612a2f565b602060405180830381600087803b15801561088957600080fd5b505af115801561089d573d6000803e3d6000fd5b505050506040513d601f19601f820116820180604052508101906108c19190612861565b50876001600160a01b0316866001600160a01b03161415610942576001600160a01b03881660009081526001602052604081206004018054859290610907908490612e13565b90915550506001600160a01b03881660009081526001602052604081206002018054849290610937908490612e13565b909155506109a39050565b6001600160a01b0388166000908152600160205260408120600201805485929061096d908490612e13565b90915550506001600160a01b0388166000908152600160205260408120600401805484929061099d908490612e13565b90915550505b60405163a9059cbb60e01b815284906001600160a01b0382169063a9059cbb906109d3908b908890600401612a53565b602060405180830381600087803b1580156109ed57600080fd5b505af1158015610a01573d6000803e3d6000fd5b505050506040513d601f19601f82011682018060405250810190610a259190612861565b5050509695505050505050565b6001600160a01b038616600090815260016020819052604082205460ff16151514610a6f5760405162461bcd60e51b815260040161053d90612b79565b6001600160a01b0387811660009081526001602081905260409091200154163314610aac5760405162461bcd60e51b815260040161053d90612c9f565b610ab5876103ce565b1515600114610ad65760405162461bcd60e51b815260040161053d90612c68565b610ae28786858761161a565b905081811015610b045760405162461bcd60e51b815260040161053d90612d85565b6001600160a01b03878116600090815260016020819052604091829020015490516323b872dd60e01b81528792808416926323b872dd92610b5092919091169030908a90600401612a2f565b602060405180830381600087803b158015610b6a57600080fd5b505af1158015610b7e573d6000803e3d6000fd5b505050506040513d601f19601f82011682018060405250810190610ba29190612861565b50876001600160a01b0316866001600160a01b03161415610c23576001600160a01b03881660009081526001602052604081206004018054849290610be8908490612e13565b90915550506001600160a01b03881660009081526001602052604081206002018054879290610c18908490612e13565b90915550610c849050565b6001600160a01b03881660009081526001602052604081206002018054849290610c4e908490612e13565b90915550506001600160a01b03881660009081526001602052604081206004018054879290610c7e908490612e13565b90915550505b60405163a9059cbb60e01b815284906001600160a01b0382169063a9059cbb906109d3908b908790600401612a53565b60006001600160a01b038516610cdc5760405162461bcd60e51b815260040161053d90612c3b565b6000859050306001600160a01b0316816001600160a01b0316633018205f6040518163ffffffff1660e01b815260040160206040518083038186803b158015610d2457600080fd5b505afa158015610d38573d6000803e3d6000fd5b505050506040513d601f19601f82011682018060405250810190610d5c919061265a565b6001600160a01b031614610d825760405162461bcd60e51b815260040161053d90612c04565b876001600160a01b0316816001600160a01b03166304ad79546040518163ffffffff1660e01b815260040160206040518083038186803b158015610dc557600080fd5b505afa158015610dd9573d6000803e3d6000fd5b505050506040513d601f19601f82011682018060405250810190610dfd919061265a565b6001600160a01b031614610e235760405162461bcd60e51b815260040161053d90612d0d565b866001600160a01b0316816001600160a01b0316634df947d06040518163ffffffff1660e01b815260040160206040518083038186803b158015610e6657600080fd5b505afa158015610e7a573d6000803e3d6000fd5b505050506040513d601f19601f82011682018060405250810190610e9e919061265a565b6001600160a01b031614610ec45760405162461bcd60e51b815260040161053d90612cd6565b6000889050306001600160a01b0316816001600160a01b031663075461726040518163ffffffff1660e01b815260040160206040518083038186803b158015610f0c57600080fd5b505afa158015610f20573d6000803e3d6000fd5b505050506040513d601f19601f82011682018060405250810190610f44919061265a565b6001600160a01b031614610f6a5760405162461bcd60e51b815260040161053d90612cd6565b806001600160a01b03166340c10f1930836001600160a01b03166318160ddd6040518163ffffffff1660e01b815260040160206040518083038186803b158015610fb357600080fd5b505afa158015610fc7573d6000803e3d6000fd5b505050506040513d601f19601f82011682018060405250810190610feb9190612978565b6040518363ffffffff1660e01b8152600401611008929190612a53565b600060405180830381600087803b15801561102257600080fd5b505af1158015611036573d6000803e3d6000fd5b50505050806001600160a01b03166318160ddd6040518163ffffffff1660e01b815260040160206040518083038186803b15801561107357600080fd5b505afa158015611087573d6000803e3d6000fd5b505050506040513d601f19601f820116820180604052508101906110ab9190612978565b6040516370a0823160e01b81526001600160a01b038316906370a08231906110d7903090600401612a1b565b60206040518083038186803b1580156110ef57600080fd5b505afa158015611103573d6000803e3d6000fd5b505050506040513d601f19601f820116820180604052508101906111279190612978565b146111445760405162461bcd60e51b815260040161053d90612ba8565b60008460008151811061116757634e487b7160e01b600052603260045260246000fd5b6020026020010151905060008560018151811061119457634e487b7160e01b600052603260045260246000fd5b6020026020010151600014156111ac575060006111b0565b5060015b6000866002815181106111d357634e487b7160e01b600052603260045260246000fd5b6020026020010151905060008760038151811061120057634e487b7160e01b600052603260045260246000fd5b6020026020010151436112139190612e13565b90506040518061022001604052806001151581526020018d6001600160a01b031681526020018c6001600160a01b03168152602001600015158152602001866001600160a01b03166318160ddd6040518163ffffffff1660e01b815260040160206040518083038186803b15801561128a57600080fd5b505afa15801561129e573d6000803e3d6000fd5b505050506040513d601f19601f820116820180604052508101906112c29190612978565b8152602001866001600160a01b031663355274ea6040518163ffffffff1660e01b815260040160206040518083038186803b15801561130057600080fd5b505afa158015611314573d6000803e3d6000fd5b505050506040513d601f19601f820116820180604052508101906113389190612978565b815260200160008152602001600081526020018a815260200185815260200184151581526020018b6001600160a01b031681526020014381526020018281526020018381526020014381526020016000815250600160008f6001600160a01b03166001600160a01b0316815260200190815260200160002060008201518160000160006101000a81548160ff02191690831515021790555060208201518160000160016101000a8154816001600160a01b0302191690836001600160a01b0316021790555060408201518160010160006101000a8154816001600160a01b0302191690836001600160a01b0316021790555060608201518160010160146101000a81548160ff0219169083151502179055506080820151816002015560a0820151816003015560c0820151816004015560e08201518160050155610100820151816006015561012082015181600701556101408201518160080160006101000a81548160ff0219169083151502179055506101608201518160080160016101000a8154816001600160a01b0302191690836001600160a01b0316021790555061018082015181600901556101a082015181600a01556101c082015181600b01556101e082015181600c015561020082015181600d01559050508c6000808d6001600160a01b03166001600160a01b0316815260200190815260200160002060006101000a8154816001600160a01b0302191690836001600160a01b03160217905550600196505050505050509695505050505050565b6001600160a01b038116600090815260016020819052604082205460ff1615151461159b5750600061042a565b506001600160a01b03166000908152600160205260409020600a015490565b6001600160a01b038116600090815260016020819052604082205460ff161515146115e75750600061042a565b6001600160a01b038216600090815260016020526040902060028101546003909101546116149190612e6a565b92915050565b6001600160a01b038416600090815260016020819052604082205460ff1615151461164757506000611655565b61165284848461233f565b90505b949350505050565b6001600160a01b03831660009081526001602081905260409091205460ff16151514611688576117ae565b6001600160a01b03838116600090815260016020819052604090912001541633146116c55760405162461bcd60e51b815260040161053d90612c9f565b60006116d28484846105ba565b90506001811515146116e457506117ae565b6001600160a01b038085166000818152600160208190526040918290200154905163095ea7b360e01b8152879363095ea7b392611728929116908790600401612a53565b602060405180830381600087803b15801561174257600080fd5b505af1158015611756573d6000803e3d6000fd5b505050506040513d601f19601f8201168201806040525081019061177a9190612861565b506001600160a01b038516600090815260016020526040812060020180548592906117a6908490612e6a565b909155505050505b505050565b6001600160a01b038116600090815260016020819052604082205460ff161515146117e05750600061042a565b506001600160a01b03166000908152600160205260409020600d015490565b6001600160a01b038416600090815260016020819052604082205460ff1615151461182c57506000611655565b611652848484612435565b6001600160a01b038116600090815260016020819052604082205460ff161515146118645750600061042a565b506001600160a01b031660009081526001602052604090206002015490565b6001600160a01b038116600090815260016020819052604082205460ff161515146118b05750600061042a565b506001600160a01b031660009081526001602052604090206004015490565b6001600160a01b03811660009081526001602081905260409091205460ff1615151461190d5760405162461bcd60e51b815260040161053d90612b79565b6001600160a01b03818116600090815260016020526040902060080154610100900416331461194e5760405162461bcd60e51b815260040161053d90612d44565b6001600160a01b0381166000908152600160205260408120600c01546119749043612e6a565b6001600160a01b03831660009081526001602052604081206009810154600a9091015492935090916119cb916119a991612e6a565b6001600160a01b0385166000908152600160205260409020600b01549061251d565b9050806119d9575050611b1e565b60006119e58383612529565b9050600081118015611a1257506001600160a01b0384166000908152600160205260409020600201548111155b15611b1a576001600160a01b0384166000908152600160205260408120600b0180548692849291611a44908490612e13565b90915550506001600160a01b038086166000908152600160205260409081902043600c82015560080154905163a9059cbb60e01b81528383169263a9059cbb92611a9c92610100909104909116908690600401612a53565b602060405180830381600087803b158015611ab657600080fd5b505af1158015611aca573d6000803e3d6000fd5b505050506040513d601f19601f82011682018060405250810190611aee9190612861565b506001600160a01b038516600090815260016020526040812060020180548492906117a6908490612e6a565b5050505b50565b600080611b2d33611e14565b6001600160a01b03166370a08231306040518263ffffffff1660e01b8152600401611b589190612a1b565b60206040518083038186803b158015611b7057600080fd5b505afa158015611b84573d6000803e3d6000fd5b505050506040513d601f19601f82011682018060405250810190611ba89190612978565b9050828110611d4d5760005b8651811015611c4c576000878281518110611bdf57634e487b7160e01b600052603260045260246000fd5b6020908102919091010151600380546001810182556000919091527fc2575a0e9e593c00f959f8c92f12db2869c3395a3b0502d05e2516446f71f85b0180546001600160a01b0319166001600160a01b039092169190911790555080611c4481612e81565b915050611bb4565b50604080516003805460a06020820284018101909452608083018181526000948493919290840182828015611caa57602002820191906000526020600020905b81546001600160a01b03168152600190910190602001808311611c8c575b50505091835250506020810188905260408082018890526000606090920191909152600254905163172b958560e31b81529192506001600160a01b03169063b95cac2890611d02908b90309081908790600401612ab1565b600060405180830381600087803b158015611d1c57600080fd5b505af1158015611d30573d6000803e3d6000fd5b5050505060036000611d429190612535565b600192505050610565565b6000915050610565565b6001600160a01b03831660009081526001602081905260409091205460ff16151514611d82576117ae565b6001600160a01b0383811660009081526001602081905260409091200154163314611dbf5760405162461bcd60e51b815260040161053d90612c9f565b6000611dcc848484611e32565b9050600181151514611dde57506117ae565b6001600160a01b03841660009081526001602052604081206002018054849290611e09908490612e13565b909155505050505050565b6001600160a01b039081166000908152602081905260409020541690565b6001600160a01b038316600090815260016020819052604082205460ff16151514611e5f5750600061074a565b6001600160a01b0384811660009081526001602081905260409091200154163314611e9c5760405162461bcd60e51b815260040161053d90612c9f565b6001600160a01b03848116600090815260016020526040902054610100900481169084161415611ece5750600061074a565b5060019392505050565b6001600160a01b038116600090815260016020819052604082205460ff16151514611f055750600061042a565b506001600160a01b03166000908152600160205260409020600c015490565b6001600160a01b038116600090815260016020819052604082205460ff16151514611f515750600061042a565b506001600160a01b031660009081526001602052604090206006015490565b6001600160a01b038116600090815260016020819052604082205460ff16151514611f9d5750600061042a565b506001600160a01b0390811660009081526001602052604090205461010090041690565b6001600160a01b03811660009081526001602081905260409091205460ff16151514611fec57611b1e565b6001600160a01b03818116600090815260016020819052604090912001541633146120295760405162461bcd60e51b815260040161053d90612c9f565b6001600160a01b0381166000908152600160208190526040909120810154600160a01b900460ff161515141561205e57611b1e565b6001600160a01b0381166000908152600160208190526040822001805460ff60a01b1916600160a01b17905561209d670de0b6b3a76400006005612e4b565b905060006120b4670de0b6b3a76400006005612e4b565b6001600160a01b038416600090815260016020526040812060040154919250826120de8584612e2b565b6001600160a01b0387166000908152600160205260409020600701546121049190612e4b565b61210e9190612e4b565b6001600160a01b038087166000818152600160208190526040918290200154905163095ea7b360e01b81529394508893919263095ea7b39261215892909116908690600401612a53565b602060405180830381600087803b15801561217257600080fd5b505af1158015612186573d6000803e3d6000fd5b505050506040513d601f19601f820116820180604052508101906121aa9190612861565b506001600160a01b038087166000908152600160205260409081902054905163095ea7b360e01b815261010090910490911690819063095ea7b3906121f59083908890600401612a53565b602060405180830381600087803b15801561220f57600080fd5b505af1158015612223573d6000803e3d6000fd5b505050506040513d601f19601f820116820180604052508101906122479190612861565b506001600160a01b0380881660009081526001602081905260409182902090810154905491516309ef3f5b60e01b81529083169283926309ef3f5b926122a3928d928a928d92610100909204909116908c908f90600401612a6c565b600060405180830381600087803b1580156122bd57600080fd5b505af11580156122d1573d6000803e3d6000fd5b505050506001600160a01b03881660009081526001602052604081206004018054879290612300908490612e6a565b90915550506001600160a01b03881660009081526001602052604081206002018054869290612330908490612e6a565b90915550505050505050505050565b6001600160a01b038316600090815260016020819052604082205460ff16151514156123d2576001600160a01b03841660009081526001602052604090206008015460ff166123905750600061074a565b6001600160a01b0384166000908152600160205260409020600701546123cb90670de0b6b3a7640000906123c5908590612529565b9061251d565b905061074a565b6001600160a01b03831660009081526001602081905260409091205460ff161515141561242b576001600160a01b0384166000908152600160205260409020600701546123cb906123c584670de0b6b3a7640000612529565b5060009392505050565b6001600160a01b038316600090815260016020819052604082205460ff16151514156124c1576001600160a01b03841660009081526001602052604090206008015460ff166124865750600061074a565b6001600160a01b0384166000908152600160205260408120600701546124b8906123c585670de0b6b3a7640000612529565b915061074a9050565b6001600160a01b03831660009081526001602081905260409091205460ff161515141561242b576001600160a01b0384166000908152600160205260408120600701546124b890670de0b6b3a7640000906123c5908690612529565b600061074a8284612e2b565b600061074a8284612e4b565b5080546000825590600052602060002090810190611b1e91905b80821115612563576000815560010161254f565b5090565b600082601f830112612577578081fd5b8135602061258c61258783612def565b612dc5565b82815281810190858301838502870184018810156125a8578586fd5b855b858110156125c6578135845292840192908401906001016125aa565b5090979650505050505050565b600082601f8301126125e3578081fd5b813567ffffffffffffffff8111156125fd576125fd612eb2565b612610601f8201601f1916602001612dc5565b818152846020838601011115612624578283fd5b816020850160208301379081016020019190915292915050565b60006020828403121561264f578081fd5b813561074a81612ec8565b60006020828403121561266b578081fd5b815161074a81612ec8565b60008060008060008060c0878903121561268e578182fd5b863561269981612ec8565b955060208701356126a981612ec8565b945060408701356126b981612ec8565b935060608701356126c981612ec8565b92506080870135915060a087013567ffffffffffffffff8111156126eb578182fd5b6126f789828a01612567565b9150509295509295509295565b60008060008060808587031215612719578384fd5b843561272481612ec8565b9350602085013561273481612ec8565b9250604085013561274481612ec8565b9396929550929360600135925050565b60008060008060008060c0878903121561276c578182fd5b863561277781612ec8565b9550602087013561278781612ec8565b9450604087013561279781612ec8565b93506060870135925060808701356127ae81612ec8565b8092505060a087013590509295509295509295565b6000806000606084860312156127d7578283fd5b83356127e281612ec8565b925060208401356127f281612ec8565b929592945050506040919091013590565b600080600080600060a0868803121561281a578081fd5b853561282581612ec8565b9450602086013561283581612ec8565b93506040860135925060608601359150608086013561285381612ec8565b809150509295509295909350565b600060208284031215612872578081fd5b8151801515811461074a578182fd5b600080600080600060a08688031215612898578283fd5b8535945060208087013567ffffffffffffffff808211156128b7578586fd5b818901915089601f8301126128ca578586fd5b81356128d861258782612def565b81815284810190848601868402860187018e10156128f457898afd5b8995505b8386101561291f57803561290b81612ec8565b8352600195909501949186019186016128f8565b50985050506040890135925080831115612937578586fd5b6129438a848b01612567565b95506060890135925080831115612958578384fd5b5050612966888289016125d3565b95989497509295608001359392505050565b600060208284031215612989578081fd5b5051919050565b6000815180845260208085019450808401835b838110156129bf578151875295820195908201906001016129a3565b509495945050505050565b15159052565b60008151808452815b818110156129f5576020818501810151868301820152016129d9565b81811115612a065782602083870101525b50601f01601f19169290920160200192915050565b6001600160a01b0391909116815260200190565b6001600160a01b039384168152919092166020820152604081019190915260600190565b6001600160a01b03929092168252602082015260400190565b6001600160a01b0396871681526020810195909552604085019390935293166060830152608082019290925260a081019190915260c00190565b901515815260200190565b6000858252602060018060a01b0380871682850152808616604085015260806060850152610100840185516080808701528181518084526101208801915085830193508692505b80831015612b1a57835185168252928501926001929092019190850190612af8565b50848801519450607f199350838782030160a0880152612b3a8186612990565b94505050506040850151818584030160c0860152612b5883826129d0565b925050506060840151612b6e60e08501826129ca565b509695505050505050565b60208082526015908201527422a9291d24b73b30b634b2103230ba30ba37b5b2b760591b604082015260600190565b6020808252600b908201526a135a5b9d0819985a5b195960aa1b604082015260600190565b6020808252601d908201527f4552523a6d6178546f6b656e416d6f756e74496e206e6f74206d656574000000604082015260600190565b6020808252601e908201527f576520617265206e6f742074686520706f6f6c20636f6e74726f6c6c65720000604082015260600190565b602080825260139082015272496e76616c696420706f6f6c4164647265737360681b604082015260600190565b6020808252601a908201527f4552523a204e6f7420696e206275726e2d696e20706572696f64000000000000604082015260600190565b6020808252601c908201527f4552523a204f6e6c7920706f6f6c2063616e2063616c6c207468697300000000604082015260600190565b6020808252601b908201527f42617365546f6b656e2061646472657373206d6973736d617463680000000000604082015260600190565b6020808252601b908201527f44617461546f6b656e2061646472657373206d6973736d617463680000000000604082015260600190565b60208082526021908201527f4552523a204f6e6c79207075626c69736865722063616e2063616c6c207468696040820152607360f81b606082015260800190565b60208082526019908201527f4552523a6d696e416d6f756e744f7574206e6f74206d65657400000000000000604082015260600190565b90815260200190565b60405181810167ffffffffffffffff81118282101715612de757612de7612eb2565b604052919050565b600067ffffffffffffffff821115612e0957612e09612eb2565b5060209081020190565b60008219821115612e2657612e26612e9c565b500190565b600082612e4657634e487b7160e01b81526012600452602481fd5b500490565b6000816000190483118215151615612e6557612e65612e9c565b500290565b600082821015612e7c57612e7c612e9c565b500390565b6000600019821415612e9557612e95612e9c565b5060010190565b634e487b7160e01b600052601160045260246000fd5b634e487b7160e01b600052604160045260246000fd5b6001600160a01b0381168114611b1e57600080fdfea2646970667358221220f89c8824dccc72816c7a35d1e856c00155a1d80fc6b1536bf19aea5f7810735e64736f6c63430008000033",
  "linkReferences": {},
  "deployedLinkReferences": {}
}