{
  "_format": "hh-sol-artifact-1",
  "contractName": "ssFixedRateV2",
  "sourceName": "contracts/ssContracts/ssFixedRateV2.sol",
  "abi": [
    {
      "inputs": [],
      "stateMutability": "nonpayable",
      "type": "constructor"
    },
    {
      "inputs": [
        {
          "internalType": "address",
          "name": "datatokenAddress",
          "type": "address"
        },
        {
          "internalType": "address",
          "name": "stakeToken",
          "type": "address"
        },
        {
          "internalType": "uint256",
          "name": "amount",
          "type": "uint256"
        }
      ],
      "name": "Stake",
      "outputs": [],
      "stateMutability": "nonpayable",
      "type": "function"
    },
    {
      "inputs": [
        {
          "internalType": "address",
          "name": "datatokenAddress",
          "type": "address"
        },
        {
          "internalType": "address",
          "name": "stakeToken",
          "type": "address"
        },
        {
          "internalType": "uint256",
          "name": "amount",
          "type": "uint256"
        }
      ],
      "name": "UnStake",
      "outputs": [],
      "stateMutability": "nonpayable",
      "type": "function"
    },
    {
      "inputs": [
        {
          "internalType": "address",
          "name": "datatokenAddress",
          "type": "address"
        },
        {
          "internalType": "address",
          "name": "basetoken",
          "type": "address"
        },
        {
          "internalType": "uint256",
          "name": "datatokenAmount",
          "type": "uint256"
        },
        {
          "internalType": "uint256",
          "name": "basetokenAmount",
          "type": "uint256"
        },
        {
          "internalType": "address",
          "name": "userAddress",
          "type": "address"
        }
      ],
      "name": "allowStake",
      "outputs": [
        {
          "internalType": "bool",
          "name": "",
          "type": "bool"
        }
      ],
      "stateMutability": "view",
      "type": "function"
    },
    {
      "inputs": [
        {
          "internalType": "address",
          "name": "datatokenAddress",
          "type": "address"
        },
        {
          "internalType": "address",
          "name": "basetoken",
          "type": "address"
        },
        {
          "internalType": "uint256",
          "name": "datatokenAmount",
          "type": "uint256"
        },
        {
          "internalType": "uint256",
          "name": "basetokenAmount",
          "type": "uint256"
        },
        {
          "internalType": "address",
          "name": "userAddress",
          "type": "address"
        }
      ],
      "name": "allowUnStake",
      "outputs": [
        {
          "internalType": "bool",
          "name": "",
          "type": "bool"
        }
      ],
      "stateMutability": "view",
      "type": "function"
    },
    {
      "inputs": [
        {
          "internalType": "address",
          "name": "datatokenAddress",
          "type": "address"
        },
        {
          "internalType": "address",
          "name": "tokenIn",
          "type": "address"
        },
        {
          "internalType": "address",
          "name": "tokenOut",
          "type": "address"
        },
        {
          "internalType": "uint256",
          "name": "tokenAmountOut",
          "type": "uint256"
        }
      ],
      "name": "calcInGivenOut",
      "outputs": [
        {
          "internalType": "uint256",
          "name": "",
          "type": "uint256"
        }
      ],
      "stateMutability": "view",
      "type": "function"
    },
    {
      "inputs": [
        {
          "internalType": "address",
          "name": "datatokenAddress",
          "type": "address"
        },
        {
          "internalType": "address",
          "name": "tokenIn",
          "type": "address"
        },
        {
          "internalType": "address",
          "name": "tokenOut",
          "type": "address"
        },
        {
          "internalType": "uint256",
          "name": "tokenAmountIn",
          "type": "uint256"
        }
      ],
      "name": "calcOutGivenIn",
      "outputs": [
        {
          "internalType": "uint256",
          "name": "",
          "type": "uint256"
        }
      ],
      "stateMutability": "view",
      "type": "function"
    },
    {
      "inputs": [
        {
          "internalType": "address",
          "name": "datatokenAddress",
          "type": "address"
        },
        {
          "internalType": "address",
          "name": "stakeToken",
          "type": "address"
        },
        {
          "internalType": "uint256",
          "name": "amount",
          "type": "uint256"
        }
      ],
      "name": "canStake",
      "outputs": [
        {
          "internalType": "bool",
          "name": "",
          "type": "bool"
        }
      ],
      "stateMutability": "view",
      "type": "function"
    },
    {
      "inputs": [
        {
          "internalType": "address",
          "name": "datatokenAddress",
          "type": "address"
        },
        {
          "internalType": "address",
          "name": "stakeToken",
          "type": "address"
        },
        {
          "internalType": "uint256",
          "name": "amount",
          "type": "uint256"
        }
      ],
      "name": "canUnStake",
      "outputs": [
        {
          "internalType": "bool",
          "name": "",
          "type": "bool"
        }
      ],
      "stateMutability": "view",
      "type": "function"
    },
    {
      "inputs": [
        {
          "internalType": "address",
          "name": "datatokenAddress",
          "type": "address"
        }
      ],
      "name": "getBaseTokenAddress",
      "outputs": [
        {
          "internalType": "address",
          "name": "",
          "type": "address"
        }
      ],
      "stateMutability": "view",
      "type": "function"
    },
    {
      "inputs": [
        {
          "internalType": "address",
          "name": "datatokenAddress",
          "type": "address"
        }
      ],
      "name": "getBaseTokenBalance",
      "outputs": [
        {
          "internalType": "uint256",
          "name": "",
          "type": "uint256"
        }
      ],
      "stateMutability": "view",
      "type": "function"
    },
    {
      "inputs": [
        {
          "internalType": "address",
          "name": "datatokenAddress",
          "type": "address"
        }
      ],
      "name": "getDataTokenBalance",
      "outputs": [
        {
          "internalType": "uint256",
          "name": "",
          "type": "uint256"
        }
      ],
      "stateMutability": "view",
      "type": "function"
    },
    {
      "inputs": [
        {
          "internalType": "address",
          "name": "datatokenAddress",
          "type": "address"
        }
      ],
      "name": "getDataTokenCirculatingSupply",
      "outputs": [
        {
          "internalType": "uint256",
          "name": "",
          "type": "uint256"
        }
      ],
      "stateMutability": "view",
      "type": "function"
    },
    {
      "inputs": [
        {
          "internalType": "address",
          "name": "datatokenAddress",
          "type": "address"
        }
      ],
      "name": "getPoolAddress",
      "outputs": [
        {
          "internalType": "address",
          "name": "",
          "type": "address"
        }
      ],
      "stateMutability": "view",
      "type": "function"
    },
    {
      "inputs": [
        {
          "internalType": "address",
          "name": "datatokenAddress",
          "type": "address"
        }
      ],
      "name": "getPublisherAddress",
      "outputs": [
        {
          "internalType": "address",
          "name": "",
          "type": "address"
        }
      ],
      "stateMutability": "view",
      "type": "function"
    },
    {
      "inputs": [
        {
          "internalType": "address",
          "name": "datatokenAddress",
          "type": "address"
        }
      ],
      "name": "getVesting",
      "outputs": [],
      "stateMutability": "nonpayable",
      "type": "function"
    },
    {
      "inputs": [
        {
          "internalType": "address",
          "name": "datatokenAddress",
          "type": "address"
        }
      ],
      "name": "getburnInEndBlock",
      "outputs": [
        {
          "internalType": "uint256",
          "name": "",
          "type": "uint256"
        }
      ],
      "stateMutability": "view",
      "type": "function"
    },
    {
      "inputs": [
        {
          "internalType": "address",
          "name": "datatokenAddress",
          "type": "address"
        }
      ],
      "name": "getvestingAmount",
      "outputs": [
        {
          "internalType": "uint256",
          "name": "",
          "type": "uint256"
        }
      ],
      "stateMutability": "view",
      "type": "function"
    },
    {
      "inputs": [
        {
          "internalType": "address",
          "name": "datatokenAddress",
          "type": "address"
        }
      ],
      "name": "getvestingAmountSoFar",
      "outputs": [
        {
          "internalType": "uint256",
          "name": "",
          "type": "uint256"
        }
      ],
      "stateMutability": "view",
      "type": "function"
    },
    {
      "inputs": [
        {
          "internalType": "address",
          "name": "datatokenAddress",
          "type": "address"
        }
      ],
      "name": "getvestingEndBlock",
      "outputs": [
        {
          "internalType": "uint256",
          "name": "",
          "type": "uint256"
        }
      ],
      "stateMutability": "view",
      "type": "function"
    },
    {
      "inputs": [
        {
          "internalType": "address",
          "name": "datatokenAddress",
          "type": "address"
        }
      ],
      "name": "getvestingLastBlock",
      "outputs": [
        {
          "internalType": "uint256",
          "name": "",
          "type": "uint256"
        }
      ],
      "stateMutability": "view",
      "type": "function"
    },
    {
      "inputs": [
        {
          "internalType": "address",
          "name": "datatokenAddress",
          "type": "address"
        }
      ],
      "name": "isInBurnIn",
      "outputs": [
        {
          "internalType": "bool",
          "name": "",
          "type": "bool"
        }
      ],
      "stateMutability": "view",
      "type": "function"
    },
    {
      "inputs": [
        {
          "internalType": "address",
          "name": "datatokenAddress",
          "type": "address"
        },
        {
          "internalType": "address",
          "name": "basetokenAddress",
          "type": "address"
        },
        {
          "internalType": "address",
          "name": "poolAddress",
          "type": "address"
        },
        {
          "internalType": "address",
          "name": "publisherAddress",
          "type": "address"
        },
        {
          "internalType": "uint256",
          "name": "burnInEndBlock",
          "type": "uint256"
        },
        {
          "internalType": "uint256[]",
          "name": "ssParams",
          "type": "uint256[]"
        }
      ],
      "name": "newDataTokenCreated",
      "outputs": [
        {
          "internalType": "bool",
          "name": "",
          "type": "bool"
        }
      ],
      "stateMutability": "nonpayable",
      "type": "function"
    },
    {
      "inputs": [
        {
          "internalType": "address",
          "name": "datatokenAddress",
          "type": "address"
        }
      ],
      "name": "notifyFinalize",
      "outputs": [],
      "stateMutability": "nonpayable",
      "type": "function"
    },
    {
      "inputs": [
        {
          "internalType": "bytes",
          "name": "self",
          "type": "bytes"
        },
        {
          "internalType": "bytes32",
          "name": "poolId",
          "type": "bytes32"
        },
        {
          "internalType": "uint256",
          "name": "amountIn",
          "type": "uint256"
        },
        {
          "internalType": "address",
          "name": "tokenAddress",
          "type": "address"
        },
        {
          "internalType": "address",
          "name": "recipient",
          "type": "address"
        }
      ],
      "name": "stake",
      "outputs": [],
      "stateMutability": "nonpayable",
      "type": "function"
    },
    {
      "inputs": [
        {
          "internalType": "address",
          "name": "datatokenAddress",
          "type": "address"
        },
        {
          "internalType": "address",
          "name": "userAddress",
          "type": "address"
        },
        {
          "internalType": "address",
          "name": "tokenIn",
          "type": "address"
        },
        {
          "internalType": "uint256",
          "name": "tokenAmountIn",
          "type": "uint256"
        },
        {
          "internalType": "address",
          "name": "tokenOut",
          "type": "address"
        },
        {
          "internalType": "uint256",
          "name": "minAmountOut",
          "type": "uint256"
        }
      ],
      "name": "swapExactAmountIn",
      "outputs": [
        {
          "internalType": "uint256",
          "name": "tokenAmountOut",
          "type": "uint256"
        }
      ],
      "stateMutability": "nonpayable",
      "type": "function"
    },
    {
      "inputs": [
        {
          "internalType": "address",
          "name": "datatokenAddress",
          "type": "address"
        },
        {
          "internalType": "address",
          "name": "userAddress",
          "type": "address"
        },
        {
          "internalType": "address",
          "name": "tokenIn",
          "type": "address"
        },
        {
          "internalType": "uint256",
          "name": "maxTokenAmountIn",
          "type": "uint256"
        },
        {
          "internalType": "address",
          "name": "tokenOut",
          "type": "address"
        },
        {
          "internalType": "uint256",
          "name": "amountOut",
          "type": "uint256"
        }
      ],
      "name": "swapExactAmountOut",
      "outputs": [
        {
          "internalType": "uint256",
          "name": "tokenAmountIn",
          "type": "uint256"
        }
      ],
      "stateMutability": "nonpayable",
      "type": "function"
    },
    {
      "inputs": [
        {
          "internalType": "bytes",
          "name": "self",
          "type": "bytes"
        },
        {
          "internalType": "bytes32",
          "name": "poolId",
          "type": "bytes32"
        },
        {
          "internalType": "uint256",
          "name": "amountOut",
          "type": "uint256"
        },
        {
          "internalType": "address",
          "name": "tokenAddress",
          "type": "address"
        },
        {
          "internalType": "address payable",
          "name": "recipient",
          "type": "address"
        }
      ],
      "name": "unstake",
      "outputs": [],
      "stateMutability": "nonpayable",
      "type": "function"
    }
  ],
  "bytecode": "0x6080604052600180546001600160a01b03191673ba12222222228d8ba445958a75a0704d566bf2c817905534801561003657600080fd5b50612fa0806100466000396000f3fe608060405234801561001057600080fd5b50600436106101a95760003560e01c806392f6cb67116100f9578063cc49ede711610097578063f03cd39611610071578063f03cd39614610382578063f09a9c0514610395578063fa93fd6d146103a8578063fc943920146103bb576101a9565b8063cc49ede714610349578063cf268dea1461035c578063efd481031461036f576101a9565b8063bee3913d116100d3578063bee3913d146102fd578063c19c89d714610310578063c1b4904d14610323578063c4be249014610336576101a9565b806392f6cb67146102c457806399039fcf146102d7578063bccf74fe146102ea576101a9565b806326b1f01f116101665780634f3e66dc116101405780634f3e66dc1461028b578063799ece851461029e5780637eaf89011461021f57806388afadce146102b1576101a9565b806326b1f01f1461025257806330c15701146102655780633e6d363f14610278576101a9565b80630734b5b1146101ae57806310390ef0146101d75780631228cbee146101ec5780631f16cde61461020c57806324571dd71461021f5780632686375b14610232575b600080fd5b6101c16101bc3660046126b4565b6103ce565b6040516101ce9190612b91565b60405180910390f35b6101ea6101e5366004612965565b61042f565b005b6101ff6101fa3660046126b4565b610622565b6040516101ce9190612b06565b6101ff61021a3660046126b4565b610671565b6101c161022d3660046128e7565b6106c5565b6102456102403660046126b4565b61075f565b6040516101ce9190612e72565b6101c16102603660046128a7565b6107ab565b610245610273366004612838565b610940565b610245610286366004612838565b610c20565b6101c16102993660046126ec565b610ea1565b6102456102ac3660046126b4565b611711565b6102456102bf3660046126b4565b61175d565b6102456102d23660046127e8565b6117bd565b6101ea6102e53660046128a7565b611800565b6102456102f83660046126b4565b611954565b61024561030b3660046127e8565b6119a0565b6101ea61031e366004612965565b6119d8565b6102456103313660046126b4565b611b76565b6102456103443660046126b4565b611bc2565b6101ea6103573660046126b4565b611c0e565b6101ea61036a3660046128a7565b611e5f565b6101c161037d3660046128a7565b611f1a565b6102456103903660046126b4565b611fbf565b6102456103a33660046126b4565b61200b565b6101ff6103b63660046126b4565b612057565b6101ea6103c93660046126b4565b6120a8565b6001600160a01b03811660009081526020819052604081205460ff1615156001146103fb5750600061042a565b6001600160a01b0382166000908152602081905260409020600601544311156104265750600061042a565b5060015b919050565b6000856000604051602001610445929190612bd8565b60408051808303601f1901815260028054600180820183557f405787fa12a823e0f2b7631cc41b3ba8828b3321ca811111fa75cd3aa3bb5ace90910180546001600160a01b0319166001600160a01b038a1617905560038054918201815560009081527fc2575a0e9e593c00f959f8c92f12db2869c3395a3b0502d05e2516446f71f85b909101899055815460208102860160a090810190955260808601818152939650909493849392919084018282801561052a57602002820191906000526020600020905b81546001600160a01b0316815260019091019060200180831161050c575b50505050508152602001600380548060200260200160405190810160405280929190818152602001828054801561058057602002820191906000526020600020905b81548152602001906001019080831161056c575b50505091835250506020810184905260006040918201526001549051638bdb391360e01b81529192506001600160a01b031690638bdb3913906105cd908990309088908790600401612b9c565b600060405180830381600087803b1580156105e757600080fd5b505af11580156105fb573d6000803e3d6000fd5b505050506003600061060d9190612617565b61061960026000612617565b50505050505050565b6001600160a01b03811660009081526020819052604081205460ff16151560011461064f5750600061042a565b506001600160a01b039081166000908152602081905260409020600101541690565b6001600160a01b03811660009081526020819052604081205460ff16151560011461069e5750600061042a565b506001600160a01b0390811660009081526020819052604090206008015461010090041690565b6001600160a01b03851660009081526020819052604081205460ff1615156001146106f257506000610756565b6001600160a01b038681166000908152602081905260409020600101541633146107375760405162461bcd60e51b815260040161072e90612d55565b60405180910390fd5b610740866103ce565b15156001141561075257506000610756565b5060015b95945050505050565b6001600160a01b03811660009081526020819052604081205460ff16151560011461078c5750600061042a565b506001600160a01b03166000908152602081905260409020600b015490565b6001600160a01b03831660009081526020819052604081205460ff1615156001146107d857506000610939565b6001600160a01b038481166000908152602081905260409020600101541633146108145760405162461bcd60e51b815260040161072e90612d55565b6001600160a01b03841660009081526020819052604090205460ff16151560011461084157506000610939565b6001600160a01b0384811660009081526020819052604090205461010090048116908416141561087357506000610939565b6040516370a0823160e01b815284906000906001600160a01b038316906370a08231906108a4903090600401612b06565b60206040518083038186803b1580156108bc57600080fd5b505afa1580156108d0573d6000803e3d6000fd5b505050506040513d601f19601f820116820180604052508101906108f491906129cd565b6001600160a01b03871660009081526020819052604090206002015490915084118015906109225750838110155b1561093257600192505050610939565b6000925050505b9392505050565b6001600160a01b03861660009081526020819052604081205460ff16151560011461097d5760405162461bcd60e51b815260040161072e90612c2f565b6001600160a01b038781166000908152602081905260409020600101541633146109b95760405162461bcd60e51b815260040161072e90612d55565b6109c2876103ce565b15156001146109e35760405162461bcd60e51b815260040161072e90612d1e565b6109ef878685856119a0565b905083811115610a115760405162461bcd60e51b815260040161072e90612c83565b6001600160a01b03878116600090815260208190526040908190206001015490516323b872dd60e01b81528792808416926323b872dd92610a5d92919091169030908790600401612b1a565b602060405180830381600087803b158015610a7757600080fd5b505af1158015610a8b573d6000803e3d6000fd5b505050506040513d601f19601f82011682018060405250810190610aaf9190612945565b50876001600160a01b0316866001600160a01b03161415610b30576001600160a01b03881660009081526020819052604081206004018054859290610af5908490612ea5565b90915550506001600160a01b03881660009081526020819052604081206002018054849290610b25908490612ea5565b90915550610b919050565b6001600160a01b03881660009081526020819052604081206002018054859290610b5b908490612ea5565b90915550506001600160a01b03881660009081526020819052604081206004018054849290610b8b908490612ea5565b90915550505b60405163a9059cbb60e01b815284906001600160a01b0382169063a9059cbb90610bc1908b908890600401612b3e565b602060405180830381600087803b158015610bdb57600080fd5b505af1158015610bef573d6000803e3d6000fd5b505050506040513d601f19601f82011682018060405250810190610c139190612945565b5050509695505050505050565b6001600160a01b03861660009081526020819052604081205460ff161515600114610c5d5760405162461bcd60e51b815260040161072e90612c2f565b6001600160a01b03878116600090815260208190526040902060010154163314610c995760405162461bcd60e51b815260040161072e90612d55565b610ca2876103ce565b1515600114610cc35760405162461bcd60e51b815260040161072e90612d1e565b610ccf878685876117bd565b905081811015610cf15760405162461bcd60e51b815260040161072e90612e3b565b6001600160a01b03878116600090815260208190526040908190206001015490516323b872dd60e01b81528792808416926323b872dd92610d3d92919091169030908a90600401612b1a565b602060405180830381600087803b158015610d5757600080fd5b505af1158015610d6b573d6000803e3d6000fd5b505050506040513d601f19601f82011682018060405250810190610d8f9190612945565b50876001600160a01b0316866001600160a01b03161415610e10576001600160a01b03881660009081526020819052604081206004018054849290610dd5908490612ea5565b90915550506001600160a01b03881660009081526020819052604081206002018054879290610e05908490612ea5565b90915550610e719050565b6001600160a01b03881660009081526020819052604081206002018054849290610e3b908490612ea5565b90915550506001600160a01b03881660009081526020819052604081206004018054879290610e6b908490612ea5565b90915550505b60405163a9059cbb60e01b815284906001600160a01b0382169063a9059cbb90610bc1908b908790600401612b3e565b60006001600160a01b038516610ec95760405162461bcd60e51b815260040161072e90612cf1565b6000859050306001600160a01b0316816001600160a01b0316633018205f6040518163ffffffff1660e01b815260040160206040518083038186803b158015610f1157600080fd5b505afa158015610f25573d6000803e3d6000fd5b505050506040513d601f19601f82011682018060405250810190610f4991906126d0565b6001600160a01b031614610f6f5760405162461bcd60e51b815260040161072e90612cba565b876001600160a01b0316816001600160a01b03166304ad79546040518163ffffffff1660e01b815260040160206040518083038186803b158015610fb257600080fd5b505afa158015610fc6573d6000803e3d6000fd5b505050506040513d601f19601f82011682018060405250810190610fea91906126d0565b6001600160a01b0316146110105760405162461bcd60e51b815260040161072e90612dc3565b866001600160a01b0316816001600160a01b0316634df947d06040518163ffffffff1660e01b815260040160206040518083038186803b15801561105357600080fd5b505afa158015611067573d6000803e3d6000fd5b505050506040513d601f19601f8201168201806040525081019061108b91906126d0565b6001600160a01b0316146110b15760405162461bcd60e51b815260040161072e90612d8c565b6000889050306001600160a01b0316816001600160a01b031663075461726040518163ffffffff1660e01b815260040160206040518083038186803b1580156110f957600080fd5b505afa15801561110d573d6000803e3d6000fd5b505050506040513d601f19601f8201168201806040525081019061113191906126d0565b6001600160a01b0316146111575760405162461bcd60e51b815260040161072e90612d8c565b806001600160a01b03166340c10f1930836001600160a01b03166318160ddd6040518163ffffffff1660e01b815260040160206040518083038186803b1580156111a057600080fd5b505afa1580156111b4573d6000803e3d6000fd5b505050506040513d601f19601f820116820180604052508101906111d891906129cd565b6040518363ffffffff1660e01b81526004016111f5929190612b3e565b600060405180830381600087803b15801561120f57600080fd5b505af1158015611223573d6000803e3d6000fd5b50505050806001600160a01b03166318160ddd6040518163ffffffff1660e01b815260040160206040518083038186803b15801561126057600080fd5b505afa158015611274573d6000803e3d6000fd5b505050506040513d601f19601f8201168201806040525081019061129891906129cd565b6040516370a0823160e01b81526001600160a01b038316906370a08231906112c4903090600401612b06565b60206040518083038186803b1580156112dc57600080fd5b505afa1580156112f0573d6000803e3d6000fd5b505050506040513d601f19601f8201168201806040525081019061131491906129cd565b146113315760405162461bcd60e51b815260040161072e90612c5e565b60008460008151811061135457634e487b7160e01b600052603260045260246000fd5b6020026020010151905060008560018151811061138157634e487b7160e01b600052603260045260246000fd5b6020026020010151600014156113995750600061139d565b5060015b6000866002815181106113c057634e487b7160e01b600052603260045260246000fd5b602002602001015190506000876003815181106113ed57634e487b7160e01b600052603260045260246000fd5b6020026020010151436114009190612ea5565b90506040518061022001604052806001151581526020018d6001600160a01b031681526020018c6001600160a01b03168152602001600015158152602001866001600160a01b03166318160ddd6040518163ffffffff1660e01b815260040160206040518083038186803b15801561147757600080fd5b505afa15801561148b573d6000803e3d6000fd5b505050506040513d601f19601f820116820180604052508101906114af91906129cd565b8152602001866001600160a01b031663355274ea6040518163ffffffff1660e01b815260040160206040518083038186803b1580156114ed57600080fd5b505afa158015611501573d6000803e3d6000fd5b505050506040513d601f19601f8201168201806040525081019061152591906129cd565b815260200160008152602001600081526020018a815260200185815260200184151581526020018b6001600160a01b0316815260200143815260200182815260200183815260200143815260200160008152506000808f6001600160a01b03166001600160a01b0316815260200190815260200160002060008201518160000160006101000a81548160ff02191690831515021790555060208201518160000160016101000a8154816001600160a01b0302191690836001600160a01b0316021790555060408201518160010160006101000a8154816001600160a01b0302191690836001600160a01b0316021790555060608201518160010160146101000a81548160ff0219169083151502179055506080820151816002015560a0820151816003015560c0820151816004015560e08201518160050155610100820151816006015561012082015181600701556101408201518160080160006101000a81548160ff0219169083151502179055506101608201518160080160016101000a8154816001600160a01b0302191690836001600160a01b0316021790555061018082015181600901556101a082015181600a01556101c082015181600b01556101e082015181600c015561020082015181600d0155905050600196505050505050509695505050505050565b6001600160a01b03811660009081526020819052604081205460ff16151560011461173e5750600061042a565b506001600160a01b03166000908152602081905260409020600a015490565b6001600160a01b03811660009081526020819052604081205460ff16151560011461178a5750600061042a565b6001600160a01b038216600090815260208190526040902060028101546003909101546117b79190612efc565b92915050565b6001600160a01b03841660009081526020819052604081205460ff1615156001146117ea575060006117f8565b6117f5848484612423565b90505b949350505050565b6001600160a01b03831660009081526020819052604090205460ff16151560011461182a5761194f565b6001600160a01b038381166000908152602081905260409020600101541633146118665760405162461bcd60e51b815260040161072e90612d55565b60006118738484846107ab565b9050600181151514611885575061194f565b6001600160a01b038085166000818152602081905260409081902060010154905163095ea7b360e01b8152879363095ea7b3926118c9929116908790600401612b3e565b602060405180830381600087803b1580156118e357600080fd5b505af11580156118f7573d6000803e3d6000fd5b505050506040513d601f19601f8201168201806040525081019061191b9190612945565b506001600160a01b03851660009081526020819052604081206002018054859290611947908490612efc565b909155505050505b505050565b6001600160a01b03811660009081526020819052604081205460ff1615156001146119815750600061042a565b506001600160a01b03166000908152602081905260409020600d015490565b6001600160a01b03841660009081526020819052604081205460ff1615156001146119cd575060006117f8565b6117f5848484612518565b60008560026040516020016119ee929190612c0a565b60408051808303601f1901815260028054600180820183557f405787fa12a823e0f2b7631cc41b3ba8828b3321ca811111fa75cd3aa3bb5ace90910180546001600160a01b0319166001600160a01b038a1617905560038054918201815560009081527fc2575a0e9e593c00f959f8c92f12db2869c3395a3b0502d05e2516446f71f85b909101899055815460208102860160a0908101909552608086018181529396509094938493929190840182828015611ad357602002820191906000526020600020905b81546001600160a01b03168152600190910190602001808311611ab5575b505050505081526020016003805480602002602001604051908101604052809291908181526020018280548015611b2957602002820191906000526020600020905b815481526020019060010190808311611b15575b5050509183525050602081018490526000604091820152600154905163172b958560e31b81529192506001600160a01b03169063b95cac28906105cd908990309088908790600401612b9c565b6001600160a01b03811660009081526020819052604081205460ff161515600114611ba35750600061042a565b506001600160a01b031660009081526020819052604090206002015490565b6001600160a01b03811660009081526020819052604081205460ff161515600114611bef5750600061042a565b506001600160a01b031660009081526020819052604090206004015490565b6001600160a01b03811660009081526020819052604090205460ff161515600114611c4b5760405162461bcd60e51b815260040161072e90612c2f565b6001600160a01b038181166000908152602081905260409020600801546101009004163314611c8c5760405162461bcd60e51b815260040161072e90612dfa565b6001600160a01b0381166000908152602081905260408120600c0154611cb29043612efc565b6001600160a01b03831660009081526020819052604081206009810154600a909101549293509091611d0991611ce791612efc565b6001600160a01b0385166000908152602081905260409020600b0154906125ff565b905080611d17575050611e5c565b6000611d23838361260b565b9050600081118015611d5057506001600160a01b0384166000908152602081905260409020600201548111155b15611e58576001600160a01b0384166000908152602081905260408120600b0180548692849291611d82908490612ea5565b90915550506001600160a01b038086166000908152602081905260409081902043600c82015560080154905163a9059cbb60e01b81528383169263a9059cbb92611dda92610100909104909116908690600401612b3e565b602060405180830381600087803b158015611df457600080fd5b505af1158015611e08573d6000803e3d6000fd5b505050506040513d601f19601f82011682018060405250810190611e2c9190612945565b506001600160a01b03851660009081526020819052604081206002018054849290611947908490612efc565b5050505b50565b6001600160a01b03831660009081526020819052604090205460ff161515600114611e895761194f565b6001600160a01b03838116600090815260208190526040902060010154163314611ec55760405162461bcd60e51b815260040161072e90612d55565b6000611ed2848484611f1a565b9050600181151514611ee4575061194f565b6001600160a01b03841660009081526020819052604081206002018054849290611f0f908490612ea5565b909155505050505050565b6001600160a01b03831660009081526020819052604081205460ff161515600114611f4757506000610939565b6001600160a01b03848116600090815260208190526040902060010154163314611f835760405162461bcd60e51b815260040161072e90612d55565b6001600160a01b03848116600090815260208190526040902054610100900481169084161415611fb557506000610939565b5060019392505050565b6001600160a01b03811660009081526020819052604081205460ff161515600114611fec5750600061042a565b506001600160a01b03166000908152602081905260409020600c015490565b6001600160a01b03811660009081526020819052604081205460ff1615156001146120385750600061042a565b506001600160a01b031660009081526020819052604090206006015490565b6001600160a01b03811660009081526020819052604081205460ff1615156001146120845750600061042a565b506001600160a01b0390811660009081526020819052604090205461010090041690565b6001600160a01b03811660009081526020819052604090205460ff1615156001146120d257611e5c565b6001600160a01b0381811660009081526020819052604090206001015416331461210e5760405162461bcd60e51b815260040161072e90612d55565b6001600160a01b0381166000908152602081905260409020600190810154600160a01b900460ff161515141561214357611e5c565b6001600160a01b0381166000908152602081905260408120600101805460ff60a01b1916600160a01b179055612182670de0b6b3a76400006005612edd565b90506000612199670de0b6b3a76400006005612edd565b6001600160a01b038416600090815260208190526040812060040154919250826121c38584612ebd565b6001600160a01b0387166000908152602081905260409020600701546121e99190612edd565b6121f39190612edd565b6001600160a01b038087166000818152602081905260409081902060010154905163095ea7b360e01b81529394508893919263095ea7b39261223d92909116908690600401612b3e565b602060405180830381600087803b15801561225757600080fd5b505af115801561226b573d6000803e3d6000fd5b505050506040513d601f19601f8201168201806040525081019061228f9190612945565b506001600160a01b038087166000908152602081905260409081902054905163095ea7b360e01b815261010090910490911690819063095ea7b3906122da9083908890600401612b3e565b602060405180830381600087803b1580156122f457600080fd5b505af1158015612308573d6000803e3d6000fd5b505050506040513d601f19601f8201168201806040525081019061232c9190612945565b506001600160a01b03808816600090815260208190526040908190206001810154905491516309ef3f5b60e01b81529083169283926309ef3f5b92612387928d928a928d92610100909204909116908c908f90600401612b57565b600060405180830381600087803b1580156123a157600080fd5b505af11580156123b5573d6000803e3d6000fd5b505050506001600160a01b038816600090815260208190526040812060040180548792906123e4908490612efc565b90915550506001600160a01b03881660009081526020819052604081206002018054869290612414908490612efc565b90915550505050505050505050565b6001600160a01b03831660009081526020819052604081205460ff161515600114156124b6576001600160a01b03841660009081526020819052604090206008015460ff1661247457506000610939565b6001600160a01b0384166000908152602081905260409020600701546124af90670de0b6b3a7640000906124a990859061260b565b906125ff565b9050610939565b6001600160a01b03831660009081526020819052604090205460ff1615156001141561250e576001600160a01b0384166000908152602081905260409020600701546124af906124a984670de0b6b3a764000061260b565b5060009392505050565b6001600160a01b03831660009081526020819052604081205460ff161515600114156125a4576001600160a01b03841660009081526020819052604090206008015460ff1661256957506000610939565b6001600160a01b03841660009081526020819052604081206007015461259b906124a985670de0b6b3a764000061260b565b91506109399050565b6001600160a01b03831660009081526020819052604090205460ff1615156001141561250e576001600160a01b03841660009081526020819052604081206007015461259b90670de0b6b3a7640000906124a990869061260b565b60006109398284612ebd565b60006109398284612edd565b5080546000825590600052602060002090810190611e5c91905b808211156126455760008155600101612631565b5090565b600082601f830112612659578081fd5b813567ffffffffffffffff81111561267357612673612f3f565b612686601f8201601f1916602001612e7b565b81815284602083860101111561269a578283fd5b816020850160208301379081016020019190915292915050565b6000602082840312156126c5578081fd5b813561093981612f55565b6000602082840312156126e1578081fd5b815161093981612f55565b60008060008060008060c08789031215612704578182fd5b863561270f81612f55565b955060208781013561272081612f55565b9550604088013561273081612f55565b9450606088013561274081612f55565b93506080880135925060a088013567ffffffffffffffff80821115612763578384fd5b818a0191508a601f830112612776578384fd5b81358181111561278857612788612f3f565b8381029150612798848301612e7b565b8181528481019084860184860187018f10156127b2578788fd5b8795505b838610156127d45780358352600195909501949186019186016127b6565b508096505050505050509295509295509295565b600080600080608085870312156127fd578384fd5b843561280881612f55565b9350602085013561281881612f55565b9250604085013561282881612f55565b9396929550929360600135925050565b60008060008060008060c08789031215612850578182fd5b863561285b81612f55565b9550602087013561286b81612f55565b9450604087013561287b81612f55565b935060608701359250608087013561289281612f55565b8092505060a087013590509295509295509295565b6000806000606084860312156128bb578283fd5b83356128c681612f55565b925060208401356128d681612f55565b929592945050506040919091013590565b600080600080600060a086880312156128fe578081fd5b853561290981612f55565b9450602086013561291981612f55565b93506040860135925060608601359150608086013561293781612f55565b809150509295509295909350565b600060208284031215612956578081fd5b81518015158114610939578182fd5b600080600080600060a0868803121561297c578283fd5b853567ffffffffffffffff811115612992578384fd5b61299e88828901612649565b955050602086013593506040860135925060608601356129bd81612f55565b9150608086013561293781612f55565b6000602082840312156129de578081fd5b5051919050565b6000815180845260208085019450808401835b83811015612a14578151875295820195908201906001016129f8565b509495945050505050565b15159052565b60008151808452815b81811015612a4a57602081850181015186830182015201612a2e565b81811115612a5b5782602083870101525b50601f01601f19169290920160200192915050565b8051608080845281519084018190526000916020919082019060a0860190845b81811015612ab55783516001600160a01b031683529284019291840191600101612a90565b505082850151915085810383870152612ace81836129e5565b9250505060408301518482036040860152612ae98282612a25565b9150506060830151612afe6060860182612a1f565b509392505050565b6001600160a01b0391909116815260200190565b6001600160a01b039384168152919092166020820152604081019190915260600190565b6001600160a01b03929092168252602082015260400190565b6001600160a01b0396871681526020810195909552604085019390935293166060830152608082019290925260a081019190915260c00190565b901515815260200190565b8481526001600160a01b03848116602083015283166040820152608060608201819052600090612bce90830184612a70565b9695505050505050565b600060408252612beb6040830185612a25565b905060058310612bfd57612bfd612f29565b8260208301529392505050565b600060408252612c1d6040830185612a25565b905060038310612bfd57612bfd612f29565b60208082526015908201527422a9291d24b73b30b634b2103230ba30ba37b5b2b760591b604082015260600190565b6020808252600b908201526a135a5b9d0819985a5b195960aa1b604082015260600190565b6020808252601d908201527f4552523a6d6178546f6b656e416d6f756e74496e206e6f74206d656574000000604082015260600190565b6020808252601e908201527f576520617265206e6f742074686520706f6f6c20636f6e74726f6c6c65720000604082015260600190565b602080825260139082015272496e76616c696420706f6f6c4164647265737360681b604082015260600190565b6020808252601a908201527f4552523a204e6f7420696e206275726e2d696e20706572696f64000000000000604082015260600190565b6020808252601c908201527f4552523a204f6e6c7920706f6f6c2063616e2063616c6c207468697300000000604082015260600190565b6020808252601b908201527f42617365546f6b656e2061646472657373206d6973736d617463680000000000604082015260600190565b6020808252601b908201527f44617461546f6b656e2061646472657373206d6973736d617463680000000000604082015260600190565b60208082526021908201527f4552523a204f6e6c79207075626c69736865722063616e2063616c6c207468696040820152607360f81b606082015260800190565b60208082526019908201527f4552523a6d696e416d6f756e744f7574206e6f74206d65657400000000000000604082015260600190565b90815260200190565b60405181810167ffffffffffffffff81118282101715612e9d57612e9d612f3f565b604052919050565b60008219821115612eb857612eb8612f13565b500190565b600082612ed857634e487b7160e01b81526012600452602481fd5b500490565b6000816000190483118215151615612ef757612ef7612f13565b500290565b600082821015612f0e57612f0e612f13565b500390565b634e487b7160e01b600052601160045260246000fd5b634e487b7160e01b600052602160045260246000fd5b634e487b7160e01b600052604160045260246000fd5b6001600160a01b0381168114611e5c57600080fdfea2646970667358221220d09a8b48eb15fdab23271ce659f20e6bcdf58ed12cc338b41b4f3e3df43e19f164736f6c63430008000033",
  "linkReferences": {},
  "deployedLinkReferences": {}
}