{
  "_format": "hh-sol-artifact-1",
  "contractName": "ssFixedRateV2",
  "sourceName": "contracts/ssContracts/ssFixedRateV2.sol",
  "abi": [
    {
      "inputs": [],
      "stateMutability": "nonpayable",
      "type": "constructor"
    },
    {
      "inputs": [
        {
          "internalType": "address",
          "name": "datatokenAddress",
          "type": "address"
        },
        {
          "internalType": "address",
          "name": "stakeToken",
          "type": "address"
        },
        {
          "internalType": "uint256",
          "name": "amount",
          "type": "uint256"
        }
      ],
      "name": "Stake",
      "outputs": [],
      "stateMutability": "nonpayable",
      "type": "function"
    },
    {
      "inputs": [
        {
          "internalType": "address",
          "name": "datatokenAddress",
          "type": "address"
        },
        {
          "internalType": "address",
          "name": "stakeToken",
          "type": "address"
        },
        {
          "internalType": "uint256",
          "name": "amount",
          "type": "uint256"
        }
      ],
      "name": "UnStake",
      "outputs": [],
      "stateMutability": "nonpayable",
      "type": "function"
    },
    {
      "inputs": [
        {
          "internalType": "address",
          "name": "datatokenAddress",
          "type": "address"
        },
        {
          "internalType": "address",
          "name": "basetoken",
          "type": "address"
        },
        {
          "internalType": "uint256",
          "name": "datatokenAmount",
          "type": "uint256"
        },
        {
          "internalType": "uint256",
          "name": "basetokenAmount",
          "type": "uint256"
        },
        {
          "internalType": "address",
          "name": "userAddress",
          "type": "address"
        }
      ],
      "name": "allowStake",
      "outputs": [
        {
          "internalType": "bool",
          "name": "",
          "type": "bool"
        }
      ],
      "stateMutability": "view",
      "type": "function"
    },
    {
      "inputs": [
        {
          "internalType": "address",
          "name": "datatokenAddress",
          "type": "address"
        },
        {
          "internalType": "address",
          "name": "basetoken",
          "type": "address"
        },
        {
          "internalType": "uint256",
          "name": "datatokenAmount",
          "type": "uint256"
        },
        {
          "internalType": "uint256",
          "name": "basetokenAmount",
          "type": "uint256"
        },
        {
          "internalType": "address",
          "name": "userAddress",
          "type": "address"
        }
      ],
      "name": "allowUnStake",
      "outputs": [
        {
          "internalType": "bool",
          "name": "",
          "type": "bool"
        }
      ],
      "stateMutability": "view",
      "type": "function"
    },
    {
      "inputs": [
        {
          "internalType": "address",
          "name": "datatokenAddress",
          "type": "address"
        },
        {
          "internalType": "address",
          "name": "tokenIn",
          "type": "address"
        },
        {
          "internalType": "address",
          "name": "tokenOut",
          "type": "address"
        },
        {
          "internalType": "uint256",
          "name": "tokenAmountOut",
          "type": "uint256"
        }
      ],
      "name": "calcInGivenOut",
      "outputs": [
        {
          "internalType": "uint256",
          "name": "",
          "type": "uint256"
        }
      ],
      "stateMutability": "view",
      "type": "function"
    },
    {
      "inputs": [
        {
          "internalType": "address",
          "name": "datatokenAddress",
          "type": "address"
        },
        {
          "internalType": "address",
          "name": "tokenIn",
          "type": "address"
        },
        {
          "internalType": "address",
          "name": "tokenOut",
          "type": "address"
        },
        {
          "internalType": "uint256",
          "name": "tokenAmountIn",
          "type": "uint256"
        }
      ],
      "name": "calcOutGivenIn",
      "outputs": [
        {
          "internalType": "uint256",
          "name": "",
          "type": "uint256"
        }
      ],
      "stateMutability": "view",
      "type": "function"
    },
    {
      "inputs": [
        {
          "internalType": "address",
          "name": "datatokenAddress",
          "type": "address"
        },
        {
          "internalType": "address",
          "name": "stakeToken",
          "type": "address"
        },
        {
          "internalType": "uint256",
          "name": "amount",
          "type": "uint256"
        }
      ],
      "name": "canStake",
      "outputs": [
        {
          "internalType": "bool",
          "name": "",
          "type": "bool"
        }
      ],
      "stateMutability": "view",
      "type": "function"
    },
    {
      "inputs": [
        {
          "internalType": "address",
          "name": "datatokenAddress",
          "type": "address"
        },
        {
          "internalType": "address",
          "name": "stakeToken",
          "type": "address"
        },
        {
          "internalType": "uint256",
          "name": "amount",
          "type": "uint256"
        }
      ],
      "name": "canUnStake",
      "outputs": [
        {
          "internalType": "bool",
          "name": "",
          "type": "bool"
        }
      ],
      "stateMutability": "view",
      "type": "function"
    },
    {
      "inputs": [
        {
          "internalType": "address",
          "name": "datatokenAddress",
          "type": "address"
        }
      ],
      "name": "getBaseTokenAddress",
      "outputs": [
        {
          "internalType": "address",
          "name": "",
          "type": "address"
        }
      ],
      "stateMutability": "view",
      "type": "function"
    },
    {
      "inputs": [
        {
          "internalType": "address",
          "name": "datatokenAddress",
          "type": "address"
        }
      ],
      "name": "getBaseTokenBalance",
      "outputs": [
        {
          "internalType": "uint256",
          "name": "",
          "type": "uint256"
        }
      ],
      "stateMutability": "view",
      "type": "function"
    },
    {
      "inputs": [
        {
          "internalType": "address",
          "name": "poolAddress",
          "type": "address"
        }
      ],
      "name": "getDTAddress",
      "outputs": [
        {
          "internalType": "address",
          "name": "",
          "type": "address"
        }
      ],
      "stateMutability": "view",
      "type": "function"
    },
    {
      "inputs": [
        {
          "internalType": "address",
          "name": "datatokenAddress",
          "type": "address"
        }
      ],
      "name": "getDataTokenBalance",
      "outputs": [
        {
          "internalType": "uint256",
          "name": "",
          "type": "uint256"
        }
      ],
      "stateMutability": "view",
      "type": "function"
    },
    {
      "inputs": [
        {
          "internalType": "address",
          "name": "datatokenAddress",
          "type": "address"
        }
      ],
      "name": "getDataTokenCirculatingSupply",
      "outputs": [
        {
          "internalType": "uint256",
          "name": "",
          "type": "uint256"
        }
      ],
      "stateMutability": "view",
      "type": "function"
    },
    {
      "inputs": [
        {
          "internalType": "address",
          "name": "datatokenAddress",
          "type": "address"
        }
      ],
      "name": "getPoolAddress",
      "outputs": [
        {
          "internalType": "address",
          "name": "",
          "type": "address"
        }
      ],
      "stateMutability": "view",
      "type": "function"
    },
    {
      "inputs": [
        {
          "internalType": "address",
          "name": "datatokenAddress",
          "type": "address"
        }
      ],
      "name": "getPublisherAddress",
      "outputs": [
        {
          "internalType": "address",
          "name": "",
          "type": "address"
        }
      ],
      "stateMutability": "view",
      "type": "function"
    },
    {
      "inputs": [
        {
          "internalType": "address",
          "name": "datatokenAddress",
          "type": "address"
        }
      ],
      "name": "getVesting",
      "outputs": [],
      "stateMutability": "nonpayable",
      "type": "function"
    },
    {
      "inputs": [
        {
          "internalType": "address",
          "name": "datatokenAddress",
          "type": "address"
        }
      ],
      "name": "getburnInEndBlock",
      "outputs": [
        {
          "internalType": "uint256",
          "name": "",
          "type": "uint256"
        }
      ],
      "stateMutability": "view",
      "type": "function"
    },
    {
      "inputs": [
        {
          "internalType": "address",
          "name": "datatokenAddress",
          "type": "address"
        }
      ],
      "name": "getvestingAmount",
      "outputs": [
        {
          "internalType": "uint256",
          "name": "",
          "type": "uint256"
        }
      ],
      "stateMutability": "view",
      "type": "function"
    },
    {
      "inputs": [
        {
          "internalType": "address",
          "name": "datatokenAddress",
          "type": "address"
        }
      ],
      "name": "getvestingAmountSoFar",
      "outputs": [
        {
          "internalType": "uint256",
          "name": "",
          "type": "uint256"
        }
      ],
      "stateMutability": "view",
      "type": "function"
    },
    {
      "inputs": [
        {
          "internalType": "address",
          "name": "datatokenAddress",
          "type": "address"
        }
      ],
      "name": "getvestingEndBlock",
      "outputs": [
        {
          "internalType": "uint256",
          "name": "",
          "type": "uint256"
        }
      ],
      "stateMutability": "view",
      "type": "function"
    },
    {
      "inputs": [
        {
          "internalType": "address",
          "name": "datatokenAddress",
          "type": "address"
        }
      ],
      "name": "getvestingLastBlock",
      "outputs": [
        {
          "internalType": "uint256",
          "name": "",
          "type": "uint256"
        }
      ],
      "stateMutability": "view",
      "type": "function"
    },
    {
      "inputs": [
        {
          "internalType": "address",
          "name": "datatokenAddress",
          "type": "address"
        }
      ],
      "name": "isInBurnIn",
      "outputs": [
        {
          "internalType": "bool",
          "name": "",
          "type": "bool"
        }
      ],
      "stateMutability": "view",
      "type": "function"
    },
    {
      "inputs": [
        {
          "internalType": "address",
          "name": "datatokenAddress",
          "type": "address"
        },
        {
          "internalType": "address",
          "name": "basetokenAddress",
          "type": "address"
        },
        {
          "internalType": "address",
          "name": "poolAddress",
          "type": "address"
        },
        {
          "internalType": "address",
          "name": "publisherAddress",
          "type": "address"
        },
        {
          "internalType": "uint256",
          "name": "burnInEndBlock",
          "type": "uint256"
        },
        {
          "internalType": "uint256[]",
          "name": "ssParams",
          "type": "uint256[]"
        }
      ],
      "name": "newDataTokenCreated",
      "outputs": [
        {
          "internalType": "bool",
          "name": "",
          "type": "bool"
        }
      ],
      "stateMutability": "nonpayable",
      "type": "function"
    },
    {
      "inputs": [
        {
          "internalType": "address",
          "name": "datatokenAddress",
          "type": "address"
        }
      ],
      "name": "notifyFinalize",
      "outputs": [],
      "stateMutability": "nonpayable",
      "type": "function"
    },
    {
      "inputs": [
        {
          "internalType": "bytes32",
          "name": "poolId",
          "type": "bytes32"
        },
        {
          "internalType": "contract IERC20[]",
          "name": "tokens",
          "type": "address[]"
        },
        {
          "internalType": "uint256[]",
          "name": "maxAmountsIn",
          "type": "uint256[]"
        },
        {
          "internalType": "bytes",
          "name": "userDataStake",
          "type": "bytes"
        },
        {
          "internalType": "uint256",
          "name": "amountInDT",
          "type": "uint256"
        }
      ],
      "name": "stake",
      "outputs": [],
      "stateMutability": "nonpayable",
      "type": "function"
    },
    {
      "inputs": [
        {
          "internalType": "address",
          "name": "datatokenAddress",
          "type": "address"
        },
        {
          "internalType": "address",
          "name": "userAddress",
          "type": "address"
        },
        {
          "internalType": "address",
          "name": "tokenIn",
          "type": "address"
        },
        {
          "internalType": "uint256",
          "name": "tokenAmountIn",
          "type": "uint256"
        },
        {
          "internalType": "address",
          "name": "tokenOut",
          "type": "address"
        },
        {
          "internalType": "uint256",
          "name": "minAmountOut",
          "type": "uint256"
        }
      ],
      "name": "swapExactAmountIn",
      "outputs": [
        {
          "internalType": "uint256",
          "name": "tokenAmountOut",
          "type": "uint256"
        }
      ],
      "stateMutability": "nonpayable",
      "type": "function"
    },
    {
      "inputs": [
        {
          "internalType": "address",
          "name": "datatokenAddress",
          "type": "address"
        },
        {
          "internalType": "address",
          "name": "userAddress",
          "type": "address"
        },
        {
          "internalType": "address",
          "name": "tokenIn",
          "type": "address"
        },
        {
          "internalType": "uint256",
          "name": "maxTokenAmountIn",
          "type": "uint256"
        },
        {
          "internalType": "address",
          "name": "tokenOut",
          "type": "address"
        },
        {
          "internalType": "uint256",
          "name": "amountOut",
          "type": "uint256"
        }
      ],
      "name": "swapExactAmountOut",
      "outputs": [
        {
          "internalType": "uint256",
          "name": "tokenAmountIn",
          "type": "uint256"
        }
      ],
      "stateMutability": "nonpayable",
      "type": "function"
    }
  ],
  "bytecode": "0x6080604052600280546001600160a01b03191673ba12222222228d8ba445958a75a0704d566bf2c817905534801561003657600080fd5b50612f07806100466000396000f3fe608060405234801561001057600080fd5b50600436106101a95760003560e01c806399039fcf116100f9578063cf268dea11610097578063f03cd39611610071578063f03cd39614610382578063f09a9c0514610395578063fa93fd6d146103a8578063fc943920146103bb576101a9565b8063cf268dea14610349578063e0b663c81461035c578063efd481031461036f576101a9565b8063c1b4904d116100d3578063c1b4904d146102fd578063c4be249014610310578063cc49ede714610323578063ccda98c714610336576101a9565b806399039fcf146102c2578063bccf74fe146102d7578063bee3913d146102ea576101a9565b806330c1570111610166578063799ece8511610140578063799ece85146102895780637eaf89011461020a57806388afadce1461029c57806392f6cb67146102af576101a9565b806330c15701146102505780633e6d363f146102635780634f3e66dc14610276576101a9565b80630734b5b1146101ae5780631228cbee146101d75780631f16cde6146101f757806324571dd71461020a5780632686375b1461021d57806326b1f01f1461023d575b600080fd5b6101c16101bc366004612632565b6103ce565b6040516101ce9190612a9a565b60405180910390f35b6101ea6101e5366004612632565b61042f565b6040516101ce9190612a0f565b6101ea610205366004612632565b61047f565b6101c16102183660046127f7565b6104d3565b61023061022b366004612632565b61056e565b6040516101ce9190612db0565b6101c161024b3660046127b7565b6105ba565b61023061025e366004612748565b610751565b610230610271366004612748565b610a32565b6101c161028436600461266a565b610cb4565b610230610297366004612632565b61156e565b6102306102aa366004612632565b6115ba565b6102306102bd3660046126f8565b61161a565b6102d56102d03660046127b7565b61165d565b005b6102306102e5366004612632565b6117b3565b6102306102f83660046126f8565b6117ff565b61023061030b366004612632565b611837565b61023061031e366004612632565b611883565b6102d5610331366004612632565b6118cf565b6102d5610344366004612875565b611b21565b6102d56103573660046127b7565b611d4b565b6101ea61036a366004612632565b611e08565b6101c161037d3660046127b7565b611e26565b610230610390366004612632565b611ecc565b6102306103a3366004612632565b611f18565b6101ea6103b6366004612632565b611f64565b6102d56103c9366004612632565b611fb5565b6001600160a01b038116600090815260016020819052604082205460ff161515146103fb5750600061042a565b6001600160a01b0382166000908152600160205260409020600601544311156104265750600061042a565b5060015b919050565b6001600160a01b038116600090815260016020819052604082205460ff1615151461045c5750600061042a565b506001600160a01b03908116600090815260016020819052604090912001541690565b6001600160a01b038116600090815260016020819052604082205460ff161515146104ac5750600061042a565b506001600160a01b0390811660009081526001602052604090206008015461010090041690565b6001600160a01b038516600090815260016020819052604082205460ff1615151461050057506000610565565b6001600160a01b03868116600090815260016020819052604090912001541633146105465760405162461bcd60e51b815260040161053d90612c93565b60405180910390fd5b61054f866103ce565b15156001141561056157506000610565565b5060015b95945050505050565b6001600160a01b038116600090815260016020819052604082205460ff1615151461059b5750600061042a565b506001600160a01b03166000908152600160205260409020600b015490565b6001600160a01b038316600090815260016020819052604082205460ff161515146105e75750600061074a565b6001600160a01b03848116600090815260016020819052604090912001541633146106245760405162461bcd60e51b815260040161053d90612c93565b6001600160a01b03841660009081526001602081905260409091205460ff161515146106525750600061074a565b6001600160a01b038481166000908152600160205260409020546101009004811690841614156106845750600061074a565b6040516370a0823160e01b815284906000906001600160a01b038316906370a08231906106b5903090600401612a0f565b60206040518083038186803b1580156106cd57600080fd5b505afa1580156106e1573d6000803e3d6000fd5b505050506040513d601f19601f82011682018060405250810190610705919061296c565b6001600160a01b03871660009081526001602052604090206002015490915084118015906107335750838110155b156107435760019250505061074a565b6000925050505b9392505050565b6001600160a01b038616600090815260016020819052604082205460ff1615151461078e5760405162461bcd60e51b815260040161053d90612b6d565b6001600160a01b03878116600090815260016020819052604090912001541633146107cb5760405162461bcd60e51b815260040161053d90612c93565b6107d4876103ce565b15156001146107f55760405162461bcd60e51b815260040161053d90612c5c565b610801878685856117ff565b9050838111156108235760405162461bcd60e51b815260040161053d90612bc1565b6001600160a01b03878116600090815260016020819052604091829020015490516323b872dd60e01b81528792808416926323b872dd9261086f92919091169030908790600401612a23565b602060405180830381600087803b15801561088957600080fd5b505af115801561089d573d6000803e3d6000fd5b505050506040513d601f19601f820116820180604052508101906108c19190612855565b50876001600160a01b0316866001600160a01b03161415610942576001600160a01b03881660009081526001602052604081206004018054859290610907908490612e07565b90915550506001600160a01b03881660009081526001602052604081206002018054849290610937908490612e07565b909155506109a39050565b6001600160a01b0388166000908152600160205260408120600201805485929061096d908490612e07565b90915550506001600160a01b0388166000908152600160205260408120600401805484929061099d908490612e07565b90915550505b60405163a9059cbb60e01b815284906001600160a01b0382169063a9059cbb906109d3908b908890600401612a47565b602060405180830381600087803b1580156109ed57600080fd5b505af1158015610a01573d6000803e3d6000fd5b505050506040513d601f19601f82011682018060405250810190610a259190612855565b5050509695505050505050565b6001600160a01b038616600090815260016020819052604082205460ff16151514610a6f5760405162461bcd60e51b815260040161053d90612b6d565b6001600160a01b0387811660009081526001602081905260409091200154163314610aac5760405162461bcd60e51b815260040161053d90612c93565b610ab5876103ce565b1515600114610ad65760405162461bcd60e51b815260040161053d90612c5c565b610ae28786858761161a565b905081811015610b045760405162461bcd60e51b815260040161053d90612d79565b6001600160a01b03878116600090815260016020819052604091829020015490516323b872dd60e01b81528792808416926323b872dd92610b5092919091169030908a90600401612a23565b602060405180830381600087803b158015610b6a57600080fd5b505af1158015610b7e573d6000803e3d6000fd5b505050506040513d601f19601f82011682018060405250810190610ba29190612855565b50876001600160a01b0316866001600160a01b03161415610c23576001600160a01b03881660009081526001602052604081206004018054849290610be8908490612e07565b90915550506001600160a01b03881660009081526001602052604081206002018054879290610c18908490612e07565b90915550610c849050565b6001600160a01b03881660009081526001602052604081206002018054849290610c4e908490612e07565b90915550506001600160a01b03881660009081526001602052604081206004018054879290610c7e908490612e07565b90915550505b60405163a9059cbb60e01b815284906001600160a01b0382169063a9059cbb906109d3908b908790600401612a47565b60006001600160a01b038516610cdc5760405162461bcd60e51b815260040161053d90612c2f565b6000859050306001600160a01b0316816001600160a01b0316633018205f6040518163ffffffff1660e01b815260040160206040518083038186803b158015610d2457600080fd5b505afa158015610d38573d6000803e3d6000fd5b505050506040513d601f19601f82011682018060405250810190610d5c919061264e565b6001600160a01b031614610d825760405162461bcd60e51b815260040161053d90612bf8565b876001600160a01b0316816001600160a01b03166304ad79546040518163ffffffff1660e01b815260040160206040518083038186803b158015610dc557600080fd5b505afa158015610dd9573d6000803e3d6000fd5b505050506040513d601f19601f82011682018060405250810190610dfd919061264e565b6001600160a01b031614610e235760405162461bcd60e51b815260040161053d90612d01565b866001600160a01b0316816001600160a01b0316634df947d06040518163ffffffff1660e01b815260040160206040518083038186803b158015610e6657600080fd5b505afa158015610e7a573d6000803e3d6000fd5b505050506040513d601f19601f82011682018060405250810190610e9e919061264e565b6001600160a01b031614610ec45760405162461bcd60e51b815260040161053d90612cca565b6000889050306001600160a01b0316816001600160a01b031663075461726040518163ffffffff1660e01b815260040160206040518083038186803b158015610f0c57600080fd5b505afa158015610f20573d6000803e3d6000fd5b505050506040513d601f19601f82011682018060405250810190610f44919061264e565b6001600160a01b031614610f6a5760405162461bcd60e51b815260040161053d90612cca565b806001600160a01b03166340c10f1930836001600160a01b03166318160ddd6040518163ffffffff1660e01b815260040160206040518083038186803b158015610fb357600080fd5b505afa158015610fc7573d6000803e3d6000fd5b505050506040513d601f19601f82011682018060405250810190610feb919061296c565b6040518363ffffffff1660e01b8152600401611008929190612a47565b600060405180830381600087803b15801561102257600080fd5b505af1158015611036573d6000803e3d6000fd5b50505050806001600160a01b03166318160ddd6040518163ffffffff1660e01b815260040160206040518083038186803b15801561107357600080fd5b505afa158015611087573d6000803e3d6000fd5b505050506040513d601f19601f820116820180604052508101906110ab919061296c565b6040516370a0823160e01b81526001600160a01b038316906370a08231906110d7903090600401612a0f565b60206040518083038186803b1580156110ef57600080fd5b505afa158015611103573d6000803e3d6000fd5b505050506040513d601f19601f82011682018060405250810190611127919061296c565b146111445760405162461bcd60e51b815260040161053d90612b9c565b60008460008151811061116757634e487b7160e01b600052603260045260246000fd5b6020026020010151905060008560018151811061119457634e487b7160e01b600052603260045260246000fd5b6020026020010151600014156111ac575060006111b0565b5060015b6000866002815181106111d357634e487b7160e01b600052603260045260246000fd5b6020026020010151905060008760038151811061120057634e487b7160e01b600052603260045260246000fd5b6020026020010151436112139190612e07565b90506040518061022001604052806001151581526020018d6001600160a01b031681526020018c6001600160a01b03168152602001600015158152602001866001600160a01b03166318160ddd6040518163ffffffff1660e01b815260040160206040518083038186803b15801561128a57600080fd5b505afa15801561129e573d6000803e3d6000fd5b505050506040513d601f19601f820116820180604052508101906112c2919061296c565b8152602001866001600160a01b031663355274ea6040518163ffffffff1660e01b815260040160206040518083038186803b15801561130057600080fd5b505afa158015611314573d6000803e3d6000fd5b505050506040513d601f19601f82011682018060405250810190611338919061296c565b815260200160008152602001600081526020018a815260200185815260200184151581526020018b6001600160a01b031681526020014381526020018281526020018381526020014381526020016000815250600160008f6001600160a01b03166001600160a01b0316815260200190815260200160002060008201518160000160006101000a81548160ff02191690831515021790555060208201518160000160016101000a8154816001600160a01b0302191690836001600160a01b0316021790555060408201518160010160006101000a8154816001600160a01b0302191690836001600160a01b0316021790555060608201518160010160146101000a81548160ff0219169083151502179055506080820151816002015560a0820151816003015560c0820151816004015560e08201518160050155610100820151816006015561012082015181600701556101408201518160080160006101000a81548160ff0219169083151502179055506101608201518160080160016101000a8154816001600160a01b0302191690836001600160a01b0316021790555061018082015181600901556101a082015181600a01556101c082015181600b01556101e082015181600c015561020082015181600d01559050508c6000808d6001600160a01b03166001600160a01b0316815260200190815260200160002060006101000a8154816001600160a01b0302191690836001600160a01b03160217905550600196505050505050509695505050505050565b6001600160a01b038116600090815260016020819052604082205460ff1615151461159b5750600061042a565b506001600160a01b03166000908152600160205260409020600a015490565b6001600160a01b038116600090815260016020819052604082205460ff161515146115e75750600061042a565b6001600160a01b038216600090815260016020526040902060028101546003909101546116149190612e5e565b92915050565b6001600160a01b038416600090815260016020819052604082205460ff1615151461164757506000611655565b611652848484612333565b90505b949350505050565b6001600160a01b03831660009081526001602081905260409091205460ff16151514611688576117ae565b6001600160a01b03838116600090815260016020819052604090912001541633146116c55760405162461bcd60e51b815260040161053d90612c93565b60006116d28484846105ba565b90506001811515146116e457506117ae565b6001600160a01b038085166000818152600160208190526040918290200154905163095ea7b360e01b8152879363095ea7b392611728929116908790600401612a47565b602060405180830381600087803b15801561174257600080fd5b505af1158015611756573d6000803e3d6000fd5b505050506040513d601f19601f8201168201806040525081019061177a9190612855565b506001600160a01b038516600090815260016020526040812060020180548592906117a6908490612e5e565b909155505050505b505050565b6001600160a01b038116600090815260016020819052604082205460ff161515146117e05750600061042a565b506001600160a01b03166000908152600160205260409020600d015490565b6001600160a01b038416600090815260016020819052604082205460ff1615151461182c57506000611655565b611652848484612429565b6001600160a01b038116600090815260016020819052604082205460ff161515146118645750600061042a565b506001600160a01b031660009081526001602052604090206002015490565b6001600160a01b038116600090815260016020819052604082205460ff161515146118b05750600061042a565b506001600160a01b031660009081526001602052604090206004015490565b6001600160a01b03811660009081526001602081905260409091205460ff1615151461190d5760405162461bcd60e51b815260040161053d90612b6d565b6001600160a01b03818116600090815260016020526040902060080154610100900416331461194e5760405162461bcd60e51b815260040161053d90612d38565b6001600160a01b0381166000908152600160205260408120600c01546119749043612e5e565b6001600160a01b03831660009081526001602052604081206009810154600a9091015492935090916119cb916119a991612e5e565b6001600160a01b0385166000908152600160205260409020600b015490612511565b9050806119d9575050611b1e565b60006119e5838361251d565b9050600081118015611a1257506001600160a01b0384166000908152600160205260409020600201548111155b15611b1a576001600160a01b0384166000908152600160205260408120600b0180548692849291611a44908490612e07565b90915550506001600160a01b038086166000908152600160205260409081902043600c82015560080154905163a9059cbb60e01b81528383169263a9059cbb92611a9c92610100909104909116908690600401612a47565b602060405180830381600087803b158015611ab657600080fd5b505af1158015611aca573d6000803e3d6000fd5b505050506040513d601f19601f82011682018060405250810190611aee9190612855565b506001600160a01b038516600090815260016020526040812060020180548492906117a6908490612e5e565b5050505b50565b6000611b2c33611e08565b6001600160a01b03166370a08231306040518263ffffffff1660e01b8152600401611b579190612a0f565b60206040518083038186803b158015611b6f57600080fd5b505afa158015611b83573d6000803e3d6000fd5b505050506040513d601f19601f82011682018060405250810190611ba7919061296c565b9050818110611d435760005b8551811015611c4b576000868281518110611bde57634e487b7160e01b600052603260045260246000fd5b6020908102919091010151600380546001810182556000919091527fc2575a0e9e593c00f959f8c92f12db2869c3395a3b0502d05e2516446f71f85b0180546001600160a01b0319166001600160a01b039092169190911790555080611c4381612e75565b915050611bb3565b50604080516003805460a06020820284018101909452608083018181526000948493919290840182828015611ca957602002820191906000526020600020905b81546001600160a01b03168152600190910190602001808311611c8b575b50505091835250506020810187905260408082018790526000606090920191909152600254905163172b958560e31b81529192506001600160a01b03169063b95cac2890611d01908a90309081908790600401612aa5565b600060405180830381600087803b158015611d1b57600080fd5b505af1158015611d2f573d6000803e3d6000fd5b5050505060036000611d419190612529565b505b505050505050565b6001600160a01b03831660009081526001602081905260409091205460ff16151514611d76576117ae565b6001600160a01b0383811660009081526001602081905260409091200154163314611db35760405162461bcd60e51b815260040161053d90612c93565b6000611dc0848484611e26565b9050600181151514611dd257506117ae565b6001600160a01b03841660009081526001602052604081206002018054849290611dfd908490612e07565b909155505050505050565b6001600160a01b039081166000908152602081905260409020541690565b6001600160a01b038316600090815260016020819052604082205460ff16151514611e535750600061074a565b6001600160a01b0384811660009081526001602081905260409091200154163314611e905760405162461bcd60e51b815260040161053d90612c93565b6001600160a01b03848116600090815260016020526040902054610100900481169084161415611ec25750600061074a565b5060019392505050565b6001600160a01b038116600090815260016020819052604082205460ff16151514611ef95750600061042a565b506001600160a01b03166000908152600160205260409020600c015490565b6001600160a01b038116600090815260016020819052604082205460ff16151514611f455750600061042a565b506001600160a01b031660009081526001602052604090206006015490565b6001600160a01b038116600090815260016020819052604082205460ff16151514611f915750600061042a565b506001600160a01b0390811660009081526001602052604090205461010090041690565b6001600160a01b03811660009081526001602081905260409091205460ff16151514611fe057611b1e565b6001600160a01b038181166000908152600160208190526040909120015416331461201d5760405162461bcd60e51b815260040161053d90612c93565b6001600160a01b0381166000908152600160208190526040909120810154600160a01b900460ff161515141561205257611b1e565b6001600160a01b0381166000908152600160208190526040822001805460ff60a01b1916600160a01b179055612091670de0b6b3a76400006005612e3f565b905060006120a8670de0b6b3a76400006005612e3f565b6001600160a01b038416600090815260016020526040812060040154919250826120d28584612e1f565b6001600160a01b0387166000908152600160205260409020600701546120f89190612e3f565b6121029190612e3f565b6001600160a01b038087166000818152600160208190526040918290200154905163095ea7b360e01b81529394508893919263095ea7b39261214c92909116908690600401612a47565b602060405180830381600087803b15801561216657600080fd5b505af115801561217a573d6000803e3d6000fd5b505050506040513d601f19601f8201168201806040525081019061219e9190612855565b506001600160a01b038087166000908152600160205260409081902054905163095ea7b360e01b815261010090910490911690819063095ea7b3906121e99083908890600401612a47565b602060405180830381600087803b15801561220357600080fd5b505af1158015612217573d6000803e3d6000fd5b505050506040513d601f19601f8201168201806040525081019061223b9190612855565b506001600160a01b0380881660009081526001602081905260409182902090810154905491516309ef3f5b60e01b81529083169283926309ef3f5b92612297928d928a928d92610100909204909116908c908f90600401612a60565b600060405180830381600087803b1580156122b157600080fd5b505af11580156122c5573d6000803e3d6000fd5b505050506001600160a01b038816600090815260016020526040812060040180548792906122f4908490612e5e565b90915550506001600160a01b03881660009081526001602052604081206002018054869290612324908490612e5e565b90915550505050505050505050565b6001600160a01b038316600090815260016020819052604082205460ff16151514156123c6576001600160a01b03841660009081526001602052604090206008015460ff166123845750600061074a565b6001600160a01b0384166000908152600160205260409020600701546123bf90670de0b6b3a7640000906123b990859061251d565b90612511565b905061074a565b6001600160a01b03831660009081526001602081905260409091205460ff161515141561241f576001600160a01b0384166000908152600160205260409020600701546123bf906123b984670de0b6b3a764000061251d565b5060009392505050565b6001600160a01b038316600090815260016020819052604082205460ff16151514156124b5576001600160a01b03841660009081526001602052604090206008015460ff1661247a5750600061074a565b6001600160a01b0384166000908152600160205260408120600701546124ac906123b985670de0b6b3a764000061251d565b915061074a9050565b6001600160a01b03831660009081526001602081905260409091205460ff161515141561241f576001600160a01b0384166000908152600160205260408120600701546124ac90670de0b6b3a7640000906123b990869061251d565b600061074a8284612e1f565b600061074a8284612e3f565b5080546000825590600052602060002090810190611b1e91905b808211156125575760008155600101612543565b5090565b600082601f83011261256b578081fd5b8135602061258061257b83612de3565b612db9565b828152818101908583018385028701840188101561259c578586fd5b855b858110156125ba5781358452928401929084019060010161259e565b5090979650505050505050565b600082601f8301126125d7578081fd5b813567ffffffffffffffff8111156125f1576125f1612ea6565b612604601f8201601f1916602001612db9565b818152846020838601011115612618578283fd5b816020850160208301379081016020019190915292915050565b600060208284031215612643578081fd5b813561074a81612ebc565b60006020828403121561265f578081fd5b815161074a81612ebc565b60008060008060008060c08789031215612682578182fd5b863561268d81612ebc565b9550602087013561269d81612ebc565b945060408701356126ad81612ebc565b935060608701356126bd81612ebc565b92506080870135915060a087013567ffffffffffffffff8111156126df578182fd5b6126eb89828a0161255b565b9150509295509295509295565b6000806000806080858703121561270d578384fd5b843561271881612ebc565b9350602085013561272881612ebc565b9250604085013561273881612ebc565b9396929550929360600135925050565b60008060008060008060c08789031215612760578182fd5b863561276b81612ebc565b9550602087013561277b81612ebc565b9450604087013561278b81612ebc565b93506060870135925060808701356127a281612ebc565b8092505060a087013590509295509295509295565b6000806000606084860312156127cb578283fd5b83356127d681612ebc565b925060208401356127e681612ebc565b929592945050506040919091013590565b600080600080600060a0868803121561280e578081fd5b853561281981612ebc565b9450602086013561282981612ebc565b93506040860135925060608601359150608086013561284781612ebc565b809150509295509295909350565b600060208284031215612866578081fd5b8151801515811461074a578182fd5b600080600080600060a0868803121561288c578283fd5b8535945060208087013567ffffffffffffffff808211156128ab578586fd5b818901915089601f8301126128be578586fd5b81356128cc61257b82612de3565b81815284810190848601868402860187018e10156128e857898afd5b8995505b838610156129135780356128ff81612ebc565b8352600195909501949186019186016128ec565b5098505050604089013592508083111561292b578586fd5b6129378a848b0161255b565b9550606089013592508083111561294c578384fd5b505061295a888289016125c7565b95989497509295608001359392505050565b60006020828403121561297d578081fd5b5051919050565b6000815180845260208085019450808401835b838110156129b357815187529582019590820190600101612997565b509495945050505050565b15159052565b60008151808452815b818110156129e9576020818501810151868301820152016129cd565b818111156129fa5782602083870101525b50601f01601f19169290920160200192915050565b6001600160a01b0391909116815260200190565b6001600160a01b039384168152919092166020820152604081019190915260600190565b6001600160a01b03929092168252602082015260400190565b6001600160a01b0396871681526020810195909552604085019390935293166060830152608082019290925260a081019190915260c00190565b901515815260200190565b6000858252602060018060a01b0380871682850152808616604085015260806060850152610100840185516080808701528181518084526101208801915085830193508692505b80831015612b0e57835185168252928501926001929092019190850190612aec565b50848801519450607f199350838782030160a0880152612b2e8186612984565b94505050506040850151818584030160c0860152612b4c83826129c4565b925050506060840151612b6260e08501826129be565b509695505050505050565b60208082526015908201527422a9291d24b73b30b634b2103230ba30ba37b5b2b760591b604082015260600190565b6020808252600b908201526a135a5b9d0819985a5b195960aa1b604082015260600190565b6020808252601d908201527f4552523a6d6178546f6b656e416d6f756e74496e206e6f74206d656574000000604082015260600190565b6020808252601e908201527f576520617265206e6f742074686520706f6f6c20636f6e74726f6c6c65720000604082015260600190565b602080825260139082015272496e76616c696420706f6f6c4164647265737360681b604082015260600190565b6020808252601a908201527f4552523a204e6f7420696e206275726e2d696e20706572696f64000000000000604082015260600190565b6020808252601c908201527f4552523a204f6e6c7920706f6f6c2063616e2063616c6c207468697300000000604082015260600190565b6020808252601b908201527f42617365546f6b656e2061646472657373206d6973736d617463680000000000604082015260600190565b6020808252601b908201527f44617461546f6b656e2061646472657373206d6973736d617463680000000000604082015260600190565b60208082526021908201527f4552523a204f6e6c79207075626c69736865722063616e2063616c6c207468696040820152607360f81b606082015260800190565b60208082526019908201527f4552523a6d696e416d6f756e744f7574206e6f74206d65657400000000000000604082015260600190565b90815260200190565b60405181810167ffffffffffffffff81118282101715612ddb57612ddb612ea6565b604052919050565b600067ffffffffffffffff821115612dfd57612dfd612ea6565b5060209081020190565b60008219821115612e1a57612e1a612e90565b500190565b600082612e3a57634e487b7160e01b81526012600452602481fd5b500490565b6000816000190483118215151615612e5957612e59612e90565b500290565b600082821015612e7057612e70612e90565b500390565b6000600019821415612e8957612e89612e90565b5060010190565b634e487b7160e01b600052601160045260246000fd5b634e487b7160e01b600052604160045260246000fd5b6001600160a01b0381168114611b1e57600080fdfea264697066735822122004e37709886fb72b9ddeb6d7466e8ef542f1e37c1982346b79fc42e8c771ef7764736f6c63430008000033",
  "linkReferences": {},
  "deployedLinkReferences": {}
}