{
  "_format": "hh-sol-artifact-1",
  "contractName": "ssFixedRateV2",
  "sourceName": "contracts/ssContracts/ssFixedRateV2.sol",
  "abi": [
    {
      "inputs": [],
      "stateMutability": "nonpayable",
      "type": "constructor"
    },
    {
      "inputs": [
        {
          "internalType": "address",
          "name": "datatokenAddress",
          "type": "address"
        },
        {
          "internalType": "address",
          "name": "stakeToken",
          "type": "address"
        },
        {
          "internalType": "uint256",
          "name": "amount",
          "type": "uint256"
        }
      ],
      "name": "Stake",
      "outputs": [],
      "stateMutability": "nonpayable",
      "type": "function"
    },
    {
      "inputs": [
        {
          "internalType": "address",
          "name": "datatokenAddress",
          "type": "address"
        },
        {
          "internalType": "address",
          "name": "stakeToken",
          "type": "address"
        },
        {
          "internalType": "uint256",
          "name": "amount",
          "type": "uint256"
        }
      ],
      "name": "UnStake",
      "outputs": [],
      "stateMutability": "nonpayable",
      "type": "function"
    },
    {
      "inputs": [
        {
          "internalType": "address",
          "name": "datatokenAddress",
          "type": "address"
        },
        {
          "internalType": "address",
          "name": "basetoken",
          "type": "address"
        },
        {
          "internalType": "uint256",
          "name": "datatokenAmount",
          "type": "uint256"
        },
        {
          "internalType": "uint256",
          "name": "basetokenAmount",
          "type": "uint256"
        },
        {
          "internalType": "address",
          "name": "userAddress",
          "type": "address"
        }
      ],
      "name": "allowStake",
      "outputs": [
        {
          "internalType": "bool",
          "name": "",
          "type": "bool"
        }
      ],
      "stateMutability": "view",
      "type": "function"
    },
    {
      "inputs": [
        {
          "internalType": "address",
          "name": "datatokenAddress",
          "type": "address"
        },
        {
          "internalType": "address",
          "name": "basetoken",
          "type": "address"
        },
        {
          "internalType": "uint256",
          "name": "datatokenAmount",
          "type": "uint256"
        },
        {
          "internalType": "uint256",
          "name": "basetokenAmount",
          "type": "uint256"
        },
        {
          "internalType": "address",
          "name": "userAddress",
          "type": "address"
        }
      ],
      "name": "allowUnStake",
      "outputs": [
        {
          "internalType": "bool",
          "name": "",
          "type": "bool"
        }
      ],
      "stateMutability": "view",
      "type": "function"
    },
    {
      "inputs": [
        {
          "internalType": "address",
          "name": "datatokenAddress",
          "type": "address"
        },
        {
          "internalType": "address",
          "name": "tokenIn",
          "type": "address"
        },
        {
          "internalType": "address",
          "name": "tokenOut",
          "type": "address"
        },
        {
          "internalType": "uint256",
          "name": "tokenAmountOut",
          "type": "uint256"
        }
      ],
      "name": "calcInGivenOut",
      "outputs": [
        {
          "internalType": "uint256",
          "name": "",
          "type": "uint256"
        }
      ],
      "stateMutability": "view",
      "type": "function"
    },
    {
      "inputs": [
        {
          "internalType": "address",
          "name": "datatokenAddress",
          "type": "address"
        },
        {
          "internalType": "address",
          "name": "tokenIn",
          "type": "address"
        },
        {
          "internalType": "address",
          "name": "tokenOut",
          "type": "address"
        },
        {
          "internalType": "uint256",
          "name": "tokenAmountIn",
          "type": "uint256"
        }
      ],
      "name": "calcOutGivenIn",
      "outputs": [
        {
          "internalType": "uint256",
          "name": "",
          "type": "uint256"
        }
      ],
      "stateMutability": "view",
      "type": "function"
    },
    {
      "inputs": [
        {
          "internalType": "address",
          "name": "datatokenAddress",
          "type": "address"
        },
        {
          "internalType": "address",
          "name": "stakeToken",
          "type": "address"
        },
        {
          "internalType": "uint256",
          "name": "amount",
          "type": "uint256"
        }
      ],
      "name": "canStake",
      "outputs": [
        {
          "internalType": "bool",
          "name": "",
          "type": "bool"
        }
      ],
      "stateMutability": "view",
      "type": "function"
    },
    {
      "inputs": [
        {
          "internalType": "address",
          "name": "datatokenAddress",
          "type": "address"
        },
        {
          "internalType": "address",
          "name": "stakeToken",
          "type": "address"
        },
        {
          "internalType": "uint256",
          "name": "amount",
          "type": "uint256"
        }
      ],
      "name": "canUnStake",
      "outputs": [
        {
          "internalType": "bool",
          "name": "",
          "type": "bool"
        }
      ],
      "stateMutability": "view",
      "type": "function"
    },
    {
      "inputs": [
        {
          "internalType": "address",
          "name": "datatokenAddress",
          "type": "address"
        }
      ],
      "name": "getBaseTokenAddress",
      "outputs": [
        {
          "internalType": "address",
          "name": "",
          "type": "address"
        }
      ],
      "stateMutability": "view",
      "type": "function"
    },
    {
      "inputs": [
        {
          "internalType": "address",
          "name": "datatokenAddress",
          "type": "address"
        }
      ],
      "name": "getBaseTokenBalance",
      "outputs": [
        {
          "internalType": "uint256",
          "name": "",
          "type": "uint256"
        }
      ],
      "stateMutability": "view",
      "type": "function"
    },
    {
      "inputs": [
        {
          "internalType": "address",
          "name": "poolAddress",
          "type": "address"
        }
      ],
      "name": "getDTAddress",
      "outputs": [
        {
          "internalType": "address",
          "name": "",
          "type": "address"
        }
      ],
      "stateMutability": "view",
      "type": "function"
    },
    {
      "inputs": [
        {
          "internalType": "address",
          "name": "datatokenAddress",
          "type": "address"
        }
      ],
      "name": "getDataTokenBalance",
      "outputs": [
        {
          "internalType": "uint256",
          "name": "",
          "type": "uint256"
        }
      ],
      "stateMutability": "view",
      "type": "function"
    },
    {
      "inputs": [
        {
          "internalType": "address",
          "name": "datatokenAddress",
          "type": "address"
        }
      ],
      "name": "getDataTokenCirculatingSupply",
      "outputs": [
        {
          "internalType": "uint256",
          "name": "",
          "type": "uint256"
        }
      ],
      "stateMutability": "view",
      "type": "function"
    },
    {
      "inputs": [
        {
          "internalType": "address",
          "name": "datatokenAddress",
          "type": "address"
        }
      ],
      "name": "getPoolAddress",
      "outputs": [
        {
          "internalType": "address",
          "name": "",
          "type": "address"
        }
      ],
      "stateMutability": "view",
      "type": "function"
    },
    {
      "inputs": [
        {
          "internalType": "address",
          "name": "datatokenAddress",
          "type": "address"
        }
      ],
      "name": "getPublisherAddress",
      "outputs": [
        {
          "internalType": "address",
          "name": "",
          "type": "address"
        }
      ],
      "stateMutability": "view",
      "type": "function"
    },
    {
      "inputs": [
        {
          "internalType": "address",
          "name": "datatokenAddress",
          "type": "address"
        }
      ],
      "name": "getVesting",
      "outputs": [],
      "stateMutability": "nonpayable",
      "type": "function"
    },
    {
      "inputs": [
        {
          "internalType": "address",
          "name": "datatokenAddress",
          "type": "address"
        }
      ],
      "name": "getburnInEndBlock",
      "outputs": [
        {
          "internalType": "uint256",
          "name": "",
          "type": "uint256"
        }
      ],
      "stateMutability": "view",
      "type": "function"
    },
    {
      "inputs": [
        {
          "internalType": "address",
          "name": "datatokenAddress",
          "type": "address"
        }
      ],
      "name": "getvestingAmount",
      "outputs": [
        {
          "internalType": "uint256",
          "name": "",
          "type": "uint256"
        }
      ],
      "stateMutability": "view",
      "type": "function"
    },
    {
      "inputs": [
        {
          "internalType": "address",
          "name": "datatokenAddress",
          "type": "address"
        }
      ],
      "name": "getvestingAmountSoFar",
      "outputs": [
        {
          "internalType": "uint256",
          "name": "",
          "type": "uint256"
        }
      ],
      "stateMutability": "view",
      "type": "function"
    },
    {
      "inputs": [
        {
          "internalType": "address",
          "name": "datatokenAddress",
          "type": "address"
        }
      ],
      "name": "getvestingEndBlock",
      "outputs": [
        {
          "internalType": "uint256",
          "name": "",
          "type": "uint256"
        }
      ],
      "stateMutability": "view",
      "type": "function"
    },
    {
      "inputs": [
        {
          "internalType": "address",
          "name": "datatokenAddress",
          "type": "address"
        }
      ],
      "name": "getvestingLastBlock",
      "outputs": [
        {
          "internalType": "uint256",
          "name": "",
          "type": "uint256"
        }
      ],
      "stateMutability": "view",
      "type": "function"
    },
    {
      "inputs": [
        {
          "internalType": "address",
          "name": "datatokenAddress",
          "type": "address"
        }
      ],
      "name": "isInBurnIn",
      "outputs": [
        {
          "internalType": "bool",
          "name": "",
          "type": "bool"
        }
      ],
      "stateMutability": "view",
      "type": "function"
    },
    {
      "inputs": [
        {
          "internalType": "bytes32",
          "name": "poolId",
          "type": "bytes32"
        },
        {
          "internalType": "uint256",
          "name": "amountInDT",
          "type": "uint256"
        }
      ],
      "name": "managerStake",
      "outputs": [
        {
          "internalType": "bool",
          "name": "",
          "type": "bool"
        }
      ],
      "stateMutability": "nonpayable",
      "type": "function"
    },
    {
      "inputs": [
        {
          "internalType": "address",
          "name": "datatokenAddress",
          "type": "address"
        },
        {
          "internalType": "address",
          "name": "basetokenAddress",
          "type": "address"
        },
        {
          "internalType": "address",
          "name": "poolAddress",
          "type": "address"
        },
        {
          "internalType": "address",
          "name": "publisherAddress",
          "type": "address"
        },
        {
          "internalType": "uint256",
          "name": "burnInEndBlock",
          "type": "uint256"
        },
        {
          "internalType": "uint256[]",
          "name": "ssParams",
          "type": "uint256[]"
        }
      ],
      "name": "newDataTokenCreated",
      "outputs": [
        {
          "internalType": "bool",
          "name": "",
          "type": "bool"
        }
      ],
      "stateMutability": "nonpayable",
      "type": "function"
    },
    {
      "inputs": [
        {
          "internalType": "address",
          "name": "datatokenAddress",
          "type": "address"
        }
      ],
      "name": "notifyFinalize",
      "outputs": [],
      "stateMutability": "nonpayable",
      "type": "function"
    },
    {
      "inputs": [
        {
          "internalType": "address",
          "name": "pool",
          "type": "address"
        },
        {
          "internalType": "address",
          "name": "_datatokenAddress",
          "type": "address"
        }
      ],
      "name": "setDTinPool",
      "outputs": [],
      "stateMutability": "nonpayable",
      "type": "function"
    },
    {
      "inputs": [
        {
          "internalType": "bytes32",
          "name": "poolId",
          "type": "bytes32"
        },
        {
          "internalType": "contract IERC20[]",
          "name": "tokens",
          "type": "address[]"
        },
        {
          "internalType": "uint256[]",
          "name": "maxAmountsIn",
          "type": "uint256[]"
        },
        {
          "internalType": "bytes",
          "name": "userDataStake",
          "type": "bytes"
        },
        {
          "internalType": "uint256",
          "name": "amountInDT",
          "type": "uint256"
        }
      ],
      "name": "stake",
      "outputs": [
        {
          "internalType": "bool",
          "name": "",
          "type": "bool"
        }
      ],
      "stateMutability": "nonpayable",
      "type": "function"
    },
    {
      "inputs": [
        {
          "internalType": "address",
          "name": "datatokenAddress",
          "type": "address"
        },
        {
          "internalType": "address",
          "name": "userAddress",
          "type": "address"
        },
        {
          "internalType": "address",
          "name": "tokenIn",
          "type": "address"
        },
        {
          "internalType": "uint256",
          "name": "tokenAmountIn",
          "type": "uint256"
        },
        {
          "internalType": "address",
          "name": "tokenOut",
          "type": "address"
        },
        {
          "internalType": "uint256",
          "name": "minAmountOut",
          "type": "uint256"
        }
      ],
      "name": "swapExactAmountIn",
      "outputs": [
        {
          "internalType": "uint256",
          "name": "tokenAmountOut",
          "type": "uint256"
        }
      ],
      "stateMutability": "nonpayable",
      "type": "function"
    },
    {
      "inputs": [
        {
          "internalType": "address",
          "name": "datatokenAddress",
          "type": "address"
        },
        {
          "internalType": "address",
          "name": "userAddress",
          "type": "address"
        },
        {
          "internalType": "address",
          "name": "tokenIn",
          "type": "address"
        },
        {
          "internalType": "uint256",
          "name": "maxTokenAmountIn",
          "type": "uint256"
        },
        {
          "internalType": "address",
          "name": "tokenOut",
          "type": "address"
        },
        {
          "internalType": "uint256",
          "name": "amountOut",
          "type": "uint256"
        }
      ],
      "name": "swapExactAmountOut",
      "outputs": [
        {
          "internalType": "uint256",
          "name": "tokenAmountIn",
          "type": "uint256"
        }
      ],
      "stateMutability": "nonpayable",
      "type": "function"
    }
  ],
  "bytecode": "0x6080604052600280546001600160a01b03191673ba12222222228d8ba445958a75a0704d566bf2c817905534801561003657600080fd5b506133ba806100466000396000f3fe608060405234801561001057600080fd5b50600436106101cf5760003560e01c806399039fcf11610104578063cf268dea116100a2578063f03cd39611610071578063f03cd396146103ce578063f09a9c05146103e1578063fa93fd6d146103f4578063fc94392014610407576101cf565b8063cf268dea14610382578063d89bb29f14610395578063e0b663c8146103a8578063efd48103146103bb576101cf565b8063c1b4904d116100de578063c1b4904d14610336578063c4be249014610349578063cc49ede71461035c578063ccda98c71461036f576101cf565b806399039fcf146102fd578063bccf74fe14610310578063bee3913d14610323576101cf565b80633e6d363f116101715780637a3ae0c51161014b5780637a3ae0c5146102c25780637eaf89011461023057806388afadce146102d757806392f6cb67146102ea576101cf565b80633e6d363f146102895780634f3e66dc1461029c578063799ece85146102af576101cf565b806324571dd7116101ad57806324571dd7146102305780632686375b1461024357806326b1f01f1461026357806330c1570114610276576101cf565b80630734b5b1146101d45780631228cbee146101fd5780631f16cde61461021d575b600080fd5b6101e76101e23660046129ea565b61041a565b6040516101f49190612f34565b60405180910390f35b61021061020b3660046129ea565b61047b565b6040516101f49190612e20565b61021061022b3660046129ea565b6104cb565b6101e761023e366004612be7565b61051f565b6102566102513660046129ea565b6105ba565b6040516101f4919061324a565b6101e7610271366004612ba7565b610606565b610256610284366004612b38565b61079d565b610256610297366004612b38565b610a7e565b6101e76102aa366004612a5a565b610d00565b6102566102bd3660046129ea565b6115ba565b6102d56102d0366004612a22565b611606565b005b6102566102e53660046129ea565b611634565b6102566102f8366004612ae8565b611694565b6102d561030b366004612ba7565b6116d7565b61025661031e3660046129ea565b61182d565b610256610331366004612ae8565b611879565b6102566103443660046129ea565b6118b1565b6102566103573660046129ea565b6118fd565b6102d561036a3660046129ea565b611949565b6101e761037d366004612c65565b611b9b565b6102d5610390366004612ba7565b611e9a565b6101e76103a3366004612d5c565b611f57565b6102106103b63660046129ea565b612132565b6101e76103c9366004612ba7565b612150565b6102566103dc3660046129ea565b6121f6565b6102566103ef3660046129ea565b612242565b6102106104023660046129ea565b61228e565b6102d56104153660046129ea565b6122df565b6001600160a01b038116600090815260016020819052604082205460ff1615151461044757506000610476565b6001600160a01b03821660009081526001602052604090206006015443111561047257506000610476565b5060015b919050565b6001600160a01b038116600090815260016020819052604082205460ff161515146104a857506000610476565b506001600160a01b03908116600090815260016020819052604090912001541690565b6001600160a01b038116600090815260016020819052604082205460ff161515146104f857506000610476565b506001600160a01b0390811660009081526001602052604090206008015461010090041690565b6001600160a01b038516600090815260016020819052604082205460ff1615151461054c575060006105b1565b6001600160a01b03868116600090815260016020819052604090912001541633146105925760405162461bcd60e51b81526004016105899061312d565b60405180910390fd5b61059b8661041a565b1515600114156105ad575060006105b1565b5060015b95945050505050565b6001600160a01b038116600090815260016020819052604082205460ff161515146105e757506000610476565b506001600160a01b03166000908152600160205260409020600b015490565b6001600160a01b038316600090815260016020819052604082205460ff1615151461063357506000610796565b6001600160a01b03848116600090815260016020819052604090912001541633146106705760405162461bcd60e51b81526004016105899061312d565b6001600160a01b03841660009081526001602081905260409091205460ff1615151461069e57506000610796565b6001600160a01b038481166000908152600160205260409020546101009004811690841614156106d057506000610796565b6040516370a0823160e01b815284906000906001600160a01b038316906370a0823190610701903090600401612e20565b60206040518083038186803b15801561071957600080fd5b505afa15801561072d573d6000803e3d6000fd5b505050506040513d601f19601f820116820180604052508101906107519190612d7d565b6001600160a01b038716600090815260016020526040902060020154909150841180159061077f5750838110155b1561078f57600192505050610796565b6000925050505b9392505050565b6001600160a01b038616600090815260016020819052604082205460ff161515146107da5760405162461bcd60e51b815260040161058990613007565b6001600160a01b03878116600090815260016020819052604090912001541633146108175760405162461bcd60e51b81526004016105899061312d565b6108208761041a565b15156001146108415760405162461bcd60e51b8152600401610589906130f6565b61084d87868585611879565b90508381111561086f5760405162461bcd60e51b81526004016105899061305b565b6001600160a01b03878116600090815260016020819052604091829020015490516323b872dd60e01b81528792808416926323b872dd926108bb92919091169030908790600401612e34565b602060405180830381600087803b1580156108d557600080fd5b505af11580156108e9573d6000803e3d6000fd5b505050506040513d601f19601f8201168201806040525081019061090d9190612c45565b50876001600160a01b0316866001600160a01b0316141561098e576001600160a01b038816600090815260016020526040812060040180548592906109539084906132ba565b90915550506001600160a01b038816600090815260016020526040812060020180548492906109839084906132ba565b909155506109ef9050565b6001600160a01b038816600090815260016020526040812060020180548592906109b99084906132ba565b90915550506001600160a01b038816600090815260016020526040812060040180548492906109e99084906132ba565b90915550505b60405163a9059cbb60e01b815284906001600160a01b0382169063a9059cbb90610a1f908b908890600401612e58565b602060405180830381600087803b158015610a3957600080fd5b505af1158015610a4d573d6000803e3d6000fd5b505050506040513d601f19601f82011682018060405250810190610a719190612c45565b5050509695505050505050565b6001600160a01b038616600090815260016020819052604082205460ff16151514610abb5760405162461bcd60e51b815260040161058990613007565b6001600160a01b0387811660009081526001602081905260409091200154163314610af85760405162461bcd60e51b81526004016105899061312d565b610b018761041a565b1515600114610b225760405162461bcd60e51b8152600401610589906130f6565b610b2e87868587611694565b905081811015610b505760405162461bcd60e51b815260040161058990613213565b6001600160a01b03878116600090815260016020819052604091829020015490516323b872dd60e01b81528792808416926323b872dd92610b9c92919091169030908a90600401612e34565b602060405180830381600087803b158015610bb657600080fd5b505af1158015610bca573d6000803e3d6000fd5b505050506040513d601f19601f82011682018060405250810190610bee9190612c45565b50876001600160a01b0316866001600160a01b03161415610c6f576001600160a01b03881660009081526001602052604081206004018054849290610c349084906132ba565b90915550506001600160a01b03881660009081526001602052604081206002018054879290610c649084906132ba565b90915550610cd09050565b6001600160a01b03881660009081526001602052604081206002018054849290610c9a9084906132ba565b90915550506001600160a01b03881660009081526001602052604081206004018054879290610cca9084906132ba565b90915550505b60405163a9059cbb60e01b815284906001600160a01b0382169063a9059cbb90610a1f908b908790600401612e58565b60006001600160a01b038516610d285760405162461bcd60e51b8152600401610589906130c9565b6000859050306001600160a01b0316816001600160a01b0316633018205f6040518163ffffffff1660e01b815260040160206040518083038186803b158015610d7057600080fd5b505afa158015610d84573d6000803e3d6000fd5b505050506040513d601f19601f82011682018060405250810190610da89190612a06565b6001600160a01b031614610dce5760405162461bcd60e51b815260040161058990613092565b876001600160a01b0316816001600160a01b03166304ad79546040518163ffffffff1660e01b815260040160206040518083038186803b158015610e1157600080fd5b505afa158015610e25573d6000803e3d6000fd5b505050506040513d601f19601f82011682018060405250810190610e499190612a06565b6001600160a01b031614610e6f5760405162461bcd60e51b81526004016105899061319b565b866001600160a01b0316816001600160a01b0316634df947d06040518163ffffffff1660e01b815260040160206040518083038186803b158015610eb257600080fd5b505afa158015610ec6573d6000803e3d6000fd5b505050506040513d601f19601f82011682018060405250810190610eea9190612a06565b6001600160a01b031614610f105760405162461bcd60e51b815260040161058990613164565b6000889050306001600160a01b0316816001600160a01b031663075461726040518163ffffffff1660e01b815260040160206040518083038186803b158015610f5857600080fd5b505afa158015610f6c573d6000803e3d6000fd5b505050506040513d601f19601f82011682018060405250810190610f909190612a06565b6001600160a01b031614610fb65760405162461bcd60e51b815260040161058990613164565b806001600160a01b03166340c10f1930836001600160a01b03166318160ddd6040518163ffffffff1660e01b815260040160206040518083038186803b158015610fff57600080fd5b505afa158015611013573d6000803e3d6000fd5b505050506040513d601f19601f820116820180604052508101906110379190612d7d565b6040518363ffffffff1660e01b8152600401611054929190612e58565b600060405180830381600087803b15801561106e57600080fd5b505af1158015611082573d6000803e3d6000fd5b50505050806001600160a01b03166318160ddd6040518163ffffffff1660e01b815260040160206040518083038186803b1580156110bf57600080fd5b505afa1580156110d3573d6000803e3d6000fd5b505050506040513d601f19601f820116820180604052508101906110f79190612d7d565b6040516370a0823160e01b81526001600160a01b038316906370a0823190611123903090600401612e20565b60206040518083038186803b15801561113b57600080fd5b505afa15801561114f573d6000803e3d6000fd5b505050506040513d601f19601f820116820180604052508101906111739190612d7d565b146111905760405162461bcd60e51b815260040161058990613036565b6000846000815181106111b357634e487b7160e01b600052603260045260246000fd5b602002602001015190506000856001815181106111e057634e487b7160e01b600052603260045260246000fd5b6020026020010151600014156111f8575060006111fc565b5060015b60008660028151811061121f57634e487b7160e01b600052603260045260246000fd5b6020026020010151905060008760038151811061124c57634e487b7160e01b600052603260045260246000fd5b60200260200101514361125f91906132ba565b90506040518061022001604052806001151581526020018d6001600160a01b031681526020018c6001600160a01b03168152602001600015158152602001866001600160a01b03166318160ddd6040518163ffffffff1660e01b815260040160206040518083038186803b1580156112d657600080fd5b505afa1580156112ea573d6000803e3d6000fd5b505050506040513d601f19601f8201168201806040525081019061130e9190612d7d565b8152602001866001600160a01b031663355274ea6040518163ffffffff1660e01b815260040160206040518083038186803b15801561134c57600080fd5b505afa158015611360573d6000803e3d6000fd5b505050506040513d601f19601f820116820180604052508101906113849190612d7d565b815260200160008152602001600081526020018a815260200185815260200184151581526020018b6001600160a01b031681526020014381526020018281526020018381526020014381526020016000815250600160008f6001600160a01b03166001600160a01b0316815260200190815260200160002060008201518160000160006101000a81548160ff02191690831515021790555060208201518160000160016101000a8154816001600160a01b0302191690836001600160a01b0316021790555060408201518160010160006101000a8154816001600160a01b0302191690836001600160a01b0316021790555060608201518160010160146101000a81548160ff0219169083151502179055506080820151816002015560a0820151816003015560c0820151816004015560e08201518160050155610100820151816006015561012082015181600701556101408201518160080160006101000a81548160ff0219169083151502179055506101608201518160080160016101000a8154816001600160a01b0302191690836001600160a01b0316021790555061018082015181600901556101a082015181600a01556101c082015181600b01556101e082015181600c015561020082015181600d01559050508c6000808d6001600160a01b03166001600160a01b0316815260200190815260200160002060006101000a8154816001600160a01b0302191690836001600160a01b03160217905550600196505050505050509695505050505050565b6001600160a01b038116600090815260016020819052604082205460ff161515146115e757506000610476565b506001600160a01b03166000908152600160205260409020600a015490565b6001600160a01b03918216600090815260208190526040902080546001600160a01b03191691909216179055565b6001600160a01b038116600090815260016020819052604082205460ff1615151461166157506000610476565b6001600160a01b0382166000908152600160205260409020600281015460039091015461168e9190613311565b92915050565b6001600160a01b038416600090815260016020819052604082205460ff161515146116c1575060006116cf565b6116cc84848461265d565b90505b949350505050565b6001600160a01b03831660009081526001602081905260409091205460ff1615151461170257611828565b6001600160a01b038381166000908152600160208190526040909120015416331461173f5760405162461bcd60e51b81526004016105899061312d565b600061174c848484610606565b905060018115151461175e5750611828565b6001600160a01b038085166000818152600160208190526040918290200154905163095ea7b360e01b8152879363095ea7b3926117a2929116908790600401612e58565b602060405180830381600087803b1580156117bc57600080fd5b505af11580156117d0573d6000803e3d6000fd5b505050506040513d601f19601f820116820180604052508101906117f49190612c45565b506001600160a01b03851660009081526001602052604081206002018054859290611820908490613311565b909155505050505b505050565b6001600160a01b038116600090815260016020819052604082205460ff1615151461185a57506000610476565b506001600160a01b03166000908152600160205260409020600d015490565b6001600160a01b038416600090815260016020819052604082205460ff161515146118a6575060006116cf565b6116cc848484612749565b6001600160a01b038116600090815260016020819052604082205460ff161515146118de57506000610476565b506001600160a01b031660009081526001602052604090206002015490565b6001600160a01b038116600090815260016020819052604082205460ff1615151461192a57506000610476565b506001600160a01b031660009081526001602052604090206004015490565b6001600160a01b03811660009081526001602081905260409091205460ff161515146119875760405162461bcd60e51b815260040161058990613007565b6001600160a01b0381811660009081526001602052604090206008015461010090041633146119c85760405162461bcd60e51b8152600401610589906131d2565b6001600160a01b0381166000908152600160205260408120600c01546119ee9043613311565b6001600160a01b03831660009081526001602052604081206009810154600a909101549293509091611a4591611a2391613311565b6001600160a01b0385166000908152600160205260409020600b015490612831565b905080611a53575050611b98565b6000611a5f838361283d565b9050600081118015611a8c57506001600160a01b0384166000908152600160205260409020600201548111155b15611b94576001600160a01b0384166000908152600160205260408120600b0180548692849291611abe9084906132ba565b90915550506001600160a01b038086166000908152600160205260409081902043600c82015560080154905163a9059cbb60e01b81528383169263a9059cbb92611b1692610100909104909116908690600401612e58565b602060405180830381600087803b158015611b3057600080fd5b505af1158015611b44573d6000803e3d6000fd5b505050506040513d601f19601f82011682018060405250810190611b689190612c45565b506001600160a01b03851660009081526001602052604081206002018054849290611820908490613311565b5050505b50565b600080611ba733612132565b6001600160a01b03166370a08231306040518263ffffffff1660e01b8152600401611bd29190612e20565b60206040518083038186803b158015611bea57600080fd5b505afa158015611bfe573d6000803e3d6000fd5b505050506040513d601f19601f82011682018060405250810190611c229190612d7d565b9050611c5e8160405180604001604052806018815260200177191d10985b185b98d9481a5b881cdd185ada5b99c8189bdd60421b815250612849565b828110611e9057611c6e33612132565b60025460405163095ea7b360e01b81526001600160a01b039283169263095ea7b392611ca1929116908790600401612e58565b602060405180830381600087803b158015611cbb57600080fd5b505af1158015611ccf573d6000803e3d6000fd5b505050506040513d601f19601f82011682018060405250810190611cf39190612c45565b5060005b8651811015611d8f576000878281518110611d2257634e487b7160e01b600052603260045260246000fd5b6020908102919091010151600380546001810182556000919091527fc2575a0e9e593c00f959f8c92f12db2869c3395a3b0502d05e2516446f71f85b0180546001600160a01b0319166001600160a01b039092169190911790555080611d8781613328565b915050611cf7565b50604080516003805460a06020820284018101909452608083018181526000948493919290840182828015611ded57602002820191906000526020600020905b81546001600160a01b03168152600190910190602001808311611dcf575b50505091835250506020810188905260408082018890526000606090920191909152600254905163172b958560e31b81529192506001600160a01b03169063b95cac2890611e45908b90309081908790600401612f3f565b600060405180830381600087803b158015611e5f57600080fd5b505af1158015611e73573d6000803e3d6000fd5b5050505060036000611e8591906128b3565b6001925050506105b1565b60009150506105b1565b6001600160a01b03831660009081526001602081905260409091205460ff16151514611ec557611828565b6001600160a01b0383811660009081526001602081905260409091200154163314611f025760405162461bcd60e51b81526004016105899061312d565b6000611f0f848484612150565b9050600181151514611f215750611828565b6001600160a01b03841660009081526001602052604081206002018054849290611f4c9084906132ba565b909155505050505050565b600080611f6333612132565b6001600160a01b03166370a08231306040518263ffffffff1660e01b8152600401611f8e9190612e20565b60206040518083038186803b158015611fa657600080fd5b505afa158015611fba573d6000803e3d6000fd5b505050506040513d601f19601f82011682018060405250810190611fde9190612d7d565b905061201a8160405180604001604052806018815260200177191d10985b185b98d9481a5b881cdd185ada5b99c8189bdd60421b815250612849565b82811061212857604080516080810182526001815260208101869052600091810161204433612132565b6001600160a01b0316815260200185905260408051600180825281830190925291925060009190816020015b6120786128d1565b81526020019060019003908161207057905050905081816000815181106120af57634e487b7160e01b600052603260045260246000fd5b6020908102919091010152600254604051637362304960e11b81526001600160a01b039091169063e6c46092906120ea908490600401612eab565b600060405180830381600087803b15801561210457600080fd5b505af1158015612118573d6000803e3d6000fd5b505050506001935050505061168e565b5060009392505050565b6001600160a01b039081166000908152602081905260409020541690565b6001600160a01b038316600090815260016020819052604082205460ff1615151461217d57506000610796565b6001600160a01b03848116600090815260016020819052604090912001541633146121ba5760405162461bcd60e51b81526004016105899061312d565b6001600160a01b038481166000908152600160205260409020546101009004811690841614156121ec57506000610796565b5060019392505050565b6001600160a01b038116600090815260016020819052604082205460ff1615151461222357506000610476565b506001600160a01b03166000908152600160205260409020600c015490565b6001600160a01b038116600090815260016020819052604082205460ff1615151461226f57506000610476565b506001600160a01b031660009081526001602052604090206006015490565b6001600160a01b038116600090815260016020819052604082205460ff161515146122bb57506000610476565b506001600160a01b0390811660009081526001602052604090205461010090041690565b6001600160a01b03811660009081526001602081905260409091205460ff1615151461230a57611b98565b6001600160a01b03818116600090815260016020819052604090912001541633146123475760405162461bcd60e51b81526004016105899061312d565b6001600160a01b0381166000908152600160208190526040909120810154600160a01b900460ff161515141561237c57611b98565b6001600160a01b0381166000908152600160208190526040822001805460ff60a01b1916600160a01b1790556123bb670de0b6b3a764000060056132f2565b905060006123d2670de0b6b3a764000060056132f2565b6001600160a01b038416600090815260016020526040812060040154919250826123fc85846132d2565b6001600160a01b03871660009081526001602052604090206007015461242291906132f2565b61242c91906132f2565b6001600160a01b038087166000818152600160208190526040918290200154905163095ea7b360e01b81529394508893919263095ea7b39261247692909116908690600401612e58565b602060405180830381600087803b15801561249057600080fd5b505af11580156124a4573d6000803e3d6000fd5b505050506040513d601f19601f820116820180604052508101906124c89190612c45565b506001600160a01b038087166000908152600160205260409081902054905163095ea7b360e01b815261010090910490911690819063095ea7b3906125139083908890600401612e58565b602060405180830381600087803b15801561252d57600080fd5b505af1158015612541573d6000803e3d6000fd5b505050506040513d601f19601f820116820180604052508101906125659190612c45565b506001600160a01b0380881660009081526001602081905260409182902090810154905491516309ef3f5b60e01b81529083169283926309ef3f5b926125c1928d928a928d92610100909204909116908c908f90600401612e71565b600060405180830381600087803b1580156125db57600080fd5b505af11580156125ef573d6000803e3d6000fd5b505050506001600160a01b0388166000908152600160205260408120600401805487929061261e908490613311565b90915550506001600160a01b0388166000908152600160205260408120600201805486929061264e908490613311565b90915550505050505050505050565b6001600160a01b038316600090815260016020819052604082205460ff16151514156126f0576001600160a01b03841660009081526001602052604090206008015460ff166126ae57506000610796565b6001600160a01b0384166000908152600160205260409020600701546126e990670de0b6b3a7640000906126e390859061283d565b90612831565b9050610796565b6001600160a01b03831660009081526001602081905260409091205460ff1615151415612128576001600160a01b0384166000908152600160205260409020600701546126e9906126e384670de0b6b3a764000061283d565b6001600160a01b038316600090815260016020819052604082205460ff16151514156127d5576001600160a01b03841660009081526001602052604090206008015460ff1661279a57506000610796565b6001600160a01b0384166000908152600160205260408120600701546127cc906126e385670de0b6b3a764000061283d565b91506107969050565b6001600160a01b03831660009081526001602081905260409091205460ff1615151415612128576001600160a01b0384166000908152600160205260408120600701546127cc90670de0b6b3a7640000906126e390869061283d565b600061079682846132d2565b600061079682846132f2565b61288e828260405160240161285f929190613253565b60408051601f198184030181529190526020810180516001600160e01b0316630fa3f34560e01b179052612892565b5050565b80516a636f6e736f6c652e6c6f67602083016000808483855afa5050505050565b5080546000825590600052602060002090810190611b9891906128fa565b604080516080810190915280600081526000602082018190526040820181905260609091015290565b5b8082111561290f57600081556001016128fb565b5090565b600082601f830112612923578081fd5b8135602061293861293383613296565b61326c565b8281528181019085830183850287018401881015612954578586fd5b855b8581101561297257813584529284019290840190600101612956565b5090979650505050505050565b600082601f83011261298f578081fd5b813567ffffffffffffffff8111156129a9576129a9613359565b6129bc601f8201601f191660200161326c565b8181528460208386010111156129d0578283fd5b816020850160208301379081016020019190915292915050565b6000602082840312156129fb578081fd5b81356107968161336f565b600060208284031215612a17578081fd5b81516107968161336f565b60008060408385031215612a34578081fd5b8235612a3f8161336f565b91506020830135612a4f8161336f565b809150509250929050565b60008060008060008060c08789031215612a72578182fd5b8635612a7d8161336f565b95506020870135612a8d8161336f565b94506040870135612a9d8161336f565b93506060870135612aad8161336f565b92506080870135915060a087013567ffffffffffffffff811115612acf578182fd5b612adb89828a01612913565b9150509295509295509295565b60008060008060808587031215612afd578384fd5b8435612b088161336f565b93506020850135612b188161336f565b92506040850135612b288161336f565b9396929550929360600135925050565b60008060008060008060c08789031215612b50578182fd5b8635612b5b8161336f565b95506020870135612b6b8161336f565b94506040870135612b7b8161336f565b9350606087013592506080870135612b928161336f565b8092505060a087013590509295509295509295565b600080600060608486031215612bbb578283fd5b8335612bc68161336f565b92506020840135612bd68161336f565b929592945050506040919091013590565b600080600080600060a08688031215612bfe578283fd5b8535612c098161336f565b94506020860135612c198161336f565b935060408601359250606086013591506080860135612c378161336f565b809150509295509295909350565b600060208284031215612c56578081fd5b81518015158114610796578182fd5b600080600080600060a08688031215612c7c578283fd5b8535945060208087013567ffffffffffffffff80821115612c9b578586fd5b818901915089601f830112612cae578586fd5b8135612cbc61293382613296565b81815284810190848601868402860187018e1015612cd857898afd5b8995505b83861015612d03578035612cef8161336f565b835260019590950194918601918601612cdc565b50985050506040890135925080831115612d1b578586fd5b612d278a848b01612913565b95506060890135925080831115612d3c578384fd5b5050612d4a8882890161297f565b95989497509295608001359392505050565b60008060408385031215612d6e578182fd5b50508035926020909101359150565b600060208284031215612d8e578081fd5b5051919050565b6000815180845260208085019450808401835b83811015612dc457815187529582019590820190600101612da8565b509495945050505050565b15159052565b60008151808452815b81811015612dfa57602081850181015186830182015201612dde565b81811115612e0b5782602083870101525b50601f01601f19169290920160200192915050565b6001600160a01b0391909116815260200190565b6001600160a01b039384168152919092166020820152604081019190915260600190565b6001600160a01b03929092168252602082015260400190565b6001600160a01b0396871681526020810195909552604085019390935293166060830152608082019290925260a081019190915260c00190565b602080825282518282018190526000919060409081850190868401855b82811015612f27578151805160038110612ef057634e487b7160e01b89526021600452602489fd5b85528087015187860152858101516001600160a01b0316868601526060908101519085015260809093019290850190600101612ec8565b5091979650505050505050565b901515815260200190565b6000858252602060018060a01b0380871682850152808616604085015260806060850152610100840185516080808701528181518084526101208801915085830193508692505b80831015612fa857835185168252928501926001929092019190850190612f86565b50848801519450607f199350838782030160a0880152612fc88186612d95565b94505050506040850151818584030160c0860152612fe68382612dd5565b925050506060840151612ffc60e0850182612dcf565b509695505050505050565b60208082526015908201527422a9291d24b73b30b634b2103230ba30ba37b5b2b760591b604082015260600190565b6020808252600b908201526a135a5b9d0819985a5b195960aa1b604082015260600190565b6020808252601d908201527f4552523a6d6178546f6b656e416d6f756e74496e206e6f74206d656574000000604082015260600190565b6020808252601e908201527f576520617265206e6f742074686520706f6f6c20636f6e74726f6c6c65720000604082015260600190565b602080825260139082015272496e76616c696420706f6f6c4164647265737360681b604082015260600190565b6020808252601a908201527f4552523a204e6f7420696e206275726e2d696e20706572696f64000000000000604082015260600190565b6020808252601c908201527f4552523a204f6e6c7920706f6f6c2063616e2063616c6c207468697300000000604082015260600190565b6020808252601b908201527f42617365546f6b656e2061646472657373206d6973736d617463680000000000604082015260600190565b6020808252601b908201527f44617461546f6b656e2061646472657373206d6973736d617463680000000000604082015260600190565b60208082526021908201527f4552523a204f6e6c79207075626c69736865722063616e2063616c6c207468696040820152607360f81b606082015260800190565b60208082526019908201527f4552523a6d696e416d6f756e744f7574206e6f74206d65657400000000000000604082015260600190565b90815260200190565b6000838252604060208301526116cf6040830184612dd5565b60405181810167ffffffffffffffff8111828210171561328e5761328e613359565b604052919050565b600067ffffffffffffffff8211156132b0576132b0613359565b5060209081020190565b600082198211156132cd576132cd613343565b500190565b6000826132ed57634e487b7160e01b81526012600452602481fd5b500490565b600081600019048311821515161561330c5761330c613343565b500290565b60008282101561332357613323613343565b500390565b600060001982141561333c5761333c613343565b5060010190565b634e487b7160e01b600052601160045260246000fd5b634e487b7160e01b600052604160045260246000fd5b6001600160a01b0381168114611b9857600080fdfea26469706673582212202a464b7c6afebce9bfa0cff9810c75697304a9ee35949262132077b74261bbdf64736f6c63430008000033",
  "linkReferences": {},
  "deployedLinkReferences": {}
}