{
  "_format": "hh-sol-artifact-1",
  "contractName": "ssFixedRateV2",
  "sourceName": "contracts/ssContracts/ssFixedRateV2.sol",
  "abi": [
    {
      "inputs": [],
      "stateMutability": "nonpayable",
      "type": "constructor"
    },
    {
      "inputs": [
        {
          "internalType": "address",
          "name": "datatokenAddress",
          "type": "address"
        },
        {
          "internalType": "address",
          "name": "stakeToken",
          "type": "address"
        },
        {
          "internalType": "uint256",
          "name": "amount",
          "type": "uint256"
        }
      ],
      "name": "Stake",
      "outputs": [],
      "stateMutability": "nonpayable",
      "type": "function"
    },
    {
      "inputs": [
        {
          "internalType": "address",
          "name": "datatokenAddress",
          "type": "address"
        },
        {
          "internalType": "address",
          "name": "stakeToken",
          "type": "address"
        },
        {
          "internalType": "uint256",
          "name": "amount",
          "type": "uint256"
        }
      ],
      "name": "UnStake",
      "outputs": [],
      "stateMutability": "nonpayable",
      "type": "function"
    },
    {
      "inputs": [
        {
          "internalType": "address",
          "name": "datatokenAddress",
          "type": "address"
        },
        {
          "internalType": "address",
          "name": "basetoken",
          "type": "address"
        },
        {
          "internalType": "uint256",
          "name": "datatokenAmount",
          "type": "uint256"
        },
        {
          "internalType": "uint256",
          "name": "basetokenAmount",
          "type": "uint256"
        },
        {
          "internalType": "address",
          "name": "userAddress",
          "type": "address"
        }
      ],
      "name": "allowStake",
      "outputs": [
        {
          "internalType": "bool",
          "name": "",
          "type": "bool"
        }
      ],
      "stateMutability": "view",
      "type": "function"
    },
    {
      "inputs": [
        {
          "internalType": "address",
          "name": "datatokenAddress",
          "type": "address"
        },
        {
          "internalType": "address",
          "name": "basetoken",
          "type": "address"
        },
        {
          "internalType": "uint256",
          "name": "datatokenAmount",
          "type": "uint256"
        },
        {
          "internalType": "uint256",
          "name": "basetokenAmount",
          "type": "uint256"
        },
        {
          "internalType": "address",
          "name": "userAddress",
          "type": "address"
        }
      ],
      "name": "allowUnStake",
      "outputs": [
        {
          "internalType": "bool",
          "name": "",
          "type": "bool"
        }
      ],
      "stateMutability": "view",
      "type": "function"
    },
    {
      "inputs": [
        {
          "internalType": "address",
          "name": "datatokenAddress",
          "type": "address"
        },
        {
          "internalType": "address",
          "name": "tokenIn",
          "type": "address"
        },
        {
          "internalType": "address",
          "name": "tokenOut",
          "type": "address"
        },
        {
          "internalType": "uint256",
          "name": "tokenAmountOut",
          "type": "uint256"
        }
      ],
      "name": "calcInGivenOut",
      "outputs": [
        {
          "internalType": "uint256",
          "name": "",
          "type": "uint256"
        }
      ],
      "stateMutability": "view",
      "type": "function"
    },
    {
      "inputs": [
        {
          "internalType": "address",
          "name": "datatokenAddress",
          "type": "address"
        },
        {
          "internalType": "address",
          "name": "tokenIn",
          "type": "address"
        },
        {
          "internalType": "address",
          "name": "tokenOut",
          "type": "address"
        },
        {
          "internalType": "uint256",
          "name": "tokenAmountIn",
          "type": "uint256"
        }
      ],
      "name": "calcOutGivenIn",
      "outputs": [
        {
          "internalType": "uint256",
          "name": "",
          "type": "uint256"
        }
      ],
      "stateMutability": "view",
      "type": "function"
    },
    {
      "inputs": [
        {
          "internalType": "address",
          "name": "datatokenAddress",
          "type": "address"
        },
        {
          "internalType": "address",
          "name": "stakeToken",
          "type": "address"
        },
        {
          "internalType": "uint256",
          "name": "amount",
          "type": "uint256"
        }
      ],
      "name": "canStake",
      "outputs": [
        {
          "internalType": "bool",
          "name": "",
          "type": "bool"
        }
      ],
      "stateMutability": "view",
      "type": "function"
    },
    {
      "inputs": [
        {
          "internalType": "address",
          "name": "datatokenAddress",
          "type": "address"
        },
        {
          "internalType": "address",
          "name": "stakeToken",
          "type": "address"
        },
        {
          "internalType": "uint256",
          "name": "amount",
          "type": "uint256"
        }
      ],
      "name": "canUnStake",
      "outputs": [
        {
          "internalType": "bool",
          "name": "",
          "type": "bool"
        }
      ],
      "stateMutability": "view",
      "type": "function"
    },
    {
      "inputs": [
        {
          "internalType": "address",
          "name": "datatokenAddress",
          "type": "address"
        }
      ],
      "name": "getBaseTokenAddress",
      "outputs": [
        {
          "internalType": "address",
          "name": "",
          "type": "address"
        }
      ],
      "stateMutability": "view",
      "type": "function"
    },
    {
      "inputs": [
        {
          "internalType": "address",
          "name": "datatokenAddress",
          "type": "address"
        }
      ],
      "name": "getBaseTokenBalance",
      "outputs": [
        {
          "internalType": "uint256",
          "name": "",
          "type": "uint256"
        }
      ],
      "stateMutability": "view",
      "type": "function"
    },
    {
      "inputs": [
        {
          "internalType": "bytes32",
          "name": "poolId",
          "type": "bytes32"
        }
      ],
      "name": "getDTAddress",
      "outputs": [],
      "stateMutability": "view",
      "type": "function"
    },
    {
      "inputs": [
        {
          "internalType": "address",
          "name": "datatokenAddress",
          "type": "address"
        }
      ],
      "name": "getDataTokenBalance",
      "outputs": [
        {
          "internalType": "uint256",
          "name": "",
          "type": "uint256"
        }
      ],
      "stateMutability": "view",
      "type": "function"
    },
    {
      "inputs": [
        {
          "internalType": "address",
          "name": "datatokenAddress",
          "type": "address"
        }
      ],
      "name": "getDataTokenCirculatingSupply",
      "outputs": [
        {
          "internalType": "uint256",
          "name": "",
          "type": "uint256"
        }
      ],
      "stateMutability": "view",
      "type": "function"
    },
    {
      "inputs": [
        {
          "internalType": "address",
          "name": "datatokenAddress",
          "type": "address"
        }
      ],
      "name": "getPoolAddress",
      "outputs": [
        {
          "internalType": "address",
          "name": "",
          "type": "address"
        }
      ],
      "stateMutability": "view",
      "type": "function"
    },
    {
      "inputs": [
        {
          "internalType": "address",
          "name": "datatokenAddress",
          "type": "address"
        }
      ],
      "name": "getPublisherAddress",
      "outputs": [
        {
          "internalType": "address",
          "name": "",
          "type": "address"
        }
      ],
      "stateMutability": "view",
      "type": "function"
    },
    {
      "inputs": [
        {
          "internalType": "address",
          "name": "datatokenAddress",
          "type": "address"
        }
      ],
      "name": "getVesting",
      "outputs": [],
      "stateMutability": "nonpayable",
      "type": "function"
    },
    {
      "inputs": [
        {
          "internalType": "address",
          "name": "datatokenAddress",
          "type": "address"
        }
      ],
      "name": "getburnInEndBlock",
      "outputs": [
        {
          "internalType": "uint256",
          "name": "",
          "type": "uint256"
        }
      ],
      "stateMutability": "view",
      "type": "function"
    },
    {
      "inputs": [
        {
          "internalType": "address",
          "name": "datatokenAddress",
          "type": "address"
        }
      ],
      "name": "getvestingAmount",
      "outputs": [
        {
          "internalType": "uint256",
          "name": "",
          "type": "uint256"
        }
      ],
      "stateMutability": "view",
      "type": "function"
    },
    {
      "inputs": [
        {
          "internalType": "address",
          "name": "datatokenAddress",
          "type": "address"
        }
      ],
      "name": "getvestingAmountSoFar",
      "outputs": [
        {
          "internalType": "uint256",
          "name": "",
          "type": "uint256"
        }
      ],
      "stateMutability": "view",
      "type": "function"
    },
    {
      "inputs": [
        {
          "internalType": "address",
          "name": "datatokenAddress",
          "type": "address"
        }
      ],
      "name": "getvestingEndBlock",
      "outputs": [
        {
          "internalType": "uint256",
          "name": "",
          "type": "uint256"
        }
      ],
      "stateMutability": "view",
      "type": "function"
    },
    {
      "inputs": [
        {
          "internalType": "address",
          "name": "datatokenAddress",
          "type": "address"
        }
      ],
      "name": "getvestingLastBlock",
      "outputs": [
        {
          "internalType": "uint256",
          "name": "",
          "type": "uint256"
        }
      ],
      "stateMutability": "view",
      "type": "function"
    },
    {
      "inputs": [
        {
          "internalType": "address",
          "name": "datatokenAddress",
          "type": "address"
        }
      ],
      "name": "isInBurnIn",
      "outputs": [
        {
          "internalType": "bool",
          "name": "",
          "type": "bool"
        }
      ],
      "stateMutability": "view",
      "type": "function"
    },
    {
      "inputs": [
        {
          "internalType": "address",
          "name": "datatokenAddress",
          "type": "address"
        },
        {
          "internalType": "address",
          "name": "basetokenAddress",
          "type": "address"
        },
        {
          "internalType": "address",
          "name": "poolAddress",
          "type": "address"
        },
        {
          "internalType": "address",
          "name": "publisherAddress",
          "type": "address"
        },
        {
          "internalType": "uint256",
          "name": "burnInEndBlock",
          "type": "uint256"
        },
        {
          "internalType": "uint256[]",
          "name": "ssParams",
          "type": "uint256[]"
        }
      ],
      "name": "newDataTokenCreated",
      "outputs": [
        {
          "internalType": "bool",
          "name": "",
          "type": "bool"
        }
      ],
      "stateMutability": "nonpayable",
      "type": "function"
    },
    {
      "inputs": [
        {
          "internalType": "address",
          "name": "datatokenAddress",
          "type": "address"
        }
      ],
      "name": "notifyFinalize",
      "outputs": [],
      "stateMutability": "nonpayable",
      "type": "function"
    },
    {
      "inputs": [
        {
          "internalType": "bytes32",
          "name": "poolId",
          "type": "bytes32"
        },
        {
          "internalType": "contract IERC20[]",
          "name": "tokens",
          "type": "address[]"
        },
        {
          "internalType": "uint256[]",
          "name": "amountsInDT",
          "type": "uint256[]"
        },
        {
          "internalType": "bytes",
          "name": "userDataStake",
          "type": "bytes"
        }
      ],
      "name": "stake",
      "outputs": [],
      "stateMutability": "nonpayable",
      "type": "function"
    },
    {
      "inputs": [
        {
          "internalType": "address",
          "name": "datatokenAddress",
          "type": "address"
        },
        {
          "internalType": "address",
          "name": "userAddress",
          "type": "address"
        },
        {
          "internalType": "address",
          "name": "tokenIn",
          "type": "address"
        },
        {
          "internalType": "uint256",
          "name": "tokenAmountIn",
          "type": "uint256"
        },
        {
          "internalType": "address",
          "name": "tokenOut",
          "type": "address"
        },
        {
          "internalType": "uint256",
          "name": "minAmountOut",
          "type": "uint256"
        }
      ],
      "name": "swapExactAmountIn",
      "outputs": [
        {
          "internalType": "uint256",
          "name": "tokenAmountOut",
          "type": "uint256"
        }
      ],
      "stateMutability": "nonpayable",
      "type": "function"
    },
    {
      "inputs": [
        {
          "internalType": "address",
          "name": "datatokenAddress",
          "type": "address"
        },
        {
          "internalType": "address",
          "name": "userAddress",
          "type": "address"
        },
        {
          "internalType": "address",
          "name": "tokenIn",
          "type": "address"
        },
        {
          "internalType": "uint256",
          "name": "maxTokenAmountIn",
          "type": "uint256"
        },
        {
          "internalType": "address",
          "name": "tokenOut",
          "type": "address"
        },
        {
          "internalType": "uint256",
          "name": "amountOut",
          "type": "uint256"
        }
      ],
      "name": "swapExactAmountOut",
      "outputs": [
        {
          "internalType": "uint256",
          "name": "tokenAmountIn",
          "type": "uint256"
        }
      ],
      "stateMutability": "nonpayable",
      "type": "function"
    }
  ],
  "bytecode": "0x6080604052600180546001600160a01b03191673ba12222222228d8ba445958a75a0704d566bf2c817905534801561003657600080fd5b50612fb7806100466000396000f3fe608060405234801561001057600080fd5b50600436106101a85760003560e01c806388afadce116100f9578063cc49ede711610097578063f03cd39611610071578063f03cd39614610381578063f09a9c0514610394578063fa93fd6d146103a7578063fc943920146103ba576101a8565b8063cc49ede714610348578063cf268dea1461035b578063efd481031461036e576101a8565b8063bccf74fe116100d3578063bccf74fe146102fc578063bee3913d1461030f578063c1b4904d14610322578063c4be249014610335576101a8565b806388afadce146102c357806392f6cb67146102d657806399039fcf146102e9576101a8565b806326b1f01f116101665780633e6d363f116101405780633e6d363f1461028a5780634f3e66dc1461029d578063799ece85146102b05780637eaf89011461021e576101a8565b806326b1f01f146102515780632a338ba01461026457806330c1570114610277576101a8565b8062e63b11146101ad5780630734b5b1146101c25780631228cbee146101eb5780631f16cde61461020b57806324571dd71461021e5780632686375b14610231575b600080fd5b6101c06101bb36600461292d565b6103cd565b005b6101d56101d0366004612606565b610565565b6040516101e29190612b4a565b60405180910390f35b6101fe6101f9366004612606565b6105c6565b6040516101e29190612abf565b6101fe610219366004612606565b610615565b6101d561022c3660046127cb565b610669565b61024461023f366004612606565b610703565b6040516101e29190612b55565b6101d561025f36600461278b565b61074f565b6101c0610272366004612915565b6108e4565b61024461028536600461271c565b61096e565b61024461029836600461271c565b610c4e565b6101d56102ab36600461263e565b610ecf565b6102446102be366004612606565b61173f565b6102446102d1366004612606565b61178b565b6102446102e43660046126cc565b6117eb565b6101c06102f736600461278b565b61182e565b61024461030a366004612606565b611982565b61024461031d3660046126cc565b6119ce565b610244610330366004612606565b611a06565b610244610343366004612606565b611a52565b6101c0610356366004612606565b611a9e565b6101c061036936600461278b565b611ceb565b6101d561037c36600461278b565b611da6565b61024461038f366004612606565b611e4b565b6102446103a2366004612606565b611e97565b6101fe6103b5366004612606565b611ee3565b6101c06103c8366004612606565b611f34565b60005b83518110156104685760008482815181106103fb57634e487b7160e01b600052603260045260246000fd5b6020908102919091010151600280546001810182556000919091527f405787fa12a823e0f2b7631cc41b3ba8828b3321ca811111fa75cd3aa3bb5ace0180546001600160a01b0319166001600160a01b03909216919091179055508061046081612f25565b9150506103d0565b50604080516002805460a060208202840181019094526080830181815260009484939192908401828280156104c657602002820191906000526020600020905b81546001600160a01b031681526001909101906020018083116104a8575b50505091835250506020810185905260408082018590526000606090920191909152600154905163172b958560e31b81529192506001600160a01b03169063b95cac289061051e908890309081908790600401612b5e565b600060405180830381600087803b15801561053857600080fd5b505af115801561054c573d6000803e3d6000fd5b505050506002600061055e91906124a3565b5050505050565b6001600160a01b03811660009081526020819052604081205460ff161515600114610592575060006105c1565b6001600160a01b0382166000908152602081905260409020600601544311156105bd575060006105c1565b5060015b919050565b6001600160a01b03811660009081526020819052604081205460ff1615156001146105f3575060006105c1565b506001600160a01b039081166000908152602081905260409020600101541690565b6001600160a01b03811660009081526020819052604081205460ff161515600114610642575060006105c1565b506001600160a01b0390811660009081526020819052604090206008015461010090041690565b6001600160a01b03851660009081526020819052604081205460ff161515600114610696575060006106fa565b6001600160a01b038681166000908152602081905260409020600101541633146106db5760405162461bcd60e51b81526004016106d290612d4c565b60405180910390fd5b6106e486610565565b1515600114156106f6575060006106fa565b5060015b95945050505050565b6001600160a01b03811660009081526020819052604081205460ff161515600114610730575060006105c1565b506001600160a01b03166000908152602081905260409020600b015490565b6001600160a01b03831660009081526020819052604081205460ff16151560011461077c575060006108dd565b6001600160a01b038481166000908152602081905260409020600101541633146107b85760405162461bcd60e51b81526004016106d290612d4c565b6001600160a01b03841660009081526020819052604090205460ff1615156001146107e5575060006108dd565b6001600160a01b03848116600090815260208190526040902054610100900481169084161415610817575060006108dd565b6040516370a0823160e01b815284906000906001600160a01b038316906370a0823190610848903090600401612abf565b60206040518083038186803b15801561086057600080fd5b505afa158015610874573d6000803e3d6000fd5b505050506040513d601f19601f820116820180604052508101906108989190612a1c565b6001600160a01b03871660009081526020819052604090206002015490915084118015906108c65750838110155b156108d6576001925050506108dd565b6000925050505b9392505050565b600154604051631f29a8cd60e31b81526001600160a01b039091169063f94d466890610914908490600401612b55565b60006040518083038186803b15801561092c57600080fd5b505afa158015610940573d6000803e3d6000fd5b505050506040513d6000823e601f3d908101601f191682016040526109689190810190612829565b50505050565b6001600160a01b03861660009081526020819052604081205460ff1615156001146109ab5760405162461bcd60e51b81526004016106d290612c26565b6001600160a01b038781166000908152602081905260409020600101541633146109e75760405162461bcd60e51b81526004016106d290612d4c565b6109f087610565565b1515600114610a115760405162461bcd60e51b81526004016106d290612d15565b610a1d878685856119ce565b905083811115610a3f5760405162461bcd60e51b81526004016106d290612c7a565b6001600160a01b03878116600090815260208190526040908190206001015490516323b872dd60e01b81528792808416926323b872dd92610a8b92919091169030908790600401612ad3565b602060405180830381600087803b158015610aa557600080fd5b505af1158015610ab9573d6000803e3d6000fd5b505050506040513d601f19601f82011682018060405250810190610add91906128f5565b50876001600160a01b0316866001600160a01b03161415610b5e576001600160a01b03881660009081526020819052604081206004018054859290610b23908490612eb7565b90915550506001600160a01b03881660009081526020819052604081206002018054849290610b53908490612eb7565b90915550610bbf9050565b6001600160a01b03881660009081526020819052604081206002018054859290610b89908490612eb7565b90915550506001600160a01b03881660009081526020819052604081206004018054849290610bb9908490612eb7565b90915550505b60405163a9059cbb60e01b815284906001600160a01b0382169063a9059cbb90610bef908b908890600401612af7565b602060405180830381600087803b158015610c0957600080fd5b505af1158015610c1d573d6000803e3d6000fd5b505050506040513d601f19601f82011682018060405250810190610c4191906128f5565b5050509695505050505050565b6001600160a01b03861660009081526020819052604081205460ff161515600114610c8b5760405162461bcd60e51b81526004016106d290612c26565b6001600160a01b03878116600090815260208190526040902060010154163314610cc75760405162461bcd60e51b81526004016106d290612d4c565b610cd087610565565b1515600114610cf15760405162461bcd60e51b81526004016106d290612d15565b610cfd878685876117eb565b905081811015610d1f5760405162461bcd60e51b81526004016106d290612e32565b6001600160a01b03878116600090815260208190526040908190206001015490516323b872dd60e01b81528792808416926323b872dd92610d6b92919091169030908a90600401612ad3565b602060405180830381600087803b158015610d8557600080fd5b505af1158015610d99573d6000803e3d6000fd5b505050506040513d601f19601f82011682018060405250810190610dbd91906128f5565b50876001600160a01b0316866001600160a01b03161415610e3e576001600160a01b03881660009081526020819052604081206004018054849290610e03908490612eb7565b90915550506001600160a01b03881660009081526020819052604081206002018054879290610e33908490612eb7565b90915550610e9f9050565b6001600160a01b03881660009081526020819052604081206002018054849290610e69908490612eb7565b90915550506001600160a01b03881660009081526020819052604081206004018054879290610e99908490612eb7565b90915550505b60405163a9059cbb60e01b815284906001600160a01b0382169063a9059cbb90610bef908b908790600401612af7565b60006001600160a01b038516610ef75760405162461bcd60e51b81526004016106d290612ce8565b6000859050306001600160a01b0316816001600160a01b0316633018205f6040518163ffffffff1660e01b815260040160206040518083038186803b158015610f3f57600080fd5b505afa158015610f53573d6000803e3d6000fd5b505050506040513d601f19601f82011682018060405250810190610f779190612622565b6001600160a01b031614610f9d5760405162461bcd60e51b81526004016106d290612cb1565b876001600160a01b0316816001600160a01b03166304ad79546040518163ffffffff1660e01b815260040160206040518083038186803b158015610fe057600080fd5b505afa158015610ff4573d6000803e3d6000fd5b505050506040513d601f19601f820116820180604052508101906110189190612622565b6001600160a01b03161461103e5760405162461bcd60e51b81526004016106d290612dba565b866001600160a01b0316816001600160a01b0316634df947d06040518163ffffffff1660e01b815260040160206040518083038186803b15801561108157600080fd5b505afa158015611095573d6000803e3d6000fd5b505050506040513d601f19601f820116820180604052508101906110b99190612622565b6001600160a01b0316146110df5760405162461bcd60e51b81526004016106d290612d83565b6000889050306001600160a01b0316816001600160a01b031663075461726040518163ffffffff1660e01b815260040160206040518083038186803b15801561112757600080fd5b505afa15801561113b573d6000803e3d6000fd5b505050506040513d601f19601f8201168201806040525081019061115f9190612622565b6001600160a01b0316146111855760405162461bcd60e51b81526004016106d290612d83565b806001600160a01b03166340c10f1930836001600160a01b03166318160ddd6040518163ffffffff1660e01b815260040160206040518083038186803b1580156111ce57600080fd5b505afa1580156111e2573d6000803e3d6000fd5b505050506040513d601f19601f820116820180604052508101906112069190612a1c565b6040518363ffffffff1660e01b8152600401611223929190612af7565b600060405180830381600087803b15801561123d57600080fd5b505af1158015611251573d6000803e3d6000fd5b50505050806001600160a01b03166318160ddd6040518163ffffffff1660e01b815260040160206040518083038186803b15801561128e57600080fd5b505afa1580156112a2573d6000803e3d6000fd5b505050506040513d601f19601f820116820180604052508101906112c69190612a1c565b6040516370a0823160e01b81526001600160a01b038316906370a08231906112f2903090600401612abf565b60206040518083038186803b15801561130a57600080fd5b505afa15801561131e573d6000803e3d6000fd5b505050506040513d601f19601f820116820180604052508101906113429190612a1c565b1461135f5760405162461bcd60e51b81526004016106d290612c55565b60008460008151811061138257634e487b7160e01b600052603260045260246000fd5b602002602001015190506000856001815181106113af57634e487b7160e01b600052603260045260246000fd5b6020026020010151600014156113c7575060006113cb565b5060015b6000866002815181106113ee57634e487b7160e01b600052603260045260246000fd5b6020026020010151905060008760038151811061141b57634e487b7160e01b600052603260045260246000fd5b60200260200101514361142e9190612eb7565b90506040518061022001604052806001151581526020018d6001600160a01b031681526020018c6001600160a01b03168152602001600015158152602001866001600160a01b03166318160ddd6040518163ffffffff1660e01b815260040160206040518083038186803b1580156114a557600080fd5b505afa1580156114b9573d6000803e3d6000fd5b505050506040513d601f19601f820116820180604052508101906114dd9190612a1c565b8152602001866001600160a01b031663355274ea6040518163ffffffff1660e01b815260040160206040518083038186803b15801561151b57600080fd5b505afa15801561152f573d6000803e3d6000fd5b505050506040513d601f19601f820116820180604052508101906115539190612a1c565b815260200160008152602001600081526020018a815260200185815260200184151581526020018b6001600160a01b0316815260200143815260200182815260200183815260200143815260200160008152506000808f6001600160a01b03166001600160a01b0316815260200190815260200160002060008201518160000160006101000a81548160ff02191690831515021790555060208201518160000160016101000a8154816001600160a01b0302191690836001600160a01b0316021790555060408201518160010160006101000a8154816001600160a01b0302191690836001600160a01b0316021790555060608201518160010160146101000a81548160ff0219169083151502179055506080820151816002015560a0820151816003015560c0820151816004015560e08201518160050155610100820151816006015561012082015181600701556101408201518160080160006101000a81548160ff0219169083151502179055506101608201518160080160016101000a8154816001600160a01b0302191690836001600160a01b0316021790555061018082015181600901556101a082015181600a01556101c082015181600b01556101e082015181600c015561020082015181600d0155905050600196505050505050509695505050505050565b6001600160a01b03811660009081526020819052604081205460ff16151560011461176c575060006105c1565b506001600160a01b03166000908152602081905260409020600a015490565b6001600160a01b03811660009081526020819052604081205460ff1615156001146117b8575060006105c1565b6001600160a01b038216600090815260208190526040902060028101546003909101546117e59190612f0e565b92915050565b6001600160a01b03841660009081526020819052604081205460ff16151560011461181857506000611826565b6118238484846122af565b90505b949350505050565b6001600160a01b03831660009081526020819052604090205460ff1615156001146118585761197d565b6001600160a01b038381166000908152602081905260409020600101541633146118945760405162461bcd60e51b81526004016106d290612d4c565b60006118a184848461074f565b90506001811515146118b3575061197d565b6001600160a01b038085166000818152602081905260409081902060010154905163095ea7b360e01b8152879363095ea7b3926118f7929116908790600401612af7565b602060405180830381600087803b15801561191157600080fd5b505af1158015611925573d6000803e3d6000fd5b505050506040513d601f19601f8201168201806040525081019061194991906128f5565b506001600160a01b03851660009081526020819052604081206002018054859290611975908490612f0e565b909155505050505b505050565b6001600160a01b03811660009081526020819052604081205460ff1615156001146119af575060006105c1565b506001600160a01b03166000908152602081905260409020600d015490565b6001600160a01b03841660009081526020819052604081205460ff1615156001146119fb57506000611826565b6118238484846123a4565b6001600160a01b03811660009081526020819052604081205460ff161515600114611a33575060006105c1565b506001600160a01b031660009081526020819052604090206002015490565b6001600160a01b03811660009081526020819052604081205460ff161515600114611a7f575060006105c1565b506001600160a01b031660009081526020819052604090206004015490565b6001600160a01b03811660009081526020819052604090205460ff161515600114611adb5760405162461bcd60e51b81526004016106d290612c26565b6001600160a01b038181166000908152602081905260409020600801546101009004163314611b1c5760405162461bcd60e51b81526004016106d290612df1565b6001600160a01b0381166000908152602081905260408120600c0154611b429043612f0e565b6001600160a01b03831660009081526020819052604081206009810154600a909101549293509091611b9991611b7791612f0e565b6001600160a01b0385166000908152602081905260409020600b01549061248b565b905080611ba7575050611ce8565b6000611bb38383612497565b9050600081118015611be057506001600160a01b0384166000908152602081905260409020600201548111155b15610968576001600160a01b0384166000908152602081905260408120600b0180548692849291611c12908490612eb7565b90915550506001600160a01b038086166000908152602081905260409081902043600c82015560080154905163a9059cbb60e01b81528383169263a9059cbb92611c6a92610100909104909116908690600401612af7565b602060405180830381600087803b158015611c8457600080fd5b505af1158015611c98573d6000803e3d6000fd5b505050506040513d601f19601f82011682018060405250810190611cbc91906128f5565b506001600160a01b03851660009081526020819052604081206002018054849290611975908490612f0e565b50565b6001600160a01b03831660009081526020819052604090205460ff161515600114611d155761197d565b6001600160a01b03838116600090815260208190526040902060010154163314611d515760405162461bcd60e51b81526004016106d290612d4c565b6000611d5e848484611da6565b9050600181151514611d70575061197d565b6001600160a01b03841660009081526020819052604081206002018054849290611d9b908490612eb7565b909155505050505050565b6001600160a01b03831660009081526020819052604081205460ff161515600114611dd3575060006108dd565b6001600160a01b03848116600090815260208190526040902060010154163314611e0f5760405162461bcd60e51b81526004016106d290612d4c565b6001600160a01b03848116600090815260208190526040902054610100900481169084161415611e41575060006108dd565b5060019392505050565b6001600160a01b03811660009081526020819052604081205460ff161515600114611e78575060006105c1565b506001600160a01b03166000908152602081905260409020600c015490565b6001600160a01b03811660009081526020819052604081205460ff161515600114611ec4575060006105c1565b506001600160a01b031660009081526020819052604090206006015490565b6001600160a01b03811660009081526020819052604081205460ff161515600114611f10575060006105c1565b506001600160a01b0390811660009081526020819052604090205461010090041690565b6001600160a01b03811660009081526020819052604090205460ff161515600114611f5e57611ce8565b6001600160a01b03818116600090815260208190526040902060010154163314611f9a5760405162461bcd60e51b81526004016106d290612d4c565b6001600160a01b0381166000908152602081905260409020600190810154600160a01b900460ff1615151415611fcf57611ce8565b6001600160a01b0381166000908152602081905260408120600101805460ff60a01b1916600160a01b17905561200e670de0b6b3a76400006005612eef565b90506000612025670de0b6b3a76400006005612eef565b6001600160a01b0384166000908152602081905260408120600401549192508261204f8584612ecf565b6001600160a01b0387166000908152602081905260409020600701546120759190612eef565b61207f9190612eef565b6001600160a01b038087166000818152602081905260409081902060010154905163095ea7b360e01b81529394508893919263095ea7b3926120c992909116908690600401612af7565b602060405180830381600087803b1580156120e357600080fd5b505af11580156120f7573d6000803e3d6000fd5b505050506040513d601f19601f8201168201806040525081019061211b91906128f5565b506001600160a01b038087166000908152602081905260409081902054905163095ea7b360e01b815261010090910490911690819063095ea7b3906121669083908890600401612af7565b602060405180830381600087803b15801561218057600080fd5b505af1158015612194573d6000803e3d6000fd5b505050506040513d601f19601f820116820180604052508101906121b891906128f5565b506001600160a01b03808816600090815260208190526040908190206001810154905491516309ef3f5b60e01b81529083169283926309ef3f5b92612213928d928a928d92610100909204909116908c908f90600401612b10565b600060405180830381600087803b15801561222d57600080fd5b505af1158015612241573d6000803e3d6000fd5b505050506001600160a01b03881660009081526020819052604081206004018054879290612270908490612f0e565b90915550506001600160a01b038816600090815260208190526040812060020180548692906122a0908490612f0e565b90915550505050505050505050565b6001600160a01b03831660009081526020819052604081205460ff16151560011415612342576001600160a01b03841660009081526020819052604090206008015460ff16612300575060006108dd565b6001600160a01b03841660009081526020819052604090206007015461233b90670de0b6b3a764000090612335908590612497565b9061248b565b90506108dd565b6001600160a01b03831660009081526020819052604090205460ff1615156001141561239a576001600160a01b03841660009081526020819052604090206007015461233b9061233584670de0b6b3a7640000612497565b5060009392505050565b6001600160a01b03831660009081526020819052604081205460ff16151560011415612430576001600160a01b03841660009081526020819052604090206008015460ff166123f5575060006108dd565b6001600160a01b0384166000908152602081905260408120600701546124279061233585670de0b6b3a7640000612497565b91506108dd9050565b6001600160a01b03831660009081526020819052604090205460ff1615156001141561239a576001600160a01b03841660009081526020819052604081206007015461242790670de0b6b3a764000090612335908690612497565b60006108dd8284612ecf565b60006108dd8284612eef565b5080546000825590600052602060002090810190611ce891905b808211156124d157600081556001016124bd565b5090565b600082601f8301126124e5578081fd5b813560206124fa6124f583612e93565b612e69565b8281528181019085830183850287018401881015612516578586fd5b855b8581101561253457813584529284019290840190600101612518565b5090979650505050505050565b600082601f830112612551578081fd5b815160206125616124f583612e93565b828152818101908583018385028701840188101561257d578586fd5b855b858110156125345781518452928401929084019060010161257f565b600082601f8301126125ab578081fd5b813567ffffffffffffffff8111156125c5576125c5612f56565b6125d8601f8201601f1916602001612e69565b8181528460208386010111156125ec578283fd5b816020850160208301379081016020019190915292915050565b600060208284031215612617578081fd5b81356108dd81612f6c565b600060208284031215612633578081fd5b81516108dd81612f6c565b60008060008060008060c08789031215612656578182fd5b863561266181612f6c565b9550602087013561267181612f6c565b9450604087013561268181612f6c565b9350606087013561269181612f6c565b92506080870135915060a087013567ffffffffffffffff8111156126b3578182fd5b6126bf89828a016124d5565b9150509295509295509295565b600080600080608085870312156126e1578384fd5b84356126ec81612f6c565b935060208501356126fc81612f6c565b9250604085013561270c81612f6c565b9396929550929360600135925050565b60008060008060008060c08789031215612734578384fd5b863561273f81612f6c565b9550602087013561274f81612f6c565b9450604087013561275f81612f6c565b935060608701359250608087013561277681612f6c565b8092505060a087013590509295509295509295565b60008060006060848603121561279f578081fd5b83356127aa81612f6c565b925060208401356127ba81612f6c565b929592945050506040919091013590565b600080600080600060a086880312156127e2578283fd5b85356127ed81612f6c565b945060208601356127fd81612f6c565b93506040860135925060608601359150608086013561281b81612f6c565b809150509295509295909350565b60008060006060848603121561283d578081fd5b835167ffffffffffffffff80821115612854578283fd5b818601915086601f830112612867578283fd5b815160206128776124f583612e93565b82815281810190858301838502870184018c1015612893578788fd5b8796505b848710156128be5780516128aa81612f6c565b835260019690960195918301918301612897565b50918901519197509093505050808211156128d7578283fd5b506128e486828701612541565b925050604084015190509250925092565b600060208284031215612906578081fd5b815180151581146108dd578182fd5b600060208284031215612926578081fd5b5035919050565b60008060008060808587031215612942578182fd5b8435935060208086013567ffffffffffffffff80821115612961578485fd5b818801915088601f830112612974578485fd5b81356129826124f582612e93565b81815284810190848601868402860187018d101561299e578889fd5b8895505b838610156129c95780356129b581612f6c565b8352600195909501949186019186016129a2565b509750505060408801359250808311156129e1578485fd5b6129ed89848a016124d5565b94506060880135925080831115612a02578384fd5b5050612a108782880161259b565b91505092959194509250565b600060208284031215612a2d578081fd5b5051919050565b6000815180845260208085019450808401835b83811015612a6357815187529582019590820190600101612a47565b509495945050505050565b15159052565b60008151808452815b81811015612a9957602081850181015186830182015201612a7d565b81811115612aaa5782602083870101525b50601f01601f19169290920160200192915050565b6001600160a01b0391909116815260200190565b6001600160a01b039384168152919092166020820152604081019190915260600190565b6001600160a01b03929092168252602082015260400190565b6001600160a01b0396871681526020810195909552604085019390935293166060830152608082019290925260a081019190915260c00190565b901515815260200190565b90815260200190565b6000858252602060018060a01b0380871682850152808616604085015260806060850152610100840185516080808701528181518084526101208801915085830193508692505b80831015612bc757835185168252928501926001929092019190850190612ba5565b50848801519450607f199350838782030160a0880152612be78186612a34565b94505050506040850151818584030160c0860152612c058382612a74565b925050506060840151612c1b60e0850182612a6e565b509695505050505050565b60208082526015908201527422a9291d24b73b30b634b2103230ba30ba37b5b2b760591b604082015260600190565b6020808252600b908201526a135a5b9d0819985a5b195960aa1b604082015260600190565b6020808252601d908201527f4552523a6d6178546f6b656e416d6f756e74496e206e6f74206d656574000000604082015260600190565b6020808252601e908201527f576520617265206e6f742074686520706f6f6c20636f6e74726f6c6c65720000604082015260600190565b602080825260139082015272496e76616c696420706f6f6c4164647265737360681b604082015260600190565b6020808252601a908201527f4552523a204e6f7420696e206275726e2d696e20706572696f64000000000000604082015260600190565b6020808252601c908201527f4552523a204f6e6c7920706f6f6c2063616e2063616c6c207468697300000000604082015260600190565b6020808252601b908201527f42617365546f6b656e2061646472657373206d6973736d617463680000000000604082015260600190565b6020808252601b908201527f44617461546f6b656e2061646472657373206d6973736d617463680000000000604082015260600190565b60208082526021908201527f4552523a204f6e6c79207075626c69736865722063616e2063616c6c207468696040820152607360f81b606082015260800190565b60208082526019908201527f4552523a6d696e416d6f756e744f7574206e6f74206d65657400000000000000604082015260600190565b60405181810167ffffffffffffffff81118282101715612e8b57612e8b612f56565b604052919050565b600067ffffffffffffffff821115612ead57612ead612f56565b5060209081020190565b60008219821115612eca57612eca612f40565b500190565b600082612eea57634e487b7160e01b81526012600452602481fd5b500490565b6000816000190483118215151615612f0957612f09612f40565b500290565b600082821015612f2057612f20612f40565b500390565b6000600019821415612f3957612f39612f40565b5060010190565b634e487b7160e01b600052601160045260246000fd5b634e487b7160e01b600052604160045260246000fd5b6001600160a01b0381168114611ce857600080fdfea26469706673582212208a05069fc644cff8b221c6e2546e079bbdc572baa3939a416214b7f58cb6bbb664736f6c63430008000033",
  "linkReferences": {},
  "deployedLinkReferences": {}
}