{
  "_format": "hh-sol-artifact-1",
  "contractName": "ssFixedRateV2",
  "sourceName": "contracts/ssContracts/ssFixedRateV2.sol",
  "abi": [
    {
      "inputs": [],
      "stateMutability": "nonpayable",
      "type": "constructor"
    },
    {
      "inputs": [
        {
          "internalType": "address",
          "name": "datatokenAddress",
          "type": "address"
        },
        {
          "internalType": "address",
          "name": "stakeToken",
          "type": "address"
        },
        {
          "internalType": "uint256",
          "name": "amount",
          "type": "uint256"
        }
      ],
      "name": "Stake",
      "outputs": [],
      "stateMutability": "nonpayable",
      "type": "function"
    },
    {
      "inputs": [
        {
          "internalType": "address",
          "name": "datatokenAddress",
          "type": "address"
        },
        {
          "internalType": "address",
          "name": "stakeToken",
          "type": "address"
        },
        {
          "internalType": "uint256",
          "name": "amount",
          "type": "uint256"
        }
      ],
      "name": "UnStake",
      "outputs": [],
      "stateMutability": "nonpayable",
      "type": "function"
    },
    {
      "inputs": [
        {
          "internalType": "address",
          "name": "datatokenAddress",
          "type": "address"
        },
        {
          "internalType": "address",
          "name": "basetoken",
          "type": "address"
        },
        {
          "internalType": "uint256",
          "name": "datatokenAmount",
          "type": "uint256"
        },
        {
          "internalType": "uint256",
          "name": "basetokenAmount",
          "type": "uint256"
        },
        {
          "internalType": "address",
          "name": "userAddress",
          "type": "address"
        }
      ],
      "name": "allowStake",
      "outputs": [
        {
          "internalType": "bool",
          "name": "",
          "type": "bool"
        }
      ],
      "stateMutability": "view",
      "type": "function"
    },
    {
      "inputs": [
        {
          "internalType": "address",
          "name": "datatokenAddress",
          "type": "address"
        },
        {
          "internalType": "address",
          "name": "basetoken",
          "type": "address"
        },
        {
          "internalType": "uint256",
          "name": "datatokenAmount",
          "type": "uint256"
        },
        {
          "internalType": "uint256",
          "name": "basetokenAmount",
          "type": "uint256"
        },
        {
          "internalType": "address",
          "name": "userAddress",
          "type": "address"
        }
      ],
      "name": "allowUnStake",
      "outputs": [
        {
          "internalType": "bool",
          "name": "",
          "type": "bool"
        }
      ],
      "stateMutability": "view",
      "type": "function"
    },
    {
      "inputs": [
        {
          "internalType": "address",
          "name": "datatokenAddress",
          "type": "address"
        },
        {
          "internalType": "address",
          "name": "tokenIn",
          "type": "address"
        },
        {
          "internalType": "address",
          "name": "tokenOut",
          "type": "address"
        },
        {
          "internalType": "uint256",
          "name": "tokenAmountOut",
          "type": "uint256"
        }
      ],
      "name": "calcInGivenOut",
      "outputs": [
        {
          "internalType": "uint256",
          "name": "",
          "type": "uint256"
        }
      ],
      "stateMutability": "view",
      "type": "function"
    },
    {
      "inputs": [
        {
          "internalType": "address",
          "name": "datatokenAddress",
          "type": "address"
        },
        {
          "internalType": "address",
          "name": "tokenIn",
          "type": "address"
        },
        {
          "internalType": "address",
          "name": "tokenOut",
          "type": "address"
        },
        {
          "internalType": "uint256",
          "name": "tokenAmountIn",
          "type": "uint256"
        }
      ],
      "name": "calcOutGivenIn",
      "outputs": [
        {
          "internalType": "uint256",
          "name": "",
          "type": "uint256"
        }
      ],
      "stateMutability": "view",
      "type": "function"
    },
    {
      "inputs": [
        {
          "internalType": "address",
          "name": "datatokenAddress",
          "type": "address"
        },
        {
          "internalType": "address",
          "name": "stakeToken",
          "type": "address"
        },
        {
          "internalType": "uint256",
          "name": "amount",
          "type": "uint256"
        }
      ],
      "name": "canStake",
      "outputs": [
        {
          "internalType": "bool",
          "name": "",
          "type": "bool"
        }
      ],
      "stateMutability": "view",
      "type": "function"
    },
    {
      "inputs": [
        {
          "internalType": "address",
          "name": "datatokenAddress",
          "type": "address"
        },
        {
          "internalType": "address",
          "name": "stakeToken",
          "type": "address"
        },
        {
          "internalType": "uint256",
          "name": "amount",
          "type": "uint256"
        }
      ],
      "name": "canUnStake",
      "outputs": [
        {
          "internalType": "bool",
          "name": "",
          "type": "bool"
        }
      ],
      "stateMutability": "view",
      "type": "function"
    },
    {
      "inputs": [
        {
          "internalType": "address",
          "name": "datatokenAddress",
          "type": "address"
        }
      ],
      "name": "getBaseTokenAddress",
      "outputs": [
        {
          "internalType": "address",
          "name": "",
          "type": "address"
        }
      ],
      "stateMutability": "view",
      "type": "function"
    },
    {
      "inputs": [
        {
          "internalType": "address",
          "name": "datatokenAddress",
          "type": "address"
        }
      ],
      "name": "getBaseTokenBalance",
      "outputs": [
        {
          "internalType": "uint256",
          "name": "",
          "type": "uint256"
        }
      ],
      "stateMutability": "view",
      "type": "function"
    },
    {
      "inputs": [
        {
          "internalType": "address",
          "name": "poolAddress",
          "type": "address"
        }
      ],
      "name": "getDTAddress",
      "outputs": [
        {
          "internalType": "address",
          "name": "",
          "type": "address"
        }
      ],
      "stateMutability": "view",
      "type": "function"
    },
    {
      "inputs": [
        {
          "internalType": "address",
          "name": "datatokenAddress",
          "type": "address"
        }
      ],
      "name": "getDataTokenBalance",
      "outputs": [
        {
          "internalType": "uint256",
          "name": "",
          "type": "uint256"
        }
      ],
      "stateMutability": "view",
      "type": "function"
    },
    {
      "inputs": [
        {
          "internalType": "address",
          "name": "datatokenAddress",
          "type": "address"
        }
      ],
      "name": "getDataTokenCirculatingSupply",
      "outputs": [
        {
          "internalType": "uint256",
          "name": "",
          "type": "uint256"
        }
      ],
      "stateMutability": "view",
      "type": "function"
    },
    {
      "inputs": [
        {
          "internalType": "address",
          "name": "datatokenAddress",
          "type": "address"
        }
      ],
      "name": "getPoolAddress",
      "outputs": [
        {
          "internalType": "address",
          "name": "",
          "type": "address"
        }
      ],
      "stateMutability": "view",
      "type": "function"
    },
    {
      "inputs": [
        {
          "internalType": "address",
          "name": "datatokenAddress",
          "type": "address"
        }
      ],
      "name": "getPublisherAddress",
      "outputs": [
        {
          "internalType": "address",
          "name": "",
          "type": "address"
        }
      ],
      "stateMutability": "view",
      "type": "function"
    },
    {
      "inputs": [
        {
          "internalType": "address",
          "name": "datatokenAddress",
          "type": "address"
        }
      ],
      "name": "getVesting",
      "outputs": [],
      "stateMutability": "nonpayable",
      "type": "function"
    },
    {
      "inputs": [
        {
          "internalType": "address",
          "name": "datatokenAddress",
          "type": "address"
        }
      ],
      "name": "getburnInEndBlock",
      "outputs": [
        {
          "internalType": "uint256",
          "name": "",
          "type": "uint256"
        }
      ],
      "stateMutability": "view",
      "type": "function"
    },
    {
      "inputs": [
        {
          "internalType": "address",
          "name": "datatokenAddress",
          "type": "address"
        }
      ],
      "name": "getvestingAmount",
      "outputs": [
        {
          "internalType": "uint256",
          "name": "",
          "type": "uint256"
        }
      ],
      "stateMutability": "view",
      "type": "function"
    },
    {
      "inputs": [
        {
          "internalType": "address",
          "name": "datatokenAddress",
          "type": "address"
        }
      ],
      "name": "getvestingAmountSoFar",
      "outputs": [
        {
          "internalType": "uint256",
          "name": "",
          "type": "uint256"
        }
      ],
      "stateMutability": "view",
      "type": "function"
    },
    {
      "inputs": [
        {
          "internalType": "address",
          "name": "datatokenAddress",
          "type": "address"
        }
      ],
      "name": "getvestingEndBlock",
      "outputs": [
        {
          "internalType": "uint256",
          "name": "",
          "type": "uint256"
        }
      ],
      "stateMutability": "view",
      "type": "function"
    },
    {
      "inputs": [
        {
          "internalType": "address",
          "name": "datatokenAddress",
          "type": "address"
        }
      ],
      "name": "getvestingLastBlock",
      "outputs": [
        {
          "internalType": "uint256",
          "name": "",
          "type": "uint256"
        }
      ],
      "stateMutability": "view",
      "type": "function"
    },
    {
      "inputs": [
        {
          "internalType": "address",
          "name": "datatokenAddress",
          "type": "address"
        }
      ],
      "name": "isInBurnIn",
      "outputs": [
        {
          "internalType": "bool",
          "name": "",
          "type": "bool"
        }
      ],
      "stateMutability": "view",
      "type": "function"
    },
    {
      "inputs": [
        {
          "internalType": "address",
          "name": "datatokenAddress",
          "type": "address"
        },
        {
          "internalType": "address",
          "name": "basetokenAddress",
          "type": "address"
        },
        {
          "internalType": "address",
          "name": "poolAddress",
          "type": "address"
        },
        {
          "internalType": "address",
          "name": "publisherAddress",
          "type": "address"
        },
        {
          "internalType": "uint256",
          "name": "burnInEndBlock",
          "type": "uint256"
        },
        {
          "internalType": "uint256[]",
          "name": "ssParams",
          "type": "uint256[]"
        }
      ],
      "name": "newDataTokenCreated",
      "outputs": [
        {
          "internalType": "bool",
          "name": "",
          "type": "bool"
        }
      ],
      "stateMutability": "nonpayable",
      "type": "function"
    },
    {
      "inputs": [
        {
          "internalType": "address",
          "name": "datatokenAddress",
          "type": "address"
        }
      ],
      "name": "notifyFinalize",
      "outputs": [],
      "stateMutability": "nonpayable",
      "type": "function"
    },
    {
      "inputs": [
        {
          "internalType": "address",
          "name": "pool",
          "type": "address"
        },
        {
          "internalType": "address",
          "name": "_datatokenAddress",
          "type": "address"
        }
      ],
      "name": "setDTinPool",
      "outputs": [],
      "stateMutability": "nonpayable",
      "type": "function"
    },
    {
      "inputs": [
        {
          "internalType": "bytes32",
          "name": "poolId",
          "type": "bytes32"
        },
        {
          "internalType": "contract IERC20[]",
          "name": "tokens",
          "type": "address[]"
        },
        {
          "internalType": "uint256[]",
          "name": "maxAmountsIn",
          "type": "uint256[]"
        },
        {
          "internalType": "bytes",
          "name": "userDataStake",
          "type": "bytes"
        },
        {
          "internalType": "uint256",
          "name": "amountInDT",
          "type": "uint256"
        }
      ],
      "name": "stake",
      "outputs": [
        {
          "internalType": "bool",
          "name": "",
          "type": "bool"
        }
      ],
      "stateMutability": "nonpayable",
      "type": "function"
    },
    {
      "inputs": [
        {
          "internalType": "address",
          "name": "datatokenAddress",
          "type": "address"
        },
        {
          "internalType": "address",
          "name": "userAddress",
          "type": "address"
        },
        {
          "internalType": "address",
          "name": "tokenIn",
          "type": "address"
        },
        {
          "internalType": "uint256",
          "name": "tokenAmountIn",
          "type": "uint256"
        },
        {
          "internalType": "address",
          "name": "tokenOut",
          "type": "address"
        },
        {
          "internalType": "uint256",
          "name": "minAmountOut",
          "type": "uint256"
        }
      ],
      "name": "swapExactAmountIn",
      "outputs": [
        {
          "internalType": "uint256",
          "name": "tokenAmountOut",
          "type": "uint256"
        }
      ],
      "stateMutability": "nonpayable",
      "type": "function"
    },
    {
      "inputs": [
        {
          "internalType": "address",
          "name": "datatokenAddress",
          "type": "address"
        },
        {
          "internalType": "address",
          "name": "userAddress",
          "type": "address"
        },
        {
          "internalType": "address",
          "name": "tokenIn",
          "type": "address"
        },
        {
          "internalType": "uint256",
          "name": "maxTokenAmountIn",
          "type": "uint256"
        },
        {
          "internalType": "address",
          "name": "tokenOut",
          "type": "address"
        },
        {
          "internalType": "uint256",
          "name": "amountOut",
          "type": "uint256"
        }
      ],
      "name": "swapExactAmountOut",
      "outputs": [
        {
          "internalType": "uint256",
          "name": "tokenAmountIn",
          "type": "uint256"
        }
      ],
      "stateMutability": "nonpayable",
      "type": "function"
    }
  ],
  "bytecode": "0x6080604052600280546001600160a01b03191673ba12222222228d8ba445958a75a0704d566bf2c817905534801561003657600080fd5b506130df806100466000396000f3fe608060405234801561001057600080fd5b50600436106101c45760003560e01c806399039fcf116100f9578063cf268dea11610097578063f03cd39611610071578063f03cd396146103b0578063f09a9c05146103c3578063fa93fd6d146103d6578063fc943920146103e9576101c4565b8063cf268dea14610377578063e0b663c81461038a578063efd481031461039d576101c4565b8063c1b4904d116100d3578063c1b4904d1461032b578063c4be24901461033e578063cc49ede714610351578063ccda98c714610364576101c4565b806399039fcf146102f2578063bccf74fe14610305578063bee3913d14610318576101c4565b80633e6d363f116101665780637a3ae0c5116101405780637a3ae0c5146102b75780637eaf89011461022557806388afadce146102cc57806392f6cb67146102df576101c4565b80633e6d363f1461027e5780634f3e66dc14610291578063799ece85146102a4576101c4565b806324571dd7116101a257806324571dd7146102255780632686375b1461023857806326b1f01f1461025857806330c157011461026b576101c4565b80630734b5b1146101c95780631228cbee146101f25780631f16cde614610212575b600080fd5b6101dc6101d73660046127b9565b6103fc565b6040516101e99190612c59565b60405180910390f35b6102056102003660046127b9565b61045d565b6040516101e99190612bce565b6102056102203660046127b9565b6104ad565b6101dc6102333660046129b6565b610501565b61024b6102463660046127b9565b61059c565b6040516101e99190612f6f565b6101dc610266366004612976565b6105e8565b61024b610279366004612907565b61077f565b61024b61028c366004612907565b610a60565b6101dc61029f366004612829565b610ce2565b61024b6102b23660046127b9565b61159c565b6102ca6102c53660046127f1565b6115e8565b005b61024b6102da3660046127b9565b611616565b61024b6102ed3660046128b7565b611676565b6102ca610300366004612976565b6116b9565b61024b6103133660046127b9565b61180f565b61024b6103263660046128b7565b61185b565b61024b6103393660046127b9565b611893565b61024b61034c3660046127b9565b6118df565b6102ca61035f3660046127b9565b61192b565b6101dc610372366004612a34565b611b7d565b6102ca610385366004612976565b611e68565b6102056103983660046127b9565b611f25565b6101dc6103ab366004612976565b611f43565b61024b6103be3660046127b9565b611fe9565b61024b6103d13660046127b9565b612035565b6102056103e43660046127b9565b612081565b6102ca6103f73660046127b9565b6120d2565b6001600160a01b038116600090815260016020819052604082205460ff1615151461042957506000610458565b6001600160a01b03821660009081526001602052604090206006015443111561045457506000610458565b5060015b919050565b6001600160a01b038116600090815260016020819052604082205460ff1615151461048a57506000610458565b506001600160a01b03908116600090815260016020819052604090912001541690565b6001600160a01b038116600090815260016020819052604082205460ff161515146104da57506000610458565b506001600160a01b0390811660009081526001602052604090206008015461010090041690565b6001600160a01b038516600090815260016020819052604082205460ff1615151461052e57506000610593565b6001600160a01b03868116600090815260016020819052604090912001541633146105745760405162461bcd60e51b815260040161056b90612e52565b60405180910390fd5b61057d866103fc565b15156001141561058f57506000610593565b5060015b95945050505050565b6001600160a01b038116600090815260016020819052604082205460ff161515146105c957506000610458565b506001600160a01b03166000908152600160205260409020600b015490565b6001600160a01b038316600090815260016020819052604082205460ff1615151461061557506000610778565b6001600160a01b03848116600090815260016020819052604090912001541633146106525760405162461bcd60e51b815260040161056b90612e52565b6001600160a01b03841660009081526001602081905260409091205460ff1615151461068057506000610778565b6001600160a01b038481166000908152600160205260409020546101009004811690841614156106b257506000610778565b6040516370a0823160e01b815284906000906001600160a01b038316906370a08231906106e3903090600401612bce565b60206040518083038186803b1580156106fb57600080fd5b505afa15801561070f573d6000803e3d6000fd5b505050506040513d601f19601f820116820180604052508101906107339190612b2b565b6001600160a01b03871660009081526001602052604090206002015490915084118015906107615750838110155b1561077157600192505050610778565b6000925050505b9392505050565b6001600160a01b038616600090815260016020819052604082205460ff161515146107bc5760405162461bcd60e51b815260040161056b90612d2c565b6001600160a01b03878116600090815260016020819052604090912001541633146107f95760405162461bcd60e51b815260040161056b90612e52565b610802876103fc565b15156001146108235760405162461bcd60e51b815260040161056b90612e1b565b61082f8786858561185b565b9050838111156108515760405162461bcd60e51b815260040161056b90612d80565b6001600160a01b03878116600090815260016020819052604091829020015490516323b872dd60e01b81528792808416926323b872dd9261089d92919091169030908790600401612be2565b602060405180830381600087803b1580156108b757600080fd5b505af11580156108cb573d6000803e3d6000fd5b505050506040513d601f19601f820116820180604052508101906108ef9190612a14565b50876001600160a01b0316866001600160a01b03161415610970576001600160a01b03881660009081526001602052604081206004018054859290610935908490612fdf565b90915550506001600160a01b03881660009081526001602052604081206002018054849290610965908490612fdf565b909155506109d19050565b6001600160a01b0388166000908152600160205260408120600201805485929061099b908490612fdf565b90915550506001600160a01b038816600090815260016020526040812060040180548492906109cb908490612fdf565b90915550505b60405163a9059cbb60e01b815284906001600160a01b0382169063a9059cbb90610a01908b908890600401612c06565b602060405180830381600087803b158015610a1b57600080fd5b505af1158015610a2f573d6000803e3d6000fd5b505050506040513d601f19601f82011682018060405250810190610a539190612a14565b5050509695505050505050565b6001600160a01b038616600090815260016020819052604082205460ff16151514610a9d5760405162461bcd60e51b815260040161056b90612d2c565b6001600160a01b0387811660009081526001602081905260409091200154163314610ada5760405162461bcd60e51b815260040161056b90612e52565b610ae3876103fc565b1515600114610b045760405162461bcd60e51b815260040161056b90612e1b565b610b1087868587611676565b905081811015610b325760405162461bcd60e51b815260040161056b90612f38565b6001600160a01b03878116600090815260016020819052604091829020015490516323b872dd60e01b81528792808416926323b872dd92610b7e92919091169030908a90600401612be2565b602060405180830381600087803b158015610b9857600080fd5b505af1158015610bac573d6000803e3d6000fd5b505050506040513d601f19601f82011682018060405250810190610bd09190612a14565b50876001600160a01b0316866001600160a01b03161415610c51576001600160a01b03881660009081526001602052604081206004018054849290610c16908490612fdf565b90915550506001600160a01b03881660009081526001602052604081206002018054879290610c46908490612fdf565b90915550610cb29050565b6001600160a01b03881660009081526001602052604081206002018054849290610c7c908490612fdf565b90915550506001600160a01b03881660009081526001602052604081206004018054879290610cac908490612fdf565b90915550505b60405163a9059cbb60e01b815284906001600160a01b0382169063a9059cbb90610a01908b908790600401612c06565b60006001600160a01b038516610d0a5760405162461bcd60e51b815260040161056b90612dee565b6000859050306001600160a01b0316816001600160a01b0316633018205f6040518163ffffffff1660e01b815260040160206040518083038186803b158015610d5257600080fd5b505afa158015610d66573d6000803e3d6000fd5b505050506040513d601f19601f82011682018060405250810190610d8a91906127d5565b6001600160a01b031614610db05760405162461bcd60e51b815260040161056b90612db7565b876001600160a01b0316816001600160a01b03166304ad79546040518163ffffffff1660e01b815260040160206040518083038186803b158015610df357600080fd5b505afa158015610e07573d6000803e3d6000fd5b505050506040513d601f19601f82011682018060405250810190610e2b91906127d5565b6001600160a01b031614610e515760405162461bcd60e51b815260040161056b90612ec0565b866001600160a01b0316816001600160a01b0316634df947d06040518163ffffffff1660e01b815260040160206040518083038186803b158015610e9457600080fd5b505afa158015610ea8573d6000803e3d6000fd5b505050506040513d601f19601f82011682018060405250810190610ecc91906127d5565b6001600160a01b031614610ef25760405162461bcd60e51b815260040161056b90612e89565b6000889050306001600160a01b0316816001600160a01b031663075461726040518163ffffffff1660e01b815260040160206040518083038186803b158015610f3a57600080fd5b505afa158015610f4e573d6000803e3d6000fd5b505050506040513d601f19601f82011682018060405250810190610f7291906127d5565b6001600160a01b031614610f985760405162461bcd60e51b815260040161056b90612e89565b806001600160a01b03166340c10f1930836001600160a01b03166318160ddd6040518163ffffffff1660e01b815260040160206040518083038186803b158015610fe157600080fd5b505afa158015610ff5573d6000803e3d6000fd5b505050506040513d601f19601f820116820180604052508101906110199190612b2b565b6040518363ffffffff1660e01b8152600401611036929190612c06565b600060405180830381600087803b15801561105057600080fd5b505af1158015611064573d6000803e3d6000fd5b50505050806001600160a01b03166318160ddd6040518163ffffffff1660e01b815260040160206040518083038186803b1580156110a157600080fd5b505afa1580156110b5573d6000803e3d6000fd5b505050506040513d601f19601f820116820180604052508101906110d99190612b2b565b6040516370a0823160e01b81526001600160a01b038316906370a0823190611105903090600401612bce565b60206040518083038186803b15801561111d57600080fd5b505afa158015611131573d6000803e3d6000fd5b505050506040513d601f19601f820116820180604052508101906111559190612b2b565b146111725760405162461bcd60e51b815260040161056b90612d5b565b60008460008151811061119557634e487b7160e01b600052603260045260246000fd5b602002602001015190506000856001815181106111c257634e487b7160e01b600052603260045260246000fd5b6020026020010151600014156111da575060006111de565b5060015b60008660028151811061120157634e487b7160e01b600052603260045260246000fd5b6020026020010151905060008760038151811061122e57634e487b7160e01b600052603260045260246000fd5b6020026020010151436112419190612fdf565b90506040518061022001604052806001151581526020018d6001600160a01b031681526020018c6001600160a01b03168152602001600015158152602001866001600160a01b03166318160ddd6040518163ffffffff1660e01b815260040160206040518083038186803b1580156112b857600080fd5b505afa1580156112cc573d6000803e3d6000fd5b505050506040513d601f19601f820116820180604052508101906112f09190612b2b565b8152602001866001600160a01b031663355274ea6040518163ffffffff1660e01b815260040160206040518083038186803b15801561132e57600080fd5b505afa158015611342573d6000803e3d6000fd5b505050506040513d601f19601f820116820180604052508101906113669190612b2b565b815260200160008152602001600081526020018a815260200185815260200184151581526020018b6001600160a01b031681526020014381526020018281526020018381526020014381526020016000815250600160008f6001600160a01b03166001600160a01b0316815260200190815260200160002060008201518160000160006101000a81548160ff02191690831515021790555060208201518160000160016101000a8154816001600160a01b0302191690836001600160a01b0316021790555060408201518160010160006101000a8154816001600160a01b0302191690836001600160a01b0316021790555060608201518160010160146101000a81548160ff0219169083151502179055506080820151816002015560a0820151816003015560c0820151816004015560e08201518160050155610100820151816006015561012082015181600701556101408201518160080160006101000a81548160ff0219169083151502179055506101608201518160080160016101000a8154816001600160a01b0302191690836001600160a01b0316021790555061018082015181600901556101a082015181600a01556101c082015181600b01556101e082015181600c015561020082015181600d01559050508c6000808d6001600160a01b03166001600160a01b0316815260200190815260200160002060006101000a8154816001600160a01b0302191690836001600160a01b03160217905550600196505050505050509695505050505050565b6001600160a01b038116600090815260016020819052604082205460ff161515146115c957506000610458565b506001600160a01b03166000908152600160205260409020600a015490565b6001600160a01b03918216600090815260208190526040902080546001600160a01b03191691909216179055565b6001600160a01b038116600090815260016020819052604082205460ff1615151461164357506000610458565b6001600160a01b038216600090815260016020526040902060028101546003909101546116709190613036565b92915050565b6001600160a01b038416600090815260016020819052604082205460ff161515146116a3575060006116b1565b6116ae848484612450565b90505b949350505050565b6001600160a01b03831660009081526001602081905260409091205460ff161515146116e45761180a565b6001600160a01b03838116600090815260016020819052604090912001541633146117215760405162461bcd60e51b815260040161056b90612e52565b600061172e8484846105e8565b9050600181151514611740575061180a565b6001600160a01b038085166000818152600160208190526040918290200154905163095ea7b360e01b8152879363095ea7b392611784929116908790600401612c06565b602060405180830381600087803b15801561179e57600080fd5b505af11580156117b2573d6000803e3d6000fd5b505050506040513d601f19601f820116820180604052508101906117d69190612a14565b506001600160a01b03851660009081526001602052604081206002018054859290611802908490613036565b909155505050505b505050565b6001600160a01b038116600090815260016020819052604082205460ff1615151461183c57506000610458565b506001600160a01b03166000908152600160205260409020600d015490565b6001600160a01b038416600090815260016020819052604082205460ff16151514611888575060006116b1565b6116ae848484612546565b6001600160a01b038116600090815260016020819052604082205460ff161515146118c057506000610458565b506001600160a01b031660009081526001602052604090206002015490565b6001600160a01b038116600090815260016020819052604082205460ff1615151461190c57506000610458565b506001600160a01b031660009081526001602052604090206004015490565b6001600160a01b03811660009081526001602081905260409091205460ff161515146119695760405162461bcd60e51b815260040161056b90612d2c565b6001600160a01b0381811660009081526001602052604090206008015461010090041633146119aa5760405162461bcd60e51b815260040161056b90612ef7565b6001600160a01b0381166000908152600160205260408120600c01546119d09043613036565b6001600160a01b03831660009081526001602052604081206009810154600a909101549293509091611a2791611a0591613036565b6001600160a01b0385166000908152600160205260409020600b01549061262e565b905080611a35575050611b7a565b6000611a41838361263a565b9050600081118015611a6e57506001600160a01b0384166000908152600160205260409020600201548111155b15611b76576001600160a01b0384166000908152600160205260408120600b0180548692849291611aa0908490612fdf565b90915550506001600160a01b038086166000908152600160205260409081902043600c82015560080154905163a9059cbb60e01b81528383169263a9059cbb92611af892610100909104909116908690600401612c06565b602060405180830381600087803b158015611b1257600080fd5b505af1158015611b26573d6000803e3d6000fd5b505050506040513d601f19601f82011682018060405250810190611b4a9190612a14565b506001600160a01b03851660009081526001602052604081206002018054849290611802908490613036565b5050505b50565b600080611b8933611f25565b6001600160a01b03166370a08231306040518263ffffffff1660e01b8152600401611bb49190612bce565b60206040518083038186803b158015611bcc57600080fd5b505afa158015611be0573d6000803e3d6000fd5b505050506040513d601f19601f82011682018060405250810190611c049190612b2b565b9050611c2c81604051806040016040528060048152602001636171756960e01b815250612646565b828110611e5e57611c3c33611f25565b60025460405163095ea7b360e01b81526001600160a01b039283169263095ea7b392611c6f929116908790600401612c06565b602060405180830381600087803b158015611c8957600080fd5b505af1158015611c9d573d6000803e3d6000fd5b505050506040513d601f19601f82011682018060405250810190611cc19190612a14565b5060005b8651811015611d5d576000878281518110611cf057634e487b7160e01b600052603260045260246000fd5b6020908102919091010151600380546001810182556000919091527fc2575a0e9e593c00f959f8c92f12db2869c3395a3b0502d05e2516446f71f85b0180546001600160a01b0319166001600160a01b039092169190911790555080611d558161304d565b915050611cc5565b50604080516003805460a06020820284018101909452608083018181526000948493919290840182828015611dbb57602002820191906000526020600020905b81546001600160a01b03168152600190910190602001808311611d9d575b50505091835250506020810188905260408082018890526000606090920191909152600254905163172b958560e31b81529192506001600160a01b03169063b95cac2890611e13908b90309081908790600401612c64565b600060405180830381600087803b158015611e2d57600080fd5b505af1158015611e41573d6000803e3d6000fd5b5050505060036000611e5391906126b0565b600192505050610593565b6000915050610593565b6001600160a01b03831660009081526001602081905260409091205460ff16151514611e935761180a565b6001600160a01b0383811660009081526001602081905260409091200154163314611ed05760405162461bcd60e51b815260040161056b90612e52565b6000611edd848484611f43565b9050600181151514611eef575061180a565b6001600160a01b03841660009081526001602052604081206002018054849290611f1a908490612fdf565b909155505050505050565b6001600160a01b039081166000908152602081905260409020541690565b6001600160a01b038316600090815260016020819052604082205460ff16151514611f7057506000610778565b6001600160a01b0384811660009081526001602081905260409091200154163314611fad5760405162461bcd60e51b815260040161056b90612e52565b6001600160a01b03848116600090815260016020526040902054610100900481169084161415611fdf57506000610778565b5060019392505050565b6001600160a01b038116600090815260016020819052604082205460ff1615151461201657506000610458565b506001600160a01b03166000908152600160205260409020600c015490565b6001600160a01b038116600090815260016020819052604082205460ff1615151461206257506000610458565b506001600160a01b031660009081526001602052604090206006015490565b6001600160a01b038116600090815260016020819052604082205460ff161515146120ae57506000610458565b506001600160a01b0390811660009081526001602052604090205461010090041690565b6001600160a01b03811660009081526001602081905260409091205460ff161515146120fd57611b7a565b6001600160a01b038181166000908152600160208190526040909120015416331461213a5760405162461bcd60e51b815260040161056b90612e52565b6001600160a01b0381166000908152600160208190526040909120810154600160a01b900460ff161515141561216f57611b7a565b6001600160a01b0381166000908152600160208190526040822001805460ff60a01b1916600160a01b1790556121ae670de0b6b3a76400006005613017565b905060006121c5670de0b6b3a76400006005613017565b6001600160a01b038416600090815260016020526040812060040154919250826121ef8584612ff7565b6001600160a01b0387166000908152600160205260409020600701546122159190613017565b61221f9190613017565b6001600160a01b038087166000818152600160208190526040918290200154905163095ea7b360e01b81529394508893919263095ea7b39261226992909116908690600401612c06565b602060405180830381600087803b15801561228357600080fd5b505af1158015612297573d6000803e3d6000fd5b505050506040513d601f19601f820116820180604052508101906122bb9190612a14565b506001600160a01b038087166000908152600160205260409081902054905163095ea7b360e01b815261010090910490911690819063095ea7b3906123069083908890600401612c06565b602060405180830381600087803b15801561232057600080fd5b505af1158015612334573d6000803e3d6000fd5b505050506040513d601f19601f820116820180604052508101906123589190612a14565b506001600160a01b0380881660009081526001602081905260409182902090810154905491516309ef3f5b60e01b81529083169283926309ef3f5b926123b4928d928a928d92610100909204909116908c908f90600401612c1f565b600060405180830381600087803b1580156123ce57600080fd5b505af11580156123e2573d6000803e3d6000fd5b505050506001600160a01b03881660009081526001602052604081206004018054879290612411908490613036565b90915550506001600160a01b03881660009081526001602052604081206002018054869290612441908490613036565b90915550505050505050505050565b6001600160a01b038316600090815260016020819052604082205460ff16151514156124e3576001600160a01b03841660009081526001602052604090206008015460ff166124a157506000610778565b6001600160a01b0384166000908152600160205260409020600701546124dc90670de0b6b3a7640000906124d690859061263a565b9061262e565b9050610778565b6001600160a01b03831660009081526001602081905260409091205460ff161515141561253c576001600160a01b0384166000908152600160205260409020600701546124dc906124d684670de0b6b3a764000061263a565b5060009392505050565b6001600160a01b038316600090815260016020819052604082205460ff16151514156125d2576001600160a01b03841660009081526001602052604090206008015460ff1661259757506000610778565b6001600160a01b0384166000908152600160205260408120600701546125c9906124d685670de0b6b3a764000061263a565b91506107789050565b6001600160a01b03831660009081526001602081905260409091205460ff161515141561253c576001600160a01b0384166000908152600160205260408120600701546125c990670de0b6b3a7640000906124d690869061263a565b60006107788284612ff7565b60006107788284613017565b61268b828260405160240161265c929190612f78565b60408051601f198184030181529190526020810180516001600160e01b0316630fa3f34560e01b17905261268f565b5050565b80516a636f6e736f6c652e6c6f67602083016000808483855afa5050505050565b5080546000825590600052602060002090810190611b7a91905b808211156126de57600081556001016126ca565b5090565b600082601f8301126126f2578081fd5b8135602061270761270283612fbb565b612f91565b8281528181019085830183850287018401881015612723578586fd5b855b8581101561274157813584529284019290840190600101612725565b5090979650505050505050565b600082601f83011261275e578081fd5b813567ffffffffffffffff8111156127785761277861307e565b61278b601f8201601f1916602001612f91565b81815284602083860101111561279f578283fd5b816020850160208301379081016020019190915292915050565b6000602082840312156127ca578081fd5b813561077881613094565b6000602082840312156127e6578081fd5b815161077881613094565b60008060408385031215612803578081fd5b823561280e81613094565b9150602083013561281e81613094565b809150509250929050565b60008060008060008060c08789031215612841578182fd5b863561284c81613094565b9550602087013561285c81613094565b9450604087013561286c81613094565b9350606087013561287c81613094565b92506080870135915060a087013567ffffffffffffffff81111561289e578182fd5b6128aa89828a016126e2565b9150509295509295509295565b600080600080608085870312156128cc578384fd5b84356128d781613094565b935060208501356128e781613094565b925060408501356128f781613094565b9396929550929360600135925050565b60008060008060008060c0878903121561291f578182fd5b863561292a81613094565b9550602087013561293a81613094565b9450604087013561294a81613094565b935060608701359250608087013561296181613094565b8092505060a087013590509295509295509295565b60008060006060848603121561298a578283fd5b833561299581613094565b925060208401356129a581613094565b929592945050506040919091013590565b600080600080600060a086880312156129cd578283fd5b85356129d881613094565b945060208601356129e881613094565b935060408601359250606086013591506080860135612a0681613094565b809150509295509295909350565b600060208284031215612a25578081fd5b81518015158114610778578182fd5b600080600080600060a08688031215612a4b578283fd5b8535945060208087013567ffffffffffffffff80821115612a6a578586fd5b818901915089601f830112612a7d578586fd5b8135612a8b61270282612fbb565b81815284810190848601868402860187018e1015612aa757898afd5b8995505b83861015612ad2578035612abe81613094565b835260019590950194918601918601612aab565b50985050506040890135925080831115612aea578586fd5b612af68a848b016126e2565b95506060890135925080831115612b0b578384fd5b5050612b198882890161274e565b95989497509295608001359392505050565b600060208284031215612b3c578081fd5b5051919050565b6000815180845260208085019450808401835b83811015612b7257815187529582019590820190600101612b56565b509495945050505050565b15159052565b60008151808452815b81811015612ba857602081850181015186830182015201612b8c565b81811115612bb95782602083870101525b50601f01601f19169290920160200192915050565b6001600160a01b0391909116815260200190565b6001600160a01b039384168152919092166020820152604081019190915260600190565b6001600160a01b03929092168252602082015260400190565b6001600160a01b0396871681526020810195909552604085019390935293166060830152608082019290925260a081019190915260c00190565b901515815260200190565b6000858252602060018060a01b0380871682850152808616604085015260806060850152610100840185516080808701528181518084526101208801915085830193508692505b80831015612ccd57835185168252928501926001929092019190850190612cab565b50848801519450607f199350838782030160a0880152612ced8186612b43565b94505050506040850151818584030160c0860152612d0b8382612b83565b925050506060840151612d2160e0850182612b7d565b509695505050505050565b60208082526015908201527422a9291d24b73b30b634b2103230ba30ba37b5b2b760591b604082015260600190565b6020808252600b908201526a135a5b9d0819985a5b195960aa1b604082015260600190565b6020808252601d908201527f4552523a6d6178546f6b656e416d6f756e74496e206e6f74206d656574000000604082015260600190565b6020808252601e908201527f576520617265206e6f742074686520706f6f6c20636f6e74726f6c6c65720000604082015260600190565b602080825260139082015272496e76616c696420706f6f6c4164647265737360681b604082015260600190565b6020808252601a908201527f4552523a204e6f7420696e206275726e2d696e20706572696f64000000000000604082015260600190565b6020808252601c908201527f4552523a204f6e6c7920706f6f6c2063616e2063616c6c207468697300000000604082015260600190565b6020808252601b908201527f42617365546f6b656e2061646472657373206d6973736d617463680000000000604082015260600190565b6020808252601b908201527f44617461546f6b656e2061646472657373206d6973736d617463680000000000604082015260600190565b60208082526021908201527f4552523a204f6e6c79207075626c69736865722063616e2063616c6c207468696040820152607360f81b606082015260800190565b60208082526019908201527f4552523a6d696e416d6f756e744f7574206e6f74206d65657400000000000000604082015260600190565b90815260200190565b6000838252604060208301526116b16040830184612b83565b60405181810167ffffffffffffffff81118282101715612fb357612fb361307e565b604052919050565b600067ffffffffffffffff821115612fd557612fd561307e565b5060209081020190565b60008219821115612ff257612ff2613068565b500190565b60008261301257634e487b7160e01b81526012600452602481fd5b500490565b600081600019048311821515161561303157613031613068565b500290565b60008282101561304857613048613068565b500390565b600060001982141561306157613061613068565b5060010190565b634e487b7160e01b600052601160045260246000fd5b634e487b7160e01b600052604160045260246000fd5b6001600160a01b0381168114611b7a57600080fdfea26469706673582212207d12c2f268dd2634fa1b1994249fd70d0e5a7f681be361fbe9c73569c0af7aec64736f6c63430008000033",
  "linkReferences": {},
  "deployedLinkReferences": {}
}