{
  "_format": "hh-sol-artifact-1",
  "contractName": "BFactory",
  "sourceName": "contracts/oldV3Factory/BFactory.sol",
  "abi": [
    {
      "constant": false,
      "inputs": [
        {
          "name": "controller",
          "type": "address"
        }
      ],
      "name": "newBPool",
      "outputs": [
        {
          "name": "bpool",
          "type": "address"
        }
      ],
      "payable": false,
      "stateMutability": "nonpayable",
      "type": "function"
    },
    {
      "constant": true,
      "inputs": [],
      "name": "MAX_TOTAL_WEIGHT",
      "outputs": [
        {
          "name": "",
          "type": "uint256"
        }
      ],
      "payable": false,
      "stateMutability": "view",
      "type": "function"
    },
    {
      "constant": true,
      "inputs": [],
      "name": "BPOW_PRECISION",
      "outputs": [
        {
          "name": "",
          "type": "uint256"
        }
      ],
      "payable": false,
      "stateMutability": "view",
      "type": "function"
    },
    {
      "constant": true,
      "inputs": [],
      "name": "MIN_WEIGHT",
      "outputs": [
        {
          "name": "",
          "type": "uint256"
        }
      ],
      "payable": false,
      "stateMutability": "view",
      "type": "function"
    },
    {
      "constant": true,
      "inputs": [],
      "name": "MIN_FEE",
      "outputs": [
        {
          "name": "",
          "type": "uint256"
        }
      ],
      "payable": false,
      "stateMutability": "view",
      "type": "function"
    },
    {
      "constant": true,
      "inputs": [],
      "name": "MIN_BALANCE",
      "outputs": [
        {
          "name": "",
          "type": "uint256"
        }
      ],
      "payable": false,
      "stateMutability": "view",
      "type": "function"
    },
    {
      "constant": true,
      "inputs": [],
      "name": "INIT_POOL_SUPPLY",
      "outputs": [
        {
          "name": "",
          "type": "uint256"
        }
      ],
      "payable": false,
      "stateMutability": "view",
      "type": "function"
    },
    {
      "constant": true,
      "inputs": [],
      "name": "MAX_OUT_RATIO",
      "outputs": [
        {
          "name": "",
          "type": "uint256"
        }
      ],
      "payable": false,
      "stateMutability": "view",
      "type": "function"
    },
    {
      "constant": true,
      "inputs": [],
      "name": "MAX_BOUND_TOKENS",
      "outputs": [
        {
          "name": "",
          "type": "uint256"
        }
      ],
      "payable": false,
      "stateMutability": "view",
      "type": "function"
    },
    {
      "constant": true,
      "inputs": [],
      "name": "MIN_BOUND_TOKENS",
      "outputs": [
        {
          "name": "",
          "type": "uint256"
        }
      ],
      "payable": false,
      "stateMutability": "view",
      "type": "function"
    },
    {
      "constant": true,
      "inputs": [],
      "name": "MIN_BPOW_BASE",
      "outputs": [
        {
          "name": "",
          "type": "uint256"
        }
      ],
      "payable": false,
      "stateMutability": "view",
      "type": "function"
    },
    {
      "constant": true,
      "inputs": [],
      "name": "bpoolTemplate",
      "outputs": [
        {
          "name": "",
          "type": "address"
        }
      ],
      "payable": false,
      "stateMutability": "view",
      "type": "function"
    },
    {
      "constant": true,
      "inputs": [],
      "name": "MAX_FEE",
      "outputs": [
        {
          "name": "",
          "type": "uint256"
        }
      ],
      "payable": false,
      "stateMutability": "view",
      "type": "function"
    },
    {
      "constant": true,
      "inputs": [],
      "name": "MAX_BPOW_BASE",
      "outputs": [
        {
          "name": "",
          "type": "uint256"
        }
      ],
      "payable": false,
      "stateMutability": "view",
      "type": "function"
    },
    {
      "constant": true,
      "inputs": [],
      "name": "BONE",
      "outputs": [
        {
          "name": "",
          "type": "uint256"
        }
      ],
      "payable": false,
      "stateMutability": "view",
      "type": "function"
    },
    {
      "constant": true,
      "inputs": [],
      "name": "EXIT_FEE",
      "outputs": [
        {
          "name": "",
          "type": "uint256"
        }
      ],
      "payable": false,
      "stateMutability": "view",
      "type": "function"
    },
    {
      "constant": true,
      "inputs": [],
      "name": "MAX_WEIGHT",
      "outputs": [
        {
          "name": "",
          "type": "uint256"
        }
      ],
      "payable": false,
      "stateMutability": "view",
      "type": "function"
    },
    {
      "constant": true,
      "inputs": [],
      "name": "MAX_IN_RATIO",
      "outputs": [
        {
          "name": "",
          "type": "uint256"
        }
      ],
      "payable": false,
      "stateMutability": "view",
      "type": "function"
    },
    {
      "inputs": [
        {
          "name": "_bpoolTemplate",
          "type": "address"
        }
      ],
      "payable": false,
      "stateMutability": "nonpayable",
      "type": "constructor"
    },
    {
      "anonymous": false,
      "inputs": [
        {
          "indexed": true,
          "name": "newBPoolAddress",
          "type": "address"
        },
        {
          "indexed": true,
          "name": "bpoolTemplateAddress",
          "type": "address"
        }
      ],
      "name": "BPoolCreated",
      "type": "event"
    },
    {
      "anonymous": false,
      "inputs": [
        {
          "indexed": false,
          "name": "bpoolAddress",
          "type": "address"
        },
        {
          "indexed": true,
          "name": "registeredBy",
          "type": "address"
        }
      ],
      "name": "BPoolRegistered",
      "type": "event"
    },
    {
      "anonymous": false,
      "inputs": [
        {
          "indexed": false,
          "name": "instance",
          "type": "address"
        }
      ],
      "name": "InstanceDeployed",
      "type": "event"
    }
  ],
  "bytecode": "0x608060405234801561001057600080fd5b5060405160208061065a8339810180604052602081101561003057600080fd5b50516001600160a01b038116610091576040517f08c379a000000000000000000000000000000000000000000000000000000000815260040180806020018281038252602d81526020018061062d602d913960400191505060405180910390fd5b600080546001600160a01b039092166001600160a01b031990921691909117905561056c806100c16000396000f3fe608060405234801561001057600080fd5b50600436106101165760003560e01c8063b7b800a4116100a2578063bc694ea211610071578063bc694ea2146101cf578063c36596a61461017f578063c6580d12146101d7578063e4a28a521461015d578063ec093021146101df57610116565b8063b7b800a4146101af578063ba019dab146101b7578063bae6ae12146101bf578063bc063e1a146101c757610116565b806376c7a3c7116100e957806376c7a3c714610187578063867378c51461018f5780639381cd2b14610197578063992e2a921461019f578063b0e0d136146101a757610116565b80630838f2d51461011b57806309a3bbe41461015d578063189d00ca14610177578063218b53821461017f575b600080fd5b6101416004803603602081101561013157600080fd5b50356001600160a01b03166101e7565b604080516001600160a01b039092168252519081900360200190f35b6101656103ba565b60408051918252519081900360200190f35b6101656103c7565b6101656103db565b6101656103e7565b6101656103f9565b61016561040d565b61016561041a565b610165610426565b61016561042b565b610165610430565b610141610435565b610165610444565b610165610454565b610165610460565b610165610465565b600080546101fd906001600160a01b0316610475565b90506001600160a01b03811661024757604051600160e51b62461bcd02815260040180806020018281038252602481526020018061051d6024913960400191505060405180910390fd5b60408051600160e21b63141b7a5d0281526001600160a01b03848116600483015230602483015264e8d4a51000604483015260006064830181905260848301819052925184939184169263506de9749260a48083019360209390929083900390910190829087803b1580156102bb57600080fd5b505af11580156102cf573d6000803e3d6000fd5b505050506040513d60208110156102e557600080fd5b505161033b5760408051600160e51b62461bcd02815260206004820152601460248201527f4552525f494e495449414c495a455f42504f4f4c000000000000000000000000604482015290519081900360640190fd5b600080546040516001600160a01b0391821692918516917f83d56eda3b93446228a036eafbbbcb38aa8f27a21a302b860469af9cb27c84eb91a3604080516001600160a01b0384168152905133917fb19f201dd081bc52562d1f83f3585fd08caa9de15534e6e4787f5ae63d39106c919081900360200190a250919050565b6802b5e3af16b188000081565b6402540be400670de0b6b3a76400005b0481565b670de0b6b3a764000081565b620f4240670de0b6b3a76400006103d7565b64e8d4a51000670de0b6b3a76400006103d7565b68056bc75e2d6310000081565b6704a03ce68d21555681565b600881565b600281565b600181565b6000546001600160a01b031681565b600a670de0b6b3a76400006103d7565b671bc16d674ec7ffff81565b600081565b6002670de0b6b3a76400006103d7565b6000808260601b90506040517f3d602d80600a3d3981f3363d3d373d3d3d363d7300000000000000000000000081528160148201527f5af43d82803e903d91602b57fd5bf3000000000000000000000000000000000060288201526037816000f0604080516001600160a01b038316815290519194507f117c72e6c25f0a072e36e148df71468ce2f3dbe7defec5b2c257a6e3eb65278c925081900360200190a15091905056fe42466163746f72793a20696e76616c69642062706f6f6c207a65726f2061646472657373a165627a7a72305820b364ff72925b03a322ae804daf7c6e910c9bf0c8cc033269855f70101e2e3664002942466163746f72793a20696e76616c69642062706f6f6c2074656d706c617465207a65726f2061646472657373",
  "linkReferences": {},
  "deployedLinkReferences": {}
}