{
  "_format": "hh-sol-artifact-1",
  "contractName": "BFactory",
  "sourceName": "contracts/oldV3Factory/BFactory.sol",
  "abi": [
    {
      "constant": true,
      "inputs": [],
      "name": "MAX_TOTAL_WEIGHT",
      "outputs": [
        {
          "name": "",
          "type": "uint256"
        }
      ],
      "payable": false,
      "stateMutability": "view",
      "type": "function"
    },
    {
      "constant": true,
      "inputs": [],
      "name": "BPOW_PRECISION",
      "outputs": [
        {
          "name": "",
          "type": "uint256"
        }
      ],
      "payable": false,
      "stateMutability": "view",
      "type": "function"
    },
    {
      "constant": true,
      "inputs": [],
      "name": "MIN_WEIGHT",
      "outputs": [
        {
          "name": "",
          "type": "uint256"
        }
      ],
      "payable": false,
      "stateMutability": "view",
      "type": "function"
    },
    {
      "constant": true,
      "inputs": [],
      "name": "MIN_FEE",
      "outputs": [
        {
          "name": "",
          "type": "uint256"
        }
      ],
      "payable": false,
      "stateMutability": "view",
      "type": "function"
    },
    {
      "constant": true,
      "inputs": [],
      "name": "MIN_BALANCE",
      "outputs": [
        {
          "name": "",
          "type": "uint256"
        }
      ],
      "payable": false,
      "stateMutability": "view",
      "type": "function"
    },
    {
      "constant": true,
      "inputs": [],
      "name": "INIT_POOL_SUPPLY",
      "outputs": [
        {
          "name": "",
          "type": "uint256"
        }
      ],
      "payable": false,
      "stateMutability": "view",
      "type": "function"
    },
    {
      "constant": true,
      "inputs": [],
      "name": "MAX_OUT_RATIO",
      "outputs": [
        {
          "name": "",
          "type": "uint256"
        }
      ],
      "payable": false,
      "stateMutability": "view",
      "type": "function"
    },
    {
      "constant": true,
      "inputs": [],
      "name": "MAX_BOUND_TOKENS",
      "outputs": [
        {
          "name": "",
          "type": "uint256"
        }
      ],
      "payable": false,
      "stateMutability": "view",
      "type": "function"
    },
    {
      "constant": true,
      "inputs": [],
      "name": "MIN_BOUND_TOKENS",
      "outputs": [
        {
          "name": "",
          "type": "uint256"
        }
      ],
      "payable": false,
      "stateMutability": "view",
      "type": "function"
    },
    {
      "constant": true,
      "inputs": [],
      "name": "MIN_BPOW_BASE",
      "outputs": [
        {
          "name": "",
          "type": "uint256"
        }
      ],
      "payable": false,
      "stateMutability": "view",
      "type": "function"
    },
    {
      "constant": true,
      "inputs": [],
      "name": "bpoolTemplate",
      "outputs": [
        {
          "name": "",
          "type": "address"
        }
      ],
      "payable": false,
      "stateMutability": "view",
      "type": "function"
    },
    {
      "constant": true,
      "inputs": [],
      "name": "MAX_FEE",
      "outputs": [
        {
          "name": "",
          "type": "uint256"
        }
      ],
      "payable": false,
      "stateMutability": "view",
      "type": "function"
    },
    {
      "constant": true,
      "inputs": [],
      "name": "MAX_BPOW_BASE",
      "outputs": [
        {
          "name": "",
          "type": "uint256"
        }
      ],
      "payable": false,
      "stateMutability": "view",
      "type": "function"
    },
    {
      "constant": true,
      "inputs": [],
      "name": "BONE",
      "outputs": [
        {
          "name": "",
          "type": "uint256"
        }
      ],
      "payable": false,
      "stateMutability": "view",
      "type": "function"
    },
    {
      "constant": true,
      "inputs": [],
      "name": "EXIT_FEE",
      "outputs": [
        {
          "name": "",
          "type": "uint256"
        }
      ],
      "payable": false,
      "stateMutability": "view",
      "type": "function"
    },
    {
      "constant": false,
      "inputs": [],
      "name": "newBPool",
      "outputs": [
        {
          "name": "bpool",
          "type": "address"
        }
      ],
      "payable": false,
      "stateMutability": "nonpayable",
      "type": "function"
    },
    {
      "constant": true,
      "inputs": [],
      "name": "MAX_WEIGHT",
      "outputs": [
        {
          "name": "",
          "type": "uint256"
        }
      ],
      "payable": false,
      "stateMutability": "view",
      "type": "function"
    },
    {
      "constant": true,
      "inputs": [],
      "name": "MAX_IN_RATIO",
      "outputs": [
        {
          "name": "",
          "type": "uint256"
        }
      ],
      "payable": false,
      "stateMutability": "view",
      "type": "function"
    },
    {
      "inputs": [
        {
          "name": "_bpoolTemplate",
          "type": "address"
        }
      ],
      "payable": false,
      "stateMutability": "nonpayable",
      "type": "constructor"
    },
    {
      "anonymous": false,
      "inputs": [
        {
          "indexed": true,
          "name": "newBPoolAddress",
          "type": "address"
        },
        {
          "indexed": true,
          "name": "bpoolTemplateAddress",
          "type": "address"
        }
      ],
      "name": "BPoolCreated",
      "type": "event"
    },
    {
      "anonymous": false,
      "inputs": [
        {
          "indexed": false,
          "name": "bpoolAddress",
          "type": "address"
        },
        {
          "indexed": true,
          "name": "registeredBy",
          "type": "address"
        }
      ],
      "name": "BPoolRegistered",
      "type": "event"
    },
    {
      "anonymous": false,
      "inputs": [
        {
          "indexed": false,
          "name": "instance",
          "type": "address"
        }
      ],
      "name": "InstanceDeployed",
      "type": "event"
    }
  ],
  "bytecode": "0x608060405234801561001057600080fd5b506040516020806106348339810180604052602081101561003057600080fd5b50516001600160a01b038116610091576040517f08c379a000000000000000000000000000000000000000000000000000000000815260040180806020018281038252602d815260200180610607602d913960400191505060405180910390fd5b600080546001600160a01b039092166001600160a01b0319909216919091179055610546806100c16000396000f3fe608060405234801561001057600080fd5b50600436106101165760003560e01c8063ba019dab116100a2578063c36596a611610071578063c36596a61461013d578063c6580d12146101b1578063d556c5dc146101b9578063e4a28a521461011b578063ec093021146101c157610116565b8063ba019dab14610175578063bae6ae121461017d578063bc063e1a146101a1578063bc694ea2146101a957610116565b8063867378c5116100e9578063867378c51461014d5780639381cd2b14610155578063992e2a921461015d578063b0e0d13614610165578063b7b800a41461016d57610116565b806309a3bbe41461011b578063189d00ca14610135578063218b53821461013d57806376c7a3c714610145575b600080fd5b6101236101c9565b60408051918252519081900360200190f35b6101236101d6565b6101236101ea565b6101236101f6565b610123610208565b61012361021c565b610123610229565b610123610235565b61012361023a565b61012361023f565b610185610244565b604080516001600160a01b039092168252519081900360200190f35b610123610253565b610123610263565b61012361026f565b610185610274565b61012361043f565b6802b5e3af16b188000081565b6402540be400670de0b6b3a76400005b0481565b670de0b6b3a764000081565b620f4240670de0b6b3a76400006101e6565b64e8d4a51000670de0b6b3a76400006101e6565b68056bc75e2d6310000081565b6704a03ce68d21555681565b600881565b600281565b600181565b6000546001600160a01b031681565b600a670de0b6b3a76400006101e6565b671bc16d674ec7ffff81565b600081565b6000805461028a906001600160a01b031661044f565b90506001600160a01b0381166102d457604051600160e51b62461bcd0281526004018080602001828103825260248152602001806104f76024913960400191505060405180910390fd5b60408051600160e21b63141b7a5d02815233600482015230602482015264e8d4a51000604482015260006064820181905260848201819052915183926001600160a01b0384169263506de9749260a48083019360209383900390910190829087803b15801561034257600080fd5b505af1158015610356573d6000803e3d6000fd5b505050506040513d602081101561036c57600080fd5b50516103c25760408051600160e51b62461bcd02815260206004820152601460248201527f4552525f494e495449414c495a455f42504f4f4c000000000000000000000000604482015290519081900360640190fd5b600080546040516001600160a01b0391821692918516917f83d56eda3b93446228a036eafbbbcb38aa8f27a21a302b860469af9cb27c84eb91a3604080516001600160a01b0384168152905133917fb19f201dd081bc52562d1f83f3585fd08caa9de15534e6e4787f5ae63d39106c919081900360200190a25090565b6002670de0b6b3a76400006101e6565b6000808260601b90506040517f3d602d80600a3d3981f3363d3d373d3d3d363d7300000000000000000000000081528160148201527f5af43d82803e903d91602b57fd5bf3000000000000000000000000000000000060288201526037816000f0604080516001600160a01b038316815290519194507f117c72e6c25f0a072e36e148df71468ce2f3dbe7defec5b2c257a6e3eb65278c925081900360200190a15091905056fe42466163746f72793a20696e76616c69642062706f6f6c207a65726f2061646472657373a165627a7a723058206a0e9fe67baf9d448a2aabbd5aeb25903c6e5135950bfba185d57b1e286c7e3a002942466163746f72793a20696e76616c69642062706f6f6c2074656d706c617465207a65726f2061646472657373",
  "linkReferences": {},
  "deployedLinkReferences": {}
}