{
  "_format": "hh-sol-artifact-1",
  "contractName": "MockOcean",
  "sourceName": "contracts/utils/mock/MockOcean.sol",
  "abi": [
    {
      "inputs": [
        {
          "internalType": "address",
          "name": "owner",
          "type": "address"
        }
      ],
      "stateMutability": "nonpayable",
      "type": "constructor"
    },
    {
      "anonymous": false,
      "inputs": [
        {
          "indexed": true,
          "internalType": "address",
          "name": "owner",
          "type": "address"
        },
        {
          "indexed": true,
          "internalType": "address",
          "name": "spender",
          "type": "address"
        },
        {
          "indexed": false,
          "internalType": "uint256",
          "name": "value",
          "type": "uint256"
        }
      ],
      "name": "Approval",
      "type": "event"
    },
    {
      "anonymous": false,
      "inputs": [
        {
          "indexed": true,
          "internalType": "address",
          "name": "from",
          "type": "address"
        },
        {
          "indexed": true,
          "internalType": "address",
          "name": "to",
          "type": "address"
        },
        {
          "indexed": false,
          "internalType": "uint256",
          "name": "value",
          "type": "uint256"
        }
      ],
      "name": "Transfer",
      "type": "event"
    },
    {
      "inputs": [
        {
          "internalType": "address",
          "name": "owner",
          "type": "address"
        },
        {
          "internalType": "address",
          "name": "spender",
          "type": "address"
        }
      ],
      "name": "allowance",
      "outputs": [
        {
          "internalType": "uint256",
          "name": "",
          "type": "uint256"
        }
      ],
      "stateMutability": "view",
      "type": "function"
    },
    {
      "inputs": [
        {
          "internalType": "address",
          "name": "spender",
          "type": "address"
        },
        {
          "internalType": "uint256",
          "name": "amount",
          "type": "uint256"
        }
      ],
      "name": "approve",
      "outputs": [
        {
          "internalType": "bool",
          "name": "",
          "type": "bool"
        }
      ],
      "stateMutability": "nonpayable",
      "type": "function"
    },
    {
      "inputs": [
        {
          "internalType": "address",
          "name": "account",
          "type": "address"
        }
      ],
      "name": "balanceOf",
      "outputs": [
        {
          "internalType": "uint256",
          "name": "",
          "type": "uint256"
        }
      ],
      "stateMutability": "view",
      "type": "function"
    },
    {
      "inputs": [
        {
          "internalType": "bytes32",
          "name": "c__0x6a19e1ac",
          "type": "bytes32"
        }
      ],
      "name": "c_0x6a19e1ac",
      "outputs": [],
      "stateMutability": "pure",
      "type": "function"
    },
    {
      "inputs": [],
      "name": "decimals",
      "outputs": [
        {
          "internalType": "uint8",
          "name": "",
          "type": "uint8"
        }
      ],
      "stateMutability": "view",
      "type": "function"
    },
    {
      "inputs": [
        {
          "internalType": "address",
          "name": "spender",
          "type": "address"
        },
        {
          "internalType": "uint256",
          "name": "subtractedValue",
          "type": "uint256"
        }
      ],
      "name": "decreaseAllowance",
      "outputs": [
        {
          "internalType": "bool",
          "name": "",
          "type": "bool"
        }
      ],
      "stateMutability": "nonpayable",
      "type": "function"
    },
    {
      "inputs": [
        {
          "internalType": "address",
          "name": "spender",
          "type": "address"
        },
        {
          "internalType": "uint256",
          "name": "addedValue",
          "type": "uint256"
        }
      ],
      "name": "increaseAllowance",
      "outputs": [
        {
          "internalType": "bool",
          "name": "",
          "type": "bool"
        }
      ],
      "stateMutability": "nonpayable",
      "type": "function"
    },
    {
      "inputs": [],
      "name": "name",
      "outputs": [
        {
          "internalType": "string",
          "name": "",
          "type": "string"
        }
      ],
      "stateMutability": "view",
      "type": "function"
    },
    {
      "inputs": [],
      "name": "symbol",
      "outputs": [
        {
          "internalType": "string",
          "name": "",
          "type": "string"
        }
      ],
      "stateMutability": "view",
      "type": "function"
    },
    {
      "inputs": [],
      "name": "totalSupply",
      "outputs": [
        {
          "internalType": "uint256",
          "name": "",
          "type": "uint256"
        }
      ],
      "stateMutability": "view",
      "type": "function"
    },
    {
      "inputs": [
        {
          "internalType": "address",
          "name": "recipient",
          "type": "address"
        },
        {
          "internalType": "uint256",
          "name": "amount",
          "type": "uint256"
        }
      ],
      "name": "transfer",
      "outputs": [
        {
          "internalType": "bool",
          "name": "",
          "type": "bool"
        }
      ],
      "stateMutability": "nonpayable",
      "type": "function"
    },
    {
      "inputs": [
        {
          "internalType": "address",
          "name": "sender",
          "type": "address"
        },
        {
          "internalType": "address",
          "name": "recipient",
          "type": "address"
        },
        {
          "internalType": "uint256",
          "name": "amount",
          "type": "uint256"
        }
      ],
      "name": "transferFrom",
      "outputs": [
        {
          "internalType": "bool",
          "name": "",
          "type": "bool"
        }
      ],
      "stateMutability": "nonpayable",
      "type": "function"
    }
  ],
  "bytecode": "0x60806040523480156200001157600080fd5b50604051620019d5380380620019d58339818101604052810190620000379190620003e3565b6040518060400160405280600581526020017f4f6365616e0000000000000000000000000000000000000000000000000000008152506040518060400160405280600581526020017f4f6365616e0000000000000000000000000000000000000000000000000000008152508160039080519060200190620000bb9291906200031c565b508060049080519060200190620000d49291906200031c565b5050506200010b7f09c6497f1c822add93e6d09feab9dbff35f3f8849ef9ddbbf0f7c2cfa8c1ecca60001b6200019660201b60201c565b6200013f7f6b225f4013d8fe5cbbdde2e7e5d6eb18b2e47aec208f3b11f3d8ccae5c26dcc260001b6200019660201b60201c565b620001737f4e1956f078aa33cd333675aefd039e97591bb8f88a9516d9caaf240bcea68eda60001b6200019660201b60201c565b6200018f8169152d02c7e14af68000006200019960201b60201c565b50620005fb565b50565b600073ffffffffffffffffffffffffffffffffffffffff168273ffffffffffffffffffffffffffffffffffffffff1614156200020c576040517f08c379a0000000000000000000000000000000000000000000000000000000008152600401620002039062000462565b60405180910390fd5b62000220600083836200031260201b60201c565b8060026000828254620002349190620004b2565b92505081905550806000808473ffffffffffffffffffffffffffffffffffffffff1673ffffffffffffffffffffffffffffffffffffffff16815260200190815260200160002060008282546200028b9190620004b2565b925050819055508173ffffffffffffffffffffffffffffffffffffffff16600073ffffffffffffffffffffffffffffffffffffffff167fddf252ad1be2c89b69c2b068fc378daa952ba7f163c4a11628f55a4df523b3ef83604051620002f2919062000484565b60405180910390a36200030e600083836200031760201b60201c565b5050565b505050565b505050565b8280546200032a906200054d565b90600052602060002090601f0160209004810192826200034e57600085556200039a565b82601f106200036957805160ff19168380011785556200039a565b828001600101855582156200039a579182015b82811115620003995782518255916020019190600101906200037c565b5b509050620003a99190620003ad565b5090565b5b80821115620003c8576000816000905550600101620003ae565b5090565b600081519050620003dd81620005e1565b92915050565b600060208284031215620003f657600080fd5b60006200040684828501620003cc565b91505092915050565b60006200041e601f83620004a1565b91507f45524332303a206d696e7420746f20746865207a65726f2061646472657373006000830152602082019050919050565b6200045c8162000543565b82525050565b600060208201905081810360008301526200047d816200040f565b9050919050565b60006020820190506200049b600083018462000451565b92915050565b600082825260208201905092915050565b6000620004bf8262000543565b9150620004cc8362000543565b9250827fffffffffffffffffffffffffffffffffffffffffffffffffffffffffffffffff0382111562000504576200050362000583565b5b828201905092915050565b60006200051c8262000523565b9050919050565b600073ffffffffffffffffffffffffffffffffffffffff82169050919050565b6000819050919050565b600060028204905060018216806200056657607f821691505b602082108114156200057d576200057c620005b2565b5b50919050565b7f4e487b7100000000000000000000000000000000000000000000000000000000600052601160045260246000fd5b7f4e487b7100000000000000000000000000000000000000000000000000000000600052602260045260246000fd5b620005ec816200050f565b8114620005f857600080fd5b50565b6113ca806200060b6000396000f3fe608060405234801561001057600080fd5b50600436106100b45760003560e01c80634148b5b2116100715780634148b5b2146101a357806370a08231146101bf57806395d89b41146101ef578063a457c2d71461020d578063a9059cbb1461023d578063dd62ed3e1461026d576100b4565b806306fdde03146100b9578063095ea7b3146100d757806318160ddd1461010757806323b872dd14610125578063313ce567146101555780633950935114610173575b600080fd5b6100c161029d565b6040516100ce9190611072565b60405180910390f35b6100f160048036038101906100ec9190610cc2565b61032f565b6040516100fe9190611057565b60405180910390f35b61010f61034d565b60405161011c9190611174565b60405180910390f35b61013f600480360381019061013a9190610c73565b610357565b60405161014c9190611057565b60405180910390f35b61015d61044f565b60405161016a919061118f565b60405180910390f35b61018d60048036038101906101889190610cc2565b610458565b60405161019a9190611057565b60405180910390f35b6101bd60048036038101906101b89190610cfe565b610504565b005b6101d960048036038101906101d49190610c0e565b610507565b6040516101e69190611174565b60405180910390f35b6101f761054f565b6040516102049190611072565b60405180910390f35b61022760048036038101906102229190610cc2565b6105e1565b6040516102349190611057565b60405180910390f35b61025760048036038101906102529190610cc2565b6106cc565b6040516102649190611057565b60405180910390f35b61028760048036038101906102829190610c37565b6106ea565b6040516102949190611174565b60405180910390f35b6060600380546102ac906112ae565b80601f01602080910402602001604051908101604052809291908181526020018280546102d8906112ae565b80156103255780601f106102fa57610100808354040283529160200191610325565b820191906000526020600020905b81548152906001019060200180831161030857829003601f168201915b5050505050905090565b600061034361033c610771565b8484610779565b6001905092915050565b6000600254905090565b6000610364848484610944565b6000600160008673ffffffffffffffffffffffffffffffffffffffff1673ffffffffffffffffffffffffffffffffffffffff16815260200190815260200160002060006103af610771565b73ffffffffffffffffffffffffffffffffffffffff1673ffffffffffffffffffffffffffffffffffffffff1681526020019081526020016000205490508281101561042f576040517f08c379a0000000000000000000000000000000000000000000000000000000008152600401610426906110f4565b60405180910390fd5b6104438561043b610771565b858403610779565b60019150509392505050565b60006012905090565b60006104fa610465610771565b848460016000610473610771565b73ffffffffffffffffffffffffffffffffffffffff1673ffffffffffffffffffffffffffffffffffffffff16815260200190815260200160002060008873ffffffffffffffffffffffffffffffffffffffff1673ffffffffffffffffffffffffffffffffffffffff168152602001908152602001600020546104f591906111c6565b610779565b6001905092915050565b50565b60008060008373ffffffffffffffffffffffffffffffffffffffff1673ffffffffffffffffffffffffffffffffffffffff168152602001908152602001600020549050919050565b60606004805461055e906112ae565b80601f016020809104026020016040519081016040528092919081815260200182805461058a906112ae565b80156105d75780601f106105ac576101008083540402835291602001916105d7565b820191906000526020600020905b8154815290600101906020018083116105ba57829003601f168201915b5050505050905090565b600080600160006105f0610771565b73ffffffffffffffffffffffffffffffffffffffff1673ffffffffffffffffffffffffffffffffffffffff16815260200190815260200160002060008573ffffffffffffffffffffffffffffffffffffffff1673ffffffffffffffffffffffffffffffffffffffff168152602001908152602001600020549050828110156106ad576040517f08c379a00000000000000000000000000000000000000000000000000000000081526004016106a490611154565b60405180910390fd5b6106c16106b8610771565b85858403610779565b600191505092915050565b60006106e06106d9610771565b8484610944565b6001905092915050565b6000600160008473ffffffffffffffffffffffffffffffffffffffff1673ffffffffffffffffffffffffffffffffffffffff16815260200190815260200160002060008373ffffffffffffffffffffffffffffffffffffffff1673ffffffffffffffffffffffffffffffffffffffff16815260200190815260200160002054905092915050565b600033905090565b600073ffffffffffffffffffffffffffffffffffffffff168373ffffffffffffffffffffffffffffffffffffffff1614156107e9576040517f08c379a00000000000000000000000000000000000000000000000000000000081526004016107e090611134565b60405180910390fd5b600073ffffffffffffffffffffffffffffffffffffffff168273ffffffffffffffffffffffffffffffffffffffff161415610859576040517f08c379a0000000000000000000000000000000000000000000000000000000008152600401610850906110b4565b60405180910390fd5b80600160008573ffffffffffffffffffffffffffffffffffffffff1673ffffffffffffffffffffffffffffffffffffffff16815260200190815260200160002060008473ffffffffffffffffffffffffffffffffffffffff1673ffffffffffffffffffffffffffffffffffffffff168152602001908152602001600020819055508173ffffffffffffffffffffffffffffffffffffffff168373ffffffffffffffffffffffffffffffffffffffff167f8c5be1e5ebec7d5bd14f71427d1e84f3dd0314c0f7b2291e5b200ac8c7c3b925836040516109379190611174565b60405180910390a3505050565b600073ffffffffffffffffffffffffffffffffffffffff168373ffffffffffffffffffffffffffffffffffffffff1614156109b4576040517f08c379a00000000000000000000000000000000000000000000000000000000081526004016109ab90611114565b60405180910390fd5b600073ffffffffffffffffffffffffffffffffffffffff168273ffffffffffffffffffffffffffffffffffffffff161415610a24576040517f08c379a0000000000000000000000000000000000000000000000000000000008152600401610a1b90611094565b60405180910390fd5b610a2f838383610bc5565b60008060008573ffffffffffffffffffffffffffffffffffffffff1673ffffffffffffffffffffffffffffffffffffffff16815260200190815260200160002054905081811015610ab5576040517f08c379a0000000000000000000000000000000000000000000000000000000008152600401610aac906110d4565b60405180910390fd5b8181036000808673ffffffffffffffffffffffffffffffffffffffff1673ffffffffffffffffffffffffffffffffffffffff16815260200190815260200160002081905550816000808573ffffffffffffffffffffffffffffffffffffffff1673ffffffffffffffffffffffffffffffffffffffff1681526020019081526020016000206000828254610b4891906111c6565b925050819055508273ffffffffffffffffffffffffffffffffffffffff168473ffffffffffffffffffffffffffffffffffffffff167fddf252ad1be2c89b69c2b068fc378daa952ba7f163c4a11628f55a4df523b3ef84604051610bac9190611174565b60405180910390a3610bbf848484610bca565b50505050565b505050565b505050565b600081359050610bde8161134f565b92915050565b600081359050610bf381611366565b92915050565b600081359050610c088161137d565b92915050565b600060208284031215610c2057600080fd5b6000610c2e84828501610bcf565b91505092915050565b60008060408385031215610c4a57600080fd5b6000610c5885828601610bcf565b9250506020610c6985828601610bcf565b9150509250929050565b600080600060608486031215610c8857600080fd5b6000610c9686828701610bcf565b9350506020610ca786828701610bcf565b9250506040610cb886828701610bf9565b9150509250925092565b60008060408385031215610cd557600080fd5b6000610ce385828601610bcf565b9250506020610cf485828601610bf9565b9150509250929050565b600060208284031215610d1057600080fd5b6000610d1e84828501610be4565b91505092915050565b610d308161122e565b82525050565b6000610d41826111aa565b610d4b81856111b5565b9350610d5b81856020860161127b565b610d648161133e565b840191505092915050565b6000610d7c6023836111b5565b91507f45524332303a207472616e7366657220746f20746865207a65726f206164647260008301527f65737300000000000000000000000000000000000000000000000000000000006020830152604082019050919050565b6000610de26022836111b5565b91507f45524332303a20617070726f766520746f20746865207a65726f20616464726560008301527f73730000000000000000000000000000000000000000000000000000000000006020830152604082019050919050565b6000610e486026836111b5565b91507f45524332303a207472616e7366657220616d6f756e742065786365656473206260008301527f616c616e636500000000000000000000000000000000000000000000000000006020830152604082019050919050565b6000610eae6028836111b5565b91507f45524332303a207472616e7366657220616d6f756e742065786365656473206160008301527f6c6c6f77616e63650000000000000000000000000000000000000000000000006020830152604082019050919050565b6000610f146025836111b5565b91507f45524332303a207472616e736665722066726f6d20746865207a65726f20616460008301527f64726573730000000000000000000000000000000000000000000000000000006020830152604082019050919050565b6000610f7a6024836111b5565b91507f45524332303a20617070726f76652066726f6d20746865207a65726f2061646460008301527f72657373000000000000000000000000000000000000000000000000000000006020830152604082019050919050565b6000610fe06025836111b5565b91507f45524332303a2064656372656173656420616c6c6f77616e63652062656c6f7760008301527f207a65726f0000000000000000000000000000000000000000000000000000006020830152604082019050919050565b61104281611264565b82525050565b6110518161126e565b82525050565b600060208201905061106c6000830184610d27565b92915050565b6000602082019050818103600083015261108c8184610d36565b905092915050565b600060208201905081810360008301526110ad81610d6f565b9050919050565b600060208201905081810360008301526110cd81610dd5565b9050919050565b600060208201905081810360008301526110ed81610e3b565b9050919050565b6000602082019050818103600083015261110d81610ea1565b9050919050565b6000602082019050818103600083015261112d81610f07565b9050919050565b6000602082019050818103600083015261114d81610f6d565b9050919050565b6000602082019050818103600083015261116d81610fd3565b9050919050565b60006020820190506111896000830184611039565b92915050565b60006020820190506111a46000830184611048565b92915050565b600081519050919050565b600082825260208201905092915050565b60006111d182611264565b91506111dc83611264565b9250827fffffffffffffffffffffffffffffffffffffffffffffffffffffffffffffffff03821115611211576112106112e0565b5b828201905092915050565b600061122782611244565b9050919050565b60008115159050919050565b6000819050919050565b600073ffffffffffffffffffffffffffffffffffffffff82169050919050565b6000819050919050565b600060ff82169050919050565b60005b8381101561129957808201518184015260208101905061127e565b838111156112a8576000848401525b50505050565b600060028204905060018216806112c657607f821691505b602082108114156112da576112d961130f565b5b50919050565b7f4e487b7100000000000000000000000000000000000000000000000000000000600052601160045260246000fd5b7f4e487b7100000000000000000000000000000000000000000000000000000000600052602260045260246000fd5b6000601f19601f8301169050919050565b6113588161121c565b811461136357600080fd5b50565b61136f8161123a565b811461137a57600080fd5b50565b61138681611264565b811461139157600080fd5b5056fea2646970667358221220b1245b5d5af0c4e7610c57d4e570b0cd292cbcd88a6316145c88dc0d62244bce64736f6c63430008000033",
  "linkReferences": {},
  "deployedLinkReferences": {}
}