{
  "_format": "hh-sol-artifact-1",
  "contractName": "V3DataTokenTemplate",
  "sourceName": "contracts/v3/V3DataTokenTemplate.sol",
  "abi": [
    {
      "inputs": [
        {
          "internalType": "string",
          "name": "name",
          "type": "string"
        },
        {
          "internalType": "string",
          "name": "symbol",
          "type": "string"
        },
        {
          "internalType": "address",
          "name": "minterAddress",
          "type": "address"
        },
        {
          "internalType": "uint256",
          "name": "cap",
          "type": "uint256"
        },
        {
          "internalType": "string",
          "name": "blob",
          "type": "string"
        },
        {
          "internalType": "address",
          "name": "feeCollector",
          "type": "address"
        }
      ],
      "stateMutability": "nonpayable",
      "type": "constructor"
    },
    {
      "anonymous": false,
      "inputs": [
        {
          "indexed": true,
          "internalType": "address",
          "name": "owner",
          "type": "address"
        },
        {
          "indexed": true,
          "internalType": "address",
          "name": "spender",
          "type": "address"
        },
        {
          "indexed": false,
          "internalType": "uint256",
          "name": "value",
          "type": "uint256"
        }
      ],
      "name": "Approval",
      "type": "event"
    },
    {
      "anonymous": false,
      "inputs": [
        {
          "indexed": false,
          "internalType": "address",
          "name": "currentMinter",
          "type": "address"
        },
        {
          "indexed": false,
          "internalType": "address",
          "name": "newMinter",
          "type": "address"
        }
      ],
      "name": "MinterApproved",
      "type": "event"
    },
    {
      "anonymous": false,
      "inputs": [
        {
          "indexed": false,
          "internalType": "address",
          "name": "currentMinter",
          "type": "address"
        },
        {
          "indexed": false,
          "internalType": "address",
          "name": "newMinter",
          "type": "address"
        }
      ],
      "name": "MinterProposed",
      "type": "event"
    },
    {
      "anonymous": false,
      "inputs": [
        {
          "indexed": false,
          "internalType": "bytes32",
          "name": "orderTxId",
          "type": "bytes32"
        },
        {
          "indexed": true,
          "internalType": "address",
          "name": "consumer",
          "type": "address"
        },
        {
          "indexed": false,
          "internalType": "uint256",
          "name": "amount",
          "type": "uint256"
        },
        {
          "indexed": false,
          "internalType": "uint256",
          "name": "serviceId",
          "type": "uint256"
        },
        {
          "indexed": true,
          "internalType": "address",
          "name": "provider",
          "type": "address"
        },
        {
          "indexed": false,
          "internalType": "uint256",
          "name": "timestamp",
          "type": "uint256"
        }
      ],
      "name": "OrderFinished",
      "type": "event"
    },
    {
      "anonymous": false,
      "inputs": [
        {
          "indexed": true,
          "internalType": "address",
          "name": "consumer",
          "type": "address"
        },
        {
          "indexed": true,
          "internalType": "address",
          "name": "payer",
          "type": "address"
        },
        {
          "indexed": false,
          "internalType": "uint256",
          "name": "amount",
          "type": "uint256"
        },
        {
          "indexed": false,
          "internalType": "uint256",
          "name": "serviceId",
          "type": "uint256"
        },
        {
          "indexed": false,
          "internalType": "uint256",
          "name": "timestamp",
          "type": "uint256"
        },
        {
          "indexed": true,
          "internalType": "address",
          "name": "mrktFeeCollector",
          "type": "address"
        },
        {
          "indexed": false,
          "internalType": "uint256",
          "name": "marketFee",
          "type": "uint256"
        }
      ],
      "name": "OrderStarted",
      "type": "event"
    },
    {
      "anonymous": false,
      "inputs": [
        {
          "indexed": true,
          "internalType": "address",
          "name": "from",
          "type": "address"
        },
        {
          "indexed": true,
          "internalType": "address",
          "name": "to",
          "type": "address"
        },
        {
          "indexed": false,
          "internalType": "uint256",
          "name": "value",
          "type": "uint256"
        }
      ],
      "name": "Transfer",
      "type": "event"
    },
    {
      "inputs": [],
      "name": "BASE",
      "outputs": [
        {
          "internalType": "uint256",
          "name": "",
          "type": "uint256"
        }
      ],
      "stateMutability": "view",
      "type": "function"
    },
    {
      "inputs": [],
      "name": "BASE_COMMUNITY_FEE_PERCENTAGE",
      "outputs": [
        {
          "internalType": "uint256",
          "name": "",
          "type": "uint256"
        }
      ],
      "stateMutability": "view",
      "type": "function"
    },
    {
      "inputs": [],
      "name": "BASE_MARKET_FEE_PERCENTAGE",
      "outputs": [
        {
          "internalType": "uint256",
          "name": "",
          "type": "uint256"
        }
      ],
      "stateMutability": "view",
      "type": "function"
    },
    {
      "inputs": [
        {
          "internalType": "address",
          "name": "owner",
          "type": "address"
        },
        {
          "internalType": "address",
          "name": "spender",
          "type": "address"
        }
      ],
      "name": "allowance",
      "outputs": [
        {
          "internalType": "uint256",
          "name": "",
          "type": "uint256"
        }
      ],
      "stateMutability": "view",
      "type": "function"
    },
    {
      "inputs": [
        {
          "internalType": "address",
          "name": "spender",
          "type": "address"
        },
        {
          "internalType": "uint256",
          "name": "amount",
          "type": "uint256"
        }
      ],
      "name": "approve",
      "outputs": [
        {
          "internalType": "bool",
          "name": "",
          "type": "bool"
        }
      ],
      "stateMutability": "nonpayable",
      "type": "function"
    },
    {
      "inputs": [],
      "name": "approveMinter",
      "outputs": [],
      "stateMutability": "nonpayable",
      "type": "function"
    },
    {
      "inputs": [
        {
          "internalType": "address",
          "name": "account",
          "type": "address"
        }
      ],
      "name": "balanceOf",
      "outputs": [
        {
          "internalType": "uint256",
          "name": "",
          "type": "uint256"
        }
      ],
      "stateMutability": "view",
      "type": "function"
    },
    {
      "inputs": [],
      "name": "blob",
      "outputs": [
        {
          "internalType": "string",
          "name": "",
          "type": "string"
        }
      ],
      "stateMutability": "view",
      "type": "function"
    },
    {
      "inputs": [
        {
          "internalType": "bytes32",
          "name": "c__0xbcba2f64",
          "type": "bytes32"
        }
      ],
      "name": "c_0xbcba2f64",
      "outputs": [],
      "stateMutability": "pure",
      "type": "function"
    },
    {
      "inputs": [
        {
          "internalType": "uint256",
          "name": "amount",
          "type": "uint256"
        },
        {
          "internalType": "uint256",
          "name": "feePercentage",
          "type": "uint256"
        }
      ],
      "name": "calculateFee",
      "outputs": [
        {
          "internalType": "uint256",
          "name": "",
          "type": "uint256"
        }
      ],
      "stateMutability": "pure",
      "type": "function"
    },
    {
      "inputs": [],
      "name": "cap",
      "outputs": [
        {
          "internalType": "uint256",
          "name": "",
          "type": "uint256"
        }
      ],
      "stateMutability": "view",
      "type": "function"
    },
    {
      "inputs": [],
      "name": "decimals",
      "outputs": [
        {
          "internalType": "uint8",
          "name": "",
          "type": "uint8"
        }
      ],
      "stateMutability": "view",
      "type": "function"
    },
    {
      "inputs": [
        {
          "internalType": "address",
          "name": "spender",
          "type": "address"
        },
        {
          "internalType": "uint256",
          "name": "subtractedValue",
          "type": "uint256"
        }
      ],
      "name": "decreaseAllowance",
      "outputs": [
        {
          "internalType": "bool",
          "name": "",
          "type": "bool"
        }
      ],
      "stateMutability": "nonpayable",
      "type": "function"
    },
    {
      "inputs": [
        {
          "internalType": "bytes32",
          "name": "orderTxId",
          "type": "bytes32"
        },
        {
          "internalType": "address",
          "name": "consumer",
          "type": "address"
        },
        {
          "internalType": "uint256",
          "name": "amount",
          "type": "uint256"
        },
        {
          "internalType": "uint256",
          "name": "serviceId",
          "type": "uint256"
        }
      ],
      "name": "finishOrder",
      "outputs": [],
      "stateMutability": "nonpayable",
      "type": "function"
    },
    {
      "inputs": [
        {
          "internalType": "address",
          "name": "spender",
          "type": "address"
        },
        {
          "internalType": "uint256",
          "name": "addedValue",
          "type": "uint256"
        }
      ],
      "name": "increaseAllowance",
      "outputs": [
        {
          "internalType": "bool",
          "name": "",
          "type": "bool"
        }
      ],
      "stateMutability": "nonpayable",
      "type": "function"
    },
    {
      "inputs": [
        {
          "internalType": "string",
          "name": "name",
          "type": "string"
        },
        {
          "internalType": "string",
          "name": "symbol",
          "type": "string"
        },
        {
          "internalType": "address",
          "name": "minterAddress",
          "type": "address"
        },
        {
          "internalType": "uint256",
          "name": "cap",
          "type": "uint256"
        },
        {
          "internalType": "string",
          "name": "blob",
          "type": "string"
        },
        {
          "internalType": "address",
          "name": "feeCollector",
          "type": "address"
        }
      ],
      "name": "initialize",
      "outputs": [
        {
          "internalType": "bool",
          "name": "",
          "type": "bool"
        }
      ],
      "stateMutability": "nonpayable",
      "type": "function"
    },
    {
      "inputs": [],
      "name": "isInitialized",
      "outputs": [
        {
          "internalType": "bool",
          "name": "",
          "type": "bool"
        }
      ],
      "stateMutability": "view",
      "type": "function"
    },
    {
      "inputs": [
        {
          "internalType": "address",
          "name": "account",
          "type": "address"
        }
      ],
      "name": "isMinter",
      "outputs": [
        {
          "internalType": "bool",
          "name": "",
          "type": "bool"
        }
      ],
      "stateMutability": "view",
      "type": "function"
    },
    {
      "inputs": [
        {
          "internalType": "address",
          "name": "account",
          "type": "address"
        },
        {
          "internalType": "uint256",
          "name": "value",
          "type": "uint256"
        }
      ],
      "name": "mint",
      "outputs": [],
      "stateMutability": "nonpayable",
      "type": "function"
    },
    {
      "inputs": [],
      "name": "minter",
      "outputs": [
        {
          "internalType": "address",
          "name": "",
          "type": "address"
        }
      ],
      "stateMutability": "view",
      "type": "function"
    },
    {
      "inputs": [],
      "name": "name",
      "outputs": [
        {
          "internalType": "string",
          "name": "",
          "type": "string"
        }
      ],
      "stateMutability": "view",
      "type": "function"
    },
    {
      "inputs": [
        {
          "internalType": "address",
          "name": "newMinter",
          "type": "address"
        }
      ],
      "name": "proposeMinter",
      "outputs": [],
      "stateMutability": "nonpayable",
      "type": "function"
    },
    {
      "inputs": [
        {
          "internalType": "address",
          "name": "consumer",
          "type": "address"
        },
        {
          "internalType": "uint256",
          "name": "amount",
          "type": "uint256"
        },
        {
          "internalType": "uint256",
          "name": "serviceId",
          "type": "uint256"
        },
        {
          "internalType": "address",
          "name": "mrktFeeCollector",
          "type": "address"
        }
      ],
      "name": "startOrder",
      "outputs": [],
      "stateMutability": "nonpayable",
      "type": "function"
    },
    {
      "inputs": [],
      "name": "symbol",
      "outputs": [
        {
          "internalType": "string",
          "name": "",
          "type": "string"
        }
      ],
      "stateMutability": "view",
      "type": "function"
    },
    {
      "inputs": [],
      "name": "totalSupply",
      "outputs": [
        {
          "internalType": "uint256",
          "name": "",
          "type": "uint256"
        }
      ],
      "stateMutability": "view",
      "type": "function"
    },
    {
      "inputs": [
        {
          "internalType": "address",
          "name": "recipient",
          "type": "address"
        },
        {
          "internalType": "uint256",
          "name": "amount",
          "type": "uint256"
        }
      ],
      "name": "transfer",
      "outputs": [
        {
          "internalType": "bool",
          "name": "",
          "type": "bool"
        }
      ],
      "stateMutability": "nonpayable",
      "type": "function"
    },
    {
      "inputs": [
        {
          "internalType": "address",
          "name": "sender",
          "type": "address"
        },
        {
          "internalType": "address",
          "name": "recipient",
          "type": "address"
        },
        {
          "internalType": "uint256",
          "name": "amount",
          "type": "uint256"
        }
      ],
      "name": "transferFrom",
      "outputs": [
        {
          "internalType": "bool",
          "name": "",
          "type": "bool"
        }
      ],
      "stateMutability": "nonpayable",
      "type": "function"
    }
  ],
  "bytecode": "0x60806040526000600960146101000a81548160ff0219169083151502179055503480156200002c57600080fd5b506040516200585d3803806200585d833981810160405281019062000052919062000c86565b6040518060400160405280600481526020017f74657374000000000000000000000000000000000000000000000000000000008152506040518060400160405280600a81526020017f7465737453796d626f6c000000000000000000000000000000000000000000008152508160039080519060200190620000d692919062000b36565b508060049080519060200190620000ef92919062000b36565b505050620001267f303cfd0229f185c627523b609a0dfc78da75b9807a7bafc9026d6d5d51376b5e60001b620001b160201b60201c565b6200015a7f4a54f81b3e959cfac466a5517ea942b75835763eaf5123e7dee2cc9b65c0ce6460001b620001b160201b60201c565b6200018e7f0ac78fd940b82b7aa71876e72f9941bbccf934b043046c82247ffe0112b2e7ee60001b620001b160201b60201c565b620001a4868686868686620001b460201b60201c565b5050505050505062001143565b50565b6000620001ea7f877398bc0d553b6b652d92418922fcc4eafd928329b021c8d582fd95d3a233b160001b620001b160201b60201c565b6200021e7f91e85267ea52ff45581aef1f2f81299cae29b9487c57bd87eeb82fa68fc7ce0560001b620001b160201b60201c565b620002527f4846362f185d4f787c9aeb7120afa7a88c16886e24a8064db17e64f8fd5f985160001b620001b160201b60201c565b620002867f540a573644c85c14820c8d389b9ff878492521a196d154dce15163e1ed189d8460001b620001b160201b60201c565b600073ffffffffffffffffffffffffffffffffffffffff168573ffffffffffffffffffffffffffffffffffffffff161415620002f9576040517f08c379a0000000000000000000000000000000000000000000000000000000008152600401620002f09062000f07565b60405180910390fd5b6200032d7f54faf4838c2f04242f00f837d92d8d6ba201c973d33d3fa997a589691f25446c60001b620001b160201b60201c565b620003617f363ac05fd458c4eb7a57aea9fcd9e33a0d9c0e8bbe842987c5a4965724f09a0060001b620001b160201b60201c565b620003957fe13f1fd978d8cf10672df6ca8c9bb3416bc4d24382a90b731f30bd3ea7c5623760001b620001b160201b60201c565b620003c97fd55be1972a605f6d1c6609fc2eda4d6200156342980986c1b40f3aefce25d5ec60001b620001b160201b60201c565b600073ffffffffffffffffffffffffffffffffffffffff16600a60009054906101000a900473ffffffffffffffffffffffffffffffffffffffff1673ffffffffffffffffffffffffffffffffffffffff16146200045d576040517f08c379a0000000000000000000000000000000000000000000000000000000008152600401620004549062000f6d565b60405180910390fd5b620004917f80483b858008663b839cba3559107262666f2360870661239bfca6888781daf760001b620001b160201b60201c565b620004c57f3fbc68d752f1bcf2b1272d594bedd7730ee4b173ed62452805b01d7351ba065460001b620001b160201b60201c565b620004f97f7239bea935a5bc3ec411bfb93cfca5ed039ed1a3b15d56be8b772cac156a2f5c60001b620001b160201b60201c565b6200052d7f06e01c4d49c29e0e9949d657da5be7f59d6ab82d0204c86b8a7fa9449c3fa11360001b620001b160201b60201c565b600073ffffffffffffffffffffffffffffffffffffffff168273ffffffffffffffffffffffffffffffffffffffff161415620005a0576040517f08c379a0000000000000000000000000000000000000000000000000000000008152600401620005979062000f29565b60405180910390fd5b620005d47f042cafa406966c6abc31f985e5eb5ffd9ae84b9244f3a15cd72c41df3689380460001b620001b160201b60201c565b620006087fc830137b4a81c24b6617bb8d527a36fc39295d603c6561d2d66d5690d22aa08460001b620001b160201b60201c565b6200063c7fd146ce04cb98b9c1b4931d487c3d1c2d623963cd22f0a7513b04d7e25a7caf4960001b620001b160201b60201c565b620006707ffb861c7e2ed4b32f18934de165c0fc51a7cd2bf0d37c5546a56949eb58bff00b60001b620001b160201b60201c565b6000841415620006b7576040517f08c379a0000000000000000000000000000000000000000000000000000000008152600401620006ae9062000f4b565b60405180910390fd5b620006eb7fa321e42f514eed6f3eec9db8f5dcef0bef4baa3a93ce28fbc9dca7fc88f5da4860001b620001b160201b60201c565b6200071f7f998c533455a148982588a32cb1c1babb4a013ea8a29045f90b9308f4e429034c60001b620001b160201b60201c565b620007537faf86ec03241301e51f4de0569fb8053454ff4f0da6a9d462fba700286d27977860001b620001b160201b60201c565b836008819055506200078e7febc2e4108c648a4cabca7bfc6a62519dde3d26a7514815308298eb02e3cc98ef60001b620001b160201b60201c565b620007c27fc4733b974eea571ed9c1c60266871fdf1a2368b85cc63b0689ca5517c7fdf75c60001b620001b160201b60201c565b8660059080519060200190620007da92919062000b36565b506200080f7ffd97043bc0ff2e0bdb4f50c06cecd9cc5feb4cacd5c378d1c19adccb33bdcd5c60001b620001b160201b60201c565b620008437fc04d3a9708e9da289388552c884ee72e022efb8fa5b6a3bb21c47c11bd25e4bf60001b620001b160201b60201c565b82600790805190602001906200085b92919062000b36565b50620008907f50e49345406087da10bceb6cfa4b7a76cd4f6296fb37f45e180c78f4d5a05e3760001b620001b160201b60201c565b620008c47f7e7840eafb232cf285037dd522d35ed644982811882aebe828991c83e29ee90460001b620001b160201b60201c565b8560069080519060200190620008dc92919062000b36565b50620009117ffc7c79e2b3943363c7659760d84ace542ef00b2cdd525c85dacf5ab336f7f88f60001b620001b160201b60201c565b620009457ffeb317e055706dce330e5cfb5a22d1937c08dbe151be0bbf257810074aec7b0a60001b620001b160201b60201c565b84600a60006101000a81548173ffffffffffffffffffffffffffffffffffffffff021916908373ffffffffffffffffffffffffffffffffffffffff160217905550620009ba7f8a2bea2400d6ae2f25a7b4e3bd3f0f4f2ac5965cb20d9d648ecf5ddc882580ca60001b620001b160201b60201c565b620009ee7f5f5f787dd2a3fb7db12a901e7b8fb4b6504c80ee22dbdfa563901667ca67dbda60001b620001b160201b60201c565b81600960006101000a81548173ffffffffffffffffffffffffffffffffffffffff021916908373ffffffffffffffffffffffffffffffffffffffff16021790555062000a637fce4c3689dcbd84a99298ed5e92f870c7577e1ce21a15f821d9c4cce3c47864c060001b620001b160201b60201c565b62000a977f3241741d52528f04d321649d569d846683ba300878b9c7a29651b7938a0cde2860001b620001b160201b60201c565b6001600960146101000a81548160ff02191690831515021790555062000ae67f18796edc55c31605da607740c83ea61ed3c44409c295386f13db078affd36acb60001b620001b160201b60201c565b62000b1a7f6685c880ed57a730b0c6456822159b41647ed8f9ffbf7f8f21e5010a0de758da60001b620001b160201b60201c565b600960149054906101000a900460ff1690509695505050505050565b82805462000b44906200107b565b90600052602060002090601f01602090048101928262000b68576000855562000bb4565b82601f1062000b8357805160ff191683800117855562000bb4565b8280016001018555821562000bb4579182015b8281111562000bb357825182559160200191906001019062000b96565b5b50905062000bc3919062000bc7565b5090565b5b8082111562000be257600081600090555060010162000bc8565b5090565b600062000bfd62000bf78462000fc3565b62000f8f565b90508281526020810184848401111562000c1657600080fd5b62000c2384828562001045565b509392505050565b60008151905062000c3c816200110f565b92915050565b600082601f83011262000c5457600080fd5b815162000c6684826020860162000be6565b91505092915050565b60008151905062000c808162001129565b92915050565b60008060008060008060c0878903121562000ca057600080fd5b600087015167ffffffffffffffff81111562000cbb57600080fd5b62000cc989828a0162000c42565b965050602087015167ffffffffffffffff81111562000ce757600080fd5b62000cf589828a0162000c42565b955050604062000d0889828a0162000c2b565b945050606062000d1b89828a0162000c6f565b935050608087015167ffffffffffffffff81111562000d3957600080fd5b62000d4789828a0162000c42565b92505060a062000d5a89828a0162000c2b565b9150509295509295509295565b600062000d7660308362000ff6565b91507f44617461546f6b656e54656d706c6174653a20496e76616c6964206d696e746560008301527f722c20207a65726f2061646472657373000000000000000000000000000000006020830152604082019050919050565b600062000dde60408362000ff6565b91507f44617461546f6b656e54656d706c6174653a20496e76616c696420636f6d6d7560008301527f6e6974792066656520636f6c6c6563746f722c207a65726f20616464726573736020830152604082019050919050565b600062000e4660248362000ff6565b91507f44617461546f6b656e54656d706c6174653a20496e76616c696420636170207660008301527f616c7565000000000000000000000000000000000000000000000000000000006020830152604082019050919050565b600062000eae602f8362000ff6565b91507f44617461546f6b656e54656d706c6174653a20496e76616c6964206d696e746560008301527f722c207a65726f206164647265737300000000000000000000000000000000006020830152604082019050919050565b6000602082019050818103600083015262000f228162000d67565b9050919050565b6000602082019050818103600083015262000f448162000dcf565b9050919050565b6000602082019050818103600083015262000f668162000e37565b9050919050565b6000602082019050818103600083015262000f888162000e9f565b9050919050565b6000604051905081810181811067ffffffffffffffff8211171562000fb95762000fb8620010e0565b5b8060405250919050565b600067ffffffffffffffff82111562000fe15762000fe0620010e0565b5b601f19601f8301169050602081019050919050565b600082825260208201905092915050565b600062001014826200101b565b9050919050565b600073ffffffffffffffffffffffffffffffffffffffff82169050919050565b6000819050919050565b60005b838110156200106557808201518184015260208101905062001048565b8381111562001075576000848401525b50505050565b600060028204905060018216806200109457607f821691505b60208210811415620010ab57620010aa620010b1565b5b50919050565b7f4e487b7100000000000000000000000000000000000000000000000000000000600052602260045260246000fd5b7f4e487b7100000000000000000000000000000000000000000000000000000000600052604160045260246000fd5b6200111a8162001007565b81146200112657600080fd5b50565b62001134816200103b565b81146200114057600080fd5b50565b61470a80620011536000396000f3fe608060405234801561001057600080fd5b50600436106101a95760003560e01c806370a08231116100f9578063aa271e1a11610097578063dd62ed3e11610071578063dd62ed3e146104f8578063eb40024b14610528578063ec342ad014610532578063fde0e7a814610550576101a9565b8063aa271e1a1461048e578063ab63d2b2146104be578063b2263a5d146104da576101a9565b80639070d2f8116100d35780639070d2f8146103e057806395d89b4114610410578063a457c2d71461042e578063a9059cbb1461045e576101a9565b806370a082311461037857806385295cd4146103a85780638ca0c059146103c4576101a9565b8063313ce56711610166578063392e53cd11610140578063392e53cd146102f2578063395093511461031057806340c10f191461034057806350d2fcc41461035c576101a9565b8063313ce5671461028657806334e73122146102a4578063355274ea146102d4576101a9565b806306fdde03146101ae57806307546172146101cc578063095ea7b3146101ea57806318160ddd1461021a57806323b872dd14610238578063294541c714610268575b600080fd5b6101b661056e565b6040516101c3919061413f565b60405180910390f35b6101d4610684565b6040516101e1919061409b565b60405180910390f35b61020460048036038101906101ff9190613757565b610732565b60405161021191906140df565b60405180910390f35b610222610750565b60405161022f9190614381565b60405180910390f35b610252600480360381019061024d9190613708565b61075a565b60405161025f91906140df565b60405180910390f35b610270610852565b60405161027d9190614381565b60405180910390f35b61028e61086b565b60405161029b91906143e1565b60405180910390f35b6102be60048036038101906102b99190613961565b6108f8565b6040516102cb9190614381565b60405180910390f35b6102dc610b90565b6040516102e99190614381565b60405180910390f35b6102fa610c1e565b60405161030791906140df565b60405180910390f35b61032a60048036038101906103259190613757565b610cb9565b60405161033791906140df565b60405180910390f35b61035a60048036038101906103559190613757565b610d65565b005b610376600480360381019061037191906136a3565b61109d565b005b610392600480360381019061038d91906136a3565b6113b0565b60405161039f9190614381565b60405180910390f35b6103c260048036038101906103bd91906137f6565b6113f8565b005b6103de60048036038101906103d9919061381f565b6113fb565b005b6103fa60048036038101906103f59190613882565b6116a7565b60405161040791906140df565b60405180910390f35b61041861196e565b604051610425919061413f565b60405180910390f35b61044860048036038101906104439190613757565b611a84565b60405161045591906140df565b60405180910390f35b61047860048036038101906104739190613757565b611b6f565b60405161048591906140df565b60405180910390f35b6104a860048036038101906104a391906136a3565b611b8d565b6040516104b591906140df565b60405180910390f35b6104d860048036038101906104d39190613793565b611c6b565b005b6104e261219f565b6040516104ef9190614381565b60405180910390f35b610512600480360381019061050d91906136cc565b6121b8565b60405161051f9190614381565b60405180910390f35b61053061223f565b005b61053a6125d7565b6040516105479190614381565b60405180910390f35b6105586125e3565b604051610565919061413f565b60405180910390f35b606061059c7fb7e769eba8c92b26f57b28a05569dc08dfca7b10c7b91c9ad6197c6e633b92fd60001b6113f8565b6105c87fb74f1f93da51662cd9bdbdb55727ef1f508ce387f2932a50bc3b4733a05717ab60001b6113f8565b6105f47f2e018316dd751688e0a1d6acd02008b04e03ea1f5e5d5cb69bf9d6bb2d12d28960001b6113f8565b60058054610601906145bf565b80601f016020809104026020016040519081016040528092919081815260200182805461062d906145bf565b801561067a5780601f1061064f5761010080835404028352916020019161067a565b820191906000526020600020905b81548152906001019060200180831161065d57829003601f168201915b5050505050905090565b60006106b27fc5ff7420bcf27c25749c3c095f1b79b9bd7e9a1d22a63cd9cb1a544283dfa66b60001b6113f8565b6106de7febdbe8e239e13b50059695af421686f3f2507592b5adb2947db8a4645a66d0a660001b6113f8565b61070a7f4a7c47baffc001c796c96c381778e3e8f85c27da6acfdbf9d409e9e99016293560001b6113f8565b600a60009054906101000a900473ffffffffffffffffffffffffffffffffffffffff16905090565b600061074661073f6126f9565b8484612701565b6001905092915050565b6000600254905090565b60006107678484846128cc565b6000600160008673ffffffffffffffffffffffffffffffffffffffff1673ffffffffffffffffffffffffffffffffffffffff16815260200190815260200160002060006107b26126f9565b73ffffffffffffffffffffffffffffffffffffffff1673ffffffffffffffffffffffffffffffffffffffff16815260200190815260200160002054905082811015610832576040517f08c379a0000000000000000000000000000000000000000000000000000000008152600401610829906142a1565b60405180910390fd5b6108468561083e6126f9565b858403612701565b60019150509392505050565b6103e8670de0b6b3a7640000610868919061446e565b81565b60006108997f8ece66a23e828e6ca602bed80ca46d97b7cea587930f7485a3eb06863ccd998b60001b6113f8565b6108c57f6c0b7acf93a7c6c23751dcdb8032b2b4696c9a9aa185cefe65cb0cd9bbf1119660001b6113f8565b6108f17f40d38cf87e74af6330b3effd3b6a1181dfaa5a3978a00db0f1620ad1e6fb11b360001b6113f8565b6012905090565b60006109267ff3d36ea8ce49be2c52b909fc9b199326ca8176c5ad41db44301976e613570b1260001b6113f8565b6109527f21f64f596b6ff9f2934204ff629ed5aa30b3552e7d945244b790235544b70afd60001b6113f8565b61097e7f589d73a2bd4974a2c5128f1654679185f7035173f5206b303f14e2c8b14b3f4460001b6113f8565b60008314156109e8576109b37f13537e5d3fab86c591a616f5df0c39fd470af7183e244941603ff908e53c5d8860001b6113f8565b6109df7f3c85df54d97965bbd20f386af382325dd03009160fdf9fb8e81ee2a19083785660001b6113f8565b60009050610b8a565b610a147f453543cecf77094a8a76a67a59beefa5cc0906088c295bc57c52fc7870e9154660001b6113f8565b610a407f0d7abe45e4c252f9f2a5aef11c726e9438f2a05f36ec653869c8ca15be927db760001b6113f8565b610a6c7ff7aaa03db4eae9fc5680ef4df2e5053c5e369e3c8473519355f8e25c74416db260001b6113f8565b6000821415610ad657610aa17f15253b4c0fa1f29d5fca0973743a593b12ac938c01432158bd7040a191eccd0260001b6113f8565b610acd7f0d52c154b3afc6e92e1e143f9d339f6b991163ed27811a566e3b656afeb05e5a60001b6113f8565b60009050610b8a565b610b027f5e15740fc32c059493e316875eb8544bce47c982952a7ff4241cbb6597ccfa5c60001b6113f8565b610b2e7fa090071c933fa066d0e3418389f4decc6de8411f477740f3d7354d9fd1e34adc60001b6113f8565b610b5a7f5a04204d5dec250a948c50c483e65ba9c65ba939aa775e41163c0eee7ef5898060001b6113f8565b610b87670de0b6b3a7640000610b798486612b4d90919063ffffffff16565b612b6390919063ffffffff16565b90505b92915050565b6000610bbe7f7d01847a5691c2c355a6b57d61ecbbc4bea87a4998b347a76599f6a668b125ad60001b6113f8565b610bea7f7c2ac08a5638e0b543bc89304653a93f1cf7ed4fd1398e8afef65fa715ebe22d60001b6113f8565b610c167fcb8424abc4e694e31b18baf341e5760ba945a99558e073db64cca825618d6a3960001b6113f8565b600854905090565b6000610c4c7f29893679414103978a18525f401067b1a21368191b6f5e7be51195866c8dcc7a60001b6113f8565b610c787f53d8390160942ced5d4b671489b98c16840945f147a2848f2f95acc4ee19b7f160001b6113f8565b610ca47f0475079977b69e67c87b1666e0522b3ef54cf03b344124bb68e863337399756360001b6113f8565b600960149054906101000a900460ff16905090565b6000610d5b610cc66126f9565b848460016000610cd46126f9565b73ffffffffffffffffffffffffffffffffffffffff1673ffffffffffffffffffffffffffffffffffffffff16815260200190815260200160002060008873ffffffffffffffffffffffffffffffffffffffff1673ffffffffffffffffffffffffffffffffffffffff16815260200190815260200160002054610d569190614418565b612701565b6001905092915050565b610d917fac737fde54bf14a0aecc6b43ff423da5e98d53ec708396c5de3487bdf448c8c060001b6113f8565b610dbd7fcd9209dd83c46c83cd79902f324e1fbb0a662c90138bb5404bfdab82661f494460001b6113f8565b610de97f71622beac3eb92414ac19cdadb2bc7bc6c50366d771dd51ba86a0dae2686a68860001b6113f8565b610e157f2f0e3cb69af6982d34a0f7f8b12ed58d8bb45297c432678688b3600b5cd7fdf360001b6113f8565b600a60009054906101000a900473ffffffffffffffffffffffffffffffffffffffff1673ffffffffffffffffffffffffffffffffffffffff163373ffffffffffffffffffffffffffffffffffffffff1614610ea5576040517f08c379a0000000000000000000000000000000000000000000000000000000008152600401610e9c906141c1565b60405180910390fd5b610ed17f494578473227d5d2f78880884fabd0bea1b5198dbc786cea07ec5aa6634122c160001b6113f8565b610efd7f9022f6cda6a9564469c7af81447c1f3e674e7a42e0239663ee55f4a9ae96692860001b6113f8565b610f297fc8946ebc41ae2ba3b67239a29d72e9cbabd62b87ad29ca2b9e3cd5038224b7e960001b6113f8565b610f557f447ebf317feb468d154f8b5eb393b7e2a21b729a8d5dd0559e8ad3015e746c9860001b6113f8565b610f817f2b53dae1c065acecb15af04e72d86868378f0d300dd23971a436ff5e242347a260001b6113f8565b610fad7f0b9291c496cd83601e7921444c78b7d2d5895fbbb8aceb3d4cb4a1e5ebd2bd4460001b6113f8565b600854610fca82610fbc610750565b612b7990919063ffffffff16565b111561100b576040517f08c379a000000000000000000000000000000000000000000000000000000000815260040161100290614321565b60405180910390fd5b6110377f888ca11d75b107240c169744a6f370e4dff79351c52e0ab23600dd2103f44b2c60001b6113f8565b6110637f1f058aad6e2863bc31a08f6361631c68ec3da62e772c0769b1140f312770564d60001b6113f8565b61108f7f553a16cccf897a7a0ca58a866efbba432e15a72e81bf5f1931d8c763d358669e60001b6113f8565b6110998282612b8f565b5050565b6110c97fac737fde54bf14a0aecc6b43ff423da5e98d53ec708396c5de3487bdf448c8c060001b6113f8565b6110f57fcd9209dd83c46c83cd79902f324e1fbb0a662c90138bb5404bfdab82661f494460001b6113f8565b6111217f71622beac3eb92414ac19cdadb2bc7bc6c50366d771dd51ba86a0dae2686a68860001b6113f8565b61114d7f2f0e3cb69af6982d34a0f7f8b12ed58d8bb45297c432678688b3600b5cd7fdf360001b6113f8565b600a60009054906101000a900473ffffffffffffffffffffffffffffffffffffffff1673ffffffffffffffffffffffffffffffffffffffff163373ffffffffffffffffffffffffffffffffffffffff16146111dd576040517f08c379a00000000000000000000000000000000000000000000000000000000081526004016111d4906141c1565b60405180910390fd5b6112097f494578473227d5d2f78880884fabd0bea1b5198dbc786cea07ec5aa6634122c160001b6113f8565b6112357f9022f6cda6a9564469c7af81447c1f3e674e7a42e0239663ee55f4a9ae96692860001b6113f8565b6112617f28acae6bbe5423521efbd22e33473b1f22615c5340aacc0ee5a8700b782c9eb060001b6113f8565b61128d7fa57a34a2a83ad84174a569c3992cf2ff168c4f4382292f1962d4b79a93fe3b5360001b6113f8565b6112b97fb33f0a412b5d9c9eeb47183c11d888de5b4a2906dac591edd2cd1b6a75f0573e60001b6113f8565b80600b60006101000a81548173ffffffffffffffffffffffffffffffffffffffff021916908373ffffffffffffffffffffffffffffffffffffffff1602179055506113267faf80653e976a43ece9240efc6981260856d55b2953e8887288b0b1daa88b1a9d60001b6113f8565b6113527f8c043273bc78115f1d342421cccee312b3301948c7a2f52eb2b0d7f2de6ac00260001b6113f8565b7fa24c529cc8b2d85b7dfb2ed0b4d7e9a816546212138b5d223bee13481e21be6b33600b60009054906101000a900473ffffffffffffffffffffffffffffffffffffffff166040516113a59291906140b6565b60405180910390a150565b60008060008373ffffffffffffffffffffffffffffffffffffffff1673ffffffffffffffffffffffffffffffffffffffff168152602001908152602001600020549050919050565b50565b6114277fac8701bdb900e7a3514a61bcfddde53c250ce97a11d06ec9c5d05adb5bf6868060001b6113f8565b6114537fb4a0ee8f9b535330129257a7754dbdc7bb5ede1d8799ef9656add75c0bdf9f9860001b6113f8565b61147f7fc1e86cf77eea5261f68598ee15a3d6656cd1dcdd0957f5d2cd00b823c1d873b160001b6113f8565b600082146115b1576114b37fe776498b02b8f355e6ec4833b364e0200ce9f919e3437f8d8c6da4ab385997cd60001b6113f8565b6114df7f45a8d75790ea48e57693e7ddae0d76df51582dc8d04e74f375edc4582d63046f60001b6113f8565b61150b7f6e2519877e2fb319db23240d9ecfd84752196685c198c8c842d501d4a4f8f13060001b6113f8565b6115377f59f9a6b102a18d38324c1d3fe8a1305253a694e2428a834584a92c81318948b360001b6113f8565b6115418383611b6f565b611580576040517f08c379a000000000000000000000000000000000000000000000000000000000815260040161157790614201565b60405180910390fd5b6115ac7f9e3e6d6c3f7880b89e9b62a4b7b129f8b9fa9676401265feb0d55b2d829c039660001b6113f8565b6115de565b6115dd7f42aa5c82a0868a995584460a255a49fc6c626c512b13d714aea9c7f2e4f846ea60001b6113f8565b5b61160a7f87ef7b26d5b9e653105ed8d0272e8593d47da81a0c2a61919cf3b93eb245444c60001b6113f8565b6116367f39bcd2aa9f75ffcf7d6f022207219436b0490fba972e38405d7fa937208e44ff60001b6113f8565b3373ffffffffffffffffffffffffffffffffffffffff168373ffffffffffffffffffffffffffffffffffffffff167f46872661d5d7765097d3a97ca99b7cbfa68b54b6d51904168974901ee607a26d8685854260405161169994939291906140fa565b60405180910390a350505050565b60006116d57ffb522854e13bd50e346d2999494a53cdd94de9244576ee38d4afed566cdae1d860001b6113f8565b6117017f4331959fecef879bd696c4d5b316ff549c4bdc53c03ecc9d0d33e9fed7289a6f60001b6113f8565b61172d7fcfe2c820c8e74debe7d2605ddfb0519717c2e2e251b13ef999c33ec8d4a7cde260001b6113f8565b6117597f2b37848a0be662c08dd375d9d91420965bfd3be941c4d0a1712366416d6fb9fe60001b6113f8565b600960149054906101000a900460ff16156117a9576040517f08c379a00000000000000000000000000000000000000000000000000000000081526004016117a0906141a1565b60405180910390fd5b6117d57fcbf6806f91913a2c187edc75cfb8431d4e314cb6da2d315f1fcb79958219398e60001b6113f8565b6118017f569bbdf0321cb45d7626b9e2b1f42599351182b8f806ccaedeb0cc73c8f9a4e460001b6113f8565b61182d7f74d2ea68051ca3b1bb174370c0f8e0a2e45ef0942974bee02b1960095cdebad460001b6113f8565b6118597fbf362e66f5b802f8ef6266646f5ac86f30aebf20778978029bec92e7b478582660001b6113f8565b6118857f3396f77d2037efd9d2a283ab38c81dc89896ba29be6a1d3980a720b2e801d9e360001b6113f8565b61195f8a8a8080601f016020809104026020016040519081016040528093929190818152602001838380828437600081840152601f19601f8201169050808301925050505050505089898080601f016020809104026020016040519081016040528093929190818152602001838380828437600081840152601f19601f82011690508083019250505050505050888888888080601f016020809104026020016040519081016040528093929190818152602001838380828437600081840152601f19601f8201169050808301925050505050505087612cef565b90509998505050505050505050565b606061199c7fd4d439075e06ed3316411f329f59a4c3629ffae55063990b7beff4a2e07ccff060001b6113f8565b6119c87f09882497b66d62a4fc61ba887da63f7c14cb850380100a6eff92fc9c280005c860001b6113f8565b6119f47f249a92db230e2919283f6b4c140d6f44d3c986ca207b4e95ad789ba54b9f555360001b6113f8565b60068054611a01906145bf565b80601f0160208091040260200160405190810160405280929190818152602001828054611a2d906145bf565b8015611a7a5780601f10611a4f57610100808354040283529160200191611a7a565b820191906000526020600020905b815481529060010190602001808311611a5d57829003601f168201915b5050505050905090565b60008060016000611a936126f9565b73ffffffffffffffffffffffffffffffffffffffff1673ffffffffffffffffffffffffffffffffffffffff16815260200190815260200160002060008573ffffffffffffffffffffffffffffffffffffffff1673ffffffffffffffffffffffffffffffffffffffff16815260200190815260200160002054905082811015611b50576040517f08c379a0000000000000000000000000000000000000000000000000000000008152600401611b4790614341565b60405180910390fd5b611b64611b5b6126f9565b85858403612701565b600191505092915050565b6000611b83611b7c6126f9565b84846128cc565b6001905092915050565b6000611bbb7f234635b9342568a6dc4ab0c754909b0598d8281264d4e68d2face771c594ec8060001b6113f8565b611be77f5c3a361e54d9b3c10abf20419a02f2a6776f601ee653f1784bf822e87b45dce360001b6113f8565b611c137f595a443d95a3557a34faf1664ded97a8d63295824294b5115c0c0efd2e3c0e8360001b6113f8565b8173ffffffffffffffffffffffffffffffffffffffff16600a60009054906101000a900473ffffffffffffffffffffffffffffffffffffffff1673ffffffffffffffffffffffffffffffffffffffff16149050919050565b611c967e6d3598c7b564b7afd7855c8ee0c04beb7a0c27fdffe28cdaaa2d590a13943f60001b6113f8565b611cc27f9c05263a0c93f57b7e8cf7784b154a51154673f8aa184811beaef84377b43dc260001b6113f8565b611cee7f6ed09206808019dc456a1226f549ae3f1e6c6c66db26d2d971883263bda2a8e860001b6113f8565b6000611d1c7fa23f8a8ca9a815d52652667431c99444645a4a3a4637416f904f2b2b2a12824f60001b6113f8565b611d487feb119076d145636beb0b88e56bf4eb9d609c8f7a7b09810ab91ef675968fb04560001b6113f8565b6000611d69856103e8670de0b6b3a7640000611d64919061446e565b6108f8565b9050611d977f372a25b0c4a3330abbf30cc2e4128c38fbe5dcf18e274ecdaf13228ef5e69cb660001b6113f8565b611dc37fd1231981304358ff2d1013478b2c99441dabece3d79c45292036a363f6f69dbd60001b6113f8565b611def600960009054906101000a900473ffffffffffffffffffffffffffffffffffffffff1682611b6f565b50611e1c7f872bd32a72a0fce04b236633da92016257e67da26bf80d7175e28f376d10e11f60001b6113f8565b611e487f912630c26ed37d3a5114f49f063766438b18e5dd65e2967ca321fe040f8c26d160001b6113f8565b600073ffffffffffffffffffffffffffffffffffffffff168373ffffffffffffffffffffffffffffffffffffffff1614611f8957611ea87f1695b4ad952bdc0bc36b61e5a04542fcecbe15a296c1aaa6d357d752eb35aee660001b6113f8565b611ed47fd4dbc7bcca3ffed4172acc4bb3c425411871916ef381e16ac11c40e913ab450760001b6113f8565b611f007fe95f9913f5a6461f4fa24a0b16f2c22fbc485265aaac48242b15cc04d71c170060001b6113f8565b611f1f856103e8670de0b6b3a7640000611f1a919061446e565b6108f8565b9150611f4d7ffaa659155184a4550ed9f1b92ea57cea7393b2f411c53efc601b4025e430417f60001b6113f8565b611f797f6d1e12a01b5b06a700d220d4256100e29532f2f284fb90c8cf774fb7155ad36860001b6113f8565b611f838383611b6f565b50611fb6565b611fb57f0f90b080cd06707bd94d833977e9902ddebef2c091addfb459179dff08c0fc5960001b6113f8565b5b611fe27f8d2657f11921941913f1b9d10ae74976887b7e28f3089b0c3d96d7d62829bb0060001b6113f8565b61200e7f0cf4839afbc658715733338fa3617fe297780f925d1540f385fd0b4a5c6b68a560001b6113f8565b60006120238383612b7990919063ffffffff16565b90506120517ffb5a46592cf3ed90b64b8760785615ea9ed6139924fc5819feb36bed9492ba3660001b6113f8565b61207d7f4f9bae7849c74ac253bc4beb8372085fbb9a205646dbc4ff06a677f615591c6260001b6113f8565b6120bb600a60009054906101000a900473ffffffffffffffffffffffffffffffffffffffff166120b6838961355790919063ffffffff16565b611b6f565b506120e87f85e25c9928eadcb5ada03c4fd252ba8c038b8b6a8fbb2d622622d56dae9cc90760001b6113f8565b6121147f7bd95e902d57de8b69478fc8c339a6f40b7bb2561ed7fc27b17d5a03f359a70860001b6113f8565b8373ffffffffffffffffffffffffffffffffffffffff163373ffffffffffffffffffffffffffffffffffffffff168873ffffffffffffffffffffffffffffffffffffffff167fe1c4fa794edfa8f619b8257a077398950357b9c6398528f94480307352f9afcc8989428960405161218e949392919061439c565b60405180910390a450505050505050565b6103e8670de0b6b3a76400006121b5919061446e565b81565b6000600160008473ffffffffffffffffffffffffffffffffffffffff1673ffffffffffffffffffffffffffffffffffffffff16815260200190815260200160002060008373ffffffffffffffffffffffffffffffffffffffff1673ffffffffffffffffffffffffffffffffffffffff16815260200190815260200160002054905092915050565b61226b7f2edf5f7f253d9e34739ce140ace161971120b6c4ec4d3efe2c2680d645b26c6260001b6113f8565b6122977fa86fe3076a0bb3202ad157ad08ab2b902b9de10e7563698617a286a62acade0360001b6113f8565b6122c37f21a4de6fe49217346c301075113a83a024904284c860c73457b733c4fa0248bf60001b6113f8565b6122ef7f930a033d201005bc73294bc78248c26d1cb08870a082f28d062df6cac633382c60001b6113f8565b600b60009054906101000a900473ffffffffffffffffffffffffffffffffffffffff1673ffffffffffffffffffffffffffffffffffffffff163373ffffffffffffffffffffffffffffffffffffffff161461237f576040517f08c379a000000000000000000000000000000000000000000000000000000000815260040161237690614261565b60405180910390fd5b6123ab7f5a86b76d865122ebd32cadba7bd87c7169bfd03692fcf10039b1bca576ecea4960001b6113f8565b6123d77fa8b250eb7d28bdd09b1e8ced09e69067c6d5a001845d992b8f490149231b625960001b6113f8565b6124037f6e5c1a9c1937aa04e94cd7141138ed1678b3ac9c53ebf90254bd85888da825a160001b6113f8565b7f96ab0400119a548d3cc4c74e857d0d9c427fe9df20d3d0d99af10cc292e6c886600a60009054906101000a900473ffffffffffffffffffffffffffffffffffffffff16600b60009054906101000a900473ffffffffffffffffffffffffffffffffffffffff166040516124789291906140b6565b60405180910390a16124ac7fcbbedd9f5b8d7476ca7551743540ac568e28b7eb4ab31d6f84100ee0df978cbc60001b6113f8565b6124d87f0e9a89e2e4f154e83b4537f557136dd7fe0c6fa46e6ca40808a8c70dcbe1163560001b6113f8565b600b60009054906101000a900473ffffffffffffffffffffffffffffffffffffffff16600a60006101000a81548173ffffffffffffffffffffffffffffffffffffffff021916908373ffffffffffffffffffffffffffffffffffffffff1602179055506125677f9fafa6d53af6468e011c906c10c8e4f577b16c8a44726ee53231c28bddb7f98d60001b6113f8565b6125937fe06ddac2a961c15effe06b66f844458e768352d582430eb3c7ccb6d07197d51b60001b6113f8565b6000600b60006101000a81548173ffffffffffffffffffffffffffffffffffffffff021916908373ffffffffffffffffffffffffffffffffffffffff160217905550565b670de0b6b3a764000081565b60606126117f78193ed970ed92981fd4bb226f7ae799d878b2cd93bf66996001d4ff6617be0860001b6113f8565b61263d7ff2173dacb1d9606acd02e473b47d2efa4a18e95684c42ecbda6118290b8eba6c60001b6113f8565b6126697f72b7778544ec3675a2d7e7506f57e79bf7cf99e9ef21cf9573b8a075669c69a160001b6113f8565b60078054612676906145bf565b80601f01602080910402602001604051908101604052809291908181526020018280546126a2906145bf565b80156126ef5780601f106126c4576101008083540402835291602001916126ef565b820191906000526020600020905b8154815290600101906020018083116126d257829003601f168201915b5050505050905090565b600033905090565b600073ffffffffffffffffffffffffffffffffffffffff168373ffffffffffffffffffffffffffffffffffffffff161415612771576040517f08c379a000000000000000000000000000000000000000000000000000000000815260040161276890614301565b60405180910390fd5b600073ffffffffffffffffffffffffffffffffffffffff168273ffffffffffffffffffffffffffffffffffffffff1614156127e1576040517f08c379a00000000000000000000000000000000000000000000000000000000081526004016127d890614181565b60405180910390fd5b80600160008573ffffffffffffffffffffffffffffffffffffffff1673ffffffffffffffffffffffffffffffffffffffff16815260200190815260200160002060008473ffffffffffffffffffffffffffffffffffffffff1673ffffffffffffffffffffffffffffffffffffffff168152602001908152602001600020819055508173ffffffffffffffffffffffffffffffffffffffff168373ffffffffffffffffffffffffffffffffffffffff167f8c5be1e5ebec7d5bd14f71427d1e84f3dd0314c0f7b2291e5b200ac8c7c3b925836040516128bf9190614381565b60405180910390a3505050565b600073ffffffffffffffffffffffffffffffffffffffff168373ffffffffffffffffffffffffffffffffffffffff16141561293c576040517f08c379a0000000000000000000000000000000000000000000000000000000008152600401612933906142e1565b60405180910390fd5b600073ffffffffffffffffffffffffffffffffffffffff168273ffffffffffffffffffffffffffffffffffffffff1614156129ac576040517f08c379a00000000000000000000000000000000000000000000000000000000081526004016129a390614161565b60405180910390fd5b6129b783838361356d565b60008060008573ffffffffffffffffffffffffffffffffffffffff1673ffffffffffffffffffffffffffffffffffffffff16815260200190815260200160002054905081811015612a3d576040517f08c379a0000000000000000000000000000000000000000000000000000000008152600401612a34906141e1565b60405180910390fd5b8181036000808673ffffffffffffffffffffffffffffffffffffffff1673ffffffffffffffffffffffffffffffffffffffff16815260200190815260200160002081905550816000808573ffffffffffffffffffffffffffffffffffffffff1673ffffffffffffffffffffffffffffffffffffffff1681526020019081526020016000206000828254612ad09190614418565b925050819055508273ffffffffffffffffffffffffffffffffffffffff168473ffffffffffffffffffffffffffffffffffffffff167fddf252ad1be2c89b69c2b068fc378daa952ba7f163c4a11628f55a4df523b3ef84604051612b349190614381565b60405180910390a3612b47848484613572565b50505050565b60008183612b5b919061449f565b905092915050565b60008183612b71919061446e565b905092915050565b60008183612b879190614418565b905092915050565b600073ffffffffffffffffffffffffffffffffffffffff168273ffffffffffffffffffffffffffffffffffffffff161415612bff576040517f08c379a0000000000000000000000000000000000000000000000000000000008152600401612bf690614361565b60405180910390fd5b612c0b6000838361356d565b8060026000828254612c1d9190614418565b92505081905550806000808473ffffffffffffffffffffffffffffffffffffffff1673ffffffffffffffffffffffffffffffffffffffff1681526020019081526020016000206000828254612c729190614418565b925050819055508173ffffffffffffffffffffffffffffffffffffffff16600073ffffffffffffffffffffffffffffffffffffffff167fddf252ad1be2c89b69c2b068fc378daa952ba7f163c4a11628f55a4df523b3ef83604051612cd79190614381565b60405180910390a3612ceb60008383613572565b5050565b6000612d1d7f877398bc0d553b6b652d92418922fcc4eafd928329b021c8d582fd95d3a233b160001b6113f8565b612d497f91e85267ea52ff45581aef1f2f81299cae29b9487c57bd87eeb82fa68fc7ce0560001b6113f8565b612d757f4846362f185d4f787c9aeb7120afa7a88c16886e24a8064db17e64f8fd5f985160001b6113f8565b612da17f540a573644c85c14820c8d389b9ff878492521a196d154dce15163e1ed189d8460001b6113f8565b600073ffffffffffffffffffffffffffffffffffffffff168573ffffffffffffffffffffffffffffffffffffffff161415612e11576040517f08c379a0000000000000000000000000000000000000000000000000000000008152600401612e0890614221565b60405180910390fd5b612e3d7f54faf4838c2f04242f00f837d92d8d6ba201c973d33d3fa997a589691f25446c60001b6113f8565b612e697f363ac05fd458c4eb7a57aea9fcd9e33a0d9c0e8bbe842987c5a4965724f09a0060001b6113f8565b612e957fe13f1fd978d8cf10672df6ca8c9bb3416bc4d24382a90b731f30bd3ea7c5623760001b6113f8565b612ec17fd55be1972a605f6d1c6609fc2eda4d6200156342980986c1b40f3aefce25d5ec60001b6113f8565b600073ffffffffffffffffffffffffffffffffffffffff16600a60009054906101000a900473ffffffffffffffffffffffffffffffffffffffff1673ffffffffffffffffffffffffffffffffffffffff1614612f52576040517f08c379a0000000000000000000000000000000000000000000000000000000008152600401612f49906142c1565b60405180910390fd5b612f7e7f80483b858008663b839cba3559107262666f2360870661239bfca6888781daf760001b6113f8565b612faa7f3fbc68d752f1bcf2b1272d594bedd7730ee4b173ed62452805b01d7351ba065460001b6113f8565b612fd67f7239bea935a5bc3ec411bfb93cfca5ed039ed1a3b15d56be8b772cac156a2f5c60001b6113f8565b6130027f06e01c4d49c29e0e9949d657da5be7f59d6ab82d0204c86b8a7fa9449c3fa11360001b6113f8565b600073ffffffffffffffffffffffffffffffffffffffff168273ffffffffffffffffffffffffffffffffffffffff161415613072576040517f08c379a000000000000000000000000000000000000000000000000000000000815260040161306990614241565b60405180910390fd5b61309e7f042cafa406966c6abc31f985e5eb5ffd9ae84b9244f3a15cd72c41df3689380460001b6113f8565b6130ca7fc830137b4a81c24b6617bb8d527a36fc39295d603c6561d2d66d5690d22aa08460001b6113f8565b6130f67fd146ce04cb98b9c1b4931d487c3d1c2d623963cd22f0a7513b04d7e25a7caf4960001b6113f8565b6131227ffb861c7e2ed4b32f18934de165c0fc51a7cd2bf0d37c5546a56949eb58bff00b60001b6113f8565b6000841415613166576040517f08c379a000000000000000000000000000000000000000000000000000000000815260040161315d90614281565b60405180910390fd5b6131927fa321e42f514eed6f3eec9db8f5dcef0bef4baa3a93ce28fbc9dca7fc88f5da4860001b6113f8565b6131be7f998c533455a148982588a32cb1c1babb4a013ea8a29045f90b9308f4e429034c60001b6113f8565b6131ea7faf86ec03241301e51f4de0569fb8053454ff4f0da6a9d462fba700286d27977860001b6113f8565b8360088190555061321d7febc2e4108c648a4cabca7bfc6a62519dde3d26a7514815308298eb02e3cc98ef60001b6113f8565b6132497fc4733b974eea571ed9c1c60266871fdf1a2368b85cc63b0689ca5517c7fdf75c60001b6113f8565b866005908051906020019061325f929190613577565b5061328c7ffd97043bc0ff2e0bdb4f50c06cecd9cc5feb4cacd5c378d1c19adccb33bdcd5c60001b6113f8565b6132b87fc04d3a9708e9da289388552c884ee72e022efb8fa5b6a3bb21c47c11bd25e4bf60001b6113f8565b82600790805190602001906132ce929190613577565b506132fb7f50e49345406087da10bceb6cfa4b7a76cd4f6296fb37f45e180c78f4d5a05e3760001b6113f8565b6133277f7e7840eafb232cf285037dd522d35ed644982811882aebe828991c83e29ee90460001b6113f8565b856006908051906020019061333d929190613577565b5061336a7ffc7c79e2b3943363c7659760d84ace542ef00b2cdd525c85dacf5ab336f7f88f60001b6113f8565b6133967ffeb317e055706dce330e5cfb5a22d1937c08dbe151be0bbf257810074aec7b0a60001b6113f8565b84600a60006101000a81548173ffffffffffffffffffffffffffffffffffffffff021916908373ffffffffffffffffffffffffffffffffffffffff1602179055506134037f8a2bea2400d6ae2f25a7b4e3bd3f0f4f2ac5965cb20d9d648ecf5ddc882580ca60001b6113f8565b61342f7f5f5f787dd2a3fb7db12a901e7b8fb4b6504c80ee22dbdfa563901667ca67dbda60001b6113f8565b81600960006101000a81548173ffffffffffffffffffffffffffffffffffffffff021916908373ffffffffffffffffffffffffffffffffffffffff16021790555061349c7fce4c3689dcbd84a99298ed5e92f870c7577e1ce21a15f821d9c4cce3c47864c060001b6113f8565b6134c87f3241741d52528f04d321649d569d846683ba300878b9c7a29651b7938a0cde2860001b6113f8565b6001600960146101000a81548160ff02191690831515021790555061350f7f18796edc55c31605da607740c83ea61ed3c44409c295386f13db078affd36acb60001b6113f8565b61353b7f6685c880ed57a730b0c6456822159b41647ed8f9ffbf7f8f21e5010a0de758da60001b6113f8565b600960149054906101000a900460ff1690509695505050505050565b6000818361356591906144f9565b905092915050565b505050565b505050565b828054613583906145bf565b90600052602060002090601f0160209004810192826135a557600085556135ec565b82601f106135be57805160ff19168380011785556135ec565b828001600101855582156135ec579182015b828111156135eb5782518255916020019190600101906135d0565b5b5090506135f991906135fd565b5090565b5b808211156136165760008160009055506001016135fe565b5090565b6000813590506136298161468f565b92915050565b60008135905061363e816146a6565b92915050565b60008083601f84011261365657600080fd5b8235905067ffffffffffffffff81111561366f57600080fd5b60208301915083600182028301111561368757600080fd5b9250929050565b60008135905061369d816146bd565b92915050565b6000602082840312156136b557600080fd5b60006136c38482850161361a565b91505092915050565b600080604083850312156136df57600080fd5b60006136ed8582860161361a565b92505060206136fe8582860161361a565b9150509250929050565b60008060006060848603121561371d57600080fd5b600061372b8682870161361a565b935050602061373c8682870161361a565b925050604061374d8682870161368e565b9150509250925092565b6000806040838503121561376a57600080fd5b60006137788582860161361a565b92505060206137898582860161368e565b9150509250929050565b600080600080608085870312156137a957600080fd5b60006137b78782880161361a565b94505060206137c88782880161368e565b93505060406137d98782880161368e565b92505060606137ea8782880161361a565b91505092959194509250565b60006020828403121561380857600080fd5b60006138168482850161362f565b91505092915050565b6000806000806080858703121561383557600080fd5b60006138438782880161362f565b94505060206138548782880161361a565b93505060406138658782880161368e565b92505060606138768782880161368e565b91505092959194509250565b600080600080600080600080600060c08a8c0312156138a057600080fd5b60008a013567ffffffffffffffff8111156138ba57600080fd5b6138c68c828d01613644565b995099505060208a013567ffffffffffffffff8111156138e557600080fd5b6138f18c828d01613644565b975097505060406139048c828d0161361a565b95505060606139158c828d0161368e565b94505060808a013567ffffffffffffffff81111561393257600080fd5b61393e8c828d01613644565b935093505060a06139518c828d0161361a565b9150509295985092959850929598565b6000806040838503121561397457600080fd5b60006139828582860161368e565b92505060206139938582860161368e565b9150509250929050565b6139a68161452d565b82525050565b6139b58161453f565b82525050565b6139c48161454b565b82525050565b60006139d5826143fc565b6139df8185614407565b93506139ef81856020860161458c565b6139f88161467e565b840191505092915050565b6000613a10602383614407565b91507f45524332303a207472616e7366657220746f20746865207a65726f206164647260008301527f65737300000000000000000000000000000000000000000000000000000000006020830152604082019050919050565b6000613a76602283614407565b91507f45524332303a20617070726f766520746f20746865207a65726f20616464726560008301527f73730000000000000000000000000000000000000000000000000000000000006020830152604082019050919050565b6000613adc603583614407565b91507f44617461546f6b656e54656d706c6174653a20746f6b656e20696e7374616e6360008301527f6520616c726561647920696e697469616c697a656400000000000000000000006020830152604082019050919050565b6000613b42602183614407565b91507f44617461546f6b656e54656d706c6174653a20696e76616c6964206d696e746560008301527f72000000000000000000000000000000000000000000000000000000000000006020830152604082019050919050565b6000613ba8602683614407565b91507f45524332303a207472616e7366657220616d6f756e742065786365656473206260008301527f616c616e636500000000000000000000000000000000000000000000000000006020830152604082019050919050565b6000613c0e602983614407565b91507f44617461546f6b656e54656d706c6174653a206661696c656420746f2066696e60008301527f697368206f7264657200000000000000000000000000000000000000000000006020830152604082019050919050565b6000613c74603083614407565b91507f44617461546f6b656e54656d706c6174653a20496e76616c6964206d696e746560008301527f722c20207a65726f2061646472657373000000000000000000000000000000006020830152604082019050919050565b6000613cda604083614407565b91507f44617461546f6b656e54656d706c6174653a20496e76616c696420636f6d6d7560008301527f6e6974792066656520636f6c6c6563746f722c207a65726f20616464726573736020830152604082019050919050565b6000613d40603283614407565b91507f44617461546f6b656e54656d706c6174653a20696e76616c69642070726f706f60008301527f736564206d696e746572206164647265737300000000000000000000000000006020830152604082019050919050565b6000613da6602483614407565b91507f44617461546f6b656e54656d706c6174653a20496e76616c696420636170207660008301527f616c7565000000000000000000000000000000000000000000000000000000006020830152604082019050919050565b6000613e0c602883614407565b91507f45524332303a207472616e7366657220616d6f756e742065786365656473206160008301527f6c6c6f77616e63650000000000000000000000000000000000000000000000006020830152604082019050919050565b6000613e72602f83614407565b91507f44617461546f6b656e54656d706c6174653a20496e76616c6964206d696e746560008301527f722c207a65726f206164647265737300000000000000000000000000000000006020830152604082019050919050565b6000613ed8602583614407565b91507f45524332303a207472616e736665722066726f6d20746865207a65726f20616460008301527f64726573730000000000000000000000000000000000000000000000000000006020830152604082019050919050565b6000613f3e602483614407565b91507f45524332303a20617070726f76652066726f6d20746865207a65726f2061646460008301527f72657373000000000000000000000000000000000000000000000000000000006020830152604082019050919050565b6000613fa4601f83614407565b91507f44617461546f6b656e54656d706c6174653a20636170206578636565646564006000830152602082019050919050565b6000613fe4602583614407565b91507f45524332303a2064656372656173656420616c6c6f77616e63652062656c6f7760008301527f207a65726f0000000000000000000000000000000000000000000000000000006020830152604082019050919050565b600061404a601f83614407565b91507f45524332303a206d696e7420746f20746865207a65726f2061646472657373006000830152602082019050919050565b61408681614575565b82525050565b6140958161457f565b82525050565b60006020820190506140b0600083018461399d565b92915050565b60006040820190506140cb600083018561399d565b6140d8602083018461399d565b9392505050565b60006020820190506140f460008301846139ac565b92915050565b600060808201905061410f60008301876139bb565b61411c602083018661407d565b614129604083018561407d565b614136606083018461407d565b95945050505050565b6000602082019050818103600083015261415981846139ca565b905092915050565b6000602082019050818103600083015261417a81613a03565b9050919050565b6000602082019050818103600083015261419a81613a69565b9050919050565b600060208201905081810360008301526141ba81613acf565b9050919050565b600060208201905081810360008301526141da81613b35565b9050919050565b600060208201905081810360008301526141fa81613b9b565b9050919050565b6000602082019050818103600083015261421a81613c01565b9050919050565b6000602082019050818103600083015261423a81613c67565b9050919050565b6000602082019050818103600083015261425a81613ccd565b9050919050565b6000602082019050818103600083015261427a81613d33565b9050919050565b6000602082019050818103600083015261429a81613d99565b9050919050565b600060208201905081810360008301526142ba81613dff565b9050919050565b600060208201905081810360008301526142da81613e65565b9050919050565b600060208201905081810360008301526142fa81613ecb565b9050919050565b6000602082019050818103600083015261431a81613f31565b9050919050565b6000602082019050818103600083015261433a81613f97565b9050919050565b6000602082019050818103600083015261435a81613fd7565b9050919050565b6000602082019050818103600083015261437a8161403d565b9050919050565b6000602082019050614396600083018461407d565b92915050565b60006080820190506143b1600083018761407d565b6143be602083018661407d565b6143cb604083018561407d565b6143d8606083018461407d565b95945050505050565b60006020820190506143f6600083018461408c565b92915050565b600081519050919050565b600082825260208201905092915050565b600061442382614575565b915061442e83614575565b9250827fffffffffffffffffffffffffffffffffffffffffffffffffffffffffffffffff03821115614463576144626145f1565b5b828201905092915050565b600061447982614575565b915061448483614575565b92508261449457614493614620565b5b828204905092915050565b60006144aa82614575565b91506144b583614575565b9250817fffffffffffffffffffffffffffffffffffffffffffffffffffffffffffffffff04831182151516156144ee576144ed6145f1565b5b828202905092915050565b600061450482614575565b915061450f83614575565b925082821015614522576145216145f1565b5b828203905092915050565b600061453882614555565b9050919050565b60008115159050919050565b6000819050919050565b600073ffffffffffffffffffffffffffffffffffffffff82169050919050565b6000819050919050565b600060ff82169050919050565b60005b838110156145aa57808201518184015260208101905061458f565b838111156145b9576000848401525b50505050565b600060028204905060018216806145d757607f821691505b602082108114156145eb576145ea61464f565b5b50919050565b7f4e487b7100000000000000000000000000000000000000000000000000000000600052601160045260246000fd5b7f4e487b7100000000000000000000000000000000000000000000000000000000600052601260045260246000fd5b7f4e487b7100000000000000000000000000000000000000000000000000000000600052602260045260246000fd5b6000601f19601f8301169050919050565b6146988161452d565b81146146a357600080fd5b50565b6146af8161454b565b81146146ba57600080fd5b50565b6146c681614575565b81146146d157600080fd5b5056fea2646970667358221220b88faf4fc51e0e257ad7cdafda28d280cbfbd0ae90a20cfa4435d0933d590d8d64736f6c63430008000033",
  "linkReferences": {},
  "deployedLinkReferences": {}
}