{
  "_format": "hh-sol-artifact-1",
  "contractName": "V3DTFactory",
  "sourceName": "contracts/v3/V3DTFactory.sol",
  "abi": [
    {
      "inputs": [
        {
          "internalType": "address",
          "name": "_template",
          "type": "address"
        },
        {
          "internalType": "address",
          "name": "_collector",
          "type": "address"
        }
      ],
      "stateMutability": "nonpayable",
      "type": "constructor"
    },
    {
      "anonymous": false,
      "inputs": [
        {
          "indexed": false,
          "internalType": "address",
          "name": "instance",
          "type": "address"
        }
      ],
      "name": "InstanceDeployed",
      "type": "event"
    },
    {
      "anonymous": false,
      "inputs": [
        {
          "indexed": true,
          "internalType": "address",
          "name": "newTokenAddress",
          "type": "address"
        },
        {
          "indexed": true,
          "internalType": "address",
          "name": "templateAddress",
          "type": "address"
        },
        {
          "indexed": true,
          "internalType": "string",
          "name": "tokenName",
          "type": "string"
        }
      ],
      "name": "TokenCreated",
      "type": "event"
    },
    {
      "anonymous": false,
      "inputs": [
        {
          "indexed": true,
          "internalType": "address",
          "name": "tokenAddress",
          "type": "address"
        },
        {
          "indexed": false,
          "internalType": "string",
          "name": "tokenName",
          "type": "string"
        },
        {
          "indexed": false,
          "internalType": "string",
          "name": "tokenSymbol",
          "type": "string"
        },
        {
          "indexed": false,
          "internalType": "uint256",
          "name": "tokenCap",
          "type": "uint256"
        },
        {
          "indexed": true,
          "internalType": "address",
          "name": "registeredBy",
          "type": "address"
        },
        {
          "indexed": true,
          "internalType": "string",
          "name": "blob",
          "type": "string"
        }
      ],
      "name": "TokenRegistered",
      "type": "event"
    },
    {
      "inputs": [
        {
          "internalType": "string",
          "name": "blob",
          "type": "string"
        },
        {
          "internalType": "string",
          "name": "name",
          "type": "string"
        },
        {
          "internalType": "string",
          "name": "symbol",
          "type": "string"
        },
        {
          "internalType": "uint256",
          "name": "cap",
          "type": "uint256"
        }
      ],
      "name": "createToken",
      "outputs": [
        {
          "internalType": "address",
          "name": "token",
          "type": "address"
        }
      ],
      "stateMutability": "nonpayable",
      "type": "function"
    },
    {
      "inputs": [],
      "name": "getCurrentTokenCount",
      "outputs": [
        {
          "internalType": "uint256",
          "name": "",
          "type": "uint256"
        }
      ],
      "stateMutability": "view",
      "type": "function"
    },
    {
      "inputs": [],
      "name": "getTokenTemplate",
      "outputs": [
        {
          "internalType": "address",
          "name": "",
          "type": "address"
        }
      ],
      "stateMutability": "view",
      "type": "function"
    }
  ],
  "bytecode": "0x6080604052600160025534801561001557600080fd5b50604051610844380380610844833981016040819052610034916100c6565b6001600160a01b0382161580159061005457506001600160a01b03811615155b6100795760405162461bcd60e51b8152600401610070906100f8565b60405180910390fd5b600080546001600160a01b039384166001600160a01b0319918216179091556001805492909316911617905561015f565b80516001600160a01b03811681146100c157600080fd5b919050565b600080604083850312156100d8578182fd5b6100e1836100aa565b91506100ef602084016100aa565b90509250929050565b60208082526041908201527f4454466163746f72793a20496e76616c69642074656d706c61746520746f6b6560408201527f6e2f636f6d6d756e6974792066656520636f6c6c6563746f72206164647265736060820152607360f81b608082015260a00190565b6106d68061016e6000396000f3fe608060405234801561001057600080fd5b50600436106100415760003560e01c8063490aad7614610046578063c6cf868a14610064578063efbe8fd114610079575b600080fd5b61004e61008c565b60405161005b919061048e565b60405180910390f35b61006c61009b565b60405161005b919061062d565b61004e6100873660046103ba565b6100a1565b6000546001600160a01b031690565b60025490565b6000816100c95760405162461bcd60e51b81526004016100c09061058e565b60405180910390fd5b6000546100de906001600160a01b0316610288565b90506001600160a01b0381166101065760405162461bcd60e51b81526004016100c0906105d0565b60015460405163120e1a5f60e31b815282916001600160a01b0380841692639070d2f892610144928a928a9233928b928f92909116906004016104a2565b602060405180830381600087803b15801561015e57600080fd5b505af1158015610172573d6000803e3d6000fd5b505050506040513d601f19601f820116820180604052508101906101969190610393565b6101b25760405162461bcd60e51b81526004016100c090610540565b846040516101c09190610472565b6040519081900381206000805491926001600160a01b03928316928616917fb51c8cbe199ffe8b0d1d39b62d473569750653cb18b165f77ae423b3900180ad91a48560405161020f9190610472565b6040518091039020336001600160a01b0316836001600160a01b03167f437e99a69c634128e67a85656b80d03b028ba37525b15070606e5c28e846984a88888860405161025e9392919061050a565b60405180910390a46001600260008282546102799190610636565b90915550919695505050505050565b6000808260601b9050604051733d602d80600a3d3981f3363d3d373d3d3d363d7360601b81528160148201526e5af43d82803e903d91602b57fd5bf360881b60288201526037816000f09250507f117c72e6c25f0a072e36e148df71468ce2f3dbe7defec5b2c257a6e3eb65278c82604051610304919061048e565b60405180910390a150919050565b600082601f830112610322578081fd5b813567ffffffffffffffff8082111561033d5761033d61068a565b604051601f8301601f1916810160200182811182821017156103615761036161068a565b604052828152848301602001861015610378578384fd5b82602086016020830137918201602001929092529392505050565b6000602082840312156103a4578081fd5b815180151581146103b3578182fd5b9392505050565b600080600080608085870312156103cf578283fd5b843567ffffffffffffffff808211156103e6578485fd5b6103f288838901610312565b95506020870135915080821115610407578485fd5b61041388838901610312565b94506040870135915080821115610428578384fd5b5061043587828801610312565b949793965093946060013593505050565b6000815180845261045e81602086016020860161065a565b601f01601f19169290920160200192915050565b6000825161048481846020870161065a565b9190910192915050565b6001600160a01b0391909116815260200190565b600060c082526104b560c0830189610446565b82810360208401526104c78189610446565b6001600160a01b0388811660408601526060850188905284820360808601529091506104f38287610446565b925080851660a08501525050979650505050505050565b60006060825261051d6060830186610446565b828103602084015261052f8186610446565b915050826040830152949350505050565b6020808252602e908201527f4454466163746f72793a20556e61626c6520746f20696e697469616c697a652060408201526d746f6b656e20696e7374616e636560901b606082015260800190565b60208082526022908201527f4454466163746f72793a207a65726f20636170206973206e6f7420616c6c6f77604082015261195960f21b606082015260800190565b6020808252603a908201527f4454466163746f72793a204661696c656420746f20706572666f726d206d696e60408201527f696d616c206465706c6f79206f662061206e657720746f6b656e000000000000606082015260800190565b90815260200190565b6000821982111561065557634e487b7160e01b81526011600452602481fd5b500190565b60005b8381101561067557818101518382015260200161065d565b83811115610684576000848401525b50505050565b634e487b7160e01b600052604160045260246000fdfea2646970667358221220200de5751c50215083ded37c9eb58390a7dc29e5b644e74544116d62fd0fe42964736f6c63430008000033",
  "linkReferences": {},
  "deployedLinkReferences": {}
}