{
  "_format": "hh-sol-artifact-1",
  "contractName": "V3DTFactory",
  "sourceName": "contracts/v3/V3DTFactory.sol",
  "abi": [
    {
      "inputs": [
        {
          "internalType": "address",
          "name": "_template",
          "type": "address"
        },
        {
          "internalType": "address",
          "name": "_collector",
          "type": "address"
        }
      ],
      "stateMutability": "nonpayable",
      "type": "constructor"
    },
    {
      "anonymous": false,
      "inputs": [
        {
          "indexed": false,
          "internalType": "address",
          "name": "instance",
          "type": "address"
        }
      ],
      "name": "InstanceDeployed",
      "type": "event"
    },
    {
      "anonymous": false,
      "inputs": [
        {
          "indexed": true,
          "internalType": "address",
          "name": "newTokenAddress",
          "type": "address"
        },
        {
          "indexed": true,
          "internalType": "address",
          "name": "templateAddress",
          "type": "address"
        },
        {
          "indexed": true,
          "internalType": "string",
          "name": "tokenName",
          "type": "string"
        }
      ],
      "name": "TokenCreated",
      "type": "event"
    },
    {
      "anonymous": false,
      "inputs": [
        {
          "indexed": true,
          "internalType": "address",
          "name": "tokenAddress",
          "type": "address"
        },
        {
          "indexed": false,
          "internalType": "string",
          "name": "tokenName",
          "type": "string"
        },
        {
          "indexed": false,
          "internalType": "string",
          "name": "tokenSymbol",
          "type": "string"
        },
        {
          "indexed": false,
          "internalType": "uint256",
          "name": "tokenCap",
          "type": "uint256"
        },
        {
          "indexed": true,
          "internalType": "address",
          "name": "registeredBy",
          "type": "address"
        },
        {
          "indexed": true,
          "internalType": "string",
          "name": "blob",
          "type": "string"
        }
      ],
      "name": "TokenRegistered",
      "type": "event"
    },
    {
      "inputs": [
        {
          "internalType": "bytes32",
          "name": "c__0x0033c005",
          "type": "bytes32"
        }
      ],
      "name": "c_0x0033c005",
      "outputs": [],
      "stateMutability": "pure",
      "type": "function"
    },
    {
      "inputs": [
        {
          "internalType": "bytes32",
          "name": "c__0x1df68703",
          "type": "bytes32"
        }
      ],
      "name": "c_0x1df68703",
      "outputs": [],
      "stateMutability": "pure",
      "type": "function"
    },
    {
      "inputs": [
        {
          "internalType": "string",
          "name": "blob",
          "type": "string"
        },
        {
          "internalType": "string",
          "name": "name",
          "type": "string"
        },
        {
          "internalType": "string",
          "name": "symbol",
          "type": "string"
        },
        {
          "internalType": "uint256",
          "name": "cap",
          "type": "uint256"
        }
      ],
      "name": "createToken",
      "outputs": [
        {
          "internalType": "address",
          "name": "token",
          "type": "address"
        }
      ],
      "stateMutability": "nonpayable",
      "type": "function"
    },
    {
      "inputs": [],
      "name": "getCurrentTokenCount",
      "outputs": [
        {
          "internalType": "uint256",
          "name": "",
          "type": "uint256"
        }
      ],
      "stateMutability": "view",
      "type": "function"
    },
    {
      "inputs": [],
      "name": "getTokenTemplate",
      "outputs": [
        {
          "internalType": "address",
          "name": "",
          "type": "address"
        }
      ],
      "stateMutability": "view",
      "type": "function"
    }
  ],
  "bytecode": "0x608060405260016002553480156200001657600080fd5b50604051620016ce380380620016ce83398181016040528101906200003c919062000360565b620000707f2644d4bd1249ebbacdda6217a7edc8e7a2d42b1da90915ceaea9978731155d8660001b6200034660201b60201c565b620000a47f31fb1245a1fb019713ab060c1fb28f2ea1a1b5f72500259d0ca3d932f1ae07d560001b6200034660201b60201c565b620000d87f1812f4c72508be8331103fa74f71752ab0b1dee516ce1cacba485bb38c96edf460001b6200034660201b60201c565b6200010c7f77317687aafc821baf8a27d6dfd5cafafee8032a399a41e501e12d8e27a4485260001b6200034660201b60201c565b600073ffffffffffffffffffffffffffffffffffffffff168273ffffffffffffffffffffffffffffffffffffffff1614158015620001775750600073ffffffffffffffffffffffffffffffffffffffff168173ffffffffffffffffffffffffffffffffffffffff1614155b620001b9576040517f08c379a0000000000000000000000000000000000000000000000000000000008152600401620001b0906200042f565b60405180910390fd5b620001ed7f78ef8eeda10d4fe565c61ffabd486837fd46505931f9e576be15fd462984f5b260001b6200034660201b60201c565b620002217f4c2b86e8e49aee5c5da164466f8cb0890909f1813da6da2ed434967d02d3025060001b6200034660201b60201c565b620002557f2c6617e2e2b6025fe89b32d96fc7da2d2f52989837478aee146ddb3d2f91542c60001b6200034660201b60201c565b816000806101000a81548173ffffffffffffffffffffffffffffffffffffffff021916908373ffffffffffffffffffffffffffffffffffffffff160217905550620002c97f940ad42c8ac1516b0fafaab05a64708e8bfea8dd66096ccf2b0e09b9489a919a60001b6200034660201b60201c565b620002fd7f89a0e75b0949e74b7a206c887a5849c26d575287f400c94a229170ce0c7567d260001b6200034660201b60201c565b80600160006101000a81548173ffffffffffffffffffffffffffffffffffffffff021916908373ffffffffffffffffffffffffffffffffffffffff1602179055505050620004b0565b50565b6000815190506200035a8162000496565b92915050565b600080604083850312156200037457600080fd5b6000620003848582860162000349565b9250506020620003978582860162000349565b9150509250929050565b6000620003b060418362000451565b91507f4454466163746f72793a20496e76616c69642074656d706c61746520746f6b6560008301527f6e2f636f6d6d756e6974792066656520636f6c6c6563746f722061646472657360208301527f73000000000000000000000000000000000000000000000000000000000000006040830152606082019050919050565b600060208201905081810360008301526200044a81620003a1565b9050919050565b600082825260208201905092915050565b60006200046f8262000476565b9050919050565b600073ffffffffffffffffffffffffffffffffffffffff82169050919050565b620004a18162000462565b8114620004ad57600080fd5b50565b61120e80620004c06000396000f3fe608060405234801561001057600080fd5b50600436106100575760003560e01c8063490aad761461005c57806372df69641461007a57806390c7845914610096578063c6cf868a146100b2578063efbe8fd1146100d0575b600080fd5b610064610100565b6040516100719190610e61565b60405180910390f35b610094600480360381019061008f9190610bbc565b6101ac565b005b6100b060048036038101906100ab9190610bbc565b6101af565b005b6100ba6101b2565b6040516100c79190610f97565b60405180910390f35b6100ea60048036038101906100e59190610be5565b610240565b6040516100f79190610e61565b60405180910390f35b600061012e7f94f7caee5c74db58d40047a7b3534ce885105efde2d394a003e1437016bc63ca60001b6101ac565b61015a7f153dd25b82ba3bdda6ce560f2b49ac776db136ab99983dbdb289b8715734e4d260001b6101ac565b6101867f285e546cc66abb32b802aae4fa5ae213a31eb30aa9d6a37c3188d9f6164f455d60001b6101ac565b60008054906101000a900473ffffffffffffffffffffffffffffffffffffffff16905090565b50565b50565b60006101e07fa906407e563905262acd2d67a6c42a310b9d306dd1942e2ee6519c08c1802eef60001b6101ac565b61020c7fd746ae0580d5f8834e7f1802298438455c4701e173b984a52f69cae1b73a5d1260001b6101ac565b6102387fa0b1ee2ee64b4c472401a25f049c20f2b2cfdce52431b9616da7964b1f67140360001b6101ac565b600254905090565b600061026e7f357887490f756415e53d44565514b88fcb54ec2ac744e649cbb550f9f49df9f360001b6101ac565b61029a7fab6f8b8fdba8c1ca1e9c8797e7c2a212be99ff50d8ec7fe8bcc12c7279df443760001b6101ac565b6102c67f9292dd8b8abea810624396811feabfea15fd715e594c25e2d7d6aa43fd3f4b4360001b6101ac565b6102f27fb1b6186b91bb7871d91c575dadab19241956078df80cdcfd37e856f93c808af160001b6101ac565b6000821415610336576040517f08c379a000000000000000000000000000000000000000000000000000000000815260040161032d90610f57565b60405180910390fd5b6103627fd8b237ec1d4d0cff67c08d9ad278beaa0921621fa9f0896f1c64b2274a0903a060001b6101ac565b61038e7fb47b953c7cf49493d5665fb348f32a26252172ff03c060e26e27ad85bbcd74f460001b6101ac565b6103ba7ffd9ff32916c32fb1348d668fc23a7feef78fca3753cfa77733c1806eadd24ce760001b6101ac565b6103e360008054906101000a900473ffffffffffffffffffffffffffffffffffffffff16610942565b90506104117fde3af45282b8c92d0fc7e6783a2d1136d4d90e4a8231d73ac28a914eb017886460001b6101ac565b61043d7fce3219cb25a04bdc779df81e7ab4d31255a2613287d52cd7b2fe6e696edb4f6760001b6101ac565b6104697f86af60d043e9755b8d518efec5a29da522dae87b61f196836fb74c24d521bd6360001b6101ac565b600073ffffffffffffffffffffffffffffffffffffffff168173ffffffffffffffffffffffffffffffffffffffff1614156104d9576040517f08c379a00000000000000000000000000000000000000000000000000000000081526004016104d090610f77565b60405180910390fd5b6105057f64484e97dd944d977ea8b66ac09572bd5e45ea6abd49569b0d1ff31ccd4ad3c460001b6101ac565b6105317fa930feab7908fb27da0d15451f476e5a0d33bbda52cf0f236d71741c5764f43860001b6101ac565b61055d7fc220141b64cc404b705107182590f85f525b3088b47c637cf1e76989b97a528060001b6101ac565b600081905061058e7fb39e19b6d7cf3f397e116675576918a43afed773bbf56f042c6a74b99aa07e2160001b6101ac565b6105ba7fdb40697dca37d18ca662dce5545bd4b31adf834ab55cd6e3440e3323fbf5cb0460001b6101ac565b6105e67fa7613dbbf8c1d549bdec6298fd4c51c42effcc87da0fd7fed41c6b2faee157bf60001b6101ac565b8073ffffffffffffffffffffffffffffffffffffffff16639070d2f8868633878b600160009054906101000a900473ffffffffffffffffffffffffffffffffffffffff166040518763ffffffff1660e01b815260040161064b96959493929190610e7c565b602060405180830381600087803b15801561066557600080fd5b505af1158015610679573d6000803e3d6000fd5b505050506040513d601f19601f8201168201806040525081019061069d9190610b93565b6106dc576040517f08c379a00000000000000000000000000000000000000000000000000000000081526004016106d390610f37565b60405180910390fd5b6107087f05a5356fa8265168eca0e04723028c23b4d82f1cf6dda9e634158a0088cf70f460001b6101ac565b6107347f5ca3218a3fe7584ddd0db52787773e1bd6e6811b7a689fe93058dbd8e1b1323160001b6101ac565b6107607f4a126dbee8a009e5df96bd87e0cc0b6b3f20538b3efb4165448ba8115c409c3360001b6101ac565b8460405161076e9190610e4a565b604051809103902060008054906101000a900473ffffffffffffffffffffffffffffffffffffffff1673ffffffffffffffffffffffffffffffffffffffff168373ffffffffffffffffffffffffffffffffffffffff167fb51c8cbe199ffe8b0d1d39b62d473569750653cb18b165f77ae423b3900180ad60405160405180910390a461081c7fb68bc3017bf12fe17417692470c58688cde13ff5ac954bf4e2756cdb3aa7123160001b6101ac565b6108487fef19ccf93d1b4227838e8676e93393225293ef02b536007b51801b45c5ad006d60001b6101ac565b856040516108569190610e4a565b60405180910390203373ffffffffffffffffffffffffffffffffffffffff168373ffffffffffffffffffffffffffffffffffffffff167f437e99a69c634128e67a85656b80d03b028ba37525b15070606e5c28e846984a8888886040516108bf93929190610ef2565b60405180910390a46108f37f1b36a25bfc2376996f675ede3cba7e9b00f3e57529f5602a18c56d0cc6fdd3f660001b6101ac565b61091f7f32b49a83fc57ef6694ddda515829aab21e92f6ec48987a909b7b75bfcd69f2fa60001b6101ac565b600160026000828254610932919061103a565b9250508190555050949350505050565b60006109707fd38b6200ebc5c39976ea65ac48a92e43a7408bbf78c66de588dd43f93a5c5e9b60001b6101af565b61099c7ffcda83c3e72c35139d3e36f99eb8752b345c839f27b84fc400a23698bab02bcc60001b6101af565b6109c87f08fc519b2315a4cccc974d7dae64ee0281b2b361a7f6498039ae4a8a814953af60001b6101af565b60008260601b90506109fc7f80729ff03500db3cf3730fc6a0b106550f77d82fcd74d13b082b7c32ca83946460001b6101af565b6040517f3d602d80600a3d3981f3363d3d373d3d3d363d7300000000000000000000000081528160148201527f5af43d82803e903d91602b57fd5bf3000000000000000000000000000000000060288201526037816000f0925050610a837f08f7e1f8362ee2b0b64bc7b053716806a4bf28df5c37cdaaa96500b024c8641b60001b6101af565b610aaf7f95be1011d27c0e1c6649c3426a697405558e7f5a56d6a945f9d2beba5a125aa760001b6101af565b7f117c72e6c25f0a072e36e148df71468ce2f3dbe7defec5b2c257a6e3eb65278c82604051610ade9190610e61565b60405180910390a150919050565b6000610aff610afa84610fe3565b610fb2565b905082815260208101848484011115610b1757600080fd5b610b228482856110e2565b509392505050565b600081519050610b3981611193565b92915050565b600081359050610b4e816111aa565b92915050565b600082601f830112610b6557600080fd5b8135610b75848260208601610aec565b91505092915050565b600081359050610b8d816111c1565b92915050565b600060208284031215610ba557600080fd5b6000610bb384828501610b2a565b91505092915050565b600060208284031215610bce57600080fd5b6000610bdc84828501610b3f565b91505092915050565b60008060008060808587031215610bfb57600080fd5b600085013567ffffffffffffffff811115610c1557600080fd5b610c2187828801610b54565b945050602085013567ffffffffffffffff811115610c3e57600080fd5b610c4a87828801610b54565b935050604085013567ffffffffffffffff811115610c6757600080fd5b610c7387828801610b54565b9250506060610c8487828801610b7e565b91505092959194509250565b610c9981611090565b82525050565b6000610caa82611013565b610cb4818561101e565b9350610cc48185602086016110f1565b610ccd81611182565b840191505092915050565b6000610ce382611013565b610ced818561102f565b9350610cfd8185602086016110f1565b80840191505092915050565b6000610d16602e8361101e565b91507f4454466163746f72793a20556e61626c6520746f20696e697469616c697a652060008301527f746f6b656e20696e7374616e63650000000000000000000000000000000000006020830152604082019050919050565b6000610d7c60228361101e565b91507f4454466163746f72793a207a65726f20636170206973206e6f7420616c6c6f7760008301527f65640000000000000000000000000000000000000000000000000000000000006020830152604082019050919050565b6000610de2603a8361101e565b91507f4454466163746f72793a204661696c656420746f20706572666f726d206d696e60008301527f696d616c206465706c6f79206f662061206e657720746f6b656e0000000000006020830152604082019050919050565b610e44816110d8565b82525050565b6000610e568284610cd8565b915081905092915050565b6000602082019050610e766000830184610c90565b92915050565b600060c0820190508181036000830152610e968189610c9f565b90508181036020830152610eaa8188610c9f565b9050610eb96040830187610c90565b610ec66060830186610e3b565b8181036080830152610ed88185610c9f565b9050610ee760a0830184610c90565b979650505050505050565b60006060820190508181036000830152610f0c8186610c9f565b90508181036020830152610f208185610c9f565b9050610f2f6040830184610e3b565b949350505050565b60006020820190508181036000830152610f5081610d09565b9050919050565b60006020820190508181036000830152610f7081610d6f565b9050919050565b60006020820190508181036000830152610f9081610dd5565b9050919050565b6000602082019050610fac6000830184610e3b565b92915050565b6000604051905081810181811067ffffffffffffffff82111715610fd957610fd8611153565b5b8060405250919050565b600067ffffffffffffffff821115610ffe57610ffd611153565b5b601f19601f8301169050602081019050919050565b600081519050919050565b600082825260208201905092915050565b600081905092915050565b6000611045826110d8565b9150611050836110d8565b9250827fffffffffffffffffffffffffffffffffffffffffffffffffffffffffffffffff0382111561108557611084611124565b5b828201905092915050565b600061109b826110b8565b9050919050565b60008115159050919050565b6000819050919050565b600073ffffffffffffffffffffffffffffffffffffffff82169050919050565b6000819050919050565b82818337600083830152505050565b60005b8381101561110f5780820151818401526020810190506110f4565b8381111561111e576000848401525b50505050565b7f4e487b7100000000000000000000000000000000000000000000000000000000600052601160045260246000fd5b7f4e487b7100000000000000000000000000000000000000000000000000000000600052604160045260246000fd5b6000601f19601f8301169050919050565b61119c816110a2565b81146111a757600080fd5b50565b6111b3816110ae565b81146111be57600080fd5b50565b6111ca816110d8565b81146111d557600080fd5b5056fea26469706673582212205a339eb23ee992ab9701764028d6eb5bbb03d37883061b19da081fce97411e6f64736f6c63430008000033",
  "linkReferences": {},
  "deployedLinkReferences": {}
}