{
  "_format": "hh-sol-artifact-1",
  "contractName": "FixedRateExchange",
  "sourceName": "contracts/fixedRate/FixedRateExchange.sol",
  "abi": [
    {
      "anonymous": false,
      "inputs": [
        {
          "indexed": true,
          "internalType": "bytes32",
          "name": "exchangeId",
          "type": "bytes32"
        },
        {
          "indexed": true,
          "internalType": "address",
          "name": "exchangeOwner",
          "type": "address"
        }
      ],
      "name": "ExchangeActivated",
      "type": "event"
    },
    {
      "anonymous": false,
      "inputs": [
        {
          "indexed": true,
          "internalType": "bytes32",
          "name": "exchangeId",
          "type": "bytes32"
        },
        {
          "indexed": true,
          "internalType": "address",
          "name": "baseToken",
          "type": "address"
        },
        {
          "indexed": true,
          "internalType": "address",
          "name": "dataToken",
          "type": "address"
        },
        {
          "indexed": false,
          "internalType": "address",
          "name": "exchangeOwner",
          "type": "address"
        },
        {
          "indexed": false,
          "internalType": "uint256",
          "name": "fixedRate",
          "type": "uint256"
        }
      ],
      "name": "ExchangeCreated",
      "type": "event"
    },
    {
      "anonymous": false,
      "inputs": [
        {
          "indexed": true,
          "internalType": "bytes32",
          "name": "exchangeId",
          "type": "bytes32"
        },
        {
          "indexed": true,
          "internalType": "address",
          "name": "exchangeOwner",
          "type": "address"
        }
      ],
      "name": "ExchangeDeactivated",
      "type": "event"
    },
    {
      "anonymous": false,
      "inputs": [
        {
          "indexed": true,
          "internalType": "bytes32",
          "name": "exchangeId",
          "type": "bytes32"
        },
        {
          "indexed": true,
          "internalType": "address",
          "name": "exchangeOwner",
          "type": "address"
        },
        {
          "indexed": false,
          "internalType": "uint256",
          "name": "newRate",
          "type": "uint256"
        }
      ],
      "name": "ExchangeRateChanged",
      "type": "event"
    },
    {
      "anonymous": false,
      "inputs": [
        {
          "indexed": true,
          "internalType": "bytes32",
          "name": "exchangeId",
          "type": "bytes32"
        },
        {
          "indexed": true,
          "internalType": "address",
          "name": "by",
          "type": "address"
        },
        {
          "indexed": false,
          "internalType": "uint256",
          "name": "baseTokenSwappedAmount",
          "type": "uint256"
        },
        {
          "indexed": false,
          "internalType": "uint256",
          "name": "dataTokenSwappedAmount",
          "type": "uint256"
        }
      ],
      "name": "Swapped",
      "type": "event"
    },
    {
      "inputs": [
        {
          "internalType": "bytes32",
          "name": "exchangeId",
          "type": "bytes32"
        },
        {
          "internalType": "uint256",
          "name": "dataTokenAmount",
          "type": "uint256"
        }
      ],
      "name": "CalcInGivenOut",
      "outputs": [
        {
          "internalType": "uint256",
          "name": "baseTokenAmount",
          "type": "uint256"
        }
      ],
      "stateMutability": "view",
      "type": "function"
    },
    {
      "inputs": [
        {
          "internalType": "address",
          "name": "baseToken",
          "type": "address"
        },
        {
          "internalType": "address",
          "name": "dataToken",
          "type": "address"
        },
        {
          "internalType": "uint256",
          "name": "fixedRate",
          "type": "uint256"
        },
        {
          "internalType": "address",
          "name": "owner",
          "type": "address"
        }
      ],
      "name": "create",
      "outputs": [],
      "stateMutability": "nonpayable",
      "type": "function"
    },
    {
      "inputs": [
        {
          "internalType": "address",
          "name": "baseToken",
          "type": "address"
        },
        {
          "internalType": "address",
          "name": "dataToken",
          "type": "address"
        },
        {
          "internalType": "uint8",
          "name": "_btDecimals",
          "type": "uint8"
        },
        {
          "internalType": "uint8",
          "name": "_dtDecimals",
          "type": "uint8"
        },
        {
          "internalType": "uint256",
          "name": "fixedRate",
          "type": "uint256"
        },
        {
          "internalType": "address",
          "name": "owner",
          "type": "address"
        }
      ],
      "name": "createWithDecimals",
      "outputs": [],
      "stateMutability": "nonpayable",
      "type": "function"
    },
    {
      "inputs": [
        {
          "internalType": "address",
          "name": "baseToken",
          "type": "address"
        },
        {
          "internalType": "address",
          "name": "dataToken",
          "type": "address"
        },
        {
          "internalType": "address",
          "name": "exchangeOwner",
          "type": "address"
        }
      ],
      "name": "generateExchangeId",
      "outputs": [
        {
          "internalType": "bytes32",
          "name": "",
          "type": "bytes32"
        }
      ],
      "stateMutability": "pure",
      "type": "function"
    },
    {
      "inputs": [
        {
          "internalType": "bytes32",
          "name": "exchangeId",
          "type": "bytes32"
        }
      ],
      "name": "getExchange",
      "outputs": [
        {
          "internalType": "address",
          "name": "exchangeOwner",
          "type": "address"
        },
        {
          "internalType": "address",
          "name": "dataToken",
          "type": "address"
        },
        {
          "internalType": "uint8",
          "name": "dtDecimals",
          "type": "uint8"
        },
        {
          "internalType": "address",
          "name": "baseToken",
          "type": "address"
        },
        {
          "internalType": "uint8",
          "name": "btDecimals",
          "type": "uint8"
        },
        {
          "internalType": "uint256",
          "name": "fixedRate",
          "type": "uint256"
        },
        {
          "internalType": "bool",
          "name": "active",
          "type": "bool"
        },
        {
          "internalType": "uint256",
          "name": "supply",
          "type": "uint256"
        }
      ],
      "stateMutability": "view",
      "type": "function"
    },
    {
      "inputs": [],
      "name": "getExchanges",
      "outputs": [
        {
          "internalType": "bytes32[]",
          "name": "",
          "type": "bytes32[]"
        }
      ],
      "stateMutability": "view",
      "type": "function"
    },
    {
      "inputs": [],
      "name": "getNumberOfExchanges",
      "outputs": [
        {
          "internalType": "uint256",
          "name": "",
          "type": "uint256"
        }
      ],
      "stateMutability": "view",
      "type": "function"
    },
    {
      "inputs": [
        {
          "internalType": "bytes32",
          "name": "exchangeId",
          "type": "bytes32"
        }
      ],
      "name": "getRate",
      "outputs": [
        {
          "internalType": "uint256",
          "name": "",
          "type": "uint256"
        }
      ],
      "stateMutability": "view",
      "type": "function"
    },
    {
      "inputs": [
        {
          "internalType": "bytes32",
          "name": "exchangeId",
          "type": "bytes32"
        }
      ],
      "name": "getSupply",
      "outputs": [
        {
          "internalType": "uint256",
          "name": "supply",
          "type": "uint256"
        }
      ],
      "stateMutability": "view",
      "type": "function"
    },
    {
      "inputs": [
        {
          "internalType": "bytes32",
          "name": "exchangeId",
          "type": "bytes32"
        }
      ],
      "name": "isActive",
      "outputs": [
        {
          "internalType": "bool",
          "name": "",
          "type": "bool"
        }
      ],
      "stateMutability": "view",
      "type": "function"
    },
    {
      "inputs": [
        {
          "internalType": "bytes32",
          "name": "exchangeId",
          "type": "bytes32"
        },
        {
          "internalType": "uint256",
          "name": "newRate",
          "type": "uint256"
        }
      ],
      "name": "setRate",
      "outputs": [],
      "stateMutability": "nonpayable",
      "type": "function"
    },
    {
      "inputs": [
        {
          "internalType": "bytes32",
          "name": "exchangeId",
          "type": "bytes32"
        },
        {
          "internalType": "uint256",
          "name": "dataTokenAmount",
          "type": "uint256"
        }
      ],
      "name": "swap",
      "outputs": [],
      "stateMutability": "nonpayable",
      "type": "function"
    },
    {
      "inputs": [
        {
          "internalType": "bytes32",
          "name": "exchangeId",
          "type": "bytes32"
        }
      ],
      "name": "toggleExchangeState",
      "outputs": [],
      "stateMutability": "nonpayable",
      "type": "function"
    }
  ],
  "bytecode": "0x608060405234801561001057600080fd5b506116dc806100206000396000f3fe608060405234801561001057600080fd5b50600436106100cf5760003560e01c8063680819eb1161008c578063b424142911610066578063b4241429146101ba578063c0300231146101c2578063c1f6572e146101d5578063de060743146101e8576100cf565b8063680819eb1461018157806376dcdad914610194578063b32b56f9146101a7576100cf565b8063020d76bf146100d45780631e2e3a6b146100e957806324cb477e146101075780634c87087d1461011a57806354d9be59146101415780635c36901c14610161575b600080fd5b6100e76100e2366004610f57565b6101fb565b005b6100f1610467565b6040516100fe919061115c565b60405180910390f35b6100e761011536600461102f565b6104bf565b61012d61012836600461102f565b6105a0565b6040516100fe9897969594939291906110f5565b61015461014f36600461102f565b610641565b6040516100fe91906111ab565b61017461016f36600461102f565b6107b6565b6040516100fe91906111a0565b6100e761018f366004611047565b6107cb565b6100e76101a2366004610fa3565b61087a565b6101546101b536600461102f565b610b69565b610154610b7e565b6101546101d0366004611047565b610b84565b6101546101e3366004610f15565b610c61565b6100e76101f6366004611047565b610c98565b6001600160a01b03841661022a5760405162461bcd60e51b8152600401610221906113df565b60405180910390fd5b6001600160a01b0383166102505760405162461bcd60e51b815260040161022190611490565b826001600160a01b0316846001600160a01b031614156102825760405162461bcd60e51b815260040161022190611382565b8161029f5760405162461bcd60e51b8152600401610221906111b4565b60006102ac858584610c61565b600081815260208190526040902060030154909150156102de5760405162461bcd60e51b815260040161022190611290565b6040805160e08101825260018082526001600160a01b0385811660208085019182528983168587018181528c851660608801818152608089018d8152601260a08b0181815260c08c0191825260008e8152978890528c88209b518c54995160ff199a8b1691151591909117610100600160a81b031916610100918c168202178d5595518c8c0180546001600160a01b0319908116928d16929092179055935160028d0180549095169a16999099179092555160038a015595516004909801805496519690951660ff9889161761ff001916979095160295909517909155825480840184559290527fb10e2d527612073b26eecdfd717e6a320cf44b4afac2b0732d9fcbe2b7fa0cf6909101849055915190919083907feb7a353641f7d3cc54b497ef1553fdc292b64d9cc3be8587c23dfba01f310b19906104229087908990611143565b60405180910390a46040516001600160a01b0383169082907fc7344c45124818d1d3a4c24ccb9b86d8b88d3bd05209b2a42b494cb32a50352990600090a35050505050565b606060018054806020026020016040519081016040528092919081815260200182805480156104b557602002820191906000526020600020905b8154815260200190600101908083116104a1575b5050505050905090565b600081815260208190526040902054819061010090046001600160a01b031633146104fc5760405162461bcd60e51b8152600401610221906112db565b60008281526020819052604090205460ff161561055857600082815260208190526040808220805460ff1916905551339184917f03da9148e1de78fba22de63c573465562ebf6ef878a1d3ea83790a560229984c9190a361059c565b600082815260208190526040808220805460ff1916600117905551339184917fc7344c45124818d1d3a4c24ccb9b86d8b88d3bd05209b2a42b494cb32a5035299190a35b5050565b600081815260208181526040808320815160e081018352815460ff80821615158084526001600160a01b03610100938490048116978501889052600186015481169685018790526002860154166060850181905260038601546080860181905260049096015480841660a0870181905294900490921660c08501819052969795969295919492939091906106338a610641565b915050919395975091939597565b60008181526020819052604081205460ff1661065f575060006107b1565b6000828152602081905260408082206001810154905491516370a0823160e01b81526001600160a01b03918216926370a08231926106a7926101009092041690600401611080565b60206040518083038186803b1580156106bf57600080fd5b505afa1580156106d3573d6000803e3d6000fd5b505050506040513d601f19601f820116820180604052508101906106f79190611068565b600084815260208190526040808220600181015490549151636eb1769f60e11b815293945091926001600160a01b039283169263dd62ed3e9261074892610100909104909116903090600401611094565b60206040518083038186803b15801561076057600080fd5b505afa158015610774573d6000803e3d6000fd5b505050506040513d601f19601f820116820180604052508101906107989190611068565b9050808210156107aa578192506107ae565b8092505b50505b919050565b60009081526020819052604090205460ff1690565b600082815260208190526040902054829061010090046001600160a01b031633146108085760405162461bcd60e51b8152600401610221906112db565b816108255760405162461bcd60e51b81526004016102219061124d565b6000838152602081905260409081902060030183905551339084907fe50f9919fdc524004a4ee0cb934f4734f144bec0713a52e5483b753f5de0f08c9061086d9086906111ab565b60405180910390a3505050565b6001600160a01b0386166108a05760405162461bcd60e51b8152600401610221906113df565b6001600160a01b0385166108c65760405162461bcd60e51b815260040161022190611490565b846001600160a01b0316866001600160a01b031614156108f85760405162461bcd60e51b815260040161022190611382565b816109155760405162461bcd60e51b8152600401610221906111b4565b6000610922878784610c61565b600081815260208190526040902060030154909150156109545760405162461bcd60e51b815260040161022190611290565b6040518060e00160405280600115158152602001836001600160a01b03168152602001876001600160a01b03168152602001886001600160a01b031681526020018481526020018560ff1681526020018660ff1681525060008083815260200190815260200160002060008201518160000160006101000a81548160ff02191690831515021790555060208201518160000160016101000a8154816001600160a01b0302191690836001600160a01b0316021790555060408201518160010160006101000a8154816001600160a01b0302191690836001600160a01b0316021790555060608201518160020160006101000a8154816001600160a01b0302191690836001600160a01b031602179055506080820151816003015560a08201518160040160006101000a81548160ff021916908360ff16021790555060c08201518160040160016101000a81548160ff021916908360ff1602179055509050506001819080600181540180825580915050600190039060005260206000200160009091909190915055856001600160a01b0316876001600160a01b0316827feb7a353641f7d3cc54b497ef1553fdc292b64d9cc3be8587c23dfba01f310b198587604051610b22929190611143565b60405180910390a46040516001600160a01b0383169082907fc7344c45124818d1d3a4c24ccb9b86d8b88d3bd05209b2a42b494cb32a50352990600090a350505050505050565b60009081526020819052604090206003015490565b60015490565b600082815260208190526040812060030154839015801590610bb9575060008181526020819052604090205460ff1615156001145b610bd55760405162461bcd60e51b815260040161022190611202565b600084815260208190526040902060040154610c5990610bf99060ff16600a6115a0565b600086815260208190526040902060040154610c4d90610c2290610100900460ff16600a6115a0565b600088815260208190526040902060030154610c5390670de0b6b3a764000090610c4d908a90610ed5565b90610ee1565b90610ed5565b949350505050565b6000838383604051602001610c78939291906110ae565b6040516020818303038152906040528051906020012090505b9392505050565b600082815260208190526040902060030154829015801590610ccd575060008181526020819052604090205460ff1615156001145b610ce95760405162461bcd60e51b815260040161022190611202565b81610d065760405162461bcd60e51b8152600401610221906114e3565b6000610d128484610b84565b600085815260208190526040908190206002810154905491516323b872dd60e01b81529293506001600160a01b03908116926323b872dd92610d62923392610100909204169086906004016110d1565b602060405180830381600087803b158015610d7c57600080fd5b505af1158015610d90573d6000803e3d6000fd5b505050506040513d601f19601f82011682018060405250810190610db4919061100f565b610dd05760405162461bcd60e51b815260040161022190611324565b600084815260208190526040908190206001810154905491516323b872dd60e01b81526001600160a01b03918216926323b872dd92610e1d926101009092041690339088906004016110d1565b602060405180830381600087803b158015610e3757600080fd5b505af1158015610e4b573d6000803e3d6000fd5b505050506040513d601f19601f82011682018060405250810190610e6f919061100f565b610e8b5760405162461bcd60e51b815260040161022190611432565b336001600160a01b0316847f816ecef7c59c8574653ab4522960d26a6d2987e94d760cd775b6c9273ef81f238386604051610ec792919061152c565b60405180910390a350505050565b6000610c918284611671565b6000610c91828461153a565b80356001600160a01b03811681146107b157600080fd5b803560ff811681146107b157600080fd5b600080600060608486031215610f29578283fd5b610f3284610eed565b9250610f4060208501610eed565b9150610f4e60408501610eed565b90509250925092565b60008060008060808587031215610f6c578081fd5b610f7585610eed565b9350610f8360208601610eed565b925060408501359150610f9860608601610eed565b905092959194509250565b60008060008060008060c08789031215610fbb578182fd5b610fc487610eed565b9550610fd260208801610eed565b9450610fe060408801610f04565b9350610fee60608801610f04565b92506080870135915061100360a08801610eed565b90509295509295509295565b600060208284031215611020578081fd5b81518015158114610c91578182fd5b600060208284031215611040578081fd5b5035919050565b60008060408385031215611059578182fd5b50508035926020909101359150565b600060208284031215611079578081fd5b5051919050565b6001600160a01b0391909116815260200190565b6001600160a01b0392831681529116602082015260400190565b6001600160a01b0393841681529183166020830152909116604082015260600190565b6001600160a01b039384168152919092166020820152604081019190915260600190565b6001600160a01b039889168152968816602088015260ff95861660408801529390961660608601529216608084015260a083019190915291151560c082015260e08101919091526101000190565b6001600160a01b03929092168252602082015260400190565b6020808252825182820181905260009190848201906040850190845b8181101561119457835183529284019291840191600101611178565b50909695505050505050565b901515815260200190565b90815260200190565b6020808252602e908201527f46697865645261746545786368616e67653a20496e76616c696420657863686160408201526d6e676520726174652076616c756560901b606082015260800190565b6020808252602b908201527f46697865645261746545786368616e67653a2045786368616e676520646f657360408201526a206e6f742065786973742160a81b606082015260800190565b60208082526023908201527f46697865645261746545786368616e67653a20526174696f206d7573742062656040820152620203e360ec1b606082015260800190565b6020808252602b908201527f46697865645261746545786368616e67653a2045786368616e676520616c726560408201526a616479206578697374732160a81b606082015260800190565b60208082526029908201527f46697865645261746545786368616e67653a20696e76616c69642065786368616040820152683733b29037bbb732b960b91b606082015260800190565b602080825260409082018190527f46697865645261746545786368616e67653a207472616e7366657246726f6d20908201527f6661696c656420696e207468652062617365546f6b656e20636f6e7472616374606082015260800190565b60208082526037908201527f46697865645261746545786368616e67653a20496e76616c696420646174617460408201527f6f6b656e2c2020657175616c732062617365746f6b656e000000000000000000606082015260800190565b60208082526033908201527f46697865645261746545786368616e67653a20496e76616c69642062617365746040820152726f6b656e2c20207a65726f206164647265737360681b606082015260800190565b602080825260409082018190527f46697865645261746545786368616e67653a207472616e7366657246726f6d20908201527f6661696c656420696e207468652064617461546f6b656e20636f6e7472616374606082015260800190565b60208082526033908201527f46697865645261746545786368616e67653a20496e76616c69642064617461746040820152726f6b656e2c20207a65726f206164647265737360681b606082015260800190565b60208082526029908201527f46697865645261746545786368616e67653a207a65726f206461746120746f6b604082015268195b88185b5bdd5b9d60ba1b606082015260800190565b918252602082015260400190565b60008261155557634e487b7160e01b81526012600452602481fd5b500490565b80825b600180861161156c5750611597565b81870482111561157e5761157e611690565b8086161561158b57918102915b9490941c93800261155d565b94509492505050565b6000610c9160001960ff8516846000826115bc57506001610c91565b816115c957506000610c91565b81600181146115df57600281146115e957611616565b6001915050610c91565b60ff8411156115fa576115fa611690565b6001841b91508482111561161057611610611690565b50610c91565b5060208310610133831016604e8410600b8410161715611649575081810a8381111561164457611644611690565b610c91565b611656848484600161155a565b80860482111561166857611668611690565b02949350505050565b600081600019048311821515161561168b5761168b611690565b500290565b634e487b7160e01b600052601160045260246000fdfea2646970667358221220ea762d42556a06fb1cfafa65568644d02cf6772874ef83823ff13fb74f5ad86564736f6c63430008000033",
  "linkReferences": {},
  "deployedLinkReferences": {}
}