{
  "_format": "hh-sol-artifact-1",
  "contractName": "FixedRateExchange",
  "sourceName": "contracts/fixedRate/FixedRateExchange.sol",
  "abi": [
    {
      "anonymous": false,
      "inputs": [
        {
          "indexed": true,
          "internalType": "bytes32",
          "name": "exchangeId",
          "type": "bytes32"
        },
        {
          "indexed": true,
          "internalType": "address",
          "name": "exchangeOwner",
          "type": "address"
        }
      ],
      "name": "ExchangeActivated",
      "type": "event"
    },
    {
      "anonymous": false,
      "inputs": [
        {
          "indexed": true,
          "internalType": "bytes32",
          "name": "exchangeId",
          "type": "bytes32"
        },
        {
          "indexed": true,
          "internalType": "address",
          "name": "baseToken",
          "type": "address"
        },
        {
          "indexed": true,
          "internalType": "address",
          "name": "dataToken",
          "type": "address"
        },
        {
          "indexed": false,
          "internalType": "address",
          "name": "exchangeOwner",
          "type": "address"
        },
        {
          "indexed": false,
          "internalType": "uint256",
          "name": "fixedRate",
          "type": "uint256"
        }
      ],
      "name": "ExchangeCreated",
      "type": "event"
    },
    {
      "anonymous": false,
      "inputs": [
        {
          "indexed": true,
          "internalType": "bytes32",
          "name": "exchangeId",
          "type": "bytes32"
        },
        {
          "indexed": true,
          "internalType": "address",
          "name": "exchangeOwner",
          "type": "address"
        }
      ],
      "name": "ExchangeDeactivated",
      "type": "event"
    },
    {
      "anonymous": false,
      "inputs": [
        {
          "indexed": true,
          "internalType": "bytes32",
          "name": "exchangeId",
          "type": "bytes32"
        },
        {
          "indexed": true,
          "internalType": "address",
          "name": "exchangeOwner",
          "type": "address"
        },
        {
          "indexed": false,
          "internalType": "uint256",
          "name": "newRate",
          "type": "uint256"
        }
      ],
      "name": "ExchangeRateChanged",
      "type": "event"
    },
    {
      "anonymous": false,
      "inputs": [
        {
          "indexed": true,
          "internalType": "bytes32",
          "name": "exchangeId",
          "type": "bytes32"
        },
        {
          "indexed": true,
          "internalType": "address",
          "name": "by",
          "type": "address"
        },
        {
          "indexed": false,
          "internalType": "uint256",
          "name": "baseTokenSwappedAmount",
          "type": "uint256"
        },
        {
          "indexed": false,
          "internalType": "uint256",
          "name": "dataTokenSwappedAmount",
          "type": "uint256"
        }
      ],
      "name": "Swapped",
      "type": "event"
    },
    {
      "inputs": [
        {
          "internalType": "bytes32",
          "name": "exchangeId",
          "type": "bytes32"
        },
        {
          "internalType": "uint256",
          "name": "dataTokenAmount",
          "type": "uint256"
        }
      ],
      "name": "CalcInGivenOut",
      "outputs": [
        {
          "internalType": "uint256",
          "name": "baseTokenAmount",
          "type": "uint256"
        }
      ],
      "stateMutability": "view",
      "type": "function"
    },
    {
      "inputs": [
        {
          "internalType": "address",
          "name": "baseToken",
          "type": "address"
        },
        {
          "internalType": "address",
          "name": "dataToken",
          "type": "address"
        },
        {
          "internalType": "uint256",
          "name": "fixedRate",
          "type": "uint256"
        }
      ],
      "name": "create",
      "outputs": [],
      "stateMutability": "nonpayable",
      "type": "function"
    },
    {
      "inputs": [
        {
          "internalType": "address",
          "name": "baseToken",
          "type": "address"
        },
        {
          "internalType": "address",
          "name": "dataToken",
          "type": "address"
        },
        {
          "internalType": "address",
          "name": "exchangeOwner",
          "type": "address"
        }
      ],
      "name": "generateExchangeId",
      "outputs": [
        {
          "internalType": "bytes32",
          "name": "",
          "type": "bytes32"
        }
      ],
      "stateMutability": "pure",
      "type": "function"
    },
    {
      "inputs": [
        {
          "internalType": "bytes32",
          "name": "exchangeId",
          "type": "bytes32"
        }
      ],
      "name": "getExchange",
      "outputs": [
        {
          "internalType": "address",
          "name": "exchangeOwner",
          "type": "address"
        },
        {
          "internalType": "address",
          "name": "dataToken",
          "type": "address"
        },
        {
          "internalType": "address",
          "name": "baseToken",
          "type": "address"
        },
        {
          "internalType": "uint256",
          "name": "fixedRate",
          "type": "uint256"
        },
        {
          "internalType": "bool",
          "name": "active",
          "type": "bool"
        },
        {
          "internalType": "uint256",
          "name": "supply",
          "type": "uint256"
        }
      ],
      "stateMutability": "view",
      "type": "function"
    },
    {
      "inputs": [],
      "name": "getExchanges",
      "outputs": [
        {
          "internalType": "bytes32[]",
          "name": "",
          "type": "bytes32[]"
        }
      ],
      "stateMutability": "view",
      "type": "function"
    },
    {
      "inputs": [],
      "name": "getNumberOfExchanges",
      "outputs": [
        {
          "internalType": "uint256",
          "name": "",
          "type": "uint256"
        }
      ],
      "stateMutability": "view",
      "type": "function"
    },
    {
      "inputs": [
        {
          "internalType": "bytes32",
          "name": "exchangeId",
          "type": "bytes32"
        }
      ],
      "name": "getRate",
      "outputs": [
        {
          "internalType": "uint256",
          "name": "",
          "type": "uint256"
        }
      ],
      "stateMutability": "view",
      "type": "function"
    },
    {
      "inputs": [
        {
          "internalType": "bytes32",
          "name": "exchangeId",
          "type": "bytes32"
        }
      ],
      "name": "getSupply",
      "outputs": [
        {
          "internalType": "uint256",
          "name": "supply",
          "type": "uint256"
        }
      ],
      "stateMutability": "view",
      "type": "function"
    },
    {
      "inputs": [
        {
          "internalType": "bytes32",
          "name": "exchangeId",
          "type": "bytes32"
        }
      ],
      "name": "isActive",
      "outputs": [
        {
          "internalType": "bool",
          "name": "",
          "type": "bool"
        }
      ],
      "stateMutability": "view",
      "type": "function"
    },
    {
      "inputs": [
        {
          "internalType": "bytes32",
          "name": "exchangeId",
          "type": "bytes32"
        },
        {
          "internalType": "uint256",
          "name": "newRate",
          "type": "uint256"
        }
      ],
      "name": "setRate",
      "outputs": [],
      "stateMutability": "nonpayable",
      "type": "function"
    },
    {
      "inputs": [
        {
          "internalType": "bytes32",
          "name": "exchangeId",
          "type": "bytes32"
        },
        {
          "internalType": "uint256",
          "name": "dataTokenAmount",
          "type": "uint256"
        }
      ],
      "name": "swap",
      "outputs": [],
      "stateMutability": "nonpayable",
      "type": "function"
    },
    {
      "inputs": [
        {
          "internalType": "bytes32",
          "name": "exchangeId",
          "type": "bytes32"
        }
      ],
      "name": "toggleExchangeState",
      "outputs": [],
      "stateMutability": "nonpayable",
      "type": "function"
    }
  ],
  "bytecode": "0x608060405234801561001057600080fd5b50611511806100206000396000f3fe608060405234801561001057600080fd5b50600436106100b45760003560e01c8063b32b56f911610071578063b32b56f914610164578063b424142914610177578063c03002311461017f578063c1f6572e14610192578063de060743146101a5578063ffe5725f146101b8576100b4565b80631e2e3a6b146100b957806324cb477e146100d75780634c87087d146100ec57806354d9be59146101115780635c36901c14610131578063680819eb14610151575b600080fd5b6100c16101cb565b6040516100ce9190610f39565b60405180910390f35b6100ea6100e5366004610e00565b610223565b005b6100ff6100fa366004610e00565b61030d565b6040516100ce96959493929190610ec3565b61012461011f366004610e00565b61038a565b6040516100ce9190610f88565b61014461013f366004610e00565b6104ff565b6040516100ce9190610f7d565b6100ea61015f366004610e18565b610514565b610124610172366004610e00565b6105c3565b6101246105d8565b61012461018d366004610e18565b6105de565b6101246101a0366004610d63565b610837565b6100ea6101b3366004610e18565b61086e565b6100ea6101c6366004610da5565b610aab565b6060600180548060200260200160405190810160405280929190818152602001828054801561021957602002820191906000526020600020905b815481526020019060010190808311610205575b5050505050905090565b600081815260208190526040902054819061010090046001600160a01b031633146102695760405162461bcd60e51b8152600401610260906110b8565b60405180910390fd5b60008281526020819052604090205460ff16156102c557600082815260208190526040808220805460ff1916905551339184917f03da9148e1de78fba22de63c573465562ebf6ef878a1d3ea83790a560229984c9190a3610309565b600082815260208190526040808220805460ff1916600117905551339184917fc7344c45124818d1d3a4c24ccb9b86d8b88d3bd05209b2a42b494cb32a5035299190a35b5050565b600081815260208181526040808320815160a081018352815460ff811615158083526101009091046001600160a01b03908116958301869052600184015481169483018590526002840154166060830181905260039093015460808301819052949593949293909161037e8861038a565b91505091939550919395565b60008181526020819052604081205460ff166103a8575060006104fa565b6000828152602081905260408082206001810154905491516370a0823160e01b81526001600160a01b03918216926370a08231926103f0926101009092041690600401610e72565b60206040518083038186803b15801561040857600080fd5b505afa15801561041c573d6000803e3d6000fd5b505050506040513d601f19601f820116820180604052508101906104409190610e39565b600084815260208190526040808220600181015490549151636eb1769f60e11b815293945091926001600160a01b039283169263dd62ed3e9261049192610100909104909116903090600401610e86565b60206040518083038186803b1580156104a957600080fd5b505afa1580156104bd573d6000803e3d6000fd5b505050506040513d601f19601f820116820180604052508101906104e19190610e39565b9050808210156104f3578192506104f7565b8092505b50505b919050565b60009081526020819052604090205460ff1690565b600082815260208190526040902054829061010090046001600160a01b031633146105515760405162461bcd60e51b8152600401610260906110b8565b8161056e5760405162461bcd60e51b81526004016102609061102a565b6000838152602081905260409081902060030183905551339084907fe50f9919fdc524004a4ee0cb934f4734f144bec0713a52e5483b753f5de0f08c906105b6908690610f88565b60405180910390a3505050565b60009081526020819052604090206003015490565b60015490565b600082815260208190526040812060030154839015801590610613575060008181526020819052604090205460ff1615156001145b61062f5760405162461bcd60e51b815260040161026090610fdf565b60008481526020818152604080832060020154815163313ce56760e01b815291516001600160a01b039091169263313ce5679260048082019391829003018186803b15801561067d57600080fd5b505afa158015610691573d6000803e3d6000fd5b505050506040513d601f19601f820116820180604052508101906106b59190610e51565b60008681526020818152604080832060010154815163313ce56760e01b8152915160ff95909516955092936001600160a01b039093169263313ce56792600480840193919291829003018186803b15801561070f57600080fd5b505afa158015610723573d6000803e3d6000fd5b505050506040513d601f19601f820116820180604052508101906107479190610e51565b60ff169050610778826040518060400160405280600a8152602001696274446563696d616c7360b01b815250610cce565b6107a4816040518060400160405280600a8152602001696474446563696d616c7360b01b815250610cce565b6107f76107b282600a6113d8565b6107eb6107c085600a6113d8565b60008a8152602081905260409020600301546107f190670de0b6b3a7640000906107eb908c90610d13565b90610d1f565b90610d13565b935061082e846040518060400160405280601381526020017262617365416d6f756e7420736f6c696469747960681b815250610cce565b50505092915050565b600083838360405160200161084e93929190610ea0565b6040516020818303038152906040528051906020012090505b9392505050565b6000828152602081905260409020600301548290158015906108a3575060008181526020819052604090205460ff1615156001145b6108bf5760405162461bcd60e51b815260040161026090610fdf565b816108dc5760405162461bcd60e51b8152600401610260906112c0565b60006108e884846105de565b600085815260208190526040908190206002810154905491516323b872dd60e01b81529293506001600160a01b03908116926323b872dd9261093892339261010090920416908690600401610efc565b602060405180830381600087803b15801561095257600080fd5b505af1158015610966573d6000803e3d6000fd5b505050506040513d601f19601f8201168201806040525081019061098a9190610de0565b6109a65760405162461bcd60e51b815260040161026090611101565b600084815260208190526040908190206001810154905491516323b872dd60e01b81526001600160a01b03918216926323b872dd926109f392610100909204169033908890600401610efc565b602060405180830381600087803b158015610a0d57600080fd5b505af1158015610a21573d6000803e3d6000fd5b505050506040513d601f19601f82011682018060405250810190610a459190610de0565b610a615760405162461bcd60e51b81526004016102609061120f565b336001600160a01b0316847f816ecef7c59c8574653ab4522960d26a6d2987e94d760cd775b6c9273ef81f238386604051610a9d929190611364565b60405180910390a350505050565b6001600160a01b038316610ad15760405162461bcd60e51b8152600401610260906111bc565b6001600160a01b038216610af75760405162461bcd60e51b81526004016102609061126d565b816001600160a01b0316836001600160a01b03161415610b295760405162461bcd60e51b81526004016102609061115f565b80610b465760405162461bcd60e51b815260040161026090610f91565b6000610b53848433610837565b60008181526020819052604090206003015490915015610b855760405162461bcd60e51b81526004016102609061106d565b6040805160a08101825260018082523360208084018281526001600160a01b038981168688018181528c83166060890181815260808a018d815260008d8152978890528b88209a518b549751871661010002610100600160a81b031991151560ff199099169890981716969096178a55915189890180549186166001600160a01b0319928316179055915160028a01805491909516921691909117909255915160039096019590955583548085018555939091527fb10e2d527612073b26eecdfd717e6a320cf44b4afac2b0732d9fcbe2b7fa0cf69092018590559251909284917feb7a353641f7d3cc54b497ef1553fdc292b64d9cc3be8587c23dfba01f310b1991610c93918890610f20565b60405180910390a4604051339082907fc7344c45124818d1d3a4c24ccb9b86d8b88d3bd05209b2a42b494cb32a50352990600090a350505050565b6103098282604051602401610ce4929190611309565b60408051601f198184030181529190526020810180516001600160e01b0316630fa3f34560e01b179052610d2b565b600061086782846114a6565b60006108678284611372565b80516a636f6e736f6c652e6c6f67602083016000808483855afa5050505050565b80356001600160a01b03811681146104fa57600080fd5b600080600060608486031215610d77578283fd5b610d8084610d4c565b9250610d8e60208501610d4c565b9150610d9c60408501610d4c565b90509250925092565b600080600060608486031215610db9578283fd5b610dc284610d4c565b9250610dd060208501610d4c565b9150604084013590509250925092565b600060208284031215610df1578081fd5b81518015158114610867578182fd5b600060208284031215610e11578081fd5b5035919050565b60008060408385031215610e2a578182fd5b50508035926020909101359150565b600060208284031215610e4a578081fd5b5051919050565b600060208284031215610e62578081fd5b815160ff81168114610867578182fd5b6001600160a01b0391909116815260200190565b6001600160a01b0392831681529116602082015260400190565b6001600160a01b0393841681529183166020830152909116604082015260600190565b6001600160a01b03968716815294861660208601529290941660408401526060830152911515608082015260a081019190915260c00190565b6001600160a01b039384168152919092166020820152604081019190915260600190565b6001600160a01b03929092168252602082015260400190565b6020808252825182820181905260009190848201906040850190845b81811015610f7157835183529284019291840191600101610f55565b50909695505050505050565b901515815260200190565b90815260200190565b6020808252602e908201527f46697865645261746545786368616e67653a20496e76616c696420657863686160408201526d6e676520726174652076616c756560901b606082015260800190565b6020808252602b908201527f46697865645261746545786368616e67653a2045786368616e676520646f657360408201526a206e6f742065786973742160a81b606082015260800190565b60208082526023908201527f46697865645261746545786368616e67653a20526174696f206d7573742062656040820152620203e360ec1b606082015260800190565b6020808252602b908201527f46697865645261746545786368616e67653a2045786368616e676520616c726560408201526a616479206578697374732160a81b606082015260800190565b60208082526029908201527f46697865645261746545786368616e67653a20696e76616c69642065786368616040820152683733b29037bbb732b960b91b606082015260800190565b602080825260409082018190527f46697865645261746545786368616e67653a207472616e7366657246726f6d20908201527f6661696c656420696e207468652062617365546f6b656e20636f6e7472616374606082015260800190565b60208082526037908201527f46697865645261746545786368616e67653a20496e76616c696420646174617460408201527f6f6b656e2c2020657175616c732062617365746f6b656e000000000000000000606082015260800190565b60208082526033908201527f46697865645261746545786368616e67653a20496e76616c69642062617365746040820152726f6b656e2c20207a65726f206164647265737360681b606082015260800190565b602080825260409082018190527f46697865645261746545786368616e67653a207472616e7366657246726f6d20908201527f6661696c656420696e207468652064617461546f6b656e20636f6e7472616374606082015260800190565b60208082526033908201527f46697865645261746545786368616e67653a20496e76616c69642064617461746040820152726f6b656e2c20207a65726f206164647265737360681b606082015260800190565b60208082526029908201527f46697865645261746545786368616e67653a207a65726f206461746120746f6b604082015268195b88185b5bdd5b9d60ba1b606082015260800190565b600083825260206040818401528351806040850152825b8181101561133c57858101830151858201606001528201611320565b8181111561134d5783606083870101525b50601f01601f191692909201606001949350505050565b918252602082015260400190565b60008261138d57634e487b7160e01b81526012600452602481fd5b500490565b80825b60018086116113a457506113cf565b8187048211156113b6576113b66114c5565b808616156113c357918102915b9490941c938002611395565b94509492505050565b600061086760001984846000826113f157506001610867565b816113fe57506000610867565b8160018114611414576002811461141e5761144b565b6001915050610867565b60ff84111561142f5761142f6114c5565b6001841b915084821115611445576114456114c5565b50610867565b5060208310610133831016604e8410600b841016171561147e575081810a83811115611479576114796114c5565b610867565b61148b8484846001611392565b80860482111561149d5761149d6114c5565b02949350505050565b60008160001904831182151516156114c0576114c06114c5565b500290565b634e487b7160e01b600052601160045260246000fdfea2646970667358221220b47c285e66adf422595acf696736f66af223971b7d0da8110b735cb4bc15e4b564736f6c63430008000033",
  "linkReferences": {},
  "deployedLinkReferences": {}
}