{
  "_format": "hh-sol-artifact-1",
  "contractName": "FixedRateExchange",
  "sourceName": "contracts/fixedRate/FixedRateExchange.sol",
  "abi": [
    {
      "inputs": [
        {
          "internalType": "address",
          "name": "_router",
          "type": "address"
        },
        {
          "internalType": "address",
          "name": "_opfCollector",
          "type": "address"
        }
      ],
      "stateMutability": "nonpayable",
      "type": "constructor"
    },
    {
      "anonymous": false,
      "inputs": [
        {
          "indexed": true,
          "internalType": "bytes32",
          "name": "exchangeId",
          "type": "bytes32"
        },
        {
          "indexed": true,
          "internalType": "address",
          "name": "exchangeOwner",
          "type": "address"
        }
      ],
      "name": "ExchangeActivated",
      "type": "event"
    },
    {
      "anonymous": false,
      "inputs": [
        {
          "indexed": true,
          "internalType": "bytes32",
          "name": "exchangeId",
          "type": "bytes32"
        },
        {
          "indexed": true,
          "internalType": "address",
          "name": "baseToken",
          "type": "address"
        },
        {
          "indexed": true,
          "internalType": "address",
          "name": "dataToken",
          "type": "address"
        },
        {
          "indexed": false,
          "internalType": "address",
          "name": "exchangeOwner",
          "type": "address"
        },
        {
          "indexed": false,
          "internalType": "uint256",
          "name": "fixedRate",
          "type": "uint256"
        }
      ],
      "name": "ExchangeCreated",
      "type": "event"
    },
    {
      "anonymous": false,
      "inputs": [
        {
          "indexed": true,
          "internalType": "bytes32",
          "name": "exchangeId",
          "type": "bytes32"
        },
        {
          "indexed": true,
          "internalType": "address",
          "name": "exchangeOwner",
          "type": "address"
        }
      ],
      "name": "ExchangeDeactivated",
      "type": "event"
    },
    {
      "anonymous": false,
      "inputs": [
        {
          "indexed": true,
          "internalType": "bytes32",
          "name": "exchangeId",
          "type": "bytes32"
        },
        {
          "indexed": true,
          "internalType": "address",
          "name": "exchangeOwner",
          "type": "address"
        },
        {
          "indexed": false,
          "internalType": "uint256",
          "name": "newRate",
          "type": "uint256"
        }
      ],
      "name": "ExchangeRateChanged",
      "type": "event"
    },
    {
      "anonymous": false,
      "inputs": [
        {
          "indexed": true,
          "internalType": "bytes32",
          "name": "exchangeId",
          "type": "bytes32"
        },
        {
          "indexed": true,
          "internalType": "address",
          "name": "feeToken",
          "type": "address"
        },
        {
          "indexed": false,
          "internalType": "uint256",
          "name": "feeAmount",
          "type": "uint256"
        }
      ],
      "name": "MarketFeeCollected",
      "type": "event"
    },
    {
      "anonymous": false,
      "inputs": [
        {
          "indexed": true,
          "internalType": "bytes32",
          "name": "exchangeId",
          "type": "bytes32"
        },
        {
          "indexed": true,
          "internalType": "address",
          "name": "feeToken",
          "type": "address"
        },
        {
          "indexed": false,
          "internalType": "uint256",
          "name": "feeAmount",
          "type": "uint256"
        }
      ],
      "name": "OceanFeeCollected",
      "type": "event"
    },
    {
      "anonymous": false,
      "inputs": [
        {
          "indexed": true,
          "internalType": "bytes32",
          "name": "exchangeId",
          "type": "bytes32"
        },
        {
          "indexed": true,
          "internalType": "address",
          "name": "by",
          "type": "address"
        },
        {
          "indexed": false,
          "internalType": "uint256",
          "name": "baseTokenSwappedAmount",
          "type": "uint256"
        },
        {
          "indexed": false,
          "internalType": "uint256",
          "name": "dataTokenSwappedAmount",
          "type": "uint256"
        },
        {
          "indexed": false,
          "internalType": "address",
          "name": "tokenOutAddress",
          "type": "address"
        },
        {
          "indexed": false,
          "internalType": "uint256",
          "name": "marketFeeAmount",
          "type": "uint256"
        },
        {
          "indexed": false,
          "internalType": "uint256",
          "name": "oceanFeeAmount",
          "type": "uint256"
        }
      ],
      "name": "Swapped",
      "type": "event"
    },
    {
      "anonymous": false,
      "inputs": [
        {
          "indexed": true,
          "internalType": "bytes32",
          "name": "exchangeId",
          "type": "bytes32"
        },
        {
          "indexed": true,
          "internalType": "address",
          "name": "to",
          "type": "address"
        },
        {
          "indexed": true,
          "internalType": "address",
          "name": "token",
          "type": "address"
        },
        {
          "indexed": false,
          "internalType": "uint256",
          "name": "amount",
          "type": "uint256"
        }
      ],
      "name": "TokenCollected",
      "type": "event"
    },
    {
      "inputs": [
        {
          "internalType": "bytes32",
          "name": "exchangeId",
          "type": "bytes32"
        },
        {
          "internalType": "uint256",
          "name": "dataTokenAmount",
          "type": "uint256"
        }
      ],
      "name": "buyDT",
      "outputs": [],
      "stateMutability": "nonpayable",
      "type": "function"
    },
    {
      "inputs": [
        {
          "internalType": "bytes32",
          "name": "exchangeId",
          "type": "bytes32"
        },
        {
          "internalType": "uint256",
          "name": "dataTokenAmount",
          "type": "uint256"
        }
      ],
      "name": "calcBaseInGivenOutDT",
      "outputs": [
        {
          "internalType": "uint256",
          "name": "baseTokenAmount",
          "type": "uint256"
        },
        {
          "internalType": "uint256",
          "name": "baseTokenAmountBeforeFee",
          "type": "uint256"
        },
        {
          "internalType": "uint256",
          "name": "oceanFeeAmount",
          "type": "uint256"
        },
        {
          "internalType": "uint256",
          "name": "marketFeeAmount",
          "type": "uint256"
        }
      ],
      "stateMutability": "view",
      "type": "function"
    },
    {
      "inputs": [
        {
          "internalType": "bytes32",
          "name": "exchangeId",
          "type": "bytes32"
        },
        {
          "internalType": "uint256",
          "name": "dataTokenAmount",
          "type": "uint256"
        }
      ],
      "name": "calcBaseOutGivenInDT",
      "outputs": [
        {
          "internalType": "uint256",
          "name": "baseTokenAmount",
          "type": "uint256"
        },
        {
          "internalType": "uint256",
          "name": "baseTokenAmountBeforeFee",
          "type": "uint256"
        },
        {
          "internalType": "uint256",
          "name": "oceanFeeAmount",
          "type": "uint256"
        },
        {
          "internalType": "uint256",
          "name": "marketFeeAmount",
          "type": "uint256"
        }
      ],
      "stateMutability": "view",
      "type": "function"
    },
    {
      "inputs": [
        {
          "internalType": "bytes32",
          "name": "exchangeId",
          "type": "bytes32"
        }
      ],
      "name": "collectBT",
      "outputs": [],
      "stateMutability": "nonpayable",
      "type": "function"
    },
    {
      "inputs": [
        {
          "internalType": "bytes32",
          "name": "exchangeId",
          "type": "bytes32"
        }
      ],
      "name": "collectDT",
      "outputs": [],
      "stateMutability": "nonpayable",
      "type": "function"
    },
    {
      "inputs": [
        {
          "internalType": "bytes32",
          "name": "exchangeId",
          "type": "bytes32"
        }
      ],
      "name": "collectMarketFee",
      "outputs": [],
      "stateMutability": "nonpayable",
      "type": "function"
    },
    {
      "inputs": [
        {
          "internalType": "bytes32",
          "name": "exchangeId",
          "type": "bytes32"
        }
      ],
      "name": "collectOceanFee",
      "outputs": [],
      "stateMutability": "nonpayable",
      "type": "function"
    },
    {
      "inputs": [
        {
          "internalType": "address",
          "name": "baseToken",
          "type": "address"
        },
        {
          "internalType": "address",
          "name": "dataToken",
          "type": "address"
        },
        {
          "internalType": "uint256",
          "name": "fixedRate",
          "type": "uint256"
        },
        {
          "internalType": "address",
          "name": "owner",
          "type": "address"
        },
        {
          "internalType": "uint256",
          "name": "marketFee",
          "type": "uint256"
        },
        {
          "internalType": "address",
          "name": "marketFeeCollector",
          "type": "address"
        },
        {
          "internalType": "uint256",
          "name": "opfFee",
          "type": "uint256"
        }
      ],
      "name": "create",
      "outputs": [
        {
          "internalType": "bytes32",
          "name": "exchangeId",
          "type": "bytes32"
        }
      ],
      "stateMutability": "nonpayable",
      "type": "function"
    },
    {
      "inputs": [
        {
          "internalType": "address",
          "name": "baseToken",
          "type": "address"
        },
        {
          "internalType": "address",
          "name": "dataToken",
          "type": "address"
        },
        {
          "internalType": "uint8",
          "name": "_btDecimals",
          "type": "uint8"
        },
        {
          "internalType": "uint8",
          "name": "_dtDecimals",
          "type": "uint8"
        },
        {
          "internalType": "uint256",
          "name": "fixedRate",
          "type": "uint256"
        },
        {
          "internalType": "address",
          "name": "owner",
          "type": "address"
        },
        {
          "internalType": "uint256",
          "name": "marketFee",
          "type": "uint256"
        },
        {
          "internalType": "address",
          "name": "marketFeeCollector",
          "type": "address"
        },
        {
          "internalType": "uint256",
          "name": "opfFee",
          "type": "uint256"
        }
      ],
      "name": "createWithDecimals",
      "outputs": [
        {
          "internalType": "bytes32",
          "name": "exchangeId",
          "type": "bytes32"
        }
      ],
      "stateMutability": "nonpayable",
      "type": "function"
    },
    {
      "inputs": [
        {
          "internalType": "address",
          "name": "baseToken",
          "type": "address"
        },
        {
          "internalType": "address",
          "name": "dataToken",
          "type": "address"
        },
        {
          "internalType": "address",
          "name": "exchangeOwner",
          "type": "address"
        }
      ],
      "name": "generateExchangeId",
      "outputs": [
        {
          "internalType": "bytes32",
          "name": "",
          "type": "bytes32"
        }
      ],
      "stateMutability": "pure",
      "type": "function"
    },
    {
      "inputs": [
        {
          "internalType": "bytes32",
          "name": "exchangeId",
          "type": "bytes32"
        }
      ],
      "name": "getBTSupply",
      "outputs": [
        {
          "internalType": "uint256",
          "name": "supply",
          "type": "uint256"
        }
      ],
      "stateMutability": "view",
      "type": "function"
    },
    {
      "inputs": [
        {
          "internalType": "bytes32",
          "name": "exchangeId",
          "type": "bytes32"
        }
      ],
      "name": "getDTSupply",
      "outputs": [
        {
          "internalType": "uint256",
          "name": "supply",
          "type": "uint256"
        }
      ],
      "stateMutability": "view",
      "type": "function"
    },
    {
      "inputs": [
        {
          "internalType": "bytes32",
          "name": "exchangeId",
          "type": "bytes32"
        }
      ],
      "name": "getExchange",
      "outputs": [
        {
          "internalType": "address",
          "name": "exchangeOwner",
          "type": "address"
        },
        {
          "internalType": "address",
          "name": "dataToken",
          "type": "address"
        },
        {
          "internalType": "uint8",
          "name": "dtDecimals",
          "type": "uint8"
        },
        {
          "internalType": "address",
          "name": "baseToken",
          "type": "address"
        },
        {
          "internalType": "uint8",
          "name": "btDecimals",
          "type": "uint8"
        },
        {
          "internalType": "uint256",
          "name": "fixedRate",
          "type": "uint256"
        },
        {
          "internalType": "bool",
          "name": "active",
          "type": "bool"
        },
        {
          "internalType": "uint256",
          "name": "dtSupply",
          "type": "uint256"
        },
        {
          "internalType": "uint256",
          "name": "btSupply",
          "type": "uint256"
        },
        {
          "internalType": "uint256",
          "name": "dtBalance",
          "type": "uint256"
        },
        {
          "internalType": "uint256",
          "name": "btBalance",
          "type": "uint256"
        }
      ],
      "stateMutability": "view",
      "type": "function"
    },
    {
      "inputs": [],
      "name": "getExchanges",
      "outputs": [
        {
          "internalType": "bytes32[]",
          "name": "",
          "type": "bytes32[]"
        }
      ],
      "stateMutability": "view",
      "type": "function"
    },
    {
      "inputs": [
        {
          "internalType": "bytes32",
          "name": "exchangeId",
          "type": "bytes32"
        }
      ],
      "name": "getFeesInfo",
      "outputs": [
        {
          "internalType": "uint256",
          "name": "marketFee",
          "type": "uint256"
        },
        {
          "internalType": "address",
          "name": "marketFeeCollector",
          "type": "address"
        },
        {
          "internalType": "uint256",
          "name": "opfFee",
          "type": "uint256"
        },
        {
          "internalType": "uint256",
          "name": "marketFeeAvailable",
          "type": "uint256"
        },
        {
          "internalType": "uint256",
          "name": "oceanFeeAvailable",
          "type": "uint256"
        }
      ],
      "stateMutability": "view",
      "type": "function"
    },
    {
      "inputs": [],
      "name": "getNumberOfExchanges",
      "outputs": [
        {
          "internalType": "uint256",
          "name": "",
          "type": "uint256"
        }
      ],
      "stateMutability": "view",
      "type": "function"
    },
    {
      "inputs": [
        {
          "internalType": "bytes32",
          "name": "exchangeId",
          "type": "bytes32"
        }
      ],
      "name": "getRate",
      "outputs": [
        {
          "internalType": "uint256",
          "name": "",
          "type": "uint256"
        }
      ],
      "stateMutability": "view",
      "type": "function"
    },
    {
      "inputs": [
        {
          "internalType": "bytes32",
          "name": "exchangeId",
          "type": "bytes32"
        }
      ],
      "name": "isActive",
      "outputs": [
        {
          "internalType": "bool",
          "name": "",
          "type": "bool"
        }
      ],
      "stateMutability": "view",
      "type": "function"
    },
    {
      "inputs": [],
      "name": "opfCollector",
      "outputs": [
        {
          "internalType": "address",
          "name": "",
          "type": "address"
        }
      ],
      "stateMutability": "view",
      "type": "function"
    },
    {
      "inputs": [],
      "name": "router",
      "outputs": [
        {
          "internalType": "address",
          "name": "",
          "type": "address"
        }
      ],
      "stateMutability": "view",
      "type": "function"
    },
    {
      "inputs": [
        {
          "internalType": "bytes32",
          "name": "exchangeId",
          "type": "bytes32"
        },
        {
          "internalType": "uint256",
          "name": "dataTokenAmount",
          "type": "uint256"
        }
      ],
      "name": "sellDT",
      "outputs": [],
      "stateMutability": "nonpayable",
      "type": "function"
    },
    {
      "inputs": [
        {
          "internalType": "bytes32",
          "name": "exchangeId",
          "type": "bytes32"
        },
        {
          "internalType": "uint256",
          "name": "newRate",
          "type": "uint256"
        }
      ],
      "name": "setRate",
      "outputs": [],
      "stateMutability": "nonpayable",
      "type": "function"
    },
    {
      "inputs": [
        {
          "internalType": "bytes32",
          "name": "exchangeId",
          "type": "bytes32"
        }
      ],
      "name": "toggleExchangeState",
      "outputs": [],
      "stateMutability": "nonpayable",
      "type": "function"
    },
    {
      "inputs": [
        {
          "internalType": "bytes32",
          "name": "exchangeId",
          "type": "bytes32"
        },
        {
          "internalType": "address",
          "name": "_newMarketCollector",
          "type": "address"
        }
      ],
      "name": "updateMarketFeeCollector",
      "outputs": [],
      "stateMutability": "nonpayable",
      "type": "function"
    }
  ],
  "bytecode": "0x60806040523480156200001157600080fd5b5060405162002e8e38038062002e8e8339810160408190526200003491620000de565b6001600160a01b038216620000665760405162461bcd60e51b81526004016200005d9062000115565b60405180910390fd5b6001600160a01b0381166200008f5760405162461bcd60e51b81526004016200005d9062000115565b600080546001600160a01b039384166001600160a01b031991821617909155600180549290931691161790556200014c565b80516001600160a01b0381168114620000d957600080fd5b919050565b60008060408385031215620000f1578182fd5b620000fc83620000c1565b91506200010c60208401620000c1565b90509250929050565b60208082526014908201527f57726f6e6720526f757465722061646472657373000000000000000000000000604082015260600190565b612d32806200015c6000396000f3fe608060405234801561001057600080fd5b50600436106101585760003560e01c80637c82ebe9116100c3578063b686bcaf1161007c578063b686bcaf14610309578063c1f6572e1461031c578063c66274ea1461032f578063c99733a714610342578063f532129e14610355578063f887ea401461036857610158565b80637c82ebe9146102a057806385fcbc2f146102b3578063989301ce146102c6578063a28f78f1146102d9578063b32b56f9146102ee578063b42414291461030157610158565b8063450dccc311610115578063450dccc3146101fa5780634c87087d1461020d5780635acfedc7146102375780635c36901c1461024a578063680819eb1461026a57806371dc14b21461027d57610158565b80630b3b430d1461015d5780631e2e3a6b1461018a57806324cb477e1461019f5780632929d00f146101b45780633721a0bb146101c757806341c2c925146101e7575b600080fd5b61017061016b3660046124fa565b610370565b604051610181959493929190612a93565b60405180910390f35b61019261044f565b604051610181919061266e565b6101b26101ad3660046124fa565b6104a7565b005b6101b26101c236600461253d565b610591565b6101da6101d53660046123d8565b61093a565b60405161018191906126bd565b6101b26101f536600461253d565b610cfe565b6101b26102083660046124fa565b611095565b61022061021b3660046124fa565b6111e2565b6040516101819b9a999897969594939291906125eb565b6101b26102453660046124fa565b6112fd565b61025d6102583660046124fa565b6113fd565b60405161018191906126b2565b6101b261027836600461253d565b611415565b61029061028b36600461253d565b6114c4565b6040516101819493929190612b46565b6101b26102ae366004612512565b611702565b6101da6102c13660046124fa565b61176c565b6101da6102d4366004612448565b61191a565b6102e1611cde565b6040516101819190612576565b6101da6102fc3660046124fa565b611ced565b6101da611d02565b6101b26103173660046124fa565b611d08565b6101da61032a366004612396565b611dff565b6101da61033d3660046124fa565b611e36565b61029061035036600461253d565b611fd1565b6101b26103633660046124fa565b61218a565b6102e16122ce565b60009081526002602081815260409283902083516101c081018552815460ff808216151583526001600160a01b03610100928390048116958401959095526001840154851696830196909652938201548316606082015260038201546080820152600482015480861660a083015284900490941660c0850152600581015460e0850152600681015492840192909252600782015461012084018190526008830154909116610140840181905260098301546101608501819052600a8401546101808601819052600b909401546101a09095018590529194909391929190565b6060600380548060200260200160405190810160405280929190818152602001828054801561049d57602002820191906000526020600020905b815481526020019060010190808311610489575b5050505050905090565b600081815260026020526040902054819061010090046001600160a01b031633146104ed5760405162461bcd60e51b81526004016104e4906127ed565b60405180910390fd5b60008281526002602052604090205460ff161561054957600082815260026020526040808220805460ff1916905551339184917f03da9148e1de78fba22de63c573465562ebf6ef878a1d3ea83790a560229984c9190a361058d565b600082815260026020526040808220805460ff1916600117905551339184917fc7344c45124818d1d3a4c24ccb9b86d8b88d3bd05209b2a42b494cb32a5035299190a35b5050565b6000828152600260205260409020600301548290158015906105c6575060008181526002602052604090205460ff1615156001145b6105e25760405162461bcd60e51b81526004016104e490612714565b816105ff5760405162461bcd60e51b81526004016104e490612a1a565b60008060008061060f87876114c4565b60008b8152600260205260409020600b01549397509195509350915061063590836122dd565b6000888152600260205260409020600b810191909155600a015461065990826122dd565b60008881526002602052604090819020600a81019290925560019091015490516323b872dd60e01b81526001600160a01b03909116906323b872dd906106a790339030908b906004016125c7565b602060405180830381600087803b1580156106c157600080fd5b505af11580156106d5573d6000803e3d6000fd5b505050506040513d601f19601f820116820180604052508101906106f991906124da565b6107155760405162461bcd60e51b81526004016104e490612969565b60008781526002602052604090206005015461073190876122dd565b60008881526002602052604090206005810191909155600601548411156108135760008781526002602081905260409182902090810154905491516323b872dd60e01b81526001600160a01b03918216926323b872dd926107a0926101009092041690339089906004016125c7565b602060405180830381600087803b1580156107ba57600080fd5b505af11580156107ce573d6000803e3d6000fd5b505050506040513d601f19601f820116820180604052508101906107f291906124da565b61080e5760405162461bcd60e51b81526004016104e490612836565b6108d0565b60008781526002602052604090206006015461082f90846122e9565b60008881526002602081905260409182902060068101939093559190910154905163a9059cbb60e01b81526001600160a01b039091169063a9059cbb9061087c9033908890600401612655565b602060405180830381600087803b15801561089657600080fd5b505af11580156108aa573d6000803e3d6000fd5b505050506040513d601f19601f820116820180604052508101906108ce91906124da565b505b60008781526002602081905260409182902001549051339189917f71999bcde73cf4958b3a13dcbc60ff31366318eb6e67b45c93725aa07f89cbd2916109299189918c916001600160a01b039091169088908a90612b1a565b60405180910390a350505050505050565b600080546001600160a01b031633146109655760405162461bcd60e51b81526004016104e490612944565b6001600160a01b03881661098b5760405162461bcd60e51b81526004016104e4906128f1565b6001600160a01b0387166109b15760405162461bcd60e51b81526004016104e4906129c7565b866001600160a01b0316886001600160a01b031614156109e35760405162461bcd60e51b81526004016104e490612894565b85610a005760405162461bcd60e51b81526004016104e4906126c6565b610a0b888887611dff565b60008181526002602052604090206003015490915015610a3d5760405162461bcd60e51b81526004016104e4906127a2565b604051806101c00160405280600115158152602001866001600160a01b03168152602001886001600160a01b03168152602001896001600160a01b03168152602001878152602001601260ff168152602001601260ff1681526020016000815260200160008152602001858152602001846001600160a01b031681526020018381526020016000815260200160008152506002600083815260200190815260200160002060008201518160000160006101000a81548160ff02191690831515021790555060208201518160000160016101000a8154816001600160a01b0302191690836001600160a01b0316021790555060408201518160010160006101000a8154816001600160a01b0302191690836001600160a01b0316021790555060608201518160020160006101000a8154816001600160a01b0302191690836001600160a01b031602179055506080820151816003015560a08201518160040160006101000a81548160ff021916908360ff16021790555060c08201518160040160016101000a81548160ff021916908360ff16021790555060e08201518160050155610100820151816006015561012082015181600701556101408201518160080160006101000a8154816001600160a01b0302191690836001600160a01b03160217905550610160820151816009015561018082015181600a01556101a082015181600b01559050506003819080600181540180825580915050600190039060005260206000200160009091909190915055866001600160a01b0316886001600160a01b0316827feb7a353641f7d3cc54b497ef1553fdc292b64d9cc3be8587c23dfba01f310b19888a604051610cb5929190612655565b60405180910390a46040516001600160a01b0386169082907fc7344c45124818d1d3a4c24ccb9b86d8b88d3bd05209b2a42b494cb32a50352990600090a3979650505050505050565b600082815260026020526040902060030154829015801590610d33575060008181526002602052604090205460ff1615156001145b610d4f5760405162461bcd60e51b81526004016104e490612714565b81610d6c5760405162461bcd60e51b81526004016104e490612a1a565b600080600080610d7c8787611fd1565b60008b8152600260205260409020600b015493975091955093509150610da290836122dd565b6000888152600260205260409020600b810191909155600a0154610dc690826122dd565b600088815260026020819052604091829020600a810193909355919091015490516323b872dd60e01b81526001600160a01b03909116906323b872dd90610e15903390309089906004016125c7565b602060405180830381600087803b158015610e2f57600080fd5b505af1158015610e43573d6000803e3d6000fd5b505050506040513d601f19601f82011682018060405250810190610e6791906124da565b610e835760405162461bcd60e51b81526004016104e490612836565b600087815260026020526040902060060154610e9f90846122dd565b6000888152600260205260409020600681019190915560050154861115610f8057600087815260026020526040908190206001810154905491516323b872dd60e01b81526001600160a01b03918216926323b872dd92610f0d92610100909204169033908b906004016125c7565b602060405180830381600087803b158015610f2757600080fd5b505af1158015610f3b573d6000803e3d6000fd5b505050506040513d601f19601f82011682018060405250810190610f5f91906124da565b610f7b5760405162461bcd60e51b81526004016104e490612969565b61103c565b600087815260026020526040902060050154610f9c90876122e9565b600088815260026020526040908190206005810192909255600190910154905163a9059cbb60e01b81526001600160a01b039091169063a9059cbb90610fe89033908a90600401612655565b602060405180830381600087803b15801561100257600080fd5b505af1158015611016573d6000803e3d6000fd5b505050506040513d601f19601f8201168201806040525081019061103a91906124da565b505b60008781526002602052604090819020600101549051339189917f71999bcde73cf4958b3a13dcbc60ff31366318eb6e67b45c93725aa07f89cbd2916109299189918c916001600160a01b039091169088908a90612b1a565b600081815260026020526040902054819061010090046001600160a01b031633146110d25760405162461bcd60e51b81526004016104e4906127ed565b60008281526002602052604080822060058101805493905560018101549054915163a9059cbb60e01b81526001600160a01b039182169263a9059cbb926111259261010090920416908590600401612655565b602060405180830381600087803b15801561113f57600080fd5b505af1158015611153573d6000803e3d6000fd5b505050506040513d601f19601f8201168201806040525081019061117791906124da565b50600083815260026020526040908190206001810154905491516001600160a01b039182169261010090049091169085907fecc75f4464886bee0a1c5eae61c0cb4b99c64c5e9cdebe3696217d266f8b1636906111d59086906126bd565b60405180910390a4505050565b600081815260026020818152604080842081516101c081018352815460ff80821615158084526001600160a01b036101009384900481169785018890526001860154811696850187905297850154881660608501819052600386015460808601819052600487015480851660a088018190529086900490941660c08701819052600588015460e0880152600688015495870195909552600787015461012087015260088701549099166101408601526009860154610160860152600a860154610180860152600b909501546101a08501529597949690959394919390929091908190819081906112d18d611e36565b94506112dc8d61176c565b93508060e00151925080610100015191505091939597999b90929496989a50565b6000818152600260208190526040808320600b8101805494905590910154600154915163a9059cbb60e01b81526001600160a01b039182169263a9059cbb9261134d929116908590600401612655565b602060405180830381600087803b15801561136757600080fd5b505af115801561137b573d6000803e3d6000fd5b505050506040513d601f19601f8201168201806040525081019061139f91906124da565b50600082815260026020819052604091829020015490516001600160a01b039091169083907f457b44fd47c33fc65bfbd58d0202ad97fbed1bbc9881f56441d05fe9ebd58acf906113f19085906126bd565b60405180910390a35050565b60008181526002602052604090205460ff165b919050565b600082815260026020526040902054829061010090046001600160a01b031633146114525760405162461bcd60e51b81526004016104e4906127ed565b8161146f5760405162461bcd60e51b81526004016104e49061275f565b6000838152600260205260409081902060030183905551339084907fe50f9919fdc524004a4ee0cb934f4734f144bec0713a52e5483b753f5de0f08c906114b79086906126bd565b60405180910390a3505050565b6000828152600260205260408120600301548190819081908690158015906114ff575060008181526002602052604090205460ff1615156001145b61151b5760405162461bcd60e51b81526004016104e490612714565b60008781526002602052604090206004015461159c9061153f9060ff16600a612bdf565b6000898152600260205260409020600401546115909061156890610100900460ff16600a612bdf565b60008b815260026020526040902060030154611596906115908c670de0b6b3a76400006122f5565b90612301565b906122f5565b600088815260026020526040902060090154909450156115e4576000878152600260205260409020600901546115e190670de0b6b3a7640000906115909087906122f5565b92505b611614836040518060400160405280600e81526020016d1bd8d9585b999959585b5bdd5b9d60921b81525061230d565b60008781526002602052604090206007015461163f90670de0b6b3a7640000906115909087906122f5565b9150611672826040518060400160405280600f81526020016e1b585c9ad95d119959505b5bdd5b9d608a1b81525061230d565b6116868361168086856122e9565b906122e9565b94506116b9856040518060400160405280600f81526020016e18985cd95d1bdad95b985b5bdd5b9d608a1b81525061230d565b6116f8846040518060400160405280601a81526020017f62617365746f6b656e616d6f756e74206265666f72652066656500000000000081525061230d565b5092959194509250565b6000828152600260205260409020600801546001600160a01b0316331461173b5760405162461bcd60e51b81526004016104e490612a63565b60009182526002602052604090912060080180546001600160a01b0319166001600160a01b03909216919091179055565b60008181526002602052604081205460ff1661178a57506000611410565b600082815260026020819052604080832091820154915490516370a0823160e01b81526001600160a01b03928316926370a08231926117d59261010090910490911690600401612576565b60206040518083038186803b1580156117ed57600080fd5b505afa158015611801573d6000803e3d6000fd5b505050506040513d601f19601f82011682018060405250810190611825919061255e565b60008481526002602081905260408083209182015491549051636eb1769f60e11b815293945091926001600160a01b039182169263dd62ed3e92611875926101009092041690309060040161258a565b60206040518083038186803b15801561188d57600080fd5b505afa1580156118a1573d6000803e3d6000fd5b505050506040513d601f19601f820116820180604052508101906118c5919061255e565b9050808210156118f3576000848152600260205260409020600601546118ec9083906122dd565b9250611913565b6000848152600260205260409020600601546119109082906122dd565b92505b5050919050565b600080546001600160a01b031633146119455760405162461bcd60e51b81526004016104e490612944565b6001600160a01b038a1661196b5760405162461bcd60e51b81526004016104e4906128f1565b6001600160a01b0389166119915760405162461bcd60e51b81526004016104e4906129c7565b886001600160a01b03168a6001600160a01b031614156119c35760405162461bcd60e51b81526004016104e490612894565b856119e05760405162461bcd60e51b81526004016104e4906126c6565b6119eb8a8a87611dff565b60008181526002602052604090206003015490915015611a1d5760405162461bcd60e51b81526004016104e4906127a2565b604051806101c00160405280600115158152602001866001600160a01b031681526020018a6001600160a01b031681526020018b6001600160a01b031681526020018781526020018860ff1681526020018960ff1681526020016000815260200160008152602001858152602001846001600160a01b031681526020018381526020016000815260200160008152506002600083815260200190815260200160002060008201518160000160006101000a81548160ff02191690831515021790555060208201518160000160016101000a8154816001600160a01b0302191690836001600160a01b0316021790555060408201518160010160006101000a8154816001600160a01b0302191690836001600160a01b0316021790555060608201518160020160006101000a8154816001600160a01b0302191690836001600160a01b031602179055506080820151816003015560a08201518160040160006101000a81548160ff021916908360ff16021790555060c08201518160040160016101000a81548160ff021916908360ff16021790555060e08201518160050155610100820151816006015561012082015181600701556101408201518160080160006101000a8154816001600160a01b0302191690836001600160a01b03160217905550610160820151816009015561018082015181600a01556101a082015181600b01559050506003819080600181540180825580915050600190039060005260206000200160009091909190915055886001600160a01b03168a6001600160a01b0316827feb7a353641f7d3cc54b497ef1553fdc292b64d9cc3be8587c23dfba01f310b19888a604051611c93929190612655565b60405180910390a46040516001600160a01b0386169082907fc7344c45124818d1d3a4c24ccb9b86d8b88d3bd05209b2a42b494cb32a50352990600090a39998505050505050505050565b6001546001600160a01b031681565b60009081526002602052604090206003015490565b60035490565b6000818152600260208190526040808320600a8101805494905591820154600890920154905163a9059cbb60e01b81526001600160a01b039283169263a9059cbb92611d5b929116908590600401612655565b602060405180830381600087803b158015611d7557600080fd5b505af1158015611d89573d6000803e3d6000fd5b505050506040513d601f19601f82011682018060405250810190611dad91906124da565b50600082815260026020819052604091829020015490516001600160a01b039091169083907f192a3cd95e40313e0e12c28b398e31633936e38d134419161f883c8d64079055906113f19085906126bd565b6000838383604051602001611e16939291906125a4565b6040516020818303038152906040528051906020012090505b9392505050565b60008181526002602052604081205460ff16611e5457506000611410565b6000828152600260205260408082206001810154905491516370a0823160e01b81526001600160a01b03918216926370a0823192611e9c926101009092041690600401612576565b60206040518083038186803b158015611eb457600080fd5b505afa158015611ec8573d6000803e3d6000fd5b505050506040513d601f19601f82011682018060405250810190611eec919061255e565b600084815260026020526040808220600181015490549151636eb1769f60e11b815293945091926001600160a01b039283169263dd62ed3e92611f3d9261010090910490911690309060040161258a565b60206040518083038186803b158015611f5557600080fd5b505afa158015611f69573d6000803e3d6000fd5b505050506040513d601f19601f82011682018060405250810190611f8d919061255e565b905080821015611fb4576000848152600260205260409020600501546118ec9083906122dd565b6000848152600260205260409020600501546119109082906122dd565b60008281526002602052604081206003015481908190819086901580159061200c575060008181526002602052604090205460ff1615156001145b6120285760405162461bcd60e51b81526004016104e490612714565b6000878152600260205260409020600401546120a09061204c9060ff16600a612bdf565b6000898152600260205260409020600401546115909061207590610100900460ff16600a612bdf565b60008b81526002602052604090206003015461159690670de0b6b3a764000090611590908d906122f5565b600088815260026020526040902060090154909450156120e8576000878152600260205260409020600901546120e590670de0b6b3a7640000906115909087906122f5565b92505b612118836040518060400160405280600e81526020016d1bd8d9585b919959505b5bdd5b9d60921b81525061230d565b60008781526002602052604090206007015461214390670de0b6b3a7640000906115909087906122f5565b9150612176826040518060400160405280600f81526020016e1b585c9ad95d119959505b5bdd5b9d608a1b81525061230d565b6116868361218486856122dd565b906122dd565b600081815260026020526040902054819061010090046001600160a01b031633146121c75760405162461bcd60e51b81526004016104e4906127ed565b6000828152600260208190526040808320600681018054949055918201549154905163a9059cbb60e01b81526001600160a01b039283169263a9059cbb9261221d92610100909104909116908590600401612655565b602060405180830381600087803b15801561223757600080fd5b505af115801561224b573d6000803e3d6000fd5b505050506040513d601f19601f8201168201806040525081019061226f91906124da565b5060008381526002602081905260409182902090810154905491516001600160a01b039182169261010090049091169085907fecc75f4464886bee0a1c5eae61c0cb4b99c64c5e9cdebe3696217d266f8b1636906111d59086906126bd565b6000546001600160a01b031681565b6000611e2f8284612b61565b6000611e2f8284612ccf565b6000611e2f8284612cb0565b6000611e2f8284612b79565b61058d8282604051602401612323929190612abf565b60408051601f198184030181529190526020810180516001600160e01b0316630fa3f34560e01b17905280516a636f6e736f6c652e6c6f67602083016000808483855afa5050505050565b80356001600160a01b038116811461141057600080fd5b803560ff8116811461141057600080fd5b6000806000606084860312156123aa578283fd5b6123b38461236e565b92506123c16020850161236e565b91506123cf6040850161236e565b90509250925092565b600080600080600080600060e0888a0312156123f2578283fd5b6123fb8861236e565b96506124096020890161236e565b95506040880135945061241e6060890161236e565b93506080880135925061243360a0890161236e565b915060c0880135905092959891949750929550565b60008060008060008060008060006101208a8c031215612466578182fd5b61246f8a61236e565b985061247d60208b0161236e565b975061248b60408b01612385565b965061249960608b01612385565b955060808a013594506124ae60a08b0161236e565b935060c08a013592506124c360e08b0161236e565b91506101008a013590509295985092959850929598565b6000602082840312156124eb578081fd5b81518015158114611e2f578182fd5b60006020828403121561250b578081fd5b5035919050565b60008060408385031215612524578182fd5b823591506125346020840161236e565b90509250929050565b6000806040838503121561254f578182fd5b50508035926020909101359150565b60006020828403121561256f578081fd5b5051919050565b6001600160a01b0391909116815260200190565b6001600160a01b0392831681529116602082015260400190565b6001600160a01b0393841681529183166020830152909116604082015260600190565b6001600160a01b039384168152919092166020820152604081019190915260600190565b6001600160a01b039b8c168152998b1660208b015260ff98891660408b015296909916606089015293909516608087015260a0860191909152151560c085015260e08401929092526101008301919091526101208201929092526101408101919091526101600190565b6001600160a01b03929092168252602082015260400190565b6020808252825182820181905260009190848201906040850190845b818110156126a65783518352928401929184019160010161268a565b50909695505050505050565b901515815260200190565b90815260200190565b6020808252602e908201527f46697865645261746545786368616e67653a20496e76616c696420657863686160408201526d6e676520726174652076616c756560901b606082015260800190565b6020808252602b908201527f46697865645261746545786368616e67653a2045786368616e676520646f657360408201526a206e6f742065786973742160a81b606082015260800190565b60208082526023908201527f46697865645261746545786368616e67653a20526174696f206d7573742062656040820152620203e360ec1b606082015260800190565b6020808252602b908201527f46697865645261746545786368616e67653a2045786368616e676520616c726560408201526a616479206578697374732160a81b606082015260800190565b60208082526029908201527f46697865645261746545786368616e67653a20696e76616c69642065786368616040820152683733b29037bbb732b960b91b606082015260800190565b602080825260409082018190527f46697865645261746545786368616e67653a207472616e7366657246726f6d20908201527f6661696c656420696e207468652062617365546f6b656e20636f6e7472616374606082015260800190565b60208082526037908201527f46697865645261746545786368616e67653a20496e76616c696420646174617460408201527f6f6b656e2c2020657175616c732062617365746f6b656e000000000000000000606082015260800190565b60208082526033908201527f46697865645261746545786368616e67653a20496e76616c69642062617365746040820152726f6b656e2c20207a65726f206164647265737360681b606082015260800190565b6020808252600b908201526a37b7363c903937baba32b960a91b604082015260600190565b602080825260409082018190527f46697865645261746545786368616e67653a207472616e7366657246726f6d20908201527f6661696c656420696e207468652064617461546f6b656e20636f6e7472616374606082015260800190565b60208082526033908201527f46697865645261746545786368616e67653a20496e76616c69642064617461746040820152726f6b656e2c20207a65726f206164647265737360681b606082015260800190565b60208082526029908201527f46697865645261746545786368616e67653a207a65726f206461746120746f6b604082015268195b88185b5bdd5b9d60ba1b606082015260800190565b6020808252601690820152753737ba1036b0b935b2ba2332b2a1b7b63632b1ba37b960511b604082015260600190565b9485526001600160a01b0393909316602085015260408401919091526060830152608082015260a00190565b600083825260206040818401528351806040850152825b81811015612af257858101830151858201606001528201612ad6565b81811115612b035783606083870101525b50601f01601f191692909201606001949350505050565b94855260208501939093526001600160a01b039190911660408401526060830152608082015260a00190565b93845260208401929092526040830152606082015260800190565b60008219821115612b7457612b74612ce6565b500190565b600082612b9457634e487b7160e01b81526012600452602481fd5b500490565b80825b6001808611612bab5750612bd6565b818704821115612bbd57612bbd612ce6565b80861615612bca57918102915b9490941c938002612b9c565b94509492505050565b6000611e2f60001960ff851684600082612bfb57506001611e2f565b81612c0857506000611e2f565b8160018114612c1e5760028114612c2857612c55565b6001915050611e2f565b60ff841115612c3957612c39612ce6565b6001841b915084821115612c4f57612c4f612ce6565b50611e2f565b5060208310610133831016604e8410600b8410161715612c88575081810a83811115612c8357612c83612ce6565b611e2f565b612c958484846001612b99565b808604821115612ca757612ca7612ce6565b02949350505050565b6000816000190483118215151615612cca57612cca612ce6565b500290565b600082821015612ce157612ce1612ce6565b500390565b634e487b7160e01b600052601160045260246000fdfea2646970667358221220a70811243bdc07c8c2b11f01280341237d2b0c35ebac13fff6f9b1a0e8454cbf64736f6c63430008000033",
  "linkReferences": {},
  "deployedLinkReferences": {}
}