{
  "_format": "hh-sol-artifact-1",
  "contractName": "FixedRateExchange",
  "sourceName": "contracts/fixedRate/FixedRateExchange.sol",
  "abi": [
    {
      "anonymous": false,
      "inputs": [
        {
          "indexed": true,
          "internalType": "bytes32",
          "name": "exchangeId",
          "type": "bytes32"
        },
        {
          "indexed": true,
          "internalType": "address",
          "name": "exchangeOwner",
          "type": "address"
        }
      ],
      "name": "ExchangeActivated",
      "type": "event"
    },
    {
      "anonymous": false,
      "inputs": [
        {
          "indexed": true,
          "internalType": "bytes32",
          "name": "exchangeId",
          "type": "bytes32"
        },
        {
          "indexed": true,
          "internalType": "address",
          "name": "baseToken",
          "type": "address"
        },
        {
          "indexed": true,
          "internalType": "address",
          "name": "dataToken",
          "type": "address"
        },
        {
          "indexed": false,
          "internalType": "address",
          "name": "exchangeOwner",
          "type": "address"
        },
        {
          "indexed": false,
          "internalType": "uint256",
          "name": "fixedRate",
          "type": "uint256"
        }
      ],
      "name": "ExchangeCreated",
      "type": "event"
    },
    {
      "anonymous": false,
      "inputs": [
        {
          "indexed": true,
          "internalType": "bytes32",
          "name": "exchangeId",
          "type": "bytes32"
        },
        {
          "indexed": true,
          "internalType": "address",
          "name": "exchangeOwner",
          "type": "address"
        }
      ],
      "name": "ExchangeDeactivated",
      "type": "event"
    },
    {
      "anonymous": false,
      "inputs": [
        {
          "indexed": true,
          "internalType": "bytes32",
          "name": "exchangeId",
          "type": "bytes32"
        },
        {
          "indexed": true,
          "internalType": "address",
          "name": "exchangeOwner",
          "type": "address"
        },
        {
          "indexed": false,
          "internalType": "uint256",
          "name": "newRate",
          "type": "uint256"
        }
      ],
      "name": "ExchangeRateChanged",
      "type": "event"
    },
    {
      "anonymous": false,
      "inputs": [
        {
          "indexed": true,
          "internalType": "bytes32",
          "name": "exchangeId",
          "type": "bytes32"
        },
        {
          "indexed": true,
          "internalType": "address",
          "name": "by",
          "type": "address"
        },
        {
          "indexed": false,
          "internalType": "uint256",
          "name": "baseTokenSwappedAmount",
          "type": "uint256"
        },
        {
          "indexed": false,
          "internalType": "uint256",
          "name": "dataTokenSwappedAmount",
          "type": "uint256"
        }
      ],
      "name": "Swapped",
      "type": "event"
    },
    {
      "inputs": [
        {
          "internalType": "bytes32",
          "name": "exchangeId",
          "type": "bytes32"
        },
        {
          "internalType": "uint256",
          "name": "dataTokenAmount",
          "type": "uint256"
        }
      ],
      "name": "CalcInGivenOut",
      "outputs": [
        {
          "internalType": "uint256",
          "name": "baseTokenAmount",
          "type": "uint256"
        }
      ],
      "stateMutability": "view",
      "type": "function"
    },
    {
      "inputs": [
        {
          "internalType": "address",
          "name": "baseToken",
          "type": "address"
        },
        {
          "internalType": "address",
          "name": "dataToken",
          "type": "address"
        },
        {
          "internalType": "uint256",
          "name": "fixedRate",
          "type": "uint256"
        }
      ],
      "name": "create",
      "outputs": [],
      "stateMutability": "nonpayable",
      "type": "function"
    },
    {
      "inputs": [
        {
          "internalType": "address",
          "name": "baseToken",
          "type": "address"
        },
        {
          "internalType": "address",
          "name": "dataToken",
          "type": "address"
        },
        {
          "internalType": "uint8",
          "name": "_btDecimals",
          "type": "uint8"
        },
        {
          "internalType": "uint8",
          "name": "_dtDecimals",
          "type": "uint8"
        },
        {
          "internalType": "uint256",
          "name": "fixedRate",
          "type": "uint256"
        }
      ],
      "name": "createWithDecimals",
      "outputs": [],
      "stateMutability": "nonpayable",
      "type": "function"
    },
    {
      "inputs": [
        {
          "internalType": "address",
          "name": "baseToken",
          "type": "address"
        },
        {
          "internalType": "address",
          "name": "dataToken",
          "type": "address"
        },
        {
          "internalType": "address",
          "name": "exchangeOwner",
          "type": "address"
        }
      ],
      "name": "generateExchangeId",
      "outputs": [
        {
          "internalType": "bytes32",
          "name": "",
          "type": "bytes32"
        }
      ],
      "stateMutability": "pure",
      "type": "function"
    },
    {
      "inputs": [
        {
          "internalType": "bytes32",
          "name": "exchangeId",
          "type": "bytes32"
        }
      ],
      "name": "getExchange",
      "outputs": [
        {
          "internalType": "address",
          "name": "exchangeOwner",
          "type": "address"
        },
        {
          "internalType": "address",
          "name": "dataToken",
          "type": "address"
        },
        {
          "internalType": "uint8",
          "name": "dtDecimals",
          "type": "uint8"
        },
        {
          "internalType": "address",
          "name": "baseToken",
          "type": "address"
        },
        {
          "internalType": "uint8",
          "name": "btDecimals",
          "type": "uint8"
        },
        {
          "internalType": "uint256",
          "name": "fixedRate",
          "type": "uint256"
        },
        {
          "internalType": "bool",
          "name": "active",
          "type": "bool"
        },
        {
          "internalType": "uint256",
          "name": "supply",
          "type": "uint256"
        }
      ],
      "stateMutability": "view",
      "type": "function"
    },
    {
      "inputs": [],
      "name": "getExchanges",
      "outputs": [
        {
          "internalType": "bytes32[]",
          "name": "",
          "type": "bytes32[]"
        }
      ],
      "stateMutability": "view",
      "type": "function"
    },
    {
      "inputs": [],
      "name": "getNumberOfExchanges",
      "outputs": [
        {
          "internalType": "uint256",
          "name": "",
          "type": "uint256"
        }
      ],
      "stateMutability": "view",
      "type": "function"
    },
    {
      "inputs": [
        {
          "internalType": "bytes32",
          "name": "exchangeId",
          "type": "bytes32"
        }
      ],
      "name": "getRate",
      "outputs": [
        {
          "internalType": "uint256",
          "name": "",
          "type": "uint256"
        }
      ],
      "stateMutability": "view",
      "type": "function"
    },
    {
      "inputs": [
        {
          "internalType": "bytes32",
          "name": "exchangeId",
          "type": "bytes32"
        }
      ],
      "name": "getSupply",
      "outputs": [
        {
          "internalType": "uint256",
          "name": "supply",
          "type": "uint256"
        }
      ],
      "stateMutability": "view",
      "type": "function"
    },
    {
      "inputs": [
        {
          "internalType": "bytes32",
          "name": "exchangeId",
          "type": "bytes32"
        }
      ],
      "name": "isActive",
      "outputs": [
        {
          "internalType": "bool",
          "name": "",
          "type": "bool"
        }
      ],
      "stateMutability": "view",
      "type": "function"
    },
    {
      "inputs": [
        {
          "internalType": "bytes32",
          "name": "exchangeId",
          "type": "bytes32"
        },
        {
          "internalType": "uint256",
          "name": "newRate",
          "type": "uint256"
        }
      ],
      "name": "setRate",
      "outputs": [],
      "stateMutability": "nonpayable",
      "type": "function"
    },
    {
      "inputs": [
        {
          "internalType": "bytes32",
          "name": "exchangeId",
          "type": "bytes32"
        },
        {
          "internalType": "uint256",
          "name": "dataTokenAmount",
          "type": "uint256"
        }
      ],
      "name": "swap",
      "outputs": [],
      "stateMutability": "nonpayable",
      "type": "function"
    },
    {
      "inputs": [
        {
          "internalType": "bytes32",
          "name": "exchangeId",
          "type": "bytes32"
        }
      ],
      "name": "toggleExchangeState",
      "outputs": [],
      "stateMutability": "nonpayable",
      "type": "function"
    }
  ],
  "bytecode": "0x608060405234801561001057600080fd5b506116a5806100206000396000f3fe608060405234801561001057600080fd5b50600436106100cf5760003560e01c8063680819eb1161008c578063c030023111610066578063c0300231146101af578063c1f6572e146101c2578063de060743146101d5578063ffe5725f146101e8576100cf565b8063680819eb14610181578063b32b56f914610194578063b4241429146101a7576100cf565b80630711f8f3146100d45780631e2e3a6b146100e957806324cb477e146101075780634c87087d1461011a57806354d9be59146101415780635c36901c14610161575b600080fd5b6100e76100e2366004610f7d565b6101fb565b005b6100f16104e9565b6040516100fe9190611125565b60405180910390f35b6100e7610115366004610ff8565b610541565b61012d610128366004610ff8565b610622565b6040516100fe9897969594939291906110be565b61015461014f366004610ff8565b6106c3565b6040516100fe9190611174565b61017461016f366004610ff8565b610838565b6040516100fe9190611169565b6100e761018f366004611010565b61084d565b6101546101a2366004610ff8565b6108fc565b610154610911565b6101546101bd366004611010565b610917565b6101546101d0366004610f00565b6109f4565b6100e76101e3366004611010565b610a2b565b6100e76101f6366004610f42565b610c68565b6001600160a01b03851661022a5760405162461bcd60e51b8152600401610221906113a8565b60405180910390fd5b6001600160a01b0384166102505760405162461bcd60e51b815260040161022190611459565b836001600160a01b0316856001600160a01b031614156102825760405162461bcd60e51b81526004016102219061134b565b8061029f5760405162461bcd60e51b81526004016102219061117d565b60006102ac8686336109f4565b600081815260208190526040902060030154909150156102de5760405162461bcd60e51b815260040161022190611259565b6040518060e00160405280600115158152602001336001600160a01b03168152602001866001600160a01b03168152602001876001600160a01b031681526020018381526020018460ff1681526020018560ff1681525060008083815260200190815260200160002060008201518160000160006101000a81548160ff02191690831515021790555060208201518160000160016101000a8154816001600160a01b0302191690836001600160a01b0316021790555060408201518160010160006101000a8154816001600160a01b0302191690836001600160a01b0316021790555060608201518160020160006101000a8154816001600160a01b0302191690836001600160a01b031602179055506080820151816003015560a08201518160040160006101000a81548160ff021916908360ff16021790555060c08201518160040160016101000a81548160ff021916908360ff1602179055509050506001819080600181540180825580915050600190039060005260206000200160009091909190915055846001600160a01b0316866001600160a01b0316827feb7a353641f7d3cc54b497ef1553fdc292b64d9cc3be8587c23dfba01f310b1933866040516104ac92919061110c565b60405180910390a4604051339082907fc7344c45124818d1d3a4c24ccb9b86d8b88d3bd05209b2a42b494cb32a50352990600090a3505050505050565b6060600180548060200260200160405190810160405280929190818152602001828054801561053757602002820191906000526020600020905b815481526020019060010190808311610523575b5050505050905090565b600081815260208190526040902054819061010090046001600160a01b0316331461057e5760405162461bcd60e51b8152600401610221906112a4565b60008281526020819052604090205460ff16156105da57600082815260208190526040808220805460ff1916905551339184917f03da9148e1de78fba22de63c573465562ebf6ef878a1d3ea83790a560229984c9190a361061e565b600082815260208190526040808220805460ff1916600117905551339184917fc7344c45124818d1d3a4c24ccb9b86d8b88d3bd05209b2a42b494cb32a5035299190a35b5050565b600081815260208181526040808320815160e081018352815460ff80821615158084526001600160a01b03610100938490048116978501889052600186015481169685018790526002860154166060850181905260038601546080860181905260049096015480841660a0870181905294900490921660c08501819052969795969295919492939091906106b58a6106c3565b915050919395975091939597565b60008181526020819052604081205460ff166106e157506000610833565b6000828152602081905260408082206001810154905491516370a0823160e01b81526001600160a01b03918216926370a0823192610729926101009092041690600401611049565b60206040518083038186803b15801561074157600080fd5b505afa158015610755573d6000803e3d6000fd5b505050506040513d601f19601f820116820180604052508101906107799190611031565b600084815260208190526040808220600181015490549151636eb1769f60e11b815293945091926001600160a01b039283169263dd62ed3e926107ca9261010090910490911690309060040161105d565b60206040518083038186803b1580156107e257600080fd5b505afa1580156107f6573d6000803e3d6000fd5b505050506040513d601f19601f8201168201806040525081019061081a9190611031565b90508082101561082c57819250610830565b8092505b50505b919050565b60009081526020819052604090205460ff1690565b600082815260208190526040902054829061010090046001600160a01b0316331461088a5760405162461bcd60e51b8152600401610221906112a4565b816108a75760405162461bcd60e51b815260040161022190611216565b6000838152602081905260409081902060030183905551339084907fe50f9919fdc524004a4ee0cb934f4734f144bec0713a52e5483b753f5de0f08c906108ef908690611174565b60405180910390a3505050565b60009081526020819052604090206003015490565b60015490565b60008281526020819052604081206003015483901580159061094c575060008181526020819052604090205460ff1615156001145b6109685760405162461bcd60e51b8152600401610221906111cb565b6000848152602081905260409020600401546109ec9061098c9060ff16600a611569565b6000868152602081905260409020600401546109e0906109b590610100900460ff16600a611569565b6000888152602081905260409020600301546109e690670de0b6b3a7640000906109e0908a90610ec0565b90610ecc565b90610ec0565b949350505050565b6000838383604051602001610a0b93929190611077565b6040516020818303038152906040528051906020012090505b9392505050565b600082815260208190526040902060030154829015801590610a60575060008181526020819052604090205460ff1615156001145b610a7c5760405162461bcd60e51b8152600401610221906111cb565b81610a995760405162461bcd60e51b8152600401610221906114ac565b6000610aa58484610917565b600085815260208190526040908190206002810154905491516323b872dd60e01b81529293506001600160a01b03908116926323b872dd92610af59233926101009092041690869060040161109a565b602060405180830381600087803b158015610b0f57600080fd5b505af1158015610b23573d6000803e3d6000fd5b505050506040513d601f19601f82011682018060405250810190610b479190610fd8565b610b635760405162461bcd60e51b8152600401610221906112ed565b600084815260208190526040908190206001810154905491516323b872dd60e01b81526001600160a01b03918216926323b872dd92610bb09261010090920416903390889060040161109a565b602060405180830381600087803b158015610bca57600080fd5b505af1158015610bde573d6000803e3d6000fd5b505050506040513d601f19601f82011682018060405250810190610c029190610fd8565b610c1e5760405162461bcd60e51b8152600401610221906113fb565b336001600160a01b0316847f816ecef7c59c8574653ab4522960d26a6d2987e94d760cd775b6c9273ef81f238386604051610c5a9291906114f5565b60405180910390a350505050565b6001600160a01b038316610c8e5760405162461bcd60e51b8152600401610221906113a8565b6001600160a01b038216610cb45760405162461bcd60e51b815260040161022190611459565b816001600160a01b0316836001600160a01b03161415610ce65760405162461bcd60e51b81526004016102219061134b565b80610d035760405162461bcd60e51b81526004016102219061117d565b6000610d108484336109f4565b60008181526020819052604090206003015490915015610d425760405162461bcd60e51b815260040161022190611259565b6040805160e08101825260018082523360208084018281526001600160a01b038981168688018181528c83166060890181815260808a018d8152601260a08c0181815260c08d0191825260008f8152998a90528d8a209c518d54995160ff199a8b1691151591909117610100600160a81b031916610100918a168202178e5595518d8d0180546001600160a01b0319908116928b16929092179055935160028e0180549095169816979097179092555160038b015593516004909901805494519490951660ff998a161761ff00191698909316029690961790915583548085018555939091527fb10e2d527612073b26eecdfd717e6a320cf44b4afac2b0732d9fcbe2b7fa0cf690920185905592519192909184917feb7a353641f7d3cc54b497ef1553fdc292b64d9cc3be8587c23dfba01f310b1991610e859190889061110c565b60405180910390a4604051339082907fc7344c45124818d1d3a4c24ccb9b86d8b88d3bd05209b2a42b494cb32a50352990600090a350505050565b6000610a24828461163a565b6000610a248284611503565b80356001600160a01b038116811461083357600080fd5b803560ff8116811461083357600080fd5b600080600060608486031215610f14578283fd5b610f1d84610ed8565b9250610f2b60208501610ed8565b9150610f3960408501610ed8565b90509250925092565b600080600060608486031215610f56578283fd5b610f5f84610ed8565b9250610f6d60208501610ed8565b9150604084013590509250925092565b600080600080600060a08688031215610f94578081fd5b610f9d86610ed8565b9450610fab60208701610ed8565b9350610fb960408701610eef565b9250610fc760608701610eef565b949793965091946080013592915050565b600060208284031215610fe9578081fd5b81518015158114610a24578182fd5b600060208284031215611009578081fd5b5035919050565b60008060408385031215611022578182fd5b50508035926020909101359150565b600060208284031215611042578081fd5b5051919050565b6001600160a01b0391909116815260200190565b6001600160a01b0392831681529116602082015260400190565b6001600160a01b0393841681529183166020830152909116604082015260600190565b6001600160a01b039384168152919092166020820152604081019190915260600190565b6001600160a01b039889168152968816602088015260ff95861660408801529390961660608601529216608084015260a083019190915291151560c082015260e08101919091526101000190565b6001600160a01b03929092168252602082015260400190565b6020808252825182820181905260009190848201906040850190845b8181101561115d57835183529284019291840191600101611141565b50909695505050505050565b901515815260200190565b90815260200190565b6020808252602e908201527f46697865645261746545786368616e67653a20496e76616c696420657863686160408201526d6e676520726174652076616c756560901b606082015260800190565b6020808252602b908201527f46697865645261746545786368616e67653a2045786368616e676520646f657360408201526a206e6f742065786973742160a81b606082015260800190565b60208082526023908201527f46697865645261746545786368616e67653a20526174696f206d7573742062656040820152620203e360ec1b606082015260800190565b6020808252602b908201527f46697865645261746545786368616e67653a2045786368616e676520616c726560408201526a616479206578697374732160a81b606082015260800190565b60208082526029908201527f46697865645261746545786368616e67653a20696e76616c69642065786368616040820152683733b29037bbb732b960b91b606082015260800190565b602080825260409082018190527f46697865645261746545786368616e67653a207472616e7366657246726f6d20908201527f6661696c656420696e207468652062617365546f6b656e20636f6e7472616374606082015260800190565b60208082526037908201527f46697865645261746545786368616e67653a20496e76616c696420646174617460408201527f6f6b656e2c2020657175616c732062617365746f6b656e000000000000000000606082015260800190565b60208082526033908201527f46697865645261746545786368616e67653a20496e76616c69642062617365746040820152726f6b656e2c20207a65726f206164647265737360681b606082015260800190565b602080825260409082018190527f46697865645261746545786368616e67653a207472616e7366657246726f6d20908201527f6661696c656420696e207468652064617461546f6b656e20636f6e7472616374606082015260800190565b60208082526033908201527f46697865645261746545786368616e67653a20496e76616c69642064617461746040820152726f6b656e2c20207a65726f206164647265737360681b606082015260800190565b60208082526029908201527f46697865645261746545786368616e67653a207a65726f206461746120746f6b604082015268195b88185b5bdd5b9d60ba1b606082015260800190565b918252602082015260400190565b60008261151e57634e487b7160e01b81526012600452602481fd5b500490565b80825b60018086116115355750611560565b81870482111561154757611547611659565b8086161561155457918102915b9490941c938002611526565b94509492505050565b6000610a2460001960ff85168460008261158557506001610a24565b8161159257506000610a24565b81600181146115a857600281146115b2576115df565b6001915050610a24565b60ff8411156115c3576115c3611659565b6001841b9150848211156115d9576115d9611659565b50610a24565b5060208310610133831016604e8410600b8410161715611612575081810a8381111561160d5761160d611659565b610a24565b61161f8484846001611523565b80860482111561163157611631611659565b02949350505050565b600081600019048311821515161561165457611654611659565b500290565b634e487b7160e01b600052601160045260246000fdfea2646970667358221220ad5afe059a133b2445a7f12c2102e2d2e01e7f348afab627206bfd8081e7836e64736f6c63430008000033",
  "linkReferences": {},
  "deployedLinkReferences": {}
}