{
  "_format": "hh-sol-artifact-1",
  "contractName": "MockOldDT",
  "sourceName": "contracts/utils/mock/MockOldDT.sol",
  "abi": [
    {
      "inputs": [],
      "stateMutability": "nonpayable",
      "type": "constructor"
    },
    {
      "anonymous": false,
      "inputs": [
        {
          "indexed": true,
          "internalType": "address",
          "name": "owner",
          "type": "address"
        },
        {
          "indexed": true,
          "internalType": "address",
          "name": "spender",
          "type": "address"
        },
        {
          "indexed": false,
          "internalType": "uint256",
          "name": "value",
          "type": "uint256"
        }
      ],
      "name": "Approval",
      "type": "event"
    },
    {
      "anonymous": false,
      "inputs": [
        {
          "indexed": false,
          "internalType": "address",
          "name": "currentMinter",
          "type": "address"
        },
        {
          "indexed": false,
          "internalType": "address",
          "name": "newMinter",
          "type": "address"
        }
      ],
      "name": "MinterApproved",
      "type": "event"
    },
    {
      "anonymous": false,
      "inputs": [
        {
          "indexed": false,
          "internalType": "address",
          "name": "currentMinter",
          "type": "address"
        },
        {
          "indexed": false,
          "internalType": "address",
          "name": "newMinter",
          "type": "address"
        }
      ],
      "name": "MinterProposed",
      "type": "event"
    },
    {
      "anonymous": false,
      "inputs": [
        {
          "indexed": false,
          "internalType": "bytes32",
          "name": "orderTxId",
          "type": "bytes32"
        },
        {
          "indexed": true,
          "internalType": "address",
          "name": "consumer",
          "type": "address"
        },
        {
          "indexed": false,
          "internalType": "uint256",
          "name": "amount",
          "type": "uint256"
        },
        {
          "indexed": false,
          "internalType": "uint256",
          "name": "serviceId",
          "type": "uint256"
        },
        {
          "indexed": true,
          "internalType": "address",
          "name": "provider",
          "type": "address"
        },
        {
          "indexed": false,
          "internalType": "uint256",
          "name": "timestamp",
          "type": "uint256"
        }
      ],
      "name": "OrderFinished",
      "type": "event"
    },
    {
      "anonymous": false,
      "inputs": [
        {
          "indexed": true,
          "internalType": "address",
          "name": "consumer",
          "type": "address"
        },
        {
          "indexed": true,
          "internalType": "address",
          "name": "payer",
          "type": "address"
        },
        {
          "indexed": false,
          "internalType": "uint256",
          "name": "amount",
          "type": "uint256"
        },
        {
          "indexed": false,
          "internalType": "uint256",
          "name": "serviceId",
          "type": "uint256"
        },
        {
          "indexed": false,
          "internalType": "uint256",
          "name": "timestamp",
          "type": "uint256"
        },
        {
          "indexed": true,
          "internalType": "address",
          "name": "mrktFeeCollector",
          "type": "address"
        },
        {
          "indexed": false,
          "internalType": "uint256",
          "name": "marketFee",
          "type": "uint256"
        }
      ],
      "name": "OrderStarted",
      "type": "event"
    },
    {
      "anonymous": false,
      "inputs": [
        {
          "indexed": true,
          "internalType": "address",
          "name": "from",
          "type": "address"
        },
        {
          "indexed": true,
          "internalType": "address",
          "name": "to",
          "type": "address"
        },
        {
          "indexed": false,
          "internalType": "uint256",
          "name": "value",
          "type": "uint256"
        }
      ],
      "name": "Transfer",
      "type": "event"
    },
    {
      "inputs": [],
      "name": "BASE",
      "outputs": [
        {
          "internalType": "uint256",
          "name": "",
          "type": "uint256"
        }
      ],
      "stateMutability": "view",
      "type": "function"
    },
    {
      "inputs": [],
      "name": "BASE_COMMUNITY_FEE_PERCENTAGE",
      "outputs": [
        {
          "internalType": "uint256",
          "name": "",
          "type": "uint256"
        }
      ],
      "stateMutability": "view",
      "type": "function"
    },
    {
      "inputs": [],
      "name": "BASE_MARKET_FEE_PERCENTAGE",
      "outputs": [
        {
          "internalType": "uint256",
          "name": "",
          "type": "uint256"
        }
      ],
      "stateMutability": "view",
      "type": "function"
    },
    {
      "inputs": [
        {
          "internalType": "address",
          "name": "owner",
          "type": "address"
        },
        {
          "internalType": "address",
          "name": "spender",
          "type": "address"
        }
      ],
      "name": "allowance",
      "outputs": [
        {
          "internalType": "uint256",
          "name": "",
          "type": "uint256"
        }
      ],
      "stateMutability": "view",
      "type": "function"
    },
    {
      "inputs": [
        {
          "internalType": "address",
          "name": "spender",
          "type": "address"
        },
        {
          "internalType": "uint256",
          "name": "amount",
          "type": "uint256"
        }
      ],
      "name": "approve",
      "outputs": [
        {
          "internalType": "bool",
          "name": "",
          "type": "bool"
        }
      ],
      "stateMutability": "nonpayable",
      "type": "function"
    },
    {
      "inputs": [],
      "name": "approveMinter",
      "outputs": [],
      "stateMutability": "nonpayable",
      "type": "function"
    },
    {
      "inputs": [
        {
          "internalType": "address",
          "name": "account",
          "type": "address"
        }
      ],
      "name": "balanceOf",
      "outputs": [
        {
          "internalType": "uint256",
          "name": "",
          "type": "uint256"
        }
      ],
      "stateMutability": "view",
      "type": "function"
    },
    {
      "inputs": [],
      "name": "blob",
      "outputs": [
        {
          "internalType": "string",
          "name": "",
          "type": "string"
        }
      ],
      "stateMutability": "view",
      "type": "function"
    },
    {
      "inputs": [
        {
          "internalType": "uint256",
          "name": "amount",
          "type": "uint256"
        },
        {
          "internalType": "uint256",
          "name": "feePercentage",
          "type": "uint256"
        }
      ],
      "name": "calculateFee",
      "outputs": [
        {
          "internalType": "uint256",
          "name": "",
          "type": "uint256"
        }
      ],
      "stateMutability": "pure",
      "type": "function"
    },
    {
      "inputs": [],
      "name": "cap",
      "outputs": [
        {
          "internalType": "uint256",
          "name": "",
          "type": "uint256"
        }
      ],
      "stateMutability": "view",
      "type": "function"
    },
    {
      "inputs": [],
      "name": "decimals",
      "outputs": [
        {
          "internalType": "uint8",
          "name": "",
          "type": "uint8"
        }
      ],
      "stateMutability": "view",
      "type": "function"
    },
    {
      "inputs": [
        {
          "internalType": "address",
          "name": "spender",
          "type": "address"
        },
        {
          "internalType": "uint256",
          "name": "subtractedValue",
          "type": "uint256"
        }
      ],
      "name": "decreaseAllowance",
      "outputs": [
        {
          "internalType": "bool",
          "name": "",
          "type": "bool"
        }
      ],
      "stateMutability": "nonpayable",
      "type": "function"
    },
    {
      "inputs": [
        {
          "internalType": "bytes32",
          "name": "orderTxId",
          "type": "bytes32"
        },
        {
          "internalType": "address",
          "name": "consumer",
          "type": "address"
        },
        {
          "internalType": "uint256",
          "name": "amount",
          "type": "uint256"
        },
        {
          "internalType": "uint256",
          "name": "serviceId",
          "type": "uint256"
        }
      ],
      "name": "finishOrder",
      "outputs": [],
      "stateMutability": "nonpayable",
      "type": "function"
    },
    {
      "inputs": [
        {
          "internalType": "address",
          "name": "spender",
          "type": "address"
        },
        {
          "internalType": "uint256",
          "name": "addedValue",
          "type": "uint256"
        }
      ],
      "name": "increaseAllowance",
      "outputs": [
        {
          "internalType": "bool",
          "name": "",
          "type": "bool"
        }
      ],
      "stateMutability": "nonpayable",
      "type": "function"
    },
    {
      "inputs": [
        {
          "internalType": "string",
          "name": "name",
          "type": "string"
        },
        {
          "internalType": "string",
          "name": "symbol",
          "type": "string"
        },
        {
          "internalType": "address",
          "name": "minterAddress",
          "type": "address"
        },
        {
          "internalType": "uint256",
          "name": "cap_",
          "type": "uint256"
        },
        {
          "internalType": "string",
          "name": "blob_",
          "type": "string"
        },
        {
          "internalType": "address",
          "name": "feeCollector",
          "type": "address"
        }
      ],
      "name": "initialize",
      "outputs": [
        {
          "internalType": "bool",
          "name": "",
          "type": "bool"
        }
      ],
      "stateMutability": "nonpayable",
      "type": "function"
    },
    {
      "inputs": [],
      "name": "isInitialized",
      "outputs": [
        {
          "internalType": "bool",
          "name": "",
          "type": "bool"
        }
      ],
      "stateMutability": "view",
      "type": "function"
    },
    {
      "inputs": [
        {
          "internalType": "address",
          "name": "account",
          "type": "address"
        }
      ],
      "name": "isMinter",
      "outputs": [
        {
          "internalType": "bool",
          "name": "",
          "type": "bool"
        }
      ],
      "stateMutability": "view",
      "type": "function"
    },
    {
      "inputs": [
        {
          "internalType": "address",
          "name": "account",
          "type": "address"
        },
        {
          "internalType": "uint256",
          "name": "value",
          "type": "uint256"
        }
      ],
      "name": "mint",
      "outputs": [],
      "stateMutability": "nonpayable",
      "type": "function"
    },
    {
      "inputs": [],
      "name": "minter",
      "outputs": [
        {
          "internalType": "address",
          "name": "",
          "type": "address"
        }
      ],
      "stateMutability": "view",
      "type": "function"
    },
    {
      "inputs": [],
      "name": "name",
      "outputs": [
        {
          "internalType": "string",
          "name": "",
          "type": "string"
        }
      ],
      "stateMutability": "view",
      "type": "function"
    },
    {
      "inputs": [
        {
          "internalType": "address",
          "name": "newMinter",
          "type": "address"
        }
      ],
      "name": "proposeMinter",
      "outputs": [],
      "stateMutability": "nonpayable",
      "type": "function"
    },
    {
      "inputs": [
        {
          "internalType": "address",
          "name": "consumer",
          "type": "address"
        },
        {
          "internalType": "uint256",
          "name": "amount",
          "type": "uint256"
        },
        {
          "internalType": "uint256",
          "name": "serviceId",
          "type": "uint256"
        },
        {
          "internalType": "address",
          "name": "mrktFeeCollector",
          "type": "address"
        }
      ],
      "name": "startOrder",
      "outputs": [],
      "stateMutability": "nonpayable",
      "type": "function"
    },
    {
      "inputs": [],
      "name": "symbol",
      "outputs": [
        {
          "internalType": "string",
          "name": "",
          "type": "string"
        }
      ],
      "stateMutability": "view",
      "type": "function"
    },
    {
      "inputs": [],
      "name": "totalSupply",
      "outputs": [
        {
          "internalType": "uint256",
          "name": "",
          "type": "uint256"
        }
      ],
      "stateMutability": "view",
      "type": "function"
    },
    {
      "inputs": [
        {
          "internalType": "address",
          "name": "to",
          "type": "address"
        },
        {
          "internalType": "uint256",
          "name": "amount",
          "type": "uint256"
        }
      ],
      "name": "transfer",
      "outputs": [
        {
          "internalType": "bool",
          "name": "",
          "type": "bool"
        }
      ],
      "stateMutability": "nonpayable",
      "type": "function"
    },
    {
      "inputs": [
        {
          "internalType": "address",
          "name": "from",
          "type": "address"
        },
        {
          "internalType": "address",
          "name": "to",
          "type": "address"
        },
        {
          "internalType": "uint256",
          "name": "amount",
          "type": "uint256"
        }
      ],
      "name": "transferFrom",
      "outputs": [
        {
          "internalType": "bool",
          "name": "",
          "type": "bool"
        }
      ],
      "stateMutability": "nonpayable",
      "type": "function"
    }
  ],
  "bytecode": "0x60c060405260086080819052671353d0d2d58cd11560c21b60a09081526200002b916005919062000525565b5060408051808201909152600480825263158cd11560e21b6020909201918252620000599160069162000525565b5060408051808201909152600480825263313637b160e11b6020909201918252620000879160079162000525565b50683635c9adc5dea00000600855600980546001600160a81b0319169055348015620000b257600080fd5b50604080518082018252600481526315195cdd60e21b60208083019182528351808501909452600a845269151154d514d6535093d360b21b908401528151919291620001019160039162000525565b5080516200011790600490602084019062000525565b505050620002e8600580546200012d90620005cb565b80601f01602080910402602001604051908101604052809291908181526020018280546200015b90620005cb565b8015620001ac5780601f106200018057610100808354040283529160200191620001ac565b820191906000526020600020905b8154815290600101906020018083116200018e57829003601f168201915b505050505060068054620001c090620005cb565b80601f0160208091040260200160405190810160405280929190818152602001828054620001ee90620005cb565b80156200023f5780601f1062000213576101008083540402835291602001916200023f565b820191906000526020600020905b8154815290600101906020018083116200022157829003601f168201915b505050505033600854600780546200025790620005cb565b80601f01602080910402602001604051908101604052809291908181526020018280546200028590620005cb565b8015620002d65780601f10620002aa57610100808354040283529160200191620002d6565b820191906000526020600020905b815481529060010190602001808311620002b857829003601f168201915b505050505033620002ef60201b60201c565b5062000608565b60006001600160a01b038516620003555760405162461bcd60e51b8152602060048201526030602482015260008051602062001c5e83398151915260448201526f722c20207a65726f206164647265737360801b60648201526084015b60405180910390fd5b600a546001600160a01b031615620003b75760405162461bcd60e51b815260206004820152602f602482015260008051602062001c5e83398151915260448201526e722c207a65726f206164647265737360881b60648201526084016200034c565b6001600160a01b03821662000437576040805162461bcd60e51b81526020600482015260248101919091527f44617461746f6b656e54656d706c6174653a20496e76616c696420636f6d6d7560448201527f6e6974792066656520636f6c6c6563746f722c207a65726f206164647265737360648201526084016200034c565b83620004925760405162461bcd60e51b8152602060048201526024808201527f44617461746f6b656e54656d706c6174653a20496e76616c6964206361702076604482015263616c756560e01b60648201526084016200034c565b60088490558651620004ac9060059060208a019062000525565b508251620004c290600790602086019062000525565b508551620004d890600690602089019062000525565b5050600a80546001600160a01b039586166001600160a01b0319909116179055600980546001600160a81b0319169190941617600160a01b9081179384905590920460ff16949350505050565b8280546200053390620005cb565b90600052602060002090601f016020900481019282620005575760008555620005a2565b82601f106200057257805160ff1916838001178555620005a2565b82800160010185558215620005a2579182015b82811115620005a257825182559160200191906001019062000585565b50620005b0929150620005b4565b5090565b5b80821115620005b05760008155600101620005b5565b600181811c90821680620005e057607f821691505b602082108114156200060257634e487b7160e01b600052602260045260246000fd5b50919050565b61164680620006186000396000f3fe608060405234801561001057600080fd5b506004361061018e5760003560e01c806370a08231116100de578063aa271e1a11610097578063dd62ed3e11610071578063dd62ed3e14610345578063eb40024b1461037e578063ec342ad014610386578063fde0e7a81461039557600080fd5b8063aa271e1a14610310578063ab63d2b214610332578063b2263a5d1461021457600080fd5b806370a08231146102935780638ca0c059146102bc5780639070d2f8146102cf57806395d89b41146102e2578063a457c2d7146102ea578063a9059cbb146102fd57600080fd5b8063313ce5671161014b578063392e53cd11610125578063392e53cd14610246578063395093511461025857806340c10f191461026b57806350d2fcc41461028057600080fd5b8063313ce5671461021c57806334e731221461022b578063355274ea1461023e57600080fd5b806306fdde031461019357806307546172146101b1578063095ea7b3146101cc57806318160ddd146101ef57806323b872dd14610201578063294541c714610214575b600080fd5b61019b61039d565b6040516101a89190611236565b60405180910390f35b600a546040516001600160a01b0390911681526020016101a8565b6101df6101da3660046112a7565b61042f565b60405190151581526020016101a8565b6002545b6040519081526020016101a8565b6101df61020f3660046112d1565b610449565b6101f361046d565b604051601281526020016101a8565b6101f361023936600461130d565b610484565b6008546101f3565b600954600160a01b900460ff166101df565b6101df6102663660046112a7565b6104c3565b61027e6102793660046112a7565b610502565b005b61027e61028e36600461132f565b6105a7565b6101f36102a136600461132f565b6001600160a01b031660009081526020819052604090205490565b61027e6102ca36600461134a565b61062c565b6101df6102dd3660046113ce565b6106f4565b61019b61082a565b6101df6102f83660046112a7565b610839565b6101df61030b3660046112a7565b6108cb565b6101df61031e36600461132f565b600a546001600160a01b0390811691161490565b61027e610340366004611495565b6108d9565b6101f36103533660046114db565b6001600160a01b03918216600090815260016020908152604080832093909416825291909152205490565b61027e6109ce565b6101f3670de0b6b3a764000081565b61019b610ab5565b6060600380546103ac9061150e565b80601f01602080910402602001604051908101604052809291908181526020018280546103d89061150e565b80156104255780601f106103fa57610100808354040283529160200191610425565b820191906000526020600020905b81548152906001019060200180831161040857829003601f168201915b5050505050905090565b60003361043d818585610ac4565b60019150505b92915050565b600033610457858285610be8565b610462858585610c7a565b506001949350505050565b6104816103e8670de0b6b3a764000061155f565b81565b60008261049357506000610443565b816104a057506000610443565b6104bc670de0b6b3a76400006104b68585610e48565b90610e54565b9392505050565b3360008181526001602090815260408083206001600160a01b038716845290915281205490919061043d90829086906104fd908790611581565b610ac4565b600a546001600160a01b031633146105355760405162461bcd60e51b815260040161052c90611599565b60405180910390fd5b60085461054b8261054560025490565b90610e60565b11156105995760405162461bcd60e51b815260206004820152601f60248201527f44617461746f6b656e54656d706c6174653a2063617020657863656564656400604482015260640161052c565b6105a38282610e6c565b5050565b600a546001600160a01b031633146105d15760405162461bcd60e51b815260040161052c90611599565b600b80546001600160a01b0319166001600160a01b0383169081179091556040805133815260208101929092527fa24c529cc8b2d85b7dfb2ed0b4d7e9a816546212138b5d223bee13481e21be6b910160405180910390a150565b811561069a5761063c83836108cb565b61069a5760405162461bcd60e51b815260206004820152602960248201527f44617461746f6b656e54656d706c6174653a206661696c656420746f2066696e60448201526834b9b41037b93232b960b91b606482015260840161052c565b604080518581526020810184905290810182905242606082015233906001600160a01b038516907f46872661d5d7765097d3a97ca99b7cbfa68b54b6d51904168974901ee607a26d9060800160405180910390a350505050565b600954600090600160a01b900460ff161561076f5760405162461bcd60e51b815260206004820152603560248201527f44617461746f6b656e54656d706c6174653a20746f6b656e20696e7374616e636044820152741948185b1c9958591e481a5b9a5d1a585b1a5e9959605a1b606482015260840161052c565b61081c8a8a8080601f01602080910402602001604051908101604052809392919081815260200183838082843760009201919091525050604080516020601f8e018190048102820181019092528c815292508c91508b908190840183828082843760009201919091525050604080516020601f8b018190048102820181019092528981528c93508b9250908a908a90819084018382808284376000920191909152508a9250610f4b915050565b9a9950505050505050505050565b6060600480546103ac9061150e565b3360008181526001602090815260408083206001600160a01b0387168452909152812054909190838110156108be5760405162461bcd60e51b815260206004820152602560248201527f45524332303a2064656372656173656420616c6c6f77616e63652062656c6f77604482015264207a65726f60d81b606482015260840161052c565b6104628286868403610ac4565b60003361043d818585610c7a565b6000806108f4856102396103e8670de0b6b3a764000061155f565b60095490915061090d906001600160a01b0316826108cb565b506001600160a01b0383161561094357610935856102396103e8670de0b6b3a764000061155f565b915061094183836108cb565b505b600061094f8284610e60565b600a5490915061096c906001600160a01b031661030b8884611191565b50604080518781526020810187905242818301526060810185905290516001600160a01b03868116923392918b16917fe1c4fa794edfa8f619b8257a077398950357b9c6398528f94480307352f9afcc9181900360800190a450505050505050565b600b546001600160a01b03163314610a435760405162461bcd60e51b815260206004820152603260248201527f44617461746f6b656e54656d706c6174653a20696e76616c69642070726f706f604482015271736564206d696e746572206164647265737360701b606482015260840161052c565b600a54600b54604080516001600160a01b0393841681529290911660208301527f96ab0400119a548d3cc4c74e857d0d9c427fe9df20d3d0d99af10cc292e6c886910160405180910390a1600b8054600a80546001600160a01b03199081166001600160a01b03841617909155169055565b6060600780546103ac9061150e565b6001600160a01b038316610b265760405162461bcd60e51b8152602060048201526024808201527f45524332303a20617070726f76652066726f6d20746865207a65726f206164646044820152637265737360e01b606482015260840161052c565b6001600160a01b038216610b875760405162461bcd60e51b815260206004820152602260248201527f45524332303a20617070726f766520746f20746865207a65726f206164647265604482015261737360f01b606482015260840161052c565b6001600160a01b0383811660008181526001602090815260408083209487168084529482529182902085905590518481527f8c5be1e5ebec7d5bd14f71427d1e84f3dd0314c0f7b2291e5b200ac8c7c3b925910160405180910390a3505050565b6001600160a01b038381166000908152600160209081526040808320938616835292905220546000198114610c745781811015610c675760405162461bcd60e51b815260206004820152601d60248201527f45524332303a20696e73756666696369656e7420616c6c6f77616e6365000000604482015260640161052c565b610c748484848403610ac4565b50505050565b6001600160a01b038316610cde5760405162461bcd60e51b815260206004820152602560248201527f45524332303a207472616e736665722066726f6d20746865207a65726f206164604482015264647265737360d81b606482015260840161052c565b6001600160a01b038216610d405760405162461bcd60e51b815260206004820152602360248201527f45524332303a207472616e7366657220746f20746865207a65726f206164647260448201526265737360e81b606482015260840161052c565b6001600160a01b03831660009081526020819052604090205481811015610db85760405162461bcd60e51b815260206004820152602660248201527f45524332303a207472616e7366657220616d6f756e7420657863656564732062604482015265616c616e636560d01b606482015260840161052c565b6001600160a01b03808516600090815260208190526040808220858503905591851681529081208054849290610def908490611581565b92505081905550826001600160a01b0316846001600160a01b03167fddf252ad1be2c89b69c2b068fc378daa952ba7f163c4a11628f55a4df523b3ef84604051610e3b91815260200190565b60405180910390a3610c74565b60006104bc82846115da565b60006104bc828461155f565b60006104bc8284611581565b6001600160a01b038216610ec25760405162461bcd60e51b815260206004820152601f60248201527f45524332303a206d696e7420746f20746865207a65726f206164647265737300604482015260640161052c565b8060026000828254610ed49190611581565b90915550506001600160a01b03821660009081526020819052604081208054839290610f01908490611581565b90915550506040518181526001600160a01b038316906000907fddf252ad1be2c89b69c2b068fc378daa952ba7f163c4a11628f55a4df523b3ef9060200160405180910390a35050565b60006001600160a01b038516610fbc5760405162461bcd60e51b815260206004820152603060248201527f44617461746f6b656e54656d706c6174653a20496e76616c6964206d696e746560448201526f722c20207a65726f206164647265737360801b606482015260840161052c565b600a546001600160a01b03161561102d5760405162461bcd60e51b815260206004820152602f60248201527f44617461746f6b656e54656d706c6174653a20496e76616c6964206d696e746560448201526e722c207a65726f206164647265737360881b606482015260840161052c565b6001600160a01b0382166110ab576040805162461bcd60e51b81526020600482015260248101919091527f44617461746f6b656e54656d706c6174653a20496e76616c696420636f6d6d7560448201527f6e6974792066656520636f6c6c6563746f722c207a65726f2061646472657373606482015260840161052c565b836111045760405162461bcd60e51b8152602060048201526024808201527f44617461746f6b656e54656d706c6174653a20496e76616c6964206361702076604482015263616c756560e01b606482015260840161052c565b6008849055865161111c9060059060208a019061119d565b50825161113090600790602086019061119d565b50855161114490600690602089019061119d565b5050600a80546001600160a01b039586166001600160a01b0319909116179055600980546001600160a81b0319169190941617600160a01b9081179384905590920460ff16949350505050565b60006104bc82846115f9565b8280546111a99061150e565b90600052602060002090601f0160209004810192826111cb5760008555611211565b82601f106111e457805160ff1916838001178555611211565b82800160010185558215611211579182015b828111156112115782518255916020019190600101906111f6565b5061121d929150611221565b5090565b5b8082111561121d5760008155600101611222565b600060208083528351808285015260005b8181101561126357858101830151858201604001528201611247565b81811115611275576000604083870101525b50601f01601f1916929092016040019392505050565b80356001600160a01b03811681146112a257600080fd5b919050565b600080604083850312156112ba57600080fd5b6112c38361128b565b946020939093013593505050565b6000806000606084860312156112e657600080fd5b6112ef8461128b565b92506112fd6020850161128b565b9150604084013590509250925092565b6000806040838503121561132057600080fd5b50508035926020909101359150565b60006020828403121561134157600080fd5b6104bc8261128b565b6000806000806080858703121561136057600080fd5b843593506113706020860161128b565b93969395505050506040820135916060013590565b60008083601f84011261139757600080fd5b50813567ffffffffffffffff8111156113af57600080fd5b6020830191508360208285010111156113c757600080fd5b9250929050565b600080600080600080600080600060c08a8c0312156113ec57600080fd5b893567ffffffffffffffff8082111561140457600080fd5b6114108d838e01611385565b909b50995060208c013591508082111561142957600080fd5b6114358d838e01611385565b909950975087915061144960408d0161128b565b965060608c0135955060808c013591508082111561146657600080fd5b506114738c828d01611385565b9094509250611486905060a08b0161128b565b90509295985092959850929598565b600080600080608085870312156114ab57600080fd5b6114b48561128b565b935060208501359250604085013591506114d06060860161128b565b905092959194509250565b600080604083850312156114ee57600080fd5b6114f78361128b565b91506115056020840161128b565b90509250929050565b600181811c9082168061152257607f821691505b6020821081141561154357634e487b7160e01b600052602260045260246000fd5b50919050565b634e487b7160e01b600052601160045260246000fd5b60008261157c57634e487b7160e01b600052601260045260246000fd5b500490565b6000821982111561159457611594611549565b500190565b60208082526021908201527f44617461746f6b656e54656d706c6174653a20696e76616c6964206d696e74656040820152603960f91b606082015260800190565b60008160001904831182151516156115f4576115f4611549565b500290565b60008282101561160b5761160b611549565b50039056fea26469706673582212205642d9881c8aa3dc0e89a9cc741cd0eec6e65e23fb21fa8b9b3e28fe8118678064736f6c634300080c003344617461746f6b656e54656d706c6174653a20496e76616c6964206d696e7465",
  "linkReferences": {},
  "deployedLinkReferences": {}
}