{
  "_format": "hh-sol-artifact-1",
  "contractName": "MockOldDT",
  "sourceName": "contracts/utils/mock/MockOldDT.sol",
  "abi": [
    {
      "inputs": [],
      "stateMutability": "nonpayable",
      "type": "constructor"
    },
    {
      "anonymous": false,
      "inputs": [
        {
          "indexed": true,
          "internalType": "address",
          "name": "owner",
          "type": "address"
        },
        {
          "indexed": true,
          "internalType": "address",
          "name": "spender",
          "type": "address"
        },
        {
          "indexed": false,
          "internalType": "uint256",
          "name": "value",
          "type": "uint256"
        }
      ],
      "name": "Approval",
      "type": "event"
    },
    {
      "anonymous": false,
      "inputs": [
        {
          "indexed": false,
          "internalType": "address",
          "name": "currentMinter",
          "type": "address"
        },
        {
          "indexed": false,
          "internalType": "address",
          "name": "newMinter",
          "type": "address"
        }
      ],
      "name": "MinterApproved",
      "type": "event"
    },
    {
      "anonymous": false,
      "inputs": [
        {
          "indexed": false,
          "internalType": "address",
          "name": "currentMinter",
          "type": "address"
        },
        {
          "indexed": false,
          "internalType": "address",
          "name": "newMinter",
          "type": "address"
        }
      ],
      "name": "MinterProposed",
      "type": "event"
    },
    {
      "anonymous": false,
      "inputs": [
        {
          "indexed": false,
          "internalType": "bytes32",
          "name": "orderTxId",
          "type": "bytes32"
        },
        {
          "indexed": true,
          "internalType": "address",
          "name": "consumer",
          "type": "address"
        },
        {
          "indexed": false,
          "internalType": "uint256",
          "name": "amount",
          "type": "uint256"
        },
        {
          "indexed": false,
          "internalType": "uint256",
          "name": "serviceId",
          "type": "uint256"
        },
        {
          "indexed": true,
          "internalType": "address",
          "name": "provider",
          "type": "address"
        },
        {
          "indexed": false,
          "internalType": "uint256",
          "name": "timestamp",
          "type": "uint256"
        }
      ],
      "name": "OrderFinished",
      "type": "event"
    },
    {
      "anonymous": false,
      "inputs": [
        {
          "indexed": true,
          "internalType": "address",
          "name": "consumer",
          "type": "address"
        },
        {
          "indexed": true,
          "internalType": "address",
          "name": "payer",
          "type": "address"
        },
        {
          "indexed": false,
          "internalType": "uint256",
          "name": "amount",
          "type": "uint256"
        },
        {
          "indexed": false,
          "internalType": "uint256",
          "name": "serviceId",
          "type": "uint256"
        },
        {
          "indexed": false,
          "internalType": "uint256",
          "name": "timestamp",
          "type": "uint256"
        },
        {
          "indexed": true,
          "internalType": "address",
          "name": "mrktFeeCollector",
          "type": "address"
        },
        {
          "indexed": false,
          "internalType": "uint256",
          "name": "marketFee",
          "type": "uint256"
        }
      ],
      "name": "OrderStarted",
      "type": "event"
    },
    {
      "anonymous": false,
      "inputs": [
        {
          "indexed": true,
          "internalType": "address",
          "name": "from",
          "type": "address"
        },
        {
          "indexed": true,
          "internalType": "address",
          "name": "to",
          "type": "address"
        },
        {
          "indexed": false,
          "internalType": "uint256",
          "name": "value",
          "type": "uint256"
        }
      ],
      "name": "Transfer",
      "type": "event"
    },
    {
      "inputs": [],
      "name": "BASE",
      "outputs": [
        {
          "internalType": "uint256",
          "name": "",
          "type": "uint256"
        }
      ],
      "stateMutability": "view",
      "type": "function"
    },
    {
      "inputs": [],
      "name": "BASE_COMMUNITY_FEE_PERCENTAGE",
      "outputs": [
        {
          "internalType": "uint256",
          "name": "",
          "type": "uint256"
        }
      ],
      "stateMutability": "view",
      "type": "function"
    },
    {
      "inputs": [],
      "name": "BASE_MARKET_FEE_PERCENTAGE",
      "outputs": [
        {
          "internalType": "uint256",
          "name": "",
          "type": "uint256"
        }
      ],
      "stateMutability": "view",
      "type": "function"
    },
    {
      "inputs": [
        {
          "internalType": "address",
          "name": "owner",
          "type": "address"
        },
        {
          "internalType": "address",
          "name": "spender",
          "type": "address"
        }
      ],
      "name": "allowance",
      "outputs": [
        {
          "internalType": "uint256",
          "name": "",
          "type": "uint256"
        }
      ],
      "stateMutability": "view",
      "type": "function"
    },
    {
      "inputs": [
        {
          "internalType": "address",
          "name": "spender",
          "type": "address"
        },
        {
          "internalType": "uint256",
          "name": "amount",
          "type": "uint256"
        }
      ],
      "name": "approve",
      "outputs": [
        {
          "internalType": "bool",
          "name": "",
          "type": "bool"
        }
      ],
      "stateMutability": "nonpayable",
      "type": "function"
    },
    {
      "inputs": [],
      "name": "approveMinter",
      "outputs": [],
      "stateMutability": "nonpayable",
      "type": "function"
    },
    {
      "inputs": [
        {
          "internalType": "address",
          "name": "account",
          "type": "address"
        }
      ],
      "name": "balanceOf",
      "outputs": [
        {
          "internalType": "uint256",
          "name": "",
          "type": "uint256"
        }
      ],
      "stateMutability": "view",
      "type": "function"
    },
    {
      "inputs": [],
      "name": "blob",
      "outputs": [
        {
          "internalType": "string",
          "name": "",
          "type": "string"
        }
      ],
      "stateMutability": "view",
      "type": "function"
    },
    {
      "inputs": [
        {
          "internalType": "bytes32",
          "name": "c__0x4f939ba3",
          "type": "bytes32"
        }
      ],
      "name": "c_0x4f939ba3",
      "outputs": [],
      "stateMutability": "pure",
      "type": "function"
    },
    {
      "inputs": [
        {
          "internalType": "uint256",
          "name": "amount",
          "type": "uint256"
        },
        {
          "internalType": "uint256",
          "name": "feePercentage",
          "type": "uint256"
        }
      ],
      "name": "calculateFee",
      "outputs": [
        {
          "internalType": "uint256",
          "name": "",
          "type": "uint256"
        }
      ],
      "stateMutability": "pure",
      "type": "function"
    },
    {
      "inputs": [],
      "name": "cap",
      "outputs": [
        {
          "internalType": "uint256",
          "name": "",
          "type": "uint256"
        }
      ],
      "stateMutability": "view",
      "type": "function"
    },
    {
      "inputs": [],
      "name": "decimals",
      "outputs": [
        {
          "internalType": "uint8",
          "name": "",
          "type": "uint8"
        }
      ],
      "stateMutability": "view",
      "type": "function"
    },
    {
      "inputs": [
        {
          "internalType": "address",
          "name": "spender",
          "type": "address"
        },
        {
          "internalType": "uint256",
          "name": "subtractedValue",
          "type": "uint256"
        }
      ],
      "name": "decreaseAllowance",
      "outputs": [
        {
          "internalType": "bool",
          "name": "",
          "type": "bool"
        }
      ],
      "stateMutability": "nonpayable",
      "type": "function"
    },
    {
      "inputs": [
        {
          "internalType": "bytes32",
          "name": "orderTxId",
          "type": "bytes32"
        },
        {
          "internalType": "address",
          "name": "consumer",
          "type": "address"
        },
        {
          "internalType": "uint256",
          "name": "amount",
          "type": "uint256"
        },
        {
          "internalType": "uint256",
          "name": "serviceId",
          "type": "uint256"
        }
      ],
      "name": "finishOrder",
      "outputs": [],
      "stateMutability": "nonpayable",
      "type": "function"
    },
    {
      "inputs": [
        {
          "internalType": "address",
          "name": "spender",
          "type": "address"
        },
        {
          "internalType": "uint256",
          "name": "addedValue",
          "type": "uint256"
        }
      ],
      "name": "increaseAllowance",
      "outputs": [
        {
          "internalType": "bool",
          "name": "",
          "type": "bool"
        }
      ],
      "stateMutability": "nonpayable",
      "type": "function"
    },
    {
      "inputs": [
        {
          "internalType": "string",
          "name": "name",
          "type": "string"
        },
        {
          "internalType": "string",
          "name": "symbol",
          "type": "string"
        },
        {
          "internalType": "address",
          "name": "minterAddress",
          "type": "address"
        },
        {
          "internalType": "uint256",
          "name": "cap_",
          "type": "uint256"
        },
        {
          "internalType": "string",
          "name": "blob_",
          "type": "string"
        },
        {
          "internalType": "address",
          "name": "feeCollector",
          "type": "address"
        }
      ],
      "name": "initialize",
      "outputs": [
        {
          "internalType": "bool",
          "name": "",
          "type": "bool"
        }
      ],
      "stateMutability": "nonpayable",
      "type": "function"
    },
    {
      "inputs": [],
      "name": "isInitialized",
      "outputs": [
        {
          "internalType": "bool",
          "name": "",
          "type": "bool"
        }
      ],
      "stateMutability": "view",
      "type": "function"
    },
    {
      "inputs": [
        {
          "internalType": "address",
          "name": "account",
          "type": "address"
        }
      ],
      "name": "isMinter",
      "outputs": [
        {
          "internalType": "bool",
          "name": "",
          "type": "bool"
        }
      ],
      "stateMutability": "view",
      "type": "function"
    },
    {
      "inputs": [
        {
          "internalType": "address",
          "name": "account",
          "type": "address"
        },
        {
          "internalType": "uint256",
          "name": "value",
          "type": "uint256"
        }
      ],
      "name": "mint",
      "outputs": [],
      "stateMutability": "nonpayable",
      "type": "function"
    },
    {
      "inputs": [],
      "name": "minter",
      "outputs": [
        {
          "internalType": "address",
          "name": "",
          "type": "address"
        }
      ],
      "stateMutability": "view",
      "type": "function"
    },
    {
      "inputs": [],
      "name": "name",
      "outputs": [
        {
          "internalType": "string",
          "name": "",
          "type": "string"
        }
      ],
      "stateMutability": "view",
      "type": "function"
    },
    {
      "inputs": [
        {
          "internalType": "address",
          "name": "newMinter",
          "type": "address"
        }
      ],
      "name": "proposeMinter",
      "outputs": [],
      "stateMutability": "nonpayable",
      "type": "function"
    },
    {
      "inputs": [
        {
          "internalType": "address",
          "name": "consumer",
          "type": "address"
        },
        {
          "internalType": "uint256",
          "name": "amount",
          "type": "uint256"
        },
        {
          "internalType": "uint256",
          "name": "serviceId",
          "type": "uint256"
        },
        {
          "internalType": "address",
          "name": "mrktFeeCollector",
          "type": "address"
        }
      ],
      "name": "startOrder",
      "outputs": [],
      "stateMutability": "nonpayable",
      "type": "function"
    },
    {
      "inputs": [],
      "name": "symbol",
      "outputs": [
        {
          "internalType": "string",
          "name": "",
          "type": "string"
        }
      ],
      "stateMutability": "view",
      "type": "function"
    },
    {
      "inputs": [],
      "name": "totalSupply",
      "outputs": [
        {
          "internalType": "uint256",
          "name": "",
          "type": "uint256"
        }
      ],
      "stateMutability": "view",
      "type": "function"
    },
    {
      "inputs": [
        {
          "internalType": "address",
          "name": "recipient",
          "type": "address"
        },
        {
          "internalType": "uint256",
          "name": "amount",
          "type": "uint256"
        }
      ],
      "name": "transfer",
      "outputs": [
        {
          "internalType": "bool",
          "name": "",
          "type": "bool"
        }
      ],
      "stateMutability": "nonpayable",
      "type": "function"
    },
    {
      "inputs": [
        {
          "internalType": "address",
          "name": "sender",
          "type": "address"
        },
        {
          "internalType": "address",
          "name": "recipient",
          "type": "address"
        },
        {
          "internalType": "uint256",
          "name": "amount",
          "type": "uint256"
        }
      ],
      "name": "transferFrom",
      "outputs": [
        {
          "internalType": "bool",
          "name": "",
          "type": "bool"
        }
      ],
      "stateMutability": "nonpayable",
      "type": "function"
    }
  ],
  "bytecode": "0x60806040526040518060400160405280600881526020017f4d4f434b56334454000000000000000000000000000000000000000000000000815250600590805190602001906200005192919062000dfc565b506040518060400160405280600481526020017f5633445400000000000000000000000000000000000000000000000000000000815250600690805190602001906200009f92919062000dfc565b506040518060400160405280600481526020017f626c6f620000000000000000000000000000000000000000000000000000000081525060079080519060200190620000ed92919062000dfc565b50683635c9adc5dea000006008556000600960006101000a81548173ffffffffffffffffffffffffffffffffffffffff021916908373ffffffffffffffffffffffffffffffffffffffff1602179055506000600960146101000a81548160ff0219169083151502179055503480156200016557600080fd5b506040518060400160405280600481526020017f54657374000000000000000000000000000000000000000000000000000000008152506040518060400160405280600a81526020017f5445535453594d424f4c000000000000000000000000000000000000000000008152508160039080519060200190620001ea92919062000dfc565b5080600490805190602001906200020392919062000dfc565b5050506200023a7f106bac43a3bfa0680a344274df9b011595d261277fc34e747a61e89f0f833f0760001b6200047760201b60201c565b6200026e7fb5dbb581d185f9e5f34486f3716974dd43c647eba019e0ad9fb7b9bc7cc125c160001b6200047760201b60201c565b620002a27ffc2a8fd43cd5d4abc009ea5404c1089b92d1f5eebd1bcdaf86447905bf8b131a60001b6200047760201b60201c565b6200047060058054620002b590620010e5565b80601f0160208091040260200160405190810160405280929190818152602001828054620002e390620010e5565b8015620003345780601f10620003085761010080835404028352916020019162000334565b820191906000526020600020905b8154815290600101906020018083116200031657829003601f168201915b5050505050600680546200034890620010e5565b80601f01602080910402602001604051908101604052809291908181526020018280546200037690620010e5565b8015620003c75780601f106200039b57610100808354040283529160200191620003c7565b820191906000526020600020905b815481529060010190602001808311620003a957829003601f168201915b50505050503360085460078054620003df90620010e5565b80601f01602080910402602001604051908101604052809291908181526020018280546200040d90620010e5565b80156200045e5780601f1062000432576101008083540402835291602001916200045e565b820191906000526020600020905b8154815290600101906020018083116200044057829003601f168201915b5050505050336200047a60201b60201c565b506200114a565b50565b6000620004b07f821a6bed24a0194bfd3a254532ebca49b5aaed4e241efeda52d2133972fbb52a60001b6200047760201b60201c565b620004e47f6ed24ddbb0a9cbf2382699762f900d8cac8a2bc384a1e7a7d4f89660cdfba84b60001b6200047760201b60201c565b620005187fe6117a8cc901eaacda4f1c39977816f069b9cf288d9651217e4350d1ff86c90960001b6200047760201b60201c565b6200054c7f324bef086d873bceca2112ab46ceb844b52a5c15726b117e212d5f098a4c5bd260001b6200047760201b60201c565b600073ffffffffffffffffffffffffffffffffffffffff168573ffffffffffffffffffffffffffffffffffffffff161415620005bf576040517f08c379a0000000000000000000000000000000000000000000000000000000008152600401620005b6906200104c565b60405180910390fd5b620005f37fb17110dbd00786c8d4edcfcd768fb120dd7218f7ecf4e27fcbbe928d7acefebe60001b6200047760201b60201c565b620006277f758e690bdfe110524e3219fe4b7bea2918442a3861eca7a74a204a9c7e05d70760001b6200047760201b60201c565b6200065b7f105a558121ae5691fb008fb5ecc7376ce305f697dfac95ca309c5a48735ae81c60001b6200047760201b60201c565b6200068f7f56caa3007ad2bce9664e42f07ac75cc469ed6ba9ad62d71877c143ecf680173960001b6200047760201b60201c565b600073ffffffffffffffffffffffffffffffffffffffff16600a60009054906101000a900473ffffffffffffffffffffffffffffffffffffffff1673ffffffffffffffffffffffffffffffffffffffff161462000723576040517f08c379a00000000000000000000000000000000000000000000000000000000081526004016200071a90620010b2565b60405180910390fd5b620007577fb273cda5936df23850be1a86cb2bc9bd664eb237562b7b327c6f33f2bb491bef60001b6200047760201b60201c565b6200078b7fb18b56af3a82aad9de39801ed5788b93d757f5b6a680be45c8699175a2eb8e1d60001b6200047760201b60201c565b620007bf7f920bfb008ff7954e3d7464f2086345cee2574fa38e22a7b9334257004a4785aa60001b6200047760201b60201c565b620007f37f3b7922985441370a28723990adc0714cda138eb3d36f222b75fa36e0f03b1afa60001b6200047760201b60201c565b600073ffffffffffffffffffffffffffffffffffffffff168273ffffffffffffffffffffffffffffffffffffffff16141562000866576040517f08c379a00000000000000000000000000000000000000000000000000000000081526004016200085d906200106e565b60405180910390fd5b6200089a7f86af6fb3748b823a542531e09185d3c8e3c612ea22dd9f5acb986cdf4d88e27660001b6200047760201b60201c565b620008ce7f6f81cd10be6a5fb2f54d1c7e9bd2b28b6defb85e49d4664c8bd40e3cc354cea360001b6200047760201b60201c565b620009027f32d336572ae934f29211c613d2f59368d46d7e5587d3c4ad43f7f8a42969c57860001b6200047760201b60201c565b620009367fb47762a52f39b69bb619d43ca6b5effc3ceef899d9fa1f699b8778120710fe3660001b6200047760201b60201c565b60008414156200097d576040517f08c379a0000000000000000000000000000000000000000000000000000000008152600401620009749062001090565b60405180910390fd5b620009b17fc2b0a773bbb18adab412f8bd541aeff094ad7d94841861c22cc1548ede1bdae560001b6200047760201b60201c565b620009e57fbe65c36115b6fdf7a981a2c734d6b1311f979f1b2576d77462ca1332aa200e6660001b6200047760201b60201c565b62000a197f43e1cef4d2abd8a4ebf38ebcf1a8acaed4480a874583d547e28af6476aab745d60001b6200047760201b60201c565b8360088190555062000a547f0bb0a90c4bb8dae1bc49930b66eeaffa1bf1d145be782fedb5f02fe4b248fddb60001b6200047760201b60201c565b62000a887f034bbe68fd234093be27869d3f22001d525e8dd7a2cc3b6f27cfba9a3622426360001b6200047760201b60201c565b866005908051906020019062000aa092919062000dfc565b5062000ad57f10b09808bbb98b2a93a6a2daa7ff3114b5de6b388f728dbdfd03888d4e2eddd160001b6200047760201b60201c565b62000b097fa0c3f0a351f475d5a085c482d6f44378c3136dc2f534ba5288d15c65a7dba6ef60001b6200047760201b60201c565b826007908051906020019062000b2192919062000dfc565b5062000b567fead8a4978fcbea4ff235c0010f81d942ef82f6a9b5f374845967dc5680761f4660001b6200047760201b60201c565b62000b8a7f9809b6db4ad447c60439dd9e97c8d9b6c768c15f1b716c54c542e9749f36488560001b6200047760201b60201c565b856006908051906020019062000ba292919062000dfc565b5062000bd77f71377d0cef9654d05eba3a677b780683c1a5046db114efb774ef96447d5fd87a60001b6200047760201b60201c565b62000c0b7f39054def3a9b6e3cf097f2ca444cb5b3b917f09c776e54a3d37911afc2e8dcb060001b6200047760201b60201c565b84600a60006101000a81548173ffffffffffffffffffffffffffffffffffffffff021916908373ffffffffffffffffffffffffffffffffffffffff16021790555062000c807f3db209f547b454fe83480534b645b249d6e52141793d4870e9d9fa0e9555fa4e60001b6200047760201b60201c565b62000cb47fee2a39f587e5dbfd83693f0066249feeb49d9411f602ab697e918943b4bab39560001b6200047760201b60201c565b81600960006101000a81548173ffffffffffffffffffffffffffffffffffffffff021916908373ffffffffffffffffffffffffffffffffffffffff16021790555062000d297fbf63a9208d5fec43262af4587c456d95f814469a5b21dcfec8bc13934118487b60001b6200047760201b60201c565b62000d5d7f7a3c06507b239e73415097bb5a4d24f8e07117e0fb323548786180428013a4c560001b6200047760201b60201c565b6001600960146101000a81548160ff02191690831515021790555062000dac7f04a3e811666dacd89f89789ff704ae25d7b55ae2bb5edd8fe7f5098dbdc5488960001b6200047760201b60201c565b62000de07f95a24544ffd8d4a68b3b9346e70194510f112d7a1a5ec6b11ca7e9e4123959ce60001b6200047760201b60201c565b600960149054906101000a900460ff1690509695505050505050565b82805462000e0a90620010e5565b90600052602060002090601f01602090048101928262000e2e576000855562000e7a565b82601f1062000e4957805160ff191683800117855562000e7a565b8280016001018555821562000e7a579182015b8281111562000e7957825182559160200191906001019062000e5c565b5b50905062000e89919062000e8d565b5090565b5b8082111562000ea857600081600090555060010162000e8e565b5090565b600062000ebb603083620010d4565b91507f44617461546f6b656e54656d706c6174653a20496e76616c6964206d696e746560008301527f722c20207a65726f2061646472657373000000000000000000000000000000006020830152604082019050919050565b600062000f23604083620010d4565b91507f44617461546f6b656e54656d706c6174653a20496e76616c696420636f6d6d7560008301527f6e6974792066656520636f6c6c6563746f722c207a65726f20616464726573736020830152604082019050919050565b600062000f8b602483620010d4565b91507f44617461546f6b656e54656d706c6174653a20496e76616c696420636170207660008301527f616c7565000000000000000000000000000000000000000000000000000000006020830152604082019050919050565b600062000ff3602f83620010d4565b91507f44617461546f6b656e54656d706c6174653a20496e76616c6964206d696e746560008301527f722c207a65726f206164647265737300000000000000000000000000000000006020830152604082019050919050565b60006020820190508181036000830152620010678162000eac565b9050919050565b60006020820190508181036000830152620010898162000f14565b9050919050565b60006020820190508181036000830152620010ab8162000f7c565b9050919050565b60006020820190508181036000830152620010cd8162000fe4565b9050919050565b600082825260208201905092915050565b60006002820490506001821680620010fe57607f821691505b602082108114156200111557620011146200111b565b5b50919050565b7f4e487b7100000000000000000000000000000000000000000000000000000000600052602260045260246000fd5b61457f806200115a6000396000f3fe608060405234801561001057600080fd5b50600436106101a95760003560e01c80636cafde27116100f9578063aa271e1a11610097578063dd62ed3e11610071578063dd62ed3e146104f8578063eb40024b14610528578063ec342ad014610532578063fde0e7a814610550576101a9565b8063aa271e1a1461048e578063ab63d2b2146104be578063b2263a5d146104da576101a9565b80639070d2f8116100d35780639070d2f8146103e057806395d89b4114610410578063a457c2d71461042e578063a9059cbb1461045e576101a9565b80636cafde271461037857806370a08231146103945780638ca0c059146103c4576101a9565b8063313ce56711610166578063392e53cd11610140578063392e53cd146102f2578063395093511461031057806340c10f191461034057806350d2fcc41461035c576101a9565b8063313ce5671461028657806334e73122146102a4578063355274ea146102d4576101a9565b806306fdde03146101ae57806307546172146101cc578063095ea7b3146101ea57806318160ddd1461021a57806323b872dd14610238578063294541c714610268575b600080fd5b6101b661056e565b6040516101c39190613fb4565b60405180910390f35b6101d4610600565b6040516101e19190613f10565b60405180910390f35b61020460048036038101906101ff91906135cc565b6106ae565b6040516102119190613f54565b60405180910390f35b6102226106cc565b60405161022f91906141f6565b60405180910390f35b610252600480360381019061024d919061357d565b6106d6565b60405161025f9190613f54565b60405180910390f35b6102706107ce565b60405161027d91906141f6565b60405180910390f35b61028e6107e7565b60405161029b9190614256565b60405180910390f35b6102be60048036038101906102b991906137d6565b6107f0565b6040516102cb91906141f6565b60405180910390f35b6102dc610a88565b6040516102e991906141f6565b60405180910390f35b6102fa610b16565b6040516103079190613f54565b60405180910390f35b61032a600480360381019061032591906135cc565b610bb1565b6040516103379190613f54565b60405180910390f35b61035a600480360381019061035591906135cc565b610c5d565b005b61037660048036038101906103719190613518565b610f95565b005b610392600480360381019061038d919061366b565b6112a8565b005b6103ae60048036038101906103a99190613518565b6112ab565b6040516103bb91906141f6565b60405180910390f35b6103de60048036038101906103d99190613694565b6112f3565b005b6103fa60048036038101906103f591906136f7565b61159f565b6040516104079190613f54565b60405180910390f35b610418611866565b6040516104259190613fb4565b60405180910390f35b610448600480360381019061044391906135cc565b6118f8565b6040516104559190613f54565b60405180910390f35b610478600480360381019061047391906135cc565b6119e3565b6040516104859190613f54565b60405180910390f35b6104a860048036038101906104a39190613518565b611a01565b6040516104b59190613f54565b60405180910390f35b6104d860048036038101906104d39190613608565b611adf565b005b6104e2612014565b6040516104ef91906141f6565b60405180910390f35b610512600480360381019061050d9190613541565b61202d565b60405161051f91906141f6565b60405180910390f35b6105306120b4565b005b61053a61244c565b60405161054791906141f6565b60405180910390f35b610558612458565b6040516105659190613fb4565b60405180910390f35b60606003805461057d90614434565b80601f01602080910402602001604051908101604052809291908181526020018280546105a990614434565b80156105f65780601f106105cb576101008083540402835291602001916105f6565b820191906000526020600020905b8154815290600101906020018083116105d957829003601f168201915b5050505050905090565b600061062e7fe2e1f7c41e56a45e4b6dbe32d3c9c5e30e48856c323cfae2b1abeb05a281b53560001b6112a8565b61065a7f04b277baa23a2534c686e5e6e204093132607d4f7b3cfba03de67ce21596dd8d60001b6112a8565b6106867ff49129565a1f7a5ac4bcdac0fe35235d2c554349ac01c4473ccd687af055c26760001b6112a8565b600a60009054906101000a900473ffffffffffffffffffffffffffffffffffffffff16905090565b60006106c26106bb61256e565b8484612576565b6001905092915050565b6000600254905090565b60006106e3848484612741565b6000600160008673ffffffffffffffffffffffffffffffffffffffff1673ffffffffffffffffffffffffffffffffffffffff168152602001908152602001600020600061072e61256e565b73ffffffffffffffffffffffffffffffffffffffff1673ffffffffffffffffffffffffffffffffffffffff168152602001908152602001600020549050828110156107ae576040517f08c379a00000000000000000000000000000000000000000000000000000000081526004016107a590614116565b60405180910390fd5b6107c2856107ba61256e565b858403612576565b60019150509392505050565b6103e8670de0b6b3a76400006107e491906142e3565b81565b60006012905090565b600061081e7fe312f3e0e6211fe1a120702f766b7d0249c6935ccf453599ff8fdc373329bff460001b6112a8565b61084a7faa8cfa8cca4cb24832a31865ce6e98bfb3c321cf336eb8ebb8588703282fc93360001b6112a8565b6108767ff086ae7a98968d72f121fdb7eef65c0f811c89e8ac45d234a4f7484652dcd24260001b6112a8565b60008314156108e0576108ab7f231c49b5f19ed8651b9a695e076e43e96c15c8471eb157e45821b3473517968460001b6112a8565b6108d77f7e3f63ef5f139373c49f282484b5b7d0f1cf65929a482327fd5c35bb6c8c27f260001b6112a8565b60009050610a82565b61090c7f4e1e906687a43a7cda7d8208f71561ec51f1aebbafb3889a97cba77ecf160f4160001b6112a8565b6109387ff77f62e0d2084799a93062db35a3090ba55c20199c23cf228c74fe89746fefed60001b6112a8565b6109647f81617f970a206a9c3bbd21c52bded133f94ddbd4b7505af69e0b8e5b03cd89bd60001b6112a8565b60008214156109ce576109997f9284bc5ead3fbe6ab88439db94514e6ee064264ad7df52ee1ea7512580b8403860001b6112a8565b6109c57f8a10b7c778c16134868af0117aa91e769ec6a19f8b333318d748fc0643e75fa860001b6112a8565b60009050610a82565b6109fa7f413454007989edfe5a14436f67f308d62c35ccddb9dd89e5a14064630c29263760001b6112a8565b610a267f9aa99aae44cd04b3e75e021404ebb7513d7940a26c79182f4877db5e78bd825260001b6112a8565b610a527f04ca19bfb64da917a516895ddc4d8ec156c5e1f47a2889f457551bf2867e6d3f60001b6112a8565b610a7f670de0b6b3a7640000610a7184866129c290919063ffffffff16565b6129d890919063ffffffff16565b90505b92915050565b6000610ab67fa74a829ec4f518de36616f56ffccd5991eb128696d8d117fec592e85dcece04760001b6112a8565b610ae27ff6c0a0a39be73334afc7010b60598a813c5bde18104680d1747bbabf7375ab2f60001b6112a8565b610b0e7f5c8e3a90cbc1b54bba589faa7c0e7712bcf0b9e8431e5aeac4ce18745f6d687260001b6112a8565b600854905090565b6000610b447fd611e1ad68febdd1086522093afcd633ca9f7e44932ded87685be76cf307291760001b6112a8565b610b707f2022ea2743a57cee22d5b1478f1837fd9cdfc06f228f08ad75fc6d1941e879d560001b6112a8565b610b9c7f9597f070b0410c5b522010dfa959ebeb39bbc9eae44a86df448e82815e8c03e960001b6112a8565b600960149054906101000a900460ff16905090565b6000610c53610bbe61256e565b848460016000610bcc61256e565b73ffffffffffffffffffffffffffffffffffffffff1673ffffffffffffffffffffffffffffffffffffffff16815260200190815260200160002060008873ffffffffffffffffffffffffffffffffffffffff1673ffffffffffffffffffffffffffffffffffffffff16815260200190815260200160002054610c4e919061428d565b612576565b6001905092915050565b610c897f230fd3b0fbc331208288d0b9ffffaecdc7c889b54a7a8f02a169e1d284d94c4b60001b6112a8565b610cb57fcd62c0594b4e13356c99afe4bcaf13a1222ec11095df00298ced2f40d5d56cf860001b6112a8565b610ce17f3476183d43db8e1e3df49cc2d1f3f4c8e9b07979774bb478cc226b3f690722bc60001b6112a8565b610d0d7f956e7988629d121ea2d6b9d9083f62a798f327366e595faf26a2774421b2c06a60001b6112a8565b600a60009054906101000a900473ffffffffffffffffffffffffffffffffffffffff1673ffffffffffffffffffffffffffffffffffffffff163373ffffffffffffffffffffffffffffffffffffffff1614610d9d576040517f08c379a0000000000000000000000000000000000000000000000000000000008152600401610d9490614036565b60405180910390fd5b610dc97fb6f823a64fce31968c4c54f8e3cbaf0d2edde0b0d5e812d9e29bf96c3e64790660001b6112a8565b610df57f1d68354603456d731c300b7b882b7101c9530abb6fcb1ad0ef9485a6a7d4e30960001b6112a8565b610e217fa5f976c00582b533812490ac03b8fcd9f9e135f34795ebadad36897e4ba0f55360001b6112a8565b610e4d7f38b9f78d132b14617b99d43afc5a4aa8acf057fa283abcee49eff6a16aefb48060001b6112a8565b610e797f82cad31d919a48a499c2d9c7eee898f81d84dc4bc79fa47efcde557da90a9c3e60001b6112a8565b610ea57f721c074b8968abddfb898b0c4f3f3dae2ef9ee0ddfa0f2252518e2ccc65eed3460001b6112a8565b600854610ec282610eb46106cc565b6129ee90919063ffffffff16565b1115610f03576040517f08c379a0000000000000000000000000000000000000000000000000000000008152600401610efa90614196565b60405180910390fd5b610f2f7f76320678c85457775fcb82b3568b55cd7a2cf5dd48b43b0725ce70fe911d07fa60001b6112a8565b610f5b7fc91e1a76fb61eed433c16eca65dafe27e3f6876cdbf33b2fce93e48481277cae60001b6112a8565b610f877fe193fa9efbf3d9b8379ff25fce85e9a0b04beb03f0e22cb00e18b00a91f4871e60001b6112a8565b610f918282612a04565b5050565b610fc17f230fd3b0fbc331208288d0b9ffffaecdc7c889b54a7a8f02a169e1d284d94c4b60001b6112a8565b610fed7fcd62c0594b4e13356c99afe4bcaf13a1222ec11095df00298ced2f40d5d56cf860001b6112a8565b6110197f3476183d43db8e1e3df49cc2d1f3f4c8e9b07979774bb478cc226b3f690722bc60001b6112a8565b6110457f956e7988629d121ea2d6b9d9083f62a798f327366e595faf26a2774421b2c06a60001b6112a8565b600a60009054906101000a900473ffffffffffffffffffffffffffffffffffffffff1673ffffffffffffffffffffffffffffffffffffffff163373ffffffffffffffffffffffffffffffffffffffff16146110d5576040517f08c379a00000000000000000000000000000000000000000000000000000000081526004016110cc90614036565b60405180910390fd5b6111017fb6f823a64fce31968c4c54f8e3cbaf0d2edde0b0d5e812d9e29bf96c3e64790660001b6112a8565b61112d7f1d68354603456d731c300b7b882b7101c9530abb6fcb1ad0ef9485a6a7d4e30960001b6112a8565b6111597f2380137fc40a1813f749a09ea55455c67c0adf7e492f2a1a0ff1a26469b2365960001b6112a8565b6111857f4320b6bc8e8bff1459c0427d6954c98e66ac41f01c276e9ca398a81cbc96804060001b6112a8565b6111b17fdfd5e4703805d7163efac7bc6d6d2ee315af727cc7e2bdebe03897fbd13e8fba60001b6112a8565b80600b60006101000a81548173ffffffffffffffffffffffffffffffffffffffff021916908373ffffffffffffffffffffffffffffffffffffffff16021790555061121e7fee10e008bb6ed25848900cf680a6f1fed05d401d7bc660dfbd62f3c12c87584460001b6112a8565b61124a7f09a3e3f99901521ec18071650819af4ec742cba7222e7124ff0403fc2f35447f60001b6112a8565b7fa24c529cc8b2d85b7dfb2ed0b4d7e9a816546212138b5d223bee13481e21be6b33600b60009054906101000a900473ffffffffffffffffffffffffffffffffffffffff1660405161129d929190613f2b565b60405180910390a150565b50565b60008060008373ffffffffffffffffffffffffffffffffffffffff1673ffffffffffffffffffffffffffffffffffffffff168152602001908152602001600020549050919050565b61131f7ff86f39f2d3e0436f6f4370ab87eecba08beaab7f0265fe3fe46a22add88ef54f60001b6112a8565b61134b7f3d0ecdeb14106033580753781573105008295c9b8649b072046f770a65d6395960001b6112a8565b6113777f4d4c91099bbe877c99996e8db0d163fb40729b2328f994d55e79924d976ab69460001b6112a8565b600082146114a9576113ab7fd6c1269bc7ad47275620d7aaddfde97bbf9cf104863cd14314fd865d7d56c16360001b6112a8565b6113d77f431beac0451d48fa1821790750629a6272e3772f87c17c55b9c532110932b4f660001b6112a8565b6114037f87e0c6d3175d982fd4887fd117413e0a2af4145714a44fbd897b6b22c974c1fd60001b6112a8565b61142f7f7ab504072d00c23f3dee216f13ef8a959f206a1eb5192868e58772785564840860001b6112a8565b61143983836119e3565b611478576040517f08c379a000000000000000000000000000000000000000000000000000000000815260040161146f90614076565b60405180910390fd5b6114a47f6e067170cfda013d74a996ba6b10d955af16a1fde67df4deeee43ae125e1d02d60001b6112a8565b6114d6565b6114d57f2837464c4b29c35d520a5e3b8abe6051ebcc18cc78b87278a18bec1075ac4b9060001b6112a8565b5b6115027fe1ad9a3842f2f205fd8c6ed724f812ed13bd860c50477d9d1159a3eb5551bcd160001b6112a8565b61152e7fd63c799af091476f6b5a6d44e024e7c3df8e99ddcc726aabf494ee725238a5e260001b6112a8565b3373ffffffffffffffffffffffffffffffffffffffff168373ffffffffffffffffffffffffffffffffffffffff167f46872661d5d7765097d3a97ca99b7cbfa68b54b6d51904168974901ee607a26d868585426040516115919493929190613f6f565b60405180910390a350505050565b60006115cd7f0cd9db478b4f3c574a921392a03c2d60b120dbd788bd34440f23e7f5a67519cb60001b6112a8565b6115f97f0298488e833527bcc596cb807f71610fcccc4393969f2672c7dce54c9f59cee160001b6112a8565b6116257f5f16a5eb7f68272659f29616b7369c9d3478c492d9eb5eefc400b4041dd8759d60001b6112a8565b6116517f214c6790c5b84bc0798913d648a8d295ff26c85b4f35d686e032339c7299a2e460001b6112a8565b600960149054906101000a900460ff16156116a1576040517f08c379a000000000000000000000000000000000000000000000000000000000815260040161169890614016565b60405180910390fd5b6116cd7f254cd194bfa9e616ed7e3feb0a44f4c8dfd099ee6c79d30bf2dca999dede0b9960001b6112a8565b6116f97f697cde5b945f0b185bf02e2d15f39511c5feda630e044af318de9b6273be2c2660001b6112a8565b6117257f730f5fc64529ddea41b68538195a802a6a1d8f29cb08e57d6b022b65c3b766e260001b6112a8565b6117517ff4af82a3bf09603cb661fa265bb68889295487604d8c7161ebae5f8ada26271860001b6112a8565b61177d7fe4376b685d5a2c04e7bff4f20a992d0dbedbfa14ef893ed6ef085377dc0b222860001b6112a8565b6118578a8a8080601f016020809104026020016040519081016040528093929190818152602001838380828437600081840152601f19601f8201169050808301925050505050505089898080601f016020809104026020016040519081016040528093929190818152602001838380828437600081840152601f19601f82011690508083019250505050505050888888888080601f016020809104026020016040519081016040528093929190818152602001838380828437600081840152601f19601f8201169050808301925050505050505087612b64565b90509998505050505050505050565b60606004805461187590614434565b80601f01602080910402602001604051908101604052809291908181526020018280546118a190614434565b80156118ee5780601f106118c3576101008083540402835291602001916118ee565b820191906000526020600020905b8154815290600101906020018083116118d157829003601f168201915b5050505050905090565b6000806001600061190761256e565b73ffffffffffffffffffffffffffffffffffffffff1673ffffffffffffffffffffffffffffffffffffffff16815260200190815260200160002060008573ffffffffffffffffffffffffffffffffffffffff1673ffffffffffffffffffffffffffffffffffffffff168152602001908152602001600020549050828110156119c4576040517f08c379a00000000000000000000000000000000000000000000000000000000081526004016119bb906141b6565b60405180910390fd5b6119d86119cf61256e565b85858403612576565b600191505092915050565b60006119f76119f061256e565b8484612741565b6001905092915050565b6000611a2f7f8992ea34de2b3f4686b86f21f6ff24893ae0368fbc05b3a6f5b772a6339a01e660001b6112a8565b611a5b7f37a688a0774676ea7c7fa6fd5ea99387f14d6fe9cfd39743deebba8c0bc9b9d160001b6112a8565b611a877f05334b618dd9f6ee9b09aab11ba870441f1f6b58d89437131b3ccc8cd698292a60001b6112a8565b8173ffffffffffffffffffffffffffffffffffffffff16600a60009054906101000a900473ffffffffffffffffffffffffffffffffffffffff1673ffffffffffffffffffffffffffffffffffffffff16149050919050565b611b0b7f18787825851063fcd1ebdd505978471b4a59b858a48e2a5c5472b9b72d60eaa460001b6112a8565b611b377f673a2179eb06bff5725867020bd5a2c2a038d617509a0d808172834738c653c060001b6112a8565b611b637f36aaf0abfbc39fdf4533d290b8a3611f356a69b4be292eb8c619aaa066ea8b5f60001b6112a8565b6000611b917fbe07040c3bff38d2d5619fb3647b6eca66dc2fa893adf1d7e5148e565d0a039660001b6112a8565b611bbd7f4adf5a7be68df2d4cb530714e272f004f14c70e59065518b72823d0455a8f83d60001b6112a8565b6000611bde856103e8670de0b6b3a7640000611bd991906142e3565b6107f0565b9050611c0c7fc96d8b93b87be09c87700dd2af7ec3d850b8a619e9fdfa5f0fbcfdcac1b097e460001b6112a8565b611c387f5b849cd6260a3e6b15339d49fcd6f3c6bc3c19f1033c8ad2c1103a6623f78fce60001b6112a8565b611c64600960009054906101000a900473ffffffffffffffffffffffffffffffffffffffff16826119e3565b50611c917f5e31e19374df413684290febb9e1c3df264581ff91e97b720a3436e748be8cf260001b6112a8565b611cbd7f54de86d0497c20111f8a743560e5e4d890aa75f2eab897c376341d78a438b45a60001b6112a8565b600073ffffffffffffffffffffffffffffffffffffffff168373ffffffffffffffffffffffffffffffffffffffff1614611dfe57611d1d7f6b2d530427a81b06b4c4551eb3fd827e1746f973af633913b2fa1c658b25f12c60001b6112a8565b611d497f4dfeafa35af79872d6829d894762dc6e4e056d25ddd7f8fe4937b3a21511b04c60001b6112a8565b611d757f7b57e0eddc4e79bd00107a141f7ae8bcbd15f700e2a948f6180b95f49e8a5abc60001b6112a8565b611d94856103e8670de0b6b3a7640000611d8f91906142e3565b6107f0565b9150611dc27f753fbf4536c1bb00f89e40d7a91c95e55644b29137f933d6c27945191fa1f72860001b6112a8565b611dee7f9781c4a930708fe72dfcbe77a64a834bf998f2dfbfd4fbbf65d2655b4d13a6dc60001b6112a8565b611df883836119e3565b50611e2b565b611e2a7f3659653483fc149f7d1bf3810949f825c701df380c121848696ba08a4f89cd4f60001b6112a8565b5b611e577fce2475bffe4c5d26fb885f684b7a1b4d9914d6a39e8b00d83c877a2cec129d1060001b6112a8565b611e837fd8d73056c25679675d4b7aa5628822aefff4e56431308211e7801ed3ae0be82c60001b6112a8565b6000611e9883836129ee90919063ffffffff16565b9050611ec67f2068c0cf140eaf9ad6bea3354d55549dd8a16f66874a2b53dfe79b527d3a60ce60001b6112a8565b611ef27f9d2a64d70052d5fda08303ad39c6570d2b89eda8743a0191cf69e12ad413298060001b6112a8565b611f30600a60009054906101000a900473ffffffffffffffffffffffffffffffffffffffff16611f2b83896133cc90919063ffffffff16565b6119e3565b50611f5d7fab2435b6c06696621b35c32319ca666b4040500edba5d9061e158e74f089897b60001b6112a8565b611f897f3286d469128c0045c59f42d99ee4eb16cb9f71db762ac9a7ba09bc553e47718760001b6112a8565b8373ffffffffffffffffffffffffffffffffffffffff163373ffffffffffffffffffffffffffffffffffffffff168873ffffffffffffffffffffffffffffffffffffffff167fe1c4fa794edfa8f619b8257a077398950357b9c6398528f94480307352f9afcc898942896040516120039493929190614211565b60405180910390a450505050505050565b6103e8670de0b6b3a764000061202a91906142e3565b81565b6000600160008473ffffffffffffffffffffffffffffffffffffffff1673ffffffffffffffffffffffffffffffffffffffff16815260200190815260200160002060008373ffffffffffffffffffffffffffffffffffffffff1673ffffffffffffffffffffffffffffffffffffffff16815260200190815260200160002054905092915050565b6120e07f925b8bc9e9c2a323fe83298e6d56a1c19fb28bb7b8bdbd9f4a76b499cbb1dee960001b6112a8565b61210c7f3cd35a09ae7a88b55e7fcdd91d432f8b067505f77b47a59e3bd2681e85377b9a60001b6112a8565b6121387f223ec32ae9cfcb08c25ad68c0d177817ea83cfff1fc7a3067e270562e5add56860001b6112a8565b6121647f3fea1261e5ad5ea8680a4fc40fdb8586ab51fc437c743bdc6dccddcb912a1fad60001b6112a8565b600b60009054906101000a900473ffffffffffffffffffffffffffffffffffffffff1673ffffffffffffffffffffffffffffffffffffffff163373ffffffffffffffffffffffffffffffffffffffff16146121f4576040517f08c379a00000000000000000000000000000000000000000000000000000000081526004016121eb906140d6565b60405180910390fd5b6122207f511111dff37a2f2817789d7931088df38886fb85cfdfa99b9e3d45711f3a197660001b6112a8565b61224c7f6d57b5a6141899f3ce4074d9df0b11a029c1e214cf563856c2b7d939984b305c60001b6112a8565b6122787f2d8a7b301a4b1cdd08969130fe66d9da06cd19fd7d757a057f0b7343ca94dc1360001b6112a8565b7f96ab0400119a548d3cc4c74e857d0d9c427fe9df20d3d0d99af10cc292e6c886600a60009054906101000a900473ffffffffffffffffffffffffffffffffffffffff16600b60009054906101000a900473ffffffffffffffffffffffffffffffffffffffff166040516122ed929190613f2b565b60405180910390a16123217f9028f74d6a540c8df6e4ba73194100e66a78b4b096c4c92e243de27cf23574c860001b6112a8565b61234d7f353d1b9c4e4593377f061575cb8332cb27e6a30c01c1bd957696f339344deef960001b6112a8565b600b60009054906101000a900473ffffffffffffffffffffffffffffffffffffffff16600a60006101000a81548173ffffffffffffffffffffffffffffffffffffffff021916908373ffffffffffffffffffffffffffffffffffffffff1602179055506123dc7fd48a6824e369a68c91c20e2c9854361ac5db1cd886c359ed0a7cb83e4879689d60001b6112a8565b6124087fff1ecea12351ce6f66921d479b7d64842d518acbb20c77ed37f67bd2d1ae228260001b6112a8565b6000600b60006101000a81548173ffffffffffffffffffffffffffffffffffffffff021916908373ffffffffffffffffffffffffffffffffffffffff160217905550565b670de0b6b3a764000081565b60606124867f25bbe4c30bfed8f48933a6962da1c302304f822a7186a36969ff74cab747d4eb60001b6112a8565b6124b27f6f292f242e5a6c1d2a3b064872cd0beba7ff972c5adf67eec8d7d60e91ad507f60001b6112a8565b6124de7f3e12757d6e1d73f66704ae2b9fdc31cff5a6439d85eaf842dc0f5b2f80fef15160001b6112a8565b600780546124eb90614434565b80601f016020809104026020016040519081016040528092919081815260200182805461251790614434565b80156125645780601f1061253957610100808354040283529160200191612564565b820191906000526020600020905b81548152906001019060200180831161254757829003601f168201915b5050505050905090565b600033905090565b600073ffffffffffffffffffffffffffffffffffffffff168373ffffffffffffffffffffffffffffffffffffffff1614156125e6576040517f08c379a00000000000000000000000000000000000000000000000000000000081526004016125dd90614176565b60405180910390fd5b600073ffffffffffffffffffffffffffffffffffffffff168273ffffffffffffffffffffffffffffffffffffffff161415612656576040517f08c379a000000000000000000000000000000000000000000000000000000000815260040161264d90613ff6565b60405180910390fd5b80600160008573ffffffffffffffffffffffffffffffffffffffff1673ffffffffffffffffffffffffffffffffffffffff16815260200190815260200160002060008473ffffffffffffffffffffffffffffffffffffffff1673ffffffffffffffffffffffffffffffffffffffff168152602001908152602001600020819055508173ffffffffffffffffffffffffffffffffffffffff168373ffffffffffffffffffffffffffffffffffffffff167f8c5be1e5ebec7d5bd14f71427d1e84f3dd0314c0f7b2291e5b200ac8c7c3b9258360405161273491906141f6565b60405180910390a3505050565b600073ffffffffffffffffffffffffffffffffffffffff168373ffffffffffffffffffffffffffffffffffffffff1614156127b1576040517f08c379a00000000000000000000000000000000000000000000000000000000081526004016127a890614156565b60405180910390fd5b600073ffffffffffffffffffffffffffffffffffffffff168273ffffffffffffffffffffffffffffffffffffffff161415612821576040517f08c379a000000000000000000000000000000000000000000000000000000000815260040161281890613fd6565b60405180910390fd5b61282c8383836133e2565b60008060008573ffffffffffffffffffffffffffffffffffffffff1673ffffffffffffffffffffffffffffffffffffffff168152602001908152602001600020549050818110156128b2576040517f08c379a00000000000000000000000000000000000000000000000000000000081526004016128a990614056565b60405180910390fd5b8181036000808673ffffffffffffffffffffffffffffffffffffffff1673ffffffffffffffffffffffffffffffffffffffff16815260200190815260200160002081905550816000808573ffffffffffffffffffffffffffffffffffffffff1673ffffffffffffffffffffffffffffffffffffffff1681526020019081526020016000206000828254612945919061428d565b925050819055508273ffffffffffffffffffffffffffffffffffffffff168473ffffffffffffffffffffffffffffffffffffffff167fddf252ad1be2c89b69c2b068fc378daa952ba7f163c4a11628f55a4df523b3ef846040516129a991906141f6565b60405180910390a36129bc8484846133e7565b50505050565b600081836129d09190614314565b905092915050565b600081836129e691906142e3565b905092915050565b600081836129fc919061428d565b905092915050565b600073ffffffffffffffffffffffffffffffffffffffff168273ffffffffffffffffffffffffffffffffffffffff161415612a74576040517f08c379a0000000000000000000000000000000000000000000000000000000008152600401612a6b906141d6565b60405180910390fd5b612a80600083836133e2565b8060026000828254612a92919061428d565b92505081905550806000808473ffffffffffffffffffffffffffffffffffffffff1673ffffffffffffffffffffffffffffffffffffffff1681526020019081526020016000206000828254612ae7919061428d565b925050819055508173ffffffffffffffffffffffffffffffffffffffff16600073ffffffffffffffffffffffffffffffffffffffff167fddf252ad1be2c89b69c2b068fc378daa952ba7f163c4a11628f55a4df523b3ef83604051612b4c91906141f6565b60405180910390a3612b60600083836133e7565b5050565b6000612b927f821a6bed24a0194bfd3a254532ebca49b5aaed4e241efeda52d2133972fbb52a60001b6112a8565b612bbe7f6ed24ddbb0a9cbf2382699762f900d8cac8a2bc384a1e7a7d4f89660cdfba84b60001b6112a8565b612bea7fe6117a8cc901eaacda4f1c39977816f069b9cf288d9651217e4350d1ff86c90960001b6112a8565b612c167f324bef086d873bceca2112ab46ceb844b52a5c15726b117e212d5f098a4c5bd260001b6112a8565b600073ffffffffffffffffffffffffffffffffffffffff168573ffffffffffffffffffffffffffffffffffffffff161415612c86576040517f08c379a0000000000000000000000000000000000000000000000000000000008152600401612c7d90614096565b60405180910390fd5b612cb27fb17110dbd00786c8d4edcfcd768fb120dd7218f7ecf4e27fcbbe928d7acefebe60001b6112a8565b612cde7f758e690bdfe110524e3219fe4b7bea2918442a3861eca7a74a204a9c7e05d70760001b6112a8565b612d0a7f105a558121ae5691fb008fb5ecc7376ce305f697dfac95ca309c5a48735ae81c60001b6112a8565b612d367f56caa3007ad2bce9664e42f07ac75cc469ed6ba9ad62d71877c143ecf680173960001b6112a8565b600073ffffffffffffffffffffffffffffffffffffffff16600a60009054906101000a900473ffffffffffffffffffffffffffffffffffffffff1673ffffffffffffffffffffffffffffffffffffffff1614612dc7576040517f08c379a0000000000000000000000000000000000000000000000000000000008152600401612dbe90614136565b60405180910390fd5b612df37fb273cda5936df23850be1a86cb2bc9bd664eb237562b7b327c6f33f2bb491bef60001b6112a8565b612e1f7fb18b56af3a82aad9de39801ed5788b93d757f5b6a680be45c8699175a2eb8e1d60001b6112a8565b612e4b7f920bfb008ff7954e3d7464f2086345cee2574fa38e22a7b9334257004a4785aa60001b6112a8565b612e777f3b7922985441370a28723990adc0714cda138eb3d36f222b75fa36e0f03b1afa60001b6112a8565b600073ffffffffffffffffffffffffffffffffffffffff168273ffffffffffffffffffffffffffffffffffffffff161415612ee7576040517f08c379a0000000000000000000000000000000000000000000000000000000008152600401612ede906140b6565b60405180910390fd5b612f137f86af6fb3748b823a542531e09185d3c8e3c612ea22dd9f5acb986cdf4d88e27660001b6112a8565b612f3f7f6f81cd10be6a5fb2f54d1c7e9bd2b28b6defb85e49d4664c8bd40e3cc354cea360001b6112a8565b612f6b7f32d336572ae934f29211c613d2f59368d46d7e5587d3c4ad43f7f8a42969c57860001b6112a8565b612f977fb47762a52f39b69bb619d43ca6b5effc3ceef899d9fa1f699b8778120710fe3660001b6112a8565b6000841415612fdb576040517f08c379a0000000000000000000000000000000000000000000000000000000008152600401612fd2906140f6565b60405180910390fd5b6130077fc2b0a773bbb18adab412f8bd541aeff094ad7d94841861c22cc1548ede1bdae560001b6112a8565b6130337fbe65c36115b6fdf7a981a2c734d6b1311f979f1b2576d77462ca1332aa200e6660001b6112a8565b61305f7f43e1cef4d2abd8a4ebf38ebcf1a8acaed4480a874583d547e28af6476aab745d60001b6112a8565b836008819055506130927f0bb0a90c4bb8dae1bc49930b66eeaffa1bf1d145be782fedb5f02fe4b248fddb60001b6112a8565b6130be7f034bbe68fd234093be27869d3f22001d525e8dd7a2cc3b6f27cfba9a3622426360001b6112a8565b86600590805190602001906130d49291906133ec565b506131017f10b09808bbb98b2a93a6a2daa7ff3114b5de6b388f728dbdfd03888d4e2eddd160001b6112a8565b61312d7fa0c3f0a351f475d5a085c482d6f44378c3136dc2f534ba5288d15c65a7dba6ef60001b6112a8565b82600790805190602001906131439291906133ec565b506131707fead8a4978fcbea4ff235c0010f81d942ef82f6a9b5f374845967dc5680761f4660001b6112a8565b61319c7f9809b6db4ad447c60439dd9e97c8d9b6c768c15f1b716c54c542e9749f36488560001b6112a8565b85600690805190602001906131b29291906133ec565b506131df7f71377d0cef9654d05eba3a677b780683c1a5046db114efb774ef96447d5fd87a60001b6112a8565b61320b7f39054def3a9b6e3cf097f2ca444cb5b3b917f09c776e54a3d37911afc2e8dcb060001b6112a8565b84600a60006101000a81548173ffffffffffffffffffffffffffffffffffffffff021916908373ffffffffffffffffffffffffffffffffffffffff1602179055506132787f3db209f547b454fe83480534b645b249d6e52141793d4870e9d9fa0e9555fa4e60001b6112a8565b6132a47fee2a39f587e5dbfd83693f0066249feeb49d9411f602ab697e918943b4bab39560001b6112a8565b81600960006101000a81548173ffffffffffffffffffffffffffffffffffffffff021916908373ffffffffffffffffffffffffffffffffffffffff1602179055506133117fbf63a9208d5fec43262af4587c456d95f814469a5b21dcfec8bc13934118487b60001b6112a8565b61333d7f7a3c06507b239e73415097bb5a4d24f8e07117e0fb323548786180428013a4c560001b6112a8565b6001600960146101000a81548160ff0219169083151502179055506133847f04a3e811666dacd89f89789ff704ae25d7b55ae2bb5edd8fe7f5098dbdc5488960001b6112a8565b6133b07f95a24544ffd8d4a68b3b9346e70194510f112d7a1a5ec6b11ca7e9e4123959ce60001b6112a8565b600960149054906101000a900460ff1690509695505050505050565b600081836133da919061436e565b905092915050565b505050565b505050565b8280546133f890614434565b90600052602060002090601f01602090048101928261341a5760008555613461565b82601f1061343357805160ff1916838001178555613461565b82800160010185558215613461579182015b82811115613460578251825591602001919060010190613445565b5b50905061346e9190613472565b5090565b5b8082111561348b576000816000905550600101613473565b5090565b60008135905061349e81614504565b92915050565b6000813590506134b38161451b565b92915050565b60008083601f8401126134cb57600080fd5b8235905067ffffffffffffffff8111156134e457600080fd5b6020830191508360018202830111156134fc57600080fd5b9250929050565b60008135905061351281614532565b92915050565b60006020828403121561352a57600080fd5b60006135388482850161348f565b91505092915050565b6000806040838503121561355457600080fd5b60006135628582860161348f565b92505060206135738582860161348f565b9150509250929050565b60008060006060848603121561359257600080fd5b60006135a08682870161348f565b93505060206135b18682870161348f565b92505060406135c286828701613503565b9150509250925092565b600080604083850312156135df57600080fd5b60006135ed8582860161348f565b92505060206135fe85828601613503565b9150509250929050565b6000806000806080858703121561361e57600080fd5b600061362c8782880161348f565b945050602061363d87828801613503565b935050604061364e87828801613503565b925050606061365f8782880161348f565b91505092959194509250565b60006020828403121561367d57600080fd5b600061368b848285016134a4565b91505092915050565b600080600080608085870312156136aa57600080fd5b60006136b8878288016134a4565b94505060206136c98782880161348f565b93505060406136da87828801613503565b92505060606136eb87828801613503565b91505092959194509250565b600080600080600080600080600060c08a8c03121561371557600080fd5b60008a013567ffffffffffffffff81111561372f57600080fd5b61373b8c828d016134b9565b995099505060208a013567ffffffffffffffff81111561375a57600080fd5b6137668c828d016134b9565b975097505060406137798c828d0161348f565b955050606061378a8c828d01613503565b94505060808a013567ffffffffffffffff8111156137a757600080fd5b6137b38c828d016134b9565b935093505060a06137c68c828d0161348f565b9150509295985092959850929598565b600080604083850312156137e957600080fd5b60006137f785828601613503565b925050602061380885828601613503565b9150509250929050565b61381b816143a2565b82525050565b61382a816143b4565b82525050565b613839816143c0565b82525050565b600061384a82614271565b613854818561427c565b9350613864818560208601614401565b61386d816144f3565b840191505092915050565b600061388560238361427c565b91507f45524332303a207472616e7366657220746f20746865207a65726f206164647260008301527f65737300000000000000000000000000000000000000000000000000000000006020830152604082019050919050565b60006138eb60228361427c565b91507f45524332303a20617070726f766520746f20746865207a65726f20616464726560008301527f73730000000000000000000000000000000000000000000000000000000000006020830152604082019050919050565b600061395160358361427c565b91507f44617461546f6b656e54656d706c6174653a20746f6b656e20696e7374616e6360008301527f6520616c726561647920696e697469616c697a656400000000000000000000006020830152604082019050919050565b60006139b760218361427c565b91507f44617461546f6b656e54656d706c6174653a20696e76616c6964206d696e746560008301527f72000000000000000000000000000000000000000000000000000000000000006020830152604082019050919050565b6000613a1d60268361427c565b91507f45524332303a207472616e7366657220616d6f756e742065786365656473206260008301527f616c616e636500000000000000000000000000000000000000000000000000006020830152604082019050919050565b6000613a8360298361427c565b91507f44617461546f6b656e54656d706c6174653a206661696c656420746f2066696e60008301527f697368206f7264657200000000000000000000000000000000000000000000006020830152604082019050919050565b6000613ae960308361427c565b91507f44617461546f6b656e54656d706c6174653a20496e76616c6964206d696e746560008301527f722c20207a65726f2061646472657373000000000000000000000000000000006020830152604082019050919050565b6000613b4f60408361427c565b91507f44617461546f6b656e54656d706c6174653a20496e76616c696420636f6d6d7560008301527f6e6974792066656520636f6c6c6563746f722c207a65726f20616464726573736020830152604082019050919050565b6000613bb560328361427c565b91507f44617461546f6b656e54656d706c6174653a20696e76616c69642070726f706f60008301527f736564206d696e746572206164647265737300000000000000000000000000006020830152604082019050919050565b6000613c1b60248361427c565b91507f44617461546f6b656e54656d706c6174653a20496e76616c696420636170207660008301527f616c7565000000000000000000000000000000000000000000000000000000006020830152604082019050919050565b6000613c8160288361427c565b91507f45524332303a207472616e7366657220616d6f756e742065786365656473206160008301527f6c6c6f77616e63650000000000000000000000000000000000000000000000006020830152604082019050919050565b6000613ce7602f8361427c565b91507f44617461546f6b656e54656d706c6174653a20496e76616c6964206d696e746560008301527f722c207a65726f206164647265737300000000000000000000000000000000006020830152604082019050919050565b6000613d4d60258361427c565b91507f45524332303a207472616e736665722066726f6d20746865207a65726f20616460008301527f64726573730000000000000000000000000000000000000000000000000000006020830152604082019050919050565b6000613db360248361427c565b91507f45524332303a20617070726f76652066726f6d20746865207a65726f2061646460008301527f72657373000000000000000000000000000000000000000000000000000000006020830152604082019050919050565b6000613e19601f8361427c565b91507f44617461546f6b656e54656d706c6174653a20636170206578636565646564006000830152602082019050919050565b6000613e5960258361427c565b91507f45524332303a2064656372656173656420616c6c6f77616e63652062656c6f7760008301527f207a65726f0000000000000000000000000000000000000000000000000000006020830152604082019050919050565b6000613ebf601f8361427c565b91507f45524332303a206d696e7420746f20746865207a65726f2061646472657373006000830152602082019050919050565b613efb816143ea565b82525050565b613f0a816143f4565b82525050565b6000602082019050613f256000830184613812565b92915050565b6000604082019050613f406000830185613812565b613f4d6020830184613812565b9392505050565b6000602082019050613f696000830184613821565b92915050565b6000608082019050613f846000830187613830565b613f916020830186613ef2565b613f9e6040830185613ef2565b613fab6060830184613ef2565b95945050505050565b60006020820190508181036000830152613fce818461383f565b905092915050565b60006020820190508181036000830152613fef81613878565b9050919050565b6000602082019050818103600083015261400f816138de565b9050919050565b6000602082019050818103600083015261402f81613944565b9050919050565b6000602082019050818103600083015261404f816139aa565b9050919050565b6000602082019050818103600083015261406f81613a10565b9050919050565b6000602082019050818103600083015261408f81613a76565b9050919050565b600060208201905081810360008301526140af81613adc565b9050919050565b600060208201905081810360008301526140cf81613b42565b9050919050565b600060208201905081810360008301526140ef81613ba8565b9050919050565b6000602082019050818103600083015261410f81613c0e565b9050919050565b6000602082019050818103600083015261412f81613c74565b9050919050565b6000602082019050818103600083015261414f81613cda565b9050919050565b6000602082019050818103600083015261416f81613d40565b9050919050565b6000602082019050818103600083015261418f81613da6565b9050919050565b600060208201905081810360008301526141af81613e0c565b9050919050565b600060208201905081810360008301526141cf81613e4c565b9050919050565b600060208201905081810360008301526141ef81613eb2565b9050919050565b600060208201905061420b6000830184613ef2565b92915050565b60006080820190506142266000830187613ef2565b6142336020830186613ef2565b6142406040830185613ef2565b61424d6060830184613ef2565b95945050505050565b600060208201905061426b6000830184613f01565b92915050565b600081519050919050565b600082825260208201905092915050565b6000614298826143ea565b91506142a3836143ea565b9250827fffffffffffffffffffffffffffffffffffffffffffffffffffffffffffffffff038211156142d8576142d7614466565b5b828201905092915050565b60006142ee826143ea565b91506142f9836143ea565b92508261430957614308614495565b5b828204905092915050565b600061431f826143ea565b915061432a836143ea565b9250817fffffffffffffffffffffffffffffffffffffffffffffffffffffffffffffffff048311821515161561436357614362614466565b5b828202905092915050565b6000614379826143ea565b9150614384836143ea565b92508282101561439757614396614466565b5b828203905092915050565b60006143ad826143ca565b9050919050565b60008115159050919050565b6000819050919050565b600073ffffffffffffffffffffffffffffffffffffffff82169050919050565b6000819050919050565b600060ff82169050919050565b60005b8381101561441f578082015181840152602081019050614404565b8381111561442e576000848401525b50505050565b6000600282049050600182168061444c57607f821691505b602082108114156144605761445f6144c4565b5b50919050565b7f4e487b7100000000000000000000000000000000000000000000000000000000600052601160045260246000fd5b7f4e487b7100000000000000000000000000000000000000000000000000000000600052601260045260246000fd5b7f4e487b7100000000000000000000000000000000000000000000000000000000600052602260045260246000fd5b6000601f19601f8301169050919050565b61450d816143a2565b811461451857600080fd5b50565b614524816143c0565b811461452f57600080fd5b50565b61453b816143ea565b811461454657600080fd5b5056fea264697066735822122080d1701e52809cefbd4a06c81604b7f0452c093f43514166adcd43386ec2e92564736f6c63430008000033",
  "linkReferences": {},
  "deployedLinkReferences": {}
}