{
  "_format": "hh-sol-artifact-1",
  "contractName": "ERC20Roles",
  "sourceName": "contracts/utils/ERC20Roles.sol",
  "abi": [
    {
      "inputs": [
        {
          "internalType": "uint256",
          "name": "",
          "type": "uint256"
        }
      ],
      "name": "authERC20",
      "outputs": [
        {
          "internalType": "address",
          "name": "",
          "type": "address"
        }
      ],
      "stateMutability": "view",
      "type": "function"
    },
    {
      "inputs": [
        {
          "internalType": "bytes32",
          "name": "c__0x3c34abf5",
          "type": "bytes32"
        }
      ],
      "name": "c_0x3c34abf5",
      "outputs": [],
      "stateMutability": "pure",
      "type": "function"
    },
    {
      "inputs": [
        {
          "internalType": "address",
          "name": "",
          "type": "address"
        }
      ],
      "name": "permissions",
      "outputs": [
        {
          "internalType": "bool",
          "name": "minter",
          "type": "bool"
        },
        {
          "internalType": "bool",
          "name": "feeManager",
          "type": "bool"
        }
      ],
      "stateMutability": "view",
      "type": "function"
    }
  ],
  "bytecode": "0x608060405234801561001057600080fd5b5061032c806100206000396000f3fe608060405234801561001057600080fd5b50600436106100415760003560e01c806301e88208146100465780634e3bb3d414610077578063ef867ff414610093575b600080fd5b610060600480360381019061005b9190610182565b6100c3565b60405161006e929190610236565b60405180910390f35b610091600480360381019061008c91906101ab565b610101565b005b6100ad60048036038101906100a891906101d4565b610104565b6040516100ba919061021b565b60405180910390f35b60006020528060005260406000206000915090508060000160009054906101000a900460ff16908060000160019054906101000a900460ff16905082565b50565b6001818154811061011457600080fd5b906000526020600020016000915054906101000a900473ffffffffffffffffffffffffffffffffffffffff1681565b600081359050610152816102b1565b92915050565b600081359050610167816102c8565b92915050565b60008135905061017c816102df565b92915050565b60006020828403121561019457600080fd5b60006101a284828501610143565b91505092915050565b6000602082840312156101bd57600080fd5b60006101cb84828501610158565b91505092915050565b6000602082840312156101e657600080fd5b60006101f48482850161016d565b91505092915050565b6102068161025f565b82525050565b61021581610271565b82525050565b600060208201905061023060008301846101fd565b92915050565b600060408201905061024b600083018561020c565b610258602083018461020c565b9392505050565b600061026a82610287565b9050919050565b60008115159050919050565b6000819050919050565b600073ffffffffffffffffffffffffffffffffffffffff82169050919050565b6000819050919050565b6102ba8161025f565b81146102c557600080fd5b50565b6102d18161027d565b81146102dc57600080fd5b50565b6102e8816102a7565b81146102f357600080fd5b5056fea2646970667358221220c32933ff28534e859667ae7d32a79fa4df5503580a5dc9d5a05ce5a080f3ff5964736f6c63430008000033",
  "linkReferences": {},
  "deployedLinkReferences": {}
}