{
  "_format": "hh-sol-artifact-1",
  "contractName": "ERC20Roles",
  "sourceName": "contracts/utils/ERC20Roles.sol",
  "abi": [
    {
      "inputs": [
        {
          "internalType": "uint256",
          "name": "",
          "type": "uint256"
        }
      ],
      "name": "authERC20",
      "outputs": [
        {
          "internalType": "address",
          "name": "",
          "type": "address"
        }
      ],
      "stateMutability": "view",
      "type": "function"
    },
    {
      "inputs": [
        {
          "internalType": "address",
          "name": "",
          "type": "address"
        }
      ],
      "name": "permissions",
      "outputs": [
        {
          "internalType": "bool",
          "name": "minter",
          "type": "bool"
        },
        {
          "internalType": "bool",
          "name": "feeManager",
          "type": "bool"
        }
      ],
      "stateMutability": "view",
      "type": "function"
    }
  ],
  "bytecode": "0x608060405234801561001057600080fd5b5061016f806100206000396000f3fe608060405234801561001057600080fd5b50600436106100365760003560e01c806301e882081461003b578063ef867ff414610065575b600080fd5b61004e6100493660046100cd565b610085565b60405161005c929190610127565b60405180910390f35b6100786100733660046100fb565b6100a3565b60405161005c9190610113565b60006020819052908152604090205460ff8082169161010090041682565b600181815481106100b357600080fd5b6000918252602090912001546001600160a01b0316905081565b6000602082840312156100de578081fd5b81356001600160a01b03811681146100f4578182fd5b9392505050565b60006020828403121561010c578081fd5b5035919050565b6001600160a01b0391909116815260200190565b9115158252151560208201526040019056fea26469706673582212206fa57464a9836742ccf15f54eac491f380a1c03066f6235ceb4af3ad081c419364736f6c63430008000033",
  "linkReferences": {},
  "deployedLinkReferences": {}
}