{
  "_format": "hh-sol-artifact-1",
  "contractName": "SideStaking",
  "sourceName": "contracts/pools/ssContracts/SideStaking.sol",
  "abi": [
    {
      "inputs": [
        {
          "internalType": "address",
          "name": "_router",
          "type": "address"
        }
      ],
      "stateMutability": "nonpayable",
      "type": "constructor"
    },
    {
      "inputs": [
        {
          "internalType": "address",
          "name": "datatokenAddress",
          "type": "address"
        },
        {
          "internalType": "address",
          "name": "stakeToken",
          "type": "address"
        },
        {
          "internalType": "uint256",
          "name": "amount",
          "type": "uint256"
        }
      ],
      "name": "Stake",
      "outputs": [],
      "stateMutability": "nonpayable",
      "type": "function"
    },
    {
      "inputs": [
        {
          "internalType": "address",
          "name": "datatokenAddress",
          "type": "address"
        },
        {
          "internalType": "address",
          "name": "stakeToken",
          "type": "address"
        },
        {
          "internalType": "uint256",
          "name": "dtAmountIn",
          "type": "uint256"
        },
        {
          "internalType": "uint256",
          "name": "poolAmountOut",
          "type": "uint256"
        }
      ],
      "name": "UnStake",
      "outputs": [],
      "stateMutability": "nonpayable",
      "type": "function"
    },
    {
      "inputs": [
        {
          "internalType": "address",
          "name": "datatokenAddress",
          "type": "address"
        },
        {
          "internalType": "address",
          "name": "stakeToken",
          "type": "address"
        },
        {
          "internalType": "uint256",
          "name": "amount",
          "type": "uint256"
        }
      ],
      "name": "canStake",
      "outputs": [
        {
          "internalType": "bool",
          "name": "",
          "type": "bool"
        }
      ],
      "stateMutability": "view",
      "type": "function"
    },
    {
      "inputs": [
        {
          "internalType": "address",
          "name": "datatokenAddress",
          "type": "address"
        },
        {
          "internalType": "address",
          "name": "stakeToken",
          "type": "address"
        },
        {
          "internalType": "uint256",
          "name": "lptIn",
          "type": "uint256"
        }
      ],
      "name": "canUnStake",
      "outputs": [
        {
          "internalType": "bool",
          "name": "",
          "type": "bool"
        }
      ],
      "stateMutability": "view",
      "type": "function"
    },
    {
      "inputs": [
        {
          "internalType": "address",
          "name": "datatokenAddress",
          "type": "address"
        }
      ],
      "name": "getBaseTokenAddress",
      "outputs": [
        {
          "internalType": "address",
          "name": "",
          "type": "address"
        }
      ],
      "stateMutability": "view",
      "type": "function"
    },
    {
      "inputs": [
        {
          "internalType": "address",
          "name": "datatokenAddress",
          "type": "address"
        }
      ],
      "name": "getBaseTokenBalance",
      "outputs": [
        {
          "internalType": "uint256",
          "name": "",
          "type": "uint256"
        }
      ],
      "stateMutability": "view",
      "type": "function"
    },
    {
      "inputs": [
        {
          "internalType": "address",
          "name": "datatokenAddress",
          "type": "address"
        }
      ],
      "name": "getDataTokenBalance",
      "outputs": [
        {
          "internalType": "uint256",
          "name": "",
          "type": "uint256"
        }
      ],
      "stateMutability": "view",
      "type": "function"
    },
    {
      "inputs": [
        {
          "internalType": "address",
          "name": "datatokenAddress",
          "type": "address"
        }
      ],
      "name": "getDataTokenCirculatingSupply",
      "outputs": [
        {
          "internalType": "uint256",
          "name": "",
          "type": "uint256"
        }
      ],
      "stateMutability": "view",
      "type": "function"
    },
    {
      "inputs": [
        {
          "internalType": "address",
          "name": "datatokenAddress",
          "type": "address"
        }
      ],
      "name": "getDataTokenCurrentCirculatingSupply",
      "outputs": [
        {
          "internalType": "uint256",
          "name": "",
          "type": "uint256"
        }
      ],
      "stateMutability": "view",
      "type": "function"
    },
    {
      "inputs": [
        {
          "internalType": "address",
          "name": "datatokenAddress",
          "type": "address"
        }
      ],
      "name": "getPoolAddress",
      "outputs": [
        {
          "internalType": "address",
          "name": "",
          "type": "address"
        }
      ],
      "stateMutability": "view",
      "type": "function"
    },
    {
      "inputs": [
        {
          "internalType": "address",
          "name": "datatokenAddress",
          "type": "address"
        }
      ],
      "name": "getPublisherAddress",
      "outputs": [
        {
          "internalType": "address",
          "name": "",
          "type": "address"
        }
      ],
      "stateMutability": "view",
      "type": "function"
    },
    {
      "inputs": [
        {
          "internalType": "address",
          "name": "datatokenAddress",
          "type": "address"
        }
      ],
      "name": "getVesting",
      "outputs": [],
      "stateMutability": "nonpayable",
      "type": "function"
    },
    {
      "inputs": [
        {
          "internalType": "address",
          "name": "datatokenAddress",
          "type": "address"
        }
      ],
      "name": "getvestingAmount",
      "outputs": [
        {
          "internalType": "uint256",
          "name": "",
          "type": "uint256"
        }
      ],
      "stateMutability": "view",
      "type": "function"
    },
    {
      "inputs": [
        {
          "internalType": "address",
          "name": "datatokenAddress",
          "type": "address"
        }
      ],
      "name": "getvestingAmountSoFar",
      "outputs": [
        {
          "internalType": "uint256",
          "name": "",
          "type": "uint256"
        }
      ],
      "stateMutability": "view",
      "type": "function"
    },
    {
      "inputs": [
        {
          "internalType": "address",
          "name": "datatokenAddress",
          "type": "address"
        }
      ],
      "name": "getvestingEndBlock",
      "outputs": [
        {
          "internalType": "uint256",
          "name": "",
          "type": "uint256"
        }
      ],
      "stateMutability": "view",
      "type": "function"
    },
    {
      "inputs": [
        {
          "internalType": "address",
          "name": "datatokenAddress",
          "type": "address"
        }
      ],
      "name": "getvestingLastBlock",
      "outputs": [
        {
          "internalType": "uint256",
          "name": "",
          "type": "uint256"
        }
      ],
      "stateMutability": "view",
      "type": "function"
    },
    {
      "inputs": [
        {
          "internalType": "address",
          "name": "datatokenAddress",
          "type": "address"
        },
        {
          "internalType": "address",
          "name": "basetokenAddress",
          "type": "address"
        },
        {
          "internalType": "address",
          "name": "poolAddress",
          "type": "address"
        },
        {
          "internalType": "address",
          "name": "publisherAddress",
          "type": "address"
        },
        {
          "internalType": "uint256[]",
          "name": "ssParams",
          "type": "uint256[]"
        }
      ],
      "name": "newDataTokenCreated",
      "outputs": [
        {
          "internalType": "bool",
          "name": "",
          "type": "bool"
        }
      ],
      "stateMutability": "nonpayable",
      "type": "function"
    },
    {
      "inputs": [],
      "name": "router",
      "outputs": [
        {
          "internalType": "address",
          "name": "",
          "type": "address"
        }
      ],
      "stateMutability": "view",
      "type": "function"
    }
  ],
  "bytecode": "0x608060405234801561001057600080fd5b50604051620021b9380380620021b98339810160408190526100319161005b565b6001600081905580546001600160a01b0319166001600160a01b039290921691909117905561008b565b60006020828403121561006d57600080fd5b81516001600160a01b038116811461008457600080fd5b9392505050565b61211e806200009b6000396000f3fe608060405234801561001057600080fd5b50600436106101165760003560e01c8063bccf74fe116100a2578063efd4810311610071578063efd481031461024f578063f03cd39614610262578063f887ea4014610275578063f8932d6114610288578063fa93fd6d1461029b57600080fd5b8063bccf74fe14610203578063c1b4904d14610216578063c4be249014610229578063cc49ede71461023c57600080fd5b806353f0c3b4116100e957806353f0c3b4146101a2578063799ece85146101b55780637b01ab30146101c857806388afadce146101dd57806399039fcf146101f057600080fd5b80631228cbee1461011b5780631f16cde61461014b5780632686375b1461015e57806326b1f01f1461017f575b600080fd5b61012e610129366004611c4a565b6102ae565b6040516001600160a01b0390911681526020015b60405180910390f35b61012e610159366004611c4a565b6102fd565b61017161016c366004611c4a565b61034c565b604051908152602001610142565b61019261018d366004611d7e565b610398565b6040519015158152602001610142565b6101926101b0366004611c84565b610474565b6101716101c3366004611c4a565b610e88565b6101db6101d6366004611dbf565b610ed4565b005b6101716101eb366004611c4a565b610fbe565b6101db6101fe366004611d7e565b611020565b610171610211366004611c4a565b6111a1565b610171610224366004611c4a565b6111ed565b610171610237366004611c4a565b61123a565b6101db61024a366004611c4a565b611286565b61019261025d366004611d7e565b61150d565b610171610270366004611c4a565b611625565b60015461012e906001600160a01b031681565b610171610296366004611c4a565b611671565b61012e6102a9366004611c4a565b6116f3565b6001600160a01b03811660009081526002602052604081205460ff1615156001146102db57506000919050565b506001600160a01b039081166000908152600260205260409020600101541690565b6001600160a01b03811660009081526002602052604081205460ff16151560011461032a57506000919050565b506001600160a01b039081166000908152600260205260409020600701541690565b6001600160a01b03811660009081526002602052604081205460ff16151560011461037957506000919050565b506001600160a01b03166000908152600260205260409020600a015490565b6001600160a01b0383811660009081526002602052604081206001015490911633146103df5760405162461bcd60e51b81526004016103d690611e94565b60405180910390fd5b6001600160a01b03841660009081526002602052604090205460ff16151560011461040c5750600061046d565b6001600160a01b0384811660009081526002602052604090205461010090048116908416141561043e5750600061046d565b6001600160a01b0384166000908152600260208190526040909120015482116104695750600161046d565b5060005b9392505050565b6001546000906001600160a01b031633146104bf5760405162461bcd60e51b815260206004820152600b60248201526a27a7262c902927aaaa22a960a91b60448201526064016103d6565b600260005414156104e25760405162461bcd60e51b81526004016103d690611ecb565b60026000556001600160a01b0384166105335760405162461bcd60e51b8152602060048201526013602482015272496e76616c696420706f6f6c4164647265737360681b60448201526064016103d6565b6000849050306001600160a01b0316816001600160a01b0316633018205f6040518163ffffffff1660e01b815260040160206040518083038186803b15801561057b57600080fd5b505afa15801561058f573d6000803e3d6000fd5b505050506040513d601f19601f820116820180604052508101906105b39190611c67565b6001600160a01b0316146106095760405162461bcd60e51b815260206004820152601e60248201527f576520617265206e6f742074686520706f6f6c20636f6e74726f6c6c6572000060448201526064016103d6565b866001600160a01b0316816001600160a01b03166304ad79546040518163ffffffff1660e01b815260040160206040518083038186803b15801561064c57600080fd5b505afa158015610660573d6000803e3d6000fd5b505050506040513d601f19601f820116820180604052508101906106849190611c67565b6001600160a01b0316146106da5760405162461bcd60e51b815260206004820152601b60248201527f44617461546f6b656e2061646472657373206d6973736d61746368000000000060448201526064016103d6565b856001600160a01b0316816001600160a01b0316634df947d06040518163ffffffff1660e01b815260040160206040518083038186803b15801561071d57600080fd5b505afa158015610731573d6000803e3d6000fd5b505050506040513d601f19601f820116820180604052508101906107559190611c67565b6001600160a01b0316146107ab5760405162461bcd60e51b815260206004820152601b60248201527f42617365546f6b656e2061646472657373206d6973736d61746368000000000060448201526064016103d6565b604051623d104160e31b815230600482015287906001600160a01b038216906301e8820890602401604080518083038186803b1580156107ea57600080fd5b505afa1580156107fe573d6000803e3d6000fd5b505050506040513d601f19601f820116820180604052508101906108229190611e20565b5115156001146108745760405162461bcd60e51b815260206004820152601a60248201527f42617365546f6b656e2061646472657373206d69736d6174636800000000000060448201526064016103d6565b806001600160a01b03166340c10f1930836001600160a01b031663355274ea6040518163ffffffff1660e01b815260040160206040518083038186803b1580156108bd57600080fd5b505afa1580156108d1573d6000803e3d6000fd5b505050506040513d601f19601f820116820180604052508101906108f59190611e7b565b6040516001600160e01b031960e085901b1681526001600160a01b0390921660048301526024820152604401600060405180830381600087803b15801561093b57600080fd5b505af115801561094f573d6000803e3d6000fd5b50505050806001600160a01b03166318160ddd6040518163ffffffff1660e01b815260040160206040518083038186803b15801561098c57600080fd5b505afa1580156109a0573d6000803e3d6000fd5b505050506040513d601f19601f820116820180604052508101906109c49190611e7b565b6040516370a0823160e01b81523060048201526001600160a01b038316906370a082319060240160206040518083038186803b158015610a0357600080fd5b505afa158015610a17573d6000803e3d6000fd5b505050506040513d601f19601f82011682018060405250810190610a3b9190611e7b565b14610a765760405162461bcd60e51b815260206004820152600b60248201526a135a5b9d0819985a5b195960aa1b60448201526064016103d6565b83600281518110610a8957610a896120a4565b6020026020010151610b0d600a836001600160a01b03166318160ddd6040518163ffffffff1660e01b815260040160206040518083038186803b158015610acf57600080fd5b505afa158015610ae3573d6000803e3d6000fd5b505050506040513d601f19601f82011682018060405250810190610b079190611e7b565b90611744565b1015610b4d5760405162461bcd60e51b815260206004820152600f60248201526e4d61782076657374696e672031302560881b60448201526064016103d6565b604051806101e00160405280600115158152602001886001600160a01b03168152602001876001600160a01b0316815260200160001515815260200185600281518110610b9c57610b9c6120a4565b6020026020010151836001600160a01b03166318160ddd6040518163ffffffff1660e01b815260040160206040518083038186803b158015610bdd57600080fd5b505afa158015610bf1573d6000803e3d6000fd5b505050506040513d601f19601f82011682018060405250810190610c159190611e7b565b610c1f9190612077565b8152602001826001600160a01b031663355274ea6040518163ffffffff1660e01b815260040160206040518083038186803b158015610c5d57600080fd5b505afa158015610c71573d6000803e3d6000fd5b505050506040513d601f19601f82011682018060405250810190610c959190611e7b565b815260200185600481518110610cad57610cad6120a4565b602002602001015181526020016000815260200185600081518110610cd457610cd46120a4565b60200260200101518152602001866001600160a01b0316815260200143815260200185600381518110610d0957610d096120a4565b602002602001015143610d1c9190611f33565b815260200185600281518110610d3457610d346120a4565b60209081029190910181015182524382820152600060409283018190526001600160a01b038c8116825260028084529184902085518154948701516001600160a81b0319958616911515610100600160a81b031916919091176101009184168202178255948601516001808301805460608a0151938616971696909617600160a01b921515929092029190911790945560808601519281019290925560a0850151600383015560c0850151600483015560e085015160058301559284015160068201556101208401516007820180546001600160a01b031916919094161790925561014083015160088301556101608301516009830155610180830151600a8301556101a0830151600b8301556101c090920151600c909101558451610e74918a918791908110610e6757610e676120a4565b6020026020010151611750565b600192505050600160005595945050505050565b6001600160a01b03811660009081526002602052604081205460ff161515600114610eb557506000919050565b506001600160a01b031660009081526002602052604090206009015490565b60026000541415610ef75760405162461bcd60e51b81526004016103d690611ecb565b600260008181556001600160a01b0386168152602091909152604090205460ff161515600114610f2657610fb3565b6001600160a01b03848116600090815260026020526040902060010154163314610f625760405162461bcd60e51b81526004016103d690611e94565b6000610f6f85858461150d565b9050600181151514610f815750610fb3565b6001600160a01b03851660009081526002602081905260408220018054859290610fac908490611f33565b9091555050505b505060016000555050565b6001600160a01b03811660009081526002602052604081205460ff161515600114610feb57506000919050565b6001600160a01b03821660009081526002602081905260409091209081015460039091015461101a9190612077565b92915050565b600260005414156110435760405162461bcd60e51b81526004016103d690611ecb565b600260008181556001600160a01b0385168152602091909152604090205460ff16151560011461107257611197565b6001600160a01b038381166000908152600260205260409020600101541633146110ae5760405162461bcd60e51b81526004016103d690611e94565b60006110bb848484610398565b90506001811515146110cd5750611197565b6001600160a01b038481166000818152600260205260409081902060010154905163095ea7b360e01b81529216600483015260248201849052859163095ea7b390604401602060405180830381600087803b15801561112b57600080fd5b505af115801561113f573d6000803e3d6000fd5b505050506040513d601f19601f820116820180604052508101906111639190611e05565b506001600160a01b0385166000908152600260208190526040822001805485929061118f908490612077565b909155505050505b5050600160005550565b6001600160a01b03811660009081526002602052604081205460ff1615156001146111ce57506000919050565b506001600160a01b03166000908152600260205260409020600c015490565b6001600160a01b03811660009081526002602052604081205460ff16151560011461121a57506000919050565b506001600160a01b03166000908152600260208190526040909120015490565b6001600160a01b03811660009081526002602052604081205460ff16151560011461126757506000919050565b506001600160a01b031660009081526002602052604090206004015490565b6001600160a01b03811660009081526002602052604090205460ff1615156001146112eb5760405162461bcd60e51b815260206004820152601560248201527422a9291d24b73b30b634b2103230ba30ba37b5b2b760591b60448201526064016103d6565b6001600160a01b038116600090815260026020526040812060090154431115611342576001600160a01b0382166000908152600260205260409020600b81015460099091015461133b9190612077565b905061136b565b6001600160a01b0382166000908152600260205260409020600b01546113689043612077565b90505b6001600160a01b038216600090815260026020526040812060088101546009909101546113bd9161139b91612077565b6001600160a01b0385166000908152600260205260409020600a015490611744565b9050806113c957505050565b60006113d58383611c29565b905060008111801561140357506001600160a01b038416600090815260026020819052604090912001548111155b15611507576001600160a01b038481166000818152600260205260409081902043600b82015560070154905163a9059cbb60e01b81529216600483015260248201839052859163a9059cbb90604401602060405180830381600087803b15801561146c57600080fd5b505af1158015611480573d6000803e3d6000fd5b505050506040513d601f19601f820116820180604052508101906114a49190611e05565b506001600160a01b038516600090815260026020819052604082200180548492906114d0908490612077565b90915550506001600160a01b0385166000908152600260205260408120600c018054849290611500908490611f33565b9091555050505b50505050565b6001600160a01b03831660009081526002602052604081205460ff16151560011461153a5750600061046d565b6001600160a01b038481166000908152600260205260409020600101541633146115765760405162461bcd60e51b81526004016103d690611e94565b6001600160a01b038481166000908152600260205260409020546101009004811690841614156115a85750600061046d565b6040516370a0823160e01b8152306004820152829033906370a082319060240160206040518083038186803b1580156115e057600080fd5b505afa1580156115f4573d6000803e3d6000fd5b505050506040513d601f19601f820116820180604052508101906116189190611e7b565b106104695750600161046d565b6001600160a01b03811660009081526002602052604081205460ff16151560011461165257506000919050565b506001600160a01b03166000908152600260205260409020600b015490565b6001600160a01b03811660009081526002602052604081205460ff16151560011461169e57506000919050565b6116a7826111a1565b6116b08361034c565b6001600160a01b0384166000908152600260208190526040909120908101546003909101546116df9190612077565b6116e99190612077565b61101a9190611f33565b6001600160a01b03811660009081526002602052604081205460ff16151560011461172057506000919050565b506001600160a01b0390811660009081526002602052604090205461010090041690565b600061046d8284611f4b565b6001600160a01b03821660009081526002602052604090205460ff161515600114611779575050565b6001600160a01b0382166000908152600260205260409020600190810154600160a01b900460ff16151514156117ad575050565b6001600160a01b0382166000908152600260205260408120600101805460ff60a01b1916600160a01b1790556117ec670de0b6b3a76400006005612058565b90506000611803670de0b6b3a76400006005612058565b6001600160a01b03851660009081526002602052604081206004015491925061182d856012612077565b61183890600a611fb0565b6001600160a01b038716600090815260026020526040902060060154670de0b6b3a7640000908690869061186d908790612058565b6118779190612058565b6118819190611f4b565b61188b9190611f4b565b6118959190612058565b6001600160a01b038781166000818152600260205260409081902060010154905163095ea7b360e01b8152921660048301526024820183905291925087919063095ea7b390604401602060405180830381600087803b1580156118f757600080fd5b505af115801561190b573d6000803e3d6000fd5b505050506040513d601f19601f8201168201806040525081019061192f9190611e05565b506001600160a01b03878116600090815260026020526040908190208054600190910154915163095ea7b360e01b8152918316600483015260248201869052610100900490911690819063095ea7b390604401602060405180830381600087803b15801561199c57600080fd5b505af11580156119b0573d6000803e3d6000fd5b505050506040513d601f19601f820116820180604052508101906119d49190611e05565b506001600160a01b03888116600081815260026020526040908190206001810154905491516309ef3f5b60e01b815260048101939093526024830187905260448301899052610100909104831660648301526084820187905260a482018990529091169081906309ef3f5b9060c401600060405180830381600087803b158015611a5d57600080fd5b505af1158015611a71573d6000803e3d6000fd5b505050506001600160a01b03891660009081526002602052604081206004018054879290611aa0908490612077565b90915550506001600160a01b03891660009081526002602081905260408220018054869290611ad0908490612077565b90915550506001600160a01b038981166000908152600260205260408082206001015490516370a0823160e01b815230600482015292169182906370a082319060240160206040518083038186803b158015611b2b57600080fd5b505afa158015611b3f573d6000803e3d6000fd5b505050506040513d601f19601f82011682018060405250810190611b639190611e7b565b6001600160a01b038c81166000908152600260208190526040909120600701549293508185169263a9059cbb921690611b9d908590611744565b6040516001600160e01b031960e085901b1681526001600160a01b0390921660048301526024820152604401602060405180830381600087803b158015611be357600080fd5b505af1158015611bf7573d6000803e3d6000fd5b505050506040513d601f19601f82011682018060405250810190611c1b9190611e05565b505050505050505050505050565b600061046d8284612058565b80518015158114611c4557600080fd5b919050565b600060208284031215611c5c57600080fd5b813561046d816120d0565b600060208284031215611c7957600080fd5b815161046d816120d0565b600080600080600060a08688031215611c9c57600080fd5b8535611ca7816120d0565b9450602086810135611cb8816120d0565b94506040870135611cc8816120d0565b93506060870135611cd8816120d0565b9250608087013567ffffffffffffffff80821115611cf557600080fd5b818901915089601f830112611d0957600080fd5b813581811115611d1b57611d1b6120ba565b8060051b9150611d2c848301611f02565b8181528481019084860184860187018e1015611d4757600080fd5b600095505b83861015611d6a578035835260019590950194918601918601611d4c565b508096505050505050509295509295909350565b600080600060608486031215611d9357600080fd5b8335611d9e816120d0565b92506020840135611dae816120d0565b929592945050506040919091013590565b60008060008060808587031215611dd557600080fd5b8435611de0816120d0565b93506020850135611df0816120d0565b93969395505050506040820135916060013590565b600060208284031215611e1757600080fd5b61046d82611c35565b600060408284031215611e3257600080fd5b6040516040810181811067ffffffffffffffff82111715611e5557611e556120ba565b604052611e6183611c35565b8152611e6f60208401611c35565b60208201529392505050565b600060208284031215611e8d57600080fd5b5051919050565b6020808252601c908201527f4552523a204f6e6c7920706f6f6c2063616e2063616c6c207468697300000000604082015260600190565b6020808252601f908201527f5265656e7472616e637947756172643a207265656e7472616e742063616c6c00604082015260600190565b604051601f8201601f1916810167ffffffffffffffff81118282101715611f2b57611f2b6120ba565b604052919050565b60008219821115611f4657611f4661208e565b500190565b600082611f6857634e487b7160e01b600052601260045260246000fd5b500490565b600181815b80851115611fa8578160001904821115611f8e57611f8e61208e565b80851615611f9b57918102915b93841c9390800290611f72565b509250929050565b600061046d8383600082611fc65750600161101a565b81611fd35750600061101a565b8160018114611fe95760028114611ff35761200f565b600191505061101a565b60ff8411156120045761200461208e565b50506001821b61101a565b5060208310610133831016604e8410600b8410161715612032575081810a61101a565b61203c8383611f6d565b80600019048211156120505761205061208e565b029392505050565b60008160001904831182151516156120725761207261208e565b500290565b6000828210156120895761208961208e565b500390565b634e487b7160e01b600052601160045260246000fd5b634e487b7160e01b600052603260045260246000fd5b634e487b7160e01b600052604160045260246000fd5b6001600160a01b03811681146120e557600080fd5b5056fea26469706673582212201f2c0655e70deb5d864b732cda0cb0ae9ab7ba007cc71eb8f2132734da2a3f1064736f6c63430008070033",
  "linkReferences": {},
  "deployedLinkReferences": {}
}