{
  "_format": "hh-sol-artifact-1",
  "contractName": "SideStaking",
  "sourceName": "contracts/pools/ssContracts/SideStaking.sol",
  "abi": [
    {
      "inputs": [
        {
          "internalType": "address",
          "name": "_router",
          "type": "address"
        }
      ],
      "stateMutability": "nonpayable",
      "type": "constructor"
    },
    {
      "inputs": [
        {
          "internalType": "address",
          "name": "datatokenAddress",
          "type": "address"
        },
        {
          "internalType": "address",
          "name": "stakeToken",
          "type": "address"
        },
        {
          "internalType": "uint256",
          "name": "amount",
          "type": "uint256"
        }
      ],
      "name": "Stake",
      "outputs": [],
      "stateMutability": "nonpayable",
      "type": "function"
    },
    {
      "inputs": [
        {
          "internalType": "address",
          "name": "datatokenAddress",
          "type": "address"
        },
        {
          "internalType": "address",
          "name": "stakeToken",
          "type": "address"
        },
        {
          "internalType": "uint256",
          "name": "dtAmountIn",
          "type": "uint256"
        },
        {
          "internalType": "uint256",
          "name": "poolAmountOut",
          "type": "uint256"
        }
      ],
      "name": "UnStake",
      "outputs": [],
      "stateMutability": "nonpayable",
      "type": "function"
    },
    {
      "inputs": [
        {
          "internalType": "address",
          "name": "datatokenAddress",
          "type": "address"
        },
        {
          "internalType": "address",
          "name": "stakeToken",
          "type": "address"
        },
        {
          "internalType": "uint256",
          "name": "amount",
          "type": "uint256"
        }
      ],
      "name": "canStake",
      "outputs": [
        {
          "internalType": "bool",
          "name": "",
          "type": "bool"
        }
      ],
      "stateMutability": "view",
      "type": "function"
    },
    {
      "inputs": [
        {
          "internalType": "address",
          "name": "datatokenAddress",
          "type": "address"
        },
        {
          "internalType": "address",
          "name": "stakeToken",
          "type": "address"
        },
        {
          "internalType": "uint256",
          "name": "lptIn",
          "type": "uint256"
        }
      ],
      "name": "canUnStake",
      "outputs": [
        {
          "internalType": "bool",
          "name": "",
          "type": "bool"
        }
      ],
      "stateMutability": "view",
      "type": "function"
    },
    {
      "inputs": [
        {
          "internalType": "address",
          "name": "datatokenAddress",
          "type": "address"
        }
      ],
      "name": "getBaseTokenAddress",
      "outputs": [
        {
          "internalType": "address",
          "name": "",
          "type": "address"
        }
      ],
      "stateMutability": "view",
      "type": "function"
    },
    {
      "inputs": [
        {
          "internalType": "address",
          "name": "datatokenAddress",
          "type": "address"
        }
      ],
      "name": "getBaseTokenBalance",
      "outputs": [
        {
          "internalType": "uint256",
          "name": "",
          "type": "uint256"
        }
      ],
      "stateMutability": "view",
      "type": "function"
    },
    {
      "inputs": [
        {
          "internalType": "address",
          "name": "datatokenAddress",
          "type": "address"
        }
      ],
      "name": "getDataTokenBalance",
      "outputs": [
        {
          "internalType": "uint256",
          "name": "",
          "type": "uint256"
        }
      ],
      "stateMutability": "view",
      "type": "function"
    },
    {
      "inputs": [
        {
          "internalType": "address",
          "name": "datatokenAddress",
          "type": "address"
        }
      ],
      "name": "getDataTokenCirculatingSupply",
      "outputs": [
        {
          "internalType": "uint256",
          "name": "",
          "type": "uint256"
        }
      ],
      "stateMutability": "view",
      "type": "function"
    },
    {
      "inputs": [
        {
          "internalType": "address",
          "name": "datatokenAddress",
          "type": "address"
        }
      ],
      "name": "getDataTokenCurrentCirculatingSupply",
      "outputs": [
        {
          "internalType": "uint256",
          "name": "",
          "type": "uint256"
        }
      ],
      "stateMutability": "view",
      "type": "function"
    },
    {
      "inputs": [
        {
          "internalType": "address",
          "name": "datatokenAddress",
          "type": "address"
        }
      ],
      "name": "getPoolAddress",
      "outputs": [
        {
          "internalType": "address",
          "name": "",
          "type": "address"
        }
      ],
      "stateMutability": "view",
      "type": "function"
    },
    {
      "inputs": [
        {
          "internalType": "address",
          "name": "datatokenAddress",
          "type": "address"
        }
      ],
      "name": "getPublisherAddress",
      "outputs": [
        {
          "internalType": "address",
          "name": "",
          "type": "address"
        }
      ],
      "stateMutability": "view",
      "type": "function"
    },
    {
      "inputs": [
        {
          "internalType": "address",
          "name": "datatokenAddress",
          "type": "address"
        }
      ],
      "name": "getVesting",
      "outputs": [],
      "stateMutability": "nonpayable",
      "type": "function"
    },
    {
      "inputs": [
        {
          "internalType": "address",
          "name": "datatokenAddress",
          "type": "address"
        }
      ],
      "name": "getvestingAmount",
      "outputs": [
        {
          "internalType": "uint256",
          "name": "",
          "type": "uint256"
        }
      ],
      "stateMutability": "view",
      "type": "function"
    },
    {
      "inputs": [
        {
          "internalType": "address",
          "name": "datatokenAddress",
          "type": "address"
        }
      ],
      "name": "getvestingAmountSoFar",
      "outputs": [
        {
          "internalType": "uint256",
          "name": "",
          "type": "uint256"
        }
      ],
      "stateMutability": "view",
      "type": "function"
    },
    {
      "inputs": [
        {
          "internalType": "address",
          "name": "datatokenAddress",
          "type": "address"
        }
      ],
      "name": "getvestingEndBlock",
      "outputs": [
        {
          "internalType": "uint256",
          "name": "",
          "type": "uint256"
        }
      ],
      "stateMutability": "view",
      "type": "function"
    },
    {
      "inputs": [
        {
          "internalType": "address",
          "name": "datatokenAddress",
          "type": "address"
        }
      ],
      "name": "getvestingLastBlock",
      "outputs": [
        {
          "internalType": "uint256",
          "name": "",
          "type": "uint256"
        }
      ],
      "stateMutability": "view",
      "type": "function"
    },
    {
      "inputs": [
        {
          "internalType": "address",
          "name": "datatokenAddress",
          "type": "address"
        },
        {
          "internalType": "address",
          "name": "basetokenAddress",
          "type": "address"
        },
        {
          "internalType": "address",
          "name": "poolAddress",
          "type": "address"
        },
        {
          "internalType": "address",
          "name": "publisherAddress",
          "type": "address"
        },
        {
          "internalType": "uint256[]",
          "name": "ssParams",
          "type": "uint256[]"
        }
      ],
      "name": "newDataTokenCreated",
      "outputs": [
        {
          "internalType": "bool",
          "name": "",
          "type": "bool"
        }
      ],
      "stateMutability": "nonpayable",
      "type": "function"
    },
    {
      "inputs": [],
      "name": "router",
      "outputs": [
        {
          "internalType": "address",
          "name": "",
          "type": "address"
        }
      ],
      "stateMutability": "view",
      "type": "function"
    },
    {
      "inputs": [
        {
          "internalType": "address",
          "name": "datatokenAddress",
          "type": "address"
        },
        {
          "internalType": "address",
          "name": "poolAddress",
          "type": "address"
        },
        {
          "internalType": "uint256",
          "name": "swapFee",
          "type": "uint256"
        }
      ],
      "name": "setPoolSwapFee",
      "outputs": [],
      "stateMutability": "nonpayable",
      "type": "function"
    }
  ],
  "bytecode": "0x60806040523480156200001157600080fd5b506040516200264e3803806200264e8339810160408190526200003491620000ba565b60016000556001600160a01b038116620000945760405162461bcd60e51b815260206004820152601760248201527f496e76616c6964205f726f757465722061646472657373000000000000000000604482015260640160405180910390fd5b600180546001600160a01b0319166001600160a01b0392909216919091179055620000ec565b600060208284031215620000cd57600080fd5b81516001600160a01b0381168114620000e557600080fd5b9392505050565b61255280620000fc6000396000f3fe608060405234801561001057600080fd5b50600436106101215760003560e01c8063bccf74fe116100ad578063f03cd39611610071578063f03cd3961461026d578063f887ea4014610280578063f8932d6114610293578063fa93fd6d146102a6578063ff299f33146102b957600080fd5b8063bccf74fe1461020e578063c1b4904d14610221578063c4be249014610234578063cc49ede714610247578063efd481031461025a57600080fd5b806353f0c3b4116100f457806353f0c3b4146101ad578063799ece85146101c05780637b01ab30146101d357806388afadce146101e857806399039fcf146101fb57600080fd5b80631228cbee146101265780631f16cde6146101565780632686375b1461016957806326b1f01f1461018a575b600080fd5b610139610134366004612008565b6102cc565b6040516001600160a01b0390911681526020015b60405180910390f35b610139610164366004612008565b610316565b61017c610177366004612008565b610360565b60405190815260200161014d565b61019d610198366004612025565b6103a7565b604051901515815260200161014d565b61019d6101bb3660046120ad565b6104b4565b61017c6101ce366004612008565b610e2d565b6101e66101e13660046121a0565b610e74565b005b61017c6101f6366004612008565b610f54565b6101e6610209366004612025565b610fb1565b61017c61021c366004612008565b6110bc565b61017c61022f366004612008565b611103565b61017c610242366004612008565b61114b565b6101e6610255366004612008565b611192565b61019d610268366004612025565b6113d8565b61017c61027b366004612008565b6114dc565b600154610139906001600160a01b031681565b61017c6102a1366004612008565b611523565b6101396102b4366004612008565b6115a0565b6101e66102c7366004612025565b6115ec565b6001600160a01b03811660009081526002602052604081205460ff166102f457506000919050565b506001600160a01b039081166000908152600260205260409020600101541690565b6001600160a01b03811660009081526002602052604081205460ff1661033e57506000919050565b506001600160a01b039081166000908152600260205260409020600701541690565b6001600160a01b03811660009081526002602052604081205460ff1661038857506000919050565b506001600160a01b03166000908152600260205260409020600a015490565b6001600160a01b0383811660009081526002602052604081206001015490911633146103ee5760405162461bcd60e51b81526004016103e5906121e6565b60405180910390fd5b6001600160a01b03841660009081526002602052604090205460ff16610416575060006104ad565b6001600160a01b03848116600090815260026020526040902054610100900481169084161415610448575060006104ad565b6001600160a01b0384166000908152600260205260409020600c810154600a909101546104759190612233565b61047f908361224a565b6001600160a01b03851660009081526002602081905260409091200154106104a9575060016104ad565b5060005b9392505050565b6001546000906001600160a01b031633146104ff5760405162461bcd60e51b815260206004820152600b60248201526a27a7262c902927aaaa22a960a91b60448201526064016103e5565b600260005414156105225760405162461bcd60e51b81526004016103e590612262565b60026000556001600160a01b0384166105735760405162461bcd60e51b8152602060048201526013602482015272496e76616c696420706f6f6c4164647265737360681b60448201526064016103e5565b6000849050306001600160a01b0316816001600160a01b0316633018205f6040518163ffffffff1660e01b8152600401602060405180830381865afa1580156105c0573d6000803e3d6000fd5b505050506040513d601f19601f820116820180604052508101906105e49190612299565b6001600160a01b03161461063a5760405162461bcd60e51b815260206004820152601e60248201527f576520617265206e6f742074686520706f6f6c20636f6e74726f6c6c6572000060448201526064016103e5565b866001600160a01b0316816001600160a01b03166304ad79546040518163ffffffff1660e01b8152600401602060405180830381865afa158015610682573d6000803e3d6000fd5b505050506040513d601f19601f820116820180604052508101906106a69190612299565b6001600160a01b0316146106fc5760405162461bcd60e51b815260206004820152601b60248201527f44617461546f6b656e2061646472657373206d6973736d61746368000000000060448201526064016103e5565b856001600160a01b0316816001600160a01b0316634df947d06040518163ffffffff1660e01b8152600401602060405180830381865afa158015610744573d6000803e3d6000fd5b505050506040513d601f19601f820116820180604052508101906107689190612299565b6001600160a01b0316146107be5760405162461bcd60e51b815260206004820152601b60248201527f42617365546f6b656e2061646472657373206d6973736d61746368000000000060448201526064016103e5565b604051623d104160e31b815230600482015287906001600160a01b038216906301e88208906024016040805180830381865afa158015610802573d6000803e3d6000fd5b505050506040513d601f19601f8201168201806040525081019061082691906122cb565b516108735760405162461bcd60e51b815260206004820152601a60248201527f42617365546f6b656e2061646472657373206d69736d6174636800000000000060448201526064016103e5565b806001600160a01b03166340c10f1930836001600160a01b031663355274ea6040518163ffffffff1660e01b8152600401602060405180830381865afa1580156108c1573d6000803e3d6000fd5b505050506040513d601f19601f820116820180604052508101906108e59190612326565b6040516001600160e01b031960e085901b1681526001600160a01b0390921660048301526024820152604401600060405180830381600087803b15801561092b57600080fd5b505af115801561093f573d6000803e3d6000fd5b50505050806001600160a01b03166318160ddd6040518163ffffffff1660e01b8152600401602060405180830381865afa158015610981573d6000803e3d6000fd5b505050506040513d601f19601f820116820180604052508101906109a59190612326565b6040516370a0823160e01b81523060048201526001600160a01b038316906370a0823190602401602060405180830381865afa1580156109e9573d6000803e3d6000fd5b505050506040513d601f19601f82011682018060405250810190610a0d9190612326565b14610a485760405162461bcd60e51b815260206004820152600b60248201526a135a5b9d0819985a5b195960aa1b60448201526064016103e5565b83600281518110610a5b57610a5b61233f565b6020026020010151610ad0600a836001600160a01b03166318160ddd6040518163ffffffff1660e01b8152600401602060405180830381865afa158015610aa6573d6000803e3d6000fd5b505050506040513d601f19601f82011682018060405250810190610aca9190612326565b906118fc565b1015610b105760405162461bcd60e51b815260206004820152600f60248201526e4d61782076657374696e672031302560881b60448201526064016103e5565b604051806101e00160405280600115158152602001886001600160a01b03168152602001876001600160a01b0316815260200160001515815260200185600281518110610b5f57610b5f61233f565b6020026020010151836001600160a01b03166318160ddd6040518163ffffffff1660e01b8152600401602060405180830381865afa158015610ba5573d6000803e3d6000fd5b505050506040513d601f19601f82011682018060405250810190610bc99190612326565b610bd39190612233565b8152602001826001600160a01b031663355274ea6040518163ffffffff1660e01b8152600401602060405180830381865afa158015610c16573d6000803e3d6000fd5b505050506040513d601f19601f82011682018060405250810190610c3a9190612326565b815260200185600481518110610c5257610c5261233f565b602002602001015181526020016000815260200185600081518110610c7957610c7961233f565b60200260200101518152602001866001600160a01b0316815260200143815260200185600381518110610cae57610cae61233f565b602002602001015143610cc1919061224a565b815260200185600281518110610cd957610cd961233f565b60209081029190910181015182524382820152600060409283018190526001600160a01b038c8116825260028084529184902085518154948701516001600160a81b0319958616911515610100600160a81b031916919091176101009184168202178255948601516001808301805460608a0151938616971696909617600160a01b921515929092029190911790945560808601519281019290925560a0850151600383015560c0850151600483015560e085015160058301559284015160068201556101208401516007820180546001600160a01b031916919094161790925561014083015160088301556101608301516009830155610180830151600a8301556101a0830151600b8301556101c090920151600c909101558451610e19918a918791908110610e0c57610e0c61233f565b6020026020010151611908565b600192505050600160005595945050505050565b6001600160a01b03811660009081526002602052604081205460ff16610e5557506000919050565b506001600160a01b031660009081526002602052604090206009015490565b60026000541415610e975760405162461bcd60e51b81526004016103e590612262565b600260008181556001600160a01b0386168152602091909152604090205460ff16610ec157610f49565b6001600160a01b03848116600090815260026020526040902060010154163314610efd5760405162461bcd60e51b81526004016103e5906121e6565b6000610f0a8585846113d8565b905080610f175750610f49565b6001600160a01b03851660009081526002602081905260408220018054859290610f4290849061224a565b9091555050505b505060016000555050565b6001600160a01b03811660009081526002602052604081205460ff16610f7c57506000919050565b6001600160a01b038216600090815260026020819052604090912090810154600390910154610fab9190612233565b92915050565b60026000541415610fd45760405162461bcd60e51b81526004016103e590612262565b600260008181556001600160a01b0385168152602091909152604090205460ff16610ffe576110b2565b6001600160a01b0383811660009081526002602052604090206001015416331461103a5760405162461bcd60e51b81526004016103e5906121e6565b60006110478484846103a7565b90508061105457506110b2565b6001600160a01b03808516600081815260026020526040902060010154869261107f92911685611c7a565b6001600160a01b038516600090815260026020819052604082200180548592906110aa908490612233565b909155505050505b5050600160005550565b6001600160a01b03811660009081526002602052604081205460ff166110e457506000919050565b506001600160a01b03166000908152600260205260409020600c015490565b6001600160a01b03811660009081526002602052604081205460ff1661112b57506000919050565b506001600160a01b03166000908152600260208190526040909120015490565b6001600160a01b03811660009081526002602052604081205460ff1661117357506000919050565b506001600160a01b031660009081526002602052604090206004015490565b600260005414156111b55760405162461bcd60e51b81526004016103e590612262565b600260008181556001600160a01b0383168152602091909152604090205460ff1661121a5760405162461bcd60e51b815260206004820152601560248201527422a9291d24b73b30b634b2103230ba30ba37b5b2b760591b60448201526064016103e5565b6001600160a01b038116600090815260026020526040812060090154431115611271576001600160a01b0382166000908152600260205260409020600b81015460099091015461126a9190612233565b905061129a565b6001600160a01b0382166000908152600260205260409020600b01546112979043612233565b90505b6001600160a01b038216600090815260026020526040812060088101546009909101546112ec916112ca91612233565b6001600160a01b0385166000908152600260205260409020600a0154906118fc565b9050806112fa5750506113d0565b60006113068383611d65565b905060008111801561133457506001600160a01b038416600090815260026020819052604090912001548111155b156113cc576001600160a01b03808516600081815260026020526040902043600b82015560070154869261136a92911684611d71565b6001600160a01b03851660009081526002602081905260408220018054849290611395908490612233565b90915550506001600160a01b0385166000908152600260205260408120600c0180548492906113c590849061224a565b9091555050505b5050505b506001600055565b6001600160a01b03831660009081526002602052604081205460ff16611400575060006104ad565b6001600160a01b0384811660009081526002602052604090206001015416331461143c5760405162461bcd60e51b81526004016103e5906121e6565b6001600160a01b0384811660009081526002602052604090205461010090048116908416141561146e575060006104ad565b6040516370a0823160e01b8152306004820152829033906370a0823190602401602060405180830381865afa1580156114ab573d6000803e3d6000fd5b505050506040513d601f19601f820116820180604052508101906114cf9190612326565b106104a9575060016104ad565b6001600160a01b03811660009081526002602052604081205460ff1661150457506000919050565b506001600160a01b03166000908152600260205260409020600b015490565b6001600160a01b03811660009081526002602052604081205460ff1661154b57506000919050565b611554826110bc565b61155d83610360565b6001600160a01b03841660009081526002602081905260409091209081015460039091015461158c9190612233565b6115969190612233565b610fab919061224a565b6001600160a01b03811660009081526002602052604081205460ff166115c857506000919050565b506001600160a01b0390811660009081526002602052604090205461010090041690565b6002600054141561160f5760405162461bcd60e51b81526004016103e590612262565b60026000556001600160a01b0382166116605760405162461bcd60e51b8152602060048201526013602482015272496e76616c696420706f6f6c4164647265737360681b60448201526064016103e5565b6000829050306001600160a01b0316816001600160a01b0316633018205f6040518163ffffffff1660e01b8152600401602060405180830381865afa1580156116ad573d6000803e3d6000fd5b505050506040513d601f19601f820116820180604052508101906116d19190612299565b6001600160a01b0316146117275760405162461bcd60e51b815260206004820152601e60248201527f576520617265206e6f742074686520706f6f6c20636f6e74726f6c6c6572000060448201526064016103e5565b836001600160a01b0316816001600160a01b03166304ad79546040518163ffffffff1660e01b8152600401602060405180830381865afa15801561176f573d6000803e3d6000fd5b505050506040513d601f19601f820116820180604052508101906117939190612299565b6001600160a01b0316146117e95760405162461bcd60e51b815260206004820152601b60248201527f44617461546f6b656e2061646472657373206d6973736d61746368000000000060448201526064016103e5565b6040516396fb3eaf60e01b815233600482015284906001600160a01b038216906396fb3eaf906024016020604051808303816000875af1158015611831573d6000803e3d6000fd5b505050506040513d601f19601f820116820180604052508101906118559190612355565b6118965760405162461bcd60e51b81526020600482015260126024820152712737ba1022a9219918102232b83637bcb2b960711b60448201526064016103e5565b6040516334e1990760e01b8152600481018490526001600160a01b038316906334e1990790602401600060405180830381600087803b1580156118d857600080fd5b505af11580156118ec573d6000803e3d6000fd5b5050600160005550505050505050565b60006104ad8284612370565b6001600160a01b03821660009081526002602052604090205460ff1661192c575050565b6001600160a01b038216600090815260026020526040902060010154600160a01b900460ff161561195b575050565b6001600160a01b0382166000908152600260205260408120600101805460ff60a01b1916600160a01b17905561199a670de0b6b3a76400006005612392565b905060006119b1670de0b6b3a76400006005612392565b6001600160a01b0385166000908152600260205260408120600401549192506119db856012612233565b6119e690600a612495565b6001600160a01b038716600090815260026020526040902060060154670de0b6b3a76400009086908690611a1b908790612392565b611a259190612392565b611a2f9190612370565b611a399190612370565b611a439190612392565b6001600160a01b038088166000818152600260205260409020600101549293508892611a70921684611c7a565b6001600160a01b0380881660009081526002602052604090208054600190910154610100909104821691611aa79183911686611c7a565b6001600160a01b03888116600081815260026020526040908190206001810154905491516309ef3f5b60e01b815260048101939093526024830187905260448301899052610100909104831660648301526084820187905260a482018990529091169081906309ef3f5b9060c401600060405180830381600087803b158015611b2f57600080fd5b505af1158015611b43573d6000803e3d6000fd5b505050506001600160a01b03891660009081526002602052604081206004018054879290611b72908490612233565b90915550506001600160a01b03891660009081526002602081905260408220018054869290611ba2908490612233565b90915550506001600160a01b038981166000908152600260205260408082206001015490516370a0823160e01b815230600482015292169182906370a0823190602401602060405180830381865afa158015611c02573d6000803e3d6000fd5b505050506040513d601f19601f82011682018060405250810190611c269190612326565b6001600160a01b03808d16600090815260026020819052604090912060070154929350611c6d9290911690611c5c9084906118fc565b6001600160a01b0385169190611d71565b5050505050505050505050565b604051636eb1769f60e11b81523060048201526001600160a01b038381166024830152600091839186169063dd62ed3e90604401602060405180830381865afa158015611ccb573d6000803e3d6000fd5b505050506040513d601f19601f82011682018060405250810190611cef9190612326565b611cf9919061224a565b6040516001600160a01b038516602482015260448101829052909150611d5f90859063095ea7b360e01b906064015b60408051601f198184030181529190526020810180516001600160e01b03166001600160e01b031990931692909217909152611da6565b50505050565b60006104ad8284612392565b6040516001600160a01b038316602482015260448101829052611da190849063a9059cbb60e01b90606401611d28565b505050565b6000611dfb826040518060400160405280602081526020017f5361666545524332303a206c6f772d6c6576656c2063616c6c206661696c6564815250856001600160a01b0316611e789092919063ffffffff16565b805190915015611da15780806020019051810190611e199190612355565b611da15760405162461bcd60e51b815260206004820152602a60248201527f5361666545524332303a204552433230206f7065726174696f6e20646964206e6044820152691bdd081cdd58d8d9595960b21b60648201526084016103e5565b6060611e878484600085611e8f565b949350505050565b606082471015611ef05760405162461bcd60e51b815260206004820152602660248201527f416464726573733a20696e73756666696369656e742062616c616e636520666f6044820152651c8818d85b1b60d21b60648201526084016103e5565b843b611f3e5760405162461bcd60e51b815260206004820152601d60248201527f416464726573733a2063616c6c20746f206e6f6e2d636f6e747261637400000060448201526064016103e5565b600080866001600160a01b03168587604051611f5a91906124cd565b60006040518083038185875af1925050503d8060008114611f97576040519150601f19603f3d011682016040523d82523d6000602084013e611f9c565b606091505b5091509150611fac828286611fb7565b979650505050505050565b60608315611fc65750816104ad565b825115611fd65782518084602001fd5b8160405162461bcd60e51b81526004016103e591906124e9565b6001600160a01b038116811461200557600080fd5b50565b60006020828403121561201a57600080fd5b81356104ad81611ff0565b60008060006060848603121561203a57600080fd5b833561204581611ff0565b9250602084013561205581611ff0565b929592945050506040919091013590565b634e487b7160e01b600052604160045260246000fd5b604051601f8201601f1916810167ffffffffffffffff811182821017156120a5576120a5612066565b604052919050565b600080600080600060a086880312156120c557600080fd5b85356120d081611ff0565b94506020868101356120e181611ff0565b945060408701356120f181611ff0565b9350606087013561210181611ff0565b9250608087013567ffffffffffffffff8082111561211e57600080fd5b818901915089601f83011261213257600080fd5b81358181111561214457612144612066565b8060051b915061215584830161207c565b818152918301840191848101908c84111561216f57600080fd5b938501935b8385101561218d57843582529385019390850190612174565b8096505050505050509295509295909350565b600080600080608085870312156121b657600080fd5b84356121c181611ff0565b935060208501356121d181611ff0565b93969395505050506040820135916060013590565b6020808252601c908201527f4552523a204f6e6c7920706f6f6c2063616e2063616c6c207468697300000000604082015260600190565b634e487b7160e01b600052601160045260246000fd5b6000828210156122455761224561221d565b500390565b6000821982111561225d5761225d61221d565b500190565b6020808252601f908201527f5265656e7472616e637947756172643a207265656e7472616e742063616c6c00604082015260600190565b6000602082840312156122ab57600080fd5b81516104ad81611ff0565b805180151581146122c657600080fd5b919050565b6000604082840312156122dd57600080fd5b6040516040810181811067ffffffffffffffff8211171561230057612300612066565b60405261230c836122b6565b815261231a602084016122b6565b60208201529392505050565b60006020828403121561233857600080fd5b5051919050565b634e487b7160e01b600052603260045260246000fd5b60006020828403121561236757600080fd5b6104ad826122b6565b60008261238d57634e487b7160e01b600052601260045260246000fd5b500490565b60008160001904831182151516156123ac576123ac61221d565b500290565b600181815b808511156123ec5781600019048211156123d2576123d261221d565b808516156123df57918102915b93841c93908002906123b6565b509250929050565b60008261240357506001610fab565b8161241057506000610fab565b816001811461242657600281146124305761244c565b6001915050610fab565b60ff8411156124415761244161221d565b50506001821b610fab565b5060208310610133831016604e8410600b841016171561246f575081810a610fab565b61247983836123b1565b806000190482111561248d5761248d61221d565b029392505050565b60006104ad83836123f4565b60005b838110156124bc5781810151838201526020016124a4565b83811115611d5f5750506000910152565b600082516124df8184602087016124a1565b9190910192915050565b60208152600082518060208401526125088160408501602087016124a1565b601f01601f1916919091016040019291505056fea2646970667358221220a4773a790f77a222c5a045afb1d608e6ac3678c2308b746c5768303ac8999c9364736f6c634300080a0033",
  "linkReferences": {},
  "deployedLinkReferences": {}
}