{
  "_format": "hh-sol-artifact-1",
  "contractName": "SideStaking",
  "sourceName": "contracts/pools/ssContracts/SideStaking.sol",
  "abi": [
    {
      "inputs": [
        {
          "internalType": "address",
          "name": "_router",
          "type": "address"
        }
      ],
      "stateMutability": "nonpayable",
      "type": "constructor"
    },
    {
      "anonymous": false,
      "inputs": [
        {
          "indexed": true,
          "internalType": "address",
          "name": "datatokenAddress",
          "type": "address"
        },
        {
          "indexed": true,
          "internalType": "address",
          "name": "publisherAddress",
          "type": "address"
        },
        {
          "indexed": true,
          "internalType": "address",
          "name": "caller",
          "type": "address"
        },
        {
          "indexed": false,
          "internalType": "uint256",
          "name": "amountVested",
          "type": "uint256"
        }
      ],
      "name": "Vesting",
      "type": "event"
    },
    {
      "anonymous": false,
      "inputs": [
        {
          "indexed": true,
          "internalType": "address",
          "name": "datatokenAddress",
          "type": "address"
        },
        {
          "indexed": true,
          "internalType": "address",
          "name": "publisherAddress",
          "type": "address"
        },
        {
          "indexed": false,
          "internalType": "uint256",
          "name": "vestingEndBlock",
          "type": "uint256"
        },
        {
          "indexed": false,
          "internalType": "uint256",
          "name": "totalVestingAmount",
          "type": "uint256"
        }
      ],
      "name": "VestingCreated",
      "type": "event"
    },
    {
      "inputs": [
        {
          "internalType": "address",
          "name": "datatokenAddress",
          "type": "address"
        },
        {
          "internalType": "uint256",
          "name": "amount",
          "type": "uint256"
        }
      ],
      "name": "Stake",
      "outputs": [],
      "stateMutability": "nonpayable",
      "type": "function"
    },
    {
      "inputs": [
        {
          "internalType": "address",
          "name": "datatokenAddress",
          "type": "address"
        },
        {
          "internalType": "uint256",
          "name": "dtAmountIn",
          "type": "uint256"
        },
        {
          "internalType": "uint256",
          "name": "poolAmountOut",
          "type": "uint256"
        }
      ],
      "name": "UnStake",
      "outputs": [],
      "stateMutability": "nonpayable",
      "type": "function"
    },
    {
      "inputs": [
        {
          "internalType": "address",
          "name": "datatokenAddress",
          "type": "address"
        },
        {
          "internalType": "uint256",
          "name": "amount",
          "type": "uint256"
        }
      ],
      "name": "canStake",
      "outputs": [
        {
          "internalType": "bool",
          "name": "",
          "type": "bool"
        }
      ],
      "stateMutability": "view",
      "type": "function"
    },
    {
      "inputs": [
        {
          "internalType": "address",
          "name": "datatokenAddress",
          "type": "address"
        },
        {
          "internalType": "uint256",
          "name": "lptIn",
          "type": "uint256"
        }
      ],
      "name": "canUnStake",
      "outputs": [
        {
          "internalType": "bool",
          "name": "",
          "type": "bool"
        }
      ],
      "stateMutability": "view",
      "type": "function"
    },
    {
      "inputs": [
        {
          "internalType": "address",
          "name": "datatokenAddress",
          "type": "address"
        }
      ],
      "name": "getAvailableVesting",
      "outputs": [
        {
          "internalType": "uint256",
          "name": "",
          "type": "uint256"
        }
      ],
      "stateMutability": "view",
      "type": "function"
    },
    {
      "inputs": [
        {
          "internalType": "address",
          "name": "datatokenAddress",
          "type": "address"
        }
      ],
      "name": "getBaseTokenAddress",
      "outputs": [
        {
          "internalType": "address",
          "name": "",
          "type": "address"
        }
      ],
      "stateMutability": "view",
      "type": "function"
    },
    {
      "inputs": [
        {
          "internalType": "address",
          "name": "datatokenAddress",
          "type": "address"
        }
      ],
      "name": "getBaseTokenBalance",
      "outputs": [
        {
          "internalType": "uint256",
          "name": "",
          "type": "uint256"
        }
      ],
      "stateMutability": "view",
      "type": "function"
    },
    {
      "inputs": [
        {
          "internalType": "address",
          "name": "datatokenAddress",
          "type": "address"
        }
      ],
      "name": "getDatatokenBalance",
      "outputs": [
        {
          "internalType": "uint256",
          "name": "",
          "type": "uint256"
        }
      ],
      "stateMutability": "view",
      "type": "function"
    },
    {
      "inputs": [
        {
          "internalType": "address",
          "name": "datatokenAddress",
          "type": "address"
        }
      ],
      "name": "getDatatokenCirculatingSupply",
      "outputs": [
        {
          "internalType": "uint256",
          "name": "",
          "type": "uint256"
        }
      ],
      "stateMutability": "view",
      "type": "function"
    },
    {
      "inputs": [
        {
          "internalType": "address",
          "name": "datatokenAddress",
          "type": "address"
        }
      ],
      "name": "getDatatokenCurrentCirculatingSupply",
      "outputs": [
        {
          "internalType": "uint256",
          "name": "",
          "type": "uint256"
        }
      ],
      "stateMutability": "view",
      "type": "function"
    },
    {
      "inputs": [],
      "name": "getId",
      "outputs": [
        {
          "internalType": "uint8",
          "name": "",
          "type": "uint8"
        }
      ],
      "stateMutability": "pure",
      "type": "function"
    },
    {
      "inputs": [
        {
          "internalType": "address",
          "name": "datatokenAddress",
          "type": "address"
        }
      ],
      "name": "getPoolAddress",
      "outputs": [
        {
          "internalType": "address",
          "name": "",
          "type": "address"
        }
      ],
      "stateMutability": "view",
      "type": "function"
    },
    {
      "inputs": [
        {
          "internalType": "address",
          "name": "datatokenAddress",
          "type": "address"
        }
      ],
      "name": "getPublisherAddress",
      "outputs": [
        {
          "internalType": "address",
          "name": "",
          "type": "address"
        }
      ],
      "stateMutability": "view",
      "type": "function"
    },
    {
      "inputs": [
        {
          "internalType": "address",
          "name": "datatokenAddress",
          "type": "address"
        }
      ],
      "name": "getVesting",
      "outputs": [],
      "stateMutability": "nonpayable",
      "type": "function"
    },
    {
      "inputs": [
        {
          "internalType": "address",
          "name": "datatokenAddress",
          "type": "address"
        }
      ],
      "name": "getvestingAmount",
      "outputs": [
        {
          "internalType": "uint256",
          "name": "",
          "type": "uint256"
        }
      ],
      "stateMutability": "view",
      "type": "function"
    },
    {
      "inputs": [
        {
          "internalType": "address",
          "name": "datatokenAddress",
          "type": "address"
        }
      ],
      "name": "getvestingAmountSoFar",
      "outputs": [
        {
          "internalType": "uint256",
          "name": "",
          "type": "uint256"
        }
      ],
      "stateMutability": "view",
      "type": "function"
    },
    {
      "inputs": [
        {
          "internalType": "address",
          "name": "datatokenAddress",
          "type": "address"
        }
      ],
      "name": "getvestingEndBlock",
      "outputs": [
        {
          "internalType": "uint256",
          "name": "",
          "type": "uint256"
        }
      ],
      "stateMutability": "view",
      "type": "function"
    },
    {
      "inputs": [
        {
          "internalType": "address",
          "name": "datatokenAddress",
          "type": "address"
        }
      ],
      "name": "getvestingLastBlock",
      "outputs": [
        {
          "internalType": "uint256",
          "name": "",
          "type": "uint256"
        }
      ],
      "stateMutability": "view",
      "type": "function"
    },
    {
      "inputs": [
        {
          "internalType": "address",
          "name": "datatokenAddress",
          "type": "address"
        },
        {
          "internalType": "address",
          "name": "baseTokenAddress",
          "type": "address"
        },
        {
          "internalType": "address",
          "name": "poolAddress",
          "type": "address"
        },
        {
          "internalType": "address",
          "name": "publisherAddress",
          "type": "address"
        },
        {
          "internalType": "uint256[]",
          "name": "ssParams",
          "type": "uint256[]"
        }
      ],
      "name": "newDatatokenCreated",
      "outputs": [
        {
          "internalType": "bool",
          "name": "",
          "type": "bool"
        }
      ],
      "stateMutability": "nonpayable",
      "type": "function"
    },
    {
      "inputs": [],
      "name": "router",
      "outputs": [
        {
          "internalType": "address",
          "name": "",
          "type": "address"
        }
      ],
      "stateMutability": "view",
      "type": "function"
    },
    {
      "inputs": [
        {
          "internalType": "address",
          "name": "datatokenAddress",
          "type": "address"
        },
        {
          "internalType": "address",
          "name": "poolAddress",
          "type": "address"
        },
        {
          "internalType": "uint256",
          "name": "swapFee",
          "type": "uint256"
        }
      ],
      "name": "setPoolSwapFee",
      "outputs": [],
      "stateMutability": "nonpayable",
      "type": "function"
    }
  ],
  "bytecode": "0x60806040523480156200001157600080fd5b50604051620026ab380380620026ab8339810160408190526200003491620000ba565b60016000556001600160a01b038116620000945760405162461bcd60e51b815260206004820152601760248201527f496e76616c6964205f726f757465722061646472657373000000000000000000604482015260640160405180910390fd5b600180546001600160a01b0319166001600160a01b0392909216919091179055620000ec565b600060208284031215620000cd57600080fd5b81516001600160a01b0381168114620000e557600080fd5b9392505050565b6125af80620000fc6000396000f3fe608060405234801561001057600080fd5b50600436106101375760003560e01c806383b87e5a116100b8578063ebedb8b31161007c578063ebedb8b314610292578063f03cd396146102a5578063f6da805f146102b8578063f887ea40146102cb578063fa93fd6d146102de578063ff299f33146102f157600080fd5b806383b87e5a14610233578063bccf74fe14610246578063bcf7135e14610259578063c4be24901461026c578063cc49ede71461027f57600080fd5b806354a97630116100ff57806354a97630146101d65780635d1ca631146101eb57806367f5494d146101fa5780636aca230c1461020d578063799ece851461022057600080fd5b80631228cbee1461013c5780631a1315661461016c5780631f16cde61461018f5780632686375b146101a25780632afbbacb146101c3575b600080fd5b61014f61014a36600461204a565b610304565b6040516001600160a01b0390911681526020015b60405180910390f35b61017f61017a366004612067565b61034e565b6040519015158152602001610163565b61014f61019d36600461204a565b610433565b6101b56101b036600461204a565b61047d565b604051908152602001610163565b61017f6101d1366004612067565b6104c4565b6101e96101e4366004612093565b61058b565b005b60405160018152602001610163565b6101b561020836600461204a565b610669565b6101b561021b36600461204a565b6106c0565b6101b561022e36600461204a565b6107bb565b61017f61024136600461210f565b610802565b6101b561025436600461204a565b611195565b6101b561026736600461204a565b6111dc565b6101b561027a36600461204a565b611224565b6101e961028d36600461204a565b61126b565b6101e96102a0366004612067565b611426565b6101b56102b336600461204a565b61152e565b6101b56102c636600461204a565b611575565b60015461014f906001600160a01b031681565b61014f6102ec36600461204a565b6115db565b6101e96102ff366004612202565b611627565b6001600160a01b03811660009081526002602052604081205460ff1661032c57506000919050565b506001600160a01b039081166000908152600260205260409020600101541690565b6001600160a01b03821660009081526002602052604081205460ff166103765750600061042d565b6001600160a01b038381166000908152600260205260409020600101541633146103bb5760405162461bcd60e51b81526004016103b290612243565b60405180910390fd5b6040516370a0823160e01b8152306004820152829033906370a0823190602401602060405180830381865afa1580156103f8573d6000803e3d6000fd5b505050506040513d601f19601f8201168201806040525081019061041c919061227a565b106104295750600161042d565b5060005b92915050565b6001600160a01b03811660009081526002602052604081205460ff1661045b57506000919050565b506001600160a01b039081166000908152600260205260409020600701541690565b6001600160a01b03811660009081526002602052604081205460ff166104a557506000919050565b506001600160a01b03166000908152600260205260409020600a015490565b6001600160a01b0382811660009081526002602052604081206001015490911633146105025760405162461bcd60e51b81526004016103b290612243565b6001600160a01b03831660009081526002602052604090205460ff1661052a5750600061042d565b6001600160a01b0383166000908152600260205260409020600c810154600a9091015461055791906122a9565b61056190836122c0565b6001600160a01b03841660009081526002602081905260409091200154106104295750600161042d565b600260005414156105ae5760405162461bcd60e51b81526004016103b2906122d8565b600260008181556001600160a01b0385168152602091909152604090205460ff166105d85761065f565b6001600160a01b038381166000908152600260205260409020600101541633146106145760405162461bcd60e51b81526004016103b290612243565b6000610620848361034e565b90508061062d575061065f565b6001600160a01b038416600090815260026020819052604082200180548592906106589084906122c0565b9091555050505b5050600160005550565b6001600160a01b03811660009081526002602052604081205460ff1661069157506000919050565b6001600160a01b03821660009081526002602081905260409091209081015460039091015461042d91906122a9565b6001600160a01b0381166000908152600260205260408120600901548190819043111561071b576001600160a01b0384166000908152600260205260409020600b81015460099091015461071491906122a9565b9050610744565b6001600160a01b0384166000908152600260205260409020600b015461074190436122a9565b90505b6001600160a01b0384166000908152600260205260408120600881015460099091015461079691610774916122a9565b6001600160a01b0387166000908152600260205260409020600a015490611937565b9050806107a857506000949350505050565b6107b2828261194a565b95945050505050565b6001600160a01b03811660009081526002602052604081205460ff166107e357506000919050565b506001600160a01b031660009081526002602052604090206009015490565b6001546000906001600160a01b0316331461084d5760405162461bcd60e51b815260206004820152600b60248201526a27a7262c902927aaaa22a960a91b60448201526064016103b2565b600260005414156108705760405162461bcd60e51b81526004016103b2906122d8565b60026000556001600160a01b0384166108c15760405162461bcd60e51b8152602060048201526013602482015272496e76616c696420706f6f6c4164647265737360681b60448201526064016103b2565b6000849050306001600160a01b0316816001600160a01b0316633018205f6040518163ffffffff1660e01b8152600401602060405180830381865afa15801561090e573d6000803e3d6000fd5b505050506040513d601f19601f82011682018060405250810190610932919061230f565b6001600160a01b0316146109885760405162461bcd60e51b815260206004820152601e60248201527f576520617265206e6f742074686520706f6f6c20636f6e74726f6c6c6572000060448201526064016103b2565b866001600160a01b0316816001600160a01b031663458c3fb56040518163ffffffff1660e01b8152600401602060405180830381865afa1580156109d0573d6000803e3d6000fd5b505050506040513d601f19601f820116820180604052508101906109f4919061230f565b6001600160a01b031614610a4a5760405162461bcd60e51b815260206004820152601b60248201527f44617461746f6b656e2061646472657373206d6973736d61746368000000000060448201526064016103b2565b856001600160a01b0316816001600160a01b0316634df947d06040518163ffffffff1660e01b8152600401602060405180830381865afa158015610a92573d6000803e3d6000fd5b505050506040513d601f19601f82011682018060405250810190610ab6919061230f565b6001600160a01b031614610b0c5760405162461bcd60e51b815260206004820152601b60248201527f62617365546f6b656e2061646472657373206d6973736d61746368000000000060448201526064016103b2565b604051623d104160e31b815230600482015287906001600160a01b038216906301e88208906024016040805180830381865afa158015610b50573d6000803e3d6000fd5b505050506040513d601f19601f82011682018060405250810190610b749190612341565b51610bc15760405162461bcd60e51b815260206004820152601a60248201527f62617365546f6b656e2061646472657373206d69736d6174636800000000000060448201526064016103b2565b806001600160a01b03166340c10f1930836001600160a01b031663355274ea6040518163ffffffff1660e01b8152600401602060405180830381865afa158015610c0f573d6000803e3d6000fd5b505050506040513d601f19601f82011682018060405250810190610c33919061227a565b6040516001600160e01b031960e085901b1681526001600160a01b0390921660048301526024820152604401600060405180830381600087803b158015610c7957600080fd5b505af1158015610c8d573d6000803e3d6000fd5b50505050806001600160a01b03166318160ddd6040518163ffffffff1660e01b8152600401602060405180830381865afa158015610ccf573d6000803e3d6000fd5b505050506040513d601f19601f82011682018060405250810190610cf3919061227a565b6040516370a0823160e01b81523060048201526001600160a01b038316906370a0823190602401602060405180830381865afa158015610d37573d6000803e3d6000fd5b505050506040513d601f19601f82011682018060405250810190610d5b919061227a565b14610d965760405162461bcd60e51b815260206004820152600b60248201526a135a5b9d0819985a5b195960aa1b60448201526064016103b2565b83600281518110610da957610da961239c565b6020026020010151610e1e600a836001600160a01b03166318160ddd6040518163ffffffff1660e01b8152600401602060405180830381865afa158015610df4573d6000803e3d6000fd5b505050506040513d601f19601f82011682018060405250810190610e18919061227a565b90611937565b1015610e5e5760405162461bcd60e51b815260206004820152600f60248201526e4d61782076657374696e672031302560881b60448201526064016103b2565b604051806101e00160405280600115158152602001886001600160a01b03168152602001876001600160a01b03168152602001600015158152602001826001600160a01b03166318160ddd6040518163ffffffff1660e01b8152600401602060405180830381865afa158015610ed8573d6000803e3d6000fd5b505050506040513d601f19601f82011682018060405250810190610efc919061227a565b8152602001826001600160a01b031663355274ea6040518163ffffffff1660e01b8152600401602060405180830381865afa158015610f3f573d6000803e3d6000fd5b505050506040513d601f19601f82011682018060405250810190610f63919061227a565b815260200185600481518110610f7b57610f7b61239c565b602002602001015181526020016000815260200185600081518110610fa257610fa261239c565b60200260200101518152602001866001600160a01b0316815260200143815260200185600381518110610fd757610fd761239c565b602002602001015143610fea91906122c0565b8152602001856002815181106110025761100261239c565b60209081029190910181015182524382820152600060409283018190526001600160a01b038c811680835260028085529285902086518154888701516001600160a81b0319918216921515610100600160a81b0319169290921761010092861683021783558888015160018401805460608c0151928816931692909217600160a01b9115159190910217905560808801519482019490945560a0870151600382015560c0870151600482015560e087015160058201559286015160068401556101208601516007840180546001600160a01b031916918416919091179055610140860151600884015561016086015160098401819055610180870151600a85018190556101a0880151600b8601556101c090970151600c909401939093558451928352928201949094529288169290917f1fa0b22f78385180668c3daa666fbb365854697bc4033e144adc37f12aa88dfa910160405180910390a361118188856001815181106111745761117461239c565b6020026020010151611956565b600192505050600160005595945050505050565b6001600160a01b03811660009081526002602052604081205460ff166111bd57506000919050565b506001600160a01b03166000908152600260205260409020600c015490565b6001600160a01b03811660009081526002602052604081205460ff1661120457506000919050565b506001600160a01b03166000908152600260208190526040909120015490565b6001600160a01b03811660009081526002602052604081205460ff1661124c57506000919050565b506001600160a01b031660009081526002602052604090206004015490565b6002600054141561128e5760405162461bcd60e51b81526004016103b2906122d8565b600260008181556001600160a01b0383168152602091909152604090205460ff166112f35760405162461bcd60e51b815260206004820152601560248201527422a9291d24b73b30b634b2103230ba30ba37b5b2b760591b60448201526064016103b2565b60006112fe826106c0565b905060008111801561132c57506001600160a01b038216600090815260026020819052604090912001548111155b1561141d576001600160a01b03808316600081815260026020526040902043600b82015560070154849261136292911684611cc8565b6001600160a01b0383166000908152600260208190526040822001805484929061138d9084906122a9565b90915550506001600160a01b0383166000908152600260205260408120600c0180548492906113bd9084906122c0565b90915550506001600160a01b0383811660008181526002602090815260409182902060070154915186815233949290921692917f8479c70af7d51b888c22dbb9c588923dd9fab172526f670ca72796adcb585495910160405180910390a4505b50506001600055565b600260005414156114495760405162461bcd60e51b81526004016103b2906122d8565b600260008181556001600160a01b0384168152602091909152604090205460ff166114735761141d565b6001600160a01b038281166000908152600260205260409020600101541633146114af5760405162461bcd60e51b81526004016103b290612243565b60006114bb83836104c4565b9050806114c8575061141d565b6001600160a01b0380841660008181526002602052604090206001015485926114f392911685611d30565b6001600160a01b0384166000908152600260208190526040822001805485929061151e9084906122a9565b9091555050505050506001600055565b6001600160a01b03811660009081526002602052604081205460ff1661155657506000919050565b506001600160a01b03166000908152600260205260409020600b015490565b6001600160a01b03811660009081526002602052604081205460ff1661159d57506000919050565b6001600160a01b0382166000908152600260208190526040909120600c810154918101546003909101546115d191906122a9565b61042d91906122a9565b6001600160a01b03811660009081526002602052604081205460ff1661160357506000919050565b506001600160a01b0390811660009081526002602052604090205461010090041690565b6002600054141561164a5760405162461bcd60e51b81526004016103b2906122d8565b60026000556001600160a01b03821661169b5760405162461bcd60e51b8152602060048201526013602482015272496e76616c696420706f6f6c4164647265737360681b60448201526064016103b2565b6000829050306001600160a01b0316816001600160a01b0316633018205f6040518163ffffffff1660e01b8152600401602060405180830381865afa1580156116e8573d6000803e3d6000fd5b505050506040513d601f19601f8201168201806040525081019061170c919061230f565b6001600160a01b0316146117625760405162461bcd60e51b815260206004820152601e60248201527f576520617265206e6f742074686520706f6f6c20636f6e74726f6c6c6572000060448201526064016103b2565b836001600160a01b0316816001600160a01b031663458c3fb56040518163ffffffff1660e01b8152600401602060405180830381865afa1580156117aa573d6000803e3d6000fd5b505050506040513d601f19601f820116820180604052508101906117ce919061230f565b6001600160a01b0316146118245760405162461bcd60e51b815260206004820152601b60248201527f44617461746f6b656e2061646472657373206d6973736d61746368000000000060448201526064016103b2565b6040516396fb3eaf60e01b815233600482015284906001600160a01b038216906396fb3eaf906024016020604051808303816000875af115801561186c573d6000803e3d6000fd5b505050506040513d601f19601f8201168201806040525081019061189091906123b2565b6118d15760405162461bcd60e51b81526020600482015260126024820152712737ba1022a9219918102232b83637bcb2b960711b60448201526064016103b2565b6040516334e1990760e01b8152600481018490526001600160a01b038316906334e1990790602401600060405180830381600087803b15801561191357600080fd5b505af1158015611927573d6000803e3d6000fd5b5050600160005550505050505050565b600061194382846123cd565b9392505050565b600061194382846123ef565b6001600160a01b03821660009081526002602052604090205460ff1661197a575050565b6001600160a01b038216600090815260026020526040902060010154600160a01b900460ff16156119a9575050565b6001600160a01b0382166000908152600260205260408120600101805460ff60a01b1916600160a01b1790556119e8670de0b6b3a764000060056123ef565b905060006119ff670de0b6b3a764000060056123ef565b6001600160a01b038516600090815260026020526040812060040154919250611a298560126122a9565b611a3490600a6124f2565b6001600160a01b038716600090815260026020526040902060060154670de0b6b3a76400009086908690611a699087906123ef565b611a7391906123ef565b611a7d91906123cd565b611a8791906123cd565b611a9191906123ef565b6001600160a01b038088166000818152600260205260409020600101549293508892611abe921684611d30565b6001600160a01b0380881660009081526002602052604090208054600190910154610100909104821691611af59183911686611d30565b6001600160a01b03888116600081815260026020526040908190206001810154905491516309ef3f5b60e01b815260048101939093526024830187905260448301899052610100909104831660648301526084820187905260a482018990529091169081906309ef3f5b9060c401600060405180830381600087803b158015611b7d57600080fd5b505af1158015611b91573d6000803e3d6000fd5b505050506001600160a01b03891660009081526002602052604081206004018054879290611bc09084906122a9565b90915550506001600160a01b03891660009081526002602081905260408220018054869290611bf09084906122a9565b90915550506001600160a01b038981166000908152600260205260408082206001015490516370a0823160e01b815230600482015292169182906370a0823190602401602060405180830381865afa158015611c50573d6000803e3d6000fd5b505050506040513d601f19601f82011682018060405250810190611c74919061227a565b6001600160a01b03808d16600090815260026020819052604090912060070154929350611cbb9290911690611caa908490611937565b6001600160a01b0385169190611cc8565b5050505050505050505050565b6040516001600160a01b038316602482015260448101829052611d2b90849063a9059cbb60e01b906064015b60408051601f198184030181529190526020810180516001600160e01b03166001600160e01b031990931692909217909152611de8565b505050565b604051636eb1769f60e11b81523060048201526001600160a01b038381166024830152600091839186169063dd62ed3e90604401602060405180830381865afa158015611d81573d6000803e3d6000fd5b505050506040513d601f19601f82011682018060405250810190611da5919061227a565b611daf91906122c0565b6040516001600160a01b038516602482015260448101829052909150611de290859063095ea7b360e01b90606401611cf4565b50505050565b6000611e3d826040518060400160405280602081526020017f5361666545524332303a206c6f772d6c6576656c2063616c6c206661696c6564815250856001600160a01b0316611eba9092919063ffffffff16565b805190915015611d2b5780806020019051810190611e5b91906123b2565b611d2b5760405162461bcd60e51b815260206004820152602a60248201527f5361666545524332303a204552433230206f7065726174696f6e20646964206e6044820152691bdd081cdd58d8d9595960b21b60648201526084016103b2565b6060611ec98484600085611ed1565b949350505050565b606082471015611f325760405162461bcd60e51b815260206004820152602660248201527f416464726573733a20696e73756666696369656e742062616c616e636520666f6044820152651c8818d85b1b60d21b60648201526084016103b2565b843b611f805760405162461bcd60e51b815260206004820152601d60248201527f416464726573733a2063616c6c20746f206e6f6e2d636f6e747261637400000060448201526064016103b2565b600080866001600160a01b03168587604051611f9c919061252a565b60006040518083038185875af1925050503d8060008114611fd9576040519150601f19603f3d011682016040523d82523d6000602084013e611fde565b606091505b5091509150611fee828286611ff9565b979650505050505050565b60608315612008575081611943565b8251156120185782518084602001fd5b8160405162461bcd60e51b81526004016103b29190612546565b6001600160a01b038116811461204757600080fd5b50565b60006020828403121561205c57600080fd5b813561194381612032565b6000806040838503121561207a57600080fd5b823561208581612032565b946020939093013593505050565b6000806000606084860312156120a857600080fd5b83356120b381612032565b95602085013595506040909401359392505050565b634e487b7160e01b600052604160045260246000fd5b604051601f8201601f1916810167ffffffffffffffff81118282101715612107576121076120c8565b604052919050565b600080600080600060a0868803121561212757600080fd5b853561213281612032565b945060208681013561214381612032565b9450604087013561215381612032565b9350606087013561216381612032565b9250608087013567ffffffffffffffff8082111561218057600080fd5b818901915089601f83011261219457600080fd5b8135818111156121a6576121a66120c8565b8060051b91506121b78483016120de565b818152918301840191848101908c8411156121d157600080fd5b938501935b838510156121ef578435825293850193908501906121d6565b8096505050505050509295509295909350565b60008060006060848603121561221757600080fd5b833561222281612032565b9250602084013561223281612032565b929592945050506040919091013590565b6020808252601c908201527f4552523a204f6e6c7920706f6f6c2063616e2063616c6c207468697300000000604082015260600190565b60006020828403121561228c57600080fd5b5051919050565b634e487b7160e01b600052601160045260246000fd5b6000828210156122bb576122bb612293565b500390565b600082198211156122d3576122d3612293565b500190565b6020808252601f908201527f5265656e7472616e637947756172643a207265656e7472616e742063616c6c00604082015260600190565b60006020828403121561232157600080fd5b815161194381612032565b8051801515811461233c57600080fd5b919050565b60006040828403121561235357600080fd5b6040516040810181811067ffffffffffffffff82111715612376576123766120c8565b6040526123828361232c565b81526123906020840161232c565b60208201529392505050565b634e487b7160e01b600052603260045260246000fd5b6000602082840312156123c457600080fd5b6119438261232c565b6000826123ea57634e487b7160e01b600052601260045260246000fd5b500490565b600081600019048311821515161561240957612409612293565b500290565b600181815b8085111561244957816000190482111561242f5761242f612293565b8085161561243c57918102915b93841c9390800290612413565b509250929050565b6000826124605750600161042d565b8161246d5750600061042d565b8160018114612483576002811461248d576124a9565b600191505061042d565b60ff84111561249e5761249e612293565b50506001821b61042d565b5060208310610133831016604e8410600b84101617156124cc575081810a61042d565b6124d6838361240e565b80600019048211156124ea576124ea612293565b029392505050565b60006119438383612451565b60005b83811015612519578181015183820152602001612501565b83811115611de25750506000910152565b6000825161253c8184602087016124fe565b9190910192915050565b60208152600082518060208401526125658160408501602087016124fe565b601f01601f1916919091016040019291505056fea2646970667358221220279a5ea62eafd3389a37d7e7e17ab5ca4048621247b6f1d0e5bff30a6a71133e64736f6c634300080a0033",
  "linkReferences": {},
  "deployedLinkReferences": {}
}