{
  "_format": "hh-sol-artifact-1",
  "contractName": "SideStaking",
  "sourceName": "contracts/pools/ssContracts/SideStaking.sol",
  "abi": [
    {
      "inputs": [
        {
          "internalType": "address",
          "name": "_router",
          "type": "address"
        }
      ],
      "stateMutability": "nonpayable",
      "type": "constructor"
    },
    {
      "anonymous": false,
      "inputs": [
        {
          "indexed": true,
          "internalType": "address",
          "name": "datatokenAddress",
          "type": "address"
        },
        {
          "indexed": true,
          "internalType": "address",
          "name": "publisherAddress",
          "type": "address"
        },
        {
          "indexed": true,
          "internalType": "address",
          "name": "caller",
          "type": "address"
        },
        {
          "indexed": false,
          "internalType": "uint256",
          "name": "amountVested",
          "type": "uint256"
        }
      ],
      "name": "Vesting",
      "type": "event"
    },
    {
      "anonymous": false,
      "inputs": [
        {
          "indexed": true,
          "internalType": "address",
          "name": "datatokenAddress",
          "type": "address"
        },
        {
          "indexed": true,
          "internalType": "address",
          "name": "publisherAddress",
          "type": "address"
        },
        {
          "indexed": false,
          "internalType": "uint256",
          "name": "vestingEndBlock",
          "type": "uint256"
        },
        {
          "indexed": false,
          "internalType": "uint256",
          "name": "totalVestingAmount",
          "type": "uint256"
        }
      ],
      "name": "VestingCreated",
      "type": "event"
    },
    {
      "inputs": [
        {
          "internalType": "address",
          "name": "datatokenAddress",
          "type": "address"
        },
        {
          "internalType": "uint256",
          "name": "amount",
          "type": "uint256"
        }
      ],
      "name": "Stake",
      "outputs": [],
      "stateMutability": "nonpayable",
      "type": "function"
    },
    {
      "inputs": [
        {
          "internalType": "address",
          "name": "datatokenAddress",
          "type": "address"
        },
        {
          "internalType": "uint256",
          "name": "dtAmountIn",
          "type": "uint256"
        },
        {
          "internalType": "uint256",
          "name": "poolAmountOut",
          "type": "uint256"
        }
      ],
      "name": "UnStake",
      "outputs": [],
      "stateMutability": "nonpayable",
      "type": "function"
    },
    {
      "inputs": [
        {
          "internalType": "address",
          "name": "datatokenAddress",
          "type": "address"
        },
        {
          "internalType": "uint256",
          "name": "amount",
          "type": "uint256"
        }
      ],
      "name": "canStake",
      "outputs": [
        {
          "internalType": "bool",
          "name": "",
          "type": "bool"
        }
      ],
      "stateMutability": "view",
      "type": "function"
    },
    {
      "inputs": [
        {
          "internalType": "address",
          "name": "datatokenAddress",
          "type": "address"
        },
        {
          "internalType": "uint256",
          "name": "lptIn",
          "type": "uint256"
        }
      ],
      "name": "canUnStake",
      "outputs": [
        {
          "internalType": "bool",
          "name": "",
          "type": "bool"
        }
      ],
      "stateMutability": "view",
      "type": "function"
    },
    {
      "inputs": [
        {
          "internalType": "address",
          "name": "datatokenAddress",
          "type": "address"
        }
      ],
      "name": "getAvailableVesting",
      "outputs": [
        {
          "internalType": "uint256",
          "name": "",
          "type": "uint256"
        }
      ],
      "stateMutability": "view",
      "type": "function"
    },
    {
      "inputs": [
        {
          "internalType": "address",
          "name": "datatokenAddress",
          "type": "address"
        }
      ],
      "name": "getBaseTokenAddress",
      "outputs": [
        {
          "internalType": "address",
          "name": "",
          "type": "address"
        }
      ],
      "stateMutability": "view",
      "type": "function"
    },
    {
      "inputs": [
        {
          "internalType": "address",
          "name": "datatokenAddress",
          "type": "address"
        }
      ],
      "name": "getBaseTokenBalance",
      "outputs": [
        {
          "internalType": "uint256",
          "name": "",
          "type": "uint256"
        }
      ],
      "stateMutability": "view",
      "type": "function"
    },
    {
      "inputs": [
        {
          "internalType": "address",
          "name": "datatokenAddress",
          "type": "address"
        }
      ],
      "name": "getDatatokenBalance",
      "outputs": [
        {
          "internalType": "uint256",
          "name": "",
          "type": "uint256"
        }
      ],
      "stateMutability": "view",
      "type": "function"
    },
    {
      "inputs": [
        {
          "internalType": "address",
          "name": "datatokenAddress",
          "type": "address"
        }
      ],
      "name": "getDatatokenCirculatingSupply",
      "outputs": [
        {
          "internalType": "uint256",
          "name": "",
          "type": "uint256"
        }
      ],
      "stateMutability": "view",
      "type": "function"
    },
    {
      "inputs": [
        {
          "internalType": "address",
          "name": "datatokenAddress",
          "type": "address"
        }
      ],
      "name": "getDatatokenCurrentCirculatingSupply",
      "outputs": [
        {
          "internalType": "uint256",
          "name": "",
          "type": "uint256"
        }
      ],
      "stateMutability": "view",
      "type": "function"
    },
    {
      "inputs": [],
      "name": "getId",
      "outputs": [
        {
          "internalType": "uint8",
          "name": "",
          "type": "uint8"
        }
      ],
      "stateMutability": "pure",
      "type": "function"
    },
    {
      "inputs": [
        {
          "internalType": "address",
          "name": "datatokenAddress",
          "type": "address"
        }
      ],
      "name": "getPoolAddress",
      "outputs": [
        {
          "internalType": "address",
          "name": "",
          "type": "address"
        }
      ],
      "stateMutability": "view",
      "type": "function"
    },
    {
      "inputs": [
        {
          "internalType": "address",
          "name": "datatokenAddress",
          "type": "address"
        }
      ],
      "name": "getPublisherAddress",
      "outputs": [
        {
          "internalType": "address",
          "name": "",
          "type": "address"
        }
      ],
      "stateMutability": "view",
      "type": "function"
    },
    {
      "inputs": [
        {
          "internalType": "address",
          "name": "datatokenAddress",
          "type": "address"
        }
      ],
      "name": "getVesting",
      "outputs": [],
      "stateMutability": "nonpayable",
      "type": "function"
    },
    {
      "inputs": [
        {
          "internalType": "address",
          "name": "datatokenAddress",
          "type": "address"
        }
      ],
      "name": "getvestingAmount",
      "outputs": [
        {
          "internalType": "uint256",
          "name": "",
          "type": "uint256"
        }
      ],
      "stateMutability": "view",
      "type": "function"
    },
    {
      "inputs": [
        {
          "internalType": "address",
          "name": "datatokenAddress",
          "type": "address"
        }
      ],
      "name": "getvestingAmountSoFar",
      "outputs": [
        {
          "internalType": "uint256",
          "name": "",
          "type": "uint256"
        }
      ],
      "stateMutability": "view",
      "type": "function"
    },
    {
      "inputs": [
        {
          "internalType": "address",
          "name": "datatokenAddress",
          "type": "address"
        }
      ],
      "name": "getvestingEndBlock",
      "outputs": [
        {
          "internalType": "uint256",
          "name": "",
          "type": "uint256"
        }
      ],
      "stateMutability": "view",
      "type": "function"
    },
    {
      "inputs": [
        {
          "internalType": "address",
          "name": "datatokenAddress",
          "type": "address"
        }
      ],
      "name": "getvestingLastBlock",
      "outputs": [
        {
          "internalType": "uint256",
          "name": "",
          "type": "uint256"
        }
      ],
      "stateMutability": "view",
      "type": "function"
    },
    {
      "inputs": [
        {
          "internalType": "address",
          "name": "datatokenAddress",
          "type": "address"
        },
        {
          "internalType": "address",
          "name": "baseTokenAddress",
          "type": "address"
        },
        {
          "internalType": "address",
          "name": "poolAddress",
          "type": "address"
        },
        {
          "internalType": "address",
          "name": "publisherAddress",
          "type": "address"
        },
        {
          "internalType": "uint256[]",
          "name": "ssParams",
          "type": "uint256[]"
        }
      ],
      "name": "newDatatokenCreated",
      "outputs": [
        {
          "internalType": "bool",
          "name": "",
          "type": "bool"
        }
      ],
      "stateMutability": "nonpayable",
      "type": "function"
    },
    {
      "inputs": [],
      "name": "router",
      "outputs": [
        {
          "internalType": "address",
          "name": "",
          "type": "address"
        }
      ],
      "stateMutability": "view",
      "type": "function"
    },
    {
      "inputs": [
        {
          "internalType": "address",
          "name": "datatokenAddress",
          "type": "address"
        },
        {
          "internalType": "address",
          "name": "poolAddress",
          "type": "address"
        },
        {
          "internalType": "uint256",
          "name": "swapFee",
          "type": "uint256"
        }
      ],
      "name": "setPoolSwapFee",
      "outputs": [],
      "stateMutability": "nonpayable",
      "type": "function"
    }
  ],
  "bytecode": "0x60806040523480156200001157600080fd5b5060405162002730380380620027308339810160408190526200003491620000ba565b60016000556001600160a01b038116620000945760405162461bcd60e51b815260206004820152601760248201527f496e76616c6964205f726f757465722061646472657373000000000000000000604482015260640160405180910390fd5b600180546001600160a01b0319166001600160a01b0392909216919091179055620000ec565b600060208284031215620000cd57600080fd5b81516001600160a01b0381168114620000e557600080fd5b9392505050565b61263480620000fc6000396000f3fe608060405234801561001057600080fd5b50600436106101375760003560e01c806383b87e5a116100b8578063ebedb8b31161007c578063ebedb8b314610292578063f03cd396146102a5578063f6da805f146102b8578063f887ea40146102cb578063fa93fd6d146102de578063ff299f33146102f157600080fd5b806383b87e5a14610233578063bccf74fe14610246578063bcf7135e14610259578063c4be24901461026c578063cc49ede71461027f57600080fd5b806354a97630116100ff57806354a97630146101d65780635d1ca631146101eb57806367f5494d146101fa5780636aca230c1461020d578063799ece851461022057600080fd5b80631228cbee1461013c5780631a1315661461016c5780631f16cde61461018f5780632686375b146101a25780632afbbacb146101c3575b600080fd5b61014f61014a3660046120cf565b610304565b6040516001600160a01b0390911681526020015b60405180910390f35b61017f61017a3660046120ec565b61034e565b6040519015158152602001610163565b61014f61019d3660046120cf565b610433565b6101b56101b03660046120cf565b61047d565b604051908152602001610163565b61017f6101d13660046120ec565b6104c4565b6101e96101e4366004612118565b61058b565b005b60405160018152602001610163565b6101b56102083660046120cf565b610669565b6101b561021b3660046120cf565b6106c0565b6101b561022e3660046120cf565b6107a7565b61017f610241366004612194565b6107ee565b6101b56102543660046120cf565b61117c565b6101b56102673660046120cf565b6111c3565b6101b561027a3660046120cf565b61120b565b6101e961028d3660046120cf565b611252565b6101e96102a03660046120ec565b611528565b6101b56102b33660046120cf565b611630565b6101b56102c63660046120cf565b611677565b60015461014f906001600160a01b031681565b61014f6102ec3660046120cf565b6116dd565b6101e96102ff366004612287565b611729565b6001600160a01b03811660009081526002602052604081205460ff1661032c57506000919050565b506001600160a01b039081166000908152600260205260409020600101541690565b6001600160a01b03821660009081526002602052604081205460ff166103765750600061042d565b6001600160a01b038381166000908152600260205260409020600101541633146103bb5760405162461bcd60e51b81526004016103b2906122c8565b60405180910390fd5b6040516370a0823160e01b8152306004820152829033906370a0823190602401602060405180830381865afa1580156103f8573d6000803e3d6000fd5b505050506040513d601f19601f8201168201806040525081019061041c91906122ff565b106104295750600161042d565b5060005b92915050565b6001600160a01b03811660009081526002602052604081205460ff1661045b57506000919050565b506001600160a01b039081166000908152600260205260409020600701541690565b6001600160a01b03811660009081526002602052604081205460ff166104a557506000919050565b506001600160a01b03166000908152600260205260409020600a015490565b6001600160a01b0382811660009081526002602052604081206001015490911633146105025760405162461bcd60e51b81526004016103b2906122c8565b6001600160a01b03831660009081526002602052604090205460ff1661052a5750600061042d565b6001600160a01b0383166000908152600260205260409020600c810154600a90910154610557919061232e565b6105619083612345565b6001600160a01b03841660009081526002602081905260409091200154106104295750600161042d565b600260005414156105ae5760405162461bcd60e51b81526004016103b29061235d565b600260008181556001600160a01b0385168152602091909152604090205460ff166105d85761065f565b6001600160a01b038381166000908152600260205260409020600101541633146106145760405162461bcd60e51b81526004016103b2906122c8565b6000610620848361034e565b90508061062d575061065f565b6001600160a01b03841660009081526002602081905260408220018054859290610658908490612345565b9091555050505b5050600160005550565b6001600160a01b03811660009081526002602052604081205460ff1661069157506000919050565b6001600160a01b03821660009081526002602081905260409091209081015460039091015461042d919061232e565b6001600160a01b0381166000908152600260205260408120600901548190431115610719576001600160a01b0383166000908152600260205260409020600b810154600990910154610712919061232e565b9050610742565b6001600160a01b0383166000908152600260205260409020600b015461073f904361232e565b90505b6001600160a01b0383166000908152600260205260408120600881015460099091015461079f916107729161232e565b6001600160a01b0386166000908152600260205260409020600a0154610799908590611a39565b90611a4c565b949350505050565b6001600160a01b03811660009081526002602052604081205460ff166107cf57506000919050565b506001600160a01b031660009081526002602052604090206009015490565b6001546000906001600160a01b031633146108395760405162461bcd60e51b815260206004820152600b60248201526a27a7262c902927aaaa22a960a91b60448201526064016103b2565b6002600054141561085c5760405162461bcd60e51b81526004016103b29061235d565b60026000556001600160a01b0384166108ad5760405162461bcd60e51b8152602060048201526013602482015272496e76616c696420706f6f6c4164647265737360681b60448201526064016103b2565b6000849050306001600160a01b0316816001600160a01b0316633018205f6040518163ffffffff1660e01b8152600401602060405180830381865afa1580156108fa573d6000803e3d6000fd5b505050506040513d601f19601f8201168201806040525081019061091e9190612394565b6001600160a01b0316146109745760405162461bcd60e51b815260206004820152601e60248201527f576520617265206e6f742074686520706f6f6c20636f6e74726f6c6c6572000060448201526064016103b2565b866001600160a01b0316816001600160a01b031663458c3fb56040518163ffffffff1660e01b8152600401602060405180830381865afa1580156109bc573d6000803e3d6000fd5b505050506040513d601f19601f820116820180604052508101906109e09190612394565b6001600160a01b031614610a365760405162461bcd60e51b815260206004820152601b60248201527f44617461746f6b656e2061646472657373206d6973736d61746368000000000060448201526064016103b2565b856001600160a01b0316816001600160a01b0316634df947d06040518163ffffffff1660e01b8152600401602060405180830381865afa158015610a7e573d6000803e3d6000fd5b505050506040513d601f19601f82011682018060405250810190610aa29190612394565b6001600160a01b031614610af85760405162461bcd60e51b815260206004820152601b60248201527f62617365546f6b656e2061646472657373206d6973736d61746368000000000060448201526064016103b2565b604051623d104160e31b815230600482015287906001600160a01b038216906301e88208906024016040805180830381865afa158015610b3c573d6000803e3d6000fd5b505050506040513d601f19601f82011682018060405250810190610b6091906123c6565b51610bad5760405162461bcd60e51b815260206004820152601a60248201527f62617365546f6b656e2061646472657373206d69736d6174636800000000000060448201526064016103b2565b806001600160a01b03166340c10f1930836001600160a01b031663355274ea6040518163ffffffff1660e01b8152600401602060405180830381865afa158015610bfb573d6000803e3d6000fd5b505050506040513d601f19601f82011682018060405250810190610c1f91906122ff565b6040516001600160e01b031960e085901b1681526001600160a01b0390921660048301526024820152604401600060405180830381600087803b158015610c6557600080fd5b505af1158015610c79573d6000803e3d6000fd5b50505050806001600160a01b03166318160ddd6040518163ffffffff1660e01b8152600401602060405180830381865afa158015610cbb573d6000803e3d6000fd5b505050506040513d601f19601f82011682018060405250810190610cdf91906122ff565b6040516370a0823160e01b81523060048201526001600160a01b038316906370a0823190602401602060405180830381865afa158015610d23573d6000803e3d6000fd5b505050506040513d601f19601f82011682018060405250810190610d4791906122ff565b1015610d835760405162461bcd60e51b815260206004820152600b60248201526a135a5b9d0819985a5b195960aa1b60448201526064016103b2565b83600281518110610d9657610d96612421565b6020026020010151610e05600a836001600160a01b03166318160ddd6040518163ffffffff1660e01b8152600401602060405180830381865afa158015610de1573d6000803e3d6000fd5b505050506040513d601f19601f8201168201806040525081019061079991906122ff565b1015610e455760405162461bcd60e51b815260206004820152600f60248201526e4d61782076657374696e672031302560881b60448201526064016103b2565b604051806101e00160405280600115158152602001886001600160a01b03168152602001876001600160a01b03168152602001600015158152602001826001600160a01b03166318160ddd6040518163ffffffff1660e01b8152600401602060405180830381865afa158015610ebf573d6000803e3d6000fd5b505050506040513d601f19601f82011682018060405250810190610ee391906122ff565b8152602001826001600160a01b031663355274ea6040518163ffffffff1660e01b8152600401602060405180830381865afa158015610f26573d6000803e3d6000fd5b505050506040513d601f19601f82011682018060405250810190610f4a91906122ff565b815260200185600481518110610f6257610f62612421565b602002602001015181526020016000815260200185600081518110610f8957610f89612421565b60200260200101518152602001866001600160a01b0316815260200143815260200185600381518110610fbe57610fbe612421565b602002602001015143610fd19190612345565b815260200185600281518110610fe957610fe9612421565b60209081029190910181015182524382820152600060409283018190526001600160a01b038c811680835260028085529285902086518154888701516001600160a81b0319918216921515610100600160a81b0319169290921761010092861683021783558888015160018401805460608c0151928816931692909217600160a01b9115159190910217905560808801519482019490945560a0870151600382015560c0870151600482015560e087015160058201559286015160068401556101208601516007840180546001600160a01b031916918416919091179055610140860151600884015561016086015160098401819055610180870151600a85018190556101a0880151600b8601556101c090970151600c909401939093558451928352928201949094529288169290917f1fa0b22f78385180668c3daa666fbb365854697bc4033e144adc37f12aa88dfa910160405180910390a3611168888560018151811061115b5761115b612421565b6020026020010151611a58565b600192505050600160005595945050505050565b6001600160a01b03811660009081526002602052604081205460ff166111a457506000919050565b506001600160a01b03166000908152600260205260409020600c015490565b6001600160a01b03811660009081526002602052604081205460ff166111eb57506000919050565b506001600160a01b03166000908152600260208190526040909120015490565b6001600160a01b03811660009081526002602052604081205460ff1661123357506000919050565b506001600160a01b031660009081526002602052604090206004015490565b600260005414156112755760405162461bcd60e51b81526004016103b29061235d565b600260008181556001600160a01b0383168152602091909152604090205460ff166112da5760405162461bcd60e51b815260206004820152601560248201527422a9291d24b73b30b634b2103230ba30ba37b5b2b760591b60448201526064016103b2565b60006112e5826106c0565b905060008111801561131357506001600160a01b038216600090815260026020819052604090912001548111155b1561151f576001600160a01b0382166000908152600260208190526040822043600b820155018054849284929161134b90849061232e565b90915550506001600160a01b0383166000908152600260205260408120600c01805484929061137b908490612345565b92505081905550336001600160a01b0316816001600160a01b031663e487c2e86040518163ffffffff1660e01b8152600401602060405180830381865afa1580156113ca573d6000803e3d6000fd5b505050506040513d601f19601f820116820180604052508101906113ee9190612394565b6001600160a01b0316846001600160a01b03167f8479c70af7d51b888c22dbb9c588923dd9fab172526f670ca72796adcb5854958560405161143291815260200190565b60405180910390a4806001600160a01b031663a9059cbb826001600160a01b031663e487c2e86040518163ffffffff1660e01b8152600401602060405180830381865afa158015611487573d6000803e3d6000fd5b505050506040513d601f19601f820116820180604052508101906114ab9190612394565b6040516001600160e01b031960e084901b1681526001600160a01b039091166004820152602481018590526044016020604051808303816000875af11580156114f8573d6000803e3d6000fd5b505050506040513d601f19601f8201168201806040525081019061151c9190612437565b50505b50506001600055565b6002600054141561154b5760405162461bcd60e51b81526004016103b29061235d565b600260008181556001600160a01b0384168152602091909152604090205460ff166115755761151f565b6001600160a01b038281166000908152600260205260409020600101541633146115b15760405162461bcd60e51b81526004016103b2906122c8565b60006115bd83836104c4565b9050806115ca575061151f565b6001600160a01b0380841660008181526002602052604090206001015485926115f592911685611dba565b6001600160a01b0384166000908152600260208190526040822001805485929061162090849061232e565b9091555050505050506001600055565b6001600160a01b03811660009081526002602052604081205460ff1661165857506000919050565b506001600160a01b03166000908152600260205260409020600b015490565b6001600160a01b03811660009081526002602052604081205460ff1661169f57506000919050565b6001600160a01b0382166000908152600260208190526040909120600c810154918101546003909101546116d3919061232e565b61042d919061232e565b6001600160a01b03811660009081526002602052604081205460ff1661170557506000919050565b506001600160a01b0390811660009081526002602052604090205461010090041690565b6002600054141561174c5760405162461bcd60e51b81526004016103b29061235d565b60026000556001600160a01b03821661179d5760405162461bcd60e51b8152602060048201526013602482015272496e76616c696420706f6f6c4164647265737360681b60448201526064016103b2565b6000829050306001600160a01b0316816001600160a01b0316633018205f6040518163ffffffff1660e01b8152600401602060405180830381865afa1580156117ea573d6000803e3d6000fd5b505050506040513d601f19601f8201168201806040525081019061180e9190612394565b6001600160a01b0316146118645760405162461bcd60e51b815260206004820152601e60248201527f576520617265206e6f742074686520706f6f6c20636f6e74726f6c6c6572000060448201526064016103b2565b836001600160a01b0316816001600160a01b031663458c3fb56040518163ffffffff1660e01b8152600401602060405180830381865afa1580156118ac573d6000803e3d6000fd5b505050506040513d601f19601f820116820180604052508101906118d09190612394565b6001600160a01b0316146119265760405162461bcd60e51b815260206004820152601b60248201527f44617461746f6b656e2061646472657373206d6973736d61746368000000000060448201526064016103b2565b6040516396fb3eaf60e01b815233600482015284906001600160a01b038216906396fb3eaf906024016020604051808303816000875af115801561196e573d6000803e3d6000fd5b505050506040513d601f19601f820116820180604052508101906119929190612437565b6119d35760405162461bcd60e51b81526020600482015260126024820152712737ba1022a9219918102232b83637bcb2b960711b60448201526064016103b2565b6040516334e1990760e01b8152600481018490526001600160a01b038316906334e1990790602401600060405180830381600087803b158015611a1557600080fd5b505af1158015611a29573d6000803e3d6000fd5b5050600160005550505050505050565b6000611a458284612452565b9392505050565b6000611a458284612471565b6001600160a01b03821660009081526002602052604090205460ff16611a7c575050565b6001600160a01b038216600090815260026020526040902060010154600160a01b900460ff1615611aab575050565b6001600160a01b0382166000908152600260205260408120600101805460ff60a01b1916600160a01b179055611aea670de0b6b3a76400006005612452565b90506000611b01670de0b6b3a76400006005612452565b6001600160a01b0385166000908152600260205260408120600481015460069091015492935091670de0b6b3a764000090859085908590611b438a601261232e565b611b4e90600a612577565b611b589190612452565b611b629190612452565b611b6c9190612452565b611b769190612471565b611b809190612471565b6001600160a01b038716600090815260026020526040812060040180549293508492909190611bb090849061232e565b90915550506001600160a01b03861660009081526002602081905260408220018054839290611be090849061232e565b90915550506001600160a01b038087166000818152600260205260409020600101548892611c1092911684611dba565b6001600160a01b0380881660009081526002602052604090208054600190910154610100909104821691611c479183911686611dba565b6001600160a01b03888116600081815260026020526040908190206001810154905491516309ef3f5b60e01b815260048101939093526024830187905260448301899052610100909104831660648301526084820187905260a482018990529091169081906309ef3f5b9060c401600060405180830381600087803b158015611ccf57600080fd5b505af1158015611ce3573d6000803e3d6000fd5b505050506001600160a01b038981166000908152600260205260408082206001015490516370a0823160e01b815230600482015292169182906370a0823190602401602060405180830381865afa158015611d42573d6000803e3d6000fd5b505050506040513d601f19601f82011682018060405250810190611d6691906122ff565b6001600160a01b03808d16600090815260026020819052604090912060070154929350611dad9290911690611d9c908490611a4c565b6001600160a01b0385169190611ea5565b5050505050505050505050565b604051636eb1769f60e11b81523060048201526001600160a01b038381166024830152600091839186169063dd62ed3e90604401602060405180830381865afa158015611e0b573d6000803e3d6000fd5b505050506040513d601f19601f82011682018060405250810190611e2f91906122ff565b611e399190612345565b6040516001600160a01b038516602482015260448101829052909150611e9f90859063095ea7b360e01b906064015b60408051601f198184030181529190526020810180516001600160e01b03166001600160e01b031990931692909217909152611eda565b50505050565b6040516001600160a01b038316602482015260448101829052611ed590849063a9059cbb60e01b90606401611e68565b505050565b6000611f2f826040518060400160405280602081526020017f5361666545524332303a206c6f772d6c6576656c2063616c6c206661696c6564815250856001600160a01b0316611fac9092919063ffffffff16565b805190915015611ed55780806020019051810190611f4d9190612437565b611ed55760405162461bcd60e51b815260206004820152602a60248201527f5361666545524332303a204552433230206f7065726174696f6e20646964206e6044820152691bdd081cdd58d8d9595960b21b60648201526084016103b2565b606061079f848460008585843b6120055760405162461bcd60e51b815260206004820152601d60248201527f416464726573733a2063616c6c20746f206e6f6e2d636f6e747261637400000060448201526064016103b2565b600080866001600160a01b0316858760405161202191906125af565b60006040518083038185875af1925050503d806000811461205e576040519150601f19603f3d011682016040523d82523d6000602084013e612063565b606091505b509150915061207382828661207e565b979650505050505050565b6060831561208d575081611a45565b82511561209d5782518084602001fd5b8160405162461bcd60e51b81526004016103b291906125cb565b6001600160a01b03811681146120cc57600080fd5b50565b6000602082840312156120e157600080fd5b8135611a45816120b7565b600080604083850312156120ff57600080fd5b823561210a816120b7565b946020939093013593505050565b60008060006060848603121561212d57600080fd5b8335612138816120b7565b95602085013595506040909401359392505050565b634e487b7160e01b600052604160045260246000fd5b604051601f8201601f1916810167ffffffffffffffff8111828210171561218c5761218c61214d565b604052919050565b600080600080600060a086880312156121ac57600080fd5b85356121b7816120b7565b94506020868101356121c8816120b7565b945060408701356121d8816120b7565b935060608701356121e8816120b7565b9250608087013567ffffffffffffffff8082111561220557600080fd5b818901915089601f83011261221957600080fd5b81358181111561222b5761222b61214d565b8060051b915061223c848301612163565b818152918301840191848101908c84111561225657600080fd5b938501935b838510156122745784358252938501939085019061225b565b8096505050505050509295509295909350565b60008060006060848603121561229c57600080fd5b83356122a7816120b7565b925060208401356122b7816120b7565b929592945050506040919091013590565b6020808252601c908201527f4552523a204f6e6c7920706f6f6c2063616e2063616c6c207468697300000000604082015260600190565b60006020828403121561231157600080fd5b5051919050565b634e487b7160e01b600052601160045260246000fd5b60008282101561234057612340612318565b500390565b6000821982111561235857612358612318565b500190565b6020808252601f908201527f5265656e7472616e637947756172643a207265656e7472616e742063616c6c00604082015260600190565b6000602082840312156123a657600080fd5b8151611a45816120b7565b805180151581146123c157600080fd5b919050565b6000604082840312156123d857600080fd5b6040516040810181811067ffffffffffffffff821117156123fb576123fb61214d565b604052612407836123b1565b8152612415602084016123b1565b60208201529392505050565b634e487b7160e01b600052603260045260246000fd5b60006020828403121561244957600080fd5b611a45826123b1565b600081600019048311821515161561246c5761246c612318565b500290565b60008261248e57634e487b7160e01b600052601260045260246000fd5b500490565b600181815b808511156124ce5781600019048211156124b4576124b4612318565b808516156124c157918102915b93841c9390800290612498565b509250929050565b6000826124e55750600161042d565b816124f25750600061042d565b816001811461250857600281146125125761252e565b600191505061042d565b60ff84111561252357612523612318565b50506001821b61042d565b5060208310610133831016604e8410600b8410161715612551575081810a61042d565b61255b8383612493565b806000190482111561256f5761256f612318565b029392505050565b6000611a4583836124d6565b60005b8381101561259e578181015183820152602001612586565b83811115611e9f5750506000910152565b600082516125c1818460208701612583565b9190910192915050565b60208152600082518060208401526125ea816040850160208701612583565b601f01601f1916919091016040019291505056fea2646970667358221220b122184661f3308aea7d5f8328b7b30bafae3a55f1b85e44497d34d1fc56558764736f6c634300080c0033",
  "linkReferences": {},
  "deployedLinkReferences": {}
}