{
  "_format": "hh-sol-artifact-1",
  "contractName": "SideStaking",
  "sourceName": "contracts/pools/ssContracts/SideStaking.sol",
  "abi": [
    {
      "inputs": [
        {
          "internalType": "address",
          "name": "_router",
          "type": "address"
        }
      ],
      "stateMutability": "nonpayable",
      "type": "constructor"
    },
    {
      "inputs": [
        {
          "internalType": "address",
          "name": "datatokenAddress",
          "type": "address"
        },
        {
          "internalType": "address",
          "name": "stakeToken",
          "type": "address"
        },
        {
          "internalType": "uint256",
          "name": "amount",
          "type": "uint256"
        }
      ],
      "name": "Stake",
      "outputs": [],
      "stateMutability": "nonpayable",
      "type": "function"
    },
    {
      "inputs": [
        {
          "internalType": "address",
          "name": "datatokenAddress",
          "type": "address"
        },
        {
          "internalType": "address",
          "name": "stakeToken",
          "type": "address"
        },
        {
          "internalType": "uint256",
          "name": "dtAmountIn",
          "type": "uint256"
        },
        {
          "internalType": "uint256",
          "name": "poolAmountOut",
          "type": "uint256"
        }
      ],
      "name": "UnStake",
      "outputs": [],
      "stateMutability": "nonpayable",
      "type": "function"
    },
    {
      "inputs": [
        {
          "internalType": "address",
          "name": "datatokenAddress",
          "type": "address"
        },
        {
          "internalType": "address",
          "name": "stakeToken",
          "type": "address"
        },
        {
          "internalType": "uint256",
          "name": "amount",
          "type": "uint256"
        }
      ],
      "name": "canStake",
      "outputs": [
        {
          "internalType": "bool",
          "name": "",
          "type": "bool"
        }
      ],
      "stateMutability": "view",
      "type": "function"
    },
    {
      "inputs": [
        {
          "internalType": "address",
          "name": "datatokenAddress",
          "type": "address"
        },
        {
          "internalType": "address",
          "name": "stakeToken",
          "type": "address"
        },
        {
          "internalType": "uint256",
          "name": "lptIn",
          "type": "uint256"
        }
      ],
      "name": "canUnStake",
      "outputs": [
        {
          "internalType": "bool",
          "name": "",
          "type": "bool"
        }
      ],
      "stateMutability": "view",
      "type": "function"
    },
    {
      "inputs": [
        {
          "internalType": "address",
          "name": "datatokenAddress",
          "type": "address"
        }
      ],
      "name": "getBaseTokenAddress",
      "outputs": [
        {
          "internalType": "address",
          "name": "",
          "type": "address"
        }
      ],
      "stateMutability": "view",
      "type": "function"
    },
    {
      "inputs": [
        {
          "internalType": "address",
          "name": "datatokenAddress",
          "type": "address"
        }
      ],
      "name": "getBaseTokenBalance",
      "outputs": [
        {
          "internalType": "uint256",
          "name": "",
          "type": "uint256"
        }
      ],
      "stateMutability": "view",
      "type": "function"
    },
    {
      "inputs": [
        {
          "internalType": "address",
          "name": "datatokenAddress",
          "type": "address"
        }
      ],
      "name": "getDataTokenBalance",
      "outputs": [
        {
          "internalType": "uint256",
          "name": "",
          "type": "uint256"
        }
      ],
      "stateMutability": "view",
      "type": "function"
    },
    {
      "inputs": [
        {
          "internalType": "address",
          "name": "datatokenAddress",
          "type": "address"
        }
      ],
      "name": "getDataTokenCirculatingSupply",
      "outputs": [
        {
          "internalType": "uint256",
          "name": "",
          "type": "uint256"
        }
      ],
      "stateMutability": "view",
      "type": "function"
    },
    {
      "inputs": [
        {
          "internalType": "address",
          "name": "datatokenAddress",
          "type": "address"
        }
      ],
      "name": "getDataTokenCurrentCirculatingSupply",
      "outputs": [
        {
          "internalType": "uint256",
          "name": "",
          "type": "uint256"
        }
      ],
      "stateMutability": "view",
      "type": "function"
    },
    {
      "inputs": [
        {
          "internalType": "address",
          "name": "datatokenAddress",
          "type": "address"
        }
      ],
      "name": "getPoolAddress",
      "outputs": [
        {
          "internalType": "address",
          "name": "",
          "type": "address"
        }
      ],
      "stateMutability": "view",
      "type": "function"
    },
    {
      "inputs": [
        {
          "internalType": "address",
          "name": "datatokenAddress",
          "type": "address"
        }
      ],
      "name": "getPublisherAddress",
      "outputs": [
        {
          "internalType": "address",
          "name": "",
          "type": "address"
        }
      ],
      "stateMutability": "view",
      "type": "function"
    },
    {
      "inputs": [
        {
          "internalType": "address",
          "name": "datatokenAddress",
          "type": "address"
        }
      ],
      "name": "getVesting",
      "outputs": [],
      "stateMutability": "nonpayable",
      "type": "function"
    },
    {
      "inputs": [
        {
          "internalType": "address",
          "name": "datatokenAddress",
          "type": "address"
        }
      ],
      "name": "getvestingAmount",
      "outputs": [
        {
          "internalType": "uint256",
          "name": "",
          "type": "uint256"
        }
      ],
      "stateMutability": "view",
      "type": "function"
    },
    {
      "inputs": [
        {
          "internalType": "address",
          "name": "datatokenAddress",
          "type": "address"
        }
      ],
      "name": "getvestingAmountSoFar",
      "outputs": [
        {
          "internalType": "uint256",
          "name": "",
          "type": "uint256"
        }
      ],
      "stateMutability": "view",
      "type": "function"
    },
    {
      "inputs": [
        {
          "internalType": "address",
          "name": "datatokenAddress",
          "type": "address"
        }
      ],
      "name": "getvestingEndBlock",
      "outputs": [
        {
          "internalType": "uint256",
          "name": "",
          "type": "uint256"
        }
      ],
      "stateMutability": "view",
      "type": "function"
    },
    {
      "inputs": [
        {
          "internalType": "address",
          "name": "datatokenAddress",
          "type": "address"
        }
      ],
      "name": "getvestingLastBlock",
      "outputs": [
        {
          "internalType": "uint256",
          "name": "",
          "type": "uint256"
        }
      ],
      "stateMutability": "view",
      "type": "function"
    },
    {
      "inputs": [
        {
          "internalType": "address",
          "name": "datatokenAddress",
          "type": "address"
        },
        {
          "internalType": "address",
          "name": "basetokenAddress",
          "type": "address"
        },
        {
          "internalType": "address",
          "name": "poolAddress",
          "type": "address"
        },
        {
          "internalType": "address",
          "name": "publisherAddress",
          "type": "address"
        },
        {
          "internalType": "uint256[]",
          "name": "ssParams",
          "type": "uint256[]"
        }
      ],
      "name": "newDataTokenCreated",
      "outputs": [
        {
          "internalType": "bool",
          "name": "",
          "type": "bool"
        }
      ],
      "stateMutability": "nonpayable",
      "type": "function"
    },
    {
      "inputs": [],
      "name": "router",
      "outputs": [
        {
          "internalType": "address",
          "name": "",
          "type": "address"
        }
      ],
      "stateMutability": "view",
      "type": "function"
    }
  ],
  "bytecode": "0x60806040523480156200001157600080fd5b506040516200231d3803806200231d8339810160408190526200003491620000ba565b60016000556001600160a01b038116620000945760405162461bcd60e51b815260206004820152601760248201527f496e76616c6964205f726f757465722061646472657373000000000000000000604482015260640160405180910390fd5b600180546001600160a01b0319166001600160a01b0392909216919091179055620000ec565b600060208284031215620000cd57600080fd5b81516001600160a01b0381168114620000e557600080fd5b9392505050565b61222180620000fc6000396000f3fe608060405234801561001057600080fd5b50600436106101165760003560e01c8063bccf74fe116100a2578063efd4810311610071578063efd481031461024f578063f03cd39614610262578063f887ea4014610275578063f8932d6114610288578063fa93fd6d1461029b57600080fd5b8063bccf74fe14610203578063c1b4904d14610216578063c4be249014610229578063cc49ede71461023c57600080fd5b806353f0c3b4116100e957806353f0c3b4146101a2578063799ece85146101b55780637b01ab30146101c857806388afadce146101dd57806399039fcf146101f057600080fd5b80631228cbee1461011b5780631f16cde61461014b5780632686375b1461015e57806326b1f01f1461017f575b600080fd5b61012e610129366004611cd7565b6102ae565b6040516001600160a01b0390911681526020015b60405180910390f35b61012e610159366004611cd7565b6102fd565b61017161016c366004611cd7565b61034c565b604051908152602001610142565b61019261018d366004611cf4565b610398565b6040519015158152602001610142565b6101926101b0366004611d7c565b610474565b6101716101c3366004611cd7565b610df2565b6101db6101d6366004611e6f565b610e3e565b005b6101716101eb366004611cd7565b610f28565b6101db6101fe366004611cf4565b610f8a565b610171610211366004611cd7565b61109f565b610171610224366004611cd7565b6110eb565b610171610237366004611cd7565b611138565b6101db61024a366004611cd7565b611184565b61019261025d366004611cf4565b61139f565b610171610270366004611cd7565b6114a8565b60015461012e906001600160a01b031681565b610171610296366004611cd7565b6114f4565b61012e6102a9366004611cd7565b611576565b6001600160a01b03811660009081526002602052604081205460ff1615156001146102db57506000919050565b506001600160a01b039081166000908152600260205260409020600101541690565b6001600160a01b03811660009081526002602052604081205460ff16151560011461032a57506000919050565b506001600160a01b039081166000908152600260205260409020600701541690565b6001600160a01b03811660009081526002602052604081205460ff16151560011461037957506000919050565b506001600160a01b03166000908152600260205260409020600a015490565b6001600160a01b0383811660009081526002602052604081206001015490911633146103df5760405162461bcd60e51b81526004016103d690611eb5565b60405180910390fd5b6001600160a01b03841660009081526002602052604090205460ff16151560011461040c5750600061046d565b6001600160a01b0384811660009081526002602052604090205461010090048116908416141561043e5750600061046d565b6001600160a01b0384166000908152600260208190526040909120015482116104695750600161046d565b5060005b9392505050565b6001546000906001600160a01b031633146104bf5760405162461bcd60e51b815260206004820152600b60248201526a27a7262c902927aaaa22a960a91b60448201526064016103d6565b600260005414156104e25760405162461bcd60e51b81526004016103d690611eec565b60026000556001600160a01b0384166105335760405162461bcd60e51b8152602060048201526013602482015272496e76616c696420706f6f6c4164647265737360681b60448201526064016103d6565b6000849050306001600160a01b0316816001600160a01b0316633018205f6040518163ffffffff1660e01b8152600401602060405180830381865afa158015610580573d6000803e3d6000fd5b505050506040513d601f19601f820116820180604052508101906105a49190611f23565b6001600160a01b0316146105fa5760405162461bcd60e51b815260206004820152601e60248201527f576520617265206e6f742074686520706f6f6c20636f6e74726f6c6c6572000060448201526064016103d6565b866001600160a01b0316816001600160a01b03166304ad79546040518163ffffffff1660e01b8152600401602060405180830381865afa158015610642573d6000803e3d6000fd5b505050506040513d601f19601f820116820180604052508101906106669190611f23565b6001600160a01b0316146106bc5760405162461bcd60e51b815260206004820152601b60248201527f44617461546f6b656e2061646472657373206d6973736d61746368000000000060448201526064016103d6565b856001600160a01b0316816001600160a01b0316634df947d06040518163ffffffff1660e01b8152600401602060405180830381865afa158015610704573d6000803e3d6000fd5b505050506040513d601f19601f820116820180604052508101906107289190611f23565b6001600160a01b03161461077e5760405162461bcd60e51b815260206004820152601b60248201527f42617365546f6b656e2061646472657373206d6973736d61746368000000000060448201526064016103d6565b604051623d104160e31b815230600482015287906001600160a01b038216906301e88208906024016040805180830381865afa1580156107c2573d6000803e3d6000fd5b505050506040513d601f19601f820116820180604052508101906107e69190611f55565b5115156001146108385760405162461bcd60e51b815260206004820152601a60248201527f42617365546f6b656e2061646472657373206d69736d6174636800000000000060448201526064016103d6565b806001600160a01b03166340c10f1930836001600160a01b031663355274ea6040518163ffffffff1660e01b8152600401602060405180830381865afa158015610886573d6000803e3d6000fd5b505050506040513d601f19601f820116820180604052508101906108aa9190611fb0565b6040516001600160e01b031960e085901b1681526001600160a01b0390921660048301526024820152604401600060405180830381600087803b1580156108f057600080fd5b505af1158015610904573d6000803e3d6000fd5b50505050806001600160a01b03166318160ddd6040518163ffffffff1660e01b8152600401602060405180830381865afa158015610946573d6000803e3d6000fd5b505050506040513d601f19601f8201168201806040525081019061096a9190611fb0565b6040516370a0823160e01b81523060048201526001600160a01b038316906370a0823190602401602060405180830381865afa1580156109ae573d6000803e3d6000fd5b505050506040513d601f19601f820116820180604052508101906109d29190611fb0565b14610a0d5760405162461bcd60e51b815260206004820152600b60248201526a135a5b9d0819985a5b195960aa1b60448201526064016103d6565b83600281518110610a2057610a20611fc9565b6020026020010151610a95600a836001600160a01b03166318160ddd6040518163ffffffff1660e01b8152600401602060405180830381865afa158015610a6b573d6000803e3d6000fd5b505050506040513d601f19601f82011682018060405250810190610a8f9190611fb0565b906115c7565b1015610ad55760405162461bcd60e51b815260206004820152600f60248201526e4d61782076657374696e672031302560881b60448201526064016103d6565b604051806101e00160405280600115158152602001886001600160a01b03168152602001876001600160a01b0316815260200160001515815260200185600281518110610b2457610b24611fc9565b6020026020010151836001600160a01b03166318160ddd6040518163ffffffff1660e01b8152600401602060405180830381865afa158015610b6a573d6000803e3d6000fd5b505050506040513d601f19601f82011682018060405250810190610b8e9190611fb0565b610b989190611ff5565b8152602001826001600160a01b031663355274ea6040518163ffffffff1660e01b8152600401602060405180830381865afa158015610bdb573d6000803e3d6000fd5b505050506040513d601f19601f82011682018060405250810190610bff9190611fb0565b815260200185600481518110610c1757610c17611fc9565b602002602001015181526020016000815260200185600081518110610c3e57610c3e611fc9565b60200260200101518152602001866001600160a01b0316815260200143815260200185600381518110610c7357610c73611fc9565b602002602001015143610c86919061200c565b815260200185600281518110610c9e57610c9e611fc9565b60209081029190910181015182524382820152600060409283018190526001600160a01b038c8116825260028084529184902085518154948701516001600160a81b0319958616911515610100600160a81b031916919091176101009184168202178255948601516001808301805460608a0151938616971696909617600160a01b921515929092029190911790945560808601519281019290925560a0850151600383015560c0850151600483015560e085015160058301559284015160068201556101208401516007820180546001600160a01b031916919094161790925561014083015160088301556101608301516009830155610180830151600a8301556101a0830151600b8301556101c090920151600c909101558451610dde918a918791908110610dd157610dd1611fc9565b60200260200101516115d3565b600192505050600160005595945050505050565b6001600160a01b03811660009081526002602052604081205460ff161515600114610e1f57506000919050565b506001600160a01b031660009081526002602052604090206009015490565b60026000541415610e615760405162461bcd60e51b81526004016103d690611eec565b600260008181556001600160a01b0386168152602091909152604090205460ff161515600114610e9057610f1d565b6001600160a01b03848116600090815260026020526040902060010154163314610ecc5760405162461bcd60e51b81526004016103d690611eb5565b6000610ed985858461139f565b9050600181151514610eeb5750610f1d565b6001600160a01b03851660009081526002602081905260408220018054859290610f1690849061200c565b9091555050505b505060016000555050565b6001600160a01b03811660009081526002602052604081205460ff161515600114610f5557506000919050565b6001600160a01b038216600090815260026020819052604090912090810154600390910154610f849190611ff5565b92915050565b60026000541415610fad5760405162461bcd60e51b81526004016103d690611eec565b600260008181556001600160a01b0385168152602091909152604090205460ff161515600114610fdc57611095565b6001600160a01b038381166000908152600260205260409020600101541633146110185760405162461bcd60e51b81526004016103d690611eb5565b6000611025848484610398565b90506001811515146110375750611095565b6001600160a01b0380851660008181526002602052604090206001015486926110629291168561194f565b6001600160a01b0385166000908152600260208190526040822001805485929061108d908490611ff5565b909155505050505b5050600160005550565b6001600160a01b03811660009081526002602052604081205460ff1615156001146110cc57506000919050565b506001600160a01b03166000908152600260205260409020600c015490565b6001600160a01b03811660009081526002602052604081205460ff16151560011461111857506000919050565b506001600160a01b03166000908152600260208190526040909120015490565b6001600160a01b03811660009081526002602052604081205460ff16151560011461116557506000919050565b506001600160a01b031660009081526002602052604090206004015490565b6001600160a01b03811660009081526002602052604090205460ff1615156001146111e95760405162461bcd60e51b815260206004820152601560248201527422a9291d24b73b30b634b2103230ba30ba37b5b2b760591b60448201526064016103d6565b6001600160a01b038116600090815260026020526040812060090154431115611240576001600160a01b0382166000908152600260205260409020600b8101546009909101546112399190611ff5565b9050611269565b6001600160a01b0382166000908152600260205260409020600b01546112669043611ff5565b90505b6001600160a01b038216600090815260026020526040812060088101546009909101546112bb9161129991611ff5565b6001600160a01b0385166000908152600260205260409020600a0154906115c7565b9050806112c757505050565b60006112d38383611a34565b905060008111801561130157506001600160a01b038416600090815260026020819052604090912001548111155b15611399576001600160a01b03808516600081815260026020526040902043600b82015560070154869261133792911684611a40565b6001600160a01b03851660009081526002602081905260408220018054849290611362908490611ff5565b90915550506001600160a01b0385166000908152600260205260408120600c01805484929061139290849061200c565b9091555050505b50505050565b6001600160a01b03831660009081526002602052604081205460ff1615156001146113cc5750600061046d565b6001600160a01b038481166000908152600260205260409020600101541633146114085760405162461bcd60e51b81526004016103d690611eb5565b6001600160a01b0384811660009081526002602052604090205461010090048116908416141561143a5750600061046d565b6040516370a0823160e01b8152306004820152829033906370a0823190602401602060405180830381865afa158015611477573d6000803e3d6000fd5b505050506040513d601f19601f8201168201806040525081019061149b9190611fb0565b106104695750600161046d565b6001600160a01b03811660009081526002602052604081205460ff1615156001146114d557506000919050565b506001600160a01b03166000908152600260205260409020600b015490565b6001600160a01b03811660009081526002602052604081205460ff16151560011461152157506000919050565b61152a8261109f565b6115338361034c565b6001600160a01b0384166000908152600260208190526040909120908101546003909101546115629190611ff5565b61156c9190611ff5565b610f84919061200c565b6001600160a01b03811660009081526002602052604081205460ff1615156001146115a357506000919050565b506001600160a01b0390811660009081526002602052604090205461010090041690565b600061046d8284612024565b6001600160a01b03821660009081526002602052604090205460ff1615156001146115fc575050565b6001600160a01b0382166000908152600260205260409020600190810154600160a01b900460ff1615151415611630575050565b6001600160a01b0382166000908152600260205260408120600101805460ff60a01b1916600160a01b17905561166f670de0b6b3a76400006005612046565b90506000611686670de0b6b3a76400006005612046565b6001600160a01b0385166000908152600260205260408120600401549192506116b0856012611ff5565b6116bb90600a612149565b6001600160a01b038716600090815260026020526040902060060154670de0b6b3a764000090869086906116f0908790612046565b6116fa9190612046565b6117049190612024565b61170e9190612024565b6117189190612046565b6001600160a01b03808816600081815260026020526040902060010154929350889261174592168461194f565b6001600160a01b038088166000908152600260205260409020805460019091015461010090910482169161177c918391168661194f565b6001600160a01b03888116600081815260026020526040908190206001810154905491516309ef3f5b60e01b815260048101939093526024830187905260448301899052610100909104831660648301526084820187905260a482018990529091169081906309ef3f5b9060c401600060405180830381600087803b15801561180457600080fd5b505af1158015611818573d6000803e3d6000fd5b505050506001600160a01b03891660009081526002602052604081206004018054879290611847908490611ff5565b90915550506001600160a01b03891660009081526002602081905260408220018054869290611877908490611ff5565b90915550506001600160a01b038981166000908152600260205260408082206001015490516370a0823160e01b815230600482015292169182906370a0823190602401602060405180830381865afa1580156118d7573d6000803e3d6000fd5b505050506040513d601f19601f820116820180604052508101906118fb9190611fb0565b6001600160a01b03808d1660009081526002602081905260409091206007015492935061194292909116906119319084906115c7565b6001600160a01b0385169190611a40565b5050505050505050505050565b604051636eb1769f60e11b81523060048201526001600160a01b038381166024830152600091839186169063dd62ed3e90604401602060405180830381865afa1580156119a0573d6000803e3d6000fd5b505050506040513d601f19601f820116820180604052508101906119c49190611fb0565b6119ce919061200c565b6040516001600160a01b03851660248201526044810182905290915061139990859063095ea7b360e01b906064015b60408051601f198184030181529190526020810180516001600160e01b03166001600160e01b031990931692909217909152611a75565b600061046d8284612046565b6040516001600160a01b038316602482015260448101829052611a7090849063a9059cbb60e01b906064016119fd565b505050565b6000611aca826040518060400160405280602081526020017f5361666545524332303a206c6f772d6c6576656c2063616c6c206661696c6564815250856001600160a01b0316611b479092919063ffffffff16565b805190915015611a705780806020019051810190611ae89190612155565b611a705760405162461bcd60e51b815260206004820152602a60248201527f5361666545524332303a204552433230206f7065726174696f6e20646964206e6044820152691bdd081cdd58d8d9595960b21b60648201526084016103d6565b6060611b568484600085611b5e565b949350505050565b606082471015611bbf5760405162461bcd60e51b815260206004820152602660248201527f416464726573733a20696e73756666696369656e742062616c616e636520666f6044820152651c8818d85b1b60d21b60648201526084016103d6565b843b611c0d5760405162461bcd60e51b815260206004820152601d60248201527f416464726573733a2063616c6c20746f206e6f6e2d636f6e747261637400000060448201526064016103d6565b600080866001600160a01b03168587604051611c29919061219c565b60006040518083038185875af1925050503d8060008114611c66576040519150601f19603f3d011682016040523d82523d6000602084013e611c6b565b606091505b5091509150611c7b828286611c86565b979650505050505050565b60608315611c9557508161046d565b825115611ca55782518084602001fd5b8160405162461bcd60e51b81526004016103d691906121b8565b6001600160a01b0381168114611cd457600080fd5b50565b600060208284031215611ce957600080fd5b813561046d81611cbf565b600080600060608486031215611d0957600080fd5b8335611d1481611cbf565b92506020840135611d2481611cbf565b929592945050506040919091013590565b634e487b7160e01b600052604160045260246000fd5b604051601f8201601f1916810167ffffffffffffffff81118282101715611d7457611d74611d35565b604052919050565b600080600080600060a08688031215611d9457600080fd5b8535611d9f81611cbf565b9450602086810135611db081611cbf565b94506040870135611dc081611cbf565b93506060870135611dd081611cbf565b9250608087013567ffffffffffffffff80821115611ded57600080fd5b818901915089601f830112611e0157600080fd5b813581811115611e1357611e13611d35565b8060051b9150611e24848301611d4b565b818152918301840191848101908c841115611e3e57600080fd5b938501935b83851015611e5c57843582529385019390850190611e43565b8096505050505050509295509295909350565b60008060008060808587031215611e8557600080fd5b8435611e9081611cbf565b93506020850135611ea081611cbf565b93969395505050506040820135916060013590565b6020808252601c908201527f4552523a204f6e6c7920706f6f6c2063616e2063616c6c207468697300000000604082015260600190565b6020808252601f908201527f5265656e7472616e637947756172643a207265656e7472616e742063616c6c00604082015260600190565b600060208284031215611f3557600080fd5b815161046d81611cbf565b80518015158114611f5057600080fd5b919050565b600060408284031215611f6757600080fd5b6040516040810181811067ffffffffffffffff82111715611f8a57611f8a611d35565b604052611f9683611f40565b8152611fa460208401611f40565b60208201529392505050565b600060208284031215611fc257600080fd5b5051919050565b634e487b7160e01b600052603260045260246000fd5b634e487b7160e01b600052601160045260246000fd5b60008282101561200757612007611fdf565b500390565b6000821982111561201f5761201f611fdf565b500190565b60008261204157634e487b7160e01b600052601260045260246000fd5b500490565b600081600019048311821515161561206057612060611fdf565b500290565b600181815b808511156120a057816000190482111561208657612086611fdf565b8085161561209357918102915b93841c939080029061206a565b509250929050565b6000826120b757506001610f84565b816120c457506000610f84565b81600181146120da57600281146120e457612100565b6001915050610f84565b60ff8411156120f5576120f5611fdf565b50506001821b610f84565b5060208310610133831016604e8410600b8410161715612123575081810a610f84565b61212d8383612065565b806000190482111561214157612141611fdf565b029392505050565b600061046d83836120a8565b60006020828403121561216757600080fd5b61046d82611f40565b60005b8381101561218b578181015183820152602001612173565b838111156113995750506000910152565b600082516121ae818460208701612170565b9190910192915050565b60208152600082518060208401526121d7816040850160208701612170565b601f01601f1916919091016040019291505056fea2646970667358221220fd49734010f3d6557b34a22e507e4df66b09810fdb7270019b9629e1d249ca8764736f6c634300080a0033",
  "linkReferences": {},
  "deployedLinkReferences": {}
}