{
  "_format": "hh-sol-artifact-1",
  "contractName": "SideStaking",
  "sourceName": "contracts/pools/ssContracts/SideStaking.sol",
  "abi": [
    {
      "inputs": [
        {
          "internalType": "address",
          "name": "_router",
          "type": "address"
        }
      ],
      "stateMutability": "nonpayable",
      "type": "constructor"
    },
    {
      "inputs": [
        {
          "internalType": "address",
          "name": "datatokenAddress",
          "type": "address"
        },
        {
          "internalType": "address",
          "name": "stakeToken",
          "type": "address"
        },
        {
          "internalType": "uint256",
          "name": "amount",
          "type": "uint256"
        }
      ],
      "name": "Stake",
      "outputs": [],
      "stateMutability": "nonpayable",
      "type": "function"
    },
    {
      "inputs": [
        {
          "internalType": "address",
          "name": "datatokenAddress",
          "type": "address"
        },
        {
          "internalType": "address",
          "name": "stakeToken",
          "type": "address"
        },
        {
          "internalType": "uint256",
          "name": "amount",
          "type": "uint256"
        }
      ],
      "name": "UnStake",
      "outputs": [],
      "stateMutability": "nonpayable",
      "type": "function"
    },
    {
      "inputs": [
        {
          "internalType": "address",
          "name": "datatokenAddress",
          "type": "address"
        },
        {
          "internalType": "address",
          "name": "stakeToken",
          "type": "address"
        },
        {
          "internalType": "uint256",
          "name": "amount",
          "type": "uint256"
        }
      ],
      "name": "canStake",
      "outputs": [
        {
          "internalType": "bool",
          "name": "",
          "type": "bool"
        }
      ],
      "stateMutability": "view",
      "type": "function"
    },
    {
      "inputs": [
        {
          "internalType": "address",
          "name": "datatokenAddress",
          "type": "address"
        },
        {
          "internalType": "address",
          "name": "stakeToken",
          "type": "address"
        },
        {
          "internalType": "uint256",
          "name": "lptIn",
          "type": "uint256"
        }
      ],
      "name": "canUnStake",
      "outputs": [
        {
          "internalType": "bool",
          "name": "",
          "type": "bool"
        }
      ],
      "stateMutability": "view",
      "type": "function"
    },
    {
      "inputs": [
        {
          "internalType": "address",
          "name": "datatokenAddress",
          "type": "address"
        }
      ],
      "name": "getBaseTokenAddress",
      "outputs": [
        {
          "internalType": "address",
          "name": "",
          "type": "address"
        }
      ],
      "stateMutability": "view",
      "type": "function"
    },
    {
      "inputs": [
        {
          "internalType": "address",
          "name": "datatokenAddress",
          "type": "address"
        }
      ],
      "name": "getBaseTokenBalance",
      "outputs": [
        {
          "internalType": "uint256",
          "name": "",
          "type": "uint256"
        }
      ],
      "stateMutability": "view",
      "type": "function"
    },
    {
      "inputs": [
        {
          "internalType": "address",
          "name": "datatokenAddress",
          "type": "address"
        }
      ],
      "name": "getDataTokenBalance",
      "outputs": [
        {
          "internalType": "uint256",
          "name": "",
          "type": "uint256"
        }
      ],
      "stateMutability": "view",
      "type": "function"
    },
    {
      "inputs": [
        {
          "internalType": "address",
          "name": "datatokenAddress",
          "type": "address"
        }
      ],
      "name": "getDataTokenCirculatingSupply",
      "outputs": [
        {
          "internalType": "uint256",
          "name": "",
          "type": "uint256"
        }
      ],
      "stateMutability": "view",
      "type": "function"
    },
    {
      "inputs": [
        {
          "internalType": "address",
          "name": "datatokenAddress",
          "type": "address"
        }
      ],
      "name": "getDataTokenCurrentCirculatingSupply",
      "outputs": [
        {
          "internalType": "uint256",
          "name": "",
          "type": "uint256"
        }
      ],
      "stateMutability": "view",
      "type": "function"
    },
    {
      "inputs": [
        {
          "internalType": "address",
          "name": "datatokenAddress",
          "type": "address"
        }
      ],
      "name": "getPoolAddress",
      "outputs": [
        {
          "internalType": "address",
          "name": "",
          "type": "address"
        }
      ],
      "stateMutability": "view",
      "type": "function"
    },
    {
      "inputs": [
        {
          "internalType": "address",
          "name": "datatokenAddress",
          "type": "address"
        }
      ],
      "name": "getPublisherAddress",
      "outputs": [
        {
          "internalType": "address",
          "name": "",
          "type": "address"
        }
      ],
      "stateMutability": "view",
      "type": "function"
    },
    {
      "inputs": [
        {
          "internalType": "address",
          "name": "datatokenAddress",
          "type": "address"
        }
      ],
      "name": "getVesting",
      "outputs": [],
      "stateMutability": "nonpayable",
      "type": "function"
    },
    {
      "inputs": [
        {
          "internalType": "address",
          "name": "datatokenAddress",
          "type": "address"
        }
      ],
      "name": "getvestingAmount",
      "outputs": [
        {
          "internalType": "uint256",
          "name": "",
          "type": "uint256"
        }
      ],
      "stateMutability": "view",
      "type": "function"
    },
    {
      "inputs": [
        {
          "internalType": "address",
          "name": "datatokenAddress",
          "type": "address"
        }
      ],
      "name": "getvestingAmountSoFar",
      "outputs": [
        {
          "internalType": "uint256",
          "name": "",
          "type": "uint256"
        }
      ],
      "stateMutability": "view",
      "type": "function"
    },
    {
      "inputs": [
        {
          "internalType": "address",
          "name": "datatokenAddress",
          "type": "address"
        }
      ],
      "name": "getvestingEndBlock",
      "outputs": [
        {
          "internalType": "uint256",
          "name": "",
          "type": "uint256"
        }
      ],
      "stateMutability": "view",
      "type": "function"
    },
    {
      "inputs": [
        {
          "internalType": "address",
          "name": "datatokenAddress",
          "type": "address"
        }
      ],
      "name": "getvestingLastBlock",
      "outputs": [
        {
          "internalType": "uint256",
          "name": "",
          "type": "uint256"
        }
      ],
      "stateMutability": "view",
      "type": "function"
    },
    {
      "inputs": [
        {
          "internalType": "address",
          "name": "datatokenAddress",
          "type": "address"
        },
        {
          "internalType": "address",
          "name": "basetokenAddress",
          "type": "address"
        },
        {
          "internalType": "address",
          "name": "poolAddress",
          "type": "address"
        },
        {
          "internalType": "address",
          "name": "publisherAddress",
          "type": "address"
        },
        {
          "internalType": "uint256[]",
          "name": "ssParams",
          "type": "uint256[]"
        }
      ],
      "name": "newDataTokenCreated",
      "outputs": [
        {
          "internalType": "bool",
          "name": "",
          "type": "bool"
        }
      ],
      "stateMutability": "nonpayable",
      "type": "function"
    },
    {
      "inputs": [],
      "name": "router",
      "outputs": [
        {
          "internalType": "address",
          "name": "",
          "type": "address"
        }
      ],
      "stateMutability": "view",
      "type": "function"
    }
  ],
  "bytecode": "0x608060405234801561001057600080fd5b5060405161209c38038061209c83398101604081905261002f91610054565b600080546001600160a01b0319166001600160a01b0392909216919091179055610084565b60006020828403121561006657600080fd5b81516001600160a01b038116811461007d57600080fd5b9392505050565b612009806100936000396000f3fe608060405234801561001057600080fd5b50600436106101165760003560e01c8063c1b4904d116100a2578063efd4810311610071578063efd481031461024f578063f03cd39614610262578063f887ea4014610275578063f8932d6114610288578063fa93fd6d1461029b57600080fd5b8063c1b4904d14610203578063c4be249014610216578063cc49ede714610229578063cf268dea1461023c57600080fd5b806353f0c3b4116100e957806353f0c3b4146101a2578063799ece85146101b557806388afadce146101c857806399039fcf146101db578063bccf74fe146101f057600080fd5b80631228cbee1461011b5780631f16cde61461014b5780632686375b1461015e57806326b1f01f1461017f575b600080fd5b61012e610129366004611bb2565b6102ae565b6040516001600160a01b0390911681526020015b60405180910390f35b61012e610159366004611bb2565b6102fe565b61017161016c366004611bb2565b61034d565b604051908152602001610142565b61019261018d366004611ce6565b610399565b6040519015158152602001610142565b6101926101b0366004611bec565b610475565b6101716101c3366004611bb2565b610e55565b6101716101d6366004611bb2565b610ea1565b6101ee6101e9366004611ce6565b610f01565b005b6101716101fe366004611bb2565b611056565b610171610211366004611bb2565b6110a2565b610171610224366004611bb2565b6110ee565b6101ee610237366004611bb2565b61113a565b6101ee61024a366004611ce6565b6113ba565b61019261025d366004611ce6565b611477565b610171610270366004611bb2565b611590565b60005461012e906001600160a01b031681565b610171610296366004611bb2565b6115dc565b61012e6102a9366004611bb2565b61165c565b6001600160a01b038116600090815260016020819052604082205460ff161515146102db57506000919050565b506001600160a01b03908116600090815260016020819052604090912001541690565b6001600160a01b038116600090815260016020819052604082205460ff1615151461032b57506000919050565b506001600160a01b039081166000908152600160205260409020600701541690565b6001600160a01b038116600090815260016020819052604082205460ff1615151461037a57506000919050565b506001600160a01b03166000908152600160205260409020600a015490565b6001600160a01b0383811660009081526001602081905260408220015490911633146103e05760405162461bcd60e51b81526004016103d790611db6565b60405180910390fd5b6001600160a01b03841660009081526001602081905260409091205460ff1615151461040e5750600061046e565b6001600160a01b038481166000908152600160205260409020546101009004811690841614156104405750600061046e565b6001600160a01b038416600090815260016020526040902060020154821161046a5750600161046e565b5060005b9392505050565b600080546001600160a01b031633146104be5760405162461bcd60e51b815260206004820152600b60248201526a27a7262c902927aaaa22a960a91b60448201526064016103d7565b6001600160a01b03841661050a5760405162461bcd60e51b8152602060048201526013602482015272496e76616c696420706f6f6c4164647265737360681b60448201526064016103d7565b6000849050306001600160a01b0316816001600160a01b0316633018205f6040518163ffffffff1660e01b815260040160206040518083038186803b15801561055257600080fd5b505afa158015610566573d6000803e3d6000fd5b505050506040513d601f19601f8201168201806040525081019061058a9190611bcf565b6001600160a01b0316146105e05760405162461bcd60e51b815260206004820152601e60248201527f576520617265206e6f742074686520706f6f6c20636f6e74726f6c6c6572000060448201526064016103d7565b866001600160a01b0316816001600160a01b03166304ad79546040518163ffffffff1660e01b815260040160206040518083038186803b15801561062357600080fd5b505afa158015610637573d6000803e3d6000fd5b505050506040513d601f19601f8201168201806040525081019061065b9190611bcf565b6001600160a01b0316146106b15760405162461bcd60e51b815260206004820152601b60248201527f44617461546f6b656e2061646472657373206d6973736d61746368000000000060448201526064016103d7565b856001600160a01b0316816001600160a01b0316634df947d06040518163ffffffff1660e01b815260040160206040518083038186803b1580156106f457600080fd5b505afa158015610708573d6000803e3d6000fd5b505050506040513d601f19601f8201168201806040525081019061072c9190611bcf565b6001600160a01b0316146107825760405162461bcd60e51b815260206004820152601b60248201527f42617365546f6b656e2061646472657373206d6973736d61746368000000000060448201526064016103d7565b604051623d104160e31b815230600482015287906001600160a01b038216906301e8820890602401604080518083038186803b1580156107c157600080fd5b505afa1580156107d5573d6000803e3d6000fd5b505050506040513d601f19601f820116820180604052508101906107f99190611d42565b51151560011461084b5760405162461bcd60e51b815260206004820152601a60248201527f42617365546f6b656e2061646472657373206d69736d6174636800000000000060448201526064016103d7565b806001600160a01b03166340c10f1930836001600160a01b031663355274ea6040518163ffffffff1660e01b815260040160206040518083038186803b15801561089457600080fd5b505afa1580156108a8573d6000803e3d6000fd5b505050506040513d601f19601f820116820180604052508101906108cc9190611d9d565b6040516001600160e01b031960e085901b1681526001600160a01b0390921660048301526024820152604401600060405180830381600087803b15801561091257600080fd5b505af1158015610926573d6000803e3d6000fd5b50505050806001600160a01b03166318160ddd6040518163ffffffff1660e01b815260040160206040518083038186803b15801561096357600080fd5b505afa158015610977573d6000803e3d6000fd5b505050506040513d601f19601f8201168201806040525081019061099b9190611d9d565b6040516370a0823160e01b81523060048201526001600160a01b038316906370a082319060240160206040518083038186803b1580156109da57600080fd5b505afa1580156109ee573d6000803e3d6000fd5b505050506040513d601f19601f82011682018060405250810190610a129190611d9d565b14610a4d5760405162461bcd60e51b815260206004820152600b60248201526a135a5b9d0819985a5b195960aa1b60448201526064016103d7565b83600281518110610a6057610a60611f8f565b6020026020010151610ae4600a836001600160a01b03166318160ddd6040518163ffffffff1660e01b815260040160206040518083038186803b158015610aa657600080fd5b505afa158015610aba573d6000803e3d6000fd5b505050506040513d601f19601f82011682018060405250810190610ade9190611d9d565b906116ad565b1015610b245760405162461bcd60e51b815260206004820152600f60248201526e4d61782076657374696e672031302560881b60448201526064016103d7565b604051806101e00160405280600115158152602001886001600160a01b03168152602001876001600160a01b0316815260200160001515815260200185600281518110610b7357610b73611f8f565b6020026020010151836001600160a01b03166318160ddd6040518163ffffffff1660e01b815260040160206040518083038186803b158015610bb457600080fd5b505afa158015610bc8573d6000803e3d6000fd5b505050506040513d601f19601f82011682018060405250810190610bec9190611d9d565b610bf69190611f62565b8152602001826001600160a01b031663355274ea6040518163ffffffff1660e01b815260040160206040518083038186803b158015610c3457600080fd5b505afa158015610c48573d6000803e3d6000fd5b505050506040513d601f19601f82011682018060405250810190610c6c9190611d9d565b815260200185600481518110610c8457610c84611f8f565b602002602001015181526020016000815260200185600081518110610cab57610cab611f8f565b60200260200101518152602001866001600160a01b0316815260200143815260200185600381518110610ce057610ce0611f8f565b602002602001015143610cf39190611e1e565b815260200185600281518110610d0b57610d0b611f8f565b60209081029190910181015182524382820152600060409283018190526001600160a01b038c8116825260018084529184902085518154948701516001600160a81b0319958616911515610100600160a81b0319169190911761010091841682021782559486015181840180546060890151928516961695909517600160a01b91151591909102179093556080850151600284015560a0850151600384015560c0850151600484015560e085015160058401559284015160068301556101208401516007830180546001600160a01b031916919094161790925561014083015160088201556101608301516009820155610180830151600a8201556101a0830151600b8201556101c090920151600c909201919091558451610e47918a918791908110610e3a57610e3a611f8f565b60200260200101516116b9565b506001979650505050505050565b6001600160a01b038116600090815260016020819052604082205460ff16151514610e8257506000919050565b506001600160a01b031660009081526001602052604090206009015490565b6001600160a01b038116600090815260016020819052604082205460ff16151514610ece57506000919050565b6001600160a01b03821660009081526001602052604090206002810154600390910154610efb9190611f62565b92915050565b6001600160a01b03831660009081526001602081905260409091205460ff16151514610f2c57505050565b6001600160a01b0383811660009081526001602081905260409091200154163314610f695760405162461bcd60e51b81526004016103d790611db6565b6000610f76848484610399565b9050600181151514610f885750505050565b6001600160a01b038481166000818152600160208190526040918290200154905163095ea7b360e01b81529216600483015260248201849052859163095ea7b390604401602060405180830381600087803b158015610fe657600080fd5b505af1158015610ffa573d6000803e3d6000fd5b505050506040513d601f19601f8201168201806040525081019061101e9190611d27565b506001600160a01b0385166000908152600160205260408120600201805485929061104a908490611f62565b90915550505050505050565b6001600160a01b038116600090815260016020819052604082205460ff1615151461108357506000919050565b506001600160a01b03166000908152600160205260409020600c015490565b6001600160a01b038116600090815260016020819052604082205460ff161515146110cf57506000919050565b506001600160a01b031660009081526001602052604090206002015490565b6001600160a01b038116600090815260016020819052604082205460ff1615151461111b57506000919050565b506001600160a01b031660009081526001602052604090206004015490565b6001600160a01b03811660009081526001602081905260409091205460ff161515146111a05760405162461bcd60e51b815260206004820152601560248201527422a9291d24b73b30b634b2103230ba30ba37b5b2b760591b60448201526064016103d7565b6001600160a01b0381166000908152600160205260408120600901544311156111f7576001600160a01b0382166000908152600160205260409020600b8101546009909101546111f09190611f62565b9050611220565b6001600160a01b0382166000908152600160205260409020600b015461121d9043611f62565b90505b6001600160a01b038216600090815260016020526040812060088101546009909101546112729161125091611f62565b6001600160a01b0385166000908152600160205260409020600a0154906116ad565b90508061127e57505050565b600061128a8383611b91565b90506000811180156112b757506001600160a01b0384166000908152600160205260409020600201548111155b156113b4576001600160a01b038481166000818152600160205260409081902043600b82015560070154905163a9059cbb60e01b81529216600483015260248201839052859163a9059cbb90604401602060405180830381600087803b15801561132057600080fd5b505af1158015611334573d6000803e3d6000fd5b505050506040513d601f19601f820116820180604052508101906113589190611d27565b506001600160a01b03851660009081526001602052604081206002018054849290611384908490611f62565b90915550506001600160a01b0385166000908152600160205260408120600c01805484929061104a908490611e1e565b50505050565b6001600160a01b03831660009081526001602081905260409091205460ff161515146113e557505050565b6001600160a01b03838116600090815260016020819052604090912001541633146114225760405162461bcd60e51b81526004016103d790611db6565b600061142f848484611477565b90506001811515146114415750505050565b6001600160a01b0384166000908152600160205260408120600201805484929061146c908490611e1e565b909155505050505050565b6001600160a01b038316600090815260016020819052604082205460ff161515146114a45750600061046e565b6001600160a01b03848116600090815260016020819052604090912001541633146114e15760405162461bcd60e51b81526004016103d790611db6565b6001600160a01b038481166000908152600160205260409020546101009004811690841614156115135750600061046e565b6040516370a0823160e01b8152306004820152829033906370a082319060240160206040518083038186803b15801561154b57600080fd5b505afa15801561155f573d6000803e3d6000fd5b505050506040513d601f19601f820116820180604052508101906115839190611d9d565b1061046a5750600161046e565b6001600160a01b038116600090815260016020819052604082205460ff161515146115bd57506000919050565b506001600160a01b03166000908152600160205260409020600b015490565b6001600160a01b038116600090815260016020819052604082205460ff1615151461160957506000919050565b61161282611056565b61161b8361034d565b6001600160a01b038416600090815260016020526040902060028101546003909101546116489190611f62565b6116529190611f62565b610efb9190611e1e565b6001600160a01b038116600090815260016020819052604082205460ff1615151461168957506000919050565b506001600160a01b0390811660009081526001602052604090205461010090041690565b600061046e8284611e36565b6001600160a01b03821660009081526001602081905260409091205460ff161515146116e3575050565b6001600160a01b0382166000908152600160208190526040909120810154600160a01b900460ff1615151415611717575050565b6001600160a01b0382166000908152600160208190526040822001805460ff60a01b1916600160a01b179055611756670de0b6b3a76400006005611f43565b9050600061176d670de0b6b3a76400006005611f43565b6001600160a01b038516600090815260016020526040812060040154919250611797856012611f62565b6117a290600a611e9b565b6001600160a01b038716600090815260016020526040902060060154670de0b6b3a764000090869086906117d7908790611f43565b6117e19190611f43565b6117eb9190611e36565b6117f59190611e36565b6117ff9190611f43565b6001600160a01b038781166000818152600160208190526040918290200154905163095ea7b360e01b8152921660048301526024820183905291925087919063095ea7b390604401602060405180830381600087803b15801561186157600080fd5b505af1158015611875573d6000803e3d6000fd5b505050506040513d601f19601f820116820180604052508101906118999190611d27565b506001600160a01b038781166000908152600160208190526040918290208054910154915163095ea7b360e01b8152918316600483015260248201869052610100900490911690819063095ea7b390604401602060405180830381600087803b15801561190557600080fd5b505af1158015611919573d6000803e3d6000fd5b505050506040513d601f19601f8201168201806040525081019061193d9190611d27565b506001600160a01b0388811660008181526001602081905260409182902090810154905491516309ef3f5b60e01b815260048101939093526024830187905260448301899052610100909104831660648301526084820187905260a482018990529091169081906309ef3f5b9060c401600060405180830381600087803b1580156119c757600080fd5b505af11580156119db573d6000803e3d6000fd5b505050506001600160a01b03891660009081526001602052604081206004018054879290611a0a908490611f62565b90915550506001600160a01b03891660009081526001602052604081206002018054869290611a3a908490611f62565b90915550506001600160a01b0389811660009081526001602081905260408083209091015490516370a0823160e01b815230600482015292169182906370a082319060240160206040518083038186803b158015611a9757600080fd5b505afa158015611aab573d6000803e3d6000fd5b505050506040513d601f19601f82011682018060405250810190611acf9190611d9d565b6001600160a01b038c81166000908152600160205260409020600701549192508084169163a9059cbb9116611b058460026116ad565b6040516001600160e01b031960e085901b1681526001600160a01b0390921660048301526024820152604401602060405180830381600087803b158015611b4b57600080fd5b505af1158015611b5f573d6000803e3d6000fd5b505050506040513d601f19601f82011682018060405250810190611b839190611d27565b505050505050505050505050565b600061046e8284611f43565b80518015158114611bad57600080fd5b919050565b600060208284031215611bc457600080fd5b813561046e81611fbb565b600060208284031215611be157600080fd5b815161046e81611fbb565b600080600080600060a08688031215611c0457600080fd5b8535611c0f81611fbb565b9450602086810135611c2081611fbb565b94506040870135611c3081611fbb565b93506060870135611c4081611fbb565b9250608087013567ffffffffffffffff80821115611c5d57600080fd5b818901915089601f830112611c7157600080fd5b813581811115611c8357611c83611fa5565b8060051b9150611c94848301611ded565b8181528481019084860184860187018e1015611caf57600080fd5b600095505b83861015611cd2578035835260019590950194918601918601611cb4565b508096505050505050509295509295909350565b600080600060608486031215611cfb57600080fd5b8335611d0681611fbb565b92506020840135611d1681611fbb565b929592945050506040919091013590565b600060208284031215611d3957600080fd5b61046e82611b9d565b600060408284031215611d5457600080fd5b6040516040810181811067ffffffffffffffff82111715611d7757611d77611fa5565b604052611d8383611b9d565b8152611d9160208401611b9d565b60208201529392505050565b600060208284031215611daf57600080fd5b5051919050565b6020808252601c908201527f4552523a204f6e6c7920706f6f6c2063616e2063616c6c207468697300000000604082015260600190565b604051601f8201601f1916810167ffffffffffffffff81118282101715611e1657611e16611fa5565b604052919050565b60008219821115611e3157611e31611f79565b500190565b600082611e5357634e487b7160e01b600052601260045260246000fd5b500490565b600181815b80851115611e93578160001904821115611e7957611e79611f79565b80851615611e8657918102915b93841c9390800290611e5d565b509250929050565b600061046e8383600082611eb157506001610efb565b81611ebe57506000610efb565b8160018114611ed45760028114611ede57611efa565b6001915050610efb565b60ff841115611eef57611eef611f79565b50506001821b610efb565b5060208310610133831016604e8410600b8410161715611f1d575081810a610efb565b611f278383611e58565b8060001904821115611f3b57611f3b611f79565b029392505050565b6000816000190483118215151615611f5d57611f5d611f79565b500290565b600082821015611f7457611f74611f79565b500390565b634e487b7160e01b600052601160045260246000fd5b634e487b7160e01b600052603260045260246000fd5b634e487b7160e01b600052604160045260246000fd5b6001600160a01b0381168114611fd057600080fd5b5056fea2646970667358221220888e1d88e84be5a94279dff5e7aec4da9d2d54eba7b2b29e0346e248d498f7d364736f6c63430008070033",
  "linkReferences": {},
  "deployedLinkReferences": {}
}