{
  "_format": "hh-sol-artifact-1",
  "contractName": "SideStaking",
  "sourceName": "contracts/pools/ssContracts/SideStaking.sol",
  "abi": [
    {
      "inputs": [
        {
          "internalType": "address",
          "name": "_router",
          "type": "address"
        }
      ],
      "stateMutability": "nonpayable",
      "type": "constructor"
    },
    {
      "inputs": [
        {
          "internalType": "address",
          "name": "datatokenAddress",
          "type": "address"
        },
        {
          "internalType": "address",
          "name": "stakeToken",
          "type": "address"
        },
        {
          "internalType": "uint256",
          "name": "amount",
          "type": "uint256"
        }
      ],
      "name": "Stake",
      "outputs": [],
      "stateMutability": "nonpayable",
      "type": "function"
    },
    {
      "inputs": [
        {
          "internalType": "address",
          "name": "datatokenAddress",
          "type": "address"
        },
        {
          "internalType": "address",
          "name": "stakeToken",
          "type": "address"
        },
        {
          "internalType": "uint256",
          "name": "amount",
          "type": "uint256"
        }
      ],
      "name": "UnStake",
      "outputs": [],
      "stateMutability": "nonpayable",
      "type": "function"
    },
    {
      "inputs": [
        {
          "internalType": "address",
          "name": "datatokenAddress",
          "type": "address"
        },
        {
          "internalType": "address",
          "name": "stakeToken",
          "type": "address"
        },
        {
          "internalType": "uint256",
          "name": "amount",
          "type": "uint256"
        }
      ],
      "name": "canStake",
      "outputs": [
        {
          "internalType": "bool",
          "name": "",
          "type": "bool"
        }
      ],
      "stateMutability": "view",
      "type": "function"
    },
    {
      "inputs": [
        {
          "internalType": "address",
          "name": "datatokenAddress",
          "type": "address"
        },
        {
          "internalType": "address",
          "name": "stakeToken",
          "type": "address"
        },
        {
          "internalType": "uint256",
          "name": "lptIn",
          "type": "uint256"
        }
      ],
      "name": "canUnStake",
      "outputs": [
        {
          "internalType": "bool",
          "name": "",
          "type": "bool"
        }
      ],
      "stateMutability": "view",
      "type": "function"
    },
    {
      "inputs": [
        {
          "internalType": "address",
          "name": "datatokenAddress",
          "type": "address"
        }
      ],
      "name": "getBaseTokenAddress",
      "outputs": [
        {
          "internalType": "address",
          "name": "",
          "type": "address"
        }
      ],
      "stateMutability": "view",
      "type": "function"
    },
    {
      "inputs": [
        {
          "internalType": "address",
          "name": "datatokenAddress",
          "type": "address"
        }
      ],
      "name": "getBaseTokenBalance",
      "outputs": [
        {
          "internalType": "uint256",
          "name": "",
          "type": "uint256"
        }
      ],
      "stateMutability": "view",
      "type": "function"
    },
    {
      "inputs": [
        {
          "internalType": "address",
          "name": "datatokenAddress",
          "type": "address"
        }
      ],
      "name": "getDataTokenBalance",
      "outputs": [
        {
          "internalType": "uint256",
          "name": "",
          "type": "uint256"
        }
      ],
      "stateMutability": "view",
      "type": "function"
    },
    {
      "inputs": [
        {
          "internalType": "address",
          "name": "datatokenAddress",
          "type": "address"
        }
      ],
      "name": "getDataTokenCirculatingSupply",
      "outputs": [
        {
          "internalType": "uint256",
          "name": "",
          "type": "uint256"
        }
      ],
      "stateMutability": "view",
      "type": "function"
    },
    {
      "inputs": [
        {
          "internalType": "address",
          "name": "datatokenAddress",
          "type": "address"
        }
      ],
      "name": "getPoolAddress",
      "outputs": [
        {
          "internalType": "address",
          "name": "",
          "type": "address"
        }
      ],
      "stateMutability": "view",
      "type": "function"
    },
    {
      "inputs": [
        {
          "internalType": "address",
          "name": "datatokenAddress",
          "type": "address"
        }
      ],
      "name": "getPublisherAddress",
      "outputs": [
        {
          "internalType": "address",
          "name": "",
          "type": "address"
        }
      ],
      "stateMutability": "view",
      "type": "function"
    },
    {
      "inputs": [
        {
          "internalType": "address",
          "name": "datatokenAddress",
          "type": "address"
        }
      ],
      "name": "getVesting",
      "outputs": [],
      "stateMutability": "nonpayable",
      "type": "function"
    },
    {
      "inputs": [
        {
          "internalType": "address",
          "name": "datatokenAddress",
          "type": "address"
        }
      ],
      "name": "getvestingAmount",
      "outputs": [
        {
          "internalType": "uint256",
          "name": "",
          "type": "uint256"
        }
      ],
      "stateMutability": "view",
      "type": "function"
    },
    {
      "inputs": [
        {
          "internalType": "address",
          "name": "datatokenAddress",
          "type": "address"
        }
      ],
      "name": "getvestingAmountSoFar",
      "outputs": [
        {
          "internalType": "uint256",
          "name": "",
          "type": "uint256"
        }
      ],
      "stateMutability": "view",
      "type": "function"
    },
    {
      "inputs": [
        {
          "internalType": "address",
          "name": "datatokenAddress",
          "type": "address"
        }
      ],
      "name": "getvestingEndBlock",
      "outputs": [
        {
          "internalType": "uint256",
          "name": "",
          "type": "uint256"
        }
      ],
      "stateMutability": "view",
      "type": "function"
    },
    {
      "inputs": [
        {
          "internalType": "address",
          "name": "datatokenAddress",
          "type": "address"
        }
      ],
      "name": "getvestingLastBlock",
      "outputs": [
        {
          "internalType": "uint256",
          "name": "",
          "type": "uint256"
        }
      ],
      "stateMutability": "view",
      "type": "function"
    },
    {
      "inputs": [
        {
          "internalType": "address",
          "name": "datatokenAddress",
          "type": "address"
        },
        {
          "internalType": "address",
          "name": "basetokenAddress",
          "type": "address"
        },
        {
          "internalType": "address",
          "name": "poolAddress",
          "type": "address"
        },
        {
          "internalType": "address",
          "name": "publisherAddress",
          "type": "address"
        },
        {
          "internalType": "uint256[]",
          "name": "ssParams",
          "type": "uint256[]"
        }
      ],
      "name": "newDataTokenCreated",
      "outputs": [
        {
          "internalType": "bool",
          "name": "",
          "type": "bool"
        }
      ],
      "stateMutability": "nonpayable",
      "type": "function"
    },
    {
      "inputs": [],
      "name": "router",
      "outputs": [
        {
          "internalType": "address",
          "name": "",
          "type": "address"
        }
      ],
      "stateMutability": "view",
      "type": "function"
    }
  ],
  "bytecode": "0x608060405234801561001057600080fd5b5060405161200e38038061200e83398101604081905261002f91610054565b600080546001600160a01b0319166001600160a01b0392909216919091179055610084565b60006020828403121561006657600080fd5b81516001600160a01b038116811461007d57600080fd5b9392505050565b611f7b806100936000396000f3fe608060405234801561001057600080fd5b506004361061010b5760003560e01c8063bccf74fe116100a2578063cf268dea11610071578063cf268dea14610231578063efd4810314610244578063f03cd39614610257578063f887ea401461026a578063fa93fd6d1461027d57600080fd5b8063bccf74fe146101e5578063c1b4904d146101f8578063c4be24901461020b578063cc49ede71461021e57600080fd5b806353f0c3b4116100de57806353f0c3b414610197578063799ece85146101aa57806388afadce146101bd57806399039fcf146101d057600080fd5b80631228cbee146101105780631f16cde6146101405780632686375b1461015357806326b1f01f14610174575b600080fd5b61012361011e366004611b24565b610290565b6040516001600160a01b0390911681526020015b60405180910390f35b61012361014e366004611b24565b6102e0565b610166610161366004611b24565b61032f565b604051908152602001610137565b610187610182366004611c58565b61037b565b6040519015158152602001610137565b6101876101a5366004611b5e565b610457565b6101666101b8366004611b24565b610e37565b6101666101cb366004611b24565b610e83565b6101e36101de366004611c58565b610ee3565b005b6101666101f3366004611b24565b611038565b610166610206366004611b24565b611084565b610166610219366004611b24565b6110d0565b6101e361022c366004611b24565b61111c565b6101e361023f366004611c58565b61139c565b610187610252366004611c58565b611459565b610166610265366004611b24565b611572565b600054610123906001600160a01b031681565b61012361028b366004611b24565b6115be565b6001600160a01b038116600090815260016020819052604082205460ff161515146102bd57506000919050565b506001600160a01b03908116600090815260016020819052604090912001541690565b6001600160a01b038116600090815260016020819052604082205460ff1615151461030d57506000919050565b506001600160a01b039081166000908152600160205260409020600701541690565b6001600160a01b038116600090815260016020819052604082205460ff1615151461035c57506000919050565b506001600160a01b03166000908152600160205260409020600a015490565b6001600160a01b0383811660009081526001602081905260408220015490911633146103c25760405162461bcd60e51b81526004016103b990611d28565b60405180910390fd5b6001600160a01b03841660009081526001602081905260409091205460ff161515146103f057506000610450565b6001600160a01b0384811660009081526001602052604090205461010090048116908416141561042257506000610450565b6001600160a01b038416600090815260016020526040902060020154821161044c57506001610450565b5060005b9392505050565b600080546001600160a01b031633146104a05760405162461bcd60e51b815260206004820152600b60248201526a27a7262c902927aaaa22a960a91b60448201526064016103b9565b6001600160a01b0384166104ec5760405162461bcd60e51b8152602060048201526013602482015272496e76616c696420706f6f6c4164647265737360681b60448201526064016103b9565b6000849050306001600160a01b0316816001600160a01b0316633018205f6040518163ffffffff1660e01b815260040160206040518083038186803b15801561053457600080fd5b505afa158015610548573d6000803e3d6000fd5b505050506040513d601f19601f8201168201806040525081019061056c9190611b41565b6001600160a01b0316146105c25760405162461bcd60e51b815260206004820152601e60248201527f576520617265206e6f742074686520706f6f6c20636f6e74726f6c6c6572000060448201526064016103b9565b866001600160a01b0316816001600160a01b03166304ad79546040518163ffffffff1660e01b815260040160206040518083038186803b15801561060557600080fd5b505afa158015610619573d6000803e3d6000fd5b505050506040513d601f19601f8201168201806040525081019061063d9190611b41565b6001600160a01b0316146106935760405162461bcd60e51b815260206004820152601b60248201527f44617461546f6b656e2061646472657373206d6973736d61746368000000000060448201526064016103b9565b856001600160a01b0316816001600160a01b0316634df947d06040518163ffffffff1660e01b815260040160206040518083038186803b1580156106d657600080fd5b505afa1580156106ea573d6000803e3d6000fd5b505050506040513d601f19601f8201168201806040525081019061070e9190611b41565b6001600160a01b0316146107645760405162461bcd60e51b815260206004820152601b60248201527f42617365546f6b656e2061646472657373206d6973736d61746368000000000060448201526064016103b9565b604051623d104160e31b815230600482015287906001600160a01b038216906301e8820890602401604080518083038186803b1580156107a357600080fd5b505afa1580156107b7573d6000803e3d6000fd5b505050506040513d601f19601f820116820180604052508101906107db9190611cb4565b51151560011461082d5760405162461bcd60e51b815260206004820152601a60248201527f42617365546f6b656e2061646472657373206d69736d6174636800000000000060448201526064016103b9565b806001600160a01b03166340c10f1930836001600160a01b031663355274ea6040518163ffffffff1660e01b815260040160206040518083038186803b15801561087657600080fd5b505afa15801561088a573d6000803e3d6000fd5b505050506040513d601f19601f820116820180604052508101906108ae9190611d0f565b6040516001600160e01b031960e085901b1681526001600160a01b0390921660048301526024820152604401600060405180830381600087803b1580156108f457600080fd5b505af1158015610908573d6000803e3d6000fd5b50505050806001600160a01b03166318160ddd6040518163ffffffff1660e01b815260040160206040518083038186803b15801561094557600080fd5b505afa158015610959573d6000803e3d6000fd5b505050506040513d601f19601f8201168201806040525081019061097d9190611d0f565b6040516370a0823160e01b81523060048201526001600160a01b038316906370a082319060240160206040518083038186803b1580156109bc57600080fd5b505afa1580156109d0573d6000803e3d6000fd5b505050506040513d601f19601f820116820180604052508101906109f49190611d0f565b14610a2f5760405162461bcd60e51b815260206004820152600b60248201526a135a5b9d0819985a5b195960aa1b60448201526064016103b9565b83600281518110610a4257610a42611f01565b6020026020010151610ac6600a836001600160a01b03166318160ddd6040518163ffffffff1660e01b815260040160206040518083038186803b158015610a8857600080fd5b505afa158015610a9c573d6000803e3d6000fd5b505050506040513d601f19601f82011682018060405250810190610ac09190611d0f565b9061160f565b1015610b065760405162461bcd60e51b815260206004820152600f60248201526e4d61782076657374696e672031302560881b60448201526064016103b9565b604051806101e00160405280600115158152602001886001600160a01b03168152602001876001600160a01b0316815260200160001515815260200185600281518110610b5557610b55611f01565b6020026020010151836001600160a01b03166318160ddd6040518163ffffffff1660e01b815260040160206040518083038186803b158015610b9657600080fd5b505afa158015610baa573d6000803e3d6000fd5b505050506040513d601f19601f82011682018060405250810190610bce9190611d0f565b610bd89190611ed4565b8152602001826001600160a01b031663355274ea6040518163ffffffff1660e01b815260040160206040518083038186803b158015610c1657600080fd5b505afa158015610c2a573d6000803e3d6000fd5b505050506040513d601f19601f82011682018060405250810190610c4e9190611d0f565b815260200185600481518110610c6657610c66611f01565b602002602001015181526020016000815260200185600081518110610c8d57610c8d611f01565b60200260200101518152602001866001600160a01b0316815260200143815260200185600381518110610cc257610cc2611f01565b602002602001015143610cd59190611d90565b815260200185600281518110610ced57610ced611f01565b60209081029190910181015182524382820152600060409283018190526001600160a01b038c8116825260018084529184902085518154948701516001600160a81b0319958616911515610100600160a81b0319169190911761010091841682021782559486015181840180546060890151928516961695909517600160a01b91151591909102179093556080850151600284015560a0850151600384015560c0850151600484015560e085015160058401559284015160068301556101208401516007830180546001600160a01b031916919094161790925561014083015160088201556101608301516009820155610180830151600a8201556101a0830151600b8201556101c090920151600c909201919091558451610e29918a918791908110610e1c57610e1c611f01565b602002602001015161161b565b506001979650505050505050565b6001600160a01b038116600090815260016020819052604082205460ff16151514610e6457506000919050565b506001600160a01b031660009081526001602052604090206009015490565b6001600160a01b038116600090815260016020819052604082205460ff16151514610eb057506000919050565b6001600160a01b03821660009081526001602052604090206002810154600390910154610edd9190611ed4565b92915050565b6001600160a01b03831660009081526001602081905260409091205460ff16151514610f0e57505050565b6001600160a01b0383811660009081526001602081905260409091200154163314610f4b5760405162461bcd60e51b81526004016103b990611d28565b6000610f5884848461037b565b9050600181151514610f6a5750505050565b6001600160a01b038481166000818152600160208190526040918290200154905163095ea7b360e01b81529216600483015260248201849052859163095ea7b390604401602060405180830381600087803b158015610fc857600080fd5b505af1158015610fdc573d6000803e3d6000fd5b505050506040513d601f19601f820116820180604052508101906110009190611c99565b506001600160a01b0385166000908152600160205260408120600201805485929061102c908490611ed4565b90915550505050505050565b6001600160a01b038116600090815260016020819052604082205460ff1615151461106557506000919050565b506001600160a01b03166000908152600160205260409020600c015490565b6001600160a01b038116600090815260016020819052604082205460ff161515146110b157506000919050565b506001600160a01b031660009081526001602052604090206002015490565b6001600160a01b038116600090815260016020819052604082205460ff161515146110fd57506000919050565b506001600160a01b031660009081526001602052604090206004015490565b6001600160a01b03811660009081526001602081905260409091205460ff161515146111825760405162461bcd60e51b815260206004820152601560248201527422a9291d24b73b30b634b2103230ba30ba37b5b2b760591b60448201526064016103b9565b6001600160a01b0381166000908152600160205260408120600901544311156111d9576001600160a01b0382166000908152600160205260409020600b8101546009909101546111d29190611ed4565b9050611202565b6001600160a01b0382166000908152600160205260409020600b01546111ff9043611ed4565b90505b6001600160a01b038216600090815260016020526040812060088101546009909101546112549161123291611ed4565b6001600160a01b0385166000908152600160205260409020600a01549061160f565b90508061126057505050565b600061126c8383611b03565b905060008111801561129957506001600160a01b0384166000908152600160205260409020600201548111155b15611396576001600160a01b038481166000818152600160205260409081902043600b82015560070154905163a9059cbb60e01b81529216600483015260248201839052859163a9059cbb90604401602060405180830381600087803b15801561130257600080fd5b505af1158015611316573d6000803e3d6000fd5b505050506040513d601f19601f8201168201806040525081019061133a9190611c99565b506001600160a01b03851660009081526001602052604081206002018054849290611366908490611ed4565b90915550506001600160a01b0385166000908152600160205260408120600c01805484929061102c908490611d90565b50505050565b6001600160a01b03831660009081526001602081905260409091205460ff161515146113c757505050565b6001600160a01b03838116600090815260016020819052604090912001541633146114045760405162461bcd60e51b81526004016103b990611d28565b6000611411848484611459565b90506001811515146114235750505050565b6001600160a01b0384166000908152600160205260408120600201805484929061144e908490611d90565b909155505050505050565b6001600160a01b038316600090815260016020819052604082205460ff1615151461148657506000610450565b6001600160a01b03848116600090815260016020819052604090912001541633146114c35760405162461bcd60e51b81526004016103b990611d28565b6001600160a01b038481166000908152600160205260409020546101009004811690841614156114f557506000610450565b6040516370a0823160e01b8152306004820152829033906370a082319060240160206040518083038186803b15801561152d57600080fd5b505afa158015611541573d6000803e3d6000fd5b505050506040513d601f19601f820116820180604052508101906115659190611d0f565b1061044c57506001610450565b6001600160a01b038116600090815260016020819052604082205460ff1615151461159f57506000919050565b506001600160a01b03166000908152600160205260409020600b015490565b6001600160a01b038116600090815260016020819052604082205460ff161515146115eb57506000919050565b506001600160a01b0390811660009081526001602052604090205461010090041690565b60006104508284611da8565b6001600160a01b03821660009081526001602081905260409091205460ff16151514611645575050565b6001600160a01b0382166000908152600160208190526040909120810154600160a01b900460ff1615151415611679575050565b6001600160a01b0382166000908152600160208190526040822001805460ff60a01b1916600160a01b1790556116b8670de0b6b3a76400006005611eb5565b905060006116cf670de0b6b3a76400006005611eb5565b6001600160a01b0385166000908152600160205260408120600401549192506116f9856012611ed4565b61170490600a611e0d565b6001600160a01b038716600090815260016020526040902060060154670de0b6b3a76400009086908690611739908790611eb5565b6117439190611eb5565b61174d9190611da8565b6117579190611da8565b6117619190611eb5565b6001600160a01b038781166000818152600160208190526040918290200154905163095ea7b360e01b8152921660048301526024820183905291925087919063095ea7b390604401602060405180830381600087803b1580156117c357600080fd5b505af11580156117d7573d6000803e3d6000fd5b505050506040513d601f19601f820116820180604052508101906117fb9190611c99565b506001600160a01b038781166000908152600160208190526040918290208054910154915163095ea7b360e01b8152918316600483015260248201869052610100900490911690819063095ea7b390604401602060405180830381600087803b15801561186757600080fd5b505af115801561187b573d6000803e3d6000fd5b505050506040513d601f19601f8201168201806040525081019061189f9190611c99565b506001600160a01b0388811660008181526001602081905260409182902090810154905491516309ef3f5b60e01b815260048101939093526024830187905260448301899052610100909104831660648301526084820187905260a482018990529091169081906309ef3f5b9060c401600060405180830381600087803b15801561192957600080fd5b505af115801561193d573d6000803e3d6000fd5b505050506001600160a01b0389166000908152600160205260408120600401805487929061196c908490611ed4565b90915550506001600160a01b0389166000908152600160205260408120600201805486929061199c908490611ed4565b90915550506001600160a01b0389811660009081526001602081905260408083209091015490516370a0823160e01b815230600482015292169182906370a082319060240160206040518083038186803b1580156119f957600080fd5b505afa158015611a0d573d6000803e3d6000fd5b505050506040513d601f19601f82011682018060405250810190611a319190611d0f565b90506000611a4082600261160f565b6001600160a01b038d81166000908152600160205260409020600701549192508085169163a9059cbb9116611a7685600261160f565b6040516001600160e01b031960e085901b1681526001600160a01b0390921660048301526024820152604401602060405180830381600087803b158015611abc57600080fd5b505af1158015611ad0573d6000803e3d6000fd5b505050506040513d601f19601f82011682018060405250810190611af49190611c99565b50505050505050505050505050565b60006104508284611eb5565b80518015158114611b1f57600080fd5b919050565b600060208284031215611b3657600080fd5b813561045081611f2d565b600060208284031215611b5357600080fd5b815161045081611f2d565b600080600080600060a08688031215611b7657600080fd5b8535611b8181611f2d565b9450602086810135611b9281611f2d565b94506040870135611ba281611f2d565b93506060870135611bb281611f2d565b9250608087013567ffffffffffffffff80821115611bcf57600080fd5b818901915089601f830112611be357600080fd5b813581811115611bf557611bf5611f17565b8060051b9150611c06848301611d5f565b8181528481019084860184860187018e1015611c2157600080fd5b600095505b83861015611c44578035835260019590950194918601918601611c26565b508096505050505050509295509295909350565b600080600060608486031215611c6d57600080fd5b8335611c7881611f2d565b92506020840135611c8881611f2d565b929592945050506040919091013590565b600060208284031215611cab57600080fd5b61045082611b0f565b600060408284031215611cc657600080fd5b6040516040810181811067ffffffffffffffff82111715611ce957611ce9611f17565b604052611cf583611b0f565b8152611d0360208401611b0f565b60208201529392505050565b600060208284031215611d2157600080fd5b5051919050565b6020808252601c908201527f4552523a204f6e6c7920706f6f6c2063616e2063616c6c207468697300000000604082015260600190565b604051601f8201601f1916810167ffffffffffffffff81118282101715611d8857611d88611f17565b604052919050565b60008219821115611da357611da3611eeb565b500190565b600082611dc557634e487b7160e01b600052601260045260246000fd5b500490565b600181815b80851115611e05578160001904821115611deb57611deb611eeb565b80851615611df857918102915b93841c9390800290611dcf565b509250929050565b60006104508383600082611e2357506001610edd565b81611e3057506000610edd565b8160018114611e465760028114611e5057611e6c565b6001915050610edd565b60ff841115611e6157611e61611eeb565b50506001821b610edd565b5060208310610133831016604e8410600b8410161715611e8f575081810a610edd565b611e998383611dca565b8060001904821115611ead57611ead611eeb565b029392505050565b6000816000190483118215151615611ecf57611ecf611eeb565b500290565b600082821015611ee657611ee6611eeb565b500390565b634e487b7160e01b600052601160045260246000fd5b634e487b7160e01b600052603260045260246000fd5b634e487b7160e01b600052604160045260246000fd5b6001600160a01b0381168114611f4257600080fd5b5056fea264697066735822122038ddfdd0f1707d8f70ec2b20a3516fbb84740a9d96c10987dc131ceaf24444a464736f6c63430008070033",
  "linkReferences": {},
  "deployedLinkReferences": {}
}