{
  "_format": "hh-sol-artifact-1",
  "contractName": "SideStaking",
  "sourceName": "contracts/pools/ssContracts/SideStaking.sol",
  "abi": [
    {
      "inputs": [
        {
          "internalType": "address",
          "name": "_router",
          "type": "address"
        }
      ],
      "stateMutability": "nonpayable",
      "type": "constructor"
    },
    {
      "inputs": [
        {
          "internalType": "address",
          "name": "datatokenAddress",
          "type": "address"
        },
        {
          "internalType": "address",
          "name": "stakeToken",
          "type": "address"
        },
        {
          "internalType": "uint256",
          "name": "amount",
          "type": "uint256"
        }
      ],
      "name": "Stake",
      "outputs": [],
      "stateMutability": "nonpayable",
      "type": "function"
    },
    {
      "inputs": [
        {
          "internalType": "address",
          "name": "datatokenAddress",
          "type": "address"
        },
        {
          "internalType": "address",
          "name": "stakeToken",
          "type": "address"
        },
        {
          "internalType": "uint256",
          "name": "dtAmountIn",
          "type": "uint256"
        },
        {
          "internalType": "uint256",
          "name": "poolAmountOut",
          "type": "uint256"
        }
      ],
      "name": "UnStake",
      "outputs": [],
      "stateMutability": "nonpayable",
      "type": "function"
    },
    {
      "inputs": [
        {
          "internalType": "address",
          "name": "datatokenAddress",
          "type": "address"
        },
        {
          "internalType": "address",
          "name": "stakeToken",
          "type": "address"
        },
        {
          "internalType": "uint256",
          "name": "amount",
          "type": "uint256"
        }
      ],
      "name": "canStake",
      "outputs": [
        {
          "internalType": "bool",
          "name": "",
          "type": "bool"
        }
      ],
      "stateMutability": "view",
      "type": "function"
    },
    {
      "inputs": [
        {
          "internalType": "address",
          "name": "datatokenAddress",
          "type": "address"
        },
        {
          "internalType": "address",
          "name": "stakeToken",
          "type": "address"
        },
        {
          "internalType": "uint256",
          "name": "lptIn",
          "type": "uint256"
        }
      ],
      "name": "canUnStake",
      "outputs": [
        {
          "internalType": "bool",
          "name": "",
          "type": "bool"
        }
      ],
      "stateMutability": "view",
      "type": "function"
    },
    {
      "inputs": [
        {
          "internalType": "address",
          "name": "datatokenAddress",
          "type": "address"
        }
      ],
      "name": "getAvailableVesting",
      "outputs": [
        {
          "internalType": "uint256",
          "name": "",
          "type": "uint256"
        }
      ],
      "stateMutability": "view",
      "type": "function"
    },
    {
      "inputs": [
        {
          "internalType": "address",
          "name": "datatokenAddress",
          "type": "address"
        }
      ],
      "name": "getBasetokenAddress",
      "outputs": [
        {
          "internalType": "address",
          "name": "",
          "type": "address"
        }
      ],
      "stateMutability": "view",
      "type": "function"
    },
    {
      "inputs": [
        {
          "internalType": "address",
          "name": "datatokenAddress",
          "type": "address"
        }
      ],
      "name": "getBasetokenBalance",
      "outputs": [
        {
          "internalType": "uint256",
          "name": "",
          "type": "uint256"
        }
      ],
      "stateMutability": "view",
      "type": "function"
    },
    {
      "inputs": [
        {
          "internalType": "address",
          "name": "datatokenAddress",
          "type": "address"
        }
      ],
      "name": "getDatatokenBalance",
      "outputs": [
        {
          "internalType": "uint256",
          "name": "",
          "type": "uint256"
        }
      ],
      "stateMutability": "view",
      "type": "function"
    },
    {
      "inputs": [
        {
          "internalType": "address",
          "name": "datatokenAddress",
          "type": "address"
        }
      ],
      "name": "getDatatokenCirculatingSupply",
      "outputs": [
        {
          "internalType": "uint256",
          "name": "",
          "type": "uint256"
        }
      ],
      "stateMutability": "view",
      "type": "function"
    },
    {
      "inputs": [
        {
          "internalType": "address",
          "name": "datatokenAddress",
          "type": "address"
        }
      ],
      "name": "getDatatokenCurrentCirculatingSupply",
      "outputs": [
        {
          "internalType": "uint256",
          "name": "",
          "type": "uint256"
        }
      ],
      "stateMutability": "view",
      "type": "function"
    },
    {
      "inputs": [
        {
          "internalType": "address",
          "name": "datatokenAddress",
          "type": "address"
        }
      ],
      "name": "getPoolAddress",
      "outputs": [
        {
          "internalType": "address",
          "name": "",
          "type": "address"
        }
      ],
      "stateMutability": "view",
      "type": "function"
    },
    {
      "inputs": [
        {
          "internalType": "address",
          "name": "datatokenAddress",
          "type": "address"
        }
      ],
      "name": "getPublisherAddress",
      "outputs": [
        {
          "internalType": "address",
          "name": "",
          "type": "address"
        }
      ],
      "stateMutability": "view",
      "type": "function"
    },
    {
      "inputs": [
        {
          "internalType": "address",
          "name": "datatokenAddress",
          "type": "address"
        }
      ],
      "name": "getVesting",
      "outputs": [],
      "stateMutability": "nonpayable",
      "type": "function"
    },
    {
      "inputs": [
        {
          "internalType": "address",
          "name": "datatokenAddress",
          "type": "address"
        }
      ],
      "name": "getvestingAmount",
      "outputs": [
        {
          "internalType": "uint256",
          "name": "",
          "type": "uint256"
        }
      ],
      "stateMutability": "view",
      "type": "function"
    },
    {
      "inputs": [
        {
          "internalType": "address",
          "name": "datatokenAddress",
          "type": "address"
        }
      ],
      "name": "getvestingAmountSoFar",
      "outputs": [
        {
          "internalType": "uint256",
          "name": "",
          "type": "uint256"
        }
      ],
      "stateMutability": "view",
      "type": "function"
    },
    {
      "inputs": [
        {
          "internalType": "address",
          "name": "datatokenAddress",
          "type": "address"
        }
      ],
      "name": "getvestingEndBlock",
      "outputs": [
        {
          "internalType": "uint256",
          "name": "",
          "type": "uint256"
        }
      ],
      "stateMutability": "view",
      "type": "function"
    },
    {
      "inputs": [
        {
          "internalType": "address",
          "name": "datatokenAddress",
          "type": "address"
        }
      ],
      "name": "getvestingLastBlock",
      "outputs": [
        {
          "internalType": "uint256",
          "name": "",
          "type": "uint256"
        }
      ],
      "stateMutability": "view",
      "type": "function"
    },
    {
      "inputs": [
        {
          "internalType": "address",
          "name": "datatokenAddress",
          "type": "address"
        },
        {
          "internalType": "address",
          "name": "basetokenAddress",
          "type": "address"
        },
        {
          "internalType": "address",
          "name": "poolAddress",
          "type": "address"
        },
        {
          "internalType": "address",
          "name": "publisherAddress",
          "type": "address"
        },
        {
          "internalType": "uint256[]",
          "name": "ssParams",
          "type": "uint256[]"
        }
      ],
      "name": "newDatatokenCreated",
      "outputs": [
        {
          "internalType": "bool",
          "name": "",
          "type": "bool"
        }
      ],
      "stateMutability": "nonpayable",
      "type": "function"
    },
    {
      "inputs": [],
      "name": "router",
      "outputs": [
        {
          "internalType": "address",
          "name": "",
          "type": "address"
        }
      ],
      "stateMutability": "view",
      "type": "function"
    },
    {
      "inputs": [
        {
          "internalType": "address",
          "name": "datatokenAddress",
          "type": "address"
        },
        {
          "internalType": "address",
          "name": "poolAddress",
          "type": "address"
        },
        {
          "internalType": "uint256",
          "name": "swapFee",
          "type": "uint256"
        }
      ],
      "name": "setPoolSwapFee",
      "outputs": [],
      "stateMutability": "nonpayable",
      "type": "function"
    }
  ],
  "bytecode": "0x60806040523480156200001157600080fd5b5060405162002647380380620026478339810160408190526200003491620000ba565b60016000556001600160a01b038116620000945760405162461bcd60e51b815260206004820152601760248201527f496e76616c6964205f726f757465722061646472657373000000000000000000604482015260640160405180910390fd5b600180546001600160a01b0319166001600160a01b0392909216919091179055620000ec565b600060208284031215620000cd57600080fd5b81516001600160a01b0381168114620000e557600080fd5b9392505050565b61254b80620000fc6000396000f3fe608060405234801561001057600080fd5b506004361061012c5760003560e01c806383b87e5a116100ad578063efd4810311610071578063efd481031461028b578063f03cd3961461029e578063f6da805f146102b1578063f887ea40146102c4578063ff299f33146102d757600080fd5b806383b87e5a1461022c57806399039fcf1461023f578063bccf74fe14610252578063bcf7135e14610265578063cc49ede71461027857600080fd5b806367f5494d116100f457806367f5494d146101cb5780636aca230c146101de578063799ece85146101f15780637b01ab3014610204578063803a7bd51461021957600080fd5b80631228cbee146101315780631f16cde6146101615780632686375b1461017457806326b1f01f14610195578063382891dc146101b8575b600080fd5b61014461013f366004612001565b6102ea565b6040516001600160a01b0390911681526020015b60405180910390f35b61014461016f366004612001565b610334565b610187610182366004612001565b61037e565b604051908152602001610158565b6101a86101a336600461201e565b6103c5565b6040519015158152602001610158565b6101446101c6366004612001565b6104d2565b6101876101d9366004612001565b61051e565b6101876101ec366004612001565b61057b565b6101876101ff366004612001565b610676565b61021761021236600461205f565b6106bd565b005b610187610227366004612001565b61079d565b6101a861023a3660046120ec565b6107e4565b61021761024d36600461201e565b611138565b610187610260366004612001565b611243565b610187610273366004612001565b61128a565b610217610286366004612001565b6112d2565b6101a861029936600461201e565b611434565b6101876102ac366004612001565b611538565b6101876102bf366004612001565b61157f565b600154610144906001600160a01b031681565b6102176102e536600461201e565b6115e5565b6001600160a01b03811660009081526002602052604081205460ff1661031257506000919050565b506001600160a01b039081166000908152600260205260409020600101541690565b6001600160a01b03811660009081526002602052604081205460ff1661035c57506000919050565b506001600160a01b039081166000908152600260205260409020600701541690565b6001600160a01b03811660009081526002602052604081205460ff166103a657506000919050565b506001600160a01b03166000908152600260205260409020600a015490565b6001600160a01b03838116600090815260026020526040812060010154909116331461040c5760405162461bcd60e51b8152600401610403906121df565b60405180910390fd5b6001600160a01b03841660009081526002602052604090205460ff16610434575060006104cb565b6001600160a01b03848116600090815260026020526040902054610100900481169084161415610466575060006104cb565b6001600160a01b0384166000908152600260205260409020600c810154600a90910154610493919061222c565b61049d9083612243565b6001600160a01b03851660009081526002602081905260409091200154106104c7575060016104cb565b5060005b9392505050565b6001600160a01b03811660009081526002602052604081205460ff166104fa57506000919050565b506001600160a01b0390811660009081526002602052604090205461010090041690565b6001600160a01b03811660009081526002602052604081205460ff1661054657506000919050565b6001600160a01b038216600090815260026020819052604090912090810154600390910154610575919061222c565b92915050565b6001600160a01b038116600090815260026020526040812060090154819081904311156105d6576001600160a01b0384166000908152600260205260409020600b8101546009909101546105cf919061222c565b90506105ff565b6001600160a01b0384166000908152600260205260409020600b01546105fc904361222c565b90505b6001600160a01b038416600090815260026020526040812060088101546009909101546106519161062f9161222c565b6001600160a01b0387166000908152600260205260409020600a0154906118f5565b90508061066357506000949350505050565b61066d8282611901565b95945050505050565b6001600160a01b03811660009081526002602052604081205460ff1661069e57506000919050565b506001600160a01b031660009081526002602052604090206009015490565b600260005414156106e05760405162461bcd60e51b81526004016104039061225b565b600260008181556001600160a01b0386168152602091909152604090205460ff1661070a57610792565b6001600160a01b038481166000908152600260205260409020600101541633146107465760405162461bcd60e51b8152600401610403906121df565b6000610753858584611434565b9050806107605750610792565b6001600160a01b0385166000908152600260208190526040822001805485929061078b908490612243565b9091555050505b505060016000555050565b6001600160a01b03811660009081526002602052604081205460ff166107c557506000919050565b506001600160a01b031660009081526002602052604090206004015490565b6001546000906001600160a01b0316331461082f5760405162461bcd60e51b815260206004820152600b60248201526a27a7262c902927aaaa22a960a91b6044820152606401610403565b600260005414156108525760405162461bcd60e51b81526004016104039061225b565b60026000556001600160a01b0384166108a35760405162461bcd60e51b8152602060048201526013602482015272496e76616c696420706f6f6c4164647265737360681b6044820152606401610403565b6000849050306001600160a01b0316816001600160a01b0316633018205f6040518163ffffffff1660e01b8152600401602060405180830381865afa1580156108f0573d6000803e3d6000fd5b505050506040513d601f19601f820116820180604052508101906109149190612292565b6001600160a01b03161461096a5760405162461bcd60e51b815260206004820152601e60248201527f576520617265206e6f742074686520706f6f6c20636f6e74726f6c6c657200006044820152606401610403565b866001600160a01b0316816001600160a01b031663458c3fb56040518163ffffffff1660e01b8152600401602060405180830381865afa1580156109b2573d6000803e3d6000fd5b505050506040513d601f19601f820116820180604052508101906109d69190612292565b6001600160a01b031614610a2c5760405162461bcd60e51b815260206004820152601b60248201527f44617461746f6b656e2061646472657373206d6973736d6174636800000000006044820152606401610403565b856001600160a01b0316816001600160a01b03166370cea6606040518163ffffffff1660e01b8152600401602060405180830381865afa158015610a74573d6000803e3d6000fd5b505050506040513d601f19601f82011682018060405250810190610a989190612292565b6001600160a01b031614610aee5760405162461bcd60e51b815260206004820152601b60248201527f42617365746f6b656e2061646472657373206d6973736d6174636800000000006044820152606401610403565b604051623d104160e31b815230600482015287906001600160a01b038216906301e88208906024016040805180830381865afa158015610b32573d6000803e3d6000fd5b505050506040513d601f19601f82011682018060405250810190610b5691906122c4565b51610ba35760405162461bcd60e51b815260206004820152601a60248201527f42617365746f6b656e2061646472657373206d69736d617463680000000000006044820152606401610403565b806001600160a01b03166340c10f1930836001600160a01b031663355274ea6040518163ffffffff1660e01b8152600401602060405180830381865afa158015610bf1573d6000803e3d6000fd5b505050506040513d601f19601f82011682018060405250810190610c15919061231f565b6040516001600160e01b031960e085901b1681526001600160a01b0390921660048301526024820152604401600060405180830381600087803b158015610c5b57600080fd5b505af1158015610c6f573d6000803e3d6000fd5b50505050806001600160a01b03166318160ddd6040518163ffffffff1660e01b8152600401602060405180830381865afa158015610cb1573d6000803e3d6000fd5b505050506040513d601f19601f82011682018060405250810190610cd5919061231f565b6040516370a0823160e01b81523060048201526001600160a01b038316906370a0823190602401602060405180830381865afa158015610d19573d6000803e3d6000fd5b505050506040513d601f19601f82011682018060405250810190610d3d919061231f565b14610d785760405162461bcd60e51b815260206004820152600b60248201526a135a5b9d0819985a5b195960aa1b6044820152606401610403565b83600281518110610d8b57610d8b612338565b6020026020010151610e00600a836001600160a01b03166318160ddd6040518163ffffffff1660e01b8152600401602060405180830381865afa158015610dd6573d6000803e3d6000fd5b505050506040513d601f19601f82011682018060405250810190610dfa919061231f565b906118f5565b1015610e405760405162461bcd60e51b815260206004820152600f60248201526e4d61782076657374696e672031302560881b6044820152606401610403565b604051806101e00160405280600115158152602001886001600160a01b03168152602001876001600160a01b03168152602001600015158152602001826001600160a01b03166318160ddd6040518163ffffffff1660e01b8152600401602060405180830381865afa158015610eba573d6000803e3d6000fd5b505050506040513d601f19601f82011682018060405250810190610ede919061231f565b8152602001826001600160a01b031663355274ea6040518163ffffffff1660e01b8152600401602060405180830381865afa158015610f21573d6000803e3d6000fd5b505050506040513d601f19601f82011682018060405250810190610f45919061231f565b815260200185600481518110610f5d57610f5d612338565b602002602001015181526020016000815260200185600081518110610f8457610f84612338565b60200260200101518152602001866001600160a01b0316815260200143815260200185600381518110610fb957610fb9612338565b602002602001015143610fcc9190612243565b815260200185600281518110610fe457610fe4612338565b60209081029190910181015182524382820152600060409283018190526001600160a01b038c8116825260028084529184902085518154948701516001600160a81b0319958616911515610100600160a81b031916919091176101009184168202178255948601516001808301805460608a0151938616971696909617600160a01b921515929092029190911790945560808601519281019290925560a0850151600383015560c0850151600483015560e085015160058301559284015160068201556101208401516007820180546001600160a01b031916919094161790925561014083015160088301556101608301516009830155610180830151600a8301556101a0830151600b8301556101c090920151600c909101558451611124918a91879190811061111757611117612338565b602002602001015161190d565b600192505050600160005595945050505050565b6002600054141561115b5760405162461bcd60e51b81526004016104039061225b565b600260008181556001600160a01b0385168152602091909152604090205460ff1661118557611239565b6001600160a01b038381166000908152600260205260409020600101541633146111c15760405162461bcd60e51b8152600401610403906121df565b60006111ce8484846103c5565b9050806111db5750611239565b6001600160a01b03808516600081815260026020526040902060010154869261120692911685611c7f565b6001600160a01b0385166000908152600260208190526040822001805485929061123190849061222c565b909155505050505b5050600160005550565b6001600160a01b03811660009081526002602052604081205460ff1661126b57506000919050565b506001600160a01b03166000908152600260205260409020600c015490565b6001600160a01b03811660009081526002602052604081205460ff166112b257506000919050565b506001600160a01b03166000908152600260208190526040909120015490565b600260005414156112f55760405162461bcd60e51b81526004016104039061225b565b600260008181556001600160a01b0383168152602091909152604090205460ff1661135a5760405162461bcd60e51b815260206004820152601560248201527422a9291d24b73b30b634b2103230ba30ba37b5b2b760591b6044820152606401610403565b60006113658261057b565b905060008111801561139357506001600160a01b038216600090815260026020819052604090912001548111155b1561142b576001600160a01b03808316600081815260026020526040902043600b8201556007015484926113c992911684611d6a565b6001600160a01b038316600090815260026020819052604082200180548492906113f490849061222c565b90915550506001600160a01b0383166000908152600260205260408120600c018054849290611424908490612243565b9091555050505b50506001600055565b6001600160a01b03831660009081526002602052604081205460ff1661145c575060006104cb565b6001600160a01b038481166000908152600260205260409020600101541633146114985760405162461bcd60e51b8152600401610403906121df565b6001600160a01b038481166000908152600260205260409020546101009004811690841614156114ca575060006104cb565b6040516370a0823160e01b8152306004820152829033906370a0823190602401602060405180830381865afa158015611507573d6000803e3d6000fd5b505050506040513d601f19601f8201168201806040525081019061152b919061231f565b106104c7575060016104cb565b6001600160a01b03811660009081526002602052604081205460ff1661156057506000919050565b506001600160a01b03166000908152600260205260409020600b015490565b6001600160a01b03811660009081526002602052604081205460ff166115a757506000919050565b6001600160a01b0382166000908152600260208190526040909120600c810154918101546003909101546115db919061222c565b610575919061222c565b600260005414156116085760405162461bcd60e51b81526004016104039061225b565b60026000556001600160a01b0382166116595760405162461bcd60e51b8152602060048201526013602482015272496e76616c696420706f6f6c4164647265737360681b6044820152606401610403565b6000829050306001600160a01b0316816001600160a01b0316633018205f6040518163ffffffff1660e01b8152600401602060405180830381865afa1580156116a6573d6000803e3d6000fd5b505050506040513d601f19601f820116820180604052508101906116ca9190612292565b6001600160a01b0316146117205760405162461bcd60e51b815260206004820152601e60248201527f576520617265206e6f742074686520706f6f6c20636f6e74726f6c6c657200006044820152606401610403565b836001600160a01b0316816001600160a01b031663458c3fb56040518163ffffffff1660e01b8152600401602060405180830381865afa158015611768573d6000803e3d6000fd5b505050506040513d601f19601f8201168201806040525081019061178c9190612292565b6001600160a01b0316146117e25760405162461bcd60e51b815260206004820152601b60248201527f44617461746f6b656e2061646472657373206d6973736d6174636800000000006044820152606401610403565b6040516396fb3eaf60e01b815233600482015284906001600160a01b038216906396fb3eaf906024016020604051808303816000875af115801561182a573d6000803e3d6000fd5b505050506040513d601f19601f8201168201806040525081019061184e919061234e565b61188f5760405162461bcd60e51b81526020600482015260126024820152712737ba1022a9219918102232b83637bcb2b960711b6044820152606401610403565b6040516334e1990760e01b8152600481018490526001600160a01b038316906334e1990790602401600060405180830381600087803b1580156118d157600080fd5b505af11580156118e5573d6000803e3d6000fd5b5050600160005550505050505050565b60006104cb8284612369565b60006104cb828461238b565b6001600160a01b03821660009081526002602052604090205460ff16611931575050565b6001600160a01b038216600090815260026020526040902060010154600160a01b900460ff1615611960575050565b6001600160a01b0382166000908152600260205260408120600101805460ff60a01b1916600160a01b17905561199f670de0b6b3a7640000600561238b565b905060006119b6670de0b6b3a7640000600561238b565b6001600160a01b0385166000908152600260205260408120600401549192506119e085601261222c565b6119eb90600a61248e565b6001600160a01b038716600090815260026020526040902060060154670de0b6b3a76400009086908690611a2090879061238b565b611a2a919061238b565b611a349190612369565b611a3e9190612369565b611a48919061238b565b6001600160a01b038088166000818152600260205260409020600101549293508892611a75921684611c7f565b6001600160a01b0380881660009081526002602052604090208054600190910154610100909104821691611aac9183911686611c7f565b6001600160a01b03888116600081815260026020526040908190206001810154905491516309ef3f5b60e01b815260048101939093526024830187905260448301899052610100909104831660648301526084820187905260a482018990529091169081906309ef3f5b9060c401600060405180830381600087803b158015611b3457600080fd5b505af1158015611b48573d6000803e3d6000fd5b505050506001600160a01b03891660009081526002602052604081206004018054879290611b7790849061222c565b90915550506001600160a01b03891660009081526002602081905260408220018054869290611ba790849061222c565b90915550506001600160a01b038981166000908152600260205260408082206001015490516370a0823160e01b815230600482015292169182906370a0823190602401602060405180830381865afa158015611c07573d6000803e3d6000fd5b505050506040513d601f19601f82011682018060405250810190611c2b919061231f565b6001600160a01b03808d16600090815260026020819052604090912060070154929350611c729290911690611c619084906118f5565b6001600160a01b0385169190611d6a565b5050505050505050505050565b604051636eb1769f60e11b81523060048201526001600160a01b038381166024830152600091839186169063dd62ed3e90604401602060405180830381865afa158015611cd0573d6000803e3d6000fd5b505050506040513d601f19601f82011682018060405250810190611cf4919061231f565b611cfe9190612243565b6040516001600160a01b038516602482015260448101829052909150611d6490859063095ea7b360e01b906064015b60408051601f198184030181529190526020810180516001600160e01b03166001600160e01b031990931692909217909152611d9f565b50505050565b6040516001600160a01b038316602482015260448101829052611d9a90849063a9059cbb60e01b90606401611d2d565b505050565b6000611df4826040518060400160405280602081526020017f5361666545524332303a206c6f772d6c6576656c2063616c6c206661696c6564815250856001600160a01b0316611e719092919063ffffffff16565b805190915015611d9a5780806020019051810190611e12919061234e565b611d9a5760405162461bcd60e51b815260206004820152602a60248201527f5361666545524332303a204552433230206f7065726174696f6e20646964206e6044820152691bdd081cdd58d8d9595960b21b6064820152608401610403565b6060611e808484600085611e88565b949350505050565b606082471015611ee95760405162461bcd60e51b815260206004820152602660248201527f416464726573733a20696e73756666696369656e742062616c616e636520666f6044820152651c8818d85b1b60d21b6064820152608401610403565b843b611f375760405162461bcd60e51b815260206004820152601d60248201527f416464726573733a2063616c6c20746f206e6f6e2d636f6e74726163740000006044820152606401610403565b600080866001600160a01b03168587604051611f5391906124c6565b60006040518083038185875af1925050503d8060008114611f90576040519150601f19603f3d011682016040523d82523d6000602084013e611f95565b606091505b5091509150611fa5828286611fb0565b979650505050505050565b60608315611fbf5750816104cb565b825115611fcf5782518084602001fd5b8160405162461bcd60e51b815260040161040391906124e2565b6001600160a01b0381168114611ffe57600080fd5b50565b60006020828403121561201357600080fd5b81356104cb81611fe9565b60008060006060848603121561203357600080fd5b833561203e81611fe9565b9250602084013561204e81611fe9565b929592945050506040919091013590565b6000806000806080858703121561207557600080fd5b843561208081611fe9565b9350602085013561209081611fe9565b93969395505050506040820135916060013590565b634e487b7160e01b600052604160045260246000fd5b604051601f8201601f1916810167ffffffffffffffff811182821017156120e4576120e46120a5565b604052919050565b600080600080600060a0868803121561210457600080fd5b853561210f81611fe9565b945060208681013561212081611fe9565b9450604087013561213081611fe9565b9350606087013561214081611fe9565b9250608087013567ffffffffffffffff8082111561215d57600080fd5b818901915089601f83011261217157600080fd5b813581811115612183576121836120a5565b8060051b91506121948483016120bb565b818152918301840191848101908c8411156121ae57600080fd5b938501935b838510156121cc578435825293850193908501906121b3565b8096505050505050509295509295909350565b6020808252601c908201527f4552523a204f6e6c7920706f6f6c2063616e2063616c6c207468697300000000604082015260600190565b634e487b7160e01b600052601160045260246000fd5b60008282101561223e5761223e612216565b500390565b6000821982111561225657612256612216565b500190565b6020808252601f908201527f5265656e7472616e637947756172643a207265656e7472616e742063616c6c00604082015260600190565b6000602082840312156122a457600080fd5b81516104cb81611fe9565b805180151581146122bf57600080fd5b919050565b6000604082840312156122d657600080fd5b6040516040810181811067ffffffffffffffff821117156122f9576122f96120a5565b604052612305836122af565b8152612313602084016122af565b60208201529392505050565b60006020828403121561233157600080fd5b5051919050565b634e487b7160e01b600052603260045260246000fd5b60006020828403121561236057600080fd5b6104cb826122af565b60008261238657634e487b7160e01b600052601260045260246000fd5b500490565b60008160001904831182151516156123a5576123a5612216565b500290565b600181815b808511156123e55781600019048211156123cb576123cb612216565b808516156123d857918102915b93841c93908002906123af565b509250929050565b6000826123fc57506001610575565b8161240957506000610575565b816001811461241f576002811461242957612445565b6001915050610575565b60ff84111561243a5761243a612216565b50506001821b610575565b5060208310610133831016604e8410600b8410161715612468575081810a610575565b61247283836123aa565b806000190482111561248657612486612216565b029392505050565b60006104cb83836123ed565b60005b838110156124b557818101518382015260200161249d565b83811115611d645750506000910152565b600082516124d881846020870161249a565b9190910192915050565b602081526000825180602084015261250181604085016020870161249a565b601f01601f1916919091016040019291505056fea2646970667358221220052614e63d7c5b4e30cf763b60db649107e9b0134e07fc54d861e3121ec3829b64736f6c634300080a0033",
  "linkReferences": {},
  "deployedLinkReferences": {}
}