{
  "_format": "hh-sol-artifact-1",
  "contractName": "OPFCommunityFeeCollector",
  "sourceName": "contracts/communityFee/OPFCommunityFeeCollector.sol",
  "abi": [
    {
      "inputs": [
        {
          "internalType": "address payable",
          "name": "newCollector",
          "type": "address"
        },
        {
          "internalType": "address",
          "name": "OPFOwnerAddress",
          "type": "address"
        }
      ],
      "stateMutability": "nonpayable",
      "type": "constructor"
    },
    {
      "anonymous": false,
      "inputs": [
        {
          "indexed": true,
          "internalType": "address",
          "name": "previousOwner",
          "type": "address"
        },
        {
          "indexed": true,
          "internalType": "address",
          "name": "newOwner",
          "type": "address"
        }
      ],
      "name": "OwnershipTransferred",
      "type": "event"
    },
    {
      "stateMutability": "payable",
      "type": "fallback"
    },
    {
      "inputs": [
        {
          "internalType": "address payable",
          "name": "newCollector",
          "type": "address"
        }
      ],
      "name": "changeCollector",
      "outputs": [],
      "stateMutability": "nonpayable",
      "type": "function"
    },
    {
      "inputs": [],
      "name": "owner",
      "outputs": [
        {
          "internalType": "address",
          "name": "",
          "type": "address"
        }
      ],
      "stateMutability": "view",
      "type": "function"
    },
    {
      "inputs": [],
      "name": "renounceOwnership",
      "outputs": [],
      "stateMutability": "nonpayable",
      "type": "function"
    },
    {
      "inputs": [
        {
          "internalType": "address",
          "name": "newOwner",
          "type": "address"
        }
      ],
      "name": "transferOwnership",
      "outputs": [],
      "stateMutability": "nonpayable",
      "type": "function"
    },
    {
      "inputs": [],
      "name": "withdrawETH",
      "outputs": [],
      "stateMutability": "payable",
      "type": "function"
    },
    {
      "inputs": [
        {
          "internalType": "address",
          "name": "tokenAddress",
          "type": "address"
        }
      ],
      "name": "withdrawToken",
      "outputs": [],
      "stateMutability": "nonpayable",
      "type": "function"
    },
    {
      "stateMutability": "payable",
      "type": "receive"
    }
  ],
  "bytecode": "0x608060405234801561001057600080fd5b50604051610aa3380380610aa383398101604081905261002f9161023a565b6100383361010a565b6001600160a01b0382161580159061005857506001600160a01b03811615155b6100df5760405162461bcd60e51b815260206004820152604760248201527f4f5046436f6d6d756e697479466565436f6c6c6563746f723a20636f6c6c656360448201527f746f722061646472657373206f72206f776e657220697320696e76616c6964206064820152666164647265737360c81b608482015260a4015b60405180910390fd5b600180546001600160a01b0319166001600160a01b0384161790556101038161015a565b5050610274565b600080546001600160a01b038381166001600160a01b0319831681178455604051919092169283917f8be0079c531659141344cd1fd0a4f28419497f9722a3daafe3b4186f6b6457e09190a35050565b6000546001600160a01b031633146101b45760405162461bcd60e51b815260206004820181905260248201527f4f776e61626c653a2063616c6c6572206973206e6f7420746865206f776e657260448201526064016100d6565b6001600160a01b0381166102195760405162461bcd60e51b815260206004820152602660248201527f4f776e61626c653a206e6577206f776e657220697320746865207a65726f206160448201526564647265737360d01b60648201526084016100d6565b6102228161010a565b50565b6001600160a01b038116811461022257600080fd5b6000806040838503121561024d57600080fd5b825161025881610225565b602084015190925061026981610225565b809150509250929050565b610820806102836000396000f3fe6080604052600436106100565760003560e01c8063715018a61461005f5780637781127e1461007457806389476069146100945780638da5cb5b146100b4578063e086e5ec146100e0578063f2fde38b146100e857005b3661005d57005b005b34801561006b57600080fd5b5061005d610108565b34801561008057600080fd5b5061005d61008f3660046106de565b610147565b3480156100a057600080fd5b5061005d6100af3660046106de565b610205565b3480156100c057600080fd5b50600054604080516001600160a01b039092168252519081900360200190f35b61005d610309565b3480156100f457600080fd5b5061005d6101033660046106de565b610342565b6000546001600160a01b0316331461013b5760405162461bcd60e51b8152600401610132906106fb565b60405180910390fd5b61014560006103d6565b565b6000546001600160a01b031633146101715760405162461bcd60e51b8152600401610132906106fb565b6001600160a01b0381166101e35760405162461bcd60e51b815260206004820152603360248201527f4f5046436f6d6d756e697479466565436f6c6c6563746f723a20696e76616c696044820152726420636f6c6c6563746f72206164647265737360681b6064820152608401610132565b600180546001600160a01b0319166001600160a01b0392909216919091179055565b6001600160a01b0381166102815760405162461bcd60e51b815260206004820152603860248201527f4f5046436f6d6d756e697479466565436f6c6c6563746f723a20696e76616c6960448201527f6420746f6b656e20636f6e7472616374206164647265737300000000000000006064820152608401610132565b6001546040516370a0823160e01b8152306004820152610306916001600160a01b0390811691908416906370a0823190602401602060405180830381865afa1580156102d1573d6000803e3d6000fd5b505050506040513d601f19601f820116820180604052508101906102f59190610730565b6001600160a01b0384169190610426565b50565b6001546040516001600160a01b03909116904780156108fc02916000818181858888f19350505050158015610306573d6000803e3d6000fd5b6000546001600160a01b0316331461036c5760405162461bcd60e51b8152600401610132906106fb565b6001600160a01b0381166103d15760405162461bcd60e51b815260206004820152602660248201527f4f776e61626c653a206e6577206f776e657220697320746865207a65726f206160448201526564647265737360d01b6064820152608401610132565b610306815b600080546001600160a01b038381166001600160a01b0319831681178455604051919092169283917f8be0079c531659141344cd1fd0a4f28419497f9722a3daafe3b4186f6b6457e09190a35050565b604080516001600160a01b038416602482015260448082018490528251808303909101815260649091019091526020810180516001600160e01b031663a9059cbb60e01b17905261047890849061047d565b505050565b60006104d2826040518060400160405280602081526020017f5361666545524332303a206c6f772d6c6576656c2063616c6c206661696c6564815250856001600160a01b031661054f9092919063ffffffff16565b80519091501561047857808060200190518101906104f09190610749565b6104785760405162461bcd60e51b815260206004820152602a60248201527f5361666545524332303a204552433230206f7065726174696f6e20646964206e6044820152691bdd081cdd58d8d9595960b21b6064820152608401610132565b606061055e8484600085610568565b90505b9392505050565b6060824710156105c95760405162461bcd60e51b815260206004820152602660248201527f416464726573733a20696e73756666696369656e742062616c616e636520666f6044820152651c8818d85b1b60d21b6064820152608401610132565b843b6106175760405162461bcd60e51b815260206004820152601d60248201527f416464726573733a2063616c6c20746f206e6f6e2d636f6e74726163740000006044820152606401610132565b600080866001600160a01b03168587604051610633919061079b565b60006040518083038185875af1925050503d8060008114610670576040519150601f19603f3d011682016040523d82523d6000602084013e610675565b606091505b5091509150610685828286610690565b979650505050505050565b6060831561069f575081610561565b8251156106af5782518084602001fd5b8160405162461bcd60e51b815260040161013291906107b7565b6001600160a01b038116811461030657600080fd5b6000602082840312156106f057600080fd5b8135610561816106c9565b6020808252818101527f4f776e61626c653a2063616c6c6572206973206e6f7420746865206f776e6572604082015260600190565b60006020828403121561074257600080fd5b5051919050565b60006020828403121561075b57600080fd5b8151801515811461056157600080fd5b60005b8381101561078657818101518382015260200161076e565b83811115610795576000848401525b50505050565b600082516107ad81846020870161076b565b9190910192915050565b60208152600082518060208401526107d681604085016020870161076b565b601f01601f1916919091016040019291505056fea2646970667358221220d8f2defe95149ce6856755738e666bea101ef609d0a602b9c8abc0b47ec043f564736f6c634300080c0033",
  "linkReferences": {},
  "deployedLinkReferences": {}
}