{
  "_format": "hh-sol-artifact-1",
  "contractName": "OPFCommunityFeeCollector",
  "sourceName": "contracts/communityFee/OPFCommunityFeeCollector.sol",
  "abi": [
    {
      "inputs": [
        {
          "internalType": "address payable",
          "name": "newCollector",
          "type": "address"
        },
        {
          "internalType": "address",
          "name": "OPFOwnerAddress",
          "type": "address"
        }
      ],
      "stateMutability": "nonpayable",
      "type": "constructor"
    },
    {
      "anonymous": false,
      "inputs": [
        {
          "indexed": true,
          "internalType": "address",
          "name": "previousOwner",
          "type": "address"
        },
        {
          "indexed": true,
          "internalType": "address",
          "name": "newOwner",
          "type": "address"
        }
      ],
      "name": "OwnershipTransferred",
      "type": "event"
    },
    {
      "stateMutability": "payable",
      "type": "fallback"
    },
    {
      "inputs": [
        {
          "internalType": "address payable",
          "name": "newCollector",
          "type": "address"
        }
      ],
      "name": "changeCollector",
      "outputs": [],
      "stateMutability": "nonpayable",
      "type": "function"
    },
    {
      "inputs": [],
      "name": "owner",
      "outputs": [
        {
          "internalType": "address",
          "name": "",
          "type": "address"
        }
      ],
      "stateMutability": "view",
      "type": "function"
    },
    {
      "inputs": [],
      "name": "renounceOwnership",
      "outputs": [],
      "stateMutability": "nonpayable",
      "type": "function"
    },
    {
      "inputs": [
        {
          "internalType": "address",
          "name": "newOwner",
          "type": "address"
        }
      ],
      "name": "transferOwnership",
      "outputs": [],
      "stateMutability": "nonpayable",
      "type": "function"
    },
    {
      "inputs": [],
      "name": "withdrawETH",
      "outputs": [],
      "stateMutability": "payable",
      "type": "function"
    },
    {
      "inputs": [
        {
          "internalType": "address",
          "name": "tokenAddress",
          "type": "address"
        }
      ],
      "name": "withdrawToken",
      "outputs": [],
      "stateMutability": "nonpayable",
      "type": "function"
    }
  ],
  "bytecode": "0x608060405234801561001057600080fd5b506040516109be3803806109be83398101604081905261002f916101a2565b60006100396100e1565b600080546001600160a01b0319166001600160a01b03831690811782556040519293509160008051602061099e833981519152908290a3506001600160a01b0382161580159061009157506001600160a01b03811615155b6100b65760405162461bcd60e51b81526004016100ad90610221565b60405180910390fd5b600180546001600160a01b0319166001600160a01b0384161790556100da816100e5565b50506102db565b3390565b6100ed6100e1565b6001600160a01b03166100fe610193565b6001600160a01b0316146101245760405162461bcd60e51b81526004016100ad9061028e565b6001600160a01b03811661014a5760405162461bcd60e51b81526004016100ad906101db565b600080546040516001600160a01b038085169392169160008051602061099e83398151915291a3600080546001600160a01b0319166001600160a01b0392909216919091179055565b6000546001600160a01b031690565b600080604083850312156101b4578182fd5b82516101bf816102c3565b60208401519092506101d0816102c3565b809150509250929050565b60208082526026908201527f4f776e61626c653a206e6577206f776e657220697320746865207a65726f206160408201526564647265737360d01b606082015260800190565b60208082526047908201527f4f5046436f6d6d756e697479466565436f6c6c6563746f723a20636f6c6c656360408201527f746f722061646472657373206f72206f776e657220697320696e76616c6964206060820152666164647265737360c81b608082015260a00190565b6020808252818101527f4f776e61626c653a2063616c6c6572206973206e6f7420746865206f776e6572604082015260600190565b6001600160a01b03811681146102d857600080fd5b50565b6106b4806102ea6000396000f3fe6080604052600436106100555760003560e01c8063715018a6146100575780637781127e1461006c578063894760691461008c5780638da5cb5b146100ac578063e086e5ec146100d7578063f2fde38b146100df575b005b34801561006357600080fd5b506100556100ff565b34801561007857600080fd5b50610055610087366004610463565b610191565b34801561009857600080fd5b506100556100a7366004610463565b610218565b3480156100b857600080fd5b506100c1610357565b6040516100ce91906104be565b60405180910390f35b610055610366565b3480156100eb57600080fd5b506100556100fa366004610463565b61039f565b61010761045f565b6001600160a01b0316610118610357565b6001600160a01b0316146101475760405162461bcd60e51b815260040161013e9061058e565b60405180910390fd5b600080546040516001600160a01b03909116907f8be0079c531659141344cd1fd0a4f28419497f9722a3daafe3b4186f6b6457e0908390a3600080546001600160a01b0319169055565b61019961045f565b6001600160a01b03166101aa610357565b6001600160a01b0316146101d05760405162461bcd60e51b815260040161013e9061058e565b6001600160a01b0381166101f65760405162461bcd60e51b815260040161013e90610616565b600180546001600160a01b0319166001600160a01b0392909216919091179055565b6001600160a01b03811661023e5760405162461bcd60e51b815260040161013e90610531565b6001546040516370a0823160e01b81526001600160a01b038084169263a9059cbb9291169083906370a08231906102799030906004016104be565b60206040518083038186803b15801561029157600080fd5b505afa1580156102a5573d6000803e3d6000fd5b505050506040513d601f19601f820116820180604052508101906102c991906104a6565b6040518363ffffffff1660e01b81526004016102e69291906104d2565b602060405180830381600087803b15801561030057600080fd5b505af1158015610314573d6000803e3d6000fd5b505050506040513d601f19601f820116820180604052508101906103389190610486565b6103545760405162461bcd60e51b815260040161013e906105c3565b50565b6000546001600160a01b031690565b6001546040516001600160a01b03909116904780156108fc02916000818181858888f19350505050158015610354573d6000803e3d6000fd5b6103a761045f565b6001600160a01b03166103b8610357565b6001600160a01b0316146103de5760405162461bcd60e51b815260040161013e9061058e565b6001600160a01b0381166104045760405162461bcd60e51b815260040161013e906104eb565b600080546040516001600160a01b03808516939216917f8be0079c531659141344cd1fd0a4f28419497f9722a3daafe3b4186f6b6457e091a3600080546001600160a01b0319166001600160a01b0392909216919091179055565b3390565b600060208284031215610474578081fd5b813561047f81610669565b9392505050565b600060208284031215610497578081fd5b8151801515811461047f578182fd5b6000602082840312156104b7578081fd5b5051919050565b6001600160a01b0391909116815260200190565b6001600160a01b03929092168252602082015260400190565b60208082526026908201527f4f776e61626c653a206e6577206f776e657220697320746865207a65726f206160408201526564647265737360d01b606082015260800190565b60208082526038908201527f4f5046436f6d6d756e697479466565436f6c6c6563746f723a20696e76616c6960408201527f6420746f6b656e20636f6e747261637420616464726573730000000000000000606082015260800190565b6020808252818101527f4f776e61626c653a2063616c6c6572206973206e6f7420746865206f776e6572604082015260600190565b60208082526033908201527f4f5046436f6d6d756e697479466565436f6c6c6563746f723a206661696c656460408201527220746f20776974686472617720746f6b656e7360681b606082015260800190565b60208082526033908201527f4f5046436f6d6d756e697479466565436f6c6c6563746f723a20696e76616c696040820152726420636f6c6c6563746f72206164647265737360681b606082015260800190565b6001600160a01b038116811461035457600080fdfea2646970667358221220936c020a47c070fbb05bf8d1d1fd9fd90a68f8d0b02933c6b62f5f8def037a0564736f6c634300080000338be0079c531659141344cd1fd0a4f28419497f9722a3daafe3b4186f6b6457e0",
  "linkReferences": {},
  "deployedLinkReferences": {}
}