{
  "_format": "hh-sol-artifact-1",
  "contractName": "OPFCommunityFeeCollector",
  "sourceName": "contracts/communityFee/OPFCommunityFeeCollector.sol",
  "abi": [
    {
      "inputs": [
        {
          "internalType": "address payable",
          "name": "newCollector",
          "type": "address"
        },
        {
          "internalType": "address",
          "name": "OPFOwnerAddress",
          "type": "address"
        }
      ],
      "stateMutability": "nonpayable",
      "type": "constructor"
    },
    {
      "anonymous": false,
      "inputs": [
        {
          "indexed": true,
          "internalType": "address",
          "name": "previousOwner",
          "type": "address"
        },
        {
          "indexed": true,
          "internalType": "address",
          "name": "newOwner",
          "type": "address"
        }
      ],
      "name": "OwnershipTransferred",
      "type": "event"
    },
    {
      "stateMutability": "payable",
      "type": "fallback"
    },
    {
      "inputs": [
        {
          "internalType": "address payable",
          "name": "newCollector",
          "type": "address"
        }
      ],
      "name": "changeCollector",
      "outputs": [],
      "stateMutability": "nonpayable",
      "type": "function"
    },
    {
      "inputs": [],
      "name": "owner",
      "outputs": [
        {
          "internalType": "address",
          "name": "",
          "type": "address"
        }
      ],
      "stateMutability": "view",
      "type": "function"
    },
    {
      "inputs": [],
      "name": "renounceOwnership",
      "outputs": [],
      "stateMutability": "nonpayable",
      "type": "function"
    },
    {
      "inputs": [
        {
          "internalType": "address",
          "name": "newOwner",
          "type": "address"
        }
      ],
      "name": "transferOwnership",
      "outputs": [],
      "stateMutability": "nonpayable",
      "type": "function"
    },
    {
      "inputs": [],
      "name": "withdrawETH",
      "outputs": [],
      "stateMutability": "payable",
      "type": "function"
    },
    {
      "inputs": [
        {
          "internalType": "address",
          "name": "tokenAddress",
          "type": "address"
        }
      ],
      "name": "withdrawToken",
      "outputs": [],
      "stateMutability": "nonpayable",
      "type": "function"
    }
  ],
  "bytecode": "0x608060405234801561001057600080fd5b5060405161084938038061084983398101604081905261002f9161023a565b6100383361010a565b6001600160a01b0382161580159061005857506001600160a01b03811615155b6100df5760405162461bcd60e51b815260206004820152604760248201527f4f5046436f6d6d756e697479466565436f6c6c6563746f723a20636f6c6c656360448201527f746f722061646472657373206f72206f776e657220697320696e76616c6964206064820152666164647265737360c81b608482015260a4015b60405180910390fd5b600180546001600160a01b0319166001600160a01b0384161790556101038161015a565b5050610274565b600080546001600160a01b038381166001600160a01b0319831681178455604051919092169283917f8be0079c531659141344cd1fd0a4f28419497f9722a3daafe3b4186f6b6457e09190a35050565b6000546001600160a01b031633146101b45760405162461bcd60e51b815260206004820181905260248201527f4f776e61626c653a2063616c6c6572206973206e6f7420746865206f776e657260448201526064016100d6565b6001600160a01b0381166102195760405162461bcd60e51b815260206004820152602660248201527f4f776e61626c653a206e6577206f776e657220697320746865207a65726f206160448201526564647265737360d01b60648201526084016100d6565b6102228161010a565b50565b6001600160a01b038116811461022257600080fd5b6000806040838503121561024d57600080fd5b825161025881610225565b602084015190925061026981610225565b809150509250929050565b6105c6806102836000396000f3fe6080604052600436106100555760003560e01c8063715018a6146100575780637781127e1461006c578063894760691461008c5780638da5cb5b146100ac578063e086e5ec146100d8578063f2fde38b146100e0575b005b34801561006357600080fd5b50610055610100565b34801561007857600080fd5b506100556100873660046104fc565b61013f565b34801561009857600080fd5b506100556100a73660046104fc565b6101fd565b3480156100b857600080fd5b50600054604080516001600160a01b039092168252519081900360200190f35b6100556103ca565b3480156100ec57600080fd5b506100556100fb3660046104fc565b610403565b6000546001600160a01b031633146101335760405162461bcd60e51b815260040161012a90610520565b60405180910390fd5b61013d6000610497565b565b6000546001600160a01b031633146101695760405162461bcd60e51b815260040161012a90610520565b6001600160a01b0381166101db5760405162461bcd60e51b815260206004820152603360248201527f4f5046436f6d6d756e697479466565436f6c6c6563746f723a20696e76616c696044820152726420636f6c6c6563746f72206164647265737360681b606482015260840161012a565b600180546001600160a01b0319166001600160a01b0392909216919091179055565b6001600160a01b0381166102795760405162461bcd60e51b815260206004820152603860248201527f4f5046436f6d6d756e697479466565436f6c6c6563746f723a20696e76616c6960448201527f6420746f6b656e20636f6e747261637420616464726573730000000000000000606482015260840161012a565b6001546040516370a0823160e01b81523060048201526001600160a01b038381169263a9059cbb9291169083906370a0823190602401602060405180830381865afa1580156102cc573d6000803e3d6000fd5b505050506040513d601f19601f820116820180604052508101906102f09190610555565b6040516001600160e01b031960e085901b1681526001600160a01b03909216600483015260248201526044016020604051808303816000875af115801561033b573d6000803e3d6000fd5b505050506040513d601f19601f8201168201806040525081019061035f919061056e565b6103c75760405162461bcd60e51b815260206004820152603360248201527f4f5046436f6d6d756e697479466565436f6c6c6563746f723a206661696c656460448201527220746f20776974686472617720746f6b656e7360681b606482015260840161012a565b50565b6001546040516001600160a01b03909116904780156108fc02916000818181858888f193505050501580156103c7573d6000803e3d6000fd5b6000546001600160a01b0316331461042d5760405162461bcd60e51b815260040161012a90610520565b6001600160a01b0381166104925760405162461bcd60e51b815260206004820152602660248201527f4f776e61626c653a206e6577206f776e657220697320746865207a65726f206160448201526564647265737360d01b606482015260840161012a565b6103c7815b600080546001600160a01b038381166001600160a01b0319831681178455604051919092169283917f8be0079c531659141344cd1fd0a4f28419497f9722a3daafe3b4186f6b6457e09190a35050565b6001600160a01b03811681146103c757600080fd5b60006020828403121561050e57600080fd5b8135610519816104e7565b9392505050565b6020808252818101527f4f776e61626c653a2063616c6c6572206973206e6f7420746865206f776e6572604082015260600190565b60006020828403121561056757600080fd5b5051919050565b60006020828403121561058057600080fd5b8151801515811461051957600080fdfea26469706673582212209346a3ae49ac0f2a831e15b2f3d03650bced727ffc6030c576e81ceba6a023d764736f6c634300080a0033",
  "linkReferences": {},
  "deployedLinkReferences": {}
}