{
  "_format": "hh-sol-artifact-1",
  "contractName": "OPFCommunityFeeCollector",
  "sourceName": "contracts/communityFee/OPFCommunityFeeCollector.sol",
  "abi": [
    {
      "inputs": [
        {
          "internalType": "address payable",
          "name": "newCollector",
          "type": "address"
        },
        {
          "internalType": "address",
          "name": "OPFOwnerAddress",
          "type": "address"
        }
      ],
      "stateMutability": "nonpayable",
      "type": "constructor"
    },
    {
      "anonymous": false,
      "inputs": [
        {
          "indexed": true,
          "internalType": "address",
          "name": "previousOwner",
          "type": "address"
        },
        {
          "indexed": true,
          "internalType": "address",
          "name": "newOwner",
          "type": "address"
        }
      ],
      "name": "OwnershipTransferred",
      "type": "event"
    },
    {
      "stateMutability": "payable",
      "type": "fallback"
    },
    {
      "inputs": [
        {
          "internalType": "bytes32",
          "name": "c__0xad51c936",
          "type": "bytes32"
        }
      ],
      "name": "c_0xad51c936",
      "outputs": [],
      "stateMutability": "pure",
      "type": "function"
    },
    {
      "inputs": [
        {
          "internalType": "address payable",
          "name": "newCollector",
          "type": "address"
        }
      ],
      "name": "changeCollector",
      "outputs": [],
      "stateMutability": "nonpayable",
      "type": "function"
    },
    {
      "inputs": [],
      "name": "owner",
      "outputs": [
        {
          "internalType": "address",
          "name": "",
          "type": "address"
        }
      ],
      "stateMutability": "view",
      "type": "function"
    },
    {
      "inputs": [],
      "name": "renounceOwnership",
      "outputs": [],
      "stateMutability": "nonpayable",
      "type": "function"
    },
    {
      "inputs": [
        {
          "internalType": "address",
          "name": "newOwner",
          "type": "address"
        }
      ],
      "name": "transferOwnership",
      "outputs": [],
      "stateMutability": "nonpayable",
      "type": "function"
    },
    {
      "inputs": [],
      "name": "withdrawETH",
      "outputs": [],
      "stateMutability": "payable",
      "type": "function"
    },
    {
      "inputs": [
        {
          "internalType": "address",
          "name": "tokenAddress",
          "type": "address"
        }
      ],
      "name": "withdrawToken",
      "outputs": [],
      "stateMutability": "nonpayable",
      "type": "function"
    }
  ],
  "bytecode": "0x60806040523480156200001157600080fd5b506040516200182f3803806200182f83398181016040528101906200003791906200056d565b620000576200004b6200033160201b60201c565b6200033960201b60201c565b6200008b7f83652965166388db3b645fa3015e359b43aea4a8c9b59d423813bd64232e0cbf60001b620003fd60201b60201c565b620000bf7fa554b8ed5c52d6311454e9c39f26515075b9fd3905d25d0d71e8db3cc142c40c60001b620003fd60201b60201c565b620000f27e8dfcfc8d9b2f852542c1519c2a44782b1df006ba42e94369fdc9ab68eff28060001b620003fd60201b60201c565b620001267fc8df7646ca0a0f54e1f39211a6f91b56f7ed0a706122e69c97bf3099b676ec7e60001b620003fd60201b60201c565b600073ffffffffffffffffffffffffffffffffffffffff168273ffffffffffffffffffffffffffffffffffffffff1614158015620001915750600073ffffffffffffffffffffffffffffffffffffffff168173ffffffffffffffffffffffffffffffffffffffff1614155b620001d3576040517f08c379a0000000000000000000000000000000000000000000000000000000008152600401620001ca9062000708565b60405180910390fd5b620002077f9282f61d938cab10d631a2b60d0e0568d9910bf471dcbb58d8af0381dc37f94560001b620003fd60201b60201c565b6200023b7f0da76bddca366c59ff75f3c4d230c783218f8dd4d1a4afb72a55d7dc7a7bfc0260001b620003fd60201b60201c565b6200026f7fb3e0a9b3220a1b9c91878ab619560bde95202101a697888e58ddd56539099d6660001b620003fd60201b60201c565b81600160006101000a81548173ffffffffffffffffffffffffffffffffffffffff021916908373ffffffffffffffffffffffffffffffffffffffff160217905550620002e47fbb4bf63abc25012bf40ce54156c737d01962cb6af507c32afb09a5fe883f4f2f60001b620003fd60201b60201c565b620003187fdc00abc77e01ba9da6fcaab7e1a9d4ddb5ef262c772fbf97c660e3cf561e542a60001b620003fd60201b60201c565b62000329816200040060201b60201c565b5050620007d9565b600033905090565b60008060009054906101000a900473ffffffffffffffffffffffffffffffffffffffff169050816000806101000a81548173ffffffffffffffffffffffffffffffffffffffff021916908373ffffffffffffffffffffffffffffffffffffffff1602179055508173ffffffffffffffffffffffffffffffffffffffff168173ffffffffffffffffffffffffffffffffffffffff167f8be0079c531659141344cd1fd0a4f28419497f9722a3daafe3b4186f6b6457e060405160405180910390a35050565b50565b620004106200033160201b60201c565b73ffffffffffffffffffffffffffffffffffffffff16620004366200051660201b60201c565b73ffffffffffffffffffffffffffffffffffffffff16146200048f576040517f08c379a000000000000000000000000000000000000000000000000000000000815260040162000486906200072a565b60405180910390fd5b600073ffffffffffffffffffffffffffffffffffffffff168173ffffffffffffffffffffffffffffffffffffffff16141562000502576040517f08c379a0000000000000000000000000000000000000000000000000000000008152600401620004f990620006e6565b60405180910390fd5b62000513816200033960201b60201c565b50565b60008060009054906101000a900473ffffffffffffffffffffffffffffffffffffffff16905090565b6000815190506200055081620007a5565b92915050565b6000815190506200056781620007bf565b92915050565b600080604083850312156200058157600080fd5b6000620005918582860162000556565b9250506020620005a4858286016200053f565b9150509250929050565b6000620005bd6026836200074c565b91507f4f776e61626c653a206e6577206f776e657220697320746865207a65726f206160008301527f64647265737300000000000000000000000000000000000000000000000000006020830152604082019050919050565b6000620006256047836200074c565b91507f4f5046436f6d6d756e697479466565436f6c6c6563746f723a20636f6c6c656360008301527f746f722061646472657373206f72206f776e657220697320696e76616c69642060208301527f61646472657373000000000000000000000000000000000000000000000000006040830152606082019050919050565b6000620006b36020836200074c565b91507f4f776e61626c653a2063616c6c6572206973206e6f7420746865206f776e65726000830152602082019050919050565b600060208201905081810360008301526200070181620005ae565b9050919050565b60006020820190508181036000830152620007238162000616565b9050919050565b600060208201905081810360008301526200074581620006a4565b9050919050565b600082825260208201905092915050565b60006200076a8262000785565b9050919050565b60006200077e8262000785565b9050919050565b600073ffffffffffffffffffffffffffffffffffffffff82169050919050565b620007b0816200075d565b8114620007bc57600080fd5b50565b620007ca8162000771565b8114620007d657600080fd5b50565b61104680620007e96000396000f3fe6080604052600436106100745760003560e01c8063894760691161004e578063894760691461010c5780638da5cb5b14610135578063e086e5ec14610160578063f2fde38b1461016a57610075565b8063210d40f9146100a3578063715018a6146100cc5780637781127e146100e357610075565b5b6100a17f9e647035f8f1dba869a46b94e57e9ef34ef48f749c39168d6625c6a58128205660001b610193565b005b3480156100af57600080fd5b506100ca60048036038101906100c59190610bb7565b610193565b005b3480156100d857600080fd5b506100e1610196565b005b3480156100ef57600080fd5b5061010a60048036038101906101059190610b65565b61021e565b005b34801561011857600080fd5b50610133600480360381019061012e9190610b3c565b610482565b005b34801561014157600080fd5b5061014a6107f7565b6040516101579190610e0e565b60405180910390f35b610168610820565b005b34801561017657600080fd5b50610191600480360381019061018c9190610b3c565b61090f565b005b50565b61019e610a07565b73ffffffffffffffffffffffffffffffffffffffff166101bc6107f7565b73ffffffffffffffffffffffffffffffffffffffff1614610212576040517f08c379a000000000000000000000000000000000000000000000000000000000815260040161020990610e92565b60405180910390fd5b61021c6000610a0f565b565b610226610a07565b73ffffffffffffffffffffffffffffffffffffffff166102446107f7565b73ffffffffffffffffffffffffffffffffffffffff161461029a576040517f08c379a000000000000000000000000000000000000000000000000000000000815260040161029190610e92565b60405180910390fd5b6102c67fb8b761f931ed7d572617e9fd42b3024f8998de6815cd635684bc0620ee6faad060001b610193565b6102f27fcf5d7c3580cb123bbbd7ccedea272718bc705d77d0fb81439f5b93b6160f3f2260001b610193565b61031e7f1c50afccaafc23a71d02ed456300df118c476ae0741e6c8866c9354ce51d9c5760001b610193565b61034a7f3156e31119816cf2049c4252bc6e45017c2156a925ec9ceba64845552a34441560001b610193565b600073ffffffffffffffffffffffffffffffffffffffff168173ffffffffffffffffffffffffffffffffffffffff1614156103ba576040517f08c379a00000000000000000000000000000000000000000000000000000000081526004016103b190610ed2565b60405180910390fd5b6103e67f23efd9ad2fcd7e16cc07df36689ff793ee94f26680ae442d00a902fd3b634a6f60001b610193565b6104127f168c8631a607be6d9245055d811cea7befbd7127bcccae03c84982ddcc6271c260001b610193565b61043e7f03218a996ebfdf4913e6a7ab1c25393a82e3055048a8040581bc54ff2e33b31960001b610193565b80600160006101000a81548173ffffffffffffffffffffffffffffffffffffffff021916908373ffffffffffffffffffffffffffffffffffffffff16021790555050565b6104ae7f068c4a8e168890bf5699634085254870b85e1b2dfd95bede80d88e2fbeef11a960001b610193565b6104da7f6096827f07d269d7d58ec0be20d51c8461a6d7e230e50ddee0450d5172e666c460001b610193565b6105067f7aebe627edac646833ebf33f1ff6d657c60a68e6c23d70cb041690fb55b7b31d60001b610193565b6105327f54e81081da3276d2eb5fa24debd3aaa00af94b93a846166b04f6d18a7187744b60001b610193565b600073ffffffffffffffffffffffffffffffffffffffff168173ffffffffffffffffffffffffffffffffffffffff1614156105a2576040517f08c379a000000000000000000000000000000000000000000000000000000000815260040161059990610e72565b60405180910390fd5b6105ce7f8f604edb446d93b8369d495b80091bcf8ff66fea89b25cce3513dfac74a5f37d60001b610193565b6105fa7f52e27a2427fccd7a455df43cd63fea64f783a85269034c6756e7feca8bd95d9160001b610193565b6106267f66e910fbbe8340f0334d1363a4c11f5660ba95ef6b03f79ff3859f1831272ab160001b610193565b6106527f068ef1a5a09826808c2ff2c5216ebc2fd9fd645b90ed3f62901d0be518fea73a60001b610193565b8073ffffffffffffffffffffffffffffffffffffffff1663a9059cbb600160009054906101000a900473ffffffffffffffffffffffffffffffffffffffff168373ffffffffffffffffffffffffffffffffffffffff166370a08231306040518263ffffffff1660e01b81526004016106ca9190610e0e565b60206040518083038186803b1580156106e257600080fd5b505afa1580156106f6573d6000803e3d6000fd5b505050506040513d601f19601f8201168201806040525081019061071a9190610be0565b6040518363ffffffff1660e01b8152600401610737929190610e29565b602060405180830381600087803b15801561075157600080fd5b505af1158015610765573d6000803e3d6000fd5b505050506040513d601f19601f820116820180604052508101906107899190610b8e565b6107c8576040517f08c379a00000000000000000000000000000000000000000000000000000000081526004016107bf90610eb2565b60405180910390fd5b6107f47f3a47f8dd972558ffb6cf44b5372682d5093cd13aa5e254beadaf50bb7131094c60001b610193565b50565b60008060009054906101000a900473ffffffffffffffffffffffffffffffffffffffff16905090565b61084c7f5ad7932a2b98c675a8096529924b83cecc74e465d4f5dd219e8da55b6e0f637b60001b610193565b6108787fae5166b01ec9776bcd00f99e11ca7ba2550549a1c5e69de49336b9700ad2476360001b610193565b6108a47fb86a9bf23d96548b42688e5d966eb2d358394b57422fa0e5036f99eb0e929e3560001b610193565b600160009054906101000a900473ffffffffffffffffffffffffffffffffffffffff1673ffffffffffffffffffffffffffffffffffffffff166108fc479081150290604051600060405180830381858888f1935050505015801561090c573d6000803e3d6000fd5b50565b610917610a07565b73ffffffffffffffffffffffffffffffffffffffff166109356107f7565b73ffffffffffffffffffffffffffffffffffffffff161461098b576040517f08c379a000000000000000000000000000000000000000000000000000000000815260040161098290610e92565b60405180910390fd5b600073ffffffffffffffffffffffffffffffffffffffff168173ffffffffffffffffffffffffffffffffffffffff1614156109fb576040517f08c379a00000000000000000000000000000000000000000000000000000000081526004016109f290610e52565b60405180910390fd5b610a0481610a0f565b50565b600033905090565b60008060009054906101000a900473ffffffffffffffffffffffffffffffffffffffff169050816000806101000a81548173ffffffffffffffffffffffffffffffffffffffff021916908373ffffffffffffffffffffffffffffffffffffffff1602179055508173ffffffffffffffffffffffffffffffffffffffff168173ffffffffffffffffffffffffffffffffffffffff167f8be0079c531659141344cd1fd0a4f28419497f9722a3daafe3b4186f6b6457e060405160405180910390a35050565b600081359050610ae281610f9d565b92915050565b600081359050610af781610fb4565b92915050565b600081519050610b0c81610fcb565b92915050565b600081359050610b2181610fe2565b92915050565b600081519050610b3681610ff9565b92915050565b600060208284031215610b4e57600080fd5b6000610b5c84828501610ad3565b91505092915050565b600060208284031215610b7757600080fd5b6000610b8584828501610ae8565b91505092915050565b600060208284031215610ba057600080fd5b6000610bae84828501610afd565b91505092915050565b600060208284031215610bc957600080fd5b6000610bd784828501610b12565b91505092915050565b600060208284031215610bf257600080fd5b6000610c0084828501610b27565b91505092915050565b610c1281610f67565b82525050565b610c2181610f03565b82525050565b6000610c34602683610ef2565b91507f4f776e61626c653a206e6577206f776e657220697320746865207a65726f206160008301527f64647265737300000000000000000000000000000000000000000000000000006020830152604082019050919050565b6000610c9a603883610ef2565b91507f4f5046436f6d6d756e697479466565436f6c6c6563746f723a20696e76616c6960008301527f6420746f6b656e20636f6e7472616374206164647265737300000000000000006020830152604082019050919050565b6000610d00602083610ef2565b91507f4f776e61626c653a2063616c6c6572206973206e6f7420746865206f776e65726000830152602082019050919050565b6000610d40603383610ef2565b91507f4f5046436f6d6d756e697479466565436f6c6c6563746f723a206661696c656460008301527f20746f20776974686472617720746f6b656e73000000000000000000000000006020830152604082019050919050565b6000610da6603383610ef2565b91507f4f5046436f6d6d756e697479466565436f6c6c6563746f723a20696e76616c6960008301527f6420636f6c6c6563746f722061646472657373000000000000000000000000006020830152604082019050919050565b610e0881610f5d565b82525050565b6000602082019050610e236000830184610c18565b92915050565b6000604082019050610e3e6000830185610c09565b610e4b6020830184610dff565b9392505050565b60006020820190508181036000830152610e6b81610c27565b9050919050565b60006020820190508181036000830152610e8b81610c8d565b9050919050565b60006020820190508181036000830152610eab81610cf3565b9050919050565b60006020820190508181036000830152610ecb81610d33565b9050919050565b60006020820190508181036000830152610eeb81610d99565b9050919050565b600082825260208201905092915050565b6000610f0e82610f3d565b9050919050565b6000610f2082610f3d565b9050919050565b60008115159050919050565b6000819050919050565b600073ffffffffffffffffffffffffffffffffffffffff82169050919050565b6000819050919050565b6000610f7282610f79565b9050919050565b6000610f8482610f8b565b9050919050565b6000610f9682610f3d565b9050919050565b610fa681610f03565b8114610fb157600080fd5b50565b610fbd81610f15565b8114610fc857600080fd5b50565b610fd481610f27565b8114610fdf57600080fd5b50565b610feb81610f33565b8114610ff657600080fd5b50565b61100281610f5d565b811461100d57600080fd5b5056fea2646970667358221220853cf034d2feda86ce5973bfa8bc80fe3e94af5ac01275280f59ec2a7ae96ca964736f6c63430008000033",
  "linkReferences": {},
  "deployedLinkReferences": {}
}