{
  "_format": "hh-sol-artifact-1",
  "contractName": "BaseSplitCodeFactory",
  "sourceName": "contracts/v3/balancer/BaseSplitCodeFactory.sol",
  "abi": [
    {
      "inputs": [
        {
          "internalType": "bytes",
          "name": "creationCode",
          "type": "bytes"
        }
      ],
      "stateMutability": "nonpayable",
      "type": "constructor"
    },
    {
      "inputs": [],
      "name": "getCreationCode",
      "outputs": [
        {
          "internalType": "bytes",
          "name": "",
          "type": "bytes"
        }
      ],
      "stateMutability": "view",
      "type": "function"
    },
    {
      "inputs": [],
      "name": "getCreationCodeContracts",
      "outputs": [
        {
          "internalType": "address",
          "name": "contractA",
          "type": "address"
        },
        {
          "internalType": "address",
          "name": "contractB",
          "type": "address"
        }
      ],
      "stateMutability": "view",
      "type": "function"
    }
  ],
  "bytecode": "0x608060405234801561001057600080fd5b506040516106e83803806106e883398101604081905261002f9161014c565b8051600061003e600283610245565b6001819055905060006100518284610265565b9050806003819055506060849050828152610075816100e260201b6100a41760201c565b600080546001600160a01b0319166001600160a01b039290921691909117905582850180518382526100b1826100e2602090811b6100a417901c565b600280546001600160a01b0319166001600160a01b039290921691909117905594909152929092525061029e915050565b80517f602038038060206000396000f3fefefefefefefefefefefefefefefefefefefe808352600091602081018484f090845291506001600160a01b0382166101465760405162461bcd60e51b815260040161013d9061020e565b60405180910390fd5b50919050565b6000602080838503121561015e578182fd5b82516001600160401b0380821115610174578384fd5b818501915085601f830112610187578384fd5b81518181111561019957610199610288565b604051601f8201601f19168101850183811182821017156101bc576101bc610288565b60405281815283820185018810156101d2578586fd5b8592505b818310156101f357838301850151818401860152918401916101d6565b8183111561020357858583830101525b979650505050505050565b60208082526016908201527f434f44455f4445504c4f594d454e545f4641494c454400000000000000000000604082015260600190565b60008261026057634e487b7160e01b81526012600452602481fd5b500490565b60008282101561028357634e487b7160e01b81526011600452602481fd5b500390565b634e487b7160e01b600052604160045260246000fd5b61043b806102ad6000396000f3fe608060405234801561001057600080fd5b50600436106100355760003560e01c8062c194db1461003a578063174481fa14610058575b600080fd5b61004261006e565b60405161004f919061021d565b60405180910390f35b61006061008d565b60405161004f929190610203565b60606100886040518060200160405280600081525061010e565b905090565b6000546002546001600160a01b0391821691169091565b80517f602038038060206000396000f3fefefefefefefefefefefefefefefefefefefe808352600091602081018484f090845291506001600160a01b0382166101085760405162461bcd60e51b81526004016100ff90610270565b60405180910390fd5b50919050565b600080546001546002546003546060946001600160a01b03948516949092169161013882856102a0565b8751909150600061014982846102a0565b9050604051975060208101880160405280885260208801866000828a3c846000888301883c5060208981019089850101610184818386610192565b505050505050505050919050565b602081106101ca57815183526101a96020846102a0565b92506101b66020836102a0565b91506101c36020826103d8565b9050610192565b600060016101d98360206103d8565b6101e5906101006102fe565b6101ef91906103d8565b925184518416931916929092179092525050565b6001600160a01b0392831681529116602082015260400190565b6000602080835283518082850152825b818110156102495785810183015185820160400152820161022d565b8181111561025a5783604083870101525b50601f01601f1916929092016040019392505050565b60208082526016908201527510d3d11157d111541313d65351539517d1905253115160521b604082015260600190565b600082198211156102b3576102b36103ef565b500190565b80825b60018086116102ca57506102f5565b8187048211156102dc576102dc6103ef565b808616156102e957918102915b9490941c9380026102bb565b94509492505050565b600061030d6000198484610314565b9392505050565b6000826103235750600161030d565b816103305750600061030d565b816001811461034657600281146103505761037d565b600191505061030d565b60ff841115610361576103616103ef565b6001841b915084821115610377576103776103ef565b5061030d565b5060208310610133831016604e8410600b84101617156103b0575081810a838111156103ab576103ab6103ef565b61030d565b6103bd84848460016102b8565b8086048211156103cf576103cf6103ef565b02949350505050565b6000828210156103ea576103ea6103ef565b500390565b634e487b7160e01b600052601160045260246000fdfea2646970667358221220c76fdc2ef095dcca4b0129f4be7e97824493dacce0e0acf3933f78833f1062fd64736f6c63430008000033",
  "linkReferences": {},
  "deployedLinkReferences": {}
}