{
  "_format": "hh-sol-artifact-1",
  "contractName": "V3Integration",
  "sourceName": "contracts/utils/V3Integration.sol",
  "abi": [
    {
      "inputs": [
        {
          "internalType": "bytes32",
          "name": "c__0xff926fff",
          "type": "bytes32"
        }
      ],
      "name": "c_0xff926fff",
      "outputs": [],
      "stateMutability": "pure",
      "type": "function"
    },
    {
      "inputs": [
        {
          "internalType": "address",
          "name": "",
          "type": "address"
        }
      ],
      "name": "v3DT",
      "outputs": [
        {
          "internalType": "bool",
          "name": "",
          "type": "bool"
        }
      ],
      "stateMutability": "view",
      "type": "function"
    }
  ],
  "bytecode": "0x608060405234801561001057600080fd5b506101fc806100206000396000f3fe608060405234801561001057600080fd5b50600436106100365760003560e01c80631b1de75c1461003b5780636868ff0d1461006b575b600080fd5b610055600480360381019061005091906100d4565b610087565b6040516100629190610135565b60405180910390f35b610085600480360381019061008091906100fd565b6100a7565b005b60006020528060005260406000206000915054906101000a900460ff1681565b50565b6000813590506100b981610198565b92915050565b6000813590506100ce816101af565b92915050565b6000602082840312156100e657600080fd5b60006100f4848285016100aa565b91505092915050565b60006020828403121561010f57600080fd5b600061011d848285016100bf565b91505092915050565b61012f81610162565b82525050565b600060208201905061014a6000830184610126565b92915050565b600061015b82610178565b9050919050565b60008115159050919050565b6000819050919050565b600073ffffffffffffffffffffffffffffffffffffffff82169050919050565b6101a181610150565b81146101ac57600080fd5b50565b6101b88161016e565b81146101c357600080fd5b5056fea2646970667358221220da0c902ae250d4b689d59163e429c184da9f9cd566fc6243f14a640e03df398e64736f6c63430008000033",
  "linkReferences": {},
  "deployedLinkReferences": {}
}