{
  "_format": "hh-sol-artifact-1",
  "contractName": "V3Integration",
  "sourceName": "contracts/utils/V3Integration.sol",
  "abi": [
    {
      "inputs": [
        {
          "internalType": "address",
          "name": "",
          "type": "address"
        }
      ],
      "name": "v3DT",
      "outputs": [
        {
          "internalType": "bool",
          "name": "",
          "type": "bool"
        }
      ],
      "stateMutability": "view",
      "type": "function"
    }
  ],
  "bytecode": "0x608060405234801561001057600080fd5b5060d28061001f6000396000f3fe6080604052348015600f57600080fd5b506004361060285760003560e01c80631b1de75c14602d575b600080fd5b603c60383660046065565b6050565b604051604791906091565b60405180910390f35b60006020819052908152604090205460ff1681565b6000602082840312156075578081fd5b81356001600160a01b0381168114608a578182fd5b9392505050565b90151581526020019056fea2646970667358221220bc4fdf7fc8e7ed184ea34e59875a9c68cb4d1b7bb65bbe0c0cb7e79b0ea9403c64736f6c63430008000033",
  "linkReferences": {},
  "deployedLinkReferences": {}
}