{
  "contractName": "DataTokenTemplate",
  "abi": [
    {
      "constant": false,
      "inputs": [
        {
          "name": "spender",
          "type": "address"
        },
        {
          "name": "value",
          "type": "uint256"
        }
      ],
      "name": "approve",
      "outputs": [
        {
          "name": "",
          "type": "bool"
        }
      ],
      "payable": false,
      "stateMutability": "nonpayable",
      "type": "function"
    },
    {
      "constant": true,
      "inputs": [],
      "name": "totalSupply",
      "outputs": [
        {
          "name": "",
          "type": "uint256"
        }
      ],
      "payable": false,
      "stateMutability": "view",
      "type": "function"
    },
    {
      "constant": false,
      "inputs": [
        {
          "name": "from",
          "type": "address"
        },
        {
          "name": "to",
          "type": "address"
        },
        {
          "name": "value",
          "type": "uint256"
        }
      ],
      "name": "transferFrom",
      "outputs": [
        {
          "name": "",
          "type": "bool"
        }
      ],
      "payable": false,
      "stateMutability": "nonpayable",
      "type": "function"
    },
    {
      "constant": true,
      "inputs": [],
      "name": "BASE_MARKET_FEE_PERCENTAGE",
      "outputs": [
        {
          "name": "",
          "type": "uint256"
        }
      ],
      "payable": false,
      "stateMutability": "view",
      "type": "function"
    },
    {
      "constant": false,
      "inputs": [
        {
          "name": "spender",
          "type": "address"
        },
        {
          "name": "addedValue",
          "type": "uint256"
        }
      ],
      "name": "increaseAllowance",
      "outputs": [
        {
          "name": "",
          "type": "bool"
        }
      ],
      "payable": false,
      "stateMutability": "nonpayable",
      "type": "function"
    },
    {
      "constant": true,
      "inputs": [
        {
          "name": "account",
          "type": "address"
        }
      ],
      "name": "balanceOf",
      "outputs": [
        {
          "name": "",
          "type": "uint256"
        }
      ],
      "payable": false,
      "stateMutability": "view",
      "type": "function"
    },
    {
      "constant": false,
      "inputs": [
        {
          "name": "spender",
          "type": "address"
        },
        {
          "name": "subtractedValue",
          "type": "uint256"
        }
      ],
      "name": "decreaseAllowance",
      "outputs": [
        {
          "name": "",
          "type": "bool"
        }
      ],
      "payable": false,
      "stateMutability": "nonpayable",
      "type": "function"
    },
    {
      "constant": false,
      "inputs": [
        {
          "name": "to",
          "type": "address"
        },
        {
          "name": "value",
          "type": "uint256"
        }
      ],
      "name": "transfer",
      "outputs": [
        {
          "name": "",
          "type": "bool"
        }
      ],
      "payable": false,
      "stateMutability": "nonpayable",
      "type": "function"
    },
    {
      "constant": true,
      "inputs": [],
      "name": "BASE_COMMUNITY_FEE_PERCENTAGE",
      "outputs": [
        {
          "name": "",
          "type": "uint256"
        }
      ],
      "payable": false,
      "stateMutability": "view",
      "type": "function"
    },
    {
      "constant": true,
      "inputs": [
        {
          "name": "owner",
          "type": "address"
        },
        {
          "name": "spender",
          "type": "address"
        }
      ],
      "name": "allowance",
      "outputs": [
        {
          "name": "",
          "type": "uint256"
        }
      ],
      "payable": false,
      "stateMutability": "view",
      "type": "function"
    },
    {
      "constant": true,
      "inputs": [],
      "name": "BASE",
      "outputs": [
        {
          "name": "",
          "type": "uint256"
        }
      ],
      "payable": false,
      "stateMutability": "view",
      "type": "function"
    },
    {
      "inputs": [
        {
          "name": "name",
          "type": "string"
        },
        {
          "name": "symbol",
          "type": "string"
        },
        {
          "name": "minterAddress",
          "type": "address"
        },
        {
          "name": "cap",
          "type": "uint256"
        },
        {
          "name": "blob",
          "type": "string"
        },
        {
          "name": "feeCollector",
          "type": "address"
        }
      ],
      "payable": false,
      "stateMutability": "nonpayable",
      "type": "constructor"
    },
    {
      "anonymous": false,
      "inputs": [
        {
          "indexed": false,
          "name": "amount",
          "type": "uint256"
        },
        {
          "indexed": false,
          "name": "serviceId",
          "type": "uint256"
        },
        {
          "indexed": false,
          "name": "startedAt",
          "type": "uint256"
        },
        {
          "indexed": true,
          "name": "mrktFeeCollector",
          "type": "address"
        },
        {
          "indexed": false,
          "name": "marketFee",
          "type": "uint256"
        }
      ],
      "name": "OrderStarted",
      "type": "event"
    },
    {
      "anonymous": false,
      "inputs": [
        {
          "indexed": false,
          "name": "orderTxId",
          "type": "bytes32"
        },
        {
          "indexed": true,
          "name": "consumer",
          "type": "address"
        },
        {
          "indexed": false,
          "name": "amount",
          "type": "uint256"
        },
        {
          "indexed": false,
          "name": "serviceId",
          "type": "uint256"
        },
        {
          "indexed": true,
          "name": "provider",
          "type": "address"
        }
      ],
      "name": "OrderFinished",
      "type": "event"
    },
    {
      "anonymous": false,
      "inputs": [
        {
          "indexed": false,
          "name": "currentMinter",
          "type": "address"
        },
        {
          "indexed": false,
          "name": "newMinter",
          "type": "address"
        }
      ],
      "name": "MinterProposed",
      "type": "event"
    },
    {
      "anonymous": false,
      "inputs": [
        {
          "indexed": false,
          "name": "currentMinter",
          "type": "address"
        },
        {
          "indexed": false,
          "name": "newMinter",
          "type": "address"
        }
      ],
      "name": "MinterApproved",
      "type": "event"
    },
    {
      "anonymous": false,
      "inputs": [
        {
          "indexed": true,
          "name": "from",
          "type": "address"
        },
        {
          "indexed": true,
          "name": "to",
          "type": "address"
        },
        {
          "indexed": false,
          "name": "value",
          "type": "uint256"
        }
      ],
      "name": "Transfer",
      "type": "event"
    },
    {
      "anonymous": false,
      "inputs": [
        {
          "indexed": true,
          "name": "owner",
          "type": "address"
        },
        {
          "indexed": true,
          "name": "spender",
          "type": "address"
        },
        {
          "indexed": false,
          "name": "value",
          "type": "uint256"
        }
      ],
      "name": "Approval",
      "type": "event"
    },
    {
      "constant": false,
      "inputs": [
        {
          "name": "name",
          "type": "string"
        },
        {
          "name": "symbol",
          "type": "string"
        },
        {
          "name": "minterAddress",
          "type": "address"
        },
        {
          "name": "cap",
          "type": "uint256"
        },
        {
          "name": "blob",
          "type": "string"
        },
        {
          "name": "feeCollector",
          "type": "address"
        }
      ],
      "name": "initialize",
      "outputs": [
        {
          "name": "",
          "type": "bool"
        }
      ],
      "payable": false,
      "stateMutability": "nonpayable",
      "type": "function"
    },
    {
      "constant": false,
      "inputs": [
        {
          "name": "account",
          "type": "address"
        },
        {
          "name": "value",
          "type": "uint256"
        }
      ],
      "name": "mint",
      "outputs": [],
      "payable": false,
      "stateMutability": "nonpayable",
      "type": "function"
    },
    {
      "constant": false,
      "inputs": [
        {
          "name": "amount",
          "type": "uint256"
        },
        {
          "name": "serviceId",
          "type": "uint256"
        },
        {
          "name": "mrktFeeCollector",
          "type": "address"
        }
      ],
      "name": "startOrder",
      "outputs": [],
      "payable": false,
      "stateMutability": "nonpayable",
      "type": "function"
    },
    {
      "constant": false,
      "inputs": [
        {
          "name": "orderTxId",
          "type": "bytes32"
        },
        {
          "name": "consumer",
          "type": "address"
        },
        {
          "name": "amount",
          "type": "uint256"
        },
        {
          "name": "serviceId",
          "type": "uint256"
        }
      ],
      "name": "finishOrder",
      "outputs": [],
      "payable": false,
      "stateMutability": "nonpayable",
      "type": "function"
    },
    {
      "constant": false,
      "inputs": [],
      "name": "pause",
      "outputs": [],
      "payable": false,
      "stateMutability": "nonpayable",
      "type": "function"
    },
    {
      "constant": false,
      "inputs": [],
      "name": "unpause",
      "outputs": [],
      "payable": false,
      "stateMutability": "nonpayable",
      "type": "function"
    },
    {
      "constant": false,
      "inputs": [
        {
          "name": "newMinter",
          "type": "address"
        }
      ],
      "name": "proposeMinter",
      "outputs": [],
      "payable": false,
      "stateMutability": "nonpayable",
      "type": "function"
    },
    {
      "constant": false,
      "inputs": [
        {
          "name": "_message",
          "type": "bytes32"
        },
        {
          "name": "_signature",
          "type": "bytes"
        }
      ],
      "name": "approveMinter",
      "outputs": [],
      "payable": false,
      "stateMutability": "nonpayable",
      "type": "function"
    },
    {
      "constant": true,
      "inputs": [],
      "name": "name",
      "outputs": [
        {
          "name": "",
          "type": "string"
        }
      ],
      "payable": false,
      "stateMutability": "view",
      "type": "function"
    },
    {
      "constant": true,
      "inputs": [],
      "name": "symbol",
      "outputs": [
        {
          "name": "",
          "type": "string"
        }
      ],
      "payable": false,
      "stateMutability": "view",
      "type": "function"
    },
    {
      "constant": true,
      "inputs": [],
      "name": "blob",
      "outputs": [
        {
          "name": "",
          "type": "string"
        }
      ],
      "payable": false,
      "stateMutability": "view",
      "type": "function"
    },
    {
      "constant": true,
      "inputs": [],
      "name": "decimals",
      "outputs": [
        {
          "name": "",
          "type": "uint8"
        }
      ],
      "payable": false,
      "stateMutability": "view",
      "type": "function"
    },
    {
      "constant": true,
      "inputs": [],
      "name": "cap",
      "outputs": [
        {
          "name": "",
          "type": "uint256"
        }
      ],
      "payable": false,
      "stateMutability": "view",
      "type": "function"
    },
    {
      "constant": true,
      "inputs": [
        {
          "name": "account",
          "type": "address"
        }
      ],
      "name": "isMinter",
      "outputs": [
        {
          "name": "",
          "type": "bool"
        }
      ],
      "payable": false,
      "stateMutability": "view",
      "type": "function"
    },
    {
      "constant": true,
      "inputs": [],
      "name": "minter",
      "outputs": [
        {
          "name": "",
          "type": "address"
        }
      ],
      "payable": false,
      "stateMutability": "view",
      "type": "function"
    },
    {
      "constant": true,
      "inputs": [],
      "name": "isInitialized",
      "outputs": [
        {
          "name": "",
          "type": "bool"
        }
      ],
      "payable": false,
      "stateMutability": "view",
      "type": "function"
    },
    {
      "constant": true,
      "inputs": [],
      "name": "isPaused",
      "outputs": [
        {
          "name": "",
          "type": "bool"
        }
      ],
      "payable": false,
      "stateMutability": "view",
      "type": "function"
    },
    {
      "constant": true,
      "inputs": [
        {
          "name": "amount",
          "type": "uint256"
        },
        {
          "name": "feePercentage",
          "type": "uint256"
        }
      ],
      "name": "calculateFee",
      "outputs": [
        {
          "name": "",
          "type": "uint256"
        }
      ],
      "payable": false,
      "stateMutability": "pure",
      "type": "function"
    }
  ],
  "bytecode": "0x60806040526003805460ff191690556008805460a060020a60ff0219169055600a8054600160a060020a03191690553480156200003b57600080fd5b506040516200251938038062002519833981018060405260c08110156200006157600080fd5b8101908080516401000000008111156200007a57600080fd5b820160208101848111156200008e57600080fd5b8151640100000000811182820187101715620000a957600080fd5b50509291906020018051640100000000811115620000c657600080fd5b82016020810184811115620000da57600080fd5b8151640100000000811182820187101715620000f557600080fd5b505060208201516040830151606090930180519295919491926401000000008111156200012157600080fd5b820160208101848111156200013557600080fd5b81516401000000008111828201871017156200015057600080fd5b505060209091015190925090506200017686868686868664010000000062000183810204565b5050505050505062000453565b6000600160a060020a038516620001e6576040517f08c379a0000000000000000000000000000000000000000000000000000000008152600401808060200182810382526030815260200180620024566030913960400191505060405180910390fd5b600954600160a060020a0316156200024a576040517f08c379a000000000000000000000000000000000000000000000000000000000815260040180806020018281038252602f815260200180620024ea602f913960400191505060405180910390fd5b600160a060020a038216620002ab576040517f08c379a0000000000000000000000000000000000000000000000000000000008152600401808060200182810382526040815260200180620024866040913960400191505060405180910390fd5b8362000303576040517f08c379a0000000000000000000000000000000000000000000000000000000008152600401808060200182810382526024815260200180620024c66024913960400191505060405180910390fd5b600784905586516200031d9060049060208a0190620003ae565b50825162000333906006906020860190620003ae565b50855162000349906005906020890190620003ae565b505060098054600160a060020a0319908116600160a060020a039687161790915560088054740100000000000000000000000000000000000000009216929095169190911760a060020a60ff02191681179384905560ff930492909216949350505050565b828054600181600116156101000203166002900490600052602060002090601f016020900481019282601f10620003f157805160ff191683800117855562000421565b8280016001018555821562000421579182015b828111156200042157825182559160200191906001019062000404565b506200042f92915062000433565b5090565b6200045091905b808211156200042f57600081556001016200043a565b90565b611ff380620004636000396000f3fe608060405234801561001057600080fd5b50600436106101ec576000357c01000000000000000000000000000000000000000000000000000000009004806350d2fcc411610121578063a457c2d7116100bf578063b2263a5d1161008e578063b2263a5d14610322578063dd62ed3e146106d2578063ec342ad014610700578063fde0e7a814610708576101ec565b8063a457c2d71461064c578063a9059cbb14610678578063aa271e1a146106a4578063b187bd26146106ca576101ec565b80638ca0c059116100fb5780638ca0c059146104635780639070d2f81461049b57806395d89b41146105cd5780639b4214cb146105d5576101ec565b806350d2fcc41461040f57806370a08231146104355780638456cb591461045b576101ec565b8063313ce5671161018e578063392e53cd11610168578063392e53cd146103a757806339509351146103af5780633f4ba83a146103db57806340c10f19146103e3576101ec565b8063313ce5671461035e57806334e731221461037c578063355274ea1461039f576101ec565b806318160ddd116101ca57806318160ddd146102d257806323b872dd146102ec578063294541c714610322578063300ae1411461032a576101ec565b806306fdde03146101f1578063075461721461026e578063095ea7b314610292575b600080fd5b6101f9610710565b6040805160208082528351818301528351919283929083019185019080838360005b8381101561023357818101518382015260200161021b565b50505050905090810190601f1680156102605780820380516001836020036101000a031916815260200191505b509250505060405180910390f35b6102766107a7565b60408051600160a060020a039092168252519081900360200190f35b6102be600480360360408110156102a857600080fd5b50600160a060020a0381351690602001356107b6565b604080519115158252519081900360200190f35b6102da610811565b60408051918252519081900360200190f35b6102be6004803603606081101561030257600080fd5b50600160a060020a03813581169160208101359091169060400135610817565b6102da610872565b61035c6004803603606081101561034057600080fd5b5080359060208101359060400135600160a060020a031661087d565b005b610366610978565b6040805160ff9092168252519081900360200190f35b6102da6004803603604081101561039257600080fd5b508035906020013561097d565b6102da6109c1565b6102be6109c7565b6102be600480360360408110156103c557600080fd5b50600160a060020a0381351690602001356109e8565b61035c610a3a565b61035c600480360360408110156103f957600080fd5b50600160a060020a038135169060200135610ad6565b61035c6004803603602081101561042557600080fd5b5035600160a060020a0316610be6565b6102da6004803603602081101561044b57600080fd5b5035600160a060020a0316610ce4565b61035c610cff565b61035c6004803603608081101561047957600080fd5b50803590600160a060020a036020820135169060408101359060600135610d9f565b6102be600480360360c08110156104b157600080fd5b8101906020810181356401000000008111156104cc57600080fd5b8201836020820111156104de57600080fd5b8035906020019184600183028401116401000000008311171561050057600080fd5b91939092909160208101903564010000000081111561051e57600080fd5b82018360208201111561053057600080fd5b8035906020019184600183028401116401000000008311171561055257600080fd5b91939092600160a060020a0383351692602081013592919060608101906040013564010000000081111561058557600080fd5b82018360208201111561059757600080fd5b803590602001918460018302840111640100000000831117156105b957600080fd5b919350915035600160a060020a0316610e40565b6101f9610f5b565b61035c600480360360408110156105eb57600080fd5b8135919081019060408101602082013564010000000081111561060d57600080fd5b82018360208201111561061f57600080fd5b8035906020019184600183028401116401000000008311171561064157600080fd5b509092509050610fbc565b6102be6004803603604081101561066257600080fd5b50600160a060020a03813516906020013561111b565b6102be6004803603604081101561068e57600080fd5b50600160a060020a03813516906020013561116d565b6102be600480360360208110156106ba57600080fd5b5035600160a060020a03166111bf565b6102be6111d3565b6102da600480360360408110156106e857600080fd5b50600160a060020a03813581169160200135166111dc565b6102da611207565b6101f9611213565b60048054604080516020601f600260001961010060018816150201909516949094049384018190048102820181019092528281526060939092909183018282801561079c5780601f106107715761010080835404028352916020019161079c565b820191906000526020600020905b81548152906001019060200180831161077f57829003601f168201915b505050505090505b90565b600954600160a060020a031690565b60035460009060ff16156107fe5760405160e560020a62461bcd02815260040180806020018281038252602c815260200180611d04602c913960400191505060405180910390fd5b6108088383611274565b90505b92915050565b60025490565b60035460009060ff161561085f5760405160e560020a62461bcd02815260040180806020018281038252602c815260200180611d04602c913960400191505060405180910390fd5b61086a848484611291565b949350505050565b66038d7ea4c6800081565b600080610897856103e8670de0b6b3a76400005b0461097d565b6008549091506108b090600160a060020a03168261116d565b50600160a060020a038316156108e3576108d5856103e8670de0b6b3a7640000610891565b91506108e1838361116d565b505b60006108f5828463ffffffff61131e16565b60095490915061091d90600160a060020a0316610918888463ffffffff61137b16565b61116d565b5060408051878152602081018790524381830152606081018590529051600160a060020a038616917fb2fe3041f0d90d29ddc86cc4867729db0a48fe9177d192d0c6455484abacb6a8919081900360800190a2505050505050565b601290565b60008261098c5750600061080b565b816109995750600061080b565b610808670de0b6b3a76400006109b5858563ffffffff6113bd16565b9063ffffffff61141916565b60075490565b60085474010000000000000000000000000000000000000000900460ff1690565b60035460009060ff1615610a305760405160e560020a62461bcd02815260040180806020018281038252602c815260200180611d04602c913960400191505060405180910390fd5b610808838361145b565b60035460ff16610a7e5760405160e560020a62461bcd028152600401808060200182810382526030815260200180611f4f6030913960400191505060405180910390fd5b600954600160a060020a03163314610aca5760405160e560020a62461bcd028152600401808060200182810382526021815260200180611d876021913960400191505060405180910390fd5b6003805460ff19169055565b60035460ff1615610b1b5760405160e560020a62461bcd02815260040180806020018281038252602c815260200180611d04602c913960400191505060405180910390fd5b600954600160a060020a03163314610b675760405160e560020a62461bcd028152600401808060200182810382526021815260200180611d876021913960400191505060405180910390fd5b600754610b8282610b76610811565b9063ffffffff61131e16565b1115610bd8576040805160e560020a62461bcd02815260206004820152601f60248201527f44617461546f6b656e54656d706c6174653a2063617020657863656564656400604482015290519081900360640190fd5b610be282826114af565b5050565b60035460ff1615610c2b5760405160e560020a62461bcd02815260040180806020018281038252602c815260200180611d04602c913960400191505060405180910390fd5b600954600160a060020a03163314610c775760405160e560020a62461bcd028152600401808060200182810382526021815260200180611d876021913960400191505060405180910390fd5b600a805473ffffffffffffffffffffffffffffffffffffffff1916600160a060020a0383811691909117918290556040805133815292909116602083015280517fa24c529cc8b2d85b7dfb2ed0b4d7e9a816546212138b5d223bee13481e21be6b9281900390910190a150565b600160a060020a031660009081526020819052604090205490565b60035460ff1615610d445760405160e560020a62461bcd02815260040180806020018281038252602c815260200180611d04602c913960400191505060405180910390fd5b600954600160a060020a03163314610d905760405160e560020a62461bcd028152600401808060200182810382526021815260200180611d876021913960400191505060405180910390fd5b6003805460ff19166001179055565b8115610ded57610daf838361116d565b610ded5760405160e560020a62461bcd028152600401808060200182810382526029815260200180611dce6029913960400191505060405180910390fd5b604080518581526020810184905280820183905290513391600160a060020a038616917fce42555d11c2cca6143e7903829e154e074119544f907b3106e7368358825f199181900360600190a350505050565b60085460009074010000000000000000000000000000000000000000900460ff1615610ea05760405160e560020a62461bcd028152600401808060200182810382526035815260200180611d526035913960400191505060405180910390fd5b610f4d8a8a8080601f01602080910402602001604051908101604052809392919081815260200183838082843760009201919091525050604080516020601f8e018190048102820181019092528c815292508c91508b908190840183828082843760009201919091525050604080516020601f8b018190048102820181019092528981528c93508b9250908a908a90819084018382808284376000920191909152508a92506115a2915050565b9a9950505050505050505050565b60058054604080516020601f600260001961010060018816150201909516949094049384018190048102820181019092528281526060939092909183018282801561079c5780601f106107715761010080835404028352916020019161079c565b60035460ff16156110015760405160e560020a62461bcd02815260040180806020018281038252602c815260200180611d04602c913960400191505060405180910390fd5b600a54604080516020601f8501819004810282018101909252838152600160a060020a039092169161105091869190869086908190840183828082843760009201919091525061177e92505050565b600160a060020a0316146110985760405160e560020a62461bcd028152600401808060200182810382526027815260200180611df76027913960400191505060405180910390fd5b600954600a5460408051600160a060020a03938416815292909116602083015280517f96ab0400119a548d3cc4c74e857d0d9c427fe9df20d3d0d99af10cc292e6c8869281900390910190a15050600a80546009805473ffffffffffffffffffffffffffffffffffffffff19908116600160a060020a0384161790915516905550565b60035460009060ff16156111635760405160e560020a62461bcd02815260040180806020018281038252602c815260200180611d04602c913960400191505060405180910390fd5b610808838361186c565b60035460009060ff16156111b55760405160e560020a62461bcd02815260040180806020018281038252602c815260200180611d04602c913960400191505060405180910390fd5b61080883836118da565b600954600160a060020a0391821691161490565b60035460ff1690565b600160a060020a03918216600090815260016020908152604080832093909416825291909152205490565b670de0b6b3a764000081565b60068054604080516020601f600260001961010060018816150201909516949094049384018190048102820181019092528281526060939092909183018282801561079c5780601f106107715761010080835404028352916020019161079c565b60006112886112816118ee565b84846118f2565b50600192915050565b600061129e8484846119e4565b611314846112aa6118ee565b61130f85604051806060016040528060288152602001611ed360289139600160a060020a038a166000908152600160205260408120906112e86118ee565b600160a060020a03168152602081019190915260400160002054919063ffffffff611b4616565b6118f2565b5060019392505050565b600082820183811015610808576040805160e560020a62461bcd02815260206004820152601b60248201527f536166654d6174683a206164646974696f6e206f766572666c6f770000000000604482015290519081900360640190fd5b600061080883836040518060400160405280601e81526020017f536166654d6174683a207375627472616374696f6e206f766572666c6f770000815250611b46565b6000826113cc5750600061080b565b828202828482816113d957fe5b04146108085760405160e560020a62461bcd028152600401808060200182810382526021815260200180611e8e6021913960400191505060405180910390fd5b600061080883836040518060400160405280601a81526020017f536166654d6174683a206469766973696f6e206279207a65726f000000000000815250611be0565b60006112886114686118ee565b8461130f85600160006114796118ee565b600160a060020a03908116825260208083019390935260409182016000908120918c16815292529020549063ffffffff61131e16565b600160a060020a03821661150d576040805160e560020a62461bcd02815260206004820152601f60248201527f45524332303a206d696e7420746f20746865207a65726f206164647265737300604482015290519081900360640190fd5b600254611520908263ffffffff61131e16565b600255600160a060020a03821660009081526020819052604090205461154c908263ffffffff61131e16565b600160a060020a0383166000818152602081815260408083209490945583518581529351929391927fddf252ad1be2c89b69c2b068fc378daa952ba7f163c4a11628f55a4df523b3ef9281900390910190a35050565b6000600160a060020a0385166115ec5760405160e560020a62461bcd028152600401808060200182810382526030815260200180611e1e6030913960400191505060405180910390fd5b600954600160a060020a0316156116375760405160e560020a62461bcd02815260040180806020018281038252602f815260200180611efb602f913960400191505060405180910390fd5b600160a060020a03821661167f5760405160e560020a62461bcd028152600401808060200182810382526040815260200180611e4e6040913960400191505060405180910390fd5b836116be5760405160e560020a62461bcd028152600401808060200182810382526024815260200180611eaf6024913960400191505060405180910390fd5b600784905586516116d69060049060208a0190611c48565b5082516116ea906006906020860190611c48565b5085516116fe906005906020890190611c48565b50506009805473ffffffffffffffffffffffffffffffffffffffff19908116600160a060020a039687161790915560088054740100000000000000000000000000000000000000009216929095169190911774ff0000000000000000000000000000000000000000191681179384905560ff930492909216949350505050565b600081516041146117915750600061080b565b60208201516040830151606084015160001a7f7fffffffffffffffffffffffffffffff5d576e7357a4501ddfe92f46681b20a08211156117d7576000935050505061080b565b8060ff16601b141580156117ef57508060ff16601c14155b15611800576000935050505061080b565b6040805160008152602080820180845289905260ff8416828401526060820186905260808201859052915160019260a0808401939192601f1981019281900390910190855afa158015611857573d6000803e3d6000fd5b5050604051601f190151979650505050505050565b60006112886118796118ee565b8461130f85604051806060016040528060258152602001611fa360259139600160006118a36118ee565b600160a060020a03908116825260208083019390935260409182016000908120918d1681529252902054919063ffffffff611b4616565b60006112886118e76118ee565b84846119e4565b3390565b600160a060020a03831661193a5760405160e560020a62461bcd028152600401808060200182810382526024815260200180611f7f6024913960400191505060405180910390fd5b600160a060020a0382166119825760405160e560020a62461bcd028152600401808060200182810382526022815260200180611d306022913960400191505060405180910390fd5b600160a060020a03808416600081815260016020908152604080832094871680845294825291829020859055815185815291517f8c5be1e5ebec7d5bd14f71427d1e84f3dd0314c0f7b2291e5b200ac8c7c3b9259281900390910190a3505050565b600160a060020a038316611a2c5760405160e560020a62461bcd028152600401808060200182810382526025815260200180611f2a6025913960400191505060405180910390fd5b600160a060020a038216611a745760405160e560020a62461bcd028152600401808060200182810382526023815260200180611ce16023913960400191505060405180910390fd5b611ab781604051806060016040528060268152602001611da860269139600160a060020a038616600090815260208190526040902054919063ffffffff611b4616565b600160a060020a038085166000908152602081905260408082209390935590841681522054611aec908263ffffffff61131e16565b600160a060020a038084166000818152602081815260409182902094909455805185815290519193928716927fddf252ad1be2c89b69c2b068fc378daa952ba7f163c4a11628f55a4df523b3ef92918290030190a3505050565b60008184841115611bd85760405160e560020a62461bcd0281526004018080602001828103825283818151815260200191508051906020019080838360005b83811015611b9d578181015183820152602001611b85565b50505050905090810190601f168015611bca5780820380516001836020036101000a031916815260200191505b509250505060405180910390fd5b505050900390565b60008183611c325760405160e560020a62461bcd028152602060048201818152835160248401528351909283926044909101919085019080838360008315611b9d578181015183820152602001611b85565b506000838581611c3e57fe5b0495945050505050565b828054600181600116156101000203166002900490600052602060002090601f016020900481019282601f10611c8957805160ff1916838001178555611cb6565b82800160010185558215611cb6579182015b82811115611cb6578251825591602001919060010190611c9b565b50611cc2929150611cc6565b5090565b6107a491905b80821115611cc25760008155600101611ccc56fe45524332303a207472616e7366657220746f20746865207a65726f206164647265737345524332305061757361626c653a207468697320746f6b656e20636f6e74726163742069732070617573656445524332303a20617070726f766520746f20746865207a65726f206164647265737344617461546f6b656e54656d706c6174653a20746f6b656e20696e7374616e636520616c726561647920696e697469616c697a656444617461546f6b656e54656d706c6174653a20696e76616c6964206d696e74657245524332303a207472616e7366657220616d6f756e7420657863656564732062616c616e636544617461546f6b656e54656d706c6174653a206661696c656420746f2066696e697368206f7264657244617461546f6b656e3a20496e76616c6964206e6577206d696e746572207369676e617475726544617461546f6b656e54656d706c6174653a20496e76616c6964206d696e7465722c20207a65726f206164647265737344617461546f6b656e54656d706c6174653a20496e76616c696420636f6d6d756e6974792066656520636f6c6c6563746f722c207a65726f2061646472657373536166654d6174683a206d756c7469706c69636174696f6e206f766572666c6f7744617461546f6b656e54656d706c6174653a20496e76616c6964206361702076616c756545524332303a207472616e7366657220616d6f756e74206578636565647320616c6c6f77616e636544617461546f6b656e54656d706c6174653a20496e76616c6964206d696e7465722c207a65726f206164647265737345524332303a207472616e736665722066726f6d20746865207a65726f206164647265737345524332305061757361626c653a207468697320746f6b656e20636f6e7472616374206973206e6f742070617573656445524332303a20617070726f76652066726f6d20746865207a65726f206164647265737345524332303a2064656372656173656420616c6c6f77616e63652062656c6f77207a65726fa165627a7a72305820276c783a63ecc85b229a90464225adaa2e0df9bfe758428bf537f0251127e901002944617461546f6b656e54656d706c6174653a20496e76616c6964206d696e7465722c20207a65726f206164647265737344617461546f6b656e54656d706c6174653a20496e76616c696420636f6d6d756e6974792066656520636f6c6c6563746f722c207a65726f206164647265737344617461546f6b656e54656d706c6174653a20496e76616c6964206361702076616c756544617461546f6b656e54656d706c6174653a20496e76616c6964206d696e7465722c207a65726f2061646472657373",
  "source": "pragma solidity 0.5.7;\n// Copyright BigchainDB GmbH and Ocean Protocol contributors\n// SPDX-License-Identifier: (Apache-2.0 AND CC-BY-4.0)\n// Code is Apache-2.0 and docs are CC-BY-4.0\n\nimport './token/ERC20Pausable.sol';\nimport '../interfaces/IERC20Template.sol';\nimport 'openzeppelin-solidity/contracts/cryptography/ECDSA.sol';\n\n/**\n* @title DataTokenTemplate\n*  \n* @dev DataTokenTemplate is an ERC20 compliant token template\n*      Used by the factory contract as a bytecode reference to \n*      deploy new DataTokens.\n*/\ncontract DataTokenTemplate is IERC20Template, ERC20Pausable {\n    using SafeMath for uint256;\n\n    string  private _name;\n    string  private _symbol;\n    string  private _blob;\n    uint256 private _cap;\n    uint8 private constant _decimals = 18;\n    address private _communityFeeCollector;\n    bool    private initialized = false;\n    address private _minter;\n    address private _proposedMinter = address(0);\n    uint256 public constant BASE = 10**18;\n    uint256 public constant BASE_COMMUNITY_FEE_PERCENTAGE = BASE / 1000;\n    uint256 public constant BASE_MARKET_FEE_PERCENTAGE = BASE / 1000;\n\n    event OrderStarted(\n            uint256 amount, \n            uint256 serviceId, \n            uint256 startedAt,\n            address indexed mrktFeeCollector,\n            uint256 marketFee\n    );\n\n    event OrderFinished(\n            bytes32 orderTxId, \n            address indexed consumer, \n            uint256 amount, \n            uint256 serviceId, \n            address indexed provider\n    );\n\n    event MinterProposed(\n        address currentMinter,\n        address newMinter\n    );\n\n    event MinterApproved(\n        address currentMinter,\n        address newMinter\n    );\n\n    modifier onlyNotInitialized() {\n        require(\n            !initialized,\n            'DataTokenTemplate: token instance already initialized'\n        );\n        _;\n    }\n    \n    modifier onlyMinter() {\n        require(\n            msg.sender == _minter,\n            'DataTokenTemplate: invalid minter' \n        );\n        _;\n    }\n\n    /**\n     * @dev constructor\n     *      Called prior contract deployment\n     * @param name refers to a template DataToken name\n     * @param symbol refers to a template DataToken symbol\n     * @param minterAddress refers to an address that has minter role\n     * @param cap the total ERC20 cap\n     * @param blob data string refering to the resolver for the metadata\n     * @param feeCollector it is the community fee collector address\n     */\n    constructor(\n        string memory name,\n        string memory symbol,\n        address minterAddress,\n        uint256 cap,\n        string memory blob,\n        address feeCollector\n    )\n        public\n    {\n        _initialize(\n            name,\n            symbol,\n            minterAddress,\n            cap,\n            blob,\n            feeCollector\n        );\n    }\n    \n    /**\n     * @dev initialize\n     *      Called prior contract initialization (e.g creating new DataToken instance)\n     *      Calls private _initialize function. Only if contract is not initialized.\n     * @param name refers to a new DataToken name\n     * @param symbol refers to a nea DataToken symbol\n     * @param minterAddress refers to an address that has minter rights\n     * @param cap the total ERC20 cap\n     * @param blob data string refering to the resolver for the metadata\n     * @param feeCollector it is the community fee collector address\n     */\n    function initialize(\n        string calldata name,\n        string calldata symbol,\n        address minterAddress,\n        uint256 cap,\n        string calldata blob,\n        address feeCollector\n    ) \n        external\n        onlyNotInitialized\n        returns(bool)\n    {\n        return _initialize(\n            name,\n            symbol,\n            minterAddress,\n            cap,\n            blob,\n            feeCollector\n        );\n    }\n\n    /**\n     * @dev _initialize\n     *      Private function called on contract initialization.\n     * @param name refers to a new DataToken name\n     * @param symbol refers to a nea DataToken symbol\n     * @param minterAddress refers to an address that has minter rights\n     * @param cap the total ERC20 cap\n     * @param blob data string refering to the resolver for the metadata\n     * @param feeCollector it is the community fee collector address\n     */\n    function _initialize(\n        string memory name,\n        string memory symbol,\n        address minterAddress,\n        uint256 cap,\n        string memory blob,\n        address feeCollector\n    )\n        private\n        returns(bool)\n    {\n        require(\n            minterAddress != address(0), \n            'DataTokenTemplate: Invalid minter,  zero address'\n        );\n\n        require(\n            _minter == address(0), \n            'DataTokenTemplate: Invalid minter, zero address'\n        );\n\n        require(\n            feeCollector != address(0),\n            'DataTokenTemplate: Invalid community fee collector, zero address'\n        );\n\n        require(\n            cap != 0,\n            'DataTokenTemplate: Invalid cap value'\n        );\n        _cap = cap;\n        _name = name;\n        _blob = blob;\n        _symbol = symbol;\n        _minter = minterAddress;\n        _communityFeeCollector = feeCollector;\n        initialized = true;\n        return initialized;\n    }\n\n    /**\n     * @dev mint\n     *      Only the minter address can call it.\n     *      msg.value should be higher than zero and gt or eq minting fee\n     * @param account refers to an address that token is going to be minted to.\n     * @param value refers to amount of tokens that is going to be minted.\n     */\n    function mint(\n        address account,\n        uint256 value\n    ) \n        external \n        onlyNotPaused \n        onlyMinter \n    {\n        require(\n            totalSupply().add(value) <= _cap, \n            'DataTokenTemplate: cap exceeded'\n        );\n        _mint(account, value);\n    }\n\n    /**\n     * @dev startOrder\n     *      called by consumer prior ordering a service consume on a marketplace\n     * @param amount refers to amount of tokens that is going to be transfered.\n     * @param serviceId service index in the metadata\n     * @param mrktFeeCollector marketplace fee collector\n     */\n    function startOrder(\n        uint256 amount,\n        uint256 serviceId,\n        address mrktFeeCollector\n    )\n        external\n    {\n        uint256 marketFee = 0;\n        uint256 communityFee = calculateFee(\n            amount, \n            BASE_COMMUNITY_FEE_PERCENTAGE\n        );\n        transfer(_communityFeeCollector, communityFee);\n        if(mrktFeeCollector != address(0)){\n            marketFee = calculateFee(\n                amount, \n                BASE_MARKET_FEE_PERCENTAGE\n            );\n            transfer(mrktFeeCollector, marketFee);\n        }\n        uint256 totalFee = communityFee.add(marketFee);\n        transfer(_minter, amount.sub(totalFee));\n\n        emit OrderStarted(\n            amount,\n            serviceId,\n            block.number,\n            mrktFeeCollector,\n            marketFee\n        );\n    }\n\n    /**\n     * @dev finishOrder\n     *      called by provider prior completing service delivery only\n     *      if there is a partial or full refund.\n     * @param orderTxId refers to the transaction Id  of startOrder acts \n     *                  as a payment reference.\n     * @param consumer refers to an address that has consumed that service.\n     * @param amount refers to amount of tokens that is going to be transfered.\n     * @param serviceId service index in the metadata.\n     */\n    function finishOrder(\n        bytes32 orderTxId, \n        address consumer, \n        uint256 amount,\n        uint256 serviceId\n    )\n        external\n    {\n        if ( amount != 0 )  \n            require(\n                transfer(consumer, amount),\n                'DataTokenTemplate: failed to finish order'\n            );\n\n        emit OrderFinished(\n            orderTxId, \n            consumer, \n            amount, \n            serviceId, \n            msg.sender\n        );\n    }\n\n    /**\n     * @dev pause\n     *      It pauses the contract functionalities (transfer, mint, etc)\n     *      Only could be called if the contract is not already paused.\n     *      Only called by the minter address.\n     */\n    function pause() external onlyNotPaused onlyMinter {\n        paused = true;\n    }\n\n    /**\n     * @dev unpause\n     *      It unpauses the contract.\n     *      Only called if the contract is paused.\n     *      Only minter can call it.\n     */\n    function unpause() external onlyPaused onlyMinter {\n        paused = false;\n    }\n\n    /**\n     * @dev setMinter\n     *      It sets a new token minter address.\n     *      Only called be called if the contract is not paused.\n     *      Only the current minter can call it.\n     * @param newMinter refers to a new token minter address.\n     */\n    function proposeMinter(address newMinter) \n        external \n        onlyNotPaused \n        onlyMinter \n    {\n        _proposedMinter = newMinter;\n        emit MinterProposed(\n            msg.sender,\n            _proposedMinter\n        );\n    }\n\n    function approveMinter(\n        bytes32 _message,\n        bytes calldata _signature\n    )\n        external\n        onlyNotPaused\n    {\n        require(\n            ECDSA.recover(_message, _signature) == _proposedMinter,\n            'DataToken: Invalid new minter signature'\n        );\n        emit MinterApproved(\n            _minter,\n            _proposedMinter\n        );\n        _minter = _proposedMinter;\n        _proposedMinter = address(0);   \n    }\n\n    /**\n     * @dev name\n     *      It returns the token name.\n     * @return DataToken name.\n     */\n    function name() external view returns(string memory) {\n        return _name;\n    }\n\n    /**\n     * @dev symbol\n     *      It returns the token symbol.\n     * @return DataToken symbol.\n     */\n    function symbol() external view returns(string memory) {\n        return _symbol;\n    }\n\n    /**\n     * @dev blob\n     *      It returns the blob (e.g https://123.com).\n     * @return DataToken blob.\n     */\n    function blob() external view returns(string memory) {\n        return _blob;\n    }\n\n    /**\n     * @dev decimals\n     *      It returns the token decimals.\n     *      how many supported decimal points\n     * @return DataToken decimals.\n     */\n    function decimals() external view returns(uint8) {\n        return _decimals;\n    }\n\n    /**\n     * @dev cap\n     *      it returns the capital.\n     * @return DataToken cap.\n     */\n    function cap() external view returns (uint256) {\n        return _cap;\n    }\n\n    /**\n     * @dev isMinter\n     *      It takes the address and checks whether it has a minter role.\n     * @param account refers to the address.\n     * @return true if account has a minter role.\n     */\n    function isMinter(address account) external view returns(bool) {\n        return (_minter == account);\n    } \n\n    /**\n     * @dev minter\n     * @return minter's address.\n     */\n    function minter()\n        external\n        view \n        returns(address)\n    {\n        return _minter;\n    }\n\n    /**\n     * @dev isInitialized\n     *      It checks whether the contract is initialized.\n     * @return true if the contract is initialized.\n     */ \n    function isInitialized() external view returns(bool) {\n        return initialized;\n    }\n\n    /**\n     * @dev isPaused\n     *      Function checks if the contract is paused.\n     * @return true if the contract is paused.\n     */ \n    function isPaused() external view returns(bool) {\n        return paused;\n    }\n\n    /**\n     * @dev calculateFee\n     *      giving a fee percentage, and amount it calculates the actual fee\n     * @param amount the amount of token\n     * @param feePercentage the fee percentage \n     * @return the token fee.\n     */ \n    function calculateFee(\n        uint256 amount,\n        uint256 feePercentage\n    )\n        public\n        pure\n        returns(uint256)\n    {\n        if(amount == 0) return 0;\n        if(feePercentage == 0) return 0;\n        return amount.mul(feePercentage).div(BASE);\n    }\n}",
  "sourcePath": "/Users/ahmedali/Desktop/work/ocean-contracts/contracts/templates/DataTokenTemplate.sol",
  "compiler": {
    "name": "solc",
    "version": "0.5.7+commit.6da8b019.Emscripten.clang"
  },
  "schemaVersion": "3.2.4",
  "updatedAt": "2020-09-25T11:46:41.074Z",
  "devdoc": {
    "details": "DataTokenTemplate is an ERC20 compliant token template     Used by the factory contract as a bytecode reference to      deploy new DataTokens.",
    "methods": {
      "allowance(address,address)": {
        "details": "See {IERC20-allowance}."
      },
      "approve(address,uint256)": {
        "details": "approve     Standard ERC20 approve function with onlyNotPaused modifier.     Can be called only if the contract is not paused.",
        "params": {
          "spender": "refers to an address that is allowed to spend tokens.",
          "value": "refers to amount of tokens that could be spent."
        },
        "return": "true if approval is success, false otherwise."
      },
      "balanceOf(address)": {
        "details": "See {IERC20-balanceOf}."
      },
      "blob()": {
        "details": "blob     It returns the blob (e.g https://123.com).",
        "return": "DataToken blob."
      },
      "calculateFee(uint256,uint256)": {
        "details": "calculateFee     giving a fee percentage, and amount it calculates the actual fee",
        "params": {
          "amount": "the amount of token",
          "feePercentage": "the fee percentage "
        },
        "return": "the token fee."
      },
      "cap()": {
        "details": "cap     it returns the capital.",
        "return": "DataToken cap."
      },
      "constructor": {
        "details": "constructor     Called prior contract deployment",
        "params": {
          "blob": "data string refering to the resolver for the metadata",
          "cap": "the total ERC20 cap",
          "feeCollector": "it is the community fee collector address",
          "minterAddress": "refers to an address that has minter role",
          "name": "refers to a template DataToken name",
          "symbol": "refers to a template DataToken symbol"
        }
      },
      "decimals()": {
        "details": "decimals     It returns the token decimals.     how many supported decimal points",
        "return": "DataToken decimals."
      },
      "decreaseAllowance(address,uint256)": {
        "details": "decreaseAllowance     Standard ERC20 decreaseAllowance function with onlyNotPaused modifier.     Can be called only if the contract is not paused.",
        "params": {
          "spender": "refers to an address that is allowed to spend tokens.",
          "subtractedValue": "refers to an subtracted amount of tokens that could be spent."
        },
        "return": "true if allowance is decreased successfully, false otherwise."
      },
      "finishOrder(bytes32,address,uint256,uint256)": {
        "details": "finishOrder     called by provider prior completing service delivery only     if there is a partial or full refund.",
        "params": {
          "amount": "refers to amount of tokens that is going to be transfered.",
          "consumer": "refers to an address that has consumed that service.",
          "orderTxId": "refers to the transaction Id  of startOrder acts                  as a payment reference.",
          "serviceId": "service index in the metadata."
        }
      },
      "increaseAllowance(address,uint256)": {
        "details": "increaseAllowance     Standard ERC20 increaseAllowance function with onlyNotPaused modifier.     Can be called only if the contract is not paused.",
        "params": {
          "addedValue": "refers to an added amount of tokens that could be spent.",
          "spender": "refers to an address that is allowed to spend tokens."
        },
        "return": "true if allowance is increased successfully, false otherwise."
      },
      "initialize(string,string,address,uint256,string,address)": {
        "details": "initialize     Called prior contract initialization (e.g creating new DataToken instance)     Calls private _initialize function. Only if contract is not initialized.",
        "params": {
          "blob": "data string refering to the resolver for the metadata",
          "cap": "the total ERC20 cap",
          "feeCollector": "it is the community fee collector address",
          "minterAddress": "refers to an address that has minter rights",
          "name": "refers to a new DataToken name",
          "symbol": "refers to a nea DataToken symbol"
        }
      },
      "isInitialized()": {
        "details": "isInitialized     It checks whether the contract is initialized.",
        "return": "true if the contract is initialized."
      },
      "isMinter(address)": {
        "details": "isMinter     It takes the address and checks whether it has a minter role.",
        "params": {
          "account": "refers to the address."
        },
        "return": "true if account has a minter role."
      },
      "isPaused()": {
        "details": "isPaused     Function checks if the contract is paused.",
        "return": "true if the contract is paused."
      },
      "mint(address,uint256)": {
        "details": "mint     Only the minter address can call it.     msg.value should be higher than zero and gt or eq minting fee",
        "params": {
          "account": "refers to an address that token is going to be minted to.",
          "value": "refers to amount of tokens that is going to be minted."
        }
      },
      "minter()": {
        "details": "minter",
        "return": "minter's address."
      },
      "name()": {
        "details": "name     It returns the token name.",
        "return": "DataToken name."
      },
      "pause()": {
        "details": "pause     It pauses the contract functionalities (transfer, mint, etc)     Only could be called if the contract is not already paused.     Only called by the minter address."
      },
      "proposeMinter(address)": {
        "details": "setMinter     It sets a new token minter address.     Only called be called if the contract is not paused.     Only the current minter can call it.",
        "params": {
          "newMinter": "refers to a new token minter address."
        }
      },
      "startOrder(uint256,uint256,address)": {
        "details": "startOrder     called by consumer prior ordering a service consume on a marketplace",
        "params": {
          "amount": "refers to amount of tokens that is going to be transfered.",
          "mrktFeeCollector": "marketplace fee collector",
          "serviceId": "service index in the metadata"
        }
      },
      "symbol()": {
        "details": "symbol     It returns the token symbol.",
        "return": "DataToken symbol."
      },
      "totalSupply()": {
        "details": "See {IERC20-totalSupply}."
      },
      "transfer(address,uint256)": {
        "details": "transfer     Standard ERC20 transfer function with onlyNotPaused modifier.     Can be called only if the contract is not paused.",
        "params": {
          "to": "refers to an address that tokens are tranfered to.",
          "value": "refers to amount of tokens being tranfered."
        },
        "return": "true if transfer is success, false otherwise."
      },
      "transferFrom(address,address,uint256)": {
        "details": "transfer     Standard ERC20 transferFrom function with onlyNotPaused modifier.     Can be called only if the contract is not paused.",
        "params": {
          "from": "refers to an address that tokens are tranfered from.",
          "to": "refers to an address that tokens are tranfered to.",
          "value": "refers to amount of tokens being tranfered."
        },
        "return": "true if transfer is success, false otherwise."
      },
      "unpause()": {
        "details": "unpause     It unpauses the contract.     Only called if the contract is paused.     Only minter can call it."
      }
    },
    "title": "DataTokenTemplate "
  },
  "userdoc": {
    "methods": {}
  }
}