{
  "contractName": "DataTokenTemplate",
  "abi": [
    {
      "constant": false,
      "inputs": [
        {
          "name": "spender",
          "type": "address"
        },
        {
          "name": "amount",
          "type": "uint256"
        }
      ],
      "name": "approve",
      "outputs": [
        {
          "name": "",
          "type": "bool"
        }
      ],
      "payable": false,
      "stateMutability": "nonpayable",
      "type": "function"
    },
    {
      "constant": true,
      "inputs": [],
      "name": "totalSupply",
      "outputs": [
        {
          "name": "",
          "type": "uint256"
        }
      ],
      "payable": false,
      "stateMutability": "view",
      "type": "function"
    },
    {
      "constant": false,
      "inputs": [
        {
          "name": "sender",
          "type": "address"
        },
        {
          "name": "recipient",
          "type": "address"
        },
        {
          "name": "amount",
          "type": "uint256"
        }
      ],
      "name": "transferFrom",
      "outputs": [
        {
          "name": "",
          "type": "bool"
        }
      ],
      "payable": false,
      "stateMutability": "nonpayable",
      "type": "function"
    },
    {
      "constant": true,
      "inputs": [],
      "name": "BASE_MARKET_FEE_PERCENTAGE",
      "outputs": [
        {
          "name": "",
          "type": "uint256"
        }
      ],
      "payable": false,
      "stateMutability": "view",
      "type": "function"
    },
    {
      "constant": false,
      "inputs": [
        {
          "name": "spender",
          "type": "address"
        },
        {
          "name": "addedValue",
          "type": "uint256"
        }
      ],
      "name": "increaseAllowance",
      "outputs": [
        {
          "name": "",
          "type": "bool"
        }
      ],
      "payable": false,
      "stateMutability": "nonpayable",
      "type": "function"
    },
    {
      "constant": true,
      "inputs": [
        {
          "name": "account",
          "type": "address"
        }
      ],
      "name": "balanceOf",
      "outputs": [
        {
          "name": "",
          "type": "uint256"
        }
      ],
      "payable": false,
      "stateMutability": "view",
      "type": "function"
    },
    {
      "constant": false,
      "inputs": [
        {
          "name": "spender",
          "type": "address"
        },
        {
          "name": "subtractedValue",
          "type": "uint256"
        }
      ],
      "name": "decreaseAllowance",
      "outputs": [
        {
          "name": "",
          "type": "bool"
        }
      ],
      "payable": false,
      "stateMutability": "nonpayable",
      "type": "function"
    },
    {
      "constant": false,
      "inputs": [
        {
          "name": "recipient",
          "type": "address"
        },
        {
          "name": "amount",
          "type": "uint256"
        }
      ],
      "name": "transfer",
      "outputs": [
        {
          "name": "",
          "type": "bool"
        }
      ],
      "payable": false,
      "stateMutability": "nonpayable",
      "type": "function"
    },
    {
      "constant": true,
      "inputs": [],
      "name": "BASE_COMMUNITY_FEE_PERCENTAGE",
      "outputs": [
        {
          "name": "",
          "type": "uint256"
        }
      ],
      "payable": false,
      "stateMutability": "view",
      "type": "function"
    },
    {
      "constant": true,
      "inputs": [
        {
          "name": "owner",
          "type": "address"
        },
        {
          "name": "spender",
          "type": "address"
        }
      ],
      "name": "allowance",
      "outputs": [
        {
          "name": "",
          "type": "uint256"
        }
      ],
      "payable": false,
      "stateMutability": "view",
      "type": "function"
    },
    {
      "constant": true,
      "inputs": [],
      "name": "BASE",
      "outputs": [
        {
          "name": "",
          "type": "uint256"
        }
      ],
      "payable": false,
      "stateMutability": "view",
      "type": "function"
    },
    {
      "inputs": [
        {
          "name": "name",
          "type": "string"
        },
        {
          "name": "symbol",
          "type": "string"
        },
        {
          "name": "minterAddress",
          "type": "address"
        },
        {
          "name": "cap",
          "type": "uint256"
        },
        {
          "name": "blob",
          "type": "string"
        },
        {
          "name": "feeCollector",
          "type": "address"
        }
      ],
      "payable": false,
      "stateMutability": "nonpayable",
      "type": "constructor"
    },
    {
      "anonymous": false,
      "inputs": [
        {
          "indexed": false,
          "name": "amount",
          "type": "uint256"
        },
        {
          "indexed": false,
          "name": "serviceId",
          "type": "uint256"
        },
        {
          "indexed": false,
          "name": "startedAt",
          "type": "uint256"
        },
        {
          "indexed": true,
          "name": "mrktFeeCollector",
          "type": "address"
        },
        {
          "indexed": false,
          "name": "marketFee",
          "type": "uint256"
        }
      ],
      "name": "OrderStarted",
      "type": "event"
    },
    {
      "anonymous": false,
      "inputs": [
        {
          "indexed": false,
          "name": "orderTxId",
          "type": "bytes32"
        },
        {
          "indexed": true,
          "name": "consumer",
          "type": "address"
        },
        {
          "indexed": false,
          "name": "amount",
          "type": "uint256"
        },
        {
          "indexed": false,
          "name": "serviceId",
          "type": "uint256"
        },
        {
          "indexed": true,
          "name": "provider",
          "type": "address"
        }
      ],
      "name": "OrderFinished",
      "type": "event"
    },
    {
      "anonymous": false,
      "inputs": [
        {
          "indexed": false,
          "name": "currentMinter",
          "type": "address"
        },
        {
          "indexed": false,
          "name": "newMinter",
          "type": "address"
        }
      ],
      "name": "MinterProposed",
      "type": "event"
    },
    {
      "anonymous": false,
      "inputs": [
        {
          "indexed": false,
          "name": "currentMinter",
          "type": "address"
        },
        {
          "indexed": false,
          "name": "newMinter",
          "type": "address"
        }
      ],
      "name": "MinterApproved",
      "type": "event"
    },
    {
      "anonymous": false,
      "inputs": [
        {
          "indexed": true,
          "name": "from",
          "type": "address"
        },
        {
          "indexed": true,
          "name": "to",
          "type": "address"
        },
        {
          "indexed": false,
          "name": "value",
          "type": "uint256"
        }
      ],
      "name": "Transfer",
      "type": "event"
    },
    {
      "anonymous": false,
      "inputs": [
        {
          "indexed": true,
          "name": "owner",
          "type": "address"
        },
        {
          "indexed": true,
          "name": "spender",
          "type": "address"
        },
        {
          "indexed": false,
          "name": "value",
          "type": "uint256"
        }
      ],
      "name": "Approval",
      "type": "event"
    },
    {
      "constant": false,
      "inputs": [
        {
          "name": "name",
          "type": "string"
        },
        {
          "name": "symbol",
          "type": "string"
        },
        {
          "name": "minterAddress",
          "type": "address"
        },
        {
          "name": "cap",
          "type": "uint256"
        },
        {
          "name": "blob",
          "type": "string"
        },
        {
          "name": "feeCollector",
          "type": "address"
        }
      ],
      "name": "initialize",
      "outputs": [
        {
          "name": "",
          "type": "bool"
        }
      ],
      "payable": false,
      "stateMutability": "nonpayable",
      "type": "function"
    },
    {
      "constant": false,
      "inputs": [
        {
          "name": "account",
          "type": "address"
        },
        {
          "name": "value",
          "type": "uint256"
        }
      ],
      "name": "mint",
      "outputs": [],
      "payable": false,
      "stateMutability": "nonpayable",
      "type": "function"
    },
    {
      "constant": false,
      "inputs": [
        {
          "name": "amount",
          "type": "uint256"
        },
        {
          "name": "serviceId",
          "type": "uint256"
        },
        {
          "name": "mrktFeeCollector",
          "type": "address"
        }
      ],
      "name": "startOrder",
      "outputs": [],
      "payable": false,
      "stateMutability": "nonpayable",
      "type": "function"
    },
    {
      "constant": false,
      "inputs": [
        {
          "name": "orderTxId",
          "type": "bytes32"
        },
        {
          "name": "consumer",
          "type": "address"
        },
        {
          "name": "amount",
          "type": "uint256"
        },
        {
          "name": "serviceId",
          "type": "uint256"
        }
      ],
      "name": "finishOrder",
      "outputs": [],
      "payable": false,
      "stateMutability": "nonpayable",
      "type": "function"
    },
    {
      "constant": false,
      "inputs": [
        {
          "name": "newMinter",
          "type": "address"
        }
      ],
      "name": "proposeMinter",
      "outputs": [],
      "payable": false,
      "stateMutability": "nonpayable",
      "type": "function"
    },
    {
      "constant": false,
      "inputs": [],
      "name": "approveMinter",
      "outputs": [],
      "payable": false,
      "stateMutability": "nonpayable",
      "type": "function"
    },
    {
      "constant": true,
      "inputs": [],
      "name": "name",
      "outputs": [
        {
          "name": "",
          "type": "string"
        }
      ],
      "payable": false,
      "stateMutability": "view",
      "type": "function"
    },
    {
      "constant": true,
      "inputs": [],
      "name": "symbol",
      "outputs": [
        {
          "name": "",
          "type": "string"
        }
      ],
      "payable": false,
      "stateMutability": "view",
      "type": "function"
    },
    {
      "constant": true,
      "inputs": [],
      "name": "blob",
      "outputs": [
        {
          "name": "",
          "type": "string"
        }
      ],
      "payable": false,
      "stateMutability": "view",
      "type": "function"
    },
    {
      "constant": true,
      "inputs": [],
      "name": "decimals",
      "outputs": [
        {
          "name": "",
          "type": "uint8"
        }
      ],
      "payable": false,
      "stateMutability": "view",
      "type": "function"
    },
    {
      "constant": true,
      "inputs": [],
      "name": "cap",
      "outputs": [
        {
          "name": "",
          "type": "uint256"
        }
      ],
      "payable": false,
      "stateMutability": "view",
      "type": "function"
    },
    {
      "constant": true,
      "inputs": [
        {
          "name": "account",
          "type": "address"
        }
      ],
      "name": "isMinter",
      "outputs": [
        {
          "name": "",
          "type": "bool"
        }
      ],
      "payable": false,
      "stateMutability": "view",
      "type": "function"
    },
    {
      "constant": true,
      "inputs": [],
      "name": "minter",
      "outputs": [
        {
          "name": "",
          "type": "address"
        }
      ],
      "payable": false,
      "stateMutability": "view",
      "type": "function"
    },
    {
      "constant": true,
      "inputs": [],
      "name": "isInitialized",
      "outputs": [
        {
          "name": "",
          "type": "bool"
        }
      ],
      "payable": false,
      "stateMutability": "view",
      "type": "function"
    },
    {
      "constant": true,
      "inputs": [
        {
          "name": "amount",
          "type": "uint256"
        },
        {
          "name": "feePercentage",
          "type": "uint256"
        }
      ],
      "name": "calculateFee",
      "outputs": [
        {
          "name": "",
          "type": "uint256"
        }
      ],
      "payable": false,
      "stateMutability": "pure",
      "type": "function"
    }
  ],
  "bytecode": "0x60806040526007805460a060020a60ff02191690553480156200002157600080fd5b5060405162001ef238038062001ef2833981018060405260c08110156200004757600080fd5b8101908080516401000000008111156200006057600080fd5b820160208101848111156200007457600080fd5b81516401000000008111828201871017156200008f57600080fd5b50509291906020018051640100000000811115620000ac57600080fd5b82016020810184811115620000c057600080fd5b8151640100000000811182820187101715620000db57600080fd5b505060208201516040830151606090930180519295919491926401000000008111156200010757600080fd5b820160208101848111156200011b57600080fd5b81516401000000008111828201871017156200013657600080fd5b505060209091015190925090506200015c86868686868664010000000062000169810204565b5050505050505062000439565b6000600160a060020a038516620001cc576040517f08c379a000000000000000000000000000000000000000000000000000000000815260040180806020018281038252603081526020018062001e2f6030913960400191505060405180910390fd5b600854600160a060020a03161562000230576040517f08c379a000000000000000000000000000000000000000000000000000000000815260040180806020018281038252602f81526020018062001ec3602f913960400191505060405180910390fd5b600160a060020a03821662000291576040517f08c379a000000000000000000000000000000000000000000000000000000000815260040180806020018281038252604081526020018062001e5f6040913960400191505060405180910390fd5b83620002e9576040517f08c379a000000000000000000000000000000000000000000000000000000000815260040180806020018281038252602481526020018062001e9f6024913960400191505060405180910390fd5b60068490558651620003039060039060208a019062000394565b5082516200031990600590602086019062000394565b5085516200032f90600490602089019062000394565b505060088054600160a060020a0319908116600160a060020a039687161790915560078054740100000000000000000000000000000000000000009216929095169190911760a060020a60ff02191681179384905560ff930492909216949350505050565b828054600181600116156101000203166002900490600052602060002090601f016020900481019282601f10620003d757805160ff191683800117855562000407565b8280016001018555821562000407579182015b8281111562000407578251825591602001919060010190620003ea565b506200041592915062000419565b5090565b6200043691905b8082111562000415576000815560010162000420565b90565b6119e680620004496000396000f3fe608060405234801561001057600080fd5b50600436106101ab576000357c01000000000000000000000000000000000000000000000000000000009004806350d2fcc4116100fb578063a9059cbb116100b4578063dd62ed3e1161008e578063dd62ed3e14610602578063eb40024b14610630578063ec342ad014610638578063fde0e7a814610640576101ab565b8063a9059cbb146105b0578063aa271e1a146105dc578063b2263a5d146102e1576101ab565b806350d2fcc4146103c657806370a08231146103ec5780638ca0c059146104125780639070d2f81461044a57806395d89b411461057c578063a457c2d714610584576101ab565b8063300ae14111610168578063355274ea11610142578063355274ea1461035e578063392e53cd14610366578063395093511461036e57806340c10f191461039a576101ab565b8063300ae141146102e9578063313ce5671461031d57806334e731221461033b576101ab565b806306fdde03146101b0578063075461721461022d578063095ea7b31461025157806318160ddd1461029157806323b872dd146102ab578063294541c7146102e1575b600080fd5b6101b8610648565b6040805160208082528351818301528351919283929083019185019080838360005b838110156101f25781810151838201526020016101da565b50505050905090810190601f16801561021f5780820380516001836020036101000a031916815260200191505b509250505060405180910390f35b6102356106df565b60408051600160a060020a039092168252519081900360200190f35b61027d6004803603604081101561026757600080fd5b50600160a060020a0381351690602001356106ee565b604080519115158252519081900360200190f35b61029961070c565b60408051918252519081900360200190f35b61027d600480360360608110156102c157600080fd5b50600160a060020a03813581169160208101359091169060400135610712565b61029961079f565b61031b600480360360608110156102ff57600080fd5b5080359060208101359060400135600160a060020a03166107aa565b005b6103256108a5565b6040805160ff9092168252519081900360200190f35b6102996004803603604081101561035157600080fd5b50803590602001356108aa565b6102996108f5565b61027d6108fb565b61027d6004803603604081101561038457600080fd5b50600160a060020a03813516906020013561091c565b61031b600480360360408110156103b057600080fd5b50600160a060020a038135169060200135610970565b61031b600480360360208110156103dc57600080fd5b5035600160a060020a0316610a3b565b6102996004803603602081101561040257600080fd5b5035600160a060020a0316610af4565b61031b6004803603608081101561042857600080fd5b50803590600160a060020a036020820135169060408101359060600135610b0f565b61027d600480360360c081101561046057600080fd5b81019060208101813564010000000081111561047b57600080fd5b82018360208201111561048d57600080fd5b803590602001918460018302840111640100000000831117156104af57600080fd5b9193909290916020810190356401000000008111156104cd57600080fd5b8201836020820111156104df57600080fd5b8035906020019184600183028401116401000000008311171561050157600080fd5b91939092600160a060020a0383351692602081013592919060608101906040013564010000000081111561053457600080fd5b82018360208201111561054657600080fd5b8035906020019184600183028401116401000000008311171561056857600080fd5b919350915035600160a060020a0316610bb0565b6101b8610ccb565b61027d6004803603604081101561059a57600080fd5b50600160a060020a038135169060200135610d2c565b61027d600480360360408110156105c657600080fd5b50600160a060020a038135169060200135610d9a565b61027d600480360360208110156105f257600080fd5b5035600160a060020a0316610dae565b6102996004803603604081101561061857600080fd5b50600160a060020a0381358116916020013516610dc2565b61031b610ded565b610299610eb9565b6101b8610ec5565b60038054604080516020601f60026000196101006001881615020190951694909404938401819004810282018101909252828152606093909290918301828280156106d45780601f106106a9576101008083540402835291602001916106d4565b820191906000526020600020905b8154815290600101906020018083116106b757829003601f168201915b505050505090505b90565b600854600160a060020a031690565b60006107026106fb610f26565b8484610f2a565b5060015b92915050565b60025490565b600061071f84848461101c565b6107958461072b610f26565b610790856040518060600160405280602881526020016118f660289139600160a060020a038a16600090815260016020526040812090610769610f26565b600160a060020a03168152602081019190915260400160002054919063ffffffff61117e16565b610f2a565b5060019392505050565b66038d7ea4c6800081565b6000806107c4856103e8670de0b6b3a76400005b046108aa565b6007549091506107dd90600160a060020a031682610d9a565b50600160a060020a0383161561081057610802856103e8670de0b6b3a76400006107be565b915061080e8383610d9a565b505b6000610822828463ffffffff61121816565b60085490915061084a90600160a060020a0316610845888463ffffffff61127516565b610d9a565b5060408051878152602081018790524381830152606081018590529051600160a060020a038616917fb2fe3041f0d90d29ddc86cc4867729db0a48fe9177d192d0c6455484abacb6a8919081900360800190a2505050505050565b601290565b6000826108b957506000610706565b816108c657506000610706565b6108ee670de0b6b3a76400006108e2858563ffffffff6112b716565b9063ffffffff61131316565b9392505050565b60065490565b60075474010000000000000000000000000000000000000000900460ff1690565b6000610702610929610f26565b84610790856001600061093a610f26565b600160a060020a03908116825260208083019390935260409182016000908120918c16815292529020549063ffffffff61121816565b600854600160a060020a031633146109bc5760405160e560020a62461bcd02815260040180806020018281038252602181526020018061179f6021913960400191505060405180910390fd5b6006546109d7826109cb61070c565b9063ffffffff61121816565b1115610a2d576040805160e560020a62461bcd02815260206004820152601f60248201527f44617461546f6b656e54656d706c6174653a2063617020657863656564656400604482015290519081900360640190fd5b610a378282611355565b5050565b600854600160a060020a03163314610a875760405160e560020a62461bcd02815260040180806020018281038252602181526020018061179f6021913960400191505060405180910390fd5b6009805473ffffffffffffffffffffffffffffffffffffffff1916600160a060020a0383811691909117918290556040805133815292909116602083015280517fa24c529cc8b2d85b7dfb2ed0b4d7e9a816546212138b5d223bee13481e21be6b9281900390910190a150565b600160a060020a031660009081526020819052604090205490565b8115610b5d57610b1f8383610d9a565b610b5d5760405160e560020a62461bcd0281526004018080602001828103825260298152602001806117e66029913960400191505060405180910390fd5b604080518581526020810184905280820183905290513391600160a060020a038616917fce42555d11c2cca6143e7903829e154e074119544f907b3106e7368358825f199181900360600190a350505050565b60075460009074010000000000000000000000000000000000000000900460ff1615610c105760405160e560020a62461bcd02815260040180806020018281038252603581526020018061176a6035913960400191505060405180910390fd5b610cbd8a8a8080601f01602080910402602001604051908101604052809392919081815260200183838082843760009201919091525050604080516020601f8e018190048102820181019092528c815292508c91508b908190840183828082843760009201919091525050604080516020601f8b018190048102820181019092528981528c93508b9250908a908a90819084018382808284376000920191909152508a9250611448915050565b9a9950505050505050505050565b60048054604080516020601f60026000196101006001881615020190951694909404938401819004810282018101909252828152606093909290918301828280156106d45780601f106106a9576101008083540402835291602001916106d4565b6000610702610d39610f26565b84610790856040518060600160405280602581526020016119966025913960016000610d63610f26565b600160a060020a03908116825260208083019390935260409182016000908120918d1681529252902054919063ffffffff61117e16565b6000610702610da7610f26565b848461101c565b600854600160a060020a0391821691161490565b600160a060020a03918216600090815260016020908152604080832093909416825291909152205490565b600954600160a060020a03163314610e395760405160e560020a62461bcd02815260040180806020018281038252603281526020018061187f6032913960400191505060405180910390fd5b60085460095460408051600160a060020a03938416815292909116602083015280517f96ab0400119a548d3cc4c74e857d0d9c427fe9df20d3d0d99af10cc292e6c8869281900390910190a1600980546008805473ffffffffffffffffffffffffffffffffffffffff19908116600160a060020a03841617909155169055565b670de0b6b3a764000081565b60058054604080516020601f60026000196101006001881615020190951694909404938401819004810282018101909252828152606093909290918301828280156106d45780601f106106a9576101008083540402835291602001916106d4565b3390565b600160a060020a038316610f725760405160e560020a62461bcd0281526004018080602001828103825260248152602001806119726024913960400191505060405180910390fd5b600160a060020a038216610fba5760405160e560020a62461bcd0281526004018080602001828103825260228152602001806117486022913960400191505060405180910390fd5b600160a060020a03808416600081815260016020908152604080832094871680845294825291829020859055815185815291517f8c5be1e5ebec7d5bd14f71427d1e84f3dd0314c0f7b2291e5b200ac8c7c3b9259281900390910190a3505050565b600160a060020a0383166110645760405160e560020a62461bcd02815260040180806020018281038252602581526020018061194d6025913960400191505060405180910390fd5b600160a060020a0382166110ac5760405160e560020a62461bcd0281526004018080602001828103825260238152602001806117256023913960400191505060405180910390fd5b6110ef816040518060600160405280602681526020016117c060269139600160a060020a038616600090815260208190526040902054919063ffffffff61117e16565b600160a060020a038085166000908152602081905260408082209390935590841681522054611124908263ffffffff61121816565b600160a060020a038084166000818152602081815260409182902094909455805185815290519193928716927fddf252ad1be2c89b69c2b068fc378daa952ba7f163c4a11628f55a4df523b3ef92918290030190a3505050565b600081848411156112105760405160e560020a62461bcd0281526004018080602001828103825283818151815260200191508051906020019080838360005b838110156111d55781810151838201526020016111bd565b50505050905090810190601f1680156112025780820380516001836020036101000a031916815260200191505b509250505060405180910390fd5b505050900390565b6000828201838110156108ee576040805160e560020a62461bcd02815260206004820152601b60248201527f536166654d6174683a206164646974696f6e206f766572666c6f770000000000604482015290519081900360640190fd5b60006108ee83836040518060400160405280601e81526020017f536166654d6174683a207375627472616374696f6e206f766572666c6f77000081525061117e565b6000826112c657506000610706565b828202828482816112d357fe5b04146108ee5760405160e560020a62461bcd0281526004018080602001828103825260218152602001806118b16021913960400191505060405180910390fd5b60006108ee83836040518060400160405280601a81526020017f536166654d6174683a206469766973696f6e206279207a65726f000000000000815250611624565b600160a060020a0382166113b3576040805160e560020a62461bcd02815260206004820152601f60248201527f45524332303a206d696e7420746f20746865207a65726f206164647265737300604482015290519081900360640190fd5b6002546113c6908263ffffffff61121816565b600255600160a060020a0382166000908152602081905260409020546113f2908263ffffffff61121816565b600160a060020a0383166000818152602081815260408083209490945583518581529351929391927fddf252ad1be2c89b69c2b068fc378daa952ba7f163c4a11628f55a4df523b3ef9281900390910190a35050565b6000600160a060020a0385166114925760405160e560020a62461bcd02815260040180806020018281038252603081526020018061180f6030913960400191505060405180910390fd5b600854600160a060020a0316156114dd5760405160e560020a62461bcd02815260040180806020018281038252602f81526020018061191e602f913960400191505060405180910390fd5b600160a060020a0382166115255760405160e560020a62461bcd02815260040180806020018281038252604081526020018061183f6040913960400191505060405180910390fd5b836115645760405160e560020a62461bcd0281526004018080602001828103825260248152602001806118d26024913960400191505060405180910390fd5b6006849055865161157c9060039060208a019061168c565b50825161159090600590602086019061168c565b5085516115a490600490602089019061168c565b50506008805473ffffffffffffffffffffffffffffffffffffffff19908116600160a060020a039687161790915560078054740100000000000000000000000000000000000000009216929095169190911774ff0000000000000000000000000000000000000000191681179384905560ff930492909216949350505050565b600081836116765760405160e560020a62461bcd0281526020600482018181528351602484015283519092839260449091019190850190808383600083156111d55781810151838201526020016111bd565b50600083858161168257fe5b0495945050505050565b828054600181600116156101000203166002900490600052602060002090601f016020900481019282601f106116cd57805160ff19168380011785556116fa565b828001600101855582156116fa579182015b828111156116fa5782518255916020019190600101906116df565b5061170692915061170a565b5090565b6106dc91905b80821115611706576000815560010161171056fe45524332303a207472616e7366657220746f20746865207a65726f206164647265737345524332303a20617070726f766520746f20746865207a65726f206164647265737344617461546f6b656e54656d706c6174653a20746f6b656e20696e7374616e636520616c726561647920696e697469616c697a656444617461546f6b656e54656d706c6174653a20696e76616c6964206d696e74657245524332303a207472616e7366657220616d6f756e7420657863656564732062616c616e636544617461546f6b656e54656d706c6174653a206661696c656420746f2066696e697368206f7264657244617461546f6b656e54656d706c6174653a20496e76616c6964206d696e7465722c20207a65726f206164647265737344617461546f6b656e54656d706c6174653a20496e76616c696420636f6d6d756e6974792066656520636f6c6c6563746f722c207a65726f206164647265737344617461546f6b656e54656d706c6174653a20696e76616c69642070726f706f736564206d696e7465722061646472657373536166654d6174683a206d756c7469706c69636174696f6e206f766572666c6f7744617461546f6b656e54656d706c6174653a20496e76616c6964206361702076616c756545524332303a207472616e7366657220616d6f756e74206578636565647320616c6c6f77616e636544617461546f6b656e54656d706c6174653a20496e76616c6964206d696e7465722c207a65726f206164647265737345524332303a207472616e736665722066726f6d20746865207a65726f206164647265737345524332303a20617070726f76652066726f6d20746865207a65726f206164647265737345524332303a2064656372656173656420616c6c6f77616e63652062656c6f77207a65726fa165627a7a7230582044789fdc4ef7337a3cea2a0142202dd5f7efa9af51e3143a0097eb4e8ca1a033002944617461546f6b656e54656d706c6174653a20496e76616c6964206d696e7465722c20207a65726f206164647265737344617461546f6b656e54656d706c6174653a20496e76616c696420636f6d6d756e6974792066656520636f6c6c6563746f722c207a65726f206164647265737344617461546f6b656e54656d706c6174653a20496e76616c6964206361702076616c756544617461546f6b656e54656d706c6174653a20496e76616c6964206d696e7465722c207a65726f2061646472657373",
  "source": "pragma solidity 0.5.7;\n// Copyright BigchainDB GmbH and Ocean Protocol contributors\n// SPDX-License-Identifier: (Apache-2.0 AND CC-BY-4.0)\n// Code is Apache-2.0 and docs are CC-BY-4.0\n\nimport '../interfaces/IERC20Template.sol';\nimport 'openzeppelin-solidity/contracts/token/ERC20/ERC20.sol';\n\n\n/**\n* @title DataTokenTemplate\n*  \n* @dev DataTokenTemplate is an ERC20 compliant token template\n*      Used by the factory contract as a bytecode reference to \n*      deploy new DataTokens.\n*/\ncontract DataTokenTemplate is IERC20Template, ERC20 {\n    using SafeMath for uint256;\n\n    string  private _name;\n    string  private _symbol;\n    string  private _blob;\n    uint256 private _cap;\n    uint8 private constant _decimals = 18;\n    address private _communityFeeCollector;\n    bool    private initialized = false;\n    address private _minter;\n    address private _proposedMinter;\n    uint256 public constant BASE = 10**18;\n    uint256 public constant BASE_COMMUNITY_FEE_PERCENTAGE = BASE / 1000;\n    uint256 public constant BASE_MARKET_FEE_PERCENTAGE = BASE / 1000;\n\n    event OrderStarted(\n            uint256 amount, \n            uint256 serviceId, \n            uint256 startedAt,\n            address indexed mrktFeeCollector,\n            uint256 marketFee\n    );\n\n    event OrderFinished(\n            bytes32 orderTxId, \n            address indexed consumer, \n            uint256 amount, \n            uint256 serviceId, \n            address indexed provider\n    );\n\n    event MinterProposed(\n        address currentMinter,\n        address newMinter\n    );\n\n    event MinterApproved(\n        address currentMinter,\n        address newMinter\n    );\n\n    modifier onlyNotInitialized() {\n        require(\n            !initialized,\n            'DataTokenTemplate: token instance already initialized'\n        );\n        _;\n    }\n    \n    modifier onlyMinter() {\n        require(\n            msg.sender == _minter,\n            'DataTokenTemplate: invalid minter' \n        );\n        _;\n    }\n\n    /**\n     * @dev constructor\n     *      Called prior contract deployment\n     * @param name refers to a template DataToken name\n     * @param symbol refers to a template DataToken symbol\n     * @param minterAddress refers to an address that has minter role\n     * @param cap the total ERC20 cap\n     * @param blob data string refering to the resolver for the metadata\n     * @param feeCollector it is the community fee collector address\n     */\n    constructor(\n        string memory name,\n        string memory symbol,\n        address minterAddress,\n        uint256 cap,\n        string memory blob,\n        address feeCollector\n    )\n        public\n    {\n        _initialize(\n            name,\n            symbol,\n            minterAddress,\n            cap,\n            blob,\n            feeCollector\n        );\n    }\n    \n    /**\n     * @dev initialize\n     *      Called prior contract initialization (e.g creating new DataToken instance)\n     *      Calls private _initialize function. Only if contract is not initialized.\n     * @param name refers to a new DataToken name\n     * @param symbol refers to a nea DataToken symbol\n     * @param minterAddress refers to an address that has minter rights\n     * @param cap the total ERC20 cap\n     * @param blob data string refering to the resolver for the metadata\n     * @param feeCollector it is the community fee collector address\n     */\n    function initialize(\n        string calldata name,\n        string calldata symbol,\n        address minterAddress,\n        uint256 cap,\n        string calldata blob,\n        address feeCollector\n    ) \n        external\n        onlyNotInitialized\n        returns(bool)\n    {\n        return _initialize(\n            name,\n            symbol,\n            minterAddress,\n            cap,\n            blob,\n            feeCollector\n        );\n    }\n\n    /**\n     * @dev _initialize\n     *      Private function called on contract initialization.\n     * @param name refers to a new DataToken name\n     * @param symbol refers to a nea DataToken symbol\n     * @param minterAddress refers to an address that has minter rights\n     * @param cap the total ERC20 cap\n     * @param blob data string refering to the resolver for the metadata\n     * @param feeCollector it is the community fee collector address\n     */\n    function _initialize(\n        string memory name,\n        string memory symbol,\n        address minterAddress,\n        uint256 cap,\n        string memory blob,\n        address feeCollector\n    )\n        private\n        returns(bool)\n    {\n        require(\n            minterAddress != address(0), \n            'DataTokenTemplate: Invalid minter,  zero address'\n        );\n\n        require(\n            _minter == address(0), \n            'DataTokenTemplate: Invalid minter, zero address'\n        );\n\n        require(\n            feeCollector != address(0),\n            'DataTokenTemplate: Invalid community fee collector, zero address'\n        );\n\n        require(\n            cap != 0,\n            'DataTokenTemplate: Invalid cap value'\n        );\n        _cap = cap;\n        _name = name;\n        _blob = blob;\n        _symbol = symbol;\n        _minter = minterAddress;\n        _communityFeeCollector = feeCollector;\n        initialized = true;\n        return initialized;\n    }\n\n    /**\n     * @dev mint\n     *      Only the minter address can call it.\n     *      msg.value should be higher than zero and gt or eq minting fee\n     * @param account refers to an address that token is going to be minted to.\n     * @param value refers to amount of tokens that is going to be minted.\n     */\n    function mint(\n        address account,\n        uint256 value\n    ) \n        external  \n        onlyMinter \n    {\n        require(\n            totalSupply().add(value) <= _cap, \n            'DataTokenTemplate: cap exceeded'\n        );\n        _mint(account, value);\n    }\n\n    /**\n     * @dev startOrder\n     *      called by consumer prior ordering a service consume on a marketplace\n     * @param amount refers to amount of tokens that is going to be transfered.\n     * @param serviceId service index in the metadata\n     * @param mrktFeeCollector marketplace fee collector\n     */\n    function startOrder(\n        uint256 amount,\n        uint256 serviceId,\n        address mrktFeeCollector\n    )\n        external\n    {\n        uint256 marketFee = 0;\n        uint256 communityFee = calculateFee(\n            amount, \n            BASE_COMMUNITY_FEE_PERCENTAGE\n        );\n        transfer(_communityFeeCollector, communityFee);\n        if(mrktFeeCollector != address(0)){\n            marketFee = calculateFee(\n                amount, \n                BASE_MARKET_FEE_PERCENTAGE\n            );\n            transfer(mrktFeeCollector, marketFee);\n        }\n        uint256 totalFee = communityFee.add(marketFee);\n        transfer(_minter, amount.sub(totalFee));\n\n        emit OrderStarted(\n            amount,\n            serviceId,\n            block.number,\n            mrktFeeCollector,\n            marketFee\n        );\n    }\n\n    /**\n     * @dev finishOrder\n     *      called by provider prior completing service delivery only\n     *      if there is a partial or full refund.\n     * @param orderTxId refers to the transaction Id  of startOrder acts \n     *                  as a payment reference.\n     * @param consumer refers to an address that has consumed that service.\n     * @param amount refers to amount of tokens that is going to be transfered.\n     * @param serviceId service index in the metadata.\n     */\n    function finishOrder(\n        bytes32 orderTxId, \n        address consumer, \n        uint256 amount,\n        uint256 serviceId\n    )\n        external\n    {\n        if ( amount != 0 )  \n            require(\n                transfer(consumer, amount),\n                'DataTokenTemplate: failed to finish order'\n            );\n\n        emit OrderFinished(\n            orderTxId, \n            consumer, \n            amount, \n            serviceId, \n            msg.sender\n        );\n    }\n\n    /**\n     * @dev proposeMinter\n     *      It proposes a new token minter address.\n     *      Only called be called if the contract is not paused.\n     *      Only the current minter can call it.\n     * @param newMinter refers to a new token minter address.\n     */\n    function proposeMinter(address newMinter) \n        external \n        onlyMinter \n    {\n        _proposedMinter = newMinter;\n        emit MinterProposed(\n            msg.sender,\n            _proposedMinter\n        );\n    }\n\n    /**\n     * @dev approveMinter\n     *      It approves a new token minter address.\n     *      Only called be called if the contract is not paused.\n     *      Only the current minter can call it.\n     */\n    function approveMinter()\n        external\n    {\n        require(\n            msg.sender == _proposedMinter,\n            'DataTokenTemplate: invalid proposed minter address'\n        );\n        emit MinterApproved(\n            _minter,\n            _proposedMinter\n        );\n        _minter = _proposedMinter;\n        _proposedMinter = address(0);\n    }\n\n    /**\n     * @dev name\n     *      It returns the token name.\n     * @return DataToken name.\n     */\n    function name() external view returns(string memory) {\n        return _name;\n    }\n\n    /**\n     * @dev symbol\n     *      It returns the token symbol.\n     * @return DataToken symbol.\n     */\n    function symbol() external view returns(string memory) {\n        return _symbol;\n    }\n\n    /**\n     * @dev blob\n     *      It returns the blob (e.g https://123.com).\n     * @return DataToken blob.\n     */\n    function blob() external view returns(string memory) {\n        return _blob;\n    }\n\n    /**\n     * @dev decimals\n     *      It returns the token decimals.\n     *      how many supported decimal points\n     * @return DataToken decimals.\n     */\n    function decimals() external view returns(uint8) {\n        return _decimals;\n    }\n\n    /**\n     * @dev cap\n     *      it returns the capital.\n     * @return DataToken cap.\n     */\n    function cap() external view returns (uint256) {\n        return _cap;\n    }\n\n    /**\n     * @dev isMinter\n     *      It takes the address and checks whether it has a minter role.\n     * @param account refers to the address.\n     * @return true if account has a minter role.\n     */\n    function isMinter(address account) external view returns(bool) {\n        return (_minter == account);\n    } \n\n    /**\n     * @dev minter\n     * @return minter's address.\n     */\n    function minter()\n        external\n        view \n        returns(address)\n    {\n        return _minter;\n    }\n\n    /**\n     * @dev isInitialized\n     *      It checks whether the contract is initialized.\n     * @return true if the contract is initialized.\n     */ \n    function isInitialized() external view returns(bool) {\n        return initialized;\n    }\n\n    /**\n     * @dev calculateFee\n     *      giving a fee percentage, and amount it calculates the actual fee\n     * @param amount the amount of token\n     * @param feePercentage the fee percentage \n     * @return the token fee.\n     */ \n    function calculateFee(\n        uint256 amount,\n        uint256 feePercentage\n    )\n        public\n        pure\n        returns(uint256)\n    {\n        if(amount == 0) return 0;\n        if(feePercentage == 0) return 0;\n        return amount.mul(feePercentage).div(BASE);\n    }\n}",
  "sourcePath": "/Users/ahmedali/Desktop/work/ocean-contracts/contracts/templates/DataTokenTemplate.sol",
  "compiler": {
    "name": "solc",
    "version": "0.5.7+commit.6da8b019.Emscripten.clang"
  },
  "schemaVersion": "3.2.4",
  "updatedAt": "2020-09-30T09:25:27.250Z",
  "devdoc": {
    "details": "DataTokenTemplate is an ERC20 compliant token template     Used by the factory contract as a bytecode reference to      deploy new DataTokens.",
    "methods": {
      "allowance(address,address)": {
        "details": "See {IERC20-allowance}."
      },
      "approve(address,uint256)": {
        "details": "See {IERC20-approve}.     * Requirements:     * - `spender` cannot be the zero address."
      },
      "approveMinter()": {
        "details": "approveMinter     It approves a new token minter address.     Only called be called if the contract is not paused.     Only the current minter can call it."
      },
      "balanceOf(address)": {
        "details": "See {IERC20-balanceOf}."
      },
      "blob()": {
        "details": "blob     It returns the blob (e.g https://123.com).",
        "return": "DataToken blob."
      },
      "calculateFee(uint256,uint256)": {
        "details": "calculateFee     giving a fee percentage, and amount it calculates the actual fee",
        "params": {
          "amount": "the amount of token",
          "feePercentage": "the fee percentage "
        },
        "return": "the token fee."
      },
      "cap()": {
        "details": "cap     it returns the capital.",
        "return": "DataToken cap."
      },
      "constructor": {
        "details": "constructor     Called prior contract deployment",
        "params": {
          "blob": "data string refering to the resolver for the metadata",
          "cap": "the total ERC20 cap",
          "feeCollector": "it is the community fee collector address",
          "minterAddress": "refers to an address that has minter role",
          "name": "refers to a template DataToken name",
          "symbol": "refers to a template DataToken symbol"
        }
      },
      "decimals()": {
        "details": "decimals     It returns the token decimals.     how many supported decimal points",
        "return": "DataToken decimals."
      },
      "decreaseAllowance(address,uint256)": {
        "details": "Atomically decreases the allowance granted to `spender` by the caller.     * This is an alternative to {approve} that can be used as a mitigation for problems described in {IERC20-approve}.     * Emits an {Approval} event indicating the updated allowance.     * Requirements:     * - `spender` cannot be the zero address. - `spender` must have allowance for the caller of at least `subtractedValue`."
      },
      "finishOrder(bytes32,address,uint256,uint256)": {
        "details": "finishOrder     called by provider prior completing service delivery only     if there is a partial or full refund.",
        "params": {
          "amount": "refers to amount of tokens that is going to be transfered.",
          "consumer": "refers to an address that has consumed that service.",
          "orderTxId": "refers to the transaction Id  of startOrder acts                  as a payment reference.",
          "serviceId": "service index in the metadata."
        }
      },
      "increaseAllowance(address,uint256)": {
        "details": "Atomically increases the allowance granted to `spender` by the caller.     * This is an alternative to {approve} that can be used as a mitigation for problems described in {IERC20-approve}.     * Emits an {Approval} event indicating the updated allowance.     * Requirements:     * - `spender` cannot be the zero address."
      },
      "initialize(string,string,address,uint256,string,address)": {
        "details": "initialize     Called prior contract initialization (e.g creating new DataToken instance)     Calls private _initialize function. Only if contract is not initialized.",
        "params": {
          "blob": "data string refering to the resolver for the metadata",
          "cap": "the total ERC20 cap",
          "feeCollector": "it is the community fee collector address",
          "minterAddress": "refers to an address that has minter rights",
          "name": "refers to a new DataToken name",
          "symbol": "refers to a nea DataToken symbol"
        }
      },
      "isInitialized()": {
        "details": "isInitialized     It checks whether the contract is initialized.",
        "return": "true if the contract is initialized."
      },
      "isMinter(address)": {
        "details": "isMinter     It takes the address and checks whether it has a minter role.",
        "params": {
          "account": "refers to the address."
        },
        "return": "true if account has a minter role."
      },
      "mint(address,uint256)": {
        "details": "mint     Only the minter address can call it.     msg.value should be higher than zero and gt or eq minting fee",
        "params": {
          "account": "refers to an address that token is going to be minted to.",
          "value": "refers to amount of tokens that is going to be minted."
        }
      },
      "minter()": {
        "details": "minter",
        "return": "minter's address."
      },
      "name()": {
        "details": "name     It returns the token name.",
        "return": "DataToken name."
      },
      "proposeMinter(address)": {
        "details": "proposeMinter     It proposes a new token minter address.     Only called be called if the contract is not paused.     Only the current minter can call it.",
        "params": {
          "newMinter": "refers to a new token minter address."
        }
      },
      "startOrder(uint256,uint256,address)": {
        "details": "startOrder     called by consumer prior ordering a service consume on a marketplace",
        "params": {
          "amount": "refers to amount of tokens that is going to be transfered.",
          "mrktFeeCollector": "marketplace fee collector",
          "serviceId": "service index in the metadata"
        }
      },
      "symbol()": {
        "details": "symbol     It returns the token symbol.",
        "return": "DataToken symbol."
      },
      "totalSupply()": {
        "details": "See {IERC20-totalSupply}."
      },
      "transfer(address,uint256)": {
        "details": "See {IERC20-transfer}.     * Requirements:     * - `recipient` cannot be the zero address. - the caller must have a balance of at least `amount`."
      },
      "transferFrom(address,address,uint256)": {
        "details": "See {IERC20-transferFrom}.     * Emits an {Approval} event indicating the updated allowance. This is not required by the EIP. See the note at the beginning of {ERC20};     * Requirements: - `sender` and `recipient` cannot be the zero address. - `sender` must have a balance of at least `amount`. - the caller must have allowance for `sender`'s tokens of at least `amount`."
      }
    },
    "title": "DataTokenTemplate "
  },
  "userdoc": {
    "methods": {}
  }
}