{
  "contractName": "DataTokenTemplate",
  "abi": [
    {
      "constant": false,
      "inputs": [
        {
          "name": "spender",
          "type": "address"
        },
        {
          "name": "value",
          "type": "uint256"
        }
      ],
      "name": "approve",
      "outputs": [
        {
          "name": "",
          "type": "bool"
        }
      ],
      "payable": false,
      "stateMutability": "nonpayable",
      "type": "function"
    },
    {
      "constant": true,
      "inputs": [],
      "name": "totalSupply",
      "outputs": [
        {
          "name": "",
          "type": "uint256"
        }
      ],
      "payable": false,
      "stateMutability": "view",
      "type": "function"
    },
    {
      "constant": false,
      "inputs": [
        {
          "name": "from",
          "type": "address"
        },
        {
          "name": "to",
          "type": "address"
        },
        {
          "name": "value",
          "type": "uint256"
        }
      ],
      "name": "transferFrom",
      "outputs": [
        {
          "name": "",
          "type": "bool"
        }
      ],
      "payable": false,
      "stateMutability": "nonpayable",
      "type": "function"
    },
    {
      "constant": false,
      "inputs": [
        {
          "name": "spender",
          "type": "address"
        },
        {
          "name": "addedValue",
          "type": "uint256"
        }
      ],
      "name": "increaseAllowance",
      "outputs": [
        {
          "name": "",
          "type": "bool"
        }
      ],
      "payable": false,
      "stateMutability": "nonpayable",
      "type": "function"
    },
    {
      "constant": true,
      "inputs": [
        {
          "name": "account",
          "type": "address"
        }
      ],
      "name": "balanceOf",
      "outputs": [
        {
          "name": "",
          "type": "uint256"
        }
      ],
      "payable": false,
      "stateMutability": "view",
      "type": "function"
    },
    {
      "constant": false,
      "inputs": [
        {
          "name": "spender",
          "type": "address"
        },
        {
          "name": "subtractedValue",
          "type": "uint256"
        }
      ],
      "name": "decreaseAllowance",
      "outputs": [
        {
          "name": "",
          "type": "bool"
        }
      ],
      "payable": false,
      "stateMutability": "nonpayable",
      "type": "function"
    },
    {
      "constant": false,
      "inputs": [
        {
          "name": "to",
          "type": "address"
        },
        {
          "name": "value",
          "type": "uint256"
        }
      ],
      "name": "transfer",
      "outputs": [
        {
          "name": "",
          "type": "bool"
        }
      ],
      "payable": false,
      "stateMutability": "nonpayable",
      "type": "function"
    },
    {
      "constant": true,
      "inputs": [],
      "name": "BASE_COMMUNITY_FEE_PERCENTAGE",
      "outputs": [
        {
          "name": "",
          "type": "uint256"
        }
      ],
      "payable": false,
      "stateMutability": "view",
      "type": "function"
    },
    {
      "constant": true,
      "inputs": [
        {
          "name": "owner",
          "type": "address"
        },
        {
          "name": "spender",
          "type": "address"
        }
      ],
      "name": "allowance",
      "outputs": [
        {
          "name": "",
          "type": "uint256"
        }
      ],
      "payable": false,
      "stateMutability": "view",
      "type": "function"
    },
    {
      "constant": true,
      "inputs": [],
      "name": "BASE",
      "outputs": [
        {
          "name": "",
          "type": "uint256"
        }
      ],
      "payable": false,
      "stateMutability": "view",
      "type": "function"
    },
    {
      "inputs": [
        {
          "name": "name",
          "type": "string"
        },
        {
          "name": "symbol",
          "type": "string"
        },
        {
          "name": "minter",
          "type": "address"
        },
        {
          "name": "cap",
          "type": "uint256"
        },
        {
          "name": "blob",
          "type": "string"
        },
        {
          "name": "feeCollector",
          "type": "address"
        }
      ],
      "payable": false,
      "stateMutability": "nonpayable",
      "type": "constructor"
    },
    {
      "anonymous": false,
      "inputs": [
        {
          "indexed": false,
          "name": "amount",
          "type": "uint256"
        },
        {
          "indexed": false,
          "name": "did",
          "type": "bytes32"
        },
        {
          "indexed": false,
          "name": "serviceId",
          "type": "uint256"
        },
        {
          "indexed": false,
          "name": "receiver",
          "type": "address"
        },
        {
          "indexed": false,
          "name": "startedAt",
          "type": "uint256"
        },
        {
          "indexed": false,
          "name": "feeCollector",
          "type": "address"
        },
        {
          "indexed": false,
          "name": "marketFee",
          "type": "uint256"
        }
      ],
      "name": "OrderStarted",
      "type": "event"
    },
    {
      "anonymous": false,
      "inputs": [
        {
          "indexed": false,
          "name": "orderTxId",
          "type": "bytes32"
        },
        {
          "indexed": false,
          "name": "consumer",
          "type": "address"
        },
        {
          "indexed": false,
          "name": "amount",
          "type": "uint256"
        },
        {
          "indexed": false,
          "name": "did",
          "type": "bytes32"
        },
        {
          "indexed": false,
          "name": "serviceId",
          "type": "uint256"
        },
        {
          "indexed": false,
          "name": "provider",
          "type": "address"
        }
      ],
      "name": "OrderFinished",
      "type": "event"
    },
    {
      "anonymous": false,
      "inputs": [
        {
          "indexed": true,
          "name": "from",
          "type": "address"
        },
        {
          "indexed": true,
          "name": "to",
          "type": "address"
        },
        {
          "indexed": false,
          "name": "value",
          "type": "uint256"
        }
      ],
      "name": "Transfer",
      "type": "event"
    },
    {
      "anonymous": false,
      "inputs": [
        {
          "indexed": true,
          "name": "owner",
          "type": "address"
        },
        {
          "indexed": true,
          "name": "spender",
          "type": "address"
        },
        {
          "indexed": false,
          "name": "value",
          "type": "uint256"
        }
      ],
      "name": "Approval",
      "type": "event"
    },
    {
      "constant": false,
      "inputs": [
        {
          "name": "name",
          "type": "string"
        },
        {
          "name": "symbol",
          "type": "string"
        },
        {
          "name": "minter",
          "type": "address"
        },
        {
          "name": "cap",
          "type": "uint256"
        },
        {
          "name": "blob",
          "type": "string"
        },
        {
          "name": "feeCollector",
          "type": "address"
        }
      ],
      "name": "initialize",
      "outputs": [
        {
          "name": "",
          "type": "bool"
        }
      ],
      "payable": false,
      "stateMutability": "nonpayable",
      "type": "function"
    },
    {
      "constant": false,
      "inputs": [
        {
          "name": "account",
          "type": "address"
        },
        {
          "name": "value",
          "type": "uint256"
        }
      ],
      "name": "mint",
      "outputs": [],
      "payable": false,
      "stateMutability": "nonpayable",
      "type": "function"
    },
    {
      "constant": false,
      "inputs": [
        {
          "name": "receiver",
          "type": "address"
        },
        {
          "name": "amount",
          "type": "uint256"
        },
        {
          "name": "did",
          "type": "bytes32"
        },
        {
          "name": "serviceId",
          "type": "uint256"
        },
        {
          "name": "feeCollector",
          "type": "address"
        },
        {
          "name": "feePercentage",
          "type": "uint256"
        }
      ],
      "name": "startOrder",
      "outputs": [],
      "payable": false,
      "stateMutability": "nonpayable",
      "type": "function"
    },
    {
      "constant": false,
      "inputs": [
        {
          "name": "orderTxId",
          "type": "bytes32"
        },
        {
          "name": "consumer",
          "type": "address"
        },
        {
          "name": "amount",
          "type": "uint256"
        },
        {
          "name": "did",
          "type": "bytes32"
        },
        {
          "name": "serviceId",
          "type": "uint256"
        }
      ],
      "name": "finishOrder",
      "outputs": [],
      "payable": false,
      "stateMutability": "nonpayable",
      "type": "function"
    },
    {
      "constant": false,
      "inputs": [],
      "name": "pause",
      "outputs": [],
      "payable": false,
      "stateMutability": "nonpayable",
      "type": "function"
    },
    {
      "constant": false,
      "inputs": [],
      "name": "unpause",
      "outputs": [],
      "payable": false,
      "stateMutability": "nonpayable",
      "type": "function"
    },
    {
      "constant": false,
      "inputs": [
        {
          "name": "minter",
          "type": "address"
        }
      ],
      "name": "setMinter",
      "outputs": [],
      "payable": false,
      "stateMutability": "nonpayable",
      "type": "function"
    },
    {
      "constant": true,
      "inputs": [],
      "name": "name",
      "outputs": [
        {
          "name": "",
          "type": "string"
        }
      ],
      "payable": false,
      "stateMutability": "view",
      "type": "function"
    },
    {
      "constant": true,
      "inputs": [],
      "name": "symbol",
      "outputs": [
        {
          "name": "",
          "type": "string"
        }
      ],
      "payable": false,
      "stateMutability": "view",
      "type": "function"
    },
    {
      "constant": true,
      "inputs": [],
      "name": "blob",
      "outputs": [
        {
          "name": "",
          "type": "string"
        }
      ],
      "payable": false,
      "stateMutability": "view",
      "type": "function"
    },
    {
      "constant": true,
      "inputs": [],
      "name": "decimals",
      "outputs": [
        {
          "name": "",
          "type": "uint256"
        }
      ],
      "payable": false,
      "stateMutability": "view",
      "type": "function"
    },
    {
      "constant": true,
      "inputs": [],
      "name": "cap",
      "outputs": [
        {
          "name": "",
          "type": "uint256"
        }
      ],
      "payable": false,
      "stateMutability": "view",
      "type": "function"
    },
    {
      "constant": true,
      "inputs": [
        {
          "name": "account",
          "type": "address"
        }
      ],
      "name": "isMinter",
      "outputs": [
        {
          "name": "",
          "type": "bool"
        }
      ],
      "payable": false,
      "stateMutability": "view",
      "type": "function"
    },
    {
      "constant": true,
      "inputs": [],
      "name": "minter",
      "outputs": [
        {
          "name": "",
          "type": "address"
        }
      ],
      "payable": false,
      "stateMutability": "view",
      "type": "function"
    },
    {
      "constant": true,
      "inputs": [],
      "name": "isInitialized",
      "outputs": [
        {
          "name": "",
          "type": "bool"
        }
      ],
      "payable": false,
      "stateMutability": "view",
      "type": "function"
    },
    {
      "constant": true,
      "inputs": [],
      "name": "isPaused",
      "outputs": [
        {
          "name": "",
          "type": "bool"
        }
      ],
      "payable": false,
      "stateMutability": "view",
      "type": "function"
    },
    {
      "constant": true,
      "inputs": [
        {
          "name": "amount",
          "type": "uint256"
        },
        {
          "name": "feePercentage",
          "type": "uint256"
        }
      ],
      "name": "calculateFee",
      "outputs": [
        {
          "name": "",
          "type": "uint256"
        }
      ],
      "payable": false,
      "stateMutability": "pure",
      "type": "function"
    },
    {
      "constant": true,
      "inputs": [
        {
          "name": "amount",
          "type": "uint256"
        },
        {
          "name": "feePercentage",
          "type": "uint256"
        }
      ],
      "name": "calculateTotalFee",
      "outputs": [
        {
          "name": "",
          "type": "uint256"
        }
      ],
      "payable": false,
      "stateMutability": "pure",
      "type": "function"
    }
  ],
  "bytecode": "0x60806040526003805461ffff191690553480156200001c57600080fd5b506040516200230a3803806200230a833981018060405260c08110156200004257600080fd5b8101908080516401000000008111156200005b57600080fd5b820160208101848111156200006f57600080fd5b81516401000000008111828201871017156200008a57600080fd5b50509291906020018051640100000000811115620000a757600080fd5b82016020810184811115620000bb57600080fd5b8151640100000000811182820187101715620000d657600080fd5b505060208201516040830151606090930180519295919491926401000000008111156200010257600080fd5b820160208101848111156200011657600080fd5b81516401000000008111828201871017156200013157600080fd5b505060209091015190925090506200015786868686868664010000000062000164810204565b5050505050505062000426565b6000600160a060020a038516620001c7576040517f08c379a0000000000000000000000000000000000000000000000000000000008152600401808060200182810382526030815260200180620022476030913960400191505060405180910390fd5b600954600160a060020a0316156200022b576040517f08c379a000000000000000000000000000000000000000000000000000000000815260040180806020018281038252602f815260200180620022db602f913960400191505060405180910390fd5b600160a060020a0382166200028c576040517f08c379a0000000000000000000000000000000000000000000000000000000008152600401808060200182810382526040815260200180620022776040913960400191505060405180910390fd5b60008411620002e7576040517f08c379a0000000000000000000000000000000000000000000000000000000008152600401808060200182810382526024815260200180620022b76024913960400191505060405180910390fd5b601260085560078490558651620003069060049060208a019062000381565b5082516200031c90600690602086019062000381565b5085516200033290600590602089019062000381565b505060098054600160a060020a03958616600160a060020a031991821617909155600a80549290951691161790925550506003805461ff00191661010090811791829055900460ff1692915050565b828054600181600116156101000203166002900490600052602060002090601f016020900481019282601f10620003c457805160ff1916838001178555620003f4565b82800160010185558215620003f4579182015b82811115620003f4578251825591602001919060010190620003d7565b506200040292915062000406565b5090565b6200042391905b808211156200040257600081556001016200040d565b90565b611e1180620004366000396000f3fe608060405234801561001057600080fd5b50600436106101e1576000357c0100000000000000000000000000000000000000000000000000000000900480638456cb5911610116578063b2263a5d116100b4578063ec342ad01161008e578063ec342ad01461065c578063fca3b5aa14610664578063fcff53a71461068a578063fde0e7a8146106ad576101e1565b8063b2263a5d146105e8578063d11ccfb7146105f0578063dd62ed3e1461062e576101e1565b8063a457c2d7116100f0578063a457c2d714610562578063a9059cbb1461058e578063aa271e1a146105ba578063b187bd26146105e0576101e1565b80638456cb59146104205780639070d2f81461042857806395d89b411461055a576101e1565b8063355274ea116101835780633f4ba83a1161015d5780633f4ba83a1461037e57806340c10f19146103885780634836d8dc146103b457806370a08231146103fa576101e1565b8063355274ea14610342578063392e53cd1461034a5780633950935114610352576101e1565b806318160ddd116101bf57806318160ddd146102c757806323b872dd146102e1578063313ce5671461031757806334e731221461031f576101e1565b806306fdde03146101e65780630754617214610263578063095ea7b314610287575b600080fd5b6101ee6106b5565b6040805160208082528351818301528351919283929083019185019080838360005b83811015610228578181015183820152602001610210565b50505050905090810190601f1680156102555780820380516001836020036101000a031916815260200191505b509250505060405180910390f35b61026b61074c565b60408051600160a060020a039092168252519081900360200190f35b6102b36004803603604081101561029d57600080fd5b50600160a060020a03813516906020013561075b565b604080519115158252519081900360200190f35b6102cf6107b6565b60408051918252519081900360200190f35b6102b3600480360360608110156102f757600080fd5b50600160a060020a038135811691602081013590911690604001356107bc565b6102cf610817565b6102cf6004803603604081101561033557600080fd5b508035906020013561081d565b6102cf610847565b6102b361084d565b6102b36004803603604081101561036857600080fd5b50600160a060020a03813516906020013561085b565b6103866108ad565b005b6103866004803603604081101561039e57600080fd5b50600160a060020a038135169060200135610949565b610386600480360360c08110156103ca57600080fd5b50600160a060020a0381358116916020810135916040820135916060810135916080820135169060a00135610a59565b6102cf6004803603602081101561041057600080fd5b5035600160a060020a0316610c1c565b610386610c37565b6102b3600480360360c081101561043e57600080fd5b81019060208101813564010000000081111561045957600080fd5b82018360208201111561046b57600080fd5b8035906020019184600183028401116401000000008311171561048d57600080fd5b9193909290916020810190356401000000008111156104ab57600080fd5b8201836020820111156104bd57600080fd5b803590602001918460018302840111640100000000831117156104df57600080fd5b91939092600160a060020a0383351692602081013592919060608101906040013564010000000081111561051257600080fd5b82018360208201111561052457600080fd5b8035906020019184600183028401116401000000008311171561054657600080fd5b919350915035600160a060020a0316610cd7565b6101ee610ddf565b6102b36004803603604081101561057857600080fd5b50600160a060020a038135169060200135610e40565b6102b3600480360360408110156105a457600080fd5b50600160a060020a038135169060200135610e92565b6102b3600480360360208110156105d057600080fd5b5035600160a060020a0316610ee4565b6102b3610ef8565b6102cf610f01565b610386600480360360a081101561060657600080fd5b50803590600160a060020a036020820135169060408101359060608101359060800135610f0c565b6102cf6004803603604081101561064457600080fd5b50600160a060020a0381358116916020013516610fbd565b6102cf610fe8565b6103866004803603602081101561067a57600080fd5b5035600160a060020a0316610ff4565b6102cf600480360360408110156106a057600080fd5b50803590602001356110b4565b6101ee6110d8565b60048054604080516020601f60026000196101006001881615020190951694909404938401819004810282018101909252828152606093909290918301828280156107415780601f1061071657610100808354040283529160200191610741565b820191906000526020600020905b81548152906001019060200180831161072457829003601f168201915b505050505090505b90565b600954600160a060020a031690565b60035460009060ff16156107a35760405160e560020a62461bcd02815260040180806020018281038252602c815260200180611abf602c913960400191505060405180910390fd5b6107ad8383611139565b90505b92915050565b60025490565b60035460009060ff16156108045760405160e560020a62461bcd02815260040180806020018281038252602c815260200180611abf602c913960400191505060405180910390fd5b61080f848484611156565b949350505050565b60085490565b60006107ad670de0b6b3a764000061083b858563ffffffff6111e316565b9063ffffffff61123f16565b60075490565b600354610100900460ff1690565b60035460009060ff16156108a35760405160e560020a62461bcd02815260040180806020018281038252602c815260200180611abf602c913960400191505060405180910390fd5b6107ad8383611281565b60035460ff166108f15760405160e560020a62461bcd028152600401808060200182810382526030815260200180611d3d6030913960400191505060405180910390fd5b600954600160a060020a0316331461093d5760405160e560020a62461bcd028152600401808060200182810382526021815260200180611b716021913960400191505060405180910390fd5b6003805460ff19169055565b60035460ff161561098e5760405160e560020a62461bcd02815260040180806020018281038252602c815260200180611abf602c913960400191505060405180910390fd5b600954600160a060020a031633146109da5760405160e560020a62461bcd028152600401808060200182810382526021815260200180611b716021913960400191505060405180910390fd5b6007546109f5826109e96107b6565b9063ffffffff6112d516565b1115610a4b576040805160e560020a62461bcd02815260206004820152601f60248201527f44617461546f6b656e54656d706c6174653a2063617020657863656564656400604482015290519081900360640190fd5b610a558282611332565b5050565b600160a060020a038616610aa15760405160e560020a62461bcd02815260040180806020018281038252602b815260200180611bb8602b913960400191505060405180910390fd5b600160a060020a038216610ae95760405160e560020a62461bcd028152600401808060200182810382526030815260200180611d916030913960400191505060405180910390fd5b6000610b02866103e8670de0b6b3a76400005b0461081d565b90506000610b10878461081d565b905086610b23828463ffffffff6112d516565b10610b625760405160e560020a62461bcd02815260040180806020018281038252602f815260200180611b0d602f913960400191505060405180910390fd5b610b8b88610b86610b79858563ffffffff6112d516565b8a9063ffffffff61142516565b610e92565b50610b968482610e92565b50600a54610bad90600160a060020a031683610e92565b506040805188815260208101889052808201879052600160a060020a03808b166060830152436080830152861660a082015260c0810183905290517f234d8c52e37134fb00ac29f125561ed5fea64c79f2203d60d4f4e17afcfb40e99181900360e00190a15050505050505050565b600160a060020a031660009081526020819052604090205490565b60035460ff1615610c7c5760405160e560020a62461bcd02815260040180806020018281038252602c815260200180611abf602c913960400191505060405180910390fd5b600954600160a060020a03163314610cc85760405160e560020a62461bcd028152600401808060200182810382526021815260200180611b716021913960400191505060405180910390fd5b6003805460ff19166001179055565b600354600090610100900460ff1615610d245760405160e560020a62461bcd028152600401808060200182810382526035815260200180611b3c6035913960400191505060405180910390fd5b610dd18a8a8080601f01602080910402602001604051908101604052809392919081815260200183838082843760009201919091525050604080516020601f8e018190048102820181019092528c815292508c91508b908190840183828082843760009201919091525050604080516020601f8b018190048102820181019092528981528c93508b9250908a908a90819084018382808284376000920191909152508a9250611467915050565b9a9950505050505050505050565b60058054604080516020601f60026000196101006001881615020190951694909404938401819004810282018101909252828152606093909290918301828280156107415780601f1061071657610100808354040283529160200191610741565b60035460009060ff1615610e885760405160e560020a62461bcd02815260040180806020018281038252602c815260200180611abf602c913960400191505060405180910390fd5b6107ad8383611627565b60035460009060ff1615610eda5760405160e560020a62461bcd02815260040180806020018281038252602c815260200180611abf602c913960400191505060405180910390fd5b6107ad8383611695565b600954600160a060020a0391821691161490565b60035460ff1690565b66038d7ea4c6800081565b8215610f5a57610f1c8484610e92565b610f5a5760405160e560020a62461bcd028152600401808060200182810382526029815260200180611be36029913960400191505060405180910390fd5b60408051868152600160a060020a038616602082015280820185905260608101849052608081018390523360a082015290517f42150fdd49b467ae7aced88ce19fbcec3a999171cc3f4631935dad3542fda3e49181900360c00190a15050505050565b600160a060020a03918216600090815260016020908152604080832093909416825291909152205490565b670de0b6b3a764000081565b60035460ff16156110395760405160e560020a62461bcd02815260040180806020018281038252602c815260200180611abf602c913960400191505060405180910390fd5b600954600160a060020a031633146110855760405160e560020a62461bcd028152600401808060200182810382526021815260200180611b716021913960400191505060405180910390fd5b6009805473ffffffffffffffffffffffffffffffffffffffff1916600160a060020a0392909216919091179055565b60006107ad6110c3848461081d565b6109e9856103e8670de0b6b3a7640000610afc565b60068054604080516020601f60026000196101006001881615020190951694909404938401819004810282018101909252828152606093909290918301828280156107415780601f1061071657610100808354040283529160200191610741565b600061114d6111466116a9565b84846116ad565b50600192915050565b600061116384848461179f565b6111d98461116f6116a9565b6111d485604051806060016040528060288152602001611cc160289139600160a060020a038a166000908152600160205260408120906111ad6116a9565b600160a060020a03168152602081019190915260400160002054919063ffffffff61190116565b6116ad565b5060019392505050565b6000826111f2575060006107b0565b828202828482816111ff57fe5b04146107ad5760405160e560020a62461bcd028152600401808060200182810382526021815260200180611c7c6021913960400191505060405180910390fd5b60006107ad83836040518060400160405280601a81526020017f536166654d6174683a206469766973696f6e206279207a65726f00000000000081525061199b565b600061114d61128e6116a9565b846111d4856001600061129f6116a9565b600160a060020a03908116825260208083019390935260409182016000908120918c16815292529020549063ffffffff6112d516565b6000828201838110156107ad576040805160e560020a62461bcd02815260206004820152601b60248201527f536166654d6174683a206164646974696f6e206f766572666c6f770000000000604482015290519081900360640190fd5b600160a060020a038216611390576040805160e560020a62461bcd02815260206004820152601f60248201527f45524332303a206d696e7420746f20746865207a65726f206164647265737300604482015290519081900360640190fd5b6002546113a3908263ffffffff6112d516565b600255600160a060020a0382166000908152602081905260409020546113cf908263ffffffff6112d516565b600160a060020a0383166000818152602081815260408083209490945583518581529351929391927fddf252ad1be2c89b69c2b068fc378daa952ba7f163c4a11628f55a4df523b3ef9281900390910190a35050565b60006107ad83836040518060400160405280601e81526020017f536166654d6174683a207375627472616374696f6e206f766572666c6f770000815250611901565b6000600160a060020a0385166114b15760405160e560020a62461bcd028152600401808060200182810382526030815260200180611c0c6030913960400191505060405180910390fd5b600954600160a060020a0316156114fc5760405160e560020a62461bcd02815260040180806020018281038252602f815260200180611ce9602f913960400191505060405180910390fd5b600160a060020a0382166115445760405160e560020a62461bcd028152600401808060200182810382526040815260200180611c3c6040913960400191505060405180910390fd5b600084116115865760405160e560020a62461bcd028152600401808060200182810382526024815260200180611c9d6024913960400191505060405180910390fd5b6012600855600784905586516115a39060049060208a0190611a03565b5082516115b7906006906020860190611a03565b5085516115cb906005906020890190611a03565b505060098054600160a060020a0395861673ffffffffffffffffffffffffffffffffffffffff1991821617909155600a80549290951691161790925550506003805461ff00191661010090811791829055900460ff1692915050565b600061114d6116346116a9565b846111d485604051806060016040528060258152602001611dc1602591396001600061165e6116a9565b600160a060020a03908116825260208083019390935260409182016000908120918d1681529252902054919063ffffffff61190116565b600061114d6116a26116a9565b848461179f565b3390565b600160a060020a0383166116f55760405160e560020a62461bcd028152600401808060200182810382526024815260200180611d6d6024913960400191505060405180910390fd5b600160a060020a03821661173d5760405160e560020a62461bcd028152600401808060200182810382526022815260200180611aeb6022913960400191505060405180910390fd5b600160a060020a03808416600081815260016020908152604080832094871680845294825291829020859055815185815291517f8c5be1e5ebec7d5bd14f71427d1e84f3dd0314c0f7b2291e5b200ac8c7c3b9259281900390910190a3505050565b600160a060020a0383166117e75760405160e560020a62461bcd028152600401808060200182810382526025815260200180611d186025913960400191505060405180910390fd5b600160a060020a03821661182f5760405160e560020a62461bcd028152600401808060200182810382526023815260200180611a9c6023913960400191505060405180910390fd5b61187281604051806060016040528060268152602001611b9260269139600160a060020a038616600090815260208190526040902054919063ffffffff61190116565b600160a060020a0380851660009081526020819052604080822093909355908416815220546118a7908263ffffffff6112d516565b600160a060020a038084166000818152602081815260409182902094909455805185815290519193928716927fddf252ad1be2c89b69c2b068fc378daa952ba7f163c4a11628f55a4df523b3ef92918290030190a3505050565b600081848411156119935760405160e560020a62461bcd0281526004018080602001828103825283818151815260200191508051906020019080838360005b83811015611958578181015183820152602001611940565b50505050905090810190601f1680156119855780820380516001836020036101000a031916815260200191505b509250505060405180910390fd5b505050900390565b600081836119ed5760405160e560020a62461bcd028152602060048201818152835160248401528351909283926044909101919085019080838360008315611958578181015183820152602001611940565b5060008385816119f957fe5b0495945050505050565b828054600181600116156101000203166002900490600052602060002090601f016020900481019282601f10611a4457805160ff1916838001178555611a71565b82800160010185558215611a71579182015b82811115611a71578251825591602001919060010190611a56565b50611a7d929150611a81565b5090565b61074991905b80821115611a7d5760008155600101611a8756fe45524332303a207472616e7366657220746f20746865207a65726f206164647265737345524332305061757361626c653a207468697320746f6b656e20636f6e74726163742069732070617573656445524332303a20617070726f766520746f20746865207a65726f206164647265737344617461546f6b656e54656d706c6174653a20746f74616c2066656520657863656564732074686520616d6f756e7444617461546f6b656e54656d706c6174653a20746f6b656e20696e7374616e636520616c726561647920696e697469616c697a656444617461546f6b656e54656d706c6174653a20696e76616c6964206d696e74657245524332303a207472616e7366657220616d6f756e7420657863656564732062616c616e636544617461546f6b656e54656d706c6174653a20696e76616c6964207265636569766572206164647265737344617461546f6b656e54656d706c6174653a206661696c656420746f2066696e697368206f7264657244617461546f6b656e54656d706c6174653a20496e76616c6964206d696e7465722c20207a65726f206164647265737344617461546f6b656e54656d706c6174653a20496e76616c696420636f6d6d756e6974792066656520636f6c6c6563746f722c207a65726f2061646472657373536166654d6174683a206d756c7469706c69636174696f6e206f766572666c6f7744617461546f6b656e54656d706c6174653a20496e76616c6964206361702076616c756545524332303a207472616e7366657220616d6f756e74206578636565647320616c6c6f77616e636544617461546f6b656e54656d706c6174653a20496e76616c6964206d696e7465722c207a65726f206164647265737345524332303a207472616e736665722066726f6d20746865207a65726f206164647265737345524332305061757361626c653a207468697320746f6b656e20636f6e7472616374206973206e6f742070617573656445524332303a20617070726f76652066726f6d20746865207a65726f206164647265737344617461546f6b656e54656d706c6174653a20696e76616c69642066656520636f6c6c6563746f72206164647265737345524332303a2064656372656173656420616c6c6f77616e63652062656c6f77207a65726fa165627a7a7230582014588037ea23c7b6943bd2a149a20204649d3ae0759376cd533da45a2ee6409f002944617461546f6b656e54656d706c6174653a20496e76616c6964206d696e7465722c20207a65726f206164647265737344617461546f6b656e54656d706c6174653a20496e76616c696420636f6d6d756e6974792066656520636f6c6c6563746f722c207a65726f206164647265737344617461546f6b656e54656d706c6174653a20496e76616c6964206361702076616c756544617461546f6b656e54656d706c6174653a20496e76616c6964206d696e7465722c207a65726f2061646472657373",
  "source": "pragma solidity ^0.5.7;\n// Copyright BigchainDB GmbH and Ocean Protocol contributors\n// SPDX-License-Identifier: (Apache-2.0 AND CC-BY-4.0)\n// Code is Apache-2.0 and docs are CC-BY-4.0\n\nimport './token/ERC20Pausable.sol';\nimport '../interfaces/IERC20Template.sol';\n\n/**\n* @title DataTokenTemplate\n*  \n* @dev DataTokenTemplate is an ERC20 compliant token template\n*      Used by the factory contract as a bytecode reference to \n*      deploy new DataTokens.\n*/\ncontract DataTokenTemplate is IERC20Template, ERC20Pausable {\n    using SafeMath for uint256;\n    \n    bool    private initialized = false;\n    string  private _name;\n    string  private _symbol;\n    string  private _blob;\n    uint256 private _cap;\n    uint256 private _decimals;\n    address private _minter;\n    address private _communityFeeCollector;\n    uint256 public constant BASE = 10**18;\n    uint256 public constant BASE_COMMUNITY_FEE_PERCENTAGE = BASE / 1000;\n\n    event OrderStarted(\n            uint256 amount, \n            bytes32 did, \n            uint256 serviceId, \n            address receiver, \n            uint256 startedAt,\n            address feeCollector,\n            uint256 marketFee\n    );\n\n    event OrderFinished(\n            bytes32 orderTxId, \n            address consumer, \n            uint256 amount, \n            bytes32 did, \n            uint256 serviceId, \n            address provider\n    );\n\n    modifier onlyNotInitialized() {\n        require(\n            !initialized,\n            'DataTokenTemplate: token instance already initialized'\n        );\n        _;\n    }\n    \n    modifier onlyMinter() {\n        require(\n            msg.sender == _minter,\n            'DataTokenTemplate: invalid minter' \n        );\n        _;\n    }\n\n    /**\n     * @dev constructor\n     *      Called prior contract deployment\n     * @param name refers to a template DataToken name\n     * @param symbol refers to a template DataToken symbol\n     * @param minter refers to an address that has minter role\n     * @param cap the total ERC20 cap\n     * @param blob data string refering to the resolver for the DID\n     * @param feeCollector it is the community fee collector address\n     */\n    constructor(\n        string memory name,\n        string memory symbol,\n        address minter,\n        uint256 cap,\n        string memory blob,\n        address feeCollector\n    )\n        public\n    {\n        _initialize(\n            name,\n            symbol,\n            minter,\n            cap,\n            blob,\n            feeCollector\n        );\n    }\n    \n    /**\n     * @dev initialize\n     *      Called prior contract initialization (e.g creating new DataToken instance)\n     *      Calls private _initialize function. Only if contract is not initialized.\n     * @param name refers to a new DataToken name\n     * @param symbol refers to a nea DataToken symbol\n     * @param minter refers to an address that has minter rights\n     * @param cap the total ERC20 cap\n     * @param blob data string refering to the resolver for the DID\n     * @param feeCollector it is the community fee collector address\n     */\n    function initialize(\n        string calldata name,\n        string calldata symbol,\n        address minter,\n        uint256 cap,\n        string calldata blob,\n        address feeCollector\n    ) \n        external\n        onlyNotInitialized\n        returns(bool)\n    {\n        return _initialize(\n            name,\n            symbol,\n            minter,\n            cap,\n            blob,\n            feeCollector\n        );\n    }\n\n    /**\n     * @dev _initialize\n     *      Private function called on contract initialization.\n     * @param name refers to a new DataToken name\n     * @param symbol refers to a nea DataToken symbol\n     * @param minter refers to an address that has minter rights\n     * @param cap the total ERC20 cap\n     * @param blob data string refering to the resolver for the DID\n     * @param feeCollector it is the community fee collector address\n     */\n    function _initialize(\n        string memory name,\n        string memory symbol,\n        address minter,\n        uint256 cap,\n        string memory blob,\n        address feeCollector\n    )\n        private\n        returns(bool)\n    {\n        require(\n            minter != address(0), \n            'DataTokenTemplate: Invalid minter,  zero address'\n        );\n\n        require(\n            _minter == address(0), \n            'DataTokenTemplate: Invalid minter, zero address'\n        );\n\n        require(\n            feeCollector != address(0),\n            'DataTokenTemplate: Invalid community fee collector, zero address'\n        );\n\n        require(\n            cap > 0,\n            'DataTokenTemplate: Invalid cap value'\n        );\n        \n        _decimals = 18;\n        _cap = cap;\n        _name = name;\n        _blob = blob;\n        _symbol = symbol;\n        _minter = minter;\n        _communityFeeCollector = feeCollector;\n        initialized = true;\n        return initialized;\n    }\n\n    /**\n     * @dev mint\n     *      Only the minter address can call it.\n     *      msg.value should be higher than zero and gt or eq minting fee\n     * @param account refers to an address that token is going to be minted to.\n     * @param value refers to amount of tokens that is going to be minted.\n     */\n    function mint(\n        address account,\n        uint256 value\n    ) \n        external \n        onlyNotPaused \n        onlyMinter \n    {\n        require(\n            totalSupply().add(value) <= _cap, \n            'DataTokenTemplate: cap exceeded'\n        );\n        _mint(account, value);\n    }\n\n    /**\n     * @dev startOrder\n     *      called by consumer prior ordering a service consume on a marketplace\n     * @param receiver refers to an address that provide a service.\n     * @param amount refers to amount of tokens that is going to be transfered.\n     * @param did refers to DID or decentralized identifier for an asset\n     * @param serviceId service index in the DID\n     * @param feeCollector marketplace fee collector\n     * @param feePercentage marketplace fee percentage\n     */\n    function startOrder(\n        address receiver, \n        uint256 amount,\n        bytes32 did,\n        uint256 serviceId,\n        address feeCollector,\n        uint256 feePercentage\n    )\n        external\n    {\n        require(\n            receiver != address(0),\n            'DataTokenTemplate: invalid receiver address'\n        );\n\n        require(\n            feeCollector != address(0),\n            'DataTokenTemplate: invalid fee collector address'\n        );\n\n        uint256 communityFee = calculateFee(\n            amount, \n            BASE_COMMUNITY_FEE_PERCENTAGE\n        );\n        uint256 marketFee = calculateFee(amount, feePercentage);\n        \n        require(\n            marketFee.add(communityFee) < amount,\n            'DataTokenTemplate: total fee exceeds the amount'\n        );\n        \n        transfer(receiver, amount.sub(communityFee.add(marketFee)));\n        transfer(feeCollector, marketFee);\n        transfer(_communityFeeCollector, communityFee);\n\n        emit OrderStarted(\n            amount,\n            did,\n            serviceId,\n            receiver,\n            block.number,\n            feeCollector,\n            marketFee\n        );\n    }\n\n    /**\n     * @dev finishOrder\n     *      called by provider prior completing service delivery only\n     *      if there is a partial or full refund.\n     * @param orderTxId refers to the transaction Id  of startOrder acts \n     *                  as a payment reference.\n     * @param consumer refers to an address that has consumed that service.\n     * @param amount refers to amount of tokens that is going to be transfered.\n     * @param did refers to DID or decentralized identifier for an asset.\n     * @param serviceId service index in the DID.\n     */\n    function finishOrder(\n        bytes32 orderTxId, \n        address consumer, \n        uint256 amount,\n        bytes32 did, \n        uint256 serviceId\n    )\n        external\n    {\n        if ( amount > 0 )  \n            require(\n                transfer(consumer, amount),\n                'DataTokenTemplate: failed to finish order'\n            );\n\n        emit OrderFinished(\n            orderTxId, \n            consumer, \n            amount, \n            did, \n            serviceId, \n            msg.sender\n        );\n    }\n\n    /**\n     * @dev pause\n     *      It pauses the contract functionalities (transfer, mint, etc)\n     *      Only could be called if the contract is not already paused.\n     *      Only called by the minter address.\n     */\n    function pause() external onlyNotPaused onlyMinter {\n        paused = true;\n    }\n\n    /**\n     * @dev unpause\n     *      It unpauses the contract.\n     *      Only called if the contract is paused.\n     *      Only minter can call it.\n     */\n    function unpause() external onlyPaused onlyMinter {\n        paused = false;\n    }\n\n    /**\n     * @dev setMinter\n     *      It sets a new token minter address.\n     *      Only called be called if the contract is not paused.\n     *      Only the current minter can call it.\n     * @param minter refers to a new token minter address.\n     */\n    function setMinter(address minter) external onlyNotPaused onlyMinter {\n        _minter = minter;\n    }\n\n    /**\n     * @dev name\n     *      It returns the token name.\n     * @return DataToken name.\n     */\n    function name() external view returns(string memory) {\n        return _name;\n    }\n\n    /**\n     * @dev symbol\n     *      It returns the token symbol.\n     * @return DataToken symbol.\n     */\n    function symbol() external view returns(string memory) {\n        return _symbol;\n    }\n\n    /**\n     * @dev blob\n     *      It returns the blob (e.g https://123.com).\n     * @return DataToken blob.\n     */\n    function blob() external view returns(string memory) {\n        return _blob;\n    }\n\n    /**\n     * @dev decimals\n     *      It returns the token decimals.\n     *      how many supported decimal points\n     * @return DataToken decimals.\n     */\n    function decimals() external view returns(uint256) {\n        return _decimals;\n    }\n\n    /**\n     * @dev cap\n     *      it returns the capital.\n     * @return DataToken cap.\n     */\n    function cap() external view returns (uint256) {\n        return _cap;\n    }\n\n    /**\n     * @dev isMinter\n     *      It takes the address and checks whether it has a minter role.\n     * @param account refers to the address.\n     * @return true if account has a minter role.\n     */\n    function isMinter(address account) external view returns(bool) {\n        return (_minter == account);\n    } \n\n    /**\n     * @dev minter\n     * @return minter's address.\n     */\n    function minter()\n        external\n        view \n        returns(address)\n    {\n        return _minter;\n    }\n\n    /**\n     * @dev isInitialized\n     *      It checks whether the contract is initialized.\n     * @return true if the contract is initialized.\n     */ \n    function isInitialized() external view returns(bool) {\n        return initialized;\n    }\n\n    /**\n     * @dev isPaused\n     *      Function checks if the contract is paused.\n     * @return true if the contract is paused.\n     */ \n    function isPaused() external view returns(bool) {\n        return paused;\n    }\n\n    /**\n     * @dev calculateFee\n     *      giving a fee percentage, and amount it calculates the actual fee\n     * @param amount the amount of token\n     * @param feePercentage the fee percentage \n     * @return the token fee.\n     */ \n    function calculateFee(\n        uint256 amount,\n        uint256 feePercentage\n    )\n        public\n        pure\n        returns(uint256)\n    {\n        return amount.mul(feePercentage).div(BASE);\n    }\n\n     /**\n     * @dev calculateTotalFee\n     *      giving a fee percentage, and amount it calculates \n     *      the total fee (including the community fee) needed for order.\n     * @param amount the amount of token\n     * @param feePercentage the fee percentage \n     * @return the total order fee.\n     */ \n    function calculateTotalFee(\n        uint256 amount,\n        uint256 feePercentage\n    )\n        external\n        pure\n        returns(uint256)\n    {\n        return calculateFee(amount, BASE_COMMUNITY_FEE_PERCENTAGE).add(\n            calculateFee(amount, feePercentage)\n        );\n    }\n}",
  "sourcePath": "/Users/ahmedali/Desktop/work/ocean-contracts/contracts/templates/DataTokenTemplate.sol",
  "compiler": {
    "name": "solc",
    "version": "0.5.7+commit.6da8b019.Emscripten.clang"
  },
  "schemaVersion": "3.2.0",
  "updatedAt": "2020-09-21T09:41:09.387Z",
  "devdoc": {
    "details": "DataTokenTemplate is an ERC20 compliant token template     Used by the factory contract as a bytecode reference to      deploy new DataTokens.",
    "methods": {
      "allowance(address,address)": {
        "details": "See {IERC20-allowance}."
      },
      "approve(address,uint256)": {
        "details": "approve     Standard ERC20 approve function with onlyNotPaused modifier.     Can be called only if the contract is not paused.",
        "params": {
          "spender": "refers to an address that is allowed to spend tokens.",
          "value": "refers to amount of tokens that could be spent."
        },
        "return": "true if approval is success, false otherwise."
      },
      "balanceOf(address)": {
        "details": "See {IERC20-balanceOf}."
      },
      "blob()": {
        "details": "blob     It returns the blob (e.g https://123.com).",
        "return": "DataToken blob."
      },
      "calculateFee(uint256,uint256)": {
        "details": "calculateFee     giving a fee percentage, and amount it calculates the actual fee",
        "params": {
          "amount": "the amount of token",
          "feePercentage": "the fee percentage "
        },
        "return": "the token fee."
      },
      "calculateTotalFee(uint256,uint256)": {
        "details": "calculateTotalFee     giving a fee percentage, and amount it calculates      the total fee (including the community fee) needed for order.",
        "params": {
          "amount": "the amount of token",
          "feePercentage": "the fee percentage "
        },
        "return": "the total order fee."
      },
      "cap()": {
        "details": "cap     it returns the capital.",
        "return": "DataToken cap."
      },
      "constructor": {
        "details": "constructor     Called prior contract deployment",
        "params": {
          "blob": "data string refering to the resolver for the DID",
          "cap": "the total ERC20 cap",
          "feeCollector": "it is the community fee collector address",
          "minter": "refers to an address that has minter role",
          "name": "refers to a template DataToken name",
          "symbol": "refers to a template DataToken symbol"
        }
      },
      "decimals()": {
        "details": "decimals     It returns the token decimals.     how many supported decimal points",
        "return": "DataToken decimals."
      },
      "decreaseAllowance(address,uint256)": {
        "details": "decreaseAllowance     Standard ERC20 decreaseAllowance function with onlyNotPaused modifier.     Can be called only if the contract is not paused.",
        "params": {
          "spender": "refers to an address that is allowed to spend tokens.",
          "subtractedValue": "refers to an subtracted amount of tokens that could be spent."
        },
        "return": "true if allowance is decreased successfully, false otherwise."
      },
      "finishOrder(bytes32,address,uint256,bytes32,uint256)": {
        "details": "finishOrder     called by provider prior completing service delivery only     if there is a partial or full refund.",
        "params": {
          "amount": "refers to amount of tokens that is going to be transfered.",
          "consumer": "refers to an address that has consumed that service.",
          "did": "refers to DID or decentralized identifier for an asset.",
          "orderTxId": "refers to the transaction Id  of startOrder acts                  as a payment reference.",
          "serviceId": "service index in the DID."
        }
      },
      "increaseAllowance(address,uint256)": {
        "details": "increaseAllowance     Standard ERC20 increaseAllowance function with onlyNotPaused modifier.     Can be called only if the contract is not paused.",
        "params": {
          "addedValue": "refers to an added amount of tokens that could be spent.",
          "spender": "refers to an address that is allowed to spend tokens."
        },
        "return": "true if allowance is increased successfully, false otherwise."
      },
      "initialize(string,string,address,uint256,string,address)": {
        "details": "initialize     Called prior contract initialization (e.g creating new DataToken instance)     Calls private _initialize function. Only if contract is not initialized.",
        "params": {
          "blob": "data string refering to the resolver for the DID",
          "cap": "the total ERC20 cap",
          "feeCollector": "it is the community fee collector address",
          "minter": "refers to an address that has minter rights",
          "name": "refers to a new DataToken name",
          "symbol": "refers to a nea DataToken symbol"
        }
      },
      "isInitialized()": {
        "details": "isInitialized     It checks whether the contract is initialized.",
        "return": "true if the contract is initialized."
      },
      "isMinter(address)": {
        "details": "isMinter     It takes the address and checks whether it has a minter role.",
        "params": {
          "account": "refers to the address."
        },
        "return": "true if account has a minter role."
      },
      "isPaused()": {
        "details": "isPaused     Function checks if the contract is paused.",
        "return": "true if the contract is paused."
      },
      "mint(address,uint256)": {
        "details": "mint     Only the minter address can call it.     msg.value should be higher than zero and gt or eq minting fee",
        "params": {
          "account": "refers to an address that token is going to be minted to.",
          "value": "refers to amount of tokens that is going to be minted."
        }
      },
      "minter()": {
        "details": "minter",
        "return": "minter's address."
      },
      "name()": {
        "details": "name     It returns the token name.",
        "return": "DataToken name."
      },
      "pause()": {
        "details": "pause     It pauses the contract functionalities (transfer, mint, etc)     Only could be called if the contract is not already paused.     Only called by the minter address."
      },
      "setMinter(address)": {
        "details": "setMinter     It sets a new token minter address.     Only called be called if the contract is not paused.     Only the current minter can call it.",
        "params": {
          "minter": "refers to a new token minter address."
        }
      },
      "startOrder(address,uint256,bytes32,uint256,address,uint256)": {
        "details": "startOrder     called by consumer prior ordering a service consume on a marketplace",
        "params": {
          "amount": "refers to amount of tokens that is going to be transfered.",
          "did": "refers to DID or decentralized identifier for an asset",
          "feeCollector": "marketplace fee collector",
          "feePercentage": "marketplace fee percentage",
          "receiver": "refers to an address that provide a service.",
          "serviceId": "service index in the DID"
        }
      },
      "symbol()": {
        "details": "symbol     It returns the token symbol.",
        "return": "DataToken symbol."
      },
      "totalSupply()": {
        "details": "See {IERC20-totalSupply}."
      },
      "transfer(address,uint256)": {
        "details": "transfer     Standard ERC20 transfer function with onlyNotPaused modifier.     Can be called only if the contract is not paused.",
        "params": {
          "to": "refers to an address that tokens are tranfered to.",
          "value": "refers to amount of tokens being tranfered."
        },
        "return": "true if transfer is success, false otherwise."
      },
      "transferFrom(address,address,uint256)": {
        "details": "transfer     Standard ERC20 transferFrom function with onlyNotPaused modifier.     Can be called only if the contract is not paused.",
        "params": {
          "from": "refers to an address that tokens are tranfered from.",
          "to": "refers to an address that tokens are tranfered to.",
          "value": "refers to amount of tokens being tranfered."
        },
        "return": "true if transfer is success, false otherwise."
      },
      "unpause()": {
        "details": "unpause     It unpauses the contract.     Only called if the contract is paused.     Only minter can call it."
      }
    },
    "title": "DataTokenTemplate "
  },
  "userdoc": {
    "methods": {}
  }
}