{
  "contractName": "DataTokenTemplate",
  "abi": [
    {
      "constant": false,
      "inputs": [
        {
          "name": "spender",
          "type": "address"
        },
        {
          "name": "value",
          "type": "uint256"
        }
      ],
      "name": "approve",
      "outputs": [
        {
          "name": "",
          "type": "bool"
        }
      ],
      "payable": false,
      "stateMutability": "nonpayable",
      "type": "function"
    },
    {
      "constant": true,
      "inputs": [],
      "name": "totalSupply",
      "outputs": [
        {
          "name": "",
          "type": "uint256"
        }
      ],
      "payable": false,
      "stateMutability": "view",
      "type": "function"
    },
    {
      "constant": false,
      "inputs": [
        {
          "name": "from",
          "type": "address"
        },
        {
          "name": "to",
          "type": "address"
        },
        {
          "name": "value",
          "type": "uint256"
        }
      ],
      "name": "transferFrom",
      "outputs": [
        {
          "name": "",
          "type": "bool"
        }
      ],
      "payable": false,
      "stateMutability": "nonpayable",
      "type": "function"
    },
    {
      "constant": true,
      "inputs": [],
      "name": "BASE_MARKET_FEE_PERCENTAGE",
      "outputs": [
        {
          "name": "",
          "type": "uint256"
        }
      ],
      "payable": false,
      "stateMutability": "view",
      "type": "function"
    },
    {
      "constant": false,
      "inputs": [
        {
          "name": "spender",
          "type": "address"
        },
        {
          "name": "addedValue",
          "type": "uint256"
        }
      ],
      "name": "increaseAllowance",
      "outputs": [
        {
          "name": "",
          "type": "bool"
        }
      ],
      "payable": false,
      "stateMutability": "nonpayable",
      "type": "function"
    },
    {
      "constant": true,
      "inputs": [
        {
          "name": "account",
          "type": "address"
        }
      ],
      "name": "balanceOf",
      "outputs": [
        {
          "name": "",
          "type": "uint256"
        }
      ],
      "payable": false,
      "stateMutability": "view",
      "type": "function"
    },
    {
      "constant": false,
      "inputs": [
        {
          "name": "spender",
          "type": "address"
        },
        {
          "name": "subtractedValue",
          "type": "uint256"
        }
      ],
      "name": "decreaseAllowance",
      "outputs": [
        {
          "name": "",
          "type": "bool"
        }
      ],
      "payable": false,
      "stateMutability": "nonpayable",
      "type": "function"
    },
    {
      "constant": false,
      "inputs": [
        {
          "name": "to",
          "type": "address"
        },
        {
          "name": "value",
          "type": "uint256"
        }
      ],
      "name": "transfer",
      "outputs": [
        {
          "name": "",
          "type": "bool"
        }
      ],
      "payable": false,
      "stateMutability": "nonpayable",
      "type": "function"
    },
    {
      "constant": true,
      "inputs": [],
      "name": "BASE_COMMUNITY_FEE_PERCENTAGE",
      "outputs": [
        {
          "name": "",
          "type": "uint256"
        }
      ],
      "payable": false,
      "stateMutability": "view",
      "type": "function"
    },
    {
      "constant": true,
      "inputs": [
        {
          "name": "owner",
          "type": "address"
        },
        {
          "name": "spender",
          "type": "address"
        }
      ],
      "name": "allowance",
      "outputs": [
        {
          "name": "",
          "type": "uint256"
        }
      ],
      "payable": false,
      "stateMutability": "view",
      "type": "function"
    },
    {
      "constant": true,
      "inputs": [],
      "name": "BASE",
      "outputs": [
        {
          "name": "",
          "type": "uint256"
        }
      ],
      "payable": false,
      "stateMutability": "view",
      "type": "function"
    },
    {
      "inputs": [
        {
          "name": "name",
          "type": "string"
        },
        {
          "name": "symbol",
          "type": "string"
        },
        {
          "name": "minterAddress",
          "type": "address"
        },
        {
          "name": "cap",
          "type": "uint256"
        },
        {
          "name": "blob",
          "type": "string"
        },
        {
          "name": "feeCollector",
          "type": "address"
        }
      ],
      "payable": false,
      "stateMutability": "nonpayable",
      "type": "constructor"
    },
    {
      "anonymous": false,
      "inputs": [
        {
          "indexed": false,
          "name": "amount",
          "type": "uint256"
        },
        {
          "indexed": false,
          "name": "serviceId",
          "type": "uint256"
        },
        {
          "indexed": false,
          "name": "startedAt",
          "type": "uint256"
        },
        {
          "indexed": true,
          "name": "mrktFeeCollector",
          "type": "address"
        },
        {
          "indexed": false,
          "name": "marketFee",
          "type": "uint256"
        }
      ],
      "name": "OrderStarted",
      "type": "event"
    },
    {
      "anonymous": false,
      "inputs": [
        {
          "indexed": false,
          "name": "orderTxId",
          "type": "bytes32"
        },
        {
          "indexed": true,
          "name": "consumer",
          "type": "address"
        },
        {
          "indexed": false,
          "name": "amount",
          "type": "uint256"
        },
        {
          "indexed": false,
          "name": "serviceId",
          "type": "uint256"
        },
        {
          "indexed": true,
          "name": "provider",
          "type": "address"
        }
      ],
      "name": "OrderFinished",
      "type": "event"
    },
    {
      "anonymous": false,
      "inputs": [
        {
          "indexed": false,
          "name": "currentMinter",
          "type": "address"
        },
        {
          "indexed": false,
          "name": "newMinter",
          "type": "address"
        }
      ],
      "name": "MinterProposed",
      "type": "event"
    },
    {
      "anonymous": false,
      "inputs": [
        {
          "indexed": false,
          "name": "currentMinter",
          "type": "address"
        },
        {
          "indexed": false,
          "name": "newMinter",
          "type": "address"
        }
      ],
      "name": "MinterApproved",
      "type": "event"
    },
    {
      "anonymous": false,
      "inputs": [
        {
          "indexed": true,
          "name": "from",
          "type": "address"
        },
        {
          "indexed": true,
          "name": "to",
          "type": "address"
        },
        {
          "indexed": false,
          "name": "value",
          "type": "uint256"
        }
      ],
      "name": "Transfer",
      "type": "event"
    },
    {
      "anonymous": false,
      "inputs": [
        {
          "indexed": true,
          "name": "owner",
          "type": "address"
        },
        {
          "indexed": true,
          "name": "spender",
          "type": "address"
        },
        {
          "indexed": false,
          "name": "value",
          "type": "uint256"
        }
      ],
      "name": "Approval",
      "type": "event"
    },
    {
      "constant": false,
      "inputs": [
        {
          "name": "name",
          "type": "string"
        },
        {
          "name": "symbol",
          "type": "string"
        },
        {
          "name": "minterAddress",
          "type": "address"
        },
        {
          "name": "cap",
          "type": "uint256"
        },
        {
          "name": "blob",
          "type": "string"
        },
        {
          "name": "feeCollector",
          "type": "address"
        }
      ],
      "name": "initialize",
      "outputs": [
        {
          "name": "",
          "type": "bool"
        }
      ],
      "payable": false,
      "stateMutability": "nonpayable",
      "type": "function"
    },
    {
      "constant": false,
      "inputs": [
        {
          "name": "account",
          "type": "address"
        },
        {
          "name": "value",
          "type": "uint256"
        }
      ],
      "name": "mint",
      "outputs": [],
      "payable": false,
      "stateMutability": "nonpayable",
      "type": "function"
    },
    {
      "constant": false,
      "inputs": [
        {
          "name": "amount",
          "type": "uint256"
        },
        {
          "name": "serviceId",
          "type": "uint256"
        },
        {
          "name": "mrktFeeCollector",
          "type": "address"
        }
      ],
      "name": "startOrder",
      "outputs": [],
      "payable": false,
      "stateMutability": "nonpayable",
      "type": "function"
    },
    {
      "constant": false,
      "inputs": [
        {
          "name": "orderTxId",
          "type": "bytes32"
        },
        {
          "name": "consumer",
          "type": "address"
        },
        {
          "name": "amount",
          "type": "uint256"
        },
        {
          "name": "serviceId",
          "type": "uint256"
        }
      ],
      "name": "finishOrder",
      "outputs": [],
      "payable": false,
      "stateMutability": "nonpayable",
      "type": "function"
    },
    {
      "constant": false,
      "inputs": [],
      "name": "pause",
      "outputs": [],
      "payable": false,
      "stateMutability": "nonpayable",
      "type": "function"
    },
    {
      "constant": false,
      "inputs": [],
      "name": "unpause",
      "outputs": [],
      "payable": false,
      "stateMutability": "nonpayable",
      "type": "function"
    },
    {
      "constant": false,
      "inputs": [
        {
          "name": "newMinter",
          "type": "address"
        }
      ],
      "name": "proposeMinter",
      "outputs": [],
      "payable": false,
      "stateMutability": "nonpayable",
      "type": "function"
    },
    {
      "constant": false,
      "inputs": [],
      "name": "approveMinter",
      "outputs": [],
      "payable": false,
      "stateMutability": "nonpayable",
      "type": "function"
    },
    {
      "constant": true,
      "inputs": [],
      "name": "name",
      "outputs": [
        {
          "name": "",
          "type": "string"
        }
      ],
      "payable": false,
      "stateMutability": "view",
      "type": "function"
    },
    {
      "constant": true,
      "inputs": [],
      "name": "symbol",
      "outputs": [
        {
          "name": "",
          "type": "string"
        }
      ],
      "payable": false,
      "stateMutability": "view",
      "type": "function"
    },
    {
      "constant": true,
      "inputs": [],
      "name": "blob",
      "outputs": [
        {
          "name": "",
          "type": "string"
        }
      ],
      "payable": false,
      "stateMutability": "view",
      "type": "function"
    },
    {
      "constant": true,
      "inputs": [],
      "name": "decimals",
      "outputs": [
        {
          "name": "",
          "type": "uint8"
        }
      ],
      "payable": false,
      "stateMutability": "view",
      "type": "function"
    },
    {
      "constant": true,
      "inputs": [],
      "name": "cap",
      "outputs": [
        {
          "name": "",
          "type": "uint256"
        }
      ],
      "payable": false,
      "stateMutability": "view",
      "type": "function"
    },
    {
      "constant": true,
      "inputs": [
        {
          "name": "account",
          "type": "address"
        }
      ],
      "name": "isMinter",
      "outputs": [
        {
          "name": "",
          "type": "bool"
        }
      ],
      "payable": false,
      "stateMutability": "view",
      "type": "function"
    },
    {
      "constant": true,
      "inputs": [],
      "name": "minter",
      "outputs": [
        {
          "name": "",
          "type": "address"
        }
      ],
      "payable": false,
      "stateMutability": "view",
      "type": "function"
    },
    {
      "constant": true,
      "inputs": [],
      "name": "isInitialized",
      "outputs": [
        {
          "name": "",
          "type": "bool"
        }
      ],
      "payable": false,
      "stateMutability": "view",
      "type": "function"
    },
    {
      "constant": true,
      "inputs": [],
      "name": "isPaused",
      "outputs": [
        {
          "name": "",
          "type": "bool"
        }
      ],
      "payable": false,
      "stateMutability": "view",
      "type": "function"
    },
    {
      "constant": true,
      "inputs": [
        {
          "name": "amount",
          "type": "uint256"
        },
        {
          "name": "feePercentage",
          "type": "uint256"
        }
      ],
      "name": "calculateFee",
      "outputs": [
        {
          "name": "",
          "type": "uint256"
        }
      ],
      "payable": false,
      "stateMutability": "pure",
      "type": "function"
    }
  ],
  "bytecode": "0x60806040526003805460ff191690556008805460a060020a60ff02191690553480156200002b57600080fd5b506040516200236938038062002369833981018060405260c08110156200005157600080fd5b8101908080516401000000008111156200006a57600080fd5b820160208101848111156200007e57600080fd5b81516401000000008111828201871017156200009957600080fd5b50509291906020018051640100000000811115620000b657600080fd5b82016020810184811115620000ca57600080fd5b8151640100000000811182820187101715620000e557600080fd5b505060208201516040830151606090930180519295919491926401000000008111156200011157600080fd5b820160208101848111156200012557600080fd5b81516401000000008111828201871017156200014057600080fd5b505060209091015190925090506200016686868686868664010000000062000173810204565b5050505050505062000443565b6000600160a060020a038516620001d6576040517f08c379a0000000000000000000000000000000000000000000000000000000008152600401808060200182810382526030815260200180620022a66030913960400191505060405180910390fd5b600954600160a060020a0316156200023a576040517f08c379a000000000000000000000000000000000000000000000000000000000815260040180806020018281038252602f8152602001806200233a602f913960400191505060405180910390fd5b600160a060020a0382166200029b576040517f08c379a0000000000000000000000000000000000000000000000000000000008152600401808060200182810382526040815260200180620022d66040913960400191505060405180910390fd5b83620002f3576040517f08c379a0000000000000000000000000000000000000000000000000000000008152600401808060200182810382526024815260200180620023166024913960400191505060405180910390fd5b600784905586516200030d9060049060208a01906200039e565b508251620003239060069060208601906200039e565b508551620003399060059060208901906200039e565b505060098054600160a060020a0319908116600160a060020a039687161790915560088054740100000000000000000000000000000000000000009216929095169190911760a060020a60ff02191681179384905560ff930492909216949350505050565b828054600181600116156101000203166002900490600052602060002090601f016020900481019282601f10620003e157805160ff191683800117855562000411565b8280016001018555821562000411579182015b8281111562000411578251825591602001919060010190620003f4565b506200041f92915062000423565b5090565b6200044091905b808211156200041f57600081556001016200042a565b90565b611e5380620004536000396000f3fe608060405234801561001057600080fd5b50600436106101ec576000357c01000000000000000000000000000000000000000000000000000000009004806350d2fcc411610121578063a9059cbb116100bf578063dd62ed3e1161008e578063dd62ed3e1461065b578063eb40024b14610689578063ec342ad014610691578063fde0e7a814610699576101ec565b8063a9059cbb14610601578063aa271e1a1461062d578063b187bd2614610653578063b2263a5d14610322576101ec565b80638ca0c059116100fb5780638ca0c059146104635780639070d2f81461049b57806395d89b41146105cd578063a457c2d7146105d5576101ec565b806350d2fcc41461040f57806370a08231146104355780638456cb591461045b576101ec565b8063313ce5671161018e578063392e53cd11610168578063392e53cd146103a757806339509351146103af5780633f4ba83a146103db57806340c10f19146103e3576101ec565b8063313ce5671461035e57806334e731221461037c578063355274ea1461039f576101ec565b806318160ddd116101ca57806318160ddd146102d257806323b872dd146102ec578063294541c714610322578063300ae1411461032a576101ec565b806306fdde03146101f1578063075461721461026e578063095ea7b314610292575b600080fd5b6101f96106a1565b6040805160208082528351818301528351919283929083019185019080838360005b8381101561023357818101518382015260200161021b565b50505050905090810190601f1680156102605780820380516001836020036101000a031916815260200191505b509250505060405180910390f35b610276610738565b60408051600160a060020a039092168252519081900360200190f35b6102be600480360360408110156102a857600080fd5b50600160a060020a038135169060200135610747565b604080519115158252519081900360200190f35b6102da6107a2565b60408051918252519081900360200190f35b6102be6004803603606081101561030257600080fd5b50600160a060020a038135811691602081013590911690604001356107a8565b6102da610803565b61035c6004803603606081101561034057600080fd5b5080359060208101359060400135600160a060020a031661080e565b005b610366610909565b6040805160ff9092168252519081900360200190f35b6102da6004803603604081101561039257600080fd5b508035906020013561090e565b6102da610952565b6102be610958565b6102be600480360360408110156103c557600080fd5b50600160a060020a038135169060200135610979565b61035c6109cb565b61035c600480360360408110156103f957600080fd5b50600160a060020a038135169060200135610a67565b61035c6004803603602081101561042557600080fd5b5035600160a060020a0316610b77565b6102da6004803603602081101561044b57600080fd5b5035600160a060020a0316610c75565b61035c610c90565b61035c6004803603608081101561047957600080fd5b50803590600160a060020a036020820135169060408101359060600135610d30565b6102be600480360360c08110156104b157600080fd5b8101906020810181356401000000008111156104cc57600080fd5b8201836020820111156104de57600080fd5b8035906020019184600183028401116401000000008311171561050057600080fd5b91939092909160208101903564010000000081111561051e57600080fd5b82018360208201111561053057600080fd5b8035906020019184600183028401116401000000008311171561055257600080fd5b91939092600160a060020a0383351692602081013592919060608101906040013564010000000081111561058557600080fd5b82018360208201111561059757600080fd5b803590602001918460018302840111640100000000831117156105b957600080fd5b919350915035600160a060020a0316610dd1565b6101f9610eec565b6102be600480360360408110156105eb57600080fd5b50600160a060020a038135169060200135610f4d565b6102be6004803603604081101561061757600080fd5b50600160a060020a038135169060200135610f9f565b6102be6004803603602081101561064357600080fd5b5035600160a060020a0316610ff1565b6102be611005565b6102da6004803603604081101561067157600080fd5b50600160a060020a038135811691602001351661100e565b61035c611039565b6102da61114a565b6101f9611156565b60048054604080516020601f600260001961010060018816150201909516949094049384018190048102820181019092528281526060939092909183018282801561072d5780601f106107025761010080835404028352916020019161072d565b820191906000526020600020905b81548152906001019060200180831161071057829003601f168201915b505050505090505b90565b600954600160a060020a031690565b60035460009060ff161561078f5760405160e560020a62461bcd02815260040180806020018281038252602c815260200180611b59602c913960400191505060405180910390fd5b61079983836111b7565b90505b92915050565b60025490565b60035460009060ff16156107f05760405160e560020a62461bcd02815260040180806020018281038252602c815260200180611b59602c913960400191505060405180910390fd5b6107fb8484846111d4565b949350505050565b66038d7ea4c6800081565b600080610828856103e8670de0b6b3a76400005b0461090e565b60085490915061084190600160a060020a031682610f9f565b50600160a060020a0383161561087457610866856103e8670de0b6b3a7640000610822565b91506108728383610f9f565b505b6000610886828463ffffffff61126116565b6009549091506108ae90600160a060020a03166108a9888463ffffffff6112be16565b610f9f565b5060408051878152602081018790524381830152606081018590529051600160a060020a038616917fb2fe3041f0d90d29ddc86cc4867729db0a48fe9177d192d0c6455484abacb6a8919081900360800190a2505050505050565b601290565b60008261091d5750600061079c565b8161092a5750600061079c565b610799670de0b6b3a7640000610946858563ffffffff61130016565b9063ffffffff61135c16565b60075490565b60085474010000000000000000000000000000000000000000900460ff1690565b60035460009060ff16156109c15760405160e560020a62461bcd02815260040180806020018281038252602c815260200180611b59602c913960400191505060405180910390fd5b610799838361139e565b60035460ff16610a0f5760405160e560020a62461bcd028152600401808060200182810382526030815260200180611daf6030913960400191505060405180910390fd5b600954600160a060020a03163314610a5b5760405160e560020a62461bcd028152600401808060200182810382526021815260200180611bdc6021913960400191505060405180910390fd5b6003805460ff19169055565b60035460ff1615610aac5760405160e560020a62461bcd02815260040180806020018281038252602c815260200180611b59602c913960400191505060405180910390fd5b600954600160a060020a03163314610af85760405160e560020a62461bcd028152600401808060200182810382526021815260200180611bdc6021913960400191505060405180910390fd5b600754610b1382610b076107a2565b9063ffffffff61126116565b1115610b69576040805160e560020a62461bcd02815260206004820152601f60248201527f44617461546f6b656e54656d706c6174653a2063617020657863656564656400604482015290519081900360640190fd5b610b7382826113f2565b5050565b60035460ff1615610bbc5760405160e560020a62461bcd02815260040180806020018281038252602c815260200180611b59602c913960400191505060405180910390fd5b600954600160a060020a03163314610c085760405160e560020a62461bcd028152600401808060200182810382526021815260200180611bdc6021913960400191505060405180910390fd5b600a805473ffffffffffffffffffffffffffffffffffffffff1916600160a060020a0383811691909117918290556040805133815292909116602083015280517fa24c529cc8b2d85b7dfb2ed0b4d7e9a816546212138b5d223bee13481e21be6b9281900390910190a150565b600160a060020a031660009081526020819052604090205490565b60035460ff1615610cd55760405160e560020a62461bcd02815260040180806020018281038252602c815260200180611b59602c913960400191505060405180910390fd5b600954600160a060020a03163314610d215760405160e560020a62461bcd028152600401808060200182810382526021815260200180611bdc6021913960400191505060405180910390fd5b6003805460ff19166001179055565b8115610d7e57610d408383610f9f565b610d7e5760405160e560020a62461bcd028152600401808060200182810382526029815260200180611c236029913960400191505060405180910390fd5b604080518581526020810184905280820183905290513391600160a060020a038616917fce42555d11c2cca6143e7903829e154e074119544f907b3106e7368358825f199181900360600190a350505050565b60085460009074010000000000000000000000000000000000000000900460ff1615610e315760405160e560020a62461bcd028152600401808060200182810382526035815260200180611ba76035913960400191505060405180910390fd5b610ede8a8a8080601f01602080910402602001604051908101604052809392919081815260200183838082843760009201919091525050604080516020601f8e018190048102820181019092528c815292508c91508b908190840183828082843760009201919091525050604080516020601f8b018190048102820181019092528981528c93508b9250908a908a90819084018382808284376000920191909152508a92506114e5915050565b9a9950505050505050505050565b60058054604080516020601f600260001961010060018816150201909516949094049384018190048102820181019092528281526060939092909183018282801561072d5780601f106107025761010080835404028352916020019161072d565b60035460009060ff1615610f955760405160e560020a62461bcd02815260040180806020018281038252602c815260200180611b59602c913960400191505060405180910390fd5b61079983836116c1565b60035460009060ff1615610fe75760405160e560020a62461bcd02815260040180806020018281038252602c815260200180611b59602c913960400191505060405180910390fd5b610799838361172f565b600954600160a060020a0391821691161490565b60035460ff1690565b600160a060020a03918216600090815260016020908152604080832093909416825291909152205490565b60035460ff161561107e5760405160e560020a62461bcd02815260040180806020018281038252602c815260200180611b59602c913960400191505060405180910390fd5b600a54600160a060020a031633146110ca5760405160e560020a62461bcd028152600401808060200182810382526032815260200180611cbc6032913960400191505060405180910390fd5b600954600a5460408051600160a060020a03938416815292909116602083015280517f96ab0400119a548d3cc4c74e857d0d9c427fe9df20d3d0d99af10cc292e6c8869281900390910190a1600a80546009805473ffffffffffffffffffffffffffffffffffffffff19908116600160a060020a03841617909155169055565b670de0b6b3a764000081565b60068054604080516020601f600260001961010060018816150201909516949094049384018190048102820181019092528281526060939092909183018282801561072d5780601f106107025761010080835404028352916020019161072d565b60006111cb6111c4611743565b8484611747565b50600192915050565b60006111e1848484611839565b611257846111ed611743565b61125285604051806060016040528060288152602001611d3360289139600160a060020a038a1660009081526001602052604081209061122b611743565b600160a060020a03168152602081019190915260400160002054919063ffffffff61199b16565b611747565b5060019392505050565b600082820183811015610799576040805160e560020a62461bcd02815260206004820152601b60248201527f536166654d6174683a206164646974696f6e206f766572666c6f770000000000604482015290519081900360640190fd5b600061079983836040518060400160405280601e81526020017f536166654d6174683a207375627472616374696f6e206f766572666c6f77000081525061199b565b60008261130f5750600061079c565b8282028284828161131c57fe5b04146107995760405160e560020a62461bcd028152600401808060200182810382526021815260200180611cee6021913960400191505060405180910390fd5b600061079983836040518060400160405280601a81526020017f536166654d6174683a206469766973696f6e206279207a65726f000000000000815250611a35565b60006111cb6113ab611743565b8461125285600160006113bc611743565b600160a060020a03908116825260208083019390935260409182016000908120918c16815292529020549063ffffffff61126116565b600160a060020a038216611450576040805160e560020a62461bcd02815260206004820152601f60248201527f45524332303a206d696e7420746f20746865207a65726f206164647265737300604482015290519081900360640190fd5b600254611463908263ffffffff61126116565b600255600160a060020a03821660009081526020819052604090205461148f908263ffffffff61126116565b600160a060020a0383166000818152602081815260408083209490945583518581529351929391927fddf252ad1be2c89b69c2b068fc378daa952ba7f163c4a11628f55a4df523b3ef9281900390910190a35050565b6000600160a060020a03851661152f5760405160e560020a62461bcd028152600401808060200182810382526030815260200180611c4c6030913960400191505060405180910390fd5b600954600160a060020a03161561157a5760405160e560020a62461bcd02815260040180806020018281038252602f815260200180611d5b602f913960400191505060405180910390fd5b600160a060020a0382166115c25760405160e560020a62461bcd028152600401808060200182810382526040815260200180611c7c6040913960400191505060405180910390fd5b836116015760405160e560020a62461bcd028152600401808060200182810382526024815260200180611d0f6024913960400191505060405180910390fd5b600784905586516116199060049060208a0190611a9d565b50825161162d906006906020860190611a9d565b508551611641906005906020890190611a9d565b50506009805473ffffffffffffffffffffffffffffffffffffffff19908116600160a060020a039687161790915560088054740100000000000000000000000000000000000000009216929095169190911774ff0000000000000000000000000000000000000000191681179384905560ff930492909216949350505050565b60006111cb6116ce611743565b8461125285604051806060016040528060258152602001611e0360259139600160006116f8611743565b600160a060020a03908116825260208083019390935260409182016000908120918d1681529252902054919063ffffffff61199b16565b60006111cb61173c611743565b8484611839565b3390565b600160a060020a03831661178f5760405160e560020a62461bcd028152600401808060200182810382526024815260200180611ddf6024913960400191505060405180910390fd5b600160a060020a0382166117d75760405160e560020a62461bcd028152600401808060200182810382526022815260200180611b856022913960400191505060405180910390fd5b600160a060020a03808416600081815260016020908152604080832094871680845294825291829020859055815185815291517f8c5be1e5ebec7d5bd14f71427d1e84f3dd0314c0f7b2291e5b200ac8c7c3b9259281900390910190a3505050565b600160a060020a0383166118815760405160e560020a62461bcd028152600401808060200182810382526025815260200180611d8a6025913960400191505060405180910390fd5b600160a060020a0382166118c95760405160e560020a62461bcd028152600401808060200182810382526023815260200180611b366023913960400191505060405180910390fd5b61190c81604051806060016040528060268152602001611bfd60269139600160a060020a038616600090815260208190526040902054919063ffffffff61199b16565b600160a060020a038085166000908152602081905260408082209390935590841681522054611941908263ffffffff61126116565b600160a060020a038084166000818152602081815260409182902094909455805185815290519193928716927fddf252ad1be2c89b69c2b068fc378daa952ba7f163c4a11628f55a4df523b3ef92918290030190a3505050565b60008184841115611a2d5760405160e560020a62461bcd0281526004018080602001828103825283818151815260200191508051906020019080838360005b838110156119f25781810151838201526020016119da565b50505050905090810190601f168015611a1f5780820380516001836020036101000a031916815260200191505b509250505060405180910390fd5b505050900390565b60008183611a875760405160e560020a62461bcd0281526020600482018181528351602484015283519092839260449091019190850190808383600083156119f25781810151838201526020016119da565b506000838581611a9357fe5b0495945050505050565b828054600181600116156101000203166002900490600052602060002090601f016020900481019282601f10611ade57805160ff1916838001178555611b0b565b82800160010185558215611b0b579182015b82811115611b0b578251825591602001919060010190611af0565b50611b17929150611b1b565b5090565b61073591905b80821115611b175760008155600101611b2156fe45524332303a207472616e7366657220746f20746865207a65726f206164647265737345524332305061757361626c653a207468697320746f6b656e20636f6e74726163742069732070617573656445524332303a20617070726f766520746f20746865207a65726f206164647265737344617461546f6b656e54656d706c6174653a20746f6b656e20696e7374616e636520616c726561647920696e697469616c697a656444617461546f6b656e54656d706c6174653a20696e76616c6964206d696e74657245524332303a207472616e7366657220616d6f756e7420657863656564732062616c616e636544617461546f6b656e54656d706c6174653a206661696c656420746f2066696e697368206f7264657244617461546f6b656e54656d706c6174653a20496e76616c6964206d696e7465722c20207a65726f206164647265737344617461546f6b656e54656d706c6174653a20496e76616c696420636f6d6d756e6974792066656520636f6c6c6563746f722c207a65726f206164647265737344617461546f6b656e54656d706c6174653a20696e76616c69642070726f706f736564206d696e7465722061646472657373536166654d6174683a206d756c7469706c69636174696f6e206f766572666c6f7744617461546f6b656e54656d706c6174653a20496e76616c6964206361702076616c756545524332303a207472616e7366657220616d6f756e74206578636565647320616c6c6f77616e636544617461546f6b656e54656d706c6174653a20496e76616c6964206d696e7465722c207a65726f206164647265737345524332303a207472616e736665722066726f6d20746865207a65726f206164647265737345524332305061757361626c653a207468697320746f6b656e20636f6e7472616374206973206e6f742070617573656445524332303a20617070726f76652066726f6d20746865207a65726f206164647265737345524332303a2064656372656173656420616c6c6f77616e63652062656c6f77207a65726fa165627a7a72305820123909082473bffcc5a786e7e92a9d358460780ad5c469dbfe664ea0c21d1542002944617461546f6b656e54656d706c6174653a20496e76616c6964206d696e7465722c20207a65726f206164647265737344617461546f6b656e54656d706c6174653a20496e76616c696420636f6d6d756e6974792066656520636f6c6c6563746f722c207a65726f206164647265737344617461546f6b656e54656d706c6174653a20496e76616c6964206361702076616c756544617461546f6b656e54656d706c6174653a20496e76616c6964206d696e7465722c207a65726f2061646472657373",
  "source": "pragma solidity 0.5.7;\n// Copyright BigchainDB GmbH and Ocean Protocol contributors\n// SPDX-License-Identifier: (Apache-2.0 AND CC-BY-4.0)\n// Code is Apache-2.0 and docs are CC-BY-4.0\n\nimport './token/ERC20Pausable.sol';\nimport '../interfaces/IERC20Template.sol';\n\n/**\n* @title DataTokenTemplate\n*  \n* @dev DataTokenTemplate is an ERC20 compliant token template\n*      Used by the factory contract as a bytecode reference to \n*      deploy new DataTokens.\n*/\ncontract DataTokenTemplate is IERC20Template, ERC20Pausable {\n    using SafeMath for uint256;\n\n    string  private _name;\n    string  private _symbol;\n    string  private _blob;\n    uint256 private _cap;\n    uint8 private constant _decimals = 18;\n    address private _communityFeeCollector;\n    bool    private initialized = false;\n    address private _minter;\n    address private _proposedMinter;\n    uint256 public constant BASE = 10**18;\n    uint256 public constant BASE_COMMUNITY_FEE_PERCENTAGE = BASE / 1000;\n    uint256 public constant BASE_MARKET_FEE_PERCENTAGE = BASE / 1000;\n\n    event OrderStarted(\n            uint256 amount, \n            uint256 serviceId, \n            uint256 startedAt,\n            address indexed mrktFeeCollector,\n            uint256 marketFee\n    );\n\n    event OrderFinished(\n            bytes32 orderTxId, \n            address indexed consumer, \n            uint256 amount, \n            uint256 serviceId, \n            address indexed provider\n    );\n\n    event MinterProposed(\n        address currentMinter,\n        address newMinter\n    );\n\n    event MinterApproved(\n        address currentMinter,\n        address newMinter\n    );\n\n    modifier onlyNotInitialized() {\n        require(\n            !initialized,\n            'DataTokenTemplate: token instance already initialized'\n        );\n        _;\n    }\n    \n    modifier onlyMinter() {\n        require(\n            msg.sender == _minter,\n            'DataTokenTemplate: invalid minter' \n        );\n        _;\n    }\n\n    /**\n     * @dev constructor\n     *      Called prior contract deployment\n     * @param name refers to a template DataToken name\n     * @param symbol refers to a template DataToken symbol\n     * @param minterAddress refers to an address that has minter role\n     * @param cap the total ERC20 cap\n     * @param blob data string refering to the resolver for the metadata\n     * @param feeCollector it is the community fee collector address\n     */\n    constructor(\n        string memory name,\n        string memory symbol,\n        address minterAddress,\n        uint256 cap,\n        string memory blob,\n        address feeCollector\n    )\n        public\n    {\n        _initialize(\n            name,\n            symbol,\n            minterAddress,\n            cap,\n            blob,\n            feeCollector\n        );\n    }\n    \n    /**\n     * @dev initialize\n     *      Called prior contract initialization (e.g creating new DataToken instance)\n     *      Calls private _initialize function. Only if contract is not initialized.\n     * @param name refers to a new DataToken name\n     * @param symbol refers to a nea DataToken symbol\n     * @param minterAddress refers to an address that has minter rights\n     * @param cap the total ERC20 cap\n     * @param blob data string refering to the resolver for the metadata\n     * @param feeCollector it is the community fee collector address\n     */\n    function initialize(\n        string calldata name,\n        string calldata symbol,\n        address minterAddress,\n        uint256 cap,\n        string calldata blob,\n        address feeCollector\n    ) \n        external\n        onlyNotInitialized\n        returns(bool)\n    {\n        return _initialize(\n            name,\n            symbol,\n            minterAddress,\n            cap,\n            blob,\n            feeCollector\n        );\n    }\n\n    /**\n     * @dev _initialize\n     *      Private function called on contract initialization.\n     * @param name refers to a new DataToken name\n     * @param symbol refers to a nea DataToken symbol\n     * @param minterAddress refers to an address that has minter rights\n     * @param cap the total ERC20 cap\n     * @param blob data string refering to the resolver for the metadata\n     * @param feeCollector it is the community fee collector address\n     */\n    function _initialize(\n        string memory name,\n        string memory symbol,\n        address minterAddress,\n        uint256 cap,\n        string memory blob,\n        address feeCollector\n    )\n        private\n        returns(bool)\n    {\n        require(\n            minterAddress != address(0), \n            'DataTokenTemplate: Invalid minter,  zero address'\n        );\n\n        require(\n            _minter == address(0), \n            'DataTokenTemplate: Invalid minter, zero address'\n        );\n\n        require(\n            feeCollector != address(0),\n            'DataTokenTemplate: Invalid community fee collector, zero address'\n        );\n\n        require(\n            cap != 0,\n            'DataTokenTemplate: Invalid cap value'\n        );\n        _cap = cap;\n        _name = name;\n        _blob = blob;\n        _symbol = symbol;\n        _minter = minterAddress;\n        _communityFeeCollector = feeCollector;\n        initialized = true;\n        return initialized;\n    }\n\n    /**\n     * @dev mint\n     *      Only the minter address can call it.\n     *      msg.value should be higher than zero and gt or eq minting fee\n     * @param account refers to an address that token is going to be minted to.\n     * @param value refers to amount of tokens that is going to be minted.\n     */\n    function mint(\n        address account,\n        uint256 value\n    ) \n        external \n        onlyNotPaused \n        onlyMinter \n    {\n        require(\n            totalSupply().add(value) <= _cap, \n            'DataTokenTemplate: cap exceeded'\n        );\n        _mint(account, value);\n    }\n\n    /**\n     * @dev startOrder\n     *      called by consumer prior ordering a service consume on a marketplace\n     * @param amount refers to amount of tokens that is going to be transfered.\n     * @param serviceId service index in the metadata\n     * @param mrktFeeCollector marketplace fee collector\n     */\n    function startOrder(\n        uint256 amount,\n        uint256 serviceId,\n        address mrktFeeCollector\n    )\n        external\n    {\n        uint256 marketFee = 0;\n        uint256 communityFee = calculateFee(\n            amount, \n            BASE_COMMUNITY_FEE_PERCENTAGE\n        );\n        transfer(_communityFeeCollector, communityFee);\n        if(mrktFeeCollector != address(0)){\n            marketFee = calculateFee(\n                amount, \n                BASE_MARKET_FEE_PERCENTAGE\n            );\n            transfer(mrktFeeCollector, marketFee);\n        }\n        uint256 totalFee = communityFee.add(marketFee);\n        transfer(_minter, amount.sub(totalFee));\n\n        emit OrderStarted(\n            amount,\n            serviceId,\n            block.number,\n            mrktFeeCollector,\n            marketFee\n        );\n    }\n\n    /**\n     * @dev finishOrder\n     *      called by provider prior completing service delivery only\n     *      if there is a partial or full refund.\n     * @param orderTxId refers to the transaction Id  of startOrder acts \n     *                  as a payment reference.\n     * @param consumer refers to an address that has consumed that service.\n     * @param amount refers to amount of tokens that is going to be transfered.\n     * @param serviceId service index in the metadata.\n     */\n    function finishOrder(\n        bytes32 orderTxId, \n        address consumer, \n        uint256 amount,\n        uint256 serviceId\n    )\n        external\n    {\n        if ( amount != 0 )  \n            require(\n                transfer(consumer, amount),\n                'DataTokenTemplate: failed to finish order'\n            );\n\n        emit OrderFinished(\n            orderTxId, \n            consumer, \n            amount, \n            serviceId, \n            msg.sender\n        );\n    }\n\n    /**\n     * @dev pause\n     *      It pauses the contract functionalities (transfer, mint, etc)\n     *      Only could be called if the contract is not already paused.\n     *      Only called by the minter address.\n     */\n    function pause() external onlyNotPaused onlyMinter {\n        paused = true;\n    }\n\n    /**\n     * @dev unpause\n     *      It unpauses the contract.\n     *      Only called if the contract is paused.\n     *      Only minter can call it.\n     */\n    function unpause() external onlyPaused onlyMinter {\n        paused = false;\n    }\n\n    /**\n     * @dev proposeMinter\n     *      It proposes a new token minter address.\n     *      Only called be called if the contract is not paused.\n     *      Only the current minter can call it.\n     * @param newMinter refers to a new token minter address.\n     */\n    function proposeMinter(address newMinter) \n        external \n        onlyNotPaused \n        onlyMinter \n    {\n        _proposedMinter = newMinter;\n        emit MinterProposed(\n            msg.sender,\n            _proposedMinter\n        );\n    }\n\n    /**\n     * @dev approveMinter\n     *      It approves a new token minter address.\n     *      Only called be called if the contract is not paused.\n     *      Only the current minter can call it.\n     */\n    function approveMinter()\n        external\n        onlyNotPaused\n    {\n        require(\n            msg.sender == _proposedMinter,\n            'DataTokenTemplate: invalid proposed minter address'\n        );\n        emit MinterApproved(\n            _minter,\n            _proposedMinter\n        );\n        _minter = _proposedMinter;\n        _proposedMinter = address(0);\n    }\n\n    /**\n     * @dev name\n     *      It returns the token name.\n     * @return DataToken name.\n     */\n    function name() external view returns(string memory) {\n        return _name;\n    }\n\n    /**\n     * @dev symbol\n     *      It returns the token symbol.\n     * @return DataToken symbol.\n     */\n    function symbol() external view returns(string memory) {\n        return _symbol;\n    }\n\n    /**\n     * @dev blob\n     *      It returns the blob (e.g https://123.com).\n     * @return DataToken blob.\n     */\n    function blob() external view returns(string memory) {\n        return _blob;\n    }\n\n    /**\n     * @dev decimals\n     *      It returns the token decimals.\n     *      how many supported decimal points\n     * @return DataToken decimals.\n     */\n    function decimals() external view returns(uint8) {\n        return _decimals;\n    }\n\n    /**\n     * @dev cap\n     *      it returns the capital.\n     * @return DataToken cap.\n     */\n    function cap() external view returns (uint256) {\n        return _cap;\n    }\n\n    /**\n     * @dev isMinter\n     *      It takes the address and checks whether it has a minter role.\n     * @param account refers to the address.\n     * @return true if account has a minter role.\n     */\n    function isMinter(address account) external view returns(bool) {\n        return (_minter == account);\n    } \n\n    /**\n     * @dev minter\n     * @return minter's address.\n     */\n    function minter()\n        external\n        view \n        returns(address)\n    {\n        return _minter;\n    }\n\n    /**\n     * @dev isInitialized\n     *      It checks whether the contract is initialized.\n     * @return true if the contract is initialized.\n     */ \n    function isInitialized() external view returns(bool) {\n        return initialized;\n    }\n\n    /**\n     * @dev isPaused\n     *      Function checks if the contract is paused.\n     * @return true if the contract is paused.\n     */ \n    function isPaused() external view returns(bool) {\n        return paused;\n    }\n\n    /**\n     * @dev calculateFee\n     *      giving a fee percentage, and amount it calculates the actual fee\n     * @param amount the amount of token\n     * @param feePercentage the fee percentage \n     * @return the token fee.\n     */ \n    function calculateFee(\n        uint256 amount,\n        uint256 feePercentage\n    )\n        public\n        pure\n        returns(uint256)\n    {\n        if(amount == 0) return 0;\n        if(feePercentage == 0) return 0;\n        return amount.mul(feePercentage).div(BASE);\n    }\n}",
  "sourcePath": "/Users/ahmedali/Desktop/work/ocean-contracts/contracts/templates/DataTokenTemplate.sol",
  "compiler": {
    "name": "solc",
    "version": "0.5.7+commit.6da8b019.Emscripten.clang"
  },
  "schemaVersion": "3.2.4",
  "updatedAt": "2020-09-29T10:29:25.681Z",
  "devdoc": {
    "details": "DataTokenTemplate is an ERC20 compliant token template     Used by the factory contract as a bytecode reference to      deploy new DataTokens.",
    "methods": {
      "allowance(address,address)": {
        "details": "See {IERC20-allowance}."
      },
      "approve(address,uint256)": {
        "details": "approve     Standard ERC20 approve function with onlyNotPaused modifier.     Can be called only if the contract is not paused.",
        "params": {
          "spender": "refers to an address that is allowed to spend tokens.",
          "value": "refers to amount of tokens that could be spent."
        },
        "return": "true if approval is success, false otherwise."
      },
      "approveMinter()": {
        "details": "approveMinter     It approves a new token minter address.     Only called be called if the contract is not paused.     Only the current minter can call it."
      },
      "balanceOf(address)": {
        "details": "See {IERC20-balanceOf}."
      },
      "blob()": {
        "details": "blob     It returns the blob (e.g https://123.com).",
        "return": "DataToken blob."
      },
      "calculateFee(uint256,uint256)": {
        "details": "calculateFee     giving a fee percentage, and amount it calculates the actual fee",
        "params": {
          "amount": "the amount of token",
          "feePercentage": "the fee percentage "
        },
        "return": "the token fee."
      },
      "cap()": {
        "details": "cap     it returns the capital.",
        "return": "DataToken cap."
      },
      "constructor": {
        "details": "constructor     Called prior contract deployment",
        "params": {
          "blob": "data string refering to the resolver for the metadata",
          "cap": "the total ERC20 cap",
          "feeCollector": "it is the community fee collector address",
          "minterAddress": "refers to an address that has minter role",
          "name": "refers to a template DataToken name",
          "symbol": "refers to a template DataToken symbol"
        }
      },
      "decimals()": {
        "details": "decimals     It returns the token decimals.     how many supported decimal points",
        "return": "DataToken decimals."
      },
      "decreaseAllowance(address,uint256)": {
        "details": "decreaseAllowance     Standard ERC20 decreaseAllowance function with onlyNotPaused modifier.     Can be called only if the contract is not paused.",
        "params": {
          "spender": "refers to an address that is allowed to spend tokens.",
          "subtractedValue": "refers to an subtracted amount of tokens that could be spent."
        },
        "return": "true if allowance is decreased successfully, false otherwise."
      },
      "finishOrder(bytes32,address,uint256,uint256)": {
        "details": "finishOrder     called by provider prior completing service delivery only     if there is a partial or full refund.",
        "params": {
          "amount": "refers to amount of tokens that is going to be transfered.",
          "consumer": "refers to an address that has consumed that service.",
          "orderTxId": "refers to the transaction Id  of startOrder acts                  as a payment reference.",
          "serviceId": "service index in the metadata."
        }
      },
      "increaseAllowance(address,uint256)": {
        "details": "increaseAllowance     Standard ERC20 increaseAllowance function with onlyNotPaused modifier.     Can be called only if the contract is not paused.",
        "params": {
          "addedValue": "refers to an added amount of tokens that could be spent.",
          "spender": "refers to an address that is allowed to spend tokens."
        },
        "return": "true if allowance is increased successfully, false otherwise."
      },
      "initialize(string,string,address,uint256,string,address)": {
        "details": "initialize     Called prior contract initialization (e.g creating new DataToken instance)     Calls private _initialize function. Only if contract is not initialized.",
        "params": {
          "blob": "data string refering to the resolver for the metadata",
          "cap": "the total ERC20 cap",
          "feeCollector": "it is the community fee collector address",
          "minterAddress": "refers to an address that has minter rights",
          "name": "refers to a new DataToken name",
          "symbol": "refers to a nea DataToken symbol"
        }
      },
      "isInitialized()": {
        "details": "isInitialized     It checks whether the contract is initialized.",
        "return": "true if the contract is initialized."
      },
      "isMinter(address)": {
        "details": "isMinter     It takes the address and checks whether it has a minter role.",
        "params": {
          "account": "refers to the address."
        },
        "return": "true if account has a minter role."
      },
      "isPaused()": {
        "details": "isPaused     Function checks if the contract is paused.",
        "return": "true if the contract is paused."
      },
      "mint(address,uint256)": {
        "details": "mint     Only the minter address can call it.     msg.value should be higher than zero and gt or eq minting fee",
        "params": {
          "account": "refers to an address that token is going to be minted to.",
          "value": "refers to amount of tokens that is going to be minted."
        }
      },
      "minter()": {
        "details": "minter",
        "return": "minter's address."
      },
      "name()": {
        "details": "name     It returns the token name.",
        "return": "DataToken name."
      },
      "pause()": {
        "details": "pause     It pauses the contract functionalities (transfer, mint, etc)     Only could be called if the contract is not already paused.     Only called by the minter address."
      },
      "proposeMinter(address)": {
        "details": "proposeMinter     It proposes a new token minter address.     Only called be called if the contract is not paused.     Only the current minter can call it.",
        "params": {
          "newMinter": "refers to a new token minter address."
        }
      },
      "startOrder(uint256,uint256,address)": {
        "details": "startOrder     called by consumer prior ordering a service consume on a marketplace",
        "params": {
          "amount": "refers to amount of tokens that is going to be transfered.",
          "mrktFeeCollector": "marketplace fee collector",
          "serviceId": "service index in the metadata"
        }
      },
      "symbol()": {
        "details": "symbol     It returns the token symbol.",
        "return": "DataToken symbol."
      },
      "totalSupply()": {
        "details": "See {IERC20-totalSupply}."
      },
      "transfer(address,uint256)": {
        "details": "transfer     Standard ERC20 transfer function with onlyNotPaused modifier.     Can be called only if the contract is not paused.",
        "params": {
          "to": "refers to an address that tokens are tranfered to.",
          "value": "refers to amount of tokens being tranfered."
        },
        "return": "true if transfer is success, false otherwise."
      },
      "transferFrom(address,address,uint256)": {
        "details": "transfer     Standard ERC20 transferFrom function with onlyNotPaused modifier.     Can be called only if the contract is not paused.",
        "params": {
          "from": "refers to an address that tokens are tranfered from.",
          "to": "refers to an address that tokens are tranfered to.",
          "value": "refers to amount of tokens being tranfered."
        },
        "return": "true if transfer is success, false otherwise."
      },
      "unpause()": {
        "details": "unpause     It unpauses the contract.     Only called if the contract is paused.     Only minter can call it."
      }
    },
    "title": "DataTokenTemplate "
  },
  "userdoc": {
    "methods": {}
  }
}