{
  "contractName": "DDO",
  "abi": [
    {
      "inputs": [],
      "payable": false,
      "stateMutability": "nonpayable",
      "type": "constructor"
    },
    {
      "anonymous": false,
      "inputs": [
        {
          "indexed": true,
          "name": "did",
          "type": "bytes32"
        },
        {
          "indexed": false,
          "name": "flags",
          "type": "bytes"
        },
        {
          "indexed": false,
          "name": "data",
          "type": "bytes"
        },
        {
          "indexed": false,
          "name": "createdAt",
          "type": "uint256"
        },
        {
          "indexed": false,
          "name": "createdBy",
          "type": "address"
        }
      ],
      "name": "DDOCreated",
      "type": "event"
    },
    {
      "anonymous": false,
      "inputs": [
        {
          "indexed": true,
          "name": "did",
          "type": "bytes32"
        },
        {
          "indexed": false,
          "name": "flags",
          "type": "bytes"
        },
        {
          "indexed": false,
          "name": "data",
          "type": "bytes"
        },
        {
          "indexed": false,
          "name": "updatedAt",
          "type": "uint256"
        },
        {
          "indexed": false,
          "name": "updatedBy",
          "type": "address"
        }
      ],
      "name": "DDOUpdated",
      "type": "event"
    },
    {
      "constant": false,
      "inputs": [
        {
          "name": "did",
          "type": "bytes32"
        },
        {
          "name": "flags",
          "type": "bytes"
        },
        {
          "name": "data",
          "type": "bytes"
        }
      ],
      "name": "create",
      "outputs": [],
      "payable": false,
      "stateMutability": "nonpayable",
      "type": "function"
    },
    {
      "constant": false,
      "inputs": [
        {
          "name": "did",
          "type": "bytes32"
        },
        {
          "name": "flags",
          "type": "bytes"
        },
        {
          "name": "data",
          "type": "bytes"
        }
      ],
      "name": "update",
      "outputs": [],
      "payable": false,
      "stateMutability": "nonpayable",
      "type": "function"
    }
  ],
  "bytecode": "0x608060405234801561001057600080fd5b50610512806100206000396000f3fe608060405234801561001057600080fd5b5060043610610052577c010000000000000000000000000000000000000000000000000000000060003504633c11457781146100575780639ec3485414610122575b600080fd5b6101206004803603606081101561006d57600080fd5b8135919081019060408101602082013564010000000081111561008f57600080fd5b8201836020820111156100a157600080fd5b803590602001918460018302840111640100000000831117156100c357600080fd5b9193909290916020810190356401000000008111156100e157600080fd5b8201836020820111156100f357600080fd5b8035906020019184600183028401116401000000008311171561011557600080fd5b5090925090506101eb565b005b6101206004803603606081101561013857600080fd5b8135919081019060408101602082013564010000000081111561015a57600080fd5b82018360208201111561016c57600080fd5b8035906020019184600183028401116401000000008311171561018e57600080fd5b9193909290916020810190356401000000008111156101ac57600080fd5b8201836020820111156101be57600080fd5b803590602001918460018302840111640100000000831117156101e057600080fd5b50909250905061033a565b600085815260208190526040902054859073ffffffffffffffffffffffffffffffffffffffff163314610269576040517f08c379a000000000000000000000000000000000000000000000000000000000815260040180806020018281038252602c8152602001806104bb602c913960400191505060405180910390fd5b857fffb035a7c70f2d2e882d4082fbe148af2b511bfbd195f608a355de457f10bc5a8686868643336040518080602001806020018581526020018473ffffffffffffffffffffffffffffffffffffffff1673ffffffffffffffffffffffffffffffffffffffff1681526020018381038352898982818152602001925080828437600083820152601f01601f191690910184810383528781526020019050878780828437600083820152604051601f909101601f19169092018290039a509098505050505050505050a2505050505050565b60008581526020819052604090205473ffffffffffffffffffffffffffffffffffffffff16156103cb57604080517f08c379a000000000000000000000000000000000000000000000000000000000815260206004820152601760248201527f44444f3a2044494420616c726561647920657869737473000000000000000000604482015290519081900360640190fd5b60008581526020818152604091829020805473ffffffffffffffffffffffffffffffffffffffff191633179081905582514393810184905273ffffffffffffffffffffffffffffffffffffffff91909116606082018190526080808352820187905288937f5b334670e97ad5c8f9ebd52dd015e196220cf712504799f0464831c18ba5115e9389938993899389939092908190810160a08201898980828437600083820152601f01601f191690910184810383528781526020019050878780828437600083820152604051601f909101601f19169092018290039a509098505050505050505050a2505050505056fe44444f3a20496e76616c696420444944204f776e6572206f722044494420646f6573206e6f74206578697374a165627a7a723058202e194ea1a08c189a24abc9fdcb724c3f550c03f3a27ee22634c94c0e7365440c0029",
  "source": "pragma solidity ^0.5.7;\n// Copyright BigchainDB GmbH and Ocean Protocol contributors\n// SPDX-License-Identifier: (Apache-2.0 AND CC-BY-4.0)\n// Code is Apache-2.0 and docs are CC-BY-4.0\n\n\ncontract DDO {\n\n    mapping(bytes32 => address) didOwners;\n\n    event DDOCreated(\n        bytes32 indexed did,\n        bytes flags,\n        bytes data,\n        uint256 createdAt,\n        address createdBy\n    );\n    event DDOUpdated(\n        bytes32 indexed did,\n        bytes flags,\n        bytes data,\n        uint256 updatedAt,\n        address updatedBy\n    );\n\n    modifier onlyDIDOwner(bytes32 did)\n    {\n        require(\n            didOwners[did] == msg.sender,\n            'DDO: Invalid DID Owner or DID does not exist'\n        );\n        _;\n    }\n    constructor() public {}\n\n    function create(\n        bytes32 did,\n        bytes calldata flags,\n        bytes calldata data\n    ) \n        external\n    {\n        require(\n            didOwners[did] == address(0),\n            'DDO: DID already exists'\n        );\n        didOwners[did] = msg.sender;\n        emit DDOCreated(\n            did,\n            flags,\n            data,\n            block.number,\n            didOwners[did]\n        );\n    }\n\n    function update(\n        bytes32 did,\n        bytes calldata flags,\n        bytes calldata data\n    ) \n        external\n        onlyDIDOwner(did)\n    {\n        emit DDOUpdated(\n            did,\n            flags,\n            data,\n            block.number,\n            msg.sender\n        );\n    }\n}",
  "sourcePath": "/Users/ahmedali/Desktop/work/ocean-contracts/contracts/metadata/DDO.sol",
  "compiler": {
    "name": "solc",
    "version": "0.5.7+commit.6da8b019.Emscripten.clang"
  },
  "schemaVersion": "3.2.0",
  "updatedAt": "2020-08-18T09:47:27.815Z",
  "devdoc": {
    "methods": {}
  },
  "userdoc": {
    "methods": {}
  }
}