{
  "contractName": "Dispenser",
  "abi": [
    {
      "constant": true,
      "inputs": [
        {
          "name": "",
          "type": "uint256"
        }
      ],
      "name": "datatokensList",
      "outputs": [
        {
          "name": "",
          "type": "address"
        }
      ],
      "payable": false,
      "stateMutability": "view",
      "type": "function"
    },
    {
      "inputs": [],
      "payable": false,
      "stateMutability": "nonpayable",
      "type": "constructor"
    },
    {
      "payable": true,
      "stateMutability": "payable",
      "type": "fallback"
    },
    {
      "anonymous": false,
      "inputs": [
        {
          "indexed": true,
          "name": "datatokenAddress",
          "type": "address"
        }
      ],
      "name": "Activated",
      "type": "event"
    },
    {
      "anonymous": false,
      "inputs": [
        {
          "indexed": true,
          "name": "datatokenAddress",
          "type": "address"
        }
      ],
      "name": "Deactivated",
      "type": "event"
    },
    {
      "anonymous": false,
      "inputs": [
        {
          "indexed": true,
          "name": "datatokenAddress",
          "type": "address"
        }
      ],
      "name": "AcceptedMinter",
      "type": "event"
    },
    {
      "anonymous": false,
      "inputs": [
        {
          "indexed": true,
          "name": "datatokenAddress",
          "type": "address"
        }
      ],
      "name": "RemovedMinter",
      "type": "event"
    },
    {
      "anonymous": false,
      "inputs": [
        {
          "indexed": true,
          "name": "datatokenAddress",
          "type": "address"
        },
        {
          "indexed": true,
          "name": "userAddress",
          "type": "address"
        },
        {
          "indexed": false,
          "name": "amount",
          "type": "uint256"
        }
      ],
      "name": "TokensDispensed",
      "type": "event"
    },
    {
      "anonymous": false,
      "inputs": [
        {
          "indexed": true,
          "name": "datatoken",
          "type": "address"
        },
        {
          "indexed": true,
          "name": "owner",
          "type": "address"
        },
        {
          "indexed": false,
          "name": "amount",
          "type": "uint256"
        }
      ],
      "name": "OwnerWithdrawed",
      "type": "event"
    },
    {
      "constant": true,
      "inputs": [
        {
          "name": "datatoken",
          "type": "address"
        }
      ],
      "name": "status",
      "outputs": [
        {
          "name": "active",
          "type": "bool"
        },
        {
          "name": "owner",
          "type": "address"
        },
        {
          "name": "minterApproved",
          "type": "bool"
        },
        {
          "name": "isTrueMinter",
          "type": "bool"
        },
        {
          "name": "maxTokens",
          "type": "uint256"
        },
        {
          "name": "maxBalance",
          "type": "uint256"
        },
        {
          "name": "balance",
          "type": "uint256"
        }
      ],
      "payable": false,
      "stateMutability": "view",
      "type": "function"
    },
    {
      "constant": false,
      "inputs": [
        {
          "name": "datatoken",
          "type": "address"
        },
        {
          "name": "maxTokens",
          "type": "uint256"
        },
        {
          "name": "maxBalance",
          "type": "uint256"
        }
      ],
      "name": "activate",
      "outputs": [],
      "payable": false,
      "stateMutability": "nonpayable",
      "type": "function"
    },
    {
      "constant": false,
      "inputs": [
        {
          "name": "datatoken",
          "type": "address"
        }
      ],
      "name": "deactivate",
      "outputs": [],
      "payable": false,
      "stateMutability": "nonpayable",
      "type": "function"
    },
    {
      "constant": false,
      "inputs": [
        {
          "name": "datatoken",
          "type": "address"
        }
      ],
      "name": "acceptMinter",
      "outputs": [],
      "payable": false,
      "stateMutability": "nonpayable",
      "type": "function"
    },
    {
      "constant": false,
      "inputs": [
        {
          "name": "datatoken",
          "type": "address"
        }
      ],
      "name": "removeMinter",
      "outputs": [],
      "payable": false,
      "stateMutability": "nonpayable",
      "type": "function"
    },
    {
      "constant": false,
      "inputs": [
        {
          "name": "datatoken",
          "type": "address"
        },
        {
          "name": "amount",
          "type": "uint256"
        }
      ],
      "name": "dispense",
      "outputs": [],
      "payable": true,
      "stateMutability": "payable",
      "type": "function"
    },
    {
      "constant": false,
      "inputs": [
        {
          "name": "datatoken",
          "type": "address"
        }
      ],
      "name": "ownerWithdraw",
      "outputs": [],
      "payable": false,
      "stateMutability": "nonpayable",
      "type": "function"
    }
  ],
  "bytecode": "0x608060405234801561001057600080fd5b50611491806100206000396000f3fe608060405260043610610098576000357c010000000000000000000000000000000000000000000000000000000090048063938d71d01161006b578063938d71d0146101bb578063bef54a5e146101fa578063efa0ac4314610226578063f9bfaa7d1461025957610098565b80633092afd51461009a5780633398086a146100cd5780633ea053eb14610113578063645b8b1b14610146575b005b3480156100a657600080fd5b50610098600480360360208110156100bd57600080fd5b5035600160a060020a031661028c565b3480156100d957600080fd5b506100f7600480360360208110156100f057600080fd5b5035610508565b60408051600160a060020a039092168252519081900360200190f35b34801561011f57600080fd5b506100986004803603602081101561013657600080fd5b5035600160a060020a031661052f565b34801561015257600080fd5b506101796004803603602081101561016957600080fd5b5035600160a060020a031661063a565b604080519715158852600160a060020a039096166020880152931515868601529115156060860152608085015260a084015260c0830152519081900360e00190f35b3480156101c757600080fd5b50610098600480360360608110156101de57600080fd5b50600160a060020a0381351690602081013590604001356107dd565b6100986004803603604081101561021057600080fd5b50600160a060020a038135169060200135610a5d565b34801561023257600080fd5b506100986004803603602081101561024957600080fd5b5035600160a060020a0316611003565b34801561026557600080fd5b506100986004803603602081101561027c57600080fd5b5035600160a060020a0316611203565b600160a060020a0381166102d8576040805160e560020a62461bcd02815260206004820152601e6024820152600080516020611446833981519152604482015290519081900360640190fd5b600160a060020a03818116600090815260208190526040902054610100900416331461034e576040805160e560020a62461bcd02815260206004820152601b60248201527f44617461546f6b656e20616c7265616479206163746976617465640000000000604482015290519081900360640190fd5b6040805160e160020a6355138f0d02815230600482015290518291600160a060020a0383169163aa271e1a91602480820192602092909190829003018186803b15801561039a57600080fd5b505afa1580156103ae573d6000803e3d6000fd5b505050506040513d60208110156103c457600080fd5b505161041a576040805160e560020a62461bcd02815260206004820152601e60248201527f4552523a2043616e6e6f7420616363657074206d696e74657220726f6c650000604482015290519081900360640190fd5b600160a060020a038281166000908152602081905260408082205481517f50d2fcc4000000000000000000000000000000000000000000000000000000008152610100909104841660048201529051928416926350d2fcc49260248084019391929182900301818387803b15801561049157600080fd5b505af11580156104a5573d6000803e3d6000fd5b50505050600160a060020a038216600081815260208190526040808220805475ff00000000000000000000000000000000000000000019169055517fc93cfdd5d8f442c448a02ed11ccff64355643272c9f2be94b723f2181af1a8969190a25050565b6001818154811061051557fe5b600091825260209091200154600160a060020a0316905081565b600160a060020a03811661057b576040805160e560020a62461bcd02815260206004820152601e6024820152600080516020611446833981519152604482015290519081900360640190fd5b600160a060020a0381811660009081526020819052604090205461010090041633146105f1576040805160e560020a62461bcd02815260206004820152601b60248201527f44617461546f6b656e20616c7265616479206163746976617465640000000000604482015290519081900360640190fd5b600160a060020a038116600081815260208190526040808220805460ff19169055517f749cb6b4c510bc468cf6b9c2086d6f0a54d6b18e25d37bf3200e68eab0880c009190a250565b6000808080808080600160a060020a03881661068e576040805160e560020a62461bcd02815260206004820152601e6024820152600080516020611446833981519152604482015290519081900360640190fd5b600160a060020a038089166000818152602081815260409182902080546001820154600290920154845160e060020a6370a08231028152306004820152945160ff8084169f5061010084049098169d5075010000000000000000000000000000000000000000009092049096169a509097509395508b936370a08231926024808201939291829003018186803b15801561072757600080fd5b505afa15801561073b573d6000803e3d6000fd5b505050506040513d602081101561075157600080fd5b50516040805160e160020a6355138f0d0281523060048201529051919350600160a060020a0383169163aa271e1a91602480820192602092909190829003018186803b1580156107a057600080fd5b505afa1580156107b4573d6000803e3d6000fd5b505050506040513d60208110156107ca57600080fd5b5051979996985094969592945090925090565b600160a060020a038316610829576040805160e560020a62461bcd02815260206004820152601e6024820152600080516020611446833981519152604482015290519081900360640190fd5b600160a060020a0383811660009081526020819052604090205461010090041615806108735750600160a060020a0383811660009081526020819052604090205461010090041633145b6108c7576040805160e560020a62461bcd02815260206004820152601b60248201527f44617461546f6b656e20616c7265616479206163746976617465640000000000604482015290519081900360640190fd5b6040805160e160020a6355138f0d02815233600482015290518491600160a060020a0383169163aa271e1a91602480820192602092909190829003018186803b15801561091357600080fd5b505afa158015610927573d6000803e3d6000fd5b505050506040513d602081101561093d57600080fd5b505161097d5760405160e560020a62461bcd0281526004018080602001828103825260248152602001806114226024913960400191505060405180910390fd5b600160a060020a038416600081815260208190526040808220805460018083018990556002830188905560ff19909116811774ffffffffffffffffffffffffffffffffffffffff00191661010033021775ff0000000000000000000000000000000000000000001916909155805480820182559083527fb10e2d527612073b26eecdfd717e6a320cf44b4afac2b0732d9fcbe2b7fa0cf601805473ffffffffffffffffffffffffffffffffffffffff191684179055517f0cc43938d137e7efade6a531f663e78c1fc75257b0d65ffda2fdaf70cb49cdf99190a250505050565b600160a060020a038216610aa9576040805160e560020a62461bcd02815260206004820152601e6024820152600080516020611446833981519152604482015290519081900360640190fd5b600160a060020a03821660009081526020819052604090205460ff161515600114610b1e576040805160e560020a62461bcd02815260206004820152601460248201527f44697370656e736572206e6f7420616374697665000000000000000000000000604482015290519081900360640190fd5b60008111610b76576040805160e560020a62461bcd02815260206004820152601360248201527f496e76616c6964207a65726f20616d6f756e7400000000000000000000000000604482015290519081900360640190fd5b600160a060020a038216600090815260208190526040902060010154811115610be9576040805160e560020a62461bcd02815260206004820152600f60248201527f416d6f756e7420746f6f20686967680000000000000000000000000000000000604482015290519081900360640190fd5b6040805160e060020a6370a0823102815233600482015290518391600091600160a060020a038416916370a08231916024808301926020929190829003018186803b158015610c3757600080fd5b505afa158015610c4b573d6000803e3d6000fd5b505050506040513d6020811015610c6157600080fd5b5051600160a060020a0385166000908152602081905260409020600201549091508110610cd8576040805160e560020a62461bcd02815260206004820152601760248201527f43616c6c65722062616c616e636520746f6f2068696768000000000000000000604482015290519081900360640190fd5b6040805160e060020a6370a082310281523060048201529051600091600160a060020a038516916370a0823191602480820192602092909190829003018186803b158015610d2557600080fd5b505afa158015610d39573d6000803e3d6000fd5b505050506040513d6020811015610d4f57600080fd5b505190508381108015610dd357506040805160e160020a6355138f0d0281523060048201529051600160a060020a0385169163aa271e1a916024808301926020929190829003018186803b158015610da657600080fd5b505afa158015610dba573d6000803e3d6000fd5b505050506040513d6020811015610dd057600080fd5b50515b15610ed057604080517f40c10f1900000000000000000000000000000000000000000000000000000000815230600482015282860360248201529051600160a060020a038516916340c10f1991604480830192600092919082900301818387803b158015610e4057600080fd5b505af1158015610e54573d6000803e3d6000fd5b50506040805160e060020a6370a082310281523060048201529051600160a060020a03871693506370a0823192506024808301926020929190829003018186803b158015610ea157600080fd5b505afa158015610eb5573d6000803e3d6000fd5b505050506040513d6020811015610ecb57600080fd5b505190505b83811015610f28576040805160e560020a62461bcd02815260206004820152601360248201527f4e6f7420656e6f75676820726573657276657300000000000000000000000000604482015290519081900360640190fd5b604080517fa9059cbb000000000000000000000000000000000000000000000000000000008152336004820152602481018690529051600160a060020a0385169163a9059cbb9160448083019260209291908290030181600087803b158015610f9057600080fd5b505af1158015610fa4573d6000803e3d6000fd5b505050506040513d6020811015610fba57600080fd5b50506040805185815290513391600160a060020a038816917f63e223ff524bd93d4cbff98ef34405b39f63ded87f5a8d85e39ccda966f135439181900360200190a35050505050565b600160a060020a03811661104f576040805160e560020a62461bcd02815260206004820152601e6024820152600080516020611446833981519152604482015290519081900360640190fd5b600081905080600160a060020a031663eb40024b6040518163ffffffff167c0100000000000000000000000000000000000000000000000000000000028152600401600060405180830381600087803b1580156110ab57600080fd5b505af11580156110bf573d6000803e3d6000fd5b50506040805160e160020a6355138f0d0281523060048201529051600160a060020a038516935063aa271e1a92506024808301926020929190829003018186803b15801561110c57600080fd5b505afa158015611120573d6000803e3d6000fd5b505050506040513d602081101561113657600080fd5b505161118c576040805160e560020a62461bcd02815260206004820152601e60248201527f4552523a2043616e6e6f7420616363657074206d696e74657220726f6c650000604482015290519081900360640190fd5b600160a060020a038216600081815260208190526040808220805475ff00000000000000000000000000000000000000000019167501000000000000000000000000000000000000000000179055517ffef43e73eccfaf6e7c8c743baaa69fc51e375d972142bee1ffa6ee98f28339e99190a25050565b600160a060020a03811661124f576040805160e560020a62461bcd02815260206004820152601e6024820152600080516020611446833981519152604482015290519081900360640190fd5b600160a060020a0381811660009081526020819052604090205461010090041633146112c5576040805160e560020a62461bcd02815260206004820152600d60248201527f496e76616c6964206f776e657200000000000000000000000000000000000000604482015290519081900360640190fd5b6040805160e060020a6370a0823102815230600482015290518291600091600160a060020a038416916370a08231916024808301926020929190829003018186803b15801561131357600080fd5b505afa158015611327573d6000803e3d6000fd5b505050506040513d602081101561133d57600080fd5b50519050801561141c57604080517fa9059cbb000000000000000000000000000000000000000000000000000000008152336004820152602481018390529051600160a060020a0384169163a9059cbb9160448083019260209291908290030181600087803b1580156113af57600080fd5b505af11580156113c3573d6000803e3d6000fd5b505050506040513d60208110156113d957600080fd5b50506040805182815290513391600160a060020a038616917f03185212530fcdce6b38fbf62ed27ab29b1b047f59b76b17401388a70a95f41b9181900360200190a35b50505056fe53656e64657220646f6573206e6f74206861766520746865206d696e74657220726f6c65496e76616c696420746f6b656e20636f6e747261637420616464726573730000a165627a7a72305820c7407a30ed8fab4c43b1256102ab871fa4609e17cda474e5dbecb8c93ec8ffb20029",
  "source": "pragma solidity 0.5.7;\n// Copyright BigchainDB GmbH and Ocean Protocol contributors\n// SPDX-License-Identifier: (Apache-2.0 AND CC-BY-4.0)\n// Code is Apache-2.0 and docs are CC-BY-4.0\n\nimport '../interfaces/IERC20Template.sol';\n\n\n\ncontract Dispenser {\n    struct DataToken {\n        bool active;  // if the dispenser is active for this datatoken\n        address owner; // owner of this dispenser\n        bool minterApproved; // if the dispenser is a minter for this datatoken\n        uint256 maxTokens; // max tokens to dispense\n        uint256 maxBalance; // max balance of requester. \n        //If the balance is higher, the dispense is rejected\n    }\n    mapping(address => DataToken) datatokens;\n    address[] public datatokensList;\n    constructor() public {}\n    \n    event Activated(  // emited when a dispenser is activated\n        address indexed datatokenAddress\n    );\n\n    event Deactivated( // emited when a dispenser is deactivated\n        address indexed datatokenAddress\n    );\n\n    event AcceptedMinter( \n        // emited when a dispenser becomes minter of the datatoken\n        address indexed datatokenAddress\n    );\n\n    event RemovedMinter( \n        // emited when a dispenser if removed as minter of the datatoken\n        address indexed datatokenAddress\n    );\n\n    event TokensDispensed( \n        // emited when tokens are dispended\n        address indexed datatokenAddress,\n        address indexed userAddress,\n        uint256 amount\n    );\n\n    event OwnerWithdrawed(\n        address indexed datatoken,\n        address indexed owner,\n        uint256 amount\n    );\n\n    /**\n     * @dev status\n     *      Get information about a datatoken dispenser\n     * @param datatoken refers to datatoken address.\n     * @return active - if the dispenser is active for this datatoken\n     * @return owner - owner of this dispenser\n     * @return minterApproved - if the dispenser is a minter for this datatoken\n     * @return isTrueMinter  - check the datatoken contract if this contract is really a minter\n     * @return maxTokens - max tokens to dispense\n     * @return maxBalance - max balance of requester. If the balance is higher, the dispense is rejected\n     * @return balance - internal balance of the contract (if any)\n     */\n    function status(address datatoken) \n    external view \n    returns(bool active,address owner,bool minterApproved,\n    bool isTrueMinter,uint256 maxTokens,uint256 maxBalance, uint256 balance){\n        require(\n            datatoken != address(0),\n            'Invalid token contract address'\n        );\n        active = datatokens[datatoken].active;\n        owner = datatokens[datatoken].owner;\n        minterApproved = datatokens[datatoken].minterApproved;\n        maxTokens = datatokens[datatoken].maxTokens;\n        maxBalance = datatokens[datatoken].maxBalance;\n        IERC20Template tokenInstance = IERC20Template(datatoken);\n        balance = tokenInstance.balanceOf(address(this));\n        isTrueMinter = tokenInstance.isMinter(address(this));\n    }\n\n    /**\n     * @dev activate\n     *      Activate a new dispenser\n     * @param datatoken refers to datatoken address.\n     * @param maxTokens - max tokens to dispense\n     * @param maxBalance - max balance of requester.\n     */\n    function activate(address datatoken,uint256 maxTokens, uint256 maxBalance)\n        external {\n        require(\n            datatoken != address(0),\n            'Invalid token contract address'\n        );\n        require(\n            datatokens[datatoken].owner == address(0) || datatokens[datatoken].owner == msg.sender,\n            'DataToken already activated'\n        );\n        IERC20Template tokenInstance = IERC20Template(datatoken);\n        require(\n            tokenInstance.isMinter(msg.sender),\n            'Sender does not have the minter role'\n        );\n        datatokens[datatoken].active = true;\n        datatokens[datatoken].owner = msg.sender;\n        datatokens[datatoken].maxTokens = maxTokens;\n        datatokens[datatoken].maxBalance = maxBalance;\n        datatokens[datatoken].minterApproved = false;\n        datatokensList.push(datatoken);\n        emit Activated(datatoken);\n    }\n\n    /**\n     * @dev deactivate\n     *      Deactivate an existing dispenser\n     * @param datatoken refers to datatoken address.\n     */\n    function deactivate(address datatoken) external{\n        require(\n            datatoken != address(0),\n            'Invalid token contract address'\n        );\n        require(\n            datatokens[datatoken].owner == msg.sender,\n            'DataToken already activated'\n        );\n        datatokens[datatoken].active = false;\n        emit Deactivated(datatoken);\n    }\n\n    /**\n     * @dev acceptMinter\n     *      Accepts Minter role  (existing datatoken minter has to call datatoken.proposeMinter(dispenserAddress) first)\n     * @param datatoken refers to datatoken address.\n     */\n    function acceptMinter(address datatoken) external{\n        require(\n            datatoken != address(0),\n            'Invalid token contract address'\n        );\n        IERC20Template tokenInstance = IERC20Template(datatoken);\n        tokenInstance.approveMinter();\n        require(\n            tokenInstance.isMinter(address(this)),\n            'ERR: Cannot accept minter role'\n        );\n        datatokens[datatoken].minterApproved = true;\n        emit AcceptedMinter(datatoken);\n    }\n    /**\n     * @dev removeMinter\n     *      Removes Minter role and proposes the owner as a new minter (the owner has to call approveMinter after this)\n     * @param datatoken refers to datatoken address.\n     */\n    function removeMinter(address datatoken) external{\n        require(\n            datatoken != address(0),\n            'Invalid token contract address'\n        );\n        require(\n            datatokens[datatoken].owner == msg.sender,\n            'DataToken already activated'\n        );\n        IERC20Template tokenInstance = IERC20Template(datatoken);\n        require(\n            tokenInstance.isMinter(address(this)),\n            'ERR: Cannot accept minter role'\n        );\n        tokenInstance.proposeMinter(datatokens[datatoken].owner);\n        datatokens[datatoken].minterApproved = false;\n        emit RemovedMinter(datatoken);\n    }\n\n    /**\n     * @dev dispense\n     *      Dispense datatokens to caller. The dispenser must be active, hold enough DT (or be able to mint more) and respect maxTokens/maxBalance requirements\n     * @param datatoken refers to datatoken address.\n     * @param datatoken amount of datatokens required.\n     */\n    function dispense(address datatoken, uint256 amount) external payable{\n        require(\n            datatoken != address(0),\n            'Invalid token contract address'\n        );\n        require(\n            datatokens[datatoken].active == true,\n            'Dispenser not active'\n        );\n        require(\n            amount > 0,\n            'Invalid zero amount'\n        );\n        require(\n            datatokens[datatoken].maxTokens >= amount,\n            'Amount too high'\n        );\n        IERC20Template tokenInstance = IERC20Template(datatoken);\n        uint256 callerBalance = tokenInstance.balanceOf(msg.sender);\n        require(\n            callerBalance<datatokens[datatoken].maxBalance,\n            'Caller balance too high'\n        );\n        uint256 ourBalance = tokenInstance.balanceOf(address(this));\n        if(ourBalance<amount && tokenInstance.isMinter(address(this))){ \n            //we need to mint the difference if we can\n            tokenInstance.mint(address(this),amount - ourBalance);\n            ourBalance = tokenInstance.balanceOf(address(this));\n        }\n        require(\n            ourBalance>=amount,\n            'Not enough reserves'\n        );\n        tokenInstance.transfer(msg.sender,amount);\n        emit TokensDispensed(datatoken, msg.sender, amount);\n    }\n\n    /**\n     * @dev ownerWithdraw\n     *      Allow owner to withdraw all datatokens in this dispenser balance\n     * @param datatoken refers to datatoken address.\n     */\n    function ownerWithdraw(address datatoken) external{\n        require(\n            datatoken != address(0),\n            'Invalid token contract address'\n        );\n        require(\n            datatokens[datatoken].owner == msg.sender,\n            'Invalid owner'\n        );\n        IERC20Template tokenInstance = IERC20Template(datatoken);\n        uint256 ourBalance = tokenInstance.balanceOf(address(this));\n        if(ourBalance>0){\n            tokenInstance.transfer(msg.sender,ourBalance);\n            emit OwnerWithdrawed(datatoken, msg.sender, ourBalance);\n        }\n    }\n    function() external payable {\n        //thank you for your donation\n    }\n}",
  "sourcePath": "/ocean/contracts_v3/contracts/contracts/dispenser/Dispenser.sol",
  "compiler": {
    "name": "solc",
    "version": "0.5.7+commit.6da8b019.Emscripten.clang"
  },
  "schemaVersion": "3.4.3",
  "updatedAt": "2021-10-01T08:43:49.681Z",
  "devdoc": {
    "methods": {
      "acceptMinter(address)": {
        "details": "acceptMinter     Accepts Minter role  (existing datatoken minter has to call datatoken.proposeMinter(dispenserAddress) first)",
        "params": {
          "datatoken": "refers to datatoken address."
        }
      },
      "activate(address,uint256,uint256)": {
        "details": "activate     Activate a new dispenser",
        "params": {
          "datatoken": "refers to datatoken address.",
          "maxBalance": "- max balance of requester.",
          "maxTokens": "- max tokens to dispense"
        }
      },
      "deactivate(address)": {
        "details": "deactivate     Deactivate an existing dispenser",
        "params": {
          "datatoken": "refers to datatoken address."
        }
      },
      "dispense(address,uint256)": {
        "details": "dispense     Dispense datatokens to caller. The dispenser must be active, hold enough DT (or be able to mint more) and respect maxTokens/maxBalance requirements",
        "params": {
          "datatoken": "amount of datatokens required."
        }
      },
      "ownerWithdraw(address)": {
        "details": "ownerWithdraw     Allow owner to withdraw all datatokens in this dispenser balance",
        "params": {
          "datatoken": "refers to datatoken address."
        }
      },
      "removeMinter(address)": {
        "details": "removeMinter     Removes Minter role and proposes the owner as a new minter (the owner has to call approveMinter after this)",
        "params": {
          "datatoken": "refers to datatoken address."
        }
      },
      "status(address)": {
        "details": "status     Get information about a datatoken dispenser",
        "params": {
          "datatoken": "refers to datatoken address."
        },
        "return": "active - if the dispenser is active for this datatokenowner - owner of this dispenserminterApproved - if the dispenser is a minter for this datatokenisTrueMinter  - check the datatoken contract if this contract is really a mintermaxTokens - max tokens to dispensemaxBalance - max balance of requester. If the balance is higher, the dispense is rejectedbalance - internal balance of the contract (if any)"
      }
    }
  },
  "userdoc": {
    "methods": {}
  }
}