{
  "contractName": "ERC20Pausable",
  "abi": [
    {
      "constant": true,
      "inputs": [],
      "name": "totalSupply",
      "outputs": [
        {
          "name": "",
          "type": "uint256"
        }
      ],
      "payable": false,
      "stateMutability": "view",
      "type": "function"
    },
    {
      "constant": true,
      "inputs": [
        {
          "name": "account",
          "type": "address"
        }
      ],
      "name": "balanceOf",
      "outputs": [
        {
          "name": "",
          "type": "uint256"
        }
      ],
      "payable": false,
      "stateMutability": "view",
      "type": "function"
    },
    {
      "constant": true,
      "inputs": [
        {
          "name": "owner",
          "type": "address"
        },
        {
          "name": "spender",
          "type": "address"
        }
      ],
      "name": "allowance",
      "outputs": [
        {
          "name": "",
          "type": "uint256"
        }
      ],
      "payable": false,
      "stateMutability": "view",
      "type": "function"
    },
    {
      "anonymous": false,
      "inputs": [
        {
          "indexed": true,
          "name": "from",
          "type": "address"
        },
        {
          "indexed": true,
          "name": "to",
          "type": "address"
        },
        {
          "indexed": false,
          "name": "value",
          "type": "uint256"
        }
      ],
      "name": "Transfer",
      "type": "event"
    },
    {
      "anonymous": false,
      "inputs": [
        {
          "indexed": true,
          "name": "owner",
          "type": "address"
        },
        {
          "indexed": true,
          "name": "spender",
          "type": "address"
        },
        {
          "indexed": false,
          "name": "value",
          "type": "uint256"
        }
      ],
      "name": "Approval",
      "type": "event"
    },
    {
      "constant": false,
      "inputs": [
        {
          "name": "to",
          "type": "address"
        },
        {
          "name": "value",
          "type": "uint256"
        }
      ],
      "name": "transfer",
      "outputs": [
        {
          "name": "",
          "type": "bool"
        }
      ],
      "payable": false,
      "stateMutability": "nonpayable",
      "type": "function"
    },
    {
      "constant": false,
      "inputs": [
        {
          "name": "from",
          "type": "address"
        },
        {
          "name": "to",
          "type": "address"
        },
        {
          "name": "value",
          "type": "uint256"
        }
      ],
      "name": "transferFrom",
      "outputs": [
        {
          "name": "",
          "type": "bool"
        }
      ],
      "payable": false,
      "stateMutability": "nonpayable",
      "type": "function"
    },
    {
      "constant": false,
      "inputs": [
        {
          "name": "spender",
          "type": "address"
        },
        {
          "name": "value",
          "type": "uint256"
        }
      ],
      "name": "approve",
      "outputs": [
        {
          "name": "",
          "type": "bool"
        }
      ],
      "payable": false,
      "stateMutability": "nonpayable",
      "type": "function"
    },
    {
      "constant": false,
      "inputs": [
        {
          "name": "spender",
          "type": "address"
        },
        {
          "name": "addedValue",
          "type": "uint256"
        }
      ],
      "name": "increaseAllowance",
      "outputs": [
        {
          "name": "",
          "type": "bool"
        }
      ],
      "payable": false,
      "stateMutability": "nonpayable",
      "type": "function"
    },
    {
      "constant": false,
      "inputs": [
        {
          "name": "spender",
          "type": "address"
        },
        {
          "name": "subtractedValue",
          "type": "uint256"
        }
      ],
      "name": "decreaseAllowance",
      "outputs": [
        {
          "name": "",
          "type": "bool"
        }
      ],
      "payable": false,
      "stateMutability": "nonpayable",
      "type": "function"
    }
  ],
  "bytecode": "0x60806040526003805460ff19169055610a308061001d6000396000f3fe608060405234801561001057600080fd5b50600436106100a5576000357c01000000000000000000000000000000000000000000000000000000009004806370a082311161007857806370a0823114610166578063a457c2d71461018c578063a9059cbb146101b8578063dd62ed3e146101e4576100a5565b8063095ea7b3146100aa57806318160ddd146100ea57806323b872dd14610104578063395093511461013a575b600080fd5b6100d6600480360360408110156100c057600080fd5b50600160a060020a038135169060200135610212565b604080519115158252519081900360200190f35b6100f261026b565b60408051918252519081900360200190f35b6100d66004803603606081101561011a57600080fd5b50600160a060020a03813581169160208101359091169060400135610271565b6100d66004803603604081101561015057600080fd5b50600160a060020a0381351690602001356102cc565b6100f26004803603602081101561017c57600080fd5b5035600160a060020a031661031e565b6100d6600480360360408110156101a257600080fd5b50600160a060020a038135169060200135610339565b6100d6600480360360408110156101ce57600080fd5b50600160a060020a03813516906020013561038b565b6100f2600480360360408110156101fa57600080fd5b50600160a060020a03813581169160200135166103dd565b60035460009060ff161561025a5760405160e560020a62461bcd02815260040180806020018281038252602c8152602001806108fb602c913960400191505060405180910390fd5b6102648383610408565b9392505050565b60025490565b60035460009060ff16156102b95760405160e560020a62461bcd02815260040180806020018281038252602c8152602001806108fb602c913960400191505060405180910390fd5b6102c4848484610425565b949350505050565b60035460009060ff16156103145760405160e560020a62461bcd02815260040180806020018281038252602c8152602001806108fb602c913960400191505060405180910390fd5b61026483836104b2565b600160a060020a031660009081526020819052604090205490565b60035460009060ff16156103815760405160e560020a62461bcd02815260040180806020018281038252602c8152602001806108fb602c913960400191505060405180910390fd5b6102648383610506565b60035460009060ff16156103d35760405160e560020a62461bcd02815260040180806020018281038252602c8152602001806108fb602c913960400191505060405180910390fd5b6102648383610574565b600160a060020a03918216600090815260016020908152604080832093909416825291909152205490565b600061041c610415610588565b848461058c565b50600192915050565b600061043284848461067e565b6104a88461043e610588565b6104a38560405180606001604052806028815260200161096f60289139600160a060020a038a1660009081526001602052604081209061047c610588565b600160a060020a03168152602081019190915260400160002054919063ffffffff6107e016565b61058c565b5060019392505050565b600061041c6104bf610588565b846104a385600160006104d0610588565b600160a060020a03908116825260208083019390935260409182016000908120918c16815292529020549063ffffffff61087a16565b600061041c610513610588565b846104a3856040518060600160405280602581526020016109e0602591396001600061053d610588565b600160a060020a03908116825260208083019390935260409182016000908120918d1681529252902054919063ffffffff6107e016565b600061041c610581610588565b848461067e565b3390565b600160a060020a0383166105d45760405160e560020a62461bcd0281526004018080602001828103825260248152602001806109bc6024913960400191505060405180910390fd5b600160a060020a03821661061c5760405160e560020a62461bcd0281526004018080602001828103825260228152602001806109276022913960400191505060405180910390fd5b600160a060020a03808416600081815260016020908152604080832094871680845294825291829020859055815185815291517f8c5be1e5ebec7d5bd14f71427d1e84f3dd0314c0f7b2291e5b200ac8c7c3b9259281900390910190a3505050565b600160a060020a0383166106c65760405160e560020a62461bcd0281526004018080602001828103825260258152602001806109976025913960400191505060405180910390fd5b600160a060020a03821661070e5760405160e560020a62461bcd0281526004018080602001828103825260238152602001806108d86023913960400191505060405180910390fd5b6107518160405180606001604052806026815260200161094960269139600160a060020a038616600090815260208190526040902054919063ffffffff6107e016565b600160a060020a038085166000908152602081905260408082209390935590841681522054610786908263ffffffff61087a16565b600160a060020a038084166000818152602081815260409182902094909455805185815290519193928716927fddf252ad1be2c89b69c2b068fc378daa952ba7f163c4a11628f55a4df523b3ef92918290030190a3505050565b600081848411156108725760405160e560020a62461bcd0281526004018080602001828103825283818151815260200191508051906020019080838360005b8381101561083757818101518382015260200161081f565b50505050905090810190601f1680156108645780820380516001836020036101000a031916815260200191505b509250505060405180910390fd5b505050900390565b600082820183811015610264576040805160e560020a62461bcd02815260206004820152601b60248201527f536166654d6174683a206164646974696f6e206f766572666c6f770000000000604482015290519081900360640190fdfe45524332303a207472616e7366657220746f20746865207a65726f206164647265737345524332305061757361626c653a207468697320746f6b656e20636f6e74726163742069732070617573656445524332303a20617070726f766520746f20746865207a65726f206164647265737345524332303a207472616e7366657220616d6f756e7420657863656564732062616c616e636545524332303a207472616e7366657220616d6f756e74206578636565647320616c6c6f77616e636545524332303a207472616e736665722066726f6d20746865207a65726f206164647265737345524332303a20617070726f76652066726f6d20746865207a65726f206164647265737345524332303a2064656372656173656420616c6c6f77616e63652062656c6f77207a65726fa165627a7a723058208c7333dbeea6bd2fcb7f1b23b3ae58e954a2a2dd8b812bbdba932a4501924cc00029",
  "source": "pragma solidity ^0.5.7;\n// Copyright BigchainDB GmbH and Ocean Protocol contributors\n// SPDX-License-Identifier: (Apache-2.0 AND CC-BY-4.0)\n// Code is Apache-2.0 and docs are CC-BY-4.0\n\nimport 'openzeppelin-solidity/contracts/token/ERC20/ERC20.sol';\n\n/**\n* @title ERC20Pausable\n*  \n* @dev ERC20Pausable adds the ability to pause ERC20 compliant template \n*      used by the ERC20Template contract for pausing the contract.\n*/\ncontract ERC20Pausable is ERC20 {\n\n    bool internal paused = false;\n    \n    modifier onlyNotPaused() {\n        require(\n            !paused,\n            'ERC20Pausable: this token contract is paused' \n        );\n        _;\n    }\n\n    modifier onlyPaused() {\n        require(\n            paused,\n            'ERC20Pausable: this token contract is not paused' \n        );\n        _;\n    }\n\n    /**\n     * @dev transfer\n     *      Standard ERC20 transfer function with onlyNotPaused modifier.\n     *      Can be called only if the contract is not paused.\n     * @param to refers to an address that tokens are tranfered to.\n     * @param value refers to amount of tokens being tranfered.\n     * @return true if transfer is success, false otherwise.\n     */\n    function transfer(\n        address to, \n        uint256 value\n    ) \n        public \n        onlyNotPaused \n        returns (bool) \n    {\n        return super.transfer(to, value);\n    }\n\n    /**\n     * @dev transfer\n     *      Standard ERC20 transferFrom function with onlyNotPaused modifier.\n     *      Can be called only if the contract is not paused.\n     * @param from refers to an address that tokens are tranfered from.\n     * @param to refers to an address that tokens are tranfered to.\n     * @param value refers to amount of tokens being tranfered.\n     * @return true if transfer is success, false otherwise.\n     */\n    function transferFrom(\n        address from, \n        address to, \n        uint256 value\n    ) \n        public \n        onlyNotPaused \n        returns (bool) \n    {\n        return super.transferFrom(from, to, value);\n    }\n\n    /**\n     * @dev approve\n     *      Standard ERC20 approve function with onlyNotPaused modifier.\n     *      Can be called only if the contract is not paused.\n     * @param spender refers to an address that is allowed to spend tokens.\n     * @param value refers to amount of tokens that could be spent.\n     * @return true if approval is success, false otherwise.\n     */\n    function approve(\n        address spender, \n        uint256 value\n    ) \n        public \n        onlyNotPaused \n        returns (bool) \n    {\n        return super.approve(spender, value);\n    }\n\n    /**\n     * @dev increaseAllowance\n     *      Standard ERC20 increaseAllowance function with onlyNotPaused modifier.\n     *      Can be called only if the contract is not paused.\n     * @param spender refers to an address that is allowed to spend tokens.\n     * @param addedValue refers to an added amount of tokens that could be spent.\n     * @return true if allowance is increased successfully, false otherwise.\n     */\n    function increaseAllowance(\n        address spender, \n        uint256 addedValue\n    ) \n        public \n        onlyNotPaused \n        returns (bool) \n    {\n        return super.increaseAllowance(spender, addedValue);\n    }\n\n    /**\n     * @dev decreaseAllowance\n     *      Standard ERC20 decreaseAllowance function with onlyNotPaused modifier.\n     *      Can be called only if the contract is not paused.\n     * @param spender refers to an address that is allowed to spend tokens.\n     * @param subtractedValue refers to an subtracted amount of tokens that could be spent.\n     * @return true if allowance is decreased successfully, false otherwise.\n     */\n    function decreaseAllowance(\n        address spender, \n        uint256 subtractedValue\n    ) \n        public \n        onlyNotPaused \n        returns (bool) \n    {\n        return super.decreaseAllowance(spender, subtractedValue);\n    }\n}",
  "sourcePath": "/Users/ahmedali/Desktop/work/ocean-contracts/contracts/templates/token/ERC20Pausable.sol",
  "compiler": {
    "name": "solc",
    "version": "0.5.7+commit.6da8b019.Emscripten.clang"
  },
  "schemaVersion": "3.2.0",
  "updatedAt": "2020-08-31T13:01:35.563Z",
  "devdoc": {
    "details": "ERC20Pausable adds the ability to pause ERC20 compliant template      used by the ERC20Template contract for pausing the contract.",
    "methods": {
      "allowance(address,address)": {
        "details": "See {IERC20-allowance}."
      },
      "approve(address,uint256)": {
        "details": "approve     Standard ERC20 approve function with onlyNotPaused modifier.     Can be called only if the contract is not paused.",
        "params": {
          "spender": "refers to an address that is allowed to spend tokens.",
          "value": "refers to amount of tokens that could be spent."
        },
        "return": "true if approval is success, false otherwise."
      },
      "balanceOf(address)": {
        "details": "See {IERC20-balanceOf}."
      },
      "decreaseAllowance(address,uint256)": {
        "details": "decreaseAllowance     Standard ERC20 decreaseAllowance function with onlyNotPaused modifier.     Can be called only if the contract is not paused.",
        "params": {
          "spender": "refers to an address that is allowed to spend tokens.",
          "subtractedValue": "refers to an subtracted amount of tokens that could be spent."
        },
        "return": "true if allowance is decreased successfully, false otherwise."
      },
      "increaseAllowance(address,uint256)": {
        "details": "increaseAllowance     Standard ERC20 increaseAllowance function with onlyNotPaused modifier.     Can be called only if the contract is not paused.",
        "params": {
          "addedValue": "refers to an added amount of tokens that could be spent.",
          "spender": "refers to an address that is allowed to spend tokens."
        },
        "return": "true if allowance is increased successfully, false otherwise."
      },
      "totalSupply()": {
        "details": "See {IERC20-totalSupply}."
      },
      "transfer(address,uint256)": {
        "details": "transfer     Standard ERC20 transfer function with onlyNotPaused modifier.     Can be called only if the contract is not paused.",
        "params": {
          "to": "refers to an address that tokens are tranfered to.",
          "value": "refers to amount of tokens being tranfered."
        },
        "return": "true if transfer is success, false otherwise."
      },
      "transferFrom(address,address,uint256)": {
        "details": "transfer     Standard ERC20 transferFrom function with onlyNotPaused modifier.     Can be called only if the contract is not paused.",
        "params": {
          "from": "refers to an address that tokens are tranfered from.",
          "to": "refers to an address that tokens are tranfered to.",
          "value": "refers to amount of tokens being tranfered."
        },
        "return": "true if transfer is success, false otherwise."
      }
    },
    "title": "ERC20Pausable "
  },
  "userdoc": {
    "methods": {}
  }
}